{
  "address": "0x4ABA0078ED7f8bC0C4907562B4e59d6137cd0e06",
  "abi": [
    {
      "inputs": [
        {
          "components": [
            {
              "internalType": "address",
              "name": "platformAddress",
              "type": "address"
            },
            {
              "internalType": "address",
              "name": "vaultAddress",
              "type": "address"
            }
          ],
          "internalType": "struct InitializableAbstractStrategy.BaseStrategyConfig",
          "name": "_stratConfig",
          "type": "tuple"
        },
        {
          "internalType": "address",
          "name": "_bridgeAsset",
          "type": "address"
        },
        {
          "internalType": "address",
          "name": "_oToken",
          "type": "address"
        }
      ],
      "stateMutability": "nonpayable",
      "type": "constructor"
    },
    {
      "anonymous": false,
      "inputs": [
        {
          "indexed": false,
          "internalType": "uint64",
          "name": "nonce",
          "type": "uint64"
        },
        {
          "indexed": false,
          "internalType": "uint256",
          "name": "timestamp",
          "type": "uint256"
        }
      ],
      "name": "BalanceCheckRequested",
      "type": "event"
    },
    {
      "anonymous": false,
      "inputs": [
        {
          "indexed": false,
          "internalType": "uint64",
          "name": "nonce",
          "type": "uint64"
        },
        {
          "indexed": false,
          "internalType": "uint256",
          "name": "newBalance",
          "type": "uint256"
        },
        {
          "indexed": false,
          "internalType": "uint256",
          "name": "remoteTimestamp",
          "type": "uint256"
        }
      ],
      "name": "BalanceCheckResponded",
      "type": "event"
    },
    {
      "anonymous": false,
      "inputs": [
        {
          "indexed": true,
          "internalType": "bytes32",
          "name": "bridgeId",
          "type": "bytes32"
        },
        {
          "indexed": true,
          "internalType": "address",
          "name": "recipient",
          "type": "address"
        },
        {
          "indexed": false,
          "internalType": "uint256",
          "name": "amount",
          "type": "uint256"
        },
        {
          "indexed": false,
          "internalType": "bytes",
          "name": "returnData",
          "type": "bytes"
        }
      ],
      "name": "BridgeCallFailed",
      "type": "event"
    },
    {
      "anonymous": false,
      "inputs": [
        {
          "indexed": true,
          "internalType": "bytes32",
          "name": "bridgeId",
          "type": "bytes32"
        },
        {
          "indexed": true,
          "internalType": "address",
          "name": "recipient",
          "type": "address"
        },
        {
          "indexed": false,
          "internalType": "uint256",
          "name": "amount",
          "type": "uint256"
        }
      ],
      "name": "BridgeCallSucceeded",
      "type": "event"
    },
    {
      "anonymous": false,
      "inputs": [
        {
          "indexed": true,
          "internalType": "bytes32",
          "name": "bridgeId",
          "type": "bytes32"
        },
        {
          "indexed": true,
          "internalType": "address",
          "name": "recipient",
          "type": "address"
        },
        {
          "indexed": false,
          "internalType": "uint256",
          "name": "amount",
          "type": "uint256"
        }
      ],
      "name": "BridgeDelivered",
      "type": "event"
    },
    {
      "anonymous": false,
      "inputs": [
        {
          "indexed": false,
          "internalType": "uint256",
          "name": "oldBps",
          "type": "uint256"
        },
        {
          "indexed": false,
          "internalType": "uint256",
          "name": "newBps",
          "type": "uint256"
        }
      ],
      "name": "BridgeFeeBpsUpdated",
      "type": "event"
    },
    {
      "anonymous": false,
      "inputs": [
        {
          "indexed": true,
          "internalType": "bytes32",
          "name": "bridgeId",
          "type": "bytes32"
        },
        {
          "indexed": true,
          "internalType": "address",
          "name": "sender",
          "type": "address"
        },
        {
          "indexed": true,
          "internalType": "address",
          "name": "recipient",
          "type": "address"
        },
        {
          "indexed": false,
          "internalType": "uint256",
          "name": "amount",
          "type": "uint256"
        },
        {
          "indexed": false,
          "internalType": "uint256",
          "name": "fee",
          "type": "uint256"
        },
        {
          "indexed": false,
          "internalType": "bytes",
          "name": "callData",
          "type": "bytes"
        },
        {
          "indexed": false,
          "internalType": "uint32",
          "name": "callGasLimit",
          "type": "uint32"
        }
      ],
      "name": "BridgeRequested",
      "type": "event"
    },
    {
      "anonymous": false,
      "inputs": [
        {
          "indexed": true,
          "internalType": "address",
          "name": "_asset",
          "type": "address"
        },
        {
          "indexed": false,
          "internalType": "address",
          "name": "_pToken",
          "type": "address"
        },
        {
          "indexed": false,
          "internalType": "uint256",
          "name": "_amount",
          "type": "uint256"
        }
      ],
      "name": "Deposit",
      "type": "event"
    },
    {
      "anonymous": false,
      "inputs": [
        {
          "indexed": false,
          "internalType": "uint64",
          "name": "nonce",
          "type": "uint64"
        },
        {
          "indexed": false,
          "internalType": "uint256",
          "name": "newBalance",
          "type": "uint256"
        }
      ],
      "name": "DepositAcked",
      "type": "event"
    },
    {
      "anonymous": false,
      "inputs": [
        {
          "indexed": false,
          "internalType": "uint64",
          "name": "nonce",
          "type": "uint64"
        },
        {
          "indexed": false,
          "internalType": "uint256",
          "name": "amount",
          "type": "uint256"
        }
      ],
      "name": "DepositRequested",
      "type": "event"
    },
    {
      "anonymous": false,
      "inputs": [
        {
          "indexed": true,
          "internalType": "address",
          "name": "previousGovernor",
          "type": "address"
        },
        {
          "indexed": true,
          "internalType": "address",
          "name": "newGovernor",
          "type": "address"
        }
      ],
      "name": "GovernorshipTransferred",
      "type": "event"
    },
    {
      "anonymous": false,
      "inputs": [
        {
          "indexed": false,
          "internalType": "address",
          "name": "_oldHarvesterAddress",
          "type": "address"
        },
        {
          "indexed": false,
          "internalType": "address",
          "name": "_newHarvesterAddress",
          "type": "address"
        }
      ],
      "name": "HarvesterAddressesUpdated",
      "type": "event"
    },
    {
      "anonymous": false,
      "inputs": [
        {
          "indexed": false,
          "internalType": "address",
          "name": "oldAdapter",
          "type": "address"
        },
        {
          "indexed": false,
          "internalType": "address",
          "name": "newAdapter",
          "type": "address"
        }
      ],
      "name": "InboundAdapterUpdated",
      "type": "event"
    },
    {
      "anonymous": false,
      "inputs": [
        {
          "indexed": false,
          "internalType": "address",
          "name": "oldOperator",
          "type": "address"
        },
        {
          "indexed": false,
          "internalType": "address",
          "name": "newOperator",
          "type": "address"
        }
      ],
      "name": "OperatorUpdated",
      "type": "event"
    },
    {
      "anonymous": false,
      "inputs": [
        {
          "indexed": false,
          "internalType": "address",
          "name": "oldAdapter",
          "type": "address"
        },
        {
          "indexed": false,
          "internalType": "address",
          "name": "newAdapter",
          "type": "address"
        }
      ],
      "name": "OutboundAdapterUpdated",
      "type": "event"
    },
    {
      "anonymous": false,
      "inputs": [
        {
          "indexed": true,
          "internalType": "address",
          "name": "_asset",
          "type": "address"
        },
        {
          "indexed": false,
          "internalType": "address",
          "name": "_pToken",
          "type": "address"
        }
      ],
      "name": "PTokenAdded",
      "type": "event"
    },
    {
      "anonymous": false,
      "inputs": [
        {
          "indexed": true,
          "internalType": "address",
          "name": "_asset",
          "type": "address"
        },
        {
          "indexed": false,
          "internalType": "address",
          "name": "_pToken",
          "type": "address"
        }
      ],
      "name": "PTokenRemoved",
      "type": "event"
    },
    {
      "anonymous": false,
      "inputs": [
        {
          "indexed": true,
          "internalType": "address",
          "name": "previousGovernor",
          "type": "address"
        },
        {
          "indexed": true,
          "internalType": "address",
          "name": "newGovernor",
          "type": "address"
        }
      ],
      "name": "PendingGovernorshipTransfer",
      "type": "event"
    },
    {
      "anonymous": false,
      "inputs": [
        {
          "indexed": false,
          "internalType": "uint256",
          "name": "newBalance",
          "type": "uint256"
        }
      ],
      "name": "RemoteStrategyBalanceUpdated",
      "type": "event"
    },
    {
      "anonymous": false,
      "inputs": [
        {
          "indexed": false,
          "internalType": "address[]",
          "name": "_oldAddresses",
          "type": "address[]"
        },
        {
          "indexed": false,
          "internalType": "address[]",
          "name": "_newAddresses",
          "type": "address[]"
        }
      ],
      "name": "RewardTokenAddressesUpdated",
      "type": "event"
    },
    {
      "anonymous": false,
      "inputs": [
        {
          "indexed": false,
          "internalType": "address",
          "name": "recipient",
          "type": "address"
        },
        {
          "indexed": false,
          "internalType": "address",
          "name": "rewardToken",
          "type": "address"
        },
        {
          "indexed": false,
          "internalType": "uint256",
          "name": "amount",
          "type": "uint256"
        }
      ],
      "name": "RewardTokenCollected",
      "type": "event"
    },
    {
      "anonymous": false,
      "inputs": [
        {
          "indexed": false,
          "internalType": "uint64",
          "name": "nonce",
          "type": "uint64"
        },
        {
          "indexed": false,
          "internalType": "uint256",
          "name": "newBalance",
          "type": "uint256"
        }
      ],
      "name": "SettlementAcked",
      "type": "event"
    },
    {
      "anonymous": false,
      "inputs": [
        {
          "indexed": false,
          "internalType": "uint64",
          "name": "nonce",
          "type": "uint64"
        },
        {
          "indexed": false,
          "internalType": "int256",
          "name": "unsettledAtRequest",
          "type": "int256"
        }
      ],
      "name": "SettlementRequested",
      "type": "event"
    },
    {
      "anonymous": false,
      "inputs": [
        {
          "indexed": false,
          "internalType": "uint64",
          "name": "nonce",
          "type": "uint64"
        },
        {
          "indexed": false,
          "internalType": "uint256",
          "name": "newBalance",
          "type": "uint256"
        },
        {
          "indexed": false,
          "internalType": "bool",
          "name": "success",
          "type": "bool"
        }
      ],
      "name": "WithdrawClaimAcked",
      "type": "event"
    },
    {
      "anonymous": false,
      "inputs": [
        {
          "indexed": false,
          "internalType": "uint64",
          "name": "nonce",
          "type": "uint64"
        },
        {
          "indexed": false,
          "internalType": "uint256",
          "name": "amount",
          "type": "uint256"
        }
      ],
      "name": "WithdrawClaimTriggered",
      "type": "event"
    },
    {
      "anonymous": false,
      "inputs": [
        {
          "indexed": false,
          "internalType": "uint64",
          "name": "nonce",
          "type": "uint64"
        },
        {
          "indexed": false,
          "internalType": "uint256",
          "name": "newBalance",
          "type": "uint256"
        }
      ],
      "name": "WithdrawRequestAcked",
      "type": "event"
    },
    {
      "anonymous": false,
      "inputs": [
        {
          "indexed": false,
          "internalType": "uint64",
          "name": "nonce",
          "type": "uint64"
        },
        {
          "indexed": false,
          "internalType": "uint256",
          "name": "amount",
          "type": "uint256"
        }
      ],
      "name": "WithdrawRequested",
      "type": "event"
    },
    {
      "anonymous": false,
      "inputs": [
        {
          "indexed": true,
          "internalType": "address",
          "name": "_asset",
          "type": "address"
        },
        {
          "indexed": false,
          "internalType": "address",
          "name": "_pToken",
          "type": "address"
        },
        {
          "indexed": false,
          "internalType": "uint256",
          "name": "_amount",
          "type": "uint256"
        }
      ],
      "name": "Withdrawal",
      "type": "event"
    },
    {
      "anonymous": false,
      "inputs": [
        {
          "indexed": false,
          "internalType": "uint64",
          "name": "nonce",
          "type": "uint64"
        }
      ],
      "name": "YieldNonceAdvanced",
      "type": "event"
    },
    {
      "anonymous": false,
      "inputs": [
        {
          "indexed": false,
          "internalType": "uint64",
          "name": "nonce",
          "type": "uint64"
        }
      ],
      "name": "YieldNonceProcessed",
      "type": "event"
    },
    {
      "inputs": [],
      "name": "MAX_BRIDGE_CALL_GAS",
      "outputs": [
        {
          "internalType": "uint32",
          "name": "",
          "type": "uint32"
        }
      ],
      "stateMutability": "view",
      "type": "function"
    },
    {
      "inputs": [],
      "name": "MAX_BRIDGE_FEE_BPS",
      "outputs": [
        {
          "internalType": "uint256",
          "name": "",
          "type": "uint256"
        }
      ],
      "stateMutability": "view",
      "type": "function"
    },
    {
      "inputs": [
        {
          "internalType": "address",
          "name": "",
          "type": "address"
        }
      ],
      "name": "assetToPToken",
      "outputs": [
        {
          "internalType": "address",
          "name": "",
          "type": "address"
        }
      ],
      "stateMutability": "view",
      "type": "function"
    },
    {
      "inputs": [],
      "name": "bridgeAdjustment",
      "outputs": [
        {
          "internalType": "int256",
          "name": "",
          "type": "int256"
        }
      ],
      "stateMutability": "view",
      "type": "function"
    },
    {
      "inputs": [],
      "name": "bridgeAsset",
      "outputs": [
        {
          "internalType": "address",
          "name": "",
          "type": "address"
        }
      ],
      "stateMutability": "view",
      "type": "function"
    },
    {
      "inputs": [],
      "name": "bridgeFeeBps",
      "outputs": [
        {
          "internalType": "uint256",
          "name": "",
          "type": "uint256"
        }
      ],
      "stateMutability": "view",
      "type": "function"
    },
    {
      "inputs": [],
      "name": "bridgeIdCounter",
      "outputs": [
        {
          "internalType": "uint256",
          "name": "",
          "type": "uint256"
        }
      ],
      "stateMutability": "view",
      "type": "function"
    },
    {
      "inputs": [
        {
          "internalType": "uint256",
          "name": "_amount",
          "type": "uint256"
        },
        {
          "internalType": "address",
          "name": "_recipient",
          "type": "address"
        },
        {
          "internalType": "bytes",
          "name": "_callData",
          "type": "bytes"
        },
        {
          "internalType": "uint32",
          "name": "_callGasLimit",
          "type": "uint32"
        }
      ],
      "name": "bridgeOTokenToPeer",
      "outputs": [],
      "stateMutability": "payable",
      "type": "function"
    },
    {
      "inputs": [
        {
          "internalType": "address",
          "name": "_asset",
          "type": "address"
        }
      ],
      "name": "checkBalance",
      "outputs": [
        {
          "internalType": "uint256",
          "name": "",
          "type": "uint256"
        }
      ],
      "stateMutability": "view",
      "type": "function"
    },
    {
      "inputs": [],
      "name": "claimGovernance",
      "outputs": [],
      "stateMutability": "nonpayable",
      "type": "function"
    },
    {
      "inputs": [],
      "name": "collectRewardTokens",
      "outputs": [],
      "stateMutability": "nonpayable",
      "type": "function"
    },
    {
      "inputs": [
        {
          "internalType": "bytes32",
          "name": "",
          "type": "bytes32"
        }
      ],
      "name": "consumedBridgeIds",
      "outputs": [
        {
          "internalType": "bool",
          "name": "",
          "type": "bool"
        }
      ],
      "stateMutability": "view",
      "type": "function"
    },
    {
      "inputs": [
        {
          "internalType": "address",
          "name": "_asset",
          "type": "address"
        },
        {
          "internalType": "uint256",
          "name": "_amount",
          "type": "uint256"
        }
      ],
      "name": "deposit",
      "outputs": [],
      "stateMutability": "nonpayable",
      "type": "function"
    },
    {
      "inputs": [],
      "name": "depositAll",
      "outputs": [],
      "stateMutability": "nonpayable",
      "type": "function"
    },
    {
      "inputs": [],
      "name": "getRewardTokenAddresses",
      "outputs": [
        {
          "internalType": "address[]",
          "name": "",
          "type": "address[]"
        }
      ],
      "stateMutability": "view",
      "type": "function"
    },
    {
      "inputs": [],
      "name": "governor",
      "outputs": [
        {
          "internalType": "address",
          "name": "",
          "type": "address"
        }
      ],
      "stateMutability": "view",
      "type": "function"
    },
    {
      "inputs": [],
      "name": "harvesterAddress",
      "outputs": [
        {
          "internalType": "address",
          "name": "",
          "type": "address"
        }
      ],
      "stateMutability": "view",
      "type": "function"
    },
    {
      "inputs": [],
      "name": "inboundAdapter",
      "outputs": [
        {
          "internalType": "address",
          "name": "",
          "type": "address"
        }
      ],
      "stateMutability": "view",
      "type": "function"
    },
    {
      "inputs": [
        {
          "internalType": "address",
          "name": "_operator",
          "type": "address"
        }
      ],
      "name": "initialize",
      "outputs": [],
      "stateMutability": "nonpayable",
      "type": "function"
    },
    {
      "inputs": [],
      "name": "isGovernor",
      "outputs": [
        {
          "internalType": "bool",
          "name": "",
          "type": "bool"
        }
      ],
      "stateMutability": "view",
      "type": "function"
    },
    {
      "inputs": [],
      "name": "isYieldOpInFlight",
      "outputs": [
        {
          "internalType": "bool",
          "name": "",
          "type": "bool"
        }
      ],
      "stateMutability": "view",
      "type": "function"
    },
    {
      "inputs": [],
      "name": "lastBalanceCheckTimestamp",
      "outputs": [
        {
          "internalType": "uint256",
          "name": "",
          "type": "uint256"
        }
      ],
      "stateMutability": "view",
      "type": "function"
    },
    {
      "inputs": [],
      "name": "lastYieldNonce",
      "outputs": [
        {
          "internalType": "uint64",
          "name": "",
          "type": "uint64"
        }
      ],
      "stateMutability": "view",
      "type": "function"
    },
    {
      "inputs": [
        {
          "internalType": "uint64",
          "name": "",
          "type": "uint64"
        }
      ],
      "name": "nonceProcessed",
      "outputs": [
        {
          "internalType": "bool",
          "name": "",
          "type": "bool"
        }
      ],
      "stateMutability": "view",
      "type": "function"
    },
    {
      "inputs": [],
      "name": "oToken",
      "outputs": [
        {
          "internalType": "address",
          "name": "",
          "type": "address"
        }
      ],
      "stateMutability": "view",
      "type": "function"
    },
    {
      "inputs": [],
      "name": "operator",
      "outputs": [
        {
          "internalType": "address",
          "name": "",
          "type": "address"
        }
      ],
      "stateMutability": "view",
      "type": "function"
    },
    {
      "inputs": [],
      "name": "outboundAdapter",
      "outputs": [
        {
          "internalType": "address",
          "name": "",
          "type": "address"
        }
      ],
      "stateMutability": "view",
      "type": "function"
    },
    {
      "inputs": [],
      "name": "pendingAmount",
      "outputs": [
        {
          "internalType": "uint256",
          "name": "",
          "type": "uint256"
        }
      ],
      "stateMutability": "view",
      "type": "function"
    },
    {
      "inputs": [],
      "name": "pendingWithdrawalAmount",
      "outputs": [
        {
          "internalType": "uint256",
          "name": "",
          "type": "uint256"
        }
      ],
      "stateMutability": "view",
      "type": "function"
    },
    {
      "inputs": [],
      "name": "platformAddress",
      "outputs": [
        {
          "internalType": "address",
          "name": "",
          "type": "address"
        }
      ],
      "stateMutability": "view",
      "type": "function"
    },
    {
      "inputs": [
        {
          "internalType": "address",
          "name": "sender",
          "type": "address"
        },
        {
          "internalType": "address",
          "name": "token",
          "type": "address"
        },
        {
          "internalType": "uint256",
          "name": "amountReceived",
          "type": "uint256"
        },
        {
          "internalType": "uint256",
          "name": "feePaid",
          "type": "uint256"
        },
        {
          "internalType": "bytes",
          "name": "payload",
          "type": "bytes"
        }
      ],
      "name": "receiveMessage",
      "outputs": [],
      "stateMutability": "nonpayable",
      "type": "function"
    },
    {
      "inputs": [],
      "name": "remoteStrategyBalance",
      "outputs": [
        {
          "internalType": "uint256",
          "name": "",
          "type": "uint256"
        }
      ],
      "stateMutability": "view",
      "type": "function"
    },
    {
      "inputs": [
        {
          "internalType": "uint256",
          "name": "_assetIndex",
          "type": "uint256"
        }
      ],
      "name": "removePToken",
      "outputs": [],
      "stateMutability": "nonpayable",
      "type": "function"
    },
    {
      "inputs": [],
      "name": "requestBalanceCheck",
      "outputs": [],
      "stateMutability": "payable",
      "type": "function"
    },
    {
      "inputs": [],
      "name": "requestSettlement",
      "outputs": [],
      "stateMutability": "payable",
      "type": "function"
    },
    {
      "inputs": [
        {
          "internalType": "uint256",
          "name": "",
          "type": "uint256"
        }
      ],
      "name": "rewardTokenAddresses",
      "outputs": [
        {
          "internalType": "address",
          "name": "",
          "type": "address"
        }
      ],
      "stateMutability": "view",
      "type": "function"
    },
    {
      "inputs": [],
      "name": "safeApproveAllTokens",
      "outputs": [],
      "stateMutability": "nonpayable",
      "type": "function"
    },
    {
      "inputs": [
        {
          "internalType": "uint256",
          "name": "_bps",
          "type": "uint256"
        }
      ],
      "name": "setBridgeFeeBps",
      "outputs": [],
      "stateMutability": "nonpayable",
      "type": "function"
    },
    {
      "inputs": [
        {
          "internalType": "address",
          "name": "_harvesterAddress",
          "type": "address"
        }
      ],
      "name": "setHarvesterAddress",
      "outputs": [],
      "stateMutability": "nonpayable",
      "type": "function"
    },
    {
      "inputs": [
        {
          "internalType": "address",
          "name": "_inboundAdapter",
          "type": "address"
        }
      ],
      "name": "setInboundAdapter",
      "outputs": [],
      "stateMutability": "nonpayable",
      "type": "function"
    },
    {
      "inputs": [
        {
          "internalType": "address",
          "name": "_operator",
          "type": "address"
        }
      ],
      "name": "setOperator",
      "outputs": [],
      "stateMutability": "nonpayable",
      "type": "function"
    },
    {
      "inputs": [
        {
          "internalType": "address",
          "name": "_outboundAdapter",
          "type": "address"
        }
      ],
      "name": "setOutboundAdapter",
      "outputs": [],
      "stateMutability": "nonpayable",
      "type": "function"
    },
    {
      "inputs": [
        {
          "internalType": "address",
          "name": "_asset",
          "type": "address"
        },
        {
          "internalType": "address",
          "name": "_pToken",
          "type": "address"
        }
      ],
      "name": "setPTokenAddress",
      "outputs": [],
      "stateMutability": "nonpayable",
      "type": "function"
    },
    {
      "inputs": [
        {
          "internalType": "address[]",
          "name": "_rewardTokenAddresses",
          "type": "address[]"
        }
      ],
      "name": "setRewardTokenAddresses",
      "outputs": [],
      "stateMutability": "nonpayable",
      "type": "function"
    },
    {
      "inputs": [],
      "name": "settlementSnapshot",
      "outputs": [
        {
          "internalType": "int256",
          "name": "",
          "type": "int256"
        }
      ],
      "stateMutability": "view",
      "type": "function"
    },
    {
      "inputs": [
        {
          "internalType": "address",
          "name": "_asset",
          "type": "address"
        }
      ],
      "name": "supportsAsset",
      "outputs": [
        {
          "internalType": "bool",
          "name": "",
          "type": "bool"
        }
      ],
      "stateMutability": "view",
      "type": "function"
    },
    {
      "inputs": [
        {
          "internalType": "address",
          "name": "_newGovernor",
          "type": "address"
        }
      ],
      "name": "transferGovernance",
      "outputs": [],
      "stateMutability": "nonpayable",
      "type": "function"
    },
    {
      "inputs": [
        {
          "internalType": "uint256",
          "name": "amount",
          "type": "uint256"
        }
      ],
      "name": "transferNative",
      "outputs": [],
      "stateMutability": "nonpayable",
      "type": "function"
    },
    {
      "inputs": [
        {
          "internalType": "address",
          "name": "_asset",
          "type": "address"
        },
        {
          "internalType": "uint256",
          "name": "_amount",
          "type": "uint256"
        }
      ],
      "name": "transferToken",
      "outputs": [],
      "stateMutability": "nonpayable",
      "type": "function"
    },
    {
      "inputs": [],
      "name": "triggerClaim",
      "outputs": [],
      "stateMutability": "payable",
      "type": "function"
    },
    {
      "inputs": [],
      "name": "vaultAddress",
      "outputs": [
        {
          "internalType": "address",
          "name": "",
          "type": "address"
        }
      ],
      "stateMutability": "view",
      "type": "function"
    },
    {
      "inputs": [
        {
          "internalType": "address",
          "name": "_recipient",
          "type": "address"
        },
        {
          "internalType": "address",
          "name": "_asset",
          "type": "address"
        },
        {
          "internalType": "uint256",
          "name": "_amount",
          "type": "uint256"
        }
      ],
      "name": "withdraw",
      "outputs": [],
      "stateMutability": "nonpayable",
      "type": "function"
    },
    {
      "inputs": [],
      "name": "withdrawAll",
      "outputs": [],
      "stateMutability": "nonpayable",
      "type": "function"
    },
    {
      "stateMutability": "payable",
      "type": "receive"
    }
  ],
  "transactionHash": "0x46943fed8bd76fa67d3e37fb537e2e1608cc8dae066bd4fd5894f230921bd02b",
  "args": [
    {
      "platformAddress": "0x0000000000000000000000000000000000000000",
      "vaultAddress": "0x80c864704DD06C3693ed5179190786EE38ACf835"
    },
    "0x88A2d74F47a237a62e7A51cdDa67270CE381555e",
    "0x8aF48Aa50e4F7ed67e7d654FE51A4EDA3395123b"
  ],
  "numDeployments": 1,
  "solcInputHash": "874b249b02834525172b8514664b7404",
  "bytecode": "0x61010060405234801561001157600080fd5b5060405161567b38038061567b833981016040819052610030916101dc565b82516001600160a01b039081166080526020840151811660a05283908390839082166100a35760405162461bcd60e51b815260206004820152601a60248201527f574f543a2062726964676520617373657420726571756972656400000000000060448201526064015b60405180910390fd5b6001600160a01b0381166100f95760405162461bcd60e51b815260206004820152601460248201527f574f543a206f546f6b656e207265717569726564000000000000000000000000604482015260640161009a565b6001600160a01b0391821660c052811660e05284511615905061015e5760405162461bcd60e51b815260206004820152601d60248201527f4d61737465723a20706c6174666f726d206d757374206265207a65726f000000604482015260640161009a565b60208301516001600160a01b03166101b85760405162461bcd60e51b815260206004820152601660248201527f4d61737465723a207661756c7420726571756972656400000000000000000000604482015260640161009a565b505050610275565b80516001600160a01b03811681146101d757600080fd5b919050565b600080600083850360808112156101f257600080fd5b604081121561020057600080fd5b50604080519081016001600160401b038111828210171561023157634e487b7160e01b600052604160045260246000fd5b60405261023d856101c0565b815261024b602086016101c0565b6020820152925061025e604085016101c0565b915061026c606085016101c0565b90509250925092565b60805160a05160c05160e0516152ed61038e6000396000818161045d015281816131fa01526142770152600081816105bc015281816107be01528181610c0001528181610fde015281816110590152818161143e01528181611e8701528181611edb015281816122d1015281816123e101528181612b0001528181612c0d01528181612c3b01528181612cc301528181612d770152818161366a015281816136f201526137470152600081816104e901528181610d6c01528181610e08015281816112aa0152818161169201528181611a9401528181611bff01528181612133015281816121a80152818161224601528181612460015281816132380152818161371401526142060152600061095301526152ed6000f3fe60806040526004361061031e5760003560e01c806368c0b18b116101ab578063c4d66de8116100f7578063d9caed1211610095578063eb709e941161006f578063eb709e941461098a578063ed42412b146109a0578063ef21fe5a146109b6578063f6ca71b0146109be57600080fd5b8063d9caed1214610921578063dbe55e5614610941578063de5f62681461097557600080fd5b8063cdf6353c116100d1578063cdf6353c146108ac578063d19fdadd146108cc578063d38bfff4146108e1578063d5240ed01461090157600080fd5b8063c4d66de814610861578063c7af335214610881578063cd650fe91461089657600080fd5b806396d538bb11610164578063b3ab15fb1161013e578063b3ab15fb14610803578063ba1066ed14610823578063be229b2c14610839578063c2e1e3f41461084157600080fd5b806396d538bb14610781578063aa388af6146107a1578063ad1728cb146107ee57600080fd5b806368c0b18b146106ee5780636ad5c7021461070e5780637b2d9b2c14610724578063853828b6146107445780639136616a1461075957806393b2a6511461077957600080fd5b8063479955f01161026a57806355129999116102235780635d36b190116101fd5780635d36b190146106795780635f5152261461068e5780635fc4bbb5146106ae57806367c7066c146106ce57600080fd5b80635512999914610624578063570ca735146106445780635a063f631461066457600080fd5b8063479955f01461054a57806347e7ef241461056a5780634ce5dbf61461058a5780634d877550146105aa5780634f6aa42b146105de5780634f9afdd2146105f457600080fd5b806319cd7792116102d757806339391e01116102b157806339391e01146104955780633e554f1f146104ab578063430bf08a146104d7578063453bd1da1461050b57600080fd5b806319cd7792146104275780631a32aad61461044b5780632c5b10661461047f57600080fd5b8063073b8fc91461032a5780630c340a241461033f5780630ed57b3a146103715780630fc3b4c4146103915780631072cbea146103c7578063171006a7146103e757600080fd5b3661032557005b600080fd5b61033d610338366004614883565b6109e0565b005b34801561034b57600080fd5b50610354610b83565b6040516001600160a01b0390911681526020015b60405180910390f35b34801561037d57600080fd5b5061033d61038c3660046148f6565b610ba0565b34801561039d57600080fd5b506103546103ac36600461492f565b6065602052600090815260409020546001600160a01b031681565b3480156103d357600080fd5b5061033d6103e236600461494c565b610bd2565b3480156103f357600080fd5b5061041761040236600461498d565b60366020526000908152604090205460ff1681565b6040519015158152602001610368565b34801561043357600080fd5b5061043d60375481565b604051908152602001610368565b34801561045757600080fd5b506103547f000000000000000000000000000000000000000000000000000000000000000081565b34801561048b57600080fd5b5061043d60fe5481565b3480156104a157600080fd5b5061043d6103e881565b3480156104b757600080fd5b506104c26207a12081565b60405163ffffffff9091168152602001610368565b3480156104e357600080fd5b506103547f000000000000000000000000000000000000000000000000000000000000000081565b34801561051757600080fd5b5060355461053290600160a01b90046001600160401b031681565b6040516001600160401b039091168152602001610368565b34801561055657600080fd5b5061033d6105653660046149aa565b610c8d565b34801561057657600080fd5b5061033d61058536600461494c565b610d61565b34801561059657600080fd5b50603454610354906001600160a01b031681565b3480156105b657600080fd5b506103547f000000000000000000000000000000000000000000000000000000000000000081565b3480156105ea57600080fd5b5061043d60d05481565b34801561060057600080fd5b5061041761060f366004614a25565b60ce6020526000908152604090205460ff1681565b34801561063057600080fd5b50603354610354906001600160a01b031681565b34801561065057600080fd5b50603554610354906001600160a01b031681565b34801561067057600080fd5b5061033d610df2565b34801561068557600080fd5b5061033d610f34565b34801561069a57600080fd5b5061043d6106a936600461492f565b610fda565b3480156106ba57600080fd5b5061033d6106c9366004614a25565b6110fc565b3480156106da57600080fd5b50606954610354906001600160a01b031681565b3480156106fa57600080fd5b5061033d610709366004614a25565b6111a7565b34801561071a57600080fd5b5061043d60cf5481565b34801561073057600080fd5b5061035461073f366004614a25565b611275565b34801561075057600080fd5b5061033d61129f565b34801561076557600080fd5b5061033d610774366004614a25565b61146c565b61033d611638565b34801561078d57600080fd5b5061033d61079c366004614a3e565b61186c565b3480156107ad57600080fd5b506104176107bc36600461492f565b7f00000000000000000000000000000000000000000000000000000000000000006001600160a01b0390811691161490565b3480156107fa57600080fd5b5061033d611989565b34801561080f57600080fd5b5061033d61081e36600461492f565b6119ad565b34801561082f57600080fd5b5061043d60fd5481565b61033d611a3a565b34801561084d57600080fd5b5061033d61085c36600461492f565b611bef565b34801561086d57600080fd5b5061033d61087c36600461492f565b611d5a565b34801561088d57600080fd5b50610417611f50565b3480156108a257600080fd5b5061043d60ff5481565b3480156108b857600080fd5b5061033d6108c736600461492f565b611f81565b3480156108d857600080fd5b50610417611fb1565b3480156108ed57600080fd5b5061033d6108fc36600461492f565b611ff7565b34801561090d57600080fd5b5061033d61091c36600461492f565b61209b565b34801561092d57600080fd5b5061033d61093c366004614ab3565b612128565b34801561094d57600080fd5b506103547f000000000000000000000000000000000000000000000000000000000000000081565b34801561098157600080fd5b5061033d61223b565b34801561099657600080fd5b5061043d60cd5481565b3480156109ac57600080fd5b5061043d60fc5481565b61033d612406565b3480156109ca57600080fd5b506109d361261a565b6040516103689190614af4565b60008051602061527883398151915280546001198101610a1b5760405162461bcd60e51b8152600401610a1290614b40565b60405180910390fd5b6002825560008711610a625760405162461bcd60e51b815260206004820152601060248201526f574f543a207a65726f2062726964676560801b6044820152606401610a12565b6033546001600160a01b0316610ab25760405162461bcd60e51b815260206004820152601560248201527415d3d50e881bdd5d189bdd5b99081b9bdd081cd95d605a1b6044820152606401610a12565b6207a12063ffffffff84161115610b0b5760405162461bcd60e51b815260206004820152601a60248201527f574f543a2063616c6c4761734c696d697420746f6f20686967680000000000006044820152606401610a12565b831580610b1e575060008363ffffffff16115b610b6a5760405162461bcd60e51b815260206004820152601760248201527f574f543a2063616c6c44617461206e65656473206761730000000000000000006044820152606401610a12565b610b77878787878761267c565b50600190555050505050565b6000610b9b6000805160206152988339815191525490565b905090565b610ba8611f50565b610bc45760405162461bcd60e51b8152600401610a1290614b68565b610bce8282612823565b5050565b610bda611f50565b610bf65760405162461bcd60e51b8152600401610a1290614b68565b6001600160a01b037f0000000000000000000000000000000000000000000000000000000000000000811690831603610c715760405162461bcd60e51b815260206004820152601f60248201527f43616e6e6f74207472616e7366657220737570706f72746564206173736574006044820152606401610a12565b610bce610c7c610b83565b6001600160a01b0384169083612982565b6034546001600160a01b031615801590610cb157506034546001600160a01b031633145b610cfd5760405162461bcd60e51b815260206004820152601860248201527f56333a206f6e6c7920696e626f756e64206164617074657200000000000000006044820152606401610a12565b6000806000610d4185858080601f0160208091040260200160405190810160405280939291908181526020018383808284376000920191909152506129ea92505050565b925092509250610d5689898989878787612a10565b505050505050505050565b336001600160a01b037f00000000000000000000000000000000000000000000000000000000000000001614610da95760405162461bcd60e51b8152600401610a1290614b9f565b60008051602061527883398151915280546001198101610ddb5760405162461bcd60e51b8152600401610a1290614b40565b60028255610de98484612afe565b50600190555050565b6069546001600160a01b0316331480610e9d57507f00000000000000000000000000000000000000000000000000000000000000006001600160a01b031663570d8e1d6040518163ffffffff1660e01b8152600401602060405180830381865afa158015610e64573d6000803e3d6000fd5b505050506040513d601f19601f82011682018060405250810190610e889190614bd6565b6001600160a01b0316336001600160a01b0316145b610efb5760405162461bcd60e51b815260206004820152602960248201527f43616c6c6572206973206e6f742074686520486172766573746572206f7220536044820152681d1c985d1959da5cdd60ba1b6064820152608401610a12565b60008051602061527883398151915280546001198101610f2d5760405162461bcd60e51b8152600401610a1290614b40565b5060019055565b7f44c4d30b2eaad5130ad70c3ba6972730566f3e6359ab83e800d905c61b1c51db546001600160a01b0316336001600160a01b031614610fcf5760405162461bcd60e51b815260206004820152603060248201527f4f6e6c79207468652070656e64696e6720476f7665726e6f722063616e20636f60448201526f6d706c6574652074686520636c61696d60801b6064820152608401610a12565b610fd833612d16565b565b60007f00000000000000000000000000000000000000000000000000000000000000006001600160a01b0316826001600160a01b03161461102d5760405162461bcd60e51b8152600401610a1290614bf3565b60cd5460fc5460fd546040516370a0823160e01b81523060048201526000939291906001600160a01b037f000000000000000000000000000000000000000000000000000000000000000016906370a0823190602401602060405180830381865afa1580156110a0573d6000803e3d6000fd5b505050506040513d601f19601f820116820180604052508101906110c49190614c2a565b6110ce9190614c59565b6110d89190614c59565b6110e29190614c6c565b9050600081136110f35760006110f5565b805b9392505050565b611104611f50565b6111205760405162461bcd60e51b8152600401610a1290614b68565b6103e88111156111665760405162461bcd60e51b81526020600482015260116024820152700ae9ea87440cccaca40e8dede40d0d2ced607b1b6044820152606401610a12565b60d05460408051918252602082018390527fe5c83fa213c0756348a3904c896671ca4fb193857309761418d0c7fbdd61d1ef910160405180910390a160d055565b6111af611f50565b6111cb5760405162461bcd60e51b8152600401610a1290614b68565b60006111d5610b83565b6001600160a01b03168260405160006040518083038185875af1925050503d806000811461121f576040519150601f19603f3d011682016040523d82523d6000602084013e611224565b606091505b5050905080610bce5760405162461bcd60e51b815260206004820152601760248201527f56333a206e6174697665207377656570206661696c65640000000000000000006044820152606401610a12565b606a818154811061128557600080fd5b6000918252602090912001546001600160a01b0316905081565b336001600160a01b037f00000000000000000000000000000000000000000000000000000000000000001614806112ee57506112d9610b83565b6001600160a01b0316336001600160a01b0316145b6113465760405162461bcd60e51b815260206004820152602360248201527f43616c6c6572206973206e6f7420746865205661756c74206f7220476f7665726044820152623737b960e91b6064820152608401610a12565b600080516020615278833981519152805460011981016113785760405162461bcd60e51b8152600401610a1290614b40565b6002825560fd5415158061138d575060fe5415155b8061139b575061139b611fb1565b610f2d5760fc5460008190036113b15750610f2d565b6034546040805163a9e7572360e01b815290516000926001600160a01b03169163a9e757239160048083019260209291908290030181865afa1580156113fb573d6000803e3d6000fd5b505050506040513d601f19601f8201168201806040525081019061141f9190614c2a565b905060008111801561143057508082115b15611439578091505b6114637f000000000000000000000000000000000000000000000000000000000000000083612d75565b50505060019055565b611474611f50565b6114905760405162461bcd60e51b8152600401610a1290614b68565b60665481106114d15760405162461bcd60e51b815260206004820152600d60248201526c092dcecc2d8d2c840d2dcc8caf609b1b6044820152606401610a12565b6000606682815481106114e6576114e6614c94565b60009182526020808320909101546001600160a01b0390811680845260659092526040909220546066549193509091169061152390600190614caa565b8310156115a5576066805461153a90600190614caa565b8154811061154a5761154a614c94565b600091825260209091200154606680546001600160a01b03909216918590811061157657611576614c94565b9060005260206000200160006101000a8154816001600160a01b0302191690836001600160a01b031602179055505b60668054806115b6576115b6614cbd565b60008281526020808220600019908401810180546001600160a01b031990811690915593019093556001600160a01b038581168083526065855260409283902080549094169093559051908416815290917f16b7600acff27e39a8a96056b3d533045298de927507f5c1d97e4accde60488c91015b60405180910390a2505050565b6000805160206152788339815191528054600119810161166a5760405162461bcd60e51b8152600401610a1290614b40565b600282556035546001600160a01b031633148061168a575061168a611f50565b8061172757507f00000000000000000000000000000000000000000000000000000000000000006001600160a01b031663570d8e1d6040518163ffffffff1660e01b8152600401602060405180830381865afa1580156116ee573d6000803e3d6000fd5b505050506040513d601f19601f820116820180604052508101906117129190614bd6565b6001600160a01b0316336001600160a01b0316145b6117435760405162461bcd60e51b8152600401610a1290614cd3565b6033546001600160a01b031661176b5760405162461bcd60e51b8152600401610a1290614d00565b611773611fb1565b156117905760405162461bcd60e51b8152600401610a1290614d37565b60fe54156117e05760405162461bcd60e51b815260206004820152601a60248201527f4d61737465723a207769746864726177616c2070656e64696e670000000000006044820152606401610a12565b60006117ea612f35565b60cd5460ff81905560408051602080820193909352815180820390930183528101905290915061181c60098383613029565b60ff54604080516001600160401b038516815260208101929092527f21dad7d3b3c9d8466c4df228ae53d1fec7a897e6f2126ece0b00faeed1ddf139910160405180910390a15050600182555050565b611874611f50565b6118905760405162461bcd60e51b8152600401610a1290614b68565b8060005b8181101561193a5760008484838181106118b0576118b0614c94565b90506020020160208101906118c5919061492f565b6001600160a01b0316036119325760405162461bcd60e51b815260206004820152602e60248201527f43616e206e6f742073657420616e20656d70747920616464726573732061732060448201526d30903932bbb0b932103a37b5b2b760911b6064820152608401610a12565b600101611894565b507f04c0b9649497d316554306e53678d5f5f5dbc3a06f97dec13ff4cfe98b986bbc606a848460405161196f93929190614d6e565b60405180910390a1611983606a8484614747565b50505050565b611991611f50565b610efb5760405162461bcd60e51b8152600401610a1290614b68565b6119b5611f50565b6119d15760405162461bcd60e51b8152600401610a1290614b68565b603554604080516001600160a01b03928316815291831660208301527ffbe5b6cbafb274f445d7fed869dc77a838d8243a22c460de156560e8857cad03910160405180910390a1603580546001600160a01b0319166001600160a01b0392909216919091179055565b60008051602061527883398151915280546001198101611a6c5760405162461bcd60e51b8152600401610a1290614b40565b600282556035546001600160a01b0316331480611a8c5750611a8c611f50565b80611b2957507f00000000000000000000000000000000000000000000000000000000000000006001600160a01b031663570d8e1d6040518163ffffffff1660e01b8152600401602060405180830381865afa158015611af0573d6000803e3d6000fd5b505050506040513d601f19601f82011682018060405250810190611b149190614bd6565b6001600160a01b0316336001600160a01b0316145b611b455760405162461bcd60e51b8152600401610a1290614cd3565b6033546001600160a01b0316611b6d5760405162461bcd60e51b8152600401610a1290614d00565b6000611b7842613034565b9050611b9b6007603560149054906101000a90046001600160401b031683613029565b60355460408051600160a01b9092046001600160401b031682524260208301527fa9c30f018138d01f5869085c9a9ba2916263eb712a36eec8a3c1917156ddb3db91015b60405180910390a1505060019055565b611bf7611f50565b80611c9457507f00000000000000000000000000000000000000000000000000000000000000006001600160a01b031663570d8e1d6040518163ffffffff1660e01b8152600401602060405180830381865afa158015611c5b573d6000803e3d6000fd5b505050506040513d601f19601f82011682018060405250810190611c7f9190614bd6565b6001600160a01b0316336001600160a01b0316145b611cf15760405162461bcd60e51b815260206004820152602860248201527f43616c6c6572206973206e6f74207468652053747261746567697374206f722060448201526723b7bb32b93737b960c11b6064820152608401610a12565b606954604080516001600160a01b03928316815291831660208301527fe48386b84419f4d36e0f96c10cc3510b6fb1a33795620c5098b22472bbe90796910160405180910390a1606980546001600160a01b0319166001600160a01b0392909216919091179055565b611d62611f50565b611d7e5760405162461bcd60e51b8152600401610a1290614b68565b600054610100900460ff1680611d97575060005460ff16155b611dfa5760405162461bcd60e51b815260206004820152602e60248201527f496e697469616c697a61626c653a20636f6e747261637420697320616c72656160448201526d191e481a5b9a5d1a585b1a5e995960921b6064820152608401610a12565b600054610100900460ff16158015611e1c576000805461ffff19166101011790555b603580546001600160a01b0319166001600160a01b0384161790556040805160008082526001602080840182815260608501865293949293928501908036833750506040805160018082528183019092529293506000929150602080830190803683370190505090507f000000000000000000000000000000000000000000000000000000000000000082600081518110611eb957611eb9614c94565b60200260200101906001600160a01b031690816001600160a01b0316815250507f000000000000000000000000000000000000000000000000000000000000000081600081518110611f0d57611f0d614c94565b60200260200101906001600160a01b031690816001600160a01b031681525050611f3883838361305f565b5050508015610bce576000805461ff00191690555050565b6000611f686000805160206152988339815191525490565b6001600160a01b0316336001600160a01b031614905090565b611f89611f50565b611fa55760405162461bcd60e51b8152600401610a1290614b68565b611fae81613112565b50565b603554600090600160a01b90046001600160401b0316808203611fd657600091505090565b6001600160401b031660009081526036602052604090205460ff1615919050565b611fff611f50565b61201b5760405162461bcd60e51b8152600401610a1290614b68565b612043817f44c4d30b2eaad5130ad70c3ba6972730566f3e6359ab83e800d905c61b1c51db55565b806001600160a01b03166120636000805160206152988339815191525490565b6001600160a01b03167fa39cc5eb22d0f34d8beaefee8a3f17cc229c1a1d1ef87a5ad47313487b1c4f0d60405160405180910390a350565b6120a3611f50565b6120bf5760405162461bcd60e51b8152600401610a1290614b68565b603454604080516001600160a01b03928316815291831660208301527f079a2665443e2ba2ce6116a6117b90649e0e6285a7ed3553a24b6df3ed93e46a910160405180910390a1603480546001600160a01b0319166001600160a01b0392909216919091179055565b336001600160a01b037f000000000000000000000000000000000000000000000000000000000000000016146121705760405162461bcd60e51b8152600401610a1290614b9f565b600080516020615278833981519152805460011981016121a25760405162461bcd60e51b8152600401610a1290614b40565b600282557f00000000000000000000000000000000000000000000000000000000000000006001600160a01b0316856001600160a01b0316146122275760405162461bcd60e51b815260206004820152601f60248201527f4d61737465723a20726563697069656e74206d757374206265207661756c74006044820152606401610a12565b6122318484612d75565b5060019055505050565b336001600160a01b037f000000000000000000000000000000000000000000000000000000000000000016146122835760405162461bcd60e51b8152600401610a1290614b9f565b600080516020615278833981519152805460011981016122b55760405162461bcd60e51b8152600401610a1290614b40565b600282556040516370a0823160e01b81523060048201526000907f00000000000000000000000000000000000000000000000000000000000000006001600160a01b0316906370a0823190602401602060405180830381865afa158015612320573d6000803e3d6000fd5b505050506040513d601f19601f820116820180604052508101906123449190614c2a565b9050806000036123545750610f2d565b6033546040805163a9e7572360e01b815290516000926001600160a01b03169163a9e757239160048083019260209291908290030181865afa15801561239e573d6000803e3d6000fd5b505050506040513d601f19601f820116820180604052508101906123c29190614c2a565b90506000811180156123d357508082115b156123dc578091505b6114637f000000000000000000000000000000000000000000000000000000000000000083612afe565b600080516020615278833981519152805460011981016124385760405162461bcd60e51b8152600401610a1290614b40565b600282556035546001600160a01b03163314806124585750612458611f50565b806124f557507f00000000000000000000000000000000000000000000000000000000000000006001600160a01b031663570d8e1d6040518163ffffffff1660e01b8152600401602060405180830381865afa1580156124bc573d6000803e3d6000fd5b505050506040513d601f19601f820116820180604052508101906124e09190614bd6565b6001600160a01b0316336001600160a01b0316145b6125115760405162461bcd60e51b8152600401610a1290614cd3565b6033546001600160a01b03166125395760405162461bcd60e51b8152600401610a1290614d00565b600060fe541161258b5760405162461bcd60e51b815260206004820152601d60248201527f4d61737465723a206e6f2070656e64696e67207769746864726177616c0000006044820152606401610a12565b612593611fb1565b156125b05760405162461bcd60e51b8152600401610a1290614d37565b60006125ba612f35565b90506125d760058260405180602001604052806000815250613029565b60fe54604080516001600160401b038416815260208101929092527f418a2ac7ca6a86bcea1d8947d84274ceda43b1cdcc4ebba03ca18ce91eb134ec9101611bdf565b6060606a80548060200260200160405190810160405280929190818152602001828054801561267257602002820191906000526020600020905b81546001600160a01b03168152600190910190602001808311612654575b5050505050905090565b600061271060d0548761268f9190614e1f565b6126999190614e36565b905060006126a78288614caa565b9050600081116126f95760405162461bcd60e51b815260206004820152601760248201527f574f543a206e6574207a65726f206166746572206665650000000000000000006044820152606401610a12565b6127028161317b565b60006001600160a01b03871615612719578661271b565b335b9050612726886131ed565b600c6127328184613298565b600061273c6132df565b905060006127b46040518060a00160405280848152602001878152602001866001600160a01b031681526020018b8b8080601f01602080910402602001604051908101604052809392919081815260200183838082843760009201919091525050509082525063ffffffff8a1660209091015261332b565b90506127c28360008361335a565b836001600160a01b0316336001600160a01b0316837f851e7e5d21531ab2e81909d027349d5cf07723cc683ec9c5c0e9ea9ba218743f888a8e8e8e60405161280e959493929190614e58565b60405180910390a45050505050505050505050565b6001600160a01b0382811660009081526065602052604090205416156128805760405162461bcd60e51b81526020600482015260126024820152711c151bdad95b88185b1c9958591e481cd95d60721b6044820152606401610a12565b6001600160a01b038216158015906128a057506001600160a01b03811615155b6128e05760405162461bcd60e51b8152602060048201526011602482015270496e76616c69642061646472657373657360781b6044820152606401610a12565b6001600160a01b03828116600081815260656020908152604080832080549587166001600160a01b031996871681179091556066805460018101825594527f46501879b8ca8525e8c2fd519e2fbfcfa2ebea26501294aa02cbfcfb12e9435490930180549095168417909455925190815290917fef6485b84315f9b1483beffa32aae9a0596890395e3d7521f1c5fbb51790e765910160405180910390a25050565b6040516001600160a01b0383166024820152604481018290526129e590849063a9059cbb60e01b906064015b60408051601f198184030181529190526020810180516001600160e01b03166001600160e01b031990931692909217909152613365565b505050565b600080606083806020019051810190612a039190614f4a565b9196909550909350915050565b60011963ffffffff841601612a2e57612a298282613437565b612af5565b60031963ffffffff841601612a4757612a2982826134d3565b60051963ffffffff841601612a6157612a2982868361352e565b600a1963ffffffff841601612a7b57612a2983868361382a565b60071963ffffffff841601612a9457612a2982826139f8565b60091963ffffffff841601612aad57612a298282613acc565b60405162461bcd60e51b815260206004820181905260248201527f4d61737465723a20756e737570706f72746564206d65737361676520747970656044820152606401610a12565b50505050505050565b7f00000000000000000000000000000000000000000000000000000000000000006001600160a01b0316826001600160a01b031614612b4f5760405162461bcd60e51b8152600401610a1290614bf3565b60008111612b965760405162461bcd60e51b815260206004820152601460248201527313585cdd195c8e881e995c9bc819195c1bdcda5d60621b6044820152606401610a12565b6033546001600160a01b0316612bbe5760405162461bcd60e51b8152600401610a1290614d00565b60fd54158015612bce575060fe54155b612bea5760405162461bcd60e51b8152600401610a1290614d37565b6000612bf4612f35565b60fd839055603354909150612c36906001600160a01b037f00000000000000000000000000000000000000000000000000000000000000008116911684613b44565b612c737f00000000000000000000000000000000000000000000000000000000000000008360018460405180602001604052806000815250613c59565b604080516001600160401b0383168152602081018490527ff5038ffb5f135253d0b2baba462c2bf29d8f3fa9c81edeb752ffed877503f5da910160405180910390a1604080516001600160a01b037f00000000000000000000000000000000000000000000000000000000000000001680825260208201859052917f5548c837ab068cf56a2c2479df0882a4922fd203edb7517321831d95078c5f62910161162b565b6001600160a01b038116612d6c5760405162461bcd60e51b815260206004820152601a60248201527f4e657720476f7665726e6f7220697320616464726573732830290000000000006044820152606401610a12565b611fae81613c66565b7f00000000000000000000000000000000000000000000000000000000000000006001600160a01b0316826001600160a01b031614612dc65760405162461bcd60e51b8152600401610a1290614bf3565b60008111612e0e5760405162461bcd60e51b81526020600482015260156024820152744d61737465723a207a65726f20776974686472617760581b6044820152606401610a12565b6033546001600160a01b0316612e365760405162461bcd60e51b8152600401610a1290614d00565b60fd54158015612e46575060fe54155b612e625760405162461bcd60e51b8152600401610a1290614d37565b60fc54811115612ec25760405162461bcd60e51b815260206004820152602560248201527f4d61737465723a20616d6f756e7420657863656564732072656d6f74652062616044820152646c616e636560d81b6064820152608401610a12565b6000612ecc612f35565b60fe83905590506000612ede83613034565b9050612eec60038383613029565b604080516001600160401b0384168152602081018590527f2faceadd8f84cd9c4f0c0f9fc8fc82265bcdbada1d5e5ce9f381891e4a64823791015b60405180910390a150505050565b6000612f3f611fb1565b15612f8c5760405162461bcd60e51b815260206004820152601e60248201527f56333a207969656c64206f7020616c726561647920696e20666c6967687400006044820152606401610a12565b6001603560148282829054906101000a90046001600160401b0316612fb19190614fad565b82546101009290920a6001600160401b03818102199093169183160217909155603554604051600160a01b90910490911681527f2f7e37765552c9ad20400590baa7a61f867e701e82a76f4fc92987c2212b2e23915060200160405180910390a150603554600160a01b90046001600160401b031690565b6129e5838383613ccd565b60608160405160200161304991815260200190565b6040516020818303038152906040529050919050565b825161307290606a9060208601906147aa565b508151815181146130bc5760405162461bcd60e51b8152602060048201526014602482015273496e76616c696420696e7075742061727261797360601b6044820152606401610a12565b60005b8181101561310b576131038482815181106130dc576130dc614c94565b60200260200101518483815181106130f6576130f6614c94565b6020026020010151612823565b6001016130bf565b5050505050565b603354604080516001600160a01b03928316815291831660208301527f94659083196a5228c09d850023176cdf7bc52a1eb4a086e8ab45324e2470cb5a910160405180910390a1603380546001600160a01b0319166001600160a01b0392909216919091179055565b600060cd5460fc5461318d9190614c6c565b905081811215610bce5760405162461bcd60e51b815260206004820152602560248201527f4d61737465723a20696e73756666696369656e742072656d6f7465206c697175604482015264696469747960d81b6064820152608401610a12565b6132226001600160a01b037f000000000000000000000000000000000000000000000000000000000000000016333084613e9e565b60405163310bf9f560e11b8152600481018290527f00000000000000000000000000000000000000000000000000000000000000006001600160a01b031690636217f3ea90602401600060405180830381600087803b15801561328457600080fd5b505af115801561310b573d6000803e3d6000fd5b600a1963ffffffff8316016132c4578060cd60008282546132b99190614c6c565b90915550610bce9050565b8060cd60008282546132d69190614fcc565b90915550505050565b6000600160cf60008282546132f49190614c59565b909155505060cf54604080513060208201529081019190915260600160405160208183030381529060405280519060200120905090565b60608160000151826020015183604001518460600151856080015160405160200161304995949392919061501f565b6129e5838383613ed6565b60006133ba826040518060400160405280602081526020017f5361666545524332303a206c6f772d6c6576656c2063616c6c206661696c6564815250856001600160a01b0316613fe59092919063ffffffff16565b8051909150156129e557808060200190518101906133d89190615079565b6129e55760405162461bcd60e51b815260206004820152602a60248201527f5361666545524332303a204552433230206f7065726174696f6e20646964206e6044820152691bdd081cdd58d8d9595960b21b6064820152608401610a12565b61344082613ffc565b600061344b82614123565b60fc819055600060fd55604080516001600160401b0386168152602081018390529192507f27f05f9e295fc53ad300dc8df4662dffdcde09aa5addf12e565f2ff05bbaef2f91015b60405180910390a16040518181527f1cc993845fe77d504bd0e3391d651586e84db1cefbcdd9b4f85e8ed1c1f13c109060200160405180910390a1505050565b6134dc82613ffc565b60006134e782614123565b60fc819055604080516001600160401b0386168152602081018390529192507fae808b4d085fda3ca3c970c036f833259990543b2bab001ddb9dbcc6f77d4aa09101613493565b61353783613ffc565b60008060006135458461413f565b92509250925081156137a057600085116135a15760405162461bcd60e51b815260206004820181905260248201527f4d61737465723a20636c61696d2061636b206d697373696e6720746f6b656e736044820152606401610a12565b808511156135f15760405162461bcd60e51b815260206004820152601760248201527f4d61737465723a20636c61696d2061626f76652061636b0000000000000000006044820152606401610a12565b60fe5485111561364e5760405162461bcd60e51b815260206004820152602260248201527f4d61737465723a20636c61696d20616d6f756e742061626f76652070656e64696044820152616e6760f01b6064820152608401610a12565b600060fe8190556040516370a0823160e01b81523060048201527f00000000000000000000000000000000000000000000000000000000000000006001600160a01b0316906370a0823190602401602060405180830381865afa1580156136b9573d6000803e3d6000fd5b505050506040513d601f19601f820116820180604052508101906136dd9190614c2a565b9050801561379e576137396001600160a01b037f0000000000000000000000000000000000000000000000000000000000000000167f000000000000000000000000000000000000000000000000000000000000000083612982565b604080516001600160a01b037f00000000000000000000000000000000000000000000000000000000000000001680825260208201849052917f2717ead6b9200dd235aad468c9809ea400fe33ac69b5bfaa6d3e90fc922b6398910160405180910390a25b505b60fc839055604080516001600160401b0388168152602081018590528315158183015290517fd28436e36b265c71ca002c1a654a79dfc3d96202396c1728b01fa890ab9c54e29181900360600190a16040518381527f1cc993845fe77d504bd0e3391d651586e84db1cefbcdd9b4f85e8ed1c1f13c109060200160405180910390a1505050505050565b600061383582614165565b8051600090815260ce602052604090205490915060ff16156138925760405162461bcd60e51b815260206004820152601660248201527515d3d50e88189c9a5919d95259081c995c1b185e595960521b6044820152606401610a12565b82156138eb5760405162461bcd60e51b815260206004820152602260248201527f574f543a206272696467652d696e20746f6b656e73206e6f7420657870656374604482015261195960f21b6064820152608401610a12565b6207a12063ffffffff16816080015163ffffffff16111561394e5760405162461bcd60e51b815260206004820152601a60248201527f574f543a2063616c6c4761734c696d697420746f6f20686967680000000000006044820152606401610a12565b8051600090815260ce60209081526040909120805460ff1916600117905581015161397a908590613298565b61398c816020015182604001516141f0565b80604001516001600160a01b031681600001517fba37714003f39c6124fd58a1c45bfbf26be3198193c7f465370f2bd729fdb1e683602001516040516139d491815260200190565b60405180910390a38060600151516000036139ef5750505050565b611983816142a0565b613a00611fb1565b15613a09575050565b6035546001600160401b03838116600160a01b9092041614613a29575050565b600080613a35836143bc565b915091506037548111613a485750505050565b603781905560fc829055604080516001600160401b0386168152602081018490529081018290527f05d25dee0ebf5fc3988b3e2e1af171a57f4af9028e0e3f133852b3bd355d7fbc9060600160405180910390a16040518281527f1cc993845fe77d504bd0e3391d651586e84db1cefbcdd9b4f85e8ed1c1f13c1090602001612f27565b613ad582613ffc565b6000613ae082614123565b905060ff5460cd6000828254613af69190614fcc565b9091555050600060ff5560fc819055604080516001600160401b0385168152602081018390527f79fef1e74b97f043edfdbf961f17d82b85d8bd472418171246450a4f3048bd479101613493565b801580613bbe5750604051636eb1769f60e11b81523060048201526001600160a01b03838116602483015284169063dd62ed3e90604401602060405180830381865afa158015613b98573d6000803e3d6000fd5b505050506040513d601f19601f82011682018060405250810190613bbc9190614c2a565b155b613c295760405162461bcd60e51b815260206004820152603660248201527f5361666545524332303a20617070726f76652066726f6d206e6f6e2d7a65726f60448201527520746f206e6f6e2d7a65726f20616c6c6f77616e636560501b6064820152608401610a12565b6040516001600160a01b0383166024820152604481018290526129e590849063095ea7b360e01b906064016129ae565b61310b85858585856143dc565b806001600160a01b0316613c866000805160206152988339815191525490565b6001600160a01b03167fc7c0c772add429241571afb3805861fb3cfa2af374534088b76cdb4325a87e9a60405160405180910390a360008051602061529883398151915255565b6000613cda8484846145b7565b60335460405163b7f1bc0f60e01b81529192506001600160a01b03169060009081908190849063b7f1bc0f90613d1890849081908a90600401615094565b606060405180830381865afa158015613d35573d6000803e3d6000fd5b505050506040513d601f19601f82011682018060405250810190613d5991906150c4565b9250925092508015613e35576001600160a01b03821615613d8c5760405162461bcd60e51b8152600401610a1290615103565b82471015613dd05760405162461bcd60e51b8152602060048201526011602482015270158cce881c1bdbdb081d5b999d5b991959607a1b6044820152606401610a12565b60405163104c8d4b60e31b81526001600160a01b038516906382646a58908590613dfe90899060040161513a565b6000604051808303818588803b158015613e1757600080fd5b505af1158015613e2b573d6000803e3d6000fd5b5050505050613e94565b60405163104c8d4b60e31b81526001600160a01b038516906382646a5890613e6190889060040161513a565b600060405180830381600087803b158015613e7b57600080fd5b505af1158015613e8f573d6000803e3d6000fd5b505050505b5050505050505050565b6040516001600160a01b03808516602483015283166044820152606481018290526119839085906323b872dd60e01b906084016129ae565b6000613ee38484846145b7565b60335460405163b7f1bc0f60e01b81529192506001600160a01b03169060009081908190849063b7f1bc0f90613f2190849081908a90600401615094565b606060405180830381865afa158015613f3e573d6000803e3d6000fd5b505050506040513d601f19601f82011682018060405250810190613f6291906150c4565b9250925092508015613e35576001600160a01b03821615613f955760405162461bcd60e51b8152600401610a1290615103565b82341015613dd05760405162461bcd60e51b815260206004820152601960248201527f56333a20696e73756666696369656e74207573657220666565000000000000006044820152606401610a12565b6060613ff484846000856145e6565b949350505050565b6035546001600160401b03828116600160a01b90920416146140605760405162461bcd60e51b815260206004820152601a60248201527f56333a207374616c65206f7220756e6b6e6f776e206e6f6e63650000000000006044820152606401610a12565b6001600160401b03811660009081526036602052604090205460ff16156140c95760405162461bcd60e51b815260206004820152601b60248201527f56333a206e6f6e636520616c72656164792070726f63657373656400000000006044820152606401610a12565b6001600160401b038116600081815260366020908152604091829020805460ff1916600117905590519182527fdf4d7560e27f8a36c62d192a1a7b53b02d3216008f1d48194acd689aae344e3c910160405180910390a150565b6000818060200190518101906141399190614c2a565b92915050565b600080600083806020019051810190614158919061514d565b9250925092509193909250565b6040805160a08101825260008082526020820181905291810182905260608082015260808101919091526000806000806000868060200190518101906141ab9190615185565b6040805160a08101825295865260208601949094526001600160a01b0390921692840192909252606083019190915263ffffffff166080820152979650505050505050565b60405163ab80dafb60e01b8152600481018390527f00000000000000000000000000000000000000000000000000000000000000006001600160a01b03169063ab80dafb90602401600060405180830381600087803b15801561425257600080fd5b505af1158015614266573d6000803e3d6000fd5b50610bce9250506001600160a01b037f00000000000000000000000000000000000000000000000000000000000000001690508284612982565b60008082604001516001600160a01b03166000846080015163ffffffff169085606001516040516142d191906151f0565b600060405180830381858888f193505050503d806000811461430f576040519150601f19603f3d011682016040523d82523d6000602084013e614314565b606091505b509150915081156143745782604001516001600160a01b031683600001517fa48fa9269ab3ee913b7db4b1a66a817bd072d54a1b5a8a3b8963a264e3d56257856020015160405161436791815260200190565b60405180910390a3505050565b82604001516001600160a01b031683600001517feffb775c6250b93ab1938e32d2c0720797e240918f0cc8b5a498cb58b049250885602001518460405161436792919061520c565b600080828060200190518101906143d39190615225565b91509150915091565b60006143e98484846145b7565b60335460405163b7f1bc0f60e01b81529192506001600160a01b03169060009081908190849063b7f1bc0f90614427908d908d908a90600401615094565b606060405180830381865afa158015614444573d6000803e3d6000fd5b505050506040513d601f19601f8201168201806040525081019061446891906150c4565b9250925092508015614548576001600160a01b0382161561449b5760405162461bcd60e51b8152600401610a1290615103565b824710156144df5760405162461bcd60e51b8152602060048201526011602482015270158cce881c1bdbdb081d5b999d5b991959607a1b6044820152606401610a12565b6040516320ad7c8d60e11b81526001600160a01b0385169063415af91a908590614511908e908e908b90600401615094565b6000604051808303818588803b15801561452a57600080fd5b505af115801561453e573d6000803e3d6000fd5b50505050506145ab565b6040516320ad7c8d60e11b81526001600160a01b0385169063415af91a90614578908d908d908a90600401615094565b600060405180830381600087803b15801561459257600080fd5b505af11580156145a6573d6000803e3d6000fd5b505050505b50505050505050505050565b60608383836040516020016145ce93929190615249565b60405160208183030381529060405290509392505050565b6060824710156146475760405162461bcd60e51b815260206004820152602660248201527f416464726573733a20696e73756666696369656e742062616c616e636520666f6044820152651c8818d85b1b60d21b6064820152608401610a12565b843b6146955760405162461bcd60e51b815260206004820152601d60248201527f416464726573733a2063616c6c20746f206e6f6e2d636f6e74726163740000006044820152606401610a12565b600080866001600160a01b031685876040516146b191906151f0565b60006040518083038185875af1925050503d80600081146146ee576040519150601f19603f3d011682016040523d82523d6000602084013e6146f3565b606091505b509150915061470382828661470e565b979650505050505050565b6060831561471d5750816110f5565b82511561472d5782518084602001fd5b8160405162461bcd60e51b8152600401610a12919061513a565b82805482825590600052602060002090810192821561479a579160200282015b8281111561479a5781546001600160a01b0319166001600160a01b03843516178255602090920191600190910190614767565b506147a69291506147ff565b5090565b82805482825590600052602060002090810192821561479a579160200282015b8281111561479a57825182546001600160a01b0319166001600160a01b039091161782556020909201916001909101906147ca565b5b808211156147a65760008155600101614800565b6001600160a01b0381168114611fae57600080fd5b60008083601f84011261483b57600080fd5b5081356001600160401b0381111561485257600080fd5b60208301915083602082850101111561486a57600080fd5b9250929050565b63ffffffff81168114611fae57600080fd5b60008060008060006080868803121561489b57600080fd5b8535945060208601356148ad81614814565b935060408601356001600160401b038111156148c857600080fd5b6148d488828901614829565b90945092505060608601356148e881614871565b809150509295509295909350565b6000806040838503121561490957600080fd5b823561491481614814565b9150602083013561492481614814565b809150509250929050565b60006020828403121561494157600080fd5b81356110f581614814565b6000806040838503121561495f57600080fd5b823561496a81614814565b946020939093013593505050565b6001600160401b0381168114611fae57600080fd5b60006020828403121561499f57600080fd5b81356110f581614978565b60008060008060008060a087890312156149c357600080fd5b86356149ce81614814565b955060208701356149de81614814565b9450604087013593506060870135925060808701356001600160401b03811115614a0757600080fd5b614a1389828a01614829565b979a9699509497509295939492505050565b600060208284031215614a3757600080fd5b5035919050565b60008060208385031215614a5157600080fd5b82356001600160401b03811115614a6757600080fd5b8301601f81018513614a7857600080fd5b80356001600160401b03811115614a8e57600080fd5b8560208260051b8401011115614aa357600080fd5b6020919091019590945092505050565b600080600060608486031215614ac857600080fd5b8335614ad381614814565b92506020840135614ae381614814565b929592945050506040919091013590565b602080825282518282018190526000918401906040840190835b81811015614b355783516001600160a01b0316835260209384019390920191600101614b0e565b509095945050505050565b6020808252600e908201526d1499595b9d1c985b9d0818d85b1b60921b604082015260600190565b6020808252601a908201527f43616c6c6572206973206e6f742074686520476f7665726e6f72000000000000604082015260600190565b60208082526017908201527f43616c6c6572206973206e6f7420746865205661756c74000000000000000000604082015260600190565b600060208284031215614be857600080fd5b81516110f581614814565b60208082526019908201527f4d61737465723a20756e737570706f7274656420617373657400000000000000604082015260600190565b600060208284031215614c3c57600080fd5b5051919050565b634e487b7160e01b600052601160045260246000fd5b8082018082111561413957614139614c43565b8082018281126000831280158216821582161715614c8c57614c8c614c43565b505092915050565b634e487b7160e01b600052603260045260246000fd5b8181038181111561413957614139614c43565b634e487b7160e01b600052603160045260246000fd5b60208082526013908201527215d3d50e881b9bdd08185d5d1a1bdc9a5cd959606a1b604082015260600190565b60208082526018908201527f4d61737465723a206f7574626f756e64206e6f74207365740000000000000000604082015260600190565b6020808252601a908201527f4d61737465723a207969656c64206f7020696e20666c69676874000000000000604082015260600190565b6040808252845490820181905260008581526020812090916060840190835b81811015614db45783546001600160a01b0316835260019384019360209093019201614d8d565b50508381036020808601919091528582520190508460005b85811015614dfd578135614ddf81614814565b6001600160a01b031683526020928301929190910190600101614dcc565b50909695505050505050565b634e487b7160e01b600052604160045260246000fd5b808202811582820484141761413957614139614c43565b600082614e5357634e487b7160e01b600052601260045260246000fd5b500490565b85815284602082015260806040820152826080820152828460a0830137600060a08483010152600060a0601f19601f860116830101905063ffffffff831660608301529695505050505050565b60005b83811015614ec0578181015183820152602001614ea8565b50506000910152565b600082601f830112614eda57600080fd5b81516001600160401b03811115614ef357614ef3614e09565b604051601f8201601f19908116603f011681016001600160401b0381118282101715614f2157614f21614e09565b604052818152838201602001851015614f3957600080fd5b613ff4826020830160208701614ea5565b600080600060608486031215614f5f57600080fd5b8351614f6a81614871565b6020850151909350614f7b81614978565b60408501519092506001600160401b03811115614f9757600080fd5b614fa386828701614ec9565b9150509250925092565b6001600160401b03818116838216019081111561413957614139614c43565b8181036000831280158383131683831282161715614fec57614fec614c43565b5092915050565b6000815180845261500b816020860160208601614ea5565b601f01601f19169290920160200192915050565b85815284602082015260018060a01b038416604082015260a06060820152600061504c60a0830185614ff3565b905063ffffffff831660808301529695505050505050565b8051801515811461507457600080fd5b919050565b60006020828403121561508b57600080fd5b6110f582615064565b60018060a01b03841681528260208201526060604082015260006150bb6060830184614ff3565b95945050505050565b6000806000606084860312156150d957600080fd5b835160208501519093506150ec81614814565b91506150fa60408501615064565b90509250925092565b6020808252601d908201527f56333a206f6e6c79206e61746976652066656520737570706f72746564000000604082015260600190565b6020815260006110f56020830184614ff3565b60008060006060848603121561516257600080fd5b8351925061517260208501615064565b6040949094015192959394509192915050565b600080600080600060a0868803121561519d57600080fd5b85516020870151604088015191965094506151b781614814565b60608701519093506001600160401b038111156151d357600080fd5b6151df88828901614ec9565b92505060808601516148e881614871565b60008251615202818460208701614ea5565b9190910192915050565b828152604060208201526000613ff46040830184614ff3565b6000806040838503121561523857600080fd5b505080516020909101519092909150565b63ffffffff841681526001600160401b03831660208201526060604082015260006150bb6060830184614ff356fe53bf423e48ed90e97d02ab0ebab13b2a235a6bfbe9c321847d5c175333ac45357bea13895fa79d2831e0a9e28edede30099005a50d652d8957cf8a607ee6ca4aa26469706673582212202c5324724e12d21126783eddabb14aaec4c5db38b27e64eb36a124af4b134e8564736f6c634300081c0033",
  "devdoc": {
    "author": "Origin Protocol Inc",
    "kind": "dev",
    "methods": {
      "bridgeOTokenToPeer(uint256,address,bytes,uint32)": {
        "params": {
          "_amount": "OToken amount to bridge.",
          "_callData": "Optional calldata invoked on `_recipient` after token delivery on                       the destination side. Empty for plain bridge.",
          "_callGasLimit": "Per-call gas cap; must be ≤ MAX_BRIDGE_CALL_GAS.",
          "_recipient": "Destination on the peer chain. `address(0)` defaults to msg.sender."
        }
      },
      "checkBalance(address)": {
        "params": {
          "_asset": "Address of the asset"
        },
        "returns": {
          "_0": "   Total value of the asset in the platform"
        }
      },
      "deposit(address,uint256)": {
        "params": {
          "_amount": "Units of asset to deposit",
          "_asset": "Address for the asset"
        }
      },
      "depositAll()": {
        "details": "Clamps the local balance by the outbound adapter's `maxTransferAmount` so a      vault sweep larger than the bridge's per-tx limit lands as a partial deposit      rather than reverting deep inside the bridge router. Remainder stays on Master      until the next `depositAll` (or operator-driven sequencing)."
      },
      "getRewardTokenAddresses()": {
        "returns": {
          "_0": "address[] the reward token addresses."
        }
      },
      "isYieldOpInFlight()": {
        "details": "True when a yield-channel operation has been initiated but its ack      has not yet been processed."
      },
      "receiveMessage(address,address,uint256,uint256,bytes)": {
        "details": "Single ingress for all inbound bridge deliveries. Validates the caller is the      configured inbound adapter, decodes the strategy-owned `(msgType, nonce, body)`      from `payload`, and forwards to the concrete strategy's hook. No `nonReentrant`      here — the concrete strategy's hook is the right place to apply it.",
        "params": {
          "amountReceived": "Actual amount of `token` transferred to this strategy by the                       adapter immediately before this call (already received).",
          "feePaid": "Transport-side fee deducted from the sender's intended amount                       (e.g., CCTP V2 fast-finality fee). Informational; the strategy's                       accounting is on `amountReceived`.",
          "payload": "Strategy-owned opaque bytes from the source envelope.",
          "sender": "Strategy address on the source chain — under CREATE3 parity, the                       same address as the destination strategy on this chain.",
          "token": "Token delivered alongside the message; `address(0)` for                       message-only deliveries."
        }
      },
      "removePToken(uint256)": {
        "params": {
          "_assetIndex": "Index of the asset to be removed"
        }
      },
      "requestBalanceCheck()": {
        "details": "Non-blocking: does NOT advance the yield nonce. Sends with the CURRENT         `lastYieldNonce` as an \"epoch marker\" — the response is accepted only if         that nonce still matches when the ack lands AND no other yield op is in         flight AND the timestamp is newer than the last accepted check. See         `_processBalanceCheckResponse` for the three-guard logic.         Multiple BCs in flight at the same nonce are harmless; whichever response         is newest wins via the timestamp guard."
      },
      "requestSettlement()": {
        "details": "Captures `bridgeAdjustment` as a snapshot at request time. Both sides         subtract exactly that snapshot on their respective handlers (NOT `= 0`),         which preserves any bridge ops that happen between request and ack. This         avoids the desync that would occur if both sides naively zeroed while a         new BRIDGE_OUT was mid-flight. See `_processSettlementAck` for the math."
      },
      "setHarvesterAddress(address)": {
        "params": {
          "_harvesterAddress": "Address of the harvester contract."
        }
      },
      "setPTokenAddress(address,address)": {
        "params": {
          "_asset": "Address for the asset",
          "_pToken": "Address for the corresponding platform token"
        }
      },
      "setRewardTokenAddresses(address[])": {
        "params": {
          "_rewardTokenAddresses": "Array of reward token addresses"
        }
      },
      "supportsAsset(address)": {
        "params": {
          "_asset": "Address of the asset"
        },
        "returns": {
          "_0": "bool     Whether asset is supported"
        }
      },
      "transferGovernance(address)": {
        "params": {
          "_newGovernor": "Address of the new Governor"
        }
      },
      "transferToken(address,uint256)": {
        "params": {
          "_amount": "Amount of the asset to transfer",
          "_asset": "Address for the asset"
        }
      },
      "withdraw(address,address,uint256)": {
        "details": "Withdrawals are async: this kicks off leg 1 (WITHDRAW_REQUEST). The actual      tokens land later when `triggerClaim()` is invoked and the leg-2 ack returns.      The `_recipient` parameter is informational — Master forwards received bridgeAsset      to the vault on leg-2 ack regardless of this value.",
        "params": {
          "_amount": "Units of asset to withdraw",
          "_asset": "Address of the asset",
          "_recipient": "Address to which the asset should be sent"
        }
      },
      "withdrawAll()": {
        "details": "Best-effort sweep: requests withdrawal of `remoteStrategyBalance` (clamped by      Remote's per-tx bridge cap) if nothing else is in flight; otherwise silently      no-ops so the vault sweep stays safe.      Clamping uses `inboundAdapter.maxTransferAmount()` — Master can't query      Remote's outbound across chains, but the symmetric inbound adapter on this      chain holds the same protocol-level cap (outbound and inbound on a lane      are mirror sides of the same bridge). For OETHb that's the Superbridge cap      (canonical bridge, typically 0 = unlimited); for OUSD V3 it's the CCTPAdapter      cap (10M USDC)."
      }
    },
    "stateVariables": {
      "__gap": {
        "details": "Reserved for future expansion."
      }
    },
    "title": "MasterWOTokenStrategy",
    "version": 1
  },
  "userdoc": {
    "kind": "user",
    "methods": {
      "MAX_BRIDGE_CALL_GAS()": {
        "notice": "Maximum gas forwarded to the optional post-delivery `callData` call on         the bridge channel. Caps griefing surface; users can request lower per call."
      },
      "MAX_BRIDGE_FEE_BPS()": {
        "notice": "Maximum protocol fee on the bridge channel (10% in basis points)."
      },
      "assetToPToken(address)": {
        "notice": "asset => pToken (Platform Specific Token Address)"
      },
      "bridgeAdjustment()": {
        "notice": "Signed net delta from bridge-channel activity since the last settlement.         BRIDGE_IN (mint locally / wrap locally) → increases.         BRIDGE_OUT (burn locally / unwrap locally) → decreases."
      },
      "bridgeAsset()": {
        "notice": "Asset that bridges between Master and Remote (USDC for OUSD V3, WETH for OETHb)."
      },
      "bridgeFeeBps()": {
        "notice": "Protocol fee on the bridge channel in basis points (1 bp = 0.01%). Default         0; capped at `MAX_BRIDGE_FEE_BPS`. When > 0, the source side consumes the         full `_amount` of OToken while the envelope carries `net = _amount - fee`,         so the peer only delivers `net`. The retained `fee` worth of backing flows         through the next `BALANCE_CHECK` and lifts the vault's rebase by the         fee."
      },
      "bridgeIdCounter()": {
        "notice": "Monotonic counter used to generate fresh bridgeIds for outbound BRIDGE_IN         / BRIDGE_OUT operations. Combined with `address(this)` for global uniqueness."
      },
      "bridgeOTokenToPeer(uint256,address,bytes,uint32)": {
        "notice": "User-initiated bridge: burn (Master) or wrap (Remote) `_amount` of OToken         locally and instruct the peer chain to deliver the equivalent amount."
      },
      "checkBalance(address)": {
        "notice": "Get the total asset value held in the platform.      This includes any interest that was generated since depositing."
      },
      "claimGovernance()": {
        "notice": "Claim Governance of the contract to a new account (`newGovernor`). Can only be called by the new Governor."
      },
      "collectRewardTokens()": {
        "notice": "Collect accumulated reward token and send to Vault.         No-ops when the harvester address is not set."
      },
      "consumedBridgeIds(bytes32)": {
        "notice": "Replay protection for the nonceless bridge channel."
      },
      "deposit(address,uint256)": {
        "notice": "Deposit an amount of assets into the platform"
      },
      "depositAll()": {
        "notice": "Deposit all supported assets in this strategy contract to the platform"
      },
      "getRewardTokenAddresses()": {
        "notice": "Get the reward token addresses."
      },
      "governor()": {
        "notice": "Returns the address of the current Governor."
      },
      "harvesterAddress()": {
        "notice": "Address of the Harvester contract allowed to collect reward tokens"
      },
      "inboundAdapter()": {
        "notice": "Adapter authorised to call `receiveMessage` on this strategy.         For atomic bridges the outbound and inbound adapters can be the same address;         for split-delivery they're typically different."
      },
      "isGovernor()": {
        "notice": "Returns true if the caller is the current Governor."
      },
      "lastBalanceCheckTimestamp()": {
        "notice": "Timestamp echoed back from the most-recently-accepted balance check ack.         Used by `_processBalanceCheckResponse` to enforce strict monotonic ordering         when multiple balance checks are in flight at the same yield-nonce window         and responses can arrive out of order (CCIP delivery isn't FIFO)."
      },
      "lastYieldNonce()": {
        "notice": "Highest yield-channel nonce ever assigned."
      },
      "nonceProcessed(uint64)": {
        "notice": "Marks each yield-channel nonce as processed (true) once its         message round-trip completes."
      },
      "oToken()": {
        "notice": "OToken on this chain (the rebasing OToken — OUSD, OETH, OETHb, etc.)."
      },
      "operator()": {
        "notice": "Account allowed to drive periodic, permissioned operations         (balance check, settlement, claim trigger). Set by governor."
      },
      "outboundAdapter()": {
        "notice": "Adapter used to send outbound messages and tokens to the peer chain."
      },
      "pendingAmount()": {
        "notice": "In-flight deposit amount (zero when no deposit is pending).         Part of `checkBalance` so that bridged-but-not-yet-acked tokens stay accounted for."
      },
      "pendingWithdrawalAmount()": {
        "notice": "In-flight withdrawal amount (zero when no withdrawal is pending). Pure state flag —         NOT part of `checkBalance` because the value is already covered by the stale         `remoteStrategyBalance` until the leg-2 ack lands."
      },
      "platformAddress()": {
        "notice": "Address of the underlying platform"
      },
      "receiveMessage(address,address,uint256,uint256,bytes)": {
        "notice": "Called by the authorised inbound adapter when a message lands."
      },
      "remoteStrategyBalance()": {
        "notice": "Last reported Remote balance, denominated in `bridgeAsset` units.         Updated by each yield-channel ack (deposit, withdrawal, balance check, settlement)."
      },
      "removePToken(uint256)": {
        "notice": "Remove a supported asset by passing its index.      This method can only be called by the system Governor"
      },
      "requestBalanceCheck()": {
        "notice": "Operator-triggered yield-channel round-trip to refresh `remoteStrategyBalance`         off the back of Remote's `previewRedeem`. Run on a cron (~2h) in production."
      },
      "requestSettlement()": {
        "notice": "Operator-triggered settlement: zero out (or reduce) `bridgeAdjustment` on         both sides. With the locked design (yield-only baseline in balance check),         settlement is housekeeping — keeps bridgeAdjustment magnitude bounded         rather than being correctness-critical."
      },
      "rewardTokenAddresses(uint256)": {
        "notice": "Address of the reward tokens. eg CRV, BAL, CVX, AURA"
      },
      "setHarvesterAddress(address)": {
        "notice": "Set the Harvester contract that can collect rewards."
      },
      "setPTokenAddress(address,address)": {
        "notice": "Provide support for asset by passing its pToken address.      This method can only be called by the system Governor"
      },
      "setRewardTokenAddresses(address[])": {
        "notice": "Set the reward token addresses. Any old addresses will be overwritten."
      },
      "settlementSnapshot()": {
        "notice": "Snapshot of `bridgeAdjustment` captured at the moment `requestSettlement`         fires. The ack handler subtracts exactly this value (not zero) so that any         bridge ops processed between request and ack are preserved on both sides.         See `_processSettlementAck` for rationale."
      },
      "supportsAsset(address)": {
        "notice": "Check if an asset is supported."
      },
      "transferGovernance(address)": {
        "notice": "Transfers Governance of the contract to a new account (`newGovernor`). Can only be called by the current Governor. Must be claimed for this to complete"
      },
      "transferNative(uint256)": {
        "notice": "Sweep native ETH out of the strategy to governor. Used to drain the fee         pool (operator rotation, decommission) or recover stray donations (a user         that overpaid msg.value when calling `bridgeOTokenToPeer`)."
      },
      "transferToken(address,uint256)": {
        "notice": "Transfer token to governor. Intended for recovering tokens stuck in      strategy contracts, i.e. mistaken sends."
      },
      "triggerClaim()": {
        "notice": "Operator-triggered leg 2: instructs Remote to claim from its OToken-vault queue         (if not already done by peer-chain automation) and bridge the bridgeAsset back.         Must be called only after a leg-1 ack has been processed (otherwise no         pending withdrawal to claim)."
      },
      "vaultAddress()": {
        "notice": "Address of the OToken vault"
      },
      "withdraw(address,address,uint256)": {
        "notice": "Withdraw an `amount` of assets from the platform and send to the `_recipient`."
      },
      "withdrawAll()": {
        "notice": "Withdraw all supported assets from platform and sends to the OToken's Vault."
      }
    },
    "notice": "Vault-facing leg of the wOToken cross-chain strategy pair. Registered with the         OToken vault on its own chain; orchestrates deposits, withdrawals, balance         checks, and settlement against the Remote strategy on the peer chain. Topology         is deployment-dependent (e.g., for OETHb, Master is on Base and Remote on         Ethereum; for OUSD V3, the topology can be inverted per spoke).         Bridge-channel mechanics (`bridgeOTokenToPeer`,         inbound BRIDGE_IN handling, replay protection, signed `bridgeAdjustment`         bookkeeping) live in `AbstractWOTokenStrategy` and are wired here via four hooks.         Master is intentionally dumb on the withdrawal queue. It never sees a `requestId`,         never tracks per-withdrawal state beyond a single in-flight amount flag — Remote         owns the queue lifecycle. See the V3 design plan for the full state-transition table.",
    "version": 1
  },
  "storageLayout": {
    "storage": [
      {
        "astId": 67927,
        "contract": "contracts/strategies/crosschainV3/MasterWOTokenStrategy.sol:MasterWOTokenStrategy",
        "label": "initialized",
        "offset": 0,
        "slot": "0",
        "type": "t_bool"
      },
      {
        "astId": 67930,
        "contract": "contracts/strategies/crosschainV3/MasterWOTokenStrategy.sol:MasterWOTokenStrategy",
        "label": "initializing",
        "offset": 1,
        "slot": "0",
        "type": "t_bool"
      },
      {
        "astId": 67970,
        "contract": "contracts/strategies/crosschainV3/MasterWOTokenStrategy.sol:MasterWOTokenStrategy",
        "label": "______gap",
        "offset": 0,
        "slot": "1",
        "type": "t_array(t_uint256)50_storage"
      },
      {
        "astId": 55309,
        "contract": "contracts/strategies/crosschainV3/MasterWOTokenStrategy.sol:MasterWOTokenStrategy",
        "label": "outboundAdapter",
        "offset": 0,
        "slot": "51",
        "type": "t_address"
      },
      {
        "astId": 55312,
        "contract": "contracts/strategies/crosschainV3/MasterWOTokenStrategy.sol:MasterWOTokenStrategy",
        "label": "inboundAdapter",
        "offset": 0,
        "slot": "52",
        "type": "t_address"
      },
      {
        "astId": 55315,
        "contract": "contracts/strategies/crosschainV3/MasterWOTokenStrategy.sol:MasterWOTokenStrategy",
        "label": "operator",
        "offset": 0,
        "slot": "53",
        "type": "t_address"
      },
      {
        "astId": 55318,
        "contract": "contracts/strategies/crosschainV3/MasterWOTokenStrategy.sol:MasterWOTokenStrategy",
        "label": "lastYieldNonce",
        "offset": 20,
        "slot": "53",
        "type": "t_uint64"
      },
      {
        "astId": 55323,
        "contract": "contracts/strategies/crosschainV3/MasterWOTokenStrategy.sol:MasterWOTokenStrategy",
        "label": "nonceProcessed",
        "offset": 0,
        "slot": "54",
        "type": "t_mapping(t_uint64,t_bool)"
      },
      {
        "astId": 55326,
        "contract": "contracts/strategies/crosschainV3/MasterWOTokenStrategy.sol:MasterWOTokenStrategy",
        "label": "lastBalanceCheckTimestamp",
        "offset": 0,
        "slot": "55",
        "type": "t_uint256"
      },
      {
        "astId": 55331,
        "contract": "contracts/strategies/crosschainV3/MasterWOTokenStrategy.sol:MasterWOTokenStrategy",
        "label": "__gap",
        "offset": 0,
        "slot": "56",
        "type": "t_array(t_uint256)43_storage"
      },
      {
        "astId": 68050,
        "contract": "contracts/strategies/crosschainV3/MasterWOTokenStrategy.sol:MasterWOTokenStrategy",
        "label": "_deprecated_platformAddress",
        "offset": 0,
        "slot": "99",
        "type": "t_address"
      },
      {
        "astId": 68053,
        "contract": "contracts/strategies/crosschainV3/MasterWOTokenStrategy.sol:MasterWOTokenStrategy",
        "label": "_deprecated_vaultAddress",
        "offset": 0,
        "slot": "100",
        "type": "t_address"
      },
      {
        "astId": 68058,
        "contract": "contracts/strategies/crosschainV3/MasterWOTokenStrategy.sol:MasterWOTokenStrategy",
        "label": "assetToPToken",
        "offset": 0,
        "slot": "101",
        "type": "t_mapping(t_address,t_address)"
      },
      {
        "astId": 68062,
        "contract": "contracts/strategies/crosschainV3/MasterWOTokenStrategy.sol:MasterWOTokenStrategy",
        "label": "assetsMapped",
        "offset": 0,
        "slot": "102",
        "type": "t_array(t_address)dyn_storage"
      },
      {
        "astId": 68064,
        "contract": "contracts/strategies/crosschainV3/MasterWOTokenStrategy.sol:MasterWOTokenStrategy",
        "label": "_deprecated_rewardTokenAddress",
        "offset": 0,
        "slot": "103",
        "type": "t_address"
      },
      {
        "astId": 68066,
        "contract": "contracts/strategies/crosschainV3/MasterWOTokenStrategy.sol:MasterWOTokenStrategy",
        "label": "_deprecated_rewardLiquidationThreshold",
        "offset": 0,
        "slot": "104",
        "type": "t_uint256"
      },
      {
        "astId": 68069,
        "contract": "contracts/strategies/crosschainV3/MasterWOTokenStrategy.sol:MasterWOTokenStrategy",
        "label": "harvesterAddress",
        "offset": 0,
        "slot": "105",
        "type": "t_address"
      },
      {
        "astId": 68073,
        "contract": "contracts/strategies/crosschainV3/MasterWOTokenStrategy.sol:MasterWOTokenStrategy",
        "label": "rewardTokenAddresses",
        "offset": 0,
        "slot": "106",
        "type": "t_array(t_address)dyn_storage"
      },
      {
        "astId": 68077,
        "contract": "contracts/strategies/crosschainV3/MasterWOTokenStrategy.sol:MasterWOTokenStrategy",
        "label": "_reserved",
        "offset": 0,
        "slot": "107",
        "type": "t_array(t_int256)98_storage"
      },
      {
        "astId": 56043,
        "contract": "contracts/strategies/crosschainV3/MasterWOTokenStrategy.sol:MasterWOTokenStrategy",
        "label": "bridgeAdjustment",
        "offset": 0,
        "slot": "205",
        "type": "t_int256"
      },
      {
        "astId": 56048,
        "contract": "contracts/strategies/crosschainV3/MasterWOTokenStrategy.sol:MasterWOTokenStrategy",
        "label": "consumedBridgeIds",
        "offset": 0,
        "slot": "206",
        "type": "t_mapping(t_bytes32,t_bool)"
      },
      {
        "astId": 56051,
        "contract": "contracts/strategies/crosschainV3/MasterWOTokenStrategy.sol:MasterWOTokenStrategy",
        "label": "bridgeIdCounter",
        "offset": 0,
        "slot": "207",
        "type": "t_uint256"
      },
      {
        "astId": 56054,
        "contract": "contracts/strategies/crosschainV3/MasterWOTokenStrategy.sol:MasterWOTokenStrategy",
        "label": "bridgeFeeBps",
        "offset": 0,
        "slot": "208",
        "type": "t_uint256"
      },
      {
        "astId": 56059,
        "contract": "contracts/strategies/crosschainV3/MasterWOTokenStrategy.sol:MasterWOTokenStrategy",
        "label": "__gap",
        "offset": 0,
        "slot": "209",
        "type": "t_array(t_uint256)43_storage"
      },
      {
        "astId": 56984,
        "contract": "contracts/strategies/crosschainV3/MasterWOTokenStrategy.sol:MasterWOTokenStrategy",
        "label": "remoteStrategyBalance",
        "offset": 0,
        "slot": "252",
        "type": "t_uint256"
      },
      {
        "astId": 56987,
        "contract": "contracts/strategies/crosschainV3/MasterWOTokenStrategy.sol:MasterWOTokenStrategy",
        "label": "pendingAmount",
        "offset": 0,
        "slot": "253",
        "type": "t_uint256"
      },
      {
        "astId": 56990,
        "contract": "contracts/strategies/crosschainV3/MasterWOTokenStrategy.sol:MasterWOTokenStrategy",
        "label": "pendingWithdrawalAmount",
        "offset": 0,
        "slot": "254",
        "type": "t_uint256"
      },
      {
        "astId": 56993,
        "contract": "contracts/strategies/crosschainV3/MasterWOTokenStrategy.sol:MasterWOTokenStrategy",
        "label": "settlementSnapshot",
        "offset": 0,
        "slot": "255",
        "type": "t_int256"
      },
      {
        "astId": 56998,
        "contract": "contracts/strategies/crosschainV3/MasterWOTokenStrategy.sol:MasterWOTokenStrategy",
        "label": "__gap",
        "offset": 0,
        "slot": "256",
        "type": "t_array(t_uint256)41_storage"
      }
    ],
    "types": {
      "t_address": {
        "encoding": "inplace",
        "label": "address",
        "numberOfBytes": "20"
      },
      "t_array(t_address)dyn_storage": {
        "base": "t_address",
        "encoding": "dynamic_array",
        "label": "address[]",
        "numberOfBytes": "32"
      },
      "t_array(t_int256)98_storage": {
        "base": "t_int256",
        "encoding": "inplace",
        "label": "int256[98]",
        "numberOfBytes": "3136"
      },
      "t_array(t_uint256)41_storage": {
        "base": "t_uint256",
        "encoding": "inplace",
        "label": "uint256[41]",
        "numberOfBytes": "1312"
      },
      "t_array(t_uint256)43_storage": {
        "base": "t_uint256",
        "encoding": "inplace",
        "label": "uint256[43]",
        "numberOfBytes": "1376"
      },
      "t_array(t_uint256)50_storage": {
        "base": "t_uint256",
        "encoding": "inplace",
        "label": "uint256[50]",
        "numberOfBytes": "1600"
      },
      "t_bool": {
        "encoding": "inplace",
        "label": "bool",
        "numberOfBytes": "1"
      },
      "t_bytes32": {
        "encoding": "inplace",
        "label": "bytes32",
        "numberOfBytes": "32"
      },
      "t_int256": {
        "encoding": "inplace",
        "label": "int256",
        "numberOfBytes": "32"
      },
      "t_mapping(t_address,t_address)": {
        "encoding": "mapping",
        "key": "t_address",
        "label": "mapping(address => address)",
        "numberOfBytes": "32",
        "value": "t_address"
      },
      "t_mapping(t_bytes32,t_bool)": {
        "encoding": "mapping",
        "key": "t_bytes32",
        "label": "mapping(bytes32 => bool)",
        "numberOfBytes": "32",
        "value": "t_bool"
      },
      "t_mapping(t_uint64,t_bool)": {
        "encoding": "mapping",
        "key": "t_uint64",
        "label": "mapping(uint64 => bool)",
        "numberOfBytes": "32",
        "value": "t_bool"
      },
      "t_uint256": {
        "encoding": "inplace",
        "label": "uint256",
        "numberOfBytes": "32"
      },
      "t_uint64": {
        "encoding": "inplace",
        "label": "uint64",
        "numberOfBytes": "8"
      }
    }
  }
}