{
  "address": "0xFC678A3E837E85168A8f1C77E9ddbfe2a77fa961",
  "abi": [
    {
      "inputs": [
        {
          "internalType": "string",
          "name": "name_",
          "type": "string"
        },
        {
          "internalType": "string",
          "name": "symbol_",
          "type": "string"
        },
        {
          "internalType": "address",
          "name": "_vault",
          "type": "address"
        }
      ],
      "stateMutability": "nonpayable",
      "type": "constructor"
    },
    {
      "anonymous": false,
      "inputs": [
        {
          "indexed": true,
          "internalType": "address",
          "name": "owner",
          "type": "address"
        },
        {
          "indexed": true,
          "internalType": "address",
          "name": "spender",
          "type": "address"
        },
        {
          "indexed": false,
          "internalType": "uint256",
          "name": "value",
          "type": "uint256"
        }
      ],
      "name": "Approval",
      "type": "event"
    },
    {
      "anonymous": false,
      "inputs": [
        {
          "indexed": true,
          "internalType": "address",
          "name": "from",
          "type": "address"
        },
        {
          "indexed": true,
          "internalType": "address",
          "name": "to",
          "type": "address"
        },
        {
          "indexed": false,
          "internalType": "uint256",
          "name": "value",
          "type": "uint256"
        }
      ],
      "name": "Transfer",
      "type": "event"
    },
    {
      "inputs": [
        {
          "internalType": "address",
          "name": "owner",
          "type": "address"
        },
        {
          "internalType": "address",
          "name": "spender",
          "type": "address"
        }
      ],
      "name": "allowance",
      "outputs": [
        {
          "internalType": "uint256",
          "name": "",
          "type": "uint256"
        }
      ],
      "stateMutability": "view",
      "type": "function"
    },
    {
      "inputs": [
        {
          "internalType": "address",
          "name": "spender",
          "type": "address"
        },
        {
          "internalType": "uint256",
          "name": "amount",
          "type": "uint256"
        }
      ],
      "name": "approve",
      "outputs": [
        {
          "internalType": "bool",
          "name": "",
          "type": "bool"
        }
      ],
      "stateMutability": "nonpayable",
      "type": "function"
    },
    {
      "inputs": [
        {
          "internalType": "address",
          "name": "account",
          "type": "address"
        }
      ],
      "name": "balanceOf",
      "outputs": [
        {
          "internalType": "uint256",
          "name": "",
          "type": "uint256"
        }
      ],
      "stateMutability": "view",
      "type": "function"
    },
    {
      "inputs": [
        {
          "internalType": "address",
          "name": "_from",
          "type": "address"
        },
        {
          "internalType": "uint256",
          "name": "_amount",
          "type": "uint256"
        }
      ],
      "name": "burn",
      "outputs": [],
      "stateMutability": "nonpayable",
      "type": "function"
    },
    {
      "inputs": [],
      "name": "decimals",
      "outputs": [
        {
          "internalType": "uint8",
          "name": "",
          "type": "uint8"
        }
      ],
      "stateMutability": "view",
      "type": "function"
    },
    {
      "inputs": [
        {
          "internalType": "address",
          "name": "spender",
          "type": "address"
        },
        {
          "internalType": "uint256",
          "name": "subtractedValue",
          "type": "uint256"
        }
      ],
      "name": "decreaseAllowance",
      "outputs": [
        {
          "internalType": "bool",
          "name": "",
          "type": "bool"
        }
      ],
      "stateMutability": "nonpayable",
      "type": "function"
    },
    {
      "inputs": [
        {
          "internalType": "address",
          "name": "spender",
          "type": "address"
        },
        {
          "internalType": "uint256",
          "name": "addedValue",
          "type": "uint256"
        }
      ],
      "name": "increaseAllowance",
      "outputs": [
        {
          "internalType": "bool",
          "name": "",
          "type": "bool"
        }
      ],
      "stateMutability": "nonpayable",
      "type": "function"
    },
    {
      "inputs": [
        {
          "internalType": "address",
          "name": "_to",
          "type": "address"
        },
        {
          "internalType": "uint256",
          "name": "_amount",
          "type": "uint256"
        }
      ],
      "name": "mint",
      "outputs": [],
      "stateMutability": "nonpayable",
      "type": "function"
    },
    {
      "inputs": [],
      "name": "name",
      "outputs": [
        {
          "internalType": "string",
          "name": "",
          "type": "string"
        }
      ],
      "stateMutability": "view",
      "type": "function"
    },
    {
      "inputs": [],
      "name": "symbol",
      "outputs": [
        {
          "internalType": "string",
          "name": "",
          "type": "string"
        }
      ],
      "stateMutability": "view",
      "type": "function"
    },
    {
      "inputs": [],
      "name": "totalSupply",
      "outputs": [
        {
          "internalType": "uint256",
          "name": "",
          "type": "uint256"
        }
      ],
      "stateMutability": "view",
      "type": "function"
    },
    {
      "inputs": [
        {
          "internalType": "address",
          "name": "recipient",
          "type": "address"
        },
        {
          "internalType": "uint256",
          "name": "amount",
          "type": "uint256"
        }
      ],
      "name": "transfer",
      "outputs": [
        {
          "internalType": "bool",
          "name": "",
          "type": "bool"
        }
      ],
      "stateMutability": "nonpayable",
      "type": "function"
    },
    {
      "inputs": [
        {
          "internalType": "address",
          "name": "sender",
          "type": "address"
        },
        {
          "internalType": "address",
          "name": "recipient",
          "type": "address"
        },
        {
          "internalType": "uint256",
          "name": "amount",
          "type": "uint256"
        }
      ],
      "name": "transferFrom",
      "outputs": [
        {
          "internalType": "bool",
          "name": "",
          "type": "bool"
        }
      ],
      "stateMutability": "nonpayable",
      "type": "function"
    },
    {
      "inputs": [],
      "name": "vaultAddress",
      "outputs": [
        {
          "internalType": "address",
          "name": "",
          "type": "address"
        }
      ],
      "stateMutability": "view",
      "type": "function"
    }
  ],
  "transactionHash": "0xecd3bea407c883fb66d87bd09e27603adcfa4fa270813d1016bc53d67506ef4a",
  "args": [
    "Mock OETHb",
    "mOETHb",
    "0xD8724322f44E5c58D7A815F542036fb17DbbF839"
  ],
  "numDeployments": 1,
  "solcInputHash": "874b249b02834525172b8514664b7404",
  "bytecode": "0x60a060405234801561001057600080fd5b5060405161100b38038061100b83398101604081905261002f91610174565b8282600361003d8382610288565b50600461004a8282610288565b5050506001600160a01b0381166100a75760405162461bcd60e51b815260206004820152601a60248201527f4d6f636b4f546f6b656e3a207661756c74207265717569726564000000000000604482015260640160405180910390fd5b6001600160a01b0316608052506103469050565b634e487b7160e01b600052604160045260246000fd5b600082601f8301126100e257600080fd5b81516001600160401b038111156100fb576100fb6100bb565b604051601f8201601f19908116603f011681016001600160401b0381118282101715610129576101296100bb565b60405281815283820160200185101561014157600080fd5b60005b8281101561016057602081860181015183830182015201610144565b506000918101602001919091529392505050565b60008060006060848603121561018957600080fd5b83516001600160401b0381111561019f57600080fd5b6101ab868287016100d1565b602086015190945090506001600160401b038111156101c957600080fd5b6101d5868287016100d1565b604086015190935090506001600160a01b03811681146101f457600080fd5b809150509250925092565b600181811c9082168061021357607f821691505b60208210810361023357634e487b7160e01b600052602260045260246000fd5b50919050565b601f82111561028357806000526020600020601f840160051c810160208510156102605750805b601f840160051c820191505b81811015610280576000815560010161026c565b50505b505050565b81516001600160401b038111156102a1576102a16100bb565b6102b5816102af84546101ff565b84610239565b6020601f8211600181146102e957600083156102d15750848201515b600019600385901b1c1916600184901b178455610280565b600084815260208120601f198516915b8281101561031957878501518255602094850194600190920191016102f9565b50848210156103375786840151600019600387901b60f8161c191681555b50505050600190811b01905550565b608051610c9c61036f600039600081816101910152818161040d015261049b0152610c9c6000f3fe608060405234801561001057600080fd5b50600436106100ea5760003560e01c8063430bf08a1161008c5780639dc29fac116100665780639dc29fac146101fc578063a457c2d71461020f578063a9059cbb14610222578063dd62ed3e1461023557600080fd5b8063430bf08a1461018c57806370a08231146101cb57806395d89b41146101f457600080fd5b806323b872dd116100c857806323b872dd14610142578063313ce56714610155578063395093511461016457806340c10f191461017757600080fd5b806306fdde03146100ef578063095ea7b31461010d57806318160ddd14610130575b600080fd5b6100f761026e565b6040516101049190610aca565b60405180910390f35b61012061011b366004610b34565b610300565b6040519015158152602001610104565b6002545b604051908152602001610104565b610120610150366004610b5e565b610317565b60405160128152602001610104565b610120610172366004610b34565b6103c6565b61018a610185366004610b34565b610402565b005b6101b37f000000000000000000000000000000000000000000000000000000000000000081565b6040516001600160a01b039091168152602001610104565b6101346101d9366004610b9b565b6001600160a01b031660009081526020819052604090205490565b6100f7610481565b61018a61020a366004610b34565b610490565b61012061021d366004610b34565b61050b565b610120610230366004610b34565b6105a4565b610134610243366004610bbd565b6001600160a01b03918216600090815260016020908152604080832093909416825291909152205490565b60606003805461027d90610bf0565b80601f01602080910402602001604051908101604052809291908181526020018280546102a990610bf0565b80156102f65780601f106102cb576101008083540402835291602001916102f6565b820191906000526020600020905b8154815290600101906020018083116102d957829003601f168201915b5050505050905090565b600061030d3384846105b1565b5060015b92915050565b60006103248484846106d6565b6001600160a01b0384166000908152600160209081526040808320338452909152902054828110156103ae5760405162461bcd60e51b815260206004820152602860248201527f45524332303a207472616e7366657220616d6f756e74206578636565647320616044820152676c6c6f77616e636560c01b60648201526084015b60405180910390fd5b6103bb85338584036105b1565b506001949350505050565b3360008181526001602090815260408083206001600160a01b0387168452909152812054909161030d9185906103fd908690610c40565b6105b1565b336001600160a01b037f000000000000000000000000000000000000000000000000000000000000000016146104735760405162461bcd60e51b8152602060048201526016602482015275135bd8dad3d51bdad95b8e881bdb9b1e481d985d5b1d60521b60448201526064016103a5565b61047d82826108a5565b5050565b60606004805461027d90610bf0565b336001600160a01b037f000000000000000000000000000000000000000000000000000000000000000016146105015760405162461bcd60e51b8152602060048201526016602482015275135bd8dad3d51bdad95b8e881bdb9b1e481d985d5b1d60521b60448201526064016103a5565b61047d8282610984565b3360009081526001602090815260408083206001600160a01b03861684529091528120548281101561058d5760405162461bcd60e51b815260206004820152602560248201527f45524332303a2064656372656173656420616c6c6f77616e63652062656c6f77604482015264207a65726f60d81b60648201526084016103a5565b61059a33858584036105b1565b5060019392505050565b600061030d3384846106d6565b6001600160a01b0383166106135760405162461bcd60e51b8152602060048201526024808201527f45524332303a20617070726f76652066726f6d20746865207a65726f206164646044820152637265737360e01b60648201526084016103a5565b6001600160a01b0382166106745760405162461bcd60e51b815260206004820152602260248201527f45524332303a20617070726f766520746f20746865207a65726f206164647265604482015261737360f01b60648201526084016103a5565b6001600160a01b0383811660008181526001602090815260408083209487168084529482529182902085905590518481527f8c5be1e5ebec7d5bd14f71427d1e84f3dd0314c0f7b2291e5b200ac8c7c3b92591015b60405180910390a3505050565b6001600160a01b03831661073a5760405162461bcd60e51b815260206004820152602560248201527f45524332303a207472616e736665722066726f6d20746865207a65726f206164604482015264647265737360d81b60648201526084016103a5565b6001600160a01b03821661079c5760405162461bcd60e51b815260206004820152602360248201527f45524332303a207472616e7366657220746f20746865207a65726f206164647260448201526265737360e81b60648201526084016103a5565b6001600160a01b038316600090815260208190526040902054818110156108145760405162461bcd60e51b815260206004820152602660248201527f45524332303a207472616e7366657220616d6f756e7420657863656564732062604482015265616c616e636560d01b60648201526084016103a5565b6001600160a01b0380851660009081526020819052604080822085850390559185168152908120805484929061084b908490610c40565b92505081905550826001600160a01b0316846001600160a01b03167fddf252ad1be2c89b69c2b068fc378daa952ba7f163c4a11628f55a4df523b3ef8460405161089791815260200190565b60405180910390a350505050565b6001600160a01b0382166108fb5760405162461bcd60e51b815260206004820152601f60248201527f45524332303a206d696e7420746f20746865207a65726f20616464726573730060448201526064016103a5565b806002600082825461090d9190610c40565b90915550506001600160a01b0382166000908152602081905260408120805483929061093a908490610c40565b90915550506040518181526001600160a01b038316906000907fddf252ad1be2c89b69c2b068fc378daa952ba7f163c4a11628f55a4df523b3ef9060200160405180910390a35050565b6001600160a01b0382166109e45760405162461bcd60e51b815260206004820152602160248201527f45524332303a206275726e2066726f6d20746865207a65726f206164647265736044820152607360f81b60648201526084016103a5565b6001600160a01b03821660009081526020819052604090205481811015610a585760405162461bcd60e51b815260206004820152602260248201527f45524332303a206275726e20616d6f756e7420657863656564732062616c616e604482015261636560f01b60648201526084016103a5565b6001600160a01b0383166000908152602081905260408120838303905560028054849290610a87908490610c53565b90915550506040518281526000906001600160a01b038516907fddf252ad1be2c89b69c2b068fc378daa952ba7f163c4a11628f55a4df523b3ef906020016106c9565b602081526000825180602084015260005b81811015610af85760208186018101516040868401015201610adb565b506000604082850101526040601f19601f83011684010191505092915050565b80356001600160a01b0381168114610b2f57600080fd5b919050565b60008060408385031215610b4757600080fd5b610b5083610b18565b946020939093013593505050565b600080600060608486031215610b7357600080fd5b610b7c84610b18565b9250610b8a60208501610b18565b929592945050506040919091013590565b600060208284031215610bad57600080fd5b610bb682610b18565b9392505050565b60008060408385031215610bd057600080fd5b610bd983610b18565b9150610be760208401610b18565b90509250929050565b600181811c90821680610c0457607f821691505b602082108103610c2457634e487b7160e01b600052602260045260246000fd5b50919050565b634e487b7160e01b600052601160045260246000fd5b8082018082111561031157610311610c2a565b8181038181111561031157610311610c2a56fea2646970667358221220ae07e9edc1594434c4465849618a40605842bdf82c581a8b1f43c3586e485bf764736f6c634300081c0033",
  "devdoc": {
    "events": {
      "Approval(address,address,uint256)": {
        "details": "Emitted when the allowance of a `spender` for an `owner` is set by a call to {approve}. `value` is the new allowance."
      },
      "Transfer(address,address,uint256)": {
        "details": "Emitted when `value` tokens are moved from one account (`from`) to another (`to`). Note that `value` may be zero."
      }
    },
    "kind": "dev",
    "methods": {
      "allowance(address,address)": {
        "details": "See {IERC20-allowance}."
      },
      "approve(address,uint256)": {
        "details": "See {IERC20-approve}. Requirements: - `spender` cannot be the zero address."
      },
      "balanceOf(address)": {
        "details": "See {IERC20-balanceOf}."
      },
      "decimals()": {
        "details": "Returns the number of decimals used to get its user representation. For example, if `decimals` equals `2`, a balance of `505` tokens should be displayed to a user as `5.05` (`505 / 10 ** 2`). Tokens usually opt for a value of 18, imitating the relationship between Ether and Wei. This is the value {ERC20} uses, unless this function is overridden; NOTE: This information is only used for _display_ purposes: it in no way affects any of the arithmetic of the contract, including {IERC20-balanceOf} and {IERC20-transfer}."
      },
      "decreaseAllowance(address,uint256)": {
        "details": "Atomically decreases the allowance granted to `spender` by the caller. This is an alternative to {approve} that can be used as a mitigation for problems described in {IERC20-approve}. Emits an {Approval} event indicating the updated allowance. Requirements: - `spender` cannot be the zero address. - `spender` must have allowance for the caller of at least `subtractedValue`."
      },
      "increaseAllowance(address,uint256)": {
        "details": "Atomically increases the allowance granted to `spender` by the caller. This is an alternative to {approve} that can be used as a mitigation for problems described in {IERC20-approve}. Emits an {Approval} event indicating the updated allowance. Requirements: - `spender` cannot be the zero address."
      },
      "name()": {
        "details": "Returns the name of the token."
      },
      "symbol()": {
        "details": "Returns the symbol of the token, usually a shorter version of the name."
      },
      "totalSupply()": {
        "details": "See {IERC20-totalSupply}."
      },
      "transfer(address,uint256)": {
        "details": "See {IERC20-transfer}. Requirements: - `recipient` cannot be the zero address. - the caller must have a balance of at least `amount`."
      },
      "transferFrom(address,address,uint256)": {
        "details": "See {IERC20-transferFrom}. Emits an {Approval} event indicating the updated allowance. This is not required by the EIP. See the note at the beginning of {ERC20}. Requirements: - `sender` and `recipient` cannot be the zero address. - `sender` must have a balance of at least `amount`. - the caller must have allowance for ``sender``'s tokens of at least `amount`."
      }
    },
    "title": "MockMintableBurnableOToken",
    "version": 1
  },
  "userdoc": {
    "kind": "user",
    "methods": {},
    "notice": "TEST-ONLY OToken stand-in for the V3 strategy unit tests. Mirrors the         vault-restricted mint / burn surface of the real OUSD / OETH tokens         without any rebasing or share-credit machinery.",
    "version": 1
  },
  "storageLayout": {
    "storage": [
      {
        "astId": 1447,
        "contract": "contracts/mocks/crosschainV3/MockMintableBurnableOToken.sol:MockMintableBurnableOToken",
        "label": "_balances",
        "offset": 0,
        "slot": "0",
        "type": "t_mapping(t_address,t_uint256)"
      },
      {
        "astId": 1453,
        "contract": "contracts/mocks/crosschainV3/MockMintableBurnableOToken.sol:MockMintableBurnableOToken",
        "label": "_allowances",
        "offset": 0,
        "slot": "1",
        "type": "t_mapping(t_address,t_mapping(t_address,t_uint256))"
      },
      {
        "astId": 1455,
        "contract": "contracts/mocks/crosschainV3/MockMintableBurnableOToken.sol:MockMintableBurnableOToken",
        "label": "_totalSupply",
        "offset": 0,
        "slot": "2",
        "type": "t_uint256"
      },
      {
        "astId": 1457,
        "contract": "contracts/mocks/crosschainV3/MockMintableBurnableOToken.sol:MockMintableBurnableOToken",
        "label": "_name",
        "offset": 0,
        "slot": "3",
        "type": "t_string_storage"
      },
      {
        "astId": 1459,
        "contract": "contracts/mocks/crosschainV3/MockMintableBurnableOToken.sol:MockMintableBurnableOToken",
        "label": "_symbol",
        "offset": 0,
        "slot": "4",
        "type": "t_string_storage"
      }
    ],
    "types": {
      "t_address": {
        "encoding": "inplace",
        "label": "address",
        "numberOfBytes": "20"
      },
      "t_mapping(t_address,t_mapping(t_address,t_uint256))": {
        "encoding": "mapping",
        "key": "t_address",
        "label": "mapping(address => mapping(address => uint256))",
        "numberOfBytes": "32",
        "value": "t_mapping(t_address,t_uint256)"
      },
      "t_mapping(t_address,t_uint256)": {
        "encoding": "mapping",
        "key": "t_address",
        "label": "mapping(address => uint256)",
        "numberOfBytes": "32",
        "value": "t_uint256"
      },
      "t_string_storage": {
        "encoding": "bytes",
        "label": "string",
        "numberOfBytes": "32"
      },
      "t_uint256": {
        "encoding": "inplace",
        "label": "uint256",
        "numberOfBytes": "32"
      }
    }
  }
}