{
  "address": "0xD8724322f44E5c58D7A815F542036fb17DbbF839",
  "abi": [
    {
      "anonymous": false,
      "inputs": [
        {
          "indexed": false,
          "internalType": "address",
          "name": "strategy",
          "type": "address"
        }
      ],
      "name": "StrategyDelisted",
      "type": "event"
    },
    {
      "anonymous": false,
      "inputs": [
        {
          "indexed": false,
          "internalType": "address",
          "name": "strategy",
          "type": "address"
        }
      ],
      "name": "StrategyWhitelisted",
      "type": "event"
    },
    {
      "inputs": [
        {
          "internalType": "uint256",
          "name": "_amount",
          "type": "uint256"
        }
      ],
      "name": "burnForStrategy",
      "outputs": [],
      "stateMutability": "nonpayable",
      "type": "function"
    },
    {
      "inputs": [
        {
          "internalType": "address",
          "name": "_strategy",
          "type": "address"
        },
        {
          "internalType": "address",
          "name": "_asset",
          "type": "address"
        },
        {
          "internalType": "uint256",
          "name": "_amount",
          "type": "uint256"
        }
      ],
      "name": "callDeposit",
      "outputs": [],
      "stateMutability": "nonpayable",
      "type": "function"
    },
    {
      "inputs": [
        {
          "internalType": "address",
          "name": "_strategy",
          "type": "address"
        }
      ],
      "name": "callDepositAll",
      "outputs": [],
      "stateMutability": "nonpayable",
      "type": "function"
    },
    {
      "inputs": [
        {
          "internalType": "address",
          "name": "_strategy",
          "type": "address"
        },
        {
          "internalType": "address",
          "name": "_recipient",
          "type": "address"
        },
        {
          "internalType": "address",
          "name": "_asset",
          "type": "address"
        },
        {
          "internalType": "uint256",
          "name": "_amount",
          "type": "uint256"
        }
      ],
      "name": "callWithdraw",
      "outputs": [],
      "stateMutability": "nonpayable",
      "type": "function"
    },
    {
      "inputs": [
        {
          "internalType": "address",
          "name": "_strategy",
          "type": "address"
        }
      ],
      "name": "callWithdrawAll",
      "outputs": [],
      "stateMutability": "nonpayable",
      "type": "function"
    },
    {
      "inputs": [
        {
          "internalType": "address",
          "name": "_strategy",
          "type": "address"
        }
      ],
      "name": "delistStrategy",
      "outputs": [],
      "stateMutability": "nonpayable",
      "type": "function"
    },
    {
      "inputs": [
        {
          "internalType": "address",
          "name": "",
          "type": "address"
        }
      ],
      "name": "isMintWhitelistedStrategy",
      "outputs": [
        {
          "internalType": "bool",
          "name": "",
          "type": "bool"
        }
      ],
      "stateMutability": "view",
      "type": "function"
    },
    {
      "inputs": [
        {
          "internalType": "uint256",
          "name": "_amount",
          "type": "uint256"
        }
      ],
      "name": "mintForStrategy",
      "outputs": [],
      "stateMutability": "nonpayable",
      "type": "function"
    },
    {
      "inputs": [],
      "name": "oToken",
      "outputs": [
        {
          "internalType": "contract MockMintableBurnableOToken",
          "name": "",
          "type": "address"
        }
      ],
      "stateMutability": "view",
      "type": "function"
    },
    {
      "inputs": [
        {
          "internalType": "contract MockMintableBurnableOToken",
          "name": "_oToken",
          "type": "address"
        }
      ],
      "name": "setOToken",
      "outputs": [],
      "stateMutability": "nonpayable",
      "type": "function"
    },
    {
      "inputs": [
        {
          "internalType": "address",
          "name": "_strategist",
          "type": "address"
        }
      ],
      "name": "setStrategistAddr",
      "outputs": [],
      "stateMutability": "nonpayable",
      "type": "function"
    },
    {
      "inputs": [],
      "name": "strategistAddr",
      "outputs": [
        {
          "internalType": "address",
          "name": "",
          "type": "address"
        }
      ],
      "stateMutability": "view",
      "type": "function"
    },
    {
      "inputs": [
        {
          "internalType": "address",
          "name": "_strategy",
          "type": "address"
        }
      ],
      "name": "whitelistStrategy",
      "outputs": [],
      "stateMutability": "nonpayable",
      "type": "function"
    }
  ],
  "transactionHash": "0x1b2581cd282ac0693462540cabe8a77fa2d970cd11bc81ad2accb133ec16d032",
  "args": [],
  "numDeployments": 1,
  "solcInputHash": "874b249b02834525172b8514664b7404",
  "bytecode": "0x6080604052348015600f57600080fd5b506106bc8061001f6000396000f3fe608060405234801561001057600080fd5b50600436106100cf5760003560e01c8063773540b31161008c578063ac9f2b7b11610066578063ac9f2b7b146101db578063ae774256146101ee578063d46ec53614610201578063f31513271461021457600080fd5b8063773540b31461018557806381d7e32b146101b5578063ab80dafb146101c857600080fd5b80631a32aad6146100d45780634530820a14610104578063534dd66014610137578063570d8e1d1461014c5780636217f3ea1461015f57806372f664d914610172575b600080fd5b6000546100e7906001600160a01b031681565b6040516001600160a01b0390911681526020015b60405180910390f35b6101276101123660046105b7565b60016020526000908152604090205460ff1681565b60405190151581526020016100fb565b61014a6101453660046105b7565b610244565b005b6002546100e7906001600160a01b031681565b61014a61016d3660046105db565b61029a565b61014a6101803660046105b7565b61034b565b61014a6101933660046105b7565b600280546001600160a01b0319166001600160a01b0392909216919091179055565b61014a6101c33660046105f4565b610386565b61014a6101d63660046105db565b6103f6565b61014a6101e9366004610645565b61048c565b61014a6101fc3660046105b7565b6104f3565b61014a61020f3660046105b7565b61054f565b61014a6102223660046105b7565b600080546001600160a01b0319166001600160a01b0392909216919091179055565b806001600160a01b031663853828b66040518163ffffffff1660e01b8152600401600060405180830381600087803b15801561027f57600080fd5b505af1158015610293573d6000803e3d6000fd5b5050505050565b3360009081526001602052604090205460ff166102fe5760405162461bcd60e51b815260206004820152601a60248201527f4d6f636b5661756c743a206e6f742077686974656c697374656400000000000060448201526064015b60405180910390fd5b600054604051632770a7eb60e21b8152336004820152602481018390526001600160a01b0390911690639dc29fac906044015b600060405180830381600087803b15801561027f57600080fd5b806001600160a01b031663de5f62686040518163ffffffff1660e01b8152600401600060405180830381600087803b15801561027f57600080fd5b604051636ce5768960e11b81526001600160a01b03848116600483015283811660248301526044820183905285169063d9caed1290606401600060405180830381600087803b1580156103d857600080fd5b505af11580156103ec573d6000803e3d6000fd5b5050505050505050565b3360009081526001602052604090205460ff166104555760405162461bcd60e51b815260206004820152601a60248201527f4d6f636b5661756c743a206e6f742077686974656c697374656400000000000060448201526064016102f5565b6000546040516340c10f1960e01b8152336004820152602481018390526001600160a01b03909116906340c10f1990604401610331565b6040516311f9fbc960e21b81526001600160a01b038381166004830152602482018390528416906347e7ef2490604401600060405180830381600087803b1580156104d657600080fd5b505af11580156104ea573d6000803e3d6000fd5b50505050505050565b6001600160a01b038116600081815260016020818152604092839020805460ff191690921790915590519182527f6b583e2e3ad2e182671d77905fee57b1ffd8ce2aa5c0b652ca029317919751a491015b60405180910390a150565b6001600160a01b038116600081815260016020908152604091829020805460ff1916905590519182527e447b55e08e1041f37f5c034544957efdcb20253a2bf69c797a32fd432613dd9101610544565b6001600160a01b03811681146105b457600080fd5b50565b6000602082840312156105c957600080fd5b81356105d48161059f565b9392505050565b6000602082840312156105ed57600080fd5b5035919050565b6000806000806080858703121561060a57600080fd5b84356106158161059f565b935060208501356106258161059f565b925060408501356106358161059f565b9396929550929360600135925050565b60008060006060848603121561065a57600080fd5b83356106658161059f565b925060208401356106758161059f565b92959294505050604091909101359056fea2646970667358221220ef4e605141d9bce94085e9765aec99149bed41871f7daaea5c4f6649f7367c1764736f6c634300081c0033",
  "devdoc": {
    "kind": "dev",
    "methods": {},
    "title": "MockOTokenVault",
    "version": 1
  },
  "userdoc": {
    "kind": "user",
    "methods": {},
    "notice": "TEST-ONLY minimal vault that exposes `mintForStrategy` / `burnForStrategy` to         whitelisted strategies for the V3 strategy unit tests. Skips all the real Vault         surface area (assets registry, allocate, redeem queue, rebase, etc.).",
    "version": 1
  },
  "storageLayout": {
    "storage": [
      {
        "astId": 32585,
        "contract": "contracts/mocks/crosschainV3/MockOTokenVault.sol:MockOTokenVault",
        "label": "oToken",
        "offset": 0,
        "slot": "0",
        "type": "t_contract(MockMintableBurnableOToken)32554"
      },
      {
        "astId": 32589,
        "contract": "contracts/mocks/crosschainV3/MockOTokenVault.sol:MockOTokenVault",
        "label": "isMintWhitelistedStrategy",
        "offset": 0,
        "slot": "1",
        "type": "t_mapping(t_address,t_bool)"
      },
      {
        "astId": 32591,
        "contract": "contracts/mocks/crosschainV3/MockOTokenVault.sol:MockOTokenVault",
        "label": "strategistAddr",
        "offset": 0,
        "slot": "2",
        "type": "t_address"
      }
    ],
    "types": {
      "t_address": {
        "encoding": "inplace",
        "label": "address",
        "numberOfBytes": "20"
      },
      "t_bool": {
        "encoding": "inplace",
        "label": "bool",
        "numberOfBytes": "1"
      },
      "t_contract(MockMintableBurnableOToken)32554": {
        "encoding": "inplace",
        "label": "contract MockMintableBurnableOToken",
        "numberOfBytes": "20"
      },
      "t_mapping(t_address,t_bool)": {
        "encoding": "mapping",
        "key": "t_address",
        "label": "mapping(address => bool)",
        "numberOfBytes": "32",
        "value": "t_bool"
      }
    }
  }
}