{
  "address": "0x7F3f8fD57c794e5AE83DADa5c1D9cE185c7bB33D",
  "abi": [
    {
      "inputs": [],
      "name": "InvalidProofLength",
      "type": "error"
    },
    {
      "inputs": [
        {
          "internalType": "bytes32",
          "name": "beaconBlockRoot",
          "type": "bytes32"
        },
        {
          "internalType": "bytes32",
          "name": "balancesContainerRoot",
          "type": "bytes32"
        },
        {
          "internalType": "bytes",
          "name": "balancesContainerProof",
          "type": "bytes"
        }
      ],
      "name": "verifyBalancesContainer",
      "outputs": [],
      "stateMutability": "view",
      "type": "function"
    },
    {
      "inputs": [
        {
          "internalType": "bytes32",
          "name": "beaconBlockRoot",
          "type": "bytes32"
        },
        {
          "internalType": "uint64",
          "name": "slot",
          "type": "uint64"
        },
        {
          "internalType": "bytes32",
          "name": "pubKeyHash",
          "type": "bytes32"
        },
        {
          "internalType": "bytes",
          "name": "firstPendingDepositProof",
          "type": "bytes"
        }
      ],
      "name": "verifyFirstPendingDeposit",
      "outputs": [
        {
          "internalType": "bool",
          "name": "isEmptyDepositQueue",
          "type": "bool"
        }
      ],
      "stateMutability": "view",
      "type": "function"
    },
    {
      "inputs": [
        {
          "internalType": "bytes32",
          "name": "beaconBlockRoot",
          "type": "bytes32"
        },
        {
          "internalType": "bytes32",
          "name": "pubKeyHash",
          "type": "bytes32"
        },
        {
          "internalType": "bytes",
          "name": "proof",
          "type": "bytes"
        },
        {
          "internalType": "uint64",
          "name": "validatorIndex",
          "type": "uint64"
        },
        {
          "internalType": "address",
          "name": "withdrawalAddress",
          "type": "address"
        }
      ],
      "name": "verifyValidator",
      "outputs": [],
      "stateMutability": "view",
      "type": "function"
    },
    {
      "inputs": [
        {
          "internalType": "bytes32",
          "name": "balancesContainerRoot",
          "type": "bytes32"
        },
        {
          "internalType": "bytes32",
          "name": "validatorBalanceLeaf",
          "type": "bytes32"
        },
        {
          "internalType": "bytes",
          "name": "balanceProof",
          "type": "bytes"
        },
        {
          "internalType": "uint64",
          "name": "validatorIndex",
          "type": "uint64"
        }
      ],
      "name": "verifyValidatorBalance",
      "outputs": [
        {
          "internalType": "uint256",
          "name": "validatorBalanceGwei",
          "type": "uint256"
        }
      ],
      "stateMutability": "view",
      "type": "function"
    },
    {
      "inputs": [
        {
          "internalType": "bytes32",
          "name": "beaconBlockRoot",
          "type": "bytes32"
        },
        {
          "internalType": "uint64",
          "name": "validatorIndex",
          "type": "uint64"
        },
        {
          "internalType": "bytes32",
          "name": "pubKeyHash",
          "type": "bytes32"
        },
        {
          "internalType": "uint64",
          "name": "withdrawableEpoch",
          "type": "uint64"
        },
        {
          "internalType": "bytes",
          "name": "withdrawableEpochProof",
          "type": "bytes"
        },
        {
          "internalType": "bytes",
          "name": "validatorPubKeyProof",
          "type": "bytes"
        }
      ],
      "name": "verifyValidatorWithdrawable",
      "outputs": [],
      "stateMutability": "view",
      "type": "function"
    },
    {
      "inputs": [
        {
          "internalType": "bytes32",
          "name": "beaconBlockRoot",
          "type": "bytes32"
        },
        {
          "internalType": "uint64",
          "name": "validatorIndex",
          "type": "uint64"
        },
        {
          "internalType": "uint64",
          "name": "withdrawableEpoch",
          "type": "uint64"
        },
        {
          "internalType": "bytes",
          "name": "withdrawableEpochProof",
          "type": "bytes"
        }
      ],
      "name": "verifyValidatorWithdrawable",
      "outputs": [],
      "stateMutability": "view",
      "type": "function"
    }
  ],
  "transactionHash": "0x64be3fac31d4818a3d5603052c61093a2db629124f9be5f82fc10d49c251770a",
  "args": [],
  "numDeployments": 8,
  "solcInputHash": "591dbf810f743105fcf16d59a6f0c2f9",
  "bytecode": "0x6080604052348015600f57600080fd5b50610f0b8061001f6000396000f3fe608060405234801561001057600080fd5b50600436106100625760003560e01c80630330aa1a146100675780633ba61c471461007c57806342bd31da1461008f5780637383a9fc146100b557806391ad640d146100d8578063aaf8eb0d146100eb575b600080fd5b61007a610075366004610a97565b6100fe565b005b61007a61008a366004610b3e565b61013d565b6100a261009d366004610bc4565b610153565b6040519081526020015b60405180910390f35b6100c86100c3366004610c2b565b61016c565b60405190151581526020016100ac565b61007a6100e6366004610c92565b61017b565b61007a6100f9366004610ce4565b61018d565b61010b88888787876101a1565b600061011b606060408688610d35565b61012491610d5f565b905061013281888585610284565b505050505050505050565b61014b868686868686610318565b505050505050565b6000610162868686868661045e565b9695505050505050565b60006101628686868686610571565b6101878484848461076d565b50505050565b61019a85858585856101a1565b5050505050565b846101c75760405162461bcd60e51b81526004016101be90610d7d565b60405180910390fd5b60076001600160401b03851666059600000000001760031b176106a082148015610238575061023883838080601f0160208091040260200160405190810160405280939291908181526020018383808284376000920191909152508a92506102329150889050610828565b8461089e565b61014b5760405162461bcd60e51b815260206004820152601a60248201527f496e76616c696420776974686472617761626c652070726f6f6600000000000060448201526064016101be565b6040811480156102d457506102d482828080601f0160208091040260200160405190810160405280939291908181526020018383808284376000920191909152508892508791506004905061089e565b6101875760405162461bcd60e51b815260206004820152601560248201527424b73b30b634b210383ab11035b2bc90383937b7b360591b60448201526064016101be565b856103355760405162461bcd60e51b81526004016101be90610d7d565b6001600160401b03821666059600000000001760031b600060208682376000519050826001600160a01b0316816001600160a01b0316146103b85760405162461bcd60e51b815260206004820152601a60248201527f496e76616c6964207769746864726177616c206164647265737300000000000060448201526064016101be565b6106a085148015610408575061040886868080601f0160208091040260200160405190810160405280939291908181526020018383808284376000920191909152508c92508b915086905061089e565b6104545760405162461bcd60e51b815260206004820152601760248201527f496e76616c69642076616c696461746f722070726f6f6600000000000000000060448201526064016101be565b5050505050505050565b6000856104a65760405162461bcd60e51b8152602060048201526016602482015275125b9d985b1a590818dbdb9d185a5b995c881c9bdbdd60521b60448201526064016101be565b60006104b3600484610dd5565b90506001600160401b038116648000000000176104d087856108b6565b92506104e085148015610522575061052286868080601f0160208091040260200160405190810160405280939291908181526020018383808284376000920191909152508c92508b915085905061089e565b6105665760405162461bcd60e51b815260206004820152601560248201527424b73b30b634b2103130b630b731b290383937b7b360591b60448201526064016101be565b505095945050505050565b6000856105905760405162461bcd60e51b81526004016101be90610d7d565b61049f198201610635576105e183838080601f01602080910402602001604051908101604052809392919081815260200183838082843760009201829052508b93509150642e20000000905061089e565b61062d5760405162461bcd60e51b815260206004820152601c60248201527f496e76616c696420656d707479206465706f736974732070726f6f660000000060448201526064016101be565b506001610764565b6105008214801561068b575061068b83838080601f0160208091040260200160405190810160405280939291908181526020018383808284376000920191909152508a925088915065017100000000905061089e565b6106d75760405162461bcd60e51b815260206004820152601d60248201527f496e76616c6964206465706f73697420707562206b65792070726f6f6600000060448201526064016101be565b60006106e7606060408587610d35565b6106f091610d5f565b905061071f604051806060016040528060408152602001610e96604091398261071889610828565b600461089e565b6107625760405162461bcd60e51b8152602060048201526014602482015273125b9d985b1a590819195c1bdcda5d081cdb1bdd60621b60448201526064016101be565b505b95945050505050565b8361078a5760405162461bcd60e51b81526004016101be90610d7d565b610120811480156107dc57506107dc82828080601f0160208091040260200160405190810160405280939291908181526020018383808284376000920191909152508892508791506102cc905061089e565b6101875760405162461bcd60e51b815260206004820152601f60248201527f496e76616c69642062616c616e636520636f6e7461696e65722070726f6f660060448201526064016101be565b603881811c60ff16602883811c61ff001691909117601884811c62ff00001691909117600885811c63ff000000169190911764ff000000009186901b919091161765ff00000000009185901b919091161766ff0000000000009184901b919091161760ff60381b9290911b919091161760c01b90565b6000836108ac868585610956565b1495945050505050565b6000806108c4600484610e03565b6108cf906040610e31565b6001600160401b0316905061094384821b60f881901c60e882901c61ff00161760d882901c62ff0000161760c882901c63ff000000161764ff0000000060b883901c161765ff000000000060a883901c161766ff000000000000609883901c161760ff60381b60889290921c919091161790565b6001600160401b03169150505b92915050565b600083516000141580156109755750602084516109739190610e5a565b155b610992576040516313717da960e21b815260040160405180910390fd5b604080516020808201909252848152905b85518111610a29576109b6600285610e5a565b6000036109e6578151600052808601516020526020826040600060026107d05a03fa6109e157600080fd5b610a0a565b8086015160005281516020526020826040600060026107d05a03fa610a0a57600080fd5b610a15600285610e6e565b9350610a22602082610e82565b90506109a3565b5051949350505050565b80356001600160401b0381168114610a4a57600080fd5b919050565b60008083601f840112610a6157600080fd5b5081356001600160401b03811115610a7857600080fd5b602083019150836020828501011115610a9057600080fd5b9250929050565b60008060008060008060008060c0898b031215610ab357600080fd5b88359750610ac360208a01610a33565b965060408901359550610ad860608a01610a33565b945060808901356001600160401b03811115610af357600080fd5b610aff8b828c01610a4f565b90955093505060a08901356001600160401b03811115610b1e57600080fd5b610b2a8b828c01610a4f565b999c989b5096995094979396929594505050565b60008060008060008060a08789031215610b5757600080fd5b863595506020870135945060408701356001600160401b03811115610b7b57600080fd5b610b8789828a01610a4f565b9095509350610b9a905060608801610a33565b915060808701356001600160a01b0381168114610bb657600080fd5b809150509295509295509295565b600080600080600060808688031215610bdc57600080fd5b853594506020860135935060408601356001600160401b03811115610c0057600080fd5b610c0c88828901610a4f565b9094509250610c1f905060608701610a33565b90509295509295909350565b600080600080600060808688031215610c4357600080fd5b85359450610c5360208701610a33565b93506040860135925060608601356001600160401b03811115610c7557600080fd5b610c8188828901610a4f565b969995985093965092949392505050565b60008060008060608587031215610ca857600080fd5b843593506020850135925060408501356001600160401b03811115610ccc57600080fd5b610cd887828801610a4f565b95989497509550505050565b600080600080600060808688031215610cfc57600080fd5b85359450610d0c60208701610a33565b9350610d1a60408701610a33565b925060608601356001600160401b03811115610c7557600080fd5b60008085851115610d4557600080fd5b83861115610d5257600080fd5b5050820193919092039150565b8035602083101561095057600019602084900360031b1b1692915050565b602080825260129082015271125b9d985b1a5908189b1bd8dac81c9bdbdd60721b604082015260600190565b634e487b7160e01b600052601260045260246000fd5b634e487b7160e01b600052601160045260246000fd5b60006001600160401b03831680610dee57610dee610da9565b806001600160401b0384160491505092915050565b60006001600160401b03831680610e1c57610e1c610da9565b806001600160401b0384160691505092915050565b6001600160401b038181168382160290811690818114610e5357610e53610dbf565b5092915050565b600082610e6957610e69610da9565b500690565b600082610e7d57610e7d610da9565b500490565b8082018082111561095057610950610dbf56fe0000000000000000000000000000000000000000000000000000000000000000f5a5fd42d16a20302798ef6ed309979b43003d2320d9f0e8ea9831a92759fb4ba2646970667358221220888399eef435545ae9cf5db417c65c2f463dcb6426ebd5da9e4ae3f2f48d194d64736f6c634300081c0033",
  "libraries": {},
  "devdoc": {
    "author": "Origin Protocol Inc",
    "kind": "dev",
    "methods": {
      "verifyBalancesContainer(bytes32,bytes32,bytes)": {
        "params": {
          "balancesContainerProof": "The merkle proof for the balances container to the beacon block root. This is 9 witness hashes of 32 bytes each concatenated together starting from the leaf node.",
          "balancesContainerRoot": "The merkle root of the the balances container",
          "beaconBlockRoot": "The root of the beacon block"
        }
      },
      "verifyFirstPendingDeposit(bytes32,uint64,bytes32,bytes)": {
        "params": {
          "beaconBlockRoot": "The root of the beacon block",
          "firstPendingDepositProof": "The merkle proof to the beacon block root. Can be either: - 40 witness hashes for BeaconBlock.state.PendingDeposits[0].pubKey when the deposit queue is not empty. - 37 witness hashes for BeaconBlock.state.PendingDeposits[0] when the deposit queue is empty. The 32 byte witness hashes are concatenated together starting from the leaf node.",
          "pubKeyHash": "The hash of the validator public key for the first pending deposit. Use zero bytes if the deposit queue is empty.",
          "slot": "The beacon chain slot of the first deposit in the beacon chain's deposit queue. Can be anything if the deposit queue is empty, but zero would be a good choice."
        },
        "returns": {
          "isEmptyDepositQueue": "True if the deposit queue is empty, false otherwise"
        }
      },
      "verifyValidator(bytes32,bytes32,bytes,uint64,address)": {
        "params": {
          "beaconBlockRoot": "The root of the beacon block",
          "proof": "The merkle proof for the validator public key to the beacon block root. This is 53 witness hashes of 32 bytes each concatenated together starting from the leaf node.",
          "pubKeyHash": "Hash of validator's public key using the Beacon Chain's format",
          "validatorIndex": "The validator index",
          "withdrawalAddress": "The withdrawal address used in the validator's withdrawal credentials"
        }
      },
      "verifyValidatorBalance(bytes32,bytes32,bytes,uint64)": {
        "params": {
          "balanceProof": "The merkle proof for the validator balance to the Balances container root. This is 39 witness hashes of 32 bytes each concatenated together starting from the leaf node.",
          "balancesContainerRoot": "The merkle root of the Balances container.",
          "validatorBalanceLeaf": "The leaf node containing the validator balance with three other balances.",
          "validatorIndex": "The validator index to verify the balance for"
        },
        "returns": {
          "validatorBalanceGwei": "The balance in Gwei of the validator at the given index"
        }
      },
      "verifyValidatorWithdrawable(bytes32,uint64,bytes32,uint64,bytes,bytes)": {
        "params": {
          "beaconBlockRoot": "The root of the beacon block",
          "validatorIndex": "The validator index to verify the withdrawable epoch for.",
          "validatorPubKeyProof": "The merkle proof for the validator public key in a sub tree of height two. This is 2 witness hashes of 32 bytes each concatenated together starting from the leaf node.",
          "withdrawableEpoch": "The withdrawable epoch to verify in big endian uint64 format",
          "withdrawableEpochProof": "The merkle proof for the validator's withdrawable epoch to the beacon block root. This is 53 witness hashes of 32 bytes each concatenated together starting from the leaf node."
        }
      }
    },
    "title": "Verifies merkle proofs of beacon chain data.",
    "version": 1
  },
  "userdoc": {
    "kind": "user",
    "methods": {
      "verifyBalancesContainer(bytes32,bytes32,bytes)": {
        "notice": "Verifies the balances container to the beacon block root BeaconBlock.state.balances"
      },
      "verifyFirstPendingDeposit(bytes32,uint64,bytes32,bytes)": {
        "notice": "If the deposit queue is not empty, verify the pubKey and slot of the first pending deposit to the beacon block root. BeaconBlock.state.PendingDeposits[0].pubKey If the deposit queue is empty, verify the root of the first pending deposit is empty BeaconBlock.state.PendingDeposits[0]"
      },
      "verifyValidator(bytes32,bytes32,bytes,uint64,address)": {
        "notice": "Verifies the validator index is for the given validator public key. Also verify the validator's withdrawal credential points to the withdrawal address. BeaconBlock.state.validators[validatorIndex].pubkey"
      },
      "verifyValidatorBalance(bytes32,bytes32,bytes,uint64)": {
        "notice": "Verifies the validator balance to the root of the Balances container."
      },
      "verifyValidatorWithdrawable(bytes32,uint64,bytes32,uint64,bytes,bytes)": {
        "notice": "Verifies a validator's withdrawable epoch to the beacon block root for a given validator index. Also verifies the validator's public key for the given validator index. BeaconBlock.state.validators[validatorIndex].withdrawableEpoch"
      }
    },
    "version": 1
  },
  "storageLayout": {
    "storage": [],
    "types": null
  }
}