{
  "address": "0xe5c6dF0cACc50f8d48A5B290281d115C15Efc286",
  "abi": [
    {
      "inputs": [],
      "name": "InvalidProofLength",
      "type": "error"
    },
    {
      "inputs": [
        {
          "internalType": "bytes32",
          "name": "beaconBlockRoot",
          "type": "bytes32"
        },
        {
          "internalType": "bytes32",
          "name": "balancesContainerRoot",
          "type": "bytes32"
        },
        {
          "internalType": "bytes",
          "name": "balancesContainerProof",
          "type": "bytes"
        }
      ],
      "name": "verifyBalancesContainer",
      "outputs": [],
      "stateMutability": "view",
      "type": "function"
    },
    {
      "inputs": [
        {
          "internalType": "bytes32",
          "name": "beaconBlockRoot",
          "type": "bytes32"
        },
        {
          "internalType": "uint64",
          "name": "slot",
          "type": "uint64"
        },
        {
          "internalType": "bytes32",
          "name": "pubKeyHash",
          "type": "bytes32"
        },
        {
          "internalType": "bytes",
          "name": "firstPendingDepositPubKeyProof",
          "type": "bytes"
        }
      ],
      "name": "verifyFirstPendingDeposit",
      "outputs": [
        {
          "internalType": "bool",
          "name": "isEmptyDepositQueue",
          "type": "bool"
        }
      ],
      "stateMutability": "view",
      "type": "function"
    },
    {
      "inputs": [
        {
          "internalType": "bytes32",
          "name": "beaconBlockRoot",
          "type": "bytes32"
        },
        {
          "internalType": "uint64",
          "name": "slot",
          "type": "uint64"
        },
        {
          "internalType": "bytes",
          "name": "firstPendingDepositSlotProof",
          "type": "bytes"
        }
      ],
      "name": "verifyFirstPendingDeposit",
      "outputs": [
        {
          "internalType": "bool",
          "name": "isEmptyDepositQueue",
          "type": "bool"
        }
      ],
      "stateMutability": "view",
      "type": "function"
    },
    {
      "inputs": [
        {
          "internalType": "bytes32",
          "name": "beaconBlockRoot",
          "type": "bytes32"
        },
        {
          "internalType": "bytes32",
          "name": "pubKeyHash",
          "type": "bytes32"
        },
        {
          "internalType": "bytes",
          "name": "proof",
          "type": "bytes"
        },
        {
          "internalType": "uint40",
          "name": "validatorIndex",
          "type": "uint40"
        },
        {
          "internalType": "address",
          "name": "withdrawalAddress",
          "type": "address"
        }
      ],
      "name": "verifyValidator",
      "outputs": [],
      "stateMutability": "view",
      "type": "function"
    },
    {
      "inputs": [
        {
          "internalType": "bytes32",
          "name": "balancesContainerRoot",
          "type": "bytes32"
        },
        {
          "internalType": "bytes32",
          "name": "validatorBalanceLeaf",
          "type": "bytes32"
        },
        {
          "internalType": "bytes",
          "name": "balanceProof",
          "type": "bytes"
        },
        {
          "internalType": "uint40",
          "name": "validatorIndex",
          "type": "uint40"
        }
      ],
      "name": "verifyValidatorBalance",
      "outputs": [
        {
          "internalType": "uint256",
          "name": "validatorBalanceGwei",
          "type": "uint256"
        }
      ],
      "stateMutability": "view",
      "type": "function"
    },
    {
      "inputs": [
        {
          "internalType": "bytes32",
          "name": "beaconBlockRoot",
          "type": "bytes32"
        },
        {
          "internalType": "uint40",
          "name": "validatorIndex",
          "type": "uint40"
        },
        {
          "internalType": "uint64",
          "name": "withdrawableEpoch",
          "type": "uint64"
        },
        {
          "internalType": "bytes",
          "name": "withdrawableEpochProof",
          "type": "bytes"
        }
      ],
      "name": "verifyValidatorWithdrawable",
      "outputs": [],
      "stateMutability": "view",
      "type": "function"
    },
    {
      "inputs": [
        {
          "internalType": "bytes32",
          "name": "beaconBlockRoot",
          "type": "bytes32"
        },
        {
          "internalType": "uint40",
          "name": "validatorIndex",
          "type": "uint40"
        },
        {
          "internalType": "bytes32",
          "name": "pubKeyHash",
          "type": "bytes32"
        },
        {
          "internalType": "uint64",
          "name": "withdrawableEpoch",
          "type": "uint64"
        },
        {
          "internalType": "bytes",
          "name": "withdrawableEpochProof",
          "type": "bytes"
        },
        {
          "internalType": "bytes",
          "name": "validatorPubKeyProof",
          "type": "bytes"
        }
      ],
      "name": "verifyValidatorWithdrawable",
      "outputs": [],
      "stateMutability": "view",
      "type": "function"
    }
  ],
  "transactionHash": "0xee39d3831220d3645326919c0a244511aa4060a91ea8897ff6257fe298199fdb",
  "args": [],
  "numDeployments": 10,
  "solcInputHash": "a5de2bf4884568e79cc9a8215a939c59",
  "bytecode": "0x6080604052348015600f57600080fd5b5061113e8061001f6000396000f3fe608060405234801561001057600080fd5b506004361061007d5760003560e01c8063afd62ef01161005b578063afd62ef0146100d2578063b3421d0f146100e5578063d98a5564146100f8578063f34ad34c1461010b57600080fd5b8063334a88fb146100825780637383a9fc1461009757806391ad640d146100bf575b600080fd5b610095610090366004610c8b565b61012c565b005b6100aa6100a5366004610cfa565b610140565b60405190151581526020015b60405180910390f35b6100956100cd366004610d45565b610159565b6100956100e0366004610d98565b61016b565b6100956100f3366004610e1f565b610181565b6100aa610106366004610ec8565b6101c0565b61011e610119366004610f0a565b6101d7565b6040519081526020016100b6565b61013985858585856101e6565b5050505050565b600061014f86868686866102c7565b9695505050505050565b610165848484846104c2565b50505050565b61017986868686868661057d565b505050505050565b61018e88888787876101e6565b600061019e606060408688610f72565b6101a791610f9c565b90506101b5818885856106eb565b505050505050505050565b60006101ce8585858561077f565b95945050505050565b600061014f86868686866108f5565b8461020c5760405162461bcd60e51b815260040161020390610fba565b60405180910390fd5b600764ffffffffff851666059600000000001760031b176106a08214801561027b575061027b83838080601f0160208091040260200160405190810160405280939291908181526020018383808284376000920191909152508a92506102759150889050610a06565b84610a7c565b6101795760405162461bcd60e51b815260206004820152601a60248201527f496e76616c696420776974686472617761626c652070726f6f660000000000006044820152606401610203565b6000856102e65760405162461bcd60e51b815260040161020390610fba565b61049f19820161038b5761033783838080601f01602080910402602001604051908101604052809392919081815260200183838082843760009201829052508b93509150642e200000009050610a7c565b6103835760405162461bcd60e51b815260206004820152601c60248201527f496e76616c696420656d707479206465706f736974732070726f6f66000000006044820152606401610203565b5060016101ce565b610500821480156103e157506103e183838080601f0160208091040260200160405190810160405280939291908181526020018383808284376000920191909152508a9250889150650171000000009050610a7c565b61042d5760405162461bcd60e51b815260206004820152601d60248201527f496e76616c6964206465706f73697420707562206b65792070726f6f660000006044820152606401610203565b600061043d606060408587610f72565b61044691610f9c565b90506104756040518060600160405280604081526020016110c9604091398261046e89610a06565b6004610a7c565b6104b85760405162461bcd60e51b8152602060048201526014602482015273125b9d985b1a590819195c1bdcda5d081cdb1bdd60621b6044820152606401610203565b5095945050505050565b836104df5760405162461bcd60e51b815260040161020390610fba565b61012081148015610531575061053182828080601f0160208091040260200160405190810160405280939291908181526020018383808284376000920191909152508892508791506102cc9050610a7c565b6101655760405162461bcd60e51b815260206004820152601f60248201527f496e76616c69642062616c616e636520636f6e7461696e65722070726f6f66006044820152606401610203565b8561059a5760405162461bcd60e51b815260040161020390610fba565b64ffffffffff821666059600000000001760031b60006020868237506020600081812060408051600160f91b818601526021810193909352606086901b6bffffffffffffffffffffffff1916602c84015280518084038501815292810190528151919092012080821461064f5760405162461bcd60e51b815260206004820152601760248201527f496e76616c6964207769746864726177616c20637265640000000000000000006044820152606401610203565b6106a08614801561069f575061069f87878080601f0160208091040260200160405190810160405280939291908181526020018383808284376000920191909152508d92508c9150879050610a7c565b6101b55760405162461bcd60e51b815260206004820152601760248201527f496e76616c69642076616c696461746f722070726f6f660000000000000000006044820152606401610203565b60408114801561073b575061073b82828080601f01602080910402602001604051908101604052809392919081815260200183838082843760009201919091525088925087915060049050610a7c565b6101655760405162461bcd60e51b815260206004820152601560248201527424b73b30b634b210383ab11035b2bc90383937b7b360591b6044820152606401610203565b60008461079e5760405162461bcd60e51b815260040161020390610fba565b61049f198201610843576107ef83838080601f01602080910402602001604051908101604052809392919081815260200183838082843760009201829052508a93509150642e200000009050610a7c565b61083b5760405162461bcd60e51b815260206004820152601c60248201527f496e76616c696420656d707479206465706f736974732070726f6f66000000006044820152606401610203565b5060016108ed565b610500821480156108a157506108a183838080601f0160208091040260200160405190810160405280939291908181526020018383808284376000920191909152508992506108959150889050610a06565b65017100000004610a7c565b6108ed5760405162461bcd60e51b815260206004820152601a60248201527f496e76616c6964206465706f73697420736c6f742070726f6f660000000000006044820152606401610203565b949350505050565b60008561093d5760405162461bcd60e51b8152602060048201526016602482015275125b9d985b1a590818dbdb9d185a5b995c881c9bdbdd60521b6044820152606401610203565b600061094a600484611012565b64ffffffffff16905064800000000081176109658785610a94565b92506104e0851480156109b757506109b786868080601f0160208091040260200160405190810160405280939291908181526020018383808284376000920191909152508c92508b9150859050610a7c565b6109fb5760405162461bcd60e51b815260206004820152601560248201527424b73b30b634b2103130b630b731b290383937b7b360591b6044820152606401610203565b505095945050505050565b603881811c60ff16602883811c61ff001691909117601884811c62ff00001691909117600885811c63ff000000169190911764ff000000009186901b919091161765ff00000000009185901b919091161766ff0000000000009184901b919091161760ff60381b9290911b919091161760c01b90565b600083610a8a868585610b33565b1495945050505050565b600080610aa260048461103c565b610aad906040611066565b64ffffffffff169050610b1f84821b60f881901c60e882901c61ff00161760d882901c62ff0000161760c882901c63ff000000161764ff0000000060b883901c161765ff000000000060a883901c161766ff000000000000609883901c161760ff60381b60889290921c919091161790565b67ffffffffffffffff169150505b92915050565b60008351600014158015610b52575060208451610b50919061108d565b155b610b6f576040516313717da960e21b815260040160405180910390fd5b604080516020808201909252848152905b85518111610c0657610b9360028561108d565b600003610bc3578151600052808601516020526020826040600060026107d05a03fa610bbe57600080fd5b610be7565b8086015160005281516020526020826040600060026107d05a03fa610be757600080fd5b610bf26002856110a1565b9350610bff6020826110b5565b9050610b80565b5051949350505050565b803564ffffffffff81168114610c2557600080fd5b919050565b803567ffffffffffffffff81168114610c2557600080fd5b60008083601f840112610c5457600080fd5b50813567ffffffffffffffff811115610c6c57600080fd5b602083019150836020828501011115610c8457600080fd5b9250929050565b600080600080600060808688031215610ca357600080fd5b85359450610cb360208701610c10565b9350610cc160408701610c2a565b9250606086013567ffffffffffffffff811115610cdd57600080fd5b610ce988828901610c42565b969995985093965092949392505050565b600080600080600060808688031215610d1257600080fd5b85359450610d2260208701610c2a565b935060408601359250606086013567ffffffffffffffff811115610cdd57600080fd5b60008060008060608587031215610d5b57600080fd5b8435935060208501359250604085013567ffffffffffffffff811115610d8057600080fd5b610d8c87828801610c42565b95989497509550505050565b60008060008060008060a08789031215610db157600080fd5b8635955060208701359450604087013567ffffffffffffffff811115610dd657600080fd5b610de289828a01610c42565b9095509350610df5905060608801610c10565b915060808701356001600160a01b0381168114610e1157600080fd5b809150509295509295509295565b60008060008060008060008060c0898b031215610e3b57600080fd5b88359750610e4b60208a01610c10565b965060408901359550610e6060608a01610c2a565b9450608089013567ffffffffffffffff811115610e7c57600080fd5b610e888b828c01610c42565b90955093505060a089013567ffffffffffffffff811115610ea857600080fd5b610eb48b828c01610c42565b999c989b5096995094979396929594505050565b60008060008060608587031215610ede57600080fd5b84359350610eee60208601610c2a565b9250604085013567ffffffffffffffff811115610d8057600080fd5b600080600080600060808688031215610f2257600080fd5b8535945060208601359350604086013567ffffffffffffffff811115610f4757600080fd5b610f5388828901610c42565b9094509250610f66905060608701610c10565b90509295509295909350565b60008085851115610f8257600080fd5b83861115610f8f57600080fd5b5050820193919092039150565b80356020831015610b2d57600019602084900360031b1b1692915050565b602080825260129082015271125b9d985b1a5908189b1bd8dac81c9bdbdd60721b604082015260600190565b634e487b7160e01b600052601260045260246000fd5b634e487b7160e01b600052601160045260246000fd5b600064ffffffffff83168061102957611029610fe6565b8064ffffffffff84160491505092915050565b600064ffffffffff83168061105357611053610fe6565b8064ffffffffff84160691505092915050565b64ffffffffff818116838216029081169081811461108657611086610ffc565b5092915050565b60008261109c5761109c610fe6565b500690565b6000826110b0576110b0610fe6565b500490565b80820180821115610b2d57610b2d610ffc56fe0000000000000000000000000000000000000000000000000000000000000000f5a5fd42d16a20302798ef6ed309979b43003d2320d9f0e8ea9831a92759fb4ba26469706673582212201c320ff470316742b93e642614a3b475a450d9f7929a2122bc7fd7b58e48c4ce64736f6c634300081c0033",
  "libraries": {},
  "devdoc": {
    "author": "Origin Protocol Inc",
    "kind": "dev",
    "methods": {
      "verifyBalancesContainer(bytes32,bytes32,bytes)": {
        "params": {
          "balancesContainerProof": "The merkle proof for the balances container to the beacon block root. This is 9 witness hashes of 32 bytes each concatenated together starting from the leaf node.",
          "balancesContainerRoot": "The merkle root of the the balances container",
          "beaconBlockRoot": "The root of the beacon block"
        }
      },
      "verifyFirstPendingDeposit(bytes32,uint64,bytes)": {
        "params": {
          "beaconBlockRoot": "The root of the beacon block.",
          "firstPendingDepositSlotProof": "The merkle proof to the beacon block root. Can be either: - 40 witness hashes for BeaconBlock.state.PendingDeposits[0].slot when the deposit queue is not empty. - 37 witness hashes for BeaconBlock.state.PendingDeposits[0] when the deposit queue is empty. The 32 byte witness hashes are concatenated together starting from the leaf node.",
          "slot": "The beacon chain slot of the first deposit in the beacon chain's deposit queue. Can be anything if the deposit queue is empty."
        },
        "returns": {
          "isEmptyDepositQueue": "True if the deposit queue is empty, false otherwise."
        }
      },
      "verifyFirstPendingDeposit(bytes32,uint64,bytes32,bytes)": {
        "params": {
          "beaconBlockRoot": "The root of the beacon block.",
          "firstPendingDepositPubKeyProof": "The merkle proof to the beacon block root. Can be either: - 40 witness hashes for BeaconBlock.state.PendingDeposits[0].pubKey when the deposit queue is not empty. - 37 witness hashes for BeaconBlock.state.PendingDeposits[0] when the deposit queue is empty. The 32 byte witness hashes are concatenated together starting from the leaf node.",
          "pubKeyHash": "The hash of the validator public key for the first pending deposit. Use zero bytes if the deposit queue is empty.",
          "slot": "The beacon chain slot of the first deposit in the beacon chain's deposit queue. Can be anything if the deposit queue is empty."
        },
        "returns": {
          "isEmptyDepositQueue": "True if the deposit queue is empty, false otherwise."
        }
      },
      "verifyValidator(bytes32,bytes32,bytes,uint40,address)": {
        "params": {
          "beaconBlockRoot": "The root of the beacon block",
          "proof": "The merkle proof for the validator public key to the beacon block root. This is 53 witness hashes of 32 bytes each concatenated together starting from the leaf node.",
          "pubKeyHash": "Hash of validator's public key using the Beacon Chain's format",
          "validatorIndex": "The validator index",
          "withdrawalAddress": "The withdrawal address used in the validator's withdrawal credentials"
        }
      },
      "verifyValidatorBalance(bytes32,bytes32,bytes,uint40)": {
        "params": {
          "balanceProof": "The merkle proof for the validator balance to the Balances container root. This is 39 witness hashes of 32 bytes each concatenated together starting from the leaf node.",
          "balancesContainerRoot": "The merkle root of the Balances container.",
          "validatorBalanceLeaf": "The leaf node containing the validator balance with three other balances.",
          "validatorIndex": "The validator index to verify the balance for"
        },
        "returns": {
          "validatorBalanceGwei": "The balance in Gwei of the validator at the given index"
        }
      },
      "verifyValidatorWithdrawable(bytes32,uint40,bytes32,uint64,bytes,bytes)": {
        "params": {
          "beaconBlockRoot": "The root of the beacon block",
          "validatorIndex": "The validator index to verify the withdrawable epoch for.",
          "validatorPubKeyProof": "The merkle proof for the validator public key in a sub tree of height two. This is 2 witness hashes of 32 bytes each concatenated together starting from the leaf node.",
          "withdrawableEpoch": "The withdrawable epoch to verify in big endian uint64 format",
          "withdrawableEpochProof": "The merkle proof for the validator's withdrawable epoch to the beacon block root. This is 53 witness hashes of 32 bytes each concatenated together starting from the leaf node."
        }
      }
    },
    "title": "Verifies merkle proofs of beacon chain data.",
    "version": 1
  },
  "userdoc": {
    "kind": "user",
    "methods": {
      "verifyBalancesContainer(bytes32,bytes32,bytes)": {
        "notice": "Verifies the balances container to the beacon block root BeaconBlock.state.balances"
      },
      "verifyFirstPendingDeposit(bytes32,uint64,bytes)": {
        "notice": "If the deposit queue is not empty, verify the slot of the first pending deposit to the beacon block root. BeaconBlock.state.pendingDeposits[0].slot If the deposit queue is empty, verify the root of the first pending deposit is empty BeaconBlock.state.PendingDeposits[0]"
      },
      "verifyFirstPendingDeposit(bytes32,uint64,bytes32,bytes)": {
        "notice": "If the deposit queue is not empty, verify the pubKey and slot of the first pending deposit to the beacon block root. BeaconBlock.state.PendingDeposits[0].pubKey If the deposit queue is empty, verify the root of the first pending deposit is empty BeaconBlock.state.PendingDeposits[0]"
      },
      "verifyValidator(bytes32,bytes32,bytes,uint40,address)": {
        "notice": "Verifies the validator index is for the given validator public key. Also verify the validator's withdrawal credential points to the withdrawal address. BeaconBlock.state.validators[validatorIndex].pubkey"
      },
      "verifyValidatorBalance(bytes32,bytes32,bytes,uint40)": {
        "notice": "Verifies the validator balance to the root of the Balances container."
      },
      "verifyValidatorWithdrawable(bytes32,uint40,bytes32,uint64,bytes,bytes)": {
        "notice": "Verifies a validator's withdrawable epoch to the beacon block root for a given validator index. Also verifies the validator's public key for the given validator index. BeaconBlock.state.validators[validatorIndex].withdrawableEpoch"
      }
    },
    "version": 1
  },
  "storageLayout": {
    "storage": [],
    "types": null
  }
}