{
  "address": "0x8d62350d6DfC8A928bBF5efD2e44c66034Afa7C6",
  "abi": [
    {
      "inputs": [],
      "name": "InvalidProofLength",
      "type": "error"
    },
    {
      "inputs": [
        {
          "internalType": "bytes32",
          "name": "beaconBlockRoot",
          "type": "bytes32"
        },
        {
          "internalType": "bytes32",
          "name": "balancesContainerLeaf",
          "type": "bytes32"
        },
        {
          "internalType": "bytes",
          "name": "balancesContainerProof",
          "type": "bytes"
        }
      ],
      "name": "verifyBalancesContainer",
      "outputs": [],
      "stateMutability": "view",
      "type": "function"
    },
    {
      "inputs": [
        {
          "internalType": "bytes32",
          "name": "beaconBlockRoot",
          "type": "bytes32"
        },
        {
          "internalType": "uint256",
          "name": "blockNumber",
          "type": "uint256"
        },
        {
          "internalType": "bytes",
          "name": "blockNumberProof",
          "type": "bytes"
        }
      ],
      "name": "verifyBlockNumber",
      "outputs": [],
      "stateMutability": "view",
      "type": "function"
    },
    {
      "inputs": [
        {
          "internalType": "bytes32",
          "name": "beaconBlockRoot",
          "type": "bytes32"
        },
        {
          "internalType": "uint64",
          "name": "slot",
          "type": "uint64"
        },
        {
          "internalType": "bytes",
          "name": "firstPendingDepositSlotProof",
          "type": "bytes"
        }
      ],
      "name": "verifyFirstPendingDepositSlot",
      "outputs": [],
      "stateMutability": "view",
      "type": "function"
    },
    {
      "inputs": [
        {
          "internalType": "bytes32",
          "name": "beaconBlockRoot",
          "type": "bytes32"
        },
        {
          "internalType": "uint256",
          "name": "slot",
          "type": "uint256"
        },
        {
          "internalType": "bytes",
          "name": "slotProof",
          "type": "bytes"
        }
      ],
      "name": "verifySlot",
      "outputs": [],
      "stateMutability": "view",
      "type": "function"
    },
    {
      "inputs": [
        {
          "internalType": "bytes32",
          "name": "root",
          "type": "bytes32"
        },
        {
          "internalType": "bytes32",
          "name": "validatorBalanceLeaf",
          "type": "bytes32"
        },
        {
          "internalType": "bytes",
          "name": "balanceProof",
          "type": "bytes"
        },
        {
          "internalType": "uint64",
          "name": "validatorIndex",
          "type": "uint64"
        },
        {
          "internalType": "enum BeaconProofsLib.BalanceProofLevel",
          "name": "level",
          "type": "uint8"
        }
      ],
      "name": "verifyValidatorBalance",
      "outputs": [
        {
          "internalType": "uint256",
          "name": "validatorBalanceGwei",
          "type": "uint256"
        }
      ],
      "stateMutability": "view",
      "type": "function"
    },
    {
      "inputs": [
        {
          "internalType": "bytes32",
          "name": "beaconBlockRoot",
          "type": "bytes32"
        },
        {
          "internalType": "bytes32",
          "name": "pubKeyHash",
          "type": "bytes32"
        },
        {
          "internalType": "bytes",
          "name": "validatorPubKeyProof",
          "type": "bytes"
        },
        {
          "internalType": "uint64",
          "name": "validatorIndex",
          "type": "uint64"
        }
      ],
      "name": "verifyValidatorPubkey",
      "outputs": [],
      "stateMutability": "view",
      "type": "function"
    }
  ],
  "transactionHash": "0xfa9aa78a21974000c7a4ec800b3ea1f05e3bdba560ca0bbcf45b130445786884",
  "args": [],
  "numDeployments": 1,
  "solcInputHash": "5518586a577179807341642341c56a4f",
  "bytecode": "0x6080604052348015600f57600080fd5b50610a908061001f6000396000f3fe608060405234801561001057600080fd5b50600436106100625760003560e01c80630f9edf4a1461006757806311aec4c11461007c578063431c729b146100a157806391ad640d146100b4578063b41cc546146100c7578063ec52a221146100da575b600080fd5b61007a6100753660046107f4565b6100ed565b005b61008f61008a36600461085b565b610101565b60405190815260200160405180910390f35b61007a6100af3660046108d9565b61011c565b61007a6100c2366004610932565b61012e565b61007a6100d5366004610932565b61013a565b61007a6100e8366004610932565b610146565b6100fa8585858585610152565b5050505050565b6000610111878787878787610205565b979650505050505050565b61012884848484610318565b50505050565b610128848484846103bb565b6101288484848461044d565b610128848484846104ec565b604080516020601f85018190048102820181019092528381526001600160401b03831666059600000000001760031b916101ac919086908690819084018382808284376000920191909152508a9250899150859050610585565b6101fd5760405162461bcd60e51b815260206004820152601e60248201527f496e76616c69642076616c696461746f72207075626b65792070726f6f66000060448201526064015b60405180910390fd5b505050505050565b600080610213600485610998565b905060008084600181111561022a5761022a6109c6565b0361024257506001600160401b038116648000000000175b6001846001811115610256576102566109c6565b0361027057506001600160401b0381166601660000000000175b61027a888661059d565b92506102c087878080601f0160208091040260200160405190810160405280939291908181526020018383808284376000920191909152508d92508c9150859050610585565b61030c5760405162461bcd60e51b815260206004820152601f60248201527f496e76616c69642062616c616e636520636f6e7461696e65722070726f6f660060448201526064016101f4565b50509695505050505050565b60006103238461063d565b905061036f83838080601f016020809104026020016040519081016040528093929190818152602001838380828437600092019190915250899250859150650171000000049050610585565b6100fa5760405162461bcd60e51b815260206004820152601d60248201527f496e76616c69642070656e64696e67206465706f7369742070726f6f6600000060448201526064016101f4565b61040182828080601f0160208091040260200160405190810160405280939291908181526020018383808284376000920191909152508892508791506102cc9050610585565b6101285760405162461bcd60e51b815260206004820152601f60248201527f496e76616c69642062616c616e636520636f6e7461696e65722070726f6f660060448201526064016101f4565b60006104588461063d565b90506104a083838080601f0160208091040260200160405190810160405280939291908181526020018383808284376000920191909152508992508591506119269050610585565b6100fa5760405162461bcd60e51b815260206004820152601a60248201527f496e76616c696420626c6f636b206e756d6265722070726f6f6600000000000060448201526064016101f4565b61053982828080601f016020809104026020016040519081016040528093929190818152602001838380828437600092019190915250889250610532915087905061063d565b6008610585565b6101285760405162461bcd60e51b815260206004820152601960248201527f496e76616c696420736c6f74206e756d6265722070726f6f660000000000000060448201526064016101f4565b6000836105938685856106b3565b1495945050505050565b6000806105ab6004846109dc565b6105b6906040610a0a565b6001600160401b0316905061062a84821b60f881901c60e882901c61ff00161760d882901c62ff0000161760c882901c63ff000000161764ff0000000060b883901c161765ff000000000060a883901c161766ff000000000000609883901c161760ff60381b60889290921c919091161790565b6001600160401b03169150505b92915050565b603881811c60ff16602883811c61ff001691909117601884811c62ff00001691909117600885811c63ff000000169190911764ff000000009186901b919091161765ff00000000009185901b919091161766ff0000000000009184901b919091161760ff60381b9290911b919091161760c01b90565b600083516000141580156106d25750602084516106d09190610a33565b155b6106ef576040516313717da960e21b815260040160405180910390fd5b604080516020808201909252848152905b8551811161078657610713600285610a33565b600003610749578151600052808601516020526020826040600060026107d05a03fa61073e57600080fd5b600284049350610774565b8086015160005281516020526020826040600060026107d05a03fa61076d57600080fd5b6002840493505b61077f602082610a47565b9050610700565b5051949350505050565b60008083601f8401126107a257600080fd5b5081356001600160401b038111156107b957600080fd5b6020830191508360208285010111156107d157600080fd5b9250929050565b80356001600160401b03811681146107ef57600080fd5b919050565b60008060008060006080868803121561080c57600080fd5b853594506020860135935060408601356001600160401b0381111561083057600080fd5b61083c88828901610790565b909450925061084f9050606087016107d8565b90509295509295909350565b60008060008060008060a0878903121561087457600080fd5b863595506020870135945060408701356001600160401b0381111561089857600080fd5b6108a489828a01610790565b90955093506108b79050606088016107d8565b91506080870135600281106108cb57600080fd5b809150509295509295509295565b600080600080606085870312156108ef57600080fd5b843593506108ff602086016107d8565b925060408501356001600160401b0381111561091a57600080fd5b61092687828801610790565b95989497509550505050565b6000806000806060858703121561094857600080fd5b843593506020850135925060408501356001600160401b0381111561091a57600080fd5b634e487b7160e01b600052601260045260246000fd5b634e487b7160e01b600052601160045260246000fd5b60006001600160401b038316806109b1576109b161096c565b806001600160401b0384160491505092915050565b634e487b7160e01b600052602160045260246000fd5b60006001600160401b038316806109f5576109f561096c565b806001600160401b0384160691505092915050565b6001600160401b038181168382160290811690818114610a2c57610a2c610982565b5092915050565b600082610a4257610a4261096c565b500690565b808201808211156106375761063761098256fea26469706673582212207cfecd175b978a9d274229a4b6d6261863c5fe7a55499a33466758445cef74ca64736f6c634300081c0033",
  "libraries": {},
  "devdoc": {
    "kind": "dev",
    "methods": {
      "verifyBalancesContainer(bytes32,bytes32,bytes)": {
        "params": {
          "balancesContainerLeaf": "The leaf node containing the balances container",
          "balancesContainerProof": "The merkle proof for the balances container to the beacon block root. This is the witness hashes concatenated together starting from the leaf node.",
          "beaconBlockRoot": "The root of the beacon block"
        }
      },
      "verifyBlockNumber(bytes32,uint256,bytes)": {
        "params": {
          "beaconBlockRoot": "The root of the beacon block",
          "blockNumber": "The execution layer block number to verify",
          "blockNumberProof": "The merkle proof for the block number against the beacon block This is the witness hashes concatenated together starting from the leaf node."
        }
      },
      "verifyFirstPendingDepositSlot(bytes32,uint64,bytes)": {
        "params": {
          "beaconBlockRoot": "The root of the beacon block",
          "firstPendingDepositSlotProof": "The merkle proof for the first pending deposit's slot against the beacon block root. This is the witness hashes concatenated together starting from the leaf node.",
          "slot": "The beacon chain slot to verify"
        }
      },
      "verifySlot(bytes32,uint256,bytes)": {
        "params": {
          "beaconBlockRoot": "The root of the beacon block",
          "slot": "The beacon chain slot to verify",
          "slotProof": "The merkle proof for the slot against the beacon block root. This is the witness hashes concatenated together starting from the leaf node."
        }
      },
      "verifyValidatorBalance(bytes32,bytes32,bytes,uint64,uint8)": {
        "params": {
          "balanceProof": "The merkle proof for the validator balance against the root. This is the witness hashes concatenated together starting from the leaf node.",
          "level": "The level of the balance proof, either Container or BeaconBlock",
          "root": "The root of the Balances container or the beacon block root",
          "validatorBalanceLeaf": "The leaf node containing the validator balance with three other balances",
          "validatorIndex": "The validator index to verify the balance for"
        },
        "returns": {
          "validatorBalanceGwei": "The balance in Gwei of the validator at the given index"
        }
      },
      "verifyValidatorPubkey(bytes32,bytes32,bytes,uint64)": {
        "params": {
          "beaconBlockRoot": "The root of the beacon block",
          "pubKeyHash": "The beacon chain hash of the validator public key",
          "validatorIndex": "The validator index",
          "validatorPubKeyProof": "The merkle proof for the validator public key to the beacon block root. This is the witness hashes concatenated together starting from the leaf node."
        }
      }
    },
    "version": 1
  },
  "userdoc": {
    "kind": "user",
    "methods": {
      "verifyBalancesContainer(bytes32,bytes32,bytes)": {
        "notice": "Verifies the balances container against the beacon block root BeaconBlock.state.balances"
      },
      "verifyBlockNumber(bytes32,uint256,bytes)": {
        "notice": "Verifies the block number to the the beacon block root BeaconBlock.body.executionPayload.blockNumber"
      },
      "verifyFirstPendingDepositSlot(bytes32,uint64,bytes)": {
        "notice": "Verifies the slot of the first pending deposit against the beacon block root BeaconBlock.state.PendingDeposits[0].slot"
      },
      "verifySlot(bytes32,uint256,bytes)": {
        "notice": "Verifies the slot number against the beacon block root. BeaconBlock.slot"
      },
      "verifyValidatorBalance(bytes32,bytes32,bytes,uint64,uint8)": {
        "notice": "Verifies the validator balance against the root of the Balances container or the beacon block root"
      },
      "verifyValidatorPubkey(bytes32,bytes32,bytes,uint64)": {
        "notice": "Verifies the validator public key against the beacon block root BeaconBlock.state.validators[validatorIndex].pubkey"
      }
    },
    "version": 1
  },
  "storageLayout": {
    "storage": [],
    "types": null
  }
}