{
  "address": "0x04b2D730106B9cA91aA011984eD2F7d62D00cF9f",
  "abi": [
    {
      "inputs": [],
      "name": "InvalidProofLength",
      "type": "error"
    },
    {
      "inputs": [
        {
          "internalType": "bytes32",
          "name": "pubKeyHash",
          "type": "bytes32"
        },
        {
          "internalType": "bytes",
          "name": "withdrawalCredentials",
          "type": "bytes"
        },
        {
          "internalType": "uint64",
          "name": "amountGwei",
          "type": "uint64"
        },
        {
          "internalType": "bytes",
          "name": "signature",
          "type": "bytes"
        },
        {
          "internalType": "uint64",
          "name": "slot",
          "type": "uint64"
        }
      ],
      "name": "merkleizePendingDeposit",
      "outputs": [
        {
          "internalType": "bytes32",
          "name": "",
          "type": "bytes32"
        }
      ],
      "stateMutability": "pure",
      "type": "function"
    },
    {
      "inputs": [
        {
          "internalType": "bytes",
          "name": "signature",
          "type": "bytes"
        }
      ],
      "name": "merkleizeSignature",
      "outputs": [
        {
          "internalType": "bytes32",
          "name": "root",
          "type": "bytes32"
        }
      ],
      "stateMutability": "pure",
      "type": "function"
    },
    {
      "inputs": [
        {
          "internalType": "bytes32",
          "name": "beaconBlockRoot",
          "type": "bytes32"
        },
        {
          "internalType": "bytes32",
          "name": "balancesContainerRoot",
          "type": "bytes32"
        },
        {
          "internalType": "bytes",
          "name": "balancesContainerProof",
          "type": "bytes"
        }
      ],
      "name": "verifyBalancesContainer",
      "outputs": [],
      "stateMutability": "view",
      "type": "function"
    },
    {
      "inputs": [
        {
          "internalType": "bytes32",
          "name": "beaconBlockRoot",
          "type": "bytes32"
        },
        {
          "internalType": "uint64",
          "name": "slot",
          "type": "uint64"
        },
        {
          "internalType": "bytes",
          "name": "firstPendingDepositSlotProof",
          "type": "bytes"
        }
      ],
      "name": "verifyFirstPendingDeposit",
      "outputs": [
        {
          "internalType": "bool",
          "name": "isEmptyDepositQueue",
          "type": "bool"
        }
      ],
      "stateMutability": "view",
      "type": "function"
    },
    {
      "inputs": [
        {
          "internalType": "bytes32",
          "name": "pendingDepositsContainerRoot",
          "type": "bytes32"
        },
        {
          "internalType": "bytes32",
          "name": "pendingDepositRoot",
          "type": "bytes32"
        },
        {
          "internalType": "bytes",
          "name": "proof",
          "type": "bytes"
        },
        {
          "internalType": "uint32",
          "name": "pendingDepositIndex",
          "type": "uint32"
        }
      ],
      "name": "verifyPendingDeposit",
      "outputs": [],
      "stateMutability": "view",
      "type": "function"
    },
    {
      "inputs": [
        {
          "internalType": "bytes32",
          "name": "beaconBlockRoot",
          "type": "bytes32"
        },
        {
          "internalType": "bytes32",
          "name": "pendingDepositsContainerRoot",
          "type": "bytes32"
        },
        {
          "internalType": "bytes",
          "name": "proof",
          "type": "bytes"
        }
      ],
      "name": "verifyPendingDepositsContainer",
      "outputs": [],
      "stateMutability": "view",
      "type": "function"
    },
    {
      "inputs": [
        {
          "internalType": "bytes32",
          "name": "beaconBlockRoot",
          "type": "bytes32"
        },
        {
          "internalType": "bytes32",
          "name": "pubKeyHash",
          "type": "bytes32"
        },
        {
          "internalType": "bytes",
          "name": "proof",
          "type": "bytes"
        },
        {
          "internalType": "uint40",
          "name": "validatorIndex",
          "type": "uint40"
        },
        {
          "internalType": "bytes32",
          "name": "withdrawalCredentials",
          "type": "bytes32"
        }
      ],
      "name": "verifyValidator",
      "outputs": [],
      "stateMutability": "view",
      "type": "function"
    },
    {
      "inputs": [
        {
          "internalType": "bytes32",
          "name": "balancesContainerRoot",
          "type": "bytes32"
        },
        {
          "internalType": "bytes32",
          "name": "validatorBalanceLeaf",
          "type": "bytes32"
        },
        {
          "internalType": "bytes",
          "name": "balanceProof",
          "type": "bytes"
        },
        {
          "internalType": "uint40",
          "name": "validatorIndex",
          "type": "uint40"
        }
      ],
      "name": "verifyValidatorBalance",
      "outputs": [
        {
          "internalType": "uint256",
          "name": "validatorBalanceGwei",
          "type": "uint256"
        }
      ],
      "stateMutability": "view",
      "type": "function"
    },
    {
      "inputs": [
        {
          "internalType": "bytes32",
          "name": "beaconBlockRoot",
          "type": "bytes32"
        },
        {
          "internalType": "uint40",
          "name": "validatorIndex",
          "type": "uint40"
        },
        {
          "internalType": "uint64",
          "name": "withdrawableEpoch",
          "type": "uint64"
        },
        {
          "internalType": "bytes",
          "name": "withdrawableEpochProof",
          "type": "bytes"
        }
      ],
      "name": "verifyValidatorWithdrawable",
      "outputs": [],
      "stateMutability": "view",
      "type": "function"
    }
  ],
  "transactionHash": "0xa14765ee4e19cc215fc0717a0541c928dbb25a6024a3a2bd91bd480bd0421c1b",
  "args": [],
  "numDeployments": 13,
  "solcInputHash": "7de90067c6ddbeeea4788e7c02ed9ce8",
  "bytecode": "0x6080604052348015600f57600080fd5b5061178c8061001f6000396000f3fe608060405234801561001057600080fd5b50600436106100935760003560e01c80638a050dd4116100665780638a050dd4146100f957806391ad640d1461010c578063afe768871461011f578063d98a556414610132578063f34ad34c1461015557600080fd5b8063258b83d8146100985780632b00e796146100be578063334a88fb146100d357806354ba95b2146100e6575b600080fd5b6100ab6100a6366004611112565b610168565b6040519081526020015b60405180910390f35b6100d16100cc366004611153565b61017d565b005b6100d16100e13660046111d6565b61018f565b6100d16100f4366004611244565b6101a3565b6100d16101073660046112b5565b6101b9565b6100d161011a366004611153565b6101c6565b6100ab61012d366004611328565b6101d2565b6101456101403660046113c7565b6101ef565b60405190151581526020016100b5565b6100ab610163366004611408565b610206565b6000610174838361021f565b90505b92915050565b61018984848484610365565b50505050565b61019c8585858585610420565b5050505050565b6101b18686868686866104f8565b505050505050565b61019c8585858585610638565b61018984848484610778565b60006101e388888888888888610833565b98975050505050505050565b60006101fd858585856109ab565b95945050505050565b60006102158686868686610b19565b9695505050505050565b60006060821461026a5760405162461bcd60e51b8152602060048201526011602482015270496e76616c6964207369676e617475726560781b60448201526064015b60405180910390fd5b60408051600480825260a082019092526000916020820160808036833701905050905061029b602060008587611485565b6102a4916114af565b816000815181106102b7576102b76114cd565b6020908102919091018101919091526102d4906040908587611485565b6102dd916114af565b816001815181106102f0576102f06114cd565b6020908102919091010152610309606060408587611485565b610312916114af565b81600281518110610325576103256114cd565b6020026020010181815250506000801b81600381518110610348576103486114cd565b60200260200101818152505061035d81610c2a565b949350505050565b836103825760405162461bcd60e51b8152600401610261906114e3565b610120811480156103d457506103d482828080601f0160208091040260200160405190810160405280939291908181526020018383808284376000920191909152508892508791506102e29050610ec3565b6101895760405162461bcd60e51b815260206004820152601f60248201527f496e76616c6964206465706f73697420636f6e7461696e65722070726f6f66006044820152606401610261565b8461043d5760405162461bcd60e51b8152600401610261906114e3565b600764ffffffffff851666059600000000001760031b176106a0821480156104ac57506104ac83838080601f0160208091040260200160405190810160405280939291908181526020018383808284376000920191909152508a92506104a69150889050610edb565b84610ec3565b6101b15760405162461bcd60e51b815260206004820152601a60248201527f496e76616c696420776974686472617761626c652070726f6f660000000000006044820152606401610261565b856105155760405162461bcd60e51b8152600401610261906114e3565b64ffffffffff821666059600000000001760031b60006105386020828789611485565b610541916114af565b90508281146105925760405162461bcd60e51b815260206004820152601760248201527f496e76616c6964207769746864726177616c20637265640000000000000000006044820152606401610261565b6106a0851480156105e257506105e286868080601f0160208091040260200160405190810160405280939291908181526020018383808284376000920191909152508c92508b9150869050610ec3565b61062e5760405162461bcd60e51b815260206004820152601760248201527f496e76616c69642076616c696461746f722070726f6f660000000000000000006044820152606401610261565b5050505050505050565b846106745760405162461bcd60e51b815260206004820152600c60248201526b125b9d985b1a59081c9bdbdd60a21b6044820152606401610261565b6106806001601c611525565b61068b90600261161f565b8163ffffffff16106106d75760405162461bcd60e51b8152602060048201526015602482015274092dcecc2d8d2c840c8cae0dee6d2e840d2dcc8caf605b1b6044820152606401610261565b63ffffffff811663100000001761038083148015610734575061073484848080601f0160208091040260200160405190810160405280939291908181526020018383808284376000920191909152508a9250899150859050610ec3565b6101b15760405162461bcd60e51b815260206004820152601560248201527424b73b30b634b2103232b837b9b4ba10383937b7b360591b6044820152606401610261565b836107955760405162461bcd60e51b8152600401610261906114e3565b610120811480156107e757506107e782828080601f0160208091040260200160405190810160405280939291908181526020018383808284376000920191909152508892508791506102cc9050610ec3565b6101895760405162461bcd60e51b815260206004820152601f60248201527f496e76616c69642062616c616e636520636f6e7461696e65722070726f6f66006044820152606401610261565b60408051600880825261012082019092526000918291906020820161010080368337019050509050888160008151811061086f5761086f6114cd565b60209081029190910181019190915261088b906000898b611485565b610894916114af565b816001815181106108a7576108a76114cd565b6020026020010181815250506108bc86610edb565b816002815181106108cf576108cf6114cd565b6020026020010181815250506108e5858561021f565b816003815181106108f8576108f86114cd565b60200260200101818152505061090d83610edb565b81600481518110610920576109206114cd565b6020026020010181815250506000801b81600581518110610943576109436114cd565b6020026020010181815250506000801b81600681518110610966576109666114cd565b6020026020010181815250506000801b81600781518110610989576109896114cd565b60200260200101818152505061099e81610c2a565b9998505050505050505050565b6000846109ca5760405162461bcd60e51b8152600401610261906114e3565b61049f198201610a6f57610a1b83838080601f01602080910402602001604051908101604052809392919081815260200183838082843760009201829052508a93509150642e200000009050610ec3565b610a675760405162461bcd60e51b815260206004820152601c60248201527f496e76616c696420656d707479206465706f736974732070726f6f66000000006044820152606401610261565b50600161035d565b61050082148015610acd5750610acd83838080601f016020809104026020016040519081016040528093929190818152602001838380828437600092019190915250899250610ac19150889050610edb565b65017100000004610ec3565b61035d5760405162461bcd60e51b815260206004820152601a60248201527f496e76616c6964206465706f73697420736c6f742070726f6f660000000000006044820152606401610261565b600085610b615760405162461bcd60e51b8152602060048201526016602482015275125b9d985b1a590818dbdb9d185a5b995c881c9bdbdd60521b6044820152606401610261565b6000610b6e600484611641565b64ffffffffff1690506480000000008117610b898785610f51565b92506104e085148015610bdb5750610bdb86868080601f0160208091040260200160405190810160405280939291908181526020018383808284376000920191909152508c92508b9150859050610ec3565b610c1f5760405162461bcd60e51b815260206004820152601560248201527424b73b30b634b2103130b630b731b290383937b7b360591b6044820152606401610261565b505095945050505050565b60008060028351610c3b919061166b565b90506000816001600160401b03811115610c5757610c5761146f565b604051908082528060200260200182016040528015610c80578160200160208202803683370190505b50905060005b82811015610d7d57600285610c9b838361167f565b81518110610cab57610cab6114cd565b602002602001015186836002610cc1919061167f565b610ccc906001611696565b81518110610cdc57610cdc6114cd565b6020026020010151604051602001610cfe929190918252602082015260400190565b60408051601f1981840301815290829052610d18916116a9565b602060405180830381855afa158015610d35573d6000803e3d6000fd5b5050506040513d601f19601f82011682018060405250810190610d5891906116d8565b828281518110610d6a57610d6a6114cd565b6020908102919091010152600101610c86565b50610d8960028361166b565b91505b8115610e9f5760005b82811015610e8c57600282610daa838361167f565b81518110610dba57610dba6114cd565b602002602001015183836002610dd0919061167f565b610ddb906001611696565b81518110610deb57610deb6114cd565b6020026020010151604051602001610e0d929190918252602082015260400190565b60408051601f1981840301815290829052610e27916116a9565b602060405180830381855afa158015610e44573d6000803e3d6000fd5b5050506040513d601f19601f82011682018060405250810190610e6791906116d8565b828281518110610e7957610e796114cd565b6020908102919091010152600101610d95565b50610e9860028361166b565b9150610d8c565b80600081518110610eb257610eb26114cd565b602002602001015192505050919050565b600083610ed1868585610fed565b1495945050505050565b603881811c60ff16602883811c61ff001691909117601884811c62ff00001691909117600885811c63ff000000169190911764ff000000009186901b919091161765ff00000000009185901b919091161766ff0000000000009184901b919091161760ff60381b9290911b919091161760c01b90565b600080610f5f6004846116f1565b610f6a90604061171b565b64ffffffffff169050610fdc84821b60f881901c60e882901c61ff00161760d882901c62ff0000161760c882901c63ff000000161764ff0000000060b883901c161765ff000000000060a883901c161766ff000000000000609883901c161760ff60381b60889290921c919091161790565b6001600160401b0316949350505050565b6000835160001415801561100c57506020845161100a9190611742565b155b611029576040516313717da960e21b815260040160405180910390fd5b604080516020808201909252848152905b855181116110c05761104d600285611742565b60000361107d578151600052808601516020526020826040600060026107d05a03fa61107857600080fd5b6110a1565b8086015160005281516020526020826040600060026107d05a03fa6110a157600080fd5b6110ac60028561166b565b93506110b9602082611696565b905061103a565b5051949350505050565b60008083601f8401126110dc57600080fd5b5081356001600160401b038111156110f357600080fd5b60208301915083602082850101111561110b57600080fd5b9250929050565b6000806020838503121561112557600080fd5b82356001600160401b0381111561113b57600080fd5b611147858286016110ca565b90969095509350505050565b6000806000806060858703121561116957600080fd5b843593506020850135925060408501356001600160401b0381111561118d57600080fd5b611199878288016110ca565b95989497509550505050565b803564ffffffffff811681146111ba57600080fd5b919050565b80356001600160401b03811681146111ba57600080fd5b6000806000806000608086880312156111ee57600080fd5b853594506111fe602087016111a5565b935061120c604087016111bf565b925060608601356001600160401b0381111561122757600080fd5b611233888289016110ca565b969995985093965092949392505050565b60008060008060008060a0878903121561125d57600080fd5b863595506020870135945060408701356001600160401b0381111561128157600080fd5b61128d89828a016110ca565b90955093506112a09050606088016111a5565b95989497509295919493608090920135925050565b6000806000806000608086880312156112cd57600080fd5b853594506020860135935060408601356001600160401b038111156112f157600080fd5b6112fd888289016110ca565b909450925050606086013563ffffffff8116811461131a57600080fd5b809150509295509295909350565b600080600080600080600060a0888a03121561134357600080fd5b8735965060208801356001600160401b0381111561136057600080fd5b61136c8a828b016110ca565b909750955061137f9050604089016111bf565b935060608801356001600160401b0381111561139a57600080fd5b6113a68a828b016110ca565b90945092506113b99050608089016111bf565b905092959891949750929550565b600080600080606085870312156113dd57600080fd5b843593506113ed602086016111bf565b925060408501356001600160401b0381111561118d57600080fd5b60008060008060006080868803121561142057600080fd5b853594506020860135935060408601356001600160401b0381111561144457600080fd5b611450888289016110ca565b90945092506114639050606087016111a5565b90509295509295909350565b634e487b7160e01b600052604160045260246000fd5b6000808585111561149557600080fd5b838611156114a257600080fd5b5050820193919092039150565b8035602083101561017757600019602084900360031b1b1692915050565b634e487b7160e01b600052603260045260246000fd5b602080825260129082015271125b9d985b1a5908189b1bd8dac81c9bdbdd60721b604082015260600190565b634e487b7160e01b600052601160045260246000fd5b818103818111156101775761017761150f565b6001815b6001841115611573578085048111156115575761155761150f565b600184161561156557908102905b60019390931c92800261153c565b935093915050565b60008261158a57506001610177565b8161159757506000610177565b81600181146115ad57600281146115b7576115d3565b6001915050610177565b60ff8411156115c8576115c861150f565b50506001821b610177565b5060208310610133831016604e8410600b84101617156115f6575081810a610177565b6116036000198484611538565b80600019048211156116175761161761150f565b029392505050565b6000610174838361157b565b634e487b7160e01b600052601260045260246000fd5b600064ffffffffff8316806116585761165861162b565b8064ffffffffff84160491505092915050565b60008261167a5761167a61162b565b500490565b80820281158282048414176101775761017761150f565b808201808211156101775761017761150f565b6000825160005b818110156116ca57602081860181015185830152016116b0565b506000920191825250919050565b6000602082840312156116ea57600080fd5b5051919050565b600064ffffffffff8316806117085761170861162b565b8064ffffffffff84160691505092915050565b64ffffffffff818116838216029081169081811461173b5761173b61150f565b5092915050565b6000826117515761175161162b565b50069056fea26469706673582212205e6c180b3544abbcda0a898d1a795e4ddbd861b7b533fbede356a76fa464c51064736f6c634300081c0033",
  "libraries": {},
  "devdoc": {
    "author": "Origin Protocol Inc",
    "kind": "dev",
    "methods": {
      "merkleizePendingDeposit(bytes32,bytes,uint64,bytes,uint64)": {
        "params": {
          "amountGwei": "The amount of the deposit in Gwei.",
          "pubKeyHash": "Hash of validator's public key using the Beacon Chain's format",
          "signature": "The 96 byte BLS signature.",
          "slot": "The beacon chain slot the deposit was made in.",
          "withdrawalCredentials": "The 32 byte withdrawal credentials."
        },
        "returns": {
          "_0": "root The merkle root of the pending deposit."
        }
      },
      "merkleizeSignature(bytes)": {
        "params": {
          "signature": "The 96 byte BLS signature."
        },
        "returns": {
          "root": "The merkle root of the signature."
        }
      },
      "verifyBalancesContainer(bytes32,bytes32,bytes)": {
        "params": {
          "balancesContainerProof": "The merkle proof for the balances container to the beacon block root. This is 9 witness hashes of 32 bytes each concatenated together starting from the leaf node.",
          "balancesContainerRoot": "The merkle root of the the balances container",
          "beaconBlockRoot": "The root of the beacon block"
        }
      },
      "verifyFirstPendingDeposit(bytes32,uint64,bytes)": {
        "params": {
          "beaconBlockRoot": "The root of the beacon block.",
          "firstPendingDepositSlotProof": "The merkle proof to the beacon block root. Can be either: - 40 witness hashes for BeaconBlock.state.PendingDeposits[0].slot when the deposit queue is not empty. - 37 witness hashes for BeaconBlock.state.PendingDeposits[0] when the deposit queue is empty. The 32 byte witness hashes are concatenated together starting from the leaf node.",
          "slot": "The beacon chain slot of the first deposit in the beacon chain's deposit queue. Can be anything if the deposit queue is empty."
        },
        "returns": {
          "isEmptyDepositQueue": "True if the deposit queue is empty, false otherwise."
        }
      },
      "verifyPendingDeposit(bytes32,bytes32,bytes,uint32)": {
        "params": {
          "pendingDepositIndex": "The pending deposit index in the Pending Deposits container",
          "pendingDepositRoot": "The leaf node containing the validator balance with three other balances.",
          "pendingDepositsContainerRoot": "The merkle root of the Pending Deposits container.",
          "proof": "The merkle proof for the pending deposit root to the Pending Deposits container root. This is 28 witness hashes of 32 bytes each concatenated together starting from the leaf node."
        }
      },
      "verifyPendingDepositsContainer(bytes32,bytes32,bytes)": {
        "params": {
          "beaconBlockRoot": "The root of the beacon block.",
          "pendingDepositsContainerRoot": "The merkle root of the the pending deposits container.",
          "proof": "The merkle proof for the pending deposits container to the beacon block root. This is 9 witness hashes of 32 bytes each concatenated together starting from the leaf node."
        }
      },
      "verifyValidator(bytes32,bytes32,bytes,uint40,bytes32)": {
        "params": {
          "beaconBlockRoot": "The root of the beacon block",
          "proof": "The merkle proof for the validator public key to the beacon block root. This is 53 witness hashes of 32 bytes each concatenated together starting from the leaf node.",
          "pubKeyHash": "Hash of validator's public key using the Beacon Chain's format",
          "validatorIndex": "The validator index",
          "withdrawalCredentials": "a value containing the validator type and withdrawal address."
        }
      },
      "verifyValidatorBalance(bytes32,bytes32,bytes,uint40)": {
        "params": {
          "balanceProof": "The merkle proof for the validator balance to the Balances container root. This is 39 witness hashes of 32 bytes each concatenated together starting from the leaf node.",
          "balancesContainerRoot": "The merkle root of the Balances container.",
          "validatorBalanceLeaf": "The leaf node containing the validator balance with three other balances.",
          "validatorIndex": "The validator index to verify the balance for"
        },
        "returns": {
          "validatorBalanceGwei": "The balance in Gwei of the validator at the given index"
        }
      }
    },
    "title": "Verifies merkle proofs of beacon chain data.",
    "version": 1
  },
  "userdoc": {
    "kind": "user",
    "methods": {
      "merkleizePendingDeposit(bytes32,bytes,uint64,bytes,uint64)": {
        "notice": "Merkleizes a beacon chain pending deposit."
      },
      "merkleizeSignature(bytes)": {
        "notice": "Merkleizes a BLS signature used for validator deposits."
      },
      "verifyBalancesContainer(bytes32,bytes32,bytes)": {
        "notice": "Verifies the balances container to the beacon block root BeaconBlock.state.balances"
      },
      "verifyFirstPendingDeposit(bytes32,uint64,bytes)": {
        "notice": "If the deposit queue is not empty, verify the slot of the first pending deposit to the beacon block root. BeaconBlock.state.pendingDeposits[0].slot If the deposit queue is empty, verify the root of the first pending deposit is empty BeaconBlock.state.PendingDeposits[0]"
      },
      "verifyPendingDeposit(bytes32,bytes32,bytes,uint32)": {
        "notice": "Verified a pending deposit to the root of the Pending Deposits container."
      },
      "verifyPendingDepositsContainer(bytes32,bytes32,bytes)": {
        "notice": "Verifies the pending deposits container to the beacon block root. BeaconBlock.state.pendingDeposits"
      },
      "verifyValidator(bytes32,bytes32,bytes,uint40,bytes32)": {
        "notice": "Verifies the validator index is for the given validator public key. Also verify the validator's withdrawal credential points to the withdrawal address. BeaconBlock.state.validators[validatorIndex].pubkey"
      },
      "verifyValidatorBalance(bytes32,bytes32,bytes,uint40)": {
        "notice": "Verifies the validator balance to the root of the Balances container."
      }
    },
    "version": 1
  },
  "storageLayout": {
    "storage": [],
    "types": null
  }
}