{
  "address": "0x50b5B40E7bec9703697184A6705CDbd32C1F15F8",
  "abi": [
    {
      "inputs": [],
      "name": "InvalidProofLength",
      "type": "error"
    },
    {
      "inputs": [
        {
          "internalType": "bytes32",
          "name": "beaconBlockRoot",
          "type": "bytes32"
        },
        {
          "internalType": "bytes32",
          "name": "balancesContainerRoot",
          "type": "bytes32"
        },
        {
          "internalType": "bytes",
          "name": "balancesContainerProof",
          "type": "bytes"
        }
      ],
      "name": "verifyBalancesContainer",
      "outputs": [],
      "stateMutability": "view",
      "type": "function"
    },
    {
      "inputs": [
        {
          "internalType": "bytes32",
          "name": "beaconBlockRoot",
          "type": "bytes32"
        },
        {
          "internalType": "uint64",
          "name": "slot",
          "type": "uint64"
        },
        {
          "internalType": "bytes",
          "name": "firstPendingDepositSlotProof",
          "type": "bytes"
        }
      ],
      "name": "verifyFirstPendingDepositSlot",
      "outputs": [
        {
          "internalType": "bool",
          "name": "isEmptyDepositQueue",
          "type": "bool"
        }
      ],
      "stateMutability": "view",
      "type": "function"
    },
    {
      "inputs": [
        {
          "internalType": "bytes32",
          "name": "balancesContainerRoot",
          "type": "bytes32"
        },
        {
          "internalType": "bytes32",
          "name": "validatorBalanceLeaf",
          "type": "bytes32"
        },
        {
          "internalType": "bytes",
          "name": "balanceProof",
          "type": "bytes"
        },
        {
          "internalType": "uint64",
          "name": "validatorIndex",
          "type": "uint64"
        }
      ],
      "name": "verifyValidatorBalance",
      "outputs": [
        {
          "internalType": "uint256",
          "name": "validatorBalanceGwei",
          "type": "uint256"
        }
      ],
      "stateMutability": "view",
      "type": "function"
    },
    {
      "inputs": [
        {
          "internalType": "bytes32",
          "name": "beaconBlockRoot",
          "type": "bytes32"
        },
        {
          "internalType": "bytes32",
          "name": "pubKeyHash",
          "type": "bytes32"
        },
        {
          "internalType": "bytes",
          "name": "validatorPubKeyProof",
          "type": "bytes"
        },
        {
          "internalType": "uint64",
          "name": "validatorIndex",
          "type": "uint64"
        },
        {
          "internalType": "address",
          "name": "withdrawalAddress",
          "type": "address"
        }
      ],
      "name": "verifyValidatorPubkey",
      "outputs": [],
      "stateMutability": "view",
      "type": "function"
    }
  ],
  "transactionHash": "0xd419ef398de38ea5e25b50cf3af9a427aa14e60517b188b01e801f3ad9ba8163",
  "args": [],
  "numDeployments": 7,
  "solcInputHash": "de6d2f00431b04abbd2234fb96d2b847",
  "bytecode": "0x6080604052348015600f57600080fd5b50610b068061001f6000396000f3fe608060405234801561001057600080fd5b506004361061004c5760003560e01c806342bd31da14610051578063431c729b1461007757806391ad640d1461009a578063e915f067146100af575b600080fd5b61006461005f36600461081e565b6100c2565b6040519081526020015b60405180910390f35b61008a610085366004610885565b6100db565b604051901515815260200161006e565b6100ad6100a83660046108de565b6100f2565b005b6100ad6100bd366004610918565b610104565b60006100d1868686868661011a565b9695505050505050565b60006100e985858585610247565b95945050505050565b6100fe848484846103fa565b50505050565b6101128686868686866104ca565b505050505050565b6000856101675760405162461bcd60e51b8152602060048201526016602482015275125b9d985b1a590818dbdb9d185a5b995c881c9bdbdd60521b60448201526064015b60405180910390fd5b6104e083146101885760405162461bcd60e51b815260040161015e9061099e565b60006101956004846109f8565b90506001600160401b038116648000000000176101b28785610625565b92506101f886868080601f0160208091040260200160405190810160405280939291908181526020018383808284376000920191909152508c92508b91508590506106c5565b61023c5760405162461bcd60e51b815260206004820152601560248201527424b73b30b634b2103130b630b731b290383937b7b360591b604482015260640161015e565b505095945050505050565b6000846102665760405162461bcd60e51b815260040161015e90610a26565b61050082148061027757506104a082145b6102935760405162461bcd60e51b815260040161015e9061099e565b60008061049f1984016102b4575060019150642e2000000090506000610360565b6104ff1984016103485761033886603881811c60ff16602883811c61ff001691909117601884811c62ff00001691909117600885811c63ff000000169190911764ff000000009186901b919091161765ff00000000009185901b919091161766ff0000000000009184901b919091161760ff60381b9290911b919091161760c01b90565b9050650171000000049150610360565b60405162461bcd60e51b815260040161015e9061099e565b6103a485858080601f0160208091040260200160405190810160405280939291908181526020018383808284376000920191909152508b92508591508690506106c5565b6103f05760405162461bcd60e51b815260206004820152601d60248201527f496e76616c69642070656e64696e67206465706f7369742070726f6f66000000604482015260640161015e565b5050949350505050565b836104175760405162461bcd60e51b815260040161015e90610a26565b61012081146104385760405162461bcd60e51b815260040161015e9061099e565b61047e82828080601f0160208091040260200160405190810160405280939291908181526020018383808284376000920191909152508892508791506102cc90506106c5565b6100fe5760405162461bcd60e51b815260206004820152601f60248201527f496e76616c69642062616c616e636520636f6e7461696e65722070726f6f6600604482015260640161015e565b856104e75760405162461bcd60e51b815260040161015e90610a26565b6106a083146105085760405162461bcd60e51b815260040161015e9061099e565b6001600160401b03821666059600000000001760031b600060208682376000519050826001600160a01b0316816001600160a01b03161461058b5760405162461bcd60e51b815260206004820152601a60248201527f496e76616c6964207769746864726177616c2061646472657373000000000000604482015260640161015e565b6105cf86868080601f0160208091040260200160405190810160405280939291908181526020018383808284376000920191909152508c92508b91508690506106c5565b61061b5760405162461bcd60e51b815260206004820152601e60248201527f496e76616c69642076616c696461746f72207075626b65792070726f6f660000604482015260640161015e565b5050505050505050565b600080610633600484610a52565b61063e906040610a80565b6001600160401b031690506106b284821b60f881901c60e882901c61ff00161760d882901c62ff0000161760c882901c63ff000000161764ff0000000060b883901c161765ff000000000060a883901c161766ff000000000000609883901c161760ff60381b60889290921c919091161790565b6001600160401b03169150505b92915050565b6000836106d38685856106dd565b1495945050505050565b600083516000141580156106fc5750602084516106fa9190610aa9565b155b610719576040516313717da960e21b815260040160405180910390fd5b604080516020808201909252848152905b855181116107b05761073d600285610aa9565b600003610773578151600052808601516020526020826040600060026107d05a03fa61076857600080fd5b60028404935061079e565b8086015160005281516020526020826040600060026107d05a03fa61079757600080fd5b6002840493505b6107a9602082610abd565b905061072a565b5051949350505050565b60008083601f8401126107cc57600080fd5b5081356001600160401b038111156107e357600080fd5b6020830191508360208285010111156107fb57600080fd5b9250929050565b80356001600160401b038116811461081957600080fd5b919050565b60008060008060006080868803121561083657600080fd5b853594506020860135935060408601356001600160401b0381111561085a57600080fd5b610866888289016107ba565b9094509250610879905060608701610802565b90509295509295909350565b6000806000806060858703121561089b57600080fd5b843593506108ab60208601610802565b925060408501356001600160401b038111156108c657600080fd5b6108d2878288016107ba565b95989497509550505050565b600080600080606085870312156108f457600080fd5b843593506020850135925060408501356001600160401b038111156108c657600080fd5b60008060008060008060a0878903121561093157600080fd5b863595506020870135945060408701356001600160401b0381111561095557600080fd5b61096189828a016107ba565b9095509350610974905060608801610802565b915060808701356001600160a01b038116811461099057600080fd5b809150509295509295509295565b602080825260149082015273092dcecc2d8d2c840e0e4dedecc40d8cadccee8d60631b604082015260600190565b634e487b7160e01b600052601260045260246000fd5b634e487b7160e01b600052601160045260246000fd5b60006001600160401b03831680610a1157610a116109cc565b806001600160401b0384160491505092915050565b602080825260129082015271125b9d985b1a5908189b1bd8dac81c9bdbdd60721b604082015260600190565b60006001600160401b03831680610a6b57610a6b6109cc565b806001600160401b0384160691505092915050565b6001600160401b038181168382160290811690818114610aa257610aa26109e2565b5092915050565b600082610ab857610ab86109cc565b500690565b808201808211156106bf576106bf6109e256fea264697066735822122063c89d938f8411026ef362a17818ac96316a5ccba7e978f2cd18954f4c10a44364736f6c634300081c0033",
  "libraries": {},
  "devdoc": {
    "author": "Origin Protocol Inc",
    "kind": "dev",
    "methods": {
      "verifyBalancesContainer(bytes32,bytes32,bytes)": {
        "params": {
          "balancesContainerProof": "The merkle proof for the balances container to the beacon block root. This is 9 witness hashes of 32 bytes each concatenated together starting from the leaf node.",
          "balancesContainerRoot": "The merkle root of the the balances container",
          "beaconBlockRoot": "The root of the beacon block"
        }
      },
      "verifyFirstPendingDepositSlot(bytes32,uint64,bytes)": {
        "params": {
          "beaconBlockRoot": "The root of the beacon block",
          "firstPendingDepositSlotProof": "The merkle proof to the beacon block root. Can be either: - 40 witness hashes for BeaconBlock.state.PendingDeposits[0].slot when the deposit queue is not empty. - 37 witness hashes for BeaconBlock.state.PendingDeposits[0] when the deposit queue is empty. The 32 byte witness hashes are concatenated together starting from the leaf node.",
          "slot": "The beacon chain slot of the first deposit in the beacon chain's deposit queue. Can be anything if the deposit queue is empty, but zero would be a good choice."
        },
        "returns": {
          "isEmptyDepositQueue": "True if the deposit queue is empty, false otherwise"
        }
      },
      "verifyValidatorBalance(bytes32,bytes32,bytes,uint64)": {
        "params": {
          "balanceProof": "The merkle proof for the validator balance to the Balances container root. This is 39 witness hashes of 32 bytes each concatenated together starting from the leaf node.",
          "balancesContainerRoot": "The merkle root of the Balances container.",
          "validatorBalanceLeaf": "The leaf node containing the validator balance with three other balances.",
          "validatorIndex": "The validator index to verify the balance for"
        },
        "returns": {
          "validatorBalanceGwei": "The balance in Gwei of the validator at the given index"
        }
      },
      "verifyValidatorPubkey(bytes32,bytes32,bytes,uint64,address)": {
        "params": {
          "beaconBlockRoot": "The root of the beacon block",
          "pubKeyHash": "Hash of validator's public key using the Beacon Chain's format",
          "validatorIndex": "The validator index",
          "validatorPubKeyProof": "The merkle proof for the validator public key to the beacon block root. This is 53 witness hashes of 32 bytes each concatenated together starting from the leaf node.",
          "withdrawalAddress": "The withdrawal address used in the validator's withdrawal credentials"
        }
      }
    },
    "title": "Verifies merkle proofs of beacon chain data.",
    "version": 1
  },
  "userdoc": {
    "kind": "user",
    "methods": {
      "verifyBalancesContainer(bytes32,bytes32,bytes)": {
        "notice": "Verifies the balances container to the beacon block root BeaconBlock.state.balances"
      },
      "verifyFirstPendingDepositSlot(bytes32,uint64,bytes)": {
        "notice": "If the deposit queue is not empty, verify the slot of the first pending deposit to the beacon block root BeaconBlock.state.PendingDeposits[0].slot If the deposit queue is empty, verify the root of the first pending deposit is empty BeaconBlock.state.PendingDeposits[0]"
      },
      "verifyValidatorBalance(bytes32,bytes32,bytes,uint64)": {
        "notice": "Verifies the validator balance to the root of the Balances container."
      },
      "verifyValidatorPubkey(bytes32,bytes32,bytes,uint64,address)": {
        "notice": "Verifies the validator public key to the beacon block root BeaconBlock.state.validators[validatorIndex].pubkey"
      }
    },
    "version": 1
  },
  "storageLayout": {
    "storage": [],
    "types": null
  }
}