{
  "address": "0x2828946cE2547E269Db3F1962B73A4ADBa5162A1",
  "abi": [
    {
      "inputs": [],
      "name": "InvalidProofLength",
      "type": "error"
    },
    {
      "inputs": [
        {
          "internalType": "bytes32",
          "name": "beaconBlockRoot",
          "type": "bytes32"
        },
        {
          "internalType": "bytes32",
          "name": "balancesContainerLeaf",
          "type": "bytes32"
        },
        {
          "internalType": "bytes",
          "name": "balancesContainerProof",
          "type": "bytes"
        }
      ],
      "name": "verifyBalancesContainer",
      "outputs": [],
      "stateMutability": "view",
      "type": "function"
    },
    {
      "inputs": [
        {
          "internalType": "bytes32",
          "name": "beaconBlockRoot",
          "type": "bytes32"
        },
        {
          "internalType": "uint256",
          "name": "blockNumber",
          "type": "uint256"
        },
        {
          "internalType": "bytes",
          "name": "blockNumberProof",
          "type": "bytes"
        }
      ],
      "name": "verifyBlockNumber",
      "outputs": [],
      "stateMutability": "view",
      "type": "function"
    },
    {
      "inputs": [
        {
          "internalType": "bytes32",
          "name": "beaconBlockRoot",
          "type": "bytes32"
        },
        {
          "internalType": "uint64",
          "name": "slot",
          "type": "uint64"
        },
        {
          "internalType": "bytes",
          "name": "firstPendingDepositSlotProof",
          "type": "bytes"
        }
      ],
      "name": "verifyFirstPendingDepositSlot",
      "outputs": [],
      "stateMutability": "view",
      "type": "function"
    },
    {
      "inputs": [
        {
          "internalType": "bytes32",
          "name": "beaconBlockRoot",
          "type": "bytes32"
        },
        {
          "internalType": "uint256",
          "name": "slot",
          "type": "uint256"
        },
        {
          "internalType": "bytes",
          "name": "slotProof",
          "type": "bytes"
        }
      ],
      "name": "verifySlot",
      "outputs": [],
      "stateMutability": "view",
      "type": "function"
    },
    {
      "inputs": [
        {
          "internalType": "bytes32",
          "name": "root",
          "type": "bytes32"
        },
        {
          "internalType": "bytes32",
          "name": "validatorBalanceLeaf",
          "type": "bytes32"
        },
        {
          "internalType": "bytes",
          "name": "balanceProof",
          "type": "bytes"
        },
        {
          "internalType": "uint64",
          "name": "validatorIndex",
          "type": "uint64"
        },
        {
          "internalType": "enum BeaconProofsLib.BalanceProofLevel",
          "name": "level",
          "type": "uint8"
        }
      ],
      "name": "verifyValidatorBalance",
      "outputs": [
        {
          "internalType": "uint256",
          "name": "validatorBalanceGwei",
          "type": "uint256"
        }
      ],
      "stateMutability": "view",
      "type": "function"
    },
    {
      "inputs": [
        {
          "internalType": "bytes32",
          "name": "beaconBlockRoot",
          "type": "bytes32"
        },
        {
          "internalType": "bytes32",
          "name": "pubKeyHash",
          "type": "bytes32"
        },
        {
          "internalType": "bytes",
          "name": "validatorPubKeyProof",
          "type": "bytes"
        },
        {
          "internalType": "uint64",
          "name": "validatorIndex",
          "type": "uint64"
        },
        {
          "internalType": "address",
          "name": "withdrawalAddress",
          "type": "address"
        }
      ],
      "name": "verifyValidatorPubkey",
      "outputs": [],
      "stateMutability": "view",
      "type": "function"
    }
  ],
  "transactionHash": "0x71561965a136db82a4b251f3ce9b34ac709067a2d52f6075525207a744f46fe7",
  "args": [],
  "numDeployments": 2,
  "solcInputHash": "3de98f56666780054699342674f08b14",
  "bytecode": "0x6080604052348015600f57600080fd5b50610b118061001f6000396000f3fe608060405234801561001057600080fd5b50600436106100625760003560e01c806311aec4c114610067578063431c729b1461008c57806391ad640d146100a1578063b41cc546146100b4578063e915f067146100c7578063ec52a221146100da575b600080fd5b61007a610075366004610864565b6100ed565b60405190815260200160405180910390f35b61009f61009a3660046108e2565b610108565b005b61009f6100af36600461093b565b61011a565b61009f6100c236600461093b565b610126565b61009f6100d5366004610975565b610132565b61009f6100e836600461093b565b610148565b60006100fd878787878787610154565b979650505050505050565b61011484848484610264565b50505050565b6101148484848461030e565b610114848484846103a0565b61014086868686868661043f565b505050505050565b6101148484848461055c565b600080610162600485610a19565b905060008084600181111561017957610179610a47565b0361019157506001600160401b038116648000000000175b60018460018111156101a5576101a5610a47565b036101bf57506001600160401b0381166601660000000000175b6101c988866105f5565b925061020f87878080601f0160208091040260200160405190810160405280939291908181526020018383808284376000920191909152508d92508c9150859050610695565b6102585760405162461bcd60e51b815260206004820152601560248201527424b73b30b634b2103130b630b731b290383937b7b360591b60448201526064015b60405180910390fd5b50509695505050505050565b600061026f846106ad565b90506102bb83838080601f016020809104026020016040519081016040528093929190818152602001838380828437600092019190915250899250859150650171000000049050610695565b6103075760405162461bcd60e51b815260206004820152601d60248201527f496e76616c69642070656e64696e67206465706f7369742070726f6f66000000604482015260640161024f565b5050505050565b61035482828080601f0160208091040260200160405190810160405280939291908181526020018383808284376000920191909152508892508791506102cc9050610695565b6101145760405162461bcd60e51b815260206004820152601f60248201527f496e76616c69642062616c616e636520636f6e7461696e65722070726f6f6600604482015260640161024f565b60006103ab846106ad565b90506103f383838080601f0160208091040260200160405190810160405280939291908181526020018383808284376000920191909152508992508591506119269050610695565b6103075760405162461bcd60e51b815260206004820152601a60248201527f496e76616c696420626c6f636b206e756d6265722070726f6f66000000000000604482015260640161024f565b6001600160401b03821666059600000000001760031b600060208682376000519050826001600160a01b0316816001600160a01b0316146104c25760405162461bcd60e51b815260206004820152601a60248201527f496e76616c6964207769746864726177616c2061646472657373000000000000604482015260640161024f565b61050686868080601f0160208091040260200160405190810160405280939291908181526020018383808284376000920191909152508c92508b9150869050610695565b6105525760405162461bcd60e51b815260206004820152601e60248201527f496e76616c69642076616c696461746f72207075626b65792070726f6f660000604482015260640161024f565b5050505050505050565b6105a982828080601f0160208091040260200160405190810160405280939291908181526020018383808284376000920191909152508892506105a291508790506106ad565b6008610695565b6101145760405162461bcd60e51b815260206004820152601960248201527f496e76616c696420736c6f74206e756d6265722070726f6f6600000000000000604482015260640161024f565b600080610603600484610a5d565b61060e906040610a8b565b6001600160401b0316905061068284821b60f881901c60e882901c61ff00161760d882901c62ff0000161760c882901c63ff000000161764ff0000000060b883901c161765ff000000000060a883901c161766ff000000000000609883901c161760ff60381b60889290921c919091161790565b6001600160401b03169150505b92915050565b6000836106a3868585610723565b1495945050505050565b603881811c60ff16602883811c61ff001691909117601884811c62ff00001691909117600885811c63ff000000169190911764ff000000009186901b919091161765ff00000000009185901b919091161766ff0000000000009184901b919091161760ff60381b9290911b919091161760c01b90565b600083516000141580156107425750602084516107409190610ab4565b155b61075f576040516313717da960e21b815260040160405180910390fd5b604080516020808201909252848152905b855181116107f657610783600285610ab4565b6000036107b9578151600052808601516020526020826040600060026107d05a03fa6107ae57600080fd5b6002840493506107e4565b8086015160005281516020526020826040600060026107d05a03fa6107dd57600080fd5b6002840493505b6107ef602082610ac8565b9050610770565b5051949350505050565b60008083601f84011261081257600080fd5b5081356001600160401b0381111561082957600080fd5b60208301915083602082850101111561084157600080fd5b9250929050565b80356001600160401b038116811461085f57600080fd5b919050565b60008060008060008060a0878903121561087d57600080fd5b863595506020870135945060408701356001600160401b038111156108a157600080fd5b6108ad89828a01610800565b90955093506108c0905060608801610848565b91506080870135600281106108d457600080fd5b809150509295509295509295565b600080600080606085870312156108f857600080fd5b8435935061090860208601610848565b925060408501356001600160401b0381111561092357600080fd5b61092f87828801610800565b95989497509550505050565b6000806000806060858703121561095157600080fd5b843593506020850135925060408501356001600160401b0381111561092357600080fd5b60008060008060008060a0878903121561098e57600080fd5b863595506020870135945060408701356001600160401b038111156109b257600080fd5b6109be89828a01610800565b90955093506109d1905060608801610848565b915060808701356001600160a01b03811681146108d457600080fd5b634e487b7160e01b600052601260045260246000fd5b634e487b7160e01b600052601160045260246000fd5b60006001600160401b03831680610a3257610a326109ed565b806001600160401b0384160491505092915050565b634e487b7160e01b600052602160045260246000fd5b60006001600160401b03831680610a7657610a766109ed565b806001600160401b0384160691505092915050565b6001600160401b038181168382160290811690818114610aad57610aad610a03565b5092915050565b600082610ac357610ac36109ed565b500690565b8082018082111561068f5761068f610a0356fea2646970667358221220f1c53953b16f8cec59af4c531299c78299a48101d2779a178033042d22db9e1664736f6c634300081c0033",
  "libraries": {},
  "devdoc": {
    "kind": "dev",
    "methods": {
      "verifyBalancesContainer(bytes32,bytes32,bytes)": {
        "params": {
          "balancesContainerLeaf": "The leaf node containing the balances container",
          "balancesContainerProof": "The merkle proof for the balances container to the beacon block root. This is the witness hashes concatenated together starting from the leaf node.",
          "beaconBlockRoot": "The root of the beacon block"
        }
      },
      "verifyBlockNumber(bytes32,uint256,bytes)": {
        "params": {
          "beaconBlockRoot": "The root of the beacon block",
          "blockNumber": "The execution layer block number to verify",
          "blockNumberProof": "The merkle proof for the block number against the beacon block This is the witness hashes concatenated together starting from the leaf node."
        }
      },
      "verifyFirstPendingDepositSlot(bytes32,uint64,bytes)": {
        "params": {
          "beaconBlockRoot": "The root of the beacon block",
          "firstPendingDepositSlotProof": "The merkle proof for the first pending deposit's slot against the beacon block root. This is the witness hashes concatenated together starting from the leaf node.",
          "slot": "The beacon chain slot to verify"
        }
      },
      "verifySlot(bytes32,uint256,bytes)": {
        "params": {
          "beaconBlockRoot": "The root of the beacon block",
          "slot": "The beacon chain slot to verify",
          "slotProof": "The merkle proof for the slot against the beacon block root. This is the witness hashes concatenated together starting from the leaf node."
        }
      },
      "verifyValidatorBalance(bytes32,bytes32,bytes,uint64,uint8)": {
        "params": {
          "balanceProof": "The merkle proof for the validator balance against the root. This is the witness hashes concatenated together starting from the leaf node.",
          "level": "The level of the balance proof, either Container or BeaconBlock",
          "root": "The root of the Balances container or the beacon block root",
          "validatorBalanceLeaf": "The leaf node containing the validator balance with three other balances",
          "validatorIndex": "The validator index to verify the balance for"
        },
        "returns": {
          "validatorBalanceGwei": "The balance in Gwei of the validator at the given index"
        }
      },
      "verifyValidatorPubkey(bytes32,bytes32,bytes,uint64,address)": {
        "params": {
          "beaconBlockRoot": "The root of the beacon block",
          "pubKeyHash": "The beacon chain hash of the validator public key",
          "validatorIndex": "The validator index",
          "validatorPubKeyProof": "The merkle proof for the validator public key to the beacon block root. This is the witness hashes concatenated together starting from the leaf node."
        }
      }
    },
    "version": 1
  },
  "userdoc": {
    "kind": "user",
    "methods": {
      "verifyBalancesContainer(bytes32,bytes32,bytes)": {
        "notice": "Verifies the balances container against the beacon block root BeaconBlock.state.balances"
      },
      "verifyBlockNumber(bytes32,uint256,bytes)": {
        "notice": "Verifies the block number to the the beacon block root BeaconBlock.body.executionPayload.blockNumber"
      },
      "verifyFirstPendingDepositSlot(bytes32,uint64,bytes)": {
        "notice": "Verifies the slot of the first pending deposit against the beacon block root BeaconBlock.state.PendingDeposits[0].slot"
      },
      "verifySlot(bytes32,uint256,bytes)": {
        "notice": "Verifies the slot number against the beacon block root. BeaconBlock.slot"
      },
      "verifyValidatorBalance(bytes32,bytes32,bytes,uint64,uint8)": {
        "notice": "Verifies the validator balance against the root of the Balances container or the beacon block root"
      },
      "verifyValidatorPubkey(bytes32,bytes32,bytes,uint64,address)": {
        "notice": "Verifies the validator public key against the beacon block root BeaconBlock.state.validators[validatorIndex].pubkey"
      }
    },
    "version": 1
  },
  "storageLayout": {
    "storage": [],
    "types": null
  }
}