{
  "address": "0xaFd0Ef7c8b54FbEAe05312fd8ffeF05ad69855B4",
  "abi": [
    {
      "inputs": [],
      "name": "InvalidProofLength",
      "type": "error"
    },
    {
      "inputs": [
        {
          "internalType": "bytes32",
          "name": "pubKeyHash",
          "type": "bytes32"
        },
        {
          "internalType": "bytes",
          "name": "withdrawalCredentials",
          "type": "bytes"
        },
        {
          "internalType": "uint64",
          "name": "amountGwei",
          "type": "uint64"
        },
        {
          "internalType": "bytes",
          "name": "signature",
          "type": "bytes"
        },
        {
          "internalType": "uint64",
          "name": "slot",
          "type": "uint64"
        }
      ],
      "name": "merkleizePendingDeposit",
      "outputs": [
        {
          "internalType": "bytes32",
          "name": "",
          "type": "bytes32"
        }
      ],
      "stateMutability": "pure",
      "type": "function"
    },
    {
      "inputs": [
        {
          "internalType": "bytes",
          "name": "signature",
          "type": "bytes"
        }
      ],
      "name": "merkleizeSignature",
      "outputs": [
        {
          "internalType": "bytes32",
          "name": "root",
          "type": "bytes32"
        }
      ],
      "stateMutability": "pure",
      "type": "function"
    },
    {
      "inputs": [
        {
          "internalType": "bytes32",
          "name": "beaconBlockRoot",
          "type": "bytes32"
        },
        {
          "internalType": "bytes32",
          "name": "balancesContainerRoot",
          "type": "bytes32"
        },
        {
          "internalType": "bytes",
          "name": "balancesContainerProof",
          "type": "bytes"
        }
      ],
      "name": "verifyBalancesContainer",
      "outputs": [],
      "stateMutability": "view",
      "type": "function"
    },
    {
      "inputs": [
        {
          "internalType": "bytes32",
          "name": "beaconBlockRoot",
          "type": "bytes32"
        },
        {
          "internalType": "uint64",
          "name": "slot",
          "type": "uint64"
        },
        {
          "internalType": "bytes",
          "name": "firstPendingDepositSlotProof",
          "type": "bytes"
        }
      ],
      "name": "verifyFirstPendingDeposit",
      "outputs": [
        {
          "internalType": "bool",
          "name": "isEmptyDepositQueue",
          "type": "bool"
        }
      ],
      "stateMutability": "view",
      "type": "function"
    },
    {
      "inputs": [
        {
          "internalType": "bytes32",
          "name": "pendingDepositsContainerRoot",
          "type": "bytes32"
        },
        {
          "internalType": "bytes32",
          "name": "pendingDepositRoot",
          "type": "bytes32"
        },
        {
          "internalType": "bytes",
          "name": "proof",
          "type": "bytes"
        },
        {
          "internalType": "uint32",
          "name": "pendingDepositIndex",
          "type": "uint32"
        }
      ],
      "name": "verifyPendingDeposit",
      "outputs": [],
      "stateMutability": "view",
      "type": "function"
    },
    {
      "inputs": [
        {
          "internalType": "bytes32",
          "name": "beaconBlockRoot",
          "type": "bytes32"
        },
        {
          "internalType": "bytes32",
          "name": "pendingDepositsContainerRoot",
          "type": "bytes32"
        },
        {
          "internalType": "bytes",
          "name": "proof",
          "type": "bytes"
        }
      ],
      "name": "verifyPendingDepositsContainer",
      "outputs": [],
      "stateMutability": "view",
      "type": "function"
    },
    {
      "inputs": [
        {
          "internalType": "bytes32",
          "name": "beaconBlockRoot",
          "type": "bytes32"
        },
        {
          "internalType": "bytes32",
          "name": "pubKeyHash",
          "type": "bytes32"
        },
        {
          "internalType": "bytes",
          "name": "proof",
          "type": "bytes"
        },
        {
          "internalType": "uint40",
          "name": "validatorIndex",
          "type": "uint40"
        },
        {
          "internalType": "address",
          "name": "withdrawalAddress",
          "type": "address"
        }
      ],
      "name": "verifyValidator",
      "outputs": [],
      "stateMutability": "view",
      "type": "function"
    },
    {
      "inputs": [
        {
          "internalType": "bytes32",
          "name": "balancesContainerRoot",
          "type": "bytes32"
        },
        {
          "internalType": "bytes32",
          "name": "validatorBalanceLeaf",
          "type": "bytes32"
        },
        {
          "internalType": "bytes",
          "name": "balanceProof",
          "type": "bytes"
        },
        {
          "internalType": "uint40",
          "name": "validatorIndex",
          "type": "uint40"
        }
      ],
      "name": "verifyValidatorBalance",
      "outputs": [
        {
          "internalType": "uint256",
          "name": "validatorBalanceGwei",
          "type": "uint256"
        }
      ],
      "stateMutability": "view",
      "type": "function"
    },
    {
      "inputs": [
        {
          "internalType": "bytes32",
          "name": "beaconBlockRoot",
          "type": "bytes32"
        },
        {
          "internalType": "uint40",
          "name": "validatorIndex",
          "type": "uint40"
        },
        {
          "internalType": "uint64",
          "name": "withdrawableEpoch",
          "type": "uint64"
        },
        {
          "internalType": "bytes",
          "name": "withdrawableEpochProof",
          "type": "bytes"
        }
      ],
      "name": "verifyValidatorWithdrawable",
      "outputs": [],
      "stateMutability": "view",
      "type": "function"
    }
  ],
  "transactionHash": "0xdb14b247042e444182a0d5e70a452f9367d09d01021f3bf5016cb83ded317234",
  "args": [],
  "numDeployments": 12,
  "solcInputHash": "feede9596003ed68e08471a2a7c65887",
  "bytecode": "0x6080604052348015600f57600080fd5b506118158061001f6000396000f3fe608060405234801561001057600080fd5b50600436106100935760003560e01c806391ad640d1161006657806391ad640d146100f9578063afd62ef01461010c578063afe768871461011f578063d98a556414610132578063f34ad34c1461015557600080fd5b8063258b83d8146100985780632b00e796146100be578063334a88fb146100d35780638a050dd4146100e6575b600080fd5b6100ab6100a636600461115f565b610168565b6040519081526020015b60405180910390f35b6100d16100cc3660046111a0565b61017d565b005b6100d16100e1366004611223565b61018f565b6100d16100f4366004611291565b6101a3565b6100d16101073660046111a0565b6101b0565b6100d161011a366004611304565b6101bc565b6100ab61012d36600461138a565b6101d2565b610145610140366004611429565b6101ef565b60405190151581526020016100b5565b6100ab61016336600461146a565b610206565b6000610174838361021f565b90505b92915050565b61018984848484610365565b50505050565b61019c8585858585610420565b5050505050565b61019c85858585856104f8565b61018984848484610638565b6101ca8686868686866106f3565b505050505050565b60006101e388888888888888610880565b98975050505050505050565b60006101fd858585856109f8565b95945050505050565b60006102158686868686610b66565b9695505050505050565b60006060821461026a5760405162461bcd60e51b8152602060048201526011602482015270496e76616c6964207369676e617475726560781b60448201526064015b60405180910390fd5b60408051600480825260a082019092526000916020820160808036833701905050905061029b6020600085876114e7565b6102a491611511565b816000815181106102b7576102b761152f565b6020908102919091018101919091526102d49060409085876114e7565b6102dd91611511565b816001815181106102f0576102f061152f565b60209081029190910101526103096060604085876114e7565b61031291611511565b816002815181106103255761032561152f565b6020026020010181815250506000801b816003815181106103485761034861152f565b60200260200101818152505061035d81610c77565b949350505050565b836103825760405162461bcd60e51b815260040161026190611545565b610120811480156103d457506103d482828080601f0160208091040260200160405190810160405280939291908181526020018383808284376000920191909152508892508791506102e29050610f10565b6101895760405162461bcd60e51b815260206004820152601f60248201527f496e76616c6964206465706f73697420636f6e7461696e65722070726f6f66006044820152606401610261565b8461043d5760405162461bcd60e51b815260040161026190611545565b600764ffffffffff851666059600000000001760031b176106a0821480156104ac57506104ac83838080601f0160208091040260200160405190810160405280939291908181526020018383808284376000920191909152508a92506104a69150889050610f28565b84610f10565b6101ca5760405162461bcd60e51b815260206004820152601a60248201527f496e76616c696420776974686472617761626c652070726f6f660000000000006044820152606401610261565b846105345760405162461bcd60e51b815260206004820152600c60248201526b125b9d985b1a59081c9bdbdd60a21b6044820152606401610261565b6105406001601c611587565b61054b906002611681565b8163ffffffff16106105975760405162461bcd60e51b8152602060048201526015602482015274092dcecc2d8d2c840c8cae0dee6d2e840d2dcc8caf605b1b6044820152606401610261565b63ffffffff8116631000000017610380831480156105f457506105f484848080601f0160208091040260200160405190810160405280939291908181526020018383808284376000920191909152508a9250899150859050610f10565b6101ca5760405162461bcd60e51b815260206004820152601560248201527424b73b30b634b2103232b837b9b4ba10383937b7b360591b6044820152606401610261565b836106555760405162461bcd60e51b815260040161026190611545565b610120811480156106a757506106a782828080601f0160208091040260200160405190810160405280939291908181526020018383808284376000920191909152508892508791506102cc9050610f10565b6101895760405162461bcd60e51b815260206004820152601f60248201527f496e76616c69642062616c616e636520636f6e7461696e65722070726f6f66006044820152606401610261565b856107105760405162461bcd60e51b815260040161026190611545565b64ffffffffff821666059600000000001760031b600061073360208287896114e7565b61073c91611511565b60408051600160f91b60208201526000602182018190526bffffffffffffffffffffffff19606088901b16602c830152929350016040516020818303038152906040526107889061168d565b90508082146107d95760405162461bcd60e51b815260206004820152601760248201527f496e76616c6964207769746864726177616c20637265640000000000000000006044820152606401610261565b6106a086148015610829575061082987878080601f0160208091040260200160405190810160405280939291908181526020018383808284376000920191909152508d92508c9150879050610f10565b6108755760405162461bcd60e51b815260206004820152601760248201527f496e76616c69642076616c696461746f722070726f6f660000000000000000006044820152606401610261565b505050505050505050565b6040805160088082526101208201909252600091829190602082016101008036833701905050905088816000815181106108bc576108bc61152f565b6020908102919091018101919091526108d8906000898b6114e7565b6108e191611511565b816001815181106108f4576108f461152f565b60200260200101818152505061090986610f28565b8160028151811061091c5761091c61152f565b602002602001018181525050610932858561021f565b816003815181106109455761094561152f565b60200260200101818152505061095a83610f28565b8160048151811061096d5761096d61152f565b6020026020010181815250506000801b816005815181106109905761099061152f565b6020026020010181815250506000801b816006815181106109b3576109b361152f565b6020026020010181815250506000801b816007815181106109d6576109d661152f565b6020026020010181815250506109eb81610c77565b9998505050505050505050565b600084610a175760405162461bcd60e51b815260040161026190611545565b61049f198201610abc57610a6883838080601f01602080910402602001604051908101604052809392919081815260200183838082843760009201829052508a93509150642e200000009050610f10565b610ab45760405162461bcd60e51b815260206004820152601c60248201527f496e76616c696420656d707479206465706f736974732070726f6f66000000006044820152606401610261565b50600161035d565b61050082148015610b1a5750610b1a83838080601f016020809104026020016040519081016040528093929190818152602001838380828437600092019190915250899250610b0e9150889050610f28565b65017100000004610f10565b61035d5760405162461bcd60e51b815260206004820152601a60248201527f496e76616c6964206465706f73697420736c6f742070726f6f660000000000006044820152606401610261565b600085610bae5760405162461bcd60e51b8152602060048201526016602482015275125b9d985b1a590818dbdb9d185a5b995c881c9bdbdd60521b6044820152606401610261565b6000610bbb6004846116ca565b64ffffffffff1690506480000000008117610bd68785610f9e565b92506104e085148015610c285750610c2886868080601f0160208091040260200160405190810160405280939291908181526020018383808284376000920191909152508c92508b9150859050610f10565b610c6c5760405162461bcd60e51b815260206004820152601560248201527424b73b30b634b2103130b630b731b290383937b7b360591b6044820152606401610261565b505095945050505050565b60008060028351610c8891906116f4565b90506000816001600160401b03811115610ca457610ca46114d1565b604051908082528060200260200182016040528015610ccd578160200160208202803683370190505b50905060005b82811015610dca57600285610ce88383611708565b81518110610cf857610cf861152f565b602002602001015186836002610d0e9190611708565b610d1990600161171f565b81518110610d2957610d2961152f565b6020026020010151604051602001610d4b929190918252602082015260400190565b60408051601f1981840301815290829052610d6591611732565b602060405180830381855afa158015610d82573d6000803e3d6000fd5b5050506040513d601f19601f82011682018060405250810190610da59190611761565b828281518110610db757610db761152f565b6020908102919091010152600101610cd3565b50610dd66002836116f4565b91505b8115610eec5760005b82811015610ed957600282610df78383611708565b81518110610e0757610e0761152f565b602002602001015183836002610e1d9190611708565b610e2890600161171f565b81518110610e3857610e3861152f565b6020026020010151604051602001610e5a929190918252602082015260400190565b60408051601f1981840301815290829052610e7491611732565b602060405180830381855afa158015610e91573d6000803e3d6000fd5b5050506040513d601f19601f82011682018060405250810190610eb49190611761565b828281518110610ec657610ec661152f565b6020908102919091010152600101610de2565b50610ee56002836116f4565b9150610dd9565b80600081518110610eff57610eff61152f565b602002602001015192505050919050565b600083610f1e86858561103a565b1495945050505050565b603881811c60ff16602883811c61ff001691909117601884811c62ff00001691909117600885811c63ff000000169190911764ff000000009186901b919091161765ff00000000009185901b919091161766ff0000000000009184901b919091161760ff60381b9290911b919091161760c01b90565b600080610fac60048461177a565b610fb79060406117a4565b64ffffffffff16905061102984821b60f881901c60e882901c61ff00161760d882901c62ff0000161760c882901c63ff000000161764ff0000000060b883901c161765ff000000000060a883901c161766ff000000000000609883901c161760ff60381b60889290921c919091161790565b6001600160401b0316949350505050565b6000835160001415801561105957506020845161105791906117cb565b155b611076576040516313717da960e21b815260040160405180910390fd5b604080516020808201909252848152905b8551811161110d5761109a6002856117cb565b6000036110ca578151600052808601516020526020826040600060026107d05a03fa6110c557600080fd5b6110ee565b8086015160005281516020526020826040600060026107d05a03fa6110ee57600080fd5b6110f96002856116f4565b935061110660208261171f565b9050611087565b5051949350505050565b60008083601f84011261112957600080fd5b5081356001600160401b0381111561114057600080fd5b60208301915083602082850101111561115857600080fd5b9250929050565b6000806020838503121561117257600080fd5b82356001600160401b0381111561118857600080fd5b61119485828601611117565b90969095509350505050565b600080600080606085870312156111b657600080fd5b843593506020850135925060408501356001600160401b038111156111da57600080fd5b6111e687828801611117565b95989497509550505050565b803564ffffffffff8116811461120757600080fd5b919050565b80356001600160401b038116811461120757600080fd5b60008060008060006080868803121561123b57600080fd5b8535945061124b602087016111f2565b93506112596040870161120c565b925060608601356001600160401b0381111561127457600080fd5b61128088828901611117565b969995985093965092949392505050565b6000806000806000608086880312156112a957600080fd5b853594506020860135935060408601356001600160401b038111156112cd57600080fd5b6112d988828901611117565b909450925050606086013563ffffffff811681146112f657600080fd5b809150509295509295909350565b60008060008060008060a0878903121561131d57600080fd5b863595506020870135945060408701356001600160401b0381111561134157600080fd5b61134d89828a01611117565b90955093506113609050606088016111f2565b915060808701356001600160a01b038116811461137c57600080fd5b809150509295509295509295565b600080600080600080600060a0888a0312156113a557600080fd5b8735965060208801356001600160401b038111156113c257600080fd5b6113ce8a828b01611117565b90975095506113e190506040890161120c565b935060608801356001600160401b038111156113fc57600080fd5b6114088a828b01611117565b909450925061141b90506080890161120c565b905092959891949750929550565b6000806000806060858703121561143f57600080fd5b8435935061144f6020860161120c565b925060408501356001600160401b038111156111da57600080fd5b60008060008060006080868803121561148257600080fd5b853594506020860135935060408601356001600160401b038111156114a657600080fd5b6114b288828901611117565b90945092506114c59050606087016111f2565b90509295509295909350565b634e487b7160e01b600052604160045260246000fd5b600080858511156114f757600080fd5b8386111561150457600080fd5b5050820193919092039150565b8035602083101561017757600019602084900360031b1b1692915050565b634e487b7160e01b600052603260045260246000fd5b602080825260129082015271125b9d985b1a5908189b1bd8dac81c9bdbdd60721b604082015260600190565b634e487b7160e01b600052601160045260246000fd5b8181038181111561017757610177611571565b6001815b60018411156115d5578085048111156115b9576115b9611571565b60018416156115c757908102905b60019390931c92800261159e565b935093915050565b6000826115ec57506001610177565b816115f957506000610177565b816001811461160f576002811461161957611635565b6001915050610177565b60ff84111561162a5761162a611571565b50506001821b610177565b5060208310610133831016604e8410600b8410161715611658575081810a610177565b611665600019848461159a565b806000190482111561167957611679611571565b029392505050565b600061017483836115dd565b805160208083015191908110156116ae576000198160200360031b1b821691505b50919050565b634e487b7160e01b600052601260045260246000fd5b600064ffffffffff8316806116e1576116e16116b4565b8064ffffffffff84160491505092915050565b600082611703576117036116b4565b500490565b808202811582820484141761017757610177611571565b8082018082111561017757610177611571565b6000825160005b818110156117535760208186018101518583015201611739565b506000920191825250919050565b60006020828403121561177357600080fd5b5051919050565b600064ffffffffff831680611791576117916116b4565b8064ffffffffff84160691505092915050565b64ffffffffff81811683821602908116908181146117c4576117c4611571565b5092915050565b6000826117da576117da6116b4565b50069056fea26469706673582212206a80dbe5177bd715baf4b46a1cde549013d49ed94a888bd0447fa1af462c6a6f64736f6c634300081c0033",
  "libraries": {},
  "devdoc": {
    "author": "Origin Protocol Inc",
    "kind": "dev",
    "methods": {
      "merkleizePendingDeposit(bytes32,bytes,uint64,bytes,uint64)": {
        "params": {
          "amountGwei": "The amount of the deposit in Gwei.",
          "pubKeyHash": "Hash of validator's public key using the Beacon Chain's format",
          "signature": "The 96 byte BLS signature.",
          "slot": "The beacon chain slot the deposit was made in.",
          "withdrawalCredentials": "The 32 byte withdrawal credentials."
        },
        "returns": {
          "_0": "root The merkle root of the pending deposit."
        }
      },
      "merkleizeSignature(bytes)": {
        "params": {
          "signature": "The 96 byte BLS signature."
        },
        "returns": {
          "root": "The merkle root of the signature."
        }
      },
      "verifyBalancesContainer(bytes32,bytes32,bytes)": {
        "params": {
          "balancesContainerProof": "The merkle proof for the balances container to the beacon block root. This is 9 witness hashes of 32 bytes each concatenated together starting from the leaf node.",
          "balancesContainerRoot": "The merkle root of the the balances container",
          "beaconBlockRoot": "The root of the beacon block"
        }
      },
      "verifyFirstPendingDeposit(bytes32,uint64,bytes)": {
        "params": {
          "beaconBlockRoot": "The root of the beacon block.",
          "firstPendingDepositSlotProof": "The merkle proof to the beacon block root. Can be either: - 40 witness hashes for BeaconBlock.state.PendingDeposits[0].slot when the deposit queue is not empty. - 37 witness hashes for BeaconBlock.state.PendingDeposits[0] when the deposit queue is empty. The 32 byte witness hashes are concatenated together starting from the leaf node.",
          "slot": "The beacon chain slot of the first deposit in the beacon chain's deposit queue. Can be anything if the deposit queue is empty."
        },
        "returns": {
          "isEmptyDepositQueue": "True if the deposit queue is empty, false otherwise."
        }
      },
      "verifyPendingDeposit(bytes32,bytes32,bytes,uint32)": {
        "params": {
          "pendingDepositIndex": "The pending deposit index in the Pending Deposits container",
          "pendingDepositRoot": "The leaf node containing the validator balance with three other balances.",
          "pendingDepositsContainerRoot": "The merkle root of the Pending Deposits container.",
          "proof": "The merkle proof for the pending deposit root to the Pending Deposits container root. This is 28 witness hashes of 32 bytes each concatenated together starting from the leaf node."
        }
      },
      "verifyPendingDepositsContainer(bytes32,bytes32,bytes)": {
        "params": {
          "beaconBlockRoot": "The root of the beacon block.",
          "pendingDepositsContainerRoot": "The merkle root of the the pending deposits container.",
          "proof": "The merkle proof for the pending deposits container to the beacon block root. This is 9 witness hashes of 32 bytes each concatenated together starting from the leaf node."
        }
      },
      "verifyValidator(bytes32,bytes32,bytes,uint40,address)": {
        "params": {
          "beaconBlockRoot": "The root of the beacon block",
          "proof": "The merkle proof for the validator public key to the beacon block root. This is 53 witness hashes of 32 bytes each concatenated together starting from the leaf node.",
          "pubKeyHash": "Hash of validator's public key using the Beacon Chain's format",
          "validatorIndex": "The validator index",
          "withdrawalAddress": "The withdrawal address used in the validator's withdrawal credentials"
        }
      },
      "verifyValidatorBalance(bytes32,bytes32,bytes,uint40)": {
        "params": {
          "balanceProof": "The merkle proof for the validator balance to the Balances container root. This is 39 witness hashes of 32 bytes each concatenated together starting from the leaf node.",
          "balancesContainerRoot": "The merkle root of the Balances container.",
          "validatorBalanceLeaf": "The leaf node containing the validator balance with three other balances.",
          "validatorIndex": "The validator index to verify the balance for"
        },
        "returns": {
          "validatorBalanceGwei": "The balance in Gwei of the validator at the given index"
        }
      }
    },
    "title": "Verifies merkle proofs of beacon chain data.",
    "version": 1
  },
  "userdoc": {
    "kind": "user",
    "methods": {
      "merkleizePendingDeposit(bytes32,bytes,uint64,bytes,uint64)": {
        "notice": "Merkleizes a beacon chain pending deposit."
      },
      "merkleizeSignature(bytes)": {
        "notice": "Merkleizes a BLS signature used for validator deposits."
      },
      "verifyBalancesContainer(bytes32,bytes32,bytes)": {
        "notice": "Verifies the balances container to the beacon block root BeaconBlock.state.balances"
      },
      "verifyFirstPendingDeposit(bytes32,uint64,bytes)": {
        "notice": "If the deposit queue is not empty, verify the slot of the first pending deposit to the beacon block root. BeaconBlock.state.pendingDeposits[0].slot If the deposit queue is empty, verify the root of the first pending deposit is empty BeaconBlock.state.PendingDeposits[0]"
      },
      "verifyPendingDeposit(bytes32,bytes32,bytes,uint32)": {
        "notice": "Verified a pending deposit to the root of the Pending Deposits container."
      },
      "verifyPendingDepositsContainer(bytes32,bytes32,bytes)": {
        "notice": "Verifies the pending deposits container to the beacon block root. BeaconBlock.state.pendingDeposits"
      },
      "verifyValidator(bytes32,bytes32,bytes,uint40,address)": {
        "notice": "Verifies the validator index is for the given validator public key. Also verify the validator's withdrawal credential points to the withdrawal address. BeaconBlock.state.validators[validatorIndex].pubkey"
      },
      "verifyValidatorBalance(bytes32,bytes32,bytes,uint40)": {
        "notice": "Verifies the validator balance to the root of the Balances container."
      }
    },
    "version": 1
  },
  "storageLayout": {
    "storage": [],
    "types": null
  }
}