{
  "address": "0x1df1B71c5204DB0e5f3f7035A57285D53454C710",
  "abi": [
    {
      "inputs": [],
      "name": "InvalidProofLength",
      "type": "error"
    },
    {
      "inputs": [
        {
          "internalType": "bytes32",
          "name": "beaconBlockRoot",
          "type": "bytes32"
        },
        {
          "internalType": "bytes32",
          "name": "balancesContainerLeaf",
          "type": "bytes32"
        },
        {
          "internalType": "bytes",
          "name": "balancesContainerProof",
          "type": "bytes"
        }
      ],
      "name": "verifyBalancesContainer",
      "outputs": [],
      "stateMutability": "view",
      "type": "function"
    },
    {
      "inputs": [
        {
          "internalType": "bytes32",
          "name": "beaconBlockRoot",
          "type": "bytes32"
        },
        {
          "internalType": "uint64",
          "name": "slot",
          "type": "uint64"
        },
        {
          "internalType": "bytes",
          "name": "firstPendingDepositSlotProof",
          "type": "bytes"
        }
      ],
      "name": "verifyFirstPendingDepositSlot",
      "outputs": [],
      "stateMutability": "view",
      "type": "function"
    },
    {
      "inputs": [
        {
          "internalType": "bytes32",
          "name": "balancesContainerRoot",
          "type": "bytes32"
        },
        {
          "internalType": "bytes32",
          "name": "validatorBalanceLeaf",
          "type": "bytes32"
        },
        {
          "internalType": "bytes",
          "name": "balanceProof",
          "type": "bytes"
        },
        {
          "internalType": "uint64",
          "name": "validatorIndex",
          "type": "uint64"
        }
      ],
      "name": "verifyValidatorBalance",
      "outputs": [
        {
          "internalType": "uint256",
          "name": "validatorBalanceGwei",
          "type": "uint256"
        }
      ],
      "stateMutability": "view",
      "type": "function"
    },
    {
      "inputs": [
        {
          "internalType": "bytes32",
          "name": "beaconBlockRoot",
          "type": "bytes32"
        },
        {
          "internalType": "bytes32",
          "name": "pubKeyHash",
          "type": "bytes32"
        },
        {
          "internalType": "bytes",
          "name": "validatorPubKeyProof",
          "type": "bytes"
        },
        {
          "internalType": "uint64",
          "name": "validatorIndex",
          "type": "uint64"
        },
        {
          "internalType": "address",
          "name": "withdrawalAddress",
          "type": "address"
        }
      ],
      "name": "verifyValidatorPubkey",
      "outputs": [],
      "stateMutability": "view",
      "type": "function"
    }
  ],
  "transactionHash": "0xc3cf2788a91f68898f69bd1239a996536629b59d0231771d0831f02ba9a5d79a",
  "args": [],
  "numDeployments": 3,
  "solcInputHash": "0aba374c50dae0e419bbff62c059ae0f",
  "bytecode": "0x6080604052348015600f57600080fd5b506109148061001f6000396000f3fe608060405234801561001057600080fd5b506004361061004c5760003560e01c806342bd31da14610051578063431c729b1461007657806391ad640d1461008b578063e915f0671461009e575b600080fd5b61006461005f366004610686565b6100b1565b60405190815260200160405180910390f35b6100896100843660046106ed565b6100ca565b005b610089610099366004610746565b6100dc565b6100896100ac366004610780565b6100e8565b60006100c086868686866100fe565b9695505050505050565b6100d6848484846101c3565b50505050565b6100d6848484846102de565b6100f6868686868686610370565b505050505050565b60008061010c600484610832565b90506001600160401b03811664800000000017610129878561048d565b925061016f86868080601f0160208091040260200160405190810160405280939291908181526020018383808284376000920191909152508c92508b915085905061052d565b6101b85760405162461bcd60e51b815260206004820152601560248201527424b73b30b634b2103130b630b731b290383937b7b360591b60448201526064015b60405180910390fd5b505095945050505050565b600061023f84603881811c60ff16602883811c61ff001691909117601884811c62ff00001691909117600885811c63ff000000169190911764ff000000009186901b919091161765ff00000000009185901b919091161766ff0000000000009184901b919091161760ff60381b9290911b919091161760c01b90565b905061028b83838080601f01602080910402602001604051908101604052809392919081815260200183838082843760009201919091525089925085915065017100000004905061052d565b6102d75760405162461bcd60e51b815260206004820152601d60248201527f496e76616c69642070656e64696e67206465706f7369742070726f6f6600000060448201526064016101af565b5050505050565b61032482828080601f0160208091040260200160405190810160405280939291908181526020018383808284376000920191909152508892508791506102cc905061052d565b6100d65760405162461bcd60e51b815260206004820152601f60248201527f496e76616c69642062616c616e636520636f6e7461696e65722070726f6f660060448201526064016101af565b6001600160401b03821666059600000000001760031b600060208682376000519050826001600160a01b0316816001600160a01b0316146103f35760405162461bcd60e51b815260206004820152601a60248201527f496e76616c6964207769746864726177616c206164647265737300000000000060448201526064016101af565b61043786868080601f0160208091040260200160405190810160405280939291908181526020018383808284376000920191909152508c92508b915086905061052d565b6104835760405162461bcd60e51b815260206004820152601e60248201527f496e76616c69642076616c696461746f72207075626b65792070726f6f66000060448201526064016101af565b5050505050505050565b60008061049b600484610860565b6104a690604061088e565b6001600160401b0316905061051a84821b60f881901c60e882901c61ff00161760d882901c62ff0000161760c882901c63ff000000161764ff0000000060b883901c161765ff000000000060a883901c161766ff000000000000609883901c161760ff60381b60889290921c919091161790565b6001600160401b03169150505b92915050565b60008361053b868585610545565b1495945050505050565b6000835160001415801561056457506020845161056291906108b7565b155b610581576040516313717da960e21b815260040160405180910390fd5b604080516020808201909252848152905b85518111610618576105a56002856108b7565b6000036105db578151600052808601516020526020826040600060026107d05a03fa6105d057600080fd5b600284049350610606565b8086015160005281516020526020826040600060026107d05a03fa6105ff57600080fd5b6002840493505b6106116020826108cb565b9050610592565b5051949350505050565b60008083601f84011261063457600080fd5b5081356001600160401b0381111561064b57600080fd5b60208301915083602082850101111561066357600080fd5b9250929050565b80356001600160401b038116811461068157600080fd5b919050565b60008060008060006080868803121561069e57600080fd5b853594506020860135935060408601356001600160401b038111156106c257600080fd5b6106ce88828901610622565b90945092506106e190506060870161066a565b90509295509295909350565b6000806000806060858703121561070357600080fd5b843593506107136020860161066a565b925060408501356001600160401b0381111561072e57600080fd5b61073a87828801610622565b95989497509550505050565b6000806000806060858703121561075c57600080fd5b843593506020850135925060408501356001600160401b0381111561072e57600080fd5b60008060008060008060a0878903121561079957600080fd5b863595506020870135945060408701356001600160401b038111156107bd57600080fd5b6107c989828a01610622565b90955093506107dc90506060880161066a565b915060808701356001600160a01b03811681146107f857600080fd5b809150509295509295509295565b634e487b7160e01b600052601260045260246000fd5b634e487b7160e01b600052601160045260246000fd5b60006001600160401b0383168061084b5761084b610806565b806001600160401b0384160491505092915050565b60006001600160401b0383168061087957610879610806565b806001600160401b0384160691505092915050565b6001600160401b0381811683821602908116908181146108b0576108b061081c565b5092915050565b6000826108c6576108c6610806565b500690565b808201808211156105275761052761081c56fea26469706673582212200fe8c600e4fa4116a54d2daf904dc43585c3dd81ea14cb71a614b1e419db91e264736f6c634300081c0033",
  "libraries": {},
  "devdoc": {
    "kind": "dev",
    "methods": {
      "verifyBalancesContainer(bytes32,bytes32,bytes)": {
        "params": {
          "balancesContainerLeaf": "The leaf node containing the balances container",
          "balancesContainerProof": "The merkle proof for the balances container to the beacon block root. This is the witness hashes concatenated together starting from the leaf node.",
          "beaconBlockRoot": "The root of the beacon block"
        }
      },
      "verifyFirstPendingDepositSlot(bytes32,uint64,bytes)": {
        "params": {
          "beaconBlockRoot": "The root of the beacon block",
          "firstPendingDepositSlotProof": "The merkle proof for the first pending deposit's slot against the beacon block root. This is the witness hashes concatenated together starting from the leaf node.",
          "slot": "The beacon chain slot to verify"
        }
      },
      "verifyValidatorBalance(bytes32,bytes32,bytes,uint64)": {
        "params": {
          "balanceProof": "The merkle proof for the validator balance against the root. This is the witness hashes concatenated together starting from the leaf node.",
          "balancesContainerRoot": "The merkle root of the Balances container.",
          "validatorBalanceLeaf": "The leaf node containing the validator balance with three other balances",
          "validatorIndex": "The validator index to verify the balance for"
        },
        "returns": {
          "validatorBalanceGwei": "The balance in Gwei of the validator at the given index"
        }
      },
      "verifyValidatorPubkey(bytes32,bytes32,bytes,uint64,address)": {
        "params": {
          "beaconBlockRoot": "The root of the beacon block",
          "pubKeyHash": "The beacon chain hash of the validator public key",
          "validatorIndex": "The validator index",
          "validatorPubKeyProof": "The merkle proof for the validator public key to the beacon block root. This is the witness hashes concatenated together starting from the leaf node."
        }
      }
    },
    "version": 1
  },
  "userdoc": {
    "kind": "user",
    "methods": {
      "verifyBalancesContainer(bytes32,bytes32,bytes)": {
        "notice": "Verifies the balances container against the beacon block root BeaconBlock.state.balances"
      },
      "verifyFirstPendingDepositSlot(bytes32,uint64,bytes)": {
        "notice": "Verifies the slot of the first pending deposit against the beacon block root BeaconBlock.state.PendingDeposits[0].slot"
      },
      "verifyValidatorBalance(bytes32,bytes32,bytes,uint64)": {
        "notice": "Verifies the validator balance against the root of the Balances container."
      },
      "verifyValidatorPubkey(bytes32,bytes32,bytes,uint64,address)": {
        "notice": "Verifies the validator public key against the beacon block root BeaconBlock.state.validators[validatorIndex].pubkey"
      }
    },
    "version": 1
  },
  "storageLayout": {
    "storage": [],
    "types": null
  }
}