{
  "address": "0x4d2480F017FCB3335970FC51810Fac2d64E6404f",
  "abi": [
    {
      "inputs": [
        {
          "components": [
            {
              "internalType": "address",
              "name": "platformAddress",
              "type": "address"
            },
            {
              "internalType": "address",
              "name": "vaultAddress",
              "type": "address"
            }
          ],
          "internalType": "struct InitializableAbstractStrategy.BaseStrategyConfig",
          "name": "_baseConfig",
          "type": "tuple"
        },
        {
          "internalType": "address",
          "name": "_wethAddress",
          "type": "address"
        },
        {
          "internalType": "address",
          "name": "_ssvToken",
          "type": "address"
        },
        {
          "internalType": "address",
          "name": "_ssvNetwork",
          "type": "address"
        },
        {
          "internalType": "address",
          "name": "_beaconChainDepositContract",
          "type": "address"
        },
        {
          "internalType": "address",
          "name": "_beaconProofs",
          "type": "address"
        },
        {
          "internalType": "uint64",
          "name": "_beaconGenesisTimestamp",
          "type": "uint64"
        }
      ],
      "stateMutability": "nonpayable",
      "type": "constructor"
    },
    {
      "anonymous": false,
      "inputs": [
        {
          "indexed": true,
          "internalType": "uint256",
          "name": "timestamp",
          "type": "uint256"
        },
        {
          "indexed": true,
          "internalType": "bytes32",
          "name": "blockRoot",
          "type": "bytes32"
        },
        {
          "indexed": false,
          "internalType": "uint256",
          "name": "ethBalance",
          "type": "uint256"
        }
      ],
      "name": "BalancesSnapped",
      "type": "event"
    },
    {
      "anonymous": false,
      "inputs": [
        {
          "indexed": true,
          "internalType": "uint64",
          "name": "timestamp",
          "type": "uint64"
        },
        {
          "indexed": false,
          "internalType": "uint256",
          "name": "totalDepositsWei",
          "type": "uint256"
        },
        {
          "indexed": false,
          "internalType": "uint256",
          "name": "totalValidatorBalance",
          "type": "uint256"
        },
        {
          "indexed": false,
          "internalType": "uint256",
          "name": "wethBalance",
          "type": "uint256"
        },
        {
          "indexed": false,
          "internalType": "uint256",
          "name": "ethBalance",
          "type": "uint256"
        }
      ],
      "name": "BalancesVerified",
      "type": "event"
    },
    {
      "anonymous": false,
      "inputs": [
        {
          "indexed": true,
          "internalType": "address",
          "name": "_asset",
          "type": "address"
        },
        {
          "indexed": false,
          "internalType": "address",
          "name": "_pToken",
          "type": "address"
        },
        {
          "indexed": false,
          "internalType": "uint256",
          "name": "_amount",
          "type": "uint256"
        }
      ],
      "name": "Deposit",
      "type": "event"
    },
    {
      "anonymous": false,
      "inputs": [
        {
          "indexed": true,
          "internalType": "bytes32",
          "name": "depositDataRoot",
          "type": "bytes32"
        },
        {
          "indexed": false,
          "internalType": "uint256",
          "name": "amountWei",
          "type": "uint256"
        }
      ],
      "name": "DepositVerified",
      "type": "event"
    },
    {
      "anonymous": false,
      "inputs": [
        {
          "indexed": true,
          "internalType": "bytes32",
          "name": "pubKeyHash",
          "type": "bytes32"
        },
        {
          "indexed": true,
          "internalType": "bytes32",
          "name": "depositDataRoot",
          "type": "bytes32"
        },
        {
          "indexed": false,
          "internalType": "bytes",
          "name": "pubKey",
          "type": "bytes"
        },
        {
          "indexed": false,
          "internalType": "uint256",
          "name": "amountWei",
          "type": "uint256"
        }
      ],
      "name": "ETHStaked",
      "type": "event"
    },
    {
      "anonymous": false,
      "inputs": [
        {
          "indexed": true,
          "internalType": "address",
          "name": "previousGovernor",
          "type": "address"
        },
        {
          "indexed": true,
          "internalType": "address",
          "name": "newGovernor",
          "type": "address"
        }
      ],
      "name": "GovernorshipTransferred",
      "type": "event"
    },
    {
      "anonymous": false,
      "inputs": [
        {
          "indexed": false,
          "internalType": "address",
          "name": "_oldHarvesterAddress",
          "type": "address"
        },
        {
          "indexed": false,
          "internalType": "address",
          "name": "_newHarvesterAddress",
          "type": "address"
        }
      ],
      "name": "HarvesterAddressesUpdated",
      "type": "event"
    },
    {
      "anonymous": false,
      "inputs": [
        {
          "indexed": true,
          "internalType": "address",
          "name": "_asset",
          "type": "address"
        },
        {
          "indexed": false,
          "internalType": "address",
          "name": "_pToken",
          "type": "address"
        }
      ],
      "name": "PTokenAdded",
      "type": "event"
    },
    {
      "anonymous": false,
      "inputs": [
        {
          "indexed": true,
          "internalType": "address",
          "name": "_asset",
          "type": "address"
        },
        {
          "indexed": false,
          "internalType": "address",
          "name": "_pToken",
          "type": "address"
        }
      ],
      "name": "PTokenRemoved",
      "type": "event"
    },
    {
      "anonymous": false,
      "inputs": [
        {
          "indexed": true,
          "internalType": "address",
          "name": "previousGovernor",
          "type": "address"
        },
        {
          "indexed": true,
          "internalType": "address",
          "name": "newGovernor",
          "type": "address"
        }
      ],
      "name": "PendingGovernorshipTransfer",
      "type": "event"
    },
    {
      "anonymous": false,
      "inputs": [
        {
          "indexed": true,
          "internalType": "address",
          "name": "newAddress",
          "type": "address"
        }
      ],
      "name": "RegistratorChanged",
      "type": "event"
    },
    {
      "anonymous": false,
      "inputs": [
        {
          "indexed": false,
          "internalType": "address[]",
          "name": "_oldAddresses",
          "type": "address[]"
        },
        {
          "indexed": false,
          "internalType": "address[]",
          "name": "_newAddresses",
          "type": "address[]"
        }
      ],
      "name": "RewardTokenAddressesUpdated",
      "type": "event"
    },
    {
      "anonymous": false,
      "inputs": [
        {
          "indexed": false,
          "internalType": "address",
          "name": "recipient",
          "type": "address"
        },
        {
          "indexed": false,
          "internalType": "address",
          "name": "rewardToken",
          "type": "address"
        },
        {
          "indexed": false,
          "internalType": "uint256",
          "name": "amount",
          "type": "uint256"
        }
      ],
      "name": "RewardTokenCollected",
      "type": "event"
    },
    {
      "anonymous": false,
      "inputs": [
        {
          "indexed": true,
          "internalType": "bytes32",
          "name": "pubKeyHash",
          "type": "bytes32"
        },
        {
          "indexed": false,
          "internalType": "uint64[]",
          "name": "operatorIds",
          "type": "uint64[]"
        }
      ],
      "name": "SSVValidatorRegistered",
      "type": "event"
    },
    {
      "anonymous": false,
      "inputs": [
        {
          "indexed": true,
          "internalType": "bytes32",
          "name": "pubKeyHash",
          "type": "bytes32"
        },
        {
          "indexed": false,
          "internalType": "uint64[]",
          "name": "operatorIds",
          "type": "uint64[]"
        }
      ],
      "name": "SSVValidatorRemoved",
      "type": "event"
    },
    {
      "anonymous": false,
      "inputs": [
        {
          "indexed": true,
          "internalType": "address",
          "name": "strategy",
          "type": "address"
        }
      ],
      "name": "SourceStrategyAdded",
      "type": "event"
    },
    {
      "anonymous": false,
      "inputs": [
        {
          "indexed": true,
          "internalType": "bytes32",
          "name": "pubKeyHash",
          "type": "bytes32"
        },
        {
          "indexed": true,
          "internalType": "uint64",
          "name": "validatorIndex",
          "type": "uint64"
        }
      ],
      "name": "ValidatorVerified",
      "type": "event"
    },
    {
      "anonymous": false,
      "inputs": [
        {
          "indexed": true,
          "internalType": "bytes32",
          "name": "pubKeyHash",
          "type": "bytes32"
        },
        {
          "indexed": false,
          "internalType": "uint256",
          "name": "amountWei",
          "type": "uint256"
        }
      ],
      "name": "ValidatorWithdraw",
      "type": "event"
    },
    {
      "anonymous": false,
      "inputs": [
        {
          "indexed": true,
          "internalType": "address",
          "name": "_asset",
          "type": "address"
        },
        {
          "indexed": false,
          "internalType": "address",
          "name": "_pToken",
          "type": "address"
        },
        {
          "indexed": false,
          "internalType": "uint256",
          "name": "_amount",
          "type": "uint256"
        }
      ],
      "name": "Withdrawal",
      "type": "event"
    },
    {
      "inputs": [],
      "name": "BEACON_CHAIN_DEPOSIT_CONTRACT",
      "outputs": [
        {
          "internalType": "address",
          "name": "",
          "type": "address"
        }
      ],
      "stateMutability": "view",
      "type": "function"
    },
    {
      "inputs": [],
      "name": "BEACON_GENESIS_TIMESTAMP",
      "outputs": [
        {
          "internalType": "uint64",
          "name": "",
          "type": "uint64"
        }
      ],
      "stateMutability": "view",
      "type": "function"
    },
    {
      "inputs": [],
      "name": "BEACON_PROOFS",
      "outputs": [
        {
          "internalType": "address",
          "name": "",
          "type": "address"
        }
      ],
      "stateMutability": "view",
      "type": "function"
    },
    {
      "inputs": [],
      "name": "DEPOSIT_AMOUNT_WEI",
      "outputs": [
        {
          "internalType": "uint256",
          "name": "",
          "type": "uint256"
        }
      ],
      "stateMutability": "view",
      "type": "function"
    },
    {
      "inputs": [],
      "name": "SSV_NETWORK",
      "outputs": [
        {
          "internalType": "address",
          "name": "",
          "type": "address"
        }
      ],
      "stateMutability": "view",
      "type": "function"
    },
    {
      "inputs": [],
      "name": "SSV_TOKEN",
      "outputs": [
        {
          "internalType": "address",
          "name": "",
          "type": "address"
        }
      ],
      "stateMutability": "view",
      "type": "function"
    },
    {
      "inputs": [],
      "name": "VAULT_ADDRESS",
      "outputs": [
        {
          "internalType": "address",
          "name": "",
          "type": "address"
        }
      ],
      "stateMutability": "view",
      "type": "function"
    },
    {
      "inputs": [],
      "name": "WETH",
      "outputs": [
        {
          "internalType": "address",
          "name": "",
          "type": "address"
        }
      ],
      "stateMutability": "view",
      "type": "function"
    },
    {
      "inputs": [
        {
          "internalType": "address",
          "name": "",
          "type": "address"
        }
      ],
      "name": "assetToPToken",
      "outputs": [
        {
          "internalType": "address",
          "name": "",
          "type": "address"
        }
      ],
      "stateMutability": "view",
      "type": "function"
    },
    {
      "inputs": [
        {
          "internalType": "address",
          "name": "_asset",
          "type": "address"
        }
      ],
      "name": "checkBalance",
      "outputs": [
        {
          "internalType": "uint256",
          "name": "balance",
          "type": "uint256"
        }
      ],
      "stateMutability": "view",
      "type": "function"
    },
    {
      "inputs": [],
      "name": "claimGovernance",
      "outputs": [],
      "stateMutability": "nonpayable",
      "type": "function"
    },
    {
      "inputs": [],
      "name": "collectRewardTokens",
      "outputs": [],
      "stateMutability": "nonpayable",
      "type": "function"
    },
    {
      "inputs": [
        {
          "internalType": "address",
          "name": "_asset",
          "type": "address"
        },
        {
          "internalType": "uint256",
          "name": "_amount",
          "type": "uint256"
        }
      ],
      "name": "deposit",
      "outputs": [],
      "stateMutability": "nonpayable",
      "type": "function"
    },
    {
      "inputs": [],
      "name": "depositAll",
      "outputs": [],
      "stateMutability": "nonpayable",
      "type": "function"
    },
    {
      "inputs": [],
      "name": "depositedWethAccountedFor",
      "outputs": [
        {
          "internalType": "uint256",
          "name": "",
          "type": "uint256"
        }
      ],
      "stateMutability": "view",
      "type": "function"
    },
    {
      "inputs": [
        {
          "internalType": "bytes32",
          "name": "",
          "type": "bytes32"
        }
      ],
      "name": "deposits",
      "outputs": [
        {
          "internalType": "bytes32",
          "name": "pubKeyHash",
          "type": "bytes32"
        },
        {
          "internalType": "uint64",
          "name": "amountGwei",
          "type": "uint64"
        },
        {
          "internalType": "uint64",
          "name": "slot",
          "type": "uint64"
        },
        {
          "internalType": "uint32",
          "name": "depositIndex",
          "type": "uint32"
        },
        {
          "internalType": "enum CompoundingValidatorManager.DepositStatus",
          "name": "status",
          "type": "uint8"
        }
      ],
      "stateMutability": "view",
      "type": "function"
    },
    {
      "inputs": [
        {
          "internalType": "uint256",
          "name": "",
          "type": "uint256"
        }
      ],
      "name": "depositsRoots",
      "outputs": [
        {
          "internalType": "bytes32",
          "name": "",
          "type": "bytes32"
        }
      ],
      "stateMutability": "view",
      "type": "function"
    },
    {
      "inputs": [],
      "name": "getPendingDeposits",
      "outputs": [
        {
          "components": [
            {
              "internalType": "bytes32",
              "name": "root",
              "type": "bytes32"
            },
            {
              "internalType": "bytes32",
              "name": "pubKeyHash",
              "type": "bytes32"
            },
            {
              "internalType": "uint64",
              "name": "amountGwei",
              "type": "uint64"
            },
            {
              "internalType": "uint64",
              "name": "slot",
              "type": "uint64"
            }
          ],
          "internalType": "struct CompoundingValidatorManager.DepositView[]",
          "name": "pendingDeposits",
          "type": "tuple[]"
        }
      ],
      "stateMutability": "view",
      "type": "function"
    },
    {
      "inputs": [],
      "name": "getRewardTokenAddresses",
      "outputs": [
        {
          "internalType": "address[]",
          "name": "",
          "type": "address[]"
        }
      ],
      "stateMutability": "view",
      "type": "function"
    },
    {
      "inputs": [],
      "name": "getVerifiedValidators",
      "outputs": [
        {
          "components": [
            {
              "internalType": "bytes32",
              "name": "pubKeyHash",
              "type": "bytes32"
            },
            {
              "internalType": "uint64",
              "name": "index",
              "type": "uint64"
            }
          ],
          "internalType": "struct CompoundingValidatorManager.ValidatorData[]",
          "name": "",
          "type": "tuple[]"
        }
      ],
      "stateMutability": "view",
      "type": "function"
    },
    {
      "inputs": [],
      "name": "governor",
      "outputs": [
        {
          "internalType": "address",
          "name": "",
          "type": "address"
        }
      ],
      "stateMutability": "view",
      "type": "function"
    },
    {
      "inputs": [],
      "name": "harvesterAddress",
      "outputs": [
        {
          "internalType": "address",
          "name": "",
          "type": "address"
        }
      ],
      "stateMutability": "view",
      "type": "function"
    },
    {
      "inputs": [
        {
          "internalType": "address[]",
          "name": "_rewardTokenAddresses",
          "type": "address[]"
        },
        {
          "internalType": "address[]",
          "name": "_assets",
          "type": "address[]"
        },
        {
          "internalType": "address[]",
          "name": "_pTokens",
          "type": "address[]"
        }
      ],
      "name": "initialize",
      "outputs": [],
      "stateMutability": "nonpayable",
      "type": "function"
    },
    {
      "inputs": [],
      "name": "isGovernor",
      "outputs": [
        {
          "internalType": "bool",
          "name": "",
          "type": "bool"
        }
      ],
      "stateMutability": "view",
      "type": "function"
    },
    {
      "inputs": [],
      "name": "lastSnapTimestamp",
      "outputs": [
        {
          "internalType": "uint64",
          "name": "",
          "type": "uint64"
        }
      ],
      "stateMutability": "view",
      "type": "function"
    },
    {
      "inputs": [],
      "name": "lastVerifiedEthBalance",
      "outputs": [
        {
          "internalType": "uint128",
          "name": "",
          "type": "uint128"
        }
      ],
      "stateMutability": "view",
      "type": "function"
    },
    {
      "inputs": [],
      "name": "platformAddress",
      "outputs": [
        {
          "internalType": "address",
          "name": "",
          "type": "address"
        }
      ],
      "stateMutability": "view",
      "type": "function"
    },
    {
      "inputs": [
        {
          "internalType": "bytes",
          "name": "publicKey",
          "type": "bytes"
        },
        {
          "internalType": "uint64[]",
          "name": "operatorIds",
          "type": "uint64[]"
        },
        {
          "internalType": "bytes",
          "name": "sharesData",
          "type": "bytes"
        },
        {
          "internalType": "uint256",
          "name": "ssvAmount",
          "type": "uint256"
        },
        {
          "components": [
            {
              "internalType": "uint32",
              "name": "validatorCount",
              "type": "uint32"
            },
            {
              "internalType": "uint64",
              "name": "networkFeeIndex",
              "type": "uint64"
            },
            {
              "internalType": "uint64",
              "name": "index",
              "type": "uint64"
            },
            {
              "internalType": "bool",
              "name": "active",
              "type": "bool"
            },
            {
              "internalType": "uint256",
              "name": "balance",
              "type": "uint256"
            }
          ],
          "internalType": "struct Cluster",
          "name": "cluster",
          "type": "tuple"
        }
      ],
      "name": "registerSsvValidator",
      "outputs": [],
      "stateMutability": "nonpayable",
      "type": "function"
    },
    {
      "inputs": [
        {
          "internalType": "uint256",
          "name": "_assetIndex",
          "type": "uint256"
        }
      ],
      "name": "removePToken",
      "outputs": [],
      "stateMutability": "nonpayable",
      "type": "function"
    },
    {
      "inputs": [
        {
          "internalType": "bytes",
          "name": "publicKey",
          "type": "bytes"
        },
        {
          "internalType": "uint64[]",
          "name": "operatorIds",
          "type": "uint64[]"
        },
        {
          "components": [
            {
              "internalType": "uint32",
              "name": "validatorCount",
              "type": "uint32"
            },
            {
              "internalType": "uint64",
              "name": "networkFeeIndex",
              "type": "uint64"
            },
            {
              "internalType": "uint64",
              "name": "index",
              "type": "uint64"
            },
            {
              "internalType": "bool",
              "name": "active",
              "type": "bool"
            },
            {
              "internalType": "uint256",
              "name": "balance",
              "type": "uint256"
            }
          ],
          "internalType": "struct Cluster",
          "name": "cluster",
          "type": "tuple"
        }
      ],
      "name": "removeSsvValidator",
      "outputs": [],
      "stateMutability": "nonpayable",
      "type": "function"
    },
    {
      "inputs": [
        {
          "internalType": "uint256",
          "name": "",
          "type": "uint256"
        }
      ],
      "name": "rewardTokenAddresses",
      "outputs": [
        {
          "internalType": "address",
          "name": "",
          "type": "address"
        }
      ],
      "stateMutability": "view",
      "type": "function"
    },
    {
      "inputs": [],
      "name": "safeApproveAllTokens",
      "outputs": [],
      "stateMutability": "nonpayable",
      "type": "function"
    },
    {
      "inputs": [
        {
          "internalType": "address",
          "name": "_harvesterAddress",
          "type": "address"
        }
      ],
      "name": "setHarvesterAddress",
      "outputs": [],
      "stateMutability": "nonpayable",
      "type": "function"
    },
    {
      "inputs": [
        {
          "internalType": "address",
          "name": "_asset",
          "type": "address"
        },
        {
          "internalType": "address",
          "name": "_pToken",
          "type": "address"
        }
      ],
      "name": "setPTokenAddress",
      "outputs": [],
      "stateMutability": "nonpayable",
      "type": "function"
    },
    {
      "inputs": [
        {
          "internalType": "address",
          "name": "_address",
          "type": "address"
        }
      ],
      "name": "setRegistrator",
      "outputs": [],
      "stateMutability": "nonpayable",
      "type": "function"
    },
    {
      "inputs": [
        {
          "internalType": "address[]",
          "name": "_rewardTokenAddresses",
          "type": "address[]"
        }
      ],
      "name": "setRewardTokenAddresses",
      "outputs": [],
      "stateMutability": "nonpayable",
      "type": "function"
    },
    {
      "inputs": [],
      "name": "snapBalances",
      "outputs": [],
      "stateMutability": "nonpayable",
      "type": "function"
    },
    {
      "inputs": [
        {
          "internalType": "bytes32",
          "name": "",
          "type": "bytes32"
        }
      ],
      "name": "snappedBalances",
      "outputs": [
        {
          "internalType": "uint64",
          "name": "timestamp",
          "type": "uint64"
        },
        {
          "internalType": "uint128",
          "name": "ethBalance",
          "type": "uint128"
        }
      ],
      "stateMutability": "view",
      "type": "function"
    },
    {
      "inputs": [
        {
          "components": [
            {
              "internalType": "bytes",
              "name": "pubkey",
              "type": "bytes"
            },
            {
              "internalType": "bytes",
              "name": "signature",
              "type": "bytes"
            },
            {
              "internalType": "bytes32",
              "name": "depositDataRoot",
              "type": "bytes32"
            }
          ],
          "internalType": "struct ValidatorStakeData",
          "name": "validator",
          "type": "tuple"
        },
        {
          "internalType": "uint64",
          "name": "depositAmountGwei",
          "type": "uint64"
        }
      ],
      "name": "stakeEth",
      "outputs": [],
      "stateMutability": "nonpayable",
      "type": "function"
    },
    {
      "inputs": [
        {
          "internalType": "address",
          "name": "_asset",
          "type": "address"
        }
      ],
      "name": "supportsAsset",
      "outputs": [
        {
          "internalType": "bool",
          "name": "",
          "type": "bool"
        }
      ],
      "stateMutability": "view",
      "type": "function"
    },
    {
      "inputs": [
        {
          "internalType": "address",
          "name": "_newGovernor",
          "type": "address"
        }
      ],
      "name": "transferGovernance",
      "outputs": [],
      "stateMutability": "nonpayable",
      "type": "function"
    },
    {
      "inputs": [
        {
          "internalType": "address",
          "name": "_asset",
          "type": "address"
        },
        {
          "internalType": "uint256",
          "name": "_amount",
          "type": "uint256"
        }
      ],
      "name": "transferToken",
      "outputs": [],
      "stateMutability": "nonpayable",
      "type": "function"
    },
    {
      "inputs": [],
      "name": "validatorRegistrator",
      "outputs": [
        {
          "internalType": "address",
          "name": "",
          "type": "address"
        }
      ],
      "stateMutability": "view",
      "type": "function"
    },
    {
      "inputs": [
        {
          "internalType": "bytes32",
          "name": "",
          "type": "bytes32"
        }
      ],
      "name": "validatorState",
      "outputs": [
        {
          "internalType": "enum CompoundingValidatorManager.VALIDATOR_STATE",
          "name": "",
          "type": "uint8"
        }
      ],
      "stateMutability": "view",
      "type": "function"
    },
    {
      "inputs": [
        {
          "internalType": "bytes",
          "name": "publicKey",
          "type": "bytes"
        },
        {
          "internalType": "uint64",
          "name": "amountGwei",
          "type": "uint64"
        }
      ],
      "name": "validatorWithdrawal",
      "outputs": [],
      "stateMutability": "payable",
      "type": "function"
    },
    {
      "inputs": [],
      "name": "vaultAddress",
      "outputs": [
        {
          "internalType": "address",
          "name": "",
          "type": "address"
        }
      ],
      "stateMutability": "view",
      "type": "function"
    },
    {
      "inputs": [
        {
          "components": [
            {
              "internalType": "bytes32",
              "name": "blockRoot",
              "type": "bytes32"
            },
            {
              "internalType": "uint64",
              "name": "firstPendingDepositSlot",
              "type": "uint64"
            },
            {
              "internalType": "bytes",
              "name": "firstPendingDepositSlotProof",
              "type": "bytes"
            },
            {
              "internalType": "bytes32",
              "name": "balancesContainerRoot",
              "type": "bytes32"
            },
            {
              "internalType": "bytes",
              "name": "balancesContainerProof",
              "type": "bytes"
            },
            {
              "internalType": "bytes32[]",
              "name": "validatorBalanceLeaves",
              "type": "bytes32[]"
            },
            {
              "internalType": "bytes[]",
              "name": "validatorBalanceProofs",
              "type": "bytes[]"
            }
          ],
          "internalType": "struct CompoundingValidatorManager.VerifyBalancesParams",
          "name": "params",
          "type": "tuple"
        }
      ],
      "name": "verifyBalances",
      "outputs": [],
      "stateMutability": "nonpayable",
      "type": "function"
    },
    {
      "inputs": [
        {
          "internalType": "bytes32",
          "name": "depositDataRoot",
          "type": "bytes32"
        },
        {
          "internalType": "uint64",
          "name": "verificationSlot",
          "type": "uint64"
        },
        {
          "internalType": "uint64",
          "name": "firstPendingDepositSlot",
          "type": "uint64"
        },
        {
          "internalType": "bytes",
          "name": "firstPendingDepositSlotProof",
          "type": "bytes"
        }
      ],
      "name": "verifyDeposit",
      "outputs": [],
      "stateMutability": "nonpayable",
      "type": "function"
    },
    {
      "inputs": [
        {
          "internalType": "uint64",
          "name": "nextBlockTimestamp",
          "type": "uint64"
        },
        {
          "internalType": "uint64",
          "name": "validatorIndex",
          "type": "uint64"
        },
        {
          "internalType": "bytes32",
          "name": "pubKeyHash",
          "type": "bytes32"
        },
        {
          "internalType": "bytes",
          "name": "validatorPubKeyProof",
          "type": "bytes"
        }
      ],
      "name": "verifyValidator",
      "outputs": [],
      "stateMutability": "nonpayable",
      "type": "function"
    },
    {
      "inputs": [
        {
          "internalType": "address",
          "name": "_recipient",
          "type": "address"
        },
        {
          "internalType": "address",
          "name": "_asset",
          "type": "address"
        },
        {
          "internalType": "uint256",
          "name": "_amount",
          "type": "uint256"
        }
      ],
      "name": "withdraw",
      "outputs": [],
      "stateMutability": "nonpayable",
      "type": "function"
    },
    {
      "inputs": [],
      "name": "withdrawAll",
      "outputs": [],
      "stateMutability": "nonpayable",
      "type": "function"
    },
    {
      "inputs": [
        {
          "internalType": "uint64[]",
          "name": "operatorIds",
          "type": "uint64[]"
        },
        {
          "internalType": "uint256",
          "name": "ssvAmount",
          "type": "uint256"
        },
        {
          "components": [
            {
              "internalType": "uint32",
              "name": "validatorCount",
              "type": "uint32"
            },
            {
              "internalType": "uint64",
              "name": "networkFeeIndex",
              "type": "uint64"
            },
            {
              "internalType": "uint64",
              "name": "index",
              "type": "uint64"
            },
            {
              "internalType": "bool",
              "name": "active",
              "type": "bool"
            },
            {
              "internalType": "uint256",
              "name": "balance",
              "type": "uint256"
            }
          ],
          "internalType": "struct Cluster",
          "name": "cluster",
          "type": "tuple"
        }
      ],
      "name": "withdrawSSV",
      "outputs": [],
      "stateMutability": "nonpayable",
      "type": "function"
    },
    {
      "stateMutability": "payable",
      "type": "receive"
    }
  ],
  "transactionHash": "0xb662ec100dda4641ad179ff26f34afdf04d613d38f0e86a50286dd3b03d33473",
  "args": [
    [
      "0x0000000000000000000000000000000000000000",
      "0xD0cC28bc8F4666286F3211e465ecF1fe5c72AC8B"
    ],
    "0x2387fD72C1DA19f6486B843F5da562679FbB4057",
    "0x9F5d4Ec84fC4785788aB44F9de973cF34F7A038e",
    "0x58410Bef803ECd7E63B23664C586A6DB72DAf59c",
    "0x00000000219ab540356cBB839Cbe05303d7705Fa",
    "0x1df1B71c5204DB0e5f3f7035A57285D53454C710",
    1742213400
  ],
  "numDeployments": 10,
  "solcInputHash": "96086a45653be1c24ccc04a751597ca0",
  "bytecode": "0x6101a060405234801561001157600080fd5b50604051615ba0380380615ba083398101604081905261003091610133565b60208701516001600160a01b0380881660805280851660a05280861660c05280821660e0528316610100526001600160401b03821661012081905288918891869088908790879042116100c95760405162461bcd60e51b815260206004820152601960248201527f496e76616c69642067656e657369732074696d657374616d7000000000000000604482015260640160405180910390fd5b505084516001600160a01b039081166101405260209095015185166101605250505050949094166101805250610210945050505050565b80516001600160a01b038116811461011757600080fd5b919050565b80516001600160401b038116811461011757600080fd5b600080600080600080600087890361010081121561015057600080fd5b604081121561015e57600080fd5b50604080519081016001600160401b038111828210171561018f57634e487b7160e01b600052604160045260246000fd5b60405261019b89610100565b81526101a960208a01610100565b602082015296506101bc60408901610100565b95506101ca60608901610100565b94506101d860808901610100565b93506101e660a08901610100565b92506101f460c08901610100565b915061020260e0890161011c565b905092959891949750929550565b60805160a05160c05160e051610100516101205161014051610160516101805161582b61037560003960008181610353015281816116d00152612a1601526000818161055a01528181611cfd015281816125030152818161267b01528181613022015261310701526000610ad501526000818161089d01528181611b2e01526134bb01526000818161078c01528181610d4a01528181610f970152818161103f0152818161146f0152613521015260006107f5015260008181610849015281816116a001528181612412015281816129e601528181612ac10152612c37015260008181610a290152611a580152600081816108fc0152818161096301528181610bd4015281816112b0015281816117b101528181611d7201528181612164015281816121c8015281816125f10152818161269c01528181613097015281816131920152818161323d01528181613b0601528181614330015261446a015261582b6000f3fe6080604052600436106103035760003560e01c80637da9982a11610190578063bb1b918d116100dc578063d1699c2611610095578063dbe55e561161006f578063dbe55e5614610ac3578063de5f626814610af7578063eeb9070314610b0c578063f6ca71b014610b2c57600080fd5b8063d1699c2614610a61578063d38bfff414610a83578063d9caed1214610aa357600080fd5b8063bb1b918d146109a5578063c2e1e3f4146109c5578063c7af3352146109e5578063cb60d556146109fa578063cceab75014610a17578063d059f6ef14610a4b57600080fd5b80639566fe8311610149578063aa388af611610123578063aa388af6146108df578063ad1728cb1461093c578063ad5c464814610951578063b6e2b5201461098557600080fd5b80639566fe831461086b578063969987321461088b57806396d538bb146108bf57600080fd5b80637da9982a1461077a578063853828b6146107ae57806387bae867146107c35780639092c31c146107e35780639136616a14610817578063916497511461083757600080fd5b806347e7ef241161024f5780635e1c519b116102085780636874469d116101e25780636874469d146107055780636e811d381461071a57806371a735f31461073a5780637b2d9b2c1461075a57600080fd5b80635e1c519b146106955780635f515226146106b757806367c7066c146106e557600080fd5b806347e7ef24146105bc5780634f31e760146105dc578063522e42451461061957806359ff41581461062c5780635a063f631461066b5780635d36b1901461068057600080fd5b806312b92fa8116102bc5780633d4dff7b116102965780633d4dff7b146104d4578063430bf08a14610548578063435356d11461057c5780634583ef101461059c57600080fd5b806312b92fa81461040d57806321e1bef9146104455780633ca128bf146104b457600080fd5b80630c340a241461030f5780630df1ecfd146103415780630ed57b3a146103755780630fc3b4c4146103975780631072cbea146103cd578063114dbf76146103ed57600080fd5b3661030a57005b600080fd5b34801561031b57600080fd5b50610324610b4e565b6040516001600160a01b0390911681526020015b60405180910390f35b34801561034d57600080fd5b506103247f000000000000000000000000000000000000000000000000000000000000000081565b34801561038157600080fd5b506103956103903660046146ad565b610b6b565b005b3480156103a357600080fd5b506103246103b23660046146e0565b606f602052600090815260409020546001600160a01b031681565b3480156103d957600080fd5b506103956103e83660046146fb565b610ba6565b3480156103f957600080fd5b50610395610408366004614725565b610c61565b34801561041957600080fd5b5060395461042d906001600160401b031681565b6040516001600160401b039091168152602001610338565b34801561045157600080fd5b5061048d61046036600461475f565b6038602052600090815260409020546001600160401b03811690600160401b90046001600160801b031682565b604080516001600160401b0390931683526001600160801b03909116602083015201610338565b3480156104c057600080fd5b506103956104cf3660046147d7565b6113e1565b3480156104e057600080fd5b506105376104ef36600461475f565b603460205260009081526040902080546001909101546001600160401b0380821691600160401b810490911690600160801b810463ffffffff1690600160a01b900460ff1685565b60405161033895949392919061485b565b34801561055457600080fd5b506103247f000000000000000000000000000000000000000000000000000000000000000081565b34801561058857600080fd5b50610395610597366004614982565b6115bc565b3480156105a857600080fd5b506103956105b7366004614a13565b611756565b3480156105c857600080fd5b506103956105d73660046146fb565b611cf2565b3480156105e857600080fd5b5061060c6105f736600461475f565b60376020526000908152604090205460ff1681565b6040516103389190614a5c565b610395610627366004614a76565b611e6f565b34801561063857600080fd5b5060395461065390600160401b90046001600160801b031681565b6040516001600160801b039091168152602001610338565b34801561067757600080fd5b50610395611fa6565b34801561068c57600080fd5b50610395612045565b3480156106a157600080fd5b506106aa6120eb565b6040516103389190614ac9565b3480156106c357600080fd5b506106d76106d23660046146e0565b612160565b604051908152602001610338565b3480156106f157600080fd5b50607354610324906001600160a01b031681565b34801561071157600080fd5b5061039561225e565b34801561072657600080fd5b506103956107353660046146e0565b612290565b34801561074657600080fd5b50610395610755366004614b7d565b6122fe565b34801561076657600080fd5b5061032461077536600461475f565b6124ce565b34801561078657600080fd5b506103247f000000000000000000000000000000000000000000000000000000000000000081565b3480156107ba57600080fd5b506103956124f8565b3480156107cf57600080fd5b50603354610324906001600160a01b031681565b3480156107ef57600080fd5b506103247f000000000000000000000000000000000000000000000000000000000000000081565b34801561082357600080fd5b5061039561083236600461475f565b6126cc565b34801561084357600080fd5b506103247f000000000000000000000000000000000000000000000000000000000000000081565b34801561087757600080fd5b506106d761088636600461475f565b612897565b34801561089757600080fd5b5061042d7f000000000000000000000000000000000000000000000000000000000000000081565b3480156108cb57600080fd5b506103956108da366004614c02565b6128b8565b3480156108eb57600080fd5b5061092c6108fa3660046146e0565b7f00000000000000000000000000000000000000000000000000000000000000006001600160a01b0390811691161490565b6040519015158152602001610338565b34801561094857600080fd5b506103956129cf565b34801561095d57600080fd5b506103247f000000000000000000000000000000000000000000000000000000000000000081565b34801561099157600080fd5b506103956109a0366004614cf0565b612a86565b3480156109b157600080fd5b506103956109c0366004614d9e565b612b31565b3480156109d157600080fd5b506103956109e03660046146e0565b612cf9565b3480156109f157600080fd5b5061092c612d86565b348015610a0657600080fd5b506106d76801bc16d674ec80000081565b348015610a2357600080fd5b506103247f000000000000000000000000000000000000000000000000000000000000000081565b348015610a5757600080fd5b506106d7603a5481565b348015610a6d57600080fd5b50610a76612db7565b6040516103389190614e5c565b348015610a8f57600080fd5b50610395610a9e3660046146e0565b612f73565b348015610aaf57600080fd5b50610395610abe366004614ecc565b613017565b348015610acf57600080fd5b506103247f000000000000000000000000000000000000000000000000000000000000000081565b348015610b0357600080fd5b506103956130fc565b348015610b1857600080fd5b50610395610b27366004614f09565b613293565b348015610b3857600080fd5b50610b416136b7565b6040516103389190614f5a565b6000610b666000805160206157d68339815191525490565b905090565b610b73612d86565b610b985760405162461bcd60e51b8152600401610b8f90614f9b565b60405180910390fd5b610ba28282613719565b5050565b610bae612d86565b610bca5760405162461bcd60e51b8152600401610b8f90614f9b565b6001600160a01b037f0000000000000000000000000000000000000000000000000000000000000000811690831603610c455760405162461bcd60e51b815260206004820152601f60248201527f43616e6e6f74207472616e7366657220737570706f72746564206173736574006044820152606401610b8f565b610ba2610c50610b4e565b6001600160a01b0384169083613878565b80356000908152603860209081526040918290208251808401909352546001600160401b038082168452600160401b9091046001600160801b03169183019190915260395416610ce95760405162461bcd60e51b81526020600482015260136024820152724e6f20736e61707065642062616c616e63657360681b6044820152606401610b8f565b60395481516001600160401b03908116911614610d355760405162461bcd60e51b815260206004820152600a60248201526905374616c6520736e61760b41b6044820152606401610b8f565b60355460008115610ed6576001600160a01b037f00000000000000000000000000000000000000000000000000000000000000001663431c729b8535610d816040880160208901614fd2565b610d8e6040890189614fed565b6040518563ffffffff1660e01b8152600401610dad949392919061505c565b60006040518083038186803b158015610dc557600080fd5b505afa158015610dd9573d6000803e3d6000fd5b5050505060005b82811015610ed457600060358281548110610dfd57610dfd61508f565b600091825260208083209091015480835260348252604092839020600101549093506001600160401b03600160401b9091041691610e4091908901908901614fd2565b6001600160401b031610610e965760405162461bcd60e51b815260206004820152601a60248201527f4465706f73697420686173206265656e2070726f6365737365640000000000006044820152606401610b8f565b600081815260346020526040902060010154610ebf906001600160401b0316633b9aca006150bb565b610ec990846150d2565b925050600101610de0565b505b603654600081156112985781610eef60c08801886150e5565b905014610f375760405162461bcd60e51b8152602060048201526016602482015275496e76616c69642062616c616e63652070726f6f667360501b6044820152606401610b8f565b81610f4560a08801886150e5565b905014610f8d5760405162461bcd60e51b8152602060048201526016602482015275496e76616c69642062616c616e6365206c656176657360501b6044820152606401610b8f565b6001600160a01b037f0000000000000000000000000000000000000000000000000000000000000000166391ad640d87356060890135610fd060808b018b614fed565b6040518563ffffffff1660e01b8152600401610fef949392919061512e565b60006040518083038186803b15801561100757600080fd5b505afa15801561101b573d6000803e3d6000fd5b5084925050505b8015611296576110318161514e565b905060006001600160a01b037f0000000000000000000000000000000000000000000000000000000000000000166342bd31da60608a013561107660a08c018c6150e5565b868181106110865761108661508f565b905060200201358b8060c0019061109d91906150e5565b878181106110ad576110ad61508f565b90506020028101906110bf9190614fed565b603688815481106110d2576110d261508f565b60009182526020909120600160029092020101546040516001600160e01b031960e088901b16815261111495949392916001600160401b031690600401615165565b602060405180830381865afa158015611131573d6000803e3d6000fd5b505050506040513d601f19601f8201168201806040525081019061115591906151a0565b90508060000361127657600460376000603685815481106111785761117861508f565b6000918252602080832060029092029091015483528201929092526040019020805460ff191660018360058111156111b2576111b2614845565b02179055506111c26001856151b9565b9350603684815481106111d7576111d761508f565b9060005260206000209060020201603683815481106111f8576111f861508f565b6000918252602090912082546002909202019081556001918201549101805467ffffffffffffffff19166001600160401b039092169190911790556036805480611244576112446151cc565b600082815260208120600260001990930192830201908155600101805467ffffffffffffffff19169055905550611022565b61128481633b9aca006150bb565b61128e90846150d2565b925050611022565b505b6040516370a0823160e01b81523060048201526000907f00000000000000000000000000000000000000000000000000000000000000006001600160a01b0316906370a0823190602401602060405180830381865afa1580156112ff573d6000803e3d6000fd5b505050506040513d601f19601f8201168201806040525081019061132391906151a0565b905061135186602001516001600160801b0316838661134291906150d2565b61134c91906150d2565b6138cf565b603980546001600160c01b031916600160401b6001600160801b039384160267ffffffffffffffff1916179055865160208089015160408051898152928301879052820185905290921660608301526001600160401b0316907f0c8d17ee94944e2d7c5bdd4bdcc82f2ebaef19912a7602280dd64acf4ad0562b906080015b60405180910390a250505050505050565b600260008481526037602052604090205460ff16600581111561140657611406614845565b1461144a5760405162461bcd60e51b815260206004820152601460248201527315985b1a59185d1bdc881b9bdd081cdd185ad95960621b6044820152606401610b8f565b600061145586613938565b60405163e915f06760e01b81529091506001600160a01b037f0000000000000000000000000000000000000000000000000000000000000000169063e915f067906114ae9084908890889088908c9030906004016151e2565b60006040518083038186803b1580156114c657600080fd5b505afa1580156114da573d6000803e3d6000fd5b50505060008581526037602090815260408083208054600360ff19909116179055805180820182528881526001600160401b038a81169382018481526036805460018101825590875292517f4a11f94e20a93c79f6ec743a1954ec4fc2c08429ae2122118bf234b2185c81b8600290940293840155517f4a11f94e20a93c79f6ec743a1954ec4fc2c08429ae2122118bf234b2185c81b9909201805467ffffffffffffffff1916929091169190911790555190925086917f076b8e8f0bebfc854ee5a55b3d61fe1a3d3e701fb05524880aefc460437bf8ec91a3505050505050565b6115c4612d86565b6115e05760405162461bcd60e51b8152600401610b8f90614f9b565b600054610100900460ff16806115f9575060005460ff16155b61165c5760405162461bcd60e51b815260206004820152602e60248201527f496e697469616c697a61626c653a20636f6e747261637420697320616c72656160448201526d191e481a5b9a5d1a585b1a5e995960921b6064820152608401610b8f565b600054610100900460ff1615801561167e576000805461ffff19166101011790555b611689848484613a3d565b60405163095ea7b360e01b81526001600160a01b037f00000000000000000000000000000000000000000000000000000000000000008116600483015260001960248301527f0000000000000000000000000000000000000000000000000000000000000000169063095ea7b3906044016020604051808303816000875af1158015611719573d6000803e3d6000fd5b505050506040513d601f19601f8201168201806040525081019061173d919061522e565b508015611750576000805461ff00191690555b50505050565b6033546001600160a01b031633146117805760405162461bcd60e51b8152600401610b8f9061524b565b60006117996001600160401b038316633b9aca006150bb565b6040516370a0823160e01b81523060048201529091507f00000000000000000000000000000000000000000000000000000000000000006001600160a01b0316906370a0823190602401602060405180830381865afa158015611800573d6000803e3d6000fd5b505050506040513d601f19601f8201168201806040525081019061182491906151a0565b8111156118675760405162461bcd60e51b8152602060048201526011602482015270092dce6eaccccd2c6d2cadce840ae8aa89607b1b6044820152606401610b8f565b61187081613af0565b60006118b961187f8580614fed565b8080601f016020809104026020016040519081016040528093929190818152602001838380828437600092019190915250613bf592505050565b60008181526037602052604090205490915060ff1660018160058111156118e2576118e2614845565b14806118ff575060038160058111156118fd576118fd614845565b145b61194b5760405162461bcd60e51b815260206004820152601a60248201527f4e6f742072656769737465726564206f722076657269666965640000000000006044820152606401610b8f565b600381600581111561195f5761195f614845565b148061197357506801bc16d674ec80000083145b6119bf5760405162461bcd60e51b815260206004820152601c60248201527f496e76616c6964206669727374206465706f73697420616d6f756e74000000006044820152606401610b8f565b670de0b6b3a7640000831015611a0b5760405162461bcd60e51b815260206004820152601160248201527011195c1bdcda5d081d1bdbc81cdb585b1b607a1b6044820152606401610b8f565b60408051600160f91b60208201526000602182018190526bffffffffffffffffffffffff193060601b16602c830152910160408051601f1981840301815291905290506001600160a01b037f000000000000000000000000000000000000000000000000000000000000000016632289511885611a888980614fed565b85611a9660208d018d614fed565b8d604001356040518863ffffffff1660e01b8152600401611abc969594939291906152c4565b6000604051808303818588803b158015611ad557600080fd5b505af1158015611ae9573d6000803e3d6000fd5b5060019350611af792505050565b826005811115611b0957611b09614845565b03611b28576000838152603760205260409020805460ff191660021790555b6000600c7f0000000000000000000000000000000000000000000000000000000000000000611b5642613c6a565b611b609190615313565b611b6a9190615332565b90506040518060a00160405280858152602001876001600160401b03168152602001826001600160401b03168152602001611ba9603580549050613cd2565b63ffffffff1681526020016001905260408089013560009081526034602090815290829020835181559083015160018201805493850151606086015163ffffffff16600160801b0263ffffffff60801b196001600160401b03928316600160401b026001600160801b03199097169290941691909117949094179182168417815560808501519293909160ff60a01b1990911664ffffffffff60801b1990911617600160a01b836002811115611c6157611c61614845565b0217905550506035805460018101825560009190915260408901357fcfa4bec1d3298408bb5afcfcd9c430549c5b31f8aa5c5848151c0a55f473c34d9091018190559050847faca97428a1d7f2b7c4cee2fbe4feda457e132b404b0c9c3ff73bf7a988d889a8611cd18a80614fed565b89604051611ce19392919061536e565b60405180910390a350505050505050565b336001600160a01b037f00000000000000000000000000000000000000000000000000000000000000001614611d3a5760405162461bcd60e51b8152600401610b8f90615392565b6000805160206157b683398151915280546001198101611d6c5760405162461bcd60e51b8152600401610b8f906153c9565b600282557f00000000000000000000000000000000000000000000000000000000000000006001600160a01b0316846001600160a01b031614611dc15760405162461bcd60e51b8152600401610b8f906153f1565b60008311611e0a5760405162461bcd60e51b81526020600482015260166024820152754d757374206465706f73697420736f6d657468696e6760501b6044820152606401610b8f565b82603a6000828254611e1c91906150d2565b90915550506040805160008152602081018590526001600160a01b038616917f5548c837ab068cf56a2c2479df0882a4922fd203edb7517321831d95078c5f62910160405180910390a250600190555050565b6033546001600160a01b03163314611e995760405162461bcd60e51b8152600401610b8f9061524b565b6000611eda84848080601f016020809104026020016040519081016040528093929190818152602001838380828437600092019190915250613bf592505050565b60008181526037602052604090205490915060ff166003816005811115611f0357611f03614845565b14611f495760405162461bcd60e51b815260206004820152601660248201527515985b1a59185d1bdc881b9bdd081d995c9a599a595960521b6044820152606401610b8f565b611f54858585613d37565b50817f8dd83105dbd4263d41c76e5d414905babdd3f035bd2031f6ce8895715595979c611f8e6001600160401b038616633b9aca006150bb565b60405190815260200160405180910390a25050505050565b6073546001600160a01b031633146120005760405162461bcd60e51b815260206004820152601b60248201527f43616c6c6572206973206e6f74207468652048617276657374657200000000006044820152606401610b8f565b6000805160206157b6833981519152805460011981016120325760405162461bcd60e51b8152600401610b8f906153c9565b6002825561203e613e7c565b5060019055565b7f44c4d30b2eaad5130ad70c3ba6972730566f3e6359ab83e800d905c61b1c51db546001600160a01b0316336001600160a01b0316146120e05760405162461bcd60e51b815260206004820152603060248201527f4f6e6c79207468652070656e64696e6720476f7665726e6f722063616e20636f60448201526f6d706c6574652074686520636c61696d60801b6064820152608401610b8f565b6120e933613ebb565b565b60606036805480602002602001604051908101604052809291908181526020016000905b828210156121575760008481526020908190206040805180820190915260028502909101805482526001908101546001600160401b031682840152908352909201910161210f565b50505050905090565b60007f00000000000000000000000000000000000000000000000000000000000000006001600160a01b0316826001600160a01b0316146121b35760405162461bcd60e51b8152600401610b8f906153f1565b6040516370a0823160e01b81523060048201527f00000000000000000000000000000000000000000000000000000000000000006001600160a01b0316906370a0823190602401602060405180830381865afa158015612217573d6000803e3d6000fd5b505050506040513d601f19601f8201168201806040525081019061223b91906151a0565b6039546122589190600160401b90046001600160801b03166150d2565b92915050565b6033546001600160a01b031633146122885760405162461bcd60e51b8152600401610b8f9061524b565b6120e9613f1a565b612298612d86565b6122b45760405162461bcd60e51b8152600401610b8f90614f9b565b603380546001600160a01b0319166001600160a01b0383169081179091556040517f83f29c79feb71f8fba9d0fbc4ba5f0982a28b6b1e868b3fc50e6400d100bca0f90600090a250565b6033546001600160a01b031633146123285760405162461bcd60e51b8152600401610b8f9061524b565b600061236986868080601f016020809104026020016040519081016040528093929190818152602001838380828437600092019190915250613bf592505050565b60008181526037602052604090205490915060ff16600481600581111561239257612392614845565b14806123af575060018160058111156123ad576123ad614845565b145b6123fb5760405162461bcd60e51b815260206004820152601c60248201527f56616c696461746f72206e6f742072656764206f7220657869746564000000006044820152606401610b8f565b6040516312b3fc1960e01b81526001600160a01b037f000000000000000000000000000000000000000000000000000000000000000016906312b3fc199061244f908a908a908a908a908a906004016154c9565b600060405180830381600087803b15801561246957600080fd5b505af115801561247d573d6000803e3d6000fd5b50505060008381526037602052604090819020805460ff19166005179055518391507f63d54ea43f163d6e28fc23abec67eb7c3294e7e6f0620955a73cd8d17c7367f4906113d09088908890615500565b607481815481106124de57600080fd5b6000918252602090912001546001600160a01b0316905081565b336001600160a01b037f00000000000000000000000000000000000000000000000000000000000000001614806125475750612532610b4e565b6001600160a01b0316336001600160a01b0316145b61259f5760405162461bcd60e51b815260206004820152602360248201527f43616c6c6572206973206e6f7420746865205661756c74206f7220476f7665726044820152623737b960e91b6064820152608401610b8f565b6000805160206157b6833981519152805460011981016125d15760405162461bcd60e51b8152600401610b8f906153c9565b600282556040516370a0823160e01b8152306004820152479060009082907f00000000000000000000000000000000000000000000000000000000000000006001600160a01b0316906370a0823190602401602060405180830381865afa158015612640573d6000803e3d6000fd5b505050506040513d601f19601f8201168201806040525081019061266491906151a0565b61266e91906150d2565b905080156126c2576126c27f00000000000000000000000000000000000000000000000000000000000000007f00000000000000000000000000000000000000000000000000000000000000008385614013565b5050600182555050565b6126d4612d86565b6126f05760405162461bcd60e51b8152600401610b8f90614f9b565b60705481106127315760405162461bcd60e51b815260206004820152600d60248201526c092dcecc2d8d2c840d2dcc8caf609b1b6044820152606401610b8f565b6000607082815481106127465761274661508f565b60009182526020808320909101546001600160a01b03908116808452606f90925260409092205460705491935090911690612783906001906151b9565b831015612805576070805461279a906001906151b9565b815481106127aa576127aa61508f565b600091825260209091200154607080546001600160a01b0390921691859081106127d6576127d661508f565b9060005260206000200160006101000a8154816001600160a01b0302191690836001600160a01b031602179055505b6070805480612816576128166151cc565b60008281526020808220600019908401810180546001600160a01b031990811690915593019093556001600160a01b03858116808352606f855260409283902080549094169093559051908416815290917f16b7600acff27e39a8a96056b3d533045298de927507f5c1d97e4accde60488c910160405180910390a2505050565b603581815481106128a757600080fd5b600091825260209091200154905081565b6128c0612d86565b6128dc5760405162461bcd60e51b8152600401610b8f90614f9b565b8060005b818110156129865760008484838181106128fc576128fc61508f565b905060200201602081019061291191906146e0565b6001600160a01b03160361297e5760405162461bcd60e51b815260206004820152602e60248201527f43616e206e6f742073657420616e20656d70747920616464726573732061732060448201526d30903932bbb0b932103a37b5b2b760911b6064820152608401610b8f565b6001016128e0565b507f04c0b9649497d316554306e53678d5f5f5dbc3a06f97dec13ff4cfe98b986bbc607484846040516129bb93929190615514565b60405180910390a1611750607484846145c8565b60405163095ea7b360e01b81526001600160a01b037f00000000000000000000000000000000000000000000000000000000000000008116600483015260001960248301527f0000000000000000000000000000000000000000000000000000000000000000169063095ea7b3906044016020604051808303816000875af1158015612a5f573d6000803e3d6000fd5b505050506040513d601f19601f82011682018060405250810190612a83919061522e565b50565b612a8e612d86565b612aaa5760405162461bcd60e51b8152600401610b8f90614f9b565b604051631a1b9a0b60e21b81526001600160a01b037f0000000000000000000000000000000000000000000000000000000000000000169063686e682c90612afa908690869086906004016155ad565b600060405180830381600087803b158015612b1457600080fd5b505af1158015612b28573d6000803e3d6000fd5b50505050505050565b6033546001600160a01b03163314612b5b5760405162461bcd60e51b8152600401610b8f9061524b565b6000612b9c89898080601f016020809104026020016040519081016040528093929190818152602001838380828437600092019190915250613bf592505050565b90506000808281526037602052604090205460ff166005811115612bc257612bc2614845565b14612c0f5760405162461bcd60e51b815260206004820152601c60248201527f56616c696461746f7220616c72656164792072656769737465726564000000006044820152606401610b8f565b60008181526037602052604090819020805460ff19166001179055516301ba3ee760e21b81527f00000000000000000000000000000000000000000000000000000000000000006001600160a01b0316906306e8fb9c90612c82908c908c908c908c908c908c908c908c9060040161564f565b600060405180830381600087803b158015612c9c57600080fd5b505af1158015612cb0573d6000803e3d6000fd5b50505050807f50837f89f5e75ae0a7bcc858f53ea15fa398dc007fd52cbfe4683ae9a6c2d7228888604051612ce6929190615500565b60405180910390a2505050505050505050565b612d01612d86565b612d1d5760405162461bcd60e51b8152600401610b8f90614f9b565b607354604080516001600160a01b03928316815291831660208301527fe48386b84419f4d36e0f96c10cc3510b6fb1a33795620c5098b22472bbe90796910160405180910390a1607380546001600160a01b0319166001600160a01b0392909216919091179055565b6000612d9e6000805160206157d68339815191525490565b6001600160a01b0316336001600160a01b031614905090565b6035546060906001600160401b03811115612dd457612dd46148a5565b604051908082528060200260200182016040528015612e2657816020015b604080516080810182526000808252602080830182905292820181905260608201528252600019909201910181612df25790505b50905060005b603554811015612f6f5760006034600060358481548110612e4f57612e4f61508f565b600091825260208083209091015483528281019390935260409182019020815160a0810183528154815260018201546001600160401b0380821695830195909552600160401b81049094169281019290925263ffffffff600160801b84041660608301529091608083019060ff600160a01b909104166002811115612ed657612ed6614845565b6002811115612ee757612ee7614845565b815250509050604051806080016040528060358481548110612f0b57612f0b61508f565b906000526020600020015481526020018260000151815260200182602001516001600160401b0316815260200182604001516001600160401b0316815250838381518110612f5b57612f5b61508f565b602090810291909101015250600101612e2c565b5090565b612f7b612d86565b612f975760405162461bcd60e51b8152600401610b8f90614f9b565b612fbf817f44c4d30b2eaad5130ad70c3ba6972730566f3e6359ab83e800d905c61b1c51db55565b806001600160a01b0316612fdf6000805160206157d68339815191525490565b6001600160a01b03167fa39cc5eb22d0f34d8beaefee8a3f17cc229c1a1d1ef87a5ad47313487b1c4f0d60405160405180910390a350565b336001600160a01b037f0000000000000000000000000000000000000000000000000000000000000000161461305f5760405162461bcd60e51b8152600401610b8f90615392565b6000805160206157b6833981519152805460011981016130915760405162461bcd60e51b8152600401610b8f906153c9565b600282557f00000000000000000000000000000000000000000000000000000000000000006001600160a01b0316846001600160a01b0316146130e65760405162461bcd60e51b8152600401610b8f906153f1565b6130f285858547614013565b5060019055505050565b336001600160a01b037f000000000000000000000000000000000000000000000000000000000000000016146131445760405162461bcd60e51b8152600401610b8f90615392565b6000805160206157b6833981519152805460011981016131765760405162461bcd60e51b8152600401610b8f906153c9565b600282556040516370a0823160e01b81523060048201526000907f00000000000000000000000000000000000000000000000000000000000000006001600160a01b0316906370a0823190602401602060405180830381865afa1580156131e1573d6000803e3d6000fd5b505050506040513d601f19601f8201168201806040525081019061320591906151a0565b90506000603a548261321791906151b9565b905080156126c257603a8290556040805160008152602081018390526001600160a01b037f000000000000000000000000000000000000000000000000000000000000000016917f5548c837ab068cf56a2c2479df0882a4922fd203edb7517321831d95078c5f62910160405180910390a25050600182555050565b6000858152603460209081526040808320815160a0810183528154815260018201546001600160401b0380821695830195909552600160401b810490941692810192909252600160801b830463ffffffff16606083015290916080830190600160a01b900460ff16600281111561330c5761330c614845565b600281111561331d5761331d614845565b905250905060018160800151600281111561333a5761333a614845565b1461337d5760405162461bcd60e51b81526020600482015260136024820152724465706f736974206e6f742070656e64696e6760681b6044820152606401610b8f565b6003815160009081526037602052604090205460ff1660058111156133a4576133a4614845565b146133ea5760405162461bcd60e51b815260206004820152601660248201527515985b1a59185d1bdc881b9bdd081d995c9a599a595960521b6044820152606401610b8f565b836001600160401b031681604001516001600160401b0316108061341557506001600160401b038416155b6134595760405162461bcd60e51b815260206004820152601560248201527411195c1bdcda5d081b9bdd081c1c9bd8d95cdcd959605a1b6044820152606401610b8f565b846001600160401b031681604001516001600160401b0316106134b75760405162461bcd60e51b815260206004820152601660248201527514db1bdd081b9bdd0818599d195c8819195c1bdcda5d60521b6044820152606401610b8f565b60007f00000000000000000000000000000000000000000000000000000000000000006134e587600c6156b0565b6134ef91906156d9565b6134fa90600c6156d9565b9050600061350782613938565b60405163431c729b60e01b81529091506001600160a01b037f0000000000000000000000000000000000000000000000000000000000000000169063431c729b9061355c9084908a908a908a9060040161505c565b60006040518083038186803b15801561357457600080fd5b505afa158015613588573d6000803e3d6000fd5b50505060008981526034602052604081206001908101805460ff60a01b1916600160a11b17905560358054929350916135c191906151b9565b815481106135d1576135d161508f565b90600052602060002001549050806035856060015163ffffffff16815481106135fc576135fc61508f565b60009182526020808320909101929092556060860151838252603490925260409020600101805463ffffffff909216600160801b0263ffffffff60801b199092169190911790556035805480613654576136546151cc565b60019003818190600052602060002001600090559055887fae0e4f727389efd70d748d667436e0264f370ae498b339b713797dbab57b12ff85602001516001600160401b0316633b9aca006136a991906150bb565b604051908152602001612ce6565b6060607480548060200260200160405190810160405280929190818152602001828054801561370f57602002820191906000526020600020905b81546001600160a01b031681526001909101906020018083116136f1575b5050505050905090565b6001600160a01b038281166000908152606f602052604090205416156137765760405162461bcd60e51b81526020600482015260126024820152711c151bdad95b88185b1c9958591e481cd95d60721b6044820152606401610b8f565b6001600160a01b0382161580159061379657506001600160a01b03811615155b6137d65760405162461bcd60e51b8152602060048201526011602482015270496e76616c69642061646472657373657360781b6044820152606401610b8f565b6001600160a01b038281166000818152606f6020908152604080832080549587166001600160a01b031996871681179091556070805460018101825594527f8f6b23ffa15f0465e3176e15ca644cf24f86dc1312fe715484e3c4aead5eb78b90930180549095168417909455925190815290917fef6485b84315f9b1483beffa32aae9a0596890395e3d7521f1c5fbb51790e765910160405180910390a25050565b604080516001600160a01b038416602482015260448082018490528251808303909101815260649091019091526020810180516001600160e01b031663a9059cbb60e01b1790526138ca908490614116565b505050565b60006001600160801b03821115612f6f5760405162461bcd60e51b815260206004820152602760248201527f53616665436173743a2076616c756520646f65736e27742066697420696e20316044820152663238206269747360c81b6064820152608401610b8f565b604080516001600160401b038316602082015260009182918291720f3df6d732807ef1319fb7b8bb8522d0beac02910160408051601f1981840301815290829052613982916156f8565b600060405180830381855afa9150503d80600081146139bd576040519150601f19603f3d011682016040523d82523d6000602084013e6139c2565b606091505b50915091508180156139d5575060008151115b613a215760405162461bcd60e51b815260206004820152601860248201527f496e76616c696420626561636f6e2074696d657374616d7000000000000000006044820152606401610b8f565b80806020019051810190613a3591906151a0565b949350505050565b8251613a50906074906020860190614627565b50815181518114613a9a5760405162461bcd60e51b8152602060048201526014602482015273496e76616c696420696e7075742061727261797360601b6044820152606401610b8f565b60005b81811015613ae957613ae1848281518110613aba57613aba61508f565b6020026020010151848381518110613ad457613ad461508f565b6020026020010151613719565b600101613a9d565b5050505050565b604051632e1a7d4d60e01b8152600481018290527f00000000000000000000000000000000000000000000000000000000000000006001600160a01b031690632e1a7d4d90602401600060405180830381600087803b158015613b5257600080fd5b505af1158015613b66573d6000803e3d6000fd5b505050506000613b7882603a546141e8565b905080603a6000828254613b8c91906151b9565b90915550613b9b9050826138cf565b60398054600890613bbd908490600160401b90046001600160801b0316615714565b82546001600160801b039182166101009390930a928302919092021990911617905550506039805467ffffffffffffffff1916905550565b6000600282600060801b604051602001613c10929190615733565b60408051601f1981840301815290829052613c2a916156f8565b602060405180830381855afa158015613c47573d6000803e3d6000fd5b5050506040513d601f19601f8201168201806040525081019061225891906151a0565b60006001600160401b03821115612f6f5760405162461bcd60e51b815260206004820152602660248201527f53616665436173743a2076616c756520646f65736e27742066697420696e203660448201526534206269747360d01b6064820152608401610b8f565b600063ffffffff821115612f6f5760405162461bcd60e51b815260206004820152602660248201527f53616665436173743a2076616c756520646f65736e27742066697420696e203360448201526532206269747360d01b6064820152608401610b8f565b600060308314613d895760405162461bcd60e51b815260206004820152601d60248201527f496e76616c69642076616c696461746f722062797465206c656e6774680000006044820152606401610b8f565b613d91614200565b90506000710961ef480eb55e80d19ad83579a64c0070026001600160a01b031682868686604051602001613dc793929190615762565b60408051601f1981840301815290829052613de1916156f8565b60006040518083038185875af1925050503d8060008114613e1e576040519150601f19603f3d011682016040523d82523d6000602084013e613e23565b606091505b5050905080613e745760405162461bcd60e51b815260206004820152601960248201527f5769746864726177616c2072657175657374206661696c6564000000000000006044820152606401610b8f565b509392505050565b60405162461bcd60e51b81526020600482015260146024820152732ab739bab83837b93a32b210333ab731ba34b7b760611b6044820152606401610b8f565b6001600160a01b038116613f115760405162461bcd60e51b815260206004820152601a60248201527f4e657720476f7665726e6f7220697320616464726573732830290000000000006044820152606401610b8f565b612a83816142c7565b6000613f2d613f2842613c6a565b613938565b905060004790506040518060400160405280613f4842613c6a565b6001600160401b03168152602001613f5f836138cf565b6001600160801b039081169091526000848152603860209081526040909120835181549490920151909216600160401b026001600160c01b03199093166001600160401b0390911617919091179055613fb742613c6a565b6039805467ffffffffffffffff19166001600160401b0392909216919091179055604051818152829042907f720c42d71b31255ea24ea693ad4311387e7a0c7907336cfa55b865ddd3441ff69060200160405180910390a35050565b600082116140635760405162461bcd60e51b815260206004820152601760248201527f4d75737420776974686472617720736f6d657468696e670000000000000000006044820152606401610b8f565b6001600160a01b0384166140b25760405162461bcd60e51b8152602060048201526016602482015275135d5cdd081cdc1958da599e481c9958da5c1a595b9d60521b6044820152606401610b8f565b80156140c1576140c18161432e565b6140cb828561445d565b6040805160008152602081018490526001600160a01b038516917f2717ead6b9200dd235aad468c9809ea400fe33ac69b5bfaa6d3e90fc922b6398910160405180910390a250505050565b600061416b826040518060400160405280602081526020017f5361666545524332303a206c6f772d6c6576656c2063616c6c206661696c6564815250856001600160a01b03166144bd9092919063ffffffff16565b8051909150156138ca5780806020019051810190614189919061522e565b6138ca5760405162461bcd60e51b815260206004820152602a60248201527f5361666545524332303a204552433230206f7065726174696f6e20646964206e6044820152691bdd081cdd58d8d9595960b21b6064820152608401610b8f565b60008183106141f757816141f9565b825b9392505050565b60405160009081908190710961ef480eb55e80d19ad83579a64c0070029082818181855afa9150503d8060008114614254576040519150601f19603f3d011682016040523d82523d6000602084013e614259565b606091505b509150915081801561426c575060008151115b6142ac5760405162461bcd60e51b81526020600482015260116024820152704661696c656420746f206765742066656560781b6044820152606401610b8f565b808060200190518101906142c091906151a0565b9250505090565b806001600160a01b03166142e76000805160206157d68339815191525490565b6001600160a01b03167fc7c0c772add429241571afb3805861fb3cfa2af374534088b76cdb4325a87e9a60405160405180910390a36000805160206157d683398151915255565b7f00000000000000000000000000000000000000000000000000000000000000006001600160a01b031663d0e30db0826040518263ffffffff1660e01b81526004016000604051808303818588803b15801561438957600080fd5b505af115801561439d573d6000803e3d6000fd5b505050505080603a60008282546143b491906150d2565b9091555050603954600160401b90046001600160801b0316811015614427576143dc816138cf565b603980546008906143fe908490600160401b90046001600160801b0316615783565b92506101000a8154816001600160801b0302191690836001600160801b03160217905550614449565b6039805477ffffffffffffffffffffffffffffffff0000000000000000191690555b506039805467ffffffffffffffff19169055565b6144916001600160a01b037f0000000000000000000000000000000000000000000000000000000000000000168284613878565b600061449f83603a546141e8565b905080603a60008282546144b391906151b9565b9091555050505050565b6060613a35848460008585843b6145165760405162461bcd60e51b815260206004820152601d60248201527f416464726573733a2063616c6c20746f206e6f6e2d636f6e74726163740000006044820152606401610b8f565b600080866001600160a01b0316858760405161453291906156f8565b60006040518083038185875af1925050503d806000811461456f576040519150601f19603f3d011682016040523d82523d6000602084013e614574565b606091505b509150915061458482828661458f565b979650505050505050565b6060831561459e5750816141f9565b8251156145ae5782518084602001fd5b8160405162461bcd60e51b8152600401610b8f91906157a2565b82805482825590600052602060002090810192821561461b579160200282015b8281111561461b5781546001600160a01b0319166001600160a01b038435161782556020909201916001909101906145e8565b50612f6f92915061467c565b82805482825590600052602060002090810192821561461b579160200282015b8281111561461b57825182546001600160a01b0319166001600160a01b03909116178255602090920191600190910190614647565b5b80821115612f6f576000815560010161467d565b80356001600160a01b03811681146146a857600080fd5b919050565b600080604083850312156146c057600080fd5b6146c983614691565b91506146d760208401614691565b90509250929050565b6000602082840312156146f257600080fd5b6141f982614691565b6000806040838503121561470e57600080fd5b61471783614691565b946020939093013593505050565b60006020828403121561473757600080fd5b81356001600160401b0381111561474d57600080fd5b820160e081850312156141f957600080fd5b60006020828403121561477157600080fd5b5035919050565b80356001600160401b03811681146146a857600080fd5b60008083601f8401126147a157600080fd5b5081356001600160401b038111156147b857600080fd5b6020830191508360208285010111156147d057600080fd5b9250929050565b6000806000806000608086880312156147ef57600080fd5b6147f886614778565b945061480660208701614778565b93506040860135925060608601356001600160401b0381111561482857600080fd5b6148348882890161478f565b969995985093965092949392505050565b634e487b7160e01b600052602160045260246000fd5b8581526001600160401b0385811660208301528416604082015263ffffffff8316606082015260a081016003831061489557614895614845565b8260808301529695505050505050565b634e487b7160e01b600052604160045260246000fd5b604051601f8201601f191681016001600160401b03811182821017156148e3576148e36148a5565b604052919050565b60006001600160401b03821115614904576149046148a5565b5060051b60200190565b600082601f83011261491f57600080fd5b813561493261492d826148eb565b6148bb565b8082825260208201915060208360051b86010192508583111561495457600080fd5b602085015b838110156149785761496a81614691565b835260209283019201614959565b5095945050505050565b60008060006060848603121561499757600080fd5b83356001600160401b038111156149ad57600080fd5b6149b98682870161490e565b93505060208401356001600160401b038111156149d557600080fd5b6149e18682870161490e565b92505060408401356001600160401b038111156149fd57600080fd5b614a098682870161490e565b9150509250925092565b60008060408385031215614a2657600080fd5b82356001600160401b03811115614a3c57600080fd5b830160608186031215614a4e57600080fd5b91506146d760208401614778565b6020810160068310614a7057614a70614845565b91905290565b600080600060408486031215614a8b57600080fd5b83356001600160401b03811115614aa157600080fd5b614aad8682870161478f565b9094509250614ac0905060208501614778565b90509250925092565b602080825282518282018190526000918401906040840190835b81811015614b16578351805184526020908101516001600160401b03168185015290930192604090920191600101614ae3565b509095945050505050565b60008083601f840112614b3357600080fd5b5081356001600160401b03811115614b4a57600080fd5b6020830191508360208260051b85010111156147d057600080fd5b600060a08284031215614b7757600080fd5b50919050565b600080600080600060e08688031215614b9557600080fd5b85356001600160401b03811115614bab57600080fd5b614bb78882890161478f565b90965094505060208601356001600160401b03811115614bd657600080fd5b614be288828901614b21565b9094509250614bf690508760408801614b65565b90509295509295909350565b60008060208385031215614c1557600080fd5b82356001600160401b03811115614c2b57600080fd5b614c3785828601614b21565b90969095509350505050565b803563ffffffff811681146146a857600080fd5b8015158114612a8357600080fd5b600060a08284031215614c7757600080fd5b60405160a081016001600160401b0381118282101715614c9957614c996148a5565b604052905080614ca883614c43565b8152614cb660208401614778565b6020820152614cc760408401614778565b60408201526060830135614cda81614c57565b6060820152608092830135920191909152919050565b600080600060e08486031215614d0557600080fd5b83356001600160401b03811115614d1b57600080fd5b8401601f81018613614d2c57600080fd5b8035614d3a61492d826148eb565b8082825260208201915060208360051b850101925088831115614d5c57600080fd5b6020840193505b82841015614d8557614d7484614778565b825260209384019390910190614d63565b955050505060208401359150614ac08560408601614c65565b600080600080600080600080610120898b031215614dbb57600080fd5b88356001600160401b03811115614dd157600080fd5b614ddd8b828c0161478f565b90995097505060208901356001600160401b03811115614dfc57600080fd5b614e088b828c01614b21565b90975095505060408901356001600160401b03811115614e2757600080fd5b614e338b828c0161478f565b90955093505060608901359150614e4d8a60808b01614b65565b90509295985092959890939650565b602080825282518282018190526000918401906040840190835b81811015614b1657835180518452602081015160208501526001600160401b0360408201511660408501526001600160401b03606082015116606085015250608083019250602084019350600181019050614e76565b600080600060608486031215614ee157600080fd5b614eea84614691565b9250614ef860208501614691565b929592945050506040919091013590565b600080600080600060808688031215614f2157600080fd5b85359450614f3160208701614778565b9350614f3f60408701614778565b925060608601356001600160401b0381111561482857600080fd5b602080825282518282018190526000918401906040840190835b81811015614b165783516001600160a01b0316835260209384019390920191600101614f74565b6020808252601a908201527f43616c6c6572206973206e6f742074686520476f7665726e6f72000000000000604082015260600190565b600060208284031215614fe457600080fd5b6141f982614778565b6000808335601e1984360301811261500457600080fd5b8301803591506001600160401b0382111561501e57600080fd5b6020019150368190038213156147d057600080fd5b81835281816020850137506000828201602090810191909152601f909101601f19169091010190565b8481526001600160401b0384166020820152606060408201526000615085606083018486615033565b9695505050505050565b634e487b7160e01b600052603260045260246000fd5b634e487b7160e01b600052601160045260246000fd5b8082028115828204841417612258576122586150a5565b80820180821115612258576122586150a5565b6000808335601e198436030181126150fc57600080fd5b8301803591506001600160401b0382111561511657600080fd5b6020019150600581901b36038213156147d057600080fd5b848152836020820152606060408201526000615085606083018486615033565b60008161515d5761515d6150a5565b506000190190565b858152846020820152608060408201526000615185608083018587615033565b90506001600160401b03831660608301529695505050505050565b6000602082840312156151b257600080fd5b5051919050565b81810381811115612258576122586150a5565b634e487b7160e01b600052603160045260246000fd5b86815285602082015260a06040820152600061520260a083018688615033565b6001600160401b03949094166060830152506001600160a01b0391909116608090910152949350505050565b60006020828403121561524057600080fd5b81516141f981614c57565b6020808252600f908201526e2737ba102932b3b4b9ba3930ba37b960891b604082015260600190565b60005b8381101561528f578181015183820152602001615277565b50506000910152565b600081518084526152b0816020860160208601615274565b601f01601f19169290920160200192915050565b6080815260006152d860808301888a615033565b82810360208401526152ea8188615298565b905082810360408401526152ff818688615033565b915050826060830152979650505050505050565b6001600160401b038281168282160390811115612258576122586150a5565b60006001600160401b0383168061535957634e487b7160e01b600052601260045260246000fd5b806001600160401b0384160491505092915050565b604081526000615382604083018587615033565b9050826020830152949350505050565b60208082526017908201527f43616c6c6572206973206e6f7420746865205661756c74000000000000000000604082015260600190565b6020808252600e908201526d1499595b9d1c985b9d0818d85b1b60921b604082015260600190565b602080825260119082015270155b9cdd5c1c1bdc9d195908185cdcd95d607a1b604082015260600190565b81835260208301925060008160005b8481101561545a576001600160401b0361544483614778565b168652602095860195919091019060010161542b565b5093949350505050565b63ffffffff61547282614c43565b1682526001600160401b0361548960208301614778565b1660208301526001600160401b036154a360408301614778565b16604083015260608101356154b781614c57565b15156060830152608090810135910152565b60e0815260006154dd60e083018789615033565b82810360208401526154f081868861541c565b9150506150856040830184615464565b602081526000613a3560208301848661541c565b6040808252845490820181905260008581526020812090916060840190835b8181101561555a5783546001600160a01b0316835260019384019360209093019201615533565b50508381036020808601919091528582520190508460005b858110156155a1576001600160a01b0361558b83614691565b1683526020928301929190910190600101615572565b50909695505050505050565b60e080825284519082018190526000906020860190610100840190835b818110156155f15783516001600160401b03168352602093840193909201916001016155ca565b5050809250505083602083015263ffffffff83511660408301526001600160401b0360208401511660608301526001600160401b0360408401511660808301526060830151151560a0830152608083015160c0830152949350505050565b6101208152600061566561012083018a8c615033565b828103602084015261567881898b61541c565b9050828103604084015261568d818789615033565b9150508360608301526156a36080830184615464565b9998505050505050505050565b6001600160401b0381811683821602908116908181146156d2576156d26150a5565b5092915050565b6001600160401b038181168382160190811115612258576122586150a5565b6000825161570a818460208701615274565b9190910192915050565b6001600160801b038181168382160190811115612258576122586150a5565b60008351615745818460208801615274565b6001600160801b0319939093169190920190815260100192915050565b8284823760c09190911b6001600160c01b0319169101908152600801919050565b6001600160801b038281168282160390811115612258576122586150a5565b6020815260006141f9602083018461529856fe53bf423e48ed90e97d02ab0ebab13b2a235a6bfbe9c321847d5c175333ac45357bea13895fa79d2831e0a9e28edede30099005a50d652d8957cf8a607ee6ca4aa2646970667358221220a0f7b9347cdf6b6c9d2b4fffd8348108d064d41d184effd276ae1cab9ab9152164736f6c634300081c0033",
  "libraries": {},
  "devdoc": {
    "author": "Origin Protocol Inc",
    "details": "This contract handles WETH and ETH and in some operations interchanges between the two. Any WETH that is on the contract across multiple blocks (and not just transitory within a transaction) is considered an asset. Meaning deposits increase the balance of the asset and withdrawal decrease it. As opposed to all our other strategies the WETH doesn't immediately get deposited into an underlying strategy and can be present across multiple blocks waiting to be unwrapped to ETH and staked to validators. This separation of WETH and ETH is required since the rewards (reward token) is also in ETH. To simplify the accounting of WETH there is another difference in behavior compared to the other strategies. To withdraw WETH asset - exit message is posted to validators and the ETH hits this contract with multiple days delay. In order to simplify the WETH accounting upon detection of such an event the ValidatorAccountant immediately wraps ETH to WETH and sends it to the Vault. On the other hand any ETH on the contract (across multiple blocks) is there either:  - as a result of already accounted for consensus rewards  - as a result of not yet accounted for consensus rewards  - as a results of not yet accounted for full validator withdrawals (or validator slashes) Even though the strategy assets and rewards are a very similar asset the consensus layer rewards and the execution layer rewards are considered rewards and those are dripped to the Vault over a configurable time interval and not immediately.",
    "kind": "dev",
    "methods": {
      "checkBalance(address)": {
        "params": {
          "_asset": "Address of WETH asset."
        },
        "returns": {
          "balance": "   Total value in ETH"
        }
      },
      "constructor": {
        "params": {
          "_baseConfig": "Base strategy config with platformAddress (ERC-4626 Vault contract), eg sfrxETH or sDAI, and vaultAddress (OToken Vault contract), eg VaultProxy or OETHVaultProxy",
          "_beaconChainDepositContract": "Address of the beacon chain deposit contract",
          "_beaconGenesisTimestamp": "The timestamp of the Beacon chain's genesis.",
          "_beaconProofs": "Address of the Beacon Proofs contract that verifies beacon chain data",
          "_ssvNetwork": "Address of the SSV Network contract",
          "_ssvToken": "Address of the Erc20 SSV Token contract",
          "_wethAddress": "Address of the Erc20 WETH Token contract"
        }
      },
      "deposit(address,uint256)": {
        "params": {
          "_amount": "Amount of WETH that was transferred to the strategy by the vault.",
          "_asset": "Address of the WETH token."
        }
      },
      "getPendingDeposits()": {
        "returns": {
          "pendingDeposits": "An array of `DepositView` containing the deposit root, public key hash, amount in Gwei and the slot of the deposit."
        }
      },
      "getRewardTokenAddresses()": {
        "returns": {
          "_0": "address[] the reward token addresses."
        }
      },
      "getVerifiedValidators()": {
        "returns": {
          "_0": "An array of `ValidatorData` containing the public key hash and validator index."
        }
      },
      "initialize(address[],address[],address[])": {
        "params": {
          "_assets": "Not used so empty array",
          "_pTokens": "Not used so empty array",
          "_rewardTokenAddresses": "Not used so empty array"
        }
      },
      "registerSsvValidator(bytes,uint64[],bytes,uint256,(uint32,uint64,uint64,bool,uint256))": {
        "params": {
          "cluster": "The SSV cluster details including the validator count and SSV balance",
          "operatorIds": "The operator IDs of the SSV Cluster",
          "publicKey": "The public key of the validator",
          "sharesData": "The shares data for the validator",
          "ssvAmount": "The amount of SSV tokens to be deposited to the SSV cluster"
        }
      },
      "removePToken(uint256)": {
        "params": {
          "_assetIndex": "Index of the asset to be removed"
        }
      },
      "removeSsvValidator(bytes,uint64[],(uint32,uint64,uint64,bool,uint256))": {
        "params": {
          "cluster": "The SSV cluster details including the validator count and SSV balance",
          "operatorIds": "The operator IDs of the SSV Cluster",
          "publicKey": "The public key of the validator"
        }
      },
      "setHarvesterAddress(address)": {
        "params": {
          "_harvesterAddress": "Address of the harvester contract."
        }
      },
      "setPTokenAddress(address,address)": {
        "params": {
          "_asset": "Address for the asset",
          "_pToken": "Address for the corresponding platform token"
        }
      },
      "setRewardTokenAddresses(address[])": {
        "params": {
          "_rewardTokenAddresses": "Array of reward token addresses"
        }
      },
      "stakeEth((bytes,bytes,bytes32),uint64)": {
        "params": {
          "depositAmountGwei": "The amount of WETH to stake to the validator in Gwei.",
          "validator": "validator data needed to stake. The `ValidatorStakeData` struct contains the pubkey, signature and depositDataRoot. Only the registrator can call this function."
        }
      },
      "supportsAsset(address)": {
        "params": {
          "_asset": "The address of the WETH token."
        }
      },
      "transferGovernance(address)": {
        "params": {
          "_newGovernor": "Address of the new Governor"
        }
      },
      "transferToken(address,uint256)": {
        "params": {
          "_amount": "Amount of the asset to transfer",
          "_asset": "Address for the asset"
        }
      },
      "validatorWithdrawal(bytes,uint64)": {
        "params": {
          "amountGwei": "The amount of ETH to be withdrawn from the validator in Gwei. A zero amount will trigger a full withdrawal.",
          "publicKey": "The public key of the validator"
        }
      },
      "verifyDeposit(bytes32,uint64,uint64,bytes)": {
        "params": {
          "depositDataRoot": "The root of the deposit data that was stored when the deposit was made on the execution layer.",
          "firstPendingDepositSlot": "The slot of the first pending deposit in the beacon chain",
          "firstPendingDepositSlotProof": "The merkle proof that the slot of the first pending deposit matches the beacon chain. BeaconBlock.BeaconBlockBody.deposits[0].slot",
          "verificationSlot": "Any slot on or after the deposit was processed on the beacon chain. Can not be a slot with pending deposits with the same slot as the deposit being verified. Can not be a slot before a missed slot as the Beacon Root contract will have the parent block root set for the next block timestamp in 12 seconds time."
        }
      },
      "verifyValidator(uint64,uint64,bytes32,bytes)": {
        "params": {
          "nextBlockTimestamp": "The timestamp of the execution layer block after the beacon chain slot we are verifying. The next one is needed as the Beacon Oracle returns the parent beacon block root for a block timestamp, which is the beacon block root of the previous block.",
          "pubKeyHash": "The hash of the validator's public key using the Beacon Chain's format",
          "validatorIndex": "The index of the validator on the beacon chain.",
          "validatorPubKeyProof": "The merkle proof that the validator's index matches its public key on the beacon chain. BeaconBlock.state.validators[validatorIndex].pubkey"
        }
      },
      "withdraw(address,address,uint256)": {
        "params": {
          "_amount": "Amount of WETH to withdraw",
          "_asset": "WETH to withdraw",
          "_recipient": "Address to receive withdrawn assets"
        }
      },
      "withdrawSSV(uint64[],uint256,(uint32,uint64,uint64,bool,uint256))": {
        "details": "A SSV cluster is defined by the SSVOwnerAddress and the set of operatorIds.",
        "params": {
          "cluster": "The SSV cluster details including the validator count and SSV balance",
          "operatorIds": "The operator IDs of the SSV Cluster",
          "ssvAmount": "The amount of SSV tokens to be deposited to the SSV cluster"
        }
      }
    },
    "title": "Compounding Staking SSV Strategy",
    "version": 1
  },
  "userdoc": {
    "kind": "user",
    "methods": {
      "BEACON_CHAIN_DEPOSIT_CONTRACT()": {
        "notice": "The address of the beacon chain deposit contract"
      },
      "BEACON_GENESIS_TIMESTAMP()": {
        "notice": "The timestamp of the Beacon chain genesis."
      },
      "BEACON_PROOFS()": {
        "notice": "Address of the Beacon Proofs contract that verifies beacon chain data"
      },
      "DEPOSIT_AMOUNT_WEI()": {
        "notice": "The amount of ETH in wei that is required for a deposit to a new validator. Initially this is 32 ETH, but will be increased to 1 ETH after P2P's APIs have been updated to support deposits of 1 ETH."
      },
      "SSV_NETWORK()": {
        "notice": "The address of the SSV Network contract used to interface with"
      },
      "SSV_TOKEN()": {
        "notice": "SSV ERC20 token that serves as a payment for operating SSV validators"
      },
      "VAULT_ADDRESS()": {
        "notice": "Address of the OETH Vault proxy contract"
      },
      "WETH()": {
        "notice": "The address of the Wrapped ETH (WETH) token contract"
      },
      "assetToPToken(address)": {
        "notice": "asset => pToken (Platform Specific Token Address)"
      },
      "checkBalance(address)": {
        "notice": "Accounts for all the assets managed by this strategy which includes: 1. The current WETH in this strategy contract 2. The last verified ETH balance, total deposits and total validator balances"
      },
      "claimGovernance()": {
        "notice": "Claim Governance of the contract to a new account (`newGovernor`). Can only be called by the new Governor."
      },
      "collectRewardTokens()": {
        "notice": "Collect accumulated reward token and send to Vault."
      },
      "deposit(address,uint256)": {
        "notice": "Unlike other strategies, this does not deposit assets into the underlying platform. It just checks the asset is WETH and emits the Deposit event. To deposit WETH into validators, `registerSsvValidator` and `stakeEth` must be used."
      },
      "depositAll()": {
        "notice": "Unlike other strategies, this does not deposit assets into the underlying platform. It just emits the Deposit event. To deposit WETH into validators `registerSsvValidator` and `stakeEth` must be used."
      },
      "deposits(bytes32)": {
        "notice": "Mapping of the root of a deposit (depositDataRoot) to its data"
      },
      "depositsRoots(uint256)": {
        "notice": "List of deposit roots that are still to be verified as processed on the beacon chain"
      },
      "getPendingDeposits()": {
        "notice": "Returns the deposits that are still to be verified. These may or may not have been processed by the beacon chain."
      },
      "getRewardTokenAddresses()": {
        "notice": "Get the reward token addresses."
      },
      "getVerifiedValidators()": {
        "notice": "Returns the strategy's active validators. These are the ones that have been verified and have a non-zero balance."
      },
      "governor()": {
        "notice": "Returns the address of the current Governor."
      },
      "harvesterAddress()": {
        "notice": "Address of the Harvester contract allowed to collect reward tokens"
      },
      "initialize(address[],address[],address[])": {
        "notice": "Set up initial internal state including 1. approving the SSVNetwork to transfer SSV tokens from this strategy contract"
      },
      "isGovernor()": {
        "notice": "Returns true if the caller is the current Governor."
      },
      "platformAddress()": {
        "notice": "Address of the underlying platform"
      },
      "registerSsvValidator(bytes,uint64[],bytes,uint256,(uint32,uint64,uint64,bool,uint256))": {
        "notice": "Registers a single validator in a SSV Cluster. Only the Registrator can call this function."
      },
      "removePToken(uint256)": {
        "notice": "Remove a supported asset by passing its index.      This method can only be called by the system Governor"
      },
      "removeSsvValidator(bytes,uint64[],(uint32,uint64,uint64,bool,uint256))": {
        "notice": "Remove a sweeping validator from the SSV Cluster. Make sure `exitSsvValidator` is called before and the validate has exited the Beacon chain. If removed before the validator has exited the beacon chain will result in the validator being slashed. Only the registrator can call this function."
      },
      "rewardTokenAddresses(uint256)": {
        "notice": "Address of the reward tokens. eg CRV, BAL, CVX, AURA"
      },
      "safeApproveAllTokens()": {
        "notice": "Approves the SSV Network contract to transfer SSV tokens for validator registration."
      },
      "setHarvesterAddress(address)": {
        "notice": "Set the Harvester contract that can collect rewards."
      },
      "setPTokenAddress(address,address)": {
        "notice": "Provide support for asset by passing its pToken address.      This method can only be called by the system Governor"
      },
      "setRegistrator(address)": {
        "notice": "Set the address of the registrator which can register, exit and remove validators"
      },
      "setRewardTokenAddresses(address[])": {
        "notice": "Set the reward token addresses. Any old addresses will be overwritten."
      },
      "snapBalances()": {
        "notice": "Stores the current ETH balance at the current block and beacon block root         of the slot that is associated with the previous block. When snapping / verifying balance it is of a high importance that there is no miss-match in respect to ETH that is held by the contract and balances that are verified on the validators. First some context on the beacon-chain block building behaviour. Relevant parts of constructing a block on the beacon chain consist of:  - process_withdrawals: ETH is deducted from the validator's balance  - process_execution_payload: immediately after the previous step executing all the    transactions  - apply the withdrawals: adding ETH to the recipient which is the withdrawal address    contained in the withdrawal credentials of the exited validators That means that balance increases which are part of the post-block execution state are done within the block, but the transaction that are contained within that block can not see / interact with the balance from the exited validators. Only transactions in the next block can do that. When snap balances is performed the state of the chain is snapped across 2 separate chain states:  - ETH balance of the contract is recorded on block X -> and corresponding slot Y  - beacon chain block root is recorded of block X - 1 -> and corresponding slot Y - 1    given there were no missed slots. It could also be Y - 2, Y - 3 depending on how    many slots have not managed to propose a block. For the sake of simplicity this slot    will be referred to as Y - 1 as it makes no difference in the argument Given these 2 separate chain states it is paramount that verify balances can not experience miss-counting ETH or much more dangerous double counting of the ETH. When verifyBalances is called it is performed on the current block Z where Z > X. Verify balances adds up all the ETH (omitting WETH) controlled by this contract:  - ETH balance in the contract on block X  - ETH balance in Deposits on block Z that haven't been yet processed in slot Y - 1  - ETH balance in validators that are active in slot Y - 1  - skips the ETH balance in validators that have withdrawn in slot Y - 1 (or sooner)    and have their balance visible to transactions in slot Y and corresponding block X    (or sooner) Lets verify the correctness of ETH accounting given the above described behaviour. *ETH balance in the contract on block X* This is an ETH balance of the contract on a non current X block. Any ETH leaving the contract as a result of a withdrawal subtracts from the ETH accounted for on block X if `verifyBalances` has already been called. It also invalidates a `snapBalances` in case `verifyBalances` has not been called yet. Not performing this would result in not accounting for the withdrawn ETH that has happened anywhere in the block interval [X + 1, Z]. Similarly to withdrawals any `stakeEth` deposits to the deposit contract adds to the ETH accounted for since the last `verifyBalances` has been called. And it invalidates the `snapBalances` in case `verifyBalances` hasn't been yet called. Not performing this would result in double counting the `stakedEth` since it would be present once in the snapped contract balance and the second time in deposit storage variables. This behaviour is correct. *ETH balance in Deposits on block Z that haven't been yet processed in slot Y - 1* The contract sums up all the ETH that has been deposited to the Beacon chain deposit contract at block Z. The execution layer doesn't have direct access to the state of deposits on the beacon chain. And if it is to sum up all the ETH that is marked to be deposited it needs to be sure to not double count ETH that is in deposits (storage vars) and could also be part of the validator balances. It does that by verifying that at slot Y - 1 none of the deposits visible on block Z have been processed. Meaning since the last snap till now all are still in queue. Which ensures they can not be part of the validator balances in later steps. This behaviour is correct. *ETH balance in validators that are active in slot Y - 1* The contract is verifying none of the deposits on Y - 1 slot have been processed and for that reason it checks the validator balances in the same slot. Ensuring accounting correctness. This behaviour is correct. *The withdrawn validators* The withdrawn validators could have their balances deducted in any slot before slot Y - 1 and the execution layer sees the balance increase in the subsequent slot. Lets look at the \"worst case scenario\" where the validator withdrawal is processed in the slot Y - 1 (snapped slot) and see their balance increase (in execution layer) in slot Y -> block X. The ETH balance on the contract is snapped at block X meaning that even if the validator exits at the latest possible time it is paramount that the ETH balance on the execution layer is recorded in the next block. Correctly accounting for the withdrawn ETH. Worth mentioning if the validator exit is processed by the slot Y and balance increase seen on the execution layer on block X + 1 the withdrawal is ignored by both the validator balance verification as well as execution layer contract balance snap. This behaviour is correct. The validator balances on the beacon chain can then be proved with `verifyBalances`. Can only be called by the registrator."
      },
      "snappedBalances(bytes32)": {
        "notice": "Mapping of the block root to the balances at that slot"
      },
      "stakeEth((bytes,bytes,bytes32),uint64)": {
        "notice": "Stakes WETH in this strategy to a compounding validator. Does not convert any ETH sitting in this strategy to WETH."
      },
      "supportsAsset(address)": {
        "notice": "Returns bool indicating whether asset is supported by the strategy."
      },
      "transferGovernance(address)": {
        "notice": "Transfers Governance of the contract to a new account (`newGovernor`). Can only be called by the current Governor. Must be claimed for this to complete"
      },
      "transferToken(address,uint256)": {
        "notice": "Transfer token to governor. Intended for recovering tokens stuck in      strategy contracts, i.e. mistaken sends."
      },
      "validatorRegistrator()": {
        "notice": "Address of the registrator - allowed to register, withdraw, exit and remove validators"
      },
      "validatorState(bytes32)": {
        "notice": "State of the new compounding validators with a 0x02 withdrawal credential prefix. Uses the Beacon chain hashing for BLSPubkey which is sha256(abi.encodePacked(validator.pubkey, bytes16(0)))"
      },
      "validatorWithdrawal(bytes,uint64)": {
        "notice": "Request a full or partial withdrawal from a validator. A zero amount will trigger a full withdrawal. If the remaining balance is < 32 ETH then the request will fail. Only the Registrator can call this function. 1 wei of value should be sent with the tx to pay for the withdrawal request fee. If no value sent, 1 wei will be taken from the strategy's ETH balance if it has any. If no ETH balance, the tx will revert."
      },
      "vaultAddress()": {
        "notice": "Address of the OToken vault"
      },
      "verifyBalances((bytes32,uint64,bytes,bytes32,bytes,bytes32[],bytes[]))": {
        "notice": "Verifies the balances of all active validators on the beacon chain and checks no pending deposits have been processed by the beacon chain."
      },
      "verifyDeposit(bytes32,uint64,uint64,bytes)": {
        "notice": "Verifies a deposit on the execution layer has been processed by the beacon chain. This means the accounting of the strategy's ETH moves from a pending deposit to a validator balance. Important: this function has a limitation where the `verificationSlot` that is passed by the off-chain verifier requires a slot immediately after it to propose a block otherwise the `BeaconRoots.parentBlockRoot` will fail. This shouldn't be a problem, since by the current behaviour of beacon chain only 1%-3% slots don't propose a block."
      },
      "verifyValidator(uint64,uint64,bytes32,bytes)": {
        "notice": "Verifies a validator's index to its public key."
      },
      "withdraw(address,address,uint256)": {
        "notice": "Withdraw ETH and WETH from this strategy contract."
      },
      "withdrawAll()": {
        "notice": "Transfer all WETH deposits, ETH from validator withdrawals and ETH from execution rewards in this strategy to the vault. This does not withdraw from the validators. That has to be done separately with the `validatorWithdrawal` operation."
      },
      "withdrawSSV(uint64[],uint256,(uint32,uint64,uint64,bool,uint256))": {
        "notice": "Withdraws excess SSV Tokens from the SSV Network contract which was used to pay the SSV Operators."
      }
    },
    "notice": "Strategy to deploy funds into DVT validators powered by the SSV Network",
    "version": 1
  },
  "storageLayout": {
    "storage": [
      {
        "astId": 6531,
        "contract": "contracts/strategies/NativeStaking/CompoundingStakingSSVStrategy.sol:CompoundingStakingSSVStrategy",
        "label": "initialized",
        "offset": 0,
        "slot": "0",
        "type": "t_bool"
      },
      {
        "astId": 6534,
        "contract": "contracts/strategies/NativeStaking/CompoundingStakingSSVStrategy.sol:CompoundingStakingSSVStrategy",
        "label": "initializing",
        "offset": 1,
        "slot": "0",
        "type": "t_bool"
      },
      {
        "astId": 6574,
        "contract": "contracts/strategies/NativeStaking/CompoundingStakingSSVStrategy.sol:CompoundingStakingSSVStrategy",
        "label": "______gap",
        "offset": 0,
        "slot": "1",
        "type": "t_array(t_uint256)50_storage"
      },
      {
        "astId": 3449,
        "contract": "contracts/strategies/NativeStaking/CompoundingStakingSSVStrategy.sol:CompoundingStakingSSVStrategy",
        "label": "validatorRegistrator",
        "offset": 0,
        "slot": "51",
        "type": "t_address"
      },
      {
        "astId": 3468,
        "contract": "contracts/strategies/NativeStaking/CompoundingStakingSSVStrategy.sol:CompoundingStakingSSVStrategy",
        "label": "deposits",
        "offset": 0,
        "slot": "52",
        "type": "t_mapping(t_bytes32,t_struct(DepositData)3462_storage)"
      },
      {
        "astId": 3472,
        "contract": "contracts/strategies/NativeStaking/CompoundingStakingSSVStrategy.sol:CompoundingStakingSSVStrategy",
        "label": "depositsRoots",
        "offset": 0,
        "slot": "53",
        "type": "t_array(t_bytes32)dyn_storage"
      },
      {
        "astId": 3482,
        "contract": "contracts/strategies/NativeStaking/CompoundingStakingSSVStrategy.sol:CompoundingStakingSSVStrategy",
        "label": "verifiedValidators",
        "offset": 0,
        "slot": "54",
        "type": "t_array(t_struct(ValidatorData)3477_storage)dyn_storage"
      },
      {
        "astId": 3488,
        "contract": "contracts/strategies/NativeStaking/CompoundingStakingSSVStrategy.sol:CompoundingStakingSSVStrategy",
        "label": "validatorState",
        "offset": 0,
        "slot": "55",
        "type": "t_mapping(t_bytes32,t_enum(VALIDATOR_STATE)3518)"
      },
      {
        "astId": 3500,
        "contract": "contracts/strategies/NativeStaking/CompoundingStakingSSVStrategy.sol:CompoundingStakingSSVStrategy",
        "label": "snappedBalances",
        "offset": 0,
        "slot": "56",
        "type": "t_mapping(t_bytes32,t_struct(Balances)3494_storage)"
      },
      {
        "astId": 3502,
        "contract": "contracts/strategies/NativeStaking/CompoundingStakingSSVStrategy.sol:CompoundingStakingSSVStrategy",
        "label": "lastSnapTimestamp",
        "offset": 0,
        "slot": "57",
        "type": "t_uint64"
      },
      {
        "astId": 3504,
        "contract": "contracts/strategies/NativeStaking/CompoundingStakingSSVStrategy.sol:CompoundingStakingSSVStrategy",
        "label": "lastVerifiedEthBalance",
        "offset": 8,
        "slot": "57",
        "type": "t_uint128"
      },
      {
        "astId": 3507,
        "contract": "contracts/strategies/NativeStaking/CompoundingStakingSSVStrategy.sol:CompoundingStakingSSVStrategy",
        "label": "depositedWethAccountedFor",
        "offset": 0,
        "slot": "58",
        "type": "t_uint256"
      },
      {
        "astId": 3511,
        "contract": "contracts/strategies/NativeStaking/CompoundingStakingSSVStrategy.sol:CompoundingStakingSSVStrategy",
        "label": "__gap",
        "offset": 0,
        "slot": "59",
        "type": "t_array(t_uint256)50_storage"
      },
      {
        "astId": 6654,
        "contract": "contracts/strategies/NativeStaking/CompoundingStakingSSVStrategy.sol:CompoundingStakingSSVStrategy",
        "label": "_deprecated_platformAddress",
        "offset": 0,
        "slot": "109",
        "type": "t_address"
      },
      {
        "astId": 6657,
        "contract": "contracts/strategies/NativeStaking/CompoundingStakingSSVStrategy.sol:CompoundingStakingSSVStrategy",
        "label": "_deprecated_vaultAddress",
        "offset": 0,
        "slot": "110",
        "type": "t_address"
      },
      {
        "astId": 6662,
        "contract": "contracts/strategies/NativeStaking/CompoundingStakingSSVStrategy.sol:CompoundingStakingSSVStrategy",
        "label": "assetToPToken",
        "offset": 0,
        "slot": "111",
        "type": "t_mapping(t_address,t_address)"
      },
      {
        "astId": 6666,
        "contract": "contracts/strategies/NativeStaking/CompoundingStakingSSVStrategy.sol:CompoundingStakingSSVStrategy",
        "label": "assetsMapped",
        "offset": 0,
        "slot": "112",
        "type": "t_array(t_address)dyn_storage"
      },
      {
        "astId": 6668,
        "contract": "contracts/strategies/NativeStaking/CompoundingStakingSSVStrategy.sol:CompoundingStakingSSVStrategy",
        "label": "_deprecated_rewardTokenAddress",
        "offset": 0,
        "slot": "113",
        "type": "t_address"
      },
      {
        "astId": 6670,
        "contract": "contracts/strategies/NativeStaking/CompoundingStakingSSVStrategy.sol:CompoundingStakingSSVStrategy",
        "label": "_deprecated_rewardLiquidationThreshold",
        "offset": 0,
        "slot": "114",
        "type": "t_uint256"
      },
      {
        "astId": 6673,
        "contract": "contracts/strategies/NativeStaking/CompoundingStakingSSVStrategy.sol:CompoundingStakingSSVStrategy",
        "label": "harvesterAddress",
        "offset": 0,
        "slot": "115",
        "type": "t_address"
      },
      {
        "astId": 6677,
        "contract": "contracts/strategies/NativeStaking/CompoundingStakingSSVStrategy.sol:CompoundingStakingSSVStrategy",
        "label": "rewardTokenAddresses",
        "offset": 0,
        "slot": "116",
        "type": "t_array(t_address)dyn_storage"
      },
      {
        "astId": 6681,
        "contract": "contracts/strategies/NativeStaking/CompoundingStakingSSVStrategy.sol:CompoundingStakingSSVStrategy",
        "label": "_reserved",
        "offset": 0,
        "slot": "117",
        "type": "t_array(t_int256)98_storage"
      },
      {
        "astId": 3006,
        "contract": "contracts/strategies/NativeStaking/CompoundingStakingSSVStrategy.sol:CompoundingStakingSSVStrategy",
        "label": "__gap",
        "offset": 0,
        "slot": "215",
        "type": "t_array(t_uint256)50_storage"
      }
    ],
    "types": {
      "t_address": {
        "encoding": "inplace",
        "label": "address",
        "numberOfBytes": "20"
      },
      "t_array(t_address)dyn_storage": {
        "base": "t_address",
        "encoding": "dynamic_array",
        "label": "address[]",
        "numberOfBytes": "32"
      },
      "t_array(t_bytes32)dyn_storage": {
        "base": "t_bytes32",
        "encoding": "dynamic_array",
        "label": "bytes32[]",
        "numberOfBytes": "32"
      },
      "t_array(t_int256)98_storage": {
        "base": "t_int256",
        "encoding": "inplace",
        "label": "int256[98]",
        "numberOfBytes": "3136"
      },
      "t_array(t_struct(ValidatorData)3477_storage)dyn_storage": {
        "base": "t_struct(ValidatorData)3477_storage",
        "encoding": "dynamic_array",
        "label": "struct CompoundingValidatorManager.ValidatorData[]",
        "numberOfBytes": "32"
      },
      "t_array(t_uint256)50_storage": {
        "base": "t_uint256",
        "encoding": "inplace",
        "label": "uint256[50]",
        "numberOfBytes": "1600"
      },
      "t_bool": {
        "encoding": "inplace",
        "label": "bool",
        "numberOfBytes": "1"
      },
      "t_bytes32": {
        "encoding": "inplace",
        "label": "bytes32",
        "numberOfBytes": "32"
      },
      "t_enum(DepositStatus)3522": {
        "encoding": "inplace",
        "label": "enum CompoundingValidatorManager.DepositStatus",
        "numberOfBytes": "1"
      },
      "t_enum(VALIDATOR_STATE)3518": {
        "encoding": "inplace",
        "label": "enum CompoundingValidatorManager.VALIDATOR_STATE",
        "numberOfBytes": "1"
      },
      "t_int256": {
        "encoding": "inplace",
        "label": "int256",
        "numberOfBytes": "32"
      },
      "t_mapping(t_address,t_address)": {
        "encoding": "mapping",
        "key": "t_address",
        "label": "mapping(address => address)",
        "numberOfBytes": "32",
        "value": "t_address"
      },
      "t_mapping(t_bytes32,t_enum(VALIDATOR_STATE)3518)": {
        "encoding": "mapping",
        "key": "t_bytes32",
        "label": "mapping(bytes32 => enum CompoundingValidatorManager.VALIDATOR_STATE)",
        "numberOfBytes": "32",
        "value": "t_enum(VALIDATOR_STATE)3518"
      },
      "t_mapping(t_bytes32,t_struct(Balances)3494_storage)": {
        "encoding": "mapping",
        "key": "t_bytes32",
        "label": "mapping(bytes32 => struct CompoundingValidatorManager.Balances)",
        "numberOfBytes": "32",
        "value": "t_struct(Balances)3494_storage"
      },
      "t_mapping(t_bytes32,t_struct(DepositData)3462_storage)": {
        "encoding": "mapping",
        "key": "t_bytes32",
        "label": "mapping(bytes32 => struct CompoundingValidatorManager.DepositData)",
        "numberOfBytes": "32",
        "value": "t_struct(DepositData)3462_storage"
      },
      "t_struct(Balances)3494_storage": {
        "encoding": "inplace",
        "label": "struct CompoundingValidatorManager.Balances",
        "members": [
          {
            "astId": 3491,
            "contract": "contracts/strategies/NativeStaking/CompoundingStakingSSVStrategy.sol:CompoundingStakingSSVStrategy",
            "label": "timestamp",
            "offset": 0,
            "slot": "0",
            "type": "t_uint64"
          },
          {
            "astId": 3493,
            "contract": "contracts/strategies/NativeStaking/CompoundingStakingSSVStrategy.sol:CompoundingStakingSSVStrategy",
            "label": "ethBalance",
            "offset": 8,
            "slot": "0",
            "type": "t_uint128"
          }
        ],
        "numberOfBytes": "32"
      },
      "t_struct(DepositData)3462_storage": {
        "encoding": "inplace",
        "label": "struct CompoundingValidatorManager.DepositData",
        "members": [
          {
            "astId": 3452,
            "contract": "contracts/strategies/NativeStaking/CompoundingStakingSSVStrategy.sol:CompoundingStakingSSVStrategy",
            "label": "pubKeyHash",
            "offset": 0,
            "slot": "0",
            "type": "t_bytes32"
          },
          {
            "astId": 3454,
            "contract": "contracts/strategies/NativeStaking/CompoundingStakingSSVStrategy.sol:CompoundingStakingSSVStrategy",
            "label": "amountGwei",
            "offset": 0,
            "slot": "1",
            "type": "t_uint64"
          },
          {
            "astId": 3456,
            "contract": "contracts/strategies/NativeStaking/CompoundingStakingSSVStrategy.sol:CompoundingStakingSSVStrategy",
            "label": "slot",
            "offset": 8,
            "slot": "1",
            "type": "t_uint64"
          },
          {
            "astId": 3458,
            "contract": "contracts/strategies/NativeStaking/CompoundingStakingSSVStrategy.sol:CompoundingStakingSSVStrategy",
            "label": "depositIndex",
            "offset": 16,
            "slot": "1",
            "type": "t_uint32"
          },
          {
            "astId": 3461,
            "contract": "contracts/strategies/NativeStaking/CompoundingStakingSSVStrategy.sol:CompoundingStakingSSVStrategy",
            "label": "status",
            "offset": 20,
            "slot": "1",
            "type": "t_enum(DepositStatus)3522"
          }
        ],
        "numberOfBytes": "64"
      },
      "t_struct(ValidatorData)3477_storage": {
        "encoding": "inplace",
        "label": "struct CompoundingValidatorManager.ValidatorData",
        "members": [
          {
            "astId": 3474,
            "contract": "contracts/strategies/NativeStaking/CompoundingStakingSSVStrategy.sol:CompoundingStakingSSVStrategy",
            "label": "pubKeyHash",
            "offset": 0,
            "slot": "0",
            "type": "t_bytes32"
          },
          {
            "astId": 3476,
            "contract": "contracts/strategies/NativeStaking/CompoundingStakingSSVStrategy.sol:CompoundingStakingSSVStrategy",
            "label": "index",
            "offset": 0,
            "slot": "1",
            "type": "t_uint64"
          }
        ],
        "numberOfBytes": "64"
      },
      "t_uint128": {
        "encoding": "inplace",
        "label": "uint128",
        "numberOfBytes": "16"
      },
      "t_uint256": {
        "encoding": "inplace",
        "label": "uint256",
        "numberOfBytes": "32"
      },
      "t_uint32": {
        "encoding": "inplace",
        "label": "uint32",
        "numberOfBytes": "4"
      },
      "t_uint64": {
        "encoding": "inplace",
        "label": "uint64",
        "numberOfBytes": "8"
      }
    }
  }
}