{
  "address": "0x841f8DaACFDBC0937821F2c13F88013FaF688dE9",
  "abi": [
    {
      "inputs": [
        {
          "components": [
            {
              "internalType": "address",
              "name": "platformAddress",
              "type": "address"
            },
            {
              "internalType": "address",
              "name": "vaultAddress",
              "type": "address"
            }
          ],
          "internalType": "struct InitializableAbstractStrategy.BaseStrategyConfig",
          "name": "_baseConfig",
          "type": "tuple"
        },
        {
          "internalType": "address",
          "name": "_wethAddress",
          "type": "address"
        },
        {
          "internalType": "address",
          "name": "_ssvToken",
          "type": "address"
        },
        {
          "internalType": "address",
          "name": "_ssvNetwork",
          "type": "address"
        },
        {
          "internalType": "address",
          "name": "_beaconChainDepositContract",
          "type": "address"
        },
        {
          "internalType": "address",
          "name": "_beaconOracle",
          "type": "address"
        },
        {
          "internalType": "address",
          "name": "_beaconProofs",
          "type": "address"
        }
      ],
      "stateMutability": "nonpayable",
      "type": "constructor"
    },
    {
      "anonymous": false,
      "inputs": [
        {
          "indexed": true,
          "internalType": "uint256",
          "name": "timestamp",
          "type": "uint256"
        },
        {
          "indexed": true,
          "internalType": "bytes32",
          "name": "blockRoot",
          "type": "bytes32"
        },
        {
          "indexed": false,
          "internalType": "uint256",
          "name": "ethBalance",
          "type": "uint256"
        }
      ],
      "name": "BalancesSnapped",
      "type": "event"
    },
    {
      "anonymous": false,
      "inputs": [
        {
          "indexed": true,
          "internalType": "uint64",
          "name": "timestamp",
          "type": "uint64"
        },
        {
          "indexed": false,
          "internalType": "uint256",
          "name": "totalDepositsWei",
          "type": "uint256"
        },
        {
          "indexed": false,
          "internalType": "uint256",
          "name": "totalValidatorBalance",
          "type": "uint256"
        },
        {
          "indexed": false,
          "internalType": "uint256",
          "name": "wethBalance",
          "type": "uint256"
        },
        {
          "indexed": false,
          "internalType": "uint256",
          "name": "ethBalance",
          "type": "uint256"
        }
      ],
      "name": "BalancesVerified",
      "type": "event"
    },
    {
      "anonymous": false,
      "inputs": [
        {
          "indexed": true,
          "internalType": "bytes32",
          "name": "lastSourcePubKeyHash",
          "type": "bytes32"
        },
        {
          "indexed": true,
          "internalType": "bytes32",
          "name": "targetPubKeyHash",
          "type": "bytes32"
        },
        {
          "indexed": true,
          "internalType": "address",
          "name": "sourceStrategy",
          "type": "address"
        }
      ],
      "name": "ConsolidationRequested",
      "type": "event"
    },
    {
      "anonymous": false,
      "inputs": [
        {
          "indexed": true,
          "internalType": "bytes32",
          "name": "lastSourcePubKeyHash",
          "type": "bytes32"
        },
        {
          "indexed": true,
          "internalType": "uint64",
          "name": "lastValidatorIndex",
          "type": "uint64"
        },
        {
          "indexed": false,
          "internalType": "uint256",
          "name": "consolidationCount",
          "type": "uint256"
        }
      ],
      "name": "ConsolidationVerified",
      "type": "event"
    },
    {
      "anonymous": false,
      "inputs": [
        {
          "indexed": true,
          "internalType": "address",
          "name": "_asset",
          "type": "address"
        },
        {
          "indexed": false,
          "internalType": "address",
          "name": "_pToken",
          "type": "address"
        },
        {
          "indexed": false,
          "internalType": "uint256",
          "name": "_amount",
          "type": "uint256"
        }
      ],
      "name": "Deposit",
      "type": "event"
    },
    {
      "anonymous": false,
      "inputs": [
        {
          "indexed": true,
          "internalType": "bytes32",
          "name": "depositDataRoot",
          "type": "bytes32"
        },
        {
          "indexed": false,
          "internalType": "uint256",
          "name": "amountWei",
          "type": "uint256"
        }
      ],
      "name": "DepositVerified",
      "type": "event"
    },
    {
      "anonymous": false,
      "inputs": [
        {
          "indexed": true,
          "internalType": "bytes32",
          "name": "pubKeyHash",
          "type": "bytes32"
        },
        {
          "indexed": true,
          "internalType": "bytes32",
          "name": "depositDataRoot",
          "type": "bytes32"
        },
        {
          "indexed": false,
          "internalType": "bytes",
          "name": "pubKey",
          "type": "bytes"
        },
        {
          "indexed": false,
          "internalType": "uint256",
          "name": "amountWei",
          "type": "uint256"
        }
      ],
      "name": "ETHStaked",
      "type": "event"
    },
    {
      "anonymous": false,
      "inputs": [
        {
          "indexed": true,
          "internalType": "address",
          "name": "previousGovernor",
          "type": "address"
        },
        {
          "indexed": true,
          "internalType": "address",
          "name": "newGovernor",
          "type": "address"
        }
      ],
      "name": "GovernorshipTransferred",
      "type": "event"
    },
    {
      "anonymous": false,
      "inputs": [
        {
          "indexed": false,
          "internalType": "address",
          "name": "_oldHarvesterAddress",
          "type": "address"
        },
        {
          "indexed": false,
          "internalType": "address",
          "name": "_newHarvesterAddress",
          "type": "address"
        }
      ],
      "name": "HarvesterAddressesUpdated",
      "type": "event"
    },
    {
      "anonymous": false,
      "inputs": [
        {
          "indexed": true,
          "internalType": "address",
          "name": "_asset",
          "type": "address"
        },
        {
          "indexed": false,
          "internalType": "address",
          "name": "_pToken",
          "type": "address"
        }
      ],
      "name": "PTokenAdded",
      "type": "event"
    },
    {
      "anonymous": false,
      "inputs": [
        {
          "indexed": true,
          "internalType": "address",
          "name": "_asset",
          "type": "address"
        },
        {
          "indexed": false,
          "internalType": "address",
          "name": "_pToken",
          "type": "address"
        }
      ],
      "name": "PTokenRemoved",
      "type": "event"
    },
    {
      "anonymous": false,
      "inputs": [
        {
          "indexed": false,
          "internalType": "address",
          "name": "account",
          "type": "address"
        }
      ],
      "name": "Paused",
      "type": "event"
    },
    {
      "anonymous": false,
      "inputs": [
        {
          "indexed": true,
          "internalType": "address",
          "name": "previousGovernor",
          "type": "address"
        },
        {
          "indexed": true,
          "internalType": "address",
          "name": "newGovernor",
          "type": "address"
        }
      ],
      "name": "PendingGovernorshipTransfer",
      "type": "event"
    },
    {
      "anonymous": false,
      "inputs": [
        {
          "indexed": true,
          "internalType": "address",
          "name": "newAddress",
          "type": "address"
        }
      ],
      "name": "RegistratorChanged",
      "type": "event"
    },
    {
      "anonymous": false,
      "inputs": [
        {
          "indexed": false,
          "internalType": "address[]",
          "name": "_oldAddresses",
          "type": "address[]"
        },
        {
          "indexed": false,
          "internalType": "address[]",
          "name": "_newAddresses",
          "type": "address[]"
        }
      ],
      "name": "RewardTokenAddressesUpdated",
      "type": "event"
    },
    {
      "anonymous": false,
      "inputs": [
        {
          "indexed": false,
          "internalType": "address",
          "name": "recipient",
          "type": "address"
        },
        {
          "indexed": false,
          "internalType": "address",
          "name": "rewardToken",
          "type": "address"
        },
        {
          "indexed": false,
          "internalType": "uint256",
          "name": "amount",
          "type": "uint256"
        }
      ],
      "name": "RewardTokenCollected",
      "type": "event"
    },
    {
      "anonymous": false,
      "inputs": [
        {
          "indexed": true,
          "internalType": "bytes32",
          "name": "pubKeyHash",
          "type": "bytes32"
        },
        {
          "indexed": false,
          "internalType": "uint64[]",
          "name": "operatorIds",
          "type": "uint64[]"
        }
      ],
      "name": "SSVValidatorRegistered",
      "type": "event"
    },
    {
      "anonymous": false,
      "inputs": [
        {
          "indexed": true,
          "internalType": "bytes32",
          "name": "pubKeyHash",
          "type": "bytes32"
        },
        {
          "indexed": false,
          "internalType": "uint64[]",
          "name": "operatorIds",
          "type": "uint64[]"
        }
      ],
      "name": "SSVValidatorRemoved",
      "type": "event"
    },
    {
      "anonymous": false,
      "inputs": [
        {
          "indexed": true,
          "internalType": "address",
          "name": "strategy",
          "type": "address"
        }
      ],
      "name": "SourceStrategyAdded",
      "type": "event"
    },
    {
      "anonymous": false,
      "inputs": [
        {
          "indexed": false,
          "internalType": "address",
          "name": "account",
          "type": "address"
        }
      ],
      "name": "Unpaused",
      "type": "event"
    },
    {
      "anonymous": false,
      "inputs": [
        {
          "indexed": true,
          "internalType": "bytes32",
          "name": "pubKeyHash",
          "type": "bytes32"
        },
        {
          "indexed": true,
          "internalType": "uint64",
          "name": "validatorIndex",
          "type": "uint64"
        }
      ],
      "name": "ValidatorVerified",
      "type": "event"
    },
    {
      "anonymous": false,
      "inputs": [
        {
          "indexed": true,
          "internalType": "bytes32",
          "name": "pubKeyHash",
          "type": "bytes32"
        },
        {
          "indexed": false,
          "internalType": "uint256",
          "name": "amountWei",
          "type": "uint256"
        }
      ],
      "name": "ValidatorWithdraw",
      "type": "event"
    },
    {
      "anonymous": false,
      "inputs": [
        {
          "indexed": true,
          "internalType": "address",
          "name": "_asset",
          "type": "address"
        },
        {
          "indexed": false,
          "internalType": "address",
          "name": "_pToken",
          "type": "address"
        },
        {
          "indexed": false,
          "internalType": "uint256",
          "name": "_amount",
          "type": "uint256"
        }
      ],
      "name": "Withdrawal",
      "type": "event"
    },
    {
      "inputs": [],
      "name": "BEACON_CHAIN_DEPOSIT_CONTRACT",
      "outputs": [
        {
          "internalType": "address",
          "name": "",
          "type": "address"
        }
      ],
      "stateMutability": "view",
      "type": "function"
    },
    {
      "inputs": [],
      "name": "BEACON_ORACLE",
      "outputs": [
        {
          "internalType": "address",
          "name": "",
          "type": "address"
        }
      ],
      "stateMutability": "view",
      "type": "function"
    },
    {
      "inputs": [],
      "name": "BEACON_PROOFS",
      "outputs": [
        {
          "internalType": "address",
          "name": "",
          "type": "address"
        }
      ],
      "stateMutability": "view",
      "type": "function"
    },
    {
      "inputs": [],
      "name": "DEPOSIT_AMOUNT_WEI",
      "outputs": [
        {
          "internalType": "uint256",
          "name": "",
          "type": "uint256"
        }
      ],
      "stateMutability": "view",
      "type": "function"
    },
    {
      "inputs": [],
      "name": "SSV_NETWORK",
      "outputs": [
        {
          "internalType": "address",
          "name": "",
          "type": "address"
        }
      ],
      "stateMutability": "view",
      "type": "function"
    },
    {
      "inputs": [],
      "name": "SSV_TOKEN",
      "outputs": [
        {
          "internalType": "address",
          "name": "",
          "type": "address"
        }
      ],
      "stateMutability": "view",
      "type": "function"
    },
    {
      "inputs": [],
      "name": "VAULT_ADDRESS",
      "outputs": [
        {
          "internalType": "address",
          "name": "",
          "type": "address"
        }
      ],
      "stateMutability": "view",
      "type": "function"
    },
    {
      "inputs": [],
      "name": "WETH",
      "outputs": [
        {
          "internalType": "address",
          "name": "",
          "type": "address"
        }
      ],
      "stateMutability": "view",
      "type": "function"
    },
    {
      "inputs": [
        {
          "internalType": "address",
          "name": "_strategy",
          "type": "address"
        }
      ],
      "name": "addSourceStrategy",
      "outputs": [],
      "stateMutability": "nonpayable",
      "type": "function"
    },
    {
      "inputs": [
        {
          "internalType": "address",
          "name": "",
          "type": "address"
        }
      ],
      "name": "assetToPToken",
      "outputs": [
        {
          "internalType": "address",
          "name": "",
          "type": "address"
        }
      ],
      "stateMutability": "view",
      "type": "function"
    },
    {
      "inputs": [
        {
          "internalType": "address",
          "name": "_asset",
          "type": "address"
        }
      ],
      "name": "checkBalance",
      "outputs": [
        {
          "internalType": "uint256",
          "name": "balance",
          "type": "uint256"
        }
      ],
      "stateMutability": "view",
      "type": "function"
    },
    {
      "inputs": [],
      "name": "claimGovernance",
      "outputs": [],
      "stateMutability": "nonpayable",
      "type": "function"
    },
    {
      "inputs": [],
      "name": "collectRewardTokens",
      "outputs": [],
      "stateMutability": "nonpayable",
      "type": "function"
    },
    {
      "inputs": [],
      "name": "consolidationLastPubKeyHash",
      "outputs": [
        {
          "internalType": "bytes32",
          "name": "",
          "type": "bytes32"
        }
      ],
      "stateMutability": "view",
      "type": "function"
    },
    {
      "inputs": [
        {
          "internalType": "address",
          "name": "",
          "type": "address"
        }
      ],
      "name": "consolidationSourceStrategies",
      "outputs": [
        {
          "internalType": "bool",
          "name": "",
          "type": "bool"
        }
      ],
      "stateMutability": "view",
      "type": "function"
    },
    {
      "inputs": [],
      "name": "consolidationSourceStrategy",
      "outputs": [
        {
          "internalType": "address",
          "name": "",
          "type": "address"
        }
      ],
      "stateMutability": "view",
      "type": "function"
    },
    {
      "inputs": [
        {
          "internalType": "address",
          "name": "_asset",
          "type": "address"
        },
        {
          "internalType": "uint256",
          "name": "_amount",
          "type": "uint256"
        }
      ],
      "name": "deposit",
      "outputs": [],
      "stateMutability": "nonpayable",
      "type": "function"
    },
    {
      "inputs": [],
      "name": "depositAll",
      "outputs": [],
      "stateMutability": "nonpayable",
      "type": "function"
    },
    {
      "inputs": [],
      "name": "depositedWethAccountedFor",
      "outputs": [
        {
          "internalType": "uint256",
          "name": "",
          "type": "uint256"
        }
      ],
      "stateMutability": "view",
      "type": "function"
    },
    {
      "inputs": [
        {
          "internalType": "bytes32",
          "name": "",
          "type": "bytes32"
        }
      ],
      "name": "deposits",
      "outputs": [
        {
          "internalType": "bytes32",
          "name": "pubKeyHash",
          "type": "bytes32"
        },
        {
          "internalType": "uint64",
          "name": "amountGwei",
          "type": "uint64"
        },
        {
          "internalType": "uint64",
          "name": "blockNumber",
          "type": "uint64"
        },
        {
          "internalType": "uint32",
          "name": "depositIndex",
          "type": "uint32"
        },
        {
          "internalType": "enum CompoundingValidatorManager.DepositStatus",
          "name": "status",
          "type": "uint8"
        }
      ],
      "stateMutability": "view",
      "type": "function"
    },
    {
      "inputs": [
        {
          "internalType": "uint256",
          "name": "",
          "type": "uint256"
        }
      ],
      "name": "depositsRoots",
      "outputs": [
        {
          "internalType": "bytes32",
          "name": "",
          "type": "bytes32"
        }
      ],
      "stateMutability": "view",
      "type": "function"
    },
    {
      "inputs": [],
      "name": "getRewardTokenAddresses",
      "outputs": [
        {
          "internalType": "address[]",
          "name": "",
          "type": "address[]"
        }
      ],
      "stateMutability": "view",
      "type": "function"
    },
    {
      "inputs": [],
      "name": "getVerifiedValidators",
      "outputs": [
        {
          "components": [
            {
              "internalType": "bytes32",
              "name": "pubKeyHash",
              "type": "bytes32"
            },
            {
              "internalType": "uint64",
              "name": "index",
              "type": "uint64"
            }
          ],
          "internalType": "struct CompoundingValidatorManager.ValidatorData[]",
          "name": "",
          "type": "tuple[]"
        }
      ],
      "stateMutability": "view",
      "type": "function"
    },
    {
      "inputs": [],
      "name": "governor",
      "outputs": [
        {
          "internalType": "address",
          "name": "",
          "type": "address"
        }
      ],
      "stateMutability": "view",
      "type": "function"
    },
    {
      "inputs": [],
      "name": "harvesterAddress",
      "outputs": [
        {
          "internalType": "address",
          "name": "",
          "type": "address"
        }
      ],
      "stateMutability": "view",
      "type": "function"
    },
    {
      "inputs": [
        {
          "internalType": "address[]",
          "name": "_rewardTokenAddresses",
          "type": "address[]"
        },
        {
          "internalType": "address[]",
          "name": "_assets",
          "type": "address[]"
        },
        {
          "internalType": "address[]",
          "name": "_pTokens",
          "type": "address[]"
        }
      ],
      "name": "initialize",
      "outputs": [],
      "stateMutability": "nonpayable",
      "type": "function"
    },
    {
      "inputs": [],
      "name": "isGovernor",
      "outputs": [
        {
          "internalType": "bool",
          "name": "",
          "type": "bool"
        }
      ],
      "stateMutability": "view",
      "type": "function"
    },
    {
      "inputs": [],
      "name": "lastSnapTimestamp",
      "outputs": [
        {
          "internalType": "uint64",
          "name": "",
          "type": "uint64"
        }
      ],
      "stateMutability": "view",
      "type": "function"
    },
    {
      "inputs": [],
      "name": "lastVerifiedEthBalance",
      "outputs": [
        {
          "internalType": "uint128",
          "name": "",
          "type": "uint128"
        }
      ],
      "stateMutability": "view",
      "type": "function"
    },
    {
      "inputs": [],
      "name": "paused",
      "outputs": [
        {
          "internalType": "bool",
          "name": "",
          "type": "bool"
        }
      ],
      "stateMutability": "view",
      "type": "function"
    },
    {
      "inputs": [],
      "name": "platformAddress",
      "outputs": [
        {
          "internalType": "address",
          "name": "",
          "type": "address"
        }
      ],
      "stateMutability": "view",
      "type": "function"
    },
    {
      "inputs": [
        {
          "internalType": "bytes",
          "name": "publicKey",
          "type": "bytes"
        },
        {
          "internalType": "uint64[]",
          "name": "operatorIds",
          "type": "uint64[]"
        },
        {
          "internalType": "bytes",
          "name": "sharesData",
          "type": "bytes"
        },
        {
          "internalType": "uint256",
          "name": "ssvAmount",
          "type": "uint256"
        },
        {
          "components": [
            {
              "internalType": "uint32",
              "name": "validatorCount",
              "type": "uint32"
            },
            {
              "internalType": "uint64",
              "name": "networkFeeIndex",
              "type": "uint64"
            },
            {
              "internalType": "uint64",
              "name": "index",
              "type": "uint64"
            },
            {
              "internalType": "bool",
              "name": "active",
              "type": "bool"
            },
            {
              "internalType": "uint256",
              "name": "balance",
              "type": "uint256"
            }
          ],
          "internalType": "struct Cluster",
          "name": "cluster",
          "type": "tuple"
        }
      ],
      "name": "registerSsvValidator",
      "outputs": [],
      "stateMutability": "nonpayable",
      "type": "function"
    },
    {
      "inputs": [
        {
          "internalType": "uint256",
          "name": "_assetIndex",
          "type": "uint256"
        }
      ],
      "name": "removePToken",
      "outputs": [],
      "stateMutability": "nonpayable",
      "type": "function"
    },
    {
      "inputs": [
        {
          "internalType": "bytes",
          "name": "publicKey",
          "type": "bytes"
        },
        {
          "internalType": "uint64[]",
          "name": "operatorIds",
          "type": "uint64[]"
        },
        {
          "components": [
            {
              "internalType": "uint32",
              "name": "validatorCount",
              "type": "uint32"
            },
            {
              "internalType": "uint64",
              "name": "networkFeeIndex",
              "type": "uint64"
            },
            {
              "internalType": "uint64",
              "name": "index",
              "type": "uint64"
            },
            {
              "internalType": "bool",
              "name": "active",
              "type": "bool"
            },
            {
              "internalType": "uint256",
              "name": "balance",
              "type": "uint256"
            }
          ],
          "internalType": "struct Cluster",
          "name": "cluster",
          "type": "tuple"
        }
      ],
      "name": "removeSsvValidator",
      "outputs": [],
      "stateMutability": "nonpayable",
      "type": "function"
    },
    {
      "inputs": [
        {
          "internalType": "bytes32",
          "name": "lastSourcePubKeyHash",
          "type": "bytes32"
        },
        {
          "internalType": "bytes32",
          "name": "targetPubKeyHash",
          "type": "bytes32"
        }
      ],
      "name": "requestConsolidation",
      "outputs": [],
      "stateMutability": "nonpayable",
      "type": "function"
    },
    {
      "inputs": [
        {
          "internalType": "uint256",
          "name": "",
          "type": "uint256"
        }
      ],
      "name": "rewardTokenAddresses",
      "outputs": [
        {
          "internalType": "address",
          "name": "",
          "type": "address"
        }
      ],
      "stateMutability": "view",
      "type": "function"
    },
    {
      "inputs": [],
      "name": "safeApproveAllTokens",
      "outputs": [],
      "stateMutability": "nonpayable",
      "type": "function"
    },
    {
      "inputs": [
        {
          "internalType": "address",
          "name": "_harvesterAddress",
          "type": "address"
        }
      ],
      "name": "setHarvesterAddress",
      "outputs": [],
      "stateMutability": "nonpayable",
      "type": "function"
    },
    {
      "inputs": [
        {
          "internalType": "address",
          "name": "_asset",
          "type": "address"
        },
        {
          "internalType": "address",
          "name": "_pToken",
          "type": "address"
        }
      ],
      "name": "setPTokenAddress",
      "outputs": [],
      "stateMutability": "nonpayable",
      "type": "function"
    },
    {
      "inputs": [
        {
          "internalType": "address",
          "name": "_address",
          "type": "address"
        }
      ],
      "name": "setRegistrator",
      "outputs": [],
      "stateMutability": "nonpayable",
      "type": "function"
    },
    {
      "inputs": [
        {
          "internalType": "address[]",
          "name": "_rewardTokenAddresses",
          "type": "address[]"
        }
      ],
      "name": "setRewardTokenAddresses",
      "outputs": [],
      "stateMutability": "nonpayable",
      "type": "function"
    },
    {
      "inputs": [],
      "name": "snapBalances",
      "outputs": [],
      "stateMutability": "nonpayable",
      "type": "function"
    },
    {
      "inputs": [
        {
          "internalType": "bytes32",
          "name": "",
          "type": "bytes32"
        }
      ],
      "name": "snappedBalances",
      "outputs": [
        {
          "internalType": "uint64",
          "name": "timestamp",
          "type": "uint64"
        },
        {
          "internalType": "uint128",
          "name": "ethBalance",
          "type": "uint128"
        }
      ],
      "stateMutability": "view",
      "type": "function"
    },
    {
      "inputs": [
        {
          "components": [
            {
              "internalType": "bytes",
              "name": "pubkey",
              "type": "bytes"
            },
            {
              "internalType": "bytes",
              "name": "signature",
              "type": "bytes"
            },
            {
              "internalType": "bytes32",
              "name": "depositDataRoot",
              "type": "bytes32"
            }
          ],
          "internalType": "struct ValidatorStakeData",
          "name": "validator",
          "type": "tuple"
        },
        {
          "internalType": "uint64",
          "name": "depositAmountGwei",
          "type": "uint64"
        }
      ],
      "name": "stakeEth",
      "outputs": [],
      "stateMutability": "nonpayable",
      "type": "function"
    },
    {
      "inputs": [
        {
          "internalType": "address",
          "name": "_asset",
          "type": "address"
        }
      ],
      "name": "supportsAsset",
      "outputs": [
        {
          "internalType": "bool",
          "name": "",
          "type": "bool"
        }
      ],
      "stateMutability": "view",
      "type": "function"
    },
    {
      "inputs": [
        {
          "internalType": "address",
          "name": "_newGovernor",
          "type": "address"
        }
      ],
      "name": "transferGovernance",
      "outputs": [],
      "stateMutability": "nonpayable",
      "type": "function"
    },
    {
      "inputs": [
        {
          "internalType": "address",
          "name": "_asset",
          "type": "address"
        },
        {
          "internalType": "uint256",
          "name": "_amount",
          "type": "uint256"
        }
      ],
      "name": "transferToken",
      "outputs": [],
      "stateMutability": "nonpayable",
      "type": "function"
    },
    {
      "inputs": [],
      "name": "validatorRegistrator",
      "outputs": [
        {
          "internalType": "address",
          "name": "",
          "type": "address"
        }
      ],
      "stateMutability": "view",
      "type": "function"
    },
    {
      "inputs": [
        {
          "internalType": "bytes32",
          "name": "",
          "type": "bytes32"
        }
      ],
      "name": "validatorState",
      "outputs": [
        {
          "internalType": "enum CompoundingValidatorManager.VALIDATOR_STATE",
          "name": "",
          "type": "uint8"
        }
      ],
      "stateMutability": "view",
      "type": "function"
    },
    {
      "inputs": [
        {
          "internalType": "bytes",
          "name": "publicKey",
          "type": "bytes"
        },
        {
          "internalType": "uint64",
          "name": "amountGwei",
          "type": "uint64"
        }
      ],
      "name": "validatorWithdrawal",
      "outputs": [],
      "stateMutability": "nonpayable",
      "type": "function"
    },
    {
      "inputs": [],
      "name": "vaultAddress",
      "outputs": [
        {
          "internalType": "address",
          "name": "",
          "type": "address"
        }
      ],
      "stateMutability": "view",
      "type": "function"
    },
    {
      "inputs": [
        {
          "components": [
            {
              "internalType": "bytes32",
              "name": "blockRoot",
              "type": "bytes32"
            },
            {
              "internalType": "uint64",
              "name": "firstPendingDepositSlot",
              "type": "uint64"
            },
            {
              "internalType": "bytes",
              "name": "firstPendingDepositSlotProof",
              "type": "bytes"
            },
            {
              "internalType": "bytes32",
              "name": "balancesContainerRoot",
              "type": "bytes32"
            },
            {
              "internalType": "bytes",
              "name": "validatorContainerProof",
              "type": "bytes"
            },
            {
              "internalType": "bytes32[]",
              "name": "validatorBalanceLeaves",
              "type": "bytes32[]"
            },
            {
              "internalType": "bytes[]",
              "name": "validatorBalanceProofs",
              "type": "bytes[]"
            }
          ],
          "internalType": "struct CompoundingValidatorManager.VerifyBalancesParams",
          "name": "params",
          "type": "tuple"
        }
      ],
      "name": "verifyBalances",
      "outputs": [],
      "stateMutability": "nonpayable",
      "type": "function"
    },
    {
      "inputs": [
        {
          "internalType": "bytes32",
          "name": "depositDataRoot",
          "type": "bytes32"
        },
        {
          "internalType": "uint64",
          "name": "depositBlockNumber",
          "type": "uint64"
        },
        {
          "internalType": "uint64",
          "name": "processedSlot",
          "type": "uint64"
        },
        {
          "internalType": "uint64",
          "name": "firstPendingDepositSlot",
          "type": "uint64"
        },
        {
          "internalType": "bytes",
          "name": "firstPendingDepositSlotProof",
          "type": "bytes"
        }
      ],
      "name": "verifyDeposit",
      "outputs": [],
      "stateMutability": "nonpayable",
      "type": "function"
    },
    {
      "inputs": [
        {
          "internalType": "uint64",
          "name": "nextBlockTimestamp",
          "type": "uint64"
        },
        {
          "internalType": "uint64",
          "name": "validatorIndex",
          "type": "uint64"
        },
        {
          "internalType": "bytes32",
          "name": "pubKeyHash",
          "type": "bytes32"
        },
        {
          "internalType": "bytes",
          "name": "validatorPubKeyProof",
          "type": "bytes"
        }
      ],
      "name": "verifyValidator",
      "outputs": [],
      "stateMutability": "nonpayable",
      "type": "function"
    },
    {
      "inputs": [
        {
          "internalType": "address",
          "name": "_recipient",
          "type": "address"
        },
        {
          "internalType": "address",
          "name": "_asset",
          "type": "address"
        },
        {
          "internalType": "uint256",
          "name": "_amount",
          "type": "uint256"
        }
      ],
      "name": "withdraw",
      "outputs": [],
      "stateMutability": "nonpayable",
      "type": "function"
    },
    {
      "inputs": [],
      "name": "withdrawAll",
      "outputs": [],
      "stateMutability": "nonpayable",
      "type": "function"
    },
    {
      "inputs": [
        {
          "internalType": "uint64[]",
          "name": "operatorIds",
          "type": "uint64[]"
        },
        {
          "internalType": "uint256",
          "name": "ssvAmount",
          "type": "uint256"
        },
        {
          "components": [
            {
              "internalType": "uint32",
              "name": "validatorCount",
              "type": "uint32"
            },
            {
              "internalType": "uint64",
              "name": "networkFeeIndex",
              "type": "uint64"
            },
            {
              "internalType": "uint64",
              "name": "index",
              "type": "uint64"
            },
            {
              "internalType": "bool",
              "name": "active",
              "type": "bool"
            },
            {
              "internalType": "uint256",
              "name": "balance",
              "type": "uint256"
            }
          ],
          "internalType": "struct Cluster",
          "name": "cluster",
          "type": "tuple"
        }
      ],
      "name": "withdrawSSV",
      "outputs": [],
      "stateMutability": "nonpayable",
      "type": "function"
    },
    {
      "stateMutability": "payable",
      "type": "receive"
    }
  ],
  "transactionHash": "0xdaffe577f383604c42ab86157820c04eafe10a3bd38b85945ca8cb6682d6b1b5",
  "args": [
    [
      "0x0000000000000000000000000000000000000000",
      "0xD0cC28bc8F4666286F3211e465ecF1fe5c72AC8B"
    ],
    "0x56fb9b754a21eb45fa8e1ae98be0525e9fee9540",
    "0x9F5d4Ec84fC4785788aB44F9de973cF34F7A038e",
    "0x58410Bef803ECd7E63B23664C586A6DB72DAf59c",
    "0x00000000219ab540356cBB839Cbe05303d7705Fa",
    "0x246594d0276ffAeB0442c3edcdfB026e6924B3B3",
    "0x8d62350d6DfC8A928bBF5efD2e44c66034Afa7C6"
  ],
  "numDeployments": 2,
  "solcInputHash": "1f427944062510ef43043025720d6f6d",
  "bytecode": "0x6101a060405234801561001157600080fd5b50604051615f3d380380615f3d833981016040819052610030916100a2565b6020870180516033805460ff191690556001600160a01b0397881660805293871660a05293861660c05291851660e05284166101005283166101205292518216610140529151811661016052166101805261017f565b80516001600160a01b038116811461009d57600080fd5b919050565b60008060008060008060008789036101008112156100bf57600080fd5b60408112156100cd57600080fd5b50604080519081016001600160401b03811182821017156100fe57634e487b7160e01b600052604160045260246000fd5b60405261010a89610086565b815261011860208a01610086565b6020820152965061012b60408901610086565b955061013960608901610086565b945061014760808901610086565b935061015560a08901610086565b925061016360c08901610086565b915061017160e08901610086565b905092959891949750929550565b60805160a05160c05160e0516101005161012051610140516101605161018051615c526102eb600039600081816103ca01528181611dfd01526133200152600081816106150152818161241501528181612dea01528181612f850152818161379801526138a001526000610bc60152600081816108aa01528181610e6b01528181611153015281816111fb015281816119690152611b9c01526000818161091801528181610f0a0152818161177d01526118da0152600061094c0152600081816109a001528181611dcd01528181612cf9015281816132f0015281816133cb0152613569015260008181610b3c01526121ad015260008181610a1f01528181610a7601528181610cf50152818161146e01528181611f060152818161248a015281816129f301528181612a5701528181612efb01528181612fa6015281816138300152818161392b015281816139d601528181613eef0152818161478e01526148c80152615c526000f3fe60806040526004361061037a5760003560e01c806371a735f3116101d1578063ad5c464811610102578063d059f6ef116100a0578063dc2ed5211161006f578063dc2ed52114610be8578063de5f626814610c18578063f52ff4e214610c2d578063f6ca71b014610c4d57600080fd5b8063d059f6ef14610b5e578063d38bfff414610b74578063d9caed1214610b94578063dbe55e5614610bb457600080fd5b8063c2e1e3f4116100dc578063c2e1e3f414610ad8578063c7af335214610af8578063cb60d55614610b0d578063cceab75014610b2a57600080fd5b8063ad5c464814610a64578063b6e2b52014610a98578063bb1b918d14610ab857600080fd5b80639092c31c1161016f5780639566fe83116101495780639566fe83146109c257806396d538bb146109e2578063aa388af614610a02578063ad1728cb14610a4f57600080fd5b80639092c31c1461093a5780639136616a1461096e578063916497511461098e57600080fd5b80637da9982a116101ab5780637da9982a14610898578063853828b6146108cc57806387bae867146108e1578063885bde7d1461090657600080fd5b806371a735f31461083857806372eed599146108585780637b2d9b2c1461087857600080fd5b80634583ef10116102ab5780635c975abb116102495780635f515226116102235780635f515226146107c357806367c7066c146107e35780636874469d146108035780636e811d381461081857600080fd5b80635c975abb146107685780635d36b1901461078c5780635e1c519b146107a157600080fd5b8063522e424511610285578063522e4245146106d457806352a332f0146106f457806359ff4158146107145780635a063f631461075357600080fd5b80634583ef101461065757806347e7ef24146106775780634f31e7601461069757600080fd5b806321e1bef9116103185780633ca128bf116102f25780633ca128bf1461056f5780633d4dff7b1461058f578063430bf08a14610603578063435356d11461063757600080fd5b806321e1bef9146104bc578063390a7f561461052b5780633a3a17a51461054f57600080fd5b80630fc3b4c4116103545780630fc3b4c41461040e5780631072cbea14610444578063114dbf761461046457806312b92fa81461048457600080fd5b80630c340a24146103865780630df1ecfd146103b85780630ed57b3a146103ec57600080fd5b3661038157005b600080fd5b34801561039257600080fd5b5061039b610c6f565b6040516001600160a01b0390911681526020015b60405180910390f35b3480156103c457600080fd5b5061039b7f000000000000000000000000000000000000000000000000000000000000000081565b3480156103f857600080fd5b5061040c610407366004614b0b565b610c8c565b005b34801561041a57600080fd5b5061039b610429366004614b3e565b6072602052600090815260409020546001600160a01b031681565b34801561045057600080fd5b5061040c61045f366004614b59565b610cc7565b34801561047057600080fd5b5061040c61047f366004614b83565b610d82565b34801561049057600080fd5b506039546104a4906001600160401b031681565b6040516001600160401b0390911681526020016103af565b3480156104c857600080fd5b506105046104d7366004614bbd565b6038602052600090815260409020546001600160401b03811690600160401b90046001600160801b031682565b604080516001600160401b0390931683526001600160801b039091166020830152016103af565b34801561053757600080fd5b50610541603b5481565b6040519081526020016103af565b34801561055b57600080fd5b5061040c61056a366004614c33565b61159f565b34801561057b57600080fd5b5061040c61058a366004614cb7565b611b0e565b34801561059b57600080fd5b506105f26105aa366004614bbd565b603460205260009081526040902080546001909101546001600160401b0380821691600160401b810490911690600160801b810463ffffffff1690600160a01b900460ff1685565b6040516103af959493929190614d3f565b34801561060f57600080fd5b5061039b7f000000000000000000000000000000000000000000000000000000000000000081565b34801561064357600080fd5b5061040c610652366004614e66565b611ce9565b34801561066357600080fd5b5061040c610672366004614ef7565b611e83565b34801561068357600080fd5b5061040c610692366004614b59565b61240a565b3480156106a357600080fd5b506106c76106b2366004614bbd565b60376020526000908152604090205460ff1681565b6040516103af9190614f4d565b3480156106e057600080fd5b5061040c6106ef366004614f67565b612587565b34801561070057600080fd5b5061040c61070f366004614fbd565b6126e6565b34801561072057600080fd5b5060395461073b90600160401b90046001600160801b031681565b6040516001600160801b0390911681526020016103af565b34801561075f57600080fd5b5061040c612835565b34801561077457600080fd5b5060335460ff165b60405190151581526020016103af565b34801561079857600080fd5b5061040c6128d4565b3480156107ad57600080fd5b506107b661297a565b6040516103af9190614fdf565b3480156107cf57600080fd5b506105416107de366004614b3e565b6129ef565b3480156107ef57600080fd5b5060765461039b906001600160a01b031681565b34801561080f57600080fd5b5061040c612aed565b34801561082457600080fd5b5061040c610833366004614b3e565b612b47565b34801561084457600080fd5b5061040c610853366004615093565b612bbd565b34801561086457600080fd5b50603c5461039b906001600160a01b031681565b34801561088457600080fd5b5061039b610893366004614bbd565b612db5565b3480156108a457600080fd5b5061039b7f000000000000000000000000000000000000000000000000000000000000000081565b3480156108d857600080fd5b5061040c612ddf565b3480156108ed57600080fd5b5060335461039b9061010090046001600160a01b031681565b34801561091257600080fd5b5061039b7f000000000000000000000000000000000000000000000000000000000000000081565b34801561094657600080fd5b5061039b7f000000000000000000000000000000000000000000000000000000000000000081565b34801561097a57600080fd5b5061040c610989366004614bbd565b612fd6565b34801561099a57600080fd5b5061039b7f000000000000000000000000000000000000000000000000000000000000000081565b3480156109ce57600080fd5b506105416109dd366004614bbd565b6131a1565b3480156109ee57600080fd5b5061040c6109fd366004615118565b6131c2565b348015610a0e57600080fd5b5061077c610a1d366004614b3e565b7f00000000000000000000000000000000000000000000000000000000000000006001600160a01b0390811691161490565b348015610a5b57600080fd5b5061040c6132d9565b348015610a7057600080fd5b5061039b7f000000000000000000000000000000000000000000000000000000000000000081565b348015610aa457600080fd5b5061040c610ab336600461520a565b613390565b348015610ac457600080fd5b5061040c610ad33660046152c3565b61343b565b348015610ae457600080fd5b5061040c610af3366004614b3e565b61362b565b348015610b0457600080fd5b5061077c6136b8565b348015610b1957600080fd5b506105416801bc16d674ec80000081565b348015610b3657600080fd5b5061039b7f000000000000000000000000000000000000000000000000000000000000000081565b348015610b6a57600080fd5b50610541603a5481565b348015610b8057600080fd5b5061040c610b8f366004614b3e565b6136e9565b348015610ba057600080fd5b5061040c610baf366004615381565b61378d565b348015610bc057600080fd5b5061039b7f000000000000000000000000000000000000000000000000000000000000000081565b348015610bf457600080fd5b5061077c610c03366004614b3e565b603d6020526000908152604090205460ff1681565b348015610c2457600080fd5b5061040c613895565b348015610c3957600080fd5b5061040c610c48366004614b3e565b613a2c565b348015610c5957600080fd5b50610c62613a9c565b6040516103af91906153be565b6000610c87600080516020615bfd8339815191525490565b905090565b610c946136b8565b610cb95760405162461bcd60e51b8152600401610cb0906153ff565b60405180910390fd5b610cc38282613afe565b5050565b610ccf6136b8565b610ceb5760405162461bcd60e51b8152600401610cb0906153ff565b6001600160a01b037f0000000000000000000000000000000000000000000000000000000000000000811690831603610d665760405162461bcd60e51b815260206004820152601f60248201527f43616e6e6f74207472616e7366657220737570706f72746564206173736574006044820152606401610cb0565b610cc3610d71610c6f565b6001600160a01b0384169083613c5d565b80356000908152603860209081526040918290208251808401909352546001600160401b038082168452600160401b9091046001600160801b03169183019190915260395416610e0a5760405162461bcd60e51b81526020600482015260136024820152724e6f20736e61707065642062616c616e63657360681b6044820152606401610cb0565b60395481516001600160401b03908116911614610e565760405162461bcd60e51b815260206004820152600a60248201526905374616c6520736e61760b41b6044820152606401610cb0565b60355460008115611092576001600160a01b037f00000000000000000000000000000000000000000000000000000000000000001663431c729b8535610ea26040880160208901615436565b610eaf6040890189615453565b6040518563ffffffff1660e01b8152600401610ece94939291906154c2565b60006040518083038186803b158015610ee657600080fd5b505afa158015610efa573d6000803e3d6000fd5b5060009250506001600160a01b037f00000000000000000000000000000000000000000000000000000000000000001690506347b59153610f416040880160208901615436565b6040516001600160e01b031960e084901b1681526001600160401b0390911660048201526024016020604051808303816000875af1158015610f87573d6000803e3d6000fd5b505050506040513d601f19601f82011682018060405250810190610fab91906154f5565b905060005b8381101561108f57600060358281548110610fcd57610fcd615512565b600091825260208083209091015480835260349091526040909120600101549091506001600160401b03600160401b9091048116908416106110515760405162461bcd60e51b815260206004820152601a60248201527f4465706f73697420686173206265656e2070726f6365737365640000000000006044820152606401610cb0565b60008181526034602052604090206001015461107a906001600160401b0316633b9aca0061553e565b6110849085615555565b935050600101610fb0565b50505b6036546000811561145657816110ab60c0880188615568565b9050146110f35760405162461bcd60e51b8152602060048201526016602482015275496e76616c69642062616c616e63652070726f6f667360501b6044820152606401610cb0565b8161110160a0880188615568565b9050146111495760405162461bcd60e51b8152602060048201526016602482015275496e76616c69642062616c616e6365206c656176657360501b6044820152606401610cb0565b6001600160a01b037f0000000000000000000000000000000000000000000000000000000000000000166391ad640d8735606089013561118c60808b018b615453565b6040518563ffffffff1660e01b81526004016111ab94939291906155b1565b60006040518083038186803b1580156111c357600080fd5b505afa1580156111d7573d6000803e3d6000fd5b5084925050505b8015611454576111ed816155d1565b905060006001600160a01b037f0000000000000000000000000000000000000000000000000000000000000000166311aec4c160608a013561123260a08c018c615568565b8681811061124257611242615512565b905060200201358b8060c001906112599190615568565b8781811061126957611269615512565b905060200281019061127b9190615453565b6036888154811061128e5761128e615512565b600091825260208220600160029092020101546040516001600160e01b031960e089901b1681526112d296959493926001600160401b0390921691906004016155e8565b602060405180830381865afa1580156112ef573d6000803e3d6000fd5b505050506040513d601f19601f82011682018060405250810190611313919061563a565b905080600003611434576004603760006036858154811061133657611336615512565b6000918252602080832060029092029091015483528201929092526040019020805460ff1916600183600581111561137057611370614d29565b0217905550611380600185615653565b93506036848154811061139557611395615512565b9060005260206000209060020201603683815481106113b6576113b6615512565b6000918252602090912082546002909202019081556001918201549101805467ffffffffffffffff19166001600160401b03909216919091179055603680548061140257611402615666565b600082815260208120600260001990930192830201908155600101805467ffffffffffffffff191690559055506111de565b61144281633b9aca0061553e565b61144c9084615555565b9250506111de565b505b6040516370a0823160e01b81523060048201526000907f00000000000000000000000000000000000000000000000000000000000000006001600160a01b0316906370a0823190602401602060405180830381865afa1580156114bd573d6000803e3d6000fd5b505050506040513d601f19601f820116820180604052508101906114e1919061563a565b905061150f86602001516001600160801b031683866115009190615555565b61150a9190615555565b613cb4565b603980546001600160c01b031916600160401b6001600160801b039384160267ffffffffffffffff1916179055865160208089015160408051898152928301879052820185905290921660608301526001600160401b0316907f0c8d17ee94944e2d7c5bdd4bdcc82f2ebaef19912a7602280dd64acf4ad0562b906080015b60405180910390a250505050505050565b6000868152603460209081526040808320815160a0810183528154815260018201546001600160401b0380821695830195909552600160401b810490941692810192909252600160801b830463ffffffff16606083015290916080830190600160a01b900460ff16600281111561161857611618614d29565b600281111561162957611629614d29565b905250905060018160800151600281111561164657611646614d29565b146116895760405162461bcd60e51b81526020600482015260136024820152724465706f736974206e6f742070656e64696e6760681b6044820152606401610cb0565b6003815160009081526037602052604090205460ff1660058111156116b0576116b0614d29565b146116f65760405162461bcd60e51b815260206004820152601660248201527515985b1a59185d1bdc881b9bdd081d995c9a599a595960521b6044820152606401610cb0565b856001600160401b031681604001516001600160401b0316111561175c5760405162461bcd60e51b815260206004820152601c60248201527f4465706f73697420626c6f636b206265666f7265206465706f736974000000006044820152606401610cb0565b604051638e514b5b60e01b81526001600160401b03871660048201526000907f00000000000000000000000000000000000000000000000000000000000000006001600160a01b031690638e514b5b906024016020604051808303816000875af11580156117ce573d6000803e3d6000fd5b505050506040513d601f19601f820116820180604052508101906117f291906154f5565b9050846001600160401b0316816001600160401b0316108061181b57506001600160401b038516155b61185f5760405162461bcd60e51b815260206004820152601560248201527411195c1bdcda5d081b9bdd081c1c9bd8d95cdcd959605a1b6044820152606401610cb0565b856001600160401b0316816001600160401b0316106118b95760405162461bcd60e51b815260206004820152601660248201527514db1bdd081b9bdd0818599d195c8819195c1bdcda5d60521b6044820152606401610cb0565b604051636292160160e11b81526001600160401b03871660048201526000907f00000000000000000000000000000000000000000000000000000000000000006001600160a01b03169063c5242c02906024016020604051808303816000875af115801561192b573d6000803e3d6000fd5b505050506040513d601f19601f8201168201806040525081019061194f919061563a565b60405163431c729b60e01b81529091506001600160a01b037f0000000000000000000000000000000000000000000000000000000000000000169063431c729b906119a49084908a908a908a906004016154c2565b60006040518083038186803b1580156119bc57600080fd5b505afa1580156119d0573d6000803e3d6000fd5b50505060008a81526034602052604081206001908101805460ff60a01b1916600160a11b1790556035805492935091611a099190615653565b81548110611a1957611a19615512565b90600052602060002001549050806035856060015163ffffffff1681548110611a4457611a44615512565b60009182526020808320909101929092556060860151838252603490925260409020600101805463ffffffff909216600160801b0263ffffffff60801b199092169190911790556035805480611a9c57611a9c615666565b60019003818190600052602060002001600090559055897fae0e4f727389efd70d748d667436e0264f370ae498b339b713797dbab57b12ff85602001516001600160401b0316633b9aca00611af1919061553e565b60405190815260200160405180910390a250505050505050505050565b600260008481526037602052604090205460ff166005811115611b3357611b33614d29565b14611b775760405162461bcd60e51b815260206004820152601460248201527315985b1a59185d1bdc881b9bdd081cdd185ad95960621b6044820152606401610cb0565b6000611b8286613d21565b60405163e915f06760e01b81529091506001600160a01b037f0000000000000000000000000000000000000000000000000000000000000000169063e915f06790611bdb9084908890889088908c90309060040161567c565b60006040518083038186803b158015611bf357600080fd5b505afa158015611c07573d6000803e3d6000fd5b50505060008581526037602090815260408083208054600360ff19909116179055805180820182528881526001600160401b038a81169382018481526036805460018101825590875292517f4a11f94e20a93c79f6ec743a1954ec4fc2c08429ae2122118bf234b2185c81b8600290940293840155517f4a11f94e20a93c79f6ec743a1954ec4fc2c08429ae2122118bf234b2185c81b9909201805467ffffffffffffffff1916929091169190911790555190925086917f076b8e8f0bebfc854ee5a55b3d61fe1a3d3e701fb05524880aefc460437bf8ec91a3505050505050565b611cf16136b8565b611d0d5760405162461bcd60e51b8152600401610cb0906153ff565b600054610100900460ff1680611d26575060005460ff16155b611d895760405162461bcd60e51b815260206004820152602e60248201527f496e697469616c697a61626c653a20636f6e747261637420697320616c72656160448201526d191e481a5b9a5d1a585b1a5e995960921b6064820152608401610cb0565b600054610100900460ff16158015611dab576000805461ffff19166101011790555b611db6848484613e26565b60405163095ea7b360e01b81526001600160a01b037f00000000000000000000000000000000000000000000000000000000000000008116600483015260001960248301527f0000000000000000000000000000000000000000000000000000000000000000169063095ea7b3906044016020604051808303816000875af1158015611e46573d6000803e3d6000fd5b505050506040513d601f19601f82011682018060405250810190611e6a91906156c8565b508015611e7d576000805461ff00191690555b50505050565b60335461010090046001600160a01b03163314611eb25760405162461bcd60e51b8152600401610cb0906156e5565b60335460ff1615611ed55760405162461bcd60e51b8152600401610cb09061570e565b6000611eee6001600160401b038316633b9aca0061553e565b6040516370a0823160e01b81523060048201529091507f00000000000000000000000000000000000000000000000000000000000000006001600160a01b0316906370a0823190602401602060405180830381865afa158015611f55573d6000803e3d6000fd5b505050506040513d601f19601f82011682018060405250810190611f79919061563a565b811115611fbc5760405162461bcd60e51b8152602060048201526011602482015270092dce6eaccccd2c6d2cadce840ae8aa89607b1b6044820152606401610cb0565b611fc581613ed9565b600061200e611fd48580615453565b8080601f016020809104026020016040519081016040528093929190818152602001838380828437600092019190915250613fde92505050565b60008181526037602052604090205490915060ff16600181600581111561203757612037614d29565b14806120545750600381600581111561205257612052614d29565b145b6120a05760405162461bcd60e51b815260206004820152601a60248201527f4e6f742072656769737465726564206f722076657269666965640000000000006044820152606401610cb0565b60038160058111156120b4576120b4614d29565b14806120c857506801bc16d674ec80000083145b6121145760405162461bcd60e51b815260206004820152601c60248201527f496e76616c6964206669727374206465706f73697420616d6f756e74000000006044820152606401610cb0565b670de0b6b3a76400008310156121605760405162461bcd60e51b815260206004820152601160248201527011195c1bdcda5d081d1bdbc81cdb585b1b607a1b6044820152606401610cb0565b60408051600160f91b60208201526000602182018190526bffffffffffffffffffffffff193060601b16602c830152910160408051601f1981840301815291905290506001600160a01b037f0000000000000000000000000000000000000000000000000000000000000000166322895118856121dd8980615453565b856121eb60208d018d615453565b8d604001356040518863ffffffff1660e01b815260040161221196959493929190615788565b6000604051808303818588803b15801561222a57600080fd5b505af115801561223e573d6000803e3d6000fd5b506001935061224c92505050565b82600581111561225e5761225e614d29565b0361227d576000838152603760205260409020805460ff191660021790555b6040518060a00160405280848152602001866001600160401b031681526020016122a643614053565b6001600160401b031681526020016122c26035805490506140bb565b63ffffffff1681526020016001905260408088013560009081526034602090815290829020835181559083015160018201805493850151606086015163ffffffff16600160801b0263ffffffff60801b196001600160401b03928316600160401b026001600160801b03199097169290941691909117949094179182168417815560808501519293909160ff60a01b1990911664ffffffffff60801b1990911617600160a01b83600281111561237a5761237a614d29565b0217905550506035805460018101825560009190915260408801357fcfa4bec1d3298408bb5afcfcd9c430549c5b31f8aa5c5848151c0a55f473c34d9091018190559050837faca97428a1d7f2b7c4cee2fbe4feda457e132b404b0c9c3ff73bf7a988d889a86123ea8980615453565b886040516123fa939291906157d7565b60405180910390a3505050505050565b336001600160a01b037f000000000000000000000000000000000000000000000000000000000000000016146124525760405162461bcd60e51b8152600401610cb0906157fb565b600080516020615bdd833981519152805460011981016124845760405162461bcd60e51b8152600401610cb090615832565b600282557f00000000000000000000000000000000000000000000000000000000000000006001600160a01b0316846001600160a01b0316146124d95760405162461bcd60e51b8152600401610cb09061585a565b600083116125225760405162461bcd60e51b81526020600482015260166024820152754d757374206465706f73697420736f6d657468696e6760501b6044820152606401610cb0565b82603a60008282546125349190615555565b90915550506040805160008152602081018590526001600160a01b038616917f5548c837ab068cf56a2c2479df0882a4922fd203edb7517321831d95078c5f62910160405180910390a250600190555050565b60335461010090046001600160a01b031633146125b65760405162461bcd60e51b8152600401610cb0906156e5565b60335460ff16156125d95760405162461bcd60e51b8152600401610cb09061570e565b600061261a84848080601f016020809104026020016040519081016040528093929190818152602001838380828437600092019190915250613fde92505050565b60008181526037602052604090205490915060ff16600381600581111561264357612643614d29565b146126895760405162461bcd60e51b815260206004820152601660248201527515985b1a59185d1bdc881b9bdd081d995c9a599a595960521b6044820152606401610cb0565b612694858585614120565b50817f8dd83105dbd4263d41c76e5d414905babdd3f035bd2031f6ce8895715595979c6126ce6001600160401b038616633b9aca0061553e565b60405190815260200160405180910390a25050505050565b60335460ff16156127095760405162461bcd60e51b8152600401610cb09061570e565b336000908152603d602052604090205460ff166127605760405162461bcd60e51b81526020600482015260156024820152744e6f74206120736f7572636520737472617465677960581b6044820152606401610cb0565b600360008281526037602052604090205460ff16600581111561278557612785614d29565b146127d25760405162461bcd60e51b815260206004820152601d60248201527f5461726765742076616c696461746f72206e6f742076657269666965640000006044820152606401610cb0565b6039805467ffffffffffffffff19169055603b829055603c80546001600160a01b03191633179055612802614265565b6040513390829084907f775bd11c8e525c2fe2ffdff76371fee4f23ec22a5c04e59de38f5d203e04988790600090a45050565b6076546001600160a01b0316331461288f5760405162461bcd60e51b815260206004820152601b60248201527f43616c6c6572206973206e6f74207468652048617276657374657200000000006044820152606401610cb0565b600080516020615bdd833981519152805460011981016128c15760405162461bcd60e51b8152600401610cb090615832565b600282556128cd6142da565b5060019055565b7f44c4d30b2eaad5130ad70c3ba6972730566f3e6359ab83e800d905c61b1c51db546001600160a01b0316336001600160a01b03161461296f5760405162461bcd60e51b815260206004820152603060248201527f4f6e6c79207468652070656e64696e6720476f7665726e6f722063616e20636f60448201526f6d706c6574652074686520636c61696d60801b6064820152608401610cb0565b61297833614319565b565b60606036805480602002602001604051908101604052809291908181526020016000905b828210156129e65760008481526020908190206040805180820190915260028502909101805482526001908101546001600160401b031682840152908352909201910161299e565b50505050905090565b60007f00000000000000000000000000000000000000000000000000000000000000006001600160a01b0316826001600160a01b031614612a425760405162461bcd60e51b8152600401610cb09061585a565b6040516370a0823160e01b81523060048201527f00000000000000000000000000000000000000000000000000000000000000006001600160a01b0316906370a0823190602401602060405180830381865afa158015612aa6573d6000803e3d6000fd5b505050506040513d601f19601f82011682018060405250810190612aca919061563a565b603954612ae79190600160401b90046001600160801b0316615555565b92915050565b60335460ff1615612b105760405162461bcd60e51b8152600401610cb09061570e565b60335461010090046001600160a01b03163314612b3f5760405162461bcd60e51b8152600401610cb0906156e5565b612978614378565b612b4f6136b8565b612b6b5760405162461bcd60e51b8152600401610cb0906153ff565b60338054610100600160a81b0319166101006001600160a01b038416908102919091179091556040517f83f29c79feb71f8fba9d0fbc4ba5f0982a28b6b1e868b3fc50e6400d100bca0f90600090a250565b60335461010090046001600160a01b03163314612bec5760405162461bcd60e51b8152600401610cb0906156e5565b60335460ff1615612c0f5760405162461bcd60e51b8152600401610cb09061570e565b6000612c5086868080601f016020809104026020016040519081016040528093929190818152602001838380828437600092019190915250613fde92505050565b60008181526037602052604090205490915060ff166004816005811115612c7957612c79614d29565b1480612c9657506001816005811115612c9457612c94614d29565b145b612ce25760405162461bcd60e51b815260206004820152601c60248201527f56616c696461746f72206e6f742072656764206f7220657869746564000000006044820152606401610cb0565b6040516312b3fc1960e01b81526001600160a01b037f000000000000000000000000000000000000000000000000000000000000000016906312b3fc1990612d36908a908a908a908a908a90600401615938565b600060405180830381600087803b158015612d5057600080fd5b505af1158015612d64573d6000803e3d6000fd5b50505060008381526037602052604090819020805460ff19166005179055518391507f63d54ea43f163d6e28fc23abec67eb7c3294e7e6f0620955a73cd8d17c7367f49061158e908890889061596f565b60778181548110612dc557600080fd5b6000918252602090912001546001600160a01b0316905081565b336001600160a01b037f0000000000000000000000000000000000000000000000000000000000000000161480612e2e5750612e19610c6f565b6001600160a01b0316336001600160a01b0316145b612e865760405162461bcd60e51b815260206004820152602360248201527f43616c6c6572206973206e6f7420746865205661756c74206f7220476f7665726044820152623737b960e91b6064820152608401610cb0565b600080516020615bdd83398151915280546001198101612eb85760405162461bcd60e51b8152600401610cb090615832565b6002825560335460ff1615612edf5760405162461bcd60e51b8152600401610cb09061570e565b6040516370a0823160e01b8152306004820152479060009082907f00000000000000000000000000000000000000000000000000000000000000006001600160a01b0316906370a0823190602401602060405180830381865afa158015612f4a573d6000803e3d6000fd5b505050506040513d601f19601f82011682018060405250810190612f6e919061563a565b612f789190615555565b90508015612fcc57612fcc7f00000000000000000000000000000000000000000000000000000000000000007f00000000000000000000000000000000000000000000000000000000000000008385614471565b5050600182555050565b612fde6136b8565b612ffa5760405162461bcd60e51b8152600401610cb0906153ff565b607354811061303b5760405162461bcd60e51b815260206004820152600d60248201526c092dcecc2d8d2c840d2dcc8caf609b1b6044820152606401610cb0565b60006073828154811061305057613050615512565b60009182526020808320909101546001600160a01b0390811680845260729092526040909220546073549193509091169061308d90600190615653565b83101561310f57607380546130a490600190615653565b815481106130b4576130b4615512565b600091825260209091200154607380546001600160a01b0390921691859081106130e0576130e0615512565b9060005260206000200160006101000a8154816001600160a01b0302191690836001600160a01b031602179055505b607380548061312057613120615666565b60008281526020808220600019908401810180546001600160a01b031990811690915593019093556001600160a01b038581168083526072855260409283902080549094169093559051908416815290917f16b7600acff27e39a8a96056b3d533045298de927507f5c1d97e4accde60488c910160405180910390a2505050565b603581815481106131b157600080fd5b600091825260209091200154905081565b6131ca6136b8565b6131e65760405162461bcd60e51b8152600401610cb0906153ff565b8060005b8181101561329057600084848381811061320657613206615512565b905060200201602081019061321b9190614b3e565b6001600160a01b0316036132885760405162461bcd60e51b815260206004820152602e60248201527f43616e206e6f742073657420616e20656d70747920616464726573732061732060448201526d30903932bbb0b932103a37b5b2b760911b6064820152608401610cb0565b6001016131ea565b507f04c0b9649497d316554306e53678d5f5f5dbc3a06f97dec13ff4cfe98b986bbc607784846040516132c593929190615983565b60405180910390a1611e7d60778484614a26565b60405163095ea7b360e01b81526001600160a01b037f00000000000000000000000000000000000000000000000000000000000000008116600483015260001960248301527f0000000000000000000000000000000000000000000000000000000000000000169063095ea7b3906044016020604051808303816000875af1158015613369573d6000803e3d6000fd5b505050506040513d601f19601f8201168201806040525081019061338d91906156c8565b50565b6133986136b8565b6133b45760405162461bcd60e51b8152600401610cb0906153ff565b604051631a1b9a0b60e21b81526001600160a01b037f0000000000000000000000000000000000000000000000000000000000000000169063686e682c9061340490869086908690600401615a1c565b600060405180830381600087803b15801561341e57600080fd5b505af1158015613432573d6000803e3d6000fd5b50505050505050565b60335461010090046001600160a01b0316331461346a5760405162461bcd60e51b8152600401610cb0906156e5565b60335460ff161561348d5760405162461bcd60e51b8152600401610cb09061570e565b60006134ce89898080601f016020809104026020016040519081016040528093929190818152602001838380828437600092019190915250613fde92505050565b90506000808281526037602052604090205460ff1660058111156134f4576134f4614d29565b146135415760405162461bcd60e51b815260206004820152601c60248201527f56616c696461746f7220616c72656164792072656769737465726564000000006044820152606401610cb0565b60008181526037602052604090819020805460ff19166001179055516301ba3ee760e21b81527f00000000000000000000000000000000000000000000000000000000000000006001600160a01b0316906306e8fb9c906135b4908c908c908c908c908c908c908c908c90600401615abe565b600060405180830381600087803b1580156135ce57600080fd5b505af11580156135e2573d6000803e3d6000fd5b50505050807f50837f89f5e75ae0a7bcc858f53ea15fa398dc007fd52cbfe4683ae9a6c2d722888860405161361892919061596f565b60405180910390a2505050505050505050565b6136336136b8565b61364f5760405162461bcd60e51b8152600401610cb0906153ff565b607654604080516001600160a01b03928316815291831660208301527fe48386b84419f4d36e0f96c10cc3510b6fb1a33795620c5098b22472bbe90796910160405180910390a1607680546001600160a01b0319166001600160a01b0392909216919091179055565b60006136d0600080516020615bfd8339815191525490565b6001600160a01b0316336001600160a01b031614905090565b6136f16136b8565b61370d5760405162461bcd60e51b8152600401610cb0906153ff565b613735817f44c4d30b2eaad5130ad70c3ba6972730566f3e6359ab83e800d905c61b1c51db55565b806001600160a01b0316613755600080516020615bfd8339815191525490565b6001600160a01b03167fa39cc5eb22d0f34d8beaefee8a3f17cc229c1a1d1ef87a5ad47313487b1c4f0d60405160405180910390a350565b336001600160a01b037f000000000000000000000000000000000000000000000000000000000000000016146137d55760405162461bcd60e51b8152600401610cb0906157fb565b600080516020615bdd833981519152805460011981016138075760405162461bcd60e51b8152600401610cb090615832565b6002825560335460ff161561382e5760405162461bcd60e51b8152600401610cb09061570e565b7f00000000000000000000000000000000000000000000000000000000000000006001600160a01b0316846001600160a01b03161461387f5760405162461bcd60e51b8152600401610cb09061585a565b61388b85858547614471565b5060019055505050565b336001600160a01b037f000000000000000000000000000000000000000000000000000000000000000016146138dd5760405162461bcd60e51b8152600401610cb0906157fb565b600080516020615bdd8339815191528054600119810161390f5760405162461bcd60e51b8152600401610cb090615832565b600282556040516370a0823160e01b81523060048201526000907f00000000000000000000000000000000000000000000000000000000000000006001600160a01b0316906370a0823190602401602060405180830381865afa15801561397a573d6000803e3d6000fd5b505050506040513d601f19601f8201168201806040525081019061399e919061563a565b90506000603a54826139b09190615653565b90508015612fcc57603a8290556040805160008152602081018390526001600160a01b037f000000000000000000000000000000000000000000000000000000000000000016917f5548c837ab068cf56a2c2479df0882a4922fd203edb7517321831d95078c5f62910160405180910390a25050600182555050565b613a346136b8565b613a505760405162461bcd60e51b8152600401610cb0906153ff565b6001600160a01b0381166000818152603d6020526040808220805460ff19166001179055517f90905af5586887466cf94420b8fa775c2cb0e953d3362eecc7b5eedf0cbd09909190a250565b60606077805480602002602001604051908101604052809291908181526020018280548015613af457602002820191906000526020600020905b81546001600160a01b03168152600190910190602001808311613ad6575b5050505050905090565b6001600160a01b038281166000908152607260205260409020541615613b5b5760405162461bcd60e51b81526020600482015260126024820152711c151bdad95b88185b1c9958591e481cd95d60721b6044820152606401610cb0565b6001600160a01b03821615801590613b7b57506001600160a01b03811615155b613bbb5760405162461bcd60e51b8152602060048201526011602482015270496e76616c69642061646472657373657360781b6044820152606401610cb0565b6001600160a01b03828116600081815260726020908152604080832080549587166001600160a01b031996871681179091556073805460018101825594527ff79bde9ddd17963ebce6f7d021d60de7c2bd0db944d23c900c0c0e775f53005290930180549095168417909455925190815290917fef6485b84315f9b1483beffa32aae9a0596890395e3d7521f1c5fbb51790e765910160405180910390a25050565b604080516001600160a01b038416602482015260448082018490528251808303909101815260649091019091526020810180516001600160e01b031663a9059cbb60e01b179052613caf908490614574565b505050565b60006001600160801b03821115613d1d5760405162461bcd60e51b815260206004820152602760248201527f53616665436173743a2076616c756520646f65736e27742066697420696e20316044820152663238206269747360c81b6064820152608401610cb0565b5090565b604080516001600160401b038316602082015260009182918291720f3df6d732807ef1319fb7b8bb8522d0beac02910160408051601f1981840301815290829052613d6b91615b1f565b600060405180830381855afa9150503d8060008114613da6576040519150601f19603f3d011682016040523d82523d6000602084013e613dab565b606091505b5091509150818015613dbe575060008151115b613e0a5760405162461bcd60e51b815260206004820152601860248201527f496e76616c696420626561636f6e2074696d657374616d7000000000000000006044820152606401610cb0565b80806020019051810190613e1e919061563a565b949350505050565b8251613e39906077906020860190614a85565b50815181518114613e835760405162461bcd60e51b8152602060048201526014602482015273496e76616c696420696e7075742061727261797360601b6044820152606401610cb0565b60005b81811015613ed257613eca848281518110613ea357613ea3615512565b6020026020010151848381518110613ebd57613ebd615512565b6020026020010151613afe565b600101613e86565b5050505050565b604051632e1a7d4d60e01b8152600481018290527f00000000000000000000000000000000000000000000000000000000000000006001600160a01b031690632e1a7d4d90602401600060405180830381600087803b158015613f3b57600080fd5b505af1158015613f4f573d6000803e3d6000fd5b505050506000613f6182603a54614646565b905080603a6000828254613f759190615653565b90915550613f84905082613cb4565b60398054600890613fa6908490600160401b90046001600160801b0316615b3b565b82546001600160801b039182166101009390930a928302919092021990911617905550506039805467ffffffffffffffff1916905550565b6000600282600060801b604051602001613ff9929190615b5a565b60408051601f198184030181529082905261401391615b1f565b602060405180830381855afa158015614030573d6000803e3d6000fd5b5050506040513d601f19601f82011682018060405250810190612ae7919061563a565b60006001600160401b03821115613d1d5760405162461bcd60e51b815260206004820152602660248201527f53616665436173743a2076616c756520646f65736e27742066697420696e203660448201526534206269747360d01b6064820152608401610cb0565b600063ffffffff821115613d1d5760405162461bcd60e51b815260206004820152602660248201527f53616665436173743a2076616c756520646f65736e27742066697420696e203360448201526532206269747360d01b6064820152608401610cb0565b6000603083146141725760405162461bcd60e51b815260206004820152601d60248201527f496e76616c69642076616c696461746f722062797465206c656e6774680000006044820152606401610cb0565b61417a61465e565b90506000710961ef480eb55e80d19ad83579a64c0070026001600160a01b0316828686866040516020016141b093929190615b89565b60408051601f19818403018152908290526141ca91615b1f565b60006040518083038185875af1925050503d8060008114614207576040519150601f19603f3d011682016040523d82523d6000602084013e61420c565b606091505b505090508061425d5760405162461bcd60e51b815260206004820152601960248201527f5769746864726177616c2072657175657374206661696c6564000000000000006044820152606401610cb0565b509392505050565b60335460ff16156142885760405162461bcd60e51b8152600401610cb09061570e565b6033805460ff191660011790557f62e78cea01bee320cd4e420270b5ea74000d11b0c9f74754ebdbfc544b05a2586142bd3390565b6040516001600160a01b03909116815260200160405180910390a1565b60405162461bcd60e51b81526020600482015260146024820152732ab739bab83837b93a32b210333ab731ba34b7b760611b6044820152606401610cb0565b6001600160a01b03811661436f5760405162461bcd60e51b815260206004820152601a60248201527f4e657720476f7665726e6f7220697320616464726573732830290000000000006044820152606401610cb0565b61338d81614725565b600061438b61438642614053565b613d21565b9050600047905060405180604001604052806143a642614053565b6001600160401b031681526020016143bd83613cb4565b6001600160801b039081169091526000848152603860209081526040909120835181549490920151909216600160401b026001600160c01b03199093166001600160401b039091161791909117905561441542614053565b6039805467ffffffffffffffff19166001600160401b0392909216919091179055604051818152829042907f720c42d71b31255ea24ea693ad4311387e7a0c7907336cfa55b865ddd3441ff69060200160405180910390a35050565b600082116144c15760405162461bcd60e51b815260206004820152601760248201527f4d75737420776974686472617720736f6d657468696e670000000000000000006044820152606401610cb0565b6001600160a01b0384166145105760405162461bcd60e51b8152602060048201526016602482015275135d5cdd081cdc1958da599e481c9958da5c1a595b9d60521b6044820152606401610cb0565b801561451f5761451f8161478c565b61452982856148bb565b6040805160008152602081018490526001600160a01b038516917f2717ead6b9200dd235aad468c9809ea400fe33ac69b5bfaa6d3e90fc922b6398910160405180910390a250505050565b60006145c9826040518060400160405280602081526020017f5361666545524332303a206c6f772d6c6576656c2063616c6c206661696c6564815250856001600160a01b031661491b9092919063ffffffff16565b805190915015613caf57808060200190518101906145e791906156c8565b613caf5760405162461bcd60e51b815260206004820152602a60248201527f5361666545524332303a204552433230206f7065726174696f6e20646964206e6044820152691bdd081cdd58d8d9595960b21b6064820152608401610cb0565b60008183106146555781614657565b825b9392505050565b60405160009081908190710961ef480eb55e80d19ad83579a64c0070029082818181855afa9150503d80600081146146b2576040519150601f19603f3d011682016040523d82523d6000602084013e6146b7565b606091505b50915091508180156146ca575060008151115b61470a5760405162461bcd60e51b81526020600482015260116024820152704661696c656420746f206765742066656560781b6044820152606401610cb0565b8080602001905181019061471e919061563a565b9250505090565b806001600160a01b0316614745600080516020615bfd8339815191525490565b6001600160a01b03167fc7c0c772add429241571afb3805861fb3cfa2af374534088b76cdb4325a87e9a60405160405180910390a3600080516020615bfd83398151915255565b7f00000000000000000000000000000000000000000000000000000000000000006001600160a01b031663d0e30db0826040518263ffffffff1660e01b81526004016000604051808303818588803b1580156147e757600080fd5b505af11580156147fb573d6000803e3d6000fd5b505050505080603a60008282546148129190615555565b9091555050603954600160401b90046001600160801b03168110156148855761483a81613cb4565b6039805460089061485c908490600160401b90046001600160801b0316615baa565b92506101000a8154816001600160801b0302191690836001600160801b031602179055506148a7565b6039805477ffffffffffffffffffffffffffffffff0000000000000000191690555b506039805467ffffffffffffffff19169055565b6148ef6001600160a01b037f0000000000000000000000000000000000000000000000000000000000000000168284613c5d565b60006148fd83603a54614646565b905080603a60008282546149119190615653565b9091555050505050565b6060613e1e848460008585843b6149745760405162461bcd60e51b815260206004820152601d60248201527f416464726573733a2063616c6c20746f206e6f6e2d636f6e74726163740000006044820152606401610cb0565b600080866001600160a01b031685876040516149909190615b1f565b60006040518083038185875af1925050503d80600081146149cd576040519150601f19603f3d011682016040523d82523d6000602084013e6149d2565b606091505b50915091506149e28282866149ed565b979650505050505050565b606083156149fc575081614657565b825115614a0c5782518084602001fd5b8160405162461bcd60e51b8152600401610cb09190615bc9565b828054828255906000526020600020908101928215614a79579160200282015b82811115614a795781546001600160a01b0319166001600160a01b03843516178255602090920191600190910190614a46565b50613d1d929150614ada565b828054828255906000526020600020908101928215614a79579160200282015b82811115614a7957825182546001600160a01b0319166001600160a01b03909116178255602090920191600190910190614aa5565b5b80821115613d1d5760008155600101614adb565b80356001600160a01b0381168114614b0657600080fd5b919050565b60008060408385031215614b1e57600080fd5b614b2783614aef565b9150614b3560208401614aef565b90509250929050565b600060208284031215614b5057600080fd5b61465782614aef565b60008060408385031215614b6c57600080fd5b614b7583614aef565b946020939093013593505050565b600060208284031215614b9557600080fd5b81356001600160401b03811115614bab57600080fd5b820160e0818503121561465757600080fd5b600060208284031215614bcf57600080fd5b5035919050565b6001600160401b038116811461338d57600080fd5b60008083601f840112614bfd57600080fd5b5081356001600160401b03811115614c1457600080fd5b602083019150836020828501011115614c2c57600080fd5b9250929050565b60008060008060008060a08789031215614c4c57600080fd5b863595506020870135614c5e81614bd6565b94506040870135614c6e81614bd6565b93506060870135614c7e81614bd6565b925060808701356001600160401b03811115614c9957600080fd5b614ca589828a01614beb565b979a9699509497509295939492505050565b600080600080600060808688031215614ccf57600080fd5b8535614cda81614bd6565b94506020860135614cea81614bd6565b93506040860135925060608601356001600160401b03811115614d0c57600080fd5b614d1888828901614beb565b969995985093965092949392505050565b634e487b7160e01b600052602160045260246000fd5b8581526001600160401b0385811660208301528416604082015263ffffffff8316606082015260a0810160038310614d7957614d79614d29565b8260808301529695505050505050565b634e487b7160e01b600052604160045260246000fd5b604051601f8201601f191681016001600160401b0381118282101715614dc757614dc7614d89565b604052919050565b60006001600160401b03821115614de857614de8614d89565b5060051b60200190565b600082601f830112614e0357600080fd5b8135614e16614e1182614dcf565b614d9f565b8082825260208201915060208360051b860101925085831115614e3857600080fd5b602085015b83811015614e5c57614e4e81614aef565b835260209283019201614e3d565b5095945050505050565b600080600060608486031215614e7b57600080fd5b83356001600160401b03811115614e9157600080fd5b614e9d86828701614df2565b93505060208401356001600160401b03811115614eb957600080fd5b614ec586828701614df2565b92505060408401356001600160401b03811115614ee157600080fd5b614eed86828701614df2565b9150509250925092565b60008060408385031215614f0a57600080fd5b82356001600160401b03811115614f2057600080fd5b830160608186031215614f3257600080fd5b91506020830135614f4281614bd6565b809150509250929050565b6020810160068310614f6157614f61614d29565b91905290565b600080600060408486031215614f7c57600080fd5b83356001600160401b03811115614f9257600080fd5b614f9e86828701614beb565b9094509250506020840135614fb281614bd6565b809150509250925092565b60008060408385031215614fd057600080fd5b50508035926020909101359150565b602080825282518282018190526000918401906040840190835b8181101561502c578351805184526020908101516001600160401b03168185015290930192604090920191600101614ff9565b509095945050505050565b60008083601f84011261504957600080fd5b5081356001600160401b0381111561506057600080fd5b6020830191508360208260051b8501011115614c2c57600080fd5b600060a0828403121561508d57600080fd5b50919050565b600080600080600060e086880312156150ab57600080fd5b85356001600160401b038111156150c157600080fd5b6150cd88828901614beb565b90965094505060208601356001600160401b038111156150ec57600080fd5b6150f888828901615037565b909450925061510c9050876040880161507b565b90509295509295909350565b6000806020838503121561512b57600080fd5b82356001600160401b0381111561514157600080fd5b61514d85828601615037565b90969095509350505050565b803563ffffffff81168114614b0657600080fd5b801515811461338d57600080fd5b600060a0828403121561518d57600080fd5b60405160a081016001600160401b03811182821017156151af576151af614d89565b6040529050806151be83615159565b815260208301356151ce81614bd6565b602082015260408301356151e181614bd6565b604082015260608301356151f48161516d565b6060820152608092830135920191909152919050565b600080600060e0848603121561521f57600080fd5b83356001600160401b0381111561523557600080fd5b8401601f8101861361524657600080fd5b8035615254614e1182614dcf565b8082825260208201915060208360051b85010192508883111561527657600080fd5b6020840193505b828410156152a157833561529081614bd6565b82526020938401939091019061527d565b9550505050602084013591506152ba856040860161517b565b90509250925092565b600080600080600080600080610120898b0312156152e057600080fd5b88356001600160401b038111156152f657600080fd5b6153028b828c01614beb565b90995097505060208901356001600160401b0381111561532157600080fd5b61532d8b828c01615037565b90975095505060408901356001600160401b0381111561534c57600080fd5b6153588b828c01614beb565b909550935050606089013591506153728a60808b0161507b565b90509295985092959890939650565b60008060006060848603121561539657600080fd5b61539f84614aef565b92506153ad60208501614aef565b929592945050506040919091013590565b602080825282518282018190526000918401906040840190835b8181101561502c5783516001600160a01b03168352602093840193909201916001016153d8565b6020808252601a908201527f43616c6c6572206973206e6f742074686520476f7665726e6f72000000000000604082015260600190565b60006020828403121561544857600080fd5b813561465781614bd6565b6000808335601e1984360301811261546a57600080fd5b8301803591506001600160401b0382111561548457600080fd5b602001915036819003821315614c2c57600080fd5b81835281816020850137506000828201602090810191909152601f909101601f19169091010190565b8481526001600160401b03841660208201526060604082015260006154eb606083018486615499565b9695505050505050565b60006020828403121561550757600080fd5b815161465781614bd6565b634e487b7160e01b600052603260045260246000fd5b634e487b7160e01b600052601160045260246000fd5b8082028115828204841417612ae757612ae7615528565b80820180821115612ae757612ae7615528565b6000808335601e1984360301811261557f57600080fd5b8301803591506001600160401b0382111561559957600080fd5b6020019150600581901b3603821315614c2c57600080fd5b8481528360208201526060604082015260006154eb606083018486615499565b6000816155e0576155e0615528565b506000190190565b86815285602082015260a06040820152600061560860a083018688615499565b90506001600160401b03841660608301526002831061562957615629614d29565b826080830152979650505050505050565b60006020828403121561564c57600080fd5b5051919050565b81810381811115612ae757612ae7615528565b634e487b7160e01b600052603160045260246000fd5b86815285602082015260a06040820152600061569c60a083018688615499565b6001600160401b03949094166060830152506001600160a01b0391909116608090910152949350505050565b6000602082840312156156da57600080fd5b81516146578161516d565b6020808252600f908201526e2737ba102932b3b4b9ba3930ba37b960891b604082015260600190565b60208082526010908201526f14185d5cd8589b194e881c185d5cd95960821b604082015260600190565b60005b8381101561575357818101518382015260200161573b565b50506000910152565b60008151808452615774816020860160208601615738565b601f01601f19169290920160200192915050565b60808152600061579c60808301888a615499565b82810360208401526157ae818861575c565b905082810360408401526157c3818688615499565b915050826060830152979650505050505050565b6040815260006157eb604083018587615499565b9050826020830152949350505050565b60208082526017908201527f43616c6c6572206973206e6f7420746865205661756c74000000000000000000604082015260600190565b6020808252600e908201526d1499595b9d1c985b9d0818d85b1b60921b604082015260600190565b602080825260119082015270155b9cdd5c1c1bdc9d195908185cdcd95d607a1b604082015260600190565b81835260208301925060008160005b848110156158c55781356158a781614bd6565b6001600160401b031686526020958601959190910190600101615894565b5093949350505050565b63ffffffff6158dd82615159565b16825260208101356158ee81614bd6565b6001600160401b03166020830152604081013561590a81614bd6565b6001600160401b0316604083015260608101356159268161516d565b15156060830152608090810135910152565b60e08152600061594c60e083018789615499565b828103602084015261595f818688615885565b9150506154eb60408301846158cf565b602081526000613e1e602083018486615885565b6040808252845490820181905260008581526020812090916060840190835b818110156159c95783546001600160a01b03168352600193840193602090930192016159a2565b50508381036020808601919091528582520190508460005b85811015615a10576001600160a01b036159fa83614aef565b16835260209283019291909101906001016159e1565b50909695505050505050565b60e080825284519082018190526000906020860190610100840190835b81811015615a605783516001600160401b0316835260209384019390920191600101615a39565b5050809250505083602083015263ffffffff83511660408301526001600160401b0360208401511660608301526001600160401b0360408401511660808301526060830151151560a0830152608083015160c0830152949350505050565b61012081526000615ad461012083018a8c615499565b8281036020840152615ae781898b615885565b90508281036040840152615afc818789615499565b915050836060830152615b1260808301846158cf565b9998505050505050505050565b60008251615b31818460208701615738565b9190910192915050565b6001600160801b038181168382160190811115612ae757612ae7615528565b60008351615b6c818460208801615738565b6001600160801b0319939093169190920190815260100192915050565b8284823760c09190911b6001600160c01b0319169101908152600801919050565b6001600160801b038281168282160390811115612ae757612ae7615528565b602081526000614657602083018461575c56fe53bf423e48ed90e97d02ab0ebab13b2a235a6bfbe9c321847d5c175333ac45357bea13895fa79d2831e0a9e28edede30099005a50d652d8957cf8a607ee6ca4aa26469706673582212204bc06bb9bb56f5e9d50dc64b14d4bdb919ff40cad99691e5b87bd73605e927bc64736f6c634300081c0033",
  "libraries": {},
  "devdoc": {
    "author": "Origin Protocol Inc",
    "details": "This contract handles WETH and ETH and in some operations interchanges between the two. Any WETH that is on the contract across multiple blocks (and not just transitory within a transaction) is considered an asset. Meaning deposits increase the balance of the asset and withdrawal decrease it. As opposed to all our other strategies the WETH doesn't immediately get deposited into an underlying strategy and can be present across multiple blocks waiting to be unwrapped to ETH and staked to validators. This separation of WETH and ETH is required since the rewards (reward token) is also in ETH. To simplify the accounting of WETH there is another difference in behavior compared to the other strategies. To withdraw WETH asset - exit message is posted to validators and the ETH hits this contract with multiple days delay. In order to simplify the WETH accounting upon detection of such an event the ValidatorAccountant immediately wraps ETH to WETH and sends it to the Vault. On the other hand any ETH on the contract (across multiple blocks) is there either:  - as a result of already accounted for consensus rewards  - as a result of not yet accounted for consensus rewards  - as a results of not yet accounted for full validator withdrawals (or validator slashes) Even though the strategy assets and rewards are a very similar asset the consensus layer rewards and the execution layer rewards are considered rewards and those are dripped to the Vault over a configurable time interval and not immediately.",
    "events": {
      "Paused(address)": {
        "details": "Emitted when the pause is triggered by `account`."
      },
      "Unpaused(address)": {
        "details": "Emitted when the pause is lifted by `account`."
      }
    },
    "kind": "dev",
    "methods": {
      "checkBalance(address)": {
        "params": {
          "_asset": "Address of weth asset"
        },
        "returns": {
          "balance": "   Total value of (W)ETH"
        }
      },
      "constructor": {
        "params": {
          "_baseConfig": "Base strategy config with platformAddress (ERC-4626 Vault contract), eg sfrxETH or sDAI, and vaultAddress (OToken Vault contract), eg VaultProxy or OETHVaultProxy",
          "_beaconChainDepositContract": "Address of the beacon chain deposit contract",
          "_beaconOracle": "Address of the Beacon Oracle contract that maps block numbers to slots",
          "_beaconProofs": "Address of the Beacon Proofs contract that verifies beacon chain data",
          "_ssvNetwork": "Address of the SSV Network contract",
          "_ssvToken": "Address of the Erc20 SSV Token contract",
          "_wethAddress": "Address of the Erc20 WETH Token contract"
        }
      },
      "deposit(address,uint256)": {
        "params": {
          "_amount": "Amount of assets that were transferred to the strategy by the vault.",
          "_asset": "Address of asset to deposit. Has to be WETH."
        }
      },
      "getRewardTokenAddresses()": {
        "returns": {
          "_0": "address[] the reward token addresses."
        }
      },
      "initialize(address[],address[],address[])": {
        "params": {
          "_assets": "Addresses of initial supported assets",
          "_pTokens": "Platform Token corresponding addresses",
          "_rewardTokenAddresses": "Address of reward token for platform"
        }
      },
      "paused()": {
        "details": "Returns true if the contract is paused, and false otherwise."
      },
      "registerSsvValidator(bytes,uint64[],bytes,uint256,(uint32,uint64,uint64,bool,uint256))": {
        "params": {
          "cluster": "The SSV cluster details including the validator count and SSV balance",
          "operatorIds": "The operator IDs of the SSV Cluster",
          "publicKey": "The public key of the validator",
          "sharesData": "The shares data for the validator",
          "ssvAmount": "The amount of SSV tokens to be deposited to the SSV cluster"
        }
      },
      "removePToken(uint256)": {
        "params": {
          "_assetIndex": "Index of the asset to be removed"
        }
      },
      "removeSsvValidator(bytes,uint64[],(uint32,uint64,uint64,bool,uint256))": {
        "params": {
          "cluster": "The SSV cluster details including the validator count and SSV balance",
          "operatorIds": "The operator IDs of the SSV Cluster",
          "publicKey": "The public key of the validator"
        }
      },
      "requestConsolidation(bytes32,bytes32)": {
        "params": {
          "lastSourcePubKeyHash": "The last source validator to be consolidated hashed using the Beacon Chain's format.",
          "targetPubKeyHash": "The target validator's public key hash using the Beacon Chain's format."
        }
      },
      "setHarvesterAddress(address)": {
        "params": {
          "_harvesterAddress": "Address of the harvester contract."
        }
      },
      "setPTokenAddress(address,address)": {
        "params": {
          "_asset": "Address for the asset",
          "_pToken": "Address for the corresponding platform token"
        }
      },
      "setRewardTokenAddresses(address[])": {
        "params": {
          "_rewardTokenAddresses": "Array of reward token addresses"
        }
      },
      "stakeEth((bytes,bytes,bytes32),uint64)": {
        "params": {
          "depositAmountGwei": "The amount of WETH to stake to the validator in Gwei.",
          "validator": "validator data needed to stake. The `ValidatorStakeData` struct contains the pubkey, signature and depositDataRoot. Only the registrator can call this function."
        }
      },
      "supportsAsset(address)": {
        "params": {
          "_asset": "The address of the asset token."
        }
      },
      "transferGovernance(address)": {
        "params": {
          "_newGovernor": "Address of the new Governor"
        }
      },
      "transferToken(address,uint256)": {
        "params": {
          "_amount": "Amount of the asset to transfer",
          "_asset": "Address for the asset"
        }
      },
      "validatorWithdrawal(bytes,uint64)": {
        "params": {
          "amountGwei": "The amount of ETH to be withdrawn from the validator in Gwei. A zero amount will trigger a full withdrawal.",
          "publicKey": "The public key of the validator"
        }
      },
      "verifyDeposit(bytes32,uint64,uint64,uint64,bytes)": {
        "params": {
          "depositBlockNumber": "A block number that is on or after the block the deposit was made on the execution layer.",
          "depositDataRoot": "The root of the deposit data that was stored when the deposit was made on the execution layer.",
          "firstPendingDepositSlot": "The slot of the first pending deposit in the beacon chain",
          "firstPendingDepositSlotProof": "The merkle proof that the slot of the first pending deposit matches the beacon chain. BeaconBlock.BeaconBlockBody.deposits[0].slot",
          "processedSlot": "Any slot on or after the deposit was processed on the beacon chain. Can not be a slot with pending deposits with the same slot as the deposit being verified."
        }
      },
      "verifyValidator(uint64,uint64,bytes32,bytes)": {
        "params": {
          "nextBlockTimestamp": "The timestamp of the execution layer block after the beacon chain slot we are verifying. The next one is needed as the Beacon Oracle returns the parent beacon block root for a block timestamp, which is the beacon block root of the previous block.",
          "pubKeyHash": "The hash of the validator's public key using the Beacon Chain's format",
          "validatorIndex": "The index of the validator on the beacon chain.",
          "validatorPubKeyProof": "The merkle proof that the validator's index matches its public key on the beacon chain. BeaconBlock.state.validators[validatorIndex].pubkey"
        }
      },
      "withdraw(address,address,uint256)": {
        "params": {
          "_amount": "Amount of WETH to withdraw",
          "_asset": "WETH to withdraw",
          "_recipient": "Address to receive withdrawn assets"
        }
      },
      "withdrawSSV(uint64[],uint256,(uint32,uint64,uint64,bool,uint256))": {
        "details": "A SSV cluster is defined by the SSVOwnerAddress and the set of operatorIds.",
        "params": {
          "cluster": "The SSV cluster details including the validator count and SSV balance",
          "operatorIds": "The operator IDs of the SSV Cluster",
          "ssvAmount": "The amount of SSV tokens to be deposited to the SSV cluster"
        }
      }
    },
    "title": "Compounding Staking SSV Strategy",
    "version": 1
  },
  "userdoc": {
    "kind": "user",
    "methods": {
      "BEACON_CHAIN_DEPOSIT_CONTRACT()": {
        "notice": "The address of the beacon chain deposit contract"
      },
      "BEACON_ORACLE()": {
        "notice": "Address of the Beacon Oracle contract that maps block numbers to slots"
      },
      "BEACON_PROOFS()": {
        "notice": "Address of the Beacon Proofs contract that verifies beacon chain data"
      },
      "DEPOSIT_AMOUNT_WEI()": {
        "notice": "The amount of ETH in wei that is required for a deposit to a new validator. Initially this is 32 ETH, but will be increased to 1 ETH after P2P's APIs have been updated to support deposits of 1 ETH."
      },
      "SSV_NETWORK()": {
        "notice": "The address of the SSV Network contract used to interface with"
      },
      "SSV_TOKEN()": {
        "notice": "SSV ERC20 token that serves as a payment for operating SSV validators"
      },
      "VAULT_ADDRESS()": {
        "notice": "Address of the OETH Vault proxy contract"
      },
      "WETH()": {
        "notice": "The address of the Wrapped ETH (WETH) token contract"
      },
      "addSourceStrategy(address)": {
        "notice": "Adds support for a legacy staking strategy that can be used for consolidation."
      },
      "assetToPToken(address)": {
        "notice": "asset => pToken (Platform Specific Token Address)"
      },
      "checkBalance(address)": {
        "notice": "Returns the last verified balance of validator deposits, validator balance, WETH and ETH in the strategy contract."
      },
      "claimGovernance()": {
        "notice": "Claim Governance of the contract to a new account (`newGovernor`). Can only be called by the new Governor."
      },
      "collectRewardTokens()": {
        "notice": "Collect accumulated reward token and send to Vault."
      },
      "deposit(address,uint256)": {
        "notice": "Unlike other strategies, this does not deposit assets into the underlying platform. It just checks the asset is WETH and emits the Deposit event. To deposit WETH into validators `registerSsvValidator` and `stakeEth` must be used. Will NOT revert if the strategy is paused for validator consolidation."
      },
      "depositAll()": {
        "notice": "Unlike other strategies, this does not deposit assets into the underlying platform. It just emits the Deposit event. To deposit WETH into validators `registerSsvValidator` and `stakeEth` must be used. Will NOT revert if the strategy is paused for validator consolidation."
      },
      "deposits(bytes32)": {
        "notice": "Mapping of the root of a deposit (depositDataRoot) to its data"
      },
      "depositsRoots(uint256)": {
        "notice": "List of deposit roots that are still to be verified as processed on the beacon chain"
      },
      "getRewardTokenAddresses()": {
        "notice": "Get the reward token addresses."
      },
      "governor()": {
        "notice": "Returns the address of the current Governor."
      },
      "harvesterAddress()": {
        "notice": "Address of the Harvester contract allowed to collect reward tokens"
      },
      "initialize(address[],address[],address[])": {
        "notice": "Set up initial internal state including 1. approving the SSVNetwork to transfer SSV tokens from this strategy contract 2. setting the recipient of SSV validator MEV rewards to the FeeAccumulator contract."
      },
      "isGovernor()": {
        "notice": "Returns true if the caller is the current Governor."
      },
      "platformAddress()": {
        "notice": "Address of the underlying platform"
      },
      "registerSsvValidator(bytes,uint64[],bytes,uint256,(uint32,uint64,uint64,bool,uint256))": {
        "notice": "Registers a single validator in a SSV Cluster. Only the Registrator can call this function."
      },
      "removePToken(uint256)": {
        "notice": "Remove a supported asset by passing its index.      This method can only be called by the system Governor"
      },
      "removeSsvValidator(bytes,uint64[],(uint32,uint64,uint64,bool,uint256))": {
        "notice": "Remove a sweeping validator from the SSV Cluster. Make sure `exitSsvValidator` is called before and the validate has exited the Beacon chain. If removed before the validator has exited the beacon chain will result in the validator being slashed. Only the registrator can call this function."
      },
      "requestConsolidation(bytes32,bytes32)": {
        "notice": "Receives requests from supported legacy strategies to consolidate sweeping validators to a new compounding validator on this new strategy."
      },
      "rewardTokenAddresses(uint256)": {
        "notice": "Address of the reward tokens. eg CRV, BAL, CVX, AURA"
      },
      "safeApproveAllTokens()": {
        "notice": "Approves the SSV Network contract to transfer SSV tokens for deposits"
      },
      "setHarvesterAddress(address)": {
        "notice": "Set the Harvester contract that can collect rewards."
      },
      "setPTokenAddress(address,address)": {
        "notice": "Provide support for asset by passing its pToken address.      This method can only be called by the system Governor"
      },
      "setRegistrator(address)": {
        "notice": "Set the address of the registrator which can register, exit and remove validators"
      },
      "setRewardTokenAddresses(address[])": {
        "notice": "Set the reward token addresses. Any old addresses will be overwritten."
      },
      "snapBalances()": {
        "notice": "Stores the current ETH balance at the current block. The validator balances on the beacon chain can then be proved with `verifyBalances`. Can only be called by the registrator. Can not be called while a consolidation is in progress."
      },
      "snappedBalances(bytes32)": {
        "notice": "Mapping of the block root to the balances at that slot"
      },
      "stakeEth((bytes,bytes,bytes32),uint64)": {
        "notice": "Stakes WETH in this strategy to a compounding validator. Does not convert any ETH sitting in this strategy to WETH."
      },
      "supportsAsset(address)": {
        "notice": "Returns bool indicating whether asset is supported by strategy."
      },
      "transferGovernance(address)": {
        "notice": "Transfers Governance of the contract to a new account (`newGovernor`). Can only be called by the current Governor. Must be claimed for this to complete"
      },
      "transferToken(address,uint256)": {
        "notice": "Transfer token to governor. Intended for recovering tokens stuck in      strategy contracts, i.e. mistaken sends."
      },
      "validatorRegistrator()": {
        "notice": "Address of the registrator - allowed to register, withdraw, exit and remove validators"
      },
      "validatorState(bytes32)": {
        "notice": "State of the new compounding validators with a 0x02 withdrawal credential prefix. Uses the Beacon chain hashing for BLSPubkey which is sha256(abi.encodePacked(validator.pubkey, bytes16(0)))"
      },
      "validatorWithdrawal(bytes,uint64)": {
        "notice": "Request a full or partial withdrawal from a validator. A zero amount will trigger a full withdrawal. If the remaining balance is < 32 ETH then the request will fail. Only the Registrator can call this function."
      },
      "vaultAddress()": {
        "notice": "Address of the OToken vault"
      },
      "verifyBalances((bytes32,uint64,bytes,bytes32,bytes,bytes32[],bytes[]))": {
        "notice": "Verifies the balances of all active validators on the beacon chain and checks no pending deposits have been processed by the beacon chain."
      },
      "verifyDeposit(bytes32,uint64,uint64,uint64,bytes)": {
        "notice": "Verifies a deposit on the execution layer has been processed by the beacon chain. This means the accounting of the strategy's ETH moves from a pending deposit to a validator balance."
      },
      "verifyValidator(uint64,uint64,bytes32,bytes)": {
        "notice": "Verifies a validator's index to its public key."
      },
      "withdraw(address,address,uint256)": {
        "notice": "Withdraw ETH and WETH from this strategy contract. Will revert if the strategy is paused for validator consolidation."
      },
      "withdrawAll()": {
        "notice": "Transfer all WETH deposits, ETH from validator withdrawals and ETH from execution rewards in this strategy to the vault. This does not withdraw from the validators. That has to be done separately with the `validatorWithdrawal` operation. Will revert if the strategy is paused for validator consolidation."
      },
      "withdrawSSV(uint64[],uint256,(uint32,uint64,uint64,bool,uint256))": {
        "notice": "Withdraws excess SSV Tokens from the SSV Network contract which was used to pay the SSV Operators."
      }
    },
    "notice": "Strategy to deploy funds into DVT validators powered by the SSV Network",
    "version": 1
  },
  "storageLayout": {
    "storage": [
      {
        "astId": 6738,
        "contract": "contracts/strategies/NativeStaking/CompoundingStakingSSVStrategy.sol:CompoundingStakingSSVStrategy",
        "label": "initialized",
        "offset": 0,
        "slot": "0",
        "type": "t_bool"
      },
      {
        "astId": 6741,
        "contract": "contracts/strategies/NativeStaking/CompoundingStakingSSVStrategy.sol:CompoundingStakingSSVStrategy",
        "label": "initializing",
        "offset": 1,
        "slot": "0",
        "type": "t_bool"
      },
      {
        "astId": 6781,
        "contract": "contracts/strategies/NativeStaking/CompoundingStakingSSVStrategy.sol:CompoundingStakingSSVStrategy",
        "label": "______gap",
        "offset": 0,
        "slot": "1",
        "type": "t_array(t_uint256)50_storage"
      },
      {
        "astId": 17,
        "contract": "contracts/strategies/NativeStaking/CompoundingStakingSSVStrategy.sol:CompoundingStakingSSVStrategy",
        "label": "_paused",
        "offset": 0,
        "slot": "51",
        "type": "t_bool"
      },
      {
        "astId": 3617,
        "contract": "contracts/strategies/NativeStaking/CompoundingStakingSSVStrategy.sol:CompoundingStakingSSVStrategy",
        "label": "validatorRegistrator",
        "offset": 1,
        "slot": "51",
        "type": "t_address"
      },
      {
        "astId": 3636,
        "contract": "contracts/strategies/NativeStaking/CompoundingStakingSSVStrategy.sol:CompoundingStakingSSVStrategy",
        "label": "deposits",
        "offset": 0,
        "slot": "52",
        "type": "t_mapping(t_bytes32,t_struct(DepositData)3630_storage)"
      },
      {
        "astId": 3640,
        "contract": "contracts/strategies/NativeStaking/CompoundingStakingSSVStrategy.sol:CompoundingStakingSSVStrategy",
        "label": "depositsRoots",
        "offset": 0,
        "slot": "53",
        "type": "t_array(t_bytes32)dyn_storage"
      },
      {
        "astId": 3650,
        "contract": "contracts/strategies/NativeStaking/CompoundingStakingSSVStrategy.sol:CompoundingStakingSSVStrategy",
        "label": "verifiedValidators",
        "offset": 0,
        "slot": "54",
        "type": "t_array(t_struct(ValidatorData)3645_storage)dyn_storage"
      },
      {
        "astId": 3656,
        "contract": "contracts/strategies/NativeStaking/CompoundingStakingSSVStrategy.sol:CompoundingStakingSSVStrategy",
        "label": "validatorState",
        "offset": 0,
        "slot": "55",
        "type": "t_mapping(t_bytes32,t_enum(VALIDATOR_STATE)3694)"
      },
      {
        "astId": 3668,
        "contract": "contracts/strategies/NativeStaking/CompoundingStakingSSVStrategy.sol:CompoundingStakingSSVStrategy",
        "label": "snappedBalances",
        "offset": 0,
        "slot": "56",
        "type": "t_mapping(t_bytes32,t_struct(Balances)3662_storage)"
      },
      {
        "astId": 3670,
        "contract": "contracts/strategies/NativeStaking/CompoundingStakingSSVStrategy.sol:CompoundingStakingSSVStrategy",
        "label": "lastSnapTimestamp",
        "offset": 0,
        "slot": "57",
        "type": "t_uint64"
      },
      {
        "astId": 3672,
        "contract": "contracts/strategies/NativeStaking/CompoundingStakingSSVStrategy.sol:CompoundingStakingSSVStrategy",
        "label": "lastVerifiedEthBalance",
        "offset": 8,
        "slot": "57",
        "type": "t_uint128"
      },
      {
        "astId": 3675,
        "contract": "contracts/strategies/NativeStaking/CompoundingStakingSSVStrategy.sol:CompoundingStakingSSVStrategy",
        "label": "depositedWethAccountedFor",
        "offset": 0,
        "slot": "58",
        "type": "t_uint256"
      },
      {
        "astId": 3677,
        "contract": "contracts/strategies/NativeStaking/CompoundingStakingSSVStrategy.sol:CompoundingStakingSSVStrategy",
        "label": "consolidationLastPubKeyHash",
        "offset": 0,
        "slot": "59",
        "type": "t_bytes32"
      },
      {
        "astId": 3679,
        "contract": "contracts/strategies/NativeStaking/CompoundingStakingSSVStrategy.sol:CompoundingStakingSSVStrategy",
        "label": "consolidationSourceStrategy",
        "offset": 0,
        "slot": "60",
        "type": "t_address"
      },
      {
        "astId": 3683,
        "contract": "contracts/strategies/NativeStaking/CompoundingStakingSSVStrategy.sol:CompoundingStakingSSVStrategy",
        "label": "consolidationSourceStrategies",
        "offset": 0,
        "slot": "61",
        "type": "t_mapping(t_address,t_bool)"
      },
      {
        "astId": 3687,
        "contract": "contracts/strategies/NativeStaking/CompoundingStakingSSVStrategy.sol:CompoundingStakingSSVStrategy",
        "label": "__gap",
        "offset": 0,
        "slot": "62",
        "type": "t_array(t_uint256)50_storage"
      },
      {
        "astId": 6861,
        "contract": "contracts/strategies/NativeStaking/CompoundingStakingSSVStrategy.sol:CompoundingStakingSSVStrategy",
        "label": "_deprecated_platformAddress",
        "offset": 0,
        "slot": "112",
        "type": "t_address"
      },
      {
        "astId": 6864,
        "contract": "contracts/strategies/NativeStaking/CompoundingStakingSSVStrategy.sol:CompoundingStakingSSVStrategy",
        "label": "_deprecated_vaultAddress",
        "offset": 0,
        "slot": "113",
        "type": "t_address"
      },
      {
        "astId": 6869,
        "contract": "contracts/strategies/NativeStaking/CompoundingStakingSSVStrategy.sol:CompoundingStakingSSVStrategy",
        "label": "assetToPToken",
        "offset": 0,
        "slot": "114",
        "type": "t_mapping(t_address,t_address)"
      },
      {
        "astId": 6873,
        "contract": "contracts/strategies/NativeStaking/CompoundingStakingSSVStrategy.sol:CompoundingStakingSSVStrategy",
        "label": "assetsMapped",
        "offset": 0,
        "slot": "115",
        "type": "t_array(t_address)dyn_storage"
      },
      {
        "astId": 6875,
        "contract": "contracts/strategies/NativeStaking/CompoundingStakingSSVStrategy.sol:CompoundingStakingSSVStrategy",
        "label": "_deprecated_rewardTokenAddress",
        "offset": 0,
        "slot": "116",
        "type": "t_address"
      },
      {
        "astId": 6877,
        "contract": "contracts/strategies/NativeStaking/CompoundingStakingSSVStrategy.sol:CompoundingStakingSSVStrategy",
        "label": "_deprecated_rewardLiquidationThreshold",
        "offset": 0,
        "slot": "117",
        "type": "t_uint256"
      },
      {
        "astId": 6880,
        "contract": "contracts/strategies/NativeStaking/CompoundingStakingSSVStrategy.sol:CompoundingStakingSSVStrategy",
        "label": "harvesterAddress",
        "offset": 0,
        "slot": "118",
        "type": "t_address"
      },
      {
        "astId": 6884,
        "contract": "contracts/strategies/NativeStaking/CompoundingStakingSSVStrategy.sol:CompoundingStakingSSVStrategy",
        "label": "rewardTokenAddresses",
        "offset": 0,
        "slot": "119",
        "type": "t_array(t_address)dyn_storage"
      },
      {
        "astId": 6888,
        "contract": "contracts/strategies/NativeStaking/CompoundingStakingSSVStrategy.sol:CompoundingStakingSSVStrategy",
        "label": "_reserved",
        "offset": 0,
        "slot": "120",
        "type": "t_array(t_int256)98_storage"
      },
      {
        "astId": 3163,
        "contract": "contracts/strategies/NativeStaking/CompoundingStakingSSVStrategy.sol:CompoundingStakingSSVStrategy",
        "label": "__gap",
        "offset": 0,
        "slot": "218",
        "type": "t_array(t_uint256)50_storage"
      }
    ],
    "types": {
      "t_address": {
        "encoding": "inplace",
        "label": "address",
        "numberOfBytes": "20"
      },
      "t_array(t_address)dyn_storage": {
        "base": "t_address",
        "encoding": "dynamic_array",
        "label": "address[]",
        "numberOfBytes": "32"
      },
      "t_array(t_bytes32)dyn_storage": {
        "base": "t_bytes32",
        "encoding": "dynamic_array",
        "label": "bytes32[]",
        "numberOfBytes": "32"
      },
      "t_array(t_int256)98_storage": {
        "base": "t_int256",
        "encoding": "inplace",
        "label": "int256[98]",
        "numberOfBytes": "3136"
      },
      "t_array(t_struct(ValidatorData)3645_storage)dyn_storage": {
        "base": "t_struct(ValidatorData)3645_storage",
        "encoding": "dynamic_array",
        "label": "struct CompoundingValidatorManager.ValidatorData[]",
        "numberOfBytes": "32"
      },
      "t_array(t_uint256)50_storage": {
        "base": "t_uint256",
        "encoding": "inplace",
        "label": "uint256[50]",
        "numberOfBytes": "1600"
      },
      "t_bool": {
        "encoding": "inplace",
        "label": "bool",
        "numberOfBytes": "1"
      },
      "t_bytes32": {
        "encoding": "inplace",
        "label": "bytes32",
        "numberOfBytes": "32"
      },
      "t_enum(DepositStatus)3698": {
        "encoding": "inplace",
        "label": "enum CompoundingValidatorManager.DepositStatus",
        "numberOfBytes": "1"
      },
      "t_enum(VALIDATOR_STATE)3694": {
        "encoding": "inplace",
        "label": "enum CompoundingValidatorManager.VALIDATOR_STATE",
        "numberOfBytes": "1"
      },
      "t_int256": {
        "encoding": "inplace",
        "label": "int256",
        "numberOfBytes": "32"
      },
      "t_mapping(t_address,t_address)": {
        "encoding": "mapping",
        "key": "t_address",
        "label": "mapping(address => address)",
        "numberOfBytes": "32",
        "value": "t_address"
      },
      "t_mapping(t_address,t_bool)": {
        "encoding": "mapping",
        "key": "t_address",
        "label": "mapping(address => bool)",
        "numberOfBytes": "32",
        "value": "t_bool"
      },
      "t_mapping(t_bytes32,t_enum(VALIDATOR_STATE)3694)": {
        "encoding": "mapping",
        "key": "t_bytes32",
        "label": "mapping(bytes32 => enum CompoundingValidatorManager.VALIDATOR_STATE)",
        "numberOfBytes": "32",
        "value": "t_enum(VALIDATOR_STATE)3694"
      },
      "t_mapping(t_bytes32,t_struct(Balances)3662_storage)": {
        "encoding": "mapping",
        "key": "t_bytes32",
        "label": "mapping(bytes32 => struct CompoundingValidatorManager.Balances)",
        "numberOfBytes": "32",
        "value": "t_struct(Balances)3662_storage"
      },
      "t_mapping(t_bytes32,t_struct(DepositData)3630_storage)": {
        "encoding": "mapping",
        "key": "t_bytes32",
        "label": "mapping(bytes32 => struct CompoundingValidatorManager.DepositData)",
        "numberOfBytes": "32",
        "value": "t_struct(DepositData)3630_storage"
      },
      "t_struct(Balances)3662_storage": {
        "encoding": "inplace",
        "label": "struct CompoundingValidatorManager.Balances",
        "members": [
          {
            "astId": 3659,
            "contract": "contracts/strategies/NativeStaking/CompoundingStakingSSVStrategy.sol:CompoundingStakingSSVStrategy",
            "label": "timestamp",
            "offset": 0,
            "slot": "0",
            "type": "t_uint64"
          },
          {
            "astId": 3661,
            "contract": "contracts/strategies/NativeStaking/CompoundingStakingSSVStrategy.sol:CompoundingStakingSSVStrategy",
            "label": "ethBalance",
            "offset": 8,
            "slot": "0",
            "type": "t_uint128"
          }
        ],
        "numberOfBytes": "32"
      },
      "t_struct(DepositData)3630_storage": {
        "encoding": "inplace",
        "label": "struct CompoundingValidatorManager.DepositData",
        "members": [
          {
            "astId": 3620,
            "contract": "contracts/strategies/NativeStaking/CompoundingStakingSSVStrategy.sol:CompoundingStakingSSVStrategy",
            "label": "pubKeyHash",
            "offset": 0,
            "slot": "0",
            "type": "t_bytes32"
          },
          {
            "astId": 3622,
            "contract": "contracts/strategies/NativeStaking/CompoundingStakingSSVStrategy.sol:CompoundingStakingSSVStrategy",
            "label": "amountGwei",
            "offset": 0,
            "slot": "1",
            "type": "t_uint64"
          },
          {
            "astId": 3624,
            "contract": "contracts/strategies/NativeStaking/CompoundingStakingSSVStrategy.sol:CompoundingStakingSSVStrategy",
            "label": "blockNumber",
            "offset": 8,
            "slot": "1",
            "type": "t_uint64"
          },
          {
            "astId": 3626,
            "contract": "contracts/strategies/NativeStaking/CompoundingStakingSSVStrategy.sol:CompoundingStakingSSVStrategy",
            "label": "depositIndex",
            "offset": 16,
            "slot": "1",
            "type": "t_uint32"
          },
          {
            "astId": 3629,
            "contract": "contracts/strategies/NativeStaking/CompoundingStakingSSVStrategy.sol:CompoundingStakingSSVStrategy",
            "label": "status",
            "offset": 20,
            "slot": "1",
            "type": "t_enum(DepositStatus)3698"
          }
        ],
        "numberOfBytes": "64"
      },
      "t_struct(ValidatorData)3645_storage": {
        "encoding": "inplace",
        "label": "struct CompoundingValidatorManager.ValidatorData",
        "members": [
          {
            "astId": 3642,
            "contract": "contracts/strategies/NativeStaking/CompoundingStakingSSVStrategy.sol:CompoundingStakingSSVStrategy",
            "label": "pubKeyHash",
            "offset": 0,
            "slot": "0",
            "type": "t_bytes32"
          },
          {
            "astId": 3644,
            "contract": "contracts/strategies/NativeStaking/CompoundingStakingSSVStrategy.sol:CompoundingStakingSSVStrategy",
            "label": "index",
            "offset": 0,
            "slot": "1",
            "type": "t_uint64"
          }
        ],
        "numberOfBytes": "64"
      },
      "t_uint128": {
        "encoding": "inplace",
        "label": "uint128",
        "numberOfBytes": "16"
      },
      "t_uint256": {
        "encoding": "inplace",
        "label": "uint256",
        "numberOfBytes": "32"
      },
      "t_uint32": {
        "encoding": "inplace",
        "label": "uint32",
        "numberOfBytes": "4"
      },
      "t_uint64": {
        "encoding": "inplace",
        "label": "uint64",
        "numberOfBytes": "8"
      }
    }
  }
}