{
  "address": "0x81F83b32a33d7ca1Cb73E001004e5e483e1e4E2a",
  "abi": [
    {
      "inputs": [
        {
          "components": [
            {
              "internalType": "address",
              "name": "platformAddress",
              "type": "address"
            },
            {
              "internalType": "address",
              "name": "vaultAddress",
              "type": "address"
            }
          ],
          "internalType": "struct InitializableAbstractStrategy.BaseStrategyConfig",
          "name": "_baseConfig",
          "type": "tuple"
        },
        {
          "internalType": "address",
          "name": "_wethAddress",
          "type": "address"
        },
        {
          "internalType": "address",
          "name": "_ssvToken",
          "type": "address"
        },
        {
          "internalType": "address",
          "name": "_ssvNetwork",
          "type": "address"
        },
        {
          "internalType": "address",
          "name": "_beaconChainDepositContract",
          "type": "address"
        },
        {
          "internalType": "address",
          "name": "_beaconProofs",
          "type": "address"
        },
        {
          "internalType": "uint64",
          "name": "_beaconGenesisTimestamp",
          "type": "uint64"
        }
      ],
      "stateMutability": "nonpayable",
      "type": "constructor"
    },
    {
      "anonymous": false,
      "inputs": [
        {
          "indexed": true,
          "internalType": "bytes32",
          "name": "blockRoot",
          "type": "bytes32"
        },
        {
          "indexed": false,
          "internalType": "uint256",
          "name": "ethBalance",
          "type": "uint256"
        }
      ],
      "name": "BalancesSnapped",
      "type": "event"
    },
    {
      "anonymous": false,
      "inputs": [
        {
          "indexed": true,
          "internalType": "uint64",
          "name": "timestamp",
          "type": "uint64"
        },
        {
          "indexed": false,
          "internalType": "uint256",
          "name": "totalDepositsWei",
          "type": "uint256"
        },
        {
          "indexed": false,
          "internalType": "uint256",
          "name": "totalValidatorBalance",
          "type": "uint256"
        },
        {
          "indexed": false,
          "internalType": "uint256",
          "name": "ethBalance",
          "type": "uint256"
        }
      ],
      "name": "BalancesVerified",
      "type": "event"
    },
    {
      "anonymous": false,
      "inputs": [
        {
          "indexed": true,
          "internalType": "address",
          "name": "_asset",
          "type": "address"
        },
        {
          "indexed": false,
          "internalType": "address",
          "name": "_pToken",
          "type": "address"
        },
        {
          "indexed": false,
          "internalType": "uint256",
          "name": "_amount",
          "type": "uint256"
        }
      ],
      "name": "Deposit",
      "type": "event"
    },
    {
      "anonymous": false,
      "inputs": [
        {
          "indexed": true,
          "internalType": "uint256",
          "name": "depositID",
          "type": "uint256"
        },
        {
          "indexed": false,
          "internalType": "uint256",
          "name": "amountWei",
          "type": "uint256"
        },
        {
          "indexed": false,
          "internalType": "uint64",
          "name": "withdrawableEpoch",
          "type": "uint64"
        }
      ],
      "name": "DepositToValidatorExiting",
      "type": "event"
    },
    {
      "anonymous": false,
      "inputs": [
        {
          "indexed": true,
          "internalType": "uint256",
          "name": "depositID",
          "type": "uint256"
        },
        {
          "indexed": false,
          "internalType": "uint256",
          "name": "amountWei",
          "type": "uint256"
        }
      ],
      "name": "DepositValidatorExited",
      "type": "event"
    },
    {
      "anonymous": false,
      "inputs": [
        {
          "indexed": true,
          "internalType": "uint256",
          "name": "depositID",
          "type": "uint256"
        },
        {
          "indexed": false,
          "internalType": "uint256",
          "name": "amountWei",
          "type": "uint256"
        }
      ],
      "name": "DepositVerified",
      "type": "event"
    },
    {
      "anonymous": false,
      "inputs": [
        {
          "indexed": true,
          "internalType": "bytes32",
          "name": "pubKeyHash",
          "type": "bytes32"
        },
        {
          "indexed": true,
          "internalType": "uint256",
          "name": "depositID",
          "type": "uint256"
        },
        {
          "indexed": false,
          "internalType": "bytes",
          "name": "pubKey",
          "type": "bytes"
        },
        {
          "indexed": false,
          "internalType": "uint256",
          "name": "amountWei",
          "type": "uint256"
        }
      ],
      "name": "ETHStaked",
      "type": "event"
    },
    {
      "anonymous": false,
      "inputs": [],
      "name": "FirstDepositReset",
      "type": "event"
    },
    {
      "anonymous": false,
      "inputs": [
        {
          "indexed": true,
          "internalType": "address",
          "name": "previousGovernor",
          "type": "address"
        },
        {
          "indexed": true,
          "internalType": "address",
          "name": "newGovernor",
          "type": "address"
        }
      ],
      "name": "GovernorshipTransferred",
      "type": "event"
    },
    {
      "anonymous": false,
      "inputs": [
        {
          "indexed": false,
          "internalType": "address",
          "name": "_oldHarvesterAddress",
          "type": "address"
        },
        {
          "indexed": false,
          "internalType": "address",
          "name": "_newHarvesterAddress",
          "type": "address"
        }
      ],
      "name": "HarvesterAddressesUpdated",
      "type": "event"
    },
    {
      "anonymous": false,
      "inputs": [
        {
          "indexed": true,
          "internalType": "address",
          "name": "_asset",
          "type": "address"
        },
        {
          "indexed": false,
          "internalType": "address",
          "name": "_pToken",
          "type": "address"
        }
      ],
      "name": "PTokenAdded",
      "type": "event"
    },
    {
      "anonymous": false,
      "inputs": [
        {
          "indexed": true,
          "internalType": "address",
          "name": "_asset",
          "type": "address"
        },
        {
          "indexed": false,
          "internalType": "address",
          "name": "_pToken",
          "type": "address"
        }
      ],
      "name": "PTokenRemoved",
      "type": "event"
    },
    {
      "anonymous": false,
      "inputs": [
        {
          "indexed": true,
          "internalType": "address",
          "name": "previousGovernor",
          "type": "address"
        },
        {
          "indexed": true,
          "internalType": "address",
          "name": "newGovernor",
          "type": "address"
        }
      ],
      "name": "PendingGovernorshipTransfer",
      "type": "event"
    },
    {
      "anonymous": false,
      "inputs": [
        {
          "indexed": true,
          "internalType": "address",
          "name": "newAddress",
          "type": "address"
        }
      ],
      "name": "RegistratorChanged",
      "type": "event"
    },
    {
      "anonymous": false,
      "inputs": [
        {
          "indexed": false,
          "internalType": "address[]",
          "name": "_oldAddresses",
          "type": "address[]"
        },
        {
          "indexed": false,
          "internalType": "address[]",
          "name": "_newAddresses",
          "type": "address[]"
        }
      ],
      "name": "RewardTokenAddressesUpdated",
      "type": "event"
    },
    {
      "anonymous": false,
      "inputs": [
        {
          "indexed": false,
          "internalType": "address",
          "name": "recipient",
          "type": "address"
        },
        {
          "indexed": false,
          "internalType": "address",
          "name": "rewardToken",
          "type": "address"
        },
        {
          "indexed": false,
          "internalType": "uint256",
          "name": "amount",
          "type": "uint256"
        }
      ],
      "name": "RewardTokenCollected",
      "type": "event"
    },
    {
      "anonymous": false,
      "inputs": [
        {
          "indexed": true,
          "internalType": "bytes32",
          "name": "pubKeyHash",
          "type": "bytes32"
        },
        {
          "indexed": false,
          "internalType": "uint64[]",
          "name": "operatorIds",
          "type": "uint64[]"
        }
      ],
      "name": "SSVValidatorRegistered",
      "type": "event"
    },
    {
      "anonymous": false,
      "inputs": [
        {
          "indexed": true,
          "internalType": "bytes32",
          "name": "pubKeyHash",
          "type": "bytes32"
        },
        {
          "indexed": false,
          "internalType": "uint64[]",
          "name": "operatorIds",
          "type": "uint64[]"
        }
      ],
      "name": "SSVValidatorRemoved",
      "type": "event"
    },
    {
      "anonymous": false,
      "inputs": [
        {
          "indexed": true,
          "internalType": "address",
          "name": "newAddress",
          "type": "address"
        }
      ],
      "name": "StakingMonitorChanged",
      "type": "event"
    },
    {
      "anonymous": false,
      "inputs": [
        {
          "indexed": true,
          "internalType": "bytes32",
          "name": "pubKeyHash",
          "type": "bytes32"
        }
      ],
      "name": "ValidatorInvalid",
      "type": "event"
    },
    {
      "anonymous": false,
      "inputs": [
        {
          "indexed": true,
          "internalType": "bytes32",
          "name": "pubKeyHash",
          "type": "bytes32"
        },
        {
          "indexed": true,
          "internalType": "uint64",
          "name": "validatorIndex",
          "type": "uint64"
        }
      ],
      "name": "ValidatorVerified",
      "type": "event"
    },
    {
      "anonymous": false,
      "inputs": [
        {
          "indexed": true,
          "internalType": "bytes32",
          "name": "pubKeyHash",
          "type": "bytes32"
        },
        {
          "indexed": false,
          "internalType": "uint256",
          "name": "amountWei",
          "type": "uint256"
        }
      ],
      "name": "ValidatorWithdraw",
      "type": "event"
    },
    {
      "anonymous": false,
      "inputs": [
        {
          "indexed": true,
          "internalType": "address",
          "name": "_asset",
          "type": "address"
        },
        {
          "indexed": false,
          "internalType": "address",
          "name": "_pToken",
          "type": "address"
        },
        {
          "indexed": false,
          "internalType": "uint256",
          "name": "_amount",
          "type": "uint256"
        }
      ],
      "name": "Withdrawal",
      "type": "event"
    },
    {
      "inputs": [],
      "name": "BEACON_CHAIN_DEPOSIT_CONTRACT",
      "outputs": [
        {
          "internalType": "address",
          "name": "",
          "type": "address"
        }
      ],
      "stateMutability": "view",
      "type": "function"
    },
    {
      "inputs": [],
      "name": "BEACON_GENESIS_TIMESTAMP",
      "outputs": [
        {
          "internalType": "uint64",
          "name": "",
          "type": "uint64"
        }
      ],
      "stateMutability": "view",
      "type": "function"
    },
    {
      "inputs": [],
      "name": "BEACON_PROOFS",
      "outputs": [
        {
          "internalType": "address",
          "name": "",
          "type": "address"
        }
      ],
      "stateMutability": "view",
      "type": "function"
    },
    {
      "inputs": [],
      "name": "SSV_NETWORK",
      "outputs": [
        {
          "internalType": "address",
          "name": "",
          "type": "address"
        }
      ],
      "stateMutability": "view",
      "type": "function"
    },
    {
      "inputs": [],
      "name": "SSV_TOKEN",
      "outputs": [
        {
          "internalType": "address",
          "name": "",
          "type": "address"
        }
      ],
      "stateMutability": "view",
      "type": "function"
    },
    {
      "inputs": [],
      "name": "VAULT_ADDRESS",
      "outputs": [
        {
          "internalType": "address",
          "name": "",
          "type": "address"
        }
      ],
      "stateMutability": "view",
      "type": "function"
    },
    {
      "inputs": [],
      "name": "WETH",
      "outputs": [
        {
          "internalType": "address",
          "name": "",
          "type": "address"
        }
      ],
      "stateMutability": "view",
      "type": "function"
    },
    {
      "inputs": [
        {
          "internalType": "address",
          "name": "",
          "type": "address"
        }
      ],
      "name": "assetToPToken",
      "outputs": [
        {
          "internalType": "address",
          "name": "",
          "type": "address"
        }
      ],
      "stateMutability": "view",
      "type": "function"
    },
    {
      "inputs": [
        {
          "internalType": "address",
          "name": "_asset",
          "type": "address"
        }
      ],
      "name": "checkBalance",
      "outputs": [
        {
          "internalType": "uint256",
          "name": "balance",
          "type": "uint256"
        }
      ],
      "stateMutability": "view",
      "type": "function"
    },
    {
      "inputs": [],
      "name": "claimGovernance",
      "outputs": [],
      "stateMutability": "nonpayable",
      "type": "function"
    },
    {
      "inputs": [],
      "name": "collectRewardTokens",
      "outputs": [],
      "stateMutability": "nonpayable",
      "type": "function"
    },
    {
      "inputs": [
        {
          "internalType": "address",
          "name": "_asset",
          "type": "address"
        },
        {
          "internalType": "uint256",
          "name": "_amount",
          "type": "uint256"
        }
      ],
      "name": "deposit",
      "outputs": [],
      "stateMutability": "nonpayable",
      "type": "function"
    },
    {
      "inputs": [],
      "name": "depositAll",
      "outputs": [],
      "stateMutability": "nonpayable",
      "type": "function"
    },
    {
      "inputs": [
        {
          "internalType": "uint256",
          "name": "",
          "type": "uint256"
        }
      ],
      "name": "depositList",
      "outputs": [
        {
          "internalType": "uint256",
          "name": "",
          "type": "uint256"
        }
      ],
      "stateMutability": "view",
      "type": "function"
    },
    {
      "inputs": [],
      "name": "depositListLength",
      "outputs": [
        {
          "internalType": "uint256",
          "name": "",
          "type": "uint256"
        }
      ],
      "stateMutability": "view",
      "type": "function"
    },
    {
      "inputs": [],
      "name": "depositedWethAccountedFor",
      "outputs": [
        {
          "internalType": "uint256",
          "name": "",
          "type": "uint256"
        }
      ],
      "stateMutability": "view",
      "type": "function"
    },
    {
      "inputs": [
        {
          "internalType": "uint256",
          "name": "",
          "type": "uint256"
        }
      ],
      "name": "deposits",
      "outputs": [
        {
          "internalType": "bytes32",
          "name": "pubKeyHash",
          "type": "bytes32"
        },
        {
          "internalType": "uint64",
          "name": "amountGwei",
          "type": "uint64"
        },
        {
          "internalType": "uint64",
          "name": "slot",
          "type": "uint64"
        },
        {
          "internalType": "uint32",
          "name": "depositIndex",
          "type": "uint32"
        },
        {
          "internalType": "enum CompoundingValidatorManager.DepositStatus",
          "name": "status",
          "type": "uint8"
        },
        {
          "internalType": "uint64",
          "name": "withdrawableEpoch",
          "type": "uint64"
        }
      ],
      "stateMutability": "view",
      "type": "function"
    },
    {
      "inputs": [],
      "name": "firstDeposit",
      "outputs": [
        {
          "internalType": "bool",
          "name": "",
          "type": "bool"
        }
      ],
      "stateMutability": "view",
      "type": "function"
    },
    {
      "inputs": [],
      "name": "getRewardTokenAddresses",
      "outputs": [
        {
          "internalType": "address[]",
          "name": "",
          "type": "address[]"
        }
      ],
      "stateMutability": "view",
      "type": "function"
    },
    {
      "inputs": [],
      "name": "governor",
      "outputs": [
        {
          "internalType": "address",
          "name": "",
          "type": "address"
        }
      ],
      "stateMutability": "view",
      "type": "function"
    },
    {
      "inputs": [],
      "name": "harvesterAddress",
      "outputs": [
        {
          "internalType": "address",
          "name": "",
          "type": "address"
        }
      ],
      "stateMutability": "view",
      "type": "function"
    },
    {
      "inputs": [
        {
          "internalType": "address[]",
          "name": "_rewardTokenAddresses",
          "type": "address[]"
        },
        {
          "internalType": "address[]",
          "name": "_assets",
          "type": "address[]"
        },
        {
          "internalType": "address[]",
          "name": "_pTokens",
          "type": "address[]"
        }
      ],
      "name": "initialize",
      "outputs": [],
      "stateMutability": "nonpayable",
      "type": "function"
    },
    {
      "inputs": [],
      "name": "isGovernor",
      "outputs": [
        {
          "internalType": "bool",
          "name": "",
          "type": "bool"
        }
      ],
      "stateMutability": "view",
      "type": "function"
    },
    {
      "inputs": [],
      "name": "lastSnapTimestamp",
      "outputs": [
        {
          "internalType": "uint64",
          "name": "",
          "type": "uint64"
        }
      ],
      "stateMutability": "view",
      "type": "function"
    },
    {
      "inputs": [],
      "name": "lastVerifiedEthBalance",
      "outputs": [
        {
          "internalType": "uint128",
          "name": "",
          "type": "uint128"
        }
      ],
      "stateMutability": "view",
      "type": "function"
    },
    {
      "inputs": [],
      "name": "nextDepositID",
      "outputs": [
        {
          "internalType": "uint128",
          "name": "",
          "type": "uint128"
        }
      ],
      "stateMutability": "view",
      "type": "function"
    },
    {
      "inputs": [],
      "name": "platformAddress",
      "outputs": [
        {
          "internalType": "address",
          "name": "",
          "type": "address"
        }
      ],
      "stateMutability": "view",
      "type": "function"
    },
    {
      "inputs": [
        {
          "internalType": "bytes",
          "name": "publicKey",
          "type": "bytes"
        },
        {
          "internalType": "uint64[]",
          "name": "operatorIds",
          "type": "uint64[]"
        },
        {
          "internalType": "bytes",
          "name": "sharesData",
          "type": "bytes"
        },
        {
          "internalType": "uint256",
          "name": "ssvAmount",
          "type": "uint256"
        },
        {
          "components": [
            {
              "internalType": "uint32",
              "name": "validatorCount",
              "type": "uint32"
            },
            {
              "internalType": "uint64",
              "name": "networkFeeIndex",
              "type": "uint64"
            },
            {
              "internalType": "uint64",
              "name": "index",
              "type": "uint64"
            },
            {
              "internalType": "bool",
              "name": "active",
              "type": "bool"
            },
            {
              "internalType": "uint256",
              "name": "balance",
              "type": "uint256"
            }
          ],
          "internalType": "struct Cluster",
          "name": "cluster",
          "type": "tuple"
        }
      ],
      "name": "registerSsvValidator",
      "outputs": [],
      "stateMutability": "nonpayable",
      "type": "function"
    },
    {
      "inputs": [
        {
          "internalType": "uint256",
          "name": "",
          "type": "uint256"
        }
      ],
      "name": "removePToken",
      "outputs": [],
      "stateMutability": "pure",
      "type": "function"
    },
    {
      "inputs": [
        {
          "internalType": "bytes",
          "name": "publicKey",
          "type": "bytes"
        },
        {
          "internalType": "uint64[]",
          "name": "operatorIds",
          "type": "uint64[]"
        },
        {
          "components": [
            {
              "internalType": "uint32",
              "name": "validatorCount",
              "type": "uint32"
            },
            {
              "internalType": "uint64",
              "name": "networkFeeIndex",
              "type": "uint64"
            },
            {
              "internalType": "uint64",
              "name": "index",
              "type": "uint64"
            },
            {
              "internalType": "bool",
              "name": "active",
              "type": "bool"
            },
            {
              "internalType": "uint256",
              "name": "balance",
              "type": "uint256"
            }
          ],
          "internalType": "struct Cluster",
          "name": "cluster",
          "type": "tuple"
        }
      ],
      "name": "removeSsvValidator",
      "outputs": [],
      "stateMutability": "nonpayable",
      "type": "function"
    },
    {
      "inputs": [],
      "name": "resetFirstDeposit",
      "outputs": [],
      "stateMutability": "nonpayable",
      "type": "function"
    },
    {
      "inputs": [
        {
          "internalType": "uint256",
          "name": "",
          "type": "uint256"
        }
      ],
      "name": "rewardTokenAddresses",
      "outputs": [
        {
          "internalType": "address",
          "name": "",
          "type": "address"
        }
      ],
      "stateMutability": "view",
      "type": "function"
    },
    {
      "inputs": [],
      "name": "safeApproveAllTokens",
      "outputs": [],
      "stateMutability": "nonpayable",
      "type": "function"
    },
    {
      "inputs": [
        {
          "internalType": "address",
          "name": "_harvesterAddress",
          "type": "address"
        }
      ],
      "name": "setHarvesterAddress",
      "outputs": [],
      "stateMutability": "nonpayable",
      "type": "function"
    },
    {
      "inputs": [
        {
          "internalType": "address",
          "name": "",
          "type": "address"
        },
        {
          "internalType": "address",
          "name": "",
          "type": "address"
        }
      ],
      "name": "setPTokenAddress",
      "outputs": [],
      "stateMutability": "pure",
      "type": "function"
    },
    {
      "inputs": [
        {
          "internalType": "address",
          "name": "_address",
          "type": "address"
        }
      ],
      "name": "setRegistrator",
      "outputs": [],
      "stateMutability": "nonpayable",
      "type": "function"
    },
    {
      "inputs": [
        {
          "internalType": "address[]",
          "name": "_rewardTokenAddresses",
          "type": "address[]"
        }
      ],
      "name": "setRewardTokenAddresses",
      "outputs": [],
      "stateMutability": "nonpayable",
      "type": "function"
    },
    {
      "inputs": [],
      "name": "snapBalances",
      "outputs": [],
      "stateMutability": "nonpayable",
      "type": "function"
    },
    {
      "inputs": [
        {
          "internalType": "bytes32",
          "name": "",
          "type": "bytes32"
        }
      ],
      "name": "snappedBalances",
      "outputs": [
        {
          "internalType": "uint64",
          "name": "timestamp",
          "type": "uint64"
        },
        {
          "internalType": "uint128",
          "name": "ethBalance",
          "type": "uint128"
        }
      ],
      "stateMutability": "view",
      "type": "function"
    },
    {
      "inputs": [
        {
          "components": [
            {
              "internalType": "bytes",
              "name": "pubkey",
              "type": "bytes"
            },
            {
              "internalType": "bytes",
              "name": "signature",
              "type": "bytes"
            },
            {
              "internalType": "bytes32",
              "name": "depositDataRoot",
              "type": "bytes32"
            }
          ],
          "internalType": "struct CompoundingValidatorManager.ValidatorStakeData",
          "name": "validatorStakeData",
          "type": "tuple"
        },
        {
          "internalType": "uint64",
          "name": "depositAmountGwei",
          "type": "uint64"
        }
      ],
      "name": "stakeEth",
      "outputs": [],
      "stateMutability": "nonpayable",
      "type": "function"
    },
    {
      "inputs": [
        {
          "internalType": "address",
          "name": "_asset",
          "type": "address"
        }
      ],
      "name": "supportsAsset",
      "outputs": [
        {
          "internalType": "bool",
          "name": "",
          "type": "bool"
        }
      ],
      "stateMutability": "view",
      "type": "function"
    },
    {
      "inputs": [
        {
          "internalType": "address",
          "name": "_newGovernor",
          "type": "address"
        }
      ],
      "name": "transferGovernance",
      "outputs": [],
      "stateMutability": "nonpayable",
      "type": "function"
    },
    {
      "inputs": [
        {
          "internalType": "address",
          "name": "_asset",
          "type": "address"
        },
        {
          "internalType": "uint256",
          "name": "_amount",
          "type": "uint256"
        }
      ],
      "name": "transferToken",
      "outputs": [],
      "stateMutability": "nonpayable",
      "type": "function"
    },
    {
      "inputs": [
        {
          "internalType": "bytes32",
          "name": "",
          "type": "bytes32"
        }
      ],
      "name": "validator",
      "outputs": [
        {
          "internalType": "enum CompoundingValidatorManager.ValidatorState",
          "name": "state",
          "type": "uint8"
        },
        {
          "internalType": "uint64",
          "name": "index",
          "type": "uint64"
        }
      ],
      "stateMutability": "view",
      "type": "function"
    },
    {
      "inputs": [],
      "name": "validatorRegistrator",
      "outputs": [
        {
          "internalType": "address",
          "name": "",
          "type": "address"
        }
      ],
      "stateMutability": "view",
      "type": "function"
    },
    {
      "inputs": [
        {
          "internalType": "bytes",
          "name": "publicKey",
          "type": "bytes"
        },
        {
          "internalType": "uint64",
          "name": "amountGwei",
          "type": "uint64"
        }
      ],
      "name": "validatorWithdrawal",
      "outputs": [],
      "stateMutability": "payable",
      "type": "function"
    },
    {
      "inputs": [],
      "name": "vaultAddress",
      "outputs": [
        {
          "internalType": "address",
          "name": "",
          "type": "address"
        }
      ],
      "stateMutability": "view",
      "type": "function"
    },
    {
      "inputs": [
        {
          "internalType": "uint256",
          "name": "",
          "type": "uint256"
        }
      ],
      "name": "verifiedValidators",
      "outputs": [
        {
          "internalType": "bytes32",
          "name": "",
          "type": "bytes32"
        }
      ],
      "stateMutability": "view",
      "type": "function"
    },
    {
      "inputs": [],
      "name": "verifiedValidatorsLength",
      "outputs": [
        {
          "internalType": "uint256",
          "name": "",
          "type": "uint256"
        }
      ],
      "stateMutability": "view",
      "type": "function"
    },
    {
      "inputs": [
        {
          "internalType": "bytes32",
          "name": "snapBlockRoot",
          "type": "bytes32"
        },
        {
          "internalType": "uint64",
          "name": "validatorVerificationBlockTimestamp",
          "type": "uint64"
        },
        {
          "components": [
            {
              "internalType": "uint64",
              "name": "slot",
              "type": "uint64"
            },
            {
              "internalType": "uint64",
              "name": "validatorIndex",
              "type": "uint64"
            },
            {
              "internalType": "bytes32",
              "name": "pubKeyHash",
              "type": "bytes32"
            },
            {
              "internalType": "bytes",
              "name": "pendingDepositPubKeyProof",
              "type": "bytes"
            },
            {
              "internalType": "bytes",
              "name": "withdrawableEpochProof",
              "type": "bytes"
            },
            {
              "internalType": "bytes",
              "name": "validatorPubKeyProof",
              "type": "bytes"
            }
          ],
          "internalType": "struct CompoundingValidatorManager.FirstPendingDepositProofData",
          "name": "firstPendingDeposit",
          "type": "tuple"
        },
        {
          "components": [
            {
              "internalType": "bytes32",
              "name": "balancesContainerRoot",
              "type": "bytes32"
            },
            {
              "internalType": "bytes",
              "name": "balancesContainerProof",
              "type": "bytes"
            },
            {
              "internalType": "bytes32[]",
              "name": "validatorBalanceLeaves",
              "type": "bytes32[]"
            },
            {
              "internalType": "bytes[]",
              "name": "validatorBalanceProofs",
              "type": "bytes[]"
            }
          ],
          "internalType": "struct CompoundingValidatorManager.BalanceProofs",
          "name": "balanceProofs",
          "type": "tuple"
        }
      ],
      "name": "verifyBalances",
      "outputs": [],
      "stateMutability": "nonpayable",
      "type": "function"
    },
    {
      "inputs": [
        {
          "internalType": "uint256",
          "name": "depositID",
          "type": "uint256"
        },
        {
          "internalType": "uint64",
          "name": "depositProcessedSlot",
          "type": "uint64"
        },
        {
          "internalType": "uint64",
          "name": "firstDepositValidatorCreatedSlot",
          "type": "uint64"
        },
        {
          "components": [
            {
              "internalType": "uint64",
              "name": "slot",
              "type": "uint64"
            },
            {
              "internalType": "uint64",
              "name": "validatorIndex",
              "type": "uint64"
            },
            {
              "internalType": "bytes32",
              "name": "pubKeyHash",
              "type": "bytes32"
            },
            {
              "internalType": "bytes",
              "name": "pendingDepositPubKeyProof",
              "type": "bytes"
            },
            {
              "internalType": "bytes",
              "name": "withdrawableEpochProof",
              "type": "bytes"
            },
            {
              "internalType": "bytes",
              "name": "validatorPubKeyProof",
              "type": "bytes"
            }
          ],
          "internalType": "struct CompoundingValidatorManager.FirstPendingDepositProofData",
          "name": "firstPendingDeposit",
          "type": "tuple"
        },
        {
          "components": [
            {
              "internalType": "uint64",
              "name": "withdrawableEpoch",
              "type": "uint64"
            },
            {
              "internalType": "bytes",
              "name": "withdrawableEpochProof",
              "type": "bytes"
            }
          ],
          "internalType": "struct CompoundingValidatorManager.DepositValidatorProofData",
          "name": "strategyValidatorData",
          "type": "tuple"
        }
      ],
      "name": "verifyDeposit",
      "outputs": [],
      "stateMutability": "nonpayable",
      "type": "function"
    },
    {
      "inputs": [
        {
          "internalType": "uint64",
          "name": "nextBlockTimestamp",
          "type": "uint64"
        },
        {
          "internalType": "uint64",
          "name": "validatorIndex",
          "type": "uint64"
        },
        {
          "internalType": "bytes32",
          "name": "pubKeyHash",
          "type": "bytes32"
        },
        {
          "internalType": "address",
          "name": "withdrawalAddress",
          "type": "address"
        },
        {
          "internalType": "bytes",
          "name": "validatorPubKeyProof",
          "type": "bytes"
        }
      ],
      "name": "verifyValidator",
      "outputs": [],
      "stateMutability": "nonpayable",
      "type": "function"
    },
    {
      "inputs": [
        {
          "internalType": "address",
          "name": "_recipient",
          "type": "address"
        },
        {
          "internalType": "address",
          "name": "_asset",
          "type": "address"
        },
        {
          "internalType": "uint256",
          "name": "_amount",
          "type": "uint256"
        }
      ],
      "name": "withdraw",
      "outputs": [],
      "stateMutability": "nonpayable",
      "type": "function"
    },
    {
      "inputs": [],
      "name": "withdrawAll",
      "outputs": [],
      "stateMutability": "nonpayable",
      "type": "function"
    },
    {
      "inputs": [
        {
          "internalType": "uint64[]",
          "name": "operatorIds",
          "type": "uint64[]"
        },
        {
          "internalType": "uint256",
          "name": "ssvAmount",
          "type": "uint256"
        },
        {
          "components": [
            {
              "internalType": "uint32",
              "name": "validatorCount",
              "type": "uint32"
            },
            {
              "internalType": "uint64",
              "name": "networkFeeIndex",
              "type": "uint64"
            },
            {
              "internalType": "uint64",
              "name": "index",
              "type": "uint64"
            },
            {
              "internalType": "bool",
              "name": "active",
              "type": "bool"
            },
            {
              "internalType": "uint256",
              "name": "balance",
              "type": "uint256"
            }
          ],
          "internalType": "struct Cluster",
          "name": "cluster",
          "type": "tuple"
        }
      ],
      "name": "withdrawSSV",
      "outputs": [],
      "stateMutability": "nonpayable",
      "type": "function"
    },
    {
      "stateMutability": "payable",
      "type": "receive"
    }
  ],
  "transactionHash": "0x18606cdda0a304098bcbe7289bcd72b727a34ee5c6f7004e7ce0153c559d0e24",
  "args": [
    [
      "0x0000000000000000000000000000000000000000",
      "0xD0cC28bc8F4666286F3211e465ecF1fe5c72AC8B"
    ],
    "0x2387fD72C1DA19f6486B843F5da562679FbB4057",
    "0x9F5d4Ec84fC4785788aB44F9de973cF34F7A038e",
    "0x58410Bef803ECd7E63B23664C586A6DB72DAf59c",
    "0x00000000219ab540356cBB839Cbe05303d7705Fa",
    "0x7F3f8fD57c794e5AE83DADa5c1D9cE185c7bB33D",
    1742213400
  ],
  "numDeployments": 16,
  "solcInputHash": "63d9212a45af1e87875339eef226f4c8",
  "bytecode": "0x6101a060405234801561001157600080fd5b506040516163ad3803806163ad833981016040819052610030916101a2565b60208701516001600160a01b0380881660805280851660a05280861660c05280821660e0528316610100526001600160401b03821661012081905288918891869088908790879042116100c95760405162461bcd60e51b815260206004820152601960248201527f496e76616c69642067656e657369732074696d657374616d7000000000000000604482015260640160405180910390fd5b505084516001600160a01b0390811661014052602090950151851661016052505050508516610180526100fc6000610108565b5050505050505061027f565b6001600160a01b03811661012860008051602061638d8339815191525490565b6001600160a01b03167fc7c0c772add429241571afb3805861fb3cfa2af374534088b76cdb4325a87e9a60405160405180910390a360008051602061638d83398151915255565b80516001600160a01b038116811461018657600080fd5b919050565b80516001600160401b038116811461018657600080fd5b60008060008060008060008789036101008112156101bf57600080fd5b60408112156101cd57600080fd5b50604080519081016001600160401b03811182821017156101fe57634e487b7160e01b600052604160045260246000fd5b60405261020a8961016f565b815261021860208a0161016f565b6020820152965061022b6040890161016f565b95506102396060890161016f565b94506102476080890161016f565b935061025560a0890161016f565b925061026360c0890161016f565b915061027160e0890161018b565b905092959891949750929550565b60805160a05160c05160e0516101005161012051610140516101605161018051615fa26103eb600039600081816103c6015261366801526000818161056501528181611f550152818161290a01528181612a8201528181613ab50152613b9901526000610b9901526000818161086501528181611d10015281816132c10152613d8d01526000818161075401528181610e9b01528181610f62015281816110270152818161142d01528181612d5c01528181612e00015281816130320152613187015260006107e20152600081816108310152818161280801528181613638015281816137130152613899015260008181610afa0152611c3a01526000818161095c015281816109b30152818161130e015281816118ac01528181611fca0152818161241001528181612474015281816129f801528181613b2a01528181613c2401528181613ccf015281816140c90152818161462b015281816149ed0152614afd0152615fa26000f3fe6080604052600436106103545760003560e01c8063853828b6116101c6578063b02c43d0116100f7578063d059f6ef11610095578063d9caed121161006f578063d9caed1214610b67578063dbe55e5614610b87578063de5f626814610bbb578063f6ca71b014610bd057600080fd5b8063d059f6ef14610b1c578063d38bfff414610b32578063d79e403214610b5257600080fd5b8063bb1b918d116100d1578063bb1b918d14610a93578063c2e1e3f414610ab3578063c7af335214610ad3578063cceab75014610ae857600080fd5b8063b02c43d0146109d5578063b6e2b52014610a53578063b8ec667814610a7357600080fd5b806396d538bb11610164578063a5f5be541161013e578063a5f5be5414610915578063aa388af61461093f578063ad1728cb1461098c578063ad5c4648146109a157600080fd5b806396d538bb1461088757806398245f1b146108a7578063a0a990aa146108f557600080fd5b80639092c31c116101a05780639092c31c146107d05780639136616a14610804578063916497511461081f578063969987321461085357600080fd5b8063853828b61461077657806387bae8671461078b5780638bd87652146107ab57600080fd5b806347e7ef24116102a05780635f5152261161023e5780636e811d38116102185780636e811d38146106e257806371a735f3146107025780637b2d9b2c146107225780637da9982a1461074257600080fd5b80635f5152261461068d57806367c7066c146106ad5780636874469d146106cd57600080fd5b8063522e42451161027a578063522e42451461061157806359ff4158146106245780635a063f63146106635780635d36b1901461067857600080fd5b806347e7ef24146105c75780634896b31a146105e75780634c84e6f8146105fc57600080fd5b80631072cbea1161030d57806321e1bef9116102e757806321e1bef9146104e4578063430bf08a14610553578063435356d1146105875780634583ef10146105a757600080fd5b80631072cbea1461046c57806312b92fa81461048c578063149cf47f146104c457600080fd5b8063046dbb7a146103605780630c340a24146103825780630df1ecfd146103b45780630ed57b3a146103e85780630ef99855146104085780630fc3b4c41461043657600080fd5b3661035b57005b600080fd5b34801561036c57600080fd5b5061038061037b366004614d58565b610bf2565b005b34801561038e57600080fd5b50610397611263565b6040516001600160a01b0390911681526020015b60405180910390f35b3480156103c057600080fd5b506103977f000000000000000000000000000000000000000000000000000000000000000081565b3480156103f457600080fd5b50610380610403366004614e08565b611280565b34801561041457600080fd5b50610428610423366004614e3b565b6112bf565b6040519081526020016103ab565b34801561044257600080fd5b50610397610451366004614e54565b6070602052600090815260409020546001600160a01b031681565b34801561047857600080fd5b50610380610487366004614e6f565b6112e0565b34801561049857600080fd5b506039546104ac906001600160401b031681565b6040516001600160401b0390911681526020016103ab565b3480156104d057600080fd5b506103806104df366004614ee1565b61139f565b3480156104f057600080fd5b5061052c6104ff366004614e3b565b6038602052600090815260409020546001600160401b03811690600160401b90046001600160801b031682565b604080516001600160401b0390931683526001600160801b039091166020830152016103ab565b34801561055f57600080fd5b506103977f000000000000000000000000000000000000000000000000000000000000000081565b34801561059357600080fd5b506103806105a236600461503c565b611764565b3480156105b357600080fd5b506103806105c23660046150cd565b611851565b3480156105d357600080fd5b506103806105e2366004614e6f565b611f4a565b3480156105f357600080fd5b50603554610428565b34801561060857600080fd5b506103806120c7565b61038061061f366004615116565b612165565b34801561063057600080fd5b5060395461064b90600160401b90046001600160801b031681565b6040516001600160801b0390911681526020016103ab565b34801561066f57600080fd5b506103806122c7565b34801561068457600080fd5b50610380612366565b34801561069957600080fd5b506104286106a8366004614e54565b61240c565b3480156106b957600080fd5b50607454610397906001600160a01b031681565b3480156106d957600080fd5b5061038061250a565b3480156106ee57600080fd5b506103806106fd366004614e54565b61266a565b34801561070e57600080fd5b5061038061071d3660046151bf565b6126d8565b34801561072e57600080fd5b5061039761073d366004614e3b565b6128d5565b34801561074e57600080fd5b506103977f000000000000000000000000000000000000000000000000000000000000000081565b34801561078257600080fd5b506103806128ff565b34801561079757600080fd5b50603354610397906001600160a01b031681565b3480156107b757600080fd5b50603b5461064b9061010090046001600160801b031681565b3480156107dc57600080fd5b506103977f000000000000000000000000000000000000000000000000000000000000000081565b34801561081057600080fd5b50610380610403366004614e3b565b34801561082b57600080fd5b506103977f000000000000000000000000000000000000000000000000000000000000000081565b34801561085f57600080fd5b506104ac7f000000000000000000000000000000000000000000000000000000000000000081565b34801561089357600080fd5b506103806108a2366004615244565b612ab2565b3480156108b357600080fd5b506108e76108c2366004614e3b565b60376020526000908152604090205460ff81169061010090046001600160401b031682565b6040516103ab92919061529b565b34801561090157600080fd5b506103806109103660046152c7565b612bc9565b34801561092157600080fd5b50603b5461092f9060ff1681565b60405190151581526020016103ab565b34801561094b57600080fd5b5061092f61095a366004614e54565b7f00000000000000000000000000000000000000000000000000000000000000006001600160a01b0390811691161490565b34801561099857600080fd5b50610380613621565b3480156109ad57600080fd5b506103977f000000000000000000000000000000000000000000000000000000000000000081565b3480156109e157600080fd5b50610a416109f0366004614e3b565b603460205260009081526040902080546001909101546001600160401b0380821691600160401b810482169163ffffffff600160801b8304169160ff600160a01b82041691600160a81b9091041686565b6040516103ab9695949392919061534d565b348015610a5f57600080fd5b50610380610a6e366004615454565b6136d8565b348015610a7f57600080fd5b50610428610a8e366004614e3b565b613783565b348015610a9f57600080fd5b50610380610aae366004615502565b613793565b348015610abf57600080fd5b50610380610ace366004614e54565b613948565b348015610adf57600080fd5b5061092f6139d5565b348015610af457600080fd5b506103977f000000000000000000000000000000000000000000000000000000000000000081565b348015610b2857600080fd5b50610428603a5481565b348015610b3e57600080fd5b50610380610b4d366004614e54565b613a06565b348015610b5e57600080fd5b50603654610428565b348015610b7357600080fd5b50610380610b823660046155c0565b613aaa565b348015610b9357600080fd5b506103977f000000000000000000000000000000000000000000000000000000000000000081565b348015610bc757600080fd5b50610380613b8e565b348015610bdc57600080fd5b50610be5613d25565b6040516103ab91906155fd565b6000858152603460209081526040808320815160c0810183528154815260018201546001600160401b0380821695830195909552600160401b810490941692810192909252600160801b830463ffffffff16606083015290916080830190600160a01b900460ff166002811115610c6b57610c6b615285565b6002811115610c7c57610c7c615285565b815260019190910154600160a81b90046001600160401b03166020918201528151600090815260379091526040808220815180830190925280549394509192909190829060ff166007811115610cd457610cd4615285565b6007811115610ce557610ce5615285565b8152905461010090046001600160401b03166020909101529050600182608001516002811115610d1757610d17615285565b14610d5f5760405162461bcd60e51b81526020600482015260136024820152724465706f736974206e6f742070656e64696e6760681b60448201526064015b60405180910390fd5b600381516007811115610d7457610d74615285565b14610dba5760405162461bcd60e51b815260206004820152601660248201527515985b1a59185d1bdc881b9bdd081d995c9a599a595960521b6044820152606401610d56565b856001600160401b031682604001516001600160401b031610610e185760405162461bcd60e51b815260206004820152601660248201527514db1bdd081b9bdd0818599d195c8819195c1bdcda5d60521b6044820152606401610d56565b846001600160401b0316866001600160401b03161115610e7a5760405162461bcd60e51b815260206004820152601a60248201527f496e76616c696420766572696669636174696f6e20736c6f74730000000000006044820152606401610d56565b6000610e8d610e8888613d87565b613dca565b905060006001600160a01b037f000000000000000000000000000000000000000000000000000000000000000016637383a9fc83610ece60208a018a615649565b60408a0135610ee060608c018c615664565b6040518663ffffffff1660e01b8152600401610f009594939291906156d3565b602060405180830381865afa158015610f1d573d6000803e3d6000fd5b505050506040513d601f19601f82011682018060405250810190610f419190615702565b905080611017576000610f56610e8889613d87565b90506001600160a01b037f000000000000000000000000000000000000000000000000000000000000000016630330aa1a82610f9860408b0160208c01615649565b60408b01356001600160401b03610fb260808e018e615664565b8e8060a00190610fc29190615664565b6040518963ffffffff1660e01b8152600401610fe598979695949392919061571f565b60006040518083038186803b158015610ffd57600080fd5b505afa158015611011573d6000803e3d6000fd5b50505050505b6020808401516001600160a01b037f0000000000000000000000000000000000000000000000000000000000000000169163aaf8eb0d91859161105c908a018a615649565b61106960208b018b615664565b6040518663ffffffff1660e01b815260040161108995949392919061577f565b60006040518083038186803b1580156110a157600080fd5b505afa1580156110b5573d6000803e3d6000fd5b506001600160401b0392506110d09150506020870187615649565b6001600160401b031614611183576110eb6020860186615649565b6001600160401b0390811660a086015260208501518a917fbc3fdc080055a5d0342452fd2f970db3142457507168345b18a9621e5510dafa916111339116633b9aca006157cd565b6111406020890189615649565b604080519283526001600160401b0390911660208301520160405180910390a2505090516000908152603760205260409020805460ff191660041790555061125c565b6111906020870187615649565b6001600160401b031684604001516001600160401b031610806111b05750805b6111fc5760405162461bcd60e51b815260206004820152601c60248201527f4465706f736974206c696b656c79206e6f742070726f636573736564000000006044820152606401610d56565b6112068985613ecf565b887fcc6c22fbaf9f36d51193b29b3114d27c22dee0b6616975e3a1e0cf67022633ae85602001516001600160401b0316633b9aca0061124591906157cd565b6040519081526020015b60405180910390a2505050505b5050505050565b600061127b600080516020615f4d8339815191525490565b905090565b60405162461bcd60e51b81526020600482015260146024820152732ab739bab83837b93a32b210333ab731ba34b7b760611b6044820152606401610d56565b603681815481106112cf57600080fd5b600091825260209091200154905081565b6112e86139d5565b6113045760405162461bcd60e51b8152600401610d56906157e4565b6001600160a01b037f000000000000000000000000000000000000000000000000000000000000000081169083160361137f5760405162461bcd60e51b815260206004820152601f60248201527f43616e6e6f74207472616e7366657220737570706f72746564206173736574006044820152606401610d56565b61139b61138a611263565b6001600160a01b0384169083613fb0565b5050565b600260008581526037602052604090205460ff1660078111156113c4576113c4615285565b146114085760405162461bcd60e51b815260206004820152601460248201527315985b1a59185d1bdc881b9bdd081cdd185ad95960621b6044820152606401610d56565b600061141387613dca565b604051633ba61c4760e01b81529091506001600160a01b037f00000000000000000000000000000000000000000000000000000000000000001690633ba61c479061146c9084908990889088908d908c9060040161581b565b60006040518083038186803b15801561148457600080fd5b505afa158015611498573d6000803e3d6000fd5b505050506001600160a01b0384163014611678576040805180820190915280600781526001600160401b038816602091820152600087815260379091526040902081518154829060ff191660018360078111156114f7576114f7615285565b02179055506020919091015181546001600160401b039091166101000268ffffffffffffffff001990911617905560355460005b81811015611645576000603460006035848154811061154c5761154c615867565b600091825260208083209091015483528281019390935260409182019020815160c0810183528154815260018201546001600160401b0380821695830195909552600160401b81049094169281019290925263ffffffff600160801b84041660608301529091608083019060ff600160a01b9091041660028111156115d3576115d3615285565b60028111156115e4576115e4615285565b815260019190910154600160a81b90046001600160401b0316602090910152805190915088900361163c576116366035838154811061162557611625615867565b906000526020600020015482613ecf565b50611645565b5060010161152b565b5060405186907fb8318df57b70f6381fb18aaf762e33efa2cc92627aae83d417f6710e1415d8d890600090a2505061175c565b6040805180820190915280600381526001600160401b038816602091820152600087815260379091526040902081518154829060ff191660018360078111156116c3576116c3615285565b021790555060209190910151815468ffffffffffffffff0019166101006001600160401b0392831602179091556036805460018101825560009182527f4a11f94e20a93c79f6ec743a1954ec4fc2c08429ae2122118bf234b2185c81b801879055603b805460ff191690556040519188169187917f076b8e8f0bebfc854ee5a55b3d61fe1a3d3e701fb05524880aefc460437bf8ec91a3505b505050505050565b61176c6139d5565b6117885760405162461bcd60e51b8152600401610d56906157e4565b600054610100900460ff16806117a1575060005460ff16155b6118045760405162461bcd60e51b815260206004820152602e60248201527f496e697469616c697a61626c653a20636f6e747261637420697320616c72656160448201526d191e481a5b9a5d1a585b1a5e995960921b6064820152608401610d56565b600054610100900460ff16158015611826576000805461ffff19166101011790555b611831848484614007565b611839613621565b801561184b576000805461ff00191690555b50505050565b6033546001600160a01b0316331461187b5760405162461bcd60e51b8152600401610d569061587d565b60006118946001600160401b038316633b9aca006157cd565b6040516370a0823160e01b81523060048201529091507f00000000000000000000000000000000000000000000000000000000000000006001600160a01b0316906370a0823190602401602060405180830381865afa1580156118fb573d6000803e3d6000fd5b505050506040513d601f19601f8201168201806040525081019061191f91906158a6565b8111156119625760405162461bcd60e51b8152602060048201526011602482015270092dce6eaccccd2c6d2cadce840ae8aa89607b1b6044820152606401610d56565b603554600c116119a35760405162461bcd60e51b815260206004820152600c60248201526b4d6178206465706f7369747360a01b6044820152606401610d56565b6119ac816140b3565b60006119f56119bb8580615664565b8080601f0160208091040260200160405190810160405280939291908181526020018383808284376000920191909152506141b892505050565b60008181526037602052604090205490915060ff166001816007811115611a1e57611a1e615285565b1480611a3b57506003816007811115611a3957611a39615285565b145b611a875760405162461bcd60e51b815260206004820152601a60248201527f4e6f742072656769737465726564206f722076657269666965640000000000006044820152606401610d56565b670de0b6b3a7640000831015611ad35760405162461bcd60e51b815260206004820152601160248201527011195c1bdcda5d081d1bdbc81cdb585b1b607a1b6044820152606401610d56565b6001816007811115611ae757611ae7615285565b03611bed57603b5460ff1615611b385760405162461bcd60e51b8152602060048201526016602482015275115e1a5cdd1a5b99c8199a5c9cdd0819195c1bdcda5d60521b6044820152606401610d56565b6801bc16d674ec8000008314611b905760405162461bcd60e51b815260206004820152601c60248201527f496e76616c6964206669727374206465706f73697420616d6f756e74000000006044820152606401610d56565b603654603090611ba19060016158bf565b10611bdf5760405162461bcd60e51b815260206004820152600e60248201526d4d61782076616c696461746f727360901b6044820152606401610d56565b603b805460ff191660011790555b60408051600160f91b60208201526000602182018190526bffffffffffffffffffffffff193060601b16602c830152910160408051601f1981840301815291905290506001600160a01b037f000000000000000000000000000000000000000000000000000000000000000016632289511885611c6a8980615664565b85611c7860208d018d615664565b8d604001356040518863ffffffff1660e01b8152600401611c9e96959493929190615922565b6000604051808303818588803b158015611cb757600080fd5b505af1158015611ccb573d6000803e3d6000fd5b5060019350611cd992505050565b826007811115611ceb57611ceb615285565b03611d0a576000838152603760205260409020805460ff191660021790555b6000600c7f0000000000000000000000000000000000000000000000000000000000000000611d384261427c565b611d429190615971565b611d4c9190615990565b603b805491925060009161010090046001600160801b0316906001611d70836159cc565b91906101000a8154816001600160801b0302191690836001600160801b031602179055506001600160801b031690506040518060c00160405280868152602001886001600160401b03168152602001836001600160401b03168152602001611ddc6035805490506142e8565b63ffffffff168152602001600181526001600160401b036020918201819052600084815260348352604090819020845181559284015160018401805492860151606087015163ffffffff16600160801b0263ffffffff60801b19918616600160401b026001600160801b03199095169390951692909217929092179081168317825560808501519260ff60a01b191664ffffffffff60801b1990911617600160a01b836002811115611e9057611e90615285565b021790555060a09190910151600191820180546001600160401b03909216600160a81b0267ffffffffffffffff60a81b199092169190911790556035805491820181556000527fcfa4bec1d3298408bb5afcfcd9c430549c5b31f8aa5c5848151c0a55f473c34d0181905580857fe6b13456d345a251702a9dab19a68b9e3550781d95fa9faf104a06ff8bc30495611f288b80615664565b8a604051611f38939291906159f7565b60405180910390a35050505050505050565b336001600160a01b037f00000000000000000000000000000000000000000000000000000000000000001614611f925760405162461bcd60e51b8152600401610d5690615a1b565b600080516020615f2d83398151915280546001198101611fc45760405162461bcd60e51b8152600401610d5690615a52565b600282557f00000000000000000000000000000000000000000000000000000000000000006001600160a01b0316846001600160a01b0316146120195760405162461bcd60e51b8152600401610d5690615a7a565b600083116120625760405162461bcd60e51b81526020600482015260166024820152754d757374206465706f73697420736f6d657468696e6760501b6044820152606401610d56565b82603a600082825461207491906158bf565b90915550506040805160008152602081018590526001600160a01b038616917f5548c837ab068cf56a2c2479df0882a4922fd203edb7517321831d95078c5f62910160405180910390a250600190555050565b6120cf6139d5565b6120eb5760405162461bcd60e51b8152600401610d56906157e4565b603b5460ff166121305760405162461bcd60e51b815260206004820152601060248201526f139bc8199a5c9cdd0819195c1bdcda5d60821b6044820152606401610d56565b603b805460ff191690556040517fce77f85e30b0e6df0d12527ddf038f900fdeda0eeda4284c52be47b05de31a9790600090a1565b6033546001600160a01b0316331461218f5760405162461bcd60e51b8152600401610d569061587d565b60006121d084848080601f0160208091040260200160405190810160405280939291908181526020018383808284376000920191909152506141b892505050565b60008181526037602052604090205490915060ff1660038160078111156121f9576121f9615285565b1461223f5760405162461bcd60e51b815260206004820152601660248201527515985b1a59185d1bdc881b9bdd081d995c9a599a595960521b6044820152606401610d56565b61224a85858561434d565b50826001600160401b0316600003612276576000828152603760205260409020805460ff191660041790555b817f8dd83105dbd4263d41c76e5d414905babdd3f035bd2031f6ce8895715595979c6122af6001600160401b038616633b9aca006157cd565b60405190815260200160405180910390a25050505050565b6074546001600160a01b031633146123215760405162461bcd60e51b815260206004820152601b60248201527f43616c6c6572206973206e6f74207468652048617276657374657200000000006044820152606401610d56565b600080516020615f2d833981519152805460011981016123535760405162461bcd60e51b8152600401610d5690615a52565b6002825561235f611280565b5060019055565b7f44c4d30b2eaad5130ad70c3ba6972730566f3e6359ab83e800d905c61b1c51db546001600160a01b0316336001600160a01b0316146124015760405162461bcd60e51b815260206004820152603060248201527f4f6e6c79207468652070656e64696e6720476f7665726e6f722063616e20636f60448201526f6d706c6574652074686520636c61696d60801b6064820152608401610d56565b61240a33614492565b565b60007f00000000000000000000000000000000000000000000000000000000000000006001600160a01b0316826001600160a01b03161461245f5760405162461bcd60e51b8152600401610d5690615a7a565b6040516370a0823160e01b81523060048201527f00000000000000000000000000000000000000000000000000000000000000006001600160a01b0316906370a0823190602401602060405180830381865afa1580156124c3573d6000803e3d6000fd5b505050506040513d601f19601f820116820180604052508101906124e791906158a6565b6039546125049190600160401b90046001600160801b03166158bf565b92915050565b60006125154261427c565b90506001600160401b03811661252d600c6020615aa5565b60395461254391906001600160401b0316615ace565b6001600160401b0316106125895760405162461bcd60e51b815260206004820152600d60248201526c29b730b8103a37b79039b7b7b760991b6044820152606401610d56565b600061259482613dca565b905060004790506040518060400160405280846001600160401b031681526020016125be836144f1565b6001600160801b03908116909152600084815260386020908152604091829020845181549590920151909316600160401b026001600160c01b03199094166001600160401b0391821617939093179091556039805492861667ffffffffffffffff1993909316929092179091555182907fb7523e03ed4a74718427c422a01fee1138835adb5bd592240f30bd8b5e1b929a9061265d9084815260200190565b60405180910390a2505050565b6126726139d5565b61268e5760405162461bcd60e51b8152600401610d56906157e4565b603380546001600160a01b0319166001600160a01b0383169081179091556040517f83f29c79feb71f8fba9d0fbc4ba5f0982a28b6b1e868b3fc50e6400d100bca0f90600090a250565b6033546001600160a01b031633146127025760405162461bcd60e51b8152600401610d569061587d565b600061274386868080601f0160208091040260200160405190810160405280939291908181526020018383808284376000920191909152506141b892505050565b60008181526037602052604090205490915060ff16600181600781111561276c5761276c615285565b14806127895750600581600781111561278757612787615285565b145b806127a5575060078160078111156127a3576127a3615285565b145b6127f15760405162461bcd60e51b815260206004820152601c60248201527f56616c696461746f72206e6f742072656764206f7220657869746564000000006044820152606401610d56565b6040516312b3fc1960e01b81526001600160a01b037f000000000000000000000000000000000000000000000000000000000000000016906312b3fc1990612845908a908a908a908a908a90600401615b9a565b600060405180830381600087803b15801561285f57600080fd5b505af1158015612873573d6000803e3d6000fd5b50505060008381526037602052604090819020805460ff19166006179055518391507f63d54ea43f163d6e28fc23abec67eb7c3294e7e6f0620955a73cd8d17c7367f4906128c49088908890615bdb565b60405180910390a250505050505050565b607581815481106128e557600080fd5b6000918252602090912001546001600160a01b0316905081565b336001600160a01b037f000000000000000000000000000000000000000000000000000000000000000016148061294e5750612939611263565b6001600160a01b0316336001600160a01b0316145b6129a65760405162461bcd60e51b815260206004820152602360248201527f43616c6c6572206973206e6f7420746865205661756c74206f7220476f7665726044820152623737b960e91b6064820152608401610d56565b600080516020615f2d833981519152805460011981016129d85760405162461bcd60e51b8152600401610d5690615a52565b600282556040516370a0823160e01b8152306004820152479060009082907f00000000000000000000000000000000000000000000000000000000000000006001600160a01b0316906370a0823190602401602060405180830381865afa158015612a47573d6000803e3d6000fd5b505050506040513d601f19601f82011682018060405250810190612a6b91906158a6565b612a7591906158bf565b90508015612aa857612aa87f0000000000000000000000000000000000000000000000000000000000000000828461455a565b5050600182555050565b612aba6139d5565b612ad65760405162461bcd60e51b8152600401610d56906157e4565b8060005b81811015612b80576000848483818110612af657612af6615867565b9050602002016020810190612b0b9190614e54565b6001600160a01b031603612b785760405162461bcd60e51b815260206004820152602e60248201527f43616e206e6f742073657420616e20656d70747920616464726573732061732060448201526d30903932bbb0b932103a37b5b2b760911b6064820152608401610d56565b600101612ada565b507f04c0b9649497d316554306e53678d5f5f5dbc3a06f97dec13ff4cfe98b986bbc60758484604051612bb593929190615bef565b60405180910390a161184b60758484614c5b565b6000848152603860209081526040918290208251808401909352546001600160401b038082168452600160401b9091046001600160801b03169183019190915260395416612c4f5760405162461bcd60e51b81526020600482015260136024820152724e6f20736e61707065642062616c616e63657360681b6044820152606401610d56565b60395481516001600160401b03908116911614612c9b5760405162461bcd60e51b815260206004820152600a60248201526905374616c6520736e61760b41b6044820152606401610d56565b6036546000811561301b5781612cb46060860186615c88565b905014612cfc5760405162461bcd60e51b8152602060048201526016602482015275496e76616c69642062616c616e63652070726f6f667360501b6044820152606401610d56565b81612d0a6040860186615c88565b905014612d525760405162461bcd60e51b8152602060048201526016602482015275496e76616c69642062616c616e6365206c656176657360501b6044820152606401610d56565b6001600160a01b037f0000000000000000000000000000000000000000000000000000000000000000166391ad640d888635612d916020890189615664565b6040518563ffffffff1660e01b8152600401612db09493929190615cd1565b60006040518083038186803b158015612dc857600080fd5b505afa158015612ddc573d6000803e3d6000fd5b5084925050505b801561301957612df281615cf1565b905060006001600160a01b037f0000000000000000000000000000000000000000000000000000000000000000166342bd31da8735612e3460408a018a615c88565b86818110612e4457612e44615867565b90506020020135898060600190612e5b9190615c88565b87818110612e6b57612e6b615867565b9050602002810190612e7d9190615664565b6037600060368a81548110612e9457612e94615867565b9060005260206000200154815260200190815260200160002060000160019054906101000a90046001600160401b03166040518663ffffffff1660e01b8152600401612ee4959493929190615d08565b602060405180830381865afa158015612f01573d6000803e3d6000fd5b505050506040513d601f19601f82011682018060405250810190612f2591906158a6565b905080600003612ff95760056037600060368581548110612f4857612f48615867565b600091825260208083209091015483528201929092526040019020805460ff19166001836007811115612f7d57612f7d615285565b0217905550612f8d600185615d43565b935060368481548110612fa257612fa2615867565b906000526020600020015460368381548110612fc057612fc0615867565b6000918252602090912001556036805480612fdd57612fdd615d56565b6001900381819060005260206000200160009055905550612de3565b61300781633b9aca006157cd565b61301190846158bf565b925050612de3565b505b603554600081156135775760006001600160a01b037f000000000000000000000000000000000000000000000000000000000000000016637383a9fc8b61306560208c018c615649565b60408c013561307760608e018e615664565b6040518663ffffffff1660e01b81526004016130979594939291906156d3565b602060405180830381865afa1580156130b4573d6000803e3d6000fd5b505050506040513d601f19601f820116820180604052508101906130d89190615702565b905080156131285760405162461bcd60e51b815260206004820152601c60248201527f4465706f736974732068617665206265656e2070726f636573736564000000006044820152606401610d56565b85516001600160401b03808b16911611156131855760405162461bcd60e51b815260206004820152601b60248201527f496e76616c69642076616c696461746f722074696d657374616d7000000000006044820152606401610d56565b7f00000000000000000000000000000000000000000000000000000000000000006001600160a01b0316630330aa1a6131bd8b613dca565b6131cd60408c0160208d01615649565b60408c01356001600160401b036131e760808f018f615664565b8f8060a001906131f79190615664565b6040518963ffffffff1660e01b815260040161321a98979695949392919061571f565b60006040518083038186803b15801561323257600080fd5b505afa158015613246573d6000803e3d6000fd5b506000925061325b91505060208a018a615649565b6001600160401b0316116132b15760405162461bcd60e51b815260206004820152601d60248201527f496e76616c69642066697273742070656e64696e67206465706f7369740000006044820152606401610d56565b60006132bf6020600c615aa5565b7f00000000000000000000000000000000000000000000000000000000000000006132f689600001516001600160401b031661427c565b6133009190615971565b61330a9190615990565b905060005b848110156135735760006035828154811061332c5761332c615867565b6000918252602080832090910154808352603482526040808420815160c0810183528154815260018201546001600160401b0380821696830196909652600160401b81049095169281019290925263ffffffff600160801b850416606083015291945091608083019060ff600160a01b9091041660028111156133b1576133b1615285565b60028111156133c2576133c2615285565b8152600191909101546001600160401b03600160a81b9091048116602092830152604083015192935091909116906133fc908e018e615649565b6001600160401b0316108061343f57508060a001516001600160401b0316846001600160401b031610801561343f575060a08101516001600160401b0390811614155b8061346e57506005815160009081526037602052604090205460ff16600781111561346c5761346c615285565b145b6134ba5760405162461bcd60e51b815260206004820152601860248201527f4465706f736974206c696b656c792070726f63657373656400000000000000006044820152606401610d56565b60208101516134d6906001600160401b0316633b9aca006157cd565b6134e090876158bf565b95506005815160009081526037602052604090205460ff16600781111561350957613509615285565b03613569576135188282613ecf565b817fd37dfd28ce3c6abccf25dc583376c1fe84be5abe9cd4b8dc94904b25d62a784582602001516001600160401b0316633b9aca0061355791906157cd565b60405190815260200160405180910390a25b505060010161330f565b5050505b60208501516135a2906001600160801b031661359385846158bf565b61359d91906158bf565b6144f1565b603980546001600160c01b031916600160401b6001600160801b039384160267ffffffffffffffff19161790558551602080880151604080518681529283018890529316928101929092526001600160401b0316907fed2528338eefb63fd1860078b91e35106bc25e3fd528634d180f662582fe5ec19060600161124f565b60405163095ea7b360e01b81526001600160a01b037f00000000000000000000000000000000000000000000000000000000000000008116600483015260001960248301527f0000000000000000000000000000000000000000000000000000000000000000169063095ea7b3906044016020604051808303816000875af11580156136b1573d6000803e3d6000fd5b505050506040513d601f19601f820116820180604052508101906136d59190615702565b50565b6136e06139d5565b6136fc5760405162461bcd60e51b8152600401610d56906157e4565b604051631a1b9a0b60e21b81526001600160a01b037f0000000000000000000000000000000000000000000000000000000000000000169063686e682c9061374c90869086908690600401615d6c565b600060405180830381600087803b15801561376657600080fd5b505af115801561377a573d6000803e3d6000fd5b50505050505050565b603581815481106112cf57600080fd5b6033546001600160a01b031633146137bd5760405162461bcd60e51b8152600401610d569061587d565b60006137fe89898080601f0160208091040260200160405190810160405280939291908181526020018383808284376000920191909152506141b892505050565b90506000808281526037602052604090205460ff16600781111561382457613824615285565b146138715760405162461bcd60e51b815260206004820152601c60248201527f56616c696461746f7220616c72656164792072656769737465726564000000006044820152606401610d56565b60008181526037602052604090819020805460ff19166001179055516301ba3ee760e21b81527f00000000000000000000000000000000000000000000000000000000000000006001600160a01b0316906306e8fb9c906138e4908c908c908c908c908c908c908c908c90600401615e0e565b600060405180830381600087803b1580156138fe57600080fd5b505af1158015613912573d6000803e3d6000fd5b50505050807f50837f89f5e75ae0a7bcc858f53ea15fa398dc007fd52cbfe4683ae9a6c2d722888860405161124f929190615bdb565b6139506139d5565b61396c5760405162461bcd60e51b8152600401610d56906157e4565b607454604080516001600160a01b03928316815291831660208301527fe48386b84419f4d36e0f96c10cc3510b6fb1a33795620c5098b22472bbe90796910160405180910390a1607480546001600160a01b0319166001600160a01b0392909216919091179055565b60006139ed600080516020615f4d8339815191525490565b6001600160a01b0316336001600160a01b031614905090565b613a0e6139d5565b613a2a5760405162461bcd60e51b8152600401610d56906157e4565b613a52817f44c4d30b2eaad5130ad70c3ba6972730566f3e6359ab83e800d905c61b1c51db55565b806001600160a01b0316613a72600080516020615f4d8339815191525490565b6001600160a01b03167fa39cc5eb22d0f34d8beaefee8a3f17cc229c1a1d1ef87a5ad47313487b1c4f0d60405160405180910390a350565b336001600160a01b037f00000000000000000000000000000000000000000000000000000000000000001614613af25760405162461bcd60e51b8152600401610d5690615a1b565b600080516020615f2d83398151915280546001198101613b245760405162461bcd60e51b8152600401610d5690615a52565b600282557f00000000000000000000000000000000000000000000000000000000000000006001600160a01b0316846001600160a01b031614613b795760405162461bcd60e51b8152600401610d5690615a7a565b613b8485844761455a565b5060019055505050565b336001600160a01b037f00000000000000000000000000000000000000000000000000000000000000001614613bd65760405162461bcd60e51b8152600401610d5690615a1b565b600080516020615f2d83398151915280546001198101613c085760405162461bcd60e51b8152600401610d5690615a52565b600282556040516370a0823160e01b81523060048201526000907f00000000000000000000000000000000000000000000000000000000000000006001600160a01b0316906370a0823190602401602060405180830381865afa158015613c73573d6000803e3d6000fd5b505050506040513d601f19601f82011682018060405250810190613c9791906158a6565b90506000603a5482613ca99190615d43565b90508015612aa857603a8290556040805160008152602081018390526001600160a01b037f000000000000000000000000000000000000000000000000000000000000000016917f5548c837ab068cf56a2c2479df0882a4922fd203edb7517321831d95078c5f62910160405180910390a25050600182555050565b60606075805480602002602001604051908101604052809291908181526020018280548015613d7d57602002820191906000526020600020905b81546001600160a01b03168152600190910190602001808311613d5f575b5050505050905090565b6000600c7f0000000000000000000000000000000000000000000000000000000000000000613db68483615aa5565b613dc09190615ace565b6125049190615ace565b604080516001600160401b038316602082015260009182918291720f3df6d732807ef1319fb7b8bb8522d0beac02910160408051601f1981840301815290829052613e1491615e6f565b600060405180830381855afa9150503d8060008114613e4f576040519150601f19603f3d011682016040523d82523d6000602084013e613e54565b606091505b5091509150818015613e67575060008151115b613eb35760405162461bcd60e51b815260206004820152601860248201527f496e76616c696420626561636f6e2074696d657374616d7000000000000000006044820152606401610d56565b80806020019051810190613ec791906158a6565b949350505050565b60008281526034602052604081206001908101805460ff60a01b1916600160a11b179055603580549091613f0291615d43565b81548110613f1257613f12615867565b90600052602060002001549050806035836060015163ffffffff1681548110613f3d57613f3d615867565b60009182526020808320909101929092556060840151838252603490925260409020600101805463ffffffff909216600160801b0263ffffffff60801b199092169190911790556035805480613f9557613f95615d56565b60019003818190600052602060002001600090559055505050565b604080516001600160a01b038416602482015260448082018490528251808303909101815260649091019091526020810180516001600160e01b031663a9059cbb60e01b179052614002908490614674565b505050565b825161401a906075906020860190614cba565b508151815181146140645760405162461bcd60e51b8152602060048201526014602482015273496e76616c696420696e7075742061727261797360601b6044820152606401610d56565b60005b8181101561125c576140ab84828151811061408457614084615867565b602002602001015184838151811061409e5761409e615867565b6020026020010151614746565b600101614067565b604051632e1a7d4d60e01b8152600481018290527f00000000000000000000000000000000000000000000000000000000000000006001600160a01b031690632e1a7d4d90602401600060405180830381600087803b15801561411557600080fd5b505af1158015614129573d6000803e3d6000fd5b50505050600061413b82603a546148a5565b905080603a600082825461414f9190615d43565b9091555061415e9050826144f1565b60398054600890614180908490600160401b90046001600160801b0316615e8b565b82546001600160801b039182166101009390930a928302919092021990911617905550506039805467ffffffffffffffff1916905550565b6000815160301461420b5760405162461bcd60e51b815260206004820152601960248201527f496e76616c6964207075626c6963206b6579206c656e677468000000000000006044820152606401610d56565b604051600290614222908490600090602001615eaa565b60408051601f198184030181529082905261423c91615e6f565b602060405180830381855afa158015614259573d6000803e3d6000fd5b5050506040513d601f19601f8201168201806040525081019061250491906158a6565b60006001600160401b038211156142e45760405162461bcd60e51b815260206004820152602660248201527f53616665436173743a2076616c756520646f65736e27742066697420696e203660448201526534206269747360d01b6064820152608401610d56565b5090565b600063ffffffff8211156142e45760405162461bcd60e51b815260206004820152602660248201527f53616665436173743a2076616c756520646f65736e27742066697420696e203360448201526532206269747360d01b6064820152608401610d56565b60006030831461439f5760405162461bcd60e51b815260206004820152601d60248201527f496e76616c69642076616c696461746f722062797465206c656e6774680000006044820152606401610d56565b6143a76148bd565b90506000710961ef480eb55e80d19ad83579a64c0070026001600160a01b0316828686866040516020016143dd93929190615ed9565b60408051601f19818403018152908290526143f791615e6f565b60006040518083038185875af1925050503d8060008114614434576040519150601f19603f3d011682016040523d82523d6000602084013e614439565b606091505b505090508061448a5760405162461bcd60e51b815260206004820152601960248201527f5769746864726177616c2072657175657374206661696c6564000000000000006044820152606401610d56565b509392505050565b6001600160a01b0381166144e85760405162461bcd60e51b815260206004820152601a60248201527f4e657720476f7665726e6f7220697320616464726573732830290000000000006044820152606401610d56565b6136d581614984565b60006001600160801b038211156142e45760405162461bcd60e51b815260206004820152602760248201527f53616665436173743a2076616c756520646f65736e27742066697420696e20316044820152663238206269747360c81b6064820152608401610d56565b600082116145aa5760405162461bcd60e51b815260206004820152601760248201527f4d75737420776974686472617720736f6d657468696e670000000000000000006044820152606401610d56565b6001600160a01b0383166145f95760405162461bcd60e51b8152602060048201526016602482015275135d5cdd081cdc1958da599e481c9958da5c1a595b9d60521b6044820152606401610d56565b801561460857614608816149eb565b6146128284614af0565b6040805160008152602081018490526001600160a01b037f000000000000000000000000000000000000000000000000000000000000000016917f2717ead6b9200dd235aad468c9809ea400fe33ac69b5bfaa6d3e90fc922b6398910161265d565b60006146c9826040518060400160405280602081526020017f5361666545524332303a206c6f772d6c6576656c2063616c6c206661696c6564815250856001600160a01b0316614b509092919063ffffffff16565b80519091501561400257808060200190518101906146e79190615702565b6140025760405162461bcd60e51b815260206004820152602a60248201527f5361666545524332303a204552433230206f7065726174696f6e20646964206e6044820152691bdd081cdd58d8d9595960b21b6064820152608401610d56565b6001600160a01b0382811660009081526070602052604090205416156147a35760405162461bcd60e51b81526020600482015260126024820152711c151bdad95b88185b1c9958591e481cd95d60721b6044820152606401610d56565b6001600160a01b038216158015906147c357506001600160a01b03811615155b6148035760405162461bcd60e51b8152602060048201526011602482015270496e76616c69642061646472657373657360781b6044820152606401610d56565b6001600160a01b03828116600081815260706020908152604080832080549587166001600160a01b031996871681179091556071805460018101825594527fa1fcd19bfe8c32a61095b6bfbb2664842857e148fcbb5188386c8cd40348d5b690930180549095168417909455925190815290917fef6485b84315f9b1483beffa32aae9a0596890395e3d7521f1c5fbb51790e765910160405180910390a25050565b60008183106148b457816148b6565b825b9392505050565b60405160009081908190710961ef480eb55e80d19ad83579a64c0070029082818181855afa9150503d8060008114614911576040519150601f19603f3d011682016040523d82523d6000602084013e614916565b606091505b5091509150818015614929575060008151115b6149695760405162461bcd60e51b81526020600482015260116024820152704661696c656420746f206765742066656560781b6044820152606401610d56565b8080602001905181019061497d91906158a6565b9250505090565b806001600160a01b03166149a4600080516020615f4d8339815191525490565b6001600160a01b03167fc7c0c772add429241571afb3805861fb3cfa2af374534088b76cdb4325a87e9a60405160405180910390a3600080516020615f4d83398151915255565b7f00000000000000000000000000000000000000000000000000000000000000006001600160a01b031663d0e30db0826040518263ffffffff1660e01b81526004016000604051808303818588803b158015614a4657600080fd5b505af1158015614a5a573d6000803e3d6000fd5b505050505080603a6000828254614a7191906158bf565b9091555050603954614a979061359d90600160401b90046001600160801b0316836148a5565b60398054600890614ab9908490600160401b90046001600160801b0316615efa565b82546001600160801b039182166101009390930a928302919092021990911617905550506039805467ffffffffffffffff19169055565b614b246001600160a01b037f0000000000000000000000000000000000000000000000000000000000000000168284613fb0565b6000614b3283603a546148a5565b905080603a6000828254614b469190615d43565b9091555050505050565b6060613ec7848460008585843b614ba95760405162461bcd60e51b815260206004820152601d60248201527f416464726573733a2063616c6c20746f206e6f6e2d636f6e74726163740000006044820152606401610d56565b600080866001600160a01b03168587604051614bc59190615e6f565b60006040518083038185875af1925050503d8060008114614c02576040519150601f19603f3d011682016040523d82523d6000602084013e614c07565b606091505b5091509150614c17828286614c22565b979650505050505050565b60608315614c315750816148b6565b825115614c415782518084602001fd5b8160405162461bcd60e51b8152600401610d569190615f19565b828054828255906000526020600020908101928215614cae579160200282015b82811115614cae5781546001600160a01b0319166001600160a01b03843516178255602090920191600190910190614c7b565b506142e4929150614d0f565b828054828255906000526020600020908101928215614cae579160200282015b82811115614cae57825182546001600160a01b0319166001600160a01b03909116178255602090920191600190910190614cda565b5b808211156142e45760008155600101614d10565b80356001600160401b0381168114614d3b57600080fd5b919050565b600060c08284031215614d5257600080fd5b50919050565b600080600080600060a08688031215614d7057600080fd5b85359450614d8060208701614d24565b9350614d8e60408701614d24565b925060608601356001600160401b03811115614da957600080fd5b614db588828901614d40565b92505060808601356001600160401b03811115614dd157600080fd5b860160408189031215614de357600080fd5b809150509295509295909350565b80356001600160a01b0381168114614d3b57600080fd5b60008060408385031215614e1b57600080fd5b614e2483614df1565b9150614e3260208401614df1565b90509250929050565b600060208284031215614e4d57600080fd5b5035919050565b600060208284031215614e6657600080fd5b6148b682614df1565b60008060408385031215614e8257600080fd5b614e8b83614df1565b946020939093013593505050565b60008083601f840112614eab57600080fd5b5081356001600160401b03811115614ec257600080fd5b602083019150836020828501011115614eda57600080fd5b9250929050565b60008060008060008060a08789031215614efa57600080fd5b614f0387614d24565b9550614f1160208801614d24565b945060408701359350614f2660608801614df1565b925060808701356001600160401b03811115614f4157600080fd5b614f4d89828a01614e99565b979a9699509497509295939492505050565b634e487b7160e01b600052604160045260246000fd5b604051601f8201601f191681016001600160401b0381118282101715614f9d57614f9d614f5f565b604052919050565b60006001600160401b03821115614fbe57614fbe614f5f565b5060051b60200190565b600082601f830112614fd957600080fd5b8135614fec614fe782614fa5565b614f75565b8082825260208201915060208360051b86010192508583111561500e57600080fd5b602085015b838110156150325761502481614df1565b835260209283019201615013565b5095945050505050565b60008060006060848603121561505157600080fd5b83356001600160401b0381111561506757600080fd5b61507386828701614fc8565b93505060208401356001600160401b0381111561508f57600080fd5b61509b86828701614fc8565b92505060408401356001600160401b038111156150b757600080fd5b6150c386828701614fc8565b9150509250925092565b600080604083850312156150e057600080fd5b82356001600160401b038111156150f657600080fd5b83016060818603121561510857600080fd5b9150614e3260208401614d24565b60008060006040848603121561512b57600080fd5b83356001600160401b0381111561514157600080fd5b61514d86828701614e99565b9094509250615160905060208501614d24565b90509250925092565b60008083601f84011261517b57600080fd5b5081356001600160401b0381111561519257600080fd5b6020830191508360208260051b8501011115614eda57600080fd5b600060a08284031215614d5257600080fd5b600080600080600060e086880312156151d757600080fd5b85356001600160401b038111156151ed57600080fd5b6151f988828901614e99565b90965094505060208601356001600160401b0381111561521857600080fd5b61522488828901615169565b9094509250615238905087604088016151ad565b90509295509295909350565b6000806020838503121561525757600080fd5b82356001600160401b0381111561526d57600080fd5b61527985828601615169565b90969095509350505050565b634e487b7160e01b600052602160045260246000fd5b60408101600884106152af576152af615285565b9281526001600160401b039190911660209091015290565b600080600080608085870312156152dd57600080fd5b843593506152ed60208601614d24565b925060408501356001600160401b0381111561530857600080fd5b61531487828801614d40565b92505060608501356001600160401b0381111561533057600080fd5b85016080818803121561534257600080fd5b939692955090935050565b8681526001600160401b0386811660208301528516604082015263ffffffff8416606082015260c081016003841061538757615387615285565b8360808301526001600160401b03831660a0830152979650505050505050565b803563ffffffff81168114614d3b57600080fd5b80151581146136d557600080fd5b600060a082840312156153db57600080fd5b60405160a081016001600160401b03811182821017156153fd576153fd614f5f565b60405290508061540c836153a7565b815261541a60208401614d24565b602082015261542b60408401614d24565b6040820152606083013561543e816153bb565b6060820152608092830135920191909152919050565b600080600060e0848603121561546957600080fd5b83356001600160401b0381111561547f57600080fd5b8401601f8101861361549057600080fd5b803561549e614fe782614fa5565b8082825260208201915060208360051b8501019250888311156154c057600080fd5b6020840193505b828410156154e9576154d884614d24565b8252602093840193909101906154c7565b95505050506020840135915061516085604086016153c9565b600080600080600080600080610120898b03121561551f57600080fd5b88356001600160401b0381111561553557600080fd5b6155418b828c01614e99565b90995097505060208901356001600160401b0381111561556057600080fd5b61556c8b828c01615169565b90975095505060408901356001600160401b0381111561558b57600080fd5b6155978b828c01614e99565b909550935050606089013591506155b18a60808b016151ad565b90509295985092959890939650565b6000806000606084860312156155d557600080fd5b6155de84614df1565b92506155ec60208501614df1565b929592945050506040919091013590565b602080825282518282018190526000918401906040840190835b8181101561563e5783516001600160a01b0316835260209384019390920191600101615617565b509095945050505050565b60006020828403121561565b57600080fd5b6148b682614d24565b6000808335601e1984360301811261567b57600080fd5b8301803591506001600160401b0382111561569557600080fd5b602001915036819003821315614eda57600080fd5b81835281816020850137506000828201602090810191909152601f909101601f19169091010190565b8581526001600160401b0385166020820152836040820152608060608201526000614c176080830184866156aa565b60006020828403121561571457600080fd5b81516148b6816153bb565b8881526001600160401b03881660208201528660408201526001600160401b038616606082015260c06080820152600061575d60c0830186886156aa565b82810360a08401526157708185876156aa565b9b9a5050505050505050505050565b8581526001600160401b03851660208201526001600160401b0384166040820152608060608201526000614c176080830184866156aa565b634e487b7160e01b600052601160045260246000fd5b8082028115828204841417612504576125046157b7565b6020808252601a908201527f43616c6c6572206973206e6f742074686520476f7665726e6f72000000000000604082015260600190565b86815285602082015260a06040820152600061583b60a0830186886156aa565b6001600160401b03949094166060830152506001600160a01b0391909116608090910152949350505050565b634e487b7160e01b600052603260045260246000fd5b6020808252600f908201526e2737ba102932b3b4b9ba3930ba37b960891b604082015260600190565b6000602082840312156158b857600080fd5b5051919050565b80820180821115612504576125046157b7565b60005b838110156158ed5781810151838201526020016158d5565b50506000910152565b6000815180845261590e8160208601602086016158d2565b601f01601f19169290920160200192915050565b60808152600061593660808301888a6156aa565b828103602084015261594881886158f6565b9050828103604084015261595d8186886156aa565b915050826060830152979650505050505050565b6001600160401b038281168282160390811115612504576125046157b7565b60006001600160401b038316806159b757634e487b7160e01b600052601260045260246000fd5b806001600160401b0384160491505092915050565b60006001600160801b0382166001600160801b0381036159ee576159ee6157b7565b60010192915050565b604081526000615a0b6040830185876156aa565b9050826020830152949350505050565b60208082526017908201527f43616c6c6572206973206e6f7420746865205661756c74000000000000000000604082015260600190565b6020808252600e908201526d1499595b9d1c985b9d0818d85b1b60921b604082015260600190565b602080825260119082015270155b9cdd5c1c1bdc9d195908185cdcd95d607a1b604082015260600190565b6001600160401b038181168382160290811690818114615ac757615ac76157b7565b5092915050565b6001600160401b038181168382160190811115612504576125046157b7565b81835260208301925060008160005b84811015615b2b576001600160401b03615b1583614d24565b1686526020958601959190910190600101615afc565b5093949350505050565b63ffffffff615b43826153a7565b1682526001600160401b03615b5a60208301614d24565b1660208301526001600160401b03615b7460408301614d24565b1660408301526060810135615b88816153bb565b15156060830152608090810135910152565b60e081526000615bae60e0830187896156aa565b8281036020840152615bc1818688615aed565b915050615bd16040830184615b35565b9695505050505050565b602081526000613ec7602083018486615aed565b6040808252845490820181905260008581526020812090916060840190835b81811015615c355783546001600160a01b0316835260019384019360209093019201615c0e565b50508381036020808601919091528582520190508460005b85811015615c7c576001600160a01b03615c6683614df1565b1683526020928301929190910190600101615c4d565b50909695505050505050565b6000808335601e19843603018112615c9f57600080fd5b8301803591506001600160401b03821115615cb957600080fd5b6020019150600581901b3603821315614eda57600080fd5b848152836020820152606060408201526000615bd16060830184866156aa565b600081615d0057615d006157b7565b506000190190565b858152846020820152608060408201526000615d286080830185876156aa565b90506001600160401b03831660608301529695505050505050565b81810381811115612504576125046157b7565b634e487b7160e01b600052603160045260246000fd5b60e080825284519082018190526000906020860190610100840190835b81811015615db05783516001600160401b0316835260209384019390920191600101615d89565b5050809250505083602083015263ffffffff83511660408301526001600160401b0360208401511660608301526001600160401b0360408401511660808301526060830151151560a0830152608083015160c0830152949350505050565b61012081526000615e2461012083018a8c6156aa565b8281036020840152615e3781898b615aed565b90508281036040840152615e4c8187896156aa565b915050836060830152615e626080830184615b35565b9998505050505050505050565b60008251615e818184602087016158d2565b9190910192915050565b6001600160801b038181168382160190811115612504576125046157b7565b60008351615ebc8184602088016158d2565b6001600160801b0319939093169190920190815260100192915050565b8284823760c09190911b6001600160c01b0319169101908152600801919050565b6001600160801b038281168282160390811115612504576125046157b7565b6020815260006148b660208301846158f656fe53bf423e48ed90e97d02ab0ebab13b2a235a6bfbe9c321847d5c175333ac45357bea13895fa79d2831e0a9e28edede30099005a50d652d8957cf8a607ee6ca4aa264697066735822122066e68926daee7f29151cf933808585bd2d0a75ec5f92614913e1e8e7127d83e564736f6c634300081c00337bea13895fa79d2831e0a9e28edede30099005a50d652d8957cf8a607ee6ca4a",
  "libraries": {},
  "devdoc": {
    "author": "Origin Protocol Inc",
    "kind": "dev",
    "methods": {
      "checkBalance(address)": {
        "params": {
          "_asset": "Address of WETH asset."
        },
        "returns": {
          "balance": "   Total value in ETH"
        }
      },
      "constructor": {
        "params": {
          "_baseConfig": "Base strategy config with   `platformAddress` not used so empty address   `vaultAddress` the address of the OETH Vault contract",
          "_beaconChainDepositContract": "Address of the beacon chain deposit contract",
          "_beaconGenesisTimestamp": "The timestamp of the Beacon chain's genesis.",
          "_beaconProofs": "Address of the Beacon Proofs contract that verifies beacon chain data",
          "_ssvNetwork": "Address of the SSV Network contract",
          "_ssvToken": "Address of the SSV Token contract",
          "_wethAddress": "Address of the WETH Token contract"
        }
      },
      "deposit(address,uint256)": {
        "params": {
          "_amount": "Amount of WETH that was transferred to the strategy by the vault.",
          "_asset": "Address of the WETH token."
        }
      },
      "getRewardTokenAddresses()": {
        "returns": {
          "_0": "address[] the reward token addresses."
        }
      },
      "initialize(address[],address[],address[])": {
        "params": {
          "_assets": "Not used so empty array",
          "_pTokens": "Not used so empty array",
          "_rewardTokenAddresses": "Not used so empty array"
        }
      },
      "registerSsvValidator(bytes,uint64[],bytes,uint256,(uint32,uint64,uint64,bool,uint256))": {
        "params": {
          "cluster": "The SSV cluster details including the validator count and SSV balance",
          "operatorIds": "The operator IDs of the SSV Cluster",
          "publicKey": "The public key of the validator",
          "sharesData": "The shares data for the validator",
          "ssvAmount": "The amount of SSV tokens to be deposited to the SSV cluster"
        }
      },
      "removeSsvValidator(bytes,uint64[],(uint32,uint64,uint64,bool,uint256))": {
        "params": {
          "cluster": "The SSV cluster details including the validator count and SSV balance",
          "operatorIds": "The operator IDs of the SSV Cluster",
          "publicKey": "The public key of the validator"
        }
      },
      "setHarvesterAddress(address)": {
        "params": {
          "_harvesterAddress": "Address of the harvester contract."
        }
      },
      "setRewardTokenAddresses(address[])": {
        "params": {
          "_rewardTokenAddresses": "Array of reward token addresses"
        }
      },
      "stakeEth((bytes,bytes,bytes32),uint64)": {
        "params": {
          "depositAmountGwei": "The amount of WETH to stake to the validator in Gwei.",
          "validatorStakeData": "validator data needed to stake. The `ValidatorStakeData` struct contains the pubkey, signature and depositDataRoot. Only the registrator can call this function."
        }
      },
      "supportsAsset(address)": {
        "params": {
          "_asset": "The address of the WETH token."
        }
      },
      "transferGovernance(address)": {
        "params": {
          "_newGovernor": "Address of the new Governor"
        }
      },
      "transferToken(address,uint256)": {
        "params": {
          "_amount": "Amount of the asset to transfer",
          "_asset": "Address for the asset"
        }
      },
      "validatorWithdrawal(bytes,uint64)": {
        "params": {
          "amountGwei": "The amount of ETH to be withdrawn from the validator in Gwei. A zero amount will trigger a full withdrawal.",
          "publicKey": "The public key of the validator"
        }
      },
      "verifyBalances(bytes32,uint64,(uint64,uint64,bytes32,bytes,bytes,bytes),(bytes32,bytes,bytes32[],bytes[]))": {
        "params": {
          "balanceProofs": "a `BalanceProofs` struct containing the following: balancesContainerRoot - the merkle root of the balances container balancesContainerProof - The merkle proof for the balances container to the beacon block root.   This is 9 witness hashes of 32 bytes each concatenated together starting from the leaf node. validatorBalanceLeaves - Array of leaf nodes containing the validator balance with three other balances. validatorBalanceProofs -  Array of merkle proofs for the validator balance to the Balances container root.   This is 39 witness hashes of 32 bytes each concatenated together starting from the leaf node.",
          "snapBlockRoot": "The beacon block root emitted from `snapBalance` in `BalancesSnapped`."
        }
      },
      "verifyDeposit(uint256,uint64,uint64,(uint64,uint64,bytes32,bytes,bytes,bytes),(uint64,bytes))": {
        "params": {
          "depositID": "The deposit ID emitted in `ETHStaked` from the `stakeEth` function.",
          "depositProcessedSlot": "Any slot on or after the strategy's deposit was processed on the beacon chain. Can not be a slot with pending deposits with the same slot as the deposit being verified. Can not be a slot before a missed slot as the Beacon Root contract will have the parent block root set for the next block timestamp in 12 seconds time.",
          "firstDepositValidatorCreatedSlot": "The slot on or after when the validator of the first pending deposit was created on the beacon chain. This is used to verify the validator has not exited."
        }
      },
      "verifyValidator(uint64,uint64,bytes32,address,bytes)": {
        "params": {
          "nextBlockTimestamp": "The timestamp of the execution layer block after the beacon chain slot we are verifying. The next one is needed as the Beacon Oracle returns the parent beacon block root for a block timestamp, which is the beacon block root of the previous block.",
          "pubKeyHash": "The hash of the validator's public key using the Beacon Chain's format",
          "validatorIndex": "The index of the validator on the beacon chain.",
          "validatorPubKeyProof": "The merkle proof for the validator public key to the beacon block root. This is 53 witness hashes of 32 bytes each concatenated together starting from the leaf node. BeaconBlock.state.validators[validatorIndex].pubkey",
          "withdrawalAddress": "The withdrawal address of the validator which should be this strategy's address. If the withdrawal address is not this strategy's address, the initial deposit was front-run and the validator is marked as invalid."
        }
      },
      "withdraw(address,address,uint256)": {
        "params": {
          "_amount": "Amount of WETH to withdraw.",
          "_asset": "Address of the WETH token.",
          "_recipient": "Address to receive withdrawn assets."
        }
      },
      "withdrawSSV(uint64[],uint256,(uint32,uint64,uint64,bool,uint256))": {
        "details": "A SSV cluster is defined by the SSVOwnerAddress and the set of operatorIds.",
        "params": {
          "cluster": "The SSV cluster details including the validator count and SSV balance",
          "operatorIds": "The operator IDs of the SSV Cluster",
          "ssvAmount": "The amount of SSV tokens to be withdrawn from the SSV cluster"
        }
      }
    },
    "title": "Compounding Staking SSV Strategy",
    "version": 1
  },
  "userdoc": {
    "kind": "user",
    "methods": {
      "BEACON_CHAIN_DEPOSIT_CONTRACT()": {
        "notice": "The address of the beacon chain deposit contract"
      },
      "BEACON_GENESIS_TIMESTAMP()": {
        "notice": "The timestamp of the Beacon chain genesis."
      },
      "BEACON_PROOFS()": {
        "notice": "Address of the Beacon Proofs contract that verifies beacon chain data"
      },
      "SSV_NETWORK()": {
        "notice": "The address of the SSV Network contract used to interface with"
      },
      "SSV_TOKEN()": {
        "notice": "SSV ERC20 token that serves as a payment for operating SSV validators"
      },
      "VAULT_ADDRESS()": {
        "notice": "Address of the OETH Vault proxy contract"
      },
      "WETH()": {
        "notice": "The address of the Wrapped ETH (WETH) token contract"
      },
      "assetToPToken(address)": {
        "notice": "asset => pToken (Platform Specific Token Address)"
      },
      "checkBalance(address)": {
        "notice": "Accounts for all the assets managed by this strategy which includes: 1. The current WETH in this strategy contract 2. The last verified ETH balance, total deposits and total validator balances"
      },
      "claimGovernance()": {
        "notice": "Claim Governance of the contract to a new account (`newGovernor`). Can only be called by the new Governor."
      },
      "collectRewardTokens()": {
        "notice": "Collect accumulated reward token and send to Vault."
      },
      "deposit(address,uint256)": {
        "notice": "Unlike other strategies, this does not deposit assets into the underlying platform. It just checks the asset is WETH and emits the Deposit event. To deposit WETH into validators, `registerSsvValidator` and `stakeEth` must be used."
      },
      "depositAll()": {
        "notice": "Unlike other strategies, this does not deposit assets into the underlying platform. It just emits the Deposit event. To deposit WETH into validators `registerSsvValidator` and `stakeEth` must be used."
      },
      "depositList(uint256)": {
        "notice": "List of strategy deposit IDs to a validator. The list can be for deposits waiting to be verified as processed on the beacon chain, or deposits that have been verified to an exiting validator and is now waiting for the validator's balance to be swept. The list may not be ordered by time of deposit. Removed deposits will move the last deposit to the removed index."
      },
      "depositListLength()": {
        "notice": "Returns the number of deposits waiting to be verified as processed on the beacon chain, or deposits that have been verified to an exiting validator and is now waiting for the validator's balance to be swept."
      },
      "deposits(uint256)": {
        "notice": "Mapping of the deposit ID to the deposit data"
      },
      "firstDeposit()": {
        "notice": "Restricts to only one deposit to an unverified validator at a time. This is to limit front-running attacks of deposits to the beacon chain contract."
      },
      "getRewardTokenAddresses()": {
        "notice": "Get the reward token addresses."
      },
      "governor()": {
        "notice": "Returns the address of the current Governor."
      },
      "harvesterAddress()": {
        "notice": "Address of the Harvester contract allowed to collect reward tokens"
      },
      "initialize(address[],address[],address[])": {
        "notice": "Set up initial internal state including 1. approving the SSVNetwork to transfer SSV tokens from this strategy contract"
      },
      "isGovernor()": {
        "notice": "Returns true if the caller is the current Governor."
      },
      "lastSnapTimestamp()": {
        "notice": "The timestamp of the last snapshot taken"
      },
      "lastVerifiedEthBalance()": {
        "notice": "The last verified ETH balance of the strategy"
      },
      "nextDepositID()": {
        "notice": "Unique identifier of the next validator deposit."
      },
      "platformAddress()": {
        "notice": "Address of the underlying platform"
      },
      "registerSsvValidator(bytes,uint64[],bytes,uint256,(uint32,uint64,uint64,bool,uint256))": {
        "notice": "Registers a single validator in a SSV Cluster. Only the Registrator can call this function."
      },
      "removePToken(uint256)": {
        "notice": "is not supported for this strategy as there is no platform token."
      },
      "removeSsvValidator(bytes,uint64[],(uint32,uint64,uint64,bool,uint256))": {
        "notice": "Remove the validator from the SSV Cluster after: - the validator has been exited from `validatorWithdrawal` or slashed - the validator has incorrectly registered and can not be staked to - the initial deposit was front-run and the withdrawal address is not this strategy's address. Make sure `validatorWithdrawal` is called with a zero amount and the validator has exited the Beacon chain. If removed before the validator has exited the beacon chain will result in the validator being slashed. Only the registrator can call this function."
      },
      "resetFirstDeposit()": {
        "notice": "Reset the `firstDeposit` flag to false so deposits to unverified validators can be made again."
      },
      "rewardTokenAddresses(uint256)": {
        "notice": "Address of the reward tokens. eg CRV, BAL, CVX, AURA"
      },
      "safeApproveAllTokens()": {
        "notice": "Approves the SSV Network contract to transfer SSV tokens for validator registration."
      },
      "setHarvesterAddress(address)": {
        "notice": "Set the Harvester contract that can collect rewards."
      },
      "setPTokenAddress(address,address)": {
        "notice": "is not supported for this strategy as there is no platform token."
      },
      "setRegistrator(address)": {
        "notice": "Set the address of the registrator which can register, exit and remove validators"
      },
      "setRewardTokenAddresses(address[])": {
        "notice": "Set the reward token addresses. Any old addresses will be overwritten."
      },
      "snapBalances()": {
        "notice": "Stores the current ETH balance at the current block and beacon block root         of the slot that is associated with the previous block. When snapping / verifying balance it is of a high importance that there is no miss-match in respect to ETH that is held by the contract and balances that are verified on the validators. First some context on the beacon-chain block building behaviour. Relevant parts of constructing a block on the beacon chain consist of:  - process_withdrawals: ETH is deducted from the validator's balance  - process_execution_payload: immediately after the previous step executing all the    transactions  - apply the withdrawals: adding ETH to the recipient which is the withdrawal address    contained in the withdrawal credentials of the exited validators That means that balance increases which are part of the post-block execution state are done within the block, but the transaction that are contained within that block can not see / interact with the balance from the exited validators. Only transactions in the next block can do that. When snap balances is performed the state of the chain is snapped across 2 separate chain states:  - ETH balance of the contract is recorded on block X -> and corresponding slot Y  - beacon chain block root is recorded of block X - 1 -> and corresponding slot Y - 1    given there were no missed slots. It could also be Y - 2, Y - 3 depending on how    many slots have not managed to propose a block. For the sake of simplicity this slot    will be referred to as Y - 1 as it makes no difference in the argument Given these 2 separate chain states it is paramount that verify balances can not experience miss-counting ETH or much more dangerous double counting of the ETH. When verifyBalances is called it is performed on the current block Z where Z > X. Verify balances adds up all the ETH (omitting WETH) controlled by this contract:  - ETH balance in the contract on block X  - ETH balance in Deposits on block Z that haven't been yet processed in slot Y - 1  - ETH balance in validators that are active in slot Y - 1  - skips the ETH balance in validators that have withdrawn in slot Y - 1 (or sooner)    and have their balance visible to transactions in slot Y and corresponding block X    (or sooner) Lets verify the correctness of ETH accounting given the above described behaviour. *ETH balance in the contract on block X* This is an ETH balance of the contract on a non current X block. Any ETH leaving the contract as a result of a withdrawal subtracts from the ETH accounted for on block X if `verifyBalances` has already been called. It also invalidates a `snapBalances` in case `verifyBalances` has not been called yet. Not performing this would result in not accounting for the withdrawn ETH that has happened anywhere in the block interval [X + 1, Z]. Similarly to withdrawals any `stakeEth` deposits to the deposit contract adds to the ETH accounted for since the last `verifyBalances` has been called. And it invalidates the `snapBalances` in case `verifyBalances` hasn't been yet called. Not performing this would result in double counting the `stakedEth` since it would be present once in the snapped contract balance and the second time in deposit storage variables. This behaviour is correct. *ETH balance in Deposits on block Z that haven't been yet processed in slot Y - 1* The contract sums up all the ETH that has been deposited to the Beacon chain deposit contract at block Z. The execution layer doesn't have direct access to the state of deposits on the beacon chain. And if it is to sum up all the ETH that is marked to be deposited it needs to be sure to not double count ETH that is in deposits (storage vars) and could also be part of the validator balances. It does that by verifying that at slot Y - 1 none of the deposits visible on block Z have been processed. Meaning since the last snap till now all are still in queue. Which ensures they can not be part of the validator balances in later steps. This behaviour is correct. *ETH balance in validators that are active in slot Y - 1* The contract is verifying none of the deposits on Y - 1 slot have been processed and for that reason it checks the validator balances in the same slot. Ensuring accounting correctness. This behaviour is correct. *The withdrawn validators* The withdrawn validators could have their balances deducted in any slot before slot Y - 1 and the execution layer sees the balance increase in the subsequent slot. Lets look at the \"worst case scenario\" where the validator withdrawal is processed in the slot Y - 1 (snapped slot) and see their balance increase (in execution layer) in slot Y -> block X. The ETH balance on the contract is snapped at block X meaning that even if the validator exits at the latest possible time it is paramount that the ETH balance on the execution layer is recorded in the next block. Correctly accounting for the withdrawn ETH. Worth mentioning if the validator exit is processed by the slot Y and balance increase seen on the execution layer on block X + 1 the withdrawal is ignored by both the validator balance verification as well as execution layer contract balance snap. This behaviour is correct. The validator balances on the beacon chain can then be proved with `verifyBalances`."
      },
      "snappedBalances(bytes32)": {
        "notice": "Mapping of the block root to the balances at that slot"
      },
      "stakeEth((bytes,bytes,bytes32),uint64)": {
        "notice": "Stakes WETH in this strategy to a compounding validator. Does not convert any ETH sitting in this strategy to WETH."
      },
      "supportsAsset(address)": {
        "notice": "Returns bool indicating whether asset is supported by the strategy."
      },
      "transferGovernance(address)": {
        "notice": "Transfers Governance of the contract to a new account (`newGovernor`). Can only be called by the current Governor. Must be claimed for this to complete"
      },
      "transferToken(address,uint256)": {
        "notice": "Transfer token to governor. Intended for recovering tokens stuck in      strategy contracts, i.e. mistaken sends."
      },
      "validator(bytes32)": {
        "notice": "Mapping of the hash of the validator's public key to the validator state and index. Uses the Beacon chain hashing for BLSPubkey which is sha256(abi.encodePacked(validator.pubkey, bytes16(0)))"
      },
      "validatorRegistrator()": {
        "notice": "Address of the registrator - allowed to register, withdraw, exit and remove validators"
      },
      "validatorWithdrawal(bytes,uint64)": {
        "notice": "Request a full or partial withdrawal from a validator. A zero amount will trigger a full withdrawal. If the remaining balance is < 32 ETH then only the amount in excess of 32 ETH will be withdrawn. Only the Registrator can call this function. 1 wei of value should be sent with the tx to pay for the withdrawal request fee. If no value sent, 1 wei will be taken from the strategy's ETH balance if it has any. If no ETH balance, the tx will revert."
      },
      "vaultAddress()": {
        "notice": "Address of the OToken vault"
      },
      "verifiedValidators(uint256)": {
        "notice": "List of validator public key hashes that have been verified to exist on the beacon chain. These have had a deposit processed and the validator's balance increased. Validators will be removed from this list when its verified they have a zero balance."
      },
      "verifiedValidatorsLength()": {
        "notice": "Returns the number of verified validators."
      },
      "verifyBalances(bytes32,uint64,(uint64,uint64,bytes32,bytes,bytes,bytes),(bytes32,bytes,bytes32[],bytes[]))": {
        "notice": "Verifies the balances of all active validators on the beacon chain and checks no pending deposits have been processed by the beacon chain."
      },
      "verifyDeposit(uint256,uint64,uint64,(uint64,uint64,bytes32,bytes,bytes,bytes),(uint64,bytes))": {
        "notice": "Verifies a deposit on the execution layer has been processed by the beacon chain. This means the accounting of the strategy's ETH moves from a pending deposit to a validator balance. Important: this function has a limitation where the `verificationSlot` that is passed by the off-chain verifier requires a slot immediately after it to propose a block otherwise the `BeaconRoots.parentBlockRoot` will fail. This shouldn't be a problem, since by the current behaviour of beacon chain only 1%-3% slots don't propose a block."
      },
      "verifyValidator(uint64,uint64,bytes32,address,bytes)": {
        "notice": "Verifies a validator's index to its public key. Adds to the list of verified validators if the validator's withdrawal address is this strategy's address. Marks the validator as invalid and removes the deposit if the withdrawal address is not this strategy's address."
      },
      "withdraw(address,address,uint256)": {
        "notice": "Withdraw ETH and WETH from this strategy contract."
      },
      "withdrawAll()": {
        "notice": "Transfer all WETH deposits, ETH from validator withdrawals and ETH from execution rewards in this strategy to the vault. This does not withdraw from the validators. That has to be done separately with the `validatorWithdrawal` operation."
      },
      "withdrawSSV(uint64[],uint256,(uint32,uint64,uint64,bool,uint256))": {
        "notice": "Withdraws excess SSV Tokens from the SSV Network contract which was used to pay the SSV Operators."
      }
    },
    "notice": "Strategy to deploy funds into DVT validators powered by the SSV Network",
    "version": 1
  },
  "storageLayout": {
    "storage": [
      {
        "astId": 7096,
        "contract": "contracts/strategies/NativeStaking/CompoundingStakingSSVStrategy.sol:CompoundingStakingSSVStrategy",
        "label": "initialized",
        "offset": 0,
        "slot": "0",
        "type": "t_bool"
      },
      {
        "astId": 7099,
        "contract": "contracts/strategies/NativeStaking/CompoundingStakingSSVStrategy.sol:CompoundingStakingSSVStrategy",
        "label": "initializing",
        "offset": 1,
        "slot": "0",
        "type": "t_bool"
      },
      {
        "astId": 7139,
        "contract": "contracts/strategies/NativeStaking/CompoundingStakingSSVStrategy.sol:CompoundingStakingSSVStrategy",
        "label": "______gap",
        "offset": 0,
        "slot": "1",
        "type": "t_array(t_uint256)50_storage"
      },
      {
        "astId": 3658,
        "contract": "contracts/strategies/NativeStaking/CompoundingStakingSSVStrategy.sol:CompoundingStakingSSVStrategy",
        "label": "validatorRegistrator",
        "offset": 0,
        "slot": "51",
        "type": "t_address"
      },
      {
        "astId": 3684,
        "contract": "contracts/strategies/NativeStaking/CompoundingStakingSSVStrategy.sol:CompoundingStakingSSVStrategy",
        "label": "deposits",
        "offset": 0,
        "slot": "52",
        "type": "t_mapping(t_uint256,t_struct(DepositData)3678_storage)"
      },
      {
        "astId": 3688,
        "contract": "contracts/strategies/NativeStaking/CompoundingStakingSSVStrategy.sol:CompoundingStakingSSVStrategy",
        "label": "depositList",
        "offset": 0,
        "slot": "53",
        "type": "t_array(t_uint256)dyn_storage"
      },
      {
        "astId": 3707,
        "contract": "contracts/strategies/NativeStaking/CompoundingStakingSSVStrategy.sol:CompoundingStakingSSVStrategy",
        "label": "verifiedValidators",
        "offset": 0,
        "slot": "54",
        "type": "t_array(t_bytes32)dyn_storage"
      },
      {
        "astId": 3713,
        "contract": "contracts/strategies/NativeStaking/CompoundingStakingSSVStrategy.sol:CompoundingStakingSSVStrategy",
        "label": "validator",
        "offset": 0,
        "slot": "55",
        "type": "t_mapping(t_bytes32,t_struct(ValidatorData)3703_storage)"
      },
      {
        "astId": 3725,
        "contract": "contracts/strategies/NativeStaking/CompoundingStakingSSVStrategy.sol:CompoundingStakingSSVStrategy",
        "label": "snappedBalances",
        "offset": 0,
        "slot": "56",
        "type": "t_mapping(t_bytes32,t_struct(Balances)3719_storage)"
      },
      {
        "astId": 3728,
        "contract": "contracts/strategies/NativeStaking/CompoundingStakingSSVStrategy.sol:CompoundingStakingSSVStrategy",
        "label": "lastSnapTimestamp",
        "offset": 0,
        "slot": "57",
        "type": "t_uint64"
      },
      {
        "astId": 3731,
        "contract": "contracts/strategies/NativeStaking/CompoundingStakingSSVStrategy.sol:CompoundingStakingSSVStrategy",
        "label": "lastVerifiedEthBalance",
        "offset": 8,
        "slot": "57",
        "type": "t_uint128"
      },
      {
        "astId": 3734,
        "contract": "contracts/strategies/NativeStaking/CompoundingStakingSSVStrategy.sol:CompoundingStakingSSVStrategy",
        "label": "depositedWethAccountedFor",
        "offset": 0,
        "slot": "58",
        "type": "t_uint256"
      },
      {
        "astId": 3737,
        "contract": "contracts/strategies/NativeStaking/CompoundingStakingSSVStrategy.sol:CompoundingStakingSSVStrategy",
        "label": "firstDeposit",
        "offset": 0,
        "slot": "59",
        "type": "t_bool"
      },
      {
        "astId": 3740,
        "contract": "contracts/strategies/NativeStaking/CompoundingStakingSSVStrategy.sol:CompoundingStakingSSVStrategy",
        "label": "nextDepositID",
        "offset": 1,
        "slot": "59",
        "type": "t_uint128"
      },
      {
        "astId": 3744,
        "contract": "contracts/strategies/NativeStaking/CompoundingStakingSSVStrategy.sol:CompoundingStakingSSVStrategy",
        "label": "__gap",
        "offset": 0,
        "slot": "60",
        "type": "t_array(t_uint256)50_storage"
      },
      {
        "astId": 7219,
        "contract": "contracts/strategies/NativeStaking/CompoundingStakingSSVStrategy.sol:CompoundingStakingSSVStrategy",
        "label": "_deprecated_platformAddress",
        "offset": 0,
        "slot": "110",
        "type": "t_address"
      },
      {
        "astId": 7222,
        "contract": "contracts/strategies/NativeStaking/CompoundingStakingSSVStrategy.sol:CompoundingStakingSSVStrategy",
        "label": "_deprecated_vaultAddress",
        "offset": 0,
        "slot": "111",
        "type": "t_address"
      },
      {
        "astId": 7227,
        "contract": "contracts/strategies/NativeStaking/CompoundingStakingSSVStrategy.sol:CompoundingStakingSSVStrategy",
        "label": "assetToPToken",
        "offset": 0,
        "slot": "112",
        "type": "t_mapping(t_address,t_address)"
      },
      {
        "astId": 7231,
        "contract": "contracts/strategies/NativeStaking/CompoundingStakingSSVStrategy.sol:CompoundingStakingSSVStrategy",
        "label": "assetsMapped",
        "offset": 0,
        "slot": "113",
        "type": "t_array(t_address)dyn_storage"
      },
      {
        "astId": 7233,
        "contract": "contracts/strategies/NativeStaking/CompoundingStakingSSVStrategy.sol:CompoundingStakingSSVStrategy",
        "label": "_deprecated_rewardTokenAddress",
        "offset": 0,
        "slot": "114",
        "type": "t_address"
      },
      {
        "astId": 7235,
        "contract": "contracts/strategies/NativeStaking/CompoundingStakingSSVStrategy.sol:CompoundingStakingSSVStrategy",
        "label": "_deprecated_rewardLiquidationThreshold",
        "offset": 0,
        "slot": "115",
        "type": "t_uint256"
      },
      {
        "astId": 7238,
        "contract": "contracts/strategies/NativeStaking/CompoundingStakingSSVStrategy.sol:CompoundingStakingSSVStrategy",
        "label": "harvesterAddress",
        "offset": 0,
        "slot": "116",
        "type": "t_address"
      },
      {
        "astId": 7242,
        "contract": "contracts/strategies/NativeStaking/CompoundingStakingSSVStrategy.sol:CompoundingStakingSSVStrategy",
        "label": "rewardTokenAddresses",
        "offset": 0,
        "slot": "117",
        "type": "t_array(t_address)dyn_storage"
      },
      {
        "astId": 7246,
        "contract": "contracts/strategies/NativeStaking/CompoundingStakingSSVStrategy.sol:CompoundingStakingSSVStrategy",
        "label": "_reserved",
        "offset": 0,
        "slot": "118",
        "type": "t_array(t_int256)98_storage"
      },
      {
        "astId": 2999,
        "contract": "contracts/strategies/NativeStaking/CompoundingStakingSSVStrategy.sol:CompoundingStakingSSVStrategy",
        "label": "__gap",
        "offset": 0,
        "slot": "216",
        "type": "t_array(t_uint256)50_storage"
      }
    ],
    "types": {
      "t_address": {
        "encoding": "inplace",
        "label": "address",
        "numberOfBytes": "20"
      },
      "t_array(t_address)dyn_storage": {
        "base": "t_address",
        "encoding": "dynamic_array",
        "label": "address[]",
        "numberOfBytes": "32"
      },
      "t_array(t_bytes32)dyn_storage": {
        "base": "t_bytes32",
        "encoding": "dynamic_array",
        "label": "bytes32[]",
        "numberOfBytes": "32"
      },
      "t_array(t_int256)98_storage": {
        "base": "t_int256",
        "encoding": "inplace",
        "label": "int256[98]",
        "numberOfBytes": "3136"
      },
      "t_array(t_uint256)50_storage": {
        "base": "t_uint256",
        "encoding": "inplace",
        "label": "uint256[50]",
        "numberOfBytes": "1600"
      },
      "t_array(t_uint256)dyn_storage": {
        "base": "t_uint256",
        "encoding": "dynamic_array",
        "label": "uint256[]",
        "numberOfBytes": "32"
      },
      "t_bool": {
        "encoding": "inplace",
        "label": "bool",
        "numberOfBytes": "1"
      },
      "t_bytes32": {
        "encoding": "inplace",
        "label": "bytes32",
        "numberOfBytes": "32"
      },
      "t_enum(DepositStatus)3663": {
        "encoding": "inplace",
        "label": "enum CompoundingValidatorManager.DepositStatus",
        "numberOfBytes": "1"
      },
      "t_enum(ValidatorState)3697": {
        "encoding": "inplace",
        "label": "enum CompoundingValidatorManager.ValidatorState",
        "numberOfBytes": "1"
      },
      "t_int256": {
        "encoding": "inplace",
        "label": "int256",
        "numberOfBytes": "32"
      },
      "t_mapping(t_address,t_address)": {
        "encoding": "mapping",
        "key": "t_address",
        "label": "mapping(address => address)",
        "numberOfBytes": "32",
        "value": "t_address"
      },
      "t_mapping(t_bytes32,t_struct(Balances)3719_storage)": {
        "encoding": "mapping",
        "key": "t_bytes32",
        "label": "mapping(bytes32 => struct CompoundingValidatorManager.Balances)",
        "numberOfBytes": "32",
        "value": "t_struct(Balances)3719_storage"
      },
      "t_mapping(t_bytes32,t_struct(ValidatorData)3703_storage)": {
        "encoding": "mapping",
        "key": "t_bytes32",
        "label": "mapping(bytes32 => struct CompoundingValidatorManager.ValidatorData)",
        "numberOfBytes": "32",
        "value": "t_struct(ValidatorData)3703_storage"
      },
      "t_mapping(t_uint256,t_struct(DepositData)3678_storage)": {
        "encoding": "mapping",
        "key": "t_uint256",
        "label": "mapping(uint256 => struct CompoundingValidatorManager.DepositData)",
        "numberOfBytes": "32",
        "value": "t_struct(DepositData)3678_storage"
      },
      "t_struct(Balances)3719_storage": {
        "encoding": "inplace",
        "label": "struct CompoundingValidatorManager.Balances",
        "members": [
          {
            "astId": 3716,
            "contract": "contracts/strategies/NativeStaking/CompoundingStakingSSVStrategy.sol:CompoundingStakingSSVStrategy",
            "label": "timestamp",
            "offset": 0,
            "slot": "0",
            "type": "t_uint64"
          },
          {
            "astId": 3718,
            "contract": "contracts/strategies/NativeStaking/CompoundingStakingSSVStrategy.sol:CompoundingStakingSSVStrategy",
            "label": "ethBalance",
            "offset": 8,
            "slot": "0",
            "type": "t_uint128"
          }
        ],
        "numberOfBytes": "32"
      },
      "t_struct(DepositData)3678_storage": {
        "encoding": "inplace",
        "label": "struct CompoundingValidatorManager.DepositData",
        "members": [
          {
            "astId": 3666,
            "contract": "contracts/strategies/NativeStaking/CompoundingStakingSSVStrategy.sol:CompoundingStakingSSVStrategy",
            "label": "pubKeyHash",
            "offset": 0,
            "slot": "0",
            "type": "t_bytes32"
          },
          {
            "astId": 3668,
            "contract": "contracts/strategies/NativeStaking/CompoundingStakingSSVStrategy.sol:CompoundingStakingSSVStrategy",
            "label": "amountGwei",
            "offset": 0,
            "slot": "1",
            "type": "t_uint64"
          },
          {
            "astId": 3670,
            "contract": "contracts/strategies/NativeStaking/CompoundingStakingSSVStrategy.sol:CompoundingStakingSSVStrategy",
            "label": "slot",
            "offset": 8,
            "slot": "1",
            "type": "t_uint64"
          },
          {
            "astId": 3672,
            "contract": "contracts/strategies/NativeStaking/CompoundingStakingSSVStrategy.sol:CompoundingStakingSSVStrategy",
            "label": "depositIndex",
            "offset": 16,
            "slot": "1",
            "type": "t_uint32"
          },
          {
            "astId": 3675,
            "contract": "contracts/strategies/NativeStaking/CompoundingStakingSSVStrategy.sol:CompoundingStakingSSVStrategy",
            "label": "status",
            "offset": 20,
            "slot": "1",
            "type": "t_enum(DepositStatus)3663"
          },
          {
            "astId": 3677,
            "contract": "contracts/strategies/NativeStaking/CompoundingStakingSSVStrategy.sol:CompoundingStakingSSVStrategy",
            "label": "withdrawableEpoch",
            "offset": 21,
            "slot": "1",
            "type": "t_uint64"
          }
        ],
        "numberOfBytes": "64"
      },
      "t_struct(ValidatorData)3703_storage": {
        "encoding": "inplace",
        "label": "struct CompoundingValidatorManager.ValidatorData",
        "members": [
          {
            "astId": 3700,
            "contract": "contracts/strategies/NativeStaking/CompoundingStakingSSVStrategy.sol:CompoundingStakingSSVStrategy",
            "label": "state",
            "offset": 0,
            "slot": "0",
            "type": "t_enum(ValidatorState)3697"
          },
          {
            "astId": 3702,
            "contract": "contracts/strategies/NativeStaking/CompoundingStakingSSVStrategy.sol:CompoundingStakingSSVStrategy",
            "label": "index",
            "offset": 1,
            "slot": "0",
            "type": "t_uint64"
          }
        ],
        "numberOfBytes": "32"
      },
      "t_uint128": {
        "encoding": "inplace",
        "label": "uint128",
        "numberOfBytes": "16"
      },
      "t_uint256": {
        "encoding": "inplace",
        "label": "uint256",
        "numberOfBytes": "32"
      },
      "t_uint32": {
        "encoding": "inplace",
        "label": "uint32",
        "numberOfBytes": "4"
      },
      "t_uint64": {
        "encoding": "inplace",
        "label": "uint64",
        "numberOfBytes": "8"
      }
    }
  }
}