{
  "address": "0x69A18c2f44EaAC5631443e636A5388b69C4f5E9a",
  "abi": [
    {
      "inputs": [
        {
          "components": [
            {
              "internalType": "address",
              "name": "platformAddress",
              "type": "address"
            },
            {
              "internalType": "address",
              "name": "vaultAddress",
              "type": "address"
            }
          ],
          "internalType": "struct InitializableAbstractStrategy.BaseStrategyConfig",
          "name": "_baseConfig",
          "type": "tuple"
        },
        {
          "internalType": "address",
          "name": "_wethAddress",
          "type": "address"
        },
        {
          "internalType": "address",
          "name": "_ssvNetwork",
          "type": "address"
        },
        {
          "internalType": "address",
          "name": "_beaconChainDepositContract",
          "type": "address"
        },
        {
          "internalType": "address",
          "name": "_beaconProofs",
          "type": "address"
        },
        {
          "internalType": "uint64",
          "name": "_beaconGenesisTimestamp",
          "type": "uint64"
        }
      ],
      "stateMutability": "nonpayable",
      "type": "constructor"
    },
    {
      "anonymous": false,
      "inputs": [
        {
          "indexed": true,
          "internalType": "bytes32",
          "name": "blockRoot",
          "type": "bytes32"
        },
        {
          "indexed": false,
          "internalType": "uint256",
          "name": "ethBalance",
          "type": "uint256"
        }
      ],
      "name": "BalancesSnapped",
      "type": "event"
    },
    {
      "anonymous": false,
      "inputs": [
        {
          "indexed": true,
          "internalType": "uint64",
          "name": "timestamp",
          "type": "uint64"
        },
        {
          "indexed": false,
          "internalType": "uint256",
          "name": "totalDepositsWei",
          "type": "uint256"
        },
        {
          "indexed": false,
          "internalType": "uint256",
          "name": "totalValidatorBalance",
          "type": "uint256"
        },
        {
          "indexed": false,
          "internalType": "uint256",
          "name": "ethBalance",
          "type": "uint256"
        }
      ],
      "name": "BalancesVerified",
      "type": "event"
    },
    {
      "anonymous": false,
      "inputs": [
        {
          "indexed": true,
          "internalType": "address",
          "name": "_asset",
          "type": "address"
        },
        {
          "indexed": false,
          "internalType": "address",
          "name": "_pToken",
          "type": "address"
        },
        {
          "indexed": false,
          "internalType": "uint256",
          "name": "_amount",
          "type": "uint256"
        }
      ],
      "name": "Deposit",
      "type": "event"
    },
    {
      "anonymous": false,
      "inputs": [
        {
          "indexed": true,
          "internalType": "bytes32",
          "name": "pendingDepositRoot",
          "type": "bytes32"
        },
        {
          "indexed": false,
          "internalType": "uint256",
          "name": "amountWei",
          "type": "uint256"
        }
      ],
      "name": "DepositVerified",
      "type": "event"
    },
    {
      "anonymous": false,
      "inputs": [
        {
          "indexed": true,
          "internalType": "bytes32",
          "name": "pubKeyHash",
          "type": "bytes32"
        },
        {
          "indexed": true,
          "internalType": "bytes32",
          "name": "pendingDepositRoot",
          "type": "bytes32"
        },
        {
          "indexed": false,
          "internalType": "bytes",
          "name": "pubKey",
          "type": "bytes"
        },
        {
          "indexed": false,
          "internalType": "uint256",
          "name": "amountWei",
          "type": "uint256"
        }
      ],
      "name": "ETHStaked",
      "type": "event"
    },
    {
      "anonymous": false,
      "inputs": [],
      "name": "FirstDepositReset",
      "type": "event"
    },
    {
      "anonymous": false,
      "inputs": [
        {
          "indexed": true,
          "internalType": "address",
          "name": "previousGovernor",
          "type": "address"
        },
        {
          "indexed": true,
          "internalType": "address",
          "name": "newGovernor",
          "type": "address"
        }
      ],
      "name": "GovernorshipTransferred",
      "type": "event"
    },
    {
      "anonymous": false,
      "inputs": [
        {
          "indexed": false,
          "internalType": "address",
          "name": "_oldHarvesterAddress",
          "type": "address"
        },
        {
          "indexed": false,
          "internalType": "address",
          "name": "_newHarvesterAddress",
          "type": "address"
        }
      ],
      "name": "HarvesterAddressesUpdated",
      "type": "event"
    },
    {
      "anonymous": false,
      "inputs": [
        {
          "indexed": true,
          "internalType": "address",
          "name": "_asset",
          "type": "address"
        },
        {
          "indexed": false,
          "internalType": "address",
          "name": "_pToken",
          "type": "address"
        }
      ],
      "name": "PTokenAdded",
      "type": "event"
    },
    {
      "anonymous": false,
      "inputs": [
        {
          "indexed": true,
          "internalType": "address",
          "name": "_asset",
          "type": "address"
        },
        {
          "indexed": false,
          "internalType": "address",
          "name": "_pToken",
          "type": "address"
        }
      ],
      "name": "PTokenRemoved",
      "type": "event"
    },
    {
      "anonymous": false,
      "inputs": [
        {
          "indexed": false,
          "internalType": "address",
          "name": "account",
          "type": "address"
        }
      ],
      "name": "Paused",
      "type": "event"
    },
    {
      "anonymous": false,
      "inputs": [
        {
          "indexed": true,
          "internalType": "address",
          "name": "previousGovernor",
          "type": "address"
        },
        {
          "indexed": true,
          "internalType": "address",
          "name": "newGovernor",
          "type": "address"
        }
      ],
      "name": "PendingGovernorshipTransfer",
      "type": "event"
    },
    {
      "anonymous": false,
      "inputs": [
        {
          "indexed": true,
          "internalType": "address",
          "name": "newAddress",
          "type": "address"
        }
      ],
      "name": "RegistratorChanged",
      "type": "event"
    },
    {
      "anonymous": false,
      "inputs": [
        {
          "indexed": false,
          "internalType": "address[]",
          "name": "_oldAddresses",
          "type": "address[]"
        },
        {
          "indexed": false,
          "internalType": "address[]",
          "name": "_newAddresses",
          "type": "address[]"
        }
      ],
      "name": "RewardTokenAddressesUpdated",
      "type": "event"
    },
    {
      "anonymous": false,
      "inputs": [
        {
          "indexed": false,
          "internalType": "address",
          "name": "recipient",
          "type": "address"
        },
        {
          "indexed": false,
          "internalType": "address",
          "name": "rewardToken",
          "type": "address"
        },
        {
          "indexed": false,
          "internalType": "uint256",
          "name": "amount",
          "type": "uint256"
        }
      ],
      "name": "RewardTokenCollected",
      "type": "event"
    },
    {
      "anonymous": false,
      "inputs": [
        {
          "indexed": true,
          "internalType": "bytes32",
          "name": "pubKeyHash",
          "type": "bytes32"
        },
        {
          "indexed": false,
          "internalType": "uint64[]",
          "name": "operatorIds",
          "type": "uint64[]"
        }
      ],
      "name": "SSVValidatorRegistered",
      "type": "event"
    },
    {
      "anonymous": false,
      "inputs": [
        {
          "indexed": true,
          "internalType": "bytes32",
          "name": "pubKeyHash",
          "type": "bytes32"
        },
        {
          "indexed": false,
          "internalType": "uint64[]",
          "name": "operatorIds",
          "type": "uint64[]"
        }
      ],
      "name": "SSVValidatorRemoved",
      "type": "event"
    },
    {
      "anonymous": false,
      "inputs": [
        {
          "indexed": false,
          "internalType": "address",
          "name": "account",
          "type": "address"
        }
      ],
      "name": "Unpaused",
      "type": "event"
    },
    {
      "anonymous": false,
      "inputs": [
        {
          "indexed": true,
          "internalType": "bytes32",
          "name": "pubKeyHash",
          "type": "bytes32"
        }
      ],
      "name": "ValidatorInvalid",
      "type": "event"
    },
    {
      "anonymous": false,
      "inputs": [
        {
          "indexed": true,
          "internalType": "bytes32",
          "name": "pubKeyHash",
          "type": "bytes32"
        },
        {
          "indexed": true,
          "internalType": "uint40",
          "name": "validatorIndex",
          "type": "uint40"
        }
      ],
      "name": "ValidatorVerified",
      "type": "event"
    },
    {
      "anonymous": false,
      "inputs": [
        {
          "indexed": true,
          "internalType": "bytes32",
          "name": "pubKeyHash",
          "type": "bytes32"
        },
        {
          "indexed": false,
          "internalType": "uint256",
          "name": "amountWei",
          "type": "uint256"
        }
      ],
      "name": "ValidatorWithdraw",
      "type": "event"
    },
    {
      "anonymous": false,
      "inputs": [
        {
          "indexed": true,
          "internalType": "address",
          "name": "_asset",
          "type": "address"
        },
        {
          "indexed": false,
          "internalType": "address",
          "name": "_pToken",
          "type": "address"
        },
        {
          "indexed": false,
          "internalType": "uint256",
          "name": "_amount",
          "type": "uint256"
        }
      ],
      "name": "Withdrawal",
      "type": "event"
    },
    {
      "inputs": [],
      "name": "BEACON_PROOFS",
      "outputs": [
        {
          "internalType": "address",
          "name": "",
          "type": "address"
        }
      ],
      "stateMutability": "view",
      "type": "function"
    },
    {
      "inputs": [
        {
          "internalType": "address",
          "name": "",
          "type": "address"
        }
      ],
      "name": "assetToPToken",
      "outputs": [
        {
          "internalType": "address",
          "name": "",
          "type": "address"
        }
      ],
      "stateMutability": "view",
      "type": "function"
    },
    {
      "inputs": [
        {
          "internalType": "address",
          "name": "_asset",
          "type": "address"
        }
      ],
      "name": "checkBalance",
      "outputs": [
        {
          "internalType": "uint256",
          "name": "balance",
          "type": "uint256"
        }
      ],
      "stateMutability": "view",
      "type": "function"
    },
    {
      "inputs": [],
      "name": "claimGovernance",
      "outputs": [],
      "stateMutability": "nonpayable",
      "type": "function"
    },
    {
      "inputs": [],
      "name": "collectRewardTokens",
      "outputs": [],
      "stateMutability": "nonpayable",
      "type": "function"
    },
    {
      "inputs": [
        {
          "internalType": "address",
          "name": "_asset",
          "type": "address"
        },
        {
          "internalType": "uint256",
          "name": "_amount",
          "type": "uint256"
        }
      ],
      "name": "deposit",
      "outputs": [],
      "stateMutability": "nonpayable",
      "type": "function"
    },
    {
      "inputs": [],
      "name": "depositAll",
      "outputs": [],
      "stateMutability": "nonpayable",
      "type": "function"
    },
    {
      "inputs": [
        {
          "internalType": "uint256",
          "name": "",
          "type": "uint256"
        }
      ],
      "name": "depositList",
      "outputs": [
        {
          "internalType": "bytes32",
          "name": "",
          "type": "bytes32"
        }
      ],
      "stateMutability": "view",
      "type": "function"
    },
    {
      "inputs": [],
      "name": "depositListLength",
      "outputs": [
        {
          "internalType": "uint256",
          "name": "",
          "type": "uint256"
        }
      ],
      "stateMutability": "view",
      "type": "function"
    },
    {
      "inputs": [],
      "name": "depositedWethAccountedFor",
      "outputs": [
        {
          "internalType": "uint256",
          "name": "",
          "type": "uint256"
        }
      ],
      "stateMutability": "view",
      "type": "function"
    },
    {
      "inputs": [
        {
          "internalType": "bytes32",
          "name": "",
          "type": "bytes32"
        }
      ],
      "name": "deposits",
      "outputs": [
        {
          "internalType": "bytes32",
          "name": "pubKeyHash",
          "type": "bytes32"
        },
        {
          "internalType": "uint64",
          "name": "amountGwei",
          "type": "uint64"
        },
        {
          "internalType": "uint64",
          "name": "slot",
          "type": "uint64"
        },
        {
          "internalType": "uint32",
          "name": "depositIndex",
          "type": "uint32"
        },
        {
          "internalType": "enum CompoundingValidatorManager.DepositStatus",
          "name": "status",
          "type": "uint8"
        }
      ],
      "stateMutability": "view",
      "type": "function"
    },
    {
      "inputs": [],
      "name": "firstDeposit",
      "outputs": [
        {
          "internalType": "bool",
          "name": "",
          "type": "bool"
        }
      ],
      "stateMutability": "view",
      "type": "function"
    },
    {
      "inputs": [],
      "name": "getRewardTokenAddresses",
      "outputs": [
        {
          "internalType": "address[]",
          "name": "",
          "type": "address[]"
        }
      ],
      "stateMutability": "view",
      "type": "function"
    },
    {
      "inputs": [],
      "name": "governor",
      "outputs": [
        {
          "internalType": "address",
          "name": "",
          "type": "address"
        }
      ],
      "stateMutability": "view",
      "type": "function"
    },
    {
      "inputs": [],
      "name": "harvesterAddress",
      "outputs": [
        {
          "internalType": "address",
          "name": "",
          "type": "address"
        }
      ],
      "stateMutability": "view",
      "type": "function"
    },
    {
      "inputs": [
        {
          "internalType": "address[]",
          "name": "_rewardTokenAddresses",
          "type": "address[]"
        },
        {
          "internalType": "address[]",
          "name": "_assets",
          "type": "address[]"
        },
        {
          "internalType": "address[]",
          "name": "_pTokens",
          "type": "address[]"
        }
      ],
      "name": "initialize",
      "outputs": [],
      "stateMutability": "nonpayable",
      "type": "function"
    },
    {
      "inputs": [],
      "name": "isGovernor",
      "outputs": [
        {
          "internalType": "bool",
          "name": "",
          "type": "bool"
        }
      ],
      "stateMutability": "view",
      "type": "function"
    },
    {
      "inputs": [],
      "name": "lastVerifiedEthBalance",
      "outputs": [
        {
          "internalType": "uint256",
          "name": "",
          "type": "uint256"
        }
      ],
      "stateMutability": "view",
      "type": "function"
    },
    {
      "inputs": [
        {
          "internalType": "uint64[]",
          "name": "operatorIds",
          "type": "uint64[]"
        },
        {
          "components": [
            {
              "internalType": "uint32",
              "name": "validatorCount",
              "type": "uint32"
            },
            {
              "internalType": "uint64",
              "name": "networkFeeIndex",
              "type": "uint64"
            },
            {
              "internalType": "uint64",
              "name": "index",
              "type": "uint64"
            },
            {
              "internalType": "bool",
              "name": "active",
              "type": "bool"
            },
            {
              "internalType": "uint256",
              "name": "balance",
              "type": "uint256"
            }
          ],
          "internalType": "struct Cluster",
          "name": "cluster",
          "type": "tuple"
        }
      ],
      "name": "migrateClusterToETH",
      "outputs": [],
      "stateMutability": "payable",
      "type": "function"
    },
    {
      "inputs": [],
      "name": "pause",
      "outputs": [],
      "stateMutability": "nonpayable",
      "type": "function"
    },
    {
      "inputs": [],
      "name": "paused",
      "outputs": [
        {
          "internalType": "bool",
          "name": "",
          "type": "bool"
        }
      ],
      "stateMutability": "view",
      "type": "function"
    },
    {
      "inputs": [],
      "name": "platformAddress",
      "outputs": [
        {
          "internalType": "address",
          "name": "",
          "type": "address"
        }
      ],
      "stateMutability": "view",
      "type": "function"
    },
    {
      "inputs": [
        {
          "internalType": "bytes",
          "name": "publicKey",
          "type": "bytes"
        },
        {
          "internalType": "uint64[]",
          "name": "operatorIds",
          "type": "uint64[]"
        },
        {
          "internalType": "bytes",
          "name": "sharesData",
          "type": "bytes"
        },
        {
          "components": [
            {
              "internalType": "uint32",
              "name": "validatorCount",
              "type": "uint32"
            },
            {
              "internalType": "uint64",
              "name": "networkFeeIndex",
              "type": "uint64"
            },
            {
              "internalType": "uint64",
              "name": "index",
              "type": "uint64"
            },
            {
              "internalType": "bool",
              "name": "active",
              "type": "bool"
            },
            {
              "internalType": "uint256",
              "name": "balance",
              "type": "uint256"
            }
          ],
          "internalType": "struct Cluster",
          "name": "cluster",
          "type": "tuple"
        }
      ],
      "name": "registerSsvValidator",
      "outputs": [],
      "stateMutability": "payable",
      "type": "function"
    },
    {
      "inputs": [
        {
          "internalType": "uint256",
          "name": "",
          "type": "uint256"
        }
      ],
      "name": "removePToken",
      "outputs": [],
      "stateMutability": "pure",
      "type": "function"
    },
    {
      "inputs": [
        {
          "internalType": "bytes",
          "name": "publicKey",
          "type": "bytes"
        },
        {
          "internalType": "uint64[]",
          "name": "operatorIds",
          "type": "uint64[]"
        },
        {
          "components": [
            {
              "internalType": "uint32",
              "name": "validatorCount",
              "type": "uint32"
            },
            {
              "internalType": "uint64",
              "name": "networkFeeIndex",
              "type": "uint64"
            },
            {
              "internalType": "uint64",
              "name": "index",
              "type": "uint64"
            },
            {
              "internalType": "bool",
              "name": "active",
              "type": "bool"
            },
            {
              "internalType": "uint256",
              "name": "balance",
              "type": "uint256"
            }
          ],
          "internalType": "struct Cluster",
          "name": "cluster",
          "type": "tuple"
        }
      ],
      "name": "removeSsvValidator",
      "outputs": [],
      "stateMutability": "nonpayable",
      "type": "function"
    },
    {
      "inputs": [],
      "name": "resetFirstDeposit",
      "outputs": [],
      "stateMutability": "nonpayable",
      "type": "function"
    },
    {
      "inputs": [
        {
          "internalType": "uint256",
          "name": "",
          "type": "uint256"
        }
      ],
      "name": "rewardTokenAddresses",
      "outputs": [
        {
          "internalType": "address",
          "name": "",
          "type": "address"
        }
      ],
      "stateMutability": "view",
      "type": "function"
    },
    {
      "inputs": [],
      "name": "safeApproveAllTokens",
      "outputs": [],
      "stateMutability": "nonpayable",
      "type": "function"
    },
    {
      "inputs": [
        {
          "internalType": "address",
          "name": "_harvesterAddress",
          "type": "address"
        }
      ],
      "name": "setHarvesterAddress",
      "outputs": [],
      "stateMutability": "nonpayable",
      "type": "function"
    },
    {
      "inputs": [
        {
          "internalType": "address",
          "name": "",
          "type": "address"
        },
        {
          "internalType": "address",
          "name": "",
          "type": "address"
        }
      ],
      "name": "setPTokenAddress",
      "outputs": [],
      "stateMutability": "pure",
      "type": "function"
    },
    {
      "inputs": [
        {
          "internalType": "address",
          "name": "_address",
          "type": "address"
        }
      ],
      "name": "setRegistrator",
      "outputs": [],
      "stateMutability": "nonpayable",
      "type": "function"
    },
    {
      "inputs": [
        {
          "internalType": "address[]",
          "name": "_rewardTokenAddresses",
          "type": "address[]"
        }
      ],
      "name": "setRewardTokenAddresses",
      "outputs": [],
      "stateMutability": "nonpayable",
      "type": "function"
    },
    {
      "inputs": [],
      "name": "snapBalances",
      "outputs": [],
      "stateMutability": "nonpayable",
      "type": "function"
    },
    {
      "inputs": [],
      "name": "snappedBalance",
      "outputs": [
        {
          "internalType": "bytes32",
          "name": "blockRoot",
          "type": "bytes32"
        },
        {
          "internalType": "uint64",
          "name": "timestamp",
          "type": "uint64"
        },
        {
          "internalType": "uint128",
          "name": "ethBalance",
          "type": "uint128"
        }
      ],
      "stateMutability": "view",
      "type": "function"
    },
    {
      "inputs": [
        {
          "components": [
            {
              "internalType": "bytes",
              "name": "pubkey",
              "type": "bytes"
            },
            {
              "internalType": "bytes",
              "name": "signature",
              "type": "bytes"
            },
            {
              "internalType": "bytes32",
              "name": "depositDataRoot",
              "type": "bytes32"
            }
          ],
          "internalType": "struct CompoundingValidatorManager.ValidatorStakeData",
          "name": "validatorStakeData",
          "type": "tuple"
        },
        {
          "internalType": "uint64",
          "name": "depositAmountGwei",
          "type": "uint64"
        }
      ],
      "name": "stakeEth",
      "outputs": [],
      "stateMutability": "nonpayable",
      "type": "function"
    },
    {
      "inputs": [
        {
          "internalType": "address",
          "name": "_asset",
          "type": "address"
        }
      ],
      "name": "supportsAsset",
      "outputs": [
        {
          "internalType": "bool",
          "name": "",
          "type": "bool"
        }
      ],
      "stateMutability": "view",
      "type": "function"
    },
    {
      "inputs": [
        {
          "internalType": "address",
          "name": "_newGovernor",
          "type": "address"
        }
      ],
      "name": "transferGovernance",
      "outputs": [],
      "stateMutability": "nonpayable",
      "type": "function"
    },
    {
      "inputs": [
        {
          "internalType": "address",
          "name": "_asset",
          "type": "address"
        },
        {
          "internalType": "uint256",
          "name": "_amount",
          "type": "uint256"
        }
      ],
      "name": "transferToken",
      "outputs": [],
      "stateMutability": "nonpayable",
      "type": "function"
    },
    {
      "inputs": [],
      "name": "unPause",
      "outputs": [],
      "stateMutability": "nonpayable",
      "type": "function"
    },
    {
      "inputs": [
        {
          "internalType": "bytes32",
          "name": "",
          "type": "bytes32"
        }
      ],
      "name": "validator",
      "outputs": [
        {
          "internalType": "enum CompoundingValidatorManager.ValidatorState",
          "name": "state",
          "type": "uint8"
        },
        {
          "internalType": "uint40",
          "name": "index",
          "type": "uint40"
        }
      ],
      "stateMutability": "view",
      "type": "function"
    },
    {
      "inputs": [],
      "name": "validatorRegistrator",
      "outputs": [
        {
          "internalType": "address",
          "name": "",
          "type": "address"
        }
      ],
      "stateMutability": "view",
      "type": "function"
    },
    {
      "inputs": [
        {
          "internalType": "bytes",
          "name": "publicKey",
          "type": "bytes"
        },
        {
          "internalType": "uint64",
          "name": "amountGwei",
          "type": "uint64"
        }
      ],
      "name": "validatorWithdrawal",
      "outputs": [],
      "stateMutability": "payable",
      "type": "function"
    },
    {
      "inputs": [],
      "name": "vaultAddress",
      "outputs": [
        {
          "internalType": "address",
          "name": "",
          "type": "address"
        }
      ],
      "stateMutability": "view",
      "type": "function"
    },
    {
      "inputs": [
        {
          "internalType": "uint256",
          "name": "",
          "type": "uint256"
        }
      ],
      "name": "verifiedValidators",
      "outputs": [
        {
          "internalType": "bytes32",
          "name": "",
          "type": "bytes32"
        }
      ],
      "stateMutability": "view",
      "type": "function"
    },
    {
      "inputs": [],
      "name": "verifiedValidatorsLength",
      "outputs": [
        {
          "internalType": "uint256",
          "name": "",
          "type": "uint256"
        }
      ],
      "stateMutability": "view",
      "type": "function"
    },
    {
      "inputs": [
        {
          "components": [
            {
              "internalType": "bytes32",
              "name": "balancesContainerRoot",
              "type": "bytes32"
            },
            {
              "internalType": "bytes",
              "name": "balancesContainerProof",
              "type": "bytes"
            },
            {
              "internalType": "bytes32[]",
              "name": "validatorBalanceLeaves",
              "type": "bytes32[]"
            },
            {
              "internalType": "bytes[]",
              "name": "validatorBalanceProofs",
              "type": "bytes[]"
            }
          ],
          "internalType": "struct CompoundingValidatorManager.BalanceProofs",
          "name": "balanceProofs",
          "type": "tuple"
        },
        {
          "components": [
            {
              "internalType": "bytes32",
              "name": "pendingDepositContainerRoot",
              "type": "bytes32"
            },
            {
              "internalType": "bytes",
              "name": "pendingDepositContainerProof",
              "type": "bytes"
            },
            {
              "internalType": "uint32[]",
              "name": "pendingDepositIndexes",
              "type": "uint32[]"
            },
            {
              "internalType": "bytes[]",
              "name": "pendingDepositProofs",
              "type": "bytes[]"
            }
          ],
          "internalType": "struct CompoundingValidatorManager.PendingDepositProofs",
          "name": "pendingDepositProofs",
          "type": "tuple"
        }
      ],
      "name": "verifyBalances",
      "outputs": [],
      "stateMutability": "nonpayable",
      "type": "function"
    },
    {
      "inputs": [
        {
          "internalType": "bytes32",
          "name": "pendingDepositRoot",
          "type": "bytes32"
        },
        {
          "internalType": "uint64",
          "name": "depositProcessedSlot",
          "type": "uint64"
        },
        {
          "components": [
            {
              "internalType": "uint64",
              "name": "slot",
              "type": "uint64"
            },
            {
              "internalType": "bytes",
              "name": "proof",
              "type": "bytes"
            }
          ],
          "internalType": "struct CompoundingValidatorManager.FirstPendingDepositSlotProofData",
          "name": "firstPendingDeposit",
          "type": "tuple"
        },
        {
          "components": [
            {
              "internalType": "uint64",
              "name": "withdrawableEpoch",
              "type": "uint64"
            },
            {
              "internalType": "bytes",
              "name": "withdrawableEpochProof",
              "type": "bytes"
            }
          ],
          "internalType": "struct CompoundingValidatorManager.StrategyValidatorProofData",
          "name": "strategyValidatorData",
          "type": "tuple"
        }
      ],
      "name": "verifyDeposit",
      "outputs": [],
      "stateMutability": "nonpayable",
      "type": "function"
    },
    {
      "inputs": [
        {
          "internalType": "uint64",
          "name": "nextBlockTimestamp",
          "type": "uint64"
        },
        {
          "internalType": "uint40",
          "name": "validatorIndex",
          "type": "uint40"
        },
        {
          "internalType": "bytes32",
          "name": "pubKeyHash",
          "type": "bytes32"
        },
        {
          "internalType": "bytes32",
          "name": "withdrawalCredentials",
          "type": "bytes32"
        },
        {
          "internalType": "bytes",
          "name": "validatorPubKeyProof",
          "type": "bytes"
        }
      ],
      "name": "verifyValidator",
      "outputs": [],
      "stateMutability": "nonpayable",
      "type": "function"
    },
    {
      "inputs": [
        {
          "internalType": "address",
          "name": "_recipient",
          "type": "address"
        },
        {
          "internalType": "address",
          "name": "_asset",
          "type": "address"
        },
        {
          "internalType": "uint256",
          "name": "_amount",
          "type": "uint256"
        }
      ],
      "name": "withdraw",
      "outputs": [],
      "stateMutability": "nonpayable",
      "type": "function"
    },
    {
      "inputs": [],
      "name": "withdrawAll",
      "outputs": [],
      "stateMutability": "nonpayable",
      "type": "function"
    },
    {
      "stateMutability": "payable",
      "type": "receive"
    }
  ],
  "transactionHash": "0xb3240e7f30c35eaed078a0d050acc1743d87209b23f0c708a3b827d40a909803",
  "args": [
    [
      "0x0000000000000000000000000000000000000000",
      "0xD0cC28bc8F4666286F3211e465ecF1fe5c72AC8B"
    ],
    "0x2387fD72C1DA19f6486B843F5da562679FbB4057",
    "0x58410Bef803ECd7E63B23664C586A6DB72DAf59c",
    "0x00000000219ab540356cBB839Cbe05303d7705Fa",
    "0x04b2D730106B9cA91aA011984eD2F7d62D00cF9f",
    1742213400
  ],
  "numDeployments": 11,
  "solcInputHash": "f0eb16952201d3d1d8a09654d7b7706c",
  "bytecode": "0x61018060405234801561001157600080fd5b5060405161620e38038061620e833981016040819052610030916101a8565b60208601516033805460ff191690556001600160a01b0380871660805280851660a05280861660c05280821660e0528316610100526001600160401b03821661012081905287918791869088908790879042116100d35760405162461bcd60e51b815260206004820152601960248201527f496e76616c69642067656e657369732074696d657374616d7000000000000000604482015260640160405180910390fd5b505084516001600160a01b039081166101405260209095015190941661016052506101039250600091505061010e565b505050505050610272565b6001600160a01b03811661012e6000805160206161ee8339815191525490565b6001600160a01b03167fc7c0c772add429241571afb3805861fb3cfa2af374534088b76cdb4325a87e9a60405160405180910390a36000805160206161ee83398151915255565b80516001600160a01b038116811461018c57600080fd5b919050565b80516001600160401b038116811461018c57600080fd5b60008060008060008086880360e08112156101c257600080fd5b60408112156101d057600080fd5b50604080519081016001600160401b038111828210171561020157634e487b7160e01b600052604160045260246000fd5b60405261020d88610175565b815261021b60208901610175565b6020820152955061022e60408801610175565b945061023c60608801610175565b935061024a60808801610175565b925061025860a08801610175565b915061026660c08801610191565b90509295509295509295565b60805160a05160c05160e05161010051610120516101405161016051615e486103a6600039600081816104ec015281816122c50152818161317b015281816132f30152818161363e015281816138ad015261446d0152600061094d015260008181611f470152613af70152600081816106f601528181610d2601528181610dca01528181611273015281816113a601528181611733015281816117f001528181611f910152612b59015260005050600081816119df0152818161302801526137e1015260006121d101526000818161082c0152818161109501528181611b8f0152818161236401528181612894015281816128f801528181613269015281816135e40152818161396201528181613a0d01528181613f3b01528181614514015281816149380152614a050152615e486000f3fe6080604052600436106102cd5760003560e01c80636e811d3811610175578063ad1728cb116100dc578063d79e403211610095578063dbe55e561161006f578063dbe55e561461093b578063de5f62681461096f578063f6ca71b014610984578063f7b188a5146109a657600080fd5b8063d79e4032146108f3578063d9caed1214610908578063daa1e2531461092857600080fd5b8063ad1728cb1461085c578063b8ec667814610868578063c2e1e3f414610888578063c7af3352146108a8578063d059f6ef146108bd578063d38bfff4146108d357600080fd5b806387bae8671161012e57806387bae867146107425780639136616a1461076757806396d538bb1461078257806398245f1b146107a2578063a5f5be54146107ee578063aa388af61461080f57600080fd5b80636e811d381461068457806371a735f3146106a45780637b2d9b2c146106c45780637da9982a146106e45780638456cb5914610718578063853828b61461072d57600080fd5b80634583ef10116102345780635a063f63116101ed5780635f515226116101c75780635f5152261461060f57806367c7066c1461062f5780636874469d1461064f5780636c341d1a1461066457600080fd5b80635a063f63146105c15780635c975abb146105d65780635d36b190146105fa57600080fd5b80634583ef101461052e57806347e7ef241461054e5780634896b31a1461056e5780634c84e6f814610583578063522e42451461059857806359ff4158146105ab57600080fd5b80631a1a1571116102865780631a1a1571146103d157806325e2e9f3146103f157806336e87b12146104535780633d4dff7b14610466578063430bf08a146104da578063435356d11461050e57600080fd5b80630c340a24146102d95780630d3041741461030b5780630ed57b3a1461032d5780630ef998551461034d5780630fc3b4c41461037b5780631072cbea146103b157600080fd5b366102d457005b600080fd5b3480156102e557600080fd5b506102ee6109bb565b6040516001600160a01b0390911681526020015b60405180910390f35b34801561031757600080fd5b5061032b610326366004614c5a565b6109d8565b005b34801561033957600080fd5b5061032b610348366004614cf2565b611007565b34801561035957600080fd5b5061036d610368366004614d25565b611046565b604051908152602001610302565b34801561038757600080fd5b506102ee610396366004614d3e565b6067602052600090815260409020546001600160a01b031681565b3480156103bd57600080fd5b5061032b6103cc366004614d59565b611067565b3480156103dd57600080fd5b5061032b6103ec366004614d95565b611126565b3480156103fd57600080fd5b5060385460395461042791906001600160401b03811690600160401b90046001600160801b031683565b604080519384526001600160401b0390921660208401526001600160801b031690820152606001610302565b61032b610461366004614f12565b6119a4565b34801561047257600080fd5b506104c9610481366004614d25565b603460205260009081526040902080546001909101546001600160401b0380821691600160401b810490911690600160801b810463ffffffff1690600160a01b900460ff1685565b604051610302959493929190614fd4565b3480156104e657600080fd5b506102ee7f000000000000000000000000000000000000000000000000000000000000000081565b34801561051a57600080fd5b5061032b61052936600461508d565b611a4e565b34801561053a57600080fd5b5061032b61054936600461511e565b611b33565b34801561055a57600080fd5b5061032b610569366004614d59565b6122ba565b34801561057a57600080fd5b5060355461036d565b34801561058f57600080fd5b5061032b612461565b61032b6105a63660046151af565b612509565b3480156105b757600080fd5b5061036d603a5481565b3480156105cd57600080fd5b5061032b61274b565b3480156105e257600080fd5b5060335460ff165b6040519015158152602001610302565b34801561060657600080fd5b5061032b6127ea565b34801561061b57600080fd5b5061036d61062a366004614d3e565b612890565b34801561063b57600080fd5b50606b546102ee906001600160a01b031681565b34801561065b57600080fd5b5061032b61297e565b34801561067057600080fd5b5061032b61067f366004615202565b612acb565b34801561069057600080fd5b5061032b61069f366004614d3e565b612e93565b3480156106b057600080fd5b5061032b6106bf3660046152db565b612f09565b3480156106d057600080fd5b506102ee6106df366004614d25565b6130d1565b3480156106f057600080fd5b506102ee7f000000000000000000000000000000000000000000000000000000000000000081565b34801561072457600080fd5b5061032b6130fb565b34801561073957600080fd5b5061032b613170565b34801561074e57600080fd5b506033546102ee9061010090046001600160a01b031681565b34801561077357600080fd5b5061032b610348366004614d25565b34801561078e57600080fd5b5061032b61079d366004615360565b613323565b3480156107ae57600080fd5b506107e06107bd366004614d25565b60376020526000908152604090205460ff811690610100900464ffffffffff1682565b6040516103029291906153a1565b3480156107fa57600080fd5b506033546105ea90600160a81b900460ff1681565b34801561081b57600080fd5b506105ea61082a366004614d3e565b7f00000000000000000000000000000000000000000000000000000000000000006001600160a01b0390811691161490565b34801561032b57600080fd5b34801561087457600080fd5b5061036d610883366004614d25565b61343a565b34801561089457600080fd5b5061032b6108a3366004614d3e565b61344a565b3480156108b457600080fd5b506105ea6134d7565b3480156108c957600080fd5b5061036d603b5481565b3480156108df57600080fd5b5061032b6108ee366004614d3e565b613508565b3480156108ff57600080fd5b5060365461036d565b34801561091457600080fd5b5061032b6109233660046153cb565b6135ac565b61032b610936366004615408565b6136da565b34801561094757600080fd5b506102ee7f000000000000000000000000000000000000000000000000000000000000000081565b34801561097b57600080fd5b5061032b6138a2565b34801561099057600080fd5b50610999613a63565b60405161030291906154be565b3480156109b257600080fd5b5061032b613ac5565b60006109d3600080516020615df38339815191525490565b905090565b6000848152603460209081526040808320815160a0810183528154815260018201546001600160401b0380821695830195909552600160401b810490941692810192909252600160801b830463ffffffff16606083015290916080830190600160a01b900460ff166002811115610a5157610a51614fbe565b6002811115610a6257610a62614fbe565b9052508051600090815260376020526040808220815180830190925280549394509192909190829060ff166008811115610a9e57610a9e614fbe565b6008811115610aaf57610aaf614fbe565b81529054610100900464ffffffffff166020909101529050600182608001516002811115610adf57610adf614fbe565b14610b275760405162461bcd60e51b81526020600482015260136024820152724465706f736974206e6f742070656e64696e6760681b60448201526064015b60405180910390fd5b610b34602085018561550a565b6001600160401b0316600003610b8c5760405162461bcd60e51b815260206004820152601d60248201527f5a65726f203173742070656e64696e67206465706f73697420736c6f740000006044820152606401610b1e565b600381516008811115610ba157610ba1614fbe565b1480610bbf5750600481516008811115610bbd57610bbd614fbe565b145b80610bdc5750600581516008811115610bda57610bda614fbe565b145b610c285760405162461bcd60e51b815260206004820152601b60248201527f4e6f742076657269666965642f6163746976652f65786974696e6700000000006044820152606401610b1e565b846001600160401b031682604001516001600160401b031610610c865760405162461bcd60e51b815260206004820152601660248201527514db1bdd081b9bdd0818599d195c8819195c1bdcda5d60521b6044820152606401610b1e565b6039546001600160401b031680610c9c87613af1565b6001600160401b0316111580610cb957506001600160401b038116155b610d055760405162461bcd60e51b815260206004820152601e60248201527f4465706f7369742061667465722062616c616e636520736e617073686f7400006044820152606401610b1e565b6000610d18610d1388613af1565b613b34565b905060006001600160a01b037f00000000000000000000000000000000000000000000000000000000000000001663d98a556483610d5960208b018b61550a565b610d6660208c018c615525565b6040518563ffffffff1660e01b8152600401610d859493929190615594565b602060405180830381865afa158015610da2573d6000803e3d6000fd5b505050506040513d601f19601f82011682018060405250810190610dc691906155c7565b90507f00000000000000000000000000000000000000000000000000000000000000006001600160a01b031663334a88fb838660200151896000016020810190610e10919061550a565b610e1d60208c018c615525565b6040518663ffffffff1660e01b8152600401610e3d9594939291906155e4565b60006040518083038186803b158015610e5557600080fd5b505afa158015610e69573d6000803e3d6000fd5b506000925060209150610e8090508982018a61550a565b610e8a9190615630565b90506001600160401b03610ea1602089018961550a565b6001600160401b03161480610ed457506001600160401b038116610ec8602089018961550a565b6001600160401b031611155b80610edc5750815b610f285760405162461bcd60e51b815260206004820152601d60248201527f45786974204465706f736974206c696b656c79206e6f742070726f632e0000006044820152606401610b1e565b610f35602089018961550a565b6001600160401b031686604001516001600160401b03161080610f555750815b610fa15760405162461bcd60e51b815260206004820152601c60248201527f4465706f736974206c696b656c79206e6f742070726f636573736564000000006044820152606401610b1e565b610fab8a87613c39565b897fae0e4f727389efd70d748d667436e0264f370ae498b339b713797dbab57b12ff87602001516001600160401b0316633b9aca00610fea919061566c565b60405190815260200160405180910390a250505050505050505050565b60405162461bcd60e51b81526020600482015260146024820152732ab739bab83837b93a32b210333ab731ba34b7b760611b6044820152606401610b1e565b6036818154811061105657600080fd5b600091825260209091200154905081565b61106f6134d7565b61108b5760405162461bcd60e51b8152600401610b1e90615683565b6001600160a01b037f00000000000000000000000000000000000000000000000000000000000000008116908316036111065760405162461bcd60e51b815260206004820152601f60248201527f43616e6e6f74207472616e7366657220737570706f72746564206173736574006044820152606401610b1e565b6111226111116109bb565b6001600160a01b0384169083613d1a565b5050565b61112e613d71565b6040805160608101825260385481526039546001600160401b03811660208301819052600160401b9091046001600160801b031692820192909252906111ac5760405162461bcd60e51b81526020600482015260136024820152724e6f20736e61707065642062616c616e63657360681b6044820152606401610b1e565b603654603554600090821561166c57826111c960608801886156ba565b9050146112115760405162461bcd60e51b8152602060048201526016602482015275496e76616c69642062616c616e63652070726f6f667360501b6044820152606401610b1e565b8261121f60408801886156ba565b9050146112675760405162461bcd60e51b8152602060048201526016602482015275496e76616c69642062616c616e6365206c656176657360501b6044820152606401610b1e565b83516001600160a01b037f000000000000000000000000000000000000000000000000000000000000000016906391ad640d9088356112a960208b018b615525565b6040518563ffffffff1660e01b81526004016112c89493929190615703565b60006040518083038186803b1580156112e057600080fd5b505afa1580156112f4573d6000803e3d6000fd5b50505050600061130382613dc2565b9050835b80156116695761131681615723565b9050600060376000603684815481106113315761133161573a565b906000526020600020015481526020019081526020016000206040518060400160405290816000820160009054906101000a900460ff16600881111561137957611379614fbe565b600881111561138a5761138a614fbe565b81529054610100900464ffffffffff16602090910152905060007f00000000000000000000000000000000000000000000000000000000000000006001600160a01b031663f34ad34c8b356113e260408e018e6156ba565b878181106113f2576113f261573a565b905060200201358d806060019061140991906156ba565b888181106114195761141961573a565b905060200281019061142b9190615525565b87602001516040518663ffffffff1660e01b8152600401611450959493929190615750565b602060405180830381865afa15801561146d573d6000803e3d6000fd5b505050506040513d601f19601f820116820180604052508101906114919190615789565b9050806000036115c9576000805b85518110156114f657603685815481106114bb576114bb61573a565b90600052602060002001548682815181106114d8576114d861573a565b6020026020010151036114ee57600191506114f6565b60010161149f565b50806115c157600660376000603687815481106115155761151561573a565b600091825260208083209091015483528201929092526040019020805460ff1916600183600881111561154a5761154a614fbe565b021790555061155a6001896157a2565b97506036888154811061156f5761156f61573a565b90600052602060002001546036858154811061158d5761158d61573a565b60009182526020909120015560368054806115aa576115aa6157b5565b600190038181906000526020600020016000905590555b505050611307565b6003825160088111156115de576115de614fbe565b1480156115ef57506407823ff28081115b15611648576004603760006036868154811061160d5761160d61573a565b600091825260208083209091015483528201929092526040019020805460ff1916600183600881111561164257611642614fbe565b02179055505b61165681633b9aca0061566c565b61166090876157cb565b95505050611307565b50505b60008115611909578161168260608801886156ba565b9050146116ca5760405162461bcd60e51b8152602060048201526016602482015275496e76616c6964206465706f7369742070726f6f667360501b6044820152606401610b1e565b816116d860408801886156ba565b9050146117275760405162461bcd60e51b815260206004820152601760248201527f496e76616c6964206465706f73697420696e64657865730000000000000000006044820152606401610b1e565b84516001600160a01b037f00000000000000000000000000000000000000000000000000000000000000001690632b00e79690883561176960208b018b615525565b6040518563ffffffff1660e01b81526004016117889493929190615703565b60006040518083038186803b1580156117a057600080fd5b505afa1580156117b4573d6000803e3d6000fd5b5050505060005b82811015611907576000603582815481106117d8576117d861573a565b60009182526020909120015490506001600160a01b037f000000000000000000000000000000000000000000000000000000000000000016638a050dd489358361182560608d018d6156ba565b878181106118355761183561573a565b90506020028101906118479190615525565b61185460408f018f6156ba565b898181106118645761186461573a565b905060200201602081019061187991906157de565b6040518663ffffffff1660e01b81526004016118999594939291906157f9565b60006040518083038186803b1580156118b157600080fd5b505afa1580156118c5573d6000803e3d6000fd5b5050506000828152603460205260409020600101546118f291506001600160401b0316633b9aca0061566c565b6118fc90846157cb565b9250506001016117bb565b505b60408501516001600160801b031661192184836157cb565b61192b91906157cb565b603a556039805467ffffffffffffffff1916905560208581015160408088015181518581529384018790526001600160801b0316908301526001600160401b0316907fed2528338eefb63fd1860078b91e35106bc25e3fd528634d180f662582fe5ec1906060015b60405180910390a250505050505050565b6119ac6134d7565b6119c85760405162461bcd60e51b8152600401610b1e90615683565b604051631b743d8960e11b81526001600160a01b037f000000000000000000000000000000000000000000000000000000000000000016906336e87b12903490611a189086908690600401615831565b6000604051808303818588803b158015611a3157600080fd5b505af1158015611a45573d6000803e3d6000fd5b50505050505050565b611a566134d7565b611a725760405162461bcd60e51b8152600401610b1e90615683565b600054610100900460ff1680611a8b575060005460ff16155b611aee5760405162461bcd60e51b815260206004820152602e60248201527f496e697469616c697a61626c653a20636f6e747261637420697320616c72656160448201526d191e481a5b9a5d1a585b1a5e995960921b6064820152608401610b1e565b600054610100900460ff16158015611b10576000805461ffff19166101011790555b611b1b848484613e72565b8015611b2d576000805461ff00191690555b50505050565b611b3b613d71565b60335460ff1615611b5e5760405162461bcd60e51b8152600401610b1e906158cb565b6000611b776001600160401b038316633b9aca0061566c565b6040516370a0823160e01b81523060048201529091507f00000000000000000000000000000000000000000000000000000000000000006001600160a01b0316906370a0823190602401602060405180830381865afa158015611bde573d6000803e3d6000fd5b505050506040513d601f19601f82011682018060405250810190611c029190615789565b811115611c455760405162461bcd60e51b8152602060048201526011602482015270092dce6eaccccd2c6d2cadce840ae8aa89607b1b6044820152606401610b1e565b603554602011611c865760405162461bcd60e51b815260206004820152600c60248201526b4d6178206465706f7369747360a01b6044820152606401610b1e565b611c8f81613f25565b6000611cd8611c9e8580615525565b8080601f016020809104026020016040519081016040528093929190818152602001838380828437600092019190915250613ff492505050565b60008181526037602052604090205490915060ff166001816008811115611d0157611d01614fbe565b1480611d1e57506003816008811115611d1c57611d1c614fbe565b145b80611d3a57506004816008811115611d3857611d38614fbe565b145b611d865760405162461bcd60e51b815260206004820152601a60248201527f4e6f742072656769737465726564206f722076657269666965640000000000006044820152606401610b1e565b670de0b6b3a7640000831015611dd25760405162461bcd60e51b815260206004820152601160248201527011195c1bdcda5d081d1bdbc81cdb585b1b607a1b6044820152606401610b1e565b6001816008811115611de657611de6614fbe565b03611f1457603354600160a81b900460ff1615611e3e5760405162461bcd60e51b8152602060048201526016602482015275115e1a5cdd1a5b99c8199a5c9cdd0819195c1bdcda5d60521b6044820152606401610b1e565b670de0b6b3a76400008314611e955760405162461bcd60e51b815260206004820152601c60248201527f496e76616c6964206669727374206465706f73697420616d6f756e74000000006044820152606401610b1e565b603654603090611ea69060016157cb565b1115611ee55760405162461bcd60e51b815260206004820152600e60248201526d4d61782076616c696461746f727360901b6044820152606401610b1e565b60338054600160a81b60ff60a81b199091161790556000828152603760205260409020805460ff191660021790555b604051600090611f3090600160f91b90839030906020016158f5565b60405160208183030381529060405290506000600c7f0000000000000000000000000000000000000000000000000000000000000000611f6f426140ad565b611f799190615933565b611f839190615630565b905060006001600160a01b037f00000000000000000000000000000000000000000000000000000000000000001663afe7688786858a611fc660208e018e615525565b886040518763ffffffff1660e01b8152600401611fe8969594939291906159a2565b602060405180830381865afa158015612005573d6000803e3d6000fd5b505050506040513d601f19601f820116820180604052508101906120299190615789565b905060008082815260346020526040902060010154600160a01b900460ff16600281111561205957612059614fbe565b1461209a5760405162461bcd60e51b8152602060048201526011602482015270111d5c1b1a58d85d194819195c1bdcda5d607a1b6044820152606401610b1e565b6040518060a00160405280868152602001886001600160401b03168152602001836001600160401b031681526020016120d7603580549050614119565b63ffffffff16815260200160019052600082815260346020908152604091829020835181559083015160018201805493850151606086015163ffffffff16600160801b0263ffffffff60801b196001600160401b03928316600160401b026001600160801b03199097169290941691909117949094179182168417815560808501519293909160ff60a01b1990911664ffffffffff60801b1990911617600160a01b83600281111561218b5761218b614fbe565b021790555050603580546001810182556000919091527fcfa4bec1d3298408bb5afcfcd9c430549c5b31f8aa5c5848151c0a55f473c34d01829055506001600160a01b037f0000000000000000000000000000000000000000000000000000000000000000166322895118876122018b80615525565b8761220f60208f018f615525565b8f604001356040518863ffffffff1660e01b8152600401612235969594939291906159fa565b6000604051808303818588803b15801561224e57600080fd5b505af1158015612262573d6000803e3d6000fd5b508493508892507faca97428a1d7f2b7c4cee2fbe4feda457e132b404b0c9c3ff73bf7a988d889a8915061229890508b80615525565b8a6040516122a893929190615a49565b60405180910390a35050505050505050565b336001600160a01b037f0000000000000000000000000000000000000000000000000000000000000000161461232c5760405162461bcd60e51b815260206004820152601760248201527610d85b1b195c881a5cc81b9bdd081d1a194815985d5b1d604a1b6044820152606401610b1e565b600080516020615dd38339815191528054600119810161235e5760405162461bcd60e51b8152600401610b1e90615a6d565b600282557f00000000000000000000000000000000000000000000000000000000000000006001600160a01b0316846001600160a01b0316146123b35760405162461bcd60e51b8152600401610b1e90615a95565b600083116123fc5760405162461bcd60e51b81526020600482015260166024820152754d757374206465706f73697420736f6d657468696e6760501b6044820152606401610b1e565b82603b600082825461240e91906157cb565b90915550506040805160008152602081018590526001600160a01b038616917f5548c837ab068cf56a2c2479df0882a4922fd203edb7517321831d95078c5f62910160405180910390a250600190555050565b6124696134d7565b6124855760405162461bcd60e51b8152600401610b1e90615683565b603354600160a81b900460ff166124d15760405162461bcd60e51b815260206004820152601060248201526f139bc8199a5c9cdd0819195c1bdcda5d60821b6044820152606401610b1e565b6033805460ff60a81b191690556040517fce77f85e30b0e6df0d12527ddf038f900fdeda0eeda4284c52be47b05de31a9790600090a1565b612511613d71565b600061255284848080601f016020809104026020016040519081016040528093929190818152602001838380828437600092019190915250613ff492505050565b600081815260376020526040808220815180830190925280549394509192909190829060ff16600881111561258957612589614fbe565b600881111561259a5761259a614fbe565b81529054610100900464ffffffffff1660209091015290506004815160088111156125c7576125c7614fbe565b14806125e557506005815160088111156125e3576125e3614fbe565b145b6126315760405162461bcd60e51b815260206004820152601c60248201527f56616c696461746f72206e6f74206163746976652f65786974696e67000000006044820152606401610b1e565b826001600160401b03166000036126ee5760355460005b818110156126d2576000603582815481106126655761266561573a565b90600052602060002001549050603460008281526020019081526020016000206000015485036126c95760405162461bcd60e51b815260206004820152600f60248201526e14195b991a5b99c819195c1bdcda5d608a1b6044820152606401610b1e565b50600101612648565b50506000828152603760205260409020805460ff191660051790555b6126f985858561417e565b50817f8dd83105dbd4263d41c76e5d414905babdd3f035bd2031f6ce8895715595979c6127336001600160401b038616633b9aca0061566c565b60405190815260200160405180910390a25050505050565b606b546001600160a01b031633146127a55760405162461bcd60e51b815260206004820152601b60248201527f43616c6c6572206973206e6f74207468652048617276657374657200000000006044820152606401610b1e565b600080516020615dd3833981519152805460011981016127d75760405162461bcd60e51b8152600401610b1e90615a6d565b600282556127e3611007565b5060019055565b7f44c4d30b2eaad5130ad70c3ba6972730566f3e6359ab83e800d905c61b1c51db546001600160a01b0316336001600160a01b0316146128855760405162461bcd60e51b815260206004820152603060248201527f4f6e6c79207468652070656e64696e6720476f7665726e6f722063616e20636f60448201526f6d706c6574652074686520636c61696d60801b6064820152608401610b1e565b61288e336142c3565b565b60007f00000000000000000000000000000000000000000000000000000000000000006001600160a01b0316826001600160a01b0316146128e35760405162461bcd60e51b8152600401610b1e90615a95565b6040516370a0823160e01b81523060048201527f00000000000000000000000000000000000000000000000000000000000000006001600160a01b0316906370a0823190602401602060405180830381865afa158015612947573d6000803e3d6000fd5b505050506040513d601f19601f8201168201806040525081019061296b9190615789565b603a5461297891906157cb565b92915050565b612986613d71565b6000612991426140ad565b90506001600160401b0381166129a9600c6023615ac0565b6039546129bf91906001600160401b0316615ae9565b6001600160401b031610612a055760405162461bcd60e51b815260206004820152600d60248201526c29b730b8103a37b79039b7b7b760991b6044820152606401610b1e565b6000612a1082613b34565b905060004790506040518060600160405280838152602001846001600160401b03168152602001612a4083614325565b6001600160801b039081169091528151603855602082015160398054604094850151909316600160401b026001600160c01b03199093166001600160401b03909216919091179190911790555182907fb7523e03ed4a74718427c422a01fee1138835adb5bd592240f30bd8b5e1b929a90612abe9084815260200190565b60405180910390a2505050565b600260008581526037602052604090205460ff166008811115612af057612af0614fbe565b14612b345760405162461bcd60e51b815260206004820152601460248201527315985b1a59185d1bdc881b9bdd081cdd185ad95960621b6044820152606401610b1e565b6000612b3f87613b34565b604051632a5d4ad960e11b81529091506001600160a01b037f000000000000000000000000000000000000000000000000000000000000000016906354ba95b290612b989084908990889088908d908c90600401615b08565b60006040518083038186803b158015612bb057600080fd5b505afa158015612bc4573d6000803e3d6000fd5b50505050604051806040016040528060036008811115612be657612be6614fbe565b815264ffffffffff8816602091820152600087815260379091526040902081518154829060ff19166001836008811115612c2257612c22614fbe565b0217905550602091820151815464ffffffffff9091166101000265ffffffffff0019909116179055604051600091612c6491600160f91b9184913091016158f5565b604051602081830303815290604052612c7c90615b44565b9050848114612e15576000868152603760205260408120805460ff19166008179055603554905b81811015612de15760006034600060358481548110612cc457612cc461573a565b600091825260208083209091015483528281019390935260409182019020815160a0810183528154815260018201546001600160401b0380821695830195909552600160401b81049094169281019290925263ffffffff600160801b84041660608301529091608083019060ff600160a01b909104166002811115612d4b57612d4b614fbe565b6002811115612d5c57612d5c614fbe565b9052508051909150899003612dd857612d93603a5482602001516001600160401b0316633b9aca00612d8e919061566c565b61438e565b603a6000828254612da491906157a2565b92505081905550612dd260358381548110612dc157612dc161573a565b906000526020600020015482613c39565b50612de1565b50600101612ca3565b5060405187907fb8318df57b70f6381fb18aaf762e33efa2cc92627aae83d417f6710e1415d8d890600090a2505050612e8b565b6036805460018101825560009182527f4a11f94e20a93c79f6ec743a1954ec4fc2c08429ae2122118bf234b2185c81b8018790556033805460ff60a81b1916905560405164ffffffffff89169188917f8142f1367675d1a37dc1aa31258c38b05f5348de55b799764472d94ccb4a71f49190a350505b505050505050565b612e9b6134d7565b612eb75760405162461bcd60e51b8152600401610b1e90615683565b60338054610100600160a81b0319166101006001600160a01b038416908102919091179091556040517f83f29c79feb71f8fba9d0fbc4ba5f0982a28b6b1e868b3fc50e6400d100bca0f90600090a250565b612f11613d71565b6000612f5286868080601f016020809104026020016040519081016040528093929190818152602001838380828437600092019190915250613ff492505050565b60008181526037602052604090205490915060ff166001816008811115612f7b57612f7b614fbe565b1480612f9857506006816008811115612f9657612f96614fbe565b145b80612fb457506008816008811115612fb257612fb2614fbe565b145b6130005760405162461bcd60e51b815260206004820152601c60248201527f56616c696461746f72206e6f742072656764206f7220657869746564000000006044820152606401610b1e565b60008281526037602052604090819020805460ff19166007179055516312b3fc1960e01b81527f00000000000000000000000000000000000000000000000000000000000000006001600160a01b0316906312b3fc199061306d908a908a908a908a908a90600401615c15565b600060405180830381600087803b15801561308757600080fd5b505af115801561309b573d6000803e3d6000fd5b50505050817f63d54ea43f163d6e28fc23abec67eb7c3294e7e6f0620955a73cd8d17c7367f48686604051611993929190615c4c565b606c81815481106130e157600080fd5b6000918252602090912001546001600160a01b0316905081565b60335461010090046001600160a01b031633148061311c575061311c6134d7565b6131685760405162461bcd60e51b815260206004820152601b60248201527f4e6f74205265676973747261746f72206f7220476f7665726e6f7200000000006044820152606401610b1e565b61288e6143a6565b336001600160a01b037f00000000000000000000000000000000000000000000000000000000000000001614806131bf57506131aa6109bb565b6001600160a01b0316336001600160a01b0316145b6132175760405162461bcd60e51b815260206004820152602360248201527f43616c6c6572206973206e6f7420746865205661756c74206f7220476f7665726044820152623737b960e91b6064820152608401610b1e565b600080516020615dd3833981519152805460011981016132495760405162461bcd60e51b8152600401610b1e90615a6d565b600282556040516370a0823160e01b8152306004820152479060009082907f00000000000000000000000000000000000000000000000000000000000000006001600160a01b0316906370a0823190602401602060405180830381865afa1580156132b8573d6000803e3d6000fd5b505050506040513d601f19601f820116820180604052508101906132dc9190615789565b6132e691906157cb565b90508015613319576133197f0000000000000000000000000000000000000000000000000000000000000000828461441b565b5050600182555050565b61332b6134d7565b6133475760405162461bcd60e51b8152600401610b1e90615683565b8060005b818110156133f15760008484838181106133675761336761573a565b905060200201602081019061337c9190614d3e565b6001600160a01b0316036133e95760405162461bcd60e51b815260206004820152602e60248201527f43616e206e6f742073657420616e20656d70747920616464726573732061732060448201526d30903932bbb0b932103a37b5b2b760911b6064820152608401610b1e565b60010161334b565b507f04c0b9649497d316554306e53678d5f5f5dbc3a06f97dec13ff4cfe98b986bbc606c848460405161342693929190615c60565b60405180910390a1611b2d606c8484614b63565b6035818154811061105657600080fd5b6134526134d7565b61346e5760405162461bcd60e51b8152600401610b1e90615683565b606b54604080516001600160a01b03928316815291831660208301527fe48386b84419f4d36e0f96c10cc3510b6fb1a33795620c5098b22472bbe90796910160405180910390a1606b80546001600160a01b0319166001600160a01b0392909216919091179055565b60006134ef600080516020615df38339815191525490565b6001600160a01b0316336001600160a01b031614905090565b6135106134d7565b61352c5760405162461bcd60e51b8152600401610b1e90615683565b613554817f44c4d30b2eaad5130ad70c3ba6972730566f3e6359ab83e800d905c61b1c51db55565b806001600160a01b0316613574600080516020615df38339815191525490565b6001600160a01b03167fa39cc5eb22d0f34d8beaefee8a3f17cc229c1a1d1ef87a5ad47313487b1c4f0d60405160405180910390a350565b600080516020615dd3833981519152805460011981016135de5760405162461bcd60e51b8152600401610b1e90615a6d565b600282557f00000000000000000000000000000000000000000000000000000000000000006001600160a01b0316846001600160a01b0316146136335760405162461bcd60e51b8152600401610b1e90615a95565b336001600160a01b037f0000000000000000000000000000000000000000000000000000000000000000161480613679575060335461010090046001600160a01b031633145b6136c55760405162461bcd60e51b815260206004820152601f60248201527f43616c6c6572206e6f74205661756c74206f72205265676973747261746f72006044820152606401610b1e565b6136d085844761441b565b5060019055505050565b6136e2613d71565b60335460ff16156137055760405162461bcd60e51b8152600401610b1e906158cb565b600061374688888080601f016020809104026020016040519081016040528093929190818152602001838380828437600092019190915250613ff492505050565b90506000808281526037602052604090205460ff16600881111561376c5761376c614fbe565b146137b95760405162461bcd60e51b815260206004820152601c60248201527f56616c696461746f7220616c72656164792072656769737465726564000000006044820152606401610b1e565b60008181526037602052604090819020805460ff191660011790555163b84319fd60e01b81527f00000000000000000000000000000000000000000000000000000000000000006001600160a01b03169063b84319fd90349061382c908c908c908c908c908c908c908c90600401615cf9565b6000604051808303818588803b15801561384557600080fd5b505af1158015613859573d6000803e3d6000fd5b5050505050807f50837f89f5e75ae0a7bcc858f53ea15fa398dc007fd52cbfe4683ae9a6c2d7228787604051613890929190615c4c565b60405180910390a25050505050505050565b336001600160a01b037f000000000000000000000000000000000000000000000000000000000000000016146139145760405162461bcd60e51b815260206004820152601760248201527610d85b1b195c881a5cc81b9bdd081d1a194815985d5b1d604a1b6044820152606401610b1e565b600080516020615dd3833981519152805460011981016139465760405162461bcd60e51b8152600401610b1e90615a6d565b600282556040516370a0823160e01b81523060048201526000907f00000000000000000000000000000000000000000000000000000000000000006001600160a01b0316906370a0823190602401602060405180830381865afa1580156139b1573d6000803e3d6000fd5b505050506040513d601f19601f820116820180604052508101906139d59190615789565b90506000603b54826139e791906157a2565b9050801561331957603b8290556040805160008152602081018390526001600160a01b037f000000000000000000000000000000000000000000000000000000000000000016917f5548c837ab068cf56a2c2479df0882a4922fd203edb7517321831d95078c5f62910160405180910390a25050600182555050565b6060606c805480602002602001604051908101604052809291908181526020018280548015613abb57602002820191906000526020600020905b81546001600160a01b03168152600190910190602001808311613a9d575b5050505050905090565b613acd6134d7565b613ae95760405162461bcd60e51b8152600401610b1e90615683565b61288e61455d565b6000600c7f0000000000000000000000000000000000000000000000000000000000000000613b208483615ac0565b613b2a9190615ae9565b6129789190615ae9565b604080516001600160401b038316602082015260009182918291720f3df6d732807ef1319fb7b8bb8522d0beac02910160408051601f1981840301815290829052613b7e91615d53565b600060405180830381855afa9150503d8060008114613bb9576040519150601f19603f3d011682016040523d82523d6000602084013e613bbe565b606091505b5091509150818015613bd1575060008151115b613c1d5760405162461bcd60e51b815260206004820152601860248201527f496e76616c696420626561636f6e2074696d657374616d7000000000000000006044820152606401610b1e565b80806020019051810190613c319190615789565b949350505050565b60008281526034602052604081206001908101805460ff60a01b1916600160a11b179055603580549091613c6c916157a2565b81548110613c7c57613c7c61573a565b90600052602060002001549050806035836060015163ffffffff1681548110613ca757613ca761573a565b60009182526020808320909101929092556060840151838252603490925260409020600101805463ffffffff909216600160801b0263ffffffff60801b199092169190911790556035805480613cff57613cff6157b5565b60019003818190600052602060002001600090559055505050565b604080516001600160a01b038416602482015260448082018490528251808303909101815260649091019091526020810180516001600160e01b031663a9059cbb60e01b179052613d6c9084906145d7565b505050565b60335461010090046001600160a01b0316331461288e5760405162461bcd60e51b815260206004820152600f60248201526e2737ba102932b3b4b9ba3930ba37b960891b6044820152606401610b1e565b6060816001600160401b03811115613ddc57613ddc614dfc565b604051908082528060200260200182016040528015613e05578160200160208202803683370190505b50905060005b82811015613e6c576034600060358381548110613e2a57613e2a61573a565b9060005260206000200154815260200190815260200160002060000154828281518110613e5957613e5961573a565b6020908102919091010152600101613e0b565b50919050565b8251613e8590606c906020860190614bc2565b50815181518114613ecf5760405162461bcd60e51b8152602060048201526014602482015273496e76616c696420696e7075742061727261797360601b6044820152606401610b1e565b60005b81811015613f1e57613f16848281518110613eef57613eef61573a565b6020026020010151848381518110613f0957613f0961573a565b60200260200101516146a9565b600101613ed2565b5050505050565b604051632e1a7d4d60e01b8152600481018290527f00000000000000000000000000000000000000000000000000000000000000006001600160a01b031690632e1a7d4d90602401600060405180830381600087803b158015613f8757600080fd5b505af1158015613f9b573d6000803e3d6000fd5b505050506000613fad82603b5461438e565b905080603b6000828254613fc191906157a2565b9250508190555081603a6000828254613fda91906157cb565b90915550506039805467ffffffffffffffff191690555050565b6000815160301461403c5760405162461bcd60e51b8152602060048201526012602482015271496e76616c6964207075626c6963206b657960701b6044820152606401610b1e565b604051600290614053908490600090602001615d6f565b60408051601f198184030181529082905261406d91615d53565b602060405180830381855afa15801561408a573d6000803e3d6000fd5b5050506040513d601f19601f820116820180604052508101906129789190615789565b60006001600160401b038211156141155760405162461bcd60e51b815260206004820152602660248201527f53616665436173743a2076616c756520646f65736e27742066697420696e203660448201526534206269747360d01b6064820152608401610b1e565b5090565b600063ffffffff8211156141155760405162461bcd60e51b815260206004820152602660248201527f53616665436173743a2076616c756520646f65736e27742066697420696e203360448201526532206269747360d01b6064820152608401610b1e565b6000603083146141d05760405162461bcd60e51b815260206004820152601d60248201527f496e76616c69642076616c696461746f722062797465206c656e6774680000006044820152606401610b1e565b6141d8614808565b90506000710961ef480eb55e80d19ad83579a64c0070026001600160a01b03168286868660405160200161420e93929190615d9e565b60408051601f198184030181529082905261422891615d53565b60006040518083038185875af1925050503d8060008114614265576040519150601f19603f3d011682016040523d82523d6000602084013e61426a565b606091505b50509050806142bb5760405162461bcd60e51b815260206004820152601960248201527f5769746864726177616c2072657175657374206661696c6564000000000000006044820152606401610b1e565b509392505050565b6001600160a01b0381166143195760405162461bcd60e51b815260206004820152601a60248201527f4e657720476f7665726e6f7220697320616464726573732830290000000000006044820152606401610b1e565b614322816148cf565b50565b60006001600160801b038211156141155760405162461bcd60e51b815260206004820152602760248201527f53616665436173743a2076616c756520646f65736e27742066697420696e20316044820152663238206269747360c81b6064820152608401610b1e565b600081831061439d578161439f565b825b9392505050565b60335460ff16156143c95760405162461bcd60e51b8152600401610b1e906158cb565b6033805460ff191660011790557f62e78cea01bee320cd4e420270b5ea74000d11b0c9f74754ebdbfc544b05a2586143fe3390565b6040516001600160a01b03909116815260200160405180910390a1565b6000821161446b5760405162461bcd60e51b815260206004820152601760248201527f4d75737420776974686472617720736f6d657468696e670000000000000000006044820152606401610b1e565b7f00000000000000000000000000000000000000000000000000000000000000006001600160a01b0316836001600160a01b0316146144e25760405162461bcd60e51b8152602060048201526013602482015272149958da5c1a595b9d081b9bdd0815985d5b1d606a1b6044820152606401610b1e565b80156144f1576144f181614936565b6144fb82846149f8565b6040805160008152602081018490526001600160a01b037f000000000000000000000000000000000000000000000000000000000000000016917f2717ead6b9200dd235aad468c9809ea400fe33ac69b5bfaa6d3e90fc922b63989101612abe565b60335460ff166145a65760405162461bcd60e51b815260206004820152601460248201527314185d5cd8589b194e881b9bdd081c185d5cd95960621b6044820152606401610b1e565b6033805460ff191690557f5db9ee0a495bf2e6ff9c91a7834c1ba4fdd244a5e8aa4e537bd38aeae4b073aa336143fe565b600061462c826040518060400160405280602081526020017f5361666545524332303a206c6f772d6c6576656c2063616c6c206661696c6564815250856001600160a01b0316614a589092919063ffffffff16565b805190915015613d6c578080602001905181019061464a91906155c7565b613d6c5760405162461bcd60e51b815260206004820152602a60248201527f5361666545524332303a204552433230206f7065726174696f6e20646964206e6044820152691bdd081cdd58d8d9595960b21b6064820152608401610b1e565b6001600160a01b0382811660009081526067602052604090205416156147065760405162461bcd60e51b81526020600482015260126024820152711c151bdad95b88185b1c9958591e481cd95d60721b6044820152606401610b1e565b6001600160a01b0382161580159061472657506001600160a01b03811615155b6147665760405162461bcd60e51b8152602060048201526011602482015270496e76616c69642061646472657373657360781b6044820152606401610b1e565b6001600160a01b03828116600081815260676020908152604080832080549587166001600160a01b031996871681179091556068805460018101825594527fa2153420d844928b4421650203c77babc8b33d7f2e7b450e2966db0c2209775390930180549095168417909455925190815290917fef6485b84315f9b1483beffa32aae9a0596890395e3d7521f1c5fbb51790e765910160405180910390a25050565b60405160009081908190710961ef480eb55e80d19ad83579a64c0070029082818181855afa9150503d806000811461485c576040519150601f19603f3d011682016040523d82523d6000602084013e614861565b606091505b5091509150818015614874575060008151115b6148b45760405162461bcd60e51b81526020600482015260116024820152704661696c656420746f206765742066656560781b6044820152606401610b1e565b808060200190518101906148c89190615789565b9250505090565b806001600160a01b03166148ef600080516020615df38339815191525490565b6001600160a01b03167fc7c0c772add429241571afb3805861fb3cfa2af374534088b76cdb4325a87e9a60405160405180910390a3600080516020615df383398151915255565b7f00000000000000000000000000000000000000000000000000000000000000006001600160a01b031663d0e30db0826040518263ffffffff1660e01b81526004016000604051808303818588803b15801561499157600080fd5b505af11580156149a5573d6000803e3d6000fd5b505050505080603b60008282546149bc91906157cb565b9091555050603a546149ce908261438e565b603a60008282546149df91906157a2565b90915550506039805467ffffffffffffffff1916905550565b614a2c6001600160a01b037f0000000000000000000000000000000000000000000000000000000000000000168284613d1a565b6000614a3a83603b5461438e565b905080603b6000828254614a4e91906157a2565b9091555050505050565b6060613c31848460008585843b614ab15760405162461bcd60e51b815260206004820152601d60248201527f416464726573733a2063616c6c20746f206e6f6e2d636f6e74726163740000006044820152606401610b1e565b600080866001600160a01b03168587604051614acd9190615d53565b60006040518083038185875af1925050503d8060008114614b0a576040519150601f19603f3d011682016040523d82523d6000602084013e614b0f565b606091505b5091509150614b1f828286614b2a565b979650505050505050565b60608315614b3957508161439f565b825115614b495782518084602001fd5b8160405162461bcd60e51b8152600401610b1e9190615dbf565b828054828255906000526020600020908101928215614bb6579160200282015b82811115614bb65781546001600160a01b0319166001600160a01b03843516178255602090920191600190910190614b83565b50614115929150614c17565b828054828255906000526020600020908101928215614bb6579160200282015b82811115614bb657825182546001600160a01b0319166001600160a01b03909116178255602090920191600190910190614be2565b5b808211156141155760008155600101614c18565b80356001600160401b0381168114614c4357600080fd5b919050565b600060408284031215613e6c57600080fd5b60008060008060808587031215614c7057600080fd5b84359350614c8060208601614c2c565b925060408501356001600160401b03811115614c9b57600080fd5b614ca787828801614c48565b92505060608501356001600160401b03811115614cc357600080fd5b614ccf87828801614c48565b91505092959194509250565b80356001600160a01b0381168114614c4357600080fd5b60008060408385031215614d0557600080fd5b614d0e83614cdb565b9150614d1c60208401614cdb565b90509250929050565b600060208284031215614d3757600080fd5b5035919050565b600060208284031215614d5057600080fd5b61439f82614cdb565b60008060408385031215614d6c57600080fd5b614d7583614cdb565b946020939093013593505050565b600060808284031215613e6c57600080fd5b60008060408385031215614da857600080fd5b82356001600160401b03811115614dbe57600080fd5b614dca85828601614d83565b92505060208301356001600160401b03811115614de657600080fd5b614df285828601614d83565b9150509250929050565b634e487b7160e01b600052604160045260246000fd5b604051601f8201601f191681016001600160401b0381118282101715614e3a57614e3a614dfc565b604052919050565b60006001600160401b03821115614e5b57614e5b614dfc565b5060051b60200190565b803563ffffffff81168114614c4357600080fd5b801515811461432257600080fd5b600060a08284031215614e9957600080fd5b60405160a081016001600160401b0381118282101715614ebb57614ebb614dfc565b604052905080614eca83614e65565b8152614ed860208401614c2c565b6020820152614ee960408401614c2c565b60408201526060830135614efc81614e79565b6060820152608092830135920191909152919050565b60008060c08385031215614f2557600080fd5b82356001600160401b03811115614f3b57600080fd5b8301601f81018513614f4c57600080fd5b8035614f5f614f5a82614e42565b614e12565b8082825260208201915060208360051b850101925087831115614f8157600080fd5b6020840193505b82841015614faa57614f9984614c2c565b825260209384019390910190614f88565b80955050505050614d1c8460208501614e87565b634e487b7160e01b600052602160045260246000fd5b8581526001600160401b0385811660208301528416604082015263ffffffff8316606082015260a081016003831061500e5761500e614fbe565b8260808301529695505050505050565b600082601f83011261502f57600080fd5b813561503d614f5a82614e42565b8082825260208201915060208360051b86010192508583111561505f57600080fd5b602085015b838110156150835761507581614cdb565b835260209283019201615064565b5095945050505050565b6000806000606084860312156150a257600080fd5b83356001600160401b038111156150b857600080fd5b6150c48682870161501e565b93505060208401356001600160401b038111156150e057600080fd5b6150ec8682870161501e565b92505060408401356001600160401b0381111561510857600080fd5b6151148682870161501e565b9150509250925092565b6000806040838503121561513157600080fd5b82356001600160401b0381111561514757600080fd5b83016060818603121561515957600080fd5b9150614d1c60208401614c2c565b60008083601f84011261517957600080fd5b5081356001600160401b0381111561519057600080fd5b6020830191508360208285010111156151a857600080fd5b9250929050565b6000806000604084860312156151c457600080fd5b83356001600160401b038111156151da57600080fd5b6151e686828701615167565b90945092506151f9905060208501614c2c565b90509250925092565b60008060008060008060a0878903121561521b57600080fd5b61522487614c2c565b9550602087013564ffffffffff8116811461523e57600080fd5b9450604087013593506060870135925060808701356001600160401b0381111561526757600080fd5b61527389828a01615167565b979a9699509497509295939492505050565b60008083601f84011261529757600080fd5b5081356001600160401b038111156152ae57600080fd5b6020830191508360208260051b85010111156151a857600080fd5b600060a08284031215613e6c57600080fd5b600080600080600060e086880312156152f357600080fd5b85356001600160401b0381111561530957600080fd5b61531588828901615167565b90965094505060208601356001600160401b0381111561533457600080fd5b61534088828901615285565b9094509250615354905087604088016152c9565b90509295509295909350565b6000806020838503121561537357600080fd5b82356001600160401b0381111561538957600080fd5b61539585828601615285565b90969095509350505050565b60408101600984106153b5576153b5614fbe565b92815264ffffffffff9190911660209091015290565b6000806000606084860312156153e057600080fd5b6153e984614cdb565b92506153f760208501614cdb565b929592945050506040919091013590565b6000806000806000806000610100888a03121561542457600080fd5b87356001600160401b0381111561543a57600080fd5b6154468a828b01615167565b90985096505060208801356001600160401b0381111561546557600080fd5b6154718a828b01615285565b90965094505060408801356001600160401b0381111561549057600080fd5b61549c8a828b01615167565b90945092506154b090508960608a016152c9565b905092959891949750929550565b602080825282518282018190526000918401906040840190835b818110156154ff5783516001600160a01b03168352602093840193909201916001016154d8565b509095945050505050565b60006020828403121561551c57600080fd5b61439f82614c2c565b6000808335601e1984360301811261553c57600080fd5b8301803591506001600160401b0382111561555657600080fd5b6020019150368190038213156151a857600080fd5b81835281816020850137506000828201602090810191909152601f909101601f19169091010190565b8481526001600160401b03841660208201526060604082015260006155bd60608301848661556b565b9695505050505050565b6000602082840312156155d957600080fd5b815161439f81614e79565b85815264ffffffffff851660208201526001600160401b0384166040820152608060608201526000614b1f60808301848661556b565b634e487b7160e01b600052601160045260246000fd5b60006001600160401b0383168061565757634e487b7160e01b600052601260045260246000fd5b806001600160401b0384160491505092915050565b80820281158282048414176129785761297861561a565b6020808252601a908201527f43616c6c6572206973206e6f742074686520476f7665726e6f72000000000000604082015260600190565b6000808335601e198436030181126156d157600080fd5b8301803591506001600160401b038211156156eb57600080fd5b6020019150600581901b36038213156151a857600080fd5b8481528360208201526060604082015260006155bd60608301848661556b565b6000816157325761573261561a565b506000190190565b634e487b7160e01b600052603260045260246000fd5b85815284602082015260806040820152600061577060808301858761556b565b905064ffffffffff831660608301529695505050505050565b60006020828403121561579b57600080fd5b5051919050565b818103818111156129785761297861561a565b634e487b7160e01b600052603160045260246000fd5b808201808211156129785761297861561a565b6000602082840312156157f057600080fd5b61439f82614e65565b85815284602082015260806040820152600061581960808301858761556b565b905063ffffffff831660608301529695505050505050565b60c08082528351908201819052600090602085019060e0840190835b818110156158745783516001600160401b031683526020938401939092019160010161584d565b5050809250505063ffffffff83511660208301526001600160401b0360208401511660408301526001600160401b036040840151166060830152606083015115156080830152608083015160a08301529392505050565b60208082526010908201526f14185d5cd8589b194e881c185d5cd95960821b604082015260600190565b6001600160f81b03199390931683526001600160a81b031991909116600183015260601b6bffffffffffffffffffffffff1916600c82015260200190565b6001600160401b0382811682821603908111156129785761297861561a565b60005b8381101561596d578181015183820152602001615955565b50506000910152565b6000815180845261598e816020860160208601615952565b601f01601f19169290920160200192915050565b86815260a0602082015260006159bb60a0830188615976565b6001600160401b038716604084015282810360608401526159dd81868861556b565b9150506001600160401b0383166080830152979650505050505050565b608081526000615a0e60808301888a61556b565b8281036020840152615a208188615976565b90508281036040840152615a3581868861556b565b915050826060830152979650505050505050565b604081526000615a5d60408301858761556b565b9050826020830152949350505050565b6020808252600e908201526d1499595b9d1c985b9d0818d85b1b60921b604082015260600190565b602080825260119082015270155b9cdd5c1c1bdc9d195908185cdcd95d607a1b604082015260600190565b6001600160401b038181168382160290811690818114615ae257615ae261561a565b5092915050565b6001600160401b0381811683821601908111156129785761297861561a565b86815285602082015260a060408201526000615b2860a08301868861556b565b64ffffffffff9490941660608301525060800152949350505050565b80516020808301519190811015613e6c5760001960209190910360031b1b16919050565b81835260208301925060008160005b84811015615ba6576001600160401b03615b9083614c2c565b1686526020958601959190910190600101615b77565b5093949350505050565b63ffffffff615bbe82614e65565b1682526001600160401b03615bd560208301614c2c565b1660208301526001600160401b03615bef60408301614c2c565b1660408301526060810135615c0381614e79565b15156060830152608090810135910152565b60e081526000615c2960e08301878961556b565b8281036020840152615c3c818688615b68565b9150506155bd6040830184615bb0565b602081526000613c31602083018486615b68565b6040808252845490820181905260008581526020812090916060840190835b81811015615ca65783546001600160a01b0316835260019384019360209093019201615c7f565b50508381036020808601919091528582520190508460005b85811015615ced576001600160a01b03615cd783614cdb565b1683526020928301929190910190600101615cbe565b50909695505050505050565b61010081526000615d0f6101008301898b61556b565b8281036020840152615d2281888a615b68565b90508281036040840152615d3781868861556b565b915050615d476060830184615bb0565b98975050505050505050565b60008251615d65818460208701615952565b9190910192915050565b60008351615d81818460208801615952565b6001600160801b0319939093169190920190815260100192915050565b8284823760c09190911b6001600160c01b0319169101908152600801919050565b60208152600061439f602083018461597656fe53bf423e48ed90e97d02ab0ebab13b2a235a6bfbe9c321847d5c175333ac45357bea13895fa79d2831e0a9e28edede30099005a50d652d8957cf8a607ee6ca4aa264697066735822122012bb533b47dded68189ccbd849a882efc614b2a7c887d6d80aa728c9dd32990864736f6c634300081c00337bea13895fa79d2831e0a9e28edede30099005a50d652d8957cf8a607ee6ca4a",
  "libraries": {},
  "devdoc": {
    "author": "Origin Protocol Inc",
    "events": {
      "Paused(address)": {
        "details": "Emitted when the pause is triggered by `account`."
      },
      "Unpaused(address)": {
        "details": "Emitted when the pause is lifted by `account`."
      }
    },
    "kind": "dev",
    "methods": {
      "checkBalance(address)": {
        "params": {
          "_asset": "Address of WETH asset."
        },
        "returns": {
          "balance": "   Total value in ETH"
        }
      },
      "constructor": {
        "params": {
          "_baseConfig": "Base strategy config with   `platformAddress` not used so empty address   `vaultAddress` the address of the OETH Vault contract",
          "_beaconChainDepositContract": "Address of the beacon chain deposit contract",
          "_beaconGenesisTimestamp": "The timestamp of the Beacon chain's genesis.",
          "_beaconProofs": "Address of the Beacon Proofs contract that verifies beacon chain data",
          "_ssvNetwork": "Address of the SSV Network contract",
          "_wethAddress": "Address of the WETH Token contract"
        }
      },
      "deposit(address,uint256)": {
        "params": {
          "_amount": "Amount of WETH that was transferred to the strategy by the vault.",
          "_asset": "Address of the WETH token."
        }
      },
      "getRewardTokenAddresses()": {
        "returns": {
          "_0": "address[] the reward token addresses."
        }
      },
      "initialize(address[],address[],address[])": {
        "params": {
          "_assets": "Not used so empty array",
          "_pTokens": "Not used so empty array",
          "_rewardTokenAddresses": "Not used so empty array"
        }
      },
      "migrateClusterToETH(uint64[],(uint32,uint64,uint64,bool,uint256))": {
        "params": {
          "cluster": "The SSV cluster details including the validator count and SSV balance",
          "operatorIds": "The operator IDs of the SSV Cluster"
        }
      },
      "paused()": {
        "details": "Returns true if the contract is paused, and false otherwise."
      },
      "registerSsvValidator(bytes,uint64[],bytes,(uint32,uint64,uint64,bool,uint256))": {
        "params": {
          "cluster": "The SSV cluster details including the validator count and SSV balance",
          "operatorIds": "The operator IDs of the SSV Cluster",
          "publicKey": "The public key of the validator",
          "sharesData": "The shares data for the validator"
        }
      },
      "removeSsvValidator(bytes,uint64[],(uint32,uint64,uint64,bool,uint256))": {
        "params": {
          "cluster": "The SSV cluster details including the validator count and SSV balance",
          "operatorIds": "The operator IDs of the SSV Cluster",
          "publicKey": "The public key of the validator"
        }
      },
      "safeApproveAllTokens()": {
        "details": "Use to be used to approve SSV tokens but that is no longer used by the SSV Network."
      },
      "setHarvesterAddress(address)": {
        "params": {
          "_harvesterAddress": "Address of the harvester contract."
        }
      },
      "setRewardTokenAddresses(address[])": {
        "params": {
          "_rewardTokenAddresses": "Array of reward token addresses"
        }
      },
      "stakeEth((bytes,bytes,bytes32),uint64)": {
        "params": {
          "depositAmountGwei": "The amount of WETH to stake to the validator in Gwei.",
          "validatorStakeData": "validator data needed to stake. The `ValidatorStakeData` struct contains the pubkey, signature and depositDataRoot. Only the registrator can call this function."
        }
      },
      "supportsAsset(address)": {
        "params": {
          "_asset": "The address of the WETH token."
        }
      },
      "transferGovernance(address)": {
        "params": {
          "_newGovernor": "Address of the new Governor"
        }
      },
      "transferToken(address,uint256)": {
        "params": {
          "_amount": "Amount of the asset to transfer",
          "_asset": "Address for the asset"
        }
      },
      "validatorWithdrawal(bytes,uint64)": {
        "params": {
          "amountGwei": "The amount of ETH to be withdrawn from the validator in Gwei. A zero amount will trigger a full withdrawal.",
          "publicKey": "The public key of the validator"
        }
      },
      "verifyBalances((bytes32,bytes,bytes32[],bytes[]),(bytes32,bytes,uint32[],bytes[]))": {
        "params": {
          "balanceProofs": "a `BalanceProofs` struct containing the following: - balancesContainerRoot: The merkle root of the balances container - balancesContainerProof: The merkle proof for the balances container to the beacon block root.    This is 9 witness hashes of 32 bytes each concatenated together starting from the leaf node. - validatorBalanceLeaves: Array of leaf nodes containing the validator balance with three other balances. - validatorBalanceProofs: Array of merkle proofs for the validator balance to the Balances container root.    This is 39 witness hashes of 32 bytes each concatenated together starting from the leaf node.",
          "pendingDepositProofs": "a `PendingDepositProofs` struct containing the following: - pendingDepositContainerRoot: The merkle root of the pending deposits list container - pendingDepositContainerProof: The merkle proof from the pending deposits list container     to the beacon block root.    This is 9 witness hashes of 32 bytes each concatenated together starting from the leaf node. - pendingDepositIndexes: Array of indexes in the pending deposits list container for each    of the strategy's deposits. - pendingDepositProofs: Array of merkle proofs for each strategy deposit in the    beacon chain's pending deposit list container to the pending deposits list container root.    These are 28 witness hashes of 32 bytes each concatenated together starting from the leaf node."
        }
      },
      "verifyDeposit(bytes32,uint64,(uint64,bytes),(uint64,bytes))": {
        "params": {
          "depositProcessedSlot": "Any slot on or after the strategy's deposit was processed on the beacon chain. Can not be a slot with pending deposits with the same slot as the deposit being verified. Can not be a slot before a missed slot as the Beacon Root contract will have the parent block root set for the next block timestamp in 12 seconds time.",
          "firstPendingDeposit": "a `FirstPendingDepositSlotProofData` struct containing: - slot: The beacon chain slot of the first deposit in the beacon chain's deposit queue.   Can be any non-zero value if the deposit queue is empty. - proof: The merkle proof of the first pending deposit's slot to the beacon block root.   Can be either:   * 40 witness hashes for BeaconBlock.state.PendingDeposits[0].slot when the deposit queue is not empty.   * 37 witness hashes for BeaconBlock.state.PendingDeposits[0] when the deposit queue is empty.   The 32 byte witness hashes are concatenated together starting from the leaf node.",
          "pendingDepositRoot": "The unique identifier of the deposit emitted in `ETHStaked` from the `stakeEth` function.",
          "strategyValidatorData": "a `StrategyValidatorProofData` struct containing: - withdrawableEpoch: The withdrawable epoch of the validator the strategy is depositing to. - withdrawableEpochProof: The merkle proof for the withdrawable epoch of the validator the strategy   is depositing to, to the beacon block root.   This is 53 witness hashes of 32 bytes each concatenated together starting from the leaf node."
        }
      },
      "verifyValidator(uint64,uint40,bytes32,bytes32,bytes)": {
        "params": {
          "nextBlockTimestamp": "The timestamp of the execution layer block after the beacon chain slot we are verifying. The next one is needed as the Beacon Oracle returns the parent beacon block root for a block timestamp, which is the beacon block root of the previous block.",
          "pubKeyHash": "The hash of the validator's public key using the Beacon Chain's format",
          "validatorIndex": "The index of the validator on the beacon chain.",
          "validatorPubKeyProof": "The merkle proof for the validator public key to the beacon block root. This is 53 witness hashes of 32 bytes each concatenated together starting from the leaf node. BeaconBlock.state.validators[validatorIndex].pubkey",
          "withdrawalCredentials": "contain the validator type and withdrawal address. These can be incorrect and/or        malformed. In case of incorrect withdrawalCredentials the validator deposit has been front run"
        }
      },
      "withdraw(address,address,uint256)": {
        "params": {
          "_amount": "Amount of WETH to withdraw.",
          "_asset": "Address of the WETH token.",
          "_recipient": "Address to receive withdrawn assets."
        }
      }
    },
    "title": "Compounding Staking SSV Strategy",
    "version": 1
  },
  "userdoc": {
    "kind": "user",
    "methods": {
      "BEACON_PROOFS()": {
        "notice": "Address of the Beacon Proofs contract that verifies beacon chain data"
      },
      "assetToPToken(address)": {
        "notice": "asset => pToken (Platform Specific Token Address)"
      },
      "checkBalance(address)": {
        "notice": "Accounts for all the assets managed by this strategy which includes: 1. The current WETH in this strategy contract 2. The last verified ETH balance, total deposits and total validator balances"
      },
      "claimGovernance()": {
        "notice": "Claim Governance of the contract to a new account (`newGovernor`). Can only be called by the new Governor."
      },
      "collectRewardTokens()": {
        "notice": "Collect accumulated reward token and send to Vault."
      },
      "deposit(address,uint256)": {
        "notice": "Unlike other strategies, this does not deposit assets into the underlying platform. It just checks the asset is WETH and emits the Deposit event. To deposit WETH into validators, `registerSsvValidator` and `stakeEth` must be used."
      },
      "depositAll()": {
        "notice": "Unlike other strategies, this does not deposit assets into the underlying platform. It just emits the Deposit event. To deposit WETH into validators `registerSsvValidator` and `stakeEth` must be used."
      },
      "depositList(uint256)": {
        "notice": "List of strategy deposit IDs to a validator. The ID is the merkle root of the pending deposit data which is unique for each validator, amount and block. Duplicate pending deposit roots are prevented so can be used as an identifier to each strategy deposit. The list can be for deposits waiting to be verified as processed on the beacon chain, or deposits that have been verified to an exiting validator and is now waiting for the validator's balance to be swept. The list may not be ordered by time of deposit. Removed deposits will move the last deposit to the removed index."
      },
      "depositListLength()": {
        "notice": "Returns the number of deposits waiting to be verified as processed on the beacon chain, or deposits that have been verified to an exiting validator and is now waiting for the validator's balance to be swept."
      },
      "deposits(bytes32)": {
        "notice": "Mapping of the pending deposit roots to the deposit data"
      },
      "firstDeposit()": {
        "notice": "Restricts to only one deposit to an unverified validator at a time. This is to limit front-running attacks of deposits to the beacon chain contract."
      },
      "getRewardTokenAddresses()": {
        "notice": "Get the reward token addresses."
      },
      "governor()": {
        "notice": "Returns the address of the current Governor."
      },
      "harvesterAddress()": {
        "notice": "Address of the Harvester contract allowed to collect reward tokens"
      },
      "initialize(address[],address[],address[])": {
        "notice": "Set up initial internal state including 1. approving the SSVNetwork to transfer SSV tokens from this strategy contract"
      },
      "isGovernor()": {
        "notice": "Returns true if the caller is the current Governor."
      },
      "lastVerifiedEthBalance()": {
        "notice": "The last verified ETH balance of the strategy"
      },
      "migrateClusterToETH(uint64[],(uint32,uint64,uint64,bool,uint256))": {
        "notice": "Migrate the SSV cluster to use ETH for payment instead of SSV tokens."
      },
      "platformAddress()": {
        "notice": "Address of the underlying platform"
      },
      "registerSsvValidator(bytes,uint64[],bytes,(uint32,uint64,uint64,bool,uint256))": {
        "notice": "Registers a single validator in a SSV Cluster. Only the Registrator can call this function."
      },
      "removePToken(uint256)": {
        "notice": "is not supported for this strategy as there is no platform token."
      },
      "removeSsvValidator(bytes,uint64[],(uint32,uint64,uint64,bool,uint256))": {
        "notice": "Remove the validator from the SSV Cluster after: - the validator has been exited from `validatorWithdrawal` or slashed - the validator has incorrectly registered and can not be staked to - the initial deposit was front-run and the withdrawal address is not this strategy's address. Make sure `validatorWithdrawal` is called with a zero amount and the validator has exited the Beacon chain. If removed before the validator has exited the beacon chain will result in the validator being slashed. Only the registrator can call this function."
      },
      "resetFirstDeposit()": {
        "notice": "Reset the `firstDeposit` flag to false so deposits to unverified validators can be made again."
      },
      "rewardTokenAddresses(uint256)": {
        "notice": "Address of the reward tokens. eg CRV, BAL, CVX, AURA"
      },
      "safeApproveAllTokens()": {
        "notice": "Does nothing but needed as this function is abstract on InitializableAbstractStrategy"
      },
      "setHarvesterAddress(address)": {
        "notice": "Set the Harvester contract that can collect rewards."
      },
      "setPTokenAddress(address,address)": {
        "notice": "is not supported for this strategy as there is no platform token."
      },
      "setRegistrator(address)": {
        "notice": "Set the address of the registrator which can register, exit and remove validators"
      },
      "setRewardTokenAddresses(address[])": {
        "notice": "Set the reward token addresses. Any old addresses will be overwritten."
      },
      "snapBalances()": {
        "notice": "Stores the current ETH balance at the current block and beacon block root         of the slot that is associated with the previous block. When snapping / verifying balance it is of a high importance that there is no miss-match in respect to ETH that is held by the contract and balances that are verified on the validators. First some context on the beacon-chain block building behaviour. Relevant parts of constructing a block on the beacon chain consist of:  - process_withdrawals: ETH is deducted from the validator's balance  - process_execution_payload: immediately after the previous step executing all the    transactions  - apply the withdrawals: adding ETH to the recipient which is the withdrawal address    contained in the withdrawal credentials of the exited validators That means that balance increases which are part of the post-block execution state are done within the block, but the transaction that are contained within that block can not see / interact with the balance from the exited validators. Only transactions in the next block can do that. When snap balances is performed the state of the chain is snapped across 2 separate chain states:  - ETH balance of the contract is recorded on block X -> and corresponding slot Y  - beacon chain block root is recorded of block X - 1 -> and corresponding slot Y - 1    given there were no missed slots. It could also be Y - 2, Y - 3 depending on how    many slots have not managed to propose a block. For the sake of simplicity this slot    will be referred to as Y - 1 as it makes no difference in the argument Given these 2 separate chain states it is paramount that verify balances can not experience miss-counting ETH or much more dangerous double counting of the ETH. When verifyBalances is called it is performed on the current block Z where Z > X. Verify balances adds up all the ETH (omitting WETH) controlled by this contract:  - ETH balance in the contract on block X  - ETH balance in Deposits on block Z that haven't been yet processed in slot Y - 1  - ETH balance in validators that are active in slot Y - 1  - skips the ETH balance in validators that have withdrawn in slot Y - 1 (or sooner)    and have their balance visible to transactions in slot Y and corresponding block X    (or sooner) Lets verify the correctness of ETH accounting given the above described behaviour. *ETH balance in the contract on block X* This is an ETH balance of the contract on a non current X block. Any ETH leaving the contract as a result of a withdrawal subtracts from the ETH accounted for on block X if `verifyBalances` has already been called. It also invalidates a `snapBalances` in case `verifyBalances` has not been called yet. Not performing this would result in not accounting for the withdrawn ETH that has happened anywhere in the block interval [X + 1, Z]. Similarly to withdrawals any `stakeEth` deposits to the deposit contract adds to the ETH accounted for since the last `verifyBalances` has been called. And it invalidates the `snapBalances` in case `verifyBalances` hasn't been yet called. Not performing this would result in double counting the `stakedEth` since it would be present once in the snapped contract balance and the second time in deposit storage variables. This behaviour is correct. *ETH balance in Deposits on block Z that haven't been yet processed in slot Y - 1* The contract sums up all the ETH that has been deposited to the Beacon chain deposit contract at block Z. The execution layer doesn't have direct access to the state of deposits on the beacon chain. And if it is to sum up all the ETH that is marked to be deposited it needs to be sure to not double count ETH that is in deposits (storage vars) and could also be part of the validator balances. It does that by verifying that at slot Y - 1 none of the deposits visible on block Z have been processed. Meaning since the last snap till now all are still in queue. Which ensures they can not be part of the validator balances in later steps. This behaviour is correct. *ETH balance in validators that are active in slot Y - 1* The contract is verifying none of the deposits on Y - 1 slot have been processed and for that reason it checks the validator balances in the same slot. Ensuring accounting correctness. This behaviour is correct. *The withdrawn validators* The withdrawn validators could have their balances deducted in any slot before slot Y - 1 and the execution layer sees the balance increase in the subsequent slot. Lets look at the \"worst case scenario\" where the validator withdrawal is processed in the slot Y - 1 (snapped slot) and see their balance increase (in execution layer) in slot Y -> block X. The ETH balance on the contract is snapped at block X meaning that even if the validator exits at the latest possible time it is paramount that the ETH balance on the execution layer is recorded in the next block. Correctly accounting for the withdrawn ETH. Worth mentioning if the validator exit is processed by the slot Y and balance increase seen on the execution layer on block X + 1 the withdrawal is ignored by both the validator balance verification as well as execution layer contract balance snap. This behaviour is correct. The validator balances on the beacon chain can then be proved with `verifyBalances`."
      },
      "snappedBalance()": {
        "notice": "Mapping of the block root to the balances at that slot"
      },
      "stakeEth((bytes,bytes,bytes32),uint64)": {
        "notice": "Stakes WETH in this strategy to a compounding validator. The first deposit to a new validator, the amount must be 1 ETH. Another deposit of at least 31 ETH is required for the validator to be activated. This second deposit has to be done after the validator has been verified. Does not convert any ETH sitting in this strategy to WETH. There can not be two deposits to the same validator in the same block for the same amount. Function is pausable so in case a run-away Registrator can be prevented from continuing to deposit funds to slashed or undesired validators."
      },
      "supportsAsset(address)": {
        "notice": "Returns bool indicating whether asset is supported by the strategy."
      },
      "transferGovernance(address)": {
        "notice": "Transfers Governance of the contract to a new account (`newGovernor`). Can only be called by the current Governor. Must be claimed for this to complete"
      },
      "transferToken(address,uint256)": {
        "notice": "Transfer token to governor. Intended for recovering tokens stuck in      strategy contracts, i.e. mistaken sends."
      },
      "validator(bytes32)": {
        "notice": "Mapping of the hash of the validator's public key to the validator state and index. Uses the Beacon chain hashing for BLSPubkey which is sha256(abi.encodePacked(validator.pubkey, bytes16(0)))"
      },
      "validatorRegistrator()": {
        "notice": "Address of the registrator - allowed to register, withdraw, exit and remove validators"
      },
      "validatorWithdrawal(bytes,uint64)": {
        "notice": "Request a full or partial withdrawal from a validator. A zero amount will trigger a full withdrawal. If the remaining balance is < 32 ETH then only the amount in excess of 32 ETH will be withdrawn. Only the Registrator can call this function. 1 wei of value should be sent with the tx to pay for the withdrawal request fee. If no value sent, 1 wei will be taken from the strategy's ETH balance if it has any. If no ETH balance, the tx will revert."
      },
      "vaultAddress()": {
        "notice": "Address of the OToken vault"
      },
      "verifiedValidators(uint256)": {
        "notice": "List of validator public key hashes that have been verified to exist on the beacon chain. These have had a deposit processed and the validator's balance increased. Validators will be removed from this list when its verified they have a zero balance."
      },
      "verifiedValidatorsLength()": {
        "notice": "Returns the number of verified validators."
      },
      "verifyBalances((bytes32,bytes,bytes32[],bytes[]),(bytes32,bytes,uint32[],bytes[]))": {
        "notice": "Verifies the balances of all active validators on the beacon chain and checks each of the strategy's deposits are still to be processed by the beacon chain."
      },
      "verifyDeposit(bytes32,uint64,(uint64,bytes),(uint64,bytes))": {
        "notice": "Verifies a deposit on the execution layer has been processed by the beacon chain. This means the accounting of the strategy's ETH moves from a pending deposit to a validator balance. Important: this function has a limitation where `depositProcessedSlot` that is passed by the off-chain verifier requires a slot immediately after it to propose a block otherwise the `BeaconRoots.parentBlockRoot` will fail. This shouldn't be a problem, since by the current behaviour of beacon chain only 1%-3% slots don't propose a block."
      },
      "verifyValidator(uint64,uint40,bytes32,bytes32,bytes)": {
        "notice": "Verifies a validator's index to its public key. Adds to the list of verified validators if the validator's withdrawal address is this strategy's address. Marks the validator as invalid and removes the deposit if the withdrawal address is not this strategy's address."
      },
      "withdraw(address,address,uint256)": {
        "notice": "Withdraw ETH and WETH from this strategy contract."
      },
      "withdrawAll()": {
        "notice": "Transfer all WETH deposits, ETH from validator withdrawals and ETH from execution rewards in this strategy to the vault. This does not withdraw from the validators. That has to be done separately with the `validatorWithdrawal` operation."
      }
    },
    "notice": "Strategy to deploy funds into DVT validators powered by the SSV Network",
    "version": 1
  },
  "storageLayout": {
    "storage": [
      {
        "astId": 10126,
        "contract": "contracts/strategies/NativeStaking/CompoundingStakingSSVStrategy.sol:CompoundingStakingSSVStrategy",
        "label": "initialized",
        "offset": 0,
        "slot": "0",
        "type": "t_bool"
      },
      {
        "astId": 10129,
        "contract": "contracts/strategies/NativeStaking/CompoundingStakingSSVStrategy.sol:CompoundingStakingSSVStrategy",
        "label": "initializing",
        "offset": 1,
        "slot": "0",
        "type": "t_bool"
      },
      {
        "astId": 10169,
        "contract": "contracts/strategies/NativeStaking/CompoundingStakingSSVStrategy.sol:CompoundingStakingSSVStrategy",
        "label": "______gap",
        "offset": 0,
        "slot": "1",
        "type": "t_array(t_uint256)50_storage"
      },
      {
        "astId": 122,
        "contract": "contracts/strategies/NativeStaking/CompoundingStakingSSVStrategy.sol:CompoundingStakingSSVStrategy",
        "label": "_paused",
        "offset": 0,
        "slot": "51",
        "type": "t_bool"
      },
      {
        "astId": 3923,
        "contract": "contracts/strategies/NativeStaking/CompoundingStakingSSVStrategy.sol:CompoundingStakingSSVStrategy",
        "label": "validatorRegistrator",
        "offset": 1,
        "slot": "51",
        "type": "t_address"
      },
      {
        "astId": 3944,
        "contract": "contracts/strategies/NativeStaking/CompoundingStakingSSVStrategy.sol:CompoundingStakingSSVStrategy",
        "label": "firstDeposit",
        "offset": 21,
        "slot": "51",
        "type": "t_bool"
      },
      {
        "astId": 3950,
        "contract": "contracts/strategies/NativeStaking/CompoundingStakingSSVStrategy.sol:CompoundingStakingSSVStrategy",
        "label": "deposits",
        "offset": 0,
        "slot": "52",
        "type": "t_mapping(t_bytes32,t_struct(DepositData)3941_storage)"
      },
      {
        "astId": 3954,
        "contract": "contracts/strategies/NativeStaking/CompoundingStakingSSVStrategy.sol:CompoundingStakingSSVStrategy",
        "label": "depositList",
        "offset": 0,
        "slot": "53",
        "type": "t_array(t_bytes32)dyn_storage"
      },
      {
        "astId": 3974,
        "contract": "contracts/strategies/NativeStaking/CompoundingStakingSSVStrategy.sol:CompoundingStakingSSVStrategy",
        "label": "verifiedValidators",
        "offset": 0,
        "slot": "54",
        "type": "t_array(t_bytes32)dyn_storage"
      },
      {
        "astId": 3980,
        "contract": "contracts/strategies/NativeStaking/CompoundingStakingSSVStrategy.sol:CompoundingStakingSSVStrategy",
        "label": "validator",
        "offset": 0,
        "slot": "55",
        "type": "t_mapping(t_bytes32,t_struct(ValidatorData)3970_storage)"
      },
      {
        "astId": 3992,
        "contract": "contracts/strategies/NativeStaking/CompoundingStakingSSVStrategy.sol:CompoundingStakingSSVStrategy",
        "label": "snappedBalance",
        "offset": 0,
        "slot": "56",
        "type": "t_struct(Balances)3988_storage"
      },
      {
        "astId": 3995,
        "contract": "contracts/strategies/NativeStaking/CompoundingStakingSSVStrategy.sol:CompoundingStakingSSVStrategy",
        "label": "lastVerifiedEthBalance",
        "offset": 0,
        "slot": "58",
        "type": "t_uint256"
      },
      {
        "astId": 3998,
        "contract": "contracts/strategies/NativeStaking/CompoundingStakingSSVStrategy.sol:CompoundingStakingSSVStrategy",
        "label": "depositedWethAccountedFor",
        "offset": 0,
        "slot": "59",
        "type": "t_uint256"
      },
      {
        "astId": 4002,
        "contract": "contracts/strategies/NativeStaking/CompoundingStakingSSVStrategy.sol:CompoundingStakingSSVStrategy",
        "label": "__gap",
        "offset": 0,
        "slot": "60",
        "type": "t_array(t_uint256)41_storage"
      },
      {
        "astId": 10249,
        "contract": "contracts/strategies/NativeStaking/CompoundingStakingSSVStrategy.sol:CompoundingStakingSSVStrategy",
        "label": "_deprecated_platformAddress",
        "offset": 0,
        "slot": "101",
        "type": "t_address"
      },
      {
        "astId": 10252,
        "contract": "contracts/strategies/NativeStaking/CompoundingStakingSSVStrategy.sol:CompoundingStakingSSVStrategy",
        "label": "_deprecated_vaultAddress",
        "offset": 0,
        "slot": "102",
        "type": "t_address"
      },
      {
        "astId": 10257,
        "contract": "contracts/strategies/NativeStaking/CompoundingStakingSSVStrategy.sol:CompoundingStakingSSVStrategy",
        "label": "assetToPToken",
        "offset": 0,
        "slot": "103",
        "type": "t_mapping(t_address,t_address)"
      },
      {
        "astId": 10261,
        "contract": "contracts/strategies/NativeStaking/CompoundingStakingSSVStrategy.sol:CompoundingStakingSSVStrategy",
        "label": "assetsMapped",
        "offset": 0,
        "slot": "104",
        "type": "t_array(t_address)dyn_storage"
      },
      {
        "astId": 10263,
        "contract": "contracts/strategies/NativeStaking/CompoundingStakingSSVStrategy.sol:CompoundingStakingSSVStrategy",
        "label": "_deprecated_rewardTokenAddress",
        "offset": 0,
        "slot": "105",
        "type": "t_address"
      },
      {
        "astId": 10265,
        "contract": "contracts/strategies/NativeStaking/CompoundingStakingSSVStrategy.sol:CompoundingStakingSSVStrategy",
        "label": "_deprecated_rewardLiquidationThreshold",
        "offset": 0,
        "slot": "106",
        "type": "t_uint256"
      },
      {
        "astId": 10268,
        "contract": "contracts/strategies/NativeStaking/CompoundingStakingSSVStrategy.sol:CompoundingStakingSSVStrategy",
        "label": "harvesterAddress",
        "offset": 0,
        "slot": "107",
        "type": "t_address"
      },
      {
        "astId": 10272,
        "contract": "contracts/strategies/NativeStaking/CompoundingStakingSSVStrategy.sol:CompoundingStakingSSVStrategy",
        "label": "rewardTokenAddresses",
        "offset": 0,
        "slot": "108",
        "type": "t_array(t_address)dyn_storage"
      },
      {
        "astId": 10276,
        "contract": "contracts/strategies/NativeStaking/CompoundingStakingSSVStrategy.sol:CompoundingStakingSSVStrategy",
        "label": "_reserved",
        "offset": 0,
        "slot": "109",
        "type": "t_array(t_int256)98_storage"
      },
      {
        "astId": 3272,
        "contract": "contracts/strategies/NativeStaking/CompoundingStakingSSVStrategy.sol:CompoundingStakingSSVStrategy",
        "label": "__gap",
        "offset": 0,
        "slot": "207",
        "type": "t_array(t_uint256)50_storage"
      }
    ],
    "types": {
      "t_address": {
        "encoding": "inplace",
        "label": "address",
        "numberOfBytes": "20"
      },
      "t_array(t_address)dyn_storage": {
        "base": "t_address",
        "encoding": "dynamic_array",
        "label": "address[]",
        "numberOfBytes": "32"
      },
      "t_array(t_bytes32)dyn_storage": {
        "base": "t_bytes32",
        "encoding": "dynamic_array",
        "label": "bytes32[]",
        "numberOfBytes": "32"
      },
      "t_array(t_int256)98_storage": {
        "base": "t_int256",
        "encoding": "inplace",
        "label": "int256[98]",
        "numberOfBytes": "3136"
      },
      "t_array(t_uint256)41_storage": {
        "base": "t_uint256",
        "encoding": "inplace",
        "label": "uint256[41]",
        "numberOfBytes": "1312"
      },
      "t_array(t_uint256)50_storage": {
        "base": "t_uint256",
        "encoding": "inplace",
        "label": "uint256[50]",
        "numberOfBytes": "1600"
      },
      "t_bool": {
        "encoding": "inplace",
        "label": "bool",
        "numberOfBytes": "1"
      },
      "t_bytes32": {
        "encoding": "inplace",
        "label": "bytes32",
        "numberOfBytes": "32"
      },
      "t_enum(DepositStatus)3928": {
        "encoding": "inplace",
        "label": "enum CompoundingValidatorManager.DepositStatus",
        "numberOfBytes": "1"
      },
      "t_enum(ValidatorState)3964": {
        "encoding": "inplace",
        "label": "enum CompoundingValidatorManager.ValidatorState",
        "numberOfBytes": "1"
      },
      "t_int256": {
        "encoding": "inplace",
        "label": "int256",
        "numberOfBytes": "32"
      },
      "t_mapping(t_address,t_address)": {
        "encoding": "mapping",
        "key": "t_address",
        "label": "mapping(address => address)",
        "numberOfBytes": "32",
        "value": "t_address"
      },
      "t_mapping(t_bytes32,t_struct(DepositData)3941_storage)": {
        "encoding": "mapping",
        "key": "t_bytes32",
        "label": "mapping(bytes32 => struct CompoundingValidatorManager.DepositData)",
        "numberOfBytes": "32",
        "value": "t_struct(DepositData)3941_storage"
      },
      "t_mapping(t_bytes32,t_struct(ValidatorData)3970_storage)": {
        "encoding": "mapping",
        "key": "t_bytes32",
        "label": "mapping(bytes32 => struct CompoundingValidatorManager.ValidatorData)",
        "numberOfBytes": "32",
        "value": "t_struct(ValidatorData)3970_storage"
      },
      "t_struct(Balances)3988_storage": {
        "encoding": "inplace",
        "label": "struct CompoundingValidatorManager.Balances",
        "members": [
          {
            "astId": 3983,
            "contract": "contracts/strategies/NativeStaking/CompoundingStakingSSVStrategy.sol:CompoundingStakingSSVStrategy",
            "label": "blockRoot",
            "offset": 0,
            "slot": "0",
            "type": "t_bytes32"
          },
          {
            "astId": 3985,
            "contract": "contracts/strategies/NativeStaking/CompoundingStakingSSVStrategy.sol:CompoundingStakingSSVStrategy",
            "label": "timestamp",
            "offset": 0,
            "slot": "1",
            "type": "t_uint64"
          },
          {
            "astId": 3987,
            "contract": "contracts/strategies/NativeStaking/CompoundingStakingSSVStrategy.sol:CompoundingStakingSSVStrategy",
            "label": "ethBalance",
            "offset": 8,
            "slot": "1",
            "type": "t_uint128"
          }
        ],
        "numberOfBytes": "64"
      },
      "t_struct(DepositData)3941_storage": {
        "encoding": "inplace",
        "label": "struct CompoundingValidatorManager.DepositData",
        "members": [
          {
            "astId": 3931,
            "contract": "contracts/strategies/NativeStaking/CompoundingStakingSSVStrategy.sol:CompoundingStakingSSVStrategy",
            "label": "pubKeyHash",
            "offset": 0,
            "slot": "0",
            "type": "t_bytes32"
          },
          {
            "astId": 3933,
            "contract": "contracts/strategies/NativeStaking/CompoundingStakingSSVStrategy.sol:CompoundingStakingSSVStrategy",
            "label": "amountGwei",
            "offset": 0,
            "slot": "1",
            "type": "t_uint64"
          },
          {
            "astId": 3935,
            "contract": "contracts/strategies/NativeStaking/CompoundingStakingSSVStrategy.sol:CompoundingStakingSSVStrategy",
            "label": "slot",
            "offset": 8,
            "slot": "1",
            "type": "t_uint64"
          },
          {
            "astId": 3937,
            "contract": "contracts/strategies/NativeStaking/CompoundingStakingSSVStrategy.sol:CompoundingStakingSSVStrategy",
            "label": "depositIndex",
            "offset": 16,
            "slot": "1",
            "type": "t_uint32"
          },
          {
            "astId": 3940,
            "contract": "contracts/strategies/NativeStaking/CompoundingStakingSSVStrategy.sol:CompoundingStakingSSVStrategy",
            "label": "status",
            "offset": 20,
            "slot": "1",
            "type": "t_enum(DepositStatus)3928"
          }
        ],
        "numberOfBytes": "64"
      },
      "t_struct(ValidatorData)3970_storage": {
        "encoding": "inplace",
        "label": "struct CompoundingValidatorManager.ValidatorData",
        "members": [
          {
            "astId": 3967,
            "contract": "contracts/strategies/NativeStaking/CompoundingStakingSSVStrategy.sol:CompoundingStakingSSVStrategy",
            "label": "state",
            "offset": 0,
            "slot": "0",
            "type": "t_enum(ValidatorState)3964"
          },
          {
            "astId": 3969,
            "contract": "contracts/strategies/NativeStaking/CompoundingStakingSSVStrategy.sol:CompoundingStakingSSVStrategy",
            "label": "index",
            "offset": 1,
            "slot": "0",
            "type": "t_uint40"
          }
        ],
        "numberOfBytes": "32"
      },
      "t_uint128": {
        "encoding": "inplace",
        "label": "uint128",
        "numberOfBytes": "16"
      },
      "t_uint256": {
        "encoding": "inplace",
        "label": "uint256",
        "numberOfBytes": "32"
      },
      "t_uint32": {
        "encoding": "inplace",
        "label": "uint32",
        "numberOfBytes": "4"
      },
      "t_uint40": {
        "encoding": "inplace",
        "label": "uint40",
        "numberOfBytes": "5"
      },
      "t_uint64": {
        "encoding": "inplace",
        "label": "uint64",
        "numberOfBytes": "8"
      }
    }
  }
}