{
  "address": "0x7476F56EB07e71CeD2fB417D1Aaa925549B2a7f5",
  "abi": [
    {
      "inputs": [
        {
          "internalType": "address",
          "name": "_stakingStrategy",
          "type": "address"
        }
      ],
      "stateMutability": "nonpayable",
      "type": "constructor"
    },
    {
      "inputs": [],
      "name": "getPendingDeposits",
      "outputs": [
        {
          "components": [
            {
              "internalType": "uint256",
              "name": "depositID",
              "type": "uint256"
            },
            {
              "internalType": "bytes32",
              "name": "pubKeyHash",
              "type": "bytes32"
            },
            {
              "internalType": "uint64",
              "name": "amountGwei",
              "type": "uint64"
            },
            {
              "internalType": "uint64",
              "name": "slot",
              "type": "uint64"
            },
            {
              "internalType": "uint256",
              "name": "withdrawableEpoch",
              "type": "uint256"
            }
          ],
          "internalType": "struct CompoundingStakingStrategyView.DepositView[]",
          "name": "pendingDeposits",
          "type": "tuple[]"
        }
      ],
      "stateMutability": "view",
      "type": "function"
    },
    {
      "inputs": [],
      "name": "getVerifiedValidators",
      "outputs": [
        {
          "components": [
            {
              "internalType": "bytes32",
              "name": "pubKeyHash",
              "type": "bytes32"
            },
            {
              "internalType": "uint64",
              "name": "index",
              "type": "uint64"
            },
            {
              "internalType": "enum CompoundingValidatorManager.ValidatorState",
              "name": "state",
              "type": "uint8"
            }
          ],
          "internalType": "struct CompoundingStakingStrategyView.ValidatorView[]",
          "name": "validators",
          "type": "tuple[]"
        }
      ],
      "stateMutability": "view",
      "type": "function"
    },
    {
      "inputs": [],
      "name": "stakingStrategy",
      "outputs": [
        {
          "internalType": "contract CompoundingValidatorManager",
          "name": "",
          "type": "address"
        }
      ],
      "stateMutability": "view",
      "type": "function"
    }
  ],
  "transactionHash": "0x1e8ec0561c1bf3fb2068844e7d7f595422ddac84b866763a183867c4aa1da0d9",
  "args": [
    "0xE0c7B62f75c54Cc75573965C566f37B266F216FB"
  ],
  "numDeployments": 2,
  "solcInputHash": "df854a646f7e413f41affca8d5e99ba6",
  "bytecode": "0x60a060405234801561001057600080fd5b5060405161099138038061099183398101604081905261002f91610040565b6001600160a01b0316608052610070565b60006020828403121561005257600080fd5b81516001600160a01b038116811461006957600080fd5b9392505050565b6080516108d76100ba60003960008181604b0152818160ba015281816101ce01528181610248015281816103440152818161044e0152818161047d015261058a01526108d76000f3fe608060405234801561001057600080fd5b50600436106100415760003560e01c80632e4aee1f146100465780635e1c519b1461008a578063d1699c261461009f575b600080fd5b61006d7f000000000000000000000000000000000000000000000000000000000000000081565b6040516001600160a01b0390911681526020015b60405180910390f35b6100926100b4565b6040516100819190610688565b6100a761033e565b604051610081919061070b565b606060007f00000000000000000000000000000000000000000000000000000000000000006001600160a01b031663d79e40326040518163ffffffff1660e01b8152600401602060405180830381865afa158015610116573d6000803e3d6000fd5b505050506040513d601f19601f8201168201806040525081019061013a9190610787565b90508067ffffffffffffffff811115610155576101556107a0565b6040519080825280602002602001820160405280156101a757816020015b61019460408051606081018252600080825260208201819052909182015290565b8152602001906001900390816101735790505b50915060005b8181101561033957604051630ef9985560e01b8152600481018290526000907f00000000000000000000000000000000000000000000000000000000000000006001600160a01b031690630ef9985590602401602060405180830381865afa15801561021d573d6000803e3d6000fd5b505050506040513d601f19601f820116820180604052508101906102419190610787565b90506000807f00000000000000000000000000000000000000000000000000000000000000006001600160a01b03166398245f1b846040518263ffffffff1660e01b815260040161029491815260200190565b6040805180830381865afa1580156102b0573d6000803e3d6000fd5b505050506040513d601f19601f820116820180604052508101906102d491906107d3565b9150915060405180606001604052808481526020018267ffffffffffffffff16815260200183600781111561030b5761030b610672565b8152508685815181106103205761032061080c565b60200260200101819052505050508060010190506101ad565b505090565b606060007f00000000000000000000000000000000000000000000000000000000000000006001600160a01b0316634896b31a6040518163ffffffff1660e01b8152600401602060405180830381865afa1580156103a0573d6000803e3d6000fd5b505050506040513d601f19601f820116820180604052508101906103c49190610787565b90508067ffffffffffffffff8111156103df576103df6107a0565b60405190808252806020026020018201604052801561043857816020015b6040805160a0810182526000808252602080830182905292820181905260608201819052608082015282526000199092019101816103fd5790505b50915060005b81811015610339576000806000807f00000000000000000000000000000000000000000000000000000000000000006001600160a01b031663b02c43d07f00000000000000000000000000000000000000000000000000000000000000006001600160a01b031663b8ec6678886040518263ffffffff1660e01b81526004016104c991815260200190565b602060405180830381865afa1580156104e6573d6000803e3d6000fd5b505050506040513d601f19601f8201168201806040525081019061050a9190610787565b6040518263ffffffff1660e01b815260040161052891815260200190565b60c060405180830381865afa158015610545573d6000803e3d6000fd5b505050506040513d601f19601f820116820180604052508101906105699190610822565b67ffffffffffffffff16955050509350935093506040518060a001604052807f00000000000000000000000000000000000000000000000000000000000000006001600160a01b031663b8ec6678886040518263ffffffff1660e01b81526004016105d691815260200190565b602060405180830381865afa1580156105f3573d6000803e3d6000fd5b505050506040513d601f19601f820116820180604052508101906106179190610787565b81526020018581526020018467ffffffffffffffff1681526020018367ffffffffffffffff168152602001828152508786815181106106585761065861080c565b60200260200101819052505050505080600101905061043e565b634e487b7160e01b600052602160045260246000fd5b602080825282518282018190526000918401906040840190835b818110156107005783518051845260208082015167ffffffffffffffff169085015260400151600881106106e657634e487b7160e01b600052602160045260246000fd5b6040840152602093909301926060909201916001016106a2565b509095945050505050565b602080825282518282018190526000918401906040840190835b81811015610700578351805184526020810151602085015267ffffffffffffffff604082015116604085015267ffffffffffffffff6060820151166060850152608081015160808501525060a083019250602084019350600181019050610725565b60006020828403121561079957600080fd5b5051919050565b634e487b7160e01b600052604160045260246000fd5b805167ffffffffffffffff811681146107ce57600080fd5b919050565b600080604083850312156107e657600080fd5b8251600881106107f557600080fd5b9150610803602084016107b6565b90509250929050565b634e487b7160e01b600052603260045260246000fd5b60008060008060008060c0878903121561083b57600080fd5b8651955061084b602088016107b6565b9450610859604088016107b6565b9350606087015163ffffffff8116811461087257600080fd5b60808801519093506003811061088757600080fd5b915061089560a088016107b6565b9050929550929550929556fea2646970667358221220b66db0bfafe8ca64b4b2d898b3f8529d9f89c4798781e96df855edc4ea42333964736f6c634300081c0033",
  "libraries": {},
  "devdoc": {
    "author": "Origin Protocol Inc",
    "kind": "dev",
    "methods": {
      "getPendingDeposits()": {
        "returns": {
          "pendingDeposits": "An array of `DepositView` containing the deposit ID, public key hash, amount in Gwei and the slot of the deposit."
        }
      },
      "getVerifiedValidators()": {
        "returns": {
          "validators": "An array of `ValidatorView` containing the public key hash, validator index and state."
        }
      }
    },
    "title": "Viewing contract for the Compounding Staking Strategy.",
    "version": 1
  },
  "userdoc": {
    "kind": "user",
    "methods": {
      "getPendingDeposits()": {
        "notice": "Returns the deposits that are still to be verified. These may or may not have been processed by the beacon chain."
      },
      "getVerifiedValidators()": {
        "notice": "Returns the strategy's active validators. These are the ones that have been verified and have a non-zero balance."
      },
      "stakingStrategy()": {
        "notice": "The address of the Compounding Staking Strategy contract"
      }
    },
    "version": 1
  },
  "storageLayout": {
    "storage": [],
    "types": null
  }
}