{
  "address": "0x052D70D14F57cb1B6B6F75b4fA03Ae0603fe94cf",
  "abi": [
    {
      "inputs": [
        {
          "internalType": "address",
          "name": "_owner",
          "type": "address"
        },
        {
          "internalType": "address",
          "name": "_validatorRegistrator",
          "type": "address"
        },
        {
          "internalType": "address",
          "name": "_nativeStakingStrategy2",
          "type": "address"
        },
        {
          "internalType": "address",
          "name": "_nativeStakingStrategy3",
          "type": "address"
        },
        {
          "internalType": "address",
          "name": "_targetStrategy",
          "type": "address"
        }
      ],
      "stateMutability": "nonpayable",
      "type": "constructor"
    },
    {
      "anonymous": false,
      "inputs": [
        {
          "indexed": true,
          "internalType": "address",
          "name": "previousOwner",
          "type": "address"
        },
        {
          "indexed": true,
          "internalType": "address",
          "name": "newOwner",
          "type": "address"
        }
      ],
      "name": "OwnershipTransferred",
      "type": "event"
    },
    {
      "inputs": [
        {
          "components": [
            {
              "internalType": "bytes32",
              "name": "balancesContainerRoot",
              "type": "bytes32"
            },
            {
              "internalType": "bytes",
              "name": "balancesContainerProof",
              "type": "bytes"
            },
            {
              "internalType": "bytes32[]",
              "name": "validatorBalanceLeaves",
              "type": "bytes32[]"
            },
            {
              "internalType": "bytes[]",
              "name": "validatorBalanceProofs",
              "type": "bytes[]"
            }
          ],
          "internalType": "struct CompoundingValidatorManager.BalanceProofs",
          "name": "balanceProofs",
          "type": "tuple"
        },
        {
          "components": [
            {
              "internalType": "bytes32",
              "name": "pendingDepositContainerRoot",
              "type": "bytes32"
            },
            {
              "internalType": "bytes",
              "name": "pendingDepositContainerProof",
              "type": "bytes"
            },
            {
              "internalType": "uint32[]",
              "name": "pendingDepositIndexes",
              "type": "uint32[]"
            },
            {
              "internalType": "bytes[]",
              "name": "pendingDepositProofs",
              "type": "bytes[]"
            }
          ],
          "internalType": "struct CompoundingValidatorManager.PendingDepositProofs",
          "name": "pendingDepositProofs",
          "type": "tuple"
        }
      ],
      "name": "confirmConsolidation",
      "outputs": [],
      "stateMutability": "nonpayable",
      "type": "function"
    },
    {
      "inputs": [],
      "name": "consolidationCount",
      "outputs": [
        {
          "internalType": "uint64",
          "name": "",
          "type": "uint64"
        }
      ],
      "stateMutability": "view",
      "type": "function"
    },
    {
      "inputs": [],
      "name": "consolidationStartTimestamp",
      "outputs": [
        {
          "internalType": "uint64",
          "name": "",
          "type": "uint64"
        }
      ],
      "stateMutability": "view",
      "type": "function"
    },
    {
      "inputs": [
        {
          "internalType": "address",
          "name": "_sourceStrategy",
          "type": "address"
        }
      ],
      "name": "doAccounting",
      "outputs": [
        {
          "internalType": "bool",
          "name": "accountingValid",
          "type": "bool"
        }
      ],
      "stateMutability": "nonpayable",
      "type": "function"
    },
    {
      "inputs": [
        {
          "internalType": "address",
          "name": "_sourceStrategy",
          "type": "address"
        },
        {
          "internalType": "bytes",
          "name": "publicKey",
          "type": "bytes"
        },
        {
          "internalType": "uint64[]",
          "name": "operatorIds",
          "type": "uint64[]"
        }
      ],
      "name": "exitSsvValidator",
      "outputs": [],
      "stateMutability": "nonpayable",
      "type": "function"
    },
    {
      "inputs": [
        {
          "internalType": "bytes[]",
          "name": "sourcePubKeys",
          "type": "bytes[]"
        }
      ],
      "name": "failConsolidation",
      "outputs": [],
      "stateMutability": "nonpayable",
      "type": "function"
    },
    {
      "inputs": [],
      "name": "owner",
      "outputs": [
        {
          "internalType": "address",
          "name": "",
          "type": "address"
        }
      ],
      "stateMutability": "view",
      "type": "function"
    },
    {
      "inputs": [
        {
          "internalType": "address",
          "name": "_sourceStrategy",
          "type": "address"
        },
        {
          "internalType": "bytes",
          "name": "publicKey",
          "type": "bytes"
        },
        {
          "internalType": "uint64[]",
          "name": "operatorIds",
          "type": "uint64[]"
        },
        {
          "components": [
            {
              "internalType": "uint32",
              "name": "validatorCount",
              "type": "uint32"
            },
            {
              "internalType": "uint64",
              "name": "networkFeeIndex",
              "type": "uint64"
            },
            {
              "internalType": "uint64",
              "name": "index",
              "type": "uint64"
            },
            {
              "internalType": "bool",
              "name": "active",
              "type": "bool"
            },
            {
              "internalType": "uint256",
              "name": "balance",
              "type": "uint256"
            }
          ],
          "internalType": "struct Cluster",
          "name": "cluster",
          "type": "tuple"
        }
      ],
      "name": "removeSsvValidator",
      "outputs": [],
      "stateMutability": "nonpayable",
      "type": "function"
    },
    {
      "inputs": [],
      "name": "renounceOwnership",
      "outputs": [],
      "stateMutability": "nonpayable",
      "type": "function"
    },
    {
      "inputs": [
        {
          "internalType": "address",
          "name": "_sourceStrategy",
          "type": "address"
        },
        {
          "internalType": "bytes[]",
          "name": "sourcePubKeys",
          "type": "bytes[]"
        },
        {
          "internalType": "bytes",
          "name": "targetPubKey",
          "type": "bytes"
        }
      ],
      "name": "requestConsolidation",
      "outputs": [],
      "stateMutability": "payable",
      "type": "function"
    },
    {
      "inputs": [],
      "name": "sourceStrategy",
      "outputs": [
        {
          "internalType": "address",
          "name": "",
          "type": "address"
        }
      ],
      "stateMutability": "view",
      "type": "function"
    },
    {
      "inputs": [
        {
          "components": [
            {
              "internalType": "bytes",
              "name": "pubkey",
              "type": "bytes"
            },
            {
              "internalType": "bytes",
              "name": "signature",
              "type": "bytes"
            },
            {
              "internalType": "bytes32",
              "name": "depositDataRoot",
              "type": "bytes32"
            }
          ],
          "internalType": "struct CompoundingValidatorManager.ValidatorStakeData",
          "name": "validatorStakeData",
          "type": "tuple"
        },
        {
          "internalType": "uint64",
          "name": "depositAmountGwei",
          "type": "uint64"
        }
      ],
      "name": "stakeEth",
      "outputs": [],
      "stateMutability": "nonpayable",
      "type": "function"
    },
    {
      "inputs": [],
      "name": "targetPubKeyHash",
      "outputs": [
        {
          "internalType": "bytes32",
          "name": "",
          "type": "bytes32"
        }
      ],
      "stateMutability": "view",
      "type": "function"
    },
    {
      "inputs": [
        {
          "internalType": "address",
          "name": "newOwner",
          "type": "address"
        }
      ],
      "name": "transferOwnership",
      "outputs": [],
      "stateMutability": "nonpayable",
      "type": "function"
    },
    {
      "inputs": [],
      "name": "validatorRegistrator",
      "outputs": [
        {
          "internalType": "address",
          "name": "",
          "type": "address"
        }
      ],
      "stateMutability": "view",
      "type": "function"
    },
    {
      "inputs": [
        {
          "internalType": "bytes",
          "name": "publicKey",
          "type": "bytes"
        },
        {
          "internalType": "uint64",
          "name": "amountGwei",
          "type": "uint64"
        }
      ],
      "name": "validatorWithdrawal",
      "outputs": [],
      "stateMutability": "payable",
      "type": "function"
    },
    {
      "inputs": [
        {
          "components": [
            {
              "internalType": "bytes32",
              "name": "balancesContainerRoot",
              "type": "bytes32"
            },
            {
              "internalType": "bytes",
              "name": "balancesContainerProof",
              "type": "bytes"
            },
            {
              "internalType": "bytes32[]",
              "name": "validatorBalanceLeaves",
              "type": "bytes32[]"
            },
            {
              "internalType": "bytes[]",
              "name": "validatorBalanceProofs",
              "type": "bytes[]"
            }
          ],
          "internalType": "struct CompoundingValidatorManager.BalanceProofs",
          "name": "balanceProofs",
          "type": "tuple"
        },
        {
          "components": [
            {
              "internalType": "bytes32",
              "name": "pendingDepositContainerRoot",
              "type": "bytes32"
            },
            {
              "internalType": "bytes",
              "name": "pendingDepositContainerProof",
              "type": "bytes"
            },
            {
              "internalType": "uint32[]",
              "name": "pendingDepositIndexes",
              "type": "uint32[]"
            },
            {
              "internalType": "bytes[]",
              "name": "pendingDepositProofs",
              "type": "bytes[]"
            }
          ],
          "internalType": "struct CompoundingValidatorManager.PendingDepositProofs",
          "name": "pendingDepositProofs",
          "type": "tuple"
        }
      ],
      "name": "verifyBalances",
      "outputs": [],
      "stateMutability": "nonpayable",
      "type": "function"
    }
  ],
  "transactionHash": "0xb4b19c3fb7243dabe99ba872b81eef322f95d4b888159c9f74fbcee127ae2333",
  "args": [
    "0x419b6bdae482f41b8b194515749f3a2da26d583b",
    "0x419b6bdae482f41b8b194515749f3a2da26d583b",
    "0x95DdB082cf2b8Bb4a4A358A8817a848cE32e446b",
    "0x95DdB082cf2b8Bb4a4A358A8817a848cE32e446b",
    "0xb5B92DEFC0a9623E31e10Fe0BaE02610bf76fd09"
  ],
  "numDeployments": 1,
  "solcInputHash": "2db0fe17c09e295f51c2ccd390709c93",
  "bytecode": "0x61010060405234801561001157600080fd5b50604051612287380380612287833981016040819052610030916100d1565b61003933610065565b61004285610065565b6001600160a01b0393841660805291831660a052821660c0521660e05250610136565b600080546001600160a01b038381166001600160a01b0319831681178455604051919092169283917f8be0079c531659141344cd1fd0a4f28419497f9722a3daafe3b4186f6b6457e09190a35050565b80516001600160a01b03811681146100cc57600080fd5b919050565b600080600080600060a086880312156100e957600080fd5b6100f2866100b5565b9450610100602087016100b5565b935061010e604087016100b5565b925061011c606087016100b5565b915061012a608087016100b5565b90509295509295909350565b60805160a05160c05160e0516120bd6101ca6000396000818161036d0152818161045e015281816107db01528181610a5901528181610b8e01528181610d7101528181610ea30152818161131601526113c60152600061121c015260006111e101526000818161028a015281816108b10152818161096e01528181610df601528181610f38015261102701526120bd6000f3fe6080604052600436106100fe5760003560e01c80635fcb8ef7116100955780638da5cb5b116100645780638da5cb5b146102c4578063a2962d0f146102e2578063db4a9dc714610309578063f0646f0614610329578063f2fde38b1461034957600080fd5b80635fcb8ef71461021f578063715018a61461023f578063847f457a1461025457806387bae8671461027857600080fd5b80634583ef10116100d15780634583ef101461019a5780634a675f31146101ba5780634ed5048b146101f9578063522e42451461020c57600080fd5b80631a1a1571146101035780631d6223281461012557806322cdec07146101455780633898c87814610165575b600080fd5b34801561010f57600080fd5b5061012361011e36600461154c565b610369565b005b34801561013157600080fd5b506101236101403660046115fe565b6104cc565b34801561015157600080fd5b5061012361016036600461154c565b610683565b34801561017157600080fd5b50610185610180366004611656565b6108a4565b60405190151581526020015b60405180910390f35b3480156101a657600080fd5b506101236101b536600461168d565b610963565b3480156101c657600080fd5b506000546101e190600160a01b90046001600160401b031681565b6040516001600160401b039091168152602001610191565b610123610207366004611724565b610ac6565b61012361021a3660046117a8565b610deb565b34801561022b57600080fd5b506001546101e1906001600160401b031681565b34801561024b57600080fd5b50610123610ef7565b34801561026057600080fd5b5061026a60025481565b604051908152602001610191565b34801561028457600080fd5b506102ac7f000000000000000000000000000000000000000000000000000000000000000081565b6040516001600160a01b039091168152602001610191565b3480156102d057600080fd5b506000546001600160a01b03166102ac565b3480156102ee57600080fd5b506001546102ac90600160401b90046001600160a01b031681565b34801561031557600080fd5b506101236103243660046117fe565b610f2d565b34801561033557600080fd5b5061012361034436600461189d565b61101c565b34801561035557600080fd5b50610123610364366004611656565b6110d8565b60007f00000000000000000000000000000000000000000000000000000000000000006001600160a01b03166325e2e9f36040518163ffffffff1660e01b8152600401606060405180830381865afa1580156103c9573d6000803e3d6000fd5b505050506040513d601f19601f820116820180604052508101906103ed9190611910565b50600054909250600160a01b90046001600160401b0316158015915061042157506001546001600160401b03828116911614155b156104475760405162461bcd60e51b815260040161043e9061195e565b60405180910390fd5b604051631a1a157160e01b81526001600160a01b037f00000000000000000000000000000000000000000000000000000000000000001690631a1a1571906104959086908690600401611b6a565b600060405180830381600087803b1580156104af57600080fd5b505af11580156104c3573d6000803e3d6000fd5b50505050505050565b6000546001600160a01b031633146104f65760405162461bcd60e51b815260040161043e90611c22565b600054600160a01b90046001600160401b03166105555760405162461bcd60e51b815260206004820152601c60248201527f4e6f20636f6e736f6c69646174696f6e20696e2070726f677265737300000000604482015260640161043e565b600054600160a01b90046001600160401b03168111156105b75760405162461bcd60e51b815260206004820152601b60248201527f4578636565647320636f6e736f6c69646174696f6e20636f756e740000000000604482015260640161043e565b600154600160401b90046001600160a01b03166105d382611173565b600080546014906105f5908490600160a01b90046001600160401b0316611c6d565b92506101000a8154816001600160401b0302191690836001600160401b03160217905550600060149054906101000a90046001600160401b03166001600160401b031660000361065557600180546001600160e01b031916905560006002555b6040516303ac446560e31b81526001600160a01b03821690631d622328906104959086908690600401611c92565b6000546001600160a01b031633146106ad5760405162461bcd60e51b815260040161043e90611c22565b600054600160a01b90046001600160401b031661070c5760405162461bcd60e51b815260206004820152601c60248201527f4e6f20636f6e736f6c69646174696f6e20696e2070726f677265737300000000604482015260640161043e565b6001546107269062018000906001600160401b0316611cae565b426001600160401b03161161077d5760405162461bcd60e51b815260206004820152601760248201527f536f75726365206e6f7420776974686472617761626c65000000000000000000604482015260640161043e565b600180546000805467ffffffffffffffff60a01b19811682556001600160e01b03198316909355600255604051631a1a157160e01b81526001600160a01b03600160401b9092048216926001600160401b03600160a01b90910416917f00000000000000000000000000000000000000000000000000000000000000001690631a1a1571906108129087908790600401611b6a565b600060405180830381600087803b15801561082c57600080fd5b505af1158015610840573d6000803e3d6000fd5b50506040516375c20dd160e01b8152600481018490526001600160a01b03851692506375c20dd19150602401600060405180830381600087803b15801561088657600080fd5b505af115801561089a573d6000803e3d6000fd5b5050505050505050565b6000336001600160a01b037f000000000000000000000000000000000000000000000000000000000000000016146108ee5760405162461bcd60e51b815260040161043e90611cc1565b6108f7826111df565b816001600160a01b031663a4f98af46040518163ffffffff1660e01b81526004016020604051808303816000875af1158015610937573d6000803e3d6000fd5b505050506040513d601f19601f8201168201806040525081019061095b9190611d06565b90505b919050565b336001600160a01b037f000000000000000000000000000000000000000000000000000000000000000016146109ab5760405162461bcd60e51b815260040161043e90611cc1565b6002546109f56109bb8480611d23565b8080601f01602080910402602001604051908101604052809392919081815260200183838082843760009201919091525061129c92505050565b03610a425760405162461bcd60e51b815260206004820152601d60248201527f5374616b6520746f20636f6e736f6c69646174696f6e20746172676574000000604482015260640161043e565b6040516304583ef160e41b81526001600160a01b037f00000000000000000000000000000000000000000000000000000000000000001690634583ef1090610a909085908590600401611d69565b600060405180830381600087803b158015610aaa57600080fd5b505af1158015610abe573d6000803e3d6000fd5b505050505050565b6000546001600160a01b03163314610af05760405162461bcd60e51b815260040161043e90611c22565b600054600160a01b90046001600160401b031615610b205760405162461bcd60e51b815260040161043e9061195e565b610b29856111df565b6000610b6a83838080601f01602080910402602001604051908101604052809392919081815260200183838082843760009201919091525061129c92505050565b6040516398245f1b60e01b8152600481018290529091506000906001600160a01b037f000000000000000000000000000000000000000000000000000000000000000016906398245f1b906024016040805180830381865afa158015610bd4573d6000803e3d6000fd5b505050506040513d601f19601f82011682018060405250810190610bf89190611dda565b5090506004816008811115610c0f57610c0f611e17565b14610c5c5760405162461bcd60e51b815260206004820152601b60248201527f5461726765742076616c696461746f72206e6f74206163746976650000000000604482015260640161043e565b610c6582611311565b15610cb25760405162461bcd60e51b815260206004820152601a60248201527f546172676574206861732070656e64696e67206465706f736974000000000000604482015260640161043e565b610cbb85611173565b600080546001600160401b03928316600160a01b0267ffffffffffffffff60a01b19909116179055600180546001600160a01b038a16600160401b81026001600160e01b0319909216429094169390931717905560028390556040516322be1ffd60e01b81526322be1ffd903490610d3d908a908a908a908a90600401611e2d565b6000604051808303818588803b158015610d5657600080fd5b505af1158015610d6a573d6000803e3d6000fd5b50505050507f00000000000000000000000000000000000000000000000000000000000000006001600160a01b0316636874469d6040518163ffffffff1660e01b8152600401600060405180830381600087803b158015610dca57600080fd5b505af1158015610dde573d6000803e3d6000fd5b5050505050505050505050565b336001600160a01b037f00000000000000000000000000000000000000000000000000000000000000001614610e335760405162461bcd60e51b815260040161043e90611cc1565b6000816001600160401b031611610e8c5760405162461bcd60e51b815260206004820152601860248201527f4e6f206578697420647572696e67206d6967726174696f6e0000000000000000604482015260640161043e565b60405163522e424560e01b81526001600160a01b037f0000000000000000000000000000000000000000000000000000000000000000169063522e4245903490610ede90879087908790600401611e54565b6000604051808303818588803b15801561088657600080fd5b6000546001600160a01b03163314610f215760405162461bcd60e51b815260040161043e90611c22565b610f2b60006114e4565b565b336001600160a01b037f00000000000000000000000000000000000000000000000000000000000000001614610f755760405162461bcd60e51b815260040161043e90611cc1565b610f7e866111df565b600054600160a01b90046001600160401b031615610fae5760405162461bcd60e51b815260040161043e9061195e565b6040516371a735f360e01b81526001600160a01b038716906371a735f390610fe29088908890889088908890600401611ecb565b600060405180830381600087803b158015610ffc57600080fd5b505af1158015611010573d6000803e3d6000fd5b50505050505050505050565b336001600160a01b037f000000000000000000000000000000000000000000000000000000000000000016146110645760405162461bcd60e51b815260040161043e90611cc1565b61106d856111df565b60405163d9f00ec760e01b81526001600160a01b0386169063d9f00ec79061109f908790879087908790600401611f6d565b600060405180830381600087803b1580156110b957600080fd5b505af11580156110cd573d6000803e3d6000fd5b505050505050505050565b6000546001600160a01b031633146111025760405162461bcd60e51b815260040161043e90611c22565b6001600160a01b0381166111675760405162461bcd60e51b815260206004820152602660248201527f4f776e61626c653a206e6577206f776e657220697320746865207a65726f206160448201526564647265737360d01b606482015260840161043e565b611170816114e4565b50565b60006001600160401b038211156111db5760405162461bcd60e51b815260206004820152602660248201527f53616665436173743a2076616c756520646f65736e27742066697420696e203660448201526534206269747360d01b606482015260840161043e565b5090565b7f00000000000000000000000000000000000000000000000000000000000000006001600160a01b0316816001600160a01b0316148061125057507f00000000000000000000000000000000000000000000000000000000000000006001600160a01b0316816001600160a01b0316145b6111705760405162461bcd60e51b815260206004820152601760248201527f496e76616c696420736f75726365207374726174656779000000000000000000604482015260640161043e565b6000600282600060801b6040516020016112b7929190611fc4565b60408051601f19818403018152908290526112d191611ff2565b602060405180830381855afa1580156112ee573d6000803e3d6000fd5b5050506040513d601f19601f8201168201806040525081019061095b9190611ffe565b6000807f00000000000000000000000000000000000000000000000000000000000000006001600160a01b0316634896b31a6040518163ffffffff1660e01b8152600401602060405180830381865afa158015611372573d6000803e3d6000fd5b505050506040513d601f19601f820116820180604052508101906113969190611ffe565b905060005b818110156114da5760405163171d8ccf60e31b81526004810182905260009081906001600160a01b037f00000000000000000000000000000000000000000000000000000000000000001690633d4dff7b90829063b8ec667890602401602060405180830381865afa158015611415573d6000803e3d6000fd5b505050506040513d601f19601f820116820180604052508101906114399190611ffe565b6040518263ffffffff1660e01b815260040161145791815260200190565b60a060405180830381865afa158015611474573d6000803e3d6000fd5b505050506040513d601f19601f820116820180604052508101906114989190612017565b9450505050915085821480156114bf575060018160028111156114bd576114bd611e17565b145b156114d05750600195945050505050565b505060010161139b565b5060009392505050565b600080546001600160a01b038381166001600160a01b0319831681178455604051919092169283917f8be0079c531659141344cd1fd0a4f28419497f9722a3daafe3b4186f6b6457e09190a35050565b60006080828403121561154657600080fd5b50919050565b6000806040838503121561155f57600080fd5b82356001600160401b0381111561157557600080fd5b61158185828601611534565b92505060208301356001600160401b0381111561159d57600080fd5b6115a985828601611534565b9150509250929050565b60008083601f8401126115c557600080fd5b5081356001600160401b038111156115dc57600080fd5b6020830191508360208260051b85010111156115f757600080fd5b9250929050565b6000806020838503121561161157600080fd5b82356001600160401b0381111561162757600080fd5b611633858286016115b3565b90969095509350505050565b80356001600160a01b038116811461095e57600080fd5b60006020828403121561166857600080fd5b6116718261163f565b9392505050565b6001600160401b038116811461117057600080fd5b600080604083850312156116a057600080fd5b82356001600160401b038111156116b657600080fd5b8301606081860312156116c857600080fd5b915060208301356116d881611678565b809150509250929050565b60008083601f8401126116f557600080fd5b5081356001600160401b0381111561170c57600080fd5b6020830191508360208285010111156115f757600080fd5b60008060008060006060868803121561173c57600080fd5b6117458661163f565b945060208601356001600160401b0381111561176057600080fd5b61176c888289016115b3565b90955093505060408601356001600160401b0381111561178b57600080fd5b611797888289016116e3565b969995985093965092949392505050565b6000806000604084860312156117bd57600080fd5b83356001600160401b038111156117d357600080fd5b6117df868287016116e3565b90945092505060208401356117f381611678565b809150509250925092565b60008060008060008086880361010081121561181957600080fd5b6118228861163f565b965060208801356001600160401b0381111561183d57600080fd5b6118498a828b016116e3565b90975095505060408801356001600160401b0381111561186857600080fd5b6118748a828b016115b3565b90955093505060a0605f198201121561188c57600080fd5b506060870190509295509295509295565b6000806000806000606086880312156118b557600080fd5b6118be8661163f565b945060208601356001600160401b038111156118d957600080fd5b6118e5888289016116e3565b90955093505060408601356001600160401b0381111561190457600080fd5b611797888289016115b3565b60008060006060848603121561192557600080fd5b8351602085015190935061193881611678565b60408501519092506fffffffffffffffffffffffffffffffff811681146117f357600080fd5b60208082526019908201527f436f6e736f6c69646174696f6e20696e2070726f677265737300000000000000604082015260600190565b6000808335601e198436030181126119ac57600080fd5b83016020810192503590506001600160401b038111156119cb57600080fd5b8036038213156115f757600080fd5b81835281816020850137506000828201602090810191909152601f909101601f19169091010190565b6000808335601e19843603018112611a1a57600080fd5b83016020810192503590506001600160401b03811115611a3957600080fd5b8060051b36038213156115f757600080fd5b60008383855260208501945060208460051b8201018360005b86811015611aa257838303601f19018852611a7f8287611995565b611a8a8582846119da565b60209a8b019a90955093909301925050600101611a64565b50909695505050505050565b63ffffffff8116811461117057600080fd5b803582526000611ad36020830183611995565b60806020860152611ae86080860182846119da565b915050611af86040840184611a03565b85830360408701528083529091600091906020015b81831015611b3b578335611b2081611aae565b63ffffffff1681526020938401936001939093019201611b0d565b611b486060870187611a03565b945092508681036060880152611b5f818585611a4b565b979650505050505050565b60408082528335908201526000611b846020850185611995565b60806060850152611b9960c0850182846119da565b915050611ba96040860186611a03565b848303603f190160808601528083526001600160fb1b03811115611bcc57600080fd5b60051b80826020850137919091019050611be96060860186611a03565b601f198584030160a0860152611c03602084018284611a4b565b925050508281036020840152611c198185611ac0565b95945050505050565b6020808252818101527f4f776e61626c653a2063616c6c6572206973206e6f7420746865206f776e6572604082015260600190565b634e487b7160e01b600052601160045260246000fd5b6001600160401b038281168282160390811115611c8c57611c8c611c57565b92915050565b602081526000611ca6602083018486611a4b565b949350505050565b80820180821115611c8c57611c8c611c57565b6020808252601d908201527f43616c6c6572206973206e6f7420746865205265676973747261746f72000000604082015260600190565b801515811461117057600080fd5b600060208284031215611d1857600080fd5b815161167181611cf8565b6000808335601e19843603018112611d3a57600080fd5b8301803591506001600160401b03821115611d5457600080fd5b6020019150368190038213156115f757600080fd5b604081526000611d798485611995565b60606040850152611d8e60a0850182846119da565b915050611d9e6020860186611995565b848303603f19016060860152611db58382846119da565b604097909701356080860152505050506001600160401b039190911660209091015290565b60008060408385031215611ded57600080fd5b825160098110611dfc57600080fd5b602084015190925064ffffffffff811681146116d857600080fd5b634e487b7160e01b600052602160045260246000fd5b604081526000611e41604083018688611a4b565b8281036020840152611b5f8185876119da565b604081526000611e686040830185876119da565b90506001600160401b0383166020830152949350505050565b81835260208301925060008160005b84811015611ec1578135611ea381611678565b6001600160401b031686526020958601959190910190600101611e90565b5093949350505050565b60e081526000611edf60e0830187896119da565b8281036020840152611ef2818688611e81565b9150508235611f0081611aae565b63ffffffff1660408301526020830135611f1981611678565b6001600160401b031660608301526040830135611f3581611678565b6001600160401b031660808301526060830135611f5181611cf8565b151560a08301526080929092013560c090910152949350505050565b604081526000611f816040830186886119da565b8281036020840152611b5f818587611e81565b6000815160005b81811015611fb55760208185018101518683015201611f9b565b50600093019283525090919050565b6000611fd08285611f94565b6fffffffffffffffffffffffffffffffff199390931683525050601001919050565b60006116718284611f94565b60006020828403121561201057600080fd5b5051919050565b600080600080600060a0868803121561202f57600080fd5b8551602087015190955061204281611678565b604087015190945061205381611678565b606087015190935061206481611aae565b60808701519092506003811061207957600080fd5b80915050929550929590935056fea2646970667358221220dff4ca0b6354628b80a1604aa6ea1841fd09445113af42cbd046eef4acb8bb4164736f6c634300081c0033",
  "libraries": {},
  "devdoc": {
    "author": "Origin Protocol Inc",
    "kind": "dev",
    "methods": {
      "confirmConsolidation((bytes32,bytes,bytes32[],bytes[]),(bytes32,bytes,uint32[],bytes[]))": {
        "params": {
          "balanceProofs": "a `BalanceProofs` struct containing the following: - balancesContainerRoot: The merkle root of the balances container - balancesContainerProof: The merkle proof for the balances container to the beacon block root.    This is 9 witness hashes of 32 bytes each concatenated together starting from the leaf node. - validatorBalanceLeaves: Array of leaf nodes containing the validator balance with three other balances. - validatorBalanceProofs: Array of merkle proofs for the validator balance to the Balances container root.    This is 39 witness hashes of 32 bytes each concatenated together starting from the leaf node.",
          "pendingDepositProofs": "a `PendingDepositProofs` struct containing the following: - pendingDepositContainerRoot: The merkle root of the pending deposits list container - pendingDepositContainerProof: The merkle proof from the pending deposits list container     to the beacon block root.    This is 9 witness hashes of 32 bytes each concatenated together starting from the leaf node. - pendingDepositIndexes: Array of indexes in the pending deposits list container for each    of the strategy's deposits. - pendingDepositProofs: Array of merkle proofs for each strategy deposit in the    beacon chain's pending deposit list container to the pending deposits list container root.    These are 28 witness hashes of 32 bytes each concatenated together starting from the leaf node."
        }
      },
      "constructor": {
        "params": {
          "_owner": "The owner who can request, fail and confirm consolidations",
          "_validatorRegistrator": "The validator registrator who does operations on the old staking strategy"
        }
      },
      "doAccounting(address)": {
        "params": {
          "_sourceStrategy": "The address of the old Native Staking Strategy"
        },
        "returns": {
          "accountingValid": "true if accounting was successful, false if fuse is blown"
        }
      },
      "exitSsvValidator(address,bytes,uint64[])": {
        "params": {
          "_sourceStrategy": "The address of the old Native Staking Strategy",
          "operatorIds": "The operator IDs for the source SSV cluster",
          "publicKey": "The public key of the validator to exit which must have STAKED state."
        }
      },
      "failConsolidation(bytes[])": {
        "params": {
          "sourcePubKeys": "The public keys of the source validators that failed to be consolidated."
        }
      },
      "owner()": {
        "details": "Returns the address of the current owner."
      },
      "removeSsvValidator(address,bytes,uint64[],(uint32,uint64,uint64,bool,uint256))": {
        "params": {
          "_sourceStrategy": "The address of the old Native Staking Strategy",
          "cluster": "The SSV cluster information for the source validator",
          "operatorIds": "The operator IDs for the source SSV cluster",
          "publicKey": "The public key of the validator to remove which must have EXITING or REGISTERED state."
        }
      },
      "renounceOwnership()": {
        "details": "Leaves the contract without owner. It will not be possible to call `onlyOwner` functions anymore. Can only be called by the current owner. NOTE: Renouncing ownership will leave the contract without an owner, thereby removing any functionality that is only available to the owner."
      },
      "requestConsolidation(address,bytes[],bytes)": {
        "params": {
          "_sourceStrategy": "The address of the old Native Staking Strategy",
          "sourcePubKeys": "The public keys of the validators to be consolidated from the old Native Staking Strategy",
          "targetPubKey": "The public key of the target validator on the new Compounding Staking Strategy"
        }
      },
      "stakeEth((bytes,bytes,bytes32),uint64)": {
        "params": {
          "depositAmountGwei": "The amount of WETH to stake to the validator in Gwei.",
          "validatorStakeData": "validator data needed to stake. The `ValidatorStakeData` struct contains the pubkey, signature and depositDataRoot."
        }
      },
      "transferOwnership(address)": {
        "details": "Transfers ownership of the contract to a new account (`newOwner`). Can only be called by the current owner."
      },
      "validatorWithdrawal(bytes,uint64)": {
        "params": {
          "amountGwei": "The amount of ETH to be withdrawn from the validator in Gwei. A zero amount is not allowed.",
          "publicKey": "The public key of the validator"
        }
      },
      "verifyBalances((bytes32,bytes,bytes32[],bytes[]),(bytes32,bytes,uint32[],bytes[]))": {
        "params": {
          "balanceProofs": "a `BalanceProofs` struct containing the following: - balancesContainerRoot: The merkle root of the balances container - balancesContainerProof: The merkle proof for the balances container to the beacon block root.    This is 9 witness hashes of 32 bytes each concatenated together starting from the leaf node. - validatorBalanceLeaves: Array of leaf nodes containing the validator balance with three other balances. - validatorBalanceProofs: Array of merkle proofs for the validator balance to the Balances container root.    This is 39 witness hashes of 32 bytes each concatenated together starting from the leaf node.",
          "pendingDepositProofs": "a `PendingDepositProofs` struct containing the following: - pendingDepositContainerRoot: The merkle root of the pending deposits list container - pendingDepositContainerProof: The merkle proof from the pending deposits list container     to the beacon block root.    This is 9 witness hashes of 32 bytes each concatenated together starting from the leaf node. - pendingDepositIndexes: Array of indexes in the pending deposits list container for each    of the strategy's deposits. - pendingDepositProofs: Array of merkle proofs for each strategy deposit in the    beacon chain's pending deposit list container to the pending deposits list container root.    These are 28 witness hashes of 32 bytes each concatenated together starting from the leaf node."
        }
      }
    },
    "stateVariables": {
      "MIN_CONSOLIDATION_PERIOD": {
        "details": "Minimum time that must pass before a consolidation request can be processed. 256 epochs * 32 slots/epoch * 12 seconds/slot = 98304 seconds (~27 hours) The actual time can be a lot longer than this depending on the number of requests in the beacon chain's pending consolidation queue."
      },
      "nativeStakingStrategy2": {
        "details": "The old Native Staking Strategy connected to the second SSV cluster"
      },
      "nativeStakingStrategy3": {
        "details": "The old Native Staking Strategy connected to the third SSV cluster"
      },
      "targetStrategy": {
        "details": "The new Compounding Staking Strategy"
      }
    },
    "title": "Consolidation Controller",
    "version": 1
  },
  "userdoc": {
    "kind": "user",
    "methods": {
      "confirmConsolidation((bytes32,bytes,bytes32[],bytes[]),(bytes32,bytes,uint32[],bytes[]))": {
        "notice": "Confirm the consolidation of validators from an old Native Staking Strategy to the new Compounding Staking Strategy has been completed."
      },
      "consolidationCount()": {
        "notice": "Number of validators being consolidated"
      },
      "consolidationStartTimestamp()": {
        "notice": "Timestamp when the consolidation process was requested"
      },
      "doAccounting(address)": {
        "notice": "The validator registrator of the old Native Staking Strategy can call doAccounting"
      },
      "exitSsvValidator(address,bytes,uint64[])": {
        "notice": "Exit of source validators are allowed during the consolidation process as consolidated validators will be in EXITING state hence can not be consolidated after exit. Only callable by the validator registrator."
      },
      "failConsolidation(bytes[])": {
        "notice": "A consolidation request can fail to be processed on the beacon chain for various reasons. For example, the pending consolidation queue is full with 262,144 requests. Or the source validator has exited from a voluntary exit request. This reduces the consolidation count and changes the validator state back to STAKED."
      },
      "removeSsvValidator(address,bytes,uint64[],(uint32,uint64,uint64,bool,uint256))": {
        "notice": "Removing source validators is not allowed during the consolidation process as consolidated validators will be in EXITING state hence can not be consolidated after removal. Only callable by the validator registrator."
      },
      "requestConsolidation(address,bytes[],bytes)": {
        "notice": "Request consolidation of validators from an old Native Staking Strategy to the new Compounding Staking Strategy"
      },
      "sourceStrategy()": {
        "notice": "The address of the source Native Staking Strategy being consolidated from"
      },
      "stakeEth((bytes,bytes,bytes32),uint64)": {
        "notice": "Deposits to Compounding Staking Strategy validators that are not the target of a consolidation are allowed. Only the registrator can call this function."
      },
      "targetPubKeyHash()": {
        "notice": "The public key hash of the target validator on the new Compounding Staking Strategy"
      },
      "validatorRegistrator()": {
        "notice": "Address of the validator registrator account"
      },
      "validatorWithdrawal(bytes,uint64)": {
        "notice": "not allowed during the migration period. Only the registrator can call this function."
      },
      "verifyBalances((bytes32,bytes,bytes32[],bytes[]),(bytes32,bytes,uint32[],bytes[]))": {
        "notice": "Anyone can verify balances on the new Compounding Staking Strategy as long as there are no consolidations in progress."
      }
    },
    "notice": "Orchestrates the consolidation of validators from old Native Staking Strategies to the new Compounding Staking Strategy.",
    "version": 1
  },
  "storageLayout": {
    "storage": [
      {
        "astId": 7,
        "contract": "contracts/strategies/NativeStaking/ConsolidationController.sol:ConsolidationController",
        "label": "_owner",
        "offset": 0,
        "slot": "0",
        "type": "t_address"
      },
      {
        "astId": 5671,
        "contract": "contracts/strategies/NativeStaking/ConsolidationController.sol:ConsolidationController",
        "label": "consolidationCount",
        "offset": 20,
        "slot": "0",
        "type": "t_uint64"
      },
      {
        "astId": 5674,
        "contract": "contracts/strategies/NativeStaking/ConsolidationController.sol:ConsolidationController",
        "label": "consolidationStartTimestamp",
        "offset": 0,
        "slot": "1",
        "type": "t_uint64"
      },
      {
        "astId": 5677,
        "contract": "contracts/strategies/NativeStaking/ConsolidationController.sol:ConsolidationController",
        "label": "sourceStrategy",
        "offset": 8,
        "slot": "1",
        "type": "t_address"
      },
      {
        "astId": 5680,
        "contract": "contracts/strategies/NativeStaking/ConsolidationController.sol:ConsolidationController",
        "label": "targetPubKeyHash",
        "offset": 0,
        "slot": "2",
        "type": "t_bytes32"
      }
    ],
    "types": {
      "t_address": {
        "encoding": "inplace",
        "label": "address",
        "numberOfBytes": "20"
      },
      "t_bytes32": {
        "encoding": "inplace",
        "label": "bytes32",
        "numberOfBytes": "32"
      },
      "t_uint64": {
        "encoding": "inplace",
        "label": "uint64",
        "numberOfBytes": "8"
      }
    }
  }
}