{
  "address": "0xdCfcAE4A084AA843eE446f400B23aA7B6340484b",
  "abi": [
    {
      "anonymous": false,
      "inputs": [
        {
          "indexed": true,
          "internalType": "uint256",
          "name": "timestamp",
          "type": "uint256"
        },
        {
          "indexed": false,
          "internalType": "bytes32",
          "name": "root",
          "type": "bytes32"
        }
      ],
      "name": "RootSet",
      "type": "event"
    },
    {
      "stateMutability": "nonpayable",
      "type": "fallback"
    },
    {
      "inputs": [],
      "name": "latestBlockRoot",
      "outputs": [
        {
          "internalType": "bytes32",
          "name": "parentRoot",
          "type": "bytes32"
        },
        {
          "internalType": "uint64",
          "name": "timestamp",
          "type": "uint64"
        }
      ],
      "stateMutability": "view",
      "type": "function"
    },
    {
      "inputs": [
        {
          "internalType": "uint64",
          "name": "timestamp",
          "type": "uint64"
        }
      ],
      "name": "parentBlockRoot",
      "outputs": [
        {
          "internalType": "bytes32",
          "name": "parentRoot",
          "type": "bytes32"
        }
      ],
      "stateMutability": "view",
      "type": "function"
    },
    {
      "inputs": [
        {
          "internalType": "uint256",
          "name": "timestamp",
          "type": "uint256"
        },
        {
          "internalType": "bytes32",
          "name": "root",
          "type": "bytes32"
        }
      ],
      "name": "setBeaconRoot",
      "outputs": [],
      "stateMutability": "nonpayable",
      "type": "function"
    },
    {
      "inputs": [
        {
          "internalType": "bytes32",
          "name": "root",
          "type": "bytes32"
        }
      ],
      "name": "setBeaconRoot",
      "outputs": [],
      "stateMutability": "nonpayable",
      "type": "function"
    }
  ],
  "transactionHash": "0x36a08c5d2aa747cdedb936d78649a4a70a5cc67aaebe0e091d5e183159e3b625",
  "args": [],
  "numDeployments": 1,
  "solcInputHash": "e971b2fb0f925bb0e94e79f6b234f436",
  "bytecode": "0x6080604052348015600f57600080fd5b506104918061001f6000396000f3fe608060405234801561001057600080fd5b506004361061004c5760003560e01c80636370dd3b146100be57806365190fad146100d3578063aa24b3c4146100e6578063be7c629b1461010c575b6020361461009a5760405162461bcd60e51b8152602060048201526016602482015275496e707574206d75737420626520333220627974657360501b60448201526064015b60405180910390fd5b60006100a636826103a7565b60008181526020818152604082205480835292935090f35b6100d16100cc3660046103c0565b610132565b005b6100d16100e13660046103a7565b6101fb565b6100f96100f43660046103e2565b61027e565b6040519081526020015b60405180910390f35b61011461028f565b6040805192835267ffffffffffffffff909116602083015201610103565b600082116101765760405162461bcd60e51b81526020600482015260116024820152700496e76616c69642074696d657374616d7607c1b6044820152606401610091565b806101b25760405162461bcd60e51b815260206004820152600c60248201526b125b9d985b1a59081c9bdbdd60a21b6044820152606401610091565b60008281526020818152604091829020839055905182815283917f1287e38cf3268df2db9ff3d0625e53548664e304cae1349b9575b02418226a0b910160405180910390a25050565b806102375760405162461bcd60e51b815260206004820152600c60248201526b125b9d985b1a59081c9bdbdd60a21b6044820152606401610091565b426000818152602081815260409182902084905590518381527f1287e38cf3268df2db9ff3d0625e53548664e304cae1349b9575b02418226a0b910160405180910390a250565b6000610289826102a1565b92915050565b60004261029b816102a1565b91509091565b6040805167ffffffffffffffff8316602082015260009182918291720f3df6d732807ef1319fb7b8bb8522d0beac02910160408051601f19818403018152908290526102ec91610413565b600060405180830381855afa9150503d8060008114610327576040519150601f19603f3d011682016040523d82523d6000602084013e61032c565b606091505b509150915081801561033f575060008151115b61038b5760405162461bcd60e51b815260206004820152601860248201527f496e76616c696420626561636f6e2074696d657374616d7000000000000000006044820152606401610091565b8080602001905181019061039f9190610442565b949350505050565b6000602082840312156103b957600080fd5b5035919050565b600080604083850312156103d357600080fd5b50508035926020909101359150565b6000602082840312156103f457600080fd5b813567ffffffffffffffff8116811461040c57600080fd5b9392505050565b6000825160005b81811015610434576020818601810151858301520161041a565b506000920191825250919050565b60006020828403121561045457600080fd5b505191905056fea2646970667358221220aa2d6c6f2add5ea2154c4751e4142a4cc61a0fa24166e0cdd56f8d7bf7f748e964736f6c634300081c0033",
  "libraries": {},
  "devdoc": {
    "kind": "dev",
    "methods": {},
    "version": 1
  },
  "userdoc": {
    "kind": "user",
    "methods": {},
    "version": 1
  },
  "storageLayout": {
    "storage": [
      {
        "astId": 3969,
        "contract": "contracts/mocks/MockBeaconRoots.sol:MockBeaconRoots",
        "label": "_beaconRoots",
        "offset": 0,
        "slot": "0",
        "type": "t_mapping(t_uint256,t_bytes32)"
      }
    ],
    "types": {
      "t_bytes32": {
        "encoding": "inplace",
        "label": "bytes32",
        "numberOfBytes": "32"
      },
      "t_mapping(t_uint256,t_bytes32)": {
        "encoding": "mapping",
        "key": "t_uint256",
        "label": "mapping(uint256 => bytes32)",
        "numberOfBytes": "32",
        "value": "t_bytes32"
      },
      "t_uint256": {
        "encoding": "inplace",
        "label": "uint256",
        "numberOfBytes": "32"
      }
    }
  }
}