{
  "address": "0x43B3BCe874EC872EFbCC784c1e3CD03005E529a9",
  "abi": [
    {
      "inputs": [
        {
          "internalType": "address",
          "name": "_weth",
          "type": "address"
        }
      ],
      "stateMutability": "nonpayable",
      "type": "constructor"
    },
    {
      "anonymous": false,
      "inputs": [
        {
          "indexed": false,
          "internalType": "uint256",
          "name": "_threshold",
          "type": "uint256"
        }
      ],
      "name": "AllocateThresholdUpdated",
      "type": "event"
    },
    {
      "anonymous": false,
      "inputs": [
        {
          "indexed": false,
          "internalType": "address",
          "name": "_asset",
          "type": "address"
        },
        {
          "indexed": false,
          "internalType": "address",
          "name": "_strategy",
          "type": "address"
        },
        {
          "indexed": false,
          "internalType": "uint256",
          "name": "_amount",
          "type": "uint256"
        }
      ],
      "name": "AssetAllocated",
      "type": "event"
    },
    {
      "anonymous": false,
      "inputs": [
        {
          "indexed": false,
          "internalType": "address",
          "name": "_asset",
          "type": "address"
        },
        {
          "indexed": false,
          "internalType": "address",
          "name": "_strategy",
          "type": "address"
        }
      ],
      "name": "AssetDefaultStrategyUpdated",
      "type": "event"
    },
    {
      "anonymous": false,
      "inputs": [
        {
          "indexed": false,
          "internalType": "address",
          "name": "_asset",
          "type": "address"
        }
      ],
      "name": "AssetRemoved",
      "type": "event"
    },
    {
      "anonymous": false,
      "inputs": [
        {
          "indexed": false,
          "internalType": "address",
          "name": "_asset",
          "type": "address"
        }
      ],
      "name": "AssetSupported",
      "type": "event"
    },
    {
      "anonymous": false,
      "inputs": [],
      "name": "CapitalPaused",
      "type": "event"
    },
    {
      "anonymous": false,
      "inputs": [],
      "name": "CapitalUnpaused",
      "type": "event"
    },
    {
      "anonymous": false,
      "inputs": [
        {
          "indexed": false,
          "internalType": "uint256",
          "name": "dripDuration",
          "type": "uint256"
        }
      ],
      "name": "DripDurationChanged",
      "type": "event"
    },
    {
      "anonymous": false,
      "inputs": [
        {
          "indexed": true,
          "internalType": "address",
          "name": "previousGovernor",
          "type": "address"
        },
        {
          "indexed": true,
          "internalType": "address",
          "name": "newGovernor",
          "type": "address"
        }
      ],
      "name": "GovernorshipTransferred",
      "type": "event"
    },
    {
      "anonymous": false,
      "inputs": [
        {
          "indexed": false,
          "internalType": "uint256",
          "name": "maxSupplyDiff",
          "type": "uint256"
        }
      ],
      "name": "MaxSupplyDiffChanged",
      "type": "event"
    },
    {
      "anonymous": false,
      "inputs": [
        {
          "indexed": false,
          "internalType": "address",
          "name": "_addr",
          "type": "address"
        },
        {
          "indexed": false,
          "internalType": "uint256",
          "name": "_value",
          "type": "uint256"
        }
      ],
      "name": "Mint",
      "type": "event"
    },
    {
      "anonymous": false,
      "inputs": [
        {
          "indexed": false,
          "internalType": "uint256",
          "name": "_threshold",
          "type": "uint256"
        }
      ],
      "name": "NetOusdMintForStrategyThresholdChanged",
      "type": "event"
    },
    {
      "anonymous": false,
      "inputs": [
        {
          "indexed": false,
          "internalType": "address",
          "name": "_ousdMetaStrategy",
          "type": "address"
        }
      ],
      "name": "OusdMetaStrategyUpdated",
      "type": "event"
    },
    {
      "anonymous": false,
      "inputs": [
        {
          "indexed": true,
          "internalType": "address",
          "name": "previousGovernor",
          "type": "address"
        },
        {
          "indexed": true,
          "internalType": "address",
          "name": "newGovernor",
          "type": "address"
        }
      ],
      "name": "PendingGovernorshipTransfer",
      "type": "event"
    },
    {
      "anonymous": false,
      "inputs": [
        {
          "indexed": false,
          "internalType": "address",
          "name": "_priceProvider",
          "type": "address"
        }
      ],
      "name": "PriceProviderUpdated",
      "type": "event"
    },
    {
      "anonymous": false,
      "inputs": [],
      "name": "RebasePaused",
      "type": "event"
    },
    {
      "anonymous": false,
      "inputs": [
        {
          "indexed": false,
          "internalType": "uint256",
          "name": "rebaseRatePerSecond",
          "type": "uint256"
        }
      ],
      "name": "RebasePerSecondMaxChanged",
      "type": "event"
    },
    {
      "anonymous": false,
      "inputs": [
        {
          "indexed": false,
          "internalType": "uint256",
          "name": "_threshold",
          "type": "uint256"
        }
      ],
      "name": "RebaseThresholdUpdated",
      "type": "event"
    },
    {
      "anonymous": false,
      "inputs": [],
      "name": "RebaseUnpaused",
      "type": "event"
    },
    {
      "anonymous": false,
      "inputs": [
        {
          "indexed": false,
          "internalType": "address",
          "name": "_addr",
          "type": "address"
        },
        {
          "indexed": false,
          "internalType": "uint256",
          "name": "_value",
          "type": "uint256"
        }
      ],
      "name": "Redeem",
      "type": "event"
    },
    {
      "anonymous": false,
      "inputs": [
        {
          "indexed": false,
          "internalType": "uint256",
          "name": "_redeemFeeBps",
          "type": "uint256"
        }
      ],
      "name": "RedeemFeeUpdated",
      "type": "event"
    },
    {
      "anonymous": false,
      "inputs": [
        {
          "indexed": false,
          "internalType": "address",
          "name": "_address",
          "type": "address"
        }
      ],
      "name": "StrategistUpdated",
      "type": "event"
    },
    {
      "anonymous": false,
      "inputs": [
        {
          "indexed": true,
          "internalType": "address",
          "name": "strategy",
          "type": "address"
        }
      ],
      "name": "StrategyAddedToMintWhitelist",
      "type": "event"
    },
    {
      "anonymous": false,
      "inputs": [
        {
          "indexed": false,
          "internalType": "address",
          "name": "_addr",
          "type": "address"
        }
      ],
      "name": "StrategyApproved",
      "type": "event"
    },
    {
      "anonymous": false,
      "inputs": [
        {
          "indexed": false,
          "internalType": "address",
          "name": "_addr",
          "type": "address"
        }
      ],
      "name": "StrategyRemoved",
      "type": "event"
    },
    {
      "anonymous": false,
      "inputs": [
        {
          "indexed": true,
          "internalType": "address",
          "name": "strategy",
          "type": "address"
        }
      ],
      "name": "StrategyRemovedFromMintWhitelist",
      "type": "event"
    },
    {
      "anonymous": false,
      "inputs": [
        {
          "indexed": false,
          "internalType": "uint256",
          "name": "_basis",
          "type": "uint256"
        }
      ],
      "name": "SwapAllowedUndervalueChanged",
      "type": "event"
    },
    {
      "anonymous": false,
      "inputs": [
        {
          "indexed": false,
          "internalType": "address",
          "name": "_asset",
          "type": "address"
        },
        {
          "indexed": false,
          "internalType": "uint256",
          "name": "_basis",
          "type": "uint256"
        }
      ],
      "name": "SwapSlippageChanged",
      "type": "event"
    },
    {
      "anonymous": false,
      "inputs": [
        {
          "indexed": true,
          "internalType": "address",
          "name": "_fromAsset",
          "type": "address"
        },
        {
          "indexed": true,
          "internalType": "address",
          "name": "_toAsset",
          "type": "address"
        },
        {
          "indexed": false,
          "internalType": "uint256",
          "name": "_fromAssetAmount",
          "type": "uint256"
        },
        {
          "indexed": false,
          "internalType": "uint256",
          "name": "_toAssetAmount",
          "type": "uint256"
        }
      ],
      "name": "Swapped",
      "type": "event"
    },
    {
      "anonymous": false,
      "inputs": [
        {
          "indexed": false,
          "internalType": "address",
          "name": "_address",
          "type": "address"
        }
      ],
      "name": "SwapperChanged",
      "type": "event"
    },
    {
      "anonymous": false,
      "inputs": [
        {
          "indexed": false,
          "internalType": "address",
          "name": "_address",
          "type": "address"
        }
      ],
      "name": "TrusteeAddressChanged",
      "type": "event"
    },
    {
      "anonymous": false,
      "inputs": [
        {
          "indexed": false,
          "internalType": "uint256",
          "name": "_basis",
          "type": "uint256"
        }
      ],
      "name": "TrusteeFeeBpsChanged",
      "type": "event"
    },
    {
      "anonymous": false,
      "inputs": [
        {
          "indexed": false,
          "internalType": "uint256",
          "name": "_vaultBuffer",
          "type": "uint256"
        }
      ],
      "name": "VaultBufferUpdated",
      "type": "event"
    },
    {
      "anonymous": false,
      "inputs": [
        {
          "indexed": false,
          "internalType": "uint256",
          "name": "_newDelay",
          "type": "uint256"
        }
      ],
      "name": "WithdrawalClaimDelayUpdated",
      "type": "event"
    },
    {
      "anonymous": false,
      "inputs": [
        {
          "indexed": false,
          "internalType": "uint256",
          "name": "_claimable",
          "type": "uint256"
        },
        {
          "indexed": false,
          "internalType": "uint256",
          "name": "_newClaimable",
          "type": "uint256"
        }
      ],
      "name": "WithdrawalClaimable",
      "type": "event"
    },
    {
      "anonymous": false,
      "inputs": [
        {
          "indexed": true,
          "internalType": "address",
          "name": "_withdrawer",
          "type": "address"
        },
        {
          "indexed": true,
          "internalType": "uint256",
          "name": "_requestId",
          "type": "uint256"
        },
        {
          "indexed": false,
          "internalType": "uint256",
          "name": "_amount",
          "type": "uint256"
        }
      ],
      "name": "WithdrawalClaimed",
      "type": "event"
    },
    {
      "anonymous": false,
      "inputs": [
        {
          "indexed": true,
          "internalType": "address",
          "name": "_withdrawer",
          "type": "address"
        },
        {
          "indexed": true,
          "internalType": "uint256",
          "name": "_requestId",
          "type": "uint256"
        },
        {
          "indexed": false,
          "internalType": "uint256",
          "name": "_amount",
          "type": "uint256"
        },
        {
          "indexed": false,
          "internalType": "uint256",
          "name": "_queued",
          "type": "uint256"
        }
      ],
      "name": "WithdrawalRequested",
      "type": "event"
    },
    {
      "anonymous": false,
      "inputs": [
        {
          "indexed": false,
          "internalType": "address",
          "name": "_to",
          "type": "address"
        },
        {
          "indexed": false,
          "internalType": "uint256",
          "name": "_yield",
          "type": "uint256"
        },
        {
          "indexed": false,
          "internalType": "uint256",
          "name": "_fee",
          "type": "uint256"
        }
      ],
      "name": "YieldDistribution",
      "type": "event"
    },
    {
      "inputs": [
        {
          "internalType": "address",
          "name": "strategyAddr",
          "type": "address"
        }
      ],
      "name": "addStrategyToMintWhitelist",
      "outputs": [],
      "stateMutability": "nonpayable",
      "type": "function"
    },
    {
      "inputs": [],
      "name": "adminImplPosition",
      "outputs": [
        {
          "internalType": "bytes32",
          "name": "",
          "type": "bytes32"
        }
      ],
      "stateMutability": "view",
      "type": "function"
    },
    {
      "inputs": [],
      "name": "allowedSwapUndervalue",
      "outputs": [
        {
          "internalType": "uint256",
          "name": "value",
          "type": "uint256"
        }
      ],
      "stateMutability": "view",
      "type": "function"
    },
    {
      "inputs": [
        {
          "internalType": "address",
          "name": "_addr",
          "type": "address"
        }
      ],
      "name": "approveStrategy",
      "outputs": [],
      "stateMutability": "nonpayable",
      "type": "function"
    },
    {
      "inputs": [
        {
          "internalType": "address",
          "name": "",
          "type": "address"
        }
      ],
      "name": "assetDefaultStrategies",
      "outputs": [
        {
          "internalType": "address",
          "name": "",
          "type": "address"
        }
      ],
      "stateMutability": "view",
      "type": "function"
    },
    {
      "inputs": [],
      "name": "autoAllocateThreshold",
      "outputs": [
        {
          "internalType": "uint256",
          "name": "",
          "type": "uint256"
        }
      ],
      "stateMutability": "view",
      "type": "function"
    },
    {
      "inputs": [
        {
          "internalType": "address",
          "name": "_asset",
          "type": "address"
        }
      ],
      "name": "cacheDecimals",
      "outputs": [],
      "stateMutability": "nonpayable",
      "type": "function"
    },
    {
      "inputs": [],
      "name": "capitalPaused",
      "outputs": [
        {
          "internalType": "bool",
          "name": "",
          "type": "bool"
        }
      ],
      "stateMutability": "view",
      "type": "function"
    },
    {
      "inputs": [],
      "name": "claimGovernance",
      "outputs": [],
      "stateMutability": "nonpayable",
      "type": "function"
    },
    {
      "inputs": [
        {
          "internalType": "address",
          "name": "_strategyToAddress",
          "type": "address"
        },
        {
          "internalType": "address[]",
          "name": "_assets",
          "type": "address[]"
        },
        {
          "internalType": "uint256[]",
          "name": "_amounts",
          "type": "uint256[]"
        }
      ],
      "name": "depositToStrategy",
      "outputs": [],
      "stateMutability": "nonpayable",
      "type": "function"
    },
    {
      "inputs": [],
      "name": "dripDuration",
      "outputs": [
        {
          "internalType": "uint64",
          "name": "",
          "type": "uint64"
        }
      ],
      "stateMutability": "view",
      "type": "function"
    },
    {
      "inputs": [],
      "name": "governor",
      "outputs": [
        {
          "internalType": "address",
          "name": "",
          "type": "address"
        }
      ],
      "stateMutability": "view",
      "type": "function"
    },
    {
      "inputs": [],
      "name": "isGovernor",
      "outputs": [
        {
          "internalType": "bool",
          "name": "",
          "type": "bool"
        }
      ],
      "stateMutability": "view",
      "type": "function"
    },
    {
      "inputs": [
        {
          "internalType": "address",
          "name": "",
          "type": "address"
        }
      ],
      "name": "isMintWhitelistedStrategy",
      "outputs": [
        {
          "internalType": "bool",
          "name": "",
          "type": "bool"
        }
      ],
      "stateMutability": "view",
      "type": "function"
    },
    {
      "inputs": [],
      "name": "lastRebase",
      "outputs": [
        {
          "internalType": "uint64",
          "name": "",
          "type": "uint64"
        }
      ],
      "stateMutability": "view",
      "type": "function"
    },
    {
      "inputs": [],
      "name": "maxSupplyDiff",
      "outputs": [
        {
          "internalType": "uint256",
          "name": "",
          "type": "uint256"
        }
      ],
      "stateMutability": "view",
      "type": "function"
    },
    {
      "inputs": [],
      "name": "netOusdMintForStrategyThreshold",
      "outputs": [
        {
          "internalType": "uint256",
          "name": "",
          "type": "uint256"
        }
      ],
      "stateMutability": "view",
      "type": "function"
    },
    {
      "inputs": [],
      "name": "netOusdMintedForStrategy",
      "outputs": [
        {
          "internalType": "int256",
          "name": "",
          "type": "int256"
        }
      ],
      "stateMutability": "view",
      "type": "function"
    },
    {
      "inputs": [],
      "name": "oUSD",
      "outputs": [
        {
          "internalType": "contract OUSD",
          "name": "",
          "type": "address"
        }
      ],
      "stateMutability": "view",
      "type": "function"
    },
    {
      "inputs": [],
      "name": "ousdMetaStrategy",
      "outputs": [
        {
          "internalType": "address",
          "name": "",
          "type": "address"
        }
      ],
      "stateMutability": "view",
      "type": "function"
    },
    {
      "inputs": [],
      "name": "pauseCapital",
      "outputs": [],
      "stateMutability": "nonpayable",
      "type": "function"
    },
    {
      "inputs": [],
      "name": "pauseRebase",
      "outputs": [],
      "stateMutability": "nonpayable",
      "type": "function"
    },
    {
      "inputs": [],
      "name": "priceProvider",
      "outputs": [
        {
          "internalType": "address",
          "name": "",
          "type": "address"
        }
      ],
      "stateMutability": "view",
      "type": "function"
    },
    {
      "inputs": [],
      "name": "rebasePaused",
      "outputs": [
        {
          "internalType": "bool",
          "name": "",
          "type": "bool"
        }
      ],
      "stateMutability": "view",
      "type": "function"
    },
    {
      "inputs": [],
      "name": "rebasePerSecondMax",
      "outputs": [
        {
          "internalType": "uint64",
          "name": "",
          "type": "uint64"
        }
      ],
      "stateMutability": "view",
      "type": "function"
    },
    {
      "inputs": [],
      "name": "rebasePerSecondTarget",
      "outputs": [
        {
          "internalType": "uint64",
          "name": "",
          "type": "uint64"
        }
      ],
      "stateMutability": "view",
      "type": "function"
    },
    {
      "inputs": [],
      "name": "rebaseThreshold",
      "outputs": [
        {
          "internalType": "uint256",
          "name": "",
          "type": "uint256"
        }
      ],
      "stateMutability": "view",
      "type": "function"
    },
    {
      "inputs": [],
      "name": "redeemFeeBps",
      "outputs": [
        {
          "internalType": "uint256",
          "name": "",
          "type": "uint256"
        }
      ],
      "stateMutability": "view",
      "type": "function"
    },
    {
      "inputs": [
        {
          "internalType": "address",
          "name": "_asset",
          "type": "address"
        }
      ],
      "name": "removeAsset",
      "outputs": [],
      "stateMutability": "nonpayable",
      "type": "function"
    },
    {
      "inputs": [
        {
          "internalType": "address",
          "name": "_addr",
          "type": "address"
        }
      ],
      "name": "removeStrategy",
      "outputs": [],
      "stateMutability": "nonpayable",
      "type": "function"
    },
    {
      "inputs": [
        {
          "internalType": "address",
          "name": "strategyAddr",
          "type": "address"
        }
      ],
      "name": "removeStrategyFromMintWhitelist",
      "outputs": [],
      "stateMutability": "nonpayable",
      "type": "function"
    },
    {
      "inputs": [
        {
          "internalType": "address",
          "name": "newImpl",
          "type": "address"
        }
      ],
      "name": "setAdminImpl",
      "outputs": [],
      "stateMutability": "nonpayable",
      "type": "function"
    },
    {
      "inputs": [
        {
          "internalType": "address",
          "name": "_asset",
          "type": "address"
        },
        {
          "internalType": "address",
          "name": "_strategy",
          "type": "address"
        }
      ],
      "name": "setAssetDefaultStrategy",
      "outputs": [],
      "stateMutability": "nonpayable",
      "type": "function"
    },
    {
      "inputs": [
        {
          "internalType": "uint256",
          "name": "_threshold",
          "type": "uint256"
        }
      ],
      "name": "setAutoAllocateThreshold",
      "outputs": [],
      "stateMutability": "nonpayable",
      "type": "function"
    },
    {
      "inputs": [
        {
          "internalType": "uint256",
          "name": "_dripDuration",
          "type": "uint256"
        }
      ],
      "name": "setDripDuration",
      "outputs": [],
      "stateMutability": "nonpayable",
      "type": "function"
    },
    {
      "inputs": [
        {
          "internalType": "uint256",
          "name": "_maxSupplyDiff",
          "type": "uint256"
        }
      ],
      "name": "setMaxSupplyDiff",
      "outputs": [],
      "stateMutability": "nonpayable",
      "type": "function"
    },
    {
      "inputs": [
        {
          "internalType": "uint256",
          "name": "_threshold",
          "type": "uint256"
        }
      ],
      "name": "setNetOusdMintForStrategyThreshold",
      "outputs": [],
      "stateMutability": "nonpayable",
      "type": "function"
    },
    {
      "inputs": [
        {
          "internalType": "address",
          "name": "_asset",
          "type": "address"
        },
        {
          "internalType": "uint16",
          "name": "_allowedOracleSlippageBps",
          "type": "uint16"
        }
      ],
      "name": "setOracleSlippage",
      "outputs": [],
      "stateMutability": "nonpayable",
      "type": "function"
    },
    {
      "inputs": [
        {
          "internalType": "address",
          "name": "_ousdMetaStrategy",
          "type": "address"
        }
      ],
      "name": "setOusdMetaStrategy",
      "outputs": [],
      "stateMutability": "nonpayable",
      "type": "function"
    },
    {
      "inputs": [
        {
          "internalType": "address",
          "name": "_priceProvider",
          "type": "address"
        }
      ],
      "name": "setPriceProvider",
      "outputs": [],
      "stateMutability": "nonpayable",
      "type": "function"
    },
    {
      "inputs": [
        {
          "internalType": "uint256",
          "name": "yearlyApr",
          "type": "uint256"
        }
      ],
      "name": "setRebaseRateMax",
      "outputs": [],
      "stateMutability": "nonpayable",
      "type": "function"
    },
    {
      "inputs": [
        {
          "internalType": "uint256",
          "name": "_threshold",
          "type": "uint256"
        }
      ],
      "name": "setRebaseThreshold",
      "outputs": [],
      "stateMutability": "nonpayable",
      "type": "function"
    },
    {
      "inputs": [
        {
          "internalType": "uint256",
          "name": "_redeemFeeBps",
          "type": "uint256"
        }
      ],
      "name": "setRedeemFeeBps",
      "outputs": [],
      "stateMutability": "nonpayable",
      "type": "function"
    },
    {
      "inputs": [
        {
          "internalType": "address",
          "name": "_address",
          "type": "address"
        }
      ],
      "name": "setStrategistAddr",
      "outputs": [],
      "stateMutability": "nonpayable",
      "type": "function"
    },
    {
      "inputs": [
        {
          "internalType": "uint16",
          "name": "_basis",
          "type": "uint16"
        }
      ],
      "name": "setSwapAllowedUndervalue",
      "outputs": [],
      "stateMutability": "nonpayable",
      "type": "function"
    },
    {
      "inputs": [
        {
          "internalType": "address",
          "name": "_swapperAddr",
          "type": "address"
        }
      ],
      "name": "setSwapper",
      "outputs": [],
      "stateMutability": "nonpayable",
      "type": "function"
    },
    {
      "inputs": [
        {
          "internalType": "address",
          "name": "_address",
          "type": "address"
        }
      ],
      "name": "setTrusteeAddress",
      "outputs": [],
      "stateMutability": "nonpayable",
      "type": "function"
    },
    {
      "inputs": [
        {
          "internalType": "uint256",
          "name": "_basis",
          "type": "uint256"
        }
      ],
      "name": "setTrusteeFeeBps",
      "outputs": [],
      "stateMutability": "nonpayable",
      "type": "function"
    },
    {
      "inputs": [
        {
          "internalType": "uint256",
          "name": "_vaultBuffer",
          "type": "uint256"
        }
      ],
      "name": "setVaultBuffer",
      "outputs": [],
      "stateMutability": "nonpayable",
      "type": "function"
    },
    {
      "inputs": [
        {
          "internalType": "uint256",
          "name": "_delay",
          "type": "uint256"
        }
      ],
      "name": "setWithdrawalClaimDelay",
      "outputs": [],
      "stateMutability": "nonpayable",
      "type": "function"
    },
    {
      "inputs": [
        {
          "internalType": "address",
          "name": "",
          "type": "address"
        }
      ],
      "name": "strategies",
      "outputs": [
        {
          "internalType": "bool",
          "name": "isSupported",
          "type": "bool"
        },
        {
          "internalType": "uint256",
          "name": "_deprecated",
          "type": "uint256"
        }
      ],
      "stateMutability": "view",
      "type": "function"
    },
    {
      "inputs": [],
      "name": "strategistAddr",
      "outputs": [
        {
          "internalType": "address",
          "name": "",
          "type": "address"
        }
      ],
      "stateMutability": "view",
      "type": "function"
    },
    {
      "inputs": [
        {
          "internalType": "address",
          "name": "_asset",
          "type": "address"
        },
        {
          "internalType": "uint8",
          "name": "_unitConversion",
          "type": "uint8"
        }
      ],
      "name": "supportAsset",
      "outputs": [],
      "stateMutability": "nonpayable",
      "type": "function"
    },
    {
      "inputs": [
        {
          "internalType": "address",
          "name": "_fromAsset",
          "type": "address"
        },
        {
          "internalType": "address",
          "name": "_toAsset",
          "type": "address"
        },
        {
          "internalType": "uint256",
          "name": "_fromAssetAmount",
          "type": "uint256"
        },
        {
          "internalType": "uint256",
          "name": "_minToAssetAmount",
          "type": "uint256"
        },
        {
          "internalType": "bytes",
          "name": "_data",
          "type": "bytes"
        }
      ],
      "name": "swapCollateral",
      "outputs": [
        {
          "internalType": "uint256",
          "name": "toAssetAmount",
          "type": "uint256"
        }
      ],
      "stateMutability": "nonpayable",
      "type": "function"
    },
    {
      "inputs": [],
      "name": "swapper",
      "outputs": [
        {
          "internalType": "address",
          "name": "swapper_",
          "type": "address"
        }
      ],
      "stateMutability": "view",
      "type": "function"
    },
    {
      "inputs": [
        {
          "internalType": "address",
          "name": "_newGovernor",
          "type": "address"
        }
      ],
      "name": "transferGovernance",
      "outputs": [],
      "stateMutability": "nonpayable",
      "type": "function"
    },
    {
      "inputs": [
        {
          "internalType": "address",
          "name": "_asset",
          "type": "address"
        },
        {
          "internalType": "uint256",
          "name": "_amount",
          "type": "uint256"
        }
      ],
      "name": "transferToken",
      "outputs": [],
      "stateMutability": "nonpayable",
      "type": "function"
    },
    {
      "inputs": [],
      "name": "trusteeAddress",
      "outputs": [
        {
          "internalType": "address",
          "name": "",
          "type": "address"
        }
      ],
      "stateMutability": "view",
      "type": "function"
    },
    {
      "inputs": [],
      "name": "trusteeFeeBps",
      "outputs": [
        {
          "internalType": "uint256",
          "name": "",
          "type": "uint256"
        }
      ],
      "stateMutability": "view",
      "type": "function"
    },
    {
      "inputs": [],
      "name": "unpauseCapital",
      "outputs": [],
      "stateMutability": "nonpayable",
      "type": "function"
    },
    {
      "inputs": [],
      "name": "unpauseRebase",
      "outputs": [],
      "stateMutability": "nonpayable",
      "type": "function"
    },
    {
      "inputs": [],
      "name": "vaultBuffer",
      "outputs": [
        {
          "internalType": "uint256",
          "name": "",
          "type": "uint256"
        }
      ],
      "stateMutability": "view",
      "type": "function"
    },
    {
      "inputs": [],
      "name": "weth",
      "outputs": [
        {
          "internalType": "address",
          "name": "",
          "type": "address"
        }
      ],
      "stateMutability": "view",
      "type": "function"
    },
    {
      "inputs": [],
      "name": "withdrawAllFromStrategies",
      "outputs": [],
      "stateMutability": "nonpayable",
      "type": "function"
    },
    {
      "inputs": [
        {
          "internalType": "address",
          "name": "_strategyAddr",
          "type": "address"
        }
      ],
      "name": "withdrawAllFromStrategy",
      "outputs": [],
      "stateMutability": "nonpayable",
      "type": "function"
    },
    {
      "inputs": [
        {
          "internalType": "address",
          "name": "_strategyFromAddress",
          "type": "address"
        },
        {
          "internalType": "address[]",
          "name": "_assets",
          "type": "address[]"
        },
        {
          "internalType": "uint256[]",
          "name": "_amounts",
          "type": "uint256[]"
        }
      ],
      "name": "withdrawFromStrategy",
      "outputs": [],
      "stateMutability": "nonpayable",
      "type": "function"
    },
    {
      "inputs": [],
      "name": "withdrawalClaimDelay",
      "outputs": [
        {
          "internalType": "uint256",
          "name": "",
          "type": "uint256"
        }
      ],
      "stateMutability": "view",
      "type": "function"
    },
    {
      "inputs": [],
      "name": "withdrawalQueueMetadata",
      "outputs": [
        {
          "internalType": "uint128",
          "name": "queued",
          "type": "uint128"
        },
        {
          "internalType": "uint128",
          "name": "claimable",
          "type": "uint128"
        },
        {
          "internalType": "uint128",
          "name": "claimed",
          "type": "uint128"
        },
        {
          "internalType": "uint128",
          "name": "nextWithdrawalIndex",
          "type": "uint128"
        }
      ],
      "stateMutability": "view",
      "type": "function"
    },
    {
      "inputs": [
        {
          "internalType": "uint256",
          "name": "",
          "type": "uint256"
        }
      ],
      "name": "withdrawalRequests",
      "outputs": [
        {
          "internalType": "address",
          "name": "withdrawer",
          "type": "address"
        },
        {
          "internalType": "bool",
          "name": "claimed",
          "type": "bool"
        },
        {
          "internalType": "uint40",
          "name": "timestamp",
          "type": "uint40"
        },
        {
          "internalType": "uint128",
          "name": "amount",
          "type": "uint128"
        },
        {
          "internalType": "uint128",
          "name": "queued",
          "type": "uint128"
        }
      ],
      "stateMutability": "view",
      "type": "function"
    }
  ],
  "transactionHash": "0x394c3704632d244cbf6bde7d4c37c693f33450f6a73e7bd181a1c0278a939de7",
  "args": [
    "0x2387fD72C1DA19f6486B843F5da562679FbB4057"
  ],
  "numDeployments": 2,
  "solcInputHash": "3de98f56666780054699342674f08b14",
  "bytecode": "0x603d80546001600160a01b0319908116909155603e805482169055603f8054909116905560e0604052600060a081905260c052604880546001600160b01b031916905534801561004e57600080fd5b50604051613def380380613def83398101604081905261006d9161007e565b6001600160a01b03166080526100ae565b60006020828403121561009057600080fd5b81516001600160a01b03811681146100a757600080fd5b9392505050565b608051613d116100de600039600081816105f601528181612d6b01528181612e9b01526132880152613d116000f3fe608060405234801561001057600080fd5b50600436106104075760003560e01c80635d36b19011610220578063ae69f3cb11610130578063c9919112116100b8578063e6cc543211610087578063e6cc5432146109cf578063e829cc16146109e3578063eb03654b146109f6578063ef08edc214610a09578063fc0cfeee14610a3057600080fd5b8063c991911214610998578063d38bfff4146109a0578063d58e3b3a146109b3578063e45cc9f0146109c657600080fd5b8063b890ebf6116100ff578063b890ebf614610948578063bb7a632e1461095b578063bc90106b14610975578063c5f0084114610988578063c7af33521461099057600080fd5b8063ae69f3cb146108fc578063b2c9336d1461090f578063b4925a2014610922578063b888879e1461093557600080fd5b8063840c4c7a116101b357806394828ffd1161018257806394828ffd1461089c57806395b166bc146108a45780639c82f2a4146108b75780639fa1826e146108ca578063a403e4d5146108d357600080fd5b8063840c4c7a146107c55780638e510b52146107d85780638ec489a2146107e1578063937b2581146107f457600080fd5b8063773540b3116101ef578063773540b31461078357806378f353a1146107965780637a2202f3146107a95780637b9a7096146107b257600080fd5b80635d36b19014610742578063636e6c401461074a578063663e64ce1461075d5780636c7561e81461077057600080fd5b806339ebf8231161031b5780634bed3bc0116102ae57806352d38e5d1161027d57806352d38e5d146106ec57806353ca9f24146106f5578063570d8e1d146107095780635802a1721461071c578063597c89101461072f57600080fd5b80634bed3bc01461067a5780634d5f46291461068d57806350ba711c146106bf578063527e83a8146106d257600080fd5b80634530820a116102ea5780634530820a1461061857806345e4213b1461064b57806349c1d54d146106545780634a5e42b11461066757600080fd5b806339ebf823146105925780633b8ae397146105d65780633dbc911f146105e95780633fc8cef3146105f157600080fd5b806318ce56bd1161039e5780632b3297f91161036d5780632b3297f9146104e95780632da845a8146104fa578063362bd1a31461050d57806336b6d9441461056c578063372aa2241461057f57600080fd5b806318ce56bd146104b15780631cfbe7bc146104c45780631edfe3da146104d7578063207134b0146104e057600080fd5b80630c340a24116103da5780630c340a24146104585780631072cbea14610478578063175188e81461048b5780631816dd4a1461049e57600080fd5b80630493a0fa1461040c57806309f49bf51461042157806309f6442c146104295780630acbda7514610445575b600080fd5b61041f61041a3660046136a4565b610a43565b005b61041f610b48565b61043260385481565b6040519081526020015b60405180910390f35b61041f6104533660046136a4565b610bb8565b610460610c63565b6040516001600160a01b03909116815260200161043c565b61041f6104863660046136d9565b610c80565b61041f610499366004613703565b610d2d565b61041f6104ac366004613703565b610ff4565b604554610460906001600160a01b031681565b61041f6104d23660046136a4565b6110fb565b61043260395481565b61043260435481565b6048546001600160a01b0316610460565b61041f610508366004613703565b6111bd565b604b54604c54610539916001600160801b0380821692600160801b928390048216928183169291041684565b604080516001600160801b039586168152938516602085015291841691830191909152909116606082015260800161043c565b61041f61057a366004613703565b61122f565b61041f61058d366004613703565b61125f565b6105bf6105a0366004613703565b6035602052600090815260409020805460019091015460ff9091169082565b60408051921515835260208301919091520161043c565b61041f6105e4366004613703565b6112d1565b61041f61140e565b6104607f000000000000000000000000000000000000000000000000000000000000000081565b61063b610626366004613703565b60496020526000908152604090205460ff1681565b604051901515815260200161043c565b610432604e5481565b604254610460906001600160a01b031681565b61041f610675366004613703565b611484565b604854600160a01b900461ffff16610432565b604f546106a790600160c01b90046001600160401b031681565b6040516001600160401b03909116815260200161043c565b6104326106cd36600461371e565b6117ac565b604f546106a790600160801b90046001600160401b031681565b610432603b5481565b60375461063b90600160a01b900460ff1681565b603f54610460906001600160a01b031681565b603c54610460906001600160a01b031681565b61041f61073d366004613703565b61184f565b61041f611890565b61041f6107583660046136a4565b611936565b61041f61076b3660046136a4565b611994565b61041f61077e3660046137d4565b6119ed565b61041f610791366004613703565b611c5c565b604f546106a7906001600160401b031681565b61043260475481565b61041f6107c036600461381d565b611cce565b61041f6107d336600461389b565b611e04565b61043260415481565b61041f6107ef3660046136a4565b611e9d565b6108556108023660046136a4565b604d60205260009081526040902080546001909101546001600160a01b03821691600160a01b810460ff1691600160a81b90910464ffffffffff16906001600160801b0380821691600160801b90041685565b604080516001600160a01b039096168652931515602086015264ffffffffff909216928401929092526001600160801b03918216606084015216608082015260a00161043c565b61041f611f52565b61041f6108b2366004613703565b611fc2565b61041f6108c5366004613703565b612089565b610432603a5481565b6104606108e1366004613703565b6040602081905260009182529020546001600160a01b031681565b61041f61090a36600461389b565b6120fb565b61041f61091d3660046136a4565b612189565b61041f6109303660046136a4565b6121e2565b603754610460906001600160a01b031681565b61041f6109563660046136a4565b612345565b604f546106a790600160401b90046001600160401b031681565b61041f61098336600461391f565b61239e565b61041f6125a9565b61063b61261f565b61041f612650565b61041f6109ae366004613703565b612690565b61041f6109c1366004613703565b612734565b61043260465481565b60375461063b90600160a81b900460ff1681565b61041f6109f1366004613949565b6127a6565b61041f610a043660046136a4565b612866565b6104327fa2bd3d3cf188a41358c8b401076eb59066b09dec5775650c0de4c55187d17bd981565b61041f610a3e366004613703565b61291b565b603f546001600160a01b0316331480610a5f5750610a5f61261f565b610a845760405162461bcd60e51b8152600401610a7b90613964565b60405180910390fd5b306001600160a01b031663af14052c6040518163ffffffff1660e01b8152600401600060405180830381600087803b158015610abf57600080fd5b505af1158015610ad3573d6000803e3d6000fd5b50505050610ae0816129bd565b604f80546001600160401b0392909216600160401b026fffffffffffffffff0000000000000000199092169190911790556040518181527f406e15fbca1d8ded2dbb06765fea3a54f18395c54125a4c9916dd00ea14ee15e906020015b60405180910390a150565b603f546001600160a01b0316331480610b645750610b6461261f565b610b805760405162461bcd60e51b8152600401610a7b90613964565b6037805460ff60a01b191690556040517fbc044409505c95b6b851433df96e1beae715c909d8e7c1d6d7ab783300d4e3b990600090a1565b610bc061261f565b610bdc5760405162461bcd60e51b8152600401610a7b906139ac565b611388811115610c2e5760405162461bcd60e51b815260206004820152601760248201527f62617369732063616e6e6f7420657863656564203530250000000000000000006044820152606401610a7b565b60438190556040518181527f56287a45051933ea374811b3d5d165033047be5572cac676f7c28b8be4f746c790602001610b3d565b6000610c7b600080516020613cbc8339815191525490565b905090565b610c8861261f565b610ca45760405162461bcd60e51b8152600401610a7b906139ac565b6001600160a01b03821660009081526033602052604090205460ff1615610d0d5760405162461bcd60e51b815260206004820152601760248201527f4f6e6c7920756e737570706f72746564206173736574730000000000000000006044820152606401610a7b565b610d29610d18610c63565b6001600160a01b0384169083612a29565b5050565b610d3561261f565b610d515760405162461bcd60e51b8152600401610a7b906139ac565b6001600160a01b03811660009081526035602052604090205460ff16610d895760405162461bcd60e51b8152600401610a7b906139e3565b60345460005b81811015610e3857826001600160a01b03166040600060348481548110610db857610db8613a12565b60009182526020808320909101546001600160a01b0390811684529083019390935260409091019020541603610e305760405162461bcd60e51b815260206004820181905260248201527f53747261746567792069732064656661756c7420666f7220616e2061737365746044820152606401610a7b565b600101610d8f565b506036548060005b82811015610e8f57846001600160a01b031660368281548110610e6557610e65613a12565b6000918252602090912001546001600160a01b031603610e8757809150610e8f565b600101610e40565b5081811015610fee576036610ea5600184613a3e565b81548110610eb557610eb5613a12565b600091825260209091200154603680546001600160a01b039092169183908110610ee157610ee1613a12565b9060005260206000200160006101000a8154816001600160a01b0302191690836001600160a01b031602179055506036805480610f2057610f20613a51565b60008281526020808220830160001990810180546001600160a01b03191690559092019092556001600160a01b03861680835260359091526040808320805460ff19169055805163429c145b60e11b81529051879363853828b6926004808201939182900301818387803b158015610f9757600080fd5b505af1158015610fab573d6000803e3d6000fd5b50506040516001600160a01b03881681527f09a1db4b80c32706328728508c941a6b954f31eb5affd32f236c1fd405f8fea49250602001905060405180910390a1505b50505050565b610ffc61261f565b6110185760405162461bcd60e51b8152600401610a7b906139ac565b6001600160a01b03811660009081526035602052604090205460ff166110505760405162461bcd60e51b8152600401610a7b906139e3565b6001600160a01b03811660009081526049602052604090205460ff16156110af5760405162461bcd60e51b8152602060048201526013602482015272105b1c9958591e481dda1a5d195b1a5cdd1959606a1b6044820152606401610a7b565b6001600160a01b038116600081815260496020526040808220805460ff19166001179055517f47c8c96a5942f094264111c5fe7f6a4fe86efe63254a6fa7afa5fc84f07d58e89190a250565b61110361261f565b61111f5760405162461bcd60e51b8152600401610a7b906139ac565b80158061113c5750610258811015801561113c57506213c6808111155b6111885760405162461bcd60e51b815260206004820152601a60248201527f496e76616c696420636c61696d2064656c617920706572696f640000000000006044820152606401610a7b565b604e8190556040518181527fc59f5e32049abab44ddea11021f5abb89422a2f550837afcf25df9fc8d0db6b090602001610b3d565b6111c561261f565b6111e15760405162461bcd60e51b8152600401610a7b906139ac565b604280546001600160a01b0319166001600160a01b0383169081179091556040519081527f1e4af5ac389e8cde1bdaa6830881b6c987c62a45cfb3b33d27d805cde3b5775090602001610b3d565b61123761261f565b6112535760405162461bcd60e51b8152600401610a7b906139ac565b61125c81612a80565b50565b61126761261f565b6112835760405162461bcd60e51b8152600401610a7b906139ac565b603780546001600160a01b0319166001600160a01b0383169081179091556040519081527fb266add5f3044b17d27db796af992cecbe413921b4e8aaaee03c719e16b9806a90602001610b3d565b6112d961261f565b6112f55760405162461bcd60e51b8152600401610a7b906139ac565b6001600160a01b03811660009081526035602052604090205460ff161561135e5760405162461bcd60e51b815260206004820152601960248201527f537472617465677920616c726561647920617070726f766564000000000000006044820152606401610a7b565b6040805180820182526001808252600060208084018281526001600160a01b038716808452603583528684209551865460ff19169015151786559051948401949094556036805493840181559091527f4a11f94e20a93c79f6ec743a1954ec4fc2c08429ae2122118bf234b2185c81b890910180546001600160a01b0319168317905591519081527f960dd94cbb79169f09a4e445d58b895df2d9bffa5b31055d0932d801724a20d19101610b3d565b603f546001600160a01b031633148061142a575061142a61261f565b6114465760405162461bcd60e51b8152600401610a7b90613964565b6037805460ff60a81b1916600160a81b1790556040517f71f0e5b62f846a22e0b4d159e516e62fa9c2b8eb570be15f83e67d98a2ee51e090600090a1565b61148c61261f565b6114a85760405162461bcd60e51b8152600401610a7b906139ac565b6001600160a01b03811660009081526033602052604090205460ff166115065760405162461bcd60e51b8152602060048201526013602482015272105cdcd95d081b9bdd081cdd5c1c1bdc9d1959606a1b6044820152606401610a7b565b6001600160a01b03811660009081526033602052604081205461153b906509184e72a0009062010000900460ff166012612b87565b604051632fa8a91360e11b81526001600160a01b038416600482015290915081903090635f51522690602401602060405180830381865afa158015611584573d6000803e3d6000fd5b505050506040513d601f19601f820116820180604052508101906115a89190613a67565b11156115f65760405162461bcd60e51b815260206004820152601760248201527f5661756c74207374696c6c20686f6c64732061737365740000000000000000006044820152606401610a7b565b6034548060005b8281101561164c57846001600160a01b03166034828154811061162257611622613a12565b6000918252602090912001546001600160a01b0316036116445780915061164c565b6001016115fd565b50603461165a600184613a3e565b8154811061166a5761166a613a12565b600091825260209091200154603480546001600160a01b03909216918390811061169657611696613a12565b9060005260206000200160006101000a8154816001600160a01b0302191690836001600160a01b0316021790555060348054806116d5576116d5613a51565b60008281526020808220600019908401810180546001600160a01b031990811690915593019093556001600160a01b038716808252604080855280832080549094169093558251908152928301527fba58ce12801c949fa65f41c46ed108671c219baf945fa48d21026cea99ff252a910160405180910390a16001600160a01b038416600081815260336020908152604091829020805464ffffffffff1916905590519182527f37803e2125c48ee96c38ddf04e826daf335b0e1603579040fd275aba6d06b6fc910160405180910390a150505050565b7f53bf423e48ed90e97d02ab0ebab13b2a235a6bfbe9c321847d5c175333ac453580546000919060011981016117f45760405162461bcd60e51b8152600401610a7b90613a80565b60028255603f546001600160a01b0316331480611814575061181461261f565b6118305760405162461bcd60e51b8152600401610a7b90613964565b61183e898989898989612beb565b600190925550979650505050505050565b603f546001600160a01b031633148061186b575061186b61261f565b6118875760405162461bcd60e51b8152600401610a7b90613964565b61125c81612c36565b7f44c4d30b2eaad5130ad70c3ba6972730566f3e6359ab83e800d905c61b1c51db546001600160a01b0316336001600160a01b03161461192b5760405162461bcd60e51b815260206004820152603060248201527f4f6e6c79207468652070656e64696e6720476f7665726e6f722063616e20636f60448201526f6d706c6574652074686520636c61696d60801b6064820152608401610a7b565b61193433612c95565b565b61193e61261f565b61195a5760405162461bcd60e51b8152600401610a7b906139ac565b600060465560478190556040518181527fc29d6fedbc6bdf267a08166c2b976fbd72aca5d6a769528616f8b9224c8f197f90602001610b3d565b61199c61261f565b6119b85760405162461bcd60e51b8152600401610a7b906139ac565b60418190556040518181527f95201f9c21f26877223b1ff4073936a6484c35495649e60e55730497aeb60d9390602001610b3d565b6119f561261f565b611a115760405162461bcd60e51b8152600401610a7b906139ac565b6001600160a01b03821660009081526033602052604090205460ff1615611a7a5760405162461bcd60e51b815260206004820152601760248201527f417373657420616c726561647920737570706f727465640000000000000000006044820152606401610a7b565b60405180608001604052806001151581526020018260ff166001811115611aa357611aa3613aa8565b6001811115611ab457611ab4613aa8565b81526000602080830182905260409283018290526001600160a01b0386168252603381529190208251815490151560ff19821681178355928401519192839161ff001990911661ffff1990911617610100836001811115611b1757611b17613aa8565b02179055506040820151815460609093015161ffff1663010000000264ffff0000001960ff90921662010000029190911664ffffff00001990931692909217919091179055611b6582612a80565b603480546001810182556000919091527f46bddb1178e94d7f2892ff5f366840eb658911794f2c3a44c450aa2c505186c10180546001600160a01b0319166001600160a01b038481169182179092556037546040516315d5220f60e31b815260048101929092529091169063aea9107890602401602060405180830381865afa158015611bf6573d6000803e3d6000fd5b505050506040513d601f19601f82011682018060405250810190611c1a9190613a67565b506040516001600160a01b03831681527f4f1ac48525e50059cc1cc6e0e1940ece0dd653a4db4841538d6aef036be2fb7b906020015b60405180910390a15050565b611c6461261f565b611c805760405162461bcd60e51b8152600401610a7b906139ac565b603f80546001600160a01b0319166001600160a01b0383169081179091556040519081527f869e0abd13cc3a975de7b93be3df1cb2255c802b1cead85963cc79d99f131bee90602001610b3d565b611cd661261f565b611cf25760405162461bcd60e51b8152600401610a7b906139ac565b6001600160a01b03821660009081526033602052604090205460ff16611d505760405162461bcd60e51b8152602060048201526013602482015272105cdcd95d081b9bdd081cdd5c1c1bdc9d1959606a1b6044820152606401610a7b565b6103e88161ffff1610611d995760405162461bcd60e51b81526020600482015260116024820152700a6d8d2e0e0c2ceca40e8dede40d0d2ced607b1b6044820152606401610a7b565b6001600160a01b038216600081815260336020908152604091829020805464ffff0000001916630100000061ffff8716908102919091179091558251938452908301527f8d22e9d2cbe8bb65a3c4412bd8970743864512a1a0e004e8d00fb96277b78b949101611c50565b603f546001600160a01b0316331480611e205750611e2061261f565b611e3c5760405162461bcd60e51b8152600401610a7b90613964565b7f53bf423e48ed90e97d02ab0ebab13b2a235a6bfbe9c321847d5c175333ac453580546001198101611e805760405162461bcd60e51b8152600401610a7b90613a80565b60028255611e918787878787612cf4565b50600190555050505050565b603f546001600160a01b0316331480611eb95750611eb961261f565b611ed55760405162461bcd60e51b8152600401610a7b90613964565b670de0b6b3a7640000811115611f1d5760405162461bcd60e51b815260206004820152600d60248201526c496e76616c69642076616c756560981b6044820152606401610a7b565b60398190556040518181527f41ecb23a0e7865b25f38c268b7c3012220d822929e9edff07326e89d5bb822b590602001610b3d565b603f546001600160a01b0316331480611f6e5750611f6e61261f565b611f8a5760405162461bcd60e51b8152600401610a7b90613964565b6037805460ff60a81b191690556040517f891ebab18da80ebeeea06b1b1cede098329c4c008906a98370c2ac7a80b571cb90600090a1565b611fca61261f565b611fe65760405162461bcd60e51b8152600401610a7b906139ac565b6001600160a01b03811660009081526049602052604090205460ff166120405760405162461bcd60e51b815260206004820152600f60248201526e139bdd081dda1a5d195b1a5cdd1959608a1b6044820152606401610a7b565b6001600160a01b038116600081815260496020526040808220805460ff19169055517f0ec40967a61509853550658e51d0e4297f7cba244fe4adc8ba18b5631ac20e2f9190a250565b61209161261f565b6120ad5760405162461bcd60e51b8152600401610a7b906139ac565b604880546001600160a01b0319166001600160a01b0383169081179091556040519081527f7d7719313229e558c5a3893cad2eb86a86a049156d1d9ebd5c63a8eedefd1c0390602001610b3d565b603f546001600160a01b0316331480612117575061211761261f565b6121335760405162461bcd60e51b8152600401610a7b90613964565b7f53bf423e48ed90e97d02ab0ebab13b2a235a6bfbe9c321847d5c175333ac4535805460011981016121775760405162461bcd60e51b8152600401610a7b90613a80565b60028255611e91308888888888612f2c565b61219161261f565b6121ad5760405162461bcd60e51b8152600401610a7b906139ac565b603a8190556040518181527f2ec5fb5a3d2703edc461252d92ccd2799c3c74f01d97212b20388207fa17ae4590602001610b3d565b603f546001600160a01b03163314806121fe57506121fe61261f565b61221a5760405162461bcd60e51b8152600401610a7b90613964565b306001600160a01b031663af14052c6040518163ffffffff1660e01b8152600401600060405180830381600087803b15801561225557600080fd5b505af1158015612269573d6000803e3d6000fd5b5050505060006301e133806064836122819190613abe565b61228b9190613abe565b90506122a16201518066b1a2bc2ec50000613abe565b8111156122e05760405162461bcd60e51b815260206004820152600d60248201526c0a4c2e8ca40e8dede40d0d2ced609b1b6044820152606401610a7b565b6122e9816129bd565b604f80546001600160401b0392909216600160801b0267ffffffffffffffff60801b199092169190911790556040518181527fef46f143af5fead0010484fe7d6ec2e2972420faa76157f5a6075aa72e614cb590602001611c50565b61234d61261f565b6123695760405162461bcd60e51b8152600401610a7b906139ac565b603b8190556040518181527f39367850377ac04920a9a670f2180e7a94d83b15ad302e59875ec58fd10bd37d90602001610b3d565b603f546001600160a01b03163314806123ba57506123ba61261f565b6123d65760405162461bcd60e51b8152600401610a7b90613964565b604080516001600160a01b038085168252831660208201527fba58ce12801c949fa65f41c46ed108671c219baf945fa48d21026cea99ff252a910160405180910390a16001600160a01b0381161561257b576001600160a01b03811660009081526035602052604090205460ff166124605760405162461bcd60e51b8152600401610a7b906139e3565b6001600160a01b038216600090815260336020526040902054819060ff166124c35760405162461bcd60e51b8152602060048201526016602482015275105cdcd95d081a5cc81b9bdd081cdd5c1c1bdc9d195960521b6044820152606401610a7b565b60405163551c457b60e11b81526001600160a01b03848116600483015282169063aa388af690602401602060405180830381865afa158015612509573d6000803e3d6000fd5b505050506040513d601f19601f8201168201806040525081019061252d9190613ae0565b6125795760405162461bcd60e51b815260206004820152601f60248201527f4173736574206e6f7420737570706f72746564206279205374726174656779006044820152606401610a7b565b505b6001600160a01b03918216600090815260406020819052902080546001600160a01b03191691909216179055565b603f546001600160a01b03163314806125c557506125c561261f565b6125e15760405162461bcd60e51b8152600401610a7b90613964565b6037805460ff60a01b1916600160a01b1790556040517f8cff26a5985614b3d30629cc4ab83824bf115aec971b718d8f2f99562032e97290600090a1565b6000612637600080516020613cbc8339815191525490565b6001600160a01b0316336001600160a01b031614905090565b603f546001600160a01b031633148061266c575061266c61261f565b6126885760405162461bcd60e51b8152600401610a7b90613964565b611934612f95565b61269861261f565b6126b45760405162461bcd60e51b8152600401610a7b906139ac565b6126dc817f44c4d30b2eaad5130ad70c3ba6972730566f3e6359ab83e800d905c61b1c51db55565b806001600160a01b03166126fc600080516020613cbc8339815191525490565b6001600160a01b03167fa39cc5eb22d0f34d8beaefee8a3f17cc229c1a1d1ef87a5ad47313487b1c4f0d60405160405180910390a350565b61273c61261f565b6127585760405162461bcd60e51b8152600401610a7b906139ac565b604580546001600160a01b0319166001600160a01b0383169081179091556040519081527fa12850fb726e0b2b7b3c9a9342031e1268a8148d0eb06b4bea8613204ffcd2b890602001610b3d565b6127ae61261f565b6127ca5760405162461bcd60e51b8152600401610a7b906139ac565b6127118161ffff16106128165760405162461bcd60e51b8152602060048201526014602482015273496e76616c696420626173697320706f696e747360601b6044820152606401610a7b565b6048805461ffff60a01b1916600160a01b61ffff8416908102919091179091556040519081527ff12c00256bee2b6facb111a88a9b1cff86e79132939b44f1353212d6f746955790602001610b3d565b61286e61261f565b61288a5760405162461bcd60e51b8152600401610a7b906139ac565b6103e88111156128e65760405162461bcd60e51b815260206004820152602160248201527f52656465656d206665652073686f756c64206e6f74206265206f7665722031306044820152602560f81b6064820152608401610a7b565b60388190556040518181527fd6c7508d6658ccee36b7b7d7fd72e5cbaeefb40c64eff24e9ae7470e846304ee90602001610b3d565b61292361261f565b61293f5760405162461bcd60e51b8152600401610a7b906139ac565b803b6129995760405162461bcd60e51b8152602060048201526024808201527f6e657720696d706c656d656e746174696f6e206973206e6f74206120636f6e746044820152631c9858dd60e21b6064820152608401610a7b565b7fa2bd3d3cf188a41358c8b401076eb59066b09dec5775650c0de4c55187d17bd955565b60006001600160401b03821115612a255760405162461bcd60e51b815260206004820152602660248201527f53616665436173743a2076616c756520646f65736e27742066697420696e203660448201526534206269747360d01b6064820152608401610a7b565b5090565b604080516001600160a01b038416602482015260448082018490528251808303909101815260649091019091526020810180516001600160e01b031663a9059cbb60e01b179052612a7b908490612fec565b505050565b6001600160a01b0381166000908152603360205260409020805462010000900460ff1615612aac575050565b6000826001600160a01b031663313ce5676040518163ffffffff1660e01b8152600401602060405180830381865afa158015612aec573d6000803e3d6000fd5b505050506040513d601f19601f82011682018060405250810190612b109190613b02565b905060068160ff1610158015612b2a575060128160ff1611155b612b6d5760405162461bcd60e51b81526020600482015260146024820152732ab732bc3832b1ba32b210383932b1b4b9b4b7b760611b6044820152606401610a7b565b815460ff909116620100000262ff00001990911617905550565b600081831115612bb757612bb0612b9e8385613a3e565b612ba990600a613c06565b85906130be565b9350612be1565b81831015612be157612bde612bcc8484613a3e565b612bd790600a613c06565b85906130d3565b93505b50825b9392505050565b60405162461bcd60e51b815260206004820152601d60248201527f436f6c6c61746572616c2073776170206e6f7420737570706f727465640000006044820152600090606401610a7b565b612c3f816130df565b306001600160a01b031663b9b17f9f6040518163ffffffff1660e01b8152600401600060405180830381600087803b158015612c7a57600080fd5b505af1158015612c8e573d6000803e3d6000fd5b5050505050565b6001600160a01b038116612ceb5760405162461bcd60e51b815260206004820152601a60248201527f4e657720476f7665726e6f7220697320616464726573732830290000000000006044820152606401610a7b565b61125c816131a3565b6001600160a01b03851660009081526035602052604090205460ff16612d525760405162461bcd60e51b8152602060048201526013602482015272496e76616c696420746f20537472617465677960681b6044820152606401610a7b565b600183148015612d625750600181145b8015612dc657507f00000000000000000000000000000000000000000000000000000000000000006001600160a01b031684846000818110612da657612da6613a12565b9050602002016020810190612dbb9190613703565b6001600160a01b0316145b612e0b5760405162461bcd60e51b815260206004820152601660248201527513db9b1e4815d15512081a5cc81cdd5c1c1bdc9d195960521b6044820152606401610a7b565b612e1361320a565b82826000818110612e2657612e26613a12565b905060200201351115612e7b5760405162461bcd60e51b815260206004820152601960248201527f4e6f7420656e6f756768205745544820617661696c61626c65000000000000006044820152606401610a7b565b612ed28583836000818110612e9257612e92613a12565b905060200201357f00000000000000000000000000000000000000000000000000000000000000006001600160a01b0316612a299092919063ffffffff16565b846001600160a01b031663de5f62686040518163ffffffff1660e01b8152600401600060405180830381600087803b158015612f0d57600080fd5b505af1158015612f21573d6000803e3d6000fd5b505050505050505050565b612f3a868686868686613318565b306001600160a01b031663b9b17f9f6040518163ffffffff1660e01b8152600401600060405180830381600087803b158015612f7557600080fd5b505af1158015612f89573d6000803e3d6000fd5b50505050505050505050565b612f9d6134a0565b306001600160a01b031663b9b17f9f6040518163ffffffff1660e01b8152600401600060405180830381600087803b158015612fd857600080fd5b505af1158015610fee573d6000803e3d6000fd5b6000613041826040518060400160405280602081526020017f5361666545524332303a206c6f772d6c6576656c2063616c6c206661696c6564815250856001600160a01b031661352c9092919063ffffffff16565b805190915015612a7b578080602001905181019061305f9190613ae0565b612a7b5760405162461bcd60e51b815260206004820152602a60248201527f5361666545524332303a204552433230206f7065726174696f6e20646964206e6044820152691bdd081cdd58d8d9595960b21b6064820152608401610a7b565b60006130ca8284613c12565b90505b92915050565b60006130ca8284613abe565b6001600160a01b03811660009081526035602052604090205460ff166131475760405162461bcd60e51b815260206004820152601960248201527f5374726174656779206973206e6f7420737570706f72746564000000000000006044820152606401610a7b565b6000819050806001600160a01b031663853828b66040518163ffffffff1660e01b8152600401600060405180830381600087803b15801561318757600080fd5b505af115801561319b573d6000803e3d6000fd5b505050505050565b806001600160a01b03166131c3600080516020613cbc8339815191525490565b6001600160a01b03167fc7c0c772add429241571afb3805861fb3cfa2af374534088b76cdb4325a87e9a60405160405180910390a3600080516020613cbc83398151915255565b60408051608081018252604b546001600160801b03808216808452600160801b9283900482166020850152604c5480831695850186905292909204166060830152600092839161325a9190613c29565b6040516370a0823160e01b81523060048201526001600160801b039190911691506000906001600160a01b037f000000000000000000000000000000000000000000000000000000000000000016906370a0823190602401602060405180830381865afa1580156132cf573d6000803e3d6000fd5b505050506040513d601f19601f820116820180604052508101906132f39190613a67565b9050818111613306576000935050505090565b6133108282613a3e565b935050505090565b6001600160a01b03851660009081526035602052604090205460ff166133785760405162461bcd60e51b8152602060048201526015602482015274496e76616c69642066726f6d20537472617465677960581b6044820152606401610a7b565b8281146133c75760405162461bcd60e51b815260206004820152601960248201527f506172616d65746572206c656e677468206d69736d61746368000000000000006044820152606401610a7b565b8260005b8181101561349657866001600160a01b031663d9caed12898888858181106133f5576133f5613a12565b905060200201602081019061340a9190613703565b87878681811061341c5761341c613a12565b6040516001600160e01b031960e088901b1681526001600160a01b03958616600482015294909316602485015250602090910201356044820152606401600060405180830381600087803b15801561347357600080fd5b505af1158015613487573d6000803e3d6000fd5b505050508060010190506133cb565b5050505050505050565b60365460005b81811015610d2957603681815481106134c1576134c1613a12565b60009182526020822001546040805163429c145b60e11b815290516001600160a01b039092169263853828b69260048084019382900301818387803b15801561350957600080fd5b505af115801561351d573d6000803e3d6000fd5b505050508060010190506134a6565b606061353b8484600085613543565b949350505050565b6060824710156135a45760405162461bcd60e51b815260206004820152602660248201527f416464726573733a20696e73756666696369656e742062616c616e636520666f6044820152651c8818d85b1b60d21b6064820152608401610a7b565b843b6135f25760405162461bcd60e51b815260206004820152601d60248201527f416464726573733a2063616c6c20746f206e6f6e2d636f6e74726163740000006044820152606401610a7b565b600080866001600160a01b0316858760405161360e9190613c6c565b60006040518083038185875af1925050503d806000811461364b576040519150601f19603f3d011682016040523d82523d6000602084013e613650565b606091505b509150915061366082828661366b565b979650505050505050565b6060831561367a575081612be4565b82511561368a5782518084602001fd5b8160405162461bcd60e51b8152600401610a7b9190613c88565b6000602082840312156136b657600080fd5b5035919050565b80356001600160a01b03811681146136d457600080fd5b919050565b600080604083850312156136ec57600080fd5b6136f5836136bd565b946020939093013593505050565b60006020828403121561371557600080fd5b6130ca826136bd565b60008060008060008060a0878903121561373757600080fd5b613740876136bd565b955061374e602088016136bd565b9450604087013593506060870135925060808701356001600160401b0381111561377757600080fd5b8701601f8101891361378857600080fd5b80356001600160401b0381111561379e57600080fd5b8960208284010111156137b057600080fd5b60208201935080925050509295509295509295565b60ff8116811461125c57600080fd5b600080604083850312156137e757600080fd5b6137f0836136bd565b91506020830135613800816137c5565b809150509250929050565b803561ffff811681146136d457600080fd5b6000806040838503121561383057600080fd5b613839836136bd565b91506138476020840161380b565b90509250929050565b60008083601f84011261386257600080fd5b5081356001600160401b0381111561387957600080fd5b6020830191508360208260051b850101111561389457600080fd5b9250929050565b6000806000806000606086880312156138b357600080fd5b6138bc866136bd565b945060208601356001600160401b038111156138d757600080fd5b6138e388828901613850565b90955093505060408601356001600160401b0381111561390257600080fd5b61390e88828901613850565b969995985093965092949392505050565b6000806040838503121561393257600080fd5b61393b836136bd565b9150613847602084016136bd565b60006020828403121561395b57600080fd5b6130ca8261380b565b60208082526028908201527f43616c6c6572206973206e6f74207468652053747261746567697374206f722060408201526723b7bb32b93737b960c11b606082015260800190565b6020808252601a908201527f43616c6c6572206973206e6f742074686520476f7665726e6f72000000000000604082015260600190565b60208082526015908201527414dd1c985d1959de481b9bdd08185c1c1c9bdd9959605a1b604082015260600190565b634e487b7160e01b600052603260045260246000fd5b634e487b7160e01b600052601160045260246000fd5b818103818111156130cd576130cd613a28565b634e487b7160e01b600052603160045260246000fd5b600060208284031215613a7957600080fd5b5051919050565b6020808252600e908201526d1499595b9d1c985b9d0818d85b1b60921b604082015260600190565b634e487b7160e01b600052602160045260246000fd5b600082613adb57634e487b7160e01b600052601260045260246000fd5b500490565b600060208284031215613af257600080fd5b81518015158114612be457600080fd5b600060208284031215613b1457600080fd5b8151612be4816137c5565b6001815b6001841115613b5a57808504811115613b3e57613b3e613a28565b6001841615613b4c57908102905b60019390931c928002613b23565b935093915050565b600082613b71575060016130cd565b81613b7e575060006130cd565b8160018114613b945760028114613b9e57613bba565b60019150506130cd565b60ff841115613baf57613baf613a28565b50506001821b6130cd565b5060208310610133831016604e8410600b8410161715613bdd575081810a6130cd565b613bea6000198484613b1f565b8060001904821115613bfe57613bfe613a28565b029392505050565b60006130ca8383613b62565b80820281158282048414176130cd576130cd613a28565b6001600160801b0382811682821603908111156130cd576130cd613a28565b60005b83811015613c63578181015183820152602001613c4b565b50506000910152565b60008251613c7e818460208701613c48565b9190910192915050565b6020815260008251806020840152613ca7816040850160208701613c48565b601f01601f1916919091016040019291505056fe7bea13895fa79d2831e0a9e28edede30099005a50d652d8957cf8a607ee6ca4aa2646970667358221220f66ef6d77c6c8db269e1abfd6a11ef140019a19b196946d407b669850fff65d564736f6c634300081c0033",
  "libraries": {},
  "devdoc": {
    "author": "Origin Protocol Inc",
    "kind": "dev",
    "methods": {
      "addStrategyToMintWhitelist(address)": {
        "params": {
          "strategyAddr": "Strategy address"
        }
      },
      "allowedSwapUndervalue()": {
        "returns": {
          "value": "Percentage in basis points."
        }
      },
      "approveStrategy(address)": {
        "params": {
          "_addr": "Address of the strategy to add"
        }
      },
      "cacheDecimals(address)": {
        "params": {
          "_asset": "Address of asset token"
        }
      },
      "depositToStrategy(address,address[],uint256[])": {
        "params": {
          "_amounts": "Array of amounts of each corresponding asset to deposit.",
          "_assets": "Array of asset address that will be deposited into the strategy.",
          "_strategyToAddress": "Address of the Strategy to deposit assets into."
        }
      },
      "removeAsset(address)": {
        "params": {
          "_asset": "Address of asset"
        }
      },
      "removeStrategy(address)": {
        "params": {
          "_addr": "Address of the strategy to remove"
        }
      },
      "removeStrategyFromMintWhitelist(address)": {
        "params": {
          "strategyAddr": "Strategy address"
        }
      },
      "setAdminImpl(address)": {
        "params": {
          "newImpl": "address of the implementation"
        }
      },
      "setAssetDefaultStrategy(address,address)": {
        "params": {
          "_asset": "Address of the asset",
          "_strategy": "Address of the Strategy"
        }
      },
      "setAutoAllocateThreshold(uint256)": {
        "params": {
          "_threshold": "OToken amount with 18 fixed decimals."
        }
      },
      "setDripDuration(uint256)": {
        "params": {
          "_dripDuration": "Time in seconds to target a constant yield rate"
        }
      },
      "setNetOusdMintForStrategyThreshold(uint256)": {
        "params": {
          "_threshold": "OToken amount with 18 fixed decimals."
        }
      },
      "setOracleSlippage(address,uint16)": {
        "params": {
          "_allowedOracleSlippageBps": "allowed slippage from Oracle in basis points. eg 20 = 0.2%. Max 10%.",
          "_asset": "Address of the asset token."
        }
      },
      "setOusdMetaStrategy(address)": {
        "params": {
          "_ousdMetaStrategy": "Address of OToken metapool strategy"
        }
      },
      "setPriceProvider(address)": {
        "params": {
          "_priceProvider": "Address of price provider"
        }
      },
      "setRebaseRateMax(uint256)": {
        "params": {
          "yearlyApr": "in 1e18 notation. 3 * 1e18 = 3% APR"
        }
      },
      "setRebaseThreshold(uint256)": {
        "params": {
          "_threshold": "OToken amount with 18 fixed decimals."
        }
      },
      "setRedeemFeeBps(uint256)": {
        "params": {
          "_redeemFeeBps": "Basis point fee to be charged"
        }
      },
      "setStrategistAddr(address)": {
        "params": {
          "_address": "Address of Strategist"
        }
      },
      "setSwapAllowedUndervalue(uint16)": {
        "params": {
          "_basis": "Percentage in basis points. eg 100 == 1%"
        }
      },
      "setSwapper(address)": {
        "params": {
          "_swapperAddr": "Address of the Swapper contract that implements the ISwapper interface."
        }
      },
      "setVaultBuffer(uint256)": {
        "params": {
          "_vaultBuffer": "Percentage using 18 decimals. 100% = 1e18."
        }
      },
      "setWithdrawalClaimDelay(uint256)": {
        "params": {
          "_delay": "Delay period (should be between 10 mins to 7 days).          Set to 0 to disable async withdrawals"
        }
      },
      "supportAsset(address,uint8)": {
        "params": {
          "_asset": "Address of asset"
        }
      },
      "swapCollateral(address,address,uint256,uint256,bytes)": {
        "params": {
          "_data": "implementation specific data. eg 1Inch swap data",
          "_fromAsset": "The token address of the asset being sold by the vault.",
          "_fromAssetAmount": "The amount of assets being sold by the vault.",
          "_minToAssetAmount": "The minimum amount of assets to be purchased.",
          "_toAsset": "The token address of the asset being purchased by the vault."
        },
        "returns": {
          "toAssetAmount": "The amount of toAssets that was received from the swap"
        }
      },
      "transferGovernance(address)": {
        "params": {
          "_newGovernor": "Address of the new Governor"
        }
      },
      "transferToken(address,uint256)": {
        "params": {
          "_amount": "Amount of the asset to transfer",
          "_asset": "Address for the asset"
        }
      },
      "withdrawAllFromStrategy(address)": {
        "params": {
          "_strategyAddr": "Strategy address."
        }
      },
      "withdrawFromStrategy(address,address[],uint256[])": {
        "params": {
          "_amounts": "Array of amounts of each corresponding asset to withdraw.",
          "_assets": "Array of asset address that will be withdrawn from the strategy.",
          "_strategyFromAddress": "Address of the Strategy to withdraw assets from."
        }
      }
    },
    "title": "OETH VaultAdmin Contract",
    "version": 1
  },
  "userdoc": {
    "kind": "user",
    "methods": {
      "addStrategyToMintWhitelist(address)": {
        "notice": "Adds a strategy to the mint whitelist.          Reverts if strategy isn't approved on Vault."
      },
      "allowedSwapUndervalue()": {
        "notice": "Max allowed percentage the vault total value can drop below the OToken total supply in basis points when executing a collateral swap. For example 100 == 1%"
      },
      "approveStrategy(address)": {
        "notice": "Add a strategy to the Vault."
      },
      "assetDefaultStrategies(address)": {
        "notice": "Mapping of asset address to the Strategy that they should automatically"
      },
      "autoAllocateThreshold()": {
        "notice": "OToken mints over this amount automatically allocate funds. 18 decimals."
      },
      "cacheDecimals(address)": {
        "notice": "Cache decimals on OracleRouter for a particular asset. This action      is required before that asset's price can be accessed."
      },
      "capitalPaused()": {
        "notice": "pause operations that change the OToken supply. eg mint, redeem, allocate, mint/burn for strategy"
      },
      "claimGovernance()": {
        "notice": "Claim Governance of the contract to a new account (`newGovernor`). Can only be called by the new Governor."
      },
      "depositToStrategy(address,address[],uint256[])": {
        "notice": "Deposit multiple assets from the vault into the strategy."
      },
      "dripDuration()": {
        "notice": "Automatic rebase yield calculations. In seconds. Set to 0 or 1 to disable."
      },
      "governor()": {
        "notice": "Returns the address of the current Governor."
      },
      "isGovernor()": {
        "notice": "Returns true if the caller is the current Governor."
      },
      "lastRebase()": {
        "notice": "Time in seconds that the vault last rebased yield."
      },
      "maxSupplyDiff()": {
        "notice": "Max difference between total supply and total value of assets. 18 decimals."
      },
      "netOusdMintForStrategyThreshold()": {
        "notice": "How much net total OTokens are allowed to be minted by all strategies"
      },
      "netOusdMintedForStrategy()": {
        "notice": "How much OTokens are currently minted by the strategy"
      },
      "ousdMetaStrategy()": {
        "notice": "Metapool strategy that is allowed to mint/burn OTokens without changing collateral"
      },
      "pauseCapital()": {
        "notice": "Set the deposit paused flag to true to prevent capital movement."
      },
      "pauseRebase()": {
        "notice": "Set the deposit paused flag to true to prevent rebasing."
      },
      "priceProvider()": {
        "notice": "Address of the Oracle price provider contract"
      },
      "rebasePaused()": {
        "notice": "pause rebasing if true"
      },
      "rebasePerSecondMax()": {
        "notice": "max rebase percentage per second   Can be used to set maximum yield of the protocol,   spreading out yield over time"
      },
      "rebasePerSecondTarget()": {
        "notice": "target rebase rate limit, based on past rates and funds available."
      },
      "rebaseThreshold()": {
        "notice": "OToken mints over this amount automatically rebase. 18 decimals."
      },
      "redeemFeeBps()": {
        "notice": "Redemption fee in basis points. eg 50 = 0.5%"
      },
      "removeAsset(address)": {
        "notice": "Remove a supported asset from the Vault"
      },
      "removeStrategy(address)": {
        "notice": "Remove a strategy from the Vault."
      },
      "removeStrategyFromMintWhitelist(address)": {
        "notice": "Removes a strategy from the mint whitelist."
      },
      "setAdminImpl(address)": {
        "notice": "set the implementation for the admin, this needs to be in a base class else we cannot set it"
      },
      "setAssetDefaultStrategy(address,address)": {
        "notice": "Set the default Strategy for an asset, i.e. the one which the asset will be automatically allocated to and withdrawn from"
      },
      "setAutoAllocateThreshold(uint256)": {
        "notice": "Sets the minimum amount of OTokens in a mint to trigger an automatic allocation of funds afterwords."
      },
      "setDripDuration(uint256)": {
        "notice": "Set the drip duration period"
      },
      "setMaxSupplyDiff(uint256)": {
        "notice": "Sets the maximum allowable difference between total supply and backing assets' value."
      },
      "setNetOusdMintForStrategyThreshold(uint256)": {
        "notice": "Set maximum amount of OTokens that can at any point be minted and deployed to strategy (used only by ConvexOUSDMetaStrategy for now)."
      },
      "setOracleSlippage(address,uint16)": {
        "notice": "Set the allowed slippage from the Oracle price for collateral asset swaps."
      },
      "setOusdMetaStrategy(address)": {
        "notice": "Set OToken Metapool strategy"
      },
      "setPriceProvider(address)": {
        "notice": "Set address of price provider."
      },
      "setRebaseRateMax(uint256)": {
        "notice": "Set a yield streaming max rate. This spreads yield over time if it is above the max rate."
      },
      "setRebaseThreshold(uint256)": {
        "notice": "Set a minimum amount of OTokens in a mint or redeem that triggers a rebase"
      },
      "setRedeemFeeBps(uint256)": {
        "notice": "Set a fee in basis points to be charged for a redeem."
      },
      "setStrategistAddr(address)": {
        "notice": "Set address of Strategist"
      },
      "setSwapAllowedUndervalue(uint16)": {
        "notice": "Set max allowed percentage the vault total value can drop below the OToken total supply in basis points when executing collateral swaps."
      },
      "setSwapper(address)": {
        "notice": "Set the contract the performs swaps of collateral assets."
      },
      "setTrusteeAddress(address)": {
        "notice": "Sets the trusteeAddress that can receive a portion of yield.      Setting to the zero address disables this feature."
      },
      "setTrusteeFeeBps(uint256)": {
        "notice": "Sets the TrusteeFeeBps to the percentage of yield that should be      received in basis points."
      },
      "setVaultBuffer(uint256)": {
        "notice": "Set a buffer of assets to keep in the Vault to handle most redemptions without needing to spend gas unwinding assets from a Strategy."
      },
      "setWithdrawalClaimDelay(uint256)": {
        "notice": "Changes the async withdrawal claim period for OETH & superOETHb"
      },
      "strategistAddr()": {
        "notice": "Address of the Strategist"
      },
      "supportAsset(address,uint8)": {
        "notice": "Add a supported asset to the contract, i.e. one that can be         to mint OTokens."
      },
      "swapCollateral(address,address,uint256,uint256,bytes)": {
        "notice": "Strategist swaps collateral assets sitting in the vault."
      },
      "swapper()": {
        "notice": "Contract that swaps the vault's collateral assets"
      },
      "transferGovernance(address)": {
        "notice": "Transfers Governance of the contract to a new account (`newGovernor`). Can only be called by the current Governor. Must be claimed for this to complete"
      },
      "transferToken(address,uint256)": {
        "notice": "Transfer token to governor. Intended for recovering tokens stuck in      contract, i.e. mistaken sends."
      },
      "trusteeAddress()": {
        "notice": "Trustee contract that can collect a percentage of yield"
      },
      "trusteeFeeBps()": {
        "notice": "Amount of yield collected in basis points. eg 2000 = 20%"
      },
      "unpauseCapital()": {
        "notice": "Set the deposit paused flag to false to enable capital movement."
      },
      "unpauseRebase()": {
        "notice": "Set the deposit paused flag to true to allow rebasing."
      },
      "vaultBuffer()": {
        "notice": "Percentage of assets to keep in Vault to handle (most) withdrawals. 100% = 1e18."
      },
      "withdrawAllFromStrategies()": {
        "notice": "Withdraws all assets from all the strategies and sends assets to the Vault."
      },
      "withdrawAllFromStrategy(address)": {
        "notice": "Withdraws all assets from the strategy and sends assets to the Vault."
      },
      "withdrawFromStrategy(address,address[],uint256[])": {
        "notice": "Withdraw multiple assets from the strategy to the vault."
      },
      "withdrawalClaimDelay()": {
        "notice": "Sets a minimum delay that is required to elapse between     requesting async withdrawals and claiming the request.     When set to 0 async withdrawals are disabled."
      },
      "withdrawalQueueMetadata()": {
        "notice": "Global metadata for the withdrawal queue including: queued - cumulative total of all withdrawal requests included the ones that have already been claimed claimable - cumulative total of all the requests that can be claimed including the ones already claimed claimed - total of all the requests that have been claimed nextWithdrawalIndex - index of the next withdrawal request starting at 0"
      },
      "withdrawalRequests(uint256)": {
        "notice": "Mapping of withdrawal request indices to the user withdrawal request data"
      }
    },
    "version": 1
  },
  "storageLayout": {
    "storage": [
      {
        "astId": 72011,
        "contract": "contracts/vault/OETHVaultAdmin.sol:OETHVaultAdmin",
        "label": "initialized",
        "offset": 0,
        "slot": "0",
        "type": "t_bool"
      },
      {
        "astId": 72014,
        "contract": "contracts/vault/OETHVaultAdmin.sol:OETHVaultAdmin",
        "label": "initializing",
        "offset": 1,
        "slot": "0",
        "type": "t_bool"
      },
      {
        "astId": 72054,
        "contract": "contracts/vault/OETHVaultAdmin.sol:OETHVaultAdmin",
        "label": "______gap",
        "offset": 0,
        "slot": "1",
        "type": "t_array(t_uint256)50_storage"
      },
      {
        "astId": 79250,
        "contract": "contracts/vault/OETHVaultAdmin.sol:OETHVaultAdmin",
        "label": "assets",
        "offset": 0,
        "slot": "51",
        "type": "t_mapping(t_address,t_struct(Asset)79244_storage)"
      },
      {
        "astId": 79254,
        "contract": "contracts/vault/OETHVaultAdmin.sol:OETHVaultAdmin",
        "label": "allAssets",
        "offset": 0,
        "slot": "52",
        "type": "t_array(t_address)dyn_storage"
      },
      {
        "astId": 79265,
        "contract": "contracts/vault/OETHVaultAdmin.sol:OETHVaultAdmin",
        "label": "strategies",
        "offset": 0,
        "slot": "53",
        "type": "t_mapping(t_address,t_struct(Strategy)79259_storage)"
      },
      {
        "astId": 79269,
        "contract": "contracts/vault/OETHVaultAdmin.sol:OETHVaultAdmin",
        "label": "allStrategies",
        "offset": 0,
        "slot": "54",
        "type": "t_array(t_address)dyn_storage"
      },
      {
        "astId": 79272,
        "contract": "contracts/vault/OETHVaultAdmin.sol:OETHVaultAdmin",
        "label": "priceProvider",
        "offset": 0,
        "slot": "55",
        "type": "t_address"
      },
      {
        "astId": 79275,
        "contract": "contracts/vault/OETHVaultAdmin.sol:OETHVaultAdmin",
        "label": "rebasePaused",
        "offset": 20,
        "slot": "55",
        "type": "t_bool"
      },
      {
        "astId": 79278,
        "contract": "contracts/vault/OETHVaultAdmin.sol:OETHVaultAdmin",
        "label": "capitalPaused",
        "offset": 21,
        "slot": "55",
        "type": "t_bool"
      },
      {
        "astId": 79281,
        "contract": "contracts/vault/OETHVaultAdmin.sol:OETHVaultAdmin",
        "label": "redeemFeeBps",
        "offset": 0,
        "slot": "56",
        "type": "t_uint256"
      },
      {
        "astId": 79284,
        "contract": "contracts/vault/OETHVaultAdmin.sol:OETHVaultAdmin",
        "label": "vaultBuffer",
        "offset": 0,
        "slot": "57",
        "type": "t_uint256"
      },
      {
        "astId": 79287,
        "contract": "contracts/vault/OETHVaultAdmin.sol:OETHVaultAdmin",
        "label": "autoAllocateThreshold",
        "offset": 0,
        "slot": "58",
        "type": "t_uint256"
      },
      {
        "astId": 79290,
        "contract": "contracts/vault/OETHVaultAdmin.sol:OETHVaultAdmin",
        "label": "rebaseThreshold",
        "offset": 0,
        "slot": "59",
        "type": "t_uint256"
      },
      {
        "astId": 79294,
        "contract": "contracts/vault/OETHVaultAdmin.sol:OETHVaultAdmin",
        "label": "oUSD",
        "offset": 0,
        "slot": "60",
        "type": "t_contract(OUSD)69402"
      },
      {
        "astId": 79305,
        "contract": "contracts/vault/OETHVaultAdmin.sol:OETHVaultAdmin",
        "label": "_deprecated_rebaseHooksAddr",
        "offset": 0,
        "slot": "61",
        "type": "t_address"
      },
      {
        "astId": 79312,
        "contract": "contracts/vault/OETHVaultAdmin.sol:OETHVaultAdmin",
        "label": "_deprecated_uniswapAddr",
        "offset": 0,
        "slot": "62",
        "type": "t_address"
      },
      {
        "astId": 79319,
        "contract": "contracts/vault/OETHVaultAdmin.sol:OETHVaultAdmin",
        "label": "strategistAddr",
        "offset": 0,
        "slot": "63",
        "type": "t_address"
      },
      {
        "astId": 79324,
        "contract": "contracts/vault/OETHVaultAdmin.sol:OETHVaultAdmin",
        "label": "assetDefaultStrategies",
        "offset": 0,
        "slot": "64",
        "type": "t_mapping(t_address,t_address)"
      },
      {
        "astId": 79327,
        "contract": "contracts/vault/OETHVaultAdmin.sol:OETHVaultAdmin",
        "label": "maxSupplyDiff",
        "offset": 0,
        "slot": "65",
        "type": "t_uint256"
      },
      {
        "astId": 79330,
        "contract": "contracts/vault/OETHVaultAdmin.sol:OETHVaultAdmin",
        "label": "trusteeAddress",
        "offset": 0,
        "slot": "66",
        "type": "t_address"
      },
      {
        "astId": 79333,
        "contract": "contracts/vault/OETHVaultAdmin.sol:OETHVaultAdmin",
        "label": "trusteeFeeBps",
        "offset": 0,
        "slot": "67",
        "type": "t_uint256"
      },
      {
        "astId": 79337,
        "contract": "contracts/vault/OETHVaultAdmin.sol:OETHVaultAdmin",
        "label": "_deprecated_swapTokens",
        "offset": 0,
        "slot": "68",
        "type": "t_array(t_address)dyn_storage"
      },
      {
        "astId": 79343,
        "contract": "contracts/vault/OETHVaultAdmin.sol:OETHVaultAdmin",
        "label": "ousdMetaStrategy",
        "offset": 0,
        "slot": "69",
        "type": "t_address"
      },
      {
        "astId": 79346,
        "contract": "contracts/vault/OETHVaultAdmin.sol:OETHVaultAdmin",
        "label": "netOusdMintedForStrategy",
        "offset": 0,
        "slot": "70",
        "type": "t_int256"
      },
      {
        "astId": 79349,
        "contract": "contracts/vault/OETHVaultAdmin.sol:OETHVaultAdmin",
        "label": "netOusdMintForStrategyThreshold",
        "offset": 0,
        "slot": "71",
        "type": "t_uint256"
      },
      {
        "astId": 79371,
        "contract": "contracts/vault/OETHVaultAdmin.sol:OETHVaultAdmin",
        "label": "swapConfig",
        "offset": 0,
        "slot": "72",
        "type": "t_struct(SwapConfig)79361_storage"
      },
      {
        "astId": 79375,
        "contract": "contracts/vault/OETHVaultAdmin.sol:OETHVaultAdmin",
        "label": "isMintWhitelistedStrategy",
        "offset": 0,
        "slot": "73",
        "type": "t_mapping(t_address,t_bool)"
      },
      {
        "astId": 79378,
        "contract": "contracts/vault/OETHVaultAdmin.sol:OETHVaultAdmin",
        "label": "_deprecated_dripper",
        "offset": 0,
        "slot": "74",
        "type": "t_address"
      },
      {
        "astId": 79392,
        "contract": "contracts/vault/OETHVaultAdmin.sol:OETHVaultAdmin",
        "label": "withdrawalQueueMetadata",
        "offset": 0,
        "slot": "75",
        "type": "t_struct(WithdrawalQueueMetadata)79388_storage"
      },
      {
        "astId": 79409,
        "contract": "contracts/vault/OETHVaultAdmin.sol:OETHVaultAdmin",
        "label": "withdrawalRequests",
        "offset": 0,
        "slot": "77",
        "type": "t_mapping(t_uint256,t_struct(WithdrawalRequest)79403_storage)"
      },
      {
        "astId": 79412,
        "contract": "contracts/vault/OETHVaultAdmin.sol:OETHVaultAdmin",
        "label": "withdrawalClaimDelay",
        "offset": 0,
        "slot": "78",
        "type": "t_uint256"
      },
      {
        "astId": 79415,
        "contract": "contracts/vault/OETHVaultAdmin.sol:OETHVaultAdmin",
        "label": "lastRebase",
        "offset": 0,
        "slot": "79",
        "type": "t_uint64"
      },
      {
        "astId": 79418,
        "contract": "contracts/vault/OETHVaultAdmin.sol:OETHVaultAdmin",
        "label": "dripDuration",
        "offset": 8,
        "slot": "79",
        "type": "t_uint64"
      },
      {
        "astId": 79421,
        "contract": "contracts/vault/OETHVaultAdmin.sol:OETHVaultAdmin",
        "label": "rebasePerSecondMax",
        "offset": 16,
        "slot": "79",
        "type": "t_uint64"
      },
      {
        "astId": 79424,
        "contract": "contracts/vault/OETHVaultAdmin.sol:OETHVaultAdmin",
        "label": "rebasePerSecondTarget",
        "offset": 24,
        "slot": "79",
        "type": "t_uint64"
      },
      {
        "astId": 79439,
        "contract": "contracts/vault/OETHVaultAdmin.sol:OETHVaultAdmin",
        "label": "__gap",
        "offset": 0,
        "slot": "80",
        "type": "t_array(t_uint256)43_storage"
      }
    ],
    "types": {
      "t_address": {
        "encoding": "inplace",
        "label": "address",
        "numberOfBytes": "20"
      },
      "t_array(t_address)dyn_storage": {
        "base": "t_address",
        "encoding": "dynamic_array",
        "label": "address[]",
        "numberOfBytes": "32"
      },
      "t_array(t_uint256)43_storage": {
        "base": "t_uint256",
        "encoding": "inplace",
        "label": "uint256[43]",
        "numberOfBytes": "1376"
      },
      "t_array(t_uint256)50_storage": {
        "base": "t_uint256",
        "encoding": "inplace",
        "label": "uint256[50]",
        "numberOfBytes": "1600"
      },
      "t_bool": {
        "encoding": "inplace",
        "label": "bool",
        "numberOfBytes": "1"
      },
      "t_contract(OUSD)69402": {
        "encoding": "inplace",
        "label": "contract OUSD",
        "numberOfBytes": "20"
      },
      "t_enum(UnitConversion)79234": {
        "encoding": "inplace",
        "label": "enum VaultStorage.UnitConversion",
        "numberOfBytes": "1"
      },
      "t_int256": {
        "encoding": "inplace",
        "label": "int256",
        "numberOfBytes": "32"
      },
      "t_mapping(t_address,t_address)": {
        "encoding": "mapping",
        "key": "t_address",
        "label": "mapping(address => address)",
        "numberOfBytes": "32",
        "value": "t_address"
      },
      "t_mapping(t_address,t_bool)": {
        "encoding": "mapping",
        "key": "t_address",
        "label": "mapping(address => bool)",
        "numberOfBytes": "32",
        "value": "t_bool"
      },
      "t_mapping(t_address,t_struct(Asset)79244_storage)": {
        "encoding": "mapping",
        "key": "t_address",
        "label": "mapping(address => struct VaultStorage.Asset)",
        "numberOfBytes": "32",
        "value": "t_struct(Asset)79244_storage"
      },
      "t_mapping(t_address,t_struct(Strategy)79259_storage)": {
        "encoding": "mapping",
        "key": "t_address",
        "label": "mapping(address => struct VaultStorage.Strategy)",
        "numberOfBytes": "32",
        "value": "t_struct(Strategy)79259_storage"
      },
      "t_mapping(t_uint256,t_struct(WithdrawalRequest)79403_storage)": {
        "encoding": "mapping",
        "key": "t_uint256",
        "label": "mapping(uint256 => struct VaultStorage.WithdrawalRequest)",
        "numberOfBytes": "32",
        "value": "t_struct(WithdrawalRequest)79403_storage"
      },
      "t_struct(Asset)79244_storage": {
        "encoding": "inplace",
        "label": "struct VaultStorage.Asset",
        "members": [
          {
            "astId": 79236,
            "contract": "contracts/vault/OETHVaultAdmin.sol:OETHVaultAdmin",
            "label": "isSupported",
            "offset": 0,
            "slot": "0",
            "type": "t_bool"
          },
          {
            "astId": 79239,
            "contract": "contracts/vault/OETHVaultAdmin.sol:OETHVaultAdmin",
            "label": "unitConversion",
            "offset": 1,
            "slot": "0",
            "type": "t_enum(UnitConversion)79234"
          },
          {
            "astId": 79241,
            "contract": "contracts/vault/OETHVaultAdmin.sol:OETHVaultAdmin",
            "label": "decimals",
            "offset": 2,
            "slot": "0",
            "type": "t_uint8"
          },
          {
            "astId": 79243,
            "contract": "contracts/vault/OETHVaultAdmin.sol:OETHVaultAdmin",
            "label": "allowedOracleSlippageBps",
            "offset": 3,
            "slot": "0",
            "type": "t_uint16"
          }
        ],
        "numberOfBytes": "32"
      },
      "t_struct(Strategy)79259_storage": {
        "encoding": "inplace",
        "label": "struct VaultStorage.Strategy",
        "members": [
          {
            "astId": 79256,
            "contract": "contracts/vault/OETHVaultAdmin.sol:OETHVaultAdmin",
            "label": "isSupported",
            "offset": 0,
            "slot": "0",
            "type": "t_bool"
          },
          {
            "astId": 79258,
            "contract": "contracts/vault/OETHVaultAdmin.sol:OETHVaultAdmin",
            "label": "_deprecated",
            "offset": 0,
            "slot": "1",
            "type": "t_uint256"
          }
        ],
        "numberOfBytes": "64"
      },
      "t_struct(SwapConfig)79361_storage": {
        "encoding": "inplace",
        "label": "struct VaultStorage.SwapConfig",
        "members": [
          {
            "astId": 79358,
            "contract": "contracts/vault/OETHVaultAdmin.sol:OETHVaultAdmin",
            "label": "swapper",
            "offset": 0,
            "slot": "0",
            "type": "t_address"
          },
          {
            "astId": 79360,
            "contract": "contracts/vault/OETHVaultAdmin.sol:OETHVaultAdmin",
            "label": "allowedUndervalueBps",
            "offset": 20,
            "slot": "0",
            "type": "t_uint16"
          }
        ],
        "numberOfBytes": "32"
      },
      "t_struct(WithdrawalQueueMetadata)79388_storage": {
        "encoding": "inplace",
        "label": "struct VaultStorage.WithdrawalQueueMetadata",
        "members": [
          {
            "astId": 79381,
            "contract": "contracts/vault/OETHVaultAdmin.sol:OETHVaultAdmin",
            "label": "queued",
            "offset": 0,
            "slot": "0",
            "type": "t_uint128"
          },
          {
            "astId": 79383,
            "contract": "contracts/vault/OETHVaultAdmin.sol:OETHVaultAdmin",
            "label": "claimable",
            "offset": 16,
            "slot": "0",
            "type": "t_uint128"
          },
          {
            "astId": 79385,
            "contract": "contracts/vault/OETHVaultAdmin.sol:OETHVaultAdmin",
            "label": "claimed",
            "offset": 0,
            "slot": "1",
            "type": "t_uint128"
          },
          {
            "astId": 79387,
            "contract": "contracts/vault/OETHVaultAdmin.sol:OETHVaultAdmin",
            "label": "nextWithdrawalIndex",
            "offset": 16,
            "slot": "1",
            "type": "t_uint128"
          }
        ],
        "numberOfBytes": "64"
      },
      "t_struct(WithdrawalRequest)79403_storage": {
        "encoding": "inplace",
        "label": "struct VaultStorage.WithdrawalRequest",
        "members": [
          {
            "astId": 79394,
            "contract": "contracts/vault/OETHVaultAdmin.sol:OETHVaultAdmin",
            "label": "withdrawer",
            "offset": 0,
            "slot": "0",
            "type": "t_address"
          },
          {
            "astId": 79396,
            "contract": "contracts/vault/OETHVaultAdmin.sol:OETHVaultAdmin",
            "label": "claimed",
            "offset": 20,
            "slot": "0",
            "type": "t_bool"
          },
          {
            "astId": 79398,
            "contract": "contracts/vault/OETHVaultAdmin.sol:OETHVaultAdmin",
            "label": "timestamp",
            "offset": 21,
            "slot": "0",
            "type": "t_uint40"
          },
          {
            "astId": 79400,
            "contract": "contracts/vault/OETHVaultAdmin.sol:OETHVaultAdmin",
            "label": "amount",
            "offset": 0,
            "slot": "1",
            "type": "t_uint128"
          },
          {
            "astId": 79402,
            "contract": "contracts/vault/OETHVaultAdmin.sol:OETHVaultAdmin",
            "label": "queued",
            "offset": 16,
            "slot": "1",
            "type": "t_uint128"
          }
        ],
        "numberOfBytes": "64"
      },
      "t_uint128": {
        "encoding": "inplace",
        "label": "uint128",
        "numberOfBytes": "16"
      },
      "t_uint16": {
        "encoding": "inplace",
        "label": "uint16",
        "numberOfBytes": "2"
      },
      "t_uint256": {
        "encoding": "inplace",
        "label": "uint256",
        "numberOfBytes": "32"
      },
      "t_uint40": {
        "encoding": "inplace",
        "label": "uint40",
        "numberOfBytes": "5"
      },
      "t_uint64": {
        "encoding": "inplace",
        "label": "uint64",
        "numberOfBytes": "8"
      },
      "t_uint8": {
        "encoding": "inplace",
        "label": "uint8",
        "numberOfBytes": "1"
      }
    }
  }
}