{
  "abi": [
    {
      "constant": true,
      "inputs": [],
      "name": "endBlock",
      "outputs": [
        {
          "internalType": "uint256",
          "name": "",
          "type": "uint256"
        }
      ],
      "payable": false,
      "stateMutability": "view",
      "type": "function"
    },
    {
      "constant": true,
      "inputs": [],
      "name": "governor",
      "outputs": [
        {
          "internalType": "address",
          "name": "",
          "type": "address"
        }
      ],
      "payable": false,
      "stateMutability": "view",
      "type": "function"
    },
    {
      "constant": true,
      "inputs": [],
      "name": "pool",
      "outputs": [
        {
          "internalType": "contract IERC20",
          "name": "lpToken",
          "type": "address"
        },
        {
          "internalType": "uint256",
          "name": "lastRewardBlock",
          "type": "uint256"
        },
        {
          "internalType": "uint256",
          "name": "accRewardPerShare",
          "type": "uint256"
        }
      ],
      "payable": false,
      "stateMutability": "view",
      "type": "function"
    },
    {
      "constant": false,
      "inputs": [],
      "name": "stopCampaign",
      "outputs": [],
      "payable": false,
      "stateMutability": "nonpayable",
      "type": "function"
    },
    {
      "constant": true,
      "inputs": [
        {
          "internalType": "address",
          "name": "",
          "type": "address"
        }
      ],
      "name": "userInfo",
      "outputs": [
        {
          "internalType": "uint256",
          "name": "amount",
          "type": "uint256"
        },
        {
          "internalType": "int256",
          "name": "rewardDebt",
          "type": "int256"
        }
      ],
      "payable": false,
      "stateMutability": "view",
      "type": "function"
    },
    {
      "constant": true,
      "inputs": [],
      "name": "reward",
      "outputs": [
        {
          "internalType": "contract IERC20",
          "name": "",
          "type": "address"
        }
      ],
      "payable": false,
      "stateMutability": "view",
      "type": "function"
    },
    {
      "constant": true,
      "inputs": [
        {
          "internalType": "address",
          "name": "_user",
          "type": "address"
        }
      ],
      "name": "pendingRewards",
      "outputs": [
        {
          "internalType": "uint256",
          "name": "",
          "type": "uint256"
        }
      ],
      "payable": false,
      "stateMutability": "view",
      "type": "function"
    },
    {
      "constant": false,
      "inputs": [
        {
          "internalType": "uint256",
          "name": "_amount",
          "type": "uint256"
        },
        {
          "internalType": "bool",
          "name": "claim",
          "type": "bool"
        }
      ],
      "name": "withdraw",
      "outputs": [],
      "payable": false,
      "stateMutability": "nonpayable",
      "type": "function"
    },
    {
      "constant": true,
      "inputs": [],
      "name": "REWARD_PRECISION",
      "outputs": [
        {
          "internalType": "uint256",
          "name": "",
          "type": "uint256"
        }
      ],
      "payable": false,
      "stateMutability": "view",
      "type": "function"
    },
    {
      "constant": false,
      "inputs": [
        {
          "internalType": "contract IERC20",
          "name": "_reward",
          "type": "address"
        },
        {
          "internalType": "contract IERC20",
          "name": "_lpToken",
          "type": "address"
        }
      ],
      "name": "initialize",
      "outputs": [],
      "payable": false,
      "stateMutability": "nonpayable",
      "type": "function"
    },
    {
      "constant": false,
      "inputs": [],
      "name": "claim",
      "outputs": [],
      "payable": false,
      "stateMutability": "nonpayable",
      "type": "function"
    },
    {
      "constant": true,
      "inputs": [],
      "name": "totalOutstandingRewards",
      "outputs": [
        {
          "internalType": "uint256",
          "name": "",
          "type": "uint256"
        }
      ],
      "payable": false,
      "stateMutability": "view",
      "type": "function"
    },
    {
      "constant": false,
      "inputs": [],
      "name": "claimGovernance",
      "outputs": [],
      "payable": false,
      "stateMutability": "nonpayable",
      "type": "function"
    },
    {
      "constant": true,
      "inputs": [],
      "name": "totalRewardDebt",
      "outputs": [
        {
          "internalType": "int256",
          "name": "",
          "type": "int256"
        }
      ],
      "payable": false,
      "stateMutability": "view",
      "type": "function"
    },
    {
      "constant": false,
      "inputs": [
        {
          "internalType": "uint256",
          "name": "_rewardPerBlock",
          "type": "uint256"
        },
        {
          "internalType": "uint256",
          "name": "_startBlock",
          "type": "uint256"
        },
        {
          "internalType": "uint256",
          "name": "_numBlocks",
          "type": "uint256"
        }
      ],
      "name": "startCampaign",
      "outputs": [],
      "payable": false,
      "stateMutability": "nonpayable",
      "type": "function"
    },
    {
      "constant": true,
      "inputs": [],
      "name": "rewardPerBlock",
      "outputs": [
        {
          "internalType": "uint256",
          "name": "",
          "type": "uint256"
        }
      ],
      "payable": false,
      "stateMutability": "view",
      "type": "function"
    },
    {
      "constant": false,
      "inputs": [
        {
          "internalType": "uint256",
          "name": "_amount",
          "type": "uint256"
        }
      ],
      "name": "deposit",
      "outputs": [],
      "payable": false,
      "stateMutability": "nonpayable",
      "type": "function"
    },
    {
      "constant": false,
      "inputs": [],
      "name": "doUpdatePool",
      "outputs": [],
      "payable": false,
      "stateMutability": "nonpayable",
      "type": "function"
    },
    {
      "constant": true,
      "inputs": [],
      "name": "isGovernor",
      "outputs": [
        {
          "internalType": "bool",
          "name": "",
          "type": "bool"
        }
      ],
      "payable": false,
      "stateMutability": "view",
      "type": "function"
    },
    {
      "constant": false,
      "inputs": [
        {
          "internalType": "address",
          "name": "_newGovernor",
          "type": "address"
        }
      ],
      "name": "transferGovernance",
      "outputs": [],
      "payable": false,
      "stateMutability": "nonpayable",
      "type": "function"
    },
    {
      "constant": false,
      "inputs": [],
      "name": "emergencyWithdraw",
      "outputs": [],
      "payable": false,
      "stateMutability": "nonpayable",
      "type": "function"
    },
    {
      "constant": true,
      "inputs": [],
      "name": "campaignActive",
      "outputs": [
        {
          "internalType": "bool",
          "name": "",
          "type": "bool"
        }
      ],
      "payable": false,
      "stateMutability": "view",
      "type": "function"
    },
    {
      "constant": false,
      "inputs": [],
      "name": "exit",
      "outputs": [],
      "payable": false,
      "stateMutability": "nonpayable",
      "type": "function"
    },
    {
      "anonymous": false,
      "inputs": [
        {
          "indexed": false,
          "internalType": "uint256",
          "name": "rewardRate",
          "type": "uint256"
        },
        {
          "indexed": false,
          "internalType": "uint256",
          "name": "startBlock",
          "type": "uint256"
        },
        {
          "indexed": false,
          "internalType": "uint256",
          "name": "endBlock",
          "type": "uint256"
        }
      ],
      "name": "CampaignStarted",
      "type": "event"
    },
    {
      "anonymous": false,
      "inputs": [
        {
          "indexed": false,
          "internalType": "uint256",
          "name": "endBlock",
          "type": "uint256"
        }
      ],
      "name": "CampaignStopped",
      "type": "event"
    },
    {
      "anonymous": false,
      "inputs": [
        {
          "indexed": true,
          "internalType": "address",
          "name": "user",
          "type": "address"
        },
        {
          "indexed": false,
          "internalType": "uint256",
          "name": "amount",
          "type": "uint256"
        }
      ],
      "name": "Deposit",
      "type": "event"
    },
    {
      "anonymous": false,
      "inputs": [
        {
          "indexed": true,
          "internalType": "address",
          "name": "user",
          "type": "address"
        },
        {
          "indexed": false,
          "internalType": "uint256",
          "name": "amount",
          "type": "uint256"
        }
      ],
      "name": "Withdraw",
      "type": "event"
    },
    {
      "anonymous": false,
      "inputs": [
        {
          "indexed": true,
          "internalType": "address",
          "name": "user",
          "type": "address"
        },
        {
          "indexed": false,
          "internalType": "uint256",
          "name": "amount",
          "type": "uint256"
        }
      ],
      "name": "Claim",
      "type": "event"
    },
    {
      "anonymous": false,
      "inputs": [
        {
          "indexed": true,
          "internalType": "address",
          "name": "user",
          "type": "address"
        },
        {
          "indexed": false,
          "internalType": "uint256",
          "name": "amount",
          "type": "uint256"
        }
      ],
      "name": "EmergencyWithdraw",
      "type": "event"
    },
    {
      "anonymous": false,
      "inputs": [
        {
          "indexed": true,
          "internalType": "address",
          "name": "previousGovernor",
          "type": "address"
        },
        {
          "indexed": true,
          "internalType": "address",
          "name": "newGovernor",
          "type": "address"
        }
      ],
      "name": "PendingGovernorshipTransfer",
      "type": "event"
    },
    {
      "anonymous": false,
      "inputs": [
        {
          "indexed": true,
          "internalType": "address",
          "name": "previousGovernor",
          "type": "address"
        },
        {
          "indexed": true,
          "internalType": "address",
          "name": "newGovernor",
          "type": "address"
        }
      ],
      "name": "GovernorshipTransferred",
      "type": "event"
    }
  ],
  "address": "0x4ff5d52119c220975D2f6B7CBdB6739c1E3975aD",
  "args": [],
  "solcInputHash": "0x0e66eca09991d158dd0b3fb638567bed14aa33de043be2483d1bb80fa5d4daf7",
  "bytecode": "0x60806040526100133361008060201b60201c565b6100216100af60201b60201c565b73ffffffffffffffffffffffffffffffffffffffff16600073ffffffffffffffffffffffffffffffffffffffff167fc7c0c772add429241571afb3805861fb3cfa2af374534088b76cdb4325a87e9a60405160405180910390a36100e0565b60007f7bea13895fa79d2831e0a9e28edede30099005a50d652d8957cf8a607ee6ca4a60001b90508181555050565b6000807f7bea13895fa79d2831e0a9e28edede30099005a50d652d8957cf8a607ee6ca4a60001b9050805491505090565b61265b80620000f06000396000f3fe608060405234801561001057600080fd5b506004361061014d5760003560e01c80634ec39c6b116100c3578063bdbe7bcc1161007c578063bdbe7bcc146104b7578063c7af3352146104c1578063d38bfff4146104e3578063db2e21bc14610527578063e8b89dd814610531578063e9fad8ee146105535761014d565b80634ec39c6b146103e35780635d36b1901461040157806383bb38771461040b57806384e66188146104295780638ae39cac1461046b578063b6b55f25146104895761014d565b8063228cb73311610115578063228cb7331461027b57806331d7a262146102c557806338d074361461031d5780633d6aa5e114610357578063485cc955146103755780634e71d92d146103d95761014d565b8063083c6323146101525780630c340a241461017057806316f0115b146101ba57806316f1bc22146102125780631959a0021461021c575b600080fd5b61015a61055d565b6040518082815260200191505060405180910390f35b610178610563565b604051808273ffffffffffffffffffffffffffffffffffffffff1673ffffffffffffffffffffffffffffffffffffffff16815260200191505060405180910390f35b6101c2610572565b604051808473ffffffffffffffffffffffffffffffffffffffff1673ffffffffffffffffffffffffffffffffffffffff168152602001838152602001828152602001935050505060405180910390f35b61021a6105aa565b005b61025e6004803603602081101561023257600080fd5b81019080803573ffffffffffffffffffffffffffffffffffffffff16906020019092919050505061066e565b604051808381526020018281526020019250505060405180910390f35b610283610692565b604051808273ffffffffffffffffffffffffffffffffffffffff1673ffffffffffffffffffffffffffffffffffffffff16815260200191505060405180910390f35b610307600480360360208110156102db57600080fd5b81019080803573ffffffffffffffffffffffffffffffffffffffff1690602001909291905050506106b8565b6040518082815260200191505060405180910390f35b6103556004803603604081101561033357600080fd5b810190808035906020019092919080351515906020019092919050505061070d565b005b61035f610760565b6040518082815260200191505060405180910390f35b6103d76004803603604081101561038b57600080fd5b81019080803573ffffffffffffffffffffffffffffffffffffffff169060200190929190803573ffffffffffffffffffffffffffffffffffffffff16906020019092919050505061076c565b005b6103e1610976565b005b6103eb610a97565b6040518082815260200191505060405180910390f35b610409610c1c565b005b610413610cb2565b6040518082815260200191505060405180910390f35b6104696004803603606081101561043f57600080fd5b81019080803590602001909291908035906020019092919080359060200190929190505050610cb8565b005b61047361114c565b6040518082815260200191505060405180910390f35b6104b56004803603602081101561049f57600080fd5b8101908080359060200190929190505050611152565b005b6104bf6112a9565b005b6104c96112b3565b604051808215151515815260200191505060405180910390f35b610525600480360360208110156104f957600080fd5b81019080803573ffffffffffffffffffffffffffffffffffffffff1690602001909291905050506112f0565b005b61052f6113d7565b005b6105396114d9565b604051808215151515815260200191505060405180910390f35b61055b6114e5565b005b603a5481565b600061056d61153b565b905090565b60358060000160009054906101000a900473ffffffffffffffffffffffffffffffffffffffff16908060010154908060020154905083565b6105b26112b3565b610624576040517f08c379a000000000000000000000000000000000000000000000000000000000815260040180806020018281038252601a8152602001807f43616c6c6572206973206e6f742074686520476f7665726e6f7200000000000081525060200191505060405180910390fd5b61062c61156c565b43603a819055507fe5a1604ff203dc76ea2a38c81e2ae18d95023f1ed66e4520e4f7f96e4c5daf28603a546040518082815260200191505060405180910390a1565b60396020528060005260406000206000915090508060000154908060010154905082565b603360009054906101000a900473ffffffffffffffffffffffffffffffffffffffff1681565b600080603960008473ffffffffffffffffffffffffffffffffffffffff1673ffffffffffffffffffffffffffffffffffffffff1681526020019081526020016000209050610705816116f4565b915050919050565b6000603960003373ffffffffffffffffffffffffffffffffffffffff1673ffffffffffffffffffffffffffffffffffffffff168152602001908152602001600020905061075b818484611873565b505050565b670de0b6b3a764000081565b6107746112b3565b6107e6576040517f08c379a000000000000000000000000000000000000000000000000000000000815260040180806020018281038252601a8152602001807f43616c6c6572206973206e6f742074686520476f7665726e6f7200000000000081525060200191505060405180910390fd5b600060019054906101000a900460ff16806108055750610804611ae2565b5b8061081c57506000809054906101000a900460ff16155b610871576040517f08c379a000000000000000000000000000000000000000000000000000000000815260040180806020018281038252602e81526020018061254d602e913960400191505060405180910390fd5b60008060019054906101000a900460ff1615905080156108c1576001600060016101000a81548160ff02191690831515021790555060016000806101000a81548160ff0219169083151502179055505b82603360006101000a81548173ffffffffffffffffffffffffffffffffffffffff021916908373ffffffffffffffffffffffffffffffffffffffff16021790555081603560000160006101000a81548173ffffffffffffffffffffffffffffffffffffffff021916908373ffffffffffffffffffffffffffffffffffffffff1602179055504360356001018190555080156109715760008060016101000a81548160ff0219169083151502179055505b505050565b6000603960003373ffffffffffffffffffffffffffffffffffffffff1673ffffffffffffffffffffffffffffffffffffffff168152602001908152602001600020905060006109c4826116f4565b90506000811115610a9357610a1c3382603360009054906101000a900473ffffffffffffffffffffffffffffffffffffffff1673ffffffffffffffffffffffffffffffffffffffff16611af99092919063ffffffff16565b3373ffffffffffffffffffffffffffffffffffffffff167f47cee97cb7acd717b3c0aa1435d004cd5b3c8c57d70dbceb4e4458bbd60e39d4826040518082815260200191505060405180910390a2600081905080836001016000828254019250508190555080603860008282540192505081905550505b5050565b600080603560000160009054906101000a900473ffffffffffffffffffffffffffffffffffffffff1673ffffffffffffffffffffffffffffffffffffffff166370a08231306040518263ffffffff1660e01b8152600401808273ffffffffffffffffffffffffffffffffffffffff1673ffffffffffffffffffffffffffffffffffffffff16815260200191505060206040518083038186803b158015610b3c57600080fd5b505afa158015610b50573d6000803e3d6000fd5b505050506040513d6020811015610b6657600080fd5b8101908080519060200190929190505050905060356001015443118015610b8e575060008114155b15610c13576000610b9e43611bca565b90506000610bb760345483611c1790919063ffffffff16565b905060006035600201549050610be8610bd98584611c9d90919063ffffffff16565b82611cd990919063ffffffff16565b9050610c08610c008583611d6190919063ffffffff16565b603854611d7e565b945050505050610c19565b60009150505b90565b610c24611da1565b73ffffffffffffffffffffffffffffffffffffffff163373ffffffffffffffffffffffffffffffffffffffff1614610ca7576040517f08c379a00000000000000000000000000000000000000000000000000000000081526004018080602001828103825260308152602001806125f76030913960400191505060405180910390fd5b610cb033611dd2565b565b60385481565b610cc06112b3565b610d32576040517f08c379a000000000000000000000000000000000000000000000000000000000815260040180806020018281038252601a8152602001807f43616c6c6572206973206e6f742074686520476f7665726e6f7200000000000081525060200191505060405180910390fd5b610d3a61156c565b6000603560000160009054906101000a900473ffffffffffffffffffffffffffffffffffffffff1673ffffffffffffffffffffffffffffffffffffffff166370a08231306040518263ffffffff1660e01b8152600401808273ffffffffffffffffffffffffffffffffffffffff1673ffffffffffffffffffffffffffffffffffffffff16815260200191505060206040518083038186803b158015610dde57600080fd5b505afa158015610df2573d6000803e3d6000fd5b505050506040513d6020811015610e0857600080fd5b810190808051906020019092919050505090506000610f1c610f14603560000160009054906101000a900473ffffffffffffffffffffffffffffffffffffffff1673ffffffffffffffffffffffffffffffffffffffff166370a08231306040518263ffffffff1660e01b8152600401808273ffffffffffffffffffffffffffffffffffffffff1673ffffffffffffffffffffffffffffffffffffffff16815260200191505060206040518083038186803b158015610ec557600080fd5b505afa158015610ed9573d6000803e3d6000fd5b505050506040513d6020811015610eef57600080fd5b8101908080519060200190929190505050603560020154611d6190919063ffffffff16565b603854611d7e565b9050610f4381610f358588611c1790919063ffffffff16565b611cd990919063ffffffff16565b603360009054906101000a900473ffffffffffffffffffffffffffffffffffffffff1673ffffffffffffffffffffffffffffffffffffffff166370a08231306040518263ffffffff1660e01b8152600401808273ffffffffffffffffffffffffffffffffffffffff1673ffffffffffffffffffffffffffffffffffffffff16815260200191505060206040518083038186803b158015610fe257600080fd5b505afa158015610ff6573d6000803e3d6000fd5b505050506040513d602081101561100c57600080fd5b81019080805190602001909291905050501015611074576040517f08c379a00000000000000000000000000000000000000000000000000000000081526004018080602001828103825260238152602001806125d46023913960400191505060405180910390fd5b60008490506000811415611086574390505b438110156110df576040517f08c379a000000000000000000000000000000000000000000000000000000000815260040180806020018281038252602f81526020018061257b602f913960400191505060405180910390fd5b838101603a8190555080603560010181905550856034819055507febf1de9a3812ad9812ce8f49a7be58ac0942a4d51620e4edbebbdad60a26a61c60345482603a5460405180848152602001838152602001828152602001935050505060405180910390a1505050505050565b60345481565b6000603960003373ffffffffffffffffffffffffffffffffffffffff1673ffffffffffffffffffffffffffffffffffffffff168152602001908152602001600020905061119d61156c565b6000821115611218576111f8333084603560000160009054906101000a900473ffffffffffffffffffffffffffffffffffffffff1673ffffffffffffffffffffffffffffffffffffffff16611ee2909392919063ffffffff16565b61120f828260000154611cd990919063ffffffff16565b81600001819055505b600061123260356002015484611d6190919063ffffffff16565b9050808260010160008282540192505081905550806038600082825401925050819055503373ffffffffffffffffffffffffffffffffffffffff167fe1fffcc4923d04b559f4d29a8bfc6cda04eb5b0d3c460751c2402c5c5cc9109c846040518082815260200191505060405180910390a2505050565b6112b161156c565b565b60006112bd61153b565b73ffffffffffffffffffffffffffffffffffffffff163373ffffffffffffffffffffffffffffffffffffffff1614905090565b6112f86112b3565b61136a576040517f08c379a000000000000000000000000000000000000000000000000000000000815260040180806020018281038252601a8152602001807f43616c6c6572206973206e6f742074686520476f7665726e6f7200000000000081525060200191505060405180910390fd5b61137381611fe8565b8073ffffffffffffffffffffffffffffffffffffffff1661139261153b565b73ffffffffffffffffffffffffffffffffffffffff167fa39cc5eb22d0f34d8beaefee8a3f17cc229c1a1d1ef87a5ad47313487b1c4f0d60405160405180910390a350565b6000603960003373ffffffffffffffffffffffffffffffffffffffff1673ffffffffffffffffffffffffffffffffffffffff168152602001908152602001600020905060008160000154905060008260000181905550600082600101819055506114873382603560000160009054906101000a900473ffffffffffffffffffffffffffffffffffffffff1673ffffffffffffffffffffffffffffffffffffffff16611af99092919063ffffffff16565b3373ffffffffffffffffffffffffffffffffffffffff167f5fafa99d0643513820be26656b45130b01e1c03062e1266bf36f88cbd3bd9695826040518082815260200191505060405180910390a25050565b600043603a5411905090565b6000603960003373ffffffffffffffffffffffffffffffffffffffff1673ffffffffffffffffffffffffffffffffffffffff16815260200190815260200160002090506115388182600001546001611873565b50565b6000807f7bea13895fa79d2831e0a9e28edede30099005a50d652d8957cf8a607ee6ca4a60001b9050805491505090565b603560010154431115806115875750603560010154603a5411155b15611591576116f2565b6000603560000160009054906101000a900473ffffffffffffffffffffffffffffffffffffffff1673ffffffffffffffffffffffffffffffffffffffff166370a08231306040518263ffffffff1660e01b8152600401808273ffffffffffffffffffffffffffffffffffffffff1673ffffffffffffffffffffffffffffffffffffffff16815260200191505060206040518083038186803b15801561163557600080fd5b505afa158015611649573d6000803e3d6000fd5b505050506040513d602081101561165f57600080fd5b81019080805190602001909291905050509050600081141561168b5743603560010181905550506116f2565b60006116aa60345461169c43611bca565b611c1790919063ffffffff16565b905060006116d86116c48484611c9d90919063ffffffff16565b603560020154611cd990919063ffffffff16565b905080603560020181905550436035600101819055505050505b565b6000806035600201549050603560010154431115611847576000603560000160009054906101000a900473ffffffffffffffffffffffffffffffffffffffff1673ffffffffffffffffffffffffffffffffffffffff166370a08231306040518263ffffffff1660e01b8152600401808273ffffffffffffffffffffffffffffffffffffffff1673ffffffffffffffffffffffffffffffffffffffff16815260200191505060206040518083038186803b1580156117b057600080fd5b505afa1580156117c4573d6000803e3d6000fd5b505050506040513d60208110156117da57600080fd5b810190808051906020019092919050505090506000811461184557600061180043611bca565b9050600061181960345483611c1790919063ffffffff16565b90506118406118318483611c9d90919063ffffffff16565b85611cd990919063ffffffff16565b935050505b505b61186b611861828560000154611d6190919063ffffffff16565b8460010154611d7e565b915050919050565b81836000015410156118ed576040517f08c379a00000000000000000000000000000000000000000000000000000000081526004018080602001828103825260128152602001807f77697468647261773a206f766572666c6f77000000000000000000000000000081525060200191505060405180910390fd5b6118f561156c565b600061190f60356002015484611d6190919063ffffffff16565b600003905081156119f357600061194561193b6035600201548760000154611d6190919063ffffffff16565b8660010154611d7e565b905060008111156119ec5761199d3382603360009054906101000a900473ffffffffffffffffffffffffffffffffffffffff1673ffffffffffffffffffffffffffffffffffffffff16611af99092919063ffffffff16565b3373ffffffffffffffffffffffffffffffffffffffff167f47cee97cb7acd717b3c0aa1435d004cd5b3c8c57d70dbceb4e4458bbd60e39d4826040518082815260200191505060405180910390a25b8082019150505b6000831115611a6c57611a1383856000015461201790919063ffffffff16565b8460000181905550611a6b3384603560000160009054906101000a900473ffffffffffffffffffffffffffffffffffffffff1673ffffffffffffffffffffffffffffffffffffffff16611af99092919063ffffffff16565b5b808460010160008282540192505081905550806038600082825401925050819055503373ffffffffffffffffffffffffffffffffffffffff167f884edad9ce6fa2440d8a54cc123490eb96d2768479d49ff9c7366125a9424364846040518082815260200191505060405180910390a250505050565b6000803090506000813b9050600081149250505090565b611bc5838473ffffffffffffffffffffffffffffffffffffffff1663a9059cbb905060e01b8484604051602401808373ffffffffffffffffffffffffffffffffffffffff1673ffffffffffffffffffffffffffffffffffffffff16815260200182815260200192505050604051602081830303815290604052907bffffffffffffffffffffffffffffffffffffffffffffffffffffffff19166020820180517bffffffffffffffffffffffffffffffffffffffffffffffffffffffff8381831617835250505050612061565b505050565b6000806035600101549050603a54811115611be9576000915050611c12565b611c0e81603a548510611bfe57603a54611c00565b845b61201790919063ffffffff16565b9150505b919050565b600080831415611c2a5760009050611c97565b6000828402905082848281611c3b57fe5b0414611c92576040517f08c379a000000000000000000000000000000000000000000000000000000000815260040180806020018281038252602181526020018061252c6021913960400191505060405180910390fd5b809150505b92915050565b600080611cbb670de0b6b3a764000085611c1790919063ffffffff16565b9050611cd083826122ac90919063ffffffff16565b91505092915050565b600080828401905083811015611d57576040517f08c379a000000000000000000000000000000000000000000000000000000000815260040180806020018281038252601b8152602001807f536166654d6174683a206164646974696f6e206f766572666c6f77000000000081525060200191505060405180910390fd5b8091505092915050565b6000611d768383670de0b6b3a76400006122f6565b905092915050565b600080821215611d95578160000383019050611d9b565b81830390505b92915050565b6000807f44c4d30b2eaad5130ad70c3ba6972730566f3e6359ab83e800d905c61b1c51db60001b9050805491505090565b600073ffffffffffffffffffffffffffffffffffffffff168173ffffffffffffffffffffffffffffffffffffffff161415611e75576040517f08c379a000000000000000000000000000000000000000000000000000000000815260040180806020018281038252601a8152602001807f4e657720476f7665726e6f72206973206164647265737328302900000000000081525060200191505060405180910390fd5b8073ffffffffffffffffffffffffffffffffffffffff16611e9461153b565b73ffffffffffffffffffffffffffffffffffffffff167fc7c0c772add429241571afb3805861fb3cfa2af374534088b76cdb4325a87e9a60405160405180910390a3611edf8161232b565b50565b611fe2848573ffffffffffffffffffffffffffffffffffffffff166323b872dd905060e01b858585604051602401808473ffffffffffffffffffffffffffffffffffffffff1673ffffffffffffffffffffffffffffffffffffffff1681526020018373ffffffffffffffffffffffffffffffffffffffff1673ffffffffffffffffffffffffffffffffffffffff1681526020018281526020019350505050604051602081830303815290604052907bffffffffffffffffffffffffffffffffffffffffffffffffffffffff19166020820180517bffffffffffffffffffffffffffffffffffffffffffffffffffffffff8381831617835250505050612061565b50505050565b60007f44c4d30b2eaad5130ad70c3ba6972730566f3e6359ab83e800d905c61b1c51db60001b90508181555050565b600061205983836040518060400160405280601e81526020017f536166654d6174683a207375627472616374696f6e206f766572666c6f77000081525061235a565b905092915050565b6120808273ffffffffffffffffffffffffffffffffffffffff1661241a565b6120f2576040517f08c379a000000000000000000000000000000000000000000000000000000000815260040180806020018281038252601f8152602001807f5361666545524332303a2063616c6c20746f206e6f6e2d636f6e74726163740081525060200191505060405180910390fd5b600060608373ffffffffffffffffffffffffffffffffffffffff16836040518082805190602001908083835b60208310612141578051825260208201915060208101905060208303925061211e565b6001836020036101000a0380198251168184511680821785525050505050509050019150506000604051808303816000865af19150503d80600081146121a3576040519150601f19603f3d011682016040523d82523d6000602084013e6121a8565b606091505b509150915081612220576040517f08c379a00000000000000000000000000000000000000000000000000000000081526004018080602001828103825260208152602001807f5361666545524332303a206c6f772d6c6576656c2063616c6c206661696c656481525060200191505060405180910390fd5b6000815111156122a65780806020019051602081101561223f57600080fd5b81019080805190602001909291905050506122a5576040517f08c379a000000000000000000000000000000000000000000000000000000000815260040180806020018281038252602a8152602001806125aa602a913960400191505060405180910390fd5b5b50505050565b60006122ee83836040518060400160405280601a81526020017f536166654d6174683a206469766973696f6e206279207a65726f000000000000815250612465565b905092915050565b60008061230c8486611c1790919063ffffffff16565b905061232183826122ac90919063ffffffff16565b9150509392505050565b60007f7bea13895fa79d2831e0a9e28edede30099005a50d652d8957cf8a607ee6ca4a60001b90508181555050565b6000838311158290612407576040517f08c379a00000000000000000000000000000000000000000000000000000000081526004018080602001828103825283818151815260200191508051906020019080838360005b838110156123cc5780820151818401526020810190506123b1565b50505050905090810190601f1680156123f95780820380516001836020036101000a031916815260200191505b509250505060405180910390fd5b5060008385039050809150509392505050565b60008060007fc5d2460186f7233c927e7db2dcc703c0e500b653ca82273b7bfad8045d85a47060001b9050833f915080821415801561245c57506000801b8214155b92505050919050565b60008083118290612511576040517f08c379a00000000000000000000000000000000000000000000000000000000081526004018080602001828103825283818151815260200191508051906020019080838360005b838110156124d65780820151818401526020810190506124bb565b50505050905090810190601f1680156125035780820380516001836020036101000a031916815260200191505b509250505060405180910390fd5b50600083858161251d57fe5b04905080915050939250505056fe536166654d6174683a206d756c7469706c69636174696f6e206f766572666c6f77436f6e747261637420696e7374616e63652068617320616c7265616479206265656e20696e697469616c697a6564737461727443616d706169676e3a205f7374617274426c6f636b2063616e277420626520696e2074686520706173745361666545524332303a204552433230206f7065726174696f6e20646964206e6f742073756363656564737461727443616d706169676e3a20696e73756666696369656e7420726577617264734f6e6c79207468652070656e64696e6720476f7665726e6f722063616e20636f6d706c6574652074686520636c61696da265627a7a72315820954483d2bbac5038d9c6b4bac512747b4fd9c002fa557a7b94bf7ac9f7616d1e64736f6c634300050b0032",
  "devdoc": {
    "methods": {
      "claim()": {
        "details": "Claim all pending rewards up to current block"
      },
      "claimGovernance()": {
        "details": "Claim Governance of the contract to a new account (`newGovernor`). Can only be called by the new Governor."
      },
      "deposit(uint256)": {
        "details": "Deposit LP tokens into contract, must be preapproved.",
        "params": {
          "_amount": "Amount of LPToken to deposit."
        }
      },
      "doUpdatePool()": {
        "details": "External call for updating the pool."
      },
      "emergencyWithdraw()": {
        "details": "Withdraw without caring about rewards. EMERGENCY ONLY.     No rewards will payed out!"
      },
      "exit()": {
        "details": "Exit out of the contract completely, withdraw LP tokens and claim rewards"
      },
      "governor()": {
        "details": "Returns the address of the current Governor."
      },
      "initialize(address,address)": {
        "params": {
          "_lpToken": "Address of the LP token(Uniswap Pair)",
          "_reward": "Address of the reward token(OGN)"
        }
      },
      "isGovernor()": {
        "details": "Returns true if the caller is the current Governor."
      },
      "pendingRewards(address)": {
        "details": "View function to see pending rewards for each account on frontend.",
        "params": {
          "_user": "Address of the account we're looking up."
        },
        "return": "reward Total rewards owed to this account."
      },
      "startCampaign(uint256,uint256,uint256)": {
        "details": "start a new reward campaign.     This will calculate all rewards up to the current block at the old rate.     This ensures that we pay everyone at the promised rate before update to the new rate.",
        "params": {
          "_numBlocks": "number of blocks that the campaign should last",
          "_rewardPerBlock": "Amount rewarded per block",
          "_startBlock": "Block number that we want to start the rewards at (0 for current block)"
        }
      },
      "totalOutstandingRewards()": {
        "details": "View function to see total outstanding rewards for the entire contract.     This is how much is owed when everyone pulls out.",
        "return": "reward Total rewards owed to everyone."
      },
      "transferGovernance(address)": {
        "details": "Transfers Governance of the contract to a new account (`newGovernor`). Can only be called by the current Governor. Must be claimed for this to complete",
        "params": {
          "_newGovernor": "Address of the new Governor"
        }
      },
      "withdraw(uint256,bool)": {
        "details": "Withdraw LP tokens from contract.",
        "params": {
          "_amount": "Amount of LPToken to withdraw.",
          "claim": "Boolean do we want to claim our rewards or not"
        }
      }
    }
  },
  "userdoc": {
    "methods": {
      "initialize(address,address)": {
        "notice": "Initializer for setting up Liquidity Reward internal state. "
      }
    }
  },
  "gasEstimates": {
    "creation": {
      "codeDepositCost": "1963800",
      "executionCost": "infinite",
      "totalCost": "infinite"
    },
    "external": {
      "REWARD_PRECISION()": "294",
      "campaignActive()": "540",
      "claim()": "infinite",
      "claimGovernance()": "infinite",
      "deposit(uint256)": "infinite",
      "doUpdatePool()": "infinite",
      "emergencyWithdraw()": "infinite",
      "endBlock()": "429",
      "exit()": "infinite",
      "governor()": "525",
      "initialize(address,address)": "infinite",
      "isGovernor()": "540",
      "pendingRewards(address)": "infinite",
      "pool()": "999",
      "reward()": "476",
      "rewardPerBlock()": "516",
      "startCampaign(uint256,uint256,uint256)": "infinite",
      "stopCampaign()": "infinite",
      "totalOutstandingRewards()": "infinite",
      "totalRewardDebt()": "472",
      "transferGovernance(address)": "infinite",
      "userInfo(address)": "927",
      "withdraw(uint256,bool)": "infinite"
    },
    "internal": {
      "_pendingRewards(struct LiquidityReward.UserInfo storage pointer)": "infinite",
      "_withdraw(struct LiquidityReward.UserInfo storage pointer,uint256,bool)": "infinite",
      "getCampaignMultiplier(uint256)": "infinite",
      "subDebt(uint256,int256)": "79",
      "updatePool()": "infinite"
    }
  }
}