{
  "abi": [
    {
      "constant": true,
      "inputs": [],
      "name": "hasSynced",
      "outputs": [
        {
          "internalType": "bool",
          "name": "",
          "type": "bool"
        }
      ],
      "payable": false,
      "stateMutability": "view",
      "type": "function"
    },
    {
      "constant": true,
      "inputs": [],
      "name": "getReserves",
      "outputs": [
        {
          "internalType": "uint112",
          "name": "",
          "type": "uint112"
        },
        {
          "internalType": "uint112",
          "name": "",
          "type": "uint112"
        },
        {
          "internalType": "uint32",
          "name": "",
          "type": "uint32"
        }
      ],
      "payable": false,
      "stateMutability": "view",
      "type": "function"
    },
    {
      "constant": true,
      "inputs": [],
      "name": "token0",
      "outputs": [
        {
          "internalType": "address",
          "name": "",
          "type": "address"
        }
      ],
      "payable": false,
      "stateMutability": "view",
      "type": "function"
    },
    {
      "constant": true,
      "inputs": [],
      "name": "checkHasSynced",
      "outputs": [],
      "payable": false,
      "stateMutability": "view",
      "type": "function"
    },
    {
      "constant": true,
      "inputs": [],
      "name": "price0CumulativeLast",
      "outputs": [
        {
          "internalType": "uint256",
          "name": "",
          "type": "uint256"
        }
      ],
      "payable": false,
      "stateMutability": "view",
      "type": "function"
    },
    {
      "constant": true,
      "inputs": [],
      "name": "price1CumulativeLast",
      "outputs": [
        {
          "internalType": "uint256",
          "name": "",
          "type": "uint256"
        }
      ],
      "payable": false,
      "stateMutability": "view",
      "type": "function"
    },
    {
      "constant": false,
      "inputs": [
        {
          "internalType": "uint112",
          "name": "_reserve0",
          "type": "uint112"
        },
        {
          "internalType": "uint112",
          "name": "_reserve1",
          "type": "uint112"
        }
      ],
      "name": "setReserves",
      "outputs": [],
      "payable": false,
      "stateMutability": "nonpayable",
      "type": "function"
    },
    {
      "constant": true,
      "inputs": [],
      "name": "token1",
      "outputs": [
        {
          "internalType": "address",
          "name": "",
          "type": "address"
        }
      ],
      "payable": false,
      "stateMutability": "view",
      "type": "function"
    },
    {
      "constant": false,
      "inputs": [],
      "name": "sync",
      "outputs": [],
      "payable": false,
      "stateMutability": "nonpayable",
      "type": "function"
    },
    {
      "inputs": [
        {
          "internalType": "address",
          "name": "_token0",
          "type": "address"
        },
        {
          "internalType": "address",
          "name": "_token1",
          "type": "address"
        },
        {
          "internalType": "uint112",
          "name": "_reserve0",
          "type": "uint112"
        },
        {
          "internalType": "uint112",
          "name": "_reserve1",
          "type": "uint112"
        }
      ],
      "payable": false,
      "stateMutability": "nonpayable",
      "type": "constructor"
    }
  ],
  "address": "0xb9c58cb14Ca8a718b0E8eFfD8dCEc6f02531590d",
  "args": [
    "0xaB5E7B701B605f74AaC1b749Fd50715f0DEd7Bc5",
    "0xa9A605405144619e8229645FF4Ce1F53A74A69Bb",
    "100000000",
    "1000000000000000000"
  ],
  "solcInputHash": "0x0e66eca09991d158dd0b3fb638567bed14aa33de043be2483d1bb80fa5d4daf7",
  "bytecode": "0x60806040526000600460006101000a81548160ff02191690831515021790555034801561002b57600080fd5b506040516108293803806108298339818101604052608081101561004e57600080fd5b8101908080519060200190929190805190602001909291908051906020019092919080519060200190929190505050836000806101000a81548173ffffffffffffffffffffffffffffffffffffffff021916908373ffffffffffffffffffffffffffffffffffffffff16021790555082600160006101000a81548173ffffffffffffffffffffffffffffffffffffffff021916908373ffffffffffffffffffffffffffffffffffffffff16021790555081600260006101000a8154816dffffffffffffffffffffffffffff02191690836dffffffffffffffffffffffffffff160217905550806002600e6101000a8154816dffffffffffffffffffffffffffff02191690836dffffffffffffffffffffffffffff16021790555042600381905550505050506106a7806101826000396000f3fe608060405234801561001057600080fd5b50600436106100935760003560e01c80635909c0d5116100665780635909c0d5146101865780635a3d5493146101a457806375ea5f2e146101c2578063d21220a71461021a578063fff6cae91461026457610093565b806303be259f146100985780630902f1ac146100ba5780630dfe168114610132578063489dfcc21461017c575b600080fd5b6100a061026e565b604051808215151515815260200191505060405180910390f35b6100c2610281565b60405180846dffffffffffffffffffffffffffff166dffffffffffffffffffffffffffff168152602001836dffffffffffffffffffffffffffff166dffffffffffffffffffffffffffff1681526020018263ffffffff1663ffffffff168152602001935050505060405180910390f35b61013a6102ce565b604051808273ffffffffffffffffffffffffffffffffffffffff1673ffffffffffffffffffffffffffffffffffffffff16815260200191505060405180910390f35b6101846102f7565b005b61018e61037b565b6040518082815260200191505060405180910390f35b6101ac6103ea565b6040518082815260200191505060405180910390f35b610218600480360360408110156101d857600080fd5b8101908080356dffffffffffffffffffffffffffff16906020019092919080356dffffffffffffffffffffffffffff169060200190929190505050610459565b005b6102226104ce565b604051808273ffffffffffffffffffffffffffffffffffffffff1673ffffffffffffffffffffffffffffffffffffffff16815260200191505060405180910390f35b61026c6104f8565b005b600460009054906101000a900460ff1681565b6000806000600260009054906101000a90046dffffffffffffffffffffffffffff166002600e9054906101000a90046dffffffffffffffffffffffffffff16600354925092509250909192565b60008060009054906101000a900473ffffffffffffffffffffffffffffffffffffffff16905090565b600460009054906101000a900460ff16610379576040517f08c379a000000000000000000000000000000000000000000000000000000000815260040180806020018281038252600a8152602001807f4e6f742073796e6365640000000000000000000000000000000000000000000081525060200191505060405180910390fd5b565b60006003546103c26002600e9054906101000a90046dffffffffffffffffffffffffffff16600260009054906101000a90046dffffffffffffffffffffffffffff16610515565b600001517bffffffffffffffffffffffffffffffffffffffffffffffffffffffff1602905090565b6000600354610431600260009054906101000a90046dffffffffffffffffffffffffffff166002600e9054906101000a90046dffffffffffffffffffffffffffff16610515565b600001517bffffffffffffffffffffffffffffffffffffffffffffffffffffffff1602905090565b81600260006101000a8154816dffffffffffffffffffffffffffff02191690836dffffffffffffffffffffffffffff160217905550806002600e6101000a8154816dffffffffffffffffffffffffffff02191690836dffffffffffffffffffffffffffff160217905550426003819055505050565b6000600160009054906101000a900473ffffffffffffffffffffffffffffffffffffffff16905090565b6001600460006101000a81548160ff021916908315150217905550565b61051d610641565b6000826dffffffffffffffffffffffffffff16116105a3576040517f08c379a00000000000000000000000000000000000000000000000000000000081526004018080602001828103825260178152602001807f4669786564506f696e743a204449565f42595f5a45524f00000000000000000081525060200191505060405180910390fd5b6040518060200160405280836dffffffffffffffffffffffffffff166070866dffffffffffffffffffffffffffff167bffffffffffffffffffffffffffffffffffffffffffffffffffffffff16901b7bffffffffffffffffffffffffffffffffffffffffffffffffffffffff168161061757fe5b047bffffffffffffffffffffffffffffffffffffffffffffffffffffffff16815250905092915050565b604051806020016040528060007bffffffffffffffffffffffffffffffffffffffffffffffffffffffff168152509056fea265627a7a723158205aac1f175734952165a28e3fd60d59c5ee01742736395d5b93679bd69ffe9cd764736f6c634300050b0032",
  "devdoc": {
    "methods": {}
  },
  "userdoc": {
    "methods": {}
  },
  "gasEstimates": {
    "creation": {
      "codeDepositCost": "340600",
      "executionCost": "infinite",
      "totalCost": "infinite"
    },
    "external": {
      "checkHasSynced()": "577",
      "getReserves()": "1062",
      "hasSynced()": "454",
      "price0CumulativeLast()": "1202",
      "price1CumulativeLast()": "1224",
      "setReserves(uint112,uint112)": "60910",
      "sync()": "20499",
      "token0()": "506",
      "token1()": "527"
    }
  }
}