{
  "abi": [
    {
      "constant": true,
      "inputs": [],
      "name": "depositPaused",
      "outputs": [
        {
          "internalType": "bool",
          "name": "",
          "type": "bool"
        }
      ],
      "payable": false,
      "stateMutability": "view",
      "type": "function"
    },
    {
      "constant": false,
      "inputs": [
        {
          "internalType": "address[]",
          "name": "_assets",
          "type": "address[]"
        },
        {
          "internalType": "uint256[]",
          "name": "_amounts",
          "type": "uint256[]"
        }
      ],
      "name": "mintMultiple",
      "outputs": [],
      "payable": false,
      "stateMutability": "nonpayable",
      "type": "function"
    },
    {
      "constant": true,
      "inputs": [],
      "name": "redeemFeeBps",
      "outputs": [
        {
          "internalType": "uint256",
          "name": "",
          "type": "uint256"
        }
      ],
      "payable": false,
      "stateMutability": "view",
      "type": "function"
    },
    {
      "constant": true,
      "inputs": [],
      "name": "governor",
      "outputs": [
        {
          "internalType": "address",
          "name": "",
          "type": "address"
        }
      ],
      "payable": false,
      "stateMutability": "view",
      "type": "function"
    },
    {
      "constant": true,
      "inputs": [],
      "name": "uniswapAddr",
      "outputs": [
        {
          "internalType": "address",
          "name": "",
          "type": "address"
        }
      ],
      "payable": false,
      "stateMutability": "view",
      "type": "function"
    },
    {
      "constant": true,
      "inputs": [],
      "name": "vaultBuffer",
      "outputs": [
        {
          "internalType": "uint256",
          "name": "",
          "type": "uint256"
        }
      ],
      "payable": false,
      "stateMutability": "view",
      "type": "function"
    },
    {
      "constant": true,
      "inputs": [],
      "name": "getAllAssets",
      "outputs": [
        {
          "internalType": "address[]",
          "name": "",
          "type": "address[]"
        }
      ],
      "payable": false,
      "stateMutability": "view",
      "type": "function"
    },
    {
      "constant": false,
      "inputs": [],
      "name": "redeemAll",
      "outputs": [],
      "payable": false,
      "stateMutability": "nonpayable",
      "type": "function"
    },
    {
      "constant": true,
      "inputs": [],
      "name": "getStrategyCount",
      "outputs": [
        {
          "internalType": "uint256",
          "name": "",
          "type": "uint256"
        }
      ],
      "payable": false,
      "stateMutability": "view",
      "type": "function"
    },
    {
      "constant": false,
      "inputs": [
        {
          "internalType": "address",
          "name": "_asset",
          "type": "address"
        },
        {
          "internalType": "uint256",
          "name": "_amount",
          "type": "uint256"
        }
      ],
      "name": "mint",
      "outputs": [],
      "payable": false,
      "stateMutability": "nonpayable",
      "type": "function"
    },
    {
      "constant": false,
      "inputs": [
        {
          "internalType": "address",
          "name": "_priceProvider",
          "type": "address"
        },
        {
          "internalType": "address",
          "name": "_ousd",
          "type": "address"
        }
      ],
      "name": "initialize",
      "outputs": [],
      "payable": false,
      "stateMutability": "nonpayable",
      "type": "function"
    },
    {
      "constant": true,
      "inputs": [],
      "name": "rebaseThreshold",
      "outputs": [
        {
          "internalType": "uint256",
          "name": "",
          "type": "uint256"
        }
      ],
      "payable": false,
      "stateMutability": "view",
      "type": "function"
    },
    {
      "constant": true,
      "inputs": [],
      "name": "rebasePaused",
      "outputs": [
        {
          "internalType": "bool",
          "name": "",
          "type": "bool"
        }
      ],
      "payable": false,
      "stateMutability": "view",
      "type": "function"
    },
    {
      "constant": false,
      "inputs": [],
      "name": "claimGovernance",
      "outputs": [],
      "payable": false,
      "stateMutability": "nonpayable",
      "type": "function"
    },
    {
      "constant": true,
      "inputs": [
        {
          "internalType": "address",
          "name": "_asset",
          "type": "address"
        }
      ],
      "name": "checkBalance",
      "outputs": [
        {
          "internalType": "uint256",
          "name": "",
          "type": "uint256"
        }
      ],
      "payable": false,
      "stateMutability": "view",
      "type": "function"
    },
    {
      "constant": false,
      "inputs": [
        {
          "internalType": "uint256",
          "name": "_amount",
          "type": "uint256"
        }
      ],
      "name": "calculateRedeemOutputs",
      "outputs": [
        {
          "internalType": "uint256[]",
          "name": "",
          "type": "uint256[]"
        }
      ],
      "payable": false,
      "stateMutability": "nonpayable",
      "type": "function"
    },
    {
      "constant": true,
      "inputs": [],
      "name": "rebaseHooksAddr",
      "outputs": [
        {
          "internalType": "address",
          "name": "",
          "type": "address"
        }
      ],
      "payable": false,
      "stateMutability": "view",
      "type": "function"
    },
    {
      "constant": true,
      "inputs": [
        {
          "internalType": "address",
          "name": "_asset",
          "type": "address"
        }
      ],
      "name": "isSupportedAsset",
      "outputs": [
        {
          "internalType": "bool",
          "name": "",
          "type": "bool"
        }
      ],
      "payable": false,
      "stateMutability": "view",
      "type": "function"
    },
    {
      "constant": true,
      "inputs": [],
      "name": "autoAllocateThreshold",
      "outputs": [
        {
          "internalType": "uint256",
          "name": "",
          "type": "uint256"
        }
      ],
      "payable": false,
      "stateMutability": "view",
      "type": "function"
    },
    {
      "constant": true,
      "inputs": [],
      "name": "getAssetCount",
      "outputs": [
        {
          "internalType": "uint256",
          "name": "",
          "type": "uint256"
        }
      ],
      "payable": false,
      "stateMutability": "view",
      "type": "function"
    },
    {
      "constant": false,
      "inputs": [],
      "name": "allocate",
      "outputs": [],
      "payable": false,
      "stateMutability": "nonpayable",
      "type": "function"
    },
    {
      "constant": false,
      "inputs": [],
      "name": "rebase",
      "outputs": [
        {
          "internalType": "uint256",
          "name": "",
          "type": "uint256"
        }
      ],
      "payable": false,
      "stateMutability": "nonpayable",
      "type": "function"
    },
    {
      "constant": true,
      "inputs": [],
      "name": "priceProvider",
      "outputs": [
        {
          "internalType": "address",
          "name": "",
          "type": "address"
        }
      ],
      "payable": false,
      "stateMutability": "view",
      "type": "function"
    },
    {
      "constant": false,
      "inputs": [
        {
          "internalType": "uint256",
          "name": "_totalValue",
          "type": "uint256"
        }
      ],
      "name": "setTotalValue",
      "outputs": [],
      "payable": false,
      "stateMutability": "nonpayable",
      "type": "function"
    },
    {
      "constant": true,
      "inputs": [],
      "name": "isGovernor",
      "outputs": [
        {
          "internalType": "bool",
          "name": "",
          "type": "bool"
        }
      ],
      "payable": false,
      "stateMutability": "view",
      "type": "function"
    },
    {
      "constant": false,
      "inputs": [
        {
          "internalType": "address",
          "name": "_newGovernor",
          "type": "address"
        }
      ],
      "name": "transferGovernance",
      "outputs": [],
      "payable": false,
      "stateMutability": "nonpayable",
      "type": "function"
    },
    {
      "constant": true,
      "inputs": [],
      "name": "totalValue",
      "outputs": [
        {
          "internalType": "uint256",
          "name": "",
          "type": "uint256"
        }
      ],
      "payable": false,
      "stateMutability": "view",
      "type": "function"
    },
    {
      "constant": false,
      "inputs": [
        {
          "internalType": "uint256",
          "name": "_amount",
          "type": "uint256"
        }
      ],
      "name": "redeem",
      "outputs": [],
      "payable": false,
      "stateMutability": "nonpayable",
      "type": "function"
    },
    {
      "constant": false,
      "inputs": [
        {
          "internalType": "address",
          "name": "newImpl",
          "type": "address"
        }
      ],
      "name": "setAdminImpl",
      "outputs": [],
      "payable": false,
      "stateMutability": "nonpayable",
      "type": "function"
    },
    {
      "payable": true,
      "stateMutability": "payable",
      "type": "fallback"
    },
    {
      "anonymous": false,
      "inputs": [
        {
          "indexed": false,
          "internalType": "address",
          "name": "_asset",
          "type": "address"
        }
      ],
      "name": "AssetSupported",
      "type": "event"
    },
    {
      "anonymous": false,
      "inputs": [
        {
          "indexed": false,
          "internalType": "address",
          "name": "_addr",
          "type": "address"
        }
      ],
      "name": "StrategyAdded",
      "type": "event"
    },
    {
      "anonymous": false,
      "inputs": [
        {
          "indexed": false,
          "internalType": "address",
          "name": "_addr",
          "type": "address"
        }
      ],
      "name": "StrategyRemoved",
      "type": "event"
    },
    {
      "anonymous": false,
      "inputs": [
        {
          "indexed": false,
          "internalType": "address",
          "name": "_addr",
          "type": "address"
        },
        {
          "indexed": false,
          "internalType": "uint256",
          "name": "_value",
          "type": "uint256"
        }
      ],
      "name": "Mint",
      "type": "event"
    },
    {
      "anonymous": false,
      "inputs": [
        {
          "indexed": false,
          "internalType": "address",
          "name": "_addr",
          "type": "address"
        },
        {
          "indexed": false,
          "internalType": "uint256",
          "name": "_value",
          "type": "uint256"
        }
      ],
      "name": "Redeem",
      "type": "event"
    },
    {
      "anonymous": false,
      "inputs": [
        {
          "indexed": false,
          "internalType": "address[]",
          "name": "_strategyAddresses",
          "type": "address[]"
        },
        {
          "indexed": false,
          "internalType": "uint256[]",
          "name": "weights",
          "type": "uint256[]"
        }
      ],
      "name": "StrategyWeightsUpdated",
      "type": "event"
    },
    {
      "anonymous": false,
      "inputs": [],
      "name": "DepositsPaused",
      "type": "event"
    },
    {
      "anonymous": false,
      "inputs": [],
      "name": "DepositsUnpaused",
      "type": "event"
    },
    {
      "anonymous": false,
      "inputs": [
        {
          "indexed": true,
          "internalType": "address",
          "name": "previousGovernor",
          "type": "address"
        },
        {
          "indexed": true,
          "internalType": "address",
          "name": "newGovernor",
          "type": "address"
        }
      ],
      "name": "PendingGovernorshipTransfer",
      "type": "event"
    },
    {
      "anonymous": false,
      "inputs": [
        {
          "indexed": true,
          "internalType": "address",
          "name": "previousGovernor",
          "type": "address"
        },
        {
          "indexed": true,
          "internalType": "address",
          "name": "newGovernor",
          "type": "address"
        }
      ],
      "name": "GovernorshipTransferred",
      "type": "event"
    }
  ],
  "address": "0x1ecD6E14f609D8B24b670fd92f06A03e98D64Ca8",
  "args": [],
  "solcInputHash": "0x0e66eca09991d158dd0b3fb638567bed14aa33de043be2483d1bb80fa5d4daf7",
  "bytecode": "0x60806040526000603760146101000a81548160ff0219169083151502179055506001603760156101000a81548160ff0219169083151502179055506000603d60006101000a81548173ffffffffffffffffffffffffffffffffffffffff021916908373ffffffffffffffffffffffffffffffffffffffff1602179055506000603e60006101000a81548173ffffffffffffffffffffffffffffffffffffffff021916908373ffffffffffffffffffffffffffffffffffffffff160217905550620000cf336200013f60201b60201c565b620000df6200016e60201b60201c565b73ffffffffffffffffffffffffffffffffffffffff16600073ffffffffffffffffffffffffffffffffffffffff167fc7c0c772add429241571afb3805861fb3cfa2af374534088b76cdb4325a87e9a60405160405180910390a36200019f565b60007f7bea13895fa79d2831e0a9e28edede30099005a50d652d8957cf8a607ee6ca4a60001b90508181555050565b6000807f7bea13895fa79d2831e0a9e28edede30099005a50d652d8957cf8a607ee6ca4a60001b9050805491505090565b61501c80620001af6000396000f3fe6080604052600436106101c25760003560e01c80635f515226116100f7578063af14052c11610095578063d38bfff411610064578063d38bfff414610918578063d4c3eea014610969578063db006a7514610994578063fc0cfeee146109cf576101c2565b8063af14052c1461082c578063b888879e14610857578063c5dbc900146108ae578063c7af3352146108e9576101c2565b80639be918e6116100d15780639be918e6146107565780639fa1826e146107bf578063a0aead4d146107ea578063abaa991614610815576101c2565b80635f5152261461060a57806367bd7ba31461066f578063796be57b146106ff576101c2565b80632f4350c211610164578063485cc9551161013e578063485cc9551461052857806352d38e5d1461059957806353ca9f24146105c45780635d36b190146105f3576101c2565b80632f4350c21461048b57806331e19cfa146104a257806340c10f19146104cd576101c2565b80630c340a24116101a05780630c340a2414610346578063128a8b051461039d5780631edfe3da146103f45780632acada4d1461041f576101c2565b806302befd241461021157806307ea54771461024057806309f6442c1461031b575b60007fa2bd3d3cf188a41358c8b401076eb59066b09dec5775650c0de4c55187d17bd960001b9050366000803760008036600084545af43d6000803e806000811461020c573d6000f35b3d6000fd5b34801561021d57600080fd5b50610226610a20565b604051808215151515815260200191505060405180910390f35b34801561024c57600080fd5b506103196004803603604081101561026357600080fd5b810190808035906020019064010000000081111561028057600080fd5b82018360208201111561029257600080fd5b803590602001918460208302840111640100000000831117156102b457600080fd5b9091929391929390803590602001906401000000008111156102d557600080fd5b8201836020820111156102e757600080fd5b8035906020019184602083028401116401000000008311171561030957600080fd5b9091929391929390505050610a33565b005b34801561032757600080fd5b50610330610edd565b6040518082815260200191505060405180910390f35b34801561035257600080fd5b5061035b610ee3565b604051808273ffffffffffffffffffffffffffffffffffffffff1673ffffffffffffffffffffffffffffffffffffffff16815260200191505060405180910390f35b3480156103a957600080fd5b506103b2610ef2565b604051808273ffffffffffffffffffffffffffffffffffffffff1673ffffffffffffffffffffffffffffffffffffffff16815260200191505060405180910390f35b34801561040057600080fd5b50610409610f18565b6040518082815260200191505060405180910390f35b34801561042b57600080fd5b50610434610f1e565b6040518080602001828103825283818151815260200191508051906020019060200280838360005b8381101561047757808201518184015260208101905061045c565b505050509050019250505060405180910390f35b34801561049757600080fd5b506104a0610fac565b005b3480156104ae57600080fd5b506104b7611198565b6040518082815260200191505060405180910390f35b3480156104d957600080fd5b50610526600480360360408110156104f057600080fd5b81019080803573ffffffffffffffffffffffffffffffffffffffff169060200190929190803590602001909291905050506111a5565b005b34801561053457600080fd5b506105976004803603604081101561054b57600080fd5b81019080803573ffffffffffffffffffffffffffffffffffffffff169060200190929190803573ffffffffffffffffffffffffffffffffffffffff169060200190929190505050611672565b005b3480156105a557600080fd5b506105ae611a1c565b6040518082815260200191505060405180910390f35b3480156105d057600080fd5b506105d9611a22565b604051808215151515815260200191505060405180910390f35b3480156105ff57600080fd5b50610608611a35565b005b34801561061657600080fd5b506106596004803603602081101561062d57600080fd5b81019080803573ffffffffffffffffffffffffffffffffffffffff169060200190929190505050611acb565b6040518082815260200191505060405180910390f35b34801561067b57600080fd5b506106a86004803603602081101561069257600080fd5b8101908080359060200190929190505050611add565b6040518080602001828103825283818151815260200191508051906020019060200280838360005b838110156106eb5780820151818401526020810190506106d0565b505050509050019250505060405180910390f35b34801561070b57600080fd5b50610714611aef565b604051808273ffffffffffffffffffffffffffffffffffffffff1673ffffffffffffffffffffffffffffffffffffffff16815260200191505060405180910390f35b34801561076257600080fd5b506107a56004803603602081101561077957600080fd5b81019080803573ffffffffffffffffffffffffffffffffffffffff169060200190929190505050611b15565b604051808215151515815260200191505060405180910390f35b3480156107cb57600080fd5b506107d4611b6e565b6040518082815260200191505060405180910390f35b3480156107f657600080fd5b506107ff611b74565b6040518082815260200191505060405180910390f35b34801561082157600080fd5b5061082a611b81565b005b34801561083857600080fd5b50610841611b8b565b6040518082815260200191505060405180910390f35b34801561086357600080fd5b5061086c611c1e565b604051808273ffffffffffffffffffffffffffffffffffffffff1673ffffffffffffffffffffffffffffffffffffffff16815260200191505060405180910390f35b3480156108ba57600080fd5b506108e7600480360360208110156108d157600080fd5b8101908080359060200190929190505050611c44565b005b3480156108f557600080fd5b506108fe611c4e565b604051808215151515815260200191505060405180910390f35b34801561092457600080fd5b506109676004803603602081101561093b57600080fd5b81019080803573ffffffffffffffffffffffffffffffffffffffff169060200190929190505050611c8b565b005b34801561097557600080fd5b5061097e611d72565b6040518082815260200191505060405180910390f35b3480156109a057600080fd5b506109cd600480360360208110156109b757600080fd5b8101908080359060200190929190505050611d7c565b005b3480156109db57600080fd5b50610a1e600480360360208110156109f257600080fd5b81019080803573ffffffffffffffffffffffffffffffffffffffff169060200190929190505050611db7565b005b603760159054906101000a900460ff1681565b603760159054906101000a900460ff1615610ab6576040517f08c379a000000000000000000000000000000000000000000000000000000000815260040180806020018281038252600f8152602001807f4465706f7369747320706175736564000000000000000000000000000000000081525060200191505060405180910390fd5b818190508484905014610b31576040517f08c379a00000000000000000000000000000000000000000000000000000000081526004018080602001828103825260198152602001807f506172616d65746572206c656e677468206d69736d617463680000000000000081525060200191505060405180910390fd5b60008090506060610b426000611e60565b905060008090505b603480549050811015610cdb5760008090505b87879050811015610ccd5760348281548110610b7557fe5b9060005260206000200160009054906101000a900473ffffffffffffffffffffffffffffffffffffffff1673ffffffffffffffffffffffffffffffffffffffff16888883818110610bc257fe5b9050602002013573ffffffffffffffffffffffffffffffffffffffff1673ffffffffffffffffffffffffffffffffffffffff161415610cc0576000868683818110610c0957fe5b905060200201351115610cbf576000610c5860348481548110610c2857fe5b9060005260206000200160009054906101000a900473ffffffffffffffffffffffffffffffffffffffff16612176565b90506000848481518110610c6857fe5b60200260200101519050670de0b6b3a7640000811115610c8e57670de0b6b3a764000090505b610cb88183600a0a8a8a87818110610ca257fe5b9050602002013561226f9092919063ffffffff16565b8601955050505b5b8080600101915050610b5d565b508080600101915050610b4a565b50603b5482118015610cfa5750603760149054906101000a900460ff16155b15610d0b57610d0960016122a4565b505b60008090505b86869050811015610d96576000878783818110610d2a57fe5b9050602002013573ffffffffffffffffffffffffffffffffffffffff169050610d883330888886818110610d5a57fe5b905060200201358473ffffffffffffffffffffffffffffffffffffffff1661263a909392919063ffffffff16565b508080600101915050610d11565b50603c60009054906101000a900473ffffffffffffffffffffffffffffffffffffffff1673ffffffffffffffffffffffffffffffffffffffff166340c10f1933846040518363ffffffff1660e01b8152600401808373ffffffffffffffffffffffffffffffffffffffff1673ffffffffffffffffffffffffffffffffffffffff16815260200182815260200192505050600060405180830381600087803b158015610e4057600080fd5b505af1158015610e54573d6000803e3d6000fd5b505050507f0f6798a560793a54c3bcfe86a93cde1e73087d944c0ea20544137d41213968853383604051808373ffffffffffffffffffffffffffffffffffffffff1673ffffffffffffffffffffffffffffffffffffffff1681526020018281526020019250505060405180910390a1603a548210610ed557610ed4611b81565b5b505050505050565b60385481565b6000610eed612740565b905090565b603e60009054906101000a900473ffffffffffffffffffffffffffffffffffffffff1681565b60395481565b60606034805480602002602001604051908101604052809291908181526020018280548015610fa257602002820191906000526020600020905b8160009054906101000a900473ffffffffffffffffffffffffffffffffffffffff1673ffffffffffffffffffffffffffffffffffffffff1681526020019060010190808311610f58575b5050505050905090565b603b54603c60009054906101000a900473ffffffffffffffffffffffffffffffffffffffff1673ffffffffffffffffffffffffffffffffffffffff166370a08231336040518263ffffffff1660e01b8152600401808273ffffffffffffffffffffffffffffffffffffffff1673ffffffffffffffffffffffffffffffffffffffff16815260200191505060206040518083038186803b15801561104e57600080fd5b505afa158015611062573d6000803e3d6000fd5b505050506040513d602081101561107857600080fd5b81019080805190602001909291905050501180156110a35750603760149054906101000a900460ff16155b156110b4576110b260006122a4565b505b611196603c60009054906101000a900473ffffffffffffffffffffffffffffffffffffffff1673ffffffffffffffffffffffffffffffffffffffff166370a08231336040518263ffffffff1660e01b8152600401808273ffffffffffffffffffffffffffffffffffffffff1673ffffffffffffffffffffffffffffffffffffffff16815260200191505060206040518083038186803b15801561115657600080fd5b505afa15801561116a573d6000803e3d6000fd5b505050506040513d602081101561118057600080fd5b8101908080519060200190929190505050612771565b565b6000603680549050905090565b603760159054906101000a900460ff1615611228576040517f08c379a000000000000000000000000000000000000000000000000000000000815260040180806020018281038252600f8152602001807f4465706f7369747320706175736564000000000000000000000000000000000081525060200191505060405180910390fd5b603360008373ffffffffffffffffffffffffffffffffffffffff1673ffffffffffffffffffffffffffffffffffffffff16815260200190815260200160002060000160009054906101000a900460ff166112ea576040517f08c379a00000000000000000000000000000000000000000000000000000000081526004018080602001828103825260168152602001807f4173736574206973206e6f7420737570706f727465640000000000000000000081525060200191505060405180910390fd5b60008111611360576040517f08c379a000000000000000000000000000000000000000000000000000000000815260040180806020018281038252601d8152602001807f416d6f756e74206d7573742062652067726561746572207468616e203000000081525060200191505060405180910390fd5b6000603760009054906101000a900473ffffffffffffffffffffffffffffffffffffffff1673ffffffffffffffffffffffffffffffffffffffff166319af6bf06113a985612d2f565b6040518263ffffffff1660e01b81526004018080602001828103825283818151815260200191508051906020019080838360005b838110156113f85780820151818401526020810190506113dd565b50505050905090810190601f1680156114255780820380516001836020036101000a031916815260200191505b5092505050602060405180830381600087803b15801561144457600080fd5b505af1158015611458573d6000803e3d6000fd5b505050506040513d602081101561146e57600080fd5b810190808051906020019092919050505090506305f5e100811115611495576305f5e10090505b60006114ca6114ae600a84612e7c90919063ffffffff16565b6114b786612176565b600a0a8561226f9092919063ffffffff16565b9050603b54811180156114ea5750603760149054906101000a900460ff16155b156114fb576114f960016122a4565b505b600084905061152d3330868473ffffffffffffffffffffffffffffffffffffffff1661263a909392919063ffffffff16565b603c60009054906101000a900473ffffffffffffffffffffffffffffffffffffffff1673ffffffffffffffffffffffffffffffffffffffff166340c10f1933846040518363ffffffff1660e01b8152600401808373ffffffffffffffffffffffffffffffffffffffff1673ffffffffffffffffffffffffffffffffffffffff16815260200182815260200192505050600060405180830381600087803b1580156115d657600080fd5b505af11580156115ea573d6000803e3d6000fd5b505050507f0f6798a560793a54c3bcfe86a93cde1e73087d944c0ea20544137d41213968853383604051808373ffffffffffffffffffffffffffffffffffffffff1673ffffffffffffffffffffffffffffffffffffffff1681526020018281526020019250505060405180910390a1603a54821061166b5761166a611b81565b5b5050505050565b61167a611c4e565b6116ec576040517f08c379a000000000000000000000000000000000000000000000000000000000815260040180806020018281038252601a8152602001807f43616c6c6572206973206e6f742074686520476f7665726e6f7200000000000081525060200191505060405180910390fd5b600060019054906101000a900460ff168061170b575061170a612efd565b5b8061172257506000809054906101000a900460ff16155b611777576040517f08c379a000000000000000000000000000000000000000000000000000000000815260040180806020018281038252602e815260200180614f60602e913960400191505060405180910390fd5b60008060019054906101000a900460ff1615905080156117c7576001600060016101000a81548160ff02191690831515021790555060016000806101000a81548160ff0219169083151502179055505b600073ffffffffffffffffffffffffffffffffffffffff168373ffffffffffffffffffffffffffffffffffffffff16141561186a576040517f08c379a000000000000000000000000000000000000000000000000000000000815260040180806020018281038252601d8152602001807f507269636550726f76696465722061646472657373206973207a65726f00000081525060200191505060405180910390fd5b600073ffffffffffffffffffffffffffffffffffffffff168273ffffffffffffffffffffffffffffffffffffffff16141561190d576040517f08c379a00000000000000000000000000000000000000000000000000000000081526004018080602001828103825260148152602001807f6f5553442061646472657373206973207a65726f00000000000000000000000081525060200191505060405180910390fd5b81603c60006101000a81548173ffffffffffffffffffffffffffffffffffffffff021916908373ffffffffffffffffffffffffffffffffffffffff16021790555082603760006101000a81548173ffffffffffffffffffffffffffffffffffffffff021916908373ffffffffffffffffffffffffffffffffffffffff1602179055506000603760146101000a81548160ff0219169083151502179055506001603760156101000a81548160ff0219169083151502179055506000603881905550600060398190555069054b40b1f852bda00000603a81905550683635c9adc5dea00000603b819055508015611a175760008060016101000a81548160ff0219169083151502179055505b505050565b603b5481565b603760149054906101000a900460ff1681565b611a3d612f14565b73ffffffffffffffffffffffffffffffffffffffff163373ffffffffffffffffffffffffffffffffffffffff1614611ac0576040517f08c379a0000000000000000000000000000000000000000000000000000000008152600401808060200182810382526030815260200180614fb86030913960400191505060405180910390fd5b611ac933612f45565b565b6000611ad682613055565b9050919050565b6060611ae8826132f3565b9050919050565b603d60009054906101000a900473ffffffffffffffffffffffffffffffffffffffff1681565b6000603360008373ffffffffffffffffffffffffffffffffffffffff1673ffffffffffffffffffffffffffffffffffffffff16815260200190815260200160002060000160009054906101000a900460ff169050919050565b603a5481565b6000603480549050905090565b611b8961364d565b565b6000603760149054906101000a900460ff1615611c10576040517f08c379a000000000000000000000000000000000000000000000000000000000815260040180806020018281038252600f8152602001807f5265626173696e6720706175736564000000000000000000000000000000000081525060200191505060405180910390fd5b611c1a60016122a4565b5090565b603760009054906101000a900473ffffffffffffffffffffffffffffffffffffffff1681565b80603f8190555050565b6000611c58612740565b73ffffffffffffffffffffffffffffffffffffffff163373ffffffffffffffffffffffffffffffffffffffff1614905090565b611c93611c4e565b611d05576040517f08c379a000000000000000000000000000000000000000000000000000000000815260040180806020018281038252601a8152602001807f43616c6c6572206973206e6f742074686520476f7665726e6f7200000000000081525060200191505060405180910390fd5b611d0e81613ddd565b8073ffffffffffffffffffffffffffffffffffffffff16611d2d612740565b73ffffffffffffffffffffffffffffffffffffffff167fa39cc5eb22d0f34d8beaefee8a3f17cc229c1a1d1ef87a5ad47313487b1c4f0d60405160405180910390a350565b6000603f54905090565b603b5481118015611d9a5750603760149054906101000a900460ff16155b15611dab57611da960006122a4565b505b611db481612771565b50565b611dbf611c4e565b611e31576040517f08c379a000000000000000000000000000000000000000000000000000000000815260040180806020018281038252601a8152602001807f43616c6c6572206973206e6f742074686520476f7665726e6f7200000000000081525060200191505060405180910390fd5b60007fa2bd3d3cf188a41358c8b401076eb59066b09dec5775650c0de4c55187d17bd960001b90508181555050565b6060611e6a611b74565b604051908082528060200260200182016040528015611e985781602001602082028038833980820191505090505b5090506000603760009054906101000a900473ffffffffffffffffffffffffffffffffffffffff16905060008090505b60348054905081101561216f576060611f1760348381548110611ee757fe5b9060005260206000200160009054906101000a900473ffffffffffffffffffffffffffffffffffffffff16612d2f565b9050841561204257612025600a8473ffffffffffffffffffffffffffffffffffffffff16637bf0c215846040518263ffffffff1660e01b81526004018080602001828103825283818151815260200191508051906020019080838360005b83811015611f90578082015181840152602081019050611f75565b50505050905090810190601f168015611fbd5780820380516001836020036101000a031916815260200191505b5092505050602060405180830381600087803b158015611fdc57600080fd5b505af1158015611ff0573d6000803e3d6000fd5b505050506040513d602081101561200657600080fd5b8101908080519060200190929190505050612e7c90919063ffffffff16565b84838151811061203157fe5b602002602001018181525050612161565b612148600a8473ffffffffffffffffffffffffffffffffffffffff166319af6bf0846040518263ffffffff1660e01b81526004018080602001828103825283818151815260200191508051906020019080838360005b838110156120b3578082015181840152602081019050612098565b50505050905090810190601f1680156120e05780820380516001836020036101000a031916815260200191505b5092505050602060405180830381600087803b1580156120ff57600080fd5b505af1158015612113573d6000803e3d6000fd5b505050506040513d602081101561212957600080fd5b8101908080519060200190929190505050612e7c90919063ffffffff16565b84838151811061215457fe5b6020026020010181815250505b508080600101915050611ec8565b5050919050565b6000808273ffffffffffffffffffffffffffffffffffffffff1663313ce5676040518163ffffffff1660e01b815260040160206040518083038186803b1580156121bf57600080fd5b505afa1580156121d3573d6000803e3d6000fd5b505050506040513d60208110156121e957600080fd5b810190808051906020019092919050505060ff16905060048110158015612211575060128111155b612266576040517f08c379a0000000000000000000000000000000000000000000000000000000008152600401808060200182810382526029815260200180614f166029913960400191505060405180910390fd5b80915050919050565b6000806122858486613e0c90919063ffffffff16565b905061229a8382613e9290919063ffffffff16565b9150509392505050565b6000603760149054906101000a900460ff1615612329576040517f08c379a000000000000000000000000000000000000000000000000000000000815260040180806020018281038252600f8152602001807f5265626173696e6720706175736564000000000000000000000000000000000081525060200191505060405180910390fd5b6000603c60009054906101000a900473ffffffffffffffffffffffffffffffffffffffff1673ffffffffffffffffffffffffffffffffffffffff166318160ddd6040518163ffffffff1660e01b815260040160206040518083038186803b15801561239357600080fd5b505afa1580156123a7573d6000803e3d6000fd5b505050506040513d60208110156123bd57600080fd5b810190808051906020019092919050505014156123dd5760009050612635565b6000603c60009054906101000a900473ffffffffffffffffffffffffffffffffffffffff1673ffffffffffffffffffffffffffffffffffffffff166318160ddd6040518163ffffffff1660e01b815260040160206040518083038186803b15801561244757600080fd5b505afa15801561245b573d6000803e3d6000fd5b505050506040513d602081101561247157600080fd5b81019080805190602001909291905050509050600061248e613edc565b90508181111561263257603c60009054906101000a900473ffffffffffffffffffffffffffffffffffffffff1673ffffffffffffffffffffffffffffffffffffffff166339a7919f826040518263ffffffff1660e01b815260040180828152602001915050602060405180830381600087803b15801561250d57600080fd5b505af1158015612521573d6000803e3d6000fd5b505050506040513d602081101561253757600080fd5b810190808051906020019092919050505050600073ffffffffffffffffffffffffffffffffffffffff16603d60009054906101000a900473ffffffffffffffffffffffffffffffffffffffff1673ffffffffffffffffffffffffffffffffffffffff161461263157603d60009054906101000a900473ffffffffffffffffffffffffffffffffffffffff1673ffffffffffffffffffffffffffffffffffffffff16631dcf530f856040518263ffffffff1660e01b81526004018082151515158152602001915050600060405180830381600087803b15801561261857600080fd5b505af115801561262c573d6000803e3d6000fd5b505050505b5b50505b919050565b61273a848573ffffffffffffffffffffffffffffffffffffffff166323b872dd905060e01b858585604051602401808473ffffffffffffffffffffffffffffffffffffffff1673ffffffffffffffffffffffffffffffffffffffff1681526020018373ffffffffffffffffffffffffffffffffffffffff1673ffffffffffffffffffffffffffffffffffffffff1681526020018281526020019350505050604051602081830303815290604052907bffffffffffffffffffffffffffffffffffffffffffffffffffffffff19166020820180517bffffffffffffffffffffffffffffffffffffffffffffffffffffffff8381831617835250505050613ee6565b50505050565b6000807f7bea13895fa79d2831e0a9e28edede30099005a50d652d8957cf8a607ee6ca4a60001b9050805491505090565b600081116127e7576040517f08c379a000000000000000000000000000000000000000000000000000000000815260040180806020018281038252601d8152602001807f416d6f756e74206d7573742062652067726561746572207468616e203000000081525060200191505060405180910390fd5b60606127f2826132f3565b905060008090505b603480549050811015612bcf57600082828151811061281557fe5b6020026020010151141561282857612bc2565b60006034828154811061283757fe5b9060005260206000200160009054906101000a900473ffffffffffffffffffffffffffffffffffffffff16905082828151811061287057fe5b60200260200101518173ffffffffffffffffffffffffffffffffffffffff166370a08231306040518263ffffffff1660e01b8152600401808273ffffffffffffffffffffffffffffffffffffffff1673ffffffffffffffffffffffffffffffffffffffff16815260200191505060206040518083038186803b1580156128f557600080fd5b505afa158015612909573d6000803e3d6000fd5b505050506040513d602081101561291f57600080fd5b810190808051906020019092919050505010612978576129733384848151811061294557fe5b60200260200101518373ffffffffffffffffffffffffffffffffffffffff166141319092919063ffffffff16565b612bc0565b60006129ce6034848154811061298a57fe5b9060005260206000200160009054906101000a900473ffffffffffffffffffffffffffffffffffffffff168585815181106129c157fe5b6020026020010151614202565b9050600073ffffffffffffffffffffffffffffffffffffffff168173ffffffffffffffffffffffffffffffffffffffff1614612b505760008190508073ffffffffffffffffffffffffffffffffffffffff1663d9caed123360348781548110612a3357fe5b9060005260206000200160009054906101000a900473ffffffffffffffffffffffffffffffffffffffff16888881518110612a6a57fe5b60200260200101516040518463ffffffff1660e01b8152600401808473ffffffffffffffffffffffffffffffffffffffff1673ffffffffffffffffffffffffffffffffffffffff1681526020018373ffffffffffffffffffffffffffffffffffffffff1673ffffffffffffffffffffffffffffffffffffffff1681526020018281526020019350505050602060405180830381600087803b158015612b0e57600080fd5b505af1158015612b22573d6000803e3d6000fd5b505050506040513d6020811015612b3857600080fd5b81019080805190602001909291905050505050612bbe565b6040517f08c379a000000000000000000000000000000000000000000000000000000000815260040180806020018281038252600f8152602001807f4c6971756964697479206572726f72000000000000000000000000000000000081525060200191505060405180910390fd5b505b505b80806001019150506127fa565b50603c60009054906101000a900473ffffffffffffffffffffffffffffffffffffffff1673ffffffffffffffffffffffffffffffffffffffff16639dc29fac33846040518363ffffffff1660e01b8152600401808373ffffffffffffffffffffffffffffffffffffffff1673ffffffffffffffffffffffffffffffffffffffff16815260200182815260200192505050600060405180830381600087803b158015612c7957600080fd5b505af1158015612c8d573d6000803e3d6000fd5b50505050603b5482118015612caf5750603760149054906101000a900460ff16155b15612cc057612cbe60016122a4565b505b7f222838db2794d11532d940e8dec38ae307ed0b63cd97c233322e221f998767a63383604051808373ffffffffffffffffffffffffffffffffffffffff1673ffffffffffffffffffffffffffffffffffffffff1681526020018281526020019250505060405180910390a15050565b6060808273ffffffffffffffffffffffffffffffffffffffff166395d89b416040518163ffffffff1660e01b815260040160006040518083038186803b158015612d7857600080fd5b505afa158015612d8c573d6000803e3d6000fd5b505050506040513d6000823e3d601f19601f820116820180604052506020811015612db657600080fd5b8101908080516040519392919084640100000000821115612dd657600080fd5b83820191506020820185811115612dec57600080fd5b8251866001820283011164010000000082111715612e0957600080fd5b8083526020830192505050908051906020019080838360005b83811015612e3d578082015181840152602081019050612e22565b50505050905090810190601f168015612e6a5780820380516001836020036101000a031916815260200191505b50604052505050905080915050919050565b6000808260000b1315612ea957612ea28260000b600a0a84613e0c90919063ffffffff16565b9250612ef4565b60008260000b1215612ef357612ef07fffffffffffffffffffffffffffffffffffffffffffffffffffffffffffffffff830260000b600a0a84613e9290919063ffffffff16565b92505b5b82905092915050565b6000803090506000813b9050600081149250505090565b6000807f44c4d30b2eaad5130ad70c3ba6972730566f3e6359ab83e800d905c61b1c51db60001b9050805491505090565b600073ffffffffffffffffffffffffffffffffffffffff168173ffffffffffffffffffffffffffffffffffffffff161415612fe8576040517f08c379a000000000000000000000000000000000000000000000000000000000815260040180806020018281038252601a8152602001807f4e657720476f7665726e6f72206973206164647265737328302900000000000081525060200191505060405180910390fd5b8073ffffffffffffffffffffffffffffffffffffffff16613007612740565b73ffffffffffffffffffffffffffffffffffffffff167fc7c0c772add429241571afb3805861fb3cfa2af374534088b76cdb4325a87e9a60405160405180910390a36130528161449f565b50565b6000808290508073ffffffffffffffffffffffffffffffffffffffff166370a08231306040518263ffffffff1660e01b8152600401808273ffffffffffffffffffffffffffffffffffffffff1673ffffffffffffffffffffffffffffffffffffffff16815260200191505060206040518083038186803b1580156130d857600080fd5b505afa1580156130ec573d6000803e3d6000fd5b505050506040513d602081101561310257600080fd5b8101908080519060200190929190505050915060008090505b6036805490508110156132ec5760006036828154811061313757fe5b9060005260206000200160009054906101000a900473ffffffffffffffffffffffffffffffffffffffff1690508073ffffffffffffffffffffffffffffffffffffffff1663aa388af6866040518263ffffffff1660e01b8152600401808273ffffffffffffffffffffffffffffffffffffffff1673ffffffffffffffffffffffffffffffffffffffff16815260200191505060206040518083038186803b1580156131e157600080fd5b505afa1580156131f5573d6000803e3d6000fd5b505050506040513d602081101561320b57600080fd5b8101908080519060200190929190505050156132de578073ffffffffffffffffffffffffffffffffffffffff16635f515226866040518263ffffffff1660e01b8152600401808273ffffffffffffffffffffffffffffffffffffffff1673ffffffffffffffffffffffffffffffffffffffff16815260200191505060206040518083038186803b15801561329e57600080fd5b505afa1580156132b2573d6000803e3d6000fd5b505050506040513d60208110156132c857600080fd5b8101908080519060200190929190505050840193505b50808060010191505061311b565b5050919050565b606060006132ff611b74565b9050606061330d6001611e60565b90506060826040519080825280602002602001820160405280156133405781602001602082028038833980820191505090505b5090506060836040519080825280602002602001820160405280156133745781602001602082028038833980820191505090505b50905060008090506000809050856040519080825280602002602001820160405280156133b05781602001602082028038833980820191505090505b509650600060385411156134025760006133e96127106133db6038548c613e0c90919063ffffffff16565b613e9290919063ffffffff16565b90506133fe818a6144ce90919063ffffffff16565b9850505b60008090505b6034805490508110156134f85760006134576034838154811061342757fe5b9060005260206000200160009054906101000a900473ffffffffffffffffffffffffffffffffffffffff16613055565b9050600061349b6034848154811061346b57fe5b9060005260206000200160009054906101000a900473ffffffffffffffffffffffffffffffffffffffff16612176565b9050818784815181106134aa57fe5b602002602001018181525050808684815181106134c357fe5b6020026020010181815250506134e58160120383612e7c90919063ffffffff16565b8501945050508080600101915050613408565b5060008090505b6034805490508110156135b857600086828151811061351a57fe5b60200260200101519050670de0b6b3a764000081101561354057670de0b6b3a764000090505b60006135a285613594846135868a888151811061355957fe5b60200260200101516012038c898151811061357057fe5b6020026020010151612e7c90919063ffffffff16565b613e0c90919063ffffffff16565b613e9290919063ffffffff16565b90508084019350505080806001019150506134ff565b5060006135ce828a61451890919063ffffffff16565b905060008090505b6034805490508110156136405761361b8461360d848985815181106135f757fe5b6020026020010151613e0c90919063ffffffff16565b613e9290919063ffffffff16565b89828151811061362757fe5b60200260200101818152505080806001019150506135d6565b5050505050505050919050565b6000613657614554565b905060008114156136685750613ddb565b60006136726146e0565b90506000818301905060008083141561369957603954670de0b6b3a76400000390506136ee565b6136c0846136b284603954613e0c90919063ffffffff16565b613e9290919063ffffffff16565b905080670de0b6b3a764000011156136e45780670de0b6b3a76400000390506136ed565b50505050613ddb565b5b60008114156137005750505050613ddb565b60008090505b6034805490508110156139895760006034828154811061372257fe5b9060005260206000200160009054906101000a900473ffffffffffffffffffffffffffffffffffffffff16905060008173ffffffffffffffffffffffffffffffffffffffff166370a08231306040518263ffffffff1660e01b8152600401808273ffffffffffffffffffffffffffffffffffffffff1673ffffffffffffffffffffffffffffffffffffffff16815260200191505060206040518083038186803b1580156137ce57600080fd5b505afa1580156137e2573d6000803e3d6000fd5b505050506040513d60208110156137f857600080fd5b81019080805190602001909291905050509050600081141561381b57505061397c565b6000613830858361474d90919063ffffffff16565b9050600061383e848361476a565b9050600073ffffffffffffffffffffffffffffffffffffffff168173ffffffffffffffffffffffffffffffffffffffff161415801561387d5750600082115b156139775760008190506138b281848773ffffffffffffffffffffffffffffffffffffffff166141319092919063ffffffff16565b8073ffffffffffffffffffffffffffffffffffffffff166347e7ef2486856040518363ffffffff1660e01b8152600401808373ffffffffffffffffffffffffffffffffffffffff1673ffffffffffffffffffffffffffffffffffffffff16815260200182815260200192505050602060405180830381600087803b15801561393957600080fd5b505af115801561394d573d6000803e3d6000fd5b505050506040513d602081101561396357600080fd5b810190808051906020019092919050505050505b505050505b8080600101915050613706565b5060008090505b603680549050811015613dd5576000603682815481106139ac57fe5b9060005260206000200160009054906101000a900473ffffffffffffffffffffffffffffffffffffffff16905060008173ffffffffffffffffffffffffffffffffffffffff1663125f9e336040518163ffffffff1660e01b815260040160206040518083038186803b158015613a2157600080fd5b505afa158015613a35573d6000803e3d6000fd5b505050506040513d6020811015613a4b57600080fd5b81019080805190602001909291905050509050600073ffffffffffffffffffffffffffffffffffffffff168173ffffffffffffffffffffffffffffffffffffffff1614613dc65760008273ffffffffffffffffffffffffffffffffffffffff16635653b4146040518163ffffffff1660e01b815260040160206040518083038186803b158015613ada57600080fd5b505afa158015613aee573d6000803e3d6000fd5b505050506040513d6020811015613b0457600080fd5b810190808051906020019092919050505090506000811415613bf3573073ffffffffffffffffffffffffffffffffffffffff16630e5c011e60368681548110613b4957fe5b9060005260206000200160009054906101000a900473ffffffffffffffffffffffffffffffffffffffff166040518263ffffffff1660e01b8152600401808273ffffffffffffffffffffffffffffffffffffffff1673ffffffffffffffffffffffffffffffffffffffff168152602001915050600060405180830381600087803b158015613bd657600080fd5b505af1158015613bea573d6000803e3d6000fd5b50505050613dc4565b600082905060008173ffffffffffffffffffffffffffffffffffffffff166370a0823160368881548110613c2357fe5b9060005260206000200160009054906101000a900473ffffffffffffffffffffffffffffffffffffffff166040518263ffffffff1660e01b8152600401808273ffffffffffffffffffffffffffffffffffffffff1673ffffffffffffffffffffffffffffffffffffffff16815260200191505060206040518083038186803b158015613cae57600080fd5b505afa158015613cc2573d6000803e3d6000fd5b505050506040513d6020811015613cd857600080fd5b81019080805190602001909291905050509050828110613dc1573073ffffffffffffffffffffffffffffffffffffffff16630e5c011e60368881548110613d1b57fe5b9060005260206000200160009054906101000a900473ffffffffffffffffffffffffffffffffffffffff166040518263ffffffff1660e01b8152600401808273ffffffffffffffffffffffffffffffffffffffff1673ffffffffffffffffffffffffffffffffffffffff168152602001915050600060405180830381600087803b158015613da857600080fd5b505af1158015613dbc573d6000803e3d6000fd5b505050505b50505b505b50508080600101915050613990565b50505050505b565b60007f44c4d30b2eaad5130ad70c3ba6972730566f3e6359ab83e800d905c61b1c51db60001b90508181555050565b600080831415613e1f5760009050613e8c565b6000828402905082848281613e3057fe5b0414613e87576040517f08c379a0000000000000000000000000000000000000000000000000000000008152600401808060200182810382526021815260200180614f3f6021913960400191505060405180910390fd5b809150505b92915050565b6000613ed483836040518060400160405280601a81526020017f536166654d6174683a206469766973696f6e206279207a65726f000000000000815250614925565b905092915050565b6000603f54905090565b613f058273ffffffffffffffffffffffffffffffffffffffff166149eb565b613f77576040517f08c379a000000000000000000000000000000000000000000000000000000000815260040180806020018281038252601f8152602001807f5361666545524332303a2063616c6c20746f206e6f6e2d636f6e74726163740081525060200191505060405180910390fd5b600060608373ffffffffffffffffffffffffffffffffffffffff16836040518082805190602001908083835b60208310613fc65780518252602082019150602081019050602083039250613fa3565b6001836020036101000a0380198251168184511680821785525050505050509050019150506000604051808303816000865af19150503d8060008114614028576040519150601f19603f3d011682016040523d82523d6000602084013e61402d565b606091505b5091509150816140a5576040517f08c379a00000000000000000000000000000000000000000000000000000000081526004018080602001828103825260208152602001807f5361666545524332303a206c6f772d6c6576656c2063616c6c206661696c656481525060200191505060405180910390fd5b60008151111561412b578080602001905160208110156140c457600080fd5b810190808051906020019092919050505061412a576040517f08c379a000000000000000000000000000000000000000000000000000000000815260040180806020018281038252602a815260200180614f8e602a913960400191505060405180910390fd5b5b50505050565b6141fd838473ffffffffffffffffffffffffffffffffffffffff1663a9059cbb905060e01b8484604051602401808373ffffffffffffffffffffffffffffffffffffffff1673ffffffffffffffffffffffffffffffffffffffff16815260200182815260200192505050604051602081830303815290604052907bffffffffffffffffffffffffffffffffffffffffffffffffffffffff19166020820180517bffffffffffffffffffffffffffffffffffffffffffffffffffffffff8381831617835250505050613ee6565b505050565b600080905060007fffffffffffffffffffffffffffffffffffffffffffffffffffffffffffffffff905060008090505b6036805490508110156144975760006036828154811061424e57fe5b9060005260206000200160009054906101000a900473ffffffffffffffffffffffffffffffffffffffff1690508073ffffffffffffffffffffffffffffffffffffffff1663aa388af6876040518263ffffffff1660e01b8152600401808273ffffffffffffffffffffffffffffffffffffffff1673ffffffffffffffffffffffffffffffffffffffff16815260200191505060206040518083038186803b1580156142f857600080fd5b505afa15801561430c573d6000803e3d6000fd5b505050506040513d602081101561432257600080fd5b810190808051906020019092919050505080156143f55750848173ffffffffffffffffffffffffffffffffffffffff16635f515226886040518263ffffffff1660e01b8152600401808273ffffffffffffffffffffffffffffffffffffffff1673ffffffffffffffffffffffffffffffffffffffff16815260200191505060206040518083038186803b1580156143b857600080fd5b505afa1580156143cc573d6000803e3d6000fd5b505050506040513d60208110156143e257600080fd5b8101908080519060200190929190505050115b156144895760006144406036848154811061440c57fe5b9060005260206000200160009054906101000a900473ffffffffffffffffffffffffffffffffffffffff1688886000614a36565b9050838111614487578093506036838154811061445957fe5b9060005260206000200160009054906101000a900473ffffffffffffffffffffffffffffffffffffffff1694505b505b508080600101915050614232565b505092915050565b60007f7bea13895fa79d2831e0a9e28edede30099005a50d652d8957cf8a607ee6ca4a60001b90508181555050565b600061451083836040518060400160405280601e81526020017f536166654d6174683a207375627472616374696f6e206f766572666c6f770000815250614b4a565b905092915050565b600080614536670de0b6b3a764000085613e0c90919063ffffffff16565b905061454b8382613e9290919063ffffffff16565b91505092915050565b600080905060008090505b6034805490508110156146dc5760006034828154811061457b57fe5b9060005260206000200160009054906101000a900473ffffffffffffffffffffffffffffffffffffffff16905060006145ea603484815481106145ba57fe5b9060005260206000200160009054906101000a900473ffffffffffffffffffffffffffffffffffffffff16612176565b905060008273ffffffffffffffffffffffffffffffffffffffff166370a08231306040518263ffffffff1660e01b8152600401808273ffffffffffffffffffffffffffffffffffffffff1673ffffffffffffffffffffffffffffffffffffffff16815260200191505060206040518083038186803b15801561466b57600080fd5b505afa15801561467f573d6000803e3d6000fd5b505050506040513d602081101561469557600080fd5b8101908080519060200190929190505050905060008111156146cc576146c78260120382612e7c90919063ffffffff16565b850194505b505050808060010191505061455f565b5090565b600080905060008090505b603680549050811015614749576147386036828154811061470857fe5b9060005260206000200160009054906101000a900473ffffffffffffffffffffffffffffffffffffffff16614c0a565b8201915080806001019150506146eb565b5090565b60006147628383670de0b6b3a764000061226f565b905092915050565b6000809050600080905060008090505b60368054905081101561491d5760006036828154811061479657fe5b9060005260206000200160009054906101000a900473ffffffffffffffffffffffffffffffffffffffff1690508073ffffffffffffffffffffffffffffffffffffffff1663aa388af6876040518263ffffffff1660e01b8152600401808273ffffffffffffffffffffffffffffffffffffffff1673ffffffffffffffffffffffffffffffffffffffff16815260200191505060206040518083038186803b15801561484057600080fd5b505afa158015614854573d6000803e3d6000fd5b505050506040513d602081101561486a57600080fd5b81019080805190602001909291905050501561490f5760006148c66036848154811061489257fe5b9060005260206000200160009054906101000a900473ffffffffffffffffffffffffffffffffffffffff1688886001614a36565b905083811061490d57809350603683815481106148df57fe5b9060005260206000200160009054906101000a900473ffffffffffffffffffffffffffffffffffffffff1694505b505b50808060010191505061477a565b505092915050565b600080831182906149d1576040517f08c379a00000000000000000000000000000000000000000000000000000000081526004018080602001828103825283818151815260200191508051906020019080838360005b8381101561499657808201518184015260208101905061497b565b50505050905090810190601f1680156149c35780820380516001836020036101000a031916815260200191505b509250505060405180910390fd5b5060008385816149dd57fe5b049050809150509392505050565b60008060007fc5d2460186f7233c927e7db2dcc703c0e500b653ca82273b7bfad8045d85a47060001b9050833f9150808214158015614a2d57506000801b8214155b92505050919050565b600080603560008773ffffffffffffffffffffffffffffffffffffffff1673ffffffffffffffffffffffffffffffffffffffff1681526020019081526020016000206001015490506000811415614a91576000915050614b42565b6000614a9c86612176565b9050614b1b8285614adc57614ad7614ac08460120389612e7c90919063ffffffff16565b614ac98b614c0a565b6144ce90919063ffffffff16565b614b0d565b614b0c614af58460120389612e7c90919063ffffffff16565b614afe8b614c0a565b614e8d90919063ffffffff16565b5b61451890919063ffffffff16565b7fffffffffffffffffffffffffffffffffffffffffffffffffffffffffffffffff03925050505b949350505050565b6000838311158290614bf7576040517f08c379a00000000000000000000000000000000000000000000000000000000081526004018080602001828103825283818151815260200191508051906020019080838360005b83811015614bbc578082015181840152602081019050614ba1565b50505050905090810190601f168015614be95780820380516001836020036101000a031916815260200191505b509250505060405180910390fd5b5060008385039050809150509392505050565b6000809050600082905060008090505b603480549050811015614e86576000614c6960348381548110614c3957fe5b9060005260206000200160009054906101000a900473ffffffffffffffffffffffffffffffffffffffff16612176565b90508273ffffffffffffffffffffffffffffffffffffffff1663aa388af660348481548110614c9457fe5b9060005260206000200160009054906101000a900473ffffffffffffffffffffffffffffffffffffffff166040518263ffffffff1660e01b8152600401808273ffffffffffffffffffffffffffffffffffffffff1673ffffffffffffffffffffffffffffffffffffffff16815260200191505060206040518083038186803b158015614d1f57600080fd5b505afa158015614d33573d6000803e3d6000fd5b505050506040513d6020811015614d4957600080fd5b810190808051906020019092919050505015614e785760008373ffffffffffffffffffffffffffffffffffffffff16635f51522660348581548110614d8a57fe5b9060005260206000200160009054906101000a900473ffffffffffffffffffffffffffffffffffffffff166040518263ffffffff1660e01b8152600401808273ffffffffffffffffffffffffffffffffffffffff1673ffffffffffffffffffffffffffffffffffffffff16815260200191505060206040518083038186803b158015614e1557600080fd5b505afa158015614e29573d6000803e3d6000fd5b505050506040513d6020811015614e3f57600080fd5b810190808051906020019092919050505090506000811115614e7657614e718260120382612e7c90919063ffffffff16565b850194505b505b508080600101915050614c1a565b5050919050565b600080828401905083811015614f0b576040517f08c379a000000000000000000000000000000000000000000000000000000000815260040180806020018281038252601b8152602001807f536166654d6174683a206164646974696f6e206f766572666c6f77000000000081525060200191505060405180910390fd5b809150509291505056fe546f6b656e206d75737420686176652073756666696369656e7420646563696d616c20706c61636573536166654d6174683a206d756c7469706c69636174696f6e206f766572666c6f77436f6e747261637420696e7374616e63652068617320616c7265616479206265656e20696e697469616c697a65645361666545524332303a204552433230206f7065726174696f6e20646964206e6f7420737563636565644f6e6c79207468652070656e64696e6720476f7665726e6f722063616e20636f6d706c6574652074686520636c61696da265627a7a72315820aa0e9b370db0ee2a613e349c58db69a0b277c63e696933c71e6d85ade13c63c164736f6c634300050b0032",
  "devdoc": {
    "methods": {
      "allocate()": {
        "details": "Allocate unallocated funds on Vault to strategies.*"
      },
      "checkBalance(address)": {
        "params": {
          "_asset": "Address of asset"
        },
        "return": "uint256 Balance of asset in decimals of asset"
      },
      "claimGovernance()": {
        "details": "Claim Governance of the contract to a new account (`newGovernor`). Can only be called by the new Governor."
      },
      "getAllAssets()": {
        "details": "Return all asset addresses in order"
      },
      "getAssetCount()": {
        "details": "Return the number of assets suppported by the Vault."
      },
      "getStrategyCount()": {
        "details": "Return the number of strategies active on the Vault."
      },
      "governor()": {
        "details": "Returns the address of the current Governor."
      },
      "isGovernor()": {
        "details": "Returns true if the caller is the current Governor."
      },
      "mint(address,uint256)": {
        "details": "Deposit a supported asset and mint OUSD.",
        "params": {
          "_amount": "Amount of the asset being deposited",
          "_asset": "Address of the asset being deposited"
        }
      },
      "mintMultiple(address[],uint256[])": {
        "details": "Mint for multiple assets in the same call.",
        "params": {
          "_amounts": "Amount of each asset at the same index in the _assets                to deposit.",
          "_assets": "Addresses of assets being deposited"
        }
      },
      "rebase()": {
        "details": "Calculate the total value of assets held by the Vault and all        strategies and update the supply of oUSD"
      },
      "redeem(uint256)": {
        "details": "Withdraw a supported asset and burn OUSD.",
        "params": {
          "_amount": "Amount of OUSD to burn"
        }
      },
      "setAdminImpl(address)": {
        "details": "set the implementation for the admin, this needs to be in a base class else we cannot set it",
        "params": {
          "newImpl": "address pf the implementation"
        }
      },
      "transferGovernance(address)": {
        "details": "Transfers Governance of the contract to a new account (`newGovernor`). Can only be called by the current Governor. Must be claimed for this to complete",
        "params": {
          "_newGovernor": "Address of the new Governor"
        }
      }
    }
  },
  "userdoc": {
    "methods": {
      "allocate()": {
        "notice": "Allocate unallocated funds on Vault to strategies."
      },
      "calculateRedeemOutputs(uint256)": {
        "notice": "Calculate the outputs for a redeem function, i.e. the mix of coins that will be returned"
      },
      "checkBalance(address)": {
        "notice": "Get the balance of an asset held in Vault and all strategies."
      },
      "redeemAll()": {
        "notice": "Withdraw a supported asset and burn all OUSD."
      }
    }
  },
  "gasEstimates": {
    "creation": {
      "codeDepositCost": "4101600",
      "executionCost": "infinite",
      "totalCost": "infinite"
    },
    "external": {
      "": "infinite",
      "allocate()": "infinite",
      "autoAllocateThreshold()": "472",
      "calculateRedeemOutputs(uint256)": "infinite",
      "checkBalance(address)": "infinite",
      "claimGovernance()": "infinite",
      "depositPaused()": "550",
      "getAllAssets()": "infinite",
      "getAssetCount()": "510",
      "getStrategyCount()": "489",
      "governor()": "525",
      "initialize(address,address)": "infinite",
      "isGovernor()": "607",
      "isSupportedAsset(address)": "695",
      "mint(address,uint256)": "infinite",
      "mintMultiple(address[],uint256[])": "infinite",
      "priceProvider()": "520",
      "rebase()": "infinite",
      "rebaseHooksAddr()": "543",
      "rebasePaused()": "592",
      "rebaseThreshold()": "472",
      "redeem(uint256)": "infinite",
      "redeemAll()": "infinite",
      "redeemFeeBps()": "496",
      "setAdminImpl(address)": "20692",
      "setTotalValue(uint256)": "20331",
      "totalValue()": "479",
      "transferGovernance(address)": "infinite",
      "uniswapAddr()": "521",
      "vaultBuffer()": "495"
    },
    "internal": {
      "_totalValue()": "223"
    }
  }
}