{
  "abi": [
    {
      "inputs": [
        {
          "internalType": "address",
          "name": "oUsdAddress",
          "type": "address"
        }
      ],
      "payable": false,
      "stateMutability": "nonpayable",
      "type": "constructor"
    },
    {
      "anonymous": false,
      "inputs": [
        {
          "indexed": false,
          "internalType": "address",
          "name": "__contractAddress",
          "type": "address"
        }
      ],
      "name": "MarketSupported",
      "type": "event"
    },
    {
      "constant": false,
      "inputs": [
        {
          "internalType": "address",
          "name": "_contractAddress",
          "type": "address"
        }
      ],
      "name": "createMarket",
      "outputs": [],
      "payable": false,
      "stateMutability": "nonpayable",
      "type": "function"
    },
    {
      "constant": false,
      "inputs": [
        {
          "internalType": "address",
          "name": "_contractAddress",
          "type": "address"
        },
        {
          "internalType": "uint256",
          "name": "_amount",
          "type": "uint256"
        }
      ],
      "name": "depositAndMint",
      "outputs": [],
      "payable": false,
      "stateMutability": "nonpayable",
      "type": "function"
    }
  ],
  "address": "0xbe65A1F9a31D5E81d5e2B863AEf15bF9b3d92891",
  "args": [
    "0x919b4b4B561C72c990DC868F751328eF127c45F4"
  ],
  "solcInputHash": "0x528c617ec18713d018ecd0f0a764a9b59f1f51ef73caf98412a9b22aa5b8d472",
  "bytecode": "0x608060405234801561001057600080fd5b506040516107303803806107308339818101604052602081101561003357600080fd5b810190808051906020019092919050505080600260006101000a81548173ffffffffffffffffffffffffffffffffffffffff021916908373ffffffffffffffffffffffffffffffffffffffff1602179055505061069b806100956000396000f3fe608060405234801561001057600080fd5b50600436106100365760003560e01c80637c1083331461003b578063d3148fb61461007f575b600080fd5b61007d6004803603602081101561005157600080fd5b81019080803573ffffffffffffffffffffffffffffffffffffffff1690602001909291905050506100cd565b005b6100cb6004803603604081101561009557600080fd5b81019080803573ffffffffffffffffffffffffffffffffffffffff169060200190929190803590602001909291905050506102f0565b005b6000808273ffffffffffffffffffffffffffffffffffffffff1673ffffffffffffffffffffffffffffffffffffffff16815260200190815260200160002060020160009054906101000a900460ff161561018f576040517f08c379a00000000000000000000000000000000000000000000000000000000081526004018080602001828103825260168152602001807f4d61726b657420616c726561647920637265617465640000000000000000000081525060200191505060405180910390fd5b60405180606001604052806000815260200160018152602001600115158152506000808373ffffffffffffffffffffffffffffffffffffffff1673ffffffffffffffffffffffffffffffffffffffff168152602001908152602001600020600082015181600001556020820151816001015560408201518160020160006101000a81548160ff02191690831515021790555090505060018190806001815401808255809150509060018203906000526020600020016000909192909190916101000a81548173ffffffffffffffffffffffffffffffffffffffff021916908373ffffffffffffffffffffffffffffffffffffffff160217905550507faf16ad15f9e29d5140e8e81a30a92a755aa8edff3d301053c84392b70c0d09a381604051808273ffffffffffffffffffffffffffffffffffffffff1673ffffffffffffffffffffffffffffffffffffffff16815260200191505060405180910390a150565b6000808373ffffffffffffffffffffffffffffffffffffffff1673ffffffffffffffffffffffffffffffffffffffff16815260200190815260200160002060020160009054906101000a900460ff166103b1576040517f08c379a00000000000000000000000000000000000000000000000000000000081526004018080602001828103825260178152602001807f4d61726b6574206973206e6f7420737570706f7274656400000000000000000081525060200191505060405180910390fd5b60008111610427576040517f08c379a000000000000000000000000000000000000000000000000000000000815260040180806020018281038252601d8152602001807f416d6f756e74206d7573742062652067726561746572207468616e203000000081525060200191505060405180910390fd5b60008290508073ffffffffffffffffffffffffffffffffffffffff166323b872dd3330856040518463ffffffff1660e01b8152600401808473ffffffffffffffffffffffffffffffffffffffff1673ffffffffffffffffffffffffffffffffffffffff1681526020018373ffffffffffffffffffffffffffffffffffffffff1673ffffffffffffffffffffffffffffffffffffffff1681526020018281526020019350505050602060405180830381600087803b1580156104e757600080fd5b505af11580156104fb573d6000803e3d6000fd5b505050506040513d602081101561051157600080fd5b8101908080519060200190929190505050610577576040517f08c379a000000000000000000000000000000000000000000000000000000000815260040180806020018281038252602981526020018061063e6029913960400191505060405180910390fd5b600260009054906101000a900473ffffffffffffffffffffffffffffffffffffffff1673ffffffffffffffffffffffffffffffffffffffff166340c10f1933846040518363ffffffff1660e01b8152600401808373ffffffffffffffffffffffffffffffffffffffff1673ffffffffffffffffffffffffffffffffffffffff16815260200182815260200192505050600060405180830381600087803b15801561062057600080fd5b505af1158015610634573d6000803e3d6000fd5b5050505050505056fe436f756c64206e6f74207472616e7366657220666f7220617373657420746f206d696e74204f555344a265627a7a72315820106b0ebb97f5a7b9014500a2e8978149a58383ff6eb6fd078ca856c58c113ea964736f6c63430005100032",
  "devdoc": {
    "methods": {}
  },
  "userdoc": {
    "methods": {
      "depositAndMint(address,uint256)": {
        "notice": "*"
      }
    }
  },
  "storageLayout": {
    "storage": [
      {
        "astId": 10309,
        "contract": "contracts/vault/Vault.sol:Vault",
        "label": "markets",
        "offset": 0,
        "slot": "0",
        "type": "t_mapping(t_address,t_struct(Market)10305_storage)"
      },
      {
        "astId": 10312,
        "contract": "contracts/vault/Vault.sol:Vault",
        "label": "allMarkets",
        "offset": 0,
        "slot": "1",
        "type": "t_array(t_contract(IERC20)8822)dyn_storage"
      },
      {
        "astId": 10314,
        "contract": "contracts/vault/Vault.sol:Vault",
        "label": "oUsd",
        "offset": 0,
        "slot": "2",
        "type": "t_contract(OUSD)10145"
      }
    ],
    "types": {
      "t_address": {
        "encoding": "inplace",
        "label": "address",
        "numberOfBytes": "20"
      },
      "t_array(t_contract(IERC20)8822)dyn_storage": {
        "base": "t_contract(IERC20)8822",
        "encoding": "dynamic_array",
        "label": "contract IERC20[]",
        "numberOfBytes": "32"
      },
      "t_bool": {
        "encoding": "inplace",
        "label": "bool",
        "numberOfBytes": "1"
      },
      "t_contract(IERC20)8822": {
        "encoding": "inplace",
        "label": "contract IERC20",
        "numberOfBytes": "20"
      },
      "t_contract(OUSD)10145": {
        "encoding": "inplace",
        "label": "contract OUSD",
        "numberOfBytes": "20"
      },
      "t_mapping(t_address,t_struct(Market)10305_storage)": {
        "encoding": "mapping",
        "key": "t_address",
        "label": "mapping(address => struct Vault.Market)",
        "numberOfBytes": "32",
        "value": "t_struct(Market)10305_storage"
      },
      "t_struct(Market)10305_storage": {
        "encoding": "inplace",
        "label": "struct Vault.Market",
        "members": [
          {
            "astId": 10300,
            "contract": "contracts/vault/Vault.sol:Vault",
            "label": "totalBalance",
            "offset": 0,
            "slot": "0",
            "type": "t_uint256"
          },
          {
            "astId": 10302,
            "contract": "contracts/vault/Vault.sol:Vault",
            "label": "price",
            "offset": 0,
            "slot": "1",
            "type": "t_uint256"
          },
          {
            "astId": 10304,
            "contract": "contracts/vault/Vault.sol:Vault",
            "label": "supported",
            "offset": 0,
            "slot": "2",
            "type": "t_bool"
          }
        ],
        "numberOfBytes": "96"
      },
      "t_uint256": {
        "encoding": "inplace",
        "label": "uint256",
        "numberOfBytes": "32"
      }
    }
  },
  "gasEstimates": {
    "creation": {
      "codeDepositCost": "338200",
      "executionCost": "infinite",
      "totalCost": "infinite"
    },
    "external": {
      "createMarket(address)": "90134",
      "depositAndMint(address,uint256)": "infinite"
    }
  }
}