{
  "abi": [
    {
      "inputs": [
        {
          "internalType": "address",
          "name": "oUsdAddress",
          "type": "address"
        }
      ],
      "payable": false,
      "stateMutability": "nonpayable",
      "type": "constructor"
    },
    {
      "anonymous": false,
      "inputs": [
        {
          "indexed": false,
          "internalType": "address",
          "name": "__contractAddress",
          "type": "address"
        }
      ],
      "name": "MarketSupported",
      "type": "event"
    },
    {
      "constant": false,
      "inputs": [
        {
          "internalType": "address",
          "name": "_contractAddress",
          "type": "address"
        }
      ],
      "name": "createMarket",
      "outputs": [],
      "payable": false,
      "stateMutability": "nonpayable",
      "type": "function"
    },
    {
      "constant": false,
      "inputs": [
        {
          "internalType": "address",
          "name": "_contractAddress",
          "type": "address"
        },
        {
          "internalType": "uint256",
          "name": "_amount",
          "type": "uint256"
        }
      ],
      "name": "depositAndMint",
      "outputs": [],
      "payable": false,
      "stateMutability": "nonpayable",
      "type": "function"
    },
    {
      "constant": false,
      "inputs": [
        {
          "internalType": "address",
          "name": "_contractAddress",
          "type": "address"
        },
        {
          "internalType": "uint256",
          "name": "_amount",
          "type": "uint256"
        }
      ],
      "name": "depositYield",
      "outputs": [
        {
          "internalType": "uint256",
          "name": "",
          "type": "uint256"
        }
      ],
      "payable": false,
      "stateMutability": "nonpayable",
      "type": "function"
    }
  ],
  "address": "0xbe65A1F9a31D5E81d5e2B863AEf15bF9b3d92891",
  "args": [
    "0x919b4b4B561C72c990DC868F751328eF127c45F4"
  ],
  "solcInputHash": "0x35ee77d7f41b58f93380e955a46c4381d7d20e853c0c684fb4e5edb528a20df1",
  "bytecode": "0x608060405234801561001057600080fd5b506040516110403803806110408339818101604052602081101561003357600080fd5b810190808051906020019092919050505080600260006101000a81548173ffffffffffffffffffffffffffffffffffffffff021916908373ffffffffffffffffffffffffffffffffffffffff16021790555050610fab806100956000396000f3fe608060405234801561001057600080fd5b50600436106100415760003560e01c80637c10833314610046578063d3148fb61461008a578063d6996185146100d8575b600080fd5b6100886004803603602081101561005c57600080fd5b81019080803573ffffffffffffffffffffffffffffffffffffffff16906020019092919050505061013a565b005b6100d6600480360360408110156100a057600080fd5b81019080803573ffffffffffffffffffffffffffffffffffffffff169060200190929190803590602001909291905050506103b6565b005b610124600480360360408110156100ee57600080fd5b81019080803573ffffffffffffffffffffffffffffffffffffffff1690602001909291908035906020019092919050505061075c565b6040518082815260200191505060405180910390f35b6000808273ffffffffffffffffffffffffffffffffffffffff1673ffffffffffffffffffffffffffffffffffffffff16815260200190815260200160002060030160009054906101000a900460ff16156101fc576040517f08c379a00000000000000000000000000000000000000000000000000000000081526004018080602001828103825260168152602001807f4d61726b657420616c726561647920637265617465640000000000000000000081525060200191505060405180910390fd5b600061020782610b14565b9050600061021f826012610c0d90919063ffffffff16565b9050600061024082600a0a610232610c57565b610c6390919063ffffffff16565b905060405180608001604052806000815260200160018152602001828152602001600115158152506000808673ffffffffffffffffffffffffffffffffffffffff1673ffffffffffffffffffffffffffffffffffffffff16815260200190815260200160002060008201518160000155602082015181600101556040820151816002015560608201518160030160006101000a81548160ff02191690831515021790555090505060018490806001815401808255809150509060018203906000526020600020016000909192909190916101000a81548173ffffffffffffffffffffffffffffffffffffffff021916908373ffffffffffffffffffffffffffffffffffffffff160217905550507faf16ad15f9e29d5140e8e81a30a92a755aa8edff3d301053c84392b70c0d09a384604051808273ffffffffffffffffffffffffffffffffffffffff1673ffffffffffffffffffffffffffffffffffffffff16815260200191505060405180910390a150505050565b6000808373ffffffffffffffffffffffffffffffffffffffff1673ffffffffffffffffffffffffffffffffffffffff16815260200190815260200160002060030160009054906101000a900460ff16610477576040517f08c379a00000000000000000000000000000000000000000000000000000000081526004018080602001828103825260178152602001807f4d61726b6574206973206e6f7420737570706f7274656400000000000000000081525060200191505060405180910390fd5b600081116104ed576040517f08c379a000000000000000000000000000000000000000000000000000000000815260040180806020018281038252601d8152602001807f416d6f756e74206d7573742062652067726561746572207468616e203000000081525060200191505060405180910390fd5b60008290508073ffffffffffffffffffffffffffffffffffffffff166323b872dd3330856040518463ffffffff1660e01b8152600401808473ffffffffffffffffffffffffffffffffffffffff1673ffffffffffffffffffffffffffffffffffffffff1681526020018373ffffffffffffffffffffffffffffffffffffffff1673ffffffffffffffffffffffffffffffffffffffff1681526020018281526020019350505050602060405180830381600087803b1580156105ad57600080fd5b505af11580156105c1573d6000803e3d6000fd5b505050506040513d60208110156105d757600080fd5b810190808051906020019092919050505061063d576040517f08c379a0000000000000000000000000000000000000000000000000000000008152600401808060200182810382526025815260200180610f086025913960400191505060405180910390fd5b60006106936000808673ffffffffffffffffffffffffffffffffffffffff1673ffffffffffffffffffffffffffffffffffffffff1681526020019081526020016000206002015484610ce990919063ffffffff16565b9050600260009054906101000a900473ffffffffffffffffffffffffffffffffffffffff1673ffffffffffffffffffffffffffffffffffffffff166340c10f1933836040518363ffffffff1660e01b8152600401808373ffffffffffffffffffffffffffffffffffffffff1673ffffffffffffffffffffffffffffffffffffffff16815260200182815260200192505050600060405180830381600087803b15801561073e57600080fd5b505af1158015610752573d6000803e3d6000fd5b5050505050505050565b60008060008473ffffffffffffffffffffffffffffffffffffffff1673ffffffffffffffffffffffffffffffffffffffff16815260200190815260200160002060030160009054906101000a900460ff1661081f576040517f08c379a00000000000000000000000000000000000000000000000000000000081526004018080602001828103825260178152602001807f4d61726b6574206973206e6f7420737570706f7274656400000000000000000081525060200191505060405180910390fd5b60008211610895576040517f08c379a000000000000000000000000000000000000000000000000000000000815260040180806020018281038252601d8152602001807f416d6f756e74206d7573742062652067726561746572207468616e203000000081525060200191505060405180910390fd5b60008390508073ffffffffffffffffffffffffffffffffffffffff166323b872dd3330866040518463ffffffff1660e01b8152600401808473ffffffffffffffffffffffffffffffffffffffff1673ffffffffffffffffffffffffffffffffffffffff1681526020018373ffffffffffffffffffffffffffffffffffffffff1673ffffffffffffffffffffffffffffffffffffffff1681526020018281526020019350505050602060405180830381600087803b15801561095557600080fd5b505af1158015610969573d6000803e3d6000fd5b505050506040513d602081101561097f57600080fd5b8101908080519060200190929190505050610a02576040517f08c379a00000000000000000000000000000000000000000000000000000000081526004018080602001828103825260188152602001807f436f756c64206e6f74207472616e73666572207969656c64000000000000000081525060200191505060405180910390fd5b6000610a586000808773ffffffffffffffffffffffffffffffffffffffff1673ffffffffffffffffffffffffffffffffffffffff1681526020019081526020016000206002015485610ce990919063ffffffff16565b9050600260009054906101000a900473ffffffffffffffffffffffffffffffffffffffff1673ffffffffffffffffffffffffffffffffffffffff166345abe03d826040518263ffffffff1660e01b815260040180828152602001915050602060405180830381600087803b158015610acf57600080fd5b505af1158015610ae3573d6000803e3d6000fd5b505050506040513d6020811015610af957600080fd5b81019080805190602001909291905050509250505092915050565b6000808273ffffffffffffffffffffffffffffffffffffffff1663313ce5676040518163ffffffff1660e01b815260040160206040518083038186803b158015610b5d57600080fd5b505afa158015610b71573d6000803e3d6000fd5b505050506040513d6020811015610b8757600080fd5b810190808051906020019092919050505060ff16905060048110158015610baf575060128111155b610c04576040517f08c379a0000000000000000000000000000000000000000000000000000000008152600401808060200182810382526029815260200180610f2d6029913960400191505060405180910390fd5b80915050919050565b6000610c4f83836040518060400160405280601e81526020017f536166654d6174683a207375627472616374696f6e206f766572666c6f770000815250610d02565b905092915050565b60006305f5e100905090565b600080831415610c765760009050610ce3565b6000828402905082848281610c8757fe5b0414610cde576040517f08c379a0000000000000000000000000000000000000000000000000000000008152600401808060200182810382526021815260200180610f566021913960400191505060405180910390fd5b809150505b92915050565b6000610cfa83836305f5e100610dc2565b905092915050565b6000838311158290610daf576040517f08c379a00000000000000000000000000000000000000000000000000000000081526004018080602001828103825283818151815260200191508051906020019080838360005b83811015610d74578082015181840152602081019050610d59565b50505050905090810190601f168015610da15780820380516001836020036101000a031916815260200191505b509250505060405180910390fd5b5060008385039050809150509392505050565b600080610dd88486610c6390919063ffffffff16565b9050610ded8382610df790919063ffffffff16565b9150509392505050565b6000610e3983836040518060400160405280601a81526020017f536166654d6174683a206469766973696f6e206279207a65726f000000000000815250610e41565b905092915050565b60008083118290610eed576040517f08c379a00000000000000000000000000000000000000000000000000000000081526004018080602001828103825283818151815260200191508051906020019080838360005b83811015610eb2578082015181840152602081019050610e97565b50505050905090810190601f168015610edf5780820380516001836020036101000a031916815260200191505b509250505060405180910390fd5b506000838581610ef957fe5b04905080915050939250505056fe436f756c64206e6f74207472616e7366657220617373657420746f206d696e74204f555344546f6b656e206d75737420686176652073756666696369656e7420646563696d616c20706c61636573536166654d6174683a206d756c7469706c69636174696f6e206f766572666c6f77a265627a7a72315820424c12a283aef2c1b23052d715683282e4cbdaeee91a7ccca15a99ff43dd44f164736f6c63430005110032",
  "devdoc": {
    "methods": {}
  },
  "userdoc": {
    "methods": {
      "depositAndMint(address,uint256)": {
        "notice": "*"
      }
    }
  },
  "storageLayout": {
    "storage": [
      {
        "astId": 3120,
        "contract": "contracts/vault/Vault.sol:Vault",
        "label": "markets",
        "offset": 0,
        "slot": "0",
        "type": "t_mapping(t_address,t_struct(Market)3116_storage)"
      },
      {
        "astId": 3123,
        "contract": "contracts/vault/Vault.sol:Vault",
        "label": "allMarkets",
        "offset": 0,
        "slot": "1",
        "type": "t_array(t_contract(IERC20)745)dyn_storage"
      },
      {
        "astId": 3125,
        "contract": "contracts/vault/Vault.sol:Vault",
        "label": "oUsd",
        "offset": 0,
        "slot": "2",
        "type": "t_contract(OUSD)2670"
      }
    ],
    "types": {
      "t_address": {
        "encoding": "inplace",
        "label": "address",
        "numberOfBytes": "20"
      },
      "t_array(t_contract(IERC20)745)dyn_storage": {
        "base": "t_contract(IERC20)745",
        "encoding": "dynamic_array",
        "label": "contract IERC20[]",
        "numberOfBytes": "32"
      },
      "t_bool": {
        "encoding": "inplace",
        "label": "bool",
        "numberOfBytes": "1"
      },
      "t_contract(IERC20)745": {
        "encoding": "inplace",
        "label": "contract IERC20",
        "numberOfBytes": "20"
      },
      "t_contract(OUSD)2670": {
        "encoding": "inplace",
        "label": "contract OUSD",
        "numberOfBytes": "20"
      },
      "t_mapping(t_address,t_struct(Market)3116_storage)": {
        "encoding": "mapping",
        "key": "t_address",
        "label": "mapping(address => struct Vault.Market)",
        "numberOfBytes": "32",
        "value": "t_struct(Market)3116_storage"
      },
      "t_struct(Market)3116_storage": {
        "encoding": "inplace",
        "label": "struct Vault.Market",
        "members": [
          {
            "astId": 3109,
            "contract": "contracts/vault/Vault.sol:Vault",
            "label": "totalBalance",
            "offset": 0,
            "slot": "0",
            "type": "t_uint256"
          },
          {
            "astId": 3111,
            "contract": "contracts/vault/Vault.sol:Vault",
            "label": "price",
            "offset": 0,
            "slot": "1",
            "type": "t_uint256"
          },
          {
            "astId": 3113,
            "contract": "contracts/vault/Vault.sol:Vault",
            "label": "ratio",
            "offset": 0,
            "slot": "2",
            "type": "t_uint256"
          },
          {
            "astId": 3115,
            "contract": "contracts/vault/Vault.sol:Vault",
            "label": "supported",
            "offset": 0,
            "slot": "3",
            "type": "t_bool"
          }
        ],
        "numberOfBytes": "128"
      },
      "t_uint256": {
        "encoding": "inplace",
        "label": "uint256",
        "numberOfBytes": "32"
      }
    }
  },
  "gasEstimates": {
    "creation": {
      "codeDepositCost": "802200",
      "executionCost": "infinite",
      "totalCost": "infinite"
    },
    "external": {
      "createMarket(address)": "infinite",
      "depositAndMint(address,uint256)": "infinite",
      "depositYield(address,uint256)": "infinite"
    }
  }
}