{
  "abi": [
    {
      "constant": false,
      "inputs": [],
      "name": "pauseDeposits",
      "outputs": [],
      "payable": false,
      "stateMutability": "nonpayable",
      "type": "function"
    },
    {
      "constant": true,
      "inputs": [],
      "name": "depositPaused",
      "outputs": [
        {
          "internalType": "bool",
          "name": "",
          "type": "bool"
        }
      ],
      "payable": false,
      "stateMutability": "view",
      "type": "function"
    },
    {
      "constant": false,
      "inputs": [],
      "name": "unpauseRebase",
      "outputs": [],
      "payable": false,
      "stateMutability": "nonpayable",
      "type": "function"
    },
    {
      "constant": true,
      "inputs": [],
      "name": "redeemFeeBps",
      "outputs": [
        {
          "internalType": "uint256",
          "name": "",
          "type": "uint256"
        }
      ],
      "payable": false,
      "stateMutability": "view",
      "type": "function"
    },
    {
      "constant": true,
      "inputs": [],
      "name": "governor",
      "outputs": [
        {
          "internalType": "address",
          "name": "",
          "type": "address"
        }
      ],
      "payable": false,
      "stateMutability": "view",
      "type": "function"
    },
    {
      "constant": false,
      "inputs": [
        {
          "internalType": "address",
          "name": "_strategyAddr",
          "type": "address"
        }
      ],
      "name": "harvest",
      "outputs": [],
      "payable": false,
      "stateMutability": "nonpayable",
      "type": "function"
    },
    {
      "constant": false,
      "inputs": [
        {
          "internalType": "address",
          "name": "_address",
          "type": "address"
        }
      ],
      "name": "setRebaseHooksAddr",
      "outputs": [],
      "payable": false,
      "stateMutability": "nonpayable",
      "type": "function"
    },
    {
      "constant": false,
      "inputs": [
        {
          "internalType": "address",
          "name": "_asset",
          "type": "address"
        },
        {
          "internalType": "uint256",
          "name": "_amount",
          "type": "uint256"
        }
      ],
      "name": "transferToken",
      "outputs": [],
      "payable": false,
      "stateMutability": "nonpayable",
      "type": "function"
    },
    {
      "constant": true,
      "inputs": [],
      "name": "uniswapAddr",
      "outputs": [
        {
          "internalType": "address",
          "name": "",
          "type": "address"
        }
      ],
      "payable": false,
      "stateMutability": "view",
      "type": "function"
    },
    {
      "constant": false,
      "inputs": [
        {
          "internalType": "address",
          "name": "_addr",
          "type": "address"
        }
      ],
      "name": "removeStrategy",
      "outputs": [],
      "payable": false,
      "stateMutability": "nonpayable",
      "type": "function"
    },
    {
      "constant": true,
      "inputs": [],
      "name": "vaultBuffer",
      "outputs": [
        {
          "internalType": "uint256",
          "name": "",
          "type": "uint256"
        }
      ],
      "payable": false,
      "stateMutability": "view",
      "type": "function"
    },
    {
      "constant": false,
      "inputs": [
        {
          "internalType": "string",
          "name": "symbol",
          "type": "string"
        }
      ],
      "name": "priceUSDRedeem",
      "outputs": [
        {
          "internalType": "uint256",
          "name": "",
          "type": "uint256"
        }
      ],
      "payable": false,
      "stateMutability": "nonpayable",
      "type": "function"
    },
    {
      "constant": false,
      "inputs": [
        {
          "internalType": "address",
          "name": "_priceProvider",
          "type": "address"
        }
      ],
      "name": "setPriceProvider",
      "outputs": [],
      "payable": false,
      "stateMutability": "nonpayable",
      "type": "function"
    },
    {
      "constant": false,
      "inputs": [],
      "name": "harvest",
      "outputs": [],
      "payable": false,
      "stateMutability": "nonpayable",
      "type": "function"
    },
    {
      "constant": false,
      "inputs": [
        {
          "internalType": "address",
          "name": "_priceProvider",
          "type": "address"
        },
        {
          "internalType": "address",
          "name": "_ousd",
          "type": "address"
        }
      ],
      "name": "initialize",
      "outputs": [],
      "payable": false,
      "stateMutability": "nonpayable",
      "type": "function"
    },
    {
      "constant": false,
      "inputs": [
        {
          "internalType": "address",
          "name": "_asset",
          "type": "address"
        }
      ],
      "name": "supportAsset",
      "outputs": [],
      "payable": false,
      "stateMutability": "nonpayable",
      "type": "function"
    },
    {
      "constant": false,
      "inputs": [
        {
          "internalType": "address[]",
          "name": "_strategyAddresses",
          "type": "address[]"
        },
        {
          "internalType": "uint256[]",
          "name": "_weights",
          "type": "uint256[]"
        }
      ],
      "name": "setStrategyWeights",
      "outputs": [],
      "payable": false,
      "stateMutability": "nonpayable",
      "type": "function"
    },
    {
      "constant": true,
      "inputs": [],
      "name": "rebaseThreshold",
      "outputs": [
        {
          "internalType": "uint256",
          "name": "",
          "type": "uint256"
        }
      ],
      "payable": false,
      "stateMutability": "view",
      "type": "function"
    },
    {
      "constant": true,
      "inputs": [],
      "name": "rebasePaused",
      "outputs": [
        {
          "internalType": "bool",
          "name": "",
          "type": "bool"
        }
      ],
      "payable": false,
      "stateMutability": "view",
      "type": "function"
    },
    {
      "constant": false,
      "inputs": [],
      "name": "claimGovernance",
      "outputs": [],
      "payable": false,
      "stateMutability": "nonpayable",
      "type": "function"
    },
    {
      "constant": false,
      "inputs": [],
      "name": "unpauseDeposits",
      "outputs": [],
      "payable": false,
      "stateMutability": "nonpayable",
      "type": "function"
    },
    {
      "constant": false,
      "inputs": [
        {
          "internalType": "string",
          "name": "symbol",
          "type": "string"
        }
      ],
      "name": "priceUSDMint",
      "outputs": [
        {
          "internalType": "uint256",
          "name": "",
          "type": "uint256"
        }
      ],
      "payable": false,
      "stateMutability": "nonpayable",
      "type": "function"
    },
    {
      "constant": true,
      "inputs": [],
      "name": "rebaseHooksAddr",
      "outputs": [
        {
          "internalType": "address",
          "name": "",
          "type": "address"
        }
      ],
      "payable": false,
      "stateMutability": "view",
      "type": "function"
    },
    {
      "constant": false,
      "inputs": [
        {
          "internalType": "uint256",
          "name": "_vaultBuffer",
          "type": "uint256"
        }
      ],
      "name": "setVaultBuffer",
      "outputs": [],
      "payable": false,
      "stateMutability": "nonpayable",
      "type": "function"
    },
    {
      "constant": true,
      "inputs": [],
      "name": "autoAllocateThreshold",
      "outputs": [
        {
          "internalType": "uint256",
          "name": "",
          "type": "uint256"
        }
      ],
      "payable": false,
      "stateMutability": "view",
      "type": "function"
    },
    {
      "constant": false,
      "inputs": [
        {
          "internalType": "address",
          "name": "_address",
          "type": "address"
        }
      ],
      "name": "setUniswapAddr",
      "outputs": [],
      "payable": false,
      "stateMutability": "nonpayable",
      "type": "function"
    },
    {
      "constant": false,
      "inputs": [
        {
          "internalType": "uint256",
          "name": "_threshold",
          "type": "uint256"
        }
      ],
      "name": "setAutoAllocateThreshold",
      "outputs": [],
      "payable": false,
      "stateMutability": "nonpayable",
      "type": "function"
    },
    {
      "constant": true,
      "inputs": [],
      "name": "priceProvider",
      "outputs": [
        {
          "internalType": "address",
          "name": "",
          "type": "address"
        }
      ],
      "payable": false,
      "stateMutability": "view",
      "type": "function"
    },
    {
      "constant": false,
      "inputs": [
        {
          "internalType": "uint256",
          "name": "_threshold",
          "type": "uint256"
        }
      ],
      "name": "setRebaseThreshold",
      "outputs": [],
      "payable": false,
      "stateMutability": "nonpayable",
      "type": "function"
    },
    {
      "constant": false,
      "inputs": [],
      "name": "pauseRebase",
      "outputs": [],
      "payable": false,
      "stateMutability": "nonpayable",
      "type": "function"
    },
    {
      "constant": true,
      "inputs": [],
      "name": "isGovernor",
      "outputs": [
        {
          "internalType": "bool",
          "name": "",
          "type": "bool"
        }
      ],
      "payable": false,
      "stateMutability": "view",
      "type": "function"
    },
    {
      "constant": false,
      "inputs": [
        {
          "internalType": "address",
          "name": "_addr",
          "type": "address"
        },
        {
          "internalType": "uint256",
          "name": "_targetWeight",
          "type": "uint256"
        }
      ],
      "name": "addStrategy",
      "outputs": [],
      "payable": false,
      "stateMutability": "nonpayable",
      "type": "function"
    },
    {
      "constant": false,
      "inputs": [
        {
          "internalType": "address",
          "name": "_newGovernor",
          "type": "address"
        }
      ],
      "name": "transferGovernance",
      "outputs": [],
      "payable": false,
      "stateMutability": "nonpayable",
      "type": "function"
    },
    {
      "constant": false,
      "inputs": [
        {
          "internalType": "uint256",
          "name": "_redeemFeeBps",
          "type": "uint256"
        }
      ],
      "name": "setRedeemFeeBps",
      "outputs": [],
      "payable": false,
      "stateMutability": "nonpayable",
      "type": "function"
    },
    {
      "constant": false,
      "inputs": [
        {
          "internalType": "address",
          "name": "newImpl",
          "type": "address"
        }
      ],
      "name": "setAdminImpl",
      "outputs": [],
      "payable": false,
      "stateMutability": "nonpayable",
      "type": "function"
    },
    {
      "anonymous": false,
      "inputs": [
        {
          "indexed": false,
          "internalType": "address",
          "name": "_asset",
          "type": "address"
        }
      ],
      "name": "AssetSupported",
      "type": "event"
    },
    {
      "anonymous": false,
      "inputs": [
        {
          "indexed": false,
          "internalType": "address",
          "name": "_addr",
          "type": "address"
        }
      ],
      "name": "StrategyAdded",
      "type": "event"
    },
    {
      "anonymous": false,
      "inputs": [
        {
          "indexed": false,
          "internalType": "address",
          "name": "_addr",
          "type": "address"
        }
      ],
      "name": "StrategyRemoved",
      "type": "event"
    },
    {
      "anonymous": false,
      "inputs": [
        {
          "indexed": false,
          "internalType": "address",
          "name": "_addr",
          "type": "address"
        },
        {
          "indexed": false,
          "internalType": "uint256",
          "name": "_value",
          "type": "uint256"
        }
      ],
      "name": "Mint",
      "type": "event"
    },
    {
      "anonymous": false,
      "inputs": [
        {
          "indexed": false,
          "internalType": "address",
          "name": "_addr",
          "type": "address"
        },
        {
          "indexed": false,
          "internalType": "uint256",
          "name": "_value",
          "type": "uint256"
        }
      ],
      "name": "Redeem",
      "type": "event"
    },
    {
      "anonymous": false,
      "inputs": [
        {
          "indexed": false,
          "internalType": "address[]",
          "name": "_strategyAddresses",
          "type": "address[]"
        },
        {
          "indexed": false,
          "internalType": "uint256[]",
          "name": "weights",
          "type": "uint256[]"
        }
      ],
      "name": "StrategyWeightsUpdated",
      "type": "event"
    },
    {
      "anonymous": false,
      "inputs": [],
      "name": "DepositsPaused",
      "type": "event"
    },
    {
      "anonymous": false,
      "inputs": [],
      "name": "DepositsUnpaused",
      "type": "event"
    },
    {
      "anonymous": false,
      "inputs": [
        {
          "indexed": true,
          "internalType": "address",
          "name": "previousGovernor",
          "type": "address"
        },
        {
          "indexed": true,
          "internalType": "address",
          "name": "newGovernor",
          "type": "address"
        }
      ],
      "name": "PendingGovernorshipTransfer",
      "type": "event"
    },
    {
      "anonymous": false,
      "inputs": [
        {
          "indexed": true,
          "internalType": "address",
          "name": "previousGovernor",
          "type": "address"
        },
        {
          "indexed": true,
          "internalType": "address",
          "name": "newGovernor",
          "type": "address"
        }
      ],
      "name": "GovernorshipTransferred",
      "type": "event"
    }
  ],
  "address": "0xF5fee8E20aBdD1C967eb3316e8aF5327Ca4F0499",
  "args": [],
  "solcInputHash": "0x0e66eca09991d158dd0b3fb638567bed14aa33de043be2483d1bb80fa5d4daf7",
  "bytecode": "0x60806040526000603760146101000a81548160ff0219169083151502179055506001603760156101000a81548160ff0219169083151502179055506000603d60006101000a81548173ffffffffffffffffffffffffffffffffffffffff021916908373ffffffffffffffffffffffffffffffffffffffff1602179055506000603e60006101000a81548173ffffffffffffffffffffffffffffffffffffffff021916908373ffffffffffffffffffffffffffffffffffffffff160217905550620000cf336200013f60201b60201c565b620000df6200016e60201b60201c565b73ffffffffffffffffffffffffffffffffffffffff16600073ffffffffffffffffffffffffffffffffffffffff167fc7c0c772add429241571afb3805861fb3cfa2af374534088b76cdb4325a87e9a60405160405180910390a36200019f565b60007f7bea13895fa79d2831e0a9e28edede30099005a50d652d8957cf8a607ee6ca4a60001b90508181555050565b6000807f7bea13895fa79d2831e0a9e28edede30099005a50d652d8957cf8a607ee6ca4a60001b9050805491505090565b613b8180620001af6000396000f3fe608060405234801561001057600080fd5b50600436106102115760003560e01c806352d38e5d11610125578063b2c9336d116100ad578063c7af33521161007c578063c7af3352146108f2578063c9411e2214610914578063d38bfff414610962578063eb03654b146109a6578063fc0cfeee146109d457610211565b8063b2c9336d14610842578063b888879e14610870578063b890ebf6146108ba578063c5f00841146108e857610211565b8063686b37ca116100f4578063686b37ca146106db578063796be57b146107685780638ec489a2146107b25780639fa1826e146107e0578063aea173d5146107fe57610211565b806352d38e5d1461068757806353ca9f24146106a55780635d36b190146106c757806363d8882a146106d157610211565b8063128a8b05116101a8578063372aa22411610177578063372aa224146104c35780634641257d14610507578063485cc955146105115780634cd55c2d146105755780634dab68b3146105b957610211565b8063128a8b051461038a578063175188e8146103d45780631edfe3da1461041857806329a903ec1461043657610211565b80630c340a24116101e45780630c340a241461026a5780630e5c011e146102b45780631060a27c146102f85780631072cbea1461033c57610211565b8063021919801461021657806302befd241461022057806309f49bf51461024257806309f6442c1461024c575b600080fd5b61021e610a18565b005b610228610adb565b604051808215151515815260200191505060405180910390f35b61024a610aee565b005b610254610b85565b6040518082815260200191505060405180910390f35b610272610b8b565b604051808273ffffffffffffffffffffffffffffffffffffffff1673ffffffffffffffffffffffffffffffffffffffff16815260200191505060405180910390f35b6102f6600480360360208110156102ca57600080fd5b81019080803573ffffffffffffffffffffffffffffffffffffffff169060200190929190505050610b9a565b005b61033a6004803603602081101561030e57600080fd5b81019080803573ffffffffffffffffffffffffffffffffffffffff169060200190929190505050610c39565b005b6103886004803603604081101561035257600080fd5b81019080803573ffffffffffffffffffffffffffffffffffffffff16906020019092919080359060200190929190505050610cf7565b005b610392610e3f565b604051808273ffffffffffffffffffffffffffffffffffffffff1673ffffffffffffffffffffffffffffffffffffffff16815260200191505060405180910390f35b610416600480360360208110156103ea57600080fd5b81019080803573ffffffffffffffffffffffffffffffffffffffff169060200190929190505050610e65565b005b610420611271565b6040518082815260200191505060405180910390f35b6104ad6004803603602081101561044c57600080fd5b810190808035906020019064010000000081111561046957600080fd5b82018360208201111561047b57600080fd5b8035906020019184600183028401116401000000008311171561049d57600080fd5b9091929391929390505050611277565b6040518082815260200191505060405180910390f35b610505600480360360208110156104d957600080fd5b81019080803573ffffffffffffffffffffffffffffffffffffffff1690602001909291905050506112ce565b005b61050f61138c565b005b6105736004803603604081101561052757600080fd5b81019080803573ffffffffffffffffffffffffffffffffffffffff169060200190929190803573ffffffffffffffffffffffffffffffffffffffff169060200190929190505050611469565b005b6105b76004803603602081101561058b57600080fd5b81019080803573ffffffffffffffffffffffffffffffffffffffff169060200190929190505050611813565b005b610685600480360360408110156105cf57600080fd5b81019080803590602001906401000000008111156105ec57600080fd5b8201836020820111156105fe57600080fd5b8035906020019184602083028401116401000000008311171561062057600080fd5b90919293919293908035906020019064010000000081111561064157600080fd5b82018360208201111561065357600080fd5b8035906020019184602083028401116401000000008311171561067557600080fd5b9091929391929390505050611a90565b005b61068f611cc8565b6040518082815260200191505060405180910390f35b6106ad611cce565b604051808215151515815260200191505060405180910390f35b6106cf611ce1565b005b6106d9611d77565b005b610752600480360360208110156106f157600080fd5b810190808035906020019064010000000081111561070e57600080fd5b82018360208201111561072057600080fd5b8035906020019184600183028401116401000000008311171561074257600080fd5b9091929391929390505050611e3a565b6040518082815260200191505060405180910390f35b610770611e91565b604051808273ffffffffffffffffffffffffffffffffffffffff1673ffffffffffffffffffffffffffffffffffffffff16815260200191505060405180910390f35b6107de600480360360208110156107c857600080fd5b8101908080359060200190929190505050611eb7565b005b6107e8611f3b565b6040518082815260200191505060405180910390f35b6108406004803603602081101561081457600080fd5b81019080803573ffffffffffffffffffffffffffffffffffffffff169060200190929190505050611f41565b005b61086e6004803603602081101561085857600080fd5b8101908080359060200190929190505050611fff565b005b610878612083565b604051808273ffffffffffffffffffffffffffffffffffffffff1673ffffffffffffffffffffffffffffffffffffffff16815260200191505060405180910390f35b6108e6600480360360208110156108d057600080fd5b81019080803590602001909291905050506120a9565b005b6108f061212d565b005b6108fa6121c4565b604051808215151515815260200191505060405180910390f35b6109606004803603604081101561092a57600080fd5b81019080803573ffffffffffffffffffffffffffffffffffffffff16906020019092919080359060200190929190505050612201565b005b6109a46004803603602081101561097857600080fd5b81019080803573ffffffffffffffffffffffffffffffffffffffff16906020019092919050505061248f565b005b6109d2600480360360208110156109bc57600080fd5b8101908080359060200190929190505050612576565b005b610a16600480360360208110156109ea57600080fd5b81019080803573ffffffffffffffffffffffffffffffffffffffff1690602001909291905050506125fa565b005b610a206121c4565b610a92576040517f08c379a000000000000000000000000000000000000000000000000000000000815260040180806020018281038252601a8152602001807f43616c6c6572206973206e6f742074686520476f7665726e6f7200000000000081525060200191505060405180910390fd5b6001603760156101000a81548160ff0219169083151502179055507fdeeb69430b7153361c25d630947115165636e6a723fa8daea4b0de34b324745960405160405180910390a1565b603760159054906101000a900460ff1681565b610af66121c4565b610b68576040517f08c379a000000000000000000000000000000000000000000000000000000000815260040180806020018281038252601a8152602001807f43616c6c6572206973206e6f742074686520476f7665726e6f7200000000000081525060200191505060405180910390fd5b6000603760146101000a81548160ff021916908315150217905550565b60385481565b6000610b956126a3565b905090565b3073ffffffffffffffffffffffffffffffffffffffff163373ffffffffffffffffffffffffffffffffffffffff161480610bd85750610bd76121c4565b5b610c2d576040517f08c379a0000000000000000000000000000000000000000000000000000000008152600401808060200182810382526023815260200180613a4b6023913960400191505060405180910390fd5b610c36816126d4565b50565b610c416121c4565b610cb3576040517f08c379a000000000000000000000000000000000000000000000000000000000815260040180806020018281038252601a8152602001807f43616c6c6572206973206e6f742074686520476f7665726e6f7200000000000081525060200191505060405180910390fd5b80603d60006101000a81548173ffffffffffffffffffffffffffffffffffffffff021916908373ffffffffffffffffffffffffffffffffffffffff16021790555050565b610cff6121c4565b610d71576040517f08c379a000000000000000000000000000000000000000000000000000000000815260040180806020018281038252601a8152602001807f43616c6c6572206973206e6f742074686520476f7665726e6f7200000000000081525060200191505060405180910390fd5b8173ffffffffffffffffffffffffffffffffffffffff1663a9059cbb610d95610b8b565b836040518363ffffffff1660e01b8152600401808373ffffffffffffffffffffffffffffffffffffffff1673ffffffffffffffffffffffffffffffffffffffff16815260200182815260200192505050602060405180830381600087803b158015610dff57600080fd5b505af1158015610e13573d6000803e3d6000fd5b505050506040513d6020811015610e2957600080fd5b8101908080519060200190929190505050505050565b603e60009054906101000a900473ffffffffffffffffffffffffffffffffffffffff1681565b610e6d6121c4565b610edf576040517f08c379a000000000000000000000000000000000000000000000000000000000815260040180806020018281038252601a8152602001807f43616c6c6572206973206e6f742074686520476f7665726e6f7200000000000081525060200191505060405180910390fd5b603560008273ffffffffffffffffffffffffffffffffffffffff1673ffffffffffffffffffffffffffffffffffffffff16815260200190815260200160002060000160009054906101000a900460ff16610fa1576040517f08c379a00000000000000000000000000000000000000000000000000000000081526004018080602001828103825260128152602001807f5374726174656779206e6f74206164646564000000000000000000000000000081525060200191505060405180910390fd5b6000603680549050905060008090505b60368054905081101561103e578273ffffffffffffffffffffffffffffffffffffffff1660368281548110610fe257fe5b9060005260206000200160009054906101000a900473ffffffffffffffffffffffffffffffffffffffff1673ffffffffffffffffffffffffffffffffffffffff1614156110315780915061103e565b8080600101915050610fb1565b506036805490508110156111ca5760366001603680549050038154811061106157fe5b9060005260206000200160009054906101000a900473ffffffffffffffffffffffffffffffffffffffff166036828154811061109957fe5b9060005260206000200160006101000a81548173ffffffffffffffffffffffffffffffffffffffff021916908373ffffffffffffffffffffffffffffffffffffffff16021790555060368054809190600190036110f691906139f9565b5060008290508073ffffffffffffffffffffffffffffffffffffffff166328a070256040518163ffffffff1660e01b8152600401600060405180830381600087803b15801561114457600080fd5b505af1158015611158573d6000803e3d6000fd5b50505050611165836126d4565b7f09a1db4b80c32706328728508c941a6b954f31eb5affd32f236c1fd405f8fea483604051808273ffffffffffffffffffffffffffffffffffffffff1673ffffffffffffffffffffffffffffffffffffffff16815260200191505060405180910390a1505b6000603560008473ffffffffffffffffffffffffffffffffffffffff1673ffffffffffffffffffffffffffffffffffffffff16815260200190815260200160002060000160006101000a81548160ff0219169083151502179055506000603560008473ffffffffffffffffffffffffffffffffffffffff1673ffffffffffffffffffffffffffffffffffffffff168152602001908152602001600020600101819055505050565b60395481565b60006112c683838080601f016020809104026020016040519081016040528093929190818152602001838380828437600081840152601f19601f82011690508083019250505050505050612e8c565b905092915050565b6112d66121c4565b611348576040517f08c379a000000000000000000000000000000000000000000000000000000000815260040180806020018281038252601a8152602001807f43616c6c6572206973206e6f742074686520476f7665726e6f7200000000000081525060200191505060405180910390fd5b80603760006101000a81548173ffffffffffffffffffffffffffffffffffffffff021916908373ffffffffffffffffffffffffffffffffffffffff16021790555050565b6113946121c4565b611406576040517f08c379a000000000000000000000000000000000000000000000000000000000815260040180806020018281038252601a8152602001807f43616c6c6572206973206e6f742074686520476f7665726e6f7200000000000081525060200191505060405180910390fd5b60008090505b603680549050811015611466576114596036828154811061142957fe5b9060005260206000200160009054906101000a900473ffffffffffffffffffffffffffffffffffffffff166126d4565b808060010191505061140c565b50565b6114716121c4565b6114e3576040517f08c379a000000000000000000000000000000000000000000000000000000000815260040180806020018281038252601a8152602001807f43616c6c6572206973206e6f742074686520476f7665726e6f7200000000000081525060200191505060405180910390fd5b600060019054906101000a900460ff16806115025750611501612fbd565b5b8061151957506000809054906101000a900460ff16155b61156e576040517f08c379a000000000000000000000000000000000000000000000000000000000815260040180806020018281038252602e815260200180613a8f602e913960400191505060405180910390fd5b60008060019054906101000a900460ff1615905080156115be576001600060016101000a81548160ff02191690831515021790555060016000806101000a81548160ff0219169083151502179055505b600073ffffffffffffffffffffffffffffffffffffffff168373ffffffffffffffffffffffffffffffffffffffff161415611661576040517f08c379a000000000000000000000000000000000000000000000000000000000815260040180806020018281038252601d8152602001807f507269636550726f76696465722061646472657373206973207a65726f00000081525060200191505060405180910390fd5b600073ffffffffffffffffffffffffffffffffffffffff168273ffffffffffffffffffffffffffffffffffffffff161415611704576040517f08c379a00000000000000000000000000000000000000000000000000000000081526004018080602001828103825260148152602001807f6f5553442061646472657373206973207a65726f00000000000000000000000081525060200191505060405180910390fd5b81603c60006101000a81548173ffffffffffffffffffffffffffffffffffffffff021916908373ffffffffffffffffffffffffffffffffffffffff16021790555082603760006101000a81548173ffffffffffffffffffffffffffffffffffffffff021916908373ffffffffffffffffffffffffffffffffffffffff1602179055506000603760146101000a81548160ff0219169083151502179055506001603760156101000a81548160ff0219169083151502179055506000603881905550600060398190555069054b40b1f852bda00000603a81905550683635c9adc5dea00000603b81905550801561180e5760008060016101000a81548160ff0219169083151502179055505b505050565b61181b6121c4565b61188d576040517f08c379a000000000000000000000000000000000000000000000000000000000815260040180806020018281038252601a8152602001807f43616c6c6572206973206e6f742074686520476f7665726e6f7200000000000081525060200191505060405180910390fd5b603360008273ffffffffffffffffffffffffffffffffffffffff1673ffffffffffffffffffffffffffffffffffffffff16815260200190815260200160002060000160009054906101000a900460ff1615611950576040517f08c379a00000000000000000000000000000000000000000000000000000000081526004018080602001828103825260178152602001807f417373657420616c726561647920737570706f7274656400000000000000000081525060200191505060405180910390fd5b604051806020016040528060011515815250603360008373ffffffffffffffffffffffffffffffffffffffff1673ffffffffffffffffffffffffffffffffffffffff16815260200190815260200160002060008201518160000160006101000a81548160ff02191690831515021790555090505060348190806001815401808255809150509060018203906000526020600020016000909192909190916101000a81548173ffffffffffffffffffffffffffffffffffffffff021916908373ffffffffffffffffffffffffffffffffffffffff160217905550507f4f1ac48525e50059cc1cc6e0e1940ece0dd653a4db4841538d6aef036be2fb7b81604051808273ffffffffffffffffffffffffffffffffffffffff1673ffffffffffffffffffffffffffffffffffffffff16815260200191505060405180910390a150565b611a986121c4565b611b0a576040517f08c379a000000000000000000000000000000000000000000000000000000000815260040180806020018281038252601a8152602001807f43616c6c6572206973206e6f742074686520476f7665726e6f7200000000000081525060200191505060405180910390fd5b818190508484905014611b85576040517f08c379a00000000000000000000000000000000000000000000000000000000081526004018080602001828103825260198152602001807f506172616d65746572206c656e677468206d69736d617463680000000000000081525060200191505060405180910390fd5b60008090505b84849050811015611c2457828282818110611ba257fe5b9050602002013560356000878785818110611bb957fe5b9050602002013573ffffffffffffffffffffffffffffffffffffffff1673ffffffffffffffffffffffffffffffffffffffff1673ffffffffffffffffffffffffffffffffffffffff168152602001908152602001600020600101819055508080600101915050611b8b565b507f96f2c15ff9c9cea757ec12e3f9aaa7705c3d0a154ee1e71c6e1221c8de0b7762848484846040518080602001806020018381038352878782818152602001925060200280828437600081840152601f19601f8201169050808301925050508381038252858582818152602001925060200280828437600081840152601f19601f820116905080830192505050965050505050505060405180910390a150505050565b603b5481565b603760149054906101000a900460ff1681565b611ce9612fd4565b73ffffffffffffffffffffffffffffffffffffffff163373ffffffffffffffffffffffffffffffffffffffff1614611d6c576040517f08c379a0000000000000000000000000000000000000000000000000000000008152600401808060200182810382526030815260200180613b1d6030913960400191505060405180910390fd5b611d7533613005565b565b611d7f6121c4565b611df1576040517f08c379a000000000000000000000000000000000000000000000000000000000815260040180806020018281038252601a8152602001807f43616c6c6572206973206e6f742074686520476f7665726e6f7200000000000081525060200191505060405180910390fd5b6000603760156101000a81548160ff0219169083151502179055507f823084e804e36d8971e8b86749b6b0ace7b9f87ed272bef910c1e72d123eeb4860405160405180910390a1565b6000611e8983838080601f016020809104026020016040519081016040528093929190818152602001838380828437600081840152601f19601f82011690508083019250505050505050613115565b905092915050565b603d60009054906101000a900473ffffffffffffffffffffffffffffffffffffffff1681565b611ebf6121c4565b611f31576040517f08c379a000000000000000000000000000000000000000000000000000000000815260040180806020018281038252601a8152602001807f43616c6c6572206973206e6f742074686520476f7665726e6f7200000000000081525060200191505060405180910390fd5b8060398190555050565b603a5481565b611f496121c4565b611fbb576040517f08c379a000000000000000000000000000000000000000000000000000000000815260040180806020018281038252601a8152602001807f43616c6c6572206973206e6f742074686520476f7665726e6f7200000000000081525060200191505060405180910390fd5b80603e60006101000a81548173ffffffffffffffffffffffffffffffffffffffff021916908373ffffffffffffffffffffffffffffffffffffffff16021790555050565b6120076121c4565b612079576040517f08c379a000000000000000000000000000000000000000000000000000000000815260040180806020018281038252601a8152602001807f43616c6c6572206973206e6f742074686520476f7665726e6f7200000000000081525060200191505060405180910390fd5b80603a8190555050565b603760009054906101000a900473ffffffffffffffffffffffffffffffffffffffff1681565b6120b16121c4565b612123576040517f08c379a000000000000000000000000000000000000000000000000000000000815260040180806020018281038252601a8152602001807f43616c6c6572206973206e6f742074686520476f7665726e6f7200000000000081525060200191505060405180910390fd5b80603b8190555050565b6121356121c4565b6121a7576040517f08c379a000000000000000000000000000000000000000000000000000000000815260040180806020018281038252601a8152602001807f43616c6c6572206973206e6f742074686520476f7665726e6f7200000000000081525060200191505060405180910390fd5b6001603760146101000a81548160ff021916908315150217905550565b60006121ce6126a3565b73ffffffffffffffffffffffffffffffffffffffff163373ffffffffffffffffffffffffffffffffffffffff1614905090565b6122096121c4565b61227b576040517f08c379a000000000000000000000000000000000000000000000000000000000815260040180806020018281038252601a8152602001807f43616c6c6572206973206e6f742074686520476f7665726e6f7200000000000081525060200191505060405180910390fd5b603560008373ffffffffffffffffffffffffffffffffffffffff1673ffffffffffffffffffffffffffffffffffffffff16815260200190815260200160002060000160009054906101000a900460ff161561233e576040517f08c379a00000000000000000000000000000000000000000000000000000000081526004018080602001828103825260168152602001807f537472617465677920616c72656164792061646465640000000000000000000081525060200191505060405180910390fd5b604051806040016040528060011515815260200182815250603560008473ffffffffffffffffffffffffffffffffffffffff1673ffffffffffffffffffffffffffffffffffffffff16815260200190815260200160002060008201518160000160006101000a81548160ff0219169083151502179055506020820151816001015590505060368290806001815401808255809150509060018203906000526020600020016000909192909190916101000a81548173ffffffffffffffffffffffffffffffffffffffff021916908373ffffffffffffffffffffffffffffffffffffffff160217905550507f3f008fd510eae7a9e7bee13513d7b83bef8003d488b5a3d0b0da4de71d6846f182604051808273ffffffffffffffffffffffffffffffffffffffff1673ffffffffffffffffffffffffffffffffffffffff16815260200191505060405180910390a15050565b6124976121c4565b612509576040517f08c379a000000000000000000000000000000000000000000000000000000000815260040180806020018281038252601a8152602001807f43616c6c6572206973206e6f742074686520476f7665726e6f7200000000000081525060200191505060405180910390fd5b61251281613246565b8073ffffffffffffffffffffffffffffffffffffffff166125316126a3565b73ffffffffffffffffffffffffffffffffffffffff167fa39cc5eb22d0f34d8beaefee8a3f17cc229c1a1d1ef87a5ad47313487b1c4f0d60405160405180910390a350565b61257e6121c4565b6125f0576040517f08c379a000000000000000000000000000000000000000000000000000000000815260040180806020018281038252601a8152602001807f43616c6c6572206973206e6f742074686520476f7665726e6f7200000000000081525060200191505060405180910390fd5b8060388190555050565b6126026121c4565b612674576040517f08c379a000000000000000000000000000000000000000000000000000000000815260040180806020018281038252601a8152602001807f43616c6c6572206973206e6f742074686520476f7665726e6f7200000000000081525060200191505060405180910390fd5b60007fa2bd3d3cf188a41358c8b401076eb59066b09dec5775650c0de4c55187d17bd960001b90508181555050565b6000807f7bea13895fa79d2831e0a9e28edede30099005a50d652d8957cf8a607ee6ca4a60001b9050805491505090565b600081905060008173ffffffffffffffffffffffffffffffffffffffff1663125f9e336040518163ffffffff1660e01b815260040160206040518083038186803b15801561272157600080fd5b505afa158015612735573d6000803e3d6000fd5b505050506040513d602081101561274b57600080fd5b81019080805190602001909291905050509050600073ffffffffffffffffffffffffffffffffffffffff168173ffffffffffffffffffffffffffffffffffffffff1614612e87578173ffffffffffffffffffffffffffffffffffffffff16630242241d6040518163ffffffff1660e01b8152600401600060405180830381600087803b1580156127da57600080fd5b505af11580156127ee573d6000803e3d6000fd5b50505050600073ffffffffffffffffffffffffffffffffffffffff16603e60009054906101000a900473ffffffffffffffffffffffffffffffffffffffff1673ffffffffffffffffffffffffffffffffffffffff1614612e865760008273ffffffffffffffffffffffffffffffffffffffff1663125f9e336040518163ffffffff1660e01b815260040160206040518083038186803b15801561289057600080fd5b505afa1580156128a4573d6000803e3d6000fd5b505050506040513d60208110156128ba57600080fd5b8101908080519060200190929190505050905060008173ffffffffffffffffffffffffffffffffffffffff166370a08231306040518263ffffffff1660e01b8152600401808273ffffffffffffffffffffffffffffffffffffffff1673ffffffffffffffffffffffffffffffffffffffff16815260200191505060206040518083038186803b15801561294c57600080fd5b505afa158015612960573d6000803e3d6000fd5b505050506040513d602081101561297657600080fd5b810190808051906020019092919050505090506000811115612e83576129e0603e60009054906101000a900473ffffffffffffffffffffffffffffffffffffffff1660008473ffffffffffffffffffffffffffffffffffffffff166132759092919063ffffffff16565b612a2d603e60009054906101000a900473ffffffffffffffffffffffffffffffffffffffff16828473ffffffffffffffffffffffffffffffffffffffff166132759092919063ffffffff16565b60606003604051908082528060200260200182016040528015612a5f5781602001602082028038833980820191505090505b5090508473ffffffffffffffffffffffffffffffffffffffff1663125f9e336040518163ffffffff1660e01b815260040160206040518083038186803b158015612aa857600080fd5b505afa158015612abc573d6000803e3d6000fd5b505050506040513d6020811015612ad257600080fd5b810190808051906020019092919050505081600081518110612af057fe5b602002602001019073ffffffffffffffffffffffffffffffffffffffff16908173ffffffffffffffffffffffffffffffffffffffff1681525050603e60009054906101000a900473ffffffffffffffffffffffffffffffffffffffff1673ffffffffffffffffffffffffffffffffffffffff1663ad5c46486040518163ffffffff1660e01b815260040160206040518083038186803b158015612b9257600080fd5b505afa158015612ba6573d6000803e3d6000fd5b505050506040513d6020811015612bbc57600080fd5b810190808051906020019092919050505081600181518110612bda57fe5b602002602001019073ffffffffffffffffffffffffffffffffffffffff16908173ffffffffffffffffffffffffffffffffffffffff16815250506034600181548110612c2257fe5b9060005260206000200160009054906101000a900473ffffffffffffffffffffffffffffffffffffffff1681600281518110612c5a57fe5b602002602001019073ffffffffffffffffffffffffffffffffffffffff16908173ffffffffffffffffffffffffffffffffffffffff1681525050603e60009054906101000a900473ffffffffffffffffffffffffffffffffffffffff1673ffffffffffffffffffffffffffffffffffffffff166338ed17398360008430612cec6107084261349590919063ffffffff16565b6040518663ffffffff1660e01b815260040180868152602001858152602001806020018473ffffffffffffffffffffffffffffffffffffffff1673ffffffffffffffffffffffffffffffffffffffff168152602001838152602001828103825285818151815260200191508051906020019060200280838360005b83811015612d82578082015181840152602081019050612d67565b505050509050019650505050505050600060405180830381600087803b158015612dab57600080fd5b505af1158015612dbf573d6000803e3d6000fd5b505050506040513d6000823e3d601f19601f820116820180604052506020811015612de957600080fd5b8101908080516040519392919084640100000000821115612e0957600080fd5b83820191506020820185811115612e1f57600080fd5b8251866020820283011164010000000082111715612e3c57600080fd5b8083526020830192505050908051906020019060200280838360005b83811015612e73578082015181840152602081019050612e58565b5050505090500160405250505050505b50505b5b505050565b6000612fb6600a603760009054906101000a900473ffffffffffffffffffffffffffffffffffffffff1673ffffffffffffffffffffffffffffffffffffffff16637bf0c215856040518263ffffffff1660e01b81526004018080602001828103825283818151815260200191508051906020019080838360005b83811015612f21578082015181840152602081019050612f06565b50505050905090810190601f168015612f4e5780820380516001836020036101000a031916815260200191505b5092505050602060405180830381600087803b158015612f6d57600080fd5b505af1158015612f81573d6000803e3d6000fd5b505050506040513d6020811015612f9757600080fd5b810190808051906020019092919050505061351d90919063ffffffff16565b9050919050565b6000803090506000813b9050600081149250505090565b6000807f44c4d30b2eaad5130ad70c3ba6972730566f3e6359ab83e800d905c61b1c51db60001b9050805491505090565b600073ffffffffffffffffffffffffffffffffffffffff168173ffffffffffffffffffffffffffffffffffffffff1614156130a8576040517f08c379a000000000000000000000000000000000000000000000000000000000815260040180806020018281038252601a8152602001807f4e657720476f7665726e6f72206973206164647265737328302900000000000081525060200191505060405180910390fd5b8073ffffffffffffffffffffffffffffffffffffffff166130c76126a3565b73ffffffffffffffffffffffffffffffffffffffff167fc7c0c772add429241571afb3805861fb3cfa2af374534088b76cdb4325a87e9a60405160405180910390a36131128161359e565b50565b600061323f600a603760009054906101000a900473ffffffffffffffffffffffffffffffffffffffff1673ffffffffffffffffffffffffffffffffffffffff166319af6bf0856040518263ffffffff1660e01b81526004018080602001828103825283818151815260200191508051906020019080838360005b838110156131aa57808201518184015260208101905061318f565b50505050905090810190601f1680156131d75780820380516001836020036101000a031916815260200191505b5092505050602060405180830381600087803b1580156131f657600080fd5b505af115801561320a573d6000803e3d6000fd5b505050506040513d602081101561322057600080fd5b810190808051906020019092919050505061351d90919063ffffffff16565b9050919050565b60007f44c4d30b2eaad5130ad70c3ba6972730566f3e6359ab83e800d905c61b1c51db60001b90508181555050565b600081148061336f575060008373ffffffffffffffffffffffffffffffffffffffff1663dd62ed3e30856040518363ffffffff1660e01b8152600401808373ffffffffffffffffffffffffffffffffffffffff1673ffffffffffffffffffffffffffffffffffffffff1681526020018273ffffffffffffffffffffffffffffffffffffffff1673ffffffffffffffffffffffffffffffffffffffff1681526020019250505060206040518083038186803b15801561333257600080fd5b505afa158015613346573d6000803e3d6000fd5b505050506040513d602081101561335c57600080fd5b8101908080519060200190929190505050145b6133c4576040517f08c379a0000000000000000000000000000000000000000000000000000000008152600401808060200182810382526036815260200180613ae76036913960400191505060405180910390fd5b613490838473ffffffffffffffffffffffffffffffffffffffff1663095ea7b3905060e01b8484604051602401808373ffffffffffffffffffffffffffffffffffffffff1673ffffffffffffffffffffffffffffffffffffffff16815260200182815260200192505050604051602081830303815290604052907bffffffffffffffffffffffffffffffffffffffffffffffffffffffff19166020820180517bffffffffffffffffffffffffffffffffffffffffffffffffffffffff83818316178352505050506135cd565b505050565b600080828401905083811015613513576040517f08c379a000000000000000000000000000000000000000000000000000000000815260040180806020018281038252601b8152602001807f536166654d6174683a206164646974696f6e206f766572666c6f77000000000081525060200191505060405180910390fd5b8091505092915050565b6000808260000b131561354a576135438260000b600a0a8461381890919063ffffffff16565b9250613595565b60008260000b1215613594576135917fffffffffffffffffffffffffffffffffffffffffffffffffffffffffffffffff830260000b600a0a8461389e90919063ffffffff16565b92505b5b82905092915050565b60007f7bea13895fa79d2831e0a9e28edede30099005a50d652d8957cf8a607ee6ca4a60001b90508181555050565b6135ec8273ffffffffffffffffffffffffffffffffffffffff166138e8565b61365e576040517f08c379a000000000000000000000000000000000000000000000000000000000815260040180806020018281038252601f8152602001807f5361666545524332303a2063616c6c20746f206e6f6e2d636f6e74726163740081525060200191505060405180910390fd5b600060608373ffffffffffffffffffffffffffffffffffffffff16836040518082805190602001908083835b602083106136ad578051825260208201915060208101905060208303925061368a565b6001836020036101000a0380198251168184511680821785525050505050509050019150506000604051808303816000865af19150503d806000811461370f576040519150601f19603f3d011682016040523d82523d6000602084013e613714565b606091505b50915091508161378c576040517f08c379a00000000000000000000000000000000000000000000000000000000081526004018080602001828103825260208152602001807f5361666545524332303a206c6f772d6c6576656c2063616c6c206661696c656481525060200191505060405180910390fd5b600081511115613812578080602001905160208110156137ab57600080fd5b8101908080519060200190929190505050613811576040517f08c379a000000000000000000000000000000000000000000000000000000000815260040180806020018281038252602a815260200180613abd602a913960400191505060405180910390fd5b5b50505050565b60008083141561382b5760009050613898565b600082840290508284828161383c57fe5b0414613893576040517f08c379a0000000000000000000000000000000000000000000000000000000008152600401808060200182810382526021815260200180613a6e6021913960400191505060405180910390fd5b809150505b92915050565b60006138e083836040518060400160405280601a81526020017f536166654d6174683a206469766973696f6e206279207a65726f000000000000815250613933565b905092915050565b60008060007fc5d2460186f7233c927e7db2dcc703c0e500b653ca82273b7bfad8045d85a47060001b9050833f915080821415801561392a57506000801b8214155b92505050919050565b600080831182906139df576040517f08c379a00000000000000000000000000000000000000000000000000000000081526004018080602001828103825283818151815260200191508051906020019080838360005b838110156139a4578082015181840152602081019050613989565b50505050905090810190601f1680156139d15780820380516001836020036101000a031916815260200191505b509250505060405180910390fd5b5060008385816139eb57fe5b049050809150509392505050565b815481835581811115613a2057818360005260206000209182019101613a1f9190613a25565b5b505050565b613a4791905b80821115613a43576000816000905550600101613a2b565b5090565b9056fe43616c6c6572206973206e6f7420746865205661756c74206f7220476f7665726e6f72536166654d6174683a206d756c7469706c69636174696f6e206f766572666c6f77436f6e747261637420696e7374616e63652068617320616c7265616479206265656e20696e697469616c697a65645361666545524332303a204552433230206f7065726174696f6e20646964206e6f7420737563636565645361666545524332303a20617070726f76652066726f6d206e6f6e2d7a65726f20746f206e6f6e2d7a65726f20616c6c6f77616e63654f6e6c79207468652070656e64696e6720476f7665726e6f722063616e20636f6d706c6574652074686520636c61696da265627a7a7231582010c38c77f6504cb0e3eed95feb5f21bdf704409f013b9288aeac117fcbef411b64736f6c634300050b0032",
  "devdoc": {
    "methods": {
      "addStrategy(address,uint256)": {
        "details": "Add a strategy to the Vault.",
        "params": {
          "_addr": "Address of the strategy to add",
          "_targetWeight": "Target percentage of asset allocation to strategy"
        }
      },
      "claimGovernance()": {
        "details": "Claim Governance of the contract to a new account (`newGovernor`). Can only be called by the new Governor."
      },
      "governor()": {
        "details": "Returns the address of the current Governor."
      },
      "harvest()": {
        "details": "Collect reward tokens from all strategies and swap for supported     stablecoin via Uniswap"
      },
      "harvest(address)": {
        "details": "Collect reward tokens for a specific strategy and swap for supported     stablecoin via Uniswap",
        "params": {
          "_strategyAddr": "Address of the strategy to collect rewards from"
        }
      },
      "isGovernor()": {
        "details": "Returns true if the caller is the current Governor."
      },
      "pauseDeposits()": {
        "details": "Set the deposit paused flag to true to prevent deposits."
      },
      "pauseRebase()": {
        "details": "Set the deposit paused flag to true to prevent rebasing."
      },
      "priceUSDMint(string)": {
        "details": "Returns the total price in 18 digit USD for a given asset.     Using Min since min is what we use for mint pricing",
        "params": {
          "symbol": "String symbol of the asset"
        },
        "return": "uint256 USD price of 1 of the asset"
      },
      "priceUSDRedeem(string)": {
        "details": "Returns the total price in 18 digit USD for a given asset.     Using Max since max is what we use for redeem pricing",
        "params": {
          "symbol": "String symbol of the asset"
        },
        "return": "uint256 USD price of 1 of the asset"
      },
      "removeStrategy(address)": {
        "details": "Remove a strategy from the Vault. Removes all invested assets and returns them to the Vault.",
        "params": {
          "_addr": "Address of the strategy to remove"
        }
      },
      "setAdminImpl(address)": {
        "details": "set the implementation for the admin, this needs to be in a base class else we cannot set it",
        "params": {
          "newImpl": "address pf the implementation"
        }
      },
      "setAutoAllocateThreshold(uint256)": {
        "details": "Sets the minimum amount of OUSD in a mint to trigger an automatic allocation of funds afterwords.",
        "params": {
          "_threshold": "OUSD amount with 18 fixed decimals."
        }
      },
      "setPriceProvider(address)": {
        "details": "Set address of price provider.",
        "params": {
          "_priceProvider": "Address of price provider"
        }
      },
      "setRebaseHooksAddr(address)": {
        "details": "Set address of RebaseHooks contract which provides hooks for rebase so things like AMMs can be synced with updated balances.",
        "params": {
          "_address": "Address of RebaseHooks contract"
        }
      },
      "setRebaseThreshold(uint256)": {
        "details": "Set a minimum amount of OUSD in a mint or redeem that triggers a rebase",
        "params": {
          "_threshold": "OUSD amount with 18 fixed decimals."
        }
      },
      "setRedeemFeeBps(uint256)": {
        "details": "Set a fee in basis points to be charged for a redeem.",
        "params": {
          "_redeemFeeBps": "Basis point fee to be charged"
        }
      },
      "setStrategyWeights(address[],uint256[])": {
        "params": {
          "_strategyAddresses": "Array of strategy addresses",
          "_weights": "Array of corresponding weights, with 18 decimals.                For ex. 100%=1e18, 30%=3e17."
        }
      },
      "setUniswapAddr(address)": {
        "details": "Set address of Uniswap for performing liquidation of strategy reward tokens",
        "params": {
          "_address": "Address of Uniswap"
        }
      },
      "setVaultBuffer(uint256)": {
        "details": "Set a buffer of assets to keep in the Vault to handle most redemptions without needing to spend gas unwinding assets from a Strategy.",
        "params": {
          "_vaultBuffer": "Percentage using 18 decimals. 100% = 1e18."
        }
      },
      "supportAsset(address)": {
        "details": "Add a supported asset to the contract, i.e. one that can be        to mint OUSD.",
        "params": {
          "_asset": "Address of asset"
        }
      },
      "transferGovernance(address)": {
        "details": "Transfers Governance of the contract to a new account (`newGovernor`). Can only be called by the current Governor. Must be claimed for this to complete",
        "params": {
          "_newGovernor": "Address of the new Governor"
        }
      },
      "transferToken(address,uint256)": {
        "details": "Transfer token to governor. Intended for recovering tokens stuck in     contract, i.e. mistaken sends.",
        "params": {
          "_amount": "Amount of the asset to transfer",
          "_asset": "Address for the asset"
        }
      },
      "unpauseDeposits()": {
        "details": "Set the deposit paused flag to false to enable deposits."
      },
      "unpauseRebase()": {
        "details": "Set the deposit paused flag to true to allow rebasing."
      }
    }
  },
  "userdoc": {
    "methods": {
      "setStrategyWeights(address[],uint256[])": {
        "notice": "Set the weights for multiple strategies."
      }
    }
  },
  "gasEstimates": {
    "creation": {
      "codeDepositCost": "3046600",
      "executionCost": "infinite",
      "totalCost": "infinite"
    },
    "external": {
      "addStrategy(address,uint256)": "83135",
      "autoAllocateThreshold()": "516",
      "claimGovernance()": "infinite",
      "depositPaused()": "572",
      "governor()": "525",
      "harvest()": "infinite",
      "harvest(address)": "infinite",
      "initialize(address,address)": "infinite",
      "isGovernor()": "540",
      "pauseDeposits()": "21608",
      "pauseRebase()": "20895",
      "priceProvider()": "520",
      "priceUSDMint(string)": "infinite",
      "priceUSDRedeem(string)": "infinite",
      "rebaseHooksAddr()": "520",
      "rebasePaused()": "571",
      "rebaseThreshold()": "451",
      "redeemFeeBps()": "518",
      "removeStrategy(address)": "infinite",
      "setAdminImpl(address)": "20714",
      "setAutoAllocateThreshold(uint256)": "20610",
      "setPriceProvider(address)": "20869",
      "setRebaseHooksAddr(address)": "20914",
      "setRebaseThreshold(uint256)": "20654",
      "setRedeemFeeBps(uint256)": "20675",
      "setStrategyWeights(address[],uint256[])": "infinite",
      "setUniswapAddr(address)": "20957",
      "setVaultBuffer(uint256)": "20654",
      "supportAsset(address)": "63112",
      "transferGovernance(address)": "infinite",
      "transferToken(address,uint256)": "infinite",
      "uniswapAddr()": "499",
      "unpauseDeposits()": "21673",
      "unpauseRebase()": "20875",
      "vaultBuffer()": "495"
    }
  }
}