{
  "address": "0x1C62a3C2620F2fb7Ba5D50c9Da2dEC214cB82be9",
  "abi": [
    {
      "inputs": [
        {
          "internalType": "address",
          "name": "_bridgeAsset",
          "type": "address"
        },
        {
          "internalType": "contract MockMintableBurnableOToken",
          "name": "_oToken",
          "type": "address"
        }
      ],
      "stateMutability": "nonpayable",
      "type": "constructor"
    },
    {
      "anonymous": false,
      "inputs": [
        {
          "indexed": true,
          "internalType": "uint256",
          "name": "id",
          "type": "uint256"
        },
        {
          "indexed": true,
          "internalType": "address",
          "name": "owner",
          "type": "address"
        },
        {
          "indexed": false,
          "internalType": "uint256",
          "name": "amount",
          "type": "uint256"
        }
      ],
      "name": "WithdrawalClaimed",
      "type": "event"
    },
    {
      "anonymous": false,
      "inputs": [
        {
          "indexed": true,
          "internalType": "uint256",
          "name": "id",
          "type": "uint256"
        },
        {
          "indexed": true,
          "internalType": "address",
          "name": "owner",
          "type": "address"
        },
        {
          "indexed": false,
          "internalType": "uint256",
          "name": "amount",
          "type": "uint256"
        }
      ],
      "name": "WithdrawalRequested",
      "type": "event"
    },
    {
      "inputs": [],
      "name": "bridgeAsset",
      "outputs": [
        {
          "internalType": "address",
          "name": "",
          "type": "address"
        }
      ],
      "stateMutability": "view",
      "type": "function"
    },
    {
      "inputs": [
        {
          "internalType": "uint256",
          "name": "_id",
          "type": "uint256"
        }
      ],
      "name": "claimWithdrawal",
      "outputs": [
        {
          "internalType": "uint256",
          "name": "amount",
          "type": "uint256"
        }
      ],
      "stateMutability": "nonpayable",
      "type": "function"
    },
    {
      "inputs": [
        {
          "internalType": "uint256",
          "name": "_amount",
          "type": "uint256"
        }
      ],
      "name": "mint",
      "outputs": [],
      "stateMutability": "nonpayable",
      "type": "function"
    },
    {
      "inputs": [],
      "name": "nextRequestId",
      "outputs": [
        {
          "internalType": "uint256",
          "name": "",
          "type": "uint256"
        }
      ],
      "stateMutability": "view",
      "type": "function"
    },
    {
      "inputs": [],
      "name": "oToken",
      "outputs": [
        {
          "internalType": "contract MockMintableBurnableOToken",
          "name": "",
          "type": "address"
        }
      ],
      "stateMutability": "view",
      "type": "function"
    },
    {
      "inputs": [
        {
          "internalType": "uint256",
          "name": "_amount",
          "type": "uint256"
        },
        {
          "internalType": "uint256",
          "name": "_minAmount",
          "type": "uint256"
        }
      ],
      "name": "redeem",
      "outputs": [],
      "stateMutability": "nonpayable",
      "type": "function"
    },
    {
      "inputs": [
        {
          "internalType": "uint256",
          "name": "_amount",
          "type": "uint256"
        }
      ],
      "name": "requestWithdrawal",
      "outputs": [
        {
          "internalType": "uint256",
          "name": "id",
          "type": "uint256"
        },
        {
          "internalType": "uint256",
          "name": "queued",
          "type": "uint256"
        }
      ],
      "stateMutability": "nonpayable",
      "type": "function"
    },
    {
      "inputs": [
        {
          "internalType": "uint256",
          "name": "_delay",
          "type": "uint256"
        }
      ],
      "name": "setWithdrawalClaimDelay",
      "outputs": [],
      "stateMutability": "nonpayable",
      "type": "function"
    },
    {
      "inputs": [],
      "name": "withdrawalClaimDelay",
      "outputs": [
        {
          "internalType": "uint256",
          "name": "",
          "type": "uint256"
        }
      ],
      "stateMutability": "view",
      "type": "function"
    },
    {
      "inputs": [
        {
          "internalType": "uint256",
          "name": "",
          "type": "uint256"
        }
      ],
      "name": "withdrawalRequests",
      "outputs": [
        {
          "internalType": "address",
          "name": "owner",
          "type": "address"
        },
        {
          "internalType": "uint256",
          "name": "amount",
          "type": "uint256"
        },
        {
          "internalType": "uint256",
          "name": "claimableAt",
          "type": "uint256"
        },
        {
          "internalType": "bool",
          "name": "claimed",
          "type": "bool"
        }
      ],
      "stateMutability": "view",
      "type": "function"
    }
  ],
  "transactionHash": "0xb38f9cc31f0924b9251868f452059bce963ff5638adeed42449ead39192cbc0c",
  "args": [
    "0xFd57b4ddBf88a4e07fF4e34C487b99af2Fe82a05",
    "0x6D961A6e4398462fd299Fac6153B133b0f23E3f3"
  ],
  "numDeployments": 1,
  "solcInputHash": "874b249b02834525172b8514664b7404",
  "bytecode": "0x60c0604052600160025534801561001557600080fd5b50604051610c0a380380610c0a83398101604081905261003491610063565b6001600160a01b039182166080521660a05261009d565b6001600160a01b038116811461006057600080fd5b50565b6000806040838503121561007657600080fd5b82516100818161004b565b60208401519092506100928161004b565b809150509250929050565b60805160a051610b1f6100eb6000396000818160a8015281816102860152818161034d01526104e0015260008181610118015281816102f70152818161049c015261067b0152610b1f6000f3fe608060405234801561001057600080fd5b506004361061009e5760003560e01c80637cbc2373116100665780637cbc237314610143578063937b2581146101565780639ee679e8146101c7578063a0712d68146101ef578063f84444361461020257600080fd5b80631a32aad6146100a35780631cfbe7bc146100e757806345e4213b146100fc5780634d877550146101135780636a84a9851461013a575b600080fd5b6100ca7f000000000000000000000000000000000000000000000000000000000000000081565b6040516001600160a01b0390911681526020015b60405180910390f35b6100fa6100f53660046109d1565b600055565b005b61010560005481565b6040519081526020016100de565b6100ca7f000000000000000000000000000000000000000000000000000000000000000081565b61010560025481565b6100fa6101513660046109ea565b610215565b61019b6101643660046109d1565b600160208190526000918252604090912080549181015460028201546003909201546001600160a01b039093169290919060ff1684565b604080516001600160a01b039095168552602085019390935291830152151560608201526080016100de565b6101da6101d53660046109d1565b610324565b604080519283526020830191909152016100de565b6100fa6101fd3660046109d1565b61048f565b6101056102103660046109d1565b610547565b8082101561026a5760405162461bcd60e51b815260206004820152601760248201527f4d6f636b4574685661756c743a2062656c6f77206d696e00000000000000000060448201526064015b60405180910390fd5b604051632770a7eb60e21b8152336004820152602481018390527f00000000000000000000000000000000000000000000000000000000000000006001600160a01b031690639dc29fac90604401600060405180830381600087803b1580156102d257600080fd5b505af11580156102e6573d6000803e3d6000fd5b506103209250506001600160a01b037f000000000000000000000000000000000000000000000000000000000000000016905033846106df565b5050565b604051632770a7eb60e21b81523360048201526024810182905260009081906001600160a01b037f00000000000000000000000000000000000000000000000000000000000000001690639dc29fac90604401600060405180830381600087803b15801561039157600080fd5b505af11580156103a5573d6000803e3d6000fd5b5050600280549250905060006103ba83610a22565b9190505591506040518060800160405280336001600160a01b03168152602001848152602001600054426103ee9190610a3b565b8152600060209182018190528481526001808352604091829020845181546001600160a01b0319166001600160a01b0390911617815584840151918101919091558382015160028201556060909301516003909301805460ff1916931515939093179092559051848152849250339184917f6620e1bb18901e7cc06eb4c152cbf61f7f069350e9cf118060d463c4e5430ba0910160405180910390a3915091565b6104c46001600160a01b037f000000000000000000000000000000000000000000000000000000000000000016333084610747565b6040516340c10f1960e01b8152336004820152602481018290527f00000000000000000000000000000000000000000000000000000000000000006001600160a01b0316906340c10f1990604401600060405180830381600087803b15801561052c57600080fd5b505af1158015610540573d6000803e3d6000fd5b5050505050565b600081815260016020526040812080546001600160a01b031633146105ae5760405162461bcd60e51b815260206004820152601760248201527f4d6f636b4574685661756c743a206e6f74206f776e65720000000000000000006044820152606401610261565b600381015460ff16156106035760405162461bcd60e51b815260206004820152601d60248201527f4d6f636b4574685661756c743a20616c726561647920636c61696d65640000006044820152606401610261565b80600201544210156106575760405162461bcd60e51b815260206004820152601960248201527f4d6f636b4574685661756c743a2071756575652064656c6179000000000000006044820152606401610261565b60038101805460ff1916600190811790915581015491506106a26001600160a01b037f00000000000000000000000000000000000000000000000000000000000000001633846106df565b604051828152339084907f8adb7a84b2998a8d11cd9284395f95d5a99f160be785ae79998c654979bd3d9a9060200160405180910390a350919050565b6040516001600160a01b03831660248201526044810182905261074290849063a9059cbb60e01b906064015b60408051601f198184030181529190526020810180516001600160e01b03166001600160e01b031990931692909217909152610785565b505050565b6040516001600160a01b038085166024830152831660448201526064810182905261077f9085906323b872dd60e01b9060840161070b565b50505050565b60006107da826040518060400160405280602081526020017f5361666545524332303a206c6f772d6c6576656c2063616c6c206661696c6564815250856001600160a01b03166108579092919063ffffffff16565b80519091501561074257808060200190518101906107f89190610a54565b6107425760405162461bcd60e51b815260206004820152602a60248201527f5361666545524332303a204552433230206f7065726174696f6e20646964206e6044820152691bdd081cdd58d8d9595960b21b6064820152608401610261565b60606108668484600085610870565b90505b9392505050565b6060824710156108d15760405162461bcd60e51b815260206004820152602660248201527f416464726573733a20696e73756666696369656e742062616c616e636520666f6044820152651c8818d85b1b60d21b6064820152608401610261565b843b61091f5760405162461bcd60e51b815260206004820152601d60248201527f416464726573733a2063616c6c20746f206e6f6e2d636f6e74726163740000006044820152606401610261565b600080866001600160a01b0316858760405161093b9190610a9a565b60006040518083038185875af1925050503d8060008114610978576040519150601f19603f3d011682016040523d82523d6000602084013e61097d565b606091505b509150915061098d828286610998565b979650505050505050565b606083156109a7575081610869565b8251156109b75782518084602001fd5b8160405162461bcd60e51b81526004016102619190610ab6565b6000602082840312156109e357600080fd5b5035919050565b600080604083850312156109fd57600080fd5b50508035926020909101359150565b634e487b7160e01b600052601160045260246000fd5b600060018201610a3457610a34610a0c565b5060010190565b80820180821115610a4e57610a4e610a0c565b92915050565b600060208284031215610a6657600080fd5b8151801515811461086957600080fd5b60005b83811015610a91578181015183820152602001610a79565b50506000910152565b60008251610aac818460208701610a76565b9190910192915050565b6020815260008251806020840152610ad5816040850160208701610a76565b601f01601f1916919091016040019291505056fea264697066735822122051974333921622b6cefa85057fd8c0bf5dee55b12315b9885a669c70e055f38d64736f6c634300081c0033",
  "devdoc": {
    "kind": "dev",
    "methods": {},
    "title": "MockEthOTokenVault",
    "version": 1
  },
  "userdoc": {
    "kind": "user",
    "methods": {
      "withdrawalClaimDelay()": {
        "notice": "Optional delay applied to async withdrawal claims (seconds). Default 0 = instant."
      }
    },
    "notice": "TEST-ONLY Ethereum-side OToken vault stand-in for the V3 RemoteWOTokenStrategy tests.         Mirrors the OUSD VaultCore surface that Remote actually uses:           - mint(amount): pulls bridgeAsset, mints OToken to caller (instant, 1:1).           - redeem(amount, minAmount): burns OToken from caller, returns bridgeAsset (instant).           - requestWithdrawal / claimWithdrawal: async queue used by the OETH path (PR 4).         The async queue stores requests by id with a configurable delay; tests can `advance`         time or just bypass the delay.",
    "version": 1
  },
  "storageLayout": {
    "storage": [
      {
        "astId": 32238,
        "contract": "contracts/mocks/crosschainV3/MockEthOTokenVault.sol:MockEthOTokenVault",
        "label": "withdrawalClaimDelay",
        "offset": 0,
        "slot": "0",
        "type": "t_uint256"
      },
      {
        "astId": 32252,
        "contract": "contracts/mocks/crosschainV3/MockEthOTokenVault.sol:MockEthOTokenVault",
        "label": "withdrawalRequests",
        "offset": 0,
        "slot": "1",
        "type": "t_mapping(t_uint256,t_struct(WithdrawalRequest)32247_storage)"
      },
      {
        "astId": 32255,
        "contract": "contracts/mocks/crosschainV3/MockEthOTokenVault.sol:MockEthOTokenVault",
        "label": "nextRequestId",
        "offset": 0,
        "slot": "2",
        "type": "t_uint256"
      }
    ],
    "types": {
      "t_address": {
        "encoding": "inplace",
        "label": "address",
        "numberOfBytes": "20"
      },
      "t_bool": {
        "encoding": "inplace",
        "label": "bool",
        "numberOfBytes": "1"
      },
      "t_mapping(t_uint256,t_struct(WithdrawalRequest)32247_storage)": {
        "encoding": "mapping",
        "key": "t_uint256",
        "label": "mapping(uint256 => struct MockEthOTokenVault.WithdrawalRequest)",
        "numberOfBytes": "32",
        "value": "t_struct(WithdrawalRequest)32247_storage"
      },
      "t_struct(WithdrawalRequest)32247_storage": {
        "encoding": "inplace",
        "label": "struct MockEthOTokenVault.WithdrawalRequest",
        "members": [
          {
            "astId": 32240,
            "contract": "contracts/mocks/crosschainV3/MockEthOTokenVault.sol:MockEthOTokenVault",
            "label": "owner",
            "offset": 0,
            "slot": "0",
            "type": "t_address"
          },
          {
            "astId": 32242,
            "contract": "contracts/mocks/crosschainV3/MockEthOTokenVault.sol:MockEthOTokenVault",
            "label": "amount",
            "offset": 0,
            "slot": "1",
            "type": "t_uint256"
          },
          {
            "astId": 32244,
            "contract": "contracts/mocks/crosschainV3/MockEthOTokenVault.sol:MockEthOTokenVault",
            "label": "claimableAt",
            "offset": 0,
            "slot": "2",
            "type": "t_uint256"
          },
          {
            "astId": 32246,
            "contract": "contracts/mocks/crosschainV3/MockEthOTokenVault.sol:MockEthOTokenVault",
            "label": "claimed",
            "offset": 0,
            "slot": "3",
            "type": "t_bool"
          }
        ],
        "numberOfBytes": "128"
      },
      "t_uint256": {
        "encoding": "inplace",
        "label": "uint256",
        "numberOfBytes": "32"
      }
    }
  }
}