{
  "address": "0xc8c8F8bEA5631A8AF26440AF32a55002138cB76a",
  "abi": [
    {
      "inputs": [
        {
          "internalType": "address",
          "name": "_usdcToken",
          "type": "address"
        },
        {
          "internalType": "contract ICCTPTokenMessenger",
          "name": "_tokenMessenger",
          "type": "address"
        },
        {
          "internalType": "contract ICCTPMessageTransmitter",
          "name": "_messageTransmitter",
          "type": "address"
        }
      ],
      "stateMutability": "nonpayable",
      "type": "constructor"
    },
    {
      "anonymous": false,
      "inputs": [
        {
          "indexed": true,
          "internalType": "address",
          "name": "sender",
          "type": "address"
        },
        {
          "components": [
            {
              "internalType": "bool",
              "name": "paused",
              "type": "bool"
            },
            {
              "internalType": "uint64",
              "name": "chainSelector",
              "type": "uint64"
            },
            {
              "internalType": "uint32",
              "name": "destGasLimit",
              "type": "uint32"
            }
          ],
          "indexed": false,
          "internalType": "struct AbstractAdapter.ChainConfig",
          "name": "cfg",
          "type": "tuple"
        }
      ],
      "name": "Authorised",
      "type": "event"
    },
    {
      "anonymous": false,
      "inputs": [
        {
          "indexed": true,
          "internalType": "address",
          "name": "previousGovernor",
          "type": "address"
        },
        {
          "indexed": true,
          "internalType": "address",
          "name": "newGovernor",
          "type": "address"
        }
      ],
      "name": "GovernorshipTransferred",
      "type": "event"
    },
    {
      "anonymous": false,
      "inputs": [
        {
          "indexed": true,
          "internalType": "address",
          "name": "sender",
          "type": "address"
        },
        {
          "components": [
            {
              "internalType": "bool",
              "name": "paused",
              "type": "bool"
            },
            {
              "internalType": "uint64",
              "name": "chainSelector",
              "type": "uint64"
            },
            {
              "internalType": "uint32",
              "name": "destGasLimit",
              "type": "uint32"
            }
          ],
          "indexed": false,
          "internalType": "struct AbstractAdapter.ChainConfig",
          "name": "cfg",
          "type": "tuple"
        }
      ],
      "name": "LaneConfigUpdated",
      "type": "event"
    },
    {
      "anonymous": false,
      "inputs": [
        {
          "indexed": true,
          "internalType": "address",
          "name": "sender",
          "type": "address"
        }
      ],
      "name": "LanePaused",
      "type": "event"
    },
    {
      "anonymous": false,
      "inputs": [
        {
          "indexed": true,
          "internalType": "address",
          "name": "sender",
          "type": "address"
        }
      ],
      "name": "LaneUnpaused",
      "type": "event"
    },
    {
      "anonymous": false,
      "inputs": [
        {
          "indexed": false,
          "internalType": "uint256",
          "name": "oldAmount",
          "type": "uint256"
        },
        {
          "indexed": false,
          "internalType": "uint256",
          "name": "newAmount",
          "type": "uint256"
        }
      ],
      "name": "MaxTransferAmountUpdated",
      "type": "event"
    },
    {
      "anonymous": false,
      "inputs": [
        {
          "indexed": true,
          "internalType": "address",
          "name": "target",
          "type": "address"
        },
        {
          "indexed": false,
          "internalType": "address",
          "name": "token",
          "type": "address"
        },
        {
          "indexed": false,
          "internalType": "uint256",
          "name": "amountReceived",
          "type": "uint256"
        },
        {
          "indexed": false,
          "internalType": "uint256",
          "name": "feePaid",
          "type": "uint256"
        }
      ],
      "name": "MessageDelivered",
      "type": "event"
    },
    {
      "anonymous": false,
      "inputs": [
        {
          "indexed": true,
          "internalType": "address",
          "name": "by",
          "type": "address"
        },
        {
          "indexed": false,
          "internalType": "uint32",
          "name": "sourceDomain",
          "type": "uint32"
        }
      ],
      "name": "MessageRelayed",
      "type": "event"
    },
    {
      "anonymous": false,
      "inputs": [
        {
          "indexed": true,
          "internalType": "address",
          "name": "sender",
          "type": "address"
        },
        {
          "indexed": false,
          "internalType": "address",
          "name": "token",
          "type": "address"
        },
        {
          "indexed": false,
          "internalType": "uint256",
          "name": "amount",
          "type": "uint256"
        },
        {
          "indexed": false,
          "internalType": "uint256",
          "name": "feeCharged",
          "type": "uint256"
        }
      ],
      "name": "MessageSent",
      "type": "event"
    },
    {
      "anonymous": false,
      "inputs": [
        {
          "indexed": false,
          "internalType": "uint32",
          "name": "oldThreshold",
          "type": "uint32"
        },
        {
          "indexed": false,
          "internalType": "uint32",
          "name": "newThreshold",
          "type": "uint32"
        }
      ],
      "name": "MinFinalityThresholdUpdated",
      "type": "event"
    },
    {
      "anonymous": false,
      "inputs": [
        {
          "indexed": false,
          "internalType": "uint256",
          "name": "oldAmount",
          "type": "uint256"
        },
        {
          "indexed": false,
          "internalType": "uint256",
          "name": "newAmount",
          "type": "uint256"
        }
      ],
      "name": "MinTransferAmountUpdated",
      "type": "event"
    },
    {
      "anonymous": false,
      "inputs": [
        {
          "indexed": false,
          "internalType": "address",
          "name": "oldOperator",
          "type": "address"
        },
        {
          "indexed": false,
          "internalType": "address",
          "name": "newOperator",
          "type": "address"
        }
      ],
      "name": "OperatorUpdated",
      "type": "event"
    },
    {
      "anonymous": false,
      "inputs": [
        {
          "indexed": true,
          "internalType": "address",
          "name": "previousGovernor",
          "type": "address"
        },
        {
          "indexed": true,
          "internalType": "address",
          "name": "newGovernor",
          "type": "address"
        }
      ],
      "name": "PendingGovernorshipTransfer",
      "type": "event"
    },
    {
      "anonymous": false,
      "inputs": [
        {
          "indexed": true,
          "internalType": "address",
          "name": "sender",
          "type": "address"
        }
      ],
      "name": "Revoked",
      "type": "event"
    },
    {
      "anonymous": false,
      "inputs": [
        {
          "indexed": true,
          "internalType": "address",
          "name": "who",
          "type": "address"
        }
      ],
      "name": "StrategistAdded",
      "type": "event"
    },
    {
      "anonymous": false,
      "inputs": [
        {
          "indexed": true,
          "internalType": "address",
          "name": "who",
          "type": "address"
        }
      ],
      "name": "StrategistRemoved",
      "type": "event"
    },
    {
      "inputs": [],
      "name": "MAX_TRANSFER_AMOUNT",
      "outputs": [
        {
          "internalType": "uint256",
          "name": "",
          "type": "uint256"
        }
      ],
      "stateMutability": "view",
      "type": "function"
    },
    {
      "inputs": [
        {
          "internalType": "address",
          "name": "who",
          "type": "address"
        }
      ],
      "name": "addStrategist",
      "outputs": [],
      "stateMutability": "nonpayable",
      "type": "function"
    },
    {
      "inputs": [
        {
          "internalType": "address",
          "name": "sender",
          "type": "address"
        },
        {
          "components": [
            {
              "internalType": "bool",
              "name": "paused",
              "type": "bool"
            },
            {
              "internalType": "uint64",
              "name": "chainSelector",
              "type": "uint64"
            },
            {
              "internalType": "uint32",
              "name": "destGasLimit",
              "type": "uint32"
            }
          ],
          "internalType": "struct AbstractAdapter.ChainConfig",
          "name": "cfg",
          "type": "tuple"
        }
      ],
      "name": "authorise",
      "outputs": [],
      "stateMutability": "nonpayable",
      "type": "function"
    },
    {
      "inputs": [
        {
          "internalType": "address",
          "name": "",
          "type": "address"
        }
      ],
      "name": "authorised",
      "outputs": [
        {
          "internalType": "bool",
          "name": "",
          "type": "bool"
        }
      ],
      "stateMutability": "view",
      "type": "function"
    },
    {
      "inputs": [],
      "name": "claimGovernance",
      "outputs": [],
      "stateMutability": "nonpayable",
      "type": "function"
    },
    {
      "inputs": [],
      "name": "governor",
      "outputs": [
        {
          "internalType": "address",
          "name": "",
          "type": "address"
        }
      ],
      "stateMutability": "view",
      "type": "function"
    },
    {
      "inputs": [
        {
          "internalType": "uint32",
          "name": "sourceDomain",
          "type": "uint32"
        },
        {
          "internalType": "bytes32",
          "name": "sender",
          "type": "bytes32"
        },
        {
          "internalType": "uint32",
          "name": "",
          "type": "uint32"
        },
        {
          "internalType": "bytes",
          "name": "messageBody",
          "type": "bytes"
        }
      ],
      "name": "handleReceiveFinalizedMessage",
      "outputs": [
        {
          "internalType": "bool",
          "name": "",
          "type": "bool"
        }
      ],
      "stateMutability": "nonpayable",
      "type": "function"
    },
    {
      "inputs": [
        {
          "internalType": "uint32",
          "name": "sourceDomain",
          "type": "uint32"
        },
        {
          "internalType": "bytes32",
          "name": "sender",
          "type": "bytes32"
        },
        {
          "internalType": "uint32",
          "name": "finalityThresholdExecuted",
          "type": "uint32"
        },
        {
          "internalType": "bytes",
          "name": "messageBody",
          "type": "bytes"
        }
      ],
      "name": "handleReceiveUnfinalizedMessage",
      "outputs": [
        {
          "internalType": "bool",
          "name": "",
          "type": "bool"
        }
      ],
      "stateMutability": "nonpayable",
      "type": "function"
    },
    {
      "inputs": [],
      "name": "isGovernor",
      "outputs": [
        {
          "internalType": "bool",
          "name": "",
          "type": "bool"
        }
      ],
      "stateMutability": "view",
      "type": "function"
    },
    {
      "inputs": [
        {
          "internalType": "address",
          "name": "",
          "type": "address"
        }
      ],
      "name": "laneConfig",
      "outputs": [
        {
          "internalType": "bool",
          "name": "paused",
          "type": "bool"
        },
        {
          "internalType": "uint64",
          "name": "chainSelector",
          "type": "uint64"
        },
        {
          "internalType": "uint32",
          "name": "destGasLimit",
          "type": "uint32"
        }
      ],
      "stateMutability": "view",
      "type": "function"
    },
    {
      "inputs": [],
      "name": "maxTransferAmount",
      "outputs": [
        {
          "internalType": "uint256",
          "name": "",
          "type": "uint256"
        }
      ],
      "stateMutability": "view",
      "type": "function"
    },
    {
      "inputs": [],
      "name": "messageTransmitter",
      "outputs": [
        {
          "internalType": "contract ICCTPMessageTransmitter",
          "name": "",
          "type": "address"
        }
      ],
      "stateMutability": "view",
      "type": "function"
    },
    {
      "inputs": [],
      "name": "minFinalityThreshold",
      "outputs": [
        {
          "internalType": "uint32",
          "name": "",
          "type": "uint32"
        }
      ],
      "stateMutability": "view",
      "type": "function"
    },
    {
      "inputs": [],
      "name": "minTransferAmount",
      "outputs": [
        {
          "internalType": "uint256",
          "name": "",
          "type": "uint256"
        }
      ],
      "stateMutability": "view",
      "type": "function"
    },
    {
      "inputs": [],
      "name": "operator",
      "outputs": [
        {
          "internalType": "address",
          "name": "",
          "type": "address"
        }
      ],
      "stateMutability": "view",
      "type": "function"
    },
    {
      "inputs": [
        {
          "internalType": "address",
          "name": "sender",
          "type": "address"
        }
      ],
      "name": "pauseLane",
      "outputs": [],
      "stateMutability": "nonpayable",
      "type": "function"
    },
    {
      "inputs": [
        {
          "internalType": "address",
          "name": "token",
          "type": "address"
        },
        {
          "internalType": "uint256",
          "name": "amount",
          "type": "uint256"
        },
        {
          "internalType": "bytes",
          "name": "payload",
          "type": "bytes"
        }
      ],
      "name": "quoteFee",
      "outputs": [
        {
          "internalType": "uint256",
          "name": "fee",
          "type": "uint256"
        },
        {
          "internalType": "address",
          "name": "feeToken",
          "type": "address"
        },
        {
          "internalType": "bool",
          "name": "requiresExternalPayment",
          "type": "bool"
        }
      ],
      "stateMutability": "view",
      "type": "function"
    },
    {
      "inputs": [
        {
          "internalType": "bytes",
          "name": "message",
          "type": "bytes"
        },
        {
          "internalType": "bytes",
          "name": "attestation",
          "type": "bytes"
        }
      ],
      "name": "relay",
      "outputs": [],
      "stateMutability": "nonpayable",
      "type": "function"
    },
    {
      "inputs": [
        {
          "internalType": "address",
          "name": "who",
          "type": "address"
        }
      ],
      "name": "removeStrategist",
      "outputs": [],
      "stateMutability": "nonpayable",
      "type": "function"
    },
    {
      "inputs": [
        {
          "internalType": "address",
          "name": "sender",
          "type": "address"
        }
      ],
      "name": "revoke",
      "outputs": [],
      "stateMutability": "nonpayable",
      "type": "function"
    },
    {
      "inputs": [
        {
          "internalType": "bytes",
          "name": "payload",
          "type": "bytes"
        }
      ],
      "name": "sendMessage",
      "outputs": [],
      "stateMutability": "payable",
      "type": "function"
    },
    {
      "inputs": [
        {
          "internalType": "address",
          "name": "token",
          "type": "address"
        },
        {
          "internalType": "uint256",
          "name": "amount",
          "type": "uint256"
        },
        {
          "internalType": "bytes",
          "name": "payload",
          "type": "bytes"
        }
      ],
      "name": "sendMessageAndTokens",
      "outputs": [],
      "stateMutability": "payable",
      "type": "function"
    },
    {
      "inputs": [
        {
          "internalType": "address",
          "name": "sender",
          "type": "address"
        },
        {
          "components": [
            {
              "internalType": "bool",
              "name": "paused",
              "type": "bool"
            },
            {
              "internalType": "uint64",
              "name": "chainSelector",
              "type": "uint64"
            },
            {
              "internalType": "uint32",
              "name": "destGasLimit",
              "type": "uint32"
            }
          ],
          "internalType": "struct AbstractAdapter.ChainConfig",
          "name": "cfg",
          "type": "tuple"
        }
      ],
      "name": "setLaneConfig",
      "outputs": [],
      "stateMutability": "nonpayable",
      "type": "function"
    },
    {
      "inputs": [
        {
          "internalType": "uint256",
          "name": "_amount",
          "type": "uint256"
        }
      ],
      "name": "setMaxTransferAmount",
      "outputs": [],
      "stateMutability": "nonpayable",
      "type": "function"
    },
    {
      "inputs": [
        {
          "internalType": "uint32",
          "name": "_t",
          "type": "uint32"
        }
      ],
      "name": "setMinFinalityThreshold",
      "outputs": [],
      "stateMutability": "nonpayable",
      "type": "function"
    },
    {
      "inputs": [
        {
          "internalType": "uint256",
          "name": "_amount",
          "type": "uint256"
        }
      ],
      "name": "setMinTransferAmount",
      "outputs": [],
      "stateMutability": "nonpayable",
      "type": "function"
    },
    {
      "inputs": [
        {
          "internalType": "address",
          "name": "_operator",
          "type": "address"
        }
      ],
      "name": "setOperator",
      "outputs": [],
      "stateMutability": "nonpayable",
      "type": "function"
    },
    {
      "inputs": [
        {
          "internalType": "address",
          "name": "",
          "type": "address"
        }
      ],
      "name": "strategists",
      "outputs": [
        {
          "internalType": "bool",
          "name": "",
          "type": "bool"
        }
      ],
      "stateMutability": "view",
      "type": "function"
    },
    {
      "inputs": [],
      "name": "tokenMessenger",
      "outputs": [
        {
          "internalType": "contract ICCTPTokenMessenger",
          "name": "",
          "type": "address"
        }
      ],
      "stateMutability": "view",
      "type": "function"
    },
    {
      "inputs": [
        {
          "internalType": "address",
          "name": "_newGovernor",
          "type": "address"
        }
      ],
      "name": "transferGovernance",
      "outputs": [],
      "stateMutability": "nonpayable",
      "type": "function"
    },
    {
      "inputs": [
        {
          "internalType": "address",
          "name": "_asset",
          "type": "address"
        },
        {
          "internalType": "uint256",
          "name": "_amount",
          "type": "uint256"
        }
      ],
      "name": "transferToken",
      "outputs": [],
      "stateMutability": "nonpayable",
      "type": "function"
    },
    {
      "inputs": [
        {
          "internalType": "address",
          "name": "sender",
          "type": "address"
        }
      ],
      "name": "unpauseLane",
      "outputs": [],
      "stateMutability": "nonpayable",
      "type": "function"
    },
    {
      "inputs": [],
      "name": "usdcToken",
      "outputs": [
        {
          "internalType": "address",
          "name": "",
          "type": "address"
        }
      ],
      "stateMutability": "view",
      "type": "function"
    },
    {
      "stateMutability": "payable",
      "type": "receive"
    }
  ],
  "transactionHash": "0xdabf086ffbaf8149761fa47fa1f781a8d7bba9014fc245156da80629eeb11bd8",
  "args": [
    "0x1c7D4B196Cb0C7B01d743Fbc6116a902379C7238",
    "0x28b5a0e9c621a5badaa536219b3a228c8168cf5d",
    "0x81D40F21F12A8F0E3252Bccb954D722d4c464B64"
  ],
  "numDeployments": 2,
  "solcInputHash": "de43057e136cd176ed6e513af56a2cc2",
  "bytecode": "0x60e060405234801561001057600080fd5b5060405161393038038061393083398101604081905261002f916101cd565b6100383361014e565b6001600160a01b0383166100855760405162461bcd60e51b815260206004820152600f60248201526e434354503a207a65726f207573646360881b60448201526064015b60405180910390fd5b6001600160a01b0382166100db5760405162461bcd60e51b815260206004820152601460248201527f434354503a207a65726f206d657373656e676572000000000000000000000000604482015260640161007c565b6001600160a01b0381166101315760405162461bcd60e51b815260206004820152601660248201527f434354503a207a65726f207472616e736d697474657200000000000000000000604482015260640161007c565b6001600160a01b0392831660805290821660a0521660c05261021a565b6001600160a01b03811661016e6000805160206139108339815191525490565b6001600160a01b03167fc7c0c772add429241571afb3805861fb3cfa2af374534088b76cdb4325a87e9a60405160405180910390a360008051602061391083398151915255565b6001600160a01b03811681146101ca57600080fd5b50565b6000806000606084860312156101e257600080fd5b83516101ed816101b5565b60208501519093506101fe816101b5565b604085015190925061020f816101b5565b809150509250925092565b60805160a05160c0516136576102b960003960008181610523015281816109170152818161111d01528181611342015281816120b401526122da0152600081816104560152818161107101528181611b8001528181611dc101528181611e450152611e6c0152600081816102b401528181611bf601528181611c6301528181611f9901528181612027015281816121990152612a7a01526136576000f3fe6080604052600436106101f25760003560e01c80635d36b1901161010d578063a9e75723116100a0578063c7af33521161006f578063c7af335214610653578063d38bfff414610668578063d6eb1bbf14610688578063d8f0cc60146106b8578063fc1b3113146106d857600080fd5b8063a9e75723146105b8578063b3ab15fb146105ce578063b7f1bc0f146105ee578063b92e63961461063357600080fd5b80637c92f219116100dc5780637c92f2191461054557806382646a58146105655780638bf55409146105785780639d2157771461059857600080fd5b80635d36b190146104b857806368841431146104cd57806374a8f103146104f15780637b04c1811461051157600080fd5b806325c27cd711610185578063415af91a11610154578063415af91a146104315780634611783014610444578063564a515814610478578063570ca7351461049857600080fd5b806325c27cd7146103a1578063265ec91f146103c157806332f1012f146103e15780633c6cffc91461041157600080fd5b806311eac855116101c157806311eac855146102a257806316a0f250146102d65780631e0bdb9d146103085780632319c5341461038157600080fd5b8063058b7d4a146101fe5780630c340a24146102205780631072cbea1461025257806311cffb671461027257600080fd5b366101f957005b600080fd5b34801561020a57600080fd5b5061021e610219366004612e43565b6106f2565b005b34801561022c57600080fd5b506102356107ec565b6040516001600160a01b0390911681526020015b60405180910390f35b34801561025e57600080fd5b5061021e61026d366004612e84565b610809565b34801561027e57600080fd5b5061029261028d366004612f0a565b61090a565b6040519015158152602001610249565b3480156102ae57600080fd5b506102357f000000000000000000000000000000000000000000000000000000000000000081565b3480156102e257600080fd5b506030546102f39063ffffffff1681565b60405163ffffffff9091168152602001610249565b34801561031457600080fd5b50610356610323366004612f7c565b60016020526000908152604090205460ff81169061010081046001600160401b031690600160481b900463ffffffff1683565b6040805193151584526001600160401b03909216602084015263ffffffff1690820152606001610249565b34801561038d57600080fd5b5061021e61039c366004612f7c565b61099c565b3480156103ad57600080fd5b5061021e6103bc366004612e43565b610a62565b3480156103cd57600080fd5b5061021e6103dc366004612f7c565b610b1e565b3480156103ed57600080fd5b506102926103fc366004612f7c565b60026020526000908152604090205460ff1681565b34801561041d57600080fd5b5061021e61042c366004612f99565b610bdc565b61021e61043f366004612fb6565b610cc2565b34801561045057600080fd5b506102357f000000000000000000000000000000000000000000000000000000000000000081565b34801561048457600080fd5b5061021e610493366004613011565b610f7b565b3480156104a457600080fd5b50603254610235906001600160a01b031681565b3480156104c457600080fd5b5061021e611222565b3480156104d957600080fd5b506104e360315481565b604051908152602001610249565b3480156104fd57600080fd5b5061021e61050c366004612f7c565b6112c8565b34801561051d57600080fd5b506102357f000000000000000000000000000000000000000000000000000000000000000081565b34801561055157600080fd5b50610292610560366004612f0a565b611335565b61021e610573366004613068565b611430565b34801561058457600080fd5b5061021e6105933660046130a9565b6115d9565b3480156105a457600080fd5b5061021e6105b3366004612f7c565b61163e565b3480156105c457600080fd5b506104e360035481565b3480156105da57600080fd5b5061021e6105e9366004612f7c565b6116ab565b3480156105fa57600080fd5b5061060e610609366004612fb6565b611738565b604080519384526001600160a01b039092166020840152151590820152606001610249565b34801561063f57600080fd5b5061021e61064e3660046130a9565b6117e7565b34801561065f57600080fd5b5061029261184c565b34801561067457600080fd5b5061021e610683366004612f7c565b61187d565b34801561069457600080fd5b506102926106a3366004612f7c565b60006020819052908152604090205460ff1681565b3480156106c457600080fd5b5061021e6106d3366004612f7c565b611921565b3480156106e457600080fd5b506104e36509184e72a00081565b6106fa61184c565b61071f5760405162461bcd60e51b8152600401610716906130c2565b60405180910390fd5b6001600160a01b03821661076c5760405162461bcd60e51b815260206004820152601460248201527320b230b83a32b91d103d32b9379039b2b73232b960611b6044820152606401610716565b6001600160a01b038216600090815260208181526040808320805460ff19166001908117909155909152902081906107a4828261311c565b905050816001600160a01b03167f5ad86ffae638a0f5ba6124a2d236464fde5c4b70652ebd4803076d9365d83775826040516107e091906131ac565b60405180910390a25050565b60006108046000805160206136028339815191525490565b905090565b61081161184c565b61082d5760405162461bcd60e51b8152600401610716906130c2565b6001600160a01b0382166108ea5760006108456107ec565b6001600160a01b03168260405160006040518083038185875af1925050503d806000811461088f576040519150601f19603f3d011682016040523d82523d6000602084013e610894565b606091505b50509050806108e55760405162461bcd60e51b815260206004820152601f60248201527f416461707465723a206e6174697665207472616e73666572206661696c6564006044820152606401610716565b505050565b6109066108f56107ec565b6001600160a01b03841690836119e5565b5050565b6000336001600160a01b037f000000000000000000000000000000000000000000000000000000000000000016146109845760405162461bcd60e51b815260206004820152601d60248201527f434354503a206e6f74206d657373616765207472616e736d69747465720000006044820152606401610716565b61099086868585611a48565b50600195945050505050565b6109a461184c565b6109c05760405162461bcd60e51b8152600401610716906130c2565b6001600160a01b038116610a165760405162461bcd60e51b815260206004820152601860248201527f416461707465723a207a65726f207374726174656769737400000000000000006044820152606401610716565b6001600160a01b038116600081815260026020526040808220805460ff19166001179055517fb7bc4a807819acf1980215983104cd2f50404cc9d86a0078869e431167d55a1b9190a250565b610a6a61184c565b610a865760405162461bcd60e51b8152600401610716906130c2565b6001600160a01b03821660009081526020819052604090205460ff16610abe5760405162461bcd60e51b8152600401610716906131fc565b6001600160a01b03821660009081526001602052604090208190610ae2828261311c565b905050816001600160a01b03167ffe106e86e20576677c701a7400a8ac65448b4511334b68b3afddf4dc942b6c55826040516107e091906131ac565b3360009081526002602052604090205460ff1680610b3f5750610b3f61184c565b610b5b5760405162461bcd60e51b815260040161071690613233565b6001600160a01b03811660009081526020819052604090205460ff16610b935760405162461bcd60e51b8152600401610716906131fc565b6001600160a01b038116600081815260016020526040808220805460ff19169055517f8ad978125e6d38070bbfee60673914d4d72ff25eccd31326cf831db5959bd2979190a250565b610be461184c565b610c005760405162461bcd60e51b8152600401610716906130c2565b6103e88163ffffffff1610158015610c2057506107d08163ffffffff1611155b610c625760405162461bcd60e51b815260206004820152601360248201527210d0d5140e88189859081d1a1c995cda1bdb19606a1b6044820152606401610716565b6030546040805163ffffffff928316815291831660208301527f4e0fc68f87c03f7b37c6317673fc4b712f52eff94f00e2b1519bfc42ce8116ce910160405180910390a16030805463ffffffff191663ffffffff92909216919091179055565b3360009081526020819052604090205460ff16610cf15760405162461bcd60e51b815260040161071690613276565b6001600160a01b038416610d3d5760405162461bcd60e51b815260206004820152601360248201527220b230b83a32b91d103d32b937903a37b5b2b760691b6044820152606401610716565b60008311610d845760405162461bcd60e51b81526020600482015260146024820152731059185c1d195c8e881e995c9bc8185b5bdd5b9d60621b6044820152606401610716565b6003541580610d9557506003548311155b610de15760405162461bcd60e51b815260206004820152601960248201527f416461707465723a20616d6f756e742061626f7665206d6178000000000000006044820152606401610716565b336000908152600160209081526040918290208251606081018452905460ff8116158015835261010082046001600160401b031693830193909352600160481b900463ffffffff1692810192909252610e4c5760405162461bcd60e51b8152600401610716906132ad565b6000610e8f338686868080601f016020809104026020016040519081016040528093929190818152602001838380828437600092019190915250611b0f92505050565b9050600080610ea083858a8a611b3f565b92505091508015610ef75781341015610ef75760405162461bcd60e51b8152602060048201526019602482015278416461707465723a20696e73756666696369656e742066656560381b6044820152606401610716565b610f0c6001600160a01b03891633308a611c23565b610f258888858785610f1f576000611c61565b86611c61565b604080516001600160a01b038a1681526020810189905290810183905233907ffa00ffce6051230b4361a25cb8c6cf798674abf770922e7c08373265c95fc0279060600160405180910390a25050505050505050565b6032546001600160a01b03163314610fca5760405162461bcd60e51b815260206004820152601260248201527121a1aa281d103737ba1037b832b930ba37b960711b6044820152606401610716565b600080600080600061101189898080601f016020809104026020016040519081016040528093929190818152602001838380828437600092019190915250611f2092505050565b94509450945094509450600163ffffffff168563ffffffff161461106f5760405162461bcd60e51b815260206004820152601560248201527421a1aa281d103130b21036b9b3903b32b939b4b7b760591b6044820152606401610716565b7f00000000000000000000000000000000000000000000000000000000000000006001600160a01b0316836001600160a01b0316036110bb576110b684828b8b8b8b611f7c565b6111dc565b6001600160a01b03821630146111065760405162461bcd60e51b815260206004820152601060248201526f434354503a206e6f7420666f7220757360801b6044820152606401610716565b604051630afd9fa560e31b81526001600160a01b037f000000000000000000000000000000000000000000000000000000000000000016906357ecfd2890611158908c908c908c908c90600401613304565b6020604051808303816000875af1158015611177573d6000803e3d6000fd5b505050506040513d601f19601f8201168201806040525081019061119b919061332b565b6111dc5760405162461bcd60e51b815260206004820152601260248201527110d0d5140e881c995b185e4819985a5b195960721b6044820152606401610716565b60405163ffffffff8516815233907fa98e881cc7d9bc706bd052568c664e23c05ca1857859ed4ed5d6d6bf18679c0a9060200160405180910390a2505050505050505050565b7f44c4d30b2eaad5130ad70c3ba6972730566f3e6359ab83e800d905c61b1c51db546001600160a01b0316336001600160a01b0316146112bd5760405162461bcd60e51b815260206004820152603060248201527f4f6e6c79207468652070656e64696e6720476f7665726e6f722063616e20636f60448201526f6d706c6574652074686520636c61696d60801b6064820152608401610716565b6112c63361223c565b565b6112d061184c565b6112ec5760405162461bcd60e51b8152600401610716906130c2565b6001600160a01b038116600081815260208190526040808220805460ff19169055517fb6fa8b8bd5eab60f292eca876e3ef90722275b785309d84b1de113ce0b8c4e749190a250565b6000336001600160a01b037f000000000000000000000000000000000000000000000000000000000000000016146113af5760405162461bcd60e51b815260206004820152601d60248201527f434354503a206e6f74206d657373616765207472616e736d69747465720000006044820152606401610716565b60305463ffffffff166113d45760405162461bcd60e51b815260040161071690613348565b60305463ffffffff90811690851610156109845760405162461bcd60e51b815260206004820152601b60248201527f434354503a20696e73756666696369656e742066696e616c69747900000000006044820152606401610716565b3360009081526020819052604090205460ff1661145f5760405162461bcd60e51b815260040161071690613276565b336000908152600160209081526040918290208251606081018452905460ff8116158015835261010082046001600160401b031693830193909352600160481b900463ffffffff16928101929092526114ca5760405162461bcd60e51b8152600401610716906132ad565b600061150e33600086868080601f016020809104026020016040519081016040528093929190818152602001838380828437600092019190915250611b0f92505050565b90506000806115208385600080611b3f565b9250509150801561157757813410156115775760405162461bcd60e51b8152602060048201526019602482015278416461707465723a20696e73756666696369656e742066656560381b6044820152606401610716565b61158e83858361158857600061229e565b8461229e565b604080516000808252602082015290810183905233907ffa00ffce6051230b4361a25cb8c6cf798674abf770922e7c08373265c95fc0279060600160405180910390a2505050505050565b6115e161184c565b6115fd5760405162461bcd60e51b8152600401610716906130c2565b60035460408051918252602082018390527f1e7d225cb161c2f834852cd521d7ee05358af80025a0e937483c51e42bfc13de910160405180910390a1600355565b61164661184c565b6116625760405162461bcd60e51b8152600401610716906130c2565b6001600160a01b038116600081815260026020526040808220805460ff19169055517f2f4370deaa4838aa66a5370105f58c9d313fc7d4f22271170e74081a0a0c26a19190a250565b6116b361184c565b6116cf5760405162461bcd60e51b8152600401610716906130c2565b603254604080516001600160a01b03928316815291831660208301527ffbe5b6cbafb274f445d7fed869dc77a838d8243a22c460de156560e8857cad03910160405180910390a1603280546001600160a01b0319166001600160a01b0392909216919091179055565b3360008181526001602090815260408083208151606081018352905460ff81161515825261010081046001600160401b031682850152600160481b900463ffffffff16818301528151601f8701849004840281018401909252858252929384938493909284926117c69290918b918b908b9081908401838280828437600092019190915250611b0f92505050565b90506117d481838b8b611b3f565b94509450945050505b9450945094915050565b6117ef61184c565b61180b5760405162461bcd60e51b8152600401610716906130c2565b60315460408051918252602082018390527fb39040ece3bb905e42af563795f6e12ccb7d83cbce01ff2a973d6068f93062a2910160405180910390a1603155565b60006118646000805160206136028339815191525490565b6001600160a01b0316336001600160a01b031614905090565b61188561184c565b6118a15760405162461bcd60e51b8152600401610716906130c2565b6118c9817f44c4d30b2eaad5130ad70c3ba6972730566f3e6359ab83e800d905c61b1c51db55565b806001600160a01b03166118e96000805160206136028339815191525490565b6001600160a01b03167fa39cc5eb22d0f34d8beaefee8a3f17cc229c1a1d1ef87a5ad47313487b1c4f0d60405160405180910390a350565b3360009081526002602052604090205460ff1680611942575061194261184c565b61195e5760405162461bcd60e51b815260040161071690613233565b6001600160a01b03811660009081526020819052604090205460ff166119965760405162461bcd60e51b8152600401610716906131fc565b6001600160a01b0381166000818152600160208190526040808320805460ff1916909217909155517f4c3ac25c887b42aabd0680e0f68da7158da182961d6d6bd1e756858132ef10919190a250565b6040516001600160a01b0383166024820152604481018290526108e590849063a9059cbb60e01b906064015b60408051601f198184030181529190526020810180516001600160e01b03166001600160e01b031990931692909217909152612352565b60008080611a9363ffffffff88168787878080601f01602080910402602001604051908101604052809392919081815260200183838082843760009201919091525061242492505050565b92509250925081600014611af75760405162461bcd60e51b815260206004820152602560248201527f434354503a20746f6b656e206c65672076696120707572652d6d657373616765604482015264040e0c2e8d60db1b6064820152608401610716565b611b06836000806000856125ad565b50505050505050565b6060838383604051602001611b26939291906133a3565b60405160208183030381529060405290505b9392505050565b600080806001600160a01b0385161580611b57575083155b15611b6a575060009150819050806117dd565b60405163516990e360e01b8152600481018590527f00000000000000000000000000000000000000000000000000000000000000006001600160a01b03169063516990e390602401602060405180830381865afa158015611bcf573d6000803e3d6000fd5b505050506040513d601f19601f82011682018060405250810190611bf391906133e2565b977f0000000000000000000000000000000000000000000000000000000000000000975060009650945050505050565b6040516001600160a01b0380851660248301528316604482015260648101829052611c5b9085906323b872dd60e01b90608401611a11565b50505050565b7f00000000000000000000000000000000000000000000000000000000000000006001600160a01b0316856001600160a01b031614611ce25760405162461bcd60e51b815260206004820152601860248201527f434354503a20746f6b656e206d757374206265207573646300000000000000006044820152606401610716565b60305463ffffffff16611d075760405162461bcd60e51b815260040161071690613348565b603154841015611d525760405162461bcd60e51b815260206004820152601660248201527521a1aa281d1030b6b7bab73a103132b637bb9036b4b760511b6044820152606401610716565b6509184e72a000841115611da85760405162461bcd60e51b815260206004820152601b60248201527f434354503a20616d6f756e742061626f766520434354502063617000000000006044820152606401610716565b60405163516990e360e01b8152600481018590526000907f00000000000000000000000000000000000000000000000000000000000000006001600160a01b03169063516990e390602401602060405180830381865afa158015611e10573d6000803e3d6000fd5b505050506040513d601f19601f82011682018060405250810190611e3491906133e2565b9050611e6a6001600160a01b0387167f00000000000000000000000000000000000000000000000000000000000000008761269a565b7f00000000000000000000000000000000000000000000000000000000000000006001600160a01b031663779b432d868560200151611eaf306001600160a01b031690565b8a306030546040516001600160e01b031960e089901b168152611ee69695949392918a9163ffffffff909116908e90600401613427565b600060405180830381600087803b158015611f0057600080fd5b505af1158015611f14573d6000803e3d6000fd5b50505050505050505050565b60008080806060611f3186836127af565b9450611f3e8660046127af565b9350611f4b86602c6127d7565b9250611f5886604c6127d7565b9150611f7160948751886127f19092919063ffffffff16565b905091939590929450565b6000806000806000611f8d8a61294b565b945094509450945094507f00000000000000000000000000000000000000000000000000000000000000006001600160a01b0316856001600160a01b03161461200f5760405162461bcd60e51b815260206004820152601460248201527321a1aa281d103130b210313ab937103a37b5b2b760611b6044820152606401610716565b6040516370a0823160e01b81523060048201526000907f00000000000000000000000000000000000000000000000000000000000000006001600160a01b0316906370a0823190602401602060405180830381865afa158015612076573d6000803e3d6000fd5b505050506040513d601f19601f8201168201806040525081019061209a91906133e2565b604051630afd9fa560e31b81529091506001600160a01b037f000000000000000000000000000000000000000000000000000000000000000016906357ecfd28906120ef908d908d908d908d90600401613304565b6020604051808303816000875af115801561210e573d6000803e3d6000fd5b505050506040513d601f19601f82011682018060405250810190612132919061332b565b6121735760405162461bcd60e51b815260206004820152601260248201527110d0d5140e881c995b185e4819985a5b195960721b6044820152606401610716565b6040516370a0823160e01b815230600482015260009061221d9083906001600160a01b037f000000000000000000000000000000000000000000000000000000000000000016906370a0823190602401602060405180830381865afa1580156121e0573d6000803e3d6000fd5b505050506040513d601f19601f8201168201806040525081019061220491906133e2565b61220e919061349e565b612218868961349e565b6129f0565b905061222d8d868584888b612a06565b50505050505050505050505050565b6001600160a01b0381166122925760405162461bcd60e51b815260206004820152601a60248201527f4e657720476f7665726e6f7220697320616464726573732830290000000000006044820152606401610716565b61229b81612aac565b50565b60305463ffffffff166122c35760405162461bcd60e51b815260040161071690613348565b60208201516030546040516314b157ab60e01b81527f00000000000000000000000000000000000000000000000000000000000000006001600160a01b0316926314b157ab92612324923091829163ffffffff909116908a906004016134b1565b600060405180830381600087803b15801561233e57600080fd5b505af1158015611b06573d6000803e3d6000fd5b60006123a7826040518060400160405280602081526020017f5361666545524332303a206c6f772d6c6576656c2063616c6c206661696c6564815250856001600160a01b0316612b139092919063ffffffff16565b8051909150156108e557808060200190518101906123c5919061332b565b6108e55760405162461bcd60e51b815260206004820152602a60248201527f5361666545524332303a204552433230206f7065726174696f6e20646964206e6044820152691bdd081cdd58d8d9595960b21b6064820152608401610716565b600080606061243284612b2a565b6001600160a01b038316600090815260208190526040902054929550909350915060ff166124725760405162461bcd60e51b815260040161071690613276565b6001600160a01b0383166000908152600160209081526040918290208251606081018452905460ff8116158015835261010082046001600160401b031693830193909352600160481b900463ffffffff16928101929092526124e65760405162461bcd60e51b8152600401610716906132ad565b80602001516001600160401b0316876001600160401b03161461254b5760405162461bcd60e51b815260206004820152601b60248201527f416461707465723a2077726f6e6720736f7572636520636861696e00000000006044820152606401610716565b6001600160a01b03861630146125a35760405162461bcd60e51b815260206004820152601e60248201527f416461707465723a206e6f742066726f6d2070656572206164617074657200006044820152606401610716565b5093509350939050565b6000831180156125c557506001600160a01b03841615155b156125de576125de6001600160a01b03851686856119e5565b604051630479955f60e41b81526001600160a01b0386169063479955f09061261290889088908890889088906004016134e8565b600060405180830381600087803b15801561262c57600080fd5b505af1158015612640573d6000803e3d6000fd5b5050604080516001600160a01b0388811682526020820188905291810186905290881692507f3a46b614b3234045bbb33d4002833d6421d7101899bfa5d74369d4364b73435d915060600160405180910390a25050505050565b8015806127145750604051636eb1769f60e11b81523060048201526001600160a01b03838116602483015284169063dd62ed3e90604401602060405180830381865afa1580156126ee573d6000803e3d6000fd5b505050506040513d601f19601f8201168201806040525081019061271291906133e2565b155b61277f5760405162461bcd60e51b815260206004820152603660248201527f5361666545524332303a20617070726f76652066726f6d206e6f6e2d7a65726f60448201527520746f206e6f6e2d7a65726f20616c6c6f77616e636560501b6064820152608401610716565b6040516001600160a01b0383166024820152604481018290526108e590849063095ea7b360e01b90606401611a11565b60006127ce6127c984846127c4600482613522565b6127f1565b612c0f565b90505b92915050565b60006127ce6127ec84846127c4602082613522565b612c45565b6060828210156128395760405162461bcd60e51b8152602060048201526013602482015272496e76616c696420736c6963652072616e676560681b6044820152606401610716565b835182111561288a5760405162461bcd60e51b815260206004820152601d60248201527f536c69636520656e6420657863656564732064617461206c656e6774680000006044820152606401610716565b6000612896848461349e565b90506000816001600160401b038111156128b2576128b2613535565b6040519080825280601f01601f1916602001820160405280156128dc576020820181803683370190505b50905060005b8281101561294157866128f58288613522565b815181106129055761290561354b565b602001015160f81c60f81b8282815181106129225761292261354b565b60200101906001600160f81b031916908160001a9053506001016128e2565b5095945050505050565b600080600080606060e4865110156129a55760405162461bcd60e51b815260206004820152601960248201527f434354503a206275726e20626f647920746f6f2073686f7274000000000000006044820152606401610716565b6129b08660046127d7565b94506129bd866044612c7c565b93506129ca8660646127d7565b92506129d78660a4612c7c565b9150611f7160e48751886127f19092919063ffffffff16565b60008183106129ff57816127ce565b5090919050565b6000806000612a1c8963ffffffff168989612424565b9250925092508160001480612a3057508382145b612a745760405162461bcd60e51b815260206004820152601560248201527408686a8a07440d2dce8cadce840dad2e6dac2e8c6d605b1b6044820152606401610716565b612aa1837f00000000000000000000000000000000000000000000000000000000000000008888856125ad565b505050505050505050565b806001600160a01b0316612acc6000805160206136028339815191525490565b6001600160a01b03167fc7c0c772add429241571afb3805861fb3cfa2af374534088b76cdb4325a87e9a60405160405180910390a360008051602061360283398151915255565b6060612b228484600085612c96565b949350505050565b6000806060603484511015612b795760405162461bcd60e51b8152602060048201526015602482015274416461707465723a2062616420656e76656c6f706560581b6044820152606401610716565b602084015160601c925060348401519150600060348551612b9a919061349e565b9050806001600160401b03811115612bb457612bb4613535565b6040519080825280601f01601f191660200182016040528015612bde576020820181803683370190505b509150605485016020830160005b83811015612c04578281015182820152602001612bec565b505050509193909250565b60008151600414612c325760405162461bcd60e51b815260040161071690613561565b60e0612c3d8361358e565b901c92915050565b60008151602014612c685760405162461bcd60e51b815260040161071690613561565b818060200190518101906127d191906135b5565b60006127ce612c9184846127c4602082613522565b612dbe565b606082471015612cf75760405162461bcd60e51b815260206004820152602660248201527f416464726573733a20696e73756666696369656e742062616c616e636520666f6044820152651c8818d85b1b60d21b6064820152608401610716565b843b612d455760405162461bcd60e51b815260206004820152601d60248201527f416464726573733a2063616c6c20746f206e6f6e2d636f6e74726163740000006044820152606401610716565b600080866001600160a01b03168587604051612d6191906135d2565b60006040518083038185875af1925050503d8060008114612d9e576040519150601f19603f3d011682016040523d82523d6000602084013e612da3565b606091505b5091509150612db3828286612df5565b979650505050505050565b60008151602014612de15760405162461bcd60e51b815260040161071690613561565b818060200190518101906127d191906133e2565b60608315612e04575081611b38565b825115612e145782518084602001fd5b8160405162461bcd60e51b815260040161071691906135ee565b6001600160a01b038116811461229b57600080fd5b6000808284036080811215612e5757600080fd5b8335612e6281612e2e565b92506060601f1982011215612e7657600080fd5b506020830190509250929050565b60008060408385031215612e9757600080fd5b8235612ea281612e2e565b946020939093013593505050565b63ffffffff8116811461229b57600080fd5b60008083601f840112612ed457600080fd5b5081356001600160401b03811115612eeb57600080fd5b602083019150836020828501011115612f0357600080fd5b9250929050565b600080600080600060808688031215612f2257600080fd5b8535612f2d81612eb0565b9450602086013593506040860135612f4481612eb0565b925060608601356001600160401b03811115612f5f57600080fd5b612f6b88828901612ec2565b969995985093965092949392505050565b600060208284031215612f8e57600080fd5b8135611b3881612e2e565b600060208284031215612fab57600080fd5b8135611b3881612eb0565b60008060008060608587031215612fcc57600080fd5b8435612fd781612e2e565b93506020850135925060408501356001600160401b03811115612ff957600080fd5b61300587828801612ec2565b95989497509550505050565b6000806000806040858703121561302757600080fd5b84356001600160401b0381111561303d57600080fd5b61304987828801612ec2565b90955093505060208501356001600160401b03811115612ff957600080fd5b6000806020838503121561307b57600080fd5b82356001600160401b0381111561309157600080fd5b61309d85828601612ec2565b90969095509350505050565b6000602082840312156130bb57600080fd5b5035919050565b6020808252601a908201527f43616c6c6572206973206e6f742074686520476f7665726e6f72000000000000604082015260600190565b801515811461229b57600080fd5b6001600160401b038116811461229b57600080fd5b8135613127816130f9565b815460ff19811691151560ff169182178355602084013561314781613107565b68ffffffffffffffff008160081b169050808368ffffffffffffffffff19841617178455604085013561317981612eb0565b6cffffffff0000000000000000008160481b16846cffffffffffffffffffffffffff198516178317178555505050505050565b6060810182356131bb816130f9565b1515825260208301356131cd81613107565b6001600160401b0316602083015260408301356131e981612eb0565b63ffffffff811660408401525092915050565b6020808252601e908201527f416461707465723a2073656e646572206e6f7420617574686f72697365640000604082015260600190565b60208082526023908201527f416461707465723a206e6f742073747261746567697374206f7220676f7665726040820152623737b960e91b606082015260800190565b60208082526017908201527f416461707465723a206e6f7420617574686f7269736564000000000000000000604082015260600190565b6020808252601490820152731059185c1d195c8e881b185b99481c185d5cd95960621b604082015260600190565b81835281816020850137506000828201602090810191909152601f909101601f19169091010190565b6040815260006133186040830186886132db565b8281036020840152612db38185876132db565b60006020828403121561333d57600080fd5b8151611b38816130f9565b60208082526017908201527f434354503a207468726573686f6c64206e6f7420736574000000000000000000604082015260600190565b60005b8381101561339a578181015183820152602001613382565b50506000910152565b6bffffffffffffffffffffffff198460601b168152826014820152600082516133d381603485016020870161337f565b91909101603401949350505050565b6000602082840312156133f457600080fd5b5051919050565b6000815180845261341381602086016020860161337f565b601f01601f19169290920160200192915050565b88815263ffffffff8816602082015286604082015260018060a01b03861660608201528460808201528360a082015263ffffffff831660c082015261010060e0820152600061347a6101008301846133fb565b9a9950505050505050505050565b634e487b7160e01b600052601160045260246000fd5b818103818111156127d1576127d1613488565b63ffffffff8616815284602082015283604082015263ffffffff8316606082015260a060808201526000612db360a08301846133fb565b6001600160a01b03868116825285166020820152604081018490526060810183905260a060808201819052600090612db3908301846133fb565b808201808211156127d1576127d1613488565b634e487b7160e01b600052604160045260246000fd5b634e487b7160e01b600052603260045260246000fd5b602080825260139082015272092dcecc2d8d2c840c8c2e8c240d8cadccee8d606b1b604082015260600190565b805160208083015191908110156135af576000198160200360031b1b821691505b50919050565b6000602082840312156135c757600080fd5b8151611b3881612e2e565b600082516135e481846020870161337f565b9190910192915050565b6020815260006127ce60208301846133fb56fe7bea13895fa79d2831e0a9e28edede30099005a50d652d8957cf8a607ee6ca4aa2646970667358221220c54df292ceb9cc9c363c97462d00e381e954427a6161c99626cddaa1d6fd450864736f6c634300081c00337bea13895fa79d2831e0a9e28edede30099005a50d652d8957cf8a607ee6ca4a",
  "devdoc": {
    "author": "Origin Protocol Inc",
    "kind": "dev",
    "methods": {
      "handleReceiveFinalizedMessage(uint32,bytes32,uint32,bytes)": {
        "details": "Finalized messages have finality threshold values greater than or equal to 2000",
        "params": {
          "finalityThresholdExecuted": "the finality threshold at which the message was attested to",
          "messageBody": "The raw bytes of the message body",
          "sender": "The sender of the message",
          "sourceDomain": "The source domain of the message"
        },
        "returns": {
          "_0": "success True, if successful; false, if not."
        }
      },
      "handleReceiveUnfinalizedMessage(uint32,bytes32,uint32,bytes)": {
        "details": "Accepts pre-finalised inbound when CCTP has executed at least the configured      `minFinalityThreshold`. This is how fast-finality (1000 <= threshold < 2000)      actually delivers — MessageTransmitter routes via this handler when      `finalityThresholdExecuted < 2000`, and we accept if it's >= our floor.      If `minFinalityThreshold == 2000` (default for finalised-only deployments),      this rejects every unfinalised callback — the strict-finalised mode.      If `minFinalityThreshold == 0` (governor hasn't called the setter yet), we      reject everything, defensive against pre-init relays.",
        "params": {
          "finalityThresholdExecuted": "The finality threshold at which the message was attested to",
          "messageBody": "The raw bytes of the message body",
          "sender": "The sender of the message",
          "sourceDomain": "The source domain of the message"
        },
        "returns": {
          "_0": "success True, if successful; false, if not."
        }
      },
      "quoteFee(address,uint256,bytes)": {
        "returns": {
          "fee": "The fee amount, denominated in `feeToken`. When `feeToken == address(0)`             this is a native (ETH) fee. When non-zero this is an ERC20 fee in that             token. When the bridge protocol auto-deducts from the bridged amount             (e.g., CCTP V2 fast-finality), `fee` is informational only — the actual             deduction happens transparently inside the bridge, NOT on the caller.",
          "feeToken": "The token the fee is denominated in. `address(0)` means native.",
          "requiresExternalPayment": "True if the caller must supply `fee` of `feeToken`             alongside the send call (e.g., via `msg.value` for native). False if the             bridge protocol handles the fee transparently (e.g., deducts from the             bridged token amount). The strategy reads this flag to decide whether to             enforce a `msg.value` check; if false, the caller can ignore `fee`             entirely.         The three-value return separates two orthogonal concerns:           1. Pre-send caller action (do I need to pay anything separately?)           2. Post-send accounting (the actual deduction is surfaced via              `IBridgeReceiver.receiveMessage(... uint256 feePaid)` on the receiving              side, independent of this quote)."
        }
      },
      "sendMessage(bytes)": {
        "details": "No refund on excess. Overpayment stays on the adapter; recover via      `transferToken(address(0), amount)` (governor-only). Rationale: refunds      add code surface, and the strategy quotes fees itself before calling — overpay      should be rare. Pool-donation semantics are simpler than per-call refund logic."
      },
      "sendMessageAndTokens(address,uint256,bytes)": {
        "details": "Adapter pulls `amount` of `token` from `msg.sender` via `safeTransferFrom`,         then forwards via its bridge transport together with the wrapped envelope.         Same `msg.value` semantics as `sendMessage`."
      },
      "transferGovernance(address)": {
        "params": {
          "_newGovernor": "Address of the new Governor"
        }
      }
    },
    "title": "CCTPAdapter",
    "version": 1
  },
  "userdoc": {
    "kind": "user",
    "methods": {
      "MAX_TRANSFER_AMOUNT()": {
        "notice": "CCTP V2 protocol cap per burn. Hard-coded as a `constant` so it can't be         raised by governance — Circle decides this number, not us. Higher values         would revert at the TokenMessenger anyway; we reject early for a cleaner         error message. If Circle ever raises the cap, this constant gets bumped via         contract upgrade, not via governance setter."
      },
      "authorise(address,(bool,uint64,uint32))": {
        "notice": "Authorise `sender` to use this adapter and register its lane config.         Authorisation is bidirectional: the same `sender` is recognised both as         outbound `msg.sender` and as inbound `envelopeSender`."
      },
      "authorised(address)": {
        "notice": "Sender → authorised flag. Gates both outbound `msg.sender` and inbound         envelopeSender. CREATE3 parity means the same address represents the same         strategy on every chain it lives on."
      },
      "claimGovernance()": {
        "notice": "Claim Governance of the contract to a new account (`newGovernor`). Can only be called by the new Governor."
      },
      "governor()": {
        "notice": "Returns the address of the current Governor."
      },
      "handleReceiveFinalizedMessage(uint32,bytes32,uint32,bytes)": {
        "notice": "Handles an incoming finalized message from an IReceiverV2"
      },
      "handleReceiveUnfinalizedMessage(uint32,bytes32,uint32,bytes)": {
        "notice": "Handles an incoming unfinalized message from an IReceiverV2"
      },
      "isGovernor()": {
        "notice": "Returns true if the caller is the current Governor."
      },
      "laneConfig(address)": {
        "notice": "Sender → lane config. Mutating this changes which destination chain the         sender can send to / be received from; treat as governance-grade."
      },
      "maxTransferAmount()": {
        "notice": "Per-tx maximum token amount this adapter accepts on outbound. Governor-set         to match the bridge protocol's per-tx limit (CCIP token-lane rate, CCTP V2         per-burn cap, etc.). Strategies on the peer chain treat the same value as         \"max this adapter can deliver inbound per tx\" to size their withdrawAll-style         requests. `0` = no enforcement at this layer (concrete adapters may still         apply hard protocol-level constants on top)."
      },
      "messageTransmitter()": {
        "notice": "Circle CCTP V2 Message Transmitter (message-only sends + inbound delivery)."
      },
      "minFinalityThreshold()": {
        "notice": "Minimum finality threshold sent on every transfer. Range: 1000–2000.         2000 = finalised (zero protocol fee, ~13 minute delay on Ethereum).         1000–1999 = fast finality (non-zero token-side fee, sub-minute delivery).         NOT initialised at declaration — that would only set the storage slot on         the implementation, not on the proxy. Governor must call         `setMinFinalityThreshold` post-deploy. Send-side guard catches the         pre-init mistake with a clear revert message."
      },
      "minTransferAmount()": {
        "notice": "Lower bound on USDC transfers; governor-settable. Avoids dust burns that         waste gas + CCTP attestation latency on negligible amounts."
      },
      "operator()": {
        "notice": "Account allowed to invoke `relay(message, attestation)` — the off-chain         attestation poller / relayer. Single address; governor-settable. CCTP is         pull-driven so this role is required at the adapter level; CCIP and         Superbridge don't need it."
      },
      "quoteFee(address,uint256,bytes)": {
        "notice": "Quote the fee for the operation described by `(token, amount, payload)`."
      },
      "relay(bytes,bytes)": {
        "notice": "Operator entry point: hand a Circle-signed CCTP message + attestation pair         to the local MessageTransmitter, then dispatch the payload to the destination         strategy.         CCTP V2 has two on-wire message shapes that both arrive here:         1. **Burn-message + hook** (sourced from `TokenMessenger.depositForBurnWithHook`).            The transport `sender` is the source-side `TokenMessenger`. The transport            `recipient` is the destination `TokenMessenger`, NOT this adapter. The            body is a CCTP burn body containing burnToken / mintRecipient / amount /            msgSender / feeExecuted / hookData. Auto-dispatch via            `handleReceiveMessage` on the mintRecipient is V2.1-only and not            universally available across Circle's chain deployments, so we DON'T rely            on it. Instead: we call `messageTransmitter.receiveMessage` (which credits            USDC to this adapter as the configured mintRecipient), then parse the burn            body ourselves and call `_deliver` with the authoritative `amount -            feeExecuted` and the hookData (our application envelope). This mirrors            the older `AbstractCCTPIntegrator.relay()` pattern, which has been            exercised in production.         2. **Pure message** (sourced from `MessageTransmitter.sendMessage`). Transport            `sender` and `recipient` are both this adapter (CREATE3 parity). The body            is our application envelope directly. `messageTransmitter.receiveMessage`            triggers our own `handleReceiveFinalizedMessage` hook, which calls            `_handleInbound` and dispatches."
      },
      "sendMessage(bytes)": {
        "notice": "Send a message-only payload to the configured peer."
      },
      "sendMessageAndTokens(address,uint256,bytes)": {
        "notice": "Send a token transfer alongside a message to the configured peer."
      },
      "setMaxTransferAmount(uint256)": {
        "notice": "Governor sets the per-tx token amount ceiling. Set to match the bridge         protocol's actual per-tx limit (CCIP lane rate, CCTP burn cap, etc.).         `0` disables the check (e.g., canonical bridges with no per-tx limit)."
      },
      "strategists(address)": {
        "notice": "Strategists list — actors permitted to flip the `paused` flag on a lane.         The governor also has these powers."
      },
      "tokenMessenger()": {
        "notice": "Circle CCTP V2 Token Messenger."
      },
      "transferGovernance(address)": {
        "notice": "Transfers Governance of the contract to a new account (`newGovernor`). Can only be called by the current Governor. Must be claimed for this to complete"
      },
      "transferToken(address,uint256)": {
        "notice": "Sweep a stuck asset (or native via `_asset == address(0)`) to the governor.         Recovery only — used to rescue mistaken sends or drain stale refund balances."
      },
      "usdcToken()": {
        "notice": "USDC on this chain."
      }
    },
    "notice": "Atomic bidirectional adapter over Circle CCTP V2.           - Outbound (`sendMessageAndTokens`): burn USDC via `depositForBurnWithHook` with             the wrapped envelope as the hook data. The recipient mint amount equals the             burn amount minus CCTP's protocol fee (0 for finalised threshold, > 0 for             fast finality). The fee is absorbed by the protocol; the receiving strategy             accounts on the actual landed amount.           - Outbound (`sendMessage`): post a hook-only message via the MessageTransmitter.           - Inbound (`handleReceiveFinalizedMessage`): CCTP MessageTransmitter has minted             USDC to this adapter. Validate source domain + sender against the lane config,             then forward the actual minted amount to the destination strategy.         CCTP has no native bridge fee — `_quoteFee` returns 0 and the AbstractAdapter's         `msg.value` plumbing simply refunds whatever the caller forwarded.",
    "version": 1
  },
  "storageLayout": {
    "storage": [
      {
        "astId": 1243,
        "contract": "contracts/strategies/crosschainV3/adapters/CCTPAdapter.sol:CCTPAdapter",
        "label": "authorised",
        "offset": 0,
        "slot": "0",
        "type": "t_mapping(t_address,t_bool)"
      },
      {
        "astId": 1249,
        "contract": "contracts/strategies/crosschainV3/adapters/CCTPAdapter.sol:CCTPAdapter",
        "label": "laneConfig",
        "offset": 0,
        "slot": "1",
        "type": "t_mapping(t_address,t_struct(ChainConfig)1238_storage)"
      },
      {
        "astId": 1254,
        "contract": "contracts/strategies/crosschainV3/adapters/CCTPAdapter.sol:CCTPAdapter",
        "label": "strategists",
        "offset": 0,
        "slot": "2",
        "type": "t_mapping(t_address,t_bool)"
      },
      {
        "astId": 1257,
        "contract": "contracts/strategies/crosschainV3/adapters/CCTPAdapter.sol:CCTPAdapter",
        "label": "maxTransferAmount",
        "offset": 0,
        "slot": "3",
        "type": "t_uint256"
      },
      {
        "astId": 1322,
        "contract": "contracts/strategies/crosschainV3/adapters/CCTPAdapter.sol:CCTPAdapter",
        "label": "__gap",
        "offset": 0,
        "slot": "4",
        "type": "t_array(t_uint256)44_storage"
      },
      {
        "astId": 2459,
        "contract": "contracts/strategies/crosschainV3/adapters/CCTPAdapter.sol:CCTPAdapter",
        "label": "minFinalityThreshold",
        "offset": 0,
        "slot": "48",
        "type": "t_uint32"
      },
      {
        "astId": 2462,
        "contract": "contracts/strategies/crosschainV3/adapters/CCTPAdapter.sol:CCTPAdapter",
        "label": "minTransferAmount",
        "offset": 0,
        "slot": "49",
        "type": "t_uint256"
      },
      {
        "astId": 2465,
        "contract": "contracts/strategies/crosschainV3/adapters/CCTPAdapter.sol:CCTPAdapter",
        "label": "operator",
        "offset": 0,
        "slot": "50",
        "type": "t_address"
      }
    ],
    "types": {
      "t_address": {
        "encoding": "inplace",
        "label": "address",
        "numberOfBytes": "20"
      },
      "t_array(t_uint256)44_storage": {
        "base": "t_uint256",
        "encoding": "inplace",
        "label": "uint256[44]",
        "numberOfBytes": "1408"
      },
      "t_bool": {
        "encoding": "inplace",
        "label": "bool",
        "numberOfBytes": "1"
      },
      "t_mapping(t_address,t_bool)": {
        "encoding": "mapping",
        "key": "t_address",
        "label": "mapping(address => bool)",
        "numberOfBytes": "32",
        "value": "t_bool"
      },
      "t_mapping(t_address,t_struct(ChainConfig)1238_storage)": {
        "encoding": "mapping",
        "key": "t_address",
        "label": "mapping(address => struct AbstractAdapter.ChainConfig)",
        "numberOfBytes": "32",
        "value": "t_struct(ChainConfig)1238_storage"
      },
      "t_struct(ChainConfig)1238_storage": {
        "encoding": "inplace",
        "label": "struct AbstractAdapter.ChainConfig",
        "members": [
          {
            "astId": 1233,
            "contract": "contracts/strategies/crosschainV3/adapters/CCTPAdapter.sol:CCTPAdapter",
            "label": "paused",
            "offset": 0,
            "slot": "0",
            "type": "t_bool"
          },
          {
            "astId": 1235,
            "contract": "contracts/strategies/crosschainV3/adapters/CCTPAdapter.sol:CCTPAdapter",
            "label": "chainSelector",
            "offset": 1,
            "slot": "0",
            "type": "t_uint64"
          },
          {
            "astId": 1237,
            "contract": "contracts/strategies/crosschainV3/adapters/CCTPAdapter.sol:CCTPAdapter",
            "label": "destGasLimit",
            "offset": 9,
            "slot": "0",
            "type": "t_uint32"
          }
        ],
        "numberOfBytes": "32"
      },
      "t_uint256": {
        "encoding": "inplace",
        "label": "uint256",
        "numberOfBytes": "32"
      },
      "t_uint32": {
        "encoding": "inplace",
        "label": "uint32",
        "numberOfBytes": "4"
      },
      "t_uint64": {
        "encoding": "inplace",
        "label": "uint64",
        "numberOfBytes": "8"
      }
    }
  }
}