{
  "address": "0xc5685a88569dcA11f343DB4dB50c8e0A7DDAd992",
  "abi": [
    {
      "inputs": [
        {
          "internalType": "address",
          "name": "_vault",
          "type": "address"
        },
        {
          "internalType": "address",
          "name": "_token",
          "type": "address"
        }
      ],
      "stateMutability": "nonpayable",
      "type": "constructor"
    },
    {
      "anonymous": false,
      "inputs": [
        {
          "indexed": false,
          "internalType": "uint192",
          "name": "oldDripRate",
          "type": "uint192"
        },
        {
          "indexed": false,
          "internalType": "uint192",
          "name": "newDripRate",
          "type": "uint192"
        }
      ],
      "name": "DripRateUpdated",
      "type": "event"
    },
    {
      "anonymous": false,
      "inputs": [
        {
          "indexed": true,
          "internalType": "address",
          "name": "previousGovernor",
          "type": "address"
        },
        {
          "indexed": true,
          "internalType": "address",
          "name": "newGovernor",
          "type": "address"
        }
      ],
      "name": "GovernorshipTransferred",
      "type": "event"
    },
    {
      "anonymous": false,
      "inputs": [
        {
          "indexed": true,
          "internalType": "address",
          "name": "previousGovernor",
          "type": "address"
        },
        {
          "indexed": true,
          "internalType": "address",
          "name": "newGovernor",
          "type": "address"
        }
      ],
      "name": "PendingGovernorshipTransfer",
      "type": "event"
    },
    {
      "inputs": [],
      "name": "availableFunds",
      "outputs": [
        {
          "internalType": "uint256",
          "name": "",
          "type": "uint256"
        }
      ],
      "stateMutability": "view",
      "type": "function"
    },
    {
      "inputs": [],
      "name": "claimGovernance",
      "outputs": [],
      "stateMutability": "nonpayable",
      "type": "function"
    },
    {
      "inputs": [],
      "name": "collect",
      "outputs": [],
      "stateMutability": "nonpayable",
      "type": "function"
    },
    {
      "inputs": [],
      "name": "collectAndRebase",
      "outputs": [],
      "stateMutability": "nonpayable",
      "type": "function"
    },
    {
      "inputs": [],
      "name": "drip",
      "outputs": [
        {
          "internalType": "uint64",
          "name": "lastCollect",
          "type": "uint64"
        },
        {
          "internalType": "uint192",
          "name": "perSecond",
          "type": "uint192"
        }
      ],
      "stateMutability": "view",
      "type": "function"
    },
    {
      "inputs": [],
      "name": "dripDuration",
      "outputs": [
        {
          "internalType": "uint256",
          "name": "",
          "type": "uint256"
        }
      ],
      "stateMutability": "view",
      "type": "function"
    },
    {
      "inputs": [],
      "name": "governor",
      "outputs": [
        {
          "internalType": "address",
          "name": "",
          "type": "address"
        }
      ],
      "stateMutability": "view",
      "type": "function"
    },
    {
      "inputs": [],
      "name": "isGovernor",
      "outputs": [
        {
          "internalType": "bool",
          "name": "",
          "type": "bool"
        }
      ],
      "stateMutability": "view",
      "type": "function"
    },
    {
      "inputs": [
        {
          "internalType": "uint256",
          "name": "",
          "type": "uint256"
        }
      ],
      "name": "setDripDuration",
      "outputs": [],
      "stateMutability": "nonpayable",
      "type": "function"
    },
    {
      "inputs": [
        {
          "internalType": "uint192",
          "name": "_perSecond",
          "type": "uint192"
        }
      ],
      "name": "setDripRate",
      "outputs": [],
      "stateMutability": "nonpayable",
      "type": "function"
    },
    {
      "inputs": [
        {
          "internalType": "address",
          "name": "_newGovernor",
          "type": "address"
        }
      ],
      "name": "transferGovernance",
      "outputs": [],
      "stateMutability": "nonpayable",
      "type": "function"
    },
    {
      "inputs": [
        {
          "internalType": "address",
          "name": "_asset",
          "type": "address"
        },
        {
          "internalType": "uint256",
          "name": "_amount",
          "type": "uint256"
        }
      ],
      "name": "transferToken",
      "outputs": [],
      "stateMutability": "nonpayable",
      "type": "function"
    }
  ],
  "transactionHash": "0x729fd2868dfb11a585994343d30d74c7131be1af4843f665d7705c3102531b1e",
  "args": [
    "0xa3c0eCA00D2B76b4d1F170b0AB3FdeA16C180186",
    "0x039e2fB66102314Ce7b64Ce5Ce3E5183bc94aD38"
  ],
  "numDeployments": 1,
  "solcInputHash": "948eecc0ec79eb2dc715ae4f9ad789c7",
  "bytecode": "0x60c060405234801561001057600080fd5b50604051610f74380380610f7483398101604081905261002f916100c4565b818161004733600080516020610f5483398151915255565b600080516020610f54833981519152546040516001600160a01b03909116906000907fc7c0c772add429241571afb3805861fb3cfa2af374534088b76cdb4325a87e9a908290a36001600160a01b039182166080521660a052506100f79050565b80516001600160a01b03811681146100bf57600080fd5b919050565b600080604083850312156100d757600080fd5b6100e0836100a8565b91506100ee602084016100a8565b90509250929050565b60805160a051610e1c610138600039600081816102c2015281816108a90152610980015260008181610426015281816105a201526109aa0152610e1c6000f3fe608060405234801561001057600080fd5b50600436106100b45760003560e01c8063737962971161007157806373796297146101375780639f678cca1461013f578063bb7a632e1461018d578063c7af335214610196578063d38bfff4146101ae578063e5225381146101c157600080fd5b80630493a0fa146100b95780630c340a24146100ce5780631072cbea146100f357806346fcff4c146101065780635d36b1901461011c5780636f9afcc314610124575b600080fd5b6100cc6100c7366004610c1b565b6101c9565b005b6100d661020f565b6040516001600160a01b0390911681526020015b60405180910390f35b6100cc610101366004610c49565b61022c565b61010e6102a0565b6040519081526020016100ea565b6100cc610370565b6100cc610132366004610c75565b610416565b6100cc610598565b6001546101659067ffffffffffffffff811690600160401b90046001600160c01b031682565b6040805167ffffffffffffffff90931683526001600160c01b039091166020830152016100ea565b61010e60005481565b61019e610615565b60405190151581526020016100ea565b6100cc6101bc366004610c9e565b610646565b6100cc61071a565b60405162461bcd60e51b8152602060048201526016602482015275111c9a5c08191d5c985d1a5bdb88191a5cd8589b195960521b60448201526064015b60405180910390fd5b6000610227600080516020610dc78339815191525490565b905090565b610234610615565b6102805760405162461bcd60e51b815260206004820152601a60248201527f43616c6c6572206973206e6f742074686520476f7665726e6f720000000000006044820152606401610206565b61029c61028b61020f565b6001600160a01b0384169083610722565b5050565b6040516370a0823160e01b815230600482015260009081906001600160a01b037f000000000000000000000000000000000000000000000000000000000000000016906370a0823190602401602060405180830381865afa158015610309573d6000803e3d6000fd5b505050506040513d601f19601f8201168201806040525081019061032d9190610cbb565b6040805180820190915260015467ffffffffffffffff81168252600160401b90046001600160c01b0316602082015290915061036a908290610779565b91505090565b7f44c4d30b2eaad5130ad70c3ba6972730566f3e6359ab83e800d905c61b1c51db546001600160a01b0316336001600160a01b03161461040b5760405162461bcd60e51b815260206004820152603060248201527f4f6e6c79207468652070656e64696e6720476f7665726e6f722063616e20636f60448201526f6d706c6574652074686520636c61696d60801b6064820152608401610206565b610414336107cd565b565b61041e610615565b806104bb57507f00000000000000000000000000000000000000000000000000000000000000006001600160a01b031663570d8e1d6040518163ffffffff1660e01b8152600401602060405180830381865afa158015610482573d6000803e3d6000fd5b505050506040513d601f19601f820116820180604052508101906104a69190610cd4565b6001600160a01b0316336001600160a01b0316145b6105185760405162461bcd60e51b815260206004820152602860248201527f43616c6c6572206973206e6f74207468652053747261746567697374206f722060448201526723b7bb32b93737b960c11b6064820152608401610206565b600154604080516001600160c01b038085168252600160401b90930490921660208301527f146c090e0947f11ee6784ea0d0ee783f725be808249469a6acc4ea8b77bd47eb910160405180910390a161056f610891565b600180546001600160c01b03909216600160401b0267ffffffffffffffff909216919091179055565b6105a0610891565b7f00000000000000000000000000000000000000000000000000000000000000006001600160a01b031663af14052c6040518163ffffffff1660e01b8152600401600060405180830381600087803b1580156105fb57600080fd5b505af115801561060f573d6000803e3d6000fd5b50505050565b600061062d600080516020610dc78339815191525490565b6001600160a01b0316336001600160a01b031614905090565b61064e610615565b61069a5760405162461bcd60e51b815260206004820152601a60248201527f43616c6c6572206973206e6f742074686520476f7665726e6f720000000000006044820152606401610206565b6106c2817f44c4d30b2eaad5130ad70c3ba6972730566f3e6359ab83e800d905c61b1c51db55565b806001600160a01b03166106e2600080516020610dc78339815191525490565b6001600160a01b03167fa39cc5eb22d0f34d8beaefee8a3f17cc229c1a1d1ef87a5ad47313487b1c4f0d60405160405180910390a350565b610414610891565b604080516001600160a01b038416602482015260448082018490528251808303909101815260649091019091526020810180516001600160e01b031663a9059cbb60e01b1790526107749084906109cf565b505050565b805160009081906107949067ffffffffffffffff1642610d07565b9050600083602001516001600160c01b0316826107b19190610d1a565b90508481116107c057806107c2565b845b925050505b92915050565b6001600160a01b0381166108235760405162461bcd60e51b815260206004820152601a60248201527f4e657720476f7665726e6f7220697320616464726573732830290000000000006044820152606401610206565b806001600160a01b0316610843600080516020610dc78339815191525490565b6001600160a01b03167fc7c0c772add429241571afb3805861fb3cfa2af374534088b76cdb4325a87e9a60405160405180910390a361088e81600080516020610dc783398151915255565b50565b6040516370a0823160e01b81523060048201526000907f00000000000000000000000000000000000000000000000000000000000000006001600160a01b0316906370a0823190602401602060405180830381865afa1580156108f8573d6000803e3d6000fd5b505050506040513d601f19601f8201168201806040525081019061091c9190610cbb565b6040805180820190915260015467ffffffffffffffff81168252600160401b90046001600160c01b0316602082015290915060009061095c908390610779565b6001805467ffffffffffffffff19164267ffffffffffffffff16179055905061029c7f00000000000000000000000000000000000000000000000000000000000000006001600160a01b03167f000000000000000000000000000000000000000000000000000000000000000083610722565b6000610a24826040518060400160405280602081526020017f5361666545524332303a206c6f772d6c6576656c2063616c6c206661696c6564815250856001600160a01b0316610aa19092919063ffffffff16565b8051909150156107745780806020019051810190610a429190610d31565b6107745760405162461bcd60e51b815260206004820152602a60248201527f5361666545524332303a204552433230206f7065726174696f6e20646964206e6044820152691bdd081cdd58d8d9595960b21b6064820152608401610206565b6060610ab08484600085610aba565b90505b9392505050565b606082471015610b1b5760405162461bcd60e51b815260206004820152602660248201527f416464726573733a20696e73756666696369656e742062616c616e636520666f6044820152651c8818d85b1b60d21b6064820152608401610206565b843b610b695760405162461bcd60e51b815260206004820152601d60248201527f416464726573733a2063616c6c20746f206e6f6e2d636f6e74726163740000006044820152606401610206565b600080866001600160a01b03168587604051610b859190610d77565b60006040518083038185875af1925050503d8060008114610bc2576040519150601f19603f3d011682016040523d82523d6000602084013e610bc7565b606091505b5091509150610bd7828286610be2565b979650505050505050565b60608315610bf1575081610ab3565b825115610c015782518084602001fd5b8160405162461bcd60e51b81526004016102069190610d93565b600060208284031215610c2d57600080fd5b5035919050565b6001600160a01b038116811461088e57600080fd5b60008060408385031215610c5c57600080fd5b8235610c6781610c34565b946020939093013593505050565b600060208284031215610c8757600080fd5b81356001600160c01b0381168114610ab357600080fd5b600060208284031215610cb057600080fd5b8135610ab381610c34565b600060208284031215610ccd57600080fd5b5051919050565b600060208284031215610ce657600080fd5b8151610ab381610c34565b634e487b7160e01b600052601160045260246000fd5b818103818111156107c7576107c7610cf1565b80820281158282048414176107c7576107c7610cf1565b600060208284031215610d4357600080fd5b81518015158114610ab357600080fd5b60005b83811015610d6e578181015183820152602001610d56565b50506000910152565b60008251610d89818460208701610d53565b9190910192915050565b6020815260008251806020840152610db2816040850160208701610d53565b601f01601f1916919091016040019291505056fe7bea13895fa79d2831e0a9e28edede30099005a50d652d8957cf8a607ee6ca4aa264697066735822122067ced212d413a69bbca181dcb7ce20170a461af0f50384fce34da548c187bb0464736f6c634300081c00337bea13895fa79d2831e0a9e28edede30099005a50d652d8957cf8a607ee6ca4a",
  "libraries": {},
  "devdoc": {
    "kind": "dev",
    "methods": {
      "availableFunds()": {
        "returns": {
          "_0": "The amount that would be sent if a collect was called"
        }
      },
      "setDripDuration(uint256)": {
        "details": "Change the drip duration. Governor only.",
        "params": {
          "_durationSeconds": "the number of seconds to drip out the entire  balance over if no collects were called during that time."
        }
      },
      "setDripRate(uint192)": {
        "details": "Sets the drip rate. Callable by Strategist or Governor.      Can be set to zero to stop dripper.",
        "params": {
          "_perSecond": "Rate of WETH to drip per second"
        }
      },
      "transferGovernance(address)": {
        "params": {
          "_newGovernor": "Address of the new Governor"
        }
      },
      "transferToken(address,uint256)": {
        "details": "Transfer out ERC20 tokens held by the contract. Governor only.",
        "params": {
          "_amount": "amount to transfer",
          "_asset": "ERC20 token address"
        }
      }
    },
    "title": "Fixed Rate Dripper Similar to the Dripper, Fixed Rate Dripper drips out yield per second. However the Strategist decides the rate and it doesn't change after a drip.",
    "version": 1
  },
  "userdoc": {
    "kind": "user",
    "methods": {
      "claimGovernance()": {
        "notice": "Claim Governance of the contract to a new account (`newGovernor`). Can only be called by the new Governor."
      },
      "collect()": {
        "notice": "Collect all dripped funds and send to vault.  Recalculate new drip rate."
      },
      "collectAndRebase()": {
        "notice": "Collect all dripped funds, send to vault, recalculate new drip  rate, and rebase OUSD."
      },
      "governor()": {
        "notice": "Returns the address of the current Governor."
      },
      "isGovernor()": {
        "notice": "Returns true if the caller is the current Governor."
      },
      "transferGovernance(address)": {
        "notice": "Transfers Governance of the contract to a new account (`newGovernor`). Can only be called by the current Governor. Must be claimed for this to complete"
      }
    },
    "version": 1
  },
  "storageLayout": {
    "storage": [
      {
        "astId": 10478,
        "contract": "contracts/harvest/FixedRateDripper.sol:FixedRateDripper",
        "label": "dripDuration",
        "offset": 0,
        "slot": "0",
        "type": "t_uint256"
      },
      {
        "astId": 10481,
        "contract": "contracts/harvest/FixedRateDripper.sol:FixedRateDripper",
        "label": "drip",
        "offset": 0,
        "slot": "1",
        "type": "t_struct(Drip)10472_storage"
      }
    ],
    "types": {
      "t_struct(Drip)10472_storage": {
        "encoding": "inplace",
        "label": "struct Dripper.Drip",
        "members": [
          {
            "astId": 10469,
            "contract": "contracts/harvest/FixedRateDripper.sol:FixedRateDripper",
            "label": "lastCollect",
            "offset": 0,
            "slot": "0",
            "type": "t_uint64"
          },
          {
            "astId": 10471,
            "contract": "contracts/harvest/FixedRateDripper.sol:FixedRateDripper",
            "label": "perSecond",
            "offset": 8,
            "slot": "0",
            "type": "t_uint192"
          }
        ],
        "numberOfBytes": "32"
      },
      "t_uint192": {
        "encoding": "inplace",
        "label": "uint192",
        "numberOfBytes": "24"
      },
      "t_uint256": {
        "encoding": "inplace",
        "label": "uint256",
        "numberOfBytes": "32"
      },
      "t_uint64": {
        "encoding": "inplace",
        "label": "uint64",
        "numberOfBytes": "8"
      }
    }
  }
}