{
  "address": "0x27A712D92c5176e7074E77940c17E4ff36fa915e",
  "abi": [
    {
      "inputs": [
        {
          "internalType": "address",
          "name": "_wrappedNativeToken",
          "type": "address"
        }
      ],
      "stateMutability": "nonpayable",
      "type": "constructor"
    },
    {
      "anonymous": false,
      "inputs": [
        {
          "indexed": false,
          "internalType": "address",
          "name": "dripper",
          "type": "address"
        }
      ],
      "name": "DripperUpdated",
      "type": "event"
    },
    {
      "anonymous": false,
      "inputs": [
        {
          "indexed": true,
          "internalType": "address",
          "name": "previousGovernor",
          "type": "address"
        },
        {
          "indexed": true,
          "internalType": "address",
          "name": "newGovernor",
          "type": "address"
        }
      ],
      "name": "GovernorshipTransferred",
      "type": "event"
    },
    {
      "anonymous": false,
      "inputs": [
        {
          "indexed": true,
          "internalType": "address",
          "name": "strategy",
          "type": "address"
        },
        {
          "indexed": false,
          "internalType": "address",
          "name": "token",
          "type": "address"
        },
        {
          "indexed": false,
          "internalType": "uint256",
          "name": "amount",
          "type": "uint256"
        },
        {
          "indexed": true,
          "internalType": "address",
          "name": "receiver",
          "type": "address"
        }
      ],
      "name": "Harvested",
      "type": "event"
    },
    {
      "anonymous": false,
      "inputs": [
        {
          "indexed": true,
          "internalType": "address",
          "name": "previousGovernor",
          "type": "address"
        },
        {
          "indexed": true,
          "internalType": "address",
          "name": "newGovernor",
          "type": "address"
        }
      ],
      "name": "PendingGovernorshipTransfer",
      "type": "event"
    },
    {
      "anonymous": false,
      "inputs": [
        {
          "indexed": false,
          "internalType": "address",
          "name": "_address",
          "type": "address"
        }
      ],
      "name": "StrategistUpdated",
      "type": "event"
    },
    {
      "anonymous": false,
      "inputs": [
        {
          "indexed": false,
          "internalType": "address",
          "name": "strategy",
          "type": "address"
        },
        {
          "indexed": false,
          "internalType": "bool",
          "name": "status",
          "type": "bool"
        }
      ],
      "name": "SupportedStrategyUpdated",
      "type": "event"
    },
    {
      "inputs": [],
      "name": "claimGovernance",
      "outputs": [],
      "stateMutability": "nonpayable",
      "type": "function"
    },
    {
      "inputs": [],
      "name": "dripper",
      "outputs": [
        {
          "internalType": "address",
          "name": "",
          "type": "address"
        }
      ],
      "stateMutability": "view",
      "type": "function"
    },
    {
      "inputs": [],
      "name": "governor",
      "outputs": [
        {
          "internalType": "address",
          "name": "",
          "type": "address"
        }
      ],
      "stateMutability": "view",
      "type": "function"
    },
    {
      "inputs": [
        {
          "internalType": "address",
          "name": "_strategy",
          "type": "address"
        }
      ],
      "name": "harvestAndTransfer",
      "outputs": [],
      "stateMutability": "nonpayable",
      "type": "function"
    },
    {
      "inputs": [
        {
          "internalType": "address[]",
          "name": "_strategies",
          "type": "address[]"
        }
      ],
      "name": "harvestAndTransfer",
      "outputs": [],
      "stateMutability": "nonpayable",
      "type": "function"
    },
    {
      "inputs": [
        {
          "internalType": "address",
          "name": "_governor",
          "type": "address"
        },
        {
          "internalType": "address",
          "name": "_strategist",
          "type": "address"
        },
        {
          "internalType": "address",
          "name": "_dripper",
          "type": "address"
        }
      ],
      "name": "initialize",
      "outputs": [],
      "stateMutability": "nonpayable",
      "type": "function"
    },
    {
      "inputs": [],
      "name": "isGovernor",
      "outputs": [
        {
          "internalType": "bool",
          "name": "",
          "type": "bool"
        }
      ],
      "stateMutability": "view",
      "type": "function"
    },
    {
      "inputs": [
        {
          "internalType": "address",
          "name": "_dripper",
          "type": "address"
        }
      ],
      "name": "setDripper",
      "outputs": [],
      "stateMutability": "nonpayable",
      "type": "function"
    },
    {
      "inputs": [
        {
          "internalType": "address",
          "name": "_address",
          "type": "address"
        }
      ],
      "name": "setStrategistAddr",
      "outputs": [],
      "stateMutability": "nonpayable",
      "type": "function"
    },
    {
      "inputs": [
        {
          "internalType": "address",
          "name": "_strategy",
          "type": "address"
        },
        {
          "internalType": "bool",
          "name": "_isSupported",
          "type": "bool"
        }
      ],
      "name": "setSupportedStrategy",
      "outputs": [],
      "stateMutability": "nonpayable",
      "type": "function"
    },
    {
      "inputs": [],
      "name": "strategistAddr",
      "outputs": [
        {
          "internalType": "address",
          "name": "",
          "type": "address"
        }
      ],
      "stateMutability": "view",
      "type": "function"
    },
    {
      "inputs": [
        {
          "internalType": "address",
          "name": "",
          "type": "address"
        }
      ],
      "name": "supportedStrategies",
      "outputs": [
        {
          "internalType": "bool",
          "name": "",
          "type": "bool"
        }
      ],
      "stateMutability": "view",
      "type": "function"
    },
    {
      "inputs": [
        {
          "internalType": "address",
          "name": "_newGovernor",
          "type": "address"
        }
      ],
      "name": "transferGovernance",
      "outputs": [],
      "stateMutability": "nonpayable",
      "type": "function"
    },
    {
      "inputs": [
        {
          "internalType": "address",
          "name": "_asset",
          "type": "address"
        },
        {
          "internalType": "uint256",
          "name": "_amount",
          "type": "uint256"
        }
      ],
      "name": "transferToken",
      "outputs": [],
      "stateMutability": "nonpayable",
      "type": "function"
    },
    {
      "inputs": [],
      "name": "wrappedNativeToken",
      "outputs": [
        {
          "internalType": "address",
          "name": "",
          "type": "address"
        }
      ],
      "stateMutability": "view",
      "type": "function"
    }
  ],
  "transactionHash": "0x80ed006458003e8f30cdabafae1ad9fc69fde6ff1e818abd2743c3a8ff45b3f6",
  "args": [
    "0x039e2fB66102314Ce7b64Ce5Ce3E5183bc94aD38"
  ],
  "numDeployments": 1,
  "solcInputHash": "ea5866f942a7edcd1f4e3b18c390601e",
  "bytecode": "0x60a060405234801561001057600080fd5b506040516112dd3803806112dd83398101604081905261002f916100b3565b6001600160a01b038116608052610046600061004c565b506100e3565b6001600160a01b03811661006c6000805160206112bd8339815191525490565b6001600160a01b03167fc7c0c772add429241571afb3805861fb3cfa2af374534088b76cdb4325a87e9a60405160405180910390a36000805160206112bd83398151915255565b6000602082840312156100c557600080fd5b81516001600160a01b03811681146100dc57600080fd5b9392505050565b6080516111b86101056000396000818161014c015261087b01526111b86000f3fe608060405234801561001057600080fd5b50600436106100f55760003560e01c8063603ea03b11610097578063c0c53b8b11610066578063c0c53b8b146101e8578063c7af3352146101fb578063d38bfff414610213578063ee3be5f51461022657600080fd5b8063603ea03b1461019c57806365f6fa94146101af578063773540b3146101c2578063b8a02d04146101d557600080fd5b806317fcb39b116100d357806317fcb39b146101475780632e9958ab1461016e578063570d8e1d146101815780635d36b1901461019457600080fd5b806308765741146100fa5780630c340a241461010f5780631072cbea14610134575b600080fd5b61010d610108366004610ddc565b610249565b005b610117610255565b6040516001600160a01b0390911681526020015b60405180910390f35b61010d610142366004610df9565b610272565b6101177f000000000000000000000000000000000000000000000000000000000000000081565b61010d61017c366004610ddc565b6102d1565b603354610117906001600160a01b031681565b61010d6102fe565b606654610117906001600160a01b031681565b61010d6101bd366004610e33565b6103a4565b61010d6101d0366004610ddc565b610488565b61010d6101e3366004610e6c565b6104b5565b61010d6101f6366004610ee3565b6104fc565b6102036105cd565b604051901515815260200161012b565b61010d610221366004610ddc565b6105fe565b610203610234366004610ddc565b60676020526000908152604090205460ff1681565b610252816106a2565b50565b600061026d6000805160206111638339815191525490565b905090565b6033546001600160a01b031633148061028e575061028e6105cd565b6102b35760405162461bcd60e51b81526004016102aa90610f2e565b60405180910390fd5b6033546102cd906001600160a01b03848116911683610978565b5050565b6102d96105cd565b6102f55760405162461bcd60e51b81526004016102aa90610f76565b610252816109ca565b7f44c4d30b2eaad5130ad70c3ba6972730566f3e6359ab83e800d905c61b1c51db546001600160a01b0316336001600160a01b0316146103995760405162461bcd60e51b815260206004820152603060248201527f4f6e6c79207468652070656e64696e6720476f7665726e6f722063616e20636f60448201526f6d706c6574652074686520636c61696d60801b60648201526084016102aa565b6103a233610a67565b565b6033546001600160a01b03163314806103c057506103c06105cd565b6103dc5760405162461bcd60e51b81526004016102aa90610f2e565b6001600160a01b0382166104255760405162461bcd60e51b815260206004820152601060248201526f496e76616c696420737472617465677960801b60448201526064016102aa565b6001600160a01b038216600081815260676020908152604091829020805460ff19168515159081179091558251938452908301527f3ca7a8b51f893d82f3035738ff1da9ae735b29cf93d0e61bb859313c379b3e76910160405180910390a15050565b6104906105cd565b6104ac5760405162461bcd60e51b81526004016102aa90610f76565b61025281610ac6565b60005b818110156104f7576104ef8383838181106104d5576104d5610fad565b90506020020160208101906104ea9190610ddc565b6106a2565b6001016104b8565b505050565b600054610100900460ff1680610515575060005460ff16155b6105785760405162461bcd60e51b815260206004820152602e60248201527f496e697469616c697a61626c653a20636f6e747261637420697320616c72656160448201526d191e481a5b9a5d1a585b1a5e995960921b60648201526084016102aa565b600054610100900460ff1615801561059a576000805461ffff19166101011790555b6105a383610ac6565b6105ac84610a67565b6105b5826109ca565b80156105c7576000805461ff00191690555b50505050565b60006105e56000805160206111638339815191525490565b6001600160a01b0316336001600160a01b031614905090565b6106066105cd565b6106225760405162461bcd60e51b81526004016102aa90610f76565b61064a817f44c4d30b2eaad5130ad70c3ba6972730566f3e6359ab83e800d905c61b1c51db55565b806001600160a01b031661066a6000805160206111638339815191525490565b6001600160a01b03167fa39cc5eb22d0f34d8beaefee8a3f17cc229c1a1d1ef87a5ad47313487b1c4f0d60405160405180910390a350565b6001600160a01b03811660009081526067602052604090205460ff166107035760405162461bcd60e51b815260206004820152601660248201527514dd1c985d1959de481b9bdd081cdd5c1c1bdc9d195960521b60448201526064016102aa565b60335460665460408051635a063f6360e01b815290516001600160a01b039384169392831692851691635a063f6391600480830192600092919082900301818387803b15801561075257600080fd5b505af1158015610766573d6000803e3d6000fd5b505050506000836001600160a01b031663f6ca71b06040518163ffffffff1660e01b8152600401600060405180830381865afa1580156107aa573d6000803e3d6000fd5b505050506040513d6000823e601f3d908101601f191682016040526107d29190810190610fe9565b805190915060005b818110156109705760008382815181106107f6576107f6610fad565b60209081029190910101516040516370a0823160e01b81523060048201529091506000906001600160a01b038316906370a0823190602401602060405180830381865afa15801561084b573d6000803e3d6000fd5b505050506040513d601f19601f8201168201806040525081019061086f91906110b9565b905080156109665760007f00000000000000000000000000000000000000000000000000000000000000006001600160a01b0316836001600160a01b0316146108b857876108ba565b865b90506001600160a01b0381166109055760405162461bcd60e51b815260206004820152601060248201526f24b73b30b634b2103932b1b2b4bb32b960811b60448201526064016102aa565b6109196001600160a01b0384168284610978565b604080516001600160a01b0385811682526020820185905280841692908c16917f64176c791992d34a042a9aad3aa4ace3970c8ce117529438b7d285a47dd40f07910160405180910390a3505b50506001016107da565b505050505050565b604080516001600160a01b038416602482015260448082018490528251808303909101815260649091019091526020810180516001600160e01b031663a9059cbb60e01b1790526104f7908490610b14565b6001600160a01b038116610a125760405162461bcd60e51b815260206004820152600f60248201526e24b73b30b634b210323934b83832b960891b60448201526064016102aa565b606680546001600160a01b0319166001600160a01b0383169081179091556040519081527f4cd8d6305ee3d38746117f069329b1a466ee9e483d5cbaebdbfd9d294278533f906020015b60405180910390a150565b6001600160a01b038116610abd5760405162461bcd60e51b815260206004820152601a60248201527f4e657720476f7665726e6f72206973206164647265737328302900000000000060448201526064016102aa565b61025281610be6565b603380546001600160a01b0319166001600160a01b0383169081179091556040519081527f869e0abd13cc3a975de7b93be3df1cb2255c802b1cead85963cc79d99f131bee90602001610a5c565b6000610b69826040518060400160405280602081526020017f5361666545524332303a206c6f772d6c6576656c2063616c6c206661696c6564815250856001600160a01b0316610c4d9092919063ffffffff16565b8051909150156104f75780806020019051810190610b8791906110d2565b6104f75760405162461bcd60e51b815260206004820152602a60248201527f5361666545524332303a204552433230206f7065726174696f6e20646964206e6044820152691bdd081cdd58d8d9595960b21b60648201526084016102aa565b806001600160a01b0316610c066000805160206111638339815191525490565b6001600160a01b03167fc7c0c772add429241571afb3805861fb3cfa2af374534088b76cdb4325a87e9a60405160405180910390a360008051602061116383398151915255565b6060610c5c8484600085610c66565b90505b9392505050565b606082471015610cc75760405162461bcd60e51b815260206004820152602660248201527f416464726573733a20696e73756666696369656e742062616c616e636520666f6044820152651c8818d85b1b60d21b60648201526084016102aa565b843b610d155760405162461bcd60e51b815260206004820152601d60248201527f416464726573733a2063616c6c20746f206e6f6e2d636f6e747261637400000060448201526064016102aa565b600080866001600160a01b03168587604051610d319190611113565b60006040518083038185875af1925050503d8060008114610d6e576040519150601f19603f3d011682016040523d82523d6000602084013e610d73565b606091505b5091509150610d83828286610d8e565b979650505050505050565b60608315610d9d575081610c5f565b825115610dad5782518084602001fd5b8160405162461bcd60e51b81526004016102aa919061112f565b6001600160a01b038116811461025257600080fd5b600060208284031215610dee57600080fd5b8135610c5f81610dc7565b60008060408385031215610e0c57600080fd5b8235610e1781610dc7565b946020939093013593505050565b801515811461025257600080fd5b60008060408385031215610e4657600080fd5b8235610e5181610dc7565b91506020830135610e6181610e25565b809150509250929050565b60008060208385031215610e7f57600080fd5b823567ffffffffffffffff811115610e9657600080fd5b8301601f81018513610ea757600080fd5b803567ffffffffffffffff811115610ebe57600080fd5b8560208260051b8401011115610ed357600080fd5b6020919091019590945092505050565b600080600060608486031215610ef857600080fd5b8335610f0381610dc7565b92506020840135610f1381610dc7565b91506040840135610f2381610dc7565b809150509250925092565b60208082526028908201527f43616c6c6572206973206e6f74207468652053747261746567697374206f722060408201526723b7bb32b93737b960c11b606082015260800190565b6020808252601a908201527f43616c6c6572206973206e6f742074686520476f7665726e6f72000000000000604082015260600190565b634e487b7160e01b600052603260045260246000fd5b634e487b7160e01b600052604160045260246000fd5b8051610fe481610dc7565b919050565b600060208284031215610ffb57600080fd5b815167ffffffffffffffff81111561101257600080fd5b8201601f8101841361102357600080fd5b805167ffffffffffffffff81111561103d5761103d610fc3565b8060051b604051601f19603f830116810181811067ffffffffffffffff8211171561106a5761106a610fc3565b60405291825260208184018101929081018784111561108857600080fd5b6020850194505b838510156110ae576110a085610fd9565b81526020948501940161108f565b509695505050505050565b6000602082840312156110cb57600080fd5b5051919050565b6000602082840312156110e457600080fd5b8151610c5f81610e25565b60005b8381101561110a5781810151838201526020016110f2565b50506000910152565b600082516111258184602087016110ef565b9190910192915050565b602081526000825180602084015261114e8160408501602087016110ef565b601f01601f1916919091016040019291505056fe7bea13895fa79d2831e0a9e28edede30099005a50d652d8957cf8a607ee6ca4aa2646970667358221220c94699aeae3678d8cae7cd2fbca0a13255237071bb659438b0787bc65377200564736f6c634300081c00337bea13895fa79d2831e0a9e28edede30099005a50d652d8957cf8a607ee6ca4a",
  "libraries": {},
  "devdoc": {
    "author": "Origin Protocol Inc",
    "kind": "dev",
    "methods": {
      "harvestAndTransfer(address)": {
        "params": {
          "_strategy": "Address of the strategy to harvest"
        }
      },
      "harvestAndTransfer(address[])": {
        "params": {
          "_strategies": "Array of strategy addresses to harvest"
        }
      },
      "initialize(address,address,address)": {
        "params": {
          "_dripper": "Address of the dripper",
          "_governor": "Address of the governor",
          "_strategist": "Address of the strategist"
        }
      },
      "setDripper(address)": {
        "params": {
          "_dripper": "Address of the dripper"
        }
      },
      "setStrategistAddr(address)": {
        "details": "Set address of Strategist",
        "params": {
          "_address": "Address of Strategist"
        }
      },
      "setSupportedStrategy(address,bool)": {
        "params": {
          "_isSupported": "Boolean indicating if strategy is supported",
          "_strategy": "Address of the strategy"
        }
      },
      "transferGovernance(address)": {
        "params": {
          "_newGovernor": "Address of the new Governor"
        }
      },
      "transferToken(address,uint256)": {
        "params": {
          "_amount": "Amount of tokens to transfer",
          "_asset": "Address of the token"
        }
      }
    },
    "title": "OETH Harvester Simple Contract",
    "version": 1
  },
  "userdoc": {
    "events": {
      "Harvested(address,address,uint256,address)": {
        "notice": "--- EVENTS"
      }
    },
    "kind": "user",
    "methods": {
      "claimGovernance()": {
        "notice": "Claim Governance of the contract to a new account (`newGovernor`). Can only be called by the new Governor."
      },
      "constructor": {
        "notice": "--- CONSTRUCTOR"
      },
      "dripper()": {
        "notice": "Dripper address"
      },
      "governor()": {
        "notice": "Returns the address of the current Governor."
      },
      "harvestAndTransfer(address)": {
        "notice": "Harvest rewards from a strategy and transfer to strategist or dripper"
      },
      "harvestAndTransfer(address[])": {
        "notice": "Harvest rewards from multiple strategies and transfer to strategist or dripper"
      },
      "initialize(address,address,address)": {
        "notice": "Initialize the contract"
      },
      "isGovernor()": {
        "notice": "Returns true if the caller is the current Governor."
      },
      "setDripper(address)": {
        "notice": "Set the dripper address"
      },
      "setSupportedStrategy(address,bool)": {
        "notice": "Set supported strategy"
      },
      "supportedStrategies(address)": {
        "notice": "Mapping of supported strategies"
      },
      "transferGovernance(address)": {
        "notice": "Transfers Governance of the contract to a new account (`newGovernor`). Can only be called by the current Governor. Must be claimed for this to complete"
      },
      "transferToken(address,uint256)": {
        "notice": "Transfer tokens to strategist"
      },
      "wrappedNativeToken()": {
        "notice": "wrapped native token address (WETH or wS)"
      }
    },
    "notice": "Contract to harvest rewards from strategies",
    "version": 1
  },
  "storageLayout": {
    "storage": [
      {
        "astId": 53792,
        "contract": "contracts/harvest/OETHHarvesterSimple.sol:OETHHarvesterSimple",
        "label": "initialized",
        "offset": 0,
        "slot": "0",
        "type": "t_bool"
      },
      {
        "astId": 53795,
        "contract": "contracts/harvest/OETHHarvesterSimple.sol:OETHHarvesterSimple",
        "label": "initializing",
        "offset": 1,
        "slot": "0",
        "type": "t_bool"
      },
      {
        "astId": 53835,
        "contract": "contracts/harvest/OETHHarvesterSimple.sol:OETHHarvesterSimple",
        "label": "______gap",
        "offset": 0,
        "slot": "1",
        "type": "t_array(t_uint256)50_storage"
      },
      {
        "astId": 7586,
        "contract": "contracts/harvest/OETHHarvesterSimple.sol:OETHHarvesterSimple",
        "label": "strategistAddr",
        "offset": 0,
        "slot": "51",
        "type": "t_address"
      },
      {
        "astId": 7590,
        "contract": "contracts/harvest/OETHHarvesterSimple.sol:OETHHarvesterSimple",
        "label": "__gap",
        "offset": 0,
        "slot": "52",
        "type": "t_array(t_uint256)50_storage"
      },
      {
        "astId": 9991,
        "contract": "contracts/harvest/OETHHarvesterSimple.sol:OETHHarvesterSimple",
        "label": "dripper",
        "offset": 0,
        "slot": "102",
        "type": "t_address"
      },
      {
        "astId": 9996,
        "contract": "contracts/harvest/OETHHarvesterSimple.sol:OETHHarvesterSimple",
        "label": "supportedStrategies",
        "offset": 0,
        "slot": "103",
        "type": "t_mapping(t_address,t_bool)"
      },
      {
        "astId": 10001,
        "contract": "contracts/harvest/OETHHarvesterSimple.sol:OETHHarvesterSimple",
        "label": "___gap",
        "offset": 0,
        "slot": "104",
        "type": "t_array(t_uint256)48_storage"
      }
    ],
    "types": {
      "t_address": {
        "encoding": "inplace",
        "label": "address",
        "numberOfBytes": "20"
      },
      "t_array(t_uint256)48_storage": {
        "base": "t_uint256",
        "encoding": "inplace",
        "label": "uint256[48]",
        "numberOfBytes": "1536"
      },
      "t_array(t_uint256)50_storage": {
        "base": "t_uint256",
        "encoding": "inplace",
        "label": "uint256[50]",
        "numberOfBytes": "1600"
      },
      "t_bool": {
        "encoding": "inplace",
        "label": "bool",
        "numberOfBytes": "1"
      },
      "t_mapping(t_address,t_bool)": {
        "encoding": "mapping",
        "key": "t_address",
        "label": "mapping(address => bool)",
        "numberOfBytes": "32",
        "value": "t_bool"
      },
      "t_uint256": {
        "encoding": "inplace",
        "label": "uint256",
        "numberOfBytes": "32"
      }
    }
  }
}