{
  "address": "0xb3D6e885F0c0f5355C7029AF328fE923EBf9906c",
  "abi": [
    {
      "inputs": [
        {
          "internalType": "address",
          "name": "_wS",
          "type": "address"
        }
      ],
      "stateMutability": "nonpayable",
      "type": "constructor"
    },
    {
      "anonymous": false,
      "inputs": [
        {
          "indexed": false,
          "internalType": "uint256",
          "name": "_threshold",
          "type": "uint256"
        }
      ],
      "name": "AllocateThresholdUpdated",
      "type": "event"
    },
    {
      "anonymous": false,
      "inputs": [
        {
          "indexed": false,
          "internalType": "address",
          "name": "_asset",
          "type": "address"
        },
        {
          "indexed": false,
          "internalType": "address",
          "name": "_strategy",
          "type": "address"
        },
        {
          "indexed": false,
          "internalType": "uint256",
          "name": "_amount",
          "type": "uint256"
        }
      ],
      "name": "AssetAllocated",
      "type": "event"
    },
    {
      "anonymous": false,
      "inputs": [
        {
          "indexed": false,
          "internalType": "address",
          "name": "_asset",
          "type": "address"
        },
        {
          "indexed": false,
          "internalType": "address",
          "name": "_strategy",
          "type": "address"
        }
      ],
      "name": "AssetDefaultStrategyUpdated",
      "type": "event"
    },
    {
      "anonymous": false,
      "inputs": [
        {
          "indexed": false,
          "internalType": "address",
          "name": "_asset",
          "type": "address"
        }
      ],
      "name": "AssetRemoved",
      "type": "event"
    },
    {
      "anonymous": false,
      "inputs": [
        {
          "indexed": false,
          "internalType": "address",
          "name": "_asset",
          "type": "address"
        }
      ],
      "name": "AssetSupported",
      "type": "event"
    },
    {
      "anonymous": false,
      "inputs": [],
      "name": "CapitalPaused",
      "type": "event"
    },
    {
      "anonymous": false,
      "inputs": [],
      "name": "CapitalUnpaused",
      "type": "event"
    },
    {
      "anonymous": false,
      "inputs": [
        {
          "indexed": true,
          "internalType": "address",
          "name": "_dripper",
          "type": "address"
        }
      ],
      "name": "DripperChanged",
      "type": "event"
    },
    {
      "anonymous": false,
      "inputs": [
        {
          "indexed": true,
          "internalType": "address",
          "name": "previousGovernor",
          "type": "address"
        },
        {
          "indexed": true,
          "internalType": "address",
          "name": "newGovernor",
          "type": "address"
        }
      ],
      "name": "GovernorshipTransferred",
      "type": "event"
    },
    {
      "anonymous": false,
      "inputs": [
        {
          "indexed": false,
          "internalType": "uint256",
          "name": "maxSupplyDiff",
          "type": "uint256"
        }
      ],
      "name": "MaxSupplyDiffChanged",
      "type": "event"
    },
    {
      "anonymous": false,
      "inputs": [
        {
          "indexed": false,
          "internalType": "address",
          "name": "_addr",
          "type": "address"
        },
        {
          "indexed": false,
          "internalType": "uint256",
          "name": "_value",
          "type": "uint256"
        }
      ],
      "name": "Mint",
      "type": "event"
    },
    {
      "anonymous": false,
      "inputs": [
        {
          "indexed": false,
          "internalType": "uint256",
          "name": "_threshold",
          "type": "uint256"
        }
      ],
      "name": "NetOusdMintForStrategyThresholdChanged",
      "type": "event"
    },
    {
      "anonymous": false,
      "inputs": [
        {
          "indexed": false,
          "internalType": "address",
          "name": "_ousdMetaStrategy",
          "type": "address"
        }
      ],
      "name": "OusdMetaStrategyUpdated",
      "type": "event"
    },
    {
      "anonymous": false,
      "inputs": [
        {
          "indexed": true,
          "internalType": "address",
          "name": "previousGovernor",
          "type": "address"
        },
        {
          "indexed": true,
          "internalType": "address",
          "name": "newGovernor",
          "type": "address"
        }
      ],
      "name": "PendingGovernorshipTransfer",
      "type": "event"
    },
    {
      "anonymous": false,
      "inputs": [
        {
          "indexed": false,
          "internalType": "address",
          "name": "_priceProvider",
          "type": "address"
        }
      ],
      "name": "PriceProviderUpdated",
      "type": "event"
    },
    {
      "anonymous": false,
      "inputs": [],
      "name": "RebasePaused",
      "type": "event"
    },
    {
      "anonymous": false,
      "inputs": [
        {
          "indexed": false,
          "internalType": "uint256",
          "name": "_threshold",
          "type": "uint256"
        }
      ],
      "name": "RebaseThresholdUpdated",
      "type": "event"
    },
    {
      "anonymous": false,
      "inputs": [],
      "name": "RebaseUnpaused",
      "type": "event"
    },
    {
      "anonymous": false,
      "inputs": [
        {
          "indexed": false,
          "internalType": "address",
          "name": "_addr",
          "type": "address"
        },
        {
          "indexed": false,
          "internalType": "uint256",
          "name": "_value",
          "type": "uint256"
        }
      ],
      "name": "Redeem",
      "type": "event"
    },
    {
      "anonymous": false,
      "inputs": [
        {
          "indexed": false,
          "internalType": "uint256",
          "name": "_redeemFeeBps",
          "type": "uint256"
        }
      ],
      "name": "RedeemFeeUpdated",
      "type": "event"
    },
    {
      "anonymous": false,
      "inputs": [
        {
          "indexed": false,
          "internalType": "address",
          "name": "_address",
          "type": "address"
        }
      ],
      "name": "StrategistUpdated",
      "type": "event"
    },
    {
      "anonymous": false,
      "inputs": [
        {
          "indexed": true,
          "internalType": "address",
          "name": "strategy",
          "type": "address"
        }
      ],
      "name": "StrategyAddedToMintWhitelist",
      "type": "event"
    },
    {
      "anonymous": false,
      "inputs": [
        {
          "indexed": false,
          "internalType": "address",
          "name": "_addr",
          "type": "address"
        }
      ],
      "name": "StrategyApproved",
      "type": "event"
    },
    {
      "anonymous": false,
      "inputs": [
        {
          "indexed": false,
          "internalType": "address",
          "name": "_addr",
          "type": "address"
        }
      ],
      "name": "StrategyRemoved",
      "type": "event"
    },
    {
      "anonymous": false,
      "inputs": [
        {
          "indexed": true,
          "internalType": "address",
          "name": "strategy",
          "type": "address"
        }
      ],
      "name": "StrategyRemovedFromMintWhitelist",
      "type": "event"
    },
    {
      "anonymous": false,
      "inputs": [
        {
          "indexed": false,
          "internalType": "uint256",
          "name": "_basis",
          "type": "uint256"
        }
      ],
      "name": "SwapAllowedUndervalueChanged",
      "type": "event"
    },
    {
      "anonymous": false,
      "inputs": [
        {
          "indexed": false,
          "internalType": "address",
          "name": "_asset",
          "type": "address"
        },
        {
          "indexed": false,
          "internalType": "uint256",
          "name": "_basis",
          "type": "uint256"
        }
      ],
      "name": "SwapSlippageChanged",
      "type": "event"
    },
    {
      "anonymous": false,
      "inputs": [
        {
          "indexed": true,
          "internalType": "address",
          "name": "_fromAsset",
          "type": "address"
        },
        {
          "indexed": true,
          "internalType": "address",
          "name": "_toAsset",
          "type": "address"
        },
        {
          "indexed": false,
          "internalType": "uint256",
          "name": "_fromAssetAmount",
          "type": "uint256"
        },
        {
          "indexed": false,
          "internalType": "uint256",
          "name": "_toAssetAmount",
          "type": "uint256"
        }
      ],
      "name": "Swapped",
      "type": "event"
    },
    {
      "anonymous": false,
      "inputs": [
        {
          "indexed": false,
          "internalType": "address",
          "name": "_address",
          "type": "address"
        }
      ],
      "name": "SwapperChanged",
      "type": "event"
    },
    {
      "anonymous": false,
      "inputs": [
        {
          "indexed": false,
          "internalType": "address",
          "name": "_address",
          "type": "address"
        }
      ],
      "name": "TrusteeAddressChanged",
      "type": "event"
    },
    {
      "anonymous": false,
      "inputs": [
        {
          "indexed": false,
          "internalType": "uint256",
          "name": "_basis",
          "type": "uint256"
        }
      ],
      "name": "TrusteeFeeBpsChanged",
      "type": "event"
    },
    {
      "anonymous": false,
      "inputs": [
        {
          "indexed": false,
          "internalType": "uint256",
          "name": "_vaultBuffer",
          "type": "uint256"
        }
      ],
      "name": "VaultBufferUpdated",
      "type": "event"
    },
    {
      "anonymous": false,
      "inputs": [
        {
          "indexed": false,
          "internalType": "uint256",
          "name": "_newDelay",
          "type": "uint256"
        }
      ],
      "name": "WithdrawalClaimDelayUpdated",
      "type": "event"
    },
    {
      "anonymous": false,
      "inputs": [
        {
          "indexed": false,
          "internalType": "uint256",
          "name": "_claimable",
          "type": "uint256"
        },
        {
          "indexed": false,
          "internalType": "uint256",
          "name": "_newClaimable",
          "type": "uint256"
        }
      ],
      "name": "WithdrawalClaimable",
      "type": "event"
    },
    {
      "anonymous": false,
      "inputs": [
        {
          "indexed": true,
          "internalType": "address",
          "name": "_withdrawer",
          "type": "address"
        },
        {
          "indexed": true,
          "internalType": "uint256",
          "name": "_requestId",
          "type": "uint256"
        },
        {
          "indexed": false,
          "internalType": "uint256",
          "name": "_amount",
          "type": "uint256"
        }
      ],
      "name": "WithdrawalClaimed",
      "type": "event"
    },
    {
      "anonymous": false,
      "inputs": [
        {
          "indexed": true,
          "internalType": "address",
          "name": "_withdrawer",
          "type": "address"
        },
        {
          "indexed": true,
          "internalType": "uint256",
          "name": "_requestId",
          "type": "uint256"
        },
        {
          "indexed": false,
          "internalType": "uint256",
          "name": "_amount",
          "type": "uint256"
        },
        {
          "indexed": false,
          "internalType": "uint256",
          "name": "_queued",
          "type": "uint256"
        }
      ],
      "name": "WithdrawalRequested",
      "type": "event"
    },
    {
      "anonymous": false,
      "inputs": [
        {
          "indexed": false,
          "internalType": "address",
          "name": "_to",
          "type": "address"
        },
        {
          "indexed": false,
          "internalType": "uint256",
          "name": "_yield",
          "type": "uint256"
        },
        {
          "indexed": false,
          "internalType": "uint256",
          "name": "_fee",
          "type": "uint256"
        }
      ],
      "name": "YieldDistribution",
      "type": "event"
    },
    {
      "stateMutability": "nonpayable",
      "type": "fallback"
    },
    {
      "inputs": [],
      "name": "addWithdrawalQueueLiquidity",
      "outputs": [],
      "stateMutability": "nonpayable",
      "type": "function"
    },
    {
      "inputs": [],
      "name": "allocate",
      "outputs": [],
      "stateMutability": "nonpayable",
      "type": "function"
    },
    {
      "inputs": [
        {
          "internalType": "address",
          "name": "",
          "type": "address"
        }
      ],
      "name": "assetDefaultStrategies",
      "outputs": [
        {
          "internalType": "address",
          "name": "",
          "type": "address"
        }
      ],
      "stateMutability": "view",
      "type": "function"
    },
    {
      "inputs": [],
      "name": "autoAllocateThreshold",
      "outputs": [
        {
          "internalType": "uint256",
          "name": "",
          "type": "uint256"
        }
      ],
      "stateMutability": "view",
      "type": "function"
    },
    {
      "inputs": [
        {
          "internalType": "uint256",
          "name": "_amount",
          "type": "uint256"
        }
      ],
      "name": "burnForStrategy",
      "outputs": [],
      "stateMutability": "nonpayable",
      "type": "function"
    },
    {
      "inputs": [],
      "name": "cacheWETHAssetIndex",
      "outputs": [],
      "stateMutability": "nonpayable",
      "type": "function"
    },
    {
      "inputs": [
        {
          "internalType": "uint256",
          "name": "_amount",
          "type": "uint256"
        }
      ],
      "name": "calculateRedeemOutputs",
      "outputs": [
        {
          "internalType": "uint256[]",
          "name": "",
          "type": "uint256[]"
        }
      ],
      "stateMutability": "view",
      "type": "function"
    },
    {
      "inputs": [],
      "name": "capitalPaused",
      "outputs": [
        {
          "internalType": "bool",
          "name": "",
          "type": "bool"
        }
      ],
      "stateMutability": "view",
      "type": "function"
    },
    {
      "inputs": [
        {
          "internalType": "address",
          "name": "_asset",
          "type": "address"
        }
      ],
      "name": "checkBalance",
      "outputs": [
        {
          "internalType": "uint256",
          "name": "",
          "type": "uint256"
        }
      ],
      "stateMutability": "view",
      "type": "function"
    },
    {
      "inputs": [],
      "name": "claimGovernance",
      "outputs": [],
      "stateMutability": "nonpayable",
      "type": "function"
    },
    {
      "inputs": [
        {
          "internalType": "uint256",
          "name": "_requestId",
          "type": "uint256"
        }
      ],
      "name": "claimWithdrawal",
      "outputs": [
        {
          "internalType": "uint256",
          "name": "amount",
          "type": "uint256"
        }
      ],
      "stateMutability": "nonpayable",
      "type": "function"
    },
    {
      "inputs": [
        {
          "internalType": "uint256[]",
          "name": "_requestIds",
          "type": "uint256[]"
        }
      ],
      "name": "claimWithdrawals",
      "outputs": [
        {
          "internalType": "uint256[]",
          "name": "amounts",
          "type": "uint256[]"
        },
        {
          "internalType": "uint256",
          "name": "totalAmount",
          "type": "uint256"
        }
      ],
      "stateMutability": "nonpayable",
      "type": "function"
    },
    {
      "inputs": [],
      "name": "dripper",
      "outputs": [
        {
          "internalType": "address",
          "name": "",
          "type": "address"
        }
      ],
      "stateMutability": "view",
      "type": "function"
    },
    {
      "inputs": [],
      "name": "getAllAssets",
      "outputs": [
        {
          "internalType": "address[]",
          "name": "",
          "type": "address[]"
        }
      ],
      "stateMutability": "view",
      "type": "function"
    },
    {
      "inputs": [],
      "name": "getAllStrategies",
      "outputs": [
        {
          "internalType": "address[]",
          "name": "",
          "type": "address[]"
        }
      ],
      "stateMutability": "view",
      "type": "function"
    },
    {
      "inputs": [
        {
          "internalType": "address",
          "name": "_asset",
          "type": "address"
        }
      ],
      "name": "getAssetConfig",
      "outputs": [
        {
          "components": [
            {
              "internalType": "bool",
              "name": "isSupported",
              "type": "bool"
            },
            {
              "internalType": "enum VaultStorage.UnitConversion",
              "name": "unitConversion",
              "type": "uint8"
            },
            {
              "internalType": "uint8",
              "name": "decimals",
              "type": "uint8"
            },
            {
              "internalType": "uint16",
              "name": "allowedOracleSlippageBps",
              "type": "uint16"
            }
          ],
          "internalType": "struct VaultStorage.Asset",
          "name": "config",
          "type": "tuple"
        }
      ],
      "stateMutability": "view",
      "type": "function"
    },
    {
      "inputs": [],
      "name": "getAssetCount",
      "outputs": [
        {
          "internalType": "uint256",
          "name": "",
          "type": "uint256"
        }
      ],
      "stateMutability": "view",
      "type": "function"
    },
    {
      "inputs": [],
      "name": "getStrategyCount",
      "outputs": [
        {
          "internalType": "uint256",
          "name": "",
          "type": "uint256"
        }
      ],
      "stateMutability": "view",
      "type": "function"
    },
    {
      "inputs": [],
      "name": "governor",
      "outputs": [
        {
          "internalType": "address",
          "name": "",
          "type": "address"
        }
      ],
      "stateMutability": "view",
      "type": "function"
    },
    {
      "inputs": [
        {
          "internalType": "address",
          "name": "_priceProvider",
          "type": "address"
        },
        {
          "internalType": "address",
          "name": "_oToken",
          "type": "address"
        }
      ],
      "name": "initialize",
      "outputs": [],
      "stateMutability": "nonpayable",
      "type": "function"
    },
    {
      "inputs": [],
      "name": "isGovernor",
      "outputs": [
        {
          "internalType": "bool",
          "name": "",
          "type": "bool"
        }
      ],
      "stateMutability": "view",
      "type": "function"
    },
    {
      "inputs": [
        {
          "internalType": "address",
          "name": "",
          "type": "address"
        }
      ],
      "name": "isMintWhitelistedStrategy",
      "outputs": [
        {
          "internalType": "bool",
          "name": "",
          "type": "bool"
        }
      ],
      "stateMutability": "view",
      "type": "function"
    },
    {
      "inputs": [
        {
          "internalType": "address",
          "name": "_asset",
          "type": "address"
        }
      ],
      "name": "isSupportedAsset",
      "outputs": [
        {
          "internalType": "bool",
          "name": "",
          "type": "bool"
        }
      ],
      "stateMutability": "view",
      "type": "function"
    },
    {
      "inputs": [],
      "name": "maxSupplyDiff",
      "outputs": [
        {
          "internalType": "uint256",
          "name": "",
          "type": "uint256"
        }
      ],
      "stateMutability": "view",
      "type": "function"
    },
    {
      "inputs": [
        {
          "internalType": "address",
          "name": "_asset",
          "type": "address"
        },
        {
          "internalType": "uint256",
          "name": "_amount",
          "type": "uint256"
        },
        {
          "internalType": "uint256",
          "name": "_minimumOusdAmount",
          "type": "uint256"
        }
      ],
      "name": "mint",
      "outputs": [],
      "stateMutability": "nonpayable",
      "type": "function"
    },
    {
      "inputs": [
        {
          "internalType": "uint256",
          "name": "_amount",
          "type": "uint256"
        }
      ],
      "name": "mintForStrategy",
      "outputs": [],
      "stateMutability": "nonpayable",
      "type": "function"
    },
    {
      "inputs": [],
      "name": "netOusdMintForStrategyThreshold",
      "outputs": [
        {
          "internalType": "uint256",
          "name": "",
          "type": "uint256"
        }
      ],
      "stateMutability": "view",
      "type": "function"
    },
    {
      "inputs": [],
      "name": "netOusdMintedForStrategy",
      "outputs": [
        {
          "internalType": "int256",
          "name": "",
          "type": "int256"
        }
      ],
      "stateMutability": "view",
      "type": "function"
    },
    {
      "inputs": [],
      "name": "ousdMetaStrategy",
      "outputs": [
        {
          "internalType": "address",
          "name": "",
          "type": "address"
        }
      ],
      "stateMutability": "view",
      "type": "function"
    },
    {
      "inputs": [],
      "name": "priceProvider",
      "outputs": [
        {
          "internalType": "address",
          "name": "",
          "type": "address"
        }
      ],
      "stateMutability": "view",
      "type": "function"
    },
    {
      "inputs": [
        {
          "internalType": "address",
          "name": "asset",
          "type": "address"
        }
      ],
      "name": "priceUnitMint",
      "outputs": [
        {
          "internalType": "uint256",
          "name": "price",
          "type": "uint256"
        }
      ],
      "stateMutability": "view",
      "type": "function"
    },
    {
      "inputs": [
        {
          "internalType": "address",
          "name": "asset",
          "type": "address"
        }
      ],
      "name": "priceUnitRedeem",
      "outputs": [
        {
          "internalType": "uint256",
          "name": "price",
          "type": "uint256"
        }
      ],
      "stateMutability": "view",
      "type": "function"
    },
    {
      "inputs": [],
      "name": "rebase",
      "outputs": [],
      "stateMutability": "nonpayable",
      "type": "function"
    },
    {
      "inputs": [],
      "name": "rebasePaused",
      "outputs": [
        {
          "internalType": "bool",
          "name": "",
          "type": "bool"
        }
      ],
      "stateMutability": "view",
      "type": "function"
    },
    {
      "inputs": [],
      "name": "rebaseThreshold",
      "outputs": [
        {
          "internalType": "uint256",
          "name": "",
          "type": "uint256"
        }
      ],
      "stateMutability": "view",
      "type": "function"
    },
    {
      "inputs": [
        {
          "internalType": "uint256",
          "name": "",
          "type": "uint256"
        },
        {
          "internalType": "uint256",
          "name": "",
          "type": "uint256"
        }
      ],
      "name": "redeem",
      "outputs": [],
      "stateMutability": "nonpayable",
      "type": "function"
    },
    {
      "inputs": [
        {
          "internalType": "uint256",
          "name": "_minimumUnitAmount",
          "type": "uint256"
        }
      ],
      "name": "redeemAll",
      "outputs": [],
      "stateMutability": "nonpayable",
      "type": "function"
    },
    {
      "inputs": [],
      "name": "redeemFeeBps",
      "outputs": [
        {
          "internalType": "uint256",
          "name": "",
          "type": "uint256"
        }
      ],
      "stateMutability": "view",
      "type": "function"
    },
    {
      "inputs": [
        {
          "internalType": "uint256",
          "name": "_amount",
          "type": "uint256"
        }
      ],
      "name": "requestWithdrawal",
      "outputs": [
        {
          "internalType": "uint256",
          "name": "requestId",
          "type": "uint256"
        },
        {
          "internalType": "uint256",
          "name": "queued",
          "type": "uint256"
        }
      ],
      "stateMutability": "nonpayable",
      "type": "function"
    },
    {
      "inputs": [
        {
          "internalType": "address",
          "name": "newImpl",
          "type": "address"
        }
      ],
      "name": "setAdminImpl",
      "outputs": [],
      "stateMutability": "nonpayable",
      "type": "function"
    },
    {
      "inputs": [],
      "name": "strategistAddr",
      "outputs": [
        {
          "internalType": "address",
          "name": "",
          "type": "address"
        }
      ],
      "stateMutability": "view",
      "type": "function"
    },
    {
      "inputs": [],
      "name": "totalValue",
      "outputs": [
        {
          "internalType": "uint256",
          "name": "value",
          "type": "uint256"
        }
      ],
      "stateMutability": "view",
      "type": "function"
    },
    {
      "inputs": [
        {
          "internalType": "address",
          "name": "_newGovernor",
          "type": "address"
        }
      ],
      "name": "transferGovernance",
      "outputs": [],
      "stateMutability": "nonpayable",
      "type": "function"
    },
    {
      "inputs": [],
      "name": "trusteeAddress",
      "outputs": [
        {
          "internalType": "address",
          "name": "",
          "type": "address"
        }
      ],
      "stateMutability": "view",
      "type": "function"
    },
    {
      "inputs": [],
      "name": "trusteeFeeBps",
      "outputs": [
        {
          "internalType": "uint256",
          "name": "",
          "type": "uint256"
        }
      ],
      "stateMutability": "view",
      "type": "function"
    },
    {
      "inputs": [],
      "name": "vaultBuffer",
      "outputs": [
        {
          "internalType": "uint256",
          "name": "",
          "type": "uint256"
        }
      ],
      "stateMutability": "view",
      "type": "function"
    },
    {
      "inputs": [],
      "name": "weth",
      "outputs": [
        {
          "internalType": "address",
          "name": "",
          "type": "address"
        }
      ],
      "stateMutability": "view",
      "type": "function"
    },
    {
      "inputs": [],
      "name": "wethAssetIndex",
      "outputs": [
        {
          "internalType": "uint256",
          "name": "",
          "type": "uint256"
        }
      ],
      "stateMutability": "view",
      "type": "function"
    },
    {
      "inputs": [],
      "name": "withdrawalClaimDelay",
      "outputs": [
        {
          "internalType": "uint256",
          "name": "",
          "type": "uint256"
        }
      ],
      "stateMutability": "view",
      "type": "function"
    },
    {
      "inputs": [],
      "name": "withdrawalQueueMetadata",
      "outputs": [
        {
          "internalType": "uint128",
          "name": "queued",
          "type": "uint128"
        },
        {
          "internalType": "uint128",
          "name": "claimable",
          "type": "uint128"
        },
        {
          "internalType": "uint128",
          "name": "claimed",
          "type": "uint128"
        },
        {
          "internalType": "uint128",
          "name": "nextWithdrawalIndex",
          "type": "uint128"
        }
      ],
      "stateMutability": "view",
      "type": "function"
    },
    {
      "inputs": [
        {
          "internalType": "uint256",
          "name": "",
          "type": "uint256"
        }
      ],
      "name": "withdrawalRequests",
      "outputs": [
        {
          "internalType": "address",
          "name": "withdrawer",
          "type": "address"
        },
        {
          "internalType": "bool",
          "name": "claimed",
          "type": "bool"
        },
        {
          "internalType": "uint40",
          "name": "timestamp",
          "type": "uint40"
        },
        {
          "internalType": "uint128",
          "name": "amount",
          "type": "uint128"
        },
        {
          "internalType": "uint128",
          "name": "queued",
          "type": "uint128"
        }
      ],
      "stateMutability": "view",
      "type": "function"
    }
  ],
  "transactionHash": "0xdde05c32cbb67e66eaf2fd6a497c304b535db89fe3a493350e9de5cab253e830",
  "args": [
    "0x039e2fB66102314Ce7b64Ce5Ce3E5183bc94aD38"
  ],
  "numDeployments": 1,
  "solcInputHash": "948eecc0ec79eb2dc715ae4f9ad789c7",
  "bytecode": "0x6037805461ffff60a01b1916600160a81b179055603d80546001600160a01b0319908116909155603e805482169055603f8054909116905560e0604052600060a081905260c052604880546001600160b01b031916905534801561006257600080fd5b50604051614240380380614240833981016040819052610081916100f1565b806100983360008051602061422083398151915255565b600080516020614220833981519152546040516001600160a01b03909116906000907fc7c0c772add429241571afb3805861fb3cfa2af374534088b76cdb4325a87e9a908290a36001600160a01b031660805250610121565b60006020828403121561010357600080fd5b81516001600160a01b038116811461011a57600080fd5b9392505050565b60805161407b6101a56000396000818161044101528181610961015281816109cb01528181610e1201528181611a4901528181611b270152818161231601528181612a2401528181612b6901528181612d8501528181612e8c01528181612f8f01528181612fda01528181613042015281816133d10152613780015261407b6000f3fe608060405234801561001057600080fd5b50600436106102f15760003560e01c80636217f3ea1161019d578063ab80dafb116100e9578063c7af3352116100a2578063e45cc9f01161007c578063e45cc9f014610792578063e6cc54321461079b578063f8444436146107af578063fc0cfeee146107c2576102f1565b8063c7af33521461076f578063d38bfff414610777578063d4c3eea01461078a576102f1565b8063ab80dafb14610729578063abaa99161461073c578063af14052c14610744578063b888879e1461074c578063b9b17f9f1461075f578063c3b2886414610767576102f1565b80638e510b52116101565780639ee679e8116101305780639ee679e8146106c75780639fa1826e146106ef578063a0aead4d146106f8578063a403e4d514610700576102f1565b80638e510b52146105ea578063937b2581146105f35780639be918e61461069b576102f1565b80636217f3ea1461056857806367bd7ba31461057b5780636ec3ab671461059b5780637136a7a6146105bb5780637a2202f3146105ce5780637cbc2373146105d7576102f1565b80634530820a1161025c57806353ca9f24116102155780635b60f9fc116101ef5780635b60f9fc146105275780635d36b1901461053a5780635f51522614610542578063603ea03b14610555576102f1565b806353ca9f24146104f757806354c6d8581461050b578063570d8e1d14610514576102f1565b80634530820a1461046b57806345e4213b1461049e578063485cc955146104a757806348e30f54146104ba57806349c1d54d146104db57806352d38e5d146104ee576102f1565b80632acada4d116102ae5780632acada4d146103ad57806331e19cfa146103c2578063362bd1a3146103ca5780633b8fe28d146104295780633fc8cef31461043c57806344c5470714610463576102f1565b806309f6442c146103395780630c340a2414610355578063156e29f61461037557806318ce56bd146103885780631edfe3da1461039b578063207134b0146103a4575b7fa2bd3d3cf188a41358c8b401076eb59066b09dec5775650c0de4c55187d17bd9366000803760008036600084545af43d6000803e808015610332573d6000f35b3d6000fd5b005b61034260385481565b6040519081526020015b60405180910390f35b61035d6107d5565b6040516001600160a01b03909116815260200161034c565b6103376103833660046139b8565b6107f2565b60455461035d906001600160a01b031681565b61034260395481565b61034260435481565b6103b5610870565b60405161034c91906139eb565b603654610342565b604b54604c546103f6916001600160801b0380821692600160801b928390048216928183169291041684565b604080516001600160801b039586168152938516602085015291841691830191909152909116606082015260800161034c565b610342610437366004613a37565b6108d2565b61035d7f000000000000000000000000000000000000000000000000000000000000000081565b61033761092d565b61048e610479366004613a37565b60496020526000908152604090205460ff1681565b604051901515815260200161034c565b610342604e5481565b6103376104b5366004613a52565b610a6d565b6104cd6104c8366004613a85565b610c6f565b60405161034c929190613b38565b60425461035d906001600160a01b031681565b610342603b5481565b60375461048e90600160a01b900460ff1681565b610342607b5481565b603f5461035d906001600160a01b031681565b610342610535366004613a37565b610e4f565b610337610e78565b610342610550366004613a37565b610f1e565b604a5461035d906001600160a01b031681565b610337610576366004613b5a565b610f2f565b61058e610589366004613b5a565b6110c1565b60405161034c9190613b73565b6105ae6105a9366004613a37565b6110cc565b60405161034c9190613b9c565b6103376105c9366004613b5a565b611172565b61034260475481565b6103376105e5366004613bf2565b61124e565b61034260415481565b610654610601366004613b5a565b604d60205260009081526040902080546001909101546001600160a01b03821691600160a01b810460ff1691600160a81b90910464ffffffffff16906001600160801b0380821691600160801b90041685565b604080516001600160a01b039096168652931515602086015264ffffffffff909216928401929092526001600160801b03918216606084015216608082015260a00161034c565b61048e6106a9366004613a37565b6001600160a01b031660009081526033602052604090205460ff1690565b6106da6106d5366004613b5a565b61128d565b6040805192835260208301919091520161034c565b610342603a5481565b603454610342565b61035d61070e366004613a37565b6040602081905260009182529020546001600160a01b031681565b610337610737366004613b5a565b61154a565b6103376116bc565b610337611734565b60375461035d906001600160a01b031681565b61033761177a565b6103b56117ea565b61048e61184a565b610337610785366004613a37565b61187b565b61034261191f565b61034260465481565b60375461048e90600160a81b900460ff1681565b6103426107bd366004613b5a565b611929565b6103376107d0366004613a37565b611a83565b60006107ed6000805160206140268339815191525490565b905090565b603754600160a81b900460ff16156108255760405162461bcd60e51b815260040161081c90613c14565b60405180910390fd5b600080516020614006833981519152805460011981016108575760405162461bcd60e51b815260040161081c90613c3c565b60028255610866858585611b25565b5060019055505050565b606060348054806020026020016040519081016040528092919081815260200182805480156108c857602002820191906000526020600020905b81546001600160a01b031681526001909101906020018083116108aa575b5050505050905090565b6000806108fb6108f56108e485611da6565b670de0b6b3a7640000906012611e10565b84611e72565b9050670de0b6b3a764000081610912856001611fbd565b61091c9190613c7a565b6109269190613c91565b9392505050565b61093561184a565b6109515760405162461bcd60e51b815260040161081c90613cb3565b60345460005b818110156109c8577f00000000000000000000000000000000000000000000000000000000000000006001600160a01b03166034828154811061099c5761099c613cea565b6000918252602090912001546001600160a01b0316036109c057607b8190556109c8565b600101610957565b507f00000000000000000000000000000000000000000000000000000000000000006001600160a01b03166034607b5481548110610a0857610a08613cea565b6000918252602090912001546001600160a01b031614610a6a5760405162461bcd60e51b815260206004820152601860248201527f496e76616c6964205745544820417373657420496e6465780000000000000000604482015260640161081c565b50565b610a7561184a565b610a915760405162461bcd60e51b815260040161081c90613cb3565b600054610100900460ff1680610aaa575060005460ff16155b610b0d5760405162461bcd60e51b815260206004820152602e60248201527f496e697469616c697a61626c653a20636f6e747261637420697320616c72656160448201526d191e481a5b9a5d1a585b1a5e995960921b606482015260840161081c565b600054610100900460ff16158015610b2f576000805461ffff19166101011790555b6001600160a01b038316610b855760405162461bcd60e51b815260206004820152601d60248201527f507269636550726f76696465722061646472657373206973207a65726f000000604482015260640161081c565b6001600160a01b038216610bd45760405162461bcd60e51b81526020600482015260166024820152756f546f6b656e2061646472657373206973207a65726f60501b604482015260640161081c565b603c80546001600160a01b038481166001600160a01b031990921691909117909155603780546001600160b01b03191691851691909117600160a81b17905560006038819055603981905569054b40b1f852bda00000603a55683635c9adc5dea00000603b556040805191825260208201908190529051610c5791603691613930565b508015610c6a576000805461ff00191690555b505050565b603754606090600090600160a81b900460ff1615610c9f5760405162461bcd60e51b815260040161081c90613c14565b60008051602061400683398151915280546001198101610cd15760405162461bcd60e51b815260040161081c90613c3c565b60028255604a60009054906101000a90046001600160a01b03166001600160a01b031663e52253816040518163ffffffff1660e01b8152600401600060405180830381600087803b158015610d2557600080fd5b505af1158015610d39573d6000803e3d6000fd5b50505050610d45612290565b508467ffffffffffffffff811115610d5f57610d5f613d00565b604051908082528060200260200182016040528015610d88578160200160208202803683370190505b50935060005b85811015610e0457610db7878783818110610dab57610dab613cea565b9050602002013561246c565b858281518110610dc957610dc9613cea565b602002602001018181525050848181518110610de757610de7613cea565b602002602001015184610dfa9190613d16565b9350600101610d8e565b50610e396001600160a01b037f0000000000000000000000000000000000000000000000000000000000000000163385612762565b610e42836127b8565b6001825550509250929050565b600080610e616108f56108e485611da6565b9050670de0b6b3a764000081610912856000611fbd565b7f44c4d30b2eaad5130ad70c3ba6972730566f3e6359ab83e800d905c61b1c51db546001600160a01b0316336001600160a01b031614610f135760405162461bcd60e51b815260206004820152603060248201527f4f6e6c79207468652070656e64696e6720476f7665726e6f722063616e20636f60448201526f6d706c6574652074686520636c61696d60801b606482015260840161081c565b610f1c3361295f565b565b6000610f2982612a20565b92915050565b603754600160a81b900460ff1615610f595760405162461bcd60e51b815260040161081c90613c14565b6045546001600160a01b03163314610f835760405162461bcd60e51b815260040161081c90613d29565b6000198110610fa45760405162461bcd60e51b815260040161081c90613d6d565b7f222838db2794d11532d940e8dec38ae307ed0b63cd97c233322e221f998767a63382604051610fd5929190613d96565b60405180910390a18060466000828254610fef9190613daf565b909155505060475460465461100390612af3565b1061105a5760405162461bcd60e51b815260206004820152602160248201527f417474656d7074696e6720746f206275726e20746f6f206d756368204f5553446044820152601760f91b606482015260840161081c565b603c54604051632770a7eb60e21b81526001600160a01b0390911690639dc29fac9061108c9033908590600401613d96565b600060405180830381600087803b1580156110a657600080fd5b505af11580156110ba573d6000803e3d6000fd5b5050505050565b6060610f2982612b31565b604080516080808201835260008083526020808401829052838501829052606084018290526001600160a01b038616825260338152908490208451928301909452835460ff80821615158452939492939184019161010090910416600181111561113857611138613b86565b600181111561114957611149613b86565b8152905462010000810460ff1660208301526301000000900461ffff1660409091015292915050565b603754600160a81b900460ff161561119c5760405162461bcd60e51b815260040161081c90613c14565b600080516020614006833981519152805460011981016111ce5760405162461bcd60e51b815260040161081c90613c3c565b60028255603c546040516370a0823160e01b8152336004820152611246916001600160a01b0316906370a0823190602401602060405180830381865afa15801561121c573d6000803e3d6000fd5b505050506040513d601f19601f820116820180604052508101906112409190613dcf565b84612c72565b506001905550565b60405162461bcd60e51b81526020600482015260146024820152733ab739bab83837b93a32b210333ab731ba34b7b760611b604482015260640161081c565b6037546000908190600160a81b900460ff16156112bc5760405162461bcd60e51b815260040161081c90613c14565b600080516020614006833981519152805460011981016112ee5760405162461bcd60e51b815260040161081c90613c3c565b600282556000604e54116113445760405162461bcd60e51b815260206004820152601d60248201527f4173796e63207769746864726177616c73206e6f7420656e61626c6564000000604482015260640161081c565b604c54604b546001600160801b03600160801b9092048216955061136a91879116613d16565b925061137f61137a856001613d16565b612e19565b604c80546001600160801b03928316600160801b0292169190911790556113a583612e19565b604b80546001600160801b0319166001600160801b03929092169190911790556040805160a081018252338152600060208201524264ffffffffff1691810191909152606081016113f587612e19565b6001600160801b0316815260200161140c85612e19565b6001600160801b039081169091526000868152604d602090815260409182902084518154928601518685015164ffffffffff16600160a81b0264ffffffffff60a81b19911515600160a01b026001600160a81b03199095166001600160a01b0393841617949094171692909217815560608501516080909501518416600160801b029490931693909317600190920191909155603c549051632770a7eb60e21b8152911690639dc29fac906114c79033908990600401613d96565b600060405180830381600087803b1580156114e157600080fd5b505af11580156114f5573d6000803e3d6000fd5b50505050611502856127b8565b6040805186815260208101859052859133917f38e3d972947cfef94205163d483d6287ef27eb312e20cb8e0b13a49989db232e910160405180910390a3600182555050915091565b603754600160a81b900460ff16156115745760405162461bcd60e51b815260040161081c90613c14565b6045546001600160a01b0316331461159e5760405162461bcd60e51b815260040161081c90613d29565b60001981106115bf5760405162461bcd60e51b815260040161081c90613d6d565b7f0f6798a560793a54c3bcfe86a93cde1e73087d944c0ea20544137d412139688533826040516115f0929190613d96565b60405180910390a1806046600082825461160a9190613de8565b909155505060475460465461161e90612af3565b1061168a5760405162461bcd60e51b815260206004820152603660248201527f4d696e746564206f75736420737572706173736564206e65744f7573644d696e6044820152753a2337b929ba3930ba32b3bcaa343932b9b437b6321760511b606482015260840161081c565b603c546040516340c10f1960e01b81526001600160a01b03909116906340c10f199061108c9033908590600401613d96565b603754600160a81b900460ff16156116e65760405162461bcd60e51b815260040161081c90613c14565b600080516020614006833981519152805460011981016117185760405162461bcd60e51b815260040161081c90613c3c565b60028255611724612290565b5061172d612e82565b5060019055565b600080516020614006833981519152805460011981016117665760405162461bcd60e51b815260040161081c90613c3c565b600282556117726130aa565b505060019055565b604a60009054906101000a90046001600160a01b03166001600160a01b031663e52253816040518163ffffffff1660e01b8152600401600060405180830381600087803b1580156117ca57600080fd5b505af11580156117de573d6000803e3d6000fd5b50505050610a6a612290565b606060368054806020026020016040519081016040528092919081815260200182805480156108c8576020028201919060005260206000209081546001600160a01b031681526001909101906020018083116108aa575050505050905090565b60006118626000805160206140268339815191525490565b6001600160a01b0316336001600160a01b031614905090565b61188361184a565b61189f5760405162461bcd60e51b815260040161081c90613cb3565b6118c7817f44c4d30b2eaad5130ad70c3ba6972730566f3e6359ab83e800d905c61b1c51db55565b806001600160a01b03166118e76000805160206140268339815191525490565b6001600160a01b03167fa39cc5eb22d0f34d8beaefee8a3f17cc229c1a1d1ef87a5ad47313487b1c4f0d60405160405180910390a350565b60006107ed6133ca565b603754600090600160a81b900460ff16156119565760405162461bcd60e51b815260040161081c90613c14565b600080516020614006833981519152805460011981016119885760405162461bcd60e51b815260040161081c90613c3c565b60028255604b546000858152604d60205260409020600101546001600160801b03600160801b92839004811692909104161115611a3157604a60009054906101000a90046001600160a01b03166001600160a01b031663e52253816040518163ffffffff1660e01b8152600401600060405180830381600087803b158015611a0f57600080fd5b505af1158015611a23573d6000803e3d6000fd5b50505050611a2f612290565b505b611a3a8461246c565b9250611a706001600160a01b037f0000000000000000000000000000000000000000000000000000000000000000163385612762565b611a79836127b8565b5060019055919050565b611a8b61184a565b611aa75760405162461bcd60e51b815260040161081c90613cb3565b803b611b015760405162461bcd60e51b8152602060048201526024808201527f6e657720696d706c656d656e746174696f6e206973206e6f74206120636f6e746044820152631c9858dd60e21b606482015260840161081c565b7fa2bd3d3cf188a41358c8b401076eb59066b09dec5775650c0de4c55187d17bd955565b7f00000000000000000000000000000000000000000000000000000000000000006001600160a01b0316836001600160a01b031614611ba65760405162461bcd60e51b815260206004820152601d60248201527f556e737570706f7274656420617373657420666f72206d696e74696e67000000604482015260640161081c565b60008211611bf65760405162461bcd60e51b815260206004820152601d60248201527f416d6f756e74206d7573742062652067726561746572207468616e2030000000604482015260640161081c565b80821015611c465760405162461bcd60e51b815260206004820152601e60248201527f4d696e7420616d6f756e74206c6f776572207468616e206d696e696d756d0000604482015260640161081c565b7f0f6798a560793a54c3bcfe86a93cde1e73087d944c0ea20544137d41213968853383604051611c77929190613d96565b60405180910390a1603754600160a01b900460ff16158015611c9b5750603b548210155b15611d1257604a60009054906101000a90046001600160a01b03166001600160a01b031663e52253816040518163ffffffff1660e01b8152600401600060405180830381600087803b158015611cf057600080fd5b505af1158015611d04573d6000803e3d6000fd5b50505050611d106130aa565b505b603c546040516340c10f1960e01b81526001600160a01b03909116906340c10f1990611d449033908690600401613d96565b600060405180830381600087803b158015611d5e57600080fd5b505af1158015611d72573d6000803e3d6000fd5b50611d8c925050506001600160a01b0384163330856133f5565b611d94612290565b50603a548210610c6a57610c6a612e82565b6001600160a01b03811660009081526033602052604090205462010000900460ff1680611e0b5760405162461bcd60e51b8152602060048201526013602482015272111958da5b585b1cc81b9bdd0818d858da1959606a1b604482015260640161081c565b919050565b600081831115611e4057611e39611e278385613e10565b611e3290600a613f0a565b8590613433565b9350611e6a565b81831015611e6a57611e67611e558484613e10565b611e6090600a613f0a565b859061343f565b93505b509192915050565b6001600160a01b038116600090815260336020526040812054610100900460ff1681816001811115611ea657611ea6613b86565b03611ec957611ec16012611eb985611da6565b869190611e10565b915050610f29565b6001816001811115611edd57611edd613b86565b03611f6e576000836001600160a01b031663e6aa216c6040518163ffffffff1660e01b8152600401602060405180830381865afa158015611f22573d6000803e3d6000fd5b505050506040513d601f19601f82011682018060405250810190611f469190613dcf565b9050670de0b6b3a7640000611f5b8287613c7a565b611f659190613c91565b92505050610f29565b60405162461bcd60e51b815260206004820152601b60248201527f556e737570706f7274656420636f6e76657273696f6e20747970650000000000604482015260640161081c565b5092915050565b6001600160a01b038281166000818152603360205260408082205460375491516315d5220f60e31b81526004810194909452919361010090920460ff169291169063aea9107890602401602060405180830381865afa158015612024573d6000803e3d6000fd5b505050506040513d601f19601f820116820180604052508101906120489190613dcf565b9150600181600181111561205e5761205e613b86565b036120ee576000846001600160a01b031663e6aa216c6040518163ffffffff1660e01b8152600401602060405180830381865afa1580156120a3573d6000803e3d6000fd5b505050506040513d601f19601f820116820180604052508101906120c79190613dcf565b9050806120dc84670de0b6b3a7640000613c7a565b6120e69190613c91565b92505061214f565b600081600181111561210257612102613b86565b1461214f5760405162461bcd60e51b815260206004820152601b60248201527f556e737570706f7274656420636f6e76657273696f6e20747970650000000000604482015260640161081c565b67120a871cc00200008211156121a75760405162461bcd60e51b815260206004820152601860248201527f5661756c743a2050726963652065786365656473206d61780000000000000000604482015260640161081c565b6709b6e64a8ec600008210156121f85760405162461bcd60e51b81526020600482015260166024820152752b30bab63a1d10283934b1b2903ab73232b91036b4b760511b604482015260640161081c565b821561226f57670de0b6b3a764000082111561221a57670de0b6b3a764000091505b670dd99bb65dd7000082101561226a5760405162461bcd60e51b815260206004820152601560248201527441737365742070726963652062656c6f772070656760581b604482015260640161081c565b611fb6565b670de0b6b3a7640000821015611fb65750670de0b6b3a76400009392505050565b60408051608081018252604b546001600160801b03808216808452600160801b92839004821660208501819052604c54808416968601969096529290940416606083015260009283916122e291613f16565b6001600160801b03169050806000036122fe5760009250505090565b6040516370a0823160e01b81523060048201526000907f00000000000000000000000000000000000000000000000000000000000000006001600160a01b0316906370a0823190602401602060405180830381865afa158015612365573d6000803e3d6000fd5b505050506040513d601f19601f820116820180604052508101906123899190613dcf565b90506000836040015184602001516123a19190613f16565b6001600160801b031690508082116123be57600094505050505090565b60006123ca8284613e10565b90508084106123d957806123db565b835b955060008686602001516001600160801b03166123f89190613d16565b905061240381612e19565b604b80546001600160801b03928316600160801b0292169190911790556040517fee79a0c43d3993055690b54e074b5153e8bae8d1a872b656dedb64aa8f4633339061245b9083908a90918252602082015260400190565b60405180910390a150505050505090565b600080604e54116124bf5760405162461bcd60e51b815260206004820152601d60248201527f4173796e63207769746864726177616c73206e6f7420656e61626c6564000000604482015260640161081c565b6000828152604d6020908152604091829020825160a08101845281546001600160a01b038116825260ff600160a01b82041615158285015264ffffffffff600160a81b90910481168286019081526001909301546001600160801b03808216606080860191909152600160801b92839004821660808087019190915288519081018952604b548084168252849004831697810197909752604c54808316988801989098529190960490951694840194909452604e5491519093429261258692909116613d16565b11156125ca5760405162461bcd60e51b815260206004820152601360248201527210db185a5b4819195b185e481b9bdd081b595d606a1b604482015260640161081c565b80602001516001600160801b031682608001516001600160801b031611156126345760405162461bcd60e51b815260206004820152601760248201527f51756575652070656e64696e67206c6971756964697479000000000000000000604482015260640161081c565b81516001600160a01b0316331461267d5760405162461bcd60e51b815260206004820152600d60248201526c2737ba103932b8bab2b9ba32b960991b604482015260640161081c565b6020820151156126c15760405162461bcd60e51b815260206004820152600f60248201526e105b1c9958591e4818db185a5b5959608a1b604482015260640161081c565b6000848152604d602052604090819020805460ff60a01b1916600160a01b1790556060830151908201516126f59190613f35565b604c80546001600160801b0319166001600160801b03928316179055606083015160405191168152849033907f2d43eb174787155132b52ddb6b346e2dca99302eac3df4466dbeff953d3c84d19060200160405180910390a350606001516001600160801b031692915050565b610c6a8363a9059cbb60e01b8484604051602401612781929190613d96565b60408051601f198184030181529190526020810180516001600160e01b03166001600160e01b03199093169290921790915261344b565b6000603b5482101580156127d65750603754600160a01b900460ff16155b156127ea576127e36130aa565b90506127f5565b6127f26133ca565b90505b6041541561295b576000811161284d5760405162461bcd60e51b815260206004820152601d60248201527f546f6f206d616e79206f75747374616e64696e67207265717565737473000000604482015260640161081c565b60006128d082603c60009054906101000a90046001600160a01b03166001600160a01b03166318160ddd6040518163ffffffff1660e01b8152600401602060405180830381865afa1580156128a6573d6000803e3d6000fd5b505050506040513d601f19601f820116820180604052508101906128ca9190613dcf565b9061351d565b9050604154670de0b6b3a764000082116128fb576128f682670de0b6b3a7640000613e10565b61290d565b61290d670de0b6b3a764000083613e10565b1115610c6a5760405162461bcd60e51b815260206004820152601e60248201527f4261636b696e6720737570706c79206c6971756964697479206572726f720000604482015260640161081c565b5050565b6001600160a01b0381166129b55760405162461bcd60e51b815260206004820152601a60248201527f4e657720476f7665726e6f722069732061646472657373283029000000000000604482015260640161081c565b806001600160a01b03166129d56000805160206140268339815191525490565b6001600160a01b03167fc7c0c772add429241571afb3805861fb3cfa2af374534088b76cdb4325a87e9a60405160405180910390a3610a6a8160008051602061402683398151915255565b60007f00000000000000000000000000000000000000000000000000000000000000006001600160a01b0316826001600160a01b031614612a6357506000919050565b612a6c82613546565b60408051608081018252604b546001600160801b03808216808452600160801b9283900482166020850152604c54808316958501869052929092041660608301529293509190612abc9084613d16565b1015612acb5750600092915050565b805160408201516001600160801b0391821691612ae9911684613d16565b6109269190613e10565b60006000198212612b165760405162461bcd60e51b815260040161081c90613d6d565b6000821215612b2d57612b2882613f54565b610f29565b5090565b60385460609015612b6057603854600090612b509084906127106136e0565b9050612b5c8184613e10565b9250505b6000607b5490507f00000000000000000000000000000000000000000000000000000000000000006001600160a01b031660348281548110612ba457612ba4613cea565b6000918252602090912001546001600160a01b031614612c065760405162461bcd60e51b815260206004820152601b60248201527f5745544820417373657420696e646578206e6f74206361636865640000000000604482015260640161081c565b60345467ffffffffffffffff811115612c2157612c21613d00565b604051908082528060200260200182016040528015612c4a578160200160208202803683370190505b50915082828281518110612c6057612c60613cea565b60200260200101818152505050919050565b7f222838db2794d11532d940e8dec38ae307ed0b63cd97c233322e221f998767a63383604051612ca3929190613d96565b60405180910390a181600003612cb7575050565b6000612cc283612b31565b607b5481518110612cd557612cd5613cea565b6020026020010151905081811015612d2f5760405162461bcd60e51b815260206004820181905260248201527f52656465656d20616d6f756e74206c6f776572207468616e206d696e696d756d604482015260640161081c565b80612d38613702565b1015612d785760405162461bcd60e51b815260206004820152600f60248201526e2634b8bab4b234ba3c9032b93937b960891b604482015260640161081c565b612dac6001600160a01b037f0000000000000000000000000000000000000000000000000000000000000000163383612762565b603c54604051632770a7eb60e21b81526001600160a01b0390911690639dc29fac90612dde9033908790600401613d96565b600060405180830381600087803b158015612df857600080fd5b505af1158015612e0c573d6000803e3d6000fd5b50505050610c6a836127b8565b60006001600160801b03821115612b2d5760405162461bcd60e51b815260206004820152602760248201527f53616665436173743a2076616c756520646f65736e27742066697420696e20316044820152663238206269747360c81b606482015260840161081c565b6001600160a01b037f000000000000000000000000000000000000000000000000000000000000000081166000908152604060208190529020541680612ec55750565b6000612ecf613702565b905080600003612edd575050565b603c54604080516318160ddd60e01b815290516000926001600160a01b0316916318160ddd9160048083019260209291908290030181865afa158015612f27573d6000803e3d6000fd5b505050506040513d601f19601f82011682018060405250810190612f4b9190613dcf565b90506000612f646039548361381090919063ffffffff16565b9050808311612f735750505050565b6000612f7f8285613e10565b905084612fb66001600160a01b037f0000000000000000000000000000000000000000000000000000000000000000168284612762565b6040516311f9fbc960e21b81526001600160a01b038216906347e7ef2490613004907f0000000000000000000000000000000000000000000000000000000000000000908690600401613d96565b600060405180830381600087803b15801561301e57600080fd5b505af1158015613032573d6000803e3d6000fd5b5050604080516001600160a01b037f0000000000000000000000000000000000000000000000000000000000000000811682528a1660208201529081018590527f41b99659f6ba0803f444aff29e5bf6e26dd86a3219aff92119d69710a956ba8d9250606001905060405180910390a1505050505050565b603754600090600160a01b900460ff16156130f95760405162461bcd60e51b815260206004820152600f60248201526e149958985cda5b99c81c185d5cd959608a1b604482015260640161081c565b603c54604080516318160ddd60e01b815290516000926001600160a01b0316916318160ddd9160048083019260209291908290030181865afa158015613143573d6000803e3d6000fd5b505050506040513d601f19601f820116820180604052508101906131679190613dcf565b905060006131736133ca565b9050816000036131865791506133c79050565b6042546001600160a01b031680158015906131a057508282115b156132e25760006131b18484613e10565b905060006131ce604354612710846136e09092919063ffffffff16565b905080821161322a5760405162461bcd60e51b815260206004820152602260248201527f466565206d757374206e6f742062652067726561746572207468616e207969656044820152611b1960f21b606482015260840161081c565b801561329557603c546040516340c10f1960e01b81526001600160a01b03909116906340c10f19906132629086908590600401613d96565b600060405180830381600087803b15801561327c57600080fd5b505af1158015613290573d6000803e3d6000fd5b505050505b604080516001600160a01b0385168152602081018490529081018290527f09516ecf4a8a86e59780a9befc6dee948bc9e60a36e3be68d31ea817ee8d2c809060600160405180910390a150505b603c60009054906101000a90046001600160a01b03166001600160a01b03166318160ddd6040518163ffffffff1660e01b8152600401602060405180830381865afa158015613335573d6000803e3d6000fd5b505050506040513d601f19601f820116820180604052508101906133599190613dcf565b9250828211156133c257603c546040516339a7919f60e01b8152600481018490526001600160a01b03909116906339a7919f90602401600060405180830381600087803b1580156133a957600080fd5b505af11580156133bd573d6000803e3d6000fd5b505050505b509150505b90565b60006107ed7f0000000000000000000000000000000000000000000000000000000000000000612a20565b6040516001600160a01b038085166024830152831660448201526064810182905261342d9085906323b872dd60e01b90608401612781565b50505050565b60006109268284613c7a565b60006109268284613c91565b60006134a0826040518060400160405280602081526020017f5361666545524332303a206c6f772d6c6576656c2063616c6c206661696c6564815250856001600160a01b03166138259092919063ffffffff16565b805190915015610c6a57808060200190518101906134be9190613f70565b610c6a5760405162461bcd60e51b815260206004820152602a60248201527f5361666545524332303a204552433230206f7065726174696f6e20646964206e6044820152691bdd081cdd58d8d9595960b21b606482015260840161081c565b60008061353284670de0b6b3a7640000613433565b905061353e818461343f565b949350505050565b6040516370a0823160e01b815230600482015260009082906001600160a01b038216906370a0823190602401602060405180830381865afa15801561358f573d6000803e3d6000fd5b505050506040513d601f19601f820116820180604052508101906135b39190613dcf565b60365490925060005b818110156136d8576000603682815481106135d9576135d9613cea565b60009182526020909120015460405163551c457b60e11b81526001600160a01b0388811660048301529091169150819063aa388af690602401602060405180830381865afa15801561362f573d6000803e3d6000fd5b505050506040513d601f19601f820116820180604052508101906136539190613f70565b156136cf57604051632fa8a91360e11b81526001600160a01b038781166004830152821690635f51522690602401602060405180830381865afa15801561369e573d6000803e3d6000fd5b505050506040513d601f19601f820116820180604052508101906136c29190613dcf565b6136cc9086613d16565b94505b506001016135bc565b505050919050565b6000806136ed8585613433565b90506136f9818461343f565b95945050505050565b60408051608081018252604b546001600160801b03808216808452600160801b9283900482166020850152604c548083169585018690529290920416606083015260009283916137529190613f16565b6040516370a0823160e01b81523060048201526001600160801b039190911691506000906001600160a01b037f000000000000000000000000000000000000000000000000000000000000000016906370a0823190602401602060405180830381865afa1580156137c7573d6000803e3d6000fd5b505050506040513d601f19601f820116820180604052508101906137eb9190613dcf565b90508181116137fe576000935050505090565b6138088282613e10565b935050505090565b60006109268383670de0b6b3a76400006136e0565b606061353e848460008585843b61387e5760405162461bcd60e51b815260206004820152601d60248201527f416464726573733a2063616c6c20746f206e6f6e2d636f6e7472616374000000604482015260640161081c565b600080866001600160a01b0316858760405161389a9190613fb6565b60006040518083038185875af1925050503d80600081146138d7576040519150601f19603f3d011682016040523d82523d6000602084013e6138dc565b606091505b50915091506138ec8282866138f7565b979650505050505050565b60608315613906575081610926565b8251156139165782518084602001fd5b8160405162461bcd60e51b815260040161081c9190613fd2565b828054828255906000526020600020908101928215613985579160200282015b8281111561398557825182546001600160a01b0319166001600160a01b03909116178255602090920191600190910190613950565b50612b2d9291505b80821115612b2d576000815560010161398d565b80356001600160a01b0381168114611e0b57600080fd5b6000806000606084860312156139cd57600080fd5b6139d6846139a1565b95602085013595506040909401359392505050565b602080825282518282018190526000918401906040840190835b81811015613a2c5783516001600160a01b0316835260209384019390920191600101613a05565b509095945050505050565b600060208284031215613a4957600080fd5b610926826139a1565b60008060408385031215613a6557600080fd5b613a6e836139a1565b9150613a7c602084016139a1565b90509250929050565b60008060208385031215613a9857600080fd5b823567ffffffffffffffff811115613aaf57600080fd5b8301601f81018513613ac057600080fd5b803567ffffffffffffffff811115613ad757600080fd5b8560208260051b8401011115613aec57600080fd5b6020919091019590945092505050565b600081518084526020840193506020830160005b82811015613b2e578151865260209586019590910190600101613b10565b5093949350505050565b604081526000613b4b6040830185613afc565b90508260208301529392505050565b600060208284031215613b6c57600080fd5b5035919050565b6020815260006109266020830184613afc565b634e487b7160e01b600052602160045260246000fd5b8151151581526020820151608082019060028110613bca57634e487b7160e01b600052602160045260246000fd5b8060208401525060ff604084015116604083015261ffff606084015116606083015292915050565b60008060408385031215613c0557600080fd5b50508035926020909101359150565b6020808252600e908201526d10d85c1a5d185b081c185d5cd95960921b604082015260600190565b6020808252600e908201526d1499595b9d1c985b9d0818d85b1b60921b604082015260600190565b634e487b7160e01b600052601160045260246000fd5b8082028115828204841417610f2957610f29613c64565b600082613cae57634e487b7160e01b600052601260045260246000fd5b500490565b6020808252601a908201527f43616c6c6572206973206e6f742074686520476f7665726e6f72000000000000604082015260600190565b634e487b7160e01b600052603260045260246000fd5b634e487b7160e01b600052604160045260246000fd5b80820180821115610f2957610f29613c64565b60208082526024908201527f43616c6c6572206973206e6f7420746865204f555344206d65746120737472616040820152637465677960e01b606082015260800190565b6020808252600f908201526e082dadeeadce840e8dede40d0d2ced608b1b604082015260600190565b6001600160a01b03929092168252602082015260400190565b8181036000831280158383131683831282161715611fb657611fb6613c64565b600060208284031215613de157600080fd5b5051919050565b8082018281126000831280158216821582161715613e0857613e08613c64565b505092915050565b81810381811115610f2957610f29613c64565b6001815b6001841115613e5e57808504811115613e4257613e42613c64565b6001841615613e5057908102905b60019390931c928002613e27565b935093915050565b600082613e7557506001610f29565b81613e8257506000610f29565b8160018114613e985760028114613ea257613ebe565b6001915050610f29565b60ff841115613eb357613eb3613c64565b50506001821b610f29565b5060208310610133831016604e8410600b8410161715613ee1575081810a610f29565b613eee6000198484613e23565b8060001904821115613f0257613f02613c64565b029392505050565b60006109268383613e66565b6001600160801b038281168282160390811115610f2957610f29613c64565b6001600160801b038181168382160190811115610f2957610f29613c64565b6000600160ff1b8201613f6957613f69613c64565b5060000390565b600060208284031215613f8257600080fd5b8151801515811461092657600080fd5b60005b83811015613fad578181015183820152602001613f95565b50506000910152565b60008251613fc8818460208701613f92565b9190910192915050565b6020815260008251806020840152613ff1816040850160208701613f92565b601f01601f1916919091016040019291505056fe53bf423e48ed90e97d02ab0ebab13b2a235a6bfbe9c321847d5c175333ac45357bea13895fa79d2831e0a9e28edede30099005a50d652d8957cf8a607ee6ca4aa26469706673582212202de7dbb20ec302f109ca6116b0a84f0dc4e5ad578580c8d1b1f95f186df04d0564736f6c634300081c00337bea13895fa79d2831e0a9e28edede30099005a50d652d8957cf8a607ee6ca4a",
  "libraries": {},
  "devdoc": {
    "author": "Origin Protocol Inc",
    "kind": "dev",
    "methods": {
      "addWithdrawalQueueLiquidity()": {
        "details": "is called from the Native Staking strategy when validator withdrawals are processed. It also called before any WETH is allocated to a strategy."
      },
      "burnForStrategy(uint256)": {
        "details": "Notice: can't use `nonReentrant` modifier since the `redeem` function could require withdrawal on `ConvexOUSDMetaStrategy` and that one can call `burnForStrategy` while the execution of the `redeem` has not yet completed -> causing a `nonReentrant` collision. Also important to understand is that this is a limitation imposed by the test suite. Production / mainnet contracts should never be configured in a way where mint/redeem functions that are moving funds between the Vault and end user wallets can influence strategies utilizing this function.",
        "params": {
          "_amount": "Amount of OUSD to burn"
        }
      },
      "cacheWETHAssetIndex()": {
        "details": "Caches WETH's index in `allAssets` variable.      Reduces gas usage by redeem by caching that."
      },
      "checkBalance(address)": {
        "params": {
          "_asset": "Address of asset"
        },
        "returns": {
          "_0": "uint256 Balance of asset in decimals of asset"
        }
      },
      "claimWithdrawal(uint256)": {
        "params": {
          "_requestId": "Unique ID for the withdrawal request"
        },
        "returns": {
          "amount": "Amount of WETH transferred to the withdrawer"
        }
      },
      "claimWithdrawals(uint256[])": {
        "params": {
          "_requestIds": "Unique ID of each withdrawal request"
        },
        "returns": {
          "amounts": "Amount of WETH received for each request",
          "totalAmount": "Total amount of WETH transferred to the withdrawer"
        }
      },
      "constructor": {
        "params": {
          "_wS": "Sonic's Wrapped S token"
        }
      },
      "getAssetConfig(address)": {
        "params": {
          "_asset": "Address of the token asset"
        }
      },
      "isSupportedAsset(address)": {
        "params": {
          "_asset": "address of the asset"
        },
        "returns": {
          "_0": "true if supported"
        }
      },
      "mint(address,uint256,uint256)": {
        "params": {
          "_amount": "Amount of the asset being deposited",
          "_asset": "Address of the asset being deposited",
          "_minimumOusdAmount": "Minimum OTokens to mint"
        }
      },
      "mintForStrategy(uint256)": {
        "params": {
          "_amount": "Amount of the asset being deposited Notice: can't use `nonReentrant` modifier since the `mint` function can call `allocate`, and that can trigger `ConvexOUSDMetaStrategy` to call this function while the execution of the `mint` has not yet completed -> causing a `nonReentrant` collision. Also important to understand is that this is a limitation imposed by the test suite. Production / mainnet contracts should never be configured in a way where mint/redeem functions that are moving funds between the Vault and end user wallets can influence strategies utilizing this function."
        }
      },
      "priceUnitMint(address)": {
        "params": {
          "asset": "address of the asset"
        },
        "returns": {
          "price": "uint256: unit (USD / ETH) price for 1 unit of the asset, in 18 decimal fixed"
        }
      },
      "priceUnitRedeem(address)": {
        "params": {
          "asset": "Address of the asset"
        },
        "returns": {
          "price": "uint256: unit (USD / ETH) price for 1 unit of the asset, in 18 decimal fixed"
        }
      },
      "redeemAll(uint256)": {
        "params": {
          "_minimumUnitAmount": "Minimum stablecoin units to receive in return"
        }
      },
      "requestWithdrawal(uint256)": {
        "params": {
          "_amount": "Amount of OETH to burn."
        },
        "returns": {
          "queued": "Cumulative total of all WETH queued including already claimed requests.",
          "requestId": "Unique ID for the withdrawal request"
        }
      },
      "setAdminImpl(address)": {
        "params": {
          "newImpl": "address of the implementation"
        }
      },
      "totalValue()": {
        "returns": {
          "value": "Total value in USD/ETH (1e18)"
        }
      },
      "transferGovernance(address)": {
        "params": {
          "_newGovernor": "Address of the new Governor"
        }
      }
    },
    "title": "Origin Sonic VaultCore contract on Sonic",
    "version": 1
  },
  "userdoc": {
    "kind": "user",
    "methods": {
      "addWithdrawalQueueLiquidity()": {
        "notice": "Collects harvested rewards from the Dripper as WETH then adds WETH to the withdrawal queue if there is a funding shortfall."
      },
      "allocate()": {
        "notice": "Allocate unallocated funds on Vault to strategies.*"
      },
      "assetDefaultStrategies(address)": {
        "notice": "Mapping of asset address to the Strategy that they should automatically"
      },
      "autoAllocateThreshold()": {
        "notice": "OToken mints over this amount automatically allocate funds. 18 decimals."
      },
      "burnForStrategy(uint256)": {
        "notice": "Burn OTokens for Metapool Strategy"
      },
      "calculateRedeemOutputs(uint256)": {
        "notice": "Calculate the outputs for a redeem function, i.e. the mix of coins that will be returned"
      },
      "capitalPaused()": {
        "notice": "pause operations that change the OToken supply. eg mint, redeem, allocate, mint/burn for strategy"
      },
      "checkBalance(address)": {
        "notice": "Get the balance of an asset held in Vault and all strategies."
      },
      "claimGovernance()": {
        "notice": "Claim Governance of the contract to a new account (`newGovernor`). Can only be called by the new Governor."
      },
      "claimWithdrawal(uint256)": {
        "notice": "Claim a previously requested withdrawal once it is claimable. This request can be claimed once the withdrawal queue's `claimable` amount is greater than or equal this request's `queued` amount and 10 minutes has passed. If the requests is not claimable, the transaction will revert with `Queue pending liquidity`. If the request is not older than 10 minutes, the transaction will revert with `Claim delay not met`. OETH is converted to WETH at 1:1."
      },
      "claimWithdrawals(uint256[])": {
        "notice": "Claim a previously requested withdrawals once they are claimable. This requests can be claimed once the withdrawal queue's `claimable` amount is greater than or equal each request's `queued` amount and 10 minutes has passed. If one of the requests is not claimable, the whole transaction will revert with `Queue pending liquidity`. If one of the requests is not older than 10 minutes, the whole transaction will revert with `Claim delay not met`."
      },
      "dripper()": {
        "notice": "Address of the Dripper contract that streams harvested rewards to the Vault"
      },
      "getAllAssets()": {
        "notice": "Return all vault asset addresses in order"
      },
      "getAllStrategies()": {
        "notice": "Return the array of all strategies"
      },
      "getAssetConfig(address)": {
        "notice": "Gets the vault configuration of a supported asset."
      },
      "getAssetCount()": {
        "notice": "Return the number of assets supported by the Vault."
      },
      "getStrategyCount()": {
        "notice": "Return the number of strategies active on the Vault."
      },
      "governor()": {
        "notice": "Returns the address of the current Governor."
      },
      "isGovernor()": {
        "notice": "Returns true if the caller is the current Governor."
      },
      "isSupportedAsset(address)": {
        "notice": "Returns whether the vault supports the asset"
      },
      "maxSupplyDiff()": {
        "notice": "Max difference between total supply and total value of assets. 18 decimals."
      },
      "mint(address,uint256,uint256)": {
        "notice": "Deposit a supported asset and mint OTokens."
      },
      "mintForStrategy(uint256)": {
        "notice": "Mint OTokens for a Metapool Strategy"
      },
      "netOusdMintForStrategyThreshold()": {
        "notice": "How much net total OTokens are allowed to be minted by all strategies"
      },
      "netOusdMintedForStrategy()": {
        "notice": "How much OTokens are currently minted by the strategy"
      },
      "ousdMetaStrategy()": {
        "notice": "Metapool strategy that is allowed to mint/burn OTokens without changing collateral"
      },
      "priceProvider()": {
        "notice": "Address of the Oracle price provider contract"
      },
      "priceUnitMint(address)": {
        "notice": "Returns the total price in 18 digit units for a given asset.      Never goes above 1, since that is how we price mints."
      },
      "priceUnitRedeem(address)": {
        "notice": "Returns the total price in 18 digit unit for a given asset.      Never goes below 1, since that is how we price redeems"
      },
      "rebase()": {
        "notice": "Calculate the total value of assets held by the Vault and all      strategies and update the supply of OTokens."
      },
      "rebasePaused()": {
        "notice": "pause rebasing if true"
      },
      "rebaseThreshold()": {
        "notice": "OToken mints over this amount automatically rebase. 18 decimals."
      },
      "redeem(uint256,uint256)": {
        "notice": "Instant redeem is not supported on Sonic. Use the asynchronous `requestWithdrawal` a `claimWithdrawal` instead."
      },
      "redeemAll(uint256)": {
        "notice": "Withdraw a supported asset and burn all OTokens."
      },
      "redeemFeeBps()": {
        "notice": "Redemption fee in basis points. eg 50 = 0.5%"
      },
      "requestWithdrawal(uint256)": {
        "notice": "Request an asynchronous withdrawal of WETH in exchange for OETH. The OETH is burned on request and the WETH is transferred to the withdrawer on claim. This request can be claimed once the withdrawal queue's `claimable` amount is greater than or equal this request's `queued` amount. There is a minimum of 10 minutes before a request can be claimed. After that, the request just needs enough WETH liquidity in the Vault to satisfy all the outstanding requests to that point in the queue. OETH is converted to WETH at 1:1."
      },
      "setAdminImpl(address)": {
        "notice": "set the implementation for the admin, this needs to be in a base class else we cannot set it"
      },
      "strategistAddr()": {
        "notice": "Address of the Strategist"
      },
      "totalValue()": {
        "notice": "Determine the total value of assets held by the vault and its         strategies."
      },
      "transferGovernance(address)": {
        "notice": "Transfers Governance of the contract to a new account (`newGovernor`). Can only be called by the current Governor. Must be claimed for this to complete"
      },
      "trusteeAddress()": {
        "notice": "Trustee contract that can collect a percentage of yield"
      },
      "trusteeFeeBps()": {
        "notice": "Amount of yield collected in basis points. eg 2000 = 20%"
      },
      "vaultBuffer()": {
        "notice": "Percentage of assets to keep in Vault to handle (most) withdrawals. 100% = 1e18."
      },
      "withdrawalClaimDelay()": {
        "notice": "Sets a minimum delay that is required to elapse between     requesting async withdrawals and claiming the request.     When set to 0 async withdrawals are disabled."
      },
      "withdrawalQueueMetadata()": {
        "notice": "Global metadata for the withdrawal queue including: queued - cumulative total of all withdrawal requests included the ones that have already been claimed claimable - cumulative total of all the requests that can be claimed including the ones already claimed claimed - total of all the requests that have been claimed nextWithdrawalIndex - index of the next withdrawal request starting at 0"
      },
      "withdrawalRequests(uint256)": {
        "notice": "Mapping of withdrawal request indices to the user withdrawal request data"
      }
    },
    "version": 1
  },
  "storageLayout": {
    "storage": [
      {
        "astId": 51351,
        "contract": "contracts/vault/OSonicVaultCore.sol:OSonicVaultCore",
        "label": "initialized",
        "offset": 0,
        "slot": "0",
        "type": "t_bool"
      },
      {
        "astId": 51354,
        "contract": "contracts/vault/OSonicVaultCore.sol:OSonicVaultCore",
        "label": "initializing",
        "offset": 1,
        "slot": "0",
        "type": "t_bool"
      },
      {
        "astId": 51394,
        "contract": "contracts/vault/OSonicVaultCore.sol:OSonicVaultCore",
        "label": "______gap",
        "offset": 0,
        "slot": "1",
        "type": "t_array(t_uint256)50_storage"
      },
      {
        "astId": 58067,
        "contract": "contracts/vault/OSonicVaultCore.sol:OSonicVaultCore",
        "label": "assets",
        "offset": 0,
        "slot": "51",
        "type": "t_mapping(t_address,t_struct(Asset)58061_storage)"
      },
      {
        "astId": 58071,
        "contract": "contracts/vault/OSonicVaultCore.sol:OSonicVaultCore",
        "label": "allAssets",
        "offset": 0,
        "slot": "52",
        "type": "t_array(t_address)dyn_storage"
      },
      {
        "astId": 58082,
        "contract": "contracts/vault/OSonicVaultCore.sol:OSonicVaultCore",
        "label": "strategies",
        "offset": 0,
        "slot": "53",
        "type": "t_mapping(t_address,t_struct(Strategy)58076_storage)"
      },
      {
        "astId": 58086,
        "contract": "contracts/vault/OSonicVaultCore.sol:OSonicVaultCore",
        "label": "allStrategies",
        "offset": 0,
        "slot": "54",
        "type": "t_array(t_address)dyn_storage"
      },
      {
        "astId": 58089,
        "contract": "contracts/vault/OSonicVaultCore.sol:OSonicVaultCore",
        "label": "priceProvider",
        "offset": 0,
        "slot": "55",
        "type": "t_address"
      },
      {
        "astId": 58093,
        "contract": "contracts/vault/OSonicVaultCore.sol:OSonicVaultCore",
        "label": "rebasePaused",
        "offset": 20,
        "slot": "55",
        "type": "t_bool"
      },
      {
        "astId": 58097,
        "contract": "contracts/vault/OSonicVaultCore.sol:OSonicVaultCore",
        "label": "capitalPaused",
        "offset": 21,
        "slot": "55",
        "type": "t_bool"
      },
      {
        "astId": 58100,
        "contract": "contracts/vault/OSonicVaultCore.sol:OSonicVaultCore",
        "label": "redeemFeeBps",
        "offset": 0,
        "slot": "56",
        "type": "t_uint256"
      },
      {
        "astId": 58103,
        "contract": "contracts/vault/OSonicVaultCore.sol:OSonicVaultCore",
        "label": "vaultBuffer",
        "offset": 0,
        "slot": "57",
        "type": "t_uint256"
      },
      {
        "astId": 58106,
        "contract": "contracts/vault/OSonicVaultCore.sol:OSonicVaultCore",
        "label": "autoAllocateThreshold",
        "offset": 0,
        "slot": "58",
        "type": "t_uint256"
      },
      {
        "astId": 58109,
        "contract": "contracts/vault/OSonicVaultCore.sol:OSonicVaultCore",
        "label": "rebaseThreshold",
        "offset": 0,
        "slot": "59",
        "type": "t_uint256"
      },
      {
        "astId": 58113,
        "contract": "contracts/vault/OSonicVaultCore.sol:OSonicVaultCore",
        "label": "oUSD",
        "offset": 0,
        "slot": "60",
        "type": "t_contract(OUSD)48733"
      },
      {
        "astId": 58124,
        "contract": "contracts/vault/OSonicVaultCore.sol:OSonicVaultCore",
        "label": "_deprecated_rebaseHooksAddr",
        "offset": 0,
        "slot": "61",
        "type": "t_address"
      },
      {
        "astId": 58131,
        "contract": "contracts/vault/OSonicVaultCore.sol:OSonicVaultCore",
        "label": "_deprecated_uniswapAddr",
        "offset": 0,
        "slot": "62",
        "type": "t_address"
      },
      {
        "astId": 58138,
        "contract": "contracts/vault/OSonicVaultCore.sol:OSonicVaultCore",
        "label": "strategistAddr",
        "offset": 0,
        "slot": "63",
        "type": "t_address"
      },
      {
        "astId": 58143,
        "contract": "contracts/vault/OSonicVaultCore.sol:OSonicVaultCore",
        "label": "assetDefaultStrategies",
        "offset": 0,
        "slot": "64",
        "type": "t_mapping(t_address,t_address)"
      },
      {
        "astId": 58146,
        "contract": "contracts/vault/OSonicVaultCore.sol:OSonicVaultCore",
        "label": "maxSupplyDiff",
        "offset": 0,
        "slot": "65",
        "type": "t_uint256"
      },
      {
        "astId": 58149,
        "contract": "contracts/vault/OSonicVaultCore.sol:OSonicVaultCore",
        "label": "trusteeAddress",
        "offset": 0,
        "slot": "66",
        "type": "t_address"
      },
      {
        "astId": 58152,
        "contract": "contracts/vault/OSonicVaultCore.sol:OSonicVaultCore",
        "label": "trusteeFeeBps",
        "offset": 0,
        "slot": "67",
        "type": "t_uint256"
      },
      {
        "astId": 58156,
        "contract": "contracts/vault/OSonicVaultCore.sol:OSonicVaultCore",
        "label": "_deprecated_swapTokens",
        "offset": 0,
        "slot": "68",
        "type": "t_array(t_address)dyn_storage"
      },
      {
        "astId": 58162,
        "contract": "contracts/vault/OSonicVaultCore.sol:OSonicVaultCore",
        "label": "ousdMetaStrategy",
        "offset": 0,
        "slot": "69",
        "type": "t_address"
      },
      {
        "astId": 58165,
        "contract": "contracts/vault/OSonicVaultCore.sol:OSonicVaultCore",
        "label": "netOusdMintedForStrategy",
        "offset": 0,
        "slot": "70",
        "type": "t_int256"
      },
      {
        "astId": 58168,
        "contract": "contracts/vault/OSonicVaultCore.sol:OSonicVaultCore",
        "label": "netOusdMintForStrategyThreshold",
        "offset": 0,
        "slot": "71",
        "type": "t_uint256"
      },
      {
        "astId": 58190,
        "contract": "contracts/vault/OSonicVaultCore.sol:OSonicVaultCore",
        "label": "swapConfig",
        "offset": 0,
        "slot": "72",
        "type": "t_struct(SwapConfig)58180_storage"
      },
      {
        "astId": 58194,
        "contract": "contracts/vault/OSonicVaultCore.sol:OSonicVaultCore",
        "label": "isMintWhitelistedStrategy",
        "offset": 0,
        "slot": "73",
        "type": "t_mapping(t_address,t_bool)"
      },
      {
        "astId": 58197,
        "contract": "contracts/vault/OSonicVaultCore.sol:OSonicVaultCore",
        "label": "dripper",
        "offset": 0,
        "slot": "74",
        "type": "t_address"
      },
      {
        "astId": 58211,
        "contract": "contracts/vault/OSonicVaultCore.sol:OSonicVaultCore",
        "label": "withdrawalQueueMetadata",
        "offset": 0,
        "slot": "75",
        "type": "t_struct(WithdrawalQueueMetadata)58207_storage"
      },
      {
        "astId": 58228,
        "contract": "contracts/vault/OSonicVaultCore.sol:OSonicVaultCore",
        "label": "withdrawalRequests",
        "offset": 0,
        "slot": "77",
        "type": "t_mapping(t_uint256,t_struct(WithdrawalRequest)58222_storage)"
      },
      {
        "astId": 58231,
        "contract": "contracts/vault/OSonicVaultCore.sol:OSonicVaultCore",
        "label": "withdrawalClaimDelay",
        "offset": 0,
        "slot": "78",
        "type": "t_uint256"
      },
      {
        "astId": 58235,
        "contract": "contracts/vault/OSonicVaultCore.sol:OSonicVaultCore",
        "label": "__gap",
        "offset": 0,
        "slot": "79",
        "type": "t_array(t_uint256)44_storage"
      },
      {
        "astId": 53062,
        "contract": "contracts/vault/OSonicVaultCore.sol:OSonicVaultCore",
        "label": "wethAssetIndex",
        "offset": 0,
        "slot": "123",
        "type": "t_uint256"
      },
      {
        "astId": 53066,
        "contract": "contracts/vault/OSonicVaultCore.sol:OSonicVaultCore",
        "label": "__gap",
        "offset": 0,
        "slot": "124",
        "type": "t_array(t_uint256)50_storage"
      }
    ],
    "types": {
      "t_address": {
        "encoding": "inplace",
        "label": "address",
        "numberOfBytes": "20"
      },
      "t_array(t_address)dyn_storage": {
        "base": "t_address",
        "encoding": "dynamic_array",
        "label": "address[]",
        "numberOfBytes": "32"
      },
      "t_array(t_uint256)44_storage": {
        "base": "t_uint256",
        "encoding": "inplace",
        "label": "uint256[44]",
        "numberOfBytes": "1408"
      },
      "t_array(t_uint256)50_storage": {
        "base": "t_uint256",
        "encoding": "inplace",
        "label": "uint256[50]",
        "numberOfBytes": "1600"
      },
      "t_bool": {
        "encoding": "inplace",
        "label": "bool",
        "numberOfBytes": "1"
      },
      "t_contract(OUSD)48733": {
        "encoding": "inplace",
        "label": "contract OUSD",
        "numberOfBytes": "20"
      },
      "t_enum(UnitConversion)58051": {
        "encoding": "inplace",
        "label": "enum VaultStorage.UnitConversion",
        "numberOfBytes": "1"
      },
      "t_int256": {
        "encoding": "inplace",
        "label": "int256",
        "numberOfBytes": "32"
      },
      "t_mapping(t_address,t_address)": {
        "encoding": "mapping",
        "key": "t_address",
        "label": "mapping(address => address)",
        "numberOfBytes": "32",
        "value": "t_address"
      },
      "t_mapping(t_address,t_bool)": {
        "encoding": "mapping",
        "key": "t_address",
        "label": "mapping(address => bool)",
        "numberOfBytes": "32",
        "value": "t_bool"
      },
      "t_mapping(t_address,t_struct(Asset)58061_storage)": {
        "encoding": "mapping",
        "key": "t_address",
        "label": "mapping(address => struct VaultStorage.Asset)",
        "numberOfBytes": "32",
        "value": "t_struct(Asset)58061_storage"
      },
      "t_mapping(t_address,t_struct(Strategy)58076_storage)": {
        "encoding": "mapping",
        "key": "t_address",
        "label": "mapping(address => struct VaultStorage.Strategy)",
        "numberOfBytes": "32",
        "value": "t_struct(Strategy)58076_storage"
      },
      "t_mapping(t_uint256,t_struct(WithdrawalRequest)58222_storage)": {
        "encoding": "mapping",
        "key": "t_uint256",
        "label": "mapping(uint256 => struct VaultStorage.WithdrawalRequest)",
        "numberOfBytes": "32",
        "value": "t_struct(WithdrawalRequest)58222_storage"
      },
      "t_struct(Asset)58061_storage": {
        "encoding": "inplace",
        "label": "struct VaultStorage.Asset",
        "members": [
          {
            "astId": 58053,
            "contract": "contracts/vault/OSonicVaultCore.sol:OSonicVaultCore",
            "label": "isSupported",
            "offset": 0,
            "slot": "0",
            "type": "t_bool"
          },
          {
            "astId": 58056,
            "contract": "contracts/vault/OSonicVaultCore.sol:OSonicVaultCore",
            "label": "unitConversion",
            "offset": 1,
            "slot": "0",
            "type": "t_enum(UnitConversion)58051"
          },
          {
            "astId": 58058,
            "contract": "contracts/vault/OSonicVaultCore.sol:OSonicVaultCore",
            "label": "decimals",
            "offset": 2,
            "slot": "0",
            "type": "t_uint8"
          },
          {
            "astId": 58060,
            "contract": "contracts/vault/OSonicVaultCore.sol:OSonicVaultCore",
            "label": "allowedOracleSlippageBps",
            "offset": 3,
            "slot": "0",
            "type": "t_uint16"
          }
        ],
        "numberOfBytes": "32"
      },
      "t_struct(Strategy)58076_storage": {
        "encoding": "inplace",
        "label": "struct VaultStorage.Strategy",
        "members": [
          {
            "astId": 58073,
            "contract": "contracts/vault/OSonicVaultCore.sol:OSonicVaultCore",
            "label": "isSupported",
            "offset": 0,
            "slot": "0",
            "type": "t_bool"
          },
          {
            "astId": 58075,
            "contract": "contracts/vault/OSonicVaultCore.sol:OSonicVaultCore",
            "label": "_deprecated",
            "offset": 0,
            "slot": "1",
            "type": "t_uint256"
          }
        ],
        "numberOfBytes": "64"
      },
      "t_struct(SwapConfig)58180_storage": {
        "encoding": "inplace",
        "label": "struct VaultStorage.SwapConfig",
        "members": [
          {
            "astId": 58177,
            "contract": "contracts/vault/OSonicVaultCore.sol:OSonicVaultCore",
            "label": "swapper",
            "offset": 0,
            "slot": "0",
            "type": "t_address"
          },
          {
            "astId": 58179,
            "contract": "contracts/vault/OSonicVaultCore.sol:OSonicVaultCore",
            "label": "allowedUndervalueBps",
            "offset": 20,
            "slot": "0",
            "type": "t_uint16"
          }
        ],
        "numberOfBytes": "32"
      },
      "t_struct(WithdrawalQueueMetadata)58207_storage": {
        "encoding": "inplace",
        "label": "struct VaultStorage.WithdrawalQueueMetadata",
        "members": [
          {
            "astId": 58200,
            "contract": "contracts/vault/OSonicVaultCore.sol:OSonicVaultCore",
            "label": "queued",
            "offset": 0,
            "slot": "0",
            "type": "t_uint128"
          },
          {
            "astId": 58202,
            "contract": "contracts/vault/OSonicVaultCore.sol:OSonicVaultCore",
            "label": "claimable",
            "offset": 16,
            "slot": "0",
            "type": "t_uint128"
          },
          {
            "astId": 58204,
            "contract": "contracts/vault/OSonicVaultCore.sol:OSonicVaultCore",
            "label": "claimed",
            "offset": 0,
            "slot": "1",
            "type": "t_uint128"
          },
          {
            "astId": 58206,
            "contract": "contracts/vault/OSonicVaultCore.sol:OSonicVaultCore",
            "label": "nextWithdrawalIndex",
            "offset": 16,
            "slot": "1",
            "type": "t_uint128"
          }
        ],
        "numberOfBytes": "64"
      },
      "t_struct(WithdrawalRequest)58222_storage": {
        "encoding": "inplace",
        "label": "struct VaultStorage.WithdrawalRequest",
        "members": [
          {
            "astId": 58213,
            "contract": "contracts/vault/OSonicVaultCore.sol:OSonicVaultCore",
            "label": "withdrawer",
            "offset": 0,
            "slot": "0",
            "type": "t_address"
          },
          {
            "astId": 58215,
            "contract": "contracts/vault/OSonicVaultCore.sol:OSonicVaultCore",
            "label": "claimed",
            "offset": 20,
            "slot": "0",
            "type": "t_bool"
          },
          {
            "astId": 58217,
            "contract": "contracts/vault/OSonicVaultCore.sol:OSonicVaultCore",
            "label": "timestamp",
            "offset": 21,
            "slot": "0",
            "type": "t_uint40"
          },
          {
            "astId": 58219,
            "contract": "contracts/vault/OSonicVaultCore.sol:OSonicVaultCore",
            "label": "amount",
            "offset": 0,
            "slot": "1",
            "type": "t_uint128"
          },
          {
            "astId": 58221,
            "contract": "contracts/vault/OSonicVaultCore.sol:OSonicVaultCore",
            "label": "queued",
            "offset": 16,
            "slot": "1",
            "type": "t_uint128"
          }
        ],
        "numberOfBytes": "64"
      },
      "t_uint128": {
        "encoding": "inplace",
        "label": "uint128",
        "numberOfBytes": "16"
      },
      "t_uint16": {
        "encoding": "inplace",
        "label": "uint16",
        "numberOfBytes": "2"
      },
      "t_uint256": {
        "encoding": "inplace",
        "label": "uint256",
        "numberOfBytes": "32"
      },
      "t_uint40": {
        "encoding": "inplace",
        "label": "uint40",
        "numberOfBytes": "5"
      },
      "t_uint8": {
        "encoding": "inplace",
        "label": "uint8",
        "numberOfBytes": "1"
      }
    }
  }
}