{
  "address": "0xe25A2B256ffb3AD73678d5e80DE8d2F6022fAb21",
  "abi": [
    {
      "inputs": [
        {
          "internalType": "address",
          "name": "_OS",
          "type": "address"
        },
        {
          "internalType": "address",
          "name": "_wOS",
          "type": "address"
        },
        {
          "internalType": "address",
          "name": "_vault",
          "type": "address"
        }
      ],
      "stateMutability": "nonpayable",
      "type": "constructor"
    },
    {
      "anonymous": false,
      "inputs": [
        {
          "indexed": true,
          "internalType": "address",
          "name": "minter",
          "type": "address"
        },
        {
          "indexed": true,
          "internalType": "address",
          "name": "asset",
          "type": "address"
        },
        {
          "indexed": false,
          "internalType": "uint256",
          "name": "amount",
          "type": "uint256"
        }
      ],
      "name": "Zap",
      "type": "event"
    },
    {
      "inputs": [],
      "name": "OS",
      "outputs": [
        {
          "internalType": "contract IERC20",
          "name": "",
          "type": "address"
        }
      ],
      "stateMutability": "view",
      "type": "function"
    },
    {
      "inputs": [],
      "name": "deposit",
      "outputs": [
        {
          "internalType": "uint256",
          "name": "",
          "type": "uint256"
        }
      ],
      "stateMutability": "payable",
      "type": "function"
    },
    {
      "inputs": [
        {
          "internalType": "uint256",
          "name": "minReceived",
          "type": "uint256"
        }
      ],
      "name": "depositSForWrappedTokens",
      "outputs": [
        {
          "internalType": "uint256",
          "name": "",
          "type": "uint256"
        }
      ],
      "stateMutability": "payable",
      "type": "function"
    },
    {
      "inputs": [
        {
          "internalType": "uint256",
          "name": "wSAmount",
          "type": "uint256"
        },
        {
          "internalType": "uint256",
          "name": "minReceived",
          "type": "uint256"
        }
      ],
      "name": "depositWSForWrappedTokens",
      "outputs": [
        {
          "internalType": "uint256",
          "name": "",
          "type": "uint256"
        }
      ],
      "stateMutability": "nonpayable",
      "type": "function"
    },
    {
      "inputs": [],
      "name": "vault",
      "outputs": [
        {
          "internalType": "contract IVault",
          "name": "",
          "type": "address"
        }
      ],
      "stateMutability": "view",
      "type": "function"
    },
    {
      "inputs": [],
      "name": "wOS",
      "outputs": [
        {
          "internalType": "contract IERC4626",
          "name": "",
          "type": "address"
        }
      ],
      "stateMutability": "view",
      "type": "function"
    },
    {
      "inputs": [],
      "name": "wS",
      "outputs": [
        {
          "internalType": "contract IWrappedSonic",
          "name": "",
          "type": "address"
        }
      ],
      "stateMutability": "view",
      "type": "function"
    },
    {
      "stateMutability": "payable",
      "type": "receive"
    }
  ],
  "transactionHash": "0x65ec03638a20836e9be3eb33d19a64679c93a76cbb93be46345105b606b44c4b",
  "args": [
    "0xb1e25689D55734FD3ffFc939c4C3Eb52DFf8A794",
    "0x9F0dF7799f6FDAd409300080cfF680f5A23df4b1",
    "0xa3c0eCA00D2B76b4d1F170b0AB3FdeA16C180186"
  ],
  "numDeployments": 1,
  "solcInputHash": "948eecc0ec79eb2dc715ae4f9ad789c7",
  "bytecode": "0x60e060405234801561001057600080fd5b50604051610b15380380610b1583398101604081905261002f91610163565b6001600160a01b0383811660805282811660a052811660c081905260405163095ea7b360e01b81526004810191909152600019602482015273039e2fb66102314ce7b64ce5ce3e5183bc94ad389063095ea7b3906044016020604051808303816000875af11580156100a5573d6000803e3d6000fd5b505050506040513d601f19601f820116820180604052508101906100c991906101a6565b5060405163095ea7b360e01b81526001600160a01b038381166004830152600019602483015284169063095ea7b3906044016020604051808303816000875af115801561011a573d6000803e3d6000fd5b505050506040513d601f19601f8201168201806040525081019061013e91906101a6565b505050506101cf565b80516001600160a01b038116811461015e57600080fd5b919050565b60008060006060848603121561017857600080fd5b61018184610147565b925061018f60208501610147565b915061019d60408501610147565b90509250925092565b6000602082840312156101b857600080fd5b815180151581146101c857600080fd5b9392505050565b60805160a05160c0516108f561022060003960008181610190015261064e01526000818161015c01528181610380015261050d015260008181609a015281816106c9015261079501526108f56000f3fe6080604052600436106100745760003560e01c8063bf7e14d91161004e578063bf7e14d91461011a578063d0e30db014610142578063e4ff1c841461014a578063fbfa77cf1461017e57600080fd5b806301e0d330146100885780632277c97c146100d957806368b13c9f1461010757600080fd5b36610083576100816101b2565b005b600080fd5b34801561009457600080fd5b506100bc7f000000000000000000000000000000000000000000000000000000000000000081565b6040516001600160a01b0390911681526020015b60405180910390f35b3480156100e557600080fd5b506100f96100f436600461080b565b610279565b6040519081526020016100d0565b6100f961011536600461082d565b610420565b34801561012657600080fd5b506100bc73039e2fb66102314ce7b64ce5ce3e5183bc94ad3881565b6100f96101b2565b34801561015657600080fd5b506100bc7f000000000000000000000000000000000000000000000000000000000000000081565b34801561018a57600080fd5b506100bc7f000000000000000000000000000000000000000000000000000000000000000081565b6040514780825260009173eeeeeeeeeeeeeeeeeeeeeeeeeeeeeeeeeeeeeeee9033907f9d0b99c299bdb5656c0c9db6e1886c612db5c2881760ea54ab244f6338b4ebd69060200160405180910390a373039e2fb66102314ce7b64ce5ce3e5183bc94ad386001600160a01b031663d0e30db0826040518263ffffffff1660e01b81526004016000604051808303818588803b15801561025057600080fd5b505af1158015610264573d6000803e3d6000fd5b5050505050610273813361059c565b91505090565b6040516323b872dd60e01b81523360048201523060248201526044810183905260009073039e2fb66102314ce7b64ce5ce3e5183bc94ad38906323b872dd906064016020604051808303816000875af11580156102da573d6000803e3d6000fd5b505050506040513d601f19601f820116820180604052508101906102fe9190610846565b5060405183815273039e2fb66102314ce7b64ce5ce3e5183bc94ad389033907f9d0b99c299bdb5656c0c9db6e1886c612db5c2881760ea54ab244f6338b4ebd69060200160405180910390a36000610356843061059c565b604051636e553f6560e01b8152600481018290523360248201529091506000906001600160a01b037f00000000000000000000000000000000000000000000000000000000000000001690636e553f65906044016020604051808303816000875af11580156103c9573d6000803e3d6000fd5b505050506040513d601f19601f820116820180604052508101906103ed919061086f565b9050838110156104185760405162461bcd60e51b815260040161040f90610888565b60405180910390fd5b949350505050565b6040514780825260009173eeeeeeeeeeeeeeeeeeeeeeeeeeeeeeeeeeeeeeee9033907f9d0b99c299bdb5656c0c9db6e1886c612db5c2881760ea54ab244f6338b4ebd69060200160405180910390a373039e2fb66102314ce7b64ce5ce3e5183bc94ad386001600160a01b031663d0e30db0826040518263ffffffff1660e01b81526004016000604051808303818588803b1580156104be57600080fd5b505af11580156104d2573d6000803e3d6000fd5b505050505060006104e3823061059c565b604051636e553f6560e01b8152600481018290523360248201529091506000906001600160a01b037f00000000000000000000000000000000000000000000000000000000000000001690636e553f65906044016020604051808303816000875af1158015610556573d6000803e3d6000fd5b505050506040513d601f19601f8201168201806040525081019061057a919061086f565b9050848110156104185760405162461bcd60e51b815260040161040f90610888565b6040516370a0823160e01b8152306004820152600090819073039e2fb66102314ce7b64ce5ce3e5183bc94ad38906370a0823190602401602060405180830381865afa1580156105f0573d6000803e3d6000fd5b505050506040513d601f19601f82011682018060405250810190610614919061086f565b604051630ab714fb60e11b815273039e2fb66102314ce7b64ce5ce3e5183bc94ad38600482015260248101829052604481018690529091507f00000000000000000000000000000000000000000000000000000000000000006001600160a01b03169063156e29f690606401600060405180830381600087803b15801561069a57600080fd5b505af11580156106ae573d6000803e3d6000fd5b50506040516370a0823160e01b8152306004820152600092507f00000000000000000000000000000000000000000000000000000000000000006001600160a01b031691506370a0823190602401602060405180830381865afa158015610719573d6000803e3d6000fd5b505050506040513d601f19601f8201168201806040525081019061073d919061086f565b90508481101561075f5760405162461bcd60e51b815260040161040f90610888565b6001600160a01b03841630146104185760405163a9059cbb60e01b81526001600160a01b038581166004830152602482018390527f0000000000000000000000000000000000000000000000000000000000000000169063a9059cbb906044016020604051808303816000875af11580156107de573d6000803e3d6000fd5b505050506040513d601f19601f820116820180604052508101906108029190610846565b61041857600080fd5b6000806040838503121561081e57600080fd5b50508035926020909101359150565b60006020828403121561083f57600080fd5b5035919050565b60006020828403121561085857600080fd5b8151801515811461086857600080fd5b9392505050565b60006020828403121561088157600080fd5b5051919050565b60208082526019908201527f5a61707065723a206e6f7420656e6f756768206d696e7465640000000000000060408201526060019056fea2646970667358221220f2f73f3dc3676dc0d04238908d8d6ab328e0b0929dac1b355f4014cff1ede09b64736f6c634300081c0033",
  "libraries": {},
  "devdoc": {
    "author": "Origin Protocol Inc",
    "kind": "dev",
    "methods": {
      "deposit()": {
        "details": "Deposit native S currency and receive Origin Sonic (OS) tokens in return. Will verify that the user is sent 1:1 for S.",
        "returns": {
          "_0": "Amount of Origin Sonic (OS) tokens sent to user"
        }
      },
      "depositSForWrappedTokens(uint256)": {
        "details": "Deposit S and receive Wrapped Origin Sonic (wOS) in return",
        "params": {
          "minReceived": "min amount of Wrapped Origin Sonic (wOS) to receive"
        },
        "returns": {
          "_0": "Amount of Wrapped Origin Sonic (wOS) tokens sent to user"
        }
      },
      "depositWSForWrappedTokens(uint256,uint256)": {
        "details": "Deposit Wrapped Sonic (wS) tokens and receive Wrapped Origin Sonic (wOS) tokens in return",
        "params": {
          "minReceived": "min amount of Wrapped Origin Sonic (wOS) token to receive",
          "wSAmount": "Amount of Wrapped Sonic (wS) to deposit"
        },
        "returns": {
          "_0": "Amount of Wrapped Origin Sonic (wOS) tokens sent to user"
        }
      }
    },
    "title": "Zapper for Origin Sonic (OS) tokens",
    "version": 1
  },
  "userdoc": {
    "kind": "user",
    "methods": {},
    "version": 1
  },
  "storageLayout": {
    "storage": [],
    "types": null
  }
}