{
  "address": "0x840081c97256d553A8F234D469D797B9535a3B49",
  "abi": [
    {
      "inputs": [
        {
          "internalType": "address",
          "name": "_oSonic",
          "type": "address"
        },
        {
          "internalType": "address",
          "name": "_governor",
          "type": "address"
        },
        {
          "internalType": "address",
          "name": "_centralRegistry",
          "type": "address"
        }
      ],
      "stateMutability": "nonpayable",
      "type": "constructor"
    },
    {
      "anonymous": false,
      "inputs": [
        {
          "indexed": true,
          "internalType": "address",
          "name": "previousGovernor",
          "type": "address"
        },
        {
          "indexed": true,
          "internalType": "address",
          "name": "newGovernor",
          "type": "address"
        }
      ],
      "name": "GovernorshipTransferred",
      "type": "event"
    },
    {
      "anonymous": false,
      "inputs": [
        {
          "indexed": true,
          "internalType": "address",
          "name": "previousGovernor",
          "type": "address"
        },
        {
          "indexed": true,
          "internalType": "address",
          "name": "newGovernor",
          "type": "address"
        }
      ],
      "name": "PendingGovernorshipTransfer",
      "type": "event"
    },
    {
      "inputs": [
        {
          "internalType": "address[]",
          "name": "_exclusionList",
          "type": "address[]"
        }
      ],
      "name": "bribeAll",
      "outputs": [],
      "stateMutability": "nonpayable",
      "type": "function"
    },
    {
      "inputs": [],
      "name": "centralRegistry",
      "outputs": [
        {
          "internalType": "contract IPoolBoostCentralRegistry",
          "name": "",
          "type": "address"
        }
      ],
      "stateMutability": "view",
      "type": "function"
    },
    {
      "inputs": [],
      "name": "claimGovernance",
      "outputs": [],
      "stateMutability": "nonpayable",
      "type": "function"
    },
    {
      "inputs": [
        {
          "internalType": "address",
          "name": "_bribeAddressOS",
          "type": "address"
        },
        {
          "internalType": "address",
          "name": "_bribeAddressOther",
          "type": "address"
        },
        {
          "internalType": "address",
          "name": "_ammPoolAddress",
          "type": "address"
        },
        {
          "internalType": "uint256",
          "name": "_split",
          "type": "uint256"
        },
        {
          "internalType": "uint256",
          "name": "_salt",
          "type": "uint256"
        }
      ],
      "name": "computePoolBoosterAddress",
      "outputs": [
        {
          "internalType": "address",
          "name": "",
          "type": "address"
        }
      ],
      "stateMutability": "view",
      "type": "function"
    },
    {
      "inputs": [
        {
          "internalType": "address",
          "name": "_bribeAddressOS",
          "type": "address"
        },
        {
          "internalType": "address",
          "name": "_bribeAddressOther",
          "type": "address"
        },
        {
          "internalType": "address",
          "name": "_ammPoolAddress",
          "type": "address"
        },
        {
          "internalType": "uint256",
          "name": "_split",
          "type": "uint256"
        },
        {
          "internalType": "uint256",
          "name": "_salt",
          "type": "uint256"
        }
      ],
      "name": "createPoolBoosterSwapxDouble",
      "outputs": [],
      "stateMutability": "nonpayable",
      "type": "function"
    },
    {
      "inputs": [],
      "name": "governor",
      "outputs": [
        {
          "internalType": "address",
          "name": "",
          "type": "address"
        }
      ],
      "stateMutability": "view",
      "type": "function"
    },
    {
      "inputs": [],
      "name": "isGovernor",
      "outputs": [
        {
          "internalType": "bool",
          "name": "",
          "type": "bool"
        }
      ],
      "stateMutability": "view",
      "type": "function"
    },
    {
      "inputs": [],
      "name": "oSonic",
      "outputs": [
        {
          "internalType": "address",
          "name": "",
          "type": "address"
        }
      ],
      "stateMutability": "view",
      "type": "function"
    },
    {
      "inputs": [
        {
          "internalType": "address",
          "name": "",
          "type": "address"
        }
      ],
      "name": "poolBoosterFromPool",
      "outputs": [
        {
          "internalType": "address",
          "name": "boosterAddress",
          "type": "address"
        },
        {
          "internalType": "address",
          "name": "ammPoolAddress",
          "type": "address"
        },
        {
          "internalType": "enum IPoolBoostCentralRegistry.PoolBoosterType",
          "name": "boosterType",
          "type": "uint8"
        }
      ],
      "stateMutability": "view",
      "type": "function"
    },
    {
      "inputs": [],
      "name": "poolBoosterLength",
      "outputs": [
        {
          "internalType": "uint256",
          "name": "",
          "type": "uint256"
        }
      ],
      "stateMutability": "view",
      "type": "function"
    },
    {
      "inputs": [
        {
          "internalType": "uint256",
          "name": "",
          "type": "uint256"
        }
      ],
      "name": "poolBoosters",
      "outputs": [
        {
          "internalType": "address",
          "name": "boosterAddress",
          "type": "address"
        },
        {
          "internalType": "address",
          "name": "ammPoolAddress",
          "type": "address"
        },
        {
          "internalType": "enum IPoolBoostCentralRegistry.PoolBoosterType",
          "name": "boosterType",
          "type": "uint8"
        }
      ],
      "stateMutability": "view",
      "type": "function"
    },
    {
      "inputs": [
        {
          "internalType": "address",
          "name": "_poolBoosterAddress",
          "type": "address"
        }
      ],
      "name": "removePoolBooster",
      "outputs": [],
      "stateMutability": "nonpayable",
      "type": "function"
    },
    {
      "inputs": [
        {
          "internalType": "address",
          "name": "_newGovernor",
          "type": "address"
        }
      ],
      "name": "transferGovernance",
      "outputs": [],
      "stateMutability": "nonpayable",
      "type": "function"
    },
    {
      "inputs": [],
      "name": "version",
      "outputs": [
        {
          "internalType": "uint256",
          "name": "",
          "type": "uint256"
        }
      ],
      "stateMutability": "view",
      "type": "function"
    }
  ],
  "transactionHash": "0x51088f96ba679f43ead0606e4c79455fd838e8bc546ee5f1edbf29ba7f2ae407",
  "args": [
    "0xb1e25689D55734FD3ffFc939c4C3Eb52DFf8A794",
    "0x31a91336414d3B955E494E7d485a6B06b55FC8fB",
    "0x4F3B656Aa5Fb5E708bF7B63D6ff71623eb4a218A"
  ],
  "numDeployments": 1,
  "solcInputHash": "e02839e21728de5828a3aff25ff02409",
  "bytecode": "0x60c060405234801561001057600080fd5b50604051611c31380380611c3183398101604081905261002f916101e6565b82828261004833600080516020611c1183398151915255565b600080516020611c11833981519152546040516001600160a01b03909116906000907fc7c0c772add429241571afb3805861fb3cfa2af374534088b76cdb4325a87e9a908290a36001600160a01b0383166100ea5760405162461bcd60e51b815260206004820152601660248201527f496e76616c6964206f536f6e696320616464726573730000000000000000000060448201526064015b60405180910390fd5b6001600160a01b0382166101405760405162461bcd60e51b815260206004820152601860248201527f496e76616c696420676f7665726e6f722061646472657373000000000000000060448201526064016100e1565b6001600160a01b0381166101965760405162461bcd60e51b815260206004820181905260248201527f496e76616c69642063656e7472616c207265676973747279206164647265737360448201526064016100e1565b6001600160a01b03808416608052811660a0526101bf82600080516020611c1183398151915255565b505050505050610229565b80516001600160a01b03811681146101e157600080fd5b919050565b6000806000606084860312156101fb57600080fd5b610204846101ca565b9250610212602085016101ca565b9150610220604085016101ca565b90509250925092565b60805160a0516119a761026a60003960008181610172015281816109e00152610d7f01526000818161023d0152818161044501526105dc01526119a76000f3fe608060405234801561001057600080fd5b50600436106100ea5760003560e01c8063b6eee9621161008c578063d38bfff411610066578063d38bfff4146101ff578063d517786814610212578063e24abe6314610225578063fa89f9921461023857600080fd5b8063b6eee96214610194578063c7af3352146101d4578063d3889825146101ec57600080fd5b806354fd4d50116100c857806354fd4d50146101485780635d36b19014610150578063830ca0671461015a5780638f73dcfa1461016d57600080fd5b80630c340a24146100ef578063110c1a411461011457806317c01cb314610136575b600080fd5b6100f761025f565b6040516001600160a01b0390911681526020015b60405180910390f35b610127610122366004610dfe565b61027c565b60405161010b93929190610e2d565b6000545b60405190815260200161010b565b61013a600181565b6101586102c2565b005b6100f7610168366004610e8d565b61036d565b6100f77f000000000000000000000000000000000000000000000000000000000000000081565b6101276101a2366004610ee2565b600160208190526000918252604090912080549101546001600160a01b0391821691811690600160a01b900460ff1683565b6101dc6104af565b604051901515815260200161010b565b6101586101fa366004610e8d565b6104e0565b61015861020d366004610ee2565b610652565b610158610220366004610f1a565b6106f6565b610158610233366004610ee2565b6107ee565b6100f77f000000000000000000000000000000000000000000000000000000000000000081565b60006102776000805160206119528339815191525490565b905090565b6000818154811061028c57600080fd5b6000918252602090912060029091020180546001909101546001600160a01b03918216925090811690600160a01b900460ff1683565b7f44c4d30b2eaad5130ad70c3ba6972730566f3e6359ab83e800d905c61b1c51db546001600160a01b0316336001600160a01b0316146103625760405162461bcd60e51b815260206004820152603060248201527f4f6e6c79207468652070656e64696e6720476f7665726e6f722063616e20636f60448201526f6d706c6574652074686520636c61696d60801b60648201526084015b60405180910390fd5b61036b33610a49565b565b60006001600160a01b0384166103c55760405162461bcd60e51b815260206004820152601e60248201527f496e76616c696420616d6d506f6f6c41646472657373206164647265737300006044820152606401610359565b600082116104045760405162461bcd60e51b815260206004820152600c60248201526b125b9d985b1a59081cd85b1d60a21b6044820152606401610359565b6104a56040518060200161041790610df1565b601f1982820381018352601f9091011660408181526001600160a01b038a81166020840152898116828401527f000000000000000000000000000000000000000000000000000000000000000016606083015260808083018890528151808403909101815260a08301909152610490929160c00161101a565b60405160208183030381529060405283610b0d565b9695505050505050565b60006104c76000805160206119528339815191525490565b6001600160a01b0316336001600160a01b031614905090565b6104e86104af565b6105045760405162461bcd60e51b815260040161035990611037565b6001600160a01b03831661055a5760405162461bcd60e51b815260206004820152601e60248201527f496e76616c696420616d6d506f6f6c41646472657373206164647265737300006044820152606401610359565b600081116105995760405162461bcd60e51b815260206004820152600c60248201526b125b9d985b1a59081cd85b1d60a21b6044820152606401610359565b600061063c604051806020016105ae90610df1565b601f1982820381018352601f9091011660408181526001600160a01b038a81166020840152898116828401527f000000000000000000000000000000000000000000000000000000000000000016606083015260808083018890528151808403909101815260a08301909152610627929160c00161101a565b60405160208183030381529060405283610b6c565b905061064a81856000610be8565b505050505050565b61065a6104af565b6106765760405162461bcd60e51b815260040161035990611037565b61069e817f44c4d30b2eaad5130ad70c3ba6972730566f3e6359ab83e800d905c61b1c51db55565b806001600160a01b03166106be6000805160206119528339815191525490565b6001600160a01b03167fa39cc5eb22d0f34d8beaefee8a3f17cc229c1a1d1ef87a5ad47313487b1c4f0d60405160405180910390a350565b60008054905b818110156107e95760008082815481106107185761071861106e565b6000918252602082206002909102015485516001600160a01b039091169250815b8181101561078457836001600160a01b031687828151811061075d5761075d61106e565b60200260200101516001600160a01b03160361077c5760019250610784565b600101610739565b50816107de57826001600160a01b03166337d0208c6040518163ffffffff1660e01b8152600401600060405180830381600087803b1580156107c557600080fd5b505af11580156107d9573d6000803e3d6000fd5b505050505b5050506001016106fc565b505050565b6107f66104af565b6108125760405162461bcd60e51b815260040161035990611037565b60008054905b818110156107e957826001600160a01b03166000828154811061083d5761083d61106e565b60009182526020909120600290910201546001600160a01b031603610a4157600160008083815481106108725761087261106e565b6000918252602080832060016002909302018201546001600160a01b031684528301939093526040909101812080546001600160a01b0319168155820180546001600160a81b0319169055906108c89084611084565b815481106108d8576108d861106e565b9060005260206000209060020201600082815481106108f9576108f961106e565b60009182526020909120825460029092020180546001600160a01b03199081166001600160a01b039384161782556001808501805482850180549485169190961690811786559054939460ff600160a01b95869004169490936001600160a81b03191690911791849081111561097157610971610e17565b0217905550905050600080548061098a5761098a6110a5565b6000828152602090206002600019929092019182020180546001600160a01b031916815560010180546001600160a81b03191690559055604051630702522960e01b81526001600160a01b0384811660048301527f00000000000000000000000000000000000000000000000000000000000000001690630702522990602401600060405180830381600087803b158015610a2457600080fd5b505af1158015610a38573d6000803e3d6000fd5b50505050505050565b600101610818565b6001600160a01b038116610a9f5760405162461bcd60e51b815260206004820152601a60248201527f4e657720476f7665726e6f7220697320616464726573732830290000000000006044820152606401610359565b806001600160a01b0316610abf6000805160206119528339815191525490565b6001600160a01b03167fc7c0c772add429241571afb3805861fb3cfa2af374534088b76cdb4325a87e9a60405160405180910390a3610b0a8160008051602061195283398151915255565b50565b8151602080840191909120604080516001600160f81b0319818501523060601b6bffffffffffffffffffffffff191660218201526035810185905260558082019390935281518082039093018352607501905280519101205b92915050565b6000818351602085016000f590506000816001600160a01b03163b118015610b9c57506001600160a01b03811615155b610b665760405162461bcd60e51b815260206004820152601e60248201527f4661696c6564206372656174696e67206120706f6f6c20626f6f7374657200006044820152606401610359565b60006040518060600160405280856001600160a01b03168152602001846001600160a01b03168152602001836001811115610c2557610c25610e17565b90526000805460018181018355918052825160029091027f290decd9548b62a8d60345a988386fc84ba6bc95484008f6362f93160ef3e563810180546001600160a01b039384166001600160a01b031991821617825560208601517f290decd9548b62a8d60345a988386fc84ba6bc95484008f6362f93160ef3e564909301805493909416908316811784556040860151959650869591949193926001600160a81b0319161790600160a01b908490811115610ce357610ce3610e17565b021790555050506001600160a01b03808416600090815260016020818152604092839020855181549086166001600160a01b031991821617825591860151818401805491909616928116831786559386015186959194909391926001600160a81b03199091161790600160a01b908490811115610d6257610d62610e17565b021790555050604051630b22521d60e31b81526001600160a01b037f000000000000000000000000000000000000000000000000000000000000000016915063591290e890610db990879087908790600401610e2d565b600060405180830381600087803b158015610dd357600080fd5b505af1158015610de7573d6000803e3d6000fd5b5050505050505050565b610896806110bc83390190565b600060208284031215610e1057600080fd5b5035919050565b634e487b7160e01b600052602160045260246000fd5b6001600160a01b038481168252831660208201526060810160028310610e6357634e487b7160e01b600052602160045260246000fd5b826040830152949350505050565b80356001600160a01b0381168114610e8857600080fd5b919050565b600080600080600060a08688031215610ea557600080fd5b610eae86610e71565b9450610ebc60208701610e71565b9350610eca60408701610e71565b94979396509394606081013594506080013592915050565b600060208284031215610ef457600080fd5b610efd82610e71565b9392505050565b634e487b7160e01b600052604160045260246000fd5b600060208284031215610f2c57600080fd5b813567ffffffffffffffff811115610f4357600080fd5b8201601f81018413610f5457600080fd5b803567ffffffffffffffff811115610f6e57610f6e610f04565b8060051b604051601f19603f830116810181811067ffffffffffffffff82111715610f9b57610f9b610f04565b604052918252602081840181019290810187841115610fb957600080fd5b6020850194505b83851015610fdf57610fd185610e71565b815260209485019401610fc0565b509695505050505050565b6000815160005b8181101561100b5760208185018101518683015201610ff1565b50600093019283525090919050565b600061102f6110298386610fea565b84610fea565b949350505050565b6020808252601a908201527f43616c6c6572206973206e6f742074686520476f7665726e6f72000000000000604082015260600190565b634e487b7160e01b600052603260045260246000fd5b81810381811115610b6657634e487b7160e01b600052601160045260246000fd5b634e487b7160e01b600052603160045260246000fdfe61010060405234801561001157600080fd5b5060405161089638038061089683398101604081905261003091610193565b6001600160a01b03841661008b5760405162461bcd60e51b815260206004820152601f60248201527f496e76616c6964206272696265436f6e74726163744f5320616464726573730060448201526064015b60405180910390fd5b6001600160a01b0383166100ec5760405162461bcd60e51b815260206004820152602260248201527f496e76616c6964206272696265436f6e74726163744f74686572206164647265604482015261737360f01b6064820152608401610082565b662386f26fc10000811180156101095750670dbd2fc137a3000081105b6101555760405162461bcd60e51b815260206004820152601760248201527f556e65787065637465642073706c697420616d6f756e740000000000000000006044820152606401610082565b6001600160a01b0393841660805291831660a05290911660c05260e0526101de565b80516001600160a01b038116811461018e57600080fd5b919050565b600080600080608085870312156101a957600080fd5b6101b285610177565b93506101c060208601610177565b92506101ce60408601610177565b6060959095015193969295505050565b60805160a05160c05160e05161063c61025a6000396000818161012201526101e9015260008181606c0152818161015c015281816102640152818161031a0152818161039f015261043f01526000818160d4015281816102eb015261046e01526000818160fb0152818161023201526103ce015261063c6000f3fe608060405234801561001057600080fd5b50600436106100625760003560e01c806312c587c51461006757806337d0208c146100ab5780633978033f146100b5578063840841d4146100cf578063ecdb9ea1146100f6578063f76541761461011d575b600080fd5b61008e7f000000000000000000000000000000000000000000000000000000000000000081565b6040516001600160a01b0390911681526020015b60405180910390f35b6100b3610144565b005b6100c16402540be40081565b6040519081526020016100a2565b61008e7f000000000000000000000000000000000000000000000000000000000000000081565b61008e7f000000000000000000000000000000000000000000000000000000000000000081565b6100c17f000000000000000000000000000000000000000000000000000000000000000081565b6040516370a0823160e01b81523060048201526000907f00000000000000000000000000000000000000000000000000000000000000006001600160a01b0316906370a0823190602401602060405180830381865afa1580156101ab573d6000803e3d6000fd5b505050506040513d601f19601f820116820180604052508101906101cf9190610562565b90506402540be4008110156101e15750565b600061020d827f000000000000000000000000000000000000000000000000000000000000000061050a565b9050600061021b8284610591565b60405163095ea7b360e01b81526001600160a01b037f000000000000000000000000000000000000000000000000000000000000000081166004830152602482018590529192507f00000000000000000000000000000000000000000000000000000000000000009091169063095ea7b3906044016020604051808303816000875af11580156102af573d6000803e3d6000fd5b505050506040513d601f19601f820116820180604052508101906102d391906105a4565b5060405163095ea7b360e01b81526001600160a01b037f000000000000000000000000000000000000000000000000000000000000000081166004830152602482018390527f0000000000000000000000000000000000000000000000000000000000000000169063095ea7b3906044016020604051808303816000875af1158015610363573d6000803e3d6000fd5b505050506040513d601f19601f8201168201806040525081019061038791906105a4565b5060405163b66503cf60e01b81526001600160a01b037f000000000000000000000000000000000000000000000000000000000000000081166004830152602482018490527f0000000000000000000000000000000000000000000000000000000000000000169063b66503cf90604401600060405180830381600087803b15801561041257600080fd5b505af1158015610426573d6000803e3d6000fd5b505060405163b66503cf60e01b81526001600160a01b037f000000000000000000000000000000000000000000000000000000000000000081166004830152602482018590527f000000000000000000000000000000000000000000000000000000000000000016925063b66503cf9150604401600060405180830381600087803b1580156104b457600080fd5b505af11580156104c8573d6000803e3d6000fd5b505050507f1424c3a24f9b1f30558ab0a7b48e07ce9f7d85b293a69a90356e1478504232eb836040516104fd91815260200190565b60405180910390a1505050565b600061051f8383670de0b6b3a7640000610528565b90505b92915050565b600080610535858561054a565b90506105418184610556565b95945050505050565b600061051f82846105cd565b600061051f82846105e4565b60006020828403121561057457600080fd5b5051919050565b634e487b7160e01b600052601160045260246000fd5b818103818111156105225761052261057b565b6000602082840312156105b657600080fd5b815180151581146105c657600080fd5b9392505050565b80820281158282048414176105225761052261057b565b60008261060157634e487b7160e01b600052601260045260246000fd5b50049056fea26469706673582212206eefe34c590c18a5dcc0b5061823b4ffe2e78139379aedb27e105441fa9f043664736f6c634300081c00337bea13895fa79d2831e0a9e28edede30099005a50d652d8957cf8a607ee6ca4aa2646970667358221220f15eb021b699116e5593bb0e1d793f2bb77906cf06bb831e2e1e2a1b3867c26464736f6c634300081c00337bea13895fa79d2831e0a9e28edede30099005a50d652d8957cf8a607ee6ca4a",
  "libraries": {},
  "devdoc": {
    "author": "Origin Protocol Inc",
    "kind": "dev",
    "methods": {
      "bribeAll(address[])": {
        "params": {
          "_exclusionList": "A list of pool booster addresses to skip when        calling this function."
        }
      },
      "computePoolBoosterAddress(address,address,address,uint256,uint256)": {
        "details": "Compute the address of the pool booster to be deployed.",
        "params": {
          "_ammPoolAddress": "address of the AMM pool where the yield originates from",
          "_bribeAddressOS": "address of the Bribes.sol(Bribe) contract for the OS token side",
          "_bribeAddressOther": "address of the Bribes.sol(Bribe) contract for the other token in the pool",
          "_salt": "A unique number that affects the address of the pool booster created. Note: this number        should match the one from `createPoolBoosterSwapxDouble` in order for the final deployed address        and pre-computed address to match",
          "_split": "1e18 denominated split between OS and Other bribe. E.g. 0.4e17 means 40% to OS        bribe contract and 60% to other bribe contract"
        }
      },
      "createPoolBoosterSwapxDouble(address,address,address,uint256,uint256)": {
        "details": "Create a Pool Booster for SwapX Ichi vault based pool where 2 Bribe contracts need to be      bribed",
        "params": {
          "_ammPoolAddress": "address of the AMM pool where the yield originates from",
          "_bribeAddressOS": "address of the Bribes.sol(Bribe) contract for the OS token side",
          "_bribeAddressOther": "address of the Bribes.sol(Bribe) contract for the other token in the pool",
          "_salt": "A unique number that affects the address of the pool booster created. Note: this number        should match the one from `computePoolBoosterAddress` in order for the final deployed address        and pre-computed address to match",
          "_split": "1e18 denominated split between OS and Other bribe. E.g. 0.4e17 means 40% to OS        bribe contract and 60% to other bribe contract"
        }
      },
      "removePoolBooster(address)": {
        "details": "This action does not destroy the pool booster contract nor does it      stop the yield delegation to it.",
        "params": {
          "_poolBoosterAddress": "address of the pool booster"
        }
      },
      "transferGovernance(address)": {
        "params": {
          "_newGovernor": "Address of the new Governor"
        }
      }
    },
    "title": "Pool booster factory for creating Swapx Ichi pool boosters where both of the        gauges need incentivizing.",
    "version": 1
  },
  "userdoc": {
    "kind": "user",
    "methods": {
      "bribeAll(address[])": {
        "notice": "Goes over all the pool boosters created by this factory and         calls bribe() on them."
      },
      "claimGovernance()": {
        "notice": "Claim Governance of the contract to a new account (`newGovernor`). Can only be called by the new Governor."
      },
      "governor()": {
        "notice": "Returns the address of the current Governor."
      },
      "isGovernor()": {
        "notice": "Returns true if the caller is the current Governor."
      },
      "removePoolBooster(address)": {
        "notice": "Removes the pool booster from the internal list of pool boosters."
      },
      "transferGovernance(address)": {
        "notice": "Transfers Governance of the contract to a new account (`newGovernor`). Can only be called by the current Governor. Must be claimed for this to complete"
      }
    },
    "version": 1
  },
  "storageLayout": {
    "storage": [
      {
        "astId": 28209,
        "contract": "contracts/poolBooster/PoolBoosterFactorySwapxDouble.sol:PoolBoosterFactorySwapxDouble",
        "label": "poolBoosters",
        "offset": 0,
        "slot": "0",
        "type": "t_array(t_struct(PoolBoosterEntry)28200_storage)dyn_storage"
      },
      {
        "astId": 28214,
        "contract": "contracts/poolBooster/PoolBoosterFactorySwapxDouble.sol:PoolBoosterFactorySwapxDouble",
        "label": "poolBoosterFromPool",
        "offset": 0,
        "slot": "1",
        "type": "t_mapping(t_address,t_struct(PoolBoosterEntry)28200_storage)"
      }
    ],
    "types": {
      "t_address": {
        "encoding": "inplace",
        "label": "address",
        "numberOfBytes": "20"
      },
      "t_array(t_struct(PoolBoosterEntry)28200_storage)dyn_storage": {
        "base": "t_struct(PoolBoosterEntry)28200_storage",
        "encoding": "dynamic_array",
        "label": "struct AbstractPoolBoosterFactory.PoolBoosterEntry[]",
        "numberOfBytes": "32"
      },
      "t_enum(PoolBoosterType)17486": {
        "encoding": "inplace",
        "label": "enum IPoolBoostCentralRegistry.PoolBoosterType",
        "numberOfBytes": "1"
      },
      "t_mapping(t_address,t_struct(PoolBoosterEntry)28200_storage)": {
        "encoding": "mapping",
        "key": "t_address",
        "label": "mapping(address => struct AbstractPoolBoosterFactory.PoolBoosterEntry)",
        "numberOfBytes": "32",
        "value": "t_struct(PoolBoosterEntry)28200_storage"
      },
      "t_struct(PoolBoosterEntry)28200_storage": {
        "encoding": "inplace",
        "label": "struct AbstractPoolBoosterFactory.PoolBoosterEntry",
        "members": [
          {
            "astId": 28194,
            "contract": "contracts/poolBooster/PoolBoosterFactorySwapxDouble.sol:PoolBoosterFactorySwapxDouble",
            "label": "boosterAddress",
            "offset": 0,
            "slot": "0",
            "type": "t_address"
          },
          {
            "astId": 28196,
            "contract": "contracts/poolBooster/PoolBoosterFactorySwapxDouble.sol:PoolBoosterFactorySwapxDouble",
            "label": "ammPoolAddress",
            "offset": 0,
            "slot": "1",
            "type": "t_address"
          },
          {
            "astId": 28199,
            "contract": "contracts/poolBooster/PoolBoosterFactorySwapxDouble.sol:PoolBoosterFactorySwapxDouble",
            "label": "boosterType",
            "offset": 20,
            "slot": "1",
            "type": "t_enum(PoolBoosterType)17486"
          }
        ],
        "numberOfBytes": "64"
      }
    }
  }
}