{
  "address": "0x406C9317a58B5827A64176d06AeB68ed0B5B5B1e",
  "abi": [
    {
      "inputs": [
        {
          "internalType": "address",
          "name": "_oSonic",
          "type": "address"
        },
        {
          "internalType": "address",
          "name": "_governor",
          "type": "address"
        },
        {
          "internalType": "address",
          "name": "_centralRegistry",
          "type": "address"
        },
        {
          "internalType": "address",
          "name": "_rewardFactory",
          "type": "address"
        },
        {
          "internalType": "address",
          "name": "_voter",
          "type": "address"
        }
      ],
      "stateMutability": "nonpayable",
      "type": "constructor"
    },
    {
      "anonymous": false,
      "inputs": [
        {
          "indexed": true,
          "internalType": "address",
          "name": "previousGovernor",
          "type": "address"
        },
        {
          "indexed": true,
          "internalType": "address",
          "name": "newGovernor",
          "type": "address"
        }
      ],
      "name": "GovernorshipTransferred",
      "type": "event"
    },
    {
      "anonymous": false,
      "inputs": [
        {
          "indexed": true,
          "internalType": "address",
          "name": "previousGovernor",
          "type": "address"
        },
        {
          "indexed": true,
          "internalType": "address",
          "name": "newGovernor",
          "type": "address"
        }
      ],
      "name": "PendingGovernorshipTransfer",
      "type": "event"
    },
    {
      "inputs": [
        {
          "internalType": "address[]",
          "name": "_exclusionList",
          "type": "address[]"
        }
      ],
      "name": "bribeAll",
      "outputs": [],
      "stateMutability": "nonpayable",
      "type": "function"
    },
    {
      "inputs": [],
      "name": "centralRegistry",
      "outputs": [
        {
          "internalType": "contract IPoolBoostCentralRegistry",
          "name": "",
          "type": "address"
        }
      ],
      "stateMutability": "view",
      "type": "function"
    },
    {
      "inputs": [],
      "name": "claimGovernance",
      "outputs": [],
      "stateMutability": "nonpayable",
      "type": "function"
    },
    {
      "inputs": [
        {
          "internalType": "address",
          "name": "_ammPoolAddress",
          "type": "address"
        },
        {
          "internalType": "uint256",
          "name": "_salt",
          "type": "uint256"
        }
      ],
      "name": "computePoolBoosterAddress",
      "outputs": [
        {
          "internalType": "address",
          "name": "",
          "type": "address"
        }
      ],
      "stateMutability": "view",
      "type": "function"
    },
    {
      "inputs": [
        {
          "internalType": "address",
          "name": "_ammPoolAddress",
          "type": "address"
        },
        {
          "internalType": "uint256",
          "name": "_salt",
          "type": "uint256"
        }
      ],
      "name": "createPoolBoosterMetropolis",
      "outputs": [],
      "stateMutability": "nonpayable",
      "type": "function"
    },
    {
      "inputs": [],
      "name": "governor",
      "outputs": [
        {
          "internalType": "address",
          "name": "",
          "type": "address"
        }
      ],
      "stateMutability": "view",
      "type": "function"
    },
    {
      "inputs": [],
      "name": "isGovernor",
      "outputs": [
        {
          "internalType": "bool",
          "name": "",
          "type": "bool"
        }
      ],
      "stateMutability": "view",
      "type": "function"
    },
    {
      "inputs": [],
      "name": "oSonic",
      "outputs": [
        {
          "internalType": "address",
          "name": "",
          "type": "address"
        }
      ],
      "stateMutability": "view",
      "type": "function"
    },
    {
      "inputs": [
        {
          "internalType": "address",
          "name": "",
          "type": "address"
        }
      ],
      "name": "poolBoosterFromPool",
      "outputs": [
        {
          "internalType": "address",
          "name": "boosterAddress",
          "type": "address"
        },
        {
          "internalType": "address",
          "name": "ammPoolAddress",
          "type": "address"
        },
        {
          "internalType": "enum IPoolBoostCentralRegistry.PoolBoosterType",
          "name": "boosterType",
          "type": "uint8"
        }
      ],
      "stateMutability": "view",
      "type": "function"
    },
    {
      "inputs": [],
      "name": "poolBoosterLength",
      "outputs": [
        {
          "internalType": "uint256",
          "name": "",
          "type": "uint256"
        }
      ],
      "stateMutability": "view",
      "type": "function"
    },
    {
      "inputs": [
        {
          "internalType": "uint256",
          "name": "",
          "type": "uint256"
        }
      ],
      "name": "poolBoosters",
      "outputs": [
        {
          "internalType": "address",
          "name": "boosterAddress",
          "type": "address"
        },
        {
          "internalType": "address",
          "name": "ammPoolAddress",
          "type": "address"
        },
        {
          "internalType": "enum IPoolBoostCentralRegistry.PoolBoosterType",
          "name": "boosterType",
          "type": "uint8"
        }
      ],
      "stateMutability": "view",
      "type": "function"
    },
    {
      "inputs": [
        {
          "internalType": "address",
          "name": "_poolBoosterAddress",
          "type": "address"
        }
      ],
      "name": "removePoolBooster",
      "outputs": [],
      "stateMutability": "nonpayable",
      "type": "function"
    },
    {
      "inputs": [],
      "name": "rewardFactory",
      "outputs": [
        {
          "internalType": "address",
          "name": "",
          "type": "address"
        }
      ],
      "stateMutability": "view",
      "type": "function"
    },
    {
      "inputs": [
        {
          "internalType": "address",
          "name": "_newGovernor",
          "type": "address"
        }
      ],
      "name": "transferGovernance",
      "outputs": [],
      "stateMutability": "nonpayable",
      "type": "function"
    },
    {
      "inputs": [],
      "name": "version",
      "outputs": [
        {
          "internalType": "uint256",
          "name": "",
          "type": "uint256"
        }
      ],
      "stateMutability": "view",
      "type": "function"
    },
    {
      "inputs": [],
      "name": "voter",
      "outputs": [
        {
          "internalType": "address",
          "name": "",
          "type": "address"
        }
      ],
      "stateMutability": "view",
      "type": "function"
    }
  ],
  "transactionHash": "0x093a2f098130c67a5bd32f76c89f13934baf040278af63133bf2f50c893d9f42",
  "args": [
    "0xb1e25689D55734FD3ffFc939c4C3Eb52DFf8A794",
    "0x31a91336414d3B955E494E7d485a6B06b55FC8fB",
    "0x4F3B656Aa5Fb5E708bF7B63D6ff71623eb4a218A",
    "0xd9db92613867FE0d290CE64Fe737E2F8B80CADc3",
    "0x03A9896A464C515d13f2679df337bF95bc891fdA"
  ],
  "numDeployments": 1,
  "solcInputHash": "8f8cde0d4f114ce913815df8ad8c422f",
  "bytecode": "0x61010060405234801561001157600080fd5b50604051611c7c380380611c7c833981016040819052610030916101f7565b8484846001600160a01b03831661008e5760405162461bcd60e51b815260206004820152601660248201527f496e76616c6964206f536f6e696320616464726573730000000000000000000060448201526064015b60405180910390fd5b6001600160a01b0382166100e45760405162461bcd60e51b815260206004820152601860248201527f496e76616c696420676f7665726e6f72206164647265737300000000000000006044820152606401610085565b6001600160a01b03811661013a5760405162461bcd60e51b815260206004820181905260248201527f496e76616c69642063656e7472616c20726567697374727920616464726573736044820152606401610085565b6001600160a01b03808416608052811660a05261015682610174565b5050506001600160a01b0391821660c0521660e0525061025c915050565b6001600160a01b038116610194600080516020611c5c8339815191525490565b6001600160a01b03167fc7c0c772add429241571afb3805861fb3cfa2af374534088b76cdb4325a87e9a60405160405180910390a3600080516020611c5c83398151915255565b80516001600160a01b03811681146101f257600080fd5b919050565b600080600080600060a0868803121561020f57600080fd5b610218866101db565b9450610226602087016101db565b9350610234604087016101db565b9250610242606087016101db565b9150610250608087016101db565b90509295509295909350565b60805160a05160c05160e05161198f6102cd6000396000818161018a015281816104f501526106f3015260008181610163015281816104c301526106c10152600081816101c301528181610b1c0152610df60152600081816102a10152818161049b0152610699015261198f6000f3fe608060405234801561001057600080fd5b50600436106101005760003560e01c8063b6eee96211610097578063d38bfff411610066578063d38bfff414610263578063d517786814610276578063e24abe6314610289578063fa89f9921461029c57600080fd5b8063b6eee962146101e5578063b73f8e4114610225578063be08982414610238578063c7af33521461024b57600080fd5b806346c96aac116100d357806346c96aac1461018557806354fd4d50146101ac5780635d36b190146101b45780638f73dcfa146101be57600080fd5b80630c340a2414610105578063110c1a411461012a57806317c01cb31461014c578063245e4bf01461015e575b600080fd5b61010d6102c3565b6040516001600160a01b0390911681526020015b60405180910390f35b61013d610138366004610edc565b6102e0565b60405161012193929190610f0b565b6000545b604051908152602001610121565b61010d7f000000000000000000000000000000000000000000000000000000000000000081565b61010d7f000000000000000000000000000000000000000000000000000000000000000081565b610150600181565b6101bc610326565b005b61010d7f000000000000000000000000000000000000000000000000000000000000000081565b61013d6101f3366004610f6b565b600160208190526000918252604090912080549101546001600160a01b0391821691811690600160a01b900460ff1683565b61010d610233366004610f86565b6103d1565b6101bc610246366004610f86565b6105ab565b610253610761565b6040519015158152602001610121565b6101bc610271366004610f6b565b610792565b6101bc610284366004610fc6565b610836565b6101bc610297366004610f6b565b610929565b61010d7f000000000000000000000000000000000000000000000000000000000000000081565b60006102db60008051602061193a8339815191525490565b905090565b600081815481106102f057600080fd5b6000918252602090912060029091020180546001909101546001600160a01b03918216925090811690600160a01b900460ff1683565b7f44c4d30b2eaad5130ad70c3ba6972730566f3e6359ab83e800d905c61b1c51db546001600160a01b0316336001600160a01b0316146103c65760405162461bcd60e51b815260206004820152603060248201527f4f6e6c79207468652070656e64696e6720476f7665726e6f722063616e20636f60448201526f6d706c6574652074686520636c61696d60801b60648201526084015b60405180910390fd5b6103cf33610b85565b565b60006001600160a01b0383166104295760405162461bcd60e51b815260206004820152601e60248201527f496e76616c696420616d6d506f6f6c416464726573732061646472657373000060448201526064016103bd565b600082116104685760405162461bcd60e51b815260206004820152600c60248201526b125b9d985b1a59081cd85b1d60a21b60448201526064016103bd565b6105a26040518060200161047b90610ecf565b818103601f199081018352601f9091011660408181526001600160a01b037f0000000000000000000000000000000000000000000000000000000000000000811660208401527f000000000000000000000000000000000000000000000000000000000000000081169183019190915280871660608301527f000000000000000000000000000000000000000000000000000000000000000016608082015260a00160408051601f198184030181529082905261053b92916020016110c6565b60408051601f1981840301815282825280516020918201206001600160f81b0319848301526bffffffffffffffffffffffff193060601b16602185015260358401879052605580850191909152825180850390910181526075909301909152815191012090565b90505b92915050565b6105b3610761565b6105cf5760405162461bcd60e51b81526004016103bd906110e3565b6001600160a01b0382166106255760405162461bcd60e51b815260206004820152601e60248201527f496e76616c696420616d6d506f6f6c416464726573732061646472657373000060448201526064016103bd565b600081116106645760405162461bcd60e51b815260206004820152600c60248201526b125b9d985b1a59081cd85b1d60a21b60448201526064016103bd565b600061074e6040518060200161067990610ecf565b818103601f199081018352601f9091011660408181526001600160a01b037f0000000000000000000000000000000000000000000000000000000000000000811660208401527f000000000000000000000000000000000000000000000000000000000000000081169183019190915280871660608301527f000000000000000000000000000000000000000000000000000000000000000016608082015260a00160408051601f198184030181529082905261073992916020016110c6565b60405160208183030381529060405283610be7565b905061075c81846002610c63565b505050565b600061077960008051602061193a8339815191525490565b6001600160a01b0316336001600160a01b031614905090565b61079a610761565b6107b65760405162461bcd60e51b81526004016103bd906110e3565b6107de817f44c4d30b2eaad5130ad70c3ba6972730566f3e6359ab83e800d905c61b1c51db55565b806001600160a01b03166107fe60008051602061193a8339815191525490565b6001600160a01b03167fa39cc5eb22d0f34d8beaefee8a3f17cc229c1a1d1ef87a5ad47313487b1c4f0d60405160405180910390a350565b60008054905b8181101561075c5760008082815481106108585761085861111a565b6000918252602082206002909102015485516001600160a01b039091169250815b818110156108c457836001600160a01b031687828151811061089d5761089d61111a565b60200260200101516001600160a01b0316036108bc57600192506108c4565b600101610879565b508161091e57826001600160a01b03166337d0208c6040518163ffffffff1660e01b8152600401600060405180830381600087803b15801561090557600080fd5b505af1158015610919573d6000803e3d6000fd5b505050505b50505060010161083c565b610931610761565b61094d5760405162461bcd60e51b81526004016103bd906110e3565b60008054905b8181101561075c57826001600160a01b0316600082815481106109785761097861111a565b60009182526020909120600290910201546001600160a01b031603610b7d57600160008083815481106109ad576109ad61111a565b6000918252602080832060016002909302018201546001600160a01b031684528301939093526040909101812080546001600160a01b0319168155820180546001600160a81b031916905590610a039084611130565b81548110610a1357610a1361111a565b906000526020600020906002020160008281548110610a3457610a3461111a565b600091825260209091208254600292830290910180546001600160a01b039283166001600160a01b03199182161782556001808601805491840180549290951692821683178555549294600160a01b9384900460ff1694936001600160a81b0319909216909217918490811115610aad57610aad610ef5565b02179055509050506000805480610ac657610ac6611151565b6000828152602090206002600019929092019182020180546001600160a01b031916815560010180546001600160a81b03191690559055604051630702522960e01b81526001600160a01b0384811660048301527f00000000000000000000000000000000000000000000000000000000000000001690630702522990602401600060405180830381600087803b158015610b6057600080fd5b505af1158015610b74573d6000803e3d6000fd5b50505050505050565b600101610953565b6001600160a01b038116610bdb5760405162461bcd60e51b815260206004820152601a60248201527f4e657720476f7665726e6f72206973206164647265737328302900000000000060448201526064016103bd565b610be481610e68565b50565b6000818351602085016000f590506000816001600160a01b03163b118015610c1757506001600160a01b03811615155b6105a55760405162461bcd60e51b815260206004820152601e60248201527f4661696c6564206372656174696e67206120706f6f6c20626f6f73746572000060448201526064016103bd565b60006040518060600160405280856001600160a01b03168152602001846001600160a01b03168152602001836002811115610ca057610ca0610ef5565b905260008054600181018255908052815160029182027f290decd9548b62a8d60345a988386fc84ba6bc95484008f6362f93160ef3e563810180546001600160a01b039384166001600160a01b031991821617825560208601517f290decd9548b62a8d60345a988386fc84ba6bc95484008f6362f93160ef3e564909301805493909416908316811784556040860151959650869591949193926001600160a81b0319161790600160a01b908490811115610d5d57610d5d610ef5565b021790555050506001600160a01b03808416600090815260016020818152604092839020855181549086166001600160a01b03199182161782559186015192810180549390951691831682178555928501518594909290916001600160a81b031990911617600160a01b836002811115610dd957610dd9610ef5565b021790555050604051630b22521d60e31b81526001600160a01b037f000000000000000000000000000000000000000000000000000000000000000016915063591290e890610e3090879087908790600401610f0b565b600060405180830381600087803b158015610e4a57600080fd5b505af1158015610e5e573d6000803e3d6000fd5b5050505050505050565b806001600160a01b0316610e8860008051602061193a8339815191525490565b6001600160a01b03167fc7c0c772add429241571afb3805861fb3cfa2af374534088b76cdb4325a87e9a60405160405180910390a360008051602061193a83398151915255565b6107d28061116883390190565b600060208284031215610eee57600080fd5b5035919050565b634e487b7160e01b600052602160045260246000fd5b6001600160a01b038481168252831660208201526060810160038310610f4157634e487b7160e01b600052602160045260246000fd5b826040830152949350505050565b80356001600160a01b0381168114610f6657600080fd5b919050565b600060208284031215610f7d57600080fd5b6105a282610f4f565b60008060408385031215610f9957600080fd5b610fa283610f4f565b946020939093013593505050565b634e487b7160e01b600052604160045260246000fd5b600060208284031215610fd857600080fd5b813567ffffffffffffffff811115610fef57600080fd5b8201601f8101841361100057600080fd5b803567ffffffffffffffff81111561101a5761101a610fb0565b8060051b604051601f19603f830116810181811067ffffffffffffffff8211171561104757611047610fb0565b60405291825260208184018101929081018784111561106557600080fd5b6020850194505b8385101561108b5761107d85610f4f565b81526020948501940161106c565b509695505050505050565b6000815160005b818110156110b7576020818501810151868301520161109d565b50600093019283525090919050565b60006110db6110d58386611096565b84611096565b949350505050565b6020808252601a908201527f43616c6c6572206973206e6f742074686520476f7665726e6f72000000000000604082015260600190565b634e487b7160e01b600052603260045260246000fd5b818103818111156105a557634e487b7160e01b600052601160045260246000fd5b634e487b7160e01b600052603160045260246000fdfe61010060405234801561001157600080fd5b506040516107d23803806107d2833981016040819052610030916100c9565b6001600160a01b03821661008a5760405162461bcd60e51b815260206004820152601460248201527f496e76616c696420706f6f6c2061646472657373000000000000000000000000604482015260640160405180910390fd5b6001600160a01b0391821660a05292811660805290811660c0521660e05261011d565b80516001600160a01b03811681146100c457600080fd5b919050565b600080600080608085870312156100df57600080fd5b6100e8856100ad565b93506100f6602086016100ad565b9250610104604086016100ad565b9150610112606086016100ad565b905092959194509250565b60805160a05160c05160e05161064761018b6000396000818161012201526102a001526000818160d701528181610214015261039801526000818160b0015261036a015260008181606c0152818161015c015281816101e601528181610342015261042e01526106476000f3fe608060405234801561001057600080fd5b50600436106100625760003560e01c806312c587c51461006757806316f0115b146100ab578063245e4bf0146100d257806337d0208c146100f95780633978033f1461010357806346c96aac1461011d575b600080fd5b61008e7f000000000000000000000000000000000000000000000000000000000000000081565b6040516001600160a01b0390911681526020015b60405180910390f35b61008e7f000000000000000000000000000000000000000000000000000000000000000081565b61008e7f000000000000000000000000000000000000000000000000000000000000000081565b610101610144565b005b61010f6402540be40081565b6040519081526020016100a2565b61008e7f000000000000000000000000000000000000000000000000000000000000000081565b6040516370a0823160e01b81523060048201526000907f00000000000000000000000000000000000000000000000000000000000000006001600160a01b0316906370a0823190602401602060405180830381865afa1580156101ab573d6000803e3d6000fd5b505050506040513d601f19601f820116820180604052508101906101cf9190610545565b60405163050fa72960e51b81526001600160a01b037f0000000000000000000000000000000000000000000000000000000000000000811660048301529192506000917f0000000000000000000000000000000000000000000000000000000000000000169063a1f4e520906024016040805180830381865afa15801561025a573d6000803e3d6000fd5b505050506040513d601f19601f8201168201806040525081019061027e9190610573565b9150506402540be40082108061029357508082105b1561029c575050565b60007f00000000000000000000000000000000000000000000000000000000000000006001600160a01b031663ae40bc796040518163ffffffff1660e01b8152600401602060405180830381865afa1580156102fc573d6000803e3d6000fd5b505050506040513d601f19601f820116820180604052508101906103209190610545565b61032b90600161059f565b6040516354cb24bd60e11b81526001600160a01b037f0000000000000000000000000000000000000000000000000000000000000000811660048301527f0000000000000000000000000000000000000000000000000000000000000000811660248301529192506000917f0000000000000000000000000000000000000000000000000000000000000000169063a996497a906044016020604051808303816000875af11580156103e1573d6000803e3d6000fd5b505050506040513d601f19601f8201168201806040525081019061040591906105c6565b60405163095ea7b360e01b81526001600160a01b038083166004830152602482018790529192507f00000000000000000000000000000000000000000000000000000000000000009091169063095ea7b3906044016020604051808303816000875af1158015610479573d6000803e3d6000fd5b505050506040513d601f19601f8201168201806040525081019061049d91906105f6565b5060405163de39030b60e01b81526004810183905260248101839052604481018590526001600160a01b0382169063de39030b90606401600060405180830381600087803b1580156104ee57600080fd5b505af1158015610502573d6000803e3d6000fd5b505050507f1424c3a24f9b1f30558ab0a7b48e07ce9f7d85b293a69a90356e1478504232eb8460405161053791815260200190565b60405180910390a150505050565b60006020828403121561055757600080fd5b5051919050565b8051801515811461056e57600080fd5b919050565b6000806040838503121561058657600080fd5b61058f8361055e565b6020939093015192949293505050565b808201808211156105c057634e487b7160e01b600052601160045260246000fd5b92915050565b6000602082840312156105d857600080fd5b81516001600160a01b03811681146105ef57600080fd5b9392505050565b60006020828403121561060857600080fd5b6105ef8261055e56fea26469706673582212203c154f1256d38ec0d400bb44c0b687f0c001b38f37c453f9be5d0482a5da9ff664736f6c634300081c00337bea13895fa79d2831e0a9e28edede30099005a50d652d8957cf8a607ee6ca4aa2646970667358221220c62bb6b16fe9c7ed232d6cecd5d009344d7fdc1e942b8f4693f58226e4e8a04364736f6c634300081c00337bea13895fa79d2831e0a9e28edede30099005a50d652d8957cf8a607ee6ca4a",
  "libraries": {},
  "devdoc": {
    "author": "Origin Protocol Inc",
    "kind": "dev",
    "methods": {
      "bribeAll(address[])": {
        "params": {
          "_exclusionList": "A list of pool booster addresses to skip when        calling this function."
        }
      },
      "computePoolBoosterAddress(address,uint256)": {
        "details": "Create a Pool Booster for Metropolis pool.",
        "params": {
          "_ammPoolAddress": "address of the AMM pool where the yield originates from",
          "_salt": "A unique number that affects the address of the pool booster created. Note: this number        should match the one from `createPoolBoosterMetropolis` in order for the final deployed address        and pre-computed address to match"
        }
      },
      "createPoolBoosterMetropolis(address,uint256)": {
        "details": "Create a Pool Booster for Metropolis pool.",
        "params": {
          "_ammPoolAddress": "address of the AMM pool where the yield originates from",
          "_salt": "A unique number that affects the address of the pool booster created. Note: this number        should match the one from `computePoolBoosterAddress` in order for the final deployed address        and pre-computed address to match"
        }
      },
      "removePoolBooster(address)": {
        "details": "This action does not destroy the pool booster contract nor does it      stop the yield delegation to it.",
        "params": {
          "_poolBoosterAddress": "address of the pool booster"
        }
      },
      "transferGovernance(address)": {
        "params": {
          "_newGovernor": "Address of the new Governor"
        }
      }
    },
    "title": "Pool booster factory for creating Metropolis pool boosters.",
    "version": 1
  },
  "userdoc": {
    "kind": "user",
    "methods": {
      "bribeAll(address[])": {
        "notice": "Goes over all the pool boosters created by this factory and         calls bribe() on them."
      },
      "claimGovernance()": {
        "notice": "Claim Governance of the contract to a new account (`newGovernor`). Can only be called by the new Governor."
      },
      "governor()": {
        "notice": "Returns the address of the current Governor."
      },
      "isGovernor()": {
        "notice": "Returns true if the caller is the current Governor."
      },
      "removePoolBooster(address)": {
        "notice": "Removes the pool booster from the internal list of pool boosters."
      },
      "transferGovernance(address)": {
        "notice": "Transfers Governance of the contract to a new account (`newGovernor`). Can only be called by the current Governor. Must be claimed for this to complete"
      }
    },
    "version": 1
  },
  "storageLayout": {
    "storage": [
      {
        "astId": 683,
        "contract": "contracts/poolBooster/PoolBoosterFactoryMetropolis.sol:PoolBoosterFactoryMetropolis",
        "label": "poolBoosters",
        "offset": 0,
        "slot": "0",
        "type": "t_array(t_struct(PoolBoosterEntry)674_storage)dyn_storage"
      },
      {
        "astId": 688,
        "contract": "contracts/poolBooster/PoolBoosterFactoryMetropolis.sol:PoolBoosterFactoryMetropolis",
        "label": "poolBoosterFromPool",
        "offset": 0,
        "slot": "1",
        "type": "t_mapping(t_address,t_struct(PoolBoosterEntry)674_storage)"
      }
    ],
    "types": {
      "t_address": {
        "encoding": "inplace",
        "label": "address",
        "numberOfBytes": "20"
      },
      "t_array(t_struct(PoolBoosterEntry)674_storage)dyn_storage": {
        "base": "t_struct(PoolBoosterEntry)674_storage",
        "encoding": "dynamic_array",
        "label": "struct AbstractPoolBoosterFactory.PoolBoosterEntry[]",
        "numberOfBytes": "32"
      },
      "t_enum(PoolBoosterType)594": {
        "encoding": "inplace",
        "label": "enum IPoolBoostCentralRegistry.PoolBoosterType",
        "numberOfBytes": "1"
      },
      "t_mapping(t_address,t_struct(PoolBoosterEntry)674_storage)": {
        "encoding": "mapping",
        "key": "t_address",
        "label": "mapping(address => struct AbstractPoolBoosterFactory.PoolBoosterEntry)",
        "numberOfBytes": "32",
        "value": "t_struct(PoolBoosterEntry)674_storage"
      },
      "t_struct(PoolBoosterEntry)674_storage": {
        "encoding": "inplace",
        "label": "struct AbstractPoolBoosterFactory.PoolBoosterEntry",
        "members": [
          {
            "astId": 668,
            "contract": "contracts/poolBooster/PoolBoosterFactoryMetropolis.sol:PoolBoosterFactoryMetropolis",
            "label": "boosterAddress",
            "offset": 0,
            "slot": "0",
            "type": "t_address"
          },
          {
            "astId": 670,
            "contract": "contracts/poolBooster/PoolBoosterFactoryMetropolis.sol:PoolBoosterFactoryMetropolis",
            "label": "ammPoolAddress",
            "offset": 0,
            "slot": "1",
            "type": "t_address"
          },
          {
            "astId": 673,
            "contract": "contracts/poolBooster/PoolBoosterFactoryMetropolis.sol:PoolBoosterFactoryMetropolis",
            "label": "boosterType",
            "offset": 20,
            "slot": "1",
            "type": "t_enum(PoolBoosterType)594"
          }
        ],
        "numberOfBytes": "64"
      }
    }
  }
}