{
  "address": "0xc5DdE3eCe69F4B4FA21dAd810B41baAc8D30657E",
  "abi": [
    {
      "inputs": [
        {
          "components": [
            {
              "internalType": "address",
              "name": "platformAddress",
              "type": "address"
            },
            {
              "internalType": "address",
              "name": "vaultAddress",
              "type": "address"
            }
          ],
          "internalType": "struct InitializableAbstractStrategy.BaseStrategyConfig",
          "name": "_baseConfig",
          "type": "tuple"
        },
        {
          "internalType": "address",
          "name": "_wrappedSonic",
          "type": "address"
        },
        {
          "internalType": "address",
          "name": "_sfc",
          "type": "address"
        }
      ],
      "stateMutability": "nonpayable",
      "type": "constructor"
    },
    {
      "anonymous": false,
      "inputs": [
        {
          "indexed": true,
          "internalType": "uint256",
          "name": "validatorId",
          "type": "uint256"
        }
      ],
      "name": "DefaultValidatorIdChanged",
      "type": "event"
    },
    {
      "anonymous": false,
      "inputs": [
        {
          "indexed": true,
          "internalType": "uint256",
          "name": "validatorId",
          "type": "uint256"
        },
        {
          "indexed": false,
          "internalType": "uint256",
          "name": "delegatedAmount",
          "type": "uint256"
        }
      ],
      "name": "Delegated",
      "type": "event"
    },
    {
      "anonymous": false,
      "inputs": [
        {
          "indexed": true,
          "internalType": "address",
          "name": "_asset",
          "type": "address"
        },
        {
          "indexed": false,
          "internalType": "address",
          "name": "_pToken",
          "type": "address"
        },
        {
          "indexed": false,
          "internalType": "uint256",
          "name": "_amount",
          "type": "uint256"
        }
      ],
      "name": "Deposit",
      "type": "event"
    },
    {
      "anonymous": false,
      "inputs": [
        {
          "indexed": true,
          "internalType": "address",
          "name": "previousGovernor",
          "type": "address"
        },
        {
          "indexed": true,
          "internalType": "address",
          "name": "newGovernor",
          "type": "address"
        }
      ],
      "name": "GovernorshipTransferred",
      "type": "event"
    },
    {
      "anonymous": false,
      "inputs": [
        {
          "indexed": false,
          "internalType": "address",
          "name": "_oldHarvesterAddress",
          "type": "address"
        },
        {
          "indexed": false,
          "internalType": "address",
          "name": "_newHarvesterAddress",
          "type": "address"
        }
      ],
      "name": "HarvesterAddressesUpdated",
      "type": "event"
    },
    {
      "anonymous": false,
      "inputs": [
        {
          "indexed": true,
          "internalType": "address",
          "name": "_asset",
          "type": "address"
        },
        {
          "indexed": false,
          "internalType": "address",
          "name": "_pToken",
          "type": "address"
        }
      ],
      "name": "PTokenAdded",
      "type": "event"
    },
    {
      "anonymous": false,
      "inputs": [
        {
          "indexed": true,
          "internalType": "address",
          "name": "_asset",
          "type": "address"
        },
        {
          "indexed": false,
          "internalType": "address",
          "name": "_pToken",
          "type": "address"
        }
      ],
      "name": "PTokenRemoved",
      "type": "event"
    },
    {
      "anonymous": false,
      "inputs": [
        {
          "indexed": true,
          "internalType": "address",
          "name": "previousGovernor",
          "type": "address"
        },
        {
          "indexed": true,
          "internalType": "address",
          "name": "newGovernor",
          "type": "address"
        }
      ],
      "name": "PendingGovernorshipTransfer",
      "type": "event"
    },
    {
      "anonymous": false,
      "inputs": [
        {
          "indexed": true,
          "internalType": "address",
          "name": "newAddress",
          "type": "address"
        }
      ],
      "name": "RegistratorChanged",
      "type": "event"
    },
    {
      "anonymous": false,
      "inputs": [
        {
          "indexed": false,
          "internalType": "address[]",
          "name": "_oldAddresses",
          "type": "address[]"
        },
        {
          "indexed": false,
          "internalType": "address[]",
          "name": "_newAddresses",
          "type": "address[]"
        }
      ],
      "name": "RewardTokenAddressesUpdated",
      "type": "event"
    },
    {
      "anonymous": false,
      "inputs": [
        {
          "indexed": false,
          "internalType": "address",
          "name": "recipient",
          "type": "address"
        },
        {
          "indexed": false,
          "internalType": "address",
          "name": "rewardToken",
          "type": "address"
        },
        {
          "indexed": false,
          "internalType": "uint256",
          "name": "amount",
          "type": "uint256"
        }
      ],
      "name": "RewardTokenCollected",
      "type": "event"
    },
    {
      "anonymous": false,
      "inputs": [
        {
          "indexed": true,
          "internalType": "uint256",
          "name": "validatorId",
          "type": "uint256"
        }
      ],
      "name": "SupportedValidator",
      "type": "event"
    },
    {
      "anonymous": false,
      "inputs": [
        {
          "indexed": true,
          "internalType": "uint256",
          "name": "withdrawId",
          "type": "uint256"
        },
        {
          "indexed": true,
          "internalType": "uint256",
          "name": "validatorId",
          "type": "uint256"
        },
        {
          "indexed": false,
          "internalType": "uint256",
          "name": "undelegatedAmount",
          "type": "uint256"
        }
      ],
      "name": "Undelegated",
      "type": "event"
    },
    {
      "anonymous": false,
      "inputs": [
        {
          "indexed": true,
          "internalType": "uint256",
          "name": "validatorId",
          "type": "uint256"
        }
      ],
      "name": "UnsupportedValidator",
      "type": "event"
    },
    {
      "anonymous": false,
      "inputs": [
        {
          "indexed": true,
          "internalType": "address",
          "name": "_asset",
          "type": "address"
        },
        {
          "indexed": false,
          "internalType": "address",
          "name": "_pToken",
          "type": "address"
        },
        {
          "indexed": false,
          "internalType": "uint256",
          "name": "_amount",
          "type": "uint256"
        }
      ],
      "name": "Withdrawal",
      "type": "event"
    },
    {
      "anonymous": false,
      "inputs": [
        {
          "indexed": true,
          "internalType": "uint256",
          "name": "withdrawId",
          "type": "uint256"
        },
        {
          "indexed": true,
          "internalType": "uint256",
          "name": "validatorId",
          "type": "uint256"
        },
        {
          "indexed": false,
          "internalType": "uint256",
          "name": "undelegatedAmount",
          "type": "uint256"
        },
        {
          "indexed": false,
          "internalType": "uint256",
          "name": "withdrawnAmount",
          "type": "uint256"
        }
      ],
      "name": "Withdrawn",
      "type": "event"
    },
    {
      "inputs": [
        {
          "internalType": "address",
          "name": "",
          "type": "address"
        }
      ],
      "name": "assetToPToken",
      "outputs": [
        {
          "internalType": "address",
          "name": "",
          "type": "address"
        }
      ],
      "stateMutability": "view",
      "type": "function"
    },
    {
      "inputs": [
        {
          "internalType": "address",
          "name": "_asset",
          "type": "address"
        }
      ],
      "name": "checkBalance",
      "outputs": [
        {
          "internalType": "uint256",
          "name": "balance",
          "type": "uint256"
        }
      ],
      "stateMutability": "view",
      "type": "function"
    },
    {
      "inputs": [],
      "name": "claimGovernance",
      "outputs": [],
      "stateMutability": "nonpayable",
      "type": "function"
    },
    {
      "inputs": [],
      "name": "collectRewardTokens",
      "outputs": [],
      "stateMutability": "nonpayable",
      "type": "function"
    },
    {
      "inputs": [
        {
          "internalType": "uint256[]",
          "name": "_validatorIds",
          "type": "uint256[]"
        }
      ],
      "name": "collectRewards",
      "outputs": [],
      "stateMutability": "nonpayable",
      "type": "function"
    },
    {
      "inputs": [],
      "name": "defaultValidatorId",
      "outputs": [
        {
          "internalType": "uint256",
          "name": "",
          "type": "uint256"
        }
      ],
      "stateMutability": "view",
      "type": "function"
    },
    {
      "inputs": [
        {
          "internalType": "address",
          "name": "_asset",
          "type": "address"
        },
        {
          "internalType": "uint256",
          "name": "_amount",
          "type": "uint256"
        }
      ],
      "name": "deposit",
      "outputs": [],
      "stateMutability": "nonpayable",
      "type": "function"
    },
    {
      "inputs": [],
      "name": "depositAll",
      "outputs": [],
      "stateMutability": "nonpayable",
      "type": "function"
    },
    {
      "inputs": [],
      "name": "getRewardTokenAddresses",
      "outputs": [
        {
          "internalType": "address[]",
          "name": "",
          "type": "address[]"
        }
      ],
      "stateMutability": "view",
      "type": "function"
    },
    {
      "inputs": [],
      "name": "governor",
      "outputs": [
        {
          "internalType": "address",
          "name": "",
          "type": "address"
        }
      ],
      "stateMutability": "view",
      "type": "function"
    },
    {
      "inputs": [],
      "name": "harvesterAddress",
      "outputs": [
        {
          "internalType": "address",
          "name": "",
          "type": "address"
        }
      ],
      "stateMutability": "view",
      "type": "function"
    },
    {
      "inputs": [],
      "name": "initialize",
      "outputs": [],
      "stateMutability": "nonpayable",
      "type": "function"
    },
    {
      "inputs": [],
      "name": "isGovernor",
      "outputs": [
        {
          "internalType": "bool",
          "name": "",
          "type": "bool"
        }
      ],
      "stateMutability": "view",
      "type": "function"
    },
    {
      "inputs": [
        {
          "internalType": "uint256",
          "name": "_validatorId",
          "type": "uint256"
        }
      ],
      "name": "isSupportedValidator",
      "outputs": [
        {
          "internalType": "bool",
          "name": "",
          "type": "bool"
        }
      ],
      "stateMutability": "view",
      "type": "function"
    },
    {
      "inputs": [
        {
          "internalType": "uint256",
          "name": "_withdrawId",
          "type": "uint256"
        }
      ],
      "name": "isWithdrawnFromSFC",
      "outputs": [
        {
          "internalType": "bool",
          "name": "",
          "type": "bool"
        }
      ],
      "stateMutability": "view",
      "type": "function"
    },
    {
      "inputs": [],
      "name": "nextWithdrawId",
      "outputs": [
        {
          "internalType": "uint256",
          "name": "",
          "type": "uint256"
        }
      ],
      "stateMutability": "view",
      "type": "function"
    },
    {
      "inputs": [],
      "name": "pendingWithdrawals",
      "outputs": [
        {
          "internalType": "uint256",
          "name": "",
          "type": "uint256"
        }
      ],
      "stateMutability": "view",
      "type": "function"
    },
    {
      "inputs": [],
      "name": "platformAddress",
      "outputs": [
        {
          "internalType": "address",
          "name": "",
          "type": "address"
        }
      ],
      "stateMutability": "view",
      "type": "function"
    },
    {
      "inputs": [
        {
          "internalType": "uint256",
          "name": "",
          "type": "uint256"
        }
      ],
      "name": "removePToken",
      "outputs": [],
      "stateMutability": "view",
      "type": "function"
    },
    {
      "inputs": [
        {
          "internalType": "uint256[]",
          "name": "_validatorIds",
          "type": "uint256[]"
        }
      ],
      "name": "restakeRewards",
      "outputs": [],
      "stateMutability": "nonpayable",
      "type": "function"
    },
    {
      "inputs": [
        {
          "internalType": "uint256",
          "name": "",
          "type": "uint256"
        }
      ],
      "name": "rewardTokenAddresses",
      "outputs": [
        {
          "internalType": "address",
          "name": "",
          "type": "address"
        }
      ],
      "stateMutability": "view",
      "type": "function"
    },
    {
      "inputs": [],
      "name": "safeApproveAllTokens",
      "outputs": [],
      "stateMutability": "nonpayable",
      "type": "function"
    },
    {
      "inputs": [
        {
          "internalType": "uint256",
          "name": "_validatorId",
          "type": "uint256"
        }
      ],
      "name": "setDefaultValidatorId",
      "outputs": [],
      "stateMutability": "nonpayable",
      "type": "function"
    },
    {
      "inputs": [
        {
          "internalType": "address",
          "name": "_harvesterAddress",
          "type": "address"
        }
      ],
      "name": "setHarvesterAddress",
      "outputs": [],
      "stateMutability": "nonpayable",
      "type": "function"
    },
    {
      "inputs": [
        {
          "internalType": "address",
          "name": "",
          "type": "address"
        },
        {
          "internalType": "address",
          "name": "",
          "type": "address"
        }
      ],
      "name": "setPTokenAddress",
      "outputs": [],
      "stateMutability": "view",
      "type": "function"
    },
    {
      "inputs": [
        {
          "internalType": "address",
          "name": "_validatorRegistrator",
          "type": "address"
        }
      ],
      "name": "setRegistrator",
      "outputs": [],
      "stateMutability": "nonpayable",
      "type": "function"
    },
    {
      "inputs": [
        {
          "internalType": "address[]",
          "name": "_rewardTokenAddresses",
          "type": "address[]"
        }
      ],
      "name": "setRewardTokenAddresses",
      "outputs": [],
      "stateMutability": "nonpayable",
      "type": "function"
    },
    {
      "inputs": [],
      "name": "sfc",
      "outputs": [
        {
          "internalType": "contract ISFC",
          "name": "",
          "type": "address"
        }
      ],
      "stateMutability": "view",
      "type": "function"
    },
    {
      "inputs": [
        {
          "internalType": "uint256",
          "name": "_validatorId",
          "type": "uint256"
        }
      ],
      "name": "supportValidator",
      "outputs": [],
      "stateMutability": "nonpayable",
      "type": "function"
    },
    {
      "inputs": [
        {
          "internalType": "uint256",
          "name": "",
          "type": "uint256"
        }
      ],
      "name": "supportedValidators",
      "outputs": [
        {
          "internalType": "uint256",
          "name": "",
          "type": "uint256"
        }
      ],
      "stateMutability": "view",
      "type": "function"
    },
    {
      "inputs": [],
      "name": "supportedValidatorsLength",
      "outputs": [
        {
          "internalType": "uint256",
          "name": "",
          "type": "uint256"
        }
      ],
      "stateMutability": "view",
      "type": "function"
    },
    {
      "inputs": [
        {
          "internalType": "address",
          "name": "_asset",
          "type": "address"
        }
      ],
      "name": "supportsAsset",
      "outputs": [
        {
          "internalType": "bool",
          "name": "",
          "type": "bool"
        }
      ],
      "stateMutability": "view",
      "type": "function"
    },
    {
      "inputs": [
        {
          "internalType": "address",
          "name": "_newGovernor",
          "type": "address"
        }
      ],
      "name": "transferGovernance",
      "outputs": [],
      "stateMutability": "nonpayable",
      "type": "function"
    },
    {
      "inputs": [
        {
          "internalType": "address",
          "name": "_asset",
          "type": "address"
        },
        {
          "internalType": "uint256",
          "name": "_amount",
          "type": "uint256"
        }
      ],
      "name": "transferToken",
      "outputs": [],
      "stateMutability": "nonpayable",
      "type": "function"
    },
    {
      "inputs": [
        {
          "internalType": "uint256",
          "name": "_validatorId",
          "type": "uint256"
        },
        {
          "internalType": "uint256",
          "name": "_undelegateAmount",
          "type": "uint256"
        }
      ],
      "name": "undelegate",
      "outputs": [
        {
          "internalType": "uint256",
          "name": "withdrawId",
          "type": "uint256"
        }
      ],
      "stateMutability": "nonpayable",
      "type": "function"
    },
    {
      "inputs": [
        {
          "internalType": "uint256",
          "name": "_validatorId",
          "type": "uint256"
        }
      ],
      "name": "unsupportValidator",
      "outputs": [],
      "stateMutability": "nonpayable",
      "type": "function"
    },
    {
      "inputs": [],
      "name": "validatorRegistrator",
      "outputs": [
        {
          "internalType": "address",
          "name": "",
          "type": "address"
        }
      ],
      "stateMutability": "view",
      "type": "function"
    },
    {
      "inputs": [],
      "name": "vaultAddress",
      "outputs": [
        {
          "internalType": "address",
          "name": "",
          "type": "address"
        }
      ],
      "stateMutability": "view",
      "type": "function"
    },
    {
      "inputs": [
        {
          "internalType": "address",
          "name": "_recipient",
          "type": "address"
        },
        {
          "internalType": "address",
          "name": "_asset",
          "type": "address"
        },
        {
          "internalType": "uint256",
          "name": "_amount",
          "type": "uint256"
        }
      ],
      "name": "withdraw",
      "outputs": [],
      "stateMutability": "nonpayable",
      "type": "function"
    },
    {
      "inputs": [],
      "name": "withdrawAll",
      "outputs": [],
      "stateMutability": "nonpayable",
      "type": "function"
    },
    {
      "inputs": [
        {
          "internalType": "uint256",
          "name": "_withdrawId",
          "type": "uint256"
        }
      ],
      "name": "withdrawFromSFC",
      "outputs": [
        {
          "internalType": "uint256",
          "name": "withdrawnAmount",
          "type": "uint256"
        }
      ],
      "stateMutability": "nonpayable",
      "type": "function"
    },
    {
      "inputs": [
        {
          "internalType": "uint256",
          "name": "",
          "type": "uint256"
        }
      ],
      "name": "withdrawals",
      "outputs": [
        {
          "internalType": "uint256",
          "name": "validatorId",
          "type": "uint256"
        },
        {
          "internalType": "uint256",
          "name": "undelegatedAmount",
          "type": "uint256"
        },
        {
          "internalType": "uint256",
          "name": "timestamp",
          "type": "uint256"
        }
      ],
      "stateMutability": "view",
      "type": "function"
    },
    {
      "inputs": [],
      "name": "wrappedSonic",
      "outputs": [
        {
          "internalType": "address",
          "name": "",
          "type": "address"
        }
      ],
      "stateMutability": "view",
      "type": "function"
    },
    {
      "stateMutability": "payable",
      "type": "receive"
    }
  ],
  "transactionHash": "0x7cedf62d3b489803f09fdd34f5c0d9b73ab40799a5eb9219e220c0e28920a0b2",
  "args": [
    [
      "0xFC00FACE00000000000000000000000000000000",
      "0xa3c0eCA00D2B76b4d1F170b0AB3FdeA16C180186"
    ],
    "0x039e2fB66102314Ce7b64Ce5Ce3E5183bc94aD38",
    "0xFC00FACE00000000000000000000000000000000"
  ],
  "numDeployments": 2,
  "solcInputHash": "f5d4cf9f739f00dcfdb6eaefa295e33d",
  "bytecode": "0x61010060405234801561001157600080fd5b50604051613c2c380380613c2c83398101604081905261003091610076565b82516001600160a01b03908116608052602090930151831660a05290821660c0521660e05261010f565b80516001600160a01b038116811461007157600080fd5b919050565b6000806000838503608081121561008c57600080fd5b604081121561009a57600080fd5b50604080519081016001600160401b03811182821017156100cb57634e487b7160e01b600052604160045260246000fd5b6040526100d78561005a565b81526100e56020860161005a565b602082015292506100f86040850161005a565b91506101066060850161005a565b90509250925092565b60805160a05160c05160e0516139b7610275600039600081816102700152818161069f01528181610c9d01528181611135015281816111e401528181611640015281816116f1015281816122d701528181612386015281816126e601528181612adb01528181612c340152612f180152600081816102a201528181610739015281816107f0015281816109ab01528181610dc501528181610e5d01528181610f51015281816112950152818161132d015281816115270152818161158e01528181611a6701528181611cef01528181611d7a01528181611e1b015281816121f1015281816124c601528181612546015281816129100152612e9c01526000818161042a01528181610aa501528181610e3c01528181610edc0152818161103e0152818161130c015281816113740152818161179e01528181611c1401528181611dfa0152818161217c015261243b0152600081816108640152611abb01526139b76000f3fe6080604052600436106102605760003560e01c80638129fc1c11610144578063beca03d5116100b6578063d9caed121161007a578063d9caed1214610832578063dbe55e5614610852578063dc25cf9214610886578063de5f6268146108a6578063f6ca71b0146108bb578063f9c3cf8b146108dd57600080fd5b8063beca03d514610793578063c2e1e3f4146107a9578063c7af3352146107c9578063ce75d565146107de578063d38bfff41461081257600080fd5b80639136616a116101085780639136616a146106c157806392a89c4f146106dc57806396d538bb146106fc578063aa388af61461071c578063abe4820314610769578063ad1728cb1461077e57600080fd5b80638129fc1c1461062357806384bcbb4e14610638578063853828b61461065857806387bae8671461066d5780638992229f1461068d57600080fd5b80635a1b65ae116101dd578063634b91e3116101a1578063634b91e31461056d5780636520a4311461058d57806367c7066c146105ad5780636e811d38146105cd57806377ae46e5146105ed5780637b2d9b2c1461060357600080fd5b80635a1b65ae146104a15780635bd62b73146104c15780635cc07076146104e15780635d36b190146105385780635f5152261461054d57600080fd5b806333a893801161022457806333a89380146103e8578063430bf08a14610418578063440b376c1461044c57806347e7ef241461046c5780635a063f631461048c57600080fd5b80630c340a241461031c5780630ed57b3a1461034e5780630fc3b4c41461036e5780631072cbea146103a45780631ffd6b1f146103c457600080fd5b3661031757336001600160a01b037f00000000000000000000000000000000000000000000000000000000000000001614806102c45750336001600160a01b037f000000000000000000000000000000000000000000000000000000000000000016145b6103155760405162461bcd60e51b815260206004820152601c60248201527f53206e6f742066726f6d20616c6c6f77656420636f6e7472616374730000000060448201526064015b60405180910390fd5b005b600080fd5b34801561032857600080fd5b506103316108fd565b6040516001600160a01b0390911681526020015b60405180910390f35b34801561035a57600080fd5b506103156103693660046133e6565b61091a565b34801561037a57600080fd5b5061033161038936600461341f565b6035602052600090815260409020546001600160a01b031681565b3480156103b057600080fd5b506103156103bf36600461343c565b61097d565b3480156103d057600080fd5b506103da60a05481565b604051908152602001610345565b3480156103f457600080fd5b50610408610403366004613468565b610a3c565b6040519015158152602001610345565b34801561042457600080fd5b506103317f000000000000000000000000000000000000000000000000000000000000000081565b34801561045857600080fd5b506103da610467366004613468565b610a8c565b34801561047857600080fd5b5061031561048736600461343c565b610ed1565b34801561049857600080fd5b50610315610fb3565b3480156104ad57600080fd5b506103156104bc3660046134cd565b611028565b3480156104cd57600080fd5b506103156104dc366004613468565b61135e565b3480156104ed57600080fd5b5061051d6104fc366004613468565b60a16020526000908152604090208054600182015460029092015490919083565b60408051938452602084019290925290820152606001610345565b34801561054457600080fd5b5061031561147d565b34801561055957600080fd5b506103da61056836600461341f565b611523565b34801561057957600080fd5b506103da61058836600461350f565b611785565b34801561059957600080fd5b506103da6105a8366004613468565b61189c565b3480156105b957600080fd5b50603954610331906001600160a01b031681565b3480156105d957600080fd5b506103156105e836600461341f565b6118bd565b3480156105f957600080fd5b506103da609d5481565b34801561060f57600080fd5b5061033161061e366004613468565b61192b565b34801561062f57600080fd5b50610315611955565b34801561064457600080fd5b50610315610653366004613468565b611b30565b34801561066457600080fd5b50610315611c09565b34801561067957600080fd5b5060a254610331906001600160a01b031681565b34801561069957600080fd5b506103317f000000000000000000000000000000000000000000000000000000000000000081565b3480156106cd57600080fd5b50610315610369366004613468565b3480156106e857600080fd5b506104086106f7366004613468565b611e4a565b34801561070857600080fd5b506103156107173660046134cd565b611ece565b34801561072857600080fd5b5061040861073736600461341f565b7f00000000000000000000000000000000000000000000000000000000000000006001600160a01b0390811691161490565b34801561077557600080fd5b50609f546103da565b34801561078a57600080fd5b50610315611feb565b34801561079f57600080fd5b506103da609e5481565b3480156107b557600080fd5b506103156107c436600461341f565b61200f565b3480156107d557600080fd5b5061040861209c565b3480156107ea57600080fd5b506103317f000000000000000000000000000000000000000000000000000000000000000081565b34801561081e57600080fd5b5061031561082d36600461341f565b6120cd565b34801561083e57600080fd5b5061031561084d366004613531565b612171565b34801561085e57600080fd5b506103317f000000000000000000000000000000000000000000000000000000000000000081565b34801561089257600080fd5b506103156108a13660046134cd565b612255565b3480156108b257600080fd5b50610315612430565b3480156108c757600080fd5b506108d0612573565b6040516103459190613572565b3480156108e957600080fd5b506103156108f8366004613468565b6125d5565b60006109156000805160206139628339815191525490565b905090565b61092261209c565b61093e5760405162461bcd60e51b815260040161030c906135be565b60405162461bcd60e51b81526020600482015260146024820152733ab739bab83837b93a32b210333ab731ba34b7b760611b604482015260640161030c565b61098561209c565b6109a15760405162461bcd60e51b815260040161030c906135be565b6001600160a01b037f0000000000000000000000000000000000000000000000000000000000000000811690831603610a1c5760405162461bcd60e51b815260206004820152601f60248201527f43616e6e6f74207472616e7366657220737570706f7274656420617373657400604482015260640161030c565b610a38610a276108fd565b6001600160a01b03841690836127a2565b5050565b609f54600090815b81811015610a825783609f8281548110610a6057610a606135f5565b906000526020600020015403610a7a575060019392505050565b600101610a44565b5060009392505050565b60a2546000906001600160a01b0316331480610b3a57507f00000000000000000000000000000000000000000000000000000000000000006001600160a01b031663570d8e1d6040518163ffffffff1660e01b8152600401602060405180830381865afa158015610b01573d6000803e3d6000fd5b505050506040513d601f19601f82011682018060405250810190610b25919061360b565b6001600160a01b0316336001600160a01b0316145b610b565760405162461bcd60e51b815260040161030c90613628565b60008051602061394283398151915280546001198101610b885760405162461bcd60e51b815260040161030c90613673565b60028255609d548410610bd25760405162461bcd60e51b8152602060048201526012602482015271125b9d985b1a59081dda5d1a191c985dd25960721b604482015260640161030c565b600084815260a160209081526040918290208251606081018452815481526001820154928101929092526002015491810191909152610c1085611e4a565b15610c515760405162461bcd60e51b815260206004820152601160248201527020b63932b0b23c903bb4ba34323930bbb760791b604482015260640161030c565b600085815260a1602090815260408220600101829055820151609e805491929091610c7d9084906136b1565b90915550508051604051630441a3e760e41b815247916001600160a01b037f0000000000000000000000000000000000000000000000000000000000000000169163441a3e7091610cdb918a90600401918252602082015260400190565b600060405180830381600087803b158015610cf557600080fd5b505af1925050508015610d06575060015b610db7573d808015610d34576040519150601f19603f3d011682016040523d82523d6000602084013e610d39565b606091505b506000610d45826136ca565b905063e706980560e01b6001600160e01b0319821601610daf5783516020808601516040805191825260009282018390529199508a917ff33ea8296e3b54855453ed4cdaa29d067a97e3cc1d5ebd1fb072699e78aa01e2910160405180910390a350505050610ec7565b815182602001fd5b610dc181476136b1565b94507f00000000000000000000000000000000000000000000000000000000000000006001600160a01b031663d0e30db0866040518263ffffffff1660e01b81526004016000604051808303818588803b158015610e1e57600080fd5b505af1158015610e32573d6000803e3d6000fd5b5050505050610e827f00000000000000000000000000000000000000000000000000000000000000007f0000000000000000000000000000000000000000000000000000000000000000876127fd565b81516020808401516040805191825291810188905288917ff33ea8296e3b54855453ed4cdaa29d067a97e3cc1d5ebd1fb072699e78aa01e2910160405180910390a350505b5060019055919050565b336001600160a01b037f00000000000000000000000000000000000000000000000000000000000000001614610f195760405162461bcd60e51b815260040161030c90613704565b60008051602061394283398151915280546001198101610f4b5760405162461bcd60e51b815260040161030c90613673565b600282557f00000000000000000000000000000000000000000000000000000000000000006001600160a01b0316846001600160a01b031614610fa05760405162461bcd60e51b815260040161030c9061373b565b610faa8484612977565b50600190555050565b60008051602061394283398151915280546001198101610fe55760405162461bcd60e51b815260040161030c90613673565b6002825560405162461bcd60e51b81526020600482015260146024820152733ab739bab83837b93a32b210333ab731ba34b7b760611b604482015260640161030c565b60a2546001600160a01b03163314806110d357507f00000000000000000000000000000000000000000000000000000000000000006001600160a01b031663570d8e1d6040518163ffffffff1660e01b8152600401602060405180830381865afa15801561109a573d6000803e3d6000fd5b505050506040513d601f19601f820116820180604052508101906110be919061360b565b6001600160a01b0316336001600160a01b0316145b6110ef5760405162461bcd60e51b815260040161030c90613628565b600080516020613942833981519152805460011981016111215760405162461bcd60e51b815260040161030c90613673565b600282554760005b848110156112845760007f00000000000000000000000000000000000000000000000000000000000000006001600160a01b0316636099ecb230898986818110611175576111756135f5565b905060200201356040518363ffffffff1660e01b8152600401611199929190613766565b602060405180830381865afa1580156111b6573d6000803e3d6000fd5b505050506040513d601f19601f820116820180604052508101906111da919061377f565b9050801561127b577f00000000000000000000000000000000000000000000000000000000000000006001600160a01b0316630962ef79888885818110611223576112236135f5565b905060200201356040518263ffffffff1660e01b815260040161124891815260200190565b600060405180830381600087803b15801561126257600080fd5b505af1158015611276573d6000803e3d6000fd5b505050505b50600101611129565b50600061129182476136b1565b90507f00000000000000000000000000000000000000000000000000000000000000006001600160a01b031663d0e30db0826040518263ffffffff1660e01b81526004016000604051808303818588803b1580156112ee57600080fd5b505af1158015611302573d6000803e3d6000fd5b50505050506113527f00000000000000000000000000000000000000000000000000000000000000007f0000000000000000000000000000000000000000000000000000000000000000836127fd565b50506001825550505050565b60a2546001600160a01b031633148061140957507f00000000000000000000000000000000000000000000000000000000000000006001600160a01b031663570d8e1d6040518163ffffffff1660e01b8152600401602060405180830381865afa1580156113d0573d6000803e3d6000fd5b505050506040513d601f19601f820116820180604052508101906113f4919061360b565b6001600160a01b0316336001600160a01b0316145b6114255760405162461bcd60e51b815260040161030c90613628565b61142e81610a3c565b61144a5760405162461bcd60e51b815260040161030c90613798565b60a081905560405181907f6d9855e4bae1edd0b0a36a2560dddfb1ef5dfae0fc1a6a919f612efd174ee53d90600090a250565b7f44c4d30b2eaad5130ad70c3ba6972730566f3e6359ab83e800d905c61b1c51db546001600160a01b0316336001600160a01b0316146115185760405162461bcd60e51b815260206004820152603060248201527f4f6e6c79207468652070656e64696e6720476f7665726e6f722063616e20636f60448201526f6d706c6574652074686520636c61696d60801b606482015260840161030c565b61152133612a11565b565b60007f00000000000000000000000000000000000000000000000000000000000000006001600160a01b0316826001600160a01b0316146115765760405162461bcd60e51b815260040161030c9061373b565b609e546040516370a0823160e01b81523060048201527f00000000000000000000000000000000000000000000000000000000000000006001600160a01b0316906370a0823190602401602060405180830381865afa1580156115dd573d6000803e3d6000fd5b505050506040513d601f19601f82011682018060405250810190611601919061377f565b61160b91906137cf565b609f5490915060005b8181101561177e576000609f8281548110611631576116316135f5565b906000526020600020015490507f00000000000000000000000000000000000000000000000000000000000000006001600160a01b031663cfd4766330836040518363ffffffff1660e01b815260040161168c929190613766565b602060405180830381865afa1580156116a9573d6000803e3d6000fd5b505050506040513d601f19601f820116820180604052508101906116cd919061377f565b6116d790856137cf565b60405163304cf65960e11b81529094506001600160a01b037f00000000000000000000000000000000000000000000000000000000000000001690636099ecb2906117289030908590600401613766565b602060405180830381865afa158015611745573d6000803e3d6000fd5b505050506040513d601f19601f82011682018060405250810190611769919061377f565b61177390856137cf565b935050600101611614565b5050919050565b60a2546000906001600160a01b031633148061183357507f00000000000000000000000000000000000000000000000000000000000000006001600160a01b031663570d8e1d6040518163ffffffff1660e01b8152600401602060405180830381865afa1580156117fa573d6000803e3d6000fd5b505050506040513d601f19601f8201168201806040525081019061181e919061360b565b6001600160a01b0316336001600160a01b0316145b61184f5760405162461bcd60e51b815260040161030c90613628565b600080516020613942833981519152805460011981016118815760405162461bcd60e51b815260040161030c90613673565b6002825561188f8585612a70565b6001909255509392505050565b609f81815481106118ac57600080fd5b600091825260209091200154905081565b6118c561209c565b6118e15760405162461bcd60e51b815260040161030c906135be565b60a280546001600160a01b0319166001600160a01b0383169081179091556040517f83f29c79feb71f8fba9d0fbc4ba5f0982a28b6b1e868b3fc50e6400d100bca0f90600090a250565b603a818154811061193b57600080fd5b6000918252602090912001546001600160a01b0316905081565b61195d61209c565b6119795760405162461bcd60e51b815260040161030c906135be565b600054610100900460ff1680611992575060005460ff16155b6119f55760405162461bcd60e51b815260206004820152602e60248201527f496e697469616c697a61626c653a20636f6e747261637420697320616c72656160448201526d191e481a5b9a5d1a585b1a5e995960921b606482015260840161030c565b600054610100900460ff16158015611a17576000805461ffff19166101011790555b6040805160008082526001602080840182815260608501865293949293928501908036833750506040805160018082528183019092529293506000929150602080830190803683370190505090507f000000000000000000000000000000000000000000000000000000000000000082600081518110611a9957611a996135f5565b60200260200101906001600160a01b031690816001600160a01b0316815250507f000000000000000000000000000000000000000000000000000000000000000081600081518110611aed57611aed6135f5565b60200260200101906001600160a01b031690816001600160a01b031681525050611b18838383612cda565b5050508015611b2d576000805461ff00191690555b50565b611b3861209c565b611b545760405162461bcd60e51b815260040161030c906135be565b611b5d81610a3c565b15611baa5760405162461bcd60e51b815260206004820152601b60248201527f56616c696461746f7220616c726561647920737570706f727465640000000000604482015260640161030c565b609f805460018101825560009182527f0bc14066c33013fe88f66e314e4cf150b0b2d4d6451a1a51dbbd1c27cd11de280182905560405182917f02920cd852f6fb97d3c61666647e84dc075aeef1da73bce825d24c7a0c277ece91a250565b336001600160a01b037f0000000000000000000000000000000000000000000000000000000000000000161480611c585750611c436108fd565b6001600160a01b0316336001600160a01b0316145b611cb05760405162461bcd60e51b815260206004820152602360248201527f43616c6c6572206973206e6f7420746865205661756c74206f7220476f7665726044820152623737b960e91b606482015260840161030c565b60008051602061394283398151915280546001198101611ce25760405162461bcd60e51b815260040161030c90613673565b60028255478015611d62577f00000000000000000000000000000000000000000000000000000000000000006001600160a01b031663d0e30db0826040518263ffffffff1660e01b81526004016000604051808303818588803b158015611d4857600080fd5b505af1158015611d5c573d6000803e3d6000fd5b50505050505b6040516370a0823160e01b81523060048201526000907f00000000000000000000000000000000000000000000000000000000000000006001600160a01b0316906370a0823190602401602060405180830381865afa158015611dc9573d6000803e3d6000fd5b505050506040513d601f19601f82011682018060405250810190611ded919061377f565b90508015611e4057611e407f00000000000000000000000000000000000000000000000000000000000000007f0000000000000000000000000000000000000000000000000000000000000000836127fd565b5050600182555050565b600081815260a160209081526040808320815160608101835281548082526001830154948201949094526002909101549181019190915290611ec35760405162461bcd60e51b8152602060048201526012602482015271125b9d985b1a59081dda5d1a191c985dd25960721b604482015260640161030c565b602001511592915050565b611ed661209c565b611ef25760405162461bcd60e51b815260040161030c906135be565b8060005b81811015611f9c576000848483818110611f1257611f126135f5565b9050602002016020810190611f27919061341f565b6001600160a01b031603611f945760405162461bcd60e51b815260206004820152602e60248201527f43616e206e6f742073657420616e20656d70747920616464726573732061732060448201526d30903932bbb0b932103a37b5b2b760911b606482015260840161030c565b600101611ef6565b507f04c0b9649497d316554306e53678d5f5f5dbc3a06f97dec13ff4cfe98b986bbc603a8484604051611fd1939291906137e2565b60405180910390a1611fe5603a8484613304565b50505050565b611ff361209c565b6115215760405162461bcd60e51b815260040161030c906135be565b61201761209c565b6120335760405162461bcd60e51b815260040161030c906135be565b603954604080516001600160a01b03928316815291831660208301527fe48386b84419f4d36e0f96c10cc3510b6fb1a33795620c5098b22472bbe90796910160405180910390a1603980546001600160a01b0319166001600160a01b0392909216919091179055565b60006120b46000805160206139628339815191525490565b6001600160a01b0316336001600160a01b031614905090565b6120d561209c565b6120f15760405162461bcd60e51b815260040161030c906135be565b612119817f44c4d30b2eaad5130ad70c3ba6972730566f3e6359ab83e800d905c61b1c51db55565b806001600160a01b03166121396000805160206139628339815191525490565b6001600160a01b03167fa39cc5eb22d0f34d8beaefee8a3f17cc229c1a1d1ef87a5ad47313487b1c4f0d60405160405180910390a350565b336001600160a01b037f000000000000000000000000000000000000000000000000000000000000000016146121b95760405162461bcd60e51b815260040161030c90613704565b600080516020613942833981519152805460011981016121eb5760405162461bcd60e51b815260040161030c90613673565b600282557f00000000000000000000000000000000000000000000000000000000000000006001600160a01b0316846001600160a01b0316146122405760405162461bcd60e51b815260040161030c9061373b565b61224b8585856127fd565b5060019055505050565b600080516020613942833981519152805460011981016122875760405162461bcd60e51b815260040161030c90613673565b6002825560005b83811015612426576122b78585838181106122ab576122ab6135f5565b90506020020135610a3c565b6122d35760405162461bcd60e51b815260040161030c90613798565b60007f00000000000000000000000000000000000000000000000000000000000000006001600160a01b0316636099ecb230888886818110612317576123176135f5565b905060200201356040518363ffffffff1660e01b815260040161233b929190613766565b602060405180830381865afa158015612358573d6000803e3d6000fd5b505050506040513d601f19601f8201168201806040525081019061237c919061377f565b9050801561241d577f00000000000000000000000000000000000000000000000000000000000000006001600160a01b03166308c368748787858181106123c5576123c56135f5565b905060200201356040518263ffffffff1660e01b81526004016123ea91815260200190565b600060405180830381600087803b15801561240457600080fd5b505af1158015612418573d6000803e3d6000fd5b505050505b5060010161228e565b5050600190555050565b336001600160a01b037f000000000000000000000000000000000000000000000000000000000000000016146124785760405162461bcd60e51b815260040161030c90613704565b600080516020613942833981519152805460011981016124aa5760405162461bcd60e51b815260040161030c90613673565b600282556040516370a0823160e01b81523060048201526000907f00000000000000000000000000000000000000000000000000000000000000006001600160a01b0316906370a0823190602401602060405180830381865afa158015612515573d6000803e3d6000fd5b505050506040513d601f19601f82011682018060405250810190612539919061377f565b9050801561256b5761256b7f000000000000000000000000000000000000000000000000000000000000000082612977565b505060019055565b6060603a8054806020026020016040519081016040528092919081815260200182805480156125cb57602002820191906000526020600020905b81546001600160a01b031681526001909101906020018083116125ad575b5050505050905090565b6125dd61209c565b6125f95760405162461bcd60e51b815260040161030c906135be565b61260281610a3c565b61261e5760405162461bcd60e51b815260040161030c90613798565b609f5460005b818110156126cb5782609f8281548110612640576126406135f5565b9060005260206000200154036126c357609f61265d6001846136b1565b8154811061266d5761266d6135f5565b9060005260206000200154609f828154811061268b5761268b6135f5565b600091825260209091200155609f8054806126a8576126a861387d565b600190038181906000526020600020016000905590556126cb565b600101612624565b5060405163cfd4766360e01b81526000906001600160a01b037f0000000000000000000000000000000000000000000000000000000000000000169063cfd476639061271d9030908790600401613766565b602060405180830381865afa15801561273a573d6000803e3d6000fd5b505050506040513d601f19601f8201168201806040525081019061275e919061377f565b90508015612772576127708382612a70565b505b60405183907f79b3ee06a72f89da075102ad32be1edf72a769ad31461b0477e24304ef9cdf3890600090a2505050565b6127f88363a9059cbb60e01b84846040516024016127c1929190613766565b60408051601f198184030181529190526020810180516001600160e01b03166001600160e01b031990931692909217909152612d8d565b505050565b6000811161284d5760405162461bcd60e51b815260206004820152601760248201527f4d75737420776974686472617720736f6d657468696e67000000000000000000604482015260640161030c565b6001600160a01b03831661289c5760405162461bcd60e51b8152602060048201526016602482015275135d5cdd081cdc1958da599e481c9958da5c1a595b9d60521b604482015260640161030c565b60405163a9059cbb60e01b81526001600160a01b0383169063a9059cbb906128ca9086908590600401613766565b6020604051808303816000875af11580156128e9573d6000803e3d6000fd5b505050506040513d601f19601f8201168201806040525081019061290d9190613893565b507f00000000000000000000000000000000000000000000000000000000000000006001600160a01b03167f2717ead6b9200dd235aad468c9809ea400fe33ac69b5bfaa6d3e90fc922b639860008360405161296a929190613766565b60405180910390a2505050565b600081116129c05760405162461bcd60e51b81526020600482015260166024820152754d757374206465706f73697420736f6d657468696e6760501b604482015260640161030c565b6129c981612e5f565b816001600160a01b03167f5548c837ab068cf56a2c2479df0882a4922fd203edb7517321831d95078c5f62600083604051612a05929190613766565b60405180910390a25050565b6001600160a01b038116612a675760405162461bcd60e51b815260206004820152601a60248201527f4e657720476f7665726e6f722069732061646472657373283029000000000000604482015260640161030c565b611b2d81612fc4565b6000808211612ac15760405162461bcd60e51b815260206004820152601960248201527f4d75737420756e64656c656761746520736f6d657468696e6700000000000000604482015260640161030c565b60405163cfd4766360e01b81526000906001600160a01b037f0000000000000000000000000000000000000000000000000000000000000000169063cfd4766390612b129030908890600401613766565b602060405180830381865afa158015612b2f573d6000803e3d6000fd5b505050506040513d601f19601f82011682018060405250810190612b53919061377f565b905080831115612ba55760405162461bcd60e51b815260206004820152601760248201527f496e73756666696369656e742064656c65676174696f6e000000000000000000604482015260640161030c565b609d8054906000612bb5836138b5565b9091555060408051606081018252868152602080820187815242838501908152600086815260a1909352938220925183555160018301559151600290910155609e80549294508592909190612c0b9084906137cf565b90915550506040516313e1937d60e21b81526004810185905260248101839052604481018490527f00000000000000000000000000000000000000000000000000000000000000006001600160a01b031690634f864df490606401600060405180830381600087803b158015612c8057600080fd5b505af1158015612c94573d6000803e3d6000fd5b5050505083827f0bb92b0997292736a695dc55fdbeed2509294a39bd4c39ba5a694d3e19f8923085604051612ccb91815260200190565b60405180910390a35092915050565b8251612ced90603a906020860190613367565b50815181518114612d375760405162461bcd60e51b8152602060048201526014602482015273496e76616c696420696e7075742061727261797360601b604482015260640161030c565b60005b81811015612d8657612d7e848281518110612d5757612d576135f5565b6020026020010151848381518110612d7157612d716135f5565b602002602001015161302b565b600101612d3a565b5050505050565b6000612de2826040518060400160405280602081526020017f5361666545524332303a206c6f772d6c6576656c2063616c6c206661696c6564815250856001600160a01b031661318a9092919063ffffffff16565b8051909150156127f85780806020019051810190612e009190613893565b6127f85760405162461bcd60e51b815260206004820152602a60248201527f5361666545524332303a204552433230206f7065726174696f6e20646964206e6044820152691bdd081cdd58d8d9595960b21b606482015260840161030c565b612e6a60a054610a3c565b612e865760405162461bcd60e51b815260040161030c90613798565b604051632e1a7d4d60e01b8152600481018290527f00000000000000000000000000000000000000000000000000000000000000006001600160a01b031690632e1a7d4d90602401600060405180830381600087803b158015612ee857600080fd5b505af1158015612efc573d6000803e3d6000fd5b505060a054604051639fa6dd3560e01b81526001600160a01b037f0000000000000000000000000000000000000000000000000000000000000000169350639fa6dd3592508491612f539160040190815260200190565b6000604051808303818588803b158015612f6c57600080fd5b505af1158015612f80573d6000803e3d6000fd5b505050505060a0547fdf2a7c5f7a567419f37f5bba40b572a4500cdf7c85f7b18a67c6dba1b94fba3b82604051612fb991815260200190565b60405180910390a250565b806001600160a01b0316612fe46000805160206139628339815191525490565b6001600160a01b03167fc7c0c772add429241571afb3805861fb3cfa2af374534088b76cdb4325a87e9a60405160405180910390a360008051602061396283398151915255565b6001600160a01b0382811660009081526035602052604090205416156130885760405162461bcd60e51b81526020600482015260126024820152711c151bdad95b88185b1c9958591e481cd95d60721b604482015260640161030c565b6001600160a01b038216158015906130a857506001600160a01b03811615155b6130e85760405162461bcd60e51b8152602060048201526011602482015270496e76616c69642061646472657373657360781b604482015260640161030c565b6001600160a01b03828116600081815260356020908152604080832080549587166001600160a01b031996871681179091556036805460018101825594527f4a11f94e20a93c79f6ec743a1954ec4fc2c08429ae2122118bf234b2185c81b890930180549095168417909455925190815290917fef6485b84315f9b1483beffa32aae9a0596890395e3d7521f1c5fbb51790e765910160405180910390a25050565b606061319984846000856131a3565b90505b9392505050565b6060824710156132045760405162461bcd60e51b815260206004820152602660248201527f416464726573733a20696e73756666696369656e742062616c616e636520666f6044820152651c8818d85b1b60d21b606482015260840161030c565b843b6132525760405162461bcd60e51b815260206004820152601d60248201527f416464726573733a2063616c6c20746f206e6f6e2d636f6e7472616374000000604482015260640161030c565b600080866001600160a01b0316858760405161326e91906138f2565b60006040518083038185875af1925050503d80600081146132ab576040519150601f19603f3d011682016040523d82523d6000602084013e6132b0565b606091505b50915091506132c08282866132cb565b979650505050505050565b606083156132da57508161319c565b8251156132ea5782518084602001fd5b8160405162461bcd60e51b815260040161030c919061390e565b828054828255906000526020600020908101928215613357579160200282015b828111156133575781546001600160a01b0319166001600160a01b03843516178255602090920191600190910190613324565b506133639291506133bc565b5090565b828054828255906000526020600020908101928215613357579160200282015b8281111561335757825182546001600160a01b0319166001600160a01b03909116178255602090920191600190910190613387565b5b8082111561336357600081556001016133bd565b6001600160a01b0381168114611b2d57600080fd5b600080604083850312156133f957600080fd5b8235613404816133d1565b91506020830135613414816133d1565b809150509250929050565b60006020828403121561343157600080fd5b813561319c816133d1565b6000806040838503121561344f57600080fd5b823561345a816133d1565b946020939093013593505050565b60006020828403121561347a57600080fd5b5035919050565b60008083601f84011261349357600080fd5b50813567ffffffffffffffff8111156134ab57600080fd5b6020830191508360208260051b85010111156134c657600080fd5b9250929050565b600080602083850312156134e057600080fd5b823567ffffffffffffffff8111156134f757600080fd5b61350385828601613481565b90969095509350505050565b6000806040838503121561352257600080fd5b50508035926020909101359150565b60008060006060848603121561354657600080fd5b8335613551816133d1565b92506020840135613561816133d1565b929592945050506040919091013590565b602080825282518282018190526000918401906040840190835b818110156135b35783516001600160a01b031683526020938401939092019160010161358c565b509095945050505050565b6020808252601a908201527f43616c6c6572206973206e6f742074686520476f7665726e6f72000000000000604082015260600190565b634e487b7160e01b600052603260045260246000fd5b60006020828403121561361d57600080fd5b815161319c816133d1565b6020808252602b908201527f43616c6c6572206973206e6f7420746865205265676973747261746f72206f7260408201526a0814dd1c985d1959da5cdd60aa1b606082015260800190565b6020808252600e908201526d1499595b9d1c985b9d0818d85b1b60921b604082015260600190565b634e487b7160e01b600052601160045260246000fd5b818103818111156136c4576136c461369b565b92915050565b805160208201516001600160e01b031981169190600482101561177e576001600160e01b031960049290920360031b82901b161692915050565b60208082526017908201527f43616c6c6572206973206e6f7420746865205661756c74000000000000000000604082015260600190565b602080825260119082015270155b9cdd5c1c1bdc9d195908185cdcd95d607a1b604082015260600190565b6001600160a01b03929092168252602082015260400190565b60006020828403121561379157600080fd5b5051919050565b60208082526017908201527f56616c696461746f72206e6f7420737570706f72746564000000000000000000604082015260600190565b808201808211156136c4576136c461369b565b6040808252845490820181905260008581526020812090916060840190835b818110156138285783546001600160a01b0316835260019384019360209093019201613801565b50508381036020808601919091528582520190508460005b85811015613871578135613853816133d1565b6001600160a01b031683526020928301929190910190600101613840565b50909695505050505050565b634e487b7160e01b600052603160045260246000fd5b6000602082840312156138a557600080fd5b8151801515811461319c57600080fd5b6000600182016138c7576138c761369b565b5060010190565b60005b838110156138e95781810151838201526020016138d1565b50506000910152565b600082516139048184602087016138ce565b9190910192915050565b602081526000825180602084015261392d8160408501602087016138ce565b601f01601f1916919091016040019291505056fe53bf423e48ed90e97d02ab0ebab13b2a235a6bfbe9c321847d5c175333ac45357bea13895fa79d2831e0a9e28edede30099005a50d652d8957cf8a607ee6ca4aa2646970667358221220885a148a4df6a35fcde902d7ecbe70ee8410d21d33325654d3f80b48d9eb7bb064736f6c634300081c0033",
  "libraries": {},
  "devdoc": {
    "author": "Origin Protocol Inc",
    "kind": "dev",
    "methods": {
      "checkBalance(address)": {
        "params": {
          "_asset": "Address of Wrapped Sonic (wS) token"
        },
        "returns": {
          "balance": "   Total value managed by the strategy"
        }
      },
      "collectRewards(uint256[])": {
        "params": {
          "_validatorIds": "List of Sonic validator IDs to claim rewards"
        }
      },
      "deposit(address,uint256)": {
        "params": {
          "_amount": "Amount of assets that were transferred to the strategy by the vault.",
          "_asset": "Address of asset to deposit. Has to be Wrapped Sonic (wS)."
        }
      },
      "getRewardTokenAddresses()": {
        "returns": {
          "_0": "address[] the reward token addresses."
        }
      },
      "isSupportedValidator(uint256)": {
        "params": {
          "_validatorId": "The validator identifier"
        }
      },
      "isWithdrawnFromSFC(uint256)": {
        "params": {
          "_withdrawId": "The unique withdraw ID used to `undelegate`"
        }
      },
      "restakeRewards(uint256[])": {
        "params": {
          "_validatorIds": "List of Sonic validator IDs to restake rewards"
        }
      },
      "setDefaultValidatorId(uint256)": {
        "params": {
          "_validatorId": "The validator identifier. eg 18"
        }
      },
      "setHarvesterAddress(address)": {
        "params": {
          "_harvesterAddress": "Address of the harvester contract."
        }
      },
      "setRegistrator(address)": {
        "params": {
          "_validatorRegistrator": "The address of the Registrator"
        }
      },
      "setRewardTokenAddresses(address[])": {
        "params": {
          "_rewardTokenAddresses": "Array of reward token addresses"
        }
      },
      "supportValidator(uint256)": {
        "params": {
          "_validatorId": "The validator identifier. eg 18"
        }
      },
      "supportsAsset(address)": {
        "details": "Returns bool indicating whether asset is supported by strategy",
        "params": {
          "_asset": "Address of the asset token"
        }
      },
      "transferGovernance(address)": {
        "params": {
          "_newGovernor": "Address of the new Governor"
        }
      },
      "transferToken(address,uint256)": {
        "params": {
          "_amount": "Amount of the asset to transfer",
          "_asset": "Address for the asset"
        }
      },
      "undelegate(uint256,uint256)": {
        "params": {
          "_undelegateAmount": "the amount of Sonic (S) to undelegate.",
          "_validatorId": "The Sonic validator ID to undelegate from."
        },
        "returns": {
          "withdrawId": "The unique ID of the withdrawal request."
        }
      },
      "unsupportValidator(uint256)": {
        "params": {
          "_validatorId": "The validator identifier. eg 18"
        }
      },
      "withdraw(address,address,uint256)": {
        "params": {
          "_amount": "Amount of Wrapped Sonic (wS) to withdraw",
          "_asset": "Address of the Wrapped Sonic (wS) token",
          "_recipient": "Address to receive withdrawn assets"
        }
      },
      "withdrawFromSFC(uint256)": {
        "params": {
          "_withdrawId": "The unique withdraw ID used to `undelegate`"
        },
        "returns": {
          "withdrawnAmount": "The amount of Sonic (S) withdrawn. This can be less than the undelegated amount in the event of slashing."
        }
      }
    },
    "title": "Staking Strategy for Sonic's native S currency",
    "version": 1
  },
  "userdoc": {
    "kind": "user",
    "methods": {
      "assetToPToken(address)": {
        "notice": "asset => pToken (Platform Specific Token Address)"
      },
      "checkBalance(address)": {
        "notice": "Returns the total value of Sonic (S) that is delegated validators. Wrapped Sonic (wS) deposits that are still to be delegated and any undelegated amounts still pending a withdrawal."
      },
      "claimGovernance()": {
        "notice": "Claim Governance of the contract to a new account (`newGovernor`). Can only be called by the new Governor."
      },
      "collectRewardTokens()": {
        "notice": "is not used by this strategy as all staking rewards are restaked"
      },
      "collectRewards(uint256[])": {
        "notice": "Claim any pending rewards from validators"
      },
      "defaultValidatorId()": {
        "notice": "Default validator id to deposit to"
      },
      "deposit(address,uint256)": {
        "notice": "Deposit wrapped S asset into the underlying platform."
      },
      "depositAll()": {
        "notice": "Deposit the entire balance of wrapped S in this strategy contract into the underlying platform."
      },
      "getRewardTokenAddresses()": {
        "notice": "Get the reward token addresses."
      },
      "governor()": {
        "notice": "Returns the address of the current Governor."
      },
      "harvesterAddress()": {
        "notice": "Address of the Harvester contract allowed to collect reward tokens"
      },
      "isGovernor()": {
        "notice": "Returns true if the caller is the current Governor."
      },
      "isSupportedValidator(uint256)": {
        "notice": "Returns whether a validator is supported by this strategy"
      },
      "isWithdrawnFromSFC(uint256)": {
        "notice": "returns a bool whether a withdrawalId has already been withdrawn or not"
      },
      "nextWithdrawId()": {
        "notice": "a unique ID for each withdrawal request"
      },
      "pendingWithdrawals()": {
        "notice": "Sonic (S) that is pending withdrawal after undelegating"
      },
      "platformAddress()": {
        "notice": "Address of the underlying platform"
      },
      "removePToken(uint256)": {
        "notice": "is not supported for this strategy as the Wrapped Sonic (wS) token is set at deploy time."
      },
      "restakeRewards(uint256[])": {
        "notice": "Restake any pending validator rewards for all supported validators"
      },
      "rewardTokenAddresses(uint256)": {
        "notice": "Address of the reward tokens. eg CRV, BAL, CVX, AURA"
      },
      "safeApproveAllTokens()": {
        "notice": "is not used by this strategy"
      },
      "setDefaultValidatorId(uint256)": {
        "notice": "Set the default validatorId to delegate to on deposit"
      },
      "setHarvesterAddress(address)": {
        "notice": "Set the Harvester contract that can collect rewards."
      },
      "setPTokenAddress(address,address)": {
        "notice": "is not supported for this strategy as the Wrapped Sonic (wS) token is set at deploy time."
      },
      "setRegistrator(address)": {
        "notice": "Set the address of the Registrator which can undelegate, withdraw and collect rewards"
      },
      "setRewardTokenAddresses(address[])": {
        "notice": "Set the reward token addresses. Any old addresses will be overwritten."
      },
      "sfc()": {
        "notice": "Sonic's Special Fee Contract (SFC)"
      },
      "supportValidator(uint256)": {
        "notice": "Allows a validator to be delegated to by the Registrator"
      },
      "supportedValidators(uint256)": {
        "notice": "List of supported validator IDs that can be delegated to"
      },
      "supportedValidatorsLength()": {
        "notice": "Returns the length of the supportedValidators array"
      },
      "transferGovernance(address)": {
        "notice": "Transfers Governance of the contract to a new account (`newGovernor`). Can only be called by the current Governor. Must be claimed for this to complete"
      },
      "transferToken(address,uint256)": {
        "notice": "Transfer token to governor. Intended for recovering tokens stuck in      strategy contracts, i.e. mistaken sends."
      },
      "undelegate(uint256,uint256)": {
        "notice": "Undelegate from a specific Sonic validator. This needs to be followed by a `withdrawFromSFC` two weeks later."
      },
      "unsupportValidator(uint256)": {
        "notice": "Removes a validator from the supported list. Unsupported validators can still be undelegated from, withdrawn from and rewards collected."
      },
      "validatorRegistrator()": {
        "notice": "Address of the registrator - allowed to register, exit and remove validators"
      },
      "vaultAddress()": {
        "notice": "Address of the OToken vault"
      },
      "withdraw(address,address,uint256)": {
        "notice": "Withdraw Wrapped Sonic (wS) from this strategy contract. Used only if some wS is lingering on the contract. That can happen only when someone sends wS directly to this contract"
      },
      "withdrawAll()": {
        "notice": "Transfer all Wrapped Sonic (wS) deposits back to the vault. This does not withdraw from delegated validators. That has to be done separately with `undelegate`. Any native S in this strategy will be withdrawn."
      },
      "withdrawFromSFC(uint256)": {
        "notice": "Withdraw native S from a previously undelegated validator. The native S is wrapped wS and transferred to the Vault."
      },
      "withdrawals(uint256)": {
        "notice": "Mapping of withdrawIds to validatorIds and undelegatedAmounts"
      },
      "wrappedSonic()": {
        "notice": "Address of Sonic's wrapped S token"
      }
    },
    "version": 1
  },
  "storageLayout": {
    "storage": [
      {
        "astId": 6477,
        "contract": "contracts/strategies/sonic/SonicStakingStrategy.sol:SonicStakingStrategy",
        "label": "initialized",
        "offset": 0,
        "slot": "0",
        "type": "t_bool"
      },
      {
        "astId": 6480,
        "contract": "contracts/strategies/sonic/SonicStakingStrategy.sol:SonicStakingStrategy",
        "label": "initializing",
        "offset": 1,
        "slot": "0",
        "type": "t_bool"
      },
      {
        "astId": 6520,
        "contract": "contracts/strategies/sonic/SonicStakingStrategy.sol:SonicStakingStrategy",
        "label": "______gap",
        "offset": 0,
        "slot": "1",
        "type": "t_array(t_uint256)50_storage"
      },
      {
        "astId": 6600,
        "contract": "contracts/strategies/sonic/SonicStakingStrategy.sol:SonicStakingStrategy",
        "label": "_deprecated_platformAddress",
        "offset": 0,
        "slot": "51",
        "type": "t_address"
      },
      {
        "astId": 6603,
        "contract": "contracts/strategies/sonic/SonicStakingStrategy.sol:SonicStakingStrategy",
        "label": "_deprecated_vaultAddress",
        "offset": 0,
        "slot": "52",
        "type": "t_address"
      },
      {
        "astId": 6608,
        "contract": "contracts/strategies/sonic/SonicStakingStrategy.sol:SonicStakingStrategy",
        "label": "assetToPToken",
        "offset": 0,
        "slot": "53",
        "type": "t_mapping(t_address,t_address)"
      },
      {
        "astId": 6612,
        "contract": "contracts/strategies/sonic/SonicStakingStrategy.sol:SonicStakingStrategy",
        "label": "assetsMapped",
        "offset": 0,
        "slot": "54",
        "type": "t_array(t_address)dyn_storage"
      },
      {
        "astId": 6614,
        "contract": "contracts/strategies/sonic/SonicStakingStrategy.sol:SonicStakingStrategy",
        "label": "_deprecated_rewardTokenAddress",
        "offset": 0,
        "slot": "55",
        "type": "t_address"
      },
      {
        "astId": 6616,
        "contract": "contracts/strategies/sonic/SonicStakingStrategy.sol:SonicStakingStrategy",
        "label": "_deprecated_rewardLiquidationThreshold",
        "offset": 0,
        "slot": "56",
        "type": "t_uint256"
      },
      {
        "astId": 6619,
        "contract": "contracts/strategies/sonic/SonicStakingStrategy.sol:SonicStakingStrategy",
        "label": "harvesterAddress",
        "offset": 0,
        "slot": "57",
        "type": "t_address"
      },
      {
        "astId": 6623,
        "contract": "contracts/strategies/sonic/SonicStakingStrategy.sol:SonicStakingStrategy",
        "label": "rewardTokenAddresses",
        "offset": 0,
        "slot": "58",
        "type": "t_array(t_address)dyn_storage"
      },
      {
        "astId": 6627,
        "contract": "contracts/strategies/sonic/SonicStakingStrategy.sol:SonicStakingStrategy",
        "label": "_reserved",
        "offset": 0,
        "slot": "59",
        "type": "t_array(t_int256)98_storage"
      },
      {
        "astId": 3859,
        "contract": "contracts/strategies/sonic/SonicStakingStrategy.sol:SonicStakingStrategy",
        "label": "nextWithdrawId",
        "offset": 0,
        "slot": "157",
        "type": "t_uint256"
      },
      {
        "astId": 3862,
        "contract": "contracts/strategies/sonic/SonicStakingStrategy.sol:SonicStakingStrategy",
        "label": "pendingWithdrawals",
        "offset": 0,
        "slot": "158",
        "type": "t_uint256"
      },
      {
        "astId": 3866,
        "contract": "contracts/strategies/sonic/SonicStakingStrategy.sol:SonicStakingStrategy",
        "label": "supportedValidators",
        "offset": 0,
        "slot": "159",
        "type": "t_array(t_uint256)dyn_storage"
      },
      {
        "astId": 3869,
        "contract": "contracts/strategies/sonic/SonicStakingStrategy.sol:SonicStakingStrategy",
        "label": "defaultValidatorId",
        "offset": 0,
        "slot": "160",
        "type": "t_uint256"
      },
      {
        "astId": 3882,
        "contract": "contracts/strategies/sonic/SonicStakingStrategy.sol:SonicStakingStrategy",
        "label": "withdrawals",
        "offset": 0,
        "slot": "161",
        "type": "t_mapping(t_uint256,t_struct(WithdrawRequest)3876_storage)"
      },
      {
        "astId": 3885,
        "contract": "contracts/strategies/sonic/SonicStakingStrategy.sol:SonicStakingStrategy",
        "label": "validatorRegistrator",
        "offset": 0,
        "slot": "162",
        "type": "t_address"
      },
      {
        "astId": 3889,
        "contract": "contracts/strategies/sonic/SonicStakingStrategy.sol:SonicStakingStrategy",
        "label": "__gap",
        "offset": 0,
        "slot": "163",
        "type": "t_array(t_uint256)44_storage"
      },
      {
        "astId": 3529,
        "contract": "contracts/strategies/sonic/SonicStakingStrategy.sol:SonicStakingStrategy",
        "label": "__gap",
        "offset": 0,
        "slot": "207",
        "type": "t_array(t_uint256)50_storage"
      }
    ],
    "types": {
      "t_address": {
        "encoding": "inplace",
        "label": "address",
        "numberOfBytes": "20"
      },
      "t_array(t_address)dyn_storage": {
        "base": "t_address",
        "encoding": "dynamic_array",
        "label": "address[]",
        "numberOfBytes": "32"
      },
      "t_array(t_int256)98_storage": {
        "base": "t_int256",
        "encoding": "inplace",
        "label": "int256[98]",
        "numberOfBytes": "3136"
      },
      "t_array(t_uint256)44_storage": {
        "base": "t_uint256",
        "encoding": "inplace",
        "label": "uint256[44]",
        "numberOfBytes": "1408"
      },
      "t_array(t_uint256)50_storage": {
        "base": "t_uint256",
        "encoding": "inplace",
        "label": "uint256[50]",
        "numberOfBytes": "1600"
      },
      "t_array(t_uint256)dyn_storage": {
        "base": "t_uint256",
        "encoding": "dynamic_array",
        "label": "uint256[]",
        "numberOfBytes": "32"
      },
      "t_bool": {
        "encoding": "inplace",
        "label": "bool",
        "numberOfBytes": "1"
      },
      "t_int256": {
        "encoding": "inplace",
        "label": "int256",
        "numberOfBytes": "32"
      },
      "t_mapping(t_address,t_address)": {
        "encoding": "mapping",
        "key": "t_address",
        "label": "mapping(address => address)",
        "numberOfBytes": "32",
        "value": "t_address"
      },
      "t_mapping(t_uint256,t_struct(WithdrawRequest)3876_storage)": {
        "encoding": "mapping",
        "key": "t_uint256",
        "label": "mapping(uint256 => struct SonicValidatorDelegator.WithdrawRequest)",
        "numberOfBytes": "32",
        "value": "t_struct(WithdrawRequest)3876_storage"
      },
      "t_struct(WithdrawRequest)3876_storage": {
        "encoding": "inplace",
        "label": "struct SonicValidatorDelegator.WithdrawRequest",
        "members": [
          {
            "astId": 3871,
            "contract": "contracts/strategies/sonic/SonicStakingStrategy.sol:SonicStakingStrategy",
            "label": "validatorId",
            "offset": 0,
            "slot": "0",
            "type": "t_uint256"
          },
          {
            "astId": 3873,
            "contract": "contracts/strategies/sonic/SonicStakingStrategy.sol:SonicStakingStrategy",
            "label": "undelegatedAmount",
            "offset": 0,
            "slot": "1",
            "type": "t_uint256"
          },
          {
            "astId": 3875,
            "contract": "contracts/strategies/sonic/SonicStakingStrategy.sol:SonicStakingStrategy",
            "label": "timestamp",
            "offset": 0,
            "slot": "2",
            "type": "t_uint256"
          }
        ],
        "numberOfBytes": "96"
      },
      "t_uint256": {
        "encoding": "inplace",
        "label": "uint256",
        "numberOfBytes": "32"
      }
    }
  }
}