{
  "address": "0x37f9477EFc92e585125C54263ba422177FA1BB29",
  "abi": [
    {
      "inputs": [
        {
          "components": [
            {
              "internalType": "address",
              "name": "platformAddress",
              "type": "address"
            },
            {
              "internalType": "address",
              "name": "vaultAddress",
              "type": "address"
            }
          ],
          "internalType": "struct InitializableAbstractStrategy.BaseStrategyConfig",
          "name": "_baseConfig",
          "type": "tuple"
        },
        {
          "internalType": "address",
          "name": "_os",
          "type": "address"
        },
        {
          "internalType": "address",
          "name": "_ws",
          "type": "address"
        },
        {
          "internalType": "address",
          "name": "_gauge",
          "type": "address"
        }
      ],
      "stateMutability": "nonpayable",
      "type": "constructor"
    },
    {
      "anonymous": false,
      "inputs": [
        {
          "indexed": true,
          "internalType": "address",
          "name": "_asset",
          "type": "address"
        },
        {
          "indexed": false,
          "internalType": "address",
          "name": "_pToken",
          "type": "address"
        },
        {
          "indexed": false,
          "internalType": "uint256",
          "name": "_amount",
          "type": "uint256"
        }
      ],
      "name": "Deposit",
      "type": "event"
    },
    {
      "anonymous": false,
      "inputs": [
        {
          "indexed": true,
          "internalType": "address",
          "name": "previousGovernor",
          "type": "address"
        },
        {
          "indexed": true,
          "internalType": "address",
          "name": "newGovernor",
          "type": "address"
        }
      ],
      "name": "GovernorshipTransferred",
      "type": "event"
    },
    {
      "anonymous": false,
      "inputs": [
        {
          "indexed": false,
          "internalType": "address",
          "name": "_oldHarvesterAddress",
          "type": "address"
        },
        {
          "indexed": false,
          "internalType": "address",
          "name": "_newHarvesterAddress",
          "type": "address"
        }
      ],
      "name": "HarvesterAddressesUpdated",
      "type": "event"
    },
    {
      "anonymous": false,
      "inputs": [
        {
          "indexed": false,
          "internalType": "uint256",
          "name": "maxDepeg",
          "type": "uint256"
        }
      ],
      "name": "MaxDepegUpdated",
      "type": "event"
    },
    {
      "anonymous": false,
      "inputs": [
        {
          "indexed": true,
          "internalType": "address",
          "name": "_asset",
          "type": "address"
        },
        {
          "indexed": false,
          "internalType": "address",
          "name": "_pToken",
          "type": "address"
        }
      ],
      "name": "PTokenAdded",
      "type": "event"
    },
    {
      "anonymous": false,
      "inputs": [
        {
          "indexed": true,
          "internalType": "address",
          "name": "_asset",
          "type": "address"
        },
        {
          "indexed": false,
          "internalType": "address",
          "name": "_pToken",
          "type": "address"
        }
      ],
      "name": "PTokenRemoved",
      "type": "event"
    },
    {
      "anonymous": false,
      "inputs": [
        {
          "indexed": true,
          "internalType": "address",
          "name": "previousGovernor",
          "type": "address"
        },
        {
          "indexed": true,
          "internalType": "address",
          "name": "newGovernor",
          "type": "address"
        }
      ],
      "name": "PendingGovernorshipTransfer",
      "type": "event"
    },
    {
      "anonymous": false,
      "inputs": [
        {
          "indexed": false,
          "internalType": "address[]",
          "name": "_oldAddresses",
          "type": "address[]"
        },
        {
          "indexed": false,
          "internalType": "address[]",
          "name": "_newAddresses",
          "type": "address[]"
        }
      ],
      "name": "RewardTokenAddressesUpdated",
      "type": "event"
    },
    {
      "anonymous": false,
      "inputs": [
        {
          "indexed": false,
          "internalType": "address",
          "name": "recipient",
          "type": "address"
        },
        {
          "indexed": false,
          "internalType": "address",
          "name": "rewardToken",
          "type": "address"
        },
        {
          "indexed": false,
          "internalType": "uint256",
          "name": "amount",
          "type": "uint256"
        }
      ],
      "name": "RewardTokenCollected",
      "type": "event"
    },
    {
      "anonymous": false,
      "inputs": [
        {
          "indexed": false,
          "internalType": "uint256",
          "name": "wsSwapped",
          "type": "uint256"
        },
        {
          "indexed": false,
          "internalType": "uint256",
          "name": "lpTokens",
          "type": "uint256"
        },
        {
          "indexed": false,
          "internalType": "uint256",
          "name": "osBurnt",
          "type": "uint256"
        }
      ],
      "name": "SwapAssetsToPool",
      "type": "event"
    },
    {
      "anonymous": false,
      "inputs": [
        {
          "indexed": false,
          "internalType": "uint256",
          "name": "osMinted",
          "type": "uint256"
        },
        {
          "indexed": false,
          "internalType": "uint256",
          "name": "wsDepositAmount",
          "type": "uint256"
        },
        {
          "indexed": false,
          "internalType": "uint256",
          "name": "osDepositAmount",
          "type": "uint256"
        },
        {
          "indexed": false,
          "internalType": "uint256",
          "name": "lpTokens",
          "type": "uint256"
        }
      ],
      "name": "SwapOTokensToPool",
      "type": "event"
    },
    {
      "anonymous": false,
      "inputs": [
        {
          "indexed": true,
          "internalType": "address",
          "name": "_asset",
          "type": "address"
        },
        {
          "indexed": false,
          "internalType": "address",
          "name": "_pToken",
          "type": "address"
        },
        {
          "indexed": false,
          "internalType": "uint256",
          "name": "_amount",
          "type": "uint256"
        }
      ],
      "name": "Withdrawal",
      "type": "event"
    },
    {
      "inputs": [],
      "name": "PRECISION",
      "outputs": [
        {
          "internalType": "uint256",
          "name": "",
          "type": "uint256"
        }
      ],
      "stateMutability": "view",
      "type": "function"
    },
    {
      "inputs": [],
      "name": "SOLVENCY_THRESHOLD",
      "outputs": [
        {
          "internalType": "uint256",
          "name": "",
          "type": "uint256"
        }
      ],
      "stateMutability": "view",
      "type": "function"
    },
    {
      "inputs": [
        {
          "internalType": "address",
          "name": "",
          "type": "address"
        }
      ],
      "name": "assetToPToken",
      "outputs": [
        {
          "internalType": "address",
          "name": "",
          "type": "address"
        }
      ],
      "stateMutability": "view",
      "type": "function"
    },
    {
      "inputs": [
        {
          "internalType": "address",
          "name": "_asset",
          "type": "address"
        }
      ],
      "name": "checkBalance",
      "outputs": [
        {
          "internalType": "uint256",
          "name": "balance",
          "type": "uint256"
        }
      ],
      "stateMutability": "view",
      "type": "function"
    },
    {
      "inputs": [],
      "name": "claimGovernance",
      "outputs": [],
      "stateMutability": "nonpayable",
      "type": "function"
    },
    {
      "inputs": [],
      "name": "collectRewardTokens",
      "outputs": [],
      "stateMutability": "nonpayable",
      "type": "function"
    },
    {
      "inputs": [
        {
          "internalType": "address",
          "name": "_asset",
          "type": "address"
        },
        {
          "internalType": "uint256",
          "name": "_wsAmount",
          "type": "uint256"
        }
      ],
      "name": "deposit",
      "outputs": [],
      "stateMutability": "nonpayable",
      "type": "function"
    },
    {
      "inputs": [],
      "name": "depositAll",
      "outputs": [],
      "stateMutability": "nonpayable",
      "type": "function"
    },
    {
      "inputs": [],
      "name": "gauge",
      "outputs": [
        {
          "internalType": "address",
          "name": "",
          "type": "address"
        }
      ],
      "stateMutability": "view",
      "type": "function"
    },
    {
      "inputs": [],
      "name": "getRewardTokenAddresses",
      "outputs": [
        {
          "internalType": "address[]",
          "name": "",
          "type": "address[]"
        }
      ],
      "stateMutability": "view",
      "type": "function"
    },
    {
      "inputs": [],
      "name": "governor",
      "outputs": [
        {
          "internalType": "address",
          "name": "",
          "type": "address"
        }
      ],
      "stateMutability": "view",
      "type": "function"
    },
    {
      "inputs": [],
      "name": "harvesterAddress",
      "outputs": [
        {
          "internalType": "address",
          "name": "",
          "type": "address"
        }
      ],
      "stateMutability": "view",
      "type": "function"
    },
    {
      "inputs": [
        {
          "internalType": "address[]",
          "name": "_rewardTokenAddresses",
          "type": "address[]"
        },
        {
          "internalType": "uint256",
          "name": "_maxDepeg",
          "type": "uint256"
        }
      ],
      "name": "initialize",
      "outputs": [],
      "stateMutability": "nonpayable",
      "type": "function"
    },
    {
      "inputs": [],
      "name": "isGovernor",
      "outputs": [
        {
          "internalType": "bool",
          "name": "",
          "type": "bool"
        }
      ],
      "stateMutability": "view",
      "type": "function"
    },
    {
      "inputs": [],
      "name": "maxDepeg",
      "outputs": [
        {
          "internalType": "uint256",
          "name": "",
          "type": "uint256"
        }
      ],
      "stateMutability": "view",
      "type": "function"
    },
    {
      "inputs": [],
      "name": "os",
      "outputs": [
        {
          "internalType": "address",
          "name": "",
          "type": "address"
        }
      ],
      "stateMutability": "view",
      "type": "function"
    },
    {
      "inputs": [],
      "name": "platformAddress",
      "outputs": [
        {
          "internalType": "address",
          "name": "",
          "type": "address"
        }
      ],
      "stateMutability": "view",
      "type": "function"
    },
    {
      "inputs": [],
      "name": "pool",
      "outputs": [
        {
          "internalType": "address",
          "name": "",
          "type": "address"
        }
      ],
      "stateMutability": "view",
      "type": "function"
    },
    {
      "inputs": [
        {
          "internalType": "uint256",
          "name": "_assetIndex",
          "type": "uint256"
        }
      ],
      "name": "removePToken",
      "outputs": [],
      "stateMutability": "nonpayable",
      "type": "function"
    },
    {
      "inputs": [
        {
          "internalType": "uint256",
          "name": "",
          "type": "uint256"
        }
      ],
      "name": "rewardTokenAddresses",
      "outputs": [
        {
          "internalType": "address",
          "name": "",
          "type": "address"
        }
      ],
      "stateMutability": "view",
      "type": "function"
    },
    {
      "inputs": [],
      "name": "safeApproveAllTokens",
      "outputs": [],
      "stateMutability": "nonpayable",
      "type": "function"
    },
    {
      "inputs": [
        {
          "internalType": "address",
          "name": "_harvesterAddress",
          "type": "address"
        }
      ],
      "name": "setHarvesterAddress",
      "outputs": [],
      "stateMutability": "nonpayable",
      "type": "function"
    },
    {
      "inputs": [
        {
          "internalType": "uint256",
          "name": "_maxDepeg",
          "type": "uint256"
        }
      ],
      "name": "setMaxDepeg",
      "outputs": [],
      "stateMutability": "nonpayable",
      "type": "function"
    },
    {
      "inputs": [
        {
          "internalType": "address",
          "name": "_asset",
          "type": "address"
        },
        {
          "internalType": "address",
          "name": "_pToken",
          "type": "address"
        }
      ],
      "name": "setPTokenAddress",
      "outputs": [],
      "stateMutability": "nonpayable",
      "type": "function"
    },
    {
      "inputs": [
        {
          "internalType": "address[]",
          "name": "_rewardTokenAddresses",
          "type": "address[]"
        }
      ],
      "name": "setRewardTokenAddresses",
      "outputs": [],
      "stateMutability": "nonpayable",
      "type": "function"
    },
    {
      "inputs": [
        {
          "internalType": "address",
          "name": "_asset",
          "type": "address"
        }
      ],
      "name": "supportsAsset",
      "outputs": [
        {
          "internalType": "bool",
          "name": "",
          "type": "bool"
        }
      ],
      "stateMutability": "view",
      "type": "function"
    },
    {
      "inputs": [
        {
          "internalType": "uint256",
          "name": "_wsAmount",
          "type": "uint256"
        }
      ],
      "name": "swapAssetsToPool",
      "outputs": [],
      "stateMutability": "nonpayable",
      "type": "function"
    },
    {
      "inputs": [
        {
          "internalType": "uint256",
          "name": "_osAmount",
          "type": "uint256"
        }
      ],
      "name": "swapOTokensToPool",
      "outputs": [],
      "stateMutability": "nonpayable",
      "type": "function"
    },
    {
      "inputs": [
        {
          "internalType": "address",
          "name": "_newGovernor",
          "type": "address"
        }
      ],
      "name": "transferGovernance",
      "outputs": [],
      "stateMutability": "nonpayable",
      "type": "function"
    },
    {
      "inputs": [
        {
          "internalType": "address",
          "name": "_asset",
          "type": "address"
        },
        {
          "internalType": "uint256",
          "name": "_amount",
          "type": "uint256"
        }
      ],
      "name": "transferToken",
      "outputs": [],
      "stateMutability": "nonpayable",
      "type": "function"
    },
    {
      "inputs": [],
      "name": "vaultAddress",
      "outputs": [
        {
          "internalType": "address",
          "name": "",
          "type": "address"
        }
      ],
      "stateMutability": "view",
      "type": "function"
    },
    {
      "inputs": [
        {
          "internalType": "address",
          "name": "_recipient",
          "type": "address"
        },
        {
          "internalType": "address",
          "name": "_asset",
          "type": "address"
        },
        {
          "internalType": "uint256",
          "name": "_wsAmount",
          "type": "uint256"
        }
      ],
      "name": "withdraw",
      "outputs": [],
      "stateMutability": "nonpayable",
      "type": "function"
    },
    {
      "inputs": [],
      "name": "withdrawAll",
      "outputs": [],
      "stateMutability": "nonpayable",
      "type": "function"
    },
    {
      "inputs": [],
      "name": "ws",
      "outputs": [
        {
          "internalType": "address",
          "name": "",
          "type": "address"
        }
      ],
      "stateMutability": "view",
      "type": "function"
    }
  ],
  "transactionHash": "0x5fd177034390150a80cc07a82eb6fddb9082021bd28a1c08d4d537cfa926ae75",
  "args": [
    [
      "0xcfE67b6c7B65c8d038e666b3241a161888B7f2b0",
      "0xa3c0eCA00D2B76b4d1F170b0AB3FdeA16C180186"
    ],
    "0xb1e25689D55734FD3ffFc939c4C3Eb52DFf8A794",
    "0x039e2fB66102314Ce7b64Ce5Ce3E5183bc94aD38",
    "0x083D761B2A3e1fb5914FA61c6Bf11A93dcb60709"
  ],
  "numDeployments": 1,
  "solcInputHash": "ea5866f942a7edcd1f4e3b18c390601e",
  "bytecode": "0x61014060405234801561001157600080fd5b50604051615a86380380615a86833981016040819052610030916104c9565b83516001600160a01b03908116608052602080860151821660a052855160408051630dfe168160e01b81529051868516949290921692630dfe1681926004808401938290030181865afa15801561008b573d6000803e3d6000fd5b505050506040513d601f19601f820116820180604052508101906100af9190610573565b6001600160a01b031614801561013b5750826001600160a01b031684600001516001600160a01b031663d21220a76040518163ffffffff1660e01b8152600401602060405180830381865afa15801561010c573d6000803e3d6000fd5b505050506040513d601f19601f820116820180604052508101906101309190610573565b6001600160a01b0316145b61018c5760405162461bcd60e51b815260206004820152601560248201527f496e636f727265637420706f6f6c20746f6b656e73000000000000000000000060448201526064015b60405180910390fd5b816001600160a01b031663313ce5676040518163ffffffff1660e01b8152600401602060405180830381865afa1580156101ca573d6000803e3d6000fd5b505050506040513d601f19601f820116820180604052508101906101ee9190610595565b60ff1660121480156102645750826001600160a01b031663313ce5676040518163ffffffff1660e01b8152600401602060405180830381865afa158015610239573d6000803e3d6000fd5b505050506040513d601f19601f8201168201806040525081019061025d9190610595565b60ff166012145b6102b05760405162461bcd60e51b815260206004820152601860248201527f496e636f727265637420746f6b656e20646563696d616c7300000000000000006044820152606401610183565b83600001516001600160a01b03166309047bdd6040518163ffffffff1660e01b8152600401602060405180830381865afa1580156102f2573d6000803e3d6000fd5b505050506040513d601f19601f8201168201806040525081019061031691906105b8565b15156001146103595760405162461bcd60e51b815260206004820152600f60248201526e506f6f6c206e6f7420737461626c6560881b6044820152606401610183565b83600001516001600160a01b0316816001600160a01b03166382bfefc86040518163ffffffff1660e01b8152600401602060405180830381865afa1580156103a5573d6000803e3d6000fd5b505050506040513d601f19601f820116820180604052508101906103c99190610573565b6001600160a01b0316146104115760405162461bcd60e51b815260206004820152600f60248201526e496e636f727265637420676175676560881b6044820152606401610183565b6001600160a01b0380841660e05282811660c052845181166101005281166101205261043d6000610446565b505050506105da565b6001600160a01b038116610466600080516020615a668339815191525490565b6001600160a01b03167fc7c0c772add429241571afb3805861fb3cfa2af374534088b76cdb4325a87e9a60405160405180910390a3600080516020615a6683398151915255565b80516001600160a01b03811681146104c457600080fd5b919050565b60008060008084860360a08112156104e057600080fd5b60408112156104ee57600080fd5b50604080519081016001600160401b038111828210171561051f57634e487b7160e01b600052604160045260246000fd5b60405261052b866104ad565b8152610539602087016104ad565b6020820152935061054c604086016104ad565b925061055a606086016104ad565b9150610568608086016104ad565b905092959194509250565b60006020828403121561058557600080fd5b61058e826104ad565b9392505050565b6000602082840312156105a757600080fd5b815160ff8116811461058e57600080fd5b6000602082840312156105ca57600080fd5b8151801515811461058e57600080fd5b60805160a05160c05160e0516101005161012051615150610916600039600081816103e401528181610bd401528181610df801528181611234015281816112ba01528181613a0e01528181613a7f01528181613c5201528181613d29015261457b01526000818161029d01528181610731015281816107e4015281816108a301528181610a8c01528181610afd01528181610f73015281816111b90152818161157b015281816115ec01528181611914015281816119cf01528181611d0a01528181611d9b0152818161234601528181612739015281816127aa0152818161288001528181612933015281816129f201528181612bd401528181612c4501528181612e0901528181612ec401528181613161015281816131df0152818161377801528181613810015281816139e101528181613b0701528181613b8201528181613bc701528181613d9201528181613e4001528181613e8e0152818161409801528181614111015281816141d50152818161434f0152818161445f015281816144b301526144ed0152600081816104a0015281816107b801528181610ac40152818161136f015281816115b301528181611a9101528181611be501528181611cd9015281816124fa015281816127710152818161290701528181612c0c01528181612ff20152818161302e015281816131280152818161351901528181613f3b01528181613f77015261449101526000818161037c01528181610416015281816105b201528181610875015281816109a301528181610a5301528181610cfe01528181610d6201528181610fe401528181611476015281816114f90152818161154201528181611c0601528181611c42015281816123fc01528181612600015281816126cf01528181612700015281816129c401528181612b0801528181612b9b01528181612fd101528181613eff01528181613fb30152818161402b015261443d0152600081816102e6015281816106a9015281816110d2015281816113fb0152818161151b015281816117f901528181611b7b015281816122be0152818161244d01528181612586015281816127f801528181612cee015281816130ba0152818161341a0152613493015260006104da01526151506000f3fe608060405234801561001057600080fd5b50600436106102065760003560e01c8063853828b61161011a578063c2e1e3f4116100ad578063d9caed121161007c578063d9caed12146104c2578063dbe55e56146104d5578063de5f6268146104fc578063f6ca71b014610504578063fd2816911461051957600080fd5b8063c2e1e3f41461046d578063c7af335214610480578063d38bfff414610488578063d62202fb1461049b57600080fd5b8063a6f19c84116100e9578063a6f19c84146103df578063aa388af614610406578063aaf5eb6814610456578063ad1728cb1461046557600080fd5b8063853828b61461039e5780639136616a146103a6578063936bfd2b146103b957806396d538bb146103cc57600080fd5b8063430bf08a1161019d5780635f5152261161016c5780635f5152261461032b57806360b5bb3f1461033e57806367c7066c146103515780637b2d9b2c1461036457806383b9010d1461037757600080fd5b8063430bf08a146102e157806347e7ef24146103085780635a063f631461031b5780635d36b1901461032357600080fd5b806314180efa116101d957806314180efa1461028157806316f0115b146102985780631b91d0cc146102bf578063332edd43146102ce57600080fd5b80630c340a241461020b5780630ed57b3a146102305780630fc3b4c4146102455780631072cbea1461026e575b600080fd5b61021361052c565b6040516001600160a01b0390911681526020015b60405180910390f35b61024361023e366004614ae5565b610549565b005b610213610253366004614b1e565b6035602052600090815260409020546001600160a01b031681565b61024361027c366004614b3b565b610584565b61028a609d5481565b604051908152602001610227565b6102137f000000000000000000000000000000000000000000000000000000000000000081565b61028a670dd99bb65dd7000081565b6102436102dc366004614b67565b61063f565b6102137f000000000000000000000000000000000000000000000000000000000000000081565b610243610316366004614b3b565b61069e565b610243610b42565b610243610c54565b61028a610339366004614b1e565b610cfa565b61024361034c366004614bcc565b610e8d565b603954610213906001600160a01b031681565b610213610372366004614b67565b61109d565b6102137f000000000000000000000000000000000000000000000000000000000000000081565b6102436110c7565b6102436103b4366004614b67565b61162c565b6102436103c7366004614b67565b6117f7565b6102436103da366004614c18565b611fd8565b6102137f000000000000000000000000000000000000000000000000000000000000000081565b610446610414366004614b1e565b7f00000000000000000000000000000000000000000000000000000000000000006001600160a01b0390811691161490565b6040519015158152602001610227565b61028a670de0b6b3a764000081565b6102436120ef565b61024361047b366004614b1e565b612151565b6104466121de565b610243610496366004614b1e565b61220f565b6102137f000000000000000000000000000000000000000000000000000000000000000081565b6102436104d0366004614c5a565b6122b3565b6102137f000000000000000000000000000000000000000000000000000000000000000081565b6102436127ed565b61050c612c8a565b6040516102279190614c9b565b610243610527366004614b67565b612cec565b60006105446000805160206150db8339815191525490565b905090565b6105516121de565b6105765760405162461bcd60e51b815260040161056d90614ce7565b60405180910390fd5b610580828261323b565b5050565b61058c6121de565b6105a85760405162461bcd60e51b815260040161056d90614ce7565b6001600160a01b037f00000000000000000000000000000000000000000000000000000000000000008116908316036106235760405162461bcd60e51b815260206004820152601f60248201527f43616e6e6f74207472616e7366657220737570706f7274656420617373657400604482015260640161056d565b61058061062e61052c565b6001600160a01b038416908361339a565b6106476121de565b6106635760405162461bcd60e51b815260040161056d90614ce7565b609d8190556040518181527f751b2076684396993691b15336f73e6013600139b240b956be4ec75978b6caf49060200160405180910390a150565b336001600160a01b037f000000000000000000000000000000000000000000000000000000000000000016146106e65760405162461bcd60e51b815260040161056d90614d1e565b6000805160206150bb833981519152805460011981016107185760405162461bcd60e51b815260040161056d90614d55565b6002825560405163bc25cf7760e01b81523060048201527f00000000000000000000000000000000000000000000000000000000000000006001600160a01b03169063bc25cf7790602401600060405180830381600087803b15801561077d57600080fd5b505af1158015610791573d6000803e3d6000fd5b50506040516378a051ad60e11b8152670de0b6b3a764000060048201526001600160a01b037f000000000000000000000000000000000000000000000000000000000000000081166024830152600093507f000000000000000000000000000000000000000000000000000000000000000016915063f140a35a90604401602060405180830381865afa15801561082c573d6000803e3d6000fd5b505050506040513d601f19601f820116820180604052508101906108509190614d7d565b6040516378a051ad60e11b8152670de0b6b3a764000060048201526001600160a01b037f0000000000000000000000000000000000000000000000000000000000000000811660248301529192506000917f0000000000000000000000000000000000000000000000000000000000000000169063f140a35a90604401602060405180830381865afa1580156108ea573d6000803e3d6000fd5b505050506040513d601f19601f8201168201806040525081019061090e9190614d7d565b9050600061092b826ec097ce7bc90715b34b9f1000000000614dc2565b609d54909150670de0b6b3a7640000906109459082614de4565b84101580156109605750609d5461095c9082614df7565b8211155b6109a15760405162461bcd60e51b81526020600482015260126024820152717072696365206f7574206f662072616e676560701b604482015260640161056d565b7f00000000000000000000000000000000000000000000000000000000000000006001600160a01b0316886001600160a01b0316146109f25760405162461bcd60e51b815260040161056d90614e0a565b60008711610a3b5760405162461bcd60e51b81526020600482015260166024820152754d757374206465706f73697420736f6d657468696e6760501b604482015260640161056d565b6000610a46886133f5565b509050610a5161348f565b7f00000000000000000000000000000000000000000000000000000000000000006001600160a01b031660008051602061509b8339815191527f00000000000000000000000000000000000000000000000000000000000000008a604051610aba929190614e35565b60405180910390a27f00000000000000000000000000000000000000000000000000000000000000006001600160a01b031660008051602061509b8339815191527f000000000000000000000000000000000000000000000000000000000000000083604051610b2b929190614e35565b60405180910390a250505050506001825550505050565b6039546001600160a01b03163314610b9c5760405162461bcd60e51b815260206004820152601b60248201527f43616c6c6572206973206e6f7420746865204861727665737465720000000000604482015260640161056d565b6000805160206150bb83398151915280546001198101610bce5760405162461bcd60e51b815260040161056d90614d55565b600282557f00000000000000000000000000000000000000000000000000000000000000006001600160a01b0316633d18b9126040518163ffffffff1660e01b8152600401600060405180830381600087803b158015610c2d57600080fd5b505af1158015610c41573d6000803e3d6000fd5b50505050610c4d6135fd565b5060019055565b7f44c4d30b2eaad5130ad70c3ba6972730566f3e6359ab83e800d905c61b1c51db546001600160a01b0316336001600160a01b031614610cef5760405162461bcd60e51b815260206004820152603060248201527f4f6e6c79207468652070656e64696e6720476f7665726e6f722063616e20636f60448201526f6d706c6574652074686520636c61696d60801b606482015260840161056d565b610cf833613711565b565b60007f00000000000000000000000000000000000000000000000000000000000000006001600160a01b0316826001600160a01b031614610d4d5760405162461bcd60e51b815260040161056d90614e0a565b6040516370a0823160e01b81523060048201527f00000000000000000000000000000000000000000000000000000000000000006001600160a01b0316906370a0823190602401602060405180830381865afa158015610db1573d6000803e3d6000fd5b505050506040513d601f19601f82011682018060405250810190610dd59190614d7d565b6040516370a0823160e01b81523060048201529091506000906001600160a01b037f000000000000000000000000000000000000000000000000000000000000000016906370a0823190602401602060405180830381865afa158015610e3f573d6000803e3d6000fd5b505050506040513d601f19601f82011682018060405250810190610e639190614d7d565b905080600003610e735750919050565b610e7c81613773565b610e869083614df7565b9392505050565b610e956121de565b610eb15760405162461bcd60e51b815260040161056d90614ce7565b600054610100900460ff1680610eca575060005460ff16155b610f2d5760405162461bcd60e51b815260206004820152602e60248201527f496e697469616c697a61626c653a20636f6e747261637420697320616c72656160448201526d191e481a5b9a5d1a585b1a5e995960921b606482015260840161056d565b600054610100900460ff16158015610f4f576000805461ffff19166101011790555b604080516001808252818301909252600091602080830190803683370190505090507f000000000000000000000000000000000000000000000000000000000000000081600081518110610fa557610fa5614e4e565b6001600160a01b0392909216602092830291909101909101526040805160018082528183019092526000918160200160208202803683370190505090507f00000000000000000000000000000000000000000000000000000000000000008160008151811061101657611016614e4e565b60200260200101906001600160a01b031690816001600160a01b0316815250506110768686808060200260200160405190810160405280939291908181526020018383602002808284376000920191909152508592508691506139179050565b609d8490556110836139ca565b50508015611097576000805461ff00191690555b50505050565b603a81815481106110ad57600080fd5b6000918252602090912001546001600160a01b0316905081565b336001600160a01b037f0000000000000000000000000000000000000000000000000000000000000000161480611116575061110161052c565b6001600160a01b0316336001600160a01b0316145b61116e5760405162461bcd60e51b815260206004820152602360248201527f43616c6c6572206973206e6f7420746865205661756c74206f7220476f7665726044820152623737b960e91b606482015260840161056d565b6000805160206150bb833981519152805460011981016111a05760405162461bcd60e51b815260040161056d90614d55565b6002825560405163bc25cf7760e01b81523060048201527f00000000000000000000000000000000000000000000000000000000000000006001600160a01b03169063bc25cf7790602401600060405180830381600087803b15801561120557600080fd5b505af1158015611219573d6000803e3d6000fd5b50506040516370a0823160e01b8152306004820152600092507f00000000000000000000000000000000000000000000000000000000000000006001600160a01b031691506370a0823190602401602060405180830381865afa158015611284573d6000803e3d6000fd5b505050506040513d601f19601f820116820180604052508101906112a89190614d7d565b9050806000036112b85750610c4d565b7f00000000000000000000000000000000000000000000000000000000000000006001600160a01b031663caa6fea46040518163ffffffff1660e01b81526004016020604051808303816000875af1158015611318573d6000803e3d6000fd5b505050506040513d601f19601f8201168201806040525081019061133c9190614e64565b1561134e57611349613a7d565b611357565b61135781613c3b565b6040516370a0823160e01b81523060048201526000907f00000000000000000000000000000000000000000000000000000000000000006001600160a01b0316906370a0823190602401602060405180830381865afa1580156113be573d6000803e3d6000fd5b505050506040513d601f19601f820116820180604052508101906113e29190614d7d565b60405163310bf9f560e11b8152600481018290529091507f00000000000000000000000000000000000000000000000000000000000000006001600160a01b031690636217f3ea90602401600060405180830381600087803b15801561144757600080fd5b505af115801561145b573d6000803e3d6000fd5b50506040516370a0823160e01b8152306004820152600092507f00000000000000000000000000000000000000000000000000000000000000006001600160a01b031691506370a0823190602401602060405180830381865afa1580156114c6573d6000803e3d6000fd5b505050506040513d601f19601f820116820180604052508101906114ea9190614d7d565b90506115406001600160a01b037f0000000000000000000000000000000000000000000000000000000000000000167f00000000000000000000000000000000000000000000000000000000000000008361339a565b7f00000000000000000000000000000000000000000000000000000000000000006001600160a01b03166000805160206150fb8339815191527f0000000000000000000000000000000000000000000000000000000000000000836040516115a9929190614e35565b60405180910390a27f00000000000000000000000000000000000000000000000000000000000000006001600160a01b03166000805160206150fb8339815191527f00000000000000000000000000000000000000000000000000000000000000008460405161161a929190614e35565b60405180910390a25050505060019055565b6116346121de565b6116505760405162461bcd60e51b815260040161056d90614ce7565b60365481106116915760405162461bcd60e51b815260206004820152600d60248201526c092dcecc2d8d2c840d2dcc8caf609b1b604482015260640161056d565b6000603682815481106116a6576116a6614e4e565b60009182526020808320909101546001600160a01b039081168084526035909252604090922054603654919350909116906116e390600190614de4565b83101561176557603680546116fa90600190614de4565b8154811061170a5761170a614e4e565b600091825260209091200154603680546001600160a01b03909216918590811061173657611736614e4e565b9060005260206000200160006101000a8154816001600160a01b0302191690836001600160a01b031602179055505b603680548061177657611776614e86565b60008281526020808220600019908401810180546001600160a01b031990811690915593019093556001600160a01b038581168083526035855260409283902080549094169093559051908416815290917f16b7600acff27e39a8a96056b3d533045298de927507f5c1d97e4accde60488c910160405180910390a2505050565b7f00000000000000000000000000000000000000000000000000000000000000006001600160a01b031663570d8e1d6040518163ffffffff1660e01b8152600401602060405180830381865afa158015611855573d6000803e3d6000fd5b505050506040513d601f19601f820116820180604052508101906118799190614e9c565b6001600160a01b0316336001600160a01b0316146118d95760405162461bcd60e51b815260206004820152601c60248201527f43616c6c6572206973206e6f7420746865205374726174656769737400000000604482015260640161056d565b6000805160206150bb8339815191528054600119810161190b5760405162461bcd60e51b815260040161056d90614d55565b600282556000807f00000000000000000000000000000000000000000000000000000000000000006001600160a01b0316630902f1ac6040518163ffffffff1660e01b8152600401606060405180830381865afa158015611970573d6000803e3d6000fd5b505050506040513d601f19601f820116820180604052508101906119949190614eb9565b509150915060006119a482613dc3565b6119ad84613dc3565b6119b79190614ee7565b60405163bc25cf7760e01b81523060048201529091507f00000000000000000000000000000000000000000000000000000000000000006001600160a01b03169063bc25cf7790602401600060405180830381600087803b158015611a1b57600080fd5b505af1158015611a2f573d6000803e3d6000fd5b5050505060008611611a795760405162461bcd60e51b81526020600482015260136024820152724d757374207377617020736f6d657468696e6760681b604482015260640161056d565b6040516370a0823160e01b81523060048201526000907f00000000000000000000000000000000000000000000000000000000000000006001600160a01b0316906370a0823190602401602060405180830381865afa158015611ae0573d6000803e3d6000fd5b505050506040513d601f19601f82011682018060405250810190611b049190614d7d565b905080871015611b565760405162461bcd60e51b815260206004820152601760248201527f546f6f206d756368204f5320696e207374726174656779000000000000000000604482015260640161056d565b6000611b628289614de4565b60405163ab80dafb60e01b8152600481018290529091507f00000000000000000000000000000000000000000000000000000000000000006001600160a01b03169063ab80dafb90602401600060405180830381600087803b158015611bc757600080fd5b505af1158015611bdb573d6000803e3d6000fd5b50505050611c2a887f00000000000000000000000000000000000000000000000000000000000000007f0000000000000000000000000000000000000000000000000000000000000000613e31565b6040516370a0823160e01b81523060048201526000907f00000000000000000000000000000000000000000000000000000000000000006001600160a01b0316906370a0823190602401602060405180830381865afa158015611c91573d6000803e3d6000fd5b505050506040513d601f19601f82011682018060405250810190611cb59190614d7d565b9050600080611cc3836133f5565b91509150611ccf61348f565b6001600160a01b037f00000000000000000000000000000000000000000000000000000000000000001660008051602061509b8339815191527f0000000000000000000000000000000000000000000000000000000000000000611d338588614df7565b604051611d41929190614e35565b60405180910390a26040805185815260208101859052908101839052606081018290527f5dc2c48aff3a9501b325d0849716390264e71f015d9c2bff72574302ddf19a179060800160405180910390a150505050506000807f00000000000000000000000000000000000000000000000000000000000000006001600160a01b0316630902f1ac6040518163ffffffff1660e01b8152600401606060405180830381865afa158015611df7573d6000803e3d6000fd5b505050506040513d601f19601f82011682018060405250810190611e1b9190614eb9565b50915091506000611e2b82613dc3565b611e3484613dc3565b611e3e9190614ee7565b905083600003611e9b578015611e965760405162461bcd60e51b815260206004820152601c60248201527f506f736974696f6e2062616c616e636520697320776f7273656e656400000000604482015260640161056d565b611fc9565b6000841215611f32576000811315611eeb5760405162461bcd60e51b8152602060048201526013602482015272417373657473206f76657273686f742070656760681b604482015260640161056d565b808412611e965760405162461bcd60e51b81526020600482015260156024820152744f546f6b656e732062616c616e636520776f72736560581b604482015260640161056d565b6000841315611fc9576000811215611f835760405162461bcd60e51b81526020600482015260146024820152734f546f6b656e73206f76657273686f742070656760601b604482015260640161056d565b838112611fc95760405162461bcd60e51b81526020600482015260146024820152734173736574732062616c616e636520776f72736560601b604482015260640161056d565b50505050505060018255505050565b611fe06121de565b611ffc5760405162461bcd60e51b815260040161056d90614ce7565b8060005b818110156120a657600084848381811061201c5761201c614e4e565b90506020020160208101906120319190614b1e565b6001600160a01b03160361209e5760405162461bcd60e51b815260206004820152602e60248201527f43616e206e6f742073657420616e20656d70747920616464726573732061732060448201526d30903932bbb0b932103a37b5b2b760911b606482015260840161056d565b600101612000565b507f04c0b9649497d316554306e53678d5f5f5dbc3a06f97dec13ff4cfe98b986bbc603a84846040516120db93929190614f0e565b60405180910390a1611097603a8484614a07565b6120f76121de565b6121135760405162461bcd60e51b815260040161056d90614ce7565b6000805160206150bb833981519152805460011981016121455760405162461bcd60e51b815260040161056d90614d55565b60028255610c4d6139ca565b6121596121de565b6121755760405162461bcd60e51b815260040161056d90614ce7565b603954604080516001600160a01b03928316815291831660208301527fe48386b84419f4d36e0f96c10cc3510b6fb1a33795620c5098b22472bbe90796910160405180910390a1603980546001600160a01b0319166001600160a01b0392909216919091179055565b60006121f66000805160206150db8339815191525490565b6001600160a01b0316336001600160a01b031614905090565b6122176121de565b6122335760405162461bcd60e51b815260040161056d90614ce7565b61225b817f44c4d30b2eaad5130ad70c3ba6972730566f3e6359ab83e800d905c61b1c51db55565b806001600160a01b031661227b6000805160206150db8339815191525490565b6001600160a01b03167fa39cc5eb22d0f34d8beaefee8a3f17cc229c1a1d1ef87a5ad47313487b1c4f0d60405160405180910390a350565b336001600160a01b037f000000000000000000000000000000000000000000000000000000000000000016146122fb5760405162461bcd60e51b815260040161056d90614d1e565b6000805160206150bb8339815191528054600119810161232d5760405162461bcd60e51b815260040161056d90614d55565b6002825560405163bc25cf7760e01b81523060048201527f00000000000000000000000000000000000000000000000000000000000000006001600160a01b03169063bc25cf7790602401600060405180830381600087803b15801561239257600080fd5b505af11580156123a6573d6000803e3d6000fd5b50505050600083116123fa5760405162461bcd60e51b815260206004820152601760248201527f4d75737420776974686472617720736f6d657468696e67000000000000000000604482015260640161056d565b7f00000000000000000000000000000000000000000000000000000000000000006001600160a01b0316846001600160a01b03161461244b5760405162461bcd60e51b815260040161056d90614e0a565b7f00000000000000000000000000000000000000000000000000000000000000006001600160a01b0316856001600160a01b0316146124cc5760405162461bcd60e51b815260206004820152601e60248201527f4f6e6c7920776974686472617720746f207661756c7420616c6c6f7765640000604482015260640161056d565b60006124d78461410c565b90506124e281613c3b565b6040516370a0823160e01b81523060048201526000907f00000000000000000000000000000000000000000000000000000000000000006001600160a01b0316906370a0823190602401602060405180830381865afa158015612549573d6000803e3d6000fd5b505050506040513d601f19601f8201168201806040525081019061256d9190614d7d565b60405163310bf9f560e11b8152600481018290529091507f00000000000000000000000000000000000000000000000000000000000000006001600160a01b031690636217f3ea90602401600060405180830381600087803b1580156125d257600080fd5b505af11580156125e6573d6000803e3d6000fd5b50506040516370a0823160e01b81523060048201528792507f00000000000000000000000000000000000000000000000000000000000000006001600160a01b031691506370a0823190602401602060405180830381865afa158015612650573d6000803e3d6000fd5b505050506040513d601f19601f820116820180604052508101906126749190614d7d565b10156126c25760405162461bcd60e51b815260206004820152601f60248201527f4e6f7420656e6f7567682077532072656d6f7665642066726f6d20706f6f6c00604482015260640161056d565b6126f66001600160a01b037f000000000000000000000000000000000000000000000000000000000000000016888761339a565b6126fe61348f565b7f00000000000000000000000000000000000000000000000000000000000000006001600160a01b03166000805160206150fb8339815191527f000000000000000000000000000000000000000000000000000000000000000087604051612767929190614e35565b60405180910390a27f00000000000000000000000000000000000000000000000000000000000000006001600160a01b03166000805160206150fb8339815191527f0000000000000000000000000000000000000000000000000000000000000000836040516127d8929190614e35565b60405180910390a25050600182555050505050565b336001600160a01b037f000000000000000000000000000000000000000000000000000000000000000016146128355760405162461bcd60e51b815260040161056d90614d1e565b6000805160206150bb833981519152805460011981016128675760405162461bcd60e51b815260040161056d90614d55565b6002825560405163bc25cf7760e01b81523060048201527f00000000000000000000000000000000000000000000000000000000000000006001600160a01b03169063bc25cf7790602401600060405180830381600087803b1580156128cc57600080fd5b505af11580156128e0573d6000803e3d6000fd5b50506040516378a051ad60e11b8152670de0b6b3a764000060048201526001600160a01b037f000000000000000000000000000000000000000000000000000000000000000081166024830152600093507f000000000000000000000000000000000000000000000000000000000000000016915063f140a35a90604401602060405180830381865afa15801561297b573d6000803e3d6000fd5b505050506040513d601f19601f8201168201806040525081019061299f9190614d7d565b6040516378a051ad60e11b8152670de0b6b3a764000060048201526001600160a01b037f0000000000000000000000000000000000000000000000000000000000000000811660248301529192506000917f0000000000000000000000000000000000000000000000000000000000000000169063f140a35a90604401602060405180830381865afa158015612a39573d6000803e3d6000fd5b505050506040513d601f19601f82011682018060405250810190612a5d9190614d7d565b90506000612a7a826ec097ce7bc90715b34b9f1000000000614dc2565b609d54909150670de0b6b3a764000090612a949082614de4565b8410158015612aaf5750609d54612aab9082614df7565b8211155b612af05760405162461bcd60e51b81526020600482015260126024820152717072696365206f7574206f662072616e676560701b604482015260640161056d565b6040516370a0823160e01b81523060048201526000907f00000000000000000000000000000000000000000000000000000000000000006001600160a01b0316906370a0823190602401602060405180830381865afa158015612b57573d6000803e3d6000fd5b505050506040513d601f19601f82011682018060405250810190612b7b9190614d7d565b90508015612c7d576000612b8e826133f5565b509050612b9961348f565b7f00000000000000000000000000000000000000000000000000000000000000006001600160a01b031660008051602061509b8339815191527f000000000000000000000000000000000000000000000000000000000000000084604051612c02929190614e35565b60405180910390a27f00000000000000000000000000000000000000000000000000000000000000006001600160a01b031660008051602061509b8339815191527f000000000000000000000000000000000000000000000000000000000000000083604051612c73929190614e35565b60405180910390a2505b5050505050600182555050565b6060603a805480602002602001604051908101604052809291908181526020018280548015612ce257602002820191906000526020600020905b81546001600160a01b03168152600190910190602001808311612cc4575b5050505050905090565b7f00000000000000000000000000000000000000000000000000000000000000006001600160a01b031663570d8e1d6040518163ffffffff1660e01b8152600401602060405180830381865afa158015612d4a573d6000803e3d6000fd5b505050506040513d601f19601f82011682018060405250810190612d6e9190614e9c565b6001600160a01b0316336001600160a01b031614612dce5760405162461bcd60e51b815260206004820152601c60248201527f43616c6c6572206973206e6f7420746865205374726174656769737400000000604482015260640161056d565b6000805160206150bb83398151915280546001198101612e005760405162461bcd60e51b815260040161056d90614d55565b600282556000807f00000000000000000000000000000000000000000000000000000000000000006001600160a01b0316630902f1ac6040518163ffffffff1660e01b8152600401606060405180830381865afa158015612e65573d6000803e3d6000fd5b505050506040513d601f19601f82011682018060405250810190612e899190614eb9565b50915091506000612e9982613dc3565b612ea284613dc3565b612eac9190614ee7565b60405163bc25cf7760e01b81523060048201529091507f00000000000000000000000000000000000000000000000000000000000000006001600160a01b03169063bc25cf7790602401600060405180830381600087803b158015612f1057600080fd5b505af1158015612f24573d6000803e3d6000fd5b5050505060008611612f6e5760405162461bcd60e51b81526020600482015260136024820152724d757374207377617020736f6d657468696e6760681b604482015260640161056d565b6000612f798761410c565b905060008111612fc25760405162461bcd60e51b81526020600482015260146024820152732737902628103a37b5b2b739903a3790313ab93760611b604482015260640161056d565b612fcb81613c3b565b613016877f00000000000000000000000000000000000000000000000000000000000000007f0000000000000000000000000000000000000000000000000000000000000000613e31565b6040516370a0823160e01b81523060048201526000907f00000000000000000000000000000000000000000000000000000000000000006001600160a01b0316906370a0823190602401602060405180830381865afa15801561307d573d6000803e3d6000fd5b505050506040513d601f19601f820116820180604052508101906130a19190614d7d565b60405163310bf9f560e11b8152600481018290529091507f00000000000000000000000000000000000000000000000000000000000000006001600160a01b031690636217f3ea90602401600060405180830381600087803b15801561310657600080fd5b505af115801561311a573d6000803e3d6000fd5b5050505061312661348f565b7f00000000000000000000000000000000000000000000000000000000000000006001600160a01b03166000805160206150fb8339815191527f00000000000000000000000000000000000000000000000000000000000000008360405161318f929190614e35565b60405180910390a260408051898152602081018490529081018290527f03584ea52c244b3d91731a63525b7b17ce30252926bfca52eb9db9f3e644ccf99060600160405180910390a150506000807f00000000000000000000000000000000000000000000000000000000000000006001600160a01b0316630902f1ac6040518163ffffffff1660e01b8152600401606060405180830381865afa158015611df7573d6000803e3d6000fd5b6001600160a01b0382811660009081526035602052604090205416156132985760405162461bcd60e51b81526020600482015260126024820152711c151bdad95b88185b1c9958591e481cd95d60721b604482015260640161056d565b6001600160a01b038216158015906132b857506001600160a01b03811615155b6132f85760405162461bcd60e51b8152602060048201526011602482015270496e76616c69642061646472657373657360781b604482015260640161056d565b6001600160a01b03828116600081815260356020908152604080832080549587166001600160a01b031996871681179091556036805460018101825594527f4a11f94e20a93c79f6ec743a1954ec4fc2c08429ae2122118bf234b2185c81b890930180549095168417909455925190815290917fef6485b84315f9b1483beffa32aae9a0596890395e3d7521f1c5fbb51790e765910160405180910390a25050565b6133f08363a9059cbb60e01b84846040516024016133b9929190614e35565b60408051601f198184030181529190526020810180516001600160e01b03166001600160e01b031990931692909217909152614276565b505050565b60008061340183614348565b60405163ab80dafb60e01b8152600481018290529092507f00000000000000000000000000000000000000000000000000000000000000006001600160a01b03169063ab80dafb90602401600060405180830381600087803b15801561346657600080fd5b505af115801561347a573d6000803e3d6000fd5b50505050613488838361442e565b9050915091565b60007f00000000000000000000000000000000000000000000000000000000000000006001600160a01b031663d4c3eea06040518163ffffffff1660e01b8152600401602060405180830381865afa1580156134ef573d6000803e3d6000fd5b505050506040513d601f19601f820116820180604052508101906135139190614d7d565b905060007f00000000000000000000000000000000000000000000000000000000000000006001600160a01b03166318160ddd6040518163ffffffff1660e01b8152600401602060405180830381865afa158015613575573d6000803e3d6000fd5b505050506040513d601f19601f820116820180604052508101906135999190614d7d565b90506000811180156135bb5750670dd99bb65dd700006135b983836145e5565b105b156105805760405162461bcd60e51b8152602060048201526012602482015271141c9bdd1bd8dbdb081a5b9cdbdb1d995b9d60721b604482015260640161056d565b603a5460005b81811015610580576000603a828154811061362057613620614e4e565b60009182526020822001546040516370a0823160e01b81523060048201526001600160a01b03909116925082906370a0823190602401602060405180830381865afa158015613673573d6000803e3d6000fd5b505050506040513d601f19601f820116820180604052508101906136979190614d7d565b9050801561370757603954604080516001600160a01b039283168152918416602083015281018290527ff6c07a063ed4e63808eb8da7112d46dbcd38de2b40a73dbcc9353c5a94c723539060600160405180910390a1603954613707906001600160a01b0384811691168361339a565b5050600101613603565b6001600160a01b0381166137675760405162461bcd60e51b815260206004820152601a60248201527f4e657720476f7665726e6f722069732061646472657373283029000000000000604482015260640161056d565b61377081614610565b50565b6000807f00000000000000000000000000000000000000000000000000000000000000006001600160a01b03166318160ddd6040518163ffffffff1660e01b8152600401602060405180830381865afa1580156137d4573d6000803e3d6000fd5b505050506040513d601f19601f820116820180604052508101906137f89190614d7d565b90508060000361380b5750600092915050565b6000807f00000000000000000000000000000000000000000000000000000000000000006001600160a01b0316630902f1ac6040518163ffffffff1660e01b8152600401606060405180830381865afa15801561386c573d6000803e3d6000fd5b505050506040513d601f19601f820116820180604052508101906138909190614eb9565b509150915060006138a18383614677565b905060006138cb60026138bc84670de0b6b3a7640000614fa9565b6138c69190614dc2565b614707565b905060006138e46138c683670de0b6b3a7640000614fa9565b905060006138f3826002614fa9565b905086613900828b614fa9565b61390a9190614dc2565b9998505050505050505050565b825161392a90603a906020860190614a66565b508151815181146139745760405162461bcd60e51b8152602060048201526014602482015273496e76616c696420696e7075742061727261797360601b604482015260640161056d565b60005b818110156139c3576139bb84828151811061399457613994614e4e565b60200260200101518483815181106139ae576139ae614e4e565b602002602001015161323b565b600101613977565b5050505050565b60405163095ea7b360e01b81526001600160a01b037f0000000000000000000000000000000000000000000000000000000000000000169063095ea7b390613a3a907f00000000000000000000000000000000000000000000000000000000000000009060001990600401614e35565b6020604051808303816000875af1158015613a59573d6000803e3d6000fd5b505050506040513d601f19601f820116820180604052508101906137709190614e64565b7f00000000000000000000000000000000000000000000000000000000000000006001600160a01b031663db2e21bc6040518163ffffffff1660e01b8152600401600060405180830381600087803b158015613ad857600080fd5b505af1158015613aec573d6000803e3d6000fd5b50506040516370a0823160e01b8152306004820152600092507f00000000000000000000000000000000000000000000000000000000000000006001600160a01b031691506370a0823190602401602060405180830381865afa158015613b57573d6000803e3d6000fd5b505050506040513d601f19601f82011682018060405250810190613b7b9190614d7d565b9050613bb27f00000000000000000000000000000000000000000000000000000000000000006001600160a01b038116908361339a565b60405163226bf2d160e21b81523060048201527f00000000000000000000000000000000000000000000000000000000000000006001600160a01b0316906389afcb449060240160408051808303816000875af1158015613c17573d6000803e3d6000fd5b505050506040513d601f19601f820116820180604052508101906133f09190614fc0565b6040516370a0823160e01b815230600482015281907f00000000000000000000000000000000000000000000000000000000000000006001600160a01b0316906370a0823190602401602060405180830381865afa158015613ca1573d6000803e3d6000fd5b505050506040513d601f19601f82011682018060405250810190613cc59190614d7d565b1015613d135760405162461bcd60e51b815260206004820152601d60248201527f4e6f7420656e6f756768204c5020746f6b656e7320696e206761756765000000604482015260640161056d565b604051632e1a7d4d60e01b8152600481018290527f00000000000000000000000000000000000000000000000000000000000000006001600160a01b031690632e1a7d4d90602401600060405180830381600087803b158015613d7557600080fd5b505af1158015613d89573d6000803e3d6000fd5b50613bb29250507f00000000000000000000000000000000000000000000000000000000000000006001600160a01b03811691508361339a565b60006001600160ff1b03821115613e2d5760405162461bcd60e51b815260206004820152602860248201527f53616665436173743a2076616c756520646f65736e27742066697420696e2061604482015267371034b73a191a9b60c11b606482015260840161056d565b5090565b613e656001600160a01b0383167f00000000000000000000000000000000000000000000000000000000000000008561339a565b6040516378a051ad60e11b8152600481018490526001600160a01b0383811660248301526000917f00000000000000000000000000000000000000000000000000000000000000009091169063f140a35a90604401602060405180830381865afa158015613ed7573d6000803e3d6000fd5b505050506040513d601f19601f82011682018060405250810190613efb9190614d7d565b90507f00000000000000000000000000000000000000000000000000000000000000006001600160a01b0316836001600160a01b0316148015613f6f57507f00000000000000000000000000000000000000000000000000000000000000006001600160a01b0316826001600160a01b0316145b80613fe757507f00000000000000000000000000000000000000000000000000000000000000006001600160a01b0316836001600160a01b0316148015613fe757507f00000000000000000000000000000000000000000000000000000000000000006001600160a01b0316826001600160a01b0316145b6140265760405162461bcd60e51b815260206004820152601060248201526f0556e737570706f7274656420737761760841b604482015260640161056d565b6000807f00000000000000000000000000000000000000000000000000000000000000006001600160a01b0316856001600160a01b03161461406a5782600061406e565b6000835b6040805160008152602081019182905263022c0d9f60e01b90915291935091506001600160a01b037f0000000000000000000000000000000000000000000000000000000000000000169063022c0d9f906140d29085908590309060248101615034565b600060405180830381600087803b1580156140ec57600080fd5b505af1158015614100573d6000803e3d6000fd5b50505050505050505050565b6000807f00000000000000000000000000000000000000000000000000000000000000006001600160a01b0316630902f1ac6040518163ffffffff1660e01b8152600401606060405180830381865afa15801561416d573d6000803e3d6000fd5b505050506040513d601f19601f820116820180604052508101906141919190614eb9565b50509050600081116141d25760405162461bcd60e51b815260206004820152600a602482015269115b5c1d1e481c1bdbdb60b21b604482015260640161056d565b807f00000000000000000000000000000000000000000000000000000000000000006001600160a01b03166318160ddd6040518163ffffffff1660e01b8152600401602060405180830381865afa158015614231573d6000803e3d6000fd5b505050506040513d601f19601f820116820180604052508101906142559190614d7d565b61425f9085614fa9565b6142699190614dc2565b9150610e86600183614df7565b60006142cb826040518060400160405280602081526020017f5361666545524332303a206c6f772d6c6576656c2063616c6c206661696c6564815250856001600160a01b031661487f9092919063ffffffff16565b8051909150156133f057808060200190518101906142e99190614e64565b6133f05760405162461bcd60e51b815260206004820152602a60248201527f5361666545524332303a204552433230206f7065726174696f6e20646964206e6044820152691bdd081cdd58d8d9595960b21b606482015260840161056d565b60008060007f00000000000000000000000000000000000000000000000000000000000000006001600160a01b0316630902f1ac6040518163ffffffff1660e01b8152600401606060405180830381865afa1580156143ab573d6000803e3d6000fd5b505050506040513d601f19601f820116820180604052508101906143cf9190614eb9565b5091509150600082116144115760405162461bcd60e51b815260206004820152600a602482015269115b5c1d1e481c1bdbdb60b21b604482015260640161056d565b8161441c8286614fa9565b6144269190614dc2565b949350505050565b60006144846001600160a01b037f0000000000000000000000000000000000000000000000000000000000000000167f00000000000000000000000000000000000000000000000000000000000000008561339a565b6144d86001600160a01b037f0000000000000000000000000000000000000000000000000000000000000000167f00000000000000000000000000000000000000000000000000000000000000008461339a565b6040516335313c2160e11b81523060048201527f00000000000000000000000000000000000000000000000000000000000000006001600160a01b031690636a627842906024016020604051808303816000875af115801561453e573d6000803e3d6000fd5b505050506040513d601f19601f820116820180604052508101906145629190614d7d565b60405163b6b55f2560e01b8152600481018290529091507f00000000000000000000000000000000000000000000000000000000000000006001600160a01b03169063b6b55f2590602401600060405180830381600087803b1580156145c757600080fd5b505af11580156145db573d6000803e3d6000fd5b5050505092915050565b6000806145fa84670de0b6b3a764000061488e565b9050614606818461489a565b9150505b92915050565b806001600160a01b03166146306000805160206150db8339815191525490565b6001600160a01b03167fc7c0c772add429241571afb3805861fb3cfa2af374534088b76cdb4325a87e9a60405160405180910390a36000805160206150db83398151915255565b600080670de0b6b3a764000061468d8486614fa9565b6146979190614dc2565b90506000670de0b6b3a76400006146ae8580614fa9565b6146b89190614dc2565b670de0b6b3a76400006146cb8780614fa9565b6146d59190614dc2565b6146df9190614df7565b9050670de0b6b3a76400006146f48284614fa9565b6146fe9190614dc2565b95945050505050565b60008160000361471957506000919050565b50600181600160801b81106147335760409190911b9060801c5b68010000000000000000811061474e5760209190911b9060401c5b64010000000081106147655760109190911b9060201c5b62010000811061477a5760089190911b9060101c5b610100811061478e5760049190911b9060081c5b601081106147a15760029190911b9060041c5b600481106147b157600182901b91505b60018284816147c2576147c2614d96565b048301901c915060018284816147da576147da614d96565b048301901c915060018284816147f2576147f2614d96565b048301901c9150600182848161480a5761480a614d96565b048301901c9150600182848161482257614822614d96565b048301901c9150600182848161483a5761483a614d96565b048301901c9150600182848161485257614852614d96565b048301901c9150600082848161486a5761486a614d96565b049050808310614878578092505b5050919050565b606061442684846000856148a6565b6000610e868284614fa9565b6000610e868284614dc2565b6060824710156149075760405162461bcd60e51b815260206004820152602660248201527f416464726573733a20696e73756666696369656e742062616c616e636520666f6044820152651c8818d85b1b60d21b606482015260840161056d565b843b6149555760405162461bcd60e51b815260206004820152601d60248201527f416464726573733a2063616c6c20746f206e6f6e2d636f6e7472616374000000604482015260640161056d565b600080866001600160a01b03168587604051614971919061506b565b60006040518083038185875af1925050503d80600081146149ae576040519150601f19603f3d011682016040523d82523d6000602084013e6149b3565b606091505b50915091506149c38282866149ce565b979650505050505050565b606083156149dd575081610e86565b8251156149ed5782518084602001fd5b8160405162461bcd60e51b815260040161056d9190615087565b828054828255906000526020600020908101928215614a5a579160200282015b82811115614a5a5781546001600160a01b0319166001600160a01b03843516178255602090920191600190910190614a27565b50613e2d929150614abb565b828054828255906000526020600020908101928215614a5a579160200282015b82811115614a5a57825182546001600160a01b0319166001600160a01b03909116178255602090920191600190910190614a86565b5b80821115613e2d5760008155600101614abc565b6001600160a01b038116811461377057600080fd5b60008060408385031215614af857600080fd5b8235614b0381614ad0565b91506020830135614b1381614ad0565b809150509250929050565b600060208284031215614b3057600080fd5b8135610e8681614ad0565b60008060408385031215614b4e57600080fd5b8235614b5981614ad0565b946020939093013593505050565b600060208284031215614b7957600080fd5b5035919050565b60008083601f840112614b9257600080fd5b50813567ffffffffffffffff811115614baa57600080fd5b6020830191508360208260051b8501011115614bc557600080fd5b9250929050565b600080600060408486031215614be157600080fd5b833567ffffffffffffffff811115614bf857600080fd5b614c0486828701614b80565b909790965060209590950135949350505050565b60008060208385031215614c2b57600080fd5b823567ffffffffffffffff811115614c4257600080fd5b614c4e85828601614b80565b90969095509350505050565b600080600060608486031215614c6f57600080fd5b8335614c7a81614ad0565b92506020840135614c8a81614ad0565b929592945050506040919091013590565b602080825282518282018190526000918401906040840190835b81811015614cdc5783516001600160a01b0316835260209384019390920191600101614cb5565b509095945050505050565b6020808252601a908201527f43616c6c6572206973206e6f742074686520476f7665726e6f72000000000000604082015260600190565b60208082526017908201527f43616c6c6572206973206e6f7420746865205661756c74000000000000000000604082015260600190565b6020808252600e908201526d1499595b9d1c985b9d0818d85b1b60921b604082015260600190565b600060208284031215614d8f57600080fd5b5051919050565b634e487b7160e01b600052601260045260246000fd5b634e487b7160e01b600052601160045260246000fd5b600082614ddf57634e487b7160e01b600052601260045260246000fd5b500490565b8181038181111561460a5761460a614dac565b8082018082111561460a5761460a614dac565b602080825260119082015270155b9cdd5c1c1bdc9d195908185cdcd95d607a1b604082015260600190565b6001600160a01b03929092168252602082015260400190565b634e487b7160e01b600052603260045260246000fd5b600060208284031215614e7657600080fd5b81518015158114610e8657600080fd5b634e487b7160e01b600052603160045260246000fd5b600060208284031215614eae57600080fd5b8151610e8681614ad0565b600080600060608486031215614ece57600080fd5b5050815160208301516040909301519094929350919050565b8181036000831280158383131683831282161715614f0757614f07614dac565b5092915050565b6040808252845490820181905260008581526020812090916060840190835b81811015614f545783546001600160a01b0316835260019384019360209093019201614f2d565b50508381036020808601919091528582520190508460005b85811015614f9d578135614f7f81614ad0565b6001600160a01b031683526020928301929190910190600101614f6c565b50909695505050505050565b808202811582820484141761460a5761460a614dac565b60008060408385031215614fd357600080fd5b505080516020909101519092909150565b60005b83811015614fff578181015183820152602001614fe7565b50506000910152565b60008151808452615020816020860160208601614fe4565b601f01601f19169290920160200192915050565b84815283602082015260018060a01b03831660408201526080606082015260006150616080830184615008565b9695505050505050565b6000825161507d818460208701614fe4565b9190910192915050565b602081526000610e86602083018461500856fe5548c837ab068cf56a2c2479df0882a4922fd203edb7517321831d95078c5f6253bf423e48ed90e97d02ab0ebab13b2a235a6bfbe9c321847d5c175333ac45357bea13895fa79d2831e0a9e28edede30099005a50d652d8957cf8a607ee6ca4a2717ead6b9200dd235aad468c9809ea400fe33ac69b5bfaa6d3e90fc922b6398a26469706673582212208f9d6ca41bb884e46bec7715ee1e209c0b76c4d2722e11e340a45f19008e1de564736f6c634300081c00337bea13895fa79d2831e0a9e28edede30099005a50d652d8957cf8a607ee6ca4a",
  "libraries": {},
  "devdoc": {
    "kind": "dev",
    "methods": {
      "checkBalance(address)": {
        "params": {
          "_asset": "Address of the Wrapped S (wS) token"
        },
        "returns": {
          "balance": "   Total value in wS."
        }
      },
      "constructor": {
        "params": {
          "_baseConfig": "The `platformAddress` is the address of the SwapX pool. The `vaultAddress` is the address of the Origin Sonic Vault.",
          "_gauge": "Address of the SwapX gauge for the pool.",
          "_os": "Address of the OS token.",
          "_ws": "Address of the Wrapped S (wS) token."
        }
      },
      "deposit(address,uint256)": {
        "details": "This tx must be wrapped by the VaultValueChecker. To minimize loses, the pool should be rebalanced before depositing. The pool's OS/wS price must be within the maxDepeg range.",
        "params": {
          "_asset": "Address of Wrapped S (wS) token.",
          "_wsAmount": "Amount of Wrapped S (wS) tokens to deposit."
        }
      },
      "depositAll()": {
        "details": "This tx must be wrapped by the VaultValueChecker. To minimize loses, the pool should be rebalanced before depositing. The pool's OS/wS price must be within the maxDepeg range."
      },
      "getRewardTokenAddresses()": {
        "returns": {
          "_0": "address[] the reward token addresses."
        }
      },
      "initialize(address[],uint256)": {
        "params": {
          "_maxDepeg": "The max amount the OS/wS price can deviate from peg (1e18) before deposits are reverted.",
          "_rewardTokenAddresses": "Array containing SWPx token address"
        }
      },
      "removePToken(uint256)": {
        "params": {
          "_assetIndex": "Index of the asset to be removed"
        }
      },
      "setHarvesterAddress(address)": {
        "params": {
          "_harvesterAddress": "Address of the harvester contract."
        }
      },
      "setMaxDepeg(uint256)": {
        "params": {
          "_maxDepeg": "the OS/wS price from peg (1e18) in 18 decimals. eg 0.01e18 or 1e16 is 1% which is 100 basis points."
        }
      },
      "setPTokenAddress(address,address)": {
        "params": {
          "_asset": "Address for the asset",
          "_pToken": "Address for the corresponding platform token"
        }
      },
      "setRewardTokenAddresses(address[])": {
        "params": {
          "_rewardTokenAddresses": "Array of reward token addresses"
        }
      },
      "supportsAsset(address)": {
        "params": {
          "_asset": "Address of the asset"
        }
      },
      "swapAssetsToPool(uint256)": {
        "params": {
          "_wsAmount": "Amount of Wrapped S (wS) to swap into the pool."
        }
      },
      "swapOTokensToPool(uint256)": {
        "params": {
          "_osAmount": "Amount of OS to swap into the pool."
        }
      },
      "transferGovernance(address)": {
        "params": {
          "_newGovernor": "Address of the new Governor"
        }
      },
      "transferToken(address,uint256)": {
        "params": {
          "_amount": "Amount of the asset to transfer",
          "_asset": "Address for the asset"
        }
      },
      "withdraw(address,address,uint256)": {
        "params": {
          "_asset": "Address of the Wrapped S (wS) contract.",
          "_recipient": "Address of the Vault.",
          "_wsAmount": "Amount of Wrapped S (wS) to withdraw."
        }
      },
      "withdrawAll()": {
        "details": "There is no solvency check here as withdrawAll can be called to quickly secure assets to the Vault in emergencies."
      }
    },
    "version": 1
  },
  "userdoc": {
    "kind": "user",
    "methods": {
      "PRECISION()": {
        "notice": "Precision for the SwapX Stable AMM (sAMM) invariant k."
      },
      "SOLVENCY_THRESHOLD()": {
        "notice": "a threshold under which the contract no longer allows for the protocol to manually rebalance.      Guarding against a strategist / guardian being taken over and with multiple transactions      draining the protocol funds."
      },
      "assetToPToken(address)": {
        "notice": "asset => pToken (Platform Specific Token Address)"
      },
      "checkBalance(address)": {
        "notice": "Get the wS value of assets in the strategy and SwapX pool. The value of the assets in the pool is calculated assuming the pool is balanced. This way the value can not be manipulated by changing the pool's token balances."
      },
      "claimGovernance()": {
        "notice": "Claim Governance of the contract to a new account (`newGovernor`). Can only be called by the new Governor."
      },
      "collectRewardTokens()": {
        "notice": "Collect accumulated SWPx (and other) rewards and send to the Harvester."
      },
      "deposit(address,uint256)": {
        "notice": "Deposit an amount of Wrapped S (wS) into the SwapX pool. Mint OS in proportion to the pool's wS and OS reserves, transfer Wrapped S (wS) and OS to the pool, mint the pool's LP token and deposit in the gauge."
      },
      "depositAll()": {
        "notice": "Deposit all the strategy's Wrapped S (wS) tokens into the SwapX pool. Mint OS in proportion to the pool's wS and OS reserves, transfer Wrapped S (wS) and OS to the pool, mint the pool's LP token and deposit in the gauge."
      },
      "gauge()": {
        "notice": "Address of the SwapX Gauge contract."
      },
      "getRewardTokenAddresses()": {
        "notice": "Get the reward token addresses."
      },
      "governor()": {
        "notice": "Returns the address of the current Governor."
      },
      "harvesterAddress()": {
        "notice": "Address of the Harvester contract allowed to collect reward tokens"
      },
      "initialize(address[],uint256)": {
        "notice": "Initializer for setting up strategy internal state. This overrides the InitializableAbstractStrategy initializer as SwapX strategies don't fit well within that abstraction."
      },
      "isGovernor()": {
        "notice": "Returns true if the caller is the current Governor."
      },
      "maxDepeg()": {
        "notice": "The max amount the OS/wS price can deviate from peg (1e18) before deposits are reverted scaled to 18 decimals. eg 0.01e18 or 1e16 is 1% which is 100 basis points. This is the amount below and above peg so a 50 basis point deviation (0.005e18) allows a price range from 0.995 to 1.005."
      },
      "os()": {
        "notice": "Address of the OS token contract."
      },
      "platformAddress()": {
        "notice": "Address of the underlying platform"
      },
      "pool()": {
        "notice": "Address of the SwapX Stable pool contract."
      },
      "removePToken(uint256)": {
        "notice": "Remove a supported asset by passing its index.      This method can only be called by the system Governor"
      },
      "rewardTokenAddresses(uint256)": {
        "notice": "Address of the reward tokens. eg CRV, BAL, CVX, AURA"
      },
      "safeApproveAllTokens()": {
        "notice": "Approve the spending of all assets by their corresponding pool tokens,      if for some reason is it necessary."
      },
      "setHarvesterAddress(address)": {
        "notice": "Set the Harvester contract that can collect rewards."
      },
      "setMaxDepeg(uint256)": {
        "notice": "Set the maximum deviation from the OS/wS peg (1e18) before deposits are reverted."
      },
      "setPTokenAddress(address,address)": {
        "notice": "Provide support for asset by passing its pToken address.      This method can only be called by the system Governor"
      },
      "setRewardTokenAddresses(address[])": {
        "notice": "Set the reward token addresses. Any old addresses will be overwritten."
      },
      "supportsAsset(address)": {
        "notice": "Returns bool indicating whether asset is supported by strategy"
      },
      "swapAssetsToPool(uint256)": {
        "notice": "Used when there is more OS than wS in the pool. wS and OS is removed from the pool, the received wS is swapped for OS and the left over OS in the strategy is burnt. The OS/wS price is < 1.0 so OS is being bought at a discount."
      },
      "swapOTokensToPool(uint256)": {
        "notice": "Used when there is more wS than OS in the pool. OS is minted and swapped for wS against the pool, more OS is minted and added back into the pool with the swapped out wS. The OS/wS price is > 1.0 so OS is being sold at a premium."
      },
      "transferGovernance(address)": {
        "notice": "Transfers Governance of the contract to a new account (`newGovernor`). Can only be called by the current Governor. Must be claimed for this to complete"
      },
      "transferToken(address,uint256)": {
        "notice": "Transfer token to governor. Intended for recovering tokens stuck in      strategy contracts, i.e. mistaken sends."
      },
      "vaultAddress()": {
        "notice": "Address of the OToken vault"
      },
      "withdraw(address,address,uint256)": {
        "notice": "Withdraw wS and OS from the SwapX pool, burn the OS, and transfer the wS to the recipient."
      },
      "withdrawAll()": {
        "notice": "Withdraw all pool LP tokens from the gauge, remove all wS and OS from the SwapX pool, burn all the OS tokens, and transfer all the wS to the Vault contract."
      },
      "ws()": {
        "notice": "Address of the Wrapped S (wS) token."
      }
    },
    "version": 1
  },
  "storageLayout": {
    "storage": [
      {
        "astId": 53792,
        "contract": "contracts/strategies/sonic/SonicSwapXAMOStrategy.sol:SonicSwapXAMOStrategy",
        "label": "initialized",
        "offset": 0,
        "slot": "0",
        "type": "t_bool"
      },
      {
        "astId": 53795,
        "contract": "contracts/strategies/sonic/SonicSwapXAMOStrategy.sol:SonicSwapXAMOStrategy",
        "label": "initializing",
        "offset": 1,
        "slot": "0",
        "type": "t_bool"
      },
      {
        "astId": 53835,
        "contract": "contracts/strategies/sonic/SonicSwapXAMOStrategy.sol:SonicSwapXAMOStrategy",
        "label": "______gap",
        "offset": 0,
        "slot": "1",
        "type": "t_array(t_uint256)50_storage"
      },
      {
        "astId": 53915,
        "contract": "contracts/strategies/sonic/SonicSwapXAMOStrategy.sol:SonicSwapXAMOStrategy",
        "label": "_deprecated_platformAddress",
        "offset": 0,
        "slot": "51",
        "type": "t_address"
      },
      {
        "astId": 53918,
        "contract": "contracts/strategies/sonic/SonicSwapXAMOStrategy.sol:SonicSwapXAMOStrategy",
        "label": "_deprecated_vaultAddress",
        "offset": 0,
        "slot": "52",
        "type": "t_address"
      },
      {
        "astId": 53923,
        "contract": "contracts/strategies/sonic/SonicSwapXAMOStrategy.sol:SonicSwapXAMOStrategy",
        "label": "assetToPToken",
        "offset": 0,
        "slot": "53",
        "type": "t_mapping(t_address,t_address)"
      },
      {
        "astId": 53927,
        "contract": "contracts/strategies/sonic/SonicSwapXAMOStrategy.sol:SonicSwapXAMOStrategy",
        "label": "assetsMapped",
        "offset": 0,
        "slot": "54",
        "type": "t_array(t_address)dyn_storage"
      },
      {
        "astId": 53929,
        "contract": "contracts/strategies/sonic/SonicSwapXAMOStrategy.sol:SonicSwapXAMOStrategy",
        "label": "_deprecated_rewardTokenAddress",
        "offset": 0,
        "slot": "55",
        "type": "t_address"
      },
      {
        "astId": 53931,
        "contract": "contracts/strategies/sonic/SonicSwapXAMOStrategy.sol:SonicSwapXAMOStrategy",
        "label": "_deprecated_rewardLiquidationThreshold",
        "offset": 0,
        "slot": "56",
        "type": "t_uint256"
      },
      {
        "astId": 53934,
        "contract": "contracts/strategies/sonic/SonicSwapXAMOStrategy.sol:SonicSwapXAMOStrategy",
        "label": "harvesterAddress",
        "offset": 0,
        "slot": "57",
        "type": "t_address"
      },
      {
        "astId": 53938,
        "contract": "contracts/strategies/sonic/SonicSwapXAMOStrategy.sol:SonicSwapXAMOStrategy",
        "label": "rewardTokenAddresses",
        "offset": 0,
        "slot": "58",
        "type": "t_array(t_address)dyn_storage"
      },
      {
        "astId": 53942,
        "contract": "contracts/strategies/sonic/SonicSwapXAMOStrategy.sol:SonicSwapXAMOStrategy",
        "label": "_reserved",
        "offset": 0,
        "slot": "59",
        "type": "t_array(t_int256)98_storage"
      },
      {
        "astId": 46668,
        "contract": "contracts/strategies/sonic/SonicSwapXAMOStrategy.sol:SonicSwapXAMOStrategy",
        "label": "maxDepeg",
        "offset": 0,
        "slot": "157",
        "type": "t_uint256"
      }
    ],
    "types": {
      "t_address": {
        "encoding": "inplace",
        "label": "address",
        "numberOfBytes": "20"
      },
      "t_array(t_address)dyn_storage": {
        "base": "t_address",
        "encoding": "dynamic_array",
        "label": "address[]",
        "numberOfBytes": "32"
      },
      "t_array(t_int256)98_storage": {
        "base": "t_int256",
        "encoding": "inplace",
        "label": "int256[98]",
        "numberOfBytes": "3136"
      },
      "t_array(t_uint256)50_storage": {
        "base": "t_uint256",
        "encoding": "inplace",
        "label": "uint256[50]",
        "numberOfBytes": "1600"
      },
      "t_bool": {
        "encoding": "inplace",
        "label": "bool",
        "numberOfBytes": "1"
      },
      "t_int256": {
        "encoding": "inplace",
        "label": "int256",
        "numberOfBytes": "32"
      },
      "t_mapping(t_address,t_address)": {
        "encoding": "mapping",
        "key": "t_address",
        "label": "mapping(address => address)",
        "numberOfBytes": "32",
        "value": "t_address"
      },
      "t_uint256": {
        "encoding": "inplace",
        "label": "uint256",
        "numberOfBytes": "32"
      }
    }
  }
}