{
  "_format": "hh-sol-artifact-1",
  "contractName": "FlipperDev",
  "sourceName": "contracts/flipper/FlipperDev.sol",
  "abi": [
    {
      "constant": true,
      "inputs": [],
      "name": "governor",
      "outputs": [
        {
          "internalType": "address",
          "name": "",
          "type": "address"
        }
      ],
      "payable": false,
      "stateMutability": "view",
      "type": "function"
    },
    {
      "constant": false,
      "inputs": [
        {
          "internalType": "uint256",
          "name": "amount",
          "type": "uint256"
        }
      ],
      "name": "buyOusdWithUsdt",
      "outputs": [],
      "payable": false,
      "stateMutability": "nonpayable",
      "type": "function"
    },
    {
      "constant": false,
      "inputs": [
        {
          "internalType": "uint256",
          "name": "amount",
          "type": "uint256"
        }
      ],
      "name": "buyOusdWithDai",
      "outputs": [],
      "payable": false,
      "stateMutability": "nonpayable",
      "type": "function"
    },
    {
      "constant": false,
      "inputs": [],
      "name": "claimGovernance",
      "outputs": [],
      "payable": false,
      "stateMutability": "nonpayable",
      "type": "function"
    },
    {
      "constant": false,
      "inputs": [],
      "name": "withdrawAll",
      "outputs": [],
      "payable": false,
      "stateMutability": "nonpayable",
      "type": "function"
    },
    {
      "constant": false,
      "inputs": [
        {
          "internalType": "uint256",
          "name": "amount",
          "type": "uint256"
        }
      ],
      "name": "sellOusdForDai",
      "outputs": [],
      "payable": false,
      "stateMutability": "nonpayable",
      "type": "function"
    },
    {
      "constant": false,
      "inputs": [
        {
          "internalType": "uint256",
          "name": "amount",
          "type": "uint256"
        }
      ],
      "name": "buyOusdWithUsdc",
      "outputs": [],
      "payable": false,
      "stateMutability": "nonpayable",
      "type": "function"
    },
    {
      "constant": false,
      "inputs": [
        {
          "internalType": "uint256",
          "name": "amount",
          "type": "uint256"
        }
      ],
      "name": "sellOusdForUsdc",
      "outputs": [],
      "payable": false,
      "stateMutability": "nonpayable",
      "type": "function"
    },
    {
      "constant": true,
      "inputs": [],
      "name": "isGovernor",
      "outputs": [
        {
          "internalType": "bool",
          "name": "",
          "type": "bool"
        }
      ],
      "payable": false,
      "stateMutability": "view",
      "type": "function"
    },
    {
      "constant": false,
      "inputs": [
        {
          "internalType": "uint256",
          "name": "amount",
          "type": "uint256"
        }
      ],
      "name": "sellOusdForUsdt",
      "outputs": [],
      "payable": false,
      "stateMutability": "nonpayable",
      "type": "function"
    },
    {
      "constant": false,
      "inputs": [
        {
          "internalType": "address",
          "name": "_newGovernor",
          "type": "address"
        }
      ],
      "name": "transferGovernance",
      "outputs": [],
      "payable": false,
      "stateMutability": "nonpayable",
      "type": "function"
    },
    {
      "constant": false,
      "inputs": [
        {
          "internalType": "address",
          "name": "token",
          "type": "address"
        },
        {
          "internalType": "uint256",
          "name": "amount",
          "type": "uint256"
        }
      ],
      "name": "withdraw",
      "outputs": [],
      "payable": false,
      "stateMutability": "nonpayable",
      "type": "function"
    },
    {
      "constant": false,
      "inputs": [],
      "name": "rebaseOptIn",
      "outputs": [],
      "payable": false,
      "stateMutability": "nonpayable",
      "type": "function"
    },
    {
      "inputs": [
        {
          "internalType": "address",
          "name": "dai_",
          "type": "address"
        },
        {
          "internalType": "address",
          "name": "ousd_",
          "type": "address"
        },
        {
          "internalType": "address",
          "name": "usdc_",
          "type": "address"
        },
        {
          "internalType": "address",
          "name": "usdt_",
          "type": "address"
        }
      ],
      "payable": false,
      "stateMutability": "nonpayable",
      "type": "constructor"
    },
    {
      "anonymous": false,
      "inputs": [
        {
          "indexed": true,
          "internalType": "address",
          "name": "previousGovernor",
          "type": "address"
        },
        {
          "indexed": true,
          "internalType": "address",
          "name": "newGovernor",
          "type": "address"
        }
      ],
      "name": "PendingGovernorshipTransfer",
      "type": "event"
    },
    {
      "anonymous": false,
      "inputs": [
        {
          "indexed": true,
          "internalType": "address",
          "name": "previousGovernor",
          "type": "address"
        },
        {
          "indexed": true,
          "internalType": "address",
          "name": "newGovernor",
          "type": "address"
        }
      ],
      "name": "GovernorshipTransferred",
      "type": "event"
    }
  ],
  "bytecode": "0x6080604052600080546001600160a01b0319908116909155600180548216905560028054821690556003805490911690553480156200003d57600080fd5b506040516200169c3803806200169c833981810160405260808110156200006357600080fd5b50805160208201516040830151606090930151919290916200008e336001600160e01b036200018216565b620000a16001600160e01b036200019516565b6001600160a01b031660006001600160a01b03167fc7c0c772add429241571afb3805861fb3cfa2af374534088b76cdb4325a87e9a60405160405180910390a3600080546001600160a01b03199081166001600160a01b038781169190911790925560018054821686841617908190556002805483168685161790556003805490921684841617909155166200013657600080fd5b6000546001600160a01b03166200014c57600080fd5b6002546001600160a01b03166200016257600080fd5b6003546001600160a01b03166200017857600080fd5b50505050620001a9565b6000805160206200167c83398151915255565b6000805160206200167c8339815191525490565b6114c380620001b96000396000f3fe608060405234801561001057600080fd5b50600436106100cf5760003560e01c8063bfc11ffd1161008c578063cb93905311610066578063cb939053146101b7578063d38bfff4146101d4578063f3fef3a3146101fa578063f51b0fd414610226576100cf565b8063bfc11ffd14610161578063c6b681691461017e578063c7af33521461019b576100cf565b80630c340a24146100d457806335aa0b96146100f85780635981c746146101175780635d36b19014610134578063853828b61461013c5780638a095a0f14610144575b600080fd5b6100dc61022e565b604080516001600160a01b039092168252519081900360200190f35b6101156004803603602081101561010e57600080fd5b503561023d565b005b6101156004803603602081101561012d57600080fd5b50356103d1565b610115610545565b6101156105a7565b6101156004803603602081101561015a57600080fd5b50356108e0565b6101156004803603602081101561017757600080fd5b5035610a54565b6101156004803603602081101561019457600080fd5b5035610b7a565b6101a3610c9a565b604080519115158252519081900360200190f35b610115600480360360208110156101cd57600080fd5b5035610cbd565b610115600480360360208110156101ea57600080fd5b50356001600160a01b0316610dda565b6101156004803603604081101561021057600080fd5b506001600160a01b038135169060200135610e83565b610115610f72565b60006102386110a6565b905090565b69054b40b1f852bda0000081111561028f576040805162461bcd60e51b815260206004820152601060248201526f416d6f756e7420746f6f206c6172676560801b604482015290519081900360640190fd5b600354604080516323b872dd60e01b815233600482015230602482015264e8d4a510008404604482015290516001600160a01b03909216916323b872dd9160648082019260009290919082900301818387803b1580156102ee57600080fd5b505af1158015610302573d6000803e3d6000fd5b50506001546040805163a9059cbb60e01b81523360048201526024810186905290516001600160a01b03909216935063a9059cbb92506044808201926020929091908290030181600087803b15801561035a57600080fd5b505af115801561036e573d6000803e3d6000fd5b505050506040513d602081101561038457600080fd5b50516103ce576040805162461bcd60e51b815260206004820152601460248201527313d554d1081d1c985b9cd9995c8819985a5b195960621b604482015290519081900360640190fd5b50565b69054b40b1f852bda00000811115610423576040805162461bcd60e51b815260206004820152601060248201526f416d6f756e7420746f6f206c6172676560801b604482015290519081900360640190fd5b60008054604080516323b872dd60e01b81523360048201523060248201526044810185905290516001600160a01b03909216926323b872dd926064808401936020939083900390910190829087803b15801561047e57600080fd5b505af1158015610492573d6000803e3d6000fd5b505050506040513d60208110156104a857600080fd5b50516104f1576040805162461bcd60e51b8152602060048201526013602482015272111052481d1c985b9cd9995c8819985a5b1959606a1b604482015290519081900360640190fd5b6001546040805163a9059cbb60e01b81523360048201526024810184905290516001600160a01b039092169163a9059cbb916044808201926020929091908290030181600087803b15801561035a57600080fd5b61054d6110cb565b6001600160a01b0316336001600160a01b03161461059c5760405162461bcd60e51b815260040180806020018281038252603081526020018061145f6030913960400191505060405180910390fd5b6105a5336110f0565b565b6105af610c9a565b6105fd576040805162461bcd60e51b815260206004820152601a60248201527921b0b63632b91034b9903737ba103a34329023b7bb32b93737b960311b604482015290519081900360640190fd5b7f53bf423e48ed90e97d02ab0ebab13b2a235a6bfbe9c321847d5c175333ac453580546002811415610667576040805162461bcd60e51b815260206004820152600e60248201526d1499595b9d1c985b9d0818d85b1b60921b604482015290519081900360640190fd5b600282556107066106766110a6565b600054604080516370a0823160e01b815230600482015290516001600160a01b03909216916370a0823191602480820192602092909190829003018186803b1580156106c157600080fd5b505afa1580156106d5573d6000803e3d6000fd5b505050506040513d60208110156106eb57600080fd5b50516000546001600160a01b0316919063ffffffff61119b16565b6107a16107116110a6565b600154604080516370a0823160e01b815230600482015290516001600160a01b03909216916370a0823191602480820192602092909190829003018186803b15801561075c57600080fd5b505afa158015610770573d6000803e3d6000fd5b505050506040513d602081101561078657600080fd5b50516001546001600160a01b0316919063ffffffff61119b16565b61083e6107ac6110a6565b600354604080516370a0823160e01b815230600482015290516001600160a01b03909216916370a08231916024808201926020929091908290030181600087803b1580156107f957600080fd5b505af115801561080d573d6000803e3d6000fd5b505050506040513d602081101561082357600080fd5b50516003546001600160a01b0316919063ffffffff61119b16565b6108d96108496110a6565b600254604080516370a0823160e01b815230600482015290516001600160a01b03909216916370a0823191602480820192602092909190829003018186803b15801561089457600080fd5b505afa1580156108a8573d6000803e3d6000fd5b505050506040513d60208110156108be57600080fd5b50516002546001600160a01b0316919063ffffffff61119b16565b5060019055565b69054b40b1f852bda00000811115610932576040805162461bcd60e51b815260206004820152601060248201526f416d6f756e7420746f6f206c6172676560801b604482015290519081900360640190fd5b600080546040805163a9059cbb60e01b81523360048201526024810185905290516001600160a01b039092169263a9059cbb926044808401936020939083900390910190829087803b15801561098757600080fd5b505af115801561099b573d6000803e3d6000fd5b505050506040513d60208110156109b157600080fd5b50516109fa576040805162461bcd60e51b8152602060048201526013602482015272111052481d1c985b9cd9995c8819985a5b1959606a1b604482015290519081900360640190fd5b600154604080516323b872dd60e01b81523360048201523060248201526044810184905290516001600160a01b03909216916323b872dd916064808201926020929091908290030181600087803b15801561035a57600080fd5b69054b40b1f852bda00000811115610aa6576040805162461bcd60e51b815260206004820152601060248201526f416d6f756e7420746f6f206c6172676560801b604482015290519081900360640190fd5b600254604080516323b872dd60e01b815233600482015230602482015264e8d4a510008404604482015290516001600160a01b03909216916323b872dd916064808201926020929091908290030181600087803b158015610b0657600080fd5b505af1158015610b1a573d6000803e3d6000fd5b505050506040513d6020811015610b3057600080fd5b50516104f1576040805162461bcd60e51b81526020600482015260146024820152731554d110c81d1c985b9cd9995c8819985a5b195960621b604482015290519081900360640190fd5b69054b40b1f852bda00000811115610bcc576040805162461bcd60e51b815260206004820152601060248201526f416d6f756e7420746f6f206c6172676560801b604482015290519081900360640190fd5b6002546040805163a9059cbb60e01b815233600482015264e8d4a510008404602482015290516001600160a01b039092169163a9059cbb916044808201926020929091908290030181600087803b158015610c2657600080fd5b505af1158015610c3a573d6000803e3d6000fd5b505050506040513d6020811015610c5057600080fd5b50516109fa576040805162461bcd60e51b81526020600482015260146024820152731554d110c81d1c985b9cd9995c8819985a5b195960621b604482015290519081900360640190fd5b6000610ca46110a6565b6001600160a01b0316336001600160a01b031614905090565b69054b40b1f852bda00000811115610d0f576040805162461bcd60e51b815260206004820152601060248201526f416d6f756e7420746f6f206c6172676560801b604482015290519081900360640190fd5b6003546040805163a9059cbb60e01b815233600482015264e8d4a510008404602482015290516001600160a01b039092169163a9059cbb9160448082019260009290919082900301818387803b158015610d6857600080fd5b505af1158015610d7c573d6000803e3d6000fd5b5050600154604080516323b872dd60e01b81523360048201523060248201526044810186905290516001600160a01b0390921693506323b872dd92506064808201926020929091908290030181600087803b15801561035a57600080fd5b610de2610c9a565b610e30576040805162461bcd60e51b815260206004820152601a60248201527921b0b63632b91034b9903737ba103a34329023b7bb32b93737b960311b604482015290519081900360640190fd5b610e39816111f2565b806001600160a01b0316610e4b6110a6565b6001600160a01b03167fa39cc5eb22d0f34d8beaefee8a3f17cc229c1a1d1ef87a5ad47313487b1c4f0d60405160405180910390a350565b610e8b610c9a565b610ed9576040805162461bcd60e51b815260206004820152601a60248201527921b0b63632b91034b9903737ba103a34329023b7bb32b93737b960311b604482015290519081900360640190fd5b7f53bf423e48ed90e97d02ab0ebab13b2a235a6bfbe9c321847d5c175333ac453580546002811415610f43576040805162461bcd60e51b815260206004820152600e60248201526d1499595b9d1c985b9d0818d85b1b60921b604482015290519081900360640190fd5b60028255610f69610f526110a6565b6001600160a01b038616908563ffffffff61119b16565b50600190555050565b610f7a610c9a565b610fc8576040805162461bcd60e51b815260206004820152601a60248201527921b0b63632b91034b9903737ba103a34329023b7bb32b93737b960311b604482015290519081900360640190fd5b7f53bf423e48ed90e97d02ab0ebab13b2a235a6bfbe9c321847d5c175333ac453580546002811415611032576040805162461bcd60e51b815260206004820152600e60248201526d1499595b9d1c985b9d0818d85b1b60921b604482015290519081900360640190fd5b60028255600160009054906101000a90046001600160a01b03166001600160a01b031663f51b0fd46040518163ffffffff1660e01b8152600401600060405180830381600087803b15801561108657600080fd5b505af115801561109a573d6000803e3d6000fd5b50505050600182555050565b7f7bea13895fa79d2831e0a9e28edede30099005a50d652d8957cf8a607ee6ca4a5490565b7f44c4d30b2eaad5130ad70c3ba6972730566f3e6359ab83e800d905c61b1c51db5490565b6001600160a01b03811661114b576040805162461bcd60e51b815260206004820152601a60248201527f4e657720476f7665726e6f722069732061646472657373283029000000000000604482015290519081900360640190fd5b806001600160a01b031661115d6110a6565b6001600160a01b03167fc7c0c772add429241571afb3805861fb3cfa2af374534088b76cdb4325a87e9a60405160405180910390a36103ce81611216565b604080516001600160a01b038416602482015260448082018490528251808303909101815260649091019091526020810180516001600160e01b031663a9059cbb60e01b1790526111ed90849061123a565b505050565b7f44c4d30b2eaad5130ad70c3ba6972730566f3e6359ab83e800d905c61b1c51db55565b7f7bea13895fa79d2831e0a9e28edede30099005a50d652d8957cf8a607ee6ca4a55565b61124c826001600160a01b03166113f8565b61129d576040805162461bcd60e51b815260206004820152601f60248201527f5361666545524332303a2063616c6c20746f206e6f6e2d636f6e747261637400604482015290519081900360640190fd5b60006060836001600160a01b0316836040518082805190602001908083835b602083106112db5780518252601f1990920191602091820191016112bc565b6001836020036101000a0380198251168184511680821785525050505050509050019150506000604051808303816000865af19150503d806000811461133d576040519150601f19603f3d011682016040523d82523d6000602084013e611342565b606091505b509150915081611399576040805162461bcd60e51b815260206004820181905260248201527f5361666545524332303a206c6f772d6c6576656c2063616c6c206661696c6564604482015290519081900360640190fd5b8051156113f2578080602001905160208110156113b557600080fd5b50516113f25760405162461bcd60e51b815260040180806020018281038252602a815260200180611435602a913960400191505060405180910390fd5b50505050565b6000813f7fc5d2460186f7233c927e7db2dcc703c0e500b653ca82273b7bfad8045d85a47081811480159061142c57508115155b94935050505056fe5361666545524332303a204552433230206f7065726174696f6e20646964206e6f7420737563636565644f6e6c79207468652070656e64696e6720476f7665726e6f722063616e20636f6d706c6574652074686520636c61696da265627a7a7231582022b0de6bf6e575cb7bab5d84d6866fd2ac4a9c18c7fc778cfb13b64048835ba564736f6c634300050b00327bea13895fa79d2831e0a9e28edede30099005a50d652d8957cf8a607ee6ca4a",
  "linkReferences": {},
  "deployedLinkReferences": {}
}