{
  "abi": [
    {
      "constant": true,
      "inputs": [],
      "name": "governor",
      "outputs": [
        {
          "internalType": "address",
          "name": "",
          "type": "address"
        }
      ],
      "payable": false,
      "stateMutability": "view",
      "type": "function"
    },
    {
      "constant": false,
      "inputs": [
        {
          "internalType": "string",
          "name": "symbol",
          "type": "string"
        }
      ],
      "name": "tokEthPrice",
      "outputs": [
        {
          "internalType": "uint256",
          "name": "",
          "type": "uint256"
        }
      ],
      "payable": false,
      "stateMutability": "nonpayable",
      "type": "function"
    },
    {
      "constant": true,
      "inputs": [
        {
          "internalType": "string",
          "name": "symbol",
          "type": "string"
        }
      ],
      "name": "tokUsdPrice",
      "outputs": [
        {
          "internalType": "uint256",
          "name": "",
          "type": "uint256"
        }
      ],
      "payable": false,
      "stateMutability": "view",
      "type": "function"
    },
    {
      "constant": false,
      "inputs": [],
      "name": "claimGovernance",
      "outputs": [],
      "payable": false,
      "stateMutability": "nonpayable",
      "type": "function"
    },
    {
      "constant": true,
      "inputs": [],
      "name": "ethUsdPrice",
      "outputs": [
        {
          "internalType": "uint256",
          "name": "",
          "type": "uint256"
        }
      ],
      "payable": false,
      "stateMutability": "view",
      "type": "function"
    },
    {
      "constant": true,
      "inputs": [],
      "name": "isGovernor",
      "outputs": [
        {
          "internalType": "bool",
          "name": "",
          "type": "bool"
        }
      ],
      "payable": false,
      "stateMutability": "view",
      "type": "function"
    },
    {
      "constant": false,
      "inputs": [
        {
          "internalType": "address",
          "name": "_newGovernor",
          "type": "address"
        }
      ],
      "name": "transferGovernance",
      "outputs": [],
      "payable": false,
      "stateMutability": "nonpayable",
      "type": "function"
    },
    {
      "constant": false,
      "inputs": [
        {
          "internalType": "address",
          "name": "feed",
          "type": "address"
        },
        {
          "internalType": "string",
          "name": "symbol",
          "type": "string"
        },
        {
          "internalType": "bool",
          "name": "directToUsd",
          "type": "bool"
        }
      ],
      "name": "registerFeed",
      "outputs": [],
      "payable": false,
      "stateMutability": "nonpayable",
      "type": "function"
    },
    {
      "constant": true,
      "inputs": [
        {
          "internalType": "string",
          "name": "symbol",
          "type": "string"
        }
      ],
      "name": "price",
      "outputs": [
        {
          "internalType": "uint256",
          "name": "",
          "type": "uint256"
        }
      ],
      "payable": false,
      "stateMutability": "view",
      "type": "function"
    },
    {
      "inputs": [
        {
          "internalType": "address",
          "name": "ethFeed_",
          "type": "address"
        }
      ],
      "payable": false,
      "stateMutability": "nonpayable",
      "type": "constructor"
    },
    {
      "anonymous": false,
      "inputs": [
        {
          "indexed": true,
          "internalType": "address",
          "name": "previousGovernor",
          "type": "address"
        },
        {
          "indexed": true,
          "internalType": "address",
          "name": "newGovernor",
          "type": "address"
        }
      ],
      "name": "PendingGovernorshipTransfer",
      "type": "event"
    },
    {
      "anonymous": false,
      "inputs": [
        {
          "indexed": true,
          "internalType": "address",
          "name": "previousGovernor",
          "type": "address"
        },
        {
          "indexed": true,
          "internalType": "address",
          "name": "newGovernor",
          "type": "address"
        }
      ],
      "name": "GovernorshipTransferred",
      "type": "event"
    }
  ],
  "address": "0x77B2E43FE419988aF07c908f5243E92d5BAf7E3D",
  "args": [
    "0xCCc725dEc3Bd914ba4DE8c7A3F32677B397d23a3"
  ],
  "solcInputHash": "0xb3650c08a4e2e14ecccb8f0a47293db3f4f322627843b6172e27a33d674d0b0a",
  "bytecode": "0x608060405234801561001057600080fd5b506040516114173803806114178339818101604052602081101561003357600080fd5b81019080805190602001909291905050506100533361019d60201b60201c565b6100616101cc60201b60201c565b73ffffffffffffffffffffffffffffffffffffffff16600073ffffffffffffffffffffffffffffffffffffffff167fc7c0c772add429241571afb3805861fb3cfa2af374534088b76cdb4325a87e9a60405160405180910390a380603360006101000a81548173ffffffffffffffffffffffffffffffffffffffff021916908373ffffffffffffffffffffffffffffffffffffffff1602179055508073ffffffffffffffffffffffffffffffffffffffff1663313ce5676040518163ffffffff1660e01b815260040160206040518083038186803b15801561014257600080fd5b505afa158015610156573d6000803e3d6000fd5b505050506040513d602081101561016c57600080fd5b8101908080519060200190929190505050603560006101000a81548160ff021916908360ff160217905550506101fd565b60007f7bea13895fa79d2831e0a9e28edede30099005a50d652d8957cf8a607ee6ca4a60001b90508181555050565b6000807f7bea13895fa79d2831e0a9e28edede30099005a50d652d8957cf8a607ee6ca4a60001b9050805491505090565b61120b8061020c6000396000f3fe608060405234801561001057600080fd5b50600436106100935760003560e01c80639478ab8c116100665780639478ab8c14610206578063c7af335214610224578063d38bfff414610246578063d7439f971461028a578063fe2c61981461037157610093565b80630c340a24146100985780632d9ff296146100e257806357d693141461016f5780635d36b190146101fc575b600080fd5b6100a06103fe565b604051808273ffffffffffffffffffffffffffffffffffffffff1673ffffffffffffffffffffffffffffffffffffffff16815260200191505060405180910390f35b610159600480360360208110156100f857600080fd5b810190808035906020019064010000000081111561011557600080fd5b82018360208201111561012757600080fd5b8035906020019184600183028401116401000000008311171561014957600080fd5b909192939192939050505061040d565b6040518082815260200191505060405180910390f35b6101e66004803603602081101561018557600080fd5b81019080803590602001906401000000008111156101a257600080fd5b8201836020820111156101b457600080fd5b803590602001918460018302840111640100000000831117156101d657600080fd5b90919293919293905050506105b4565b6040518082815260200191505060405180910390f35b610204610737565b005b61020e6107cd565b6040518082815260200191505060405180910390f35b61022c610820565b604051808215151515815260200191505060405180910390f35b6102886004803603602081101561025c57600080fd5b81019080803573ffffffffffffffffffffffffffffffffffffffff16906020019092919050505061085d565b005b61036f600480360360608110156102a057600080fd5b81019080803573ffffffffffffffffffffffffffffffffffffffff169060200190929190803590602001906401000000008111156102dd57600080fd5b8201836020820111156102ef57600080fd5b8035906020019184600183028401116401000000008311171561031157600080fd5b91908080601f016020809104026020016040519081016040528093929190818152602001838380828437600081840152601f19601f820116905080830192505050505050509192919290803515159060200190929190505050610944565b005b6103e86004803603602081101561038757600080fd5b81019080803590602001906401000000008111156103a457600080fd5b8201836020820111156103b657600080fd5b803590602001918460018302840111640100000000831117156103d857600080fd5b9091929391929390505050610b48565b6040518082815260200191505060405180910390f35b6000610408610e3e565b905090565b6000808383604051602001808383808284378083019250505092505050604051602081830303815290604052805190602001209050600060346000838152602001908152602001600020905060006104888260000160009054906101000a900473ffffffffffffffffffffffffffffffffffffffff16610e6f565b90508160000160159054906101000a900460ff161561050f576040517f08c379a000000000000000000000000000000000000000000000000000000000815260040180806020018281038252601c8152602001807f5072696365206973206e6f7420696e207465726d73206f66204554480000000081525060200191505060405180910390fd5b60008113610585576040517f08c379a000000000000000000000000000000000000000000000000000000000815260040180806020018281038252601f8152602001807f5072696365206d7573742062652067726561746572207468616e207a65726f0081525060200191505060405180910390fd5b60088260000160149054906101000a900460ff160360ff16600a0a81816105a857fe5b04935050505092915050565b60008083836040516020018083838082843780830192505050925050506040516020818303038152906040528051906020012090506000603460008381526020019081526020016000209050600061062f8260000160009054906101000a900473ffffffffffffffffffffffffffffffffffffffff16610e6f565b90508160000160159054906101000a900460ff166106b5576040517f08c379a000000000000000000000000000000000000000000000000000000000815260040180806020018281038252601a8152602001807f5072696365206973206e6f742064697265637420746f2075736400000000000081525060200191505060405180910390fd5b6000811361072b576040517f08c379a000000000000000000000000000000000000000000000000000000000815260040180806020018281038252601f8152602001807f5072696365206d7573742062652067726561746572207468616e207a65726f0081525060200191505060405180910390fd5b80935050505092915050565b61073f610f38565b73ffffffffffffffffffffffffffffffffffffffff163373ffffffffffffffffffffffffffffffffffffffff16146107c2576040517f08c379a00000000000000000000000000000000000000000000000000000000081526004018080602001828103825260308152602001806111a76030913960400191505060405180910390fd5b6107cb33610f69565b565b60006006603560009054906101000a900460ff160360ff16600a0a610813603360009054906101000a900473ffffffffffffffffffffffffffffffffffffffff16610e6f565b8161081a57fe5b04905090565b600061082a610e3e565b73ffffffffffffffffffffffffffffffffffffffff163373ffffffffffffffffffffffffffffffffffffffff1614905090565b610865610820565b6108d7576040517f08c379a000000000000000000000000000000000000000000000000000000000815260040180806020018281038252601a8152602001807f43616c6c6572206973206e6f742074686520476f7665726e6f7200000000000081525060200191505060405180910390fd5b6108e081611079565b8073ffffffffffffffffffffffffffffffffffffffff166108ff610e3e565b73ffffffffffffffffffffffffffffffffffffffff167fa39cc5eb22d0f34d8beaefee8a3f17cc229c1a1d1ef87a5ad47313487b1c4f0d60405160405180910390a350565b61094c610820565b6109be576040517f08c379a000000000000000000000000000000000000000000000000000000000815260040180806020018281038252601a8152602001807f43616c6c6572206973206e6f742074686520476f7665726e6f7200000000000081525060200191505060405180910390fd5b600060346000846040516020018082805190602001908083835b602083106109fb57805182526020820191506020810190506020830392506109d8565b6001836020036101000a0380198251168184511680821785525050505050509050019150506040516020818303038152906040528051906020012081526020019081526020016000209050838160000160006101000a81548173ffffffffffffffffffffffffffffffffffffffff021916908373ffffffffffffffffffffffffffffffffffffffff1602179055508373ffffffffffffffffffffffffffffffffffffffff1663313ce5676040518163ffffffff1660e01b815260040160206040518083038186803b158015610acf57600080fd5b505afa158015610ae3573d6000803e3d6000fd5b505050506040513d6020811015610af957600080fd5b81019080805190602001909291905050508160000160146101000a81548160ff021916908360ff160217905550818160000160156101000a81548160ff02191690831515021790555050505050565b6000808383604051602001808383808284378083019250505092505050604051602081830303815290604052805190602001209050806040518060400160405280600381526020017f45544800000000000000000000000000000000000000000000000000000000008152506040516020018082805190602001908083835b60208310610bea5780518252602082019150602081019050602083039250610bc7565b6001836020036101000a038019825116818451168082178552505050505050905001915050604051602081830303815290604052805190602001201415610c7f576006603560009054906101000a900460ff160360ff16600a0a610c6f603360009054906101000a900473ffffffffffffffffffffffffffffffffffffffff16610e6f565b81610c7657fe5b04915050610e38565b60006034600083815260200190815260200160002090506000610cc58260000160009054906101000a900473ffffffffffffffffffffffffffffffffffffffff16610e6f565b90508160000160159054906101000a900460ff1615610d5f5760008113610d54576040517f08c379a000000000000000000000000000000000000000000000000000000000815260040180806020018281038252601f8152602001807f5072696365206d7573742062652067726561746572207468616e207a65726f0081525060200191505060405180910390fd5b809350505050610e38565b6000610d8c603360009054906101000a900473ffffffffffffffffffffffffffffffffffffffff16610e6f565b9050600082138015610d9e5750600081135b610df3576040517f08c379a000000000000000000000000000000000000000000000000000000000815260040180806020018281038252602c81526020018061117b602c913960400191505060405180910390fd5b60068360000160149054906101000a900460ff16603560009054906101000a900460ff16010360ff16600a0a610e2983836110a8565b81610e3057fe5b049450505050505b92915050565b6000807f7bea13895fa79d2831e0a9e28edede30099005a50d652d8957cf8a607ee6ca4a60001b9050805491505090565b6000806000806000808673ffffffffffffffffffffffffffffffffffffffff1663feaf968c6040518163ffffffff1660e01b815260040160a06040518083038186803b158015610ebe57600080fd5b505afa158015610ed2573d6000803e3d6000fd5b505050506040513d60a0811015610ee857600080fd5b810190808051906020019092919080519060200190929190805190602001909291908051906020019092919080519060200190929190505050945094509450945094508395505050505050919050565b6000807f44c4d30b2eaad5130ad70c3ba6972730566f3e6359ab83e800d905c61b1c51db60001b9050805491505090565b600073ffffffffffffffffffffffffffffffffffffffff168173ffffffffffffffffffffffffffffffffffffffff16141561100c576040517f08c379a000000000000000000000000000000000000000000000000000000000815260040180806020018281038252601a8152602001807f4e657720476f7665726e6f72206973206164647265737328302900000000000081525060200191505060405180910390fd5b8073ffffffffffffffffffffffffffffffffffffffff1661102b610e3e565b73ffffffffffffffffffffffffffffffffffffffff167fc7c0c772add429241571afb3805861fb3cfa2af374534088b76cdb4325a87e9a60405160405180910390a36110768161114b565b50565b60007f44c4d30b2eaad5130ad70c3ba6972730566f3e6359ab83e800d905c61b1c51db60001b90508181555050565b6000808314156110bb5760009050611145565b60008284029050828482816110cc57fe5b0414611140576040517f08c379a00000000000000000000000000000000000000000000000000000000081526004018080602001828103825260178152602001807f6d756c7469706c69636174696f6e206f766572666c6f7700000000000000000081525060200191505060405180910390fd5b809150505b92915050565b60007f7bea13895fa79d2831e0a9e28edede30099005a50d652d8957cf8a607ee6ca4a60001b9050818155505056fe426f74682065746820616e64207072696365206d7573742062652067726561746572207468616e207a65726f4f6e6c79207468652070656e64696e6720476f7665726e6f722063616e20636f6d706c6574652074686520636c61696da265627a7a72315820848260c757fd97e166cf3e09d69c0d0daed431076e63419873e4a78bcab1848264736f6c634300050b0032",
  "devdoc": {
    "methods": {
      "claimGovernance()": {
        "details": "Claim Governance of the contract to a new account (`newGovernor`). Can only be called by the new Governor."
      },
      "governor()": {
        "details": "Returns the address of the current Governor."
      },
      "isGovernor()": {
        "details": "Returns true if the caller is the current Governor."
      },
      "transferGovernance(address)": {
        "details": "Transfers Governance of the contract to a new account (`newGovernor`). Can only be called by the current Governor. Must be claimed for this to complete",
        "params": {
          "_newGovernor": "Address of the new Governor"
        }
      }
    }
  },
  "userdoc": {
    "methods": {}
  },
  "gasEstimates": {
    "creation": {
      "codeDepositCost": "923800",
      "executionCost": "infinite",
      "totalCost": "infinite"
    },
    "external": {
      "claimGovernance()": "infinite",
      "ethUsdPrice()": "infinite",
      "governor()": "480",
      "isGovernor()": "518",
      "price(string)": "infinite",
      "registerFeed(address,string,bool)": "infinite",
      "tokEthPrice(string)": "infinite",
      "tokUsdPrice(string)": "infinite",
      "transferGovernance(address)": "infinite"
    },
    "internal": {
      "getLatestPrice(address)": "infinite",
      "mul(uint256,uint256)": "infinite"
    }
  }
}