{
  "address": "0x2a57e520709b4f8670Cd87C4712B945374313F3D",
  "abi": [
    {
      "constant": false,
      "inputs": [],
      "name": "collectRewardToken",
      "outputs": [],
      "payable": false,
      "stateMutability": "nonpayable",
      "type": "function"
    },
    {
      "constant": true,
      "inputs": [],
      "name": "governor",
      "outputs": [
        {
          "internalType": "address",
          "name": "",
          "type": "address"
        }
      ],
      "payable": false,
      "stateMutability": "view",
      "type": "function"
    },
    {
      "constant": false,
      "inputs": [
        {
          "internalType": "address",
          "name": "_asset",
          "type": "address"
        },
        {
          "internalType": "address",
          "name": "_pToken",
          "type": "address"
        }
      ],
      "name": "setPTokenAddress",
      "outputs": [],
      "payable": false,
      "stateMutability": "nonpayable",
      "type": "function"
    },
    {
      "constant": true,
      "inputs": [
        {
          "internalType": "address",
          "name": "",
          "type": "address"
        }
      ],
      "name": "assetToPToken",
      "outputs": [
        {
          "internalType": "address",
          "name": "",
          "type": "address"
        }
      ],
      "payable": false,
      "stateMutability": "view",
      "type": "function"
    },
    {
      "constant": false,
      "inputs": [
        {
          "internalType": "address",
          "name": "_asset",
          "type": "address"
        },
        {
          "internalType": "uint256",
          "name": "_amount",
          "type": "uint256"
        }
      ],
      "name": "transferToken",
      "outputs": [],
      "payable": false,
      "stateMutability": "nonpayable",
      "type": "function"
    },
    {
      "constant": true,
      "inputs": [],
      "name": "rewardTokenAddress",
      "outputs": [
        {
          "internalType": "address",
          "name": "",
          "type": "address"
        }
      ],
      "payable": false,
      "stateMutability": "view",
      "type": "function"
    },
    {
      "constant": true,
      "inputs": [],
      "name": "vaultAddress",
      "outputs": [
        {
          "internalType": "address",
          "name": "",
          "type": "address"
        }
      ],
      "payable": false,
      "stateMutability": "view",
      "type": "function"
    },
    {
      "constant": false,
      "inputs": [
        {
          "internalType": "address",
          "name": "_asset",
          "type": "address"
        },
        {
          "internalType": "uint256",
          "name": "_amount",
          "type": "uint256"
        }
      ],
      "name": "deposit",
      "outputs": [],
      "payable": false,
      "stateMutability": "nonpayable",
      "type": "function"
    },
    {
      "constant": true,
      "inputs": [],
      "name": "rewardLiquidationThreshold",
      "outputs": [
        {
          "internalType": "uint256",
          "name": "",
          "type": "uint256"
        }
      ],
      "payable": false,
      "stateMutability": "view",
      "type": "function"
    },
    {
      "constant": false,
      "inputs": [],
      "name": "claimGovernance",
      "outputs": [],
      "payable": false,
      "stateMutability": "nonpayable",
      "type": "function"
    },
    {
      "constant": true,
      "inputs": [
        {
          "internalType": "address",
          "name": "_asset",
          "type": "address"
        }
      ],
      "name": "checkBalance",
      "outputs": [
        {
          "internalType": "uint256",
          "name": "balance",
          "type": "uint256"
        }
      ],
      "payable": false,
      "stateMutability": "view",
      "type": "function"
    },
    {
      "constant": false,
      "inputs": [
        {
          "internalType": "address",
          "name": "_platformAddress",
          "type": "address"
        },
        {
          "internalType": "address",
          "name": "_vaultAddress",
          "type": "address"
        },
        {
          "internalType": "address",
          "name": "_rewardTokenAddress",
          "type": "address"
        },
        {
          "internalType": "address[]",
          "name": "_assets",
          "type": "address[]"
        },
        {
          "internalType": "address[]",
          "name": "_pTokens",
          "type": "address[]"
        }
      ],
      "name": "initialize",
      "outputs": [],
      "payable": false,
      "stateMutability": "nonpayable",
      "type": "function"
    },
    {
      "constant": false,
      "inputs": [],
      "name": "withdrawAll",
      "outputs": [],
      "payable": false,
      "stateMutability": "nonpayable",
      "type": "function"
    },
    {
      "constant": false,
      "inputs": [
        {
          "internalType": "uint256",
          "name": "_assetIndex",
          "type": "uint256"
        }
      ],
      "name": "removePToken",
      "outputs": [],
      "payable": false,
      "stateMutability": "nonpayable",
      "type": "function"
    },
    {
      "constant": false,
      "inputs": [
        {
          "internalType": "address",
          "name": "_rewardTokenAddress",
          "type": "address"
        }
      ],
      "name": "setRewardTokenAddress",
      "outputs": [],
      "payable": false,
      "stateMutability": "nonpayable",
      "type": "function"
    },
    {
      "constant": true,
      "inputs": [
        {
          "internalType": "address",
          "name": "_asset",
          "type": "address"
        }
      ],
      "name": "supportsAsset",
      "outputs": [
        {
          "internalType": "bool",
          "name": "",
          "type": "bool"
        }
      ],
      "payable": false,
      "stateMutability": "view",
      "type": "function"
    },
    {
      "constant": false,
      "inputs": [],
      "name": "safeApproveAllTokens",
      "outputs": [],
      "payable": false,
      "stateMutability": "nonpayable",
      "type": "function"
    },
    {
      "constant": true,
      "inputs": [],
      "name": "isGovernor",
      "outputs": [
        {
          "internalType": "bool",
          "name": "",
          "type": "bool"
        }
      ],
      "payable": false,
      "stateMutability": "view",
      "type": "function"
    },
    {
      "constant": false,
      "inputs": [
        {
          "internalType": "uint256",
          "name": "_threshold",
          "type": "uint256"
        }
      ],
      "name": "setRewardLiquidationThreshold",
      "outputs": [],
      "payable": false,
      "stateMutability": "nonpayable",
      "type": "function"
    },
    {
      "constant": false,
      "inputs": [
        {
          "internalType": "address",
          "name": "_newGovernor",
          "type": "address"
        }
      ],
      "name": "transferGovernance",
      "outputs": [],
      "payable": false,
      "stateMutability": "nonpayable",
      "type": "function"
    },
    {
      "constant": false,
      "inputs": [
        {
          "internalType": "address",
          "name": "_recipient",
          "type": "address"
        },
        {
          "internalType": "address",
          "name": "_asset",
          "type": "address"
        },
        {
          "internalType": "uint256",
          "name": "_amount",
          "type": "uint256"
        }
      ],
      "name": "withdraw",
      "outputs": [],
      "payable": false,
      "stateMutability": "nonpayable",
      "type": "function"
    },
    {
      "constant": true,
      "inputs": [],
      "name": "platformAddress",
      "outputs": [
        {
          "internalType": "address",
          "name": "",
          "type": "address"
        }
      ],
      "payable": false,
      "stateMutability": "view",
      "type": "function"
    },
    {
      "anonymous": false,
      "inputs": [
        {
          "indexed": false,
          "internalType": "address",
          "name": "asset",
          "type": "address"
        },
        {
          "indexed": false,
          "internalType": "uint256",
          "name": "amount",
          "type": "uint256"
        }
      ],
      "name": "SkippedWithdrawal",
      "type": "event"
    },
    {
      "anonymous": false,
      "inputs": [
        {
          "indexed": true,
          "internalType": "address",
          "name": "_asset",
          "type": "address"
        },
        {
          "indexed": false,
          "internalType": "address",
          "name": "_pToken",
          "type": "address"
        }
      ],
      "name": "PTokenAdded",
      "type": "event"
    },
    {
      "anonymous": false,
      "inputs": [
        {
          "indexed": true,
          "internalType": "address",
          "name": "_asset",
          "type": "address"
        },
        {
          "indexed": false,
          "internalType": "address",
          "name": "_pToken",
          "type": "address"
        }
      ],
      "name": "PTokenRemoved",
      "type": "event"
    },
    {
      "anonymous": false,
      "inputs": [
        {
          "indexed": true,
          "internalType": "address",
          "name": "_asset",
          "type": "address"
        },
        {
          "indexed": false,
          "internalType": "address",
          "name": "_pToken",
          "type": "address"
        },
        {
          "indexed": false,
          "internalType": "uint256",
          "name": "_amount",
          "type": "uint256"
        }
      ],
      "name": "Deposit",
      "type": "event"
    },
    {
      "anonymous": false,
      "inputs": [
        {
          "indexed": true,
          "internalType": "address",
          "name": "_asset",
          "type": "address"
        },
        {
          "indexed": false,
          "internalType": "address",
          "name": "_pToken",
          "type": "address"
        },
        {
          "indexed": false,
          "internalType": "uint256",
          "name": "_amount",
          "type": "uint256"
        }
      ],
      "name": "Withdrawal",
      "type": "event"
    },
    {
      "anonymous": false,
      "inputs": [
        {
          "indexed": false,
          "internalType": "address",
          "name": "recipient",
          "type": "address"
        },
        {
          "indexed": false,
          "internalType": "uint256",
          "name": "amount",
          "type": "uint256"
        }
      ],
      "name": "RewardTokenCollected",
      "type": "event"
    },
    {
      "anonymous": false,
      "inputs": [
        {
          "indexed": true,
          "internalType": "address",
          "name": "previousGovernor",
          "type": "address"
        },
        {
          "indexed": true,
          "internalType": "address",
          "name": "newGovernor",
          "type": "address"
        }
      ],
      "name": "PendingGovernorshipTransfer",
      "type": "event"
    },
    {
      "anonymous": false,
      "inputs": [
        {
          "indexed": true,
          "internalType": "address",
          "name": "previousGovernor",
          "type": "address"
        },
        {
          "indexed": true,
          "internalType": "address",
          "name": "newGovernor",
          "type": "address"
        }
      ],
      "name": "GovernorshipTransferred",
      "type": "event"
    }
  ],
  "transactionHash": "0x966bdfac758f953efd00980a3984331f6523fc1f06b3ec89fe3db9dcc947b082",
  "args": [],
  "solcInputHash": "c3af786fe12b6b771320281cb59e3482",
  "bytecode": "0x608060405262000018336001600160e01b036200007116565b6200002b6001600160e01b036200008416565b6001600160a01b031660006001600160a01b03167fc7c0c772add429241571afb3805861fb3cfa2af374534088b76cdb4325a87e9a60405160405180910390a362000098565b600080516020620022ce83398151915255565b600080516020620022ce8339815191525490565b61222680620000a86000396000f3fe608060405234801561001057600080fd5b50600436106101425760003560e01c8063790fcf9f116100b8578063ad1728cb1161007c578063ad1728cb146103e1578063c7af3352146103e9578063cd3b0212146103f1578063d38bfff41461040e578063d9caed1214610434578063dbe55e561461046a57610142565b8063790fcf9f14610279578063853828b61461035c5780639136616a146103645780639a6acf2014610381578063aa388af6146103a757610142565b8063125f9e331161010a578063125f9e33146101f5578063430bf08a146101fd57806347e7ef24146102055780635653b414146102315780635d36b1901461024b5780635f5152261461025357610142565b80630242241d146101475780630c340a24146101515780630ed57b3a146101755780630fc3b4c4146101a35780631072cbea146101c9575b600080fd5b61014f610472565b005b610159610711565b604080516001600160a01b039092168252519081900360200190f35b61014f6004803603604081101561018b57600080fd5b506001600160a01b0381358116916020013516610720565b610159600480360360208110156101b957600080fd5b50356001600160a01b0316610775565b61014f600480360360408110156101df57600080fd5b506001600160a01b038135169060200135610790565b6101596107f9565b610159610808565b61014f6004803603604081101561021b57600080fd5b506001600160a01b038135169060200135610817565b610239610a33565b60408051918252519081900360200190f35b61014f610a39565b6102396004803603602081101561026957600080fd5b50356001600160a01b0316610a9b565b61014f600480360360a081101561028f57600080fd5b6001600160a01b03823581169260208101358216926040820135909216918101906080810160608201356401000000008111156102cb57600080fd5b8201836020820111156102dd57600080fd5b803590602001918460208302840111640100000000831117156102ff57600080fd5b91939092909160208101903564010000000081111561031d57600080fd5b82018360208201111561032f57600080fd5b8035906020019184602083028401116401000000008311171561035157600080fd5b509092509050610ab9565b61014f610c19565b61014f6004803603602081101561037a57600080fd5b5035610f69565b61014f6004803603602081101561039757600080fd5b50356001600160a01b0316611134565b6103cd600480360360208110156103bd57600080fd5b50356001600160a01b031661119d565b604080519115158252519081900360200190f35b61014f6111bd565b6103cd61123e565b61014f6004803603602081101561040757600080fd5b5035611261565b61014f6004803603602081101561042457600080fd5b50356001600160a01b03166112ad565b61014f6004803603606081101561044a57600080fd5b506001600160a01b03813581169160208101359091169060400135611347565b610159611631565b6034546001600160a01b031633146104cb576040805162461bcd60e51b815260206004820152601760248201527610d85b1b195c881a5cc81b9bdd081d1a194815985d5b1d604a1b604482015290519081900360640190fd5b6000805160206120d383398151915280546002811415610523576040805162461bcd60e51b815260206004820152600e60248201526d1499595b9d1c985b9d0818d85b1b60921b604482015290519081900360640190fd5b600282556000610554603660008154811061053a57fe5b6000918252602090912001546001600160a01b0316611640565b90506000816001600160a01b0316635fe3b5676040518163ffffffff1660e01b815260040160206040518083038186803b15801561059157600080fd5b505afa1580156105a5573d6000803e3d6000fd5b505050506040513d60208110156105bb57600080fd5b5051604080516374d7814960e11b815230600482015290519192506001600160a01b0383169163e9af02929160248082019260009290919082900301818387803b15801561060857600080fd5b505af115801561061c573d6000803e3d6000fd5b5050603754604080516370a0823160e01b815230600482015290516001600160a01b0390921693506000925083916370a0823191602480820192602092909190829003018186803b15801561067057600080fd5b505afa158015610684573d6000803e3d6000fd5b505050506040513d602081101561069a57600080fd5b5051603454604080516001600160a01b0390921682526020820183905280519293507f9b15fe06f6132479e0c4d9dfbbff1de507a47663a459b2cc4ba1aa5a55e5205892918290030190a1603454610705906001600160a01b0384811691168363ffffffff6116ad16565b50505050600182555050565b600061071b611704565b905090565b61072861123e565b610767576040805162461bcd60e51b815260206004820152601a60248201526000805160206120f3833981519152604482015290519081900360640190fd5b6107718282611729565b5050565b6035602052600090815260409020546001600160a01b031681565b61079861123e565b6107d7576040805162461bcd60e51b815260206004820152601a60248201526000805160206120f3833981519152604482015290519081900360640190fd5b6107716107e2610711565b6001600160a01b038416908363ffffffff6116ad16565b6037546001600160a01b031681565b6034546001600160a01b031681565b6034546001600160a01b03163314610870576040805162461bcd60e51b815260206004820152601760248201527610d85b1b195c881a5cc81b9bdd081d1a194815985d5b1d604a1b604482015290519081900360640190fd5b6000805160206120d3833981519152805460028114156108c8576040805162461bcd60e51b815260206004820152600e60248201526d1499595b9d1c985b9d0818d85b1b60921b604482015290519081900360640190fd5b600282556000831161091a576040805162461bcd60e51b81526020600482015260166024820152754d757374206465706f73697420736f6d657468696e6760501b604482015290519081900360640190fd5b600061092585611640565b604080516001600160a01b0380841682526020820188905282519394508816927f5548c837ab068cf56a2c2479df0882a4922fd203edb7517321831d95078c5f62929181900390910190a2806001600160a01b031663a0712d68856040518263ffffffff1660e01b815260040180828152602001915050602060405180830381600087803b1580156109b657600080fd5b505af11580156109ca573d6000803e3d6000fd5b505050506040513d60208110156109e057600080fd5b505115610a29576040805162461bcd60e51b815260206004820152601260248201527118d51bdad95b881b5a5b9d0819985a5b195960721b604482015290519081900360640190fd5b5050600190555050565b60385481565b610a41611898565b6001600160a01b0316336001600160a01b031614610a905760405162461bcd60e51b81526004018080602001828103825260308152602001806121c26030913960400191505060405180910390fd5b610a99336118bd565b565b600080610aa783611640565b9050610ab28161196b565b9392505050565b610ac161123e565b610b00576040805162461bcd60e51b815260206004820152601a60248201526000805160206120f3833981519152604482015290519081900360640190fd5b600054610100900460ff1680610b195750610b19611a86565b80610b27575060005460ff16155b610b625760405162461bcd60e51b815260040180806020018281038252602e815260200180612134602e913960400191505060405180910390fd5b600054610100900460ff16158015610b8d576000805460ff1961ff0019909116610100171660011790555b610bfd88888888888080602002602001604051908101604052809392919081815260200183836020028082843760009201919091525050604080516020808c0282810182019093528b82529093508b92508a918291850190849080828437600092019190915250611a8c92505050565b8015610c0f576000805461ff00191690555b5050505050505050565b6034546001600160a01b0316331480610c4a5750610c35610711565b6001600160a01b0316336001600160a01b0316145b610c855760405162461bcd60e51b81526004018080602001828103825260238152602001806120b06023913960400191505060405180910390fd5b6000805160206120d383398151915280546002811415610cdd576040805162461bcd60e51b815260206004820152600e60248201526d1499595b9d1c985b9d0818d85b1b60921b604482015290519081900360640190fd5b6002825560005b603654811015610f61576000610d006036838154811061053a57fe5b604080516370a0823160e01b815230600482015290519192506000916001600160a01b038416916370a08231916024808301926020929190829003018186803b158015610d4c57600080fd5b505afa158015610d60573d6000803e3d6000fd5b505050506040513d6020811015610d7657600080fd5b50511115610f5857604080516370a0823160e01b815230600482015290516001600160a01b0383169163db006a759183916370a08231916024808301926020929190829003018186803b158015610dcc57600080fd5b505afa158015610de0573d6000803e3d6000fd5b505050506040513d6020811015610df657600080fd5b5051604080516001600160e01b031960e085901b16815260048101929092525160248083019260209291908290030181600087803b158015610e3757600080fd5b505af1158015610e4b573d6000803e3d6000fd5b505050506040513d6020811015610e6157600080fd5b505115610ea5576040805162461bcd60e51b815260206004820152600d60248201526c14995919595b4819985a5b1959609a1b604482015290519081900360640190fd5b600060368381548110610eb457fe5b60009182526020918290200154603454604080516370a0823160e01b815230600482015290516001600160a01b039384169550610f5694929093169285926370a082319260248082019391829003018186803b158015610f1357600080fd5b505afa158015610f27573d6000803e3d6000fd5b505050506040513d6020811015610f3d57600080fd5b50516001600160a01b038416919063ffffffff6116ad16565b505b50600101610ce4565b505060019055565b610f7161123e565b610fb0576040805162461bcd60e51b815260206004820152601a60248201526000805160206120f3833981519152604482015290519081900360640190fd5b6036548110610ff6576040805162461bcd60e51b815260206004820152600d60248201526c092dcecc2d8d2c840d2dcc8caf609b1b604482015290519081900360640190fd5b60006036828154811061100557fe5b60009182526020808320909101546001600160a01b03908116808452603590925260409092205460365491935090911690600019018310156110a85760368054600019810190811061105357fe5b600091825260209091200154603680546001600160a01b03909216918590811061107957fe5b9060005260206000200160006101000a8154816001600160a01b0302191690836001600160a01b031602179055505b60368054806110b357fe5b60008281526020808220830160001990810180546001600160a01b031990811690915593019093556001600160a01b0385811680835260358552604092839020805490941690935581519085168152905191927f16b7600acff27e39a8a96056b3d533045298de927507f5c1d97e4accde60488c92918290030190a2505050565b61113c61123e565b61117b576040805162461bcd60e51b815260206004820152601a60248201526000805160206120f3833981519152604482015290519081900360640190fd5b603780546001600160a01b0319166001600160a01b0392909216919091179055565b6001600160a01b0390811660009081526035602052604090205416151590565b60365460005b81811015610771576000603682815481106111da57fe5b60009182526020808320909101546001600160a01b03908116808452603590925260408320549193501690611218908390839063ffffffff611b6316565b6112346001600160a01b0383168260001963ffffffff611b6316565b50506001016111c3565b6000611248611704565b6001600160a01b0316336001600160a01b031614905090565b61126961123e565b6112a8576040805162461bcd60e51b815260206004820152601a60248201526000805160206120f3833981519152604482015290519081900360640190fd5b603855565b6112b561123e565b6112f4576040805162461bcd60e51b815260206004820152601a60248201526000805160206120f3833981519152604482015290519081900360640190fd5b6112fd81611c76565b806001600160a01b031661130f611704565b6001600160a01b03167fa39cc5eb22d0f34d8beaefee8a3f17cc229c1a1d1ef87a5ad47313487b1c4f0d60405160405180910390a350565b6034546001600160a01b031633146113a0576040805162461bcd60e51b815260206004820152601760248201527610d85b1b195c881a5cc81b9bdd081d1a194815985d5b1d604a1b604482015290519081900360640190fd5b6000805160206120d3833981519152805460028114156113f8576040805162461bcd60e51b815260206004820152600e60248201526d1499595b9d1c985b9d0818d85b1b60921b604482015290519081900360640190fd5b6002825560008311611451576040805162461bcd60e51b815260206004820152601760248201527f4d75737420776974686472617720736f6d657468696e67000000000000000000604482015290519081900360640190fd5b6001600160a01b0385166114a5576040805162461bcd60e51b8152602060048201526016602482015275135d5cdd081cdc1958da599e481c9958da5c1a595b9d60521b604482015290519081900360640190fd5b60006114b085611640565b905060006114be8286611c9a565b90508061151057604080516001600160a01b03881681526020810187905281517f2ca0d37ecfc1b8853f4bc276c69586250b3978c1d467c05d6c143966026724ec929181900390910190a15050611627565b604080516001600160a01b038481168252602082018890528251908916927f2717ead6b9200dd235aad468c9809ea400fe33ac69b5bfaa6d3e90fc922b6398928290030190a2816001600160a01b031663852a12e3866040518263ffffffff1660e01b815260040180828152602001915050602060405180830381600087803b15801561159c57600080fd5b505af11580156115b0573d6000803e3d6000fd5b505050506040513d60208110156115c657600080fd5b50511561160a576040805162461bcd60e51b815260206004820152600d60248201526c14995919595b4819985a5b1959609a1b604482015290519081900360640190fd5b6116246001600160a01b038716888763ffffffff6116ad16565b50505b5060019055505050565b6033546001600160a01b031681565b6001600160a01b03808216600090815260356020526040812054909116806116a7576040805162461bcd60e51b815260206004820152601560248201527418d51bdad95b88191bd95cc81b9bdd08195e1a5cdd605a1b604482015290519081900360640190fd5b92915050565b604080516001600160a01b038416602482015260448082018490528251808303909101815260649091019091526020810180516001600160e01b031663a9059cbb60e01b1790526116ff908490611d20565b505050565b7f7bea13895fa79d2831e0a9e28edede30099005a50d652d8957cf8a607ee6ca4a5490565b6001600160a01b03828116600090815260356020526040902054161561178b576040805162461bcd60e51b81526020600482015260126024820152711c151bdad95b88185b1c9958591e481cd95d60721b604482015290519081900360640190fd5b6001600160a01b038216158015906117ab57506001600160a01b03811615155b6117f0576040805162461bcd60e51b8152602060048201526011602482015270496e76616c69642061646472657373657360781b604482015290519081900360640190fd5b6001600160a01b03808316600081815260356020908152604080832080549587166001600160a01b031996871681179091556036805460018101825594527f4a11f94e20a93c79f6ec743a1954ec4fc2c08429ae2122118bf234b2185c81b8909301805490951684179094558351918252925191927fef6485b84315f9b1483beffa32aae9a0596890395e3d7521f1c5fbb51790e76592918290030190a26107718282611ede565b7f44c4d30b2eaad5130ad70c3ba6972730566f3e6359ab83e800d905c61b1c51db5490565b6001600160a01b038116611918576040805162461bcd60e51b815260206004820152601a60248201527f4e657720476f7665726e6f722069732061646472657373283029000000000000604482015290519081900360640190fd5b806001600160a01b031661192a611704565b6001600160a01b03167fc7c0c772add429241571afb3805861fb3cfa2af374534088b76cdb4325a87e9a60405160405180910390a361196881611f15565b50565b604080516370a0823160e01b8152306004820152905160009182916001600160a01b038516916370a08231916024808301926020929190829003018186803b1580156119b657600080fd5b505afa1580156119ca573d6000803e3d6000fd5b505050506040513d60208110156119e057600080fd5b50516040805163182df0f560e01b815290519192506000916001600160a01b0386169163182df0f5916004808301926020929190829003018186803b158015611a2857600080fd5b505afa158015611a3c573d6000803e3d6000fd5b505050506040513d6020811015611a5257600080fd5b50519050611a7e670de0b6b3a7640000611a72848463ffffffff611f3916565b9063ffffffff611f9216565b949350505050565b303b1590565b603380546001600160a01b038088166001600160a01b031992831617909255603480548784169083161790556037805492861692909116919091179055815181518114611b17576040805162461bcd60e51b8152602060048201526014602482015273496e76616c696420696e7075742061727261797360601b604482015290519081900360640190fd5b60005b81811015611b5a57611b52848281518110611b3157fe5b6020026020010151848381518110611b4557fe5b6020026020010151611729565b600101611b1a565b50505050505050565b801580611be9575060408051636eb1769f60e11b81523060048201526001600160a01b03848116602483015291519185169163dd62ed3e91604480820192602092909190829003018186803b158015611bbb57600080fd5b505afa158015611bcf573d6000803e3d6000fd5b505050506040513d6020811015611be557600080fd5b5051155b611c245760405162461bcd60e51b815260040180806020018281038252603681526020018061218c6036913960400191505060405180910390fd5b604080516001600160a01b038416602482015260448082018490528251808303909101815260649091019091526020810180516001600160e01b031663095ea7b360e01b1790526116ff908490611d20565b7f44c4d30b2eaad5130ad70c3ba6972730566f3e6359ab83e800d905c61b1c51db55565b600080836001600160a01b031663182df0f56040518163ffffffff1660e01b815260040160206040518083038186803b158015611cd657600080fd5b505afa158015611cea573d6000803e3d6000fd5b505050506040513d6020811015611d0057600080fd5b50519050611a7e81611a7285670de0b6b3a764000063ffffffff611f3916565b611d32826001600160a01b0316611fd4565b611d83576040805162461bcd60e51b815260206004820152601f60248201527f5361666545524332303a2063616c6c20746f206e6f6e2d636f6e747261637400604482015290519081900360640190fd5b60006060836001600160a01b0316836040518082805190602001908083835b60208310611dc15780518252601f199092019160209182019101611da2565b6001836020036101000a0380198251168184511680821785525050505050509050019150506000604051808303816000865af19150503d8060008114611e23576040519150601f19603f3d011682016040523d82523d6000602084013e611e28565b606091505b509150915081611e7f576040805162461bcd60e51b815260206004820181905260248201527f5361666545524332303a206c6f772d6c6576656c2063616c6c206661696c6564604482015290519081900360640190fd5b805115611ed857808060200190516020811015611e9b57600080fd5b5051611ed85760405162461bcd60e51b815260040180806020018281038252602a815260200180612162602a913960400191505060405180910390fd5b50505050565b611ef96001600160a01b03831682600063ffffffff611b6316565b6107716001600160a01b0383168260001963ffffffff611b6316565b7f7bea13895fa79d2831e0a9e28edede30099005a50d652d8957cf8a607ee6ca4a55565b600082611f48575060006116a7565b82820282848281611f5557fe5b0414610ab25760405162461bcd60e51b81526004018080602001828103825260218152602001806121136021913960400191505060405180910390fd5b6000610ab283836040518060400160405280601a81526020017f536166654d6174683a206469766973696f6e206279207a65726f00000000000081525061200d565b6000813f7fc5d2460186f7233c927e7db2dcc703c0e500b653ca82273b7bfad8045d85a470818114801590611a7e575050151592915050565b600081836120995760405162461bcd60e51b81526004018080602001828103825283818151815260200191508051906020019080838360005b8381101561205e578181015183820152602001612046565b50505050905090810190601f16801561208b5780820380516001836020036101000a031916815260200191505b509250505060405180910390fd5b5060008385816120a557fe5b049594505050505056fe43616c6c6572206973206e6f7420746865205661756c74206f7220476f7665726e6f7253bf423e48ed90e97d02ab0ebab13b2a235a6bfbe9c321847d5c175333ac453543616c6c6572206973206e6f742074686520476f7665726e6f72000000000000536166654d6174683a206d756c7469706c69636174696f6e206f766572666c6f77436f6e747261637420696e7374616e63652068617320616c7265616479206265656e20696e697469616c697a65645361666545524332303a204552433230206f7065726174696f6e20646964206e6f7420737563636565645361666545524332303a20617070726f76652066726f6d206e6f6e2d7a65726f20746f206e6f6e2d7a65726f20616c6c6f77616e63654f6e6c79207468652070656e64696e6720476f7665726e6f722063616e20636f6d706c6574652074686520636c61696da265627a7a7231582029607206b61b8cd5a66da8901af180e65f1cba7a215aeb13f818e21b67f951eb64736f6c634300050b00327bea13895fa79d2831e0a9e28edede30099005a50d652d8957cf8a607ee6ca4a",
  "devdoc": {
    "methods": {
      "checkBalance(address)": {
        "details": "Get the total asset value held in the platform     This includes any interest that was generated since depositing     Compound exchange rate between the cToken and asset gradually increases,     causing the cToken to be worth more corresponding asset.",
        "params": {
          "_asset": "Address of the asset"
        },
        "return": "balance    Total value of the asset in the platform"
      },
      "claimGovernance()": {
        "details": "Claim Governance of the contract to a new account (`newGovernor`). Can only be called by the new Governor."
      },
      "collectRewardToken()": {
        "details": "Collect accumulated COMP and send to Vault."
      },
      "deposit(address,uint256)": {
        "details": "Deposit asset into Compound",
        "params": {
          "_amount": "Amount of asset to deposit",
          "_asset": "Address of asset to deposit"
        },
        "return": "amountDeposited Amount of asset that was deposited"
      },
      "governor()": {
        "details": "Returns the address of the current Governor."
      },
      "initialize(address,address,address,address[],address[])": {
        "details": "Internal initialize function, to set up initial internal state",
        "params": {
          "_assets": "Addresses of initial supported assets",
          "_pTokens": "Platform Token corresponding addresses",
          "_platformAddress": "jGeneric platform address",
          "_rewardTokenAddress": "Address of reward token for platform",
          "_vaultAddress": "Address of the Vault"
        }
      },
      "isGovernor()": {
        "details": "Returns true if the caller is the current Governor."
      },
      "removePToken(uint256)": {
        "details": "Remove a supported asset by passing its index.     This method can only be called by the system Governor",
        "params": {
          "_assetIndex": "Index of the asset to be removed"
        }
      },
      "safeApproveAllTokens()": {
        "details": "Approve the spending of all assets by their corresponding cToken,     if for some reason is it necessary."
      },
      "setPTokenAddress(address,address)": {
        "details": "Provide support for asset by passing its pToken address.     This method can only be called by the system Governor",
        "params": {
          "_asset": "Address for the asset",
          "_pToken": "Address for the corresponding platform token"
        }
      },
      "setRewardLiquidationThreshold(uint256)": {
        "details": "Set the reward token liquidation threshold.",
        "params": {
          "_threshold": "Threshold amount in decimals of reward token that will cause the Vault to claim and withdrawAll on allocate() calls."
        }
      },
      "setRewardTokenAddress(address)": {
        "details": "Set the reward token address.",
        "params": {
          "_rewardTokenAddress": "Address of the reward token"
        }
      },
      "supportsAsset(address)": {
        "details": "Retuns bool indicating whether asset is supported by strategy",
        "params": {
          "_asset": "Address of the asset"
        }
      },
      "transferGovernance(address)": {
        "details": "Transfers Governance of the contract to a new account (`newGovernor`). Can only be called by the current Governor. Must be claimed for this to complete",
        "params": {
          "_newGovernor": "Address of the new Governor"
        }
      },
      "transferToken(address,uint256)": {
        "details": "Transfer token to governor. Intended for recovering tokens stuck in     strategy contracts, i.e. mistaken sends.",
        "params": {
          "_amount": "Amount of the asset to transfer",
          "_asset": "Address for the asset"
        }
      },
      "withdraw(address,address,uint256)": {
        "details": "Withdraw asset from Compound",
        "params": {
          "_amount": "Amount of asset to withdraw",
          "_asset": "Address of asset to withdraw",
          "_recipient": "Address to receive withdrawn asset"
        },
        "return": "amountWithdrawn Amount of asset that was withdrawn"
      },
      "withdrawAll()": {
        "details": "Remove all assets from platform and send them to Vault contract."
      }
    }
  },
  "userdoc": {
    "methods": {}
  }
}