{
  "abi": [
    {
      "constant": true,
      "inputs": [
        {
          "internalType": "uint256",
          "name": "",
          "type": "uint256"
        }
      ],
      "name": "proposals",
      "outputs": [
        {
          "internalType": "uint256",
          "name": "id",
          "type": "uint256"
        },
        {
          "internalType": "address",
          "name": "proposer",
          "type": "address"
        },
        {
          "internalType": "uint256",
          "name": "eta",
          "type": "uint256"
        },
        {
          "internalType": "bool",
          "name": "executed",
          "type": "bool"
        }
      ],
      "payable": false,
      "stateMutability": "view",
      "type": "function"
    },
    {
      "constant": false,
      "inputs": [
        {
          "internalType": "address",
          "name": "newPendingAdmin",
          "type": "address"
        },
        {
          "internalType": "uint256",
          "name": "eta",
          "type": "uint256"
        }
      ],
      "name": "__executeSetTimelockPendingAdmin",
      "outputs": [],
      "payable": false,
      "stateMutability": "nonpayable",
      "type": "function"
    },
    {
      "constant": true,
      "inputs": [
        {
          "internalType": "uint256",
          "name": "proposalId",
          "type": "uint256"
        }
      ],
      "name": "getActions",
      "outputs": [
        {
          "internalType": "address[]",
          "name": "targets",
          "type": "address[]"
        },
        {
          "internalType": "uint256[]",
          "name": "values",
          "type": "uint256[]"
        },
        {
          "internalType": "string[]",
          "name": "signatures",
          "type": "string[]"
        },
        {
          "internalType": "bytes[]",
          "name": "calldatas",
          "type": "bytes[]"
        }
      ],
      "payable": false,
      "stateMutability": "view",
      "type": "function"
    },
    {
      "constant": true,
      "inputs": [
        {
          "internalType": "uint256",
          "name": "proposalId",
          "type": "uint256"
        }
      ],
      "name": "state",
      "outputs": [
        {
          "internalType": "enum Governor.ProposalState",
          "name": "",
          "type": "uint8"
        }
      ],
      "payable": false,
      "stateMutability": "view",
      "type": "function"
    },
    {
      "constant": true,
      "inputs": [],
      "name": "guardian",
      "outputs": [
        {
          "internalType": "address",
          "name": "",
          "type": "address"
        }
      ],
      "payable": false,
      "stateMutability": "view",
      "type": "function"
    },
    {
      "constant": true,
      "inputs": [],
      "name": "MAX_OPERATIONS",
      "outputs": [
        {
          "internalType": "uint256",
          "name": "",
          "type": "uint256"
        }
      ],
      "payable": false,
      "stateMutability": "view",
      "type": "function"
    },
    {
      "constant": false,
      "inputs": [
        {
          "internalType": "address",
          "name": "newPendingAdmin",
          "type": "address"
        },
        {
          "internalType": "uint256",
          "name": "eta",
          "type": "uint256"
        }
      ],
      "name": "__queueSetTimelockPendingAdmin",
      "outputs": [],
      "payable": false,
      "stateMutability": "nonpayable",
      "type": "function"
    },
    {
      "constant": false,
      "inputs": [],
      "name": "__acceptAdmin",
      "outputs": [],
      "payable": false,
      "stateMutability": "nonpayable",
      "type": "function"
    },
    {
      "constant": true,
      "inputs": [],
      "name": "timelock",
      "outputs": [
        {
          "internalType": "contract ITimelock",
          "name": "",
          "type": "address"
        }
      ],
      "payable": false,
      "stateMutability": "view",
      "type": "function"
    },
    {
      "constant": true,
      "inputs": [],
      "name": "proposalCount",
      "outputs": [
        {
          "internalType": "uint256",
          "name": "",
          "type": "uint256"
        }
      ],
      "payable": false,
      "stateMutability": "view",
      "type": "function"
    },
    {
      "constant": false,
      "inputs": [
        {
          "internalType": "address[]",
          "name": "targets",
          "type": "address[]"
        },
        {
          "internalType": "uint256[]",
          "name": "values",
          "type": "uint256[]"
        },
        {
          "internalType": "string[]",
          "name": "signatures",
          "type": "string[]"
        },
        {
          "internalType": "bytes[]",
          "name": "calldatas",
          "type": "bytes[]"
        },
        {
          "internalType": "string",
          "name": "description",
          "type": "string"
        }
      ],
      "name": "proposeAndQueue",
      "outputs": [
        {
          "internalType": "uint256",
          "name": "",
          "type": "uint256"
        }
      ],
      "payable": false,
      "stateMutability": "nonpayable",
      "type": "function"
    },
    {
      "constant": false,
      "inputs": [
        {
          "internalType": "uint256",
          "name": "proposalId",
          "type": "uint256"
        }
      ],
      "name": "execute",
      "outputs": [],
      "payable": true,
      "stateMutability": "payable",
      "type": "function"
    },
    {
      "inputs": [
        {
          "internalType": "address",
          "name": "timelock_",
          "type": "address"
        },
        {
          "internalType": "address",
          "name": "guardian_",
          "type": "address"
        }
      ],
      "payable": false,
      "stateMutability": "nonpayable",
      "type": "constructor"
    },
    {
      "anonymous": false,
      "inputs": [
        {
          "indexed": false,
          "internalType": "uint256",
          "name": "id",
          "type": "uint256"
        },
        {
          "indexed": false,
          "internalType": "address",
          "name": "proposer",
          "type": "address"
        },
        {
          "indexed": false,
          "internalType": "address[]",
          "name": "targets",
          "type": "address[]"
        },
        {
          "indexed": false,
          "internalType": "uint256[]",
          "name": "values",
          "type": "uint256[]"
        },
        {
          "indexed": false,
          "internalType": "string[]",
          "name": "signatures",
          "type": "string[]"
        },
        {
          "indexed": false,
          "internalType": "bytes[]",
          "name": "calldatas",
          "type": "bytes[]"
        },
        {
          "indexed": false,
          "internalType": "string",
          "name": "description",
          "type": "string"
        }
      ],
      "name": "ProposalCreated",
      "type": "event"
    },
    {
      "anonymous": false,
      "inputs": [
        {
          "indexed": false,
          "internalType": "uint256",
          "name": "id",
          "type": "uint256"
        },
        {
          "indexed": false,
          "internalType": "uint256",
          "name": "eta",
          "type": "uint256"
        }
      ],
      "name": "ProposalQueued",
      "type": "event"
    },
    {
      "anonymous": false,
      "inputs": [
        {
          "indexed": false,
          "internalType": "uint256",
          "name": "id",
          "type": "uint256"
        }
      ],
      "name": "ProposalExecuted",
      "type": "event"
    }
  ],
  "address": "0xE1433f4e99970835982dBf783f5e0461dd798558",
  "args": [
    "0xBC35891157979c573BeD10e035Ac731eC7685FE2",
    "0xe0293212b84df3900BC24f9321e7721Aa7E50A3b"
  ],
  "solcInputHash": "0x220836c1329dc54af0d88aee0cedc3583e8babfcd78e6fa38ecf569d5d97f8fe",
  "bytecode": "0x60806040523480156200001157600080fd5b506040516200332f3803806200332f8339818101604052620000379190810190620000d7565b816000806101000a81548173ffffffffffffffffffffffffffffffffffffffff021916908373ffffffffffffffffffffffffffffffffffffffff16021790555080600160006101000a81548173ffffffffffffffffffffffffffffffffffffffff021916908373ffffffffffffffffffffffffffffffffffffffff160217905550505062000166565b600081519050620000d1816200014c565b92915050565b60008060408385031215620000eb57600080fd5b6000620000fb85828601620000c0565b92505060206200010e85828601620000c0565b9150509250929050565b600062000125826200012c565b9050919050565b600073ffffffffffffffffffffffffffffffffffffffff82169050919050565b620001578162000118565b81146200016357600080fd5b50565b6131b980620001766000396000f3fe6080604052600436106100a75760003560e01c8063915006711161006457806391500671146101e8578063b9a6196114610211578063d33219b414610228578063da35c66414610253578063dcf642e01461027e578063fe0d94c1146102bb576100a7565b8063013cf08b146100ac57806321f43e42146100ec578063328dd982146101155780633e4f49e614610155578063452a9320146101925780635dc2803a146101bd575b600080fd5b3480156100b857600080fd5b506100d360048036036100ce9190810190611ec3565b6102d7565b6040516100e39493929190612c6e565b60405180910390f35b3480156100f857600080fd5b50610113600480360361010e9190810190611d05565b610334565b005b34801561012157600080fd5b5061013c60048036036101379190810190611ec3565b6104c1565b60405161014c94939291906129af565b60405180910390f35b34801561016157600080fd5b5061017c60048036036101779190810190611ec3565b61079e565b6040516101899190612a46565b60405180910390f35b34801561019e57600080fd5b506101a76108f0565b6040516101b49190612873565b60405180910390f35b3480156101c957600080fd5b506101d2610916565b6040516101df9190612bc1565b60405180910390f35b3480156101f457600080fd5b5061020f600480360361020a9190810190611d05565b61091b565b005b34801561021d57600080fd5b50610226610aa3565b005b34801561023457600080fd5b5061023d610bb6565b60405161024a9190612a2b565b60405180910390f35b34801561025f57600080fd5b50610268610bdb565b6040516102759190612bc1565b60405180910390f35b34801561028a57600080fd5b506102a560048036036102a09190810190611d41565b610be1565b6040516102b29190612bc1565b60405180910390f35b6102d560048036036102d09190810190611ec3565b6110a4565b005b60036020528060005260406000206000915090508060000154908060010160009054906101000a900473ffffffffffffffffffffffffffffffffffffffff16908060020154908060070160009054906101000a900460ff16905084565b600160009054906101000a900473ffffffffffffffffffffffffffffffffffffffff1673ffffffffffffffffffffffffffffffffffffffff163373ffffffffffffffffffffffffffffffffffffffff16146103c4576040517f08c379a00000000000000000000000000000000000000000000000000000000081526004016103bb90612b01565b60405180910390fd5b6000809054906101000a900473ffffffffffffffffffffffffffffffffffffffff1673ffffffffffffffffffffffffffffffffffffffff16630825f38f6000809054906101000a900473ffffffffffffffffffffffffffffffffffffffff166000856040516020016104369190612873565b604051602081830303815290604052856040518563ffffffff1660e01b8152600401610465949392919061288e565b600060405180830381600087803b15801561047f57600080fd5b505af1158015610493573d6000803e3d6000fd5b505050506040513d6000823e3d601f19601f820116820180604052506104bc9190810190611e82565b505050565b6060806060806000600360008781526020019081526020016000209050806003018160040182600501836006018380548060200260200160405190810160405280929190818152602001828054801561056f57602002820191906000526020600020905b8160009054906101000a900473ffffffffffffffffffffffffffffffffffffffff1673ffffffffffffffffffffffffffffffffffffffff1681526020019060010190808311610525575b50505050509350828054806020026020016040519081016040528092919081815260200182805480156105c157602002820191906000526020600020905b8154815260200190600101908083116105ad575b5050505050925081805480602002602001604051908101604052809291908181526020016000905b828210156106a5578382906000526020600020018054600181600116156101000203166002900480601f0160208091040260200160405190810160405280929190818152602001828054600181600116156101000203166002900480156106915780601f1061066657610100808354040283529160200191610691565b820191906000526020600020905b81548152906001019060200180831161067457829003601f168201915b5050505050815260200190600101906105e9565b50505050915080805480602002602001604051908101604052809291908181526020016000905b82821015610788578382906000526020600020018054600181600116156101000203166002900480601f0160208091040260200160405190810160405280929190818152602001828054600181600116156101000203166002900480156107745780601f1061074957610100808354040283529160200191610774565b820191906000526020600020905b81548152906001019060200180831161075757829003601f168201915b5050505050815260200190600101906106cc565b5050505090509450945094509450509193509193565b600081600254101580156107b25750600082115b6107f1576040517f08c379a00000000000000000000000000000000000000000000000000000000081526004016107e890612b21565b60405180910390fd5b60006003600084815260200190815260200160002090508060070160009054906101000a900460ff16156108295760029150506108eb565b6108d581600201546000809054906101000a900473ffffffffffffffffffffffffffffffffffffffff1673ffffffffffffffffffffffffffffffffffffffff1663c1a287e26040518163ffffffff1660e01b815260040160206040518083038186803b15801561089857600080fd5b505afa1580156108ac573d6000803e3d6000fd5b505050506040513d601f19601f820116820180604052506108d09190810190611eec565b6112f1565b42106108e55760019150506108eb565b60009150505b919050565b600160009054906101000a900473ffffffffffffffffffffffffffffffffffffffff1681565b601081565b600160009054906101000a900473ffffffffffffffffffffffffffffffffffffffff1673ffffffffffffffffffffffffffffffffffffffff163373ffffffffffffffffffffffffffffffffffffffff16146109ab576040517f08c379a00000000000000000000000000000000000000000000000000000000081526004016109a290612a81565b60405180910390fd5b6000809054906101000a900473ffffffffffffffffffffffffffffffffffffffff1673ffffffffffffffffffffffffffffffffffffffff16633a66f9016000809054906101000a900473ffffffffffffffffffffffffffffffffffffffff16600085604051602001610a1d9190612873565b604051602081830303815290604052856040518563ffffffff1660e01b8152600401610a4c949392919061288e565b602060405180830381600087803b158015610a6657600080fd5b505af1158015610a7a573d6000803e3d6000fd5b505050506040513d601f19601f82011682018060405250610a9e9190810190611e59565b505050565b600160009054906101000a900473ffffffffffffffffffffffffffffffffffffffff1673ffffffffffffffffffffffffffffffffffffffff163373ffffffffffffffffffffffffffffffffffffffff1614610b33576040517f08c379a0000000000000000000000000000000000000000000000000000000008152600401610b2a90612ba1565b60405180910390fd5b6000809054906101000a900473ffffffffffffffffffffffffffffffffffffffff1673ffffffffffffffffffffffffffffffffffffffff16630e18b6816040518163ffffffff1660e01b8152600401600060405180830381600087803b158015610b9c57600080fd5b505af1158015610bb0573d6000803e3d6000fd5b50505050565b6000809054906101000a900473ffffffffffffffffffffffffffffffffffffffff1681565b60025481565b6000600160009054906101000a900473ffffffffffffffffffffffffffffffffffffffff1673ffffffffffffffffffffffffffffffffffffffff163373ffffffffffffffffffffffffffffffffffffffff1614610c73576040517f08c379a0000000000000000000000000000000000000000000000000000000008152600401610c6a90612ae1565b60405180910390fd5b84518651148015610c85575083518651145b8015610c92575082518651145b610cd1576040517f08c379a0000000000000000000000000000000000000000000000000000000008152600401610cc890612a61565b60405180910390fd5b600086511415610d16576040517f08c379a0000000000000000000000000000000000000000000000000000000008152600401610d0d90612ac1565b60405180910390fd5b601086511115610d5b576040517f08c379a0000000000000000000000000000000000000000000000000000000008152600401610d5290612aa1565b60405180910390fd5b600260008154809291906001019190505550610d7561151a565b60405180610100016040528060025481526020013373ffffffffffffffffffffffffffffffffffffffff168152602001610e4d426000809054906101000a900473ffffffffffffffffffffffffffffffffffffffff1673ffffffffffffffffffffffffffffffffffffffff16636a42b8f86040518163ffffffff1660e01b815260040160206040518083038186803b158015610e1057600080fd5b505afa158015610e24573d6000803e3d6000fd5b505050506040513d601f19601f82011682018060405250610e489190810190611eec565b6112f1565b81526020018881526020018781526020018681526020018581526020016000151581525090508060036000836000015181526020019081526020016000206000820151816000015560208201518160010160006101000a81548173ffffffffffffffffffffffffffffffffffffffff021916908373ffffffffffffffffffffffffffffffffffffffff160217905550604082015181600201556060820151816003019080519060200190610f02929190611577565b506080820151816004019080519060200190610f1f929190611601565b5060a0820151816005019080519060200190610f3c92919061164e565b5060c0820151816006019080519060200190610f599291906116ae565b5060e08201518160070160006101000a81548160ff0219169083151502179055509050507fbaab6dcd2ae57433cc1372e25bc5139c3bd664075695546fde8821591a226e388160000151338989898989604051610fbc9796959493929190612bdc565b60405180910390a160008090505b8160600151518110156110515761104482606001518281518110610fea57fe5b60200260200101518360800151838151811061100257fe5b60200260200101518460a00151848151811061101a57fe5b60200260200101518560c00151858151811061103257fe5b60200260200101518660400151611346565b8080600101915050610fca565b507f9a2e42fd6722813d69113e7d0079d3d940171428df7373df9c7f7617cfda28928160000151826040015160405161108b929190612cb3565b60405180910390a1806000015191505095945050505050565b600060028111156110b157fe5b6110ba8261079e565b60028111156110c557fe5b14611105576040517f08c379a00000000000000000000000000000000000000000000000000000000081526004016110fc90612b41565b60405180910390fd5b600060036000838152602001908152602001600020905060018160070160006101000a81548160ff02191690831515021790555060008090505b81600301805490508110156112b5576000809054906101000a900473ffffffffffffffffffffffffffffffffffffffff1673ffffffffffffffffffffffffffffffffffffffff16630825f38f83600401838154811061119a57fe5b90600052602060002001548460030184815481106111b457fe5b9060005260206000200160009054906101000a900473ffffffffffffffffffffffffffffffffffffffff168560040185815481106111ee57fe5b906000526020600020015486600501868154811061120857fe5b9060005260206000200187600601878154811061122157fe5b9060005260206000200188600201546040518763ffffffff1660e01b815260040161125095949392919061294e565b6000604051808303818588803b15801561126957600080fd5b505af115801561127d573d6000803e3d6000fd5b50505050506040513d6000823e3d601f19601f820116820180604052506112a79190810190611e82565b50808060010191505061113f565b507f712ae1383f79ac853f8d882153778e0260ef8f03b504e2866e0593e04d2b291f826040516112e59190612bc1565b60405180910390a15050565b60008082840190508381101561133c576040517f08c379a000000000000000000000000000000000000000000000000000000000815260040161133390612b61565b60405180910390fd5b8091505092915050565b6000809054906101000a900473ffffffffffffffffffffffffffffffffffffffff1673ffffffffffffffffffffffffffffffffffffffff1663f2b06537868686868660405160200161139c9594939291906128ed565b604051602081830303815290604052805190602001206040518263ffffffff1660e01b81526004016113ce9190612a10565b60206040518083038186803b1580156113e657600080fd5b505afa1580156113fa573d6000803e3d6000fd5b505050506040513d601f19601f8201168201806040525061141e9190810190611e30565b1561145e576040517f08c379a000000000000000000000000000000000000000000000000000000000815260040161145590612b81565b60405180910390fd5b6000809054906101000a900473ffffffffffffffffffffffffffffffffffffffff1673ffffffffffffffffffffffffffffffffffffffff16633a66f90186868686866040518663ffffffff1660e01b81526004016114c09594939291906128ed565b602060405180830381600087803b1580156114da57600080fd5b505af11580156114ee573d6000803e3d6000fd5b505050506040513d601f19601f820116820180604052506115129190810190611e59565b505050505050565b60405180610100016040528060008152602001600073ffffffffffffffffffffffffffffffffffffffff16815260200160008152602001606081526020016060815260200160608152602001606081526020016000151581525090565b8280548282559060005260206000209081019282156115f0579160200282015b828111156115ef5782518260006101000a81548173ffffffffffffffffffffffffffffffffffffffff021916908373ffffffffffffffffffffffffffffffffffffffff16021790555091602001919060010190611597565b5b5090506115fd919061170e565b5090565b82805482825590600052602060002090810192821561163d579160200282015b8281111561163c578251825591602001919060010190611621565b5b50905061164a9190611751565b5090565b82805482825590600052602060002090810192821561169d579160200282015b8281111561169c57825182908051906020019061168c929190611776565b509160200191906001019061166e565b5b5090506116aa91906117f6565b5090565b8280548282559060005260206000209081019282156116fd579160200282015b828111156116fc5782518290805190602001906116ec929190611822565b50916020019190600101906116ce565b5b50905061170a91906118a2565b5090565b61174e91905b8082111561174a57600081816101000a81549073ffffffffffffffffffffffffffffffffffffffff021916905550600101611714565b5090565b90565b61177391905b8082111561176f576000816000905550600101611757565b5090565b90565b828054600181600116156101000203166002900490600052602060002090601f016020900481019282601f106117b757805160ff19168380011785556117e5565b828001600101855582156117e5579182015b828111156117e45782518255916020019190600101906117c9565b5b5090506117f29190611751565b5090565b61181f91905b8082111561181b576000818161181291906118ce565b506001016117fc565b5090565b90565b828054600181600116156101000203166002900490600052602060002090601f016020900481019282601f1061186357805160ff1916838001178555611891565b82800160010185558215611891579182015b82811115611890578251825591602001919060010190611875565b5b50905061189e9190611751565b5090565b6118cb91905b808211156118c757600081816118be9190611916565b506001016118a8565b5090565b90565b50805460018160011615610100020316600290046000825580601f106118f45750611913565b601f0160209004906000526020600020908101906119129190611751565b5b50565b50805460018160011615610100020316600290046000825580601f1061193c575061195b565b601f01602090049060005260206000209081019061195a9190611751565b5b50565b60008135905061196d8161311a565b92915050565b600082601f83011261198457600080fd5b813561199761199282612d09565b612cdc565b915081818352602084019350602081019050838560208402820111156119bc57600080fd5b60005b838110156119ec57816119d2888261195e565b8452602084019350602083019250506001810190506119bf565b5050505092915050565b600082601f830112611a0757600080fd5b8135611a1a611a1582612d31565b612cdc565b9150818183526020840193506020810190508360005b83811015611a605781358601611a468882611b8b565b845260208401935060208301925050600181019050611a30565b5050505092915050565b600082601f830112611a7b57600080fd5b8135611a8e611a8982612d59565b612cdc565b9150818183526020840193506020810190508360005b83811015611ad45781358601611aba8882611c33565b845260208401935060208301925050600181019050611aa4565b5050505092915050565b600082601f830112611aef57600080fd5b8135611b02611afd82612d81565b612cdc565b91508181835260208401935060208101905083856020840282011115611b2757600080fd5b60005b83811015611b575781611b3d8882611cdb565b845260208401935060208301925050600181019050611b2a565b5050505092915050565b600081519050611b7081613131565b92915050565b600081519050611b8581613148565b92915050565b600082601f830112611b9c57600080fd5b8135611baf611baa82612da9565b612cdc565b91508082526020830160208301858383011115611bcb57600080fd5b611bd68382846130ba565b50505092915050565b600082601f830112611bf057600080fd5b8151611c03611bfe82612dd5565b612cdc565b91508082526020830160208301858383011115611c1f57600080fd5b611c2a8382846130c9565b50505092915050565b600082601f830112611c4457600080fd5b8135611c57611c5282612e01565b612cdc565b91508082526020830160208301858383011115611c7357600080fd5b611c7e8382846130ba565b50505092915050565b600082601f830112611c9857600080fd5b8135611cab611ca682612e2d565b612cdc565b91508082526020830160208301858383011115611cc757600080fd5b611cd28382846130ba565b50505092915050565b600081359050611cea8161315f565b92915050565b600081519050611cff8161315f565b92915050565b60008060408385031215611d1857600080fd5b6000611d268582860161195e565b9250506020611d3785828601611cdb565b9150509250929050565b600080600080600060a08688031215611d5957600080fd5b600086013567ffffffffffffffff811115611d7357600080fd5b611d7f88828901611973565b955050602086013567ffffffffffffffff811115611d9c57600080fd5b611da888828901611ade565b945050604086013567ffffffffffffffff811115611dc557600080fd5b611dd188828901611a6a565b935050606086013567ffffffffffffffff811115611dee57600080fd5b611dfa888289016119f6565b925050608086013567ffffffffffffffff811115611e1757600080fd5b611e2388828901611c87565b9150509295509295909350565b600060208284031215611e4257600080fd5b6000611e5084828501611b61565b91505092915050565b600060208284031215611e6b57600080fd5b6000611e7984828501611b76565b91505092915050565b600060208284031215611e9457600080fd5b600082015167ffffffffffffffff811115611eae57600080fd5b611eba84828501611bdf565b91505092915050565b600060208284031215611ed557600080fd5b6000611ee384828501611cdb565b91505092915050565b600060208284031215611efe57600080fd5b6000611f0c84828501611cf0565b91505092915050565b6000611f218383611f7c565b60208301905092915050565b6000611f398383612197565b905092915050565b6000611f4d83836122c5565b905092915050565b6000611f618383612855565b60208301905092915050565b611f768161303c565b82525050565b611f8581612fd7565b82525050565b611f9481612fd7565b82525050565b6000611fa582612ec3565b611faf8185612f4f565b9350611fba83612e59565b8060005b83811015611feb578151611fd28882611f15565b9750611fdd83612f1b565b925050600181019050611fbe565b5085935050505092915050565b600061200382612ece565b61200d8185612f60565b93508360208202850161201f85612e69565b8060005b8581101561205b578484038952815161203c8582611f2d565b945061204783612f28565b925060208a01995050600181019050612023565b50829750879550505050505092915050565b600061207882612ed9565b6120828185612f71565b93508360208202850161209485612e79565b8060005b858110156120d057848403895281516120b18582611f41565b94506120bc83612f35565b925060208a01995050600181019050612098565b50829750879550505050505092915050565b60006120ed82612ee4565b6120f78185612f82565b935061210283612e89565b8060005b8381101561213357815161211a8882611f55565b975061212583612f42565b925050600181019050612106565b5085935050505092915050565b61214981612fe9565b82525050565b61215881612ff5565b82525050565b600061216982612efa565b6121738185612fa4565b93506121838185602086016130c9565b61218c816130fc565b840191505092915050565b60006121a282612eef565b6121ac8185612f93565b93506121bc8185602086016130c9565b6121c5816130fc565b840191505092915050565b6000815460018116600081146121ed576001811461221357612257565b607f60028304166121fe8187612fa4565b955060ff198316865260208601935050612257565b600282046122218187612fa4565b955061222c85612e99565b60005b8281101561224e5781548189015260018201915060208101905061222f565b80880195505050505b505092915050565b6122688161304e565b82525050565b61227781613072565b82525050565b61228681613084565b82525050565b600061229782612f10565b6122a18185612fc6565b93506122b18185602086016130c9565b6122ba816130fc565b840191505092915050565b60006122d082612f05565b6122da8185612fb5565b93506122ea8185602086016130c9565b6122f3816130fc565b840191505092915050565b60008154600181166000811461231b576001811461234157612385565b607f600283041661232c8187612fc6565b955060ff198316865260208601935050612385565b6002820461234f8187612fc6565b955061235a85612eae565b60005b8281101561237c5781548189015260018201915060208101905061235d565b80880195505050505b505092915050565b600061239a603f83612fc6565b91507f476f7665726e6f723a3a70726f706f73653a2070726f706f73616c2066756e6360008301527f74696f6e20696e666f726d6174696f6e206172697479206d69736d61746368006020830152604082019050919050565b6000612400604583612fc6565b91507f476f7665726e6f723a3a5f5f717565756553657454696d656c6f636b50656e6460008301527f696e6741646d696e3a2073656e646572206d75737420626520676f762067756160208301527f726469616e0000000000000000000000000000000000000000000000000000006040830152606082019050919050565b600061248c602383612fc6565b91507f476f7665726e6f723a3a70726f706f73653a20746f6f206d616e79206163746960008301527f6f6e7300000000000000000000000000000000000000000000000000000000006020830152604082019050919050565b60006124f2602783612fc6565b91507f476f7665726e6f723a3a70726f706f73653a206d7573742070726f766964652060008301527f616374696f6e73000000000000000000000000000000000000000000000000006020830152604082019050919050565b6000612558603683612fc6565b91507f476f7665726e6f723a3a70726f706f7365416e6451756575653a2073656e646560008301527f72206d75737420626520676f7620677561726469616e000000000000000000006020830152604082019050919050565b60006125be604783612fc6565b91507f476f7665726e6f723a3a5f5f6578656375746553657454696d656c6f636b506560008301527f6e64696e6741646d696e3a2073656e646572206d75737420626520676f76206760208301527f7561726469616e000000000000000000000000000000000000000000000000006040830152606082019050919050565b600061264a601883612fc6565b91507f73657450656e64696e6741646d696e28616464726573732900000000000000006000830152602082019050919050565b600061268a602483612fc6565b91507f476f7665726e6f723a3a73746174653a20696e76616c69642070726f706f736160008301527f6c206964000000000000000000000000000000000000000000000000000000006020830152604082019050919050565b60006126f0604083612fc6565b91507f476f7665726e6f723a3a657865637574653a2070726f706f73616c2063616e2060008301527f6f6e6c79206265206578656375746564206966206974206973207175657565646020830152604082019050919050565b6000612756601183612fc6565b91507f6164646974696f6e206f766572666c6f770000000000000000000000000000006000830152602082019050919050565b6000612796603f83612fc6565b91507f476f7665726e6f723a3a5f71756575654f725265766572743a2070726f706f7360008301527f616c20616374696f6e20616c72656164792071756575656420617420657461006020830152604082019050919050565b60006127fc603483612fc6565b91507f476f7665726e6f723a3a5f5f61636365707441646d696e3a2073656e6465722060008301527f6d75737420626520676f7620677561726469616e0000000000000000000000006020830152604082019050919050565b61285e81613032565b82525050565b61286d81613032565b82525050565b60006020820190506128886000830184611f8b565b92915050565b600060a0820190506128a36000830187611f8b565b6128b0602083018661227d565b81810360408301526128c18161263d565b905081810360608301526128d5818561215e565b90506128e46080830184612864565b95945050505050565b600060a0820190506129026000830188611f8b565b61290f6020830187612864565b8181036040830152612921818661228c565b90508181036060830152612935818561215e565b90506129446080830184612864565b9695505050505050565b600060a0820190506129636000830188611f8b565b6129706020830187612864565b818103604083015261298281866122fe565b9050818103606083015261299681856121d0565b90506129a56080830184612864565b9695505050505050565b600060808201905081810360008301526129c98187611f9a565b905081810360208301526129dd81866120e2565b905081810360408301526129f1818561206d565b90508181036060830152612a058184611ff8565b905095945050505050565b6000602082019050612a25600083018461214f565b92915050565b6000602082019050612a40600083018461225f565b92915050565b6000602082019050612a5b600083018461226e565b92915050565b60006020820190508181036000830152612a7a8161238d565b9050919050565b60006020820190508181036000830152612a9a816123f3565b9050919050565b60006020820190508181036000830152612aba8161247f565b9050919050565b60006020820190508181036000830152612ada816124e5565b9050919050565b60006020820190508181036000830152612afa8161254b565b9050919050565b60006020820190508181036000830152612b1a816125b1565b9050919050565b60006020820190508181036000830152612b3a8161267d565b9050919050565b60006020820190508181036000830152612b5a816126e3565b9050919050565b60006020820190508181036000830152612b7a81612749565b9050919050565b60006020820190508181036000830152612b9a81612789565b9050919050565b60006020820190508181036000830152612bba816127ef565b9050919050565b6000602082019050612bd66000830184612864565b92915050565b600060e082019050612bf1600083018a612864565b612bfe6020830189611f6d565b8181036040830152612c108188611f9a565b90508181036060830152612c2481876120e2565b90508181036080830152612c38818661206d565b905081810360a0830152612c4c8185611ff8565b905081810360c0830152612c60818461228c565b905098975050505050505050565b6000608082019050612c836000830187612864565b612c906020830186611f8b565b612c9d6040830185612864565b612caa6060830184612140565b95945050505050565b6000604082019050612cc86000830185612864565b612cd56020830184612864565b9392505050565b6000604051905081810181811067ffffffffffffffff82111715612cff57600080fd5b8060405250919050565b600067ffffffffffffffff821115612d2057600080fd5b602082029050602081019050919050565b600067ffffffffffffffff821115612d4857600080fd5b602082029050602081019050919050565b600067ffffffffffffffff821115612d7057600080fd5b602082029050602081019050919050565b600067ffffffffffffffff821115612d9857600080fd5b602082029050602081019050919050565b600067ffffffffffffffff821115612dc057600080fd5b601f19601f8301169050602081019050919050565b600067ffffffffffffffff821115612dec57600080fd5b601f19601f8301169050602081019050919050565b600067ffffffffffffffff821115612e1857600080fd5b601f19601f8301169050602081019050919050565b600067ffffffffffffffff821115612e4457600080fd5b601f19601f8301169050602081019050919050565b6000819050602082019050919050565b6000819050602082019050919050565b6000819050602082019050919050565b6000819050602082019050919050565b60008190508160005260206000209050919050565b60008190508160005260206000209050919050565b600081519050919050565b600081519050919050565b600081519050919050565b600081519050919050565b600081519050919050565b600081519050919050565b600081519050919050565b600081519050919050565b6000602082019050919050565b6000602082019050919050565b6000602082019050919050565b6000602082019050919050565b600082825260208201905092915050565b600082825260208201905092915050565b600082825260208201905092915050565b600082825260208201905092915050565b600082825260208201905092915050565b600082825260208201905092915050565b600082825260208201905092915050565b600082825260208201905092915050565b6000612fe282613012565b9050919050565b60008115159050919050565b6000819050919050565b600081905061300d8261310d565b919050565b600073ffffffffffffffffffffffffffffffffffffffff82169050919050565b6000819050919050565b600061304782613096565b9050919050565b600061305982613060565b9050919050565b600061306b82613012565b9050919050565b600061307d82612fff565b9050919050565b600061308f82613032565b9050919050565b60006130a1826130a8565b9050919050565b60006130b382613012565b9050919050565b82818337600083830152505050565b60005b838110156130e75780820151818401526020810190506130cc565b838111156130f6576000848401525b50505050565b6000601f19601f8301169050919050565b6003811061311757fe5b50565b61312381612fd7565b811461312e57600080fd5b50565b61313a81612fe9565b811461314557600080fd5b50565b61315181612ff5565b811461315c57600080fd5b50565b61316881613032565b811461317357600080fd5b5056fea365627a7a723158206be8ce3e93b8021768a2bc3ae7f3d63c39cf76c4cc5be124a79b8ae2fa1246f56c6578706572696d656e74616cf564736f6c634300050b0040",
  "devdoc": {
    "methods": {}
  },
  "userdoc": {
    "methods": {}
  },
  "gasEstimates": {
    "creation": {
      "codeDepositCost": "2545800",
      "executionCost": "infinite",
      "totalCost": "infinite"
    },
    "external": {
      "MAX_OPERATIONS()": "440",
      "__acceptAdmin()": "infinite",
      "__executeSetTimelockPendingAdmin(address,uint256)": "infinite",
      "__queueSetTimelockPendingAdmin(address,uint256)": "infinite",
      "execute(uint256)": "infinite",
      "getActions(uint256)": "infinite",
      "guardian()": "703",
      "proposalCount()": "595",
      "proposals(uint256)": "infinite",
      "proposeAndQueue(address[],uint256[],string[],bytes[],string)": "infinite",
      "state(uint256)": "infinite",
      "timelock()": "701"
    },
    "internal": {
      "_queueOrRevert(address,uint256,string memory,bytes memory,uint256)": "infinite",
      "add256(uint256,uint256)": "infinite",
      "sub256(uint256,uint256)": "infinite"
    }
  }
}