{
  "address": "0x07267ab2951f20752221c42913078e81b93E8e38",
  "abi": [
    {
      "constant": false,
      "inputs": [
        {
          "internalType": "address",
          "name": "spender",
          "type": "address"
        },
        {
          "internalType": "uint256",
          "name": "amount",
          "type": "uint256"
        }
      ],
      "name": "approve",
      "outputs": [
        {
          "internalType": "bool",
          "name": "",
          "type": "bool"
        }
      ],
      "payable": false,
      "stateMutability": "nonpayable",
      "type": "function"
    },
    {
      "constant": true,
      "inputs": [],
      "name": "totalSupply",
      "outputs": [
        {
          "internalType": "uint256",
          "name": "",
          "type": "uint256"
        }
      ],
      "payable": false,
      "stateMutability": "view",
      "type": "function"
    },
    {
      "constant": false,
      "inputs": [
        {
          "internalType": "uint256",
          "name": "_amount",
          "type": "uint256"
        },
        {
          "internalType": "int128",
          "name": "_index",
          "type": "int128"
        },
        {
          "internalType": "uint256",
          "name": "_minAmount",
          "type": "uint256"
        }
      ],
      "name": "remove_liquidity_one_coin",
      "outputs": [],
      "payable": false,
      "stateMutability": "nonpayable",
      "type": "function"
    },
    {
      "constant": false,
      "inputs": [
        {
          "internalType": "address",
          "name": "sender",
          "type": "address"
        },
        {
          "internalType": "address",
          "name": "recipient",
          "type": "address"
        },
        {
          "internalType": "uint256",
          "name": "amount",
          "type": "uint256"
        }
      ],
      "name": "transferFrom",
      "outputs": [
        {
          "internalType": "bool",
          "name": "",
          "type": "bool"
        }
      ],
      "payable": false,
      "stateMutability": "nonpayable",
      "type": "function"
    },
    {
      "constant": false,
      "inputs": [
        {
          "internalType": "address",
          "name": "spender",
          "type": "address"
        },
        {
          "internalType": "uint256",
          "name": "addedValue",
          "type": "uint256"
        }
      ],
      "name": "increaseAllowance",
      "outputs": [
        {
          "internalType": "bool",
          "name": "",
          "type": "bool"
        }
      ],
      "payable": false,
      "stateMutability": "nonpayable",
      "type": "function"
    },
    {
      "constant": false,
      "inputs": [
        {
          "internalType": "uint256[3]",
          "name": "_amounts",
          "type": "uint256[3]"
        },
        {
          "internalType": "uint256",
          "name": "_minAmount",
          "type": "uint256"
        }
      ],
      "name": "add_liquidity",
      "outputs": [],
      "payable": false,
      "stateMutability": "nonpayable",
      "type": "function"
    },
    {
      "constant": true,
      "inputs": [
        {
          "internalType": "address",
          "name": "account",
          "type": "address"
        }
      ],
      "name": "balanceOf",
      "outputs": [
        {
          "internalType": "uint256",
          "name": "",
          "type": "uint256"
        }
      ],
      "payable": false,
      "stateMutability": "view",
      "type": "function"
    },
    {
      "constant": false,
      "inputs": [
        {
          "internalType": "address",
          "name": "spender",
          "type": "address"
        },
        {
          "internalType": "uint256",
          "name": "subtractedValue",
          "type": "uint256"
        }
      ],
      "name": "decreaseAllowance",
      "outputs": [
        {
          "internalType": "bool",
          "name": "",
          "type": "bool"
        }
      ],
      "payable": false,
      "stateMutability": "nonpayable",
      "type": "function"
    },
    {
      "constant": false,
      "inputs": [
        {
          "internalType": "address",
          "name": "recipient",
          "type": "address"
        },
        {
          "internalType": "uint256",
          "name": "amount",
          "type": "uint256"
        }
      ],
      "name": "transfer",
      "outputs": [
        {
          "internalType": "bool",
          "name": "",
          "type": "bool"
        }
      ],
      "payable": false,
      "stateMutability": "nonpayable",
      "type": "function"
    },
    {
      "constant": false,
      "inputs": [],
      "name": "get_virtual_price",
      "outputs": [
        {
          "internalType": "uint256",
          "name": "",
          "type": "uint256"
        }
      ],
      "payable": false,
      "stateMutability": "nonpayable",
      "type": "function"
    },
    {
      "constant": true,
      "inputs": [
        {
          "internalType": "uint256",
          "name": "",
          "type": "uint256"
        }
      ],
      "name": "coins",
      "outputs": [
        {
          "internalType": "address",
          "name": "",
          "type": "address"
        }
      ],
      "payable": false,
      "stateMutability": "view",
      "type": "function"
    },
    {
      "constant": true,
      "inputs": [
        {
          "internalType": "uint256",
          "name": "_amount",
          "type": "uint256"
        },
        {
          "internalType": "int128",
          "name": "_index",
          "type": "int128"
        }
      ],
      "name": "calc_withdraw_one_coin",
      "outputs": [
        {
          "internalType": "uint256",
          "name": "",
          "type": "uint256"
        }
      ],
      "payable": false,
      "stateMutability": "view",
      "type": "function"
    },
    {
      "constant": true,
      "inputs": [
        {
          "internalType": "address",
          "name": "owner",
          "type": "address"
        },
        {
          "internalType": "address",
          "name": "spender",
          "type": "address"
        }
      ],
      "name": "allowance",
      "outputs": [
        {
          "internalType": "uint256",
          "name": "",
          "type": "uint256"
        }
      ],
      "payable": false,
      "stateMutability": "view",
      "type": "function"
    },
    {
      "inputs": [
        {
          "internalType": "address[3]",
          "name": "_coins",
          "type": "address[3]"
        },
        {
          "internalType": "address",
          "name": "_lpToken",
          "type": "address"
        }
      ],
      "payable": false,
      "stateMutability": "nonpayable",
      "type": "constructor"
    },
    {
      "anonymous": false,
      "inputs": [
        {
          "indexed": true,
          "internalType": "address",
          "name": "from",
          "type": "address"
        },
        {
          "indexed": true,
          "internalType": "address",
          "name": "to",
          "type": "address"
        },
        {
          "indexed": false,
          "internalType": "uint256",
          "name": "value",
          "type": "uint256"
        }
      ],
      "name": "Transfer",
      "type": "event"
    },
    {
      "anonymous": false,
      "inputs": [
        {
          "indexed": true,
          "internalType": "address",
          "name": "owner",
          "type": "address"
        },
        {
          "indexed": true,
          "internalType": "address",
          "name": "spender",
          "type": "address"
        },
        {
          "indexed": false,
          "internalType": "uint256",
          "name": "value",
          "type": "uint256"
        }
      ],
      "name": "Approval",
      "type": "event"
    }
  ],
  "transactionHash": "0xf3fe8fe149cc8747631ce34674b6a5d335060e51b8731c5f160add645b7976c8",
  "args": [
    [
      "0x0f7cA64C87a0E5b930A57706B6965543B9b8A916",
      "0x6d0A4b7bBC7dedE663aDC5288c6a46557C5b2880",
      "0x40eBfB2A1e862D836E45d17ec152434d891aC728"
    ],
    "0x0eD1CDcC1bd61fA237c3e6B6B103496bF4E18cd7"
  ],
  "solcInputHash": "c3af786fe12b6b771320281cb59e3482",
  "bytecode": "0x608060405234801561001057600080fd5b5060405161114d38038061114d8339818101604052608081101561003357600080fd5b5060608101516100456003838161006c565b50600480546001600160a01b0319166001600160a01b0392909216919091179055506100f8565b8280548282559060005260206000209081019282156100c1579160200282015b828111156100c157825182546001600160a01b0319166001600160a01b0390911617825560209092019160019091019061008c565b506100cd9291506100d1565b5090565b6100f591905b808211156100cd5780546001600160a01b03191681556001016100d7565b90565b611046806101076000396000f3fe608060405234801561001057600080fd5b50600436106100cf5760003560e01c806370a082311161008c578063bb7b8b8011610066578063bb7b8b801461025d578063c661065714610265578063cc2b27d71461029e578063dd62ed3e146102c4576100cf565b806370a08231146101df578063a457c2d714610205578063a9059cbb14610231576100cf565b8063095ea7b3146100d457806318160ddd146101145780631a4d01d21461012e57806323b872dd1461015c57806339509351146101925780634515cef3146101be575b600080fd5b610100600480360360408110156100ea57600080fd5b506001600160a01b0381351690602001356102f2565b604080519115158252519081900360200190f35b61011c610310565b60408051918252519081900360200190f35b61015a6004803603606081101561014457600080fd5b508035906020810135600f0b9060400135610316565b005b6101006004803603606081101561017257600080fd5b506001600160a01b03813581169160208101359091169060400135610499565b610100600480360360408110156101a857600080fd5b506001600160a01b038135169060200135610526565b61015a600480360360808110156101d457600080fd5b50606081013561057a565b61011c600480360360208110156101f557600080fd5b50356001600160a01b0316610844565b6101006004803603604081101561021b57600080fd5b506001600160a01b03813516906020013561085f565b6101006004803603604081101561024757600080fd5b506001600160a01b0381351690602001356108cd565b61011c6108e1565b6102826004803603602081101561027b57600080fd5b50356108ed565b604080516001600160a01b039092168252519081900360200190f35b61011c600480360360408110156102b457600080fd5b5080359060200135600f0b610914565b61011c600480360360408110156102da57600080fd5b506001600160a01b0381358116916020013516610948565b60006103066102ff610973565b8484610977565b5060015b92915050565b60025490565b60048054604080516323b872dd60e01b8152339381019390935230602484015260448301869052516001600160a01b03909116916323b872dd9160648083019260209291908290030181600087803b15801561037157600080fd5b505af1158015610385573d6000803e3d6000fd5b505050506040513d602081101561039b57600080fd5b505060035460408051828152602083810282010190915260609180156103cb578160200160208202803883390190505b509050838184600f0b815181106103de57fe5b60200260200101818152505060006103f68585610914565b9050600384600f0b8154811061040857fe5b60009182526020808320909101546040805163a9059cbb60e01b81523360048201526024810186905290516001600160a01b039092169363a9059cbb9360448084019491939192918390030190829087803b15801561046657600080fd5b505af115801561047a573d6000803e3d6000fd5b505050506040513d602081101561049057600080fd5b50505050505050565b60006104a6848484610a63565b61051c846104b2610973565b61051785604051806060016040528060288152602001610f7c602891396001600160a01b038a166000908152600160205260408120906104f0610973565b6001600160a01b03168152602081019190915260400160002054919063ffffffff610bbf16565b610977565b5060019392505050565b6000610306610533610973565b846105178560016000610544610973565b6001600160a01b03908116825260208083019390935260409182016000908120918c16815292529020549063ffffffff610c5616565b6000805b60038110156106d157600084826003811061059557fe5b602002013511156106c957600381815481106105ad57fe5b6000918252602090912001546001600160a01b03166323b872dd33308785600381106105d557fe5b60200201356040518463ffffffff1660e01b815260040180846001600160a01b03166001600160a01b03168152602001836001600160a01b03166001600160a01b031681526020018281526020019350505050602060405180830381600087803b15801561064257600080fd5b505af1158015610656573d6000803e3d6000fd5b505050506040513d602081101561066c57600080fd5b50506003805460009161069d918490811061068357fe5b6000918252602090912001546001600160a01b0316610cb7565b90506106c3816012038684600381106106b257fe5b60200201359063ffffffff610d7116565b83019250505b60010161057e565b508069062417d8af6a3820000014156106f157506903120bec57b51c1000005b81811015610746576040805162461bcd60e51b815260206004820152601860248201527f536c697070616765207275696e656420796f7572206461790000000000000000604482015290519081900360640190fd5b600480546040805163140e25ad60e31b8152928301849052516001600160a01b039091169163a0712d689160248083019260209291908290030181600087803b15801561079257600080fd5b505af11580156107a6573d6000803e3d6000fd5b505050506040513d60208110156107bc57600080fd5b5050600480546040805163a9059cbb60e01b8152339381019390935260248301849052516001600160a01b039091169163a9059cbb9160448083019260209291908290030181600087803b15801561081357600080fd5b505af1158015610827573d6000803e3d6000fd5b505050506040513d602081101561083d57600080fd5b5050505050565b6001600160a01b031660009081526020819052604090205490565b600061030661086c610973565b8461051785604051806060016040528060258152602001610fed6025913960016000610896610973565b6001600160a01b03908116825260208083019390935260409182016000908120918d1681529252902054919063ffffffff610bbf16565b60006103066108da610973565b8484610a63565b670de0b6b3a764000090565b600381815481106108fa57fe5b6000918252602090912001546001600160a01b0316905081565b60008061092a600384600f0b8154811061068357fe5b905061094084601119830163ffffffff610d7116565b949350505050565b6001600160a01b03918216600090815260016020908152604080832093909416825291909152205490565b3390565b6001600160a01b0383166109bc5760405162461bcd60e51b8152600401808060200182810382526024815260200180610fc96024913960400191505060405180910390fd5b6001600160a01b038216610a015760405162461bcd60e51b8152600401808060200182810382526022815260200180610eea6022913960400191505060405180910390fd5b6001600160a01b03808416600081815260016020908152604080832094871680845294825291829020859055815185815291517f8c5be1e5ebec7d5bd14f71427d1e84f3dd0314c0f7b2291e5b200ac8c7c3b9259281900390910190a3505050565b6001600160a01b038316610aa85760405162461bcd60e51b8152600401808060200182810382526025815260200180610fa46025913960400191505060405180910390fd5b6001600160a01b038216610aed5760405162461bcd60e51b8152600401808060200182810382526023815260200180610ec76023913960400191505060405180910390fd5b610b3081604051806060016040528060268152602001610f0c602691396001600160a01b038616600090815260208190526040902054919063ffffffff610bbf16565b6001600160a01b038085166000908152602081905260408082209390935590841681522054610b65908263ffffffff610c5616565b6001600160a01b038084166000818152602081815260409182902094909455805185815290519193928716927fddf252ad1be2c89b69c2b068fc378daa952ba7f163c4a11628f55a4df523b3ef92918290030190a3505050565b60008184841115610c4e5760405162461bcd60e51b81526004018080602001828103825283818151815260200191508051906020019080838360005b83811015610c13578181015183820152602001610bfb565b50505050905090810190601f168015610c405780820380516001836020036101000a031916815260200191505b509250505060405180910390fd5b505050900390565b600082820183811015610cb0576040805162461bcd60e51b815260206004820152601b60248201527f536166654d6174683a206164646974696f6e206f766572666c6f770000000000604482015290519081900360640190fd5b9392505050565b600080826001600160a01b031663313ce5676040518163ffffffff1660e01b815260040160206040518083038186803b158015610cf357600080fd5b505afa158015610d07573d6000803e3d6000fd5b505050506040513d6020811015610d1d57600080fd5b505160ff16905060048110801590610d36575060128111155b61030a5760405162461bcd60e51b8152600401808060200182810382526029815260200180610f326029913960400191505060405180910390fd5b6000808260000b1315610d9c57610d9583600084900b600a0a63ffffffff610dcb16565b9250610dc4565b60008260000b1215610dc457610dc1836000848103900b600a0a63ffffffff610e2416565b92505b5090919050565b600082610dda5750600061030a565b82820282848281610de757fe5b0414610cb05760405162461bcd60e51b8152600401808060200182810382526021815260200180610f5b6021913960400191505060405180910390fd5b6000610cb083836040518060400160405280601a81526020017f536166654d6174683a206469766973696f6e206279207a65726f00000000000081525060008183610eb05760405162461bcd60e51b8152602060048201818152835160248401528351909283926044909101919085019080838360008315610c13578181015183820152602001610bfb565b506000838581610ebc57fe5b049594505050505056fe45524332303a207472616e7366657220746f20746865207a65726f206164647265737345524332303a20617070726f766520746f20746865207a65726f206164647265737345524332303a207472616e7366657220616d6f756e7420657863656564732062616c616e6365546f6b656e206d75737420686176652073756666696369656e7420646563696d616c20706c61636573536166654d6174683a206d756c7469706c69636174696f6e206f766572666c6f7745524332303a207472616e7366657220616d6f756e74206578636565647320616c6c6f77616e636545524332303a207472616e736665722066726f6d20746865207a65726f206164647265737345524332303a20617070726f76652066726f6d20746865207a65726f206164647265737345524332303a2064656372656173656420616c6c6f77616e63652062656c6f77207a65726fa265627a7a72315820aa0534744085be79a89456df9cf04f12e473b6b6657323100fdce7ed4687551164736f6c634300050b0032",
  "devdoc": {
    "methods": {
      "allowance(address,address)": {
        "details": "See {IERC20-allowance}."
      },
      "approve(address,uint256)": {
        "details": "See {IERC20-approve}.     * Requirements:     * - `spender` cannot be the zero address."
      },
      "balanceOf(address)": {
        "details": "See {IERC20-balanceOf}."
      },
      "decreaseAllowance(address,uint256)": {
        "details": "Atomically decreases the allowance granted to `spender` by the caller.     * This is an alternative to {approve} that can be used as a mitigation for problems described in {IERC20-approve}.     * Emits an {Approval} event indicating the updated allowance.     * Requirements:     * - `spender` cannot be the zero address. - `spender` must have allowance for the caller of at least `subtractedValue`."
      },
      "increaseAllowance(address,uint256)": {
        "details": "Atomically increases the allowance granted to `spender` by the caller.     * This is an alternative to {approve} that can be used as a mitigation for problems described in {IERC20-approve}.     * Emits an {Approval} event indicating the updated allowance.     * Requirements:     * - `spender` cannot be the zero address."
      },
      "totalSupply()": {
        "details": "See {IERC20-totalSupply}."
      },
      "transfer(address,uint256)": {
        "details": "See {IERC20-transfer}.     * Requirements:     * - `recipient` cannot be the zero address. - the caller must have a balance of at least `amount`."
      },
      "transferFrom(address,address,uint256)": {
        "details": "See {IERC20-transferFrom}.     * Emits an {Approval} event indicating the updated allowance. This is not required by the EIP. See the note at the beginning of {ERC20};     * Requirements: - `sender` and `recipient` cannot be the zero address. - `sender` must have a balance of at least `amount`. - the caller must have allowance for `sender`'s tokens of at least `amount`."
      }
    }
  },
  "userdoc": {
    "methods": {}
  }
}