{
  "address": "0xFa86265ce64645f75eA7f74FB4a95af69927E221",
  "abi": [
    {
      "constant": true,
      "inputs": [],
      "name": "whitelistActive",
      "outputs": [
        {
          "internalType": "bool",
          "name": "",
          "type": "bool"
        }
      ],
      "payable": false,
      "stateMutability": "view",
      "type": "function"
    },
    {
      "constant": true,
      "inputs": [],
      "name": "name",
      "outputs": [
        {
          "internalType": "string",
          "name": "",
          "type": "string"
        }
      ],
      "payable": false,
      "stateMutability": "view",
      "type": "function"
    },
    {
      "constant": false,
      "inputs": [
        {
          "internalType": "address",
          "name": "spender",
          "type": "address"
        },
        {
          "internalType": "uint256",
          "name": "value",
          "type": "uint256"
        }
      ],
      "name": "approve",
      "outputs": [
        {
          "internalType": "bool",
          "name": "",
          "type": "bool"
        }
      ],
      "payable": false,
      "stateMutability": "nonpayable",
      "type": "function"
    },
    {
      "constant": true,
      "inputs": [],
      "name": "totalSupply",
      "outputs": [
        {
          "internalType": "uint256",
          "name": "",
          "type": "uint256"
        }
      ],
      "payable": false,
      "stateMutability": "view",
      "type": "function"
    },
    {
      "constant": false,
      "inputs": [
        {
          "internalType": "address",
          "name": "_from",
          "type": "address"
        },
        {
          "internalType": "address",
          "name": "_to",
          "type": "address"
        },
        {
          "internalType": "uint256",
          "name": "_value",
          "type": "uint256"
        }
      ],
      "name": "transferFrom",
      "outputs": [
        {
          "internalType": "bool",
          "name": "",
          "type": "bool"
        }
      ],
      "payable": false,
      "stateMutability": "nonpayable",
      "type": "function"
    },
    {
      "constant": false,
      "inputs": [
        {
          "internalType": "address",
          "name": "_transactor",
          "type": "address"
        }
      ],
      "name": "addAllowedTransactor",
      "outputs": [],
      "payable": false,
      "stateMutability": "nonpayable",
      "type": "function"
    },
    {
      "constant": true,
      "inputs": [],
      "name": "decimals",
      "outputs": [
        {
          "internalType": "uint8",
          "name": "",
          "type": "uint8"
        }
      ],
      "payable": false,
      "stateMutability": "view",
      "type": "function"
    },
    {
      "constant": false,
      "inputs": [
        {
          "internalType": "address",
          "name": "spender",
          "type": "address"
        },
        {
          "internalType": "uint256",
          "name": "addedValue",
          "type": "uint256"
        }
      ],
      "name": "increaseAllowance",
      "outputs": [
        {
          "internalType": "bool",
          "name": "",
          "type": "bool"
        }
      ],
      "payable": false,
      "stateMutability": "nonpayable",
      "type": "function"
    },
    {
      "constant": false,
      "inputs": [],
      "name": "unpause",
      "outputs": [],
      "payable": false,
      "stateMutability": "nonpayable",
      "type": "function"
    },
    {
      "constant": false,
      "inputs": [
        {
          "internalType": "uint256",
          "name": "_value",
          "type": "uint256"
        }
      ],
      "name": "burn",
      "outputs": [],
      "payable": false,
      "stateMutability": "nonpayable",
      "type": "function"
    },
    {
      "constant": true,
      "inputs": [
        {
          "internalType": "address",
          "name": "account",
          "type": "address"
        }
      ],
      "name": "isPauser",
      "outputs": [
        {
          "internalType": "bool",
          "name": "",
          "type": "bool"
        }
      ],
      "payable": false,
      "stateMutability": "view",
      "type": "function"
    },
    {
      "constant": false,
      "inputs": [
        {
          "internalType": "address",
          "name": "_transactor",
          "type": "address"
        }
      ],
      "name": "removeAllowedTransactor",
      "outputs": [],
      "payable": false,
      "stateMutability": "nonpayable",
      "type": "function"
    },
    {
      "constant": true,
      "inputs": [],
      "name": "paused",
      "outputs": [
        {
          "internalType": "bool",
          "name": "",
          "type": "bool"
        }
      ],
      "payable": false,
      "stateMutability": "view",
      "type": "function"
    },
    {
      "constant": false,
      "inputs": [],
      "name": "renouncePauser",
      "outputs": [],
      "payable": false,
      "stateMutability": "nonpayable",
      "type": "function"
    },
    {
      "constant": true,
      "inputs": [
        {
          "internalType": "address",
          "name": "account",
          "type": "address"
        }
      ],
      "name": "balanceOf",
      "outputs": [
        {
          "internalType": "uint256",
          "name": "",
          "type": "uint256"
        }
      ],
      "payable": false,
      "stateMutability": "view",
      "type": "function"
    },
    {
      "constant": false,
      "inputs": [
        {
          "internalType": "address",
          "name": "account",
          "type": "address"
        },
        {
          "internalType": "uint256",
          "name": "amount",
          "type": "uint256"
        }
      ],
      "name": "burnFrom",
      "outputs": [],
      "payable": false,
      "stateMutability": "nonpayable",
      "type": "function"
    },
    {
      "constant": false,
      "inputs": [
        {
          "internalType": "address",
          "name": "_spender",
          "type": "address"
        },
        {
          "internalType": "uint256",
          "name": "_value",
          "type": "uint256"
        },
        {
          "internalType": "bytes4",
          "name": "_selector",
          "type": "bytes4"
        },
        {
          "internalType": "bytes",
          "name": "_callParams",
          "type": "bytes"
        }
      ],
      "name": "approveAndCallWithSender",
      "outputs": [
        {
          "internalType": "bool",
          "name": "",
          "type": "bool"
        }
      ],
      "payable": true,
      "stateMutability": "payable",
      "type": "function"
    },
    {
      "constant": false,
      "inputs": [
        {
          "internalType": "address",
          "name": "account",
          "type": "address"
        }
      ],
      "name": "addPauser",
      "outputs": [],
      "payable": false,
      "stateMutability": "nonpayable",
      "type": "function"
    },
    {
      "constant": false,
      "inputs": [],
      "name": "pause",
      "outputs": [],
      "payable": false,
      "stateMutability": "nonpayable",
      "type": "function"
    },
    {
      "constant": true,
      "inputs": [],
      "name": "owner",
      "outputs": [
        {
          "internalType": "address",
          "name": "",
          "type": "address"
        }
      ],
      "payable": false,
      "stateMutability": "view",
      "type": "function"
    },
    {
      "constant": false,
      "inputs": [
        {
          "internalType": "address",
          "name": "_spender",
          "type": "address"
        }
      ],
      "name": "addCallSpenderWhitelist",
      "outputs": [],
      "payable": false,
      "stateMutability": "nonpayable",
      "type": "function"
    },
    {
      "constant": true,
      "inputs": [],
      "name": "symbol",
      "outputs": [
        {
          "internalType": "string",
          "name": "",
          "type": "string"
        }
      ],
      "payable": false,
      "stateMutability": "view",
      "type": "function"
    },
    {
      "constant": false,
      "inputs": [
        {
          "internalType": "address",
          "name": "_who",
          "type": "address"
        },
        {
          "internalType": "uint256",
          "name": "_value",
          "type": "uint256"
        }
      ],
      "name": "burn",
      "outputs": [],
      "payable": false,
      "stateMutability": "nonpayable",
      "type": "function"
    },
    {
      "constant": false,
      "inputs": [
        {
          "internalType": "uint256",
          "name": "_value",
          "type": "uint256"
        }
      ],
      "name": "mint",
      "outputs": [
        {
          "internalType": "bool",
          "name": "",
          "type": "bool"
        }
      ],
      "payable": false,
      "stateMutability": "nonpayable",
      "type": "function"
    },
    {
      "constant": false,
      "inputs": [
        {
          "internalType": "address",
          "name": "spender",
          "type": "address"
        },
        {
          "internalType": "uint256",
          "name": "subtractedValue",
          "type": "uint256"
        }
      ],
      "name": "decreaseAllowance",
      "outputs": [
        {
          "internalType": "bool",
          "name": "",
          "type": "bool"
        }
      ],
      "payable": false,
      "stateMutability": "nonpayable",
      "type": "function"
    },
    {
      "constant": false,
      "inputs": [
        {
          "internalType": "address",
          "name": "_to",
          "type": "address"
        },
        {
          "internalType": "uint256",
          "name": "_value",
          "type": "uint256"
        }
      ],
      "name": "transfer",
      "outputs": [
        {
          "internalType": "bool",
          "name": "",
          "type": "bool"
        }
      ],
      "payable": false,
      "stateMutability": "nonpayable",
      "type": "function"
    },
    {
      "constant": true,
      "inputs": [],
      "name": "whitelistExpiration",
      "outputs": [
        {
          "internalType": "uint256",
          "name": "",
          "type": "uint256"
        }
      ],
      "payable": false,
      "stateMutability": "view",
      "type": "function"
    },
    {
      "constant": true,
      "inputs": [
        {
          "internalType": "address",
          "name": "",
          "type": "address"
        }
      ],
      "name": "allowedTransactors",
      "outputs": [
        {
          "internalType": "bool",
          "name": "",
          "type": "bool"
        }
      ],
      "payable": false,
      "stateMutability": "view",
      "type": "function"
    },
    {
      "constant": false,
      "inputs": [
        {
          "internalType": "uint256",
          "name": "_expiration",
          "type": "uint256"
        }
      ],
      "name": "setWhitelistExpiration",
      "outputs": [],
      "payable": false,
      "stateMutability": "nonpayable",
      "type": "function"
    },
    {
      "constant": true,
      "inputs": [
        {
          "internalType": "address",
          "name": "owner",
          "type": "address"
        },
        {
          "internalType": "address",
          "name": "spender",
          "type": "address"
        }
      ],
      "name": "allowance",
      "outputs": [
        {
          "internalType": "uint256",
          "name": "",
          "type": "uint256"
        }
      ],
      "payable": false,
      "stateMutability": "view",
      "type": "function"
    },
    {
      "constant": false,
      "inputs": [
        {
          "internalType": "address",
          "name": "_spender",
          "type": "address"
        }
      ],
      "name": "removeCallSpenderWhitelist",
      "outputs": [],
      "payable": false,
      "stateMutability": "nonpayable",
      "type": "function"
    },
    {
      "constant": true,
      "inputs": [
        {
          "internalType": "address",
          "name": "",
          "type": "address"
        }
      ],
      "name": "callSpenderWhitelist",
      "outputs": [
        {
          "internalType": "bool",
          "name": "",
          "type": "bool"
        }
      ],
      "payable": false,
      "stateMutability": "view",
      "type": "function"
    },
    {
      "inputs": [
        {
          "internalType": "uint256",
          "name": "_initialSupply",
          "type": "uint256"
        }
      ],
      "payable": false,
      "stateMutability": "nonpayable",
      "type": "constructor"
    },
    {
      "anonymous": false,
      "inputs": [
        {
          "indexed": false,
          "internalType": "address",
          "name": "enabler",
          "type": "address"
        },
        {
          "indexed": false,
          "internalType": "address",
          "name": "spender",
          "type": "address"
        }
      ],
      "name": "AddCallSpenderWhitelist",
      "type": "event"
    },
    {
      "anonymous": false,
      "inputs": [
        {
          "indexed": false,
          "internalType": "address",
          "name": "disabler",
          "type": "address"
        },
        {
          "indexed": false,
          "internalType": "address",
          "name": "spender",
          "type": "address"
        }
      ],
      "name": "RemoveCallSpenderWhitelist",
      "type": "event"
    },
    {
      "anonymous": false,
      "inputs": [
        {
          "indexed": false,
          "internalType": "uint256",
          "name": "expiration",
          "type": "uint256"
        }
      ],
      "name": "SetWhitelistExpiration",
      "type": "event"
    },
    {
      "anonymous": false,
      "inputs": [
        {
          "indexed": false,
          "internalType": "address",
          "name": "sender",
          "type": "address"
        }
      ],
      "name": "AllowedTransactorAdded",
      "type": "event"
    },
    {
      "anonymous": false,
      "inputs": [
        {
          "indexed": false,
          "internalType": "address",
          "name": "sender",
          "type": "address"
        }
      ],
      "name": "AllowedTransactorRemoved",
      "type": "event"
    },
    {
      "anonymous": false,
      "inputs": [
        {
          "indexed": false,
          "internalType": "address",
          "name": "account",
          "type": "address"
        }
      ],
      "name": "Paused",
      "type": "event"
    },
    {
      "anonymous": false,
      "inputs": [
        {
          "indexed": false,
          "internalType": "address",
          "name": "account",
          "type": "address"
        }
      ],
      "name": "Unpaused",
      "type": "event"
    },
    {
      "anonymous": false,
      "inputs": [
        {
          "indexed": true,
          "internalType": "address",
          "name": "account",
          "type": "address"
        }
      ],
      "name": "PauserAdded",
      "type": "event"
    },
    {
      "anonymous": false,
      "inputs": [
        {
          "indexed": true,
          "internalType": "address",
          "name": "account",
          "type": "address"
        }
      ],
      "name": "PauserRemoved",
      "type": "event"
    },
    {
      "anonymous": false,
      "inputs": [
        {
          "indexed": true,
          "internalType": "address",
          "name": "from",
          "type": "address"
        },
        {
          "indexed": true,
          "internalType": "address",
          "name": "to",
          "type": "address"
        },
        {
          "indexed": false,
          "internalType": "uint256",
          "name": "value",
          "type": "uint256"
        }
      ],
      "name": "Transfer",
      "type": "event"
    },
    {
      "anonymous": false,
      "inputs": [
        {
          "indexed": true,
          "internalType": "address",
          "name": "owner",
          "type": "address"
        },
        {
          "indexed": true,
          "internalType": "address",
          "name": "spender",
          "type": "address"
        },
        {
          "indexed": false,
          "internalType": "uint256",
          "name": "value",
          "type": "uint256"
        }
      ],
      "name": "Approval",
      "type": "event"
    }
  ],
  "transactionHash": "0xa1ad1f960fac6042188cfdf4a01538f957bb1aa1883aab74d744885fbf2e29ef",
  "args": [
    "1000000000000000000000000000"
  ],
  "solcInputHash": "c3af786fe12b6b771320281cb59e3482",
  "bytecode": "0x608060405260048054610100600160a81b03191633610100021790553480156200002857600080fd5b506040516200266138038062002661833981810160405260208110156200004e57600080fd5b5051604080518082018252600b81527f4f726967696e546f6b656e0000000000000000000000000000000000000000006020828101919091528251808401909352600383527f4f474e000000000000000000000000000000000000000000000000000000000090830152906012620000e1620000d26001600160e01b036200016916565b6001600160e01b036200016e16565b6004805460ff1916905582516200010090600790602086019062000481565b5081516200011690600890602085019062000481565b506009805460ff191660ff92909216919091179055505060048054610100600160a81b031916610100338102919091179182905562000162916001600160a01b039190041682620001c0565b5062000523565b335b90565b62000189816003620002db60201b62001c4b1790919060201c565b6040516001600160a01b038216907f6719d08c1888103bea251a4ed56406bd0c3e69723c8a1686e017e7bbe159b6f890600090a250565b6001600160a01b0382166200023657604080517f08c379a000000000000000000000000000000000000000000000000000000000815260206004820152601f60248201527f45524332303a206d696e7420746f20746865207a65726f206164647265737300604482015290519081900360640190fd5b62000252816002546200038260201b62001af31790919060201c565b6002556001600160a01b038216600090815260208181526040909120546200028591839062001af362000382821b17901c565b6001600160a01b0383166000818152602081815260408083209490945583518581529351929391927fddf252ad1be2c89b69c2b068fc378daa952ba7f163c4a11628f55a4df523b3ef9281900390910190a35050565b620002f082826001600160e01b03620003fe16565b156200035d57604080517f08c379a000000000000000000000000000000000000000000000000000000000815260206004820152601f60248201527f526f6c65733a206163636f756e7420616c72656164792068617320726f6c6500604482015290519081900360640190fd5b6001600160a01b0316600090815260209190915260409020805460ff19166001179055565b600082820183811015620003f757604080517f08c379a000000000000000000000000000000000000000000000000000000000815260206004820152601b60248201527f536166654d6174683a206164646974696f6e206f766572666c6f770000000000604482015290519081900360640190fd5b9392505050565b60006001600160a01b03821662000461576040517f08c379a00000000000000000000000000000000000000000000000000000000081526004018080602001828103825260228152602001806200263f6022913960400191505060405180910390fd5b506001600160a01b03166000908152602091909152604090205460ff1690565b828054600181600116156101000203166002900490600052602060002090601f016020900481019282601f10620004c457805160ff1916838001178555620004f4565b82800160010185558215620004f4579182015b82811115620004f4578251825591602001919060010190620004d7565b506200050292915062000506565b5090565b6200016b91905b808211156200050257600081556001016200050d565b61210c80620005336000396000f3fe6080604052600436106101e35760003560e01c806382857a0311610102578063a457c2d711610095578063ce73a61d11610064578063ce73a61d146107bc578063dd62ed3e146107e6578063f75eb24014610821578063f7613fb114610854576101e3565b8063a457c2d714610702578063a9059cbb1461073b578063c5e1edcb14610774578063c985321114610789576101e3565b80638e09c8cd116100d15780638e09c8cd1461065757806395d89b411461068a5780639dc29fac1461069f578063a0712d68146106d8576101e3565b806382857a031461051257806382dc1ec4146105de5780638456cb59146106115780638da5cb5b14610626576101e3565b80633f4ba83a1161017a5780635c975abb116101495780635c975abb1461047c5780636ef8d66d1461049157806370a08231146104a657806379cc6790146104d9576101e3565b80633f4ba83a146103d757806342966c68146103ec57806346fbf68e146104165780635c561fff14610449576101e3565b806323b872dd116101b657806323b872dd146102fb5780632faad46f1461033e578063313ce56714610373578063395093511461039e576101e3565b806302ce5813146101e857806306fdde0314610211578063095ea7b31461029b57806318160ddd146102d4575b600080fd5b3480156101f457600080fd5b506101fd610887565b604080519115158252519081900360200190f35b34801561021d57600080fd5b5061022661088f565b6040805160208082528351818301528351919283929083019185019080838360005b83811015610260578181015183820152602001610248565b50505050905090810190601f16801561028d5780820380516001836020036101000a031916815260200191505b509250505060405180910390f35b3480156102a757600080fd5b506101fd600480360360408110156102be57600080fd5b506001600160a01b038135169060200135610925565b3480156102e057600080fd5b506102e9610984565b60408051918252519081900360200190f35b34801561030757600080fd5b506101fd6004803603606081101561031e57600080fd5b506001600160a01b0381358116916020810135909116906040013561098a565b34801561034a57600080fd5b506103716004803603602081101561036157600080fd5b50356001600160a01b0316610a2d565b005b34801561037f57600080fd5b50610388610aa9565b6040805160ff9092168252519081900360200190f35b3480156103aa57600080fd5b506101fd600480360360408110156103c157600080fd5b506001600160a01b038135169060200135610ab2565b3480156103e357600080fd5b50610371610b0a565b3480156103f857600080fd5b506103716004803603602081101561040f57600080fd5b5035610bf3565b34801561042257600080fd5b506101fd6004803603602081101561043957600080fd5b50356001600160a01b0316610c1b565b34801561045557600080fd5b506103716004803603602081101561046c57600080fd5b50356001600160a01b0316610c34565b34801561048857600080fd5b506101fd610cad565b34801561049d57600080fd5b50610371610cb6565b3480156104b257600080fd5b506102e9600480360360208110156104c957600080fd5b50356001600160a01b0316610cc8565b3480156104e557600080fd5b50610371600480360360408110156104fc57600080fd5b506001600160a01b038135169060200135610ce3565b6101fd6004803603608081101561052857600080fd5b6001600160a01b03823516916020810135916001600160e01b0319604083013516919081019060808101606082013564010000000081111561056957600080fd5b82018360208201111561057b57600080fd5b8035906020019184600183028401116401000000008311171561059d57600080fd5b91908080601f016020809104026020016040519081016040528093929190818152602001838380828437600092019190915250929550610cf1945050505050565b3480156105ea57600080fd5b506103716004803603602081101561060157600080fd5b50356001600160a01b0316610f9f565b34801561061d57600080fd5b50610371610fee565b34801561063257600080fd5b5061063b6110b5565b604080516001600160a01b039092168252519081900360200190f35b34801561066357600080fd5b506103716004803603602081101561067a57600080fd5b50356001600160a01b03166110c9565b34801561069657600080fd5b50610226611147565b3480156106ab57600080fd5b50610371600480360360408110156106c257600080fd5b506001600160a01b0381351690602001356111a8565b3480156106e457600080fd5b506101fd600480360360208110156106fb57600080fd5b50356111ce565b34801561070e57600080fd5b506101fd6004803603604081101561072557600080fd5b506001600160a01b0381351690602001356111e2565b34801561074757600080fd5b506101fd6004803603604081101561075e57600080fd5b506001600160a01b03813516906020013561123a565b34801561078057600080fd5b506102e96112db565b34801561079557600080fd5b506101fd600480360360208110156107ac57600080fd5b50356001600160a01b03166112e1565b3480156107c857600080fd5b50610371600480360360208110156107df57600080fd5b50356112f6565b3480156107f257600080fd5b506102e96004803603604081101561080957600080fd5b506001600160a01b03813581169160200135166113db565b34801561082d57600080fd5b506103716004803603602081101561084457600080fd5b50356001600160a01b0316611406565b34801561086057600080fd5b506101fd6004803603602081101561087757600080fd5b50356001600160a01b0316611481565b600554421090565b60078054604080516020601f600260001961010060018816150201909516949094049384018190048102820181019092528281526060939092909183018282801561091b5780601f106108f05761010080835404028352916020019161091b565b820191906000526020600020905b8154815290600101906020018083116108fe57829003601f168201915b5050505050905090565b60045460009060ff1615610973576040805162461bcd60e51b815260206004820152601060248201526f14185d5cd8589b194e881c185d5cd95960821b604482015290519081900360640190fd5b61097d8383611496565b9392505050565b60025490565b60008383610996610887565b15806109ba57506001600160a01b03821660009081526006602052604090205460ff165b806109dd57506001600160a01b03811660009081526006602052604090205460ff165b610a185760405162461bcd60e51b81526004018080602001828103825260288152602001806120b06028913960400191505060405180910390fd5b610a238686866114b3565b9695505050505050565b60045461010090046001600160a01b03163314610a4957600080fd5b604080516001600160a01b038316815290517fe504b838e935ead8d5abd80b50f40c979d04e5a09fb1a3ffad89d2652a458a319181900360200190a16001600160a01b03166000908152600660205260409020805460ff19166001179055565b60095460ff1690565b60045460009060ff1615610b00576040805162461bcd60e51b815260206004820152601060248201526f14185d5cd8589b194e881c185d5cd95960821b604482015290519081900360640190fd5b61097d8383611514565b610b1a610b1561156d565b610c1b565b610b555760405162461bcd60e51b8152600401808060200182810382526030815260200180611ec06030913960400191505060405180910390fd5b60045460ff16610ba3576040805162461bcd60e51b815260206004820152601460248201527314185d5cd8589b194e881b9bdd081c185d5cd95960621b604482015290519081900360640190fd5b6004805460ff191690557f5db9ee0a495bf2e6ff9c91a7834c1ba4fdd244a5e8aa4e537bd38aeae4b073aa610bd661156d565b604080516001600160a01b039092168252519081900360200190a1565b60045461010090046001600160a01b03163314610c0f57600080fd5b610c1881611571565b50565b6000610c2e60038363ffffffff61158216565b92915050565b60045461010090046001600160a01b03163314610c5057600080fd5b604080516001600160a01b038316815290517ffd1d27a7b372eaafdb0f7bb6231d45a1557a67d539850354457c36e54b65b4799181900360200190a16001600160a01b03166000908152600660205260409020805460ff19169055565b60045460ff1690565b610cc6610cc161156d565b6115e9565b565b6001600160a01b031660009081526020819052604090205490565b610ced8282611631565b5050565b60006001600160a01b038516301415610d51576040805162461bcd60e51b815260206004820181905260248201527f746f6b656e20636f6e74726163742063616e277420626520617070726f766564604482015290519081900360640190fd5b6001600160a01b0385166000908152600a602052604090205460ff16610dbe576040805162461bcd60e51b815260206004820152601860248201527f7370656e646572206e6f7420696e2077686974656c6973740000000000000000604482015290519081900360640190fd5b610dc88585610925565b610e0a576040805162461bcd60e51b815260206004820152600e60248201526d185c1c1c9bdd994819985a5b195960921b604482015290519081900360640190fd5b606083336001600160a01b03168460405160200180846001600160e01b0319166001600160e01b031916815260040183815260200182805190602001908083835b60208310610e6a5780518252601f199092019160209182019101610e4b565b6001836020036101000a038019825116818451168082178552505050505050905001935050505060405160208183030381529060405290506000866001600160a01b031634836040518082805190602001908083835b60208310610edf5780518252601f199092019160209182019101610ec0565b6001836020036101000a03801982511681845116808217855250505050505090500191505060006040518083038185875af1925050503d8060008114610f41576040519150601f19603f3d011682016040523d82523d6000602084013e610f46565b606091505b5050905080610f92576040805162461bcd60e51b81526020600482015260136024820152721c1c9bde1a59590818d85b1b0819985a5b1959606a1b604482015290519081900360640190fd5b5060019695505050505050565b610faa610b1561156d565b610fe55760405162461bcd60e51b8152600401808060200182810382526030815260200180611ec06030913960400191505060405180910390fd5b610c18816116ac565b610ff9610b1561156d565b6110345760405162461bcd60e51b8152600401808060200182810382526030815260200180611ec06030913960400191505060405180910390fd5b60045460ff161561107f576040805162461bcd60e51b815260206004820152601060248201526f14185d5cd8589b194e881c185d5cd95960821b604482015290519081900360640190fd5b6004805460ff191660011790557f62e78cea01bee320cd4e420270b5ea74000d11b0c9f74754ebdbfc544b05a258610bd661156d565b60045461010090046001600160a01b031681565b60045461010090046001600160a01b031633146110e557600080fd5b6001600160a01b0381166000818152600a6020908152604091829020805460ff1916600117905581513381529081019290925280517f1ba6e2be05698ce865c32566beec57943dafda4497692900d3d5b3c15fecfbb39281900390910190a150565b60088054604080516020601f600260001961010060018816150201909516949094049384018190048102820181019092528281526060939092909183018282801561091b5780601f106108f05761010080835404028352916020019161091b565b60045461010090046001600160a01b031633146111c457600080fd5b610ced82826116f4565b60006111da33836117f0565b506001919050565b60045460009060ff1615611230576040805162461bcd60e51b815260206004820152601060248201526f14185d5cd8589b194e881c185d5cd95960821b604482015290519081900360640190fd5b61097d83836118e0565b60003383611246610887565b158061126a57506001600160a01b03821660009081526006602052604090205460ff165b8061128d57506001600160a01b03811660009081526006602052604090205460ff165b6112c85760405162461bcd60e51b81526004018080602001828103825260288152602001806120b06028913960400191505060405180910390fd5b6112d2858561194e565b95945050505050565b60055481565b60066020526000908152604090205460ff1681565b60045461010090046001600160a01b0316331461131257600080fd5b60055415806113245750611324610887565b61135f5760405162461bcd60e51b8152600401808060200182810382526027815260200180611f386027913960400191505060405180910390fd5b4262015180018110156113a35760405162461bcd60e51b81526004018080602001828103825260338152602001806120346033913960400191505060405180910390fd5b6040805182815290517f425185790737a8bc9659e0a4633a6b6b0428202b2e51b787b431d5fa68242f589181900360200190a1600555565b6001600160a01b03918216600090815260016020908152604080832093909416825291909152205490565b60045461010090046001600160a01b0316331461142257600080fd5b6001600160a01b0381166000818152600a6020908152604091829020805460ff1916905581513381529081019290925280517fe840dc5b604bdf9f0bb0eafea84c8542625377dd1fe6116b6b63323e4855a85a9281900390910190a150565b600a6020526000908152604090205460ff1681565b60006114aa6114a361156d565b84846119a6565b50600192915050565b60045460009060ff1615611501576040805162461bcd60e51b815260206004820152601060248201526f14185d5cd8589b194e881c185d5cd95960821b604482015290519081900360640190fd5b61150c848484611a92565b949350505050565b60006114aa61152161156d565b84611568856001600061153261156d565b6001600160a01b03908116825260208083019390935260409182016000908120918c16815292529020549063ffffffff611af316565b6119a6565b3390565b610c1861157c61156d565b826116f4565b60006001600160a01b0382166115c95760405162461bcd60e51b8152600401808060200182810382526022815260200180611fa86022913960400191505060405180910390fd5b506001600160a01b03166000908152602091909152604090205460ff1690565b6115fa60038263ffffffff611b4d16565b6040516001600160a01b038216907fcd265ebaf09df2871cc7bd4133404a235ba12eff2041bb89d9c714a2621c7c7e90600090a250565b61163b82826116f4565b610ced8261164761156d565b61156884604051806060016040528060248152602001611fca602491396001600160a01b03881660009081526001602052604081209061168561156d565b6001600160a01b03168152602081019190915260400160002054919063ffffffff611bb416565b6116bd60038263ffffffff611c4b16565b6040516001600160a01b038216907f6719d08c1888103bea251a4ed56406bd0c3e69723c8a1686e017e7bbe159b6f890600090a250565b6001600160a01b0382166117395760405162461bcd60e51b8152600401808060200182810382526021815260200180611fee6021913960400191505060405180910390fd5b61177c81604051806060016040528060228152602001611e9e602291396001600160a01b038516600090815260208190526040902054919063ffffffff611bb416565b6001600160a01b0383166000908152602081905260409020556002546117a8908263ffffffff611ccc16565b6002556040805182815290516000916001600160a01b038516917fddf252ad1be2c89b69c2b068fc378daa952ba7f163c4a11628f55a4df523b3ef9181900360200190a35050565b6001600160a01b03821661184b576040805162461bcd60e51b815260206004820152601f60248201527f45524332303a206d696e7420746f20746865207a65726f206164647265737300604482015290519081900360640190fd5b60025461185e908263ffffffff611af316565b6002556001600160a01b03821660009081526020819052604090205461188a908263ffffffff611af316565b6001600160a01b0383166000818152602081815260408083209490945583518581529351929391927fddf252ad1be2c89b69c2b068fc378daa952ba7f163c4a11628f55a4df523b3ef9281900390910190a35050565b60006114aa6118ed61156d565b846115688560405180606001604052806025815260200161208b602591396001600061191761156d565b6001600160a01b03908116825260208083019390935260409182016000908120918d1681529252902054919063ffffffff611bb416565b60045460009060ff161561199c576040805162461bcd60e51b815260206004820152601060248201526f14185d5cd8589b194e881c185d5cd95960821b604482015290519081900360640190fd5b61097d8383611d0e565b6001600160a01b0383166119eb5760405162461bcd60e51b81526004018080602001828103825260248152602001806120676024913960400191505060405180910390fd5b6001600160a01b038216611a305760405162461bcd60e51b8152600401808060200182810382526022815260200180611ef06022913960400191505060405180910390fd5b6001600160a01b03808416600081815260016020908152604080832094871680845294825291829020859055815185815291517f8c5be1e5ebec7d5bd14f71427d1e84f3dd0314c0f7b2291e5b200ac8c7c3b9259281900390910190a3505050565b6000611a9f848484611d1e565b611ae984611aab61156d565b61156885604051806060016040528060288152602001611f80602891396001600160a01b038a1660009081526001602052604081209061168561156d565b5060019392505050565b60008282018381101561097d576040805162461bcd60e51b815260206004820152601b60248201527f536166654d6174683a206164646974696f6e206f766572666c6f770000000000604482015290519081900360640190fd5b611b578282611582565b611b925760405162461bcd60e51b8152600401808060200182810382526021815260200180611f5f6021913960400191505060405180910390fd5b6001600160a01b0316600090815260209190915260409020805460ff19169055565b60008184841115611c435760405162461bcd60e51b81526004018080602001828103825283818151815260200191508051906020019080838360005b83811015611c08578181015183820152602001611bf0565b50505050905090810190601f168015611c355780820380516001836020036101000a031916815260200191505b509250505060405180910390fd5b505050900390565b611c558282611582565b15611ca7576040805162461bcd60e51b815260206004820152601f60248201527f526f6c65733a206163636f756e7420616c72656164792068617320726f6c6500604482015290519081900360640190fd5b6001600160a01b0316600090815260209190915260409020805460ff19166001179055565b600061097d83836040518060400160405280601e81526020017f536166654d6174683a207375627472616374696f6e206f766572666c6f770000815250611bb4565b60006114aa611d1b61156d565b84845b6001600160a01b038316611d635760405162461bcd60e51b815260040180806020018281038252602581526020018061200f6025913960400191505060405180910390fd5b6001600160a01b038216611da85760405162461bcd60e51b8152600401808060200182810382526023815260200180611e7b6023913960400191505060405180910390fd5b611deb81604051806060016040528060268152602001611f12602691396001600160a01b038616600090815260208190526040902054919063ffffffff611bb416565b6001600160a01b038085166000908152602081905260408082209390935590841681522054611e20908263ffffffff611af316565b6001600160a01b038084166000818152602081815260409182902094909455805185815290519193928716927fddf252ad1be2c89b69c2b068fc378daa952ba7f163c4a11628f55a4df523b3ef92918290030190a350505056fe45524332303a207472616e7366657220746f20746865207a65726f206164647265737345524332303a206275726e20616d6f756e7420657863656564732062616c616e6365506175736572526f6c653a2063616c6c657220646f6573206e6f742068617665207468652050617573657220726f6c6545524332303a20617070726f766520746f20746865207a65726f206164647265737345524332303a207472616e7366657220616d6f756e7420657863656564732062616c616e6365616e20657870697265642077686974656c6973742063616e6e6f7420626520657874656e646564526f6c65733a206163636f756e7420646f6573206e6f74206861766520726f6c6545524332303a207472616e7366657220616d6f756e74206578636565647320616c6c6f77616e6365526f6c65733a206163636f756e7420697320746865207a65726f206164647265737345524332303a206275726e20616d6f756e74206578636565647320616c6c6f77616e636545524332303a206275726e2066726f6d20746865207a65726f206164647265737345524332303a207472616e736665722066726f6d20746865207a65726f206164647265737377686974656c6973742065787069726174696f6e206e6f742066617220656e6f75676820696e746f207468652066757475726545524332303a20617070726f76652066726f6d20746865207a65726f206164647265737345524332303a2064656372656173656420616c6c6f77616e63652062656c6f77207a65726f6e6569746865722073656e646572206e6f7220726563697069656e742061726520616c6c6f776564a265627a7a72315820dd2eb8fdd67557aaaa35bce5552422b09349706acdeedd82bd4b371aafc984ee64736f6c634300050b0032526f6c65733a206163636f756e7420697320746865207a65726f2061646472657373",
  "devdoc": {
    "details": "Token that allows minting, burning, and pausing by contract owner.Important note:There is a known race condition in the ERC20 standard on the approve() method.See details: https://github.com/ethereum/EIPs/issues/20#issuecomment-263524729The Origin token contract implements the increaseApproval() and decreaseApproval() methods.It is strongly recommended to use those methods rather than approve()when updating the token allowance.",
    "methods": {
      "allowance(address,address)": {
        "details": "See {IERC20-allowance}."
      },
      "balanceOf(address)": {
        "details": "See {IERC20-balanceOf}."
      },
      "burnFrom(address,uint256)": {
        "details": "See {ERC20-_burnFrom}."
      },
      "decimals()": {
        "details": "Returns the number of decimals used to get its user representation. For example, if `decimals` equals `2`, a balance of `505` tokens should be displayed to a user as `5,05` (`505 / 10 ** 2`).     * Tokens usually opt for a value of 18, imitating the relationship between Ether and Wei.     * NOTE: This information is only used for _display_ purposes: it in no way affects any of the arithmetic of the contract, including {IERC20-balanceOf} and {IERC20-transfer}."
      },
      "name()": {
        "details": "Returns the name of the token."
      },
      "pause()": {
        "details": "Called by a pauser to pause, triggers stopped state."
      },
      "paused()": {
        "details": "Returns true if the contract is paused, and false otherwise."
      },
      "setWhitelistExpiration(uint256)": {
        "details": "Set the whitelist expiration, after which the whitelist no longer applies."
      },
      "symbol()": {
        "details": "Returns the symbol of the token, usually a shorter version of the name."
      },
      "totalSupply()": {
        "details": "See {IERC20-totalSupply}."
      },
      "unpause()": {
        "details": "Called by a pauser to unpause, returns to normal state."
      }
    },
    "title": "Origin token (OGN)."
  },
  "userdoc": {
    "methods": {}
  }
}