{
  "address": "0x83AEeFd4e5589DaD94F61cc508dCF8b133f050D8",
  "abi": [
    {
      "constant": true,
      "inputs": [],
      "name": "decimals",
      "outputs": [
        {
          "internalType": "uint8",
          "name": "",
          "type": "uint8"
        }
      ],
      "payable": false,
      "stateMutability": "view",
      "type": "function"
    },
    {
      "constant": true,
      "inputs": [],
      "name": "version",
      "outputs": [
        {
          "internalType": "uint256",
          "name": "",
          "type": "uint256"
        }
      ],
      "payable": false,
      "stateMutability": "view",
      "type": "function"
    },
    {
      "constant": true,
      "inputs": [],
      "name": "description",
      "outputs": [
        {
          "internalType": "string",
          "name": "",
          "type": "string"
        }
      ],
      "payable": false,
      "stateMutability": "view",
      "type": "function"
    },
    {
      "constant": false,
      "inputs": [
        {
          "internalType": "uint8",
          "name": "_decimals",
          "type": "uint8"
        }
      ],
      "name": "setDecimals",
      "outputs": [],
      "payable": false,
      "stateMutability": "nonpayable",
      "type": "function"
    },
    {
      "constant": true,
      "inputs": [
        {
          "internalType": "uint80",
          "name": "_roundId",
          "type": "uint80"
        }
      ],
      "name": "getRoundData",
      "outputs": [
        {
          "internalType": "uint80",
          "name": "roundId",
          "type": "uint80"
        },
        {
          "internalType": "int256",
          "name": "answer",
          "type": "int256"
        },
        {
          "internalType": "uint256",
          "name": "startedAt",
          "type": "uint256"
        },
        {
          "internalType": "uint256",
          "name": "updatedAt",
          "type": "uint256"
        },
        {
          "internalType": "uint80",
          "name": "answeredInRound",
          "type": "uint80"
        }
      ],
      "payable": false,
      "stateMutability": "view",
      "type": "function"
    },
    {
      "constant": false,
      "inputs": [
        {
          "internalType": "int256",
          "name": "_price",
          "type": "int256"
        }
      ],
      "name": "setPrice",
      "outputs": [],
      "payable": false,
      "stateMutability": "nonpayable",
      "type": "function"
    },
    {
      "constant": true,
      "inputs": [],
      "name": "latestRoundData",
      "outputs": [
        {
          "internalType": "uint80",
          "name": "roundId",
          "type": "uint80"
        },
        {
          "internalType": "int256",
          "name": "answer",
          "type": "int256"
        },
        {
          "internalType": "uint256",
          "name": "startedAt",
          "type": "uint256"
        },
        {
          "internalType": "uint256",
          "name": "updatedAt",
          "type": "uint256"
        },
        {
          "internalType": "uint80",
          "name": "answeredInRound",
          "type": "uint80"
        }
      ],
      "payable": false,
      "stateMutability": "view",
      "type": "function"
    },
    {
      "inputs": [
        {
          "internalType": "int256",
          "name": "_price",
          "type": "int256"
        },
        {
          "internalType": "uint8",
          "name": "_decimals",
          "type": "uint8"
        }
      ],
      "payable": false,
      "stateMutability": "nonpayable",
      "type": "constructor"
    }
  ],
  "transactionHash": "0x5d19a23e3dbbd0f41e296f45a65ce15e37f5cf2aa618968a833ab3abb5bded35",
  "args": [
    "10000000000000000",
    18
  ],
  "solcInputHash": "c3af786fe12b6b771320281cb59e3482",
  "bytecode": "0x608060405234801561001057600080fd5b506040516102ed3803806102ed8339818101604052604081101561003357600080fd5b50805160209091015160009182556001805460ff191660ff90921691909117905561028990819061006490396000f3fe608060405234801561001057600080fd5b506004361061007d5760003560e01c80637a1395aa1161005b5780637a1395aa146101375780639a6fc8f514610159578063f7a30806146101c1578063feaf968c146101de5761007d565b8063313ce5671461008257806354fd4d50146100a05780637284e416146100ba575b600080fd5b61008a6101e6565b6040805160ff9092168252519081900360200190f35b6100a86101ef565b60408051918252519081900360200190f35b6100c26101f4565b6040805160208082528351818301528351919283929083019185019080838360005b838110156100fc5781810151838201526020016100e4565b50505050905090810190601f1680156101295780820380516001836020036101000a031916815260200191505b509250505060405180910390f35b6101576004803603602081101561014d57600080fd5b503560ff1661021f565b005b6101826004803603602081101561016f57600080fd5b503569ffffffffffffffffffff16610235565b6040805169ffffffffffffffffffff96871681526020810195909552848101939093526060840191909152909216608082015290519081900360a00190f35b610157600480360360208110156101d757600080fd5b5035610241565b610182610246565b60015460ff1690565b600190565b604080518082019091526011815270135bd8dad3dc9858db19515d1a11995959607a1b602082015290565b6001805460ff191660ff92909216919091179055565b60008054919281908190565b600055565b60008054909182908190819056fea265627a7a72315820167c6375b582bf89b937934d4f58c7c4305e11330938b51012348d5deae0959264736f6c634300050b0032",
  "devdoc": {
    "methods": {}
  },
  "userdoc": {
    "methods": {}
  }
}