{
  "address": "0x2c86077382E89292BaF24cDF18483554BE51A2BC",
  "abi": [
    {
      "constant": false,
      "inputs": [
        {
          "internalType": "uint256",
          "name": "amountIn",
          "type": "uint256"
        },
        {
          "internalType": "uint256",
          "name": "amountOutMin",
          "type": "uint256"
        },
        {
          "internalType": "address[]",
          "name": "path",
          "type": "address[]"
        },
        {
          "internalType": "address",
          "name": "to",
          "type": "address"
        },
        {
          "internalType": "uint256",
          "name": "deadline",
          "type": "uint256"
        }
      ],
      "name": "swapExactTokensForTokens",
      "outputs": [
        {
          "internalType": "uint256[]",
          "name": "amounts",
          "type": "uint256[]"
        }
      ],
      "payable": false,
      "stateMutability": "nonpayable",
      "type": "function"
    },
    {
      "constant": false,
      "inputs": [
        {
          "internalType": "address",
          "name": "_token0",
          "type": "address"
        },
        {
          "internalType": "address",
          "name": "_token1",
          "type": "address"
        }
      ],
      "name": "initialize",
      "outputs": [],
      "payable": false,
      "stateMutability": "nonpayable",
      "type": "function"
    },
    {
      "constant": true,
      "inputs": [],
      "name": "WETH",
      "outputs": [
        {
          "internalType": "address",
          "name": "",
          "type": "address"
        }
      ],
      "payable": false,
      "stateMutability": "view",
      "type": "function"
    },
    {
      "constant": false,
      "inputs": [
        {
          "internalType": "address",
          "name": "tokenA",
          "type": "address"
        },
        {
          "internalType": "address",
          "name": "tokenB",
          "type": "address"
        },
        {
          "internalType": "uint256",
          "name": "amountADesired",
          "type": "uint256"
        },
        {
          "internalType": "uint256",
          "name": "amountBDesired",
          "type": "uint256"
        },
        {
          "internalType": "uint256",
          "name": "amountAMin",
          "type": "uint256"
        },
        {
          "internalType": "uint256",
          "name": "amountBMin",
          "type": "uint256"
        },
        {
          "internalType": "address",
          "name": "to",
          "type": "address"
        },
        {
          "internalType": "uint256",
          "name": "deadline",
          "type": "uint256"
        }
      ],
      "name": "addLiquidity",
      "outputs": [
        {
          "internalType": "uint256",
          "name": "amountA",
          "type": "uint256"
        },
        {
          "internalType": "uint256",
          "name": "amountB",
          "type": "uint256"
        },
        {
          "internalType": "uint256",
          "name": "liquidity",
          "type": "uint256"
        }
      ],
      "payable": false,
      "stateMutability": "nonpayable",
      "type": "function"
    }
  ],
  "transactionHash": "0xe1896b937e981aeeec952f2aa6153a962dd1023d28d1359a7a68615de702a88f",
  "args": [],
  "solcInputHash": "c3af786fe12b6b771320281cb59e3482",
  "bytecode": "0x6080604052600280546001600160a01b031916905534801561002057600080fd5b50610678806100306000396000f3fe608060405234801561001057600080fd5b506004361061004c5760003560e01c806338ed173914610051578063485cc9551461012c578063ad5c46481461015c578063e8e3370014610180575b600080fd5b6100dc600480360360a081101561006757600080fd5b81359160208101359181019060608101604082013564010000000081111561008e57600080fd5b8201836020820111156100a057600080fd5b803590602001918460208302840111640100000000831117156100c257600080fd5b91935091506001600160a01b0381351690602001356101f3565b60408051602080825283518183015283519192839290830191858101910280838360005b83811015610118578181015183820152602001610100565b505050509050019250505060405180910390f35b61015a6004803603604081101561014257600080fd5b506001600160a01b0381358116916020013516610350565b005b61016461037e565b604080516001600160a01b039092168252519081900360200190f35b6101d5600480360361010081101561019757600080fd5b506001600160a01b038135811691602081013582169160408201359160608101359160808201359160a08101359160c0820135169060e0013561038d565b60408051938452602084019290925282820152519081900360600190f35b60008054604080516323b872dd60e01b8152336004820152306024820152604481018a905290516060936001600160a01b03909316926323b872dd92606480820193602093909283900390910190829087803b15801561025257600080fd5b505af1158015610266573d6000803e3d6000fd5b505050506040513d602081101561027c57600080fd5b50506001546000546001600160a01b039182169163a9059cbb9186916102ca916102a691166103a0565b6001546102bb906001600160a01b03166103a0565b8c91900363ffffffff61046016565b6040518363ffffffff1660e01b815260040180836001600160a01b03166001600160a01b0316815260200182815260200192505050602060405180830381600087803b15801561031957600080fd5b505af115801561032d573d6000803e3d6000fd5b505050506040513d602081101561034357600080fd5b5090979650505050505050565b600080546001600160a01b039384166001600160a01b03199182161790915560018054929093169116179055565b6002546001600160a01b031681565b6000806000985098509895505050505050565b600080826001600160a01b031663313ce5676040518163ffffffff1660e01b815260040160206040518083038186803b1580156103dc57600080fd5b505afa1580156103f0573d6000803e3d6000fd5b505050506040513d602081101561040657600080fd5b505160ff1690506004811080159061041f575060128111155b61045a5760405162461bcd60e51b81526004018080602001828103825260298152602001806105fa6029913960400191505060405180910390fd5b92915050565b6000808260000b131561048b5761048483600084900b600a0a63ffffffff6104ba16565b92506104b3565b60008260000b12156104b3576104b0836000848103900b600a0a63ffffffff61051a16565b92505b5090919050565b6000826104c95750600061045a565b828202828482816104d657fe5b04146105135760405162461bcd60e51b81526004018080602001828103825260218152602001806106236021913960400191505060405180910390fd5b9392505050565b600061051383836040518060400160405280601a81526020017f536166654d6174683a206469766973696f6e206279207a65726f000000000000815250600081836105e35760405162461bcd60e51b81526004018080602001828103825283818151815260200191508051906020019080838360005b838110156105a8578181015183820152602001610590565b50505050905090810190601f1680156105d55780820380516001836020036101000a031916815260200191505b509250505060405180910390fd5b5060008385816105ef57fe5b049594505050505056fe546f6b656e206d75737420686176652073756666696369656e7420646563696d616c20706c61636573536166654d6174683a206d756c7469706c69636174696f6e206f766572666c6f77a265627a7a72315820ded21bc56cbf5c75edfb714966cd7e327059e06bc9b1319b9b2b66ddde2d4f9364736f6c634300050b0032",
  "devdoc": {
    "methods": {}
  },
  "userdoc": {
    "methods": {}
  }
}