{
  "address": "0xcdafDf43E18AFE96B54c31D7b9EBE0Bd1E46c2A8",
  "abi": [
    {
      "constant": true,
      "inputs": [],
      "name": "name",
      "outputs": [
        {
          "internalType": "string",
          "name": "",
          "type": "string"
        }
      ],
      "payable": false,
      "stateMutability": "view",
      "type": "function"
    },
    {
      "constant": false,
      "inputs": [
        {
          "internalType": "address",
          "name": "spender",
          "type": "address"
        },
        {
          "internalType": "uint256",
          "name": "amount",
          "type": "uint256"
        }
      ],
      "name": "approve",
      "outputs": [
        {
          "internalType": "bool",
          "name": "",
          "type": "bool"
        }
      ],
      "payable": false,
      "stateMutability": "nonpayable",
      "type": "function"
    },
    {
      "constant": true,
      "inputs": [],
      "name": "totalSupply",
      "outputs": [
        {
          "internalType": "uint256",
          "name": "",
          "type": "uint256"
        }
      ],
      "payable": false,
      "stateMutability": "view",
      "type": "function"
    },
    {
      "constant": true,
      "inputs": [],
      "name": "exchangeRateStored",
      "outputs": [
        {
          "internalType": "uint256",
          "name": "",
          "type": "uint256"
        }
      ],
      "payable": false,
      "stateMutability": "view",
      "type": "function"
    },
    {
      "constant": false,
      "inputs": [
        {
          "internalType": "address",
          "name": "sender",
          "type": "address"
        },
        {
          "internalType": "address",
          "name": "recipient",
          "type": "address"
        },
        {
          "internalType": "uint256",
          "name": "amount",
          "type": "uint256"
        }
      ],
      "name": "transferFrom",
      "outputs": [
        {
          "internalType": "bool",
          "name": "",
          "type": "bool"
        }
      ],
      "payable": false,
      "stateMutability": "nonpayable",
      "type": "function"
    },
    {
      "constant": true,
      "inputs": [],
      "name": "underlyingToken",
      "outputs": [
        {
          "internalType": "contract IERC20",
          "name": "",
          "type": "address"
        }
      ],
      "payable": false,
      "stateMutability": "view",
      "type": "function"
    },
    {
      "constant": true,
      "inputs": [],
      "name": "decimals",
      "outputs": [
        {
          "internalType": "uint8",
          "name": "",
          "type": "uint8"
        }
      ],
      "payable": false,
      "stateMutability": "view",
      "type": "function"
    },
    {
      "constant": false,
      "inputs": [
        {
          "internalType": "address",
          "name": "spender",
          "type": "address"
        },
        {
          "internalType": "uint256",
          "name": "addedValue",
          "type": "uint256"
        }
      ],
      "name": "increaseAllowance",
      "outputs": [
        {
          "internalType": "bool",
          "name": "",
          "type": "bool"
        }
      ],
      "payable": false,
      "stateMutability": "nonpayable",
      "type": "function"
    },
    {
      "constant": false,
      "inputs": [
        {
          "internalType": "address",
          "name": "owner",
          "type": "address"
        }
      ],
      "name": "balanceOfUnderlying",
      "outputs": [
        {
          "internalType": "uint256",
          "name": "",
          "type": "uint256"
        }
      ],
      "payable": false,
      "stateMutability": "nonpayable",
      "type": "function"
    },
    {
      "constant": false,
      "inputs": [
        {
          "internalType": "address",
          "name": "account",
          "type": "address"
        },
        {
          "internalType": "uint256",
          "name": "amount",
          "type": "uint256"
        }
      ],
      "name": "mint",
      "outputs": [
        {
          "internalType": "bool",
          "name": "",
          "type": "bool"
        }
      ],
      "payable": false,
      "stateMutability": "nonpayable",
      "type": "function"
    },
    {
      "constant": true,
      "inputs": [],
      "name": "comptroller",
      "outputs": [
        {
          "internalType": "address",
          "name": "",
          "type": "address"
        }
      ],
      "payable": false,
      "stateMutability": "view",
      "type": "function"
    },
    {
      "constant": true,
      "inputs": [
        {
          "internalType": "address",
          "name": "account",
          "type": "address"
        }
      ],
      "name": "balanceOf",
      "outputs": [
        {
          "internalType": "uint256",
          "name": "",
          "type": "uint256"
        }
      ],
      "payable": false,
      "stateMutability": "view",
      "type": "function"
    },
    {
      "constant": false,
      "inputs": [
        {
          "internalType": "uint256",
          "name": "redeemAmount",
          "type": "uint256"
        }
      ],
      "name": "redeemUnderlying",
      "outputs": [
        {
          "internalType": "uint256",
          "name": "",
          "type": "uint256"
        }
      ],
      "payable": false,
      "stateMutability": "nonpayable",
      "type": "function"
    },
    {
      "constant": true,
      "inputs": [],
      "name": "symbol",
      "outputs": [
        {
          "internalType": "string",
          "name": "",
          "type": "string"
        }
      ],
      "payable": false,
      "stateMutability": "view",
      "type": "function"
    },
    {
      "constant": false,
      "inputs": [
        {
          "internalType": "address",
          "name": "account",
          "type": "address"
        }
      ],
      "name": "addMinter",
      "outputs": [],
      "payable": false,
      "stateMutability": "nonpayable",
      "type": "function"
    },
    {
      "constant": false,
      "inputs": [],
      "name": "renounceMinter",
      "outputs": [],
      "payable": false,
      "stateMutability": "nonpayable",
      "type": "function"
    },
    {
      "constant": false,
      "inputs": [
        {
          "internalType": "uint256",
          "name": "mintAmount",
          "type": "uint256"
        }
      ],
      "name": "mint",
      "outputs": [
        {
          "internalType": "uint256",
          "name": "",
          "type": "uint256"
        }
      ],
      "payable": false,
      "stateMutability": "nonpayable",
      "type": "function"
    },
    {
      "constant": false,
      "inputs": [
        {
          "internalType": "address",
          "name": "spender",
          "type": "address"
        },
        {
          "internalType": "uint256",
          "name": "subtractedValue",
          "type": "uint256"
        }
      ],
      "name": "decreaseAllowance",
      "outputs": [
        {
          "internalType": "bool",
          "name": "",
          "type": "bool"
        }
      ],
      "payable": false,
      "stateMutability": "nonpayable",
      "type": "function"
    },
    {
      "constant": false,
      "inputs": [
        {
          "internalType": "address",
          "name": "recipient",
          "type": "address"
        },
        {
          "internalType": "uint256",
          "name": "amount",
          "type": "uint256"
        }
      ],
      "name": "transfer",
      "outputs": [
        {
          "internalType": "bool",
          "name": "",
          "type": "bool"
        }
      ],
      "payable": false,
      "stateMutability": "nonpayable",
      "type": "function"
    },
    {
      "constant": true,
      "inputs": [
        {
          "internalType": "address",
          "name": "account",
          "type": "address"
        }
      ],
      "name": "isMinter",
      "outputs": [
        {
          "internalType": "bool",
          "name": "",
          "type": "bool"
        }
      ],
      "payable": false,
      "stateMutability": "view",
      "type": "function"
    },
    {
      "constant": true,
      "inputs": [],
      "name": "supplyRatePerBlock",
      "outputs": [
        {
          "internalType": "uint256",
          "name": "",
          "type": "uint256"
        }
      ],
      "payable": false,
      "stateMutability": "view",
      "type": "function"
    },
    {
      "constant": false,
      "inputs": [
        {
          "internalType": "uint256",
          "name": "redeemAmount",
          "type": "uint256"
        }
      ],
      "name": "redeem",
      "outputs": [
        {
          "internalType": "uint256",
          "name": "",
          "type": "uint256"
        }
      ],
      "payable": false,
      "stateMutability": "nonpayable",
      "type": "function"
    },
    {
      "constant": true,
      "inputs": [
        {
          "internalType": "address",
          "name": "owner",
          "type": "address"
        },
        {
          "internalType": "address",
          "name": "spender",
          "type": "address"
        }
      ],
      "name": "allowance",
      "outputs": [
        {
          "internalType": "uint256",
          "name": "",
          "type": "uint256"
        }
      ],
      "payable": false,
      "stateMutability": "view",
      "type": "function"
    },
    {
      "inputs": [
        {
          "internalType": "contract ERC20Detailed",
          "name": "_underlyingToken",
          "type": "address"
        },
        {
          "internalType": "address",
          "name": "_comptroller",
          "type": "address"
        }
      ],
      "payable": false,
      "stateMutability": "nonpayable",
      "type": "constructor"
    },
    {
      "anonymous": false,
      "inputs": [
        {
          "indexed": true,
          "internalType": "address",
          "name": "account",
          "type": "address"
        }
      ],
      "name": "MinterAdded",
      "type": "event"
    },
    {
      "anonymous": false,
      "inputs": [
        {
          "indexed": true,
          "internalType": "address",
          "name": "account",
          "type": "address"
        }
      ],
      "name": "MinterRemoved",
      "type": "event"
    },
    {
      "anonymous": false,
      "inputs": [
        {
          "indexed": true,
          "internalType": "address",
          "name": "from",
          "type": "address"
        },
        {
          "indexed": true,
          "internalType": "address",
          "name": "to",
          "type": "address"
        },
        {
          "indexed": false,
          "internalType": "uint256",
          "name": "value",
          "type": "uint256"
        }
      ],
      "name": "Transfer",
      "type": "event"
    },
    {
      "anonymous": false,
      "inputs": [
        {
          "indexed": true,
          "internalType": "address",
          "name": "owner",
          "type": "address"
        },
        {
          "indexed": true,
          "internalType": "address",
          "name": "spender",
          "type": "address"
        },
        {
          "indexed": false,
          "internalType": "uint256",
          "name": "value",
          "type": "uint256"
        }
      ],
      "name": "Approval",
      "type": "event"
    }
  ],
  "transactionHash": "0x44dd7322d704df5d3dec0584108000a5db907bfeaf5f090e1fd8ddffe4057a0f",
  "args": [
    "0x0f7cA64C87a0E5b930A57706B6965543B9b8A916",
    "0x2A77D61335005BB445F5aBDC0dCd0c014757bcDA"
  ],
  "solcInputHash": "c3af786fe12b6b771320281cb59e3482",
  "bytecode": "0x60806040523480156200001157600080fd5b50604051620019e6380380620019e6833981810160405260408110156200003757600080fd5b508051602091820151604080518082018252600581527f634d6f636b000000000000000000000000000000000000000000000000000000818601908152825180840190935260038084527f634d4b0000000000000000000000000000000000000000000000000000000000968401969096528151949593949193600892620000c092906200037b565b508151620000d69060049060208501906200037b565b506005805460ff191660ff92909216919091179055506200010b9050620000fc620001fa565b6001600160e01b03620001ff16565b6000826001600160a01b031663313ce5676040518163ffffffff1660e01b815260040160206040518083038186803b1580156200014757600080fd5b505afa1580156200015c573d6000803e3d6000fd5b505050506040513d60208110156200017357600080fd5b50519050600860ff821611156200019757600881810160ff16600a0a9055620001c7565b60088160ff161015620001ba5780600a0160ff16600a0a600881905550620001c7565b670de0b6b3a76400006008555b50600780546001600160a01b039384166001600160a01b031991821617909155600980549290931691161790556200041d565b335b90565b6200021a8160066200025160201b6200123d1790919060201c565b6040516001600160a01b038216907f6ae172837ea30b801fbfcdd4108aa1d5bf8ff775444fd70256b44e6bf3dfc3f690600090a250565b6200026682826001600160e01b03620002f816565b15620002d357604080517f08c379a000000000000000000000000000000000000000000000000000000000815260206004820152601f60248201527f526f6c65733a206163636f756e7420616c72656164792068617320726f6c6500604482015290519081900360640190fd5b6001600160a01b0316600090815260209190915260409020805460ff19166001179055565b60006001600160a01b0382166200035b576040517f08c379a0000000000000000000000000000000000000000000000000000000008152600401808060200182810382526022815260200180620019c46022913960400191505060405180910390fd5b506001600160a01b03166000908152602091909152604090205460ff1690565b828054600181600116156101000203166002900490600052602060002090601f016020900481019282601f10620003be57805160ff1916838001178555620003ee565b82800160010185558215620003ee579182015b82811115620003ee578251825591602001919060010190620003d1565b50620003fc92915062000400565b5090565b620001fc91905b80821115620003fc576000815560010162000407565b611597806200042d6000396000f3fe608060405234801561001057600080fd5b506004361061014d5760003560e01c806370a08231116100c3578063a457c2d71161007c578063a457c2d7146103c7578063a9059cbb146103f3578063aa271e1a1461041f578063ae9d70b014610445578063db006a751461044d578063dd62ed3e1461046a5761014d565b806370a082311461032f578063852a12e31461035557806395d89b4114610372578063983b2d561461037a57806398650275146103a2578063a0712d68146103aa5761014d565b80632495a599116101155780632495a59914610267578063313ce5671461028b57806339509351146102a95780633af9e669146102d557806340c10f19146102fb5780635fe3b567146103275761014d565b806306fdde0314610152578063095ea7b3146101cf57806318160ddd1461020f578063182df0f51461022957806323b872dd14610231575b600080fd5b61015a610498565b6040805160208082528351818301528351919283929083019185019080838360005b8381101561019457818101518382015260200161017c565b50505050905090810190601f1680156101c15780820380516001836020036101000a031916815260200191505b509250505060405180910390f35b6101fb600480360360408110156101e557600080fd5b506001600160a01b03813516906020013561052e565b604080519115158252519081900360200190f35b61021761054c565b60408051918252519081900360200190f35b610217610552565b6101fb6004803603606081101561024757600080fd5b506001600160a01b03813581169160208101359091169060400135610558565b61026f6105e5565b604080516001600160a01b039092168252519081900360200190f35b6102936105f4565b6040805160ff9092168252519081900360200190f35b6101fb600480360360408110156102bf57600080fd5b506001600160a01b0381351690602001356105fd565b610217600480360360208110156102eb57600080fd5b50356001600160a01b0316610651565b6101fb6004803603604081101561031157600080fd5b506001600160a01b0381351690602001356106e6565b61026f61073d565b6102176004803603602081101561034557600080fd5b50356001600160a01b031661074c565b6102176004803603602081101561036b57600080fd5b5035610767565b61015a610814565b6103a06004803603602081101561039057600080fd5b50356001600160a01b0316610875565b005b6103a06108c7565b610217600480360360208110156103c057600080fd5b50356108d9565b6101fb600480360360408110156103dd57600080fd5b506001600160a01b038135169060200135610987565b6101fb6004803603604081101561040957600080fd5b506001600160a01b0381351690602001356109f5565b6101fb6004803603602081101561043557600080fd5b50356001600160a01b0316610a09565b610217610a1c565b6102176004803603602081101561046357600080fd5b5035610a25565b6102176004803603604081101561048057600080fd5b506001600160a01b0381358116916020013516610a9d565b60038054604080516020601f60026000196101006001881615020190951694909404938401819004810282018101909252828152606093909290918301828280156105245780601f106104f957610100808354040283529160200191610524565b820191906000526020600020905b81548152906001019060200180831161050757829003601f168201915b5050505050905090565b600061054261053b610ac8565b8484610acc565b5060015b92915050565b60025490565b60085490565b6000610565848484610bb8565b6105db84610571610ac8565b6105d68560405180606001604052806028815260200161148a602891396001600160a01b038a166000908152600160205260408120906105af610ac8565b6001600160a01b03168152602081019190915260400160002054919063ffffffff610d1416565b610acc565b5060019392505050565b6007546001600160a01b031681565b60055460ff1690565b600061054261060a610ac8565b846105d6856001600061061b610ac8565b6001600160a01b03908116825260208083019390935260409182016000908120918c16815292529020549063ffffffff610dab16565b604080516370a0823160e01b81526001600160a01b03831660048201529051600091829130916370a08231916024808301926020929190829003018186803b15801561069c57600080fd5b505afa1580156106b0573d6000803e3d6000fd5b505050506040513d60208110156106c657600080fd5b50516008549091506106df90829063ffffffff610e0516565b9392505050565b60006106f86106f3610ac8565b610a09565b6107335760405162461bcd60e51b81526004018080602001828103825260308152602001806114186030913960400191505060405180910390fd5b6105428383610e1a565b6009546001600160a01b031681565b6001600160a01b031660009081526020819052604090205490565b60008061077f60085484610f0a90919063ffffffff16565b905061078b3382610f3f565b6007546040805163a9059cbb60e01b81523360048201526024810186905290516001600160a01b039092169163a9059cbb916044808201926020929091908290030181600087803b1580156107df57600080fd5b505af11580156107f3573d6000803e3d6000fd5b505050506040513d602081101561080957600080fd5b506000949350505050565b60048054604080516020601f60026000196101006001881615020190951694909404938401819004810282018101909252828152606093909290918301828280156105245780601f106104f957610100808354040283529160200191610524565b6108806106f3610ac8565b6108bb5760405162461bcd60e51b81526004018080602001828103825260308152602001806114186030913960400191505060405180910390fd5b6108c48161103b565b50565b6108d76108d2610ac8565b611083565b565b60006108f9336108f460085485610f0a90919063ffffffff16565b610e1a565b600754604080516323b872dd60e01b81523360048201523060248201526044810185905290516001600160a01b03909216916323b872dd916064808201926020929091908290030181600087803b15801561095357600080fd5b505af1158015610967573d6000803e3d6000fd5b505050506040513d602081101561097d57600080fd5b5060009392505050565b6000610542610994610ac8565b846105d68560405180606001604052806025815260200161153e60259139600160006109be610ac8565b6001600160a01b03908116825260208083019390935260409182016000908120918d1681529252902054919063ffffffff610d1416565b6000610542610a02610ac8565b8484610bb8565b600061054660068363ffffffff6110cb16565b6403486ced0090565b600080610a3d60085484610e0590919063ffffffff16565b9050610a493384610f3f565b6007546040805163a9059cbb60e01b81523360048201526024810184905290516001600160a01b039092169163a9059cbb916044808201926020929091908290030181600087803b1580156107df57600080fd5b6001600160a01b03918216600090815260016020908152604080832093909416825291909152205490565b3390565b6001600160a01b038316610b115760405162461bcd60e51b815260040180806020018281038252602481526020018061151a6024913960400191505060405180910390fd5b6001600160a01b038216610b565760405162461bcd60e51b81526004018080602001828103825260228152602001806113d06022913960400191505060405180910390fd5b6001600160a01b03808416600081815260016020908152604080832094871680845294825291829020859055815185815291517f8c5be1e5ebec7d5bd14f71427d1e84f3dd0314c0f7b2291e5b200ac8c7c3b9259281900390910190a3505050565b6001600160a01b038316610bfd5760405162461bcd60e51b81526004018080602001828103825260258152602001806114f56025913960400191505060405180910390fd5b6001600160a01b038216610c425760405162461bcd60e51b815260040180806020018281038252602381526020018061138b6023913960400191505060405180910390fd5b610c85816040518060600160405280602681526020016113f2602691396001600160a01b038616600090815260208190526040902054919063ffffffff610d1416565b6001600160a01b038085166000908152602081905260408082209390935590841681522054610cba908263ffffffff610dab16565b6001600160a01b038084166000818152602081815260409182902094909455805185815290519193928716927fddf252ad1be2c89b69c2b068fc378daa952ba7f163c4a11628f55a4df523b3ef92918290030190a3505050565b60008184841115610da35760405162461bcd60e51b81526004018080602001828103825283818151815260200191508051906020019080838360005b83811015610d68578181015183820152602001610d50565b50505050905090810190601f168015610d955780820380516001836020036101000a031916815260200191505b509250505060405180910390fd5b505050900390565b6000828201838110156106df576040805162461bcd60e51b815260206004820152601b60248201527f536166654d6174683a206164646974696f6e206f766572666c6f770000000000604482015290519081900360640190fd5b60006106df8383670de0b6b3a7640000611132565b6001600160a01b038216610e75576040805162461bcd60e51b815260206004820152601f60248201527f45524332303a206d696e7420746f20746865207a65726f206164647265737300604482015290519081900360640190fd5b600254610e88908263ffffffff610dab16565b6002556001600160a01b038216600090815260208190526040902054610eb4908263ffffffff610dab16565b6001600160a01b0383166000818152602081815260408083209490945583518581529351929391927fddf252ad1be2c89b69c2b068fc378daa952ba7f163c4a11628f55a4df523b3ef9281900390910190a35050565b600080610f2584670de0b6b3a764000063ffffffff61116016565b9050610f37818463ffffffff6111b916565b949350505050565b6001600160a01b038216610f845760405162461bcd60e51b81526004018080602001828103825260218152602001806114d46021913960400191505060405180910390fd5b610fc7816040518060600160405280602281526020016113ae602291396001600160a01b038516600090815260208190526040902054919063ffffffff610d1416565b6001600160a01b038316600090815260208190526040902055600254610ff3908263ffffffff6111fb16565b6002556040805182815290516000916001600160a01b038516917fddf252ad1be2c89b69c2b068fc378daa952ba7f163c4a11628f55a4df523b3ef9181900360200190a35050565b61104c60068263ffffffff61123d16565b6040516001600160a01b038216907f6ae172837ea30b801fbfcdd4108aa1d5bf8ff775444fd70256b44e6bf3dfc3f690600090a250565b61109460068263ffffffff6112be16565b6040516001600160a01b038216907fe94479a9f7e1952cc78f2d6baab678adc1b772d936c6583def489e524cb6669290600090a250565b60006001600160a01b0382166111125760405162461bcd60e51b81526004018080602001828103825260228152602001806114b26022913960400191505060405180910390fd5b506001600160a01b03166000908152602091909152604090205460ff1690565b600080611145858563ffffffff61116016565b9050611157818463ffffffff6111b916565b95945050505050565b60008261116f57506000610546565b8282028284828161117c57fe5b04146106df5760405162461bcd60e51b81526004018080602001828103825260218152602001806114696021913960400191505060405180910390fd5b60006106df83836040518060400160405280601a81526020017f536166654d6174683a206469766973696f6e206279207a65726f000000000000815250611325565b60006106df83836040518060400160405280601e81526020017f536166654d6174683a207375627472616374696f6e206f766572666c6f770000815250610d14565b61124782826110cb565b15611299576040805162461bcd60e51b815260206004820152601f60248201527f526f6c65733a206163636f756e7420616c72656164792068617320726f6c6500604482015290519081900360640190fd5b6001600160a01b0316600090815260209190915260409020805460ff19166001179055565b6112c882826110cb565b6113035760405162461bcd60e51b81526004018080602001828103825260218152602001806114486021913960400191505060405180910390fd5b6001600160a01b0316600090815260209190915260409020805460ff19169055565b600081836113745760405162461bcd60e51b8152602060048201818152835160248401528351909283926044909101919085019080838360008315610d68578181015183820152602001610d50565b50600083858161138057fe5b049594505050505056fe45524332303a207472616e7366657220746f20746865207a65726f206164647265737345524332303a206275726e20616d6f756e7420657863656564732062616c616e636545524332303a20617070726f766520746f20746865207a65726f206164647265737345524332303a207472616e7366657220616d6f756e7420657863656564732062616c616e63654d696e746572526f6c653a2063616c6c657220646f6573206e6f74206861766520746865204d696e74657220726f6c65526f6c65733a206163636f756e7420646f6573206e6f74206861766520726f6c65536166654d6174683a206d756c7469706c69636174696f6e206f766572666c6f7745524332303a207472616e7366657220616d6f756e74206578636565647320616c6c6f77616e6365526f6c65733a206163636f756e7420697320746865207a65726f206164647265737345524332303a206275726e2066726f6d20746865207a65726f206164647265737345524332303a207472616e736665722066726f6d20746865207a65726f206164647265737345524332303a20617070726f76652066726f6d20746865207a65726f206164647265737345524332303a2064656372656173656420616c6c6f77616e63652062656c6f77207a65726fa265627a7a72315820f6c64e9821a7ded34d80beb361c88302e6f2f36f5bd66d4cd5a9dc0d8b5bdb6b64736f6c634300050b0032526f6c65733a206163636f756e7420697320746865207a65726f2061646472657373",
  "devdoc": {
    "methods": {
      "allowance(address,address)": {
        "details": "See {IERC20-allowance}."
      },
      "approve(address,uint256)": {
        "details": "See {IERC20-approve}.     * Requirements:     * - `spender` cannot be the zero address."
      },
      "balanceOf(address)": {
        "details": "See {IERC20-balanceOf}."
      },
      "decimals()": {
        "details": "Returns the number of decimals used to get its user representation. For example, if `decimals` equals `2`, a balance of `505` tokens should be displayed to a user as `5,05` (`505 / 10 ** 2`).     * Tokens usually opt for a value of 18, imitating the relationship between Ether and Wei.     * NOTE: This information is only used for _display_ purposes: it in no way affects any of the arithmetic of the contract, including {IERC20-balanceOf} and {IERC20-transfer}."
      },
      "decreaseAllowance(address,uint256)": {
        "details": "Atomically decreases the allowance granted to `spender` by the caller.     * This is an alternative to {approve} that can be used as a mitigation for problems described in {IERC20-approve}.     * Emits an {Approval} event indicating the updated allowance.     * Requirements:     * - `spender` cannot be the zero address. - `spender` must have allowance for the caller of at least `subtractedValue`."
      },
      "increaseAllowance(address,uint256)": {
        "details": "Atomically increases the allowance granted to `spender` by the caller.     * This is an alternative to {approve} that can be used as a mitigation for problems described in {IERC20-approve}.     * Emits an {Approval} event indicating the updated allowance.     * Requirements:     * - `spender` cannot be the zero address."
      },
      "mint(address,uint256)": {
        "details": "See {ERC20-_mint}.     * Requirements:     * - the caller must have the {MinterRole}."
      },
      "name()": {
        "details": "Returns the name of the token."
      },
      "symbol()": {
        "details": "Returns the symbol of the token, usually a shorter version of the name."
      },
      "totalSupply()": {
        "details": "See {IERC20-totalSupply}."
      },
      "transfer(address,uint256)": {
        "details": "See {IERC20-transfer}.     * Requirements:     * - `recipient` cannot be the zero address. - the caller must have a balance of at least `amount`."
      },
      "transferFrom(address,address,uint256)": {
        "details": "See {IERC20-transferFrom}.     * Emits an {Approval} event indicating the updated allowance. This is not required by the EIP. See the note at the beginning of {ERC20};     * Requirements: - `sender` and `recipient` cannot be the zero address. - `sender` must have a balance of at least `amount`. - the caller must have allowance for `sender`'s tokens of at least `amount`."
      }
    }
  },
  "userdoc": {
    "methods": {}
  }
}