{
  "address": "0xc95217f4629501c78da0Dc22DF8b01D3631C3676",
  "abi": [
    {
      "constant": true,
      "inputs": [],
      "name": "hasSynced",
      "outputs": [
        {
          "internalType": "bool",
          "name": "",
          "type": "bool"
        }
      ],
      "payable": false,
      "stateMutability": "view",
      "type": "function"
    },
    {
      "constant": true,
      "inputs": [],
      "name": "getReserves",
      "outputs": [
        {
          "internalType": "uint112",
          "name": "",
          "type": "uint112"
        },
        {
          "internalType": "uint112",
          "name": "",
          "type": "uint112"
        },
        {
          "internalType": "uint32",
          "name": "",
          "type": "uint32"
        }
      ],
      "payable": false,
      "stateMutability": "view",
      "type": "function"
    },
    {
      "constant": true,
      "inputs": [],
      "name": "token0",
      "outputs": [
        {
          "internalType": "address",
          "name": "",
          "type": "address"
        }
      ],
      "payable": false,
      "stateMutability": "view",
      "type": "function"
    },
    {
      "constant": true,
      "inputs": [],
      "name": "checkHasSynced",
      "outputs": [],
      "payable": false,
      "stateMutability": "view",
      "type": "function"
    },
    {
      "constant": true,
      "inputs": [],
      "name": "price0CumulativeLast",
      "outputs": [
        {
          "internalType": "uint256",
          "name": "",
          "type": "uint256"
        }
      ],
      "payable": false,
      "stateMutability": "view",
      "type": "function"
    },
    {
      "constant": true,
      "inputs": [],
      "name": "price1CumulativeLast",
      "outputs": [
        {
          "internalType": "uint256",
          "name": "",
          "type": "uint256"
        }
      ],
      "payable": false,
      "stateMutability": "view",
      "type": "function"
    },
    {
      "constant": false,
      "inputs": [
        {
          "internalType": "uint112",
          "name": "_reserve0",
          "type": "uint112"
        },
        {
          "internalType": "uint112",
          "name": "_reserve1",
          "type": "uint112"
        }
      ],
      "name": "setReserves",
      "outputs": [],
      "payable": false,
      "stateMutability": "nonpayable",
      "type": "function"
    },
    {
      "constant": true,
      "inputs": [],
      "name": "token1",
      "outputs": [
        {
          "internalType": "address",
          "name": "",
          "type": "address"
        }
      ],
      "payable": false,
      "stateMutability": "view",
      "type": "function"
    },
    {
      "constant": false,
      "inputs": [],
      "name": "sync",
      "outputs": [],
      "payable": false,
      "stateMutability": "nonpayable",
      "type": "function"
    },
    {
      "inputs": [
        {
          "internalType": "address",
          "name": "_token0",
          "type": "address"
        },
        {
          "internalType": "address",
          "name": "_token1",
          "type": "address"
        },
        {
          "internalType": "uint112",
          "name": "_reserve0",
          "type": "uint112"
        },
        {
          "internalType": "uint112",
          "name": "_reserve1",
          "type": "uint112"
        }
      ],
      "payable": false,
      "stateMutability": "nonpayable",
      "type": "constructor"
    }
  ],
  "transactionHash": "0x2a9c537605a0b445a2c7509b2f1dfac165b2157ae3921130b135afd66f8459bb",
  "args": [
    "0x40eBfB2A1e862D836E45d17ec152434d891aC728",
    "0xD775308688CFfe6a570C4AF0bcA15537a3f14fad",
    "100000000",
    "1000000000000000000"
  ],
  "solcInputHash": "c3af786fe12b6b771320281cb59e3482",
  "bytecode": "0x60806040526004805460ff1916905534801561001a57600080fd5b5060405161048c38038061048c8339818101604052608081101561003d57600080fd5b50805160208201516040830151606090930151600080546001600160a01b03199081166001600160a01b03958616178255600180549091169490931693909317909155600280546001600160701b0319166001600160701b0394851617600160701b600160e01b0319166e010000000000000000000000000000949092169390930217909155426003556103b59081906100d790396000f3fe608060405234801561001057600080fd5b50600436106100935760003560e01c80635909c0d5116100665780635909c0d51461011a5780635a3d54931461013457806375ea5f2e1461013c578063d21220a71461016a578063fff6cae91461017257610093565b806303be259f146100985780630902f1ac146100b45780630dfe1681146100ec578063489dfcc214610110575b600080fd5b6100a061017a565b604080519115158252519081900360200190f35b6100bc610183565b604080516001600160701b03948516815292909316602083015263ffffffff168183015290519081900360600190f35b6100f46101a1565b604080516001600160a01b039092168252519081900360200190f35b6101186101b0565b005b6101226101f6565b60408051918252519081900360200190f35b61012261022c565b6101186004803603604081101561015257600080fd5b506001600160701b0381358116916020013516610253565b6100f46102a0565b6101186102af565b60045460ff1681565b6002546003546001600160701b0380831692600160701b9004169192565b6000546001600160a01b031690565b60045460ff166101f4576040805162461bcd60e51b815260206004820152600a602482015269139bdd081cde5b98d95960b21b604482015290519081900360640190fd5b565b6003546002546000919061021c906001600160701b03600160701b8204811691166102be565b516001600160e01b031602905090565b6003546002546000919061021c906001600160701b0380821691600160701b9004166102be565b600280546001600160701b03928316600160701b026dffffffffffffffffffffffffffff60701b19949093166dffffffffffffffffffffffffffff19909116179290921617905542600355565b6001546001600160a01b031690565b6004805460ff19166001179055565b6102c661036e565b6000826001600160701b031611610324576040805162461bcd60e51b815260206004820152601760248201527f4669786564506f696e743a204449565f42595f5a45524f000000000000000000604482015290519081900360640190fd5b6040805160208101909152806001600160701b0384166dffffffffffffffffffffffffffff60701b607087901b168161035957fe5b046001600160e01b0316815250905092915050565b6040805160208101909152600081529056fea265627a7a723158201518a495779cefeca5cfb8e68f5a4aa33a3c76e7351f0a4bd940225d38e0582064736f6c634300050b0032",
  "devdoc": {
    "methods": {}
  },
  "userdoc": {
    "methods": {}
  }
}