{
  "address": "0x35EfE90d944CEd9b29007BA485771E28F558936D",
  "abi": [
    {
      "constant": true,
      "inputs": [],
      "name": "getLendingPool",
      "outputs": [
        {
          "internalType": "address",
          "name": "",
          "type": "address"
        }
      ],
      "payable": false,
      "stateMutability": "view",
      "type": "function"
    },
    {
      "constant": false,
      "inputs": [
        {
          "internalType": "address",
          "name": "_aToken",
          "type": "address"
        },
        {
          "internalType": "address",
          "name": "_underlying",
          "type": "address"
        }
      ],
      "name": "addAToken",
      "outputs": [],
      "payable": false,
      "stateMutability": "nonpayable",
      "type": "function"
    },
    {
      "constant": false,
      "inputs": [
        {
          "internalType": "uint256",
          "name": "factor_",
          "type": "uint256"
        }
      ],
      "name": "setFactor",
      "outputs": [],
      "payable": false,
      "stateMutability": "nonpayable",
      "type": "function"
    },
    {
      "constant": false,
      "inputs": [
        {
          "internalType": "address",
          "name": "_reserve",
          "type": "address"
        },
        {
          "internalType": "uint256",
          "name": "_amount",
          "type": "uint256"
        },
        {
          "internalType": "uint16",
          "name": "",
          "type": "uint16"
        }
      ],
      "name": "deposit",
      "outputs": [],
      "payable": false,
      "stateMutability": "nonpayable",
      "type": "function"
    },
    {
      "constant": true,
      "inputs": [],
      "name": "getLendingPoolCore",
      "outputs": [
        {
          "internalType": "address payable",
          "name": "",
          "type": "address"
        }
      ],
      "payable": false,
      "stateMutability": "view",
      "type": "function"
    }
  ],
  "transactionHash": "0xb4415c5e2190216d535fb595bc6f826c10fbde74b5dc3ff85cc5c4edc2d7c8d6",
  "args": [],
  "solcInputHash": "c3af786fe12b6b771320281cb59e3482",
  "bytecode": "0x608060405260018054306001600160a01b0319918216811790925560028054909116909117905534801561003257600080fd5b5061090e806100426000396000f3fe608060405234801561001057600080fd5b50600436106100575760003560e01c80630261bf8b1461005c578063811711c714610080578063817e9d31146100b0578063d2d0e066146100cd578063ed6ff76014610103575b600080fd5b61006461010b565b604080516001600160a01b039092168252519081900360200190f35b6100ae6004803603604081101561009657600080fd5b506001600160a01b038135811691602001351661011a565b005b6100ae600480360360208110156100c657600080fd5b5035610181565b6100ae600480360360608110156100e357600080fd5b5080356001600160a01b0316906020810135906040013561ffff16610186565b610064610359565b6001546001600160a01b031690565b6101356001600160a01b03821683600063ffffffff61036816565b6101516001600160a01b0382168360001963ffffffff61036816565b6001600160a01b0390811660009081526020819052604090208054919092166001600160a01b0319909116179055565b600355565b6001600160a01b038084166000908152602081815260408083205481516370a0823160e01b81523360048201529151939416926370a0823192602480840193919291829003018186803b1580156101dc57600080fd5b505afa1580156101f0573d6000803e3d6000fd5b505050506040513d602081101561020657600080fd5b505160035490915060009061022290839063ffffffff61048016565b6001600160a01b038087166000908152602081815260408083205481516340c10f1960e01b8152336004820152602481018790529151959650909316936340c10f1993604480820194918390030190829087803b15801561028257600080fd5b505af1158015610296573d6000803e3d6000fd5b505050506040513d60208110156102ac57600080fd5b506102ca90506001600160a01b03861633308763ffffffff61049e16565b6001600160a01b038086166000908152602081815260408083205481516340c10f1960e01b8152336004820152602481018a905291519416936340c10f1993604480840194938390030190829087803b15801561032657600080fd5b505af115801561033a573d6000803e3d6000fd5b505050506040513d602081101561035057600080fd5b50505050505050565b6002546001600160a01b031690565b8015806103ee575060408051636eb1769f60e11b81523060048201526001600160a01b03848116602483015291519185169163dd62ed3e91604480820192602092909190829003018186803b1580156103c057600080fd5b505afa1580156103d4573d6000803e3d6000fd5b505050506040513d60208110156103ea57600080fd5b5051155b6104295760405162461bcd60e51b81526004018080602001828103825260368152602001806108a46036913960400191505060405180910390fd5b604080516001600160a01b038416602482015260448082018490528251808303909101815260649091019091526020810180516001600160e01b031663095ea7b360e01b17905261047b9084906104fe565b505050565b60006104958383670de0b6b3a76400006106b6565b90505b92915050565b604080516001600160a01b0385811660248301528416604482015260648082018490528251808303909101815260849091019091526020810180516001600160e01b03166323b872dd60e01b1790526104f89085906104fe565b50505050565b610510826001600160a01b03166106e4565b610561576040805162461bcd60e51b815260206004820152601f60248201527f5361666545524332303a2063616c6c20746f206e6f6e2d636f6e747261637400604482015290519081900360640190fd5b60006060836001600160a01b0316836040518082805190602001908083835b6020831061059f5780518252601f199092019160209182019101610580565b6001836020036101000a0380198251168184511680821785525050505050509050019150506000604051808303816000865af19150503d8060008114610601576040519150601f19603f3d011682016040523d82523d6000602084013e610606565b606091505b50915091508161065d576040805162461bcd60e51b815260206004820181905260248201527f5361666545524332303a206c6f772d6c6576656c2063616c6c206661696c6564604482015290519081900360640190fd5b8051156104f85780806020019051602081101561067957600080fd5b50516104f85760405162461bcd60e51b815260040180806020018281038252602a81526020018061087a602a913960400191505060405180910390fd5b6000806106c9858563ffffffff61072016565b90506106db818463ffffffff61077916565b95945050505050565b6000813f7fc5d2460186f7233c927e7db2dcc703c0e500b653ca82273b7bfad8045d85a47081811480159061071857508115155b949350505050565b60008261072f57506000610498565b8282028284828161073c57fe5b04146104955760405162461bcd60e51b81526004018080602001828103825260218152602001806108596021913960400191505060405180910390fd5b600061049583836040518060400160405280601a81526020017f536166654d6174683a206469766973696f6e206279207a65726f000000000000815250600081836108425760405162461bcd60e51b81526004018080602001828103825283818151815260200191508051906020019080838360005b838110156108075781810151838201526020016107ef565b50505050905090810190601f1680156108345780820380516001836020036101000a031916815260200191505b509250505060405180910390fd5b50600083858161084e57fe5b049594505050505056fe536166654d6174683a206d756c7469706c69636174696f6e206f766572666c6f775361666545524332303a204552433230206f7065726174696f6e20646964206e6f7420737563636565645361666545524332303a20617070726f76652066726f6d206e6f6e2d7a65726f20746f206e6f6e2d7a65726f20616c6c6f77616e6365a265627a7a723158208d3122c6e5d03ce9381fd8d107ec4e9d97645134a79139264f48587f9bda194e64736f6c634300050b0032",
  "devdoc": {
    "methods": {}
  },
  "userdoc": {
    "methods": {}
  }
}