{
  "address": "0x2A77D61335005BB445F5aBDC0dCd0c014757bcDA",
  "abi": [
    {
      "constant": false,
      "inputs": [
        {
          "internalType": "address",
          "name": "_holder",
          "type": "address"
        }
      ],
      "name": "claimComp",
      "outputs": [],
      "payable": false,
      "stateMutability": "nonpayable",
      "type": "function"
    }
  ],
  "transactionHash": "0xb0661f93e400cba85045a1438c0d1d454b9f25587d9a76e70b710cebdb38d70e",
  "args": [],
  "solcInputHash": "917d394955120748f5f30be0856dcaa9",
  "bytecode": "0x6080604052348015600f57600080fd5b50608a8061001e6000396000f3fe6080604052348015600f57600080fd5b506004361060285760003560e01c8063e9af029214602d575b600080fd5b605060048036036020811015604157600080fd5b50356001600160a01b03166052565b005b5056fea265627a7a72315820ee9e238e4eb4415de62d544396d261d6132d6a2a61d1f1aa64349b5344d1fa2a64736f6c634300050b0032",
  "devdoc": {
    "methods": {}
  },
  "userdoc": {
    "methods": {}
  }
}