{
  "address": "0x00eC61fc848887FFa17991f2b57d724Da4604C11",
  "abi": [
    {
      "constant": false,
      "inputs": [
        {
          "internalType": "address",
          "name": "_address",
          "type": "address"
        }
      ],
      "name": "mint",
      "outputs": [],
      "payable": false,
      "stateMutability": "nonpayable",
      "type": "function"
    },
    {
      "inputs": [
        {
          "internalType": "address",
          "name": "_crv",
          "type": "address"
        }
      ],
      "payable": false,
      "stateMutability": "nonpayable",
      "type": "constructor"
    }
  ],
  "transactionHash": "0x35f4ff3110b89bfdd320dec1ede110adb2d6d6b88701093981ace02082ae9d94",
  "args": [
    "0x164f5553CdD2902793386BF004d4000776d51892"
  ],
  "solcInputHash": "c3af786fe12b6b771320281cb59e3482",
  "bytecode": "0x608060405234801561001057600080fd5b506040516102013803806102018339818101604052602081101561003357600080fd5b5051600080546001600160a01b039092166001600160a01b031990921691909117905561019c806100656000396000f3fe608060405234801561001057600080fd5b506004361061002b5760003560e01c80636a62784214610030575b600080fd5b6100566004803603602081101561004657600080fd5b50356001600160a01b0316610058565b005b600080546040805163140e25ad60e31b8152671bc16d674ec8000060048201819052915191936001600160a01b039093169263a0712d68926024808401936020939083900390910190829087803b1580156100b257600080fd5b505af11580156100c6573d6000803e3d6000fd5b505050506040513d60208110156100dc57600080fd5b5050600080546040805163a9059cbb60e01b81526001600160a01b038681166004830152602482018690529151919092169263a9059cbb92604480820193602093909283900390910190829087803b15801561013757600080fd5b505af115801561014b573d6000803e3d6000fd5b505050506040513d602081101561016157600080fd5b5050505056fea265627a7a72315820bd3e424a849e115c16df725a428ff3e67e933d3da68e08c0abc0e0114e6ed6e264736f6c634300050b0032",
  "devdoc": {
    "methods": {}
  },
  "userdoc": {
    "methods": {}
  }
}