{
  "abi": [
    {
      "constant": true,
      "inputs": [],
      "name": "governor",
      "outputs": [
        {
          "internalType": "address",
          "name": "",
          "type": "address"
        }
      ],
      "payable": false,
      "stateMutability": "view",
      "type": "function"
    },
    {
      "constant": false,
      "inputs": [
        {
          "internalType": "string",
          "name": "symbol",
          "type": "string"
        }
      ],
      "name": "tokEthPrice",
      "outputs": [
        {
          "internalType": "uint256",
          "name": "",
          "type": "uint256"
        }
      ],
      "payable": false,
      "stateMutability": "nonpayable",
      "type": "function"
    },
    {
      "constant": true,
      "inputs": [
        {
          "internalType": "string",
          "name": "symbol",
          "type": "string"
        }
      ],
      "name": "debugPrice",
      "outputs": [
        {
          "internalType": "uint256",
          "name": "",
          "type": "uint256"
        },
        {
          "internalType": "uint256",
          "name": "",
          "type": "uint256"
        },
        {
          "internalType": "uint256",
          "name": "",
          "type": "uint256"
        },
        {
          "internalType": "uint256",
          "name": "",
          "type": "uint256"
        }
      ],
      "payable": false,
      "stateMutability": "view",
      "type": "function"
    },
    {
      "constant": true,
      "inputs": [
        {
          "internalType": "string",
          "name": "symbol",
          "type": "string"
        }
      ],
      "name": "tokUsdPrice",
      "outputs": [
        {
          "internalType": "uint256",
          "name": "",
          "type": "uint256"
        }
      ],
      "payable": false,
      "stateMutability": "view",
      "type": "function"
    },
    {
      "constant": false,
      "inputs": [],
      "name": "claimGovernance",
      "outputs": [],
      "payable": false,
      "stateMutability": "nonpayable",
      "type": "function"
    },
    {
      "constant": true,
      "inputs": [
        {
          "internalType": "string",
          "name": "symbol",
          "type": "string"
        }
      ],
      "name": "getSwapConfig",
      "outputs": [
        {
          "components": [
            {
              "internalType": "bool",
              "name": "ethOnFirst",
              "type": "bool"
            },
            {
              "internalType": "address",
              "name": "swap",
              "type": "address"
            },
            {
              "internalType": "uint256",
              "name": "blockTimestampLast",
              "type": "uint256"
            },
            {
              "internalType": "uint256",
              "name": "latestBlockTimestampLast",
              "type": "uint256"
            },
            {
              "internalType": "uint256",
              "name": "priceCumulativeLast",
              "type": "uint256"
            },
            {
              "internalType": "uint256",
              "name": "latestPriceCumulativeLast",
              "type": "uint256"
            },
            {
              "internalType": "uint256",
              "name": "baseUnit",
              "type": "uint256"
            }
          ],
          "internalType": "struct OpenUniswapOracle.SwapConfig",
          "name": "",
          "type": "tuple"
        }
      ],
      "payable": false,
      "stateMutability": "view",
      "type": "function"
    },
    {
      "constant": false,
      "inputs": [
        {
          "internalType": "bytes32[]",
          "name": "symbolHashes",
          "type": "bytes32[]"
        }
      ],
      "name": "updatePriceWindows",
      "outputs": [],
      "payable": false,
      "stateMutability": "nonpayable",
      "type": "function"
    },
    {
      "constant": true,
      "inputs": [],
      "name": "ethUsdPrice",
      "outputs": [
        {
          "internalType": "uint256",
          "name": "",
          "type": "uint256"
        }
      ],
      "payable": false,
      "stateMutability": "view",
      "type": "function"
    },
    {
      "constant": true,
      "inputs": [],
      "name": "ethPriceOracle",
      "outputs": [
        {
          "internalType": "contract IPriceOracle",
          "name": "",
          "type": "address"
        }
      ],
      "payable": false,
      "stateMutability": "view",
      "type": "function"
    },
    {
      "constant": true,
      "inputs": [],
      "name": "PERIOD",
      "outputs": [
        {
          "internalType": "uint256",
          "name": "",
          "type": "uint256"
        }
      ],
      "payable": false,
      "stateMutability": "view",
      "type": "function"
    },
    {
      "constant": true,
      "inputs": [],
      "name": "isGovernor",
      "outputs": [
        {
          "internalType": "bool",
          "name": "",
          "type": "bool"
        }
      ],
      "payable": false,
      "stateMutability": "view",
      "type": "function"
    },
    {
      "constant": true,
      "inputs": [
        {
          "internalType": "string",
          "name": "symbol",
          "type": "string"
        }
      ],
      "name": "openPrice",
      "outputs": [
        {
          "internalType": "uint256",
          "name": "",
          "type": "uint256"
        }
      ],
      "payable": false,
      "stateMutability": "view",
      "type": "function"
    },
    {
      "constant": false,
      "inputs": [
        {
          "internalType": "address",
          "name": "_newGovernor",
          "type": "address"
        }
      ],
      "name": "transferGovernance",
      "outputs": [],
      "payable": false,
      "stateMutability": "nonpayable",
      "type": "function"
    },
    {
      "constant": false,
      "inputs": [
        {
          "internalType": "address",
          "name": "pair_",
          "type": "address"
        }
      ],
      "name": "registerPair",
      "outputs": [],
      "payable": false,
      "stateMutability": "nonpayable",
      "type": "function"
    },
    {
      "constant": true,
      "inputs": [
        {
          "internalType": "string",
          "name": "symbol",
          "type": "string"
        }
      ],
      "name": "price",
      "outputs": [
        {
          "internalType": "uint256",
          "name": "",
          "type": "uint256"
        }
      ],
      "payable": false,
      "stateMutability": "view",
      "type": "function"
    },
    {
      "inputs": [
        {
          "internalType": "address",
          "name": "ethPriceOracle_",
          "type": "address"
        },
        {
          "internalType": "address",
          "name": "ethToken_",
          "type": "address"
        }
      ],
      "payable": false,
      "stateMutability": "nonpayable",
      "type": "constructor"
    },
    {
      "anonymous": false,
      "inputs": [
        {
          "indexed": true,
          "internalType": "address",
          "name": "previousGovernor",
          "type": "address"
        },
        {
          "indexed": true,
          "internalType": "address",
          "name": "newGovernor",
          "type": "address"
        }
      ],
      "name": "PendingGovernorshipTransfer",
      "type": "event"
    },
    {
      "anonymous": false,
      "inputs": [
        {
          "indexed": true,
          "internalType": "address",
          "name": "previousGovernor",
          "type": "address"
        },
        {
          "indexed": true,
          "internalType": "address",
          "name": "newGovernor",
          "type": "address"
        }
      ],
      "name": "GovernorshipTransferred",
      "type": "event"
    }
  ],
  "address": "0xDF23203a9A17f80f86E212923d12D5c7D34Ba263",
  "args": [
    "0xBAf395C78b05CE0Bf44a0bc32784F16bC55Ff571",
    "0x2A019403290D258b3bDF14051eF1791c8804E307"
  ],
  "solcInputHash": "0xb3650c08a4e2e14ecccb8f0a47293db3f4f322627843b6172e27a33d674d0b0a",
  "bytecode": "0x60806040523480156200001157600080fd5b50604051620027cc380380620027cc8339818101604052620000379190810190620001b3565b62000048336200013c60201b60201c565b620000586200016b60201b60201c565b73ffffffffffffffffffffffffffffffffffffffff16600073ffffffffffffffffffffffffffffffffffffffff167fc7c0c772add429241571afb3805861fb3cfa2af374534088b76cdb4325a87e9a60405160405180910390a381603460006101000a81548173ffffffffffffffffffffffffffffffffffffffff021916908373ffffffffffffffffffffffffffffffffffffffff16021790555080603560006101000a81548173ffffffffffffffffffffffffffffffffffffffff021916908373ffffffffffffffffffffffffffffffffffffffff160217905550505062000242565b60007f7bea13895fa79d2831e0a9e28edede30099005a50d652d8957cf8a607ee6ca4a60001b90508181555050565b6000807f7bea13895fa79d2831e0a9e28edede30099005a50d652d8957cf8a607ee6ca4a60001b9050805491505090565b600081519050620001ad8162000228565b92915050565b60008060408385031215620001c757600080fd5b6000620001d7858286016200019c565b9250506020620001ea858286016200019c565b9150509250929050565b6000620002018262000208565b9050919050565b600073ffffffffffffffffffffffffffffffffffffffff82169050919050565b6200023381620001f4565b81146200023f57600080fd5b50565b61257a80620002526000396000f3fe608060405234801561001057600080fd5b50600436106100f55760003560e01c80639478ab8c11610097578063d182801411610066578063d182801414610279578063d38bfff4146102a9578063dc314b44146102c5578063fe2c6198146102e1576100f5565b80639478ab8c14610201578063ac0e47f51461021f578063b4d1d7951461023d578063c7af33521461025b576100f5565b806357d69314116100d357806357d693141461017b5780635d36b190146101ab5780636c47e98a146101b557806379ae25f4146101e5576100f5565b80630c340a24146100fa5780632d9ff2961461011857806353d683d614610148575b600080fd5b610102610311565b60405161010f9190612151565b60405180910390f35b610132600480360361012d9190810190611bf3565b610320565b60405161013f91906122e3565b60405180910390f35b610162600480360361015d9190810190611bf3565b61048a565b60405161017294939291906122fe565b60405180910390f35b61019560048036036101909190810190611bf3565b6106e0565b6040516101a291906122e3565b60405180910390f35b6101b3610797565b005b6101cf60048036036101ca9190810190611bf3565b610817565b6040516101dc91906122c8565b60405180910390f35b6101ff60048036036101fa9190810190611bae565b610916565b005b61020961096f565b60405161021691906122e3565b60405180910390f35b610227610a56565b6040516102349190612187565b60405180910390f35b610245610a7c565b60405161025291906122e3565b60405180910390f35b610263610a81565b604051610270919061216c565b60405180910390f35b610293600480360361028e9190810190611bf3565b610abe565b6040516102a091906122e3565b60405180910390f35b6102c360048036036102be9190810190611b5c565b610b75565b005b6102df60048036036102da9190810190611b5c565b610c29565b005b6102fb60048036036102f69190810190611bf3565b61104a565b60405161030891906122e3565b60405180910390f35b600061031b61131c565b905090565b600080838360405160200161033692919061210a565b604051602081830303815290604052805190602001209050600060336000838152602001908152602001600020905060008060006103738461134d565b9250925092508183116103bb576040517f08c379a00000000000000000000000000000000000000000000000000000000081526004016103b290612268565b60405180910390fd5b8042116103fd576040517f08c379a00000000000000000000000000000000000000000000000000000000081526004016103f490612248565b60405180910390fd5b6000814203905061040c611970565b604051806020016040528083886003015488038161042657fe5b047bffffffffffffffffffffffffffffffffffffffffffffffffffffffff1681525090506000610455826113b8565b90506b204fce5e3e250261100000006104728289600501546113f4565b8161047957fe5b049850505050505050505092915050565b600080600080600086866040516020016104a592919061210a565b6040516020818303038152906040528051906020012090506000603460009054906101000a900473ffffffffffffffffffffffffffffffffffffffff1673ffffffffffffffffffffffffffffffffffffffff1663fe2c61986040518060400160405280600381526020017f45544800000000000000000000000000000000000000000000000000000000008152506040518263ffffffff1660e01b815260040161054f91906121c6565b60206040518083038186803b15801561056757600080fd5b505afa15801561057b573d6000803e3d6000fd5b505050506040513d601f19601f8201168201806040525061059f9190810190611cc8565b9050600060336000848152602001908152602001600020905060006105c382611464565b90508160030154811161060b576040517f08c379a000000000000000000000000000000000000000000000000000000000815260040161060290612268565b60405180910390fd5b81600101544211610651576040517f08c379a000000000000000000000000000000000000000000000000000000000815260040161064890612248565b60405180910390fd5b6000826001015442039050610664611970565b604051806020016040528083866003015486038161067e57fe5b047bffffffffffffffffffffffffffffffffffffffffffffffffffffffff16815250905060006106ad826113b8565b905060006106bb82886113f4565b9050856003015485038483839b509b509b509b50505050505050505092959194509250565b6000603460009054906101000a900473ffffffffffffffffffffffffffffffffffffffff1673ffffffffffffffffffffffffffffffffffffffff1663fe2c619884846040518363ffffffff1660e01b815260040161073f9291906121a2565b60206040518083038186803b15801561075757600080fd5b505afa15801561076b573d6000803e3d6000fd5b505050506040513d601f19601f8201168201806040525061078f9190810190611cc8565b905092915050565b61079f6114c7565b73ffffffffffffffffffffffffffffffffffffffff163373ffffffffffffffffffffffffffffffffffffffff161461080c576040517f08c379a000000000000000000000000000000000000000000000000000000000815260040161080390612288565b60405180910390fd5b610815336114f8565b565b61081f6119a1565b6000838360405160200161083492919061210a565b604051602081830303815290604052805190602001209050603360008281526020019081526020016000206040518060e00160405290816000820160009054906101000a900460ff161515151581526020016000820160019054906101000a900473ffffffffffffffffffffffffffffffffffffffff1673ffffffffffffffffffffffffffffffffffffffff1673ffffffffffffffffffffffffffffffffffffffff1681526020016001820154815260200160028201548152602001600382015481526020016004820154815260200160058201548152505091505092915050565b60008090505b8282905081101561096a5760006033600085858581811061093957fe5b90506020020135815260200190815260200160002090506109598161134d565b50505050808060010191505061091c565b505050565b6000603460009054906101000a900473ffffffffffffffffffffffffffffffffffffffff1673ffffffffffffffffffffffffffffffffffffffff1663fe2c61986040518060400160405280600381526020017f45544800000000000000000000000000000000000000000000000000000000008152506040518263ffffffff1660e01b8152600401610a0191906121c6565b60206040518083038186803b158015610a1957600080fd5b505afa158015610a2d573d6000803e3d6000fd5b505050506040513d601f19601f82011682018060405250610a519190810190611cc8565b905090565b603460009054906101000a900473ffffffffffffffffffffffffffffffffffffffff1681565b607881565b6000610a8b61131c565b73ffffffffffffffffffffffffffffffffffffffff163373ffffffffffffffffffffffffffffffffffffffff1614905090565b6000603460009054906101000a900473ffffffffffffffffffffffffffffffffffffffff1673ffffffffffffffffffffffffffffffffffffffff1663fe2c619884846040518363ffffffff1660e01b8152600401610b1d9291906121a2565b60206040518083038186803b158015610b3557600080fd5b505afa158015610b49573d6000803e3d6000fd5b505050506040513d601f19601f82011682018060405250610b6d9190810190611cc8565b905092915050565b610b7d610a81565b610bbc576040517f08c379a0000000000000000000000000000000000000000000000000000000008152600401610bb3906121e8565b60405180910390fd5b610bc5816115d5565b8073ffffffffffffffffffffffffffffffffffffffff16610be461131c565b73ffffffffffffffffffffffffffffffffffffffff167fa39cc5eb22d0f34d8beaefee8a3f17cc229c1a1d1ef87a5ad47313487b1c4f0d60405160405180910390a350565b610c31610a81565b610c70576040517f08c379a0000000000000000000000000000000000000000000000000000000008152600401610c67906121e8565b60405180910390fd5b600081905060008060019050603560009054906101000a900473ffffffffffffffffffffffffffffffffffffffff1673ffffffffffffffffffffffffffffffffffffffff168373ffffffffffffffffffffffffffffffffffffffff16630dfe16816040518163ffffffff1660e01b815260040160206040518083038186803b158015610cfb57600080fd5b505afa158015610d0f573d6000803e3d6000fd5b505050506040513d601f19601f82011682018060405250610d339190810190611b85565b73ffffffffffffffffffffffffffffffffffffffff161415610dd4578273ffffffffffffffffffffffffffffffffffffffff1663d21220a76040518163ffffffff1660e01b815260040160206040518083038186803b158015610d9557600080fd5b505afa158015610da9573d6000803e3d6000fd5b505050506040513d601f19601f82011682018060405250610dcd9190810190611b85565b9150610e59565b8273ffffffffffffffffffffffffffffffffffffffff16630dfe16816040518163ffffffff1660e01b815260040160206040518083038186803b158015610e1a57600080fd5b505afa158015610e2e573d6000803e3d6000fd5b505050506040513d601f19601f82011682018060405250610e529190810190611b85565b9150600090505b600082905060608173ffffffffffffffffffffffffffffffffffffffff166395d89b416040518163ffffffff1660e01b815260040160006040518083038186803b158015610ea657600080fd5b505afa158015610eba573d6000803e3d6000fd5b505050506040513d6000823e3d601f19601f82011682018060405250610ee39190810190611c38565b905060006033600083604051602001610efc919061213a565b6040516020818303038152906040528051906020012081526020019081526020016000209050838160000160006101000a81548160ff021916908315150217905550868160000160016101000a81548173ffffffffffffffffffffffffffffffffffffffff021916908373ffffffffffffffffffffffffffffffffffffffff1602179055508273ffffffffffffffffffffffffffffffffffffffff1663313ce5676040518163ffffffff1660e01b815260040160206040518083038186803b158015610fc757600080fd5b505afa158015610fdb573d6000803e3d6000fd5b505050506040513d601f19601f82011682018060405250610fff9190810190611cf1565b60ff16600a0a816005018190555061101681611464565b8160030181905550428160010181905550806001015481600201819055508060030154816004018190555050505050505050565b600080838360405160200161106092919061210a565b6040516020818303038152906040528051906020012090506000603460009054906101000a900473ffffffffffffffffffffffffffffffffffffffff1673ffffffffffffffffffffffffffffffffffffffff1663fe2c61986040518060400160405280600381526020017f45544800000000000000000000000000000000000000000000000000000000008152506040518263ffffffff1660e01b815260040161110a91906121c6565b60206040518083038186803b15801561112257600080fd5b505afa158015611136573d6000803e3d6000fd5b505050506040513d601f19601f8201168201806040525061115a9190810190611cc8565b9050816040518060400160405280600381526020017f45544800000000000000000000000000000000000000000000000000000000008152506040516020016111a39190612123565b6040516020818303038152906040528051906020012014156111c9578092505050611316565b600060336000848152602001908152602001600020905060006111eb82611464565b905081600301548111611233576040517f08c379a000000000000000000000000000000000000000000000000000000000815260040161122a90612268565b60405180910390fd5b81600101544211611279576040517f08c379a000000000000000000000000000000000000000000000000000000000815260040161127090612248565b60405180910390fd5b600082600101544203905061128c611970565b60405180602001604052808386600301548603816112a657fe5b047bffffffffffffffffffffffffffffffffffffffffffffffffffffffff16815250905060006112d5826113b8565b905060006112e382886113f4565b90506ec097ce7bc90715b34b9f10000000006113038288600501546113f4565b8161130a57fe5b04985050505050505050505b92915050565b6000807f7bea13895fa79d2831e0a9e28edede30099005a50d652d8957cf8a607ee6ca4a60001b9050805491505090565b60008060008061135c85611464565b905060008560020154420390506078811061139e5785600201548660010181905550856004015486600301819055504286600201819055508186600401819055505b818660030154876001015494509450945050509193909250565b60006612725dd1d243ab82600001517bffffffffffffffffffffffffffffffffffffffffffffffffffffffff16816113ec57fe5b049050919050565b600080831415611407576000905061145e565b600082840290508284828161141857fe5b0414611459576040517f08c379a000000000000000000000000000000000000000000000000000000000815260040161145090612208565b60405180910390fd5b809150505b92915050565b60008060006114968460000160019054906101000a900473ffffffffffffffffffffffffffffffffffffffff16611604565b50915091508360000160009054906101000a900460ff16156114bc5780925050506114c2565b81925050505b919050565b6000807f44c4d30b2eaad5130ad70c3ba6972730566f3e6359ab83e800d905c61b1c51db60001b9050805491505090565b600073ffffffffffffffffffffffffffffffffffffffff168173ffffffffffffffffffffffffffffffffffffffff161415611568576040517f08c379a000000000000000000000000000000000000000000000000000000000815260040161155f90612228565b60405180910390fd5b8073ffffffffffffffffffffffffffffffffffffffff1661158761131c565b73ffffffffffffffffffffffffffffffffffffffff167fc7c0c772add429241571afb3805861fb3cfa2af374534088b76cdb4325a87e9a60405160405180910390a36115d281611832565b50565b60007f44c4d30b2eaad5130ad70c3ba6972730566f3e6359ab83e800d905c61b1c51db60001b90508181555050565b6000806000611611611861565b90508373ffffffffffffffffffffffffffffffffffffffff16635909c0d56040518163ffffffff1660e01b815260040160206040518083038186803b15801561165957600080fd5b505afa15801561166d573d6000803e3d6000fd5b505050506040513d601f19601f820116820180604052506116919190810190611cc8565b92508373ffffffffffffffffffffffffffffffffffffffff16635a3d54936040518163ffffffff1660e01b815260040160206040518083038186803b1580156116d957600080fd5b505afa1580156116ed573d6000803e3d6000fd5b505050506040513d601f19601f820116820180604052506117119190810190611cc8565b915060008060008673ffffffffffffffffffffffffffffffffffffffff16630902f1ac6040518163ffffffff1660e01b815260040160606040518083038186803b15801561175e57600080fd5b505afa158015611772573d6000803e3d6000fd5b505050506040513d601f19601f820116820180604052506117969190810190611c79565b9250925092508363ffffffff168163ffffffff161461182857600081850390508063ffffffff166117c78486611877565b600001517bffffffffffffffffffffffffffffffffffffffffffffffffffffffff1602870196508063ffffffff166117ff8585611877565b600001517bffffffffffffffffffffffffffffffffffffffffffffffffffffffff160286019550505b5050509193909250565b60007f7bea13895fa79d2831e0a9e28edede30099005a50d652d8957cf8a607ee6ca4a60001b90508181555050565b6000640100000000428161187157fe5b06905090565b61187f611970565b6000826dffffffffffffffffffffffffffff16116118d2576040517f08c379a00000000000000000000000000000000000000000000000000000000081526004016118c9906122a8565b60405180910390fd5b6040518060200160405280836dffffffffffffffffffffffffffff166070866dffffffffffffffffffffffffffff167bffffffffffffffffffffffffffffffffffffffffffffffffffffffff16901b7bffffffffffffffffffffffffffffffffffffffffffffffffffffffff168161194657fe5b047bffffffffffffffffffffffffffffffffffffffffffffffffffffffff16815250905092915050565b604051806020016040528060007bffffffffffffffffffffffffffffffffffffffffffffffffffffffff1681525090565b6040518060e00160405280600015158152602001600073ffffffffffffffffffffffffffffffffffffffff16815260200160008152602001600081526020016000815260200160008152602001600081525090565b600081359050611a05816124c4565b92915050565b600081519050611a1a816124c4565b92915050565b60008083601f840112611a3257600080fd5b8235905067ffffffffffffffff811115611a4b57600080fd5b602083019150836020820283011115611a6357600080fd5b9250929050565b60008083601f840112611a7c57600080fd5b8235905067ffffffffffffffff811115611a9557600080fd5b602083019150836001820283011115611aad57600080fd5b9250929050565b600082601f830112611ac557600080fd5b8151611ad8611ad382612370565b612343565b91508082526020830160208301858383011115611af457600080fd5b611aff838284612480565b50505092915050565b600081519050611b17816124db565b92915050565b600081519050611b2c816124f2565b92915050565b600081519050611b4181612509565b92915050565b600081519050611b5681612520565b92915050565b600060208284031215611b6e57600080fd5b6000611b7c848285016119f6565b91505092915050565b600060208284031215611b9757600080fd5b6000611ba584828501611a0b565b91505092915050565b60008060208385031215611bc157600080fd5b600083013567ffffffffffffffff811115611bdb57600080fd5b611be785828601611a20565b92509250509250929050565b60008060208385031215611c0657600080fd5b600083013567ffffffffffffffff811115611c2057600080fd5b611c2c85828601611a6a565b92509250509250929050565b600060208284031215611c4a57600080fd5b600082015167ffffffffffffffff811115611c6457600080fd5b611c7084828501611ab4565b91505092915050565b600080600060608486031215611c8e57600080fd5b6000611c9c86828701611b08565b9350506020611cad86828701611b08565b9250506040611cbe86828701611b32565b9150509250925092565b600060208284031215611cda57600080fd5b6000611ce884828501611b1d565b91505092915050565b600060208284031215611d0357600080fd5b6000611d1184828501611b47565b91505092915050565b611d23816123ce565b82525050565b611d32816123ce565b82525050565b611d41816123e0565b82525050565b611d50816123e0565b82525050565b611d5f8161244d565b82525050565b6000611d7183856123b2565b9350611d7e838584612471565b611d87836124b3565b840190509392505050565b6000611d9e83856123c3565b9350611dab838584612471565b82840190509392505050565b6000611dc2826123a7565b611dcc81856123c3565b9350611ddc818560208601612480565b80840191505092915050565b6000611df38261239c565b611dfd81856123b2565b9350611e0d818560208601612480565b611e16816124b3565b840191505092915050565b6000611e2c8261239c565b611e3681856123c3565b9350611e46818560208601612480565b80840191505092915050565b6000611e5f601a836123b2565b91507f43616c6c6572206973206e6f742074686520476f7665726e6f720000000000006000830152602082019050919050565b6000611e9f6017836123b2565b91507f6d756c7469706c69636174696f6e206f766572666c6f770000000000000000006000830152602082019050919050565b6000611edf601a836123b2565b91507f4e657720476f7665726e6f7220697320616464726573732830290000000000006000830152602082019050919050565b6000611f1f601a836123b2565b91507f6e6f77206d75737420636f6d65206166746572206265666f72650000000000006000830152602082019050919050565b6000611f5f6023836123b2565b91507f546865726520686173206265656e206e6f2063756d756c61746976652063686160008301527f6e676500000000000000000000000000000000000000000000000000000000006020830152604082019050919050565b6000611fc56030836123b2565b91507f4f6e6c79207468652070656e64696e6720476f7665726e6f722063616e20636f60008301527f6d706c6574652074686520636c61696d000000000000000000000000000000006020830152604082019050919050565b600061202b6017836123b2565b91507f4669786564506f696e743a204449565f42595f5a45524f0000000000000000006000830152602082019050919050565b60e0820160008201516120746000850182611d38565b5060208201516120876020850182611d1a565b50604082015161209a60408501826120ec565b5060608201516120ad60608501826120ec565b5060808201516120c060808501826120ec565b5060a08201516120d360a08501826120ec565b5060c08201516120e660c08501826120ec565b50505050565b6120f581612426565b82525050565b61210481612426565b82525050565b6000612117828486611d92565b91508190509392505050565b600061212f8284611e21565b915081905092915050565b60006121468284611db7565b915081905092915050565b60006020820190506121666000830184611d29565b92915050565b60006020820190506121816000830184611d47565b92915050565b600060208201905061219c6000830184611d56565b92915050565b600060208201905081810360008301526121bd818486611d65565b90509392505050565b600060208201905081810360008301526121e08184611de8565b905092915050565b6000602082019050818103600083015261220181611e52565b9050919050565b6000602082019050818103600083015261222181611e92565b9050919050565b6000602082019050818103600083015261224181611ed2565b9050919050565b6000602082019050818103600083015261226181611f12565b9050919050565b6000602082019050818103600083015261228181611f52565b9050919050565b600060208201905081810360008301526122a181611fb8565b9050919050565b600060208201905081810360008301526122c18161201e565b9050919050565b600060e0820190506122dd600083018461205e565b92915050565b60006020820190506122f860008301846120fb565b92915050565b600060808201905061231360008301876120fb565b61232060208301866120fb565b61232d60408301856120fb565b61233a60608301846120fb565b95945050505050565b6000604051905081810181811067ffffffffffffffff8211171561236657600080fd5b8060405250919050565b600067ffffffffffffffff82111561238757600080fd5b601f19601f8301169050602081019050919050565b600081519050919050565b600081519050919050565b600082825260208201905092915050565b600081905092915050565b60006123d982612406565b9050919050565b60008115159050919050565b60006dffffffffffffffffffffffffffff82169050919050565b600073ffffffffffffffffffffffffffffffffffffffff82169050919050565b6000819050919050565b600063ffffffff82169050919050565b600060ff82169050919050565b60006124588261245f565b9050919050565b600061246a82612406565b9050919050565b82818337600083830152505050565b60005b8381101561249e578082015181840152602081019050612483565b838111156124ad576000848401525b50505050565b6000601f19601f8301169050919050565b6124cd816123ce565b81146124d857600080fd5b50565b6124e4816123ec565b81146124ef57600080fd5b50565b6124fb81612426565b811461250657600080fd5b50565b61251281612430565b811461251d57600080fd5b50565b61252981612440565b811461253457600080fd5b5056fea365627a7a72315820ed36e692844e9a48b6545bf24d6df7212a17170dcaa3203b7a5c95d714fbbbd36c6578706572696d656e74616cf564736f6c634300050b0040",
  "devdoc": {
    "methods": {
      "claimGovernance()": {
        "details": "Claim Governance of the contract to a new account (`newGovernor`). Can only be called by the new Governor."
      },
      "governor()": {
        "details": "Returns the address of the current Governor."
      },
      "isGovernor()": {
        "details": "Returns true if the caller is the current Governor."
      },
      "transferGovernance(address)": {
        "details": "Transfers Governance of the contract to a new account (`newGovernor`). Can only be called by the current Governor. Must be claimed for this to complete",
        "params": {
          "_newGovernor": "Address of the new Governor"
        }
      }
    }
  },
  "userdoc": {
    "methods": {}
  },
  "gasEstimates": {
    "creation": {
      "codeDepositCost": "1918800",
      "executionCost": "infinite",
      "totalCost": "infinite"
    },
    "external": {
      "PERIOD()": "396",
      "claimGovernance()": "22396",
      "debugPrice(string)": "infinite",
      "ethPriceOracle()": "702",
      "ethUsdPrice()": "infinite",
      "getSwapConfig(string)": "infinite",
      "governor()": "664",
      "isGovernor()": "703",
      "openPrice(string)": "infinite",
      "price(string)": "infinite",
      "registerPair(address)": "infinite",
      "tokEthPrice(string)": "infinite",
      "tokUsdPrice(string)": "infinite",
      "transferGovernance(address)": "infinite",
      "updatePriceWindows(bytes32[])": "infinite"
    },
    "internal": {
      "currentCumulativePrice(struct OpenUniswapOracle.SwapConfig storage pointer)": "infinite",
      "mul(uint256,uint256)": "infinite",
      "pokePriceWindow(struct OpenUniswapOracle.SwapConfig storage pointer)": "infinite"
    }
  }
}