{
  "address": "0xc21B8c7F598bD0b4e383ec8C0AAE2b8519C2Bd65",
  "abi": [
    {
      "constant": true,
      "inputs": [
        {
          "internalType": "address",
          "name": "account",
          "type": "address"
        }
      ],
      "name": "getAllStakes",
      "outputs": [
        {
          "components": [
            {
              "internalType": "uint256",
              "name": "amount",
              "type": "uint256"
            },
            {
              "internalType": "uint256",
              "name": "end",
              "type": "uint256"
            },
            {
              "internalType": "uint256",
              "name": "duration",
              "type": "uint256"
            },
            {
              "internalType": "uint240",
              "name": "rate",
              "type": "uint240"
            },
            {
              "internalType": "bool",
              "name": "paid",
              "type": "bool"
            },
            {
              "internalType": "uint8",
              "name": "stakeType",
              "type": "uint8"
            }
          ],
          "internalType": "struct SingleAssetStaking.Stake[]",
          "name": "",
          "type": "tuple[]"
        }
      ],
      "payable": false,
      "stateMutability": "view",
      "type": "function"
    },
    {
      "constant": true,
      "inputs": [],
      "name": "governor",
      "outputs": [
        {
          "internalType": "address",
          "name": "",
          "type": "address"
        }
      ],
      "payable": false,
      "stateMutability": "view",
      "type": "function"
    },
    {
      "constant": true,
      "inputs": [],
      "name": "totalOutstanding",
      "outputs": [
        {
          "internalType": "uint256",
          "name": "",
          "type": "uint256"
        }
      ],
      "payable": false,
      "stateMutability": "view",
      "type": "function"
    },
    {
      "constant": false,
      "inputs": [
        {
          "internalType": "bool",
          "name": "_paused",
          "type": "bool"
        }
      ],
      "name": "setPaused",
      "outputs": [],
      "payable": false,
      "stateMutability": "nonpayable",
      "type": "function"
    },
    {
      "constant": false,
      "inputs": [
        {
          "internalType": "uint256[]",
          "name": "_durations",
          "type": "uint256[]"
        },
        {
          "internalType": "uint256[]",
          "name": "_rates",
          "type": "uint256[]"
        }
      ],
      "name": "setDurationRates",
      "outputs": [],
      "payable": false,
      "stateMutability": "nonpayable",
      "type": "function"
    },
    {
      "constant": false,
      "inputs": [
        {
          "internalType": "uint8",
          "name": "_stakeType",
          "type": "uint8"
        },
        {
          "internalType": "bytes32",
          "name": "_rootHash",
          "type": "bytes32"
        },
        {
          "internalType": "uint256",
          "name": "_proofDepth",
          "type": "uint256"
        }
      ],
      "name": "setAirDropRoot",
      "outputs": [],
      "payable": false,
      "stateMutability": "nonpayable",
      "type": "function"
    },
    {
      "constant": false,
      "inputs": [
        {
          "internalType": "uint256",
          "name": "index",
          "type": "uint256"
        },
        {
          "internalType": "uint8",
          "name": "stakeType",
          "type": "uint8"
        },
        {
          "internalType": "uint256",
          "name": "duration",
          "type": "uint256"
        },
        {
          "internalType": "uint256",
          "name": "rate",
          "type": "uint256"
        },
        {
          "internalType": "uint256",
          "name": "amount",
          "type": "uint256"
        },
        {
          "internalType": "bytes32[]",
          "name": "merkleProof",
          "type": "bytes32[]"
        }
      ],
      "name": "airDroppedStake",
      "outputs": [],
      "payable": false,
      "stateMutability": "nonpayable",
      "type": "function"
    },
    {
      "constant": true,
      "inputs": [],
      "name": "paused",
      "outputs": [
        {
          "internalType": "bool",
          "name": "",
          "type": "bool"
        }
      ],
      "payable": false,
      "stateMutability": "view",
      "type": "function"
    },
    {
      "constant": false,
      "inputs": [],
      "name": "claimGovernance",
      "outputs": [],
      "payable": false,
      "stateMutability": "nonpayable",
      "type": "function"
    },
    {
      "constant": false,
      "inputs": [
        {
          "internalType": "address",
          "name": "staker",
          "type": "address"
        },
        {
          "internalType": "uint256",
          "name": "amount",
          "type": "uint256"
        },
        {
          "internalType": "uint256",
          "name": "duration",
          "type": "uint256"
        }
      ],
      "name": "stakeWithSender",
      "outputs": [
        {
          "internalType": "bool",
          "name": "",
          "type": "bool"
        }
      ],
      "payable": false,
      "stateMutability": "nonpayable",
      "type": "function"
    },
    {
      "constant": true,
      "inputs": [],
      "name": "stakingToken",
      "outputs": [
        {
          "internalType": "contract IERC20",
          "name": "",
          "type": "address"
        }
      ],
      "payable": false,
      "stateMutability": "view",
      "type": "function"
    },
    {
      "constant": false,
      "inputs": [
        {
          "internalType": "uint256",
          "name": "amount",
          "type": "uint256"
        },
        {
          "internalType": "uint256",
          "name": "duration",
          "type": "uint256"
        }
      ],
      "name": "stake",
      "outputs": [],
      "payable": false,
      "stateMutability": "nonpayable",
      "type": "function"
    },
    {
      "constant": true,
      "inputs": [
        {
          "internalType": "uint256",
          "name": "_duration",
          "type": "uint256"
        }
      ],
      "name": "durationRewardRate",
      "outputs": [
        {
          "internalType": "uint256",
          "name": "",
          "type": "uint256"
        }
      ],
      "payable": false,
      "stateMutability": "view",
      "type": "function"
    },
    {
      "constant": true,
      "inputs": [
        {
          "internalType": "address",
          "name": "account",
          "type": "address"
        }
      ],
      "name": "totalCurrentHoldings",
      "outputs": [
        {
          "internalType": "uint256",
          "name": "total",
          "type": "uint256"
        }
      ],
      "payable": false,
      "stateMutability": "view",
      "type": "function"
    },
    {
      "constant": true,
      "inputs": [
        {
          "internalType": "address",
          "name": "account",
          "type": "address"
        }
      ],
      "name": "totalStaked",
      "outputs": [
        {
          "internalType": "uint256",
          "name": "total",
          "type": "uint256"
        }
      ],
      "payable": false,
      "stateMutability": "view",
      "type": "function"
    },
    {
      "constant": true,
      "inputs": [
        {
          "internalType": "address",
          "name": "account",
          "type": "address"
        },
        {
          "internalType": "uint8",
          "name": "stakeType",
          "type": "uint8"
        }
      ],
      "name": "airDroppedStakeClaimed",
      "outputs": [
        {
          "internalType": "bool",
          "name": "",
          "type": "bool"
        }
      ],
      "payable": false,
      "stateMutability": "view",
      "type": "function"
    },
    {
      "constant": true,
      "inputs": [
        {
          "internalType": "address",
          "name": "",
          "type": "address"
        },
        {
          "internalType": "uint256",
          "name": "",
          "type": "uint256"
        }
      ],
      "name": "userStakes",
      "outputs": [
        {
          "internalType": "uint256",
          "name": "amount",
          "type": "uint256"
        },
        {
          "internalType": "uint256",
          "name": "end",
          "type": "uint256"
        },
        {
          "internalType": "uint256",
          "name": "duration",
          "type": "uint256"
        },
        {
          "internalType": "uint240",
          "name": "rate",
          "type": "uint240"
        },
        {
          "internalType": "bool",
          "name": "paid",
          "type": "bool"
        },
        {
          "internalType": "uint8",
          "name": "stakeType",
          "type": "uint8"
        }
      ],
      "payable": false,
      "stateMutability": "view",
      "type": "function"
    },
    {
      "constant": true,
      "inputs": [
        {
          "internalType": "uint256",
          "name": "",
          "type": "uint256"
        }
      ],
      "name": "durations",
      "outputs": [
        {
          "internalType": "uint256",
          "name": "",
          "type": "uint256"
        }
      ],
      "payable": false,
      "stateMutability": "view",
      "type": "function"
    },
    {
      "constant": true,
      "inputs": [],
      "name": "getAllDurations",
      "outputs": [
        {
          "internalType": "uint256[]",
          "name": "",
          "type": "uint256[]"
        }
      ],
      "payable": false,
      "stateMutability": "view",
      "type": "function"
    },
    {
      "constant": true,
      "inputs": [],
      "name": "isGovernor",
      "outputs": [
        {
          "internalType": "bool",
          "name": "",
          "type": "bool"
        }
      ],
      "payable": false,
      "stateMutability": "view",
      "type": "function"
    },
    {
      "constant": false,
      "inputs": [
        {
          "internalType": "address",
          "name": "_newGovernor",
          "type": "address"
        }
      ],
      "name": "transferGovernance",
      "outputs": [],
      "payable": false,
      "stateMutability": "nonpayable",
      "type": "function"
    },
    {
      "constant": true,
      "inputs": [
        {
          "internalType": "uint256",
          "name": "",
          "type": "uint256"
        }
      ],
      "name": "rates",
      "outputs": [
        {
          "internalType": "uint256",
          "name": "",
          "type": "uint256"
        }
      ],
      "payable": false,
      "stateMutability": "view",
      "type": "function"
    },
    {
      "constant": true,
      "inputs": [
        {
          "internalType": "uint8",
          "name": "",
          "type": "uint8"
        }
      ],
      "name": "dropRoots",
      "outputs": [
        {
          "internalType": "bytes32",
          "name": "hash",
          "type": "bytes32"
        },
        {
          "internalType": "uint256",
          "name": "depth",
          "type": "uint256"
        }
      ],
      "payable": false,
      "stateMutability": "view",
      "type": "function"
    },
    {
      "constant": false,
      "inputs": [
        {
          "internalType": "address",
          "name": "_stakingToken",
          "type": "address"
        },
        {
          "internalType": "uint256[]",
          "name": "_durations",
          "type": "uint256[]"
        },
        {
          "internalType": "uint256[]",
          "name": "_rates",
          "type": "uint256[]"
        }
      ],
      "name": "initialize",
      "outputs": [],
      "payable": false,
      "stateMutability": "nonpayable",
      "type": "function"
    },
    {
      "constant": false,
      "inputs": [],
      "name": "exit",
      "outputs": [],
      "payable": false,
      "stateMutability": "nonpayable",
      "type": "function"
    },
    {
      "constant": true,
      "inputs": [
        {
          "internalType": "address",
          "name": "account",
          "type": "address"
        }
      ],
      "name": "totalExpectedRewards",
      "outputs": [
        {
          "internalType": "uint256",
          "name": "",
          "type": "uint256"
        }
      ],
      "payable": false,
      "stateMutability": "view",
      "type": "function"
    },
    {
      "constant": true,
      "inputs": [],
      "name": "getAllRates",
      "outputs": [
        {
          "internalType": "uint256[]",
          "name": "",
          "type": "uint256[]"
        }
      ],
      "payable": false,
      "stateMutability": "view",
      "type": "function"
    },
    {
      "anonymous": false,
      "inputs": [
        {
          "indexed": true,
          "internalType": "address",
          "name": "user",
          "type": "address"
        },
        {
          "indexed": false,
          "internalType": "uint256",
          "name": "amount",
          "type": "uint256"
        },
        {
          "indexed": false,
          "internalType": "uint256",
          "name": "duration",
          "type": "uint256"
        },
        {
          "indexed": false,
          "internalType": "uint256",
          "name": "rate",
          "type": "uint256"
        }
      ],
      "name": "Staked",
      "type": "event"
    },
    {
      "anonymous": false,
      "inputs": [
        {
          "indexed": true,
          "internalType": "address",
          "name": "user",
          "type": "address"
        },
        {
          "indexed": false,
          "internalType": "uint256",
          "name": "amount",
          "type": "uint256"
        },
        {
          "indexed": false,
          "internalType": "uint256",
          "name": "stakedAmount",
          "type": "uint256"
        }
      ],
      "name": "Withdrawn",
      "type": "event"
    },
    {
      "anonymous": false,
      "inputs": [
        {
          "indexed": true,
          "internalType": "address",
          "name": "user",
          "type": "address"
        },
        {
          "indexed": false,
          "internalType": "bool",
          "name": "yes",
          "type": "bool"
        }
      ],
      "name": "Paused",
      "type": "event"
    },
    {
      "anonymous": false,
      "inputs": [
        {
          "indexed": true,
          "internalType": "address",
          "name": "user",
          "type": "address"
        },
        {
          "indexed": false,
          "internalType": "uint256[]",
          "name": "durations",
          "type": "uint256[]"
        }
      ],
      "name": "NewDurations",
      "type": "event"
    },
    {
      "anonymous": false,
      "inputs": [
        {
          "indexed": true,
          "internalType": "address",
          "name": "user",
          "type": "address"
        },
        {
          "indexed": false,
          "internalType": "uint256[]",
          "name": "rates",
          "type": "uint256[]"
        }
      ],
      "name": "NewRates",
      "type": "event"
    },
    {
      "anonymous": false,
      "inputs": [
        {
          "indexed": false,
          "internalType": "uint8",
          "name": "stakeType",
          "type": "uint8"
        },
        {
          "indexed": false,
          "internalType": "bytes32",
          "name": "rootHash",
          "type": "bytes32"
        },
        {
          "indexed": false,
          "internalType": "uint256",
          "name": "proofDepth",
          "type": "uint256"
        }
      ],
      "name": "NewAirDropRootHash",
      "type": "event"
    },
    {
      "anonymous": false,
      "inputs": [
        {
          "indexed": true,
          "internalType": "address",
          "name": "previousGovernor",
          "type": "address"
        },
        {
          "indexed": true,
          "internalType": "address",
          "name": "newGovernor",
          "type": "address"
        }
      ],
      "name": "PendingGovernorshipTransfer",
      "type": "event"
    },
    {
      "anonymous": false,
      "inputs": [
        {
          "indexed": true,
          "internalType": "address",
          "name": "previousGovernor",
          "type": "address"
        },
        {
          "indexed": true,
          "internalType": "address",
          "name": "newGovernor",
          "type": "address"
        }
      ],
      "name": "GovernorshipTransferred",
      "type": "event"
    }
  ],
  "transactionHash": "0xea728443150ee0ffcae1489fa02c1196fcc8bb7961a4c762415c19cd63c6438b",
  "args": [],
  "solcInputHash": "c7459e40fa663addef2a13f82ab72194",
  "bytecode": "0x608060405262000018336001600160e01b036200007116565b6200002b6001600160e01b036200008416565b6001600160a01b031660006001600160a01b03167fc7c0c772add429241571afb3805861fb3cfa2af374534088b76cdb4325a87e9a60405160405180910390a362000098565b60008051602062002ccd83398151915255565b60008051602062002ccd8339815191525490565b612c2580620000a86000396000f3fe608060405234801561001057600080fd5b50600436106101a95760003560e01c806382d78111116100f9578063d38bfff411610097578063e9e518a011610071578063e9e518a01461038f578063e9fad8ee146103a2578063ea1d81cb146103aa578063ff5a20bf146103bd576101a9565b8063d38bfff414610348578063dd418ae21461035b578063df962bd61461036e576101a9565b8063b5d5b5fa116100d3578063b5d5b5fa146102f3578063bc20a7af14610318578063bc2ee5a61461032b578063c7af335214610340576101a9565b806382d78111146102ba5780639bfd8d61146102cd578063a5149d54146102e0576101a9565b80634f2b529d116101665780635e99cbe9116101405780635e99cbe91461026c57806372f702f31461027f5780637b0472f014610294578063825e0e80146102a7576101a9565b80634f2b529d1461023c5780635c975abb1461024f5780635d36b19014610264576101a9565b806304238994146101ae5780630c340a24146101d757806316078d04146101ec57806316c38b3c14610201578063334e7ed214610216578063389b21ce14610229575b600080fd5b6101c16101bc366004611c6d565b6103c5565b6040516101ce9190612835565b60405180910390f35b6101df610487565b6040516101ce91906127e4565b6101f4610497565b6040516101ce9190612a23565b61021461020f366004611e39565b61049d565b005b610214610224366004611dc9565b610519565b610214610237366004611f93565b6105b0565b61021461024a366004611ed0565b610650565b6102576108db565b6040516101ce9190612868565b6102146108e4565b61025761027a366004611d4c565b610927565b61028761096a565b6040516101ce9190612884565b6102146102a2366004611eb1565b610979565b6101f46102b5366004611e75565b610a29565b6101f46102c8366004611c6d565b610a43565b6101f46102db366004611c6d565b610b62565b6102576102ee366004611d99565b610bec565b610306610301366004611d12565b610c01565b6040516101ce96959493929190612a59565b6101f4610326366004611e75565b610c63565b610333610c81565b6040516101ce9190612846565b610257610cd9565b610214610356366004611c6d565b610cfc565b6101f4610369366004611e75565b610d73565b61038161037c366004611f75565b610d80565b6040516101ce929190612876565b61021461039d366004611c8b565b610d99565b610214610eca565b6101f46103b8366004611c6d565b6110ce565b6103336110ef565b6001600160a01b0381166000908152603860209081526040808320805482518185028101850190935280835260609492939192909184015b8282101561047b5760008481526020908190206040805160c081018252600486029092018054835260018082015484860152600282015492840192909252600301546001600160f01b038116606084015260ff600160f01b8204811615156080850152600160f81b9091041660a083015290835290920191016103fd565b5050505090505b919050565b6000610491611145565b90505b90565b60365481565b6104a5610cd9565b6104ca5760405162461bcd60e51b81526004016104c1906128f3565b60405180910390fd5b6037805460ff1916821515179081905560405133917fe8699cf681560fd07de85543bd994263f4557bdc5179dd702f256d15fd083e1d9161050e9160ff1690612868565b60405180910390a250565b610521610cd9565b61053d5760405162461bcd60e51b81526004016104c1906128f3565b6105aa8484808060200260200160405190810160405280939291908181526020018383602002808284376000920191909152505060408051602080880282810182019093528782529093508792508691829185019084908082843760009201919091525061116a92505050565b50505050565b6105b8610cd9565b6105d45760405162461bcd60e51b81526004016104c1906128f3565b60ff83166105f45760405162461bcd60e51b81526004016104c1906128b3565b60ff831660009081526039602052604090819020838155600101829055517f1ac9c006454d2d601a481473a37c95bf489c5923bd7c2a701757d4016a0f022d9061064390859085908590612ab3565b60405180910390a1505050565b60ff86166106705760405162461bcd60e51b81526004016104c1906128b3565b6001600160f01b0384106106965760405162461bcd60e51b81526004016104c190612933565b600281900a87106106b95760405162461bcd60e51b81526004016104c190612903565b60ff86166000908152603960205260409020600181015482146106ee5760405162461bcd60e51b81526004016104c1906129d3565b6000888830338a8a8a60405160200161070d9796959493929190612769565b60408051601f19818403018152919052805160209091012090508860005b61ffff81168511156107d95781600116600114156107895785858261ffff1681811061075357fe5b905060200201358360405160200161076c929190612737565b6040516020818303038152906040528051906020012092506107cb565b8286868361ffff1681811061079a57fe5b905060200201356040516020016107b2929190612737565b6040516020818303038152906040528051906020012092505b60028204915060010161072b565b50825482146107fa5760405162461bcd60e51b81526004016104c1906129f3565b610804338a61128d565b156108215760405162461bcd60e51b81526004016104c190612993565b61082e338a8a8a8a611302565b50506036546033546040516370a0823160e01b81529192506001600160a01b0316906370a08231906108649030906004016127e4565b60206040518083038186803b15801561087c57600080fd5b505afa158015610890573d6000803e3d6000fd5b505050506040513d601f19601f820116820180604052506108b49190810190611e93565b10156108d25760405162461bcd60e51b81526004016104c1906129c3565b50505050505050565b60375460ff1681565b6108ec61154f565b6001600160a01b0316336001600160a01b03161461091c5760405162461bcd60e51b81526004016104c190612a03565b61092533611574565b565b6033546000906001600160a01b031633146109545760405162461bcd60e51b81526004016104c190612913565b61095f8484846115ed565b5060015b9392505050565b6033546001600160a01b031681565b6109843383836115ed565b6036546033546040516370a0823160e01b81526001600160a01b03909116906370a08231906109b79030906004016127e4565b60206040518083038186803b1580156109cf57600080fd5b505afa1580156109e3573d6000803e3d6000fd5b505050506040513d601f19601f82011682018060405250610a079190810190611e93565b1015610a255760405162461bcd60e51b81526004016104c1906129c3565b5050565b6000610a348261166f565b6001600160f01b031692915050565b6001600160a01b0381166000908152603860205260408120815b8154811015610b5b576000828281548110610a7457fe5b9060005260206000209060040201905080600301601e9054906101000a900460ff1615610aa15750610b53565b4281600101541015610acd57610ac6610ab9826116cd565b859063ffffffff6116f316565b9350610b51565b610b4e610ab9610b40610b158460020154610b09610af842886001015461171890919063ffffffff16565b60028801549063ffffffff61171816565b9063ffffffff61175a16565b60038501548554610b34916001600160f01b031663ffffffff61178f16565b9063ffffffff61178f16565b83549063ffffffff6116f316565b93505b505b600101610a5d565b5050919050565b6001600160a01b0381166000908152603860205260408120815b8154811015610b5b57818181548110610b9157fe5b9060005260206000209060040201600301601e9054906101000a900460ff16610be457610be1828281548110610bc357fe5b6000918252602090912060049091020154849063ffffffff6116f316565b92505b600101610b7c565b6000610bf8838361128d565b90505b92915050565b60386020528160005260406000208181548110610c1a57fe5b6000918252602090912060049091020180546001820154600283015460039093015491945092506001600160f01b0381169060ff600160f01b8204811691600160f81b90041686565b60348181548110610c7057fe5b600091825260209091200154905081565b60606034805480602002602001604051908101604052809291908181526020018280548015610ccf57602002820191906000526020600020905b815481526020019060010190808311610cbb575b5050505050905090565b6000610ce3611145565b6001600160a01b0316336001600160a01b031614905090565b610d04610cd9565b610d205760405162461bcd60e51b81526004016104c1906128f3565b610d29816117a4565b806001600160a01b0316610d3b611145565b6001600160a01b03167fa39cc5eb22d0f34d8beaefee8a3f17cc229c1a1d1ef87a5ad47313487b1c4f0d60405160405180910390a350565b60358181548110610c7057fe5b6039602052600090815260409020805460019091015482565b610da1610cd9565b610dbd5760405162461bcd60e51b81526004016104c1906128f3565b600054610100900460ff1680610dd65750610dd66117c8565b80610de4575060005460ff16155b610e005760405162461bcd60e51b81526004016104c1906129b3565b600054610100900460ff16158015610e2b576000805460ff1961ff0019909116610100171660011790555b603380546001600160a01b0319166001600160a01b0388161790556040805160208681028083018201909352868252610eb0928891889182918501908490808284376000920191909152505060408051602080890282810182019093528882529093508892508791829185019084908082843760009201919091525061116a92505050565b8015610ec2576000805461ff00191690555b505050505050565b3360009081526038602052604090208054610ef75760405162461bcd60e51b81526004016104c1906129a3565b805460009081905b6000846001830381548110610f1057fe5b90600052602060002090600402019050428160010154108015610f3e57506003810154600160f01b900460ff165b15610f495750610f9a565b4281600101541015610f8f5760038101805460ff60f01b1916600160f01b179055610f76610ab9826116cd565b8154909450610f8c90849063ffffffff6116f316565b92505b506000190180610eff575b60008311610fba5760405162461bcd60e51b81526004016104c190612973565b603654610fcd908463ffffffff61171816565b60365560405133907f92ccf450a286a957af52509bc1c9939d1a6a481783e142e41e2499f0bb66ebc6906110049086908690612876565b60405180910390a2603354611029906001600160a01b0316338563ffffffff6117ce16565b50506036546033546040516370a0823160e01b81529193506001600160a01b031691506370a08231906110609030906004016127e4565b60206040518083038186803b15801561107857600080fd5b505afa15801561108c573d6000803e3d6000fd5b505050506040513d601f19601f820116820180604052506110b09190810190611e93565b10156109255760405162461bcd60e51b81526004016104c1906129c3565b6001600160a01b0381166000908152603860205260408120610bfb9061182c565b60606035805480602002602001604051908101604052809291908181526020018280548015610ccf5760200282019190600052602060002090815481526020019060010190808311610cbb575050505050905090565b7f7bea13895fa79d2831e0a9e28edede30099005a50d652d8957cf8a607ee6ca4a5490565b815181511461118b5760405162461bcd60e51b81526004016104c190612943565b60005b81518110156111dc576000196001600160f01b03168282815181106111af57fe5b6020026020010151106111d45760405162461bcd60e51b81526004016104c190612933565b60010161118e565b5080516111f0906035906020840190611b23565b508151611204906034906020850190611b23565b50336001600160a01b03167fa804368c7f1a6216d92d17d9753b923dfc3da14ae33d231e8d79e39202e249c3603560405161123f9190612857565b60405180910390a2336001600160a01b03167f180120279c2eb356244609197b5b64c0fbabd60f8d073b75aba771a296bb63d460346040516112819190612857565b60405180910390a25050565b6001600160a01b0382166000908152603860205260408120815b81548110156112f7578360ff168282815481106112c057fe5b6000918252602090912060049091020160030154600160f81b900460ff1614156112ef57600192505050610bfb565b6001016112a7565b506000949350505050565b60375460ff16156113255760405162461bcd60e51b81526004016104c190612963565b6001600160a01b03851660009081526038602052604081209061134e428663ffffffff6116f316565b825490915061010081106113745760405162461bcd60e51b81526004016104c1906128a3565b82546001016113838482611b6e565b505b80158015906113b357508183600183038154811061139f57fe5b906000526020600020906004020160010154115b1561147d578260018203815481106113c757fe5b90600052602060002090600402018382815481106113e157fe5b6000918252602090912082546004909202019081556001808301549082015560028083015490820155600391820180549290910180546001600160f01b0319166001600160f01b0390931692909217808355815460ff600160f01b918290048116151590910260ff60f01b19909216919091178084559154600160f81b90819004909116026001600160f81b0390911617905560001901611385565b600083828154811061148b57fe5b600091825260209091206004909102016003810180546001600160f01b0319166001600160f01b038916176001600160f81b0316600160f81b60ff8c1602179055600181018490556002810188905585815590506114fa6114eb826116cd565b6036549063ffffffff6116f316565b6036556040516001600160a01b038a16907fb4caaf29adda3eefee3ad552a8e85058589bf834c7466cae4ee58787f70589ed9061153c9088908b908b90612a31565b60405180910390a2505050505050505050565b7f44c4d30b2eaad5130ad70c3ba6972730566f3e6359ab83e800d905c61b1c51db5490565b6001600160a01b03811661159a5760405162461bcd60e51b81526004016104c190612953565b806001600160a01b03166115ac611145565b6001600160a01b03167fc7c0c772add429241571afb3805861fb3cfa2af374534088b76cdb4325a87e9a60405160405180910390a36115ea816118b0565b50565b6000821161160d5760405162461bcd60e51b81526004016104c1906128d3565b60006116188261166f565b90506000816001600160f01b0316116116435760405162461bcd60e51b81526004016104c1906128c3565b611651846000848487611302565b6033546105aa906001600160a01b031685308663ffffffff6118d416565b6000805b6034548110156116c4576034818154811061168a57fe5b90600052602060002001548314156116bc57603581815481106116a957fe5b9060005260206000200154915050610482565b600101611673565b50600092915050565b60038101548154600091610bfb91610b40916001600160f01b031663ffffffff61178f16565b600082820183811015610bf85760405162461bcd60e51b81526004016104c1906128e3565b6000610bf883836040518060400160405280601e81526020017f536166654d6174683a207375627472616374696f6e206f766572666c6f7700008152506118f8565b60008061177584670de0b6b3a764000063ffffffff61192416565b9050611787818463ffffffff61195e16565b949350505050565b6000610bf88383670de0b6b3a76400006119a0565b7f44c4d30b2eaad5130ad70c3ba6972730566f3e6359ab83e800d905c61b1c51db55565b303b1590565b60405161182790849063a9059cbb60e01b906117f0908690869060240161281a565b60408051601f198184030181529190526020810180516001600160e01b03166001600160e01b0319909316929092179091526119ce565b505050565b6000805b82548110156118aa57600083828154811061184757fe5b9060005260206000209060040201905080600301601e9054906101000a900460ff166118a1576003810154815461189e9161189191906001600160f01b031663ffffffff61178f16565b849063ffffffff6116f316565b92505b50600101611830565b50919050565b7f7bea13895fa79d2831e0a9e28edede30099005a50d652d8957cf8a607ee6ca4a55565b6040516105aa9085906323b872dd60e01b906117f0908790879087906024016127f2565b6000818484111561191c5760405162461bcd60e51b81526004016104c19190612892565b505050900390565b60008261193357506000610bfb565b8282028284828161194057fe5b0414610bf85760405162461bcd60e51b81526004016104c190612983565b6000610bf883836040518060400160405280601a81526020017f536166654d6174683a206469766973696f6e206279207a65726f000000000000815250611ab3565b6000806119b3858563ffffffff61192416565b90506119c5818463ffffffff61195e16565b95945050505050565b6119e0826001600160a01b0316611aea565b6119fc5760405162461bcd60e51b81526004016104c190612a13565b60006060836001600160a01b031683604051611a18919061275d565b6000604051808303816000865af19150503d8060008114611a55576040519150601f19603f3d011682016040523d82523d6000602084013e611a5a565b606091505b509150915081611a7c5760405162461bcd60e51b81526004016104c190612923565b8051156105aa5780806020019051611a979190810190611e57565b6105aa5760405162461bcd60e51b81526004016104c1906129e3565b60008183611ad45760405162461bcd60e51b81526004016104c19190612892565b506000838581611ae057fe5b0495945050505050565b6000813f7fc5d2460186f7233c927e7db2dcc703c0e500b653ca82273b7bfad8045d85a470818114801590611787575050151592915050565b828054828255906000526020600020908101928215611b5e579160200282015b82811115611b5e578251825591602001919060010190611b43565b50611b6a929150611b9a565b5090565b815481835581811115611827576004028160040283600052602060002091820191016118279190611bb4565b61049491905b80821115611b6a5760008155600101611ba0565b61049491905b80821115611b6a57600080825560018201819055600282018190556003820155600401611bba565b8035610bfb81612bb3565b60008083601f840112611bff57600080fd5b50813567ffffffffffffffff811115611c1757600080fd5b602083019150836020820283011115611c2f57600080fd5b9250929050565b8035610bfb81612bc7565b8051610bfb81612bc7565b8035610bfb81612bd0565b8051610bfb81612bd0565b8035610bfb81612bd9565b600060208284031215611c7f57600080fd5b60006117878484611be2565b600080600080600060608688031215611ca357600080fd5b6000611caf8888611be2565b955050602086013567ffffffffffffffff811115611ccc57600080fd5b611cd888828901611bed565b9450945050604086013567ffffffffffffffff811115611cf757600080fd5b611d0388828901611bed565b92509250509295509295909350565b60008060408385031215611d2557600080fd5b6000611d318585611be2565b9250506020611d4285828601611c4c565b9150509250929050565b600080600060608486031215611d6157600080fd5b6000611d6d8686611be2565b9350506020611d7e86828701611c4c565b9250506040611d8f86828701611c4c565b9150509250925092565b60008060408385031215611dac57600080fd5b6000611db88585611be2565b9250506020611d4285828601611c62565b60008060008060408587031215611ddf57600080fd5b843567ffffffffffffffff811115611df657600080fd5b611e0287828801611bed565b9450945050602085013567ffffffffffffffff811115611e2157600080fd5b611e2d87828801611bed565b95989497509550505050565b600060208284031215611e4b57600080fd5b60006117878484611c36565b600060208284031215611e6957600080fd5b60006117878484611c41565b600060208284031215611e8757600080fd5b60006117878484611c4c565b600060208284031215611ea557600080fd5b60006117878484611c57565b60008060408385031215611ec457600080fd5b6000611d318585611c4c565b600080600080600080600060c0888a031215611eeb57600080fd5b6000611ef78a8a611c4c565b9750506020611f088a828b01611c62565b9650506040611f198a828b01611c4c565b9550506060611f2a8a828b01611c4c565b9450506080611f3b8a828b01611c4c565b93505060a088013567ffffffffffffffff811115611f5857600080fd5b611f648a828b01611bed565b925092505092959891949750929550565b600060208284031215611f8757600080fd5b60006117878484611c62565b600080600060608486031215611fa857600080fd5b6000611d6d8686611c62565b6000611fc0838361269b565b505060c00190565b6000611fd48383612101565b505060200190565b611fed611fe882612af7565b612b75565b82525050565b611fed81612af7565b600061200782612ae0565b6120118185612aee565b935061201c83612ace565b8060005b8381101561204a5781516120348882611fb4565b975061203f83612ace565b925050600101612020565b509495945050505050565b600061206082612ae0565b61206a8185612aee565b935061207583612ace565b8060005b8381101561204a57815161208d8882611fc8565b975061209883612ace565b925050600101612079565b60006120ae82612ae4565b6120b88185612aee565b93506120c383612ad4565b8060005b8381101561204a576120d882612b91565b6120e28882611fc8565b97506120ed83612ae8565b9250506001016120c7565b611fed81612b02565b611fed81610494565b611fed61211682610494565b610494565b600061212682612ae0565b6121308185610482565b9350612140818560208601612b3b565b9290920192915050565b611fed81612b25565b600061215e82612ae0565b6121688185612aee565b9350612178818560208601612b3b565b61218181612b9d565b9093019392505050565b6000612198600a83612aee565b694d6178207374616b657360b01b815260200192915050565b60006121be601883612aee565b7f43616e6e6f74206265206e6f726d616c207374616b696e670000000000000000815260200192915050565b60006121f7601083612aee565b6f24b73b30b634b210323ab930ba34b7b760811b815260200192915050565b6000612223600e83612aee565b6d043616e6e6f74207374616b6520360941b815260200192915050565b600061224d601b83612aee565b7f536166654d6174683a206164646974696f6e206f766572666c6f770000000000815260200192915050565b6000612286601a83612aee565b7f43616c6c6572206973206e6f742074686520476f7665726e6f72000000000000815260200192915050565b60006122bf600d83612aee565b6c092dcecc2d8d2c840d2dcc8caf609b1b815260200192915050565b60006122e8602683612aee565b7f4f6e6c7920746f6b656e20636f6e74726163742063616e206d616b65207468698152651cc818d85b1b60d21b602082015260400192915050565b6000612330602083612aee565b7f5361666545524332303a206c6f772d6c6576656c2063616c6c206661696c6564815260200192915050565b6000612369601183612aee565b7013585e081c985d1948195e18d959591959607a1b815260200192915050565b6000612396601c83612aee565b7f4d69736d61746368206475726174696f6e7320616e6420726174657300000000815260200192915050565b60006123cf601a83612aee565b7f4e657720476f7665726e6f722069732061646472657373283029000000000000815260200192915050565b6000612408600e83612aee565b6d14dd185ada5b99c81c185d5cd95960921b815260200192915050565b6000612432601583612aee565b740416c6c207374616b657320696e206c6f636b2d757605c1b815260200192915050565b6000612463602183612aee565b7f536166654d6174683a206d756c7469706c69636174696f6e206f766572666c6f8152607760f81b602082015260400192915050565b60006124a6600e83612aee565b6d105b1c9958591e481cdd185ad95960921b815260200192915050565b60006124d0600e83612aee565b6d139bdd1a1a5b99c81cdd185ad95960921b815260200192915050565b60006124fa602e83612aee565b7f436f6e747261637420696e7374616e63652068617320616c726561647920626581526d195b881a5b9a5d1a585b1a5e995960921b602082015260400192915050565b600061254a601483612aee565b73496e73756666696369656e74207265776172647360601b815260200192915050565b600061257a600d83612aee565b6c24b73b30b634b210383937b7b360991b815260200192915050565b60006125a3602a83612aee565b7f5361666545524332303a204552433230206f7065726174696f6e20646964206e8152691bdd081cdd58d8d9595960b21b602082015260400192915050565b60006125ef601283612aee565b7114dd185ad9481b9bdd08185c1c1c9bdd995960721b815260200192915050565b600061261d603083612aee565b7f4f6e6c79207468652070656e64696e6720476f7665726e6f722063616e20636f81526f6d706c6574652074686520636c61696d60801b602082015260400192915050565b600061266f601f83612aee565b7f5361666545524332303a2063616c6c20746f206e6f6e2d636f6e747261637400815260200192915050565b805160c08301906126ac8482612101565b5060208201516126bf6020850182612101565b5060408201516126d26040850182612101565b5060608201516126e5606085018261270b565b5060808201516126f860808501826120f8565b5060a08201516105aa60a085018261271d565b611fed81612b13565b611fed81612b30565b611fed81612b1f565b611fed61273282612b1f565b612b86565b6000612743828561210a565b602082019150612753828461210a565b5060200192915050565b6000610963828461211b565b6000612775828a61210a565b6020820191506127858289612726565b6001820191506127958288611fdc565b6014820191506127a58287611fdc565b6014820191506127b5828661210a565b6020820191506127c5828561210a565b6020820191506127d5828461210a565b50602001979650505050505050565b60208101610bfb8284611ff3565b606081016128008286611ff3565b61280d6020830185611ff3565b6117876040830184612101565b604081016128288285611ff3565b6109636020830184612101565b60208082528101610bf88184611ffc565b60208082528101610bf88184612055565b60208082528101610bf881846120a3565b60208101610bfb82846120f8565b604081016128288285612101565b60208101610bfb828461214a565b60208082528101610bf88184612153565b60208082528101610bfb8161218b565b60208082528101610bfb816121b1565b60208082528101610bfb816121ea565b60208082528101610bfb81612216565b60208082528101610bfb81612240565b60208082528101610bfb81612279565b60208082528101610bfb816122b2565b60208082528101610bfb816122db565b60208082528101610bfb81612323565b60208082528101610bfb8161235c565b60208082528101610bfb81612389565b60208082528101610bfb816123c2565b60208082528101610bfb816123fb565b60208082528101610bfb81612425565b60208082528101610bfb81612456565b60208082528101610bfb81612499565b60208082528101610bfb816124c3565b60208082528101610bfb816124ed565b60208082528101610bfb8161253d565b60208082528101610bfb8161256d565b60208082528101610bfb81612596565b60208082528101610bfb816125e2565b60208082528101610bfb81612610565b60208082528101610bfb81612662565b60208101610bfb8284612101565b60608101612a3f8286612101565b612a4c6020830185612101565b6117876040830184612714565b60c08101612a678289612101565b612a746020830188612101565b612a816040830187612101565b612a8e606083018661270b565b612a9b60808301856120f8565b612aa860a083018461271d565b979650505050505050565b60608101612ac1828661271d565b61280d6020830185612101565b60200190565b60009081526020902090565b5190565b5490565b60010190565b90815260200190565b6000610bfb82612b07565b151590565b6001600160a01b031690565b6001600160f01b031690565b60ff1690565b6000610bfb82612af7565b6000610bfb82612b13565b60005b83811015612b56578181015183820152602001612b3e565b838111156105aa5750506000910152565b6000610bfb61211683610494565b6000610bfb826000610bfb82612bad565b6000610bfb82612ba7565b6000610bfb8254612b67565b601f01601f191690565b60f81b90565b60601b90565b612bbc81612af7565b81146115ea57600080fd5b612bbc81612b02565b612bbc81610494565b612bbc81612b1f56fea365627a7a723158200dfb3e06c3cb37079851ef4ebb60b603ca03e591e2736b87fa908d68d042d6576c6578706572696d656e74616cf564736f6c634300050b00407bea13895fa79d2831e0a9e28edede30099005a50d652d8957cf8a607ee6ca4a",
  "devdoc": {
    "methods": {
      "airDroppedStake(uint256,uint8,uint256,uint256,uint256,bytes32[])": {
        "details": "Make a preapproved stake for the user, this is a presigned voucher that the user can redeem either from     an airdrop or a compensation program.     Only 1 of each type is allowed per user. The proof must match the root hash",
        "params": {
          "amount": "Number of tokens to stake in 1e18",
          "duration": "Number of seconds this stake will be held for",
          "index": "Number that is zero base index of the stake in the payout entry",
          "merkleProof": "Array of proofs for that amount",
          "rate": "Rate(0.3 is 30%) of reward for this stake in 1e18, uint240 to fit the bool and type in struct Stake",
          "stakeType": "Number that represent the type of the stake, must not be 0 which is user stake"
        }
      },
      "airDroppedStakeClaimed(address,uint8)": {
        "details": "Has the airdropped stake already been claimed"
      },
      "claimGovernance()": {
        "details": "Claim Governance of the contract to a new account (`newGovernor`). Can only be called by the new Governor."
      },
      "durationRewardRate(uint256)": {
        "details": "Find the rate that corresponds to a given duration",
        "params": {
          "_duration": "Number of seconds"
        }
      },
      "exit()": {
        "details": "Exit out of all possible stakes"
      },
      "getAllStakes(address)": {
        "details": "Return all the stakes paid and unpaid for a given user",
        "params": {
          "account": "Address of the account that we want to look up"
        }
      },
      "governor()": {
        "details": "Returns the address of the current Governor."
      },
      "initialize(address,uint256[],uint256[])": {
        "details": "Initialize the contracts, sets up durations, rates, and preApprover     for preApproved contracts can only be called once",
        "params": {
          "_durations": "Array of allowed durations in seconds",
          "_rates": "Array of rates(0.3 is 30%) that correspond to the allowed              durations in 1e18 precision",
          "_stakingToken": "Address of the token that we are staking"
        }
      },
      "isGovernor()": {
        "details": "Returns true if the caller is the current Governor."
      },
      "setAirDropRoot(uint8,bytes32,uint256)": {
        "details": "Set air drop root for a specific stake type",
        "params": {
          "_proofDepth": "Depth of the Merklke Tree",
          "_rootHash": "Root hash of the Merkle Tree",
          "_stakeType": "Type of staking must be greater than 0"
        }
      },
      "setDurationRates(uint256[],uint256[])": {
        "details": "Set new durations and rates will not effect existing stakes",
        "params": {
          "_durations": "Array of durations in seconds",
          "_rates": "Array of rates that corresponds to the durations (0.01 is 1%) in 1e18"
        }
      },
      "stake(uint256,uint256)": {
        "details": "Stake an approved amount of staking token into the contract.     User must have already approved the contract for specified amount.",
        "params": {
          "amount": "Number of tokens to stake in 1e18",
          "duration": "Number of seconds this stake will be held for"
        }
      },
      "stakeWithSender(address,uint256,uint256)": {
        "details": "Stake an approved amount of staking token into the contract. This function     can only be called by OGN token contract.",
        "params": {
          "amount": "Number of tokens to stake in 1e18",
          "duration": "Number of seconds this stake will be held for",
          "staker": "Address of the account that is creating the stake"
        }
      },
      "totalCurrentHoldings(address)": {
        "details": "Calculate all current holdings of a user: staked value + prorated rewards",
        "params": {
          "account": "Address of the account that we want to look up"
        }
      },
      "totalExpectedRewards(address)": {
        "details": "Calculate all the rewards a user can expect to receive.",
        "params": {
          "account": "Address of the account that we want to look up"
        }
      },
      "totalStaked(address)": {
        "details": "Calculate all the staked value a user has put into the contract,     rewards not included",
        "params": {
          "account": "Address of the account that we want to look up"
        }
      },
      "transferGovernance(address)": {
        "details": "Transfers Governance of the contract to a new account (`newGovernor`). Can only be called by the current Governor. Must be claimed for this to complete",
        "params": {
          "_newGovernor": "Address of the new Governor"
        }
      }
    }
  },
  "userdoc": {
    "methods": {}
  }
}