{
  "address": "0x13Cce8457Bd81b6935E760599dc523a95B9527e8",
  "abi": [
    {
      "constant": true,
      "inputs": [
        {
          "internalType": "address",
          "name": "account",
          "type": "address"
        }
      ],
      "name": "getAllStakes",
      "outputs": [
        {
          "components": [
            {
              "internalType": "uint256",
              "name": "amount",
              "type": "uint256"
            },
            {
              "internalType": "uint256",
              "name": "end",
              "type": "uint256"
            },
            {
              "internalType": "uint256",
              "name": "duration",
              "type": "uint256"
            },
            {
              "internalType": "uint240",
              "name": "rate",
              "type": "uint240"
            },
            {
              "internalType": "bool",
              "name": "paid",
              "type": "bool"
            },
            {
              "internalType": "uint8",
              "name": "stakeType",
              "type": "uint8"
            }
          ],
          "internalType": "struct SingleAssetStaking.Stake[]",
          "name": "",
          "type": "tuple[]"
        }
      ],
      "payable": false,
      "stateMutability": "view",
      "type": "function"
    },
    {
      "constant": true,
      "inputs": [],
      "name": "governor",
      "outputs": [
        {
          "internalType": "address",
          "name": "",
          "type": "address"
        }
      ],
      "payable": false,
      "stateMutability": "view",
      "type": "function"
    },
    {
      "constant": true,
      "inputs": [],
      "name": "totalOutstanding",
      "outputs": [
        {
          "internalType": "uint256",
          "name": "",
          "type": "uint256"
        }
      ],
      "payable": false,
      "stateMutability": "view",
      "type": "function"
    },
    {
      "constant": false,
      "inputs": [
        {
          "internalType": "bool",
          "name": "_paused",
          "type": "bool"
        }
      ],
      "name": "setPaused",
      "outputs": [],
      "payable": false,
      "stateMutability": "nonpayable",
      "type": "function"
    },
    {
      "constant": false,
      "inputs": [
        {
          "internalType": "uint256[]",
          "name": "_durations",
          "type": "uint256[]"
        },
        {
          "internalType": "uint256[]",
          "name": "_rates",
          "type": "uint256[]"
        }
      ],
      "name": "setDurationRates",
      "outputs": [],
      "payable": false,
      "stateMutability": "nonpayable",
      "type": "function"
    },
    {
      "constant": false,
      "inputs": [
        {
          "internalType": "uint8",
          "name": "_stakeType",
          "type": "uint8"
        },
        {
          "internalType": "bytes32",
          "name": "_rootHash",
          "type": "bytes32"
        },
        {
          "internalType": "uint256",
          "name": "_proofDepth",
          "type": "uint256"
        }
      ],
      "name": "setAirDropRoot",
      "outputs": [],
      "payable": false,
      "stateMutability": "nonpayable",
      "type": "function"
    },
    {
      "constant": false,
      "inputs": [
        {
          "internalType": "uint256",
          "name": "index",
          "type": "uint256"
        },
        {
          "internalType": "uint8",
          "name": "stakeType",
          "type": "uint8"
        },
        {
          "internalType": "uint256",
          "name": "duration",
          "type": "uint256"
        },
        {
          "internalType": "uint256",
          "name": "rate",
          "type": "uint256"
        },
        {
          "internalType": "uint256",
          "name": "amount",
          "type": "uint256"
        },
        {
          "internalType": "bytes32[]",
          "name": "merkleProof",
          "type": "bytes32[]"
        }
      ],
      "name": "airDroppedStake",
      "outputs": [],
      "payable": false,
      "stateMutability": "nonpayable",
      "type": "function"
    },
    {
      "constant": true,
      "inputs": [],
      "name": "paused",
      "outputs": [
        {
          "internalType": "bool",
          "name": "",
          "type": "bool"
        }
      ],
      "payable": false,
      "stateMutability": "view",
      "type": "function"
    },
    {
      "constant": false,
      "inputs": [],
      "name": "claimGovernance",
      "outputs": [],
      "payable": false,
      "stateMutability": "nonpayable",
      "type": "function"
    },
    {
      "constant": false,
      "inputs": [
        {
          "internalType": "address",
          "name": "staker",
          "type": "address"
        },
        {
          "internalType": "uint256",
          "name": "amount",
          "type": "uint256"
        },
        {
          "internalType": "uint256",
          "name": "duration",
          "type": "uint256"
        }
      ],
      "name": "stakeWithSender",
      "outputs": [
        {
          "internalType": "bool",
          "name": "",
          "type": "bool"
        }
      ],
      "payable": false,
      "stateMutability": "nonpayable",
      "type": "function"
    },
    {
      "constant": true,
      "inputs": [],
      "name": "stakingToken",
      "outputs": [
        {
          "internalType": "contract IERC20",
          "name": "",
          "type": "address"
        }
      ],
      "payable": false,
      "stateMutability": "view",
      "type": "function"
    },
    {
      "constant": false,
      "inputs": [
        {
          "internalType": "uint256",
          "name": "amount",
          "type": "uint256"
        },
        {
          "internalType": "uint256",
          "name": "duration",
          "type": "uint256"
        }
      ],
      "name": "stake",
      "outputs": [],
      "payable": false,
      "stateMutability": "nonpayable",
      "type": "function"
    },
    {
      "constant": true,
      "inputs": [
        {
          "internalType": "uint256",
          "name": "_duration",
          "type": "uint256"
        }
      ],
      "name": "durationRewardRate",
      "outputs": [
        {
          "internalType": "uint256",
          "name": "",
          "type": "uint256"
        }
      ],
      "payable": false,
      "stateMutability": "view",
      "type": "function"
    },
    {
      "constant": true,
      "inputs": [
        {
          "internalType": "address",
          "name": "account",
          "type": "address"
        }
      ],
      "name": "totalCurrentHoldings",
      "outputs": [
        {
          "internalType": "uint256",
          "name": "total",
          "type": "uint256"
        }
      ],
      "payable": false,
      "stateMutability": "view",
      "type": "function"
    },
    {
      "constant": true,
      "inputs": [
        {
          "internalType": "address",
          "name": "account",
          "type": "address"
        }
      ],
      "name": "totalStaked",
      "outputs": [
        {
          "internalType": "uint256",
          "name": "total",
          "type": "uint256"
        }
      ],
      "payable": false,
      "stateMutability": "view",
      "type": "function"
    },
    {
      "constant": true,
      "inputs": [
        {
          "internalType": "address",
          "name": "account",
          "type": "address"
        },
        {
          "internalType": "uint8",
          "name": "stakeType",
          "type": "uint8"
        }
      ],
      "name": "airDroppedStakeClaimed",
      "outputs": [
        {
          "internalType": "bool",
          "name": "",
          "type": "bool"
        }
      ],
      "payable": false,
      "stateMutability": "view",
      "type": "function"
    },
    {
      "constant": true,
      "inputs": [
        {
          "internalType": "address",
          "name": "",
          "type": "address"
        },
        {
          "internalType": "uint256",
          "name": "",
          "type": "uint256"
        }
      ],
      "name": "userStakes",
      "outputs": [
        {
          "internalType": "uint256",
          "name": "amount",
          "type": "uint256"
        },
        {
          "internalType": "uint256",
          "name": "end",
          "type": "uint256"
        },
        {
          "internalType": "uint256",
          "name": "duration",
          "type": "uint256"
        },
        {
          "internalType": "uint240",
          "name": "rate",
          "type": "uint240"
        },
        {
          "internalType": "bool",
          "name": "paid",
          "type": "bool"
        },
        {
          "internalType": "uint8",
          "name": "stakeType",
          "type": "uint8"
        }
      ],
      "payable": false,
      "stateMutability": "view",
      "type": "function"
    },
    {
      "constant": true,
      "inputs": [
        {
          "internalType": "uint256",
          "name": "",
          "type": "uint256"
        }
      ],
      "name": "durations",
      "outputs": [
        {
          "internalType": "uint256",
          "name": "",
          "type": "uint256"
        }
      ],
      "payable": false,
      "stateMutability": "view",
      "type": "function"
    },
    {
      "constant": true,
      "inputs": [],
      "name": "getAllDurations",
      "outputs": [
        {
          "internalType": "uint256[]",
          "name": "",
          "type": "uint256[]"
        }
      ],
      "payable": false,
      "stateMutability": "view",
      "type": "function"
    },
    {
      "constant": true,
      "inputs": [],
      "name": "isGovernor",
      "outputs": [
        {
          "internalType": "bool",
          "name": "",
          "type": "bool"
        }
      ],
      "payable": false,
      "stateMutability": "view",
      "type": "function"
    },
    {
      "constant": false,
      "inputs": [
        {
          "internalType": "address",
          "name": "_newGovernor",
          "type": "address"
        }
      ],
      "name": "transferGovernance",
      "outputs": [],
      "payable": false,
      "stateMutability": "nonpayable",
      "type": "function"
    },
    {
      "constant": true,
      "inputs": [
        {
          "internalType": "uint256",
          "name": "",
          "type": "uint256"
        }
      ],
      "name": "rates",
      "outputs": [
        {
          "internalType": "uint256",
          "name": "",
          "type": "uint256"
        }
      ],
      "payable": false,
      "stateMutability": "view",
      "type": "function"
    },
    {
      "constant": true,
      "inputs": [
        {
          "internalType": "uint8",
          "name": "",
          "type": "uint8"
        }
      ],
      "name": "dropRoots",
      "outputs": [
        {
          "internalType": "bytes32",
          "name": "hash",
          "type": "bytes32"
        },
        {
          "internalType": "uint256",
          "name": "depth",
          "type": "uint256"
        }
      ],
      "payable": false,
      "stateMutability": "view",
      "type": "function"
    },
    {
      "constant": false,
      "inputs": [
        {
          "internalType": "address",
          "name": "_stakingToken",
          "type": "address"
        },
        {
          "internalType": "uint256[]",
          "name": "_durations",
          "type": "uint256[]"
        },
        {
          "internalType": "uint256[]",
          "name": "_rates",
          "type": "uint256[]"
        }
      ],
      "name": "initialize",
      "outputs": [],
      "payable": false,
      "stateMutability": "nonpayable",
      "type": "function"
    },
    {
      "constant": false,
      "inputs": [],
      "name": "exit",
      "outputs": [],
      "payable": false,
      "stateMutability": "nonpayable",
      "type": "function"
    },
    {
      "constant": true,
      "inputs": [
        {
          "internalType": "address",
          "name": "account",
          "type": "address"
        }
      ],
      "name": "totalExpectedRewards",
      "outputs": [
        {
          "internalType": "uint256",
          "name": "",
          "type": "uint256"
        }
      ],
      "payable": false,
      "stateMutability": "view",
      "type": "function"
    },
    {
      "constant": true,
      "inputs": [],
      "name": "getAllRates",
      "outputs": [
        {
          "internalType": "uint256[]",
          "name": "",
          "type": "uint256[]"
        }
      ],
      "payable": false,
      "stateMutability": "view",
      "type": "function"
    },
    {
      "anonymous": false,
      "inputs": [
        {
          "indexed": true,
          "internalType": "address",
          "name": "user",
          "type": "address"
        },
        {
          "indexed": false,
          "internalType": "uint256",
          "name": "amount",
          "type": "uint256"
        }
      ],
      "name": "Staked",
      "type": "event"
    },
    {
      "anonymous": false,
      "inputs": [
        {
          "indexed": true,
          "internalType": "address",
          "name": "user",
          "type": "address"
        },
        {
          "indexed": false,
          "internalType": "uint256",
          "name": "amount",
          "type": "uint256"
        }
      ],
      "name": "Withdrawn",
      "type": "event"
    },
    {
      "anonymous": false,
      "inputs": [
        {
          "indexed": true,
          "internalType": "address",
          "name": "user",
          "type": "address"
        },
        {
          "indexed": false,
          "internalType": "bool",
          "name": "yes",
          "type": "bool"
        }
      ],
      "name": "Paused",
      "type": "event"
    },
    {
      "anonymous": false,
      "inputs": [
        {
          "indexed": true,
          "internalType": "address",
          "name": "user",
          "type": "address"
        },
        {
          "indexed": false,
          "internalType": "uint256[]",
          "name": "durations",
          "type": "uint256[]"
        }
      ],
      "name": "NewDurations",
      "type": "event"
    },
    {
      "anonymous": false,
      "inputs": [
        {
          "indexed": true,
          "internalType": "address",
          "name": "user",
          "type": "address"
        },
        {
          "indexed": false,
          "internalType": "uint256[]",
          "name": "rates",
          "type": "uint256[]"
        }
      ],
      "name": "NewRates",
      "type": "event"
    },
    {
      "anonymous": false,
      "inputs": [
        {
          "indexed": false,
          "internalType": "uint8",
          "name": "stakeType",
          "type": "uint8"
        },
        {
          "indexed": false,
          "internalType": "bytes32",
          "name": "rootHash",
          "type": "bytes32"
        },
        {
          "indexed": false,
          "internalType": "uint256",
          "name": "proofDepth",
          "type": "uint256"
        }
      ],
      "name": "NewAirDropRootHash",
      "type": "event"
    },
    {
      "anonymous": false,
      "inputs": [
        {
          "indexed": true,
          "internalType": "address",
          "name": "previousGovernor",
          "type": "address"
        },
        {
          "indexed": true,
          "internalType": "address",
          "name": "newGovernor",
          "type": "address"
        }
      ],
      "name": "PendingGovernorshipTransfer",
      "type": "event"
    },
    {
      "anonymous": false,
      "inputs": [
        {
          "indexed": true,
          "internalType": "address",
          "name": "previousGovernor",
          "type": "address"
        },
        {
          "indexed": true,
          "internalType": "address",
          "name": "newGovernor",
          "type": "address"
        }
      ],
      "name": "GovernorshipTransferred",
      "type": "event"
    }
  ],
  "transactionHash": "0xd60e9ea5df43565ea051d58219ad172298d0bb7ae2ceba9a6845883572003e81",
  "args": [],
  "solcInputHash": "a0c4b4d689b13a774a7e3a992025a384",
  "bytecode": "0x608060405262000018336001600160e01b036200007116565b6200002b6001600160e01b036200008416565b6001600160a01b031660006001600160a01b03167fc7c0c772add429241571afb3805861fb3cfa2af374534088b76cdb4325a87e9a60405160405180910390a362000098565b60008051602062002c7283398151915255565b60008051602062002c728339815191525490565b612bca80620000a86000396000f3fe608060405234801561001057600080fd5b50600436106101a95760003560e01c806382d78111116100f9578063d38bfff411610097578063e9e518a011610071578063e9e518a01461038f578063e9fad8ee146103a2578063ea1d81cb146103aa578063ff5a20bf146103bd576101a9565b8063d38bfff414610348578063dd418ae21461035b578063df962bd61461036e576101a9565b8063b5d5b5fa116100d3578063b5d5b5fa146102f3578063bc20a7af14610318578063bc2ee5a61461032b578063c7af335214610340576101a9565b806382d78111146102ba5780639bfd8d61146102cd578063a5149d54146102e0576101a9565b80634f2b529d116101665780635e99cbe9116101405780635e99cbe91461026c57806372f702f31461027f5780637b0472f014610294578063825e0e80146102a7576101a9565b80634f2b529d1461023c5780635c975abb1461024f5780635d36b19014610264576101a9565b806304238994146101ae5780630c340a24146101d757806316078d04146101ec57806316c38b3c14610201578063334e7ed214610216578063389b21ce14610229575b600080fd5b6101c16101bc366004611c4e565b6103c5565b6040516101ce919061280d565b60405180910390f35b6101df610487565b6040516101ce91906127bc565b6101f4610497565b6040516101ce91906129fb565b61021461020f366004611e1a565b61049d565b005b610214610224366004611daa565b610519565b610214610237366004611f74565b6105b0565b61021461024a366004611eb1565b610650565b6102576108db565b6040516101ce9190612840565b6102146108e4565b61025761027a366004611d2d565b610927565b61028761096a565b6040516101ce919061285c565b6102146102a2366004611e92565b610979565b6101f46102b5366004611e56565b610a29565b6101f46102c8366004611c4e565b610a43565b6101f46102db366004611c4e565b610b62565b6102576102ee366004611d7a565b610bec565b610306610301366004611cf3565b610c01565b6040516101ce96959493929190612a09565b6101f4610326366004611e56565b610c63565b610333610c81565b6040516101ce919061281e565b610257610cd9565b610214610356366004611c4e565b610cfc565b6101f4610369366004611e56565b610d73565b61038161037c366004611f56565b610d80565b6040516101ce92919061284e565b61021461039d366004611c6c565b610d99565b610214610eca565b6101f46103b8366004611c4e565b6110c0565b6103336110e1565b6001600160a01b0381166000908152603860209081526040808320805482518185028101850190935280835260609492939192909184015b8282101561047b5760008481526020908190206040805160c081018252600486029092018054835260018082015484860152600282015492840192909252600301546001600160f01b038116606084015260ff600160f01b8204811615156080850152600160f81b9091041660a083015290835290920191016103fd565b5050505090505b919050565b6000610491611137565b90505b90565b60365481565b6104a5610cd9565b6104ca5760405162461bcd60e51b81526004016104c1906128cb565b60405180910390fd5b6037805460ff1916821515179081905560405133917fe8699cf681560fd07de85543bd994263f4557bdc5179dd702f256d15fd083e1d9161050e9160ff1690612840565b60405180910390a250565b610521610cd9565b61053d5760405162461bcd60e51b81526004016104c1906128cb565b6105aa8484808060200260200160405190810160405280939291908181526020018383602002808284376000920191909152505060408051602080880282810182019093528782529093508792508691829185019084908082843760009201919091525061115c92505050565b50505050565b6105b8610cd9565b6105d45760405162461bcd60e51b81526004016104c1906128cb565b60ff83166105f45760405162461bcd60e51b81526004016104c19061288b565b60ff831660009081526039602052604090819020838155600101829055517f1ac9c006454d2d601a481473a37c95bf489c5923bd7c2a701757d4016a0f022d9061064390859085908590612a63565b60405180910390a1505050565b60ff86166106705760405162461bcd60e51b81526004016104c19061288b565b6001600160f01b0384106106965760405162461bcd60e51b81526004016104c19061290b565b600281900a87106106b95760405162461bcd60e51b81526004016104c1906128db565b60ff86166000908152603960205260409020600181015482146106ee5760405162461bcd60e51b81526004016104c1906129ab565b6000888830338a8a8a60405160200161070d9796959493929190612741565b60408051601f19818403018152919052805160209091012090508860005b61ffff81168511156107d95781600116600114156107895785858261ffff1681811061075357fe5b905060200201358360405160200161076c92919061270f565b6040516020818303038152906040528051906020012092506107cb565b8286868361ffff1681811061079a57fe5b905060200201356040516020016107b292919061270f565b6040516020818303038152906040528051906020012092505b60028204915060010161072b565b50825482146107fa5760405162461bcd60e51b81526004016104c1906129cb565b610804338a61127f565b156108215760405162461bcd60e51b81526004016104c19061296b565b61082e338a8a8a8a6112f4565b50506036546033546040516370a0823160e01b81529192506001600160a01b0316906370a08231906108649030906004016127bc565b60206040518083038186803b15801561087c57600080fd5b505afa158015610890573d6000803e3d6000fd5b505050506040513d601f19601f820116820180604052506108b49190810190611e74565b10156108d25760405162461bcd60e51b81526004016104c19061299b565b50505050505050565b60375460ff1681565b6108ec61153d565b6001600160a01b0316336001600160a01b03161461091c5760405162461bcd60e51b81526004016104c1906129db565b61092533611562565b565b6033546000906001600160a01b031633146109545760405162461bcd60e51b81526004016104c1906128eb565b61095f8484846115db565b5060015b9392505050565b6033546001600160a01b031681565b6109843383836115db565b6036546033546040516370a0823160e01b81526001600160a01b03909116906370a08231906109b79030906004016127bc565b60206040518083038186803b1580156109cf57600080fd5b505afa1580156109e3573d6000803e3d6000fd5b505050506040513d601f19601f82011682018060405250610a079190810190611e74565b1015610a255760405162461bcd60e51b81526004016104c19061299b565b5050565b6000610a348261165d565b6001600160f01b031692915050565b6001600160a01b0381166000908152603860205260408120815b8154811015610b5b576000828281548110610a7457fe5b9060005260206000209060040201905080600301601e9054906101000a900460ff1615610aa15750610b53565b4281600101541015610acd57610ac6610ab9826116bb565b859063ffffffff6116e116565b9350610b51565b610b4e610ab9610b40610b158460020154610b09610af842886001015461170690919063ffffffff16565b60028801549063ffffffff61170616565b9063ffffffff61174816565b60038501548554610b34916001600160f01b031663ffffffff61177d16565b9063ffffffff61177d16565b83549063ffffffff6116e116565b93505b505b600101610a5d565b5050919050565b6001600160a01b0381166000908152603860205260408120815b8154811015610b5b57818181548110610b9157fe5b9060005260206000209060040201600301601e9054906101000a900460ff16610be457610be1828281548110610bc357fe5b6000918252602090912060049091020154849063ffffffff6116e116565b92505b600101610b7c565b6000610bf8838361127f565b90505b92915050565b60386020528160005260406000208181548110610c1a57fe5b6000918252602090912060049091020180546001820154600283015460039093015491945092506001600160f01b0381169060ff600160f01b8204811691600160f81b90041686565b60348181548110610c7057fe5b600091825260209091200154905081565b60606034805480602002602001604051908101604052809291908181526020018280548015610ccf57602002820191906000526020600020905b815481526020019060010190808311610cbb575b5050505050905090565b6000610ce3611137565b6001600160a01b0316336001600160a01b031614905090565b610d04610cd9565b610d205760405162461bcd60e51b81526004016104c1906128cb565b610d2981611792565b806001600160a01b0316610d3b611137565b6001600160a01b03167fa39cc5eb22d0f34d8beaefee8a3f17cc229c1a1d1ef87a5ad47313487b1c4f0d60405160405180910390a350565b60358181548110610c7057fe5b6039602052600090815260409020805460019091015482565b610da1610cd9565b610dbd5760405162461bcd60e51b81526004016104c1906128cb565b600054610100900460ff1680610dd65750610dd66117b6565b80610de4575060005460ff16155b610e005760405162461bcd60e51b81526004016104c19061298b565b600054610100900460ff16158015610e2b576000805460ff1961ff0019909116610100171660011790555b603380546001600160a01b0319166001600160a01b0388161790556040805160208681028083018201909352868252610eb0928891889182918501908490808284376000920191909152505060408051602080890282810182019093528882529093508892508791829185019084908082843760009201919091525061115c92505050565b8015610ec2576000805461ff00191690555b505050505050565b3360009081526038602052604090208054610ef75760405162461bcd60e51b81526004016104c19061297b565b80546000905b6000836001830381548110610f0e57fe5b90600052602060002090600402019050428160010154108015610f3c57506003810154600160f01b900460ff165b15610f475750610f8f565b4281600101541015610f845760038101805460ff60f01b1916600160f01b179055610f81610f74826116bb565b849063ffffffff6116e116565b92505b506000190180610efd575b60008211610faf5760405162461bcd60e51b81526004016104c19061294b565b603654610fc2908363ffffffff61170616565b60365560405133907f7084f5476618d8e60b11ef0d7d3f06914655adb8793e28ff7f018d4c76d505d590610ff79085906129fb565b60405180910390a260335461101c906001600160a01b0316338463ffffffff6117bc16565b50506036546033546040516370a0823160e01b81529192506001600160a01b0316906370a08231906110529030906004016127bc565b60206040518083038186803b15801561106a57600080fd5b505afa15801561107e573d6000803e3d6000fd5b505050506040513d601f19601f820116820180604052506110a29190810190611e74565b10156109255760405162461bcd60e51b81526004016104c19061299b565b6001600160a01b0381166000908152603860205260408120610bfb9061181a565b60606035805480602002602001604051908101604052809291908181526020018280548015610ccf5760200282019190600052602060002090815481526020019060010190808311610cbb575050505050905090565b7f7bea13895fa79d2831e0a9e28edede30099005a50d652d8957cf8a607ee6ca4a5490565b815181511461117d5760405162461bcd60e51b81526004016104c19061291b565b60005b81518110156111ce576000196001600160f01b03168282815181106111a157fe5b6020026020010151106111c65760405162461bcd60e51b81526004016104c19061290b565b600101611180565b5080516111e2906035906020840190611b04565b5081516111f6906034906020850190611b04565b50336001600160a01b03167fa804368c7f1a6216d92d17d9753b923dfc3da14ae33d231e8d79e39202e249c36035604051611231919061282f565b60405180910390a2336001600160a01b03167f180120279c2eb356244609197b5b64c0fbabd60f8d073b75aba771a296bb63d46034604051611273919061282f565b60405180910390a25050565b6001600160a01b0382166000908152603860205260408120815b81548110156112e9578360ff168282815481106112b257fe5b6000918252602090912060049091020160030154600160f81b900460ff1614156112e157600192505050610bfb565b600101611299565b506000949350505050565b60375460ff16156113175760405162461bcd60e51b81526004016104c19061293b565b6001600160a01b038516600090815260386020526040812090611340428663ffffffff6116e116565b825490915061010081106113665760405162461bcd60e51b81526004016104c19061287b565b82546001016113758482611b4f565b505b80158015906113a557508183600183038154811061139157fe5b906000526020600020906004020160010154115b1561146f578260018203815481106113b957fe5b90600052602060002090600402018382815481106113d357fe5b6000918252602090912082546004909202019081556001808301549082015560028083015490820155600391820180549290910180546001600160f01b0319166001600160f01b0390931692909217808355815460ff600160f01b918290048116151590910260ff60f01b19909216919091178084559154600160f81b90819004909116026001600160f81b0390911617905560001901611377565b600083828154811061147d57fe5b600091825260209091206004909102016003810180546001600160f01b0319166001600160f01b038916176001600160f81b0316600160f81b60ff8c1602179055600181018490556002810188905585815590506114ec6114dd826116bb565b6036549063ffffffff6116e116565b6036556040516001600160a01b038a16907f9e71bc8eea02a63969f509818f2dafb9254532904319f9dbda79b67bd34a5f3d9061152a9088906129fb565b60405180910390a2505050505050505050565b7f44c4d30b2eaad5130ad70c3ba6972730566f3e6359ab83e800d905c61b1c51db5490565b6001600160a01b0381166115885760405162461bcd60e51b81526004016104c19061292b565b806001600160a01b031661159a611137565b6001600160a01b03167fc7c0c772add429241571afb3805861fb3cfa2af374534088b76cdb4325a87e9a60405160405180910390a36115d881611891565b50565b600082116115fb5760405162461bcd60e51b81526004016104c1906128ab565b60006116068261165d565b90506000816001600160f01b0316116116315760405162461bcd60e51b81526004016104c19061289b565b61163f8460008484876112f4565b6033546105aa906001600160a01b031685308663ffffffff6118b516565b6000805b6034548110156116b2576034818154811061167857fe5b90600052602060002001548314156116aa576035818154811061169757fe5b9060005260206000200154915050610482565b600101611661565b50600092915050565b60038101548154600091610bfb91610b40916001600160f01b031663ffffffff61177d16565b600082820183811015610bf85760405162461bcd60e51b81526004016104c1906128bb565b6000610bf883836040518060400160405280601e81526020017f536166654d6174683a207375627472616374696f6e206f766572666c6f7700008152506118d9565b60008061176384670de0b6b3a764000063ffffffff61190516565b9050611775818463ffffffff61193f16565b949350505050565b6000610bf88383670de0b6b3a7640000611981565b7f44c4d30b2eaad5130ad70c3ba6972730566f3e6359ab83e800d905c61b1c51db55565b303b1590565b60405161181590849063a9059cbb60e01b906117de90869086906024016127f2565b60408051601f198184030181529190526020810180516001600160e01b03166001600160e01b0319909316929092179091526119af565b505050565b6000805b825481101561188b57600083828154811061183557fe5b9060005260206000209060040201905080600301601e9054906101000a900460ff16611882576003810154815461187f91610f7491906001600160f01b031663ffffffff61177d16565b92505b5060010161181e565b50919050565b7f7bea13895fa79d2831e0a9e28edede30099005a50d652d8957cf8a607ee6ca4a55565b6040516105aa9085906323b872dd60e01b906117de908790879087906024016127ca565b600081848411156118fd5760405162461bcd60e51b81526004016104c1919061286a565b505050900390565b60008261191457506000610bfb565b8282028284828161192157fe5b0414610bf85760405162461bcd60e51b81526004016104c19061295b565b6000610bf883836040518060400160405280601a81526020017f536166654d6174683a206469766973696f6e206279207a65726f000000000000815250611a94565b600080611994858563ffffffff61190516565b90506119a6818463ffffffff61193f16565b95945050505050565b6119c1826001600160a01b0316611acb565b6119dd5760405162461bcd60e51b81526004016104c1906129eb565b60006060836001600160a01b0316836040516119f99190612735565b6000604051808303816000865af19150503d8060008114611a36576040519150601f19603f3d011682016040523d82523d6000602084013e611a3b565b606091505b509150915081611a5d5760405162461bcd60e51b81526004016104c1906128fb565b8051156105aa5780806020019051611a789190810190611e38565b6105aa5760405162461bcd60e51b81526004016104c1906129bb565b60008183611ab55760405162461bcd60e51b81526004016104c1919061286a565b506000838581611ac157fe5b0495945050505050565b6000813f7fc5d2460186f7233c927e7db2dcc703c0e500b653ca82273b7bfad8045d85a470818114801590611775575050151592915050565b828054828255906000526020600020908101928215611b3f579160200282015b82811115611b3f578251825591602001919060010190611b24565b50611b4b929150611b7b565b5090565b815481835581811115611815576004028160040283600052602060002091820191016118159190611b95565b61049491905b80821115611b4b5760008155600101611b81565b61049491905b80821115611b4b57600080825560018201819055600282018190556003820155600401611b9b565b8035610bfb81612b58565b60008083601f840112611be057600080fd5b50813567ffffffffffffffff811115611bf857600080fd5b602083019150836020820283011115611c1057600080fd5b9250929050565b8035610bfb81612b6c565b8051610bfb81612b6c565b8035610bfb81612b75565b8051610bfb81612b75565b8035610bfb81612b7e565b600060208284031215611c6057600080fd5b60006117758484611bc3565b600080600080600060608688031215611c8457600080fd5b6000611c908888611bc3565b955050602086013567ffffffffffffffff811115611cad57600080fd5b611cb988828901611bce565b9450945050604086013567ffffffffffffffff811115611cd857600080fd5b611ce488828901611bce565b92509250509295509295909350565b60008060408385031215611d0657600080fd5b6000611d128585611bc3565b9250506020611d2385828601611c2d565b9150509250929050565b600080600060608486031215611d4257600080fd5b6000611d4e8686611bc3565b9350506020611d5f86828701611c2d565b9250506040611d7086828701611c2d565b9150509250925092565b60008060408385031215611d8d57600080fd5b6000611d998585611bc3565b9250506020611d2385828601611c43565b60008060008060408587031215611dc057600080fd5b843567ffffffffffffffff811115611dd757600080fd5b611de387828801611bce565b9450945050602085013567ffffffffffffffff811115611e0257600080fd5b611e0e87828801611bce565b95989497509550505050565b600060208284031215611e2c57600080fd5b60006117758484611c17565b600060208284031215611e4a57600080fd5b60006117758484611c22565b600060208284031215611e6857600080fd5b60006117758484611c2d565b600060208284031215611e8657600080fd5b60006117758484611c38565b60008060408385031215611ea557600080fd5b6000611d128585611c2d565b600080600080600080600060c0888a031215611ecc57600080fd5b6000611ed88a8a611c2d565b9750506020611ee98a828b01611c43565b9650506040611efa8a828b01611c2d565b9550506060611f0b8a828b01611c2d565b9450506080611f1c8a828b01611c2d565b93505060a088013567ffffffffffffffff811115611f3957600080fd5b611f458a828b01611bce565b925092505092959891949750929550565b600060208284031215611f6857600080fd5b60006117758484611c43565b600080600060608486031215611f8957600080fd5b6000611d4e8686611c43565b6000611fa1838361267c565b505060c00190565b6000611fb583836120e2565b505060200190565b611fce611fc982612aa7565b612b1a565b82525050565b611fce81612aa7565b6000611fe882612a90565b611ff28185612a9e565b9350611ffd83612a7e565b8060005b8381101561202b5781516120158882611f95565b975061202083612a7e565b925050600101612001565b509495945050505050565b600061204182612a90565b61204b8185612a9e565b935061205683612a7e565b8060005b8381101561202b57815161206e8882611fa9565b975061207983612a7e565b92505060010161205a565b600061208f82612a94565b6120998185612a9e565b93506120a483612a84565b8060005b8381101561202b576120b982612b36565b6120c38882611fa9565b97506120ce83612a98565b9250506001016120a8565b611fce81612ab2565b611fce81610494565b611fce6120f782610494565b610494565b600061210782612a90565b6121118185610482565b9350612121818560208601612ae0565b9290920192915050565b611fce81612ad5565b600061213f82612a90565b6121498185612a9e565b9350612159818560208601612ae0565b61216281612b42565b9093019392505050565b6000612179600a83612a9e565b694d6178207374616b657360b01b815260200192915050565b600061219f601883612a9e565b7f43616e6e6f74206265206e6f726d616c207374616b696e670000000000000000815260200192915050565b60006121d8601083612a9e565b6f24b73b30b634b210323ab930ba34b7b760811b815260200192915050565b6000612204600e83612a9e565b6d043616e6e6f74207374616b6520360941b815260200192915050565b600061222e601b83612a9e565b7f536166654d6174683a206164646974696f6e206f766572666c6f770000000000815260200192915050565b6000612267601a83612a9e565b7f43616c6c6572206973206e6f742074686520476f7665726e6f72000000000000815260200192915050565b60006122a0600d83612a9e565b6c092dcecc2d8d2c840d2dcc8caf609b1b815260200192915050565b60006122c9602683612a9e565b7f4f6e6c7920746f6b656e20636f6e74726163742063616e206d616b65207468698152651cc818d85b1b60d21b602082015260400192915050565b6000612311602083612a9e565b7f5361666545524332303a206c6f772d6c6576656c2063616c6c206661696c6564815260200192915050565b600061234a601183612a9e565b7013585e081c985d1948195e18d959591959607a1b815260200192915050565b6000612377601c83612a9e565b7f4d69736d61746368206475726174696f6e7320616e6420726174657300000000815260200192915050565b60006123b0601a83612a9e565b7f4e657720476f7665726e6f722069732061646472657373283029000000000000815260200192915050565b60006123e9600e83612a9e565b6d14dd185ada5b99c81c185d5cd95960921b815260200192915050565b6000612413601583612a9e565b740416c6c207374616b657320696e206c6f636b2d757605c1b815260200192915050565b6000612444602183612a9e565b7f536166654d6174683a206d756c7469706c69636174696f6e206f766572666c6f8152607760f81b602082015260400192915050565b6000612487600e83612a9e565b6d105b1c9958591e481cdd185ad95960921b815260200192915050565b60006124b1600e83612a9e565b6d139bdd1a1a5b99c81cdd185ad95960921b815260200192915050565b60006124db602e83612a9e565b7f436f6e747261637420696e7374616e63652068617320616c726561647920626581526d195b881a5b9a5d1a585b1a5e995960921b602082015260400192915050565b600061252b601483612a9e565b73496e73756666696369656e74207265776172647360601b815260200192915050565b600061255b600d83612a9e565b6c24b73b30b634b210383937b7b360991b815260200192915050565b6000612584602a83612a9e565b7f5361666545524332303a204552433230206f7065726174696f6e20646964206e8152691bdd081cdd58d8d9595960b21b602082015260400192915050565b60006125d0601283612a9e565b7114dd185ad9481b9bdd08185c1c1c9bdd995960721b815260200192915050565b60006125fe603083612a9e565b7f4f6e6c79207468652070656e64696e6720476f7665726e6f722063616e20636f81526f6d706c6574652074686520636c61696d60801b602082015260400192915050565b6000612650601f83612a9e565b7f5361666545524332303a2063616c6c20746f206e6f6e2d636f6e747261637400815260200192915050565b805160c083019061268d84826120e2565b5060208201516126a060208501826120e2565b5060408201516126b360408501826120e2565b5060608201516126c660608501826126ec565b5060808201516126d960808501826120d9565b5060a08201516105aa60a08501826126f5565b611fce81612ac3565b611fce81612acf565b611fce61270a82612acf565b612b2b565b600061271b82856120eb565b60208201915061272b82846120eb565b5060200192915050565b600061096382846120fc565b600061274d828a6120eb565b60208201915061275d82896126fe565b60018201915061276d8288611fbd565b60148201915061277d8287611fbd565b60148201915061278d82866120eb565b60208201915061279d82856120eb565b6020820191506127ad82846120eb565b50602001979650505050505050565b60208101610bfb8284611fd4565b606081016127d88286611fd4565b6127e56020830185611fd4565b61177560408301846120e2565b604081016128008285611fd4565b61096360208301846120e2565b60208082528101610bf88184611fdd565b60208082528101610bf88184612036565b60208082528101610bf88184612084565b60208101610bfb82846120d9565b6040810161280082856120e2565b60208101610bfb828461212b565b60208082528101610bf88184612134565b60208082528101610bfb8161216c565b60208082528101610bfb81612192565b60208082528101610bfb816121cb565b60208082528101610bfb816121f7565b60208082528101610bfb81612221565b60208082528101610bfb8161225a565b60208082528101610bfb81612293565b60208082528101610bfb816122bc565b60208082528101610bfb81612304565b60208082528101610bfb8161233d565b60208082528101610bfb8161236a565b60208082528101610bfb816123a3565b60208082528101610bfb816123dc565b60208082528101610bfb81612406565b60208082528101610bfb81612437565b60208082528101610bfb8161247a565b60208082528101610bfb816124a4565b60208082528101610bfb816124ce565b60208082528101610bfb8161251e565b60208082528101610bfb8161254e565b60208082528101610bfb81612577565b60208082528101610bfb816125c3565b60208082528101610bfb816125f1565b60208082528101610bfb81612643565b60208101610bfb82846120e2565b60c08101612a1782896120e2565b612a2460208301886120e2565b612a3160408301876120e2565b612a3e60608301866126ec565b612a4b60808301856120d9565b612a5860a08301846126f5565b979650505050505050565b60608101612a7182866126f5565b6127e560208301856120e2565b60200190565b60009081526020902090565b5190565b5490565b60010190565b90815260200190565b6000610bfb82612ab7565b151590565b6001600160a01b031690565b6001600160f01b031690565b60ff1690565b6000610bfb82612aa7565b60005b83811015612afb578181015183820152602001612ae3565b838111156105aa5750506000910152565b6000610bfb6120f783610494565b6000610bfb826000610bfb82612b52565b6000610bfb82612b4c565b6000610bfb8254612b0c565b601f01601f191690565b60f81b90565b60601b90565b612b6181612aa7565b81146115d857600080fd5b612b6181612ab2565b612b6181610494565b612b6181612acf56fea365627a7a723158203b8a45a1f9626792470b52e91b20e9152e303efcdb1c49cbfeeff74029c015c96c6578706572696d656e74616cf564736f6c634300050b00407bea13895fa79d2831e0a9e28edede30099005a50d652d8957cf8a607ee6ca4a",
  "devdoc": {
    "methods": {
      "airDroppedStake(uint256,uint8,uint256,uint256,uint256,bytes32[])": {
        "details": "Make a preapproved stake for the user, this is a presigned voucher that the user can redeem either from     an airdrop or a compensation program.     Only 1 of each type is allowed per user. The proof must match the root hash",
        "params": {
          "amount": "Number of tokens to stake in 1e18",
          "duration": "Number of seconds this stake will be held for",
          "index": "Number that is zero base index of the stake in the payout entry",
          "merkleProof": "Array of proofs for that amount",
          "rate": "Rate(0.3 is 30%) of reward for this stake in 1e18, uint240 to fit the bool and type in struct Stake",
          "stakeType": "Number that represent the type of the stake, must not be 0 which is user stake"
        }
      },
      "airDroppedStakeClaimed(address,uint8)": {
        "details": "Has the airdropped stake already been claimed"
      },
      "claimGovernance()": {
        "details": "Claim Governance of the contract to a new account (`newGovernor`). Can only be called by the new Governor."
      },
      "durationRewardRate(uint256)": {
        "details": "Find the rate that corresponds to a given duration",
        "params": {
          "_duration": "Number of seconds"
        }
      },
      "exit()": {
        "details": "Exit out of all possible stakes"
      },
      "getAllStakes(address)": {
        "details": "Return all the stakes paid and unpaid for a given user",
        "params": {
          "account": "Address of the account that we want to look up"
        }
      },
      "governor()": {
        "details": "Returns the address of the current Governor."
      },
      "initialize(address,uint256[],uint256[])": {
        "details": "Initialize the contracts, sets up durations, rates, and preApprover     for preApproved contracts can only be called once",
        "params": {
          "_durations": "Array of allowed durations in seconds",
          "_rates": "Array of rates(0.3 is 30%) that correspond to the allowed              durations in 1e18 precision",
          "_stakingToken": "Address of the token that we are staking"
        }
      },
      "isGovernor()": {
        "details": "Returns true if the caller is the current Governor."
      },
      "setAirDropRoot(uint8,bytes32,uint256)": {
        "details": "Set air drop root for a specific stake type",
        "params": {
          "_proofDepth": "Depth of the Merklke Tree",
          "_rootHash": "Root hash of the Merkle Tree",
          "_stakeType": "Type of staking must be greater than 0"
        }
      },
      "setDurationRates(uint256[],uint256[])": {
        "details": "Set new durations and rates will not effect existing stakes",
        "params": {
          "_durations": "Array of durations in seconds",
          "_rates": "Array of rates that corresponds to the durations (0.01 is 1%) in 1e18"
        }
      },
      "stake(uint256,uint256)": {
        "details": "Stake an approved amount of staking token into the contract.     User must have already approved the contract for specified amount.",
        "params": {
          "amount": "Number of tokens to stake in 1e18",
          "duration": "Number of seconds this stake will be held for"
        }
      },
      "stakeWithSender(address,uint256,uint256)": {
        "details": "Stake an approved amount of staking token into the contract. This function     can only be called by OGN token contract.",
        "params": {
          "amount": "Number of tokens to stake in 1e18",
          "duration": "Number of seconds this stake will be held for",
          "staker": "Address of the account that is creating the stake"
        }
      },
      "totalCurrentHoldings(address)": {
        "details": "Calculate all current holdings of a user: staked value + prorated rewards",
        "params": {
          "account": "Address of the account that we want to look up"
        }
      },
      "totalExpectedRewards(address)": {
        "details": "Calculate all the rewards a user can expect to receive.",
        "params": {
          "account": "Address of the account that we want to look up"
        }
      },
      "totalStaked(address)": {
        "details": "Calculate all the staked value a user has put into the contract,     rewards not included",
        "params": {
          "account": "Address of the account that we want to look up"
        }
      },
      "transferGovernance(address)": {
        "details": "Transfers Governance of the contract to a new account (`newGovernor`). Can only be called by the current Governor. Must be claimed for this to complete",
        "params": {
          "_newGovernor": "Address of the new Governor"
        }
      }
    }
  },
  "userdoc": {
    "methods": {}
  }
}