{
  "abi": [
    {
      "constant": false,
      "inputs": [],
      "name": "pauseDeposits",
      "outputs": [],
      "payable": false,
      "stateMutability": "nonpayable",
      "type": "function"
    },
    {
      "constant": true,
      "inputs": [],
      "name": "depositPaused",
      "outputs": [
        {
          "internalType": "bool",
          "name": "",
          "type": "bool"
        }
      ],
      "payable": false,
      "stateMutability": "view",
      "type": "function"
    },
    {
      "constant": false,
      "inputs": [],
      "name": "unpauseRebase",
      "outputs": [],
      "payable": false,
      "stateMutability": "nonpayable",
      "type": "function"
    },
    {
      "constant": true,
      "inputs": [],
      "name": "redeemFeeBps",
      "outputs": [
        {
          "internalType": "uint256",
          "name": "",
          "type": "uint256"
        }
      ],
      "payable": false,
      "stateMutability": "view",
      "type": "function"
    },
    {
      "constant": true,
      "inputs": [],
      "name": "governor",
      "outputs": [
        {
          "internalType": "address",
          "name": "",
          "type": "address"
        }
      ],
      "payable": false,
      "stateMutability": "view",
      "type": "function"
    },
    {
      "constant": false,
      "inputs": [
        {
          "internalType": "address",
          "name": "_strategyAddr",
          "type": "address"
        }
      ],
      "name": "harvest",
      "outputs": [],
      "payable": false,
      "stateMutability": "nonpayable",
      "type": "function"
    },
    {
      "constant": false,
      "inputs": [
        {
          "internalType": "address",
          "name": "_address",
          "type": "address"
        }
      ],
      "name": "setRebaseHooksAddr",
      "outputs": [],
      "payable": false,
      "stateMutability": "nonpayable",
      "type": "function"
    },
    {
      "constant": false,
      "inputs": [
        {
          "internalType": "address",
          "name": "_asset",
          "type": "address"
        },
        {
          "internalType": "uint256",
          "name": "_amount",
          "type": "uint256"
        }
      ],
      "name": "transferToken",
      "outputs": [],
      "payable": false,
      "stateMutability": "nonpayable",
      "type": "function"
    },
    {
      "constant": true,
      "inputs": [],
      "name": "uniswapAddr",
      "outputs": [
        {
          "internalType": "address",
          "name": "",
          "type": "address"
        }
      ],
      "payable": false,
      "stateMutability": "view",
      "type": "function"
    },
    {
      "constant": false,
      "inputs": [
        {
          "internalType": "address",
          "name": "_addr",
          "type": "address"
        }
      ],
      "name": "removeStrategy",
      "outputs": [],
      "payable": false,
      "stateMutability": "nonpayable",
      "type": "function"
    },
    {
      "constant": true,
      "inputs": [],
      "name": "vaultBuffer",
      "outputs": [
        {
          "internalType": "uint256",
          "name": "",
          "type": "uint256"
        }
      ],
      "payable": false,
      "stateMutability": "view",
      "type": "function"
    },
    {
      "constant": false,
      "inputs": [
        {
          "internalType": "string",
          "name": "symbol",
          "type": "string"
        }
      ],
      "name": "priceUSDRedeem",
      "outputs": [
        {
          "internalType": "uint256",
          "name": "",
          "type": "uint256"
        }
      ],
      "payable": false,
      "stateMutability": "nonpayable",
      "type": "function"
    },
    {
      "constant": false,
      "inputs": [
        {
          "internalType": "address",
          "name": "_priceProvider",
          "type": "address"
        }
      ],
      "name": "setPriceProvider",
      "outputs": [],
      "payable": false,
      "stateMutability": "nonpayable",
      "type": "function"
    },
    {
      "constant": false,
      "inputs": [],
      "name": "harvest",
      "outputs": [],
      "payable": false,
      "stateMutability": "nonpayable",
      "type": "function"
    },
    {
      "constant": false,
      "inputs": [
        {
          "internalType": "address",
          "name": "_asset",
          "type": "address"
        }
      ],
      "name": "supportAsset",
      "outputs": [],
      "payable": false,
      "stateMutability": "nonpayable",
      "type": "function"
    },
    {
      "constant": false,
      "inputs": [
        {
          "internalType": "address[]",
          "name": "_strategyAddresses",
          "type": "address[]"
        },
        {
          "internalType": "uint256[]",
          "name": "_weights",
          "type": "uint256[]"
        }
      ],
      "name": "setStrategyWeights",
      "outputs": [],
      "payable": false,
      "stateMutability": "nonpayable",
      "type": "function"
    },
    {
      "constant": true,
      "inputs": [],
      "name": "rebaseThreshold",
      "outputs": [
        {
          "internalType": "uint256",
          "name": "",
          "type": "uint256"
        }
      ],
      "payable": false,
      "stateMutability": "view",
      "type": "function"
    },
    {
      "constant": true,
      "inputs": [],
      "name": "rebasePaused",
      "outputs": [
        {
          "internalType": "bool",
          "name": "",
          "type": "bool"
        }
      ],
      "payable": false,
      "stateMutability": "view",
      "type": "function"
    },
    {
      "constant": false,
      "inputs": [],
      "name": "claimGovernance",
      "outputs": [],
      "payable": false,
      "stateMutability": "nonpayable",
      "type": "function"
    },
    {
      "constant": false,
      "inputs": [],
      "name": "unpauseDeposits",
      "outputs": [],
      "payable": false,
      "stateMutability": "nonpayable",
      "type": "function"
    },
    {
      "constant": false,
      "inputs": [
        {
          "internalType": "string",
          "name": "symbol",
          "type": "string"
        }
      ],
      "name": "priceUSDMint",
      "outputs": [
        {
          "internalType": "uint256",
          "name": "",
          "type": "uint256"
        }
      ],
      "payable": false,
      "stateMutability": "nonpayable",
      "type": "function"
    },
    {
      "constant": true,
      "inputs": [],
      "name": "rebaseHooksAddr",
      "outputs": [
        {
          "internalType": "address",
          "name": "",
          "type": "address"
        }
      ],
      "payable": false,
      "stateMutability": "view",
      "type": "function"
    },
    {
      "constant": false,
      "inputs": [
        {
          "internalType": "uint256",
          "name": "_vaultBuffer",
          "type": "uint256"
        }
      ],
      "name": "setVaultBuffer",
      "outputs": [],
      "payable": false,
      "stateMutability": "nonpayable",
      "type": "function"
    },
    {
      "constant": true,
      "inputs": [],
      "name": "autoAllocateThreshold",
      "outputs": [
        {
          "internalType": "uint256",
          "name": "",
          "type": "uint256"
        }
      ],
      "payable": false,
      "stateMutability": "view",
      "type": "function"
    },
    {
      "constant": false,
      "inputs": [
        {
          "internalType": "address",
          "name": "_address",
          "type": "address"
        }
      ],
      "name": "setUniswapAddr",
      "outputs": [],
      "payable": false,
      "stateMutability": "nonpayable",
      "type": "function"
    },
    {
      "constant": false,
      "inputs": [
        {
          "internalType": "uint256",
          "name": "_threshold",
          "type": "uint256"
        }
      ],
      "name": "setAutoAllocateThreshold",
      "outputs": [],
      "payable": false,
      "stateMutability": "nonpayable",
      "type": "function"
    },
    {
      "constant": true,
      "inputs": [],
      "name": "priceProvider",
      "outputs": [
        {
          "internalType": "address",
          "name": "",
          "type": "address"
        }
      ],
      "payable": false,
      "stateMutability": "view",
      "type": "function"
    },
    {
      "constant": false,
      "inputs": [
        {
          "internalType": "uint256",
          "name": "_threshold",
          "type": "uint256"
        }
      ],
      "name": "setRebaseThreshold",
      "outputs": [],
      "payable": false,
      "stateMutability": "nonpayable",
      "type": "function"
    },
    {
      "constant": false,
      "inputs": [],
      "name": "pauseRebase",
      "outputs": [],
      "payable": false,
      "stateMutability": "nonpayable",
      "type": "function"
    },
    {
      "constant": true,
      "inputs": [],
      "name": "isGovernor",
      "outputs": [
        {
          "internalType": "bool",
          "name": "",
          "type": "bool"
        }
      ],
      "payable": false,
      "stateMutability": "view",
      "type": "function"
    },
    {
      "constant": false,
      "inputs": [
        {
          "internalType": "address",
          "name": "_addr",
          "type": "address"
        },
        {
          "internalType": "uint256",
          "name": "_targetWeight",
          "type": "uint256"
        }
      ],
      "name": "addStrategy",
      "outputs": [],
      "payable": false,
      "stateMutability": "nonpayable",
      "type": "function"
    },
    {
      "constant": false,
      "inputs": [
        {
          "internalType": "address",
          "name": "_newGovernor",
          "type": "address"
        }
      ],
      "name": "transferGovernance",
      "outputs": [],
      "payable": false,
      "stateMutability": "nonpayable",
      "type": "function"
    },
    {
      "constant": false,
      "inputs": [
        {
          "internalType": "uint256",
          "name": "_redeemFeeBps",
          "type": "uint256"
        }
      ],
      "name": "setRedeemFeeBps",
      "outputs": [],
      "payable": false,
      "stateMutability": "nonpayable",
      "type": "function"
    },
    {
      "constant": false,
      "inputs": [
        {
          "internalType": "address",
          "name": "newImpl",
          "type": "address"
        }
      ],
      "name": "setAdminImpl",
      "outputs": [],
      "payable": false,
      "stateMutability": "nonpayable",
      "type": "function"
    },
    {
      "anonymous": false,
      "inputs": [
        {
          "indexed": false,
          "internalType": "address",
          "name": "_asset",
          "type": "address"
        }
      ],
      "name": "AssetSupported",
      "type": "event"
    },
    {
      "anonymous": false,
      "inputs": [
        {
          "indexed": false,
          "internalType": "address",
          "name": "_addr",
          "type": "address"
        }
      ],
      "name": "StrategyAdded",
      "type": "event"
    },
    {
      "anonymous": false,
      "inputs": [
        {
          "indexed": false,
          "internalType": "address",
          "name": "_addr",
          "type": "address"
        }
      ],
      "name": "StrategyRemoved",
      "type": "event"
    },
    {
      "anonymous": false,
      "inputs": [
        {
          "indexed": false,
          "internalType": "address",
          "name": "_addr",
          "type": "address"
        },
        {
          "indexed": false,
          "internalType": "uint256",
          "name": "_value",
          "type": "uint256"
        }
      ],
      "name": "Mint",
      "type": "event"
    },
    {
      "anonymous": false,
      "inputs": [
        {
          "indexed": false,
          "internalType": "address",
          "name": "_addr",
          "type": "address"
        },
        {
          "indexed": false,
          "internalType": "uint256",
          "name": "_value",
          "type": "uint256"
        }
      ],
      "name": "Redeem",
      "type": "event"
    },
    {
      "anonymous": false,
      "inputs": [
        {
          "indexed": false,
          "internalType": "address[]",
          "name": "_strategyAddresses",
          "type": "address[]"
        },
        {
          "indexed": false,
          "internalType": "uint256[]",
          "name": "weights",
          "type": "uint256[]"
        }
      ],
      "name": "StrategyWeightsUpdated",
      "type": "event"
    },
    {
      "anonymous": false,
      "inputs": [],
      "name": "DepositsPaused",
      "type": "event"
    },
    {
      "anonymous": false,
      "inputs": [],
      "name": "DepositsUnpaused",
      "type": "event"
    },
    {
      "anonymous": false,
      "inputs": [
        {
          "indexed": true,
          "internalType": "address",
          "name": "previousGovernor",
          "type": "address"
        },
        {
          "indexed": true,
          "internalType": "address",
          "name": "newGovernor",
          "type": "address"
        }
      ],
      "name": "PendingGovernorshipTransfer",
      "type": "event"
    },
    {
      "anonymous": false,
      "inputs": [
        {
          "indexed": true,
          "internalType": "address",
          "name": "previousGovernor",
          "type": "address"
        },
        {
          "indexed": true,
          "internalType": "address",
          "name": "newGovernor",
          "type": "address"
        }
      ],
      "name": "GovernorshipTransferred",
      "type": "event"
    }
  ],
  "address": "0x0AaEc9f27fDD4b5E4085428Da8961b4853C165dE",
  "args": [],
  "solcInputHash": "0xce2ee4d36a9230c87b714249915bd476342d062a2e9d9a4490d234709dd36754",
  "bytecode": "0x60806040526000603760146101000a81548160ff0219169083151502179055506001603760156101000a81548160ff0219169083151502179055506000603d60006101000a81548173ffffffffffffffffffffffffffffffffffffffff021916908373ffffffffffffffffffffffffffffffffffffffff1602179055506000603e60006101000a81548173ffffffffffffffffffffffffffffffffffffffff021916908373ffffffffffffffffffffffffffffffffffffffff160217905550620000cf336200013f60201b60201c565b620000df6200016e60201b60201c565b73ffffffffffffffffffffffffffffffffffffffff16600073ffffffffffffffffffffffffffffffffffffffff167fc7c0c772add429241571afb3805861fb3cfa2af374534088b76cdb4325a87e9a60405160405180910390a36200019f565b60007f7bea13895fa79d2831e0a9e28edede30099005a50d652d8957cf8a607ee6ca4a60001b90508181555050565b6000807f7bea13895fa79d2831e0a9e28edede30099005a50d652d8957cf8a607ee6ca4a60001b9050805491505090565b61372380620001af6000396000f3fe608060405234801561001057600080fd5b50600436106102065760003560e01c806353ca9f241161011a578063b2c9336d116100ad578063c7af33521161007c578063c7af335214610883578063c9411e22146108a5578063d38bfff4146108f3578063eb03654b14610937578063fc0cfeee1461096557610206565b8063b2c9336d146107d3578063b888879e14610801578063b890ebf61461084b578063c5f008411461087957610206565b8063796be57b116100e9578063796be57b146106f95780638ec489a2146107435780639fa1826e14610771578063aea173d51461078f57610206565b806353ca9f24146106365780635d36b1901461065857806363d8882a14610662578063686b37ca1461066c57610206565b8063128a8b051161019d578063372aa2241161016c578063372aa224146104b85780634641257d146104fc5780634cd55c2d146105065780634dab68b31461054a57806352d38e5d1461061857610206565b8063128a8b051461037f578063175188e8146103c95780631edfe3da1461040d57806329a903ec1461042b57610206565b80630c340a24116101d95780630c340a241461025f5780630e5c011e146102a95780631060a27c146102ed5780631072cbea1461033157610206565b8063021919801461020b57806302befd241461021557806309f49bf51461023757806309f6442c14610241575b600080fd5b6102136109a9565b005b61021d610a6c565b604051808215151515815260200191505060405180910390f35b61023f610a7f565b005b610249610b16565b6040518082815260200191505060405180910390f35b610267610b1c565b604051808273ffffffffffffffffffffffffffffffffffffffff1673ffffffffffffffffffffffffffffffffffffffff16815260200191505060405180910390f35b6102eb600480360360208110156102bf57600080fd5b81019080803573ffffffffffffffffffffffffffffffffffffffff169060200190929190505050610b2b565b005b61032f6004803603602081101561030357600080fd5b81019080803573ffffffffffffffffffffffffffffffffffffffff169060200190929190505050610bca565b005b61037d6004803603604081101561034757600080fd5b81019080803573ffffffffffffffffffffffffffffffffffffffff16906020019092919080359060200190929190505050610c88565b005b610387610dd0565b604051808273ffffffffffffffffffffffffffffffffffffffff1673ffffffffffffffffffffffffffffffffffffffff16815260200191505060405180910390f35b61040b600480360360208110156103df57600080fd5b81019080803573ffffffffffffffffffffffffffffffffffffffff169060200190929190505050610df6565b005b610415611202565b6040518082815260200191505060405180910390f35b6104a26004803603602081101561044157600080fd5b810190808035906020019064010000000081111561045e57600080fd5b82018360208201111561047057600080fd5b8035906020019184600183028401116401000000008311171561049257600080fd5b9091929391929390505050611208565b6040518082815260200191505060405180910390f35b6104fa600480360360208110156104ce57600080fd5b81019080803573ffffffffffffffffffffffffffffffffffffffff16906020019092919050505061125f565b005b61050461131d565b005b6105486004803603602081101561051c57600080fd5b81019080803573ffffffffffffffffffffffffffffffffffffffff1690602001909291905050506113fa565b005b6106166004803603604081101561056057600080fd5b810190808035906020019064010000000081111561057d57600080fd5b82018360208201111561058f57600080fd5b803590602001918460208302840111640100000000831117156105b157600080fd5b9091929391929390803590602001906401000000008111156105d257600080fd5b8201836020820111156105e457600080fd5b8035906020019184602083028401116401000000008311171561060657600080fd5b9091929391929390505050611677565b005b6106206118af565b6040518082815260200191505060405180910390f35b61063e6118b5565b604051808215151515815260200191505060405180910390f35b6106606118c8565b005b61066a61195e565b005b6106e36004803603602081101561068257600080fd5b810190808035906020019064010000000081111561069f57600080fd5b8201836020820111156106b157600080fd5b803590602001918460018302840111640100000000831117156106d357600080fd5b9091929391929390505050611a21565b6040518082815260200191505060405180910390f35b610701611a78565b604051808273ffffffffffffffffffffffffffffffffffffffff1673ffffffffffffffffffffffffffffffffffffffff16815260200191505060405180910390f35b61076f6004803603602081101561075957600080fd5b8101908080359060200190929190505050611a9e565b005b610779611b22565b6040518082815260200191505060405180910390f35b6107d1600480360360208110156107a557600080fd5b81019080803573ffffffffffffffffffffffffffffffffffffffff169060200190929190505050611b28565b005b6107ff600480360360208110156107e957600080fd5b8101908080359060200190929190505050611be6565b005b610809611c6a565b604051808273ffffffffffffffffffffffffffffffffffffffff1673ffffffffffffffffffffffffffffffffffffffff16815260200191505060405180910390f35b6108776004803603602081101561086157600080fd5b8101908080359060200190929190505050611c90565b005b610881611d14565b005b61088b611dab565b604051808215151515815260200191505060405180910390f35b6108f1600480360360408110156108bb57600080fd5b81019080803573ffffffffffffffffffffffffffffffffffffffff16906020019092919080359060200190929190505050611de8565b005b6109356004803603602081101561090957600080fd5b81019080803573ffffffffffffffffffffffffffffffffffffffff169060200190929190505050612076565b005b6109636004803603602081101561094d57600080fd5b810190808035906020019092919050505061215d565b005b6109a76004803603602081101561097b57600080fd5b81019080803573ffffffffffffffffffffffffffffffffffffffff1690602001909291905050506121e1565b005b6109b1611dab565b610a23576040517f08c379a000000000000000000000000000000000000000000000000000000000815260040180806020018281038252601a8152602001807f43616c6c6572206973206e6f742074686520476f7665726e6f7200000000000081525060200191505060405180910390fd5b6001603760156101000a81548160ff0219169083151502179055507fdeeb69430b7153361c25d630947115165636e6a723fa8daea4b0de34b324745960405160405180910390a1565b603760159054906101000a900460ff1681565b610a87611dab565b610af9576040517f08c379a000000000000000000000000000000000000000000000000000000000815260040180806020018281038252601a8152602001807f43616c6c6572206973206e6f742074686520476f7665726e6f7200000000000081525060200191505060405180910390fd5b6000603760146101000a81548160ff021916908315150217905550565b60385481565b6000610b2661228a565b905090565b3073ffffffffffffffffffffffffffffffffffffffff163373ffffffffffffffffffffffffffffffffffffffff161480610b695750610b68611dab565b5b610bbe576040517f08c379a000000000000000000000000000000000000000000000000000000000815260040180806020018281038252602381526020018061361b6023913960400191505060405180910390fd5b610bc7816122bb565b50565b610bd2611dab565b610c44576040517f08c379a000000000000000000000000000000000000000000000000000000000815260040180806020018281038252601a8152602001807f43616c6c6572206973206e6f742074686520476f7665726e6f7200000000000081525060200191505060405180910390fd5b80603d60006101000a81548173ffffffffffffffffffffffffffffffffffffffff021916908373ffffffffffffffffffffffffffffffffffffffff16021790555050565b610c90611dab565b610d02576040517f08c379a000000000000000000000000000000000000000000000000000000000815260040180806020018281038252601a8152602001807f43616c6c6572206973206e6f742074686520476f7665726e6f7200000000000081525060200191505060405180910390fd5b8173ffffffffffffffffffffffffffffffffffffffff1663a9059cbb610d26610b1c565b836040518363ffffffff1660e01b8152600401808373ffffffffffffffffffffffffffffffffffffffff1673ffffffffffffffffffffffffffffffffffffffff16815260200182815260200192505050602060405180830381600087803b158015610d9057600080fd5b505af1158015610da4573d6000803e3d6000fd5b505050506040513d6020811015610dba57600080fd5b8101908080519060200190929190505050505050565b603e60009054906101000a900473ffffffffffffffffffffffffffffffffffffffff1681565b610dfe611dab565b610e70576040517f08c379a000000000000000000000000000000000000000000000000000000000815260040180806020018281038252601a8152602001807f43616c6c6572206973206e6f742074686520476f7665726e6f7200000000000081525060200191505060405180910390fd5b603560008273ffffffffffffffffffffffffffffffffffffffff1673ffffffffffffffffffffffffffffffffffffffff16815260200190815260200160002060000160009054906101000a900460ff16610f32576040517f08c379a00000000000000000000000000000000000000000000000000000000081526004018080602001828103825260128152602001807f5374726174656779206e6f74206164646564000000000000000000000000000081525060200191505060405180910390fd5b6000603680549050905060008090505b603680549050811015610fcf578273ffffffffffffffffffffffffffffffffffffffff1660368281548110610f7357fe5b9060005260206000200160009054906101000a900473ffffffffffffffffffffffffffffffffffffffff1673ffffffffffffffffffffffffffffffffffffffff161415610fc257809150610fcf565b8080600101915050610f42565b5060368054905081101561115b57603660016036805490500381548110610ff257fe5b9060005260206000200160009054906101000a900473ffffffffffffffffffffffffffffffffffffffff166036828154811061102a57fe5b9060005260206000200160006101000a81548173ffffffffffffffffffffffffffffffffffffffff021916908373ffffffffffffffffffffffffffffffffffffffff160217905550603680548091906001900361108791906135c9565b5060008290508073ffffffffffffffffffffffffffffffffffffffff166328a070256040518163ffffffff1660e01b8152600401600060405180830381600087803b1580156110d557600080fd5b505af11580156110e9573d6000803e3d6000fd5b505050506110f6836122bb565b7f09a1db4b80c32706328728508c941a6b954f31eb5affd32f236c1fd405f8fea483604051808273ffffffffffffffffffffffffffffffffffffffff1673ffffffffffffffffffffffffffffffffffffffff16815260200191505060405180910390a1505b6000603560008473ffffffffffffffffffffffffffffffffffffffff1673ffffffffffffffffffffffffffffffffffffffff16815260200190815260200160002060000160006101000a81548160ff0219169083151502179055506000603560008473ffffffffffffffffffffffffffffffffffffffff1673ffffffffffffffffffffffffffffffffffffffff168152602001908152602001600020600101819055505050565b60395481565b600061125783838080601f016020809104026020016040519081016040528093929190818152602001838380828437600081840152601f19601f82011690508083019250505050505050612a73565b905092915050565b611267611dab565b6112d9576040517f08c379a000000000000000000000000000000000000000000000000000000000815260040180806020018281038252601a8152602001807f43616c6c6572206973206e6f742074686520476f7665726e6f7200000000000081525060200191505060405180910390fd5b80603760006101000a81548173ffffffffffffffffffffffffffffffffffffffff021916908373ffffffffffffffffffffffffffffffffffffffff16021790555050565b611325611dab565b611397576040517f08c379a000000000000000000000000000000000000000000000000000000000815260040180806020018281038252601a8152602001807f43616c6c6572206973206e6f742074686520476f7665726e6f7200000000000081525060200191505060405180910390fd5b60008090505b6036805490508110156113f7576113ea603682815481106113ba57fe5b9060005260206000200160009054906101000a900473ffffffffffffffffffffffffffffffffffffffff166122bb565b808060010191505061139d565b50565b611402611dab565b611474576040517f08c379a000000000000000000000000000000000000000000000000000000000815260040180806020018281038252601a8152602001807f43616c6c6572206973206e6f742074686520476f7665726e6f7200000000000081525060200191505060405180910390fd5b603360008273ffffffffffffffffffffffffffffffffffffffff1673ffffffffffffffffffffffffffffffffffffffff16815260200190815260200160002060000160009054906101000a900460ff1615611537576040517f08c379a00000000000000000000000000000000000000000000000000000000081526004018080602001828103825260178152602001807f417373657420616c726561647920737570706f7274656400000000000000000081525060200191505060405180910390fd5b604051806020016040528060011515815250603360008373ffffffffffffffffffffffffffffffffffffffff1673ffffffffffffffffffffffffffffffffffffffff16815260200190815260200160002060008201518160000160006101000a81548160ff02191690831515021790555090505060348190806001815401808255809150509060018203906000526020600020016000909192909190916101000a81548173ffffffffffffffffffffffffffffffffffffffff021916908373ffffffffffffffffffffffffffffffffffffffff160217905550507f4f1ac48525e50059cc1cc6e0e1940ece0dd653a4db4841538d6aef036be2fb7b81604051808273ffffffffffffffffffffffffffffffffffffffff1673ffffffffffffffffffffffffffffffffffffffff16815260200191505060405180910390a150565b61167f611dab565b6116f1576040517f08c379a000000000000000000000000000000000000000000000000000000000815260040180806020018281038252601a8152602001807f43616c6c6572206973206e6f742074686520476f7665726e6f7200000000000081525060200191505060405180910390fd5b81819050848490501461176c576040517f08c379a00000000000000000000000000000000000000000000000000000000081526004018080602001828103825260198152602001807f506172616d65746572206c656e677468206d69736d617463680000000000000081525060200191505060405180910390fd5b60008090505b8484905081101561180b5782828281811061178957fe5b90506020020135603560008787858181106117a057fe5b9050602002013573ffffffffffffffffffffffffffffffffffffffff1673ffffffffffffffffffffffffffffffffffffffff1673ffffffffffffffffffffffffffffffffffffffff168152602001908152602001600020600101819055508080600101915050611772565b507f96f2c15ff9c9cea757ec12e3f9aaa7705c3d0a154ee1e71c6e1221c8de0b7762848484846040518080602001806020018381038352878782818152602001925060200280828437600081840152601f19601f8201169050808301925050508381038252858582818152602001925060200280828437600081840152601f19601f820116905080830192505050965050505050505060405180910390a150505050565b603b5481565b603760149054906101000a900460ff1681565b6118d0612ba4565b73ffffffffffffffffffffffffffffffffffffffff163373ffffffffffffffffffffffffffffffffffffffff1614611953576040517f08c379a00000000000000000000000000000000000000000000000000000000081526004018080602001828103825260308152602001806136bf6030913960400191505060405180910390fd5b61195c33612bd5565b565b611966611dab565b6119d8576040517f08c379a000000000000000000000000000000000000000000000000000000000815260040180806020018281038252601a8152602001807f43616c6c6572206973206e6f742074686520476f7665726e6f7200000000000081525060200191505060405180910390fd5b6000603760156101000a81548160ff0219169083151502179055507f823084e804e36d8971e8b86749b6b0ace7b9f87ed272bef910c1e72d123eeb4860405160405180910390a1565b6000611a7083838080601f016020809104026020016040519081016040528093929190818152602001838380828437600081840152601f19601f82011690508083019250505050505050612ce5565b905092915050565b603d60009054906101000a900473ffffffffffffffffffffffffffffffffffffffff1681565b611aa6611dab565b611b18576040517f08c379a000000000000000000000000000000000000000000000000000000000815260040180806020018281038252601a8152602001807f43616c6c6572206973206e6f742074686520476f7665726e6f7200000000000081525060200191505060405180910390fd5b8060398190555050565b603a5481565b611b30611dab565b611ba2576040517f08c379a000000000000000000000000000000000000000000000000000000000815260040180806020018281038252601a8152602001807f43616c6c6572206973206e6f742074686520476f7665726e6f7200000000000081525060200191505060405180910390fd5b80603e60006101000a81548173ffffffffffffffffffffffffffffffffffffffff021916908373ffffffffffffffffffffffffffffffffffffffff16021790555050565b611bee611dab565b611c60576040517f08c379a000000000000000000000000000000000000000000000000000000000815260040180806020018281038252601a8152602001807f43616c6c6572206973206e6f742074686520476f7665726e6f7200000000000081525060200191505060405180910390fd5b80603a8190555050565b603760009054906101000a900473ffffffffffffffffffffffffffffffffffffffff1681565b611c98611dab565b611d0a576040517f08c379a000000000000000000000000000000000000000000000000000000000815260040180806020018281038252601a8152602001807f43616c6c6572206973206e6f742074686520476f7665726e6f7200000000000081525060200191505060405180910390fd5b80603b8190555050565b611d1c611dab565b611d8e576040517f08c379a000000000000000000000000000000000000000000000000000000000815260040180806020018281038252601a8152602001807f43616c6c6572206973206e6f742074686520476f7665726e6f7200000000000081525060200191505060405180910390fd5b6001603760146101000a81548160ff021916908315150217905550565b6000611db561228a565b73ffffffffffffffffffffffffffffffffffffffff163373ffffffffffffffffffffffffffffffffffffffff1614905090565b611df0611dab565b611e62576040517f08c379a000000000000000000000000000000000000000000000000000000000815260040180806020018281038252601a8152602001807f43616c6c6572206973206e6f742074686520476f7665726e6f7200000000000081525060200191505060405180910390fd5b603560008373ffffffffffffffffffffffffffffffffffffffff1673ffffffffffffffffffffffffffffffffffffffff16815260200190815260200160002060000160009054906101000a900460ff1615611f25576040517f08c379a00000000000000000000000000000000000000000000000000000000081526004018080602001828103825260168152602001807f537472617465677920616c72656164792061646465640000000000000000000081525060200191505060405180910390fd5b604051806040016040528060011515815260200182815250603560008473ffffffffffffffffffffffffffffffffffffffff1673ffffffffffffffffffffffffffffffffffffffff16815260200190815260200160002060008201518160000160006101000a81548160ff0219169083151502179055506020820151816001015590505060368290806001815401808255809150509060018203906000526020600020016000909192909190916101000a81548173ffffffffffffffffffffffffffffffffffffffff021916908373ffffffffffffffffffffffffffffffffffffffff160217905550507f3f008fd510eae7a9e7bee13513d7b83bef8003d488b5a3d0b0da4de71d6846f182604051808273ffffffffffffffffffffffffffffffffffffffff1673ffffffffffffffffffffffffffffffffffffffff16815260200191505060405180910390a15050565b61207e611dab565b6120f0576040517f08c379a000000000000000000000000000000000000000000000000000000000815260040180806020018281038252601a8152602001807f43616c6c6572206973206e6f742074686520476f7665726e6f7200000000000081525060200191505060405180910390fd5b6120f981612e16565b8073ffffffffffffffffffffffffffffffffffffffff1661211861228a565b73ffffffffffffffffffffffffffffffffffffffff167fa39cc5eb22d0f34d8beaefee8a3f17cc229c1a1d1ef87a5ad47313487b1c4f0d60405160405180910390a350565b612165611dab565b6121d7576040517f08c379a000000000000000000000000000000000000000000000000000000000815260040180806020018281038252601a8152602001807f43616c6c6572206973206e6f742074686520476f7665726e6f7200000000000081525060200191505060405180910390fd5b8060388190555050565b6121e9611dab565b61225b576040517f08c379a000000000000000000000000000000000000000000000000000000000815260040180806020018281038252601a8152602001807f43616c6c6572206973206e6f742074686520476f7665726e6f7200000000000081525060200191505060405180910390fd5b60007fa2bd3d3cf188a41358c8b401076eb59066b09dec5775650c0de4c55187d17bd960001b90508181555050565b6000807f7bea13895fa79d2831e0a9e28edede30099005a50d652d8957cf8a607ee6ca4a60001b9050805491505090565b600081905060008173ffffffffffffffffffffffffffffffffffffffff1663125f9e336040518163ffffffff1660e01b815260040160206040518083038186803b15801561230857600080fd5b505afa15801561231c573d6000803e3d6000fd5b505050506040513d602081101561233257600080fd5b81019080805190602001909291905050509050600073ffffffffffffffffffffffffffffffffffffffff168173ffffffffffffffffffffffffffffffffffffffff1614612a6e578173ffffffffffffffffffffffffffffffffffffffff16630242241d6040518163ffffffff1660e01b8152600401600060405180830381600087803b1580156123c157600080fd5b505af11580156123d5573d6000803e3d6000fd5b50505050600073ffffffffffffffffffffffffffffffffffffffff16603e60009054906101000a900473ffffffffffffffffffffffffffffffffffffffff1673ffffffffffffffffffffffffffffffffffffffff1614612a6d5760008273ffffffffffffffffffffffffffffffffffffffff1663125f9e336040518163ffffffff1660e01b815260040160206040518083038186803b15801561247757600080fd5b505afa15801561248b573d6000803e3d6000fd5b505050506040513d60208110156124a157600080fd5b8101908080519060200190929190505050905060008173ffffffffffffffffffffffffffffffffffffffff166370a08231306040518263ffffffff1660e01b8152600401808273ffffffffffffffffffffffffffffffffffffffff1673ffffffffffffffffffffffffffffffffffffffff16815260200191505060206040518083038186803b15801561253357600080fd5b505afa158015612547573d6000803e3d6000fd5b505050506040513d602081101561255d57600080fd5b810190808051906020019092919050505090506000811115612a6a576125c7603e60009054906101000a900473ffffffffffffffffffffffffffffffffffffffff1660008473ffffffffffffffffffffffffffffffffffffffff16612e459092919063ffffffff16565b612614603e60009054906101000a900473ffffffffffffffffffffffffffffffffffffffff16828473ffffffffffffffffffffffffffffffffffffffff16612e459092919063ffffffff16565b606060036040519080825280602002602001820160405280156126465781602001602082028038833980820191505090505b5090508473ffffffffffffffffffffffffffffffffffffffff1663125f9e336040518163ffffffff1660e01b815260040160206040518083038186803b15801561268f57600080fd5b505afa1580156126a3573d6000803e3d6000fd5b505050506040513d60208110156126b957600080fd5b8101908080519060200190929190505050816000815181106126d757fe5b602002602001019073ffffffffffffffffffffffffffffffffffffffff16908173ffffffffffffffffffffffffffffffffffffffff1681525050603e60009054906101000a900473ffffffffffffffffffffffffffffffffffffffff1673ffffffffffffffffffffffffffffffffffffffff1663ad5c46486040518163ffffffff1660e01b815260040160206040518083038186803b15801561277957600080fd5b505afa15801561278d573d6000803e3d6000fd5b505050506040513d60208110156127a357600080fd5b8101908080519060200190929190505050816001815181106127c157fe5b602002602001019073ffffffffffffffffffffffffffffffffffffffff16908173ffffffffffffffffffffffffffffffffffffffff1681525050603460018154811061280957fe5b9060005260206000200160009054906101000a900473ffffffffffffffffffffffffffffffffffffffff168160028151811061284157fe5b602002602001019073ffffffffffffffffffffffffffffffffffffffff16908173ffffffffffffffffffffffffffffffffffffffff1681525050603e60009054906101000a900473ffffffffffffffffffffffffffffffffffffffff1673ffffffffffffffffffffffffffffffffffffffff166338ed173983600084306128d36107084261306590919063ffffffff16565b6040518663ffffffff1660e01b815260040180868152602001858152602001806020018473ffffffffffffffffffffffffffffffffffffffff1673ffffffffffffffffffffffffffffffffffffffff168152602001838152602001828103825285818151815260200191508051906020019060200280838360005b8381101561296957808201518184015260208101905061294e565b505050509050019650505050505050600060405180830381600087803b15801561299257600080fd5b505af11580156129a6573d6000803e3d6000fd5b505050506040513d6000823e3d601f19601f8201168201806040525060208110156129d057600080fd5b81019080805160405193929190846401000000008211156129f057600080fd5b83820191506020820185811115612a0657600080fd5b8251866020820283011164010000000082111715612a2357600080fd5b8083526020830192505050908051906020019060200280838360005b83811015612a5a578082015181840152602081019050612a3f565b5050505090500160405250505050505b50505b5b505050565b6000612b9d600a603760009054906101000a900473ffffffffffffffffffffffffffffffffffffffff1673ffffffffffffffffffffffffffffffffffffffff16637bf0c215856040518263ffffffff1660e01b81526004018080602001828103825283818151815260200191508051906020019080838360005b83811015612b08578082015181840152602081019050612aed565b50505050905090810190601f168015612b355780820380516001836020036101000a031916815260200191505b5092505050602060405180830381600087803b158015612b5457600080fd5b505af1158015612b68573d6000803e3d6000fd5b505050506040513d6020811015612b7e57600080fd5b81019080805190602001909291905050506130ed90919063ffffffff16565b9050919050565b6000807f44c4d30b2eaad5130ad70c3ba6972730566f3e6359ab83e800d905c61b1c51db60001b9050805491505090565b600073ffffffffffffffffffffffffffffffffffffffff168173ffffffffffffffffffffffffffffffffffffffff161415612c78576040517f08c379a000000000000000000000000000000000000000000000000000000000815260040180806020018281038252601a8152602001807f4e657720476f7665726e6f72206973206164647265737328302900000000000081525060200191505060405180910390fd5b8073ffffffffffffffffffffffffffffffffffffffff16612c9761228a565b73ffffffffffffffffffffffffffffffffffffffff167fc7c0c772add429241571afb3805861fb3cfa2af374534088b76cdb4325a87e9a60405160405180910390a3612ce28161316e565b50565b6000612e0f600a603760009054906101000a900473ffffffffffffffffffffffffffffffffffffffff1673ffffffffffffffffffffffffffffffffffffffff166319af6bf0856040518263ffffffff1660e01b81526004018080602001828103825283818151815260200191508051906020019080838360005b83811015612d7a578082015181840152602081019050612d5f565b50505050905090810190601f168015612da75780820380516001836020036101000a031916815260200191505b5092505050602060405180830381600087803b158015612dc657600080fd5b505af1158015612dda573d6000803e3d6000fd5b505050506040513d6020811015612df057600080fd5b81019080805190602001909291905050506130ed90919063ffffffff16565b9050919050565b60007f44c4d30b2eaad5130ad70c3ba6972730566f3e6359ab83e800d905c61b1c51db60001b90508181555050565b6000811480612f3f575060008373ffffffffffffffffffffffffffffffffffffffff1663dd62ed3e30856040518363ffffffff1660e01b8152600401808373ffffffffffffffffffffffffffffffffffffffff1673ffffffffffffffffffffffffffffffffffffffff1681526020018273ffffffffffffffffffffffffffffffffffffffff1673ffffffffffffffffffffffffffffffffffffffff1681526020019250505060206040518083038186803b158015612f0257600080fd5b505afa158015612f16573d6000803e3d6000fd5b505050506040513d6020811015612f2c57600080fd5b8101908080519060200190929190505050145b612f94576040517f08c379a00000000000000000000000000000000000000000000000000000000081526004018080602001828103825260368152602001806136896036913960400191505060405180910390fd5b613060838473ffffffffffffffffffffffffffffffffffffffff1663095ea7b3905060e01b8484604051602401808373ffffffffffffffffffffffffffffffffffffffff1673ffffffffffffffffffffffffffffffffffffffff16815260200182815260200192505050604051602081830303815290604052907bffffffffffffffffffffffffffffffffffffffffffffffffffffffff19166020820180517bffffffffffffffffffffffffffffffffffffffffffffffffffffffff838183161783525050505061319d565b505050565b6000808284019050838110156130e3576040517f08c379a000000000000000000000000000000000000000000000000000000000815260040180806020018281038252601b8152602001807f536166654d6174683a206164646974696f6e206f766572666c6f77000000000081525060200191505060405180910390fd5b8091505092915050565b6000808260000b131561311a576131138260000b600a0a846133e890919063ffffffff16565b9250613165565b60008260000b1215613164576131617fffffffffffffffffffffffffffffffffffffffffffffffffffffffffffffffff830260000b600a0a8461346e90919063ffffffff16565b92505b5b82905092915050565b60007f7bea13895fa79d2831e0a9e28edede30099005a50d652d8957cf8a607ee6ca4a60001b90508181555050565b6131bc8273ffffffffffffffffffffffffffffffffffffffff166134b8565b61322e576040517f08c379a000000000000000000000000000000000000000000000000000000000815260040180806020018281038252601f8152602001807f5361666545524332303a2063616c6c20746f206e6f6e2d636f6e74726163740081525060200191505060405180910390fd5b600060608373ffffffffffffffffffffffffffffffffffffffff16836040518082805190602001908083835b6020831061327d578051825260208201915060208101905060208303925061325a565b6001836020036101000a0380198251168184511680821785525050505050509050019150506000604051808303816000865af19150503d80600081146132df576040519150601f19603f3d011682016040523d82523d6000602084013e6132e4565b606091505b50915091508161335c576040517f08c379a00000000000000000000000000000000000000000000000000000000081526004018080602001828103825260208152602001807f5361666545524332303a206c6f772d6c6576656c2063616c6c206661696c656481525060200191505060405180910390fd5b6000815111156133e25780806020019051602081101561337b57600080fd5b81019080805190602001909291905050506133e1576040517f08c379a000000000000000000000000000000000000000000000000000000000815260040180806020018281038252602a81526020018061365f602a913960400191505060405180910390fd5b5b50505050565b6000808314156133fb5760009050613468565b600082840290508284828161340c57fe5b0414613463576040517f08c379a000000000000000000000000000000000000000000000000000000000815260040180806020018281038252602181526020018061363e6021913960400191505060405180910390fd5b809150505b92915050565b60006134b083836040518060400160405280601a81526020017f536166654d6174683a206469766973696f6e206279207a65726f000000000000815250613503565b905092915050565b60008060007fc5d2460186f7233c927e7db2dcc703c0e500b653ca82273b7bfad8045d85a47060001b9050833f91508082141580156134fa57506000801b8214155b92505050919050565b600080831182906135af576040517f08c379a00000000000000000000000000000000000000000000000000000000081526004018080602001828103825283818151815260200191508051906020019080838360005b83811015613574578082015181840152602081019050613559565b50505050905090810190601f1680156135a15780820380516001836020036101000a031916815260200191505b509250505060405180910390fd5b5060008385816135bb57fe5b049050809150509392505050565b8154818355818111156135f0578183600052602060002091820191016135ef91906135f5565b5b505050565b61361791905b808211156136135760008160009055506001016135fb565b5090565b9056fe43616c6c6572206973206e6f7420746865205661756c74206f7220476f7665726e6f72536166654d6174683a206d756c7469706c69636174696f6e206f766572666c6f775361666545524332303a204552433230206f7065726174696f6e20646964206e6f7420737563636565645361666545524332303a20617070726f76652066726f6d206e6f6e2d7a65726f20746f206e6f6e2d7a65726f20616c6c6f77616e63654f6e6c79207468652070656e64696e6720476f7665726e6f722063616e20636f6d706c6574652074686520636c61696da265627a7a7231582007afe2cbb9e143831dde2ab38ef5359452235b92eb5364af64d9329f1f3179e564736f6c634300050b0032",
  "devdoc": {
    "methods": {
      "addStrategy(address,uint256)": {
        "details": "Add a strategy to the Vault.",
        "params": {
          "_addr": "Address of the strategy to add",
          "_targetWeight": "Target percentage of asset allocation to strategy"
        }
      },
      "claimGovernance()": {
        "details": "Claim Governance of the contract to a new account (`newGovernor`). Can only be called by the new Governor."
      },
      "governor()": {
        "details": "Returns the address of the current Governor."
      },
      "harvest()": {
        "details": "Collect reward tokens from all strategies and swap for supported     stablecoin via Uniswap"
      },
      "harvest(address)": {
        "details": "Collect reward tokens for a specific strategy and swap for supported     stablecoin via Uniswap",
        "params": {
          "_strategyAddr": "Address of the strategy to collect rewards from"
        }
      },
      "isGovernor()": {
        "details": "Returns true if the caller is the current Governor."
      },
      "pauseDeposits()": {
        "details": "Set the deposit paused flag to true to prevent deposits."
      },
      "pauseRebase()": {
        "details": "Set the deposit paused flag to true to prevent rebasing."
      },
      "priceUSDMint(string)": {
        "details": "Returns the total price in 18 digit USD for a given asset.     Using Min since min is what we use for mint pricing",
        "params": {
          "symbol": "String symbol of the asset"
        },
        "return": "uint256 USD price of 1 of the asset"
      },
      "priceUSDRedeem(string)": {
        "details": "Returns the total price in 18 digit USD for a given asset.     Using Max since max is what we use for redeem pricing",
        "params": {
          "symbol": "String symbol of the asset"
        },
        "return": "uint256 USD price of 1 of the asset"
      },
      "removeStrategy(address)": {
        "details": "Remove a strategy from the Vault. Removes all invested assets and returns them to the Vault.",
        "params": {
          "_addr": "Address of the strategy to remove"
        }
      },
      "setAdminImpl(address)": {
        "details": "set the implementation for the admin, this needs to be in a base class else we cannot set it",
        "params": {
          "newImpl": "address pf the implementation"
        }
      },
      "setAutoAllocateThreshold(uint256)": {
        "details": "Sets the minimum amount of OUSD in a mint to trigger an automatic allocation of funds afterwords.",
        "params": {
          "_threshold": "OUSD amount with 18 fixed decimals."
        }
      },
      "setPriceProvider(address)": {
        "details": "Set address of price provider.",
        "params": {
          "_priceProvider": "Address of price provider"
        }
      },
      "setRebaseHooksAddr(address)": {
        "details": "Set address of RebaseHooks contract which provides hooks for rebase so things like AMMs can be synced with updated balances.",
        "params": {
          "_address": "Address of RebaseHooks contract"
        }
      },
      "setRebaseThreshold(uint256)": {
        "details": "Set a minimum amount of OUSD in a mint or redeem that triggers a rebase",
        "params": {
          "_threshold": "OUSD amount with 18 fixed decimals."
        }
      },
      "setRedeemFeeBps(uint256)": {
        "details": "Set a fee in basis points to be charged for a redeem.",
        "params": {
          "_redeemFeeBps": "Basis point fee to be charged"
        }
      },
      "setStrategyWeights(address[],uint256[])": {
        "params": {
          "_strategyAddresses": "Array of strategy addresses",
          "_weights": "Array of corresponding weights, with 18 decimals.                For ex. 100%=1e18, 30%=3e17."
        }
      },
      "setUniswapAddr(address)": {
        "details": "Set address of Uniswap for performing liquidation of strategy reward tokens",
        "params": {
          "_address": "Address of Uniswap"
        }
      },
      "setVaultBuffer(uint256)": {
        "details": "Set a buffer of assets to keep in the Vault to handle most redemptions without needing to spend gas unwinding assets from a Strategy.",
        "params": {
          "_vaultBuffer": "Percentage using 18 decimals. 100% = 1e18."
        }
      },
      "supportAsset(address)": {
        "details": "Add a supported asset to the contract, i.e. one that can be        to mint OUSD.",
        "params": {
          "_asset": "Address of asset"
        }
      },
      "transferGovernance(address)": {
        "details": "Transfers Governance of the contract to a new account (`newGovernor`). Can only be called by the current Governor. Must be claimed for this to complete",
        "params": {
          "_newGovernor": "Address of the new Governor"
        }
      },
      "transferToken(address,uint256)": {
        "details": "Transfer token to governor. Intended for recovering tokens stuck in     contract, i.e. mistaken sends.",
        "params": {
          "_amount": "Amount of the asset to transfer",
          "_asset": "Address for the asset"
        }
      },
      "unpauseDeposits()": {
        "details": "Set the deposit paused flag to false to enable deposits."
      },
      "unpauseRebase()": {
        "details": "Set the deposit paused flag to true to allow rebasing."
      }
    }
  },
  "userdoc": {
    "methods": {
      "setStrategyWeights(address[],uint256[])": {
        "notice": "Set the weights for multiple strategies."
      }
    }
  },
  "gasEstimates": {
    "creation": {
      "codeDepositCost": "2823000",
      "executionCost": "infinite",
      "totalCost": "infinite"
    },
    "external": {
      "addStrategy(address,uint256)": "83135",
      "autoAllocateThreshold()": "494",
      "claimGovernance()": "infinite",
      "depositPaused()": "572",
      "governor()": "525",
      "harvest()": "infinite",
      "harvest(address)": "infinite",
      "isGovernor()": "540",
      "pauseDeposits()": "21608",
      "pauseRebase()": "20895",
      "priceProvider()": "520",
      "priceUSDMint(string)": "infinite",
      "priceUSDRedeem(string)": "infinite",
      "rebaseHooksAddr()": "498",
      "rebasePaused()": "549",
      "rebaseThreshold()": "538",
      "redeemFeeBps()": "518",
      "removeStrategy(address)": "infinite",
      "setAdminImpl(address)": "20714",
      "setAutoAllocateThreshold(uint256)": "20610",
      "setPriceProvider(address)": "20869",
      "setRebaseHooksAddr(address)": "20914",
      "setRebaseThreshold(uint256)": "20654",
      "setRedeemFeeBps(uint256)": "20675",
      "setStrategyWeights(address[],uint256[])": "infinite",
      "setUniswapAddr(address)": "20935",
      "setVaultBuffer(uint256)": "20632",
      "supportAsset(address)": "63090",
      "transferGovernance(address)": "infinite",
      "transferToken(address,uint256)": "infinite",
      "uniswapAddr()": "499",
      "unpauseDeposits()": "21651",
      "unpauseRebase()": "20875",
      "vaultBuffer()": "495"
    },
    "internal": {
      "_harvest(address)": "infinite",
      "_priceUSDMint(string memory)": "infinite",
      "_priceUSDRedeem(string memory)": "infinite"
    }
  }
}