{
  "address": "0x0852f0095D7e0dF08AE3a3D79f58b19C3A1Dd6A0",
  "abi": [
    {
      "constant": false,
      "inputs": [],
      "name": "pauseDeposits",
      "outputs": [],
      "payable": false,
      "stateMutability": "nonpayable",
      "type": "function"
    },
    {
      "constant": true,
      "inputs": [],
      "name": "depositPaused",
      "outputs": [
        {
          "internalType": "bool",
          "name": "",
          "type": "bool"
        }
      ],
      "payable": false,
      "stateMutability": "view",
      "type": "function"
    },
    {
      "constant": false,
      "inputs": [],
      "name": "unpauseRebase",
      "outputs": [],
      "payable": false,
      "stateMutability": "nonpayable",
      "type": "function"
    },
    {
      "constant": true,
      "inputs": [],
      "name": "redeemFeeBps",
      "outputs": [
        {
          "internalType": "uint256",
          "name": "",
          "type": "uint256"
        }
      ],
      "payable": false,
      "stateMutability": "view",
      "type": "function"
    },
    {
      "constant": true,
      "inputs": [],
      "name": "governor",
      "outputs": [
        {
          "internalType": "address",
          "name": "",
          "type": "address"
        }
      ],
      "payable": false,
      "stateMutability": "view",
      "type": "function"
    },
    {
      "constant": false,
      "inputs": [
        {
          "internalType": "address",
          "name": "_strategyAddr",
          "type": "address"
        }
      ],
      "name": "harvest",
      "outputs": [],
      "payable": false,
      "stateMutability": "nonpayable",
      "type": "function"
    },
    {
      "constant": false,
      "inputs": [
        {
          "internalType": "address",
          "name": "_address",
          "type": "address"
        }
      ],
      "name": "setRebaseHooksAddr",
      "outputs": [],
      "payable": false,
      "stateMutability": "nonpayable",
      "type": "function"
    },
    {
      "constant": false,
      "inputs": [
        {
          "internalType": "address",
          "name": "_asset",
          "type": "address"
        },
        {
          "internalType": "uint256",
          "name": "_amount",
          "type": "uint256"
        }
      ],
      "name": "transferToken",
      "outputs": [],
      "payable": false,
      "stateMutability": "nonpayable",
      "type": "function"
    },
    {
      "constant": true,
      "inputs": [],
      "name": "uniswapAddr",
      "outputs": [
        {
          "internalType": "address",
          "name": "",
          "type": "address"
        }
      ],
      "payable": false,
      "stateMutability": "view",
      "type": "function"
    },
    {
      "constant": false,
      "inputs": [
        {
          "internalType": "address",
          "name": "_addr",
          "type": "address"
        }
      ],
      "name": "removeStrategy",
      "outputs": [],
      "payable": false,
      "stateMutability": "nonpayable",
      "type": "function"
    },
    {
      "constant": true,
      "inputs": [],
      "name": "vaultBuffer",
      "outputs": [
        {
          "internalType": "uint256",
          "name": "",
          "type": "uint256"
        }
      ],
      "payable": false,
      "stateMutability": "view",
      "type": "function"
    },
    {
      "constant": false,
      "inputs": [
        {
          "internalType": "string",
          "name": "symbol",
          "type": "string"
        }
      ],
      "name": "priceUSDRedeem",
      "outputs": [
        {
          "internalType": "uint256",
          "name": "",
          "type": "uint256"
        }
      ],
      "payable": false,
      "stateMutability": "nonpayable",
      "type": "function"
    },
    {
      "constant": false,
      "inputs": [
        {
          "internalType": "address",
          "name": "_priceProvider",
          "type": "address"
        }
      ],
      "name": "setPriceProvider",
      "outputs": [],
      "payable": false,
      "stateMutability": "nonpayable",
      "type": "function"
    },
    {
      "constant": false,
      "inputs": [],
      "name": "harvest",
      "outputs": [],
      "payable": false,
      "stateMutability": "nonpayable",
      "type": "function"
    },
    {
      "constant": false,
      "inputs": [
        {
          "internalType": "address",
          "name": "_asset",
          "type": "address"
        }
      ],
      "name": "supportAsset",
      "outputs": [],
      "payable": false,
      "stateMutability": "nonpayable",
      "type": "function"
    },
    {
      "constant": false,
      "inputs": [
        {
          "internalType": "address[]",
          "name": "_strategyAddresses",
          "type": "address[]"
        },
        {
          "internalType": "uint256[]",
          "name": "_weights",
          "type": "uint256[]"
        }
      ],
      "name": "setStrategyWeights",
      "outputs": [],
      "payable": false,
      "stateMutability": "nonpayable",
      "type": "function"
    },
    {
      "constant": true,
      "inputs": [],
      "name": "rebaseThreshold",
      "outputs": [
        {
          "internalType": "uint256",
          "name": "",
          "type": "uint256"
        }
      ],
      "payable": false,
      "stateMutability": "view",
      "type": "function"
    },
    {
      "constant": true,
      "inputs": [],
      "name": "rebasePaused",
      "outputs": [
        {
          "internalType": "bool",
          "name": "",
          "type": "bool"
        }
      ],
      "payable": false,
      "stateMutability": "view",
      "type": "function"
    },
    {
      "constant": true,
      "inputs": [],
      "name": "strategistAddr",
      "outputs": [
        {
          "internalType": "address",
          "name": "",
          "type": "address"
        }
      ],
      "payable": false,
      "stateMutability": "view",
      "type": "function"
    },
    {
      "constant": false,
      "inputs": [],
      "name": "claimGovernance",
      "outputs": [],
      "payable": false,
      "stateMutability": "nonpayable",
      "type": "function"
    },
    {
      "constant": false,
      "inputs": [],
      "name": "unpauseDeposits",
      "outputs": [],
      "payable": false,
      "stateMutability": "nonpayable",
      "type": "function"
    },
    {
      "constant": false,
      "inputs": [
        {
          "internalType": "string",
          "name": "symbol",
          "type": "string"
        }
      ],
      "name": "priceUSDMint",
      "outputs": [
        {
          "internalType": "uint256",
          "name": "",
          "type": "uint256"
        }
      ],
      "payable": false,
      "stateMutability": "nonpayable",
      "type": "function"
    },
    {
      "constant": false,
      "inputs": [
        {
          "internalType": "address",
          "name": "_address",
          "type": "address"
        }
      ],
      "name": "setStrategistAddr",
      "outputs": [],
      "payable": false,
      "stateMutability": "nonpayable",
      "type": "function"
    },
    {
      "constant": true,
      "inputs": [],
      "name": "rebaseHooksAddr",
      "outputs": [
        {
          "internalType": "address",
          "name": "",
          "type": "address"
        }
      ],
      "payable": false,
      "stateMutability": "view",
      "type": "function"
    },
    {
      "constant": false,
      "inputs": [
        {
          "internalType": "address",
          "name": "_strategyFromAddress",
          "type": "address"
        },
        {
          "internalType": "address",
          "name": "_strategyToAddress",
          "type": "address"
        },
        {
          "internalType": "address[]",
          "name": "_assets",
          "type": "address[]"
        },
        {
          "internalType": "uint256[]",
          "name": "_amounts",
          "type": "uint256[]"
        }
      ],
      "name": "reallocate",
      "outputs": [],
      "payable": false,
      "stateMutability": "nonpayable",
      "type": "function"
    },
    {
      "constant": false,
      "inputs": [
        {
          "internalType": "uint256",
          "name": "_vaultBuffer",
          "type": "uint256"
        }
      ],
      "name": "setVaultBuffer",
      "outputs": [],
      "payable": false,
      "stateMutability": "nonpayable",
      "type": "function"
    },
    {
      "constant": true,
      "inputs": [],
      "name": "autoAllocateThreshold",
      "outputs": [
        {
          "internalType": "uint256",
          "name": "",
          "type": "uint256"
        }
      ],
      "payable": false,
      "stateMutability": "view",
      "type": "function"
    },
    {
      "constant": false,
      "inputs": [
        {
          "internalType": "address",
          "name": "_address",
          "type": "address"
        }
      ],
      "name": "setUniswapAddr",
      "outputs": [],
      "payable": false,
      "stateMutability": "nonpayable",
      "type": "function"
    },
    {
      "constant": false,
      "inputs": [
        {
          "internalType": "uint256",
          "name": "_threshold",
          "type": "uint256"
        }
      ],
      "name": "setAutoAllocateThreshold",
      "outputs": [],
      "payable": false,
      "stateMutability": "nonpayable",
      "type": "function"
    },
    {
      "constant": true,
      "inputs": [],
      "name": "priceProvider",
      "outputs": [
        {
          "internalType": "address",
          "name": "",
          "type": "address"
        }
      ],
      "payable": false,
      "stateMutability": "view",
      "type": "function"
    },
    {
      "constant": false,
      "inputs": [
        {
          "internalType": "uint256",
          "name": "_threshold",
          "type": "uint256"
        }
      ],
      "name": "setRebaseThreshold",
      "outputs": [],
      "payable": false,
      "stateMutability": "nonpayable",
      "type": "function"
    },
    {
      "constant": false,
      "inputs": [],
      "name": "pauseRebase",
      "outputs": [],
      "payable": false,
      "stateMutability": "nonpayable",
      "type": "function"
    },
    {
      "constant": true,
      "inputs": [],
      "name": "isGovernor",
      "outputs": [
        {
          "internalType": "bool",
          "name": "",
          "type": "bool"
        }
      ],
      "payable": false,
      "stateMutability": "view",
      "type": "function"
    },
    {
      "constant": false,
      "inputs": [
        {
          "internalType": "address",
          "name": "_addr",
          "type": "address"
        },
        {
          "internalType": "uint256",
          "name": "_targetWeight",
          "type": "uint256"
        }
      ],
      "name": "addStrategy",
      "outputs": [],
      "payable": false,
      "stateMutability": "nonpayable",
      "type": "function"
    },
    {
      "constant": false,
      "inputs": [
        {
          "internalType": "address",
          "name": "_newGovernor",
          "type": "address"
        }
      ],
      "name": "transferGovernance",
      "outputs": [],
      "payable": false,
      "stateMutability": "nonpayable",
      "type": "function"
    },
    {
      "constant": false,
      "inputs": [
        {
          "internalType": "uint256",
          "name": "_redeemFeeBps",
          "type": "uint256"
        }
      ],
      "name": "setRedeemFeeBps",
      "outputs": [],
      "payable": false,
      "stateMutability": "nonpayable",
      "type": "function"
    },
    {
      "constant": false,
      "inputs": [
        {
          "internalType": "address",
          "name": "newImpl",
          "type": "address"
        }
      ],
      "name": "setAdminImpl",
      "outputs": [],
      "payable": false,
      "stateMutability": "nonpayable",
      "type": "function"
    },
    {
      "anonymous": false,
      "inputs": [
        {
          "indexed": false,
          "internalType": "address",
          "name": "_asset",
          "type": "address"
        }
      ],
      "name": "AssetSupported",
      "type": "event"
    },
    {
      "anonymous": false,
      "inputs": [
        {
          "indexed": false,
          "internalType": "address",
          "name": "_addr",
          "type": "address"
        }
      ],
      "name": "StrategyAdded",
      "type": "event"
    },
    {
      "anonymous": false,
      "inputs": [
        {
          "indexed": false,
          "internalType": "address",
          "name": "_addr",
          "type": "address"
        }
      ],
      "name": "StrategyRemoved",
      "type": "event"
    },
    {
      "anonymous": false,
      "inputs": [
        {
          "indexed": false,
          "internalType": "address",
          "name": "_addr",
          "type": "address"
        },
        {
          "indexed": false,
          "internalType": "uint256",
          "name": "_value",
          "type": "uint256"
        }
      ],
      "name": "Mint",
      "type": "event"
    },
    {
      "anonymous": false,
      "inputs": [
        {
          "indexed": false,
          "internalType": "address",
          "name": "_addr",
          "type": "address"
        },
        {
          "indexed": false,
          "internalType": "uint256",
          "name": "_value",
          "type": "uint256"
        }
      ],
      "name": "Redeem",
      "type": "event"
    },
    {
      "anonymous": false,
      "inputs": [
        {
          "indexed": false,
          "internalType": "address[]",
          "name": "_strategyAddresses",
          "type": "address[]"
        },
        {
          "indexed": false,
          "internalType": "uint256[]",
          "name": "weights",
          "type": "uint256[]"
        }
      ],
      "name": "StrategyWeightsUpdated",
      "type": "event"
    },
    {
      "anonymous": false,
      "inputs": [],
      "name": "DepositsPaused",
      "type": "event"
    },
    {
      "anonymous": false,
      "inputs": [],
      "name": "DepositsUnpaused",
      "type": "event"
    },
    {
      "anonymous": false,
      "inputs": [
        {
          "indexed": true,
          "internalType": "address",
          "name": "previousGovernor",
          "type": "address"
        },
        {
          "indexed": true,
          "internalType": "address",
          "name": "newGovernor",
          "type": "address"
        }
      ],
      "name": "PendingGovernorshipTransfer",
      "type": "event"
    },
    {
      "anonymous": false,
      "inputs": [
        {
          "indexed": true,
          "internalType": "address",
          "name": "previousGovernor",
          "type": "address"
        },
        {
          "indexed": true,
          "internalType": "address",
          "name": "newGovernor",
          "type": "address"
        }
      ],
      "name": "GovernorshipTransferred",
      "type": "event"
    }
  ],
  "transactionHash": "0x248e3dd509e1039eecb1109301dab3e91e51e88c20df135342858667a62b1b00",
  "args": [],
  "solcInputHash": "e0a9e0bb392301ddd8a143004a57e0b9",
  "bytecode": "0x60806040526037805461ffff60a01b19167501000000000000000000000000000000000000000000179055603d80546001600160a01b0319908116909155603e805482169055603f8054909116905562000062336001600160e01b03620000bb16565b620000756001600160e01b03620000ce16565b6001600160a01b031660006001600160a01b03167fc7c0c772add429241571afb3805861fb3cfa2af374534088b76cdb4325a87e9a60405160405180910390a3620000e2565b60008051602062002a9f83398151915255565b60008051602062002a9f8339815191525490565b6129ad80620000f26000396000f3fe608060405234801561001057600080fd5b50600436106102275760003560e01c8063570d8e1d11610130578063aea173d5116100b8578063c7af33521161007c578063c7af3352146106f6578063c9411e22146106fe578063d38bfff41461072a578063eb03654b14610750578063fc0cfeee1461076d57610227565b8063aea173d514610686578063b2c9336d146106ac578063b888879e146106c9578063b890ebf6146106d1578063c5f00841146106ee57610227565b8063773540b3116100ff578063773540b31461055c578063796be57b146105825780637fe2d3931461058a5780638ec489a2146106615780639fa1826e1461067e57610227565b8063570d8e1d146104d65780635d36b190146104de57806363d8882a146104e6578063686b37ca146104ee57610227565b8063175188e8116101b35780634641257d116101825780634641257d146103da5780634cd55c2d146103e25780634dab68b31461040857806352d38e5d146104c657806353ca9f24146104ce57610227565b8063175188e8146103185780631edfe3da1461033e57806329a903ec14610346578063372aa224146103b457610227565b80630c340a24116101fa5780630c340a24146102745780630e5c011e146102985780631060a27c146102be5780631072cbea146102e4578063128a8b051461031057610227565b8063021919801461022c57806302befd241461023657806309f49bf51461025257806309f6442c1461025a575b600080fd5b610234610793565b005b61023e610818565b604080519115158252519081900360200190f35b610234610828565b61026261087e565b60408051918252519081900360200190f35b61027c610884565b604080516001600160a01b039092168252519081900360200190f35b610234600480360360208110156102ae57600080fd5b50356001600160a01b0316610894565b610234600480360360208110156102d457600080fd5b50356001600160a01b03166108ec565b610234600480360360408110156102fa57600080fd5b506001600160a01b038135169060200135610955565b61027c610a33565b6102346004803603602081101561032e57600080fd5b50356001600160a01b0316610a42565b610262610c82565b6102626004803603602081101561035c57600080fd5b810190602081018135600160201b81111561037657600080fd5b82018360208201111561038857600080fd5b803590602001918460018302840111600160201b831117156103a957600080fd5b509092509050610c88565b610234600480360360208110156103ca57600080fd5b50356001600160a01b0316610cd2565b610234610d3b565b610234600480360360208110156103f857600080fd5b50356001600160a01b0316610dc1565b6102346004803603604081101561041e57600080fd5b810190602081018135600160201b81111561043857600080fd5b82018360208201111561044a57600080fd5b803590602001918460208302840111600160201b8311171561046b57600080fd5b919390929091602081019035600160201b81111561048857600080fd5b82018360208201111561049a57600080fd5b803590602001918460208302840111600160201b831117156104bb57600080fd5b509092509050610f1e565b6102626110c1565b61023e6110c7565b61027c6110d7565b6102346110e6565b610234611148565b6102626004803603602081101561050457600080fd5b810190602081018135600160201b81111561051e57600080fd5b82018360208201111561053057600080fd5b803590602001918460018302840111600160201b8311171561055157600080fd5b5090925090506111c7565b6102346004803603602081101561057257600080fd5b50356001600160a01b0316611208565b61027c611271565b610234600480360360808110156105a057600080fd5b6001600160a01b038235811692602081013590911691810190606081016040820135600160201b8111156105d357600080fd5b8201836020820111156105e557600080fd5b803590602001918460208302840111600160201b8311171561060657600080fd5b919390929091602081019035600160201b81111561062357600080fd5b82018360208201111561063557600080fd5b803590602001918460208302840111600160201b8311171561065657600080fd5b509092509050611280565b6102346004803603602081101561067757600080fd5b503561167d565b610262611716565b6102346004803603602081101561069c57600080fd5b50356001600160a01b031661171c565b610234600480360360208110156106c257600080fd5b5035611785565b61027c6117d1565b610234600480360360208110156106e757600080fd5b50356117e0565b61023461182c565b61023e611888565b6102346004803603604081101561071457600080fd5b506001600160a01b0381351690602001356118ab565b6102346004803603602081101561074057600080fd5b50356001600160a01b0316611a11565b6102346004803603602081101561076657600080fd5b5035611aab565b6102346004803603602081101561078357600080fd5b50356001600160a01b0316611af7565b61079b611888565b6107da576040805162461bcd60e51b815260206004820152601a60248201526000805160206128a8833981519152604482015290519081900360640190fd5b6037805460ff60a81b1916600160a81b1790556040517fdeeb69430b7153361c25d630947115165636e6a723fa8daea4b0de34b324745990600090a1565b603754600160a81b900460ff1681565b610830611888565b61086f576040805162461bcd60e51b815260206004820152601a60248201526000805160206128a8833981519152604482015290519081900360640190fd5b6037805460ff60a01b19169055565b60385481565b600061088e611b62565b90505b90565b333014806108a557506108a5611888565b6108e05760405162461bcd60e51b815260040180806020018281038252602381526020018061285d6023913960400191505060405180910390fd5b6108e981611b87565b50565b6108f4611888565b610933576040805162461bcd60e51b815260206004820152601a60248201526000805160206128a8833981519152604482015290519081900360640190fd5b603d80546001600160a01b0319166001600160a01b0392909216919091179055565b61095d611888565b61099c576040805162461bcd60e51b815260206004820152601a60248201526000805160206128a8833981519152604482015290519081900360640190fd5b816001600160a01b031663a9059cbb6109b3610884565b836040518363ffffffff1660e01b815260040180836001600160a01b03166001600160a01b0316815260200182815260200192505050602060405180830381600087803b158015610a0357600080fd5b505af1158015610a17573d6000803e3d6000fd5b505050506040513d6020811015610a2d57600080fd5b50505050565b603e546001600160a01b031681565b610a4a611888565b610a89576040805162461bcd60e51b815260206004820152601a60248201526000805160206128a8833981519152604482015290519081900360640190fd5b6001600160a01b03811660009081526035602052604090205460ff16610aeb576040805162461bcd60e51b815260206004820152601260248201527114dd1c985d1959de481b9bdd08185919195960721b604482015290519081900360640190fd5b60365460005b603654811015610b3d57826001600160a01b031660368281548110610b1257fe5b6000918252602090912001546001600160a01b03161415610b3557809150610b3d565b600101610af1565b50603654811015610c5c57603680546000198101908110610b5a57fe5b600091825260209091200154603680546001600160a01b039092169183908110610b8057fe5b600091825260209091200180546001600160a01b0319166001600160a01b03929092169190911790556036805490610bbc90600019830161281f565b506000829050806001600160a01b03166328a070256040518163ffffffff1660e01b8152600401600060405180830381600087803b158015610bfd57600080fd5b505af1158015610c11573d6000803e3d6000fd5b50505050610c1e83611b87565b604080516001600160a01b038516815290517f09a1db4b80c32706328728508c941a6b954f31eb5affd32f236c1fd405f8fea49181900360200190a1505b506001600160a01b03166000908152603560205260408120805460ff1916815560010155565b60395481565b6000610cc983838080601f0160208091040260200160405190810160405280939291908181526020018383808284376000920191909152506120b892505050565b90505b92915050565b610cda611888565b610d19576040805162461bcd60e51b815260206004820152601a60248201526000805160206128a8833981519152604482015290519081900360640190fd5b603780546001600160a01b0319166001600160a01b0392909216919091179055565b610d43611888565b610d82576040805162461bcd60e51b815260206004820152601a60248201526000805160206128a8833981519152604482015290519081900360640190fd5b60005b6036548110156108e957610db960368281548110610d9f57fe5b6000918252602090912001546001600160a01b0316611b87565b600101610d85565b610dc9611888565b610e08576040805162461bcd60e51b815260206004820152601a60248201526000805160206128a8833981519152604482015290519081900360640190fd5b6001600160a01b03811660009081526033602052604090205460ff1615610e76576040805162461bcd60e51b815260206004820152601760248201527f417373657420616c726561647920737570706f72746564000000000000000000604482015290519081900360640190fd5b604080516020808201835260018083526001600160a01b0385166000818152603384528581209451855460ff1916901515179094556034805492830181559093527f46bddb1178e94d7f2892ff5f366840eb658911794f2c3a44c450aa2c505186c10180546001600160a01b03191683179055825191825291517f4f1ac48525e50059cc1cc6e0e1940ece0dd653a4db4841538d6aef036be2fb7b929181900390910190a150565b610f26611888565b610f65576040805162461bcd60e51b815260206004820152601a60248201526000805160206128a8833981519152604482015290519081900360640190fd5b828114610fb5576040805162461bcd60e51b81526020600482015260196024820152780a0c2e4c2dacae8cae440d8cadccee8d040dad2e6dac2e8c6d603b1b604482015290519081900360640190fd5b60005b8381101561102757828282818110610fcc57fe5b9050602002013560356000878785818110610fe357fe5b905060200201356001600160a01b03166001600160a01b03166001600160a01b03168152602001908152602001600020600101819055508080600101915050610fb8565b507f96f2c15ff9c9cea757ec12e3f9aaa7705c3d0a154ee1e71c6e1221c8de0b7762848484846040518080602001806020018381038352878782818152602001925060200280828437600083820152601f01601f19169091018481038352858152602090810191508690860280828437600083820152604051601f909101601f19169092018290039850909650505050505050a150505050565b603b5481565b603754600160a01b900460ff1681565b603f546001600160a01b031681565b6110ee6121a7565b6001600160a01b0316336001600160a01b03161461113d5760405162461bcd60e51b81526004018080602001828103825260308152602001806129496030913960400191505060405180910390fd5b611146336121cc565b565b611150611888565b61118f576040805162461bcd60e51b815260206004820152601a60248201526000805160206128a8833981519152604482015290519081900360640190fd5b6037805460ff60a81b191690556040517f823084e804e36d8971e8b86749b6b0ace7b9f87ed272bef910c1e72d123eeb4890600090a1565b6000610cc983838080601f01602080910402602001604051908101604052809392919081815260200183838082843760009201919091525061227792505050565b611210611888565b61124f576040805162461bcd60e51b815260206004820152601a60248201526000805160206128a8833981519152604482015290519081900360640190fd5b603f80546001600160a01b0319166001600160a01b0392909216919091179055565b603d546001600160a01b031681565b603f546001600160a01b031633148061129c575061129c611888565b6112d75760405162461bcd60e51b81526004018080602001828103825260288152602001806128806028913960400191505060405180910390fd5b6001600160a01b03861660009081526035602052604090205460ff1661133c576040805162461bcd60e51b8152602060048201526015602482015274496e76616c69642066726f6d20537472617465677960581b604482015290519081900360640190fd5b6001600160a01b03851660009081526035602052604090205460ff1661139f576040805162461bcd60e51b8152602060048201526013602482015272496e76616c696420746f20537472617465677960681b604482015290519081900360640190fd5b8281146113ef576040805162461bcd60e51b81526020600482015260196024820152780a0c2e4c2dacae8cae440d8cadccee8d040dad2e6dac2e8c6d603b1b604482015290519081900360640190fd5b858560005b8581101561167257816001600160a01b031663aa388af688888481811061141757fe5b905060200201356001600160a01b03166040518263ffffffff1660e01b815260040180826001600160a01b03166001600160a01b0316815260200191505060206040518083038186803b15801561146d57600080fd5b505afa158015611481573d6000803e3d6000fd5b505050506040513d602081101561149757600080fd5b50516114de576040805162461bcd60e51b8152602060048201526011602482015270105cdcd95d081d5b9cdd5c1c1bdc9d1959607a1b604482015290519081900360640190fd5b826001600160a01b031663d9caed12838989858181106114fa57fe5b905060200201356001600160a01b031688888681811061151657fe5b905060200201356040518463ffffffff1660e01b815260040180846001600160a01b03166001600160a01b03168152602001836001600160a01b03166001600160a01b031681526020018281526020019350505050602060405180830381600087803b15801561158557600080fd5b505af1158015611599573d6000803e3d6000fd5b505050506040513d60208110156115af57600080fd5b50506001600160a01b0382166347e7ef248888848181106115cc57fe5b905060200201356001600160a01b03168787858181106115e857fe5b905060200201356040518363ffffffff1660e01b815260040180836001600160a01b03166001600160a01b0316815260200182815260200192505050602060405180830381600087803b15801561163e57600080fd5b505af1158015611652573d6000803e3d6000fd5b505050506040513d602081101561166857600080fd5b50506001016113f4565b505050505050505050565b611685611888565b6116c4576040805162461bcd60e51b815260206004820152601a60248201526000805160206128a8833981519152604482015290519081900360640190fd5b670de0b6b3a7640000811115611711576040805162461bcd60e51b815260206004820152600d60248201526c496e76616c69642076616c756560981b604482015290519081900360640190fd5b603955565b603a5481565b611724611888565b611763576040805162461bcd60e51b815260206004820152601a60248201526000805160206128a8833981519152604482015290519081900360640190fd5b603e80546001600160a01b0319166001600160a01b0392909216919091179055565b61178d611888565b6117cc576040805162461bcd60e51b815260206004820152601a60248201526000805160206128a8833981519152604482015290519081900360640190fd5b603a55565b6037546001600160a01b031681565b6117e8611888565b611827576040805162461bcd60e51b815260206004820152601a60248201526000805160206128a8833981519152604482015290519081900360640190fd5b603b55565b611834611888565b611873576040805162461bcd60e51b815260206004820152601a60248201526000805160206128a8833981519152604482015290519081900360640190fd5b6037805460ff60a01b1916600160a01b179055565b6000611892611b62565b6001600160a01b0316336001600160a01b031614905090565b6118b3611888565b6118f2576040805162461bcd60e51b815260206004820152601a60248201526000805160206128a8833981519152604482015290519081900360640190fd5b6001600160a01b03821660009081526035602052604090205460ff1615611959576040805162461bcd60e51b815260206004820152601660248201527514dd1c985d1959de48185b1c9958591e48185919195960521b604482015290519081900360640190fd5b604080518082018252600180825260208083018581526001600160a01b0387166000818152603584528681209551865460ff191690151517865591519484019490945560368054938401815590527f4a11f94e20a93c79f6ec743a1954ec4fc2c08429ae2122118bf234b2185c81b890910180546001600160a01b03191683179055825191825291517f3f008fd510eae7a9e7bee13513d7b83bef8003d488b5a3d0b0da4de71d6846f1929181900390910190a15050565b611a19611888565b611a58576040805162461bcd60e51b815260206004820152601a60248201526000805160206128a8833981519152604482015290519081900360640190fd5b611a61816122df565b806001600160a01b0316611a73611b62565b6001600160a01b03167fa39cc5eb22d0f34d8beaefee8a3f17cc229c1a1d1ef87a5ad47313487b1c4f0d60405160405180910390a350565b611ab3611888565b611af2576040805162461bcd60e51b815260206004820152601a60248201526000805160206128a8833981519152604482015290519081900360640190fd5b603855565b611aff611888565b611b3e576040805162461bcd60e51b815260206004820152601a60248201526000805160206128a8833981519152604482015290519081900360640190fd5b7fa2bd3d3cf188a41358c8b401076eb59066b09dec5775650c0de4c55187d17bd955565b7f7bea13895fa79d2831e0a9e28edede30099005a50d652d8957cf8a607ee6ca4a5490565b60008190506000816001600160a01b031663125f9e336040518163ffffffff1660e01b815260040160206040518083038186803b158015611bc757600080fd5b505afa158015611bdb573d6000803e3d6000fd5b505050506040513d6020811015611bf157600080fd5b505190506001600160a01b038116156120b357816001600160a01b0316630242241d6040518163ffffffff1660e01b8152600401600060405180830381600087803b158015611c3f57600080fd5b505af1158015611c53573d6000803e3d6000fd5b5050603e546001600160a01b03161591506120b39050576000826001600160a01b031663125f9e336040518163ffffffff1660e01b815260040160206040518083038186803b158015611ca557600080fd5b505afa158015611cb9573d6000803e3d6000fd5b505050506040513d6020811015611ccf57600080fd5b5051604080516370a0823160e01b815230600482015290519192506000916001600160a01b038416916370a08231916024808301926020929190829003018186803b158015611d1d57600080fd5b505afa158015611d31573d6000803e3d6000fd5b505050506040513d6020811015611d4757600080fd5b5051905080156120b057603e54611d72906001600160a01b038481169116600063ffffffff61230316565b603e54611d92906001600160a01b0384811691168363ffffffff61230316565b60408051600380825260808201909252606091602082018380388339019050509050846001600160a01b031663125f9e336040518163ffffffff1660e01b815260040160206040518083038186803b158015611ded57600080fd5b505afa158015611e01573d6000803e3d6000fd5b505050506040513d6020811015611e1757600080fd5b505181518290600090611e2657fe5b6001600160a01b03928316602091820292909201810191909152603e54604080516315ab88c960e31b81529051919093169263ad5c4648926004808301939192829003018186803b158015611e7a57600080fd5b505afa158015611e8e573d6000803e3d6000fd5b505050506040513d6020811015611ea457600080fd5b5051815182906001908110611eb557fe5b60200260200101906001600160a01b031690816001600160a01b0316815250506034600181548110611ee357fe5b9060005260206000200160009054906101000a90046001600160a01b031681600281518110611f0e57fe5b6001600160a01b039283166020918202929092010152603e54166338ed17398360008430611f444261070863ffffffff61241616565b6040518663ffffffff1660e01b81526004018086815260200185815260200180602001846001600160a01b03166001600160a01b03168152602001838152602001828103825285818151815260200191508051906020019060200280838360005b83811015611fbd578181015183820152602001611fa5565b505050509050019650505050505050600060405180830381600087803b158015611fe657600080fd5b505af1158015611ffa573d6000803e3d6000fd5b505050506040513d6000823e601f3d908101601f19168201604052602081101561202357600080fd5b8101908080516040519392919084600160201b82111561204257600080fd5b90830190602082018581111561205757600080fd5b82518660208202830111600160201b8211171561207357600080fd5b82525081516020918201928201910280838360005b838110156120a0578181015183820152602001612088565b5050505090500160405250505050505b50505b505050565b603754604051637bf0c21560e01b8152602060048201818152845160248401528451600094610ccc94600a946001600160a01b0390921693637bf0c21593899391928392604490910191908501908083838d5b8381101561212357818101518382015260200161210b565b50505050905090810190601f1680156121505780820380516001836020036101000a031916815260200191505b5092505050602060405180830381600087803b15801561216f57600080fd5b505af1158015612183573d6000803e3d6000fd5b505050506040513d602081101561219957600080fd5b50519063ffffffff61247016565b7f44c4d30b2eaad5130ad70c3ba6972730566f3e6359ab83e800d905c61b1c51db5490565b6001600160a01b038116612227576040805162461bcd60e51b815260206004820152601a60248201527f4e657720476f7665726e6f722069732061646472657373283029000000000000604482015290519081900360640190fd5b806001600160a01b0316612239611b62565b6001600160a01b03167fc7c0c772add429241571afb3805861fb3cfa2af374534088b76cdb4325a87e9a60405160405180910390a36108e9816124ca565b60375460405163019af6bf60e41b8152602060048201818152845160248401528451600094610ccc94600a946001600160a01b03909216936319af6bf093899391928392604490910191908501908083838d831561212357818101518382015260200161210b565b7f44c4d30b2eaad5130ad70c3ba6972730566f3e6359ab83e800d905c61b1c51db55565b801580612389575060408051636eb1769f60e11b81523060048201526001600160a01b03848116602483015291519185169163dd62ed3e91604480820192602092909190829003018186803b15801561235b57600080fd5b505afa15801561236f573d6000803e3d6000fd5b505050506040513d602081101561238557600080fd5b5051155b6123c45760405162461bcd60e51b81526004018080602001828103825260368152602001806129136036913960400191505060405180910390fd5b604080516001600160a01b038416602482015260448082018490528251808303909101815260649091019091526020810180516001600160e01b031663095ea7b360e01b1790526120b39084906124ee565b600082820183811015610cc9576040805162461bcd60e51b815260206004820152601b60248201527f536166654d6174683a206164646974696f6e206f766572666c6f770000000000604482015290519081900360640190fd5b6000808260000b131561249b5761249483600084900b600a0a63ffffffff6126a616565b92506124c3565b60008260000b12156124c3576124c0836000848103900b600a0a63ffffffff6126ff16565b92505b5090919050565b7f7bea13895fa79d2831e0a9e28edede30099005a50d652d8957cf8a607ee6ca4a55565b612500826001600160a01b0316612741565b612551576040805162461bcd60e51b815260206004820152601f60248201527f5361666545524332303a2063616c6c20746f206e6f6e2d636f6e747261637400604482015290519081900360640190fd5b60006060836001600160a01b0316836040518082805190602001908083835b6020831061258f5780518252601f199092019160209182019101612570565b6001836020036101000a0380198251168184511680821785525050505050509050019150506000604051808303816000865af19150503d80600081146125f1576040519150601f19603f3d011682016040523d82523d6000602084013e6125f6565b606091505b50915091508161264d576040805162461bcd60e51b815260206004820181905260248201527f5361666545524332303a206c6f772d6c6576656c2063616c6c206661696c6564604482015290519081900360640190fd5b805115610a2d5780806020019051602081101561266957600080fd5b5051610a2d5760405162461bcd60e51b815260040180806020018281038252602a8152602001806128e9602a913960400191505060405180910390fd5b6000826126b557506000610ccc565b828202828482816126c257fe5b0414610cc95760405162461bcd60e51b81526004018080602001828103825260218152602001806128c86021913960400191505060405180910390fd5b6000610cc983836040518060400160405280601a81526020017f536166654d6174683a206469766973696f6e206279207a65726f00000000000081525061277d565b6000813f7fc5d2460186f7233c927e7db2dcc703c0e500b653ca82273b7bfad8045d85a47081811480159061277557508115155b949350505050565b600081836128095760405162461bcd60e51b81526004018080602001828103825283818151815260200191508051906020019080838360005b838110156127ce5781810151838201526020016127b6565b50505050905090810190601f1680156127fb5780820380516001836020036101000a031916815260200191505b509250505060405180910390fd5b50600083858161281557fe5b0495945050505050565b8154818355818111156120b3576000838152602090206120b391810190830161089191905b808211156128585760008155600101612844565b509056fe43616c6c6572206973206e6f7420746865205661756c74206f7220476f7665726e6f7243616c6c6572206973206e6f74207468652053747261746567697374206f7220476f7665726e6f7243616c6c6572206973206e6f742074686520476f7665726e6f72000000000000536166654d6174683a206d756c7469706c69636174696f6e206f766572666c6f775361666545524332303a204552433230206f7065726174696f6e20646964206e6f7420737563636565645361666545524332303a20617070726f76652066726f6d206e6f6e2d7a65726f20746f206e6f6e2d7a65726f20616c6c6f77616e63654f6e6c79207468652070656e64696e6720476f7665726e6f722063616e20636f6d706c6574652074686520636c61696da265627a7a723158207574a54b16b1c5b0ce86ec003b463e2ac920a842acb27c395b37d9c9d27cc31564736f6c634300050b00327bea13895fa79d2831e0a9e28edede30099005a50d652d8957cf8a607ee6ca4a",
  "devdoc": {
    "methods": {
      "addStrategy(address,uint256)": {
        "details": "Add a strategy to the Vault.",
        "params": {
          "_addr": "Address of the strategy to add",
          "_targetWeight": "Target percentage of asset allocation to strategy"
        }
      },
      "claimGovernance()": {
        "details": "Claim Governance of the contract to a new account (`newGovernor`). Can only be called by the new Governor."
      },
      "governor()": {
        "details": "Returns the address of the current Governor."
      },
      "harvest()": {
        "details": "Collect reward tokens from all strategies and swap for supported     stablecoin via Uniswap"
      },
      "harvest(address)": {
        "details": "Collect reward tokens for a specific strategy and swap for supported     stablecoin via Uniswap",
        "params": {
          "_strategyAddr": "Address of the strategy to collect rewards from"
        }
      },
      "isGovernor()": {
        "details": "Returns true if the caller is the current Governor."
      },
      "pauseDeposits()": {
        "details": "Set the deposit paused flag to true to prevent deposits."
      },
      "pauseRebase()": {
        "details": "Set the deposit paused flag to true to prevent rebasing."
      },
      "priceUSDMint(string)": {
        "details": "Returns the total price in 18 digit USD for a given asset.     Using Min since min is what we use for mint pricing",
        "params": {
          "symbol": "String symbol of the asset"
        },
        "return": "uint256 USD price of 1 of the asset"
      },
      "priceUSDRedeem(string)": {
        "details": "Returns the total price in 18 digit USD for a given asset.     Using Max since max is what we use for redeem pricing",
        "params": {
          "symbol": "String symbol of the asset"
        },
        "return": "uint256 USD price of 1 of the asset"
      },
      "reallocate(address,address,address[],uint256[])": {
        "params": {
          "_amounts": "Array of amounts of each corresponding asset to move.",
          "_assets": "Array of asset address that will be moved",
          "_strategyFromAddress": "Address of Strategy to move assets from.",
          "_strategyToAddress": "Address of Strategy to move assets to."
        }
      },
      "removeStrategy(address)": {
        "details": "Remove a strategy from the Vault. Removes all invested assets and returns them to the Vault.",
        "params": {
          "_addr": "Address of the strategy to remove"
        }
      },
      "setAdminImpl(address)": {
        "details": "set the implementation for the admin, this needs to be in a base class else we cannot set it",
        "params": {
          "newImpl": "address pf the implementation"
        }
      },
      "setAutoAllocateThreshold(uint256)": {
        "details": "Sets the minimum amount of OUSD in a mint to trigger an automatic allocation of funds afterwords.",
        "params": {
          "_threshold": "OUSD amount with 18 fixed decimals."
        }
      },
      "setPriceProvider(address)": {
        "details": "Set address of price provider.",
        "params": {
          "_priceProvider": "Address of price provider"
        }
      },
      "setRebaseHooksAddr(address)": {
        "details": "Set address of RebaseHooks contract which provides hooks for rebase so things like AMMs can be synced with updated balances.",
        "params": {
          "_address": "Address of RebaseHooks contract"
        }
      },
      "setRebaseThreshold(uint256)": {
        "details": "Set a minimum amount of OUSD in a mint or redeem that triggers a rebase",
        "params": {
          "_threshold": "OUSD amount with 18 fixed decimals."
        }
      },
      "setRedeemFeeBps(uint256)": {
        "details": "Set a fee in basis points to be charged for a redeem.",
        "params": {
          "_redeemFeeBps": "Basis point fee to be charged"
        }
      },
      "setStrategistAddr(address)": {
        "details": "Set address of Strategist",
        "params": {
          "_address": "Address of Strategist"
        }
      },
      "setStrategyWeights(address[],uint256[])": {
        "params": {
          "_strategyAddresses": "Array of strategy addresses",
          "_weights": "Array of corresponding weights, with 18 decimals.                For ex. 100%=1e18, 30%=3e17."
        }
      },
      "setUniswapAddr(address)": {
        "details": "Set address of Uniswap for performing liquidation of strategy reward tokens",
        "params": {
          "_address": "Address of Uniswap"
        }
      },
      "setVaultBuffer(uint256)": {
        "details": "Set a buffer of assets to keep in the Vault to handle most redemptions without needing to spend gas unwinding assets from a Strategy.",
        "params": {
          "_vaultBuffer": "Percentage using 18 decimals. 100% = 1e18."
        }
      },
      "supportAsset(address)": {
        "details": "Add a supported asset to the contract, i.e. one that can be        to mint OUSD.",
        "params": {
          "_asset": "Address of asset"
        }
      },
      "transferGovernance(address)": {
        "details": "Transfers Governance of the contract to a new account (`newGovernor`). Can only be called by the current Governor. Must be claimed for this to complete",
        "params": {
          "_newGovernor": "Address of the new Governor"
        }
      },
      "transferToken(address,uint256)": {
        "details": "Transfer token to governor. Intended for recovering tokens stuck in     contract, i.e. mistaken sends.",
        "params": {
          "_amount": "Amount of the asset to transfer",
          "_asset": "Address for the asset"
        }
      },
      "unpauseDeposits()": {
        "details": "Set the deposit paused flag to false to enable deposits."
      },
      "unpauseRebase()": {
        "details": "Set the deposit paused flag to true to allow rebasing."
      }
    }
  },
  "userdoc": {
    "methods": {
      "reallocate(address,address,address[],uint256[])": {
        "notice": "Move assets from one Strategy to another"
      },
      "setStrategyWeights(address[],uint256[])": {
        "notice": "Set the weights for multiple strategies."
      }
    }
  }
}