{
  "abi": [
    {
      "constant": false,
      "inputs": [],
      "name": "pauseDeposits",
      "outputs": [],
      "payable": false,
      "stateMutability": "nonpayable",
      "type": "function"
    },
    {
      "constant": true,
      "inputs": [],
      "name": "depositPaused",
      "outputs": [
        {
          "internalType": "bool",
          "name": "",
          "type": "bool"
        }
      ],
      "payable": false,
      "stateMutability": "view",
      "type": "function"
    },
    {
      "constant": false,
      "inputs": [
        {
          "internalType": "address[]",
          "name": "_assets",
          "type": "address[]"
        },
        {
          "internalType": "uint256[]",
          "name": "_amounts",
          "type": "uint256[]"
        }
      ],
      "name": "mintMultiple",
      "outputs": [],
      "payable": false,
      "stateMutability": "nonpayable",
      "type": "function"
    },
    {
      "constant": false,
      "inputs": [],
      "name": "unpauseRebase",
      "outputs": [],
      "payable": false,
      "stateMutability": "nonpayable",
      "type": "function"
    },
    {
      "constant": true,
      "inputs": [],
      "name": "redeemFeeBps",
      "outputs": [
        {
          "internalType": "uint256",
          "name": "",
          "type": "uint256"
        }
      ],
      "payable": false,
      "stateMutability": "view",
      "type": "function"
    },
    {
      "constant": true,
      "inputs": [],
      "name": "governor",
      "outputs": [
        {
          "internalType": "address",
          "name": "",
          "type": "address"
        }
      ],
      "payable": false,
      "stateMutability": "view",
      "type": "function"
    },
    {
      "constant": false,
      "inputs": [
        {
          "internalType": "address",
          "name": "_asset",
          "type": "address"
        },
        {
          "internalType": "uint256",
          "name": "_amount",
          "type": "uint256"
        }
      ],
      "name": "transferToken",
      "outputs": [],
      "payable": false,
      "stateMutability": "nonpayable",
      "type": "function"
    },
    {
      "constant": false,
      "inputs": [
        {
          "internalType": "address",
          "name": "_addr",
          "type": "address"
        }
      ],
      "name": "removeStrategy",
      "outputs": [],
      "payable": false,
      "stateMutability": "nonpayable",
      "type": "function"
    },
    {
      "constant": true,
      "inputs": [],
      "name": "vaultBuffer",
      "outputs": [
        {
          "internalType": "uint256",
          "name": "",
          "type": "uint256"
        }
      ],
      "payable": false,
      "stateMutability": "view",
      "type": "function"
    },
    {
      "constant": false,
      "inputs": [
        {
          "internalType": "string",
          "name": "symbol",
          "type": "string"
        }
      ],
      "name": "priceUSDRedeem",
      "outputs": [
        {
          "internalType": "uint256",
          "name": "",
          "type": "uint256"
        }
      ],
      "payable": false,
      "stateMutability": "nonpayable",
      "type": "function"
    },
    {
      "constant": true,
      "inputs": [],
      "name": "getAllAssets",
      "outputs": [
        {
          "internalType": "address[]",
          "name": "",
          "type": "address[]"
        }
      ],
      "payable": false,
      "stateMutability": "view",
      "type": "function"
    },
    {
      "constant": false,
      "inputs": [],
      "name": "redeemAll",
      "outputs": [],
      "payable": false,
      "stateMutability": "nonpayable",
      "type": "function"
    },
    {
      "constant": true,
      "inputs": [],
      "name": "getStrategyCount",
      "outputs": [
        {
          "internalType": "uint256",
          "name": "",
          "type": "uint256"
        }
      ],
      "payable": false,
      "stateMutability": "view",
      "type": "function"
    },
    {
      "constant": false,
      "inputs": [
        {
          "internalType": "address",
          "name": "_priceProvider",
          "type": "address"
        }
      ],
      "name": "setPriceProvider",
      "outputs": [],
      "payable": false,
      "stateMutability": "nonpayable",
      "type": "function"
    },
    {
      "constant": false,
      "inputs": [
        {
          "internalType": "address",
          "name": "_asset",
          "type": "address"
        },
        {
          "internalType": "uint256",
          "name": "_amount",
          "type": "uint256"
        }
      ],
      "name": "mint",
      "outputs": [],
      "payable": false,
      "stateMutability": "nonpayable",
      "type": "function"
    },
    {
      "constant": false,
      "inputs": [
        {
          "internalType": "address",
          "name": "_asset",
          "type": "address"
        }
      ],
      "name": "supportAsset",
      "outputs": [],
      "payable": false,
      "stateMutability": "nonpayable",
      "type": "function"
    },
    {
      "constant": false,
      "inputs": [
        {
          "internalType": "address[]",
          "name": "_strategyAddresses",
          "type": "address[]"
        },
        {
          "internalType": "uint256[]",
          "name": "_weights",
          "type": "uint256[]"
        }
      ],
      "name": "setStrategyWeights",
      "outputs": [],
      "payable": false,
      "stateMutability": "nonpayable",
      "type": "function"
    },
    {
      "constant": true,
      "inputs": [],
      "name": "rebaseThreshold",
      "outputs": [
        {
          "internalType": "uint256",
          "name": "",
          "type": "uint256"
        }
      ],
      "payable": false,
      "stateMutability": "view",
      "type": "function"
    },
    {
      "constant": true,
      "inputs": [],
      "name": "rebasePaused",
      "outputs": [
        {
          "internalType": "bool",
          "name": "",
          "type": "bool"
        }
      ],
      "payable": false,
      "stateMutability": "view",
      "type": "function"
    },
    {
      "constant": false,
      "inputs": [],
      "name": "collectRewardTokens",
      "outputs": [],
      "payable": false,
      "stateMutability": "nonpayable",
      "type": "function"
    },
    {
      "constant": false,
      "inputs": [],
      "name": "claimGovernance",
      "outputs": [],
      "payable": false,
      "stateMutability": "nonpayable",
      "type": "function"
    },
    {
      "constant": true,
      "inputs": [
        {
          "internalType": "address",
          "name": "_asset",
          "type": "address"
        }
      ],
      "name": "checkBalance",
      "outputs": [
        {
          "internalType": "uint256",
          "name": "",
          "type": "uint256"
        }
      ],
      "payable": false,
      "stateMutability": "view",
      "type": "function"
    },
    {
      "constant": false,
      "inputs": [],
      "name": "unpauseDeposits",
      "outputs": [],
      "payable": false,
      "stateMutability": "nonpayable",
      "type": "function"
    },
    {
      "constant": false,
      "inputs": [
        {
          "internalType": "uint256",
          "name": "_amount",
          "type": "uint256"
        }
      ],
      "name": "calculateRedeemOutputs",
      "outputs": [
        {
          "internalType": "uint256[]",
          "name": "",
          "type": "uint256[]"
        }
      ],
      "payable": false,
      "stateMutability": "nonpayable",
      "type": "function"
    },
    {
      "constant": false,
      "inputs": [
        {
          "internalType": "string",
          "name": "symbol",
          "type": "string"
        }
      ],
      "name": "priceUSDMint",
      "outputs": [
        {
          "internalType": "uint256",
          "name": "",
          "type": "uint256"
        }
      ],
      "payable": false,
      "stateMutability": "nonpayable",
      "type": "function"
    },
    {
      "constant": false,
      "inputs": [
        {
          "internalType": "uint256",
          "name": "_vaultBuffer",
          "type": "uint256"
        }
      ],
      "name": "setVaultBuffer",
      "outputs": [],
      "payable": false,
      "stateMutability": "nonpayable",
      "type": "function"
    },
    {
      "constant": true,
      "inputs": [
        {
          "internalType": "address",
          "name": "_asset",
          "type": "address"
        }
      ],
      "name": "isSupportedAsset",
      "outputs": [
        {
          "internalType": "bool",
          "name": "",
          "type": "bool"
        }
      ],
      "payable": false,
      "stateMutability": "view",
      "type": "function"
    },
    {
      "constant": true,
      "inputs": [],
      "name": "autoAllocateThreshold",
      "outputs": [
        {
          "internalType": "uint256",
          "name": "",
          "type": "uint256"
        }
      ],
      "payable": false,
      "stateMutability": "view",
      "type": "function"
    },
    {
      "constant": true,
      "inputs": [],
      "name": "getAssetCount",
      "outputs": [
        {
          "internalType": "uint256",
          "name": "",
          "type": "uint256"
        }
      ],
      "payable": false,
      "stateMutability": "view",
      "type": "function"
    },
    {
      "constant": false,
      "inputs": [],
      "name": "allocate",
      "outputs": [],
      "payable": false,
      "stateMutability": "nonpayable",
      "type": "function"
    },
    {
      "constant": false,
      "inputs": [],
      "name": "rebase",
      "outputs": [
        {
          "internalType": "uint256",
          "name": "",
          "type": "uint256"
        }
      ],
      "payable": false,
      "stateMutability": "nonpayable",
      "type": "function"
    },
    {
      "constant": false,
      "inputs": [
        {
          "internalType": "uint256",
          "name": "_threshold",
          "type": "uint256"
        }
      ],
      "name": "setAutoAllocateThreshold",
      "outputs": [],
      "payable": false,
      "stateMutability": "nonpayable",
      "type": "function"
    },
    {
      "constant": true,
      "inputs": [],
      "name": "priceProvider",
      "outputs": [
        {
          "internalType": "address",
          "name": "",
          "type": "address"
        }
      ],
      "payable": false,
      "stateMutability": "view",
      "type": "function"
    },
    {
      "constant": false,
      "inputs": [
        {
          "internalType": "uint256",
          "name": "_threshold",
          "type": "uint256"
        }
      ],
      "name": "setRebaseThreshold",
      "outputs": [],
      "payable": false,
      "stateMutability": "nonpayable",
      "type": "function"
    },
    {
      "constant": false,
      "inputs": [],
      "name": "pauseRebase",
      "outputs": [],
      "payable": false,
      "stateMutability": "nonpayable",
      "type": "function"
    },
    {
      "constant": true,
      "inputs": [],
      "name": "isGovernor",
      "outputs": [
        {
          "internalType": "bool",
          "name": "",
          "type": "bool"
        }
      ],
      "payable": false,
      "stateMutability": "view",
      "type": "function"
    },
    {
      "constant": false,
      "inputs": [],
      "name": "getAPR",
      "outputs": [
        {
          "internalType": "uint256",
          "name": "",
          "type": "uint256"
        }
      ],
      "payable": false,
      "stateMutability": "nonpayable",
      "type": "function"
    },
    {
      "constant": false,
      "inputs": [
        {
          "internalType": "address",
          "name": "_addr",
          "type": "address"
        },
        {
          "internalType": "uint256",
          "name": "_targetWeight",
          "type": "uint256"
        }
      ],
      "name": "addStrategy",
      "outputs": [],
      "payable": false,
      "stateMutability": "nonpayable",
      "type": "function"
    },
    {
      "constant": false,
      "inputs": [
        {
          "internalType": "address",
          "name": "_newGovernor",
          "type": "address"
        }
      ],
      "name": "transferGovernance",
      "outputs": [],
      "payable": false,
      "stateMutability": "nonpayable",
      "type": "function"
    },
    {
      "constant": false,
      "inputs": [],
      "name": "totalValue",
      "outputs": [
        {
          "internalType": "uint256",
          "name": "value",
          "type": "uint256"
        }
      ],
      "payable": false,
      "stateMutability": "nonpayable",
      "type": "function"
    },
    {
      "constant": false,
      "inputs": [
        {
          "internalType": "uint256",
          "name": "_amount",
          "type": "uint256"
        }
      ],
      "name": "redeem",
      "outputs": [],
      "payable": false,
      "stateMutability": "nonpayable",
      "type": "function"
    },
    {
      "constant": false,
      "inputs": [
        {
          "internalType": "uint256",
          "name": "_redeemFeeBps",
          "type": "uint256"
        }
      ],
      "name": "setRedeemFeeBps",
      "outputs": [],
      "payable": false,
      "stateMutability": "nonpayable",
      "type": "function"
    },
    {
      "constant": false,
      "inputs": [
        {
          "internalType": "address",
          "name": "_strategyAddr",
          "type": "address"
        }
      ],
      "name": "collectRewardTokens",
      "outputs": [],
      "payable": false,
      "stateMutability": "nonpayable",
      "type": "function"
    },
    {
      "anonymous": false,
      "inputs": [
        {
          "indexed": false,
          "internalType": "address",
          "name": "_asset",
          "type": "address"
        }
      ],
      "name": "AssetSupported",
      "type": "event"
    },
    {
      "anonymous": false,
      "inputs": [
        {
          "indexed": false,
          "internalType": "address",
          "name": "_addr",
          "type": "address"
        }
      ],
      "name": "StrategyAdded",
      "type": "event"
    },
    {
      "anonymous": false,
      "inputs": [
        {
          "indexed": false,
          "internalType": "address",
          "name": "_addr",
          "type": "address"
        }
      ],
      "name": "StrategyRemoved",
      "type": "event"
    },
    {
      "anonymous": false,
      "inputs": [
        {
          "indexed": false,
          "internalType": "address",
          "name": "_addr",
          "type": "address"
        },
        {
          "indexed": false,
          "internalType": "uint256",
          "name": "_value",
          "type": "uint256"
        }
      ],
      "name": "Mint",
      "type": "event"
    },
    {
      "anonymous": false,
      "inputs": [
        {
          "indexed": false,
          "internalType": "address",
          "name": "_addr",
          "type": "address"
        },
        {
          "indexed": false,
          "internalType": "uint256",
          "name": "_value",
          "type": "uint256"
        }
      ],
      "name": "Redeem",
      "type": "event"
    },
    {
      "anonymous": false,
      "inputs": [
        {
          "indexed": false,
          "internalType": "address[]",
          "name": "_strategyAddresses",
          "type": "address[]"
        },
        {
          "indexed": false,
          "internalType": "uint256[]",
          "name": "weights",
          "type": "uint256[]"
        }
      ],
      "name": "StrategyWeightsUpdated",
      "type": "event"
    },
    {
      "anonymous": false,
      "inputs": [],
      "name": "DepositsPaused",
      "type": "event"
    },
    {
      "anonymous": false,
      "inputs": [],
      "name": "DepositsUnpaused",
      "type": "event"
    },
    {
      "anonymous": false,
      "inputs": [
        {
          "indexed": true,
          "internalType": "address",
          "name": "previousGovernor",
          "type": "address"
        },
        {
          "indexed": true,
          "internalType": "address",
          "name": "newGovernor",
          "type": "address"
        }
      ],
      "name": "PendingGovernorshipTransfer",
      "type": "event"
    },
    {
      "anonymous": false,
      "inputs": [
        {
          "indexed": true,
          "internalType": "address",
          "name": "previousGovernor",
          "type": "address"
        },
        {
          "indexed": true,
          "internalType": "address",
          "name": "newGovernor",
          "type": "address"
        }
      ],
      "name": "GovernorshipTransferred",
      "type": "event"
    }
  ],
  "address": "0x6F0F9715605D443C7D2dC3A8314EdE32fe117aB1",
  "args": [],
  "solcInputHash": "0x2f08fe6b76d2c7437d616fadcb0923e912f33701cff8e9585db28d5c7abcab23",
  "bytecode": "0x60806040526000603760146101000a81548160ff0219169083151502179055506001603760156101000a81548160ff0219169083151502179055506200004b33620000bb60201b60201c565b6200005b620000ea60201b60201c565b73ffffffffffffffffffffffffffffffffffffffff16600073ffffffffffffffffffffffffffffffffffffffff167fc7c0c772add429241571afb3805861fb3cfa2af374534088b76cdb4325a87e9a60405160405180910390a36200011b565b60007f7bea13895fa79d2831e0a9e28edede30099005a50d652d8957cf8a607ee6ca4a60001b90508181555050565b6000807f7bea13895fa79d2831e0a9e28edede30099005a50d652d8957cf8a607ee6ca4a60001b9050805491505090565b615f4b806200012b6000396000f3fe608060405234801561001057600080fd5b50600436106102695760003560e01c80635f51522611610151578063b888879e116100c3578063c9411e2211610087578063c9411e2214610ae6578063d38bfff414610b34578063d4c3eea014610b78578063db006a7514610b96578063eb03654b14610bc4578063f377c47814610bf257610269565b8063b888879e14610a24578063b890ebf614610a6e578063c5f0084114610a9c578063c7af335214610aa6578063c89d5b8b14610ac857610269565b80639be918e6116101155780639be918e6146109365780639fa1826e14610992578063a0aead4d146109b0578063abaa9916146109ce578063af14052c146109d8578063b2c9336d146109f657610269565b80635f5152261461079657806363d8882a146107ee57806367bd7ba3146107f8578063686b37ca1461087b5780638ec489a21461090857610269565b80632acada4d116101ea5780634cd55c2d116101ae5780634cd55c2d146106305780634dab68b31461067457806352d38e5d1461074257806353ca9f24146107605780635a063f63146107825780635d36b1901461078c57610269565b80632acada4d146105175780632f4350c21461057657806331e19cfa14610580578063372aa2241461059e57806340c10f19146105e257610269565b80630c340a24116102315780630c340a24146103905780631072cbea146103da578063175188e8146104285780631edfe3da1461046c57806329a903ec1461048a57610269565b8063021919801461026e57806302befd241461027857806307ea54771461029a57806309f49bf51461036857806309f6442c14610372575b600080fd5b610276610c36565b005b610280610cf9565b604051808215151515815260200191505060405180910390f35b610366600480360360408110156102b057600080fd5b81019080803590602001906401000000008111156102cd57600080fd5b8201836020820111156102df57600080fd5b8035906020019184602083028401116401000000008311171561030157600080fd5b90919293919293908035906020019064010000000081111561032257600080fd5b82018360208201111561033457600080fd5b8035906020019184602083028401116401000000008311171561035657600080fd5b9091929391929390505050610d0c565b005b610370611111565b005b61037a6111a8565b6040518082815260200191505060405180910390f35b6103986111ae565b604051808273ffffffffffffffffffffffffffffffffffffffff1673ffffffffffffffffffffffffffffffffffffffff16815260200191505060405180910390f35b610426600480360360408110156103f057600080fd5b81019080803573ffffffffffffffffffffffffffffffffffffffff169060200190929190803590602001909291905050506111bd565b005b61046a6004803603602081101561043e57600080fd5b81019080803573ffffffffffffffffffffffffffffffffffffffff169060200190929190505050611305565b005b610474611665565b6040518082815260200191505060405180910390f35b610501600480360360208110156104a057600080fd5b81019080803590602001906401000000008111156104bd57600080fd5b8201836020820111156104cf57600080fd5b803590602001918460018302840111640100000000831117156104f157600080fd5b909192939192939050505061166b565b6040518082815260200191505060405180910390f35b61051f6116c2565b6040518080602001828103825283818151815260200191508051906020019060200280838360005b83811015610562578082015181840152602081019050610547565b505050509050019250505060405180910390f35b61057e611750565b005b61058861194b565b6040518082815260200191505060405180910390f35b6105e0600480360360208110156105b457600080fd5b81019080803573ffffffffffffffffffffffffffffffffffffffff169060200190929190505050611958565b005b61062e600480360360408110156105f857600080fd5b81019080803573ffffffffffffffffffffffffffffffffffffffff16906020019092919080359060200190929190505050611a16565b005b6106726004803603602081101561064657600080fd5b81019080803573ffffffffffffffffffffffffffffffffffffffff169060200190929190505050611f09565b005b6107406004803603604081101561068a57600080fd5b81019080803590602001906401000000008111156106a757600080fd5b8201836020820111156106b957600080fd5b803590602001918460208302840111640100000000831117156106db57600080fd5b9091929391929390803590602001906401000000008111156106fc57600080fd5b82018360208201111561070e57600080fd5b8035906020019184602083028401116401000000008311171561073057600080fd5b9091929391929390505050612186565b005b61074a6123be565b6040518082815260200191505060405180910390f35b6107686123c4565b604051808215151515815260200191505060405180910390f35b61078a6123d7565b005b6107946124b4565b005b6107d8600480360360208110156107ac57600080fd5b81019080803573ffffffffffffffffffffffffffffffffffffffff16906020019092919050505061254a565b6040518082815260200191505060405180910390f35b6107f661255c565b005b6108246004803603602081101561080e57600080fd5b810190808035906020019092919050505061261f565b6040518080602001828103825283818151815260200191508051906020019060200280838360005b8381101561086757808201518184015260208101905061084c565b505050509050019250505060405180910390f35b6108f26004803603602081101561089157600080fd5b81019080803590602001906401000000008111156108ae57600080fd5b8201836020820111156108c057600080fd5b803590602001918460018302840111640100000000831117156108e257600080fd5b9091929391929390505050612631565b6040518082815260200191505060405180910390f35b6109346004803603602081101561091e57600080fd5b8101908080359060200190929190505050612688565b005b6109786004803603602081101561094c57600080fd5b81019080803573ffffffffffffffffffffffffffffffffffffffff16906020019092919050505061270c565b604051808215151515815260200191505060405180910390f35b61099a612765565b6040518082815260200191505060405180910390f35b6109b861276b565b6040518082815260200191505060405180910390f35b6109d6612778565b005b6109e0612792565b6040518082815260200191505060405180910390f35b610a2260048036036020811015610a0c57600080fd5b8101908080359060200190929190505050612833565b005b610a2c6128b7565b604051808273ffffffffffffffffffffffffffffffffffffffff1673ffffffffffffffffffffffffffffffffffffffff16815260200191505060405180910390f35b610a9a60048036036020811015610a8457600080fd5b81019080803590602001909291905050506128dd565b005b610aa4612961565b005b610aae6129f8565b604051808215151515815260200191505060405180910390f35b610ad0612a35565b6040518082815260200191505060405180910390f35b610b3260048036036040811015610afc57600080fd5b81019080803573ffffffffffffffffffffffffffffffffffffffff16906020019092919080359060200190929190505050612c44565b005b610b7660048036036020811015610b4a57600080fd5b81019080803573ffffffffffffffffffffffffffffffffffffffff169060200190929190505050612ed2565b005b610b80612fb9565b6040518082815260200191505060405180910390f35b610bc260048036036020811015610bac57600080fd5b8101908080359060200190929190505050612fd8565b005b610bf060048036036020811015610bda57600080fd5b8101908080359060200190929190505050613022565b005b610c3460048036036020811015610c0857600080fd5b81019080803573ffffffffffffffffffffffffffffffffffffffff1690602001909291905050506130a6565b005b610c3e6129f8565b610cb0576040517f08c379a000000000000000000000000000000000000000000000000000000000815260040180806020018281038252601a8152602001807f43616c6c6572206973206e6f742074686520476f7665726e6f7200000000000081525060200191505060405180910390fd5b6001603760156101000a81548160ff0219169083151502179055507fdeeb69430b7153361c25d630947115165636e6a723fa8daea4b0de34b324745960405160405180910390a1565b603760159054906101000a900460ff1681565b818190508484905014610d87576040517f08c379a00000000000000000000000000000000000000000000000000000000081526004018080602001828103825260198152602001807f506172616d65746572206c656e677468206d69736d617463680000000000000081525060200191505060405180910390fd5b60008090506060610d986000613189565b905060008090505b603480549050811015610f0f5760008090505b87879050811015610f015760348281548110610dcb57fe5b9060005260206000200160009054906101000a900473ffffffffffffffffffffffffffffffffffffffff1673ffffffffffffffffffffffffffffffffffffffff16888883818110610e1857fe5b9050602002013573ffffffffffffffffffffffffffffffffffffffff1673ffffffffffffffffffffffffffffffffffffffff161415610ef4576000868683818110610e5f57fe5b905060200201351115610ef3576000610eae60348481548110610e7e57fe5b9060005260206000200160009054906101000a900473ffffffffffffffffffffffffffffffffffffffff1661349f565b9050610eed848481518110610ebf57fe5b602002602001015182600a0a898986818110610ed757fe5b905060200201356135989092919063ffffffff16565b85019450505b5b8080600101915050610db3565b508080600101915050610da0565b50603b5482118015610f2e5750603760149054906101000a900460ff16155b15610f3e57610f3c816135cd565b505b60008090505b86869050811015610fc9576000878783818110610f5d57fe5b9050602002013573ffffffffffffffffffffffffffffffffffffffff169050610fbb3330888886818110610f8d57fe5b905060200201358473ffffffffffffffffffffffffffffffffffffffff166137c6909392919063ffffffff16565b508080600101915050610f44565b50603c60009054906101000a900473ffffffffffffffffffffffffffffffffffffffff1673ffffffffffffffffffffffffffffffffffffffff166340c10f1933846040518363ffffffff1660e01b8152600401808373ffffffffffffffffffffffffffffffffffffffff1673ffffffffffffffffffffffffffffffffffffffff16815260200182815260200192505050600060405180830381600087803b15801561107357600080fd5b505af1158015611087573d6000803e3d6000fd5b505050507f0f6798a560793a54c3bcfe86a93cde1e73087d944c0ea20544137d41213968853383604051808373ffffffffffffffffffffffffffffffffffffffff1673ffffffffffffffffffffffffffffffffffffffff1681526020018281526020019250505060405180910390a1603a54821061110957611108816138cc565b5b505050505050565b6111196129f8565b61118b576040517f08c379a000000000000000000000000000000000000000000000000000000000815260040180806020018281038252601a8152602001807f43616c6c6572206973206e6f742074686520476f7665726e6f7200000000000081525060200191505060405180910390fd5b6000603760146101000a81548160ff021916908315150217905550565b60385481565b60006111b8613c13565b905090565b6111c56129f8565b611237576040517f08c379a000000000000000000000000000000000000000000000000000000000815260040180806020018281038252601a8152602001807f43616c6c6572206973206e6f742074686520476f7665726e6f7200000000000081525060200191505060405180910390fd5b8173ffffffffffffffffffffffffffffffffffffffff1663a9059cbb61125b6111ae565b836040518363ffffffff1660e01b8152600401808373ffffffffffffffffffffffffffffffffffffffff1673ffffffffffffffffffffffffffffffffffffffff16815260200182815260200192505050602060405180830381600087803b1580156112c557600080fd5b505af11580156112d9573d6000803e3d6000fd5b505050506040513d60208110156112ef57600080fd5b8101908080519060200190929190505050505050565b61130d6129f8565b61137f576040517f08c379a000000000000000000000000000000000000000000000000000000000815260040180806020018281038252601a8152602001807f43616c6c6572206973206e6f742074686520476f7665726e6f7200000000000081525060200191505060405180910390fd5b603560008273ffffffffffffffffffffffffffffffffffffffff1673ffffffffffffffffffffffffffffffffffffffff16815260200190815260200160002060000160009054906101000a900460ff16611441576040517f08c379a00000000000000000000000000000000000000000000000000000000081526004018080602001828103825260128152602001807f5374726174656779206e6f74206164646564000000000000000000000000000081525060200191505060405180910390fd5b6000603680549050905060008090505b6036805490508110156114de578273ffffffffffffffffffffffffffffffffffffffff166036828154811061148257fe5b9060005260206000200160009054906101000a900473ffffffffffffffffffffffffffffffffffffffff1673ffffffffffffffffffffffffffffffffffffffff1614156114d1578091506114de565b8080600101915050611451565b5060368054905081106114ed57fe5b60366001603680549050038154811061150257fe5b9060005260206000200160009054906101000a900473ffffffffffffffffffffffffffffffffffffffff166036828154811061153a57fe5b9060005260206000200160006101000a81548173ffffffffffffffffffffffffffffffffffffffff021916908373ffffffffffffffffffffffffffffffffffffffff16021790555060368054809190600190036115979190615e21565b5060008290508073ffffffffffffffffffffffffffffffffffffffff166328a070256040518163ffffffff1660e01b8152600401600060405180830381600087803b1580156115e557600080fd5b505af11580156115f9573d6000803e3d6000fd5b505050507f09a1db4b80c32706328728508c941a6b954f31eb5affd32f236c1fd405f8fea483604051808273ffffffffffffffffffffffffffffffffffffffff1673ffffffffffffffffffffffffffffffffffffffff16815260200191505060405180910390a1505050565b60395481565b60006116ba83838080601f016020809104026020016040519081016040528093929190818152602001838380828437600081840152601f19601f82011690508083019250505050505050613c44565b905092915050565b6060603480548060200260200160405190810160405280929190818152602001828054801561174657602002820191906000526020600020905b8160009054906101000a900473ffffffffffffffffffffffffffffffffffffffff1673ffffffffffffffffffffffffffffffffffffffff16815260200190600101908083116116fc575b5050505050905090565b606061175c6000613189565b9050603b54603c60009054906101000a900473ffffffffffffffffffffffffffffffffffffffff1673ffffffffffffffffffffffffffffffffffffffff166370a08231336040518263ffffffff1660e01b8152600401808273ffffffffffffffffffffffffffffffffffffffff1673ffffffffffffffffffffffffffffffffffffffff16815260200191505060206040518083038186803b15801561180057600080fd5b505afa158015611814573d6000803e3d6000fd5b505050506040513d602081101561182a57600080fd5b81019080805190602001909291905050501180156118555750603760149054906101000a900460ff16155b1561186557611863816135cd565b505b611948603c60009054906101000a900473ffffffffffffffffffffffffffffffffffffffff1673ffffffffffffffffffffffffffffffffffffffff166370a08231336040518263ffffffff1660e01b8152600401808273ffffffffffffffffffffffffffffffffffffffff1673ffffffffffffffffffffffffffffffffffffffff16815260200191505060206040518083038186803b15801561190757600080fd5b505afa15801561191b573d6000803e3d6000fd5b505050506040513d602081101561193157600080fd5b810190808051906020019092919050505082613d75565b50565b6000603680549050905090565b6119606129f8565b6119d2576040517f08c379a000000000000000000000000000000000000000000000000000000000815260040180806020018281038252601a8152602001807f43616c6c6572206973206e6f742074686520476f7665726e6f7200000000000081525060200191505060405180910390fd5b80603760006101000a81548173ffffffffffffffffffffffffffffffffffffffff021916908373ffffffffffffffffffffffffffffffffffffffff16021790555050565b603760159054906101000a900460ff1615611a99576040517f08c379a00000000000000000000000000000000000000000000000000000000081526004018080602001828103825260138152602001807f4465706f7369747320617265207061757365640000000000000000000000000081525060200191505060405180910390fd5b603360008373ffffffffffffffffffffffffffffffffffffffff1673ffffffffffffffffffffffffffffffffffffffff16815260200190815260200160002060000160009054906101000a900460ff16611b5b576040517f08c379a00000000000000000000000000000000000000000000000000000000081526004018080602001828103825260168152602001807f4173736574206973206e6f7420737570706f727465640000000000000000000081525060200191505060405180910390fd5b60008111611bd1576040517f08c379a000000000000000000000000000000000000000000000000000000000815260040180806020018281038252601d8152602001807f416d6f756e74206d7573742062652067726561746572207468616e203000000081525060200191505060405180910390fd5b60606000611d24611d08600a603760009054906101000a900473ffffffffffffffffffffffffffffffffffffffff1673ffffffffffffffffffffffffffffffffffffffff166319af6bf0611c248961438d565b6040518263ffffffff1660e01b81526004018080602001828103825283818151815260200191508051906020019080838360005b83811015611c73578082015181840152602081019050611c58565b50505050905090810190601f168015611ca05780820380516001836020036101000a031916815260200191505b5092505050602060405180830381600087803b158015611cbf57600080fd5b505af1158015611cd3573d6000803e3d6000fd5b505050506040513d6020811015611ce957600080fd5b81019080805190602001909291905050506144da90919063ffffffff16565b611d118661349f565b600a0a856135989092919063ffffffff16565b9050603b5481118015611d445750603760149054906101000a900460ff16155b80611d515750603a548110155b15611d6357611d606000613189565b91505b603b5481118015611d815750603760149054906101000a900460ff16155b15611d9157611d8f826135cd565b505b6000849050611dc33330868473ffffffffffffffffffffffffffffffffffffffff166137c6909392919063ffffffff16565b603c60009054906101000a900473ffffffffffffffffffffffffffffffffffffffff1673ffffffffffffffffffffffffffffffffffffffff166340c10f1933846040518363ffffffff1660e01b8152600401808373ffffffffffffffffffffffffffffffffffffffff1673ffffffffffffffffffffffffffffffffffffffff16815260200182815260200192505050600060405180830381600087803b158015611e6c57600080fd5b505af1158015611e80573d6000803e3d6000fd5b505050507f0f6798a560793a54c3bcfe86a93cde1e73087d944c0ea20544137d41213968853383604051808373ffffffffffffffffffffffffffffffffffffffff1673ffffffffffffffffffffffffffffffffffffffff1681526020018281526020019250505060405180910390a1603a548210611f0257611f01836138cc565b5b5050505050565b611f116129f8565b611f83576040517f08c379a000000000000000000000000000000000000000000000000000000000815260040180806020018281038252601a8152602001807f43616c6c6572206973206e6f742074686520476f7665726e6f7200000000000081525060200191505060405180910390fd5b603360008273ffffffffffffffffffffffffffffffffffffffff1673ffffffffffffffffffffffffffffffffffffffff16815260200190815260200160002060000160009054906101000a900460ff1615612046576040517f08c379a00000000000000000000000000000000000000000000000000000000081526004018080602001828103825260178152602001807f417373657420616c726561647920737570706f7274656400000000000000000081525060200191505060405180910390fd5b604051806020016040528060011515815250603360008373ffffffffffffffffffffffffffffffffffffffff1673ffffffffffffffffffffffffffffffffffffffff16815260200190815260200160002060008201518160000160006101000a81548160ff02191690831515021790555090505060348190806001815401808255809150509060018203906000526020600020016000909192909190916101000a81548173ffffffffffffffffffffffffffffffffffffffff021916908373ffffffffffffffffffffffffffffffffffffffff160217905550507f4f1ac48525e50059cc1cc6e0e1940ece0dd653a4db4841538d6aef036be2fb7b81604051808273ffffffffffffffffffffffffffffffffffffffff1673ffffffffffffffffffffffffffffffffffffffff16815260200191505060405180910390a150565b61218e6129f8565b612200576040517f08c379a000000000000000000000000000000000000000000000000000000000815260040180806020018281038252601a8152602001807f43616c6c6572206973206e6f742074686520476f7665726e6f7200000000000081525060200191505060405180910390fd5b81819050848490501461227b576040517f08c379a00000000000000000000000000000000000000000000000000000000081526004018080602001828103825260198152602001807f506172616d65746572206c656e677468206d69736d617463680000000000000081525060200191505060405180910390fd5b60008090505b8484905081101561231a5782828281811061229857fe5b90506020020135603560008787858181106122af57fe5b9050602002013573ffffffffffffffffffffffffffffffffffffffff1673ffffffffffffffffffffffffffffffffffffffff1673ffffffffffffffffffffffffffffffffffffffff168152602001908152602001600020600101819055508080600101915050612281565b507f96f2c15ff9c9cea757ec12e3f9aaa7705c3d0a154ee1e71c6e1221c8de0b7762848484846040518080602001806020018381038352878782818152602001925060200280828437600081840152601f19601f8201169050808301925050508381038252858582818152602001925060200280828437600081840152601f19601f820116905080830192505050965050505050505060405180910390a150505050565b603b5481565b603760149054906101000a900460ff1681565b6123df6129f8565b612451576040517f08c379a000000000000000000000000000000000000000000000000000000000815260040180806020018281038252601a8152602001807f43616c6c6572206973206e6f742074686520476f7665726e6f7200000000000081525060200191505060405180910390fd5b60008090505b6036805490508110156124b1576124a46036828154811061247457fe5b9060005260206000200160009054906101000a900473ffffffffffffffffffffffffffffffffffffffff166130a6565b8080600101915050612457565b50565b6124bc61455b565b73ffffffffffffffffffffffffffffffffffffffff163373ffffffffffffffffffffffffffffffffffffffff161461253f576040517f08c379a0000000000000000000000000000000000000000000000000000000008152600401808060200182810382526030815260200180615ee76030913960400191505060405180910390fd5b6125483361458c565b565b60006125558261469c565b9050919050565b6125646129f8565b6125d6576040517f08c379a000000000000000000000000000000000000000000000000000000000815260040180806020018281038252601a8152602001807f43616c6c6572206973206e6f742074686520476f7665726e6f7200000000000081525060200191505060405180910390fd5b6000603760156101000a81548160ff0219169083151502179055507f823084e804e36d8971e8b86749b6b0ace7b9f87ed272bef910c1e72d123eeb4860405160405180910390a1565b606061262a8261493a565b9050919050565b600061268083838080601f016020809104026020016040519081016040528093929190818152602001838380828437600081840152601f19601f82011690508083019250505050505050614bf6565b905092915050565b6126906129f8565b612702576040517f08c379a000000000000000000000000000000000000000000000000000000000815260040180806020018281038252601a8152602001807f43616c6c6572206973206e6f742074686520476f7665726e6f7200000000000081525060200191505060405180910390fd5b8060398190555050565b6000603360008373ffffffffffffffffffffffffffffffffffffffff1673ffffffffffffffffffffffffffffffffffffffff16815260200190815260200160002060000160009054906101000a900460ff169050919050565b603a5481565b6000603480549050905090565b60606127846000613189565b905061278f816138cc565b50565b6000603760149054906101000a900460ff1615612817576040517f08c379a000000000000000000000000000000000000000000000000000000000815260040180806020018281038252600f8152602001807f5265626173696e6720706175736564000000000000000000000000000000000081525060200191505060405180910390fd5b60606128236000613189565b905061282e816135cd565b505090565b61283b6129f8565b6128ad576040517f08c379a000000000000000000000000000000000000000000000000000000000815260040180806020018281038252601a8152602001807f43616c6c6572206973206e6f742074686520476f7665726e6f7200000000000081525060200191505060405180910390fd5b80603a8190555050565b603760009054906101000a900473ffffffffffffffffffffffffffffffffffffffff1681565b6128e56129f8565b612957576040517f08c379a000000000000000000000000000000000000000000000000000000000815260040180806020018281038252601a8152602001807f43616c6c6572206973206e6f742074686520476f7665726e6f7200000000000081525060200191505060405180910390fd5b80603b8190555050565b6129696129f8565b6129db576040517f08c379a000000000000000000000000000000000000000000000000000000000815260040180806020018281038252601a8152602001807f43616c6c6572206973206e6f742074686520476f7665726e6f7200000000000081525060200191505060405180910390fd5b6001603760146101000a81548160ff021916908315150217905550565b6000612a02613c13565b73ffffffffffffffffffffffffffffffffffffffff163373ffffffffffffffffffffffffffffffffffffffff1614905090565b600080612a4061194b565b1415612a4f5760009050612c41565b6060612a5b6001613189565b9050600080905060008090505b603680549050811015612c3a57600060368281548110612a8457fe5b9060005260206000200160009054906101000a900473ffffffffffffffffffffffffffffffffffffffff16905060008173ffffffffffffffffffffffffffffffffffffffff1663c89d5b8b6040518163ffffffff1660e01b815260040160206040518083038186803b158015612af957600080fd5b505afa158015612b0d573d6000803e3d6000fd5b505050506040513d6020811015612b2357600080fd5b81019080805190602001909291905050501115612c2c57612c278173ffffffffffffffffffffffffffffffffffffffff1663c89d5b8b6040518163ffffffff1660e01b815260040160206040518083038186803b158015612b8357600080fd5b505afa158015612b97573d6000803e3d6000fd5b505050506040513d6020811015612bad57600080fd5b8101908080519060200190929190505050612c19612bca87614d27565b612c0b60368781548110612bda57fe5b9060005260206000200160009054906101000a900473ffffffffffffffffffffffffffffffffffffffff1689614d43565b614fdc90919063ffffffff16565b61501890919063ffffffff16565b830192505b508080600101915050612a68565b5080925050505b90565b612c4c6129f8565b612cbe576040517f08c379a000000000000000000000000000000000000000000000000000000000815260040180806020018281038252601a8152602001807f43616c6c6572206973206e6f742074686520476f7665726e6f7200000000000081525060200191505060405180910390fd5b603560008373ffffffffffffffffffffffffffffffffffffffff1673ffffffffffffffffffffffffffffffffffffffff16815260200190815260200160002060000160009054906101000a900460ff1615612d81576040517f08c379a00000000000000000000000000000000000000000000000000000000081526004018080602001828103825260168152602001807f537472617465677920616c72656164792061646465640000000000000000000081525060200191505060405180910390fd5b604051806040016040528060011515815260200182815250603560008473ffffffffffffffffffffffffffffffffffffffff1673ffffffffffffffffffffffffffffffffffffffff16815260200190815260200160002060008201518160000160006101000a81548160ff0219169083151502179055506020820151816001015590505060368290806001815401808255809150509060018203906000526020600020016000909192909190916101000a81548173ffffffffffffffffffffffffffffffffffffffff021916908373ffffffffffffffffffffffffffffffffffffffff160217905550507f3f008fd510eae7a9e7bee13513d7b83bef8003d488b5a3d0b0da4de71d6846f182604051808273ffffffffffffffffffffffffffffffffffffffff1673ffffffffffffffffffffffffffffffffffffffff16815260200191505060405180910390a15050565b612eda6129f8565b612f4c576040517f08c379a000000000000000000000000000000000000000000000000000000000815260040180806020018281038252601a8152602001807f43616c6c6572206973206e6f742074686520476f7665726e6f7200000000000081525060200191505060405180910390fd5b612f5581615035565b8073ffffffffffffffffffffffffffffffffffffffff16612f74613c13565b73ffffffffffffffffffffffffffffffffffffffff167fa39cc5eb22d0f34d8beaefee8a3f17cc229c1a1d1ef87a5ad47313487b1c4f0d60405160405180910390a350565b60006060612fc76000613189565b9050612fd281614d27565b91505090565b6060612fe46000613189565b9050603b54821180156130045750603760149054906101000a900460ff16155b1561301457613012816135cd565b505b61301e8282613d75565b5050565b61302a6129f8565b61309c576040517f08c379a000000000000000000000000000000000000000000000000000000000815260040180806020018281038252601a8152602001807f43616c6c6572206973206e6f742074686520476f7665726e6f7200000000000081525060200191505060405180910390fd5b8060388190555050565b6130ae6129f8565b613120576040517f08c379a000000000000000000000000000000000000000000000000000000000815260040180806020018281038252601a8152602001807f43616c6c6572206973206e6f742074686520476f7665726e6f7200000000000081525060200191505060405180910390fd5b60008190508073ffffffffffffffffffffffffffffffffffffffff16630242241d6040518163ffffffff1660e01b8152600401600060405180830381600087803b15801561316d57600080fd5b505af1158015613181573d6000803e3d6000fd5b505050505050565b606061319361276b565b6040519080825280602002602001820160405280156131c15781602001602082028038833980820191505090505b5090506000603760009054906101000a900473ffffffffffffffffffffffffffffffffffffffff16905060008090505b6034805490508110156134985760606132406034838154811061321057fe5b9060005260206000200160009054906101000a900473ffffffffffffffffffffffffffffffffffffffff1661438d565b9050841561336b5761334e600a8473ffffffffffffffffffffffffffffffffffffffff16637bf0c215846040518263ffffffff1660e01b81526004018080602001828103825283818151815260200191508051906020019080838360005b838110156132b957808201518184015260208101905061329e565b50505050905090810190601f1680156132e65780820380516001836020036101000a031916815260200191505b5092505050602060405180830381600087803b15801561330557600080fd5b505af1158015613319573d6000803e3d6000fd5b505050506040513d602081101561332f57600080fd5b81019080805190602001909291905050506144da90919063ffffffff16565b84838151811061335a57fe5b60200260200101818152505061348a565b613471600a8473ffffffffffffffffffffffffffffffffffffffff166319af6bf0846040518263ffffffff1660e01b81526004018080602001828103825283818151815260200191508051906020019080838360005b838110156133dc5780820151818401526020810190506133c1565b50505050905090810190601f1680156134095780820380516001836020036101000a031916815260200191505b5092505050602060405180830381600087803b15801561342857600080fd5b505af115801561343c573d6000803e3d6000fd5b505050506040513d602081101561345257600080fd5b81019080805190602001909291905050506144da90919063ffffffff16565b84838151811061347d57fe5b6020026020010181815250505b5080806001019150506131f1565b5050919050565b6000808273ffffffffffffffffffffffffffffffffffffffff1663313ce5676040518163ffffffff1660e01b815260040160206040518083038186803b1580156134e857600080fd5b505afa1580156134fc573d6000803e3d6000fd5b505050506040513d602081101561351257600080fd5b810190808051906020019092919050505060ff1690506004811015801561353a575060128111155b61358f576040517f08c379a0000000000000000000000000000000000000000000000000000000008152600401808060200182810382526029815260200180615e736029913960400191505060405180910390fd5b80915050919050565b6000806135ae848661506490919063ffffffff16565b90506135c383826150ea90919063ffffffff16565b9150509392505050565b6000603760149054906101000a900460ff1615613652576040517f08c379a000000000000000000000000000000000000000000000000000000000815260040180806020018281038252600f8152602001807f5265626173696e6720706175736564000000000000000000000000000000000081525060200191505060405180910390fd5b6000603c60009054906101000a900473ffffffffffffffffffffffffffffffffffffffff1673ffffffffffffffffffffffffffffffffffffffff166318160ddd6040518163ffffffff1660e01b815260040160206040518083038186803b1580156136bc57600080fd5b505afa1580156136d0573d6000803e3d6000fd5b505050506040513d60208110156136e657600080fd5b8101908080519060200190929190505050141561370657600090506137c1565b603c60009054906101000a900473ffffffffffffffffffffffffffffffffffffffff1673ffffffffffffffffffffffffffffffffffffffff166339a7919f61374d84614d27565b6040518263ffffffff1660e01b815260040180828152602001915050602060405180830381600087803b15801561378357600080fd5b505af1158015613797573d6000803e3d6000fd5b505050506040513d60208110156137ad57600080fd5b810190808051906020019092919050505090505b919050565b6138c6848573ffffffffffffffffffffffffffffffffffffffff166323b872dd905060e01b858585604051602401808473ffffffffffffffffffffffffffffffffffffffff1673ffffffffffffffffffffffffffffffffffffffff1681526020018373ffffffffffffffffffffffffffffffffffffffff1673ffffffffffffffffffffffffffffffffffffffff1681526020018281526020019350505050604051602081830303815290604052907bffffffffffffffffffffffffffffffffffffffffffffffffffffffff19166020820180517bffffffffffffffffffffffffffffffffffffffffffffffffffffffff8381831617835250505050615134565b50505050565b60006138d78261537f565b905060008114156138e85750613c10565b60006138f383615522565b90506000818301905060008083141561391a57603954670de0b6b3a764000003905061396f565b613941846139338460395461506490919063ffffffff16565b6150ea90919063ffffffff16565b905080670de0b6b3a764000011156139655780670de0b6b3a764000003905061396e565b50505050613c10565b5b60008114156139815750505050613c10565b60008090505b603480549050811015613c0a576000603482815481106139a357fe5b9060005260206000200160009054906101000a900473ffffffffffffffffffffffffffffffffffffffff16905060008173ffffffffffffffffffffffffffffffffffffffff166370a08231306040518263ffffffff1660e01b8152600401808273ffffffffffffffffffffffffffffffffffffffff1673ffffffffffffffffffffffffffffffffffffffff16815260200191505060206040518083038186803b158015613a4f57600080fd5b505afa158015613a63573d6000803e3d6000fd5b505050506040513d6020811015613a7957600080fd5b810190808051906020019092919050505090506000811415613a9c575050613bfd565b6000613ab1858361501890919063ffffffff16565b90506000613abf848b615592565b9050600073ffffffffffffffffffffffffffffffffffffffff168173ffffffffffffffffffffffffffffffffffffffff1614158015613afe5750600082115b15613bf8576000819050613b3381848773ffffffffffffffffffffffffffffffffffffffff1661574a9092919063ffffffff16565b8073ffffffffffffffffffffffffffffffffffffffff166347e7ef2486856040518363ffffffff1660e01b8152600401808373ffffffffffffffffffffffffffffffffffffffff1673ffffffffffffffffffffffffffffffffffffffff16815260200182815260200192505050602060405180830381600087803b158015613bba57600080fd5b505af1158015613bce573d6000803e3d6000fd5b505050506040513d6020811015613be457600080fd5b810190808051906020019092919050505050505b505050505b8080600101915050613987565b50505050505b50565b6000807f7bea13895fa79d2831e0a9e28edede30099005a50d652d8957cf8a607ee6ca4a60001b9050805491505090565b6000613d6e600a603760009054906101000a900473ffffffffffffffffffffffffffffffffffffffff1673ffffffffffffffffffffffffffffffffffffffff16637bf0c215856040518263ffffffff1660e01b81526004018080602001828103825283818151815260200191508051906020019080838360005b83811015613cd9578082015181840152602081019050613cbe565b50505050905090810190601f168015613d065780820380516001836020036101000a031916815260200191505b5092505050602060405180830381600087803b158015613d2557600080fd5b505af1158015613d39573d6000803e3d6000fd5b505050506040513d6020811015613d4f57600080fd5b81019080805190602001909291905050506144da90919063ffffffff16565b9050919050565b60008211613deb576040517f08c379a000000000000000000000000000000000000000000000000000000000815260040180806020018281038252601d8152602001807f416d6f756e74206d7573742062652067726561746572207468616e203000000081525060200191505060405180910390fd5b6000806038541115613e3f576000613e22612710613e146038548761506490919063ffffffff16565b6150ea90919063ffffffff16565b9050613e37818561581b90919063ffffffff16565b915050613e43565b8290505b6060613e4e8261493a565b905060008090505b60348054905081101561422c576000828281518110613e7157fe5b60200260200101511415613e845761421f565b600060348281548110613e9357fe5b9060005260206000200160009054906101000a900473ffffffffffffffffffffffffffffffffffffffff169050828281518110613ecc57fe5b60200260200101518173ffffffffffffffffffffffffffffffffffffffff166370a08231306040518263ffffffff1660e01b8152600401808273ffffffffffffffffffffffffffffffffffffffff1673ffffffffffffffffffffffffffffffffffffffff16815260200191505060206040518083038186803b158015613f5157600080fd5b505afa158015613f65573d6000803e3d6000fd5b505050506040513d6020811015613f7b57600080fd5b810190808051906020019092919050505010613fd457613fcf33848481518110613fa157fe5b60200260200101518373ffffffffffffffffffffffffffffffffffffffff1661574a9092919063ffffffff16565b61421d565b600061402b60348481548110613fe657fe5b9060005260206000200160009054906101000a900473ffffffffffffffffffffffffffffffffffffffff1685858151811061401d57fe5b602002602001015188615865565b9050600073ffffffffffffffffffffffffffffffffffffffff168173ffffffffffffffffffffffffffffffffffffffff16146141ad5760008190508073ffffffffffffffffffffffffffffffffffffffff1663d9caed12336034878154811061409057fe5b9060005260206000200160009054906101000a900473ffffffffffffffffffffffffffffffffffffffff168888815181106140c757fe5b60200260200101516040518463ffffffff1660e01b8152600401808473ffffffffffffffffffffffffffffffffffffffff1673ffffffffffffffffffffffffffffffffffffffff1681526020018373ffffffffffffffffffffffffffffffffffffffff1673ffffffffffffffffffffffffffffffffffffffff1681526020018281526020019350505050602060405180830381600087803b15801561416b57600080fd5b505af115801561417f573d6000803e3d6000fd5b505050506040513d602081101561419557600080fd5b8101908080519060200190929190505050505061421b565b6040517f08c379a000000000000000000000000000000000000000000000000000000000815260040180806020018281038252600f8152602001807f4c6971756964697479206572726f72000000000000000000000000000000000081525060200191505060405180910390fd5b505b505b8080600101915050613e56565b50603c60009054906101000a900473ffffffffffffffffffffffffffffffffffffffff1673ffffffffffffffffffffffffffffffffffffffff16639dc29fac33866040518363ffffffff1660e01b8152600401808373ffffffffffffffffffffffffffffffffffffffff1673ffffffffffffffffffffffffffffffffffffffff16815260200182815260200192505050600060405180830381600087803b1580156142d657600080fd5b505af11580156142ea573d6000803e3d6000fd5b50505050603b548411801561430c5750603760149054906101000a900460ff16155b1561431c5761431a836135cd565b505b7f222838db2794d11532d940e8dec38ae307ed0b63cd97c233322e221f998767a63385604051808373ffffffffffffffffffffffffffffffffffffffff1673ffffffffffffffffffffffffffffffffffffffff1681526020018281526020019250505060405180910390a150505050565b6060808273ffffffffffffffffffffffffffffffffffffffff166395d89b416040518163ffffffff1660e01b815260040160006040518083038186803b1580156143d657600080fd5b505afa1580156143ea573d6000803e3d6000fd5b505050506040513d6000823e3d601f19601f82011682018060405250602081101561441457600080fd5b810190808051604051939291908464010000000082111561443457600080fd5b8382019150602082018581111561444a57600080fd5b825186600182028301116401000000008211171561446757600080fd5b8083526020830192505050908051906020019080838360005b8381101561449b578082015181840152602081019050614480565b50505050905090810190601f1680156144c85780820380516001836020036101000a031916815260200191505b50604052505050905080915050919050565b6000808260000b1315614507576145008260000b600a0a8461506490919063ffffffff16565b9250614552565b60008260000b12156145515761454e7fffffffffffffffffffffffffffffffffffffffffffffffffffffffffffffffff830260000b600a0a846150ea90919063ffffffff16565b92505b5b82905092915050565b6000807f44c4d30b2eaad5130ad70c3ba6972730566f3e6359ab83e800d905c61b1c51db60001b9050805491505090565b600073ffffffffffffffffffffffffffffffffffffffff168173ffffffffffffffffffffffffffffffffffffffff16141561462f576040517f08c379a000000000000000000000000000000000000000000000000000000000815260040180806020018281038252601a8152602001807f4e657720476f7665726e6f72206973206164647265737328302900000000000081525060200191505060405180910390fd5b8073ffffffffffffffffffffffffffffffffffffffff1661464e613c13565b73ffffffffffffffffffffffffffffffffffffffff167fc7c0c772add429241571afb3805861fb3cfa2af374534088b76cdb4325a87e9a60405160405180910390a361469981615ae8565b50565b6000808290508073ffffffffffffffffffffffffffffffffffffffff166370a08231306040518263ffffffff1660e01b8152600401808273ffffffffffffffffffffffffffffffffffffffff1673ffffffffffffffffffffffffffffffffffffffff16815260200191505060206040518083038186803b15801561471f57600080fd5b505afa158015614733573d6000803e3d6000fd5b505050506040513d602081101561474957600080fd5b8101908080519060200190929190505050915060008090505b6036805490508110156149335760006036828154811061477e57fe5b9060005260206000200160009054906101000a900473ffffffffffffffffffffffffffffffffffffffff1690508073ffffffffffffffffffffffffffffffffffffffff1663aa388af6866040518263ffffffff1660e01b8152600401808273ffffffffffffffffffffffffffffffffffffffff1673ffffffffffffffffffffffffffffffffffffffff16815260200191505060206040518083038186803b15801561482857600080fd5b505afa15801561483c573d6000803e3d6000fd5b505050506040513d602081101561485257600080fd5b810190808051906020019092919050505015614925578073ffffffffffffffffffffffffffffffffffffffff16635f515226866040518263ffffffff1660e01b8152600401808273ffffffffffffffffffffffffffffffffffffffff1673ffffffffffffffffffffffffffffffffffffffff16815260200191505060206040518083038186803b1580156148e557600080fd5b505afa1580156148f9573d6000803e3d6000fd5b505050506040513d602081101561490f57600080fd5b8101908080519060200190929190505050840193505b508080600101915050614762565b5050919050565b6060806149476001613189565b90506000614953615b17565b90506000809050600061496461276b565b9050806040519080825280602002602001820160405280156149955781602001602082028038833980820191505090505b50945060008090505b603480549050811015614add5760006149ed603483815481106149bd57fe5b9060005260206000200160009054906101000a900473ffffffffffffffffffffffffffffffffffffffff1661349f565b90506000614a6a86614a5c8b614a4e86601203614a4060348a81548110614a1057fe5b9060005260206000200160009054906101000a900473ffffffffffffffffffffffffffffffffffffffff1661469c565b6144da90919063ffffffff16565b61506490919063ffffffff16565b6150ea90919063ffffffff16565b90506000811115614ace57614a9b878481518110614a8457fe5b60200260200101518261501890919063ffffffff16565b85019450614ab560128303826144da90919063ffffffff16565b888481518110614ac157fe5b6020026020010181815250505b5050808060010191505061499e565b506000828703905060008090505b8651811015614beb576000878281518110614b0257fe5b60200260200101511415614b1557614bde565b6000821215614b7c57614b5984614b4b898481518110614b3157fe5b60200260200101518560000361506490919063ffffffff16565b6150ea90919063ffffffff16565b878281518110614b6557fe5b602002602001018181510391508181525050614bdd565b6000821315614bdc57614bbd84614baf898481518110614b9857fe5b60200260200101518561506490919063ffffffff16565b6150ea90919063ffffffff16565b878281518110614bc957fe5b6020026020010181815101915081815250505b5b5b8080600101915050614aeb565b505050505050919050565b6000614d20600a603760009054906101000a900473ffffffffffffffffffffffffffffffffffffffff1673ffffffffffffffffffffffffffffffffffffffff166319af6bf0856040518263ffffffff1660e01b81526004018080602001828103825283818151815260200191508051906020019080838360005b83811015614c8b578082015181840152602081019050614c70565b50505050905090810190601f168015614cb85780820380516001836020036101000a031916815260200191505b5092505050602060405180830381600087803b158015614cd757600080fd5b505af1158015614ceb573d6000803e3d6000fd5b505050506040513d6020811015614d0157600080fd5b81019080805190602001909291905050506144da90919063ffffffff16565b9050919050565b6000614d3282615522565b614d3b8361537f565b019050919050565b6000809050600083905060008090505b603480549050811015614fd4576000614da260348381548110614d7257fe5b9060005260206000200160009054906101000a900473ffffffffffffffffffffffffffffffffffffffff1661349f565b90508273ffffffffffffffffffffffffffffffffffffffff1663aa388af660348481548110614dcd57fe5b9060005260206000200160009054906101000a900473ffffffffffffffffffffffffffffffffffffffff166040518263ffffffff1660e01b8152600401808273ffffffffffffffffffffffffffffffffffffffff1673ffffffffffffffffffffffffffffffffffffffff16815260200191505060206040518083038186803b158015614e5857600080fd5b505afa158015614e6c573d6000803e3d6000fd5b505050506040513d6020811015614e8257600080fd5b810190808051906020019092919050505015614fc65760008373ffffffffffffffffffffffffffffffffffffffff16635f51522660348581548110614ec357fe5b9060005260206000200160009054906101000a900473ffffffffffffffffffffffffffffffffffffffff166040518263ffffffff1660e01b8152600401808273ffffffffffffffffffffffffffffffffffffffff1673ffffffffffffffffffffffffffffffffffffffff16815260200191505060206040518083038186803b158015614f4e57600080fd5b505afa158015614f62573d6000803e3d6000fd5b505050506040513d6020811015614f7857600080fd5b810190808051906020019092919050505090506000811115614fc457614fbf868481518110614fa357fe5b602002602001015183600a0a836135989092919063ffffffff16565b850194505b505b508080600101915050614d53565b505092915050565b600080614ffa670de0b6b3a76400008561506490919063ffffffff16565b905061500f83826150ea90919063ffffffff16565b91505092915050565b600061502d8383670de0b6b3a7640000613598565b905092915050565b60007f44c4d30b2eaad5130ad70c3ba6972730566f3e6359ab83e800d905c61b1c51db60001b90508181555050565b60008083141561507757600090506150e4565b600082840290508284828161508857fe5b04146150df576040517f08c379a0000000000000000000000000000000000000000000000000000000008152600401808060200182810382526021815260200180615e9c6021913960400191505060405180910390fd5b809150505b92915050565b600061512c83836040518060400160405280601a81526020017f536166654d6174683a206469766973696f6e206279207a65726f000000000000815250615bde565b905092915050565b6151538273ffffffffffffffffffffffffffffffffffffffff16615ca4565b6151c5576040517f08c379a000000000000000000000000000000000000000000000000000000000815260040180806020018281038252601f8152602001807f5361666545524332303a2063616c6c20746f206e6f6e2d636f6e74726163740081525060200191505060405180910390fd5b600060608373ffffffffffffffffffffffffffffffffffffffff16836040518082805190602001908083835b6020831061521457805182526020820191506020810190506020830392506151f1565b6001836020036101000a0380198251168184511680821785525050505050509050019150506000604051808303816000865af19150503d8060008114615276576040519150601f19603f3d011682016040523d82523d6000602084013e61527b565b606091505b5091509150816152f3576040517f08c379a00000000000000000000000000000000000000000000000000000000081526004018080602001828103825260208152602001807f5361666545524332303a206c6f772d6c6576656c2063616c6c206661696c656481525060200191505060405180910390fd5b6000815111156153795780806020019051602081101561531257600080fd5b8101908080519060200190929190505050615378576040517f08c379a000000000000000000000000000000000000000000000000000000000815260040180806020018281038252602a815260200180615ebd602a913960400191505060405180910390fd5b5b50505050565b600080905060008090505b60348054905081101561551c576000603482815481106153a657fe5b9060005260206000200160009054906101000a900473ffffffffffffffffffffffffffffffffffffffff1690506000615415603484815481106153e557fe5b9060005260206000200160009054906101000a900473ffffffffffffffffffffffffffffffffffffffff1661349f565b905060008273ffffffffffffffffffffffffffffffffffffffff166370a08231306040518263ffffffff1660e01b8152600401808273ffffffffffffffffffffffffffffffffffffffff1673ffffffffffffffffffffffffffffffffffffffff16815260200191505060206040518083038186803b15801561549657600080fd5b505afa1580156154aa573d6000803e3d6000fd5b505050506040513d60208110156154c057600080fd5b81019080805190602001909291905050509050600081111561550c576155078685815181106154eb57fe5b602002602001015183600a0a836135989092919063ffffffff16565b850194505b505050808060010191505061538a565b50919050565b600080905060008090505b60368054905081101561558c5761557b6036828154811061554a57fe5b9060005260206000200160009054906101000a900473ffffffffffffffffffffffffffffffffffffffff1684614d43565b82019150808060010191505061552d565b50919050565b6000809050600080905060008090505b603680549050811015615742576000603682815481106155be57fe5b9060005260206000200160009054906101000a900473ffffffffffffffffffffffffffffffffffffffff1690508073ffffffffffffffffffffffffffffffffffffffff1663aa388af6876040518263ffffffff1660e01b8152600401808273ffffffffffffffffffffffffffffffffffffffff1673ffffffffffffffffffffffffffffffffffffffff16815260200191505060206040518083038186803b15801561566857600080fd5b505afa15801561567c573d6000803e3d6000fd5b505050506040513d602081101561569257600080fd5b8101908080519060200190929190505050156157345760006156eb603684815481106156ba57fe5b9060005260206000200160009054906101000a900473ffffffffffffffffffffffffffffffffffffffff1687615cef565b9050838112615732578093506036838154811061570457fe5b9060005260206000200160009054906101000a900473ffffffffffffffffffffffffffffffffffffffff1694505b505b5080806001019150506155a2565b505092915050565b615816838473ffffffffffffffffffffffffffffffffffffffff1663a9059cbb905060e01b8484604051602401808373ffffffffffffffffffffffffffffffffffffffff1673ffffffffffffffffffffffffffffffffffffffff16815260200182815260200192505050604051602081830303815290604052907bffffffffffffffffffffffffffffffffffffffffffffffffffffffff19166020820180517bffffffffffffffffffffffffffffffffffffffffffffffffffffffff8381831617835250505050615134565b505050565b600061585d83836040518060400160405280601e81526020017f536166654d6174683a207375627472616374696f6e206f766572666c6f770000815250615d61565b905092915050565b60008090506000670de0b6b3a7640000905060008090505b603680549050811015615adf5760006036828154811061589957fe5b9060005260206000200160009054906101000a900473ffffffffffffffffffffffffffffffffffffffff1690508073ffffffffffffffffffffffffffffffffffffffff1663aa388af6886040518263ffffffff1660e01b8152600401808273ffffffffffffffffffffffffffffffffffffffff1673ffffffffffffffffffffffffffffffffffffffff16815260200191505060206040518083038186803b15801561594357600080fd5b505afa158015615957573d6000803e3d6000fd5b505050506040513d602081101561596d57600080fd5b81019080805190602001909291905050508015615a405750858173ffffffffffffffffffffffffffffffffffffffff16635f515226896040518263ffffffff1660e01b8152600401808273ffffffffffffffffffffffffffffffffffffffff1673ffffffffffffffffffffffffffffffffffffffff16815260200191505060206040518083038186803b158015615a0357600080fd5b505afa158015615a17573d6000803e3d6000fd5b505050506040513d6020811015615a2d57600080fd5b8101908080519060200190929190505050115b15615ad1576000615a8860368481548110615a5757fe5b9060005260206000200160009054906101000a900473ffffffffffffffffffffffffffffffffffffffff1687615cef565b9050838113615acf5780935060368381548110615aa157fe5b9060005260206000200160009054906101000a900473ffffffffffffffffffffffffffffffffffffffff1694505b505b50808060010191505061587d565b50509392505050565b60007f7bea13895fa79d2831e0a9e28edede30099005a50d652d8957cf8a607ee6ca4a60001b90508181555050565b600080905060008090505b603480549050811015615bda576000615b7160348381548110615b4157fe5b9060005260206000200160009054906101000a900473ffffffffffffffffffffffffffffffffffffffff1661349f565b9050615bc881601203615bba60348581548110615b8a57fe5b9060005260206000200160009054906101000a900473ffffffffffffffffffffffffffffffffffffffff1661469c565b6144da90919063ffffffff16565b83019250508080600101915050615b22565b5090565b60008083118290615c8a576040517f08c379a00000000000000000000000000000000000000000000000000000000081526004018080602001828103825283818151815260200191508051906020019080838360005b83811015615c4f578082015181840152602081019050615c34565b50505050905090810190601f168015615c7c5780820380516001836020036101000a031916815260200191505b509250505060405180910390fd5b506000838581615c9657fe5b049050809150509392505050565b60008060007fc5d2460186f7233c927e7db2dcc703c0e500b653ca82273b7bfad8045d85a47060001b9050833f9150808214158015615ce657506000801b8214155b92505050919050565b6000615d15615cfd83614d27565b615d078585614d43565b614fdc90919063ffffffff16565b603560008573ffffffffffffffffffffffffffffffffffffffff1673ffffffffffffffffffffffffffffffffffffffff1681526020019081526020016000206001015403905092915050565b6000838311158290615e0e576040517f08c379a00000000000000000000000000000000000000000000000000000000081526004018080602001828103825283818151815260200191508051906020019080838360005b83811015615dd3578082015181840152602081019050615db8565b50505050905090810190601f168015615e005780820380516001836020036101000a031916815260200191505b509250505060405180910390fd5b5060008385039050809150509392505050565b815481835581811115615e4857818360005260206000209182019101615e479190615e4d565b5b505050565b615e6f91905b80821115615e6b576000816000905550600101615e53565b5090565b9056fe546f6b656e206d75737420686176652073756666696369656e7420646563696d616c20706c61636573536166654d6174683a206d756c7469706c69636174696f6e206f766572666c6f775361666545524332303a204552433230206f7065726174696f6e20646964206e6f7420737563636565644f6e6c79207468652070656e64696e6720476f7665726e6f722063616e20636f6d706c6574652074686520636c61696da265627a7a723158203a1df425dc20456e235992a95e327683d2653e71152ba32286ce3724651d550d64736f6c634300050b0032",
  "devdoc": {
    "methods": {
      "addStrategy(address,uint256)": {
        "details": "Add a strategy to the Vault.",
        "params": {
          "_addr": "Address of the strategy to add",
          "_targetWeight": "Target percentage of asset allocation to strategy"
        }
      },
      "allocate()": {
        "details": "Allocate unallocated funds on Vault to strategies.*"
      },
      "checkBalance(address)": {
        "params": {
          "_asset": "Address of asset"
        },
        "return": "uint256 Balance of asset in decimals of asset"
      },
      "claimGovernance()": {
        "details": "Claim Governance of the contract to a new account (`newGovernor`). Can only be called by the new Governor."
      },
      "collectRewardTokens()": {
        "details": "Collect reward tokens from all strategies."
      },
      "collectRewardTokens(address)": {
        "details": "Collect reward tokens from a single strategy and transfer them to Vault.",
        "params": {
          "_strategyAddr": "Address of the strategy to collect rewards from"
        }
      },
      "getAPR()": {
        "details": "Get the total APR of the Vault and all Strategies."
      },
      "getAllAssets()": {
        "details": "Return all asset addresses in order"
      },
      "getAssetCount()": {
        "details": "Return the number of assets suppported by the Vault."
      },
      "getStrategyCount()": {
        "details": "Return the number of strategies active on the Vault."
      },
      "governor()": {
        "details": "Returns the address of the current Governor."
      },
      "isGovernor()": {
        "details": "Returns true if the caller is the current Governor."
      },
      "isSupportedAsset(address)": {
        "details": "Determines if an asset is supported by the vault.",
        "params": {
          "_asset": "Address of the asset"
        }
      },
      "mint(address,uint256)": {
        "details": "Deposit a supported asset and mint OUSD.",
        "params": {
          "_amount": "Amount of the asset being deposited",
          "_asset": "Address of the asset being deposited"
        }
      },
      "mintMultiple(address[],uint256[])": {
        "details": "Mint for multiple assets in the same call.",
        "params": {
          "_amounts": "Amount of each asset at the same index in the _assets                to deposit.",
          "_assets": "Addresses of assets being deposited"
        }
      },
      "pauseDeposits()": {
        "details": "Set the deposit paused flag to true to prevent deposits."
      },
      "pauseRebase()": {
        "details": "Set the deposit paused flag to true to prevent rebasing."
      },
      "priceUSDMint(string)": {
        "details": "Returns the total price in 18 digit USD for a given asset.     Using Min since min is what we use for mint pricing",
        "params": {
          "symbol": "String symbol of the asset"
        },
        "return": "uint256 USD price of 1 of the asset"
      },
      "priceUSDRedeem(string)": {
        "details": "Returns the total price in 18 digit USD for a given asset.     Using Max since max is what we use for redeem pricing",
        "params": {
          "symbol": "String symbol of the asset"
        },
        "return": "uint256 USD price of 1 of the asset"
      },
      "rebase()": {
        "details": "Calculate the total value of assets held by the Vault and all        strategies and update the supply of oUSD"
      },
      "redeem(uint256)": {
        "details": "Withdraw a supported asset and burn OUSD.",
        "params": {
          "_amount": "Amount of OUSD to burn"
        }
      },
      "removeStrategy(address)": {
        "details": "Remove a strategy from the Vault. Removes all invested assets and returns them to the Vault.",
        "params": {
          "_addr": "Address of the strategy to remove"
        }
      },
      "setAutoAllocateThreshold(uint256)": {
        "details": "Sets the minimum amount of OUSD in a mint to trigger an automatic allocation of funds afterwords.",
        "params": {
          "_threshold": "OUSD amount with 18 fixed decimals."
        }
      },
      "setPriceProvider(address)": {
        "details": "Set address of price provider.",
        "params": {
          "_priceProvider": "Address of price provider"
        }
      },
      "setRebaseThreshold(uint256)": {
        "details": "Set a minimum amount of OUSD in a mint or redeem that triggers a rebase",
        "params": {
          "_threshold": "OUSD amount with 18 fixed decimals."
        }
      },
      "setRedeemFeeBps(uint256)": {
        "details": "Set a fee in basis points to be charged for a redeem.",
        "params": {
          "_redeemFeeBps": "Basis point fee to be charged"
        }
      },
      "setStrategyWeights(address[],uint256[])": {
        "params": {
          "_strategyAddresses": "Array of strategy addresses",
          "_weights": "Array of corresponding weights, with 18 decimals.                For ex. 100%=1e18, 30%=3e17."
        }
      },
      "setVaultBuffer(uint256)": {
        "details": "Set a buffer of assets to keep in the Vault to handle most redemptions without needing to spend gas unwinding assets from a Strategy.",
        "params": {
          "_vaultBuffer": "Percentage using 18 decimals. 100% = 1e18."
        }
      },
      "supportAsset(address)": {
        "details": "Add a supported asset to the contract, i.e. one that can be        to mint OUSD.",
        "params": {
          "_asset": "Address of asset"
        }
      },
      "totalValue()": {
        "details": "Determine the total value of assets held by the vault and its        strategies.",
        "return": "uint256 value Total value in USD (1e18)"
      },
      "transferGovernance(address)": {
        "details": "Transfers Governance of the contract to a new account (`newGovernor`). Can only be called by the current Governor. Must be claimed for this to complete",
        "params": {
          "_newGovernor": "Address of the new Governor"
        }
      },
      "transferToken(address,uint256)": {
        "details": "Transfer token to governor. Intended for recovering tokens stuck in     contract, i.e. mistaken sends.",
        "params": {
          "_amount": "Amount of the asset to transfer",
          "_asset": "Address for the asset"
        }
      },
      "unpauseDeposits()": {
        "details": "Set the deposit paused flag to false to enable deposits."
      },
      "unpauseRebase()": {
        "details": "Set the deposit paused flag to true to allow rebasing."
      }
    }
  },
  "userdoc": {
    "methods": {
      "allocate()": {
        "notice": "Allocate unallocated funds on Vault to strategies."
      },
      "calculateRedeemOutputs(uint256)": {
        "notice": "Calculate the outputs for a redeem function, i.e. the mix of coins that will be returned"
      },
      "checkBalance(address)": {
        "notice": "Get the balance of an asset held in Vault and all strategies."
      },
      "redeemAll()": {
        "notice": "Withdraw a supported asset and burn all OUSD."
      },
      "setStrategyWeights(address[],uint256[])": {
        "notice": "Set the weights for multiple strategies."
      }
    }
  },
  "gasEstimates": {
    "creation": {
      "codeDepositCost": "4879000",
      "executionCost": "infinite",
      "totalCost": "infinite"
    },
    "external": {
      "addStrategy(address,uint256)": "83113",
      "allocate()": "infinite",
      "autoAllocateThreshold()": "472",
      "calculateRedeemOutputs(uint256)": "infinite",
      "checkBalance(address)": "infinite",
      "claimGovernance()": "infinite",
      "collectRewardTokens()": "infinite",
      "collectRewardTokens(address)": "infinite",
      "depositPaused()": "572",
      "getAPR()": "infinite",
      "getAllAssets()": "infinite",
      "getAssetCount()": "510",
      "getStrategyCount()": "511",
      "governor()": "525",
      "isGovernor()": "607",
      "isSupportedAsset(address)": "695",
      "mint(address,uint256)": "infinite",
      "mintMultiple(address[],uint256[])": "infinite",
      "pauseDeposits()": "21608",
      "pauseRebase()": "20873",
      "priceProvider()": "498",
      "priceUSDMint(string)": "infinite",
      "priceUSDRedeem(string)": "infinite",
      "rebase()": "infinite",
      "rebasePaused()": "614",
      "rebaseThreshold()": "494",
      "redeem(uint256)": "infinite",
      "redeemAll()": "infinite",
      "redeemFeeBps()": "540",
      "removeStrategy(address)": "infinite",
      "setAutoAllocateThreshold(uint256)": "20720",
      "setPriceProvider(address)": "20936",
      "setRebaseThreshold(uint256)": "20632",
      "setRedeemFeeBps(uint256)": "20697",
      "setStrategyWeights(address[],uint256[])": "infinite",
      "setVaultBuffer(uint256)": "20699",
      "supportAsset(address)": "63046",
      "totalValue()": "infinite",
      "transferGovernance(address)": "infinite",
      "transferToken(address,uint256)": "infinite",
      "unpauseDeposits()": "21629",
      "unpauseRebase()": "20897",
      "vaultBuffer()": "517"
    },
    "internal": {
      "_calculateRedeemOutputs(uint256)": "infinite",
      "_checkBalance()": "infinite",
      "_checkBalance(address)": "infinite",
      "_getAssetPrices(bool)": "infinite",
      "_priceUSDMint(string memory)": "infinite",
      "_priceUSDRedeem(string memory)": "infinite",
      "_redeem(uint256,uint256[] memory)": "infinite",
      "_selectDepositStrategyAddr(address,uint256[] memory)": "infinite",
      "_selectWithdrawStrategyAddr(address,uint256,uint256[] memory)": "infinite",
      "_strategyWeightDifference(address,uint256[] memory)": "infinite",
      "_totalValue(uint256[] memory)": "infinite",
      "_totalValueInStrategies(uint256[] memory)": "infinite",
      "_totalValueInStrategy(address,uint256[] memory)": "infinite",
      "_totalValueInVault(uint256[] memory)": "infinite",
      "allocate(uint256[] memory)": "infinite",
      "rebase(uint256[] memory)": "infinite"
    }
  }
}