{
  "abi": [
    {
      "constant": false,
      "inputs": [],
      "name": "pauseDeposits",
      "outputs": [],
      "payable": false,
      "stateMutability": "nonpayable",
      "type": "function"
    },
    {
      "constant": true,
      "inputs": [],
      "name": "depositPaused",
      "outputs": [
        {
          "internalType": "bool",
          "name": "",
          "type": "bool"
        }
      ],
      "payable": false,
      "stateMutability": "view",
      "type": "function"
    },
    {
      "constant": false,
      "inputs": [
        {
          "internalType": "address[]",
          "name": "_assets",
          "type": "address[]"
        },
        {
          "internalType": "uint256[]",
          "name": "_amounts",
          "type": "uint256[]"
        }
      ],
      "name": "mintMultiple",
      "outputs": [],
      "payable": false,
      "stateMutability": "nonpayable",
      "type": "function"
    },
    {
      "constant": false,
      "inputs": [],
      "name": "unpauseRebase",
      "outputs": [],
      "payable": false,
      "stateMutability": "nonpayable",
      "type": "function"
    },
    {
      "constant": true,
      "inputs": [],
      "name": "redeemFeeBps",
      "outputs": [
        {
          "internalType": "uint256",
          "name": "",
          "type": "uint256"
        }
      ],
      "payable": false,
      "stateMutability": "view",
      "type": "function"
    },
    {
      "constant": true,
      "inputs": [],
      "name": "governor",
      "outputs": [
        {
          "internalType": "address",
          "name": "",
          "type": "address"
        }
      ],
      "payable": false,
      "stateMutability": "view",
      "type": "function"
    },
    {
      "constant": false,
      "inputs": [
        {
          "internalType": "address",
          "name": "_asset",
          "type": "address"
        },
        {
          "internalType": "uint256",
          "name": "_amount",
          "type": "uint256"
        }
      ],
      "name": "transferToken",
      "outputs": [],
      "payable": false,
      "stateMutability": "nonpayable",
      "type": "function"
    },
    {
      "constant": false,
      "inputs": [
        {
          "internalType": "address",
          "name": "_addr",
          "type": "address"
        }
      ],
      "name": "removeStrategy",
      "outputs": [],
      "payable": false,
      "stateMutability": "nonpayable",
      "type": "function"
    },
    {
      "constant": true,
      "inputs": [],
      "name": "vaultBuffer",
      "outputs": [
        {
          "internalType": "uint256",
          "name": "",
          "type": "uint256"
        }
      ],
      "payable": false,
      "stateMutability": "view",
      "type": "function"
    },
    {
      "constant": false,
      "inputs": [
        {
          "internalType": "string",
          "name": "symbol",
          "type": "string"
        }
      ],
      "name": "priceUSDRedeem",
      "outputs": [
        {
          "internalType": "uint256",
          "name": "",
          "type": "uint256"
        }
      ],
      "payable": false,
      "stateMutability": "nonpayable",
      "type": "function"
    },
    {
      "constant": true,
      "inputs": [],
      "name": "getAllAssets",
      "outputs": [
        {
          "internalType": "address[]",
          "name": "",
          "type": "address[]"
        }
      ],
      "payable": false,
      "stateMutability": "view",
      "type": "function"
    },
    {
      "constant": false,
      "inputs": [],
      "name": "redeemAll",
      "outputs": [],
      "payable": false,
      "stateMutability": "nonpayable",
      "type": "function"
    },
    {
      "constant": true,
      "inputs": [],
      "name": "getStrategyCount",
      "outputs": [
        {
          "internalType": "uint256",
          "name": "",
          "type": "uint256"
        }
      ],
      "payable": false,
      "stateMutability": "view",
      "type": "function"
    },
    {
      "constant": false,
      "inputs": [
        {
          "internalType": "address",
          "name": "_priceProvider",
          "type": "address"
        }
      ],
      "name": "setPriceProvider",
      "outputs": [],
      "payable": false,
      "stateMutability": "nonpayable",
      "type": "function"
    },
    {
      "constant": false,
      "inputs": [
        {
          "internalType": "address",
          "name": "_asset",
          "type": "address"
        },
        {
          "internalType": "uint256",
          "name": "_amount",
          "type": "uint256"
        }
      ],
      "name": "mint",
      "outputs": [],
      "payable": false,
      "stateMutability": "nonpayable",
      "type": "function"
    },
    {
      "constant": false,
      "inputs": [
        {
          "internalType": "address",
          "name": "_priceProvider",
          "type": "address"
        },
        {
          "internalType": "address",
          "name": "_ousd",
          "type": "address"
        }
      ],
      "name": "initialize",
      "outputs": [],
      "payable": false,
      "stateMutability": "nonpayable",
      "type": "function"
    },
    {
      "constant": false,
      "inputs": [
        {
          "internalType": "address",
          "name": "_asset",
          "type": "address"
        }
      ],
      "name": "supportAsset",
      "outputs": [],
      "payable": false,
      "stateMutability": "nonpayable",
      "type": "function"
    },
    {
      "constant": false,
      "inputs": [
        {
          "internalType": "address[]",
          "name": "_strategyAddresses",
          "type": "address[]"
        },
        {
          "internalType": "uint256[]",
          "name": "_weights",
          "type": "uint256[]"
        }
      ],
      "name": "setStrategyWeights",
      "outputs": [],
      "payable": false,
      "stateMutability": "nonpayable",
      "type": "function"
    },
    {
      "constant": true,
      "inputs": [],
      "name": "rebaseThreshold",
      "outputs": [
        {
          "internalType": "uint256",
          "name": "",
          "type": "uint256"
        }
      ],
      "payable": false,
      "stateMutability": "view",
      "type": "function"
    },
    {
      "constant": true,
      "inputs": [],
      "name": "rebasePaused",
      "outputs": [
        {
          "internalType": "bool",
          "name": "",
          "type": "bool"
        }
      ],
      "payable": false,
      "stateMutability": "view",
      "type": "function"
    },
    {
      "constant": false,
      "inputs": [],
      "name": "claimGovernance",
      "outputs": [],
      "payable": false,
      "stateMutability": "nonpayable",
      "type": "function"
    },
    {
      "constant": true,
      "inputs": [
        {
          "internalType": "address",
          "name": "_asset",
          "type": "address"
        }
      ],
      "name": "checkBalance",
      "outputs": [
        {
          "internalType": "uint256",
          "name": "",
          "type": "uint256"
        }
      ],
      "payable": false,
      "stateMutability": "view",
      "type": "function"
    },
    {
      "constant": false,
      "inputs": [],
      "name": "unpauseDeposits",
      "outputs": [],
      "payable": false,
      "stateMutability": "nonpayable",
      "type": "function"
    },
    {
      "constant": false,
      "inputs": [
        {
          "internalType": "uint256",
          "name": "_amount",
          "type": "uint256"
        }
      ],
      "name": "calculateRedeemOutputs",
      "outputs": [
        {
          "internalType": "uint256[]",
          "name": "",
          "type": "uint256[]"
        }
      ],
      "payable": false,
      "stateMutability": "nonpayable",
      "type": "function"
    },
    {
      "constant": false,
      "inputs": [
        {
          "internalType": "string",
          "name": "symbol",
          "type": "string"
        }
      ],
      "name": "priceUSDMint",
      "outputs": [
        {
          "internalType": "uint256",
          "name": "",
          "type": "uint256"
        }
      ],
      "payable": false,
      "stateMutability": "nonpayable",
      "type": "function"
    },
    {
      "constant": false,
      "inputs": [
        {
          "internalType": "uint256",
          "name": "_vaultBuffer",
          "type": "uint256"
        }
      ],
      "name": "setVaultBuffer",
      "outputs": [],
      "payable": false,
      "stateMutability": "nonpayable",
      "type": "function"
    },
    {
      "constant": true,
      "inputs": [
        {
          "internalType": "address",
          "name": "_asset",
          "type": "address"
        }
      ],
      "name": "isSupportedAsset",
      "outputs": [
        {
          "internalType": "bool",
          "name": "",
          "type": "bool"
        }
      ],
      "payable": false,
      "stateMutability": "view",
      "type": "function"
    },
    {
      "constant": true,
      "inputs": [],
      "name": "autoAllocateThreshold",
      "outputs": [
        {
          "internalType": "uint256",
          "name": "",
          "type": "uint256"
        }
      ],
      "payable": false,
      "stateMutability": "view",
      "type": "function"
    },
    {
      "constant": true,
      "inputs": [],
      "name": "getAssetCount",
      "outputs": [
        {
          "internalType": "uint256",
          "name": "",
          "type": "uint256"
        }
      ],
      "payable": false,
      "stateMutability": "view",
      "type": "function"
    },
    {
      "constant": false,
      "inputs": [],
      "name": "allocate",
      "outputs": [],
      "payable": false,
      "stateMutability": "nonpayable",
      "type": "function"
    },
    {
      "constant": false,
      "inputs": [],
      "name": "rebase",
      "outputs": [
        {
          "internalType": "uint256",
          "name": "",
          "type": "uint256"
        }
      ],
      "payable": false,
      "stateMutability": "nonpayable",
      "type": "function"
    },
    {
      "constant": false,
      "inputs": [
        {
          "internalType": "uint256",
          "name": "_threshold",
          "type": "uint256"
        }
      ],
      "name": "setAutoAllocateThreshold",
      "outputs": [],
      "payable": false,
      "stateMutability": "nonpayable",
      "type": "function"
    },
    {
      "constant": true,
      "inputs": [],
      "name": "priceProvider",
      "outputs": [
        {
          "internalType": "address",
          "name": "",
          "type": "address"
        }
      ],
      "payable": false,
      "stateMutability": "view",
      "type": "function"
    },
    {
      "constant": false,
      "inputs": [
        {
          "internalType": "uint256",
          "name": "_threshold",
          "type": "uint256"
        }
      ],
      "name": "setRebaseThreshold",
      "outputs": [],
      "payable": false,
      "stateMutability": "nonpayable",
      "type": "function"
    },
    {
      "constant": false,
      "inputs": [],
      "name": "pauseRebase",
      "outputs": [],
      "payable": false,
      "stateMutability": "nonpayable",
      "type": "function"
    },
    {
      "constant": true,
      "inputs": [],
      "name": "isGovernor",
      "outputs": [
        {
          "internalType": "bool",
          "name": "",
          "type": "bool"
        }
      ],
      "payable": false,
      "stateMutability": "view",
      "type": "function"
    },
    {
      "constant": false,
      "inputs": [],
      "name": "getAPR",
      "outputs": [
        {
          "internalType": "uint256",
          "name": "",
          "type": "uint256"
        }
      ],
      "payable": false,
      "stateMutability": "nonpayable",
      "type": "function"
    },
    {
      "constant": false,
      "inputs": [
        {
          "internalType": "address",
          "name": "_addr",
          "type": "address"
        },
        {
          "internalType": "uint256",
          "name": "_targetWeight",
          "type": "uint256"
        }
      ],
      "name": "addStrategy",
      "outputs": [],
      "payable": false,
      "stateMutability": "nonpayable",
      "type": "function"
    },
    {
      "constant": false,
      "inputs": [
        {
          "internalType": "address",
          "name": "_newGovernor",
          "type": "address"
        }
      ],
      "name": "transferGovernance",
      "outputs": [],
      "payable": false,
      "stateMutability": "nonpayable",
      "type": "function"
    },
    {
      "constant": false,
      "inputs": [],
      "name": "totalValue",
      "outputs": [
        {
          "internalType": "uint256",
          "name": "value",
          "type": "uint256"
        }
      ],
      "payable": false,
      "stateMutability": "nonpayable",
      "type": "function"
    },
    {
      "constant": false,
      "inputs": [
        {
          "internalType": "uint256",
          "name": "_amount",
          "type": "uint256"
        }
      ],
      "name": "redeem",
      "outputs": [],
      "payable": false,
      "stateMutability": "nonpayable",
      "type": "function"
    },
    {
      "constant": false,
      "inputs": [
        {
          "internalType": "uint256",
          "name": "_redeemFeeBps",
          "type": "uint256"
        }
      ],
      "name": "setRedeemFeeBps",
      "outputs": [],
      "payable": false,
      "stateMutability": "nonpayable",
      "type": "function"
    },
    {
      "anonymous": false,
      "inputs": [
        {
          "indexed": false,
          "internalType": "address",
          "name": "_asset",
          "type": "address"
        }
      ],
      "name": "AssetSupported",
      "type": "event"
    },
    {
      "anonymous": false,
      "inputs": [
        {
          "indexed": false,
          "internalType": "address",
          "name": "_addr",
          "type": "address"
        }
      ],
      "name": "StrategyAdded",
      "type": "event"
    },
    {
      "anonymous": false,
      "inputs": [
        {
          "indexed": false,
          "internalType": "address",
          "name": "_addr",
          "type": "address"
        }
      ],
      "name": "StrategyRemoved",
      "type": "event"
    },
    {
      "anonymous": false,
      "inputs": [
        {
          "indexed": false,
          "internalType": "address",
          "name": "_addr",
          "type": "address"
        },
        {
          "indexed": false,
          "internalType": "uint256",
          "name": "_value",
          "type": "uint256"
        }
      ],
      "name": "Mint",
      "type": "event"
    },
    {
      "anonymous": false,
      "inputs": [
        {
          "indexed": false,
          "internalType": "address",
          "name": "_addr",
          "type": "address"
        },
        {
          "indexed": false,
          "internalType": "uint256",
          "name": "_value",
          "type": "uint256"
        }
      ],
      "name": "Redeem",
      "type": "event"
    },
    {
      "anonymous": false,
      "inputs": [
        {
          "indexed": false,
          "internalType": "address[]",
          "name": "_strategyAddresses",
          "type": "address[]"
        },
        {
          "indexed": false,
          "internalType": "uint256[]",
          "name": "weights",
          "type": "uint256[]"
        }
      ],
      "name": "StrategyWeightsUpdated",
      "type": "event"
    },
    {
      "anonymous": false,
      "inputs": [],
      "name": "DepositsPaused",
      "type": "event"
    },
    {
      "anonymous": false,
      "inputs": [],
      "name": "DepositsUnpaused",
      "type": "event"
    },
    {
      "anonymous": false,
      "inputs": [
        {
          "indexed": true,
          "internalType": "address",
          "name": "previousGovernor",
          "type": "address"
        },
        {
          "indexed": true,
          "internalType": "address",
          "name": "newGovernor",
          "type": "address"
        }
      ],
      "name": "PendingGovernorshipTransfer",
      "type": "event"
    },
    {
      "anonymous": false,
      "inputs": [
        {
          "indexed": true,
          "internalType": "address",
          "name": "previousGovernor",
          "type": "address"
        },
        {
          "indexed": true,
          "internalType": "address",
          "name": "newGovernor",
          "type": "address"
        }
      ],
      "name": "GovernorshipTransferred",
      "type": "event"
    }
  ],
  "address": "0xE55D78eD901B71e437dac590ef149c6648a24Cb4",
  "args": [],
  "solcInputHash": "0x36085b7bfcbb5a40d4a8d19e4d4b4641d4603274b01876a607aacefb0a3cc748",
  "bytecode": "0x60806040526000603760146101000a81548160ff0219169083151502179055506001603760156101000a81548160ff0219169083151502179055506200004b33620000bb60201b60201c565b6200005b620000ea60201b60201c565b73ffffffffffffffffffffffffffffffffffffffff16600073ffffffffffffffffffffffffffffffffffffffff167fc7c0c772add429241571afb3805861fb3cfa2af374534088b76cdb4325a87e9a60405160405180910390a36200011b565b60007f7bea13895fa79d2831e0a9e28edede30099005a50d652d8957cf8a607ee6ca4a60001b90508181555050565b6000807f7bea13895fa79d2831e0a9e28edede30099005a50d652d8957cf8a607ee6ca4a60001b9050805491505090565b615f26806200012b6000396000f3fe608060405234801561001057600080fd5b506004361061025e5760003560e01c80635f51522611610146578063b2c9336d116100c3578063c89d5b8b11610087578063c89d5b8b14610b17578063c9411e2214610b35578063d38bfff414610b83578063d4c3eea014610bc7578063db006a7514610be5578063eb03654b14610c135761025e565b8063b2c9336d14610a45578063b888879e14610a73578063b890ebf614610abd578063c5f0084114610aeb578063c7af335214610af55761025e565b80639be918e61161010a5780639be918e6146109855780639fa1826e146109e1578063a0aead4d146109ff578063abaa991614610a1d578063af14052c14610a275761025e565b80635f515226146107e557806363d8882a1461083d57806367bd7ba314610847578063686b37ca146108ca5780638ec489a2146109575761025e565b80632acada4d116101df578063485cc955116101a3578063485cc955146106255780634cd55c2d146106895780634dab68b3146106cd57806352d38e5d1461079b57806353ca9f24146107b95780635d36b190146107db5761025e565b80632acada4d1461050c5780632f4350c21461056b57806331e19cfa14610575578063372aa2241461059357806340c10f19146105d75761025e565b80630c340a24116102265780630c340a24146103855780631072cbea146103cf578063175188e81461041d5780631edfe3da1461046157806329a903ec1461047f5761025e565b8063021919801461026357806302befd241461026d57806307ea54771461028f57806309f49bf51461035d57806309f6442c14610367575b600080fd5b61026b610c41565b005b610275610d04565b604051808215151515815260200191505060405180910390f35b61035b600480360360408110156102a557600080fd5b81019080803590602001906401000000008111156102c257600080fd5b8201836020820111156102d457600080fd5b803590602001918460208302840111640100000000831117156102f657600080fd5b90919293919293908035906020019064010000000081111561031757600080fd5b82018360208201111561032957600080fd5b8035906020019184602083028401116401000000008311171561034b57600080fd5b9091929391929390505050610d17565b005b610365610ffc565b005b61036f611093565b6040518082815260200191505060405180910390f35b61038d611099565b604051808273ffffffffffffffffffffffffffffffffffffffff1673ffffffffffffffffffffffffffffffffffffffff16815260200191505060405180910390f35b61041b600480360360408110156103e557600080fd5b81019080803573ffffffffffffffffffffffffffffffffffffffff169060200190929190803590602001909291905050506110a8565b005b61045f6004803603602081101561043357600080fd5b81019080803573ffffffffffffffffffffffffffffffffffffffff1690602001909291905050506111f0565b005b610469611550565b6040518082815260200191505060405180910390f35b6104f66004803603602081101561049557600080fd5b81019080803590602001906401000000008111156104b257600080fd5b8201836020820111156104c457600080fd5b803590602001918460018302840111640100000000831117156104e657600080fd5b9091929391929390505050611556565b6040518082815260200191505060405180910390f35b6105146115ad565b6040518080602001828103825283818151815260200191508051906020019060200280838360005b8381101561055757808201518184015260208101905061053c565b505050509050019250505060405180910390f35b61057361163b565b005b61057d61171f565b6040518082815260200191505060405180910390f35b6105d5600480360360208110156105a957600080fd5b81019080803573ffffffffffffffffffffffffffffffffffffffff16906020019092919050505061172c565b005b610623600480360360408110156105ed57600080fd5b81019080803573ffffffffffffffffffffffffffffffffffffffff169060200190929190803590602001909291905050506117ea565b005b6106876004803603604081101561063b57600080fd5b81019080803573ffffffffffffffffffffffffffffffffffffffff169060200190929190803573ffffffffffffffffffffffffffffffffffffffff169060200190929190505050611b56565b005b6106cb6004803603602081101561069f57600080fd5b81019080803573ffffffffffffffffffffffffffffffffffffffff169060200190929190505050611f00565b005b610799600480360360408110156106e357600080fd5b810190808035906020019064010000000081111561070057600080fd5b82018360208201111561071257600080fd5b8035906020019184602083028401116401000000008311171561073457600080fd5b90919293919293908035906020019064010000000081111561075557600080fd5b82018360208201111561076757600080fd5b8035906020019184602083028401116401000000008311171561078957600080fd5b909192939192939050505061217d565b005b6107a36123b5565b6040518082815260200191505060405180910390f35b6107c16123bb565b604051808215151515815260200191505060405180910390f35b6107e36123ce565b005b610827600480360360208110156107fb57600080fd5b81019080803573ffffffffffffffffffffffffffffffffffffffff169060200190929190505050612464565b6040518082815260200191505060405180910390f35b610845612476565b005b6108736004803603602081101561085d57600080fd5b8101908080359060200190929190505050612539565b6040518080602001828103825283818151815260200191508051906020019060200280838360005b838110156108b657808201518184015260208101905061089b565b505050509050019250505060405180910390f35b610941600480360360208110156108e057600080fd5b81019080803590602001906401000000008111156108fd57600080fd5b82018360208201111561090f57600080fd5b8035906020019184600183028401116401000000008311171561093157600080fd5b909192939192939050505061254b565b6040518082815260200191505060405180910390f35b6109836004803603602081101561096d57600080fd5b81019080803590602001909291905050506125a2565b005b6109c76004803603602081101561099b57600080fd5b81019080803573ffffffffffffffffffffffffffffffffffffffff169060200190929190505050612626565b604051808215151515815260200191505060405180910390f35b6109e961267f565b6040518082815260200191505060405180910390f35b610a07612685565b6040518082815260200191505060405180910390f35b610a25612692565b005b610a2f6129ea565b6040518082815260200191505060405180910390f35b610a7160048036036020811015610a5b57600080fd5b8101908080359060200190929190505050612a8b565b005b610a7b612b0f565b604051808273ffffffffffffffffffffffffffffffffffffffff1673ffffffffffffffffffffffffffffffffffffffff16815260200191505060405180910390f35b610ae960048036036020811015610ad357600080fd5b8101908080359060200190929190505050612b35565b005b610af3612bb9565b005b610afd612c50565b604051808215151515815260200191505060405180910390f35b610b1f612c8d565b6040518082815260200191505060405180910390f35b610b8160048036036040811015610b4b57600080fd5b81019080803573ffffffffffffffffffffffffffffffffffffffff16906020019092919080359060200190929190505050612e9c565b005b610bc560048036036020811015610b9957600080fd5b81019080803573ffffffffffffffffffffffffffffffffffffffff16906020019092919050505061312a565b005b610bcf613211565b6040518082815260200191505060405180910390f35b610c1160048036036020811015610bfb57600080fd5b8101908080359060200190929190505050613230565b005b610c3f60048036036020811015610c2957600080fd5b8101908080359060200190929190505050613884565b005b610c49612c50565b610cbb576040517f08c379a000000000000000000000000000000000000000000000000000000000815260040180806020018281038252601a8152602001807f43616c6c6572206973206e6f742074686520476f7665726e6f7200000000000081525060200191505060405180910390fd5b6001603760156101000a81548160ff0219169083151502179055507fdeeb69430b7153361c25d630947115165636e6a723fa8daea4b0de34b324745960405160405180910390a1565b603760159054906101000a900460ff1681565b818190508484905014610d92576040517f08c379a00000000000000000000000000000000000000000000000000000000081526004018080602001828103825260198152602001807f506172616d65746572206c656e677468206d69736d617463680000000000000081525060200191505060405180910390fd5b600080905060008090505b85859050811015610dfd57610dec868683818110610db757fe5b9050602002013573ffffffffffffffffffffffffffffffffffffffff16858584818110610de057fe5b90506020020135613908565b820191508080600101915050610d9d565b50603b5481118015610e1c5750603760149054906101000a900460ff16155b15610e2b57610e296129ea565b505b60008090505b85859050811015610eb6576000868683818110610e4a57fe5b9050602002013573ffffffffffffffffffffffffffffffffffffffff169050610ea83330878786818110610e7a57fe5b905060200201358473ffffffffffffffffffffffffffffffffffffffff16613a7e909392919063ffffffff16565b508080600101915050610e31565b50603c60009054906101000a900473ffffffffffffffffffffffffffffffffffffffff1673ffffffffffffffffffffffffffffffffffffffff166340c10f1933836040518363ffffffff1660e01b8152600401808373ffffffffffffffffffffffffffffffffffffffff1673ffffffffffffffffffffffffffffffffffffffff16815260200182815260200192505050600060405180830381600087803b158015610f6057600080fd5b505af1158015610f74573d6000803e3d6000fd5b505050507f0f6798a560793a54c3bcfe86a93cde1e73087d944c0ea20544137d41213968853382604051808373ffffffffffffffffffffffffffffffffffffffff1673ffffffffffffffffffffffffffffffffffffffff1681526020018281526020019250505060405180910390a1603a548110610ff557610ff4612692565b5b5050505050565b611004612c50565b611076576040517f08c379a000000000000000000000000000000000000000000000000000000000815260040180806020018281038252601a8152602001807f43616c6c6572206973206e6f742074686520476f7665726e6f7200000000000081525060200191505060405180910390fd5b6000603760146101000a81548160ff021916908315150217905550565b60385481565b60006110a3613b84565b905090565b6110b0612c50565b611122576040517f08c379a000000000000000000000000000000000000000000000000000000000815260040180806020018281038252601a8152602001807f43616c6c6572206973206e6f742074686520476f7665726e6f7200000000000081525060200191505060405180910390fd5b8173ffffffffffffffffffffffffffffffffffffffff1663a9059cbb611146611099565b836040518363ffffffff1660e01b8152600401808373ffffffffffffffffffffffffffffffffffffffff1673ffffffffffffffffffffffffffffffffffffffff16815260200182815260200192505050602060405180830381600087803b1580156111b057600080fd5b505af11580156111c4573d6000803e3d6000fd5b505050506040513d60208110156111da57600080fd5b8101908080519060200190929190505050505050565b6111f8612c50565b61126a576040517f08c379a000000000000000000000000000000000000000000000000000000000815260040180806020018281038252601a8152602001807f43616c6c6572206973206e6f742074686520476f7665726e6f7200000000000081525060200191505060405180910390fd5b603560008273ffffffffffffffffffffffffffffffffffffffff1673ffffffffffffffffffffffffffffffffffffffff16815260200190815260200160002060000160009054906101000a900460ff1661132c576040517f08c379a00000000000000000000000000000000000000000000000000000000081526004018080602001828103825260128152602001807f5374726174656779206e6f74206164646564000000000000000000000000000081525060200191505060405180910390fd5b6000603680549050905060008090505b6036805490508110156113c9578273ffffffffffffffffffffffffffffffffffffffff166036828154811061136d57fe5b9060005260206000200160009054906101000a900473ffffffffffffffffffffffffffffffffffffffff1673ffffffffffffffffffffffffffffffffffffffff1614156113bc578091506113c9565b808060010191505061133c565b5060368054905081106113d857fe5b6036600160368054905003815481106113ed57fe5b9060005260206000200160009054906101000a900473ffffffffffffffffffffffffffffffffffffffff166036828154811061142557fe5b9060005260206000200160006101000a81548173ffffffffffffffffffffffffffffffffffffffff021916908373ffffffffffffffffffffffffffffffffffffffff16021790555060368054809190600190036114829190615dce565b5060008290508073ffffffffffffffffffffffffffffffffffffffff166328a070256040518163ffffffff1660e01b8152600401600060405180830381600087803b1580156114d057600080fd5b505af11580156114e4573d6000803e3d6000fd5b505050507f09a1db4b80c32706328728508c941a6b954f31eb5affd32f236c1fd405f8fea483604051808273ffffffffffffffffffffffffffffffffffffffff1673ffffffffffffffffffffffffffffffffffffffff16815260200191505060405180910390a1505050565b60395481565b60006115a583838080601f016020809104026020016040519081016040528093929190818152602001838380828437600081840152601f19601f82011690508083019250505050505050613bb5565b905092915050565b6060603480548060200260200160405190810160405280929190818152602001828054801561163157602002820191906000526020600020905b8160009054906101000a900473ffffffffffffffffffffffffffffffffffffffff1673ffffffffffffffffffffffffffffffffffffffff16815260200190600101908083116115e7575b5050505050905090565b61171d603c60009054906101000a900473ffffffffffffffffffffffffffffffffffffffff1673ffffffffffffffffffffffffffffffffffffffff166370a08231336040518263ffffffff1660e01b8152600401808273ffffffffffffffffffffffffffffffffffffffff1673ffffffffffffffffffffffffffffffffffffffff16815260200191505060206040518083038186803b1580156116dd57600080fd5b505afa1580156116f1573d6000803e3d6000fd5b505050506040513d602081101561170757600080fd5b8101908080519060200190929190505050613230565b565b6000603680549050905090565b611734612c50565b6117a6576040517f08c379a000000000000000000000000000000000000000000000000000000000815260040180806020018281038252601a8152602001807f43616c6c6572206973206e6f742074686520476f7665726e6f7200000000000081525060200191505060405180910390fd5b80603760006101000a81548173ffffffffffffffffffffffffffffffffffffffff021916908373ffffffffffffffffffffffffffffffffffffffff16021790555050565b603760159054906101000a900460ff161561186d576040517f08c379a00000000000000000000000000000000000000000000000000000000081526004018080602001828103825260138152602001807f4465706f7369747320617265207061757365640000000000000000000000000081525060200191505060405180910390fd5b603360008373ffffffffffffffffffffffffffffffffffffffff1673ffffffffffffffffffffffffffffffffffffffff16815260200190815260200160002060000160009054906101000a900460ff1661192f576040517f08c379a00000000000000000000000000000000000000000000000000000000081526004018080602001828103825260168152602001807f4173736574206973206e6f7420737570706f727465640000000000000000000081525060200191505060405180910390fd5b600081116119a5576040517f08c379a000000000000000000000000000000000000000000000000000000000815260040180806020018281038252601d8152602001807f416d6f756e74206d7573742062652067726561746572207468616e203000000081525060200191505060405180910390fd5b60006119b18383613908565b9050603b54811180156119d15750603760149054906101000a900460ff16155b156119e0576119de6129ea565b505b6000839050611a123330858473ffffffffffffffffffffffffffffffffffffffff16613a7e909392919063ffffffff16565b603c60009054906101000a900473ffffffffffffffffffffffffffffffffffffffff1673ffffffffffffffffffffffffffffffffffffffff166340c10f1933846040518363ffffffff1660e01b8152600401808373ffffffffffffffffffffffffffffffffffffffff1673ffffffffffffffffffffffffffffffffffffffff16815260200182815260200192505050600060405180830381600087803b158015611abb57600080fd5b505af1158015611acf573d6000803e3d6000fd5b505050507f0f6798a560793a54c3bcfe86a93cde1e73087d944c0ea20544137d41213968853383604051808373ffffffffffffffffffffffffffffffffffffffff1673ffffffffffffffffffffffffffffffffffffffff1681526020018281526020019250505060405180910390a1603a548210611b5057611b4f612692565b5b50505050565b611b5e612c50565b611bd0576040517f08c379a000000000000000000000000000000000000000000000000000000000815260040180806020018281038252601a8152602001807f43616c6c6572206973206e6f742074686520476f7665726e6f7200000000000081525060200191505060405180910390fd5b600060019054906101000a900460ff1680611bef5750611bee613ce6565b5b80611c0657506000809054906101000a900460ff16155b611c5b576040517f08c379a000000000000000000000000000000000000000000000000000000000815260040180806020018281038252602e815260200180615e6a602e913960400191505060405180910390fd5b60008060019054906101000a900460ff161590508015611cab576001600060016101000a81548160ff02191690831515021790555060016000806101000a81548160ff0219169083151502179055505b600073ffffffffffffffffffffffffffffffffffffffff168373ffffffffffffffffffffffffffffffffffffffff161415611d4e576040517f08c379a000000000000000000000000000000000000000000000000000000000815260040180806020018281038252601d8152602001807f507269636550726f76696465722061646472657373206973207a65726f00000081525060200191505060405180910390fd5b600073ffffffffffffffffffffffffffffffffffffffff168273ffffffffffffffffffffffffffffffffffffffff161415611df1576040517f08c379a00000000000000000000000000000000000000000000000000000000081526004018080602001828103825260148152602001807f6f5553442061646472657373206973207a65726f00000000000000000000000081525060200191505060405180910390fd5b81603c60006101000a81548173ffffffffffffffffffffffffffffffffffffffff021916908373ffffffffffffffffffffffffffffffffffffffff16021790555082603760006101000a81548173ffffffffffffffffffffffffffffffffffffffff021916908373ffffffffffffffffffffffffffffffffffffffff1602179055506000603760146101000a81548160ff0219169083151502179055506001603760156101000a81548160ff0219169083151502179055506000603881905550600060398190555069054b40b1f852bda00000603a81905550683635c9adc5dea00000603b819055508015611efb5760008060016101000a81548160ff0219169083151502179055505b505050565b611f08612c50565b611f7a576040517f08c379a000000000000000000000000000000000000000000000000000000000815260040180806020018281038252601a8152602001807f43616c6c6572206973206e6f742074686520476f7665726e6f7200000000000081525060200191505060405180910390fd5b603360008273ffffffffffffffffffffffffffffffffffffffff1673ffffffffffffffffffffffffffffffffffffffff16815260200190815260200160002060000160009054906101000a900460ff161561203d576040517f08c379a00000000000000000000000000000000000000000000000000000000081526004018080602001828103825260178152602001807f417373657420616c726561647920737570706f7274656400000000000000000081525060200191505060405180910390fd5b604051806020016040528060011515815250603360008373ffffffffffffffffffffffffffffffffffffffff1673ffffffffffffffffffffffffffffffffffffffff16815260200190815260200160002060008201518160000160006101000a81548160ff02191690831515021790555090505060348190806001815401808255809150509060018203906000526020600020016000909192909190916101000a81548173ffffffffffffffffffffffffffffffffffffffff021916908373ffffffffffffffffffffffffffffffffffffffff160217905550507f4f1ac48525e50059cc1cc6e0e1940ece0dd653a4db4841538d6aef036be2fb7b81604051808273ffffffffffffffffffffffffffffffffffffffff1673ffffffffffffffffffffffffffffffffffffffff16815260200191505060405180910390a150565b612185612c50565b6121f7576040517f08c379a000000000000000000000000000000000000000000000000000000000815260040180806020018281038252601a8152602001807f43616c6c6572206973206e6f742074686520476f7665726e6f7200000000000081525060200191505060405180910390fd5b818190508484905014612272576040517f08c379a00000000000000000000000000000000000000000000000000000000081526004018080602001828103825260198152602001807f506172616d65746572206c656e677468206d69736d617463680000000000000081525060200191505060405180910390fd5b60008090505b848490508110156123115782828281811061228f57fe5b90506020020135603560008787858181106122a657fe5b9050602002013573ffffffffffffffffffffffffffffffffffffffff1673ffffffffffffffffffffffffffffffffffffffff1673ffffffffffffffffffffffffffffffffffffffff168152602001908152602001600020600101819055508080600101915050612278565b507f96f2c15ff9c9cea757ec12e3f9aaa7705c3d0a154ee1e71c6e1221c8de0b7762848484846040518080602001806020018381038352878782818152602001925060200280828437600081840152601f19601f8201169050808301925050508381038252858582818152602001925060200280828437600081840152601f19601f820116905080830192505050965050505050505060405180910390a150505050565b603b5481565b603760149054906101000a900460ff1681565b6123d6613cfd565b73ffffffffffffffffffffffffffffffffffffffff163373ffffffffffffffffffffffffffffffffffffffff1614612459576040517f08c379a0000000000000000000000000000000000000000000000000000000008152600401808060200182810382526030815260200180615ec26030913960400191505060405180910390fd5b61246233613d2e565b565b600061246f82613e3e565b9050919050565b61247e612c50565b6124f0576040517f08c379a000000000000000000000000000000000000000000000000000000000815260040180806020018281038252601a8152602001807f43616c6c6572206973206e6f742074686520476f7665726e6f7200000000000081525060200191505060405180910390fd5b6000603760156101000a81548160ff0219169083151502179055507f823084e804e36d8971e8b86749b6b0ace7b9f87ed272bef910c1e72d123eeb4860405160405180910390a1565b6060612544826140dc565b9050919050565b600061259a83838080601f016020809104026020016040519081016040528093929190818152602001838380828437600081840152601f19601f82011690508083019250505050505050614398565b905092915050565b6125aa612c50565b61261c576040517f08c379a000000000000000000000000000000000000000000000000000000000815260040180806020018281038252601a8152602001807f43616c6c6572206973206e6f742074686520476f7665726e6f7200000000000081525060200191505060405180910390fd5b8060398190555050565b6000603360008373ffffffffffffffffffffffffffffffffffffffff1673ffffffffffffffffffffffffffffffffffffffff16815260200190815260200160002060000160009054906101000a900460ff169050919050565b603a5481565b6000603480549050905090565b606061269e60006144c9565b905060006126ab826147df565b905060008114156126bd5750506129e8565b60006126c883614982565b9050600081830190506000808314156126ef57603954670de0b6b3a7640000039050612745565b61271684612708846039546149f290919063ffffffff16565b614a7890919063ffffffff16565b905080670de0b6b3a7640000111561273a5780670de0b6b3a7640000039050612744565b50505050506129e8565b5b60008114156127585750505050506129e8565b60008090505b6034805490508110156129e15760006034828154811061277a57fe5b9060005260206000200160009054906101000a900473ffffffffffffffffffffffffffffffffffffffff16905060008173ffffffffffffffffffffffffffffffffffffffff166370a08231306040518263ffffffff1660e01b8152600401808273ffffffffffffffffffffffffffffffffffffffff1673ffffffffffffffffffffffffffffffffffffffff16815260200191505060206040518083038186803b15801561282657600080fd5b505afa15801561283a573d6000803e3d6000fd5b505050506040513d602081101561285057600080fd5b8101908080519060200190929190505050905060008114156128735750506129d4565b60006128888583614ac290919063ffffffff16565b90506000612896848b614adf565b9050600073ffffffffffffffffffffffffffffffffffffffff168173ffffffffffffffffffffffffffffffffffffffff16141580156128d55750600082115b156129cf57600081905061290a81848773ffffffffffffffffffffffffffffffffffffffff16614c979092919063ffffffff16565b8073ffffffffffffffffffffffffffffffffffffffff166347e7ef2486856040518363ffffffff1660e01b8152600401808373ffffffffffffffffffffffffffffffffffffffff1673ffffffffffffffffffffffffffffffffffffffff16815260200182815260200192505050602060405180830381600087803b15801561299157600080fd5b505af11580156129a5573d6000803e3d6000fd5b505050506040513d60208110156129bb57600080fd5b810190808051906020019092919050505050505b505050505b808060010191505061275e565b5050505050505b565b6000603760149054906101000a900460ff1615612a6f576040517f08c379a000000000000000000000000000000000000000000000000000000000815260040180806020018281038252600f8152602001807f5265626173696e6720706175736564000000000000000000000000000000000081525060200191505060405180910390fd5b6060612a7b60006144c9565b9050612a8681614d68565b505090565b612a93612c50565b612b05576040517f08c379a000000000000000000000000000000000000000000000000000000000815260040180806020018281038252601a8152602001807f43616c6c6572206973206e6f742074686520476f7665726e6f7200000000000081525060200191505060405180910390fd5b80603a8190555050565b603760009054906101000a900473ffffffffffffffffffffffffffffffffffffffff1681565b612b3d612c50565b612baf576040517f08c379a000000000000000000000000000000000000000000000000000000000815260040180806020018281038252601a8152602001807f43616c6c6572206973206e6f742074686520476f7665726e6f7200000000000081525060200191505060405180910390fd5b80603b8190555050565b612bc1612c50565b612c33576040517f08c379a000000000000000000000000000000000000000000000000000000000815260040180806020018281038252601a8152602001807f43616c6c6572206973206e6f742074686520476f7665726e6f7200000000000081525060200191505060405180910390fd5b6001603760146101000a81548160ff021916908315150217905550565b6000612c5a613b84565b73ffffffffffffffffffffffffffffffffffffffff163373ffffffffffffffffffffffffffffffffffffffff1614905090565b600080612c9861171f565b1415612ca75760009050612e99565b6060612cb360016144c9565b9050600080905060008090505b603680549050811015612e9257600060368281548110612cdc57fe5b9060005260206000200160009054906101000a900473ffffffffffffffffffffffffffffffffffffffff16905060008173ffffffffffffffffffffffffffffffffffffffff1663c89d5b8b6040518163ffffffff1660e01b815260040160206040518083038186803b158015612d5157600080fd5b505afa158015612d65573d6000803e3d6000fd5b505050506040513d6020811015612d7b57600080fd5b81019080805190602001909291905050501115612e8457612e7f8173ffffffffffffffffffffffffffffffffffffffff1663c89d5b8b6040518163ffffffff1660e01b815260040160206040518083038186803b158015612ddb57600080fd5b505afa158015612def573d6000803e3d6000fd5b505050506040513d6020811015612e0557600080fd5b8101908080519060200190929190505050612e71612e2287614f61565b612e6360368781548110612e3257fe5b9060005260206000200160009054906101000a900473ffffffffffffffffffffffffffffffffffffffff1689614f7d565b61521690919063ffffffff16565b614ac290919063ffffffff16565b830192505b508080600101915050612cc0565b5080925050505b90565b612ea4612c50565b612f16576040517f08c379a000000000000000000000000000000000000000000000000000000000815260040180806020018281038252601a8152602001807f43616c6c6572206973206e6f742074686520476f7665726e6f7200000000000081525060200191505060405180910390fd5b603560008373ffffffffffffffffffffffffffffffffffffffff1673ffffffffffffffffffffffffffffffffffffffff16815260200190815260200160002060000160009054906101000a900460ff1615612fd9576040517f08c379a00000000000000000000000000000000000000000000000000000000081526004018080602001828103825260168152602001807f537472617465677920616c72656164792061646465640000000000000000000081525060200191505060405180910390fd5b604051806040016040528060011515815260200182815250603560008473ffffffffffffffffffffffffffffffffffffffff1673ffffffffffffffffffffffffffffffffffffffff16815260200190815260200160002060008201518160000160006101000a81548160ff0219169083151502179055506020820151816001015590505060368290806001815401808255809150509060018203906000526020600020016000909192909190916101000a81548173ffffffffffffffffffffffffffffffffffffffff021916908373ffffffffffffffffffffffffffffffffffffffff160217905550507f3f008fd510eae7a9e7bee13513d7b83bef8003d488b5a3d0b0da4de71d6846f182604051808273ffffffffffffffffffffffffffffffffffffffff1673ffffffffffffffffffffffffffffffffffffffff16815260200191505060405180910390a15050565b613132612c50565b6131a4576040517f08c379a000000000000000000000000000000000000000000000000000000000815260040180806020018281038252601a8152602001807f43616c6c6572206973206e6f742074686520476f7665726e6f7200000000000081525060200191505060405180910390fd5b6131ad81615252565b8073ffffffffffffffffffffffffffffffffffffffff166131cc613b84565b73ffffffffffffffffffffffffffffffffffffffff167fa39cc5eb22d0f34d8beaefee8a3f17cc229c1a1d1ef87a5ad47313487b1c4f0d60405160405180910390a350565b6000606061321f60006144c9565b905061322a81614f61565b91505090565b600081116132a6576040517f08c379a000000000000000000000000000000000000000000000000000000000815260040180806020018281038252601d8152602001807f416d6f756e74206d7573742062652067726561746572207468616e203000000081525060200191505060405180910390fd5b60606132b260006144c9565b9050603b54821180156132d25750603760149054906101000a900460ff16155b156132e2576132e081614d68565b505b600080603854111561333657600061331961271061330b603854876149f290919063ffffffff16565b614a7890919063ffffffff16565b905061332e818561528190919063ffffffff16565b91505061333a565b8290505b6060613345826140dc565b905060008090505b60348054905081101561372357600082828151811061336857fe5b6020026020010151141561337b57613716565b60006133d26034838154811061338d57fe5b9060005260206000200160009054906101000a900473ffffffffffffffffffffffffffffffffffffffff168484815181106133c457fe5b6020026020010151876152cb565b90506000603483815481106133e357fe5b9060005260206000200160009054906101000a900473ffffffffffffffffffffffffffffffffffffffff16905083838151811061341c57fe5b60200260200101518173ffffffffffffffffffffffffffffffffffffffff166370a08231306040518263ffffffff1660e01b8152600401808273ffffffffffffffffffffffffffffffffffffffff1673ffffffffffffffffffffffffffffffffffffffff16815260200191505060206040518083038186803b1580156134a157600080fd5b505afa1580156134b5573d6000803e3d6000fd5b505050506040513d60208110156134cb57600080fd5b8101908080519060200190929190505050106135245761351f338585815181106134f157fe5b60200260200101518373ffffffffffffffffffffffffffffffffffffffff16614c979092919063ffffffff16565b613713565b600073ffffffffffffffffffffffffffffffffffffffff168273ffffffffffffffffffffffffffffffffffffffff16146136a45760008290508073ffffffffffffffffffffffffffffffffffffffff1663d9caed12336034878154811061358757fe5b9060005260206000200160009054906101000a900473ffffffffffffffffffffffffffffffffffffffff168888815181106135be57fe5b60200260200101516040518463ffffffff1660e01b8152600401808473ffffffffffffffffffffffffffffffffffffffff1673ffffffffffffffffffffffffffffffffffffffff1681526020018373ffffffffffffffffffffffffffffffffffffffff1673ffffffffffffffffffffffffffffffffffffffff1681526020018281526020019350505050602060405180830381600087803b15801561366257600080fd5b505af1158015613676573d6000803e3d6000fd5b505050506040513d602081101561368c57600080fd5b81019080805190602001909291905050505050613712565b6040517f08c379a000000000000000000000000000000000000000000000000000000000815260040180806020018281038252600f8152602001807f4c6971756964697479206572726f72000000000000000000000000000000000081525060200191505060405180910390fd5b5b50505b808060010191505061334d565b50603c60009054906101000a900473ffffffffffffffffffffffffffffffffffffffff1673ffffffffffffffffffffffffffffffffffffffff16639dc29fac33866040518363ffffffff1660e01b8152600401808373ffffffffffffffffffffffffffffffffffffffff1673ffffffffffffffffffffffffffffffffffffffff16815260200182815260200192505050600060405180830381600087803b1580156137cd57600080fd5b505af11580156137e1573d6000803e3d6000fd5b50505050603b54841180156138035750603760149054906101000a900460ff16155b156138135761381183614d68565b505b7f222838db2794d11532d940e8dec38ae307ed0b63cd97c233322e221f998767a63385604051808373ffffffffffffffffffffffffffffffffffffffff1673ffffffffffffffffffffffffffffffffffffffff1681526020018281526020019250505060405180910390a150505050565b61388c612c50565b6138fe576040517f08c379a000000000000000000000000000000000000000000000000000000000815260040180806020018281038252601a8152602001807f43616c6c6572206973206e6f742074686520476f7665726e6f7200000000000081525060200191505060405180910390fd5b8060388190555050565b600080603760009054906101000a900473ffffffffffffffffffffffffffffffffffffffff169050606061393b8561554e565b905060008273ffffffffffffffffffffffffffffffffffffffff166319af6bf0836040518263ffffffff1660e01b81526004018080602001828103825283818151815260200191508051906020019080838360005b838110156139ab578082015181840152602081019050613990565b50505050905090810190601f1680156139d85780820380516001836020036101000a031916815260200191505b5092505050602060405180830381600087803b1580156139f757600080fd5b505af1158015613a0b573d6000803e3d6000fd5b505050506040513d6020811015613a2157600080fd5b810190808051906020019092919050505090506000613a4982876149f290919063ffffffff16565b90506000613a568861569b565b9050613a71816008016012038361579490919063ffffffff16565b9550505050505092915050565b613b7e848573ffffffffffffffffffffffffffffffffffffffff166323b872dd905060e01b858585604051602401808473ffffffffffffffffffffffffffffffffffffffff1673ffffffffffffffffffffffffffffffffffffffff1681526020018373ffffffffffffffffffffffffffffffffffffffff1673ffffffffffffffffffffffffffffffffffffffff1681526020018281526020019350505050604051602081830303815290604052907bffffffffffffffffffffffffffffffffffffffffffffffffffffffff19166020820180517bffffffffffffffffffffffffffffffffffffffffffffffffffffffff8381831617835250505050615815565b50505050565b6000807f7bea13895fa79d2831e0a9e28edede30099005a50d652d8957cf8a607ee6ca4a60001b9050805491505090565b6000613cdf600a603760009054906101000a900473ffffffffffffffffffffffffffffffffffffffff1673ffffffffffffffffffffffffffffffffffffffff16637bf0c215856040518263ffffffff1660e01b81526004018080602001828103825283818151815260200191508051906020019080838360005b83811015613c4a578082015181840152602081019050613c2f565b50505050905090810190601f168015613c775780820380516001836020036101000a031916815260200191505b5092505050602060405180830381600087803b158015613c9657600080fd5b505af1158015613caa573d6000803e3d6000fd5b505050506040513d6020811015613cc057600080fd5b810190808051906020019092919050505061579490919063ffffffff16565b9050919050565b6000803090506000813b9050600081149250505090565b6000807f44c4d30b2eaad5130ad70c3ba6972730566f3e6359ab83e800d905c61b1c51db60001b9050805491505090565b600073ffffffffffffffffffffffffffffffffffffffff168173ffffffffffffffffffffffffffffffffffffffff161415613dd1576040517f08c379a000000000000000000000000000000000000000000000000000000000815260040180806020018281038252601a8152602001807f4e657720476f7665726e6f72206973206164647265737328302900000000000081525060200191505060405180910390fd5b8073ffffffffffffffffffffffffffffffffffffffff16613df0613b84565b73ffffffffffffffffffffffffffffffffffffffff167fc7c0c772add429241571afb3805861fb3cfa2af374534088b76cdb4325a87e9a60405160405180910390a3613e3b81615a60565b50565b6000808290508073ffffffffffffffffffffffffffffffffffffffff166370a08231306040518263ffffffff1660e01b8152600401808273ffffffffffffffffffffffffffffffffffffffff1673ffffffffffffffffffffffffffffffffffffffff16815260200191505060206040518083038186803b158015613ec157600080fd5b505afa158015613ed5573d6000803e3d6000fd5b505050506040513d6020811015613eeb57600080fd5b8101908080519060200190929190505050915060008090505b6036805490508110156140d557600060368281548110613f2057fe5b9060005260206000200160009054906101000a900473ffffffffffffffffffffffffffffffffffffffff1690508073ffffffffffffffffffffffffffffffffffffffff1663aa388af6866040518263ffffffff1660e01b8152600401808273ffffffffffffffffffffffffffffffffffffffff1673ffffffffffffffffffffffffffffffffffffffff16815260200191505060206040518083038186803b158015613fca57600080fd5b505afa158015613fde573d6000803e3d6000fd5b505050506040513d6020811015613ff457600080fd5b8101908080519060200190929190505050156140c7578073ffffffffffffffffffffffffffffffffffffffff16635f515226866040518263ffffffff1660e01b8152600401808273ffffffffffffffffffffffffffffffffffffffff1673ffffffffffffffffffffffffffffffffffffffff16815260200191505060206040518083038186803b15801561408757600080fd5b505afa15801561409b573d6000803e3d6000fd5b505050506040513d60208110156140b157600080fd5b8101908080519060200190929190505050840193505b508080600101915050613f04565b5050919050565b6060806140e960016144c9565b905060006140f5615a8f565b905060008090506000614106612685565b9050806040519080825280602002602001820160405280156141375781602001602082028038833980820191505090505b50945060008090505b60348054905081101561427f57600061418f6034838154811061415f57fe5b9060005260206000200160009054906101000a900473ffffffffffffffffffffffffffffffffffffffff1661569b565b9050600061420c866141fe8b6141f0866012036141e260348a815481106141b257fe5b9060005260206000200160009054906101000a900473ffffffffffffffffffffffffffffffffffffffff16613e3e565b61579490919063ffffffff16565b6149f290919063ffffffff16565b614a7890919063ffffffff16565b905060008111156142705761423d87848151811061422657fe5b602002602001015182614ac290919063ffffffff16565b85019450614257601283038261579490919063ffffffff16565b88848151811061426357fe5b6020026020010181815250505b50508080600101915050614140565b506000828703905060008090505b865181101561438d5760008782815181106142a457fe5b602002602001015114156142b757614380565b600082121561431e576142fb846142ed8984815181106142d357fe5b6020026020010151856000036149f290919063ffffffff16565b614a7890919063ffffffff16565b87828151811061430757fe5b60200260200101818151039150818152505061437f565b600082131561437e5761435f8461435189848151811061433a57fe5b6020026020010151856149f290919063ffffffff16565b614a7890919063ffffffff16565b87828151811061436b57fe5b6020026020010181815101915081815250505b5b5b808060010191505061428d565b505050505050919050565b60006144c2600a603760009054906101000a900473ffffffffffffffffffffffffffffffffffffffff1673ffffffffffffffffffffffffffffffffffffffff166319af6bf0856040518263ffffffff1660e01b81526004018080602001828103825283818151815260200191508051906020019080838360005b8381101561442d578082015181840152602081019050614412565b50505050905090810190601f16801561445a5780820380516001836020036101000a031916815260200191505b5092505050602060405180830381600087803b15801561447957600080fd5b505af115801561448d573d6000803e3d6000fd5b505050506040513d60208110156144a357600080fd5b810190808051906020019092919050505061579490919063ffffffff16565b9050919050565b60606144d3612685565b6040519080825280602002602001820160405280156145015781602001602082028038833980820191505090505b5090506000603760009054906101000a900473ffffffffffffffffffffffffffffffffffffffff16905060008090505b6034805490508110156147d85760606145806034838154811061455057fe5b9060005260206000200160009054906101000a900473ffffffffffffffffffffffffffffffffffffffff1661554e565b905084156146ab5761468e600a8473ffffffffffffffffffffffffffffffffffffffff16637bf0c215846040518263ffffffff1660e01b81526004018080602001828103825283818151815260200191508051906020019080838360005b838110156145f95780820151818401526020810190506145de565b50505050905090810190601f1680156146265780820380516001836020036101000a031916815260200191505b5092505050602060405180830381600087803b15801561464557600080fd5b505af1158015614659573d6000803e3d6000fd5b505050506040513d602081101561466f57600080fd5b810190808051906020019092919050505061579490919063ffffffff16565b84838151811061469a57fe5b6020026020010181815250506147ca565b6147b1600a8473ffffffffffffffffffffffffffffffffffffffff166319af6bf0846040518263ffffffff1660e01b81526004018080602001828103825283818151815260200191508051906020019080838360005b8381101561471c578082015181840152602081019050614701565b50505050905090810190601f1680156147495780820380516001836020036101000a031916815260200191505b5092505050602060405180830381600087803b15801561476857600080fd5b505af115801561477c573d6000803e3d6000fd5b505050506040513d602081101561479257600080fd5b810190808051906020019092919050505061579490919063ffffffff16565b8483815181106147bd57fe5b6020026020010181815250505b508080600101915050614531565b5050919050565b600080905060008090505b60348054905081101561497c5760006034828154811061480657fe5b9060005260206000200160009054906101000a900473ffffffffffffffffffffffffffffffffffffffff16905060006148756034848154811061484557fe5b9060005260206000200160009054906101000a900473ffffffffffffffffffffffffffffffffffffffff1661569b565b905060008273ffffffffffffffffffffffffffffffffffffffff166370a08231306040518263ffffffff1660e01b8152600401808273ffffffffffffffffffffffffffffffffffffffff1673ffffffffffffffffffffffffffffffffffffffff16815260200191505060206040518083038186803b1580156148f657600080fd5b505afa15801561490a573d6000803e3d6000fd5b505050506040513d602081101561492057600080fd5b81019080805190602001909291905050509050600081111561496c5761496786858151811061494b57fe5b602002602001015183600a0a83615b569092919063ffffffff16565b850194505b50505080806001019150506147ea565b50919050565b600080905060008090505b6036805490508110156149ec576149db603682815481106149aa57fe5b9060005260206000200160009054906101000a900473ffffffffffffffffffffffffffffffffffffffff1684614f7d565b82019150808060010191505061498d565b50919050565b600080831415614a055760009050614a72565b6000828402905082848281614a1657fe5b0414614a6d576040517f08c379a0000000000000000000000000000000000000000000000000000000008152600401808060200182810382526021815260200180615e496021913960400191505060405180910390fd5b809150505b92915050565b6000614aba83836040518060400160405280601a81526020017f536166654d6174683a206469766973696f6e206279207a65726f000000000000815250615b8b565b905092915050565b6000614ad78383670de0b6b3a7640000615b56565b905092915050565b6000809050600080905060008090505b603680549050811015614c8f57600060368281548110614b0b57fe5b9060005260206000200160009054906101000a900473ffffffffffffffffffffffffffffffffffffffff1690508073ffffffffffffffffffffffffffffffffffffffff1663aa388af6876040518263ffffffff1660e01b8152600401808273ffffffffffffffffffffffffffffffffffffffff1673ffffffffffffffffffffffffffffffffffffffff16815260200191505060206040518083038186803b158015614bb557600080fd5b505afa158015614bc9573d6000803e3d6000fd5b505050506040513d6020811015614bdf57600080fd5b810190808051906020019092919050505015614c81576000614c3860368481548110614c0757fe5b9060005260206000200160009054906101000a900473ffffffffffffffffffffffffffffffffffffffff1687615c51565b9050838112614c7f5780935060368381548110614c5157fe5b9060005260206000200160009054906101000a900473ffffffffffffffffffffffffffffffffffffffff1694505b505b508080600101915050614aef565b505092915050565b614d63838473ffffffffffffffffffffffffffffffffffffffff1663a9059cbb905060e01b8484604051602401808373ffffffffffffffffffffffffffffffffffffffff1673ffffffffffffffffffffffffffffffffffffffff16815260200182815260200192505050604051602081830303815290604052907bffffffffffffffffffffffffffffffffffffffffffffffffffffffff19166020820180517bffffffffffffffffffffffffffffffffffffffffffffffffffffffff8381831617835250505050615815565b505050565b6000603760149054906101000a900460ff1615614ded576040517f08c379a000000000000000000000000000000000000000000000000000000000815260040180806020018281038252600f8152602001807f5265626173696e6720706175736564000000000000000000000000000000000081525060200191505060405180910390fd5b6000603c60009054906101000a900473ffffffffffffffffffffffffffffffffffffffff1673ffffffffffffffffffffffffffffffffffffffff166318160ddd6040518163ffffffff1660e01b815260040160206040518083038186803b158015614e5757600080fd5b505afa158015614e6b573d6000803e3d6000fd5b505050506040513d6020811015614e8157600080fd5b81019080805190602001909291905050501415614ea15760009050614f5c565b603c60009054906101000a900473ffffffffffffffffffffffffffffffffffffffff1673ffffffffffffffffffffffffffffffffffffffff166339a7919f614ee884614f61565b6040518263ffffffff1660e01b815260040180828152602001915050602060405180830381600087803b158015614f1e57600080fd5b505af1158015614f32573d6000803e3d6000fd5b505050506040513d6020811015614f4857600080fd5b810190808051906020019092919050505090505b919050565b6000614f6c82614982565b614f75836147df565b019050919050565b6000809050600083905060008090505b60348054905081101561520e576000614fdc60348381548110614fac57fe5b9060005260206000200160009054906101000a900473ffffffffffffffffffffffffffffffffffffffff1661569b565b90508273ffffffffffffffffffffffffffffffffffffffff1663aa388af66034848154811061500757fe5b9060005260206000200160009054906101000a900473ffffffffffffffffffffffffffffffffffffffff166040518263ffffffff1660e01b8152600401808273ffffffffffffffffffffffffffffffffffffffff1673ffffffffffffffffffffffffffffffffffffffff16815260200191505060206040518083038186803b15801561509257600080fd5b505afa1580156150a6573d6000803e3d6000fd5b505050506040513d60208110156150bc57600080fd5b8101908080519060200190929190505050156152005760008373ffffffffffffffffffffffffffffffffffffffff16635f515226603485815481106150fd57fe5b9060005260206000200160009054906101000a900473ffffffffffffffffffffffffffffffffffffffff166040518263ffffffff1660e01b8152600401808273ffffffffffffffffffffffffffffffffffffffff1673ffffffffffffffffffffffffffffffffffffffff16815260200191505060206040518083038186803b15801561518857600080fd5b505afa15801561519c573d6000803e3d6000fd5b505050506040513d60208110156151b257600080fd5b8101908080519060200190929190505050905060008111156151fe576151f98684815181106151dd57fe5b602002602001015183600a0a83615b569092919063ffffffff16565b850194505b505b508080600101915050614f8d565b505092915050565b600080615234670de0b6b3a7640000856149f290919063ffffffff16565b90506152498382614a7890919063ffffffff16565b91505092915050565b60007f44c4d30b2eaad5130ad70c3ba6972730566f3e6359ab83e800d905c61b1c51db60001b90508181555050565b60006152c383836040518060400160405280601e81526020017f536166654d6174683a207375627472616374696f6e206f766572666c6f770000815250615cc3565b905092915050565b60008090506000670de0b6b3a7640000905060008090505b603680549050811015615545576000603682815481106152ff57fe5b9060005260206000200160009054906101000a900473ffffffffffffffffffffffffffffffffffffffff1690508073ffffffffffffffffffffffffffffffffffffffff1663aa388af6886040518263ffffffff1660e01b8152600401808273ffffffffffffffffffffffffffffffffffffffff1673ffffffffffffffffffffffffffffffffffffffff16815260200191505060206040518083038186803b1580156153a957600080fd5b505afa1580156153bd573d6000803e3d6000fd5b505050506040513d60208110156153d357600080fd5b810190808051906020019092919050505080156154a65750858173ffffffffffffffffffffffffffffffffffffffff16635f515226896040518263ffffffff1660e01b8152600401808273ffffffffffffffffffffffffffffffffffffffff1673ffffffffffffffffffffffffffffffffffffffff16815260200191505060206040518083038186803b15801561546957600080fd5b505afa15801561547d573d6000803e3d6000fd5b505050506040513d602081101561549357600080fd5b8101908080519060200190929190505050115b156155375760006154ee603684815481106154bd57fe5b9060005260206000200160009054906101000a900473ffffffffffffffffffffffffffffffffffffffff1687615c51565b9050838113615535578093506036838154811061550757fe5b9060005260206000200160009054906101000a900473ffffffffffffffffffffffffffffffffffffffff1694505b505b5080806001019150506152e3565b50509392505050565b6060808273ffffffffffffffffffffffffffffffffffffffff166395d89b416040518163ffffffff1660e01b815260040160006040518083038186803b15801561559757600080fd5b505afa1580156155ab573d6000803e3d6000fd5b505050506040513d6000823e3d601f19601f8201168201806040525060208110156155d557600080fd5b81019080805160405193929190846401000000008211156155f557600080fd5b8382019150602082018581111561560b57600080fd5b825186600182028301116401000000008211171561562857600080fd5b8083526020830192505050908051906020019080838360005b8381101561565c578082015181840152602081019050615641565b50505050905090810190601f1680156156895780820380516001836020036101000a031916815260200191505b50604052505050905080915050919050565b6000808273ffffffffffffffffffffffffffffffffffffffff1663313ce5676040518163ffffffff1660e01b815260040160206040518083038186803b1580156156e457600080fd5b505afa1580156156f8573d6000803e3d6000fd5b505050506040513d602081101561570e57600080fd5b810190808051906020019092919050505060ff16905060048110158015615736575060128111155b61578b576040517f08c379a0000000000000000000000000000000000000000000000000000000008152600401808060200182810382526029815260200180615e206029913960400191505060405180910390fd5b80915050919050565b6000808260000b13156157c1576157ba8260000b600a0a846149f290919063ffffffff16565b925061580c565b60008260000b121561580b576158087fffffffffffffffffffffffffffffffffffffffffffffffffffffffffffffffff830260000b600a0a84614a7890919063ffffffff16565b92505b5b82905092915050565b6158348273ffffffffffffffffffffffffffffffffffffffff16615d83565b6158a6576040517f08c379a000000000000000000000000000000000000000000000000000000000815260040180806020018281038252601f8152602001807f5361666545524332303a2063616c6c20746f206e6f6e2d636f6e74726163740081525060200191505060405180910390fd5b600060608373ffffffffffffffffffffffffffffffffffffffff16836040518082805190602001908083835b602083106158f557805182526020820191506020810190506020830392506158d2565b6001836020036101000a0380198251168184511680821785525050505050509050019150506000604051808303816000865af19150503d8060008114615957576040519150601f19603f3d011682016040523d82523d6000602084013e61595c565b606091505b5091509150816159d4576040517f08c379a00000000000000000000000000000000000000000000000000000000081526004018080602001828103825260208152602001807f5361666545524332303a206c6f772d6c6576656c2063616c6c206661696c656481525060200191505060405180910390fd5b600081511115615a5a578080602001905160208110156159f357600080fd5b8101908080519060200190929190505050615a59576040517f08c379a000000000000000000000000000000000000000000000000000000000815260040180806020018281038252602a815260200180615e98602a913960400191505060405180910390fd5b5b50505050565b60007f7bea13895fa79d2831e0a9e28edede30099005a50d652d8957cf8a607ee6ca4a60001b90508181555050565b600080905060008090505b603480549050811015615b52576000615ae960348381548110615ab957fe5b9060005260206000200160009054906101000a900473ffffffffffffffffffffffffffffffffffffffff1661569b565b9050615b4081601203615b3260348581548110615b0257fe5b9060005260206000200160009054906101000a900473ffffffffffffffffffffffffffffffffffffffff16613e3e565b61579490919063ffffffff16565b83019250508080600101915050615a9a565b5090565b600080615b6c84866149f290919063ffffffff16565b9050615b818382614a7890919063ffffffff16565b9150509392505050565b60008083118290615c37576040517f08c379a00000000000000000000000000000000000000000000000000000000081526004018080602001828103825283818151815260200191508051906020019080838360005b83811015615bfc578082015181840152602081019050615be1565b50505050905090810190601f168015615c295780820380516001836020036101000a031916815260200191505b509250505060405180910390fd5b506000838581615c4357fe5b049050809150509392505050565b6000615c77615c5f83614f61565b615c698585614f7d565b61521690919063ffffffff16565b603560008573ffffffffffffffffffffffffffffffffffffffff1673ffffffffffffffffffffffffffffffffffffffff1681526020019081526020016000206001015403905092915050565b6000838311158290615d70576040517f08c379a00000000000000000000000000000000000000000000000000000000081526004018080602001828103825283818151815260200191508051906020019080838360005b83811015615d35578082015181840152602081019050615d1a565b50505050905090810190601f168015615d625780820380516001836020036101000a031916815260200191505b509250505060405180910390fd5b5060008385039050809150509392505050565b60008060007fc5d2460186f7233c927e7db2dcc703c0e500b653ca82273b7bfad8045d85a47060001b9050833f9150808214158015615dc557506000801b8214155b92505050919050565b815481835581811115615df557818360005260206000209182019101615df49190615dfa565b5b505050565b615e1c91905b80821115615e18576000816000905550600101615e00565b5090565b9056fe546f6b656e206d75737420686176652073756666696369656e7420646563696d616c20706c61636573536166654d6174683a206d756c7469706c69636174696f6e206f766572666c6f77436f6e747261637420696e7374616e63652068617320616c7265616479206265656e20696e697469616c697a65645361666545524332303a204552433230206f7065726174696f6e20646964206e6f7420737563636565644f6e6c79207468652070656e64696e6720476f7665726e6f722063616e20636f6d706c6574652074686520636c61696da265627a7a723158203edc33af60dac8a42fc2e376995f4944b721f77296b8a9ddd1b2b82e8642fa5c64736f6c634300050b0032",
  "devdoc": {
    "methods": {
      "addStrategy(address,uint256)": {
        "details": "Add a strategy to the Vault.",
        "params": {
          "_addr": "Address of the strategy to add",
          "_targetWeight": "Target percentage of asset allocation to strategy"
        }
      },
      "allocate()": {
        "details": "Allocate unallocated funds on Vault to strategies.*"
      },
      "checkBalance(address)": {
        "params": {
          "_asset": "Address of asset"
        },
        "return": "uint256 Balance of asset in decimals of asset"
      },
      "claimGovernance()": {
        "details": "Claim Governance of the contract to a new account (`newGovernor`). Can only be called by the new Governor."
      },
      "getAPR()": {
        "details": "Get the total APR of the Vault and all Strategies."
      },
      "getAllAssets()": {
        "details": "Return all asset addresses in order"
      },
      "getAssetCount()": {
        "details": "Return the number of assets suppported by the Vault."
      },
      "getStrategyCount()": {
        "details": "Return the number of strategies active on the Vault."
      },
      "governor()": {
        "details": "Returns the address of the current Governor."
      },
      "isGovernor()": {
        "details": "Returns true if the caller is the current Governor."
      },
      "isSupportedAsset(address)": {
        "details": "Determines if an asset is supported by the vault.",
        "params": {
          "_asset": "Address of the asset"
        }
      },
      "mint(address,uint256)": {
        "details": "Deposit a supported asset and mint OUSD.",
        "params": {
          "_amount": "Amount of the asset being deposited",
          "_asset": "Address of the asset being deposited"
        }
      },
      "mintMultiple(address[],uint256[])": {
        "details": "Mint for multiple assets in the same call.",
        "params": {
          "_amounts": "Amount of each asset at the same index in the _assets                to deposit.",
          "_assets": "Addresses of assets being deposited"
        }
      },
      "pauseDeposits()": {
        "details": "Set the deposit paused flag to true to prevent deposits."
      },
      "pauseRebase()": {
        "details": "Set the deposit paused flag to true to prevent rebasing."
      },
      "priceUSDMint(string)": {
        "details": "Returns the total price in 18 digit USD for a given asset.     Using Min since min is what we use for mint pricing",
        "params": {
          "symbol": "String symbol of the asset"
        },
        "return": "uint256 USD price of 1 of the asset"
      },
      "priceUSDRedeem(string)": {
        "details": "Returns the total price in 18 digit USD for a given asset.     Using Max since max is what we use for redeem pricing",
        "params": {
          "symbol": "String symbol of the asset"
        },
        "return": "uint256 USD price of 1 of the asset"
      },
      "rebase()": {
        "details": "Calculate the total value of assets held by the Vault and all        strategies and update the supply of oUSD"
      },
      "redeem(uint256)": {
        "details": "Withdraw a supported asset and burn OUSD.",
        "params": {
          "_amount": "Amount of OUSD to burn"
        }
      },
      "removeStrategy(address)": {
        "details": "Remove a strategy from the Vault. Removes all invested assets and returns them to the Vault.",
        "params": {
          "_addr": "Address of the strategy to remove"
        }
      },
      "setAutoAllocateThreshold(uint256)": {
        "details": "Sets the minimum amount of OUSD in a mint to trigger an automatic allocation of funds afterwords.",
        "params": {
          "_threshold": "OUSD amount with 18 fixed decimals."
        }
      },
      "setPriceProvider(address)": {
        "details": "Set address of price provider.",
        "params": {
          "_priceProvider": "Address of price provider"
        }
      },
      "setRebaseThreshold(uint256)": {
        "details": "Set a minimum amount of OUSD in a mint or redeem that triggers a rebase",
        "params": {
          "_threshold": "OUSD amount with 18 fixed decimals."
        }
      },
      "setRedeemFeeBps(uint256)": {
        "details": "Set a fee in basis points to be charged for a redeem.",
        "params": {
          "_redeemFeeBps": "Basis point fee to be charged"
        }
      },
      "setStrategyWeights(address[],uint256[])": {
        "params": {
          "_strategyAddresses": "Array of strategy addresses",
          "_weights": "Array of corresponding weights, with 18 decimals.                For ex. 100%=1e18, 30%=3e17."
        }
      },
      "setVaultBuffer(uint256)": {
        "details": "Set a buffer of assets to keep in the Vault to handle most redemptions without needing to spend gas unwinding assets from a Strategy.",
        "params": {
          "_vaultBuffer": "Percentage using 18 decimals. 100% = 1e18."
        }
      },
      "supportAsset(address)": {
        "details": "Add a supported asset to the contract, i.e. one that can be        to mint OUSD.",
        "params": {
          "_asset": "Address of asset"
        }
      },
      "totalValue()": {
        "details": "Determine the total value of assets held by the vault and its        strategies.",
        "return": "uint256 value Total value in USD (1e18)"
      },
      "transferGovernance(address)": {
        "details": "Transfers Governance of the contract to a new account (`newGovernor`). Can only be called by the current Governor. Must be claimed for this to complete",
        "params": {
          "_newGovernor": "Address of the new Governor"
        }
      },
      "transferToken(address,uint256)": {
        "details": "Transfer token to governor. Intended for recovering tokens stuck in     contract, i.e. mistaken sends.",
        "params": {
          "_amount": "Amount of the asset to transfer",
          "_asset": "Address for the asset"
        }
      },
      "unpauseDeposits()": {
        "details": "Set the deposit paused flag to false to enable deposits."
      },
      "unpauseRebase()": {
        "details": "Set the deposit paused flag to true to allow rebasing."
      }
    }
  },
  "userdoc": {
    "methods": {
      "allocate()": {
        "notice": "Allocate unallocated funds on Vault to strategies."
      },
      "calculateRedeemOutputs(uint256)": {
        "notice": "Calculate the outputs for a redeem function, i.e. the mix of coins that will be returned"
      },
      "checkBalance(address)": {
        "notice": "Get the balance of an asset held in Vault and all strategies."
      },
      "redeemAll()": {
        "notice": "Withdraw a supported asset and burn all OUSD."
      },
      "setStrategyWeights(address[],uint256[])": {
        "notice": "Set the weights for multiple strategies."
      }
    }
  },
  "gasEstimates": {
    "creation": {
      "codeDepositCost": "4871600",
      "executionCost": "infinite",
      "totalCost": "infinite"
    },
    "external": {
      "addStrategy(address,uint256)": "83135",
      "allocate()": "infinite",
      "autoAllocateThreshold()": "472",
      "calculateRedeemOutputs(uint256)": "infinite",
      "checkBalance(address)": "infinite",
      "claimGovernance()": "infinite",
      "depositPaused()": "572",
      "getAPR()": "infinite",
      "getAllAssets()": "infinite",
      "getAssetCount()": "510",
      "getStrategyCount()": "511",
      "governor()": "525",
      "initialize(address,address)": "infinite",
      "isGovernor()": "629",
      "isSupportedAsset(address)": "695",
      "mint(address,uint256)": "infinite",
      "mintMultiple(address[],uint256[])": "infinite",
      "pauseDeposits()": "21608",
      "pauseRebase()": "20895",
      "priceProvider()": "520",
      "priceUSDMint(string)": "infinite",
      "priceUSDRedeem(string)": "infinite",
      "rebase()": "infinite",
      "rebasePaused()": "636",
      "rebaseThreshold()": "516",
      "redeem(uint256)": "infinite",
      "redeemAll()": "infinite",
      "redeemFeeBps()": "540",
      "removeStrategy(address)": "infinite",
      "setAutoAllocateThreshold(uint256)": "20610",
      "setPriceProvider(address)": "20936",
      "setRebaseThreshold(uint256)": "20654",
      "setRedeemFeeBps(uint256)": "20719",
      "setStrategyWeights(address[],uint256[])": "infinite",
      "setVaultBuffer(uint256)": "20699",
      "supportAsset(address)": "63068",
      "totalValue()": "infinite",
      "transferGovernance(address)": "infinite",
      "transferToken(address,uint256)": "infinite",
      "unpauseDeposits()": "21629",
      "unpauseRebase()": "20897",
      "vaultBuffer()": "517"
    },
    "internal": {
      "_calculateRedeemOutputs(uint256)": "infinite",
      "_checkBalance()": "infinite",
      "_checkBalance(address)": "infinite",
      "_getAssetPrices(bool)": "infinite",
      "_priceUSDMin(address,uint256)": "infinite",
      "_priceUSDMint(string memory)": "infinite",
      "_priceUSDRedeem(string memory)": "infinite",
      "_selectDepositStrategyAddr(address,uint256[] memory)": "infinite",
      "_selectWithdrawStrategyAddr(address,uint256,uint256[] memory)": "infinite",
      "_strategyWeightDifference(address,uint256[] memory)": "infinite",
      "_totalValue(uint256[] memory)": "infinite",
      "_totalValueInStrategies(uint256[] memory)": "infinite",
      "_totalValueInStrategy(address,uint256[] memory)": "infinite",
      "_totalValueInVault(uint256[] memory)": "infinite",
      "rebase(uint256[] memory)": "infinite"
    }
  }
}