{
  "abi": [
    {
      "constant": false,
      "inputs": [],
      "name": "pauseDeposits",
      "outputs": [],
      "payable": false,
      "stateMutability": "nonpayable",
      "type": "function"
    },
    {
      "constant": true,
      "inputs": [],
      "name": "depositPaused",
      "outputs": [
        {
          "internalType": "bool",
          "name": "",
          "type": "bool"
        }
      ],
      "payable": false,
      "stateMutability": "view",
      "type": "function"
    },
    {
      "constant": false,
      "inputs": [
        {
          "internalType": "address[]",
          "name": "_assets",
          "type": "address[]"
        },
        {
          "internalType": "uint256[]",
          "name": "_amounts",
          "type": "uint256[]"
        }
      ],
      "name": "mintMultiple",
      "outputs": [],
      "payable": false,
      "stateMutability": "nonpayable",
      "type": "function"
    },
    {
      "constant": false,
      "inputs": [],
      "name": "unpauseRebase",
      "outputs": [],
      "payable": false,
      "stateMutability": "nonpayable",
      "type": "function"
    },
    {
      "constant": true,
      "inputs": [],
      "name": "redeemFeeBps",
      "outputs": [
        {
          "internalType": "uint256",
          "name": "",
          "type": "uint256"
        }
      ],
      "payable": false,
      "stateMutability": "view",
      "type": "function"
    },
    {
      "constant": true,
      "inputs": [],
      "name": "governor",
      "outputs": [
        {
          "internalType": "address",
          "name": "",
          "type": "address"
        }
      ],
      "payable": false,
      "stateMutability": "view",
      "type": "function"
    },
    {
      "constant": false,
      "inputs": [
        {
          "internalType": "address",
          "name": "_asset",
          "type": "address"
        },
        {
          "internalType": "uint256",
          "name": "_amount",
          "type": "uint256"
        }
      ],
      "name": "transferToken",
      "outputs": [],
      "payable": false,
      "stateMutability": "nonpayable",
      "type": "function"
    },
    {
      "constant": false,
      "inputs": [
        {
          "internalType": "address",
          "name": "_addr",
          "type": "address"
        }
      ],
      "name": "removeStrategy",
      "outputs": [],
      "payable": false,
      "stateMutability": "nonpayable",
      "type": "function"
    },
    {
      "constant": true,
      "inputs": [],
      "name": "vaultBuffer",
      "outputs": [
        {
          "internalType": "uint256",
          "name": "",
          "type": "uint256"
        }
      ],
      "payable": false,
      "stateMutability": "view",
      "type": "function"
    },
    {
      "constant": false,
      "inputs": [
        {
          "internalType": "string",
          "name": "symbol",
          "type": "string"
        }
      ],
      "name": "priceUSDRedeem",
      "outputs": [
        {
          "internalType": "uint256",
          "name": "",
          "type": "uint256"
        }
      ],
      "payable": false,
      "stateMutability": "nonpayable",
      "type": "function"
    },
    {
      "constant": true,
      "inputs": [],
      "name": "getAllAssets",
      "outputs": [
        {
          "internalType": "address[]",
          "name": "",
          "type": "address[]"
        }
      ],
      "payable": false,
      "stateMutability": "view",
      "type": "function"
    },
    {
      "constant": false,
      "inputs": [],
      "name": "redeemAll",
      "outputs": [],
      "payable": false,
      "stateMutability": "nonpayable",
      "type": "function"
    },
    {
      "constant": true,
      "inputs": [],
      "name": "getStrategyCount",
      "outputs": [
        {
          "internalType": "uint256",
          "name": "",
          "type": "uint256"
        }
      ],
      "payable": false,
      "stateMutability": "view",
      "type": "function"
    },
    {
      "constant": false,
      "inputs": [
        {
          "internalType": "address",
          "name": "_priceProvider",
          "type": "address"
        }
      ],
      "name": "setPriceProvider",
      "outputs": [],
      "payable": false,
      "stateMutability": "nonpayable",
      "type": "function"
    },
    {
      "constant": false,
      "inputs": [
        {
          "internalType": "address",
          "name": "_asset",
          "type": "address"
        },
        {
          "internalType": "uint256",
          "name": "_amount",
          "type": "uint256"
        }
      ],
      "name": "mint",
      "outputs": [],
      "payable": false,
      "stateMutability": "nonpayable",
      "type": "function"
    },
    {
      "constant": false,
      "inputs": [
        {
          "internalType": "address",
          "name": "_priceProvider",
          "type": "address"
        },
        {
          "internalType": "address",
          "name": "_ousd",
          "type": "address"
        }
      ],
      "name": "initialize",
      "outputs": [],
      "payable": false,
      "stateMutability": "nonpayable",
      "type": "function"
    },
    {
      "constant": false,
      "inputs": [
        {
          "internalType": "address",
          "name": "_asset",
          "type": "address"
        }
      ],
      "name": "supportAsset",
      "outputs": [],
      "payable": false,
      "stateMutability": "nonpayable",
      "type": "function"
    },
    {
      "constant": false,
      "inputs": [
        {
          "internalType": "address[]",
          "name": "_strategyAddresses",
          "type": "address[]"
        },
        {
          "internalType": "uint256[]",
          "name": "_weights",
          "type": "uint256[]"
        }
      ],
      "name": "setStrategyWeights",
      "outputs": [],
      "payable": false,
      "stateMutability": "nonpayable",
      "type": "function"
    },
    {
      "constant": true,
      "inputs": [],
      "name": "rebaseThreshold",
      "outputs": [
        {
          "internalType": "uint256",
          "name": "",
          "type": "uint256"
        }
      ],
      "payable": false,
      "stateMutability": "view",
      "type": "function"
    },
    {
      "constant": true,
      "inputs": [],
      "name": "rebasePaused",
      "outputs": [
        {
          "internalType": "bool",
          "name": "",
          "type": "bool"
        }
      ],
      "payable": false,
      "stateMutability": "view",
      "type": "function"
    },
    {
      "constant": false,
      "inputs": [],
      "name": "claimGovernance",
      "outputs": [],
      "payable": false,
      "stateMutability": "nonpayable",
      "type": "function"
    },
    {
      "constant": true,
      "inputs": [
        {
          "internalType": "address",
          "name": "_asset",
          "type": "address"
        }
      ],
      "name": "checkBalance",
      "outputs": [
        {
          "internalType": "uint256",
          "name": "",
          "type": "uint256"
        }
      ],
      "payable": false,
      "stateMutability": "view",
      "type": "function"
    },
    {
      "constant": false,
      "inputs": [],
      "name": "unpauseDeposits",
      "outputs": [],
      "payable": false,
      "stateMutability": "nonpayable",
      "type": "function"
    },
    {
      "constant": false,
      "inputs": [
        {
          "internalType": "uint256",
          "name": "_amount",
          "type": "uint256"
        }
      ],
      "name": "calculateRedeemOutputs",
      "outputs": [
        {
          "internalType": "uint256[]",
          "name": "",
          "type": "uint256[]"
        }
      ],
      "payable": false,
      "stateMutability": "nonpayable",
      "type": "function"
    },
    {
      "constant": false,
      "inputs": [
        {
          "internalType": "string",
          "name": "symbol",
          "type": "string"
        }
      ],
      "name": "priceUSDMint",
      "outputs": [
        {
          "internalType": "uint256",
          "name": "",
          "type": "uint256"
        }
      ],
      "payable": false,
      "stateMutability": "nonpayable",
      "type": "function"
    },
    {
      "constant": false,
      "inputs": [
        {
          "internalType": "uint256",
          "name": "_vaultBuffer",
          "type": "uint256"
        }
      ],
      "name": "setVaultBuffer",
      "outputs": [],
      "payable": false,
      "stateMutability": "nonpayable",
      "type": "function"
    },
    {
      "constant": true,
      "inputs": [
        {
          "internalType": "address",
          "name": "_asset",
          "type": "address"
        }
      ],
      "name": "isSupportedAsset",
      "outputs": [
        {
          "internalType": "bool",
          "name": "",
          "type": "bool"
        }
      ],
      "payable": false,
      "stateMutability": "view",
      "type": "function"
    },
    {
      "constant": true,
      "inputs": [],
      "name": "autoAllocateThreshold",
      "outputs": [
        {
          "internalType": "uint256",
          "name": "",
          "type": "uint256"
        }
      ],
      "payable": false,
      "stateMutability": "view",
      "type": "function"
    },
    {
      "constant": true,
      "inputs": [],
      "name": "getAssetCount",
      "outputs": [
        {
          "internalType": "uint256",
          "name": "",
          "type": "uint256"
        }
      ],
      "payable": false,
      "stateMutability": "view",
      "type": "function"
    },
    {
      "constant": false,
      "inputs": [],
      "name": "allocate",
      "outputs": [],
      "payable": false,
      "stateMutability": "nonpayable",
      "type": "function"
    },
    {
      "constant": false,
      "inputs": [],
      "name": "rebase",
      "outputs": [
        {
          "internalType": "uint256",
          "name": "",
          "type": "uint256"
        }
      ],
      "payable": false,
      "stateMutability": "nonpayable",
      "type": "function"
    },
    {
      "constant": false,
      "inputs": [
        {
          "internalType": "uint256",
          "name": "_threshold",
          "type": "uint256"
        }
      ],
      "name": "setAutoAllocateThreshold",
      "outputs": [],
      "payable": false,
      "stateMutability": "nonpayable",
      "type": "function"
    },
    {
      "constant": true,
      "inputs": [],
      "name": "priceProvider",
      "outputs": [
        {
          "internalType": "address",
          "name": "",
          "type": "address"
        }
      ],
      "payable": false,
      "stateMutability": "view",
      "type": "function"
    },
    {
      "constant": false,
      "inputs": [
        {
          "internalType": "uint256",
          "name": "_threshold",
          "type": "uint256"
        }
      ],
      "name": "setRebaseThreshold",
      "outputs": [],
      "payable": false,
      "stateMutability": "nonpayable",
      "type": "function"
    },
    {
      "constant": false,
      "inputs": [],
      "name": "pauseRebase",
      "outputs": [],
      "payable": false,
      "stateMutability": "nonpayable",
      "type": "function"
    },
    {
      "constant": true,
      "inputs": [],
      "name": "isGovernor",
      "outputs": [
        {
          "internalType": "bool",
          "name": "",
          "type": "bool"
        }
      ],
      "payable": false,
      "stateMutability": "view",
      "type": "function"
    },
    {
      "constant": false,
      "inputs": [],
      "name": "getAPR",
      "outputs": [
        {
          "internalType": "uint256",
          "name": "",
          "type": "uint256"
        }
      ],
      "payable": false,
      "stateMutability": "nonpayable",
      "type": "function"
    },
    {
      "constant": false,
      "inputs": [
        {
          "internalType": "address",
          "name": "_addr",
          "type": "address"
        },
        {
          "internalType": "uint256",
          "name": "_targetWeight",
          "type": "uint256"
        }
      ],
      "name": "addStrategy",
      "outputs": [],
      "payable": false,
      "stateMutability": "nonpayable",
      "type": "function"
    },
    {
      "constant": false,
      "inputs": [
        {
          "internalType": "address",
          "name": "_newGovernor",
          "type": "address"
        }
      ],
      "name": "transferGovernance",
      "outputs": [],
      "payable": false,
      "stateMutability": "nonpayable",
      "type": "function"
    },
    {
      "constant": false,
      "inputs": [],
      "name": "totalValue",
      "outputs": [
        {
          "internalType": "uint256",
          "name": "value",
          "type": "uint256"
        }
      ],
      "payable": false,
      "stateMutability": "nonpayable",
      "type": "function"
    },
    {
      "constant": false,
      "inputs": [
        {
          "internalType": "uint256",
          "name": "_amount",
          "type": "uint256"
        }
      ],
      "name": "redeem",
      "outputs": [],
      "payable": false,
      "stateMutability": "nonpayable",
      "type": "function"
    },
    {
      "constant": false,
      "inputs": [
        {
          "internalType": "uint256",
          "name": "_redeemFeeBps",
          "type": "uint256"
        }
      ],
      "name": "setRedeemFeeBps",
      "outputs": [],
      "payable": false,
      "stateMutability": "nonpayable",
      "type": "function"
    },
    {
      "anonymous": false,
      "inputs": [
        {
          "indexed": false,
          "internalType": "address",
          "name": "_asset",
          "type": "address"
        }
      ],
      "name": "AssetSupported",
      "type": "event"
    },
    {
      "anonymous": false,
      "inputs": [
        {
          "indexed": false,
          "internalType": "address",
          "name": "_addr",
          "type": "address"
        }
      ],
      "name": "StrategyAdded",
      "type": "event"
    },
    {
      "anonymous": false,
      "inputs": [
        {
          "indexed": false,
          "internalType": "address",
          "name": "_addr",
          "type": "address"
        }
      ],
      "name": "StrategyRemoved",
      "type": "event"
    },
    {
      "anonymous": false,
      "inputs": [
        {
          "indexed": false,
          "internalType": "address",
          "name": "_addr",
          "type": "address"
        },
        {
          "indexed": false,
          "internalType": "uint256",
          "name": "_value",
          "type": "uint256"
        }
      ],
      "name": "Mint",
      "type": "event"
    },
    {
      "anonymous": false,
      "inputs": [
        {
          "indexed": false,
          "internalType": "address",
          "name": "_addr",
          "type": "address"
        },
        {
          "indexed": false,
          "internalType": "uint256",
          "name": "_value",
          "type": "uint256"
        }
      ],
      "name": "Redeem",
      "type": "event"
    },
    {
      "anonymous": false,
      "inputs": [
        {
          "indexed": false,
          "internalType": "address[]",
          "name": "_strategyAddresses",
          "type": "address[]"
        },
        {
          "indexed": false,
          "internalType": "uint256[]",
          "name": "weights",
          "type": "uint256[]"
        }
      ],
      "name": "StrategyWeightsUpdated",
      "type": "event"
    },
    {
      "anonymous": false,
      "inputs": [],
      "name": "DepositsPaused",
      "type": "event"
    },
    {
      "anonymous": false,
      "inputs": [],
      "name": "DepositsUnpaused",
      "type": "event"
    },
    {
      "anonymous": false,
      "inputs": [
        {
          "indexed": true,
          "internalType": "address",
          "name": "previousGovernor",
          "type": "address"
        },
        {
          "indexed": true,
          "internalType": "address",
          "name": "newGovernor",
          "type": "address"
        }
      ],
      "name": "PendingGovernorshipTransfer",
      "type": "event"
    },
    {
      "anonymous": false,
      "inputs": [
        {
          "indexed": true,
          "internalType": "address",
          "name": "previousGovernor",
          "type": "address"
        },
        {
          "indexed": true,
          "internalType": "address",
          "name": "newGovernor",
          "type": "address"
        }
      ],
      "name": "GovernorshipTransferred",
      "type": "event"
    }
  ],
  "address": "0x64dE3Ac9Ef06288cAB8176Ed65EB0f912Fd3eCB4",
  "args": [],
  "solcInputHash": "0xd3a5e3bea23a2489b7e255bc572e16d90a0dd815f249a9a737939b9c06a4a84d",
  "bytecode": "0x60806040526000603760146101000a81548160ff0219169083151502179055506001603760156101000a81548160ff0219169083151502179055506200004b33620000bb60201b60201c565b6200005b620000ea60201b60201c565b73ffffffffffffffffffffffffffffffffffffffff16600073ffffffffffffffffffffffffffffffffffffffff167fc7c0c772add429241571afb3805861fb3cfa2af374534088b76cdb4325a87e9a60405160405180910390a36200011b565b60007f7bea13895fa79d2831e0a9e28edede30099005a50d652d8957cf8a607ee6ca4a60001b90508181555050565b6000807f7bea13895fa79d2831e0a9e28edede30099005a50d652d8957cf8a607ee6ca4a60001b9050805491505090565b615fe0806200012b6000396000f3fe608060405234801561001057600080fd5b506004361061025e5760003560e01c80635f51522611610146578063b2c9336d116100c3578063c89d5b8b11610087578063c89d5b8b14610b17578063c9411e2214610b35578063d38bfff414610b83578063d4c3eea014610bc7578063db006a7514610be5578063eb03654b14610c135761025e565b8063b2c9336d14610a45578063b888879e14610a73578063b890ebf614610abd578063c5f0084114610aeb578063c7af335214610af55761025e565b80639be918e61161010a5780639be918e6146109855780639fa1826e146109e1578063a0aead4d146109ff578063abaa991614610a1d578063af14052c14610a275761025e565b80635f515226146107e557806363d8882a1461083d57806367bd7ba314610847578063686b37ca146108ca5780638ec489a2146109575761025e565b80632acada4d116101df578063485cc955116101a3578063485cc955146106255780634cd55c2d146106895780634dab68b3146106cd57806352d38e5d1461079b57806353ca9f24146107b95780635d36b190146107db5761025e565b80632acada4d1461050c5780632f4350c21461056b57806331e19cfa14610575578063372aa2241461059357806340c10f19146105d75761025e565b80630c340a24116102265780630c340a24146103855780631072cbea146103cf578063175188e81461041d5780631edfe3da1461046157806329a903ec1461047f5761025e565b8063021919801461026357806302befd241461026d57806307ea54771461028f57806309f49bf51461035d57806309f6442c14610367575b600080fd5b61026b610c41565b005b610275610d04565b604051808215151515815260200191505060405180910390f35b61035b600480360360408110156102a557600080fd5b81019080803590602001906401000000008111156102c257600080fd5b8201836020820111156102d457600080fd5b803590602001918460208302840111640100000000831117156102f657600080fd5b90919293919293908035906020019064010000000081111561031757600080fd5b82018360208201111561032957600080fd5b8035906020019184602083028401116401000000008311171561034b57600080fd5b9091929391929390505050610d17565b005b61036561111c565b005b61036f6111b3565b6040518082815260200191505060405180910390f35b61038d6111b9565b604051808273ffffffffffffffffffffffffffffffffffffffff1673ffffffffffffffffffffffffffffffffffffffff16815260200191505060405180910390f35b61041b600480360360408110156103e557600080fd5b81019080803573ffffffffffffffffffffffffffffffffffffffff169060200190929190803590602001909291905050506111c8565b005b61045f6004803603602081101561043357600080fd5b81019080803573ffffffffffffffffffffffffffffffffffffffff169060200190929190505050611310565b005b610469611670565b6040518082815260200191505060405180910390f35b6104f66004803603602081101561049557600080fd5b81019080803590602001906401000000008111156104b257600080fd5b8201836020820111156104c457600080fd5b803590602001918460018302840111640100000000831117156104e657600080fd5b9091929391929390505050611676565b6040518082815260200191505060405180910390f35b6105146116cd565b6040518080602001828103825283818151815260200191508051906020019060200280838360005b8381101561055757808201518184015260208101905061053c565b505050509050019250505060405180910390f35b61057361175b565b005b61057d61183f565b6040518082815260200191505060405180910390f35b6105d5600480360360208110156105a957600080fd5b81019080803573ffffffffffffffffffffffffffffffffffffffff16906020019092919050505061184c565b005b610623600480360360408110156105ed57600080fd5b81019080803573ffffffffffffffffffffffffffffffffffffffff1690602001909291908035906020019092919050505061190a565b005b6106876004803603604081101561063b57600080fd5b81019080803573ffffffffffffffffffffffffffffffffffffffff169060200190929190803573ffffffffffffffffffffffffffffffffffffffff169060200190929190505050611d7d565b005b6106cb6004803603602081101561069f57600080fd5b81019080803573ffffffffffffffffffffffffffffffffffffffff169060200190929190505050612127565b005b610799600480360360408110156106e357600080fd5b810190808035906020019064010000000081111561070057600080fd5b82018360208201111561071257600080fd5b8035906020019184602083028401116401000000008311171561073457600080fd5b90919293919293908035906020019064010000000081111561075557600080fd5b82018360208201111561076757600080fd5b8035906020019184602083028401116401000000008311171561078957600080fd5b90919293919293905050506123a4565b005b6107a36125dc565b6040518082815260200191505060405180910390f35b6107c16125e2565b604051808215151515815260200191505060405180910390f35b6107e36125f5565b005b610827600480360360208110156107fb57600080fd5b81019080803573ffffffffffffffffffffffffffffffffffffffff16906020019092919050505061268b565b6040518082815260200191505060405180910390f35b61084561269d565b005b6108736004803603602081101561085d57600080fd5b8101908080359060200190929190505050612760565b6040518080602001828103825283818151815260200191508051906020019060200280838360005b838110156108b657808201518184015260208101905061089b565b505050509050019250505060405180910390f35b610941600480360360208110156108e057600080fd5b81019080803590602001906401000000008111156108fd57600080fd5b82018360208201111561090f57600080fd5b8035906020019184600183028401116401000000008311171561093157600080fd5b9091929391929390505050612772565b6040518082815260200191505060405180910390f35b6109836004803603602081101561096d57600080fd5b81019080803590602001909291905050506127c9565b005b6109c76004803603602081101561099b57600080fd5b81019080803573ffffffffffffffffffffffffffffffffffffffff16906020019092919050505061284d565b604051808215151515815260200191505060405180910390f35b6109e96128a6565b6040518082815260200191505060405180910390f35b610a076128ac565b6040518082815260200191505060405180910390f35b610a256128b9565b005b610a2f6128d3565b6040518082815260200191505060405180910390f35b610a7160048036036020811015610a5b57600080fd5b8101908080359060200190929190505050612974565b005b610a7b6129f8565b604051808273ffffffffffffffffffffffffffffffffffffffff1673ffffffffffffffffffffffffffffffffffffffff16815260200191505060405180910390f35b610ae960048036036020811015610ad357600080fd5b8101908080359060200190929190505050612a1e565b005b610af3612aa2565b005b610afd612b39565b604051808215151515815260200191505060405180910390f35b610b1f612b76565b6040518082815260200191505060405180910390f35b610b8160048036036040811015610b4b57600080fd5b81019080803573ffffffffffffffffffffffffffffffffffffffff16906020019092919080359060200190929190505050612d85565b005b610bc560048036036020811015610b9957600080fd5b81019080803573ffffffffffffffffffffffffffffffffffffffff169060200190929190505050613013565b005b610bcf6130fa565b6040518082815260200191505060405180910390f35b610c1160048036036020811015610bfb57600080fd5b8101908080359060200190929190505050613119565b005b610c3f60048036036020811015610c2957600080fd5b810190808035906020019092919050505061376d565b005b610c49612b39565b610cbb576040517f08c379a000000000000000000000000000000000000000000000000000000000815260040180806020018281038252601a8152602001807f43616c6c6572206973206e6f742074686520476f7665726e6f7200000000000081525060200191505060405180910390fd5b6001603760156101000a81548160ff0219169083151502179055507fdeeb69430b7153361c25d630947115165636e6a723fa8daea4b0de34b324745960405160405180910390a1565b603760159054906101000a900460ff1681565b818190508484905014610d92576040517f08c379a00000000000000000000000000000000000000000000000000000000081526004018080602001828103825260198152602001807f506172616d65746572206c656e677468206d69736d617463680000000000000081525060200191505060405180910390fd5b60008090506060610da360006137f1565b905060008090505b603480549050811015610f1a5760008090505b87879050811015610f0c5760348281548110610dd657fe5b9060005260206000200160009054906101000a900473ffffffffffffffffffffffffffffffffffffffff1673ffffffffffffffffffffffffffffffffffffffff16888883818110610e2357fe5b9050602002013573ffffffffffffffffffffffffffffffffffffffff1673ffffffffffffffffffffffffffffffffffffffff161415610eff576000868683818110610e6a57fe5b905060200201351115610efe576000610eb960348481548110610e8957fe5b9060005260206000200160009054906101000a900473ffffffffffffffffffffffffffffffffffffffff16613b07565b9050610ef8848481518110610eca57fe5b602002602001015182600a0a898986818110610ee257fe5b90506020020135613c009092919063ffffffff16565b85019450505b5b8080600101915050610dbe565b508080600101915050610dab565b50603b5482118015610f395750603760149054906101000a900460ff16155b15610f4957610f4781613c35565b505b60008090505b86869050811015610fd4576000878783818110610f6857fe5b9050602002013573ffffffffffffffffffffffffffffffffffffffff169050610fc63330888886818110610f9857fe5b905060200201358473ffffffffffffffffffffffffffffffffffffffff16613e2e909392919063ffffffff16565b508080600101915050610f4f565b50603c60009054906101000a900473ffffffffffffffffffffffffffffffffffffffff1673ffffffffffffffffffffffffffffffffffffffff166340c10f1933846040518363ffffffff1660e01b8152600401808373ffffffffffffffffffffffffffffffffffffffff1673ffffffffffffffffffffffffffffffffffffffff16815260200182815260200192505050600060405180830381600087803b15801561107e57600080fd5b505af1158015611092573d6000803e3d6000fd5b505050507f0f6798a560793a54c3bcfe86a93cde1e73087d944c0ea20544137d41213968853383604051808373ffffffffffffffffffffffffffffffffffffffff1673ffffffffffffffffffffffffffffffffffffffff1681526020018281526020019250505060405180910390a1603a5482106111145761111381613f34565b5b505050505050565b611124612b39565b611196576040517f08c379a000000000000000000000000000000000000000000000000000000000815260040180806020018281038252601a8152602001807f43616c6c6572206973206e6f742074686520476f7665726e6f7200000000000081525060200191505060405180910390fd5b6000603760146101000a81548160ff021916908315150217905550565b60385481565b60006111c361427b565b905090565b6111d0612b39565b611242576040517f08c379a000000000000000000000000000000000000000000000000000000000815260040180806020018281038252601a8152602001807f43616c6c6572206973206e6f742074686520476f7665726e6f7200000000000081525060200191505060405180910390fd5b8173ffffffffffffffffffffffffffffffffffffffff1663a9059cbb6112666111b9565b836040518363ffffffff1660e01b8152600401808373ffffffffffffffffffffffffffffffffffffffff1673ffffffffffffffffffffffffffffffffffffffff16815260200182815260200192505050602060405180830381600087803b1580156112d057600080fd5b505af11580156112e4573d6000803e3d6000fd5b505050506040513d60208110156112fa57600080fd5b8101908080519060200190929190505050505050565b611318612b39565b61138a576040517f08c379a000000000000000000000000000000000000000000000000000000000815260040180806020018281038252601a8152602001807f43616c6c6572206973206e6f742074686520476f7665726e6f7200000000000081525060200191505060405180910390fd5b603560008273ffffffffffffffffffffffffffffffffffffffff1673ffffffffffffffffffffffffffffffffffffffff16815260200190815260200160002060000160009054906101000a900460ff1661144c576040517f08c379a00000000000000000000000000000000000000000000000000000000081526004018080602001828103825260128152602001807f5374726174656779206e6f74206164646564000000000000000000000000000081525060200191505060405180910390fd5b6000603680549050905060008090505b6036805490508110156114e9578273ffffffffffffffffffffffffffffffffffffffff166036828154811061148d57fe5b9060005260206000200160009054906101000a900473ffffffffffffffffffffffffffffffffffffffff1673ffffffffffffffffffffffffffffffffffffffff1614156114dc578091506114e9565b808060010191505061145c565b5060368054905081106114f857fe5b60366001603680549050038154811061150d57fe5b9060005260206000200160009054906101000a900473ffffffffffffffffffffffffffffffffffffffff166036828154811061154557fe5b9060005260206000200160006101000a81548173ffffffffffffffffffffffffffffffffffffffff021916908373ffffffffffffffffffffffffffffffffffffffff16021790555060368054809190600190036115a29190615e88565b5060008290508073ffffffffffffffffffffffffffffffffffffffff166328a070256040518163ffffffff1660e01b8152600401600060405180830381600087803b1580156115f057600080fd5b505af1158015611604573d6000803e3d6000fd5b505050507f09a1db4b80c32706328728508c941a6b954f31eb5affd32f236c1fd405f8fea483604051808273ffffffffffffffffffffffffffffffffffffffff1673ffffffffffffffffffffffffffffffffffffffff16815260200191505060405180910390a1505050565b60395481565b60006116c583838080601f016020809104026020016040519081016040528093929190818152602001838380828437600081840152601f19601f820116905080830192505050505050506142ac565b905092915050565b6060603480548060200260200160405190810160405280929190818152602001828054801561175157602002820191906000526020600020905b8160009054906101000a900473ffffffffffffffffffffffffffffffffffffffff1673ffffffffffffffffffffffffffffffffffffffff1681526020019060010190808311611707575b5050505050905090565b61183d603c60009054906101000a900473ffffffffffffffffffffffffffffffffffffffff1673ffffffffffffffffffffffffffffffffffffffff166370a08231336040518263ffffffff1660e01b8152600401808273ffffffffffffffffffffffffffffffffffffffff1673ffffffffffffffffffffffffffffffffffffffff16815260200191505060206040518083038186803b1580156117fd57600080fd5b505afa158015611811573d6000803e3d6000fd5b505050506040513d602081101561182757600080fd5b8101908080519060200190929190505050613119565b565b6000603680549050905090565b611854612b39565b6118c6576040517f08c379a000000000000000000000000000000000000000000000000000000000815260040180806020018281038252601a8152602001807f43616c6c6572206973206e6f742074686520476f7665726e6f7200000000000081525060200191505060405180910390fd5b80603760006101000a81548173ffffffffffffffffffffffffffffffffffffffff021916908373ffffffffffffffffffffffffffffffffffffffff16021790555050565b603760159054906101000a900460ff161561198d576040517f08c379a00000000000000000000000000000000000000000000000000000000081526004018080602001828103825260138152602001807f4465706f7369747320617265207061757365640000000000000000000000000081525060200191505060405180910390fd5b603360008373ffffffffffffffffffffffffffffffffffffffff1673ffffffffffffffffffffffffffffffffffffffff16815260200190815260200160002060000160009054906101000a900460ff16611a4f576040517f08c379a00000000000000000000000000000000000000000000000000000000081526004018080602001828103825260168152602001807f4173736574206973206e6f7420737570706f727465640000000000000000000081525060200191505060405180910390fd5b60008111611ac5576040517f08c379a000000000000000000000000000000000000000000000000000000000815260040180806020018281038252601d8152602001807f416d6f756e74206d7573742062652067726561746572207468616e203000000081525060200191505060405180910390fd5b6060611ad160006137f1565b9050600080905060008090505b603480549050811015611bd65760348181548110611af857fe5b9060005260206000200160009054906101000a900473ffffffffffffffffffffffffffffffffffffffff1673ffffffffffffffffffffffffffffffffffffffff168573ffffffffffffffffffffffffffffffffffffffff161415611bc9576000611b9860348381548110611b6857fe5b9060005260206000200160009054906101000a900473ffffffffffffffffffffffffffffffffffffffff16613b07565b9050611bc5848381518110611ba957fe5b602002602001015182600a0a87613c009092919063ffffffff16565b9250505b8080600101915050611ade565b50603b5481118015611bf55750603760149054906101000a900460ff16155b15611c0557611c0382613c35565b505b6000849050611c373330868473ffffffffffffffffffffffffffffffffffffffff16613e2e909392919063ffffffff16565b603c60009054906101000a900473ffffffffffffffffffffffffffffffffffffffff1673ffffffffffffffffffffffffffffffffffffffff166340c10f1933846040518363ffffffff1660e01b8152600401808373ffffffffffffffffffffffffffffffffffffffff1673ffffffffffffffffffffffffffffffffffffffff16815260200182815260200192505050600060405180830381600087803b158015611ce057600080fd5b505af1158015611cf4573d6000803e3d6000fd5b505050507f0f6798a560793a54c3bcfe86a93cde1e73087d944c0ea20544137d41213968853383604051808373ffffffffffffffffffffffffffffffffffffffff1673ffffffffffffffffffffffffffffffffffffffff1681526020018281526020019250505060405180910390a1603a548210611d7657611d7583613f34565b5b5050505050565b611d85612b39565b611df7576040517f08c379a000000000000000000000000000000000000000000000000000000000815260040180806020018281038252601a8152602001807f43616c6c6572206973206e6f742074686520476f7665726e6f7200000000000081525060200191505060405180910390fd5b600060019054906101000a900460ff1680611e165750611e156143dd565b5b80611e2d57506000809054906101000a900460ff16155b611e82576040517f08c379a000000000000000000000000000000000000000000000000000000000815260040180806020018281038252602e815260200180615f24602e913960400191505060405180910390fd5b60008060019054906101000a900460ff161590508015611ed2576001600060016101000a81548160ff02191690831515021790555060016000806101000a81548160ff0219169083151502179055505b600073ffffffffffffffffffffffffffffffffffffffff168373ffffffffffffffffffffffffffffffffffffffff161415611f75576040517f08c379a000000000000000000000000000000000000000000000000000000000815260040180806020018281038252601d8152602001807f507269636550726f76696465722061646472657373206973207a65726f00000081525060200191505060405180910390fd5b600073ffffffffffffffffffffffffffffffffffffffff168273ffffffffffffffffffffffffffffffffffffffff161415612018576040517f08c379a00000000000000000000000000000000000000000000000000000000081526004018080602001828103825260148152602001807f6f5553442061646472657373206973207a65726f00000000000000000000000081525060200191505060405180910390fd5b81603c60006101000a81548173ffffffffffffffffffffffffffffffffffffffff021916908373ffffffffffffffffffffffffffffffffffffffff16021790555082603760006101000a81548173ffffffffffffffffffffffffffffffffffffffff021916908373ffffffffffffffffffffffffffffffffffffffff1602179055506000603760146101000a81548160ff0219169083151502179055506001603760156101000a81548160ff0219169083151502179055506000603881905550600060398190555069054b40b1f852bda00000603a81905550683635c9adc5dea00000603b8190555080156121225760008060016101000a81548160ff0219169083151502179055505b505050565b61212f612b39565b6121a1576040517f08c379a000000000000000000000000000000000000000000000000000000000815260040180806020018281038252601a8152602001807f43616c6c6572206973206e6f742074686520476f7665726e6f7200000000000081525060200191505060405180910390fd5b603360008273ffffffffffffffffffffffffffffffffffffffff1673ffffffffffffffffffffffffffffffffffffffff16815260200190815260200160002060000160009054906101000a900460ff1615612264576040517f08c379a00000000000000000000000000000000000000000000000000000000081526004018080602001828103825260178152602001807f417373657420616c726561647920737570706f7274656400000000000000000081525060200191505060405180910390fd5b604051806020016040528060011515815250603360008373ffffffffffffffffffffffffffffffffffffffff1673ffffffffffffffffffffffffffffffffffffffff16815260200190815260200160002060008201518160000160006101000a81548160ff02191690831515021790555090505060348190806001815401808255809150509060018203906000526020600020016000909192909190916101000a81548173ffffffffffffffffffffffffffffffffffffffff021916908373ffffffffffffffffffffffffffffffffffffffff160217905550507f4f1ac48525e50059cc1cc6e0e1940ece0dd653a4db4841538d6aef036be2fb7b81604051808273ffffffffffffffffffffffffffffffffffffffff1673ffffffffffffffffffffffffffffffffffffffff16815260200191505060405180910390a150565b6123ac612b39565b61241e576040517f08c379a000000000000000000000000000000000000000000000000000000000815260040180806020018281038252601a8152602001807f43616c6c6572206973206e6f742074686520476f7665726e6f7200000000000081525060200191505060405180910390fd5b818190508484905014612499576040517f08c379a00000000000000000000000000000000000000000000000000000000081526004018080602001828103825260198152602001807f506172616d65746572206c656e677468206d69736d617463680000000000000081525060200191505060405180910390fd5b60008090505b84849050811015612538578282828181106124b657fe5b90506020020135603560008787858181106124cd57fe5b9050602002013573ffffffffffffffffffffffffffffffffffffffff1673ffffffffffffffffffffffffffffffffffffffff1673ffffffffffffffffffffffffffffffffffffffff16815260200190815260200160002060010181905550808060010191505061249f565b507f96f2c15ff9c9cea757ec12e3f9aaa7705c3d0a154ee1e71c6e1221c8de0b7762848484846040518080602001806020018381038352878782818152602001925060200280828437600081840152601f19601f8201169050808301925050508381038252858582818152602001925060200280828437600081840152601f19601f820116905080830192505050965050505050505060405180910390a150505050565b603b5481565b603760149054906101000a900460ff1681565b6125fd6143f4565b73ffffffffffffffffffffffffffffffffffffffff163373ffffffffffffffffffffffffffffffffffffffff1614612680576040517f08c379a0000000000000000000000000000000000000000000000000000000008152600401808060200182810382526030815260200180615f7c6030913960400191505060405180910390fd5b61268933614425565b565b600061269682614535565b9050919050565b6126a5612b39565b612717576040517f08c379a000000000000000000000000000000000000000000000000000000000815260040180806020018281038252601a8152602001807f43616c6c6572206973206e6f742074686520476f7665726e6f7200000000000081525060200191505060405180910390fd5b6000603760156101000a81548160ff0219169083151502179055507f823084e804e36d8971e8b86749b6b0ace7b9f87ed272bef910c1e72d123eeb4860405160405180910390a1565b606061276b826147d3565b9050919050565b60006127c183838080601f016020809104026020016040519081016040528093929190818152602001838380828437600081840152601f19601f82011690508083019250505050505050614a8f565b905092915050565b6127d1612b39565b612843576040517f08c379a000000000000000000000000000000000000000000000000000000000815260040180806020018281038252601a8152602001807f43616c6c6572206973206e6f742074686520476f7665726e6f7200000000000081525060200191505060405180910390fd5b8060398190555050565b6000603360008373ffffffffffffffffffffffffffffffffffffffff1673ffffffffffffffffffffffffffffffffffffffff16815260200190815260200160002060000160009054906101000a900460ff169050919050565b603a5481565b6000603480549050905090565b60606128c560006137f1565b90506128d081613f34565b50565b6000603760149054906101000a900460ff1615612958576040517f08c379a000000000000000000000000000000000000000000000000000000000815260040180806020018281038252600f8152602001807f5265626173696e6720706175736564000000000000000000000000000000000081525060200191505060405180910390fd5b606061296460006137f1565b905061296f81613c35565b505090565b61297c612b39565b6129ee576040517f08c379a000000000000000000000000000000000000000000000000000000000815260040180806020018281038252601a8152602001807f43616c6c6572206973206e6f742074686520476f7665726e6f7200000000000081525060200191505060405180910390fd5b80603a8190555050565b603760009054906101000a900473ffffffffffffffffffffffffffffffffffffffff1681565b612a26612b39565b612a98576040517f08c379a000000000000000000000000000000000000000000000000000000000815260040180806020018281038252601a8152602001807f43616c6c6572206973206e6f742074686520476f7665726e6f7200000000000081525060200191505060405180910390fd5b80603b8190555050565b612aaa612b39565b612b1c576040517f08c379a000000000000000000000000000000000000000000000000000000000815260040180806020018281038252601a8152602001807f43616c6c6572206973206e6f742074686520476f7665726e6f7200000000000081525060200191505060405180910390fd5b6001603760146101000a81548160ff021916908315150217905550565b6000612b4361427b565b73ffffffffffffffffffffffffffffffffffffffff163373ffffffffffffffffffffffffffffffffffffffff1614905090565b600080612b8161183f565b1415612b905760009050612d82565b6060612b9c60016137f1565b9050600080905060008090505b603680549050811015612d7b57600060368281548110612bc557fe5b9060005260206000200160009054906101000a900473ffffffffffffffffffffffffffffffffffffffff16905060008173ffffffffffffffffffffffffffffffffffffffff1663c89d5b8b6040518163ffffffff1660e01b815260040160206040518083038186803b158015612c3a57600080fd5b505afa158015612c4e573d6000803e3d6000fd5b505050506040513d6020811015612c6457600080fd5b81019080805190602001909291905050501115612d6d57612d688173ffffffffffffffffffffffffffffffffffffffff1663c89d5b8b6040518163ffffffff1660e01b815260040160206040518083038186803b158015612cc457600080fd5b505afa158015612cd8573d6000803e3d6000fd5b505050506040513d6020811015612cee57600080fd5b8101908080519060200190929190505050612d5a612d0b87614bc0565b612d4c60368781548110612d1b57fe5b9060005260206000200160009054906101000a900473ffffffffffffffffffffffffffffffffffffffff1689614bdc565b614e7590919063ffffffff16565b614eb190919063ffffffff16565b830192505b508080600101915050612ba9565b5080925050505b90565b612d8d612b39565b612dff576040517f08c379a000000000000000000000000000000000000000000000000000000000815260040180806020018281038252601a8152602001807f43616c6c6572206973206e6f742074686520476f7665726e6f7200000000000081525060200191505060405180910390fd5b603560008373ffffffffffffffffffffffffffffffffffffffff1673ffffffffffffffffffffffffffffffffffffffff16815260200190815260200160002060000160009054906101000a900460ff1615612ec2576040517f08c379a00000000000000000000000000000000000000000000000000000000081526004018080602001828103825260168152602001807f537472617465677920616c72656164792061646465640000000000000000000081525060200191505060405180910390fd5b604051806040016040528060011515815260200182815250603560008473ffffffffffffffffffffffffffffffffffffffff1673ffffffffffffffffffffffffffffffffffffffff16815260200190815260200160002060008201518160000160006101000a81548160ff0219169083151502179055506020820151816001015590505060368290806001815401808255809150509060018203906000526020600020016000909192909190916101000a81548173ffffffffffffffffffffffffffffffffffffffff021916908373ffffffffffffffffffffffffffffffffffffffff160217905550507f3f008fd510eae7a9e7bee13513d7b83bef8003d488b5a3d0b0da4de71d6846f182604051808273ffffffffffffffffffffffffffffffffffffffff1673ffffffffffffffffffffffffffffffffffffffff16815260200191505060405180910390a15050565b61301b612b39565b61308d576040517f08c379a000000000000000000000000000000000000000000000000000000000815260040180806020018281038252601a8152602001807f43616c6c6572206973206e6f742074686520476f7665726e6f7200000000000081525060200191505060405180910390fd5b61309681614ece565b8073ffffffffffffffffffffffffffffffffffffffff166130b561427b565b73ffffffffffffffffffffffffffffffffffffffff167fa39cc5eb22d0f34d8beaefee8a3f17cc229c1a1d1ef87a5ad47313487b1c4f0d60405160405180910390a350565b6000606061310860006137f1565b905061311381614bc0565b91505090565b6000811161318f576040517f08c379a000000000000000000000000000000000000000000000000000000000815260040180806020018281038252601d8152602001807f416d6f756e74206d7573742062652067726561746572207468616e203000000081525060200191505060405180910390fd5b606061319b60006137f1565b9050603b54821180156131bb5750603760149054906101000a900460ff16155b156131cb576131c981613c35565b505b600080603854111561321f5760006132026127106131f460385487614efd90919063ffffffff16565b614f8390919063ffffffff16565b90506132178185614fcd90919063ffffffff16565b915050613223565b8290505b606061322e826147d3565b905060008090505b60348054905081101561360c57600082828151811061325157fe5b60200260200101511415613264576135ff565b60006132bb6034838154811061327657fe5b9060005260206000200160009054906101000a900473ffffffffffffffffffffffffffffffffffffffff168484815181106132ad57fe5b602002602001015187615017565b90506000603483815481106132cc57fe5b9060005260206000200160009054906101000a900473ffffffffffffffffffffffffffffffffffffffff16905083838151811061330557fe5b60200260200101518173ffffffffffffffffffffffffffffffffffffffff166370a08231306040518263ffffffff1660e01b8152600401808273ffffffffffffffffffffffffffffffffffffffff1673ffffffffffffffffffffffffffffffffffffffff16815260200191505060206040518083038186803b15801561338a57600080fd5b505afa15801561339e573d6000803e3d6000fd5b505050506040513d60208110156133b457600080fd5b81019080805190602001909291905050501061340d57613408338585815181106133da57fe5b60200260200101518373ffffffffffffffffffffffffffffffffffffffff1661529a9092919063ffffffff16565b6135fc565b600073ffffffffffffffffffffffffffffffffffffffff168273ffffffffffffffffffffffffffffffffffffffff161461358d5760008290508073ffffffffffffffffffffffffffffffffffffffff1663d9caed12336034878154811061347057fe5b9060005260206000200160009054906101000a900473ffffffffffffffffffffffffffffffffffffffff168888815181106134a757fe5b60200260200101516040518463ffffffff1660e01b8152600401808473ffffffffffffffffffffffffffffffffffffffff1673ffffffffffffffffffffffffffffffffffffffff1681526020018373ffffffffffffffffffffffffffffffffffffffff1673ffffffffffffffffffffffffffffffffffffffff1681526020018281526020019350505050602060405180830381600087803b15801561354b57600080fd5b505af115801561355f573d6000803e3d6000fd5b505050506040513d602081101561357557600080fd5b810190808051906020019092919050505050506135fb565b6040517f08c379a000000000000000000000000000000000000000000000000000000000815260040180806020018281038252600f8152602001807f4c6971756964697479206572726f72000000000000000000000000000000000081525060200191505060405180910390fd5b5b50505b8080600101915050613236565b50603c60009054906101000a900473ffffffffffffffffffffffffffffffffffffffff1673ffffffffffffffffffffffffffffffffffffffff16639dc29fac33866040518363ffffffff1660e01b8152600401808373ffffffffffffffffffffffffffffffffffffffff1673ffffffffffffffffffffffffffffffffffffffff16815260200182815260200192505050600060405180830381600087803b1580156136b657600080fd5b505af11580156136ca573d6000803e3d6000fd5b50505050603b54841180156136ec5750603760149054906101000a900460ff16155b156136fc576136fa83613c35565b505b7f222838db2794d11532d940e8dec38ae307ed0b63cd97c233322e221f998767a63385604051808373ffffffffffffffffffffffffffffffffffffffff1673ffffffffffffffffffffffffffffffffffffffff1681526020018281526020019250505060405180910390a150505050565b613775612b39565b6137e7576040517f08c379a000000000000000000000000000000000000000000000000000000000815260040180806020018281038252601a8152602001807f43616c6c6572206973206e6f742074686520476f7665726e6f7200000000000081525060200191505060405180910390fd5b8060388190555050565b60606137fb6128ac565b6040519080825280602002602001820160405280156138295781602001602082028038833980820191505090505b5090506000603760009054906101000a900473ffffffffffffffffffffffffffffffffffffffff16905060008090505b603480549050811015613b005760606138a86034838154811061387857fe5b9060005260206000200160009054906101000a900473ffffffffffffffffffffffffffffffffffffffff1661536b565b905084156139d3576139b6600a8473ffffffffffffffffffffffffffffffffffffffff16637bf0c215846040518263ffffffff1660e01b81526004018080602001828103825283818151815260200191508051906020019080838360005b83811015613921578082015181840152602081019050613906565b50505050905090810190601f16801561394e5780820380516001836020036101000a031916815260200191505b5092505050602060405180830381600087803b15801561396d57600080fd5b505af1158015613981573d6000803e3d6000fd5b505050506040513d602081101561399757600080fd5b81019080805190602001909291905050506154b890919063ffffffff16565b8483815181106139c257fe5b602002602001018181525050613af2565b613ad9600a8473ffffffffffffffffffffffffffffffffffffffff166319af6bf0846040518263ffffffff1660e01b81526004018080602001828103825283818151815260200191508051906020019080838360005b83811015613a44578082015181840152602081019050613a29565b50505050905090810190601f168015613a715780820380516001836020036101000a031916815260200191505b5092505050602060405180830381600087803b158015613a9057600080fd5b505af1158015613aa4573d6000803e3d6000fd5b505050506040513d6020811015613aba57600080fd5b81019080805190602001909291905050506154b890919063ffffffff16565b848381518110613ae557fe5b6020026020010181815250505b508080600101915050613859565b5050919050565b6000808273ffffffffffffffffffffffffffffffffffffffff1663313ce5676040518163ffffffff1660e01b815260040160206040518083038186803b158015613b5057600080fd5b505afa158015613b64573d6000803e3d6000fd5b505050506040513d6020811015613b7a57600080fd5b810190808051906020019092919050505060ff16905060048110158015613ba2575060128111155b613bf7576040517f08c379a0000000000000000000000000000000000000000000000000000000008152600401808060200182810382526029815260200180615eda6029913960400191505060405180910390fd5b80915050919050565b600080613c168486614efd90919063ffffffff16565b9050613c2b8382614f8390919063ffffffff16565b9150509392505050565b6000603760149054906101000a900460ff1615613cba576040517f08c379a000000000000000000000000000000000000000000000000000000000815260040180806020018281038252600f8152602001807f5265626173696e6720706175736564000000000000000000000000000000000081525060200191505060405180910390fd5b6000603c60009054906101000a900473ffffffffffffffffffffffffffffffffffffffff1673ffffffffffffffffffffffffffffffffffffffff166318160ddd6040518163ffffffff1660e01b815260040160206040518083038186803b158015613d2457600080fd5b505afa158015613d38573d6000803e3d6000fd5b505050506040513d6020811015613d4e57600080fd5b81019080805190602001909291905050501415613d6e5760009050613e29565b603c60009054906101000a900473ffffffffffffffffffffffffffffffffffffffff1673ffffffffffffffffffffffffffffffffffffffff166339a7919f613db584614bc0565b6040518263ffffffff1660e01b815260040180828152602001915050602060405180830381600087803b158015613deb57600080fd5b505af1158015613dff573d6000803e3d6000fd5b505050506040513d6020811015613e1557600080fd5b810190808051906020019092919050505090505b919050565b613f2e848573ffffffffffffffffffffffffffffffffffffffff166323b872dd905060e01b858585604051602401808473ffffffffffffffffffffffffffffffffffffffff1673ffffffffffffffffffffffffffffffffffffffff1681526020018373ffffffffffffffffffffffffffffffffffffffff1673ffffffffffffffffffffffffffffffffffffffff1681526020018281526020019350505050604051602081830303815290604052907bffffffffffffffffffffffffffffffffffffffffffffffffffffffff19166020820180517bffffffffffffffffffffffffffffffffffffffffffffffffffffffff8381831617835250505050615539565b50505050565b6000613f3f82615784565b90506000811415613f505750614278565b6000613f5b83615927565b905060008183019050600080831415613f8257603954670de0b6b3a7640000039050613fd7565b613fa984613f9b84603954614efd90919063ffffffff16565b614f8390919063ffffffff16565b905080670de0b6b3a76400001115613fcd5780670de0b6b3a7640000039050613fd6565b50505050614278565b5b6000811415613fe95750505050614278565b60008090505b6034805490508110156142725760006034828154811061400b57fe5b9060005260206000200160009054906101000a900473ffffffffffffffffffffffffffffffffffffffff16905060008173ffffffffffffffffffffffffffffffffffffffff166370a08231306040518263ffffffff1660e01b8152600401808273ffffffffffffffffffffffffffffffffffffffff1673ffffffffffffffffffffffffffffffffffffffff16815260200191505060206040518083038186803b1580156140b757600080fd5b505afa1580156140cb573d6000803e3d6000fd5b505050506040513d60208110156140e157600080fd5b810190808051906020019092919050505090506000811415614104575050614265565b60006141198583614eb190919063ffffffff16565b90506000614127848b615997565b9050600073ffffffffffffffffffffffffffffffffffffffff168173ffffffffffffffffffffffffffffffffffffffff16141580156141665750600082115b1561426057600081905061419b81848773ffffffffffffffffffffffffffffffffffffffff1661529a9092919063ffffffff16565b8073ffffffffffffffffffffffffffffffffffffffff166347e7ef2486856040518363ffffffff1660e01b8152600401808373ffffffffffffffffffffffffffffffffffffffff1673ffffffffffffffffffffffffffffffffffffffff16815260200182815260200192505050602060405180830381600087803b15801561422257600080fd5b505af1158015614236573d6000803e3d6000fd5b505050506040513d602081101561424c57600080fd5b810190808051906020019092919050505050505b505050505b8080600101915050613fef565b50505050505b50565b6000807f7bea13895fa79d2831e0a9e28edede30099005a50d652d8957cf8a607ee6ca4a60001b9050805491505090565b60006143d6600a603760009054906101000a900473ffffffffffffffffffffffffffffffffffffffff1673ffffffffffffffffffffffffffffffffffffffff16637bf0c215856040518263ffffffff1660e01b81526004018080602001828103825283818151815260200191508051906020019080838360005b83811015614341578082015181840152602081019050614326565b50505050905090810190601f16801561436e5780820380516001836020036101000a031916815260200191505b5092505050602060405180830381600087803b15801561438d57600080fd5b505af11580156143a1573d6000803e3d6000fd5b505050506040513d60208110156143b757600080fd5b81019080805190602001909291905050506154b890919063ffffffff16565b9050919050565b6000803090506000813b9050600081149250505090565b6000807f44c4d30b2eaad5130ad70c3ba6972730566f3e6359ab83e800d905c61b1c51db60001b9050805491505090565b600073ffffffffffffffffffffffffffffffffffffffff168173ffffffffffffffffffffffffffffffffffffffff1614156144c8576040517f08c379a000000000000000000000000000000000000000000000000000000000815260040180806020018281038252601a8152602001807f4e657720476f7665726e6f72206973206164647265737328302900000000000081525060200191505060405180910390fd5b8073ffffffffffffffffffffffffffffffffffffffff166144e761427b565b73ffffffffffffffffffffffffffffffffffffffff167fc7c0c772add429241571afb3805861fb3cfa2af374534088b76cdb4325a87e9a60405160405180910390a361453281615b4f565b50565b6000808290508073ffffffffffffffffffffffffffffffffffffffff166370a08231306040518263ffffffff1660e01b8152600401808273ffffffffffffffffffffffffffffffffffffffff1673ffffffffffffffffffffffffffffffffffffffff16815260200191505060206040518083038186803b1580156145b857600080fd5b505afa1580156145cc573d6000803e3d6000fd5b505050506040513d60208110156145e257600080fd5b8101908080519060200190929190505050915060008090505b6036805490508110156147cc5760006036828154811061461757fe5b9060005260206000200160009054906101000a900473ffffffffffffffffffffffffffffffffffffffff1690508073ffffffffffffffffffffffffffffffffffffffff1663aa388af6866040518263ffffffff1660e01b8152600401808273ffffffffffffffffffffffffffffffffffffffff1673ffffffffffffffffffffffffffffffffffffffff16815260200191505060206040518083038186803b1580156146c157600080fd5b505afa1580156146d5573d6000803e3d6000fd5b505050506040513d60208110156146eb57600080fd5b8101908080519060200190929190505050156147be578073ffffffffffffffffffffffffffffffffffffffff16635f515226866040518263ffffffff1660e01b8152600401808273ffffffffffffffffffffffffffffffffffffffff1673ffffffffffffffffffffffffffffffffffffffff16815260200191505060206040518083038186803b15801561477e57600080fd5b505afa158015614792573d6000803e3d6000fd5b505050506040513d60208110156147a857600080fd5b8101908080519060200190929190505050840193505b5080806001019150506145fb565b5050919050565b6060806147e060016137f1565b905060006147ec615b7e565b9050600080905060006147fd6128ac565b90508060405190808252806020026020018201604052801561482e5781602001602082028038833980820191505090505b50945060008090505b6034805490508110156149765760006148866034838154811061485657fe5b9060005260206000200160009054906101000a900473ffffffffffffffffffffffffffffffffffffffff16613b07565b90506000614903866148f58b6148e7866012036148d960348a815481106148a957fe5b9060005260206000200160009054906101000a900473ffffffffffffffffffffffffffffffffffffffff16614535565b6154b890919063ffffffff16565b614efd90919063ffffffff16565b614f8390919063ffffffff16565b905060008111156149675761493487848151811061491d57fe5b602002602001015182614eb190919063ffffffff16565b8501945061494e60128303826154b890919063ffffffff16565b88848151811061495a57fe5b6020026020010181815250505b50508080600101915050614837565b506000828703905060008090505b8651811015614a8457600087828151811061499b57fe5b602002602001015114156149ae57614a77565b6000821215614a15576149f2846149e48984815181106149ca57fe5b602002602001015185600003614efd90919063ffffffff16565b614f8390919063ffffffff16565b8782815181106149fe57fe5b602002602001018181510391508181525050614a76565b6000821315614a7557614a5684614a48898481518110614a3157fe5b602002602001015185614efd90919063ffffffff16565b614f8390919063ffffffff16565b878281518110614a6257fe5b6020026020010181815101915081815250505b5b5b8080600101915050614984565b505050505050919050565b6000614bb9600a603760009054906101000a900473ffffffffffffffffffffffffffffffffffffffff1673ffffffffffffffffffffffffffffffffffffffff166319af6bf0856040518263ffffffff1660e01b81526004018080602001828103825283818151815260200191508051906020019080838360005b83811015614b24578082015181840152602081019050614b09565b50505050905090810190601f168015614b515780820380516001836020036101000a031916815260200191505b5092505050602060405180830381600087803b158015614b7057600080fd5b505af1158015614b84573d6000803e3d6000fd5b505050506040513d6020811015614b9a57600080fd5b81019080805190602001909291905050506154b890919063ffffffff16565b9050919050565b6000614bcb82615927565b614bd483615784565b019050919050565b6000809050600083905060008090505b603480549050811015614e6d576000614c3b60348381548110614c0b57fe5b9060005260206000200160009054906101000a900473ffffffffffffffffffffffffffffffffffffffff16613b07565b90508273ffffffffffffffffffffffffffffffffffffffff1663aa388af660348481548110614c6657fe5b9060005260206000200160009054906101000a900473ffffffffffffffffffffffffffffffffffffffff166040518263ffffffff1660e01b8152600401808273ffffffffffffffffffffffffffffffffffffffff1673ffffffffffffffffffffffffffffffffffffffff16815260200191505060206040518083038186803b158015614cf157600080fd5b505afa158015614d05573d6000803e3d6000fd5b505050506040513d6020811015614d1b57600080fd5b810190808051906020019092919050505015614e5f5760008373ffffffffffffffffffffffffffffffffffffffff16635f51522660348581548110614d5c57fe5b9060005260206000200160009054906101000a900473ffffffffffffffffffffffffffffffffffffffff166040518263ffffffff1660e01b8152600401808273ffffffffffffffffffffffffffffffffffffffff1673ffffffffffffffffffffffffffffffffffffffff16815260200191505060206040518083038186803b158015614de757600080fd5b505afa158015614dfb573d6000803e3d6000fd5b505050506040513d6020811015614e1157600080fd5b810190808051906020019092919050505090506000811115614e5d57614e58868481518110614e3c57fe5b602002602001015183600a0a83613c009092919063ffffffff16565b850194505b505b508080600101915050614bec565b505092915050565b600080614e93670de0b6b3a764000085614efd90919063ffffffff16565b9050614ea88382614f8390919063ffffffff16565b91505092915050565b6000614ec68383670de0b6b3a7640000613c00565b905092915050565b60007f44c4d30b2eaad5130ad70c3ba6972730566f3e6359ab83e800d905c61b1c51db60001b90508181555050565b600080831415614f105760009050614f7d565b6000828402905082848281614f2157fe5b0414614f78576040517f08c379a0000000000000000000000000000000000000000000000000000000008152600401808060200182810382526021815260200180615f036021913960400191505060405180910390fd5b809150505b92915050565b6000614fc583836040518060400160405280601a81526020017f536166654d6174683a206469766973696f6e206279207a65726f000000000000815250615c45565b905092915050565b600061500f83836040518060400160405280601e81526020017f536166654d6174683a207375627472616374696f6e206f766572666c6f770000815250615d0b565b905092915050565b60008090506000670de0b6b3a7640000905060008090505b6036805490508110156152915760006036828154811061504b57fe5b9060005260206000200160009054906101000a900473ffffffffffffffffffffffffffffffffffffffff1690508073ffffffffffffffffffffffffffffffffffffffff1663aa388af6886040518263ffffffff1660e01b8152600401808273ffffffffffffffffffffffffffffffffffffffff1673ffffffffffffffffffffffffffffffffffffffff16815260200191505060206040518083038186803b1580156150f557600080fd5b505afa158015615109573d6000803e3d6000fd5b505050506040513d602081101561511f57600080fd5b810190808051906020019092919050505080156151f25750858173ffffffffffffffffffffffffffffffffffffffff16635f515226896040518263ffffffff1660e01b8152600401808273ffffffffffffffffffffffffffffffffffffffff1673ffffffffffffffffffffffffffffffffffffffff16815260200191505060206040518083038186803b1580156151b557600080fd5b505afa1580156151c9573d6000803e3d6000fd5b505050506040513d60208110156151df57600080fd5b8101908080519060200190929190505050115b1561528357600061523a6036848154811061520957fe5b9060005260206000200160009054906101000a900473ffffffffffffffffffffffffffffffffffffffff1687615dcb565b9050838113615281578093506036838154811061525357fe5b9060005260206000200160009054906101000a900473ffffffffffffffffffffffffffffffffffffffff1694505b505b50808060010191505061502f565b50509392505050565b615366838473ffffffffffffffffffffffffffffffffffffffff1663a9059cbb905060e01b8484604051602401808373ffffffffffffffffffffffffffffffffffffffff1673ffffffffffffffffffffffffffffffffffffffff16815260200182815260200192505050604051602081830303815290604052907bffffffffffffffffffffffffffffffffffffffffffffffffffffffff19166020820180517bffffffffffffffffffffffffffffffffffffffffffffffffffffffff8381831617835250505050615539565b505050565b6060808273ffffffffffffffffffffffffffffffffffffffff166395d89b416040518163ffffffff1660e01b815260040160006040518083038186803b1580156153b457600080fd5b505afa1580156153c8573d6000803e3d6000fd5b505050506040513d6000823e3d601f19601f8201168201806040525060208110156153f257600080fd5b810190808051604051939291908464010000000082111561541257600080fd5b8382019150602082018581111561542857600080fd5b825186600182028301116401000000008211171561544557600080fd5b8083526020830192505050908051906020019080838360005b8381101561547957808201518184015260208101905061545e565b50505050905090810190601f1680156154a65780820380516001836020036101000a031916815260200191505b50604052505050905080915050919050565b6000808260000b13156154e5576154de8260000b600a0a84614efd90919063ffffffff16565b9250615530565b60008260000b121561552f5761552c7fffffffffffffffffffffffffffffffffffffffffffffffffffffffffffffffff830260000b600a0a84614f8390919063ffffffff16565b92505b5b82905092915050565b6155588273ffffffffffffffffffffffffffffffffffffffff16615e3d565b6155ca576040517f08c379a000000000000000000000000000000000000000000000000000000000815260040180806020018281038252601f8152602001807f5361666545524332303a2063616c6c20746f206e6f6e2d636f6e74726163740081525060200191505060405180910390fd5b600060608373ffffffffffffffffffffffffffffffffffffffff16836040518082805190602001908083835b6020831061561957805182526020820191506020810190506020830392506155f6565b6001836020036101000a0380198251168184511680821785525050505050509050019150506000604051808303816000865af19150503d806000811461567b576040519150601f19603f3d011682016040523d82523d6000602084013e615680565b606091505b5091509150816156f8576040517f08c379a00000000000000000000000000000000000000000000000000000000081526004018080602001828103825260208152602001807f5361666545524332303a206c6f772d6c6576656c2063616c6c206661696c656481525060200191505060405180910390fd5b60008151111561577e5780806020019051602081101561571757600080fd5b810190808051906020019092919050505061577d576040517f08c379a000000000000000000000000000000000000000000000000000000000815260040180806020018281038252602a815260200180615f52602a913960400191505060405180910390fd5b5b50505050565b600080905060008090505b603480549050811015615921576000603482815481106157ab57fe5b9060005260206000200160009054906101000a900473ffffffffffffffffffffffffffffffffffffffff169050600061581a603484815481106157ea57fe5b9060005260206000200160009054906101000a900473ffffffffffffffffffffffffffffffffffffffff16613b07565b905060008273ffffffffffffffffffffffffffffffffffffffff166370a08231306040518263ffffffff1660e01b8152600401808273ffffffffffffffffffffffffffffffffffffffff1673ffffffffffffffffffffffffffffffffffffffff16815260200191505060206040518083038186803b15801561589b57600080fd5b505afa1580156158af573d6000803e3d6000fd5b505050506040513d60208110156158c557600080fd5b8101908080519060200190929190505050905060008111156159115761590c8685815181106158f057fe5b602002602001015183600a0a83613c009092919063ffffffff16565b850194505b505050808060010191505061578f565b50919050565b600080905060008090505b603680549050811015615991576159806036828154811061594f57fe5b9060005260206000200160009054906101000a900473ffffffffffffffffffffffffffffffffffffffff1684614bdc565b820191508080600101915050615932565b50919050565b6000809050600080905060008090505b603680549050811015615b47576000603682815481106159c357fe5b9060005260206000200160009054906101000a900473ffffffffffffffffffffffffffffffffffffffff1690508073ffffffffffffffffffffffffffffffffffffffff1663aa388af6876040518263ffffffff1660e01b8152600401808273ffffffffffffffffffffffffffffffffffffffff1673ffffffffffffffffffffffffffffffffffffffff16815260200191505060206040518083038186803b158015615a6d57600080fd5b505afa158015615a81573d6000803e3d6000fd5b505050506040513d6020811015615a9757600080fd5b810190808051906020019092919050505015615b39576000615af060368481548110615abf57fe5b9060005260206000200160009054906101000a900473ffffffffffffffffffffffffffffffffffffffff1687615dcb565b9050838112615b375780935060368381548110615b0957fe5b9060005260206000200160009054906101000a900473ffffffffffffffffffffffffffffffffffffffff1694505b505b5080806001019150506159a7565b505092915050565b60007f7bea13895fa79d2831e0a9e28edede30099005a50d652d8957cf8a607ee6ca4a60001b90508181555050565b600080905060008090505b603480549050811015615c41576000615bd860348381548110615ba857fe5b9060005260206000200160009054906101000a900473ffffffffffffffffffffffffffffffffffffffff16613b07565b9050615c2f81601203615c2160348581548110615bf157fe5b9060005260206000200160009054906101000a900473ffffffffffffffffffffffffffffffffffffffff16614535565b6154b890919063ffffffff16565b83019250508080600101915050615b89565b5090565b60008083118290615cf1576040517f08c379a00000000000000000000000000000000000000000000000000000000081526004018080602001828103825283818151815260200191508051906020019080838360005b83811015615cb6578082015181840152602081019050615c9b565b50505050905090810190601f168015615ce35780820380516001836020036101000a031916815260200191505b509250505060405180910390fd5b506000838581615cfd57fe5b049050809150509392505050565b6000838311158290615db8576040517f08c379a00000000000000000000000000000000000000000000000000000000081526004018080602001828103825283818151815260200191508051906020019080838360005b83811015615d7d578082015181840152602081019050615d62565b50505050905090810190601f168015615daa5780820380516001836020036101000a031916815260200191505b509250505060405180910390fd5b5060008385039050809150509392505050565b6000615df1615dd983614bc0565b615de38585614bdc565b614e7590919063ffffffff16565b603560008573ffffffffffffffffffffffffffffffffffffffff1673ffffffffffffffffffffffffffffffffffffffff1681526020019081526020016000206001015403905092915050565b60008060007fc5d2460186f7233c927e7db2dcc703c0e500b653ca82273b7bfad8045d85a47060001b9050833f9150808214158015615e7f57506000801b8214155b92505050919050565b815481835581811115615eaf57818360005260206000209182019101615eae9190615eb4565b5b505050565b615ed691905b80821115615ed2576000816000905550600101615eba565b5090565b9056fe546f6b656e206d75737420686176652073756666696369656e7420646563696d616c20706c61636573536166654d6174683a206d756c7469706c69636174696f6e206f766572666c6f77436f6e747261637420696e7374616e63652068617320616c7265616479206265656e20696e697469616c697a65645361666545524332303a204552433230206f7065726174696f6e20646964206e6f7420737563636565644f6e6c79207468652070656e64696e6720476f7665726e6f722063616e20636f6d706c6574652074686520636c61696da265627a7a7231582022c4fdc7f6092463eb3750a4d4d148ca9c4b50e80bfc1506c22c2764395c447864736f6c634300050b0032",
  "devdoc": {
    "methods": {
      "addStrategy(address,uint256)": {
        "details": "Add a strategy to the Vault.",
        "params": {
          "_addr": "Address of the strategy to add",
          "_targetWeight": "Target percentage of asset allocation to strategy"
        }
      },
      "allocate()": {
        "details": "Allocate unallocated funds on Vault to strategies.*"
      },
      "checkBalance(address)": {
        "params": {
          "_asset": "Address of asset"
        },
        "return": "uint256 Balance of asset in decimals of asset"
      },
      "claimGovernance()": {
        "details": "Claim Governance of the contract to a new account (`newGovernor`). Can only be called by the new Governor."
      },
      "getAPR()": {
        "details": "Get the total APR of the Vault and all Strategies."
      },
      "getAllAssets()": {
        "details": "Return all asset addresses in order"
      },
      "getAssetCount()": {
        "details": "Return the number of assets suppported by the Vault."
      },
      "getStrategyCount()": {
        "details": "Return the number of strategies active on the Vault."
      },
      "governor()": {
        "details": "Returns the address of the current Governor."
      },
      "isGovernor()": {
        "details": "Returns true if the caller is the current Governor."
      },
      "isSupportedAsset(address)": {
        "details": "Determines if an asset is supported by the vault.",
        "params": {
          "_asset": "Address of the asset"
        }
      },
      "mint(address,uint256)": {
        "details": "Deposit a supported asset and mint OUSD.",
        "params": {
          "_amount": "Amount of the asset being deposited",
          "_asset": "Address of the asset being deposited"
        }
      },
      "mintMultiple(address[],uint256[])": {
        "details": "Mint for multiple assets in the same call.",
        "params": {
          "_amounts": "Amount of each asset at the same index in the _assets                to deposit.",
          "_assets": "Addresses of assets being deposited"
        }
      },
      "pauseDeposits()": {
        "details": "Set the deposit paused flag to true to prevent deposits."
      },
      "pauseRebase()": {
        "details": "Set the deposit paused flag to true to prevent rebasing."
      },
      "priceUSDMint(string)": {
        "details": "Returns the total price in 18 digit USD for a given asset.     Using Min since min is what we use for mint pricing",
        "params": {
          "symbol": "String symbol of the asset"
        },
        "return": "uint256 USD price of 1 of the asset"
      },
      "priceUSDRedeem(string)": {
        "details": "Returns the total price in 18 digit USD for a given asset.     Using Max since max is what we use for redeem pricing",
        "params": {
          "symbol": "String symbol of the asset"
        },
        "return": "uint256 USD price of 1 of the asset"
      },
      "rebase()": {
        "details": "Calculate the total value of assets held by the Vault and all        strategies and update the supply of oUSD"
      },
      "redeem(uint256)": {
        "details": "Withdraw a supported asset and burn OUSD.",
        "params": {
          "_amount": "Amount of OUSD to burn"
        }
      },
      "removeStrategy(address)": {
        "details": "Remove a strategy from the Vault. Removes all invested assets and returns them to the Vault.",
        "params": {
          "_addr": "Address of the strategy to remove"
        }
      },
      "setAutoAllocateThreshold(uint256)": {
        "details": "Sets the minimum amount of OUSD in a mint to trigger an automatic allocation of funds afterwords.",
        "params": {
          "_threshold": "OUSD amount with 18 fixed decimals."
        }
      },
      "setPriceProvider(address)": {
        "details": "Set address of price provider.",
        "params": {
          "_priceProvider": "Address of price provider"
        }
      },
      "setRebaseThreshold(uint256)": {
        "details": "Set a minimum amount of OUSD in a mint or redeem that triggers a rebase",
        "params": {
          "_threshold": "OUSD amount with 18 fixed decimals."
        }
      },
      "setRedeemFeeBps(uint256)": {
        "details": "Set a fee in basis points to be charged for a redeem.",
        "params": {
          "_redeemFeeBps": "Basis point fee to be charged"
        }
      },
      "setStrategyWeights(address[],uint256[])": {
        "params": {
          "_strategyAddresses": "Array of strategy addresses",
          "_weights": "Array of corresponding weights, with 18 decimals.                For ex. 100%=1e18, 30%=3e17."
        }
      },
      "setVaultBuffer(uint256)": {
        "details": "Set a buffer of assets to keep in the Vault to handle most redemptions without needing to spend gas unwinding assets from a Strategy.",
        "params": {
          "_vaultBuffer": "Percentage using 18 decimals. 100% = 1e18."
        }
      },
      "supportAsset(address)": {
        "details": "Add a supported asset to the contract, i.e. one that can be        to mint OUSD.",
        "params": {
          "_asset": "Address of asset"
        }
      },
      "totalValue()": {
        "details": "Determine the total value of assets held by the vault and its        strategies.",
        "return": "uint256 value Total value in USD (1e18)"
      },
      "transferGovernance(address)": {
        "details": "Transfers Governance of the contract to a new account (`newGovernor`). Can only be called by the current Governor. Must be claimed for this to complete",
        "params": {
          "_newGovernor": "Address of the new Governor"
        }
      },
      "transferToken(address,uint256)": {
        "details": "Transfer token to governor. Intended for recovering tokens stuck in     contract, i.e. mistaken sends.",
        "params": {
          "_amount": "Amount of the asset to transfer",
          "_asset": "Address for the asset"
        }
      },
      "unpauseDeposits()": {
        "details": "Set the deposit paused flag to false to enable deposits."
      },
      "unpauseRebase()": {
        "details": "Set the deposit paused flag to true to allow rebasing."
      }
    }
  },
  "userdoc": {
    "methods": {
      "allocate()": {
        "notice": "Allocate unallocated funds on Vault to strategies."
      },
      "calculateRedeemOutputs(uint256)": {
        "notice": "Calculate the outputs for a redeem function, i.e. the mix of coins that will be returned"
      },
      "checkBalance(address)": {
        "notice": "Get the balance of an asset held in Vault and all strategies."
      },
      "redeemAll()": {
        "notice": "Withdraw a supported asset and burn all OUSD."
      },
      "setStrategyWeights(address[],uint256[])": {
        "notice": "Set the weights for multiple strategies."
      }
    }
  },
  "gasEstimates": {
    "creation": {
      "codeDepositCost": "4908800",
      "executionCost": "infinite",
      "totalCost": "infinite"
    },
    "external": {
      "addStrategy(address,uint256)": "83135",
      "allocate()": "infinite",
      "autoAllocateThreshold()": "472",
      "calculateRedeemOutputs(uint256)": "infinite",
      "checkBalance(address)": "infinite",
      "claimGovernance()": "infinite",
      "depositPaused()": "572",
      "getAPR()": "infinite",
      "getAllAssets()": "infinite",
      "getAssetCount()": "510",
      "getStrategyCount()": "511",
      "governor()": "525",
      "initialize(address,address)": "infinite",
      "isGovernor()": "629",
      "isSupportedAsset(address)": "695",
      "mint(address,uint256)": "infinite",
      "mintMultiple(address[],uint256[])": "infinite",
      "pauseDeposits()": "21608",
      "pauseRebase()": "20895",
      "priceProvider()": "520",
      "priceUSDMint(string)": "infinite",
      "priceUSDRedeem(string)": "infinite",
      "rebase()": "infinite",
      "rebasePaused()": "636",
      "rebaseThreshold()": "516",
      "redeem(uint256)": "infinite",
      "redeemAll()": "infinite",
      "redeemFeeBps()": "540",
      "removeStrategy(address)": "infinite",
      "setAutoAllocateThreshold(uint256)": "20610",
      "setPriceProvider(address)": "20936",
      "setRebaseThreshold(uint256)": "20654",
      "setRedeemFeeBps(uint256)": "20719",
      "setStrategyWeights(address[],uint256[])": "infinite",
      "setVaultBuffer(uint256)": "20699",
      "supportAsset(address)": "63068",
      "totalValue()": "infinite",
      "transferGovernance(address)": "infinite",
      "transferToken(address,uint256)": "infinite",
      "unpauseDeposits()": "21629",
      "unpauseRebase()": "20897",
      "vaultBuffer()": "517"
    },
    "internal": {
      "_calculateRedeemOutputs(uint256)": "infinite",
      "_checkBalance()": "infinite",
      "_checkBalance(address)": "infinite",
      "_getAssetPrices(bool)": "infinite",
      "_priceUSDMint(string memory)": "infinite",
      "_priceUSDRedeem(string memory)": "infinite",
      "_selectDepositStrategyAddr(address,uint256[] memory)": "infinite",
      "_selectWithdrawStrategyAddr(address,uint256,uint256[] memory)": "infinite",
      "_strategyWeightDifference(address,uint256[] memory)": "infinite",
      "_totalValue(uint256[] memory)": "infinite",
      "_totalValueInStrategies(uint256[] memory)": "infinite",
      "_totalValueInStrategy(address,uint256[] memory)": "infinite",
      "_totalValueInVault(uint256[] memory)": "infinite",
      "allocate(uint256[] memory)": "infinite",
      "rebase(uint256[] memory)": "infinite"
    }
  }
}