{
  "address": "0xFC678A3E837E85168A8f1C77E9ddbfe2a77fa961",
  "abi": [
    {
      "inputs": [],
      "stateMutability": "nonpayable",
      "type": "constructor"
    },
    {
      "anonymous": false,
      "inputs": [
        {
          "indexed": true,
          "internalType": "address",
          "name": "owner",
          "type": "address"
        },
        {
          "indexed": true,
          "internalType": "address",
          "name": "spender",
          "type": "address"
        },
        {
          "indexed": false,
          "internalType": "uint256",
          "name": "value",
          "type": "uint256"
        }
      ],
      "name": "Approval",
      "type": "event"
    },
    {
      "anonymous": false,
      "inputs": [
        {
          "indexed": true,
          "internalType": "address",
          "name": "previousGovernor",
          "type": "address"
        },
        {
          "indexed": true,
          "internalType": "address",
          "name": "newGovernor",
          "type": "address"
        }
      ],
      "name": "GovernorshipTransferred",
      "type": "event"
    },
    {
      "anonymous": false,
      "inputs": [
        {
          "indexed": true,
          "internalType": "address",
          "name": "previousGovernor",
          "type": "address"
        },
        {
          "indexed": true,
          "internalType": "address",
          "name": "newGovernor",
          "type": "address"
        }
      ],
      "name": "PendingGovernorshipTransfer",
      "type": "event"
    },
    {
      "anonymous": false,
      "inputs": [
        {
          "indexed": true,
          "internalType": "bytes32",
          "name": "role",
          "type": "bytes32"
        },
        {
          "indexed": true,
          "internalType": "bytes32",
          "name": "previousAdminRole",
          "type": "bytes32"
        },
        {
          "indexed": true,
          "internalType": "bytes32",
          "name": "newAdminRole",
          "type": "bytes32"
        }
      ],
      "name": "RoleAdminChanged",
      "type": "event"
    },
    {
      "anonymous": false,
      "inputs": [
        {
          "indexed": true,
          "internalType": "bytes32",
          "name": "role",
          "type": "bytes32"
        },
        {
          "indexed": true,
          "internalType": "address",
          "name": "account",
          "type": "address"
        },
        {
          "indexed": true,
          "internalType": "address",
          "name": "sender",
          "type": "address"
        }
      ],
      "name": "RoleGranted",
      "type": "event"
    },
    {
      "anonymous": false,
      "inputs": [
        {
          "indexed": true,
          "internalType": "bytes32",
          "name": "role",
          "type": "bytes32"
        },
        {
          "indexed": true,
          "internalType": "address",
          "name": "account",
          "type": "address"
        },
        {
          "indexed": true,
          "internalType": "address",
          "name": "sender",
          "type": "address"
        }
      ],
      "name": "RoleRevoked",
      "type": "event"
    },
    {
      "anonymous": false,
      "inputs": [
        {
          "indexed": true,
          "internalType": "address",
          "name": "from",
          "type": "address"
        },
        {
          "indexed": true,
          "internalType": "address",
          "name": "to",
          "type": "address"
        },
        {
          "indexed": false,
          "internalType": "uint256",
          "name": "value",
          "type": "uint256"
        }
      ],
      "name": "Transfer",
      "type": "event"
    },
    {
      "inputs": [],
      "name": "BURNER_ROLE",
      "outputs": [
        {
          "internalType": "bytes32",
          "name": "",
          "type": "bytes32"
        }
      ],
      "stateMutability": "view",
      "type": "function"
    },
    {
      "inputs": [],
      "name": "DEFAULT_ADMIN_ROLE",
      "outputs": [
        {
          "internalType": "bytes32",
          "name": "",
          "type": "bytes32"
        }
      ],
      "stateMutability": "view",
      "type": "function"
    },
    {
      "inputs": [],
      "name": "MINTER_ROLE",
      "outputs": [
        {
          "internalType": "bytes32",
          "name": "",
          "type": "bytes32"
        }
      ],
      "stateMutability": "view",
      "type": "function"
    },
    {
      "inputs": [
        {
          "internalType": "address",
          "name": "owner",
          "type": "address"
        },
        {
          "internalType": "address",
          "name": "spender",
          "type": "address"
        }
      ],
      "name": "allowance",
      "outputs": [
        {
          "internalType": "uint256",
          "name": "",
          "type": "uint256"
        }
      ],
      "stateMutability": "view",
      "type": "function"
    },
    {
      "inputs": [
        {
          "internalType": "address",
          "name": "spender",
          "type": "address"
        },
        {
          "internalType": "uint256",
          "name": "amount",
          "type": "uint256"
        }
      ],
      "name": "approve",
      "outputs": [
        {
          "internalType": "bool",
          "name": "",
          "type": "bool"
        }
      ],
      "stateMutability": "nonpayable",
      "type": "function"
    },
    {
      "inputs": [
        {
          "internalType": "address",
          "name": "account",
          "type": "address"
        }
      ],
      "name": "balanceOf",
      "outputs": [
        {
          "internalType": "uint256",
          "name": "",
          "type": "uint256"
        }
      ],
      "stateMutability": "view",
      "type": "function"
    },
    {
      "inputs": [
        {
          "internalType": "uint256",
          "name": "amount",
          "type": "uint256"
        }
      ],
      "name": "burn",
      "outputs": [],
      "stateMutability": "nonpayable",
      "type": "function"
    },
    {
      "inputs": [
        {
          "internalType": "address",
          "name": "account",
          "type": "address"
        },
        {
          "internalType": "uint256",
          "name": "amount",
          "type": "uint256"
        }
      ],
      "name": "burn",
      "outputs": [],
      "stateMutability": "nonpayable",
      "type": "function"
    },
    {
      "inputs": [],
      "name": "claimGovernance",
      "outputs": [],
      "stateMutability": "nonpayable",
      "type": "function"
    },
    {
      "inputs": [],
      "name": "decimals",
      "outputs": [
        {
          "internalType": "uint8",
          "name": "",
          "type": "uint8"
        }
      ],
      "stateMutability": "view",
      "type": "function"
    },
    {
      "inputs": [
        {
          "internalType": "address",
          "name": "spender",
          "type": "address"
        },
        {
          "internalType": "uint256",
          "name": "subtractedValue",
          "type": "uint256"
        }
      ],
      "name": "decreaseAllowance",
      "outputs": [
        {
          "internalType": "bool",
          "name": "",
          "type": "bool"
        }
      ],
      "stateMutability": "nonpayable",
      "type": "function"
    },
    {
      "inputs": [
        {
          "internalType": "bytes32",
          "name": "role",
          "type": "bytes32"
        }
      ],
      "name": "getRoleAdmin",
      "outputs": [
        {
          "internalType": "bytes32",
          "name": "",
          "type": "bytes32"
        }
      ],
      "stateMutability": "view",
      "type": "function"
    },
    {
      "inputs": [
        {
          "internalType": "bytes32",
          "name": "role",
          "type": "bytes32"
        },
        {
          "internalType": "uint256",
          "name": "index",
          "type": "uint256"
        }
      ],
      "name": "getRoleMember",
      "outputs": [
        {
          "internalType": "address",
          "name": "",
          "type": "address"
        }
      ],
      "stateMutability": "view",
      "type": "function"
    },
    {
      "inputs": [
        {
          "internalType": "bytes32",
          "name": "role",
          "type": "bytes32"
        }
      ],
      "name": "getRoleMemberCount",
      "outputs": [
        {
          "internalType": "uint256",
          "name": "",
          "type": "uint256"
        }
      ],
      "stateMutability": "view",
      "type": "function"
    },
    {
      "inputs": [],
      "name": "governor",
      "outputs": [
        {
          "internalType": "address",
          "name": "",
          "type": "address"
        }
      ],
      "stateMutability": "view",
      "type": "function"
    },
    {
      "inputs": [
        {
          "internalType": "bytes32",
          "name": "role",
          "type": "bytes32"
        },
        {
          "internalType": "address",
          "name": "account",
          "type": "address"
        }
      ],
      "name": "grantRole",
      "outputs": [],
      "stateMutability": "nonpayable",
      "type": "function"
    },
    {
      "inputs": [
        {
          "internalType": "bytes32",
          "name": "role",
          "type": "bytes32"
        },
        {
          "internalType": "address",
          "name": "account",
          "type": "address"
        }
      ],
      "name": "hasRole",
      "outputs": [
        {
          "internalType": "bool",
          "name": "",
          "type": "bool"
        }
      ],
      "stateMutability": "view",
      "type": "function"
    },
    {
      "inputs": [
        {
          "internalType": "address",
          "name": "spender",
          "type": "address"
        },
        {
          "internalType": "uint256",
          "name": "addedValue",
          "type": "uint256"
        }
      ],
      "name": "increaseAllowance",
      "outputs": [
        {
          "internalType": "bool",
          "name": "",
          "type": "bool"
        }
      ],
      "stateMutability": "nonpayable",
      "type": "function"
    },
    {
      "inputs": [],
      "name": "initialize",
      "outputs": [],
      "stateMutability": "nonpayable",
      "type": "function"
    },
    {
      "inputs": [],
      "name": "isGovernor",
      "outputs": [
        {
          "internalType": "bool",
          "name": "",
          "type": "bool"
        }
      ],
      "stateMutability": "view",
      "type": "function"
    },
    {
      "inputs": [
        {
          "internalType": "address",
          "name": "account",
          "type": "address"
        },
        {
          "internalType": "uint256",
          "name": "amount",
          "type": "uint256"
        }
      ],
      "name": "mint",
      "outputs": [],
      "stateMutability": "nonpayable",
      "type": "function"
    },
    {
      "inputs": [],
      "name": "name",
      "outputs": [
        {
          "internalType": "string",
          "name": "",
          "type": "string"
        }
      ],
      "stateMutability": "view",
      "type": "function"
    },
    {
      "inputs": [
        {
          "internalType": "bytes32",
          "name": "role",
          "type": "bytes32"
        },
        {
          "internalType": "address",
          "name": "account",
          "type": "address"
        }
      ],
      "name": "renounceRole",
      "outputs": [],
      "stateMutability": "nonpayable",
      "type": "function"
    },
    {
      "inputs": [
        {
          "internalType": "bytes32",
          "name": "role",
          "type": "bytes32"
        },
        {
          "internalType": "address",
          "name": "account",
          "type": "address"
        }
      ],
      "name": "revokeRole",
      "outputs": [],
      "stateMutability": "nonpayable",
      "type": "function"
    },
    {
      "inputs": [
        {
          "internalType": "bytes4",
          "name": "interfaceId",
          "type": "bytes4"
        }
      ],
      "name": "supportsInterface",
      "outputs": [
        {
          "internalType": "bool",
          "name": "",
          "type": "bool"
        }
      ],
      "stateMutability": "view",
      "type": "function"
    },
    {
      "inputs": [],
      "name": "symbol",
      "outputs": [
        {
          "internalType": "string",
          "name": "",
          "type": "string"
        }
      ],
      "stateMutability": "view",
      "type": "function"
    },
    {
      "inputs": [],
      "name": "totalSupply",
      "outputs": [
        {
          "internalType": "uint256",
          "name": "",
          "type": "uint256"
        }
      ],
      "stateMutability": "view",
      "type": "function"
    },
    {
      "inputs": [
        {
          "internalType": "address",
          "name": "recipient",
          "type": "address"
        },
        {
          "internalType": "uint256",
          "name": "amount",
          "type": "uint256"
        }
      ],
      "name": "transfer",
      "outputs": [
        {
          "internalType": "bool",
          "name": "",
          "type": "bool"
        }
      ],
      "stateMutability": "nonpayable",
      "type": "function"
    },
    {
      "inputs": [
        {
          "internalType": "address",
          "name": "sender",
          "type": "address"
        },
        {
          "internalType": "address",
          "name": "recipient",
          "type": "address"
        },
        {
          "internalType": "uint256",
          "name": "amount",
          "type": "uint256"
        }
      ],
      "name": "transferFrom",
      "outputs": [
        {
          "internalType": "bool",
          "name": "",
          "type": "bool"
        }
      ],
      "stateMutability": "nonpayable",
      "type": "function"
    },
    {
      "inputs": [
        {
          "internalType": "address",
          "name": "_newGovernor",
          "type": "address"
        }
      ],
      "name": "transferGovernance",
      "outputs": [],
      "stateMutability": "nonpayable",
      "type": "function"
    }
  ],
  "transactionHash": "0xd697daf9fb78e46fb14d910c2be6ba0831be844df5c51eaed5f6ed6eb6b63c31",
  "args": [],
  "numDeployments": 1,
  "solcInputHash": "1de920a6f7745b41210ffc9b95bb7627",
  "bytecode": "0x608060405234801561001057600080fd5b506040518060400160405280600c81526020016b0aee4c2e0e0cac8409e8aa8960a31b815250604051806040016040528060058152602001640ee9e8aa8960db1b8152508160389081610063919061018e565b506039610070828261018e565b505050610083600061008860201b60201c565b61024c565b6001600160a01b0381166100a8600080516020611c798339815191525490565b6001600160a01b03167fc7c0c772add429241571afb3805861fb3cfa2af374534088b76cdb4325a87e9a60405160405180910390a3600080516020611c7983398151915255565b634e487b7160e01b600052604160045260246000fd5b600181811c9082168061011957607f821691505b60208210810361013957634e487b7160e01b600052602260045260246000fd5b50919050565b601f82111561018957806000526020600020601f840160051c810160208510156101665750805b601f840160051c820191505b818110156101865760008155600101610172565b50505b505050565b81516001600160401b038111156101a7576101a76100ef565b6101bb816101b58454610105565b8461013f565b6020601f8211600181146101ef57600083156101d75750848201515b600019600385901b1c1916600184901b178455610186565b600084815260208120601f198516915b8281101561021f57878501518255602094850194600190920191016101ff565b508482101561023d5786840151600019600387901b60f8161c191681555b50505050600190811b01905550565b611a1e8061025b6000396000f3fe608060405234801561001057600080fd5b50600436106101da5760003560e01c806370a0823111610104578063a457c2d7116100a2578063d38bfff411610071578063d38bfff414610426578063d539139314610439578063d547741f14610460578063dd62ed3e1461047357600080fd5b8063a457c2d7146103e5578063a9059cbb146103f8578063c7af33521461040b578063ca15c8731461041357600080fd5b806391d14854116100de57806391d148541461039657806395d89b41146103a95780639dc29fac146103ca578063a217fddf146103dd57600080fd5b806370a08231146103525780638129fc1c1461037b5780639010d07c1461038357600080fd5b8063282c51f31161017c578063395093511161014b578063395093511461031157806340c10f191461032457806342966c68146103375780635d36b1901461034a57600080fd5b8063282c51f3146102b35780632f2ff15d146102da578063313ce567146102ef57806336568abe146102fe57600080fd5b80630c340a24116101b85780630c340a241461024b57806318160ddd1461026b57806323b872dd1461027d578063248a9ca31461029057600080fd5b806301ffc9a7146101df57806306fdde0314610207578063095ea7b314610238575b600080fd5b6101f26101ed3660046116cf565b6104ac565b60405190151581526020015b60405180910390f35b60408051808201909152600c81526b0aee4c2e0e0cac8409e8aa8960a31b60208201525b6040516101fe919061171d565b6101f261024636600461176c565b6104d7565b6102536104ed565b6040516001600160a01b0390911681526020016101fe565b6037545b6040519081526020016101fe565b6101f261028b366004611796565b61050a565b61026f61029e3660046117d3565b60009081526020819052604090206001015490565b61026f7f3c11d16cbaffd01df69ce1c404f6340ee057498f5f00246190ea54220576a84881565b6102ed6102e83660046117ec565b6105b9565b005b604051601281526020016101fe565b6102ed61030c3660046117ec565b6105e4565b6101f261031f36600461176c565b610662565b6102ed61033236600461176c565b61069e565b6102ed6103453660046117d3565b610725565b6102ed6107ab565b61026f610360366004611818565b6001600160a01b031660009081526035602052604090205490565b6102ed610851565b610253610391366004611833565b610924565b6101f26103a43660046117ec565b610943565b6040805180820190915260058152640ee9e8aa8960db1b602082015261022b565b6102ed6103d836600461176c565b61096c565b61026f600081565b6101f26103f336600461176c565b6109e9565b6101f261040636600461176c565b610a82565b6101f2610a8f565b61026f6104213660046117d3565b610ac0565b6102ed610434366004611818565b610ad7565b61026f7f9f2df0fed2c77648de5860a4cc508cd0818c85b8b8a1ab4ceeef8d981c8956a681565b6102ed61046e3660046117ec565b610bab565b61026f610481366004611855565b6001600160a01b03918216600090815260366020908152604080832093909416825291909152205490565b60006001600160e01b03198216635a05180f60e01b14806104d157506104d182610bd1565b92915050565b60006104e4338484610c06565b50600192915050565b60006105056000805160206119c98339815191525490565b905090565b6000610517848484610d2a565b6001600160a01b0384166000908152603660209081526040808320338452909152902054828110156105a15760405162461bcd60e51b815260206004820152602860248201527f45524332303a207472616e7366657220616d6f756e74206578636565647320616044820152676c6c6f77616e636560c01b60648201526084015b60405180910390fd5b6105ae8533858403610c06565b506001949350505050565b6000828152602081905260409020600101546105d58133610ef9565b6105df8383610f5d565b505050565b6001600160a01b03811633146106545760405162461bcd60e51b815260206004820152602f60248201527f416363657373436f6e74726f6c3a2063616e206f6e6c792072656e6f756e636560448201526e103937b632b9903337b91039b2b63360891b6064820152608401610598565b61065e8282610f7f565b5050565b3360008181526036602090815260408083206001600160a01b038716845290915281205490916104e4918590610699908690611895565b610c06565b7f9f2df0fed2c77648de5860a4cc508cd0818c85b8b8a1ab4ceeef8d981c8956a66106c98133610ef9565b7f53bf423e48ed90e97d02ab0ebab13b2a235a6bfbe9c321847d5c175333ac45358054600119810161070d5760405162461bcd60e51b8152600401610598906118a8565b6002825561071b8585610fa1565b5060019055505050565b7f3c11d16cbaffd01df69ce1c404f6340ee057498f5f00246190ea54220576a8486107508133610ef9565b7f53bf423e48ed90e97d02ab0ebab13b2a235a6bfbe9c321847d5c175333ac4535805460011981016107945760405162461bcd60e51b8152600401610598906118a8565b600282556107a23385611080565b50600190555050565b7f44c4d30b2eaad5130ad70c3ba6972730566f3e6359ab83e800d905c61b1c51db546001600160a01b0316336001600160a01b0316146108465760405162461bcd60e51b815260206004820152603060248201527f4f6e6c79207468652070656e64696e6720476f7665726e6f722063616e20636f60448201526f6d706c6574652074686520636c61696d60801b6064820152608401610598565b61084f336111ce565b565b600254610100900460ff168061086a575060025460ff16155b6108cd5760405162461bcd60e51b815260206004820152602e60248201527f496e697469616c697a61626c653a20636f6e747261637420697320616c72656160448201526d191e481a5b9a5d1a585b1a5e995960921b6064820152608401610598565b600254610100900460ff161580156108ef576002805461ffff19166101011790555b61090f600061090a6000805160206119c98339815191525490565b61122d565b8015610921576002805461ff00191690555b50565b600082815260016020526040812061093c9083611237565b9392505050565b6000918252602082815260408084206001600160a01b0393909316845291905290205460ff1690565b7f3c11d16cbaffd01df69ce1c404f6340ee057498f5f00246190ea54220576a8486109978133610ef9565b7f53bf423e48ed90e97d02ab0ebab13b2a235a6bfbe9c321847d5c175333ac4535805460011981016109db5760405162461bcd60e51b8152600401610598906118a8565b6002825561071b8585611080565b3360009081526036602090815260408083206001600160a01b038616845290915281205482811015610a6b5760405162461bcd60e51b815260206004820152602560248201527f45524332303a2064656372656173656420616c6c6f77616e63652062656c6f77604482015264207a65726f60d81b6064820152608401610598565b610a783385858403610c06565b5060019392505050565b60006104e4338484610d2a565b6000610aa76000805160206119c98339815191525490565b6001600160a01b0316336001600160a01b031614905090565b60008181526001602052604081206104d190611243565b610adf610a8f565b610b2b5760405162461bcd60e51b815260206004820152601a60248201527f43616c6c6572206973206e6f742074686520476f7665726e6f720000000000006044820152606401610598565b610b53817f44c4d30b2eaad5130ad70c3ba6972730566f3e6359ab83e800d905c61b1c51db55565b806001600160a01b0316610b736000805160206119c98339815191525490565b6001600160a01b03167fa39cc5eb22d0f34d8beaefee8a3f17cc229c1a1d1ef87a5ad47313487b1c4f0d60405160405180910390a350565b600082815260208190526040902060010154610bc78133610ef9565b6105df8383610f7f565b60006001600160e01b03198216637965db0b60e01b14806104d157506301ffc9a760e01b6001600160e01b03198316146104d1565b6001600160a01b038316610c685760405162461bcd60e51b8152602060048201526024808201527f45524332303a20617070726f76652066726f6d20746865207a65726f206164646044820152637265737360e01b6064820152608401610598565b6001600160a01b038216610cc95760405162461bcd60e51b815260206004820152602260248201527f45524332303a20617070726f766520746f20746865207a65726f206164647265604482015261737360f01b6064820152608401610598565b6001600160a01b0383811660008181526036602090815260408083209487168084529482529182902085905590518481527f8c5be1e5ebec7d5bd14f71427d1e84f3dd0314c0f7b2291e5b200ac8c7c3b925910160405180910390a3505050565b6001600160a01b038316610d8e5760405162461bcd60e51b815260206004820152602560248201527f45524332303a207472616e736665722066726f6d20746865207a65726f206164604482015264647265737360d81b6064820152608401610598565b6001600160a01b038216610df05760405162461bcd60e51b815260206004820152602360248201527f45524332303a207472616e7366657220746f20746865207a65726f206164647260448201526265737360e81b6064820152608401610598565b6001600160a01b03831660009081526035602052604090205481811015610e685760405162461bcd60e51b815260206004820152602660248201527f45524332303a207472616e7366657220616d6f756e7420657863656564732062604482015265616c616e636560d01b6064820152608401610598565b6001600160a01b03808516600090815260356020526040808220858503905591851681529081208054849290610e9f908490611895565b92505081905550826001600160a01b0316846001600160a01b03167fddf252ad1be2c89b69c2b068fc378daa952ba7f163c4a11628f55a4df523b3ef84604051610eeb91815260200190565b60405180910390a350505050565b610f038282610943565b61065e57610f1b816001600160a01b0316601461124d565b610f2683602061124d565b604051602001610f379291906118d0565b60408051601f198184030181529082905262461bcd60e51b82526105989160040161171d565b610f6782826113e9565b60008281526001602052604090206105df908261146d565b610f898282611482565b60008281526001602052604090206105df90826114e7565b6001600160a01b038216610ff75760405162461bcd60e51b815260206004820152601f60248201527f45524332303a206d696e7420746f20746865207a65726f2061646472657373006044820152606401610598565b80603760008282546110099190611895565b90915550506001600160a01b03821660009081526035602052604081208054839290611036908490611895565b90915550506040518181526001600160a01b038316906000907fddf252ad1be2c89b69c2b068fc378daa952ba7f163c4a11628f55a4df523b3ef9060200160405180910390a35050565b6001600160a01b0382166110e05760405162461bcd60e51b815260206004820152602160248201527f45524332303a206275726e2066726f6d20746865207a65726f206164647265736044820152607360f81b6064820152608401610598565b6001600160a01b038216600090815260356020526040902054818110156111545760405162461bcd60e51b815260206004820152602260248201527f45524332303a206275726e20616d6f756e7420657863656564732062616c616e604482015261636560f01b6064820152608401610598565b6001600160a01b0383166000908152603560205260408120838303905560378054849290611183908490611945565b90915550506040518281526000906001600160a01b038516907fddf252ad1be2c89b69c2b068fc378daa952ba7f163c4a11628f55a4df523b3ef9060200160405180910390a3505050565b6001600160a01b0381166112245760405162461bcd60e51b815260206004820152601a60248201527f4e657720476f7665726e6f7220697320616464726573732830290000000000006044820152606401610598565b610921816114fc565b61065e8282610f5d565b600061093c8383611563565b60006104d1825490565b6060600061125c836002611958565b611267906002611895565b67ffffffffffffffff81111561127f5761127f61196f565b6040519080825280601f01601f1916602001820160405280156112a9576020820181803683370190505b509050600360fc1b816000815181106112c4576112c4611985565b60200101906001600160f81b031916908160001a905350600f60fb1b816001815181106112f3576112f3611985565b60200101906001600160f81b031916908160001a9053506000611317846002611958565b611322906001611895565b90505b600181111561139a576f181899199a1a9b1b9c1cb0b131b232b360811b85600f166010811061135657611356611985565b1a60f81b82828151811061136c5761136c611985565b60200101906001600160f81b031916908160001a90535060049490941c936113938161199b565b9050611325565b50831561093c5760405162461bcd60e51b815260206004820181905260248201527f537472696e67733a20686578206c656e67746820696e73756666696369656e746044820152606401610598565b6113f38282610943565b61065e576000828152602081815260408083206001600160a01b03851684529091529020805460ff191660011790556114293390565b6001600160a01b0316816001600160a01b0316837f2f8788117e7eff1d82e926ec794901d17c78024a50270940304540a733656f0d60405160405180910390a45050565b600061093c836001600160a01b03841661158d565b61148c8282610943565b1561065e576000828152602081815260408083206001600160a01b0385168085529252808320805460ff1916905551339285917ff6391f5c32d9c69d2a47ea670b442974b53935d1edc7fd64eb21e047a839171b9190a45050565b600061093c836001600160a01b0384166115dc565b806001600160a01b031661151c6000805160206119c98339815191525490565b6001600160a01b03167fc7c0c772add429241571afb3805861fb3cfa2af374534088b76cdb4325a87e9a60405160405180910390a36000805160206119c983398151915255565b600082600001828154811061157a5761157a611985565b9060005260206000200154905092915050565b60008181526001830160205260408120546115d4575081546001818101845560008481526020808220909301849055845484825282860190935260409020919091556104d1565b5060006104d1565b600081815260018301602052604081205480156116c5576000611600600183611945565b855490915060009061161490600190611945565b905081811461167957600086600001828154811061163457611634611985565b906000526020600020015490508087600001848154811061165757611657611985565b6000918252602080832090910192909255918252600188019052604090208390555b855486908061168a5761168a6119b2565b6001900381819060005260206000200160009055905585600101600086815260200190815260200160002060009055600193505050506104d1565b60009150506104d1565b6000602082840312156116e157600080fd5b81356001600160e01b03198116811461093c57600080fd5b60005b838110156117145781810151838201526020016116fc565b50506000910152565b602081526000825180602084015261173c8160408501602087016116f9565b601f01601f19169190910160400192915050565b80356001600160a01b038116811461176757600080fd5b919050565b6000806040838503121561177f57600080fd5b61178883611750565b946020939093013593505050565b6000806000606084860312156117ab57600080fd5b6117b484611750565b92506117c260208501611750565b929592945050506040919091013590565b6000602082840312156117e557600080fd5b5035919050565b600080604083850312156117ff57600080fd5b8235915061180f60208401611750565b90509250929050565b60006020828403121561182a57600080fd5b61093c82611750565b6000806040838503121561184657600080fd5b50508035926020909101359150565b6000806040838503121561186857600080fd5b61187183611750565b915061180f60208401611750565b634e487b7160e01b600052601160045260246000fd5b808201808211156104d1576104d161187f565b6020808252600e908201526d1499595b9d1c985b9d0818d85b1b60921b604082015260600190565b7f416363657373436f6e74726f6c3a206163636f756e74200000000000000000008152600083516119088160178501602088016116f9565b7001034b99036b4b9b9b4b733903937b6329607d1b60179184019182015283516119398160288401602088016116f9565b01602801949350505050565b818103818111156104d1576104d161187f565b80820281158282048414176104d1576104d161187f565b634e487b7160e01b600052604160045260246000fd5b634e487b7160e01b600052603260045260246000fd5b6000816119aa576119aa61187f565b506000190190565b634e487b7160e01b600052603160045260246000fdfe7bea13895fa79d2831e0a9e28edede30099005a50d652d8957cf8a607ee6ca4aa2646970667358221220824ad01ec4d6a4b535d2f5c2eb5b7d1ab8b811d0051b953e9eba3d8bce480d1764736f6c634300081c00337bea13895fa79d2831e0a9e28edede30099005a50d652d8957cf8a607ee6ca4a",
  "libraries": {},
  "devdoc": {
    "events": {
      "Approval(address,address,uint256)": {
        "details": "Emitted when the allowance of a `spender` for an `owner` is set by a call to {approve}. `value` is the new allowance."
      },
      "RoleAdminChanged(bytes32,bytes32,bytes32)": {
        "details": "Emitted when `newAdminRole` is set as ``role``'s admin role, replacing `previousAdminRole` `DEFAULT_ADMIN_ROLE` is the starting admin for all roles, despite {RoleAdminChanged} not being emitted signaling this. _Available since v3.1._"
      },
      "RoleGranted(bytes32,address,address)": {
        "details": "Emitted when `account` is granted `role`. `sender` is the account that originated the contract call, an admin role bearer except when using {AccessControl-_setupRole}."
      },
      "RoleRevoked(bytes32,address,address)": {
        "details": "Emitted when `account` is revoked `role`. `sender` is the account that originated the contract call:   - if using `revokeRole`, it is the admin role bearer   - if using `renounceRole`, it is the role bearer (i.e. `account`)"
      },
      "Transfer(address,address,uint256)": {
        "details": "Emitted when `value` tokens are moved from one account (`from`) to another (`to`). Note that `value` may be zero."
      }
    },
    "kind": "dev",
    "methods": {
      "allowance(address,address)": {
        "details": "See {IERC20-allowance}."
      },
      "approve(address,uint256)": {
        "details": "See {IERC20-approve}. Requirements: - `spender` cannot be the zero address."
      },
      "balanceOf(address)": {
        "details": "See {IERC20-balanceOf}."
      },
      "burn(address,uint256)": {
        "details": "Burns tokens from `account`",
        "params": {
          "account": "Address to burn tokens from",
          "amount": "Amount of tokens to burn"
        }
      },
      "burn(uint256)": {
        "details": "Burns tokens from `msg.sender`",
        "params": {
          "amount": "Amount of tokens to burn"
        }
      },
      "decimals()": {
        "details": "Returns the decimals of the token"
      },
      "decreaseAllowance(address,uint256)": {
        "details": "Atomically decreases the allowance granted to `spender` by the caller. This is an alternative to {approve} that can be used as a mitigation for problems described in {IERC20-approve}. Emits an {Approval} event indicating the updated allowance. Requirements: - `spender` cannot be the zero address. - `spender` must have allowance for the caller of at least `subtractedValue`."
      },
      "getRoleAdmin(bytes32)": {
        "details": "Returns the admin role that controls `role`. See {grantRole} and {revokeRole}. To change a role's admin, use {_setRoleAdmin}."
      },
      "getRoleMember(bytes32,uint256)": {
        "details": "Returns one of the accounts that have `role`. `index` must be a value between 0 and {getRoleMemberCount}, non-inclusive. Role bearers are not sorted in any particular way, and their ordering may change at any point. WARNING: When using {getRoleMember} and {getRoleMemberCount}, make sure you perform all queries on the same block. See the following https://forum.openzeppelin.com/t/iterating-over-elements-on-enumerableset-in-openzeppelin-contracts/2296[forum post] for more information."
      },
      "getRoleMemberCount(bytes32)": {
        "details": "Returns the number of accounts that have `role`. Can be used together with {getRoleMember} to enumerate all bearers of a role."
      },
      "grantRole(bytes32,address)": {
        "details": "Grants `role` to `account`. If `account` had not been already granted `role`, emits a {RoleGranted} event. Requirements: - the caller must have ``role``'s admin role."
      },
      "hasRole(bytes32,address)": {
        "details": "Returns `true` if `account` has been granted `role`."
      },
      "increaseAllowance(address,uint256)": {
        "details": "Atomically increases the allowance granted to `spender` by the caller. This is an alternative to {approve} that can be used as a mitigation for problems described in {IERC20-approve}. Emits an {Approval} event indicating the updated allowance. Requirements: - `spender` cannot be the zero address."
      },
      "initialize()": {
        "details": "Initialize the proxy and set the Governor"
      },
      "mint(address,uint256)": {
        "details": "Mint tokens for `account`",
        "params": {
          "account": "Address to mint tokens for",
          "amount": "Amount of tokens to mint"
        }
      },
      "name()": {
        "details": "Returns the name of the token."
      },
      "renounceRole(bytes32,address)": {
        "details": "Revokes `role` from the calling account. Roles are often managed via {grantRole} and {revokeRole}: this function's purpose is to provide a mechanism for accounts to lose their privileges if they are compromised (such as when a trusted device is misplaced). If the calling account had been revoked `role`, emits a {RoleRevoked} event. Requirements: - the caller must be `account`."
      },
      "revokeRole(bytes32,address)": {
        "details": "Revokes `role` from `account`. If `account` had been granted `role`, emits a {RoleRevoked} event. Requirements: - the caller must have ``role``'s admin role."
      },
      "supportsInterface(bytes4)": {
        "details": "See {IERC165-supportsInterface}."
      },
      "symbol()": {
        "details": "Returns the symbol of the token, usually a shorter version of the name."
      },
      "totalSupply()": {
        "details": "See {IERC20-totalSupply}."
      },
      "transfer(address,uint256)": {
        "details": "See {IERC20-transfer}. Requirements: - `recipient` cannot be the zero address. - the caller must have a balance of at least `amount`."
      },
      "transferFrom(address,address,uint256)": {
        "details": "See {IERC20-transferFrom}. Emits an {Approval} event indicating the updated allowance. This is not required by the EIP. See the note at the beginning of {ERC20}. Requirements: - `sender` and `recipient` cannot be the zero address. - `sender` must have a balance of at least `amount`. - the caller must have allowance for ``sender``'s tokens of at least `amount`."
      },
      "transferGovernance(address)": {
        "params": {
          "_newGovernor": "Address of the new Governor"
        }
      }
    },
    "version": 1
  },
  "userdoc": {
    "kind": "user",
    "methods": {
      "claimGovernance()": {
        "notice": "Claim Governance of the contract to a new account (`newGovernor`). Can only be called by the new Governor."
      },
      "governor()": {
        "notice": "Returns the address of the current Governor."
      },
      "isGovernor()": {
        "notice": "Returns true if the caller is the current Governor."
      },
      "transferGovernance(address)": {
        "notice": "Transfers Governance of the contract to a new account (`newGovernor`). Can only be called by the current Governor. Must be claimed for this to complete"
      }
    },
    "version": 1
  },
  "storageLayout": {
    "storage": [
      {
        "astId": 3970,
        "contract": "contracts/token/BridgedWOETH.sol:BridgedWOETH",
        "label": "_roles",
        "offset": 0,
        "slot": "0",
        "type": "t_mapping(t_bytes32,t_struct(RoleData)3965_storage)"
      },
      {
        "astId": 4273,
        "contract": "contracts/token/BridgedWOETH.sol:BridgedWOETH",
        "label": "_roleMembers",
        "offset": 0,
        "slot": "1",
        "type": "t_mapping(t_bytes32,t_struct(AddressSet)7228_storage)"
      },
      {
        "astId": 58859,
        "contract": "contracts/token/BridgedWOETH.sol:BridgedWOETH",
        "label": "initialized",
        "offset": 0,
        "slot": "2",
        "type": "t_bool"
      },
      {
        "astId": 58862,
        "contract": "contracts/token/BridgedWOETH.sol:BridgedWOETH",
        "label": "initializing",
        "offset": 1,
        "slot": "2",
        "type": "t_bool"
      },
      {
        "astId": 58902,
        "contract": "contracts/token/BridgedWOETH.sol:BridgedWOETH",
        "label": "______gap",
        "offset": 0,
        "slot": "3",
        "type": "t_array(t_uint256)50_storage"
      },
      {
        "astId": 4690,
        "contract": "contracts/token/BridgedWOETH.sol:BridgedWOETH",
        "label": "_balances",
        "offset": 0,
        "slot": "53",
        "type": "t_mapping(t_address,t_uint256)"
      },
      {
        "astId": 4696,
        "contract": "contracts/token/BridgedWOETH.sol:BridgedWOETH",
        "label": "_allowances",
        "offset": 0,
        "slot": "54",
        "type": "t_mapping(t_address,t_mapping(t_address,t_uint256))"
      },
      {
        "astId": 4698,
        "contract": "contracts/token/BridgedWOETH.sol:BridgedWOETH",
        "label": "_totalSupply",
        "offset": 0,
        "slot": "55",
        "type": "t_uint256"
      },
      {
        "astId": 4700,
        "contract": "contracts/token/BridgedWOETH.sol:BridgedWOETH",
        "label": "_name",
        "offset": 0,
        "slot": "56",
        "type": "t_string_storage"
      },
      {
        "astId": 4702,
        "contract": "contracts/token/BridgedWOETH.sol:BridgedWOETH",
        "label": "_symbol",
        "offset": 0,
        "slot": "57",
        "type": "t_string_storage"
      }
    ],
    "types": {
      "t_address": {
        "encoding": "inplace",
        "label": "address",
        "numberOfBytes": "20"
      },
      "t_array(t_bytes32)dyn_storage": {
        "base": "t_bytes32",
        "encoding": "dynamic_array",
        "label": "bytes32[]",
        "numberOfBytes": "32"
      },
      "t_array(t_uint256)50_storage": {
        "base": "t_uint256",
        "encoding": "inplace",
        "label": "uint256[50]",
        "numberOfBytes": "1600"
      },
      "t_bool": {
        "encoding": "inplace",
        "label": "bool",
        "numberOfBytes": "1"
      },
      "t_bytes32": {
        "encoding": "inplace",
        "label": "bytes32",
        "numberOfBytes": "32"
      },
      "t_mapping(t_address,t_bool)": {
        "encoding": "mapping",
        "key": "t_address",
        "label": "mapping(address => bool)",
        "numberOfBytes": "32",
        "value": "t_bool"
      },
      "t_mapping(t_address,t_mapping(t_address,t_uint256))": {
        "encoding": "mapping",
        "key": "t_address",
        "label": "mapping(address => mapping(address => uint256))",
        "numberOfBytes": "32",
        "value": "t_mapping(t_address,t_uint256)"
      },
      "t_mapping(t_address,t_uint256)": {
        "encoding": "mapping",
        "key": "t_address",
        "label": "mapping(address => uint256)",
        "numberOfBytes": "32",
        "value": "t_uint256"
      },
      "t_mapping(t_bytes32,t_struct(AddressSet)7228_storage)": {
        "encoding": "mapping",
        "key": "t_bytes32",
        "label": "mapping(bytes32 => struct EnumerableSet.AddressSet)",
        "numberOfBytes": "32",
        "value": "t_struct(AddressSet)7228_storage"
      },
      "t_mapping(t_bytes32,t_struct(RoleData)3965_storage)": {
        "encoding": "mapping",
        "key": "t_bytes32",
        "label": "mapping(bytes32 => struct AccessControl.RoleData)",
        "numberOfBytes": "32",
        "value": "t_struct(RoleData)3965_storage"
      },
      "t_mapping(t_bytes32,t_uint256)": {
        "encoding": "mapping",
        "key": "t_bytes32",
        "label": "mapping(bytes32 => uint256)",
        "numberOfBytes": "32",
        "value": "t_uint256"
      },
      "t_string_storage": {
        "encoding": "bytes",
        "label": "string",
        "numberOfBytes": "32"
      },
      "t_struct(AddressSet)7228_storage": {
        "encoding": "inplace",
        "label": "struct EnumerableSet.AddressSet",
        "members": [
          {
            "astId": 7227,
            "contract": "contracts/token/BridgedWOETH.sol:BridgedWOETH",
            "label": "_inner",
            "offset": 0,
            "slot": "0",
            "type": "t_struct(Set)6927_storage"
          }
        ],
        "numberOfBytes": "64"
      },
      "t_struct(RoleData)3965_storage": {
        "encoding": "inplace",
        "label": "struct AccessControl.RoleData",
        "members": [
          {
            "astId": 3962,
            "contract": "contracts/token/BridgedWOETH.sol:BridgedWOETH",
            "label": "members",
            "offset": 0,
            "slot": "0",
            "type": "t_mapping(t_address,t_bool)"
          },
          {
            "astId": 3964,
            "contract": "contracts/token/BridgedWOETH.sol:BridgedWOETH",
            "label": "adminRole",
            "offset": 0,
            "slot": "1",
            "type": "t_bytes32"
          }
        ],
        "numberOfBytes": "64"
      },
      "t_struct(Set)6927_storage": {
        "encoding": "inplace",
        "label": "struct EnumerableSet.Set",
        "members": [
          {
            "astId": 6922,
            "contract": "contracts/token/BridgedWOETH.sol:BridgedWOETH",
            "label": "_values",
            "offset": 0,
            "slot": "0",
            "type": "t_array(t_bytes32)dyn_storage"
          },
          {
            "astId": 6926,
            "contract": "contracts/token/BridgedWOETH.sol:BridgedWOETH",
            "label": "_indexes",
            "offset": 0,
            "slot": "1",
            "type": "t_mapping(t_bytes32,t_uint256)"
          }
        ],
        "numberOfBytes": "64"
      },
      "t_uint256": {
        "encoding": "inplace",
        "label": "uint256",
        "numberOfBytes": "32"
      }
    }
  }
}