{
  "address": "0x3b56c09543D3068f8488ED34e6F383c3854d2bC1",
  "abi": [
    {
      "inputs": [
        {
          "internalType": "address",
          "name": "_vault",
          "type": "address"
        },
        {
          "internalType": "address",
          "name": "_token",
          "type": "address"
        }
      ],
      "stateMutability": "nonpayable",
      "type": "constructor"
    },
    {
      "anonymous": false,
      "inputs": [
        {
          "indexed": false,
          "internalType": "uint192",
          "name": "oldDripRate",
          "type": "uint192"
        },
        {
          "indexed": false,
          "internalType": "uint192",
          "name": "newDripRate",
          "type": "uint192"
        }
      ],
      "name": "DripRateUpdated",
      "type": "event"
    },
    {
      "anonymous": false,
      "inputs": [
        {
          "indexed": true,
          "internalType": "address",
          "name": "previousGovernor",
          "type": "address"
        },
        {
          "indexed": true,
          "internalType": "address",
          "name": "newGovernor",
          "type": "address"
        }
      ],
      "name": "GovernorshipTransferred",
      "type": "event"
    },
    {
      "anonymous": false,
      "inputs": [
        {
          "indexed": true,
          "internalType": "address",
          "name": "previousGovernor",
          "type": "address"
        },
        {
          "indexed": true,
          "internalType": "address",
          "name": "newGovernor",
          "type": "address"
        }
      ],
      "name": "PendingGovernorshipTransfer",
      "type": "event"
    },
    {
      "inputs": [],
      "name": "availableFunds",
      "outputs": [
        {
          "internalType": "uint256",
          "name": "",
          "type": "uint256"
        }
      ],
      "stateMutability": "view",
      "type": "function"
    },
    {
      "inputs": [],
      "name": "claimGovernance",
      "outputs": [],
      "stateMutability": "nonpayable",
      "type": "function"
    },
    {
      "inputs": [],
      "name": "collect",
      "outputs": [],
      "stateMutability": "nonpayable",
      "type": "function"
    },
    {
      "inputs": [],
      "name": "collectAndRebase",
      "outputs": [],
      "stateMutability": "nonpayable",
      "type": "function"
    },
    {
      "inputs": [],
      "name": "drip",
      "outputs": [
        {
          "internalType": "uint64",
          "name": "lastCollect",
          "type": "uint64"
        },
        {
          "internalType": "uint192",
          "name": "perSecond",
          "type": "uint192"
        }
      ],
      "stateMutability": "view",
      "type": "function"
    },
    {
      "inputs": [],
      "name": "dripDuration",
      "outputs": [
        {
          "internalType": "uint256",
          "name": "",
          "type": "uint256"
        }
      ],
      "stateMutability": "view",
      "type": "function"
    },
    {
      "inputs": [],
      "name": "governor",
      "outputs": [
        {
          "internalType": "address",
          "name": "",
          "type": "address"
        }
      ],
      "stateMutability": "view",
      "type": "function"
    },
    {
      "inputs": [],
      "name": "isGovernor",
      "outputs": [
        {
          "internalType": "bool",
          "name": "",
          "type": "bool"
        }
      ],
      "stateMutability": "view",
      "type": "function"
    },
    {
      "inputs": [
        {
          "internalType": "uint256",
          "name": "",
          "type": "uint256"
        }
      ],
      "name": "setDripDuration",
      "outputs": [],
      "stateMutability": "nonpayable",
      "type": "function"
    },
    {
      "inputs": [
        {
          "internalType": "uint192",
          "name": "_perSecond",
          "type": "uint192"
        }
      ],
      "name": "setDripRate",
      "outputs": [],
      "stateMutability": "nonpayable",
      "type": "function"
    },
    {
      "inputs": [
        {
          "internalType": "address",
          "name": "_asset",
          "type": "address"
        },
        {
          "internalType": "address",
          "name": "_receiver",
          "type": "address"
        }
      ],
      "name": "transferAllToken",
      "outputs": [],
      "stateMutability": "nonpayable",
      "type": "function"
    },
    {
      "inputs": [
        {
          "internalType": "address",
          "name": "_newGovernor",
          "type": "address"
        }
      ],
      "name": "transferGovernance",
      "outputs": [],
      "stateMutability": "nonpayable",
      "type": "function"
    },
    {
      "inputs": [
        {
          "internalType": "address",
          "name": "_asset",
          "type": "address"
        },
        {
          "internalType": "uint256",
          "name": "_amount",
          "type": "uint256"
        }
      ],
      "name": "transferToken",
      "outputs": [],
      "stateMutability": "nonpayable",
      "type": "function"
    }
  ],
  "transactionHash": "0x5bbf7212e6b5ac8a7af73739e898b8b2fc72fda72f80d7be67172e1614ef5d58",
  "args": [
    "0xc8c8F8bEA5631A8AF26440AF32a55002138cB76a",
    "0xca59cA09E5602fAe8B629DeE83FfA819741f14be"
  ],
  "numDeployments": 1,
  "solcInputHash": "edae9e0c0d1bc4263e0053595698ab44",
  "bytecode": "0x60c060405234801561001057600080fd5b50604051610fd8380380610fd883398101604081905261002f91610062565b6001600160a01b039182166080521660a052610095565b80516001600160a01b038116811461005d57600080fd5b919050565b6000806040838503121561007557600080fd5b61007e83610046565b915061008c60208401610046565b90509250929050565b60805160a051610f026100d660003960008181610363015281816108b8015261098f0152600081816104c70152818161064301526109b90152610f026000f3fe608060405234801561001057600080fd5b50600436106100cf5760003560e01c80636f9afcc31161008c578063bb7a632e11610066578063bb7a632e146101bb578063c7af3352146101c4578063d38bfff4146101dc578063e5225381146101ef57600080fd5b80636f9afcc31461015257806373796297146101655780639f678cca1461016d57600080fd5b80630493a0fa146100d45780630921e7ef146100e95780630c340a24146100fc5780631072cbea1461012157806346fcff4c146101345780635d36b1901461014a575b600080fd5b6100e76100e2366004610c91565b6101f7565b005b6100e76100f7366004610cbf565b61023d565b6101046102e4565b6040516001600160a01b0390911681526020015b60405180910390f35b6100e761012f366004610cf8565b610301565b61013c610341565b604051908152602001610118565b6100e7610411565b6100e7610160366004610d24565b6104b7565b6100e7610639565b6001546101939067ffffffffffffffff811690600160401b90046001600160c01b031682565b6040805167ffffffffffffffff90931683526001600160c01b03909116602083015201610118565b61013c60005481565b6101cc6106b6565b6040519015158152602001610118565b6100e76101ea366004610d4d565b6106e7565b6100e761078b565b60405162461bcd60e51b8152602060048201526016602482015275111c9a5c08191d5c985d1a5bdb88191a5cd8589b195960521b60448201526064015b60405180910390fd5b6102456106b6565b6102615760405162461bcd60e51b815260040161023490610d6a565b6040516370a0823160e01b81523060048201526102e09082906001600160a01b038516906370a0823190602401602060405180830381865afa1580156102ab573d6000803e3d6000fd5b505050506040513d601f19601f820116820180604052508101906102cf9190610da1565b6001600160a01b0385169190610793565b5050565b60006102fc600080516020610ead8339815191525490565b905090565b6103096106b6565b6103255760405162461bcd60e51b815260040161023490610d6a565b6102e06103306102e4565b6001600160a01b0384169083610793565b6040516370a0823160e01b815230600482015260009081906001600160a01b037f000000000000000000000000000000000000000000000000000000000000000016906370a0823190602401602060405180830381865afa1580156103aa573d6000803e3d6000fd5b505050506040513d601f19601f820116820180604052508101906103ce9190610da1565b6040805180820190915260015467ffffffffffffffff81168252600160401b90046001600160c01b0316602082015290915061040b9082906107ea565b91505090565b7f44c4d30b2eaad5130ad70c3ba6972730566f3e6359ab83e800d905c61b1c51db546001600160a01b0316336001600160a01b0316146104ac5760405162461bcd60e51b815260206004820152603060248201527f4f6e6c79207468652070656e64696e6720476f7665726e6f722063616e20636f60448201526f6d706c6574652074686520636c61696d60801b6064820152608401610234565b6104b53361083e565b565b6104bf6106b6565b8061055c57507f00000000000000000000000000000000000000000000000000000000000000006001600160a01b031663570d8e1d6040518163ffffffff1660e01b8152600401602060405180830381865afa158015610523573d6000803e3d6000fd5b505050506040513d601f19601f820116820180604052508101906105479190610dba565b6001600160a01b0316336001600160a01b0316145b6105b95760405162461bcd60e51b815260206004820152602860248201527f43616c6c6572206973206e6f74207468652053747261746567697374206f722060448201526723b7bb32b93737b960c11b6064820152608401610234565b600154604080516001600160c01b038085168252600160401b90930490921660208301527f146c090e0947f11ee6784ea0d0ee783f725be808249469a6acc4ea8b77bd47eb910160405180910390a16106106108a0565b600180546001600160c01b03909216600160401b0267ffffffffffffffff909216919091179055565b6106416108a0565b7f00000000000000000000000000000000000000000000000000000000000000006001600160a01b031663af14052c6040518163ffffffff1660e01b8152600401600060405180830381600087803b15801561069c57600080fd5b505af11580156106b0573d6000803e3d6000fd5b50505050565b60006106ce600080516020610ead8339815191525490565b6001600160a01b0316336001600160a01b031614905090565b6106ef6106b6565b61070b5760405162461bcd60e51b815260040161023490610d6a565b610733817f44c4d30b2eaad5130ad70c3ba6972730566f3e6359ab83e800d905c61b1c51db55565b806001600160a01b0316610753600080516020610ead8339815191525490565b6001600160a01b03167fa39cc5eb22d0f34d8beaefee8a3f17cc229c1a1d1ef87a5ad47313487b1c4f0d60405160405180910390a350565b6104b56108a0565b604080516001600160a01b038416602482015260448082018490528251808303909101815260649091019091526020810180516001600160e01b031663a9059cbb60e01b1790526107e59084906109de565b505050565b805160009081906108059067ffffffffffffffff1642610ded565b9050600083602001516001600160c01b0316826108229190610e00565b90508481116108315780610833565b845b925050505b92915050565b6001600160a01b0381166108945760405162461bcd60e51b815260206004820152601a60248201527f4e657720476f7665726e6f7220697320616464726573732830290000000000006044820152606401610234565b61089d81610ab0565b50565b6040516370a0823160e01b81523060048201526000907f00000000000000000000000000000000000000000000000000000000000000006001600160a01b0316906370a0823190602401602060405180830381865afa158015610907573d6000803e3d6000fd5b505050506040513d601f19601f8201168201806040525081019061092b9190610da1565b6040805180820190915260015467ffffffffffffffff81168252600160401b90046001600160c01b0316602082015290915060009061096b9083906107ea565b6001805467ffffffffffffffff19164267ffffffffffffffff1617905590506102e07f00000000000000000000000000000000000000000000000000000000000000006001600160a01b03167f000000000000000000000000000000000000000000000000000000000000000083610793565b6000610a33826040518060400160405280602081526020017f5361666545524332303a206c6f772d6c6576656c2063616c6c206661696c6564815250856001600160a01b0316610b179092919063ffffffff16565b8051909150156107e55780806020019051810190610a519190610e17565b6107e55760405162461bcd60e51b815260206004820152602a60248201527f5361666545524332303a204552433230206f7065726174696f6e20646964206e6044820152691bdd081cdd58d8d9595960b21b6064820152608401610234565b806001600160a01b0316610ad0600080516020610ead8339815191525490565b6001600160a01b03167fc7c0c772add429241571afb3805861fb3cfa2af374534088b76cdb4325a87e9a60405160405180910390a3600080516020610ead83398151915255565b6060610b268484600085610b30565b90505b9392505050565b606082471015610b915760405162461bcd60e51b815260206004820152602660248201527f416464726573733a20696e73756666696369656e742062616c616e636520666f6044820152651c8818d85b1b60d21b6064820152608401610234565b843b610bdf5760405162461bcd60e51b815260206004820152601d60248201527f416464726573733a2063616c6c20746f206e6f6e2d636f6e74726163740000006044820152606401610234565b600080866001600160a01b03168587604051610bfb9190610e5d565b60006040518083038185875af1925050503d8060008114610c38576040519150601f19603f3d011682016040523d82523d6000602084013e610c3d565b606091505b5091509150610c4d828286610c58565b979650505050505050565b60608315610c67575081610b29565b825115610c775782518084602001fd5b8160405162461bcd60e51b81526004016102349190610e79565b600060208284031215610ca357600080fd5b5035919050565b6001600160a01b038116811461089d57600080fd5b60008060408385031215610cd257600080fd5b8235610cdd81610caa565b91506020830135610ced81610caa565b809150509250929050565b60008060408385031215610d0b57600080fd5b8235610d1681610caa565b946020939093013593505050565b600060208284031215610d3657600080fd5b81356001600160c01b0381168114610b2957600080fd5b600060208284031215610d5f57600080fd5b8135610b2981610caa565b6020808252601a908201527f43616c6c6572206973206e6f742074686520476f7665726e6f72000000000000604082015260600190565b600060208284031215610db357600080fd5b5051919050565b600060208284031215610dcc57600080fd5b8151610b2981610caa565b634e487b7160e01b600052601160045260246000fd5b8181038181111561083857610838610dd7565b808202811582820484141761083857610838610dd7565b600060208284031215610e2957600080fd5b81518015158114610b2957600080fd5b60005b83811015610e54578181015183820152602001610e3c565b50506000910152565b60008251610e6f818460208701610e39565b9190910192915050565b6020815260008251806020840152610e98816040850160208701610e39565b601f01601f1916919091016040019291505056fe7bea13895fa79d2831e0a9e28edede30099005a50d652d8957cf8a607ee6ca4aa264697066735822122082b8d52a77e7c1f8ae890cfbd17dfe1d3b87429844d59fa85bf1ea3a66e9f85264736f6c634300081c0033",
  "libraries": {},
  "devdoc": {
    "kind": "dev",
    "methods": {
      "availableFunds()": {
        "returns": {
          "_0": "The amount that would be sent if a collect was called"
        }
      },
      "setDripDuration(uint256)": {
        "details": "Change the drip duration. Governor only.",
        "params": {
          "_durationSeconds": "the number of seconds to drip out the entire  balance over if no collects were called during that time."
        }
      },
      "setDripRate(uint192)": {
        "details": "Sets the drip rate. Callable by Strategist or Governor.      Can be set to zero to stop dripper.",
        "params": {
          "_perSecond": "Rate of WETH to drip per second"
        }
      },
      "transferAllToken(address,address)": {
        "details": "Transfer out all ERC20 held by the contract. Governor only.",
        "params": {
          "_asset": "ERC20 token address"
        }
      },
      "transferGovernance(address)": {
        "params": {
          "_newGovernor": "Address of the new Governor"
        }
      },
      "transferToken(address,uint256)": {
        "details": "Transfer out ERC20 tokens held by the contract. Governor only.",
        "params": {
          "_amount": "amount to transfer",
          "_asset": "ERC20 token address"
        }
      }
    },
    "title": "Fixed Rate Dripper Similar to the Dripper, Fixed Rate Dripper drips out yield per second. However the Strategist decides the rate and it doesn't change after a drip.",
    "version": 1
  },
  "userdoc": {
    "kind": "user",
    "methods": {
      "claimGovernance()": {
        "notice": "Claim Governance of the contract to a new account (`newGovernor`). Can only be called by the new Governor."
      },
      "collect()": {
        "notice": "Collect all dripped funds and send to vault.  Recalculate new drip rate."
      },
      "collectAndRebase()": {
        "notice": "Collect all dripped funds, send to vault, recalculate new drip  rate, and rebase OUSD."
      },
      "governor()": {
        "notice": "Returns the address of the current Governor."
      },
      "isGovernor()": {
        "notice": "Returns true if the caller is the current Governor."
      },
      "transferGovernance(address)": {
        "notice": "Transfers Governance of the contract to a new account (`newGovernor`). Can only be called by the current Governor. Must be claimed for this to complete"
      }
    },
    "version": 1
  },
  "storageLayout": {
    "storage": [
      {
        "astId": 3886,
        "contract": "contracts/harvest/FixedRateDripper.sol:FixedRateDripper",
        "label": "dripDuration",
        "offset": 0,
        "slot": "0",
        "type": "t_uint256"
      },
      {
        "astId": 3889,
        "contract": "contracts/harvest/FixedRateDripper.sol:FixedRateDripper",
        "label": "drip",
        "offset": 0,
        "slot": "1",
        "type": "t_struct(Drip)3880_storage"
      }
    ],
    "types": {
      "t_struct(Drip)3880_storage": {
        "encoding": "inplace",
        "label": "struct Dripper.Drip",
        "members": [
          {
            "astId": 3877,
            "contract": "contracts/harvest/FixedRateDripper.sol:FixedRateDripper",
            "label": "lastCollect",
            "offset": 0,
            "slot": "0",
            "type": "t_uint64"
          },
          {
            "astId": 3879,
            "contract": "contracts/harvest/FixedRateDripper.sol:FixedRateDripper",
            "label": "perSecond",
            "offset": 8,
            "slot": "0",
            "type": "t_uint192"
          }
        ],
        "numberOfBytes": "32"
      },
      "t_uint192": {
        "encoding": "inplace",
        "label": "uint192",
        "numberOfBytes": "24"
      },
      "t_uint256": {
        "encoding": "inplace",
        "label": "uint256",
        "numberOfBytes": "32"
      },
      "t_uint64": {
        "encoding": "inplace",
        "label": "uint64",
        "numberOfBytes": "8"
      }
    }
  }
}