{
  "address": "0x0C65d500275277ace321f3ee1f3fb92036Ac777c",
  "abi": [
    {
      "inputs": [],
      "stateMutability": "nonpayable",
      "type": "constructor"
    },
    {
      "anonymous": false,
      "inputs": [
        {
          "indexed": false,
          "internalType": "address",
          "name": "account",
          "type": "address"
        }
      ],
      "name": "AccountRebasingDisabled",
      "type": "event"
    },
    {
      "anonymous": false,
      "inputs": [
        {
          "indexed": false,
          "internalType": "address",
          "name": "account",
          "type": "address"
        }
      ],
      "name": "AccountRebasingEnabled",
      "type": "event"
    },
    {
      "anonymous": false,
      "inputs": [
        {
          "indexed": true,
          "internalType": "address",
          "name": "owner",
          "type": "address"
        },
        {
          "indexed": true,
          "internalType": "address",
          "name": "spender",
          "type": "address"
        },
        {
          "indexed": false,
          "internalType": "uint256",
          "name": "value",
          "type": "uint256"
        }
      ],
      "name": "Approval",
      "type": "event"
    },
    {
      "anonymous": false,
      "inputs": [
        {
          "indexed": true,
          "internalType": "address",
          "name": "previousGovernor",
          "type": "address"
        },
        {
          "indexed": true,
          "internalType": "address",
          "name": "newGovernor",
          "type": "address"
        }
      ],
      "name": "GovernorshipTransferred",
      "type": "event"
    },
    {
      "anonymous": false,
      "inputs": [
        {
          "indexed": true,
          "internalType": "address",
          "name": "previousGovernor",
          "type": "address"
        },
        {
          "indexed": true,
          "internalType": "address",
          "name": "newGovernor",
          "type": "address"
        }
      ],
      "name": "PendingGovernorshipTransfer",
      "type": "event"
    },
    {
      "anonymous": false,
      "inputs": [
        {
          "indexed": false,
          "internalType": "uint256",
          "name": "totalSupply",
          "type": "uint256"
        },
        {
          "indexed": false,
          "internalType": "uint256",
          "name": "rebasingCredits",
          "type": "uint256"
        },
        {
          "indexed": false,
          "internalType": "uint256",
          "name": "rebasingCreditsPerToken",
          "type": "uint256"
        }
      ],
      "name": "TotalSupplyUpdatedHighres",
      "type": "event"
    },
    {
      "anonymous": false,
      "inputs": [
        {
          "indexed": true,
          "internalType": "address",
          "name": "from",
          "type": "address"
        },
        {
          "indexed": true,
          "internalType": "address",
          "name": "to",
          "type": "address"
        },
        {
          "indexed": false,
          "internalType": "uint256",
          "name": "value",
          "type": "uint256"
        }
      ],
      "name": "Transfer",
      "type": "event"
    },
    {
      "anonymous": false,
      "inputs": [
        {
          "indexed": false,
          "internalType": "address",
          "name": "source",
          "type": "address"
        },
        {
          "indexed": false,
          "internalType": "address",
          "name": "target",
          "type": "address"
        }
      ],
      "name": "YieldDelegated",
      "type": "event"
    },
    {
      "anonymous": false,
      "inputs": [
        {
          "indexed": false,
          "internalType": "address",
          "name": "source",
          "type": "address"
        },
        {
          "indexed": false,
          "internalType": "address",
          "name": "target",
          "type": "address"
        }
      ],
      "name": "YieldUndelegated",
      "type": "event"
    },
    {
      "inputs": [
        {
          "internalType": "address",
          "name": "_owner",
          "type": "address"
        },
        {
          "internalType": "address",
          "name": "_spender",
          "type": "address"
        }
      ],
      "name": "allowance",
      "outputs": [
        {
          "internalType": "uint256",
          "name": "",
          "type": "uint256"
        }
      ],
      "stateMutability": "view",
      "type": "function"
    },
    {
      "inputs": [
        {
          "internalType": "address",
          "name": "_spender",
          "type": "address"
        },
        {
          "internalType": "uint256",
          "name": "_value",
          "type": "uint256"
        }
      ],
      "name": "approve",
      "outputs": [
        {
          "internalType": "bool",
          "name": "",
          "type": "bool"
        }
      ],
      "stateMutability": "nonpayable",
      "type": "function"
    },
    {
      "inputs": [
        {
          "internalType": "address",
          "name": "_account",
          "type": "address"
        }
      ],
      "name": "balanceOf",
      "outputs": [
        {
          "internalType": "uint256",
          "name": "",
          "type": "uint256"
        }
      ],
      "stateMutability": "view",
      "type": "function"
    },
    {
      "inputs": [
        {
          "internalType": "address",
          "name": "_account",
          "type": "address"
        },
        {
          "internalType": "uint256",
          "name": "_amount",
          "type": "uint256"
        }
      ],
      "name": "burn",
      "outputs": [],
      "stateMutability": "nonpayable",
      "type": "function"
    },
    {
      "inputs": [
        {
          "internalType": "uint256",
          "name": "_newTotalSupply",
          "type": "uint256"
        }
      ],
      "name": "changeSupply",
      "outputs": [],
      "stateMutability": "nonpayable",
      "type": "function"
    },
    {
      "inputs": [],
      "name": "claimGovernance",
      "outputs": [],
      "stateMutability": "nonpayable",
      "type": "function"
    },
    {
      "inputs": [
        {
          "internalType": "address",
          "name": "_account",
          "type": "address"
        }
      ],
      "name": "creditsBalanceOf",
      "outputs": [
        {
          "internalType": "uint256",
          "name": "",
          "type": "uint256"
        },
        {
          "internalType": "uint256",
          "name": "",
          "type": "uint256"
        }
      ],
      "stateMutability": "view",
      "type": "function"
    },
    {
      "inputs": [
        {
          "internalType": "address",
          "name": "_account",
          "type": "address"
        }
      ],
      "name": "creditsBalanceOfHighres",
      "outputs": [
        {
          "internalType": "uint256",
          "name": "",
          "type": "uint256"
        },
        {
          "internalType": "uint256",
          "name": "",
          "type": "uint256"
        },
        {
          "internalType": "bool",
          "name": "",
          "type": "bool"
        }
      ],
      "stateMutability": "view",
      "type": "function"
    },
    {
      "inputs": [],
      "name": "decimals",
      "outputs": [
        {
          "internalType": "uint8",
          "name": "",
          "type": "uint8"
        }
      ],
      "stateMutability": "pure",
      "type": "function"
    },
    {
      "inputs": [
        {
          "internalType": "address",
          "name": "_from",
          "type": "address"
        },
        {
          "internalType": "address",
          "name": "_to",
          "type": "address"
        }
      ],
      "name": "delegateYield",
      "outputs": [],
      "stateMutability": "nonpayable",
      "type": "function"
    },
    {
      "inputs": [
        {
          "internalType": "address",
          "name": "_account",
          "type": "address"
        }
      ],
      "name": "governanceRebaseOptIn",
      "outputs": [],
      "stateMutability": "nonpayable",
      "type": "function"
    },
    {
      "inputs": [],
      "name": "governor",
      "outputs": [
        {
          "internalType": "address",
          "name": "",
          "type": "address"
        }
      ],
      "stateMutability": "view",
      "type": "function"
    },
    {
      "inputs": [
        {
          "internalType": "address",
          "name": "_vaultAddress",
          "type": "address"
        },
        {
          "internalType": "uint256",
          "name": "_initialCreditsPerToken",
          "type": "uint256"
        }
      ],
      "name": "initialize",
      "outputs": [],
      "stateMutability": "nonpayable",
      "type": "function"
    },
    {
      "inputs": [],
      "name": "isGovernor",
      "outputs": [
        {
          "internalType": "bool",
          "name": "",
          "type": "bool"
        }
      ],
      "stateMutability": "view",
      "type": "function"
    },
    {
      "inputs": [
        {
          "internalType": "address",
          "name": "_account",
          "type": "address"
        },
        {
          "internalType": "uint256",
          "name": "_amount",
          "type": "uint256"
        }
      ],
      "name": "mint",
      "outputs": [],
      "stateMutability": "nonpayable",
      "type": "function"
    },
    {
      "inputs": [],
      "name": "name",
      "outputs": [
        {
          "internalType": "string",
          "name": "",
          "type": "string"
        }
      ],
      "stateMutability": "pure",
      "type": "function"
    },
    {
      "inputs": [
        {
          "internalType": "address",
          "name": "_account",
          "type": "address"
        }
      ],
      "name": "nonRebasingCreditsPerToken",
      "outputs": [
        {
          "internalType": "uint256",
          "name": "",
          "type": "uint256"
        }
      ],
      "stateMutability": "view",
      "type": "function"
    },
    {
      "inputs": [],
      "name": "nonRebasingSupply",
      "outputs": [
        {
          "internalType": "uint256",
          "name": "",
          "type": "uint256"
        }
      ],
      "stateMutability": "view",
      "type": "function"
    },
    {
      "inputs": [],
      "name": "rebaseOptIn",
      "outputs": [],
      "stateMutability": "nonpayable",
      "type": "function"
    },
    {
      "inputs": [],
      "name": "rebaseOptOut",
      "outputs": [],
      "stateMutability": "nonpayable",
      "type": "function"
    },
    {
      "inputs": [
        {
          "internalType": "address",
          "name": "",
          "type": "address"
        }
      ],
      "name": "rebaseState",
      "outputs": [
        {
          "internalType": "enum OUSD.RebaseOptions",
          "name": "",
          "type": "uint8"
        }
      ],
      "stateMutability": "view",
      "type": "function"
    },
    {
      "inputs": [],
      "name": "rebasingCredits",
      "outputs": [
        {
          "internalType": "uint256",
          "name": "",
          "type": "uint256"
        }
      ],
      "stateMutability": "view",
      "type": "function"
    },
    {
      "inputs": [],
      "name": "rebasingCreditsHighres",
      "outputs": [
        {
          "internalType": "uint256",
          "name": "",
          "type": "uint256"
        }
      ],
      "stateMutability": "view",
      "type": "function"
    },
    {
      "inputs": [],
      "name": "rebasingCreditsPerToken",
      "outputs": [
        {
          "internalType": "uint256",
          "name": "",
          "type": "uint256"
        }
      ],
      "stateMutability": "view",
      "type": "function"
    },
    {
      "inputs": [],
      "name": "rebasingCreditsPerTokenHighres",
      "outputs": [
        {
          "internalType": "uint256",
          "name": "",
          "type": "uint256"
        }
      ],
      "stateMutability": "view",
      "type": "function"
    },
    {
      "inputs": [],
      "name": "symbol",
      "outputs": [
        {
          "internalType": "string",
          "name": "",
          "type": "string"
        }
      ],
      "stateMutability": "pure",
      "type": "function"
    },
    {
      "inputs": [],
      "name": "totalSupply",
      "outputs": [
        {
          "internalType": "uint256",
          "name": "",
          "type": "uint256"
        }
      ],
      "stateMutability": "view",
      "type": "function"
    },
    {
      "inputs": [
        {
          "internalType": "address",
          "name": "_to",
          "type": "address"
        },
        {
          "internalType": "uint256",
          "name": "_value",
          "type": "uint256"
        }
      ],
      "name": "transfer",
      "outputs": [
        {
          "internalType": "bool",
          "name": "",
          "type": "bool"
        }
      ],
      "stateMutability": "nonpayable",
      "type": "function"
    },
    {
      "inputs": [
        {
          "internalType": "address",
          "name": "_from",
          "type": "address"
        },
        {
          "internalType": "address",
          "name": "_to",
          "type": "address"
        },
        {
          "internalType": "uint256",
          "name": "_value",
          "type": "uint256"
        }
      ],
      "name": "transferFrom",
      "outputs": [
        {
          "internalType": "bool",
          "name": "",
          "type": "bool"
        }
      ],
      "stateMutability": "nonpayable",
      "type": "function"
    },
    {
      "inputs": [
        {
          "internalType": "address",
          "name": "_newGovernor",
          "type": "address"
        }
      ],
      "name": "transferGovernance",
      "outputs": [],
      "stateMutability": "nonpayable",
      "type": "function"
    },
    {
      "inputs": [
        {
          "internalType": "address",
          "name": "_from",
          "type": "address"
        }
      ],
      "name": "undelegateYield",
      "outputs": [],
      "stateMutability": "nonpayable",
      "type": "function"
    },
    {
      "inputs": [],
      "name": "vaultAddress",
      "outputs": [
        {
          "internalType": "address",
          "name": "",
          "type": "address"
        }
      ],
      "stateMutability": "view",
      "type": "function"
    },
    {
      "inputs": [
        {
          "internalType": "address",
          "name": "",
          "type": "address"
        }
      ],
      "name": "yieldFrom",
      "outputs": [
        {
          "internalType": "address",
          "name": "",
          "type": "address"
        }
      ],
      "stateMutability": "view",
      "type": "function"
    },
    {
      "inputs": [
        {
          "internalType": "address",
          "name": "",
          "type": "address"
        }
      ],
      "name": "yieldTo",
      "outputs": [
        {
          "internalType": "address",
          "name": "",
          "type": "address"
        }
      ],
      "stateMutability": "view",
      "type": "function"
    }
  ],
  "transactionHash": "0x56e220ba15794aa15fc58a6c4acdff79c3165d93ef7df5c428a1d1df5cfdb6ad",
  "args": [],
  "numDeployments": 1,
  "solcInputHash": "1de920a6f7745b41210ffc9b95bb7627",
  "bytecode": "0x6080604052348015600f57600080fd5b5060186000601c565b6082565b6001600160a01b038116603b6000805160206124988339815191525490565b6001600160a01b03167fc7c0c772add429241571afb3805861fb3cfa2af374534088b76cdb4325a87e9a60405160405180910390a360008051602061249883398151915255565b612407806100916000396000f3fe608060405234801561001057600080fd5b50600436106102065760003560e01c806370a082311161011a578063c2376dff116100ad578063dd62ed3e1161007c578063dd62ed3e1461049b578063e5c4fffe146104d4578063e696393a14610504578063f51b0fd41461050d578063f9854bfc1461051557600080fd5b8063c2376dff14610465578063c7af33521461046d578063cd6dc68714610475578063d38bfff41461048857600080fd5b80639d01fc72116100e95780639d01fc72146104195780639dc29fac1461042c578063a9059cbb1461043f578063baa9c9db1461045257600080fd5b806370a08231146103d05780637a46a9c5146103e35780637d0d66ff146103eb57806395d89b41146103f357600080fd5b806339a7919f1161019d5780635d36b1901161016c5780635d36b190146103455780635f5a85771461034d578063609350cd146103765780636691cb3d1461039f5780636b96be39146103a757600080fd5b806339a7919f146102dc57806340c10f19146102ef578063430bf08a14610302578063456ee2861461031557600080fd5b80630c340a24116101d95780630c340a241461029157806318160ddd146102b157806323b872dd146102ba578063313ce567146102cd57600080fd5b806306a2da3d1461020b57806306fdde0314610220578063077f22b714610258578063095ea7b31461026e575b600080fd5b61021e6102193660046120e9565b61053d565b005b60408051808201909152600a8152690a6eae0cae4409e8aa8960b31b60208201525b60405161024f9190612104565b60405180910390f35b610260610723565b60405190815260200161024f565b61028161027c366004612152565b61073c565b604051901515815260200161024f565b6102996107a9565b6040516001600160a01b03909116815260200161024f565b610260609a5481565b6102816102c836600461217c565b6107c1565b6040516012815260200161024f565b61021e6102ea3660046121b9565b6108f6565b61021e6102fd366004612152565b610ace565b609c54610299906001600160a01b031681565b6103386103233660046120e9565b60a26020526000908152604090205460ff1681565b60405161024f91906121e8565b61021e610bfc565b61029961035b3660046120e9565b60a4602052600090815260409020546001600160a01b031681565b6102606103843660046120e9565b6001600160a01b0316600090815260a1602052604090205490565b610260610ca2565b6102996103b53660046120e9565b60a5602052600090815260409020546001600160a01b031681565b6102606103de3660046120e9565b610cb6565b609f54610260565b609e54610260565b60408051808201909152600a815269073757065724f455448760b41b6020820152610242565b61021e610427366004612210565b610da4565b61021e61043a366004612152565b6112bb565b61028161044d366004612152565b6113a9565b61021e6104603660046120e9565b611432565b61021e6114b0565b6102816114b9565b61021e610483366004612152565b6114ea565b61021e6104963660046120e9565b6115cd565b6102606104a9366004612210565b6001600160a01b039182166000908152609b6020908152604080832093909416825291909152205490565b6104e76104e23660046120e9565b611671565b60408051938452602084019290925215159082015260600161024f565b61026060a05481565b61021e6116a5565b6105286105233660046120e9565b6116ae565b6040805192835260208301919091520161024f565b6105456114b9565b61056a5760405162461bcd60e51b815260040161056190612243565b60405180910390fd5b6001600160a01b03818116600090815260a46020526040902054166105cc5760405162461bcd60e51b815260206004820152601860248201527716995c9bc81859191c995cdcc81b9bdd08185b1b1bddd95960421b6044820152606401610561565b6001600160a01b03808216600090815260a46020526040812054909116906105f383610cb6565b9050600061060083610cb6565b6001600160a01b0384166000908152609d602052604081205491925061062583611731565b6001600160a01b03868116600081815260a56020908152604080832080546001600160a01b0319908116909155948c16835260a48252808320805490951690945560a2808252848320805460ff19908116600117909155609d8084528685208c905594845290825284832080549091166002179055919091529081208290559091506106b083611772565b6106b983611772565b6106c39190612290565b90506106d7816106d287611772565b6117e0565b604080516001600160a01b03808a168252881660208201527fa4fa89dd14422a509261a2d4d459f93abdc84c6e92c5e7ae5448243713967bd3910160405180910390a150505050505050565b6000633b9aca00609e5461073791906122b7565b905090565b336000818152609b602090815260408083206001600160a01b038716808552925280832085905551919290917f8c5be1e5ebec7d5bd14f71427d1e84f3dd0314c0f7b2291e5b200ac8c7c3b925906107979086815260200190565b60405180910390a35060015b92915050565b60006107376000805160206123b28339815191525490565b60006001600160a01b0383166108145760405162461bcd60e51b81526020600482015260186024820152775472616e7366657220746f207a65726f206164647265737360401b6044820152606401610561565b6001600160a01b0384166000908152609b602090815260408083203384529091529020548083111561087d5760405162461bcd60e51b8152602060048201526012602482015271105b1b1bddd85b98d948195e18d95959195960721b6044820152606401610561565b6001600160a01b0385166000908152609b60209081526040808320338452909152902083820390556108b0858585611824565b836001600160a01b0316856001600160a01b0316600080516020612392833981519152856040516108e391815260200190565b60405180910390a3506001949350505050565b609c546001600160a01b031633146109205760405162461bcd60e51b8152600401610561906122d9565b6000609a54116109725760405162461bcd60e51b815260206004820152601860248201527f43616e6e6f7420696e637265617365203020737570706c7900000000000000006044820152606401610561565b80609a54036109c557609a54609e54609f5460408051938452602084019290925282820152517f41645eb819d3011b13f97696a8109d14bfcddfaca7d063ec0564d62a3e2572359181900360600190a150565b6001600160801b0381116109d957806109e2565b6001600160801b035b609a81905560a0546000916109f79190612310565b905080600182609e54670de0b6b3a7640000610a139190612323565b610a1d919061233a565b610a279190612310565b610a3191906122b7565b609f819055610a825760405162461bcd60e51b815260206004820152601860248201527f496e76616c6964206368616e676520696e20737570706c7900000000000000006044820152606401610561565b609a54609e54609f5460408051938452602084019290925282820152517f41645eb819d3011b13f97696a8109d14bfcddfaca7d063ec0564d62a3e2572359181900360600190a1505b50565b609c546001600160a01b03163314610af85760405162461bcd60e51b8152600401610561906122d9565b6001600160a01b038216610b4e5760405162461bcd60e51b815260206004820152601860248201527f4d696e7420746f20746865207a65726f206164647265737300000000000000006044820152606401610561565b600080610b6384610b5e85611772565b61186d565b91509150610b7182826117e0565b82609a54610b7f919061233a565b609a8190556001600160801b0311610bc65760405162461bcd60e51b815260206004820152600a6024820152694d617820737570706c7960b01b6044820152606401610561565b6040518381526001600160a01b03851690600090600080516020612392833981519152906020015b60405180910390a350505050565b7f44c4d30b2eaad5130ad70c3ba6972730566f3e6359ab83e800d905c61b1c51db546001600160a01b0316336001600160a01b031614610c975760405162461bcd60e51b815260206004820152603060248201527f4f6e6c79207468652070656e64696e6720476f7665726e6f722063616e20636f60448201526f6d706c6574652074686520636c61696d60801b6064820152608401610561565b610ca033611b5b565b565b6000633b9aca00609f5461073791906122b7565b6001600160a01b038116600090815260a2602052604081205460ff166003816004811115610ce657610ce66121d2565b03610d085750506001600160a01b03166000908152609d602052604090205490565b6000610d1384611bba565b6001600160a01b0385166000908152609d6020526040902054610d3e90670de0b6b3a7640000612323565b610d4891906122b7565b90506004826004811115610d5e57610d5e6121d2565b03610d9d576001600160a01b03808516600090815260a560209081526040808320549093168252609d90522054610d959082612310565b949350505050565b9392505050565b610dac6114b9565b610dc85760405162461bcd60e51b815260040161056190612243565b6001600160a01b038216610e1e5760405162461bcd60e51b815260206004820152601d60248201527f5a65726f2066726f6d2061646472657373206e6f7420616c6c6f7765640000006044820152606401610561565b6001600160a01b038116610e745760405162461bcd60e51b815260206004820152601b60248201527f5a65726f20746f2061646472657373206e6f7420616c6c6f77656400000000006044820152606401610561565b806001600160a01b0316826001600160a01b031603610ed55760405162461bcd60e51b815260206004820152601760248201527f43616e6e6f742064656c656761746520746f2073656c660000000000000000006044820152606401610561565b6001600160a01b03818116600090815260a5602052604090205416158015610f1557506001600160a01b03818116600090815260a4602052604090205416155b8015610f3957506001600160a01b03828116600090815260a5602052604090205416155b8015610f5d57506001600160a01b03828116600090815260a4602052604090205416155b610fb55760405162461bcd60e51b8152602060048201526024808201527f426c6f636b6564206279206578697374696e67207969656c642064656c6567616044820152633a34b7b760e11b6064820152608401610561565b6001600160a01b03808316600090815260a2602052604080822054928416825281205460ff928316921690826004811115610ff257610ff26121d2565b148061100f5750600182600481111561100d5761100d6121d2565b145b8061102b57506002826004811115611029576110296121d2565b145b6110775760405162461bcd60e51b815260206004820152601860248201527f496e76616c69642072656261736553746174652066726f6d00000000000000006044820152606401610561565b600081600481111561108b5761108b6121d2565b14806110a8575060018160048111156110a6576110a66121d2565b145b806110c4575060028160048111156110c2576110c26121d2565b145b6111095760405162461bcd60e51b8152602060048201526016602482015275496e76616c696420726562617365537461746520746f60501b6044820152606401610561565b6001600160a01b038416600090815260a1602052604081205490036111315761113184611be9565b6001600160a01b038316600090815260a16020526040902054156111585761115883611dc4565b600061116385610cb6565b9050600061117085610cb6565b6001600160a01b0386166000908152609d602052604081205491925061119e611199848661233a565b611731565b6001600160a01b03898116600081815260a46020908152604080832080546001600160a01b0319908116968f1696871790915585845260a5835281842080549091168517905592825260a2808252838320805460ff1990811660031790915560a18352848420670de0b6b3a76400009055609d8084528585208c90559584529082528383208054909116600417905592909252812082905590915061124283611772565b61124b83611772565b6112559190612290565b905061126d8161126487611772565b6106d29061234d565b604080516001600160a01b03808c1682528a1660208201527f31e39e4bb9df9d4143551c8a3a4798fc19b0854768570ce84d966f6adffd01a3910160405180910390a1505050505050505050565b609c546001600160a01b031633146112e55760405162461bcd60e51b8152600401610561906122d9565b6001600160a01b03821661133b5760405162461bcd60e51b815260206004820152601a60248201527f4275726e2066726f6d20746865207a65726f20616464726573730000000000006044820152606401610561565b80156113a55760008061135a8461135185611772565b610b5e9061234d565b9150915061136882826117e0565b82609a546113769190612310565b609a556040518381526000906001600160a01b0386169060008051602061239283398151915290602001610bee565b5050565b60006001600160a01b0383166113fc5760405162461bcd60e51b81526020600482015260186024820152775472616e7366657220746f207a65726f206164647265737360401b6044820152606401610561565b611407338484611824565b6040518281526001600160a01b03841690339060008051602061239283398151915290602001610797565b61143a6114b9565b6114565760405162461bcd60e51b815260040161056190612243565b6001600160a01b0381166114a75760405162461bcd60e51b815260206004820152601860248201527716995c9bc81859191c995cdcc81b9bdd08185b1b1bddd95960421b6044820152606401610561565b610acb81611dc4565b610ca033611be9565b60006114d16000805160206123b28339815191525490565b6001600160a01b0316336001600160a01b031614905090565b6114f26114b9565b61150e5760405162461bcd60e51b815260040161056190612243565b6001600160a01b0382166115595760405162461bcd60e51b81526020600482015260126024820152715a65726f207661756c74206164647265737360701b6044820152606401610561565b609c546001600160a01b0316156115a85760405162461bcd60e51b8152602060048201526013602482015272105b1c9958591e481a5b9a5d1a585b1a5e9959606a1b6044820152606401610561565b609f55609c80546001600160a01b0319166001600160a01b0392909216919091179055565b6115d56114b9565b6115f15760405162461bcd60e51b815260040161056190612243565b611619817f44c4d30b2eaad5130ad70c3ba6972730566f3e6359ab83e800d905c61b1c51db55565b806001600160a01b03166116396000805160206123b28339815191525490565b6001600160a01b03167fa39cc5eb22d0f34d8beaefee8a3f17cc229c1a1d1ef87a5ad47313487b1c4f0d60405160405180910390a350565b6001600160a01b0381166000908152609d60205260408120548190819061169785611bba565b909590945060019350915050565b610ca033611dc4565b60008060006116bc84611bba565b9050806b033b2e3c9fd0803ce8000000036116f1576001600160a01b039093166000908152609d602052604090205493915050565b6001600160a01b0384166000908152609d602052604090205461171990633b9aca00906122b7565b611727633b9aca00836122b7565b9250925050915091565b6000670de0b6b3a76400006001609f548461174c9190612323565b61175e90670de0b6b3a764000061233a565b6117689190612310565b6107a391906122b7565b60006001600160ff1b038211156117dc5760405162461bcd60e51b815260206004820152602860248201527f53616665436173743a2076616c756520646f65736e27742066697420696e2061604482015267371034b73a191a9b60c11b6064820152608401610561565b5090565b811561180857611804826117f5609e54611772565b6117ff9190612369565b611f9f565b609e555b80156113a55761181d816117f560a054611772565b60a0555050565b6000806118348561135185611772565b9150915060008061184886610b5e87611772565b909250905061186461185a8386612369565b6106d28386612369565b50505050505050565b6001600160a01b038216600090815260a26020526040812054819060ff168161189d61189887610cb6565b611772565b905060006118ab8683612369565b12156118f95760405162461bcd60e51b815260206004820152601f60248201527f5472616e7366657220616d6f756e7420657863656564732062616c616e6365006044820152606401610561565b60006119086117ff8784612369565b9050600383600481111561191e5761191e6121d2565b036119c3576001600160a01b03808816600090815260a460205260408120549091169061194a82610cb6565b9050600061195b611199858461233a565b6001600160a01b0384166000908152609d602052604090205490915061198090611772565b61198982611772565b6119939190612290565b6001600160a01b03808c166000908152609d60205260408082208890559590911681529390932055509450611b51565b60048360048111156119d7576119d76121d2565b03611a6f576001600160a01b03808816600090815260a560209081526040808320549093168252609d905290812054611a1490611199908461233a565b6001600160a01b0389166000908152609d6020526040902054909150611a3990611772565b611a4282611772565b611a4c9190612290565b6001600160a01b0389166000908152609d60205260409020919091559450611b51565b611a7887611ff1565b6001600160a01b038716600090815260a160205260409020548015611aed5786945080670de0b6b3a764000014611acd576001600160a01b038816600090815260a160205260409020670de0b6b3a764000090555b6001600160a01b0388166000908152609d60205260409020829055611b4f565b6000611af883611731565b6001600160a01b038a166000908152609d6020526040902054909150611b1d90611772565b611b2682611772565b611b309190612290565b6001600160a01b038a166000908152609d602052604090209190915595505b505b5050509250929050565b6001600160a01b038116611bb15760405162461bcd60e51b815260206004820152601a60248201527f4e657720476f7665726e6f7220697320616464726573732830290000000000006044820152606401610561565b610acb81612066565b6001600160a01b038116600090815260a160205260408120548015611bdf5792915050565b5050609f54919050565b6001600160a01b038116600090815260a1602052604090205415611c4f5760405162461bcd60e51b815260206004820152601860248201527f4163636f756e74206d757374206265207265626173696e6700000000000000006044820152606401610561565b6001600160a01b038116600090815260a2602052604090205460ff166002816004811115611c7f57611c7f6121d2565b1480611c9c57506000816004811115611c9a57611c9a6121d2565b145b611cfc5760405162461bcd60e51b815260206004820152602b60248201527f4f6e6c79207374616e64617264207265626173696e67206163636f756e74732060448201526a18d85b881bdc1d081bdd5d60aa1b6064820152608401610561565b6001600160a01b0382166000908152609d602052604081205490611d1f84610cb6565b6001600160a01b038516600090815260a260209081526040808320805460ff1916600117905560a18252808320670de0b6b3a76400009055609d90915290208190559050611d81611d6f83611772565b611d789061234d565b6106d283611772565b6040516001600160a01b03851681527f201ace89ad3f5ab7428b91989f6a50d1998791c7b94a0fa812fd64a57687165e906020015b60405180910390a150505050565b6000611dcf82610cb6565b6001600160a01b038316600090815260a16020526040902054909150151580611e0e57506001600160a01b0382166000908152609d6020526040902054155b611e5a5760405162461bcd60e51b815260206004820152601c60248201527f4163636f756e74206d757374206265206e6f6e2d7265626173696e67000000006044820152606401610561565b6001600160a01b038216600090815260a2602052604090205460ff166001816004811115611e8a57611e8a6121d2565b1480611ea757506000816004811115611ea557611ea56121d2565b145b611f0a5760405162461bcd60e51b815260206004820152602e60248201527f4f6e6c79207374616e64617264206e6f6e2d7265626173696e67206163636f7560448201526d373a399031b0b71037b83a1034b760911b6064820152608401610561565b6000611f1583611731565b6001600160a01b038516600090815260a260209081526040808320805460ff1916600217905560a18252808320839055609d90915290208190559050611f66611f5d82611772565b61126485611772565b6040516001600160a01b03851681527f19a249fa2050bac8314ac10e3ad420bd9825574bf750f58810c3c7adfc7b1c6f90602001611db6565b6000808212156117dc5760405162461bcd60e51b815260206004820181905260248201527f53616665436173743a2076616c7565206d75737420626520706f7369746976656044820152606401610561565b6001600160a01b0381163b15801590819061203657506001600160a01b038216600090815260a2602052604081205460ff166004811115612034576120346121d2565b145b801561205857506001600160a01b038216600090815260a16020526040902054155b156113a5576113a582611be9565b806001600160a01b03166120866000805160206123b28339815191525490565b6001600160a01b03167fc7c0c772add429241571afb3805861fb3cfa2af374534088b76cdb4325a87e9a60405160405180910390a36000805160206123b283398151915255565b80356001600160a01b03811681146120e457600080fd5b919050565b6000602082840312156120fb57600080fd5b610d9d826120cd565b602081526000825180602084015260005b818110156121325760208186018101516040868401015201612115565b506000604082850101526040601f19601f83011684010191505092915050565b6000806040838503121561216557600080fd5b61216e836120cd565b946020939093013593505050565b60008060006060848603121561219157600080fd5b61219a846120cd565b92506121a8602085016120cd565b929592945050506040919091013590565b6000602082840312156121cb57600080fd5b5035919050565b634e487b7160e01b600052602160045260246000fd5b602081016005831061220a57634e487b7160e01b600052602160045260246000fd5b91905290565b6000806040838503121561222357600080fd5b61222c836120cd565b915061223a602084016120cd565b90509250929050565b6020808252601a908201527f43616c6c6572206973206e6f742074686520476f7665726e6f72000000000000604082015260600190565b634e487b7160e01b600052601160045260246000fd5b81810360008312801583831316838312821617156122b0576122b061227a565b5092915050565b6000826122d457634e487b7160e01b600052601260045260246000fd5b500490565b60208082526017908201527f43616c6c6572206973206e6f7420746865205661756c74000000000000000000604082015260600190565b818103818111156107a3576107a361227a565b80820281158282048414176107a3576107a361227a565b808201808211156107a3576107a361227a565b6000600160ff1b82016123625761236261227a565b5060000390565b80820182811260008312801582168215821617156123895761238961227a565b50509291505056feddf252ad1be2c89b69c2b068fc378daa952ba7f163c4a11628f55a4df523b3ef7bea13895fa79d2831e0a9e28edede30099005a50d652d8957cf8a607ee6ca4aa26469706673582212201cfffc0f90c5bf442d1d2a129624a739329012defc8969e287310c318cf5b7c464736f6c634300081c00337bea13895fa79d2831e0a9e28edede30099005a50d652d8957cf8a607ee6ca4a",
  "libraries": {},
  "devdoc": {
    "author": "Origin Protocol Inc",
    "events": {
      "AccountRebasingDisabled(address)": {
        "details": "Event triggered when an account opts out of rebasing",
        "params": {
          "account": "Address of the account"
        }
      },
      "AccountRebasingEnabled(address)": {
        "details": "Event triggered when an account opts in for rebasing",
        "params": {
          "account": "Address of the account"
        }
      },
      "Approval(address,address,uint256)": {
        "details": "Emitted when the allowance of a `spender` for an `owner` is set by      a call to {approve}. `value` is the new allowance.",
        "params": {
          "owner": "Address of the owner approving allowance",
          "spender": "Address of the spender allowance is granted to",
          "value": "Amount of tokens spender can transfer"
        }
      },
      "TotalSupplyUpdatedHighres(uint256,uint256,uint256)": {
        "details": "Event triggered when the supply changes",
        "params": {
          "rebasingCredits": "Updated token rebasing credits",
          "rebasingCreditsPerToken": "Updated token rebasing credits per token",
          "totalSupply": "Updated token total supply"
        }
      },
      "Transfer(address,address,uint256)": {
        "details": "Emitted when `value` tokens are moved from one account `from` to      another `to`.",
        "params": {
          "from": "Address of the account tokens are moved from",
          "to": "Address of the account tokens are moved to",
          "value": "Amount of tokens transferred"
        }
      },
      "YieldDelegated(address,address)": {
        "details": "Yield resulting from {changeSupply} that a `source` account would      receive is directed to `target` account.",
        "params": {
          "source": "Address of the source forwarding the yield",
          "target": "Address of the target receiving the yield"
        }
      },
      "YieldUndelegated(address,address)": {
        "details": "Yield delegation from `source` account to the `target` account is      suspended.",
        "params": {
          "source": "Address of the source suspending yield forwarding",
          "target": "Address of the target no longer receiving yield from `source`        account"
        }
      }
    },
    "kind": "dev",
    "methods": {
      "allowance(address,address)": {
        "params": {
          "_owner": "The address which owns the funds.",
          "_spender": "The address which will spend the funds."
        },
        "returns": {
          "_0": "The number of tokens still available for the _spender."
        }
      },
      "approve(address,uint256)": {
        "params": {
          "_spender": "The address which will spend the funds.",
          "_value": "The amount of tokens to be spent."
        },
        "returns": {
          "_0": "true on success."
        }
      },
      "balanceOf(address)": {
        "params": {
          "_account": "Address to query the balance of."
        },
        "returns": {
          "_0": "A uint256 representing the amount of base units owned by the         specified address."
        }
      },
      "changeSupply(uint256)": {
        "params": {
          "_newTotalSupply": "New total supply of OUSD."
        }
      },
      "creditsBalanceOf(address)": {
        "details": "Backwards compatible with old low res credits per token.",
        "params": {
          "_account": "The address to query the balance of."
        },
        "returns": {
          "_0": "(uint256, uint256) Credit balance and credits per token of the         address"
        }
      },
      "creditsBalanceOfHighres(address)": {
        "params": {
          "_account": "The address to query the balance of."
        },
        "returns": {
          "_0": "(uint256, uint256, bool) Credit balance, credits per token of the         address, and isUpgraded"
        }
      },
      "decimals()": {
        "details": "Returns the number of decimals used to get its user representation."
      },
      "governanceRebaseOptIn(address)": {
        "params": {
          "_account": "Address of the account."
        }
      },
      "initialize(address,uint256)": {
        "details": "Initializes the contract and sets necessary variables.",
        "params": {
          "_initialCreditsPerToken": "The starting rebasing credits per token.",
          "_vaultAddress": "Address of the vault contract"
        }
      },
      "name()": {
        "details": "Returns the name of the token."
      },
      "rebasingCredits()": {
        "returns": {
          "_0": "Low resolution total number of rebasing credits"
        }
      },
      "rebasingCreditsHighres()": {
        "returns": {
          "_0": "High resolution total number of rebasing credits"
        }
      },
      "rebasingCreditsPerToken()": {
        "returns": {
          "_0": "Low resolution rebasingCreditsPerToken"
        }
      },
      "rebasingCreditsPerTokenHighres()": {
        "returns": {
          "_0": "High resolution rebasingCreditsPerToken"
        }
      },
      "symbol()": {
        "details": "Returns the symbol of the token, a shorter version      of the name."
      },
      "transfer(address,uint256)": {
        "params": {
          "_to": "the address to transfer to.",
          "_value": "the amount to be transferred."
        },
        "returns": {
          "_0": "true on success."
        }
      },
      "transferFrom(address,address,uint256)": {
        "params": {
          "_from": "The address you want to send tokens from.",
          "_to": "The address you want to transfer to.",
          "_value": "The amount of tokens to be transferred."
        },
        "returns": {
          "_0": "true on success."
        }
      },
      "transferGovernance(address)": {
        "params": {
          "_newGovernor": "Address of the new Governor"
        }
      }
    },
    "title": "Super OETH (Plume) Token Contract",
    "version": 1
  },
  "userdoc": {
    "kind": "user",
    "methods": {
      "allowance(address,address)": {
        "notice": "Function to check the amount of tokens that _owner has allowed      to `_spender`."
      },
      "approve(address,uint256)": {
        "notice": "Approve the passed address to spend the specified amount of      tokens on behalf of msg.sender."
      },
      "balanceOf(address)": {
        "notice": "Gets the balance of the specified address."
      },
      "burn(address,uint256)": {
        "notice": "Destroys `_amount` tokens from `_account`,     reducing the total supply."
      },
      "changeSupply(uint256)": {
        "notice": "Distribute yield to users. This changes the exchange rate  between \"credits\" and OUSD tokens to change rebasing user's balances."
      },
      "claimGovernance()": {
        "notice": "Claim Governance of the contract to a new account (`newGovernor`). Can only be called by the new Governor."
      },
      "creditsBalanceOf(address)": {
        "notice": "Gets the credits balance of the specified address."
      },
      "creditsBalanceOfHighres(address)": {
        "notice": "Gets the credits balance of the specified address."
      },
      "governanceRebaseOptIn(address)": {
        "notice": "The calling account will start receiving yield after a successful call."
      },
      "governor()": {
        "notice": "Returns the address of the current Governor."
      },
      "isGovernor()": {
        "notice": "Returns true if the caller is the current Governor."
      },
      "mint(address,uint256)": {
        "notice": "Creates `_amount` tokens and assigns them to `_account`,     increasing the total supply."
      },
      "rebaseOptIn()": {
        "notice": "The calling account will start receiving yield after a successful call."
      },
      "rebaseOptOut()": {
        "notice": "The calling account will no longer receive yield"
      },
      "transfer(address,uint256)": {
        "notice": "Transfer tokens to a specified address."
      },
      "transferFrom(address,address,uint256)": {
        "notice": "Transfer tokens from one address to another."
      },
      "transferGovernance(address)": {
        "notice": "Transfers Governance of the contract to a new account (`newGovernor`). Can only be called by the current Governor. Must be claimed for this to complete"
      }
    },
    "version": 1
  },
  "storageLayout": {
    "storage": [
      {
        "astId": 54632,
        "contract": "contracts/token/OETHPlume.sol:OETHPlume",
        "label": "_gap",
        "offset": 0,
        "slot": "0",
        "type": "t_array(t_uint256)154_storage"
      },
      {
        "astId": 54642,
        "contract": "contracts/token/OETHPlume.sol:OETHPlume",
        "label": "totalSupply",
        "offset": 0,
        "slot": "154",
        "type": "t_uint256"
      },
      {
        "astId": 54648,
        "contract": "contracts/token/OETHPlume.sol:OETHPlume",
        "label": "allowances",
        "offset": 0,
        "slot": "155",
        "type": "t_mapping(t_address,t_mapping(t_address,t_uint256))"
      },
      {
        "astId": 54651,
        "contract": "contracts/token/OETHPlume.sol:OETHPlume",
        "label": "vaultAddress",
        "offset": 0,
        "slot": "156",
        "type": "t_address"
      },
      {
        "astId": 54655,
        "contract": "contracts/token/OETHPlume.sol:OETHPlume",
        "label": "creditBalances",
        "offset": 0,
        "slot": "157",
        "type": "t_mapping(t_address,t_uint256)"
      },
      {
        "astId": 54657,
        "contract": "contracts/token/OETHPlume.sol:OETHPlume",
        "label": "rebasingCredits_",
        "offset": 0,
        "slot": "158",
        "type": "t_uint256"
      },
      {
        "astId": 54659,
        "contract": "contracts/token/OETHPlume.sol:OETHPlume",
        "label": "rebasingCreditsPerToken_",
        "offset": 0,
        "slot": "159",
        "type": "t_uint256"
      },
      {
        "astId": 54662,
        "contract": "contracts/token/OETHPlume.sol:OETHPlume",
        "label": "nonRebasingSupply",
        "offset": 0,
        "slot": "160",
        "type": "t_uint256"
      },
      {
        "astId": 54666,
        "contract": "contracts/token/OETHPlume.sol:OETHPlume",
        "label": "alternativeCreditsPerToken",
        "offset": 0,
        "slot": "161",
        "type": "t_mapping(t_address,t_uint256)"
      },
      {
        "astId": 54672,
        "contract": "contracts/token/OETHPlume.sol:OETHPlume",
        "label": "rebaseState",
        "offset": 0,
        "slot": "162",
        "type": "t_mapping(t_address,t_enum(RebaseOptions)54628)"
      },
      {
        "astId": 54676,
        "contract": "contracts/token/OETHPlume.sol:OETHPlume",
        "label": "__deprecated_isUpgraded",
        "offset": 0,
        "slot": "163",
        "type": "t_mapping(t_address,t_uint256)"
      },
      {
        "astId": 54681,
        "contract": "contracts/token/OETHPlume.sol:OETHPlume",
        "label": "yieldTo",
        "offset": 0,
        "slot": "164",
        "type": "t_mapping(t_address,t_address)"
      },
      {
        "astId": 54686,
        "contract": "contracts/token/OETHPlume.sol:OETHPlume",
        "label": "yieldFrom",
        "offset": 0,
        "slot": "165",
        "type": "t_mapping(t_address,t_address)"
      },
      {
        "astId": 54693,
        "contract": "contracts/token/OETHPlume.sol:OETHPlume",
        "label": "__gap",
        "offset": 0,
        "slot": "166",
        "type": "t_array(t_uint256)34_storage"
      }
    ],
    "types": {
      "t_address": {
        "encoding": "inplace",
        "label": "address",
        "numberOfBytes": "20"
      },
      "t_array(t_uint256)154_storage": {
        "base": "t_uint256",
        "encoding": "inplace",
        "label": "uint256[154]",
        "numberOfBytes": "4928"
      },
      "t_array(t_uint256)34_storage": {
        "base": "t_uint256",
        "encoding": "inplace",
        "label": "uint256[34]",
        "numberOfBytes": "1088"
      },
      "t_enum(RebaseOptions)54628": {
        "encoding": "inplace",
        "label": "enum OUSD.RebaseOptions",
        "numberOfBytes": "1"
      },
      "t_mapping(t_address,t_address)": {
        "encoding": "mapping",
        "key": "t_address",
        "label": "mapping(address => address)",
        "numberOfBytes": "32",
        "value": "t_address"
      },
      "t_mapping(t_address,t_enum(RebaseOptions)54628)": {
        "encoding": "mapping",
        "key": "t_address",
        "label": "mapping(address => enum OUSD.RebaseOptions)",
        "numberOfBytes": "32",
        "value": "t_enum(RebaseOptions)54628"
      },
      "t_mapping(t_address,t_mapping(t_address,t_uint256))": {
        "encoding": "mapping",
        "key": "t_address",
        "label": "mapping(address => mapping(address => uint256))",
        "numberOfBytes": "32",
        "value": "t_mapping(t_address,t_uint256)"
      },
      "t_mapping(t_address,t_uint256)": {
        "encoding": "mapping",
        "key": "t_address",
        "label": "mapping(address => uint256)",
        "numberOfBytes": "32",
        "value": "t_uint256"
      },
      "t_uint256": {
        "encoding": "inplace",
        "label": "uint256",
        "numberOfBytes": "32"
      }
    }
  }
}