{
  "address": "0xE58b21e51520797f5335a235e4d74B865C7c08b0",
  "abi": [
    {
      "inputs": [],
      "name": "DEFAULT_SINGLETON",
      "outputs": [
        {
          "internalType": "address",
          "name": "",
          "type": "address"
        }
      ],
      "stateMutability": "view",
      "type": "function"
    },
    {
      "inputs": [],
      "name": "TREASURY",
      "outputs": [
        {
          "internalType": "address",
          "name": "",
          "type": "address"
        }
      ],
      "stateMutability": "view",
      "type": "function"
    },
    {
      "inputs": [],
      "name": "execFixSingleton",
      "outputs": [],
      "stateMutability": "nonpayable",
      "type": "function"
    },
    {
      "inputs": [],
      "name": "fixSingleton",
      "outputs": [],
      "stateMutability": "nonpayable",
      "type": "function"
    },
    {
      "inputs": [],
      "name": "singleton",
      "outputs": [
        {
          "internalType": "address",
          "name": "",
          "type": "address"
        }
      ],
      "stateMutability": "view",
      "type": "function"
    }
  ],
  "transactionHash": "0x562523a1bf8d50c42a1de83c6d2d1ac43410efcb12f5bb2e6b733f29ce76ba01",
  "args": [],
  "numDeployments": 1,
  "solcInputHash": "f05cb8a6c79d3435a80dbeedd375d58d",
  "bytecode": "0x6080604052348015600f57600080fd5b506103338061001f6000396000f3fe608060405234801561001057600080fd5b50600436106100575760003560e01c80632d2c55651461005c5780636134bc1f14610093578063943485d91461009d578063b62654fb146100c8578063d953bd75146100db575b600080fd5b610077736e3fddab68bf1ebaf9dacf9f7907c7bc0951d1dc81565b6040516001600160a01b03909116815260200160405180910390f35b61009b6100f6565b005b61009b600080546001600160a01b03191673fb1bffc9d739b8d520daf37df666da4c687191ea179055565b600054610077906001600160a01b031681565b61007773fb1bffc9d739b8d520daf37df666da4c687191ea81565b6040805160048082526024820183526020820180516001600160e01b031663943485d960e01b179052915163468721a760e01b8152736e3fddab68bf1ebaf9dacf9f7907c7bc0951d1dc9263468721a79261015a9230926000929160019101610260565b6020604051808303816000875af1158015610179573d6000803e3d6000fd5b505050506040513d601f19601f8201168201806040525081019061019d91906102d4565b50604080516001602482018190523060448084019190915283518084039091018152606490920183526020820180516001600160e01b0316637004e7ef60e11b179052915163468721a760e01b8152736e3fddab68bf1ebaf9dacf9f7907c7bc0951d1dc9263468721a79261021a92859260009291600401610260565b6020604051808303816000875af1158015610239573d6000803e3d6000fd5b505050506040513d601f19601f8201168201806040525081019061025d91906102d4565b50565b60018060a01b0385168152836020820152608060408201526000835180608084015260005b818110156102a257602081870181015160a0868401015201610285565b50600060a0828501015260a0601f19601f8301168401019150506102cb606083018460ff169052565b95945050505050565b6000602082840312156102e657600080fd5b815180151581146102f657600080fd5b939250505056fea26469706673582212201803b58c45ac2388bae9a4c0de9c678db792f9208668e559555508bc6dcfa7d964736f6c634300081c0033",
  "libraries": {},
  "devdoc": {
    "kind": "dev",
    "methods": {},
    "version": 1
  },
  "userdoc": {
    "kind": "user",
    "methods": {},
    "version": 1
  },
  "storageLayout": {
    "storage": [
      {
        "astId": 30,
        "contract": "contracts/TempPlumeSafeModule.sol:TempPlumeSafeModule",
        "label": "singleton",
        "offset": 0,
        "slot": "0",
        "type": "t_address"
      }
    ],
    "types": {
      "t_address": {
        "encoding": "inplace",
        "label": "address",
        "numberOfBytes": "20"
      }
    }
  }
}