{
  "_format": "hh-sol-artifact-1",
  "contractName": "OETHZapper",
  "sourceName": "contracts/vault/OETHZapper.sol",
  "abi": [
    {
      "inputs": [
        {
          "internalType": "address",
          "name": "_oeth",
          "type": "address"
        },
        {
          "internalType": "address",
          "name": "_vault",
          "type": "address"
        }
      ],
      "stateMutability": "nonpayable",
      "type": "constructor"
    },
    {
      "anonymous": false,
      "inputs": [
        {
          "indexed": true,
          "internalType": "address",
          "name": "minter",
          "type": "address"
        },
        {
          "indexed": true,
          "internalType": "address",
          "name": "asset",
          "type": "address"
        },
        {
          "indexed": false,
          "internalType": "uint256",
          "name": "amount",
          "type": "uint256"
        }
      ],
      "name": "Zap",
      "type": "event"
    },
    {
      "inputs": [],
      "name": "deposit",
      "outputs": [
        {
          "internalType": "uint256",
          "name": "",
          "type": "uint256"
        }
      ],
      "stateMutability": "payable",
      "type": "function"
    },
    {
      "inputs": [
        {
          "internalType": "uint256",
          "name": "amount",
          "type": "uint256"
        },
        {
          "internalType": "uint256",
          "name": "minOETH",
          "type": "uint256"
        }
      ],
      "name": "depositSFRXETH",
      "outputs": [
        {
          "internalType": "uint256",
          "name": "",
          "type": "uint256"
        }
      ],
      "stateMutability": "nonpayable",
      "type": "function"
    },
    {
      "inputs": [],
      "name": "frxeth",
      "outputs": [
        {
          "internalType": "contract IERC20",
          "name": "",
          "type": "address"
        }
      ],
      "stateMutability": "view",
      "type": "function"
    },
    {
      "inputs": [],
      "name": "oeth",
      "outputs": [
        {
          "internalType": "contract IERC20",
          "name": "",
          "type": "address"
        }
      ],
      "stateMutability": "view",
      "type": "function"
    },
    {
      "inputs": [],
      "name": "sfrxeth",
      "outputs": [
        {
          "internalType": "contract ISfrxETH",
          "name": "",
          "type": "address"
        }
      ],
      "stateMutability": "view",
      "type": "function"
    },
    {
      "inputs": [],
      "name": "vault",
      "outputs": [
        {
          "internalType": "contract IVault",
          "name": "",
          "type": "address"
        }
      ],
      "stateMutability": "view",
      "type": "function"
    },
    {
      "inputs": [],
      "name": "weth",
      "outputs": [
        {
          "internalType": "contract IWETH9",
          "name": "",
          "type": "address"
        }
      ],
      "stateMutability": "view",
      "type": "function"
    },
    {
      "stateMutability": "payable",
      "type": "receive"
    }
  ],
  "bytecode": "0x60c060405234801561001057600080fd5b5060405161091038038061091083398101604081905261002f91610198565b6001600160601b0319606083811b821660805282901b1660a05260405163095ea7b360e01b81526001600160a01b0382166004820152600019602482015273c02aaa39b223fe8d0a0e5c4f27ead9083c756cc29063095ea7b390604401602060405180830381600087803b1580156100a657600080fd5b505af11580156100ba573d6000803e3d6000fd5b505050506040513d601f19601f820116820180604052508101906100de91906101cb565b5060405163095ea7b360e01b81526001600160a01b03821660048201526000196024820152735e8422345238f34275888049021821e8e08caa1f9063095ea7b390604401602060405180830381600087803b15801561013c57600080fd5b505af1158015610150573d6000803e3d6000fd5b505050506040513d601f19601f8201168201806040525081019061017491906101cb565b5050506101f4565b80516001600160a01b038116811461019357600080fd5b919050565b600080604083850312156101ab57600080fd5b6101b48361017c565b91506101c26020840161017c565b90509250929050565b6000602082840312156101dd57600080fd5b815180151581146101ed57600080fd5b9392505050565b60805160601c60a05160601c6106dc6102346000396000818161019a015261044a015260008181610130015281816104bf01526105b401526106dc6000f3fe6080604052600436106100745760003560e01c8063ccfe2a691161004e578063ccfe2a691461011e578063d0e30db014610152578063d443e97d14610168578063fbfa77cf1461018857600080fd5b80633fc8cef3146100895780636f708a9d146100ce578063a07311af146100f657600080fd5b36610084576100816101bc565b50005b600080fd5b34801561009557600080fd5b506100b173c02aaa39b223fe8d0a0e5c4f27ead9083c756cc281565b6040516001600160a01b0390911681526020015b60405180910390f35b3480156100da57600080fd5b506100b1735e8422345238f34275888049021821e8e08caa1f81565b34801561010257600080fd5b506100b173ac3e018457b222d93114458476f3e3416abbe38f81565b34801561012a57600080fd5b506100b17f000000000000000000000000000000000000000000000000000000000000000081565b61015a6101bc565b6040519081526020016100c5565b34801561017457600080fd5b5061015a610183366004610684565b610299565b34801561019457600080fd5b506100b17f000000000000000000000000000000000000000000000000000000000000000081565b60008047905073c02aaa39b223fe8d0a0e5c4f27ead9083c756cc26001600160a01b031663d0e30db0826040518263ffffffff1660e01b81526004016000604051808303818588803b15801561021157600080fd5b505af1158015610225573d6000803e3d6000fd5b505060405184815273eeeeeeeeeeeeeeeeeeeeeeeeeeeeeeeeeeeeeeee93503392507f9d0b99c299bdb5656c0c9db6e1886c612db5c2881760ea54ab244f6338b4ebd6915060200160405180910390a361029373c02aaa39b223fe8d0a0e5c4f27ead9083c756cc28261039e565b91505090565b604051635d043b2960e11b81526004810183905230602482015233604482015260009073ac3e018457b222d93114458476f3e3416abbe38f9063ba08765290606401602060405180830381600087803b1580156102f557600080fd5b505af1158015610309573d6000803e3d6000fd5b505050506040513d601f19601f8201168201806040525081019061032d919061066b565b5060405183815273ac3e018457b222d93114458476f3e3416abbe38f9033907f9d0b99c299bdb5656c0c9db6e1886c612db5c2881760ea54ab244f6338b4ebd69060200160405180910390a3610397735e8422345238f34275888049021821e8e08caa1f8361039e565b9392505050565b6040516370a0823160e01b815230600482015260009081906001600160a01b038516906370a082319060240160206040518083038186803b1580156103e257600080fd5b505afa1580156103f6573d6000803e3d6000fd5b505050506040513d601f19601f8201168201806040525081019061041a919061066b565b604051630ab714fb60e11b81526001600160a01b03868116600483015260248201839052604482018690529192507f00000000000000000000000000000000000000000000000000000000000000009091169063156e29f690606401600060405180830381600087803b15801561049057600080fd5b505af11580156104a4573d6000803e3d6000fd5b50506040516370a0823160e01b8152306004820152600092507f00000000000000000000000000000000000000000000000000000000000000006001600160a01b031691506370a082319060240160206040518083038186803b15801561050a57600080fd5b505afa15801561051e573d6000803e3d6000fd5b505050506040513d601f19601f82011682018060405250810190610542919061066b565b9050838110156105985760405162461bcd60e51b815260206004820152601960248201527f5a61707065723a206e6f7420656e6f756768206d696e74656400000000000000604482015260640160405180910390fd5b60405163a9059cbb60e01b8152336004820152602481018290527f00000000000000000000000000000000000000000000000000000000000000006001600160a01b03169063a9059cbb90604401602060405180830381600087803b15801561060057600080fd5b505af1158015610614573d6000803e3d6000fd5b505050506040513d601f19601f820116820180604052508101906106389190610649565b61064157600080fd5b949350505050565b60006020828403121561065b57600080fd5b8151801515811461039757600080fd5b60006020828403121561067d57600080fd5b5051919050565b6000806040838503121561069757600080fd5b5050803592602090910135915056fea2646970667358221220f5f670173d99f62fa4b62b0fa3f719c63e881f37d20d2de7ee51ff7674dfa72664736f6c63430008070033",
  "linkReferences": {},
  "deployedLinkReferences": {}
}