{
  "address": "0xa3f54f30cDefaBd9527FF11ad51Ba20c3b77ffDD",
  "abi": [
    {
      "inputs": [
        {
          "internalType": "address",
          "name": "_strategy",
          "type": "address"
        }
      ],
      "stateMutability": "nonpayable",
      "type": "constructor"
    },
    {
      "anonymous": false,
      "inputs": [
        {
          "indexed": true,
          "internalType": "address",
          "name": "previousGovernor",
          "type": "address"
        },
        {
          "indexed": true,
          "internalType": "address",
          "name": "newGovernor",
          "type": "address"
        }
      ],
      "name": "GovernorshipTransferred",
      "type": "event"
    },
    {
      "anonymous": false,
      "inputs": [
        {
          "indexed": true,
          "internalType": "address",
          "name": "previousGovernor",
          "type": "address"
        },
        {
          "indexed": true,
          "internalType": "address",
          "name": "newGovernor",
          "type": "address"
        }
      ],
      "name": "PendingGovernorshipTransfer",
      "type": "event"
    },
    {
      "inputs": [],
      "name": "STRATEGY",
      "outputs": [
        {
          "internalType": "address",
          "name": "",
          "type": "address"
        }
      ],
      "stateMutability": "view",
      "type": "function"
    },
    {
      "inputs": [],
      "name": "claimGovernance",
      "outputs": [],
      "stateMutability": "nonpayable",
      "type": "function"
    },
    {
      "inputs": [],
      "name": "collect",
      "outputs": [
        {
          "internalType": "uint256",
          "name": "eth",
          "type": "uint256"
        }
      ],
      "stateMutability": "nonpayable",
      "type": "function"
    },
    {
      "inputs": [],
      "name": "governor",
      "outputs": [
        {
          "internalType": "address",
          "name": "",
          "type": "address"
        }
      ],
      "stateMutability": "view",
      "type": "function"
    },
    {
      "inputs": [],
      "name": "isGovernor",
      "outputs": [
        {
          "internalType": "bool",
          "name": "",
          "type": "bool"
        }
      ],
      "stateMutability": "view",
      "type": "function"
    },
    {
      "inputs": [
        {
          "internalType": "address",
          "name": "_newGovernor",
          "type": "address"
        }
      ],
      "name": "transferGovernance",
      "outputs": [],
      "stateMutability": "nonpayable",
      "type": "function"
    }
  ],
  "transactionHash": "0xa7a9c1f0210822c01adc6baec616c8b15880fa006bfb44e2fd11e8eed5c4d79e",
  "args": [
    "0xcf4a9e80Ddb173cc17128A361B98B9A140e3932E"
  ],
  "numDeployments": 1,
  "solcInputHash": "66dbdc9fbde8f1c7cc59f29d272eb661",
  "bytecode": "0x60a060405234801561001057600080fd5b506040516106fe3803806106fe83398101604081905261002f916100a1565b610045336000805160206106de83398151915255565b6000805160206106de833981519152546040516001600160a01b03909116906000907fc7c0c772add429241571afb3805861fb3cfa2af374534088b76cdb4325a87e9a908290a360601b6001600160601b0319166080526100d1565b6000602082840312156100b357600080fd5b81516001600160a01b03811681146100ca57600080fd5b9392505050565b60805160601c6105e26100fc600039600081816091015281816102d8015261035201526105e26000f3fe608060405234801561001057600080fd5b50600436106100625760003560e01c80630c340a2414610067578063185025ef1461008c5780635d36b190146100b3578063c7af3352146100bd578063d38bfff4146100d5578063e5225381146100e8575b600080fd5b61006f6100fe565b6040516001600160a01b0390911681526020015b60405180910390f35b61006f7f000000000000000000000000000000000000000000000000000000000000000081565b6100bb61011b565b005b6100c56101c6565b6040519015158152602001610083565b6100bb6100e336600461055c565b6101f7565b6100f06102cb565b604051908152602001610083565b600061011660008051602061058d8339815191525490565b905090565b7f44c4d30b2eaad5130ad70c3ba6972730566f3e6359ab83e800d905c61b1c51db546001600160a01b0316336001600160a01b0316146101bb5760405162461bcd60e51b815260206004820152603060248201527f4f6e6c79207468652070656e64696e6720476f7665726e6f722063616e20636f60448201526f6d706c6574652074686520636c61696d60801b60648201526084015b60405180910390fd5b6101c43361037a565b565b60006101de60008051602061058d8339815191525490565b6001600160a01b0316336001600160a01b031614905090565b6101ff6101c6565b61024b5760405162461bcd60e51b815260206004820152601a60248201527f43616c6c6572206973206e6f742074686520476f7665726e6f7200000000000060448201526064016101b2565b610273817f44c4d30b2eaad5130ad70c3ba6972730566f3e6359ab83e800d905c61b1c51db55565b806001600160a01b031661029360008051602061058d8339815191525490565b6001600160a01b03167fa39cc5eb22d0f34d8beaefee8a3f17cc229c1a1d1ef87a5ad47313487b1c4f0d60405160405180910390a350565b6000336001600160a01b037f000000000000000000000000000000000000000000000000000000000000000016146103455760405162461bcd60e51b815260206004820152601a60248201527f43616c6c6572206973206e6f742074686520537472617465677900000000000060448201526064016101b2565b50478015610377576103777f00000000000000000000000000000000000000000000000000000000000000008261043e565b90565b6001600160a01b0381166103d05760405162461bcd60e51b815260206004820152601a60248201527f4e657720476f7665726e6f72206973206164647265737328302900000000000060448201526064016101b2565b806001600160a01b03166103f060008051602061058d8339815191525490565b6001600160a01b03167fc7c0c772add429241571afb3805861fb3cfa2af374534088b76cdb4325a87e9a60405160405180910390a361043b8160008051602061058d83398151915255565b50565b8047101561048e5760405162461bcd60e51b815260206004820152601d60248201527f416464726573733a20696e73756666696369656e742062616c616e636500000060448201526064016101b2565b6000826001600160a01b03168260405160006040518083038185875af1925050503d80600081146104db576040519150601f19603f3d011682016040523d82523d6000602084013e6104e0565b606091505b50509050806105575760405162461bcd60e51b815260206004820152603a60248201527f416464726573733a20756e61626c6520746f2073656e642076616c75652c207260448201527f6563697069656e74206d6179206861766520726576657274656400000000000060648201526084016101b2565b505050565b60006020828403121561056e57600080fd5b81356001600160a01b038116811461058557600080fd5b939250505056fe7bea13895fa79d2831e0a9e28edede30099005a50d652d8957cf8a607ee6ca4aa26469706673582212200be77de36795d09032129c2625dac1fb5df5aa816a58c269aa5090717764a41664736f6c634300080700337bea13895fa79d2831e0a9e28edede30099005a50d652d8957cf8a607ee6ca4a",
  "libraries": {},
  "devdoc": {
    "author": "Origin Protocol Inc",
    "kind": "dev",
    "methods": {
      "collect()": {
        "returns": {
          "eth": "The amount of execution rewards that were sent to the Native Staking Strategy"
        }
      },
      "constructor": {
        "params": {
          "_strategy": "Address of the Native Staking Strategy"
        }
      },
      "transferGovernance(address)": {
        "params": {
          "_newGovernor": "Address of the new Governor"
        }
      }
    },
    "title": "Fee Accumulator for Native Staking SSV Strategy",
    "version": 1
  },
  "userdoc": {
    "kind": "user",
    "methods": {
      "STRATEGY()": {
        "notice": "The address of the Native Staking Strategy"
      },
      "claimGovernance()": {
        "notice": "Claim Governance of the contract to a new account (`newGovernor`). Can only be called by the new Governor."
      },
      "collect()": {
        "notice": "sends all ETH in this FeeAccumulator contract to the Native Staking Strategy."
      },
      "governor()": {
        "notice": "Returns the address of the current Governor."
      },
      "isGovernor()": {
        "notice": "Returns true if the caller is the current Governor."
      },
      "transferGovernance(address)": {
        "notice": "Transfers Governance of the contract to a new account (`newGovernor`). Can only be called by the current Governor. Must be claimed for this to complete"
      }
    },
    "notice": "Receives execution rewards which includes tx fees and MEV rewards like tx priority and tx ordering. It does NOT include swept ETH from beacon chain consensus rewards or full validator withdrawals.",
    "version": 1
  },
  "storageLayout": {
    "storage": [],
    "types": null
  }
}