{
  "address": "0x33Eeb0996f6981ff7d11F643630734856BEc09f5",
  "abi": [
    {
      "inputs": [
        {
          "components": [
            {
              "internalType": "address",
              "name": "platformAddress",
              "type": "address"
            },
            {
              "internalType": "address",
              "name": "vaultAddress",
              "type": "address"
            }
          ],
          "internalType": "struct InitializableAbstractStrategy.BaseStrategyConfig",
          "name": "_baseConfig",
          "type": "tuple"
        },
        {
          "internalType": "address",
          "name": "_wethAddress",
          "type": "address"
        },
        {
          "internalType": "address",
          "name": "_ssvToken",
          "type": "address"
        },
        {
          "internalType": "address",
          "name": "_ssvNetwork",
          "type": "address"
        },
        {
          "internalType": "address",
          "name": "_feeAccumulator",
          "type": "address"
        },
        {
          "internalType": "address",
          "name": "_beaconChainDepositContract",
          "type": "address"
        }
      ],
      "stateMutability": "nonpayable",
      "type": "constructor"
    },
    {
      "anonymous": false,
      "inputs": [
        {
          "indexed": false,
          "internalType": "uint256",
          "name": "amount",
          "type": "uint256"
        }
      ],
      "name": "AccountingBeaconChainRewards",
      "type": "event"
    },
    {
      "anonymous": false,
      "inputs": [
        {
          "indexed": false,
          "internalType": "uint256",
          "name": "noOfValidators",
          "type": "uint256"
        },
        {
          "indexed": false,
          "internalType": "uint256",
          "name": "remainingValidators",
          "type": "uint256"
        },
        {
          "indexed": false,
          "internalType": "uint256",
          "name": "wethSentToVault",
          "type": "uint256"
        }
      ],
      "name": "AccountingFullyWithdrawnValidator",
      "type": "event"
    },
    {
      "anonymous": false,
      "inputs": [
        {
          "indexed": false,
          "internalType": "address",
          "name": "oldAddress",
          "type": "address"
        },
        {
          "indexed": false,
          "internalType": "address",
          "name": "newAddress",
          "type": "address"
        }
      ],
      "name": "AccountingGovernorAddressChanged",
      "type": "event"
    },
    {
      "anonymous": false,
      "inputs": [
        {
          "indexed": false,
          "internalType": "uint256",
          "name": "oldActiveDepositedValidators",
          "type": "uint256"
        },
        {
          "indexed": false,
          "internalType": "uint256",
          "name": "activeDepositedValidators",
          "type": "uint256"
        },
        {
          "indexed": false,
          "internalType": "uint256",
          "name": "oldBeaconChainRewards",
          "type": "uint256"
        },
        {
          "indexed": false,
          "internalType": "uint256",
          "name": "beaconChainRewards",
          "type": "uint256"
        },
        {
          "indexed": false,
          "internalType": "uint256",
          "name": "ethToWeth",
          "type": "uint256"
        },
        {
          "indexed": false,
          "internalType": "uint256",
          "name": "wethToBeSentToVault",
          "type": "uint256"
        }
      ],
      "name": "AccountingManuallyFixed",
      "type": "event"
    },
    {
      "anonymous": false,
      "inputs": [
        {
          "indexed": false,
          "internalType": "uint256",
          "name": "remainingValidators",
          "type": "uint256"
        },
        {
          "indexed": false,
          "internalType": "uint256",
          "name": "wethSentToVault",
          "type": "uint256"
        }
      ],
      "name": "AccountingValidatorSlashed",
      "type": "event"
    },
    {
      "anonymous": false,
      "inputs": [
        {
          "indexed": true,
          "internalType": "address",
          "name": "_asset",
          "type": "address"
        },
        {
          "indexed": false,
          "internalType": "address",
          "name": "_pToken",
          "type": "address"
        },
        {
          "indexed": false,
          "internalType": "uint256",
          "name": "_amount",
          "type": "uint256"
        }
      ],
      "name": "Deposit",
      "type": "event"
    },
    {
      "anonymous": false,
      "inputs": [
        {
          "indexed": false,
          "internalType": "bytes",
          "name": "pubkey",
          "type": "bytes"
        },
        {
          "indexed": false,
          "internalType": "uint256",
          "name": "amount",
          "type": "uint256"
        },
        {
          "indexed": false,
          "internalType": "bytes",
          "name": "withdrawal_credentials",
          "type": "bytes"
        }
      ],
      "name": "ETHStaked",
      "type": "event"
    },
    {
      "anonymous": false,
      "inputs": [
        {
          "indexed": false,
          "internalType": "uint256",
          "name": "oldStart",
          "type": "uint256"
        },
        {
          "indexed": false,
          "internalType": "uint256",
          "name": "oldEnd",
          "type": "uint256"
        },
        {
          "indexed": false,
          "internalType": "uint256",
          "name": "start",
          "type": "uint256"
        },
        {
          "indexed": false,
          "internalType": "uint256",
          "name": "end",
          "type": "uint256"
        }
      ],
      "name": "FuseIntervalUpdated",
      "type": "event"
    },
    {
      "anonymous": false,
      "inputs": [
        {
          "indexed": true,
          "internalType": "address",
          "name": "previousGovernor",
          "type": "address"
        },
        {
          "indexed": true,
          "internalType": "address",
          "name": "newGovernor",
          "type": "address"
        }
      ],
      "name": "GovernorshipTransferred",
      "type": "event"
    },
    {
      "anonymous": false,
      "inputs": [
        {
          "indexed": false,
          "internalType": "address",
          "name": "_oldHarvesterAddress",
          "type": "address"
        },
        {
          "indexed": false,
          "internalType": "address",
          "name": "_newHarvesterAddress",
          "type": "address"
        }
      ],
      "name": "HarvesterAddressesUpdated",
      "type": "event"
    },
    {
      "anonymous": false,
      "inputs": [
        {
          "indexed": true,
          "internalType": "address",
          "name": "_asset",
          "type": "address"
        },
        {
          "indexed": false,
          "internalType": "address",
          "name": "_pToken",
          "type": "address"
        }
      ],
      "name": "PTokenAdded",
      "type": "event"
    },
    {
      "anonymous": false,
      "inputs": [
        {
          "indexed": true,
          "internalType": "address",
          "name": "_asset",
          "type": "address"
        },
        {
          "indexed": false,
          "internalType": "address",
          "name": "_pToken",
          "type": "address"
        }
      ],
      "name": "PTokenRemoved",
      "type": "event"
    },
    {
      "anonymous": false,
      "inputs": [
        {
          "indexed": false,
          "internalType": "address",
          "name": "account",
          "type": "address"
        }
      ],
      "name": "Paused",
      "type": "event"
    },
    {
      "anonymous": false,
      "inputs": [
        {
          "indexed": true,
          "internalType": "address",
          "name": "previousGovernor",
          "type": "address"
        },
        {
          "indexed": true,
          "internalType": "address",
          "name": "newGovernor",
          "type": "address"
        }
      ],
      "name": "PendingGovernorshipTransfer",
      "type": "event"
    },
    {
      "anonymous": false,
      "inputs": [
        {
          "indexed": false,
          "internalType": "address",
          "name": "oldAddress",
          "type": "address"
        },
        {
          "indexed": false,
          "internalType": "address",
          "name": "newAddress",
          "type": "address"
        }
      ],
      "name": "RegistratorAddressChanged",
      "type": "event"
    },
    {
      "anonymous": false,
      "inputs": [
        {
          "indexed": false,
          "internalType": "address[]",
          "name": "_oldAddresses",
          "type": "address[]"
        },
        {
          "indexed": false,
          "internalType": "address[]",
          "name": "_newAddresses",
          "type": "address[]"
        }
      ],
      "name": "RewardTokenAddressesUpdated",
      "type": "event"
    },
    {
      "anonymous": false,
      "inputs": [
        {
          "indexed": false,
          "internalType": "address",
          "name": "recipient",
          "type": "address"
        },
        {
          "indexed": false,
          "internalType": "address",
          "name": "rewardToken",
          "type": "address"
        },
        {
          "indexed": false,
          "internalType": "uint256",
          "name": "amount",
          "type": "uint256"
        }
      ],
      "name": "RewardTokenCollected",
      "type": "event"
    },
    {
      "anonymous": false,
      "inputs": [
        {
          "indexed": false,
          "internalType": "bytes",
          "name": "pubkey",
          "type": "bytes"
        },
        {
          "indexed": false,
          "internalType": "uint64[]",
          "name": "operatorIds",
          "type": "uint64[]"
        }
      ],
      "name": "SSVValidatorExitCompleted",
      "type": "event"
    },
    {
      "anonymous": false,
      "inputs": [
        {
          "indexed": false,
          "internalType": "bytes",
          "name": "pubkey",
          "type": "bytes"
        },
        {
          "indexed": false,
          "internalType": "uint64[]",
          "name": "operatorIds",
          "type": "uint64[]"
        }
      ],
      "name": "SSVValidatorExitInitiated",
      "type": "event"
    },
    {
      "anonymous": false,
      "inputs": [
        {
          "indexed": false,
          "internalType": "bytes",
          "name": "pubkey",
          "type": "bytes"
        },
        {
          "indexed": false,
          "internalType": "uint64[]",
          "name": "operatorIds",
          "type": "uint64[]"
        }
      ],
      "name": "SSVValidatorRegistered",
      "type": "event"
    },
    {
      "anonymous": false,
      "inputs": [
        {
          "indexed": false,
          "internalType": "address",
          "name": "account",
          "type": "address"
        }
      ],
      "name": "Unpaused",
      "type": "event"
    },
    {
      "anonymous": false,
      "inputs": [
        {
          "indexed": true,
          "internalType": "address",
          "name": "_asset",
          "type": "address"
        },
        {
          "indexed": false,
          "internalType": "address",
          "name": "_pToken",
          "type": "address"
        },
        {
          "indexed": false,
          "internalType": "uint256",
          "name": "_amount",
          "type": "uint256"
        }
      ],
      "name": "Withdrawal",
      "type": "event"
    },
    {
      "inputs": [],
      "name": "BEACON_CHAIN_DEPOSIT_CONTRACT",
      "outputs": [
        {
          "internalType": "address",
          "name": "",
          "type": "address"
        }
      ],
      "stateMutability": "view",
      "type": "function"
    },
    {
      "inputs": [],
      "name": "FEE_ACCUMULATOR_ADDRESS",
      "outputs": [
        {
          "internalType": "address",
          "name": "",
          "type": "address"
        }
      ],
      "stateMutability": "view",
      "type": "function"
    },
    {
      "inputs": [],
      "name": "MAX_STAKE",
      "outputs": [
        {
          "internalType": "uint256",
          "name": "",
          "type": "uint256"
        }
      ],
      "stateMutability": "view",
      "type": "function"
    },
    {
      "inputs": [],
      "name": "SSV_NETWORK_ADDRESS",
      "outputs": [
        {
          "internalType": "address",
          "name": "",
          "type": "address"
        }
      ],
      "stateMutability": "view",
      "type": "function"
    },
    {
      "inputs": [],
      "name": "SSV_TOKEN_ADDRESS",
      "outputs": [
        {
          "internalType": "address",
          "name": "",
          "type": "address"
        }
      ],
      "stateMutability": "view",
      "type": "function"
    },
    {
      "inputs": [],
      "name": "VAULT_ADDRESS",
      "outputs": [
        {
          "internalType": "address",
          "name": "",
          "type": "address"
        }
      ],
      "stateMutability": "view",
      "type": "function"
    },
    {
      "inputs": [],
      "name": "WETH_TOKEN_ADDRESS",
      "outputs": [
        {
          "internalType": "address",
          "name": "",
          "type": "address"
        }
      ],
      "stateMutability": "view",
      "type": "function"
    },
    {
      "inputs": [],
      "name": "accountingGovernor",
      "outputs": [
        {
          "internalType": "address",
          "name": "",
          "type": "address"
        }
      ],
      "stateMutability": "view",
      "type": "function"
    },
    {
      "inputs": [
        {
          "internalType": "address",
          "name": "",
          "type": "address"
        }
      ],
      "name": "assetToPToken",
      "outputs": [
        {
          "internalType": "address",
          "name": "",
          "type": "address"
        }
      ],
      "stateMutability": "view",
      "type": "function"
    },
    {
      "inputs": [
        {
          "internalType": "address",
          "name": "_asset",
          "type": "address"
        }
      ],
      "name": "checkBalance",
      "outputs": [
        {
          "internalType": "uint256",
          "name": "balance",
          "type": "uint256"
        }
      ],
      "stateMutability": "view",
      "type": "function"
    },
    {
      "inputs": [],
      "name": "claimGovernance",
      "outputs": [],
      "stateMutability": "nonpayable",
      "type": "function"
    },
    {
      "inputs": [],
      "name": "collectRewardTokens",
      "outputs": [],
      "stateMutability": "nonpayable",
      "type": "function"
    },
    {
      "inputs": [],
      "name": "consensusRewards",
      "outputs": [
        {
          "internalType": "uint256",
          "name": "",
          "type": "uint256"
        }
      ],
      "stateMutability": "view",
      "type": "function"
    },
    {
      "inputs": [
        {
          "internalType": "address",
          "name": "_asset",
          "type": "address"
        },
        {
          "internalType": "uint256",
          "name": "_amount",
          "type": "uint256"
        }
      ],
      "name": "deposit",
      "outputs": [],
      "stateMutability": "nonpayable",
      "type": "function"
    },
    {
      "inputs": [],
      "name": "depositAll",
      "outputs": [],
      "stateMutability": "nonpayable",
      "type": "function"
    },
    {
      "inputs": [
        {
          "internalType": "uint64[]",
          "name": "operatorIds",
          "type": "uint64[]"
        },
        {
          "internalType": "uint256",
          "name": "amount",
          "type": "uint256"
        },
        {
          "components": [
            {
              "internalType": "uint32",
              "name": "validatorCount",
              "type": "uint32"
            },
            {
              "internalType": "uint64",
              "name": "networkFeeIndex",
              "type": "uint64"
            },
            {
              "internalType": "uint64",
              "name": "index",
              "type": "uint64"
            },
            {
              "internalType": "bool",
              "name": "active",
              "type": "bool"
            },
            {
              "internalType": "uint256",
              "name": "balance",
              "type": "uint256"
            }
          ],
          "internalType": "struct Cluster",
          "name": "cluster",
          "type": "tuple"
        }
      ],
      "name": "depositSSV",
      "outputs": [],
      "stateMutability": "nonpayable",
      "type": "function"
    },
    {
      "inputs": [],
      "name": "doAccounting",
      "outputs": [
        {
          "internalType": "bool",
          "name": "accountingValid",
          "type": "bool"
        }
      ],
      "stateMutability": "nonpayable",
      "type": "function"
    },
    {
      "inputs": [
        {
          "internalType": "bytes",
          "name": "publicKey",
          "type": "bytes"
        },
        {
          "internalType": "uint64[]",
          "name": "operatorIds",
          "type": "uint64[]"
        }
      ],
      "name": "exitSsvValidator",
      "outputs": [],
      "stateMutability": "nonpayable",
      "type": "function"
    },
    {
      "inputs": [],
      "name": "fuseIntervalEnd",
      "outputs": [
        {
          "internalType": "uint256",
          "name": "",
          "type": "uint256"
        }
      ],
      "stateMutability": "view",
      "type": "function"
    },
    {
      "inputs": [],
      "name": "fuseIntervalStart",
      "outputs": [
        {
          "internalType": "uint256",
          "name": "",
          "type": "uint256"
        }
      ],
      "stateMutability": "view",
      "type": "function"
    },
    {
      "inputs": [],
      "name": "getRewardTokenAddresses",
      "outputs": [
        {
          "internalType": "address[]",
          "name": "",
          "type": "address[]"
        }
      ],
      "stateMutability": "view",
      "type": "function"
    },
    {
      "inputs": [],
      "name": "governor",
      "outputs": [
        {
          "internalType": "address",
          "name": "",
          "type": "address"
        }
      ],
      "stateMutability": "view",
      "type": "function"
    },
    {
      "inputs": [],
      "name": "harvesterAddress",
      "outputs": [
        {
          "internalType": "address",
          "name": "",
          "type": "address"
        }
      ],
      "stateMutability": "view",
      "type": "function"
    },
    {
      "inputs": [
        {
          "internalType": "address[]",
          "name": "_rewardTokenAddresses",
          "type": "address[]"
        },
        {
          "internalType": "address[]",
          "name": "_assets",
          "type": "address[]"
        },
        {
          "internalType": "address[]",
          "name": "_pTokens",
          "type": "address[]"
        }
      ],
      "name": "initialize",
      "outputs": [],
      "stateMutability": "nonpayable",
      "type": "function"
    },
    {
      "inputs": [],
      "name": "isGovernor",
      "outputs": [
        {
          "internalType": "bool",
          "name": "",
          "type": "bool"
        }
      ],
      "stateMutability": "view",
      "type": "function"
    },
    {
      "inputs": [
        {
          "internalType": "uint256",
          "name": "_activeDepositedValidators",
          "type": "uint256"
        },
        {
          "internalType": "uint256",
          "name": "_ethToWeth",
          "type": "uint256"
        },
        {
          "internalType": "uint256",
          "name": "_wethToBeSentToVault",
          "type": "uint256"
        },
        {
          "internalType": "uint256",
          "name": "_consensusRewards",
          "type": "uint256"
        },
        {
          "internalType": "uint256",
          "name": "_ethThresholdCheck",
          "type": "uint256"
        },
        {
          "internalType": "uint256",
          "name": "_wethThresholdCheck",
          "type": "uint256"
        }
      ],
      "name": "manuallyFixAccounting",
      "outputs": [],
      "stateMutability": "nonpayable",
      "type": "function"
    },
    {
      "inputs": [],
      "name": "pause",
      "outputs": [],
      "stateMutability": "nonpayable",
      "type": "function"
    },
    {
      "inputs": [],
      "name": "paused",
      "outputs": [
        {
          "internalType": "bool",
          "name": "",
          "type": "bool"
        }
      ],
      "stateMutability": "view",
      "type": "function"
    },
    {
      "inputs": [],
      "name": "platformAddress",
      "outputs": [
        {
          "internalType": "address",
          "name": "",
          "type": "address"
        }
      ],
      "stateMutability": "view",
      "type": "function"
    },
    {
      "inputs": [
        {
          "internalType": "bytes",
          "name": "publicKey",
          "type": "bytes"
        },
        {
          "internalType": "uint64[]",
          "name": "operatorIds",
          "type": "uint64[]"
        },
        {
          "internalType": "bytes",
          "name": "sharesData",
          "type": "bytes"
        },
        {
          "internalType": "uint256",
          "name": "amount",
          "type": "uint256"
        },
        {
          "components": [
            {
              "internalType": "uint32",
              "name": "validatorCount",
              "type": "uint32"
            },
            {
              "internalType": "uint64",
              "name": "networkFeeIndex",
              "type": "uint64"
            },
            {
              "internalType": "uint64",
              "name": "index",
              "type": "uint64"
            },
            {
              "internalType": "bool",
              "name": "active",
              "type": "bool"
            },
            {
              "internalType": "uint256",
              "name": "balance",
              "type": "uint256"
            }
          ],
          "internalType": "struct Cluster",
          "name": "cluster",
          "type": "tuple"
        }
      ],
      "name": "registerSsvValidator",
      "outputs": [],
      "stateMutability": "nonpayable",
      "type": "function"
    },
    {
      "inputs": [
        {
          "internalType": "uint256",
          "name": "_assetIndex",
          "type": "uint256"
        }
      ],
      "name": "removePToken",
      "outputs": [],
      "stateMutability": "nonpayable",
      "type": "function"
    },
    {
      "inputs": [
        {
          "internalType": "bytes",
          "name": "publicKey",
          "type": "bytes"
        },
        {
          "internalType": "uint64[]",
          "name": "operatorIds",
          "type": "uint64[]"
        },
        {
          "components": [
            {
              "internalType": "uint32",
              "name": "validatorCount",
              "type": "uint32"
            },
            {
              "internalType": "uint64",
              "name": "networkFeeIndex",
              "type": "uint64"
            },
            {
              "internalType": "uint64",
              "name": "index",
              "type": "uint64"
            },
            {
              "internalType": "bool",
              "name": "active",
              "type": "bool"
            },
            {
              "internalType": "uint256",
              "name": "balance",
              "type": "uint256"
            }
          ],
          "internalType": "struct Cluster",
          "name": "cluster",
          "type": "tuple"
        }
      ],
      "name": "removeSsvValidator",
      "outputs": [],
      "stateMutability": "nonpayable",
      "type": "function"
    },
    {
      "inputs": [
        {
          "internalType": "uint256",
          "name": "",
          "type": "uint256"
        }
      ],
      "name": "rewardTokenAddresses",
      "outputs": [
        {
          "internalType": "address",
          "name": "",
          "type": "address"
        }
      ],
      "stateMutability": "view",
      "type": "function"
    },
    {
      "inputs": [],
      "name": "safeApproveAllTokens",
      "outputs": [],
      "stateMutability": "nonpayable",
      "type": "function"
    },
    {
      "inputs": [
        {
          "internalType": "address",
          "name": "_address",
          "type": "address"
        }
      ],
      "name": "setAccountingGovernor",
      "outputs": [],
      "stateMutability": "nonpayable",
      "type": "function"
    },
    {
      "inputs": [
        {
          "internalType": "uint256",
          "name": "_fuseIntervalStart",
          "type": "uint256"
        },
        {
          "internalType": "uint256",
          "name": "_fuseIntervalEnd",
          "type": "uint256"
        }
      ],
      "name": "setFuseInterval",
      "outputs": [],
      "stateMutability": "nonpayable",
      "type": "function"
    },
    {
      "inputs": [
        {
          "internalType": "address",
          "name": "_harvesterAddress",
          "type": "address"
        }
      ],
      "name": "setHarvesterAddress",
      "outputs": [],
      "stateMutability": "nonpayable",
      "type": "function"
    },
    {
      "inputs": [
        {
          "internalType": "address",
          "name": "_asset",
          "type": "address"
        },
        {
          "internalType": "address",
          "name": "_pToken",
          "type": "address"
        }
      ],
      "name": "setPTokenAddress",
      "outputs": [],
      "stateMutability": "nonpayable",
      "type": "function"
    },
    {
      "inputs": [
        {
          "internalType": "address",
          "name": "_address",
          "type": "address"
        }
      ],
      "name": "setRegistratorAddress",
      "outputs": [],
      "stateMutability": "nonpayable",
      "type": "function"
    },
    {
      "inputs": [
        {
          "internalType": "address[]",
          "name": "_rewardTokenAddresses",
          "type": "address[]"
        }
      ],
      "name": "setRewardTokenAddresses",
      "outputs": [],
      "stateMutability": "nonpayable",
      "type": "function"
    },
    {
      "inputs": [
        {
          "components": [
            {
              "internalType": "bytes",
              "name": "pubkey",
              "type": "bytes"
            },
            {
              "internalType": "bytes",
              "name": "signature",
              "type": "bytes"
            },
            {
              "internalType": "bytes32",
              "name": "depositDataRoot",
              "type": "bytes32"
            }
          ],
          "internalType": "struct ValidatorStakeData[]",
          "name": "validators",
          "type": "tuple[]"
        }
      ],
      "name": "stakeEth",
      "outputs": [],
      "stateMutability": "nonpayable",
      "type": "function"
    },
    {
      "inputs": [
        {
          "internalType": "address",
          "name": "_asset",
          "type": "address"
        }
      ],
      "name": "supportsAsset",
      "outputs": [
        {
          "internalType": "bool",
          "name": "",
          "type": "bool"
        }
      ],
      "stateMutability": "view",
      "type": "function"
    },
    {
      "inputs": [
        {
          "internalType": "address",
          "name": "_newGovernor",
          "type": "address"
        }
      ],
      "name": "transferGovernance",
      "outputs": [],
      "stateMutability": "nonpayable",
      "type": "function"
    },
    {
      "inputs": [
        {
          "internalType": "address",
          "name": "_asset",
          "type": "address"
        },
        {
          "internalType": "uint256",
          "name": "_amount",
          "type": "uint256"
        }
      ],
      "name": "transferToken",
      "outputs": [],
      "stateMutability": "nonpayable",
      "type": "function"
    },
    {
      "inputs": [],
      "name": "validatorRegistrator",
      "outputs": [
        {
          "internalType": "address",
          "name": "",
          "type": "address"
        }
      ],
      "stateMutability": "view",
      "type": "function"
    },
    {
      "inputs": [
        {
          "internalType": "bytes32",
          "name": "",
          "type": "bytes32"
        }
      ],
      "name": "validatorsStates",
      "outputs": [
        {
          "internalType": "enum ValidatorRegistrator.VALIDATOR_STATE",
          "name": "",
          "type": "uint8"
        }
      ],
      "stateMutability": "view",
      "type": "function"
    },
    {
      "inputs": [],
      "name": "vaultAddress",
      "outputs": [
        {
          "internalType": "address",
          "name": "",
          "type": "address"
        }
      ],
      "stateMutability": "view",
      "type": "function"
    },
    {
      "inputs": [
        {
          "internalType": "address",
          "name": "_recipient",
          "type": "address"
        },
        {
          "internalType": "address",
          "name": "_asset",
          "type": "address"
        },
        {
          "internalType": "uint256",
          "name": "_amount",
          "type": "uint256"
        }
      ],
      "name": "withdraw",
      "outputs": [],
      "stateMutability": "nonpayable",
      "type": "function"
    },
    {
      "inputs": [],
      "name": "withdrawAll",
      "outputs": [],
      "stateMutability": "nonpayable",
      "type": "function"
    },
    {
      "stateMutability": "payable",
      "type": "receive"
    }
  ],
  "transactionHash": "0x0e0d8d3748c8edfcbed27ce633e93f56e28eeb325d2a5f37353585216302ac66",
  "args": [
    [
      "0x0000000000000000000000000000000000000000",
      "0x19d2bAaBA949eFfa163bFB9efB53ed8701aA5dD9"
    ],
    "0x94373a4919b3240d86ea41593d5eba789fef3848",
    "0xad45A78180961079BFaeEe349704F411dfF947C6",
    "0x38A4794cCEd47d3baf7370CcC43B560D3a1beEFA",
    "0x590B781b511e953dbFC49e7E7864A6E787aFBDCc",
    "0x4242424242424242424242424242424242424242"
  ],
  "numDeployments": 1,
  "solcInputHash": "0213c8dc30149ba5fb281c6d46803d0b",
  "bytecode": "0x610180604052600060685560006069556000606a553480156200002157600080fd5b5060405162004be238038062004be2833981016040819052620000449162000147565b85858760200151838683828262000061336200011760201b60201c565b60008051602062004bc2833981519152546040516001600160a01b03909116906000907fc7c0c772add429241571afb3805861fb3cfa2af374534088b76cdb4325a87e9a908290a36033805460ff191690556001600160601b0319606093841b811660805291831b821660a052821b811660c05293811b841660e0528551811b841661010052602090950151851b831661012052505095821b861661014052509190911b90921661016052506200022292505050565b60008051602062004bc283398151915255565b80516001600160a01b03811681146200014257600080fd5b919050565b60008060008060008086880360e08112156200016257600080fd5b60408112156200017157600080fd5b50604080519081016001600160401b0381118282101715620001a357634e487b7160e01b600052604160045260246000fd5b604052620001b1886200012a565b8152620001c1602089016200012a565b60208201529550620001d6604088016200012a565b9450620001e6606088016200012a565b9350620001f6608088016200012a565b92506200020660a088016200012a565b91506200021660c088016200012a565b90509295509295509295565b60805160601c60a05160601c60c05160601c60e05160601c6101005160601c6101205160601c6101405160601c6101605160601c614811620003b1600039600081816102c20152818161098a01526131fb01526000818161056f01526126df01526000818161044301528181610d8d01528181611bd301528181611d4c01528181612acb0152612d53015260006109560152600081816106c801528181610b2501528181611a1001528181611ad10152818161224301526124750152600081816109d301528181610c2b01528181611605015281816126af015281816127c70152612c490152600081816108a201526113560152600081816104cd0152818161079901528181610a8c01528181610f5c01528181610fe40152818161110b015281816111e6015281816117f20152818161198001528181611a3f01528181611cbd01528181611d6d015281816121bd01528181612272015281816123ef015281816124a401528181612dde01528181612e6d015281816133000152818161338501526133f901526148116000f3fe6080604052600436106102b25760003560e01c806386f78ea011610175578063c2e1e3f4116100dc578063d9caed1211610095578063dd505df61161006f578063dd505df614610978578063de5f6268146109ac578063f1188e40146109c1578063f6ca71b0146109f557600080fd5b8063d9caed1214610904578063d9f00ec714610924578063dbe55e561461094457600080fd5b8063c2e1e3f41461083e578063c7af33521461085e578063c98517c514610873578063cceab75014610890578063d38bfff4146108c4578063d5c360f6146108e457600080fd5b8063a4f98af41161012e578063a4f98af414610767578063aa388af61461077c578063ab12edf5146107c9578063ad1728cb146107e9578063af37dcbe146107fe578063bb1b918d1461081e57600080fd5b806386f78ea01461067157806387bae867146106915780639092c31c146106b65780639136616a146106ea57806396d538bb1461070a5780639da0e4621461072a57600080fd5b80635c975abb1161021957806371a735f3116101d257806371a735f3146105d15780637b2d9b2c146105f15780637e20fffa14610611578063842f5c46146106315780638456cb5914610647578063853828b61461065c57600080fd5b80635c975abb146105045780635d36b190146105285780635f5152261461053d5780636093d3801461055d57806367c7066c146105915780636ef38795146105b157600080fd5b8063430bf08a1161026b578063430bf08a14610431578063435356d11461046557806347e7ef2414610485578063484be812146104a5578063579a7e1a146104bb5780635a063f63146104ef57600080fd5b80630c340a24146103455780630ed57b3a146103775780630fc3b4c4146103975780631072cbea146103cd57806322495dc8146103ed5780633c8649591461040d57600080fd5b3661034057336001600160a01b037f0000000000000000000000000000000000000000000000000000000000000000161461033e5760405162461bcd60e51b815260206004820152602160248201527f657468206e6f742073656e742066726f6d2046656520416363756d756c61746f6044820152603960f91b60648201526084015b60405180910390fd5b005b600080fd5b34801561035157600080fd5b5061035a610a17565b6040516001600160a01b0390911681526020015b60405180910390f35b34801561038357600080fd5b5061033e610392366004613bf3565b610a34565b3480156103a357600080fd5b5061035a6103b2366004613bb9565b60a0602052600090815260409020546001600160a01b031681565b3480156103d957600080fd5b5061033e6103e8366004613c6d565b610a66565b3480156103f957600080fd5b5061033e610408366004613d61565b610b23565b34801561041957600080fd5b5061042360695481565b60405190815260200161036e565b34801561043d57600080fd5b5061035a7f000000000000000000000000000000000000000000000000000000000000000081565b34801561047157600080fd5b5061033e610480366004613cda565b610c9d565b34801561049157600080fd5b5061033e6104a0366004613c6d565b610d82565b3480156104b157600080fd5b50610423606a5481565b3480156104c757600080fd5b5061035a7f000000000000000000000000000000000000000000000000000000000000000081565b3480156104fb57600080fd5b5061033e610e13565b34801561051057600080fd5b5060335460ff165b604051901515815260200161036e565b34801561053457600080fd5b5061033e610eb2565b34801561054957600080fd5b50610423610558366004613bb9565b610f58565b34801561056957600080fd5b5061035a7f000000000000000000000000000000000000000000000000000000000000000081565b34801561059d57600080fd5b5060a45461035a906001600160a01b031681565b3480156105bd57600080fd5b5061033e6105cc366004613c99565b61108c565b3480156105dd57600080fd5b5061033e6105ec366004613f6f565b61150e565b3480156105fd57600080fd5b5061035a61060c366004613e37565b611707565b34801561061d57600080fd5b5061033e61062c36600461402b565b611731565b34801561063d57600080fd5b5061042360685481565b34801561065357600080fd5b5061033e611acf565b34801561066857600080fd5b5061033e611bc8565b34801561067d57600080fd5b5061033e61068c366004613bb9565b611d9a565b34801561069d57600080fd5b5060335461035a9061010090046001600160a01b031681565b3480156106c257600080fd5b5061035a7f000000000000000000000000000000000000000000000000000000000000000081565b3480156106f657600080fd5b5061033e610705366004613e37565b611e32565b34801561071657600080fd5b5061033e610725366004613c99565b611ffd565b34801561073657600080fd5b5061075a610745366004613e37565b60356020526000908152604090205460ff1681565b60405161036e9190614472565b34801561077357600080fd5b5061051861211d565b34801561078857600080fd5b50610518610797366004613bb9565b7f00000000000000000000000000000000000000000000000000000000000000006001600160a01b0390811691161490565b3480156107d557600080fd5b5061033e6107e4366004614009565b612587565b3480156107f557600080fd5b5061033e612698565b34801561080a57600080fd5b50606b5461035a906001600160a01b031681565b34801561082a57600080fd5b5061033e610839366004613ebb565b61275e565b34801561084a57600080fd5b5061033e610859366004613bb9565b6128d1565b34801561086a57600080fd5b5061051861295e565b34801561087f57600080fd5b506104236801bc16d674ec80000081565b34801561089c57600080fd5b5061035a7f000000000000000000000000000000000000000000000000000000000000000081565b3480156108d057600080fd5b5061033e6108df366004613bb9565b61298f565b3480156108f057600080fd5b5061033e6108ff366004613bb9565b612a33565b34801561091057600080fd5b5061033e61091f366004613c2c565b612ac0565b34801561093057600080fd5b5061033e61093f366004613e50565b612b53565b34801561095057600080fd5b5061035a7f000000000000000000000000000000000000000000000000000000000000000081565b34801561098457600080fd5b5061035a7f000000000000000000000000000000000000000000000000000000000000000081565b3480156109b857600080fd5b5061033e612d48565b3480156109cd57600080fd5b5061035a7f000000000000000000000000000000000000000000000000000000000000000081565b348015610a0157600080fd5b50610a0a612e92565b60405161036e9190614248565b6000610a2f6000805160206147bc8339815191525490565b905090565b610a3c61295e565b610a585760405162461bcd60e51b8152600401610335906144e4565b610a628282612ef4565b5050565b610a6e61295e565b610a8a5760405162461bcd60e51b8152600401610335906144e4565b7f00000000000000000000000000000000000000000000000000000000000000006001600160a01b039081169083161415610b075760405162461bcd60e51b815260206004820152601f60248201527f43616e6e6f74207472616e7366657220737570706f72746564206173736574006044820152606401610335565b610a62610b12610a17565b6001600160a01b0384169083613053565b7f00000000000000000000000000000000000000000000000000000000000000006001600160a01b031663570d8e1d6040518163ffffffff1660e01b815260040160206040518083038186803b158015610b7c57600080fd5b505afa158015610b90573d6000803e3d6000fd5b505050506040513d601f19601f82011682018060405250810190610bb49190613bd6565b6001600160a01b0316336001600160a01b031614610c145760405162461bcd60e51b815260206004820152601c60248201527f43616c6c6572206973206e6f74207468652053747261746567697374000000006044820152606401610335565b60405163bc26e7e560e01b81526001600160a01b037f0000000000000000000000000000000000000000000000000000000000000000169063bc26e7e590610c66903090879087908790600401614198565b600060405180830381600087803b158015610c8057600080fd5b505af1158015610c94573d6000803e3d6000fd5b50505050505050565b610ca561295e565b610cc15760405162461bcd60e51b8152600401610335906144e4565b600054610100900460ff1680610cda575060005460ff16155b610d3d5760405162461bcd60e51b815260206004820152602e60248201527f496e697469616c697a61626c653a20636f6e747261637420697320616c72656160448201526d191e481a5b9a5d1a585b1a5e995960921b6064820152608401610335565b600054610100900460ff16158015610d5f576000805461ffff19166101011790555b610d6a8484846130aa565b8015610d7c576000805461ff00191690555b50505050565b336001600160a01b037f00000000000000000000000000000000000000000000000000000000000000001614610dca5760405162461bcd60e51b8152600401610335906144ad565b60008051602061479c83398151915280546002811415610dfc5760405162461bcd60e51b81526004016103359061457c565b60028255610e0a8484613165565b50600190555050565b60a4546001600160a01b03163314610e6d5760405162461bcd60e51b815260206004820152601b60248201527f43616c6c6572206973206e6f74207468652048617276657374657200000000006044820152606401610335565b60008051602061479c83398151915280546002811415610e9f5760405162461bcd60e51b81526004016103359061457c565b60028255610eab6131f7565b5060019055565b7f44c4d30b2eaad5130ad70c3ba6972730566f3e6359ab83e800d905c61b1c51db546001600160a01b0316336001600160a01b031614610f4d5760405162461bcd60e51b815260206004820152603060248201527f4f6e6c79207468652070656e64696e6720476f7665726e6f722063616e20636f60448201526f6d706c6574652074686520636c61696d60801b6064820152608401610335565b610f5633613422565b565b60007f00000000000000000000000000000000000000000000000000000000000000006001600160a01b0316826001600160a01b031614610fcf5760405162461bcd60e51b8152602060048201526011602482015270155b9cdd5c1c1bdc9d195908185cdcd95d607a1b6044820152606401610335565b6040516370a0823160e01b81523060048201527f00000000000000000000000000000000000000000000000000000000000000006001600160a01b0316906370a082319060240160206040518083038186803b15801561102e57600080fd5b505afa158015611042573d6000803e3d6000fd5b505050506040513d601f19601f820116820180604052508101906110669190613ff0565b60345461107c906801bc16d674ec80000061468d565b6110869190614653565b92915050565b60335461010090046001600160a01b031633146110bb5760405162461bcd60e51b815260040161033590614545565b60335460ff16156110de5760405162461bcd60e51b81526004016103359061451b565b60006110f3826801bc16d674ec80000061468d565b6040516370a0823160e01b81523060048201529091507f00000000000000000000000000000000000000000000000000000000000000006001600160a01b0316906370a082319060240160206040518083038186803b15801561115557600080fd5b505afa158015611169573d6000803e3d6000fd5b505050506040513d601f19601f8201168201806040525081019061118d9190613ff0565b8111156111d05760405162461bcd60e51b81526020600482015260116024820152700d2dce6eaccccd2c6d2cadce840ae8aa89607b1b6044820152606401610335565b604051632e1a7d4d60e01b8152600481018290527f00000000000000000000000000000000000000000000000000000000000000006001600160a01b031690632e1a7d4d90602401600060405180830381600087803b15801561123257600080fd5b505af1158015611246573d6000803e3d6000fd5b5050505060005b82811015610d7c5760008484838181106112695761126961474c565b905060200281019061127b91906145ea565b61128590806145a4565b60405161129392919061416c565b6040805191829003909120600081815260356020529182205490925060ff16908160038111156112c5576112c5614720565b146113125760405162461bcd60e51b815260206004820152601860248201527f56616c696461746f72206e6f74207265676973746572656400000000000000006044820152606401610335565b60408051600160f81b60208201526000602182018190526bffffffffffffffffffffffff193060601b16602c830152910160405160208183030381529060405290507f00000000000000000000000000000000000000000000000000000000000000006001600160a01b031663228951188888878181106113955761139561474c565b90506020028101906113a791906145ea565b6113b190806145a4565b848b8b8a8181106113c4576113c461474c565b90506020028101906113d691906145ea565b6113e49060208101906145a4565b8d8d8c8181106113f6576113f661474c565b905060200281019061140891906145ea565b604001356040518763ffffffff1660e01b815260040161142d969594939291906143f7565b600060405180830381600087803b15801561144757600080fd5b505af115801561145b573d6000803e3d6000fd5b505050506001603460008282546114729190614653565b909155507ffeb31a79d38edb1b090d516e4df3e273651179c6f2c2ec53a9a22ae015b70ba990508787868181106114ab576114ab61474c565b90506020028101906114bd91906145ea565b6114c790806145a4565b6801bc16d674ec800000846040516114e29493929190614446565b60405180910390a150506000908152603560205260409020805460ff191660019081179091550161124d565b60335461010090046001600160a01b0316331461153d5760405162461bcd60e51b815260040161033590614545565b60335460ff16156115605760405162461bcd60e51b81526004016103359061451b565b600060356000878760405161157692919061416c565b604080519182900390912082526020820192909252016000205460ff16905060028160038111156115a9576115a9614720565b146115ee5760405162461bcd60e51b815260206004820152601560248201527456616c696461746f72206e6f742065786974696e6760581b6044820152606401610335565b6040516312b3fc1960e01b81526001600160a01b037f000000000000000000000000000000000000000000000000000000000000000016906312b3fc199061164290899089908990899089906004016143b6565b600060405180830381600087803b15801561165c57600080fd5b505af1158015611670573d6000803e3d6000fd5b505050507ff72821b8777f002ccdf6326f1242d9e0f762eb077668b67bebe640535378066d868686866040516116a9949392919061432d565b60405180910390a160036035600088886040516116c792919061416c565b60408051918290039091208252602082019290925201600020805460ff191660018360038111156116fa576116fa614720565b0217905550505050505050565b60a5818154811061171757600080fd5b6000918252602090912001546001600160a01b0316905081565b606b546001600160a01b031633146117995760405162461bcd60e51b815260206004820152602560248201527f43616c6c6572206973206e6f7420746865204163636f756e74696e6720476f7660448201526432b93737b960d91b6064820152608401610335565b60335460ff166117d85760405162461bcd60e51b815260206004820152600a6024820152691b9bdd081c185d5cd95960b21b6044820152606401610335565b6040516370a0823160e01b815230600482015247906000907f00000000000000000000000000000000000000000000000000000000000000006001600160a01b0316906370a082319060240160206040518083038186803b15801561183c57600080fd5b505afa158015611850573d6000803e3d6000fd5b505050506040513d601f19601f820116820180604052508101906118749190613ff0565b90508382111580156118865750828111155b6118d25760405162461bcd60e51b815260206004820152601960248201527f6f766572206163636f756e74696e67207468726573686f6c64000000000000006044820152606401610335565b60345460685460408051928352602083018b9052820152606081018690526080810188905260a081018790527fb2c41d2aedabd456081f30f3b116ce88de1c795a7d4ca787fef373a393f3c5db9060c00160405180910390a16034889055606885905586156119f3578187111561197e5760405162461bcd60e51b815260206004820152601060248201526f0d2dce6eaccccd2c6d2cadce8408aa8960831b6044820152606401610335565b7f00000000000000000000000000000000000000000000000000000000000000006001600160a01b031663d0e30db0886040518263ffffffff1660e01b81526004016000604051808303818588803b1580156119d957600080fd5b505af11580156119ed573d6000803e3d6000fd5b50505050505b8515611abd5760405163a9059cbb60e01b81526001600160a01b037f000000000000000000000000000000000000000000000000000000000000000081166004830152602482018890527f0000000000000000000000000000000000000000000000000000000000000000169063a9059cbb90604401602060405180830381600087803b158015611a8357600080fd5b505af1158015611a97573d6000803e3d6000fd5b505050506040513d601f19601f82011682018060405250810190611abb9190613e1a565b505b611ac56134e3565b5050505050505050565b7f00000000000000000000000000000000000000000000000000000000000000006001600160a01b031663570d8e1d6040518163ffffffff1660e01b815260040160206040518083038186803b158015611b2857600080fd5b505afa158015611b3c573d6000803e3d6000fd5b505050506040513d601f19601f82011682018060405250810190611b609190613bd6565b6001600160a01b0316336001600160a01b031614611bc05760405162461bcd60e51b815260206004820152601c60248201527f43616c6c6572206973206e6f74207468652053747261746567697374000000006044820152606401610335565b610f56613576565b336001600160a01b037f0000000000000000000000000000000000000000000000000000000000000000161480611c175750611c02610a17565b6001600160a01b0316336001600160a01b0316145b611c6f5760405162461bcd60e51b815260206004820152602360248201527f43616c6c6572206973206e6f7420746865205661756c74206f7220476f7665726044820152623737b960e91b6064820152608401610335565b60008051602061479c83398151915280546002811415611ca15760405162461bcd60e51b81526004016103359061457c565b600282556040516370a0823160e01b81523060048201526000907f00000000000000000000000000000000000000000000000000000000000000006001600160a01b0316906370a082319060240160206040518083038186803b158015611d0757600080fd5b505afa158015611d1b573d6000803e3d6000fd5b505050506040513d601f19601f82011682018060405250810190611d3f9190613ff0565b90508015611d9257611d927f00000000000000000000000000000000000000000000000000000000000000007f0000000000000000000000000000000000000000000000000000000000000000836135ce565b505060019055565b611da261295e565b611dbe5760405162461bcd60e51b8152600401610335906144e4565b603354604080516001600160a01b036101009093048316815291831660208301527f9b94424d3c6c7cdd07b0b1bcc75ac37767fac67c983dd8eff270f700add48434910160405180910390a1603380546001600160a01b0390921661010002610100600160a81b0319909216919091179055565b611e3a61295e565b611e565760405162461bcd60e51b8152600401610335906144e4565b60a1548110611e975760405162461bcd60e51b815260206004820152600d60248201526c092dcecc2d8d2c840d2dcc8caf609b1b6044820152606401610335565b600060a18281548110611eac57611eac61474c565b60009182526020808320909101546001600160a01b0390811680845260a090925260409092205460a15491935090911690611ee9906001906146ac565b831015611f6b5760a18054611f00906001906146ac565b81548110611f1057611f1061474c565b60009182526020909120015460a180546001600160a01b039092169185908110611f3c57611f3c61474c565b9060005260206000200160006101000a8154816001600160a01b0302191690836001600160a01b031602179055505b60a1805480611f7c57611f7c614736565b60008281526020808220600019908401810180546001600160a01b031990811690915593019093556001600160a01b0385811680835260a0855260409283902080549094169093559051908416815290917f16b7600acff27e39a8a96056b3d533045298de927507f5c1d97e4accde60488c910160405180910390a2505050565b61200561295e565b6120215760405162461bcd60e51b8152600401610335906144e4565b8060005b818110156120d45760008484838181106120415761204161474c565b90506020020160208101906120569190613bb9565b6001600160a01b031614156120c45760405162461bcd60e51b815260206004820152602e60248201527f43616e206e6f742073657420616e20656d70747920616464726573732061732060448201526d30903932bbb0b932103a37b5b2b760911b6064820152608401610335565b6120cd816146ef565b9050612025565b507f04c0b9649497d316554306e53678d5f5f5dbc3a06f97dec13ff4cfe98b986bbc60a5848460405161210993929190614295565b60405180910390a1610d7c60a58484613912565b60335460009061010090046001600160a01b0316331461214f5760405162461bcd60e51b815260040161033590614545565b60006068544761215f91906146ac565b9050600191506801bc16d674ec800000811061233a57600061218a6801bc16d674ec8000008361466b565b9050806034600082825461219e91906146ac565b90915550600090506121b9826801bc16d674ec80000061468d565b90507f00000000000000000000000000000000000000000000000000000000000000006001600160a01b031663d0e30db0826040518263ffffffff1660e01b81526004016000604051808303818588803b15801561221657600080fd5b505af115801561222a573d6000803e3d6000fd5b505060405163a9059cbb60e01b81526001600160a01b037f000000000000000000000000000000000000000000000000000000000000000081166004830152602482018690527f000000000000000000000000000000000000000000000000000000000000000016935063a9059cbb92506044019050602060405180830381600087803b1580156122ba57600080fd5b505af11580156122ce573d6000803e3d6000fd5b505050506040513d601f19601f820116820180604052508101906122f29190613e1a565b5060345460408051848152602081019290925281018290527fbe7040030ff7b347853214bf49820c6d455fedf58f3815f85c7bc5216993682b9060600160405180910390a150505b476801bc16d674ec800000811061238b5760405162461bcd60e51b8152602060048201526015602482015274756e6578706563746564206163636f756e74696e6760581b6044820152606401610335565b60695481116123e45780606860008282546123a69190614653565b90915550506040518181527f9756e9f9bf5451bbf89f4591a32de112c7d6adfc0f54732a4b166f5756f983ab906020015b60405180910390a1505090565b606a548110612576577f00000000000000000000000000000000000000000000000000000000000000006001600160a01b031663d0e30db0826040518263ffffffff1660e01b81526004016000604051808303818588803b15801561244857600080fd5b505af115801561245c573d6000803e3d6000fd5b505060405163a9059cbb60e01b81526001600160a01b037f000000000000000000000000000000000000000000000000000000000000000081166004830152602482018690527f000000000000000000000000000000000000000000000000000000000000000016935063a9059cbb92506044019050602060405180830381600087803b1580156124ec57600080fd5b505af1158015612500573d6000803e3d6000fd5b505050506040513d601f19601f820116820180604052508101906125249190613e1a565b5060016034600082825461253891906146ac565b909155505060345460408051918252602082018390527f6aa7e30787b26429ced603a7aba8b19c4b5d5bcf29a3257da953c8d53bcaa3a691016123d7565b61257e613576565b60009250505090565b61258f61295e565b6125ab5760405162461bcd60e51b8152600401610335906144e4565b80821080156125c257506801bc16d674ec80000082105b80156125d657506801bc16d674ec80000081105b80156125f35750673782dace9d9000006125f083836146ac565b10155b61263f5760405162461bcd60e51b815260206004820152601760248201527f696e636f7272656374206675736520696e74657276616c0000000000000000006044820152606401610335565b606954606a546040805192835260208301919091528101839052606081018290527fb3ccf239b47da1c180c1e4c5d7c36ce357bdb0f2f9951eda633d65fb53d69f1a9060800160405180910390a1606991909155606a55565b60405163095ea7b360e01b81526001600160a01b037f00000000000000000000000000000000000000000000000000000000000000008116600483015260001960248301527f0000000000000000000000000000000000000000000000000000000000000000169063095ea7b390604401602060405180830381600087803b15801561272357600080fd5b505af1158015612737573d6000803e3d6000fd5b505050506040513d601f19601f8201168201806040525081019061275b9190613e1a565b50565b60335461010090046001600160a01b0316331461278d5760405162461bcd60e51b815260040161033590614545565b60335460ff16156127b05760405162461bcd60e51b81526004016103359061451b565b6040516301ba3ee760e21b81526001600160a01b037f000000000000000000000000000000000000000000000000000000000000000016906306e8fb9c9061280a908b908b908b908b908b908b908b908b90600401614354565b600060405180830381600087803b15801561282457600080fd5b505af1158015612838573d6000803e3d6000fd5b505050506000603560008a8a60405161285292919061416c565b60408051918290039091208252602082019290925201600020805460ff1916600183600381111561288557612885614720565b02179055507f75c4a66b2c6c28cf46db7131182a812e4fbbb2f0591377aa83a737909a9b68c3888888886040516128bf949392919061432d565b60405180910390a15050505050505050565b6128d961295e565b6128f55760405162461bcd60e51b8152600401610335906144e4565b60a454604080516001600160a01b03928316815291831660208301527fe48386b84419f4d36e0f96c10cc3510b6fb1a33795620c5098b22472bbe90796910160405180910390a160a480546001600160a01b0319166001600160a01b0392909216919091179055565b60006129766000805160206147bc8339815191525490565b6001600160a01b0316336001600160a01b031614905090565b61299761295e565b6129b35760405162461bcd60e51b8152600401610335906144e4565b6129db817f44c4d30b2eaad5130ad70c3ba6972730566f3e6359ab83e800d905c61b1c51db55565b806001600160a01b03166129fb6000805160206147bc8339815191525490565b6001600160a01b03167fa39cc5eb22d0f34d8beaefee8a3f17cc229c1a1d1ef87a5ad47313487b1c4f0d60405160405180910390a350565b612a3b61295e565b612a575760405162461bcd60e51b8152600401610335906144e4565b606b54604080516001600160a01b03928316815291831660208301527f40cf4db80b21c4d1a956a83128037cc92c5401358a4b58d4c51e91dbbf05fe43910160405180910390a1606b80546001600160a01b0319166001600160a01b0392909216919091179055565b336001600160a01b037f00000000000000000000000000000000000000000000000000000000000000001614612b085760405162461bcd60e51b8152600401610335906144ad565b60008051602061479c83398151915280546002811415612b3a5760405162461bcd60e51b81526004016103359061457c565b60028255612b498585856135ce565b5060019055505050565b60335461010090046001600160a01b03163314612b825760405162461bcd60e51b815260040161033590614545565b60335460ff1615612ba55760405162461bcd60e51b81526004016103359061451b565b6000603560008686604051612bbb92919061416c565b604080519182900390912082526020820192909252016000205460ff1690506001816003811115612bee57612bee614720565b14612c325760405162461bcd60e51b815260206004820152601460248201527315985b1a59185d1bdc881b9bdd081cdd185ad95960621b6044820152606401610335565b604051633877322b60e01b81526001600160a01b037f00000000000000000000000000000000000000000000000000000000000000001690633877322b90612c8490889088908890889060040161432d565b600060405180830381600087803b158015612c9e57600080fd5b505af1158015612cb2573d6000803e3d6000fd5b505050507ff8821da16f5ed966b41e0343c3eff9903af782d74f99f1689dd9d4562b6545b385858585604051612ceb949392919061432d565b60405180910390a16002603560008787604051612d0992919061416c565b60408051918290039091208252602082019290925201600020805460ff19166001836003811115612d3c57612d3c614720565b02179055505050505050565b336001600160a01b037f00000000000000000000000000000000000000000000000000000000000000001614612d905760405162461bcd60e51b8152600401610335906144ad565b60008051602061479c83398151915280546002811415612dc25760405162461bcd60e51b81526004016103359061457c565b600282556040516370a0823160e01b81523060048201526000907f00000000000000000000000000000000000000000000000000000000000000006001600160a01b0316906370a082319060240160206040518083038186803b158015612e2857600080fd5b505afa158015612e3c573d6000803e3d6000fd5b505050506040513d601f19601f82011682018060405250810190612e609190613ff0565b90508015611d9257611d927f000000000000000000000000000000000000000000000000000000000000000082613165565b606060a5805480602002602001604051908101604052809291908181526020018280548015612eea57602002820191906000526020600020905b81546001600160a01b03168152600190910190602001808311612ecc575b5050505050905090565b6001600160a01b03828116600090815260a060205260409020541615612f515760405162461bcd60e51b81526020600482015260126024820152711c151bdad95b88185b1c9958591e481cd95d60721b6044820152606401610335565b6001600160a01b03821615801590612f7157506001600160a01b03811615155b612fb15760405162461bcd60e51b8152602060048201526011602482015270496e76616c69642061646472657373657360781b6044820152606401610335565b6001600160a01b03828116600081815260a06020908152604080832080549587166001600160a01b0319968716811790915560a1805460018101825594527faadc37b8ba5645e62f4546802db221593a94729ccbfc5a97d01365a88f64987890930180549095168417909455925190815290917fef6485b84315f9b1483beffa32aae9a0596890395e3d7521f1c5fbb51790e765910160405180910390a25050565b604080516001600160a01b038416602482015260448082018490528251808303909101815260649091019091526020810180516001600160e01b031663a9059cbb60e01b1790526130a59084906136c6565b505050565b82516130bd9060a5906020860190613975565b508151815181146131075760405162461bcd60e51b8152602060048201526014602482015273496e76616c696420696e7075742061727261797360601b6044820152606401610335565b60005b8181101561315e5761314e8482815181106131275761312761474c565b60200260200101518483815181106131415761314161474c565b6020026020010151612ef4565b613157816146ef565b905061310a565b5050505050565b600081116131ae5760405162461bcd60e51b81526020600482015260166024820152754d757374206465706f73697420736f6d657468696e6760501b6044820152606401610335565b6040805160008152602081018390526001600160a01b038416917f5548c837ab068cf56a2c2479df0882a4922fd203edb7517321831d95078c5f62910160405180910390a25050565b60007f00000000000000000000000000000000000000000000000000000000000000006001600160a01b031663e52253816040518163ffffffff1660e01b8152600401602060405180830381600087803b15801561325457600080fd5b505af1158015613268573d6000803e3d6000fd5b505050506040513d601f19601f8201168201806040525081019061328c9190613ff0565b905060006068548261329e9190614653565b9050804710156132f05760405162461bcd60e51b815260206004820152601860248201527f696e73756666696369656e74206574682062616c616e636500000000000000006044820152606401610335565b8015610a625760006068819055507f00000000000000000000000000000000000000000000000000000000000000006001600160a01b031663d0e30db0826040518263ffffffff1660e01b81526004016000604051808303818588803b15801561335957600080fd5b505af115801561336d573d6000803e3d6000fd5b505060a454604080516001600160a01b0392831681527f0000000000000000000000000000000000000000000000000000000000000000909216602083015281018590527ff6c07a063ed4e63808eb8da7112d46dbcd38de2b40a73dbcc9353c5a94c72353935060600191506133e09050565b60405180910390a160a454610a62906001600160a01b037f00000000000000000000000000000000000000000000000000000000000000008116911683613053565b6001600160a01b0381166134785760405162461bcd60e51b815260206004820152601a60248201527f4e657720476f7665726e6f7220697320616464726573732830290000000000006044820152606401610335565b806001600160a01b03166134986000805160206147bc8339815191525490565b6001600160a01b03167fc7c0c772add429241571afb3805861fb3cfa2af374534088b76cdb4325a87e9a60405160405180910390a361275b816000805160206147bc83398151915255565b60335460ff1661352c5760405162461bcd60e51b815260206004820152601460248201527314185d5cd8589b194e881b9bdd081c185d5cd95960621b6044820152606401610335565b6033805460ff191690557f5db9ee0a495bf2e6ff9c91a7834c1ba4fdd244a5e8aa4e537bd38aeae4b073aa335b6040516001600160a01b03909116815260200160405180910390a1565b60335460ff16156135995760405162461bcd60e51b81526004016103359061451b565b6033805460ff191660011790557f62e78cea01bee320cd4e420270b5ea74000d11b0c9f74754ebdbfc544b05a2586135593390565b6000811161361e5760405162461bcd60e51b815260206004820152601760248201527f4d75737420776974686472617720736f6d657468696e670000000000000000006044820152606401610335565b6001600160a01b03831661366d5760405162461bcd60e51b8152602060048201526016602482015275135d5cdd081cdc1958da599e481c9958da5c1a595b9d60521b6044820152606401610335565b6040805160008152602081018390526001600160a01b038416917f2717ead6b9200dd235aad468c9809ea400fe33ac69b5bfaa6d3e90fc922b6398910160405180910390a26130a56001600160a01b0383168483613053565b600061371b826040518060400160405280602081526020017f5361666545524332303a206c6f772d6c6576656c2063616c6c206661696c6564815250856001600160a01b03166137989092919063ffffffff16565b8051909150156130a557808060200190518101906137399190613e1a565b6130a55760405162461bcd60e51b815260206004820152602a60248201527f5361666545524332303a204552433230206f7065726174696f6e20646964206e6044820152691bdd081cdd58d8d9595960b21b6064820152608401610335565b60606137a784846000856137b1565b90505b9392505050565b6060824710156138125760405162461bcd60e51b815260206004820152602660248201527f416464726573733a20696e73756666696369656e742062616c616e636520666f6044820152651c8818d85b1b60d21b6064820152608401610335565b843b6138605760405162461bcd60e51b815260206004820152601d60248201527f416464726573733a2063616c6c20746f206e6f6e2d636f6e74726163740000006044820152606401610335565b600080866001600160a01b0316858760405161387c919061417c565b60006040518083038185875af1925050503d80600081146138b9576040519150601f19603f3d011682016040523d82523d6000602084013e6138be565b606091505b50915091506138ce8282866138d9565b979650505050505050565b606083156138e85750816137aa565b8251156138f85782518084602001fd5b8160405162461bcd60e51b8152600401610335919061449a565b828054828255906000526020600020908101928215613965579160200282015b828111156139655781546001600160a01b0319166001600160a01b03843516178255602090920191600190910190613932565b506139719291506139ca565b5090565b828054828255906000526020600020908101928215613965579160200282015b8281111561396557825182546001600160a01b0319166001600160a01b03909116178255602090920191600190910190613995565b5b8082111561397157600081556001016139cb565b60008083601f8401126139f157600080fd5b5081356001600160401b03811115613a0857600080fd5b6020830191508360208260051b8501011115613a2357600080fd5b9250929050565b600082601f830112613a3b57600080fd5b81356020613a50613a4b83614630565b614600565b80838252828201915082860187848660051b8901011115613a7057600080fd5b60005b85811015613a98578135613a8681614778565b84529284019290840190600101613a73565b5090979650505050505050565b60008083601f840112613ab757600080fd5b5081356001600160401b03811115613ace57600080fd5b602083019150836020828501011115613a2357600080fd5b600060a08284031215613af857600080fd5b50919050565b600060a08284031215613b1057600080fd5b60405160a081018181106001600160401b0382111715613b3257613b32614762565b604052905080613b4183613b89565b8152613b4f60208401613ba2565b6020820152613b6060408401613ba2565b60408201526060830135613b738161478d565b6060820152608092830135920191909152919050565b803563ffffffff81168114613b9d57600080fd5b919050565b80356001600160401b0381168114613b9d57600080fd5b600060208284031215613bcb57600080fd5b81356137aa81614778565b600060208284031215613be857600080fd5b81516137aa81614778565b60008060408385031215613c0657600080fd5b8235613c1181614778565b91506020830135613c2181614778565b809150509250929050565b600080600060608486031215613c4157600080fd5b8335613c4c81614778565b92506020840135613c5c81614778565b929592945050506040919091013590565b60008060408385031215613c8057600080fd5b8235613c8b81614778565b946020939093013593505050565b60008060208385031215613cac57600080fd5b82356001600160401b03811115613cc257600080fd5b613cce858286016139df565b90969095509350505050565b600080600060608486031215613cef57600080fd5b83356001600160401b0380821115613d0657600080fd5b613d1287838801613a2a565b94506020860135915080821115613d2857600080fd5b613d3487838801613a2a565b93506040860135915080821115613d4a57600080fd5b50613d5786828701613a2a565b9150509250925092565b600080600060e08486031215613d7657600080fd5b83356001600160401b03811115613d8c57600080fd5b8401601f81018613613d9d57600080fd5b80356020613dad613a4b83614630565b8083825282820191508285018a848660051b8801011115613dcd57600080fd5b600095505b84861015613df757613de381613ba2565b835260019590950194918301918301613dd2565b509650508601359350613e11915086905060408601613afe565b90509250925092565b600060208284031215613e2c57600080fd5b81516137aa8161478d565b600060208284031215613e4957600080fd5b5035919050565b60008060008060408587031215613e6657600080fd5b84356001600160401b0380821115613e7d57600080fd5b613e8988838901613aa5565b90965094506020870135915080821115613ea257600080fd5b50613eaf878288016139df565b95989497509550505050565b600080600080600080600080610120898b031215613ed857600080fd5b88356001600160401b0380821115613eef57600080fd5b613efb8c838d01613aa5565b909a50985060208b0135915080821115613f1457600080fd5b613f208c838d016139df565b909850965060408b0135915080821115613f3957600080fd5b50613f468b828c01613aa5565b90955093505060608901359150613f608a60808b01613ae6565b90509295985092959890939650565b600080600080600060e08688031215613f8757600080fd5b85356001600160401b0380821115613f9e57600080fd5b613faa89838a01613aa5565b90975095506020880135915080821115613fc357600080fd5b50613fd0888289016139df565b9094509250613fe490508760408801613ae6565b90509295509295909350565b60006020828403121561400257600080fd5b5051919050565b6000806040838503121561401c57600080fd5b50508035926020909101359150565b60008060008060008060c0878903121561404457600080fd5b505084359660208601359650604086013595606081013595506080810135945060a0013592509050565b8183526000602080850194508260005b858110156140aa576001600160401b0361409783613ba2565b168752958201959082019060010161407e565b509495945050505050565b81835281816020850137506000828201602090810191909152601f909101601f19169091010190565b600081518084526140f68160208601602086016146c3565b601f01601f19169290920160200192915050565b63ffffffff61411882613b89565b16825261412760208201613ba2565b6001600160401b0380821660208501528061414460408501613ba2565b1660408501525050606081013561415a8161478d565b15156060830152608090810135910152565b8183823760009101908152919050565b6000825161418e8184602087016146c3565b9190910192915050565b6001600160a01b03851681526101006020808301829052855191830182905260009161012084019187810191845b818110156141eb5783516001600160401b0316855293820193928201926001016141c6565b505082935086604086015263ffffffff865116606086015280860151925050506001600160401b0380821660808501528060408601511660a085015250506060830151151560c0830152608083015160e083015295945050505050565b6020808252825182820181905260009190848201906040850190845b818110156142895783516001600160a01b031683529284019291840191600101614264565b50909695505050505050565b6000604082016040835280865480835260608501915087600052602092508260002060005b828110156142df5781546001600160a01b0316845292840192600191820191016142ba565b505050838103828501528481528590820160005b8681101561432157823561430681614778565b6001600160a01b0316825291830191908301906001016142f3565b50979650505050505050565b6040815260006143416040830186886140b5565b82810360208401526138ce81858761406e565b60006101208083526143698184018b8d6140b5565b9050828103602084015261437e81898b61406e565b905082810360408401526143938187896140b5565b9150508360608301526143a9608083018461410a565b9998505050505050505050565b60e0815260006143ca60e0830187896140b5565b82810360208401526143dd81868861406e565b9150506143ed604083018461410a565b9695505050505050565b60808152600061440b60808301888a6140b5565b828103602084015261441d81886140de565b905082810360408401526144328186886140b5565b915050826060830152979650505050505050565b60608152600061445a6060830186886140b5565b84602084015282810360408401526138ce81856140de565b602081016004831061449457634e487b7160e01b600052602160045260246000fd5b91905290565b6020815260006137aa60208301846140de565b60208082526017908201527f43616c6c6572206973206e6f7420746865205661756c74000000000000000000604082015260600190565b6020808252601a908201527f43616c6c6572206973206e6f742074686520476f7665726e6f72000000000000604082015260600190565b60208082526010908201526f14185d5cd8589b194e881c185d5cd95960821b604082015260600190565b6020808252601d908201527f43616c6c6572206973206e6f7420746865205265676973747261746f72000000604082015260600190565b6020808252600e908201526d1499595b9d1c985b9d0818d85b1b60921b604082015260600190565b6000808335601e198436030181126145bb57600080fd5b8301803591506001600160401b038211156145d557600080fd5b602001915036819003821315613a2357600080fd5b60008235605e1983360301811261418e57600080fd5b604051601f8201601f191681016001600160401b038111828210171561462857614628614762565b604052919050565b60006001600160401b0382111561464957614649614762565b5060051b60200190565b600082198211156146665761466661470a565b500190565b60008261468857634e487b7160e01b600052601260045260246000fd5b500490565b60008160001904831182151516156146a7576146a761470a565b500290565b6000828210156146be576146be61470a565b500390565b60005b838110156146de5781810151838201526020016146c6565b83811115610d7c5750506000910152565b60006000198214156147035761470361470a565b5060010190565b634e487b7160e01b600052601160045260246000fd5b634e487b7160e01b600052602160045260246000fd5b634e487b7160e01b600052603160045260246000fd5b634e487b7160e01b600052603260045260246000fd5b634e487b7160e01b600052604160045260246000fd5b6001600160a01b038116811461275b57600080fd5b801515811461275b57600080fdfe53bf423e48ed90e97d02ab0ebab13b2a235a6bfbe9c321847d5c175333ac45357bea13895fa79d2831e0a9e28edede30099005a50d652d8957cf8a607ee6ca4aa2646970667358221220c4fca029ee797b679b4ad36e704a28264adec71e6a4837b2dff4d8a6b3deee3e64736f6c634300080700337bea13895fa79d2831e0a9e28edede30099005a50d652d8957cf8a607ee6ca4a",
  "libraries": {},
  "devdoc": {
    "author": "Origin Protocol Inc",
    "kind": "dev",
    "methods": {
      "checkBalance(address)": {
        "params": {
          "_asset": "Address of weth asset"
        },
        "returns": {
          "balance": "   Total value of (W)ETH"
        }
      },
      "constructor": {
        "params": {
          "_baseConfig": "Base strategy config with platformAddress (ERC-4626 Vault contract), eg sfrxETH or sDAI, and vaultAddress (OToken Vault contract), eg VaultProxy or OETHVaultProxy",
          "_beaconChainDepositContract": "Address of the beacon chain deposit contract",
          "_feeAccumulator": "Address of the fee accumulator receiving execution layer validator rewards",
          "_ssvNetwork": "Address of the SSV Network contract",
          "_ssvToken": "Address of the Erc20 SSV Token contract",
          "_wethAddress": "Address of the Erc20 WETH Token contract"
        }
      },
      "deposit(address,uint256)": {
        "params": {
          "_amount": "Amount of assets to deposit",
          "_asset": "Address of asset to deposit"
        }
      },
      "depositSSV(uint64[],uint256,(uint32,uint64,uint64,bool,uint256))": {
        "details": "A SSV cluster is defined by the SSVOwnerAddress and the set of operatorIds. uses \"onlyStrategist\" modifier so continuous front-running can't DOS our maintenance service that tries to top up SSV tokens.",
        "params": {
          "cluster": "The SSV cluster details that must be derived from emitted events from the SSVNetwork contract."
        }
      },
      "doAccounting()": {
        "details": "This function could in theory be permission-less but lets allow only the Registrator (Defender Action) to call it for now."
      },
      "getRewardTokenAddresses()": {
        "returns": {
          "_0": "address[] the reward token addresses."
        }
      },
      "initialize(address[],address[],address[])": {
        "params": {
          "_assets": "Addresses of initial supported assets",
          "_pTokens": "Platform Token corresponding addresses",
          "_rewardTokenAddresses": "Address of reward token for platform"
        }
      },
      "manuallyFixAccounting(uint256,uint256,uint256,uint256,uint256,uint256)": {
        "details": "allow the accounting governor to fix the accounting of this strategy and unpause",
        "params": {
          "_activeDepositedValidators": "the override value of activeDepositedValidators",
          "_consensusRewards": "the override value for consensusRewards",
          "_ethThresholdCheck": "maximum allowed ETH balance on the contract for the function to run",
          "_ethToWeth": "the amount of ETH to be converted to WETH",
          "_wethThresholdCheck": "maximum allowed WETH balance on the contract for the function to run        the above 2 checks are done so transaction doesn't get front run and cause        unexpected behaviour",
          "_wethToBeSentToVault": "the amount of WETH to be sent to the Vault"
        }
      },
      "paused()": {
        "details": "Returns true if the contract is paused, and false otherwise."
      },
      "removePToken(uint256)": {
        "params": {
          "_assetIndex": "Index of the asset to be removed"
        }
      },
      "setHarvesterAddress(address)": {
        "params": {
          "_harvesterAddress": "Address of the harvester contract."
        }
      },
      "setPTokenAddress(address,address)": {
        "params": {
          "_asset": "Address for the asset",
          "_pToken": "Address for the corresponding platform token"
        }
      },
      "setRewardTokenAddresses(address[])": {
        "params": {
          "_rewardTokenAddresses": "Array of reward token addresses"
        }
      },
      "stakeEth((bytes,bytes,bytes32)[])": {
        "params": {
          "validators": "A list of validator data needed to stake. The `ValidatorStakeData` struct contains the pubkey, signature and depositDataRoot. Only the registrator can call this function."
        }
      },
      "supportsAsset(address)": {
        "params": {
          "_asset": "The address of the asset token."
        }
      },
      "transferGovernance(address)": {
        "params": {
          "_newGovernor": "Address of the new Governor"
        }
      },
      "transferToken(address,uint256)": {
        "params": {
          "_amount": "Amount of the asset to transfer",
          "_asset": "Address for the asset"
        }
      },
      "withdraw(address,address,uint256)": {
        "params": {
          "_amount": "Amount of WETH to withdraw",
          "_asset": "WETH to withdraw",
          "_recipient": "Address to receive withdrawn assets"
        }
      }
    },
    "stateVariables": {
      "FEE_ACCUMULATOR_ADDRESS": {
        "details": "this address will receive Execution layer rewards - These are rewards earned for executing transactions on the Ethereum network as part of block proposals. They include priority fees (fees paid by users for their transactions to be included) and MEV rewards (rewards for arranging transactions in a way that benefits the validator)."
      }
    },
    "title": "Native Staking SSV Strategy",
    "version": 1
  },
  "userdoc": {
    "kind": "user",
    "methods": {
      "BEACON_CHAIN_DEPOSIT_CONTRACT()": {
        "notice": "The address of the beacon chain deposit contract"
      },
      "FEE_ACCUMULATOR_ADDRESS()": {
        "notice": "Fee collector address"
      },
      "MAX_STAKE()": {
        "notice": "The maximum amount of ETH that can be staked by a validator"
      },
      "SSV_NETWORK_ADDRESS()": {
        "notice": "The address of the SSV Network contract used to interface with"
      },
      "SSV_TOKEN_ADDRESS()": {
        "notice": "SSV ERC20 token that serves as a payment for operating SSV validators"
      },
      "VAULT_ADDRESS()": {
        "notice": "Address of the OETH Vault proxy contract"
      },
      "WETH_TOKEN_ADDRESS()": {
        "notice": "The address of the Wrapped ETH (WETH) token contract"
      },
      "accountingGovernor()": {
        "notice": "Governor that can manually correct the accounting"
      },
      "assetToPToken(address)": {
        "notice": "asset => pToken (Platform Specific Token Address)"
      },
      "checkBalance(address)": {
        "notice": "Returns the total value of (W)ETH that is staked to the validators and WETH deposits that are still to be staked. This does not include ETH from consensus rewards sitting in this strategy or ETH from MEV rewards in the FeeAccumulator. These rewards are harvested and sent to the Dripper so will eventually be sent to the Vault as WETH."
      },
      "claimGovernance()": {
        "notice": "Claim Governance of the contract to a new account (`newGovernor`). Can only be called by the new Governor."
      },
      "collectRewardTokens()": {
        "notice": "Collect accumulated reward token and send to Vault."
      },
      "consensusRewards()": {
        "notice": "Keeps track of the total consensus rewards swept from the beacon chain"
      },
      "deposit(address,uint256)": {
        "notice": "Deposit asset into the underlying platform"
      },
      "depositAll()": {
        "notice": "Deposit the entire balance of WETH asset in the strategy into the underlying platform"
      },
      "depositSSV(uint64[],uint256,(uint32,uint64,uint64,bool,uint256))": {
        "notice": "Deposits more SSV Tokens to the SSV Network contract which is used to pay the SSV Operators."
      },
      "doAccounting()": {
        "notice": "This notion page offers a good explanation of how the accounting functions https://www.notion.so/originprotocol/Limited-simplified-native-staking-accounting-67a217c8420d40678eb943b9da0ee77d In short, after dividing by 32 if the ETH remaining on the contract falls between 0 and fuseIntervalStart the accounting function will treat that ETH as a Beacon Chain Reward ETH. On the contrary if after dividing by 32 the ETH remaining on the contract falls between fuseIntervalEnd and 32 the accounting function will treat that as a validator slashing.Perform the accounting attributing beacon chain ETH to either full or partial withdrawals. Returns true when accounting is valid and fuse isn't \"blown\". Returns false when fuse is blown."
      },
      "exitSsvValidator(bytes,uint64[])": {
        "notice": "Exit a validator from the Beacon chain. The staked ETH will eventually swept to this native staking strategy. Only the registrator can call this function."
      },
      "fuseIntervalEnd()": {
        "notice": "end of fuse interval"
      },
      "fuseIntervalStart()": {
        "notice": "start of fuse interval"
      },
      "getRewardTokenAddresses()": {
        "notice": "Get the reward token addresses."
      },
      "governor()": {
        "notice": "Returns the address of the current Governor."
      },
      "harvesterAddress()": {
        "notice": "Address of the Harvester contract allowed to collect reward tokens"
      },
      "initialize(address[],address[],address[])": {
        "notice": "initialize function, to set up initial internal state"
      },
      "isGovernor()": {
        "notice": "Returns true if the caller is the current Governor."
      },
      "platformAddress()": {
        "notice": "Address of the underlying platform"
      },
      "registerSsvValidator(bytes,uint64[],bytes,uint256,(uint32,uint64,uint64,bool,uint256))": {
        "notice": "Registers a new validator in the SSV Cluster. Only the registrator can call this function."
      },
      "removePToken(uint256)": {
        "notice": "Remove a supported asset by passing its index.      This method can only be called by the system Governor"
      },
      "removeSsvValidator(bytes,uint64[],(uint32,uint64,uint64,bool,uint256))": {
        "notice": "Remove a validator from the SSV Cluster. Make sure `exitSsvValidator` is called before and the validate has exited the Beacon chain. If removed before the validator has exited the beacon chain will result in the validator being slashed. Only the registrator can call this function."
      },
      "rewardTokenAddresses(uint256)": {
        "notice": "Address of the reward tokens. eg CRV, BAL, CVX, AURA"
      },
      "safeApproveAllTokens()": {
        "notice": "Approves the SSV Network contract to transfer SSV tokens for deposits"
      },
      "setFuseInterval(uint256,uint256)": {
        "notice": "set fuse interval values"
      },
      "setHarvesterAddress(address)": {
        "notice": "Set the Harvester contract that can collect rewards."
      },
      "setPTokenAddress(address,address)": {
        "notice": "Provide support for asset by passing its pToken address.      This method can only be called by the system Governor"
      },
      "setRegistratorAddress(address)": {
        "notice": "Set the address of the registrator"
      },
      "setRewardTokenAddresses(address[])": {
        "notice": "Set the reward token addresses. Any old addresses will be overwritten."
      },
      "stakeEth((bytes,bytes,bytes32)[])": {
        "notice": "Stakes WETH to the node validators"
      },
      "supportsAsset(address)": {
        "notice": "Returns bool indicating whether asset is supported by strategy."
      },
      "transferGovernance(address)": {
        "notice": "Transfers Governance of the contract to a new account (`newGovernor`). Can only be called by the current Governor. Must be claimed for this to complete"
      },
      "transferToken(address,uint256)": {
        "notice": "Transfer token to governor. Intended for recovering tokens stuck in      strategy contracts, i.e. mistaken sends."
      },
      "validatorRegistrator()": {
        "notice": "Address of the registrator - allowed to register, exit and remove validators"
      },
      "validatorsStates(bytes32)": {
        "notice": "State of the validators keccak256(pubKey) => state"
      },
      "vaultAddress()": {
        "notice": "Address of the OToken vault"
      },
      "withdraw(address,address,uint256)": {
        "notice": "Withdraw WETH from this contract. Used only if some WETH for is lingering on the contract. That can happen when:   - the deposit was not a multiple of 32 WETH   - someone sent WETH directly to this contract"
      },
      "withdrawAll()": {
        "notice": "Remove all supported assets from the underlying platform and send them to Vault contract."
      }
    },
    "notice": "Strategy to deploy funds into DVT validators powered by the SSV Network",
    "version": 1
  },
  "storageLayout": {
    "storage": [
      {
        "astId": 5206,
        "contract": "contracts/strategies/NativeStaking/NativeStakingSSVStrategy.sol:NativeStakingSSVStrategy",
        "label": "initialized",
        "offset": 0,
        "slot": "0",
        "type": "t_bool"
      },
      {
        "astId": 5209,
        "contract": "contracts/strategies/NativeStaking/NativeStakingSSVStrategy.sol:NativeStakingSSVStrategy",
        "label": "initializing",
        "offset": 1,
        "slot": "0",
        "type": "t_bool"
      },
      {
        "astId": 5249,
        "contract": "contracts/strategies/NativeStaking/NativeStakingSSVStrategy.sol:NativeStakingSSVStrategy",
        "label": "______gap",
        "offset": 0,
        "slot": "1",
        "type": "t_array(t_uint256)50_storage"
      },
      {
        "astId": 17,
        "contract": "contracts/strategies/NativeStaking/NativeStakingSSVStrategy.sol:NativeStakingSSVStrategy",
        "label": "_paused",
        "offset": 0,
        "slot": "51",
        "type": "t_bool"
      },
      {
        "astId": 3519,
        "contract": "contracts/strategies/NativeStaking/NativeStakingSSVStrategy.sol:NativeStakingSSVStrategy",
        "label": "validatorRegistrator",
        "offset": 1,
        "slot": "51",
        "type": "t_address"
      },
      {
        "astId": 3522,
        "contract": "contracts/strategies/NativeStaking/NativeStakingSSVStrategy.sol:NativeStakingSSVStrategy",
        "label": "activeDepositedValidators",
        "offset": 0,
        "slot": "52",
        "type": "t_uint256"
      },
      {
        "astId": 3528,
        "contract": "contracts/strategies/NativeStaking/NativeStakingSSVStrategy.sol:NativeStakingSSVStrategy",
        "label": "validatorsStates",
        "offset": 0,
        "slot": "53",
        "type": "t_mapping(t_bytes32,t_enum(VALIDATOR_STATE)3537)"
      },
      {
        "astId": 3532,
        "contract": "contracts/strategies/NativeStaking/NativeStakingSSVStrategy.sol:NativeStakingSSVStrategy",
        "label": "__gap",
        "offset": 0,
        "slot": "54",
        "type": "t_array(t_uint256)50_storage"
      },
      {
        "astId": 3061,
        "contract": "contracts/strategies/NativeStaking/NativeStakingSSVStrategy.sol:NativeStakingSSVStrategy",
        "label": "consensusRewards",
        "offset": 0,
        "slot": "104",
        "type": "t_uint256"
      },
      {
        "astId": 3065,
        "contract": "contracts/strategies/NativeStaking/NativeStakingSSVStrategy.sol:NativeStakingSSVStrategy",
        "label": "fuseIntervalStart",
        "offset": 0,
        "slot": "105",
        "type": "t_uint256"
      },
      {
        "astId": 3069,
        "contract": "contracts/strategies/NativeStaking/NativeStakingSSVStrategy.sol:NativeStakingSSVStrategy",
        "label": "fuseIntervalEnd",
        "offset": 0,
        "slot": "106",
        "type": "t_uint256"
      },
      {
        "astId": 3072,
        "contract": "contracts/strategies/NativeStaking/NativeStakingSSVStrategy.sol:NativeStakingSSVStrategy",
        "label": "accountingGovernor",
        "offset": 0,
        "slot": "107",
        "type": "t_address"
      },
      {
        "astId": 3076,
        "contract": "contracts/strategies/NativeStaking/NativeStakingSSVStrategy.sol:NativeStakingSSVStrategy",
        "label": "__gap",
        "offset": 0,
        "slot": "108",
        "type": "t_array(t_uint256)50_storage"
      },
      {
        "astId": 5329,
        "contract": "contracts/strategies/NativeStaking/NativeStakingSSVStrategy.sol:NativeStakingSSVStrategy",
        "label": "_deprecated_platformAddress",
        "offset": 0,
        "slot": "158",
        "type": "t_address"
      },
      {
        "astId": 5332,
        "contract": "contracts/strategies/NativeStaking/NativeStakingSSVStrategy.sol:NativeStakingSSVStrategy",
        "label": "_deprecated_vaultAddress",
        "offset": 0,
        "slot": "159",
        "type": "t_address"
      },
      {
        "astId": 5337,
        "contract": "contracts/strategies/NativeStaking/NativeStakingSSVStrategy.sol:NativeStakingSSVStrategy",
        "label": "assetToPToken",
        "offset": 0,
        "slot": "160",
        "type": "t_mapping(t_address,t_address)"
      },
      {
        "astId": 5341,
        "contract": "contracts/strategies/NativeStaking/NativeStakingSSVStrategy.sol:NativeStakingSSVStrategy",
        "label": "assetsMapped",
        "offset": 0,
        "slot": "161",
        "type": "t_array(t_address)dyn_storage"
      },
      {
        "astId": 5343,
        "contract": "contracts/strategies/NativeStaking/NativeStakingSSVStrategy.sol:NativeStakingSSVStrategy",
        "label": "_deprecated_rewardTokenAddress",
        "offset": 0,
        "slot": "162",
        "type": "t_address"
      },
      {
        "astId": 5345,
        "contract": "contracts/strategies/NativeStaking/NativeStakingSSVStrategy.sol:NativeStakingSSVStrategy",
        "label": "_deprecated_rewardLiquidationThreshold",
        "offset": 0,
        "slot": "163",
        "type": "t_uint256"
      },
      {
        "astId": 5348,
        "contract": "contracts/strategies/NativeStaking/NativeStakingSSVStrategy.sol:NativeStakingSSVStrategy",
        "label": "harvesterAddress",
        "offset": 0,
        "slot": "164",
        "type": "t_address"
      },
      {
        "astId": 5352,
        "contract": "contracts/strategies/NativeStaking/NativeStakingSSVStrategy.sol:NativeStakingSSVStrategy",
        "label": "rewardTokenAddresses",
        "offset": 0,
        "slot": "165",
        "type": "t_array(t_address)dyn_storage"
      },
      {
        "astId": 5356,
        "contract": "contracts/strategies/NativeStaking/NativeStakingSSVStrategy.sol:NativeStakingSSVStrategy",
        "label": "_reserved",
        "offset": 0,
        "slot": "166",
        "type": "t_array(t_int256)98_storage"
      },
      {
        "astId": 2613,
        "contract": "contracts/strategies/NativeStaking/NativeStakingSSVStrategy.sol:NativeStakingSSVStrategy",
        "label": "__gap",
        "offset": 0,
        "slot": "264",
        "type": "t_array(t_uint256)50_storage"
      }
    ],
    "types": {
      "t_address": {
        "encoding": "inplace",
        "label": "address",
        "numberOfBytes": "20"
      },
      "t_array(t_address)dyn_storage": {
        "base": "t_address",
        "encoding": "dynamic_array",
        "label": "address[]",
        "numberOfBytes": "32"
      },
      "t_array(t_int256)98_storage": {
        "base": "t_int256",
        "encoding": "inplace",
        "label": "int256[98]",
        "numberOfBytes": "3136"
      },
      "t_array(t_uint256)50_storage": {
        "base": "t_uint256",
        "encoding": "inplace",
        "label": "uint256[50]",
        "numberOfBytes": "1600"
      },
      "t_bool": {
        "encoding": "inplace",
        "label": "bool",
        "numberOfBytes": "1"
      },
      "t_bytes32": {
        "encoding": "inplace",
        "label": "bytes32",
        "numberOfBytes": "32"
      },
      "t_enum(VALIDATOR_STATE)3537": {
        "encoding": "inplace",
        "label": "enum ValidatorRegistrator.VALIDATOR_STATE",
        "numberOfBytes": "1"
      },
      "t_int256": {
        "encoding": "inplace",
        "label": "int256",
        "numberOfBytes": "32"
      },
      "t_mapping(t_address,t_address)": {
        "encoding": "mapping",
        "key": "t_address",
        "label": "mapping(address => address)",
        "numberOfBytes": "32",
        "value": "t_address"
      },
      "t_mapping(t_bytes32,t_enum(VALIDATOR_STATE)3537)": {
        "encoding": "mapping",
        "key": "t_bytes32",
        "label": "mapping(bytes32 => enum ValidatorRegistrator.VALIDATOR_STATE)",
        "numberOfBytes": "32",
        "value": "t_enum(VALIDATOR_STATE)3537"
      },
      "t_uint256": {
        "encoding": "inplace",
        "label": "uint256",
        "numberOfBytes": "32"
      }
    }
  }
}