{
  "address": "0x54aEe77082298423CF012423DA5963B8fFAa9AF8",
  "abi": [
    {
      "inputs": [
        {
          "components": [
            {
              "internalType": "address",
              "name": "platformAddress",
              "type": "address"
            },
            {
              "internalType": "address",
              "name": "vaultAddress",
              "type": "address"
            }
          ],
          "internalType": "struct InitializableAbstractStrategy.BaseStrategyConfig",
          "name": "_baseConfig",
          "type": "tuple"
        },
        {
          "internalType": "address",
          "name": "_wethAddress",
          "type": "address"
        },
        {
          "internalType": "address",
          "name": "_ssvToken",
          "type": "address"
        },
        {
          "internalType": "address",
          "name": "_ssvNetwork",
          "type": "address"
        },
        {
          "internalType": "uint256",
          "name": "_maxValidators",
          "type": "uint256"
        },
        {
          "internalType": "address",
          "name": "_feeAccumulator",
          "type": "address"
        },
        {
          "internalType": "address",
          "name": "_beaconChainDepositContract",
          "type": "address"
        }
      ],
      "stateMutability": "nonpayable",
      "type": "constructor"
    },
    {
      "anonymous": false,
      "inputs": [
        {
          "indexed": false,
          "internalType": "uint256",
          "name": "amount",
          "type": "uint256"
        }
      ],
      "name": "AccountingConsensusRewards",
      "type": "event"
    },
    {
      "anonymous": false,
      "inputs": [
        {
          "indexed": false,
          "internalType": "uint256",
          "name": "noOfValidators",
          "type": "uint256"
        },
        {
          "indexed": false,
          "internalType": "uint256",
          "name": "remainingValidators",
          "type": "uint256"
        },
        {
          "indexed": false,
          "internalType": "uint256",
          "name": "wethSentToVault",
          "type": "uint256"
        }
      ],
      "name": "AccountingFullyWithdrawnValidator",
      "type": "event"
    },
    {
      "anonymous": false,
      "inputs": [
        {
          "indexed": false,
          "internalType": "int256",
          "name": "validatorsDelta",
          "type": "int256"
        },
        {
          "indexed": false,
          "internalType": "int256",
          "name": "consensusRewardsDelta",
          "type": "int256"
        },
        {
          "indexed": false,
          "internalType": "uint256",
          "name": "wethToVault",
          "type": "uint256"
        }
      ],
      "name": "AccountingManuallyFixed",
      "type": "event"
    },
    {
      "anonymous": false,
      "inputs": [
        {
          "indexed": false,
          "internalType": "uint256",
          "name": "remainingValidators",
          "type": "uint256"
        },
        {
          "indexed": false,
          "internalType": "uint256",
          "name": "wethSentToVault",
          "type": "uint256"
        }
      ],
      "name": "AccountingValidatorSlashed",
      "type": "event"
    },
    {
      "anonymous": false,
      "inputs": [
        {
          "indexed": true,
          "internalType": "address",
          "name": "_asset",
          "type": "address"
        },
        {
          "indexed": false,
          "internalType": "address",
          "name": "_pToken",
          "type": "address"
        },
        {
          "indexed": false,
          "internalType": "uint256",
          "name": "_amount",
          "type": "uint256"
        }
      ],
      "name": "Deposit",
      "type": "event"
    },
    {
      "anonymous": false,
      "inputs": [
        {
          "indexed": true,
          "internalType": "bytes32",
          "name": "pubKeyHash",
          "type": "bytes32"
        },
        {
          "indexed": false,
          "internalType": "bytes",
          "name": "pubKey",
          "type": "bytes"
        },
        {
          "indexed": false,
          "internalType": "uint256",
          "name": "amount",
          "type": "uint256"
        }
      ],
      "name": "ETHStaked",
      "type": "event"
    },
    {
      "anonymous": false,
      "inputs": [
        {
          "indexed": false,
          "internalType": "uint256",
          "name": "start",
          "type": "uint256"
        },
        {
          "indexed": false,
          "internalType": "uint256",
          "name": "end",
          "type": "uint256"
        }
      ],
      "name": "FuseIntervalUpdated",
      "type": "event"
    },
    {
      "anonymous": false,
      "inputs": [
        {
          "indexed": true,
          "internalType": "address",
          "name": "previousGovernor",
          "type": "address"
        },
        {
          "indexed": true,
          "internalType": "address",
          "name": "newGovernor",
          "type": "address"
        }
      ],
      "name": "GovernorshipTransferred",
      "type": "event"
    },
    {
      "anonymous": false,
      "inputs": [
        {
          "indexed": false,
          "internalType": "address",
          "name": "_oldHarvesterAddress",
          "type": "address"
        },
        {
          "indexed": false,
          "internalType": "address",
          "name": "_newHarvesterAddress",
          "type": "address"
        }
      ],
      "name": "HarvesterAddressesUpdated",
      "type": "event"
    },
    {
      "anonymous": false,
      "inputs": [
        {
          "indexed": true,
          "internalType": "address",
          "name": "_asset",
          "type": "address"
        },
        {
          "indexed": false,
          "internalType": "address",
          "name": "_pToken",
          "type": "address"
        }
      ],
      "name": "PTokenAdded",
      "type": "event"
    },
    {
      "anonymous": false,
      "inputs": [
        {
          "indexed": true,
          "internalType": "address",
          "name": "_asset",
          "type": "address"
        },
        {
          "indexed": false,
          "internalType": "address",
          "name": "_pToken",
          "type": "address"
        }
      ],
      "name": "PTokenRemoved",
      "type": "event"
    },
    {
      "anonymous": false,
      "inputs": [
        {
          "indexed": false,
          "internalType": "address",
          "name": "account",
          "type": "address"
        }
      ],
      "name": "Paused",
      "type": "event"
    },
    {
      "anonymous": false,
      "inputs": [
        {
          "indexed": true,
          "internalType": "address",
          "name": "previousGovernor",
          "type": "address"
        },
        {
          "indexed": true,
          "internalType": "address",
          "name": "newGovernor",
          "type": "address"
        }
      ],
      "name": "PendingGovernorshipTransfer",
      "type": "event"
    },
    {
      "anonymous": false,
      "inputs": [
        {
          "indexed": true,
          "internalType": "address",
          "name": "newAddress",
          "type": "address"
        }
      ],
      "name": "RegistratorChanged",
      "type": "event"
    },
    {
      "anonymous": false,
      "inputs": [
        {
          "indexed": false,
          "internalType": "address[]",
          "name": "_oldAddresses",
          "type": "address[]"
        },
        {
          "indexed": false,
          "internalType": "address[]",
          "name": "_newAddresses",
          "type": "address[]"
        }
      ],
      "name": "RewardTokenAddressesUpdated",
      "type": "event"
    },
    {
      "anonymous": false,
      "inputs": [
        {
          "indexed": false,
          "internalType": "address",
          "name": "recipient",
          "type": "address"
        },
        {
          "indexed": false,
          "internalType": "address",
          "name": "rewardToken",
          "type": "address"
        },
        {
          "indexed": false,
          "internalType": "uint256",
          "name": "amount",
          "type": "uint256"
        }
      ],
      "name": "RewardTokenCollected",
      "type": "event"
    },
    {
      "anonymous": false,
      "inputs": [
        {
          "indexed": true,
          "internalType": "bytes32",
          "name": "pubKeyHash",
          "type": "bytes32"
        },
        {
          "indexed": false,
          "internalType": "bytes",
          "name": "pubKey",
          "type": "bytes"
        },
        {
          "indexed": false,
          "internalType": "uint64[]",
          "name": "operatorIds",
          "type": "uint64[]"
        }
      ],
      "name": "SSVValidatorExitCompleted",
      "type": "event"
    },
    {
      "anonymous": false,
      "inputs": [
        {
          "indexed": true,
          "internalType": "bytes32",
          "name": "pubKeyHash",
          "type": "bytes32"
        },
        {
          "indexed": false,
          "internalType": "bytes",
          "name": "pubKey",
          "type": "bytes"
        },
        {
          "indexed": false,
          "internalType": "uint64[]",
          "name": "operatorIds",
          "type": "uint64[]"
        }
      ],
      "name": "SSVValidatorExitInitiated",
      "type": "event"
    },
    {
      "anonymous": false,
      "inputs": [
        {
          "indexed": true,
          "internalType": "bytes32",
          "name": "pubKeyHash",
          "type": "bytes32"
        },
        {
          "indexed": false,
          "internalType": "bytes",
          "name": "pubKey",
          "type": "bytes"
        },
        {
          "indexed": false,
          "internalType": "uint64[]",
          "name": "operatorIds",
          "type": "uint64[]"
        }
      ],
      "name": "SSVValidatorRegistered",
      "type": "event"
    },
    {
      "anonymous": false,
      "inputs": [],
      "name": "StakeETHTallyReset",
      "type": "event"
    },
    {
      "anonymous": false,
      "inputs": [
        {
          "indexed": false,
          "internalType": "uint256",
          "name": "amount",
          "type": "uint256"
        }
      ],
      "name": "StakeETHThresholdChanged",
      "type": "event"
    },
    {
      "anonymous": false,
      "inputs": [
        {
          "indexed": true,
          "internalType": "address",
          "name": "newAddress",
          "type": "address"
        }
      ],
      "name": "StakingMonitorChanged",
      "type": "event"
    },
    {
      "anonymous": false,
      "inputs": [
        {
          "indexed": false,
          "internalType": "address",
          "name": "account",
          "type": "address"
        }
      ],
      "name": "Unpaused",
      "type": "event"
    },
    {
      "anonymous": false,
      "inputs": [
        {
          "indexed": true,
          "internalType": "address",
          "name": "_asset",
          "type": "address"
        },
        {
          "indexed": false,
          "internalType": "address",
          "name": "_pToken",
          "type": "address"
        },
        {
          "indexed": false,
          "internalType": "uint256",
          "name": "_amount",
          "type": "uint256"
        }
      ],
      "name": "Withdrawal",
      "type": "event"
    },
    {
      "inputs": [],
      "name": "BEACON_CHAIN_DEPOSIT_CONTRACT",
      "outputs": [
        {
          "internalType": "address",
          "name": "",
          "type": "address"
        }
      ],
      "stateMutability": "view",
      "type": "function"
    },
    {
      "inputs": [],
      "name": "FEE_ACCUMULATOR_ADDRESS",
      "outputs": [
        {
          "internalType": "address payable",
          "name": "",
          "type": "address"
        }
      ],
      "stateMutability": "view",
      "type": "function"
    },
    {
      "inputs": [],
      "name": "FULL_STAKE",
      "outputs": [
        {
          "internalType": "uint256",
          "name": "",
          "type": "uint256"
        }
      ],
      "stateMutability": "view",
      "type": "function"
    },
    {
      "inputs": [],
      "name": "MAX_VALIDATORS",
      "outputs": [
        {
          "internalType": "uint256",
          "name": "",
          "type": "uint256"
        }
      ],
      "stateMutability": "view",
      "type": "function"
    },
    {
      "inputs": [],
      "name": "MIN_FIX_ACCOUNTING_CADENCE",
      "outputs": [
        {
          "internalType": "uint256",
          "name": "",
          "type": "uint256"
        }
      ],
      "stateMutability": "view",
      "type": "function"
    },
    {
      "inputs": [],
      "name": "SSV_NETWORK",
      "outputs": [
        {
          "internalType": "address",
          "name": "",
          "type": "address"
        }
      ],
      "stateMutability": "view",
      "type": "function"
    },
    {
      "inputs": [],
      "name": "SSV_TOKEN",
      "outputs": [
        {
          "internalType": "address",
          "name": "",
          "type": "address"
        }
      ],
      "stateMutability": "view",
      "type": "function"
    },
    {
      "inputs": [],
      "name": "VAULT_ADDRESS",
      "outputs": [
        {
          "internalType": "address",
          "name": "",
          "type": "address"
        }
      ],
      "stateMutability": "view",
      "type": "function"
    },
    {
      "inputs": [],
      "name": "WETH",
      "outputs": [
        {
          "internalType": "address",
          "name": "",
          "type": "address"
        }
      ],
      "stateMutability": "view",
      "type": "function"
    },
    {
      "inputs": [],
      "name": "activeDepositedValidators",
      "outputs": [
        {
          "internalType": "uint256",
          "name": "",
          "type": "uint256"
        }
      ],
      "stateMutability": "view",
      "type": "function"
    },
    {
      "inputs": [
        {
          "internalType": "address",
          "name": "",
          "type": "address"
        }
      ],
      "name": "assetToPToken",
      "outputs": [
        {
          "internalType": "address",
          "name": "",
          "type": "address"
        }
      ],
      "stateMutability": "view",
      "type": "function"
    },
    {
      "inputs": [
        {
          "internalType": "address",
          "name": "_asset",
          "type": "address"
        }
      ],
      "name": "checkBalance",
      "outputs": [
        {
          "internalType": "uint256",
          "name": "balance",
          "type": "uint256"
        }
      ],
      "stateMutability": "view",
      "type": "function"
    },
    {
      "inputs": [],
      "name": "claimGovernance",
      "outputs": [],
      "stateMutability": "nonpayable",
      "type": "function"
    },
    {
      "inputs": [],
      "name": "collectRewardTokens",
      "outputs": [],
      "stateMutability": "nonpayable",
      "type": "function"
    },
    {
      "inputs": [],
      "name": "consensusRewards",
      "outputs": [
        {
          "internalType": "uint256",
          "name": "",
          "type": "uint256"
        }
      ],
      "stateMutability": "view",
      "type": "function"
    },
    {
      "inputs": [
        {
          "internalType": "address",
          "name": "_asset",
          "type": "address"
        },
        {
          "internalType": "uint256",
          "name": "_amount",
          "type": "uint256"
        }
      ],
      "name": "deposit",
      "outputs": [],
      "stateMutability": "nonpayable",
      "type": "function"
    },
    {
      "inputs": [],
      "name": "depositAll",
      "outputs": [],
      "stateMutability": "nonpayable",
      "type": "function"
    },
    {
      "inputs": [
        {
          "internalType": "uint64[]",
          "name": "operatorIds",
          "type": "uint64[]"
        },
        {
          "internalType": "uint256",
          "name": "ssvAmount",
          "type": "uint256"
        },
        {
          "components": [
            {
              "internalType": "uint32",
              "name": "validatorCount",
              "type": "uint32"
            },
            {
              "internalType": "uint64",
              "name": "networkFeeIndex",
              "type": "uint64"
            },
            {
              "internalType": "uint64",
              "name": "index",
              "type": "uint64"
            },
            {
              "internalType": "bool",
              "name": "active",
              "type": "bool"
            },
            {
              "internalType": "uint256",
              "name": "balance",
              "type": "uint256"
            }
          ],
          "internalType": "struct Cluster",
          "name": "cluster",
          "type": "tuple"
        }
      ],
      "name": "depositSSV",
      "outputs": [],
      "stateMutability": "nonpayable",
      "type": "function"
    },
    {
      "inputs": [],
      "name": "depositedWethAccountedFor",
      "outputs": [
        {
          "internalType": "uint256",
          "name": "",
          "type": "uint256"
        }
      ],
      "stateMutability": "view",
      "type": "function"
    },
    {
      "inputs": [],
      "name": "doAccounting",
      "outputs": [
        {
          "internalType": "bool",
          "name": "accountingValid",
          "type": "bool"
        }
      ],
      "stateMutability": "nonpayable",
      "type": "function"
    },
    {
      "inputs": [
        {
          "internalType": "bytes",
          "name": "publicKey",
          "type": "bytes"
        },
        {
          "internalType": "uint64[]",
          "name": "operatorIds",
          "type": "uint64[]"
        }
      ],
      "name": "exitSsvValidator",
      "outputs": [],
      "stateMutability": "nonpayable",
      "type": "function"
    },
    {
      "inputs": [],
      "name": "fuseIntervalEnd",
      "outputs": [
        {
          "internalType": "uint256",
          "name": "",
          "type": "uint256"
        }
      ],
      "stateMutability": "view",
      "type": "function"
    },
    {
      "inputs": [],
      "name": "fuseIntervalStart",
      "outputs": [
        {
          "internalType": "uint256",
          "name": "",
          "type": "uint256"
        }
      ],
      "stateMutability": "view",
      "type": "function"
    },
    {
      "inputs": [],
      "name": "getRewardTokenAddresses",
      "outputs": [
        {
          "internalType": "address[]",
          "name": "",
          "type": "address[]"
        }
      ],
      "stateMutability": "view",
      "type": "function"
    },
    {
      "inputs": [],
      "name": "governor",
      "outputs": [
        {
          "internalType": "address",
          "name": "",
          "type": "address"
        }
      ],
      "stateMutability": "view",
      "type": "function"
    },
    {
      "inputs": [],
      "name": "harvesterAddress",
      "outputs": [
        {
          "internalType": "address",
          "name": "",
          "type": "address"
        }
      ],
      "stateMutability": "view",
      "type": "function"
    },
    {
      "inputs": [
        {
          "internalType": "address[]",
          "name": "_rewardTokenAddresses",
          "type": "address[]"
        },
        {
          "internalType": "address[]",
          "name": "_assets",
          "type": "address[]"
        },
        {
          "internalType": "address[]",
          "name": "_pTokens",
          "type": "address[]"
        }
      ],
      "name": "initialize",
      "outputs": [],
      "stateMutability": "nonpayable",
      "type": "function"
    },
    {
      "inputs": [],
      "name": "isGovernor",
      "outputs": [
        {
          "internalType": "bool",
          "name": "",
          "type": "bool"
        }
      ],
      "stateMutability": "view",
      "type": "function"
    },
    {
      "inputs": [],
      "name": "lastFixAccountingBlockNumber",
      "outputs": [
        {
          "internalType": "uint256",
          "name": "",
          "type": "uint256"
        }
      ],
      "stateMutability": "view",
      "type": "function"
    },
    {
      "inputs": [
        {
          "internalType": "int256",
          "name": "_validatorsDelta",
          "type": "int256"
        },
        {
          "internalType": "int256",
          "name": "_consensusRewardsDelta",
          "type": "int256"
        },
        {
          "internalType": "uint256",
          "name": "_ethToVaultAmount",
          "type": "uint256"
        }
      ],
      "name": "manuallyFixAccounting",
      "outputs": [],
      "stateMutability": "nonpayable",
      "type": "function"
    },
    {
      "inputs": [],
      "name": "pause",
      "outputs": [],
      "stateMutability": "nonpayable",
      "type": "function"
    },
    {
      "inputs": [],
      "name": "paused",
      "outputs": [
        {
          "internalType": "bool",
          "name": "",
          "type": "bool"
        }
      ],
      "stateMutability": "view",
      "type": "function"
    },
    {
      "inputs": [],
      "name": "platformAddress",
      "outputs": [
        {
          "internalType": "address",
          "name": "",
          "type": "address"
        }
      ],
      "stateMutability": "view",
      "type": "function"
    },
    {
      "inputs": [
        {
          "internalType": "bytes[]",
          "name": "publicKeys",
          "type": "bytes[]"
        },
        {
          "internalType": "uint64[]",
          "name": "operatorIds",
          "type": "uint64[]"
        },
        {
          "internalType": "bytes[]",
          "name": "sharesData",
          "type": "bytes[]"
        },
        {
          "internalType": "uint256",
          "name": "ssvAmount",
          "type": "uint256"
        },
        {
          "components": [
            {
              "internalType": "uint32",
              "name": "validatorCount",
              "type": "uint32"
            },
            {
              "internalType": "uint64",
              "name": "networkFeeIndex",
              "type": "uint64"
            },
            {
              "internalType": "uint64",
              "name": "index",
              "type": "uint64"
            },
            {
              "internalType": "bool",
              "name": "active",
              "type": "bool"
            },
            {
              "internalType": "uint256",
              "name": "balance",
              "type": "uint256"
            }
          ],
          "internalType": "struct Cluster",
          "name": "cluster",
          "type": "tuple"
        }
      ],
      "name": "registerSsvValidators",
      "outputs": [],
      "stateMutability": "nonpayable",
      "type": "function"
    },
    {
      "inputs": [
        {
          "internalType": "uint256",
          "name": "_assetIndex",
          "type": "uint256"
        }
      ],
      "name": "removePToken",
      "outputs": [],
      "stateMutability": "nonpayable",
      "type": "function"
    },
    {
      "inputs": [
        {
          "internalType": "bytes",
          "name": "publicKey",
          "type": "bytes"
        },
        {
          "internalType": "uint64[]",
          "name": "operatorIds",
          "type": "uint64[]"
        },
        {
          "components": [
            {
              "internalType": "uint32",
              "name": "validatorCount",
              "type": "uint32"
            },
            {
              "internalType": "uint64",
              "name": "networkFeeIndex",
              "type": "uint64"
            },
            {
              "internalType": "uint64",
              "name": "index",
              "type": "uint64"
            },
            {
              "internalType": "bool",
              "name": "active",
              "type": "bool"
            },
            {
              "internalType": "uint256",
              "name": "balance",
              "type": "uint256"
            }
          ],
          "internalType": "struct Cluster",
          "name": "cluster",
          "type": "tuple"
        }
      ],
      "name": "removeSsvValidator",
      "outputs": [],
      "stateMutability": "nonpayable",
      "type": "function"
    },
    {
      "inputs": [],
      "name": "resetStakeETHTally",
      "outputs": [],
      "stateMutability": "nonpayable",
      "type": "function"
    },
    {
      "inputs": [
        {
          "internalType": "uint256",
          "name": "",
          "type": "uint256"
        }
      ],
      "name": "rewardTokenAddresses",
      "outputs": [
        {
          "internalType": "address",
          "name": "",
          "type": "address"
        }
      ],
      "stateMutability": "view",
      "type": "function"
    },
    {
      "inputs": [],
      "name": "safeApproveAllTokens",
      "outputs": [],
      "stateMutability": "nonpayable",
      "type": "function"
    },
    {
      "inputs": [
        {
          "internalType": "uint256",
          "name": "_fuseIntervalStart",
          "type": "uint256"
        },
        {
          "internalType": "uint256",
          "name": "_fuseIntervalEnd",
          "type": "uint256"
        }
      ],
      "name": "setFuseInterval",
      "outputs": [],
      "stateMutability": "nonpayable",
      "type": "function"
    },
    {
      "inputs": [
        {
          "internalType": "address",
          "name": "_harvesterAddress",
          "type": "address"
        }
      ],
      "name": "setHarvesterAddress",
      "outputs": [],
      "stateMutability": "nonpayable",
      "type": "function"
    },
    {
      "inputs": [
        {
          "internalType": "address",
          "name": "_asset",
          "type": "address"
        },
        {
          "internalType": "address",
          "name": "_pToken",
          "type": "address"
        }
      ],
      "name": "setPTokenAddress",
      "outputs": [],
      "stateMutability": "nonpayable",
      "type": "function"
    },
    {
      "inputs": [
        {
          "internalType": "address",
          "name": "_address",
          "type": "address"
        }
      ],
      "name": "setRegistrator",
      "outputs": [],
      "stateMutability": "nonpayable",
      "type": "function"
    },
    {
      "inputs": [
        {
          "internalType": "address[]",
          "name": "_rewardTokenAddresses",
          "type": "address[]"
        }
      ],
      "name": "setRewardTokenAddresses",
      "outputs": [],
      "stateMutability": "nonpayable",
      "type": "function"
    },
    {
      "inputs": [
        {
          "internalType": "uint256",
          "name": "_amount",
          "type": "uint256"
        }
      ],
      "name": "setStakeETHThreshold",
      "outputs": [],
      "stateMutability": "nonpayable",
      "type": "function"
    },
    {
      "inputs": [
        {
          "internalType": "address",
          "name": "_address",
          "type": "address"
        }
      ],
      "name": "setStakingMonitor",
      "outputs": [],
      "stateMutability": "nonpayable",
      "type": "function"
    },
    {
      "inputs": [],
      "name": "stakeETHTally",
      "outputs": [
        {
          "internalType": "uint256",
          "name": "",
          "type": "uint256"
        }
      ],
      "stateMutability": "view",
      "type": "function"
    },
    {
      "inputs": [],
      "name": "stakeETHThreshold",
      "outputs": [
        {
          "internalType": "uint256",
          "name": "",
          "type": "uint256"
        }
      ],
      "stateMutability": "view",
      "type": "function"
    },
    {
      "inputs": [
        {
          "components": [
            {
              "internalType": "bytes",
              "name": "pubkey",
              "type": "bytes"
            },
            {
              "internalType": "bytes",
              "name": "signature",
              "type": "bytes"
            },
            {
              "internalType": "bytes32",
              "name": "depositDataRoot",
              "type": "bytes32"
            }
          ],
          "internalType": "struct ValidatorStakeData[]",
          "name": "validators",
          "type": "tuple[]"
        }
      ],
      "name": "stakeEth",
      "outputs": [],
      "stateMutability": "nonpayable",
      "type": "function"
    },
    {
      "inputs": [],
      "name": "stakingMonitor",
      "outputs": [
        {
          "internalType": "address",
          "name": "",
          "type": "address"
        }
      ],
      "stateMutability": "view",
      "type": "function"
    },
    {
      "inputs": [
        {
          "internalType": "address",
          "name": "_asset",
          "type": "address"
        }
      ],
      "name": "supportsAsset",
      "outputs": [
        {
          "internalType": "bool",
          "name": "",
          "type": "bool"
        }
      ],
      "stateMutability": "view",
      "type": "function"
    },
    {
      "inputs": [
        {
          "internalType": "address",
          "name": "_newGovernor",
          "type": "address"
        }
      ],
      "name": "transferGovernance",
      "outputs": [],
      "stateMutability": "nonpayable",
      "type": "function"
    },
    {
      "inputs": [
        {
          "internalType": "address",
          "name": "_asset",
          "type": "address"
        },
        {
          "internalType": "uint256",
          "name": "_amount",
          "type": "uint256"
        }
      ],
      "name": "transferToken",
      "outputs": [],
      "stateMutability": "nonpayable",
      "type": "function"
    },
    {
      "inputs": [],
      "name": "validatorRegistrator",
      "outputs": [
        {
          "internalType": "address",
          "name": "",
          "type": "address"
        }
      ],
      "stateMutability": "view",
      "type": "function"
    },
    {
      "inputs": [
        {
          "internalType": "bytes32",
          "name": "",
          "type": "bytes32"
        }
      ],
      "name": "validatorsStates",
      "outputs": [
        {
          "internalType": "enum ValidatorRegistrator.VALIDATOR_STATE",
          "name": "",
          "type": "uint8"
        }
      ],
      "stateMutability": "view",
      "type": "function"
    },
    {
      "inputs": [],
      "name": "vaultAddress",
      "outputs": [
        {
          "internalType": "address",
          "name": "",
          "type": "address"
        }
      ],
      "stateMutability": "view",
      "type": "function"
    },
    {
      "inputs": [
        {
          "internalType": "address",
          "name": "_recipient",
          "type": "address"
        },
        {
          "internalType": "address",
          "name": "_asset",
          "type": "address"
        },
        {
          "internalType": "uint256",
          "name": "_amount",
          "type": "uint256"
        }
      ],
      "name": "withdraw",
      "outputs": [],
      "stateMutability": "nonpayable",
      "type": "function"
    },
    {
      "inputs": [],
      "name": "withdrawAll",
      "outputs": [],
      "stateMutability": "nonpayable",
      "type": "function"
    },
    {
      "stateMutability": "payable",
      "type": "receive"
    }
  ],
  "transactionHash": "0x2f98316331795007d4ecd332d724c7a2b778ec6356eb2f87e8116811a52fe7cb",
  "args": [
    [
      "0x0000000000000000000000000000000000000000",
      "0x19d2bAaBA949eFfa163bFB9efB53ed8701aA5dD9"
    ],
    "0x94373a4919B3240D86eA41593D5eBa789FEF3848",
    "0xad45A78180961079BFaeEe349704F411dfF947C6",
    "0x38A4794cCEd47d3baf7370CcC43B560D3a1beEFA",
    600,
    "0x65a289f4BF934c964C942eFF6E6F83b6481BE550",
    "0x4242424242424242424242424242424242424242"
  ],
  "numDeployments": 8,
  "solcInputHash": "ba8695eb2e88fba4c41fb618e06db1be",
  "bytecode": "0x6101a06040523480156200001257600080fd5b50604051620053c9380380620053c9833981016040819052620000359162000144565b86868860200151838787848484848462000055336200011460201b60201c565b600080516020620053a9833981519152546040516001600160a01b03909116906000907fc7c0c772add429241571afb3805861fb3cfa2af374534088b76cdb4325a87e9a908290a36033805460ff191690556001600160601b0319606095861b811660805292851b831660a05290841b821660c05291831b811660e052610100919091528751821b811661012052602090970151811b8716610140529a8b1b86166101605250505050509190941b1661018052506200022b9350505050565b600080516020620053a983398151915255565b80516001600160a01b03811681146200013f57600080fd5b919050565b60008060008060008060008789036101008112156200016257600080fd5b60408112156200017157600080fd5b50604080519081016001600160401b0381118282101715620001a357634e487b7160e01b600052604160045260246000fd5b604052620001b18962000127565b8152620001c160208a0162000127565b60208201529650620001d66040890162000127565b9550620001e66060890162000127565b9450620001f66080890162000127565b935060a088015192506200020d60c0890162000127565b91506200021d60e0890162000127565b905092959891949750929550565b60805160601c60a05160601c60c05160601c60e05160601c610100516101205160601c6101405160601c6101605160601c6101805160601c614fc1620003e86000396000818161039501528181610b6701526133ba01526000818161048501526129b601526000818161057301528181610f4701528181611e3c01528181611fb501528181612ba20152612e4701526000610b33015260008181610737015261172e01526000818161086601528181610d0f01528181611d6a015281816120050152818161237a015281816139aa0152613c040152600081816108ba01528181610de50152818161129801528181611c6d015281816129860152612d6e015260008181610a8801526119a70152600081816103c70152818161098b01528181610a0201528181610c7601528181610fbc01528181611462015281816114c6015281816116640152818161182c01528181611f2601528181611fd6015281816122f4015281816123a901528181612c1701528181612ed201528181612f7a015281816134bf01528181613540015281816135820152818161385201528181613924015281816139d901528181613b7e0152613c330152614fc16000f3fe6080604052600436106103855760003560e01c8063853828b6116101d1578063b16b7d0b11610102578063d9f00ec7116100a0578063de5f62681161006f578063de5f626814610b9f578063e752923914610bb4578063ee7afe2d14610bca578063f6ca71b014610bdf57600080fd5b8063d9f00ec714610b01578063dbe55e5614610b21578063dd505df614610b55578063de34d71314610b8957600080fd5b8063cceab750116100dc578063cceab75014610a76578063d059f6ef14610aaa578063d38bfff414610ac1578063d9caed1214610ae157600080fd5b8063b16b7d0b14610a24578063c2e1e3f414610a41578063c7af335214610a6157600080fd5b80639da0e4621161016f578063aa388af611610149578063aa388af61461096e578063ab12edf5146109bb578063ad1728cb146109db578063ad5c4648146109f057600080fd5b80639da0e462146108fc578063a3b81e7314610939578063a4f98af41461095957600080fd5b80639092c31c116101ab5780639092c31c146108545780639136616a1461088857806391649751146108a857806396d538bb146108dc57600080fd5b8063853828b6146107fa57806387bae8671461080f5780638d7c0e461461083457600080fd5b80635c975abb116102b65780636ef38795116102545780637b2d9b2c116102235780637b2d9b2c146107995780637b8962f7146107b9578063842f5c46146107cf5780638456cb59146107e557600080fd5b80636ef3879514610705578063714897df1461072557806371a735f3146107595780637260f8261461077957600080fd5b80636309238311610290578063630923831461069957806366e3667e146106af57806367c7066c146106c55780636e811d38146106e557600080fd5b80635c975abb146106405780635d36b190146106645780635f5152261461067957600080fd5b8063430bf08a11610323578063484be812116102fd578063484be812146105d55780635205c380146105eb57806359b80c0a1461060b5780635a063f631461062b57600080fd5b8063430bf08a14610561578063435356d11461059557806347e7ef24146105b557600080fd5b80630fc3b4c41161035f5780630fc3b4c4146104c75780631072cbea146104fd57806322495dc81461051d5780633c8649591461053d57600080fd5b80630c340a24146104415780630df1ecfd146104735780630ed57b3a146104a757600080fd5b3661043c57336001600160a01b037f00000000000000000000000000000000000000000000000000000000000000001614806103e95750336001600160a01b037f000000000000000000000000000000000000000000000000000000000000000016145b61043a5760405162461bcd60e51b815260206004820152601e60248201527f457468206e6f742066726f6d20616c6c6f77656420636f6e747261637473000060448201526064015b60405180910390fd5b005b600080fd5b34801561044d57600080fd5b50610456610c01565b6040516001600160a01b0390911681526020015b60405180910390f35b34801561047f57600080fd5b506104567f000000000000000000000000000000000000000000000000000000000000000081565b3480156104b357600080fd5b5061043a6104c236600461428f565b610c1e565b3480156104d357600080fd5b506104566104e2366004614255565b609f602052600090815260409020546001600160a01b031681565b34801561050957600080fd5b5061043a610518366004614309565b610c50565b34801561052957600080fd5b5061043a6105383660046144b1565b610d0d565b34801561054957600080fd5b5061055360695481565b60405190815260200161046a565b34801561056d57600080fd5b506104567f000000000000000000000000000000000000000000000000000000000000000081565b3480156105a157600080fd5b5061043a6105b0366004614376565b610e57565b3480156105c157600080fd5b5061043a6105d0366004614309565b610f3c565b3480156105e157600080fd5b50610553606a5481565b3480156105f757600080fd5b5061043a610606366004614587565b611037565b34801561061757600080fd5b5061043a6106263660046143fd565b611096565b34801561063757600080fd5b5061043a611319565b34801561064c57600080fd5b5060335460ff165b604051901515815260200161046a565b34801561067057600080fd5b5061043a6113b8565b34801561068557600080fd5b50610553610694366004614255565b61145e565b3480156106a557600080fd5b50610553611c2081565b3480156106bb57600080fd5b5061055360345481565b3480156106d157600080fd5b5060a354610456906001600160a01b031681565b3480156106f157600080fd5b5061043a610700366004614255565b61156f565b34801561071157600080fd5b5061043a610720366004614335565b6115e5565b34801561073157600080fd5b506105537f000000000000000000000000000000000000000000000000000000000000000081565b34801561076557600080fd5b5061043a61077436600461460b565b611b79565b34801561078557600080fd5b50603654610456906001600160a01b031681565b3480156107a557600080fd5b506104566107b4366004614587565b611d3e565b3480156107c557600080fd5b5061055360375481565b3480156107db57600080fd5b5061055360685481565b3480156107f157600080fd5b5061043a611d68565b34801561080657600080fd5b5061043a611e31565b34801561081b57600080fd5b506033546104569061010090046001600160a01b031681565b34801561084057600080fd5b5061043a61084f36600461468c565b612003565b34801561086057600080fd5b506104567f000000000000000000000000000000000000000000000000000000000000000081565b34801561089457600080fd5b5061043a6108a3366004614587565b6124ca565b3480156108b457600080fd5b506104567f000000000000000000000000000000000000000000000000000000000000000081565b3480156108e857600080fd5b5061043a6108f7366004614335565b612696565b34801561090857600080fd5b5061092c610917366004614587565b60356020526000908152604090205460ff1681565b60405161046a9190614b7f565b34801561094557600080fd5b5061043a610954366004614255565b6127b6565b34801561096557600080fd5b50610654612824565b34801561097a57600080fd5b50610654610989366004614255565b7f00000000000000000000000000000000000000000000000000000000000000006001600160a01b0390811691161490565b3480156109c757600080fd5b5061043a6109d63660046146d1565b612883565b3480156109e757600080fd5b5061043a61296f565b3480156109fc57600080fd5b506104567f000000000000000000000000000000000000000000000000000000000000000081565b348015610a3057600080fd5b506105536801bc16d674ec80000081565b348015610a4d57600080fd5b5061043a610a5c366004614255565b612a35565b348015610a6d57600080fd5b50610654612ac2565b348015610a8257600080fd5b506104567f000000000000000000000000000000000000000000000000000000000000000081565b348015610ab657600080fd5b506105536101075481565b348015610acd57600080fd5b5061043a610adc366004614255565b612af3565b348015610aed57600080fd5b5061043a610afc3660046142c8565b612b97565b348015610b0d57600080fd5b5061043a610b1c3660046145a0565b612c7b565b348015610b2d57600080fd5b506104567f000000000000000000000000000000000000000000000000000000000000000081565b348015610b6157600080fd5b506104567f000000000000000000000000000000000000000000000000000000000000000081565b348015610b9557600080fd5b5061055360385481565b348015610bab57600080fd5b5061043a612e3c565b348015610bc057600080fd5b50610553606b5481565b348015610bd657600080fd5b5061043a612fa9565b348015610beb57600080fd5b50610bf4613033565b60405161046a919061495d565b6000610c19600080516020614f6c8339815191525490565b905090565b610c26612ac2565b610c425760405162461bcd60e51b815260040161043190614bf1565b610c4c8282613095565b5050565b610c58612ac2565b610c745760405162461bcd60e51b815260040161043190614bf1565b7f00000000000000000000000000000000000000000000000000000000000000006001600160a01b039081169083161415610cf15760405162461bcd60e51b815260206004820152601f60248201527f43616e6e6f74207472616e7366657220737570706f72746564206173736574006044820152606401610431565b610c4c610cfc610c01565b6001600160a01b03841690836131f4565b7f00000000000000000000000000000000000000000000000000000000000000006001600160a01b031663570d8e1d6040518163ffffffff1660e01b815260040160206040518083038186803b158015610d6657600080fd5b505afa158015610d7a573d6000803e3d6000fd5b505050506040513d601f19601f82011682018060405250810190610d9e9190614272565b6001600160a01b0316336001600160a01b031614610dce5760405162461bcd60e51b815260040161043190614cdc565b60405163bc26e7e560e01b81526001600160a01b037f0000000000000000000000000000000000000000000000000000000000000000169063bc26e7e590610e209030908790879087906004016148ad565b600060405180830381600087803b158015610e3a57600080fd5b505af1158015610e4e573d6000803e3d6000fd5b50505050505050565b610e5f612ac2565b610e7b5760405162461bcd60e51b815260040161043190614bf1565b600054610100900460ff1680610e94575060005460ff16155b610ef75760405162461bcd60e51b815260206004820152602e60248201527f496e697469616c697a61626c653a20636f6e747261637420697320616c72656160448201526d191e481a5b9a5d1a585b1a5e995960921b6064820152608401610431565b600054610100900460ff16158015610f19576000805461ffff19166101011790555b610f24848484613246565b8015610f36576000805461ff00191690555b50505050565b336001600160a01b037f00000000000000000000000000000000000000000000000000000000000000001614610f845760405162461bcd60e51b815260040161043190614bba565b600080516020614f4c83398151915280546002811415610fb65760405162461bcd60e51b815260040161043190614cb4565b600282557f00000000000000000000000000000000000000000000000000000000000000006001600160a01b0316846001600160a01b03161461100b5760405162461bcd60e51b815260040161043190614c28565b82610107600082825461101e9190614e03565b9091555061102e90508484613301565b50600190555050565b61103f612ac2565b61105b5760405162461bcd60e51b815260040161043190614bf1565b60378190556040518181527fe26b067424903962f951f568e52ec9a3bbe1589526ea54a4e69ca6eaae1a4c779060200160405180910390a150565b60335461010090046001600160a01b031633146110c55760405162461bcd60e51b815260040161043190614c7d565b60335460ff16156110e85760405162461bcd60e51b815260040161043190614c53565b8683146111375760405162461bcd60e51b815260206004820152601a60248201527f5075626b65792073686172657344617461206d69736d617463680000000000006044820152606401610431565b60008060005b89811015611280578a8a8281811061115757611157614efc565b90506020028101906111699190614d13565b604051611177929190614881565b6040805191829003909120600081815260356020529182205490945060ff1692508260048111156111aa576111aa614ed0565b146111f75760405162461bcd60e51b815260206004820152601c60248201527f56616c696461746f7220616c72656164792072656769737465726564000000006044820152606401610431565b6000838152603560205260409020805460ff19166001179055827facd38e900350661e325d592c959664c0000a306efb2004e7dc283f44e0ea04238c8c8481811061124457611244614efc565b90506020028101906112569190614d13565b8c8c6040516112689493929190614aa4565b60405180910390a261127981614e9f565b905061113d565b506040516322f18bf560e01b81526001600160a01b037f000000000000000000000000000000000000000000000000000000000000000016906322f18bf5906112db908d908d908d908d908d908d908d908d90600401614a42565b600060405180830381600087803b1580156112f557600080fd5b505af1158015611309573d6000803e3d6000fd5b5050505050505050505050505050565b60a3546001600160a01b031633146113735760405162461bcd60e51b815260206004820152601b60248201527f43616c6c6572206973206e6f74207468652048617276657374657200000000006044820152606401610431565b600080516020614f4c833981519152805460028114156113a55760405162461bcd60e51b815260040161043190614cb4565b600282556113b1613393565b5060019055565b7f44c4d30b2eaad5130ad70c3ba6972730566f3e6359ab83e800d905c61b1c51db546001600160a01b0316336001600160a01b0316146114535760405162461bcd60e51b815260206004820152603060248201527f4f6e6c79207468652070656e64696e6720476f7665726e6f722063616e20636f60448201526f6d706c6574652074686520636c61696d60801b6064820152608401610431565b61145c336135d8565b565b60007f00000000000000000000000000000000000000000000000000000000000000006001600160a01b0316826001600160a01b0316146114b15760405162461bcd60e51b815260040161043190614c28565b6040516370a0823160e01b81523060048201527f00000000000000000000000000000000000000000000000000000000000000006001600160a01b0316906370a082319060240160206040518083038186803b15801561151057600080fd5b505afa158015611524573d6000803e3d6000fd5b505050506040513d601f19601f8201168201806040525081019061154891906146b8565b6801bc16d674ec80000060345461155f9190614e3d565b6115699190614e03565b92915050565b611577612ac2565b6115935760405162461bcd60e51b815260040161043190614bf1565b60338054610100600160a81b0319166101006001600160a01b038416908102919091179091556040517f83f29c79feb71f8fba9d0fbc4ba5f0982a28b6b1e868b3fc50e6400d100bca0f90600090a250565b60335461010090046001600160a01b031633146116145760405162461bcd60e51b815260040161043190614c7d565b60335460ff16156116375760405162461bcd60e51b815260040161043190614c53565b600061164c6801bc16d674ec80000083614e3d565b6040516370a0823160e01b81523060048201529091507f00000000000000000000000000000000000000000000000000000000000000006001600160a01b0316906370a082319060240160206040518083038186803b1580156116ae57600080fd5b505afa1580156116c2573d6000803e3d6000fd5b505050506040513d601f19601f820116820180604052508101906116e691906146b8565b8111156117295760405162461bcd60e51b8152602060048201526011602482015270092dce6eaccccd2c6d2cadce840ae8aa89607b1b6044820152606401610431565b6034547f000000000000000000000000000000000000000000000000000000000000000090611759908490614e03565b11156117a05760405162461bcd60e51b815260206004820152601660248201527513585e081d985b1a59185d1bdc9cc81c995858da195960521b6044820152606401610431565b603754816038546117b19190614e03565b11156117ff5760405162461bcd60e51b815260206004820152601a60248201527f5374616b696e6720455448206f766572207468726573686f6c640000000000006044820152606401610431565b80603860008282546118119190614e03565b9091555050604051632e1a7d4d60e01b8152600481018290527f00000000000000000000000000000000000000000000000000000000000000006001600160a01b031690632e1a7d4d90602401600060405180830381600087803b15801561187857600080fd5b505af115801561188c573d6000803e3d6000fd5b5050505061189981613699565b60408051600160f81b60208201526000602182018190526bffffffffffffffffffffffff193060601b16602c8301529101604051602081830303815290604052905060005b83811015611b585760008585838181106118fa576118fa614efc565b905060200281019061190c9190614d59565b6119169080614d13565b604051611924929190614881565b604080519182900390912060008181526035602052919091205490915060ff16600181600481111561195857611958614ed0565b146119a55760405162461bcd60e51b815260206004820152601860248201527f56616c696461746f72206e6f74207265676973746572656400000000000000006044820152606401610431565b7f00000000000000000000000000000000000000000000000000000000000000006001600160a01b031663228951186801bc16d674ec8000008989878181106119f0576119f0614efc565b9050602002810190611a029190614d59565b611a0c9080614d13565b888c8c8a818110611a1f57611a1f614efc565b9050602002810190611a319190614d59565b611a3f906020810190614d13565b8e8e8c818110611a5157611a51614efc565b9050602002810190611a639190614d59565b604001356040518863ffffffff1660e01b8152600401611a8896959493929190614b0c565b6000604051808303818588803b158015611aa157600080fd5b505af1158015611ab5573d6000803e3d6000fd5b5050506000848152603560205260409020805460ff19166002179055508290507f958934bb53d6b4dc911b6173e586864efbc8076684a31f752c53d5778340b37f888886818110611b0857611b08614efc565b9050602002810190611b1a9190614d59565b611b249080614d13565b6801bc16d674ec800000604051611b3d93929190614b5b565b60405180910390a2505080611b5190614e9f565b90506118de565b508383905060346000828254611b6e9190614e03565b909155505050505050565b60335461010090046001600160a01b03163314611ba85760405162461bcd60e51b815260040161043190614c7d565b60335460ff1615611bcb5760405162461bcd60e51b815260040161043190614c53565b60008585604051611bdd929190614881565b604080519182900390912060008181526035602052919091205490915060ff166003816004811115611c1157611c11614ed0565b14611c565760405162461bcd60e51b815260206004820152601560248201527456616c696461746f72206e6f742065786974696e6760581b6044820152606401610431565b6040516312b3fc1960e01b81526001600160a01b037f000000000000000000000000000000000000000000000000000000000000000016906312b3fc1990611caa908a908a908a908a908a90600401614acb565b600060405180830381600087803b158015611cc457600080fd5b505af1158015611cd8573d6000803e3d6000fd5b50505060008381526035602052604090819020805460ff19166004179055518391507f6aecca20726a17c1b81989b2fd09dfdf636bae9e564d4066ca18df62dc1f3dc290611d2d908a908a908a908a90614aa4565b60405180910390a250505050505050565b60a48181548110611d4e57600080fd5b6000918252602090912001546001600160a01b0316905081565b7f00000000000000000000000000000000000000000000000000000000000000006001600160a01b031663570d8e1d6040518163ffffffff1660e01b815260040160206040518083038186803b158015611dc157600080fd5b505afa158015611dd5573d6000803e3d6000fd5b505050506040513d601f19601f82011682018060405250810190611df99190614272565b6001600160a01b0316336001600160a01b031614611e295760405162461bcd60e51b815260040161043190614cdc565b61145c6136c6565b336001600160a01b037f0000000000000000000000000000000000000000000000000000000000000000161480611e805750611e6b610c01565b6001600160a01b0316336001600160a01b0316145b611ed85760405162461bcd60e51b815260206004820152602360248201527f43616c6c6572206973206e6f7420746865205661756c74206f7220476f7665726044820152623737b960e91b6064820152608401610431565b600080516020614f4c83398151915280546002811415611f0a5760405162461bcd60e51b815260040161043190614cb4565b600282556040516370a0823160e01b81523060048201526000907f00000000000000000000000000000000000000000000000000000000000000006001600160a01b0316906370a082319060240160206040518083038186803b158015611f7057600080fd5b505afa158015611f84573d6000803e3d6000fd5b505050506040513d601f19601f82011682018060405250810190611fa891906146b8565b90508015611ffb57611ffb7f00000000000000000000000000000000000000000000000000000000000000007f00000000000000000000000000000000000000000000000000000000000000008361373b565b505060019055565b7f00000000000000000000000000000000000000000000000000000000000000006001600160a01b031663570d8e1d6040518163ffffffff1660e01b815260040160206040518083038186803b15801561205c57600080fd5b505afa158015612070573d6000803e3d6000fd5b505050506040513d601f19601f820116820180604052508101906120949190614272565b6001600160a01b0316336001600160a01b0316146120c45760405162461bcd60e51b815260040161043190614cdc565b60335460ff1661210d5760405162461bcd60e51b815260206004820152601460248201527314185d5cd8589b194e881b9bdd081c185d5cd95960621b6044820152606401610431565b43611c20606b5461211e9190614e03565b1061216b5760405162461bcd60e51b815260206004820152601e60248201527f466978206163636f756e74696e672063616c6c656420746f6f20736f6f6e00006044820152606401610431565b600219831215801561217e575060038313155b801561219857506000836034546121959190614dc2565b12155b6121e45760405162461bcd60e51b815260206004820152601760248201527f496e76616c69642076616c696461746f727344656c74610000000000000000006044820152606401610431565b6811ff6cf0fd15afffff19821215801561220757506811ff6cf0fd15b000008213155b8015612221575060008260685461221e9190614dc2565b12155b61226d5760405162461bcd60e51b815260206004820152601d60248201527f496e76616c696420636f6e73656e7375735265776172647344656c74610000006044820152606401610431565b68053444835ec58000008111156122c65760405162461bcd60e51b815260206004820152601960248201527f496e76616c69642077657468546f5661756c74416d6f756e74000000000000006044820152606401610431565b826034546122d49190614dc2565b6034556068546122e5908390614dc2565b60685543606b558015612433577f00000000000000000000000000000000000000000000000000000000000000006001600160a01b031663d0e30db0826040518263ffffffff1660e01b81526004016000604051808303818588803b15801561234d57600080fd5b505af1158015612361573d6000803e3d6000fd5b505060405163a9059cbb60e01b81526001600160a01b037f000000000000000000000000000000000000000000000000000000000000000081166004830152602482018690527f000000000000000000000000000000000000000000000000000000000000000016935063a9059cbb92506044019050602060405180830381600087803b1580156123f157600080fd5b505af1158015612405573d6000803e3d6000fd5b505050506040513d601f19601f82011682018060405250810190612429919061456a565b5061243381613839565b60408051848152602081018490529081018290527f80d022717ea022455c5886b8dd8a29c037570aae58aeb4d7b136d7a10ec2e4319060600160405180910390a161247e60006138a1565b6124bd5760405162461bcd60e51b815260206004820152601060248201526f233ab9b29039ba34b63610313637bbb760811b6044820152606401610431565b6124c5613d27565b505050565b6124d2612ac2565b6124ee5760405162461bcd60e51b815260040161043190614bf1565b60a054811061252f5760405162461bcd60e51b815260206004820152600d60248201526c092dcecc2d8d2c840d2dcc8caf609b1b6044820152606401610431565b600060a0828154811061254457612544614efc565b60009182526020808320909101546001600160a01b03908116808452609f90925260409092205460a0549193509091169061258190600190614e5c565b8310156126035760a0805461259890600190614e5c565b815481106125a8576125a8614efc565b60009182526020909120015460a080546001600160a01b0390921691859081106125d4576125d4614efc565b9060005260206000200160006101000a8154816001600160a01b0302191690836001600160a01b031602179055505b60a080548061261457612614614ee6565b60008281526020808220600019908401810180546001600160a01b031990811690915593019093556001600160a01b03858116808352609f855260409283902080549094169093559051908416815290917f16b7600acff27e39a8a96056b3d533045298de927507f5c1d97e4accde60488c91015b60405180910390a2505050565b61269e612ac2565b6126ba5760405162461bcd60e51b815260040161043190614bf1565b8060005b8181101561276d5760008484838181106126da576126da614efc565b90506020020160208101906126ef9190614255565b6001600160a01b0316141561275d5760405162461bcd60e51b815260206004820152602e60248201527f43616e206e6f742073657420616e20656d70747920616464726573732061732060448201526d30903932bbb0b932103a37b5b2b760911b6064820152608401610431565b61276681614e9f565b90506126be565b507f04c0b9649497d316554306e53678d5f5f5dbc3a06f97dec13ff4cfe98b986bbc60a484846040516127a2939291906149aa565b60405180910390a1610f3660a48484613fae565b6127be612ac2565b6127da5760405162461bcd60e51b815260040161043190614bf1565b603680546001600160a01b0319166001600160a01b0383169081179091556040517f3329861a0008b3348767567d2405492b997abd79a088d0f2cef6b1a09a8e7ff790600090a250565b60335460009061010090046001600160a01b031633146128565760405162461bcd60e51b815260040161043190614c7d565b60335460ff16156128795760405162461bcd60e51b815260040161043190614c53565b610c1960016138a1565b61288b612ac2565b6128a75760405162461bcd60e51b815260040161043190614bf1565b80821080156128be57506801bc16d674ec80000081105b80156128db5750673782dace9d9000006128d88383614e5c565b10155b6129275760405162461bcd60e51b815260206004820152601760248201527f496e636f7272656374206675736520696e74657276616c0000000000000000006044820152606401610431565b6069829055606a81905560408051838152602081018390527fcb8d24e46eb3c402bf344ee60a6576cba9ef2f59ea1af3b311520704924e901a91015b60405180910390a15050565b60405163095ea7b360e01b81526001600160a01b037f00000000000000000000000000000000000000000000000000000000000000008116600483015260001960248301527f0000000000000000000000000000000000000000000000000000000000000000169063095ea7b390604401602060405180830381600087803b1580156129fa57600080fd5b505af1158015612a0e573d6000803e3d6000fd5b505050506040513d601f19601f82011682018060405250810190612a32919061456a565b50565b612a3d612ac2565b612a595760405162461bcd60e51b815260040161043190614bf1565b60a354604080516001600160a01b03928316815291831660208301527fe48386b84419f4d36e0f96c10cc3510b6fb1a33795620c5098b22472bbe90796910160405180910390a160a380546001600160a01b0319166001600160a01b0392909216919091179055565b6000612ada600080516020614f6c8339815191525490565b6001600160a01b0316336001600160a01b031614905090565b612afb612ac2565b612b175760405162461bcd60e51b815260040161043190614bf1565b612b3f817f44c4d30b2eaad5130ad70c3ba6972730566f3e6359ab83e800d905c61b1c51db55565b806001600160a01b0316612b5f600080516020614f6c8339815191525490565b6001600160a01b03167fa39cc5eb22d0f34d8beaefee8a3f17cc229c1a1d1ef87a5ad47313487b1c4f0d60405160405180910390a350565b336001600160a01b037f00000000000000000000000000000000000000000000000000000000000000001614612bdf5760405162461bcd60e51b815260040161043190614bba565b600080516020614f4c83398151915280546002811415612c115760405162461bcd60e51b815260040161043190614cb4565b600282557f00000000000000000000000000000000000000000000000000000000000000006001600160a01b0316846001600160a01b031614612c665760405162461bcd60e51b815260040161043190614c28565b612c7185858561373b565b5060019055505050565b60335461010090046001600160a01b03163314612caa5760405162461bcd60e51b815260040161043190614c7d565b60335460ff1615612ccd5760405162461bcd60e51b815260040161043190614c53565b60008484604051612cdf929190614881565b604080519182900390912060008181526035602052919091205490915060ff166002816004811115612d1357612d13614ed0565b14612d575760405162461bcd60e51b815260206004820152601460248201527315985b1a59185d1bdc881b9bdd081cdd185ad95960621b6044820152606401610431565b604051633877322b60e01b81526001600160a01b037f00000000000000000000000000000000000000000000000000000000000000001690633877322b90612da9908990899089908990600401614aa4565b600060405180830381600087803b158015612dc357600080fd5b505af1158015612dd7573d6000803e3d6000fd5b50505060008381526035602052604090819020805460ff19166003179055518391507f8c2e15303eb94e531acc988c2a01d1193bdaaa15eda7f16dda85316ed463578d90612e2c908990899089908990614aa4565b60405180910390a2505050505050565b336001600160a01b037f00000000000000000000000000000000000000000000000000000000000000001614612e845760405162461bcd60e51b815260040161043190614bba565b600080516020614f4c83398151915280546002811415612eb65760405162461bcd60e51b815260040161043190614cb4565b600282556040516370a0823160e01b81523060048201526000907f00000000000000000000000000000000000000000000000000000000000000006001600160a01b0316906370a082319060240160206040518083038186803b158015612f1c57600080fd5b505afa158015612f30573d6000803e3d6000fd5b505050506040513d601f19601f82011682018060405250810190612f5491906146b8565b905060006101075482612f679190614e5c565b90508015612f9f57610107829055612f9f7f000000000000000000000000000000000000000000000000000000000000000082613301565b5050600182555050565b6036546001600160a01b031633146130035760405162461bcd60e51b815260206004820152601960248201527f43616c6c6572206973206e6f7420746865204d6f6e69746f72000000000000006044820152606401610431565b600060388190556040517fe765a88a37047c5d793dce22b9ceb5a0f5039d276da139b4c7d29613f341f1109190a1565b606060a480548060200260200160405190810160405280929190818152602001828054801561308b57602002820191906000526020600020905b81546001600160a01b0316815260019091019060200180831161306d575b5050505050905090565b6001600160a01b038281166000908152609f602052604090205416156130f25760405162461bcd60e51b81526020600482015260126024820152711c151bdad95b88185b1c9958591e481cd95d60721b6044820152606401610431565b6001600160a01b0382161580159061311257506001600160a01b03811615155b6131525760405162461bcd60e51b8152602060048201526011602482015270496e76616c69642061646472657373657360781b6044820152606401610431565b6001600160a01b038281166000818152609f6020908152604080832080549587166001600160a01b0319968716811790915560a0805460018101825594527f78fdc8d422c49ced035a9edf18d00d3c6a8d81df210f3e5e448e045e77b41e8890930180549095168417909455925190815290917fef6485b84315f9b1483beffa32aae9a0596890395e3d7521f1c5fbb51790e765910160405180910390a25050565b604080516001600160a01b038416602482015260448082018490528251808303909101815260649091019091526020810180516001600160e01b031663a9059cbb60e01b1790526124c5908490613da1565b82516132599060a4906020860190614011565b508151815181146132a35760405162461bcd60e51b8152602060048201526014602482015273496e76616c696420696e7075742061727261797360601b6044820152606401610431565b60005b818110156132fa576132ea8482815181106132c3576132c3614efc565b60200260200101518483815181106132dd576132dd614efc565b6020026020010151613095565b6132f381614e9f565b90506132a6565b5050505050565b6000811161334a5760405162461bcd60e51b81526020600482015260166024820152754d757374206465706f73697420736f6d657468696e6760501b6044820152606401610431565b6040805160008152602081018390526001600160a01b038416917f5548c837ab068cf56a2c2479df0882a4922fd203edb7517321831d95078c5f62910160405180910390a25050565b60335460ff16156133b65760405162461bcd60e51b815260040161043190614c53565b60007f00000000000000000000000000000000000000000000000000000000000000006001600160a01b031663e52253816040518163ffffffff1660e01b8152600401602060405180830381600087803b15801561341357600080fd5b505af1158015613427573d6000803e3d6000fd5b505050506040513d601f19601f8201168201806040525081019061344b91906146b8565b905060006068548261345d9190614e03565b9050804710156134af5760405162461bcd60e51b815260206004820152601860248201527f496e73756666696369656e74206574682062616c616e636500000000000000006044820152606401610431565b8015610c4c5760006068819055507f00000000000000000000000000000000000000000000000000000000000000006001600160a01b031663d0e30db0826040518263ffffffff1660e01b81526004016000604051808303818588803b15801561351857600080fd5b505af115801561352c573d6000803e3d6000fd5b505060a35461356c93506001600160a01b037f000000000000000000000000000000000000000000000000000000000000000081169350169050836131f4565b60a354604080516001600160a01b0392831681527f0000000000000000000000000000000000000000000000000000000000000000909216602083015281018290527ff6c07a063ed4e63808eb8da7112d46dbcd38de2b40a73dbcc9353c5a94c7235390606001612963565b6001600160a01b03811661362e5760405162461bcd60e51b815260206004820152601a60248201527f4e657720476f7665726e6f7220697320616464726573732830290000000000006044820152606401610431565b806001600160a01b031661364e600080516020614f6c8339815191525490565b6001600160a01b03167fc7c0c772add429241571afb3805861fb3cfa2af374534088b76cdb4325a87e9a60405160405180910390a3612a3281600080516020614f6c83398151915255565b60006136a88261010754613e73565b90508061010760008282546136bd9190614e5c565b90915550505050565b60335460ff16156136e95760405162461bcd60e51b815260040161043190614c53565b6033805460ff191660011790557f62e78cea01bee320cd4e420270b5ea74000d11b0c9f74754ebdbfc544b05a25861371e3390565b6040516001600160a01b03909116815260200160405180910390a1565b6000811161378b5760405162461bcd60e51b815260206004820152601760248201527f4d75737420776974686472617720736f6d657468696e670000000000000000006044820152606401610431565b6001600160a01b0383166137da5760405162461bcd60e51b8152602060048201526016602482015275135d5cdd081cdc1958da599e481c9958da5c1a595b9d60521b6044820152606401610431565b6137e381613699565b6137f76001600160a01b03831684836131f4565b6040805160008152602081018390526001600160a01b038416917f2717ead6b9200dd235aad468c9809ea400fe33ac69b5bfaa6d3e90fc922b63989101612689565b6040805160008152602081018390526001600160a01b037f000000000000000000000000000000000000000000000000000000000000000016917f2717ead6b9200dd235aad468c9809ea400fe33ac69b5bfaa6d3e90fc922b6398910160405180910390a250565b60006068544710156138b65761156982613e8b565b6000606854476138c69190614e5c565b9050600191506801bc16d674ec8000008110613aaa5760006138f16801bc16d674ec80000083614e1b565b905080603460008282546139059190614e5c565b9091555060009050613920826801bc16d674ec800000614e3d565b90507f00000000000000000000000000000000000000000000000000000000000000006001600160a01b031663d0e30db0826040518263ffffffff1660e01b81526004016000604051808303818588803b15801561397d57600080fd5b505af1158015613991573d6000803e3d6000fd5b505060405163a9059cbb60e01b81526001600160a01b037f000000000000000000000000000000000000000000000000000000000000000081166004830152602482018690527f000000000000000000000000000000000000000000000000000000000000000016935063a9059cbb92506044019050602060405180830381600087803b158015613a2157600080fd5b505af1158015613a35573d6000803e3d6000fd5b505050506040513d601f19601f82011682018060405250810190613a59919061456a565b50613a6381613839565b60345460408051848152602081019290925281018290527fbe7040030ff7b347853214bf49820c6d455fedf58f3815f85c7bc5216993682b9060600160405180910390a150505b600060685447613aba9190614e5c565b90506801bc16d674ec8000008110613b0c5760405162461bcd60e51b8152602060048201526015602482015274556e6578706563746564206163636f756e74696e6760581b6044820152606401610431565b80613b18575050919050565b606954811015613b72578060686000828254613b349190614e03565b90915550506040518181527f7a745a2c63a535068f52ceca27debd5297bbad5f7f37ec53d044a59d0362445d906020015b60405180910390a1613d20565b606a54811115613d0f577f00000000000000000000000000000000000000000000000000000000000000006001600160a01b031663d0e30db0826040518263ffffffff1660e01b81526004016000604051808303818588803b158015613bd757600080fd5b505af1158015613beb573d6000803e3d6000fd5b505060405163a9059cbb60e01b81526001600160a01b037f000000000000000000000000000000000000000000000000000000000000000081166004830152602482018690527f000000000000000000000000000000000000000000000000000000000000000016935063a9059cbb92506044019050602060405180830381600087803b158015613c7b57600080fd5b505af1158015613c8f573d6000803e3d6000fd5b505050506040513d601f19601f82011682018060405250810190613cb3919061456a565b50600160346000828254613cc79190614e5c565b90915550613cd6905081613839565b60345460408051918252602082018390527f6aa7e30787b26429ced603a7aba8b19c4b5d5bcf29a3257da953c8d53bcaa3a69101613b65565b613d1884613e8b565b949350505050565b5050919050565b60335460ff16613d705760405162461bcd60e51b815260206004820152601460248201527314185d5cd8589b194e881b9bdd081c185d5cd95960621b6044820152606401610431565b6033805460ff191690557f5db9ee0a495bf2e6ff9c91a7834c1ba4fdd244a5e8aa4e537bd38aeae4b073aa3361371e565b6000613df6826040518060400160405280602081526020017f5361666545524332303a206c6f772d6c6576656c2063616c6c206661696c6564815250856001600160a01b0316613ea39092919063ffffffff16565b8051909150156124c55780806020019051810190613e14919061456a565b6124c55760405162461bcd60e51b815260206004820152602a60248201527f5361666545524332303a204552433230206f7065726174696f6e20646964206e6044820152691bdd081cdd58d8d9595960b21b6064820152608401610431565b6000818310613e825781613e84565b825b9392505050565b60008115613e9b57613e9b6136c6565b506000919050565b6060613d18848460008585843b613efc5760405162461bcd60e51b815260206004820152601d60248201527f416464726573733a2063616c6c20746f206e6f6e2d636f6e74726163740000006044820152606401610431565b600080866001600160a01b03168587604051613f189190614891565b60006040518083038185875af1925050503d8060008114613f55576040519150601f19603f3d011682016040523d82523d6000602084013e613f5a565b606091505b5091509150613f6a828286613f75565b979650505050505050565b60608315613f84575081613e84565b825115613f945782518084602001fd5b8160405162461bcd60e51b81526004016104319190614ba7565b828054828255906000526020600020908101928215614001579160200282015b828111156140015781546001600160a01b0319166001600160a01b03843516178255602090920191600190910190613fce565b5061400d929150614066565b5090565b828054828255906000526020600020908101928215614001579160200282015b8281111561400157825182546001600160a01b0319166001600160a01b03909116178255602090920191600190910190614031565b5b8082111561400d5760008155600101614067565b60008083601f84011261408d57600080fd5b5081356001600160401b038111156140a457600080fd5b6020830191508360208260051b85010111156140bf57600080fd5b9250929050565b600082601f8301126140d757600080fd5b813560206140ec6140e783614d9f565b614d6f565b80838252828201915082860187848660051b890101111561410c57600080fd5b60005b8581101561413457813561412281614f28565b8452928401929084019060010161410f565b5090979650505050505050565b60008083601f84011261415357600080fd5b5081356001600160401b0381111561416a57600080fd5b6020830191508360208285010111156140bf57600080fd5b600060a0828403121561419457600080fd5b50919050565b600060a082840312156141ac57600080fd5b60405160a081018181106001600160401b03821117156141ce576141ce614f12565b6040529050806141dd83614225565b81526141eb6020840161423e565b60208201526141fc6040840161423e565b6040820152606083013561420f81614f3d565b6060820152608092830135920191909152919050565b803563ffffffff8116811461423957600080fd5b919050565b80356001600160401b038116811461423957600080fd5b60006020828403121561426757600080fd5b8135613e8481614f28565b60006020828403121561428457600080fd5b8151613e8481614f28565b600080604083850312156142a257600080fd5b82356142ad81614f28565b915060208301356142bd81614f28565b809150509250929050565b6000806000606084860312156142dd57600080fd5b83356142e881614f28565b925060208401356142f881614f28565b929592945050506040919091013590565b6000806040838503121561431c57600080fd5b823561432781614f28565b946020939093013593505050565b6000806020838503121561434857600080fd5b82356001600160401b0381111561435e57600080fd5b61436a8582860161407b565b90969095509350505050565b60008060006060848603121561438b57600080fd5b83356001600160401b03808211156143a257600080fd5b6143ae878388016140c6565b945060208601359150808211156143c457600080fd5b6143d0878388016140c6565b935060408601359150808211156143e657600080fd5b506143f3868287016140c6565b9150509250925092565b600080600080600080600080610120898b03121561441a57600080fd5b88356001600160401b038082111561443157600080fd5b61443d8c838d0161407b565b909a50985060208b013591508082111561445657600080fd5b6144628c838d0161407b565b909850965060408b013591508082111561447b57600080fd5b506144888b828c0161407b565b909550935050606089013591506144a28a60808b01614182565b90509295985092959890939650565b600080600060e084860312156144c657600080fd5b83356001600160401b038111156144dc57600080fd5b8401601f810186136144ed57600080fd5b803560206144fd6140e783614d9f565b8083825282820191508285018a848660051b880101111561451d57600080fd5b600095505b84861015614547576145338161423e565b835260019590950194918301918301614522565b50965050860135935061456191508690506040860161419a565b90509250925092565b60006020828403121561457c57600080fd5b8151613e8481614f3d565b60006020828403121561459957600080fd5b5035919050565b600080600080604085870312156145b657600080fd5b84356001600160401b03808211156145cd57600080fd5b6145d988838901614141565b909650945060208701359150808211156145f257600080fd5b506145ff8782880161407b565b95989497509550505050565b600080600080600060e0868803121561462357600080fd5b85356001600160401b038082111561463a57600080fd5b61464689838a01614141565b9097509550602088013591508082111561465f57600080fd5b5061466c8882890161407b565b909450925061468090508760408801614182565b90509295509295909350565b6000806000606084860312156146a157600080fd5b505081359360208301359350604090920135919050565b6000602082840312156146ca57600080fd5b5051919050565b600080604083850312156146e457600080fd5b50508035926020909101359150565b81835260006020808501808196508560051b810191508460005b878110156147765782840389528135601e1988360301811261472e57600080fd5b870180356001600160401b0381111561474657600080fd5b80360389131561475557600080fd5b61476286828985016147ca565b9a87019a955050509084019060010161470d565b5091979650505050505050565b8183526000602080850194508260005b858110156147bf576001600160401b036147ac8361423e565b1687529582019590820190600101614793565b509495945050505050565b81835281816020850137506000828201602090810191909152601f909101601f19169091010190565b6000815180845261480b816020860160208601614e73565b601f01601f19169290920160200192915050565b63ffffffff61482d82614225565b16825261483c6020820161423e565b6001600160401b038082166020850152806148596040850161423e565b1660408501525050606081013561486f81614f3d565b15156060830152608090810135910152565b8183823760009101908152919050565b600082516148a3818460208701614e73565b9190910192915050565b6001600160a01b03851681526101006020808301829052855191830182905260009161012084019187810191845b818110156149005783516001600160401b0316855293820193928201926001016148db565b505082935086604086015263ffffffff865116606086015280860151925050506001600160401b0380821660808501528060408601511660a085015250506060830151151560c0830152608083015160e083015295945050505050565b6020808252825182820181905260009190848201906040850190845b8181101561499e5783516001600160a01b031683529284019291840191600101614979565b50909695505050505050565b6000604082016040835280865480835260608501915087600052602092508260002060005b828110156149f45781546001600160a01b0316845292840192600191820191016149cf565b505050838103828501528481528590820160005b86811015614a36578235614a1b81614f28565b6001600160a01b031682529183019190830190600101614a08565b50979650505050505050565b6000610120808352614a578184018b8d6146f3565b90508281036020840152614a6c81898b614783565b90508281036040840152614a818187896146f3565b915050836060830152614a97608083018461481f565b9998505050505050505050565b604081526000614ab86040830186886147ca565b8281036020840152613f6a818587614783565b60e081526000614adf60e0830187896147ca565b8281036020840152614af2818688614783565b915050614b02604083018461481f565b9695505050505050565b608081526000614b2060808301888a6147ca565b8281036020840152614b3281886147f3565b90508281036040840152614b478186886147ca565b915050826060830152979650505050505050565b604081526000614b6f6040830185876147ca565b9050826020830152949350505050565b6020810160058310614ba157634e487b7160e01b600052602160045260246000fd5b91905290565b602081526000613e8460208301846147f3565b60208082526017908201527f43616c6c6572206973206e6f7420746865205661756c74000000000000000000604082015260600190565b6020808252601a908201527f43616c6c6572206973206e6f742074686520476f7665726e6f72000000000000604082015260600190565b602080825260119082015270155b9cdd5c1c1bdc9d195908185cdcd95d607a1b604082015260600190565b60208082526010908201526f14185d5cd8589b194e881c185d5cd95960821b604082015260600190565b6020808252601d908201527f43616c6c6572206973206e6f7420746865205265676973747261746f72000000604082015260600190565b6020808252600e908201526d1499595b9d1c985b9d0818d85b1b60921b604082015260600190565b6020808252601c908201527f43616c6c6572206973206e6f7420746865205374726174656769737400000000604082015260600190565b6000808335601e19843603018112614d2a57600080fd5b8301803591506001600160401b03821115614d4457600080fd5b6020019150368190038213156140bf57600080fd5b60008235605e198336030181126148a357600080fd5b604051601f8201601f191681016001600160401b0381118282101715614d9757614d97614f12565b604052919050565b60006001600160401b03821115614db857614db8614f12565b5060051b60200190565b600080821280156001600160ff1b0384900385131615614de457614de4614eba565b600160ff1b8390038412811615614dfd57614dfd614eba565b50500190565b60008219821115614e1657614e16614eba565b500190565b600082614e3857634e487b7160e01b600052601260045260246000fd5b500490565b6000816000190483118215151615614e5757614e57614eba565b500290565b600082821015614e6e57614e6e614eba565b500390565b60005b83811015614e8e578181015183820152602001614e76565b83811115610f365750506000910152565b6000600019821415614eb357614eb3614eba565b5060010190565b634e487b7160e01b600052601160045260246000fd5b634e487b7160e01b600052602160045260246000fd5b634e487b7160e01b600052603160045260246000fd5b634e487b7160e01b600052603260045260246000fd5b634e487b7160e01b600052604160045260246000fd5b6001600160a01b0381168114612a3257600080fd5b8015158114612a3257600080fdfe53bf423e48ed90e97d02ab0ebab13b2a235a6bfbe9c321847d5c175333ac45357bea13895fa79d2831e0a9e28edede30099005a50d652d8957cf8a607ee6ca4aa264697066735822122081dc5948932312d30524de7cc17ade49499ba445ca428ae66bc08f7400de889b64736f6c634300080700337bea13895fa79d2831e0a9e28edede30099005a50d652d8957cf8a607ee6ca4a",
  "libraries": {},
  "devdoc": {
    "author": "Origin Protocol Inc",
    "details": "This contract handles WETH and ETH and in some operations interchanges between the two. Any WETH that is on the contract across multiple blocks (and not just transitory within a transaction) is considered an asset. Meaning deposits increase the balance of the asset and withdrawal decrease it. As opposed to all our other strategies the WETH doesn't immediately get deposited into an underlying strategy and can be present across multiple blocks waiting to be unwrapped to ETH and staked to validators. This separation of WETH and ETH is required since the rewards (reward token) is also in ETH. To simplify the accounting of WETH there is another difference in behavior compared to the other strategies. To withdraw WETH asset - exit message is posted to validators and the ETH hits this contract with multiple days delay. In order to simplify the WETH accounting upon detection of such an event the ValidatorAccountant immediately wraps ETH to WETH and sends it to the Vault. On the other hand any ETH on the contract (across multiple blocks) is there either:  - as a result of already accounted for consensus rewards  - as a result of not yet accounted for consensus rewards  - as a results of not yet accounted for full validator withdrawals (or validator slashes) Even though the strategy assets and rewards are a very similar asset the consensus layer rewards and the execution layer rewards are considered rewards and those are dripped to the Vault over a configurable time interval and not immediately.",
    "kind": "dev",
    "methods": {
      "checkBalance(address)": {
        "params": {
          "_asset": "Address of weth asset"
        },
        "returns": {
          "balance": "   Total value of (W)ETH"
        }
      },
      "constructor": {
        "params": {
          "_baseConfig": "Base strategy config with platformAddress (ERC-4626 Vault contract), eg sfrxETH or sDAI, and vaultAddress (OToken Vault contract), eg VaultProxy or OETHVaultProxy",
          "_beaconChainDepositContract": "Address of the beacon chain deposit contract",
          "_feeAccumulator": "Address of the fee accumulator receiving execution layer validator rewards",
          "_maxValidators": "Maximum number of validators that can be registered in the strategy",
          "_ssvNetwork": "Address of the SSV Network contract",
          "_ssvToken": "Address of the Erc20 SSV Token contract",
          "_wethAddress": "Address of the Erc20 WETH Token contract"
        }
      },
      "deposit(address,uint256)": {
        "params": {
          "_amount": "Amount of assets that were transferred to the strategy by the vault.",
          "_asset": "Address of asset to deposit. Has to be WETH."
        }
      },
      "depositSSV(uint64[],uint256,(uint32,uint64,uint64,bool,uint256))": {
        "details": "A SSV cluster is defined by the SSVOwnerAddress and the set of operatorIds. uses \"onlyStrategist\" modifier so continuous front-running can't DOS our maintenance service that tries to top up SSV tokens.",
        "params": {
          "cluster": "The SSV cluster details including the validator count and SSV balance",
          "operatorIds": "The operator IDs of the SSV Cluster",
          "ssvAmount": "The amount of SSV tokens to be deposited to the SSV cluster"
        }
      },
      "doAccounting()": {
        "details": "This function could in theory be permission-less but lets allow only the Registrator (Defender Action) to call it for now.",
        "returns": {
          "accountingValid": "true if accounting was successful, false if fuse is blown"
        }
      },
      "exitSsvValidator(bytes,uint64[])": {
        "params": {
          "operatorIds": "The operator IDs of the SSV Cluster",
          "publicKey": "The public key of the validator"
        }
      },
      "getRewardTokenAddresses()": {
        "returns": {
          "_0": "address[] the reward token addresses."
        }
      },
      "initialize(address[],address[],address[])": {
        "params": {
          "_assets": "Addresses of initial supported assets",
          "_pTokens": "Platform Token corresponding addresses",
          "_rewardTokenAddresses": "Address of reward token for platform"
        }
      },
      "manuallyFixAccounting(int256,int256,uint256)": {
        "details": "There is a case when a validator(s) gets slashed so much that the eth swept from the beacon chain enters the fuse area and there are no consensus rewards on the contract to \"dip into\"/use. To increase the amount of unaccounted ETH over the fuse end interval we need to reduce the amount of active deposited validators and immediately send WETH to the vault, so it doesn't interfere with further accounting.",
        "params": {
          "_consensusRewardsDelta": "adjust the accounted for consensus rewards up or down",
          "_ethToVaultAmount": "the amount of ETH that gets wrapped into WETH and sent to the Vault",
          "_validatorsDelta": "adjust the active validators by up to plus three or minus three"
        }
      },
      "paused()": {
        "details": "Returns true if the contract is paused, and false otherwise."
      },
      "registerSsvValidators(bytes[],uint64[],bytes[],uint256,(uint32,uint64,uint64,bool,uint256))": {
        "params": {
          "cluster": "The SSV cluster details including the validator count and SSV balance",
          "operatorIds": "The operator IDs of the SSV Cluster",
          "publicKeys": "The public keys of the validators",
          "sharesData": "The shares data for each validator",
          "ssvAmount": "The amount of SSV tokens to be deposited to the SSV cluster"
        }
      },
      "removePToken(uint256)": {
        "params": {
          "_assetIndex": "Index of the asset to be removed"
        }
      },
      "removeSsvValidator(bytes,uint64[],(uint32,uint64,uint64,bool,uint256))": {
        "params": {
          "cluster": "The SSV cluster details including the validator count and SSV balance",
          "operatorIds": "The operator IDs of the SSV Cluster",
          "publicKey": "The public key of the validator"
        }
      },
      "setHarvesterAddress(address)": {
        "params": {
          "_harvesterAddress": "Address of the harvester contract."
        }
      },
      "setPTokenAddress(address,address)": {
        "params": {
          "_asset": "Address for the asset",
          "_pToken": "Address for the corresponding platform token"
        }
      },
      "setRewardTokenAddresses(address[])": {
        "params": {
          "_rewardTokenAddresses": "Array of reward token addresses"
        }
      },
      "stakeEth((bytes,bytes,bytes32)[])": {
        "params": {
          "validators": "A list of validator data needed to stake. The `ValidatorStakeData` struct contains the pubkey, signature and depositDataRoot. Only the registrator can call this function."
        }
      },
      "supportsAsset(address)": {
        "params": {
          "_asset": "The address of the asset token."
        }
      },
      "transferGovernance(address)": {
        "params": {
          "_newGovernor": "Address of the new Governor"
        }
      },
      "transferToken(address,uint256)": {
        "params": {
          "_amount": "Amount of the asset to transfer",
          "_asset": "Address for the asset"
        }
      },
      "withdraw(address,address,uint256)": {
        "params": {
          "_amount": "Amount of WETH to withdraw",
          "_asset": "WETH to withdraw",
          "_recipient": "Address to receive withdrawn assets"
        }
      }
    },
    "stateVariables": {
      "FEE_ACCUMULATOR_ADDRESS": {
        "details": "this address will receive Execution layer rewards - These are rewards earned for executing transactions on the Ethereum network as part of block proposals. They include priority fees (fees paid by users for their transactions to be included) and MEV rewards (rewards for arranging transactions in a way that benefits the validator)."
      },
      "depositedWethAccountedFor": {
        "details": "This contract receives WETH as the deposit asset, but unlike other strategies doesn't immediately deposit it to an underlying platform. Rather a special privilege account stakes it to the validators. For that reason calling WETH.balanceOf(this) in a deposit function can contain WETH that has just been deposited and also WETH that has previously been deposited. To keep a correct count we need to keep track of WETH that has already been accounted for. This value represents the amount of WETH balance of this contract that has already been accounted for by the deposit events. It is important to note that this variable is not concerned with WETH that is a result of full/partial withdrawal of the validators. It is strictly concerned with WETH that has been deposited and is waiting to be staked."
      }
    },
    "title": "Native Staking SSV Strategy",
    "version": 1
  },
  "userdoc": {
    "kind": "user",
    "methods": {
      "BEACON_CHAIN_DEPOSIT_CONTRACT()": {
        "notice": "The address of the beacon chain deposit contract"
      },
      "FEE_ACCUMULATOR_ADDRESS()": {
        "notice": "Fee collector address"
      },
      "FULL_STAKE()": {
        "notice": "The maximum amount of ETH that can be staked by a validator"
      },
      "MAX_VALIDATORS()": {
        "notice": "Maximum number of validators that can be registered in this strategy"
      },
      "MIN_FIX_ACCOUNTING_CADENCE()": {
        "notice": "The minimum amount of blocks that need to pass between two calls to manuallyFixAccounting"
      },
      "SSV_NETWORK()": {
        "notice": "The address of the SSV Network contract used to interface with"
      },
      "SSV_TOKEN()": {
        "notice": "SSV ERC20 token that serves as a payment for operating SSV validators"
      },
      "VAULT_ADDRESS()": {
        "notice": "Address of the OETH Vault proxy contract"
      },
      "WETH()": {
        "notice": "The address of the Wrapped ETH (WETH) token contract"
      },
      "activeDepositedValidators()": {
        "notice": "The number of validators that have 32 (!) ETH actively deposited. When a new deposit to a validator happens this number increases, when a validator exit is detected this number decreases."
      },
      "assetToPToken(address)": {
        "notice": "asset => pToken (Platform Specific Token Address)"
      },
      "checkBalance(address)": {
        "notice": "Returns the total value of (W)ETH that is staked to the validators and WETH deposits that are still to be staked. This does not include ETH from consensus rewards sitting in this strategy or ETH from MEV rewards in the FeeAccumulator. These rewards are harvested and sent to the Dripper so will eventually be sent to the Vault as WETH."
      },
      "claimGovernance()": {
        "notice": "Claim Governance of the contract to a new account (`newGovernor`). Can only be called by the new Governor."
      },
      "collectRewardTokens()": {
        "notice": "Collect accumulated reward token and send to Vault."
      },
      "consensusRewards()": {
        "notice": "Keeps track of the total consensus rewards swept from the beacon chain"
      },
      "deposit(address,uint256)": {
        "notice": "Unlike other strategies, this does not deposit assets into the underlying platform. It just checks the asset is WETH and emits the Deposit event. To deposit WETH into validators `registerSsvValidator` and `stakeEth` must be used. Will NOT revert if the strategy is paused from an accounting failure."
      },
      "depositAll()": {
        "notice": "Unlike other strategies, this does not deposit assets into the underlying platform. It just emits the Deposit event. To deposit WETH into validators `registerSsvValidator` and `stakeEth` must be used. Will NOT revert if the strategy is paused from an accounting failure."
      },
      "depositSSV(uint64[],uint256,(uint32,uint64,uint64,bool,uint256))": {
        "notice": "Deposits more SSV Tokens to the SSV Network contract which is used to pay the SSV Operators."
      },
      "doAccounting()": {
        "notice": "This notion page offers a good explanation of how the accounting functions https://www.notion.so/originprotocol/Limited-simplified-native-staking-accounting-67a217c8420d40678eb943b9da0ee77d In short, after dividing by 32, if the ETH remaining on the contract falls between 0 and fuseIntervalStart, the accounting function will treat that ETH as Beacon chain consensus rewards. On the contrary, if after dividing by 32, the ETH remaining on the contract falls between fuseIntervalEnd and 32, the accounting function will treat that as a validator slashing.Perform the accounting attributing beacon chain ETH to either full or partial withdrawals. Returns true when accounting is valid and fuse isn't \"blown\". Returns false when fuse is blown."
      },
      "exitSsvValidator(bytes,uint64[])": {
        "notice": "Exit a validator from the Beacon chain. The staked ETH will eventually swept to this native staking strategy. Only the registrator can call this function."
      },
      "fuseIntervalEnd()": {
        "notice": "end of fuse interval"
      },
      "fuseIntervalStart()": {
        "notice": "start of fuse interval"
      },
      "getRewardTokenAddresses()": {
        "notice": "Get the reward token addresses."
      },
      "governor()": {
        "notice": "Returns the address of the current Governor."
      },
      "harvesterAddress()": {
        "notice": "Address of the Harvester contract allowed to collect reward tokens"
      },
      "initialize(address[],address[],address[])": {
        "notice": "initialize function, to set up initial internal state"
      },
      "isGovernor()": {
        "notice": "Returns true if the caller is the current Governor."
      },
      "lastFixAccountingBlockNumber()": {
        "notice": "last block number manuallyFixAccounting has been called"
      },
      "manuallyFixAccounting(int256,int256,uint256)": {
        "notice": "Allow the Strategist to fix the accounting of this strategy and unpause."
      },
      "platformAddress()": {
        "notice": "Address of the underlying platform"
      },
      "registerSsvValidators(bytes[],uint64[],bytes[],uint256,(uint32,uint64,uint64,bool,uint256))": {
        "notice": "Registers a new validator in the SSV Cluster. Only the registrator can call this function."
      },
      "removePToken(uint256)": {
        "notice": "Remove a supported asset by passing its index.      This method can only be called by the system Governor"
      },
      "removeSsvValidator(bytes,uint64[],(uint32,uint64,uint64,bool,uint256))": {
        "notice": "Remove a validator from the SSV Cluster. Make sure `exitSsvValidator` is called before and the validate has exited the Beacon chain. If removed before the validator has exited the beacon chain will result in the validator being slashed. Only the registrator can call this function."
      },
      "resetStakeETHTally()": {
        "notice": "Reset the stakeETHTally"
      },
      "rewardTokenAddresses(uint256)": {
        "notice": "Address of the reward tokens. eg CRV, BAL, CVX, AURA"
      },
      "safeApproveAllTokens()": {
        "notice": "Approves the SSV Network contract to transfer SSV tokens for deposits"
      },
      "setFuseInterval(uint256,uint256)": {
        "notice": "set fuse interval values"
      },
      "setHarvesterAddress(address)": {
        "notice": "Set the Harvester contract that can collect rewards."
      },
      "setPTokenAddress(address,address)": {
        "notice": "Provide support for asset by passing its pToken address.      This method can only be called by the system Governor"
      },
      "setRegistrator(address)": {
        "notice": "Set the address of the registrator which can register, exit and remove validators"
      },
      "setRewardTokenAddresses(address[])": {
        "notice": "Set the reward token addresses. Any old addresses will be overwritten."
      },
      "setStakeETHThreshold(uint256)": {
        "notice": "Set the amount of ETH that can be staked before staking monitor"
      },
      "setStakingMonitor(address)": {
        "notice": "Set the address of the staking monitor that is allowed to reset stakeETHTally"
      },
      "stakeETHTally()": {
        "notice": "Amount of ETH that can has been staked since the last governor approval."
      },
      "stakeETHThreshold()": {
        "notice": "Amount of ETH that can be staked before staking on the contract is suspended and the governor needs to approve further staking"
      },
      "stakeEth((bytes,bytes,bytes32)[])": {
        "notice": "Stakes WETH to the node validators"
      },
      "stakingMonitor()": {
        "notice": "The account that is allowed to modify stakeETHThreshold and reset stakeETHTally"
      },
      "supportsAsset(address)": {
        "notice": "Returns bool indicating whether asset is supported by strategy."
      },
      "transferGovernance(address)": {
        "notice": "Transfers Governance of the contract to a new account (`newGovernor`). Can only be called by the current Governor. Must be claimed for this to complete"
      },
      "transferToken(address,uint256)": {
        "notice": "Transfer token to governor. Intended for recovering tokens stuck in      strategy contracts, i.e. mistaken sends."
      },
      "validatorRegistrator()": {
        "notice": "Address of the registrator - allowed to register, exit and remove validators"
      },
      "validatorsStates(bytes32)": {
        "notice": "State of the validators keccak256(pubKey) => state"
      },
      "vaultAddress()": {
        "notice": "Address of the OToken vault"
      },
      "withdraw(address,address,uint256)": {
        "notice": "Withdraw WETH from this contract. Used only if some WETH for is lingering on the contract. That can happen when:   - after mints if the strategy is the default   - time between depositToStrategy and stakeEth   - the deposit was not a multiple of 32 WETH   - someone sent WETH directly to this contract Will NOT revert if the strategy is paused from an accounting failure."
      },
      "withdrawAll()": {
        "notice": "transfer all WETH deposits back to the vault. This does not withdraw from the validators. That has to be done separately with the `exitSsvValidator` and `removeSsvValidator` operations. This does not withdraw any execution rewards from the FeeAccumulator or consensus rewards in this strategy. Any ETH in this strategy that was swept from a full validator withdrawal will not be withdrawn. ETH from full validator withdrawals is sent to the Vault using `doAccounting`. Will NOT revert if the strategy is paused from an accounting failure."
      }
    },
    "notice": "Strategy to deploy funds into DVT validators powered by the SSV Network",
    "version": 1
  },
  "storageLayout": {
    "storage": [
      {
        "astId": 5683,
        "contract": "contracts/strategies/NativeStaking/NativeStakingSSVStrategy.sol:NativeStakingSSVStrategy",
        "label": "initialized",
        "offset": 0,
        "slot": "0",
        "type": "t_bool"
      },
      {
        "astId": 5686,
        "contract": "contracts/strategies/NativeStaking/NativeStakingSSVStrategy.sol:NativeStakingSSVStrategy",
        "label": "initializing",
        "offset": 1,
        "slot": "0",
        "type": "t_bool"
      },
      {
        "astId": 5726,
        "contract": "contracts/strategies/NativeStaking/NativeStakingSSVStrategy.sol:NativeStakingSSVStrategy",
        "label": "______gap",
        "offset": 0,
        "slot": "1",
        "type": "t_array(t_uint256)50_storage"
      },
      {
        "astId": 17,
        "contract": "contracts/strategies/NativeStaking/NativeStakingSSVStrategy.sol:NativeStakingSSVStrategy",
        "label": "_paused",
        "offset": 0,
        "slot": "51",
        "type": "t_bool"
      },
      {
        "astId": 3760,
        "contract": "contracts/strategies/NativeStaking/NativeStakingSSVStrategy.sol:NativeStakingSSVStrategy",
        "label": "validatorRegistrator",
        "offset": 1,
        "slot": "51",
        "type": "t_address"
      },
      {
        "astId": 3763,
        "contract": "contracts/strategies/NativeStaking/NativeStakingSSVStrategy.sol:NativeStakingSSVStrategy",
        "label": "activeDepositedValidators",
        "offset": 0,
        "slot": "52",
        "type": "t_uint256"
      },
      {
        "astId": 3769,
        "contract": "contracts/strategies/NativeStaking/NativeStakingSSVStrategy.sol:NativeStakingSSVStrategy",
        "label": "validatorsStates",
        "offset": 0,
        "slot": "53",
        "type": "t_mapping(t_bytes32,t_enum(VALIDATOR_STATE)3788)"
      },
      {
        "astId": 3772,
        "contract": "contracts/strategies/NativeStaking/NativeStakingSSVStrategy.sol:NativeStakingSSVStrategy",
        "label": "stakingMonitor",
        "offset": 0,
        "slot": "54",
        "type": "t_address"
      },
      {
        "astId": 3775,
        "contract": "contracts/strategies/NativeStaking/NativeStakingSSVStrategy.sol:NativeStakingSSVStrategy",
        "label": "stakeETHThreshold",
        "offset": 0,
        "slot": "55",
        "type": "t_uint256"
      },
      {
        "astId": 3778,
        "contract": "contracts/strategies/NativeStaking/NativeStakingSSVStrategy.sol:NativeStakingSSVStrategy",
        "label": "stakeETHTally",
        "offset": 0,
        "slot": "56",
        "type": "t_uint256"
      },
      {
        "astId": 3782,
        "contract": "contracts/strategies/NativeStaking/NativeStakingSSVStrategy.sol:NativeStakingSSVStrategy",
        "label": "__gap",
        "offset": 0,
        "slot": "57",
        "type": "t_array(t_uint256)47_storage"
      },
      {
        "astId": 3250,
        "contract": "contracts/strategies/NativeStaking/NativeStakingSSVStrategy.sol:NativeStakingSSVStrategy",
        "label": "consensusRewards",
        "offset": 0,
        "slot": "104",
        "type": "t_uint256"
      },
      {
        "astId": 3253,
        "contract": "contracts/strategies/NativeStaking/NativeStakingSSVStrategy.sol:NativeStakingSSVStrategy",
        "label": "fuseIntervalStart",
        "offset": 0,
        "slot": "105",
        "type": "t_uint256"
      },
      {
        "astId": 3256,
        "contract": "contracts/strategies/NativeStaking/NativeStakingSSVStrategy.sol:NativeStakingSSVStrategy",
        "label": "fuseIntervalEnd",
        "offset": 0,
        "slot": "106",
        "type": "t_uint256"
      },
      {
        "astId": 3259,
        "contract": "contracts/strategies/NativeStaking/NativeStakingSSVStrategy.sol:NativeStakingSSVStrategy",
        "label": "lastFixAccountingBlockNumber",
        "offset": 0,
        "slot": "107",
        "type": "t_uint256"
      },
      {
        "astId": 3263,
        "contract": "contracts/strategies/NativeStaking/NativeStakingSSVStrategy.sol:NativeStakingSSVStrategy",
        "label": "__gap",
        "offset": 0,
        "slot": "108",
        "type": "t_array(t_uint256)49_storage"
      },
      {
        "astId": 5806,
        "contract": "contracts/strategies/NativeStaking/NativeStakingSSVStrategy.sol:NativeStakingSSVStrategy",
        "label": "_deprecated_platformAddress",
        "offset": 0,
        "slot": "157",
        "type": "t_address"
      },
      {
        "astId": 5809,
        "contract": "contracts/strategies/NativeStaking/NativeStakingSSVStrategy.sol:NativeStakingSSVStrategy",
        "label": "_deprecated_vaultAddress",
        "offset": 0,
        "slot": "158",
        "type": "t_address"
      },
      {
        "astId": 5814,
        "contract": "contracts/strategies/NativeStaking/NativeStakingSSVStrategy.sol:NativeStakingSSVStrategy",
        "label": "assetToPToken",
        "offset": 0,
        "slot": "159",
        "type": "t_mapping(t_address,t_address)"
      },
      {
        "astId": 5818,
        "contract": "contracts/strategies/NativeStaking/NativeStakingSSVStrategy.sol:NativeStakingSSVStrategy",
        "label": "assetsMapped",
        "offset": 0,
        "slot": "160",
        "type": "t_array(t_address)dyn_storage"
      },
      {
        "astId": 5820,
        "contract": "contracts/strategies/NativeStaking/NativeStakingSSVStrategy.sol:NativeStakingSSVStrategy",
        "label": "_deprecated_rewardTokenAddress",
        "offset": 0,
        "slot": "161",
        "type": "t_address"
      },
      {
        "astId": 5822,
        "contract": "contracts/strategies/NativeStaking/NativeStakingSSVStrategy.sol:NativeStakingSSVStrategy",
        "label": "_deprecated_rewardLiquidationThreshold",
        "offset": 0,
        "slot": "162",
        "type": "t_uint256"
      },
      {
        "astId": 5825,
        "contract": "contracts/strategies/NativeStaking/NativeStakingSSVStrategy.sol:NativeStakingSSVStrategy",
        "label": "harvesterAddress",
        "offset": 0,
        "slot": "163",
        "type": "t_address"
      },
      {
        "astId": 5829,
        "contract": "contracts/strategies/NativeStaking/NativeStakingSSVStrategy.sol:NativeStakingSSVStrategy",
        "label": "rewardTokenAddresses",
        "offset": 0,
        "slot": "164",
        "type": "t_array(t_address)dyn_storage"
      },
      {
        "astId": 5833,
        "contract": "contracts/strategies/NativeStaking/NativeStakingSSVStrategy.sol:NativeStakingSSVStrategy",
        "label": "_reserved",
        "offset": 0,
        "slot": "165",
        "type": "t_array(t_int256)98_storage"
      },
      {
        "astId": 2752,
        "contract": "contracts/strategies/NativeStaking/NativeStakingSSVStrategy.sol:NativeStakingSSVStrategy",
        "label": "depositedWethAccountedFor",
        "offset": 0,
        "slot": "263",
        "type": "t_uint256"
      },
      {
        "astId": 2756,
        "contract": "contracts/strategies/NativeStaking/NativeStakingSSVStrategy.sol:NativeStakingSSVStrategy",
        "label": "__gap",
        "offset": 0,
        "slot": "264",
        "type": "t_array(t_uint256)49_storage"
      }
    ],
    "types": {
      "t_address": {
        "encoding": "inplace",
        "label": "address",
        "numberOfBytes": "20"
      },
      "t_array(t_address)dyn_storage": {
        "base": "t_address",
        "encoding": "dynamic_array",
        "label": "address[]",
        "numberOfBytes": "32"
      },
      "t_array(t_int256)98_storage": {
        "base": "t_int256",
        "encoding": "inplace",
        "label": "int256[98]",
        "numberOfBytes": "3136"
      },
      "t_array(t_uint256)47_storage": {
        "base": "t_uint256",
        "encoding": "inplace",
        "label": "uint256[47]",
        "numberOfBytes": "1504"
      },
      "t_array(t_uint256)49_storage": {
        "base": "t_uint256",
        "encoding": "inplace",
        "label": "uint256[49]",
        "numberOfBytes": "1568"
      },
      "t_array(t_uint256)50_storage": {
        "base": "t_uint256",
        "encoding": "inplace",
        "label": "uint256[50]",
        "numberOfBytes": "1600"
      },
      "t_bool": {
        "encoding": "inplace",
        "label": "bool",
        "numberOfBytes": "1"
      },
      "t_bytes32": {
        "encoding": "inplace",
        "label": "bytes32",
        "numberOfBytes": "32"
      },
      "t_enum(VALIDATOR_STATE)3788": {
        "encoding": "inplace",
        "label": "enum ValidatorRegistrator.VALIDATOR_STATE",
        "numberOfBytes": "1"
      },
      "t_int256": {
        "encoding": "inplace",
        "label": "int256",
        "numberOfBytes": "32"
      },
      "t_mapping(t_address,t_address)": {
        "encoding": "mapping",
        "key": "t_address",
        "label": "mapping(address => address)",
        "numberOfBytes": "32",
        "value": "t_address"
      },
      "t_mapping(t_bytes32,t_enum(VALIDATOR_STATE)3788)": {
        "encoding": "mapping",
        "key": "t_bytes32",
        "label": "mapping(bytes32 => enum ValidatorRegistrator.VALIDATOR_STATE)",
        "numberOfBytes": "32",
        "value": "t_enum(VALIDATOR_STATE)3788"
      },
      "t_uint256": {
        "encoding": "inplace",
        "label": "uint256",
        "numberOfBytes": "32"
      }
    }
  }
}