{
  "address": "0x4aEAcdb5D84eDf02Dd85f3DFC1645b89D7579d62",
  "abi": [
    {
      "inputs": [
        {
          "components": [
            {
              "internalType": "address",
              "name": "platformAddress",
              "type": "address"
            },
            {
              "internalType": "address",
              "name": "vaultAddress",
              "type": "address"
            }
          ],
          "internalType": "struct InitializableAbstractStrategy.BaseStrategyConfig",
          "name": "_baseConfig",
          "type": "tuple"
        },
        {
          "internalType": "address",
          "name": "_wethAddress",
          "type": "address"
        },
        {
          "internalType": "address",
          "name": "_ssvToken",
          "type": "address"
        },
        {
          "internalType": "address",
          "name": "_ssvNetwork",
          "type": "address"
        },
        {
          "internalType": "address",
          "name": "_feeAccumulator",
          "type": "address"
        },
        {
          "internalType": "address",
          "name": "_beaconChainDepositContract",
          "type": "address"
        }
      ],
      "stateMutability": "nonpayable",
      "type": "constructor"
    },
    {
      "anonymous": false,
      "inputs": [
        {
          "indexed": false,
          "internalType": "uint256",
          "name": "amount",
          "type": "uint256"
        }
      ],
      "name": "AccountingConsensusRewards",
      "type": "event"
    },
    {
      "anonymous": false,
      "inputs": [
        {
          "indexed": false,
          "internalType": "uint256",
          "name": "noOfValidators",
          "type": "uint256"
        },
        {
          "indexed": false,
          "internalType": "uint256",
          "name": "remainingValidators",
          "type": "uint256"
        },
        {
          "indexed": false,
          "internalType": "uint256",
          "name": "wethSentToVault",
          "type": "uint256"
        }
      ],
      "name": "AccountingFullyWithdrawnValidator",
      "type": "event"
    },
    {
      "anonymous": false,
      "inputs": [
        {
          "indexed": false,
          "internalType": "address",
          "name": "newAddress",
          "type": "address"
        }
      ],
      "name": "AccountingGovernorChanged",
      "type": "event"
    },
    {
      "anonymous": false,
      "inputs": [
        {
          "indexed": false,
          "internalType": "uint256",
          "name": "oldActiveDepositedValidators",
          "type": "uint256"
        },
        {
          "indexed": false,
          "internalType": "uint256",
          "name": "activeDepositedValidators",
          "type": "uint256"
        },
        {
          "indexed": false,
          "internalType": "uint256",
          "name": "oldBeaconChainRewards",
          "type": "uint256"
        },
        {
          "indexed": false,
          "internalType": "uint256",
          "name": "beaconChainRewards",
          "type": "uint256"
        },
        {
          "indexed": false,
          "internalType": "uint256",
          "name": "ethToWeth",
          "type": "uint256"
        },
        {
          "indexed": false,
          "internalType": "uint256",
          "name": "wethToBeSentToVault",
          "type": "uint256"
        }
      ],
      "name": "AccountingManuallyFixed",
      "type": "event"
    },
    {
      "anonymous": false,
      "inputs": [
        {
          "indexed": false,
          "internalType": "uint256",
          "name": "remainingValidators",
          "type": "uint256"
        },
        {
          "indexed": false,
          "internalType": "uint256",
          "name": "wethSentToVault",
          "type": "uint256"
        }
      ],
      "name": "AccountingValidatorSlashed",
      "type": "event"
    },
    {
      "anonymous": false,
      "inputs": [
        {
          "indexed": true,
          "internalType": "address",
          "name": "_asset",
          "type": "address"
        },
        {
          "indexed": false,
          "internalType": "address",
          "name": "_pToken",
          "type": "address"
        },
        {
          "indexed": false,
          "internalType": "uint256",
          "name": "_amount",
          "type": "uint256"
        }
      ],
      "name": "Deposit",
      "type": "event"
    },
    {
      "anonymous": false,
      "inputs": [
        {
          "indexed": false,
          "internalType": "bytes",
          "name": "pubkey",
          "type": "bytes"
        },
        {
          "indexed": false,
          "internalType": "uint256",
          "name": "amount",
          "type": "uint256"
        },
        {
          "indexed": false,
          "internalType": "bytes",
          "name": "withdrawal_credentials",
          "type": "bytes"
        }
      ],
      "name": "ETHStaked",
      "type": "event"
    },
    {
      "anonymous": false,
      "inputs": [
        {
          "indexed": false,
          "internalType": "uint256",
          "name": "start",
          "type": "uint256"
        },
        {
          "indexed": false,
          "internalType": "uint256",
          "name": "end",
          "type": "uint256"
        }
      ],
      "name": "FuseIntervalUpdated",
      "type": "event"
    },
    {
      "anonymous": false,
      "inputs": [
        {
          "indexed": true,
          "internalType": "address",
          "name": "previousGovernor",
          "type": "address"
        },
        {
          "indexed": true,
          "internalType": "address",
          "name": "newGovernor",
          "type": "address"
        }
      ],
      "name": "GovernorshipTransferred",
      "type": "event"
    },
    {
      "anonymous": false,
      "inputs": [
        {
          "indexed": false,
          "internalType": "address",
          "name": "_oldHarvesterAddress",
          "type": "address"
        },
        {
          "indexed": false,
          "internalType": "address",
          "name": "_newHarvesterAddress",
          "type": "address"
        }
      ],
      "name": "HarvesterAddressesUpdated",
      "type": "event"
    },
    {
      "anonymous": false,
      "inputs": [
        {
          "indexed": true,
          "internalType": "address",
          "name": "_asset",
          "type": "address"
        },
        {
          "indexed": false,
          "internalType": "address",
          "name": "_pToken",
          "type": "address"
        }
      ],
      "name": "PTokenAdded",
      "type": "event"
    },
    {
      "anonymous": false,
      "inputs": [
        {
          "indexed": true,
          "internalType": "address",
          "name": "_asset",
          "type": "address"
        },
        {
          "indexed": false,
          "internalType": "address",
          "name": "_pToken",
          "type": "address"
        }
      ],
      "name": "PTokenRemoved",
      "type": "event"
    },
    {
      "anonymous": false,
      "inputs": [
        {
          "indexed": false,
          "internalType": "address",
          "name": "account",
          "type": "address"
        }
      ],
      "name": "Paused",
      "type": "event"
    },
    {
      "anonymous": false,
      "inputs": [
        {
          "indexed": true,
          "internalType": "address",
          "name": "previousGovernor",
          "type": "address"
        },
        {
          "indexed": true,
          "internalType": "address",
          "name": "newGovernor",
          "type": "address"
        }
      ],
      "name": "PendingGovernorshipTransfer",
      "type": "event"
    },
    {
      "anonymous": false,
      "inputs": [
        {
          "indexed": false,
          "internalType": "address",
          "name": "newAddress",
          "type": "address"
        }
      ],
      "name": "RegistratorChanged",
      "type": "event"
    },
    {
      "anonymous": false,
      "inputs": [
        {
          "indexed": false,
          "internalType": "address[]",
          "name": "_oldAddresses",
          "type": "address[]"
        },
        {
          "indexed": false,
          "internalType": "address[]",
          "name": "_newAddresses",
          "type": "address[]"
        }
      ],
      "name": "RewardTokenAddressesUpdated",
      "type": "event"
    },
    {
      "anonymous": false,
      "inputs": [
        {
          "indexed": false,
          "internalType": "address",
          "name": "recipient",
          "type": "address"
        },
        {
          "indexed": false,
          "internalType": "address",
          "name": "rewardToken",
          "type": "address"
        },
        {
          "indexed": false,
          "internalType": "uint256",
          "name": "amount",
          "type": "uint256"
        }
      ],
      "name": "RewardTokenCollected",
      "type": "event"
    },
    {
      "anonymous": false,
      "inputs": [
        {
          "indexed": false,
          "internalType": "bytes",
          "name": "pubkey",
          "type": "bytes"
        },
        {
          "indexed": false,
          "internalType": "uint64[]",
          "name": "operatorIds",
          "type": "uint64[]"
        }
      ],
      "name": "SSVValidatorExitCompleted",
      "type": "event"
    },
    {
      "anonymous": false,
      "inputs": [
        {
          "indexed": false,
          "internalType": "bytes",
          "name": "pubkey",
          "type": "bytes"
        },
        {
          "indexed": false,
          "internalType": "uint64[]",
          "name": "operatorIds",
          "type": "uint64[]"
        }
      ],
      "name": "SSVValidatorExitInitiated",
      "type": "event"
    },
    {
      "anonymous": false,
      "inputs": [
        {
          "indexed": false,
          "internalType": "bytes",
          "name": "pubkey",
          "type": "bytes"
        },
        {
          "indexed": false,
          "internalType": "uint64[]",
          "name": "operatorIds",
          "type": "uint64[]"
        }
      ],
      "name": "SSVValidatorRegistered",
      "type": "event"
    },
    {
      "anonymous": false,
      "inputs": [
        {
          "indexed": false,
          "internalType": "address",
          "name": "account",
          "type": "address"
        }
      ],
      "name": "Unpaused",
      "type": "event"
    },
    {
      "anonymous": false,
      "inputs": [
        {
          "indexed": true,
          "internalType": "address",
          "name": "_asset",
          "type": "address"
        },
        {
          "indexed": false,
          "internalType": "address",
          "name": "_pToken",
          "type": "address"
        },
        {
          "indexed": false,
          "internalType": "uint256",
          "name": "_amount",
          "type": "uint256"
        }
      ],
      "name": "Withdrawal",
      "type": "event"
    },
    {
      "inputs": [],
      "name": "BEACON_CHAIN_DEPOSIT_CONTRACT",
      "outputs": [
        {
          "internalType": "address",
          "name": "",
          "type": "address"
        }
      ],
      "stateMutability": "view",
      "type": "function"
    },
    {
      "inputs": [],
      "name": "FEE_ACCUMULATOR_ADDRESS",
      "outputs": [
        {
          "internalType": "address",
          "name": "",
          "type": "address"
        }
      ],
      "stateMutability": "view",
      "type": "function"
    },
    {
      "inputs": [],
      "name": "MAX_STAKE",
      "outputs": [
        {
          "internalType": "uint256",
          "name": "",
          "type": "uint256"
        }
      ],
      "stateMutability": "view",
      "type": "function"
    },
    {
      "inputs": [],
      "name": "SSV_NETWORK_ADDRESS",
      "outputs": [
        {
          "internalType": "address",
          "name": "",
          "type": "address"
        }
      ],
      "stateMutability": "view",
      "type": "function"
    },
    {
      "inputs": [],
      "name": "SSV_TOKEN_ADDRESS",
      "outputs": [
        {
          "internalType": "address",
          "name": "",
          "type": "address"
        }
      ],
      "stateMutability": "view",
      "type": "function"
    },
    {
      "inputs": [],
      "name": "VAULT_ADDRESS",
      "outputs": [
        {
          "internalType": "address",
          "name": "",
          "type": "address"
        }
      ],
      "stateMutability": "view",
      "type": "function"
    },
    {
      "inputs": [],
      "name": "WETH_TOKEN_ADDRESS",
      "outputs": [
        {
          "internalType": "address",
          "name": "",
          "type": "address"
        }
      ],
      "stateMutability": "view",
      "type": "function"
    },
    {
      "inputs": [],
      "name": "accountingGovernor",
      "outputs": [
        {
          "internalType": "address",
          "name": "",
          "type": "address"
        }
      ],
      "stateMutability": "view",
      "type": "function"
    },
    {
      "inputs": [
        {
          "internalType": "address",
          "name": "",
          "type": "address"
        }
      ],
      "name": "assetToPToken",
      "outputs": [
        {
          "internalType": "address",
          "name": "",
          "type": "address"
        }
      ],
      "stateMutability": "view",
      "type": "function"
    },
    {
      "inputs": [
        {
          "internalType": "address",
          "name": "_asset",
          "type": "address"
        }
      ],
      "name": "checkBalance",
      "outputs": [
        {
          "internalType": "uint256",
          "name": "balance",
          "type": "uint256"
        }
      ],
      "stateMutability": "view",
      "type": "function"
    },
    {
      "inputs": [],
      "name": "claimGovernance",
      "outputs": [],
      "stateMutability": "nonpayable",
      "type": "function"
    },
    {
      "inputs": [],
      "name": "collectRewardTokens",
      "outputs": [],
      "stateMutability": "nonpayable",
      "type": "function"
    },
    {
      "inputs": [],
      "name": "consensusRewards",
      "outputs": [
        {
          "internalType": "uint256",
          "name": "",
          "type": "uint256"
        }
      ],
      "stateMutability": "view",
      "type": "function"
    },
    {
      "inputs": [
        {
          "internalType": "address",
          "name": "_asset",
          "type": "address"
        },
        {
          "internalType": "uint256",
          "name": "_amount",
          "type": "uint256"
        }
      ],
      "name": "deposit",
      "outputs": [],
      "stateMutability": "nonpayable",
      "type": "function"
    },
    {
      "inputs": [],
      "name": "depositAll",
      "outputs": [],
      "stateMutability": "nonpayable",
      "type": "function"
    },
    {
      "inputs": [
        {
          "internalType": "uint64[]",
          "name": "operatorIds",
          "type": "uint64[]"
        },
        {
          "internalType": "uint256",
          "name": "amount",
          "type": "uint256"
        },
        {
          "components": [
            {
              "internalType": "uint32",
              "name": "validatorCount",
              "type": "uint32"
            },
            {
              "internalType": "uint64",
              "name": "networkFeeIndex",
              "type": "uint64"
            },
            {
              "internalType": "uint64",
              "name": "index",
              "type": "uint64"
            },
            {
              "internalType": "bool",
              "name": "active",
              "type": "bool"
            },
            {
              "internalType": "uint256",
              "name": "balance",
              "type": "uint256"
            }
          ],
          "internalType": "struct Cluster",
          "name": "cluster",
          "type": "tuple"
        }
      ],
      "name": "depositSSV",
      "outputs": [],
      "stateMutability": "nonpayable",
      "type": "function"
    },
    {
      "inputs": [],
      "name": "doAccounting",
      "outputs": [
        {
          "internalType": "bool",
          "name": "accountingValid",
          "type": "bool"
        }
      ],
      "stateMutability": "nonpayable",
      "type": "function"
    },
    {
      "inputs": [
        {
          "internalType": "bytes",
          "name": "publicKey",
          "type": "bytes"
        },
        {
          "internalType": "uint64[]",
          "name": "operatorIds",
          "type": "uint64[]"
        }
      ],
      "name": "exitSsvValidator",
      "outputs": [],
      "stateMutability": "nonpayable",
      "type": "function"
    },
    {
      "inputs": [],
      "name": "fuseIntervalEnd",
      "outputs": [
        {
          "internalType": "uint256",
          "name": "",
          "type": "uint256"
        }
      ],
      "stateMutability": "view",
      "type": "function"
    },
    {
      "inputs": [],
      "name": "fuseIntervalStart",
      "outputs": [
        {
          "internalType": "uint256",
          "name": "",
          "type": "uint256"
        }
      ],
      "stateMutability": "view",
      "type": "function"
    },
    {
      "inputs": [],
      "name": "getRewardTokenAddresses",
      "outputs": [
        {
          "internalType": "address[]",
          "name": "",
          "type": "address[]"
        }
      ],
      "stateMutability": "view",
      "type": "function"
    },
    {
      "inputs": [],
      "name": "governor",
      "outputs": [
        {
          "internalType": "address",
          "name": "",
          "type": "address"
        }
      ],
      "stateMutability": "view",
      "type": "function"
    },
    {
      "inputs": [],
      "name": "harvesterAddress",
      "outputs": [
        {
          "internalType": "address",
          "name": "",
          "type": "address"
        }
      ],
      "stateMutability": "view",
      "type": "function"
    },
    {
      "inputs": [
        {
          "internalType": "address[]",
          "name": "_rewardTokenAddresses",
          "type": "address[]"
        },
        {
          "internalType": "address[]",
          "name": "_assets",
          "type": "address[]"
        },
        {
          "internalType": "address[]",
          "name": "_pTokens",
          "type": "address[]"
        }
      ],
      "name": "initialize",
      "outputs": [],
      "stateMutability": "nonpayable",
      "type": "function"
    },
    {
      "inputs": [],
      "name": "isGovernor",
      "outputs": [
        {
          "internalType": "bool",
          "name": "",
          "type": "bool"
        }
      ],
      "stateMutability": "view",
      "type": "function"
    },
    {
      "inputs": [
        {
          "internalType": "uint256",
          "name": "_activeDepositedValidators",
          "type": "uint256"
        },
        {
          "internalType": "uint256",
          "name": "_ethToWeth",
          "type": "uint256"
        },
        {
          "internalType": "uint256",
          "name": "_wethToBeSentToVault",
          "type": "uint256"
        },
        {
          "internalType": "uint256",
          "name": "_consensusRewards",
          "type": "uint256"
        },
        {
          "internalType": "uint256",
          "name": "_ethThresholdCheck",
          "type": "uint256"
        },
        {
          "internalType": "uint256",
          "name": "_wethThresholdCheck",
          "type": "uint256"
        }
      ],
      "name": "manuallyFixAccounting",
      "outputs": [],
      "stateMutability": "nonpayable",
      "type": "function"
    },
    {
      "inputs": [],
      "name": "pause",
      "outputs": [],
      "stateMutability": "nonpayable",
      "type": "function"
    },
    {
      "inputs": [],
      "name": "paused",
      "outputs": [
        {
          "internalType": "bool",
          "name": "",
          "type": "bool"
        }
      ],
      "stateMutability": "view",
      "type": "function"
    },
    {
      "inputs": [],
      "name": "platformAddress",
      "outputs": [
        {
          "internalType": "address",
          "name": "",
          "type": "address"
        }
      ],
      "stateMutability": "view",
      "type": "function"
    },
    {
      "inputs": [
        {
          "internalType": "bytes",
          "name": "publicKey",
          "type": "bytes"
        },
        {
          "internalType": "uint64[]",
          "name": "operatorIds",
          "type": "uint64[]"
        },
        {
          "internalType": "bytes",
          "name": "sharesData",
          "type": "bytes"
        },
        {
          "internalType": "uint256",
          "name": "amount",
          "type": "uint256"
        },
        {
          "components": [
            {
              "internalType": "uint32",
              "name": "validatorCount",
              "type": "uint32"
            },
            {
              "internalType": "uint64",
              "name": "networkFeeIndex",
              "type": "uint64"
            },
            {
              "internalType": "uint64",
              "name": "index",
              "type": "uint64"
            },
            {
              "internalType": "bool",
              "name": "active",
              "type": "bool"
            },
            {
              "internalType": "uint256",
              "name": "balance",
              "type": "uint256"
            }
          ],
          "internalType": "struct Cluster",
          "name": "cluster",
          "type": "tuple"
        }
      ],
      "name": "registerSsvValidator",
      "outputs": [],
      "stateMutability": "nonpayable",
      "type": "function"
    },
    {
      "inputs": [
        {
          "internalType": "uint256",
          "name": "_assetIndex",
          "type": "uint256"
        }
      ],
      "name": "removePToken",
      "outputs": [],
      "stateMutability": "nonpayable",
      "type": "function"
    },
    {
      "inputs": [
        {
          "internalType": "bytes",
          "name": "publicKey",
          "type": "bytes"
        },
        {
          "internalType": "uint64[]",
          "name": "operatorIds",
          "type": "uint64[]"
        },
        {
          "components": [
            {
              "internalType": "uint32",
              "name": "validatorCount",
              "type": "uint32"
            },
            {
              "internalType": "uint64",
              "name": "networkFeeIndex",
              "type": "uint64"
            },
            {
              "internalType": "uint64",
              "name": "index",
              "type": "uint64"
            },
            {
              "internalType": "bool",
              "name": "active",
              "type": "bool"
            },
            {
              "internalType": "uint256",
              "name": "balance",
              "type": "uint256"
            }
          ],
          "internalType": "struct Cluster",
          "name": "cluster",
          "type": "tuple"
        }
      ],
      "name": "removeSsvValidator",
      "outputs": [],
      "stateMutability": "nonpayable",
      "type": "function"
    },
    {
      "inputs": [
        {
          "internalType": "uint256",
          "name": "",
          "type": "uint256"
        }
      ],
      "name": "rewardTokenAddresses",
      "outputs": [
        {
          "internalType": "address",
          "name": "",
          "type": "address"
        }
      ],
      "stateMutability": "view",
      "type": "function"
    },
    {
      "inputs": [],
      "name": "safeApproveAllTokens",
      "outputs": [],
      "stateMutability": "nonpayable",
      "type": "function"
    },
    {
      "inputs": [
        {
          "internalType": "address",
          "name": "_address",
          "type": "address"
        }
      ],
      "name": "setAccountingGovernor",
      "outputs": [],
      "stateMutability": "nonpayable",
      "type": "function"
    },
    {
      "inputs": [
        {
          "internalType": "uint256",
          "name": "_fuseIntervalStart",
          "type": "uint256"
        },
        {
          "internalType": "uint256",
          "name": "_fuseIntervalEnd",
          "type": "uint256"
        }
      ],
      "name": "setFuseInterval",
      "outputs": [],
      "stateMutability": "nonpayable",
      "type": "function"
    },
    {
      "inputs": [
        {
          "internalType": "address",
          "name": "_harvesterAddress",
          "type": "address"
        }
      ],
      "name": "setHarvesterAddress",
      "outputs": [],
      "stateMutability": "nonpayable",
      "type": "function"
    },
    {
      "inputs": [
        {
          "internalType": "address",
          "name": "_asset",
          "type": "address"
        },
        {
          "internalType": "address",
          "name": "_pToken",
          "type": "address"
        }
      ],
      "name": "setPTokenAddress",
      "outputs": [],
      "stateMutability": "nonpayable",
      "type": "function"
    },
    {
      "inputs": [
        {
          "internalType": "address",
          "name": "_address",
          "type": "address"
        }
      ],
      "name": "setRegistrator",
      "outputs": [],
      "stateMutability": "nonpayable",
      "type": "function"
    },
    {
      "inputs": [
        {
          "internalType": "address[]",
          "name": "_rewardTokenAddresses",
          "type": "address[]"
        }
      ],
      "name": "setRewardTokenAddresses",
      "outputs": [],
      "stateMutability": "nonpayable",
      "type": "function"
    },
    {
      "inputs": [
        {
          "components": [
            {
              "internalType": "bytes",
              "name": "pubkey",
              "type": "bytes"
            },
            {
              "internalType": "bytes",
              "name": "signature",
              "type": "bytes"
            },
            {
              "internalType": "bytes32",
              "name": "depositDataRoot",
              "type": "bytes32"
            }
          ],
          "internalType": "struct ValidatorStakeData[]",
          "name": "validators",
          "type": "tuple[]"
        }
      ],
      "name": "stakeEth",
      "outputs": [],
      "stateMutability": "nonpayable",
      "type": "function"
    },
    {
      "inputs": [
        {
          "internalType": "address",
          "name": "_asset",
          "type": "address"
        }
      ],
      "name": "supportsAsset",
      "outputs": [
        {
          "internalType": "bool",
          "name": "",
          "type": "bool"
        }
      ],
      "stateMutability": "view",
      "type": "function"
    },
    {
      "inputs": [
        {
          "internalType": "address",
          "name": "_newGovernor",
          "type": "address"
        }
      ],
      "name": "transferGovernance",
      "outputs": [],
      "stateMutability": "nonpayable",
      "type": "function"
    },
    {
      "inputs": [
        {
          "internalType": "address",
          "name": "_asset",
          "type": "address"
        },
        {
          "internalType": "uint256",
          "name": "_amount",
          "type": "uint256"
        }
      ],
      "name": "transferToken",
      "outputs": [],
      "stateMutability": "nonpayable",
      "type": "function"
    },
    {
      "inputs": [],
      "name": "validatorRegistrator",
      "outputs": [
        {
          "internalType": "address",
          "name": "",
          "type": "address"
        }
      ],
      "stateMutability": "view",
      "type": "function"
    },
    {
      "inputs": [
        {
          "internalType": "bytes32",
          "name": "",
          "type": "bytes32"
        }
      ],
      "name": "validatorsStates",
      "outputs": [
        {
          "internalType": "enum ValidatorRegistrator.VALIDATOR_STATE",
          "name": "",
          "type": "uint8"
        }
      ],
      "stateMutability": "view",
      "type": "function"
    },
    {
      "inputs": [],
      "name": "vaultAddress",
      "outputs": [
        {
          "internalType": "address",
          "name": "",
          "type": "address"
        }
      ],
      "stateMutability": "view",
      "type": "function"
    },
    {
      "inputs": [
        {
          "internalType": "address",
          "name": "_recipient",
          "type": "address"
        },
        {
          "internalType": "address",
          "name": "_asset",
          "type": "address"
        },
        {
          "internalType": "uint256",
          "name": "_amount",
          "type": "uint256"
        }
      ],
      "name": "withdraw",
      "outputs": [],
      "stateMutability": "nonpayable",
      "type": "function"
    },
    {
      "inputs": [],
      "name": "withdrawAll",
      "outputs": [],
      "stateMutability": "nonpayable",
      "type": "function"
    },
    {
      "stateMutability": "payable",
      "type": "receive"
    }
  ],
  "transactionHash": "0x32a95bad479c439018f11c6c93e19fc7fd7edc0fdbcdc15009a32231d7967c5c",
  "args": [
    [
      "0x0000000000000000000000000000000000000000",
      "0x19d2bAaBA949eFfa163bFB9efB53ed8701aA5dD9"
    ],
    "0x94373a4919B3240D86eA41593D5eBa789FEF3848",
    "0xad45A78180961079BFaeEe349704F411dfF947C6",
    "0x38A4794cCEd47d3baf7370CcC43B560D3a1beEFA",
    "0x590B781b511e953dbFC49e7E7864A6E787aFBDCc",
    "0x4242424242424242424242424242424242424242"
  ],
  "numDeployments": 2,
  "solcInputHash": "46be8b80ad6bb26f70e58a31071e073e",
  "bytecode": "0x610180604052600060685560006069556000606a553480156200002157600080fd5b5060405162004ce338038062004ce3833981016040819052620000449162000147565b8585876020015183868383838362000062336200011760201b60201c565b60008051602062004cc3833981519152546040516001600160a01b03909116906000907fc7c0c772add429241571afb3805861fb3cfa2af374534088b76cdb4325a87e9a908290a36033805460ff191690556001600160601b0319606094851b811660805291841b821660a052831b811660c05290821b811660e0528651821b811661010052602090960151811b86166101205298891b851661014052505050509190931b1661016052506200022292505050565b60008051602062004cc383398151915255565b80516001600160a01b03811681146200014257600080fd5b919050565b60008060008060008086880360e08112156200016257600080fd5b60408112156200017157600080fd5b50604080519081016001600160401b0381118282101715620001a357634e487b7160e01b600052604160045260246000fd5b604052620001b1886200012a565b8152620001c1602089016200012a565b60208201529550620001d6604088016200012a565b9450620001e6606088016200012a565b9350620001f6608088016200012a565b92506200020660a088016200012a565b91506200021660c088016200012a565b90509295509295509295565b60805160601c60a05160601c60c05160601c60e05160601c6101005160601c6101205160601c6101405160601c6101605160601c614904620003bf600039600081816102c2015281816109b301526132ee01526000818161059801526127ba01526000818161046c01528181610db601528181611d0301528181611e7c01528181612b9b0152612e230152600061097f0152600081816106f101528181610b4e01528181611b4001528181611c010152818161231601526125650152600081816109fc01528181610c540152818161172b0152818161278a015281816128a20152612d190152600081816108cb015261147c0152600081816102f4015281816104f6015281816107c201528181610ab501528181610e2b01528181610ffa01528181611082015281816112310152818161130c0152818161192201528181611ab001528181611b6f01528181611ded01528181611e9d0152818161229001528181612345015281816124df0152818161259401528181612eae01528181612f3d015281816133f30152818161347801526134ec01526149046000f3fe6080604052600436106102b25760003560e01c8063853828b611610175578063c2e1e3f4116100dc578063d9caed1211610095578063dd505df61161006f578063dd505df6146109a1578063de5f6268146109d5578063f1188e40146109ea578063f6ca71b014610a1e57600080fd5b8063d9caed121461092d578063d9f00ec71461094d578063dbe55e561461096d57600080fd5b8063c2e1e3f414610867578063c7af335214610887578063c98517c51461089c578063cceab750146108b9578063d38bfff4146108ed578063d5c360f61461090d57600080fd5b8063a4f98af41161012e578063a4f98af414610790578063aa388af6146107a5578063ab12edf5146107f2578063ad1728cb14610812578063af37dcbe14610827578063bb1b918d1461084757600080fd5b8063853828b6146106a557806387bae867146106ba5780639092c31c146106df5780639136616a1461071357806396d538bb146107335780639da0e4621461075357600080fd5b80635c975abb116102195780636ef38795116101d25780636ef38795146105fa57806371a735f31461061a5780637b2d9b2c1461063a5780637e20fffa1461065a578063842f5c461461067a5780638456cb591461069057600080fd5b80635c975abb1461052d5780635d36b190146105515780635f515226146105665780636093d3801461058657806367c7066c146105ba5780636e811d38146105da57600080fd5b8063430bf08a1161026b578063430bf08a1461045a578063435356d11461048e57806347e7ef24146104ae578063484be812146104ce578063579a7e1a146104e45780635a063f631461051857600080fd5b80630c340a241461036e5780630ed57b3a146103a05780630fc3b4c4146103c05780631072cbea146103f657806322495dc8146104165780633c8649591461043657600080fd5b3661036957336001600160a01b037f00000000000000000000000000000000000000000000000000000000000000001614806103165750336001600160a01b037f000000000000000000000000000000000000000000000000000000000000000016145b6103675760405162461bcd60e51b815260206004820152601e60248201527f657468206e6f742066726f6d20616c6c6f77656420636f6e747261637473000060448201526064015b60405180910390fd5b005b600080fd5b34801561037a57600080fd5b50610383610a40565b6040516001600160a01b0390911681526020015b60405180910390f35b3480156103ac57600080fd5b506103676103bb366004613ce6565b610a5d565b3480156103cc57600080fd5b506103836103db366004613cac565b60a0602052600090815260409020546001600160a01b031681565b34801561040257600080fd5b50610367610411366004613d60565b610a8f565b34801561042257600080fd5b50610367610431366004613e54565b610b4c565b34801561044257600080fd5b5061044c60695481565b604051908152602001610397565b34801561046657600080fd5b506103837f000000000000000000000000000000000000000000000000000000000000000081565b34801561049a57600080fd5b506103676104a9366004613dcd565b610cc6565b3480156104ba57600080fd5b506103676104c9366004613d60565b610dab565b3480156104da57600080fd5b5061044c606a5481565b3480156104f057600080fd5b506103837f000000000000000000000000000000000000000000000000000000000000000081565b34801561052457600080fd5b50610367610eb1565b34801561053957600080fd5b5060335460ff165b6040519015158152602001610397565b34801561055d57600080fd5b50610367610f50565b34801561057257600080fd5b5061044c610581366004613cac565b610ff6565b34801561059257600080fd5b506103837f000000000000000000000000000000000000000000000000000000000000000081565b3480156105c657600080fd5b5060a454610383906001600160a01b031681565b3480156105e657600080fd5b506103676105f5366004613cac565b61112a565b34801561060657600080fd5b50610367610615366004613d8c565b6111b2565b34801561062657600080fd5b50610367610635366004614062565b611634565b34801561064657600080fd5b50610383610655366004613f2a565b61182d565b34801561066657600080fd5b5061036761067536600461411e565b611857565b34801561068657600080fd5b5061044c60685481565b34801561069c57600080fd5b50610367611bff565b3480156106b157600080fd5b50610367611cf8565b3480156106c657600080fd5b506033546103839061010090046001600160a01b031681565b3480156106eb57600080fd5b506103837f000000000000000000000000000000000000000000000000000000000000000081565b34801561071f57600080fd5b5061036761072e366004613f2a565b611eca565b34801561073f57600080fd5b5061036761074e366004613d8c565b612095565b34801561075f57600080fd5b5061078361076e366004613f2a565b60356020526000908152604090205460ff1681565b6040516103979190614565565b34801561079c57600080fd5b506105416121b5565b3480156107b157600080fd5b506105416107c0366004613cac565b7f00000000000000000000000000000000000000000000000000000000000000006001600160a01b0390811691161490565b3480156107fe57600080fd5b5061036761080d3660046140fc565b612677565b34801561081e57600080fd5b50610367612773565b34801561083357600080fd5b50606b54610383906001600160a01b031681565b34801561085357600080fd5b50610367610862366004613fae565b612839565b34801561087357600080fd5b50610367610882366004613cac565b6129ac565b34801561089357600080fd5b50610541612a39565b3480156108a857600080fd5b5061044c6801bc16d674ec80000081565b3480156108c557600080fd5b506103837f000000000000000000000000000000000000000000000000000000000000000081565b3480156108f957600080fd5b50610367610908366004613cac565b612a6a565b34801561091957600080fd5b50610367610928366004613cac565b612b0e565b34801561093957600080fd5b50610367610948366004613d1f565b612b90565b34801561095957600080fd5b50610367610968366004613f43565b612c23565b34801561097957600080fd5b506103837f000000000000000000000000000000000000000000000000000000000000000081565b3480156109ad57600080fd5b506103837f000000000000000000000000000000000000000000000000000000000000000081565b3480156109e157600080fd5b50610367612e18565b3480156109f657600080fd5b506103837f000000000000000000000000000000000000000000000000000000000000000081565b348015610a2a57600080fd5b50610a33612f62565b604051610397919061433b565b6000610a586000805160206148af8339815191525490565b905090565b610a65612a39565b610a815760405162461bcd60e51b815260040161035e906145d7565b610a8b8282612fc4565b5050565b610a97612a39565b610ab35760405162461bcd60e51b815260040161035e906145d7565b7f00000000000000000000000000000000000000000000000000000000000000006001600160a01b039081169083161415610b305760405162461bcd60e51b815260206004820152601f60248201527f43616e6e6f74207472616e7366657220737570706f7274656420617373657400604482015260640161035e565b610a8b610b3b610a40565b6001600160a01b0384169083613123565b7f00000000000000000000000000000000000000000000000000000000000000006001600160a01b031663570d8e1d6040518163ffffffff1660e01b815260040160206040518083038186803b158015610ba557600080fd5b505afa158015610bb9573d6000803e3d6000fd5b505050506040513d601f19601f82011682018060405250810190610bdd9190613cc9565b6001600160a01b0316336001600160a01b031614610c3d5760405162461bcd60e51b815260206004820152601c60248201527f43616c6c6572206973206e6f7420746865205374726174656769737400000000604482015260640161035e565b60405163bc26e7e560e01b81526001600160a01b037f0000000000000000000000000000000000000000000000000000000000000000169063bc26e7e590610c8f90309087908790879060040161428b565b600060405180830381600087803b158015610ca957600080fd5b505af1158015610cbd573d6000803e3d6000fd5b50505050505050565b610cce612a39565b610cea5760405162461bcd60e51b815260040161035e906145d7565b600054610100900460ff1680610d03575060005460ff16155b610d665760405162461bcd60e51b815260206004820152602e60248201527f496e697469616c697a61626c653a20636f6e747261637420697320616c72656160448201526d191e481a5b9a5d1a585b1a5e995960921b606482015260840161035e565b600054610100900460ff16158015610d88576000805461ffff19166101011790555b610d9384848461317a565b8015610da5576000805461ff00191690555b50505050565b336001600160a01b037f00000000000000000000000000000000000000000000000000000000000000001614610df35760405162461bcd60e51b815260040161035e906145a0565b60008051602061488f83398151915280546002811415610e255760405162461bcd60e51b815260040161035e9061466f565b600282557f00000000000000000000000000000000000000000000000000000000000000006001600160a01b0316846001600160a01b031614610e9e5760405162461bcd60e51b8152602060048201526011602482015270155b9cdd5c1c1bdc9d195908185cdcd95d607a1b604482015260640161035e565b610ea88484613235565b50600190555050565b60a4546001600160a01b03163314610f0b5760405162461bcd60e51b815260206004820152601b60248201527f43616c6c6572206973206e6f7420746865204861727665737465720000000000604482015260640161035e565b60008051602061488f83398151915280546002811415610f3d5760405162461bcd60e51b815260040161035e9061466f565b60028255610f496132c7565b5060019055565b7f44c4d30b2eaad5130ad70c3ba6972730566f3e6359ab83e800d905c61b1c51db546001600160a01b0316336001600160a01b031614610feb5760405162461bcd60e51b815260206004820152603060248201527f4f6e6c79207468652070656e64696e6720476f7665726e6f722063616e20636f60448201526f6d706c6574652074686520636c61696d60801b606482015260840161035e565b610ff433613515565b565b60007f00000000000000000000000000000000000000000000000000000000000000006001600160a01b0316826001600160a01b03161461106d5760405162461bcd60e51b8152602060048201526011602482015270155b9cdd5c1c1bdc9d195908185cdcd95d607a1b604482015260640161035e565b6040516370a0823160e01b81523060048201527f00000000000000000000000000000000000000000000000000000000000000006001600160a01b0316906370a082319060240160206040518083038186803b1580156110cc57600080fd5b505afa1580156110e0573d6000803e3d6000fd5b505050506040513d601f19601f8201168201806040525081019061110491906140e3565b60345461111a906801bc16d674ec800000614780565b6111249190614746565b92915050565b611132612a39565b61114e5760405162461bcd60e51b815260040161035e906145d7565b6040516001600160a01b03821681527f83f29c79feb71f8fba9d0fbc4ba5f0982a28b6b1e868b3fc50e6400d100bca0f9060200160405180910390a1603380546001600160a01b0390921661010002610100600160a81b0319909216919091179055565b60335461010090046001600160a01b031633146111e15760405162461bcd60e51b815260040161035e90614638565b60335460ff16156112045760405162461bcd60e51b815260040161035e9061460e565b6000611219826801bc16d674ec800000614780565b6040516370a0823160e01b81523060048201529091507f00000000000000000000000000000000000000000000000000000000000000006001600160a01b0316906370a082319060240160206040518083038186803b15801561127b57600080fd5b505afa15801561128f573d6000803e3d6000fd5b505050506040513d601f19601f820116820180604052508101906112b391906140e3565b8111156112f65760405162461bcd60e51b81526020600482015260116024820152700d2dce6eaccccd2c6d2cadce840ae8aa89607b1b604482015260640161035e565b604051632e1a7d4d60e01b8152600481018290527f00000000000000000000000000000000000000000000000000000000000000006001600160a01b031690632e1a7d4d90602401600060405180830381600087803b15801561135857600080fd5b505af115801561136c573d6000803e3d6000fd5b5050505060005b82811015610da557600084848381811061138f5761138f61483f565b90506020028101906113a191906146dd565b6113ab9080614697565b6040516113b992919061425f565b6040805191829003909120600081815260356020529182205490925060ff16908160038111156113eb576113eb614813565b146114385760405162461bcd60e51b815260206004820152601860248201527f56616c696461746f72206e6f7420726567697374657265640000000000000000604482015260640161035e565b60408051600160f81b60208201526000602182018190526bffffffffffffffffffffffff193060601b16602c830152910160405160208183030381529060405290507f00000000000000000000000000000000000000000000000000000000000000006001600160a01b031663228951188888878181106114bb576114bb61483f565b90506020028101906114cd91906146dd565b6114d79080614697565b848b8b8a8181106114ea576114ea61483f565b90506020028101906114fc91906146dd565b61150a906020810190614697565b8d8d8c81811061151c5761151c61483f565b905060200281019061152e91906146dd565b604001356040518763ffffffff1660e01b8152600401611553969594939291906144ea565b600060405180830381600087803b15801561156d57600080fd5b505af1158015611581573d6000803e3d6000fd5b505050506001603460008282546115989190614746565b909155507ffeb31a79d38edb1b090d516e4df3e273651179c6f2c2ec53a9a22ae015b70ba990508787868181106115d1576115d161483f565b90506020028101906115e391906146dd565b6115ed9080614697565b6801bc16d674ec800000846040516116089493929190614539565b60405180910390a150506000908152603560205260409020805460ff1916600190811790915501611373565b60335461010090046001600160a01b031633146116635760405162461bcd60e51b815260040161035e90614638565b60335460ff16156116865760405162461bcd60e51b815260040161035e9061460e565b600060356000878760405161169c92919061425f565b604080519182900390912082526020820192909252016000205460ff16905060028160038111156116cf576116cf614813565b146117145760405162461bcd60e51b815260206004820152601560248201527456616c696461746f72206e6f742065786974696e6760581b604482015260640161035e565b6040516312b3fc1960e01b81526001600160a01b037f000000000000000000000000000000000000000000000000000000000000000016906312b3fc199061176890899089908990899089906004016144a9565b600060405180830381600087803b15801561178257600080fd5b505af1158015611796573d6000803e3d6000fd5b505050507ff72821b8777f002ccdf6326f1242d9e0f762eb077668b67bebe640535378066d868686866040516117cf9493929190614420565b60405180910390a160036035600088886040516117ed92919061425f565b60408051918290039091208252602082019290925201600020805460ff1916600183600381111561182057611820614813565b0217905550505050505050565b60a5818154811061183d57600080fd5b6000918252602090912001546001600160a01b0316905081565b606b546001600160a01b031633146118bf5760405162461bcd60e51b815260206004820152602560248201527f43616c6c6572206973206e6f7420746865204163636f756e74696e6720476f7660448201526432b93737b960d91b606482015260840161035e565b60335460ff166119085760405162461bcd60e51b815260206004820152601460248201527314185d5cd8589b194e881b9bdd081c185d5cd95960621b604482015260640161035e565b6040516370a0823160e01b815230600482015247906000907f00000000000000000000000000000000000000000000000000000000000000006001600160a01b0316906370a082319060240160206040518083038186803b15801561196c57600080fd5b505afa158015611980573d6000803e3d6000fd5b505050506040513d601f19601f820116820180604052508101906119a491906140e3565b90508382111580156119b65750828111155b611a025760405162461bcd60e51b815260206004820152601960248201527f6f766572206163636f756e74696e67207468726573686f6c6400000000000000604482015260640161035e565b60345460685460408051928352602083018b9052820152606081018690526080810188905260a081018790527fb2c41d2aedabd456081f30f3b116ce88de1c795a7d4ca787fef373a393f3c5db9060c00160405180910390a1603488905560688590558615611b235781871115611aae5760405162461bcd60e51b815260206004820152601060248201526f0d2dce6eaccccd2c6d2cadce8408aa8960831b604482015260640161035e565b7f00000000000000000000000000000000000000000000000000000000000000006001600160a01b031663d0e30db0886040518263ffffffff1660e01b81526004016000604051808303818588803b158015611b0957600080fd5b505af1158015611b1d573d6000803e3d6000fd5b50505050505b8515611bed5760405163a9059cbb60e01b81526001600160a01b037f000000000000000000000000000000000000000000000000000000000000000081166004830152602482018890527f0000000000000000000000000000000000000000000000000000000000000000169063a9059cbb90604401602060405180830381600087803b158015611bb357600080fd5b505af1158015611bc7573d6000803e3d6000fd5b505050506040513d601f19601f82011682018060405250810190611beb9190613f0d565b505b611bf56135d6565b5050505050505050565b7f00000000000000000000000000000000000000000000000000000000000000006001600160a01b031663570d8e1d6040518163ffffffff1660e01b815260040160206040518083038186803b158015611c5857600080fd5b505afa158015611c6c573d6000803e3d6000fd5b505050506040513d601f19601f82011682018060405250810190611c909190613cc9565b6001600160a01b0316336001600160a01b031614611cf05760405162461bcd60e51b815260206004820152601c60248201527f43616c6c6572206973206e6f7420746865205374726174656769737400000000604482015260640161035e565b610ff4613669565b336001600160a01b037f0000000000000000000000000000000000000000000000000000000000000000161480611d475750611d32610a40565b6001600160a01b0316336001600160a01b0316145b611d9f5760405162461bcd60e51b815260206004820152602360248201527f43616c6c6572206973206e6f7420746865205661756c74206f7220476f7665726044820152623737b960e91b606482015260840161035e565b60008051602061488f83398151915280546002811415611dd15760405162461bcd60e51b815260040161035e9061466f565b600282556040516370a0823160e01b81523060048201526000907f00000000000000000000000000000000000000000000000000000000000000006001600160a01b0316906370a082319060240160206040518083038186803b158015611e3757600080fd5b505afa158015611e4b573d6000803e3d6000fd5b505050506040513d601f19601f82011682018060405250810190611e6f91906140e3565b90508015611ec257611ec27f00000000000000000000000000000000000000000000000000000000000000007f0000000000000000000000000000000000000000000000000000000000000000836136c1565b505060019055565b611ed2612a39565b611eee5760405162461bcd60e51b815260040161035e906145d7565b60a1548110611f2f5760405162461bcd60e51b815260206004820152600d60248201526c092dcecc2d8d2c840d2dcc8caf609b1b604482015260640161035e565b600060a18281548110611f4457611f4461483f565b60009182526020808320909101546001600160a01b0390811680845260a090925260409092205460a15491935090911690611f819060019061479f565b8310156120035760a18054611f989060019061479f565b81548110611fa857611fa861483f565b60009182526020909120015460a180546001600160a01b039092169185908110611fd457611fd461483f565b9060005260206000200160006101000a8154816001600160a01b0302191690836001600160a01b031602179055505b60a180548061201457612014614829565b60008281526020808220600019908401810180546001600160a01b031990811690915593019093556001600160a01b0385811680835260a0855260409283902080549094169093559051908416815290917f16b7600acff27e39a8a96056b3d533045298de927507f5c1d97e4accde60488c910160405180910390a2505050565b61209d612a39565b6120b95760405162461bcd60e51b815260040161035e906145d7565b8060005b8181101561216c5760008484838181106120d9576120d961483f565b90506020020160208101906120ee9190613cac565b6001600160a01b0316141561215c5760405162461bcd60e51b815260206004820152602e60248201527f43616e206e6f742073657420616e20656d70747920616464726573732061732060448201526d30903932bbb0b932103a37b5b2b760911b606482015260840161035e565b612165816147e2565b90506120bd565b507f04c0b9649497d316554306e53678d5f5f5dbc3a06f97dec13ff4cfe98b986bbc60a584846040516121a193929190614388565b60405180910390a1610da560a58484613a05565b60335460009061010090046001600160a01b031633146121e75760405162461bcd60e51b815260040161035e90614638565b60335460ff161561220a5760405162461bcd60e51b815260040161035e9061460e565b6068544710156122225761221c613669565b50600090565b600060685447612232919061479f565b9050600191506801bc16d674ec800000811061240d57600061225d6801bc16d674ec8000008361475e565b90508060346000828254612271919061479f565b909155506000905061228c826801bc16d674ec800000614780565b90507f00000000000000000000000000000000000000000000000000000000000000006001600160a01b031663d0e30db0826040518263ffffffff1660e01b81526004016000604051808303818588803b1580156122e957600080fd5b505af11580156122fd573d6000803e3d6000fd5b505060405163a9059cbb60e01b81526001600160a01b037f000000000000000000000000000000000000000000000000000000000000000081166004830152602482018690527f000000000000000000000000000000000000000000000000000000000000000016935063a9059cbb92506044019050602060405180830381600087803b15801561238d57600080fd5b505af11580156123a1573d6000803e3d6000fd5b505050506040513d601f19601f820116820180604052508101906123c59190613f0d565b5060345460408051848152602081019290925281018290527fbe7040030ff7b347853214bf49820c6d455fedf58f3815f85c7bc5216993682b9060600160405180910390a150505b60006068544761241d919061479f565b90506801bc16d674ec800000811061246f5760405162461bcd60e51b8152602060048201526015602482015274756e6578706563746564206163636f756e74696e6760581b604482015260640161035e565b8061247957505090565b6069548110156124d35780606860008282546124959190614746565b90915550506040518181527f7a745a2c63a535068f52ceca27debd5297bbad5f7f37ec53d044a59d0362445d906020015b60405180910390a1505090565b606a54811115612666577f00000000000000000000000000000000000000000000000000000000000000006001600160a01b031663d0e30db0826040518263ffffffff1660e01b81526004016000604051808303818588803b15801561253857600080fd5b505af115801561254c573d6000803e3d6000fd5b505060405163a9059cbb60e01b81526001600160a01b037f000000000000000000000000000000000000000000000000000000000000000081166004830152602482018690527f000000000000000000000000000000000000000000000000000000000000000016935063a9059cbb92506044019050602060405180830381600087803b1580156125dc57600080fd5b505af11580156125f0573d6000803e3d6000fd5b505050506040513d601f19601f820116820180604052508101906126149190613f0d565b50600160346000828254612628919061479f565b909155505060345460408051918252602082018390527f6aa7e30787b26429ced603a7aba8b19c4b5d5bcf29a3257da953c8d53bcaa3a691016124c6565b61266e613669565b60009250505090565b61267f612a39565b61269b5760405162461bcd60e51b815260040161035e906145d7565b80821080156126b257506801bc16d674ec80000082105b80156126c657506801bc16d674ec80000081105b80156126e35750673782dace9d9000006126e0838361479f565b10155b61272f5760405162461bcd60e51b815260206004820152601760248201527f696e636f7272656374206675736520696e74657276616c000000000000000000604482015260640161035e565b60408051838152602081018390527fcb8d24e46eb3c402bf344ee60a6576cba9ef2f59ea1af3b311520704924e901a910160405180910390a1606991909155606a55565b60405163095ea7b360e01b81526001600160a01b037f00000000000000000000000000000000000000000000000000000000000000008116600483015260001960248301527f0000000000000000000000000000000000000000000000000000000000000000169063095ea7b390604401602060405180830381600087803b1580156127fe57600080fd5b505af1158015612812573d6000803e3d6000fd5b505050506040513d601f19601f820116820180604052508101906128369190613f0d565b50565b60335461010090046001600160a01b031633146128685760405162461bcd60e51b815260040161035e90614638565b60335460ff161561288b5760405162461bcd60e51b815260040161035e9061460e565b6040516301ba3ee760e21b81526001600160a01b037f000000000000000000000000000000000000000000000000000000000000000016906306e8fb9c906128e5908b908b908b908b908b908b908b908b90600401614447565b600060405180830381600087803b1580156128ff57600080fd5b505af1158015612913573d6000803e3d6000fd5b505050506000603560008a8a60405161292d92919061425f565b60408051918290039091208252602082019290925201600020805460ff1916600183600381111561296057612960614813565b02179055507f75c4a66b2c6c28cf46db7131182a812e4fbbb2f0591377aa83a737909a9b68c38888888860405161299a9493929190614420565b60405180910390a15050505050505050565b6129b4612a39565b6129d05760405162461bcd60e51b815260040161035e906145d7565b60a454604080516001600160a01b03928316815291831660208301527fe48386b84419f4d36e0f96c10cc3510b6fb1a33795620c5098b22472bbe90796910160405180910390a160a480546001600160a01b0319166001600160a01b0392909216919091179055565b6000612a516000805160206148af8339815191525490565b6001600160a01b0316336001600160a01b031614905090565b612a72612a39565b612a8e5760405162461bcd60e51b815260040161035e906145d7565b612ab6817f44c4d30b2eaad5130ad70c3ba6972730566f3e6359ab83e800d905c61b1c51db55565b806001600160a01b0316612ad66000805160206148af8339815191525490565b6001600160a01b03167fa39cc5eb22d0f34d8beaefee8a3f17cc229c1a1d1ef87a5ad47313487b1c4f0d60405160405180910390a350565b612b16612a39565b612b325760405162461bcd60e51b815260040161035e906145d7565b6040516001600160a01b03821681527ff3dd2b598e2a94dd3f46b414f7c960f8e10a0b0efd00df97d27cdd0fee5c87539060200160405180910390a1606b80546001600160a01b0319166001600160a01b0392909216919091179055565b336001600160a01b037f00000000000000000000000000000000000000000000000000000000000000001614612bd85760405162461bcd60e51b815260040161035e906145a0565b60008051602061488f83398151915280546002811415612c0a5760405162461bcd60e51b815260040161035e9061466f565b60028255612c198585856136c1565b5060019055505050565b60335461010090046001600160a01b03163314612c525760405162461bcd60e51b815260040161035e90614638565b60335460ff1615612c755760405162461bcd60e51b815260040161035e9061460e565b6000603560008686604051612c8b92919061425f565b604080519182900390912082526020820192909252016000205460ff1690506001816003811115612cbe57612cbe614813565b14612d025760405162461bcd60e51b815260206004820152601460248201527315985b1a59185d1bdc881b9bdd081cdd185ad95960621b604482015260640161035e565b604051633877322b60e01b81526001600160a01b037f00000000000000000000000000000000000000000000000000000000000000001690633877322b90612d54908890889088908890600401614420565b600060405180830381600087803b158015612d6e57600080fd5b505af1158015612d82573d6000803e3d6000fd5b505050507ff8821da16f5ed966b41e0343c3eff9903af782d74f99f1689dd9d4562b6545b385858585604051612dbb9493929190614420565b60405180910390a16002603560008787604051612dd992919061425f565b60408051918290039091208252602082019290925201600020805460ff19166001836003811115612e0c57612e0c614813565b02179055505050505050565b336001600160a01b037f00000000000000000000000000000000000000000000000000000000000000001614612e605760405162461bcd60e51b815260040161035e906145a0565b60008051602061488f83398151915280546002811415612e925760405162461bcd60e51b815260040161035e9061466f565b600282556040516370a0823160e01b81523060048201526000907f00000000000000000000000000000000000000000000000000000000000000006001600160a01b0316906370a082319060240160206040518083038186803b158015612ef857600080fd5b505afa158015612f0c573d6000803e3d6000fd5b505050506040513d601f19601f82011682018060405250810190612f3091906140e3565b90508015611ec257611ec27f000000000000000000000000000000000000000000000000000000000000000082613235565b606060a5805480602002602001604051908101604052809291908181526020018280548015612fba57602002820191906000526020600020905b81546001600160a01b03168152600190910190602001808311612f9c575b5050505050905090565b6001600160a01b03828116600090815260a0602052604090205416156130215760405162461bcd60e51b81526020600482015260126024820152711c151bdad95b88185b1c9958591e481cd95d60721b604482015260640161035e565b6001600160a01b0382161580159061304157506001600160a01b03811615155b6130815760405162461bcd60e51b8152602060048201526011602482015270496e76616c69642061646472657373657360781b604482015260640161035e565b6001600160a01b03828116600081815260a06020908152604080832080549587166001600160a01b0319968716811790915560a1805460018101825594527faadc37b8ba5645e62f4546802db221593a94729ccbfc5a97d01365a88f64987890930180549095168417909455925190815290917fef6485b84315f9b1483beffa32aae9a0596890395e3d7521f1c5fbb51790e765910160405180910390a25050565b604080516001600160a01b038416602482015260448082018490528251808303909101815260649091019091526020810180516001600160e01b031663a9059cbb60e01b1790526131759084906137b9565b505050565b825161318d9060a5906020860190613a68565b508151815181146131d75760405162461bcd60e51b8152602060048201526014602482015273496e76616c696420696e7075742061727261797360601b604482015260640161035e565b60005b8181101561322e5761321e8482815181106131f7576131f761483f565b60200260200101518483815181106132115761321161483f565b6020026020010151612fc4565b613227816147e2565b90506131da565b5050505050565b6000811161327e5760405162461bcd60e51b81526020600482015260166024820152754d757374206465706f73697420736f6d657468696e6760501b604482015260640161035e565b6040805160008152602081018390526001600160a01b038416917f5548c837ab068cf56a2c2479df0882a4922fd203edb7517321831d95078c5f62910160405180910390a25050565b60335460ff16156132ea5760405162461bcd60e51b815260040161035e9061460e565b60007f00000000000000000000000000000000000000000000000000000000000000006001600160a01b031663e52253816040518163ffffffff1660e01b8152600401602060405180830381600087803b15801561334757600080fd5b505af115801561335b573d6000803e3d6000fd5b505050506040513d601f19601f8201168201806040525081019061337f91906140e3565b90506000606854826133919190614746565b9050804710156133e35760405162461bcd60e51b815260206004820152601860248201527f696e73756666696369656e74206574682062616c616e63650000000000000000604482015260640161035e565b8015610a8b5760006068819055507f00000000000000000000000000000000000000000000000000000000000000006001600160a01b031663d0e30db0826040518263ffffffff1660e01b81526004016000604051808303818588803b15801561344c57600080fd5b505af1158015613460573d6000803e3d6000fd5b505060a454604080516001600160a01b0392831681527f0000000000000000000000000000000000000000000000000000000000000000909216602083015281018590527ff6c07a063ed4e63808eb8da7112d46dbcd38de2b40a73dbcc9353c5a94c72353935060600191506134d39050565b60405180910390a160a454610a8b906001600160a01b037f00000000000000000000000000000000000000000000000000000000000000008116911683613123565b6001600160a01b03811661356b5760405162461bcd60e51b815260206004820152601a60248201527f4e657720476f7665726e6f722069732061646472657373283029000000000000604482015260640161035e565b806001600160a01b031661358b6000805160206148af8339815191525490565b6001600160a01b03167fc7c0c772add429241571afb3805861fb3cfa2af374534088b76cdb4325a87e9a60405160405180910390a3612836816000805160206148af83398151915255565b60335460ff1661361f5760405162461bcd60e51b815260206004820152601460248201527314185d5cd8589b194e881b9bdd081c185d5cd95960621b604482015260640161035e565b6033805460ff191690557f5db9ee0a495bf2e6ff9c91a7834c1ba4fdd244a5e8aa4e537bd38aeae4b073aa335b6040516001600160a01b03909116815260200160405180910390a1565b60335460ff161561368c5760405162461bcd60e51b815260040161035e9061460e565b6033805460ff191660011790557f62e78cea01bee320cd4e420270b5ea74000d11b0c9f74754ebdbfc544b05a25861364c3390565b600081116137115760405162461bcd60e51b815260206004820152601760248201527f4d75737420776974686472617720736f6d657468696e67000000000000000000604482015260640161035e565b6001600160a01b0383166137605760405162461bcd60e51b8152602060048201526016602482015275135d5cdd081cdc1958da599e481c9958da5c1a595b9d60521b604482015260640161035e565b6040805160008152602081018390526001600160a01b038416917f2717ead6b9200dd235aad468c9809ea400fe33ac69b5bfaa6d3e90fc922b6398910160405180910390a26131756001600160a01b0383168483613123565b600061380e826040518060400160405280602081526020017f5361666545524332303a206c6f772d6c6576656c2063616c6c206661696c6564815250856001600160a01b031661388b9092919063ffffffff16565b805190915015613175578080602001905181019061382c9190613f0d565b6131755760405162461bcd60e51b815260206004820152602a60248201527f5361666545524332303a204552433230206f7065726174696f6e20646964206e6044820152691bdd081cdd58d8d9595960b21b606482015260840161035e565b606061389a84846000856138a4565b90505b9392505050565b6060824710156139055760405162461bcd60e51b815260206004820152602660248201527f416464726573733a20696e73756666696369656e742062616c616e636520666f6044820152651c8818d85b1b60d21b606482015260840161035e565b843b6139535760405162461bcd60e51b815260206004820152601d60248201527f416464726573733a2063616c6c20746f206e6f6e2d636f6e7472616374000000604482015260640161035e565b600080866001600160a01b0316858760405161396f919061426f565b60006040518083038185875af1925050503d80600081146139ac576040519150601f19603f3d011682016040523d82523d6000602084013e6139b1565b606091505b50915091506139c18282866139cc565b979650505050505050565b606083156139db57508161389d565b8251156139eb5782518084602001fd5b8160405162461bcd60e51b815260040161035e919061458d565b828054828255906000526020600020908101928215613a58579160200282015b82811115613a585781546001600160a01b0319166001600160a01b03843516178255602090920191600190910190613a25565b50613a64929150613abd565b5090565b828054828255906000526020600020908101928215613a58579160200282015b82811115613a5857825182546001600160a01b0319166001600160a01b03909116178255602090920191600190910190613a88565b5b80821115613a645760008155600101613abe565b60008083601f840112613ae457600080fd5b5081356001600160401b03811115613afb57600080fd5b6020830191508360208260051b8501011115613b1657600080fd5b9250929050565b600082601f830112613b2e57600080fd5b81356020613b43613b3e83614723565b6146f3565b80838252828201915082860187848660051b8901011115613b6357600080fd5b60005b85811015613b8b578135613b798161486b565b84529284019290840190600101613b66565b5090979650505050505050565b60008083601f840112613baa57600080fd5b5081356001600160401b03811115613bc157600080fd5b602083019150836020828501011115613b1657600080fd5b600060a08284031215613beb57600080fd5b50919050565b600060a08284031215613c0357600080fd5b60405160a081018181106001600160401b0382111715613c2557613c25614855565b604052905080613c3483613c7c565b8152613c4260208401613c95565b6020820152613c5360408401613c95565b60408201526060830135613c6681614880565b6060820152608092830135920191909152919050565b803563ffffffff81168114613c9057600080fd5b919050565b80356001600160401b0381168114613c9057600080fd5b600060208284031215613cbe57600080fd5b813561389d8161486b565b600060208284031215613cdb57600080fd5b815161389d8161486b565b60008060408385031215613cf957600080fd5b8235613d048161486b565b91506020830135613d148161486b565b809150509250929050565b600080600060608486031215613d3457600080fd5b8335613d3f8161486b565b92506020840135613d4f8161486b565b929592945050506040919091013590565b60008060408385031215613d7357600080fd5b8235613d7e8161486b565b946020939093013593505050565b60008060208385031215613d9f57600080fd5b82356001600160401b03811115613db557600080fd5b613dc185828601613ad2565b90969095509350505050565b600080600060608486031215613de257600080fd5b83356001600160401b0380821115613df957600080fd5b613e0587838801613b1d565b94506020860135915080821115613e1b57600080fd5b613e2787838801613b1d565b93506040860135915080821115613e3d57600080fd5b50613e4a86828701613b1d565b9150509250925092565b600080600060e08486031215613e6957600080fd5b83356001600160401b03811115613e7f57600080fd5b8401601f81018613613e9057600080fd5b80356020613ea0613b3e83614723565b8083825282820191508285018a848660051b8801011115613ec057600080fd5b600095505b84861015613eea57613ed681613c95565b835260019590950194918301918301613ec5565b509650508601359350613f04915086905060408601613bf1565b90509250925092565b600060208284031215613f1f57600080fd5b815161389d81614880565b600060208284031215613f3c57600080fd5b5035919050565b60008060008060408587031215613f5957600080fd5b84356001600160401b0380821115613f7057600080fd5b613f7c88838901613b98565b90965094506020870135915080821115613f9557600080fd5b50613fa287828801613ad2565b95989497509550505050565b600080600080600080600080610120898b031215613fcb57600080fd5b88356001600160401b0380821115613fe257600080fd5b613fee8c838d01613b98565b909a50985060208b013591508082111561400757600080fd5b6140138c838d01613ad2565b909850965060408b013591508082111561402c57600080fd5b506140398b828c01613b98565b909550935050606089013591506140538a60808b01613bd9565b90509295985092959890939650565b600080600080600060e0868803121561407a57600080fd5b85356001600160401b038082111561409157600080fd5b61409d89838a01613b98565b909750955060208801359150808211156140b657600080fd5b506140c388828901613ad2565b90945092506140d790508760408801613bd9565b90509295509295909350565b6000602082840312156140f557600080fd5b5051919050565b6000806040838503121561410f57600080fd5b50508035926020909101359150565b60008060008060008060c0878903121561413757600080fd5b505084359660208601359650604086013595606081013595506080810135945060a0013592509050565b8183526000602080850194508260005b8581101561419d576001600160401b0361418a83613c95565b1687529582019590820190600101614171565b509495945050505050565b81835281816020850137506000828201602090810191909152601f909101601f19169091010190565b600081518084526141e98160208601602086016147b6565b601f01601f19169290920160200192915050565b63ffffffff61420b82613c7c565b16825261421a60208201613c95565b6001600160401b0380821660208501528061423760408501613c95565b1660408501525050606081013561424d81614880565b15156060830152608090810135910152565b8183823760009101908152919050565b600082516142818184602087016147b6565b9190910192915050565b6001600160a01b03851681526101006020808301829052855191830182905260009161012084019187810191845b818110156142de5783516001600160401b0316855293820193928201926001016142b9565b505082935086604086015263ffffffff865116606086015280860151925050506001600160401b0380821660808501528060408601511660a085015250506060830151151560c0830152608083015160e083015295945050505050565b6020808252825182820181905260009190848201906040850190845b8181101561437c5783516001600160a01b031683529284019291840191600101614357565b50909695505050505050565b6000604082016040835280865480835260608501915087600052602092508260002060005b828110156143d25781546001600160a01b0316845292840192600191820191016143ad565b505050838103828501528481528590820160005b868110156144145782356143f98161486b565b6001600160a01b0316825291830191908301906001016143e6565b50979650505050505050565b6040815260006144346040830186886141a8565b82810360208401526139c1818587614161565b600061012080835261445c8184018b8d6141a8565b9050828103602084015261447181898b614161565b905082810360408401526144868187896141a8565b91505083606083015261449c60808301846141fd565b9998505050505050505050565b60e0815260006144bd60e0830187896141a8565b82810360208401526144d0818688614161565b9150506144e060408301846141fd565b9695505050505050565b6080815260006144fe60808301888a6141a8565b828103602084015261451081886141d1565b905082810360408401526145258186886141a8565b915050826060830152979650505050505050565b60608152600061454d6060830186886141a8565b84602084015282810360408401526139c181856141d1565b602081016004831061458757634e487b7160e01b600052602160045260246000fd5b91905290565b60208152600061389d60208301846141d1565b60208082526017908201527f43616c6c6572206973206e6f7420746865205661756c74000000000000000000604082015260600190565b6020808252601a908201527f43616c6c6572206973206e6f742074686520476f7665726e6f72000000000000604082015260600190565b60208082526010908201526f14185d5cd8589b194e881c185d5cd95960821b604082015260600190565b6020808252601d908201527f43616c6c6572206973206e6f7420746865205265676973747261746f72000000604082015260600190565b6020808252600e908201526d1499595b9d1c985b9d0818d85b1b60921b604082015260600190565b6000808335601e198436030181126146ae57600080fd5b8301803591506001600160401b038211156146c857600080fd5b602001915036819003821315613b1657600080fd5b60008235605e1983360301811261428157600080fd5b604051601f8201601f191681016001600160401b038111828210171561471b5761471b614855565b604052919050565b60006001600160401b0382111561473c5761473c614855565b5060051b60200190565b60008219821115614759576147596147fd565b500190565b60008261477b57634e487b7160e01b600052601260045260246000fd5b500490565b600081600019048311821515161561479a5761479a6147fd565b500290565b6000828210156147b1576147b16147fd565b500390565b60005b838110156147d15781810151838201526020016147b9565b83811115610da55750506000910152565b60006000198214156147f6576147f66147fd565b5060010190565b634e487b7160e01b600052601160045260246000fd5b634e487b7160e01b600052602160045260246000fd5b634e487b7160e01b600052603160045260246000fd5b634e487b7160e01b600052603260045260246000fd5b634e487b7160e01b600052604160045260246000fd5b6001600160a01b038116811461283657600080fd5b801515811461283657600080fdfe53bf423e48ed90e97d02ab0ebab13b2a235a6bfbe9c321847d5c175333ac45357bea13895fa79d2831e0a9e28edede30099005a50d652d8957cf8a607ee6ca4aa26469706673582212204292636866460b0a0ebdd872cc7401407e5a3bdd212181fd3cea747a97b6379e64736f6c634300080700337bea13895fa79d2831e0a9e28edede30099005a50d652d8957cf8a607ee6ca4a",
  "libraries": {},
  "devdoc": {
    "author": "Origin Protocol Inc",
    "kind": "dev",
    "methods": {
      "checkBalance(address)": {
        "params": {
          "_asset": "Address of weth asset"
        },
        "returns": {
          "balance": "   Total value of (W)ETH"
        }
      },
      "constructor": {
        "params": {
          "_baseConfig": "Base strategy config with platformAddress (ERC-4626 Vault contract), eg sfrxETH or sDAI, and vaultAddress (OToken Vault contract), eg VaultProxy or OETHVaultProxy",
          "_beaconChainDepositContract": "Address of the beacon chain deposit contract",
          "_feeAccumulator": "Address of the fee accumulator receiving execution layer validator rewards",
          "_ssvNetwork": "Address of the SSV Network contract",
          "_ssvToken": "Address of the Erc20 SSV Token contract",
          "_wethAddress": "Address of the Erc20 WETH Token contract"
        }
      },
      "deposit(address,uint256)": {
        "params": {
          "_amount": "Amount of assets that were transferred to the strategy by the vault.",
          "_asset": "Address of asset to deposit. Has to be WETH."
        }
      },
      "depositSSV(uint64[],uint256,(uint32,uint64,uint64,bool,uint256))": {
        "details": "A SSV cluster is defined by the SSVOwnerAddress and the set of operatorIds. uses \"onlyStrategist\" modifier so continuous front-running can't DOS our maintenance service that tries to top up SSV tokens.",
        "params": {
          "cluster": "The SSV cluster details that must be derived from emitted events from the SSVNetwork contract."
        }
      },
      "doAccounting()": {
        "details": "This function could in theory be permission-less but lets allow only the Registrator (Defender Action) to call it for now."
      },
      "getRewardTokenAddresses()": {
        "returns": {
          "_0": "address[] the reward token addresses."
        }
      },
      "initialize(address[],address[],address[])": {
        "params": {
          "_assets": "Addresses of initial supported assets",
          "_pTokens": "Platform Token corresponding addresses",
          "_rewardTokenAddresses": "Address of reward token for platform"
        }
      },
      "manuallyFixAccounting(uint256,uint256,uint256,uint256,uint256,uint256)": {
        "details": "allow the accounting governor to fix the accounting of this strategy and unpause",
        "params": {
          "_activeDepositedValidators": "the override value of activeDepositedValidators",
          "_consensusRewards": "the override value for consensusRewards",
          "_ethThresholdCheck": "maximum allowed ETH balance on the contract for the function to run",
          "_ethToWeth": "the amount of ETH to be converted to WETH",
          "_wethThresholdCheck": "maximum allowed WETH balance on the contract for the function to run        the above 2 checks are done so transaction doesn't get front run and cause        unexpected behaviour",
          "_wethToBeSentToVault": "the amount of WETH to be sent to the Vault"
        }
      },
      "paused()": {
        "details": "Returns true if the contract is paused, and false otherwise."
      },
      "removePToken(uint256)": {
        "params": {
          "_assetIndex": "Index of the asset to be removed"
        }
      },
      "setHarvesterAddress(address)": {
        "params": {
          "_harvesterAddress": "Address of the harvester contract."
        }
      },
      "setPTokenAddress(address,address)": {
        "params": {
          "_asset": "Address for the asset",
          "_pToken": "Address for the corresponding platform token"
        }
      },
      "setRewardTokenAddresses(address[])": {
        "params": {
          "_rewardTokenAddresses": "Array of reward token addresses"
        }
      },
      "stakeEth((bytes,bytes,bytes32)[])": {
        "params": {
          "validators": "A list of validator data needed to stake. The `ValidatorStakeData` struct contains the pubkey, signature and depositDataRoot. Only the registrator can call this function."
        }
      },
      "supportsAsset(address)": {
        "params": {
          "_asset": "The address of the asset token."
        }
      },
      "transferGovernance(address)": {
        "params": {
          "_newGovernor": "Address of the new Governor"
        }
      },
      "transferToken(address,uint256)": {
        "params": {
          "_amount": "Amount of the asset to transfer",
          "_asset": "Address for the asset"
        }
      },
      "withdraw(address,address,uint256)": {
        "params": {
          "_amount": "Amount of WETH to withdraw",
          "_asset": "WETH to withdraw",
          "_recipient": "Address to receive withdrawn assets"
        }
      }
    },
    "stateVariables": {
      "FEE_ACCUMULATOR_ADDRESS": {
        "details": "this address will receive Execution layer rewards - These are rewards earned for executing transactions on the Ethereum network as part of block proposals. They include priority fees (fees paid by users for their transactions to be included) and MEV rewards (rewards for arranging transactions in a way that benefits the validator)."
      }
    },
    "title": "Native Staking SSV Strategy",
    "version": 1
  },
  "userdoc": {
    "kind": "user",
    "methods": {
      "BEACON_CHAIN_DEPOSIT_CONTRACT()": {
        "notice": "The address of the beacon chain deposit contract"
      },
      "FEE_ACCUMULATOR_ADDRESS()": {
        "notice": "Fee collector address"
      },
      "MAX_STAKE()": {
        "notice": "The maximum amount of ETH that can be staked by a validator"
      },
      "SSV_NETWORK_ADDRESS()": {
        "notice": "The address of the SSV Network contract used to interface with"
      },
      "SSV_TOKEN_ADDRESS()": {
        "notice": "SSV ERC20 token that serves as a payment for operating SSV validators"
      },
      "VAULT_ADDRESS()": {
        "notice": "Address of the OETH Vault proxy contract"
      },
      "WETH_TOKEN_ADDRESS()": {
        "notice": "The address of the Wrapped ETH (WETH) token contract"
      },
      "accountingGovernor()": {
        "notice": "Governor that can manually correct the accounting"
      },
      "assetToPToken(address)": {
        "notice": "asset => pToken (Platform Specific Token Address)"
      },
      "checkBalance(address)": {
        "notice": "Returns the total value of (W)ETH that is staked to the validators and WETH deposits that are still to be staked. This does not include ETH from consensus rewards sitting in this strategy or ETH from MEV rewards in the FeeAccumulator. These rewards are harvested and sent to the Dripper so will eventually be sent to the Vault as WETH."
      },
      "claimGovernance()": {
        "notice": "Claim Governance of the contract to a new account (`newGovernor`). Can only be called by the new Governor."
      },
      "collectRewardTokens()": {
        "notice": "Collect accumulated reward token and send to Vault."
      },
      "consensusRewards()": {
        "notice": "Keeps track of the total consensus rewards swept from the beacon chain"
      },
      "deposit(address,uint256)": {
        "notice": "Unlike other strategies, this does not deposit assets into the underlying platform. It just checks the asset is WETH and emits the Deposit event. To deposit WETH into validators `registerSsvValidator` and `stakeEth` must be used. Will NOT revert if the strategy is paused from an accounting failure."
      },
      "depositAll()": {
        "notice": "Unlike other strategies, this does not deposit assets into the underlying platform. It just emits the Deposit event. To deposit WETH into validators `registerSsvValidator` and `stakeEth` must be used. Will NOT revert if the strategy is paused from an accounting failure."
      },
      "depositSSV(uint64[],uint256,(uint32,uint64,uint64,bool,uint256))": {
        "notice": "Deposits more SSV Tokens to the SSV Network contract which is used to pay the SSV Operators."
      },
      "doAccounting()": {
        "notice": "This notion page offers a good explanation of how the accounting functions https://www.notion.so/originprotocol/Limited-simplified-native-staking-accounting-67a217c8420d40678eb943b9da0ee77d In short, after dividing by 32, if the ETH remaining on the contract falls between 0 and fuseIntervalStart, the accounting function will treat that ETH as Beacon chain consensus rewards. On the contrary, if after dividing by 32, the ETH remaining on the contract falls between fuseIntervalEnd and 32, the accounting function will treat that as a validator slashing.Perform the accounting attributing beacon chain ETH to either full or partial withdrawals. Returns true when accounting is valid and fuse isn't \"blown\". Returns false when fuse is blown."
      },
      "exitSsvValidator(bytes,uint64[])": {
        "notice": "Exit a validator from the Beacon chain. The staked ETH will eventually swept to this native staking strategy. Only the registrator can call this function."
      },
      "fuseIntervalEnd()": {
        "notice": "end of fuse interval"
      },
      "fuseIntervalStart()": {
        "notice": "start of fuse interval"
      },
      "getRewardTokenAddresses()": {
        "notice": "Get the reward token addresses."
      },
      "governor()": {
        "notice": "Returns the address of the current Governor."
      },
      "harvesterAddress()": {
        "notice": "Address of the Harvester contract allowed to collect reward tokens"
      },
      "initialize(address[],address[],address[])": {
        "notice": "initialize function, to set up initial internal state"
      },
      "isGovernor()": {
        "notice": "Returns true if the caller is the current Governor."
      },
      "platformAddress()": {
        "notice": "Address of the underlying platform"
      },
      "registerSsvValidator(bytes,uint64[],bytes,uint256,(uint32,uint64,uint64,bool,uint256))": {
        "notice": "Registers a new validator in the SSV Cluster. Only the registrator can call this function."
      },
      "removePToken(uint256)": {
        "notice": "Remove a supported asset by passing its index.      This method can only be called by the system Governor"
      },
      "removeSsvValidator(bytes,uint64[],(uint32,uint64,uint64,bool,uint256))": {
        "notice": "Remove a validator from the SSV Cluster. Make sure `exitSsvValidator` is called before and the validate has exited the Beacon chain. If removed before the validator has exited the beacon chain will result in the validator being slashed. Only the registrator can call this function."
      },
      "rewardTokenAddresses(uint256)": {
        "notice": "Address of the reward tokens. eg CRV, BAL, CVX, AURA"
      },
      "safeApproveAllTokens()": {
        "notice": "Approves the SSV Network contract to transfer SSV tokens for deposits"
      },
      "setFuseInterval(uint256,uint256)": {
        "notice": "set fuse interval values"
      },
      "setHarvesterAddress(address)": {
        "notice": "Set the Harvester contract that can collect rewards."
      },
      "setPTokenAddress(address,address)": {
        "notice": "Provide support for asset by passing its pToken address.      This method can only be called by the system Governor"
      },
      "setRegistrator(address)": {
        "notice": "Set the address of the registrator which can register, exit and remove validators"
      },
      "setRewardTokenAddresses(address[])": {
        "notice": "Set the reward token addresses. Any old addresses will be overwritten."
      },
      "stakeEth((bytes,bytes,bytes32)[])": {
        "notice": "Stakes WETH to the node validators"
      },
      "supportsAsset(address)": {
        "notice": "Returns bool indicating whether asset is supported by strategy."
      },
      "transferGovernance(address)": {
        "notice": "Transfers Governance of the contract to a new account (`newGovernor`). Can only be called by the current Governor. Must be claimed for this to complete"
      },
      "transferToken(address,uint256)": {
        "notice": "Transfer token to governor. Intended for recovering tokens stuck in      strategy contracts, i.e. mistaken sends."
      },
      "validatorRegistrator()": {
        "notice": "Address of the registrator - allowed to register, exit and remove validators"
      },
      "validatorsStates(bytes32)": {
        "notice": "State of the validators keccak256(pubKey) => state"
      },
      "vaultAddress()": {
        "notice": "Address of the OToken vault"
      },
      "withdraw(address,address,uint256)": {
        "notice": "Withdraw WETH from this contract. Used only if some WETH for is lingering on the contract. That can happen when:   - the deposit was not a multiple of 32 WETH   - someone sent WETH directly to this contract Will NOT revert if the strategy is paused from an accounting failure."
      },
      "withdrawAll()": {
        "notice": "transfer all WETH deposits back to the vault. This does not withdraw from the validators. That has to be done separately with the `exitSsvValidator` and `removeSsvValidator` operations. This does not withdraw any execution rewards from the FeeAccumulator or consensus rewards in this strategy. Any ETH in this strategy that was swept from a full validator withdrawal will not be withdrawn. ETH from full validator withdrawals is sent to the Vault using `doAccounting`. Will NOT revert if the strategy is paused from an accounting failure."
      }
    },
    "notice": "Strategy to deploy funds into DVT validators powered by the SSV Network",
    "version": 1
  },
  "storageLayout": {
    "storage": [
      {
        "astId": 5232,
        "contract": "contracts/strategies/NativeStaking/NativeStakingSSVStrategy.sol:NativeStakingSSVStrategy",
        "label": "initialized",
        "offset": 0,
        "slot": "0",
        "type": "t_bool"
      },
      {
        "astId": 5235,
        "contract": "contracts/strategies/NativeStaking/NativeStakingSSVStrategy.sol:NativeStakingSSVStrategy",
        "label": "initializing",
        "offset": 1,
        "slot": "0",
        "type": "t_bool"
      },
      {
        "astId": 5275,
        "contract": "contracts/strategies/NativeStaking/NativeStakingSSVStrategy.sol:NativeStakingSSVStrategy",
        "label": "______gap",
        "offset": 0,
        "slot": "1",
        "type": "t_array(t_uint256)50_storage"
      },
      {
        "astId": 17,
        "contract": "contracts/strategies/NativeStaking/NativeStakingSSVStrategy.sol:NativeStakingSSVStrategy",
        "label": "_paused",
        "offset": 0,
        "slot": "51",
        "type": "t_bool"
      },
      {
        "astId": 3497,
        "contract": "contracts/strategies/NativeStaking/NativeStakingSSVStrategy.sol:NativeStakingSSVStrategy",
        "label": "validatorRegistrator",
        "offset": 1,
        "slot": "51",
        "type": "t_address"
      },
      {
        "astId": 3500,
        "contract": "contracts/strategies/NativeStaking/NativeStakingSSVStrategy.sol:NativeStakingSSVStrategy",
        "label": "activeDepositedValidators",
        "offset": 0,
        "slot": "52",
        "type": "t_uint256"
      },
      {
        "astId": 3506,
        "contract": "contracts/strategies/NativeStaking/NativeStakingSSVStrategy.sol:NativeStakingSSVStrategy",
        "label": "validatorsStates",
        "offset": 0,
        "slot": "53",
        "type": "t_mapping(t_bytes32,t_enum(VALIDATOR_STATE)3515)"
      },
      {
        "astId": 3510,
        "contract": "contracts/strategies/NativeStaking/NativeStakingSSVStrategy.sol:NativeStakingSSVStrategy",
        "label": "__gap",
        "offset": 0,
        "slot": "54",
        "type": "t_array(t_uint256)50_storage"
      },
      {
        "astId": 3042,
        "contract": "contracts/strategies/NativeStaking/NativeStakingSSVStrategy.sol:NativeStakingSSVStrategy",
        "label": "consensusRewards",
        "offset": 0,
        "slot": "104",
        "type": "t_uint256"
      },
      {
        "astId": 3046,
        "contract": "contracts/strategies/NativeStaking/NativeStakingSSVStrategy.sol:NativeStakingSSVStrategy",
        "label": "fuseIntervalStart",
        "offset": 0,
        "slot": "105",
        "type": "t_uint256"
      },
      {
        "astId": 3050,
        "contract": "contracts/strategies/NativeStaking/NativeStakingSSVStrategy.sol:NativeStakingSSVStrategy",
        "label": "fuseIntervalEnd",
        "offset": 0,
        "slot": "106",
        "type": "t_uint256"
      },
      {
        "astId": 3053,
        "contract": "contracts/strategies/NativeStaking/NativeStakingSSVStrategy.sol:NativeStakingSSVStrategy",
        "label": "accountingGovernor",
        "offset": 0,
        "slot": "107",
        "type": "t_address"
      },
      {
        "astId": 3057,
        "contract": "contracts/strategies/NativeStaking/NativeStakingSSVStrategy.sol:NativeStakingSSVStrategy",
        "label": "__gap",
        "offset": 0,
        "slot": "108",
        "type": "t_array(t_uint256)50_storage"
      },
      {
        "astId": 5355,
        "contract": "contracts/strategies/NativeStaking/NativeStakingSSVStrategy.sol:NativeStakingSSVStrategy",
        "label": "_deprecated_platformAddress",
        "offset": 0,
        "slot": "158",
        "type": "t_address"
      },
      {
        "astId": 5358,
        "contract": "contracts/strategies/NativeStaking/NativeStakingSSVStrategy.sol:NativeStakingSSVStrategy",
        "label": "_deprecated_vaultAddress",
        "offset": 0,
        "slot": "159",
        "type": "t_address"
      },
      {
        "astId": 5363,
        "contract": "contracts/strategies/NativeStaking/NativeStakingSSVStrategy.sol:NativeStakingSSVStrategy",
        "label": "assetToPToken",
        "offset": 0,
        "slot": "160",
        "type": "t_mapping(t_address,t_address)"
      },
      {
        "astId": 5367,
        "contract": "contracts/strategies/NativeStaking/NativeStakingSSVStrategy.sol:NativeStakingSSVStrategy",
        "label": "assetsMapped",
        "offset": 0,
        "slot": "161",
        "type": "t_array(t_address)dyn_storage"
      },
      {
        "astId": 5369,
        "contract": "contracts/strategies/NativeStaking/NativeStakingSSVStrategy.sol:NativeStakingSSVStrategy",
        "label": "_deprecated_rewardTokenAddress",
        "offset": 0,
        "slot": "162",
        "type": "t_address"
      },
      {
        "astId": 5371,
        "contract": "contracts/strategies/NativeStaking/NativeStakingSSVStrategy.sol:NativeStakingSSVStrategy",
        "label": "_deprecated_rewardLiquidationThreshold",
        "offset": 0,
        "slot": "163",
        "type": "t_uint256"
      },
      {
        "astId": 5374,
        "contract": "contracts/strategies/NativeStaking/NativeStakingSSVStrategy.sol:NativeStakingSSVStrategy",
        "label": "harvesterAddress",
        "offset": 0,
        "slot": "164",
        "type": "t_address"
      },
      {
        "astId": 5378,
        "contract": "contracts/strategies/NativeStaking/NativeStakingSSVStrategy.sol:NativeStakingSSVStrategy",
        "label": "rewardTokenAddresses",
        "offset": 0,
        "slot": "165",
        "type": "t_array(t_address)dyn_storage"
      },
      {
        "astId": 5382,
        "contract": "contracts/strategies/NativeStaking/NativeStakingSSVStrategy.sol:NativeStakingSSVStrategy",
        "label": "_reserved",
        "offset": 0,
        "slot": "166",
        "type": "t_array(t_int256)98_storage"
      },
      {
        "astId": 2613,
        "contract": "contracts/strategies/NativeStaking/NativeStakingSSVStrategy.sol:NativeStakingSSVStrategy",
        "label": "__gap",
        "offset": 0,
        "slot": "264",
        "type": "t_array(t_uint256)50_storage"
      }
    ],
    "types": {
      "t_address": {
        "encoding": "inplace",
        "label": "address",
        "numberOfBytes": "20"
      },
      "t_array(t_address)dyn_storage": {
        "base": "t_address",
        "encoding": "dynamic_array",
        "label": "address[]",
        "numberOfBytes": "32"
      },
      "t_array(t_int256)98_storage": {
        "base": "t_int256",
        "encoding": "inplace",
        "label": "int256[98]",
        "numberOfBytes": "3136"
      },
      "t_array(t_uint256)50_storage": {
        "base": "t_uint256",
        "encoding": "inplace",
        "label": "uint256[50]",
        "numberOfBytes": "1600"
      },
      "t_bool": {
        "encoding": "inplace",
        "label": "bool",
        "numberOfBytes": "1"
      },
      "t_bytes32": {
        "encoding": "inplace",
        "label": "bytes32",
        "numberOfBytes": "32"
      },
      "t_enum(VALIDATOR_STATE)3515": {
        "encoding": "inplace",
        "label": "enum ValidatorRegistrator.VALIDATOR_STATE",
        "numberOfBytes": "1"
      },
      "t_int256": {
        "encoding": "inplace",
        "label": "int256",
        "numberOfBytes": "32"
      },
      "t_mapping(t_address,t_address)": {
        "encoding": "mapping",
        "key": "t_address",
        "label": "mapping(address => address)",
        "numberOfBytes": "32",
        "value": "t_address"
      },
      "t_mapping(t_bytes32,t_enum(VALIDATOR_STATE)3515)": {
        "encoding": "mapping",
        "key": "t_bytes32",
        "label": "mapping(bytes32 => enum ValidatorRegistrator.VALIDATOR_STATE)",
        "numberOfBytes": "32",
        "value": "t_enum(VALIDATOR_STATE)3515"
      },
      "t_uint256": {
        "encoding": "inplace",
        "label": "uint256",
        "numberOfBytes": "32"
      }
    }
  }
}