{
  "address": "0xaf3fCA5376354c8a51dc3cB02D586530Cc61d164",
  "abi": [
    {
      "inputs": [
        {
          "components": [
            {
              "internalType": "address",
              "name": "platformAddress",
              "type": "address"
            },
            {
              "internalType": "address",
              "name": "vaultAddress",
              "type": "address"
            }
          ],
          "internalType": "struct InitializableAbstractStrategy.BaseStrategyConfig",
          "name": "_baseConfig",
          "type": "tuple"
        },
        {
          "internalType": "address",
          "name": "_wethAddress",
          "type": "address"
        },
        {
          "internalType": "address",
          "name": "_ssvToken",
          "type": "address"
        },
        {
          "internalType": "address",
          "name": "_ssvNetwork",
          "type": "address"
        },
        {
          "internalType": "address",
          "name": "_feeAccumulator",
          "type": "address"
        },
        {
          "internalType": "address",
          "name": "_beaconChainDepositContract",
          "type": "address"
        }
      ],
      "stateMutability": "nonpayable",
      "type": "constructor"
    },
    {
      "anonymous": false,
      "inputs": [
        {
          "indexed": false,
          "internalType": "uint256",
          "name": "amount",
          "type": "uint256"
        }
      ],
      "name": "AccountingConsensusRewards",
      "type": "event"
    },
    {
      "anonymous": false,
      "inputs": [
        {
          "indexed": false,
          "internalType": "uint256",
          "name": "noOfValidators",
          "type": "uint256"
        },
        {
          "indexed": false,
          "internalType": "uint256",
          "name": "remainingValidators",
          "type": "uint256"
        },
        {
          "indexed": false,
          "internalType": "uint256",
          "name": "wethSentToVault",
          "type": "uint256"
        }
      ],
      "name": "AccountingFullyWithdrawnValidator",
      "type": "event"
    },
    {
      "anonymous": false,
      "inputs": [
        {
          "indexed": false,
          "internalType": "int256",
          "name": "validatorsDelta",
          "type": "int256"
        },
        {
          "indexed": false,
          "internalType": "int256",
          "name": "consensusRewardsDelta",
          "type": "int256"
        },
        {
          "indexed": false,
          "internalType": "uint256",
          "name": "wethToVault",
          "type": "uint256"
        }
      ],
      "name": "AccountingManuallyFixed",
      "type": "event"
    },
    {
      "anonymous": false,
      "inputs": [
        {
          "indexed": false,
          "internalType": "uint256",
          "name": "remainingValidators",
          "type": "uint256"
        },
        {
          "indexed": false,
          "internalType": "uint256",
          "name": "wethSentToVault",
          "type": "uint256"
        }
      ],
      "name": "AccountingValidatorSlashed",
      "type": "event"
    },
    {
      "anonymous": false,
      "inputs": [
        {
          "indexed": true,
          "internalType": "address",
          "name": "_asset",
          "type": "address"
        },
        {
          "indexed": false,
          "internalType": "address",
          "name": "_pToken",
          "type": "address"
        },
        {
          "indexed": false,
          "internalType": "uint256",
          "name": "_amount",
          "type": "uint256"
        }
      ],
      "name": "Deposit",
      "type": "event"
    },
    {
      "anonymous": false,
      "inputs": [
        {
          "indexed": false,
          "internalType": "bytes",
          "name": "pubkey",
          "type": "bytes"
        },
        {
          "indexed": false,
          "internalType": "uint256",
          "name": "amount",
          "type": "uint256"
        },
        {
          "indexed": false,
          "internalType": "bytes",
          "name": "withdrawal_credentials",
          "type": "bytes"
        }
      ],
      "name": "ETHStaked",
      "type": "event"
    },
    {
      "anonymous": false,
      "inputs": [
        {
          "indexed": false,
          "internalType": "uint256",
          "name": "start",
          "type": "uint256"
        },
        {
          "indexed": false,
          "internalType": "uint256",
          "name": "end",
          "type": "uint256"
        }
      ],
      "name": "FuseIntervalUpdated",
      "type": "event"
    },
    {
      "anonymous": false,
      "inputs": [
        {
          "indexed": true,
          "internalType": "address",
          "name": "previousGovernor",
          "type": "address"
        },
        {
          "indexed": true,
          "internalType": "address",
          "name": "newGovernor",
          "type": "address"
        }
      ],
      "name": "GovernorshipTransferred",
      "type": "event"
    },
    {
      "anonymous": false,
      "inputs": [
        {
          "indexed": false,
          "internalType": "address",
          "name": "_oldHarvesterAddress",
          "type": "address"
        },
        {
          "indexed": false,
          "internalType": "address",
          "name": "_newHarvesterAddress",
          "type": "address"
        }
      ],
      "name": "HarvesterAddressesUpdated",
      "type": "event"
    },
    {
      "anonymous": false,
      "inputs": [
        {
          "indexed": true,
          "internalType": "address",
          "name": "_asset",
          "type": "address"
        },
        {
          "indexed": false,
          "internalType": "address",
          "name": "_pToken",
          "type": "address"
        }
      ],
      "name": "PTokenAdded",
      "type": "event"
    },
    {
      "anonymous": false,
      "inputs": [
        {
          "indexed": true,
          "internalType": "address",
          "name": "_asset",
          "type": "address"
        },
        {
          "indexed": false,
          "internalType": "address",
          "name": "_pToken",
          "type": "address"
        }
      ],
      "name": "PTokenRemoved",
      "type": "event"
    },
    {
      "anonymous": false,
      "inputs": [
        {
          "indexed": false,
          "internalType": "address",
          "name": "account",
          "type": "address"
        }
      ],
      "name": "Paused",
      "type": "event"
    },
    {
      "anonymous": false,
      "inputs": [
        {
          "indexed": true,
          "internalType": "address",
          "name": "previousGovernor",
          "type": "address"
        },
        {
          "indexed": true,
          "internalType": "address",
          "name": "newGovernor",
          "type": "address"
        }
      ],
      "name": "PendingGovernorshipTransfer",
      "type": "event"
    },
    {
      "anonymous": false,
      "inputs": [
        {
          "indexed": false,
          "internalType": "address",
          "name": "newAddress",
          "type": "address"
        }
      ],
      "name": "RegistratorChanged",
      "type": "event"
    },
    {
      "anonymous": false,
      "inputs": [
        {
          "indexed": false,
          "internalType": "address[]",
          "name": "_oldAddresses",
          "type": "address[]"
        },
        {
          "indexed": false,
          "internalType": "address[]",
          "name": "_newAddresses",
          "type": "address[]"
        }
      ],
      "name": "RewardTokenAddressesUpdated",
      "type": "event"
    },
    {
      "anonymous": false,
      "inputs": [
        {
          "indexed": false,
          "internalType": "address",
          "name": "recipient",
          "type": "address"
        },
        {
          "indexed": false,
          "internalType": "address",
          "name": "rewardToken",
          "type": "address"
        },
        {
          "indexed": false,
          "internalType": "uint256",
          "name": "amount",
          "type": "uint256"
        }
      ],
      "name": "RewardTokenCollected",
      "type": "event"
    },
    {
      "anonymous": false,
      "inputs": [
        {
          "indexed": false,
          "internalType": "bytes",
          "name": "pubkey",
          "type": "bytes"
        },
        {
          "indexed": false,
          "internalType": "uint64[]",
          "name": "operatorIds",
          "type": "uint64[]"
        }
      ],
      "name": "SSVValidatorExitCompleted",
      "type": "event"
    },
    {
      "anonymous": false,
      "inputs": [
        {
          "indexed": false,
          "internalType": "bytes",
          "name": "pubkey",
          "type": "bytes"
        },
        {
          "indexed": false,
          "internalType": "uint64[]",
          "name": "operatorIds",
          "type": "uint64[]"
        }
      ],
      "name": "SSVValidatorExitInitiated",
      "type": "event"
    },
    {
      "anonymous": false,
      "inputs": [
        {
          "indexed": false,
          "internalType": "bytes",
          "name": "pubkey",
          "type": "bytes"
        },
        {
          "indexed": false,
          "internalType": "uint64[]",
          "name": "operatorIds",
          "type": "uint64[]"
        }
      ],
      "name": "SSVValidatorRegistered",
      "type": "event"
    },
    {
      "anonymous": false,
      "inputs": [
        {
          "indexed": false,
          "internalType": "address",
          "name": "account",
          "type": "address"
        }
      ],
      "name": "Unpaused",
      "type": "event"
    },
    {
      "anonymous": false,
      "inputs": [
        {
          "indexed": true,
          "internalType": "address",
          "name": "_asset",
          "type": "address"
        },
        {
          "indexed": false,
          "internalType": "address",
          "name": "_pToken",
          "type": "address"
        },
        {
          "indexed": false,
          "internalType": "uint256",
          "name": "_amount",
          "type": "uint256"
        }
      ],
      "name": "Withdrawal",
      "type": "event"
    },
    {
      "inputs": [],
      "name": "BEACON_CHAIN_DEPOSIT_CONTRACT",
      "outputs": [
        {
          "internalType": "address",
          "name": "",
          "type": "address"
        }
      ],
      "stateMutability": "view",
      "type": "function"
    },
    {
      "inputs": [],
      "name": "FEE_ACCUMULATOR_ADDRESS",
      "outputs": [
        {
          "internalType": "address",
          "name": "",
          "type": "address"
        }
      ],
      "stateMutability": "view",
      "type": "function"
    },
    {
      "inputs": [],
      "name": "MAX_STAKE",
      "outputs": [
        {
          "internalType": "uint256",
          "name": "",
          "type": "uint256"
        }
      ],
      "stateMutability": "view",
      "type": "function"
    },
    {
      "inputs": [],
      "name": "SSV_NETWORK_ADDRESS",
      "outputs": [
        {
          "internalType": "address",
          "name": "",
          "type": "address"
        }
      ],
      "stateMutability": "view",
      "type": "function"
    },
    {
      "inputs": [],
      "name": "SSV_TOKEN_ADDRESS",
      "outputs": [
        {
          "internalType": "address",
          "name": "",
          "type": "address"
        }
      ],
      "stateMutability": "view",
      "type": "function"
    },
    {
      "inputs": [],
      "name": "VAULT_ADDRESS",
      "outputs": [
        {
          "internalType": "address",
          "name": "",
          "type": "address"
        }
      ],
      "stateMutability": "view",
      "type": "function"
    },
    {
      "inputs": [],
      "name": "WETH_TOKEN_ADDRESS",
      "outputs": [
        {
          "internalType": "address",
          "name": "",
          "type": "address"
        }
      ],
      "stateMutability": "view",
      "type": "function"
    },
    {
      "inputs": [],
      "name": "activeDepositedValidators",
      "outputs": [
        {
          "internalType": "uint256",
          "name": "",
          "type": "uint256"
        }
      ],
      "stateMutability": "view",
      "type": "function"
    },
    {
      "inputs": [
        {
          "internalType": "address",
          "name": "",
          "type": "address"
        }
      ],
      "name": "assetToPToken",
      "outputs": [
        {
          "internalType": "address",
          "name": "",
          "type": "address"
        }
      ],
      "stateMutability": "view",
      "type": "function"
    },
    {
      "inputs": [
        {
          "internalType": "address",
          "name": "_asset",
          "type": "address"
        }
      ],
      "name": "checkBalance",
      "outputs": [
        {
          "internalType": "uint256",
          "name": "balance",
          "type": "uint256"
        }
      ],
      "stateMutability": "view",
      "type": "function"
    },
    {
      "inputs": [],
      "name": "claimGovernance",
      "outputs": [],
      "stateMutability": "nonpayable",
      "type": "function"
    },
    {
      "inputs": [],
      "name": "collectRewardTokens",
      "outputs": [],
      "stateMutability": "nonpayable",
      "type": "function"
    },
    {
      "inputs": [],
      "name": "consensusRewards",
      "outputs": [
        {
          "internalType": "uint256",
          "name": "",
          "type": "uint256"
        }
      ],
      "stateMutability": "view",
      "type": "function"
    },
    {
      "inputs": [
        {
          "internalType": "address",
          "name": "_asset",
          "type": "address"
        },
        {
          "internalType": "uint256",
          "name": "_amount",
          "type": "uint256"
        }
      ],
      "name": "deposit",
      "outputs": [],
      "stateMutability": "nonpayable",
      "type": "function"
    },
    {
      "inputs": [],
      "name": "depositAll",
      "outputs": [],
      "stateMutability": "nonpayable",
      "type": "function"
    },
    {
      "inputs": [
        {
          "internalType": "uint64[]",
          "name": "operatorIds",
          "type": "uint64[]"
        },
        {
          "internalType": "uint256",
          "name": "amount",
          "type": "uint256"
        },
        {
          "components": [
            {
              "internalType": "uint32",
              "name": "validatorCount",
              "type": "uint32"
            },
            {
              "internalType": "uint64",
              "name": "networkFeeIndex",
              "type": "uint64"
            },
            {
              "internalType": "uint64",
              "name": "index",
              "type": "uint64"
            },
            {
              "internalType": "bool",
              "name": "active",
              "type": "bool"
            },
            {
              "internalType": "uint256",
              "name": "balance",
              "type": "uint256"
            }
          ],
          "internalType": "struct Cluster",
          "name": "cluster",
          "type": "tuple"
        }
      ],
      "name": "depositSSV",
      "outputs": [],
      "stateMutability": "nonpayable",
      "type": "function"
    },
    {
      "inputs": [],
      "name": "doAccounting",
      "outputs": [
        {
          "internalType": "bool",
          "name": "accountingValid",
          "type": "bool"
        }
      ],
      "stateMutability": "nonpayable",
      "type": "function"
    },
    {
      "inputs": [
        {
          "internalType": "bytes",
          "name": "publicKey",
          "type": "bytes"
        },
        {
          "internalType": "uint64[]",
          "name": "operatorIds",
          "type": "uint64[]"
        }
      ],
      "name": "exitSsvValidator",
      "outputs": [],
      "stateMutability": "nonpayable",
      "type": "function"
    },
    {
      "inputs": [],
      "name": "fuseIntervalEnd",
      "outputs": [
        {
          "internalType": "uint256",
          "name": "",
          "type": "uint256"
        }
      ],
      "stateMutability": "view",
      "type": "function"
    },
    {
      "inputs": [],
      "name": "fuseIntervalStart",
      "outputs": [
        {
          "internalType": "uint256",
          "name": "",
          "type": "uint256"
        }
      ],
      "stateMutability": "view",
      "type": "function"
    },
    {
      "inputs": [],
      "name": "getRewardTokenAddresses",
      "outputs": [
        {
          "internalType": "address[]",
          "name": "",
          "type": "address[]"
        }
      ],
      "stateMutability": "view",
      "type": "function"
    },
    {
      "inputs": [],
      "name": "governor",
      "outputs": [
        {
          "internalType": "address",
          "name": "",
          "type": "address"
        }
      ],
      "stateMutability": "view",
      "type": "function"
    },
    {
      "inputs": [],
      "name": "harvesterAddress",
      "outputs": [
        {
          "internalType": "address",
          "name": "",
          "type": "address"
        }
      ],
      "stateMutability": "view",
      "type": "function"
    },
    {
      "inputs": [
        {
          "internalType": "address[]",
          "name": "_rewardTokenAddresses",
          "type": "address[]"
        },
        {
          "internalType": "address[]",
          "name": "_assets",
          "type": "address[]"
        },
        {
          "internalType": "address[]",
          "name": "_pTokens",
          "type": "address[]"
        }
      ],
      "name": "initialize",
      "outputs": [],
      "stateMutability": "nonpayable",
      "type": "function"
    },
    {
      "inputs": [],
      "name": "isGovernor",
      "outputs": [
        {
          "internalType": "bool",
          "name": "",
          "type": "bool"
        }
      ],
      "stateMutability": "view",
      "type": "function"
    },
    {
      "inputs": [
        {
          "internalType": "int256",
          "name": "_validatorsDelta",
          "type": "int256"
        },
        {
          "internalType": "int256",
          "name": "_consensusRewardsDelta",
          "type": "int256"
        },
        {
          "internalType": "uint256",
          "name": "_wethToVaultAmount",
          "type": "uint256"
        }
      ],
      "name": "manuallyFixAccounting",
      "outputs": [],
      "stateMutability": "nonpayable",
      "type": "function"
    },
    {
      "inputs": [],
      "name": "pause",
      "outputs": [],
      "stateMutability": "nonpayable",
      "type": "function"
    },
    {
      "inputs": [],
      "name": "paused",
      "outputs": [
        {
          "internalType": "bool",
          "name": "",
          "type": "bool"
        }
      ],
      "stateMutability": "view",
      "type": "function"
    },
    {
      "inputs": [],
      "name": "platformAddress",
      "outputs": [
        {
          "internalType": "address",
          "name": "",
          "type": "address"
        }
      ],
      "stateMutability": "view",
      "type": "function"
    },
    {
      "inputs": [
        {
          "internalType": "bytes",
          "name": "publicKey",
          "type": "bytes"
        },
        {
          "internalType": "uint64[]",
          "name": "operatorIds",
          "type": "uint64[]"
        },
        {
          "internalType": "bytes",
          "name": "sharesData",
          "type": "bytes"
        },
        {
          "internalType": "uint256",
          "name": "amount",
          "type": "uint256"
        },
        {
          "components": [
            {
              "internalType": "uint32",
              "name": "validatorCount",
              "type": "uint32"
            },
            {
              "internalType": "uint64",
              "name": "networkFeeIndex",
              "type": "uint64"
            },
            {
              "internalType": "uint64",
              "name": "index",
              "type": "uint64"
            },
            {
              "internalType": "bool",
              "name": "active",
              "type": "bool"
            },
            {
              "internalType": "uint256",
              "name": "balance",
              "type": "uint256"
            }
          ],
          "internalType": "struct Cluster",
          "name": "cluster",
          "type": "tuple"
        }
      ],
      "name": "registerSsvValidator",
      "outputs": [],
      "stateMutability": "nonpayable",
      "type": "function"
    },
    {
      "inputs": [
        {
          "internalType": "uint256",
          "name": "_assetIndex",
          "type": "uint256"
        }
      ],
      "name": "removePToken",
      "outputs": [],
      "stateMutability": "nonpayable",
      "type": "function"
    },
    {
      "inputs": [
        {
          "internalType": "bytes",
          "name": "publicKey",
          "type": "bytes"
        },
        {
          "internalType": "uint64[]",
          "name": "operatorIds",
          "type": "uint64[]"
        },
        {
          "components": [
            {
              "internalType": "uint32",
              "name": "validatorCount",
              "type": "uint32"
            },
            {
              "internalType": "uint64",
              "name": "networkFeeIndex",
              "type": "uint64"
            },
            {
              "internalType": "uint64",
              "name": "index",
              "type": "uint64"
            },
            {
              "internalType": "bool",
              "name": "active",
              "type": "bool"
            },
            {
              "internalType": "uint256",
              "name": "balance",
              "type": "uint256"
            }
          ],
          "internalType": "struct Cluster",
          "name": "cluster",
          "type": "tuple"
        }
      ],
      "name": "removeSsvValidator",
      "outputs": [],
      "stateMutability": "nonpayable",
      "type": "function"
    },
    {
      "inputs": [
        {
          "internalType": "uint256",
          "name": "",
          "type": "uint256"
        }
      ],
      "name": "rewardTokenAddresses",
      "outputs": [
        {
          "internalType": "address",
          "name": "",
          "type": "address"
        }
      ],
      "stateMutability": "view",
      "type": "function"
    },
    {
      "inputs": [],
      "name": "safeApproveAllTokens",
      "outputs": [],
      "stateMutability": "nonpayable",
      "type": "function"
    },
    {
      "inputs": [
        {
          "internalType": "uint256",
          "name": "_fuseIntervalStart",
          "type": "uint256"
        },
        {
          "internalType": "uint256",
          "name": "_fuseIntervalEnd",
          "type": "uint256"
        }
      ],
      "name": "setFuseInterval",
      "outputs": [],
      "stateMutability": "nonpayable",
      "type": "function"
    },
    {
      "inputs": [
        {
          "internalType": "address",
          "name": "_harvesterAddress",
          "type": "address"
        }
      ],
      "name": "setHarvesterAddress",
      "outputs": [],
      "stateMutability": "nonpayable",
      "type": "function"
    },
    {
      "inputs": [
        {
          "internalType": "address",
          "name": "_asset",
          "type": "address"
        },
        {
          "internalType": "address",
          "name": "_pToken",
          "type": "address"
        }
      ],
      "name": "setPTokenAddress",
      "outputs": [],
      "stateMutability": "nonpayable",
      "type": "function"
    },
    {
      "inputs": [
        {
          "internalType": "address",
          "name": "_address",
          "type": "address"
        }
      ],
      "name": "setRegistrator",
      "outputs": [],
      "stateMutability": "nonpayable",
      "type": "function"
    },
    {
      "inputs": [
        {
          "internalType": "address[]",
          "name": "_rewardTokenAddresses",
          "type": "address[]"
        }
      ],
      "name": "setRewardTokenAddresses",
      "outputs": [],
      "stateMutability": "nonpayable",
      "type": "function"
    },
    {
      "inputs": [
        {
          "components": [
            {
              "internalType": "bytes",
              "name": "pubkey",
              "type": "bytes"
            },
            {
              "internalType": "bytes",
              "name": "signature",
              "type": "bytes"
            },
            {
              "internalType": "bytes32",
              "name": "depositDataRoot",
              "type": "bytes32"
            }
          ],
          "internalType": "struct ValidatorStakeData[]",
          "name": "validators",
          "type": "tuple[]"
        }
      ],
      "name": "stakeEth",
      "outputs": [],
      "stateMutability": "nonpayable",
      "type": "function"
    },
    {
      "inputs": [
        {
          "internalType": "address",
          "name": "_asset",
          "type": "address"
        }
      ],
      "name": "supportsAsset",
      "outputs": [
        {
          "internalType": "bool",
          "name": "",
          "type": "bool"
        }
      ],
      "stateMutability": "view",
      "type": "function"
    },
    {
      "inputs": [
        {
          "internalType": "address",
          "name": "_newGovernor",
          "type": "address"
        }
      ],
      "name": "transferGovernance",
      "outputs": [],
      "stateMutability": "nonpayable",
      "type": "function"
    },
    {
      "inputs": [
        {
          "internalType": "address",
          "name": "_asset",
          "type": "address"
        },
        {
          "internalType": "uint256",
          "name": "_amount",
          "type": "uint256"
        }
      ],
      "name": "transferToken",
      "outputs": [],
      "stateMutability": "nonpayable",
      "type": "function"
    },
    {
      "inputs": [],
      "name": "validatorRegistrator",
      "outputs": [
        {
          "internalType": "address",
          "name": "",
          "type": "address"
        }
      ],
      "stateMutability": "view",
      "type": "function"
    },
    {
      "inputs": [
        {
          "internalType": "bytes32",
          "name": "",
          "type": "bytes32"
        }
      ],
      "name": "validatorsStates",
      "outputs": [
        {
          "internalType": "enum ValidatorRegistrator.VALIDATOR_STATE",
          "name": "",
          "type": "uint8"
        }
      ],
      "stateMutability": "view",
      "type": "function"
    },
    {
      "inputs": [],
      "name": "vaultAddress",
      "outputs": [
        {
          "internalType": "address",
          "name": "",
          "type": "address"
        }
      ],
      "stateMutability": "view",
      "type": "function"
    },
    {
      "inputs": [
        {
          "internalType": "address",
          "name": "_recipient",
          "type": "address"
        },
        {
          "internalType": "address",
          "name": "_asset",
          "type": "address"
        },
        {
          "internalType": "uint256",
          "name": "_amount",
          "type": "uint256"
        }
      ],
      "name": "withdraw",
      "outputs": [],
      "stateMutability": "nonpayable",
      "type": "function"
    },
    {
      "inputs": [],
      "name": "withdrawAll",
      "outputs": [],
      "stateMutability": "nonpayable",
      "type": "function"
    },
    {
      "stateMutability": "payable",
      "type": "receive"
    }
  ],
  "transactionHash": "0xddb5a6d8ad3f95e324b44bfe1d2cb508bcf734deb36c3f6dfb2f29e44f36e797",
  "args": [
    [
      "0x0000000000000000000000000000000000000000",
      "0x19d2bAaBA949eFfa163bFB9efB53ed8701aA5dD9"
    ],
    "0x94373a4919B3240D86eA41593D5eBa789FEF3848",
    "0xad45A78180961079BFaeEe349704F411dfF947C6",
    "0x38A4794cCEd47d3baf7370CcC43B560D3a1beEFA",
    "0x65a289f4BF934c964C942eFF6E6F83b6481BE550",
    "0x4242424242424242424242424242424242424242"
  ],
  "numDeployments": 1,
  "solcInputHash": "66dbdc9fbde8f1c7cc59f29d272eb661",
  "bytecode": "0x610180604052600060685560006069556000606a553480156200002157600080fd5b5060405162004c9a38038062004c9a833981016040819052620000449162000147565b8585876020015183868383838362000062336200011760201b60201c565b60008051602062004c7a833981519152546040516001600160a01b03909116906000907fc7c0c772add429241571afb3805861fb3cfa2af374534088b76cdb4325a87e9a908290a36033805460ff191690556001600160601b0319606094851b811660805291841b821660a052831b811660c05290821b811660e0528651821b811661010052602090960151811b86166101205298891b851661014052505050509190931b1661016052506200022292505050565b60008051602062004c7a83398151915255565b80516001600160a01b03811681146200014257600080fd5b919050565b60008060008060008086880360e08112156200016257600080fd5b60408112156200017157600080fd5b50604080519081016001600160401b0381118282101715620001a357634e487b7160e01b600052604160045260246000fd5b604052620001b1886200012a565b8152620001c1602089016200012a565b60208201529550620001d6604088016200012a565b9450620001e6606088016200012a565b9350620001f6608088016200012a565b92506200020660a088016200012a565b91506200021660c088016200012a565b90509295509295509295565b60805160601c60a05160601c60c05160601c60e05160601c6101005160601c6101205160601c6101405160601c6101605160601c6148c2620003b8600039600081816102a70152818161096e0152612da901526000818161057d01526122fc01526000818161045101528181610d41015281816118c001528181611a390152818161265b01526128e30152600061093a0152600081816106ec01528181610b09015281816117ee01528181611a8901528181611d6c0152818161332201526135730152600081816109b701528181610bdf015281816116c0015281816122cc015281816123e401526127d90152600081816108a601526114070152600081816102d9015281816104db015281816107bd01528181610a7001528181610db601528181610f850152818161100d015281816111bc01528181611297015281816119aa01528181611a5a01528181611d9b0152818161296e015281816129fd01528181612eae01528181612f3301528181612fa70152818161329c01528181613351015281816134ed01526135a201526148c26000f3fe6080604052600436106102975760003560e01c8063853828b61161015a578063c2e1e3f4116100c1578063d9f00ec71161007a578063d9f00ec714610908578063dbe55e5614610928578063dd505df61461095c578063de5f626814610990578063f1188e40146109a5578063f6ca71b0146109d957600080fd5b8063c2e1e3f414610842578063c7af335214610862578063c98517c514610877578063cceab75014610894578063d38bfff4146108c8578063d9caed12146108e857600080fd5b80639da0e462116101135780639da0e4621461074e578063a4f98af41461078b578063aa388af6146107a0578063ab12edf5146107ed578063ad1728cb1461080d578063bb1b918d1461082257600080fd5b8063853828b61461068057806387bae867146106955780638d7c0e46146106ba5780639092c31c146106da5780639136616a1461070e57806396d538bb1461072e57600080fd5b80635c975abb116101fe5780636e811d38116101b75780636e811d38146105d55780636ef38795146105f557806371a735f3146106155780637b2d9b2c14610635578063842f5c46146106555780638456cb591461066b57600080fd5b80635c975abb146105125780635d36b190146105365780635f5152261461054b5780636093d3801461056b57806366e3667e1461059f57806367c7066c146105b557600080fd5b8063430bf08a11610250578063430bf08a1461043f578063435356d11461047357806347e7ef2414610493578063484be812146104b3578063579a7e1a146104c95780635a063f63146104fd57600080fd5b80630c340a24146103535780630ed57b3a146103855780630fc3b4c4146103a55780631072cbea146103db57806322495dc8146103fb5780633c8649591461041b57600080fd5b3661034e57336001600160a01b037f00000000000000000000000000000000000000000000000000000000000000001614806102fb5750336001600160a01b037f000000000000000000000000000000000000000000000000000000000000000016145b61034c5760405162461bcd60e51b815260206004820152601e60248201527f657468206e6f742066726f6d20616c6c6f77656420636f6e747261637473000060448201526064015b60405180910390fd5b005b600080fd5b34801561035f57600080fd5b506103686109fb565b6040516001600160a01b0390911681526020015b60405180910390f35b34801561039157600080fd5b5061034c6103a0366004613c43565b610a18565b3480156103b157600080fd5b506103686103c0366004613c09565b609f602052600090815260409020546001600160a01b031681565b3480156103e757600080fd5b5061034c6103f6366004613cbd565b610a4a565b34801561040757600080fd5b5061034c610416366004613db1565b610b07565b34801561042757600080fd5b5061043160695481565b60405190815260200161037c565b34801561044b57600080fd5b506103687f000000000000000000000000000000000000000000000000000000000000000081565b34801561047f57600080fd5b5061034c61048e366004613d2a565b610c51565b34801561049f57600080fd5b5061034c6104ae366004613cbd565b610d36565b3480156104bf57600080fd5b50610431606a5481565b3480156104d557600080fd5b506103687f000000000000000000000000000000000000000000000000000000000000000081565b34801561050957600080fd5b5061034c610e3c565b34801561051e57600080fd5b5060335460ff165b604051901515815260200161037c565b34801561054257600080fd5b5061034c610edb565b34801561055757600080fd5b50610431610566366004613c09565b610f81565b34801561057757600080fd5b506103687f000000000000000000000000000000000000000000000000000000000000000081565b3480156105ab57600080fd5b5061043160345481565b3480156105c157600080fd5b5060a354610368906001600160a01b031681565b3480156105e157600080fd5b5061034c6105f0366004613c09565b6110b5565b34801561060157600080fd5b5061034c610610366004613ce9565b61113d565b34801561062157600080fd5b5061034c610630366004613fbf565b6115c9565b34801561064157600080fd5b50610368610650366004613e87565b6117c2565b34801561066157600080fd5b5061043160685481565b34801561067757600080fd5b5061034c6117ec565b34801561068c57600080fd5b5061034c6118b5565b3480156106a157600080fd5b506033546103689061010090046001600160a01b031681565b3480156106c657600080fd5b5061034c6106d5366004614040565b611a87565b3480156106e657600080fd5b506103687f000000000000000000000000000000000000000000000000000000000000000081565b34801561071a57600080fd5b5061034c610729366004613e87565b611e6f565b34801561073a57600080fd5b5061034c610749366004613ce9565b61203a565b34801561075a57600080fd5b5061077e610769366004613e87565b60356020526000908152604090205460ff1681565b60405161037c91906144ab565b34801561079757600080fd5b5061052661215a565b3480156107ac57600080fd5b506105266107bb366004613c09565b7f00000000000000000000000000000000000000000000000000000000000000006001600160a01b0390811691161490565b3480156107f957600080fd5b5061034c610808366004614085565b6121b9565b34801561081957600080fd5b5061034c6122b5565b34801561082e57600080fd5b5061034c61083d366004613f0b565b61237b565b34801561084e57600080fd5b5061034c61085d366004613c09565b6124ee565b34801561086e57600080fd5b5061052661257b565b34801561088357600080fd5b506104316801bc16d674ec80000081565b3480156108a057600080fd5b506103687f000000000000000000000000000000000000000000000000000000000000000081565b3480156108d457600080fd5b5061034c6108e3366004613c09565b6125ac565b3480156108f457600080fd5b5061034c610903366004613c7c565b612650565b34801561091457600080fd5b5061034c610923366004613ea0565b6126e3565b34801561093457600080fd5b506103687f000000000000000000000000000000000000000000000000000000000000000081565b34801561096857600080fd5b506103687f000000000000000000000000000000000000000000000000000000000000000081565b34801561099c57600080fd5b5061034c6128d8565b3480156109b157600080fd5b506103687f000000000000000000000000000000000000000000000000000000000000000081565b3480156109e557600080fd5b506109ee612a22565b60405161037c9190614281565b6000610a1360008051602061486d8339815191525490565b905090565b610a2061257b565b610a3c5760405162461bcd60e51b81526004016103439061451d565b610a468282612a84565b5050565b610a5261257b565b610a6e5760405162461bcd60e51b81526004016103439061451d565b7f00000000000000000000000000000000000000000000000000000000000000006001600160a01b039081169083161415610aeb5760405162461bcd60e51b815260206004820152601f60248201527f43616e6e6f74207472616e7366657220737570706f72746564206173736574006044820152606401610343565b610a46610af66109fb565b6001600160a01b0384169083612be3565b7f00000000000000000000000000000000000000000000000000000000000000006001600160a01b031663570d8e1d6040518163ffffffff1660e01b815260040160206040518083038186803b158015610b6057600080fd5b505afa158015610b74573d6000803e3d6000fd5b505050506040513d601f19601f82011682018060405250810190610b989190613c26565b6001600160a01b0316336001600160a01b031614610bc85760405162461bcd60e51b8152600401610343906145dd565b60405163bc26e7e560e01b81526001600160a01b037f0000000000000000000000000000000000000000000000000000000000000000169063bc26e7e590610c1a9030908790879087906004016141d1565b600060405180830381600087803b158015610c3457600080fd5b505af1158015610c48573d6000803e3d6000fd5b50505050505050565b610c5961257b565b610c755760405162461bcd60e51b81526004016103439061451d565b600054610100900460ff1680610c8e575060005460ff16155b610cf15760405162461bcd60e51b815260206004820152602e60248201527f496e697469616c697a61626c653a20636f6e747261637420697320616c72656160448201526d191e481a5b9a5d1a585b1a5e995960921b6064820152608401610343565b600054610100900460ff16158015610d13576000805461ffff19166101011790555b610d1e848484612c35565b8015610d30576000805461ff00191690555b50505050565b336001600160a01b037f00000000000000000000000000000000000000000000000000000000000000001614610d7e5760405162461bcd60e51b8152600401610343906144e6565b60008051602061484d83398151915280546002811415610db05760405162461bcd60e51b8152600401610343906145b5565b600282557f00000000000000000000000000000000000000000000000000000000000000006001600160a01b0316846001600160a01b031614610e295760405162461bcd60e51b8152602060048201526011602482015270155b9cdd5c1c1bdc9d195908185cdcd95d607a1b6044820152606401610343565b610e338484612cf0565b50600190555050565b60a3546001600160a01b03163314610e965760405162461bcd60e51b815260206004820152601b60248201527f43616c6c6572206973206e6f74207468652048617276657374657200000000006044820152606401610343565b60008051602061484d83398151915280546002811415610ec85760405162461bcd60e51b8152600401610343906145b5565b60028255610ed4612d82565b5060019055565b7f44c4d30b2eaad5130ad70c3ba6972730566f3e6359ab83e800d905c61b1c51db546001600160a01b0316336001600160a01b031614610f765760405162461bcd60e51b815260206004820152603060248201527f4f6e6c79207468652070656e64696e6720476f7665726e6f722063616e20636f60448201526f6d706c6574652074686520636c61696d60801b6064820152608401610343565b610f7f33612fd0565b565b60007f00000000000000000000000000000000000000000000000000000000000000006001600160a01b0316826001600160a01b031614610ff85760405162461bcd60e51b8152602060048201526011602482015270155b9cdd5c1c1bdc9d195908185cdcd95d607a1b6044820152606401610343565b6040516370a0823160e01b81523060048201527f00000000000000000000000000000000000000000000000000000000000000006001600160a01b0316906370a082319060240160206040518083038186803b15801561105757600080fd5b505afa15801561106b573d6000803e3d6000fd5b505050506040513d601f19601f8201168201806040525081019061108f919061406c565b6034546110a5906801bc16d674ec80000061473e565b6110af9190614704565b92915050565b6110bd61257b565b6110d95760405162461bcd60e51b81526004016103439061451d565b6040516001600160a01b03821681527f83f29c79feb71f8fba9d0fbc4ba5f0982a28b6b1e868b3fc50e6400d100bca0f9060200160405180910390a1603380546001600160a01b0390921661010002610100600160a81b0319909216919091179055565b60335461010090046001600160a01b0316331461116c5760405162461bcd60e51b81526004016103439061457e565b60335460ff161561118f5760405162461bcd60e51b815260040161034390614554565b60006111a4826801bc16d674ec80000061473e565b6040516370a0823160e01b81523060048201529091507f00000000000000000000000000000000000000000000000000000000000000006001600160a01b0316906370a082319060240160206040518083038186803b15801561120657600080fd5b505afa15801561121a573d6000803e3d6000fd5b505050506040513d601f19601f8201168201806040525081019061123e919061406c565b8111156112815760405162461bcd60e51b81526020600482015260116024820152700d2dce6eaccccd2c6d2cadce840ae8aa89607b1b6044820152606401610343565b604051632e1a7d4d60e01b8152600481018290527f00000000000000000000000000000000000000000000000000000000000000006001600160a01b031690632e1a7d4d90602401600060405180830381600087803b1580156112e357600080fd5b505af11580156112f7573d6000803e3d6000fd5b5050505060005b82811015610d3057600084848381811061131a5761131a6147fd565b905060200281019061132c919061465a565b6113369080614614565b6040516113449291906141a5565b6040805191829003909120600081815260356020529182205490925060ff1690816003811115611376576113766147d1565b146113c35760405162461bcd60e51b815260206004820152601860248201527f56616c696461746f72206e6f74207265676973746572656400000000000000006044820152606401610343565b60408051600160f81b60208201526000602182018190526bffffffffffffffffffffffff193060601b16602c830152910160405160208183030381529060405290507f00000000000000000000000000000000000000000000000000000000000000006001600160a01b031663228951186801bc16d674ec800000898988818110611450576114506147fd565b9050602002810190611462919061465a565b61146c9080614614565b858c8c8b81811061147f5761147f6147fd565b9050602002810190611491919061465a565b61149f906020810190614614565b8e8e8d8181106114b1576114b16147fd565b90506020028101906114c3919061465a565b604001356040518863ffffffff1660e01b81526004016114e896959493929190614430565b6000604051808303818588803b15801561150157600080fd5b505af1158015611515573d6000803e3d6000fd5b505050505060016034600082825461152d9190614704565b909155507ffeb31a79d38edb1b090d516e4df3e273651179c6f2c2ec53a9a22ae015b70ba99050878786818110611566576115666147fd565b9050602002810190611578919061465a565b6115829080614614565b6801bc16d674ec8000008460405161159d949392919061447f565b60405180910390a150506000908152603560205260409020805460ff19166001908117909155016112fe565b60335461010090046001600160a01b031633146115f85760405162461bcd60e51b81526004016103439061457e565b60335460ff161561161b5760405162461bcd60e51b815260040161034390614554565b60006035600087876040516116319291906141a5565b604080519182900390912082526020820192909252016000205460ff1690506002816003811115611664576116646147d1565b146116a95760405162461bcd60e51b815260206004820152601560248201527456616c696461746f72206e6f742065786974696e6760581b6044820152606401610343565b6040516312b3fc1960e01b81526001600160a01b037f000000000000000000000000000000000000000000000000000000000000000016906312b3fc19906116fd90899089908990899089906004016143ef565b600060405180830381600087803b15801561171757600080fd5b505af115801561172b573d6000803e3d6000fd5b505050507ff72821b8777f002ccdf6326f1242d9e0f762eb077668b67bebe640535378066d868686866040516117649493929190614366565b60405180910390a160036035600088886040516117829291906141a5565b60408051918290039091208252602082019290925201600020805460ff191660018360038111156117b5576117b56147d1565b0217905550505050505050565b60a481815481106117d257600080fd5b6000918252602090912001546001600160a01b0316905081565b7f00000000000000000000000000000000000000000000000000000000000000006001600160a01b031663570d8e1d6040518163ffffffff1660e01b815260040160206040518083038186803b15801561184557600080fd5b505afa158015611859573d6000803e3d6000fd5b505050506040513d601f19601f8201168201806040525081019061187d9190613c26565b6001600160a01b0316336001600160a01b0316146118ad5760405162461bcd60e51b8152600401610343906145dd565b610f7f613091565b336001600160a01b037f000000000000000000000000000000000000000000000000000000000000000016148061190457506118ef6109fb565b6001600160a01b0316336001600160a01b0316145b61195c5760405162461bcd60e51b815260206004820152602360248201527f43616c6c6572206973206e6f7420746865205661756c74206f7220476f7665726044820152623737b960e91b6064820152608401610343565b60008051602061484d8339815191528054600281141561198e5760405162461bcd60e51b8152600401610343906145b5565b600282556040516370a0823160e01b81523060048201526000907f00000000000000000000000000000000000000000000000000000000000000006001600160a01b0316906370a082319060240160206040518083038186803b1580156119f457600080fd5b505afa158015611a08573d6000803e3d6000fd5b505050506040513d601f19601f82011682018060405250810190611a2c919061406c565b90508015611a7f57611a7f7f00000000000000000000000000000000000000000000000000000000000000007f000000000000000000000000000000000000000000000000000000000000000083613106565b505060019055565b7f00000000000000000000000000000000000000000000000000000000000000006001600160a01b031663570d8e1d6040518163ffffffff1660e01b815260040160206040518083038186803b158015611ae057600080fd5b505afa158015611af4573d6000803e3d6000fd5b505050506040513d601f19601f82011682018060405250810190611b189190613c26565b6001600160a01b0316336001600160a01b031614611b485760405162461bcd60e51b8152600401610343906145dd565b60335460ff16611b915760405162461bcd60e51b815260206004820152601460248201527314185d5cd8589b194e881b9bdd081c185d5cd95960621b6044820152606401610343565b6002198312158015611ba4575060038313155b8015611bbe5750600083603454611bbb91906146c3565b12155b611c0a5760405162461bcd60e51b815260206004820152601760248201527f696e76616c69642076616c696461746f727344656c74610000000000000000006044820152606401610343565b6811ff6cf0fd15afffff198212158015611c2d57506811ff6cf0fd15b000008213155b8015611c475750600082606854611c4491906146c3565b12155b611c935760405162461bcd60e51b815260206004820152601d60248201527f696e76616c696420636f6e73656e7375735265776172647344656c74610000006044820152606401610343565b6801bc16d674ec800000811115611cec5760405162461bcd60e51b815260206004820152601960248201527f696e76616c69642077657468546f5661756c74416d6f756e74000000000000006044820152606401610343565b60408051848152602081018490529081018290527f80d022717ea022455c5886b8dd8a29c037570aae58aeb4d7b136d7a10ec2e4319060600160405180910390a182603454611d3b91906146c3565b603455606854611d4c9083906146c3565b6068558015611e195760405163a9059cbb60e01b81526001600160a01b037f000000000000000000000000000000000000000000000000000000000000000081166004830152602482018390527f0000000000000000000000000000000000000000000000000000000000000000169063a9059cbb90604401602060405180830381600087803b158015611ddf57600080fd5b505af1158015611df3573d6000803e3d6000fd5b505050506040513d601f19601f82011682018060405250810190611e179190613e6a565b505b611e2360006131fe565b611e625760405162461bcd60e51b815260206004820152601060248201526f333ab9b29039ba34b63610313637bbb760811b6044820152606401610343565b611e6a613684565b505050565b611e7761257b565b611e935760405162461bcd60e51b81526004016103439061451d565b60a0548110611ed45760405162461bcd60e51b815260206004820152600d60248201526c092dcecc2d8d2c840d2dcc8caf609b1b6044820152606401610343565b600060a08281548110611ee957611ee96147fd565b60009182526020808320909101546001600160a01b03908116808452609f90925260409092205460a05491935090911690611f269060019061475d565b831015611fa85760a08054611f3d9060019061475d565b81548110611f4d57611f4d6147fd565b60009182526020909120015460a080546001600160a01b039092169185908110611f7957611f796147fd565b9060005260206000200160006101000a8154816001600160a01b0302191690836001600160a01b031602179055505b60a0805480611fb957611fb96147e7565b60008281526020808220600019908401810180546001600160a01b031990811690915593019093556001600160a01b03858116808352609f855260409283902080549094169093559051908416815290917f16b7600acff27e39a8a96056b3d533045298de927507f5c1d97e4accde60488c910160405180910390a2505050565b61204261257b565b61205e5760405162461bcd60e51b81526004016103439061451d565b8060005b8181101561211157600084848381811061207e5761207e6147fd565b90506020020160208101906120939190613c09565b6001600160a01b031614156121015760405162461bcd60e51b815260206004820152602e60248201527f43616e206e6f742073657420616e20656d70747920616464726573732061732060448201526d30903932bbb0b932103a37b5b2b760911b6064820152608401610343565b61210a816147a0565b9050612062565b507f04c0b9649497d316554306e53678d5f5f5dbc3a06f97dec13ff4cfe98b986bbc60a48484604051612146939291906142ce565b60405180910390a1610d3060a48484613962565b60335460009061010090046001600160a01b0316331461218c5760405162461bcd60e51b81526004016103439061457e565b60335460ff16156121af5760405162461bcd60e51b815260040161034390614554565b610a1360016131fe565b6121c161257b565b6121dd5760405162461bcd60e51b81526004016103439061451d565b80821080156121f457506801bc16d674ec80000082105b801561220857506801bc16d674ec80000081105b80156122255750673782dace9d900000612222838361475d565b10155b6122715760405162461bcd60e51b815260206004820152601760248201527f696e636f7272656374206675736520696e74657276616c0000000000000000006044820152606401610343565b60408051838152602081018390527fcb8d24e46eb3c402bf344ee60a6576cba9ef2f59ea1af3b311520704924e901a910160405180910390a1606991909155606a55565b60405163095ea7b360e01b81526001600160a01b037f00000000000000000000000000000000000000000000000000000000000000008116600483015260001960248301527f0000000000000000000000000000000000000000000000000000000000000000169063095ea7b390604401602060405180830381600087803b15801561234057600080fd5b505af1158015612354573d6000803e3d6000fd5b505050506040513d601f19601f820116820180604052508101906123789190613e6a565b50565b60335461010090046001600160a01b031633146123aa5760405162461bcd60e51b81526004016103439061457e565b60335460ff16156123cd5760405162461bcd60e51b815260040161034390614554565b6040516301ba3ee760e21b81526001600160a01b037f000000000000000000000000000000000000000000000000000000000000000016906306e8fb9c90612427908b908b908b908b908b908b908b908b9060040161438d565b600060405180830381600087803b15801561244157600080fd5b505af1158015612455573d6000803e3d6000fd5b505050506000603560008a8a60405161246f9291906141a5565b60408051918290039091208252602082019290925201600020805460ff191660018360038111156124a2576124a26147d1565b02179055507f75c4a66b2c6c28cf46db7131182a812e4fbbb2f0591377aa83a737909a9b68c3888888886040516124dc9493929190614366565b60405180910390a15050505050505050565b6124f661257b565b6125125760405162461bcd60e51b81526004016103439061451d565b60a354604080516001600160a01b03928316815291831660208301527fe48386b84419f4d36e0f96c10cc3510b6fb1a33795620c5098b22472bbe90796910160405180910390a160a380546001600160a01b0319166001600160a01b0392909216919091179055565b600061259360008051602061486d8339815191525490565b6001600160a01b0316336001600160a01b031614905090565b6125b461257b565b6125d05760405162461bcd60e51b81526004016103439061451d565b6125f8817f44c4d30b2eaad5130ad70c3ba6972730566f3e6359ab83e800d905c61b1c51db55565b806001600160a01b031661261860008051602061486d8339815191525490565b6001600160a01b03167fa39cc5eb22d0f34d8beaefee8a3f17cc229c1a1d1ef87a5ad47313487b1c4f0d60405160405180910390a350565b336001600160a01b037f000000000000000000000000000000000000000000000000000000000000000016146126985760405162461bcd60e51b8152600401610343906144e6565b60008051602061484d833981519152805460028114156126ca5760405162461bcd60e51b8152600401610343906145b5565b600282556126d9858585613106565b5060019055505050565b60335461010090046001600160a01b031633146127125760405162461bcd60e51b81526004016103439061457e565b60335460ff16156127355760405162461bcd60e51b815260040161034390614554565b600060356000868660405161274b9291906141a5565b604080519182900390912082526020820192909252016000205460ff169050600181600381111561277e5761277e6147d1565b146127c25760405162461bcd60e51b815260206004820152601460248201527315985b1a59185d1bdc881b9bdd081cdd185ad95960621b6044820152606401610343565b604051633877322b60e01b81526001600160a01b037f00000000000000000000000000000000000000000000000000000000000000001690633877322b90612814908890889088908890600401614366565b600060405180830381600087803b15801561282e57600080fd5b505af1158015612842573d6000803e3d6000fd5b505050507ff8821da16f5ed966b41e0343c3eff9903af782d74f99f1689dd9d4562b6545b38585858560405161287b9493929190614366565b60405180910390a160026035600087876040516128999291906141a5565b60408051918290039091208252602082019290925201600020805460ff191660018360038111156128cc576128cc6147d1565b02179055505050505050565b336001600160a01b037f000000000000000000000000000000000000000000000000000000000000000016146129205760405162461bcd60e51b8152600401610343906144e6565b60008051602061484d833981519152805460028114156129525760405162461bcd60e51b8152600401610343906145b5565b600282556040516370a0823160e01b81523060048201526000907f00000000000000000000000000000000000000000000000000000000000000006001600160a01b0316906370a082319060240160206040518083038186803b1580156129b857600080fd5b505afa1580156129cc573d6000803e3d6000fd5b505050506040513d601f19601f820116820180604052508101906129f0919061406c565b90508015611a7f57611a7f7f000000000000000000000000000000000000000000000000000000000000000082612cf0565b606060a4805480602002602001604051908101604052809291908181526020018280548015612a7a57602002820191906000526020600020905b81546001600160a01b03168152600190910190602001808311612a5c575b5050505050905090565b6001600160a01b038281166000908152609f60205260409020541615612ae15760405162461bcd60e51b81526020600482015260126024820152711c151bdad95b88185b1c9958591e481cd95d60721b6044820152606401610343565b6001600160a01b03821615801590612b0157506001600160a01b03811615155b612b415760405162461bcd60e51b8152602060048201526011602482015270496e76616c69642061646472657373657360781b6044820152606401610343565b6001600160a01b038281166000818152609f6020908152604080832080549587166001600160a01b0319968716811790915560a0805460018101825594527f78fdc8d422c49ced035a9edf18d00d3c6a8d81df210f3e5e448e045e77b41e8890930180549095168417909455925190815290917fef6485b84315f9b1483beffa32aae9a0596890395e3d7521f1c5fbb51790e765910160405180910390a25050565b604080516001600160a01b038416602482015260448082018490528251808303909101815260649091019091526020810180516001600160e01b031663a9059cbb60e01b179052611e6a9084906136fe565b8251612c489060a49060208601906139c5565b50815181518114612c925760405162461bcd60e51b8152602060048201526014602482015273496e76616c696420696e7075742061727261797360601b6044820152606401610343565b60005b81811015612ce957612cd9848281518110612cb257612cb26147fd565b6020026020010151848381518110612ccc57612ccc6147fd565b6020026020010151612a84565b612ce2816147a0565b9050612c95565b5050505050565b60008111612d395760405162461bcd60e51b81526020600482015260166024820152754d757374206465706f73697420736f6d657468696e6760501b6044820152606401610343565b6040805160008152602081018390526001600160a01b038416917f5548c837ab068cf56a2c2479df0882a4922fd203edb7517321831d95078c5f62910160405180910390a25050565b60335460ff1615612da55760405162461bcd60e51b815260040161034390614554565b60007f00000000000000000000000000000000000000000000000000000000000000006001600160a01b031663e52253816040518163ffffffff1660e01b8152600401602060405180830381600087803b158015612e0257600080fd5b505af1158015612e16573d6000803e3d6000fd5b505050506040513d601f19601f82011682018060405250810190612e3a919061406c565b9050600060685482612e4c9190614704565b905080471015612e9e5760405162461bcd60e51b815260206004820152601860248201527f696e73756666696369656e74206574682062616c616e636500000000000000006044820152606401610343565b8015610a465760006068819055507f00000000000000000000000000000000000000000000000000000000000000006001600160a01b031663d0e30db0826040518263ffffffff1660e01b81526004016000604051808303818588803b158015612f0757600080fd5b505af1158015612f1b573d6000803e3d6000fd5b505060a354604080516001600160a01b0392831681527f0000000000000000000000000000000000000000000000000000000000000000909216602083015281018590527ff6c07a063ed4e63808eb8da7112d46dbcd38de2b40a73dbcc9353c5a94c7235393506060019150612f8e9050565b60405180910390a160a354610a46906001600160a01b037f00000000000000000000000000000000000000000000000000000000000000008116911683612be3565b6001600160a01b0381166130265760405162461bcd60e51b815260206004820152601a60248201527f4e657720476f7665726e6f7220697320616464726573732830290000000000006044820152606401610343565b806001600160a01b031661304660008051602061486d8339815191525490565b6001600160a01b03167fc7c0c772add429241571afb3805861fb3cfa2af374534088b76cdb4325a87e9a60405160405180910390a36123788160008051602061486d83398151915255565b60335460ff16156130b45760405162461bcd60e51b815260040161034390614554565b6033805460ff191660011790557f62e78cea01bee320cd4e420270b5ea74000d11b0c9f74754ebdbfc544b05a2586130e93390565b6040516001600160a01b03909116815260200160405180910390a1565b600081116131565760405162461bcd60e51b815260206004820152601760248201527f4d75737420776974686472617720736f6d657468696e670000000000000000006044820152606401610343565b6001600160a01b0383166131a55760405162461bcd60e51b8152602060048201526016602482015275135d5cdd081cdc1958da599e481c9958da5c1a595b9d60521b6044820152606401610343565b6040805160008152602081018390526001600160a01b038416917f2717ead6b9200dd235aad468c9809ea400fe33ac69b5bfaa6d3e90fc922b6398910160405180910390a2611e6a6001600160a01b0383168483612be3565b6000606854471015613213576110af826137d0565b600060685447613223919061475d565b9050600191506801bc16d674ec800000811061341957600061324e6801bc16d674ec8000008361471c565b905080603454101561326b57613263846137d0565b949350505050565b806034600082825461327d919061475d565b9091555060009050613298826801bc16d674ec80000061473e565b90507f00000000000000000000000000000000000000000000000000000000000000006001600160a01b031663d0e30db0826040518263ffffffff1660e01b81526004016000604051808303818588803b1580156132f557600080fd5b505af1158015613309573d6000803e3d6000fd5b505060405163a9059cbb60e01b81526001600160a01b037f000000000000000000000000000000000000000000000000000000000000000081166004830152602482018690527f000000000000000000000000000000000000000000000000000000000000000016935063a9059cbb92506044019050602060405180830381600087803b15801561339957600080fd5b505af11580156133ad573d6000803e3d6000fd5b505050506040513d601f19601f820116820180604052508101906133d19190613e6a565b5060345460408051848152602081019290925281018290527fbe7040030ff7b347853214bf49820c6d455fedf58f3815f85c7bc5216993682b9060600160405180910390a150505b600060685447613429919061475d565b90506801bc16d674ec800000811061347b5760405162461bcd60e51b8152602060048201526015602482015274756e6578706563746564206163636f756e74696e6760581b6044820152606401610343565b80613487575050919050565b6069548110156134e15780606860008282546134a39190614704565b90915550506040518181527f7a745a2c63a535068f52ceca27debd5297bbad5f7f37ec53d044a59d0362445d906020015b60405180910390a161367d565b606a54811115613674577f00000000000000000000000000000000000000000000000000000000000000006001600160a01b031663d0e30db0826040518263ffffffff1660e01b81526004016000604051808303818588803b15801561354657600080fd5b505af115801561355a573d6000803e3d6000fd5b505060405163a9059cbb60e01b81526001600160a01b037f000000000000000000000000000000000000000000000000000000000000000081166004830152602482018690527f000000000000000000000000000000000000000000000000000000000000000016935063a9059cbb92506044019050602060405180830381600087803b1580156135ea57600080fd5b505af11580156135fe573d6000803e3d6000fd5b505050506040513d601f19601f820116820180604052508101906136229190613e6a565b50600160346000828254613636919061475d565b909155505060345460408051918252602082018390527f6aa7e30787b26429ced603a7aba8b19c4b5d5bcf29a3257da953c8d53bcaa3a691016134d4565b613263846137d0565b5050919050565b60335460ff166136cd5760405162461bcd60e51b815260206004820152601460248201527314185d5cd8589b194e881b9bdd081c185d5cd95960621b6044820152606401610343565b6033805460ff191690557f5db9ee0a495bf2e6ff9c91a7834c1ba4fdd244a5e8aa4e537bd38aeae4b073aa336130e9565b6000613753826040518060400160405280602081526020017f5361666545524332303a206c6f772d6c6576656c2063616c6c206661696c6564815250856001600160a01b03166137e89092919063ffffffff16565b805190915015611e6a57808060200190518101906137719190613e6a565b611e6a5760405162461bcd60e51b815260206004820152602a60248201527f5361666545524332303a204552433230206f7065726174696f6e20646964206e6044820152691bdd081cdd58d8d9595960b21b6064820152608401610343565b600081156137e0576137e0613091565b506000919050565b60606137f78484600085613801565b90505b9392505050565b6060824710156138625760405162461bcd60e51b815260206004820152602660248201527f416464726573733a20696e73756666696369656e742062616c616e636520666f6044820152651c8818d85b1b60d21b6064820152608401610343565b843b6138b05760405162461bcd60e51b815260206004820152601d60248201527f416464726573733a2063616c6c20746f206e6f6e2d636f6e74726163740000006044820152606401610343565b600080866001600160a01b031685876040516138cc91906141b5565b60006040518083038185875af1925050503d8060008114613909576040519150601f19603f3d011682016040523d82523d6000602084013e61390e565b606091505b509150915061391e828286613929565b979650505050505050565b606083156139385750816137fa565b8251156139485782518084602001fd5b8160405162461bcd60e51b815260040161034391906144d3565b8280548282559060005260206000209081019282156139b5579160200282015b828111156139b55781546001600160a01b0319166001600160a01b03843516178255602090920191600190910190613982565b506139c1929150613a1a565b5090565b8280548282559060005260206000209081019282156139b5579160200282015b828111156139b557825182546001600160a01b0319166001600160a01b039091161782556020909201916001909101906139e5565b5b808211156139c15760008155600101613a1b565b60008083601f840112613a4157600080fd5b5081356001600160401b03811115613a5857600080fd5b6020830191508360208260051b8501011115613a7357600080fd5b9250929050565b600082601f830112613a8b57600080fd5b81356020613aa0613a9b836146a0565b614670565b80838252828201915082860187848660051b8901011115613ac057600080fd5b60005b85811015613ae8578135613ad681614829565b84529284019290840190600101613ac3565b5090979650505050505050565b60008083601f840112613b0757600080fd5b5081356001600160401b03811115613b1e57600080fd5b602083019150836020828501011115613a7357600080fd5b600060a08284031215613b4857600080fd5b50919050565b600060a08284031215613b6057600080fd5b60405160a081018181106001600160401b0382111715613b8257613b82614813565b604052905080613b9183613bd9565b8152613b9f60208401613bf2565b6020820152613bb060408401613bf2565b60408201526060830135613bc38161483e565b6060820152608092830135920191909152919050565b803563ffffffff81168114613bed57600080fd5b919050565b80356001600160401b0381168114613bed57600080fd5b600060208284031215613c1b57600080fd5b81356137fa81614829565b600060208284031215613c3857600080fd5b81516137fa81614829565b60008060408385031215613c5657600080fd5b8235613c6181614829565b91506020830135613c7181614829565b809150509250929050565b600080600060608486031215613c9157600080fd5b8335613c9c81614829565b92506020840135613cac81614829565b929592945050506040919091013590565b60008060408385031215613cd057600080fd5b8235613cdb81614829565b946020939093013593505050565b60008060208385031215613cfc57600080fd5b82356001600160401b03811115613d1257600080fd5b613d1e85828601613a2f565b90969095509350505050565b600080600060608486031215613d3f57600080fd5b83356001600160401b0380821115613d5657600080fd5b613d6287838801613a7a565b94506020860135915080821115613d7857600080fd5b613d8487838801613a7a565b93506040860135915080821115613d9a57600080fd5b50613da786828701613a7a565b9150509250925092565b600080600060e08486031215613dc657600080fd5b83356001600160401b03811115613ddc57600080fd5b8401601f81018613613ded57600080fd5b80356020613dfd613a9b836146a0565b8083825282820191508285018a848660051b8801011115613e1d57600080fd5b600095505b84861015613e4757613e3381613bf2565b835260019590950194918301918301613e22565b509650508601359350613e61915086905060408601613b4e565b90509250925092565b600060208284031215613e7c57600080fd5b81516137fa8161483e565b600060208284031215613e9957600080fd5b5035919050565b60008060008060408587031215613eb657600080fd5b84356001600160401b0380821115613ecd57600080fd5b613ed988838901613af5565b90965094506020870135915080821115613ef257600080fd5b50613eff87828801613a2f565b95989497509550505050565b600080600080600080600080610120898b031215613f2857600080fd5b88356001600160401b0380821115613f3f57600080fd5b613f4b8c838d01613af5565b909a50985060208b0135915080821115613f6457600080fd5b613f708c838d01613a2f565b909850965060408b0135915080821115613f8957600080fd5b50613f968b828c01613af5565b90955093505060608901359150613fb08a60808b01613b36565b90509295985092959890939650565b600080600080600060e08688031215613fd757600080fd5b85356001600160401b0380821115613fee57600080fd5b613ffa89838a01613af5565b9097509550602088013591508082111561401357600080fd5b5061402088828901613a2f565b909450925061403490508760408801613b36565b90509295509295909350565b60008060006060848603121561405557600080fd5b505081359360208301359350604090920135919050565b60006020828403121561407e57600080fd5b5051919050565b6000806040838503121561409857600080fd5b50508035926020909101359150565b8183526000602080850194508260005b858110156140e3576001600160401b036140d083613bf2565b16875295820195908201906001016140b7565b509495945050505050565b81835281816020850137506000828201602090810191909152601f909101601f19169091010190565b6000815180845261412f816020860160208601614774565b601f01601f19169290920160200192915050565b63ffffffff61415182613bd9565b16825261416060208201613bf2565b6001600160401b0380821660208501528061417d60408501613bf2565b166040850152505060608101356141938161483e565b15156060830152608090810135910152565b8183823760009101908152919050565b600082516141c7818460208701614774565b9190910192915050565b6001600160a01b03851681526101006020808301829052855191830182905260009161012084019187810191845b818110156142245783516001600160401b0316855293820193928201926001016141ff565b505082935086604086015263ffffffff865116606086015280860151925050506001600160401b0380821660808501528060408601511660a085015250506060830151151560c0830152608083015160e083015295945050505050565b6020808252825182820181905260009190848201906040850190845b818110156142c25783516001600160a01b03168352928401929184019160010161429d565b50909695505050505050565b6000604082016040835280865480835260608501915087600052602092508260002060005b828110156143185781546001600160a01b0316845292840192600191820191016142f3565b505050838103828501528481528590820160005b8681101561435a57823561433f81614829565b6001600160a01b03168252918301919083019060010161432c565b50979650505050505050565b60408152600061437a6040830186886140ee565b828103602084015261391e8185876140a7565b60006101208083526143a28184018b8d6140ee565b905082810360208401526143b781898b6140a7565b905082810360408401526143cc8187896140ee565b9150508360608301526143e26080830184614143565b9998505050505050505050565b60e08152600061440360e0830187896140ee565b82810360208401526144168186886140a7565b9150506144266040830184614143565b9695505050505050565b60808152600061444460808301888a6140ee565b82810360208401526144568188614117565b9050828103604084015261446b8186886140ee565b915050826060830152979650505050505050565b6060815260006144936060830186886140ee565b846020840152828103604084015261391e8185614117565b60208101600483106144cd57634e487b7160e01b600052602160045260246000fd5b91905290565b6020815260006137fa6020830184614117565b60208082526017908201527f43616c6c6572206973206e6f7420746865205661756c74000000000000000000604082015260600190565b6020808252601a908201527f43616c6c6572206973206e6f742074686520476f7665726e6f72000000000000604082015260600190565b60208082526010908201526f14185d5cd8589b194e881c185d5cd95960821b604082015260600190565b6020808252601d908201527f43616c6c6572206973206e6f7420746865205265676973747261746f72000000604082015260600190565b6020808252600e908201526d1499595b9d1c985b9d0818d85b1b60921b604082015260600190565b6020808252601c908201527f43616c6c6572206973206e6f7420746865205374726174656769737400000000604082015260600190565b6000808335601e1984360301811261462b57600080fd5b8301803591506001600160401b0382111561464557600080fd5b602001915036819003821315613a7357600080fd5b60008235605e198336030181126141c757600080fd5b604051601f8201601f191681016001600160401b038111828210171561469857614698614813565b604052919050565b60006001600160401b038211156146b9576146b9614813565b5060051b60200190565b600080821280156001600160ff1b03849003851316156146e5576146e56147bb565b600160ff1b83900384128116156146fe576146fe6147bb565b50500190565b60008219821115614717576147176147bb565b500190565b60008261473957634e487b7160e01b600052601260045260246000fd5b500490565b6000816000190483118215151615614758576147586147bb565b500290565b60008282101561476f5761476f6147bb565b500390565b60005b8381101561478f578181015183820152602001614777565b83811115610d305750506000910152565b60006000198214156147b4576147b46147bb565b5060010190565b634e487b7160e01b600052601160045260246000fd5b634e487b7160e01b600052602160045260246000fd5b634e487b7160e01b600052603160045260246000fd5b634e487b7160e01b600052603260045260246000fd5b634e487b7160e01b600052604160045260246000fd5b6001600160a01b038116811461237857600080fd5b801515811461237857600080fdfe53bf423e48ed90e97d02ab0ebab13b2a235a6bfbe9c321847d5c175333ac45357bea13895fa79d2831e0a9e28edede30099005a50d652d8957cf8a607ee6ca4aa264697066735822122002c6785cb55b316b2eea75081179f6e1764ee917e56d0fc72bd1ea4c6b39fa5064736f6c634300080700337bea13895fa79d2831e0a9e28edede30099005a50d652d8957cf8a607ee6ca4a",
  "libraries": {},
  "devdoc": {
    "author": "Origin Protocol Inc",
    "kind": "dev",
    "methods": {
      "checkBalance(address)": {
        "params": {
          "_asset": "Address of weth asset"
        },
        "returns": {
          "balance": "   Total value of (W)ETH"
        }
      },
      "constructor": {
        "params": {
          "_baseConfig": "Base strategy config with platformAddress (ERC-4626 Vault contract), eg sfrxETH or sDAI, and vaultAddress (OToken Vault contract), eg VaultProxy or OETHVaultProxy",
          "_beaconChainDepositContract": "Address of the beacon chain deposit contract",
          "_feeAccumulator": "Address of the fee accumulator receiving execution layer validator rewards",
          "_ssvNetwork": "Address of the SSV Network contract",
          "_ssvToken": "Address of the Erc20 SSV Token contract",
          "_wethAddress": "Address of the Erc20 WETH Token contract"
        }
      },
      "deposit(address,uint256)": {
        "params": {
          "_amount": "Amount of assets that were transferred to the strategy by the vault.",
          "_asset": "Address of asset to deposit. Has to be WETH."
        }
      },
      "depositSSV(uint64[],uint256,(uint32,uint64,uint64,bool,uint256))": {
        "details": "A SSV cluster is defined by the SSVOwnerAddress and the set of operatorIds. uses \"onlyStrategist\" modifier so continuous front-running can't DOS our maintenance service that tries to top up SSV tokens.",
        "params": {
          "cluster": "The SSV cluster details that must be derived from emitted events from the SSVNetwork contract."
        }
      },
      "doAccounting()": {
        "details": "This function could in theory be permission-less but lets allow only the Registrator (Defender Action) to call it for now.",
        "returns": {
          "accountingValid": "true if accounting was successful, false if fuse is blown"
        }
      },
      "getRewardTokenAddresses()": {
        "returns": {
          "_0": "address[] the reward token addresses."
        }
      },
      "initialize(address[],address[],address[])": {
        "params": {
          "_assets": "Addresses of initial supported assets",
          "_pTokens": "Platform Token corresponding addresses",
          "_rewardTokenAddresses": "Address of reward token for platform"
        }
      },
      "manuallyFixAccounting(int256,int256,uint256)": {
        "params": {
          "_consensusRewardsDelta": "adjust the accounted for consensus rewards up or down",
          "_validatorsDelta": "adjust the active validators by plus one, minus one or unchanged with zero",
          "_wethToVaultAmount": "the amount of WETH to be sent to the Vault"
        }
      },
      "paused()": {
        "details": "Returns true if the contract is paused, and false otherwise."
      },
      "removePToken(uint256)": {
        "params": {
          "_assetIndex": "Index of the asset to be removed"
        }
      },
      "setHarvesterAddress(address)": {
        "params": {
          "_harvesterAddress": "Address of the harvester contract."
        }
      },
      "setPTokenAddress(address,address)": {
        "params": {
          "_asset": "Address for the asset",
          "_pToken": "Address for the corresponding platform token"
        }
      },
      "setRewardTokenAddresses(address[])": {
        "params": {
          "_rewardTokenAddresses": "Array of reward token addresses"
        }
      },
      "stakeEth((bytes,bytes,bytes32)[])": {
        "params": {
          "validators": "A list of validator data needed to stake. The `ValidatorStakeData` struct contains the pubkey, signature and depositDataRoot. Only the registrator can call this function."
        }
      },
      "supportsAsset(address)": {
        "params": {
          "_asset": "The address of the asset token."
        }
      },
      "transferGovernance(address)": {
        "params": {
          "_newGovernor": "Address of the new Governor"
        }
      },
      "transferToken(address,uint256)": {
        "params": {
          "_amount": "Amount of the asset to transfer",
          "_asset": "Address for the asset"
        }
      },
      "withdraw(address,address,uint256)": {
        "params": {
          "_amount": "Amount of WETH to withdraw",
          "_asset": "WETH to withdraw",
          "_recipient": "Address to receive withdrawn assets"
        }
      }
    },
    "stateVariables": {
      "FEE_ACCUMULATOR_ADDRESS": {
        "details": "this address will receive Execution layer rewards - These are rewards earned for executing transactions on the Ethereum network as part of block proposals. They include priority fees (fees paid by users for their transactions to be included) and MEV rewards (rewards for arranging transactions in a way that benefits the validator)."
      }
    },
    "title": "Native Staking SSV Strategy",
    "version": 1
  },
  "userdoc": {
    "kind": "user",
    "methods": {
      "BEACON_CHAIN_DEPOSIT_CONTRACT()": {
        "notice": "The address of the beacon chain deposit contract"
      },
      "FEE_ACCUMULATOR_ADDRESS()": {
        "notice": "Fee collector address"
      },
      "MAX_STAKE()": {
        "notice": "The maximum amount of ETH that can be staked by a validator"
      },
      "SSV_NETWORK_ADDRESS()": {
        "notice": "The address of the SSV Network contract used to interface with"
      },
      "SSV_TOKEN_ADDRESS()": {
        "notice": "SSV ERC20 token that serves as a payment for operating SSV validators"
      },
      "VAULT_ADDRESS()": {
        "notice": "Address of the OETH Vault proxy contract"
      },
      "WETH_TOKEN_ADDRESS()": {
        "notice": "The address of the Wrapped ETH (WETH) token contract"
      },
      "activeDepositedValidators()": {
        "notice": "The number of validators that have 32 (!) ETH actively deposited. When a new deposit to a validator happens this number increases, when a validator exit is detected this number decreases."
      },
      "assetToPToken(address)": {
        "notice": "asset => pToken (Platform Specific Token Address)"
      },
      "checkBalance(address)": {
        "notice": "Returns the total value of (W)ETH that is staked to the validators and WETH deposits that are still to be staked. This does not include ETH from consensus rewards sitting in this strategy or ETH from MEV rewards in the FeeAccumulator. These rewards are harvested and sent to the Dripper so will eventually be sent to the Vault as WETH."
      },
      "claimGovernance()": {
        "notice": "Claim Governance of the contract to a new account (`newGovernor`). Can only be called by the new Governor."
      },
      "collectRewardTokens()": {
        "notice": "Collect accumulated reward token and send to Vault."
      },
      "consensusRewards()": {
        "notice": "Keeps track of the total consensus rewards swept from the beacon chain"
      },
      "deposit(address,uint256)": {
        "notice": "Unlike other strategies, this does not deposit assets into the underlying platform. It just checks the asset is WETH and emits the Deposit event. To deposit WETH into validators `registerSsvValidator` and `stakeEth` must be used. Will NOT revert if the strategy is paused from an accounting failure."
      },
      "depositAll()": {
        "notice": "Unlike other strategies, this does not deposit assets into the underlying platform. It just emits the Deposit event. To deposit WETH into validators `registerSsvValidator` and `stakeEth` must be used. Will NOT revert if the strategy is paused from an accounting failure."
      },
      "depositSSV(uint64[],uint256,(uint32,uint64,uint64,bool,uint256))": {
        "notice": "Deposits more SSV Tokens to the SSV Network contract which is used to pay the SSV Operators."
      },
      "doAccounting()": {
        "notice": "This notion page offers a good explanation of how the accounting functions https://www.notion.so/originprotocol/Limited-simplified-native-staking-accounting-67a217c8420d40678eb943b9da0ee77d In short, after dividing by 32, if the ETH remaining on the contract falls between 0 and fuseIntervalStart, the accounting function will treat that ETH as Beacon chain consensus rewards. On the contrary, if after dividing by 32, the ETH remaining on the contract falls between fuseIntervalEnd and 32, the accounting function will treat that as a validator slashing.Perform the accounting attributing beacon chain ETH to either full or partial withdrawals. Returns true when accounting is valid and fuse isn't \"blown\". Returns false when fuse is blown."
      },
      "exitSsvValidator(bytes,uint64[])": {
        "notice": "Exit a validator from the Beacon chain. The staked ETH will eventually swept to this native staking strategy. Only the registrator can call this function."
      },
      "fuseIntervalEnd()": {
        "notice": "end of fuse interval"
      },
      "fuseIntervalStart()": {
        "notice": "start of fuse interval"
      },
      "getRewardTokenAddresses()": {
        "notice": "Get the reward token addresses."
      },
      "governor()": {
        "notice": "Returns the address of the current Governor."
      },
      "harvesterAddress()": {
        "notice": "Address of the Harvester contract allowed to collect reward tokens"
      },
      "initialize(address[],address[],address[])": {
        "notice": "initialize function, to set up initial internal state"
      },
      "isGovernor()": {
        "notice": "Returns true if the caller is the current Governor."
      },
      "manuallyFixAccounting(int256,int256,uint256)": {
        "notice": "Allow the Strategist to fix the accounting of this strategy and unpause."
      },
      "platformAddress()": {
        "notice": "Address of the underlying platform"
      },
      "registerSsvValidator(bytes,uint64[],bytes,uint256,(uint32,uint64,uint64,bool,uint256))": {
        "notice": "Registers a new validator in the SSV Cluster. Only the registrator can call this function."
      },
      "removePToken(uint256)": {
        "notice": "Remove a supported asset by passing its index.      This method can only be called by the system Governor"
      },
      "removeSsvValidator(bytes,uint64[],(uint32,uint64,uint64,bool,uint256))": {
        "notice": "Remove a validator from the SSV Cluster. Make sure `exitSsvValidator` is called before and the validate has exited the Beacon chain. If removed before the validator has exited the beacon chain will result in the validator being slashed. Only the registrator can call this function."
      },
      "rewardTokenAddresses(uint256)": {
        "notice": "Address of the reward tokens. eg CRV, BAL, CVX, AURA"
      },
      "safeApproveAllTokens()": {
        "notice": "Approves the SSV Network contract to transfer SSV tokens for deposits"
      },
      "setFuseInterval(uint256,uint256)": {
        "notice": "set fuse interval values"
      },
      "setHarvesterAddress(address)": {
        "notice": "Set the Harvester contract that can collect rewards."
      },
      "setPTokenAddress(address,address)": {
        "notice": "Provide support for asset by passing its pToken address.      This method can only be called by the system Governor"
      },
      "setRegistrator(address)": {
        "notice": "Set the address of the registrator which can register, exit and remove validators"
      },
      "setRewardTokenAddresses(address[])": {
        "notice": "Set the reward token addresses. Any old addresses will be overwritten."
      },
      "stakeEth((bytes,bytes,bytes32)[])": {
        "notice": "Stakes WETH to the node validators"
      },
      "supportsAsset(address)": {
        "notice": "Returns bool indicating whether asset is supported by strategy."
      },
      "transferGovernance(address)": {
        "notice": "Transfers Governance of the contract to a new account (`newGovernor`). Can only be called by the current Governor. Must be claimed for this to complete"
      },
      "transferToken(address,uint256)": {
        "notice": "Transfer token to governor. Intended for recovering tokens stuck in      strategy contracts, i.e. mistaken sends."
      },
      "validatorRegistrator()": {
        "notice": "Address of the registrator - allowed to register, exit and remove validators"
      },
      "validatorsStates(bytes32)": {
        "notice": "State of the validators keccak256(pubKey) => state"
      },
      "vaultAddress()": {
        "notice": "Address of the OToken vault"
      },
      "withdraw(address,address,uint256)": {
        "notice": "Withdraw WETH from this contract. Used only if some WETH for is lingering on the contract. That can happen when:   - the deposit was not a multiple of 32 WETH   - someone sent WETH directly to this contract Will NOT revert if the strategy is paused from an accounting failure."
      },
      "withdrawAll()": {
        "notice": "transfer all WETH deposits back to the vault. This does not withdraw from the validators. That has to be done separately with the `exitSsvValidator` and `removeSsvValidator` operations. This does not withdraw any execution rewards from the FeeAccumulator or consensus rewards in this strategy. Any ETH in this strategy that was swept from a full validator withdrawal will not be withdrawn. ETH from full validator withdrawals is sent to the Vault using `doAccounting`. Will NOT revert if the strategy is paused from an accounting failure."
      }
    },
    "notice": "Strategy to deploy funds into DVT validators powered by the SSV Network",
    "version": 1
  },
  "storageLayout": {
    "storage": [
      {
        "astId": 41335,
        "contract": "contracts/strategies/NativeStaking/NativeStakingSSVStrategy.sol:NativeStakingSSVStrategy",
        "label": "initialized",
        "offset": 0,
        "slot": "0",
        "type": "t_bool"
      },
      {
        "astId": 41338,
        "contract": "contracts/strategies/NativeStaking/NativeStakingSSVStrategy.sol:NativeStakingSSVStrategy",
        "label": "initializing",
        "offset": 1,
        "slot": "0",
        "type": "t_bool"
      },
      {
        "astId": 41378,
        "contract": "contracts/strategies/NativeStaking/NativeStakingSSVStrategy.sol:NativeStakingSSVStrategy",
        "label": "______gap",
        "offset": 0,
        "slot": "1",
        "type": "t_array(t_uint256)50_storage"
      },
      {
        "astId": 549,
        "contract": "contracts/strategies/NativeStaking/NativeStakingSSVStrategy.sol:NativeStakingSSVStrategy",
        "label": "_paused",
        "offset": 0,
        "slot": "51",
        "type": "t_bool"
      },
      {
        "astId": 34647,
        "contract": "contracts/strategies/NativeStaking/NativeStakingSSVStrategy.sol:NativeStakingSSVStrategy",
        "label": "validatorRegistrator",
        "offset": 1,
        "slot": "51",
        "type": "t_address"
      },
      {
        "astId": 34650,
        "contract": "contracts/strategies/NativeStaking/NativeStakingSSVStrategy.sol:NativeStakingSSVStrategy",
        "label": "activeDepositedValidators",
        "offset": 0,
        "slot": "52",
        "type": "t_uint256"
      },
      {
        "astId": 34656,
        "contract": "contracts/strategies/NativeStaking/NativeStakingSSVStrategy.sol:NativeStakingSSVStrategy",
        "label": "validatorsStates",
        "offset": 0,
        "slot": "53",
        "type": "t_mapping(t_bytes32,t_enum(VALIDATOR_STATE)34665)"
      },
      {
        "astId": 34660,
        "contract": "contracts/strategies/NativeStaking/NativeStakingSSVStrategy.sol:NativeStakingSSVStrategy",
        "label": "__gap",
        "offset": 0,
        "slot": "54",
        "type": "t_array(t_uint256)50_storage"
      },
      {
        "astId": 34184,
        "contract": "contracts/strategies/NativeStaking/NativeStakingSSVStrategy.sol:NativeStakingSSVStrategy",
        "label": "consensusRewards",
        "offset": 0,
        "slot": "104",
        "type": "t_uint256"
      },
      {
        "astId": 34188,
        "contract": "contracts/strategies/NativeStaking/NativeStakingSSVStrategy.sol:NativeStakingSSVStrategy",
        "label": "fuseIntervalStart",
        "offset": 0,
        "slot": "105",
        "type": "t_uint256"
      },
      {
        "astId": 34192,
        "contract": "contracts/strategies/NativeStaking/NativeStakingSSVStrategy.sol:NativeStakingSSVStrategy",
        "label": "fuseIntervalEnd",
        "offset": 0,
        "slot": "106",
        "type": "t_uint256"
      },
      {
        "astId": 34196,
        "contract": "contracts/strategies/NativeStaking/NativeStakingSSVStrategy.sol:NativeStakingSSVStrategy",
        "label": "__gap",
        "offset": 0,
        "slot": "107",
        "type": "t_array(t_uint256)50_storage"
      },
      {
        "astId": 41458,
        "contract": "contracts/strategies/NativeStaking/NativeStakingSSVStrategy.sol:NativeStakingSSVStrategy",
        "label": "_deprecated_platformAddress",
        "offset": 0,
        "slot": "157",
        "type": "t_address"
      },
      {
        "astId": 41461,
        "contract": "contracts/strategies/NativeStaking/NativeStakingSSVStrategy.sol:NativeStakingSSVStrategy",
        "label": "_deprecated_vaultAddress",
        "offset": 0,
        "slot": "158",
        "type": "t_address"
      },
      {
        "astId": 41466,
        "contract": "contracts/strategies/NativeStaking/NativeStakingSSVStrategy.sol:NativeStakingSSVStrategy",
        "label": "assetToPToken",
        "offset": 0,
        "slot": "159",
        "type": "t_mapping(t_address,t_address)"
      },
      {
        "astId": 41470,
        "contract": "contracts/strategies/NativeStaking/NativeStakingSSVStrategy.sol:NativeStakingSSVStrategy",
        "label": "assetsMapped",
        "offset": 0,
        "slot": "160",
        "type": "t_array(t_address)dyn_storage"
      },
      {
        "astId": 41472,
        "contract": "contracts/strategies/NativeStaking/NativeStakingSSVStrategy.sol:NativeStakingSSVStrategy",
        "label": "_deprecated_rewardTokenAddress",
        "offset": 0,
        "slot": "161",
        "type": "t_address"
      },
      {
        "astId": 41474,
        "contract": "contracts/strategies/NativeStaking/NativeStakingSSVStrategy.sol:NativeStakingSSVStrategy",
        "label": "_deprecated_rewardLiquidationThreshold",
        "offset": 0,
        "slot": "162",
        "type": "t_uint256"
      },
      {
        "astId": 41477,
        "contract": "contracts/strategies/NativeStaking/NativeStakingSSVStrategy.sol:NativeStakingSSVStrategy",
        "label": "harvesterAddress",
        "offset": 0,
        "slot": "163",
        "type": "t_address"
      },
      {
        "astId": 41481,
        "contract": "contracts/strategies/NativeStaking/NativeStakingSSVStrategy.sol:NativeStakingSSVStrategy",
        "label": "rewardTokenAddresses",
        "offset": 0,
        "slot": "164",
        "type": "t_array(t_address)dyn_storage"
      },
      {
        "astId": 41485,
        "contract": "contracts/strategies/NativeStaking/NativeStakingSSVStrategy.sol:NativeStakingSSVStrategy",
        "label": "_reserved",
        "offset": 0,
        "slot": "165",
        "type": "t_array(t_int256)98_storage"
      },
      {
        "astId": 33757,
        "contract": "contracts/strategies/NativeStaking/NativeStakingSSVStrategy.sol:NativeStakingSSVStrategy",
        "label": "__gap",
        "offset": 0,
        "slot": "263",
        "type": "t_array(t_uint256)50_storage"
      }
    ],
    "types": {
      "t_address": {
        "encoding": "inplace",
        "label": "address",
        "numberOfBytes": "20"
      },
      "t_array(t_address)dyn_storage": {
        "base": "t_address",
        "encoding": "dynamic_array",
        "label": "address[]",
        "numberOfBytes": "32"
      },
      "t_array(t_int256)98_storage": {
        "base": "t_int256",
        "encoding": "inplace",
        "label": "int256[98]",
        "numberOfBytes": "3136"
      },
      "t_array(t_uint256)50_storage": {
        "base": "t_uint256",
        "encoding": "inplace",
        "label": "uint256[50]",
        "numberOfBytes": "1600"
      },
      "t_bool": {
        "encoding": "inplace",
        "label": "bool",
        "numberOfBytes": "1"
      },
      "t_bytes32": {
        "encoding": "inplace",
        "label": "bytes32",
        "numberOfBytes": "32"
      },
      "t_enum(VALIDATOR_STATE)34665": {
        "encoding": "inplace",
        "label": "enum ValidatorRegistrator.VALIDATOR_STATE",
        "numberOfBytes": "1"
      },
      "t_int256": {
        "encoding": "inplace",
        "label": "int256",
        "numberOfBytes": "32"
      },
      "t_mapping(t_address,t_address)": {
        "encoding": "mapping",
        "key": "t_address",
        "label": "mapping(address => address)",
        "numberOfBytes": "32",
        "value": "t_address"
      },
      "t_mapping(t_bytes32,t_enum(VALIDATOR_STATE)34665)": {
        "encoding": "mapping",
        "key": "t_bytes32",
        "label": "mapping(bytes32 => enum ValidatorRegistrator.VALIDATOR_STATE)",
        "numberOfBytes": "32",
        "value": "t_enum(VALIDATOR_STATE)34665"
      },
      "t_uint256": {
        "encoding": "inplace",
        "label": "uint256",
        "numberOfBytes": "32"
      }
    }
  }
}