{
  "address": "0x8AAcc620050a399F5829422bD0c45Db1Af90ea37",
  "abi": [
    {
      "inputs": [
        {
          "internalType": "address",
          "name": "_weth",
          "type": "address"
        }
      ],
      "stateMutability": "nonpayable",
      "type": "constructor"
    },
    {
      "anonymous": false,
      "inputs": [
        {
          "indexed": false,
          "internalType": "uint256",
          "name": "_threshold",
          "type": "uint256"
        }
      ],
      "name": "AllocateThresholdUpdated",
      "type": "event"
    },
    {
      "anonymous": false,
      "inputs": [
        {
          "indexed": false,
          "internalType": "address",
          "name": "_asset",
          "type": "address"
        },
        {
          "indexed": false,
          "internalType": "address",
          "name": "_strategy",
          "type": "address"
        },
        {
          "indexed": false,
          "internalType": "uint256",
          "name": "_amount",
          "type": "uint256"
        }
      ],
      "name": "AssetAllocated",
      "type": "event"
    },
    {
      "anonymous": false,
      "inputs": [
        {
          "indexed": false,
          "internalType": "address",
          "name": "_asset",
          "type": "address"
        },
        {
          "indexed": false,
          "internalType": "address",
          "name": "_strategy",
          "type": "address"
        }
      ],
      "name": "AssetDefaultStrategyUpdated",
      "type": "event"
    },
    {
      "anonymous": false,
      "inputs": [
        {
          "indexed": false,
          "internalType": "address",
          "name": "_asset",
          "type": "address"
        }
      ],
      "name": "AssetRemoved",
      "type": "event"
    },
    {
      "anonymous": false,
      "inputs": [
        {
          "indexed": false,
          "internalType": "address",
          "name": "_asset",
          "type": "address"
        }
      ],
      "name": "AssetSupported",
      "type": "event"
    },
    {
      "anonymous": false,
      "inputs": [],
      "name": "CapitalPaused",
      "type": "event"
    },
    {
      "anonymous": false,
      "inputs": [],
      "name": "CapitalUnpaused",
      "type": "event"
    },
    {
      "anonymous": false,
      "inputs": [
        {
          "indexed": true,
          "internalType": "address",
          "name": "_dripper",
          "type": "address"
        }
      ],
      "name": "DripperChanged",
      "type": "event"
    },
    {
      "anonymous": false,
      "inputs": [
        {
          "indexed": true,
          "internalType": "address",
          "name": "previousGovernor",
          "type": "address"
        },
        {
          "indexed": true,
          "internalType": "address",
          "name": "newGovernor",
          "type": "address"
        }
      ],
      "name": "GovernorshipTransferred",
      "type": "event"
    },
    {
      "anonymous": false,
      "inputs": [
        {
          "indexed": false,
          "internalType": "uint256",
          "name": "maxSupplyDiff",
          "type": "uint256"
        }
      ],
      "name": "MaxSupplyDiffChanged",
      "type": "event"
    },
    {
      "anonymous": false,
      "inputs": [
        {
          "indexed": false,
          "internalType": "address",
          "name": "_addr",
          "type": "address"
        },
        {
          "indexed": false,
          "internalType": "uint256",
          "name": "_value",
          "type": "uint256"
        }
      ],
      "name": "Mint",
      "type": "event"
    },
    {
      "anonymous": false,
      "inputs": [
        {
          "indexed": false,
          "internalType": "uint256",
          "name": "_threshold",
          "type": "uint256"
        }
      ],
      "name": "NetOusdMintForStrategyThresholdChanged",
      "type": "event"
    },
    {
      "anonymous": false,
      "inputs": [
        {
          "indexed": false,
          "internalType": "address",
          "name": "_ousdMetaStrategy",
          "type": "address"
        }
      ],
      "name": "OusdMetaStrategyUpdated",
      "type": "event"
    },
    {
      "anonymous": false,
      "inputs": [
        {
          "indexed": true,
          "internalType": "address",
          "name": "previousGovernor",
          "type": "address"
        },
        {
          "indexed": true,
          "internalType": "address",
          "name": "newGovernor",
          "type": "address"
        }
      ],
      "name": "PendingGovernorshipTransfer",
      "type": "event"
    },
    {
      "anonymous": false,
      "inputs": [
        {
          "indexed": false,
          "internalType": "address",
          "name": "_priceProvider",
          "type": "address"
        }
      ],
      "name": "PriceProviderUpdated",
      "type": "event"
    },
    {
      "anonymous": false,
      "inputs": [],
      "name": "RebasePaused",
      "type": "event"
    },
    {
      "anonymous": false,
      "inputs": [
        {
          "indexed": false,
          "internalType": "uint256",
          "name": "_threshold",
          "type": "uint256"
        }
      ],
      "name": "RebaseThresholdUpdated",
      "type": "event"
    },
    {
      "anonymous": false,
      "inputs": [],
      "name": "RebaseUnpaused",
      "type": "event"
    },
    {
      "anonymous": false,
      "inputs": [
        {
          "indexed": false,
          "internalType": "address",
          "name": "_addr",
          "type": "address"
        },
        {
          "indexed": false,
          "internalType": "uint256",
          "name": "_value",
          "type": "uint256"
        }
      ],
      "name": "Redeem",
      "type": "event"
    },
    {
      "anonymous": false,
      "inputs": [
        {
          "indexed": false,
          "internalType": "uint256",
          "name": "_redeemFeeBps",
          "type": "uint256"
        }
      ],
      "name": "RedeemFeeUpdated",
      "type": "event"
    },
    {
      "anonymous": false,
      "inputs": [
        {
          "indexed": false,
          "internalType": "address",
          "name": "_address",
          "type": "address"
        }
      ],
      "name": "StrategistUpdated",
      "type": "event"
    },
    {
      "anonymous": false,
      "inputs": [
        {
          "indexed": false,
          "internalType": "address",
          "name": "_addr",
          "type": "address"
        }
      ],
      "name": "StrategyApproved",
      "type": "event"
    },
    {
      "anonymous": false,
      "inputs": [
        {
          "indexed": false,
          "internalType": "address",
          "name": "_addr",
          "type": "address"
        }
      ],
      "name": "StrategyRemoved",
      "type": "event"
    },
    {
      "anonymous": false,
      "inputs": [
        {
          "indexed": false,
          "internalType": "uint256",
          "name": "_basis",
          "type": "uint256"
        }
      ],
      "name": "SwapAllowedUndervalueChanged",
      "type": "event"
    },
    {
      "anonymous": false,
      "inputs": [
        {
          "indexed": false,
          "internalType": "address",
          "name": "_asset",
          "type": "address"
        },
        {
          "indexed": false,
          "internalType": "uint256",
          "name": "_basis",
          "type": "uint256"
        }
      ],
      "name": "SwapSlippageChanged",
      "type": "event"
    },
    {
      "anonymous": false,
      "inputs": [
        {
          "indexed": true,
          "internalType": "address",
          "name": "_fromAsset",
          "type": "address"
        },
        {
          "indexed": true,
          "internalType": "address",
          "name": "_toAsset",
          "type": "address"
        },
        {
          "indexed": false,
          "internalType": "uint256",
          "name": "_fromAssetAmount",
          "type": "uint256"
        },
        {
          "indexed": false,
          "internalType": "uint256",
          "name": "_toAssetAmount",
          "type": "uint256"
        }
      ],
      "name": "Swapped",
      "type": "event"
    },
    {
      "anonymous": false,
      "inputs": [
        {
          "indexed": false,
          "internalType": "address",
          "name": "_address",
          "type": "address"
        }
      ],
      "name": "SwapperChanged",
      "type": "event"
    },
    {
      "anonymous": false,
      "inputs": [
        {
          "indexed": false,
          "internalType": "address",
          "name": "_address",
          "type": "address"
        }
      ],
      "name": "TrusteeAddressChanged",
      "type": "event"
    },
    {
      "anonymous": false,
      "inputs": [
        {
          "indexed": false,
          "internalType": "uint256",
          "name": "_basis",
          "type": "uint256"
        }
      ],
      "name": "TrusteeFeeBpsChanged",
      "type": "event"
    },
    {
      "anonymous": false,
      "inputs": [
        {
          "indexed": false,
          "internalType": "uint256",
          "name": "_vaultBuffer",
          "type": "uint256"
        }
      ],
      "name": "VaultBufferUpdated",
      "type": "event"
    },
    {
      "anonymous": false,
      "inputs": [
        {
          "indexed": false,
          "internalType": "uint256",
          "name": "_claimable",
          "type": "uint256"
        },
        {
          "indexed": false,
          "internalType": "uint256",
          "name": "_newClaimable",
          "type": "uint256"
        }
      ],
      "name": "WithdrawalClaimable",
      "type": "event"
    },
    {
      "anonymous": false,
      "inputs": [
        {
          "indexed": true,
          "internalType": "address",
          "name": "_withdrawer",
          "type": "address"
        },
        {
          "indexed": true,
          "internalType": "uint256",
          "name": "_requestId",
          "type": "uint256"
        },
        {
          "indexed": false,
          "internalType": "uint256",
          "name": "_amount",
          "type": "uint256"
        }
      ],
      "name": "WithdrawalClaimed",
      "type": "event"
    },
    {
      "anonymous": false,
      "inputs": [
        {
          "indexed": true,
          "internalType": "address",
          "name": "_withdrawer",
          "type": "address"
        },
        {
          "indexed": true,
          "internalType": "uint256",
          "name": "_requestId",
          "type": "uint256"
        },
        {
          "indexed": false,
          "internalType": "uint256",
          "name": "_amount",
          "type": "uint256"
        },
        {
          "indexed": false,
          "internalType": "uint256",
          "name": "_queued",
          "type": "uint256"
        }
      ],
      "name": "WithdrawalRequested",
      "type": "event"
    },
    {
      "anonymous": false,
      "inputs": [
        {
          "indexed": false,
          "internalType": "address",
          "name": "_to",
          "type": "address"
        },
        {
          "indexed": false,
          "internalType": "uint256",
          "name": "_yield",
          "type": "uint256"
        },
        {
          "indexed": false,
          "internalType": "uint256",
          "name": "_fee",
          "type": "uint256"
        }
      ],
      "name": "YieldDistribution",
      "type": "event"
    },
    {
      "inputs": [],
      "name": "allowedSwapUndervalue",
      "outputs": [
        {
          "internalType": "uint256",
          "name": "value",
          "type": "uint256"
        }
      ],
      "stateMutability": "view",
      "type": "function"
    },
    {
      "inputs": [
        {
          "internalType": "address",
          "name": "_addr",
          "type": "address"
        }
      ],
      "name": "approveStrategy",
      "outputs": [],
      "stateMutability": "nonpayable",
      "type": "function"
    },
    {
      "inputs": [
        {
          "internalType": "address",
          "name": "",
          "type": "address"
        }
      ],
      "name": "assetDefaultStrategies",
      "outputs": [
        {
          "internalType": "address",
          "name": "",
          "type": "address"
        }
      ],
      "stateMutability": "view",
      "type": "function"
    },
    {
      "inputs": [],
      "name": "autoAllocateThreshold",
      "outputs": [
        {
          "internalType": "uint256",
          "name": "",
          "type": "uint256"
        }
      ],
      "stateMutability": "view",
      "type": "function"
    },
    {
      "inputs": [
        {
          "internalType": "address",
          "name": "_asset",
          "type": "address"
        }
      ],
      "name": "cacheDecimals",
      "outputs": [],
      "stateMutability": "nonpayable",
      "type": "function"
    },
    {
      "inputs": [],
      "name": "capitalPaused",
      "outputs": [
        {
          "internalType": "bool",
          "name": "",
          "type": "bool"
        }
      ],
      "stateMutability": "view",
      "type": "function"
    },
    {
      "inputs": [],
      "name": "claimGovernance",
      "outputs": [],
      "stateMutability": "nonpayable",
      "type": "function"
    },
    {
      "inputs": [
        {
          "internalType": "address",
          "name": "_strategyToAddress",
          "type": "address"
        },
        {
          "internalType": "address[]",
          "name": "_assets",
          "type": "address[]"
        },
        {
          "internalType": "uint256[]",
          "name": "_amounts",
          "type": "uint256[]"
        }
      ],
      "name": "depositToStrategy",
      "outputs": [],
      "stateMutability": "nonpayable",
      "type": "function"
    },
    {
      "inputs": [],
      "name": "dripper",
      "outputs": [
        {
          "internalType": "address",
          "name": "",
          "type": "address"
        }
      ],
      "stateMutability": "view",
      "type": "function"
    },
    {
      "inputs": [],
      "name": "governor",
      "outputs": [
        {
          "internalType": "address",
          "name": "",
          "type": "address"
        }
      ],
      "stateMutability": "view",
      "type": "function"
    },
    {
      "inputs": [],
      "name": "isGovernor",
      "outputs": [
        {
          "internalType": "bool",
          "name": "",
          "type": "bool"
        }
      ],
      "stateMutability": "view",
      "type": "function"
    },
    {
      "inputs": [],
      "name": "maxSupplyDiff",
      "outputs": [
        {
          "internalType": "uint256",
          "name": "",
          "type": "uint256"
        }
      ],
      "stateMutability": "view",
      "type": "function"
    },
    {
      "inputs": [],
      "name": "netOusdMintForStrategyThreshold",
      "outputs": [
        {
          "internalType": "uint256",
          "name": "",
          "type": "uint256"
        }
      ],
      "stateMutability": "view",
      "type": "function"
    },
    {
      "inputs": [],
      "name": "netOusdMintedForStrategy",
      "outputs": [
        {
          "internalType": "int256",
          "name": "",
          "type": "int256"
        }
      ],
      "stateMutability": "view",
      "type": "function"
    },
    {
      "inputs": [],
      "name": "ousdMetaStrategy",
      "outputs": [
        {
          "internalType": "address",
          "name": "",
          "type": "address"
        }
      ],
      "stateMutability": "view",
      "type": "function"
    },
    {
      "inputs": [],
      "name": "pauseCapital",
      "outputs": [],
      "stateMutability": "nonpayable",
      "type": "function"
    },
    {
      "inputs": [],
      "name": "pauseRebase",
      "outputs": [],
      "stateMutability": "nonpayable",
      "type": "function"
    },
    {
      "inputs": [],
      "name": "priceProvider",
      "outputs": [
        {
          "internalType": "address",
          "name": "",
          "type": "address"
        }
      ],
      "stateMutability": "view",
      "type": "function"
    },
    {
      "inputs": [],
      "name": "rebasePaused",
      "outputs": [
        {
          "internalType": "bool",
          "name": "",
          "type": "bool"
        }
      ],
      "stateMutability": "view",
      "type": "function"
    },
    {
      "inputs": [],
      "name": "rebaseThreshold",
      "outputs": [
        {
          "internalType": "uint256",
          "name": "",
          "type": "uint256"
        }
      ],
      "stateMutability": "view",
      "type": "function"
    },
    {
      "inputs": [],
      "name": "redeemFeeBps",
      "outputs": [
        {
          "internalType": "uint256",
          "name": "",
          "type": "uint256"
        }
      ],
      "stateMutability": "view",
      "type": "function"
    },
    {
      "inputs": [
        {
          "internalType": "address",
          "name": "_asset",
          "type": "address"
        }
      ],
      "name": "removeAsset",
      "outputs": [],
      "stateMutability": "nonpayable",
      "type": "function"
    },
    {
      "inputs": [
        {
          "internalType": "address",
          "name": "_addr",
          "type": "address"
        }
      ],
      "name": "removeStrategy",
      "outputs": [],
      "stateMutability": "nonpayable",
      "type": "function"
    },
    {
      "inputs": [
        {
          "internalType": "address",
          "name": "newImpl",
          "type": "address"
        }
      ],
      "name": "setAdminImpl",
      "outputs": [],
      "stateMutability": "nonpayable",
      "type": "function"
    },
    {
      "inputs": [
        {
          "internalType": "address",
          "name": "_asset",
          "type": "address"
        },
        {
          "internalType": "address",
          "name": "_strategy",
          "type": "address"
        }
      ],
      "name": "setAssetDefaultStrategy",
      "outputs": [],
      "stateMutability": "nonpayable",
      "type": "function"
    },
    {
      "inputs": [
        {
          "internalType": "uint256",
          "name": "_threshold",
          "type": "uint256"
        }
      ],
      "name": "setAutoAllocateThreshold",
      "outputs": [],
      "stateMutability": "nonpayable",
      "type": "function"
    },
    {
      "inputs": [
        {
          "internalType": "address",
          "name": "_dripper",
          "type": "address"
        }
      ],
      "name": "setDripper",
      "outputs": [],
      "stateMutability": "nonpayable",
      "type": "function"
    },
    {
      "inputs": [
        {
          "internalType": "uint256",
          "name": "_maxSupplyDiff",
          "type": "uint256"
        }
      ],
      "name": "setMaxSupplyDiff",
      "outputs": [],
      "stateMutability": "nonpayable",
      "type": "function"
    },
    {
      "inputs": [
        {
          "internalType": "uint256",
          "name": "_threshold",
          "type": "uint256"
        }
      ],
      "name": "setNetOusdMintForStrategyThreshold",
      "outputs": [],
      "stateMutability": "nonpayable",
      "type": "function"
    },
    {
      "inputs": [
        {
          "internalType": "address",
          "name": "_asset",
          "type": "address"
        },
        {
          "internalType": "uint16",
          "name": "_allowedOracleSlippageBps",
          "type": "uint16"
        }
      ],
      "name": "setOracleSlippage",
      "outputs": [],
      "stateMutability": "nonpayable",
      "type": "function"
    },
    {
      "inputs": [
        {
          "internalType": "address",
          "name": "_ousdMetaStrategy",
          "type": "address"
        }
      ],
      "name": "setOusdMetaStrategy",
      "outputs": [],
      "stateMutability": "nonpayable",
      "type": "function"
    },
    {
      "inputs": [
        {
          "internalType": "address",
          "name": "_priceProvider",
          "type": "address"
        }
      ],
      "name": "setPriceProvider",
      "outputs": [],
      "stateMutability": "nonpayable",
      "type": "function"
    },
    {
      "inputs": [
        {
          "internalType": "uint256",
          "name": "_threshold",
          "type": "uint256"
        }
      ],
      "name": "setRebaseThreshold",
      "outputs": [],
      "stateMutability": "nonpayable",
      "type": "function"
    },
    {
      "inputs": [
        {
          "internalType": "uint256",
          "name": "_redeemFeeBps",
          "type": "uint256"
        }
      ],
      "name": "setRedeemFeeBps",
      "outputs": [],
      "stateMutability": "nonpayable",
      "type": "function"
    },
    {
      "inputs": [
        {
          "internalType": "address",
          "name": "_address",
          "type": "address"
        }
      ],
      "name": "setStrategistAddr",
      "outputs": [],
      "stateMutability": "nonpayable",
      "type": "function"
    },
    {
      "inputs": [
        {
          "internalType": "uint16",
          "name": "_basis",
          "type": "uint16"
        }
      ],
      "name": "setSwapAllowedUndervalue",
      "outputs": [],
      "stateMutability": "nonpayable",
      "type": "function"
    },
    {
      "inputs": [
        {
          "internalType": "address",
          "name": "_swapperAddr",
          "type": "address"
        }
      ],
      "name": "setSwapper",
      "outputs": [],
      "stateMutability": "nonpayable",
      "type": "function"
    },
    {
      "inputs": [
        {
          "internalType": "address",
          "name": "_address",
          "type": "address"
        }
      ],
      "name": "setTrusteeAddress",
      "outputs": [],
      "stateMutability": "nonpayable",
      "type": "function"
    },
    {
      "inputs": [
        {
          "internalType": "uint256",
          "name": "_basis",
          "type": "uint256"
        }
      ],
      "name": "setTrusteeFeeBps",
      "outputs": [],
      "stateMutability": "nonpayable",
      "type": "function"
    },
    {
      "inputs": [
        {
          "internalType": "uint256",
          "name": "_vaultBuffer",
          "type": "uint256"
        }
      ],
      "name": "setVaultBuffer",
      "outputs": [],
      "stateMutability": "nonpayable",
      "type": "function"
    },
    {
      "inputs": [],
      "name": "strategistAddr",
      "outputs": [
        {
          "internalType": "address",
          "name": "",
          "type": "address"
        }
      ],
      "stateMutability": "view",
      "type": "function"
    },
    {
      "inputs": [
        {
          "internalType": "address",
          "name": "_asset",
          "type": "address"
        },
        {
          "internalType": "uint8",
          "name": "_unitConversion",
          "type": "uint8"
        }
      ],
      "name": "supportAsset",
      "outputs": [],
      "stateMutability": "nonpayable",
      "type": "function"
    },
    {
      "inputs": [
        {
          "internalType": "address",
          "name": "_fromAsset",
          "type": "address"
        },
        {
          "internalType": "address",
          "name": "_toAsset",
          "type": "address"
        },
        {
          "internalType": "uint256",
          "name": "_fromAssetAmount",
          "type": "uint256"
        },
        {
          "internalType": "uint256",
          "name": "_minToAssetAmount",
          "type": "uint256"
        },
        {
          "internalType": "bytes",
          "name": "_data",
          "type": "bytes"
        }
      ],
      "name": "swapCollateral",
      "outputs": [
        {
          "internalType": "uint256",
          "name": "toAssetAmount",
          "type": "uint256"
        }
      ],
      "stateMutability": "nonpayable",
      "type": "function"
    },
    {
      "inputs": [],
      "name": "swapper",
      "outputs": [
        {
          "internalType": "address",
          "name": "swapper_",
          "type": "address"
        }
      ],
      "stateMutability": "view",
      "type": "function"
    },
    {
      "inputs": [
        {
          "internalType": "address",
          "name": "_newGovernor",
          "type": "address"
        }
      ],
      "name": "transferGovernance",
      "outputs": [],
      "stateMutability": "nonpayable",
      "type": "function"
    },
    {
      "inputs": [
        {
          "internalType": "address",
          "name": "_asset",
          "type": "address"
        },
        {
          "internalType": "uint256",
          "name": "_amount",
          "type": "uint256"
        }
      ],
      "name": "transferToken",
      "outputs": [],
      "stateMutability": "nonpayable",
      "type": "function"
    },
    {
      "inputs": [],
      "name": "trusteeAddress",
      "outputs": [
        {
          "internalType": "address",
          "name": "",
          "type": "address"
        }
      ],
      "stateMutability": "view",
      "type": "function"
    },
    {
      "inputs": [],
      "name": "trusteeFeeBps",
      "outputs": [
        {
          "internalType": "uint256",
          "name": "",
          "type": "uint256"
        }
      ],
      "stateMutability": "view",
      "type": "function"
    },
    {
      "inputs": [],
      "name": "unpauseCapital",
      "outputs": [],
      "stateMutability": "nonpayable",
      "type": "function"
    },
    {
      "inputs": [],
      "name": "unpauseRebase",
      "outputs": [],
      "stateMutability": "nonpayable",
      "type": "function"
    },
    {
      "inputs": [],
      "name": "vaultBuffer",
      "outputs": [
        {
          "internalType": "uint256",
          "name": "",
          "type": "uint256"
        }
      ],
      "stateMutability": "view",
      "type": "function"
    },
    {
      "inputs": [],
      "name": "weth",
      "outputs": [
        {
          "internalType": "address",
          "name": "",
          "type": "address"
        }
      ],
      "stateMutability": "view",
      "type": "function"
    },
    {
      "inputs": [],
      "name": "withdrawAllFromStrategies",
      "outputs": [],
      "stateMutability": "nonpayable",
      "type": "function"
    },
    {
      "inputs": [
        {
          "internalType": "address",
          "name": "_strategyAddr",
          "type": "address"
        }
      ],
      "name": "withdrawAllFromStrategy",
      "outputs": [],
      "stateMutability": "nonpayable",
      "type": "function"
    },
    {
      "inputs": [
        {
          "internalType": "address",
          "name": "_strategyFromAddress",
          "type": "address"
        },
        {
          "internalType": "address[]",
          "name": "_assets",
          "type": "address[]"
        },
        {
          "internalType": "uint256[]",
          "name": "_amounts",
          "type": "uint256[]"
        }
      ],
      "name": "withdrawFromStrategy",
      "outputs": [],
      "stateMutability": "nonpayable",
      "type": "function"
    },
    {
      "inputs": [],
      "name": "withdrawalQueueMetadata",
      "outputs": [
        {
          "internalType": "uint128",
          "name": "queued",
          "type": "uint128"
        },
        {
          "internalType": "uint128",
          "name": "claimable",
          "type": "uint128"
        },
        {
          "internalType": "uint128",
          "name": "claimed",
          "type": "uint128"
        },
        {
          "internalType": "uint128",
          "name": "nextWithdrawalIndex",
          "type": "uint128"
        }
      ],
      "stateMutability": "view",
      "type": "function"
    },
    {
      "inputs": [
        {
          "internalType": "uint256",
          "name": "",
          "type": "uint256"
        }
      ],
      "name": "withdrawalRequests",
      "outputs": [
        {
          "internalType": "address",
          "name": "withdrawer",
          "type": "address"
        },
        {
          "internalType": "bool",
          "name": "claimed",
          "type": "bool"
        },
        {
          "internalType": "uint128",
          "name": "amount",
          "type": "uint128"
        },
        {
          "internalType": "uint128",
          "name": "queued",
          "type": "uint128"
        }
      ],
      "stateMutability": "view",
      "type": "function"
    }
  ],
  "transactionHash": "0xcbe9723c967f2ca8cd45fd0b0d7060699b801811bf5e4d5a07eb76f72e60bc54",
  "args": [
    "0x94373a4919B3240D86eA41593D5eBa789FEF3848"
  ],
  "numDeployments": 2,
  "solcInputHash": "9b811e7a632431f9f724307daee2b897",
  "bytecode": "0x6037805461ffff60a01b1916600160a81b179055603d80546001600160a01b0319908116909155603e805482169055603f80548216905560458054909116905560006046819055604781905560e060405260a081905260c052604880546001600160b01b03191690553480156200007557600080fd5b50604051620041c1380380620041c183398101604081905262000098916200010e565b620000b033600080516020620041a183398151915255565b600080516020620041a1833981519152546040516001600160a01b03909116906000907fc7c0c772add429241571afb3805861fb3cfa2af374534088b76cdb4325a87e9a908290a360601b6001600160601b03191660805262000140565b6000602082840312156200012157600080fd5b81516001600160a01b03811681146200013957600080fd5b9392505050565b60805160601c61401f62000182600039600081816105080152818161251b0152818161259d01528181612814015281816129440152613415015261401f6000f3fe608060405234801561001057600080fd5b50600436106103835760003560e01c8063636e6c40116101de578063ae69f3cb1161010f578063c9919112116100ad578063e6cc54321161007c578063e6cc5432146107f8578063e829cc161461080c578063eb03654b1461081f578063fc0cfeee1461083257600080fd5b8063c9919112146107c1578063d38bfff4146107c9578063d58e3b3a146107dc578063e45cc9f0146107ef57600080fd5b8063b890ebf6116100e9578063b890ebf61461078b578063bc90106b1461079e578063c5f00841146107b1578063c7af3352146107b957600080fd5b8063ae69f3cb14610752578063b2c9336d14610765578063b888879e1461077857600080fd5b80638e510b521161017c57806394828ffd1161015657806394828ffd146107055780639c82f2a41461070d5780639fa1826e14610720578063a403e4d51461072957600080fd5b80638e510b521461065f5780638ec489a214610668578063937b25811461067b57600080fd5b8063773540b3116101b8578063773540b31461061d5780637a2202f3146106305780637b9a709614610639578063840c4c7a1461064c57600080fd5b8063636e6c40146105e4578063663e64ce146105f75780636c7561e81461060a57600080fd5b8063372aa224116102b857806350ba711c11610256578063570d8e1d11610230578063570d8e1d146105a3578063597c8910146105b65780635d36b190146105c9578063603ea03b146105d157600080fd5b806350ba711c1461056357806352d38e5d1461057657806353ca9f241461057f57600080fd5b80633fc8cef3116102925780633fc8cef31461050357806349c1d54d1461052a5780634a5e42b11461053d5780634bed3bc01461055057600080fd5b8063372aa224146104d55780633b8ae397146104e85780633dbc911f146104fb57600080fd5b80631edfe3da116103255780632da845a8116102ff5780632da845a81461043d5780632e9958ab14610450578063362bd1a31461046357806336b6d944146104c257600080fd5b80631edfe3da1461041a578063207134b0146104235780632b3297f91461042c57600080fd5b80630c340a24116103615780630c340a24146103c15780631072cbea146103e1578063175188e8146103f457806318ce56bd1461040757600080fd5b806309f49bf51461038857806309f6442c146103925780630acbda75146103ae575b600080fd5b610390610845565b005b61039b60385481565b6040519081526020015b60405180910390f35b6103906103bc366004613bb6565b6108be565b6103c9610970565b6040516001600160a01b0390911681526020016103a5565b6103906103ef366004613b18565b61098d565b610390610402366004613979565b610a3a565b6045546103c9906001600160a01b031681565b61039b60395481565b61039b60435481565b6048546001600160a01b03166103c9565b61039061044b366004613979565b610d3b565b61039061045e366004613979565b610dad565b604a54604b5461048f916001600160801b0380821692600160801b928390048216928183169291041684565b604080516001600160801b03958616815293851660208501529184169183019190915290911660608201526080016103a5565b6103906104d0366004613979565b610e1b565b6103906104e3366004613979565b610e4b565b6103906104f6366004613979565b610ebd565b610390610ffa565b6103c97f000000000000000000000000000000000000000000000000000000000000000081565b6042546103c9906001600160a01b031681565b61039061054b366004613979565b611070565b604854600160a01b900461ffff1661039b565b61039b6105713660046139c7565b61137d565b61039b603b5481565b60375461059390600160a01b900460ff1681565b60405190151581526020016103a5565b603f546103c9906001600160a01b031681565b6103906105c4366004613979565b611420565b610390611461565b6049546103c9906001600160a01b031681565b6103906105f2366004613bb6565b611507565b610390610605366004613bb6565b611565565b610390610618366004613b42565b6115be565b61039061062b366004613979565b61183c565b61039b60475481565b610390610647366004613aee565b6118ae565b61039061065a366004613a6d565b6119e4565b61039b60415481565b610390610676366004613bb6565b611a7d565b6106cc610689366004613bb6565b604c60205260009081526040902080546001909101546001600160a01b03821691600160a01b900460ff16906001600160801b0380821691600160801b90041684565b604080516001600160a01b03909516855292151560208501526001600160801b03918216928401929092521660608201526080016103a5565b610390611b32565b61039061071b366004613979565b611ba2565b61039b603a5481565b6103c9610737366004613979565b6040602081905260009182529020546001600160a01b031681565b610390610760366004613a6d565b611c14565b610390610773366004613bb6565b611ca2565b6037546103c9906001600160a01b031681565b610390610799366004613bb6565b611cfb565b6103906107ac366004613994565b611d54565b610390611f96565b61059361200c565b61039061203d565b6103906107d7366004613979565b61207d565b6103906107ea366004613979565b612121565b61039b60465481565b60375461059390600160a81b900460ff1681565b61039061081a366004613b9b565b612193565b61039061082d366004613bb6565b612253565b610390610840366004613979565b612308565b603f546001600160a01b0316331480610861575061086161200c565b6108865760405162461bcd60e51b815260040161087d90613ce7565b60405180910390fd5b6037805460ff60a01b191690556040517fbc044409505c95b6b851433df96e1beae715c909d8e7c1d6d7ab783300d4e3b990600090a1565b6108c661200c565b6108e25760405162461bcd60e51b815260040161087d90613cb0565b6113888111156109345760405162461bcd60e51b815260206004820152601760248201527f62617369732063616e6e6f742065786365656420353025000000000000000000604482015260640161087d565b60438190556040518181527f56287a45051933ea374811b3d5d165033047be5572cac676f7c28b8be4f746c7906020015b60405180910390a150565b6000610988600080516020613fca8339815191525490565b905090565b61099561200c565b6109b15760405162461bcd60e51b815260040161087d90613cb0565b6001600160a01b03821660009081526033602052604090205460ff1615610a1a5760405162461bcd60e51b815260206004820152601760248201527f4f6e6c7920756e737570706f7274656420617373657473000000000000000000604482015260640161087d565b610a36610a25610970565b6001600160a01b03841690836123aa565b5050565b610a4261200c565b610a5e5760405162461bcd60e51b815260040161087d90613cb0565b6001600160a01b03811660009081526035602052604090205460ff16610abe5760405162461bcd60e51b815260206004820152601560248201527414dd1c985d1959de481b9bdd08185c1c1c9bdd9959605a1b604482015260640161087d565b60345460005b81811015610b7657826001600160a01b03166040600060348481548110610aed57610aed613fa4565b60009182526020808320909101546001600160a01b039081168452908301939093526040909101902054161415610b665760405162461bcd60e51b815260206004820181905260248201527f53747261746567792069732064656661756c7420666f7220616e206173736574604482015260640161087d565b610b6f81613f47565b9050610ac4565b506036548060005b82811015610bd657846001600160a01b031660368281548110610ba357610ba3613fa4565b6000918252602090912001546001600160a01b03161415610bc657809150610bd6565b610bcf81613f47565b9050610b7e565b5081811015610d35576036610bec600184613f04565b81548110610bfc57610bfc613fa4565b600091825260209091200154603680546001600160a01b039092169183908110610c2857610c28613fa4565b9060005260206000200160006101000a8154816001600160a01b0302191690836001600160a01b031602179055506036805480610c6757610c67613f8e565b60008281526020808220830160001990810180546001600160a01b03191690559092019092556001600160a01b03861680835260359091526040808320805460ff19169055805163429c145b60e11b81529051879363853828b6926004808201939182900301818387803b158015610cde57600080fd5b505af1158015610cf2573d6000803e3d6000fd5b50506040516001600160a01b03881681527f09a1db4b80c32706328728508c941a6b954f31eb5affd32f236c1fd405f8fea49250602001905060405180910390a1505b50505050565b610d4361200c565b610d5f5760405162461bcd60e51b815260040161087d90613cb0565b604280546001600160a01b0319166001600160a01b0383169081179091556040519081527f1e4af5ac389e8cde1bdaa6830881b6c987c62a45cfb3b33d27d805cde3b5775090602001610965565b610db561200c565b610dd15760405162461bcd60e51b815260040161087d90613cb0565b604980546001600160a01b0319166001600160a01b0383169081179091556040517faf2910d9759321733de15af1827a49830692912adeb2b3646334861f2cd2eed490600090a250565b610e2361200c565b610e3f5760405162461bcd60e51b815260040161087d90613cb0565b610e4881612401565b50565b610e5361200c565b610e6f5760405162461bcd60e51b815260040161087d90613cb0565b603780546001600160a01b0319166001600160a01b0383169081179091556040519081527fb266add5f3044b17d27db796af992cecbe413921b4e8aaaee03c719e16b9806a90602001610965565b610ec561200c565b610ee15760405162461bcd60e51b815260040161087d90613cb0565b6001600160a01b03811660009081526035602052604090205460ff1615610f4a5760405162461bcd60e51b815260206004820152601960248201527f537472617465677920616c726561647920617070726f76656400000000000000604482015260640161087d565b6040805180820182526001808252600060208084018281526001600160a01b038716808452603583528684209551865460ff19169015151786559051948401949094556036805493840181559091527f4a11f94e20a93c79f6ec743a1954ec4fc2c08429ae2122118bf234b2185c81b890910180546001600160a01b0319168317905591519081527f960dd94cbb79169f09a4e445d58b895df2d9bffa5b31055d0932d801724a20d19101610965565b603f546001600160a01b0316331480611016575061101661200c565b6110325760405162461bcd60e51b815260040161087d90613ce7565b6037805460ff60a81b1916600160a81b1790556040517f71f0e5b62f846a22e0b4d159e516e62fa9c2b8eb570be15f83e67d98a2ee51e090600090a1565b61107861200c565b6110945760405162461bcd60e51b815260040161087d90613cb0565b6001600160a01b03811660009081526033602052604090205460ff166110f25760405162461bcd60e51b8152602060048201526013602482015272105cdcd95d081b9bdd081cdd5c1c1bdc9d1959606a1b604482015260640161087d565b604051632fa8a91360e11b81526001600160a01b03821660048201526509184e72a000903090635f5152269060240160206040518083038186803b15801561113957600080fd5b505afa15801561114d573d6000803e3d6000fd5b505050506040513d601f19601f820116820180604052508101906111719190613bcf565b11156111bf5760405162461bcd60e51b815260206004820152601760248201527f5661756c74207374696c6c20686f6c6473206173736574000000000000000000604482015260640161087d565b6034548060005b8281101561121e57836001600160a01b0316603482815481106111eb576111eb613fa4565b6000918252602090912001546001600160a01b0316141561120e5780915061121e565b61121781613f47565b90506111c6565b50603461122c600184613f04565b8154811061123c5761123c613fa4565b600091825260209091200154603480546001600160a01b03909216918390811061126857611268613fa4565b9060005260206000200160006101000a8154816001600160a01b0302191690836001600160a01b0316021790555060348054806112a7576112a7613f8e565b60008281526020808220600019908401810180546001600160a01b031990811690915593019093556001600160a01b038616808252604080855280832080549094169093558251908152928301527fba58ce12801c949fa65f41c46ed108671c219baf945fa48d21026cea99ff252a910160405180910390a16001600160a01b038316600081815260336020908152604091829020805464ffffffffff1916905590519182527f37803e2125c48ee96c38ddf04e826daf335b0e1603579040fd275aba6d06b6fc910160405180910390a1505050565b7f53bf423e48ed90e97d02ab0ebab13b2a235a6bfbe9c321847d5c175333ac453580546000919060028114156113c55760405162461bcd60e51b815260040161087d90613d2f565b60028255603f546001600160a01b03163314806113e557506113e561200c565b6114015760405162461bcd60e51b815260040161087d90613ce7565b61140f898989898989612517565b600190925550979650505050505050565b603f546001600160a01b031633148061143c575061143c61200c565b6114585760405162461bcd60e51b815260040161087d90613ce7565b610e488161267d565b7f44c4d30b2eaad5130ad70c3ba6972730566f3e6359ab83e800d905c61b1c51db546001600160a01b0316336001600160a01b0316146114fc5760405162461bcd60e51b815260206004820152603060248201527f4f6e6c79207468652070656e64696e6720476f7665726e6f722063616e20636f60448201526f6d706c6574652074686520636c61696d60801b606482015260840161087d565b611505336126dc565b565b61150f61200c565b61152b5760405162461bcd60e51b815260040161087d90613cb0565b600060465560478190556040518181527fc29d6fedbc6bdf267a08166c2b976fbd72aca5d6a769528616f8b9224c8f197f90602001610965565b61156d61200c565b6115895760405162461bcd60e51b815260040161087d90613cb0565b60418190556040518181527f95201f9c21f26877223b1ff4073936a6484c35495649e60e55730497aeb60d9390602001610965565b6115c661200c565b6115e25760405162461bcd60e51b815260040161087d90613cb0565b6001600160a01b03821660009081526033602052604090205460ff161561164b5760405162461bcd60e51b815260206004820152601760248201527f417373657420616c726561647920737570706f72746564000000000000000000604482015260640161087d565b60405180608001604052806001151581526020018260ff16600181111561167457611674613f78565b600181111561168557611685613f78565b81526000602080830182905260409283018290526001600160a01b0386168252603381529190208251815490151560ff19821681178355928401519192839161ff001990911661ffff19909116176101008360018111156116e8576116e8613f78565b02179055506040820151815460609093015161ffff1663010000000264ffff0000001960ff90921662010000029190911664ffffff0000199093169290921791909117905561173682612401565b603480546001810182556000919091527f46bddb1178e94d7f2892ff5f366840eb658911794f2c3a44c450aa2c505186c10180546001600160a01b0319166001600160a01b038481169182179092556037546040516315d5220f60e31b815260048101929092529091169063aea910789060240160206040518083038186803b1580156117c257600080fd5b505afa1580156117d6573d6000803e3d6000fd5b505050506040513d601f19601f820116820180604052508101906117fa9190613bcf565b506040516001600160a01b03831681527f4f1ac48525e50059cc1cc6e0e1940ece0dd653a4db4841538d6aef036be2fb7b906020015b60405180910390a15050565b61184461200c565b6118605760405162461bcd60e51b815260040161087d90613cb0565b603f80546001600160a01b0319166001600160a01b0383169081179091556040519081527f869e0abd13cc3a975de7b93be3df1cb2255c802b1cead85963cc79d99f131bee90602001610965565b6118b661200c565b6118d25760405162461bcd60e51b815260040161087d90613cb0565b6001600160a01b03821660009081526033602052604090205460ff166119305760405162461bcd60e51b8152602060048201526013602482015272105cdcd95d081b9bdd081cdd5c1c1bdc9d1959606a1b604482015260640161087d565b6103e88161ffff16106119795760405162461bcd60e51b81526020600482015260116024820152700a6d8d2e0e0c2ceca40e8dede40d0d2ced607b1b604482015260640161087d565b6001600160a01b038216600081815260336020908152604091829020805464ffff0000001916630100000061ffff8716908102919091179091558251938452908301527f8d22e9d2cbe8bb65a3c4412bd8970743864512a1a0e004e8d00fb96277b78b949101611830565b603f546001600160a01b0316331480611a005750611a0061200c565b611a1c5760405162461bcd60e51b815260040161087d90613ce7565b7f53bf423e48ed90e97d02ab0ebab13b2a235a6bfbe9c321847d5c175333ac453580546002811415611a605760405162461bcd60e51b815260040161087d90613d2f565b60028255611a71878787878761279d565b50600190555050505050565b603f546001600160a01b0316331480611a995750611a9961200c565b611ab55760405162461bcd60e51b815260040161087d90613ce7565b670de0b6b3a7640000811115611afd5760405162461bcd60e51b815260206004820152600d60248201526c496e76616c69642076616c756560981b604482015260640161087d565b60398190556040518181527f41ecb23a0e7865b25f38c268b7c3012220d822929e9edff07326e89d5bb822b590602001610965565b603f546001600160a01b0316331480611b4e5750611b4e61200c565b611b6a5760405162461bcd60e51b815260040161087d90613ce7565b6037805460ff60a81b191690556040517f891ebab18da80ebeeea06b1b1cede098329c4c008906a98370c2ac7a80b571cb90600090a1565b611baa61200c565b611bc65760405162461bcd60e51b815260040161087d90613cb0565b604880546001600160a01b0319166001600160a01b0383169081179091556040519081527f7d7719313229e558c5a3893cad2eb86a86a049156d1d9ebd5c63a8eedefd1c0390602001610965565b603f546001600160a01b0316331480611c305750611c3061200c565b611c4c5760405162461bcd60e51b815260040161087d90613ce7565b7f53bf423e48ed90e97d02ab0ebab13b2a235a6bfbe9c321847d5c175333ac453580546002811415611c905760405162461bcd60e51b815260040161087d90613d2f565b60028255611a713088888888886129d5565b611caa61200c565b611cc65760405162461bcd60e51b815260040161087d90613cb0565b603a8190556040518181527f2ec5fb5a3d2703edc461252d92ccd2799c3c74f01d97212b20388207fa17ae4590602001610965565b611d0361200c565b611d1f5760405162461bcd60e51b815260040161087d90613cb0565b603b8190556040518181527f39367850377ac04920a9a670f2180e7a94d83b15ad302e59875ec58fd10bd37d90602001610965565b603f546001600160a01b0316331480611d705750611d7061200c565b611d8c5760405162461bcd60e51b815260040161087d90613ce7565b604080516001600160a01b038085168252831660208201527fba58ce12801c949fa65f41c46ed108671c219baf945fa48d21026cea99ff252a910160405180910390a16001600160a01b03811615611f68576001600160a01b03811660009081526035602052604090205460ff16611e3e5760405162461bcd60e51b815260206004820152601560248201527414dd1c985d1959de481b9bdd08185c1c1c9bdd9959605a1b604482015260640161087d565b6001600160a01b038216600090815260336020526040902054819060ff16611ea15760405162461bcd60e51b8152602060048201526016602482015275105cdcd95d081a5cc81b9bdd081cdd5c1c1bdc9d195960521b604482015260640161087d565b60405163551c457b60e11b81526001600160a01b03848116600483015282169063aa388af69060240160206040518083038186803b158015611ee257600080fd5b505afa158015611ef6573d6000803e3d6000fd5b505050506040513d601f19601f82011682018060405250810190611f1a9190613b79565b611f665760405162461bcd60e51b815260206004820152601f60248201527f4173736574206e6f7420737570706f7274656420627920537472617465677900604482015260640161087d565b505b6001600160a01b03918216600090815260406020819052902080546001600160a01b03191691909216179055565b603f546001600160a01b0316331480611fb25750611fb261200c565b611fce5760405162461bcd60e51b815260040161087d90613ce7565b6037805460ff60a01b1916600160a01b1790556040517f8cff26a5985614b3d30629cc4ab83824bf115aec971b718d8f2f99562032e97290600090a1565b6000612024600080516020613fca8339815191525490565b6001600160a01b0316336001600160a01b031614905090565b603f546001600160a01b0316331480612059575061205961200c565b6120755760405162461bcd60e51b815260040161087d90613ce7565b611505612a3e565b61208561200c565b6120a15760405162461bcd60e51b815260040161087d90613cb0565b6120c9817f44c4d30b2eaad5130ad70c3ba6972730566f3e6359ab83e800d905c61b1c51db55565b806001600160a01b03166120e9600080516020613fca8339815191525490565b6001600160a01b03167fa39cc5eb22d0f34d8beaefee8a3f17cc229c1a1d1ef87a5ad47313487b1c4f0d60405160405180910390a350565b61212961200c565b6121455760405162461bcd60e51b815260040161087d90613cb0565b604580546001600160a01b0319166001600160a01b0383169081179091556040519081527fa12850fb726e0b2b7b3c9a9342031e1268a8148d0eb06b4bea8613204ffcd2b890602001610965565b61219b61200c565b6121b75760405162461bcd60e51b815260040161087d90613cb0565b6127118161ffff16106122035760405162461bcd60e51b8152602060048201526014602482015273496e76616c696420626173697320706f696e747360601b604482015260640161087d565b6048805461ffff60a01b1916600160a01b61ffff8416908102919091179091556040519081527ff12c00256bee2b6facb111a88a9b1cff86e79132939b44f1353212d6f746955790602001610965565b61225b61200c565b6122775760405162461bcd60e51b815260040161087d90613cb0565b6103e88111156122d35760405162461bcd60e51b815260206004820152602160248201527f52656465656d206665652073686f756c64206e6f74206265206f7665722031306044820152602560f81b606482015260840161087d565b60388190556040518181527fd6c7508d6658ccee36b7b7d7fd72e5cbaeefb40c64eff24e9ae7470e846304ee90602001610965565b61231061200c565b61232c5760405162461bcd60e51b815260040161087d90613cb0565b803b6123865760405162461bcd60e51b8152602060048201526024808201527f6e657720696d706c656d656e746174696f6e206973206e6f74206120636f6e746044820152631c9858dd60e21b606482015260840161087d565b7fa2bd3d3cf188a41358c8b401076eb59066b09dec5775650c0de4c55187d17bd955565b604080516001600160a01b038416602482015260448082018490528251808303909101815260649091019091526020810180516001600160e01b031663a9059cbb60e01b1790526123fc908490612a95565b505050565b6001600160a01b0381166000908152603360205260409020805462010000900460ff161561242d575050565b6000826001600160a01b031663313ce5676040518163ffffffff1660e01b815260040160206040518083038186803b15801561246857600080fd5b505afa15801561247c573d6000803e3d6000fd5b505050506040513d601f19601f820116820180604052508101906124a09190613be8565b905060068160ff16101580156124ba575060128160ff1611155b6124fd5760405162461bcd60e51b81526020600482015260146024820152732ab732bc3832b1ba32b210383932b1b4b9b4b7b760611b604482015260640161087d565b815460ff909116620100000262ff00001990911617905550565b60007f00000000000000000000000000000000000000000000000000000000000000006001600160a01b0316876001600160a01b0316141561259b5760405162461bcd60e51b815260206004820152601c60248201527f737761702066726f6d2057455448206e6f7420737570706f7274656400000000604482015260640161087d565b7f00000000000000000000000000000000000000000000000000000000000000006001600160a01b0316866001600160a01b0316146126105760405162461bcd60e51b81526020600482015260116024820152700dedcd8f240e6eec2e040e8de40ae8aa89607b1b604482015260640161087d565b61261e878787878787612b67565b9050306001600160a01b031663b9b17f9f6040518163ffffffff1660e01b8152600401600060405180830381600087803b15801561265b57600080fd5b505af115801561266f573d6000803e3d6000fd5b505050509695505050505050565b612686816132d1565b306001600160a01b031663b9b17f9f6040518163ffffffff1660e01b8152600401600060405180830381600087803b1580156126c157600080fd5b505af11580156126d5573d6000803e3d6000fd5b5050505050565b6001600160a01b0381166127325760405162461bcd60e51b815260206004820152601a60248201527f4e657720476f7665726e6f722069732061646472657373283029000000000000604482015260640161087d565b806001600160a01b0316612752600080516020613fca8339815191525490565b6001600160a01b03167fc7c0c772add429241571afb3805861fb3cfa2af374534088b76cdb4325a87e9a60405160405180910390a3610e4881600080516020613fca83398151915255565b6001600160a01b03851660009081526035602052604090205460ff166127fb5760405162461bcd60e51b8152602060048201526013602482015272496e76616c696420746f20537472617465677960681b604482015260640161087d565b60018314801561280b5750600181145b801561286f57507f00000000000000000000000000000000000000000000000000000000000000006001600160a01b03168484600081811061284f5761284f613fa4565b90506020020160208101906128649190613979565b6001600160a01b0316145b6128b45760405162461bcd60e51b815260206004820152601660248201527513db9b1e4815d15512081a5cc81cdd5c1c1bdc9d195960521b604482015260640161087d565b6128bc613395565b828260008181106128cf576128cf613fa4565b9050602002013511156129245760405162461bcd60e51b815260206004820152601960248201527f4e6f7420656e6f756768205745544820617661696c61626c6500000000000000604482015260640161087d565b61297b858383600081811061293b5761293b613fa4565b905060200201357f00000000000000000000000000000000000000000000000000000000000000006001600160a01b03166123aa9092919063ffffffff16565b846001600160a01b031663de5f62686040518163ffffffff1660e01b8152600401600060405180830381600087803b1580156129b657600080fd5b505af11580156129ca573d6000803e3d6000fd5b505050505050505050565b6129e38686868686866134e2565b306001600160a01b031663b9b17f9f6040518163ffffffff1660e01b8152600401600060405180830381600087803b158015612a1e57600080fd5b505af1158015612a32573d6000803e3d6000fd5b50505050505050505050565b612a46613670565b306001600160a01b031663b9b17f9f6040518163ffffffff1660e01b8152600401600060405180830381600087803b158015612a8157600080fd5b505af1158015610d35573d6000803e3d6000fd5b6000612aea826040518060400160405280602081526020017f5361666545524332303a206c6f772d6c6576656c2063616c6c206661696c6564815250856001600160a01b03166137029092919063ffffffff16565b8051909150156123fc5780806020019051810190612b089190613b79565b6123fc5760405162461bcd60e51b815260206004820152602a60248201527f5361666545524332303a204552433230206f7065726174696f6e20646964206e6044820152691bdd081cdd58d8d9595960b21b606482015260840161087d565b6001600160a01b0386166000908152603360209081526040808320815160808101909252805460ff8082161515845285948401916101009004166001811115612bb257612bb2613f78565b6001811115612bc357612bc3613f78565b8152905462010000810460ff908116602080850191909152630100000090920461ffff166040938401526001600160a01b038b1660009081526033835283812084516080810190955280548084161515865295965090949092840191610100909104166001811115612c3757612c37613f78565b6001811115612c4857612c48613f78565b8152905462010000810460ff1660208301526301000000900461ffff166040909101528251909150612cbc5760405162461bcd60e51b815260206004820152601b60248201527f46726f6d206173736574206973206e6f7420737570706f727465640000000000604482015260640161087d565b8051612d0a5760405162461bcd60e51b815260206004820152601960248201527f546f206173736574206973206e6f7420737570706f7274656400000000000000604482015260640161087d565b6040805180820182526048546001600160a01b038082168352600160a01b90910461ffff16602083015291516370a0823160e01b81523060048201529091600091908b16906370a082319060240160206040518083038186803b158015612d7057600080fd5b505afa158015612d84573d6000803e3d6000fd5b505050506040513d601f19601f82011682018060405250810190612da89190613bcf565b8251909150612dc2906001600160a01b038d16908b6123aa565b81516001600160a01b0316632506c0188c8c612ddf60018e613f04565b8c8c8c6040518763ffffffff1660e01b8152600401612e0396959493929190613c21565b602060405180830381600087803b158015612e1d57600080fd5b505af1158015612e31573d6000803e3d6000fd5b505050506040513d601f19601f82011682018060405250810190612e559190613bcf565b506040516370a0823160e01b815230600482015281906001600160a01b038c16906370a082319060240160206040518083038186803b158015612e9757600080fd5b505afa158015612eab573d6000803e3d6000fd5b505050506040513d601f19601f82011682018060405250810190612ecf9190613bcf565b612ed99190613f04565b94505086841015612f2c5760405162461bcd60e51b815260206004820152601960248201527f5374726174656769737420736c697070616765206c696d697400000000000000604482015260640161087d565b60008260600151612710612f409190613d57565b6037546040516315d5220f60e31b81526001600160a01b038d8116600483015261ffff93909316929091169063aea910789060240160206040518083038186803b158015612f8d57600080fd5b505afa158015612fa1573d6000803e3d6000fd5b505050506040513d601f19601f82011682018060405250810190612fc59190613bcf565b612fcf9190613ea2565b6037546040516315d5220f60e31b81526001600160a01b038e811660048301529091169063aea910789060240160206040518083038186803b15801561301457600080fd5b505afa158015613028573d6000803e3d6000fd5b505050506040513d601f19601f8201168201806040525081019061304c9190613bcf565b606086015161305d90612710613ee9565b61306b9061ffff168c613ea2565b6130759190613ea2565b61307f9190613d95565b905061309e6012856040015160ff168361371b9092919063ffffffff16565b60408401516130b490879060129060ff1661371b565b10156131025760405162461bcd60e51b815260206004820152601e60248201527f4f7261636c6520736c697070616765206c696d69742065786365656465640000604482015260640161087d565b5061271081602001516127106131189190613ee9565b61ffff16603c60009054906101000a90046001600160a01b03166001600160a01b03166318160ddd6040518163ffffffff1660e01b815260040160206040518083038186803b15801561316a57600080fd5b505afa15801561317e573d6000803e3d6000fd5b505050506040513d601f19601f820116820180604052508101906131a29190613bcf565b6131ac9190613ea2565b6131b69190613d95565b306001600160a01b031663d4c3eea06040518163ffffffff1660e01b815260040160206040518083038186803b1580156131ef57600080fd5b505afa158015613203573d6000803e3d6000fd5b505050506040513d601f19601f820116820180604052508101906132279190613bcf565b101561326e5760405162461bcd60e51b8152602060048201526016602482015275416c6c6f7765642076616c7565203c20737570706c7960501b604482015260640161087d565b886001600160a01b03168a6001600160a01b03167fa078c4190abe07940190effc1846be0ccf03ad6007bc9e93f9697d0b460befbb8a876040516132bc929190918252602082015260400190565b60405180910390a35050509695505050505050565b6001600160a01b03811660009081526035602052604090205460ff166133395760405162461bcd60e51b815260206004820152601960248201527f5374726174656779206973206e6f7420737570706f7274656400000000000000604482015260640161087d565b6000819050806001600160a01b031663853828b66040518163ffffffff1660e01b8152600401600060405180830381600087803b15801561337957600080fd5b505af115801561338d573d6000803e3d6000fd5b505050505050565b60408051608081018252604a546001600160801b03808216808452600160801b92839004821660208501819052604b54808416968601969096529290940416606083015260009283916133e791613ec1565b6040516370a0823160e01b81523060048201526001600160801b039190911691506000906001600160a01b037f000000000000000000000000000000000000000000000000000000000000000016906370a082319060240160206040518083038186803b15801561345757600080fd5b505afa15801561346b573d6000803e3d6000fd5b505050506040513d601f19601f8201168201806040525081019061348f9190613bcf565b90506000836040015184602001516134a79190613ec1565b6001600160801b031690506134bc8184613d7d565b8211156134db57806134ce8484613f04565b6134d89190613f04565b94505b5050505090565b6001600160a01b03851660009081526035602052604090205460ff166135425760405162461bcd60e51b8152602060048201526015602482015274496e76616c69642066726f6d20537472617465677960581b604482015260640161087d565b8281146135915760405162461bcd60e51b815260206004820152601960248201527f506172616d65746572206c656e677468206d69736d6174636800000000000000604482015260640161087d565b8260005b8181101561366657866001600160a01b031663d9caed12898888858181106135bf576135bf613fa4565b90506020020160208101906135d49190613979565b8787868181106135e6576135e6613fa4565b6040516001600160e01b031960e088901b1681526001600160a01b03958616600482015294909316602485015250602090910201356044820152606401600060405180830381600087803b15801561363d57600080fd5b505af1158015613651573d6000803e3d6000fd5b505050508061365f90613f47565b9050613595565b5050505050505050565b60365460005b81811015610a36576036818154811061369157613691613fa4565b60009182526020822001546040805163429c145b60e11b815290516001600160a01b039092169263853828b69260048084019382900301818387803b1580156136d957600080fd5b505af11580156136ed573d6000803e3d6000fd5b50505050806136fb90613f47565b9050613676565b6060613711848460008561377d565b90505b9392505050565b60008183111561374b576137446137328385613f04565b61373d90600a613dfa565b85906138a5565b9350613775565b81831015613775576137726137608484613f04565b61376b90600a613dfa565b85906138ba565b93505b509192915050565b6060824710156137de5760405162461bcd60e51b815260206004820152602660248201527f416464726573733a20696e73756666696369656e742062616c616e636520666f6044820152651c8818d85b1b60d21b606482015260840161087d565b843b61382c5760405162461bcd60e51b815260206004820152601d60248201527f416464726573733a2063616c6c20746f206e6f6e2d636f6e7472616374000000604482015260640161087d565b600080866001600160a01b031685876040516138489190613c05565b60006040518083038185875af1925050503d8060008114613885576040519150601f19603f3d011682016040523d82523d6000602084013e61388a565b606091505b509150915061389a8282866138c6565b979650505050505050565b60006138b18284613ea2565b90505b92915050565b60006138b18284613d95565b606083156138d5575081613714565b8251156138e55782518084602001fd5b8160405162461bcd60e51b815260040161087d9190613c7d565b80356001600160a01b038116811461391657600080fd5b919050565b60008083601f84011261392d57600080fd5b50813567ffffffffffffffff81111561394557600080fd5b6020830191508360208260051b850101111561396057600080fd5b9250929050565b803561ffff8116811461391657600080fd5b60006020828403121561398b57600080fd5b6138b1826138ff565b600080604083850312156139a757600080fd5b6139b0836138ff565b91506139be602084016138ff565b90509250929050565b60008060008060008060a087890312156139e057600080fd5b6139e9876138ff565b95506139f7602088016138ff565b94506040870135935060608701359250608087013567ffffffffffffffff80821115613a2257600080fd5b818901915089601f830112613a3657600080fd5b813581811115613a4557600080fd5b8a6020828501011115613a5757600080fd5b6020830194508093505050509295509295509295565b600080600080600060608688031215613a8557600080fd5b613a8e866138ff565b9450602086013567ffffffffffffffff80821115613aab57600080fd5b613ab789838a0161391b565b90965094506040880135915080821115613ad057600080fd5b50613add8882890161391b565b969995985093965092949392505050565b60008060408385031215613b0157600080fd5b613b0a836138ff565b91506139be60208401613967565b60008060408385031215613b2b57600080fd5b613b34836138ff565b946020939093013593505050565b60008060408385031215613b5557600080fd5b613b5e836138ff565b91506020830135613b6e81613fba565b809150509250929050565b600060208284031215613b8b57600080fd5b8151801515811461371457600080fd5b600060208284031215613bad57600080fd5b6138b182613967565b600060208284031215613bc857600080fd5b5035919050565b600060208284031215613be157600080fd5b5051919050565b600060208284031215613bfa57600080fd5b815161371481613fba565b60008251613c17818460208701613f1b565b9190910192915050565b6001600160a01b03878116825286166020820152604081018590526060810184905260a06080820181905281018290526000828460c0840137600060c0848401015260c0601f19601f8501168301019050979650505050505050565b6020815260008251806020840152613c9c816040850160208701613f1b565b601f01601f19169190910160400192915050565b6020808252601a908201527f43616c6c6572206973206e6f742074686520476f7665726e6f72000000000000604082015260600190565b60208082526028908201527f43616c6c6572206973206e6f74207468652053747261746567697374206f722060408201526723b7bb32b93737b960c11b606082015260800190565b6020808252600e908201526d1499595b9d1c985b9d0818d85b1b60921b604082015260600190565b600061ffff808316818516808303821115613d7457613d74613f62565b01949350505050565b60008219821115613d9057613d90613f62565b500190565b600082613db257634e487b7160e01b600052601260045260246000fd5b500490565b600181815b80851115613df2578160001904821115613dd857613dd8613f62565b80851615613de557918102915b93841c9390800290613dbc565b509250929050565b60006138b18383600082613e10575060016138b4565b81613e1d575060006138b4565b8160018114613e335760028114613e3d57613e59565b60019150506138b4565b60ff841115613e4e57613e4e613f62565b50506001821b6138b4565b5060208310610133831016604e8410600b8410161715613e7c575081810a6138b4565b613e868383613db7565b8060001904821115613e9a57613e9a613f62565b029392505050565b6000816000190483118215151615613ebc57613ebc613f62565b500290565b60006001600160801b0383811690831681811015613ee157613ee1613f62565b039392505050565b600061ffff83811690831681811015613ee157613ee1613f62565b600082821015613f1657613f16613f62565b500390565b60005b83811015613f36578181015183820152602001613f1e565b83811115610d355750506000910152565b6000600019821415613f5b57613f5b613f62565b5060010190565b634e487b7160e01b600052601160045260246000fd5b634e487b7160e01b600052602160045260246000fd5b634e487b7160e01b600052603160045260246000fd5b634e487b7160e01b600052603260045260246000fd5b60ff81168114610e4857600080fdfe7bea13895fa79d2831e0a9e28edede30099005a50d652d8957cf8a607ee6ca4aa26469706673582212204c349976718ffeea8451b6fc51a97a047f4b6a442f1c7d8cb4ff7a709c77e97e64736f6c634300080700337bea13895fa79d2831e0a9e28edede30099005a50d652d8957cf8a607ee6ca4a",
  "libraries": {},
  "devdoc": {
    "author": "Origin Protocol Inc",
    "kind": "dev",
    "methods": {
      "allowedSwapUndervalue()": {
        "returns": {
          "value": "Percentage in basis points."
        }
      },
      "approveStrategy(address)": {
        "params": {
          "_addr": "Address of the strategy to add"
        }
      },
      "cacheDecimals(address)": {
        "params": {
          "_asset": "Address of asset token"
        }
      },
      "depositToStrategy(address,address[],uint256[])": {
        "params": {
          "_amounts": "Array of amounts of each corresponding asset to deposit.",
          "_assets": "Array of asset address that will be deposited into the strategy.",
          "_strategyToAddress": "Address of the Strategy to deposit assets into."
        }
      },
      "removeAsset(address)": {
        "params": {
          "_asset": "Address of asset"
        }
      },
      "removeStrategy(address)": {
        "params": {
          "_addr": "Address of the strategy to remove"
        }
      },
      "setAdminImpl(address)": {
        "params": {
          "newImpl": "address of the implementation"
        }
      },
      "setAssetDefaultStrategy(address,address)": {
        "params": {
          "_asset": "Address of the asset",
          "_strategy": "Address of the Strategy"
        }
      },
      "setAutoAllocateThreshold(uint256)": {
        "params": {
          "_threshold": "OToken amount with 18 fixed decimals."
        }
      },
      "setDripper(address)": {
        "params": {
          "_dripper": "Address of the Dripper contract."
        }
      },
      "setNetOusdMintForStrategyThreshold(uint256)": {
        "params": {
          "_threshold": "OToken amount with 18 fixed decimals."
        }
      },
      "setOracleSlippage(address,uint16)": {
        "params": {
          "_allowedOracleSlippageBps": "allowed slippage from Oracle in basis points. eg 20 = 0.2%. Max 10%.",
          "_asset": "Address of the asset token."
        }
      },
      "setOusdMetaStrategy(address)": {
        "params": {
          "_ousdMetaStrategy": "Address of OToken metapool strategy"
        }
      },
      "setPriceProvider(address)": {
        "params": {
          "_priceProvider": "Address of price provider"
        }
      },
      "setRebaseThreshold(uint256)": {
        "params": {
          "_threshold": "OToken amount with 18 fixed decimals."
        }
      },
      "setRedeemFeeBps(uint256)": {
        "params": {
          "_redeemFeeBps": "Basis point fee to be charged"
        }
      },
      "setStrategistAddr(address)": {
        "params": {
          "_address": "Address of Strategist"
        }
      },
      "setSwapAllowedUndervalue(uint16)": {
        "params": {
          "_basis": "Percentage in basis points. eg 100 == 1%"
        }
      },
      "setSwapper(address)": {
        "params": {
          "_swapperAddr": "Address of the Swapper contract that implements the ISwapper interface."
        }
      },
      "setVaultBuffer(uint256)": {
        "params": {
          "_vaultBuffer": "Percentage using 18 decimals. 100% = 1e18."
        }
      },
      "supportAsset(address,uint8)": {
        "params": {
          "_asset": "Address of asset"
        }
      },
      "swapCollateral(address,address,uint256,uint256,bytes)": {
        "params": {
          "_data": "implementation specific data. eg 1Inch swap data",
          "_fromAsset": "The token address of the asset being sold by the vault.",
          "_fromAssetAmount": "The amount of assets being sold by the vault.",
          "_minToAssetAmount": "The minimum amount of assets to be purchased.",
          "_toAsset": "The token address of the asset being purchased by the vault."
        },
        "returns": {
          "toAssetAmount": "The amount of toAssets that was received from the swap"
        }
      },
      "transferGovernance(address)": {
        "params": {
          "_newGovernor": "Address of the new Governor"
        }
      },
      "transferToken(address,uint256)": {
        "params": {
          "_amount": "Amount of the asset to transfer",
          "_asset": "Address for the asset"
        }
      },
      "withdrawAllFromStrategy(address)": {
        "params": {
          "_strategyAddr": "Strategy address."
        }
      },
      "withdrawFromStrategy(address,address[],uint256[])": {
        "params": {
          "_amounts": "Array of amounts of each corresponding asset to withdraw.",
          "_assets": "Array of asset address that will be withdrawn from the strategy.",
          "_strategyFromAddress": "Address of the Strategy to withdraw assets from."
        }
      }
    },
    "title": "OETH VaultAdmin Contract",
    "version": 1
  },
  "userdoc": {
    "kind": "user",
    "methods": {
      "allowedSwapUndervalue()": {
        "notice": "Max allowed percentage the vault total value can drop below the OToken total supply in basis points when executing a collateral swap. For example 100 == 1%"
      },
      "approveStrategy(address)": {
        "notice": "Add a strategy to the Vault."
      },
      "assetDefaultStrategies(address)": {
        "notice": "Mapping of asset address to the Strategy that they should automatically"
      },
      "autoAllocateThreshold()": {
        "notice": "OToken mints over this amount automatically allocate funds. 18 decimals."
      },
      "cacheDecimals(address)": {
        "notice": "Cache decimals on OracleRouter for a particular asset. This action      is required before that asset's price can be accessed."
      },
      "capitalPaused()": {
        "notice": "pause operations that change the OToken supply. eg mint, redeem, allocate, mint/burn for strategy"
      },
      "claimGovernance()": {
        "notice": "Claim Governance of the contract to a new account (`newGovernor`). Can only be called by the new Governor."
      },
      "depositToStrategy(address,address[],uint256[])": {
        "notice": "Deposit multiple assets from the vault into the strategy."
      },
      "dripper()": {
        "notice": "Address of the Dripper contract that streams harvested rewards to the Vault"
      },
      "governor()": {
        "notice": "Returns the address of the current Governor."
      },
      "isGovernor()": {
        "notice": "Returns true if the caller is the current Governor."
      },
      "maxSupplyDiff()": {
        "notice": "Max difference between total supply and total value of assets. 18 decimals."
      },
      "netOusdMintForStrategyThreshold()": {
        "notice": "How much net total OTokens are allowed to be minted by all strategies"
      },
      "netOusdMintedForStrategy()": {
        "notice": "How much OTokens are currently minted by the strategy"
      },
      "ousdMetaStrategy()": {
        "notice": "Metapool strategy that is allowed to mint/burn OTokens without changing collateral"
      },
      "pauseCapital()": {
        "notice": "Set the deposit paused flag to true to prevent capital movement."
      },
      "pauseRebase()": {
        "notice": "Set the deposit paused flag to true to prevent rebasing."
      },
      "priceProvider()": {
        "notice": "Address of the Oracle price provider contract"
      },
      "rebasePaused()": {
        "notice": "pause rebasing if true"
      },
      "rebaseThreshold()": {
        "notice": "OToken mints over this amount automatically rebase. 18 decimals."
      },
      "redeemFeeBps()": {
        "notice": "Redemption fee in basis points. eg 50 = 0.5%"
      },
      "removeAsset(address)": {
        "notice": "Remove a supported asset from the Vault"
      },
      "removeStrategy(address)": {
        "notice": "Remove a strategy from the Vault."
      },
      "setAdminImpl(address)": {
        "notice": "set the implementation for the admin, this needs to be in a base class else we cannot set it"
      },
      "setAssetDefaultStrategy(address,address)": {
        "notice": "Set the default Strategy for an asset, i.e. the one which the asset will be automatically allocated to and withdrawn from"
      },
      "setAutoAllocateThreshold(uint256)": {
        "notice": "Sets the minimum amount of OTokens in a mint to trigger an automatic allocation of funds afterwords."
      },
      "setDripper(address)": {
        "notice": "Set the Dripper contract that streams harvested rewards to the vault."
      },
      "setMaxSupplyDiff(uint256)": {
        "notice": "Sets the maximum allowable difference between total supply and backing assets' value."
      },
      "setNetOusdMintForStrategyThreshold(uint256)": {
        "notice": "Set maximum amount of OTokens that can at any point be minted and deployed to strategy (used only by ConvexOUSDMetaStrategy for now)."
      },
      "setOracleSlippage(address,uint16)": {
        "notice": "Set the allowed slippage from the Oracle price for collateral asset swaps."
      },
      "setOusdMetaStrategy(address)": {
        "notice": "Set OToken Metapool strategy"
      },
      "setPriceProvider(address)": {
        "notice": "Set address of price provider."
      },
      "setRebaseThreshold(uint256)": {
        "notice": "Set a minimum amount of OTokens in a mint or redeem that triggers a rebase"
      },
      "setRedeemFeeBps(uint256)": {
        "notice": "Set a fee in basis points to be charged for a redeem."
      },
      "setStrategistAddr(address)": {
        "notice": "Set address of Strategist"
      },
      "setSwapAllowedUndervalue(uint16)": {
        "notice": "Set max allowed percentage the vault total value can drop below the OToken total supply in basis points when executing collateral swaps."
      },
      "setSwapper(address)": {
        "notice": "Set the contract the performs swaps of collateral assets."
      },
      "setTrusteeAddress(address)": {
        "notice": "Sets the trusteeAddress that can receive a portion of yield.      Setting to the zero address disables this feature."
      },
      "setTrusteeFeeBps(uint256)": {
        "notice": "Sets the TrusteeFeeBps to the percentage of yield that should be      received in basis points."
      },
      "setVaultBuffer(uint256)": {
        "notice": "Set a buffer of assets to keep in the Vault to handle most redemptions without needing to spend gas unwinding assets from a Strategy."
      },
      "strategistAddr()": {
        "notice": "Address of the Strategist"
      },
      "supportAsset(address,uint8)": {
        "notice": "Add a supported asset to the contract, i.e. one that can be         to mint OTokens."
      },
      "swapCollateral(address,address,uint256,uint256,bytes)": {
        "notice": "Strategist swaps collateral assets sitting in the vault."
      },
      "swapper()": {
        "notice": "Contract that swaps the vault's collateral assets"
      },
      "transferGovernance(address)": {
        "notice": "Transfers Governance of the contract to a new account (`newGovernor`). Can only be called by the current Governor. Must be claimed for this to complete"
      },
      "transferToken(address,uint256)": {
        "notice": "Transfer token to governor. Intended for recovering tokens stuck in      contract, i.e. mistaken sends."
      },
      "trusteeAddress()": {
        "notice": "Trustee contract that can collect a percentage of yield"
      },
      "trusteeFeeBps()": {
        "notice": "Amount of yield collected in basis points. eg 2000 = 20%"
      },
      "unpauseCapital()": {
        "notice": "Set the deposit paused flag to false to enable capital movement."
      },
      "unpauseRebase()": {
        "notice": "Set the deposit paused flag to true to allow rebasing."
      },
      "vaultBuffer()": {
        "notice": "Percentage of assets to keep in Vault to handle (most) withdrawals. 100% = 1e18."
      },
      "withdrawAllFromStrategies()": {
        "notice": "Withdraws all assets from all the strategies and sends assets to the Vault."
      },
      "withdrawAllFromStrategy(address)": {
        "notice": "Withdraws all assets from the strategy and sends assets to the Vault."
      },
      "withdrawFromStrategy(address,address[],uint256[])": {
        "notice": "Withdraw multiple assets from the strategy to the vault."
      }
    },
    "version": 1
  },
  "storageLayout": {
    "storage": [
      {
        "astId": 24111,
        "contract": "contracts/vault/OETHVaultAdmin.sol:OETHVaultAdmin",
        "label": "initialized",
        "offset": 0,
        "slot": "0",
        "type": "t_bool"
      },
      {
        "astId": 24114,
        "contract": "contracts/vault/OETHVaultAdmin.sol:OETHVaultAdmin",
        "label": "initializing",
        "offset": 1,
        "slot": "0",
        "type": "t_bool"
      },
      {
        "astId": 24154,
        "contract": "contracts/vault/OETHVaultAdmin.sol:OETHVaultAdmin",
        "label": "______gap",
        "offset": 0,
        "slot": "1",
        "type": "t_array(t_uint256)50_storage"
      },
      {
        "astId": 29745,
        "contract": "contracts/vault/OETHVaultAdmin.sol:OETHVaultAdmin",
        "label": "assets",
        "offset": 0,
        "slot": "51",
        "type": "t_mapping(t_address,t_struct(Asset)29739_storage)"
      },
      {
        "astId": 29749,
        "contract": "contracts/vault/OETHVaultAdmin.sol:OETHVaultAdmin",
        "label": "allAssets",
        "offset": 0,
        "slot": "52",
        "type": "t_array(t_address)dyn_storage"
      },
      {
        "astId": 29760,
        "contract": "contracts/vault/OETHVaultAdmin.sol:OETHVaultAdmin",
        "label": "strategies",
        "offset": 0,
        "slot": "53",
        "type": "t_mapping(t_address,t_struct(Strategy)29754_storage)"
      },
      {
        "astId": 29764,
        "contract": "contracts/vault/OETHVaultAdmin.sol:OETHVaultAdmin",
        "label": "allStrategies",
        "offset": 0,
        "slot": "54",
        "type": "t_array(t_address)dyn_storage"
      },
      {
        "astId": 29767,
        "contract": "contracts/vault/OETHVaultAdmin.sol:OETHVaultAdmin",
        "label": "priceProvider",
        "offset": 0,
        "slot": "55",
        "type": "t_address"
      },
      {
        "astId": 29771,
        "contract": "contracts/vault/OETHVaultAdmin.sol:OETHVaultAdmin",
        "label": "rebasePaused",
        "offset": 20,
        "slot": "55",
        "type": "t_bool"
      },
      {
        "astId": 29775,
        "contract": "contracts/vault/OETHVaultAdmin.sol:OETHVaultAdmin",
        "label": "capitalPaused",
        "offset": 21,
        "slot": "55",
        "type": "t_bool"
      },
      {
        "astId": 29778,
        "contract": "contracts/vault/OETHVaultAdmin.sol:OETHVaultAdmin",
        "label": "redeemFeeBps",
        "offset": 0,
        "slot": "56",
        "type": "t_uint256"
      },
      {
        "astId": 29781,
        "contract": "contracts/vault/OETHVaultAdmin.sol:OETHVaultAdmin",
        "label": "vaultBuffer",
        "offset": 0,
        "slot": "57",
        "type": "t_uint256"
      },
      {
        "astId": 29784,
        "contract": "contracts/vault/OETHVaultAdmin.sol:OETHVaultAdmin",
        "label": "autoAllocateThreshold",
        "offset": 0,
        "slot": "58",
        "type": "t_uint256"
      },
      {
        "astId": 29787,
        "contract": "contracts/vault/OETHVaultAdmin.sol:OETHVaultAdmin",
        "label": "rebaseThreshold",
        "offset": 0,
        "slot": "59",
        "type": "t_uint256"
      },
      {
        "astId": 29791,
        "contract": "contracts/vault/OETHVaultAdmin.sol:OETHVaultAdmin",
        "label": "oUSD",
        "offset": 0,
        "slot": "60",
        "type": "t_contract(OUSD)23477"
      },
      {
        "astId": 29800,
        "contract": "contracts/vault/OETHVaultAdmin.sol:OETHVaultAdmin",
        "label": "_deprecated_rebaseHooksAddr",
        "offset": 0,
        "slot": "61",
        "type": "t_address"
      },
      {
        "astId": 29806,
        "contract": "contracts/vault/OETHVaultAdmin.sol:OETHVaultAdmin",
        "label": "_deprecated_uniswapAddr",
        "offset": 0,
        "slot": "62",
        "type": "t_address"
      },
      {
        "astId": 29813,
        "contract": "contracts/vault/OETHVaultAdmin.sol:OETHVaultAdmin",
        "label": "strategistAddr",
        "offset": 0,
        "slot": "63",
        "type": "t_address"
      },
      {
        "astId": 29818,
        "contract": "contracts/vault/OETHVaultAdmin.sol:OETHVaultAdmin",
        "label": "assetDefaultStrategies",
        "offset": 0,
        "slot": "64",
        "type": "t_mapping(t_address,t_address)"
      },
      {
        "astId": 29821,
        "contract": "contracts/vault/OETHVaultAdmin.sol:OETHVaultAdmin",
        "label": "maxSupplyDiff",
        "offset": 0,
        "slot": "65",
        "type": "t_uint256"
      },
      {
        "astId": 29824,
        "contract": "contracts/vault/OETHVaultAdmin.sol:OETHVaultAdmin",
        "label": "trusteeAddress",
        "offset": 0,
        "slot": "66",
        "type": "t_address"
      },
      {
        "astId": 29827,
        "contract": "contracts/vault/OETHVaultAdmin.sol:OETHVaultAdmin",
        "label": "trusteeFeeBps",
        "offset": 0,
        "slot": "67",
        "type": "t_uint256"
      },
      {
        "astId": 29831,
        "contract": "contracts/vault/OETHVaultAdmin.sol:OETHVaultAdmin",
        "label": "_deprecated_swapTokens",
        "offset": 0,
        "slot": "68",
        "type": "t_array(t_address)dyn_storage"
      },
      {
        "astId": 29841,
        "contract": "contracts/vault/OETHVaultAdmin.sol:OETHVaultAdmin",
        "label": "ousdMetaStrategy",
        "offset": 0,
        "slot": "69",
        "type": "t_address"
      },
      {
        "astId": 29845,
        "contract": "contracts/vault/OETHVaultAdmin.sol:OETHVaultAdmin",
        "label": "netOusdMintedForStrategy",
        "offset": 0,
        "slot": "70",
        "type": "t_int256"
      },
      {
        "astId": 29849,
        "contract": "contracts/vault/OETHVaultAdmin.sol:OETHVaultAdmin",
        "label": "netOusdMintForStrategyThreshold",
        "offset": 0,
        "slot": "71",
        "type": "t_uint256"
      },
      {
        "astId": 29870,
        "contract": "contracts/vault/OETHVaultAdmin.sol:OETHVaultAdmin",
        "label": "swapConfig",
        "offset": 0,
        "slot": "72",
        "type": "t_struct(SwapConfig)29860_storage"
      },
      {
        "astId": 29873,
        "contract": "contracts/vault/OETHVaultAdmin.sol:OETHVaultAdmin",
        "label": "dripper",
        "offset": 0,
        "slot": "73",
        "type": "t_address"
      },
      {
        "astId": 29885,
        "contract": "contracts/vault/OETHVaultAdmin.sol:OETHVaultAdmin",
        "label": "withdrawalQueueMetadata",
        "offset": 0,
        "slot": "74",
        "type": "t_struct(WithdrawalQueueMetadata)29882_storage"
      },
      {
        "astId": 29899,
        "contract": "contracts/vault/OETHVaultAdmin.sol:OETHVaultAdmin",
        "label": "withdrawalRequests",
        "offset": 0,
        "slot": "76",
        "type": "t_mapping(t_uint256,t_struct(WithdrawalRequest)29894_storage)"
      },
      {
        "astId": 29903,
        "contract": "contracts/vault/OETHVaultAdmin.sol:OETHVaultAdmin",
        "label": "__gap",
        "offset": 0,
        "slot": "77",
        "type": "t_array(t_uint256)46_storage"
      }
    ],
    "types": {
      "t_address": {
        "encoding": "inplace",
        "label": "address",
        "numberOfBytes": "20"
      },
      "t_array(t_address)dyn_storage": {
        "base": "t_address",
        "encoding": "dynamic_array",
        "label": "address[]",
        "numberOfBytes": "32"
      },
      "t_array(t_uint256)46_storage": {
        "base": "t_uint256",
        "encoding": "inplace",
        "label": "uint256[46]",
        "numberOfBytes": "1472"
      },
      "t_array(t_uint256)50_storage": {
        "base": "t_uint256",
        "encoding": "inplace",
        "label": "uint256[50]",
        "numberOfBytes": "1600"
      },
      "t_bool": {
        "encoding": "inplace",
        "label": "bool",
        "numberOfBytes": "1"
      },
      "t_contract(OUSD)23477": {
        "encoding": "inplace",
        "label": "contract OUSD",
        "numberOfBytes": "20"
      },
      "t_enum(UnitConversion)29729": {
        "encoding": "inplace",
        "label": "enum VaultStorage.UnitConversion",
        "numberOfBytes": "1"
      },
      "t_int256": {
        "encoding": "inplace",
        "label": "int256",
        "numberOfBytes": "32"
      },
      "t_mapping(t_address,t_address)": {
        "encoding": "mapping",
        "key": "t_address",
        "label": "mapping(address => address)",
        "numberOfBytes": "32",
        "value": "t_address"
      },
      "t_mapping(t_address,t_struct(Asset)29739_storage)": {
        "encoding": "mapping",
        "key": "t_address",
        "label": "mapping(address => struct VaultStorage.Asset)",
        "numberOfBytes": "32",
        "value": "t_struct(Asset)29739_storage"
      },
      "t_mapping(t_address,t_struct(Strategy)29754_storage)": {
        "encoding": "mapping",
        "key": "t_address",
        "label": "mapping(address => struct VaultStorage.Strategy)",
        "numberOfBytes": "32",
        "value": "t_struct(Strategy)29754_storage"
      },
      "t_mapping(t_uint256,t_struct(WithdrawalRequest)29894_storage)": {
        "encoding": "mapping",
        "key": "t_uint256",
        "label": "mapping(uint256 => struct VaultStorage.WithdrawalRequest)",
        "numberOfBytes": "32",
        "value": "t_struct(WithdrawalRequest)29894_storage"
      },
      "t_struct(Asset)29739_storage": {
        "encoding": "inplace",
        "label": "struct VaultStorage.Asset",
        "members": [
          {
            "astId": 29731,
            "contract": "contracts/vault/OETHVaultAdmin.sol:OETHVaultAdmin",
            "label": "isSupported",
            "offset": 0,
            "slot": "0",
            "type": "t_bool"
          },
          {
            "astId": 29734,
            "contract": "contracts/vault/OETHVaultAdmin.sol:OETHVaultAdmin",
            "label": "unitConversion",
            "offset": 1,
            "slot": "0",
            "type": "t_enum(UnitConversion)29729"
          },
          {
            "astId": 29736,
            "contract": "contracts/vault/OETHVaultAdmin.sol:OETHVaultAdmin",
            "label": "decimals",
            "offset": 2,
            "slot": "0",
            "type": "t_uint8"
          },
          {
            "astId": 29738,
            "contract": "contracts/vault/OETHVaultAdmin.sol:OETHVaultAdmin",
            "label": "allowedOracleSlippageBps",
            "offset": 3,
            "slot": "0",
            "type": "t_uint16"
          }
        ],
        "numberOfBytes": "32"
      },
      "t_struct(Strategy)29754_storage": {
        "encoding": "inplace",
        "label": "struct VaultStorage.Strategy",
        "members": [
          {
            "astId": 29751,
            "contract": "contracts/vault/OETHVaultAdmin.sol:OETHVaultAdmin",
            "label": "isSupported",
            "offset": 0,
            "slot": "0",
            "type": "t_bool"
          },
          {
            "astId": 29753,
            "contract": "contracts/vault/OETHVaultAdmin.sol:OETHVaultAdmin",
            "label": "_deprecated",
            "offset": 0,
            "slot": "1",
            "type": "t_uint256"
          }
        ],
        "numberOfBytes": "64"
      },
      "t_struct(SwapConfig)29860_storage": {
        "encoding": "inplace",
        "label": "struct VaultStorage.SwapConfig",
        "members": [
          {
            "astId": 29857,
            "contract": "contracts/vault/OETHVaultAdmin.sol:OETHVaultAdmin",
            "label": "swapper",
            "offset": 0,
            "slot": "0",
            "type": "t_address"
          },
          {
            "astId": 29859,
            "contract": "contracts/vault/OETHVaultAdmin.sol:OETHVaultAdmin",
            "label": "allowedUndervalueBps",
            "offset": 20,
            "slot": "0",
            "type": "t_uint16"
          }
        ],
        "numberOfBytes": "32"
      },
      "t_struct(WithdrawalQueueMetadata)29882_storage": {
        "encoding": "inplace",
        "label": "struct VaultStorage.WithdrawalQueueMetadata",
        "members": [
          {
            "astId": 29875,
            "contract": "contracts/vault/OETHVaultAdmin.sol:OETHVaultAdmin",
            "label": "queued",
            "offset": 0,
            "slot": "0",
            "type": "t_uint128"
          },
          {
            "astId": 29877,
            "contract": "contracts/vault/OETHVaultAdmin.sol:OETHVaultAdmin",
            "label": "claimable",
            "offset": 16,
            "slot": "0",
            "type": "t_uint128"
          },
          {
            "astId": 29879,
            "contract": "contracts/vault/OETHVaultAdmin.sol:OETHVaultAdmin",
            "label": "claimed",
            "offset": 0,
            "slot": "1",
            "type": "t_uint128"
          },
          {
            "astId": 29881,
            "contract": "contracts/vault/OETHVaultAdmin.sol:OETHVaultAdmin",
            "label": "nextWithdrawalIndex",
            "offset": 16,
            "slot": "1",
            "type": "t_uint128"
          }
        ],
        "numberOfBytes": "64"
      },
      "t_struct(WithdrawalRequest)29894_storage": {
        "encoding": "inplace",
        "label": "struct VaultStorage.WithdrawalRequest",
        "members": [
          {
            "astId": 29887,
            "contract": "contracts/vault/OETHVaultAdmin.sol:OETHVaultAdmin",
            "label": "withdrawer",
            "offset": 0,
            "slot": "0",
            "type": "t_address"
          },
          {
            "astId": 29889,
            "contract": "contracts/vault/OETHVaultAdmin.sol:OETHVaultAdmin",
            "label": "claimed",
            "offset": 20,
            "slot": "0",
            "type": "t_bool"
          },
          {
            "astId": 29891,
            "contract": "contracts/vault/OETHVaultAdmin.sol:OETHVaultAdmin",
            "label": "amount",
            "offset": 0,
            "slot": "1",
            "type": "t_uint128"
          },
          {
            "astId": 29893,
            "contract": "contracts/vault/OETHVaultAdmin.sol:OETHVaultAdmin",
            "label": "queued",
            "offset": 16,
            "slot": "1",
            "type": "t_uint128"
          }
        ],
        "numberOfBytes": "64"
      },
      "t_uint128": {
        "encoding": "inplace",
        "label": "uint128",
        "numberOfBytes": "16"
      },
      "t_uint16": {
        "encoding": "inplace",
        "label": "uint16",
        "numberOfBytes": "2"
      },
      "t_uint256": {
        "encoding": "inplace",
        "label": "uint256",
        "numberOfBytes": "32"
      },
      "t_uint8": {
        "encoding": "inplace",
        "label": "uint8",
        "numberOfBytes": "1"
      }
    }
  }
}