{
  "address": "0x89018e7e6994BBDDC0991743fd30fcEE18Ce4705",
  "abi": [
    {
      "inputs": [
        {
          "internalType": "address",
          "name": "_weth",
          "type": "address"
        }
      ],
      "stateMutability": "nonpayable",
      "type": "constructor"
    },
    {
      "anonymous": false,
      "inputs": [
        {
          "indexed": false,
          "internalType": "uint256",
          "name": "_threshold",
          "type": "uint256"
        }
      ],
      "name": "AllocateThresholdUpdated",
      "type": "event"
    },
    {
      "anonymous": false,
      "inputs": [
        {
          "indexed": false,
          "internalType": "address",
          "name": "_asset",
          "type": "address"
        },
        {
          "indexed": false,
          "internalType": "address",
          "name": "_strategy",
          "type": "address"
        },
        {
          "indexed": false,
          "internalType": "uint256",
          "name": "_amount",
          "type": "uint256"
        }
      ],
      "name": "AssetAllocated",
      "type": "event"
    },
    {
      "anonymous": false,
      "inputs": [
        {
          "indexed": false,
          "internalType": "address",
          "name": "_asset",
          "type": "address"
        },
        {
          "indexed": false,
          "internalType": "address",
          "name": "_strategy",
          "type": "address"
        }
      ],
      "name": "AssetDefaultStrategyUpdated",
      "type": "event"
    },
    {
      "anonymous": false,
      "inputs": [
        {
          "indexed": false,
          "internalType": "address",
          "name": "_asset",
          "type": "address"
        }
      ],
      "name": "AssetRemoved",
      "type": "event"
    },
    {
      "anonymous": false,
      "inputs": [
        {
          "indexed": false,
          "internalType": "address",
          "name": "_asset",
          "type": "address"
        }
      ],
      "name": "AssetSupported",
      "type": "event"
    },
    {
      "anonymous": false,
      "inputs": [],
      "name": "CapitalPaused",
      "type": "event"
    },
    {
      "anonymous": false,
      "inputs": [],
      "name": "CapitalUnpaused",
      "type": "event"
    },
    {
      "anonymous": false,
      "inputs": [
        {
          "indexed": true,
          "internalType": "address",
          "name": "_dripper",
          "type": "address"
        }
      ],
      "name": "DripperChanged",
      "type": "event"
    },
    {
      "anonymous": false,
      "inputs": [
        {
          "indexed": true,
          "internalType": "address",
          "name": "previousGovernor",
          "type": "address"
        },
        {
          "indexed": true,
          "internalType": "address",
          "name": "newGovernor",
          "type": "address"
        }
      ],
      "name": "GovernorshipTransferred",
      "type": "event"
    },
    {
      "anonymous": false,
      "inputs": [
        {
          "indexed": false,
          "internalType": "uint256",
          "name": "maxSupplyDiff",
          "type": "uint256"
        }
      ],
      "name": "MaxSupplyDiffChanged",
      "type": "event"
    },
    {
      "anonymous": false,
      "inputs": [
        {
          "indexed": false,
          "internalType": "address",
          "name": "_addr",
          "type": "address"
        },
        {
          "indexed": false,
          "internalType": "uint256",
          "name": "_value",
          "type": "uint256"
        }
      ],
      "name": "Mint",
      "type": "event"
    },
    {
      "anonymous": false,
      "inputs": [
        {
          "indexed": false,
          "internalType": "uint256",
          "name": "_threshold",
          "type": "uint256"
        }
      ],
      "name": "NetOusdMintForStrategyThresholdChanged",
      "type": "event"
    },
    {
      "anonymous": false,
      "inputs": [
        {
          "indexed": false,
          "internalType": "address",
          "name": "_ousdMetaStrategy",
          "type": "address"
        }
      ],
      "name": "OusdMetaStrategyUpdated",
      "type": "event"
    },
    {
      "anonymous": false,
      "inputs": [
        {
          "indexed": true,
          "internalType": "address",
          "name": "previousGovernor",
          "type": "address"
        },
        {
          "indexed": true,
          "internalType": "address",
          "name": "newGovernor",
          "type": "address"
        }
      ],
      "name": "PendingGovernorshipTransfer",
      "type": "event"
    },
    {
      "anonymous": false,
      "inputs": [
        {
          "indexed": false,
          "internalType": "address",
          "name": "_priceProvider",
          "type": "address"
        }
      ],
      "name": "PriceProviderUpdated",
      "type": "event"
    },
    {
      "anonymous": false,
      "inputs": [],
      "name": "RebasePaused",
      "type": "event"
    },
    {
      "anonymous": false,
      "inputs": [
        {
          "indexed": false,
          "internalType": "uint256",
          "name": "_threshold",
          "type": "uint256"
        }
      ],
      "name": "RebaseThresholdUpdated",
      "type": "event"
    },
    {
      "anonymous": false,
      "inputs": [],
      "name": "RebaseUnpaused",
      "type": "event"
    },
    {
      "anonymous": false,
      "inputs": [
        {
          "indexed": false,
          "internalType": "address",
          "name": "_addr",
          "type": "address"
        },
        {
          "indexed": false,
          "internalType": "uint256",
          "name": "_value",
          "type": "uint256"
        }
      ],
      "name": "Redeem",
      "type": "event"
    },
    {
      "anonymous": false,
      "inputs": [
        {
          "indexed": false,
          "internalType": "uint256",
          "name": "_redeemFeeBps",
          "type": "uint256"
        }
      ],
      "name": "RedeemFeeUpdated",
      "type": "event"
    },
    {
      "anonymous": false,
      "inputs": [
        {
          "indexed": false,
          "internalType": "address",
          "name": "_address",
          "type": "address"
        }
      ],
      "name": "StrategistUpdated",
      "type": "event"
    },
    {
      "anonymous": false,
      "inputs": [
        {
          "indexed": false,
          "internalType": "address",
          "name": "_addr",
          "type": "address"
        }
      ],
      "name": "StrategyApproved",
      "type": "event"
    },
    {
      "anonymous": false,
      "inputs": [
        {
          "indexed": false,
          "internalType": "address",
          "name": "_addr",
          "type": "address"
        }
      ],
      "name": "StrategyRemoved",
      "type": "event"
    },
    {
      "anonymous": false,
      "inputs": [
        {
          "indexed": false,
          "internalType": "uint256",
          "name": "_basis",
          "type": "uint256"
        }
      ],
      "name": "SwapAllowedUndervalueChanged",
      "type": "event"
    },
    {
      "anonymous": false,
      "inputs": [
        {
          "indexed": false,
          "internalType": "address",
          "name": "_asset",
          "type": "address"
        },
        {
          "indexed": false,
          "internalType": "uint256",
          "name": "_basis",
          "type": "uint256"
        }
      ],
      "name": "SwapSlippageChanged",
      "type": "event"
    },
    {
      "anonymous": false,
      "inputs": [
        {
          "indexed": true,
          "internalType": "address",
          "name": "_fromAsset",
          "type": "address"
        },
        {
          "indexed": true,
          "internalType": "address",
          "name": "_toAsset",
          "type": "address"
        },
        {
          "indexed": false,
          "internalType": "uint256",
          "name": "_fromAssetAmount",
          "type": "uint256"
        },
        {
          "indexed": false,
          "internalType": "uint256",
          "name": "_toAssetAmount",
          "type": "uint256"
        }
      ],
      "name": "Swapped",
      "type": "event"
    },
    {
      "anonymous": false,
      "inputs": [
        {
          "indexed": false,
          "internalType": "address",
          "name": "_address",
          "type": "address"
        }
      ],
      "name": "SwapperChanged",
      "type": "event"
    },
    {
      "anonymous": false,
      "inputs": [
        {
          "indexed": false,
          "internalType": "address",
          "name": "_address",
          "type": "address"
        }
      ],
      "name": "TrusteeAddressChanged",
      "type": "event"
    },
    {
      "anonymous": false,
      "inputs": [
        {
          "indexed": false,
          "internalType": "uint256",
          "name": "_basis",
          "type": "uint256"
        }
      ],
      "name": "TrusteeFeeBpsChanged",
      "type": "event"
    },
    {
      "anonymous": false,
      "inputs": [
        {
          "indexed": false,
          "internalType": "uint256",
          "name": "_vaultBuffer",
          "type": "uint256"
        }
      ],
      "name": "VaultBufferUpdated",
      "type": "event"
    },
    {
      "anonymous": false,
      "inputs": [
        {
          "indexed": false,
          "internalType": "uint256",
          "name": "_claimable",
          "type": "uint256"
        },
        {
          "indexed": false,
          "internalType": "uint256",
          "name": "_newClaimable",
          "type": "uint256"
        }
      ],
      "name": "WithdrawalClaimable",
      "type": "event"
    },
    {
      "anonymous": false,
      "inputs": [
        {
          "indexed": true,
          "internalType": "address",
          "name": "_withdrawer",
          "type": "address"
        },
        {
          "indexed": true,
          "internalType": "uint256",
          "name": "_requestId",
          "type": "uint256"
        },
        {
          "indexed": false,
          "internalType": "uint256",
          "name": "_amount",
          "type": "uint256"
        }
      ],
      "name": "WithdrawalClaimed",
      "type": "event"
    },
    {
      "anonymous": false,
      "inputs": [
        {
          "indexed": true,
          "internalType": "address",
          "name": "_withdrawer",
          "type": "address"
        },
        {
          "indexed": true,
          "internalType": "uint256",
          "name": "_requestId",
          "type": "uint256"
        },
        {
          "indexed": false,
          "internalType": "uint256",
          "name": "_amount",
          "type": "uint256"
        },
        {
          "indexed": false,
          "internalType": "uint256",
          "name": "_queued",
          "type": "uint256"
        }
      ],
      "name": "WithdrawalRequested",
      "type": "event"
    },
    {
      "anonymous": false,
      "inputs": [
        {
          "indexed": false,
          "internalType": "address",
          "name": "_to",
          "type": "address"
        },
        {
          "indexed": false,
          "internalType": "uint256",
          "name": "_yield",
          "type": "uint256"
        },
        {
          "indexed": false,
          "internalType": "uint256",
          "name": "_fee",
          "type": "uint256"
        }
      ],
      "name": "YieldDistribution",
      "type": "event"
    },
    {
      "stateMutability": "nonpayable",
      "type": "fallback"
    },
    {
      "inputs": [],
      "name": "addWithdrawalQueueLiquidity",
      "outputs": [],
      "stateMutability": "nonpayable",
      "type": "function"
    },
    {
      "inputs": [],
      "name": "allocate",
      "outputs": [],
      "stateMutability": "nonpayable",
      "type": "function"
    },
    {
      "inputs": [
        {
          "internalType": "address",
          "name": "",
          "type": "address"
        }
      ],
      "name": "assetDefaultStrategies",
      "outputs": [
        {
          "internalType": "address",
          "name": "",
          "type": "address"
        }
      ],
      "stateMutability": "view",
      "type": "function"
    },
    {
      "inputs": [],
      "name": "autoAllocateThreshold",
      "outputs": [
        {
          "internalType": "uint256",
          "name": "",
          "type": "uint256"
        }
      ],
      "stateMutability": "view",
      "type": "function"
    },
    {
      "inputs": [
        {
          "internalType": "uint256",
          "name": "_amount",
          "type": "uint256"
        }
      ],
      "name": "burnForStrategy",
      "outputs": [],
      "stateMutability": "nonpayable",
      "type": "function"
    },
    {
      "inputs": [],
      "name": "cacheWETHAssetIndex",
      "outputs": [],
      "stateMutability": "nonpayable",
      "type": "function"
    },
    {
      "inputs": [
        {
          "internalType": "uint256",
          "name": "_amount",
          "type": "uint256"
        }
      ],
      "name": "calculateRedeemOutputs",
      "outputs": [
        {
          "internalType": "uint256[]",
          "name": "",
          "type": "uint256[]"
        }
      ],
      "stateMutability": "view",
      "type": "function"
    },
    {
      "inputs": [],
      "name": "capitalPaused",
      "outputs": [
        {
          "internalType": "bool",
          "name": "",
          "type": "bool"
        }
      ],
      "stateMutability": "view",
      "type": "function"
    },
    {
      "inputs": [
        {
          "internalType": "address",
          "name": "_asset",
          "type": "address"
        }
      ],
      "name": "checkBalance",
      "outputs": [
        {
          "internalType": "uint256",
          "name": "",
          "type": "uint256"
        }
      ],
      "stateMutability": "view",
      "type": "function"
    },
    {
      "inputs": [],
      "name": "claimGovernance",
      "outputs": [],
      "stateMutability": "nonpayable",
      "type": "function"
    },
    {
      "inputs": [
        {
          "internalType": "uint256",
          "name": "requestId",
          "type": "uint256"
        }
      ],
      "name": "claimWithdrawal",
      "outputs": [
        {
          "internalType": "uint256",
          "name": "amount",
          "type": "uint256"
        }
      ],
      "stateMutability": "nonpayable",
      "type": "function"
    },
    {
      "inputs": [
        {
          "internalType": "uint256[]",
          "name": "requestIds",
          "type": "uint256[]"
        }
      ],
      "name": "claimWithdrawals",
      "outputs": [
        {
          "internalType": "uint256[]",
          "name": "amounts",
          "type": "uint256[]"
        },
        {
          "internalType": "uint256",
          "name": "totalAmount",
          "type": "uint256"
        }
      ],
      "stateMutability": "nonpayable",
      "type": "function"
    },
    {
      "inputs": [],
      "name": "dripper",
      "outputs": [
        {
          "internalType": "address",
          "name": "",
          "type": "address"
        }
      ],
      "stateMutability": "view",
      "type": "function"
    },
    {
      "inputs": [],
      "name": "getAllAssets",
      "outputs": [
        {
          "internalType": "address[]",
          "name": "",
          "type": "address[]"
        }
      ],
      "stateMutability": "view",
      "type": "function"
    },
    {
      "inputs": [],
      "name": "getAllStrategies",
      "outputs": [
        {
          "internalType": "address[]",
          "name": "",
          "type": "address[]"
        }
      ],
      "stateMutability": "view",
      "type": "function"
    },
    {
      "inputs": [
        {
          "internalType": "address",
          "name": "_asset",
          "type": "address"
        }
      ],
      "name": "getAssetConfig",
      "outputs": [
        {
          "components": [
            {
              "internalType": "bool",
              "name": "isSupported",
              "type": "bool"
            },
            {
              "internalType": "enum VaultStorage.UnitConversion",
              "name": "unitConversion",
              "type": "uint8"
            },
            {
              "internalType": "uint8",
              "name": "decimals",
              "type": "uint8"
            },
            {
              "internalType": "uint16",
              "name": "allowedOracleSlippageBps",
              "type": "uint16"
            }
          ],
          "internalType": "struct VaultStorage.Asset",
          "name": "config",
          "type": "tuple"
        }
      ],
      "stateMutability": "view",
      "type": "function"
    },
    {
      "inputs": [],
      "name": "getAssetCount",
      "outputs": [
        {
          "internalType": "uint256",
          "name": "",
          "type": "uint256"
        }
      ],
      "stateMutability": "view",
      "type": "function"
    },
    {
      "inputs": [],
      "name": "getStrategyCount",
      "outputs": [
        {
          "internalType": "uint256",
          "name": "",
          "type": "uint256"
        }
      ],
      "stateMutability": "view",
      "type": "function"
    },
    {
      "inputs": [],
      "name": "governor",
      "outputs": [
        {
          "internalType": "address",
          "name": "",
          "type": "address"
        }
      ],
      "stateMutability": "view",
      "type": "function"
    },
    {
      "inputs": [
        {
          "internalType": "address",
          "name": "_priceProvider",
          "type": "address"
        },
        {
          "internalType": "address",
          "name": "_oToken",
          "type": "address"
        }
      ],
      "name": "initialize",
      "outputs": [],
      "stateMutability": "nonpayable",
      "type": "function"
    },
    {
      "inputs": [],
      "name": "isGovernor",
      "outputs": [
        {
          "internalType": "bool",
          "name": "",
          "type": "bool"
        }
      ],
      "stateMutability": "view",
      "type": "function"
    },
    {
      "inputs": [
        {
          "internalType": "address",
          "name": "_asset",
          "type": "address"
        }
      ],
      "name": "isSupportedAsset",
      "outputs": [
        {
          "internalType": "bool",
          "name": "",
          "type": "bool"
        }
      ],
      "stateMutability": "view",
      "type": "function"
    },
    {
      "inputs": [],
      "name": "maxSupplyDiff",
      "outputs": [
        {
          "internalType": "uint256",
          "name": "",
          "type": "uint256"
        }
      ],
      "stateMutability": "view",
      "type": "function"
    },
    {
      "inputs": [
        {
          "internalType": "address",
          "name": "_asset",
          "type": "address"
        },
        {
          "internalType": "uint256",
          "name": "_amount",
          "type": "uint256"
        },
        {
          "internalType": "uint256",
          "name": "_minimumOusdAmount",
          "type": "uint256"
        }
      ],
      "name": "mint",
      "outputs": [],
      "stateMutability": "nonpayable",
      "type": "function"
    },
    {
      "inputs": [
        {
          "internalType": "uint256",
          "name": "_amount",
          "type": "uint256"
        }
      ],
      "name": "mintForStrategy",
      "outputs": [],
      "stateMutability": "nonpayable",
      "type": "function"
    },
    {
      "inputs": [],
      "name": "netOusdMintForStrategyThreshold",
      "outputs": [
        {
          "internalType": "uint256",
          "name": "",
          "type": "uint256"
        }
      ],
      "stateMutability": "view",
      "type": "function"
    },
    {
      "inputs": [],
      "name": "netOusdMintedForStrategy",
      "outputs": [
        {
          "internalType": "int256",
          "name": "",
          "type": "int256"
        }
      ],
      "stateMutability": "view",
      "type": "function"
    },
    {
      "inputs": [],
      "name": "ousdMetaStrategy",
      "outputs": [
        {
          "internalType": "address",
          "name": "",
          "type": "address"
        }
      ],
      "stateMutability": "view",
      "type": "function"
    },
    {
      "inputs": [],
      "name": "priceProvider",
      "outputs": [
        {
          "internalType": "address",
          "name": "",
          "type": "address"
        }
      ],
      "stateMutability": "view",
      "type": "function"
    },
    {
      "inputs": [
        {
          "internalType": "address",
          "name": "asset",
          "type": "address"
        }
      ],
      "name": "priceUnitMint",
      "outputs": [
        {
          "internalType": "uint256",
          "name": "price",
          "type": "uint256"
        }
      ],
      "stateMutability": "view",
      "type": "function"
    },
    {
      "inputs": [
        {
          "internalType": "address",
          "name": "asset",
          "type": "address"
        }
      ],
      "name": "priceUnitRedeem",
      "outputs": [
        {
          "internalType": "uint256",
          "name": "price",
          "type": "uint256"
        }
      ],
      "stateMutability": "view",
      "type": "function"
    },
    {
      "inputs": [],
      "name": "rebase",
      "outputs": [],
      "stateMutability": "nonpayable",
      "type": "function"
    },
    {
      "inputs": [],
      "name": "rebasePaused",
      "outputs": [
        {
          "internalType": "bool",
          "name": "",
          "type": "bool"
        }
      ],
      "stateMutability": "view",
      "type": "function"
    },
    {
      "inputs": [],
      "name": "rebaseThreshold",
      "outputs": [
        {
          "internalType": "uint256",
          "name": "",
          "type": "uint256"
        }
      ],
      "stateMutability": "view",
      "type": "function"
    },
    {
      "inputs": [
        {
          "internalType": "uint256",
          "name": "_amount",
          "type": "uint256"
        },
        {
          "internalType": "uint256",
          "name": "_minimumUnitAmount",
          "type": "uint256"
        }
      ],
      "name": "redeem",
      "outputs": [],
      "stateMutability": "nonpayable",
      "type": "function"
    },
    {
      "inputs": [
        {
          "internalType": "uint256",
          "name": "_minimumUnitAmount",
          "type": "uint256"
        }
      ],
      "name": "redeemAll",
      "outputs": [],
      "stateMutability": "nonpayable",
      "type": "function"
    },
    {
      "inputs": [],
      "name": "redeemFeeBps",
      "outputs": [
        {
          "internalType": "uint256",
          "name": "",
          "type": "uint256"
        }
      ],
      "stateMutability": "view",
      "type": "function"
    },
    {
      "inputs": [
        {
          "internalType": "uint256",
          "name": "_amount",
          "type": "uint256"
        }
      ],
      "name": "requestWithdrawal",
      "outputs": [
        {
          "internalType": "uint256",
          "name": "requestId",
          "type": "uint256"
        },
        {
          "internalType": "uint256",
          "name": "queued",
          "type": "uint256"
        }
      ],
      "stateMutability": "nonpayable",
      "type": "function"
    },
    {
      "inputs": [
        {
          "internalType": "address",
          "name": "newImpl",
          "type": "address"
        }
      ],
      "name": "setAdminImpl",
      "outputs": [],
      "stateMutability": "nonpayable",
      "type": "function"
    },
    {
      "inputs": [],
      "name": "strategistAddr",
      "outputs": [
        {
          "internalType": "address",
          "name": "",
          "type": "address"
        }
      ],
      "stateMutability": "view",
      "type": "function"
    },
    {
      "inputs": [],
      "name": "totalValue",
      "outputs": [
        {
          "internalType": "uint256",
          "name": "value",
          "type": "uint256"
        }
      ],
      "stateMutability": "view",
      "type": "function"
    },
    {
      "inputs": [
        {
          "internalType": "address",
          "name": "_newGovernor",
          "type": "address"
        }
      ],
      "name": "transferGovernance",
      "outputs": [],
      "stateMutability": "nonpayable",
      "type": "function"
    },
    {
      "inputs": [],
      "name": "trusteeAddress",
      "outputs": [
        {
          "internalType": "address",
          "name": "",
          "type": "address"
        }
      ],
      "stateMutability": "view",
      "type": "function"
    },
    {
      "inputs": [],
      "name": "trusteeFeeBps",
      "outputs": [
        {
          "internalType": "uint256",
          "name": "",
          "type": "uint256"
        }
      ],
      "stateMutability": "view",
      "type": "function"
    },
    {
      "inputs": [],
      "name": "vaultBuffer",
      "outputs": [
        {
          "internalType": "uint256",
          "name": "",
          "type": "uint256"
        }
      ],
      "stateMutability": "view",
      "type": "function"
    },
    {
      "inputs": [],
      "name": "weth",
      "outputs": [
        {
          "internalType": "address",
          "name": "",
          "type": "address"
        }
      ],
      "stateMutability": "view",
      "type": "function"
    },
    {
      "inputs": [],
      "name": "wethAssetIndex",
      "outputs": [
        {
          "internalType": "uint256",
          "name": "",
          "type": "uint256"
        }
      ],
      "stateMutability": "view",
      "type": "function"
    },
    {
      "inputs": [],
      "name": "withdrawalQueueMetadata",
      "outputs": [
        {
          "internalType": "uint128",
          "name": "queued",
          "type": "uint128"
        },
        {
          "internalType": "uint128",
          "name": "claimable",
          "type": "uint128"
        },
        {
          "internalType": "uint128",
          "name": "claimed",
          "type": "uint128"
        },
        {
          "internalType": "uint128",
          "name": "nextWithdrawalIndex",
          "type": "uint128"
        }
      ],
      "stateMutability": "view",
      "type": "function"
    },
    {
      "inputs": [
        {
          "internalType": "uint256",
          "name": "",
          "type": "uint256"
        }
      ],
      "name": "withdrawalRequests",
      "outputs": [
        {
          "internalType": "address",
          "name": "withdrawer",
          "type": "address"
        },
        {
          "internalType": "bool",
          "name": "claimed",
          "type": "bool"
        },
        {
          "internalType": "uint128",
          "name": "amount",
          "type": "uint128"
        },
        {
          "internalType": "uint128",
          "name": "queued",
          "type": "uint128"
        }
      ],
      "stateMutability": "view",
      "type": "function"
    }
  ],
  "transactionHash": "0xd28b24bfaa083ba1af8b408e526ed8dc917f6a372c757591c50fadfcf212d80c",
  "args": [
    "0x94373a4919B3240D86eA41593D5eBa789FEF3848"
  ],
  "numDeployments": 2,
  "solcInputHash": "9b811e7a632431f9f724307daee2b897",
  "bytecode": "0x6037805461ffff60a01b1916600160a81b179055603d80546001600160a01b0319908116909155603e805482169055603f80548216905560458054909116905560006046819055604781905560e060405260a081905260c052604880546001600160b01b03191690553480156200007557600080fd5b50604051620045363803806200453683398101604081905262000098916200010e565b620000b0336000805160206200451683398151915255565b60008051602062004516833981519152546040516001600160a01b03909116906000907fc7c0c772add429241571afb3805861fb3cfa2af374534088b76cdb4325a87e9a908290a360601b6001600160601b03191660805262000140565b6000602082840312156200012157600080fd5b81516001600160a01b03811681146200013957600080fd5b9392505050565b60805160601c614363620001b36000396000818161040b015281816108e10152818161095401528181610d350152818161183a0152818161190f0152818161249d015281816125a701528181612785015281816127bb0152818161280f01528181612cf3015261324801526143636000f3fe608060405234801561001057600080fd5b50600436106102bb5760003560e01c806367bd7ba311610182578063ab80dafb116100e9578063c7af3352116100a2578063e45cc9f01161007c578063e45cc9f014610712578063e6cc54321461071b578063f84444361461072f578063fc0cfeee14610742576102bb565b8063c7af3352146106ef578063d38bfff4146106f7578063d4c3eea01461070a576102bb565b8063ab80dafb146106a9578063abaa9916146106bc578063af14052c146106c4578063b888879e146106cc578063b9b17f9f146106df578063c3b28864146106e7576102bb565b8063937b25811161013b578063937b2581146105915780639be918e61461061b5780639ee679e8146106475780639fa1826e1461066f578063a0aead4d14610678578063a403e4d514610680576102bb565b806367bd7ba3146105195780636ec3ab67146105395780637136a7a6146105595780637a2202f31461056c5780637cbc2373146105755780638e510b5214610588576102bb565b8063485cc95511610226578063570d8e1d116101df578063570d8e1d146104b25780635b60f9fc146104c55780635d36b190146104d85780635f515226146104e0578063603ea03b146104f35780636217f3ea14610506576102bb565b8063485cc9551461043557806348e30f541461044857806349c1d54d1461046957806352d38e5d1461047c57806353ca9f241461048557806354c6d858146104a9576102bb565b80632acada4d116102785780632acada4d1461037757806331e19cfa1461038c578063362bd1a3146103945780633b8fe28d146103f35780633fc8cef31461040657806344c547071461042d576102bb565b806309f6442c146103015780630c340a241461031d578063156e29f61461033d57806318ce56bd146103525780631edfe3da14610365578063207134b01461036e575b7fa2bd3d3cf188a41358c8b401076eb59066b09dec5775650c0de4c55187d17bd9366000803760008036600084545af43d6000803e8080156102fc573d6000f35b3d6000fd5b61030a60385481565b6040519081526020015b60405180910390f35b610325610755565b6040516001600160a01b039091168152602001610314565b61035061034b366004613c26565b610772565b005b604554610325906001600160a01b031681565b61030a60395481565b61030a60435481565b61037f6107f0565b6040516103149190613e04565b60365461030a565b604a54604b546103c0916001600160801b0380821692600160801b928390048216928183169291041684565b604080516001600160801b0395861681529385166020850152918416918301919091529091166060820152608001610314565b61030a610401366004613bd8565b610852565b6103257f000000000000000000000000000000000000000000000000000000000000000081565b6103506108ad565b610350610443366004613bf3565b6109f6565b61045b610456366004613c59565b610bf8565b604051610314929190613e64565b604254610325906001600160a01b031681565b61030a603b5481565b60375461049990600160a01b900460ff1681565b6040519015158152602001610314565b61030a607b5481565b603f54610325906001600160a01b031681565b61030a6104d3366004613bd8565b610d67565b610350610d90565b61030a6104ee366004613bd8565b610e36565b604954610325906001600160a01b031681565b610350610514366004613d40565b610e47565b61052c610527366004613d40565b610fde565b6040516103149190613e51565b61054c610547366004613bd8565b610fe9565b6040516103149190613fad565b610350610567366004613d40565b61108f565b61030a60475481565b610350610583366004613d72565b61117a565b61030a60415481565b6105e261059f366004613d40565b604c60205260009081526040902080546001909101546001600160a01b03821691600160a01b900460ff16906001600160801b0380821691600160801b90041684565b604080516001600160a01b03909516855292151560208501526001600160801b0391821692840192909252166060820152608001610314565b610499610629366004613bd8565b6001600160a01b031660009081526033602052604090205460ff1690565b61065a610655366004613d40565b6111ed565b60408051928352602083019190915201610314565b61030a603a5481565b60345461030a565b61032561068e366004613bd8565b6040602081905260009182529020546001600160a01b031681565b6103506106b7366004613d40565b6113e4565b61035061155b565b6103506115ca565b603754610325906001600160a01b031681565b610350611610565b61037f611680565b6104996116e0565b610350610705366004613bd8565b611711565b61030a6117b5565b61030a60465481565b60375461049990600160a81b900460ff1681565b61030a61073d366004613d40565b6117bf565b610350610750366004613bd8565b61186b565b600061076d60008051602061430e8339815191525490565b905090565b603754600160a81b900460ff16156107a55760405162461bcd60e51b815260040161079c90613f5d565b60405180910390fd5b6000805160206142ee833981519152805460028114156107d75760405162461bcd60e51b815260040161079c90613f85565b600282556107e685858561190d565b5060019055505050565b6060603480548060200260200160405190810160405280929190818152602001828054801561084857602002820191906000526020600020905b81546001600160a01b0316815260019091019060200180831161082a575b5050505050905090565b60008061087b61087561086485611b8e565b670de0b6b3a7640000906012611bf8565b84611c5a565b9050670de0b6b3a764000081610892856001611db6565b61089c9190614194565b6108a69190614087565b9392505050565b6108b56116e0565b6108d15760405162461bcd60e51b815260040161079c90613efd565b60345460005b81811015610951577f00000000000000000000000000000000000000000000000000000000000000006001600160a01b03166034828154811061091c5761091c6142c1565b6000918252602090912001546001600160a01b0316141561094157607b819055610951565b61094a8161425d565b90506108d7565b507f00000000000000000000000000000000000000000000000000000000000000006001600160a01b03166034607b5481548110610991576109916142c1565b6000918252602090912001546001600160a01b0316146109f35760405162461bcd60e51b815260206004820152601860248201527f496e76616c6964205745544820417373657420496e6465780000000000000000604482015260640161079c565b50565b6109fe6116e0565b610a1a5760405162461bcd60e51b815260040161079c90613efd565b600054610100900460ff1680610a33575060005460ff16155b610a965760405162461bcd60e51b815260206004820152602e60248201527f496e697469616c697a61626c653a20636f6e747261637420697320616c72656160448201526d191e481a5b9a5d1a585b1a5e995960921b606482015260840161079c565b600054610100900460ff16158015610ab8576000805461ffff19166101011790555b6001600160a01b038316610b0e5760405162461bcd60e51b815260206004820152601d60248201527f507269636550726f76696465722061646472657373206973207a65726f000000604482015260640161079c565b6001600160a01b038216610b5d5760405162461bcd60e51b81526020600482015260166024820152756f546f6b656e2061646472657373206973207a65726f60501b604482015260640161079c565b603c80546001600160a01b038481166001600160a01b031990921691909117909155603780546001600160b01b03191691851691909117600160a81b17905560006038819055603981905569054b40b1f852bda00000603a55683635c9adc5dea00000603b556040805191825260208201908190529051610be091603691613b50565b508015610bf3576000805461ff00191690555b505050565b603754606090600090600160a81b900460ff1615610c285760405162461bcd60e51b815260040161079c90613f5d565b6000805160206142ee83398151915280546002811415610c5a5760405162461bcd60e51b815260040161079c90613f85565b60028255845167ffffffffffffffff811115610c7857610c786142d7565b604051908082528060200260200182016040528015610ca1578160200160208202803683370190505b50935060005b8551811015610d2757610cd2868281518110610cc557610cc56142c1565b60200260200101516120a8565b858281518110610ce457610ce46142c1565b602002602001018181525050848181518110610d0257610d026142c1565b602002602001015184610d15919061406f565b9350610d208161425d565b9050610ca7565b50610d5c6001600160a01b037f0000000000000000000000000000000000000000000000000000000000000000163385612377565b600182555050915091565b600080610d7961087561086485611b8e565b9050670de0b6b3a764000081610892856000611db6565b7f44c4d30b2eaad5130ad70c3ba6972730566f3e6359ab83e800d905c61b1c51db546001600160a01b0316336001600160a01b031614610e2b5760405162461bcd60e51b815260206004820152603060248201527f4f6e6c79207468652070656e64696e6720476f7665726e6f722063616e20636f60448201526f6d706c6574652074686520636c61696d60801b606482015260840161079c565b610e34336123cd565b565b6000610e418261248e565b92915050565b603754600160a81b900460ff1615610e715760405162461bcd60e51b815260040161079c90613f5d565b6045546001600160a01b03163314610e9b5760405162461bcd60e51b815260040161079c90613eb9565b6001600160ff1b038110610ec15760405162461bcd60e51b815260040161079c90613f34565b7f222838db2794d11532d940e8dec38ae307ed0b63cd97c233322e221f998767a63382604051610ef2929190613deb565b60405180910390a18060466000828254610f0c91906141b3565b9091555050604754604654610f209061252c565b10610f775760405162461bcd60e51b815260206004820152602160248201527f417474656d7074696e6720746f206275726e20746f6f206d756368204f5553446044820152601760f91b606482015260840161079c565b603c54604051632770a7eb60e21b81526001600160a01b0390911690639dc29fac90610fa99033908590600401613deb565b600060405180830381600087803b158015610fc357600080fd5b505af1158015610fd7573d6000803e3d6000fd5b5050505050565b6060610e418261256f565b604080516080808201835260008083526020808401829052838501829052606084018290526001600160a01b038616825260338152908490208451928301909452835460ff808216151584529394929391840191610100909104166001811115611055576110556142ab565b6001811115611066576110666142ab565b8152905462010000810460ff1660208301526301000000900461ffff1660409091015292915050565b603754600160a81b900460ff16156110b95760405162461bcd60e51b815260040161079c90613f5d565b6000805160206142ee833981519152805460028114156110eb5760405162461bcd60e51b815260040161079c90613f85565b60028255603c546040516370a0823160e01b8152336004820152611172916001600160a01b0316906370a082319060240160206040518083038186803b15801561113457600080fd5b505afa158015611148573d6000803e3d6000fd5b505050506040513d601f19601f8201168201806040525081019061116c9190613d59565b846126b0565b506001905550565b603754600160a81b900460ff16156111a45760405162461bcd60e51b815260040161079c90613f5d565b6000805160206142ee833981519152805460028114156111d65760405162461bcd60e51b815260040161079c90613f85565b600282556111e484846126b0565b50600190555050565b6037546000908190600160a81b900460ff161561121c5760405162461bcd60e51b815260040161079c90613f5d565b6000805160206142ee8339815191528054600281141561124e5760405162461bcd60e51b815260040161079c90613f85565b60028255603c54604051632770a7eb60e21b81526001600160a01b0390911690639dc29fac906112849033908990600401613deb565b600060405180830381600087803b15801561129e57600080fd5b505af11580156112b2573d6000803e3d6000fd5b5050604b54604a546001600160801b03600160801b909204821697506112dc93508892501661406f565b92506112e984600161406f565b604b80546001600160801b03928316600160801b02908316179055604a80549185166001600160801b03199092169190911790556040805186815260208101859052859133917f38e3d972947cfef94205163d483d6287ef27eb312e20cb8e0b13a49989db232e910160405180910390a35060408051608081018252338152600060208083018281526001600160801b03988916848601908152878a1660608601908152898552604c909352949092209251835492511515600160a01b026001600160a81b03199093166001600160a01b039190911617919091178255915191518616600160801b0291909516176001948501559290925591565b603754600160a81b900460ff161561140e5760405162461bcd60e51b815260040161079c90613f5d565b6045546001600160a01b031633146114385760405162461bcd60e51b815260040161079c90613eb9565b6001600160ff1b03811061145e5760405162461bcd60e51b815260040161079c90613f34565b7f0f6798a560793a54c3bcfe86a93cde1e73087d944c0ea20544137d4121396885338260405161148f929190613deb565b60405180910390a180604660008282546114a99190614003565b90915550506047546046546114bd9061252c565b106115295760405162461bcd60e51b815260206004820152603660248201527f4d696e746564206f75736420737572706173736564206e65744f7573644d696e6044820152753a2337b929ba3930ba32b3bcaa343932b9b437b6321760511b606482015260840161079c565b603c546040516340c10f1960e01b81526001600160a01b03909116906340c10f1990610fa99033908590600401613deb565b603754600160a81b900460ff16156115855760405162461bcd60e51b815260040161079c90613f5d565b6000805160206142ee833981519152805460028114156115b75760405162461bcd60e51b815260040161079c90613f85565b600282556115c361292c565b5060019055565b6000805160206142ee833981519152805460028114156115fc5760405162461bcd60e51b815260040161079c90613f85565b6002825561160861293d565b505060019055565b604960009054906101000a90046001600160a01b03166001600160a01b031663e52253816040518163ffffffff1660e01b8152600401600060405180830381600087803b15801561166057600080fd5b505af1158015611674573d6000803e3d6000fd5b505050506109f3612c78565b60606036805480602002602001604051908101604052809291908181526020018280548015610848576020028201919060005260206000209081546001600160a01b0316815260019091019060200180831161082a575050505050905090565b60006116f860008051602061430e8339815191525490565b6001600160a01b0316336001600160a01b031614905090565b6117196116e0565b6117355760405162461bcd60e51b815260040161079c90613efd565b61175d817f44c4d30b2eaad5130ad70c3ba6972730566f3e6359ab83e800d905c61b1c51db55565b806001600160a01b031661177d60008051602061430e8339815191525490565b6001600160a01b03167fa39cc5eb22d0f34d8beaefee8a3f17cc229c1a1d1ef87a5ad47313487b1c4f0d60405160405180910390a350565b600061076d612e45565b603754600090600160a81b900460ff16156117ec5760405162461bcd60e51b815260040161079c90613f5d565b6000805160206142ee8339815191528054600281141561181e5760405162461bcd60e51b815260040161079c90613f85565b6002825561182b846120a8565b92506118616001600160a01b037f0000000000000000000000000000000000000000000000000000000000000000163385612377565b5060019055919050565b6118736116e0565b61188f5760405162461bcd60e51b815260040161079c90613efd565b803b6118e95760405162461bcd60e51b8152602060048201526024808201527f6e657720696d706c656d656e746174696f6e206973206e6f74206120636f6e746044820152631c9858dd60e21b606482015260840161079c565b7fa2bd3d3cf188a41358c8b401076eb59066b09dec5775650c0de4c55187d17bd955565b7f00000000000000000000000000000000000000000000000000000000000000006001600160a01b0316836001600160a01b03161461198e5760405162461bcd60e51b815260206004820152601d60248201527f556e737570706f7274656420617373657420666f72206d696e74696e67000000604482015260640161079c565b600082116119de5760405162461bcd60e51b815260206004820152601d60248201527f416d6f756e74206d7573742062652067726561746572207468616e2030000000604482015260640161079c565b80821015611a2e5760405162461bcd60e51b815260206004820152601e60248201527f4d696e7420616d6f756e74206c6f776572207468616e206d696e696d756d0000604482015260640161079c565b7f0f6798a560793a54c3bcfe86a93cde1e73087d944c0ea20544137d41213968853383604051611a5f929190613deb565b60405180910390a1603754600160a01b900460ff16158015611a835750603b548210155b15611afa57604960009054906101000a90046001600160a01b03166001600160a01b031663e52253816040518163ffffffff1660e01b8152600401600060405180830381600087803b158015611ad857600080fd5b505af1158015611aec573d6000803e3d6000fd5b50505050611af861293d565b505b603c546040516340c10f1960e01b81526001600160a01b03909116906340c10f1990611b2c9033908690600401613deb565b600060405180830381600087803b158015611b4657600080fd5b505af1158015611b5a573d6000803e3d6000fd5b50611b74925050506001600160a01b038416333085612eaf565b611b7c612c78565b50603a548210610bf357610bf361292c565b6001600160a01b03811660009081526033602052604090205462010000900460ff1680611bf35760405162461bcd60e51b8152602060048201526013602482015272111958da5b585b1cc81b9bdd0818d858da1959606a1b604482015260640161079c565b919050565b600081831115611c2857611c21611c0f838561421a565b611c1a90600a6140ec565b8590612eed565b9350611c52565b81831015611c5257611c4f611c3d848461421a565b611c4890600a6140ec565b8590612ef9565b93505b509192915050565b6001600160a01b038116600090815260336020526040812054610100900460ff1681816001811115611c8e57611c8e6142ab565b1415611cb257611caa6012611ca285611b8e565b869190611bf8565b915050610e41565b6001816001811115611cc657611cc66142ab565b1415611d67576000836001600160a01b031663e6aa216c6040518163ffffffff1660e01b815260040160206040518083038186803b158015611d0757600080fd5b505afa158015611d1b573d6000803e3d6000fd5b505050506040513d601f19601f82011682018060405250810190611d3f9190613d59565b9050670de0b6b3a7640000611d548287614194565b611d5e9190614087565b92505050610e41565b60405162461bcd60e51b815260206004820152601b60248201527f556e737570706f7274656420636f6e76657273696f6e20747970650000000000604482015260640161079c565b5092915050565b6001600160a01b038281166000818152603360205260408082205460375491516315d5220f60e31b81526004810194909452919361010090920460ff169291169063aea910789060240160206040518083038186803b158015611e1857600080fd5b505afa158015611e2c573d6000803e3d6000fd5b505050506040513d601f19601f82011682018060405250810190611e509190613d59565b91506001816001811115611e6657611e666142ab565b1415611f06576000846001600160a01b031663e6aa216c6040518163ffffffff1660e01b815260040160206040518083038186803b158015611ea757600080fd5b505afa158015611ebb573d6000803e3d6000fd5b505050506040513d601f19601f82011682018060405250810190611edf9190613d59565b905080611ef484670de0b6b3a7640000614194565b611efe9190614087565b925050611f67565b6000816001811115611f1a57611f1a6142ab565b14611f675760405162461bcd60e51b815260206004820152601b60248201527f556e737570706f7274656420636f6e76657273696f6e20747970650000000000604482015260640161079c565b67120a871cc0020000821115611fbf5760405162461bcd60e51b815260206004820152601860248201527f5661756c743a2050726963652065786365656473206d61780000000000000000604482015260640161079c565b6709b6e64a8ec600008210156120105760405162461bcd60e51b81526020600482015260166024820152752b30bab63a1d10283934b1b2903ab73232b91036b4b760511b604482015260640161079c565b821561208757670de0b6b3a764000082111561203257670de0b6b3a764000091505b670dd99bb65dd700008210156120825760405162461bcd60e51b815260206004820152601560248201527441737365742070726963652062656c6f772070656760581b604482015260640161079c565b611daf565b670de0b6b3a7640000821015611daf5750670de0b6b3a76400009392505050565b6040805160808082018352604a546001600160801b038082168452600160801b918290048116602080860191909152604b548083168688015283900482166060808701919091526000888152604c83528781208851968701895280546001600160a01b0381168852600160a01b900460ff1615801594880194909452600101548085169887019890985293909604909116948301949094529261217f5760405162461bcd60e51b815260206004820152600f60248201526e185b1c9958591e4818db185a5b5959608a1b604482015260640161079c565b80516001600160a01b031633146121c85760405162461bcd60e51b815260206004820152600d60248201526c3737ba103932b8bab2b9ba32b960991b604482015260640161079c565b81602001516001600160801b031681606001516001600160801b031611156122d557604960009054906101000a90046001600160a01b03166001600160a01b031663e52253816040518163ffffffff1660e01b8152600401600060405180830381600087803b15801561223a57600080fd5b505af115801561224e573d6000803e3d6000fd5b50505050600061225c612c78565b90508083602001516001600160801b0316612277919061406f565b82606001516001600160801b031611156122d35760405162461bcd60e51b815260206004820152601760248201527f71756575652070656e64696e67206c6971756964697479000000000000000000604482015260640161079c565b505b806040015182604001516122e99190614044565b604b80546001600160801b039283166001600160801b03199091161790556000858152604c6020908152604091829020805460ff60a01b1916600160a01b179055838201518251931683529051869233927f2d43eb174787155132b52ddb6b346e2dca99302eac3df4466dbeff953d3c84d192918290030190a3604001516001600160801b03169392505050565b610bf38363a9059cbb60e01b8484604051602401612396929190613deb565b60408051601f198184030181529190526020810180516001600160e01b03166001600160e01b031990931692909217909152612f05565b6001600160a01b0381166124235760405162461bcd60e51b815260206004820152601a60248201527f4e657720476f7665726e6f722069732061646472657373283029000000000000604482015260640161079c565b806001600160a01b031661244360008051602061430e8339815191525490565b6001600160a01b03167fc7c0c772add429241571afb3805861fb3cfa2af374534088b76cdb4325a87e9a60405160405180910390a36109f38160008051602061430e83398151915255565b600061249982612fd7565b90507f00000000000000000000000000000000000000000000000000000000000000006001600160a01b0316826001600160a01b03161415611bf35760408051608081018252604a546001600160801b03808216808452600160801b9283900482166020850152604b54808316958501869052929092041660608301529091612522908461406f565b6108a6919061421a565b60006001600160ff1b0382126125545760405162461bcd60e51b815260040161079c90613f34565b600082121561256b5761256682614278565b610e41565b5090565b6038546060901561259e5760385460009061258e9084906127106131a6565b905061259a818461421a565b9250505b6000607b5490507f00000000000000000000000000000000000000000000000000000000000000006001600160a01b0316603482815481106125e2576125e26142c1565b6000918252602090912001546001600160a01b0316146126445760405162461bcd60e51b815260206004820152601b60248201527f5745544820417373657420696e646578206e6f74206361636865640000000000604482015260640161079c565b60345467ffffffffffffffff81111561265f5761265f6142d7565b604051908082528060200260200182016040528015612688578160200160208202803683370190505b5091508282828151811061269e5761269e6142c1565b60200260200101818152505050919050565b7f222838db2794d11532d940e8dec38ae307ed0b63cd97c233322e221f998767a633836040516126e1929190613deb565b60405180910390a1816126f2575050565b60006126fd8361256f565b607b5481518110612710576127106142c1565b602002602001015190508181101561276a5760405162461bcd60e51b815260206004820181905260248201527f52656465656d20616d6f756e74206c6f776572207468616e206d696e696d756d604482015260640161079c565b806127736131c8565b106127b1576127ac6001600160a01b037f0000000000000000000000000000000000000000000000000000000000000000163383612377565b6128bf565b6001600160a01b037f0000000000000000000000000000000000000000000000000000000000000000811660009081526040602081905290205416801561288357604051636ce5768960e11b81523360048201526001600160a01b037f0000000000000000000000000000000000000000000000000000000000000000811660248301526044820184905282919082169063d9caed1290606401600060405180830381600087803b15801561286557600080fd5b505af1158015612879573d6000803e3d6000fd5b50505050506128bd565b60405162461bcd60e51b815260206004820152600f60248201526e2634b8bab4b234ba3c9032b93937b960891b604482015260640161079c565b505b603c54604051632770a7eb60e21b81526001600160a01b0390911690639dc29fac906128f19033908790600401613deb565b600060405180830381600087803b15801561290b57600080fd5b505af115801561291f573d6000803e3d6000fd5b50505050610bf383613314565b612934612c78565b50610e3461347a565b603754600090600160a01b900460ff161561298c5760405162461bcd60e51b815260206004820152600f60248201526e149958985cda5b99c81c185d5cd959608a1b604482015260640161079c565b603c54604080516318160ddd60e01b815290516000926001600160a01b0316916318160ddd916004808301926020929190829003018186803b1580156129d157600080fd5b505afa1580156129e5573d6000803e3d6000fd5b505050506040513d601f19601f82011682018060405250810190612a099190613d59565b90506000612a15612e45565b905081612a25579150612c759050565b6042546001600160a01b03168015801590612a3f57508282115b15612b81576000612a50848461421a565b90506000612a6d604354612710846131a69092919063ffffffff16565b9050808211612ac95760405162461bcd60e51b815260206004820152602260248201527f466565206d757374206e6f742062652067726561746572207468616e207969656044820152611b1960f21b606482015260840161079c565b8015612b3457603c546040516340c10f1960e01b81526001600160a01b03909116906340c10f1990612b019086908590600401613deb565b600060405180830381600087803b158015612b1b57600080fd5b505af1158015612b2f573d6000803e3d6000fd5b505050505b604080516001600160a01b0385168152602081018490529081018290527f09516ecf4a8a86e59780a9befc6dee948bc9e60a36e3be68d31ea817ee8d2c809060600160405180910390a150505b603c60009054906101000a90046001600160a01b03166001600160a01b03166318160ddd6040518163ffffffff1660e01b815260040160206040518083038186803b158015612bcf57600080fd5b505afa158015612be3573d6000803e3d6000fd5b505050506040513d601f19601f82011682018060405250810190612c079190613d59565b925082821115612c7057603c546040516339a7919f60e01b8152600481018490526001600160a01b03909116906339a7919f90602401600060405180830381600087803b158015612c5757600080fd5b505af1158015612c6b573d6000803e3d6000fd5b505050505b509150505b90565b60408051608081018252604a546001600160801b03808216808452600160801b92839004821660208501819052604b5480841696860196909652929094041660608301526000928391612cca916141f2565b6001600160801b031690508015612e40576040516370a0823160e01b81523060048201526000907f00000000000000000000000000000000000000000000000000000000000000006001600160a01b0316906370a082319060240160206040518083038186803b158015612d3d57600080fd5b505afa158015612d51573d6000803e3d6000fd5b505050506040513d601f19601f82011682018060405250810190612d759190613d59565b9050600083604001518460200151612d8d91906141f2565b6001600160801b0316905080821115612e3d576000612dac828461421a565b9050808410612dbb5780612dbd565b835b955060008686602001516001600160801b0316612dda919061406f565b604a80546001600160801b03808416600160801b0291161790556040519091507fee79a0c43d3993055690b54e074b5153e8bae8d1a872b656dedb64aa8f46333390612e329083908a90918252602082015260400190565b60405180910390a150505b50505b505090565b6000612e4f6136e8565b60408051608081018252604a546001600160801b03808216808452600160801b9283900482166020850152604b54808316958501869052929092041660608301529293509190612e9f908461406f565b612ea9919061421a565b91505090565b6040516001600160a01b0380851660248301528316604482015260648101829052612ee79085906323b872dd60e01b90608401612396565b50505050565b60006108a68284614194565b60006108a68284614087565b6000612f5a826040518060400160405280602081526020017f5361666545524332303a206c6f772d6c6576656c2063616c6c206661696c6564815250856001600160a01b03166137049092919063ffffffff16565b805190915015610bf35780806020019051810190612f789190613d1e565b610bf35760405162461bcd60e51b815260206004820152602a60248201527f5361666545524332303a204552433230206f7065726174696f6e20646964206e6044820152691bdd081cdd58d8d9595960b21b606482015260840161079c565b6040516370a0823160e01b815230600482015260009082906001600160a01b038216906370a082319060240160206040518083038186803b15801561301b57600080fd5b505afa15801561302f573d6000803e3d6000fd5b505050506040513d601f19601f820116820180604052508101906130539190613d59565b60365490925060005b8181101561319e57600060368281548110613079576130796142c1565b60009182526020909120015460405163551c457b60e11b81526001600160a01b0388811660048301529091169150819063aa388af69060240160206040518083038186803b1580156130ca57600080fd5b505afa1580156130de573d6000803e3d6000fd5b505050506040513d601f19601f820116820180604052508101906131029190613d1e565b1561318d57604051632fa8a91360e11b81526001600160a01b038781166004830152821690635f5152269060240160206040518083038186803b15801561314857600080fd5b505afa15801561315c573d6000803e3d6000fd5b505050506040513d601f19601f820116820180604052508101906131809190613d59565b61318a908661406f565b94505b506131978161425d565b905061305c565b505050919050565b6000806131b38585612eed565b90506131bf8184612ef9565b95945050505050565b60408051608081018252604a546001600160801b03808216808452600160801b92839004821660208501819052604b548084169686019690965292909404166060830152600092839161321a916141f2565b6040516370a0823160e01b81523060048201526001600160801b039190911691506000906001600160a01b037f000000000000000000000000000000000000000000000000000000000000000016906370a082319060240160206040518083038186803b15801561328a57600080fd5b505afa15801561329e573d6000803e3d6000fd5b505050506040513d601f19601f820116820180604052508101906132c29190613d59565b90506000836040015184602001516132da91906141f2565b6001600160801b031690506132ef818461406f565b821115612e3d5780613301848461421a565b61330b919061421a565b94505050505090565b6000603b5482101580156133325750603754600160a01b900460ff16155b156133465761333f61293d565b9050613351565b61334e612e45565b90505b604154156134765760006133eb82603c60009054906101000a90046001600160a01b03166001600160a01b03166318160ddd6040518163ffffffff1660e01b815260040160206040518083038186803b1580156133ad57600080fd5b505afa1580156133c1573d6000803e3d6000fd5b505050506040513d601f19601f820116820180604052508101906133e59190613d59565b9061371b565b9050604154670de0b6b3a764000082116134165761341182670de0b6b3a764000061421a565b613428565b613428670de0b6b3a76400008361421a565b1115610bf35760405162461bcd60e51b815260206004820152601e60248201527f4261636b696e6720737570706c79206c6971756964697479206572726f720000604482015260640161079c565b5050565b600061348461373c565b90508061348e5750565b6000613498613819565b905060006134a6828461406f565b90506000826134cb576039546134c490670de0b6b3a764000061421a565b9050613508565b83826039546134da9190614194565b6134e49190614087565b905080670de0b6b3a76400001115612ee7576134c481670de0b6b3a764000061421a565b806135135750505050565b60345460005b818110156136e057600060348281548110613536576135366142c1565b60009182526020822001546040516370a0823160e01b81523060048201526001600160a01b03909116925082906370a082319060240160206040518083038186803b15801561358457600080fd5b505afa158015613598573d6000803e3d6000fd5b505050506040513d601f19601f820116820180604052508101906135bc9190613d59565b9050806135ca5750506136d0565b60006135d68287613875565b6001600160a01b038085166000908152604060208190529020549192501680158015906136035750600082115b156136cb578061361d6001600160a01b0386168285612377565b6040516311f9fbc960e21b81526001600160a01b038216906347e7ef249061364b9088908790600401613deb565b600060405180830381600087803b15801561366557600080fd5b505af1158015613679573d6000803e3d6000fd5b5050604080516001600160a01b03808a168252861660208201529081018690527f41b99659f6ba0803f444aff29e5bf6e26dd86a3219aff92119d69710a956ba8d9250606001905060405180910390a1505b505050505b6136d98161425d565b9050613519565b505050505050565b60006136f2613819565b6136fa61373c565b61076d919061406f565b6060613713848460008561388a565b949350505050565b60008061373084670de0b6b3a7640000612eed565b90506137138184612ef9565b603454600090815b81811015612e4057600060348281548110613761576137616142c1565b60009182526020822001546040516370a0823160e01b81523060048201526001600160a01b03909116925082906370a082319060240160206040518083038186803b1580156137af57600080fd5b505afa1580156137c3573d6000803e3d6000fd5b505050506040513d601f19601f820116820180604052508101906137e79190613d59565b90508015613806576137f98183611c5a565b613803908661406f565b94505b5050806138129061425d565b9050613744565b603654600090815b81811015612e40576138596036828154811061383f5761383f6142c1565b6000918252602090912001546001600160a01b03166139b2565b613863908461406f565b925061386e8161425d565b9050613821565b60006108a68383670de0b6b3a76400006131a6565b6060824710156138eb5760405162461bcd60e51b815260206004820152602660248201527f416464726573733a20696e73756666696369656e742062616c616e636520666f6044820152651c8818d85b1b60d21b606482015260840161079c565b843b6139395760405162461bcd60e51b815260206004820152601d60248201527f416464726573733a2063616c6c20746f206e6f6e2d636f6e7472616374000000604482015260640161079c565b600080866001600160a01b031685876040516139559190613dcf565b60006040518083038185875af1925050503d8060008114613992576040519150601f19603f3d011682016040523d82523d6000602084013e613997565b606091505b50915091506139a7828286613b17565b979650505050505050565b6034546000908290825b8181101561319e576000603482815481106139d9576139d96142c1565b60009182526020909120015460405163551c457b60e11b81526001600160a01b039182166004820181905292509085169063aa388af69060240160206040518083038186803b158015613a2b57600080fd5b505afa158015613a3f573d6000803e3d6000fd5b505050506040513d601f19601f82011682018060405250810190613a639190613d1e565b15613b0657604051632fa8a91360e11b81526001600160a01b03828116600483015260009190861690635f5152269060240160206040518083038186803b158015613aad57600080fd5b505afa158015613ac1573d6000803e3d6000fd5b505050506040513d601f19601f82011682018060405250810190613ae59190613d59565b90508015613b0457613af78183611c5a565b613b01908761406f565b95505b505b50613b108161425d565b90506139bc565b60608315613b265750816108a6565b825115613b365782518084602001fd5b8160405162461bcd60e51b815260040161079c9190613e86565b828054828255906000526020600020908101928215613ba5579160200282015b82811115613ba557825182546001600160a01b0319166001600160a01b03909116178255602090920191600190910190613b70565b5061256b9291505b8082111561256b5760008155600101613bad565b80356001600160a01b0381168114611bf357600080fd5b600060208284031215613bea57600080fd5b6108a682613bc1565b60008060408385031215613c0657600080fd5b613c0f83613bc1565b9150613c1d60208401613bc1565b90509250929050565b600080600060608486031215613c3b57600080fd5b613c4484613bc1565b95602085013595506040909401359392505050565b60006020808385031215613c6c57600080fd5b823567ffffffffffffffff80821115613c8457600080fd5b818501915085601f830112613c9857600080fd5b813581811115613caa57613caa6142d7565b8060051b604051601f19603f83011681018181108582111715613ccf57613ccf6142d7565b604052828152858101935084860182860187018a1015613cee57600080fd5b600095505b83861015613d11578035855260019590950194938601938601613cf3565b5098975050505050505050565b600060208284031215613d3057600080fd5b815180151581146108a657600080fd5b600060208284031215613d5257600080fd5b5035919050565b600060208284031215613d6b57600080fd5b5051919050565b60008060408385031215613d8557600080fd5b50508035926020909101359150565b600081518084526020808501945080840160005b83811015613dc457815187529582019590820190600101613da8565b509495945050505050565b60008251613de1818460208701614231565b9190910192915050565b6001600160a01b03929092168252602082015260400190565b6020808252825182820181905260009190848201906040850190845b81811015613e455783516001600160a01b031683529284019291840191600101613e20565b50909695505050505050565b6020815260006108a66020830184613d94565b604081526000613e776040830185613d94565b90508260208301529392505050565b6020815260008251806020840152613ea5816040850160208701614231565b601f01601f19169190910160400192915050565b60208082526024908201527f43616c6c6572206973206e6f7420746865204f555344206d65746120737472616040820152637465677960e01b606082015260800190565b6020808252601a908201527f43616c6c6572206973206e6f742074686520476f7665726e6f72000000000000604082015260600190565b6020808252600f908201526e082dadeeadce840e8dede40d0d2ced608b1b604082015260600190565b6020808252600e908201526d10d85c1a5d185b081c185d5cd95960921b604082015260600190565b6020808252600e908201526d1499595b9d1c985b9d0818d85b1b60921b604082015260600190565b8151151581526020820151608082019060028110613fdb57634e487b7160e01b600052602160045260246000fd5b8060208401525060ff604084015116604083015261ffff606084015116606083015292915050565b600080821280156001600160ff1b038490038513161561402557614025614295565b600160ff1b839003841281161561403e5761403e614295565b50500190565b60006001600160801b0380831681851680830382111561406657614066614295565b01949350505050565b6000821982111561408257614082614295565b500190565b6000826140a457634e487b7160e01b600052601260045260246000fd5b500490565b600181815b808511156140e45781600019048211156140ca576140ca614295565b808516156140d757918102915b93841c93908002906140ae565b509250929050565b60006108a6838360008261410257506001610e41565b8161410f57506000610e41565b8160018114614125576002811461412f5761414b565b6001915050610e41565b60ff84111561414057614140614295565b50506001821b610e41565b5060208310610133831016604e8410600b841016171561416e575081810a610e41565b61417883836140a9565b806000190482111561418c5761418c614295565b029392505050565b60008160001904831182151516156141ae576141ae614295565b500290565b60008083128015600160ff1b8501841216156141d1576141d1614295565b6001600160ff1b03840183138116156141ec576141ec614295565b50500390565b60006001600160801b038381169083168181101561421257614212614295565b039392505050565b60008282101561422c5761422c614295565b500390565b60005b8381101561424c578181015183820152602001614234565b83811115612ee75750506000910152565b600060001982141561427157614271614295565b5060010190565b6000600160ff1b82141561428e5761428e614295565b5060000390565b634e487b7160e01b600052601160045260246000fd5b634e487b7160e01b600052602160045260246000fd5b634e487b7160e01b600052603260045260246000fd5b634e487b7160e01b600052604160045260246000fdfe53bf423e48ed90e97d02ab0ebab13b2a235a6bfbe9c321847d5c175333ac45357bea13895fa79d2831e0a9e28edede30099005a50d652d8957cf8a607ee6ca4aa2646970667358221220c50e1d5377ccd0e0207b1b93cdbe2de692420544f1c0bb67494ccf540d5cd0c864736f6c634300080700337bea13895fa79d2831e0a9e28edede30099005a50d652d8957cf8a607ee6ca4a",
  "libraries": {},
  "devdoc": {
    "author": "Origin Protocol Inc",
    "kind": "dev",
    "methods": {
      "addWithdrawalQueueLiquidity()": {
        "details": "is called from the Native Staking strategy when validator withdrawals are processed. It also called before any WETH is allocated to a strategy."
      },
      "burnForStrategy(uint256)": {
        "details": "Notice: can't use `nonReentrant` modifier since the `redeem` function could require withdrawal on `ConvexOUSDMetaStrategy` and that one can call `burnForStrategy` while the execution of the `redeem` has not yet completed -> causing a `nonReentrant` collision. Also important to understand is that this is a limitation imposed by the test suite. Production / mainnet contracts should never be configured in a way where mint/redeem functions that are moving funds between the Vault and end user wallets can influence strategies utilizing this function.",
        "params": {
          "_amount": "Amount of OUSD to burn"
        }
      },
      "cacheWETHAssetIndex()": {
        "details": "Caches WETH's index in `allAssets` variable.      Reduces gas usage by redeem by caching that."
      },
      "checkBalance(address)": {
        "params": {
          "_asset": "Address of asset"
        },
        "returns": {
          "_0": "uint256 Balance of asset in decimals of asset"
        }
      },
      "claimWithdrawal(uint256)": {
        "params": {
          "requestId": "Unique ID for the withdrawal request"
        },
        "returns": {
          "amount": "Amount of WETH transferred to the withdrawer"
        }
      },
      "claimWithdrawals(uint256[])": {
        "params": {
          "requestIds": "Unique ID of each withdrawal request"
        },
        "returns": {
          "amounts": "Amount of WETH received for each request"
        }
      },
      "isSupportedAsset(address)": {
        "params": {
          "_asset": "address of the asset"
        },
        "returns": {
          "_0": "true if supported"
        }
      },
      "mint(address,uint256,uint256)": {
        "params": {
          "_amount": "Amount of the asset being deposited",
          "_asset": "Address of the asset being deposited",
          "_minimumOusdAmount": "Minimum OTokens to mint"
        }
      },
      "mintForStrategy(uint256)": {
        "params": {
          "_amount": "Amount of the asset being deposited Notice: can't use `nonReentrant` modifier since the `mint` function can call `allocate`, and that can trigger `ConvexOUSDMetaStrategy` to call this function while the execution of the `mint` has not yet completed -> causing a `nonReentrant` collision. Also important to understand is that this is a limitation imposed by the test suite. Production / mainnet contracts should never be configured in a way where mint/redeem functions that are moving funds between the Vault and end user wallets can influence strategies utilizing this function."
        }
      },
      "priceUnitMint(address)": {
        "params": {
          "asset": "address of the asset"
        },
        "returns": {
          "price": "uint256: unit (USD / ETH) price for 1 unit of the asset, in 18 decimal fixed"
        }
      },
      "priceUnitRedeem(address)": {
        "params": {
          "asset": "Address of the asset"
        },
        "returns": {
          "price": "uint256: unit (USD / ETH) price for 1 unit of the asset, in 18 decimal fixed"
        }
      },
      "redeem(uint256,uint256)": {
        "params": {
          "_amount": "Amount of OTokens to burn",
          "_minimumUnitAmount": "Minimum stablecoin units to receive in return"
        }
      },
      "redeemAll(uint256)": {
        "params": {
          "_minimumUnitAmount": "Minimum stablecoin units to receive in return"
        }
      },
      "requestWithdrawal(uint256)": {
        "params": {
          "_amount": "Amount of oTokens to burn. eg OETH",
          "queued": "Cumulative total of all WETH queued including already claimed requests. This request can be claimed once the withdrawal queue's claimable amount is greater than or equal this request's queued amount.",
          "requestId": "Unique ID for the withdrawal request"
        }
      },
      "setAdminImpl(address)": {
        "params": {
          "newImpl": "address of the implementation"
        }
      },
      "totalValue()": {
        "returns": {
          "value": "Total value in USD/ETH (1e18)"
        }
      },
      "transferGovernance(address)": {
        "params": {
          "_newGovernor": "Address of the new Governor"
        }
      }
    },
    "title": "OETH VaultCore Contract",
    "version": 1
  },
  "userdoc": {
    "kind": "user",
    "methods": {
      "addWithdrawalQueueLiquidity()": {
        "notice": "Collects harvested rewards from the Dripper as WETH then adds WETH to the withdrawal queue if there is a funding shortfall."
      },
      "allocate()": {
        "notice": "Allocate unallocated funds on Vault to strategies.*"
      },
      "assetDefaultStrategies(address)": {
        "notice": "Mapping of asset address to the Strategy that they should automatically"
      },
      "autoAllocateThreshold()": {
        "notice": "OToken mints over this amount automatically allocate funds. 18 decimals."
      },
      "burnForStrategy(uint256)": {
        "notice": "Burn OTokens for Metapool Strategy"
      },
      "calculateRedeemOutputs(uint256)": {
        "notice": "Calculate the outputs for a redeem function, i.e. the mix of coins that will be returned"
      },
      "capitalPaused()": {
        "notice": "pause operations that change the OToken supply. eg mint, redeem, allocate, mint/burn for strategy"
      },
      "checkBalance(address)": {
        "notice": "Get the balance of an asset held in Vault and all strategies."
      },
      "claimGovernance()": {
        "notice": "Claim Governance of the contract to a new account (`newGovernor`). Can only be called by the new Governor."
      },
      "claimWithdrawal(uint256)": {
        "notice": "Claim a previously requested withdrawal once it is claimable."
      },
      "claimWithdrawals(uint256[])": {
        "notice": "Claim a previously requested withdrawals once they are claimable."
      },
      "dripper()": {
        "notice": "Address of the Dripper contract that streams harvested rewards to the Vault"
      },
      "getAllAssets()": {
        "notice": "Return all vault asset addresses in order"
      },
      "getAllStrategies()": {
        "notice": "Return the array of all strategies"
      },
      "getAssetConfig(address)": {
        "notice": "Gets the vault configuration of a supported asset."
      },
      "getAssetCount()": {
        "notice": "Return the number of assets supported by the Vault."
      },
      "getStrategyCount()": {
        "notice": "Return the number of strategies active on the Vault."
      },
      "governor()": {
        "notice": "Returns the address of the current Governor."
      },
      "isGovernor()": {
        "notice": "Returns true if the caller is the current Governor."
      },
      "isSupportedAsset(address)": {
        "notice": "Returns whether the vault supports the asset"
      },
      "maxSupplyDiff()": {
        "notice": "Max difference between total supply and total value of assets. 18 decimals."
      },
      "mint(address,uint256,uint256)": {
        "notice": "Deposit a supported asset and mint OTokens."
      },
      "mintForStrategy(uint256)": {
        "notice": "Mint OTokens for a Metapool Strategy"
      },
      "netOusdMintForStrategyThreshold()": {
        "notice": "How much net total OTokens are allowed to be minted by all strategies"
      },
      "netOusdMintedForStrategy()": {
        "notice": "How much OTokens are currently minted by the strategy"
      },
      "ousdMetaStrategy()": {
        "notice": "Metapool strategy that is allowed to mint/burn OTokens without changing collateral"
      },
      "priceProvider()": {
        "notice": "Address of the Oracle price provider contract"
      },
      "priceUnitMint(address)": {
        "notice": "Returns the total price in 18 digit units for a given asset.      Never goes above 1, since that is how we price mints."
      },
      "priceUnitRedeem(address)": {
        "notice": "Returns the total price in 18 digit unit for a given asset.      Never goes below 1, since that is how we price redeems"
      },
      "rebase()": {
        "notice": "Calculate the total value of assets held by the Vault and all      strategies and update the supply of OTokens."
      },
      "rebasePaused()": {
        "notice": "pause rebasing if true"
      },
      "rebaseThreshold()": {
        "notice": "OToken mints over this amount automatically rebase. 18 decimals."
      },
      "redeem(uint256,uint256)": {
        "notice": "Withdraw a supported asset and burn OTokens."
      },
      "redeemAll(uint256)": {
        "notice": "Withdraw a supported asset and burn all OTokens."
      },
      "redeemFeeBps()": {
        "notice": "Redemption fee in basis points. eg 50 = 0.5%"
      },
      "requestWithdrawal(uint256)": {
        "notice": "Request an asynchronous withdrawal of the underlying asset. eg WETH"
      },
      "setAdminImpl(address)": {
        "notice": "set the implementation for the admin, this needs to be in a base class else we cannot set it"
      },
      "strategistAddr()": {
        "notice": "Address of the Strategist"
      },
      "totalValue()": {
        "notice": "Determine the total value of assets held by the vault and its         strategies."
      },
      "transferGovernance(address)": {
        "notice": "Transfers Governance of the contract to a new account (`newGovernor`). Can only be called by the current Governor. Must be claimed for this to complete"
      },
      "trusteeAddress()": {
        "notice": "Trustee contract that can collect a percentage of yield"
      },
      "trusteeFeeBps()": {
        "notice": "Amount of yield collected in basis points. eg 2000 = 20%"
      },
      "vaultBuffer()": {
        "notice": "Percentage of assets to keep in Vault to handle (most) withdrawals. 100% = 1e18."
      }
    },
    "version": 1
  },
  "storageLayout": {
    "storage": [
      {
        "astId": 24111,
        "contract": "contracts/vault/OETHVaultCore.sol:OETHVaultCore",
        "label": "initialized",
        "offset": 0,
        "slot": "0",
        "type": "t_bool"
      },
      {
        "astId": 24114,
        "contract": "contracts/vault/OETHVaultCore.sol:OETHVaultCore",
        "label": "initializing",
        "offset": 1,
        "slot": "0",
        "type": "t_bool"
      },
      {
        "astId": 24154,
        "contract": "contracts/vault/OETHVaultCore.sol:OETHVaultCore",
        "label": "______gap",
        "offset": 0,
        "slot": "1",
        "type": "t_array(t_uint256)50_storage"
      },
      {
        "astId": 29745,
        "contract": "contracts/vault/OETHVaultCore.sol:OETHVaultCore",
        "label": "assets",
        "offset": 0,
        "slot": "51",
        "type": "t_mapping(t_address,t_struct(Asset)29739_storage)"
      },
      {
        "astId": 29749,
        "contract": "contracts/vault/OETHVaultCore.sol:OETHVaultCore",
        "label": "allAssets",
        "offset": 0,
        "slot": "52",
        "type": "t_array(t_address)dyn_storage"
      },
      {
        "astId": 29760,
        "contract": "contracts/vault/OETHVaultCore.sol:OETHVaultCore",
        "label": "strategies",
        "offset": 0,
        "slot": "53",
        "type": "t_mapping(t_address,t_struct(Strategy)29754_storage)"
      },
      {
        "astId": 29764,
        "contract": "contracts/vault/OETHVaultCore.sol:OETHVaultCore",
        "label": "allStrategies",
        "offset": 0,
        "slot": "54",
        "type": "t_array(t_address)dyn_storage"
      },
      {
        "astId": 29767,
        "contract": "contracts/vault/OETHVaultCore.sol:OETHVaultCore",
        "label": "priceProvider",
        "offset": 0,
        "slot": "55",
        "type": "t_address"
      },
      {
        "astId": 29771,
        "contract": "contracts/vault/OETHVaultCore.sol:OETHVaultCore",
        "label": "rebasePaused",
        "offset": 20,
        "slot": "55",
        "type": "t_bool"
      },
      {
        "astId": 29775,
        "contract": "contracts/vault/OETHVaultCore.sol:OETHVaultCore",
        "label": "capitalPaused",
        "offset": 21,
        "slot": "55",
        "type": "t_bool"
      },
      {
        "astId": 29778,
        "contract": "contracts/vault/OETHVaultCore.sol:OETHVaultCore",
        "label": "redeemFeeBps",
        "offset": 0,
        "slot": "56",
        "type": "t_uint256"
      },
      {
        "astId": 29781,
        "contract": "contracts/vault/OETHVaultCore.sol:OETHVaultCore",
        "label": "vaultBuffer",
        "offset": 0,
        "slot": "57",
        "type": "t_uint256"
      },
      {
        "astId": 29784,
        "contract": "contracts/vault/OETHVaultCore.sol:OETHVaultCore",
        "label": "autoAllocateThreshold",
        "offset": 0,
        "slot": "58",
        "type": "t_uint256"
      },
      {
        "astId": 29787,
        "contract": "contracts/vault/OETHVaultCore.sol:OETHVaultCore",
        "label": "rebaseThreshold",
        "offset": 0,
        "slot": "59",
        "type": "t_uint256"
      },
      {
        "astId": 29791,
        "contract": "contracts/vault/OETHVaultCore.sol:OETHVaultCore",
        "label": "oUSD",
        "offset": 0,
        "slot": "60",
        "type": "t_contract(OUSD)23477"
      },
      {
        "astId": 29800,
        "contract": "contracts/vault/OETHVaultCore.sol:OETHVaultCore",
        "label": "_deprecated_rebaseHooksAddr",
        "offset": 0,
        "slot": "61",
        "type": "t_address"
      },
      {
        "astId": 29806,
        "contract": "contracts/vault/OETHVaultCore.sol:OETHVaultCore",
        "label": "_deprecated_uniswapAddr",
        "offset": 0,
        "slot": "62",
        "type": "t_address"
      },
      {
        "astId": 29813,
        "contract": "contracts/vault/OETHVaultCore.sol:OETHVaultCore",
        "label": "strategistAddr",
        "offset": 0,
        "slot": "63",
        "type": "t_address"
      },
      {
        "astId": 29818,
        "contract": "contracts/vault/OETHVaultCore.sol:OETHVaultCore",
        "label": "assetDefaultStrategies",
        "offset": 0,
        "slot": "64",
        "type": "t_mapping(t_address,t_address)"
      },
      {
        "astId": 29821,
        "contract": "contracts/vault/OETHVaultCore.sol:OETHVaultCore",
        "label": "maxSupplyDiff",
        "offset": 0,
        "slot": "65",
        "type": "t_uint256"
      },
      {
        "astId": 29824,
        "contract": "contracts/vault/OETHVaultCore.sol:OETHVaultCore",
        "label": "trusteeAddress",
        "offset": 0,
        "slot": "66",
        "type": "t_address"
      },
      {
        "astId": 29827,
        "contract": "contracts/vault/OETHVaultCore.sol:OETHVaultCore",
        "label": "trusteeFeeBps",
        "offset": 0,
        "slot": "67",
        "type": "t_uint256"
      },
      {
        "astId": 29831,
        "contract": "contracts/vault/OETHVaultCore.sol:OETHVaultCore",
        "label": "_deprecated_swapTokens",
        "offset": 0,
        "slot": "68",
        "type": "t_array(t_address)dyn_storage"
      },
      {
        "astId": 29841,
        "contract": "contracts/vault/OETHVaultCore.sol:OETHVaultCore",
        "label": "ousdMetaStrategy",
        "offset": 0,
        "slot": "69",
        "type": "t_address"
      },
      {
        "astId": 29845,
        "contract": "contracts/vault/OETHVaultCore.sol:OETHVaultCore",
        "label": "netOusdMintedForStrategy",
        "offset": 0,
        "slot": "70",
        "type": "t_int256"
      },
      {
        "astId": 29849,
        "contract": "contracts/vault/OETHVaultCore.sol:OETHVaultCore",
        "label": "netOusdMintForStrategyThreshold",
        "offset": 0,
        "slot": "71",
        "type": "t_uint256"
      },
      {
        "astId": 29870,
        "contract": "contracts/vault/OETHVaultCore.sol:OETHVaultCore",
        "label": "swapConfig",
        "offset": 0,
        "slot": "72",
        "type": "t_struct(SwapConfig)29860_storage"
      },
      {
        "astId": 29873,
        "contract": "contracts/vault/OETHVaultCore.sol:OETHVaultCore",
        "label": "dripper",
        "offset": 0,
        "slot": "73",
        "type": "t_address"
      },
      {
        "astId": 29885,
        "contract": "contracts/vault/OETHVaultCore.sol:OETHVaultCore",
        "label": "withdrawalQueueMetadata",
        "offset": 0,
        "slot": "74",
        "type": "t_struct(WithdrawalQueueMetadata)29882_storage"
      },
      {
        "astId": 29899,
        "contract": "contracts/vault/OETHVaultCore.sol:OETHVaultCore",
        "label": "withdrawalRequests",
        "offset": 0,
        "slot": "76",
        "type": "t_mapping(t_uint256,t_struct(WithdrawalRequest)29894_storage)"
      },
      {
        "astId": 29903,
        "contract": "contracts/vault/OETHVaultCore.sol:OETHVaultCore",
        "label": "__gap",
        "offset": 0,
        "slot": "77",
        "type": "t_array(t_uint256)46_storage"
      },
      {
        "astId": 25324,
        "contract": "contracts/vault/OETHVaultCore.sol:OETHVaultCore",
        "label": "wethAssetIndex",
        "offset": 0,
        "slot": "123",
        "type": "t_uint256"
      }
    ],
    "types": {
      "t_address": {
        "encoding": "inplace",
        "label": "address",
        "numberOfBytes": "20"
      },
      "t_array(t_address)dyn_storage": {
        "base": "t_address",
        "encoding": "dynamic_array",
        "label": "address[]",
        "numberOfBytes": "32"
      },
      "t_array(t_uint256)46_storage": {
        "base": "t_uint256",
        "encoding": "inplace",
        "label": "uint256[46]",
        "numberOfBytes": "1472"
      },
      "t_array(t_uint256)50_storage": {
        "base": "t_uint256",
        "encoding": "inplace",
        "label": "uint256[50]",
        "numberOfBytes": "1600"
      },
      "t_bool": {
        "encoding": "inplace",
        "label": "bool",
        "numberOfBytes": "1"
      },
      "t_contract(OUSD)23477": {
        "encoding": "inplace",
        "label": "contract OUSD",
        "numberOfBytes": "20"
      },
      "t_enum(UnitConversion)29729": {
        "encoding": "inplace",
        "label": "enum VaultStorage.UnitConversion",
        "numberOfBytes": "1"
      },
      "t_int256": {
        "encoding": "inplace",
        "label": "int256",
        "numberOfBytes": "32"
      },
      "t_mapping(t_address,t_address)": {
        "encoding": "mapping",
        "key": "t_address",
        "label": "mapping(address => address)",
        "numberOfBytes": "32",
        "value": "t_address"
      },
      "t_mapping(t_address,t_struct(Asset)29739_storage)": {
        "encoding": "mapping",
        "key": "t_address",
        "label": "mapping(address => struct VaultStorage.Asset)",
        "numberOfBytes": "32",
        "value": "t_struct(Asset)29739_storage"
      },
      "t_mapping(t_address,t_struct(Strategy)29754_storage)": {
        "encoding": "mapping",
        "key": "t_address",
        "label": "mapping(address => struct VaultStorage.Strategy)",
        "numberOfBytes": "32",
        "value": "t_struct(Strategy)29754_storage"
      },
      "t_mapping(t_uint256,t_struct(WithdrawalRequest)29894_storage)": {
        "encoding": "mapping",
        "key": "t_uint256",
        "label": "mapping(uint256 => struct VaultStorage.WithdrawalRequest)",
        "numberOfBytes": "32",
        "value": "t_struct(WithdrawalRequest)29894_storage"
      },
      "t_struct(Asset)29739_storage": {
        "encoding": "inplace",
        "label": "struct VaultStorage.Asset",
        "members": [
          {
            "astId": 29731,
            "contract": "contracts/vault/OETHVaultCore.sol:OETHVaultCore",
            "label": "isSupported",
            "offset": 0,
            "slot": "0",
            "type": "t_bool"
          },
          {
            "astId": 29734,
            "contract": "contracts/vault/OETHVaultCore.sol:OETHVaultCore",
            "label": "unitConversion",
            "offset": 1,
            "slot": "0",
            "type": "t_enum(UnitConversion)29729"
          },
          {
            "astId": 29736,
            "contract": "contracts/vault/OETHVaultCore.sol:OETHVaultCore",
            "label": "decimals",
            "offset": 2,
            "slot": "0",
            "type": "t_uint8"
          },
          {
            "astId": 29738,
            "contract": "contracts/vault/OETHVaultCore.sol:OETHVaultCore",
            "label": "allowedOracleSlippageBps",
            "offset": 3,
            "slot": "0",
            "type": "t_uint16"
          }
        ],
        "numberOfBytes": "32"
      },
      "t_struct(Strategy)29754_storage": {
        "encoding": "inplace",
        "label": "struct VaultStorage.Strategy",
        "members": [
          {
            "astId": 29751,
            "contract": "contracts/vault/OETHVaultCore.sol:OETHVaultCore",
            "label": "isSupported",
            "offset": 0,
            "slot": "0",
            "type": "t_bool"
          },
          {
            "astId": 29753,
            "contract": "contracts/vault/OETHVaultCore.sol:OETHVaultCore",
            "label": "_deprecated",
            "offset": 0,
            "slot": "1",
            "type": "t_uint256"
          }
        ],
        "numberOfBytes": "64"
      },
      "t_struct(SwapConfig)29860_storage": {
        "encoding": "inplace",
        "label": "struct VaultStorage.SwapConfig",
        "members": [
          {
            "astId": 29857,
            "contract": "contracts/vault/OETHVaultCore.sol:OETHVaultCore",
            "label": "swapper",
            "offset": 0,
            "slot": "0",
            "type": "t_address"
          },
          {
            "astId": 29859,
            "contract": "contracts/vault/OETHVaultCore.sol:OETHVaultCore",
            "label": "allowedUndervalueBps",
            "offset": 20,
            "slot": "0",
            "type": "t_uint16"
          }
        ],
        "numberOfBytes": "32"
      },
      "t_struct(WithdrawalQueueMetadata)29882_storage": {
        "encoding": "inplace",
        "label": "struct VaultStorage.WithdrawalQueueMetadata",
        "members": [
          {
            "astId": 29875,
            "contract": "contracts/vault/OETHVaultCore.sol:OETHVaultCore",
            "label": "queued",
            "offset": 0,
            "slot": "0",
            "type": "t_uint128"
          },
          {
            "astId": 29877,
            "contract": "contracts/vault/OETHVaultCore.sol:OETHVaultCore",
            "label": "claimable",
            "offset": 16,
            "slot": "0",
            "type": "t_uint128"
          },
          {
            "astId": 29879,
            "contract": "contracts/vault/OETHVaultCore.sol:OETHVaultCore",
            "label": "claimed",
            "offset": 0,
            "slot": "1",
            "type": "t_uint128"
          },
          {
            "astId": 29881,
            "contract": "contracts/vault/OETHVaultCore.sol:OETHVaultCore",
            "label": "nextWithdrawalIndex",
            "offset": 16,
            "slot": "1",
            "type": "t_uint128"
          }
        ],
        "numberOfBytes": "64"
      },
      "t_struct(WithdrawalRequest)29894_storage": {
        "encoding": "inplace",
        "label": "struct VaultStorage.WithdrawalRequest",
        "members": [
          {
            "astId": 29887,
            "contract": "contracts/vault/OETHVaultCore.sol:OETHVaultCore",
            "label": "withdrawer",
            "offset": 0,
            "slot": "0",
            "type": "t_address"
          },
          {
            "astId": 29889,
            "contract": "contracts/vault/OETHVaultCore.sol:OETHVaultCore",
            "label": "claimed",
            "offset": 20,
            "slot": "0",
            "type": "t_bool"
          },
          {
            "astId": 29891,
            "contract": "contracts/vault/OETHVaultCore.sol:OETHVaultCore",
            "label": "amount",
            "offset": 0,
            "slot": "1",
            "type": "t_uint128"
          },
          {
            "astId": 29893,
            "contract": "contracts/vault/OETHVaultCore.sol:OETHVaultCore",
            "label": "queued",
            "offset": 16,
            "slot": "1",
            "type": "t_uint128"
          }
        ],
        "numberOfBytes": "64"
      },
      "t_uint128": {
        "encoding": "inplace",
        "label": "uint128",
        "numberOfBytes": "16"
      },
      "t_uint16": {
        "encoding": "inplace",
        "label": "uint16",
        "numberOfBytes": "2"
      },
      "t_uint256": {
        "encoding": "inplace",
        "label": "uint256",
        "numberOfBytes": "32"
      },
      "t_uint8": {
        "encoding": "inplace",
        "label": "uint8",
        "numberOfBytes": "1"
      }
    }
  }
}