{
  "address": "0x352ABfe1470924bf987Ef55ae3F3Ce9F4Ed35051",
  "abi": [
    {
      "inputs": [
        {
          "internalType": "address",
          "name": "_weth",
          "type": "address"
        }
      ],
      "stateMutability": "nonpayable",
      "type": "constructor"
    },
    {
      "anonymous": false,
      "inputs": [
        {
          "indexed": false,
          "internalType": "uint256",
          "name": "_threshold",
          "type": "uint256"
        }
      ],
      "name": "AllocateThresholdUpdated",
      "type": "event"
    },
    {
      "anonymous": false,
      "inputs": [
        {
          "indexed": false,
          "internalType": "address",
          "name": "_asset",
          "type": "address"
        },
        {
          "indexed": false,
          "internalType": "address",
          "name": "_strategy",
          "type": "address"
        },
        {
          "indexed": false,
          "internalType": "uint256",
          "name": "_amount",
          "type": "uint256"
        }
      ],
      "name": "AssetAllocated",
      "type": "event"
    },
    {
      "anonymous": false,
      "inputs": [
        {
          "indexed": false,
          "internalType": "address",
          "name": "_asset",
          "type": "address"
        },
        {
          "indexed": false,
          "internalType": "address",
          "name": "_strategy",
          "type": "address"
        }
      ],
      "name": "AssetDefaultStrategyUpdated",
      "type": "event"
    },
    {
      "anonymous": false,
      "inputs": [
        {
          "indexed": false,
          "internalType": "address",
          "name": "_asset",
          "type": "address"
        }
      ],
      "name": "AssetSupported",
      "type": "event"
    },
    {
      "anonymous": false,
      "inputs": [],
      "name": "CapitalPaused",
      "type": "event"
    },
    {
      "anonymous": false,
      "inputs": [],
      "name": "CapitalUnpaused",
      "type": "event"
    },
    {
      "anonymous": false,
      "inputs": [
        {
          "indexed": true,
          "internalType": "address",
          "name": "previousGovernor",
          "type": "address"
        },
        {
          "indexed": true,
          "internalType": "address",
          "name": "newGovernor",
          "type": "address"
        }
      ],
      "name": "GovernorshipTransferred",
      "type": "event"
    },
    {
      "anonymous": false,
      "inputs": [
        {
          "indexed": false,
          "internalType": "uint256",
          "name": "maxSupplyDiff",
          "type": "uint256"
        }
      ],
      "name": "MaxSupplyDiffChanged",
      "type": "event"
    },
    {
      "anonymous": false,
      "inputs": [
        {
          "indexed": false,
          "internalType": "address",
          "name": "_addr",
          "type": "address"
        },
        {
          "indexed": false,
          "internalType": "uint256",
          "name": "_value",
          "type": "uint256"
        }
      ],
      "name": "Mint",
      "type": "event"
    },
    {
      "anonymous": false,
      "inputs": [
        {
          "indexed": false,
          "internalType": "uint256",
          "name": "_threshold",
          "type": "uint256"
        }
      ],
      "name": "NetOusdMintForStrategyThresholdChanged",
      "type": "event"
    },
    {
      "anonymous": false,
      "inputs": [
        {
          "indexed": false,
          "internalType": "address",
          "name": "_ousdMetaStrategy",
          "type": "address"
        }
      ],
      "name": "OusdMetaStrategyUpdated",
      "type": "event"
    },
    {
      "anonymous": false,
      "inputs": [
        {
          "indexed": true,
          "internalType": "address",
          "name": "previousGovernor",
          "type": "address"
        },
        {
          "indexed": true,
          "internalType": "address",
          "name": "newGovernor",
          "type": "address"
        }
      ],
      "name": "PendingGovernorshipTransfer",
      "type": "event"
    },
    {
      "anonymous": false,
      "inputs": [
        {
          "indexed": false,
          "internalType": "address",
          "name": "_priceProvider",
          "type": "address"
        }
      ],
      "name": "PriceProviderUpdated",
      "type": "event"
    },
    {
      "anonymous": false,
      "inputs": [],
      "name": "RebasePaused",
      "type": "event"
    },
    {
      "anonymous": false,
      "inputs": [
        {
          "indexed": false,
          "internalType": "uint256",
          "name": "_threshold",
          "type": "uint256"
        }
      ],
      "name": "RebaseThresholdUpdated",
      "type": "event"
    },
    {
      "anonymous": false,
      "inputs": [],
      "name": "RebaseUnpaused",
      "type": "event"
    },
    {
      "anonymous": false,
      "inputs": [
        {
          "indexed": false,
          "internalType": "address",
          "name": "_addr",
          "type": "address"
        },
        {
          "indexed": false,
          "internalType": "uint256",
          "name": "_value",
          "type": "uint256"
        }
      ],
      "name": "Redeem",
      "type": "event"
    },
    {
      "anonymous": false,
      "inputs": [
        {
          "indexed": false,
          "internalType": "uint256",
          "name": "_redeemFeeBps",
          "type": "uint256"
        }
      ],
      "name": "RedeemFeeUpdated",
      "type": "event"
    },
    {
      "anonymous": false,
      "inputs": [
        {
          "indexed": false,
          "internalType": "address",
          "name": "_address",
          "type": "address"
        }
      ],
      "name": "StrategistUpdated",
      "type": "event"
    },
    {
      "anonymous": false,
      "inputs": [
        {
          "indexed": false,
          "internalType": "address",
          "name": "_addr",
          "type": "address"
        }
      ],
      "name": "StrategyApproved",
      "type": "event"
    },
    {
      "anonymous": false,
      "inputs": [
        {
          "indexed": false,
          "internalType": "address",
          "name": "_addr",
          "type": "address"
        }
      ],
      "name": "StrategyRemoved",
      "type": "event"
    },
    {
      "anonymous": false,
      "inputs": [
        {
          "indexed": false,
          "internalType": "uint256",
          "name": "_basis",
          "type": "uint256"
        }
      ],
      "name": "SwapAllowedUndervalueChanged",
      "type": "event"
    },
    {
      "anonymous": false,
      "inputs": [
        {
          "indexed": false,
          "internalType": "address",
          "name": "_asset",
          "type": "address"
        },
        {
          "indexed": false,
          "internalType": "uint256",
          "name": "_basis",
          "type": "uint256"
        }
      ],
      "name": "SwapSlippageChanged",
      "type": "event"
    },
    {
      "anonymous": false,
      "inputs": [
        {
          "indexed": true,
          "internalType": "address",
          "name": "_fromAsset",
          "type": "address"
        },
        {
          "indexed": true,
          "internalType": "address",
          "name": "_toAsset",
          "type": "address"
        },
        {
          "indexed": false,
          "internalType": "uint256",
          "name": "_fromAssetAmount",
          "type": "uint256"
        },
        {
          "indexed": false,
          "internalType": "uint256",
          "name": "_toAssetAmount",
          "type": "uint256"
        }
      ],
      "name": "Swapped",
      "type": "event"
    },
    {
      "anonymous": false,
      "inputs": [
        {
          "indexed": false,
          "internalType": "address",
          "name": "_address",
          "type": "address"
        }
      ],
      "name": "SwapperChanged",
      "type": "event"
    },
    {
      "anonymous": false,
      "inputs": [
        {
          "indexed": false,
          "internalType": "address",
          "name": "_address",
          "type": "address"
        }
      ],
      "name": "TrusteeAddressChanged",
      "type": "event"
    },
    {
      "anonymous": false,
      "inputs": [
        {
          "indexed": false,
          "internalType": "uint256",
          "name": "_basis",
          "type": "uint256"
        }
      ],
      "name": "TrusteeFeeBpsChanged",
      "type": "event"
    },
    {
      "anonymous": false,
      "inputs": [
        {
          "indexed": false,
          "internalType": "uint256",
          "name": "_vaultBuffer",
          "type": "uint256"
        }
      ],
      "name": "VaultBufferUpdated",
      "type": "event"
    },
    {
      "anonymous": false,
      "inputs": [
        {
          "indexed": false,
          "internalType": "address",
          "name": "_to",
          "type": "address"
        },
        {
          "indexed": false,
          "internalType": "uint256",
          "name": "_yield",
          "type": "uint256"
        },
        {
          "indexed": false,
          "internalType": "uint256",
          "name": "_fee",
          "type": "uint256"
        }
      ],
      "name": "YieldDistribution",
      "type": "event"
    },
    {
      "stateMutability": "nonpayable",
      "type": "fallback"
    },
    {
      "inputs": [],
      "name": "allocate",
      "outputs": [],
      "stateMutability": "nonpayable",
      "type": "function"
    },
    {
      "inputs": [
        {
          "internalType": "address",
          "name": "",
          "type": "address"
        }
      ],
      "name": "assetDefaultStrategies",
      "outputs": [
        {
          "internalType": "address",
          "name": "",
          "type": "address"
        }
      ],
      "stateMutability": "view",
      "type": "function"
    },
    {
      "inputs": [],
      "name": "autoAllocateThreshold",
      "outputs": [
        {
          "internalType": "uint256",
          "name": "",
          "type": "uint256"
        }
      ],
      "stateMutability": "view",
      "type": "function"
    },
    {
      "inputs": [
        {
          "internalType": "uint256",
          "name": "_amount",
          "type": "uint256"
        }
      ],
      "name": "burnForStrategy",
      "outputs": [],
      "stateMutability": "nonpayable",
      "type": "function"
    },
    {
      "inputs": [],
      "name": "cacheWETHAssetIndex",
      "outputs": [],
      "stateMutability": "nonpayable",
      "type": "function"
    },
    {
      "inputs": [
        {
          "internalType": "uint256",
          "name": "_amount",
          "type": "uint256"
        }
      ],
      "name": "calculateRedeemOutputs",
      "outputs": [
        {
          "internalType": "uint256[]",
          "name": "",
          "type": "uint256[]"
        }
      ],
      "stateMutability": "view",
      "type": "function"
    },
    {
      "inputs": [],
      "name": "capitalPaused",
      "outputs": [
        {
          "internalType": "bool",
          "name": "",
          "type": "bool"
        }
      ],
      "stateMutability": "view",
      "type": "function"
    },
    {
      "inputs": [
        {
          "internalType": "address",
          "name": "_asset",
          "type": "address"
        }
      ],
      "name": "checkBalance",
      "outputs": [
        {
          "internalType": "uint256",
          "name": "",
          "type": "uint256"
        }
      ],
      "stateMutability": "view",
      "type": "function"
    },
    {
      "inputs": [],
      "name": "claimGovernance",
      "outputs": [],
      "stateMutability": "nonpayable",
      "type": "function"
    },
    {
      "inputs": [],
      "name": "getAllAssets",
      "outputs": [
        {
          "internalType": "address[]",
          "name": "",
          "type": "address[]"
        }
      ],
      "stateMutability": "view",
      "type": "function"
    },
    {
      "inputs": [],
      "name": "getAllStrategies",
      "outputs": [
        {
          "internalType": "address[]",
          "name": "",
          "type": "address[]"
        }
      ],
      "stateMutability": "view",
      "type": "function"
    },
    {
      "inputs": [
        {
          "internalType": "address",
          "name": "_asset",
          "type": "address"
        }
      ],
      "name": "getAssetConfig",
      "outputs": [
        {
          "components": [
            {
              "internalType": "bool",
              "name": "isSupported",
              "type": "bool"
            },
            {
              "internalType": "enum VaultStorage.UnitConversion",
              "name": "unitConversion",
              "type": "uint8"
            },
            {
              "internalType": "uint8",
              "name": "decimals",
              "type": "uint8"
            },
            {
              "internalType": "uint16",
              "name": "allowedOracleSlippageBps",
              "type": "uint16"
            }
          ],
          "internalType": "struct VaultStorage.Asset",
          "name": "config",
          "type": "tuple"
        }
      ],
      "stateMutability": "view",
      "type": "function"
    },
    {
      "inputs": [],
      "name": "getAssetCount",
      "outputs": [
        {
          "internalType": "uint256",
          "name": "",
          "type": "uint256"
        }
      ],
      "stateMutability": "view",
      "type": "function"
    },
    {
      "inputs": [],
      "name": "getStrategyCount",
      "outputs": [
        {
          "internalType": "uint256",
          "name": "",
          "type": "uint256"
        }
      ],
      "stateMutability": "view",
      "type": "function"
    },
    {
      "inputs": [],
      "name": "governor",
      "outputs": [
        {
          "internalType": "address",
          "name": "",
          "type": "address"
        }
      ],
      "stateMutability": "view",
      "type": "function"
    },
    {
      "inputs": [
        {
          "internalType": "address",
          "name": "_priceProvider",
          "type": "address"
        },
        {
          "internalType": "address",
          "name": "_oToken",
          "type": "address"
        }
      ],
      "name": "initialize",
      "outputs": [],
      "stateMutability": "nonpayable",
      "type": "function"
    },
    {
      "inputs": [],
      "name": "isGovernor",
      "outputs": [
        {
          "internalType": "bool",
          "name": "",
          "type": "bool"
        }
      ],
      "stateMutability": "view",
      "type": "function"
    },
    {
      "inputs": [
        {
          "internalType": "address",
          "name": "_asset",
          "type": "address"
        }
      ],
      "name": "isSupportedAsset",
      "outputs": [
        {
          "internalType": "bool",
          "name": "",
          "type": "bool"
        }
      ],
      "stateMutability": "view",
      "type": "function"
    },
    {
      "inputs": [],
      "name": "maxSupplyDiff",
      "outputs": [
        {
          "internalType": "uint256",
          "name": "",
          "type": "uint256"
        }
      ],
      "stateMutability": "view",
      "type": "function"
    },
    {
      "inputs": [
        {
          "internalType": "address",
          "name": "_asset",
          "type": "address"
        },
        {
          "internalType": "uint256",
          "name": "_amount",
          "type": "uint256"
        },
        {
          "internalType": "uint256",
          "name": "_minimumOusdAmount",
          "type": "uint256"
        }
      ],
      "name": "mint",
      "outputs": [],
      "stateMutability": "nonpayable",
      "type": "function"
    },
    {
      "inputs": [
        {
          "internalType": "uint256",
          "name": "_amount",
          "type": "uint256"
        }
      ],
      "name": "mintForStrategy",
      "outputs": [],
      "stateMutability": "nonpayable",
      "type": "function"
    },
    {
      "inputs": [],
      "name": "netOusdMintForStrategyThreshold",
      "outputs": [
        {
          "internalType": "uint256",
          "name": "",
          "type": "uint256"
        }
      ],
      "stateMutability": "view",
      "type": "function"
    },
    {
      "inputs": [],
      "name": "netOusdMintedForStrategy",
      "outputs": [
        {
          "internalType": "int256",
          "name": "",
          "type": "int256"
        }
      ],
      "stateMutability": "view",
      "type": "function"
    },
    {
      "inputs": [],
      "name": "ousdMetaStrategy",
      "outputs": [
        {
          "internalType": "address",
          "name": "",
          "type": "address"
        }
      ],
      "stateMutability": "view",
      "type": "function"
    },
    {
      "inputs": [],
      "name": "priceProvider",
      "outputs": [
        {
          "internalType": "address",
          "name": "",
          "type": "address"
        }
      ],
      "stateMutability": "view",
      "type": "function"
    },
    {
      "inputs": [
        {
          "internalType": "address",
          "name": "asset",
          "type": "address"
        }
      ],
      "name": "priceUnitMint",
      "outputs": [
        {
          "internalType": "uint256",
          "name": "price",
          "type": "uint256"
        }
      ],
      "stateMutability": "view",
      "type": "function"
    },
    {
      "inputs": [
        {
          "internalType": "address",
          "name": "asset",
          "type": "address"
        }
      ],
      "name": "priceUnitRedeem",
      "outputs": [
        {
          "internalType": "uint256",
          "name": "price",
          "type": "uint256"
        }
      ],
      "stateMutability": "view",
      "type": "function"
    },
    {
      "inputs": [],
      "name": "rebase",
      "outputs": [],
      "stateMutability": "nonpayable",
      "type": "function"
    },
    {
      "inputs": [],
      "name": "rebasePaused",
      "outputs": [
        {
          "internalType": "bool",
          "name": "",
          "type": "bool"
        }
      ],
      "stateMutability": "view",
      "type": "function"
    },
    {
      "inputs": [],
      "name": "rebaseThreshold",
      "outputs": [
        {
          "internalType": "uint256",
          "name": "",
          "type": "uint256"
        }
      ],
      "stateMutability": "view",
      "type": "function"
    },
    {
      "inputs": [
        {
          "internalType": "uint256",
          "name": "_amount",
          "type": "uint256"
        },
        {
          "internalType": "uint256",
          "name": "_minimumUnitAmount",
          "type": "uint256"
        }
      ],
      "name": "redeem",
      "outputs": [],
      "stateMutability": "nonpayable",
      "type": "function"
    },
    {
      "inputs": [
        {
          "internalType": "uint256",
          "name": "_minimumUnitAmount",
          "type": "uint256"
        }
      ],
      "name": "redeemAll",
      "outputs": [],
      "stateMutability": "nonpayable",
      "type": "function"
    },
    {
      "inputs": [],
      "name": "redeemFeeBps",
      "outputs": [
        {
          "internalType": "uint256",
          "name": "",
          "type": "uint256"
        }
      ],
      "stateMutability": "view",
      "type": "function"
    },
    {
      "inputs": [
        {
          "internalType": "address",
          "name": "newImpl",
          "type": "address"
        }
      ],
      "name": "setAdminImpl",
      "outputs": [],
      "stateMutability": "nonpayable",
      "type": "function"
    },
    {
      "inputs": [],
      "name": "strategistAddr",
      "outputs": [
        {
          "internalType": "address",
          "name": "",
          "type": "address"
        }
      ],
      "stateMutability": "view",
      "type": "function"
    },
    {
      "inputs": [],
      "name": "totalValue",
      "outputs": [
        {
          "internalType": "uint256",
          "name": "value",
          "type": "uint256"
        }
      ],
      "stateMutability": "view",
      "type": "function"
    },
    {
      "inputs": [
        {
          "internalType": "address",
          "name": "_newGovernor",
          "type": "address"
        }
      ],
      "name": "transferGovernance",
      "outputs": [],
      "stateMutability": "nonpayable",
      "type": "function"
    },
    {
      "inputs": [],
      "name": "trusteeAddress",
      "outputs": [
        {
          "internalType": "address",
          "name": "",
          "type": "address"
        }
      ],
      "stateMutability": "view",
      "type": "function"
    },
    {
      "inputs": [],
      "name": "trusteeFeeBps",
      "outputs": [
        {
          "internalType": "uint256",
          "name": "",
          "type": "uint256"
        }
      ],
      "stateMutability": "view",
      "type": "function"
    },
    {
      "inputs": [],
      "name": "vaultBuffer",
      "outputs": [
        {
          "internalType": "uint256",
          "name": "",
          "type": "uint256"
        }
      ],
      "stateMutability": "view",
      "type": "function"
    },
    {
      "inputs": [],
      "name": "weth",
      "outputs": [
        {
          "internalType": "address",
          "name": "",
          "type": "address"
        }
      ],
      "stateMutability": "view",
      "type": "function"
    },
    {
      "inputs": [],
      "name": "wethAssetIndex",
      "outputs": [
        {
          "internalType": "uint256",
          "name": "",
          "type": "uint256"
        }
      ],
      "stateMutability": "view",
      "type": "function"
    }
  ],
  "transactionHash": "0x114c615e53c8ada9e0d95cc4008bd343c8e25f70c4ea0ab73817ca62c451abe7",
  "args": [
    "0xb4fbf271143f4fbf7b91a5ded31805e42b2208d6"
  ],
  "numDeployments": 1,
  "solcInputHash": "da4c2bc4af0be4b969e54f8b43895033",
  "bytecode": "0x6037805461ffff60a01b1916600160a81b179055603d80546001600160a01b0319908116909155603e805482169055603f80548216905560458054909116905560006046819055604781905560e060405260a081905260c052604880546001600160b01b03191690553480156200007557600080fd5b50604051620036453803806200364583398101604081905262000098916200010e565b620000b0336000805160206200362583398151915255565b60008051602062003625833981519152546040516001600160a01b03909116906000907fc7c0c772add429241571afb3805861fb3cfa2af374534088b76cdb4325a87e9a908290a360601b6001600160601b03191660805262000140565b6000602082840312156200012157600080fd5b81516001600160a01b03811681146200013957600080fd5b9392505050565b60805160601c61348e620001976000396000818161034f0152818161072401528181610797015281816112d001528181611d0301528181611edd01528181611f7101528181611fa70152611ffb015261348e6000f3fe608060405234801561001057600080fd5b506004361061025e5760003560e01c806367bd7ba311610146578063ab80dafb116100c3578063c7af335211610087578063c7af335214610545578063d38bfff41461054d578063d4c3eea014610560578063e45cc9f014610568578063e6cc543214610571578063fc0cfeee146105855761025e565b8063ab80dafb14610507578063abaa99161461051a578063af14052c14610522578063b888879e1461052a578063c3b288641461053d5761025e565b80638e510b521161010a5780638e510b52146104985780639be918e6146104a15780639fa1826e146104cd578063a0aead4d146104d6578063a403e4d5146104de5761025e565b806367bd7ba3146104295780636ec3ab67146104495780637136a7a6146104695780637a2202f31461047c5780637cbc2373146104855761025e565b806344c54707116101df57806354c6d858116101a357806354c6d858146103cc578063570d8e1d146103d55780635b60f9fc146103e85780635d36b190146103fb5780635f515226146104035780636217f3ea146104165761025e565b806344c5470714610371578063485cc9551461037957806349c1d54d1461038c57806352d38e5d1461039f57806353ca9f24146103a85761025e565b8063207134b011610226578063207134b0146103115780632acada4d1461031a57806331e19cfa1461032f5780633b8fe28d146103375780633fc8cef31461034a5761025e565b806309f6442c146102a45780630c340a24146102c0578063156e29f6146102e057806318ce56bd146102f55780631edfe3da14610308575b7fa2bd3d3cf188a41358c8b401076eb59066b09dec5775650c0de4c55187d17bd9366000803760008036600084545af43d6000803e80801561029f573d6000f35b3d6000fd5b6102ad60385481565b6040519081526020015b60405180910390f35b6102c8610598565b6040516001600160a01b0390911681526020016102b7565b6102f36102ee366004612ea1565b6105b5565b005b6045546102c8906001600160a01b031681565b6102ad60395481565b6102ad60435481565b610322610633565b6040516102b79190612f7f565b6036546102ad565b6102ad610345366004612e53565b610695565b6102c87f000000000000000000000000000000000000000000000000000000000000000081565b6102f36106f0565b6102f3610387366004612e6e565b610839565b6042546102c8906001600160a01b031681565b6102ad603b5481565b6037546103bc90600160a01b900460ff1681565b60405190151581526020016102b7565b6102ad607b5481565b603f546102c8906001600160a01b031681565b6102ad6103f6366004612e53565b610a3b565b6102f3610a64565b6102ad610411366004612e53565b610b0a565b6102f3610424366004612ef6565b610b1b565b61043c610437366004612ef6565b610cb2565b6040516102b79190612fcc565b61045c610457366004612e53565b610cbd565b6040516102b7919061312b565b6102f3610477366004612ef6565b610d63565b6102ad60475481565b6102f3610493366004612f28565b610e4e565b6102ad60415481565b6103bc6104af366004612e53565b6001600160a01b031660009081526033602052604090205460ff1690565b6102ad603a5481565b6034546102ad565b6102c86104ec366004612e53565b6040602081905260009182529020546001600160a01b031681565b6102f3610515366004612ef6565b610ec1565b6102f3611038565b6102f36110a7565b6037546102c8906001600160a01b031681565b6103226110ed565b6103bc61114d565b6102f361055b366004612e53565b61117e565b6102ad611222565b6102ad60465481565b6037546103bc90600160a81b900460ff1681565b6102f3610593366004612e53565b61122c565b60006105b06000805160206134398339815191525490565b905090565b603754600160a81b900460ff16156105e85760405162461bcd60e51b81526004016105df906130db565b60405180910390fd5b6000805160206134198339815191528054600281141561061a5760405162461bcd60e51b81526004016105df90613103565b600282556106298585856112ce565b5060019055505050565b6060603480548060200260200160405190810160405280929190818152602001828054801561068b57602002820191906000526020600020905b81546001600160a01b0316815260019091019060200180831161066d575b5050505050905090565b6000806106be6106b86106a7856114de565b670de0b6b3a7640000906012611548565b846115aa565b9050670de0b6b3a7640000816106d5856001611706565b6106df91906132e7565b6106e991906131da565b9392505050565b6106f861114d565b6107145760405162461bcd60e51b81526004016105df9061307b565b60345460005b81811015610794577f00000000000000000000000000000000000000000000000000000000000000006001600160a01b03166034828154811061075f5761075f6133ec565b6000918252602090912001546001600160a01b0316141561078457607b819055610794565b61078d81613388565b905061071a565b507f00000000000000000000000000000000000000000000000000000000000000006001600160a01b03166034607b54815481106107d4576107d46133ec565b6000918252602090912001546001600160a01b0316146108365760405162461bcd60e51b815260206004820152601860248201527f496e76616c6964205745544820417373657420496e646578000000000000000060448201526064016105df565b50565b61084161114d565b61085d5760405162461bcd60e51b81526004016105df9061307b565b600054610100900460ff1680610876575060005460ff16155b6108d95760405162461bcd60e51b815260206004820152602e60248201527f496e697469616c697a61626c653a20636f6e747261637420697320616c72656160448201526d191e481a5b9a5d1a585b1a5e995960921b60648201526084016105df565b600054610100900460ff161580156108fb576000805461ffff19166101011790555b6001600160a01b0383166109515760405162461bcd60e51b815260206004820152601d60248201527f507269636550726f76696465722061646472657373206973207a65726f00000060448201526064016105df565b6001600160a01b0382166109a05760405162461bcd60e51b81526020600482015260166024820152756f546f6b656e2061646472657373206973207a65726f60501b60448201526064016105df565b603c80546001600160a01b038481166001600160a01b031990921691909117909155603780546001600160b01b03191691851691909117600160a81b17905560006038819055603981905569054b40b1f852bda00000603a55683635c9adc5dea00000603b556040805191825260208201908190529051610a2391603691612dcb565b508015610a36576000805461ff00191690555b505050565b600080610a4d6106b86106a7856114de565b9050670de0b6b3a7640000816106d5856000611706565b7f44c4d30b2eaad5130ad70c3ba6972730566f3e6359ab83e800d905c61b1c51db546001600160a01b0316336001600160a01b031614610aff5760405162461bcd60e51b815260206004820152603060248201527f4f6e6c79207468652070656e64696e6720476f7665726e6f722063616e20636f60448201526f6d706c6574652074686520636c61696d60801b60648201526084016105df565b610b08336119f8565b565b6000610b1582611ab9565b92915050565b603754600160a81b900460ff1615610b455760405162461bcd60e51b81526004016105df906130db565b6045546001600160a01b03163314610b6f5760405162461bcd60e51b81526004016105df90613037565b6001600160ff1b038110610b955760405162461bcd60e51b81526004016105df906130b2565b7f222838db2794d11532d940e8dec38ae307ed0b63cd97c233322e221f998767a63382604051610bc6929190612f66565b60405180910390a18060466000828254610be09190613306565b9091555050604754604654610bf490611c88565b10610c4b5760405162461bcd60e51b815260206004820152602160248201527f417474656d7074696e6720746f206275726e20746f6f206d756368204f5553446044820152601760f91b60648201526084016105df565b603c54604051632770a7eb60e21b81526001600160a01b0390911690639dc29fac90610c7d9033908590600401612f66565b600060405180830381600087803b158015610c9757600080fd5b505af1158015610cab573d6000803e3d6000fd5b5050505050565b6060610b1582611ccb565b604080516080808201835260008083526020808401829052838501829052606084018290526001600160a01b038616825260338152908490208451928301909452835460ff808216151584529394929391840191610100909104166001811115610d2957610d296133d6565b6001811115610d3a57610d3a6133d6565b8152905462010000810460ff1660208301526301000000900461ffff1660409091015292915050565b603754600160a81b900460ff1615610d8d5760405162461bcd60e51b81526004016105df906130db565b60008051602061341983398151915280546002811415610dbf5760405162461bcd60e51b81526004016105df90613103565b60028255603c546040516370a0823160e01b8152336004820152610e46916001600160a01b0316906370a082319060240160206040518083038186803b158015610e0857600080fd5b505afa158015610e1c573d6000803e3d6000fd5b505050506040513d601f19601f82011682018060405250810190610e409190612f0f565b84611e0c565b506001905550565b603754600160a81b900460ff1615610e785760405162461bcd60e51b81526004016105df906130db565b60008051602061341983398151915280546002811415610eaa5760405162461bcd60e51b81526004016105df90613103565b60028255610eb88484611e0c565b50600190555050565b603754600160a81b900460ff1615610eeb5760405162461bcd60e51b81526004016105df906130db565b6045546001600160a01b03163314610f155760405162461bcd60e51b81526004016105df90613037565b6001600160ff1b038110610f3b5760405162461bcd60e51b81526004016105df906130b2565b7f0f6798a560793a54c3bcfe86a93cde1e73087d944c0ea20544137d41213968853382604051610f6c929190612f66565b60405180910390a18060466000828254610f869190613181565b9091555050604754604654610f9a90611c88565b106110065760405162461bcd60e51b815260206004820152603660248201527f4d696e746564206f75736420737572706173736564206e65744f7573644d696e6044820152753a2337b929ba3930ba32b3bcaa343932b9b437b6321760511b60648201526084016105df565b603c546040516340c10f1960e01b81526001600160a01b03909116906340c10f1990610c7d9033908590600401612f66565b603754600160a81b900460ff16156110625760405162461bcd60e51b81526004016105df906130db565b600080516020613419833981519152805460028114156110945760405162461bcd60e51b81526004016105df90613103565b600282556110a0612118565b5060019055565b600080516020613419833981519152805460028114156110d95760405162461bcd60e51b81526004016105df90613103565b600282556110e561238c565b505060019055565b6060603680548060200260200160405190810160405280929190818152602001828054801561068b576020028201919060005260206000209081546001600160a01b0316815260019091019060200180831161066d575050505050905090565b60006111656000805160206134398339815191525490565b6001600160a01b0316336001600160a01b031614905090565b61118661114d565b6111a25760405162461bcd60e51b81526004016105df9061307b565b6111ca817f44c4d30b2eaad5130ad70c3ba6972730566f3e6359ab83e800d905c61b1c51db55565b806001600160a01b03166111ea6000805160206134398339815191525490565b6001600160a01b03167fa39cc5eb22d0f34d8beaefee8a3f17cc229c1a1d1ef87a5ad47313487b1c4f0d60405160405180910390a350565b60006105b06126c7565b61123461114d565b6112505760405162461bcd60e51b81526004016105df9061307b565b803b6112aa5760405162461bcd60e51b8152602060048201526024808201527f6e657720696d706c656d656e746174696f6e206973206e6f74206120636f6e746044820152631c9858dd60e21b60648201526084016105df565b7fa2bd3d3cf188a41358c8b401076eb59066b09dec5775650c0de4c55187d17bd955565b7f00000000000000000000000000000000000000000000000000000000000000006001600160a01b0316836001600160a01b03161461134f5760405162461bcd60e51b815260206004820152601d60248201527f556e737570706f7274656420617373657420666f72206d696e74696e6700000060448201526064016105df565b6000821161139f5760405162461bcd60e51b815260206004820152601d60248201527f416d6f756e74206d7573742062652067726561746572207468616e203000000060448201526064016105df565b808210156113ef5760405162461bcd60e51b815260206004820152601e60248201527f4d696e7420616d6f756e74206c6f776572207468616e206d696e696d756d000060448201526064016105df565b7f0f6798a560793a54c3bcfe86a93cde1e73087d944c0ea20544137d41213968853383604051611420929190612f66565b60405180910390a1603754600160a01b900460ff161580156114445750603b548210155b156114535761145161238c565b505b603c546040516340c10f1960e01b81526001600160a01b03909116906340c10f19906114859033908690600401612f66565b600060405180830381600087803b15801561149f57600080fd5b505af11580156114b3573d6000803e3d6000fd5b506114cd925050506001600160a01b0384163330856126e3565b603a548210610a3657610a36612118565b6001600160a01b03811660009081526033602052604090205462010000900460ff16806115435760405162461bcd60e51b8152602060048201526013602482015272111958da5b585b1cc81b9bdd0818d858da1959606a1b60448201526064016105df565b919050565b6000818311156115785761157161155f8385613345565b61156a90600a61323f565b859061274e565b93506115a2565b818310156115a25761159f61158d8484613345565b61159890600a61323f565b859061275a565b93505b509192915050565b6001600160a01b038116600090815260336020526040812054610100900460ff16818160018111156115de576115de6133d6565b1415611602576115fa60126115f2856114de565b869190611548565b915050610b15565b6001816001811115611616576116166133d6565b14156116b7576000836001600160a01b031663e6aa216c6040518163ffffffff1660e01b815260040160206040518083038186803b15801561165757600080fd5b505afa15801561166b573d6000803e3d6000fd5b505050506040513d601f19601f8201168201806040525081019061168f9190612f0f565b9050670de0b6b3a76400006116a482876132e7565b6116ae91906131da565b92505050610b15565b60405162461bcd60e51b815260206004820152601b60248201527f556e737570706f7274656420636f6e76657273696f6e2074797065000000000060448201526064016105df565b5092915050565b6001600160a01b038281166000818152603360205260408082205460375491516315d5220f60e31b81526004810194909452919361010090920460ff169291169063aea910789060240160206040518083038186803b15801561176857600080fd5b505afa15801561177c573d6000803e3d6000fd5b505050506040513d601f19601f820116820180604052508101906117a09190612f0f565b915060018160018111156117b6576117b66133d6565b1415611856576000846001600160a01b031663e6aa216c6040518163ffffffff1660e01b815260040160206040518083038186803b1580156117f757600080fd5b505afa15801561180b573d6000803e3d6000fd5b505050506040513d601f19601f8201168201806040525081019061182f9190612f0f565b90508061184484670de0b6b3a76400006132e7565b61184e91906131da565b9250506118b7565b600081600181111561186a5761186a6133d6565b146118b75760405162461bcd60e51b815260206004820152601b60248201527f556e737570706f7274656420636f6e76657273696f6e2074797065000000000060448201526064016105df565b67120a871cc002000082111561190f5760405162461bcd60e51b815260206004820152601860248201527f5661756c743a2050726963652065786365656473206d6178000000000000000060448201526064016105df565b6709b6e64a8ec600008210156119605760405162461bcd60e51b81526020600482015260166024820152752b30bab63a1d10283934b1b2903ab73232b91036b4b760511b60448201526064016105df565b82156119d757670de0b6b3a764000082111561198257670de0b6b3a764000091505b670dd99bb65dd700008210156119d25760405162461bcd60e51b815260206004820152601560248201527441737365742070726963652062656c6f772070656760581b60448201526064016105df565b6116ff565b670de0b6b3a76400008210156116ff5750670de0b6b3a76400009392505050565b6001600160a01b038116611a4e5760405162461bcd60e51b815260206004820152601a60248201527f4e657720476f7665726e6f72206973206164647265737328302900000000000060448201526064016105df565b806001600160a01b0316611a6e6000805160206134398339815191525490565b6001600160a01b03167fc7c0c772add429241571afb3805861fb3cfa2af374534088b76cdb4325a87e9a60405160405180910390a36108368160008051602061343983398151915255565b6040516370a0823160e01b815230600482015260009082906001600160a01b038216906370a082319060240160206040518083038186803b158015611afd57600080fd5b505afa158015611b11573d6000803e3d6000fd5b505050506040513d601f19601f82011682018060405250810190611b359190612f0f565b60365490925060005b81811015611c8057600060368281548110611b5b57611b5b6133ec565b60009182526020909120015460405163551c457b60e11b81526001600160a01b0388811660048301529091169150819063aa388af69060240160206040518083038186803b158015611bac57600080fd5b505afa158015611bc0573d6000803e3d6000fd5b505050506040513d601f19601f82011682018060405250810190611be49190612ed4565b15611c6f57604051632fa8a91360e11b81526001600160a01b038781166004830152821690635f5152269060240160206040518083038186803b158015611c2a57600080fd5b505afa158015611c3e573d6000803e3d6000fd5b505050506040513d601f19601f82011682018060405250810190611c629190612f0f565b611c6c90866131c2565b94505b50611c7981613388565b9050611b3e565b505050919050565b60006001600160ff1b038212611cb05760405162461bcd60e51b81526004016105df906130b2565b6000821215611cc757611cc2826133a3565b610b15565b5090565b60385460609015611cfa57603854600090611cea908490612710612766565b9050611cf68184613345565b9250505b6000607b5490507f00000000000000000000000000000000000000000000000000000000000000006001600160a01b031660348281548110611d3e57611d3e6133ec565b6000918252602090912001546001600160a01b031614611da05760405162461bcd60e51b815260206004820152601b60248201527f5745544820417373657420696e646578206e6f7420636163686564000000000060448201526064016105df565b60345467ffffffffffffffff811115611dbb57611dbb613402565b604051908082528060200260200182016040528015611de4578160200160208202803683370190505b50915082828281518110611dfa57611dfa6133ec565b60200260200101818152505050919050565b7f222838db2794d11532d940e8dec38ae307ed0b63cd97c233322e221f998767a63383604051611e3d929190612f66565b60405180910390a181611e4e575050565b6000611e5983611ccb565b607b5481518110611e6c57611e6c6133ec565b6020026020010151905081811015611ec65760405162461bcd60e51b815260206004820181905260248201527f52656465656d20616d6f756e74206c6f776572207468616e206d696e696d756d60448201526064016105df565b6040516370a0823160e01b815230600482015281907f00000000000000000000000000000000000000000000000000000000000000006001600160a01b0316906370a082319060240160206040518083038186803b158015611f2757600080fd5b505afa158015611f3b573d6000803e3d6000fd5b505050506040513d601f19601f82011682018060405250810190611f5f9190612f0f565b10611f9d57611f986001600160a01b037f0000000000000000000000000000000000000000000000000000000000000000163383612788565b6120ab565b6001600160a01b037f0000000000000000000000000000000000000000000000000000000000000000811660009081526040602081905290205416801561206f57604051636ce5768960e11b81523360048201526001600160a01b037f0000000000000000000000000000000000000000000000000000000000000000811660248301526044820184905282919082169063d9caed1290606401600060405180830381600087803b15801561205157600080fd5b505af1158015612065573d6000803e3d6000fd5b50505050506120a9565b60405162461bcd60e51b815260206004820152600f60248201526e2634b8bab4b234ba3c9032b93937b960891b60448201526064016105df565b505b603c54604051632770a7eb60e21b81526001600160a01b0390911690639dc29fac906120dd9033908790600401612f66565b600060405180830381600087803b1580156120f757600080fd5b505af115801561210b573d6000803e3d6000fd5b50505050610a36836127a7565b600061212261290d565b90508061212c5750565b60006121366129ef565b9050600061214482846131c2565b90506000826121695760395461216290670de0b6b3a7640000613345565b90506121ac565b838260395461217891906132e7565b61218291906131da565b905080670de0b6b3a764000011156121a65761216281670de0b6b3a7640000613345565b50505050565b806121b75750505050565b60345460005b81811015612384576000603482815481106121da576121da6133ec565b60009182526020822001546040516370a0823160e01b81523060048201526001600160a01b03909116925082906370a082319060240160206040518083038186803b15801561222857600080fd5b505afa15801561223c573d6000803e3d6000fd5b505050506040513d601f19601f820116820180604052508101906122609190612f0f565b90508061226e575050612374565b600061227a8287612a4b565b6001600160a01b038085166000908152604060208190529020549192501680158015906122a75750600082115b1561236f57806122c16001600160a01b0386168285612788565b6040516311f9fbc960e21b81526001600160a01b038216906347e7ef24906122ef9088908790600401612f66565b600060405180830381600087803b15801561230957600080fd5b505af115801561231d573d6000803e3d6000fd5b5050604080516001600160a01b03808a168252861660208201529081018690527f41b99659f6ba0803f444aff29e5bf6e26dd86a3219aff92119d69710a956ba8d9250606001905060405180910390a1505b505050505b61237d81613388565b90506121bd565b505050505050565b603754600090600160a01b900460ff16156123db5760405162461bcd60e51b815260206004820152600f60248201526e149958985cda5b99c81c185d5cd959608a1b60448201526064016105df565b603c54604080516318160ddd60e01b815290516000926001600160a01b0316916318160ddd916004808301926020929190829003018186803b15801561242057600080fd5b505afa158015612434573d6000803e3d6000fd5b505050506040513d601f19601f820116820180604052508101906124589190612f0f565b905060006124646126c7565b9050816124745791506126c49050565b6042546001600160a01b0316801580159061248e57508282115b156125d057600061249f8484613345565b905060006124bc604354612710846127669092919063ffffffff16565b90508082116125185760405162461bcd60e51b815260206004820152602260248201527f466565206d757374206e6f742062652067726561746572207468616e207969656044820152611b1960f21b60648201526084016105df565b801561258357603c546040516340c10f1960e01b81526001600160a01b03909116906340c10f19906125509086908590600401612f66565b600060405180830381600087803b15801561256a57600080fd5b505af115801561257e573d6000803e3d6000fd5b505050505b604080516001600160a01b0385168152602081018490529081018290527f09516ecf4a8a86e59780a9befc6dee948bc9e60a36e3be68d31ea817ee8d2c809060600160405180910390a150505b603c60009054906101000a90046001600160a01b03166001600160a01b03166318160ddd6040518163ffffffff1660e01b815260040160206040518083038186803b15801561261e57600080fd5b505afa158015612632573d6000803e3d6000fd5b505050506040513d601f19601f820116820180604052508101906126569190612f0f565b9250828211156126bf57603c546040516339a7919f60e01b8152600481018490526001600160a01b03909116906339a7919f90602401600060405180830381600087803b1580156126a657600080fd5b505af11580156126ba573d6000803e3d6000fd5b505050505b509150505b90565b60006126d16129ef565b6126d961290d565b6105b091906131c2565b6040516001600160a01b03808516602483015283166044820152606481018290526121a69085906323b872dd60e01b906084015b60408051601f198184030181529190526020810180516001600160e01b03166001600160e01b031990931692909217909152612a60565b60006106e982846132e7565b60006106e982846131da565b600080612773858561274e565b905061277f818461275a565b95945050505050565b610a368363a9059cbb60e01b8484604051602401612717929190612f66565b6000603b5482101580156127c55750603754600160a01b900460ff16155b156127d9576127d261238c565b90506127e4565b6127e16126c7565b90505b6041541561290957600061287e82603c60009054906101000a90046001600160a01b03166001600160a01b03166318160ddd6040518163ffffffff1660e01b815260040160206040518083038186803b15801561284057600080fd5b505afa158015612854573d6000803e3d6000fd5b505050506040513d601f19601f820116820180604052508101906128789190612f0f565b90612b32565b9050604154670de0b6b3a764000082116128a9576128a482670de0b6b3a7640000613345565b6128bb565b6128bb670de0b6b3a764000083613345565b1115610a365760405162461bcd60e51b815260206004820152601e60248201527f4261636b696e6720737570706c79206c6971756964697479206572726f72000060448201526064016105df565b5050565b603454600090815b818110156129ea57600060348281548110612932576129326133ec565b60009182526020822001546040516370a0823160e01b81523060048201526001600160a01b03909116925082906370a082319060240160206040518083038186803b15801561298057600080fd5b505afa158015612994573d6000803e3d6000fd5b505050506040513d601f19601f820116820180604052508101906129b89190612f0f565b905080156129d7576129ca81836115aa565b6129d490866131c2565b94505b5050806129e390613388565b9050612915565b505090565b603654600090815b818110156129ea57612a2f60368281548110612a1557612a156133ec565b6000918252602090912001546001600160a01b0316612b5b565b612a3990846131c2565b9250612a4481613388565b90506129f7565b60006106e98383670de0b6b3a7640000612766565b6000612ab5826040518060400160405280602081526020017f5361666545524332303a206c6f772d6c6576656c2063616c6c206661696c6564815250856001600160a01b0316612cc09092919063ffffffff16565b805190915015610a365780806020019051810190612ad39190612ed4565b610a365760405162461bcd60e51b815260206004820152602a60248201527f5361666545524332303a204552433230206f7065726174696f6e20646964206e6044820152691bdd081cdd58d8d9595960b21b60648201526084016105df565b600080612b4784670de0b6b3a764000061274e565b9050612b53818461275a565b949350505050565b6034546000908290825b81811015611c8057600060348281548110612b8257612b826133ec565b60009182526020909120015460405163551c457b60e11b81526001600160a01b039182166004820181905292509085169063aa388af69060240160206040518083038186803b158015612bd457600080fd5b505afa158015612be8573d6000803e3d6000fd5b505050506040513d601f19601f82011682018060405250810190612c0c9190612ed4565b15612caf57604051632fa8a91360e11b81526001600160a01b03828116600483015260009190861690635f5152269060240160206040518083038186803b158015612c5657600080fd5b505afa158015612c6a573d6000803e3d6000fd5b505050506040513d601f19601f82011682018060405250810190612c8e9190612f0f565b90508015612cad57612ca081836115aa565b612caa90876131c2565b95505b505b50612cb981613388565b9050612b65565b6060612b53848460008585843b612d195760405162461bcd60e51b815260206004820152601d60248201527f416464726573733a2063616c6c20746f206e6f6e2d636f6e747261637400000060448201526064016105df565b600080866001600160a01b03168587604051612d359190612f4a565b60006040518083038185875af1925050503d8060008114612d72576040519150601f19603f3d011682016040523d82523d6000602084013e612d77565b606091505b5091509150612d87828286612d92565b979650505050505050565b60608315612da15750816106e9565b825115612db15782518084602001fd5b8160405162461bcd60e51b81526004016105df9190613004565b828054828255906000526020600020908101928215612e20579160200282015b82811115612e2057825182546001600160a01b0319166001600160a01b03909116178255602090920191600190910190612deb565b50611cc79291505b80821115611cc75760008155600101612e28565b80356001600160a01b038116811461154357600080fd5b600060208284031215612e6557600080fd5b6106e982612e3c565b60008060408385031215612e8157600080fd5b612e8a83612e3c565b9150612e9860208401612e3c565b90509250929050565b600080600060608486031215612eb657600080fd5b612ebf84612e3c565b95602085013595506040909401359392505050565b600060208284031215612ee657600080fd5b815180151581146106e957600080fd5b600060208284031215612f0857600080fd5b5035919050565b600060208284031215612f2157600080fd5b5051919050565b60008060408385031215612f3b57600080fd5b50508035926020909101359150565b60008251612f5c81846020870161335c565b9190910192915050565b6001600160a01b03929092168252602082015260400190565b6020808252825182820181905260009190848201906040850190845b81811015612fc05783516001600160a01b031683529284019291840191600101612f9b565b50909695505050505050565b6020808252825182820181905260009190848201906040850190845b81811015612fc057835183529284019291840191600101612fe8565b602081526000825180602084015261302381604085016020870161335c565b601f01601f19169190910160400192915050565b60208082526024908201527f43616c6c6572206973206e6f7420746865204f555344206d65746120737472616040820152637465677960e01b606082015260800190565b6020808252601a908201527f43616c6c6572206973206e6f742074686520476f7665726e6f72000000000000604082015260600190565b6020808252600f908201526e082dadeeadce840e8dede40d0d2ced608b1b604082015260600190565b6020808252600e908201526d10d85c1a5d185b081c185d5cd95960921b604082015260600190565b6020808252600e908201526d1499595b9d1c985b9d0818d85b1b60921b604082015260600190565b815115158152602082015160808201906002811061315957634e487b7160e01b600052602160045260246000fd5b8060208401525060ff604084015116604083015261ffff606084015116606083015292915050565b600080821280156001600160ff1b03849003851316156131a3576131a36133c0565b600160ff1b83900384128116156131bc576131bc6133c0565b50500190565b600082198211156131d5576131d56133c0565b500190565b6000826131f757634e487b7160e01b600052601260045260246000fd5b500490565b600181815b8085111561323757816000190482111561321d5761321d6133c0565b8085161561322a57918102915b93841c9390800290613201565b509250929050565b60006106e9838360008261325557506001610b15565b8161326257506000610b15565b816001811461327857600281146132825761329e565b6001915050610b15565b60ff841115613293576132936133c0565b50506001821b610b15565b5060208310610133831016604e8410600b84101617156132c1575081810a610b15565b6132cb83836131fc565b80600019048211156132df576132df6133c0565b029392505050565b6000816000190483118215151615613301576133016133c0565b500290565b60008083128015600160ff1b850184121615613324576133246133c0565b6001600160ff1b038401831381161561333f5761333f6133c0565b50500390565b600082821015613357576133576133c0565b500390565b60005b8381101561337757818101518382015260200161335f565b838111156121a65750506000910152565b600060001982141561339c5761339c6133c0565b5060010190565b6000600160ff1b8214156133b9576133b96133c0565b5060000390565b634e487b7160e01b600052601160045260246000fd5b634e487b7160e01b600052602160045260246000fd5b634e487b7160e01b600052603260045260246000fd5b634e487b7160e01b600052604160045260246000fdfe53bf423e48ed90e97d02ab0ebab13b2a235a6bfbe9c321847d5c175333ac45357bea13895fa79d2831e0a9e28edede30099005a50d652d8957cf8a607ee6ca4aa26469706673582212204e8e456474cb6e24f080768f1c492c792431f05e2e92233405d5b9337a2458fb64736f6c634300080700337bea13895fa79d2831e0a9e28edede30099005a50d652d8957cf8a607ee6ca4a",
  "libraries": {},
  "devdoc": {
    "author": "Origin Protocol Inc",
    "kind": "dev",
    "methods": {
      "burnForStrategy(uint256)": {
        "details": "Notice: can't use `nonReentrant` modifier since the `redeem` function could require withdrawal on `ConvexOUSDMetaStrategy` and that one can call `burnForStrategy` while the execution of the `redeem` has not yet completed -> causing a `nonReentrant` collision. Also important to understand is that this is a limitation imposed by the test suite. Production / mainnet contracts should never be configured in a way where mint/redeem functions that are moving funds between the Vault and end user wallets can influence strategies utilizing this function.",
        "params": {
          "_amount": "Amount of OUSD to burn"
        }
      },
      "cacheWETHAssetIndex()": {
        "details": "Caches WETH's index in `allAssets` variable.      Reduces gas usage by redeem by caching that."
      },
      "checkBalance(address)": {
        "params": {
          "_asset": "Address of asset"
        },
        "returns": {
          "_0": "uint256 Balance of asset in decimals of asset"
        }
      },
      "isSupportedAsset(address)": {
        "params": {
          "_asset": "address of the asset"
        },
        "returns": {
          "_0": "true if supported"
        }
      },
      "mint(address,uint256,uint256)": {
        "params": {
          "_amount": "Amount of the asset being deposited",
          "_asset": "Address of the asset being deposited",
          "_minimumOusdAmount": "Minimum OTokens to mint"
        }
      },
      "mintForStrategy(uint256)": {
        "params": {
          "_amount": "Amount of the asset being deposited Notice: can't use `nonReentrant` modifier since the `mint` function can call `allocate`, and that can trigger `ConvexOUSDMetaStrategy` to call this function while the execution of the `mint` has not yet completed -> causing a `nonReentrant` collision. Also important to understand is that this is a limitation imposed by the test suite. Production / mainnet contracts should never be configured in a way where mint/redeem functions that are moving funds between the Vault and end user wallets can influence strategies utilizing this function."
        }
      },
      "priceUnitMint(address)": {
        "params": {
          "asset": "address of the asset"
        },
        "returns": {
          "price": "uint256: unit (USD / ETH) price for 1 unit of the asset, in 18 decimal fixed"
        }
      },
      "priceUnitRedeem(address)": {
        "params": {
          "asset": "Address of the asset"
        },
        "returns": {
          "price": "uint256: unit (USD / ETH) price for 1 unit of the asset, in 18 decimal fixed"
        }
      },
      "redeem(uint256,uint256)": {
        "params": {
          "_amount": "Amount of OTokens to burn",
          "_minimumUnitAmount": "Minimum stablecoin units to receive in return"
        }
      },
      "redeemAll(uint256)": {
        "params": {
          "_minimumUnitAmount": "Minimum stablecoin units to receive in return"
        }
      },
      "setAdminImpl(address)": {
        "params": {
          "newImpl": "address of the implementation"
        }
      },
      "totalValue()": {
        "returns": {
          "value": "Total value in USD/ETH (1e18)"
        }
      },
      "transferGovernance(address)": {
        "params": {
          "_newGovernor": "Address of the new Governor"
        }
      }
    },
    "title": "OETH VaultCore Contract",
    "version": 1
  },
  "userdoc": {
    "kind": "user",
    "methods": {
      "allocate()": {
        "notice": "Allocate unallocated funds on Vault to strategies.*"
      },
      "assetDefaultStrategies(address)": {
        "notice": "Mapping of asset address to the Strategy that they should automatically"
      },
      "autoAllocateThreshold()": {
        "notice": "OToken mints over this amount automatically allocate funds. 18 decimals."
      },
      "burnForStrategy(uint256)": {
        "notice": "Burn OTokens for Metapool Strategy"
      },
      "calculateRedeemOutputs(uint256)": {
        "notice": "Calculate the outputs for a redeem function, i.e. the mix of coins that will be returned"
      },
      "capitalPaused()": {
        "notice": "pause operations that change the OToken supply. eg mint, redeem, allocate, mint/burn for strategy"
      },
      "checkBalance(address)": {
        "notice": "Get the balance of an asset held in Vault and all strategies."
      },
      "claimGovernance()": {
        "notice": "Claim Governance of the contract to a new account (`newGovernor`). Can only be called by the new Governor."
      },
      "getAllAssets()": {
        "notice": "Return all vault asset addresses in order"
      },
      "getAllStrategies()": {
        "notice": "Return the array of all strategies"
      },
      "getAssetConfig(address)": {
        "notice": "Gets the vault configuration of a supported asset."
      },
      "getAssetCount()": {
        "notice": "Return the number of assets supported by the Vault."
      },
      "getStrategyCount()": {
        "notice": "Return the number of strategies active on the Vault."
      },
      "governor()": {
        "notice": "Returns the address of the current Governor."
      },
      "isGovernor()": {
        "notice": "Returns true if the caller is the current Governor."
      },
      "isSupportedAsset(address)": {
        "notice": "Returns whether the vault supports the asset"
      },
      "maxSupplyDiff()": {
        "notice": "Max difference between total supply and total value of assets. 18 decimals."
      },
      "mint(address,uint256,uint256)": {
        "notice": "Deposit a supported asset and mint OTokens."
      },
      "mintForStrategy(uint256)": {
        "notice": "Mint OTokens for a Metapool Strategy"
      },
      "netOusdMintForStrategyThreshold()": {
        "notice": "How much net total OTokens are allowed to be minted by all strategies"
      },
      "netOusdMintedForStrategy()": {
        "notice": "How much OTokens are currently minted by the strategy"
      },
      "ousdMetaStrategy()": {
        "notice": "Metapool strategy that is allowed to mint/burn OTokens without changing collateral"
      },
      "priceProvider()": {
        "notice": "Address of the Oracle price provider contract"
      },
      "priceUnitMint(address)": {
        "notice": "Returns the total price in 18 digit units for a given asset.      Never goes above 1, since that is how we price mints."
      },
      "priceUnitRedeem(address)": {
        "notice": "Returns the total price in 18 digit unit for a given asset.      Never goes below 1, since that is how we price redeems"
      },
      "rebase()": {
        "notice": "Calculate the total value of assets held by the Vault and all      strategies and update the supply of OTokens."
      },
      "rebasePaused()": {
        "notice": "pause rebasing if true"
      },
      "rebaseThreshold()": {
        "notice": "OToken mints over this amount automatically rebase. 18 decimals."
      },
      "redeem(uint256,uint256)": {
        "notice": "Withdraw a supported asset and burn OTokens."
      },
      "redeemAll(uint256)": {
        "notice": "Withdraw a supported asset and burn all OTokens."
      },
      "redeemFeeBps()": {
        "notice": "Redemption fee in basis points. eg 50 = 0.5%"
      },
      "setAdminImpl(address)": {
        "notice": "set the implementation for the admin, this needs to be in a base class else we cannot set it"
      },
      "strategistAddr()": {
        "notice": "Address of the Strategist"
      },
      "totalValue()": {
        "notice": "Determine the total value of assets held by the vault and its         strategies."
      },
      "transferGovernance(address)": {
        "notice": "Transfers Governance of the contract to a new account (`newGovernor`). Can only be called by the current Governor. Must be claimed for this to complete"
      },
      "trusteeAddress()": {
        "notice": "Trustee contract that can collect a percentage of yield"
      },
      "trusteeFeeBps()": {
        "notice": "Amount of yield collected in basis points. eg 2000 = 20%"
      },
      "vaultBuffer()": {
        "notice": "Percentage of assets to keep in Vault to handle (most) withdrawals. 100% = 1e18."
      }
    },
    "version": 1
  },
  "storageLayout": {
    "storage": [
      {
        "astId": 41419,
        "contract": "contracts/vault/OETHVaultCore.sol:OETHVaultCore",
        "label": "initialized",
        "offset": 0,
        "slot": "0",
        "type": "t_bool"
      },
      {
        "astId": 41422,
        "contract": "contracts/vault/OETHVaultCore.sol:OETHVaultCore",
        "label": "initializing",
        "offset": 1,
        "slot": "0",
        "type": "t_bool"
      },
      {
        "astId": 41462,
        "contract": "contracts/vault/OETHVaultCore.sol:OETHVaultCore",
        "label": "______gap",
        "offset": 0,
        "slot": "1",
        "type": "t_array(t_uint256)50_storage"
      },
      {
        "astId": 46069,
        "contract": "contracts/vault/OETHVaultCore.sol:OETHVaultCore",
        "label": "assets",
        "offset": 0,
        "slot": "51",
        "type": "t_mapping(t_address,t_struct(Asset)46063_storage)"
      },
      {
        "astId": 46073,
        "contract": "contracts/vault/OETHVaultCore.sol:OETHVaultCore",
        "label": "allAssets",
        "offset": 0,
        "slot": "52",
        "type": "t_array(t_address)dyn_storage"
      },
      {
        "astId": 46084,
        "contract": "contracts/vault/OETHVaultCore.sol:OETHVaultCore",
        "label": "strategies",
        "offset": 0,
        "slot": "53",
        "type": "t_mapping(t_address,t_struct(Strategy)46078_storage)"
      },
      {
        "astId": 46088,
        "contract": "contracts/vault/OETHVaultCore.sol:OETHVaultCore",
        "label": "allStrategies",
        "offset": 0,
        "slot": "54",
        "type": "t_array(t_address)dyn_storage"
      },
      {
        "astId": 46091,
        "contract": "contracts/vault/OETHVaultCore.sol:OETHVaultCore",
        "label": "priceProvider",
        "offset": 0,
        "slot": "55",
        "type": "t_address"
      },
      {
        "astId": 46095,
        "contract": "contracts/vault/OETHVaultCore.sol:OETHVaultCore",
        "label": "rebasePaused",
        "offset": 20,
        "slot": "55",
        "type": "t_bool"
      },
      {
        "astId": 46099,
        "contract": "contracts/vault/OETHVaultCore.sol:OETHVaultCore",
        "label": "capitalPaused",
        "offset": 21,
        "slot": "55",
        "type": "t_bool"
      },
      {
        "astId": 46102,
        "contract": "contracts/vault/OETHVaultCore.sol:OETHVaultCore",
        "label": "redeemFeeBps",
        "offset": 0,
        "slot": "56",
        "type": "t_uint256"
      },
      {
        "astId": 46105,
        "contract": "contracts/vault/OETHVaultCore.sol:OETHVaultCore",
        "label": "vaultBuffer",
        "offset": 0,
        "slot": "57",
        "type": "t_uint256"
      },
      {
        "astId": 46108,
        "contract": "contracts/vault/OETHVaultCore.sol:OETHVaultCore",
        "label": "autoAllocateThreshold",
        "offset": 0,
        "slot": "58",
        "type": "t_uint256"
      },
      {
        "astId": 46111,
        "contract": "contracts/vault/OETHVaultCore.sol:OETHVaultCore",
        "label": "rebaseThreshold",
        "offset": 0,
        "slot": "59",
        "type": "t_uint256"
      },
      {
        "astId": 46115,
        "contract": "contracts/vault/OETHVaultCore.sol:OETHVaultCore",
        "label": "oUSD",
        "offset": 0,
        "slot": "60",
        "type": "t_contract(OUSD)40245"
      },
      {
        "astId": 46124,
        "contract": "contracts/vault/OETHVaultCore.sol:OETHVaultCore",
        "label": "_deprecated_rebaseHooksAddr",
        "offset": 0,
        "slot": "61",
        "type": "t_address"
      },
      {
        "astId": 46130,
        "contract": "contracts/vault/OETHVaultCore.sol:OETHVaultCore",
        "label": "_deprecated_uniswapAddr",
        "offset": 0,
        "slot": "62",
        "type": "t_address"
      },
      {
        "astId": 46137,
        "contract": "contracts/vault/OETHVaultCore.sol:OETHVaultCore",
        "label": "strategistAddr",
        "offset": 0,
        "slot": "63",
        "type": "t_address"
      },
      {
        "astId": 46142,
        "contract": "contracts/vault/OETHVaultCore.sol:OETHVaultCore",
        "label": "assetDefaultStrategies",
        "offset": 0,
        "slot": "64",
        "type": "t_mapping(t_address,t_address)"
      },
      {
        "astId": 46145,
        "contract": "contracts/vault/OETHVaultCore.sol:OETHVaultCore",
        "label": "maxSupplyDiff",
        "offset": 0,
        "slot": "65",
        "type": "t_uint256"
      },
      {
        "astId": 46148,
        "contract": "contracts/vault/OETHVaultCore.sol:OETHVaultCore",
        "label": "trusteeAddress",
        "offset": 0,
        "slot": "66",
        "type": "t_address"
      },
      {
        "astId": 46151,
        "contract": "contracts/vault/OETHVaultCore.sol:OETHVaultCore",
        "label": "trusteeFeeBps",
        "offset": 0,
        "slot": "67",
        "type": "t_uint256"
      },
      {
        "astId": 46155,
        "contract": "contracts/vault/OETHVaultCore.sol:OETHVaultCore",
        "label": "_deprecated_swapTokens",
        "offset": 0,
        "slot": "68",
        "type": "t_array(t_address)dyn_storage"
      },
      {
        "astId": 46165,
        "contract": "contracts/vault/OETHVaultCore.sol:OETHVaultCore",
        "label": "ousdMetaStrategy",
        "offset": 0,
        "slot": "69",
        "type": "t_address"
      },
      {
        "astId": 46169,
        "contract": "contracts/vault/OETHVaultCore.sol:OETHVaultCore",
        "label": "netOusdMintedForStrategy",
        "offset": 0,
        "slot": "70",
        "type": "t_int256"
      },
      {
        "astId": 46173,
        "contract": "contracts/vault/OETHVaultCore.sol:OETHVaultCore",
        "label": "netOusdMintForStrategyThreshold",
        "offset": 0,
        "slot": "71",
        "type": "t_uint256"
      },
      {
        "astId": 46194,
        "contract": "contracts/vault/OETHVaultCore.sol:OETHVaultCore",
        "label": "swapConfig",
        "offset": 0,
        "slot": "72",
        "type": "t_struct(SwapConfig)46184_storage"
      },
      {
        "astId": 46198,
        "contract": "contracts/vault/OETHVaultCore.sol:OETHVaultCore",
        "label": "__gap",
        "offset": 0,
        "slot": "73",
        "type": "t_array(t_uint256)50_storage"
      },
      {
        "astId": 42360,
        "contract": "contracts/vault/OETHVaultCore.sol:OETHVaultCore",
        "label": "wethAssetIndex",
        "offset": 0,
        "slot": "123",
        "type": "t_uint256"
      }
    ],
    "types": {
      "t_address": {
        "encoding": "inplace",
        "label": "address",
        "numberOfBytes": "20"
      },
      "t_array(t_address)dyn_storage": {
        "base": "t_address",
        "encoding": "dynamic_array",
        "label": "address[]",
        "numberOfBytes": "32"
      },
      "t_array(t_uint256)50_storage": {
        "base": "t_uint256",
        "encoding": "inplace",
        "label": "uint256[50]",
        "numberOfBytes": "1600"
      },
      "t_bool": {
        "encoding": "inplace",
        "label": "bool",
        "numberOfBytes": "1"
      },
      "t_contract(OUSD)40245": {
        "encoding": "inplace",
        "label": "contract OUSD",
        "numberOfBytes": "20"
      },
      "t_enum(UnitConversion)46053": {
        "encoding": "inplace",
        "label": "enum VaultStorage.UnitConversion",
        "numberOfBytes": "1"
      },
      "t_int256": {
        "encoding": "inplace",
        "label": "int256",
        "numberOfBytes": "32"
      },
      "t_mapping(t_address,t_address)": {
        "encoding": "mapping",
        "key": "t_address",
        "label": "mapping(address => address)",
        "numberOfBytes": "32",
        "value": "t_address"
      },
      "t_mapping(t_address,t_struct(Asset)46063_storage)": {
        "encoding": "mapping",
        "key": "t_address",
        "label": "mapping(address => struct VaultStorage.Asset)",
        "numberOfBytes": "32",
        "value": "t_struct(Asset)46063_storage"
      },
      "t_mapping(t_address,t_struct(Strategy)46078_storage)": {
        "encoding": "mapping",
        "key": "t_address",
        "label": "mapping(address => struct VaultStorage.Strategy)",
        "numberOfBytes": "32",
        "value": "t_struct(Strategy)46078_storage"
      },
      "t_struct(Asset)46063_storage": {
        "encoding": "inplace",
        "label": "struct VaultStorage.Asset",
        "members": [
          {
            "astId": 46055,
            "contract": "contracts/vault/OETHVaultCore.sol:OETHVaultCore",
            "label": "isSupported",
            "offset": 0,
            "slot": "0",
            "type": "t_bool"
          },
          {
            "astId": 46058,
            "contract": "contracts/vault/OETHVaultCore.sol:OETHVaultCore",
            "label": "unitConversion",
            "offset": 1,
            "slot": "0",
            "type": "t_enum(UnitConversion)46053"
          },
          {
            "astId": 46060,
            "contract": "contracts/vault/OETHVaultCore.sol:OETHVaultCore",
            "label": "decimals",
            "offset": 2,
            "slot": "0",
            "type": "t_uint8"
          },
          {
            "astId": 46062,
            "contract": "contracts/vault/OETHVaultCore.sol:OETHVaultCore",
            "label": "allowedOracleSlippageBps",
            "offset": 3,
            "slot": "0",
            "type": "t_uint16"
          }
        ],
        "numberOfBytes": "32"
      },
      "t_struct(Strategy)46078_storage": {
        "encoding": "inplace",
        "label": "struct VaultStorage.Strategy",
        "members": [
          {
            "astId": 46075,
            "contract": "contracts/vault/OETHVaultCore.sol:OETHVaultCore",
            "label": "isSupported",
            "offset": 0,
            "slot": "0",
            "type": "t_bool"
          },
          {
            "astId": 46077,
            "contract": "contracts/vault/OETHVaultCore.sol:OETHVaultCore",
            "label": "_deprecated",
            "offset": 0,
            "slot": "1",
            "type": "t_uint256"
          }
        ],
        "numberOfBytes": "64"
      },
      "t_struct(SwapConfig)46184_storage": {
        "encoding": "inplace",
        "label": "struct VaultStorage.SwapConfig",
        "members": [
          {
            "astId": 46181,
            "contract": "contracts/vault/OETHVaultCore.sol:OETHVaultCore",
            "label": "swapper",
            "offset": 0,
            "slot": "0",
            "type": "t_address"
          },
          {
            "astId": 46183,
            "contract": "contracts/vault/OETHVaultCore.sol:OETHVaultCore",
            "label": "allowedUndervalueBps",
            "offset": 20,
            "slot": "0",
            "type": "t_uint16"
          }
        ],
        "numberOfBytes": "32"
      },
      "t_uint16": {
        "encoding": "inplace",
        "label": "uint16",
        "numberOfBytes": "2"
      },
      "t_uint256": {
        "encoding": "inplace",
        "label": "uint256",
        "numberOfBytes": "32"
      },
      "t_uint8": {
        "encoding": "inplace",
        "label": "uint8",
        "numberOfBytes": "1"
      }
    }
  }
}