{
  "abi": [
    {
      "constant": false,
      "inputs": [
        {
          "internalType": "string",
          "name": "symbol",
          "type": "string"
        },
        {
          "internalType": "uint256",
          "name": "_price",
          "type": "uint256"
        }
      ],
      "name": "setPrice",
      "outputs": [],
      "payable": false,
      "stateMutability": "nonpayable",
      "type": "function"
    },
    {
      "constant": true,
      "inputs": [
        {
          "internalType": "string",
          "name": "symbol",
          "type": "string"
        }
      ],
      "name": "price",
      "outputs": [
        {
          "internalType": "uint256",
          "name": "",
          "type": "uint256"
        }
      ],
      "payable": false,
      "stateMutability": "view",
      "type": "function"
    }
  ],
  "address": "0xE5643a899C0CA15B5aAb5a01D39741B425F5Bcc0",
  "args": [],
  "solcInputHash": "0x106f1d594943344bc506942209ac603203682944d5f8bc8bf0eeabe8acf0c4b5",
  "bytecode": "0x608060405234801561001057600080fd5b50610217806100206000396000f3fe608060405234801561001057600080fd5b50600436106100365760003560e01c806322e011921461003b578063fe2c6198146100be575b600080fd5b6100bc6004803603604081101561005157600080fd5b810190808035906020019064010000000081111561006e57600080fd5b82018360208201111561008057600080fd5b803590602001918460018302840111640100000000831117156100a257600080fd5b90919293919293908035906020019092919050505061014b565b005b610135600480360360208110156100d457600080fd5b81019080803590602001906401000000008111156100f157600080fd5b82018360208201111561010357600080fd5b8035906020019184600183028401116401000000008311171561012557600080fd5b9091929391929390505050610196565b6040518082815260200191505060405180910390f35b80600080858560405160200180838380828437808301925050509250505060405160208183030381529060405280519060200120815260200190815260200160002081905550505050565b600080600084846040516020018083838082843780830192505050925050506040516020818303038152906040528051906020012081526020019081526020016000205490509291505056fea265627a7a72315820cdb629bf601be7e652319d0178cd4be19465a959b29ade5c5c2e6e81e6cd39e464736f6c634300050b0032",
  "devdoc": {
    "methods": {
      "price(string)": {
        "details": "returns the asset price in USD, 6 decimal digits. Compatible with the Open Price Feed."
      },
      "setPrice(string,uint256)": {
        "details": "sets the price of the asset in USD, 6 decimal digits."
      }
    }
  },
  "userdoc": {
    "methods": {},
    "notice": "All prices in six digit USD."
  },
  "gasEstimates": {
    "creation": {
      "codeDepositCost": "107000",
      "executionCost": "153",
      "totalCost": "107153"
    },
    "external": {
      "price(string)": "infinite",
      "setPrice(string,uint256)": "infinite"
    }
  }
}