{
  "_format": "hh-sol-artifact-1",
  "contractName": "LiquidityReward",
  "sourceName": "contracts/liquidity/LiquidityReward.sol",
  "abi": [
    {
      "constant": true,
      "inputs": [],
      "name": "endBlock",
      "outputs": [
        {
          "internalType": "uint256",
          "name": "",
          "type": "uint256"
        }
      ],
      "payable": false,
      "stateMutability": "view",
      "type": "function"
    },
    {
      "constant": true,
      "inputs": [],
      "name": "governor",
      "outputs": [
        {
          "internalType": "address",
          "name": "",
          "type": "address"
        }
      ],
      "payable": false,
      "stateMutability": "view",
      "type": "function"
    },
    {
      "constant": true,
      "inputs": [],
      "name": "pool",
      "outputs": [
        {
          "internalType": "contract IERC20",
          "name": "lpToken",
          "type": "address"
        },
        {
          "internalType": "uint256",
          "name": "lastRewardBlock",
          "type": "uint256"
        },
        {
          "internalType": "uint256",
          "name": "accRewardPerShare",
          "type": "uint256"
        }
      ],
      "payable": false,
      "stateMutability": "view",
      "type": "function"
    },
    {
      "constant": false,
      "inputs": [],
      "name": "stopCampaign",
      "outputs": [],
      "payable": false,
      "stateMutability": "nonpayable",
      "type": "function"
    },
    {
      "constant": true,
      "inputs": [
        {
          "internalType": "address",
          "name": "",
          "type": "address"
        }
      ],
      "name": "userInfo",
      "outputs": [
        {
          "internalType": "uint256",
          "name": "amount",
          "type": "uint256"
        },
        {
          "internalType": "int256",
          "name": "rewardDebt",
          "type": "int256"
        }
      ],
      "payable": false,
      "stateMutability": "view",
      "type": "function"
    },
    {
      "constant": true,
      "inputs": [],
      "name": "reward",
      "outputs": [
        {
          "internalType": "contract IERC20",
          "name": "",
          "type": "address"
        }
      ],
      "payable": false,
      "stateMutability": "view",
      "type": "function"
    },
    {
      "constant": true,
      "inputs": [
        {
          "internalType": "address",
          "name": "_user",
          "type": "address"
        }
      ],
      "name": "pendingRewards",
      "outputs": [
        {
          "internalType": "uint256",
          "name": "",
          "type": "uint256"
        }
      ],
      "payable": false,
      "stateMutability": "view",
      "type": "function"
    },
    {
      "constant": false,
      "inputs": [
        {
          "internalType": "uint256",
          "name": "_amount",
          "type": "uint256"
        },
        {
          "internalType": "bool",
          "name": "_claim",
          "type": "bool"
        }
      ],
      "name": "withdraw",
      "outputs": [],
      "payable": false,
      "stateMutability": "nonpayable",
      "type": "function"
    },
    {
      "constant": false,
      "inputs": [
        {
          "internalType": "contract IERC20",
          "name": "_reward",
          "type": "address"
        },
        {
          "internalType": "contract IERC20",
          "name": "_lpToken",
          "type": "address"
        }
      ],
      "name": "initialize",
      "outputs": [],
      "payable": false,
      "stateMutability": "nonpayable",
      "type": "function"
    },
    {
      "constant": false,
      "inputs": [],
      "name": "claim",
      "outputs": [],
      "payable": false,
      "stateMutability": "nonpayable",
      "type": "function"
    },
    {
      "constant": true,
      "inputs": [],
      "name": "totalOutstandingRewards",
      "outputs": [
        {
          "internalType": "uint256",
          "name": "",
          "type": "uint256"
        }
      ],
      "payable": false,
      "stateMutability": "view",
      "type": "function"
    },
    {
      "constant": false,
      "inputs": [],
      "name": "claimGovernance",
      "outputs": [],
      "payable": false,
      "stateMutability": "nonpayable",
      "type": "function"
    },
    {
      "constant": true,
      "inputs": [
        {
          "internalType": "address",
          "name": "_account",
          "type": "address"
        }
      ],
      "name": "balanceOf",
      "outputs": [
        {
          "internalType": "uint256",
          "name": "",
          "type": "uint256"
        }
      ],
      "payable": false,
      "stateMutability": "view",
      "type": "function"
    },
    {
      "constant": true,
      "inputs": [],
      "name": "totalRewardDebt",
      "outputs": [
        {
          "internalType": "int256",
          "name": "",
          "type": "int256"
        }
      ],
      "payable": false,
      "stateMutability": "view",
      "type": "function"
    },
    {
      "constant": false,
      "inputs": [
        {
          "internalType": "uint256",
          "name": "_rewardPerBlock",
          "type": "uint256"
        },
        {
          "internalType": "uint256",
          "name": "_startBlock",
          "type": "uint256"
        },
        {
          "internalType": "uint256",
          "name": "_numBlocks",
          "type": "uint256"
        }
      ],
      "name": "startCampaign",
      "outputs": [],
      "payable": false,
      "stateMutability": "nonpayable",
      "type": "function"
    },
    {
      "constant": true,
      "inputs": [],
      "name": "rewardPerBlock",
      "outputs": [
        {
          "internalType": "uint256",
          "name": "",
          "type": "uint256"
        }
      ],
      "payable": false,
      "stateMutability": "view",
      "type": "function"
    },
    {
      "constant": false,
      "inputs": [
        {
          "internalType": "uint256",
          "name": "_amount",
          "type": "uint256"
        }
      ],
      "name": "deposit",
      "outputs": [],
      "payable": false,
      "stateMutability": "nonpayable",
      "type": "function"
    },
    {
      "constant": false,
      "inputs": [],
      "name": "doUpdatePool",
      "outputs": [],
      "payable": false,
      "stateMutability": "nonpayable",
      "type": "function"
    },
    {
      "constant": true,
      "inputs": [],
      "name": "isGovernor",
      "outputs": [
        {
          "internalType": "bool",
          "name": "",
          "type": "bool"
        }
      ],
      "payable": false,
      "stateMutability": "view",
      "type": "function"
    },
    {
      "constant": false,
      "inputs": [
        {
          "internalType": "address",
          "name": "_newGovernor",
          "type": "address"
        }
      ],
      "name": "transferGovernance",
      "outputs": [],
      "payable": false,
      "stateMutability": "nonpayable",
      "type": "function"
    },
    {
      "constant": true,
      "inputs": [],
      "name": "campaignActive",
      "outputs": [
        {
          "internalType": "bool",
          "name": "",
          "type": "bool"
        }
      ],
      "payable": false,
      "stateMutability": "view",
      "type": "function"
    },
    {
      "constant": false,
      "inputs": [],
      "name": "exit",
      "outputs": [],
      "payable": false,
      "stateMutability": "nonpayable",
      "type": "function"
    },
    {
      "anonymous": false,
      "inputs": [
        {
          "indexed": false,
          "internalType": "uint256",
          "name": "rewardRate",
          "type": "uint256"
        },
        {
          "indexed": false,
          "internalType": "uint256",
          "name": "startBlock",
          "type": "uint256"
        },
        {
          "indexed": false,
          "internalType": "uint256",
          "name": "endBlock",
          "type": "uint256"
        }
      ],
      "name": "CampaignStarted",
      "type": "event"
    },
    {
      "anonymous": false,
      "inputs": [
        {
          "indexed": false,
          "internalType": "uint256",
          "name": "endBlock",
          "type": "uint256"
        }
      ],
      "name": "CampaignStopped",
      "type": "event"
    },
    {
      "anonymous": false,
      "inputs": [
        {
          "indexed": true,
          "internalType": "address",
          "name": "user",
          "type": "address"
        },
        {
          "indexed": false,
          "internalType": "uint256",
          "name": "amount",
          "type": "uint256"
        }
      ],
      "name": "Deposit",
      "type": "event"
    },
    {
      "anonymous": false,
      "inputs": [
        {
          "indexed": true,
          "internalType": "address",
          "name": "user",
          "type": "address"
        },
        {
          "indexed": false,
          "internalType": "uint256",
          "name": "amount",
          "type": "uint256"
        }
      ],
      "name": "Withdraw",
      "type": "event"
    },
    {
      "anonymous": false,
      "inputs": [
        {
          "indexed": true,
          "internalType": "address",
          "name": "user",
          "type": "address"
        },
        {
          "indexed": false,
          "internalType": "uint256",
          "name": "amount",
          "type": "uint256"
        }
      ],
      "name": "Claim",
      "type": "event"
    },
    {
      "anonymous": false,
      "inputs": [
        {
          "indexed": true,
          "internalType": "address",
          "name": "previousGovernor",
          "type": "address"
        },
        {
          "indexed": true,
          "internalType": "address",
          "name": "newGovernor",
          "type": "address"
        }
      ],
      "name": "PendingGovernorshipTransfer",
      "type": "event"
    },
    {
      "anonymous": false,
      "inputs": [
        {
          "indexed": true,
          "internalType": "address",
          "name": "previousGovernor",
          "type": "address"
        },
        {
          "indexed": true,
          "internalType": "address",
          "name": "newGovernor",
          "type": "address"
        }
      ],
      "name": "GovernorshipTransferred",
      "type": "event"
    }
  ],
  "bytecode": "0x6080604052610016336001600160e01b0361006c16565b6100276001600160e01b0361007e16565b6001600160a01b031660006001600160a01b03167fc7c0c772add429241571afb3805861fb3cfa2af374534088b76cdb4325a87e9a60405160405180910390a3610091565b60008051602061187983398151915255565b6000805160206118798339815191525490565b6117d9806100a06000396000f3fe608060405234801561001057600080fd5b50600436106101425760003560e01c80635d36b190116100b8578063b6b55f251161007c578063b6b55f25146102f6578063bdbe7bcc14610313578063c7af33521461031b578063d38bfff414610337578063e8b89dd81461035d578063e9fad8ee1461036557610142565b80635d36b1901461028f57806370a082311461029757806383bb3877146102bd57806384e66188146102c55780638ae39cac146102ee57610142565b8063228cb7331161010a578063228cb733146101fe57806331d7a2621461020657806338d074361461022c578063485cc955146102515780634e71d92d1461027f5780634ec39c6b1461028757610142565b8063083c6323146101475780630c340a241461016157806316f0115b1461018557806316f1bc22146101b55780631959a002146101bf575b600080fd5b61014f61036d565b60408051918252519081900360200190f35b610169610373565b604080516001600160a01b039092168252519081900360200190f35b61018d610383565b604080516001600160a01b039094168452602084019290925282820152519081900360600190f35b6101bd61039b565b005b6101e5600480360360208110156101d557600080fd5b50356001600160a01b0316610433565b6040805192835260208301919091528051918290030190f35b61016961044c565b61014f6004803603602081101561021c57600080fd5b50356001600160a01b031661045b565b6101bd6004803603604081101561024257600080fd5b50803590602001351515610485565b6101bd6004803603604081101561026757600080fd5b506001600160a01b03813581169160200135166104a4565b6101bd6105d1565b61014f61065d565b6101bd61076b565b61014f600480360360208110156102ad57600080fd5b50356001600160a01b03166107cd565b61014f6107e8565b6101bd600480360360608110156102db57600080fd5b50803590602081013590604001356107ee565b61014f610a61565b6101bd6004803603602081101561030c57600080fd5b5035610a67565b6101bd610b17565b610323610b1f565b604080519115158252519081900360200190f35b6101bd6004803603602081101561034d57600080fd5b50356001600160a01b0316610b42565b610323610beb565b6101bd610c03565b603a5481565b600061037d610c24565b90505b90565b6035546036546037546001600160a01b039092169183565b6103a3610b1f565b6103f1576040805162461bcd60e51b815260206004820152601a60248201527921b0b63632b91034b9903737ba103a34329023b7bb32b93737b960311b604482015290519081900360640190fd5b6103f9610c49565b43603a81905560408051918252517fe5a1604ff203dc76ea2a38c81e2ae18d95023f1ed66e4520e4f7f96e4c5daf289181900360200190a1565b6039602052600090815260409020805460019091015482565b6033546001600160a01b031681565b6001600160a01b038116600090815260396020526040812061047c81610d3f565b9150505b919050565b33600090815260396020526040902061049f818484610e3c565b505050565b6104ac610b1f565b6104fa576040805162461bcd60e51b815260206004820152601a60248201527921b0b63632b91034b9903737ba103a34329023b7bb32b93737b960311b604482015290519081900360640190fd5b600054610100900460ff16806105135750610513610fb9565b80610521575060005460ff16155b61055c5760405162461bcd60e51b815260040180806020018281038252602e8152602001806116cb602e913960400191505060405180910390fd5b600054610100900460ff16158015610587576000805460ff1961ff0019909116610100171660011790555b603380546001600160a01b038086166001600160a01b031992831617909255603580549285169290911691909117905543603655801561049f576000805461ff0019169055505050565b336000908152603960205260408120906105ea82610d3f565b905080156106595760408051828152905133917f47cee97cb7acd717b3c0aa1435d004cd5b3c8c57d70dbceb4e4458bbd60e39d4919081900360200190a2600182018054820190556038805482019055603354819061049f906001600160a01b0316338363ffffffff610fbf16565b5050565b603554604080516370a0823160e01b8152306004820152905160009283926001600160a01b03909116916370a0823191602480820192602092909190829003018186803b1580156106ad57600080fd5b505afa1580156106c1573d6000803e3d6000fd5b505050506040513d60208110156106d757600080fd5b5051603654909150431180156106ec57508015155b156107635760006106fc43611011565b905060006107156034548361105790919063ffffffff16565b60375490915061073b61072e838663ffffffff6110b916565b829063ffffffff6110ee16565b9050610758610750828663ffffffff61114816565b60385461115d565b945050505050610380565b600091505090565b610773611192565b6001600160a01b0316336001600160a01b0316146107c25760405162461bcd60e51b81526004018080602001828103825260308152602001806117756030913960400191505060405180910390fd5b6107cb336111b7565b565b6001600160a01b031660009081526039602052604090205490565b60385481565b6107f6610b1f565b610844576040805162461bcd60e51b815260206004820152601a60248201527921b0b63632b91034b9903737ba103a34329023b7bb32b93737b960311b604482015290519081900360640190fd5b61084c610c49565b603554604080516370a0823160e01b815230600482015290516000926108dd92610750926001600160a01b03909216916370a0823191602480820192602092909190829003018186803b1580156108a257600080fd5b505afa1580156108b6573d6000803e3d6000fd5b505050506040513d60208110156108cc57600080fd5b50516037549063ffffffff61114816565b90506108ff816108f3868563ffffffff61105716565b9063ffffffff6110ee16565b603354604080516370a0823160e01b815230600482015290516001600160a01b03909216916370a0823191602480820192602092909190829003018186803b15801561094a57600080fd5b505afa15801561095e573d6000803e3d6000fd5b505050506040513d602081101561097457600080fd5b505110156109b35760405162461bcd60e51b81526004018080602001828103825260238152602001806117526023913960400191505060405180910390fd5b82806109bc5750435b438110156109fb5760405162461bcd60e51b815260040180806020018281038252602f8152602001806116f9602f913960400191505060405180910390fd5b610a0b818463ffffffff6110ee16565b603a81905560368290556034869055604080518781526020810184905280820192909252517febf1de9a3812ad9812ce8f49a7be58ac0942a4d51620e4edbebbdad60a26a61c9181900360600190a15050505050565b60345481565b336000908152603960205260409020610a7e610c49565b8115610659578054610a96908363ffffffff6110ee16565b8155603754600090610aaf90849063ffffffff61114816565b60018301805482019055603880548201905560408051858152905191925033917fe1fffcc4923d04b559f4d29a8bfc6cda04eb5b0d3c460751c2402c5c5cc9109c9181900360200190a260355461049f906001600160a01b031633308663ffffffff61126216565b6107cb610c49565b6000610b29610c24565b6001600160a01b0316336001600160a01b031614905090565b610b4a610b1f565b610b98576040805162461bcd60e51b815260206004820152601a60248201527921b0b63632b91034b9903737ba103a34329023b7bb32b93737b960311b604482015290519081900360640190fd5b610ba1816112c2565b806001600160a01b0316610bb3610c24565b6001600160a01b03167fa39cc5eb22d0f34d8beaefee8a3f17cc229c1a1d1ef87a5ad47313487b1c4f0d60405160405180910390a350565b600043603a5411801561037d57505060365443101590565b3360009081526039602052604090208054610c219082906001610e3c565b50565b7f7bea13895fa79d2831e0a9e28edede30099005a50d652d8957cf8a607ee6ca4a5490565b60365443111580610c5e5750603654603a5411155b15610c68576107cb565b603554604080516370a0823160e01b815230600482015290516000926001600160a01b0316916370a08231916024808301926020929190829003018186803b158015610cb357600080fd5b505afa158015610cc7573d6000803e3d6000fd5b505050506040513d6020811015610cdd57600080fd5b5051905080610cf05750436036556107cb565b6000610d0d603454610d0143611011565b9063ffffffff61105716565b90506000610d33610d24838563ffffffff6110b916565b6037549063ffffffff6110ee16565b60375550504360365550565b60375460365460009190431115610e1c57603554604080516370a0823160e01b815230600482015290516000926001600160a01b0316916370a08231916024808301926020929190829003018186803b158015610d9b57600080fd5b505afa158015610daf573d6000803e3d6000fd5b505050506040513d6020811015610dc557600080fd5b505190508015610e1a576000610dda43611011565b90506000610df36034548361105790919063ffffffff16565b9050610e15610e08828563ffffffff6110b916565b859063ffffffff6110ee16565b935050505b505b825461047c90610e32908363ffffffff61114816565b846001015461115d565b8254821115610e87576040805162461bcd60e51b815260206004820152601260248201527177697468647261773a206f766572666c6f7760701b604482015290519081900360640190fd5b610e8f610c49565b603754600090610ea690849063ffffffff61114816565b60000390508115610f34576037548454600091610ed691610ecc9163ffffffff61114816565b866001015461115d565b90508015610f3257603354610efb906001600160a01b0316338363ffffffff610fbf16565b60408051828152905133917f47cee97cb7acd717b3c0aa1435d004cd5b3c8c57d70dbceb4e4458bbd60e39d4919081900360200190a25b015b8215610f6b578354610f4c908463ffffffff6112e616565b8455603554610f6b906001600160a01b0316338563ffffffff610fbf16565b60018401805482019055603880548201905560408051848152905133917f884edad9ce6fa2440d8a54cc123490eb96d2768479d49ff9c7366125a9424364919081900360200190a250505050565b303b1590565b604080516001600160a01b038416602482015260448082018490528251808303909101815260649091019091526020810180516001600160e01b031663a9059cbb60e01b17905261049f908490611328565b603654603a546000919081111561102c576000915050610480565b61104f81603a54851061104157603a54611043565b845b9063ffffffff6112e616565b915050610480565b600082611066575060006110b3565b8282028284828161107357fe5b04146110b05760405162461bcd60e51b81526004018080602001828103825260218152602001806116aa6021913960400191505060405180910390fd5b90505b92915050565b6000806110d484670de0b6b3a764000063ffffffff61105716565b90506110e6818463ffffffff6114e016565b949350505050565b6000828201838110156110b0576040805162461bcd60e51b815260206004820152601b60248201527f536166654d6174683a206164646974696f6e206f766572666c6f770000000000604482015290519081900360640190fd5b60006110b08383670de0b6b3a7640000611522565b6000808212156111825761117b83600084900363ffffffff6110ee16565b90506110b3565b6110b0838363ffffffff6112e616565b7f44c4d30b2eaad5130ad70c3ba6972730566f3e6359ab83e800d905c61b1c51db5490565b6001600160a01b038116611212576040805162461bcd60e51b815260206004820152601a60248201527f4e657720476f7665726e6f722069732061646472657373283029000000000000604482015290519081900360640190fd5b806001600160a01b0316611224610c24565b6001600160a01b03167fc7c0c772add429241571afb3805861fb3cfa2af374534088b76cdb4325a87e9a60405160405180910390a3610c2181611550565b604080516001600160a01b0385811660248301528416604482015260648082018490528251808303909101815260849091019091526020810180516001600160e01b03166323b872dd60e01b1790526112bc908590611328565b50505050565b7f44c4d30b2eaad5130ad70c3ba6972730566f3e6359ab83e800d905c61b1c51db55565b60006110b083836040518060400160405280601e81526020017f536166654d6174683a207375627472616374696f6e206f766572666c6f770000815250611574565b61133a826001600160a01b031661160b565b61138b576040805162461bcd60e51b815260206004820152601f60248201527f5361666545524332303a2063616c6c20746f206e6f6e2d636f6e747261637400604482015290519081900360640190fd5b60006060836001600160a01b0316836040518082805190602001908083835b602083106113c95780518252601f1990920191602091820191016113aa565b6001836020036101000a0380198251168184511680821785525050505050509050019150506000604051808303816000865af19150503d806000811461142b576040519150601f19603f3d011682016040523d82523d6000602084013e611430565b606091505b509150915081611487576040805162461bcd60e51b815260206004820181905260248201527f5361666545524332303a206c6f772d6c6576656c2063616c6c206661696c6564604482015290519081900360640190fd5b8051156112bc578080602001905160208110156114a357600080fd5b50516112bc5760405162461bcd60e51b815260040180806020018281038252602a815260200180611728602a913960400191505060405180910390fd5b60006110b083836040518060400160405280601a81526020017f536166654d6174683a206469766973696f6e206279207a65726f000000000000815250611644565b600080611535858563ffffffff61105716565b9050611547818463ffffffff6114e016565b95945050505050565b7f7bea13895fa79d2831e0a9e28edede30099005a50d652d8957cf8a607ee6ca4a55565b600081848411156116035760405162461bcd60e51b81526004018080602001828103825283818151815260200191508051906020019080838360005b838110156115c85781810151838201526020016115b0565b50505050905090810190601f1680156115f55780820380516001836020036101000a031916815260200191505b509250505060405180910390fd5b505050900390565b6000813f7fc5d2460186f7233c927e7db2dcc703c0e500b653ca82273b7bfad8045d85a4708181148015906110e6575050151592915050565b600081836116935760405162461bcd60e51b81526020600482018181528351602484015283519092839260449091019190850190808383600083156115c85781810151838201526020016115b0565b50600083858161169f57fe5b049594505050505056fe536166654d6174683a206d756c7469706c69636174696f6e206f766572666c6f77436f6e747261637420696e7374616e63652068617320616c7265616479206265656e20696e697469616c697a6564737461727443616d706169676e3a205f7374617274426c6f636b2063616e277420626520696e2074686520706173745361666545524332303a204552433230206f7065726174696f6e20646964206e6f742073756363656564737461727443616d706169676e3a20696e73756666696369656e7420726577617264734f6e6c79207468652070656e64696e6720476f7665726e6f722063616e20636f6d706c6574652074686520636c61696da265627a7a72315820b1e7e682e22187d41407435391a5d7af21b711ed6a97d3799e65cde4b4cde79c64736f6c634300050b00327bea13895fa79d2831e0a9e28edede30099005a50d652d8957cf8a607ee6ca4a",
  "linkReferences": {},
  "deployedLinkReferences": {}
}