{
  "address": "0x4F424C6f066ae74784f3595A3A84923ad36d5471",
  "abi": [
    {
      "anonymous": false,
      "inputs": [
        {
          "indexed": true,
          "internalType": "address",
          "name": "_asset",
          "type": "address"
        },
        {
          "indexed": false,
          "internalType": "address",
          "name": "_pToken",
          "type": "address"
        },
        {
          "indexed": false,
          "internalType": "uint256",
          "name": "_amount",
          "type": "uint256"
        }
      ],
      "name": "Deposit",
      "type": "event"
    },
    {
      "anonymous": false,
      "inputs": [
        {
          "indexed": true,
          "internalType": "address",
          "name": "previousGovernor",
          "type": "address"
        },
        {
          "indexed": true,
          "internalType": "address",
          "name": "newGovernor",
          "type": "address"
        }
      ],
      "name": "GovernorshipTransferred",
      "type": "event"
    },
    {
      "anonymous": false,
      "inputs": [
        {
          "indexed": false,
          "internalType": "address",
          "name": "_oldHarvesterAddress",
          "type": "address"
        },
        {
          "indexed": false,
          "internalType": "address",
          "name": "_newHarvesterAddress",
          "type": "address"
        }
      ],
      "name": "HarvesterAddressesUpdated",
      "type": "event"
    },
    {
      "anonymous": false,
      "inputs": [
        {
          "indexed": true,
          "internalType": "address",
          "name": "_asset",
          "type": "address"
        },
        {
          "indexed": false,
          "internalType": "address",
          "name": "_pToken",
          "type": "address"
        }
      ],
      "name": "PTokenAdded",
      "type": "event"
    },
    {
      "anonymous": false,
      "inputs": [
        {
          "indexed": true,
          "internalType": "address",
          "name": "_asset",
          "type": "address"
        },
        {
          "indexed": false,
          "internalType": "address",
          "name": "_pToken",
          "type": "address"
        }
      ],
      "name": "PTokenRemoved",
      "type": "event"
    },
    {
      "anonymous": false,
      "inputs": [
        {
          "indexed": true,
          "internalType": "address",
          "name": "previousGovernor",
          "type": "address"
        },
        {
          "indexed": true,
          "internalType": "address",
          "name": "newGovernor",
          "type": "address"
        }
      ],
      "name": "PendingGovernorshipTransfer",
      "type": "event"
    },
    {
      "anonymous": false,
      "inputs": [
        {
          "indexed": false,
          "internalType": "address[]",
          "name": "_oldAddresses",
          "type": "address[]"
        },
        {
          "indexed": false,
          "internalType": "address[]",
          "name": "_newAddresses",
          "type": "address[]"
        }
      ],
      "name": "RewardTokenAddressesUpdated",
      "type": "event"
    },
    {
      "anonymous": false,
      "inputs": [
        {
          "indexed": false,
          "internalType": "address",
          "name": "recipient",
          "type": "address"
        },
        {
          "indexed": false,
          "internalType": "address",
          "name": "rewardToken",
          "type": "address"
        },
        {
          "indexed": false,
          "internalType": "uint256",
          "name": "amount",
          "type": "uint256"
        }
      ],
      "name": "RewardTokenCollected",
      "type": "event"
    },
    {
      "anonymous": false,
      "inputs": [
        {
          "indexed": true,
          "internalType": "address",
          "name": "_asset",
          "type": "address"
        },
        {
          "indexed": false,
          "internalType": "address",
          "name": "_pToken",
          "type": "address"
        },
        {
          "indexed": false,
          "internalType": "uint256",
          "name": "_amount",
          "type": "uint256"
        }
      ],
      "name": "Withdrawal",
      "type": "event"
    },
    {
      "inputs": [],
      "name": "_deprecated_rewardLiquidationThreshold",
      "outputs": [
        {
          "internalType": "uint256",
          "name": "",
          "type": "uint256"
        }
      ],
      "stateMutability": "view",
      "type": "function"
    },
    {
      "inputs": [],
      "name": "_deprecated_rewardTokenAddress",
      "outputs": [
        {
          "internalType": "address",
          "name": "",
          "type": "address"
        }
      ],
      "stateMutability": "view",
      "type": "function"
    },
    {
      "inputs": [
        {
          "internalType": "address",
          "name": "",
          "type": "address"
        }
      ],
      "name": "assetToPToken",
      "outputs": [
        {
          "internalType": "address",
          "name": "",
          "type": "address"
        }
      ],
      "stateMutability": "view",
      "type": "function"
    },
    {
      "inputs": [
        {
          "internalType": "address",
          "name": "_asset",
          "type": "address"
        }
      ],
      "name": "checkBalance",
      "outputs": [
        {
          "internalType": "uint256",
          "name": "balance",
          "type": "uint256"
        }
      ],
      "stateMutability": "view",
      "type": "function"
    },
    {
      "inputs": [],
      "name": "claimGovernance",
      "outputs": [],
      "stateMutability": "nonpayable",
      "type": "function"
    },
    {
      "inputs": [],
      "name": "collectRewardTokens",
      "outputs": [],
      "stateMutability": "nonpayable",
      "type": "function"
    },
    {
      "inputs": [
        {
          "internalType": "address",
          "name": "_asset",
          "type": "address"
        },
        {
          "internalType": "uint256",
          "name": "_amount",
          "type": "uint256"
        }
      ],
      "name": "deposit",
      "outputs": [],
      "stateMutability": "nonpayable",
      "type": "function"
    },
    {
      "inputs": [],
      "name": "depositAll",
      "outputs": [],
      "stateMutability": "nonpayable",
      "type": "function"
    },
    {
      "inputs": [],
      "name": "getRewardTokenAddresses",
      "outputs": [
        {
          "internalType": "address[]",
          "name": "",
          "type": "address[]"
        }
      ],
      "stateMutability": "view",
      "type": "function"
    },
    {
      "inputs": [],
      "name": "governor",
      "outputs": [
        {
          "internalType": "address",
          "name": "",
          "type": "address"
        }
      ],
      "stateMutability": "view",
      "type": "function"
    },
    {
      "inputs": [],
      "name": "harvesterAddress",
      "outputs": [
        {
          "internalType": "address",
          "name": "",
          "type": "address"
        }
      ],
      "stateMutability": "view",
      "type": "function"
    },
    {
      "inputs": [],
      "name": "incentivesController",
      "outputs": [
        {
          "internalType": "contract IAaveIncentivesController",
          "name": "",
          "type": "address"
        }
      ],
      "stateMutability": "view",
      "type": "function"
    },
    {
      "inputs": [
        {
          "internalType": "address",
          "name": "_platformAddress",
          "type": "address"
        },
        {
          "internalType": "address",
          "name": "_vaultAddress",
          "type": "address"
        },
        {
          "internalType": "address[]",
          "name": "_rewardTokenAddresses",
          "type": "address[]"
        },
        {
          "internalType": "address[]",
          "name": "_assets",
          "type": "address[]"
        },
        {
          "internalType": "address[]",
          "name": "_pTokens",
          "type": "address[]"
        },
        {
          "internalType": "address",
          "name": "_incentivesAddress",
          "type": "address"
        },
        {
          "internalType": "address",
          "name": "_stkAaveAddress",
          "type": "address"
        }
      ],
      "name": "initialize",
      "outputs": [],
      "stateMutability": "nonpayable",
      "type": "function"
    },
    {
      "inputs": [
        {
          "internalType": "address",
          "name": "_platformAddress",
          "type": "address"
        },
        {
          "internalType": "address",
          "name": "_vaultAddress",
          "type": "address"
        },
        {
          "internalType": "address[]",
          "name": "_rewardTokenAddresses",
          "type": "address[]"
        },
        {
          "internalType": "address[]",
          "name": "_assets",
          "type": "address[]"
        },
        {
          "internalType": "address[]",
          "name": "_pTokens",
          "type": "address[]"
        }
      ],
      "name": "initialize",
      "outputs": [],
      "stateMutability": "nonpayable",
      "type": "function"
    },
    {
      "inputs": [],
      "name": "isGovernor",
      "outputs": [
        {
          "internalType": "bool",
          "name": "",
          "type": "bool"
        }
      ],
      "stateMutability": "view",
      "type": "function"
    },
    {
      "inputs": [],
      "name": "platformAddress",
      "outputs": [
        {
          "internalType": "address",
          "name": "",
          "type": "address"
        }
      ],
      "stateMutability": "view",
      "type": "function"
    },
    {
      "inputs": [
        {
          "internalType": "uint256",
          "name": "_assetIndex",
          "type": "uint256"
        }
      ],
      "name": "removePToken",
      "outputs": [],
      "stateMutability": "nonpayable",
      "type": "function"
    },
    {
      "inputs": [
        {
          "internalType": "uint256",
          "name": "",
          "type": "uint256"
        }
      ],
      "name": "rewardTokenAddresses",
      "outputs": [
        {
          "internalType": "address",
          "name": "",
          "type": "address"
        }
      ],
      "stateMutability": "view",
      "type": "function"
    },
    {
      "inputs": [],
      "name": "safeApproveAllTokens",
      "outputs": [],
      "stateMutability": "nonpayable",
      "type": "function"
    },
    {
      "inputs": [
        {
          "internalType": "address",
          "name": "_harvesterAddress",
          "type": "address"
        }
      ],
      "name": "setHarvesterAddress",
      "outputs": [],
      "stateMutability": "nonpayable",
      "type": "function"
    },
    {
      "inputs": [
        {
          "internalType": "address",
          "name": "_asset",
          "type": "address"
        },
        {
          "internalType": "address",
          "name": "_pToken",
          "type": "address"
        }
      ],
      "name": "setPTokenAddress",
      "outputs": [],
      "stateMutability": "nonpayable",
      "type": "function"
    },
    {
      "inputs": [
        {
          "internalType": "address[]",
          "name": "_rewardTokenAddresses",
          "type": "address[]"
        }
      ],
      "name": "setRewardTokenAddresses",
      "outputs": [],
      "stateMutability": "nonpayable",
      "type": "function"
    },
    {
      "inputs": [],
      "name": "stkAave",
      "outputs": [
        {
          "internalType": "contract IAaveStakedToken",
          "name": "",
          "type": "address"
        }
      ],
      "stateMutability": "view",
      "type": "function"
    },
    {
      "inputs": [
        {
          "internalType": "address",
          "name": "_asset",
          "type": "address"
        }
      ],
      "name": "supportsAsset",
      "outputs": [
        {
          "internalType": "bool",
          "name": "",
          "type": "bool"
        }
      ],
      "stateMutability": "view",
      "type": "function"
    },
    {
      "inputs": [
        {
          "internalType": "address",
          "name": "_newGovernor",
          "type": "address"
        }
      ],
      "name": "transferGovernance",
      "outputs": [],
      "stateMutability": "nonpayable",
      "type": "function"
    },
    {
      "inputs": [
        {
          "internalType": "address",
          "name": "_asset",
          "type": "address"
        },
        {
          "internalType": "uint256",
          "name": "_amount",
          "type": "uint256"
        }
      ],
      "name": "transferToken",
      "outputs": [],
      "stateMutability": "nonpayable",
      "type": "function"
    },
    {
      "inputs": [],
      "name": "vaultAddress",
      "outputs": [
        {
          "internalType": "address",
          "name": "",
          "type": "address"
        }
      ],
      "stateMutability": "view",
      "type": "function"
    },
    {
      "inputs": [
        {
          "internalType": "address",
          "name": "_recipient",
          "type": "address"
        },
        {
          "internalType": "address",
          "name": "_asset",
          "type": "address"
        },
        {
          "internalType": "uint256",
          "name": "_amount",
          "type": "uint256"
        }
      ],
      "name": "withdraw",
      "outputs": [],
      "stateMutability": "nonpayable",
      "type": "function"
    },
    {
      "inputs": [],
      "name": "withdrawAll",
      "outputs": [],
      "stateMutability": "nonpayable",
      "type": "function"
    }
  ],
  "transactionHash": "0xdea1a23f6c753e4dd21614d73e2b377ad858af4fe85d35ba2ffc7d672d23718e",
  "args": [],
  "solcInputHash": "0d2296c1822a9318e7d4eca895a31e55",
  "bytecode": "0x608060405234801561001057600080fd5b506100283360008051602062002e3583398151915255565b60008051602062002e35833981519152546040516001600160a01b03909116906000907fc7c0c772add429241571afb3805861fb3cfa2af374534088b76cdb4325a87e9a908290a3612db580620000806000396000f3fe608060405234801561001057600080fd5b50600436106101cf5760003560e01c8063853828b611610104578063c2e1e3f4116100a2578063dbe55e5611610071578063dbe55e56146103db578063de5f6268146103ee578063f6ca71b0146103f6578063f817bc631461040b57600080fd5b8063c2e1e3f41461039a578063c7af3352146103ad578063d38bfff4146103b5578063d9caed12146103c857600080fd5b806396d538bb116100de57806396d538bb1461032e578063aa388af614610341578063ad1728cb1461037f578063af1df2551461038757600080fd5b8063853828b6146103005780639136616a146103085780639688d2fc1461031b57600080fd5b806347e7ef24116101715780635f5152261161014b5780635f515226146102a657806367c7066c146102c75780637b2d9b2c146102da5780637e2d3a15146102ed57600080fd5b806347e7ef24146102835780635a063f63146102965780635d36b1901461029e57600080fd5b80631072cbea116101ad5780631072cbea146102375780632e6552011461024a578063430bf08a1461025d578063476062a41461027057600080fd5b80630c340a24146101d45780630ed57b3a146101f95780630fc3b4c41461020e575b600080fd5b6101dc610414565b6040516001600160a01b0390911681526020015b60405180910390f35b61020c6102073660046126fe565b610431565b005b6101dc61021c3660046126c4565b6035602052600090815260409020546001600160a01b031681565b61020c610245366004612917565b61046c565b6037546101dc906001600160a01b031681565b6034546101dc906001600160a01b031681565b609e546101dc906001600160a01b031681565b61020c610291366004612917565b6104ac565b61020c61051f565b61020c610c7c565b6102b96102b43660046126c4565b610d22565b6040519081526020016101f0565b6039546101dc906001600160a01b031681565b6101dc6102e83660046129a7565b610daf565b61020c6102fb3660046127f6565b610dd9565b61020c610f17565b61020c6103163660046129a7565b611240565b61020c610329366004612737565b61140b565b61020c61033c366004612943565b611514565b61036f61034f3660046126c4565b6001600160a01b0390811660009081526035602052604090205416151590565b60405190151581526020016101f0565b61020c61163a565b609d546101dc906001600160a01b031681565b61020c6103a83660046126c4565b611718565b61036f611797565b61020c6103c33660046126c4565b6117c8565b61020c6103d63660046128d6565b61186c565b6033546101dc906001600160a01b031681565b61020c611abe565b6103fe611c10565b6040516101f09190612a39565b6102b960385481565b600061042c600080516020612d608339815191525490565b905090565b610439611797565b61045e5760405162461bcd60e51b815260040161045590612bab565b60405180910390fd5b6104688282611c72565b5050565b610474611797565b6104905760405162461bcd60e51b815260040161045590612bab565b61046861049b610414565b6001600160a01b0384169083611dd7565b6034546001600160a01b031633146104d65760405162461bcd60e51b815260040161045590612b74565b600080516020612d40833981519152805460028114156105085760405162461bcd60e51b815260040161045590612c30565b600282556105168484611e3a565b50600190555050565b6039546001600160a01b031633146105795760405162461bcd60e51b815260206004820152601b60248201527f43616c6c6572206973206e6f74207468652048617276657374657200000000006044820152606401610455565b600080516020612d40833981519152805460028114156105ab5760405162461bcd60e51b815260040161045590612c30565b60028255609e546001600160a01b03166105c457610c75565b609e5460405163091030c360e01b81523060048201526000916001600160a01b03169063091030c390602401602060405180830381600087803b15801561060a57600080fd5b505af115801561061e573d6000803e3d6000fd5b505050506040513d601f19601f8201168201806040525081019061064291906129c0565b90506000609e60009054906101000a90046001600160a01b03166001600160a01b03166372b49d636040518163ffffffff1660e01b8152600401602060405180830381600087803b15801561069657600080fd5b505af11580156106aa573d6000803e3d6000fd5b505050506040513d601f19601f820116820180604052508101906106ce91906129c0565b6106d89083612c58565b90506000609e60009054906101000a90046001600160a01b03166001600160a01b031663359c4a966040518163ffffffff1660e01b8152600401602060405180830381600087803b15801561072c57600080fd5b505af1158015610740573d6000803e3d6000fd5b505050506040513d601f19601f8201168201806040525081019061076491906129c0565b61076e9083612c58565b9050814211801561077f5750804211155b1561094e57609e546040516370a0823160e01b81523060048201526000916001600160a01b0316906370a0823190602401602060405180830381600087803b1580156107ca57600080fd5b505af11580156107de573d6000803e3d6000fd5b505050506040513d601f19601f8201168201806040525081019061080291906129c0565b609e546040516301e9a69560e41b8152306004820152602481018390529192506001600160a01b031690631e9a695090604401600060405180830381600087803b15801561084f57600080fd5b505af1158015610863573d6000803e3d6000fd5b505050506000603a60008154811061087d5761087d612cfe565b6000918252602090912001546040516370a0823160e01b81523060048201526001600160a01b03909116906370a082319060240160206040518083038186803b1580156108c957600080fd5b505afa1580156108dd573d6000803e3d6000fd5b505050506040513d601f19601f8201168201806040525081019061090191906129c0565b9050801561094b57603954603a805461094b926001600160a01b031691849160009061092f5761092f612cfe565b6000918252602090912001546001600160a01b03169190611dd7565b50505b8142118061095a575082155b15610c715760365460009067ffffffffffffffff81111561097d5761097d612d14565b6040519080825280602002602001820160405280156109a6578160200160208202803683370190505b50905060005b603654811015610a22576109e6603682815481106109cc576109cc612cfe565b6000918252602090912001546001600160a01b0316611f55565b8282815181106109f8576109f8612cfe565b6001600160a01b039092166020928302919091019091015280610a1a81612cb7565b9150506109ac565b50609d546040516345accf9360e11b81526000916001600160a01b031690638b599f2690610a569085903090600401612a4c565b60206040518083038186803b158015610a6e57600080fd5b505afa158015610a82573d6000803e3d6000fd5b505050506040513d601f19601f82011682018060405250810190610aa691906129c0565b90508015610b8157609d54604051633111e7b360e01b81526000916001600160a01b031690633111e7b390610ae390869086903090600401612a76565b602060405180830381600087803b158015610afd57600080fd5b505af1158015610b11573d6000803e3d6000fd5b505050506040513d601f19601f82011682018060405250810190610b3591906129c0565b9050818114610b7f5760405162461bcd60e51b8152602060048201526016602482015275414156452072657761726420646966666572656e636560501b6044820152606401610455565b505b609e546040516370a0823160e01b81523060048201526000916001600160a01b0316906370a0823190602401602060405180830381600087803b158015610bc757600080fd5b505af1158015610bdb573d6000803e3d6000fd5b505050506040513d601f19601f82011682018060405250810190610bff91906129c0565b1115610c6e57609e60009054906101000a90046001600160a01b03166001600160a01b031663787a08a66040518163ffffffff1660e01b8152600401600060405180830381600087803b158015610c5557600080fd5b505af1158015610c69573d6000803e3d6000fd5b505050505b50505b5050505b5060019055565b7f44c4d30b2eaad5130ad70c3ba6972730566f3e6359ab83e800d905c61b1c51db546001600160a01b0316336001600160a01b031614610d175760405162461bcd60e51b815260206004820152603060248201527f4f6e6c79207468652070656e64696e6720476f7665726e6f722063616e20636f60448201526f6d706c6574652074686520636c61696d60801b6064820152608401610455565b610d2033611fbd565b565b600080610d2e83611f55565b6040516370a0823160e01b81523060048201529091506001600160a01b038216906370a082319060240160206040518083038186803b158015610d7057600080fd5b505afa158015610d84573d6000803e3d6000fd5b505050506040513d601f19601f82011682018060405250810190610da891906129c0565b9392505050565b603a8181548110610dbf57600080fd5b6000918252602090912001546001600160a01b0316905081565b610de1611797565b610dfd5760405162461bcd60e51b815260040161045590612bab565b600054610100900460ff1680610e16575060005460ff16155b610e325760405162461bcd60e51b815260040161045590612be2565b600054610100900460ff16158015610e54576000805461ffff19166101011790555b609d80546001600160a01b038086166001600160a01b031992831617909255609e8054928516929091169190911790556040805160208089028281018201909352888252610ef8928e928e928e928e92918e918e9182919085019084908082843760009201919091525050604080516020808f0282810182019093528e82529093508e92508d91829185019084908082843760009201919091525061208192505050565b8015610f0a576000805461ff00191690555b5050505050505050505050565b6034546001600160a01b0316331480610f485750610f33610414565b6001600160a01b0316336001600160a01b0316145b610fa05760405162461bcd60e51b815260206004820152602360248201527f43616c6c6572206973206e6f7420746865205661756c74206f7220476f7665726044820152623737b960e91b6064820152608401610455565b600080516020612d4083398151915280546002811415610fd25760405162461bcd60e51b815260040161045590612c30565b6002825560005b60365481101561123857600060368281548110610ff857610ff8612cfe565b6000918252602082200154603680546001600160a01b03909216935061102891859081106109cc576109cc612cfe565b6040516370a0823160e01b81523060048201529091506000906001600160a01b038316906370a082319060240160206040518083038186803b15801561106d57600080fd5b505afa158015611081573d6000803e3d6000fd5b505050506040513d601f19601f820116820180604052508101906110a591906129c0565b905080156112225760006110b761216a565b604051631a4ca37b60e21b81526001600160a01b0386811660048301526024820185905230604483015291909116906369328dec90606401602060405180830381600087803b15801561110957600080fd5b505af115801561111d573d6000803e3d6000fd5b505050506040513d601f19601f8201168201806040525081019061114191906129c0565b905081811461118c5760405162461bcd60e51b8152602060048201526017602482015276088d2c840dcdee840eed2e8d0c8e4c2ee40cadcdeeaced604b1b6044820152606401610455565b6034546040516370a0823160e01b8152306004820152611220916001600160a01b0390811691908716906370a082319060240160206040518083038186803b1580156111d757600080fd5b505afa1580156111eb573d6000803e3d6000fd5b505050506040513d601f19601f8201168201806040525081019061120f91906129c0565b6001600160a01b0387169190611dd7565b505b505050808061123090612cb7565b915050610fd9565b505060019055565b611248611797565b6112645760405162461bcd60e51b815260040161045590612bab565b60365481106112a55760405162461bcd60e51b815260206004820152600d60248201526c092dcecc2d8d2c840d2dcc8caf609b1b6044820152606401610455565b6000603682815481106112ba576112ba612cfe565b60009182526020808320909101546001600160a01b039081168084526035909252604090922054603654919350909116906112f790600190612c70565b831015611379576036805461130e90600190612c70565b8154811061131e5761131e612cfe565b600091825260209091200154603680546001600160a01b03909216918590811061134a5761134a612cfe565b9060005260206000200160006101000a8154816001600160a01b0302191690836001600160a01b031602179055505b603680548061138a5761138a612ce8565b60008281526020808220600019908401810180546001600160a01b031990811690915593019093556001600160a01b038581168083526035855260409283902080549094169093559051908416815290917f16b7600acff27e39a8a96056b3d533045298de927507f5c1d97e4accde60488c910160405180910390a2505050565b611413611797565b61142f5760405162461bcd60e51b815260040161045590612bab565b600054610100900460ff1680611448575060005460ff16155b6114645760405162461bcd60e51b815260040161045590612be2565b600054610100900460ff16158015611486576000805461ffff19166101011790555b6114f78989898989898080602002602001604051908101604052809392919081815260200183836020028082843760009201919091525050604080516020808d0282810182019093528c82529093508c92508b91829185019084908082843760009201919091525061208192505050565b8015611509576000805461ff00191690555b505050505050505050565b61151c611797565b6115385760405162461bcd60e51b815260040161045590612bab565b60005b818110156115ec57600083838381811061155757611557612cfe565b905060200201602081019061156c91906126c4565b6001600160a01b031614156115da5760405162461bcd60e51b815260206004820152602e60248201527f43616e206e6f742073657420616e20656d70747920616464726573732061732060448201526d30903932bbb0b932103a37b5b2b760911b6064820152608401610455565b806115e481612cb7565b91505061153b565b507f04c0b9649497d316554306e53678d5f5f5dbc3a06f97dec13ff4cfe98b986bbc603a838360405161162193929190612aa9565b60405180910390a1611635603a83836125f5565b505050565b611642611797565b61165e5760405162461bcd60e51b815260040161045590612bab565b600080516020612d40833981519152805460028114156116905760405162461bcd60e51b815260040161045590612c30565b60028255600061169e61216a565b905060005b60365481101561170e576000603682815481106116c2576116c2612cfe565b60009182526020822001546001600160a01b031691506116e59082908590612250565b6116fb6001600160a01b03821684600019612250565b508061170681612cb7565b9150506116a3565b5050600182555050565b611720611797565b61173c5760405162461bcd60e51b815260040161045590612bab565b603980546001600160a01b0319166001600160a01b0383169081179091556040805182815260208101929092527fe48386b84419f4d36e0f96c10cc3510b6fb1a33795620c5098b22472bbe90796910160405180910390a150565b60006117af600080516020612d608339815191525490565b6001600160a01b0316336001600160a01b031614905090565b6117d0611797565b6117ec5760405162461bcd60e51b815260040161045590612bab565b611814817f44c4d30b2eaad5130ad70c3ba6972730566f3e6359ab83e800d905c61b1c51db55565b806001600160a01b0316611834600080516020612d608339815191525490565b6001600160a01b03167fa39cc5eb22d0f34d8beaefee8a3f17cc229c1a1d1ef87a5ad47313487b1c4f0d60405160405180910390a350565b6034546001600160a01b031633146118965760405162461bcd60e51b815260040161045590612b74565b600080516020612d40833981519152805460028114156118c85760405162461bcd60e51b815260040161045590612c30565b600282556000831161191c5760405162461bcd60e51b815260206004820152601760248201527f4d75737420776974686472617720736f6d657468696e670000000000000000006044820152606401610455565b6001600160a01b03851661196b5760405162461bcd60e51b8152602060048201526016602482015275135d5cdd081cdc1958da599e481c9958da5c1a595b9d60521b6044820152606401610455565b836001600160a01b03167f2717ead6b9200dd235aad468c9809ea400fe33ac69b5bfaa6d3e90fc922b639861199f86611f55565b604080516001600160a01b039092168252602082018790520160405180910390a260006119ca61216a565b604051631a4ca37b60e21b81526001600160a01b0387811660048301526024820187905230604483015291909116906369328dec90606401602060405180830381600087803b158015611a1c57600080fd5b505af1158015611a30573d6000803e3d6000fd5b505050506040513d601f19601f82011682018060405250810190611a5491906129c0565b9050838114611a9f5760405162461bcd60e51b8152602060048201526017602482015276088d2c840dcdee840eed2e8d0c8e4c2ee40cadcdeeaced604b1b6044820152606401610455565b611ab36001600160a01b0386168786611dd7565b505060019055505050565b6034546001600160a01b03163314611ae85760405162461bcd60e51b815260040161045590612b74565b600080516020612d4083398151915280546002811415611b1a5760405162461bcd60e51b815260040161045590612c30565b6002825560005b60365481101561123857600060368281548110611b4057611b40612cfe565b6000918252602090912001546040516370a0823160e01b81523060048201526001600160a01b03909116906370a082319060240160206040518083038186803b158015611b8c57600080fd5b505afa158015611ba0573d6000803e3d6000fd5b505050506040513d601f19601f82011682018060405250810190611bc491906129c0565b90508015611bfd57611bfd60368381548110611be257611be2612cfe565b6000918252602090912001546001600160a01b031682611e3a565b5080611c0881612cb7565b915050611b21565b6060603a805480602002602001604051908101604052809291908181526020018280548015611c6857602002820191906000526020600020905b81546001600160a01b03168152600190910190602001808311611c4a575b5050505050905090565b6001600160a01b038281166000908152603560205260409020541615611ccf5760405162461bcd60e51b81526020600482015260126024820152711c151bdad95b88185b1c9958591e481cd95d60721b6044820152606401610455565b6001600160a01b03821615801590611cef57506001600160a01b03811615155b611d2f5760405162461bcd60e51b8152602060048201526011602482015270496e76616c69642061646472657373657360781b6044820152606401610455565b6001600160a01b03828116600081815260356020908152604080832080549587166001600160a01b031996871681179091556036805460018101825594527f4a11f94e20a93c79f6ec743a1954ec4fc2c08429ae2122118bf234b2185c81b890930180549095168417909455925190815290917fef6485b84315f9b1483beffa32aae9a0596890395e3d7521f1c5fbb51790e765910160405180910390a26104688282612374565b6040516001600160a01b03831660248201526044810182905261163590849063a9059cbb60e01b906064015b60408051601f198184030181529190526020810180516001600160e01b03166001600160e01b0319909316929092179091526123ab565b60008111611e835760405162461bcd60e51b81526020600482015260166024820152754d757374206465706f73697420736f6d657468696e6760501b6044820152606401610455565b816001600160a01b03167f5548c837ab068cf56a2c2479df0882a4922fd203edb7517321831d95078c5f62611eb784611f55565b604080516001600160a01b039092168252602082018590520160405180910390a2611ee061216a565b60405163e8eda9df60e01b81526001600160a01b03848116600483015260248201849052306044830152605c6064830152919091169063e8eda9df90608401600060405180830381600087803b158015611f3957600080fd5b505af1158015611f4d573d6000803e3d6000fd5b505050505050565b6001600160a01b0380821660009081526035602052604081205490911680611fb75760405162461bcd60e51b815260206004820152601560248201527418551bdad95b88191bd95cc81b9bdd08195e1a5cdd605a1b6044820152606401610455565b92915050565b6001600160a01b0381166120135760405162461bcd60e51b815260206004820152601a60248201527f4e657720476f7665726e6f7220697320616464726573732830290000000000006044820152606401610455565b806001600160a01b0316612033600080516020612d608339815191525490565b6001600160a01b03167fc7c0c772add429241571afb3805861fb3cfa2af374534088b76cdb4325a87e9a60405160405180910390a361207e81600080516020612d6083398151915255565b50565b603380546001600160a01b038089166001600160a01b03199283161790925560348054928816929091169190911790556120bd603a85856125f5565b508151815181146121075760405162461bcd60e51b8152602060048201526014602482015273496e76616c696420696e7075742061727261797360601b6044820152606401610455565b60005b818110156121605761214e84828151811061212757612127612cfe565b602002602001015184838151811061214157612141612cfe565b6020026020010151611c72565b8061215881612cb7565b91505061210a565b5050505050505050565b600080603360009054906101000a90046001600160a01b03166001600160a01b0316630261bf8b6040518163ffffffff1660e01b815260040160206040518083038186803b1580156121bb57600080fd5b505afa1580156121cf573d6000803e3d6000fd5b505050506040513d601f19601f820116820180604052508101906121f391906126e1565b90506001600160a01b03811661224b5760405162461bcd60e51b815260206004820152601b60248201527f4c656e64696e6720706f6f6c20646f6573206e6f7420657869737400000000006044820152606401610455565b919050565b8015806122d95750604051636eb1769f60e11b81523060048201526001600160a01b03838116602483015284169063dd62ed3e9060440160206040518083038186803b15801561229f57600080fd5b505afa1580156122b3573d6000803e3d6000fd5b505050506040513d601f19601f820116820180604052508101906122d791906129c0565b155b6123445760405162461bcd60e51b815260206004820152603660248201527f5361666545524332303a20617070726f76652066726f6d206e6f6e2d7a65726f60448201527520746f206e6f6e2d7a65726f20616c6c6f77616e636560501b6064820152608401610455565b6040516001600160a01b03831660248201526044810182905261163590849063095ea7b360e01b90606401611e03565b600061237e61216a565b90506123956001600160a01b038416826000612250565b6116356001600160a01b03841682600019612250565b6000612400826040518060400160405280602081526020017f5361666545524332303a206c6f772d6c6576656c2063616c6c206661696c6564815250856001600160a01b031661247d9092919063ffffffff16565b805190915015611635578080602001905181019061241e9190612985565b6116355760405162461bcd60e51b815260206004820152602a60248201527f5361666545524332303a204552433230206f7065726174696f6e20646964206e6044820152691bdd081cdd58d8d9595960b21b6064820152608401610455565b606061248c8484600085612494565b949350505050565b6060824710156124f55760405162461bcd60e51b815260206004820152602660248201527f416464726573733a20696e73756666696369656e742062616c616e636520666f6044820152651c8818d85b1b60d21b6064820152608401610455565b843b6125435760405162461bcd60e51b815260206004820152601d60248201527f416464726573733a2063616c6c20746f206e6f6e2d636f6e74726163740000006044820152606401610455565b600080866001600160a01b0316858760405161255f9190612a1d565b60006040518083038185875af1925050503d806000811461259c576040519150601f19603f3d011682016040523d82523d6000602084013e6125a1565b606091505b50915091506125b18282866125bc565b979650505050505050565b606083156125cb575081610da8565b8251156125db5782518084602001fd5b8160405162461bcd60e51b81526004016104559190612b41565b828054828255906000526020600020908101928215612648579160200282015b828111156126485781546001600160a01b0319166001600160a01b03843516178255602090920191600190910190612615565b50612654929150612658565b5090565b5b808211156126545760008155600101612659565b803561224b81612d2a565b60008083601f84011261268a57600080fd5b50813567ffffffffffffffff8111156126a257600080fd5b6020830191508360208260051b85010111156126bd57600080fd5b9250929050565b6000602082840312156126d657600080fd5b8135610da881612d2a565b6000602082840312156126f357600080fd5b8151610da881612d2a565b6000806040838503121561271157600080fd5b823561271c81612d2a565b9150602083013561272c81612d2a565b809150509250929050565b60008060008060008060008060a0898b03121561275357600080fd5b883561275e81612d2a565b9750602089013561276e81612d2a565b9650604089013567ffffffffffffffff8082111561278b57600080fd5b6127978c838d01612678565b909850965060608b01359150808211156127b057600080fd5b6127bc8c838d01612678565b909650945060808b01359150808211156127d557600080fd5b506127e28b828c01612678565b999c989b5096995094979396929594505050565b60008060008060008060008060008060e08b8d03121561281557600080fd5b8a3561282081612d2a565b995060208b013561283081612d2a565b985060408b013567ffffffffffffffff8082111561284d57600080fd5b6128598e838f01612678565b909a50985060608d013591508082111561287257600080fd5b61287e8e838f01612678565b909850965060808d013591508082111561289757600080fd5b506128a48d828e01612678565b90955093506128b7905060a08c0161266d565b91506128c560c08c0161266d565b90509295989b9194979a5092959850565b6000806000606084860312156128eb57600080fd5b83356128f681612d2a565b9250602084013561290681612d2a565b929592945050506040919091013590565b6000806040838503121561292a57600080fd5b823561293581612d2a565b946020939093013593505050565b6000806020838503121561295657600080fd5b823567ffffffffffffffff81111561296d57600080fd5b61297985828601612678565b90969095509350505050565b60006020828403121561299757600080fd5b81518015158114610da857600080fd5b6000602082840312156129b957600080fd5b5035919050565b6000602082840312156129d257600080fd5b5051919050565b600081518084526020808501945080840160005b83811015612a125781516001600160a01b0316875295820195908201906001016129ed565b509495945050505050565b60008251612a2f818460208701612c87565b9190910192915050565b602081526000610da860208301846129d9565b604081526000612a5f60408301856129d9565b905060018060a01b03831660208301529392505050565b606081526000612a8960608301866129d9565b6020830194909452506001600160a01b0391909116604090910152919050565b6000604082016040835280865480835260608501915087600052602092508260002060005b82811015612af35781546001600160a01b031684529284019260019182019101612ace565b505050838103828501528481528590820160005b86811015612b35578235612b1a81612d2a565b6001600160a01b031682529183019190830190600101612b07565b50979650505050505050565b6020815260008251806020840152612b60816040850160208701612c87565b601f01601f19169190910160400192915050565b60208082526017908201527f43616c6c6572206973206e6f7420746865205661756c74000000000000000000604082015260600190565b6020808252601a908201527f43616c6c6572206973206e6f742074686520476f7665726e6f72000000000000604082015260600190565b6020808252602e908201527f496e697469616c697a61626c653a20636f6e747261637420697320616c72656160408201526d191e481a5b9a5d1a585b1a5e995960921b606082015260800190565b6020808252600e908201526d1499595b9d1c985b9d0818d85b1b60921b604082015260600190565b60008219821115612c6b57612c6b612cd2565b500190565b600082821015612c8257612c82612cd2565b500390565b60005b83811015612ca2578181015183820152602001612c8a565b83811115612cb1576000848401525b50505050565b6000600019821415612ccb57612ccb612cd2565b5060010190565b634e487b7160e01b600052601160045260246000fd5b634e487b7160e01b600052603160045260246000fd5b634e487b7160e01b600052603260045260246000fd5b634e487b7160e01b600052604160045260246000fd5b6001600160a01b038116811461207e57600080fdfe53bf423e48ed90e97d02ab0ebab13b2a235a6bfbe9c321847d5c175333ac45357bea13895fa79d2831e0a9e28edede30099005a50d652d8957cf8a607ee6ca4aa2646970667358221220ff929214198ce1b60e8f67eb426a61e89bb8935092be305112a315a0b827540e64736f6c634300080700337bea13895fa79d2831e0a9e28edede30099005a50d652d8957cf8a607ee6ca4a",
  "devdoc": {
    "kind": "dev",
    "methods": {
      "checkBalance(address)": {
        "details": "Get the total asset value held in the platform",
        "params": {
          "_asset": "Address of the asset"
        },
        "returns": {
          "balance": "   Total value of the asset in the platform"
        }
      },
      "claimGovernance()": {
        "details": "Claim Governance of the contract to a new account (`newGovernor`). Can only be called by the new Governor."
      },
      "collectRewardTokens()": {
        "details": "Collect stkAave, convert it to AAVE send to Vault."
      },
      "deposit(address,uint256)": {
        "details": "Deposit asset into Aave",
        "params": {
          "_amount": "Amount of asset to deposit",
          "_asset": "Address of asset to deposit"
        }
      },
      "depositAll()": {
        "details": "Deposit the entire balance of any supported asset into Aave"
      },
      "getRewardTokenAddresses()": {
        "details": "Get the reward token addresses.",
        "returns": {
          "_0": "address[] the reward token addresses."
        }
      },
      "governor()": {
        "details": "Returns the address of the current Governor."
      },
      "initialize(address,address,address[],address[],address[])": {
        "details": "Internal initialize function, to set up initial internal state",
        "params": {
          "_assets": "Addresses of initial supported assets",
          "_pTokens": "Platform Token corresponding addresses",
          "_platformAddress": "Generic platform address",
          "_rewardTokenAddresses": "Address of reward token for platform",
          "_vaultAddress": "Address of the Vault"
        }
      },
      "initialize(address,address,address[],address[],address[],address,address)": {
        "params": {
          "_assets": "Addresses of supported assets",
          "_incentivesAddress": "Address of the AAVE incentives controller",
          "_pTokens": "Platform Token corresponding addresses",
          "_platformAddress": "Address of the AAVE pool",
          "_rewardTokenAddresses": "Address of the AAVE token",
          "_stkAaveAddress": "Address of the stkAave contract",
          "_vaultAddress": "Address of the vault"
        }
      },
      "isGovernor()": {
        "details": "Returns true if the caller is the current Governor."
      },
      "removePToken(uint256)": {
        "details": "Remove a supported asset by passing its index.      This method can only be called by the system Governor",
        "params": {
          "_assetIndex": "Index of the asset to be removed"
        }
      },
      "safeApproveAllTokens()": {
        "details": "Approve the spending of all assets by their corresponding aToken,      if for some reason is it necessary."
      },
      "setHarvesterAddress(address)": {
        "details": "Set the reward token addresses.",
        "params": {
          "_harvesterAddress": "Address of the harvester"
        }
      },
      "setPTokenAddress(address,address)": {
        "details": "Provide support for asset by passing its pToken address.      This method can only be called by the system Governor",
        "params": {
          "_asset": "Address for the asset",
          "_pToken": "Address for the corresponding platform token"
        }
      },
      "setRewardTokenAddresses(address[])": {
        "details": "Set the reward token addresses.",
        "params": {
          "_rewardTokenAddresses": "Address array of the reward token"
        }
      },
      "supportsAsset(address)": {
        "details": "Retuns bool indicating whether asset is supported by strategy",
        "params": {
          "_asset": "Address of the asset"
        }
      },
      "transferGovernance(address)": {
        "details": "Transfers Governance of the contract to a new account (`newGovernor`). Can only be called by the current Governor. Must be claimed for this to complete",
        "params": {
          "_newGovernor": "Address of the new Governor"
        }
      },
      "transferToken(address,uint256)": {
        "details": "Transfer token to governor. Intended for recovering tokens stuck in      strategy contracts, i.e. mistaken sends.",
        "params": {
          "_amount": "Amount of the asset to transfer",
          "_asset": "Address for the asset"
        }
      },
      "withdraw(address,address,uint256)": {
        "details": "Withdraw asset from Aave",
        "params": {
          "_amount": "Amount of asset to withdraw",
          "_asset": "Address of asset to withdraw",
          "_recipient": "Address to receive withdrawn asset"
        }
      },
      "withdrawAll()": {
        "details": "Remove all assets from platform and send them to Vault contract."
      }
    },
    "version": 1
  },
  "userdoc": {
    "kind": "user",
    "methods": {
      "initialize(address,address,address[],address[],address[],address,address)": {
        "notice": "Initializer for setting up strategy internal state. This overrides the InitializableAbstractStrategy initializer as AAVE needs several extra addresses for the rewards program."
      }
    },
    "version": 1
  },
  "storageLayout": {
    "storage": [
      {
        "astId": 18714,
        "contract": "contracts/strategies/AaveStrategy.sol:AaveStrategy",
        "label": "initialized",
        "offset": 0,
        "slot": "0",
        "type": "t_bool"
      },
      {
        "astId": 18717,
        "contract": "contracts/strategies/AaveStrategy.sol:AaveStrategy",
        "label": "initializing",
        "offset": 1,
        "slot": "0",
        "type": "t_bool"
      },
      {
        "astId": 18757,
        "contract": "contracts/strategies/AaveStrategy.sol:AaveStrategy",
        "label": "______gap",
        "offset": 0,
        "slot": "1",
        "type": "t_array(t_uint256)50_storage"
      },
      {
        "astId": 18833,
        "contract": "contracts/strategies/AaveStrategy.sol:AaveStrategy",
        "label": "platformAddress",
        "offset": 0,
        "slot": "51",
        "type": "t_address"
      },
      {
        "astId": 18835,
        "contract": "contracts/strategies/AaveStrategy.sol:AaveStrategy",
        "label": "vaultAddress",
        "offset": 0,
        "slot": "52",
        "type": "t_address"
      },
      {
        "astId": 18839,
        "contract": "contracts/strategies/AaveStrategy.sol:AaveStrategy",
        "label": "assetToPToken",
        "offset": 0,
        "slot": "53",
        "type": "t_mapping(t_address,t_address)"
      },
      {
        "astId": 18842,
        "contract": "contracts/strategies/AaveStrategy.sol:AaveStrategy",
        "label": "assetsMapped",
        "offset": 0,
        "slot": "54",
        "type": "t_array(t_address)dyn_storage"
      },
      {
        "astId": 18844,
        "contract": "contracts/strategies/AaveStrategy.sol:AaveStrategy",
        "label": "_deprecated_rewardTokenAddress",
        "offset": 0,
        "slot": "55",
        "type": "t_address"
      },
      {
        "astId": 18846,
        "contract": "contracts/strategies/AaveStrategy.sol:AaveStrategy",
        "label": "_deprecated_rewardLiquidationThreshold",
        "offset": 0,
        "slot": "56",
        "type": "t_uint256"
      },
      {
        "astId": 18848,
        "contract": "contracts/strategies/AaveStrategy.sol:AaveStrategy",
        "label": "harvesterAddress",
        "offset": 0,
        "slot": "57",
        "type": "t_address"
      },
      {
        "astId": 18851,
        "contract": "contracts/strategies/AaveStrategy.sol:AaveStrategy",
        "label": "rewardTokenAddresses",
        "offset": 0,
        "slot": "58",
        "type": "t_array(t_address)dyn_storage"
      },
      {
        "astId": 18855,
        "contract": "contracts/strategies/AaveStrategy.sol:AaveStrategy",
        "label": "_reserved",
        "offset": 0,
        "slot": "59",
        "type": "t_array(t_int256)98_storage"
      },
      {
        "astId": 13755,
        "contract": "contracts/strategies/AaveStrategy.sol:AaveStrategy",
        "label": "incentivesController",
        "offset": 0,
        "slot": "157",
        "type": "t_contract(IAaveIncentivesController)16304"
      },
      {
        "astId": 13758,
        "contract": "contracts/strategies/AaveStrategy.sol:AaveStrategy",
        "label": "stkAave",
        "offset": 0,
        "slot": "158",
        "type": "t_contract(IAaveStakedToken)16341"
      }
    ],
    "types": {
      "t_address": {
        "encoding": "inplace",
        "label": "address",
        "numberOfBytes": "20"
      },
      "t_array(t_address)dyn_storage": {
        "base": "t_address",
        "encoding": "dynamic_array",
        "label": "address[]",
        "numberOfBytes": "32"
      },
      "t_array(t_int256)98_storage": {
        "base": "t_int256",
        "encoding": "inplace",
        "label": "int256[98]",
        "numberOfBytes": "3136"
      },
      "t_array(t_uint256)50_storage": {
        "base": "t_uint256",
        "encoding": "inplace",
        "label": "uint256[50]",
        "numberOfBytes": "1600"
      },
      "t_bool": {
        "encoding": "inplace",
        "label": "bool",
        "numberOfBytes": "1"
      },
      "t_contract(IAaveIncentivesController)16304": {
        "encoding": "inplace",
        "label": "contract IAaveIncentivesController",
        "numberOfBytes": "20"
      },
      "t_contract(IAaveStakedToken)16341": {
        "encoding": "inplace",
        "label": "contract IAaveStakedToken",
        "numberOfBytes": "20"
      },
      "t_int256": {
        "encoding": "inplace",
        "label": "int256",
        "numberOfBytes": "32"
      },
      "t_mapping(t_address,t_address)": {
        "encoding": "mapping",
        "key": "t_address",
        "label": "mapping(address => address)",
        "numberOfBytes": "32",
        "value": "t_address"
      },
      "t_uint256": {
        "encoding": "inplace",
        "label": "uint256",
        "numberOfBytes": "32"
      }
    }
  }
}