{
  "address": "0xA050eBE34Be464902F7E0F7F451f4B5253d57114",
  "abi": [
    {
      "anonymous": false,
      "inputs": [
        {
          "indexed": true,
          "internalType": "address",
          "name": "_asset",
          "type": "address"
        },
        {
          "indexed": false,
          "internalType": "address",
          "name": "_pToken",
          "type": "address"
        },
        {
          "indexed": false,
          "internalType": "uint256",
          "name": "_amount",
          "type": "uint256"
        }
      ],
      "name": "Deposit",
      "type": "event"
    },
    {
      "anonymous": false,
      "inputs": [
        {
          "indexed": true,
          "internalType": "address",
          "name": "previousGovernor",
          "type": "address"
        },
        {
          "indexed": true,
          "internalType": "address",
          "name": "newGovernor",
          "type": "address"
        }
      ],
      "name": "GovernorshipTransferred",
      "type": "event"
    },
    {
      "anonymous": false,
      "inputs": [
        {
          "indexed": true,
          "internalType": "address",
          "name": "_asset",
          "type": "address"
        },
        {
          "indexed": false,
          "internalType": "address",
          "name": "_pToken",
          "type": "address"
        }
      ],
      "name": "PTokenAdded",
      "type": "event"
    },
    {
      "anonymous": false,
      "inputs": [
        {
          "indexed": true,
          "internalType": "address",
          "name": "_asset",
          "type": "address"
        },
        {
          "indexed": false,
          "internalType": "address",
          "name": "_pToken",
          "type": "address"
        }
      ],
      "name": "PTokenRemoved",
      "type": "event"
    },
    {
      "anonymous": false,
      "inputs": [
        {
          "indexed": true,
          "internalType": "address",
          "name": "previousGovernor",
          "type": "address"
        },
        {
          "indexed": true,
          "internalType": "address",
          "name": "newGovernor",
          "type": "address"
        }
      ],
      "name": "PendingGovernorshipTransfer",
      "type": "event"
    },
    {
      "anonymous": false,
      "inputs": [
        {
          "indexed": false,
          "internalType": "uint256",
          "name": "_oldThreshold",
          "type": "uint256"
        },
        {
          "indexed": false,
          "internalType": "uint256",
          "name": "_newThreshold",
          "type": "uint256"
        }
      ],
      "name": "RewardLiquidationThresholdUpdated",
      "type": "event"
    },
    {
      "anonymous": false,
      "inputs": [
        {
          "indexed": false,
          "internalType": "address",
          "name": "_oldAddress",
          "type": "address"
        },
        {
          "indexed": false,
          "internalType": "address",
          "name": "_newAddress",
          "type": "address"
        }
      ],
      "name": "RewardTokenAddressUpdated",
      "type": "event"
    },
    {
      "anonymous": false,
      "inputs": [
        {
          "indexed": false,
          "internalType": "address",
          "name": "recipient",
          "type": "address"
        },
        {
          "indexed": false,
          "internalType": "uint256",
          "name": "amount",
          "type": "uint256"
        }
      ],
      "name": "RewardTokenCollected",
      "type": "event"
    },
    {
      "anonymous": false,
      "inputs": [
        {
          "indexed": true,
          "internalType": "address",
          "name": "_asset",
          "type": "address"
        },
        {
          "indexed": false,
          "internalType": "address",
          "name": "_pToken",
          "type": "address"
        },
        {
          "indexed": false,
          "internalType": "uint256",
          "name": "_amount",
          "type": "uint256"
        }
      ],
      "name": "Withdrawal",
      "type": "event"
    },
    {
      "inputs": [
        {
          "internalType": "address",
          "name": "",
          "type": "address"
        }
      ],
      "name": "assetToPToken",
      "outputs": [
        {
          "internalType": "address",
          "name": "",
          "type": "address"
        }
      ],
      "stateMutability": "view",
      "type": "function"
    },
    {
      "inputs": [
        {
          "internalType": "address",
          "name": "_asset",
          "type": "address"
        }
      ],
      "name": "checkBalance",
      "outputs": [
        {
          "internalType": "uint256",
          "name": "balance",
          "type": "uint256"
        }
      ],
      "stateMutability": "view",
      "type": "function"
    },
    {
      "inputs": [],
      "name": "claimGovernance",
      "outputs": [],
      "stateMutability": "nonpayable",
      "type": "function"
    },
    {
      "inputs": [],
      "name": "collectRewardToken",
      "outputs": [],
      "stateMutability": "nonpayable",
      "type": "function"
    },
    {
      "inputs": [
        {
          "internalType": "address",
          "name": "_asset",
          "type": "address"
        },
        {
          "internalType": "uint256",
          "name": "_amount",
          "type": "uint256"
        }
      ],
      "name": "deposit",
      "outputs": [],
      "stateMutability": "nonpayable",
      "type": "function"
    },
    {
      "inputs": [],
      "name": "depositAll",
      "outputs": [],
      "stateMutability": "nonpayable",
      "type": "function"
    },
    {
      "inputs": [],
      "name": "governor",
      "outputs": [
        {
          "internalType": "address",
          "name": "",
          "type": "address"
        }
      ],
      "stateMutability": "view",
      "type": "function"
    },
    {
      "inputs": [],
      "name": "incentivesController",
      "outputs": [
        {
          "internalType": "contract IAaveIncentivesController",
          "name": "",
          "type": "address"
        }
      ],
      "stateMutability": "view",
      "type": "function"
    },
    {
      "inputs": [
        {
          "internalType": "address",
          "name": "_platformAddress",
          "type": "address"
        },
        {
          "internalType": "address",
          "name": "_vaultAddress",
          "type": "address"
        },
        {
          "internalType": "address",
          "name": "_rewardTokenAddress",
          "type": "address"
        },
        {
          "internalType": "address[]",
          "name": "_assets",
          "type": "address[]"
        },
        {
          "internalType": "address[]",
          "name": "_pTokens",
          "type": "address[]"
        }
      ],
      "name": "initialize",
      "outputs": [],
      "stateMutability": "nonpayable",
      "type": "function"
    },
    {
      "inputs": [
        {
          "internalType": "address",
          "name": "_platformAddress",
          "type": "address"
        },
        {
          "internalType": "address",
          "name": "_vaultAddress",
          "type": "address"
        },
        {
          "internalType": "address",
          "name": "_rewardTokenAddress",
          "type": "address"
        },
        {
          "internalType": "address[]",
          "name": "_assets",
          "type": "address[]"
        },
        {
          "internalType": "address[]",
          "name": "_pTokens",
          "type": "address[]"
        },
        {
          "internalType": "address",
          "name": "_incentivesAddress",
          "type": "address"
        },
        {
          "internalType": "address",
          "name": "_stkAaveAddress",
          "type": "address"
        }
      ],
      "name": "initialize",
      "outputs": [],
      "stateMutability": "nonpayable",
      "type": "function"
    },
    {
      "inputs": [],
      "name": "isGovernor",
      "outputs": [
        {
          "internalType": "bool",
          "name": "",
          "type": "bool"
        }
      ],
      "stateMutability": "view",
      "type": "function"
    },
    {
      "inputs": [],
      "name": "platformAddress",
      "outputs": [
        {
          "internalType": "address",
          "name": "",
          "type": "address"
        }
      ],
      "stateMutability": "view",
      "type": "function"
    },
    {
      "inputs": [
        {
          "internalType": "uint256",
          "name": "_assetIndex",
          "type": "uint256"
        }
      ],
      "name": "removePToken",
      "outputs": [],
      "stateMutability": "nonpayable",
      "type": "function"
    },
    {
      "inputs": [],
      "name": "rewardLiquidationThreshold",
      "outputs": [
        {
          "internalType": "uint256",
          "name": "",
          "type": "uint256"
        }
      ],
      "stateMutability": "view",
      "type": "function"
    },
    {
      "inputs": [],
      "name": "rewardTokenAddress",
      "outputs": [
        {
          "internalType": "address",
          "name": "",
          "type": "address"
        }
      ],
      "stateMutability": "view",
      "type": "function"
    },
    {
      "inputs": [],
      "name": "safeApproveAllTokens",
      "outputs": [],
      "stateMutability": "nonpayable",
      "type": "function"
    },
    {
      "inputs": [
        {
          "internalType": "address",
          "name": "_asset",
          "type": "address"
        },
        {
          "internalType": "address",
          "name": "_pToken",
          "type": "address"
        }
      ],
      "name": "setPTokenAddress",
      "outputs": [],
      "stateMutability": "nonpayable",
      "type": "function"
    },
    {
      "inputs": [
        {
          "internalType": "uint256",
          "name": "_threshold",
          "type": "uint256"
        }
      ],
      "name": "setRewardLiquidationThreshold",
      "outputs": [],
      "stateMutability": "nonpayable",
      "type": "function"
    },
    {
      "inputs": [
        {
          "internalType": "address",
          "name": "_rewardTokenAddress",
          "type": "address"
        }
      ],
      "name": "setRewardTokenAddress",
      "outputs": [],
      "stateMutability": "nonpayable",
      "type": "function"
    },
    {
      "inputs": [],
      "name": "stkAave",
      "outputs": [
        {
          "internalType": "contract IAaveStakedToken",
          "name": "",
          "type": "address"
        }
      ],
      "stateMutability": "view",
      "type": "function"
    },
    {
      "inputs": [
        {
          "internalType": "address",
          "name": "_asset",
          "type": "address"
        }
      ],
      "name": "supportsAsset",
      "outputs": [
        {
          "internalType": "bool",
          "name": "",
          "type": "bool"
        }
      ],
      "stateMutability": "view",
      "type": "function"
    },
    {
      "inputs": [
        {
          "internalType": "address",
          "name": "_newGovernor",
          "type": "address"
        }
      ],
      "name": "transferGovernance",
      "outputs": [],
      "stateMutability": "nonpayable",
      "type": "function"
    },
    {
      "inputs": [
        {
          "internalType": "address",
          "name": "_asset",
          "type": "address"
        },
        {
          "internalType": "uint256",
          "name": "_amount",
          "type": "uint256"
        }
      ],
      "name": "transferToken",
      "outputs": [],
      "stateMutability": "nonpayable",
      "type": "function"
    },
    {
      "inputs": [],
      "name": "vaultAddress",
      "outputs": [
        {
          "internalType": "address",
          "name": "",
          "type": "address"
        }
      ],
      "stateMutability": "view",
      "type": "function"
    },
    {
      "inputs": [
        {
          "internalType": "address",
          "name": "_recipient",
          "type": "address"
        },
        {
          "internalType": "address",
          "name": "_asset",
          "type": "address"
        },
        {
          "internalType": "uint256",
          "name": "_amount",
          "type": "uint256"
        }
      ],
      "name": "withdraw",
      "outputs": [],
      "stateMutability": "nonpayable",
      "type": "function"
    },
    {
      "inputs": [],
      "name": "withdrawAll",
      "outputs": [],
      "stateMutability": "nonpayable",
      "type": "function"
    }
  ],
  "transactionHash": "0x6e0625a304eb808516817642baa0322cb2e7848875e440c1770d316db32b055c",
  "args": [],
  "solcInputHash": "ccb567132a247a63c1847ffd0d9bdf70",
  "bytecode": "0x608060405234801561001057600080fd5b5061002733600080516020612a7383398151915255565b600080516020612a73833981519152546040516001600160a01b03909116906000907fc7c0c772add429241571afb3805861fb3cfa2af374534088b76cdb4325a87e9a908290a36129f68061007d6000396000f3fe608060405234801561001057600080fd5b506004361061018e5760003560e01c8063853828b6116100de578063c7af335211610097578063d9caed1211610071578063d9caed1214610357578063dbe55e561461036a578063de5f62681461037d578063ee01555d1461038557600080fd5b8063c7af335214610329578063cd3b021214610331578063d38bfff41461034457600080fd5b8063853828b6146102a25780639136616a146102aa5780639a6acf20146102bd578063aa388af6146102d0578063ad1728cb1461030e578063af1df2551461031657600080fd5b8063430bf08a1161014b5780635653b414116101255780635653b4141461025d5780635d36b190146102745780635f5152261461027c578063790fcf9f1461028f57600080fd5b8063430bf08a14610224578063476062a41461023757806347e7ef241461024a57600080fd5b80630242241d146101935780630c340a241461019d5780630ed57b3a146101c25780630fc3b4c4146101d55780631072cbea146101fe578063125f9e3314610211575b600080fd5b61019b610398565b005b6101a5610a97565b6040516001600160a01b0390911681526020015b60405180910390f35b61019b6101d0366004612456565b610ab4565b6101a56101e336600461241c565b6035602052600090815260409020546001600160a01b031681565b61019b61020c366004612645565b610ae6565b6037546101a5906001600160a01b031681565b6034546101a5906001600160a01b031681565b609e546101a5906001600160a01b031681565b61019b610258366004612645565b610b26565b61026660385481565b6040519081526020016101b9565b61019b610b99565b61026661028a36600461241c565b610c3f565b61019b61029d36600461248f565b610ccc565b61019b610dd3565b61019b6102b8366004612693565b6110fc565b61019b6102cb36600461241c565b6112c7565b6102fe6102de36600461241c565b6001600160a01b0390811660009081526035602052604090205416151590565b60405190151581526020016101b9565b61019b611354565b609d546101a5906001600160a01b031681565b6102fe611432565b61019b61033f366004612693565b611463565b61019b61035236600461241c565b6114c8565b61019b610365366004612604565b61156c565b6033546101a5906001600160a01b031681565b61019b6117be565b61019b610393366004612537565b611910565b6034546001600160a01b031633146103cb5760405162461bcd60e51b81526004016103c2906127b5565b60405180910390fd5b600080516020612981833981519152805460028114156103fd5760405162461bcd60e51b81526004016103c290612871565b60028255609e546001600160a01b031661041657610a90565b609e5460405163091030c360e01b81523060048201526000916001600160a01b03169063091030c390602401602060405180830381600087803b15801561045c57600080fd5b505af1158015610470573d6000803e3d6000fd5b505050506040513d601f19601f8201168201806040525081019061049491906126ac565b90506000609e60009054906101000a90046001600160a01b03166001600160a01b03166372b49d636040518163ffffffff1660e01b8152600401602060405180830381600087803b1580156104e857600080fd5b505af11580156104fc573d6000803e3d6000fd5b505050506040513d601f19601f8201168201806040525081019061052091906126ac565b61052a9083612899565b90506000609e60009054906101000a90046001600160a01b03166001600160a01b031663359c4a966040518163ffffffff1660e01b8152600401602060405180830381600087803b15801561057e57600080fd5b505af1158015610592573d6000803e3d6000fd5b505050506040513d601f19601f820116820180604052508101906105b691906126ac565b6105c09083612899565b905081421180156105d15750804211155b1561076957609e546040516370a0823160e01b81523060048201526000916001600160a01b0316906370a0823190602401602060405180830381600087803b15801561061c57600080fd5b505af1158015610630573d6000803e3d6000fd5b505050506040513d601f19601f8201168201806040525081019061065491906126ac565b90506038548111156106c557609e546040516301e9a69560e41b8152306004820152602481018390526001600160a01b0390911690631e9a695090604401600060405180830381600087803b1580156106ac57600080fd5b505af11580156106c0573d6000803e3d6000fd5b505050505b6037546040516370a0823160e01b81523060048201526000916001600160a01b0316906370a082319060240160206040518083038186803b15801561070957600080fd5b505afa15801561071d573d6000803e3d6000fd5b505050506040513d601f19601f8201168201806040525081019061074191906126ac565b9050801561076657603454603754610766916001600160a01b03918216911683611a49565b50505b81421180610775575082155b15610a8c5760365460009067ffffffffffffffff81111561079857610798612955565b6040519080825280602002602001820160405280156107c1578160200160208202803683370190505b50905060005b60365481101561083d57610801603682815481106107e7576107e761293f565b6000918252602090912001546001600160a01b0316611ab1565b8282815181106108135761081361293f565b6001600160a01b039092166020928302919091019091015280610835816128f8565b9150506107c7565b50609d546040516345accf9360e11b81526000916001600160a01b031690638b599f26906108719085903090600401612725565b60206040518083038186803b15801561088957600080fd5b505afa15801561089d573d6000803e3d6000fd5b505050506040513d601f19601f820116820180604052508101906108c191906126ac565b9050801561099c57609d54604051633111e7b360e01b81526000916001600160a01b031690633111e7b3906108fe9086908690309060040161274f565b602060405180830381600087803b15801561091857600080fd5b505af115801561092c573d6000803e3d6000fd5b505050506040513d601f19601f8201168201806040525081019061095091906126ac565b905081811461099a5760405162461bcd60e51b8152602060048201526016602482015275414156452072657761726420646966666572656e636560501b60448201526064016103c2565b505b609e546040516370a0823160e01b81523060048201526000916001600160a01b0316906370a0823190602401602060405180830381600087803b1580156109e257600080fd5b505af11580156109f6573d6000803e3d6000fd5b505050506040513d601f19601f82011682018060405250810190610a1a91906126ac565b1115610a8957609e60009054906101000a90046001600160a01b03166001600160a01b031663787a08a66040518163ffffffff1660e01b8152600401600060405180830381600087803b158015610a7057600080fd5b505af1158015610a84573d6000803e3d6000fd5b505050505b50505b5050505b5060019055565b6000610aaf6000805160206129a18339815191525490565b905090565b610abc611432565b610ad85760405162461bcd60e51b81526004016103c2906127ec565b610ae28282611b19565b5050565b610aee611432565b610b0a5760405162461bcd60e51b81526004016103c2906127ec565b610ae2610b15610a97565b6001600160a01b0384169083611a49565b6034546001600160a01b03163314610b505760405162461bcd60e51b81526004016103c2906127b5565b60008051602061298183398151915280546002811415610b825760405162461bcd60e51b81526004016103c290612871565b60028255610b908484611c7e565b50600190555050565b7f44c4d30b2eaad5130ad70c3ba6972730566f3e6359ab83e800d905c61b1c51db546001600160a01b0316336001600160a01b031614610c345760405162461bcd60e51b815260206004820152603060248201527f4f6e6c79207468652070656e64696e6720476f7665726e6f722063616e20636f60448201526f6d706c6574652074686520636c61696d60801b60648201526084016103c2565b610c3d33611d99565b565b600080610c4b83611ab1565b6040516370a0823160e01b81523060048201529091506001600160a01b038216906370a082319060240160206040518083038186803b158015610c8d57600080fd5b505afa158015610ca1573d6000803e3d6000fd5b505050506040513d601f19601f82011682018060405250810190610cc591906126ac565b9392505050565b610cd4611432565b610cf05760405162461bcd60e51b81526004016103c2906127ec565b600054610100900460ff1680610d09575060005460ff16155b610d255760405162461bcd60e51b81526004016103c290612823565b600054610100900460ff16158015610d47576000805461ffff19166101011790555b610db788888888888080602002602001604051908101604052809392919081815260200183836020028082843760009201919091525050604080516020808c0282810182019093528b82529093508b92508a918291850190849080828437600092019190915250611e5d92505050565b8015610dc9576000805461ff00191690555b5050505050505050565b6034546001600160a01b0316331480610e045750610def610a97565b6001600160a01b0316336001600160a01b0316145b610e5c5760405162461bcd60e51b815260206004820152602360248201527f43616c6c6572206973206e6f7420746865205661756c74206f7220476f7665726044820152623737b960e91b60648201526084016103c2565b60008051602061298183398151915280546002811415610e8e5760405162461bcd60e51b81526004016103c290612871565b6002825560005b6036548110156110f457600060368281548110610eb457610eb461293f565b6000918252602082200154603680546001600160a01b039092169350610ee491859081106107e7576107e761293f565b6040516370a0823160e01b81523060048201529091506000906001600160a01b038316906370a082319060240160206040518083038186803b158015610f2957600080fd5b505afa158015610f3d573d6000803e3d6000fd5b505050506040513d601f19601f82011682018060405250810190610f6191906126ac565b905080156110de576000610f73611f45565b604051631a4ca37b60e21b81526001600160a01b0386811660048301526024820185905230604483015291909116906369328dec90606401602060405180830381600087803b158015610fc557600080fd5b505af1158015610fd9573d6000803e3d6000fd5b505050506040513d601f19601f82011682018060405250810190610ffd91906126ac565b90508181146110485760405162461bcd60e51b8152602060048201526017602482015276088d2c840dcdee840eed2e8d0c8e4c2ee40cadcdeeaced604b1b60448201526064016103c2565b6034546040516370a0823160e01b81523060048201526110dc916001600160a01b0390811691908716906370a082319060240160206040518083038186803b15801561109357600080fd5b505afa1580156110a7573d6000803e3d6000fd5b505050506040513d601f19601f820116820180604052508101906110cb91906126ac565b6001600160a01b0387169190611a49565b505b50505080806110ec906128f8565b915050610e95565b505060019055565b611104611432565b6111205760405162461bcd60e51b81526004016103c2906127ec565b60365481106111615760405162461bcd60e51b815260206004820152600d60248201526c092dcecc2d8d2c840d2dcc8caf609b1b60448201526064016103c2565b6000603682815481106111765761117661293f565b60009182526020808320909101546001600160a01b039081168084526035909252604090922054603654919350909116906111b3906001906128b1565b83101561123557603680546111ca906001906128b1565b815481106111da576111da61293f565b600091825260209091200154603680546001600160a01b0390921691859081106112065761120661293f565b9060005260206000200160006101000a8154816001600160a01b0302191690836001600160a01b031602179055505b603680548061124657611246612929565b60008281526020808220600019908401810180546001600160a01b031990811690915593019093556001600160a01b038581168083526035855260409283902080549094169093559051908416815290917f16b7600acff27e39a8a96056b3d533045298de927507f5c1d97e4accde60488c910160405180910390a2505050565b6112cf611432565b6112eb5760405162461bcd60e51b81526004016103c2906127ec565b603754604080516001600160a01b03928316815291831660208301527f6000690cf6fd1e69830cc1142bc52655402f4a58db681849f61c3c8fb322ff8a910160405180910390a1603780546001600160a01b0319166001600160a01b0392909216919091179055565b61135c611432565b6113785760405162461bcd60e51b81526004016103c2906127ec565b600080516020612981833981519152805460028114156113aa5760405162461bcd60e51b81526004016103c290612871565b6002825560006113b8611f45565b905060005b603654811015611428576000603682815481106113dc576113dc61293f565b60009182526020822001546001600160a01b031691506113ff908290859061202b565b6114156001600160a01b0382168460001961202b565b5080611420816128f8565b9150506113bd565b5050600182555050565b600061144a6000805160206129a18339815191525490565b6001600160a01b0316336001600160a01b031614905090565b61146b611432565b6114875760405162461bcd60e51b81526004016103c2906127ec565b60385460408051918252602082018390527f01538952e8f491e3569a11bf3935ca2fa917ea85ec938dac52e696fbb76d8cc6910160405180910390a1603855565b6114d0611432565b6114ec5760405162461bcd60e51b81526004016103c2906127ec565b611514817f44c4d30b2eaad5130ad70c3ba6972730566f3e6359ab83e800d905c61b1c51db55565b806001600160a01b03166115346000805160206129a18339815191525490565b6001600160a01b03167fa39cc5eb22d0f34d8beaefee8a3f17cc229c1a1d1ef87a5ad47313487b1c4f0d60405160405180910390a350565b6034546001600160a01b031633146115965760405162461bcd60e51b81526004016103c2906127b5565b600080516020612981833981519152805460028114156115c85760405162461bcd60e51b81526004016103c290612871565b600282556000831161161c5760405162461bcd60e51b815260206004820152601760248201527f4d75737420776974686472617720736f6d657468696e6700000000000000000060448201526064016103c2565b6001600160a01b03851661166b5760405162461bcd60e51b8152602060048201526016602482015275135d5cdd081cdc1958da599e481c9958da5c1a595b9d60521b60448201526064016103c2565b836001600160a01b03167f2717ead6b9200dd235aad468c9809ea400fe33ac69b5bfaa6d3e90fc922b639861169f86611ab1565b604080516001600160a01b039092168252602082018790520160405180910390a260006116ca611f45565b604051631a4ca37b60e21b81526001600160a01b0387811660048301526024820187905230604483015291909116906369328dec90606401602060405180830381600087803b15801561171c57600080fd5b505af1158015611730573d6000803e3d6000fd5b505050506040513d601f19601f8201168201806040525081019061175491906126ac565b905083811461179f5760405162461bcd60e51b8152602060048201526017602482015276088d2c840dcdee840eed2e8d0c8e4c2ee40cadcdeeaced604b1b60448201526064016103c2565b6117b36001600160a01b0386168786611a49565b505060019055505050565b6034546001600160a01b031633146117e85760405162461bcd60e51b81526004016103c2906127b5565b6000805160206129818339815191528054600281141561181a5760405162461bcd60e51b81526004016103c290612871565b6002825560005b6036548110156110f4576000603682815481106118405761184061293f565b6000918252602090912001546040516370a0823160e01b81523060048201526001600160a01b03909116906370a082319060240160206040518083038186803b15801561188c57600080fd5b505afa1580156118a0573d6000803e3d6000fd5b505050506040513d601f19601f820116820180604052508101906118c491906126ac565b905080156118fd576118fd603683815481106118e2576118e261293f565b6000918252602090912001546001600160a01b031682611c7e565b5080611908816128f8565b915050611821565b611918611432565b6119345760405162461bcd60e51b81526004016103c2906127ec565b600054610100900460ff168061194d575060005460ff16155b6119695760405162461bcd60e51b81526004016103c290612823565b600054610100900460ff1615801561198b576000805461ffff19166101011790555b609d80546001600160a01b038086166001600160a01b031992831617909255609e8054928516929091169190911790556040805160208089028281018201909352888252611a2b928d928d928d928d918d91829185019084908082843760009201919091525050604080516020808e0282810182019093528d82529093508d92508c918291850190849080828437600092019190915250611e5d92505050565b8015611a3d576000805461ff00191690555b50505050505050505050565b6040516001600160a01b038316602482015260448101829052611aac90849063a9059cbb60e01b906064015b60408051601f198184030181529190526020810180516001600160e01b03166001600160e01b03199093169290921790915261214f565b505050565b6001600160a01b0380821660009081526035602052604081205490911680611b135760405162461bcd60e51b815260206004820152601560248201527418551bdad95b88191bd95cc81b9bdd08195e1a5cdd605a1b60448201526064016103c2565b92915050565b6001600160a01b038281166000908152603560205260409020541615611b765760405162461bcd60e51b81526020600482015260126024820152711c151bdad95b88185b1c9958591e481cd95d60721b60448201526064016103c2565b6001600160a01b03821615801590611b9657506001600160a01b03811615155b611bd65760405162461bcd60e51b8152602060048201526011602482015270496e76616c69642061646472657373657360781b60448201526064016103c2565b6001600160a01b03828116600081815260356020908152604080832080549587166001600160a01b031996871681179091556036805460018101825594527f4a11f94e20a93c79f6ec743a1954ec4fc2c08429ae2122118bf234b2185c81b890930180549095168417909455925190815290917fef6485b84315f9b1483beffa32aae9a0596890395e3d7521f1c5fbb51790e765910160405180910390a2610ae28282612221565b60008111611cc75760405162461bcd60e51b81526020600482015260166024820152754d757374206465706f73697420736f6d657468696e6760501b60448201526064016103c2565b816001600160a01b03167f5548c837ab068cf56a2c2479df0882a4922fd203edb7517321831d95078c5f62611cfb84611ab1565b604080516001600160a01b039092168252602082018590520160405180910390a2611d24611f45565b60405163e8eda9df60e01b81526001600160a01b03848116600483015260248201849052306044830152605c6064830152919091169063e8eda9df90608401600060405180830381600087803b158015611d7d57600080fd5b505af1158015611d91573d6000803e3d6000fd5b505050505050565b6001600160a01b038116611def5760405162461bcd60e51b815260206004820152601a60248201527f4e657720476f7665726e6f72206973206164647265737328302900000000000060448201526064016103c2565b806001600160a01b0316611e0f6000805160206129a18339815191525490565b6001600160a01b03167fc7c0c772add429241571afb3805861fb3cfa2af374534088b76cdb4325a87e9a60405160405180910390a3611e5a816000805160206129a183398151915255565b50565b603380546001600160a01b038088166001600160a01b031992831617909255603480548784169083161790556037805492861692909116919091179055815181518114611ee35760405162461bcd60e51b8152602060048201526014602482015273496e76616c696420696e7075742061727261797360601b60448201526064016103c2565b60005b81811015611f3c57611f2a848281518110611f0357611f0361293f565b6020026020010151848381518110611f1d57611f1d61293f565b6020026020010151611b19565b80611f34816128f8565b915050611ee6565b50505050505050565b600080603360009054906101000a90046001600160a01b03166001600160a01b0316630261bf8b6040518163ffffffff1660e01b815260040160206040518083038186803b158015611f9657600080fd5b505afa158015611faa573d6000803e3d6000fd5b505050506040513d601f19601f82011682018060405250810190611fce9190612439565b90506001600160a01b0381166120265760405162461bcd60e51b815260206004820152601b60248201527f4c656e64696e6720706f6f6c20646f6573206e6f74206578697374000000000060448201526064016103c2565b919050565b8015806120b45750604051636eb1769f60e11b81523060048201526001600160a01b03838116602483015284169063dd62ed3e9060440160206040518083038186803b15801561207a57600080fd5b505afa15801561208e573d6000803e3d6000fd5b505050506040513d601f19601f820116820180604052508101906120b291906126ac565b155b61211f5760405162461bcd60e51b815260206004820152603660248201527f5361666545524332303a20617070726f76652066726f6d206e6f6e2d7a65726f60448201527520746f206e6f6e2d7a65726f20616c6c6f77616e636560501b60648201526084016103c2565b6040516001600160a01b038316602482015260448101829052611aac90849063095ea7b360e01b90606401611a75565b60006121a4826040518060400160405280602081526020017f5361666545524332303a206c6f772d6c6576656c2063616c6c206661696c6564815250856001600160a01b03166122589092919063ffffffff16565b805190915015611aac57808060200190518101906121c29190612671565b611aac5760405162461bcd60e51b815260206004820152602a60248201527f5361666545524332303a204552433230206f7065726174696f6e20646964206e6044820152691bdd081cdd58d8d9595960b21b60648201526084016103c2565b600061222b611f45565b90506122426001600160a01b03841682600061202b565b611aac6001600160a01b0384168260001961202b565b6060612267848460008561226f565b949350505050565b6060824710156122d05760405162461bcd60e51b815260206004820152602660248201527f416464726573733a20696e73756666696369656e742062616c616e636520666f6044820152651c8818d85b1b60d21b60648201526084016103c2565b843b61231e5760405162461bcd60e51b815260206004820152601d60248201527f416464726573733a2063616c6c20746f206e6f6e2d636f6e747261637400000060448201526064016103c2565b600080866001600160a01b0316858760405161233a9190612709565b60006040518083038185875af1925050503d8060008114612377576040519150601f19603f3d011682016040523d82523d6000602084013e61237c565b606091505b509150915061238c828286612397565b979650505050505050565b606083156123a6575081610cc5565b8251156123b65782518084602001fd5b8160405162461bcd60e51b81526004016103c29190612782565b60008083601f8401126123e257600080fd5b50813567ffffffffffffffff8111156123fa57600080fd5b6020830191508360208260051b850101111561241557600080fd5b9250929050565b60006020828403121561242e57600080fd5b8135610cc58161296b565b60006020828403121561244b57600080fd5b8151610cc58161296b565b6000806040838503121561246957600080fd5b82356124748161296b565b915060208301356124848161296b565b809150509250929050565b600080600080600080600060a0888a0312156124aa57600080fd5b87356124b58161296b565b965060208801356124c58161296b565b955060408801356124d58161296b565b9450606088013567ffffffffffffffff808211156124f257600080fd5b6124fe8b838c016123d0565b909650945060808a013591508082111561251757600080fd5b506125248a828b016123d0565b989b979a50959850939692959293505050565b600080600080600080600080600060e08a8c03121561255557600080fd5b89356125608161296b565b985060208a01356125708161296b565b975060408a01356125808161296b565b965060608a013567ffffffffffffffff8082111561259d57600080fd5b6125a98d838e016123d0565b909850965060808c01359150808211156125c257600080fd5b506125cf8c828d016123d0565b90955093505060a08a01356125e38161296b565b915060c08a01356125f38161296b565b809150509295985092959850929598565b60008060006060848603121561261957600080fd5b83356126248161296b565b925060208401356126348161296b565b929592945050506040919091013590565b6000806040838503121561265857600080fd5b82356126638161296b565b946020939093013593505050565b60006020828403121561268357600080fd5b81518015158114610cc557600080fd5b6000602082840312156126a557600080fd5b5035919050565b6000602082840312156126be57600080fd5b5051919050565b600081518084526020808501945080840160005b838110156126fe5781516001600160a01b0316875295820195908201906001016126d9565b509495945050505050565b6000825161271b8184602087016128c8565b9190910192915050565b60408152600061273860408301856126c5565b905060018060a01b03831660208301529392505050565b60608152600061276260608301866126c5565b6020830194909452506001600160a01b0391909116604090910152919050565b60208152600082518060208401526127a18160408501602087016128c8565b601f01601f19169190910160400192915050565b60208082526017908201527f43616c6c6572206973206e6f7420746865205661756c74000000000000000000604082015260600190565b6020808252601a908201527f43616c6c6572206973206e6f742074686520476f7665726e6f72000000000000604082015260600190565b6020808252602e908201527f496e697469616c697a61626c653a20636f6e747261637420697320616c72656160408201526d191e481a5b9a5d1a585b1a5e995960921b606082015260800190565b6020808252600e908201526d1499595b9d1c985b9d0818d85b1b60921b604082015260600190565b600082198211156128ac576128ac612913565b500190565b6000828210156128c3576128c3612913565b500390565b60005b838110156128e35781810151838201526020016128cb565b838111156128f2576000848401525b50505050565b600060001982141561290c5761290c612913565b5060010190565b634e487b7160e01b600052601160045260246000fd5b634e487b7160e01b600052603160045260246000fd5b634e487b7160e01b600052603260045260246000fd5b634e487b7160e01b600052604160045260246000fd5b6001600160a01b0381168114611e5a57600080fdfe53bf423e48ed90e97d02ab0ebab13b2a235a6bfbe9c321847d5c175333ac45357bea13895fa79d2831e0a9e28edede30099005a50d652d8957cf8a607ee6ca4aa2646970667358221220435817e8023302957db2a308cc1097417e8f0ccf7ee2f68dec01721d021a2c1f64736f6c634300080700337bea13895fa79d2831e0a9e28edede30099005a50d652d8957cf8a607ee6ca4a",
  "devdoc": {
    "kind": "dev",
    "methods": {
      "checkBalance(address)": {
        "details": "Get the total asset value held in the platform",
        "params": {
          "_asset": "Address of the asset"
        },
        "returns": {
          "balance": "   Total value of the asset in the platform"
        }
      },
      "claimGovernance()": {
        "details": "Claim Governance of the contract to a new account (`newGovernor`). Can only be called by the new Governor."
      },
      "collectRewardToken()": {
        "details": "Collect stkAave, convert it to AAVE send to Vault."
      },
      "deposit(address,uint256)": {
        "details": "Deposit asset into Aave",
        "params": {
          "_amount": "Amount of asset to deposit",
          "_asset": "Address of asset to deposit"
        }
      },
      "depositAll()": {
        "details": "Deposit the entire balance of any supported asset into Aave"
      },
      "governor()": {
        "details": "Returns the address of the current Governor."
      },
      "initialize(address,address,address,address[],address[])": {
        "details": "Internal initialize function, to set up initial internal state",
        "params": {
          "_assets": "Addresses of initial supported assets",
          "_pTokens": "Platform Token corresponding addresses",
          "_platformAddress": "Generic platform address",
          "_rewardTokenAddress": "Address of reward token for platform",
          "_vaultAddress": "Address of the Vault"
        }
      },
      "initialize(address,address,address,address[],address[],address,address)": {
        "params": {
          "_assets": "Addresses of supported assets",
          "_incentivesAddress": "Address of the AAVE incentives controller",
          "_pTokens": "Platform Token corresponding addresses",
          "_platformAddress": "Address of the AAVE pool",
          "_rewardTokenAddress": "Address of the AAVE token",
          "_stkAaveAddress": "Address of the stkAave contract",
          "_vaultAddress": "Address of the vault"
        }
      },
      "isGovernor()": {
        "details": "Returns true if the caller is the current Governor."
      },
      "removePToken(uint256)": {
        "details": "Remove a supported asset by passing its index.      This method can only be called by the system Governor",
        "params": {
          "_assetIndex": "Index of the asset to be removed"
        }
      },
      "safeApproveAllTokens()": {
        "details": "Approve the spending of all assets by their corresponding aToken,      if for some reason is it necessary."
      },
      "setPTokenAddress(address,address)": {
        "details": "Provide support for asset by passing its pToken address.      This method can only be called by the system Governor",
        "params": {
          "_asset": "Address for the asset",
          "_pToken": "Address for the corresponding platform token"
        }
      },
      "setRewardLiquidationThreshold(uint256)": {
        "details": "Set the reward token liquidation threshold.",
        "params": {
          "_threshold": "Threshold amount in decimals of reward token that will cause the Vault to claim and withdrawAll on allocate() calls."
        }
      },
      "setRewardTokenAddress(address)": {
        "details": "Set the reward token address.",
        "params": {
          "_rewardTokenAddress": "Address of the reward token"
        }
      },
      "supportsAsset(address)": {
        "details": "Retuns bool indicating whether asset is supported by strategy",
        "params": {
          "_asset": "Address of the asset"
        }
      },
      "transferGovernance(address)": {
        "details": "Transfers Governance of the contract to a new account (`newGovernor`). Can only be called by the current Governor. Must be claimed for this to complete",
        "params": {
          "_newGovernor": "Address of the new Governor"
        }
      },
      "transferToken(address,uint256)": {
        "details": "Transfer token to governor. Intended for recovering tokens stuck in      strategy contracts, i.e. mistaken sends.",
        "params": {
          "_amount": "Amount of the asset to transfer",
          "_asset": "Address for the asset"
        }
      },
      "withdraw(address,address,uint256)": {
        "details": "Withdraw asset from Aave",
        "params": {
          "_amount": "Amount of asset to withdraw",
          "_asset": "Address of asset to withdraw",
          "_recipient": "Address to receive withdrawn asset"
        }
      },
      "withdrawAll()": {
        "details": "Remove all assets from platform and send them to Vault contract."
      }
    },
    "version": 1
  },
  "userdoc": {
    "kind": "user",
    "methods": {
      "initialize(address,address,address,address[],address[],address,address)": {
        "notice": "Initializer for setting up strategy internal state. This overrides the InitializableAbstractStrategy initializer as AAVE needs several extra addresses for the rewards program."
      }
    },
    "version": 1
  },
  "storageLayout": {
    "storage": [
      {
        "astId": 16819,
        "contract": "contracts/strategies/AaveStrategy.sol:AaveStrategy",
        "label": "initialized",
        "offset": 0,
        "slot": "0",
        "type": "t_bool"
      },
      {
        "astId": 16822,
        "contract": "contracts/strategies/AaveStrategy.sol:AaveStrategy",
        "label": "initializing",
        "offset": 1,
        "slot": "0",
        "type": "t_bool"
      },
      {
        "astId": 16862,
        "contract": "contracts/strategies/AaveStrategy.sol:AaveStrategy",
        "label": "______gap",
        "offset": 0,
        "slot": "1",
        "type": "t_array(t_uint256)50_storage"
      },
      {
        "astId": 16934,
        "contract": "contracts/strategies/AaveStrategy.sol:AaveStrategy",
        "label": "platformAddress",
        "offset": 0,
        "slot": "51",
        "type": "t_address"
      },
      {
        "astId": 16936,
        "contract": "contracts/strategies/AaveStrategy.sol:AaveStrategy",
        "label": "vaultAddress",
        "offset": 0,
        "slot": "52",
        "type": "t_address"
      },
      {
        "astId": 16940,
        "contract": "contracts/strategies/AaveStrategy.sol:AaveStrategy",
        "label": "assetToPToken",
        "offset": 0,
        "slot": "53",
        "type": "t_mapping(t_address,t_address)"
      },
      {
        "astId": 16943,
        "contract": "contracts/strategies/AaveStrategy.sol:AaveStrategy",
        "label": "assetsMapped",
        "offset": 0,
        "slot": "54",
        "type": "t_array(t_address)dyn_storage"
      },
      {
        "astId": 16945,
        "contract": "contracts/strategies/AaveStrategy.sol:AaveStrategy",
        "label": "rewardTokenAddress",
        "offset": 0,
        "slot": "55",
        "type": "t_address"
      },
      {
        "astId": 16947,
        "contract": "contracts/strategies/AaveStrategy.sol:AaveStrategy",
        "label": "rewardLiquidationThreshold",
        "offset": 0,
        "slot": "56",
        "type": "t_uint256"
      },
      {
        "astId": 16951,
        "contract": "contracts/strategies/AaveStrategy.sol:AaveStrategy",
        "label": "_reserved",
        "offset": 0,
        "slot": "57",
        "type": "t_array(t_int256)100_storage"
      },
      {
        "astId": 12431,
        "contract": "contracts/strategies/AaveStrategy.sol:AaveStrategy",
        "label": "incentivesController",
        "offset": 0,
        "slot": "157",
        "type": "t_contract(IAaveIncentivesController)13939"
      },
      {
        "astId": 12434,
        "contract": "contracts/strategies/AaveStrategy.sol:AaveStrategy",
        "label": "stkAave",
        "offset": 0,
        "slot": "158",
        "type": "t_contract(IAaveStakedToken)13976"
      }
    ],
    "types": {
      "t_address": {
        "encoding": "inplace",
        "label": "address",
        "numberOfBytes": "20"
      },
      "t_array(t_address)dyn_storage": {
        "base": "t_address",
        "encoding": "dynamic_array",
        "label": "address[]",
        "numberOfBytes": "32"
      },
      "t_array(t_int256)100_storage": {
        "base": "t_int256",
        "encoding": "inplace",
        "label": "int256[100]",
        "numberOfBytes": "3200"
      },
      "t_array(t_uint256)50_storage": {
        "base": "t_uint256",
        "encoding": "inplace",
        "label": "uint256[50]",
        "numberOfBytes": "1600"
      },
      "t_bool": {
        "encoding": "inplace",
        "label": "bool",
        "numberOfBytes": "1"
      },
      "t_contract(IAaveIncentivesController)13939": {
        "encoding": "inplace",
        "label": "contract IAaveIncentivesController",
        "numberOfBytes": "20"
      },
      "t_contract(IAaveStakedToken)13976": {
        "encoding": "inplace",
        "label": "contract IAaveStakedToken",
        "numberOfBytes": "20"
      },
      "t_int256": {
        "encoding": "inplace",
        "label": "int256",
        "numberOfBytes": "32"
      },
      "t_mapping(t_address,t_address)": {
        "encoding": "mapping",
        "key": "t_address",
        "label": "mapping(address => address)",
        "numberOfBytes": "32",
        "value": "t_address"
      },
      "t_uint256": {
        "encoding": "inplace",
        "label": "uint256",
        "numberOfBytes": "32"
      }
    }
  }
}