{
  "address": "0x90d588fc0eC3DB9c4b417dB4537fE08e063D2ae5",
  "abi": [
    {
      "inputs": [
        {
          "internalType": "address",
          "name": "_safeContract",
          "type": "address"
        },
        {
          "internalType": "address",
          "name": "_operator",
          "type": "address"
        },
        {
          "internalType": "address",
          "name": "_vault",
          "type": "address"
        },
        {
          "internalType": "address",
          "name": "_strategy",
          "type": "address"
        }
      ],
      "stateMutability": "nonpayable",
      "type": "constructor"
    },
    {
      "anonymous": false,
      "inputs": [
        {
          "indexed": true,
          "internalType": "address",
          "name": "strategy",
          "type": "address"
        },
        {
          "indexed": false,
          "internalType": "uint256",
          "name": "shortfall",
          "type": "uint256"
        },
        {
          "indexed": false,
          "internalType": "uint256",
          "name": "available",
          "type": "uint256"
        }
      ],
      "name": "InsufficientStrategyLiquidity",
      "type": "event"
    },
    {
      "anonymous": false,
      "inputs": [
        {
          "indexed": true,
          "internalType": "address",
          "name": "strategy",
          "type": "address"
        },
        {
          "indexed": false,
          "internalType": "uint256",
          "name": "amount",
          "type": "uint256"
        },
        {
          "indexed": false,
          "internalType": "uint256",
          "name": "remainingShortfall",
          "type": "uint256"
        }
      ],
      "name": "LiquidityWithdrawn",
      "type": "event"
    },
    {
      "anonymous": false,
      "inputs": [
        {
          "indexed": true,
          "internalType": "bytes32",
          "name": "role",
          "type": "bytes32"
        },
        {
          "indexed": true,
          "internalType": "bytes32",
          "name": "previousAdminRole",
          "type": "bytes32"
        },
        {
          "indexed": true,
          "internalType": "bytes32",
          "name": "newAdminRole",
          "type": "bytes32"
        }
      ],
      "name": "RoleAdminChanged",
      "type": "event"
    },
    {
      "anonymous": false,
      "inputs": [
        {
          "indexed": true,
          "internalType": "bytes32",
          "name": "role",
          "type": "bytes32"
        },
        {
          "indexed": true,
          "internalType": "address",
          "name": "account",
          "type": "address"
        },
        {
          "indexed": true,
          "internalType": "address",
          "name": "sender",
          "type": "address"
        }
      ],
      "name": "RoleGranted",
      "type": "event"
    },
    {
      "anonymous": false,
      "inputs": [
        {
          "indexed": true,
          "internalType": "bytes32",
          "name": "role",
          "type": "bytes32"
        },
        {
          "indexed": true,
          "internalType": "address",
          "name": "account",
          "type": "address"
        },
        {
          "indexed": true,
          "internalType": "address",
          "name": "sender",
          "type": "address"
        }
      ],
      "name": "RoleRevoked",
      "type": "event"
    },
    {
      "anonymous": false,
      "inputs": [
        {
          "indexed": false,
          "internalType": "address",
          "name": "oldStrategy",
          "type": "address"
        },
        {
          "indexed": false,
          "internalType": "address",
          "name": "newStrategy",
          "type": "address"
        }
      ],
      "name": "StrategyUpdated",
      "type": "event"
    },
    {
      "anonymous": false,
      "inputs": [
        {
          "indexed": true,
          "internalType": "address",
          "name": "strategy",
          "type": "address"
        },
        {
          "indexed": false,
          "internalType": "uint256",
          "name": "attemptedAmount",
          "type": "uint256"
        }
      ],
      "name": "WithdrawalFailed",
      "type": "event"
    },
    {
      "inputs": [],
      "name": "DEFAULT_ADMIN_ROLE",
      "outputs": [
        {
          "internalType": "bytes32",
          "name": "",
          "type": "bytes32"
        }
      ],
      "stateMutability": "view",
      "type": "function"
    },
    {
      "inputs": [],
      "name": "OPERATOR_ROLE",
      "outputs": [
        {
          "internalType": "bytes32",
          "name": "",
          "type": "bytes32"
        }
      ],
      "stateMutability": "view",
      "type": "function"
    },
    {
      "inputs": [],
      "name": "asset",
      "outputs": [
        {
          "internalType": "address",
          "name": "",
          "type": "address"
        }
      ],
      "stateMutability": "view",
      "type": "function"
    },
    {
      "inputs": [],
      "name": "fundWithdrawals",
      "outputs": [],
      "stateMutability": "nonpayable",
      "type": "function"
    },
    {
      "inputs": [
        {
          "internalType": "bytes32",
          "name": "role",
          "type": "bytes32"
        }
      ],
      "name": "getRoleAdmin",
      "outputs": [
        {
          "internalType": "bytes32",
          "name": "",
          "type": "bytes32"
        }
      ],
      "stateMutability": "view",
      "type": "function"
    },
    {
      "inputs": [
        {
          "internalType": "bytes32",
          "name": "role",
          "type": "bytes32"
        },
        {
          "internalType": "uint256",
          "name": "index",
          "type": "uint256"
        }
      ],
      "name": "getRoleMember",
      "outputs": [
        {
          "internalType": "address",
          "name": "",
          "type": "address"
        }
      ],
      "stateMutability": "view",
      "type": "function"
    },
    {
      "inputs": [
        {
          "internalType": "bytes32",
          "name": "role",
          "type": "bytes32"
        }
      ],
      "name": "getRoleMemberCount",
      "outputs": [
        {
          "internalType": "uint256",
          "name": "",
          "type": "uint256"
        }
      ],
      "stateMutability": "view",
      "type": "function"
    },
    {
      "inputs": [
        {
          "internalType": "bytes32",
          "name": "role",
          "type": "bytes32"
        },
        {
          "internalType": "address",
          "name": "account",
          "type": "address"
        }
      ],
      "name": "grantRole",
      "outputs": [],
      "stateMutability": "nonpayable",
      "type": "function"
    },
    {
      "inputs": [
        {
          "internalType": "bytes32",
          "name": "role",
          "type": "bytes32"
        },
        {
          "internalType": "address",
          "name": "account",
          "type": "address"
        }
      ],
      "name": "hasRole",
      "outputs": [
        {
          "internalType": "bool",
          "name": "",
          "type": "bool"
        }
      ],
      "stateMutability": "view",
      "type": "function"
    },
    {
      "inputs": [],
      "name": "pendingShortfall",
      "outputs": [
        {
          "internalType": "uint256",
          "name": "shortfall",
          "type": "uint256"
        }
      ],
      "stateMutability": "view",
      "type": "function"
    },
    {
      "inputs": [
        {
          "internalType": "bytes32",
          "name": "role",
          "type": "bytes32"
        },
        {
          "internalType": "address",
          "name": "account",
          "type": "address"
        }
      ],
      "name": "renounceRole",
      "outputs": [],
      "stateMutability": "nonpayable",
      "type": "function"
    },
    {
      "inputs": [
        {
          "internalType": "bytes32",
          "name": "role",
          "type": "bytes32"
        },
        {
          "internalType": "address",
          "name": "account",
          "type": "address"
        }
      ],
      "name": "revokeRole",
      "outputs": [],
      "stateMutability": "nonpayable",
      "type": "function"
    },
    {
      "inputs": [],
      "name": "safeContract",
      "outputs": [
        {
          "internalType": "contract ISafe",
          "name": "",
          "type": "address"
        }
      ],
      "stateMutability": "view",
      "type": "function"
    },
    {
      "inputs": [
        {
          "internalType": "address",
          "name": "_strategy",
          "type": "address"
        }
      ],
      "name": "setStrategy",
      "outputs": [],
      "stateMutability": "nonpayable",
      "type": "function"
    },
    {
      "inputs": [],
      "name": "strategy",
      "outputs": [
        {
          "internalType": "address",
          "name": "",
          "type": "address"
        }
      ],
      "stateMutability": "view",
      "type": "function"
    },
    {
      "inputs": [
        {
          "internalType": "bytes4",
          "name": "interfaceId",
          "type": "bytes4"
        }
      ],
      "name": "supportsInterface",
      "outputs": [
        {
          "internalType": "bool",
          "name": "",
          "type": "bool"
        }
      ],
      "stateMutability": "view",
      "type": "function"
    },
    {
      "inputs": [
        {
          "internalType": "address",
          "name": "token",
          "type": "address"
        },
        {
          "internalType": "uint256",
          "name": "amount",
          "type": "uint256"
        }
      ],
      "name": "transferTokens",
      "outputs": [],
      "stateMutability": "nonpayable",
      "type": "function"
    },
    {
      "inputs": [],
      "name": "vault",
      "outputs": [
        {
          "internalType": "contract IVault",
          "name": "",
          "type": "address"
        }
      ],
      "stateMutability": "view",
      "type": "function"
    },
    {
      "stateMutability": "payable",
      "type": "receive"
    }
  ],
  "transactionHash": "0x16af3ac1ef108b0d3ba3263a3ec9c860a9ac62bd6de6fdc299cf37fae6c65d4b",
  "args": [
    "0x4FF1b9D9ba8558F5EAfCec096318eA0d8b541971",
    "0x4b91827516f79d6F6a1F292eD99671663b09169a",
    "0xE75D77B1865Ae93c7eaa3040B038D7aA7BC02F70",
    "0x3643cafA6eF3dd7Fcc2ADaD1cabf708075AFFf6e"
  ],
  "numDeployments": 1,
  "solcInputHash": "cac7f19370ca72250f12b469194d7f09",
  "bytecode": "0x60e060405234801561001057600080fd5b50604051611b96380380611b9683398101604081905261002f916103a6565b6001600160a01b0384166080819052849061004c906000906101a5565b61006c600080516020611b768339815191526080516101a560201b60201c565b506001600160a01b0382166100b85760405162461bcd60e51b815260206004820152600d60248201526c125b9d985b1a59081d985d5b1d609a1b60448201526064015b60405180910390fd5b6001600160a01b0381166101015760405162461bcd60e51b815260206004820152601060248201526f496e76616c696420737472617465677960801b60448201526064016100af565b6001600160a01b03821660a0819052604080516338d52e0f60e01b815290516338d52e0f916004808201926020929091908290030181865afa15801561014b573d6000803e3d6000fd5b505050506040513d601f19601f8201168201806040525081019061016f91906103fa565b6001600160a01b031660c052610184816101cc565b61019c600080516020611b76833981519152846101a5565b50505050610415565b6101af828261027e565b60008281526001602052604090206101c7908261031d565b505050565b6001600160a01b0381166102155760405162461bcd60e51b815260206004820152601060248201526f496e76616c696420737472617465677960801b60448201526064016100af565b600254604080516001600160a01b03928316815291831660208301527fe4cec16b1a7e6b7979e923da619a8b1e5fd0f0fb6e5c1cf647f350430ee61ca9910160405180910390a1600280546001600160a01b0319166001600160a01b0392909216919091179055565b6000828152602081815260408083206001600160a01b038516845290915290205460ff16610319576000828152602081815260408083206001600160a01b03851684529091529020805460ff191660011790556102d83390565b6001600160a01b0316816001600160a01b0316837f2f8788117e7eff1d82e926ec794901d17c78024a50270940304540a733656f0d60405160405180910390a45b5050565b6000610332836001600160a01b03841661033b565b90505b92915050565b600081815260018301602052604081205461038257508154600181810184556000848152602080822090930184905584548482528286019093526040902091909155610335565b506000610335565b80516001600160a01b03811681146103a157600080fd5b919050565b600080600080608085870312156103bc57600080fd5b6103c58561038a565b93506103d36020860161038a565b92506103e16040860161038a565b91506103ef6060860161038a565b905092959194509250565b60006020828403121561040c57600080fd5b6103328261038a565b60805160a05160c0516116ec61048a600039600081816102000152818161064c015261074f0152600081816103b3015281816105aa0152818161081a015261098801526000818161037f01528181610436015281816107f001528181610a7d01528181610b180152610bef01526116ec6000f3fe60806040526004361061010d5760003560e01c806391d1485411610095578063ca15c87311610064578063ca15c873146102f9578063d547741f14610319578063f5b541a614610339578063f9081ba21461036d578063fbfa77cf146103a157600080fd5b806391d1485414610284578063a217fddf146102a4578063a8c62e76146102b9578063bec3fa17146102d957600080fd5b806336568abe116100dc57806336568abe146101ce57806338d52e0f146101ee57806380bef06d1461023a57806384e637b51461024f5780639010d07c1461026457600080fd5b806301ffc9a714610119578063248a9ca31461014e5780632f2ff15d1461018c57806333a100ca146101ae57600080fd5b3661011457005b600080fd5b34801561012557600080fd5b5061013961013436600461126c565b6103d5565b60405190151581526020015b60405180910390f35b34801561015a57600080fd5b5061017e610169366004611296565b60009081526020819052604090206001015490565b604051908152602001610145565b34801561019857600080fd5b506101ac6101a73660046112cb565b610400565b005b3480156101ba57600080fd5b506101ac6101c93660046112f7565b61042b565b3480156101da57600080fd5b506101ac6101e93660046112cb565b6104b4565b3480156101fa57600080fd5b506102227f000000000000000000000000000000000000000000000000000000000000000081565b6040516001600160a01b039091168152602001610145565b34801561024657600080fd5b506101ac610532565b34801561025b57600080fd5b5061017e610983565b34801561027057600080fd5b5061022261027f366004611312565b610a2a565b34801561029057600080fd5b5061013961029f3660046112cb565b610a49565b3480156102b057600080fd5b5061017e600081565b3480156102c557600080fd5b50600254610222906001600160a01b031681565b3480156102e557600080fd5b506101ac6102f4366004611334565b610a72565b34801561030557600080fd5b5061017e610314366004611296565b610c6f565b34801561032557600080fd5b506101ac6103343660046112cb565b610c86565b34801561034557600080fd5b5061017e7f97667070c54ef182b0f5858b034beac1b6f3089aa2d3188bb1e8929f4fa9b92981565b34801561037957600080fd5b506102227f000000000000000000000000000000000000000000000000000000000000000081565b3480156103ad57600080fd5b506102227f000000000000000000000000000000000000000000000000000000000000000081565b60006001600160e01b03198216635a05180f60e01b14806103fa57506103fa82610cac565b92915050565b60008281526020819052604090206001015461041c8133610ce1565b6104268383610d45565b505050565b336001600160a01b037f000000000000000000000000000000000000000000000000000000000000000016146104a85760405162461bcd60e51b815260206004820152601f60248201527f43616c6c6572206973206e6f7420746865207361666520636f6e74726163740060448201526064015b60405180910390fd5b6104b181610d67565b50565b6001600160a01b03811633146105245760405162461bcd60e51b815260206004820152602f60248201527f416363657373436f6e74726f6c3a2063616e206f6e6c792072656e6f756e636560448201526e103937b632b9903337b91039b2b63360891b606482015260840161049f565b61052e8282610e19565b5050565b61055c7f97667070c54ef182b0f5858b034beac1b6f3089aa2d3188bb1e8929f4fa9b92933610a49565b6105a85760405162461bcd60e51b815260206004820152601960248201527f43616c6c6572206973206e6f7420616e206f70657261746f7200000000000000604482015260640161049f565b7f00000000000000000000000000000000000000000000000000000000000000006001600160a01b031663b9b17f9f6040518163ffffffff1660e01b8152600401600060405180830381600087803b15801561060357600080fd5b505af1158015610617573d6000803e3d6000fd5b505050506000610625610983565b9050806000036106325750565b600254604051632fa8a91360e11b81526001600160a01b037f0000000000000000000000000000000000000000000000000000000000000000811660048301526000921690635f51522690602401602060405180830381865afa15801561069d573d6000803e3d6000fd5b505050506040513d601f19601f820116820180604052508101906106c1919061135e565b905060008183106106d257816106d4565b825b90508060000361072b5760025460408051858152602081018590526001600160a01b03909216917f0ef7fed0b5b0ce7d6585da4aaebff577aad9e44fe4e8c333551e03a31e301636910160405180910390a2505050565b604080516001808252818301909252600091602080830190803683370190505090507f0000000000000000000000000000000000000000000000000000000000000000816000815181106107815761078161138d565b6001600160a01b03929092166020928302919091019091015260408051600180825281830190925260009181602001602082028036833701905050905082816000815181106107d2576107d261138d565b60209081029190910101526002546040516000916001600160a01b037f000000000000000000000000000000000000000000000000000000000000000081169263468721a7927f000000000000000000000000000000000000000000000000000000000000000092869263ae69f3cb60e01b926108579216908a908a906024016113a3565b60408051601f198184030181529181526020820180516001600160e01b03166001600160e01b03199485161790525160e086901b90921682526108a193929160009060040161148e565b6020604051808303816000875af11580156108c0573d6000803e3d6000fd5b505050506040513d601f19601f820116820180604052508101906108e491906114c9565b905080610936576002546040518581526001600160a01b03909116907f92873d130824b495f22ad10f7f14028200557770e5986714318e78c54f3aa83c906020015b60405180910390a2505050505050565b6002546001600160a01b03167fb195a67e698c5700e4f48f7b7748dda3a206ee2767ef024b61a26d7b17b2d63a8561096e818a611501565b60408051928352602083019190915201610926565b6000807f00000000000000000000000000000000000000000000000000000000000000006001600160a01b031663362bd1a36040518163ffffffff1660e01b8152600401608060405180830381865afa1580156109e4573d6000803e3d6000fd5b505050506040513d601f19601f82011682018060405250810190610a08919061152b565b60208101518151919250610a1b916115b8565b6001600160801b031691505090565b6000828152600160205260408120610a429083610e3b565b9392505050565b6000918252602082815260408084206001600160a01b0393909316845291905290205460ff1690565b336001600160a01b037f00000000000000000000000000000000000000000000000000000000000000001614610aea5760405162461bcd60e51b815260206004820152601f60248201527f43616c6c6572206973206e6f7420746865207361666520636f6e747261637400604482015260640161049f565b6001600160a01b038216610b615760008111610b065747610b08565b805b6040519091506001600160a01b037f0000000000000000000000000000000000000000000000000000000000000000169082156108fc029083906000818181858888f19350505050158015610426573d6000803e3d6000fd5b60008111610bd6576040516370a0823160e01b81523060048201526001600160a01b038316906370a0823190602401602060405180830381865afa158015610bad573d6000803e3d6000fd5b505050506040513d601f19601f82011682018060405250810190610bd1919061135e565b610bd8565b805b60405163a9059cbb60e01b81526001600160a01b037f000000000000000000000000000000000000000000000000000000000000000081166004830152602482018390529192509083169063a9059cbb906044016020604051808303816000875af1158015610c4b573d6000803e3d6000fd5b505050506040513d601f19601f8201168201806040525081019061042691906114c9565b60008181526001602052604081206103fa90610e47565b600082815260208190526040902060010154610ca28133610ce1565b6104268383610e19565b60006001600160e01b03198216637965db0b60e01b14806103fa57506301ffc9a760e01b6001600160e01b03198316146103fa565b610ceb8282610a49565b61052e57610d03816001600160a01b03166014610e51565b610d0e836020610e51565b604051602001610d1f9291906115d7565b60408051601f198184030181529082905262461bcd60e51b825261049f9160040161164c565b610d4f8282610fed565b60008281526001602052604090206104269082611071565b6001600160a01b038116610db05760405162461bcd60e51b815260206004820152601060248201526f496e76616c696420737472617465677960801b604482015260640161049f565b600254604080516001600160a01b03928316815291831660208301527fe4cec16b1a7e6b7979e923da619a8b1e5fd0f0fb6e5c1cf647f350430ee61ca9910160405180910390a1600280546001600160a01b0319166001600160a01b0392909216919091179055565b610e238282611086565b600082815260016020526040902061042690826110eb565b6000610a428383611100565b60006103fa825490565b60606000610e6083600261165f565b610e6b906002611676565b67ffffffffffffffff811115610e8357610e83611377565b6040519080825280601f01601f191660200182016040528015610ead576020820181803683370190505b509050600360fc1b81600081518110610ec857610ec861138d565b60200101906001600160f81b031916908160001a905350600f60fb1b81600181518110610ef757610ef761138d565b60200101906001600160f81b031916908160001a9053506000610f1b84600261165f565b610f26906001611676565b90505b6001811115610f9e576f181899199a1a9b1b9c1cb0b131b232b360811b85600f1660108110610f5a57610f5a61138d565b1a60f81b828281518110610f7057610f7061138d565b60200101906001600160f81b031916908160001a90535060049490941c93610f9781611689565b9050610f29565b508315610a425760405162461bcd60e51b815260206004820181905260248201527f537472696e67733a20686578206c656e67746820696e73756666696369656e74604482015260640161049f565b610ff78282610a49565b61052e576000828152602081815260408083206001600160a01b03851684529091529020805460ff1916600117905561102d3390565b6001600160a01b0316816001600160a01b0316837f2f8788117e7eff1d82e926ec794901d17c78024a50270940304540a733656f0d60405160405180910390a45050565b6000610a42836001600160a01b03841661112a565b6110908282610a49565b1561052e576000828152602081815260408083206001600160a01b0385168085529252808320805460ff1916905551339285917ff6391f5c32d9c69d2a47ea670b442974b53935d1edc7fd64eb21e047a839171b9190a45050565b6000610a42836001600160a01b038416611179565b60008260000182815481106111175761111761138d565b9060005260206000200154905092915050565b6000818152600183016020526040812054611171575081546001818101845560008481526020808220909301849055845484825282860190935260409020919091556103fa565b5060006103fa565b6000818152600183016020526040812054801561126257600061119d600183611501565b85549091506000906111b190600190611501565b90508181146112165760008660000182815481106111d1576111d161138d565b90600052602060002001549050808760000184815481106111f4576111f461138d565b6000918252602080832090910192909255918252600188019052604090208390555b8554869080611227576112276116a0565b6001900381819060005260206000200160009055905585600101600086815260200190815260200160002060009055600193505050506103fa565b60009150506103fa565b60006020828403121561127e57600080fd5b81356001600160e01b031981168114610a4257600080fd5b6000602082840312156112a857600080fd5b5035919050565b80356001600160a01b03811681146112c657600080fd5b919050565b600080604083850312156112de57600080fd5b823591506112ee602084016112af565b90509250929050565b60006020828403121561130957600080fd5b610a42826112af565b6000806040838503121561132557600080fd5b50508035926020909101359150565b6000806040838503121561134757600080fd5b611350836112af565b946020939093013593505050565b60006020828403121561137057600080fd5b5051919050565b634e487b7160e01b600052604160045260246000fd5b634e487b7160e01b600052603260045260246000fd5b6001600160a01b0384168152606060208083018290528451918301829052600091908501906080840190835b818110156113f65783516001600160a01b03168352602093840193909201916001016113cf565b505083810360408501528451808252602091820192509085019060005b81811015611431578251845260209384019390920191600101611413565b5091979650505050505050565b60005b83811015611459578181015183820152602001611441565b50506000910152565b6000815180845261147a81602086016020860161143e565b601f01601f19169290920160200192915050565b60018060a01b03851681528360208201526080604082015260006114b56080830185611462565b905060ff8316606083015295945050505050565b6000602082840312156114db57600080fd5b81518015158114610a4257600080fd5b634e487b7160e01b600052601160045260246000fd5b818103818111156103fa576103fa6114eb565b80516001600160801b03811681146112c657600080fd5b6000608082840312801561153e57600080fd5b506040516080810167ffffffffffffffff8111828210171561157057634e487b7160e01b600052604160045260246000fd5b60405261157c83611514565b815261158a60208401611514565b602082015261159b60408401611514565b60408201526115ac60608401611514565b60608201529392505050565b6001600160801b0382811682821603908111156103fa576103fa6114eb565b7f416363657373436f6e74726f6c3a206163636f756e742000000000000000000081526000835161160f81601785016020880161143e565b7001034b99036b4b9b9b4b733903937b6329607d1b601791840191820152835161164081602884016020880161143e565b01602801949350505050565b602081526000610a426020830184611462565b80820281158282048414176103fa576103fa6114eb565b808201808211156103fa576103fa6114eb565b600081611698576116986114eb565b506000190190565b634e487b7160e01b600052603160045260246000fdfea264697066735822122042ac34741ed30d660a9e249e2976676ed4e668fdab490e71a4b0abda608d5b1d64736f6c634300081c003397667070c54ef182b0f5858b034beac1b6f3089aa2d3188bb1e8929f4fa9b929",
  "libraries": {},
  "devdoc": {
    "details": "The Safe (Guardian multisig) must:      1. Deploy this module      2. Call `safe.enableModule(address(this))` to authorize it      An off-chain operator (e.g. Defender Relayer) calls `fundWithdrawals()`      periodically. The module:        - First tries to satisfy the queue from idle vault funds        - If there's still a shortfall, withdraws the exact shortfall amount          from the configured strategy (up to what the strategy holds)      The Safe retains full override control via `setStrategy`.",
    "events": {
      "RoleAdminChanged(bytes32,bytes32,bytes32)": {
        "details": "Emitted when `newAdminRole` is set as ``role``'s admin role, replacing `previousAdminRole` `DEFAULT_ADMIN_ROLE` is the starting admin for all roles, despite {RoleAdminChanged} not being emitted signaling this. _Available since v3.1._"
      },
      "RoleGranted(bytes32,address,address)": {
        "details": "Emitted when `account` is granted `role`. `sender` is the account that originated the contract call, an admin role bearer except when using {AccessControl-_setupRole}."
      },
      "RoleRevoked(bytes32,address,address)": {
        "details": "Emitted when `account` is revoked `role`. `sender` is the account that originated the contract call:   - if using `revokeRole`, it is the admin role bearer   - if using `renounceRole`, it is the role bearer (i.e. `account`)"
      }
    },
    "kind": "dev",
    "methods": {
      "constructor": {
        "params": {
          "_operator": "Address of the off-chain operator (e.g. Defender relayer).",
          "_safeContract": "Address of the Gnosis Safe (Guardian multisig).",
          "_strategy": "Initial strategy to pull liquidity from.",
          "_vault": "Address of the OUSD/OETH vault."
        }
      },
      "getRoleAdmin(bytes32)": {
        "details": "Returns the admin role that controls `role`. See {grantRole} and {revokeRole}. To change a role's admin, use {_setRoleAdmin}."
      },
      "getRoleMember(bytes32,uint256)": {
        "details": "Returns one of the accounts that have `role`. `index` must be a value between 0 and {getRoleMemberCount}, non-inclusive. Role bearers are not sorted in any particular way, and their ordering may change at any point. WARNING: When using {getRoleMember} and {getRoleMemberCount}, make sure you perform all queries on the same block. See the following https://forum.openzeppelin.com/t/iterating-over-elements-on-enumerableset-in-openzeppelin-contracts/2296[forum post] for more information."
      },
      "getRoleMemberCount(bytes32)": {
        "details": "Returns the number of accounts that have `role`. Can be used together with {getRoleMember} to enumerate all bearers of a role."
      },
      "grantRole(bytes32,address)": {
        "details": "Grants `role` to `account`. If `account` had not been already granted `role`, emits a {RoleGranted} event. Requirements: - the caller must have ``role``'s admin role."
      },
      "hasRole(bytes32,address)": {
        "details": "Returns `true` if `account` has been granted `role`."
      },
      "pendingShortfall()": {
        "details": "This is a raw read of `queued - claimable`. It does NOT account for         idle vault asset that `addWithdrawalQueueLiquidity()` would absorb.         For a fully up-to-date figure, call `vault.addWithdrawalQueueLiquidity()`         first (which is what `fundWithdrawals()` does).",
        "returns": {
          "shortfall": "Queue shortfall in asset units (vault asset decimals)."
        }
      },
      "renounceRole(bytes32,address)": {
        "details": "Revokes `role` from the calling account. Roles are often managed via {grantRole} and {revokeRole}: this function's purpose is to provide a mechanism for accounts to lose their privileges if they are compromised (such as when a trusted device is misplaced). If the calling account had been revoked `role`, emits a {RoleRevoked} event. Requirements: - the caller must be `account`."
      },
      "revokeRole(bytes32,address)": {
        "details": "Revokes `role` from `account`. If `account` had been granted `role`, emits a {RoleRevoked} event. Requirements: - the caller must have ``role``'s admin role."
      },
      "setStrategy(address)": {
        "params": {
          "_strategy": "New strategy address. Must not be zero."
        }
      },
      "supportsInterface(bytes4)": {
        "details": "See {IERC165-supportsInterface}."
      },
      "transferTokens(address,uint256)": {
        "details": "Helps recovering any tokens accidentally sent to this module.",
        "params": {
          "amount": "Amount to transfer. 0 to transfer all balance.",
          "token": "Token to transfer. 0x0 to transfer Native token."
        }
      }
    },
    "title": "Auto Withdrawal Module",
    "version": 1
  },
  "userdoc": {
    "events": {
      "InsufficientStrategyLiquidity(address,uint256,uint256)": {
        "notice": "Emitted when the strategy does not hold enough funds to cover the shortfall.         No withdrawal is attempted; an operator alert should fire on this event."
      },
      "LiquidityWithdrawn(address,uint256,uint256)": {
        "notice": "Emitted when liquidity is successfully moved from strategy to vault."
      },
      "StrategyUpdated(address,address)": {
        "notice": "Emitted when the strategy address is updated."
      },
      "WithdrawalFailed(address,uint256)": {
        "notice": "Emitted when the Safe exec call to withdrawFromStrategy fails."
      }
    },
    "kind": "user",
    "methods": {
      "asset()": {
        "notice": "The vault's base asset (e.g. USDC for OUSD, WETH for OETH).         Stored as an address to match IStrategy.checkBalance() signature."
      },
      "fundWithdrawals()": {
        "notice": "Fund the vault's withdrawal queue from the configured strategy.         Called periodically by an off-chain operator (Defender Actions). Steps:   1. Ask the vault to absorb any idle asset it already holds.   2. Compute the remaining shortfall.   3. Pull up to that amount from the strategy via the Safe. This function never reverts on \"soft\" failures (strategy underfunded, Safe exec failure). It emits a descriptive event instead so off-chain monitoring can alert the team without breaking the Defender action."
      },
      "pendingShortfall()": {
        "notice": "The current unmet shortfall in the vault's withdrawal queue."
      },
      "setStrategy(address)": {
        "notice": "Change the strategy from which liquidity is pulled."
      },
      "strategy()": {
        "notice": "The strategy from which liquidity is pulled to fill the queue."
      },
      "vault()": {
        "notice": "The vault whose withdrawal queue is being funded."
      }
    },
    "notice": "A Gnosis Safe module that automates funding the OUSD (or OETH) vault's         withdrawal queue by pulling liquidity from a configured strategy.",
    "version": 1
  },
  "storageLayout": {
    "storage": [
      {
        "astId": 24,
        "contract": "contracts/automation/AutoWithdrawalModule.sol:AutoWithdrawalModule",
        "label": "_roles",
        "offset": 0,
        "slot": "0",
        "type": "t_mapping(t_bytes32,t_struct(RoleData)19_storage)"
      },
      {
        "astId": 327,
        "contract": "contracts/automation/AutoWithdrawalModule.sol:AutoWithdrawalModule",
        "label": "_roleMembers",
        "offset": 0,
        "slot": "1",
        "type": "t_mapping(t_bytes32,t_struct(AddressSet)2121_storage)"
      },
      {
        "astId": 2585,
        "contract": "contracts/automation/AutoWithdrawalModule.sol:AutoWithdrawalModule",
        "label": "strategy",
        "offset": 0,
        "slot": "2",
        "type": "t_address"
      }
    ],
    "types": {
      "t_address": {
        "encoding": "inplace",
        "label": "address",
        "numberOfBytes": "20"
      },
      "t_array(t_bytes32)dyn_storage": {
        "base": "t_bytes32",
        "encoding": "dynamic_array",
        "label": "bytes32[]",
        "numberOfBytes": "32"
      },
      "t_bool": {
        "encoding": "inplace",
        "label": "bool",
        "numberOfBytes": "1"
      },
      "t_bytes32": {
        "encoding": "inplace",
        "label": "bytes32",
        "numberOfBytes": "32"
      },
      "t_mapping(t_address,t_bool)": {
        "encoding": "mapping",
        "key": "t_address",
        "label": "mapping(address => bool)",
        "numberOfBytes": "32",
        "value": "t_bool"
      },
      "t_mapping(t_bytes32,t_struct(AddressSet)2121_storage)": {
        "encoding": "mapping",
        "key": "t_bytes32",
        "label": "mapping(bytes32 => struct EnumerableSet.AddressSet)",
        "numberOfBytes": "32",
        "value": "t_struct(AddressSet)2121_storage"
      },
      "t_mapping(t_bytes32,t_struct(RoleData)19_storage)": {
        "encoding": "mapping",
        "key": "t_bytes32",
        "label": "mapping(bytes32 => struct AccessControl.RoleData)",
        "numberOfBytes": "32",
        "value": "t_struct(RoleData)19_storage"
      },
      "t_mapping(t_bytes32,t_uint256)": {
        "encoding": "mapping",
        "key": "t_bytes32",
        "label": "mapping(bytes32 => uint256)",
        "numberOfBytes": "32",
        "value": "t_uint256"
      },
      "t_struct(AddressSet)2121_storage": {
        "encoding": "inplace",
        "label": "struct EnumerableSet.AddressSet",
        "members": [
          {
            "astId": 2120,
            "contract": "contracts/automation/AutoWithdrawalModule.sol:AutoWithdrawalModule",
            "label": "_inner",
            "offset": 0,
            "slot": "0",
            "type": "t_struct(Set)1820_storage"
          }
        ],
        "numberOfBytes": "64"
      },
      "t_struct(RoleData)19_storage": {
        "encoding": "inplace",
        "label": "struct AccessControl.RoleData",
        "members": [
          {
            "astId": 16,
            "contract": "contracts/automation/AutoWithdrawalModule.sol:AutoWithdrawalModule",
            "label": "members",
            "offset": 0,
            "slot": "0",
            "type": "t_mapping(t_address,t_bool)"
          },
          {
            "astId": 18,
            "contract": "contracts/automation/AutoWithdrawalModule.sol:AutoWithdrawalModule",
            "label": "adminRole",
            "offset": 0,
            "slot": "1",
            "type": "t_bytes32"
          }
        ],
        "numberOfBytes": "64"
      },
      "t_struct(Set)1820_storage": {
        "encoding": "inplace",
        "label": "struct EnumerableSet.Set",
        "members": [
          {
            "astId": 1815,
            "contract": "contracts/automation/AutoWithdrawalModule.sol:AutoWithdrawalModule",
            "label": "_values",
            "offset": 0,
            "slot": "0",
            "type": "t_array(t_bytes32)dyn_storage"
          },
          {
            "astId": 1819,
            "contract": "contracts/automation/AutoWithdrawalModule.sol:AutoWithdrawalModule",
            "label": "_indexes",
            "offset": 0,
            "slot": "1",
            "type": "t_mapping(t_bytes32,t_uint256)"
          }
        ],
        "numberOfBytes": "64"
      },
      "t_uint256": {
        "encoding": "inplace",
        "label": "uint256",
        "numberOfBytes": "32"
      }
    }
  }
}