{
  "address": "0xAaA1d497fdff9a88048743Db31d3173a2E442A3D",
  "abi": [
    {
      "inputs": [
        {
          "components": [
            {
              "internalType": "address",
              "name": "platformAddress",
              "type": "address"
            },
            {
              "internalType": "address",
              "name": "vaultAddress",
              "type": "address"
            }
          ],
          "internalType": "struct InitializableAbstractStrategy.BaseStrategyConfig",
          "name": "_stratConfig",
          "type": "tuple"
        },
        {
          "components": [
            {
              "internalType": "address",
              "name": "rEthAddress",
              "type": "address"
            },
            {
              "internalType": "address",
              "name": "stEthAddress",
              "type": "address"
            },
            {
              "internalType": "address",
              "name": "wstEthAddress",
              "type": "address"
            },
            {
              "internalType": "address",
              "name": "frxEthAddress",
              "type": "address"
            },
            {
              "internalType": "address",
              "name": "sfrxEthAddress",
              "type": "address"
            },
            {
              "internalType": "address",
              "name": "balancerVaultAddress",
              "type": "address"
            },
            {
              "internalType": "bytes32",
              "name": "balancerPoolId",
              "type": "bytes32"
            }
          ],
          "internalType": "struct BaseBalancerStrategy.BaseBalancerConfig",
          "name": "_balancerConfig",
          "type": "tuple"
        },
        {
          "internalType": "address",
          "name": "_auraRewardPoolAddress",
          "type": "address"
        }
      ],
      "stateMutability": "nonpayable",
      "type": "constructor"
    },
    {
      "anonymous": false,
      "inputs": [
        {
          "indexed": true,
          "internalType": "address",
          "name": "_asset",
          "type": "address"
        },
        {
          "indexed": false,
          "internalType": "address",
          "name": "_pToken",
          "type": "address"
        },
        {
          "indexed": false,
          "internalType": "uint256",
          "name": "_amount",
          "type": "uint256"
        }
      ],
      "name": "Deposit",
      "type": "event"
    },
    {
      "anonymous": false,
      "inputs": [
        {
          "indexed": true,
          "internalType": "address",
          "name": "previousGovernor",
          "type": "address"
        },
        {
          "indexed": true,
          "internalType": "address",
          "name": "newGovernor",
          "type": "address"
        }
      ],
      "name": "GovernorshipTransferred",
      "type": "event"
    },
    {
      "anonymous": false,
      "inputs": [
        {
          "indexed": false,
          "internalType": "address",
          "name": "_oldHarvesterAddress",
          "type": "address"
        },
        {
          "indexed": false,
          "internalType": "address",
          "name": "_newHarvesterAddress",
          "type": "address"
        }
      ],
      "name": "HarvesterAddressesUpdated",
      "type": "event"
    },
    {
      "anonymous": false,
      "inputs": [
        {
          "indexed": false,
          "internalType": "uint256",
          "name": "_prevMaxDeviationPercentage",
          "type": "uint256"
        },
        {
          "indexed": false,
          "internalType": "uint256",
          "name": "_newMaxDeviationPercentage",
          "type": "uint256"
        }
      ],
      "name": "MaxDepositDeviationUpdated",
      "type": "event"
    },
    {
      "anonymous": false,
      "inputs": [
        {
          "indexed": false,
          "internalType": "uint256",
          "name": "_prevMaxDeviationPercentage",
          "type": "uint256"
        },
        {
          "indexed": false,
          "internalType": "uint256",
          "name": "_newMaxDeviationPercentage",
          "type": "uint256"
        }
      ],
      "name": "MaxWithdrawalDeviationUpdated",
      "type": "event"
    },
    {
      "anonymous": false,
      "inputs": [
        {
          "indexed": true,
          "internalType": "address",
          "name": "_asset",
          "type": "address"
        },
        {
          "indexed": false,
          "internalType": "address",
          "name": "_pToken",
          "type": "address"
        }
      ],
      "name": "PTokenAdded",
      "type": "event"
    },
    {
      "anonymous": false,
      "inputs": [
        {
          "indexed": true,
          "internalType": "address",
          "name": "_asset",
          "type": "address"
        },
        {
          "indexed": false,
          "internalType": "address",
          "name": "_pToken",
          "type": "address"
        }
      ],
      "name": "PTokenRemoved",
      "type": "event"
    },
    {
      "anonymous": false,
      "inputs": [
        {
          "indexed": true,
          "internalType": "address",
          "name": "previousGovernor",
          "type": "address"
        },
        {
          "indexed": true,
          "internalType": "address",
          "name": "newGovernor",
          "type": "address"
        }
      ],
      "name": "PendingGovernorshipTransfer",
      "type": "event"
    },
    {
      "anonymous": false,
      "inputs": [
        {
          "indexed": false,
          "internalType": "address[]",
          "name": "_oldAddresses",
          "type": "address[]"
        },
        {
          "indexed": false,
          "internalType": "address[]",
          "name": "_newAddresses",
          "type": "address[]"
        }
      ],
      "name": "RewardTokenAddressesUpdated",
      "type": "event"
    },
    {
      "anonymous": false,
      "inputs": [
        {
          "indexed": false,
          "internalType": "address",
          "name": "recipient",
          "type": "address"
        },
        {
          "indexed": false,
          "internalType": "address",
          "name": "rewardToken",
          "type": "address"
        },
        {
          "indexed": false,
          "internalType": "uint256",
          "name": "amount",
          "type": "uint256"
        }
      ],
      "name": "RewardTokenCollected",
      "type": "event"
    },
    {
      "anonymous": false,
      "inputs": [
        {
          "indexed": true,
          "internalType": "address",
          "name": "_asset",
          "type": "address"
        },
        {
          "indexed": false,
          "internalType": "address",
          "name": "_pToken",
          "type": "address"
        },
        {
          "indexed": false,
          "internalType": "uint256",
          "name": "_amount",
          "type": "uint256"
        }
      ],
      "name": "Withdrawal",
      "type": "event"
    },
    {
      "inputs": [
        {
          "internalType": "address",
          "name": "",
          "type": "address"
        }
      ],
      "name": "assetToPToken",
      "outputs": [
        {
          "internalType": "address",
          "name": "",
          "type": "address"
        }
      ],
      "stateMutability": "view",
      "type": "function"
    },
    {
      "inputs": [],
      "name": "auraRewardPoolAddress",
      "outputs": [
        {
          "internalType": "address",
          "name": "",
          "type": "address"
        }
      ],
      "stateMutability": "view",
      "type": "function"
    },
    {
      "inputs": [],
      "name": "balancerPoolId",
      "outputs": [
        {
          "internalType": "bytes32",
          "name": "",
          "type": "bytes32"
        }
      ],
      "stateMutability": "view",
      "type": "function"
    },
    {
      "inputs": [],
      "name": "balancerVault",
      "outputs": [
        {
          "internalType": "contract IBalancerVault",
          "name": "",
          "type": "address"
        }
      ],
      "stateMutability": "view",
      "type": "function"
    },
    {
      "inputs": [
        {
          "internalType": "address",
          "name": "_asset",
          "type": "address"
        }
      ],
      "name": "checkBalance",
      "outputs": [
        {
          "internalType": "uint256",
          "name": "amount",
          "type": "uint256"
        }
      ],
      "stateMutability": "view",
      "type": "function"
    },
    {
      "inputs": [],
      "name": "checkBalance",
      "outputs": [
        {
          "internalType": "uint256",
          "name": "value",
          "type": "uint256"
        }
      ],
      "stateMutability": "view",
      "type": "function"
    },
    {
      "inputs": [],
      "name": "claimGovernance",
      "outputs": [],
      "stateMutability": "nonpayable",
      "type": "function"
    },
    {
      "inputs": [],
      "name": "collectRewardTokens",
      "outputs": [],
      "stateMutability": "nonpayable",
      "type": "function"
    },
    {
      "inputs": [
        {
          "internalType": "address",
          "name": "",
          "type": "address"
        },
        {
          "internalType": "uint256",
          "name": "",
          "type": "uint256"
        }
      ],
      "name": "deposit",
      "outputs": [],
      "stateMutability": "nonpayable",
      "type": "function"
    },
    {
      "inputs": [
        {
          "internalType": "address[]",
          "name": "",
          "type": "address[]"
        },
        {
          "internalType": "uint256[]",
          "name": "",
          "type": "uint256[]"
        }
      ],
      "name": "deposit",
      "outputs": [],
      "stateMutability": "nonpayable",
      "type": "function"
    },
    {
      "inputs": [],
      "name": "depositAll",
      "outputs": [],
      "stateMutability": "nonpayable",
      "type": "function"
    },
    {
      "inputs": [],
      "name": "frxETH",
      "outputs": [
        {
          "internalType": "address",
          "name": "",
          "type": "address"
        }
      ],
      "stateMutability": "view",
      "type": "function"
    },
    {
      "inputs": [],
      "name": "getRewardTokenAddresses",
      "outputs": [
        {
          "internalType": "address[]",
          "name": "",
          "type": "address[]"
        }
      ],
      "stateMutability": "view",
      "type": "function"
    },
    {
      "inputs": [],
      "name": "governor",
      "outputs": [
        {
          "internalType": "address",
          "name": "",
          "type": "address"
        }
      ],
      "stateMutability": "view",
      "type": "function"
    },
    {
      "inputs": [],
      "name": "harvesterAddress",
      "outputs": [
        {
          "internalType": "address",
          "name": "",
          "type": "address"
        }
      ],
      "stateMutability": "view",
      "type": "function"
    },
    {
      "inputs": [
        {
          "internalType": "address[]",
          "name": "_rewardTokenAddresses",
          "type": "address[]"
        },
        {
          "internalType": "address[]",
          "name": "_assets",
          "type": "address[]"
        },
        {
          "internalType": "address[]",
          "name": "_pTokens",
          "type": "address[]"
        }
      ],
      "name": "initialize",
      "outputs": [],
      "stateMutability": "nonpayable",
      "type": "function"
    },
    {
      "inputs": [],
      "name": "isGovernor",
      "outputs": [
        {
          "internalType": "bool",
          "name": "",
          "type": "bool"
        }
      ],
      "stateMutability": "view",
      "type": "function"
    },
    {
      "inputs": [],
      "name": "maxDepositDeviation",
      "outputs": [
        {
          "internalType": "uint256",
          "name": "",
          "type": "uint256"
        }
      ],
      "stateMutability": "view",
      "type": "function"
    },
    {
      "inputs": [],
      "name": "maxWithdrawalDeviation",
      "outputs": [
        {
          "internalType": "uint256",
          "name": "",
          "type": "uint256"
        }
      ],
      "stateMutability": "view",
      "type": "function"
    },
    {
      "inputs": [],
      "name": "platformAddress",
      "outputs": [
        {
          "internalType": "address",
          "name": "",
          "type": "address"
        }
      ],
      "stateMutability": "view",
      "type": "function"
    },
    {
      "inputs": [],
      "name": "rETH",
      "outputs": [
        {
          "internalType": "address",
          "name": "",
          "type": "address"
        }
      ],
      "stateMutability": "view",
      "type": "function"
    },
    {
      "inputs": [
        {
          "internalType": "uint256",
          "name": "_assetIndex",
          "type": "uint256"
        }
      ],
      "name": "removePToken",
      "outputs": [],
      "stateMutability": "nonpayable",
      "type": "function"
    },
    {
      "inputs": [
        {
          "internalType": "uint256",
          "name": "",
          "type": "uint256"
        }
      ],
      "name": "rewardTokenAddresses",
      "outputs": [
        {
          "internalType": "address",
          "name": "",
          "type": "address"
        }
      ],
      "stateMutability": "view",
      "type": "function"
    },
    {
      "inputs": [],
      "name": "safeApproveAllTokens",
      "outputs": [],
      "stateMutability": "nonpayable",
      "type": "function"
    },
    {
      "inputs": [
        {
          "internalType": "address",
          "name": "_harvesterAddress",
          "type": "address"
        }
      ],
      "name": "setHarvesterAddress",
      "outputs": [],
      "stateMutability": "nonpayable",
      "type": "function"
    },
    {
      "inputs": [
        {
          "internalType": "uint256",
          "name": "_maxDepositDeviation",
          "type": "uint256"
        }
      ],
      "name": "setMaxDepositDeviation",
      "outputs": [],
      "stateMutability": "nonpayable",
      "type": "function"
    },
    {
      "inputs": [
        {
          "internalType": "uint256",
          "name": "_maxWithdrawalDeviation",
          "type": "uint256"
        }
      ],
      "name": "setMaxWithdrawalDeviation",
      "outputs": [],
      "stateMutability": "nonpayable",
      "type": "function"
    },
    {
      "inputs": [
        {
          "internalType": "address",
          "name": "_asset",
          "type": "address"
        },
        {
          "internalType": "address",
          "name": "_pToken",
          "type": "address"
        }
      ],
      "name": "setPTokenAddress",
      "outputs": [],
      "stateMutability": "nonpayable",
      "type": "function"
    },
    {
      "inputs": [
        {
          "internalType": "address[]",
          "name": "_rewardTokenAddresses",
          "type": "address[]"
        }
      ],
      "name": "setRewardTokenAddresses",
      "outputs": [],
      "stateMutability": "nonpayable",
      "type": "function"
    },
    {
      "inputs": [],
      "name": "sfrxETH",
      "outputs": [
        {
          "internalType": "address",
          "name": "",
          "type": "address"
        }
      ],
      "stateMutability": "view",
      "type": "function"
    },
    {
      "inputs": [],
      "name": "stETH",
      "outputs": [
        {
          "internalType": "address",
          "name": "",
          "type": "address"
        }
      ],
      "stateMutability": "view",
      "type": "function"
    },
    {
      "inputs": [
        {
          "internalType": "address",
          "name": "_asset",
          "type": "address"
        }
      ],
      "name": "supportsAsset",
      "outputs": [
        {
          "internalType": "bool",
          "name": "",
          "type": "bool"
        }
      ],
      "stateMutability": "view",
      "type": "function"
    },
    {
      "inputs": [
        {
          "internalType": "address",
          "name": "_newGovernor",
          "type": "address"
        }
      ],
      "name": "transferGovernance",
      "outputs": [],
      "stateMutability": "nonpayable",
      "type": "function"
    },
    {
      "inputs": [
        {
          "internalType": "address",
          "name": "_asset",
          "type": "address"
        },
        {
          "internalType": "uint256",
          "name": "_amount",
          "type": "uint256"
        }
      ],
      "name": "transferToken",
      "outputs": [],
      "stateMutability": "nonpayable",
      "type": "function"
    },
    {
      "inputs": [],
      "name": "vaultAddress",
      "outputs": [
        {
          "internalType": "address",
          "name": "",
          "type": "address"
        }
      ],
      "stateMutability": "view",
      "type": "function"
    },
    {
      "inputs": [
        {
          "internalType": "address",
          "name": "_recipient",
          "type": "address"
        },
        {
          "internalType": "address",
          "name": "_strategyAsset",
          "type": "address"
        },
        {
          "internalType": "uint256",
          "name": "_strategyAmount",
          "type": "uint256"
        }
      ],
      "name": "withdraw",
      "outputs": [],
      "stateMutability": "nonpayable",
      "type": "function"
    },
    {
      "inputs": [
        {
          "internalType": "address",
          "name": "_recipient",
          "type": "address"
        },
        {
          "internalType": "address[]",
          "name": "_strategyAssets",
          "type": "address[]"
        },
        {
          "internalType": "uint256[]",
          "name": "_strategyAmounts",
          "type": "uint256[]"
        }
      ],
      "name": "withdraw",
      "outputs": [],
      "stateMutability": "nonpayable",
      "type": "function"
    },
    {
      "inputs": [],
      "name": "withdrawAll",
      "outputs": [],
      "stateMutability": "nonpayable",
      "type": "function"
    },
    {
      "inputs": [],
      "name": "wstETH",
      "outputs": [
        {
          "internalType": "address",
          "name": "",
          "type": "address"
        }
      ],
      "stateMutability": "view",
      "type": "function"
    }
  ],
  "transactionHash": "0x0c383a6f52eac77e0e72913a553f47ef0327f332e7f5ce98176cc7032cc2cb62",
  "args": [
    [
      "0x1E19CF2D73a72Ef1332C882F20534B6519Be0276",
      "0x39254033945AA2E4809Cc2977E7087BEE48bd7Ab"
    ],
    [
      "0xae78736Cd615f374D3085123A210448E74Fc6393",
      "0xae7ab96520DE3A18E5e111B5EaAb095312D7fE84",
      "0x7f39C581F595B53c5cb19bD0b3f8dA6c935E2Ca0",
      "0x5E8422345238F34275888049021821E8E08CAa1f",
      "0xac3E018457B222d93114458476f3E3416Abbe38F",
      "0xBA12222222228d8Ba445958a75a0704d566BF2C8",
      "0x1e19cf2d73a72ef1332c882f20534b6519be0276000200000000000000000112"
    ],
    "0xDd1fE5AD401D4777cE89959b7fa587e569Bf125D"
  ],
  "numDeployments": 2,
  "solcInputHash": "fee2b390c86ddc89003de0d9adf237b7",
  "bytecode": "0x6101c06040523480156200001257600080fd5b5060405162005c6c38038062005c6c83398101604081905262000035916200013c565b808284620000503360008051602062005c4c83398151915255565b60008051602062005c4c833981519152546040516001600160a01b03909116906000907fc7c0c772add429241571afb3805861fb3cfa2af374534088b76cdb4325a87e9a908290a380516001600160601b0319606091821b81166080908152602093840151831b821660a09081528551841b831660c090815294860151841b831660e0526040860151841b83166101005285840151841b83166101205290850151831b821661014052840151821b81166101605291909201516101805291901b166101a05250620002a9915050565b80516001600160a01b03811681146200013757600080fd5b919050565b60008060008385036101408112156200015457600080fd5b60408112156200016357600080fd5b6200016d62000241565b62000178866200011f565b815262000188602087016200011f565b6020820152935060e0603f1982011215620001a257600080fd5b50620001ad62000278565b620001bb604086016200011f565b8152620001cb606086016200011f565b6020820152620001de608086016200011f565b6040820152620001f160a086016200011f565b60608201526200020460c086016200011f565b60808201526200021760e086016200011f565b60a082015261010085015160c082015291506200023861012085016200011f565b90509250925092565b604080519081016001600160401b03811182821017156200027257634e487b7160e01b600052604160045260246000fd5b60405290565b60405160e081016001600160401b03811182821017156200027257634e487b7160e01b600052604160045260246000fd5b60805160601c60a05160601c60c05160601c60e05160601c6101005160601c6101205160601c6101405160601c6101605160601c610180516101a05160601c6156d562000577600039600081816102fb01528181610afb015281816125cc015281816128a401528181612d8c01528181612e2e01528181614608015261470301526000818161056701528181611292015281816114bd0152818161235a01528181612b55015281816132f4015281816137c201528181613a280152613f180152600081816102d401528181610c28015281816112c60152818161149001528181611afc0152818161238301528181612b890152818161331d0152818161379501528181613a5101528181613eeb01528181614082015261422a0152600081816104f30152818161247601528181612a8501528181612fca01528181613162015281816143fb01528181614438015281816148da015261491d01526000818161039f015281816124b101528181612a4a01528181612f6f0152818161311301528181613192015281816143c101526148a00152600081816103780152818161241501528181612a2401528181612ee10152818161305f015281816142f80152818161433401528181614800015261483d0152600081816104a901528181612450015281816129e901528181612e93015281816130100152818161308f015281816142be01526147c60152600061051a01526000818161032b015281816109be01528181610d8501528181610dd101528181610f3501528181610f810152818161110f015281816115fb01528181611cad01528181611ddc015261202f01526000818161058e01528181610c9a015281816112010152818161162e01528181611a3101528181611b310152818161259e0152818161293b01528181612aae015281816136640152818161394e01528181613c350152818161405401528181614550015261465701526156d56000f3fe608060405234801561001057600080fd5b506004361061023d5760003560e01c80637b2d9b2c1161013b578063c9ac8c8e116100b8578063dbe55e561161007c578063dbe55e5614610589578063de5f6268146105b0578063edbd7668146105b8578063efc908a1146105cb578063f6ca71b0146105d957600080fd5b8063c9ac8c8e146104ee578063ca8aa0e414610515578063d38bfff41461053c578063d9caed121461054f578063dbbb64b91461056257600080fd5b8063ad1728cb116100ff578063ad1728cb1461049c578063c1fe3e48146104a4578063c2e1e3f4146104cb578063c71daccb146104de578063c7af3352146104e657600080fd5b80637b2d9b2c1461041d578063853828b6146104305780639136616a1461043857806396d538bb1461044b578063aa388af61461045e57600080fd5b8063435356d1116101c95780635d36b1901161018d5780635d36b190146103c95780635f515226146103d157806367c7066c146103e4578063683c1ef9146103f757806379e66fcc1461040a57600080fd5b8063435356d11461034d57806347e7ef24146103605780634aa07e6414610373578063565d3e6e1461039a5780635a063f63146103c157600080fd5b806314f0747e1161021057806314f0747e146102b8578063158274a5146102cf5780633132a21d146102f65780633f6f7a141461031d578063430bf08a1461032657600080fd5b80630c340a24146102425780630ed57b3a146102675780630fc3b4c41461027c5780631072cbea146102a5575b600080fd5b61024a6105ee565b6040516001600160a01b0390911681526020015b60405180910390f35b61027a610275366004614ce3565b61060b565b005b61024a61028a366004614ca9565b6035602052600090815260409020546001600160a01b031681565b61027a6102b3366004614ddf565b610646565b6102c1609d5481565b60405190815260200161025e565b61024a7f000000000000000000000000000000000000000000000000000000000000000081565b61024a7f000000000000000000000000000000000000000000000000000000000000000081565b6102c1609e5481565b61024a7f000000000000000000000000000000000000000000000000000000000000000081565b61027a61035b366004614e4c565b610686565b61027a61036e366004614ddf565b6109b3565b61024a7f000000000000000000000000000000000000000000000000000000000000000081565b61024a7f000000000000000000000000000000000000000000000000000000000000000081565b61027a610a69565b61027a610b7b565b6102c16103df366004614ca9565b610c21565b60395461024a906001600160a01b031681565b61027a6104053660046150e6565b610d7a565b61027a6104183660046150e6565b610f2a565b61024a61042b3660046150e6565b6110da565b61027a611104565b61027a6104463660046150e6565b6116ab565b61027a610459366004614e0b565b611876565b61048c61046c366004614ca9565b6001600160a01b0390811660009081526035602052604090205416151590565b604051901515815260200161025e565b61027a61199c565b61024a7f000000000000000000000000000000000000000000000000000000000000000081565b61027a6104d9366004614ca9565b611a76565b6102c1611af5565b61048c611bcd565b61024a7f000000000000000000000000000000000000000000000000000000000000000081565b61024a7f000000000000000000000000000000000000000000000000000000000000000081565b61027a61054a366004614ca9565b611bfe565b61027a61055d366004614d1c565b611ca2565b6102c17f000000000000000000000000000000000000000000000000000000000000000081565b61024a7f000000000000000000000000000000000000000000000000000000000000000081565b61027a611dd1565b61027a6105c6366004614d5d565b612024565b61027a61036e366004614ee5565b6105e161211c565b60405161025e9190615249565b60006106066000805160206156808339815191525490565b905090565b610613611bcd565b6106385760405162461bcd60e51b815260040161062f906153e2565b60405180910390fd5b610642828261217e565b5050565b61064e611bcd565b61066a5760405162461bcd60e51b815260040161062f906153e2565b6106426106756105ee565b6001600160a01b03841690836122e3565b61068e611bcd565b6106aa5760405162461bcd60e51b815260040161062f906153e2565b600054610100900460ff16806106c3575060005460ff16155b6107265760405162461bcd60e51b815260206004820152602e60248201527f496e697469616c697a61626c653a20636f6e747261637420697320616c72656160448201526d191e481a5b9a5d1a585b1a5e995960921b606482015260840161062f565b600054610100900460ff16158015610748576000805461ffff19166101011790555b662386f26fc10000609d819055609e819055604080516000815260208101929092527fdea5bd7251b6797372e2785ac437c2b046149b71216727e0d33ab3140b11d6f7910160405180910390a1609e54604080516000815260208101929092527f42ef8699937e03e56ce59a64b430e1a18719693244c594c7884f9cb7c1c98e5c910160405180910390a160006107dd61234b565b805190915085146108305760405162461bcd60e51b815260206004820152601b60248201527f506f6f6c20617373657473206c656e677468206d69736d617463680000000000604482015260640161062f565b60005b858110156108f057600061085f8383815181106108525761085261561e565b6020026020010151612411565b9050806001600160a01b031688888481811061087d5761087d61561e565b90506020020160208101906108929190614ca9565b6001600160a01b0316146108df5760405162461bcd60e51b81526020600482015260146024820152730a0deded840c2e6e6cae8e640dad2e6dac2e8c6d60631b604482015260640161062f565b506108e9816155ab565b9050610833565b5061098f88888080602002602001604051908101604052809392919081815260200183836020028082843760009201919091525050604080516020808c0282810182019093528b82529093508b92508a91829185019084908082843760009201919091525050604080516020808b0282810182019093528a82529093508a9250899182918501908490808284376000920191909152506124d992505050565b610997612594565b5080156109aa576000805461ff00191690555b50505050505050565b336001600160a01b037f000000000000000000000000000000000000000000000000000000000000000016146109fb5760405162461bcd60e51b815260040161062f906153ab565b60008051602061566083398151915280546002811415610a2d5760405162461bcd60e51b815260040161062f90615444565b6002825560405162461bcd60e51b815260206004820152600d60248201526c139bdd081cdd5c1c1bdc9d1959609a1b604482015260640161062f565b6039546001600160a01b03163314610ac35760405162461bcd60e51b815260206004820152601b60248201527f43616c6c6572206973206e6f7420746865204861727665737465720000000000604482015260640161062f565b60008051602061566083398151915280546002811415610af55760405162461bcd60e51b815260040161062f90615444565b600282557f00000000000000000000000000000000000000000000000000000000000000006001600160a01b0316633d18b9126040518163ffffffff1660e01b8152600401600060405180830381600087803b158015610b5457600080fd5b505af1158015610b68573d6000803e3d6000fd5b50505050610b746125f6565b5060019055565b7f44c4d30b2eaad5130ad70c3ba6972730566f3e6359ab83e800d905c61b1c51db546001600160a01b0316336001600160a01b031614610c165760405162461bcd60e51b815260206004820152603060248201527f4f6e6c79207468652070656e64696e6720476f7665726e6f722063616e20636f60448201526f6d706c6574652074686520636c61696d60801b606482015260840161062f565b610c1f33612722565b565b6000610c4c7f00000000000000000000000000000000000000000000000000000000000000006127e3565b6001600160a01b0382811660009081526035602052604090205416610c835760405162461bcd60e51b815260040161062f90615419565b6000610c8d61288c565b9050603680549050610d307f00000000000000000000000000000000000000000000000000000000000000006001600160a01b031663679aefce6040518163ffffffff1660e01b815260040160206040518083038186803b158015610cf157600080fd5b505afa158015610d05573d6000803e3d6000fd5b505050506040513d601f19601f82011682018060405250810190610d2991906150ff565b83906129c7565b610d3a9190615527565b9150826001600160a01b0316610d4f846129e5565b6001600160a01b03161415610d7457610d71610d6a84612aa9565b8390612d4b565b91505b50919050565b336001600160a01b037f0000000000000000000000000000000000000000000000000000000000000000161480610dc95750610db46105ee565b6001600160a01b0316336001600160a01b0316145b80610e7557507f00000000000000000000000000000000000000000000000000000000000000006001600160a01b031663570d8e1d6040518163ffffffff1660e01b815260040160206040518083038186803b158015610e2857600080fd5b505afa158015610e3c573d6000803e3d6000fd5b505050506040513d601f19601f82011682018060405250810190610e609190614cc6565b6001600160a01b0316336001600160a01b0316145b610e915760405162461bcd60e51b815260040161062f9061546c565b670de0b6b3a7640000811115610ee95760405162461bcd60e51b815260206004820152601a60248201527f4465706f736974206465762e206f7574206f6620626f756e6473000000000000604482015260640161062f565b609e5460408051918252602082018390527f42ef8699937e03e56ce59a64b430e1a18719693244c594c7884f9cb7c1c98e5c910160405180910390a1609e55565b336001600160a01b037f0000000000000000000000000000000000000000000000000000000000000000161480610f795750610f646105ee565b6001600160a01b0316336001600160a01b0316145b8061102557507f00000000000000000000000000000000000000000000000000000000000000006001600160a01b031663570d8e1d6040518163ffffffff1660e01b815260040160206040518083038186803b158015610fd857600080fd5b505afa158015610fec573d6000803e3d6000fd5b505050506040513d601f19601f820116820180604052508101906110109190614cc6565b6001600160a01b0316336001600160a01b0316145b6110415760405162461bcd60e51b815260040161062f9061546c565b670de0b6b3a76400008111156110995760405162461bcd60e51b815260206004820152601d60248201527f5769746864726177616c206465762e206f7574206f6620626f756e6473000000604482015260640161062f565b609d5460408051918252602082018390527fdea5bd7251b6797372e2785ac437c2b046149b71216727e0d33ab3140b11d6f7910160405180910390a1609d55565b603a81815481106110ea57600080fd5b6000918252602090912001546001600160a01b0316905081565b336001600160a01b037f0000000000000000000000000000000000000000000000000000000000000000161480611153575061113e6105ee565b6001600160a01b0316336001600160a01b0316145b6111ab5760405162461bcd60e51b815260206004820152602360248201527f43616c6c6572206973206e6f7420746865205661756c74206f7220476f7665726044820152623737b960e91b606482015260840161062f565b600080516020615660833981519152805460028114156111dd5760405162461bcd60e51b815260040161062f90615444565b600282556111e9612d74565b6040516370a0823160e01b81523060048201526000907f00000000000000000000000000000000000000000000000000000000000000006001600160a01b0316906370a082319060240160206040518083038186803b15801561124b57600080fd5b505afa15801561125f573d6000803e3d6000fd5b505050506040513d601f19601f8201168201806040525081019061128391906150ff565b604051631f29a8cd60e31b81527f000000000000000000000000000000000000000000000000000000000000000060048201529091506000906001600160a01b037f0000000000000000000000000000000000000000000000000000000000000000169063f94d46689060240160006040518083038186803b15801561130857600080fd5b505afa15801561131c573d6000803e3d6000fd5b505050506040513d6000823e601f3d908101601f191682016040526113449190810190614f50565b50509050600081516001600160401b0381111561136357611363615634565b60405190808252806020026020018201604052801561138c578160200160208202803683370190505b509050600082516001600160401b038111156113aa576113aa615634565b6040519080825280602002602001820160405280156113d3578160200160208202803683370190505b50905060005b8351811015611436578381815181106113f4576113f461561e565b602002602001015182828151811061140e5761140e61561e565b6001600160a01b039092166020928302919091019091015261142f816155ab565b90506113d9565b50600060018560405160200161144d929190615354565b60408051601f1981840301815260808301825284835260208301869052828201819052600060608401529051638bdb391360e01b81529092506001600160a01b037f00000000000000000000000000000000000000000000000000000000000000001690638bdb3913906114eb907f0000000000000000000000000000000000000000000000000000000000000000903090819087906004016152e8565b600060405180830381600087803b15801561150557600080fd5b505af1158015611519573d6000803e3d6000fd5b5050505060005b855181101561169c57600086828151811061153d5761153d61561e565b60200260200101519050600061155282612411565b6040516370a0823160e01b81523060048201529091506000906001600160a01b038416906370a082319060240160206040518083038186803b15801561159757600080fd5b505afa1580156115ab573d6000803e3d6000fd5b505050506040513d601f19601f820116820180604052508101906115cf91906150ff565b9050600081156115e6576115e38383612e8f565b90505b8015611687576116206001600160a01b0384167f0000000000000000000000000000000000000000000000000000000000000000836122e3565b604080516001600160a01b037f000000000000000000000000000000000000000000000000000000000000000081168252602082018490528516917f2717ead6b9200dd235aad468c9809ea400fe33ac69b5bfaa6d3e90fc922b6398910160405180910390a25b5050505080611695906155ab565b9050611520565b50505050505050600182555050565b6116b3611bcd565b6116cf5760405162461bcd60e51b815260040161062f906153e2565b60365481106117105760405162461bcd60e51b815260206004820152600d60248201526c092dcecc2d8d2c840d2dcc8caf609b1b604482015260640161062f565b6000603682815481106117255761172561561e565b60009182526020808320909101546001600160a01b0390811680845260359092526040909220546036549193509091169061176290600190615568565b8310156117e4576036805461177990600190615568565b815481106117895761178961561e565b600091825260209091200154603680546001600160a01b0390921691859081106117b5576117b561561e565b9060005260206000200160006101000a8154816001600160a01b0302191690836001600160a01b031602179055505b60368054806117f5576117f5615608565b60008281526020808220600019908401810180546001600160a01b031990811690915593019093556001600160a01b038581168083526035855260409283902080549094169093559051908416815290917f16b7600acff27e39a8a96056b3d533045298de927507f5c1d97e4accde60488c910160405180910390a2505050565b61187e611bcd565b61189a5760405162461bcd60e51b815260040161062f906153e2565b8060005b8181101561194d5760008484838181106118ba576118ba61561e565b90506020020160208101906118cf9190614ca9565b6001600160a01b0316141561193d5760405162461bcd60e51b815260206004820152602e60248201527f43616e206e6f742073657420616e20656d70747920616464726573732061732060448201526d30903932bbb0b932103a37b5b2b760911b606482015260840161062f565b611946816155ab565b905061189e565b507f04c0b9649497d316554306e53678d5f5f5dbc3a06f97dec13ff4cfe98b986bbc603a84846040516119829392919061525c565b60405180910390a1611996603a8484614b2a565b50505050565b6119a4611bcd565b6119c05760405162461bcd60e51b815260040161062f906153e2565b600080516020615660833981519152805460028114156119f25760405162461bcd60e51b815260040161062f90615444565b6002825560365460005b81811015611a6557611a5560368281548110611a1a57611a1a61561e565b6000918252602090912001546001600160a01b03167f0000000000000000000000000000000000000000000000000000000000000000613001565b611a5e816155ab565b90506119fc565b50611a6e612594565b505060019055565b611a7e611bcd565b611a9a5760405162461bcd60e51b815260040161062f906153e2565b603980546001600160a01b0319166001600160a01b0383169081179091556040805182815260208101929092527fe48386b84419f4d36e0f96c10cc3510b6fb1a33795620c5098b22472bbe90796910160405180910390a150565b6000611b207f00000000000000000000000000000000000000000000000000000000000000006127e3565b6000611b2a61288c565b9050611bc77f00000000000000000000000000000000000000000000000000000000000000006001600160a01b031663679aefce6040518163ffffffff1660e01b815260040160206040518083038186803b158015611b8857600080fd5b505afa158015611b9c573d6000803e3d6000fd5b505050506040513d601f19601f82011682018060405250810190611bc091906150ff565b82906129c7565b91505090565b6000611be56000805160206156808339815191525490565b6001600160a01b0316336001600160a01b031614905090565b611c06611bcd565b611c225760405162461bcd60e51b815260040161062f906153e2565b611c4a817f44c4d30b2eaad5130ad70c3ba6972730566f3e6359ab83e800d905c61b1c51db55565b806001600160a01b0316611c6a6000805160206156808339815191525490565b6001600160a01b03167fa39cc5eb22d0f34d8beaefee8a3f17cc229c1a1d1ef87a5ad47313487b1c4f0d60405160405180910390a350565b336001600160a01b037f00000000000000000000000000000000000000000000000000000000000000001614611cea5760405162461bcd60e51b815260040161062f906153ab565b60008051602061566083398151915280546002811415611d1c5760405162461bcd60e51b815260040161062f90615444565b600282556040805160018082528183019092526000916020808301908036833750506040805160018082528183019092529293506000929150602080830190803683370190505090508582600081518110611d7957611d7961561e565b60200260200101906001600160a01b031690816001600160a01b0316815250508481600081518110611dad57611dad61561e565b602002602001018181525050611dc4878383613219565b5050600182555050505050565b336001600160a01b037f00000000000000000000000000000000000000000000000000000000000000001614611e195760405162461bcd60e51b815260040161062f906153ab565b60008051602061566083398151915280546002811415611e4b5760405162461bcd60e51b815260040161062f90615444565b600282556036546000816001600160401b03811115611e6c57611e6c615634565b604051908082528060200260200182016040528015611e95578160200160208202803683370190505b5090506000826001600160401b03811115611eb257611eb2615634565b604051908082528060200260200182016040528015611edb578160200160208202803683370190505b50905060005b8381101561200e5760368181548110611efc57611efc61561e565b9060005260206000200160009054906101000a90046001600160a01b0316838281518110611f2c57611f2c61561e565b60200260200101906001600160a01b031690816001600160a01b031681525050828181518110611f5e57611f5e61561e565b60209081029190910101516040516370a0823160e01b81523060048201526001600160a01b03909116906370a082319060240160206040518083038186803b158015611fa957600080fd5b505afa158015611fbd573d6000803e3d6000fd5b505050506040513d601f19601f82011682018060405250810190611fe191906150ff565b828281518110611ff357611ff361561e565b6020908102919091010152612007816155ab565b9050611ee1565b5061201982826139cf565b505050600182555050565b336001600160a01b037f0000000000000000000000000000000000000000000000000000000000000000161461206c5760405162461bcd60e51b815260040161062f906153ab565b6000805160206156608339815191528054600281141561209e5760405162461bcd60e51b815260040161062f90615444565b600282556121108787878080602002602001604051908101604052809392919081815260200183836020028082843760009201919091525050604080516020808b0282810182019093528a82529093508a92508991829185019084908082843760009201919091525061321992505050565b50600190555050505050565b6060603a80548060200260200160405190810160405280929190818152602001828054801561217457602002820191906000526020600020905b81546001600160a01b03168152600190910190602001808311612156575b5050505050905090565b6001600160a01b0382811660009081526035602052604090205416156121db5760405162461bcd60e51b81526020600482015260126024820152711c151bdad95b88185b1c9958591e481cd95d60721b604482015260640161062f565b6001600160a01b038216158015906121fb57506001600160a01b03811615155b61223b5760405162461bcd60e51b8152602060048201526011602482015270496e76616c69642061646472657373657360781b604482015260640161062f565b6001600160a01b03828116600081815260356020908152604080832080549587166001600160a01b031996871681179091556036805460018101825594527f4a11f94e20a93c79f6ec743a1954ec4fc2c08429ae2122118bf234b2185c81b890930180549095168417909455925190815290917fef6485b84315f9b1483beffa32aae9a0596890395e3d7521f1c5fbb51790e765910160405180910390a26106428282613001565b6040516001600160a01b03831660248201526044810182905261234690849063a9059cbb60e01b906064015b60408051601f198184030181529190526020810180516001600160e01b03166001600160e01b031990931692909217909152613f80565b505050565b604051631f29a8cd60e31b81527f000000000000000000000000000000000000000000000000000000000000000060048201526060907f00000000000000000000000000000000000000000000000000000000000000006001600160a01b03169063f94d46689060240160006040518083038186803b1580156123cd57600080fd5b505afa1580156123e1573d6000803e3d6000fd5b505050506040513d6000823e601f3d908101601f191682016040526124099190810190614f50565b509092915050565b60007f00000000000000000000000000000000000000000000000000000000000000006001600160a01b0316826001600160a01b0316141561247457507f0000000000000000000000000000000000000000000000000000000000000000919050565b7f00000000000000000000000000000000000000000000000000000000000000006001600160a01b0316826001600160a01b031614156124d557507f0000000000000000000000000000000000000000000000000000000000000000919050565b5090565b82516124ec90603a906020860190614b89565b508151815181146125365760405162461bcd60e51b8152602060048201526014602482015273496e76616c696420696e7075742061727261797360601b604482015260640161062f565b60005b8181101561258d5761257d8482815181106125565761255661561e565b60200260200101518483815181106125705761257061561e565b602002602001015161217e565b612586816155ab565b9050612539565b5050505050565b61259c614052565b7f00000000000000000000000000000000000000000000000000000000000000006125f36001600160a01b0382167f00000000000000000000000000000000000000000000000000000000000000006000196140a5565b50565b603a5460005b81811015610642576000603a82815481106126195761261961561e565b60009182526020822001546040516370a0823160e01b81523060048201526001600160a01b03909116925082906370a082319060240160206040518083038186803b15801561266757600080fd5b505afa15801561267b573d6000803e3d6000fd5b505050506040513d601f19601f8201168201806040525081019061269f91906150ff565b9050801561270f57603954604080516001600160a01b039283168152918416602083015281018290527ff6c07a063ed4e63808eb8da7112d46dbcd38de2b40a73dbcc9353c5a94c723539060600160405180910390a160395461270f906001600160a01b038481169116836122e3565b50508061271b906155ab565b90506125fc565b6001600160a01b0381166127785760405162461bcd60e51b815260206004820152601a60248201527f4e657720476f7665726e6f722069732061646472657373283029000000000000604482015260640161062f565b806001600160a01b03166127986000805160206156808339815191525490565b6001600160a01b03167fc7c0c772add429241571afb3805861fb3cfa2af374534088b76cdb4325a87e9a60405160405180910390a36125f38160008051602061568083398151915255565b604080516000602480830182905283518084039091018152604490920183526020820180516001600160e01b03166303a38fa160e21b17905291516001600160a01b0384169161271091612837919061522d565b6000604051808303818686fa925050503d8060008114612873576040519150601f19603f3d011682016040523d82523d6000602084013e612878565b606091505b5091505061064281516000146101906141c9565b604051636c82bbbf60e11b81523060048201526000907f00000000000000000000000000000000000000000000000000000000000000006001600160a01b03169063d905777e9060240160206040518083038186803b1580156128ee57600080fd5b505afa158015612902573d6000803e3d6000fd5b505050506040513d601f19601f8201168201806040525081019061292691906150ff565b6040516370a0823160e01b81523060048201527f00000000000000000000000000000000000000000000000000000000000000006001600160a01b0316906370a082319060240160206040518083038186803b15801561298557600080fd5b505afa158015612999573d6000803e3d6000fd5b505050506040513d601f19601f820116820180604052508101906129bd91906150ff565b610606919061550f565b60006129dc8383670de0b6b3a76400006141d7565b90505b92915050565b60007f00000000000000000000000000000000000000000000000000000000000000006001600160a01b0316826001600160a01b03161415612a4857507f0000000000000000000000000000000000000000000000000000000000000000919050565b7f00000000000000000000000000000000000000000000000000000000000000006001600160a01b0316826001600160a01b031614156124d557507f0000000000000000000000000000000000000000000000000000000000000000919050565b6000807f000000000000000000000000000000000000000000000000000000000000000090506000816001600160a01b031663238a2d596040518163ffffffff1660e01b815260040160006040518083038186803b158015612b0a57600080fd5b505afa158015612b1e573d6000803e3d6000fd5b505050506040513d6000823e601f3d908101601f19168201604052612b469190810190615024565b604051631f29a8cd60e31b81527f000000000000000000000000000000000000000000000000000000000000000060048201529091506000906001600160a01b037f0000000000000000000000000000000000000000000000000000000000000000169063f94d46689060240160006040518083038186803b158015612bcb57600080fd5b505afa158015612bdf573d6000803e3d6000fd5b505050506040513d6000823e601f3d908101601f19168201604052612c079190810190614f50565b5050825190915060005b81811015612d3957866001600160a01b0316838281518110612c3557612c3561561e565b60200260200101516001600160a01b03161415612d295760006001600160a01b0316848281518110612c6957612c6961561e565b60200260200101516001600160a01b03161415612c945750670de0b6b3a76400009695505050505050565b838181518110612ca657612ca661561e565b60200260200101516001600160a01b031663679aefce6040518163ffffffff1660e01b815260040160206040518083038186803b158015612ce657600080fd5b505afa158015612cfa573d6000803e3d6000fd5b505050506040513d601f19601f82011682018060405250810190612d1e91906150ff565b979650505050505050565b612d32816155ab565b9050612c11565b50612d426155c6565b50505050919050565b600080612d6084670de0b6b3a76400006141fb565b9050612d6c8184614207565b949350505050565b604051636c82bbbf60e11b81523060048201526000907f00000000000000000000000000000000000000000000000000000000000000006001600160a01b03169063d905777e9060240160206040518083038186803b158015612dd657600080fd5b505afa158015612dea573d6000803e3d6000fd5b505050506040513d601f19601f82011682018060405250810190612e0e91906150ff565b604051636197390160e11b815260048101829052600160248201529091507f00000000000000000000000000000000000000000000000000000000000000006001600160a01b03169063c32e7202906044015b600060405180830381600087803b158015612e7b57600080fd5b505af115801561258d573d6000803e3d6000fd5b60007f00000000000000000000000000000000000000000000000000000000000000006001600160a01b0316836001600160a01b03161415612f6d57604051636f074d1f60e11b8152600481018390527f00000000000000000000000000000000000000000000000000000000000000006001600160a01b03169063de0e9a3e906024015b602060405180830381600087803b158015612f2e57600080fd5b505af1158015612f42573d6000803e3d6000fd5b505050506040513d601f19601f82011682018060405250810190612f6691906150ff565b90506129df565b7f00000000000000000000000000000000000000000000000000000000000000006001600160a01b0316836001600160a01b03161415610d7457604051632d182be560e21b815260048101839052306024820181905260448201527f00000000000000000000000000000000000000000000000000000000000000006001600160a01b03169063b460af9490606401612f14565b600061300c836129e5565b90507f00000000000000000000000000000000000000000000000000000000000000006001600160a01b0316836001600160a01b031614156131115760405163095ea7b360e01b81526001600160a01b037f00000000000000000000000000000000000000000000000000000000000000008116600483015260001960248301527f0000000000000000000000000000000000000000000000000000000000000000169063095ea7b390604401602060405180830381600087803b1580156130d357600080fd5b505af11580156130e7573d6000803e3d6000fd5b505050506040513d601f19601f8201168201806040525081019061310b91906150c4565b50613210565b7f00000000000000000000000000000000000000000000000000000000000000006001600160a01b0316836001600160a01b031614156132105760405163095ea7b360e01b81526001600160a01b037f00000000000000000000000000000000000000000000000000000000000000008116600483015260001960248301527f0000000000000000000000000000000000000000000000000000000000000000169063095ea7b390604401602060405180830381600087803b1580156131d657600080fd5b505af11580156131ea573d6000803e3d6000fd5b505050506040513d601f19601f8201168201806040525081019061320e91906150c4565b505b61234681614213565b80518251146132615760405162461bcd60e51b8152602060048201526014602482015273496e76616c696420696e7075742061727261797360601b604482015260640161062f565b60005b82518110156132e45760006001600160a01b03166035600085848151811061328e5761328e61561e565b6020908102919091018101516001600160a01b03908116835290820192909252604001600020541614156132d45760405162461bcd60e51b815260040161062f90615419565b6132dd816155ab565b9050613264565b50604051631f29a8cd60e31b81527f000000000000000000000000000000000000000000000000000000000000000060048201526000907f00000000000000000000000000000000000000000000000000000000000000006001600160a01b03169063f94d46689060240160006040518083038186803b15801561336757600080fd5b505afa15801561337b573d6000803e3d6000fd5b505050506040513d6000823e601f3d908101601f191682016040526133a39190810190614f50565b50509050600081516001600160401b038111156133c2576133c2615634565b6040519080825280602002602001820160405280156133eb578160200160208202803683370190505b509050600082516001600160401b0381111561340957613409615634565b604051908082528060200260200182016040528015613432578160200160208202803683370190505b509050600085516001600160401b0381111561345057613450615634565b604051908082528060200260200182016040528015613479578160200160208202803683370190505b50905060005b84518110156136185784818151811061349a5761349a61561e565b60200260200101518382815181106134b4576134b461561e565b60200260200101906001600160a01b031690816001600160a01b03168152505060006134eb8483815181106108525761085261561e565b905060005b885181101561360557816001600160a01b03168982815181106135155761351561561e565b60200260200101516001600160a01b031614156135f55761354f828983815181106135425761354261561e565b60200260200101516142b9565b90508684815181106135635761356361561e565b6020026020010181815250508583815181106135815761358161561e565b602002602001015184828151811061359b5761359b61561e565b60200260200101818152505060008684815181106135bb576135bb61561e565b602002602001015111156135f55760028684815181106135dd576135dd61561e565b602002602001018181516135f1919061550f565b9052505b6135fe816155ab565b90506134f0565b505080613611906155ab565b905061347f565b506000613625838561447c565b9050613640609d54670de0b6b3a7640000611bc0919061550f565b6040516370a0823160e01b81523060048201529091506136ed906001600160a01b037f000000000000000000000000000000000000000000000000000000000000000016906370a082319060240160206040518083038186803b1580156136a657600080fd5b505afa1580156136ba573d6000803e3d6000fd5b505050506040513d601f19601f820116820180604052508101906136de91906150ff565b6136e89083615568565b6145eb565b60006002858360405160200161370593929190615324565b60405160208183030381529060405290506000604051806080016040528086815260200188516001600160401b0381111561374257613742615634565b60405190808252806020026020018201604052801561376b578160200160208202803683370190505b50815260208101849052600060409182015251638bdb391360e01b81529091506001600160a01b037f00000000000000000000000000000000000000000000000000000000000000001690638bdb3913906137f0907f0000000000000000000000000000000000000000000000000000000000000000903090819087906004016152e8565b600060405180830381600087803b15801561380a57600080fd5b505af115801561381e573d6000803e3d6000fd5b5050505061382a61463f565b60005b89518110156139c257600085828151811061384a5761384a61561e565b60200260200101511115613896576138948a828151811061386d5761386d61561e565b60200260200101518683815181106138875761388761561e565b6020026020010151612e8f565b505b60008982815181106138aa576138aa61561e565b602002602001015111156139b2576139088b8a83815181106138ce576138ce61561e565b60200260200101518c84815181106138e8576138e861561e565b60200260200101516001600160a01b03166122e39092919063ffffffff16565b89818151811061391a5761391a61561e565b60200260200101516001600160a01b03167f2717ead6b9200dd235aad468c9809ea400fe33ac69b5bfaa6d3e90fc922b63987f00000000000000000000000000000000000000000000000000000000000000008b848151811061397f5761397f61561e565b60200260200101516040516139a99291906001600160a01b03929092168252602082015260400190565b60405180910390a25b6139bb816155ab565b905061382d565b5050505050505050505050565b8051825114613a195760405162461bcd60e51b8152602060048201526016602482015275082e4e4c2f240d8cadccee8d040dad2e6e6dac2e8c6d60531b604482015260640161062f565b604051631f29a8cd60e31b81527f000000000000000000000000000000000000000000000000000000000000000060048201526000907f00000000000000000000000000000000000000000000000000000000000000006001600160a01b03169063f94d46689060240160006040518083038186803b158015613a9b57600080fd5b505afa158015613aaf573d6000803e3d6000fd5b505050506040513d6000823e601f3d908101601f19168201604052613ad79190810190614f50565b50509050600083516001600160401b03811115613af657613af6615634565b604051908082528060200260200182016040528015613b1f578160200160208202803683370190505b509050600084516001600160401b03811115613b3d57613b3d615634565b604051908082528060200260200182016040528015613b66578160200160208202803683370190505b50905060005b8551811015613ccb576000868281518110613b8957613b8961561e565b602002602001015190506000868381518110613ba757613ba761561e565b6020908102919091018101516001600160a01b038481166000908152603590935260409092205490925016613bee5760405162461bcd60e51b815260040161062f90615419565b613bf7826129e5565b848481518110613c0957613c0961561e565b6001600160a01b03909216602092830291909101909101528015613cb857604080516001600160a01b037f000000000000000000000000000000000000000000000000000000000000000081168252602082018490528416917f5548c837ab068cf56a2c2479df0882a4922fd203edb7517321831d95078c5f62910160405180910390a2613c9782826147c1565b9050858481518110613cab57613cab61561e565b6020026020010181815250505b505080613cc4906155ab565b9050613b6c565b50600083516001600160401b03811115613ce757613ce7615634565b604051908082528060200260200182016040528015613d10578160200160208202803683370190505b509050600084516001600160401b03811115613d2e57613d2e615634565b604051908082528060200260200182016040528015613d57578160200160208202803683370190505b50905060005b8551811015613e6457858181518110613d7857613d7861561e565b6020026020010151828281518110613d9257613d9261561e565b60200260200101906001600160a01b031690816001600160a01b03168152505060005b8451811015613e5357848181518110613dd057613dd061561e565b60200260200101516001600160a01b0316838381518110613df357613df361561e565b60200260200101516001600160a01b03161415613e4357858181518110613e1c57613e1c61561e565b6020026020010151848381518110613e3657613e3661561e565b6020026020010181815250505b613e4c816155ab565b9050613db5565b50613e5d816155ab565b9050613d5d565b506000613e71848661447c565b90506000613e8e609e54670de0b6b3a7640000610d299190615568565b9050600060018583604051602001613ea89392919061536f565b60408051601f198184030181526080830182528683526020830188905282820181905260006060840152905163172b958560e31b81529092506001600160a01b037f0000000000000000000000000000000000000000000000000000000000000000169063b95cac2890613f46907f0000000000000000000000000000000000000000000000000000000000000000903090819087906004016152e8565b600060405180830381600087803b158015613f6057600080fd5b505af1158015613f74573d6000803e3d6000fd5b505050506139c261463f565b6000613fd5826040518060400160405280602081526020017f5361666545524332303a206c6f772d6c6576656c2063616c6c206661696c6564815250856001600160a01b03166149549092919063ffffffff16565b8051909150156123465780806020019051810190613ff391906150c4565b6123465760405162461bcd60e51b815260206004820152602a60248201527f5361666545524332303a204552433230206f7065726174696f6e20646964206e6044820152691bdd081cdd58d8d9595960b21b606482015260840161062f565b7f00000000000000000000000000000000000000000000000000000000000000006125f36001600160a01b0382167f00000000000000000000000000000000000000000000000000000000000000006000195b80158061412e5750604051636eb1769f60e11b81523060048201526001600160a01b03838116602483015284169063dd62ed3e9060440160206040518083038186803b1580156140f457600080fd5b505afa158015614108573d6000803e3d6000fd5b505050506040513d601f19601f8201168201806040525081019061412c91906150ff565b155b6141995760405162461bcd60e51b815260206004820152603660248201527f5361666545524332303a20617070726f76652066726f6d206e6f6e2d7a65726f60448201527520746f206e6f6e2d7a65726f20616c6c6f77616e636560501b606482015260840161062f565b6040516001600160a01b03831660248201526044810182905261234690849063095ea7b360e01b9060640161230f565b816106425761064281614963565b6000806141e485856141fb565b90506141f08184614207565b9150505b9392505050565b60006129dc8284615549565b60006129dc8284615527565b60405163095ea7b360e01b81526001600160a01b037f000000000000000000000000000000000000000000000000000000000000000081166004830152600019602483015282919082169063095ea7b390604401602060405180830381600087803b15801561428157600080fd5b505af1158015614295573d6000803e3d6000fd5b505050506040513d601f19601f8201168201806040525081019061234691906150c4565b6000807f00000000000000000000000000000000000000000000000000000000000000006001600160a01b0316846001600160a01b031614156143bf577f0000000000000000000000000000000000000000000000000000000000000000915082156143ba5760405162b0e38960e81b8152600481018490527f00000000000000000000000000000000000000000000000000000000000000006001600160a01b03169063b0e38900906024015b60206040518083038186803b15801561437f57600080fd5b505afa158015614393573d6000803e3d6000fd5b505050506040513d601f19601f820116820180604052508101906143b791906150ff565b90505b614475565b7f00000000000000000000000000000000000000000000000000000000000000006001600160a01b0316846001600160a01b0316141561446f577f0000000000000000000000000000000000000000000000000000000000000000915082156143ba576040516363737ac960e11b8152600481018490527f00000000000000000000000000000000000000000000000000000000000000006001600160a01b03169063c6e6f59290602401614367565b50829050815b9250929050565b600081518351146144cf5760405162461bcd60e51b815260206004820152601960248201527f417373657473202620616d6f756e7473206d69736d6174636800000000000000604482015260640161062f565b60005b835181101561454b5760006144ff8583815181106144f2576144f261561e565b6020026020010151612aa9565b905061452d818584815181106145175761451761561e565b60200260200101516129c790919063ffffffff16565b614537908461550f565b92505080614544906155ab565b90506144d2565b5060007f00000000000000000000000000000000000000000000000000000000000000006001600160a01b031663679aefce6040518163ffffffff1660e01b815260040160206040518083038186803b1580156145a757600080fd5b505afa1580156145bb573d6000803e3d6000fd5b505050506040513d601f19601f820116820180604052508101906145df91906150ff565b9050612d6c8282612d4b565b604051636197390160e11b815260048101829052600160248201527f00000000000000000000000000000000000000000000000000000000000000006001600160a01b03169063c32e720290604401612e61565b6040516370a0823160e01b81523060048201526000907f00000000000000000000000000000000000000000000000000000000000000006001600160a01b0316906370a082319060240160206040518083038186803b1580156146a157600080fd5b505afa1580156146b5573d6000803e3d6000fd5b505050506040513d601f19601f820116820180604052508101906146d991906150ff565b604051636e553f6560e01b8152600481018290523060248201529091506000906001600160a01b037f00000000000000000000000000000000000000000000000000000000000000001690636e553f6590604401602060405180830381600087803b15801561474757600080fd5b505af115801561475b573d6000803e3d6000fd5b505050506040513d601f19601f8201168201806040525081019061477f91906150ff565b90508082146106425760405162461bcd60e51b815260206004820152600e60248201526d105d5c9848131408084f4810941560921b604482015260640161062f565b6000807f00000000000000000000000000000000000000000000000000000000000000006001600160a01b0316846001600160a01b0316141561489e577f0000000000000000000000000000000000000000000000000000000000000000915082156143ba57604051630ea598cb60e41b8152600481018490527f00000000000000000000000000000000000000000000000000000000000000006001600160a01b03169063ea598cb0906024015b602060405180830381600087803b15801561488a57600080fd5b505af1158015614393573d6000803e3d6000fd5b7f00000000000000000000000000000000000000000000000000000000000000006001600160a01b0316846001600160a01b0316141561446f577f0000000000000000000000000000000000000000000000000000000000000000915082156143ba57604051636e553f6560e01b8152600481018490523060248201527f00000000000000000000000000000000000000000000000000000000000000006001600160a01b031690636e553f6590604401614870565b6060612d6c8484600085614973565b6125f3816210905360ea1b614a90565b6060824710156149d45760405162461bcd60e51b815260206004820152602660248201527f416464726573733a20696e73756666696369656e742062616c616e636520666f6044820152651c8818d85b1b60d21b606482015260840161062f565b843b614a225760405162461bcd60e51b815260206004820152601d60248201527f416464726573733a2063616c6c20746f206e6f6e2d636f6e7472616374000000604482015260640161062f565b600080866001600160a01b03168587604051614a3e919061522d565b60006040518083038185875af1925050503d8060008114614a7b576040519150601f19603f3d011682016040523d82523d6000602084013e614a80565b606091505b5091509150612d1e828286614af1565b62461bcd60e51b600090815260206004526007602452600a808404818106603090810160081b958390069590950190829004918206850160101b01602363ffffff0060e086901c160160181b0190930160c81b60445260e882901c90606490fd5b60608315614b005750816141f4565b825115614b105782518084602001fd5b8160405162461bcd60e51b815260040161062f9190615398565b828054828255906000526020600020908101928215614b7d579160200282015b82811115614b7d5781546001600160a01b0319166001600160a01b03843516178255602090920191600190910190614b4a565b506124d5929150614bde565b828054828255906000526020600020908101928215614b7d579160200282015b82811115614b7d57825182546001600160a01b0319166001600160a01b03909116178255602090920191600190910190614ba9565b5b808211156124d55760008155600101614bdf565b60008083601f840112614c0557600080fd5b5081356001600160401b03811115614c1c57600080fd5b6020830191508360208260051b850101111561447557600080fd5b600082601f830112614c4857600080fd5b81516020614c5d614c58836154ec565b6154bc565b80838252828201915082860187848660051b8901011115614c7d57600080fd5b60005b85811015614c9c57815184529284019290840190600101614c80565b5090979650505050505050565b600060208284031215614cbb57600080fd5b81356141f48161564a565b600060208284031215614cd857600080fd5b81516141f48161564a565b60008060408385031215614cf657600080fd5b8235614d018161564a565b91506020830135614d118161564a565b809150509250929050565b600080600060608486031215614d3157600080fd5b8335614d3c8161564a565b92506020840135614d4c8161564a565b929592945050506040919091013590565b600080600080600060608688031215614d7557600080fd5b8535614d808161564a565b945060208601356001600160401b0380821115614d9c57600080fd5b614da889838a01614bf3565b90965094506040880135915080821115614dc157600080fd5b50614dce88828901614bf3565b969995985093965092949392505050565b60008060408385031215614df257600080fd5b8235614dfd8161564a565b946020939093013593505050565b60008060208385031215614e1e57600080fd5b82356001600160401b03811115614e3457600080fd5b614e4085828601614bf3565b90969095509350505050565b60008060008060008060608789031215614e6557600080fd5b86356001600160401b0380821115614e7c57600080fd5b614e888a838b01614bf3565b90985096506020890135915080821115614ea157600080fd5b614ead8a838b01614bf3565b90965094506040890135915080821115614ec657600080fd5b50614ed389828a01614bf3565b979a9699509497509295939492505050565b60008060008060408587031215614efb57600080fd5b84356001600160401b0380821115614f1257600080fd5b614f1e88838901614bf3565b90965094506020870135915080821115614f3757600080fd5b50614f4487828801614bf3565b95989497509550505050565b600080600060608486031215614f6557600080fd5b83516001600160401b0380821115614f7c57600080fd5b818601915086601f830112614f9057600080fd5b81516020614fa0614c58836154ec565b8083825282820191508286018b848660051b8901011115614fc057600080fd5b600096505b84871015614fec578051614fd88161564a565b835260019690960195918301918301614fc5565b509189015191975090935050508082111561500657600080fd5b5061501386828701614c37565b925050604084015190509250925092565b6000602080838503121561503757600080fd5b82516001600160401b0381111561504d57600080fd5b8301601f8101851361505e57600080fd5b805161506c614c58826154ec565b80828252848201915084840188868560051b870101111561508c57600080fd5b600094505b838510156150b85780516150a48161564a565b835260019490940193918501918501615091565b50979650505050505050565b6000602082840312156150d657600080fd5b815180151581146141f457600080fd5b6000602082840312156150f857600080fd5b5035919050565b60006020828403121561511157600080fd5b5051919050565b600081518084526020808501945080840160005b838110156151515781516001600160a01b03168752958201959082019060010161512c565b509495945050505050565b600081518084526020808501945080840160005b8381101561515157815187529582019590820190600101615170565b600081518084526151a481602086016020860161557f565b601f01601f19169290920160200192915050565b600481106151c8576151c86155f2565b9052565b60008151608084526151e16080850182615118565b9050602083015184820360208601526151fa828261515c565b91505060408301518482036040860152615214828261518c565b9150506060830151151560608501528091505092915050565b6000825161523f81846020870161557f565b9190910192915050565b6020815260006129dc6020830184615118565b6000604082016040835280865480835260608501915087600052602092508260002060005b828110156152a65781546001600160a01b031684529284019260019182019101615281565b505050838103828501528481528590820160005b868110156150b85782356152cd8161564a565b6001600160a01b0316825291830191908301906001016152ba565b8481526001600160a01b0384811660208301528316604082015260806060820181905260009061531a908301846151cc565b9695505050505050565b61532e81856151b8565b606060208201526000615344606083018561515c565b9050826040830152949350505050565b6040810161536282856151b8565b8260208301529392505050565b600060058510615381576153816155f2565b84825260606020830152615344606083018561515c565b6020815260006129dc602083018461518c565b60208082526017908201527f43616c6c6572206973206e6f7420746865205661756c74000000000000000000604082015260600190565b6020808252601a908201527f43616c6c6572206973206e6f742074686520476f7665726e6f72000000000000604082015260600190565b602080825260119082015270155b9cdd5c1c1bdc9d195908185cdcd95d607a1b604082015260600190565b6020808252600e908201526d1499595b9d1c985b9d0818d85b1b60921b604082015260600190565b60208082526030908201527f43616c6c6572206973206e6f7420746865205661756c742c20476f7665726e6f60408201526f1c8b081bdc8814dd1c985d1959da5cdd60821b606082015260800190565b604051601f8201601f191681016001600160401b03811182821017156154e4576154e4615634565b604052919050565b60006001600160401b0382111561550557615505615634565b5060051b60200190565b60008219821115615522576155226155dc565b500190565b60008261554457634e487b7160e01b600052601260045260246000fd5b500490565b6000816000190483118215151615615563576155636155dc565b500290565b60008282101561557a5761557a6155dc565b500390565b60005b8381101561559a578181015183820152602001615582565b838111156119965750506000910152565b60006000198214156155bf576155bf6155dc565b5060010190565b634e487b7160e01b600052600160045260246000fd5b634e487b7160e01b600052601160045260246000fd5b634e487b7160e01b600052602160045260246000fd5b634e487b7160e01b600052603160045260246000fd5b634e487b7160e01b600052603260045260246000fd5b634e487b7160e01b600052604160045260246000fd5b6001600160a01b03811681146125f357600080fdfe53bf423e48ed90e97d02ab0ebab13b2a235a6bfbe9c321847d5c175333ac45357bea13895fa79d2831e0a9e28edede30099005a50d652d8957cf8a607ee6ca4aa2646970667358221220f42ab76c048f0b7d0ef9c1d2349eac2e10061063b301a1e3724e41e4279aef0364736f6c634300080700337bea13895fa79d2831e0a9e28edede30099005a50d652d8957cf8a607ee6ca4a",
  "devdoc": {
    "kind": "dev",
    "methods": {
      "checkBalance()": {
        "returns": {
          "value": "The ETH value IMPORTANT if this function is overridden it needs to have a whenNotInBalancerVaultContext modifier on it or it is susceptible to read-only re-entrancy attack"
        }
      },
      "checkBalance(address)": {
        "details": "it is important that this function is not affected by reporting inflated values of assets in case of any pool manipulation. Such a manipulation could easily exploit the protocol by:  - minting OETH  - tilting Balancer pool to report higher balances of assets  - rebasing() -> all that extra token balances get distributed to OETH holders  - tilting pool back  - redeeming OETH",
        "params": {
          "_asset": "Address of the Vault collateral asset"
        },
        "returns": {
          "amount": " the amount of vault collateral assets IMPORTANT if this function is overridden it needs to have a whenNotInBalancerVaultContext modifier on it or it is susceptible to read-only re-entrancy attack"
        }
      },
      "getRewardTokenAddresses()": {
        "returns": {
          "_0": "address[] the reward token addresses."
        }
      },
      "initialize(address[],address[],address[])": {
        "params": {
          "_assets": "Addresses of supported assets. MUST be passed in the same                order as returned by coins on the pool contract, i.e.                WETH, stETH",
          "_pTokens": "Platform Token corresponding addresses",
          "_rewardTokenAddresses": "Address of BAL & AURA"
        }
      },
      "removePToken(uint256)": {
        "params": {
          "_assetIndex": "Index of the asset to be removed"
        }
      },
      "setHarvesterAddress(address)": {
        "params": {
          "_harvesterAddress": "Address of the harvester contract."
        }
      },
      "setMaxDepositDeviation(uint256)": {
        "params": {
          "_maxDepositDeviation": "Max deposit deviation denominated in        wad (number with 18 decimals): 1e18 == 100%, 1e16 == 1% IMPORTANT Minimum maxDepositDeviation will default to 1% (1e16) for production usage. Vault value checker in combination with checkBalance will catch any unexpected manipulation."
        }
      },
      "setMaxWithdrawalDeviation(uint256)": {
        "params": {
          "_maxWithdrawalDeviation": "Max withdrawal deviation denominated in        wad (number with 18 decimals): 1e18 == 100%, 1e16 == 1% IMPORTANT Minimum maxWithdrawalDeviation will be 1% (1e16) for production usage. Vault value checker in combination with checkBalance will catch any unexpected manipulation."
        }
      },
      "setPTokenAddress(address,address)": {
        "params": {
          "_asset": "Address for the asset",
          "_pToken": "Address for the corresponding platform token"
        }
      },
      "setRewardTokenAddresses(address[])": {
        "params": {
          "_rewardTokenAddresses": "Array of reward token addresses"
        }
      },
      "supportsAsset(address)": {
        "params": {
          "_asset": "Address of the asset"
        }
      },
      "transferGovernance(address)": {
        "params": {
          "_newGovernor": "Address of the new Governor"
        }
      },
      "transferToken(address,uint256)": {
        "params": {
          "_amount": "Amount of the asset to transfer",
          "_asset": "Address for the asset"
        }
      },
      "withdraw(address,address,uint256)": {
        "params": {
          "_recipient": "Address to receive the Vault collateral assets. Typically is the Vault.",
          "_strategyAmount": "The amount of Vault collateral assets to withdraw",
          "_strategyAsset": "Address of the Vault collateral asset"
        }
      },
      "withdraw(address,address[],uint256[])": {
        "params": {
          "_recipient": "Address to receive the Vault collateral assets. Typically is the Vault.",
          "_strategyAmounts": "The amounts of Vault collateral assets to withdraw",
          "_strategyAssets": "Addresses of the Vault collateral assets"
        }
      }
    },
    "version": 1
  },
  "userdoc": {
    "kind": "user",
    "methods": {
      "assetToPToken(address)": {
        "notice": "asset => pToken (Platform Specific Token Address)"
      },
      "auraRewardPoolAddress()": {
        "notice": "Address of the Aura rewards pool"
      },
      "balancerPoolId()": {
        "notice": "Balancer pool identifier"
      },
      "balancerVault()": {
        "notice": "Address of the Balancer vault"
      },
      "checkBalance()": {
        "notice": "Returns the value of all assets managed by this strategy. Uses the Balancer pool's rate (virtual price) to convert the strategy's Balancer Pool Tokens (BPT) to ETH value."
      },
      "checkBalance(address)": {
        "notice": "Get strategy's share of an assets in the Balancer pool. This is not denominated in OUSD/ETH value of the assets in the Balancer pool."
      },
      "claimGovernance()": {
        "notice": "Claim Governance of the contract to a new account (`newGovernor`). Can only be called by the new Governor."
      },
      "collectRewardTokens()": {
        "notice": "Collects BAL and AURA tokens from the rewards pool."
      },
      "deposit(address,uint256)": {
        "notice": "There are no plans to configure BalancerMetaPool as a default asset strategy. For that reason there is no need to support this functionality."
      },
      "deposit(address[],uint256[])": {
        "notice": "There are no plans to configure BalancerMetaPool as a default asset strategy. For that reason there is no need to support this functionality."
      },
      "depositAll()": {
        "notice": "Deposits all supported assets in this strategy contract to the Balancer pool."
      },
      "getRewardTokenAddresses()": {
        "notice": "Get the reward token addresses."
      },
      "governor()": {
        "notice": "Returns the address of the current Governor."
      },
      "harvesterAddress()": {
        "notice": "Address of the Harvester contract allowed to collect reward tokens"
      },
      "initialize(address[],address[],address[])": {
        "notice": "Initializer for setting up strategy internal state. This overrides the InitializableAbstractStrategy initializer as Balancer's strategies don't fit well within that abstraction."
      },
      "isGovernor()": {
        "notice": "Returns true if the caller is the current Governor."
      },
      "platformAddress()": {
        "notice": "Address of the underlying platform"
      },
      "removePToken(uint256)": {
        "notice": "Remove a supported asset by passing its index.      This method can only be called by the system Governor"
      },
      "rewardTokenAddresses(uint256)": {
        "notice": "Address of the reward tokens. eg CRV, BAL, CVX, AURA"
      },
      "safeApproveAllTokens()": {
        "notice": "Approves the Balancer Vault to transfer poolAsset counterparts of all of the supported assets from this strategy. E.g. stETH is a supported strategy and Balancer Vault gets unlimited approval to transfer wstETH. If Balancer pool uses a wrapped version of a supported asset then also approve unlimited usage of an asset to the contract responsible for wrapping. Approve unlimited spending by Balancer Vault and Aura reward pool of the pool BPT tokens. Is only executable by the Governor."
      },
      "setHarvesterAddress(address)": {
        "notice": "Set the Harvester contract that can collect rewards."
      },
      "setMaxDepositDeviation(uint256)": {
        "notice": "Sets max deposit deviation that is considered when adding liquidity to Balancer pools."
      },
      "setMaxWithdrawalDeviation(uint256)": {
        "notice": "Sets max withdrawal deviation that is considered when removing liquidity from Balancer pools."
      },
      "setPTokenAddress(address,address)": {
        "notice": "Provide support for asset by passing its pToken address.      This method can only be called by the system Governor"
      },
      "setRewardTokenAddresses(address[])": {
        "notice": "Set the reward token addresses. Any old addresses will be overwritten."
      },
      "supportsAsset(address)": {
        "notice": "Returns bool indicating whether asset is supported by strategy"
      },
      "transferGovernance(address)": {
        "notice": "Transfers Governance of the contract to a new account (`newGovernor`). Can only be called by the current Governor. Must be claimed for this to complete"
      },
      "transferToken(address,uint256)": {
        "notice": "Transfer token to governor. Intended for recovering tokens stuck in      strategy contracts, i.e. mistaken sends."
      },
      "vaultAddress()": {
        "notice": "Address of the OToken vault"
      },
      "withdraw(address,address,uint256)": {
        "notice": "Withdraw a Vault collateral asset from the Balancer pool."
      },
      "withdraw(address,address[],uint256[])": {
        "notice": "Withdraw multiple Vault collateral asset from the Balancer pool."
      },
      "withdrawAll()": {
        "notice": "Withdraws all supported Vault collateral assets from the Balancer pool and send to the OToken's Vault. Is only executable by the OToken's Vault or the Governor."
      }
    },
    "version": 1
  },
  "storageLayout": {
    "storage": [
      {
        "astId": 16267,
        "contract": "contracts/strategies/balancer/BalancerMetaPoolStrategy.sol:BalancerMetaPoolStrategy",
        "label": "initialized",
        "offset": 0,
        "slot": "0",
        "type": "t_bool"
      },
      {
        "astId": 16270,
        "contract": "contracts/strategies/balancer/BalancerMetaPoolStrategy.sol:BalancerMetaPoolStrategy",
        "label": "initializing",
        "offset": 1,
        "slot": "0",
        "type": "t_bool"
      },
      {
        "astId": 16310,
        "contract": "contracts/strategies/balancer/BalancerMetaPoolStrategy.sol:BalancerMetaPoolStrategy",
        "label": "______gap",
        "offset": 0,
        "slot": "1",
        "type": "t_array(t_uint256)50_storage"
      },
      {
        "astId": 16390,
        "contract": "contracts/strategies/balancer/BalancerMetaPoolStrategy.sol:BalancerMetaPoolStrategy",
        "label": "_deprecated_platformAddress",
        "offset": 0,
        "slot": "51",
        "type": "t_address"
      },
      {
        "astId": 16393,
        "contract": "contracts/strategies/balancer/BalancerMetaPoolStrategy.sol:BalancerMetaPoolStrategy",
        "label": "_deprecated_vaultAddress",
        "offset": 0,
        "slot": "52",
        "type": "t_address"
      },
      {
        "astId": 16398,
        "contract": "contracts/strategies/balancer/BalancerMetaPoolStrategy.sol:BalancerMetaPoolStrategy",
        "label": "assetToPToken",
        "offset": 0,
        "slot": "53",
        "type": "t_mapping(t_address,t_address)"
      },
      {
        "astId": 16402,
        "contract": "contracts/strategies/balancer/BalancerMetaPoolStrategy.sol:BalancerMetaPoolStrategy",
        "label": "assetsMapped",
        "offset": 0,
        "slot": "54",
        "type": "t_array(t_address)dyn_storage"
      },
      {
        "astId": 16404,
        "contract": "contracts/strategies/balancer/BalancerMetaPoolStrategy.sol:BalancerMetaPoolStrategy",
        "label": "_deprecated_rewardTokenAddress",
        "offset": 0,
        "slot": "55",
        "type": "t_address"
      },
      {
        "astId": 16406,
        "contract": "contracts/strategies/balancer/BalancerMetaPoolStrategy.sol:BalancerMetaPoolStrategy",
        "label": "_deprecated_rewardLiquidationThreshold",
        "offset": 0,
        "slot": "56",
        "type": "t_uint256"
      },
      {
        "astId": 16409,
        "contract": "contracts/strategies/balancer/BalancerMetaPoolStrategy.sol:BalancerMetaPoolStrategy",
        "label": "harvesterAddress",
        "offset": 0,
        "slot": "57",
        "type": "t_address"
      },
      {
        "astId": 16413,
        "contract": "contracts/strategies/balancer/BalancerMetaPoolStrategy.sol:BalancerMetaPoolStrategy",
        "label": "rewardTokenAddresses",
        "offset": 0,
        "slot": "58",
        "type": "t_array(t_address)dyn_storage"
      },
      {
        "astId": 16417,
        "contract": "contracts/strategies/balancer/BalancerMetaPoolStrategy.sol:BalancerMetaPoolStrategy",
        "label": "_reserved",
        "offset": 0,
        "slot": "59",
        "type": "t_array(t_int256)98_storage"
      },
      {
        "astId": 13568,
        "contract": "contracts/strategies/balancer/BalancerMetaPoolStrategy.sol:BalancerMetaPoolStrategy",
        "label": "maxWithdrawalDeviation",
        "offset": 0,
        "slot": "157",
        "type": "t_uint256"
      },
      {
        "astId": 13570,
        "contract": "contracts/strategies/balancer/BalancerMetaPoolStrategy.sol:BalancerMetaPoolStrategy",
        "label": "maxDepositDeviation",
        "offset": 0,
        "slot": "158",
        "type": "t_uint256"
      },
      {
        "astId": 13574,
        "contract": "contracts/strategies/balancer/BalancerMetaPoolStrategy.sol:BalancerMetaPoolStrategy",
        "label": "__reserved",
        "offset": 0,
        "slot": "159",
        "type": "t_array(t_int256)48_storage"
      },
      {
        "astId": 13351,
        "contract": "contracts/strategies/balancer/BalancerMetaPoolStrategy.sol:BalancerMetaPoolStrategy",
        "label": "__reserved_baseAuraStrategy",
        "offset": 0,
        "slot": "207",
        "type": "t_array(t_int256)50_storage"
      }
    ],
    "types": {
      "t_address": {
        "encoding": "inplace",
        "label": "address",
        "numberOfBytes": "20"
      },
      "t_array(t_address)dyn_storage": {
        "base": "t_address",
        "encoding": "dynamic_array",
        "label": "address[]",
        "numberOfBytes": "32"
      },
      "t_array(t_int256)48_storage": {
        "base": "t_int256",
        "encoding": "inplace",
        "label": "int256[48]",
        "numberOfBytes": "1536"
      },
      "t_array(t_int256)50_storage": {
        "base": "t_int256",
        "encoding": "inplace",
        "label": "int256[50]",
        "numberOfBytes": "1600"
      },
      "t_array(t_int256)98_storage": {
        "base": "t_int256",
        "encoding": "inplace",
        "label": "int256[98]",
        "numberOfBytes": "3136"
      },
      "t_array(t_uint256)50_storage": {
        "base": "t_uint256",
        "encoding": "inplace",
        "label": "uint256[50]",
        "numberOfBytes": "1600"
      },
      "t_bool": {
        "encoding": "inplace",
        "label": "bool",
        "numberOfBytes": "1"
      },
      "t_int256": {
        "encoding": "inplace",
        "label": "int256",
        "numberOfBytes": "32"
      },
      "t_mapping(t_address,t_address)": {
        "encoding": "mapping",
        "key": "t_address",
        "label": "mapping(address => address)",
        "numberOfBytes": "32",
        "value": "t_address"
      },
      "t_uint256": {
        "encoding": "inplace",
        "label": "uint256",
        "numberOfBytes": "32"
      }
    }
  }
}