{
  "address": "0xD7B28d06365b85933c64E11e639EA0d3bC0e3BaB",
  "abi": [
    {
      "anonymous": false,
      "inputs": [
        {
          "indexed": true,
          "internalType": "address",
          "name": "previousGovernor",
          "type": "address"
        },
        {
          "indexed": true,
          "internalType": "address",
          "name": "newGovernor",
          "type": "address"
        }
      ],
      "name": "GovernorshipTransferred",
      "type": "event"
    },
    {
      "anonymous": false,
      "inputs": [
        {
          "indexed": true,
          "internalType": "address",
          "name": "previousGovernor",
          "type": "address"
        },
        {
          "indexed": true,
          "internalType": "address",
          "name": "newGovernor",
          "type": "address"
        }
      ],
      "name": "PendingGovernorshipTransfer",
      "type": "event"
    },
    {
      "anonymous": false,
      "inputs": [
        {
          "indexed": true,
          "internalType": "address",
          "name": "implementation",
          "type": "address"
        }
      ],
      "name": "Upgraded",
      "type": "event"
    },
    {
      "stateMutability": "payable",
      "type": "fallback"
    },
    {
      "inputs": [],
      "name": "admin",
      "outputs": [
        {
          "internalType": "address",
          "name": "",
          "type": "address"
        }
      ],
      "stateMutability": "view",
      "type": "function"
    },
    {
      "inputs": [],
      "name": "claimGovernance",
      "outputs": [],
      "stateMutability": "nonpayable",
      "type": "function"
    },
    {
      "inputs": [],
      "name": "governor",
      "outputs": [
        {
          "internalType": "address",
          "name": "",
          "type": "address"
        }
      ],
      "stateMutability": "view",
      "type": "function"
    },
    {
      "inputs": [],
      "name": "implementation",
      "outputs": [
        {
          "internalType": "address",
          "name": "",
          "type": "address"
        }
      ],
      "stateMutability": "view",
      "type": "function"
    },
    {
      "inputs": [
        {
          "internalType": "address",
          "name": "_logic",
          "type": "address"
        },
        {
          "internalType": "address",
          "name": "_initGovernor",
          "type": "address"
        },
        {
          "internalType": "bytes",
          "name": "_data",
          "type": "bytes"
        }
      ],
      "name": "initialize",
      "outputs": [],
      "stateMutability": "payable",
      "type": "function"
    },
    {
      "inputs": [],
      "name": "isGovernor",
      "outputs": [
        {
          "internalType": "bool",
          "name": "",
          "type": "bool"
        }
      ],
      "stateMutability": "view",
      "type": "function"
    },
    {
      "inputs": [
        {
          "internalType": "address",
          "name": "_newGovernor",
          "type": "address"
        }
      ],
      "name": "transferGovernance",
      "outputs": [],
      "stateMutability": "nonpayable",
      "type": "function"
    },
    {
      "inputs": [
        {
          "internalType": "address",
          "name": "newImplementation",
          "type": "address"
        }
      ],
      "name": "upgradeTo",
      "outputs": [],
      "stateMutability": "nonpayable",
      "type": "function"
    },
    {
      "inputs": [
        {
          "internalType": "address",
          "name": "newImplementation",
          "type": "address"
        },
        {
          "internalType": "bytes",
          "name": "data",
          "type": "bytes"
        }
      ],
      "name": "upgradeToAndCall",
      "outputs": [],
      "stateMutability": "payable",
      "type": "function"
    }
  ],
  "transactionHash": "0xd9f5edd2c335fdc65b45637c72a79d2ae948de03c305a9883b158ec680718c52",
  "args": [],
  "solcInputHash": "d89b9540be0dbf07690736ca4fe26424",
  "bytecode": "0x608060405234801561001057600080fd5b50610027336000805160206109ed83398151915255565b6000805160206109ed833981519152546040516001600160a01b03909116906000907fc7c0c772add429241571afb3805861fb3cfa2af374534088b76cdb4325a87e9a908290a36109708061007d6000396000f3fe6080604052600436106100865760003560e01c80635d36b190116100595780635d36b1901461010a578063c7af33521461011f578063cf7a1d7714610144578063d38bfff414610157578063f851a4401461009057610086565b80630c340a24146100905780633659cfe6146100c25780634f1ef286146100e25780635c60da1b146100f5575b61008e610177565b005b34801561009c57600080fd5b506100a5610197565b6040516001600160a01b0390911681526020015b60405180910390f35b3480156100ce57600080fd5b5061008e6100dd3660046106b0565b6101b4565b61008e6100f03660046107a4565b6101ed565b34801561010157600080fd5b506100a561028a565b34801561011657600080fd5b5061008e6102a2565b34801561012b57600080fd5b50610134610346565b60405190151581526020016100b9565b61008e6101523660046106d2565b610377565b34801561016357600080fd5b5061008e6101723660046106b0565b610445565b6101956101906000805160206108fb8339815191525490565b6104e9565b565b60006101af60008051602061091b8339815191525490565b905090565b6101bc610346565b6101e15760405162461bcd60e51b81526004016101d890610872565b60405180910390fd5b6101ea8161050d565b50565b6101f5610346565b6102115760405162461bcd60e51b81526004016101d890610872565b61021a8361050d565b6000836001600160a01b03168383604051610236929190610827565b600060405180830381855af49150503d8060008114610271576040519150601f19603f3d011682016040523d82523d6000602084013e610276565b606091505b505090508061028457600080fd5b50505050565b60006101af6000805160206108fb8339815191525490565b7f44c4d30b2eaad5130ad70c3ba6972730566f3e6359ab83e800d905c61b1c51db546001600160a01b0316336001600160a01b03161461033d5760405162461bcd60e51b815260206004820152603060248201527f4f6e6c79207468652070656e64696e6720476f7665726e6f722063616e20636f60448201526f6d706c6574652074686520636c61696d60801b60648201526084016101d8565b6101953361054d565b600061035e60008051602061091b8339815191525490565b6001600160a01b0316336001600160a01b031614905090565b61037f610346565b61039b5760405162461bcd60e51b81526004016101d890610872565b60006103b36000805160206108fb8339815191525490565b6001600160a01b0316146103c657600080fd5b6103f160017f360894a13ba1a3210667c828492db98dca3e2076cc3735a920a3ca505d382bbd6108a9565b6000805160206108fb8339815191521461040d5761040d6108ce565b6104168261054d565b61041f8361060e565b805115610440576000836001600160a01b0316826040516102369190610837565b505050565b61044d610346565b6104695760405162461bcd60e51b81526004016101d890610872565b610491817f44c4d30b2eaad5130ad70c3ba6972730566f3e6359ab83e800d905c61b1c51db55565b806001600160a01b03166104b160008051602061091b8339815191525490565b6001600160a01b03167fa39cc5eb22d0f34d8beaefee8a3f17cc229c1a1d1ef87a5ad47313487b1c4f0d60405160405180910390a350565b3660008037600080366000845af43d6000803e808015610508573d6000f35b3d6000fd5b6105168161060e565b6040516001600160a01b038216907fbc7cd75a20ee27fd9adebab32041f755214dbc6bffa90cc0225b39da2e5c2d3b90600090a250565b6001600160a01b0381166105a35760405162461bcd60e51b815260206004820152601a60248201527f4e657720476f7665726e6f72206973206164647265737328302900000000000060448201526064016101d8565b806001600160a01b03166105c360008051602061091b8339815191525490565b6001600160a01b03167fc7c0c772add429241571afb3805861fb3cfa2af374534088b76cdb4325a87e9a60405160405180910390a36101ea8160008051602061091b83398151915255565b803b6106825760405162461bcd60e51b815260206004820152603b60248201527f43616e6e6f742073657420612070726f787920696d706c656d656e746174696f60448201527f6e20746f2061206e6f6e2d636f6e74726163742061646472657373000000000060648201526084016101d8565b6000805160206108fb83398151915255565b80356001600160a01b03811681146106ab57600080fd5b919050565b6000602082840312156106c257600080fd5b6106cb82610694565b9392505050565b6000806000606084860312156106e757600080fd5b6106f084610694565b92506106fe60208501610694565b9150604084013567ffffffffffffffff8082111561071b57600080fd5b818601915086601f83011261072f57600080fd5b813581811115610741576107416108e4565b604051601f8201601f19908116603f01168101908382118183101715610769576107696108e4565b8160405282815289602084870101111561078257600080fd5b8260208601602083013760006020848301015280955050505050509250925092565b6000806000604084860312156107b957600080fd5b6107c284610694565b9250602084013567ffffffffffffffff808211156107df57600080fd5b818601915086601f8301126107f357600080fd5b81358181111561080257600080fd5b87602082850101111561081457600080fd5b6020830194508093505050509250925092565b8183823760009101908152919050565b6000825160005b81811015610858576020818601810151858301520161083e565b81811115610867576000828501525b509190910192915050565b6020808252601a908201527f43616c6c6572206973206e6f742074686520476f7665726e6f72000000000000604082015260600190565b6000828210156108c957634e487b7160e01b600052601160045260246000fd5b500390565b634e487b7160e01b600052600160045260246000fd5b634e487b7160e01b600052604160045260246000fdfe360894a13ba1a3210667c828492db98dca3e2076cc3735a920a3ca505d382bbc7bea13895fa79d2831e0a9e28edede30099005a50d652d8957cf8a607ee6ca4aa2646970667358221220d46b9ea075a0017c48498e3fa109982d8e998c9d0a806dad89cf1a3de003b72b64736f6c634300080700337bea13895fa79d2831e0a9e28edede30099005a50d652d8957cf8a607ee6ca4a",
  "devdoc": {
    "kind": "dev",
    "methods": {
      "admin()": {
        "returns": {
          "_0": "The address of the proxy admin/it's also the governor."
        }
      },
      "claimGovernance()": {
        "details": "Claim Governance of the contract to a new account (`newGovernor`). Can only be called by the new Governor."
      },
      "governor()": {
        "details": "Returns the address of the current Governor."
      },
      "implementation()": {
        "returns": {
          "_0": "The address of the implementation."
        }
      },
      "initialize(address,address,bytes)": {
        "details": "Contract initializer with Governor enforcement",
        "params": {
          "_data": "Data to send as msg.data to the implementation to initialize the proxied contract. It should include the signature and the parameters of the function to be called, as described in https://solidity.readthedocs.io/en/v0.4.24/abi-spec.html#function-selector-and-argument-encoding. This parameter is optional, if no data is given the initialization call to proxied contract will be skipped.",
          "_initGovernor": "Address of the initial Governor.",
          "_logic": "Address of the initial implementation."
        }
      },
      "isGovernor()": {
        "details": "Returns true if the caller is the current Governor."
      },
      "transferGovernance(address)": {
        "details": "Transfers Governance of the contract to a new account (`newGovernor`). Can only be called by the current Governor. Must be claimed for this to complete",
        "params": {
          "_newGovernor": "Address of the new Governor"
        }
      },
      "upgradeTo(address)": {
        "details": "Upgrade the backing implementation of the proxy. Only the admin can call this function.",
        "params": {
          "newImplementation": "Address of the new implementation."
        }
      },
      "upgradeToAndCall(address,bytes)": {
        "details": "Upgrade the backing implementation of the proxy and call a function on the new implementation. This is useful to initialize the proxied contract.",
        "params": {
          "data": "Data to send as msg.data in the low level call. It should include the signature and the parameters of the function to be called, as described in https://solidity.readthedocs.io/en/v0.4.24/abi-spec.html#function-selector-and-argument-encoding.",
          "newImplementation": "Address of the new implementation."
        }
      }
    },
    "version": 1
  },
  "userdoc": {
    "kind": "user",
    "methods": {},
    "notice": "BuybackProxy delegates calls to Buyback implementation",
    "version": 1
  },
  "storageLayout": {
    "storage": [],
    "types": null
  }
}