{
  "address": "0x7294CD3C3eb4097b03E1A61EB2AD280D3dD265e6",
  "abi": [
    {
      "constant": true,
      "inputs": [],
      "name": "governor",
      "outputs": [
        {
          "internalType": "address",
          "name": "",
          "type": "address"
        }
      ],
      "payable": false,
      "stateMutability": "view",
      "type": "function"
    },
    {
      "constant": false,
      "inputs": [
        {
          "internalType": "address",
          "name": "token",
          "type": "address"
        },
        {
          "internalType": "uint256",
          "name": "amount",
          "type": "uint256"
        }
      ],
      "name": "transferToken",
      "outputs": [],
      "payable": false,
      "stateMutability": "nonpayable",
      "type": "function"
    },
    {
      "constant": true,
      "inputs": [],
      "name": "uniswapAddr",
      "outputs": [
        {
          "internalType": "address",
          "name": "",
          "type": "address"
        }
      ],
      "payable": false,
      "stateMutability": "view",
      "type": "function"
    },
    {
      "constant": false,
      "inputs": [],
      "name": "claimGovernance",
      "outputs": [],
      "payable": false,
      "stateMutability": "nonpayable",
      "type": "function"
    },
    {
      "constant": false,
      "inputs": [],
      "name": "swap",
      "outputs": [],
      "payable": false,
      "stateMutability": "nonpayable",
      "type": "function"
    },
    {
      "constant": false,
      "inputs": [
        {
          "internalType": "address",
          "name": "_address",
          "type": "address"
        }
      ],
      "name": "setUniswapAddr",
      "outputs": [],
      "payable": false,
      "stateMutability": "nonpayable",
      "type": "function"
    },
    {
      "constant": true,
      "inputs": [],
      "name": "isGovernor",
      "outputs": [
        {
          "internalType": "bool",
          "name": "",
          "type": "bool"
        }
      ],
      "payable": false,
      "stateMutability": "view",
      "type": "function"
    },
    {
      "constant": true,
      "inputs": [],
      "name": "vaultAddr",
      "outputs": [
        {
          "internalType": "address",
          "name": "",
          "type": "address"
        }
      ],
      "payable": false,
      "stateMutability": "view",
      "type": "function"
    },
    {
      "constant": false,
      "inputs": [
        {
          "internalType": "address",
          "name": "_newGovernor",
          "type": "address"
        }
      ],
      "name": "transferGovernance",
      "outputs": [],
      "payable": false,
      "stateMutability": "nonpayable",
      "type": "function"
    },
    {
      "anonymous": false,
      "inputs": [
        {
          "indexed": false,
          "internalType": "address",
          "name": "_address",
          "type": "address"
        }
      ],
      "name": "UniswapUpdated",
      "type": "event"
    },
    {
      "anonymous": false,
      "inputs": [
        {
          "indexed": true,
          "internalType": "address",
          "name": "previousGovernor",
          "type": "address"
        },
        {
          "indexed": true,
          "internalType": "address",
          "name": "newGovernor",
          "type": "address"
        }
      ],
      "name": "PendingGovernorshipTransfer",
      "type": "event"
    },
    {
      "anonymous": false,
      "inputs": [
        {
          "indexed": true,
          "internalType": "address",
          "name": "previousGovernor",
          "type": "address"
        },
        {
          "indexed": true,
          "internalType": "address",
          "name": "newGovernor",
          "type": "address"
        }
      ],
      "name": "GovernorshipTransferred",
      "type": "event"
    }
  ],
  "transactionHash": "0x78f60a2f86398478ec514755b438717e8c522fbd22387e25df5efe1d22f96c75",
  "args": [],
  "solcInputHash": "cca309778b0bcb384ba7e2e97bde53a0",
  "bytecode": "0x6080604052600080546001600160a01b031916737a250d5630b4cf539739df2c5dacb4c659f2488d17905561003c336001600160e01b0361009216565b61004d6001600160e01b036100a416565b6001600160a01b031660006001600160a01b03167fc7c0c772add429241571afb3805861fb3cfa2af374534088b76cdb4325a87e9a60405160405180910390a36100b7565b600080516020610efc83398151915255565b600080516020610efc8339815191525490565b610e36806100c66000396000f3fe608060405234801561001057600080fd5b50600436106100935760003560e01c80638119c065116100665780638119c065146100fa578063aea173d514610102578063c7af335214610128578063d27567f214610144578063d38bfff41461014c57610093565b80630c340a24146100985780631072cbea146100bc578063128a8b05146100ea5780635d36b190146100f2575b600080fd5b6100a0610172565b604080516001600160a01b039092168252519081900360200190f35b6100e8600480360360408110156100d257600080fd5b506001600160a01b038135169060200135610181565b005b6100a0610270565b6100e861027f565b6100e86102e1565b6100e86004803603602081101561011857600080fd5b50356001600160a01b03166106dc565b6101306107e9565b604080519115158252519081900360200190f35b6100a061080c565b6100e86004803603602081101561016257600080fd5b50356001600160a01b0316610824565b600061017c6108cd565b905090565b6101896107e9565b6101d7576040805162461bcd60e51b815260206004820152601a60248201527921b0b63632b91034b9903737ba103a34329023b7bb32b93737b960311b604482015290519081900360640190fd5b7f53bf423e48ed90e97d02ab0ebab13b2a235a6bfbe9c321847d5c175333ac453580546002811415610241576040805162461bcd60e51b815260206004820152600e60248201526d1499595b9d1c985b9d0818d85b1b60921b604482015290519081900360640190fd5b600282556102676102506108cd565b6001600160a01b038616908563ffffffff6108f216565b50600190555050565b6000546001600160a01b031681565b610287610949565b6001600160a01b0316336001600160a01b0316146102d65760405162461bcd60e51b8152600401808060200182810382526030815260200180610dd26030913960400191505060405180910390fd5b6102df3361096e565b565b73e75d77b1865ae93c7eaa3040b038d7aa7bc02f703314610349576040805162461bcd60e51b815260206004820152601760248201527f43616c6c6572206973206e6f7420746865205661756c74000000000000000000604482015290519081900360640190fd5b6000546001600160a01b031661035e576102df565b604080516370a0823160e01b81523060048201529051600091732a8e1e676ec238d8a992307b495b45b3feaa5e86916370a0823191602480820192602092909190829003018186803b1580156103b357600080fd5b505afa1580156103c7573d6000803e3d6000fd5b505050506040513d60208110156103dd57600080fd5b50519050683635c9adc5dea000008110156103f857506102df565b60408051600480825260a0820190925260609160208201608080388339019050509050732a8e1e676ec238d8a992307b495b45b3feaa5e868160008151811061043d57fe5b60200260200101906001600160a01b031690816001600160a01b03168152505073dac17f958d2ee523a2206206994597c13d831ec78160018151811061047f57fe5b6001600160a01b03928316602091820292909201810191909152600054604080516315ab88c960e31b81529051919093169263ad5c4648926004808301939192829003018186803b1580156104d357600080fd5b505afa1580156104e7573d6000803e3d6000fd5b505050506040513d60208110156104fd57600080fd5b505181518290600290811061050e57fe5b60200260200101906001600160a01b031690816001600160a01b031681525050738207c1ffc5b6804f6024322ccf34f29c3541ae268160038151811061055057fe5b6001600160a01b03928316602091820292909201810191909152600080546040516338ed173960e01b815260048101878152602482018490523060648301819052426084840181905260a060448501908152895160a4860152895195909816976338ed1739978b97968b969495939460c4019187810191028083838b5b838110156105e55781810151838201526020016105cd565b505050509050019650505050505050600060405180830381600087803b15801561060e57600080fd5b505af1158015610622573d6000803e3d6000fd5b505050506040513d6000823e601f3d908101601f19168201604052602081101561064b57600080fd5b810190808051604051939291908464010000000082111561066b57600080fd5b90830190602082018581111561068057600080fd5b825186602082028301116401000000008211171561069d57600080fd5b82525081516020918201928201910280838360005b838110156106ca5781810151838201526020016106b2565b50505050905001604052505050505050565b6106e46107e9565b610732576040805162461bcd60e51b815260206004820152601a60248201527921b0b63632b91034b9903737ba103a34329023b7bb32b93737b960311b604482015290519081900360640190fd5b600080546001600160a01b0319166001600160a01b038381169190911780835561077692732a8e1e676ec238d8a992307b495b45b3feaa5e86929190911690610a1c565b6000546107aa90732a8e1e676ec238d8a992307b495b45b3feaa5e86906001600160a01b031660001963ffffffff610a1c16565b604080516001600160a01b038316815290517fca20db57f4368388dd6766259da48cd22a485cba21ee6ec8c519007cb66dfd039181900360200190a150565b60006107f36108cd565b6001600160a01b0316336001600160a01b031614905090565b73e75d77b1865ae93c7eaa3040b038d7aa7bc02f7081565b61082c6107e9565b61087a576040805162461bcd60e51b815260206004820152601a60248201527921b0b63632b91034b9903737ba103a34329023b7bb32b93737b960311b604482015290519081900360640190fd5b61088381610b2f565b806001600160a01b03166108956108cd565b6001600160a01b03167fa39cc5eb22d0f34d8beaefee8a3f17cc229c1a1d1ef87a5ad47313487b1c4f0d60405160405180910390a350565b7f7bea13895fa79d2831e0a9e28edede30099005a50d652d8957cf8a607ee6ca4a5490565b604080516001600160a01b038416602482015260448082018490528251808303909101815260649091019091526020810180516001600160e01b031663a9059cbb60e01b179052610944908490610b53565b505050565b7f44c4d30b2eaad5130ad70c3ba6972730566f3e6359ab83e800d905c61b1c51db5490565b6001600160a01b0381166109c9576040805162461bcd60e51b815260206004820152601a60248201527f4e657720476f7665726e6f722069732061646472657373283029000000000000604482015290519081900360640190fd5b806001600160a01b03166109db6108cd565b6001600160a01b03167fc7c0c772add429241571afb3805861fb3cfa2af374534088b76cdb4325a87e9a60405160405180910390a3610a1981610d11565b50565b801580610aa2575060408051636eb1769f60e11b81523060048201526001600160a01b03848116602483015291519185169163dd62ed3e91604480820192602092909190829003018186803b158015610a7457600080fd5b505afa158015610a88573d6000803e3d6000fd5b505050506040513d6020811015610a9e57600080fd5b5051155b610add5760405162461bcd60e51b8152600401808060200182810382526036815260200180610d9c6036913960400191505060405180910390fd5b604080516001600160a01b038416602482015260448082018490528251808303909101815260649091019091526020810180516001600160e01b031663095ea7b360e01b179052610944908490610b53565b7f44c4d30b2eaad5130ad70c3ba6972730566f3e6359ab83e800d905c61b1c51db55565b610b65826001600160a01b0316610d35565b610bb6576040805162461bcd60e51b815260206004820152601f60248201527f5361666545524332303a2063616c6c20746f206e6f6e2d636f6e747261637400604482015290519081900360640190fd5b60006060836001600160a01b0316836040518082805190602001908083835b60208310610bf45780518252601f199092019160209182019101610bd5565b6001836020036101000a0380198251168184511680821785525050505050509050019150506000604051808303816000865af19150503d8060008114610c56576040519150601f19603f3d011682016040523d82523d6000602084013e610c5b565b606091505b509150915081610cb2576040805162461bcd60e51b815260206004820181905260248201527f5361666545524332303a206c6f772d6c6576656c2063616c6c206661696c6564604482015290519081900360640190fd5b805115610d0b57808060200190516020811015610cce57600080fd5b5051610d0b5760405162461bcd60e51b815260040180806020018281038252602a815260200180610d72602a913960400191505060405180910390fd5b50505050565b7f7bea13895fa79d2831e0a9e28edede30099005a50d652d8957cf8a607ee6ca4a55565b6000813f7fc5d2460186f7233c927e7db2dcc703c0e500b653ca82273b7bfad8045d85a470818114801590610d6957508115155b94935050505056fe5361666545524332303a204552433230206f7065726174696f6e20646964206e6f7420737563636565645361666545524332303a20617070726f76652066726f6d206e6f6e2d7a65726f20746f206e6f6e2d7a65726f20616c6c6f77616e63654f6e6c79207468652070656e64696e6720476f7665726e6f722063616e20636f6d706c6574652074686520636c61696da265627a7a7231582061d39987b8ceb84ad65ba3fbab46e239c29473a490e71cd6afb189eb9d46dbda64736f6c634300050b00327bea13895fa79d2831e0a9e28edede30099005a50d652d8957cf8a607ee6ca4a",
  "devdoc": {
    "methods": {
      "claimGovernance()": {
        "details": "Claim Governance of the contract to a new account (`newGovernor`). Can only be called by the new Governor."
      },
      "governor()": {
        "details": "Returns the address of the current Governor."
      },
      "isGovernor()": {
        "details": "Returns true if the caller is the current Governor."
      },
      "setUniswapAddr(address)": {
        "details": "Set address of Uniswap for performing liquidation of strategy reward tokens. Setting to 0x0 will pause swaps.",
        "params": {
          "_address": "Address of Uniswap"
        }
      },
      "swap()": {
        "details": "Execute a swap of OGN for OUSD via Uniswap or Uniswap compatible protocol (e.g. Sushiswap)*"
      },
      "transferGovernance(address)": {
        "details": "Transfers Governance of the contract to a new account (`newGovernor`). Can only be called by the current Governor. Must be claimed for this to complete",
        "params": {
          "_newGovernor": "Address of the new Governor"
        }
      }
    }
  },
  "userdoc": {
    "methods": {
      "transferToken(address,uint256)": {
        "notice": "Owner function to withdraw a specific amount of a token"
      }
    }
  }
}