{
  "address": "0x77314EB392b2be47C014cde0706908b3307Ad6a9",
  "abi": [
    {
      "inputs": [
        {
          "internalType": "address",
          "name": "_uniswapAddr",
          "type": "address"
        },
        {
          "internalType": "address",
          "name": "_vaultAddr",
          "type": "address"
        },
        {
          "internalType": "address",
          "name": "_ousd",
          "type": "address"
        },
        {
          "internalType": "address",
          "name": "_ogn",
          "type": "address"
        },
        {
          "internalType": "address",
          "name": "_usdt",
          "type": "address"
        },
        {
          "internalType": "address",
          "name": "_weth9",
          "type": "address"
        },
        {
          "internalType": "address",
          "name": "_ognEthOracle",
          "type": "address"
        },
        {
          "internalType": "address",
          "name": "_ethUsdOracle",
          "type": "address"
        }
      ],
      "stateMutability": "nonpayable",
      "type": "constructor"
    },
    {
      "anonymous": false,
      "inputs": [
        {
          "indexed": false,
          "internalType": "bytes",
          "name": "data",
          "type": "bytes"
        }
      ],
      "name": "BuybackFailed",
      "type": "event"
    },
    {
      "anonymous": false,
      "inputs": [
        {
          "indexed": true,
          "internalType": "address",
          "name": "previousGovernor",
          "type": "address"
        },
        {
          "indexed": true,
          "internalType": "address",
          "name": "newGovernor",
          "type": "address"
        }
      ],
      "name": "GovernorshipTransferred",
      "type": "event"
    },
    {
      "anonymous": false,
      "inputs": [
        {
          "indexed": true,
          "internalType": "address",
          "name": "previousGovernor",
          "type": "address"
        },
        {
          "indexed": true,
          "internalType": "address",
          "name": "newGovernor",
          "type": "address"
        }
      ],
      "name": "PendingGovernorshipTransfer",
      "type": "event"
    },
    {
      "anonymous": false,
      "inputs": [
        {
          "indexed": false,
          "internalType": "address",
          "name": "_address",
          "type": "address"
        }
      ],
      "name": "UniswapUpdated",
      "type": "event"
    },
    {
      "inputs": [],
      "name": "claimGovernance",
      "outputs": [],
      "stateMutability": "nonpayable",
      "type": "function"
    },
    {
      "inputs": [
        {
          "internalType": "uint256",
          "name": "ousdAmount",
          "type": "uint256"
        }
      ],
      "name": "expectedOgnPerOUSD",
      "outputs": [
        {
          "internalType": "uint256",
          "name": "",
          "type": "uint256"
        }
      ],
      "stateMutability": "view",
      "type": "function"
    },
    {
      "inputs": [],
      "name": "governor",
      "outputs": [
        {
          "internalType": "address",
          "name": "",
          "type": "address"
        }
      ],
      "stateMutability": "view",
      "type": "function"
    },
    {
      "inputs": [],
      "name": "isGovernor",
      "outputs": [
        {
          "internalType": "bool",
          "name": "",
          "type": "bool"
        }
      ],
      "stateMutability": "view",
      "type": "function"
    },
    {
      "inputs": [
        {
          "internalType": "address",
          "name": "_address",
          "type": "address"
        }
      ],
      "name": "setUniswapAddr",
      "outputs": [],
      "stateMutability": "nonpayable",
      "type": "function"
    },
    {
      "inputs": [],
      "name": "swap",
      "outputs": [],
      "stateMutability": "nonpayable",
      "type": "function"
    },
    {
      "inputs": [
        {
          "internalType": "address",
          "name": "_newGovernor",
          "type": "address"
        }
      ],
      "name": "transferGovernance",
      "outputs": [],
      "stateMutability": "nonpayable",
      "type": "function"
    },
    {
      "inputs": [
        {
          "internalType": "address",
          "name": "token",
          "type": "address"
        },
        {
          "internalType": "uint256",
          "name": "amount",
          "type": "uint256"
        }
      ],
      "name": "transferToken",
      "outputs": [],
      "stateMutability": "nonpayable",
      "type": "function"
    },
    {
      "inputs": [],
      "name": "uniswapAddr",
      "outputs": [
        {
          "internalType": "address",
          "name": "",
          "type": "address"
        }
      ],
      "stateMutability": "view",
      "type": "function"
    },
    {
      "inputs": [],
      "name": "vaultAddr",
      "outputs": [
        {
          "internalType": "address",
          "name": "",
          "type": "address"
        }
      ],
      "stateMutability": "view",
      "type": "function"
    }
  ],
  "transactionHash": "0x8bcdfe210bd29946a188d270037577d4b5aa1f320ad39d10794115b0297012b1",
  "args": [
    "0x7a250d5630B4cF539739dF2C5dAcb4c659F2488D",
    "0xE75D77B1865Ae93c7eaa3040B038D7aA7BC02F70",
    "0x2A8e1E676Ec238d8A992307B495b45B3fEAa5e86",
    "0x8207c1ffc5b6804f6024322ccf34f29c3541ae26",
    "0xdAC17F958D2ee523a2206206994597C13D831ec7",
    "0xc02aaa39b223fe8d0a0e5c4f27ead9083c756cc2",
    "0x2c881B6f3f6B5ff6C975813F87A4dad0b241C15b",
    "0x5f4eC3Df9cbd43714FE2740f5E3616155c5b8419"
  ],
  "solcInputHash": "b6193023c3a28756304ff066bec0ae10",
  "bytecode": "0x6101606040523480156200001257600080fd5b506040516200195238038062001952833981016040819052620000359162000538565b6200004d336000805160206200193283398151915255565b60008051602062001932833981519152546040516001600160a01b03909116906000907fc7c0c772add429241571afb3805861fb3cfa2af374534088b76cdb4325a87e9a908290a3600080546001600160a01b0319166001600160a01b038a8116918217835560608a811b6001600160601b03199081166080528a821b811660a05289821b811660c05288821b811660e05287821b81166101005286821b8116610120529085901b1661014052620001169290891691906200014e602090811b6200093017901c565b60005462000140906001600160a01b0388811691166000196200014e602090811b6200093017901c565b5050505050505050620006a4565b801580620001dc5750604051636eb1769f60e11b81523060048201526001600160a01b03838116602483015284169063dd62ed3e9060440160206040518083038186803b1580156200019f57600080fd5b505afa158015620001b4573d6000803e3d6000fd5b505050506040513d601f19601f82011682018060405250810190620001da919062000604565b155b620002545760405162461bcd60e51b815260206004820152603660248201527f5361666545524332303a20617070726f76652066726f6d206e6f6e2d7a65726f60448201527f20746f206e6f6e2d7a65726f20616c6c6f77616e63650000000000000000000060648201526084015b60405180910390fd5b604080516001600160a01b038416602482015260448082018490528251808303909101815260649091019091526020810180516001600160e01b0390811663095ea7b360e01b17909152620002ac918591620002b116565b505050565b60006200030d826040518060400160405280602081526020017f5361666545524332303a206c6f772d6c6576656c2063616c6c206661696c6564815250856001600160a01b03166200038f60201b62000a8c179092919060201c565b805190915015620002ac57808060200190518101906200032e9190620005e0565b620002ac5760405162461bcd60e51b815260206004820152602a60248201527f5361666545524332303a204552433230206f7065726174696f6e20646964206e6044820152691bdd081cdd58d8d9595960b21b60648201526084016200024b565b6060620003a08484600085620003aa565b90505b9392505050565b6060824710156200040d5760405162461bcd60e51b815260206004820152602660248201527f416464726573733a20696e73756666696369656e742062616c616e636520666f6044820152651c8818d85b1b60d21b60648201526084016200024b565b843b6200045d5760405162461bcd60e51b815260206004820152601d60248201527f416464726573733a2063616c6c20746f206e6f6e2d636f6e747261637400000060448201526064016200024b565b600080866001600160a01b031685876040516200047b91906200061e565b60006040518083038185875af1925050503d8060008114620004ba576040519150601f19603f3d011682016040523d82523d6000602084013e620004bf565b606091505b509092509050620004d2828286620004dd565b979650505050505050565b60608315620004ee575081620003a3565b825115620004ff5782518084602001fd5b8160405162461bcd60e51b81526004016200024b91906200063c565b80516001600160a01b03811681146200053357600080fd5b919050565b600080600080600080600080610100898b0312156200055657600080fd5b62000561896200051b565b97506200057160208a016200051b565b96506200058160408a016200051b565b95506200059160608a016200051b565b9450620005a160808a016200051b565b9350620005b160a08a016200051b565b9250620005c160c08a016200051b565b9150620005d160e08a016200051b565b90509295985092959890939650565b600060208284031215620005f357600080fd5b81518015158114620003a357600080fd5b6000602082840312156200061757600080fd5b5051919050565b600082516200063281846020870162000671565b9190910192915050565b60208152600082518060208401526200065d81604085016020870162000671565b601f01601f19169190910160400192915050565b60005b838110156200068e57818101518382015260200162000674565b838111156200069e576000848401525b50505050565b60805160601c60a05160601c60c05160601c60e05160601c6101005160601c6101205160601c6101405160601c6112026200073060003960006107f30152600061081c015260006105650152600061052e0152600061059501526000818161040b015281816104f701528181610741015261077b015260008181610151015261031401526112026000f3fe608060405234801561001057600080fd5b506004361061009e5760003560e01c8063aea173d511610066578063aea173d514610100578063bc8cb9ed14610113578063c7af335214610134578063d27567f21461014c578063d38bfff41461017357600080fd5b80630c340a24146100a35780631072cbea146100c8578063128a8b05146100dd5780635d36b190146100f05780638119c065146100f8575b600080fd5b6100ab610186565b6040516001600160a01b0390911681526020015b60405180910390f35b6100db6100d6366004610f55565b6101a3565b005b6000546100ab906001600160a01b031681565b6100db61026c565b6100db610312565b6100db61010e366004610f3a565b6106e6565b610126610121366004610fa1565b6107e6565b6040519081526020016100bf565b61013c61085b565b60405190151581526020016100bf565b6100ab7f000000000000000000000000000000000000000000000000000000000000000081565b6100db610181366004610f3a565b61088c565b600061019e6000805160206111ad8339815191525490565b905090565b6101ab61085b565b6101d05760405162461bcd60e51b81526004016101c79061107e565b60405180910390fd5b7f53bf423e48ed90e97d02ab0ebab13b2a235a6bfbe9c321847d5c175333ac4535805460028114156102355760405162461bcd60e51b815260206004820152600e60248201526d1499595b9d1c985b9d0818d85b1b60921b60448201526064016101c7565b600282556102636102526000805160206111ad8339815191525490565b6001600160a01b0386169085610aa5565b50600190555050565b7f44c4d30b2eaad5130ad70c3ba6972730566f3e6359ab83e800d905c61b1c51db546001600160a01b0316336001600160a01b0316146103075760405162461bcd60e51b815260206004820152603060248201527f4f6e6c79207468652070656e64696e6720476f7665726e6f722063616e20636f60448201526f6d706c6574652074686520636c61696d60801b60648201526084016101c7565b61031033610ad5565b565b7f00000000000000000000000000000000000000000000000000000000000000006001600160a01b0316331461038a5760405162461bcd60e51b815260206004820152601760248201527f43616c6c6572206973206e6f7420746865205661756c7400000000000000000060448201526064016101c7565b7f53bf423e48ed90e97d02ab0ebab13b2a235a6bfbe9c321847d5c175333ac4535805460028114156103ef5760405162461bcd60e51b815260206004820152600e60248201526d1499595b9d1c985b9d0818d85b1b60921b60448201526064016101c7565b600282556040516370a0823160e01b81523060048201526000907f00000000000000000000000000000000000000000000000000000000000000006001600160a01b0316906370a082319060240160206040518083038186803b15801561045557600080fd5b505afa158015610469573d6000803e3d6000fd5b505050506040513d601f19601f8201168201806040525081019061048d9190610fba565b9050683635c9adc5dea000008110156104a657506106df565b6000546001600160a01b03166104bc57506106df565b60006104dd60646104d760616104d1866107e6565b90610b96565b90610ba2565b6040805160a0810182526bffffffffffffffffffffffff197f0000000000000000000000000000000000000000000000000000000000000000606090811b821660c0840152607d60ea1b60d48401527f0000000000000000000000000000000000000000000000000000000000000000811b821660d784015261017760eb1b60eb84018190527f0000000000000000000000000000000000000000000000000000000000000000821b831660ee8501526101028401527f0000000000000000000000000000000000000000000000000000000000000000901b16610105820152815180820360f90181526101198201835281523060208201529192506000919081016105eb426103e8610bae565b81526020810185905260409081018490526000805491519293509182916001600160a01b0316906106209085906024016110b5565b60408051601f198184030181529181526020820180516001600160e01b031663c04b8d5960e01b17905251610655919061104f565b6000604051808303816000865af19150503d8060008114610692576040519150601f19603f3d011682016040523d82523d6000602084013e610697565b606091505b5091509150816106d9577f05efc8fe6a4600417061165582d83817e94b2c27b1e228fc5d953de832637500816040516106d0919061106b565b60405180910390a15b50505050505b5060019055565b6106ee61085b565b61070a5760405162461bcd60e51b81526004016101c79061107e565b600080546001600160a01b0319166001600160a01b03831690811790915561072f5750565b6000805461076a916001600160a01b037f00000000000000000000000000000000000000000000000000000000000000008116921690610930565b6000546107a6906001600160a01b037f000000000000000000000000000000000000000000000000000000000000000081169116600019610930565b6040516001600160a01b03821681527fca20db57f4368388dd6766259da48cd22a485cba21ee6ec8c519007cb66dfd039060200160405180910390a15b50565b60006108556108406108177f0000000000000000000000000000000000000000000000000000000000000000610bba565b6104d17f0000000000000000000000000000000000000000000000000000000000000000610bba565b6104d7846a52b7d2dcc80cd2e4000000610b96565b92915050565b60006108736000805160206111ad8339815191525490565b6001600160a01b0316336001600160a01b031614905090565b61089461085b565b6108b05760405162461bcd60e51b81526004016101c79061107e565b6108d8817f44c4d30b2eaad5130ad70c3ba6972730566f3e6359ab83e800d905c61b1c51db55565b806001600160a01b03166108f86000805160206111ad8339815191525490565b6001600160a01b03167fa39cc5eb22d0f34d8beaefee8a3f17cc229c1a1d1ef87a5ad47313487b1c4f0d60405160405180910390a350565b8015806109b95750604051636eb1769f60e11b81523060048201526001600160a01b03838116602483015284169063dd62ed3e9060440160206040518083038186803b15801561097f57600080fd5b505afa158015610993573d6000803e3d6000fd5b505050506040513d601f19601f820116820180604052508101906109b79190610fba565b155b610a245760405162461bcd60e51b815260206004820152603660248201527f5361666545524332303a20617070726f76652066726f6d206e6f6e2d7a65726f60448201527520746f206e6f6e2d7a65726f20616c6c6f77616e636560501b60648201526084016101c7565b6040516001600160a01b038316602482015260448101829052610a8790849063095ea7b360e01b906064015b60408051601f198184030181529190526020810180516001600160e01b03166001600160e01b031990931692909217909152610cd1565b505050565b6060610a9b8484600085610da3565b90505b9392505050565b6040516001600160a01b038316602482015260448101829052610a8790849063a9059cbb60e01b90606401610a50565b6001600160a01b038116610b2b5760405162461bcd60e51b815260206004820152601a60248201527f4e657720476f7665726e6f72206973206164647265737328302900000000000060448201526064016101c7565b806001600160a01b0316610b4b6000805160206111ad8339815191525490565b6001600160a01b03167fc7c0c772add429241571afb3805861fb3cfa2af374534088b76cdb4325a87e9a60405160405180910390a36107e3816000805160206111ad83398151915255565b6000610a9e8284611147565b6000610a9e8284611125565b6000610a9e828461110d565b60006001600160a01b038216610c085760405162461bcd60e51b81526020600482015260136024820152724173736574206e6f7420617661696c61626c6560681b60448201526064016101c7565b6000826001600160a01b031663feaf968c6040518163ffffffff1660e01b815260040160a06040518083038186803b158015610c4357600080fd5b505afa158015610c57573d6000803e3d6000fd5b505050506040513d601f19601f82011682018060405250810190610c7b9190610fd3565b505050915050600081136108555760405162461bcd60e51b815260206004820152601f60248201527f5072696365206d7573742062652067726561746572207468616e207a65726f0060448201526064016101c7565b6000610d26826040518060400160405280602081526020017f5361666545524332303a206c6f772d6c6576656c2063616c6c206661696c6564815250856001600160a01b0316610a8c9092919063ffffffff16565b805190915015610a875780806020019051810190610d449190610f7f565b610a875760405162461bcd60e51b815260206004820152602a60248201527f5361666545524332303a204552433230206f7065726174696f6e20646964206e6044820152691bdd081cdd58d8d9595960b21b60648201526084016101c7565b606082471015610e045760405162461bcd60e51b815260206004820152602660248201527f416464726573733a20696e73756666696369656e742062616c616e636520666f6044820152651c8818d85b1b60d21b60648201526084016101c7565b843b610e525760405162461bcd60e51b815260206004820152601d60248201527f416464726573733a2063616c6c20746f206e6f6e2d636f6e747261637400000060448201526064016101c7565b600080866001600160a01b03168587604051610e6e919061104f565b60006040518083038185875af1925050503d8060008114610eab576040519150601f19603f3d011682016040523d82523d6000602084013e610eb0565b606091505b5091509150610ec0828286610ecb565b979650505050505050565b60608315610eda575081610a9e565b825115610eea5782518084602001fd5b8160405162461bcd60e51b81526004016101c7919061106b565b80356001600160a01b0381168114610f1b57600080fd5b919050565b805169ffffffffffffffffffff81168114610f1b57600080fd5b600060208284031215610f4c57600080fd5b610a9e82610f04565b60008060408385031215610f6857600080fd5b610f7183610f04565b946020939093013593505050565b600060208284031215610f9157600080fd5b81518015158114610a9e57600080fd5b600060208284031215610fb357600080fd5b5035919050565b600060208284031215610fcc57600080fd5b5051919050565b600080600080600060a08688031215610feb57600080fd5b610ff486610f20565b945060208601519350604086015192506060860151915061101760808701610f20565b90509295509295909350565b6000815180845261103b816020860160208601611166565b601f01601f19169290920160200192915050565b60008251611061818460208701611166565b9190910192915050565b602081526000610a9e6020830184611023565b6020808252601a908201527f43616c6c6572206973206e6f742074686520476f7665726e6f72000000000000604082015260600190565b602081526000825160a060208401526110d160c0840182611023565b905060018060a01b0360208501511660408401526040840151606084015260608401516080840152608084015160a08401528091505092915050565b6000821982111561112057611120611196565b500190565b60008261114257634e487b7160e01b600052601260045260246000fd5b500490565b600081600019048311821515161561116157611161611196565b500290565b60005b83811015611181578181015183820152602001611169565b83811115611190576000848401525b50505050565b634e487b7160e01b600052601160045260246000fdfe7bea13895fa79d2831e0a9e28edede30099005a50d652d8957cf8a607ee6ca4aa2646970667358221220de42304322e5516310d41c13a9b1af62e2a67b053863813191a7ca7694b6884464736f6c634300080700337bea13895fa79d2831e0a9e28edede30099005a50d652d8957cf8a607ee6ca4a",
  "devdoc": {
    "kind": "dev",
    "methods": {
      "claimGovernance()": {
        "details": "Claim Governance of the contract to a new account (`newGovernor`). Can only be called by the new Governor."
      },
      "governor()": {
        "details": "Returns the address of the current Governor."
      },
      "isGovernor()": {
        "details": "Returns true if the caller is the current Governor."
      },
      "setUniswapAddr(address)": {
        "details": "Set address of Uniswap for performing liquidation of strategy reward tokens. Setting to 0x0 will pause swaps.",
        "params": {
          "_address": "Address of Uniswap"
        }
      },
      "swap()": {
        "details": "Execute a swap of OGN for OUSD via Uniswap or Uniswap compatible protocol (e.g. Sushiswap)*"
      },
      "transferGovernance(address)": {
        "details": "Transfers Governance of the contract to a new account (`newGovernor`). Can only be called by the current Governor. Must be claimed for this to complete",
        "params": {
          "_newGovernor": "Address of the new Governor"
        }
      },
      "transferToken(address,uint256)": {
        "params": {
          "amount": "amount of the token to be transferred",
          "token": "token to be transferered"
        }
      }
    },
    "version": 1
  },
  "userdoc": {
    "kind": "user",
    "methods": {
      "transferToken(address,uint256)": {
        "notice": "Owner function to withdraw a specific amount of a token"
      }
    },
    "version": 1
  },
  "storageLayout": {
    "storage": [
      {
        "astId": 1535,
        "contract": "contracts/buyback/Buyback.sol:Buyback",
        "label": "uniswapAddr",
        "offset": 0,
        "slot": "0",
        "type": "t_address"
      }
    ],
    "types": {
      "t_address": {
        "encoding": "inplace",
        "label": "address",
        "numberOfBytes": "20"
      }
    }
  }
}