{
  "address": "0x017aD99900b9581Cd40C815990890EE9F0858246",
  "abi": [
    {
      "constant": true,
      "inputs": [],
      "name": "governor",
      "outputs": [
        {
          "internalType": "address",
          "name": "",
          "type": "address"
        }
      ],
      "payable": false,
      "stateMutability": "view",
      "type": "function"
    },
    {
      "constant": true,
      "inputs": [
        {
          "internalType": "string",
          "name": "symbol",
          "type": "string"
        }
      ],
      "name": "tokEthPrice",
      "outputs": [
        {
          "internalType": "uint256",
          "name": "",
          "type": "uint256"
        }
      ],
      "payable": false,
      "stateMutability": "view",
      "type": "function"
    },
    {
      "constant": true,
      "inputs": [
        {
          "internalType": "string",
          "name": "symbol",
          "type": "string"
        }
      ],
      "name": "tokUsdPrice",
      "outputs": [
        {
          "internalType": "uint256",
          "name": "",
          "type": "uint256"
        }
      ],
      "payable": false,
      "stateMutability": "view",
      "type": "function"
    },
    {
      "constant": false,
      "inputs": [],
      "name": "claimGovernance",
      "outputs": [],
      "payable": false,
      "stateMutability": "nonpayable",
      "type": "function"
    },
    {
      "constant": true,
      "inputs": [],
      "name": "ethUsdPrice",
      "outputs": [
        {
          "internalType": "uint256",
          "name": "",
          "type": "uint256"
        }
      ],
      "payable": false,
      "stateMutability": "view",
      "type": "function"
    },
    {
      "constant": true,
      "inputs": [],
      "name": "isGovernor",
      "outputs": [
        {
          "internalType": "bool",
          "name": "",
          "type": "bool"
        }
      ],
      "payable": false,
      "stateMutability": "view",
      "type": "function"
    },
    {
      "constant": false,
      "inputs": [
        {
          "internalType": "address",
          "name": "_newGovernor",
          "type": "address"
        }
      ],
      "name": "transferGovernance",
      "outputs": [],
      "payable": false,
      "stateMutability": "nonpayable",
      "type": "function"
    },
    {
      "constant": false,
      "inputs": [
        {
          "internalType": "address",
          "name": "feed",
          "type": "address"
        },
        {
          "internalType": "string",
          "name": "symbol",
          "type": "string"
        },
        {
          "internalType": "bool",
          "name": "directToUsd",
          "type": "bool"
        }
      ],
      "name": "registerFeed",
      "outputs": [],
      "payable": false,
      "stateMutability": "nonpayable",
      "type": "function"
    },
    {
      "constant": true,
      "inputs": [
        {
          "internalType": "string",
          "name": "symbol",
          "type": "string"
        }
      ],
      "name": "price",
      "outputs": [
        {
          "internalType": "uint256",
          "name": "",
          "type": "uint256"
        }
      ],
      "payable": false,
      "stateMutability": "view",
      "type": "function"
    },
    {
      "inputs": [
        {
          "internalType": "address",
          "name": "ethFeed_",
          "type": "address"
        }
      ],
      "payable": false,
      "stateMutability": "nonpayable",
      "type": "constructor"
    },
    {
      "anonymous": false,
      "inputs": [
        {
          "indexed": false,
          "internalType": "address",
          "name": "_feed",
          "type": "address"
        },
        {
          "indexed": false,
          "internalType": "string",
          "name": "_symbol",
          "type": "string"
        },
        {
          "indexed": false,
          "internalType": "bool",
          "name": "_directToUsd",
          "type": "bool"
        }
      ],
      "name": "FeedRegistered",
      "type": "event"
    },
    {
      "anonymous": false,
      "inputs": [
        {
          "indexed": true,
          "internalType": "address",
          "name": "previousGovernor",
          "type": "address"
        },
        {
          "indexed": true,
          "internalType": "address",
          "name": "newGovernor",
          "type": "address"
        }
      ],
      "name": "PendingGovernorshipTransfer",
      "type": "event"
    },
    {
      "anonymous": false,
      "inputs": [
        {
          "indexed": true,
          "internalType": "address",
          "name": "previousGovernor",
          "type": "address"
        },
        {
          "indexed": true,
          "internalType": "address",
          "name": "newGovernor",
          "type": "address"
        }
      ],
      "name": "GovernorshipTransferred",
      "type": "event"
    }
  ],
  "transactionHash": "0x28566ec771b16a536d76227255e59eb2bfc202858442b0b110907b4c4298ff33",
  "args": [
    "0x5f4eC3Df9cbd43714FE2740f5E3616155c5b8419"
  ],
  "solcInputHash": "d641aaf0ed5d604d73e8f53c6d96978e",
  "bytecode": "0x608060405234801561001057600080fd5b50604051610fbd380380610fbd8339818101604052602081101561003357600080fd5b5051610047336001600160e01b0361014a16565b6100586001600160e01b0361015c16565b6001600160a01b031660006001600160a01b03167fc7c0c772add429241571afb3805861fb3cfa2af374534088b76cdb4325a87e9a60405160405180910390a3600080546001600160a01b0319166001600160a01b038316908117909155604080517f313ce567000000000000000000000000000000000000000000000000000000008152905163313ce56791600480820192602092909190829003018186803b15801561010557600080fd5b505afa158015610119573d6000803e3d6000fd5b505050506040513d602081101561012f57600080fd5b50516002805460ff191660ff9092169190911790555061016f565b600080516020610f9d83398151915255565b600080516020610f9d8339815191525490565b610e1f8061017e6000396000f3fe608060405234801561001057600080fd5b50600436106100935760003560e01c80639478ab8c116100665780639478ab8c146101b4578063c7af3352146101bc578063d38bfff4146101d8578063d7439f97146101fe578063fe2c6198146102b457610093565b80630c340a24146100985780632d9ff296146100bc57806357d693141461013c5780635d36b190146101aa575b600080fd5b6100a0610322565b604080516001600160a01b039092168252519081900360200190f35b61012a600480360360208110156100d257600080fd5b810190602081018135600160201b8111156100ec57600080fd5b8201836020820111156100fe57600080fd5b803590602001918460018302840111600160201b8311171561011f57600080fd5b509092509050610331565b60408051918252519081900360200190f35b61012a6004803603602081101561015257600080fd5b810190602081018135600160201b81111561016c57600080fd5b82018360208201111561017e57600080fd5b803590602001918460018302840111600160201b8311171561019f57600080fd5b509092509050610469565b6101b261057e565b005b61012a6105e0565b6101c4610616565b604080519115158252519081900360200190f35b6101b2600480360360208110156101ee57600080fd5b50356001600160a01b0316610639565b6101b26004803603606081101561021457600080fd5b6001600160a01b038235169190810190604081016020820135600160201b81111561023e57600080fd5b82018360208201111561025057600080fd5b803590602001918460018302840111600160201b8311171561027157600080fd5b91908080601f01602080910402602001604051908101604052809392919081815260200183838082843760009201919091525092955050505035151590506106e5565b61012a600480360360208110156102ca57600080fd5b810190602081018135600160201b8111156102e457600080fd5b8201836020820111156102f657600080fd5b803590602001918460018302840111600160201b8311171561031757600080fd5b509092509050610926565b600061032c610b5c565b905090565b6000808383604051602001808383808284376040805191909301818103601f1901825283528051602091820120600081815260019092529281208054939750955093506103889250506001600160a01b0316610b81565b8254909150600160a81b900460ff16156103e9576040805162461bcd60e51b815260206004820152601c60248201527f5072696365206973206e6f7420696e207465726d73206f662045544800000000604482015290519081900360640190fd5b6000811361043e576040805162461bcd60e51b815260206004820152601f60248201527f5072696365206d7573742062652067726561746572207468616e207a65726f00604482015290519081900360640190fd5b815460071960ff600160a01b90920482160116600a0a818161045c57fe5b0493505050505b92915050565b6000808383604051602001808383808284376040805191909301818103601f1901825283528051602091820120600081815260019092529281208054939750955093506104c09250506001600160a01b0316610b81565b8254909150600160a81b900460ff16610520576040805162461bcd60e51b815260206004820152601a60248201527f5072696365206973206e6f742064697265637420746f20757364000000000000604482015290519081900360640190fd5b60008113610575576040805162461bcd60e51b815260206004820152601f60248201527f5072696365206d7573742062652067726561746572207468616e207a65726f00604482015290519081900360640190fd5b95945050505050565b610586610bfd565b6001600160a01b0316336001600160a01b0316146105d55760405162461bcd60e51b8152600401808060200182810382526030815260200180610dbb6030913960400191505060405180910390fd5b6105de33610c22565b565b60025460008054909160051960ff9182160116600a0a90610609906001600160a01b0316610b81565b8161061057fe5b04905090565b6000610620610b5c565b6001600160a01b0316336001600160a01b031614905090565b610641610616565b610692576040805162461bcd60e51b815260206004820152601a60248201527f43616c6c6572206973206e6f742074686520476f7665726e6f72000000000000604482015290519081900360640190fd5b61069b81610cd0565b806001600160a01b03166106ad610b5c565b6001600160a01b03167fa39cc5eb22d0f34d8beaefee8a3f17cc229c1a1d1ef87a5ad47313487b1c4f0d60405160405180910390a350565b6106ed610616565b61073e576040805162461bcd60e51b815260206004820152601a60248201527f43616c6c6572206973206e6f742074686520476f7665726e6f72000000000000604482015290519081900360640190fd5b600060016000846040516020018082805190602001908083835b602083106107775780518252601f199092019160209182019101610758565b51815160209384036101000a60001901801990921691161790526040805192909401828103601f1901835284528151918101919091208652858101969096525092830160002080546001600160a01b0319166001600160a01b038a169081178255845163313ce56760e01b815294519196509463313ce5679460048082019550919350829003018186803b15801561080e57600080fd5b505afa158015610822573d6000803e3d6000fd5b505050506040513d602081101561083857600080fd5b5051815460ff60a01b1916600160a01b60ff909216919091021760ff60a81b1916600160a81b831515908102919091178255604080516001600160a01b0387168152908101919091526060602080830182815286519284019290925285517f3a89a5f9c0aa7dbe7ce41fc1b5cc154cd953e1639798dcc07af88c7c2d944f7993889388938893608084019186019080838360005b838110156108e45781810151838201526020016108cc565b50505050905090810190601f1680156109115780820380516001836020036101000a031916815260200191505b5094505050505060405180910390a150505050565b6000808383604051602001808383808284378083019250505092505050604051602081830303815290604052805190602001209050806040518060400160405280600381526020016208aa8960eb1b8152506040516020018082805190602001908083835b602083106109aa5780518252601f19909201916020918201910161098b565b6001836020036101000a038019825116818451168082178552505050505050905001915050604051602081830303815290604052805190602001201415610a235760025460005460051960ff92831601909116600a0a90610a13906001600160a01b0316610b81565b81610a1a57fe5b04915050610463565b60008181526001602052604081208054909190610a48906001600160a01b0316610b81565b8254909150600160a81b900460ff1615610abb5760008113610ab1576040805162461bcd60e51b815260206004820152601f60248201527f5072696365206d7573742062652067726561746572207468616e207a65726f00604482015290519081900360640190fd5b9250610463915050565b60008054610ad1906001600160a01b0316610b81565b9050600082138015610ae35750600081135b610b1e5760405162461bcd60e51b815260040180806020018281038252602c815260200180610d8f602c913960400191505060405180910390fd5b8254600254600160a01b90910460ff908116918116919091016005190116600a0a610b498383610cf4565b81610b5057fe5b04945050505050610463565b7f7bea13895fa79d2831e0a9e28edede30099005a50d652d8957cf8a607ee6ca4a5490565b600080600080600080866001600160a01b031663feaf968c6040518163ffffffff1660e01b815260040160a06040518083038186803b158015610bc357600080fd5b505afa158015610bd7573d6000803e3d6000fd5b505050506040513d60a0811015610bed57600080fd5b5060200151979650505050505050565b7f44c4d30b2eaad5130ad70c3ba6972730566f3e6359ab83e800d905c61b1c51db5490565b6001600160a01b038116610c7d576040805162461bcd60e51b815260206004820152601a60248201527f4e657720476f7665726e6f722069732061646472657373283029000000000000604482015290519081900360640190fd5b806001600160a01b0316610c8f610b5c565b6001600160a01b03167fc7c0c772add429241571afb3805861fb3cfa2af374534088b76cdb4325a87e9a60405160405180910390a3610ccd81610d6a565b50565b7f44c4d30b2eaad5130ad70c3ba6972730566f3e6359ab83e800d905c61b1c51db55565b600082610d0357506000610463565b82820282848281610d1057fe5b0414610d63576040805162461bcd60e51b815260206004820152601760248201527f6d756c7469706c69636174696f6e206f766572666c6f77000000000000000000604482015290519081900360640190fd5b9392505050565b7f7bea13895fa79d2831e0a9e28edede30099005a50d652d8957cf8a607ee6ca4a5556fe426f74682065746820616e64207072696365206d7573742062652067726561746572207468616e207a65726f4f6e6c79207468652070656e64696e6720476f7665726e6f722063616e20636f6d706c6574652074686520636c61696da265627a7a723158205276471732d868b8933d4e4b9e092ecece7b271d7aef69200e783741397aa59064736f6c634300050b00327bea13895fa79d2831e0a9e28edede30099005a50d652d8957cf8a607ee6ca4a",
  "devdoc": {
    "methods": {
      "claimGovernance()": {
        "details": "Claim Governance of the contract to a new account (`newGovernor`). Can only be called by the new Governor."
      },
      "governor()": {
        "details": "Returns the address of the current Governor."
      },
      "isGovernor()": {
        "details": "Returns true if the caller is the current Governor."
      },
      "transferGovernance(address)": {
        "details": "Transfers Governance of the contract to a new account (`newGovernor`). Can only be called by the current Governor. Must be claimed for this to complete",
        "params": {
          "_newGovernor": "Address of the new Governor"
        }
      }
    }
  },
  "userdoc": {
    "methods": {}
  }
}