{
  "address": "0x1b84E64279D63f48DdD88B9B2A7871e817152A44",
  "abi": [
    {
      "inputs": [
        {
          "internalType": "address",
          "name": "_safeAddress",
          "type": "address"
        },
        {
          "internalType": "address",
          "name": "operator",
          "type": "address"
        },
        {
          "internalType": "address[]",
          "name": "_strategies",
          "type": "address[]"
        }
      ],
      "stateMutability": "nonpayable",
      "type": "constructor"
    },
    {
      "anonymous": false,
      "inputs": [
        {
          "indexed": false,
          "internalType": "address",
          "name": "strategy",
          "type": "address"
        }
      ],
      "name": "ClaimRewardsFailed",
      "type": "event"
    },
    {
      "anonymous": false,
      "inputs": [
        {
          "indexed": true,
          "internalType": "bytes32",
          "name": "role",
          "type": "bytes32"
        },
        {
          "indexed": true,
          "internalType": "bytes32",
          "name": "previousAdminRole",
          "type": "bytes32"
        },
        {
          "indexed": true,
          "internalType": "bytes32",
          "name": "newAdminRole",
          "type": "bytes32"
        }
      ],
      "name": "RoleAdminChanged",
      "type": "event"
    },
    {
      "anonymous": false,
      "inputs": [
        {
          "indexed": true,
          "internalType": "bytes32",
          "name": "role",
          "type": "bytes32"
        },
        {
          "indexed": true,
          "internalType": "address",
          "name": "account",
          "type": "address"
        },
        {
          "indexed": true,
          "internalType": "address",
          "name": "sender",
          "type": "address"
        }
      ],
      "name": "RoleGranted",
      "type": "event"
    },
    {
      "anonymous": false,
      "inputs": [
        {
          "indexed": true,
          "internalType": "bytes32",
          "name": "role",
          "type": "bytes32"
        },
        {
          "indexed": true,
          "internalType": "address",
          "name": "account",
          "type": "address"
        },
        {
          "indexed": true,
          "internalType": "address",
          "name": "sender",
          "type": "address"
        }
      ],
      "name": "RoleRevoked",
      "type": "event"
    },
    {
      "anonymous": false,
      "inputs": [
        {
          "indexed": false,
          "internalType": "address",
          "name": "strategy",
          "type": "address"
        }
      ],
      "name": "StrategyAdded",
      "type": "event"
    },
    {
      "anonymous": false,
      "inputs": [
        {
          "indexed": false,
          "internalType": "address",
          "name": "strategy",
          "type": "address"
        }
      ],
      "name": "StrategyRemoved",
      "type": "event"
    },
    {
      "inputs": [],
      "name": "DEFAULT_ADMIN_ROLE",
      "outputs": [
        {
          "internalType": "bytes32",
          "name": "",
          "type": "bytes32"
        }
      ],
      "stateMutability": "view",
      "type": "function"
    },
    {
      "inputs": [],
      "name": "OPERATOR_ROLE",
      "outputs": [
        {
          "internalType": "bytes32",
          "name": "",
          "type": "bytes32"
        }
      ],
      "stateMutability": "view",
      "type": "function"
    },
    {
      "inputs": [
        {
          "internalType": "address",
          "name": "_strategy",
          "type": "address"
        }
      ],
      "name": "addStrategy",
      "outputs": [],
      "stateMutability": "nonpayable",
      "type": "function"
    },
    {
      "inputs": [
        {
          "internalType": "bool",
          "name": "silent",
          "type": "bool"
        }
      ],
      "name": "claimRewards",
      "outputs": [],
      "stateMutability": "nonpayable",
      "type": "function"
    },
    {
      "inputs": [
        {
          "internalType": "bytes32",
          "name": "role",
          "type": "bytes32"
        }
      ],
      "name": "getRoleAdmin",
      "outputs": [
        {
          "internalType": "bytes32",
          "name": "",
          "type": "bytes32"
        }
      ],
      "stateMutability": "view",
      "type": "function"
    },
    {
      "inputs": [
        {
          "internalType": "bytes32",
          "name": "role",
          "type": "bytes32"
        },
        {
          "internalType": "uint256",
          "name": "index",
          "type": "uint256"
        }
      ],
      "name": "getRoleMember",
      "outputs": [
        {
          "internalType": "address",
          "name": "",
          "type": "address"
        }
      ],
      "stateMutability": "view",
      "type": "function"
    },
    {
      "inputs": [
        {
          "internalType": "bytes32",
          "name": "role",
          "type": "bytes32"
        }
      ],
      "name": "getRoleMemberCount",
      "outputs": [
        {
          "internalType": "uint256",
          "name": "",
          "type": "uint256"
        }
      ],
      "stateMutability": "view",
      "type": "function"
    },
    {
      "inputs": [
        {
          "internalType": "bytes32",
          "name": "role",
          "type": "bytes32"
        },
        {
          "internalType": "address",
          "name": "account",
          "type": "address"
        }
      ],
      "name": "grantRole",
      "outputs": [],
      "stateMutability": "nonpayable",
      "type": "function"
    },
    {
      "inputs": [
        {
          "internalType": "bytes32",
          "name": "role",
          "type": "bytes32"
        },
        {
          "internalType": "address",
          "name": "account",
          "type": "address"
        }
      ],
      "name": "hasRole",
      "outputs": [
        {
          "internalType": "bool",
          "name": "",
          "type": "bool"
        }
      ],
      "stateMutability": "view",
      "type": "function"
    },
    {
      "inputs": [
        {
          "internalType": "address",
          "name": "",
          "type": "address"
        }
      ],
      "name": "isStrategyWhitelisted",
      "outputs": [
        {
          "internalType": "bool",
          "name": "",
          "type": "bool"
        }
      ],
      "stateMutability": "view",
      "type": "function"
    },
    {
      "inputs": [
        {
          "internalType": "address",
          "name": "_strategy",
          "type": "address"
        }
      ],
      "name": "removeStrategy",
      "outputs": [],
      "stateMutability": "nonpayable",
      "type": "function"
    },
    {
      "inputs": [
        {
          "internalType": "bytes32",
          "name": "role",
          "type": "bytes32"
        },
        {
          "internalType": "address",
          "name": "account",
          "type": "address"
        }
      ],
      "name": "renounceRole",
      "outputs": [],
      "stateMutability": "nonpayable",
      "type": "function"
    },
    {
      "inputs": [
        {
          "internalType": "bytes32",
          "name": "role",
          "type": "bytes32"
        },
        {
          "internalType": "address",
          "name": "account",
          "type": "address"
        }
      ],
      "name": "revokeRole",
      "outputs": [],
      "stateMutability": "nonpayable",
      "type": "function"
    },
    {
      "inputs": [],
      "name": "safeContract",
      "outputs": [
        {
          "internalType": "contract ISafe",
          "name": "",
          "type": "address"
        }
      ],
      "stateMutability": "view",
      "type": "function"
    },
    {
      "inputs": [
        {
          "internalType": "uint256",
          "name": "",
          "type": "uint256"
        }
      ],
      "name": "strategies",
      "outputs": [
        {
          "internalType": "address",
          "name": "",
          "type": "address"
        }
      ],
      "stateMutability": "view",
      "type": "function"
    },
    {
      "inputs": [
        {
          "internalType": "bytes4",
          "name": "interfaceId",
          "type": "bytes4"
        }
      ],
      "name": "supportsInterface",
      "outputs": [
        {
          "internalType": "bool",
          "name": "",
          "type": "bool"
        }
      ],
      "stateMutability": "view",
      "type": "function"
    },
    {
      "inputs": [
        {
          "internalType": "address",
          "name": "token",
          "type": "address"
        },
        {
          "internalType": "uint256",
          "name": "amount",
          "type": "uint256"
        }
      ],
      "name": "transferTokens",
      "outputs": [],
      "stateMutability": "nonpayable",
      "type": "function"
    },
    {
      "stateMutability": "payable",
      "type": "receive"
    }
  ],
  "transactionHash": "0x4f11d30c5b0ccbaf9c1de81b588fe9ccca258bd2dfe219fbfa4af565a9884ba2",
  "args": [
    "0x4FF1b9D9ba8558F5EAfCec096318eA0d8b541971",
    "0x4b91827516f79d6F6a1F292eD99671663b09169a",
    [
      "0x26a02ec47ACC2A3442b757F45E0A82B8e993Ce11",
      "0xba0e352AB5c13861C26e4E773e7a833C3A223FE6",
      "0x2B8f37893EE713A4E9fF0cEb79F27539f20a32a1",
      "0xe3ae7C80a1B02Ccd3FB0227773553AEB14e32F26",
      "0x603CDEAEC82A60E3C4A10dA6ab546459E5f64Fa0"
    ]
  ],
  "numDeployments": 2,
  "solcInputHash": "f7603ec12c60953ebb611d8ede9ccc94",
  "bytecode": "0x60a060405234801561001057600080fd5b506040516118cd3803806118cd83398101604081905261002f91610338565b6001600160a01b0383166080819052839061004c906000906100ca565b61006c6000805160206118ad8339815191526080516100ca60201b60201c565b506100856000805160206118ad833981519152836100ca565b60005b81518110156100c1576100b98282815181106100a6576100a661042b565b60200260200101516100f160201b60201c565b600101610088565b50505050610441565b6100d482826101fa565b60008281526001602052604090206100ec9082610299565b505050565b6001600160a01b03811660009081526002602052604090205460ff161561015e5760405162461bcd60e51b815260206004820152601c60248201527f537472617465677920616c72656164792077686974656c697374656400000000604482015260640160405180910390fd5b6001600160a01b0381166000818152600260209081526040808320805460ff191660019081179091556003805491820181559093527fc2575a0e9e593c00f959f8c92f12db2869c3395a3b0502d05e2516446f71f85b90920180546001600160a01b0319168417905590519182527f3f008fd510eae7a9e7bee13513d7b83bef8003d488b5a3d0b0da4de71d6846f1910160405180910390a150565b6000828152602081815260408083206001600160a01b038516845290915290205460ff16610295576000828152602081815260408083206001600160a01b03851684529091529020805460ff191660011790556102543390565b6001600160a01b0316816001600160a01b0316837f2f8788117e7eff1d82e926ec794901d17c78024a50270940304540a733656f0d60405160405180910390a45b5050565b60006102ae836001600160a01b0384166102b7565b90505b92915050565b60008181526001830160205260408120546102fe575081546001818101845560008481526020808220909301849055845484825282860190935260409020919091556102b1565b5060006102b1565b80516001600160a01b038116811461031d57600080fd5b919050565b634e487b7160e01b600052604160045260246000fd5b60008060006060848603121561034d57600080fd5b61035684610306565b925061036460208501610306565b60408501519092506001600160401b0381111561038057600080fd5b8401601f8101861361039157600080fd5b80516001600160401b038111156103aa576103aa610322565b604051600582901b90603f8201601f191681016001600160401b03811182821017156103d8576103d8610322565b6040529182526020818401810192908101898411156103f657600080fd5b6020850194505b8385101561041c5761040e85610306565b8152602094850194016103fd565b50809450505050509250925092565b634e487b7160e01b600052603260045260246000fd5b60805161143561047860003960008181610386015281816104720152818161087e0152818161091901526109f001526114356000f3fe6080604052600436106101025760003560e01c806391d1485411610095578063ca15c87311610064578063ca15c873146102e0578063d547741f14610300578063d574ea3d14610320578063f5b541a614610340578063f9081ba21461037457600080fd5b806391d148541461025b578063999ba27c1461027b578063a217fddf146102ab578063bec3fa17146102c057600080fd5b8063248a9ca3116100d1578063248a9ca3146101a55780632f2ff15d146101e357806336568abe146102035780639010d07c1461022357600080fd5b806301ffc9a71461010e5780630e6878a314610143578063175188e814610165578063223e54791461018557600080fd5b3661010957005b600080fd5b34801561011a57600080fd5b5061012e6101293660046110ea565b6103a8565b60405190151581526020015b60405180910390f35b34801561014f57600080fd5b5061016361015e366004611125565b6103d3565b005b34801561017157600080fd5b5061016361018036600461115e565b61059c565b34801561019157600080fd5b506101636101a036600461115e565b61076d565b3480156101b157600080fd5b506101d56101c0366004611179565b60009081526020819052604090206001015490565b60405190815260200161013a565b3480156101ef57600080fd5b506101636101fe366004611192565b610786565b34801561020f57600080fd5b5061016361021e366004611192565b6107b1565b34801561022f57600080fd5b5061024361023e3660046111be565b61082b565b6040516001600160a01b03909116815260200161013a565b34801561026757600080fd5b5061012e610276366004611192565b61084a565b34801561028757600080fd5b5061012e61029636600461115e565b60026020526000908152604090205460ff1681565b3480156102b757600080fd5b506101d5600081565b3480156102cc57600080fd5b506101636102db3660046111e0565b610873565b3480156102ec57600080fd5b506101d56102fb366004611179565b610a70565b34801561030c57600080fd5b5061016361031b366004611192565b610a87565b34801561032c57600080fd5b5061024361033b366004611179565b610aad565b34801561034c57600080fd5b506101d57f97667070c54ef182b0f5858b034beac1b6f3089aa2d3188bb1e8929f4fa9b92981565b34801561038057600080fd5b506102437f000000000000000000000000000000000000000000000000000000000000000081565b60006001600160e01b03198216635a05180f60e01b14806103cd57506103cd82610ad7565b92915050565b7f97667070c54ef182b0f5858b034beac1b6f3089aa2d3188bb1e8929f4fa9b9296103fe8133610b0c565b60035460005b81811015610596576000600382815481106104215761042161120a565b600091825260208083209091015460408051600480825260248201835293810180516001600160e01b0316635a063f6360e01b179052905163468721a760e01b81526001600160a01b0392831695507f00000000000000000000000000000000000000000000000000000000000000009092169263468721a7926104ab9287928792839101611270565b6020604051808303816000875af11580156104ca573d6000803e3d6000fd5b505050506040513d601f19601f820116820180604052508101906104ee91906112ab565b905080610532576040516001600160a01b03831681527fb08029c965ef4e31d3a0ab4e712675b54823ac033f9dcd6758a7db951ce288199060200160405180910390a15b808061053b5750855b61058c5760405162461bcd60e51b815260206004820152601760248201527f4661696c656420746f20636c61696d207265776172647300000000000000000060448201526064015b60405180910390fd5b5050600101610404565b50505050565b60006105a88133610b0c565b6001600160a01b03821660009081526002602052604090205460ff166106105760405162461bcd60e51b815260206004820152601860248201527f5374726174656779206e6f742077686974656c697374656400000000000000006044820152606401610583565b6001600160a01b0382166000908152600260205260408120805460ff191690555b60035481101561072c57826001600160a01b0316600382815481106106585761065861120a565b6000918252602090912001546001600160a01b0316036107245760038054610682906001906112de565b815481106106925761069261120a565b600091825260209091200154600380546001600160a01b0390921691839081106106be576106be61120a565b9060005260206000200160006101000a8154816001600160a01b0302191690836001600160a01b0316021790555060038054806106fd576106fd6112f1565b600082815260209020810160001990810180546001600160a01b031916905501905561072c565b600101610631565b506040516001600160a01b03831681527f09a1db4b80c32706328728508c941a6b954f31eb5affd32f236c1fd405f8fea49060200160405180910390a15050565b60006107798133610b0c565b61078282610b70565b5050565b6000828152602081905260409020600101546107a28133610b0c565b6107ac8383610c75565b505050565b6001600160a01b03811633146108215760405162461bcd60e51b815260206004820152602f60248201527f416363657373436f6e74726f6c3a2063616e206f6e6c792072656e6f756e636560448201526e103937b632b9903337b91039b2b63360891b6064820152608401610583565b6107828282610c97565b60008281526001602052604081206108439083610cb9565b9392505050565b6000918252602082815260408084206001600160a01b0393909316845291905290205460ff1690565b336001600160a01b037f000000000000000000000000000000000000000000000000000000000000000016146108eb5760405162461bcd60e51b815260206004820152601f60248201527f43616c6c6572206973206e6f7420746865207361666520636f6e7472616374006044820152606401610583565b6001600160a01b03821661096257600081116109075747610909565b805b6040519091506001600160a01b037f0000000000000000000000000000000000000000000000000000000000000000169082156108fc029083906000818181858888f193505050501580156107ac573d6000803e3d6000fd5b600081116109d7576040516370a0823160e01b81523060048201526001600160a01b038316906370a0823190602401602060405180830381865afa1580156109ae573d6000803e3d6000fd5b505050506040513d601f19601f820116820180604052508101906109d29190611307565b6109d9565b805b60405163a9059cbb60e01b81526001600160a01b037f000000000000000000000000000000000000000000000000000000000000000081166004830152602482018390529192509083169063a9059cbb906044016020604051808303816000875af1158015610a4c573d6000803e3d6000fd5b505050506040513d601f19601f820116820180604052508101906107ac91906112ab565b60008181526001602052604081206103cd90610cc5565b600082815260208190526040902060010154610aa38133610b0c565b6107ac8383610c97565b60038181548110610abd57600080fd5b6000918252602090912001546001600160a01b0316905081565b60006001600160e01b03198216637965db0b60e01b14806103cd57506301ffc9a760e01b6001600160e01b03198316146103cd565b610b16828261084a565b61078257610b2e816001600160a01b03166014610ccf565b610b39836020610ccf565b604051602001610b4a929190611320565b60408051601f198184030181529082905262461bcd60e51b825261058391600401611395565b6001600160a01b03811660009081526002602052604090205460ff1615610bd95760405162461bcd60e51b815260206004820152601c60248201527f537472617465677920616c72656164792077686974656c6973746564000000006044820152606401610583565b6001600160a01b0381166000818152600260209081526040808320805460ff191660019081179091556003805491820181559093527fc2575a0e9e593c00f959f8c92f12db2869c3395a3b0502d05e2516446f71f85b90920180546001600160a01b0319168417905590519182527f3f008fd510eae7a9e7bee13513d7b83bef8003d488b5a3d0b0da4de71d6846f1910160405180910390a150565b610c7f8282610e6b565b60008281526001602052604090206107ac9082610eef565b610ca18282610f04565b60008281526001602052604090206107ac9082610f69565b60006108438383610f7e565b60006103cd825490565b60606000610cde8360026113a8565b610ce99060026113bf565b67ffffffffffffffff811115610d0157610d016113d2565b6040519080825280601f01601f191660200182016040528015610d2b576020820181803683370190505b509050600360fc1b81600081518110610d4657610d4661120a565b60200101906001600160f81b031916908160001a905350600f60fb1b81600181518110610d7557610d7561120a565b60200101906001600160f81b031916908160001a9053506000610d998460026113a8565b610da49060016113bf565b90505b6001811115610e1c576f181899199a1a9b1b9c1cb0b131b232b360811b85600f1660108110610dd857610dd861120a565b1a60f81b828281518110610dee57610dee61120a565b60200101906001600160f81b031916908160001a90535060049490941c93610e15816113e8565b9050610da7565b5083156108435760405162461bcd60e51b815260206004820181905260248201527f537472696e67733a20686578206c656e67746820696e73756666696369656e746044820152606401610583565b610e75828261084a565b610782576000828152602081815260408083206001600160a01b03851684529091529020805460ff19166001179055610eab3390565b6001600160a01b0316816001600160a01b0316837f2f8788117e7eff1d82e926ec794901d17c78024a50270940304540a733656f0d60405160405180910390a45050565b6000610843836001600160a01b038416610fa8565b610f0e828261084a565b15610782576000828152602081815260408083206001600160a01b0385168085529252808320805460ff1916905551339285917ff6391f5c32d9c69d2a47ea670b442974b53935d1edc7fd64eb21e047a839171b9190a45050565b6000610843836001600160a01b038416610ff7565b6000826000018281548110610f9557610f9561120a565b9060005260206000200154905092915050565b6000818152600183016020526040812054610fef575081546001818101845560008481526020808220909301849055845484825282860190935260409020919091556103cd565b5060006103cd565b600081815260018301602052604081205480156110e057600061101b6001836112de565b855490915060009061102f906001906112de565b905081811461109457600086600001828154811061104f5761104f61120a565b90600052602060002001549050808760000184815481106110725761107261120a565b6000918252602080832090910192909255918252600188019052604090208390555b85548690806110a5576110a56112f1565b6001900381819060005260206000200160009055905585600101600086815260200190815260200160002060009055600193505050506103cd565b60009150506103cd565b6000602082840312156110fc57600080fd5b81356001600160e01b03198116811461084357600080fd5b801515811461112257600080fd5b50565b60006020828403121561113757600080fd5b813561084381611114565b80356001600160a01b038116811461115957600080fd5b919050565b60006020828403121561117057600080fd5b61084382611142565b60006020828403121561118b57600080fd5b5035919050565b600080604083850312156111a557600080fd5b823591506111b560208401611142565b90509250929050565b600080604083850312156111d157600080fd5b50508035926020909101359150565b600080604083850312156111f357600080fd5b6111fc83611142565b946020939093013593505050565b634e487b7160e01b600052603260045260246000fd5b60005b8381101561123b578181015183820152602001611223565b50506000910152565b6000815180845261125c816020860160208601611220565b601f01601f19169290920160200192915050565b60018060a01b03851681528360208201526080604082015260006112976080830185611244565b905060ff8316606083015295945050505050565b6000602082840312156112bd57600080fd5b815161084381611114565b634e487b7160e01b600052601160045260246000fd5b818103818111156103cd576103cd6112c8565b634e487b7160e01b600052603160045260246000fd5b60006020828403121561131957600080fd5b5051919050565b7f416363657373436f6e74726f6c3a206163636f756e7420000000000000000000815260008351611358816017850160208801611220565b7001034b99036b4b9b9b4b733903937b6329607d1b6017918401918201528351611389816028840160208801611220565b01602801949350505050565b6020815260006108436020830184611244565b80820281158282048414176103cd576103cd6112c8565b808201808211156103cd576103cd6112c8565b634e487b7160e01b600052604160045260246000fd5b6000816113f7576113f76112c8565b50600019019056fea2646970667358221220e03c87e9f8d50c82d71fb3edcbd10a2bfdbe193e562ae523818c092d94dda0c464736f6c634300081c003397667070c54ef182b0f5858b034beac1b6f3089aa2d3188bb1e8929f4fa9b929",
  "libraries": {},
  "devdoc": {
    "events": {
      "RoleAdminChanged(bytes32,bytes32,bytes32)": {
        "details": "Emitted when `newAdminRole` is set as ``role``'s admin role, replacing `previousAdminRole` `DEFAULT_ADMIN_ROLE` is the starting admin for all roles, despite {RoleAdminChanged} not being emitted signaling this. _Available since v3.1._"
      },
      "RoleGranted(bytes32,address,address)": {
        "details": "Emitted when `account` is granted `role`. `sender` is the account that originated the contract call, an admin role bearer except when using {AccessControl-_setupRole}."
      },
      "RoleRevoked(bytes32,address,address)": {
        "details": "Emitted when `account` is revoked `role`. `sender` is the account that originated the contract call:   - if using `revokeRole`, it is the admin role bearer   - if using `renounceRole`, it is the role bearer (i.e. `account`)"
      }
    },
    "kind": "dev",
    "methods": {
      "addStrategy(address)": {
        "details": "Add a strategy to the whitelist",
        "params": {
          "_strategy": "The address of the strategy to add"
        }
      },
      "claimRewards(bool)": {
        "details": "Claim rewards from all whitelisted strategies",
        "params": {
          "silent": "Doesn't revert on error if set to true"
        }
      },
      "getRoleAdmin(bytes32)": {
        "details": "Returns the admin role that controls `role`. See {grantRole} and {revokeRole}. To change a role's admin, use {_setRoleAdmin}."
      },
      "getRoleMember(bytes32,uint256)": {
        "details": "Returns one of the accounts that have `role`. `index` must be a value between 0 and {getRoleMemberCount}, non-inclusive. Role bearers are not sorted in any particular way, and their ordering may change at any point. WARNING: When using {getRoleMember} and {getRoleMemberCount}, make sure you perform all queries on the same block. See the following https://forum.openzeppelin.com/t/iterating-over-elements-on-enumerableset-in-openzeppelin-contracts/2296[forum post] for more information."
      },
      "getRoleMemberCount(bytes32)": {
        "details": "Returns the number of accounts that have `role`. Can be used together with {getRoleMember} to enumerate all bearers of a role."
      },
      "grantRole(bytes32,address)": {
        "details": "Grants `role` to `account`. If `account` had not been already granted `role`, emits a {RoleGranted} event. Requirements: - the caller must have ``role``'s admin role."
      },
      "hasRole(bytes32,address)": {
        "details": "Returns `true` if `account` has been granted `role`."
      },
      "removeStrategy(address)": {
        "details": "Remove a strategy from the whitelist",
        "params": {
          "_strategy": "The address of the strategy to remove"
        }
      },
      "renounceRole(bytes32,address)": {
        "details": "Revokes `role` from the calling account. Roles are often managed via {grantRole} and {revokeRole}: this function's purpose is to provide a mechanism for accounts to lose their privileges if they are compromised (such as when a trusted device is misplaced). If the calling account had been revoked `role`, emits a {RoleRevoked} event. Requirements: - the caller must be `account`."
      },
      "revokeRole(bytes32,address)": {
        "details": "Revokes `role` from `account`. If `account` had been granted `role`, emits a {RoleRevoked} event. Requirements: - the caller must have ``role``'s admin role."
      },
      "supportsInterface(bytes4)": {
        "details": "See {IERC165-supportsInterface}."
      },
      "transferTokens(address,uint256)": {
        "details": "Helps recovering any tokens accidentally sent to this module.",
        "params": {
          "amount": "Amount to transfer. 0 to transfer all balance.",
          "token": "Token to transfer. 0x0 to transfer Native token."
        }
      }
    },
    "version": 1
  },
  "userdoc": {
    "kind": "user",
    "methods": {},
    "version": 1
  },
  "storageLayout": {
    "storage": [
      {
        "astId": 2872,
        "contract": "contracts/automation/ClaimStrategyRewardsSafeModule.sol:ClaimStrategyRewardsSafeModule",
        "label": "_roles",
        "offset": 0,
        "slot": "0",
        "type": "t_mapping(t_bytes32,t_struct(RoleData)2867_storage)"
      },
      {
        "astId": 3175,
        "contract": "contracts/automation/ClaimStrategyRewardsSafeModule.sol:ClaimStrategyRewardsSafeModule",
        "label": "_roleMembers",
        "offset": 0,
        "slot": "1",
        "type": "t_mapping(t_bytes32,t_struct(AddressSet)6112_storage)"
      },
      {
        "astId": 7725,
        "contract": "contracts/automation/ClaimStrategyRewardsSafeModule.sol:ClaimStrategyRewardsSafeModule",
        "label": "isStrategyWhitelisted",
        "offset": 0,
        "slot": "2",
        "type": "t_mapping(t_address,t_bool)"
      },
      {
        "astId": 7728,
        "contract": "contracts/automation/ClaimStrategyRewardsSafeModule.sol:ClaimStrategyRewardsSafeModule",
        "label": "strategies",
        "offset": 0,
        "slot": "3",
        "type": "t_array(t_address)dyn_storage"
      }
    ],
    "types": {
      "t_address": {
        "encoding": "inplace",
        "label": "address",
        "numberOfBytes": "20"
      },
      "t_array(t_address)dyn_storage": {
        "base": "t_address",
        "encoding": "dynamic_array",
        "label": "address[]",
        "numberOfBytes": "32"
      },
      "t_array(t_bytes32)dyn_storage": {
        "base": "t_bytes32",
        "encoding": "dynamic_array",
        "label": "bytes32[]",
        "numberOfBytes": "32"
      },
      "t_bool": {
        "encoding": "inplace",
        "label": "bool",
        "numberOfBytes": "1"
      },
      "t_bytes32": {
        "encoding": "inplace",
        "label": "bytes32",
        "numberOfBytes": "32"
      },
      "t_mapping(t_address,t_bool)": {
        "encoding": "mapping",
        "key": "t_address",
        "label": "mapping(address => bool)",
        "numberOfBytes": "32",
        "value": "t_bool"
      },
      "t_mapping(t_bytes32,t_struct(AddressSet)6112_storage)": {
        "encoding": "mapping",
        "key": "t_bytes32",
        "label": "mapping(bytes32 => struct EnumerableSet.AddressSet)",
        "numberOfBytes": "32",
        "value": "t_struct(AddressSet)6112_storage"
      },
      "t_mapping(t_bytes32,t_struct(RoleData)2867_storage)": {
        "encoding": "mapping",
        "key": "t_bytes32",
        "label": "mapping(bytes32 => struct AccessControl.RoleData)",
        "numberOfBytes": "32",
        "value": "t_struct(RoleData)2867_storage"
      },
      "t_mapping(t_bytes32,t_uint256)": {
        "encoding": "mapping",
        "key": "t_bytes32",
        "label": "mapping(bytes32 => uint256)",
        "numberOfBytes": "32",
        "value": "t_uint256"
      },
      "t_struct(AddressSet)6112_storage": {
        "encoding": "inplace",
        "label": "struct EnumerableSet.AddressSet",
        "members": [
          {
            "astId": 6111,
            "contract": "contracts/automation/ClaimStrategyRewardsSafeModule.sol:ClaimStrategyRewardsSafeModule",
            "label": "_inner",
            "offset": 0,
            "slot": "0",
            "type": "t_struct(Set)5811_storage"
          }
        ],
        "numberOfBytes": "64"
      },
      "t_struct(RoleData)2867_storage": {
        "encoding": "inplace",
        "label": "struct AccessControl.RoleData",
        "members": [
          {
            "astId": 2864,
            "contract": "contracts/automation/ClaimStrategyRewardsSafeModule.sol:ClaimStrategyRewardsSafeModule",
            "label": "members",
            "offset": 0,
            "slot": "0",
            "type": "t_mapping(t_address,t_bool)"
          },
          {
            "astId": 2866,
            "contract": "contracts/automation/ClaimStrategyRewardsSafeModule.sol:ClaimStrategyRewardsSafeModule",
            "label": "adminRole",
            "offset": 0,
            "slot": "1",
            "type": "t_bytes32"
          }
        ],
        "numberOfBytes": "64"
      },
      "t_struct(Set)5811_storage": {
        "encoding": "inplace",
        "label": "struct EnumerableSet.Set",
        "members": [
          {
            "astId": 5806,
            "contract": "contracts/automation/ClaimStrategyRewardsSafeModule.sol:ClaimStrategyRewardsSafeModule",
            "label": "_values",
            "offset": 0,
            "slot": "0",
            "type": "t_array(t_bytes32)dyn_storage"
          },
          {
            "astId": 5810,
            "contract": "contracts/automation/ClaimStrategyRewardsSafeModule.sol:ClaimStrategyRewardsSafeModule",
            "label": "_indexes",
            "offset": 0,
            "slot": "1",
            "type": "t_mapping(t_bytes32,t_uint256)"
          }
        ],
        "numberOfBytes": "64"
      },
      "t_uint256": {
        "encoding": "inplace",
        "label": "uint256",
        "numberOfBytes": "32"
      }
    }
  }
}