{
  "address": "0xc3472011a60336E53e0968e822A4E80D5F0d3F41",
  "abi": [
    {
      "inputs": [
        {
          "internalType": "address",
          "name": "_safeAddress",
          "type": "address"
        },
        {
          "internalType": "address[]",
          "name": "_strategies",
          "type": "address[]"
        }
      ],
      "stateMutability": "nonpayable",
      "type": "constructor"
    },
    {
      "anonymous": false,
      "inputs": [
        {
          "indexed": false,
          "internalType": "address",
          "name": "strategy",
          "type": "address"
        }
      ],
      "name": "ClaimRewardsFailed",
      "type": "event"
    },
    {
      "anonymous": false,
      "inputs": [
        {
          "indexed": true,
          "internalType": "bytes32",
          "name": "role",
          "type": "bytes32"
        },
        {
          "indexed": true,
          "internalType": "bytes32",
          "name": "previousAdminRole",
          "type": "bytes32"
        },
        {
          "indexed": true,
          "internalType": "bytes32",
          "name": "newAdminRole",
          "type": "bytes32"
        }
      ],
      "name": "RoleAdminChanged",
      "type": "event"
    },
    {
      "anonymous": false,
      "inputs": [
        {
          "indexed": true,
          "internalType": "bytes32",
          "name": "role",
          "type": "bytes32"
        },
        {
          "indexed": true,
          "internalType": "address",
          "name": "account",
          "type": "address"
        },
        {
          "indexed": true,
          "internalType": "address",
          "name": "sender",
          "type": "address"
        }
      ],
      "name": "RoleGranted",
      "type": "event"
    },
    {
      "anonymous": false,
      "inputs": [
        {
          "indexed": true,
          "internalType": "bytes32",
          "name": "role",
          "type": "bytes32"
        },
        {
          "indexed": true,
          "internalType": "address",
          "name": "account",
          "type": "address"
        },
        {
          "indexed": true,
          "internalType": "address",
          "name": "sender",
          "type": "address"
        }
      ],
      "name": "RoleRevoked",
      "type": "event"
    },
    {
      "anonymous": false,
      "inputs": [
        {
          "indexed": false,
          "internalType": "address",
          "name": "strategy",
          "type": "address"
        }
      ],
      "name": "StrategyAdded",
      "type": "event"
    },
    {
      "anonymous": false,
      "inputs": [
        {
          "indexed": false,
          "internalType": "address",
          "name": "strategy",
          "type": "address"
        }
      ],
      "name": "StrategyRemoved",
      "type": "event"
    },
    {
      "inputs": [],
      "name": "DEFAULT_ADMIN_ROLE",
      "outputs": [
        {
          "internalType": "bytes32",
          "name": "",
          "type": "bytes32"
        }
      ],
      "stateMutability": "view",
      "type": "function"
    },
    {
      "inputs": [],
      "name": "OPERATOR_ROLE",
      "outputs": [
        {
          "internalType": "bytes32",
          "name": "",
          "type": "bytes32"
        }
      ],
      "stateMutability": "view",
      "type": "function"
    },
    {
      "inputs": [
        {
          "internalType": "address",
          "name": "_strategy",
          "type": "address"
        }
      ],
      "name": "addStrategy",
      "outputs": [],
      "stateMutability": "nonpayable",
      "type": "function"
    },
    {
      "inputs": [
        {
          "internalType": "bool",
          "name": "silent",
          "type": "bool"
        }
      ],
      "name": "claimRewards",
      "outputs": [],
      "stateMutability": "nonpayable",
      "type": "function"
    },
    {
      "inputs": [
        {
          "internalType": "bytes32",
          "name": "role",
          "type": "bytes32"
        }
      ],
      "name": "getRoleAdmin",
      "outputs": [
        {
          "internalType": "bytes32",
          "name": "",
          "type": "bytes32"
        }
      ],
      "stateMutability": "view",
      "type": "function"
    },
    {
      "inputs": [
        {
          "internalType": "bytes32",
          "name": "role",
          "type": "bytes32"
        },
        {
          "internalType": "uint256",
          "name": "index",
          "type": "uint256"
        }
      ],
      "name": "getRoleMember",
      "outputs": [
        {
          "internalType": "address",
          "name": "",
          "type": "address"
        }
      ],
      "stateMutability": "view",
      "type": "function"
    },
    {
      "inputs": [
        {
          "internalType": "bytes32",
          "name": "role",
          "type": "bytes32"
        }
      ],
      "name": "getRoleMemberCount",
      "outputs": [
        {
          "internalType": "uint256",
          "name": "",
          "type": "uint256"
        }
      ],
      "stateMutability": "view",
      "type": "function"
    },
    {
      "inputs": [
        {
          "internalType": "bytes32",
          "name": "role",
          "type": "bytes32"
        },
        {
          "internalType": "address",
          "name": "account",
          "type": "address"
        }
      ],
      "name": "grantRole",
      "outputs": [],
      "stateMutability": "nonpayable",
      "type": "function"
    },
    {
      "inputs": [
        {
          "internalType": "bytes32",
          "name": "role",
          "type": "bytes32"
        },
        {
          "internalType": "address",
          "name": "account",
          "type": "address"
        }
      ],
      "name": "hasRole",
      "outputs": [
        {
          "internalType": "bool",
          "name": "",
          "type": "bool"
        }
      ],
      "stateMutability": "view",
      "type": "function"
    },
    {
      "inputs": [
        {
          "internalType": "address",
          "name": "",
          "type": "address"
        }
      ],
      "name": "isStrategyWhitelisted",
      "outputs": [
        {
          "internalType": "bool",
          "name": "",
          "type": "bool"
        }
      ],
      "stateMutability": "view",
      "type": "function"
    },
    {
      "inputs": [
        {
          "internalType": "address",
          "name": "_strategy",
          "type": "address"
        }
      ],
      "name": "removeStrategy",
      "outputs": [],
      "stateMutability": "nonpayable",
      "type": "function"
    },
    {
      "inputs": [
        {
          "internalType": "bytes32",
          "name": "role",
          "type": "bytes32"
        },
        {
          "internalType": "address",
          "name": "account",
          "type": "address"
        }
      ],
      "name": "renounceRole",
      "outputs": [],
      "stateMutability": "nonpayable",
      "type": "function"
    },
    {
      "inputs": [
        {
          "internalType": "bytes32",
          "name": "role",
          "type": "bytes32"
        },
        {
          "internalType": "address",
          "name": "account",
          "type": "address"
        }
      ],
      "name": "revokeRole",
      "outputs": [],
      "stateMutability": "nonpayable",
      "type": "function"
    },
    {
      "inputs": [],
      "name": "safeAddress",
      "outputs": [
        {
          "internalType": "contract ISafe",
          "name": "",
          "type": "address"
        }
      ],
      "stateMutability": "view",
      "type": "function"
    },
    {
      "inputs": [
        {
          "internalType": "uint256",
          "name": "",
          "type": "uint256"
        }
      ],
      "name": "strategies",
      "outputs": [
        {
          "internalType": "address",
          "name": "",
          "type": "address"
        }
      ],
      "stateMutability": "view",
      "type": "function"
    },
    {
      "inputs": [
        {
          "internalType": "bytes4",
          "name": "interfaceId",
          "type": "bytes4"
        }
      ],
      "name": "supportsInterface",
      "outputs": [
        {
          "internalType": "bool",
          "name": "",
          "type": "bool"
        }
      ],
      "stateMutability": "view",
      "type": "function"
    }
  ],
  "transactionHash": "0xf5e7e6bec060edea37bdae24dda3ad8bb4f7837e58c3ccb7e6f04d2c5c653ad5",
  "args": [
    "0x4FF1b9D9ba8558F5EAfCec096318eA0d8b541971",
    [
      "0x26a02ec47ACC2A3442b757F45E0A82B8e993Ce11",
      "0xba0e352AB5c13861C26e4E773e7a833C3A223FE6",
      "0x603CDEAEC82A60E3C4A10dA6ab546459E5f64Fa0",
      "0x2B8f37893EE713A4E9fF0cEb79F27539f20a32a1",
      "0xe3ae7C80a1B02Ccd3FB0227773553AEB14e32F26"
    ]
  ],
  "numDeployments": 1,
  "solcInputHash": "dc20e0c8f4f5d2f888ff0667f4ebbcaf",
  "bytecode": "0x60a060405234801561001057600080fd5b5060405161154738038061154783398101604081905261002f91610330565b61003a6000836100b5565b6100647f97667070c54ef182b0f5858b034beac1b6f3089aa2d3188bb1e8929f4fa9b929836100b5565b6001600160a01b03821660805260005b81518110156100ad576100a582828151811061009257610092610413565b60200260200101516100c360201b60201c565b600101610074565b505050610429565b6100bf82826101cc565b5050565b6001600160a01b03811660009081526002602052604090205460ff16156101305760405162461bcd60e51b815260206004820152601c60248201527f537472617465677920616c72656164792077686974656c697374656400000000604482015260640160405180910390fd5b6001600160a01b0381166000818152600260209081526040808320805460ff191660019081179091556003805491820181559093527fc2575a0e9e593c00f959f8c92f12db2869c3395a3b0502d05e2516446f71f85b90920180546001600160a01b0319168417905590519182527f3f008fd510eae7a9e7bee13513d7b83bef8003d488b5a3d0b0da4de71d6846f1910160405180910390a150565b6101d682826101f3565b60008281526001602052604090206101ee9082610291565b505050565b6000828152602081815260408083206001600160a01b038516845290915290205460ff166100bf576000828152602081815260408083206001600160a01b03851684529091529020805460ff1916600117905561024d3390565b6001600160a01b0316816001600160a01b0316837f2f8788117e7eff1d82e926ec794901d17c78024a50270940304540a733656f0d60405160405180910390a45050565b60006102a6836001600160a01b0384166102af565b90505b92915050565b60008181526001830160205260408120546102f6575081546001818101845560008481526020808220909301849055845484825282860190935260409020919091556102a9565b5060006102a9565b80516001600160a01b038116811461031557600080fd5b919050565b634e487b7160e01b600052604160045260246000fd5b6000806040838503121561034357600080fd5b61034c836102fe565b60208401519092506001600160401b0381111561036857600080fd5b8301601f8101851361037957600080fd5b80516001600160401b038111156103925761039261031a565b604051600582901b90603f8201601f191681016001600160401b03811182821017156103c0576103c061031a565b6040529182526020818401810192908101888411156103de57600080fd5b6020850194505b83851015610404576103f6856102fe565b8152602094850194016103e5565b50809450505050509250929050565b634e487b7160e01b600052603260045260246000fd5b6080516110fc61044b600039600081816101c4015261037901526110fc6000f3fe608060405234801561001057600080fd5b50600436106101005760003560e01c80639010d07c11610097578063ca15c87311610066578063ca15c8731461024f578063d547741f14610262578063d574ea3d14610275578063f5b541a61461028857600080fd5b80639010d07c146101fe57806391d1485414610211578063999ba27c14610224578063a217fddf1461024757600080fd5b8063248a9ca3116100d3578063248a9ca3146101685780632f2ff15d1461019957806336568abe146101ac5780635578110c146101bf57600080fd5b806301ffc9a7146101055780630e6878a31461012d578063175188e814610142578063223e547914610155575b600080fd5b610118610113366004610df4565b6102af565b60405190151581526020015b60405180910390f35b61014061013b366004610e2f565b6102da565b005b610140610150366004610e68565b6104a3565b610140610163366004610e68565b610674565b61018b610176366004610e83565b60009081526020819052604090206001015490565b604051908152602001610124565b6101406101a7366004610e9c565b61068d565b6101406101ba366004610e9c565b6106b8565b6101e67f000000000000000000000000000000000000000000000000000000000000000081565b6040516001600160a01b039091168152602001610124565b6101e661020c366004610ec8565b610732565b61011861021f366004610e9c565b610751565b610118610232366004610e68565b60026020526000908152604090205460ff1681565b61018b600081565b61018b61025d366004610e83565b61077a565b610140610270366004610e9c565b610791565b6101e6610283366004610e83565b6107b7565b61018b7f97667070c54ef182b0f5858b034beac1b6f3089aa2d3188bb1e8929f4fa9b92981565b60006001600160e01b03198216635a05180f60e01b14806102d457506102d4826107e1565b92915050565b7f97667070c54ef182b0f5858b034beac1b6f3089aa2d3188bb1e8929f4fa9b9296103058133610816565b60035460005b8181101561049d5760006003828154811061032857610328610eea565b600091825260208083209091015460408051600480825260248201835293810180516001600160e01b0316635a063f6360e01b179052905163468721a760e01b81526001600160a01b0392831695507f00000000000000000000000000000000000000000000000000000000000000009092169263468721a7926103b29287928792839101610f50565b6020604051808303816000875af11580156103d1573d6000803e3d6000fd5b505050506040513d601f19601f820116820180604052508101906103f59190610f8b565b905080610439576040516001600160a01b03831681527fb08029c965ef4e31d3a0ab4e712675b54823ac033f9dcd6758a7db951ce288199060200160405180910390a15b80806104425750855b6104935760405162461bcd60e51b815260206004820152601760248201527f4661696c656420746f20636c61696d207265776172647300000000000000000060448201526064015b60405180910390fd5b505060010161030b565b50505050565b60006104af8133610816565b6001600160a01b03821660009081526002602052604090205460ff166105175760405162461bcd60e51b815260206004820152601860248201527f5374726174656779206e6f742077686974656c69737465640000000000000000604482015260640161048a565b6001600160a01b0382166000908152600260205260408120805460ff191690555b60035481101561063357826001600160a01b03166003828154811061055f5761055f610eea565b6000918252602090912001546001600160a01b03160361062b576003805461058990600190610fbe565b8154811061059957610599610eea565b600091825260209091200154600380546001600160a01b0390921691839081106105c5576105c5610eea565b9060005260206000200160006101000a8154816001600160a01b0302191690836001600160a01b03160217905550600380548061060457610604610fd1565b600082815260209020810160001990810180546001600160a01b0319169055019055610633565b600101610538565b506040516001600160a01b03831681527f09a1db4b80c32706328728508c941a6b954f31eb5affd32f236c1fd405f8fea49060200160405180910390a15050565b60006106808133610816565b6106898261087a565b5050565b6000828152602081905260409020600101546106a98133610816565b6106b3838361097f565b505050565b6001600160a01b03811633146107285760405162461bcd60e51b815260206004820152602f60248201527f416363657373436f6e74726f6c3a2063616e206f6e6c792072656e6f756e636560448201526e103937b632b9903337b91039b2b63360891b606482015260840161048a565b61068982826109a1565b600082815260016020526040812061074a90836109c3565b9392505050565b6000918252602082815260408084206001600160a01b0393909316845291905290205460ff1690565b60008181526001602052604081206102d4906109cf565b6000828152602081905260409020600101546107ad8133610816565b6106b383836109a1565b600381815481106107c757600080fd5b6000918252602090912001546001600160a01b0316905081565b60006001600160e01b03198216637965db0b60e01b14806102d457506301ffc9a760e01b6001600160e01b03198316146102d4565b6108208282610751565b61068957610838816001600160a01b031660146109d9565b6108438360206109d9565b604051602001610854929190610fe7565b60408051601f198184030181529082905262461bcd60e51b825261048a9160040161105c565b6001600160a01b03811660009081526002602052604090205460ff16156108e35760405162461bcd60e51b815260206004820152601c60248201527f537472617465677920616c72656164792077686974656c697374656400000000604482015260640161048a565b6001600160a01b0381166000818152600260209081526040808320805460ff191660019081179091556003805491820181559093527fc2575a0e9e593c00f959f8c92f12db2869c3395a3b0502d05e2516446f71f85b90920180546001600160a01b0319168417905590519182527f3f008fd510eae7a9e7bee13513d7b83bef8003d488b5a3d0b0da4de71d6846f1910160405180910390a150565b6109898282610b75565b60008281526001602052604090206106b39082610bf9565b6109ab8282610c0e565b60008281526001602052604090206106b39082610c73565b600061074a8383610c88565b60006102d4825490565b606060006109e883600261106f565b6109f3906002611086565b67ffffffffffffffff811115610a0b57610a0b611099565b6040519080825280601f01601f191660200182016040528015610a35576020820181803683370190505b509050600360fc1b81600081518110610a5057610a50610eea565b60200101906001600160f81b031916908160001a905350600f60fb1b81600181518110610a7f57610a7f610eea565b60200101906001600160f81b031916908160001a9053506000610aa384600261106f565b610aae906001611086565b90505b6001811115610b26576f181899199a1a9b1b9c1cb0b131b232b360811b85600f1660108110610ae257610ae2610eea565b1a60f81b828281518110610af857610af8610eea565b60200101906001600160f81b031916908160001a90535060049490941c93610b1f816110af565b9050610ab1565b50831561074a5760405162461bcd60e51b815260206004820181905260248201527f537472696e67733a20686578206c656e67746820696e73756666696369656e74604482015260640161048a565b610b7f8282610751565b610689576000828152602081815260408083206001600160a01b03851684529091529020805460ff19166001179055610bb53390565b6001600160a01b0316816001600160a01b0316837f2f8788117e7eff1d82e926ec794901d17c78024a50270940304540a733656f0d60405160405180910390a45050565b600061074a836001600160a01b038416610cb2565b610c188282610751565b15610689576000828152602081815260408083206001600160a01b0385168085529252808320805460ff1916905551339285917ff6391f5c32d9c69d2a47ea670b442974b53935d1edc7fd64eb21e047a839171b9190a45050565b600061074a836001600160a01b038416610d01565b6000826000018281548110610c9f57610c9f610eea565b9060005260206000200154905092915050565b6000818152600183016020526040812054610cf9575081546001818101845560008481526020808220909301849055845484825282860190935260409020919091556102d4565b5060006102d4565b60008181526001830160205260408120548015610dea576000610d25600183610fbe565b8554909150600090610d3990600190610fbe565b9050818114610d9e576000866000018281548110610d5957610d59610eea565b9060005260206000200154905080876000018481548110610d7c57610d7c610eea565b6000918252602080832090910192909255918252600188019052604090208390555b8554869080610daf57610daf610fd1565b6001900381819060005260206000200160009055905585600101600086815260200190815260200160002060009055600193505050506102d4565b60009150506102d4565b600060208284031215610e0657600080fd5b81356001600160e01b03198116811461074a57600080fd5b8015158114610e2c57600080fd5b50565b600060208284031215610e4157600080fd5b813561074a81610e1e565b80356001600160a01b0381168114610e6357600080fd5b919050565b600060208284031215610e7a57600080fd5b61074a82610e4c565b600060208284031215610e9557600080fd5b5035919050565b60008060408385031215610eaf57600080fd5b82359150610ebf60208401610e4c565b90509250929050565b60008060408385031215610edb57600080fd5b50508035926020909101359150565b634e487b7160e01b600052603260045260246000fd5b60005b83811015610f1b578181015183820152602001610f03565b50506000910152565b60008151808452610f3c816020860160208601610f00565b601f01601f19169290920160200192915050565b60018060a01b0385168152836020820152608060408201526000610f776080830185610f24565b905060ff8316606083015295945050505050565b600060208284031215610f9d57600080fd5b815161074a81610e1e565b634e487b7160e01b600052601160045260246000fd5b818103818111156102d4576102d4610fa8565b634e487b7160e01b600052603160045260246000fd5b7f416363657373436f6e74726f6c3a206163636f756e742000000000000000000081526000835161101f816017850160208801610f00565b7001034b99036b4b9b9b4b733903937b6329607d1b6017918401918201528351611050816028840160208801610f00565b01602801949350505050565b60208152600061074a6020830184610f24565b80820281158282048414176102d4576102d4610fa8565b808201808211156102d4576102d4610fa8565b634e487b7160e01b600052604160045260246000fd5b6000816110be576110be610fa8565b50600019019056fea26469706673582212209fc3a34d1943f74e3e54c1edbc56f060650410b13c3de7b33b6366a9d0a5c4a164736f6c634300081c0033",
  "libraries": {},
  "devdoc": {
    "events": {
      "RoleAdminChanged(bytes32,bytes32,bytes32)": {
        "details": "Emitted when `newAdminRole` is set as ``role``'s admin role, replacing `previousAdminRole` `DEFAULT_ADMIN_ROLE` is the starting admin for all roles, despite {RoleAdminChanged} not being emitted signaling this. _Available since v3.1._"
      },
      "RoleGranted(bytes32,address,address)": {
        "details": "Emitted when `account` is granted `role`. `sender` is the account that originated the contract call, an admin role bearer except when using {AccessControl-_setupRole}."
      },
      "RoleRevoked(bytes32,address,address)": {
        "details": "Emitted when `account` is revoked `role`. `sender` is the account that originated the contract call:   - if using `revokeRole`, it is the admin role bearer   - if using `renounceRole`, it is the role bearer (i.e. `account`)"
      }
    },
    "kind": "dev",
    "methods": {
      "addStrategy(address)": {
        "details": "Add a strategy to the whitelist",
        "params": {
          "_strategy": "The address of the strategy to add"
        }
      },
      "claimRewards(bool)": {
        "details": "Claim rewards from all whitelisted strategies",
        "params": {
          "silent": "Doesn't revert on error if set to true"
        }
      },
      "getRoleAdmin(bytes32)": {
        "details": "Returns the admin role that controls `role`. See {grantRole} and {revokeRole}. To change a role's admin, use {_setRoleAdmin}."
      },
      "getRoleMember(bytes32,uint256)": {
        "details": "Returns one of the accounts that have `role`. `index` must be a value between 0 and {getRoleMemberCount}, non-inclusive. Role bearers are not sorted in any particular way, and their ordering may change at any point. WARNING: When using {getRoleMember} and {getRoleMemberCount}, make sure you perform all queries on the same block. See the following https://forum.openzeppelin.com/t/iterating-over-elements-on-enumerableset-in-openzeppelin-contracts/2296[forum post] for more information."
      },
      "getRoleMemberCount(bytes32)": {
        "details": "Returns the number of accounts that have `role`. Can be used together with {getRoleMember} to enumerate all bearers of a role."
      },
      "grantRole(bytes32,address)": {
        "details": "Grants `role` to `account`. If `account` had not been already granted `role`, emits a {RoleGranted} event. Requirements: - the caller must have ``role``'s admin role."
      },
      "hasRole(bytes32,address)": {
        "details": "Returns `true` if `account` has been granted `role`."
      },
      "removeStrategy(address)": {
        "details": "Remove a strategy from the whitelist",
        "params": {
          "_strategy": "The address of the strategy to remove"
        }
      },
      "renounceRole(bytes32,address)": {
        "details": "Revokes `role` from the calling account. Roles are often managed via {grantRole} and {revokeRole}: this function's purpose is to provide a mechanism for accounts to lose their privileges if they are compromised (such as when a trusted device is misplaced). If the calling account had been revoked `role`, emits a {RoleRevoked} event. Requirements: - the caller must be `account`."
      },
      "revokeRole(bytes32,address)": {
        "details": "Revokes `role` from `account`. If `account` had been granted `role`, emits a {RoleRevoked} event. Requirements: - the caller must have ``role``'s admin role."
      },
      "supportsInterface(bytes4)": {
        "details": "See {IERC165-supportsInterface}."
      }
    },
    "version": 1
  },
  "userdoc": {
    "kind": "user",
    "methods": {},
    "version": 1
  },
  "storageLayout": {
    "storage": [
      {
        "astId": 24,
        "contract": "contracts/automation/ClaimStrategyRewardsSafeModule.sol:ClaimStrategyRewardsSafeModule",
        "label": "_roles",
        "offset": 0,
        "slot": "0",
        "type": "t_mapping(t_bytes32,t_struct(RoleData)19_storage)"
      },
      {
        "astId": 327,
        "contract": "contracts/automation/ClaimStrategyRewardsSafeModule.sol:ClaimStrategyRewardsSafeModule",
        "label": "_roleMembers",
        "offset": 0,
        "slot": "1",
        "type": "t_mapping(t_bytes32,t_struct(AddressSet)1703_storage)"
      },
      {
        "astId": 2020,
        "contract": "contracts/automation/ClaimStrategyRewardsSafeModule.sol:ClaimStrategyRewardsSafeModule",
        "label": "isStrategyWhitelisted",
        "offset": 0,
        "slot": "2",
        "type": "t_mapping(t_address,t_bool)"
      },
      {
        "astId": 2023,
        "contract": "contracts/automation/ClaimStrategyRewardsSafeModule.sol:ClaimStrategyRewardsSafeModule",
        "label": "strategies",
        "offset": 0,
        "slot": "3",
        "type": "t_array(t_address)dyn_storage"
      }
    ],
    "types": {
      "t_address": {
        "encoding": "inplace",
        "label": "address",
        "numberOfBytes": "20"
      },
      "t_array(t_address)dyn_storage": {
        "base": "t_address",
        "encoding": "dynamic_array",
        "label": "address[]",
        "numberOfBytes": "32"
      },
      "t_array(t_bytes32)dyn_storage": {
        "base": "t_bytes32",
        "encoding": "dynamic_array",
        "label": "bytes32[]",
        "numberOfBytes": "32"
      },
      "t_bool": {
        "encoding": "inplace",
        "label": "bool",
        "numberOfBytes": "1"
      },
      "t_bytes32": {
        "encoding": "inplace",
        "label": "bytes32",
        "numberOfBytes": "32"
      },
      "t_mapping(t_address,t_bool)": {
        "encoding": "mapping",
        "key": "t_address",
        "label": "mapping(address => bool)",
        "numberOfBytes": "32",
        "value": "t_bool"
      },
      "t_mapping(t_bytes32,t_struct(AddressSet)1703_storage)": {
        "encoding": "mapping",
        "key": "t_bytes32",
        "label": "mapping(bytes32 => struct EnumerableSet.AddressSet)",
        "numberOfBytes": "32",
        "value": "t_struct(AddressSet)1703_storage"
      },
      "t_mapping(t_bytes32,t_struct(RoleData)19_storage)": {
        "encoding": "mapping",
        "key": "t_bytes32",
        "label": "mapping(bytes32 => struct AccessControl.RoleData)",
        "numberOfBytes": "32",
        "value": "t_struct(RoleData)19_storage"
      },
      "t_mapping(t_bytes32,t_uint256)": {
        "encoding": "mapping",
        "key": "t_bytes32",
        "label": "mapping(bytes32 => uint256)",
        "numberOfBytes": "32",
        "value": "t_uint256"
      },
      "t_struct(AddressSet)1703_storage": {
        "encoding": "inplace",
        "label": "struct EnumerableSet.AddressSet",
        "members": [
          {
            "astId": 1702,
            "contract": "contracts/automation/ClaimStrategyRewardsSafeModule.sol:ClaimStrategyRewardsSafeModule",
            "label": "_inner",
            "offset": 0,
            "slot": "0",
            "type": "t_struct(Set)1402_storage"
          }
        ],
        "numberOfBytes": "64"
      },
      "t_struct(RoleData)19_storage": {
        "encoding": "inplace",
        "label": "struct AccessControl.RoleData",
        "members": [
          {
            "astId": 16,
            "contract": "contracts/automation/ClaimStrategyRewardsSafeModule.sol:ClaimStrategyRewardsSafeModule",
            "label": "members",
            "offset": 0,
            "slot": "0",
            "type": "t_mapping(t_address,t_bool)"
          },
          {
            "astId": 18,
            "contract": "contracts/automation/ClaimStrategyRewardsSafeModule.sol:ClaimStrategyRewardsSafeModule",
            "label": "adminRole",
            "offset": 0,
            "slot": "1",
            "type": "t_bytes32"
          }
        ],
        "numberOfBytes": "64"
      },
      "t_struct(Set)1402_storage": {
        "encoding": "inplace",
        "label": "struct EnumerableSet.Set",
        "members": [
          {
            "astId": 1397,
            "contract": "contracts/automation/ClaimStrategyRewardsSafeModule.sol:ClaimStrategyRewardsSafeModule",
            "label": "_values",
            "offset": 0,
            "slot": "0",
            "type": "t_array(t_bytes32)dyn_storage"
          },
          {
            "astId": 1401,
            "contract": "contracts/automation/ClaimStrategyRewardsSafeModule.sol:ClaimStrategyRewardsSafeModule",
            "label": "_indexes",
            "offset": 0,
            "slot": "1",
            "type": "t_mapping(t_bytes32,t_uint256)"
          }
        ],
        "numberOfBytes": "64"
      },
      "t_uint256": {
        "encoding": "inplace",
        "label": "uint256",
        "numberOfBytes": "32"
      }
    }
  }
}