{
  "address": "0x15228dAE3B228175fBD9639d049265eFb08e60b6",
  "abi": [
    {
      "inputs": [
        {
          "internalType": "address",
          "name": "_safeContract",
          "type": "address"
        },
        {
          "internalType": "address",
          "name": "operator",
          "type": "address"
        }
      ],
      "stateMutability": "nonpayable",
      "type": "constructor"
    },
    {
      "anonymous": false,
      "inputs": [
        {
          "indexed": true,
          "internalType": "bytes32",
          "name": "role",
          "type": "bytes32"
        },
        {
          "indexed": true,
          "internalType": "bytes32",
          "name": "previousAdminRole",
          "type": "bytes32"
        },
        {
          "indexed": true,
          "internalType": "bytes32",
          "name": "newAdminRole",
          "type": "bytes32"
        }
      ],
      "name": "RoleAdminChanged",
      "type": "event"
    },
    {
      "anonymous": false,
      "inputs": [
        {
          "indexed": true,
          "internalType": "bytes32",
          "name": "role",
          "type": "bytes32"
        },
        {
          "indexed": true,
          "internalType": "address",
          "name": "account",
          "type": "address"
        },
        {
          "indexed": true,
          "internalType": "address",
          "name": "sender",
          "type": "address"
        }
      ],
      "name": "RoleGranted",
      "type": "event"
    },
    {
      "anonymous": false,
      "inputs": [
        {
          "indexed": true,
          "internalType": "bytes32",
          "name": "role",
          "type": "bytes32"
        },
        {
          "indexed": true,
          "internalType": "address",
          "name": "account",
          "type": "address"
        },
        {
          "indexed": true,
          "internalType": "address",
          "name": "sender",
          "type": "address"
        }
      ],
      "name": "RoleRevoked",
      "type": "event"
    },
    {
      "inputs": [],
      "name": "DEFAULT_ADMIN_ROLE",
      "outputs": [
        {
          "internalType": "bytes32",
          "name": "",
          "type": "bytes32"
        }
      ],
      "stateMutability": "view",
      "type": "function"
    },
    {
      "inputs": [],
      "name": "OPERATOR_ROLE",
      "outputs": [
        {
          "internalType": "bytes32",
          "name": "",
          "type": "bytes32"
        }
      ],
      "stateMutability": "view",
      "type": "function"
    },
    {
      "inputs": [],
      "name": "collectRewards",
      "outputs": [],
      "stateMutability": "nonpayable",
      "type": "function"
    },
    {
      "inputs": [
        {
          "internalType": "bytes32",
          "name": "role",
          "type": "bytes32"
        }
      ],
      "name": "getRoleAdmin",
      "outputs": [
        {
          "internalType": "bytes32",
          "name": "",
          "type": "bytes32"
        }
      ],
      "stateMutability": "view",
      "type": "function"
    },
    {
      "inputs": [
        {
          "internalType": "bytes32",
          "name": "role",
          "type": "bytes32"
        },
        {
          "internalType": "uint256",
          "name": "index",
          "type": "uint256"
        }
      ],
      "name": "getRoleMember",
      "outputs": [
        {
          "internalType": "address",
          "name": "",
          "type": "address"
        }
      ],
      "stateMutability": "view",
      "type": "function"
    },
    {
      "inputs": [
        {
          "internalType": "bytes32",
          "name": "role",
          "type": "bytes32"
        }
      ],
      "name": "getRoleMemberCount",
      "outputs": [
        {
          "internalType": "uint256",
          "name": "",
          "type": "uint256"
        }
      ],
      "stateMutability": "view",
      "type": "function"
    },
    {
      "inputs": [
        {
          "internalType": "bytes32",
          "name": "role",
          "type": "bytes32"
        },
        {
          "internalType": "address",
          "name": "account",
          "type": "address"
        }
      ],
      "name": "grantRole",
      "outputs": [],
      "stateMutability": "nonpayable",
      "type": "function"
    },
    {
      "inputs": [
        {
          "internalType": "bytes32",
          "name": "role",
          "type": "bytes32"
        },
        {
          "internalType": "address",
          "name": "account",
          "type": "address"
        }
      ],
      "name": "hasRole",
      "outputs": [
        {
          "internalType": "bool",
          "name": "",
          "type": "bool"
        }
      ],
      "stateMutability": "view",
      "type": "function"
    },
    {
      "inputs": [],
      "name": "ogn",
      "outputs": [
        {
          "internalType": "contract IERC20",
          "name": "",
          "type": "address"
        }
      ],
      "stateMutability": "view",
      "type": "function"
    },
    {
      "inputs": [
        {
          "internalType": "bytes32",
          "name": "role",
          "type": "bytes32"
        },
        {
          "internalType": "address",
          "name": "account",
          "type": "address"
        }
      ],
      "name": "renounceRole",
      "outputs": [],
      "stateMutability": "nonpayable",
      "type": "function"
    },
    {
      "inputs": [
        {
          "internalType": "bytes32",
          "name": "role",
          "type": "bytes32"
        },
        {
          "internalType": "address",
          "name": "account",
          "type": "address"
        }
      ],
      "name": "revokeRole",
      "outputs": [],
      "stateMutability": "nonpayable",
      "type": "function"
    },
    {
      "inputs": [],
      "name": "rewardsSource",
      "outputs": [
        {
          "internalType": "address",
          "name": "",
          "type": "address"
        }
      ],
      "stateMutability": "view",
      "type": "function"
    },
    {
      "inputs": [],
      "name": "safeContract",
      "outputs": [
        {
          "internalType": "contract ISafe",
          "name": "",
          "type": "address"
        }
      ],
      "stateMutability": "view",
      "type": "function"
    },
    {
      "inputs": [
        {
          "internalType": "bytes4",
          "name": "interfaceId",
          "type": "bytes4"
        }
      ],
      "name": "supportsInterface",
      "outputs": [
        {
          "internalType": "bool",
          "name": "",
          "type": "bool"
        }
      ],
      "stateMutability": "view",
      "type": "function"
    },
    {
      "inputs": [
        {
          "internalType": "address",
          "name": "token",
          "type": "address"
        },
        {
          "internalType": "uint256",
          "name": "amount",
          "type": "uint256"
        }
      ],
      "name": "transferTokens",
      "outputs": [],
      "stateMutability": "nonpayable",
      "type": "function"
    },
    {
      "inputs": [],
      "name": "xogn",
      "outputs": [
        {
          "internalType": "contract IXOGN",
          "name": "",
          "type": "address"
        }
      ],
      "stateMutability": "view",
      "type": "function"
    },
    {
      "stateMutability": "payable",
      "type": "receive"
    }
  ],
  "transactionHash": "0x50c1da915b01e5f1289726c508abcf3e63888cd7339eef3a319bc8bb327b41d7",
  "args": [
    "0x5c8228e709D7F91209DE898F6a7B8c6035A7B78f",
    "0x4b91827516f79d6F6a1F292eD99671663b09169a"
  ],
  "numDeployments": 2,
  "solcInputHash": "ff9b3ab756adfa41dcaf3df1055de83f",
  "bytecode": "0x60a060405234801561001057600080fd5b5060405161159238038061159283398101604081905261002f916101db565b6001600160a01b0382166080819052829061004c9060009061008c565b61006c60008051602061157283398151915260805161008c60201b60201c565b506100856000805160206115728339815191528261008c565b505061020e565b61009682826100b3565b60008281526001602052604090206100ae9082610152565b505050565b6000828152602081815260408083206001600160a01b038516845290915290205460ff1661014e576000828152602081815260408083206001600160a01b03851684529091529020805460ff1916600117905561010d3390565b6001600160a01b0316816001600160a01b0316837f2f8788117e7eff1d82e926ec794901d17c78024a50270940304540a733656f0d60405160405180910390a45b5050565b6000610167836001600160a01b038416610170565b90505b92915050565b60008181526001830160205260408120546101b75750815460018181018455600084815260208082209093018490558454848252828601909352604090209190915561016a565b50600061016a565b80516001600160a01b03811681146101d657600080fd5b919050565b600080604083850312156101ee57600080fd5b6101f7836101bf565b9150610205602084016101bf565b90509250929050565b60805161131861025a60003960008181610358015281816104e0015281816105ad0152818161069e0152818161079c015281816108d40152818161096f0152610a4601526113186000f3fe6080604052600436106100f75760003560e01c806391d148541161008a578063d547741f11610059578063d547741f146102ca578063f5b541a6146102ea578063f7240d2f1461031e578063f9081ba21461034657600080fd5b806391d1485414610255578063a217fddf14610275578063bec3fa171461028a578063ca15c873146102aa57600080fd5b806336568abe116100c657806336568abe146101d8578063602bc098146101f857806370bb45b3146102205780639010d07c1461023557600080fd5b806301ffc9a714610103578063187a6f7d14610138578063248a9ca3146101785780632f2ff15d146101b657600080fd5b366100fe57005b600080fd5b34801561010f57600080fd5b5061012361011e366004611011565b61037a565b60405190151581526020015b60405180910390f35b34801561014457600080fd5b506101607363898b3b6ef3d39332082178656e9862bee45c5781565b6040516001600160a01b03909116815260200161012f565b34801561018457600080fd5b506101a861019336600461103b565b60009081526020819052604090206001015490565b60405190815260200161012f565b3480156101c257600080fd5b506101d66101d1366004611070565b6103a5565b005b3480156101e457600080fd5b506101d66101f3366004611070565b6103d0565b34801561020457600080fd5b50610160738207c1ffc5b6804f6024322ccf34f29c3541ae2681565b34801561022c57600080fd5b506101d6610453565b34801561024157600080fd5b5061016061025036600461109c565b610881565b34801561026157600080fd5b50610123610270366004611070565b6108a0565b34801561028157600080fd5b506101a8600081565b34801561029657600080fd5b506101d66102a53660046110be565b6108c9565b3480156102b657600080fd5b506101a86102c536600461103b565b610ac6565b3480156102d657600080fd5b506101d66102e5366004611070565b610add565b3480156102f657600080fd5b506101a87f97667070c54ef182b0f5858b034beac1b6f3089aa2d3188bb1e8929f4fa9b92981565b34801561032a57600080fd5b506101607367ce815d91de0f843472fe9c171acb036994cd0581565b34801561035257600080fd5b506101607f000000000000000000000000000000000000000000000000000000000000000081565b60006001600160e01b03198216635a05180f60e01b148061039f575061039f82610b03565b92915050565b6000828152602081905260409020600101546103c18133610b38565b6103cb8383610b9c565b505050565b6001600160a01b03811633146104455760405162461bcd60e51b815260206004820152602f60248201527f416363657373436f6e74726f6c3a2063616e206f6e6c792072656e6f756e636560448201526e103937b632b9903337b91039b2b63360891b60648201526084015b60405180910390fd5b61044f8282610bbe565b5050565b61047d7f97667070c54ef182b0f5858b034beac1b6f3089aa2d3188bb1e8929f4fa9b929336108a0565b6104c95760405162461bcd60e51b815260206004820152601960248201527f43616c6c6572206973206e6f7420616e206f70657261746f7200000000000000604482015260640161043c565b6040516370a0823160e01b81526001600160a01b037f0000000000000000000000000000000000000000000000000000000000000000166004820152600090738207c1ffc5b6804f6024322ccf34f29c3541ae26906370a0823190602401602060405180830381865afa158015610544573d6000803e3d6000fd5b505050506040513d601f19601f8201168201806040525081019061056891906110e8565b6040805160048082526024820183526020820180516001600160e01b03166370bb45b360e01b179052915163468721a760e01b81529293506000926001600160a01b037f0000000000000000000000000000000000000000000000000000000000000000169263468721a7926105f9927363898b3b6ef3d39332082178656e9862bee45c5792879291839101611151565b6020604051808303816000875af1158015610618573d6000803e3d6000fd5b505050506040513d601f19601f8201168201806040525081019061063c919061118c565b9050806106875760405162461bcd60e51b81526020600482015260196024820152784661696c656420746f20636f6c6c656374207265776172647360381b604482015260640161043c565b6040516370a0823160e01b81526001600160a01b037f00000000000000000000000000000000000000000000000000000000000000001660048201528290738207c1ffc5b6804f6024322ccf34f29c3541ae26906370a0823190602401602060405180830381865afa158015610701573d6000803e3d6000fd5b505050506040513d601f19601f8201168201806040525081019061072591906110e8565b61072f91906111c4565b91508160000361073d575050565b604080517367ce815d91de0f843472fe9c171acb036994cd056024820152604480820185905282518083039091018152606490910182526020810180516001600160e01b031663a9059cbb60e01b179052905163468721a760e01b81527f00000000000000000000000000000000000000000000000000000000000000006001600160a01b03169163468721a7916107f391738207c1ffc5b6804f6024322ccf34f29c3541ae2691600091908290600401611151565b6020604051808303816000875af1158015610812573d6000803e3d6000fd5b505050506040513d601f19601f82011682018060405250810190610836919061118c565b90508061044f5760405162461bcd60e51b81526020600482015260196024820152784661696c656420746f20636f6c6c656374207265776172647360381b604482015260640161043c565b60008281526001602052604081206108999083610be0565b9392505050565b6000918252602082815260408084206001600160a01b0393909316845291905290205460ff1690565b336001600160a01b037f000000000000000000000000000000000000000000000000000000000000000016146109415760405162461bcd60e51b815260206004820152601f60248201527f43616c6c6572206973206e6f7420746865207361666520636f6e747261637400604482015260640161043c565b6001600160a01b0382166109b8576000811161095d574761095f565b805b6040519091506001600160a01b037f0000000000000000000000000000000000000000000000000000000000000000169082156108fc029083906000818181858888f193505050501580156103cb573d6000803e3d6000fd5b60008111610a2d576040516370a0823160e01b81523060048201526001600160a01b038316906370a0823190602401602060405180830381865afa158015610a04573d6000803e3d6000fd5b505050506040513d601f19601f82011682018060405250810190610a2891906110e8565b610a2f565b805b60405163a9059cbb60e01b81526001600160a01b037f000000000000000000000000000000000000000000000000000000000000000081166004830152602482018390529192509083169063a9059cbb906044016020604051808303816000875af1158015610aa2573d6000803e3d6000fd5b505050506040513d601f19601f820116820180604052508101906103cb919061118c565b600081815260016020526040812061039f90610bec565b600082815260208190526040902060010154610af98133610b38565b6103cb8383610bbe565b60006001600160e01b03198216637965db0b60e01b148061039f57506301ffc9a760e01b6001600160e01b031983161461039f565b610b4282826108a0565b61044f57610b5a816001600160a01b03166014610bf6565b610b65836020610bf6565b604051602001610b769291906111d7565b60408051601f198184030181529082905262461bcd60e51b825261043c9160040161124c565b610ba68282610d92565b60008281526001602052604090206103cb9082610e16565b610bc88282610e2b565b60008281526001602052604090206103cb9082610e90565b60006108998383610ea5565b600061039f825490565b60606000610c0583600261125f565b610c10906002611276565b67ffffffffffffffff811115610c2857610c28611289565b6040519080825280601f01601f191660200182016040528015610c52576020820181803683370190505b509050600360fc1b81600081518110610c6d57610c6d61129f565b60200101906001600160f81b031916908160001a905350600f60fb1b81600181518110610c9c57610c9c61129f565b60200101906001600160f81b031916908160001a9053506000610cc084600261125f565b610ccb906001611276565b90505b6001811115610d43576f181899199a1a9b1b9c1cb0b131b232b360811b85600f1660108110610cff57610cff61129f565b1a60f81b828281518110610d1557610d1561129f565b60200101906001600160f81b031916908160001a90535060049490941c93610d3c816112b5565b9050610cce565b5083156108995760405162461bcd60e51b815260206004820181905260248201527f537472696e67733a20686578206c656e67746820696e73756666696369656e74604482015260640161043c565b610d9c82826108a0565b61044f576000828152602081815260408083206001600160a01b03851684529091529020805460ff19166001179055610dd23390565b6001600160a01b0316816001600160a01b0316837f2f8788117e7eff1d82e926ec794901d17c78024a50270940304540a733656f0d60405160405180910390a45050565b6000610899836001600160a01b038416610ecf565b610e3582826108a0565b1561044f576000828152602081815260408083206001600160a01b0385168085529252808320805460ff1916905551339285917ff6391f5c32d9c69d2a47ea670b442974b53935d1edc7fd64eb21e047a839171b9190a45050565b6000610899836001600160a01b038416610f1e565b6000826000018281548110610ebc57610ebc61129f565b9060005260206000200154905092915050565b6000818152600183016020526040812054610f165750815460018181018455600084815260208082209093018490558454848252828601909352604090209190915561039f565b50600061039f565b60008181526001830160205260408120548015611007576000610f426001836111c4565b8554909150600090610f56906001906111c4565b9050818114610fbb576000866000018281548110610f7657610f7661129f565b9060005260206000200154905080876000018481548110610f9957610f9961129f565b6000918252602080832090910192909255918252600188019052604090208390555b8554869080610fcc57610fcc6112cc565b60019003818190600052602060002001600090559055856001016000868152602001908152602001600020600090556001935050505061039f565b600091505061039f565b60006020828403121561102357600080fd5b81356001600160e01b03198116811461089957600080fd5b60006020828403121561104d57600080fd5b5035919050565b80356001600160a01b038116811461106b57600080fd5b919050565b6000806040838503121561108357600080fd5b8235915061109360208401611054565b90509250929050565b600080604083850312156110af57600080fd5b50508035926020909101359150565b600080604083850312156110d157600080fd5b6110da83611054565b946020939093013593505050565b6000602082840312156110fa57600080fd5b5051919050565b60005b8381101561111c578181015183820152602001611104565b50506000910152565b6000815180845261113d816020860160208601611101565b601f01601f19169290920160200192915050565b60018060a01b03851681528360208201526080604082015260006111786080830185611125565b905060ff8316606083015295945050505050565b60006020828403121561119e57600080fd5b8151801515811461089957600080fd5b634e487b7160e01b600052601160045260246000fd5b8181038181111561039f5761039f6111ae565b7f416363657373436f6e74726f6c3a206163636f756e742000000000000000000081526000835161120f816017850160208801611101565b7001034b99036b4b9b9b4b733903937b6329607d1b6017918401918201528351611240816028840160208801611101565b01602801949350505050565b6020815260006108996020830184611125565b808202811582820484141761039f5761039f6111ae565b8082018082111561039f5761039f6111ae565b634e487b7160e01b600052604160045260246000fd5b634e487b7160e01b600052603260045260246000fd5b6000816112c4576112c46111ae565b506000190190565b634e487b7160e01b600052603160045260246000fdfea264697066735822122088571273f7d8b0c6d3bc8d66097ba38def8454024680a3ebaea4a9a4a4f23f3c64736f6c634300081c003397667070c54ef182b0f5858b034beac1b6f3089aa2d3188bb1e8929f4fa9b929",
  "libraries": {},
  "devdoc": {
    "events": {
      "RoleAdminChanged(bytes32,bytes32,bytes32)": {
        "details": "Emitted when `newAdminRole` is set as ``role``'s admin role, replacing `previousAdminRole` `DEFAULT_ADMIN_ROLE` is the starting admin for all roles, despite {RoleAdminChanged} not being emitted signaling this. _Available since v3.1._"
      },
      "RoleGranted(bytes32,address,address)": {
        "details": "Emitted when `account` is granted `role`. `sender` is the account that originated the contract call, an admin role bearer except when using {AccessControl-_setupRole}."
      },
      "RoleRevoked(bytes32,address,address)": {
        "details": "Emitted when `account` is revoked `role`. `sender` is the account that originated the contract call:   - if using `revokeRole`, it is the admin role bearer   - if using `renounceRole`, it is the role bearer (i.e. `account`)"
      }
    },
    "kind": "dev",
    "methods": {
      "getRoleAdmin(bytes32)": {
        "details": "Returns the admin role that controls `role`. See {grantRole} and {revokeRole}. To change a role's admin, use {_setRoleAdmin}."
      },
      "getRoleMember(bytes32,uint256)": {
        "details": "Returns one of the accounts that have `role`. `index` must be a value between 0 and {getRoleMemberCount}, non-inclusive. Role bearers are not sorted in any particular way, and their ordering may change at any point. WARNING: When using {getRoleMember} and {getRoleMemberCount}, make sure you perform all queries on the same block. See the following https://forum.openzeppelin.com/t/iterating-over-elements-on-enumerableset-in-openzeppelin-contracts/2296[forum post] for more information."
      },
      "getRoleMemberCount(bytes32)": {
        "details": "Returns the number of accounts that have `role`. Can be used together with {getRoleMember} to enumerate all bearers of a role."
      },
      "grantRole(bytes32,address)": {
        "details": "Grants `role` to `account`. If `account` had not been already granted `role`, emits a {RoleGranted} event. Requirements: - the caller must have ``role``'s admin role."
      },
      "hasRole(bytes32,address)": {
        "details": "Returns `true` if `account` has been granted `role`."
      },
      "renounceRole(bytes32,address)": {
        "details": "Revokes `role` from the calling account. Roles are often managed via {grantRole} and {revokeRole}: this function's purpose is to provide a mechanism for accounts to lose their privileges if they are compromised (such as when a trusted device is misplaced). If the calling account had been revoked `role`, emits a {RoleRevoked} event. Requirements: - the caller must be `account`."
      },
      "revokeRole(bytes32,address)": {
        "details": "Revokes `role` from `account`. If `account` had been granted `role`, emits a {RoleRevoked} event. Requirements: - the caller must have ``role``'s admin role."
      },
      "supportsInterface(bytes4)": {
        "details": "See {IERC165-supportsInterface}."
      },
      "transferTokens(address,uint256)": {
        "details": "Helps recovering any tokens accidentally sent to this module.",
        "params": {
          "amount": "Amount to transfer. 0 to transfer all balance.",
          "token": "Token to transfer. 0x0 to transfer Native token."
        }
      }
    },
    "version": 1
  },
  "userdoc": {
    "kind": "user",
    "methods": {},
    "version": 1
  },
  "storageLayout": {
    "storage": [
      {
        "astId": 24,
        "contract": "contracts/automation/CollectXOGNRewardsModule.sol:CollectXOGNRewardsModule",
        "label": "_roles",
        "offset": 0,
        "slot": "0",
        "type": "t_mapping(t_bytes32,t_struct(RoleData)19_storage)"
      },
      {
        "astId": 327,
        "contract": "contracts/automation/CollectXOGNRewardsModule.sol:CollectXOGNRewardsModule",
        "label": "_roleMembers",
        "offset": 0,
        "slot": "1",
        "type": "t_mapping(t_bytes32,t_struct(AddressSet)1703_storage)"
      }
    ],
    "types": {
      "t_address": {
        "encoding": "inplace",
        "label": "address",
        "numberOfBytes": "20"
      },
      "t_array(t_bytes32)dyn_storage": {
        "base": "t_bytes32",
        "encoding": "dynamic_array",
        "label": "bytes32[]",
        "numberOfBytes": "32"
      },
      "t_bool": {
        "encoding": "inplace",
        "label": "bool",
        "numberOfBytes": "1"
      },
      "t_bytes32": {
        "encoding": "inplace",
        "label": "bytes32",
        "numberOfBytes": "32"
      },
      "t_mapping(t_address,t_bool)": {
        "encoding": "mapping",
        "key": "t_address",
        "label": "mapping(address => bool)",
        "numberOfBytes": "32",
        "value": "t_bool"
      },
      "t_mapping(t_bytes32,t_struct(AddressSet)1703_storage)": {
        "encoding": "mapping",
        "key": "t_bytes32",
        "label": "mapping(bytes32 => struct EnumerableSet.AddressSet)",
        "numberOfBytes": "32",
        "value": "t_struct(AddressSet)1703_storage"
      },
      "t_mapping(t_bytes32,t_struct(RoleData)19_storage)": {
        "encoding": "mapping",
        "key": "t_bytes32",
        "label": "mapping(bytes32 => struct AccessControl.RoleData)",
        "numberOfBytes": "32",
        "value": "t_struct(RoleData)19_storage"
      },
      "t_mapping(t_bytes32,t_uint256)": {
        "encoding": "mapping",
        "key": "t_bytes32",
        "label": "mapping(bytes32 => uint256)",
        "numberOfBytes": "32",
        "value": "t_uint256"
      },
      "t_struct(AddressSet)1703_storage": {
        "encoding": "inplace",
        "label": "struct EnumerableSet.AddressSet",
        "members": [
          {
            "astId": 1702,
            "contract": "contracts/automation/CollectXOGNRewardsModule.sol:CollectXOGNRewardsModule",
            "label": "_inner",
            "offset": 0,
            "slot": "0",
            "type": "t_struct(Set)1402_storage"
          }
        ],
        "numberOfBytes": "64"
      },
      "t_struct(RoleData)19_storage": {
        "encoding": "inplace",
        "label": "struct AccessControl.RoleData",
        "members": [
          {
            "astId": 16,
            "contract": "contracts/automation/CollectXOGNRewardsModule.sol:CollectXOGNRewardsModule",
            "label": "members",
            "offset": 0,
            "slot": "0",
            "type": "t_mapping(t_address,t_bool)"
          },
          {
            "astId": 18,
            "contract": "contracts/automation/CollectXOGNRewardsModule.sol:CollectXOGNRewardsModule",
            "label": "adminRole",
            "offset": 0,
            "slot": "1",
            "type": "t_bytes32"
          }
        ],
        "numberOfBytes": "64"
      },
      "t_struct(Set)1402_storage": {
        "encoding": "inplace",
        "label": "struct EnumerableSet.Set",
        "members": [
          {
            "astId": 1397,
            "contract": "contracts/automation/CollectXOGNRewardsModule.sol:CollectXOGNRewardsModule",
            "label": "_values",
            "offset": 0,
            "slot": "0",
            "type": "t_array(t_bytes32)dyn_storage"
          },
          {
            "astId": 1401,
            "contract": "contracts/automation/CollectXOGNRewardsModule.sol:CollectXOGNRewardsModule",
            "label": "_indexes",
            "offset": 0,
            "slot": "1",
            "type": "t_mapping(t_bytes32,t_uint256)"
          }
        ],
        "numberOfBytes": "64"
      },
      "t_uint256": {
        "encoding": "inplace",
        "label": "uint256",
        "numberOfBytes": "32"
      }
    }
  }
}