{
  "address": "0xEDf495F92c2eBdEE8B797E9C503aA7A3302A9c88",
  "abi": [
    {
      "inputs": [
        {
          "internalType": "address",
          "name": "_stakingStrategy",
          "type": "address"
        }
      ],
      "stateMutability": "nonpayable",
      "type": "constructor"
    },
    {
      "inputs": [],
      "name": "getPendingDeposits",
      "outputs": [
        {
          "components": [
            {
              "internalType": "bytes32",
              "name": "pendingDepositRoot",
              "type": "bytes32"
            },
            {
              "internalType": "bytes32",
              "name": "pubKeyHash",
              "type": "bytes32"
            },
            {
              "internalType": "uint64",
              "name": "amountGwei",
              "type": "uint64"
            },
            {
              "internalType": "uint64",
              "name": "slot",
              "type": "uint64"
            }
          ],
          "internalType": "struct CompoundingStakingStrategyView.DepositView[]",
          "name": "pendingDeposits",
          "type": "tuple[]"
        }
      ],
      "stateMutability": "view",
      "type": "function"
    },
    {
      "inputs": [],
      "name": "getVerifiedValidators",
      "outputs": [
        {
          "components": [
            {
              "internalType": "bytes32",
              "name": "pubKeyHash",
              "type": "bytes32"
            },
            {
              "internalType": "uint64",
              "name": "index",
              "type": "uint64"
            },
            {
              "internalType": "enum CompoundingValidatorManager.ValidatorState",
              "name": "state",
              "type": "uint8"
            }
          ],
          "internalType": "struct CompoundingStakingStrategyView.ValidatorView[]",
          "name": "validators",
          "type": "tuple[]"
        }
      ],
      "stateMutability": "view",
      "type": "function"
    },
    {
      "inputs": [],
      "name": "stakingStrategy",
      "outputs": [
        {
          "internalType": "contract CompoundingValidatorManager",
          "name": "",
          "type": "address"
        }
      ],
      "stateMutability": "view",
      "type": "function"
    }
  ],
  "transactionHash": "0xa0e60a801bbb92b22c2a8816b01f5b03806d5f4c36e772cd0fa47b061a706df7",
  "args": [
    "0xaF04828Ed923216c77dC22a2fc8E077FDaDAA87d"
  ],
  "numDeployments": 1,
  "solcInputHash": "812616693b19e4c7ea528016595dc2c6",
  "bytecode": "0x60a060405234801561001057600080fd5b5060405161097038038061097083398101604081905261002f91610040565b6001600160a01b0316608052610070565b60006020828403121561005257600080fd5b81516001600160a01b038116811461006957600080fd5b9392505050565b6080516108b66100ba60003960008181604b0152818160ba015281816101ce015281816102480152818161034b0152818161044d0152818161047c015261059301526108b66000f3fe608060405234801561001057600080fd5b50600436106100415760003560e01c80632e4aee1f146100465780635e1c519b1461008a578063d1699c261461009f575b600080fd5b61006d7f000000000000000000000000000000000000000000000000000000000000000081565b6040516001600160a01b0390911681526020015b60405180910390f35b6100926100b4565b604051610081919061066f565b6100a7610345565b60405161008191906106f2565b606060007f00000000000000000000000000000000000000000000000000000000000000006001600160a01b031663d79e40326040518163ffffffff1660e01b8152600401602060405180830381865afa158015610116573d6000803e3d6000fd5b505050506040513d601f19601f8201168201806040525081019061013a9190610764565b90508067ffffffffffffffff8111156101555761015561077d565b6040519080825280602002602001820160405280156101a757816020015b61019460408051606081018252600080825260208201819052909182015290565b8152602001906001900390816101735790505b50915060005b8181101561034057604051630ef9985560e01b8152600481018290526000907f00000000000000000000000000000000000000000000000000000000000000006001600160a01b031690630ef9985590602401602060405180830381865afa15801561021d573d6000803e3d6000fd5b505050506040513d601f19601f820116820180604052508101906102419190610764565b90506000807f00000000000000000000000000000000000000000000000000000000000000006001600160a01b03166398245f1b846040518263ffffffff1660e01b815260040161029491815260200190565b6040805180830381865afa1580156102b0573d6000803e3d6000fd5b505050506040513d601f19601f820116820180604052508101906102d49190610793565b64ffffffffff169150915060405180606001604052808481526020018267ffffffffffffffff16815260200183600881111561031257610312610659565b815250868581518110610327576103276107db565b60200260200101819052505050508060010190506101ad565b505090565b606060007f00000000000000000000000000000000000000000000000000000000000000006001600160a01b0316634896b31a6040518163ffffffff1660e01b8152600401602060405180830381865afa1580156103a7573d6000803e3d6000fd5b505050506040513d601f19601f820116820180604052508101906103cb9190610764565b90508067ffffffffffffffff8111156103e6576103e661077d565b60405190808252806020026020018201604052801561043857816020015b6040805160808101825260008082526020808301829052928201819052606082015282526000199092019101816104045790505b50915060005b818110156103405760008060007f00000000000000000000000000000000000000000000000000000000000000006001600160a01b0316633d4dff7b7f00000000000000000000000000000000000000000000000000000000000000006001600160a01b031663b8ec6678876040518263ffffffff1660e01b81526004016104c891815260200190565b602060405180830381865afa1580156104e5573d6000803e3d6000fd5b505050506040513d601f19601f820116820180604052508101906105099190610764565b6040518263ffffffff1660e01b815260040161052791815260200190565b60a060405180830381865afa158015610544573d6000803e3d6000fd5b505050506040513d601f19601f82011682018060405250810190610568919061080e565b505060408051608081019182905263171d8ccf60e31b909152608481018890529295509093509150807f00000000000000000000000000000000000000000000000000000000000000006001600160a01b031663b8ec667860a48301602060405180830381865afa1580156105e1573d6000803e3d6000fd5b505050506040513d601f19601f820116820180604052508101906106059190610764565b81526020018481526020018367ffffffffffffffff1681526020018267ffffffffffffffff16815250868581518110610640576106406107db565b602002602001018190525050505080600101905061043e565b634e487b7160e01b600052602160045260246000fd5b602080825282518282018190526000918401906040840190835b818110156106e75783518051845260208082015167ffffffffffffffff169085015260400151600981106106cd57634e487b7160e01b600052602160045260246000fd5b604084015260209390930192606090920191600101610689565b509095945050505050565b602080825282518282018190526000918401906040840190835b818110156106e7578351805184526020810151602085015267ffffffffffffffff604082015116604085015267ffffffffffffffff60608201511660608501525060808301925060208401935060018101905061070c565b60006020828403121561077657600080fd5b5051919050565b634e487b7160e01b600052604160045260246000fd5b600080604083850312156107a657600080fd5b8251600981106107b557600080fd5b602084015190925064ffffffffff811681146107d057600080fd5b809150509250929050565b634e487b7160e01b600052603260045260246000fd5b805167ffffffffffffffff8116811461080957600080fd5b919050565b600080600080600060a0868803121561082657600080fd5b85519450610836602087016107f1565b9350610844604087016107f1565b9250606086015163ffffffff8116811461085d57600080fd5b60808701519092506003811061087257600080fd5b80915050929550929590935056fea2646970667358221220f9132258bb79a37f33b57519241ed5d829b6c6b002d8c48858b3ffaebe893bac64736f6c634300081c0033",
  "libraries": {},
  "devdoc": {
    "author": "Origin Protocol Inc",
    "kind": "dev",
    "methods": {
      "getPendingDeposits()": {
        "returns": {
          "pendingDeposits": "An array of `DepositView` containing the deposit ID, public key hash, amount in Gwei and the slot of the deposit."
        }
      },
      "getVerifiedValidators()": {
        "returns": {
          "validators": "An array of `ValidatorView` containing the public key hash, validator index and state."
        }
      }
    },
    "title": "Viewing contract for the Compounding Staking Strategy.",
    "version": 1
  },
  "userdoc": {
    "kind": "user",
    "methods": {
      "getPendingDeposits()": {
        "notice": "Returns the deposits that are still to be verified. These may or may not have been processed by the beacon chain."
      },
      "getVerifiedValidators()": {
        "notice": "Returns the strategy's active validators. These are the ones that have been verified and have a non-zero balance."
      },
      "stakingStrategy()": {
        "notice": "The address of the Compounding Staking Strategy contract"
      }
    },
    "version": 1
  },
  "storageLayout": {
    "storage": [],
    "types": null
  }
}