{
  "address": "0xF37B4C48fd3ce4C8E7E8b2ad391a9480842F0b8E",
  "abi": [
    {
      "anonymous": false,
      "inputs": [
        {
          "indexed": true,
          "internalType": "address",
          "name": "_asset",
          "type": "address"
        },
        {
          "indexed": false,
          "internalType": "address",
          "name": "_pToken",
          "type": "address"
        },
        {
          "indexed": false,
          "internalType": "uint256",
          "name": "_amount",
          "type": "uint256"
        }
      ],
      "name": "Deposit",
      "type": "event"
    },
    {
      "anonymous": false,
      "inputs": [
        {
          "indexed": true,
          "internalType": "address",
          "name": "previousGovernor",
          "type": "address"
        },
        {
          "indexed": true,
          "internalType": "address",
          "name": "newGovernor",
          "type": "address"
        }
      ],
      "name": "GovernorshipTransferred",
      "type": "event"
    },
    {
      "anonymous": false,
      "inputs": [
        {
          "indexed": true,
          "internalType": "address",
          "name": "_asset",
          "type": "address"
        },
        {
          "indexed": false,
          "internalType": "address",
          "name": "_pToken",
          "type": "address"
        }
      ],
      "name": "PTokenAdded",
      "type": "event"
    },
    {
      "anonymous": false,
      "inputs": [
        {
          "indexed": true,
          "internalType": "address",
          "name": "_asset",
          "type": "address"
        },
        {
          "indexed": false,
          "internalType": "address",
          "name": "_pToken",
          "type": "address"
        }
      ],
      "name": "PTokenRemoved",
      "type": "event"
    },
    {
      "anonymous": false,
      "inputs": [
        {
          "indexed": true,
          "internalType": "address",
          "name": "previousGovernor",
          "type": "address"
        },
        {
          "indexed": true,
          "internalType": "address",
          "name": "newGovernor",
          "type": "address"
        }
      ],
      "name": "PendingGovernorshipTransfer",
      "type": "event"
    },
    {
      "anonymous": false,
      "inputs": [
        {
          "indexed": false,
          "internalType": "uint256",
          "name": "_oldThreshold",
          "type": "uint256"
        },
        {
          "indexed": false,
          "internalType": "uint256",
          "name": "_newThreshold",
          "type": "uint256"
        }
      ],
      "name": "RewardLiquidationThresholdUpdated",
      "type": "event"
    },
    {
      "anonymous": false,
      "inputs": [
        {
          "indexed": false,
          "internalType": "address",
          "name": "_oldAddress",
          "type": "address"
        },
        {
          "indexed": false,
          "internalType": "address",
          "name": "_newAddress",
          "type": "address"
        }
      ],
      "name": "RewardTokenAddressUpdated",
      "type": "event"
    },
    {
      "anonymous": false,
      "inputs": [
        {
          "indexed": false,
          "internalType": "address",
          "name": "recipient",
          "type": "address"
        },
        {
          "indexed": false,
          "internalType": "uint256",
          "name": "amount",
          "type": "uint256"
        }
      ],
      "name": "RewardTokenCollected",
      "type": "event"
    },
    {
      "anonymous": false,
      "inputs": [
        {
          "indexed": false,
          "internalType": "address",
          "name": "asset",
          "type": "address"
        },
        {
          "indexed": false,
          "internalType": "uint256",
          "name": "amount",
          "type": "uint256"
        }
      ],
      "name": "SkippedWithdrawal",
      "type": "event"
    },
    {
      "anonymous": false,
      "inputs": [
        {
          "indexed": true,
          "internalType": "address",
          "name": "_asset",
          "type": "address"
        },
        {
          "indexed": false,
          "internalType": "address",
          "name": "_pToken",
          "type": "address"
        },
        {
          "indexed": false,
          "internalType": "uint256",
          "name": "_amount",
          "type": "uint256"
        }
      ],
      "name": "Withdrawal",
      "type": "event"
    },
    {
      "inputs": [
        {
          "internalType": "address",
          "name": "",
          "type": "address"
        }
      ],
      "name": "assetToPToken",
      "outputs": [
        {
          "internalType": "address",
          "name": "",
          "type": "address"
        }
      ],
      "stateMutability": "view",
      "type": "function"
    },
    {
      "inputs": [
        {
          "internalType": "address",
          "name": "_asset",
          "type": "address"
        }
      ],
      "name": "checkBalance",
      "outputs": [
        {
          "internalType": "uint256",
          "name": "balance",
          "type": "uint256"
        }
      ],
      "stateMutability": "view",
      "type": "function"
    },
    {
      "inputs": [],
      "name": "claimGovernance",
      "outputs": [],
      "stateMutability": "nonpayable",
      "type": "function"
    },
    {
      "inputs": [],
      "name": "collectRewardToken",
      "outputs": [],
      "stateMutability": "nonpayable",
      "type": "function"
    },
    {
      "inputs": [
        {
          "internalType": "address",
          "name": "_asset",
          "type": "address"
        },
        {
          "internalType": "uint256",
          "name": "_amount",
          "type": "uint256"
        }
      ],
      "name": "deposit",
      "outputs": [],
      "stateMutability": "nonpayable",
      "type": "function"
    },
    {
      "inputs": [],
      "name": "depositAll",
      "outputs": [],
      "stateMutability": "nonpayable",
      "type": "function"
    },
    {
      "inputs": [],
      "name": "governor",
      "outputs": [
        {
          "internalType": "address",
          "name": "",
          "type": "address"
        }
      ],
      "stateMutability": "view",
      "type": "function"
    },
    {
      "inputs": [
        {
          "internalType": "address",
          "name": "_platformAddress",
          "type": "address"
        },
        {
          "internalType": "address",
          "name": "_vaultAddress",
          "type": "address"
        },
        {
          "internalType": "address",
          "name": "_rewardTokenAddress",
          "type": "address"
        },
        {
          "internalType": "address[]",
          "name": "_assets",
          "type": "address[]"
        },
        {
          "internalType": "address[]",
          "name": "_pTokens",
          "type": "address[]"
        }
      ],
      "name": "initialize",
      "outputs": [],
      "stateMutability": "nonpayable",
      "type": "function"
    },
    {
      "inputs": [],
      "name": "isGovernor",
      "outputs": [
        {
          "internalType": "bool",
          "name": "",
          "type": "bool"
        }
      ],
      "stateMutability": "view",
      "type": "function"
    },
    {
      "inputs": [],
      "name": "platformAddress",
      "outputs": [
        {
          "internalType": "address",
          "name": "",
          "type": "address"
        }
      ],
      "stateMutability": "view",
      "type": "function"
    },
    {
      "inputs": [
        {
          "internalType": "uint256",
          "name": "_assetIndex",
          "type": "uint256"
        }
      ],
      "name": "removePToken",
      "outputs": [],
      "stateMutability": "nonpayable",
      "type": "function"
    },
    {
      "inputs": [],
      "name": "rewardLiquidationThreshold",
      "outputs": [
        {
          "internalType": "uint256",
          "name": "",
          "type": "uint256"
        }
      ],
      "stateMutability": "view",
      "type": "function"
    },
    {
      "inputs": [],
      "name": "rewardTokenAddress",
      "outputs": [
        {
          "internalType": "address",
          "name": "",
          "type": "address"
        }
      ],
      "stateMutability": "view",
      "type": "function"
    },
    {
      "inputs": [],
      "name": "safeApproveAllTokens",
      "outputs": [],
      "stateMutability": "nonpayable",
      "type": "function"
    },
    {
      "inputs": [
        {
          "internalType": "address",
          "name": "_asset",
          "type": "address"
        },
        {
          "internalType": "address",
          "name": "_pToken",
          "type": "address"
        }
      ],
      "name": "setPTokenAddress",
      "outputs": [],
      "stateMutability": "nonpayable",
      "type": "function"
    },
    {
      "inputs": [
        {
          "internalType": "uint256",
          "name": "_threshold",
          "type": "uint256"
        }
      ],
      "name": "setRewardLiquidationThreshold",
      "outputs": [],
      "stateMutability": "nonpayable",
      "type": "function"
    },
    {
      "inputs": [
        {
          "internalType": "address",
          "name": "_rewardTokenAddress",
          "type": "address"
        }
      ],
      "name": "setRewardTokenAddress",
      "outputs": [],
      "stateMutability": "nonpayable",
      "type": "function"
    },
    {
      "inputs": [
        {
          "internalType": "address",
          "name": "_asset",
          "type": "address"
        }
      ],
      "name": "supportsAsset",
      "outputs": [
        {
          "internalType": "bool",
          "name": "",
          "type": "bool"
        }
      ],
      "stateMutability": "view",
      "type": "function"
    },
    {
      "inputs": [
        {
          "internalType": "address",
          "name": "_newGovernor",
          "type": "address"
        }
      ],
      "name": "transferGovernance",
      "outputs": [],
      "stateMutability": "nonpayable",
      "type": "function"
    },
    {
      "inputs": [
        {
          "internalType": "address",
          "name": "_asset",
          "type": "address"
        },
        {
          "internalType": "uint256",
          "name": "_amount",
          "type": "uint256"
        }
      ],
      "name": "transferToken",
      "outputs": [],
      "stateMutability": "nonpayable",
      "type": "function"
    },
    {
      "inputs": [],
      "name": "vaultAddress",
      "outputs": [
        {
          "internalType": "address",
          "name": "",
          "type": "address"
        }
      ],
      "stateMutability": "view",
      "type": "function"
    },
    {
      "inputs": [
        {
          "internalType": "address",
          "name": "_recipient",
          "type": "address"
        },
        {
          "internalType": "address",
          "name": "_asset",
          "type": "address"
        },
        {
          "internalType": "uint256",
          "name": "_amount",
          "type": "uint256"
        }
      ],
      "name": "withdraw",
      "outputs": [],
      "stateMutability": "nonpayable",
      "type": "function"
    },
    {
      "inputs": [],
      "name": "withdrawAll",
      "outputs": [],
      "stateMutability": "nonpayable",
      "type": "function"
    }
  ],
  "transactionHash": "0x92925773017e695193b7881171ba26a41eac92e1a80021bfc73c421e143119ca",
  "args": [],
  "solcInputHash": "b6193023c3a28756304ff066bec0ae10",
  "bytecode": "0x608060405234801561001057600080fd5b506100273360008051602061233e83398151915255565b60008051602061233e833981519152546040516001600160a01b03909116906000907fc7c0c772add429241571afb3805861fb3cfa2af374534088b76cdb4325a87e9a908290a36122c18061007d6000396000f3fe608060405234801561001057600080fd5b506004361061014d5760003560e01c8063790fcf9f116100c3578063c7af33521161007c578063c7af3352146102c2578063cd3b0212146102ca578063d38bfff4146102dd578063d9caed12146102f0578063dbe55e5614610303578063de5f62681461031657600080fd5b8063790fcf9f1461023b578063853828b61461024e5780639136616a146102565780639a6acf2014610269578063aa388af61461027c578063ad1728cb146102ba57600080fd5b8063125f9e3311610115578063125f9e33146101d0578063430bf08a146101e357806347e7ef24146101f65780635653b414146102095780635d36b190146102205780635f5152261461022857600080fd5b80630242241d146101525780630c340a241461015c5780630ed57b3a146101815780630fc3b4c4146101945780631072cbea146101bd575b600080fd5b61015a61031e565b005b61016461057a565b6040516001600160a01b0390911681526020015b60405180910390f35b61015a61018f366004611eca565b610597565b6101646101a2366004611e90565b6035602052600090815260409020546001600160a01b031681565b61015a6101cb366004611fec565b6105c9565b603754610164906001600160a01b031681565b603454610164906001600160a01b031681565b61015a610204366004611fec565b610609565b61021260385481565b604051908152602001610178565b61015a61067c565b610212610236366004611e90565b610722565b61015a610249366004611f03565b610740565b61015a61088e565b61015a61026436600461203a565b610bf6565b61015a610277366004611e90565b610dc1565b6102aa61028a366004611e90565b6001600160a01b0390811660009081526035602052604090205416151590565b6040519015158152602001610178565b61015a610e4e565b6102aa610ed4565b61015a6102d836600461203a565b610f05565b61015a6102eb366004611e90565b610f6a565b61015a6102fe366004611fab565b61100e565b603354610164906001600160a01b031681565b61015a6112ea565b6034546001600160a01b031633146103515760405162461bcd60e51b8152600401610348906120bb565b60405180910390fd5b60008051602061224c833981519152805460028114156103835760405162461bcd60e51b815260040161034890612129565b6002825560006103ba60366000815481106103a0576103a0612220565b6000918252602090912001546001600160a01b031661143c565b90506000816001600160a01b0316635fe3b5676040518163ffffffff1660e01b815260040160206040518083038186803b1580156103f757600080fd5b505afa15801561040b573d6000803e3d6000fd5b505050506040513d601f19601f8201168201806040525081019061042f9190611ead565b6040516374d7814960e11b81523060048201529091506001600160a01b0382169063e9af029290602401600060405180830381600087803b15801561047357600080fd5b505af1158015610487573d6000803e3d6000fd5b50506037546040516370a0823160e01b81523060048201526001600160a01b0390911692506000915082906370a082319060240160206040518083038186803b1580156104d357600080fd5b505afa1580156104e7573d6000803e3d6000fd5b505050506040513d601f19601f8201168201806040525081019061050b9190612053565b603454604080516001600160a01b039092168252602082018390529192507f9b15fe06f6132479e0c4d9dfbbff1de507a47663a459b2cc4ba1aa5a55e52058910160405180910390a160345461056e906001600160a01b038481169116836114a4565b50505050600182555050565b600061059260008051602061226c8339815191525490565b905090565b61059f610ed4565b6105bb5760405162461bcd60e51b8152600401610348906120f2565b6105c5828261150c565b5050565b6105d1610ed4565b6105ed5760405162461bcd60e51b8152600401610348906120f2565b6105c56105f861057a565b6001600160a01b03841690836114a4565b6034546001600160a01b031633146106335760405162461bcd60e51b8152600401610348906120bb565b60008051602061224c833981519152805460028114156106655760405162461bcd60e51b815260040161034890612129565b600282556106738484611671565b50600190555050565b7f44c4d30b2eaad5130ad70c3ba6972730566f3e6359ab83e800d905c61b1c51db546001600160a01b0316336001600160a01b0316146107175760405162461bcd60e51b815260206004820152603060248201527f4f6e6c79207468652070656e64696e6720476f7665726e6f722063616e20636f60448201526f6d706c6574652074686520636c61696d60801b6064820152608401610348565b610720336117cb565b565b60008061072e8361143c565b90506107398161188f565b9392505050565b610748610ed4565b6107645760405162461bcd60e51b8152600401610348906120f2565b600054610100900460ff168061077d575060005460ff16155b6107e05760405162461bcd60e51b815260206004820152602e60248201527f496e697469616c697a61626c653a20636f6e747261637420697320616c72656160448201526d191e481a5b9a5d1a585b1a5e995960921b6064820152608401610348565b600054610100900460ff16158015610802576000805461ffff19166101011790555b61087288888888888080602002602001604051908101604052809392919081815260200183836020028082843760009201919091525050604080516020808c0282810182019093528b82529093508b92508a9182918501908490808284376000920191909152506119a792505050565b8015610884576000805461ff00191690555b5050505050505050565b6034546001600160a01b03163314806108bf57506108aa61057a565b6001600160a01b0316336001600160a01b0316145b6109175760405162461bcd60e51b815260206004820152602360248201527f43616c6c6572206973206e6f7420746865205661756c74206f7220476f7665726044820152623737b960e91b6064820152608401610348565b60008051602061224c833981519152805460028114156109495760405162461bcd60e51b815260040161034890612129565b6002825560005b603654811015610bee576000610972603683815481106103a0576103a0612220565b6040516370a0823160e01b81523060048201529091506000906001600160a01b038316906370a082319060240160206040518083038186803b1580156109b757600080fd5b505afa1580156109cb573d6000803e3d6000fd5b505050506040513d601f19601f820116820180604052508101906109ef9190612053565b1115610bdb576040516370a0823160e01b81523060048201526001600160a01b0382169063db006a759082906370a082319060240160206040518083038186803b158015610a3c57600080fd5b505afa158015610a50573d6000803e3d6000fd5b505050506040513d601f19601f82011682018060405250810190610a749190612053565b6040518263ffffffff1660e01b8152600401610a9291815260200190565b602060405180830381600087803b158015610aac57600080fd5b505af1158015610ac0573d6000803e3d6000fd5b505050506040513d601f19601f82011682018060405250810190610ae49190612053565b15610b215760405162461bcd60e51b815260206004820152600d60248201526c14995919595b4819985a5b1959609a1b6044820152606401610348565b600060368381548110610b3657610b36612220565b6000918252602090912001546034546040516370a0823160e01b81523060048201526001600160a01b039283169350610bd9929091169083906370a082319060240160206040518083038186803b158015610b9057600080fd5b505afa158015610ba4573d6000803e3d6000fd5b505050506040513d601f19601f82011682018060405250810190610bc89190612053565b6001600160a01b03841691906114a4565b505b5080610be6816121d9565b915050610950565b505060019055565b610bfe610ed4565b610c1a5760405162461bcd60e51b8152600401610348906120f2565b6036548110610c5b5760405162461bcd60e51b815260206004820152600d60248201526c092dcecc2d8d2c840d2dcc8caf609b1b6044820152606401610348565b600060368281548110610c7057610c70612220565b60009182526020808320909101546001600160a01b03908116808452603590925260409092205460365491935090911690610cad90600190612192565b831015610d2f5760368054610cc490600190612192565b81548110610cd457610cd4612220565b600091825260209091200154603680546001600160a01b039092169185908110610d0057610d00612220565b9060005260206000200160006101000a8154816001600160a01b0302191690836001600160a01b031602179055505b6036805480610d4057610d4061220a565b60008281526020808220600019908401810180546001600160a01b031990811690915593019093556001600160a01b038581168083526035855260409283902080549094169093559051908416815290917f16b7600acff27e39a8a96056b3d533045298de927507f5c1d97e4accde60488c910160405180910390a2505050565b610dc9610ed4565b610de55760405162461bcd60e51b8152600401610348906120f2565b603754604080516001600160a01b03928316815291831660208301527f6000690cf6fd1e69830cc1142bc52655402f4a58db681849f61c3c8fb322ff8a910160405180910390a1603780546001600160a01b0319166001600160a01b0392909216919091179055565b60365460005b818110156105c557600060368281548110610e7157610e71612220565b60009182526020808320909101546001600160a01b03908116808452603590925260408320549193501690610ea99083908390611a8f565b610ebf6001600160a01b03831682600019611a8f565b50508080610ecc906121d9565b915050610e54565b6000610eec60008051602061226c8339815191525490565b6001600160a01b0316336001600160a01b031614905090565b610f0d610ed4565b610f295760405162461bcd60e51b8152600401610348906120f2565b60385460408051918252602082018390527f01538952e8f491e3569a11bf3935ca2fa917ea85ec938dac52e696fbb76d8cc6910160405180910390a1603855565b610f72610ed4565b610f8e5760405162461bcd60e51b8152600401610348906120f2565b610fb6817f44c4d30b2eaad5130ad70c3ba6972730566f3e6359ab83e800d905c61b1c51db55565b806001600160a01b0316610fd660008051602061226c8339815191525490565b6001600160a01b03167fa39cc5eb22d0f34d8beaefee8a3f17cc229c1a1d1ef87a5ad47313487b1c4f0d60405160405180910390a350565b6034546001600160a01b031633146110385760405162461bcd60e51b8152600401610348906120bb565b60008051602061224c8339815191528054600281141561106a5760405162461bcd60e51b815260040161034890612129565b60028255600083116110be5760405162461bcd60e51b815260206004820152601760248201527f4d75737420776974686472617720736f6d657468696e670000000000000000006044820152606401610348565b6001600160a01b03851661110d5760405162461bcd60e51b8152602060048201526016602482015275135d5cdd081cdc1958da599e481c9958da5c1a595b9d60521b6044820152606401610348565b6001600160a01b0384811660008181526035602090815260409182902054825194168452830186905290917f2717ead6b9200dd235aad468c9809ea400fe33ac69b5bfaa6d3e90fc922b6398910160405180910390a2600061116e8561143c565b9050600061117c8286611bb3565b9050806111cc57604080516001600160a01b0388168152602081018790527f2ca0d37ecfc1b8853f4bc276c69586250b3978c1d467c05d6c143966026724ec910160405180910390a150506112e0565b604080516001600160a01b038481168252602082018890528816917f2717ead6b9200dd235aad468c9809ea400fe33ac69b5bfaa6d3e90fc922b6398910160405180910390a260405163852a12e360e01b8152600481018690526001600160a01b0383169063852a12e390602401602060405180830381600087803b15801561125457600080fd5b505af1158015611268573d6000803e3d6000fd5b505050506040513d601f19601f8201168201806040525081019061128c9190612053565b156112c95760405162461bcd60e51b815260206004820152600d60248201526c14995919595b4819985a5b1959609a1b6044820152606401610348565b6112dd6001600160a01b03871688876114a4565b50505b5060019055505050565b6034546001600160a01b031633146113145760405162461bcd60e51b8152600401610348906120bb565b60008051602061224c833981519152805460028114156113465760405162461bcd60e51b815260040161034890612129565b6002825560005b603654811015610bee5760006036828154811061136c5761136c612220565b6000918252602090912001546040516370a0823160e01b81523060048201526001600160a01b03909116906370a082319060240160206040518083038186803b1580156113b857600080fd5b505afa1580156113cc573d6000803e3d6000fd5b505050506040513d601f19601f820116820180604052508101906113f09190612053565b90508015611429576114296036838154811061140e5761140e612220565b6000918252602090912001546001600160a01b031682611671565b5080611434816121d9565b91505061134d565b6001600160a01b038082166000908152603560205260408120549091168061149e5760405162461bcd60e51b815260206004820152601560248201527418d51bdad95b88191bd95cc81b9bdd08195e1a5cdd605a1b6044820152606401610348565b92915050565b6040516001600160a01b03831660248201526044810182905261150790849063a9059cbb60e01b906064015b60408051601f198184030181529190526020810180516001600160e01b03166001600160e01b031990931692909217909152611c3c565b505050565b6001600160a01b0382811660009081526035602052604090205416156115695760405162461bcd60e51b81526020600482015260126024820152711c151bdad95b88185b1c9958591e481cd95d60721b6044820152606401610348565b6001600160a01b0382161580159061158957506001600160a01b03811615155b6115c95760405162461bcd60e51b8152602060048201526011602482015270496e76616c69642061646472657373657360781b6044820152606401610348565b6001600160a01b03828116600081815260356020908152604080832080549587166001600160a01b031996871681179091556036805460018101825594527f4a11f94e20a93c79f6ec743a1954ec4fc2c08429ae2122118bf234b2185c81b890930180549095168417909455925190815290917fef6485b84315f9b1483beffa32aae9a0596890395e3d7521f1c5fbb51790e765910160405180910390a26105c58282611d0e565b600081116116ba5760405162461bcd60e51b81526020600482015260166024820152754d757374206465706f73697420736f6d657468696e6760501b6044820152606401610348565b60006116c58361143c565b604080516001600160a01b03808416825260208201869052929350918516917f5548c837ab068cf56a2c2479df0882a4922fd203edb7517321831d95078c5f62910160405180910390a260405163140e25ad60e31b8152600481018390526001600160a01b0382169063a0712d6890602401602060405180830381600087803b15801561175157600080fd5b505af1158015611765573d6000803e3d6000fd5b505050506040513d601f19601f820116820180604052508101906117899190612053565b156115075760405162461bcd60e51b815260206004820152601260248201527118d51bdad95b881b5a5b9d0819985a5b195960721b6044820152606401610348565b6001600160a01b0381166118215760405162461bcd60e51b815260206004820152601a60248201527f4e657720476f7665726e6f7220697320616464726573732830290000000000006044820152606401610348565b806001600160a01b031661184160008051602061226c8339815191525490565b6001600160a01b03167fc7c0c772add429241571afb3805861fb3cfa2af374534088b76cdb4325a87e9a60405160405180910390a361188c8160008051602061226c83398151915255565b50565b6040516370a0823160e01b815230600482015260009081906001600160a01b038416906370a082319060240160206040518083038186803b1580156118d357600080fd5b505afa1580156118e7573d6000803e3d6000fd5b505050506040513d601f19601f8201168201806040525081019061190b9190612053565b90506000836001600160a01b031663182df0f56040518163ffffffff1660e01b815260040160206040518083038186803b15801561194857600080fd5b505afa15801561195c573d6000803e3d6000fd5b505050506040513d601f19601f820116820180604052508101906119809190612053565b9050670de0b6b3a76400006119958284612173565b61199f9190612151565b949350505050565b603380546001600160a01b038088166001600160a01b031992831617909255603480548784169083161790556037805492861692909116919091179055815181518114611a2d5760405162461bcd60e51b8152602060048201526014602482015273496e76616c696420696e7075742061727261797360601b6044820152606401610348565b60005b81811015611a8657611a74848281518110611a4d57611a4d612220565b6020026020010151848381518110611a6757611a67612220565b602002602001015161150c565b80611a7e816121d9565b915050611a30565b50505050505050565b801580611b185750604051636eb1769f60e11b81523060048201526001600160a01b03838116602483015284169063dd62ed3e9060440160206040518083038186803b158015611ade57600080fd5b505afa158015611af2573d6000803e3d6000fd5b505050506040513d601f19601f82011682018060405250810190611b169190612053565b155b611b835760405162461bcd60e51b815260206004820152603660248201527f5361666545524332303a20617070726f76652066726f6d206e6f6e2d7a65726f60448201527520746f206e6f6e2d7a65726f20616c6c6f77616e636560501b6064820152608401610348565b6040516001600160a01b03831660248201526044810182905261150790849063095ea7b360e01b906064016114d0565b600080836001600160a01b031663182df0f56040518163ffffffff1660e01b815260040160206040518083038186803b158015611bef57600080fd5b505afa158015611c03573d6000803e3d6000fd5b505050506040513d601f19601f82011682018060405250810190611c279190612053565b90508061199584670de0b6b3a7640000612173565b6000611c91826040518060400160405280602081526020017f5361666545524332303a206c6f772d6c6576656c2063616c6c206661696c6564815250856001600160a01b0316611d399092919063ffffffff16565b8051909150156115075780806020019051810190611caf9190612018565b6115075760405162461bcd60e51b815260206004820152602a60248201527f5361666545524332303a204552433230206f7065726174696f6e20646964206e6044820152691bdd081cdd58d8d9595960b21b6064820152608401610348565b611d236001600160a01b038316826000611a8f565b6105c56001600160a01b03831682600019611a8f565b606061199f848460008585843b611d925760405162461bcd60e51b815260206004820152601d60248201527f416464726573733a2063616c6c20746f206e6f6e2d636f6e74726163740000006044820152606401610348565b600080866001600160a01b03168587604051611dae919061206c565b60006040518083038185875af1925050503d8060008114611deb576040519150601f19603f3d011682016040523d82523d6000602084013e611df0565b606091505b5091509150611e00828286611e0b565b979650505050505050565b60608315611e1a575081610739565b825115611e2a5782518084602001fd5b8160405162461bcd60e51b81526004016103489190612088565b60008083601f840112611e5657600080fd5b50813567ffffffffffffffff811115611e6e57600080fd5b6020830191508360208260051b8501011115611e8957600080fd5b9250929050565b600060208284031215611ea257600080fd5b813561073981612236565b600060208284031215611ebf57600080fd5b815161073981612236565b60008060408385031215611edd57600080fd5b8235611ee881612236565b91506020830135611ef881612236565b809150509250929050565b600080600080600080600060a0888a031215611f1e57600080fd5b8735611f2981612236565b96506020880135611f3981612236565b95506040880135611f4981612236565b9450606088013567ffffffffffffffff80821115611f6657600080fd5b611f728b838c01611e44565b909650945060808a0135915080821115611f8b57600080fd5b50611f988a828b01611e44565b989b979a50959850939692959293505050565b600080600060608486031215611fc057600080fd5b8335611fcb81612236565b92506020840135611fdb81612236565b929592945050506040919091013590565b60008060408385031215611fff57600080fd5b823561200a81612236565b946020939093013593505050565b60006020828403121561202a57600080fd5b8151801515811461073957600080fd5b60006020828403121561204c57600080fd5b5035919050565b60006020828403121561206557600080fd5b5051919050565b6000825161207e8184602087016121a9565b9190910192915050565b60208152600082518060208401526120a78160408501602087016121a9565b601f01601f19169190910160400192915050565b60208082526017908201527f43616c6c6572206973206e6f7420746865205661756c74000000000000000000604082015260600190565b6020808252601a908201527f43616c6c6572206973206e6f742074686520476f7665726e6f72000000000000604082015260600190565b6020808252600e908201526d1499595b9d1c985b9d0818d85b1b60921b604082015260600190565b60008261216e57634e487b7160e01b600052601260045260246000fd5b500490565b600081600019048311821515161561218d5761218d6121f4565b500290565b6000828210156121a4576121a46121f4565b500390565b60005b838110156121c45781810151838201526020016121ac565b838111156121d3576000848401525b50505050565b60006000198214156121ed576121ed6121f4565b5060010190565b634e487b7160e01b600052601160045260246000fd5b634e487b7160e01b600052603160045260246000fd5b634e487b7160e01b600052603260045260246000fd5b6001600160a01b038116811461188c57600080fdfe53bf423e48ed90e97d02ab0ebab13b2a235a6bfbe9c321847d5c175333ac45357bea13895fa79d2831e0a9e28edede30099005a50d652d8957cf8a607ee6ca4aa2646970667358221220f21e89bdf852a518d4da3c33dc87af9f31685fbbc1f62e83a213e9aa0b0adfad64736f6c634300080700337bea13895fa79d2831e0a9e28edede30099005a50d652d8957cf8a607ee6ca4a",
  "devdoc": {
    "kind": "dev",
    "methods": {
      "checkBalance(address)": {
        "details": "Get the total asset value held in the platform      This includes any interest that was generated since depositing      Compound exchange rate between the cToken and asset gradually increases,      causing the cToken to be worth more corresponding asset.",
        "params": {
          "_asset": "Address of the asset"
        },
        "returns": {
          "balance": "   Total value of the asset in the platform"
        }
      },
      "claimGovernance()": {
        "details": "Claim Governance of the contract to a new account (`newGovernor`). Can only be called by the new Governor."
      },
      "collectRewardToken()": {
        "details": "Collect accumulated COMP and send to Vault."
      },
      "deposit(address,uint256)": {
        "details": "Deposit asset into Compound",
        "params": {
          "_amount": "Amount of asset to deposit",
          "_asset": "Address of asset to deposit"
        }
      },
      "depositAll()": {
        "details": "Deposit the entire balance of any supported asset into Compound"
      },
      "governor()": {
        "details": "Returns the address of the current Governor."
      },
      "initialize(address,address,address,address[],address[])": {
        "details": "Internal initialize function, to set up initial internal state",
        "params": {
          "_assets": "Addresses of initial supported assets",
          "_pTokens": "Platform Token corresponding addresses",
          "_platformAddress": "Generic platform address",
          "_rewardTokenAddress": "Address of reward token for platform",
          "_vaultAddress": "Address of the Vault"
        }
      },
      "isGovernor()": {
        "details": "Returns true if the caller is the current Governor."
      },
      "removePToken(uint256)": {
        "details": "Remove a supported asset by passing its index.      This method can only be called by the system Governor",
        "params": {
          "_assetIndex": "Index of the asset to be removed"
        }
      },
      "safeApproveAllTokens()": {
        "details": "Approve the spending of all assets by their corresponding cToken,      if for some reason is it necessary."
      },
      "setPTokenAddress(address,address)": {
        "details": "Provide support for asset by passing its pToken address.      This method can only be called by the system Governor",
        "params": {
          "_asset": "Address for the asset",
          "_pToken": "Address for the corresponding platform token"
        }
      },
      "setRewardLiquidationThreshold(uint256)": {
        "details": "Set the reward token liquidation threshold.",
        "params": {
          "_threshold": "Threshold amount in decimals of reward token that will cause the Vault to claim and withdrawAll on allocate() calls."
        }
      },
      "setRewardTokenAddress(address)": {
        "details": "Set the reward token address.",
        "params": {
          "_rewardTokenAddress": "Address of the reward token"
        }
      },
      "supportsAsset(address)": {
        "details": "Retuns bool indicating whether asset is supported by strategy",
        "params": {
          "_asset": "Address of the asset"
        }
      },
      "transferGovernance(address)": {
        "details": "Transfers Governance of the contract to a new account (`newGovernor`). Can only be called by the current Governor. Must be claimed for this to complete",
        "params": {
          "_newGovernor": "Address of the new Governor"
        }
      },
      "transferToken(address,uint256)": {
        "details": "Transfer token to governor. Intended for recovering tokens stuck in      strategy contracts, i.e. mistaken sends.",
        "params": {
          "_amount": "Amount of the asset to transfer",
          "_asset": "Address for the asset"
        }
      },
      "withdraw(address,address,uint256)": {
        "details": "Withdraw asset from Compound",
        "params": {
          "_amount": "Amount of asset to withdraw",
          "_asset": "Address of asset to withdraw",
          "_recipient": "Address to receive withdrawn asset"
        }
      },
      "withdrawAll()": {
        "details": "Remove all assets from platform and send them to Vault contract."
      }
    },
    "version": 1
  },
  "userdoc": {
    "kind": "user",
    "methods": {},
    "version": 1
  },
  "storageLayout": {
    "storage": [
      {
        "astId": 16815,
        "contract": "contracts/strategies/CompoundStrategy.sol:CompoundStrategy",
        "label": "initialized",
        "offset": 0,
        "slot": "0",
        "type": "t_bool"
      },
      {
        "astId": 16818,
        "contract": "contracts/strategies/CompoundStrategy.sol:CompoundStrategy",
        "label": "initializing",
        "offset": 1,
        "slot": "0",
        "type": "t_bool"
      },
      {
        "astId": 16858,
        "contract": "contracts/strategies/CompoundStrategy.sol:CompoundStrategy",
        "label": "______gap",
        "offset": 0,
        "slot": "1",
        "type": "t_array(t_uint256)50_storage"
      },
      {
        "astId": 16930,
        "contract": "contracts/strategies/CompoundStrategy.sol:CompoundStrategy",
        "label": "platformAddress",
        "offset": 0,
        "slot": "51",
        "type": "t_address"
      },
      {
        "astId": 16932,
        "contract": "contracts/strategies/CompoundStrategy.sol:CompoundStrategy",
        "label": "vaultAddress",
        "offset": 0,
        "slot": "52",
        "type": "t_address"
      },
      {
        "astId": 16936,
        "contract": "contracts/strategies/CompoundStrategy.sol:CompoundStrategy",
        "label": "assetToPToken",
        "offset": 0,
        "slot": "53",
        "type": "t_mapping(t_address,t_address)"
      },
      {
        "astId": 16939,
        "contract": "contracts/strategies/CompoundStrategy.sol:CompoundStrategy",
        "label": "assetsMapped",
        "offset": 0,
        "slot": "54",
        "type": "t_array(t_address)dyn_storage"
      },
      {
        "astId": 16941,
        "contract": "contracts/strategies/CompoundStrategy.sol:CompoundStrategy",
        "label": "rewardTokenAddress",
        "offset": 0,
        "slot": "55",
        "type": "t_address"
      },
      {
        "astId": 16943,
        "contract": "contracts/strategies/CompoundStrategy.sol:CompoundStrategy",
        "label": "rewardLiquidationThreshold",
        "offset": 0,
        "slot": "56",
        "type": "t_uint256"
      },
      {
        "astId": 16947,
        "contract": "contracts/strategies/CompoundStrategy.sol:CompoundStrategy",
        "label": "_reserved",
        "offset": 0,
        "slot": "57",
        "type": "t_array(t_int256)100_storage"
      }
    ],
    "types": {
      "t_address": {
        "encoding": "inplace",
        "label": "address",
        "numberOfBytes": "20"
      },
      "t_array(t_address)dyn_storage": {
        "base": "t_address",
        "encoding": "dynamic_array",
        "label": "address[]",
        "numberOfBytes": "32"
      },
      "t_array(t_int256)100_storage": {
        "base": "t_int256",
        "encoding": "inplace",
        "label": "int256[100]",
        "numberOfBytes": "3200"
      },
      "t_array(t_uint256)50_storage": {
        "base": "t_uint256",
        "encoding": "inplace",
        "label": "uint256[50]",
        "numberOfBytes": "1600"
      },
      "t_bool": {
        "encoding": "inplace",
        "label": "bool",
        "numberOfBytes": "1"
      },
      "t_int256": {
        "encoding": "inplace",
        "label": "int256",
        "numberOfBytes": "32"
      },
      "t_mapping(t_address,t_address)": {
        "encoding": "mapping",
        "key": "t_address",
        "label": "mapping(address => address)",
        "numberOfBytes": "32",
        "value": "t_address"
      },
      "t_uint256": {
        "encoding": "inplace",
        "label": "uint256",
        "numberOfBytes": "32"
      }
    }
  }
}