{
  "address": "0xc7faB3de576caf6044369930422f12C4FDbb2B32",
  "abi": [
    {
      "anonymous": false,
      "inputs": [
        {
          "indexed": true,
          "internalType": "address",
          "name": "_asset",
          "type": "address"
        },
        {
          "indexed": false,
          "internalType": "address",
          "name": "_pToken",
          "type": "address"
        },
        {
          "indexed": false,
          "internalType": "uint256",
          "name": "_amount",
          "type": "uint256"
        }
      ],
      "name": "Deposit",
      "type": "event"
    },
    {
      "anonymous": false,
      "inputs": [
        {
          "indexed": true,
          "internalType": "address",
          "name": "previousGovernor",
          "type": "address"
        },
        {
          "indexed": true,
          "internalType": "address",
          "name": "newGovernor",
          "type": "address"
        }
      ],
      "name": "GovernorshipTransferred",
      "type": "event"
    },
    {
      "anonymous": false,
      "inputs": [
        {
          "indexed": false,
          "internalType": "address",
          "name": "_oldHarvesterAddress",
          "type": "address"
        },
        {
          "indexed": false,
          "internalType": "address",
          "name": "_newHarvesterAddress",
          "type": "address"
        }
      ],
      "name": "HarvesterAddressesUpdated",
      "type": "event"
    },
    {
      "anonymous": false,
      "inputs": [
        {
          "indexed": false,
          "internalType": "uint256",
          "name": "_prevMaxSlippagePercentage",
          "type": "uint256"
        },
        {
          "indexed": false,
          "internalType": "uint256",
          "name": "_newMaxSlippagePercentage",
          "type": "uint256"
        }
      ],
      "name": "MaxWithdrawalSlippageUpdated",
      "type": "event"
    },
    {
      "anonymous": false,
      "inputs": [
        {
          "indexed": true,
          "internalType": "address",
          "name": "_asset",
          "type": "address"
        },
        {
          "indexed": false,
          "internalType": "address",
          "name": "_pToken",
          "type": "address"
        }
      ],
      "name": "PTokenAdded",
      "type": "event"
    },
    {
      "anonymous": false,
      "inputs": [
        {
          "indexed": true,
          "internalType": "address",
          "name": "_asset",
          "type": "address"
        },
        {
          "indexed": false,
          "internalType": "address",
          "name": "_pToken",
          "type": "address"
        }
      ],
      "name": "PTokenRemoved",
      "type": "event"
    },
    {
      "anonymous": false,
      "inputs": [
        {
          "indexed": true,
          "internalType": "address",
          "name": "previousGovernor",
          "type": "address"
        },
        {
          "indexed": true,
          "internalType": "address",
          "name": "newGovernor",
          "type": "address"
        }
      ],
      "name": "PendingGovernorshipTransfer",
      "type": "event"
    },
    {
      "anonymous": false,
      "inputs": [
        {
          "indexed": false,
          "internalType": "address[]",
          "name": "_oldAddresses",
          "type": "address[]"
        },
        {
          "indexed": false,
          "internalType": "address[]",
          "name": "_newAddresses",
          "type": "address[]"
        }
      ],
      "name": "RewardTokenAddressesUpdated",
      "type": "event"
    },
    {
      "anonymous": false,
      "inputs": [
        {
          "indexed": false,
          "internalType": "address",
          "name": "recipient",
          "type": "address"
        },
        {
          "indexed": false,
          "internalType": "address",
          "name": "rewardToken",
          "type": "address"
        },
        {
          "indexed": false,
          "internalType": "uint256",
          "name": "amount",
          "type": "uint256"
        }
      ],
      "name": "RewardTokenCollected",
      "type": "event"
    },
    {
      "anonymous": false,
      "inputs": [
        {
          "indexed": true,
          "internalType": "address",
          "name": "_asset",
          "type": "address"
        },
        {
          "indexed": false,
          "internalType": "address",
          "name": "_pToken",
          "type": "address"
        },
        {
          "indexed": false,
          "internalType": "uint256",
          "name": "_amount",
          "type": "uint256"
        }
      ],
      "name": "Withdrawal",
      "type": "event"
    },
    {
      "inputs": [],
      "name": "_deprecated_rewardLiquidationThreshold",
      "outputs": [
        {
          "internalType": "uint256",
          "name": "",
          "type": "uint256"
        }
      ],
      "stateMutability": "view",
      "type": "function"
    },
    {
      "inputs": [],
      "name": "_deprecated_rewardTokenAddress",
      "outputs": [
        {
          "internalType": "address",
          "name": "",
          "type": "address"
        }
      ],
      "stateMutability": "view",
      "type": "function"
    },
    {
      "inputs": [
        {
          "internalType": "address",
          "name": "",
          "type": "address"
        }
      ],
      "name": "assetToPToken",
      "outputs": [
        {
          "internalType": "address",
          "name": "",
          "type": "address"
        }
      ],
      "stateMutability": "view",
      "type": "function"
    },
    {
      "inputs": [
        {
          "internalType": "address",
          "name": "_asset",
          "type": "address"
        }
      ],
      "name": "checkBalance",
      "outputs": [
        {
          "internalType": "uint256",
          "name": "balance",
          "type": "uint256"
        }
      ],
      "stateMutability": "view",
      "type": "function"
    },
    {
      "inputs": [],
      "name": "claimGovernance",
      "outputs": [],
      "stateMutability": "nonpayable",
      "type": "function"
    },
    {
      "inputs": [],
      "name": "collectRewardTokens",
      "outputs": [],
      "stateMutability": "nonpayable",
      "type": "function"
    },
    {
      "inputs": [
        {
          "internalType": "address",
          "name": "_asset",
          "type": "address"
        },
        {
          "internalType": "uint256",
          "name": "_amount",
          "type": "uint256"
        }
      ],
      "name": "deposit",
      "outputs": [],
      "stateMutability": "nonpayable",
      "type": "function"
    },
    {
      "inputs": [],
      "name": "depositAll",
      "outputs": [],
      "stateMutability": "nonpayable",
      "type": "function"
    },
    {
      "inputs": [],
      "name": "getRewardTokenAddresses",
      "outputs": [
        {
          "internalType": "address[]",
          "name": "",
          "type": "address[]"
        }
      ],
      "stateMutability": "view",
      "type": "function"
    },
    {
      "inputs": [],
      "name": "governor",
      "outputs": [
        {
          "internalType": "address",
          "name": "",
          "type": "address"
        }
      ],
      "stateMutability": "view",
      "type": "function"
    },
    {
      "inputs": [],
      "name": "harvesterAddress",
      "outputs": [
        {
          "internalType": "address",
          "name": "",
          "type": "address"
        }
      ],
      "stateMutability": "view",
      "type": "function"
    },
    {
      "inputs": [
        {
          "internalType": "address",
          "name": "_platformAddress",
          "type": "address"
        },
        {
          "internalType": "address",
          "name": "_vaultAddress",
          "type": "address"
        },
        {
          "internalType": "address[]",
          "name": "_rewardTokenAddresses",
          "type": "address[]"
        },
        {
          "internalType": "address[]",
          "name": "_assets",
          "type": "address[]"
        },
        {
          "internalType": "address[]",
          "name": "_pTokens",
          "type": "address[]"
        }
      ],
      "name": "initialize",
      "outputs": [],
      "stateMutability": "nonpayable",
      "type": "function"
    },
    {
      "inputs": [
        {
          "internalType": "address[]",
          "name": "_rewardTokenAddresses",
          "type": "address[]"
        },
        {
          "internalType": "address[]",
          "name": "_assets",
          "type": "address[]"
        },
        {
          "internalType": "address[]",
          "name": "_pTokens",
          "type": "address[]"
        },
        {
          "components": [
            {
              "internalType": "address",
              "name": "platformAddress",
              "type": "address"
            },
            {
              "internalType": "address",
              "name": "vaultAddress",
              "type": "address"
            },
            {
              "internalType": "address",
              "name": "cvxDepositorAddress",
              "type": "address"
            },
            {
              "internalType": "address",
              "name": "metapoolAddress",
              "type": "address"
            },
            {
              "internalType": "address",
              "name": "metapoolMainToken",
              "type": "address"
            },
            {
              "internalType": "address",
              "name": "cvxRewardStakerAddress",
              "type": "address"
            },
            {
              "internalType": "address",
              "name": "metapoolLPToken",
              "type": "address"
            },
            {
              "internalType": "uint256",
              "name": "cvxDepositorPTokenId",
              "type": "uint256"
            }
          ],
          "internalType": "struct BaseConvexMetaStrategy.InitConfig",
          "name": "initConfig",
          "type": "tuple"
        }
      ],
      "name": "initialize",
      "outputs": [],
      "stateMutability": "nonpayable",
      "type": "function"
    },
    {
      "inputs": [],
      "name": "isGovernor",
      "outputs": [
        {
          "internalType": "bool",
          "name": "",
          "type": "bool"
        }
      ],
      "stateMutability": "view",
      "type": "function"
    },
    {
      "inputs": [],
      "name": "maxWithdrawalSlippage",
      "outputs": [
        {
          "internalType": "uint256",
          "name": "",
          "type": "uint256"
        }
      ],
      "stateMutability": "view",
      "type": "function"
    },
    {
      "inputs": [],
      "name": "platformAddress",
      "outputs": [
        {
          "internalType": "address",
          "name": "",
          "type": "address"
        }
      ],
      "stateMutability": "view",
      "type": "function"
    },
    {
      "inputs": [
        {
          "internalType": "uint256",
          "name": "_assetIndex",
          "type": "uint256"
        }
      ],
      "name": "removePToken",
      "outputs": [],
      "stateMutability": "nonpayable",
      "type": "function"
    },
    {
      "inputs": [
        {
          "internalType": "uint256",
          "name": "",
          "type": "uint256"
        }
      ],
      "name": "rewardTokenAddresses",
      "outputs": [
        {
          "internalType": "address",
          "name": "",
          "type": "address"
        }
      ],
      "stateMutability": "view",
      "type": "function"
    },
    {
      "inputs": [],
      "name": "safeApproveAllTokens",
      "outputs": [],
      "stateMutability": "nonpayable",
      "type": "function"
    },
    {
      "inputs": [
        {
          "internalType": "address",
          "name": "_harvesterAddress",
          "type": "address"
        }
      ],
      "name": "setHarvesterAddress",
      "outputs": [],
      "stateMutability": "nonpayable",
      "type": "function"
    },
    {
      "inputs": [
        {
          "internalType": "uint256",
          "name": "_maxWithdrawalSlippage",
          "type": "uint256"
        }
      ],
      "name": "setMaxWithdrawalSlippage",
      "outputs": [],
      "stateMutability": "nonpayable",
      "type": "function"
    },
    {
      "inputs": [
        {
          "internalType": "address",
          "name": "_asset",
          "type": "address"
        },
        {
          "internalType": "address",
          "name": "_pToken",
          "type": "address"
        }
      ],
      "name": "setPTokenAddress",
      "outputs": [],
      "stateMutability": "nonpayable",
      "type": "function"
    },
    {
      "inputs": [
        {
          "internalType": "address[]",
          "name": "_rewardTokenAddresses",
          "type": "address[]"
        }
      ],
      "name": "setRewardTokenAddresses",
      "outputs": [],
      "stateMutability": "nonpayable",
      "type": "function"
    },
    {
      "inputs": [
        {
          "internalType": "address",
          "name": "_asset",
          "type": "address"
        }
      ],
      "name": "supportsAsset",
      "outputs": [
        {
          "internalType": "bool",
          "name": "",
          "type": "bool"
        }
      ],
      "stateMutability": "view",
      "type": "function"
    },
    {
      "inputs": [
        {
          "internalType": "address",
          "name": "_newGovernor",
          "type": "address"
        }
      ],
      "name": "transferGovernance",
      "outputs": [],
      "stateMutability": "nonpayable",
      "type": "function"
    },
    {
      "inputs": [
        {
          "internalType": "address",
          "name": "_asset",
          "type": "address"
        },
        {
          "internalType": "uint256",
          "name": "_amount",
          "type": "uint256"
        }
      ],
      "name": "transferToken",
      "outputs": [],
      "stateMutability": "nonpayable",
      "type": "function"
    },
    {
      "inputs": [],
      "name": "vaultAddress",
      "outputs": [
        {
          "internalType": "address",
          "name": "",
          "type": "address"
        }
      ],
      "stateMutability": "view",
      "type": "function"
    },
    {
      "inputs": [
        {
          "internalType": "address",
          "name": "_recipient",
          "type": "address"
        },
        {
          "internalType": "address",
          "name": "_asset",
          "type": "address"
        },
        {
          "internalType": "uint256",
          "name": "_amount",
          "type": "uint256"
        }
      ],
      "name": "withdraw",
      "outputs": [],
      "stateMutability": "nonpayable",
      "type": "function"
    },
    {
      "inputs": [],
      "name": "withdrawAll",
      "outputs": [],
      "stateMutability": "nonpayable",
      "type": "function"
    }
  ],
  "transactionHash": "0x027ff6674a520b158224982de236238a3112e68a0c8d1bc2d5164588754edba1",
  "args": [],
  "solcInputHash": "319af15f161ea85e31c5299a9c5b406b",
  "bytecode": "0x60806040523480156200001157600080fd5b506200002a336000805160206200491183398151915255565b60008051602062004911833981519152546040516001600160a01b03909116906000907fc7c0c772add429241571afb3805861fb3cfa2af374534088b76cdb4325a87e9a908290a361488f80620000826000396000f3fe608060405234801561001057600080fd5b50600436106101cf5760003560e01c80639136616a11610104578063c7af3352116100a2578063de5f626811610071578063de5f6268146103d1578063f6ca71b0146103d9578063f817bc63146103ee578063fa05f818146103f757600080fd5b8063c7af335214610390578063d38bfff414610398578063d9caed12146103ab578063dbe55e56146103be57600080fd5b806396d538bb116100de57806396d538bb14610324578063aa388af614610337578063ad1728cb14610375578063c2e1e3f41461037d57600080fd5b80639136616a146102eb57806394fc6c9b146102fe5780639688d2fc1461031157600080fd5b806347e7ef24116101715780635f5152261161014b5780635f515226146102aa57806367c7066c146102bd5780637b2d9b2c146102d0578063853828b6146102e357600080fd5b806347e7ef24146102875780635a063f631461029a5780635d36b190146102a257600080fd5b80631072cbea116101ad5780631072cbea146102375780632e6552011461024a578063430bf08a1461025d57806347b856931461027057600080fd5b80630c340a24146101d45780630ed57b3a146101f95780630fc3b4c41461020e575b600080fd5b6101dc61040a565b6040516001600160a01b0390911681526020015b60405180910390f35b61020c610207366004613e9f565b610427565b005b6101dc61021c366004613e65565b6035602052600090815260409020546001600160a01b031681565b61020c610245366004613fd8565b610462565b6037546101dc906001600160a01b031681565b6034546101dc906001600160a01b031681565b61027960d65481565b6040519081526020016101f0565b61020c610295366004613fd8565b6104a2565b61020c610705565b61020c61080c565b6102796102b8366004613e65565b6108b2565b6039546101dc906001600160a01b031681565b6101dc6102de3660046141a8565b610b85565b61020c610baf565b61020c6102f93660046141a8565b610ea5565b61020c61030c3660046141a8565b611070565b61020c61031f366004613ed8565b61125e565b61020c610332366004614004565b611367565b610365610345366004613e65565b6001600160a01b0390811660009081526035602052604090205416151590565b60405190151581526020016101f0565b61020c61148d565b61020c61038b366004613e65565b611546565b6103656115c5565b61020c6103a6366004613e65565b6115f6565b61020c6103b9366004613f97565b61169a565b6033546101dc906001600160a01b031681565b61020c611904565b6103e1611c01565b6040516101f091906142d0565b61027960385481565b61020c610405366004614046565b611c63565b600061042260008051602061483a8339815191525490565b905090565b61042f6115c5565b6104545760405162461bcd60e51b815260040161044b90614472565b60405180910390fd5b61045e82826120b3565b5050565b61046a6115c5565b6104865760405162461bcd60e51b815260040161044b90614472565b61045e61049161040a565b6001600160a01b0384169083612218565b6034546001600160a01b031633146104cc5760405162461bcd60e51b815260040161044b9061443b565b60008051602061481a833981519152805460028114156104fe5760405162461bcd60e51b815260040161044b906144f7565b600282556000831161054b5760405162461bcd60e51b81526020600482015260166024820152754d757374206465706f73697420736f6d657468696e6760501b604482015260640161044b565b609d54604080516001600160a01b03928316815260208101869052918616917f5548c837ab068cf56a2c2479df0882a4922fd203edb7517321831d95078c5f62910160405180910390a261059d613d2e565b60006105a88661227b565b9050848282600381106105bd576105bd6147d8565b60200201526033546001600160a01b031660006105d988612317565b90506000610663836001600160a01b031663bb7b8b806040518163ffffffff1660e01b815260040160206040518083038186803b15801561061957600080fd5b505afa15801561062d573d6000803e3d6000fd5b505050506040513d601f19601f8201168201806040525081019061065191906141c1565b61065d8a601286612406565b9061246a565b9050600061068a610683662386f26fc10000670de0b6b3a76400006146fd565b8390612493565b604051634515cef360e01b81529091506001600160a01b03851690634515cef3906106bb90899085906004016143ed565b600060405180830381600087803b1580156106d557600080fd5b505af11580156106e9573d6000803e3d6000fd5b505050506106f56124a8565b5050505050506001825550505050565b6039546001600160a01b0316331461075f5760405162461bcd60e51b815260206004820152601b60248201527f43616c6c6572206973206e6f7420746865204861727665737465720000000000604482015260640161044b565b60008051602061481a833981519152805460028114156107915760405162461bcd60e51b815260040161044b906144f7565b6002825560d060009054906101000a90046001600160a01b03166001600160a01b0316633d18b9126040518163ffffffff1660e01b8152600401600060405180830381600087803b1580156107e557600080fd5b505af11580156107f9573d6000803e3d6000fd5b505050506108056129b5565b5060019055565b7f44c4d30b2eaad5130ad70c3ba6972730566f3e6359ab83e800d905c61b1c51db546001600160a01b0316336001600160a01b0316146108a75760405162461bcd60e51b815260206004820152603060248201527f4f6e6c79207468652070656e64696e6720476f7665726e6f722063616e20636f60448201526f6d706c6574652074686520636c61696d60801b606482015260840161044b565b6108b033612b10565b565b6001600160a01b0381811660009081526035602052604081205490911661090f5760405162461bcd60e51b8152602060048201526011602482015270155b9cdd5c1c1bdc9d195908185cdcd95d607a1b604482015260640161044b565b50609d546040516370a0823160e01b815230600482015260009182916001600160a01b03909116906370a082319060240160206040518083038186803b15801561095857600080fd5b505afa15801561096c573d6000803e3d6000fd5b505050506040513d601f19601f8201168201806040525081019061099091906141c1565b6033549091506001600160a01b03168115610a37576000816001600160a01b031663bb7b8b806040518163ffffffff1660e01b815260040160206040518083038186803b1580156109e057600080fd5b505afa1580156109f4573d6000803e3d6000fd5b505050506040513d601f19601f82011682018060405250810190610a1891906141c1565b90506000610a268483612493565b9050610a328186614588565b945050505b60d0546040516370a0823160e01b81523060048201526000916001600160a01b0316906370a082319060240160206040518083038186803b158015610a7b57600080fd5b505afa158015610a8f573d6000803e3d6000fd5b505050506040513d601f19601f82011682018060405250810190610ab391906141c1565b90508015610b56576000610b4660d260009054906101000a90046001600160a01b03166001600160a01b031663bb7b8b806040518163ffffffff1660e01b815260040160206040518083038186803b158015610b0e57600080fd5b505afa158015610b22573d6000803e3d6000fd5b505050506040513d601f19601f8201168201806040525081019061068391906141c1565b9050610b528186614588565b9450505b6000610b6186612317565b90506003610b7186836012612406565b610b7b91906145a0565b9695505050505050565b603a8181548110610b9557600080fd5b6000918252602090912001546001600160a01b0316905081565b6034546001600160a01b0316331480610be05750610bcb61040a565b6001600160a01b0316336001600160a01b0316145b610c385760405162461bcd60e51b815260206004820152602360248201527f43616c6c6572206973206e6f7420746865205661756c74206f7220476f7665726044820152623737b960e91b606482015260840161044b565b60008051602061481a83398151915280546002811415610c6a5760405162461bcd60e51b815260040161044b906144f7565b60028255610c76612bd1565b6040805160608101825260008082526020820181905281830152603354609d5492516370a0823160e01b815230600482015291926001600160a01b0391821692839263ecb586a59216906370a082319060240160206040518083038186803b158015610ce157600080fd5b505afa158015610cf5573d6000803e3d6000fd5b505050506040513d601f19601f82011682018060405250810190610d1991906141c1565b846040518363ffffffff1660e01b8152600401610d37929190614533565b600060405180830381600087803b158015610d5157600080fd5b505af1158015610d65573d6000803e3d6000fd5b5050505060005b603654811015610e9a5760405163c661065760e01b8152600481018290526000906001600160a01b0384169063c66106579060240160206040518083038186803b158015610db957600080fd5b505afa158015610dcd573d6000803e3d6000fd5b505050506040513d601f19601f82011682018060405250810190610df19190613e82565b6034546040516370a0823160e01b8152306004820152919250610e87916001600160a01b03918216918416906370a082319060240160206040518083038186803b158015610e3e57600080fd5b505afa158015610e52573d6000803e3d6000fd5b505050506040513d601f19601f82011682018060405250810190610e7691906141c1565b6001600160a01b0384169190612218565b5080610e9281614767565b915050610d6c565b505050600182555050565b610ead6115c5565b610ec95760405162461bcd60e51b815260040161044b90614472565b6036548110610f0a5760405162461bcd60e51b815260206004820152600d60248201526c092dcecc2d8d2c840d2dcc8caf609b1b604482015260640161044b565b600060368281548110610f1f57610f1f6147d8565b60009182526020808320909101546001600160a01b03908116808452603590925260409092205460365491935090911690610f5c906001906146fd565b831015610fde5760368054610f73906001906146fd565b81548110610f8357610f836147d8565b600091825260209091200154603680546001600160a01b039092169185908110610faf57610faf6147d8565b9060005260206000200160006101000a8154816001600160a01b0302191690836001600160a01b031602179055505b6036805480610fef57610fef6147c2565b60008281526020808220600019908401810180546001600160a01b031990811690915593019093556001600160a01b038581168083526035855260409283902080549094169093559051908416815290917f16b7600acff27e39a8a96056b3d533045298de927507f5c1d97e4accde60488c910160405180910390a2505050565b6034546001600160a01b03163314806110a1575061108c61040a565b6001600160a01b0316336001600160a01b0316145b806111425750603460009054906101000a90046001600160a01b03166001600160a01b031663570d8e1d6040518163ffffffff1660e01b815260040160206040518083038186803b1580156110f557600080fd5b505afa158015611109573d6000803e3d6000fd5b505050506040513d601f19601f8201168201806040525081019061112d9190613e82565b6001600160a01b0316336001600160a01b0316145b6111a75760405162461bcd60e51b815260206004820152603060248201527f43616c6c6572206973206e6f7420746865205661756c742c20476f7665726e6f60448201526f1c8b081bdc8814dd1c985d1959da5cdd60821b606482015260840161044b565b670de0b6b3a764000081111561121d5760405162461bcd60e51b815260206004820152603560248201527f4d6178207769746864726177616c20736c697070616765206e6565647320746f604482015274206265206265747765656e203025202d203130302560581b606482015260840161044b565b60d65460408051918252602082018390527f41d5e761f0f918fc9b172996e330d52854e034050ea243fbe413b8d2c0572393910160405180910390a160d655565b6112666115c5565b6112825760405162461bcd60e51b815260040161044b90614472565b600054610100900460ff168061129b575060005460ff16155b6112b75760405162461bcd60e51b815260040161044b906144a9565b600054610100900460ff161580156112d9576000805461ffff19166101011790555b61134a8989898989898080602002602001604051908101604052809392919081815260200183836020028082843760009201919091525050604080516020808d0282810182019093528c82529093508c92508b918291850190849080828437600092019190915250612e5192505050565b801561135c576000805461ff00191690555b505050505050505050565b61136f6115c5565b61138b5760405162461bcd60e51b815260040161044b90614472565b60005b8181101561143f5760008383838181106113aa576113aa6147d8565b90506020020160208101906113bf9190613e65565b6001600160a01b0316141561142d5760405162461bcd60e51b815260206004820152602e60248201527f43616e206e6f742073657420616e20656d70747920616464726573732061732060448201526d30903932bbb0b932103a37b5b2b760911b606482015260840161044b565b8061143781614767565b91505061138e565b507f04c0b9649497d316554306e53678d5f5f5dbc3a06f97dec13ff4cfe98b986bbc603a83836040516114749392919061431d565b60405180910390a1611488603a8383613d4c565b505050565b6114956115c5565b6114b15760405162461bcd60e51b815260040161044b90614472565b60008051602061481a833981519152805460028114156114e35760405162461bcd60e51b815260040161044b906144f7565b600282556114ef612f30565b60005b60365481101561153e5761152c60368281548110611512576115126147d8565b6000918252602090912001546001600160a01b031661301d565b8061153681614767565b9150506114f2565b505060019055565b61154e6115c5565b61156a5760405162461bcd60e51b815260040161044b90614472565b603980546001600160a01b0319166001600160a01b0383169081179091556040805182815260208101929092527fe48386b84419f4d36e0f96c10cc3510b6fb1a33795620c5098b22472bbe90796910160405180910390a150565b60006115dd60008051602061483a8339815191525490565b6001600160a01b0316336001600160a01b031614905090565b6115fe6115c5565b61161a5760405162461bcd60e51b815260040161044b90614472565b611642817f44c4d30b2eaad5130ad70c3ba6972730566f3e6359ab83e800d905c61b1c51db55565b806001600160a01b031661166260008051602061483a8339815191525490565b6001600160a01b03167fa39cc5eb22d0f34d8beaefee8a3f17cc229c1a1d1ef87a5ad47313487b1c4f0d60405160405180910390a350565b6034546001600160a01b031633146116c45760405162461bcd60e51b815260040161044b9061443b565b60008051602061481a833981519152805460028114156116f65760405162461bcd60e51b815260040161044b906144f7565b600282556000831161173b5760405162461bcd60e51b815260206004820152600e60248201526d125b9d985b1a5908185b5bdd5b9d60921b604482015260640161044b565b609d54604080516001600160a01b03928316815260208101869052918616917f2717ead6b9200dd235aad468c9809ea400fe33ac69b5bfaa6d3e90fc922b6398910160405180910390a2609d546040516370a0823160e01b81523060048201526000916001600160a01b0316906370a082319060240160206040518083038186803b1580156117c957600080fd5b505afa1580156117dd573d6000803e3d6000fd5b505050506040513d601f19601f8201168201806040525081019061180191906141c1565b9050600061180e8661227b565b6033549091506001600160a01b031660006118298388613056565b9050808410156118455761184561184085836146fd565b61325b565b600060405180606001604052806000815260200160008152602001600081525090508781856003811061187a5761187a6147d8565b60200201526040516327f6ba8360e21b81526001600160a01b03841690639fdaea0c906118ad90849086906004016143ed565b600060405180830381600087803b1580156118c757600080fd5b505af11580156118db573d6000803e3d6000fd5b506118f4925050506001600160a01b038a168b8a612218565b5050505050600182555050505050565b6034546001600160a01b0316331461192e5760405162461bcd60e51b815260040161044b9061443b565b60008051602061481a833981519152805460028114156119605760405162461bcd60e51b815260040161044b906144f7565b6002825560408051606081018252600080825260208083018290528284018290526033548451630176f71760e71b81529451939492936001600160a01b03909116928492849263bb7b8b80926004808201939291829003018186803b1580156119c857600080fd5b505afa1580156119dc573d6000803e3d6000fd5b505050506040513d601f19601f82011682018060405250810190611a0091906141c1565b905060005b603654811015611b6357600060368281548110611a2457611a246147d8565b60009182526020822001546040516370a0823160e01b81523060048201526001600160a01b03909116925082906370a082319060240160206040518083038186803b158015611a7257600080fd5b505afa158015611a86573d6000803e3d6000fd5b505050506040513d601f19601f82011682018060405250810190611aaa91906141c1565b90508015611b4e576000611abd8361227b565b905081888260038110611ad257611ad26147d8565b60200201526000611ae284612317565b9050611af48661065d85601285612406565b611afe9089614588565b609d54604080516001600160a01b03928316815260208101879052929a50908616917f5548c837ab068cf56a2c2479df0882a4922fd203edb7517321831d95078c5f62910160405180910390a250505b50508080611b5b90614767565b915050611a05565b506000611b89611b82662386f26fc10000670de0b6b3a76400006146fd565b8590612493565b604051634515cef360e01b81529091506001600160a01b03841690634515cef390611bba90889085906004016143ed565b600060405180830381600087803b158015611bd457600080fd5b505af1158015611be8573d6000803e3d6000fd5b50505050611bf46124a8565b5050505050600182555050565b6060603a805480602002602001604051908101604052809291908181526020018280548015611c5957602002820191906000526020600020905b81546001600160a01b03168152600190910190602001808311611c3b575b5050505050905090565b611c6b6115c5565b611c875760405162461bcd60e51b815260040161044b90614472565b600054610100900460ff1680611ca0575060005460ff16155b611cbc5760405162461bcd60e51b815260040161044b906144a9565b600054610100900460ff16158015611cde576000805461ffff19166101011790555b60038514611d2e5760405162461bcd60e51b815260206004820152601e60248201527f4d75737420686176652065786163746c79207468726565206173736574730000604482015260640161044b565b611d3e6060830160408401613e65565b60cf80546001600160a01b0319166001600160a01b03929092169190911790558383600081611d6f57611d6f6147d8565b9050602002016020810190611d849190613e65565b609d80546001600160a01b0319166001600160a01b0392909216919091179055611db46080830160608401613e65565b60d280546001600160a01b0319166001600160a01b0392909216919091179055611de460a0830160808401613e65565b60d380546001600160a01b0319166001600160a01b0392909216919091179055611e1460c0830160a08401613e65565b60d080546001600160a01b0319166001600160a01b0392909216919091179055611e4460e0830160c08401613e65565b60d480546001600160a01b0319166001600160a01b0392831617905560e083013560d155662386f26fc1000060d655604080518082019182905260d25463c661065760e01b909252600060448201529182911663c66106576064830160206040518083038186803b158015611eb857600080fd5b505afa158015611ecc573d6000803e3d6000fd5b505050506040513d601f19601f82011682018060405250810190611ef09190613e82565b6001600160a01b03908116825260d25460405163c661065760e01b81526001600482015260209093019291169063c66106579060240160206040518083038186803b158015611f3e57600080fd5b505afa158015611f52573d6000803e3d6000fd5b505050506040513d601f19601f82011682018060405250810190611f769190613e82565b6001600160a01b03169052611f8f9060d5906002613daf565b50609d54611fa5906001600160a01b0316613805565b60d780546fffffffffffffffffffffffffffffffff19166001600160801b0392909216919091179055611fe6611fe160a0840160808501613e65565b613805565b60d780546001600160801b03928316600160801b02921691909117905561208f6120136020840184613e65565b6120236040850160208601613e65565b8a8a8a8a8080602002602001604051908101604052809392919081815260200183836020028082843760009201919091525050604080516020808e0282810182019093528d82529093508d92508c918291850190849080828437600092019190915250612e5192505050565b612097612f30565b80156120a9576000805461ff00191690555b5050505050505050565b6001600160a01b0382811660009081526035602052604090205416156121105760405162461bcd60e51b81526020600482015260126024820152711c151bdad95b88185b1c9958591e481cd95d60721b604482015260640161044b565b6001600160a01b0382161580159061213057506001600160a01b03811615155b6121705760405162461bcd60e51b8152602060048201526011602482015270496e76616c69642061646472657373657360781b604482015260640161044b565b6001600160a01b03828116600081815260356020908152604080832080549587166001600160a01b031996871681179091556036805460018101825594527f4a11f94e20a93c79f6ec743a1954ec4fc2c08429ae2122118bf234b2185c81b890930180549095168417909455925190815290917fef6485b84315f9b1483beffa32aae9a0596890395e3d7521f1c5fbb51790e765910160405180910390a261045e82826138b6565b6040516001600160a01b03831660248201526044810182905261148890849063a9059cbb60e01b906064015b60408051601f198184030181529190526020810180516001600160e01b03166001600160e01b0319909316929092179091526138bf565b6000805b60038110156122d857826001600160a01b0316603682815481106122a5576122a56147d8565b6000918252602090912001546001600160a01b031614156122c65792915050565b806122d081614767565b91505061227f565b5060405162461bcd60e51b8152602060048201526013602482015272125b9d985b1a59080cdc1bdbdb08185cdcd95d606a1b604482015260640161044b565b600080826001600160a01b031663313ce5676040518163ffffffff1660e01b815260040160206040518083038186803b15801561235357600080fd5b505afa158015612367573d6000803e3d6000fd5b505050506040513d601f19601f8201168201806040525081019061238b91906141da565b60ff169050600481101580156123a2575060128111155b6124005760405162461bcd60e51b815260206004820152602960248201527f546f6b656e206d75737420686176652073756666696369656e7420646563696d604482015268616c20706c6163657360b81b606482015260840161044b565b92915050565b6000818311156124365761242f61241d83856146fd565b61242890600a6145f7565b8590613991565b9350612460565b818310156124605761245d61244b84846146fd565b61245690600a6145f7565b859061399d565b93505b50825b9392505050565b60008061247f84670de0b6b3a7640000613991565b905061248b818461399d565b949350505050565b60006124638383670de0b6b3a76400006139a9565b603354609d546040516370a0823160e01b81523060048201526001600160a01b039283169260009216906370a082319060240160206040518083038186803b1580156124f357600080fd5b505afa158015612507573d6000803e3d6000fd5b505050506040513d601f19601f8201168201806040525081019061252b91906141c1565b90506000826001600160a01b031663bb7b8b806040518163ffffffff1660e01b815260040160206040518083038186803b15801561256857600080fd5b505afa15801561257c573d6000803e3d6000fd5b505050506040513d601f19601f820116820180604052508101906125a091906141c1565b905060006125ae8383612493565b60d25460d754604051634903b0d160e01b8152600160801b9091046001600160801b031660048201529192506000916126f591839185916001600160a01b031690634903b0d19060240160206040518083038186803b15801561261057600080fd5b505afa158015612624573d6000803e3d6000fd5b505050506040513d601f19601f8201168201806040525081019061264891906141c1565b60d25460d754604051634903b0d160e01b81526001600160801b0390911660048201526126dc9189916001600160a01b0390911690634903b0d19060240160206040518083038186803b15801561269e57600080fd5b505afa1580156126b2573d6000803e3d6000fd5b505050506040513d601f19601f820116820180604052508101906126d691906141c1565b90612493565b6126e691906146be565b6126f09190614547565b6139cb565b905061270181836139e2565b90506127178161271284600261469f565b6139f2565b9050801561277e5760345460405163ab80dafb60e01b8152600481018390526001600160a01b039091169063ab80dafb90602401600060405180830381600087803b15801561276557600080fd5b505af1158015612779573d6000803e3d6000fd5b505050505b604080518082018252828152602080820187905260d2548351630176f71760e71b8152935192936000936001600160a01b039092169263bb7b8b8092600480840193829003018186803b1580156127d457600080fd5b505afa1580156127e8573d6000803e3d6000fd5b505050506040513d601f19601f8201168201806040525081019061280c91906141c1565b9050600061283a61282c662386f26fc10000670de0b6b3a76400006146fd565b6126d68461065d8989614588565b60d254604051630b4c7e4d60e01b81529192506000916001600160a01b0390911690630b4c7e4d9061287290879086906004016143b5565b602060405180830381600087803b15801561288c57600080fd5b505af11580156128a0573d6000803e3d6000fd5b505050506040513d601f19601f820116820180604052508101906128c491906141c1565b60cf5460d1546040516321d0683360e11b8152600481019190915260248101839052600160448201529192506000916001600160a01b03909116906343a0d06690606401602060405180830381600087803b15801561292257600080fd5b505af1158015612936573d6000803e3d6000fd5b505050506040513d601f19601f8201168201806040525081019061295a9190614186565b9050806129a95760405162461bcd60e51b815260206004820152601b60248201527f4661696c656420746f206465706f73697420746f20436f6e7665780000000000604482015260640161044b565b50505050505050505050565b60005b603a54811015612b0d576000603a82815481106129d7576129d76147d8565b60009182526020822001546040516370a0823160e01b81523060048201526001600160a01b03909116925082906370a082319060240160206040518083038186803b158015612a2557600080fd5b505afa158015612a39573d6000803e3d6000fd5b505050506040513d601f19601f82011682018060405250810190612a5d91906141c1565b603954603a80549293507ff6c07a063ed4e63808eb8da7112d46dbcd38de2b40a73dbcc9353c5a94c72353926001600160a01b039092169186908110612aa557612aa56147d8565b60009182526020918290200154604080516001600160a01b0394851681529390911691830191909152810183905260600160405180910390a1603954612af8906001600160a01b03848116911683612218565b50508080612b0590614767565b9150506129b8565b50565b6001600160a01b038116612b665760405162461bcd60e51b815260206004820152601a60248201527f4e657720476f7665726e6f722069732061646472657373283029000000000000604482015260640161044b565b806001600160a01b0316612b8660008051602061483a8339815191525490565b6001600160a01b03167fc7c0c772add429241571afb3805861fb3cfa2af374534088b76cdb4325a87e9a60405160405180910390a3612b0d8160008051602061483a83398151915255565b60d25460d0546040516370a0823160e01b81523060048201526001600160a01b039283169260009216906370a082319060240160206040518083038186803b158015612c1c57600080fd5b505afa158015612c30573d6000803e3d6000fd5b505050506040513d601f19601f82011682018060405250810190612c5491906141c1565b60d054604051636197390160e11b815260048101839052600160248201529192506001600160a01b03169063c32e720290604401600060405180830381600087803b158015612ca257600080fd5b505af1158015612cb6573d6000803e3d6000fd5b505060408051808201825260008082526020820181905260d25492516370a0823160e01b815230600482015291945092506001600160a01b0391821691635b36389c91908716906370a082319060240160206040518083038186803b158015612d1e57600080fd5b505afa158015612d32573d6000803e3d6000fd5b505050506040513d601f19601f82011682018060405250810190612d5691906141c1565b846040518363ffffffff1660e01b8152600401612d7492919061451f565b6040805180830381600087803b158015612d8d57600080fd5b505af1158015612da1573d6000803e3d6000fd5b505050506040513d601f19601f82011682018060405250810190612dc591906140fe565b60345460d7549192506001600160a01b031690636217f3ea908390600160801b90046001600160801b031660028110612e0057612e006147d8565b60200201516040518263ffffffff1660e01b8152600401612e2391815260200190565b600060405180830381600087803b158015612e3d57600080fd5b505af11580156120a9573d6000803e3d6000fd5b603380546001600160a01b038089166001600160a01b0319928316179092556034805492881692909116919091179055612e8d603a8585613d4c565b50815181518114612ed75760405162461bcd60e51b8152602060048201526014602482015273496e76616c696420696e7075742061727261797360601b604482015260640161044b565b60005b818110156120a957612f1e848281518110612ef757612ef76147d8565b6020026020010151848381518110612f1157612f116147d8565b60200260200101516120b3565b80612f2881614767565b915050612eda565b609d546033546001600160a01b0391821691612f50918391166000613a01565b603354612f6c906001600160a01b038381169116600019613a01565b60cf5460d454612f8a916001600160a01b0391821691166000613a01565b60cf5460d454612fa9916001600160a01b039182169116600019613a01565b60d254612fc4906001600160a01b0383811691166000613a01565b60d254612fe0906001600160a01b038381169116600019613a01565b60d25460d354612ffe916001600160a01b0391821691166000613a01565b60d25460d354612b0d916001600160a01b039182169116600019613a01565b603354819061303a906001600160a01b0380841691166000613a01565b60335461045e906001600160a01b038381169116600019613a01565b6033546040805160608101825260008082526020820181905291810182905290916001600160a01b03169083818660038110613094576130946147d8565b6020020152604051633883e11960e01b81526000906001600160a01b03841690633883e119906130ca90859085906004016143d0565b602060405180830381600087803b1580156130e457600080fd5b505af11580156130f8573d6000803e3d6000fd5b505050506040513d601f19601f8201168201806040525081019061311c91906141c1565b905060006131b0846001600160a01b031663ddca3f436040518163ffffffff1660e01b815260040160206040518083038186803b15801561315c57600080fd5b505afa158015613170573d6000803e3d6000fd5b505050506040513d601f19601f8201168201806040525081019061319491906141c1565b6131a3906402540be400614588565b83906402540be4006139a9565b60405163cc2b27d760e01b815260048101829052600f89900b60248201529091506000906001600160a01b0386169063cc2b27d79060440160206040518083038186803b15801561320057600080fd5b505afa158015613214573d6000803e3d6000fd5b505050506040513d601f19601f8201168201806040525081019061323891906141c1565b905080613245888461469f565b61324f91906145a0565b98975050505050505050565b60335460d25460d754604051634903b0d160e01b81526001600160801b0390911660048201526001600160a01b03928316926000921690634903b0d19060240160206040518083038186803b1580156132b357600080fd5b505afa1580156132c7573d6000803e3d6000fd5b505050506040513d601f19601f820116820180604052508101906132eb91906141c1565b905060008160d460009054906101000a90046001600160a01b03166001600160a01b03166318160ddd6040518163ffffffff1660e01b815260040160206040518083038186803b15801561333e57600080fd5b505afa158015613352573d6000803e3d6000fd5b505050506040513d601f19601f8201168201806040525081019061337691906141c1565b61338f906ec097ce7bc90715b34b9f100000000061469f565b61339991906145a0565b905060008160016133aa87866146fd565b6133b491906146fd565b6133be919061469f565b6133c8838561469f565b6133d291906146fd565b905060006133ef6ec097ce7bc90715b34b9f1000000000836145a0565b60d0546040516370a0823160e01b81523060048201529192506000916001600160a01b03909116906370a082319060240160206040518083038186803b15801561343857600080fd5b505afa15801561344c573d6000803e3d6000fd5b505050506040513d601f19601f8201168201806040525081019061347091906141c1565b9050808211156040518060400160405280601781526020017f417474656d7074696e6720746f207769746864726177200000000000000000008152506134b584613b25565b604051806040016040528060168152602001750161036b2ba30b837b7b6262810313aba1037b7363c960551b8152506134ed85613b25565b6040518060400160405280600b81526020016a1030bb30b4b630b136329760a91b815250604051602001613525959493929190614265565b604051602081830303815290604052906135525760405162461bcd60e51b815260040161044b9190614408565b5060d054604051636197390160e11b815260048101849052600160248201526001600160a01b039091169063c32e720290604401600060405180830381600087803b1580156135a057600080fd5b505af11580156135b4573d6000803e3d6000fd5b5050505060006001613637886001600160a01b031663bb7b8b806040518163ffffffff1660e01b815260040160206040518083038186803b1580156135f857600080fd5b505afa15801561360c573d6000803e3d6000fd5b505050506040513d601f19601f8201168201806040525081019061363091906141c1565b8a90612493565b60d25460408051630176f71760e71b815290516136bc926001600160a01b03169163bb7b8b80916004808301926020929190829003018186803b15801561367d57600080fd5b505afa158015613691573d6000803e3d6000fd5b505050506040513d601f19601f820116820180604052508101906136b591906141c1565b8690612493565b6136c691906146fd565b6136d091906146fd565b60d254604080518082018252838152602081018c905290516316cd8e2760e21b81529293506000926001600160a01b0390921691635b36389c916137199188919060040161451f565b6040805180830381600087803b15801561373257600080fd5b505af1158015613746573d6000803e3d6000fd5b505050506040513d601f19601f8201168201806040525081019061376a91906140fe565b60345460d7549192506001600160a01b031690636217f3ea908390600160801b90046001600160801b0316600281106137a5576137a56147d8565b60200201516040518263ffffffff1660e01b81526004016137c891815260200190565b600060405180830381600087803b1580156137e257600080fd5b505af11580156137f6573d6000803e3d6000fd5b50505050505050505050505050565b6000805b6002816001600160801b0316101561387457826001600160a01b031660d5826001600160801b031681548110613841576138416147d8565b6000918252602090912001546001600160a01b031614156138625792915050565b8061386c81614740565b915050613809565b5060405162461bcd60e51b8152602060048201526016602482015275125b9d985b1a590813595d185c1bdbdb08185cdcd95d60521b604482015260640161044b565b61045e8261301d565b6000613914826040518060400160405280602081526020017f5361666545524332303a206c6f772d6c6576656c2063616c6c206661696c6564815250856001600160a01b0316613c239092919063ffffffff16565b80519091501561148857808060200190518101906139329190614186565b6114885760405162461bcd60e51b815260206004820152602a60248201527f5361666545524332303a204552433230206f7065726174696f6e20646964206e6044820152691bdd081cdd58d8d9595960b21b606482015260840161044b565b6000612463828461469f565b600061246382846145a0565b6000806139b68585613991565b90506139c2818461399d565b95945050505050565b6000818312156139db5781612463565b5090919050565b6000818310156139db5781612463565b60008183106139db5781612463565b801580613a8a5750604051636eb1769f60e11b81523060048201526001600160a01b03838116602483015284169063dd62ed3e9060440160206040518083038186803b158015613a5057600080fd5b505afa158015613a64573d6000803e3d6000fd5b505050506040513d601f19601f82011682018060405250810190613a8891906141c1565b155b613af55760405162461bcd60e51b815260206004820152603660248201527f5361666545524332303a20617070726f76652066726f6d206e6f6e2d7a65726f60448201527520746f206e6f6e2d7a65726f20616c6c6f77616e636560501b606482015260840161044b565b6040516001600160a01b03831660248201526044810182905261148890849063095ea7b360e01b90606401612244565b606081613b495750506040805180820190915260018152600360fc1b602082015290565b8160005b8115613b735780613b5d81614767565b9150613b6c9050600a836145a0565b9150613b4d565b60008167ffffffffffffffff811115613b8e57613b8e6147ee565b6040519080825280601f01601f191660200182016040528015613bb8576020820181803683370190505b5090505b841561248b57613bcd6001836146fd565b9150613bda600a86614782565b613be5906030614588565b60f81b818381518110613bfa57613bfa6147d8565b60200101906001600160f81b031916908160001a905350613c1c600a866145a0565b9450613bbc565b606061248b848460008585843b613c7c5760405162461bcd60e51b815260206004820152601d60248201527f416464726573733a2063616c6c20746f206e6f6e2d636f6e7472616374000000604482015260640161044b565b600080866001600160a01b03168587604051613c989190614249565b60006040518083038185875af1925050503d8060008114613cd5576040519150601f19603f3d011682016040523d82523d6000602084013e613cda565b606091505b5091509150613cea828286613cf5565b979650505050505050565b60608315613d04575081612463565b825115613d145782518084602001fd5b8160405162461bcd60e51b815260040161044b9190614408565b60405180606001604052806003906020820280368337509192915050565b828054828255906000526020600020908101928215613d9f579160200282015b82811115613d9f5781546001600160a01b0319166001600160a01b03843516178255602090920191600190910190613d6c565b50613dab929150613e04565b5090565b828054828255906000526020600020908101928215613d9f579160200282015b82811115613d9f57825182546001600160a01b0319166001600160a01b03909116178255602090920191600190910190613dcf565b5b80821115613dab5760008155600101613e05565b60008083601f840112613e2b57600080fd5b50813567ffffffffffffffff811115613e4357600080fd5b6020830191508360208260051b8501011115613e5e57600080fd5b9250929050565b600060208284031215613e7757600080fd5b813561246381614804565b600060208284031215613e9457600080fd5b815161246381614804565b60008060408385031215613eb257600080fd5b8235613ebd81614804565b91506020830135613ecd81614804565b809150509250929050565b60008060008060008060008060a0898b031215613ef457600080fd5b8835613eff81614804565b97506020890135613f0f81614804565b9650604089013567ffffffffffffffff80821115613f2c57600080fd5b613f388c838d01613e19565b909850965060608b0135915080821115613f5157600080fd5b613f5d8c838d01613e19565b909650945060808b0135915080821115613f7657600080fd5b50613f838b828c01613e19565b999c989b5096995094979396929594505050565b600080600060608486031215613fac57600080fd5b8335613fb781614804565b92506020840135613fc781614804565b929592945050506040919091013590565b60008060408385031215613feb57600080fd5b8235613ff681614804565b946020939093013593505050565b6000806020838503121561401757600080fd5b823567ffffffffffffffff81111561402e57600080fd5b61403a85828601613e19565b90969095509350505050565b600080600080600080600087890361016081121561406357600080fd5b883567ffffffffffffffff8082111561407b57600080fd5b6140878c838d01613e19565b909a50985060208b01359150808211156140a057600080fd5b6140ac8c838d01613e19565b909850965060408b01359150808211156140c557600080fd5b506140d28b828c01613e19565b909550935050610100605f19820112156140eb57600080fd5b5060608801905092959891949750929550565b60006040828403121561411057600080fd5b82601f83011261411f57600080fd5b6040516040810181811067ffffffffffffffff82111715614142576141426147ee565b806040525080838560408601111561415957600080fd5b60005b600281101561417b57815183526020928301929091019060010161415c565b509195945050505050565b60006020828403121561419857600080fd5b8151801515811461246357600080fd5b6000602082840312156141ba57600080fd5b5035919050565b6000602082840312156141d357600080fd5b5051919050565b6000602082840312156141ec57600080fd5b815160ff8116811461246357600080fd5b8060005b6002811015614220578151845260209384019390910190600101614201565b50505050565b8060005b600381101561422057815184526020938401939091019060010161422a565b6000825161425b818460208701614714565b9190910192915050565b60008651614277818460208b01614714565b86519083019061428b818360208b01614714565b865191019061429e818360208a01614714565b85519101906142b1818360208901614714565b84519101906142c4818360208801614714565b01979650505050505050565b6020808252825182820181905260009190848201906040850190845b818110156143115783516001600160a01b0316835292840192918401916001016142ec565b50909695505050505050565b6000604082016040835280865480835260608501915087600052602092508260002060005b828110156143675781546001600160a01b031684529284019260019182019101614342565b505050838103828501528481528590820160005b868110156143a957823561438e81614804565b6001600160a01b03168252918301919083019060010161437b565b50979650505050505050565b606081016143c382856141fd565b8260408301529392505050565b608081016143de8285614226565b82151560608301529392505050565b608081016143fb8285614226565b8260608301529392505050565b6020815260008251806020840152614427816040850160208701614714565b601f01601f19169190910160400192915050565b60208082526017908201527f43616c6c6572206973206e6f7420746865205661756c74000000000000000000604082015260600190565b6020808252601a908201527f43616c6c6572206973206e6f742074686520476f7665726e6f72000000000000604082015260600190565b6020808252602e908201527f496e697469616c697a61626c653a20636f6e747261637420697320616c72656160408201526d191e481a5b9a5d1a585b1a5e995960921b606082015260800190565b6020808252600e908201526d1499595b9d1c985b9d0818d85b1b60921b604082015260600190565b8281526060810161246360208301846141fd565b828152608081016124636020830184614226565b600080821280156001600160ff1b038490038513161561456957614569614796565b600160ff1b839003841281161561458257614582614796565b50500190565b6000821982111561459b5761459b614796565b500190565b6000826145af576145af6147ac565b500490565b600181815b808511156145ef5781600019048211156145d5576145d5614796565b808516156145e257918102915b93841c93908002906145b9565b509250929050565b6000612463838360008261460d57506001612400565b8161461a57506000612400565b8160018114614630576002811461463a57614656565b6001915050612400565b60ff84111561464b5761464b614796565b50506001821b612400565b5060208310610133831016604e8410600b8410161715614679575081810a612400565b61468383836145b4565b806000190482111561469757614697614796565b029392505050565b60008160001904831182151516156146b9576146b9614796565b500290565b60008083128015600160ff1b8501841216156146dc576146dc614796565b6001600160ff1b03840183138116156146f7576146f7614796565b50500390565b60008282101561470f5761470f614796565b500390565b60005b8381101561472f578181015183820152602001614717565b838111156142205750506000910152565b60006001600160801b038083168181141561475d5761475d614796565b6001019392505050565b600060001982141561477b5761477b614796565b5060010190565b600082614791576147916147ac565b500690565b634e487b7160e01b600052601160045260246000fd5b634e487b7160e01b600052601260045260246000fd5b634e487b7160e01b600052603160045260246000fd5b634e487b7160e01b600052603260045260246000fd5b634e487b7160e01b600052604160045260246000fd5b6001600160a01b0381168114612b0d57600080fdfe53bf423e48ed90e97d02ab0ebab13b2a235a6bfbe9c321847d5c175333ac45357bea13895fa79d2831e0a9e28edede30099005a50d652d8957cf8a607ee6ca4aa264697066735822122055367f1e46a058f43c8033849bdedcc013de0817503efe403a8d86b223673e9764736f6c634300080700337bea13895fa79d2831e0a9e28edede30099005a50d652d8957cf8a607ee6ca4a",
  "devdoc": {
    "kind": "dev",
    "methods": {
      "checkBalance(address)": {
        "details": "Get the total asset value held in the platform",
        "params": {
          "_asset": "Address of the asset"
        },
        "returns": {
          "balance": "   Total value of the asset in the platform"
        }
      },
      "claimGovernance()": {
        "details": "Claim Governance of the contract to a new account (`newGovernor`). Can only be called by the new Governor."
      },
      "collectRewardTokens()": {
        "details": "Collect accumulated CRV and CVX and send to Harvester."
      },
      "deposit(address,uint256)": {
        "details": "Deposit asset into the Curve 3Pool",
        "params": {
          "_amount": "Amount of asset to deposit",
          "_asset": "Address of asset to deposit"
        }
      },
      "depositAll()": {
        "details": "Deposit the entire balance of any supported asset into the Curve 3pool"
      },
      "getRewardTokenAddresses()": {
        "details": "Get the reward token addresses.",
        "returns": {
          "_0": "address[] the reward token addresses."
        }
      },
      "governor()": {
        "details": "Returns the address of the current Governor."
      },
      "initialize(address,address,address[],address[],address[])": {
        "details": "Internal initialize function, to set up initial internal state",
        "params": {
          "_assets": "Addresses of initial supported assets",
          "_pTokens": "Platform Token corresponding addresses",
          "_platformAddress": "Generic platform address",
          "_rewardTokenAddresses": "Address of reward token for platform",
          "_vaultAddress": "Address of the Vault"
        }
      },
      "initialize(address[],address[],address[],(address,address,address,address,address,address,address,uint256))": {
        "params": {
          "_assets": "Addresses of supported assets. MUST be passed in the same                order as returned by coins on the pool contract, i.e.                DAI, USDC, USDT",
          "_pTokens": "Platform Token corresponding addresses",
          "_rewardTokenAddresses": "Address of CRV & CVX",
          "initConfig": "Various addresses and info for initialization state"
        }
      },
      "isGovernor()": {
        "details": "Returns true if the caller is the current Governor."
      },
      "removePToken(uint256)": {
        "details": "Remove a supported asset by passing its index.      This method can only be called by the system Governor",
        "params": {
          "_assetIndex": "Index of the asset to be removed"
        }
      },
      "safeApproveAllTokens()": {
        "details": "Approve the spending of all assets by their corresponding pool tokens,      if for some reason is it necessary."
      },
      "setHarvesterAddress(address)": {
        "details": "Set the reward token addresses.",
        "params": {
          "_harvesterAddress": "Address of the harvester"
        }
      },
      "setMaxWithdrawalSlippage(uint256)": {
        "details": "Sets max withdrawal slippage that is considered when removing liquidity from Metapools.",
        "params": {
          "_maxWithdrawalSlippage": "Max withdrawal slippage denominated in        wad (number with 18 decimals): 1e18 == 100%, 1e16 == 1% IMPORTANT Minimum maxWithdrawalSlippage should actually be 0.1% (1e15) for production usage. Contract allows as low value as 0% for confirming correct behavior in test suite."
        }
      },
      "setPTokenAddress(address,address)": {
        "details": "Provide support for asset by passing its pToken address.      This method can only be called by the system Governor",
        "params": {
          "_asset": "Address for the asset",
          "_pToken": "Address for the corresponding platform token"
        }
      },
      "setRewardTokenAddresses(address[])": {
        "details": "Set the reward token addresses.",
        "params": {
          "_rewardTokenAddresses": "Address array of the reward token"
        }
      },
      "supportsAsset(address)": {
        "details": "Retuns bool indicating whether asset is supported by strategy",
        "params": {
          "_asset": "Address of the asset"
        }
      },
      "transferGovernance(address)": {
        "details": "Transfers Governance of the contract to a new account (`newGovernor`). Can only be called by the current Governor. Must be claimed for this to complete",
        "params": {
          "_newGovernor": "Address of the new Governor"
        }
      },
      "transferToken(address,uint256)": {
        "details": "Transfer token to governor. Intended for recovering tokens stuck in      strategy contracts, i.e. mistaken sends.",
        "params": {
          "_amount": "Amount of the asset to transfer",
          "_asset": "Address for the asset"
        }
      },
      "withdraw(address,address,uint256)": {
        "details": "Withdraw asset from Curve 3Pool",
        "params": {
          "_amount": "Amount of asset to withdraw",
          "_asset": "Address of asset to withdraw",
          "_recipient": "Address to receive withdrawn asset"
        }
      },
      "withdrawAll()": {
        "details": "Remove all assets from platform and send them to Vault contract."
      }
    },
    "version": 1
  },
  "userdoc": {
    "kind": "user",
    "methods": {
      "initialize(address[],address[],address[],(address,address,address,address,address,address,address,uint256))": {
        "notice": "Initializer for setting up strategy internal state. This overrides the InitializableAbstractStrategy initializer as Curve strategies don't fit well within that abstraction."
      }
    },
    "version": 1
  },
  "storageLayout": {
    "storage": [
      {
        "astId": 21409,
        "contract": "contracts/strategies/ConvexOUSDMetaStrategy.sol:ConvexOUSDMetaStrategy",
        "label": "initialized",
        "offset": 0,
        "slot": "0",
        "type": "t_bool"
      },
      {
        "astId": 21412,
        "contract": "contracts/strategies/ConvexOUSDMetaStrategy.sol:ConvexOUSDMetaStrategy",
        "label": "initializing",
        "offset": 1,
        "slot": "0",
        "type": "t_bool"
      },
      {
        "astId": 21452,
        "contract": "contracts/strategies/ConvexOUSDMetaStrategy.sol:ConvexOUSDMetaStrategy",
        "label": "______gap",
        "offset": 0,
        "slot": "1",
        "type": "t_array(t_uint256)50_storage"
      },
      {
        "astId": 21530,
        "contract": "contracts/strategies/ConvexOUSDMetaStrategy.sol:ConvexOUSDMetaStrategy",
        "label": "platformAddress",
        "offset": 0,
        "slot": "51",
        "type": "t_address"
      },
      {
        "astId": 21532,
        "contract": "contracts/strategies/ConvexOUSDMetaStrategy.sol:ConvexOUSDMetaStrategy",
        "label": "vaultAddress",
        "offset": 0,
        "slot": "52",
        "type": "t_address"
      },
      {
        "astId": 21536,
        "contract": "contracts/strategies/ConvexOUSDMetaStrategy.sol:ConvexOUSDMetaStrategy",
        "label": "assetToPToken",
        "offset": 0,
        "slot": "53",
        "type": "t_mapping(t_address,t_address)"
      },
      {
        "astId": 21539,
        "contract": "contracts/strategies/ConvexOUSDMetaStrategy.sol:ConvexOUSDMetaStrategy",
        "label": "assetsMapped",
        "offset": 0,
        "slot": "54",
        "type": "t_array(t_address)dyn_storage"
      },
      {
        "astId": 21541,
        "contract": "contracts/strategies/ConvexOUSDMetaStrategy.sol:ConvexOUSDMetaStrategy",
        "label": "_deprecated_rewardTokenAddress",
        "offset": 0,
        "slot": "55",
        "type": "t_address"
      },
      {
        "astId": 21543,
        "contract": "contracts/strategies/ConvexOUSDMetaStrategy.sol:ConvexOUSDMetaStrategy",
        "label": "_deprecated_rewardLiquidationThreshold",
        "offset": 0,
        "slot": "56",
        "type": "t_uint256"
      },
      {
        "astId": 21545,
        "contract": "contracts/strategies/ConvexOUSDMetaStrategy.sol:ConvexOUSDMetaStrategy",
        "label": "harvesterAddress",
        "offset": 0,
        "slot": "57",
        "type": "t_address"
      },
      {
        "astId": 21548,
        "contract": "contracts/strategies/ConvexOUSDMetaStrategy.sol:ConvexOUSDMetaStrategy",
        "label": "rewardTokenAddresses",
        "offset": 0,
        "slot": "58",
        "type": "t_array(t_address)dyn_storage"
      },
      {
        "astId": 21552,
        "contract": "contracts/strategies/ConvexOUSDMetaStrategy.sol:ConvexOUSDMetaStrategy",
        "label": "_reserved",
        "offset": 0,
        "slot": "59",
        "type": "t_array(t_int256)98_storage"
      },
      {
        "astId": 16023,
        "contract": "contracts/strategies/ConvexOUSDMetaStrategy.sol:ConvexOUSDMetaStrategy",
        "label": "pTokenAddress",
        "offset": 0,
        "slot": "157",
        "type": "t_address"
      },
      {
        "astId": 16027,
        "contract": "contracts/strategies/ConvexOUSDMetaStrategy.sol:ConvexOUSDMetaStrategy",
        "label": "__reserved",
        "offset": 0,
        "slot": "158",
        "type": "t_array(t_int256)49_storage"
      },
      {
        "astId": 15470,
        "contract": "contracts/strategies/ConvexOUSDMetaStrategy.sol:ConvexOUSDMetaStrategy",
        "label": "cvxDepositorAddress",
        "offset": 0,
        "slot": "207",
        "type": "t_address"
      },
      {
        "astId": 15472,
        "contract": "contracts/strategies/ConvexOUSDMetaStrategy.sol:ConvexOUSDMetaStrategy",
        "label": "cvxRewardStakerAddress",
        "offset": 0,
        "slot": "208",
        "type": "t_address"
      },
      {
        "astId": 15474,
        "contract": "contracts/strategies/ConvexOUSDMetaStrategy.sol:ConvexOUSDMetaStrategy",
        "label": "cvxDepositorPTokenId",
        "offset": 0,
        "slot": "209",
        "type": "t_uint256"
      },
      {
        "astId": 15477,
        "contract": "contracts/strategies/ConvexOUSDMetaStrategy.sol:ConvexOUSDMetaStrategy",
        "label": "metapool",
        "offset": 0,
        "slot": "210",
        "type": "t_contract(ICurveMetaPool)18951"
      },
      {
        "astId": 15480,
        "contract": "contracts/strategies/ConvexOUSDMetaStrategy.sol:ConvexOUSDMetaStrategy",
        "label": "metapoolMainToken",
        "offset": 0,
        "slot": "211",
        "type": "t_contract(IERC20)623"
      },
      {
        "astId": 15483,
        "contract": "contracts/strategies/ConvexOUSDMetaStrategy.sol:ConvexOUSDMetaStrategy",
        "label": "metapoolLPToken",
        "offset": 0,
        "slot": "212",
        "type": "t_contract(IERC20)623"
      },
      {
        "astId": 15486,
        "contract": "contracts/strategies/ConvexOUSDMetaStrategy.sol:ConvexOUSDMetaStrategy",
        "label": "metapoolAssets",
        "offset": 0,
        "slot": "213",
        "type": "t_array(t_address)dyn_storage"
      },
      {
        "astId": 15488,
        "contract": "contracts/strategies/ConvexOUSDMetaStrategy.sol:ConvexOUSDMetaStrategy",
        "label": "maxWithdrawalSlippage",
        "offset": 0,
        "slot": "214",
        "type": "t_uint256"
      },
      {
        "astId": 15490,
        "contract": "contracts/strategies/ConvexOUSDMetaStrategy.sol:ConvexOUSDMetaStrategy",
        "label": "crvCoinIndex",
        "offset": 0,
        "slot": "215",
        "type": "t_uint128"
      },
      {
        "astId": 15492,
        "contract": "contracts/strategies/ConvexOUSDMetaStrategy.sol:ConvexOUSDMetaStrategy",
        "label": "mainCoinIndex",
        "offset": 16,
        "slot": "215",
        "type": "t_uint128"
      },
      {
        "astId": 15496,
        "contract": "contracts/strategies/ConvexOUSDMetaStrategy.sol:ConvexOUSDMetaStrategy",
        "label": "___reserved",
        "offset": 0,
        "slot": "216",
        "type": "t_array(t_int256)41_storage"
      }
    ],
    "types": {
      "t_address": {
        "encoding": "inplace",
        "label": "address",
        "numberOfBytes": "20"
      },
      "t_array(t_address)dyn_storage": {
        "base": "t_address",
        "encoding": "dynamic_array",
        "label": "address[]",
        "numberOfBytes": "32"
      },
      "t_array(t_int256)41_storage": {
        "base": "t_int256",
        "encoding": "inplace",
        "label": "int256[41]",
        "numberOfBytes": "1312"
      },
      "t_array(t_int256)49_storage": {
        "base": "t_int256",
        "encoding": "inplace",
        "label": "int256[49]",
        "numberOfBytes": "1568"
      },
      "t_array(t_int256)98_storage": {
        "base": "t_int256",
        "encoding": "inplace",
        "label": "int256[98]",
        "numberOfBytes": "3136"
      },
      "t_array(t_uint256)50_storage": {
        "base": "t_uint256",
        "encoding": "inplace",
        "label": "uint256[50]",
        "numberOfBytes": "1600"
      },
      "t_bool": {
        "encoding": "inplace",
        "label": "bool",
        "numberOfBytes": "1"
      },
      "t_contract(ICurveMetaPool)18951": {
        "encoding": "inplace",
        "label": "contract ICurveMetaPool",
        "numberOfBytes": "20"
      },
      "t_contract(IERC20)623": {
        "encoding": "inplace",
        "label": "contract IERC20",
        "numberOfBytes": "20"
      },
      "t_int256": {
        "encoding": "inplace",
        "label": "int256",
        "numberOfBytes": "32"
      },
      "t_mapping(t_address,t_address)": {
        "encoding": "mapping",
        "key": "t_address",
        "label": "mapping(address => address)",
        "numberOfBytes": "32",
        "value": "t_address"
      },
      "t_uint128": {
        "encoding": "inplace",
        "label": "uint128",
        "numberOfBytes": "16"
      },
      "t_uint256": {
        "encoding": "inplace",
        "label": "uint256",
        "numberOfBytes": "32"
      }
    }
  }
}