{
  "address": "0xA52C14701f7ad3E7B70D05078AE2ebE3Fd283449",
  "abi": [
    {
      "anonymous": false,
      "inputs": [
        {
          "indexed": true,
          "internalType": "address",
          "name": "_asset",
          "type": "address"
        },
        {
          "indexed": false,
          "internalType": "address",
          "name": "_pToken",
          "type": "address"
        },
        {
          "indexed": false,
          "internalType": "uint256",
          "name": "_amount",
          "type": "uint256"
        }
      ],
      "name": "Deposit",
      "type": "event"
    },
    {
      "anonymous": false,
      "inputs": [
        {
          "indexed": true,
          "internalType": "address",
          "name": "previousGovernor",
          "type": "address"
        },
        {
          "indexed": true,
          "internalType": "address",
          "name": "newGovernor",
          "type": "address"
        }
      ],
      "name": "GovernorshipTransferred",
      "type": "event"
    },
    {
      "anonymous": false,
      "inputs": [
        {
          "indexed": false,
          "internalType": "address",
          "name": "_oldHarvesterAddress",
          "type": "address"
        },
        {
          "indexed": false,
          "internalType": "address",
          "name": "_newHarvesterAddress",
          "type": "address"
        }
      ],
      "name": "HarvesterAddressesUpdated",
      "type": "event"
    },
    {
      "anonymous": false,
      "inputs": [
        {
          "indexed": true,
          "internalType": "address",
          "name": "_asset",
          "type": "address"
        },
        {
          "indexed": false,
          "internalType": "address",
          "name": "_pToken",
          "type": "address"
        }
      ],
      "name": "PTokenAdded",
      "type": "event"
    },
    {
      "anonymous": false,
      "inputs": [
        {
          "indexed": true,
          "internalType": "address",
          "name": "_asset",
          "type": "address"
        },
        {
          "indexed": false,
          "internalType": "address",
          "name": "_pToken",
          "type": "address"
        }
      ],
      "name": "PTokenRemoved",
      "type": "event"
    },
    {
      "anonymous": false,
      "inputs": [
        {
          "indexed": true,
          "internalType": "address",
          "name": "previousGovernor",
          "type": "address"
        },
        {
          "indexed": true,
          "internalType": "address",
          "name": "newGovernor",
          "type": "address"
        }
      ],
      "name": "PendingGovernorshipTransfer",
      "type": "event"
    },
    {
      "anonymous": false,
      "inputs": [
        {
          "indexed": false,
          "internalType": "address[]",
          "name": "_oldAddresses",
          "type": "address[]"
        },
        {
          "indexed": false,
          "internalType": "address[]",
          "name": "_newAddresses",
          "type": "address[]"
        }
      ],
      "name": "RewardTokenAddressesUpdated",
      "type": "event"
    },
    {
      "anonymous": false,
      "inputs": [
        {
          "indexed": false,
          "internalType": "address",
          "name": "recipient",
          "type": "address"
        },
        {
          "indexed": false,
          "internalType": "address",
          "name": "rewardToken",
          "type": "address"
        },
        {
          "indexed": false,
          "internalType": "uint256",
          "name": "amount",
          "type": "uint256"
        }
      ],
      "name": "RewardTokenCollected",
      "type": "event"
    },
    {
      "anonymous": false,
      "inputs": [
        {
          "indexed": true,
          "internalType": "address",
          "name": "_asset",
          "type": "address"
        },
        {
          "indexed": false,
          "internalType": "address",
          "name": "_pToken",
          "type": "address"
        },
        {
          "indexed": false,
          "internalType": "uint256",
          "name": "_amount",
          "type": "uint256"
        }
      ],
      "name": "Withdrawal",
      "type": "event"
    },
    {
      "inputs": [],
      "name": "_deprecated_rewardLiquidationThreshold",
      "outputs": [
        {
          "internalType": "uint256",
          "name": "",
          "type": "uint256"
        }
      ],
      "stateMutability": "view",
      "type": "function"
    },
    {
      "inputs": [],
      "name": "_deprecated_rewardTokenAddress",
      "outputs": [
        {
          "internalType": "address",
          "name": "",
          "type": "address"
        }
      ],
      "stateMutability": "view",
      "type": "function"
    },
    {
      "inputs": [
        {
          "internalType": "address",
          "name": "",
          "type": "address"
        }
      ],
      "name": "assetToPToken",
      "outputs": [
        {
          "internalType": "address",
          "name": "",
          "type": "address"
        }
      ],
      "stateMutability": "view",
      "type": "function"
    },
    {
      "inputs": [
        {
          "internalType": "address",
          "name": "_asset",
          "type": "address"
        }
      ],
      "name": "checkBalance",
      "outputs": [
        {
          "internalType": "uint256",
          "name": "balance",
          "type": "uint256"
        }
      ],
      "stateMutability": "view",
      "type": "function"
    },
    {
      "inputs": [],
      "name": "claimGovernance",
      "outputs": [],
      "stateMutability": "nonpayable",
      "type": "function"
    },
    {
      "inputs": [],
      "name": "collectRewardTokens",
      "outputs": [],
      "stateMutability": "nonpayable",
      "type": "function"
    },
    {
      "inputs": [],
      "name": "cvxRewardStaker",
      "outputs": [
        {
          "internalType": "contract IRewardStaking",
          "name": "",
          "type": "address"
        }
      ],
      "stateMutability": "view",
      "type": "function"
    },
    {
      "inputs": [
        {
          "internalType": "address",
          "name": "_weth",
          "type": "address"
        },
        {
          "internalType": "uint256",
          "name": "_amount",
          "type": "uint256"
        }
      ],
      "name": "deposit",
      "outputs": [],
      "stateMutability": "nonpayable",
      "type": "function"
    },
    {
      "inputs": [],
      "name": "depositAll",
      "outputs": [],
      "stateMutability": "nonpayable",
      "type": "function"
    },
    {
      "inputs": [],
      "name": "getRewardTokenAddresses",
      "outputs": [
        {
          "internalType": "address[]",
          "name": "",
          "type": "address[]"
        }
      ],
      "stateMutability": "view",
      "type": "function"
    },
    {
      "inputs": [],
      "name": "governor",
      "outputs": [
        {
          "internalType": "address",
          "name": "",
          "type": "address"
        }
      ],
      "stateMutability": "view",
      "type": "function"
    },
    {
      "inputs": [],
      "name": "harvesterAddress",
      "outputs": [
        {
          "internalType": "address",
          "name": "",
          "type": "address"
        }
      ],
      "stateMutability": "view",
      "type": "function"
    },
    {
      "inputs": [
        {
          "internalType": "address",
          "name": "_platformAddress",
          "type": "address"
        },
        {
          "internalType": "address",
          "name": "_vaultAddress",
          "type": "address"
        },
        {
          "internalType": "address[]",
          "name": "_rewardTokenAddresses",
          "type": "address[]"
        },
        {
          "internalType": "address[]",
          "name": "_assets",
          "type": "address[]"
        },
        {
          "internalType": "address[]",
          "name": "_pTokens",
          "type": "address[]"
        }
      ],
      "name": "initialize",
      "outputs": [],
      "stateMutability": "nonpayable",
      "type": "function"
    },
    {
      "inputs": [
        {
          "internalType": "address[]",
          "name": "_rewardTokenAddresses",
          "type": "address[]"
        },
        {
          "internalType": "address[]",
          "name": "_assets",
          "type": "address[]"
        },
        {
          "internalType": "address[]",
          "name": "_pTokens",
          "type": "address[]"
        },
        {
          "components": [
            {
              "internalType": "address",
              "name": "curvePoolAddress",
              "type": "address"
            },
            {
              "internalType": "address",
              "name": "vaultAddress",
              "type": "address"
            },
            {
              "internalType": "address",
              "name": "cvxDepositorAddress",
              "type": "address"
            },
            {
              "internalType": "address",
              "name": "oethAddress",
              "type": "address"
            },
            {
              "internalType": "address",
              "name": "wethAddress",
              "type": "address"
            },
            {
              "internalType": "address",
              "name": "cvxRewardStakerAddress",
              "type": "address"
            },
            {
              "internalType": "address",
              "name": "curvePoolLpToken",
              "type": "address"
            },
            {
              "internalType": "uint256",
              "name": "cvxDepositorPTokenId",
              "type": "uint256"
            }
          ],
          "internalType": "struct ConvexEthMetaStrategy.InitialiseConfig",
          "name": "initConfig",
          "type": "tuple"
        }
      ],
      "name": "initialize",
      "outputs": [],
      "stateMutability": "nonpayable",
      "type": "function"
    },
    {
      "inputs": [],
      "name": "isGovernor",
      "outputs": [
        {
          "internalType": "bool",
          "name": "",
          "type": "bool"
        }
      ],
      "stateMutability": "view",
      "type": "function"
    },
    {
      "inputs": [],
      "name": "platformAddress",
      "outputs": [
        {
          "internalType": "address",
          "name": "",
          "type": "address"
        }
      ],
      "stateMutability": "view",
      "type": "function"
    },
    {
      "inputs": [
        {
          "internalType": "uint256",
          "name": "_assetIndex",
          "type": "uint256"
        }
      ],
      "name": "removePToken",
      "outputs": [],
      "stateMutability": "nonpayable",
      "type": "function"
    },
    {
      "inputs": [
        {
          "internalType": "uint256",
          "name": "",
          "type": "uint256"
        }
      ],
      "name": "rewardTokenAddresses",
      "outputs": [
        {
          "internalType": "address",
          "name": "",
          "type": "address"
        }
      ],
      "stateMutability": "view",
      "type": "function"
    },
    {
      "inputs": [],
      "name": "safeApproveAllTokens",
      "outputs": [],
      "stateMutability": "nonpayable",
      "type": "function"
    },
    {
      "inputs": [
        {
          "internalType": "address",
          "name": "_harvesterAddress",
          "type": "address"
        }
      ],
      "name": "setHarvesterAddress",
      "outputs": [],
      "stateMutability": "nonpayable",
      "type": "function"
    },
    {
      "inputs": [
        {
          "internalType": "address",
          "name": "_asset",
          "type": "address"
        },
        {
          "internalType": "address",
          "name": "_pToken",
          "type": "address"
        }
      ],
      "name": "setPTokenAddress",
      "outputs": [],
      "stateMutability": "nonpayable",
      "type": "function"
    },
    {
      "inputs": [
        {
          "internalType": "address[]",
          "name": "_rewardTokenAddresses",
          "type": "address[]"
        }
      ],
      "name": "setRewardTokenAddresses",
      "outputs": [],
      "stateMutability": "nonpayable",
      "type": "function"
    },
    {
      "inputs": [
        {
          "internalType": "address",
          "name": "_asset",
          "type": "address"
        }
      ],
      "name": "supportsAsset",
      "outputs": [
        {
          "internalType": "bool",
          "name": "",
          "type": "bool"
        }
      ],
      "stateMutability": "view",
      "type": "function"
    },
    {
      "inputs": [
        {
          "internalType": "address",
          "name": "_newGovernor",
          "type": "address"
        }
      ],
      "name": "transferGovernance",
      "outputs": [],
      "stateMutability": "nonpayable",
      "type": "function"
    },
    {
      "inputs": [
        {
          "internalType": "address",
          "name": "_asset",
          "type": "address"
        },
        {
          "internalType": "uint256",
          "name": "_amount",
          "type": "uint256"
        }
      ],
      "name": "transferToken",
      "outputs": [],
      "stateMutability": "nonpayable",
      "type": "function"
    },
    {
      "inputs": [],
      "name": "vaultAddress",
      "outputs": [
        {
          "internalType": "address",
          "name": "",
          "type": "address"
        }
      ],
      "stateMutability": "view",
      "type": "function"
    },
    {
      "inputs": [
        {
          "internalType": "address",
          "name": "_recipient",
          "type": "address"
        },
        {
          "internalType": "address",
          "name": "_weth",
          "type": "address"
        },
        {
          "internalType": "uint256",
          "name": "_amount",
          "type": "uint256"
        }
      ],
      "name": "withdraw",
      "outputs": [],
      "stateMutability": "nonpayable",
      "type": "function"
    },
    {
      "inputs": [],
      "name": "withdrawAll",
      "outputs": [],
      "stateMutability": "nonpayable",
      "type": "function"
    },
    {
      "stateMutability": "payable",
      "type": "receive"
    }
  ],
  "transactionHash": "0x32879eeba2e11c4d48ee673bf564215dd5012a2339f55f0ed7bade5ec6c9c1a1",
  "args": [],
  "solcInputHash": "3180b890bce877902c7cf982bc7b2dda",
  "bytecode": "0x60806040523480156200001157600080fd5b506200002a336000805160206200385083398151915255565b60008051602062003850833981519152546040516001600160a01b03909116906000907fc7c0c772add429241571afb3805861fb3cfa2af374534088b76cdb4325a87e9a908290a36137ce80620000826000396000f3fe6080604052600436106101bb5760003560e01c80639136616a116100ec578063d38bfff41161008a578063de5f626811610064578063de5f6268146104e7578063f6ca71b0146104fc578063f817bc631461051e578063fa05f8181461053457600080fd5b8063d38bfff414610487578063d9caed12146104a7578063dbe55e56146104c757600080fd5b8063aa388af6116100c6578063aa388af6146103fe578063ad1728cb1461043d578063c2e1e3f414610452578063c7af33521461047257600080fd5b80639136616a1461039e5780639688d2fc146103be57806396d538bb146103de57600080fd5b806347e7ef24116101595780635f515226116101335780635f5152261461031b57806367c7066c146103495780637b2d9b2c14610369578063853828b61461038957600080fd5b806347e7ef24146102d15780635a063f63146102f15780635d36b1901461030657600080fd5b80630fc3b4c4116101955780630fc3b4c41461023b5780631072cbea146102715780632e65520114610291578063430bf08a146102b157600080fd5b8063046832b4146101c75780630c340a24146102045780630ed57b3a1461021957600080fd5b366101c257005b600080fd5b3480156101d357600080fd5b50609e546101e7906001600160a01b031681565b6040516001600160a01b0390911681526020015b60405180910390f35b34801561021057600080fd5b506101e7610554565b34801561022557600080fd5b50610239610234366004613009565b610571565b005b34801561024757600080fd5b506101e7610256366004612fcf565b6035602052600090815260409020546001600160a01b031681565b34801561027d57600080fd5b5061023961028c366004613142565b6105ac565b34801561029d57600080fd5b506037546101e7906001600160a01b031681565b3480156102bd57600080fd5b506034546101e7906001600160a01b031681565b3480156102dd57600080fd5b506102396102ec366004613142565b6105ec565b3480156102fd57600080fd5b5061023961065f565b34801561031257600080fd5b50610239610766565b34801561032757600080fd5b5061033b610336366004612fcf565b61080c565b6040519081526020016101fb565b34801561035557600080fd5b506039546101e7906001600160a01b031681565b34801561037557600080fd5b506101e7610384366004613312565b61099e565b34801561039557600080fd5b506102396109c8565b3480156103aa57600080fd5b506102396103b9366004613312565b610ebc565b3480156103ca57600080fd5b506102396103d9366004613042565b611087565b3480156103ea57600080fd5b506102396103f936600461316e565b611190565b34801561040a57600080fd5b5061042d610419366004612fcf565b60a3546001600160a01b0391821691161490565b60405190151581526020016101fb565b34801561044957600080fd5b506102396112b6565b34801561045e57600080fd5b5061023961046d366004612fcf565b61133a565b34801561047e57600080fd5b5061042d6113b9565b34801561049357600080fd5b506102396104a2366004612fcf565b6113ea565b3480156104b357600080fd5b506102396104c2366004613101565b61148e565b3480156104d357600080fd5b506033546101e7906001600160a01b031681565b3480156104f357600080fd5b506102396118c8565b34801561050857600080fd5b506105116119ca565b6040516101fb9190613389565b34801561052a57600080fd5b5061033b60385481565b34801561054057600080fd5b5061023961054f3660046131b0565b611a2c565b600061056c6000805160206137798339815191525490565b905090565b6105796113b9565b61059e5760405162461bcd60e51b8152600401610595906134f3565b60405180910390fd5b6105a88282611d45565b5050565b6105b46113b9565b6105d05760405162461bcd60e51b8152600401610595906134f3565b6105a86105db610554565b6001600160a01b0384169083611eaa565b6034546001600160a01b031633146106165760405162461bcd60e51b8152600401610595906134bc565b600080516020613759833981519152805460028114156106485760405162461bcd60e51b815260040161059590613578565b600282556106568484611f0d565b50600190555050565b6039546001600160a01b031633146106b95760405162461bcd60e51b815260206004820152601b60248201527f43616c6c6572206973206e6f74207468652048617276657374657200000000006044820152606401610595565b600080516020613759833981519152805460028114156106eb5760405162461bcd60e51b815260040161059590613578565b60028255609e60009054906101000a90046001600160a01b03166001600160a01b0316633d18b9126040518163ffffffff1660e01b8152600401600060405180830381600087803b15801561073f57600080fd5b505af1158015610753573d6000803e3d6000fd5b5050505061075f6124aa565b5060019055565b7f44c4d30b2eaad5130ad70c3ba6972730566f3e6359ab83e800d905c61b1c51db546001600160a01b0316336001600160a01b0316146108015760405162461bcd60e51b815260206004820152603060248201527f4f6e6c79207468652070656e64696e6720476f7665726e6f722063616e20636f60448201526f6d706c6574652074686520636c61696d60801b6064820152608401610595565b61080a33612605565b565b60a3546000906001600160a01b038381169116146108605760405162461bcd60e51b8152602060048201526011602482015270155b9cdd5c1c1bdc9d195908185cdcd95d607a1b6044820152606401610595565b61086a47826135f5565b609e546040516370a0823160e01b81523060048201529192506000916001600160a01b03909116906370a082319060240160206040518083038186803b1580156108b357600080fd5b505afa1580156108c7573d6000803e3d6000fd5b505050506040513d601f19601f820116820180604052508101906108eb919061332b565b905080156109985760a05460408051630176f71760e71b81529051670de0b6b3a7640000926001600160a01b03169163bb7b8b80916004808301926020929190829003018186803b15801561093f57600080fd5b505afa158015610953573d6000803e3d6000fd5b505050506040513d601f19601f82011682018060405250810190610977919061332b565b610981908361362f565b61098b919061360d565b61099590836135f5565b91505b50919050565b603a81815481106109ae57600080fd5b6000918252602090912001546001600160a01b0316905081565b6034546001600160a01b03163314806109f957506109e4610554565b6001600160a01b0316336001600160a01b0316145b610a515760405162461bcd60e51b815260206004820152602360248201527f43616c6c6572206973206e6f7420746865205661756c74206f7220476f7665726044820152623737b960e91b6064820152608401610595565b60008051602061375983398151915280546002811415610a835760405162461bcd60e51b815260040161059590613578565b60028255609e546040516370a0823160e01b81523060048201526000916001600160a01b0316906370a082319060240160206040518083038186803b158015610acb57600080fd5b505afa158015610adf573d6000803e3d6000fd5b505050506040513d601f19601f82011682018060405250810190610b03919061332b565b9050610b0e816126c6565b6040805180820182526000808252602082015260a05460a15492516370a0823160e01b815230600482015291926001600160a01b0391821692635b36389c92909116906370a082319060240160206040518083038186803b158015610b7257600080fd5b505afa158015610b86573d6000803e3d6000fd5b505050506040513d601f19601f82011682018060405250810190610baa919061332b565b836040518363ffffffff1660e01b8152600401610bc89291906135a0565b6040805180830381600087803b158015610be157600080fd5b505af1158015610bf5573d6000803e3d6000fd5b505050506040513d601f19601f82011682018060405250810190610c199190613268565b5060a2546040516370a0823160e01b81523060048201526000916001600160a01b0316906370a082319060240160206040518083038186803b158015610c5e57600080fd5b505afa158015610c72573d6000803e3d6000fd5b505050506040513d601f19601f82011682018060405250810190610c96919061332b565b60345460405163310bf9f560e11b8152600481018390529192506001600160a01b031690636217f3ea90602401600060405180830381600087803b158015610cdd57600080fd5b505af1158015610cf1573d6000803e3d6000fd5b5050505060a360009054906101000a90046001600160a01b03166001600160a01b031663d0e30db0476040518263ffffffff1660e01b81526004016000604051808303818588803b158015610d4557600080fd5b505af1158015610d59573d6000803e3d6000fd5b505060a3546034546040516370a0823160e01b81523060048201526001600160a01b03928316955063a9059cbb94509116915083906370a082319060240160206040518083038186803b158015610daf57600080fd5b505afa158015610dc3573d6000803e3d6000fd5b505050506040513d601f19601f82011682018060405250810190610de7919061332b565b6040516001600160e01b031960e085901b1681526001600160a01b0390921660048301526024820152604401602060405180830381600087803b158015610e2d57600080fd5b505af1158015610e41573d6000803e3d6000fd5b505050506040513d601f19601f82011682018060405250810190610e6591906132f0565b610eb15760405162461bcd60e51b815260206004820152601f60248201527f5472616e73666572206f662057455448206e6f74207375636365737366756c006044820152606401610595565b505050600182555050565b610ec46113b9565b610ee05760405162461bcd60e51b8152600401610595906134f3565b6036548110610f215760405162461bcd60e51b815260206004820152600d60248201526c092dcecc2d8d2c840d2dcc8caf609b1b6044820152606401610595565b600060368281548110610f3657610f36613717565b60009182526020808320909101546001600160a01b03908116808452603590925260409092205460365491935090911690610f739060019061368d565b831015610ff55760368054610f8a9060019061368d565b81548110610f9a57610f9a613717565b600091825260209091200154603680546001600160a01b039092169185908110610fc657610fc6613717565b9060005260206000200160006101000a8154816001600160a01b0302191690836001600160a01b031602179055505b603680548061100657611006613701565b60008281526020808220600019908401810180546001600160a01b031990811690915593019093556001600160a01b038581168083526035855260409283902080549094169093559051908416815290917f16b7600acff27e39a8a96056b3d533045298de927507f5c1d97e4accde60488c910160405180910390a2505050565b61108f6113b9565b6110ab5760405162461bcd60e51b8152600401610595906134f3565b600054610100900460ff16806110c4575060005460ff16155b6110e05760405162461bcd60e51b81526004016105959061352a565b600054610100900460ff16158015611102576000805461ffff19166101011790555b6111738989898989898080602002602001604051908101604052809392919081815260200183836020028082843760009201919091525050604080516020808d0282810182019093528c82529093508c92508b91829185019084908082843760009201919091525061272e92505050565b8015611185576000805461ff00191690555b505050505050505050565b6111986113b9565b6111b45760405162461bcd60e51b8152600401610595906134f3565b60005b818110156112685760008383838181106111d3576111d3613717565b90506020020160208101906111e89190612fcf565b6001600160a01b031614156112565760405162461bcd60e51b815260206004820152602e60248201527f43616e206e6f742073657420616e20656d70747920616464726573732061732060448201526d30903932bbb0b932103a37b5b2b760911b6064820152608401610595565b80611260816136d0565b9150506111b7565b507f04c0b9649497d316554306e53678d5f5f5dbc3a06f97dec13ff4cfe98b986bbc603a838360405161129d939291906133d6565b60405180910390a16112b1603a8383612eed565b505050565b6112be6113b9565b6112da5760405162461bcd60e51b8152600401610595906134f3565b6000805160206137598339815191528054600281141561130c5760405162461bcd60e51b815260040161059590613578565b6002825560a354611325906001600160a01b031661280d565b60a25461075f906001600160a01b031661280d565b6113426113b9565b61135e5760405162461bcd60e51b8152600401610595906134f3565b603980546001600160a01b0319166001600160a01b0383169081179091556040805182815260208101929092527fe48386b84419f4d36e0f96c10cc3510b6fb1a33795620c5098b22472bbe90796910160405180910390a150565b60006113d16000805160206137798339815191525490565b6001600160a01b0316336001600160a01b031614905090565b6113f26113b9565b61140e5760405162461bcd60e51b8152600401610595906134f3565b611436817f44c4d30b2eaad5130ad70c3ba6972730566f3e6359ab83e800d905c61b1c51db55565b806001600160a01b03166114566000805160206137798339815191525490565b6001600160a01b03167fa39cc5eb22d0f34d8beaefee8a3f17cc229c1a1d1ef87a5ad47313487b1c4f0d60405160405180910390a350565b6034546001600160a01b031633146114b85760405162461bcd60e51b8152600401610595906134bc565b600080516020613759833981519152805460028114156114ea5760405162461bcd60e51b815260040161059590613578565b600282556000831161152f5760405162461bcd60e51b815260206004820152600e60248201526d125b9d985b1a5908185b5bdd5b9d60921b6044820152606401610595565b60a3546001600160a01b038581169116146115855760405162461bcd60e51b8152602060048201526016602482015275086c2dc40dedcd8f240eed2e8d0c8e4c2ee40ae8aa8960531b6044820152606401610595565b60a154604080516001600160a01b03928316815260208101869052918616917f2717ead6b9200dd235aad468c9809ea400fe33ac69b5bfaa6d3e90fc922b6398910160405180910390a260006115da84612829565b90506115e5816126c6565b604080518082019091526000808252602082015260a45485908290600160801b90046001600160801b03166002811061162057611620613717565b602002015260a0546040516316cd8e2760e21b81526001600160a01b0390911690635b36389c9061165790859085906004016135a0565b6040805180830381600087803b15801561167057600080fd5b505af1158015611684573d6000803e3d6000fd5b505050506040513d601f19601f820116820180604052508101906116a89190613268565b5060345460a2546040516370a0823160e01b81523060048201526001600160a01b0392831692636217f3ea9216906370a082319060240160206040518083038186803b1580156116f757600080fd5b505afa15801561170b573d6000803e3d6000fd5b505050506040513d601f19601f8201168201806040525081019061172f919061332b565b6040518263ffffffff1660e01b815260040161174d91815260200190565b600060405180830381600087803b15801561176757600080fd5b505af115801561177b573d6000803e3d6000fd5b5050505060a360009054906101000a90046001600160a01b03166001600160a01b031663d0e30db0866040518263ffffffff1660e01b81526004016000604051808303818588803b1580156117cf57600080fd5b505af11580156117e3573d6000803e3d6000fd5b505060a35460405163a9059cbb60e01b81526001600160a01b038c81166004830152602482018b9052909116935063a9059cbb92506044019050602060405180830381600087803b15801561183757600080fd5b505af115801561184b573d6000803e3d6000fd5b505050506040513d601f19601f8201168201806040525081019061186f91906132f0565b6118bb5760405162461bcd60e51b815260206004820152601f60248201527f5472616e73666572206f662057455448206e6f74207375636365737366756c006044820152606401610595565b5050600182555050505050565b6034546001600160a01b031633146118f25760405162461bcd60e51b8152600401610595906134bc565b600080516020613759833981519152805460028114156119245760405162461bcd60e51b815260040161059590613578565b6002825560a3546040516370a0823160e01b81523060048201526000916001600160a01b0316906370a082319060240160206040518083038186803b15801561196c57600080fd5b505afa158015611980573d6000803e3d6000fd5b505050506040513d601f19601f820116820180604052508101906119a4919061332b565b905080156119c25760a3546119c2906001600160a01b031682611f0d565b505060019055565b6060603a805480602002602001604051908101604052809291908181526020018280548015611a2257602002820191906000526020600020905b81546001600160a01b03168152600190910190602001808311611a04575b5050505050905090565b611a346113b9565b611a505760405162461bcd60e51b8152600401610595906134f3565b600054610100900460ff1680611a69575060005460ff16155b611a855760405162461bcd60e51b81526004016105959061352a565b600054610100900460ff16158015611aa7576000805461ffff19166101011790555b60018514611af75760405162461bcd60e51b815260206004820152601b60248201527f4d75737420686176652065786163746c79206f6e6520617373657400000000006044820152606401610595565b611b076060830160408401612fcf565b609d80546001600160a01b0319166001600160a01b0392909216919091179055611b3760c0830160a08401612fcf565b609e80546001600160a01b0319166001600160a01b039290921691909117905560e082018035609f55611b6d9060c08401612fcf565b60a180546001600160a01b0319166001600160a01b0392909216919091179055611b9a6020830183612fcf565b60a080546001600160a01b0319166001600160a01b0392909216919091179055611bca6080830160608401612fcf565b60a280546001600160a01b0319166001600160a01b0392909216919091179055611bfa60a0830160808401612fcf565b60a380546001600160a01b0319166001600160a01b0392909216919091179055611c3773eeeeeeeeeeeeeeeeeeeeeeeeeeeeeeeeeeeeeeee6129a8565b60a480546001600160801b03928316600160801b029216919091179055611c6c611c676080840160608501612fcf565b6129a8565b60a480546fffffffffffffffffffffffffffffffff19166001600160801b0392909216919091179055611d21611ca56020840184612fcf565b611cb56040850160208601612fcf565b8a8a8a8a8080602002602001604051908101604052809392919081815260200183836020028082843760009201919091525050604080516020808e0282810182019093528d82529093508d92508c91829185019084908082843760009201919091525061272e92505050565b611d29612aa3565b8015611d3b576000805461ff00191690555b5050505050505050565b6001600160a01b038281166000908152603560205260409020541615611da25760405162461bcd60e51b81526020600482015260126024820152711c151bdad95b88185b1c9958591e481cd95d60721b6044820152606401610595565b6001600160a01b03821615801590611dc257506001600160a01b03811615155b611e025760405162461bcd60e51b8152602060048201526011602482015270496e76616c69642061646472657373657360781b6044820152606401610595565b6001600160a01b03828116600081815260356020908152604080832080549587166001600160a01b031996871681179091556036805460018101825594527f4a11f94e20a93c79f6ec743a1954ec4fc2c08429ae2122118bf234b2185c81b890930180549095168417909455925190815290917fef6485b84315f9b1483beffa32aae9a0596890395e3d7521f1c5fbb51790e765910160405180910390a26105a88282612ad7565b6040516001600160a01b0383166024820152604481018290526112b190849063a9059cbb60e01b906064015b60408051601f198184030181529190526020810180516001600160e01b03166001600160e01b031990931692909217909152612ae0565b60008111611f565760405162461bcd60e51b81526020600482015260166024820152754d757374206465706f73697420736f6d657468696e6760501b6044820152606401610595565b60a3546001600160a01b03838116911614611fab5760405162461bcd60e51b8152602060048201526015602482015274086c2dc40dedcd8f240c8cae0dee6d2e840ae8aa89605b1b6044820152606401610595565b60a354604051632e1a7d4d60e01b8152600481018390526001600160a01b0390911690632e1a7d4d90602401600060405180830381600087803b158015611ff157600080fd5b505af1158015612005573d6000803e3d6000fd5b505060a154604080516001600160a01b0392831681526020810186905291861693507f5548c837ab068cf56a2c2479df0882a4922fd203edb7517321831d95078c5f6292500160405180910390a260a05460a454604051634903b0d160e01b81526001600160801b0390911660048201526000916121899183916001600160a01b031690634903b0d19060240160206040518083038186803b1580156120aa57600080fd5b505afa1580156120be573d6000803e3d6000fd5b505050506040513d601f19601f820116820180604052508101906120e2919061332b565b60a05460a454604051634903b0d160e01b8152600160801b9091046001600160801b0316600482015286916001600160a01b031690634903b0d19060240160206040518083038186803b15801561213857600080fd5b505afa15801561214c573d6000803e3d6000fd5b505050506040513d601f19601f82011682018060405250810190612170919061332b565b61217a91906135b4565b612184919061364e565b612bb2565b90506121958183612bcb565b90506121ab816121a684600261362f565b612bdb565b60345460405163ab80dafb60e01b8152600481018390529192506001600160a01b03169063ab80dafb90602401600060405180830381600087803b1580156121f257600080fd5b505af1158015612206573d6000803e3d6000fd5b50505050612212612f50565b60a45483908290600160801b90046001600160801b03166002811061223957612239613717565b602002015260a454829082906001600160801b03166002811061225e5761225e613717565b602002018181525050600061230260a060009054906101000a90046001600160a01b03166001600160a01b031663bb7b8b806040518163ffffffff1660e01b815260040160206040518083038186803b1580156122ba57600080fd5b505afa1580156122ce573d6000803e3d6000fd5b505050506040513d601f19601f820116820180604052508101906122f2919061332b565b6122fc85876135f5565b90612bea565b90506000612329612322662386f26fc10000670de0b6b3a764000061368d565b8390612c13565b60a054604051630b4c7e4d60e01b81529192506000916001600160a01b0390911690630b4c7e4d908890612363908890879060040161346e565b6020604051808303818588803b15801561237c57600080fd5b505af1158015612390573d6000803e3d6000fd5b50505050506040513d601f19601f820116820180604052508101906123b5919061332b565b609d54609f546040516321d0683360e11b8152600481019190915260248101839052600160448201529192506001600160a01b0316906343a0d06690606401602060405180830381600087803b15801561240e57600080fd5b505af1158015612422573d6000803e3d6000fd5b505050506040513d601f19601f8201168201806040525081019061244691906132f0565b6124a15760405162461bcd60e51b815260206004820152602660248201527f4465706f736974696e67204c5020746f20436f6e766578206e6f742073756363604482015265195cdcd99d5b60d21b6064820152608401610595565b50505050505050565b60005b603a54811015612602576000603a82815481106124cc576124cc613717565b60009182526020822001546040516370a0823160e01b81523060048201526001600160a01b03909116925082906370a082319060240160206040518083038186803b15801561251a57600080fd5b505afa15801561252e573d6000803e3d6000fd5b505050506040513d601f19601f82011682018060405250810190612552919061332b565b603954603a80549293507ff6c07a063ed4e63808eb8da7112d46dbcd38de2b40a73dbcc9353c5a94c72353926001600160a01b03909216918690811061259a5761259a613717565b60009182526020918290200154604080516001600160a01b0394851681529390911691830191909152810183905260600160405180910390a16039546125ed906001600160a01b03848116911683611eaa565b505080806125fa906136d0565b9150506124ad565b50565b6001600160a01b03811661265b5760405162461bcd60e51b815260206004820152601a60248201527f4e657720476f7665726e6f7220697320616464726573732830290000000000006044820152606401610595565b806001600160a01b031661267b6000805160206137798339815191525490565b6001600160a01b03167fc7c0c772add429241571afb3805861fb3cfa2af374534088b76cdb4325a87e9a60405160405180910390a36126028160008051602061377983398151915255565b609e54604051636197390160e11b815260048101839052600160248201526001600160a01b039091169063c32e720290604401600060405180830381600087803b15801561271357600080fd5b505af1158015612727573d6000803e3d6000fd5b5050505050565b603380546001600160a01b038089166001600160a01b031992831617909255603480549288169290911691909117905561276a603a8585612eed565b508151815181146127b45760405162461bcd60e51b8152602060048201526014602482015273496e76616c696420696e7075742061727261797360601b6044820152606401610595565b60005b81811015611d3b576127fb8482815181106127d4576127d4613717565b60200260200101518483815181106127ee576127ee613717565b6020026020010151611d45565b80612805816136d0565b9150506127b7565b603354612602906001600160a01b038381169116600019612c28565b60a05460a454604051634903b0d160e01b8152600160801b9091046001600160801b0316600482015260009182916001600160a01b0390911690634903b0d19060240160206040518083038186803b15801561288457600080fd5b505afa158015612898573d6000803e3d6000fd5b505050506040513d601f19601f820116820180604052508101906128bc919061332b565b905060008160a160009054906101000a90046001600160a01b03166001600160a01b03166318160ddd6040518163ffffffff1660e01b815260040160206040518083038186803b15801561290f57600080fd5b505afa158015612923573d6000803e3d6000fd5b505050506040513d601f19601f82011682018060405250810190612947919061332b565b612960906ec097ce7bc90715b34b9f100000000061362f565b61296a919061360d565b905060008161297a8660016135f5565b612984919061362f565b905061299f6ec097ce7bc90715b34b9f10000000008261360d565b95945050505050565b6000805b6002811015612a5a5760a05460405163c661065760e01b8152600481018390526001600160a01b0385811692169063c66106579060240160206040518083038186803b1580156129fb57600080fd5b505afa158015612a0f573d6000803e3d6000fd5b505050506040513d601f19601f82011682018060405250810190612a339190612fec565b6001600160a01b03161415612a485792915050565b80612a52816136d0565b9150506129ac565b5060405162461bcd60e51b815260206004820152601860248201527f496e76616c696420637572766520706f6f6c20617373657400000000000000006044820152606401610595565b60a254612ab8906001600160a01b031661280d565b609d5460a15461080a916001600160a01b039182169116600019612c28565b6105a88261280d565b6000612b35826040518060400160405280602081526020017f5361666545524332303a206c6f772d6c6576656c2063616c6c206661696c6564815250856001600160a01b0316612d4c9092919063ffffffff16565b8051909150156112b15780806020019051810190612b5391906132f0565b6112b15760405162461bcd60e51b815260206004820152602a60248201527f5361666545524332303a204552433230206f7065726174696f6e20646964206e6044820152691bdd081cdd58d8d9595960b21b6064820152608401610595565b600081831215612bc25781612bc4565b825b9392505050565b600081831015612bc25781612bc4565b6000818310612bc25781612bc4565b600080612bff84670de0b6b3a7640000612d5b565b9050612c0b8184612d67565b949350505050565b6000612bc48383670de0b6b3a7640000612d73565b801580612cb15750604051636eb1769f60e11b81523060048201526001600160a01b03838116602483015284169063dd62ed3e9060440160206040518083038186803b158015612c7757600080fd5b505afa158015612c8b573d6000803e3d6000fd5b505050506040513d601f19601f82011682018060405250810190612caf919061332b565b155b612d1c5760405162461bcd60e51b815260206004820152603660248201527f5361666545524332303a20617070726f76652066726f6d206e6f6e2d7a65726f60448201527520746f206e6f6e2d7a65726f20616c6c6f77616e636560501b6064820152608401610595565b6040516001600160a01b0383166024820152604481018290526112b190849063095ea7b360e01b90606401611ed6565b6060612c0b8484600085612d8c565b6000612bc4828461362f565b6000612bc4828461360d565b600080612d808585612d5b565b905061299f8184612d67565b606082471015612ded5760405162461bcd60e51b815260206004820152602660248201527f416464726573733a20696e73756666696369656e742062616c616e636520666f6044820152651c8818d85b1b60d21b6064820152608401610595565b843b612e3b5760405162461bcd60e51b815260206004820152601d60248201527f416464726573733a2063616c6c20746f206e6f6e2d636f6e74726163740000006044820152606401610595565b600080866001600160a01b03168587604051612e57919061336d565b60006040518083038185875af1925050503d8060008114612e94576040519150601f19603f3d011682016040523d82523d6000602084013e612e99565b606091505b5091509150612ea9828286612eb4565b979650505050505050565b60608315612ec3575081612bc4565b825115612ed35782518084602001fd5b8160405162461bcd60e51b81526004016105959190613489565b828054828255906000526020600020908101928215612f40579160200282015b82811115612f405781546001600160a01b0319166001600160a01b03843516178255602090920191600190910190612f0d565b50612f4c929150612f6e565b5090565b60405180604001604052806002906020820280368337509192915050565b5b80821115612f4c5760008155600101612f6f565b60008083601f840112612f9557600080fd5b50813567ffffffffffffffff811115612fad57600080fd5b6020830191508360208260051b8501011115612fc857600080fd5b9250929050565b600060208284031215612fe157600080fd5b8135612bc481613743565b600060208284031215612ffe57600080fd5b8151612bc481613743565b6000806040838503121561301c57600080fd5b823561302781613743565b9150602083013561303781613743565b809150509250929050565b60008060008060008060008060a0898b03121561305e57600080fd5b883561306981613743565b9750602089013561307981613743565b9650604089013567ffffffffffffffff8082111561309657600080fd5b6130a28c838d01612f83565b909850965060608b01359150808211156130bb57600080fd5b6130c78c838d01612f83565b909650945060808b01359150808211156130e057600080fd5b506130ed8b828c01612f83565b999c989b5096995094979396929594505050565b60008060006060848603121561311657600080fd5b833561312181613743565b9250602084013561313181613743565b929592945050506040919091013590565b6000806040838503121561315557600080fd5b823561316081613743565b946020939093013593505050565b6000806020838503121561318157600080fd5b823567ffffffffffffffff81111561319857600080fd5b6131a485828601612f83565b90969095509350505050565b60008060008060008060008789036101608112156131cd57600080fd5b883567ffffffffffffffff808211156131e557600080fd5b6131f18c838d01612f83565b909a50985060208b013591508082111561320a57600080fd5b6132168c838d01612f83565b909850965060408b013591508082111561322f57600080fd5b5061323c8b828c01612f83565b909550935050610100605f198201121561325557600080fd5b5060608801905092959891949750929550565b60006040828403121561327a57600080fd5b82601f83011261328957600080fd5b6040516040810181811067ffffffffffffffff821117156132ac576132ac61372d565b80604052508083856040860111156132c357600080fd5b60005b60028110156132e55781518352602092830192909101906001016132c6565b509195945050505050565b60006020828403121561330257600080fd5b81518015158114612bc457600080fd5b60006020828403121561332457600080fd5b5035919050565b60006020828403121561333d57600080fd5b5051919050565b8060005b6002811015613367578151845260209384019390910190600101613348565b50505050565b6000825161337f8184602087016136a4565b9190910192915050565b6020808252825182820181905260009190848201906040850190845b818110156133ca5783516001600160a01b0316835292840192918401916001016133a5565b50909695505050505050565b6000604082016040835280865480835260608501915087600052602092508260002060005b828110156134205781546001600160a01b0316845292840192600191820191016133fb565b505050838103828501528481528590820160005b8681101561346257823561344781613743565b6001600160a01b031682529183019190830190600101613434565b50979650505050505050565b6060810161347c8285613344565b8260408301529392505050565b60208152600082518060208401526134a88160408501602087016136a4565b601f01601f19169190910160400192915050565b60208082526017908201527f43616c6c6572206973206e6f7420746865205661756c74000000000000000000604082015260600190565b6020808252601a908201527f43616c6c6572206973206e6f742074686520476f7665726e6f72000000000000604082015260600190565b6020808252602e908201527f496e697469616c697a61626c653a20636f6e747261637420697320616c72656160408201526d191e481a5b9a5d1a585b1a5e995960921b606082015260800190565b6020808252600e908201526d1499595b9d1c985b9d0818d85b1b60921b604082015260600190565b82815260608101612bc46020830184613344565b600080821280156001600160ff1b03849003851316156135d6576135d66136eb565b600160ff1b83900384128116156135ef576135ef6136eb565b50500190565b60008219821115613608576136086136eb565b500190565b60008261362a57634e487b7160e01b600052601260045260246000fd5b500490565b6000816000190483118215151615613649576136496136eb565b500290565b60008083128015600160ff1b85018412161561366c5761366c6136eb565b6001600160ff1b0384018313811615613687576136876136eb565b50500390565b60008282101561369f5761369f6136eb565b500390565b60005b838110156136bf5781810151838201526020016136a7565b838111156133675750506000910152565b60006000198214156136e4576136e46136eb565b5060010190565b634e487b7160e01b600052601160045260246000fd5b634e487b7160e01b600052603160045260246000fd5b634e487b7160e01b600052603260045260246000fd5b634e487b7160e01b600052604160045260246000fd5b6001600160a01b038116811461260257600080fdfe53bf423e48ed90e97d02ab0ebab13b2a235a6bfbe9c321847d5c175333ac45357bea13895fa79d2831e0a9e28edede30099005a50d652d8957cf8a607ee6ca4aa26469706673582212202ad24fc65e876b45c47a6b6360ff4b7c4e0a806155d521580aa4dbd2b4d50fb764736f6c634300080700337bea13895fa79d2831e0a9e28edede30099005a50d652d8957cf8a607ee6ca4a",
  "devdoc": {
    "kind": "dev",
    "methods": {
      "checkBalance(address)": {
        "details": "Get the total asset value held in the platform",
        "params": {
          "_asset": "Address of the asset"
        },
        "returns": {
          "balance": "   Total value of the asset in the platform"
        }
      },
      "claimGovernance()": {
        "details": "Claim Governance of the contract to a new account (`newGovernor`). Can only be called by the new Governor."
      },
      "collectRewardTokens()": {
        "details": "Collect accumulated CRV and CVX and send to Harvester."
      },
      "deposit(address,uint256)": {
        "details": "Deposit asset into the Curve ETH pool",
        "params": {
          "_amount": "Amount of asset to deposit",
          "_weth": "Address of WETH"
        }
      },
      "depositAll()": {
        "details": "Deposit the entire balance of any supported asset into the Curve 3pool"
      },
      "getRewardTokenAddresses()": {
        "details": "Get the reward token addresses.",
        "returns": {
          "_0": "address[] the reward token addresses."
        }
      },
      "governor()": {
        "details": "Returns the address of the current Governor."
      },
      "initialize(address,address,address[],address[],address[])": {
        "details": "Internal initialize function, to set up initial internal state",
        "params": {
          "_assets": "Addresses of initial supported assets",
          "_pTokens": "Platform Token corresponding addresses",
          "_platformAddress": "Generic platform address",
          "_rewardTokenAddresses": "Address of reward token for platform",
          "_vaultAddress": "Address of the Vault"
        }
      },
      "initialize(address[],address[],address[],(address,address,address,address,address,address,address,uint256))": {
        "params": {
          "_assets": "Addresses of supported assets. MUST be passed in the same                order as returned by coins on the pool contract, i.e.                WETH",
          "_rewardTokenAddresses": "Address of CRV & CVX",
          "initConfig": "Various addresses and info for initialization state"
        }
      },
      "isGovernor()": {
        "details": "Returns true if the caller is the current Governor."
      },
      "removePToken(uint256)": {
        "details": "Remove a supported asset by passing its index.      This method can only be called by the system Governor",
        "params": {
          "_assetIndex": "Index of the asset to be removed"
        }
      },
      "safeApproveAllTokens()": {
        "details": "Approve the spending of all assets by their corresponding pool tokens,      if for some reason is it necessary."
      },
      "setHarvesterAddress(address)": {
        "details": "Set the reward token addresses.",
        "params": {
          "_harvesterAddress": "Address of the harvester"
        }
      },
      "setPTokenAddress(address,address)": {
        "details": "Provide support for asset by passing its pToken address.      This method can only be called by the system Governor",
        "params": {
          "_asset": "Address for the asset",
          "_pToken": "Address for the corresponding platform token"
        }
      },
      "setRewardTokenAddresses(address[])": {
        "details": "Set the reward token addresses.",
        "params": {
          "_rewardTokenAddresses": "Address array of the reward token"
        }
      },
      "supportsAsset(address)": {
        "details": "Retuns bool indicating whether asset is supported by strategy",
        "params": {
          "_asset": "Address of the asset"
        }
      },
      "transferGovernance(address)": {
        "details": "Transfers Governance of the contract to a new account (`newGovernor`). Can only be called by the current Governor. Must be claimed for this to complete",
        "params": {
          "_newGovernor": "Address of the new Governor"
        }
      },
      "transferToken(address,uint256)": {
        "details": "Transfer token to governor. Intended for recovering tokens stuck in      strategy contracts, i.e. mistaken sends.",
        "params": {
          "_amount": "Amount of the asset to transfer",
          "_asset": "Address for the asset"
        }
      },
      "withdraw(address,address,uint256)": {
        "details": "Withdraw asset from Curve ETH pool",
        "params": {
          "_amount": "Amount of asset to withdraw",
          "_recipient": "Address to receive withdrawn asset",
          "_weth": "Address of asset to withdraw"
        }
      },
      "withdrawAll()": {
        "details": "Remove all assets from platform and send them to Vault contract."
      }
    },
    "version": 1
  },
  "userdoc": {
    "kind": "user",
    "methods": {
      "initialize(address[],address[],address[],(address,address,address,address,address,address,address,uint256))": {
        "notice": "Initializer for setting up strategy internal state. This overrides the InitializableAbstractStrategy initializer as Curve strategies don't fit well within that abstraction."
      }
    },
    "version": 1
  },
  "storageLayout": {
    "storage": [
      {
        "astId": 27105,
        "contract": "contracts/strategies/ConvexEthMetaStrategy.sol:ConvexEthMetaStrategy",
        "label": "initialized",
        "offset": 0,
        "slot": "0",
        "type": "t_bool"
      },
      {
        "astId": 27108,
        "contract": "contracts/strategies/ConvexEthMetaStrategy.sol:ConvexEthMetaStrategy",
        "label": "initializing",
        "offset": 1,
        "slot": "0",
        "type": "t_bool"
      },
      {
        "astId": 27148,
        "contract": "contracts/strategies/ConvexEthMetaStrategy.sol:ConvexEthMetaStrategy",
        "label": "______gap",
        "offset": 0,
        "slot": "1",
        "type": "t_array(t_uint256)50_storage"
      },
      {
        "astId": 27226,
        "contract": "contracts/strategies/ConvexEthMetaStrategy.sol:ConvexEthMetaStrategy",
        "label": "platformAddress",
        "offset": 0,
        "slot": "51",
        "type": "t_address"
      },
      {
        "astId": 27228,
        "contract": "contracts/strategies/ConvexEthMetaStrategy.sol:ConvexEthMetaStrategy",
        "label": "vaultAddress",
        "offset": 0,
        "slot": "52",
        "type": "t_address"
      },
      {
        "astId": 27232,
        "contract": "contracts/strategies/ConvexEthMetaStrategy.sol:ConvexEthMetaStrategy",
        "label": "assetToPToken",
        "offset": 0,
        "slot": "53",
        "type": "t_mapping(t_address,t_address)"
      },
      {
        "astId": 27235,
        "contract": "contracts/strategies/ConvexEthMetaStrategy.sol:ConvexEthMetaStrategy",
        "label": "assetsMapped",
        "offset": 0,
        "slot": "54",
        "type": "t_array(t_address)dyn_storage"
      },
      {
        "astId": 27237,
        "contract": "contracts/strategies/ConvexEthMetaStrategy.sol:ConvexEthMetaStrategy",
        "label": "_deprecated_rewardTokenAddress",
        "offset": 0,
        "slot": "55",
        "type": "t_address"
      },
      {
        "astId": 27239,
        "contract": "contracts/strategies/ConvexEthMetaStrategy.sol:ConvexEthMetaStrategy",
        "label": "_deprecated_rewardLiquidationThreshold",
        "offset": 0,
        "slot": "56",
        "type": "t_uint256"
      },
      {
        "astId": 27241,
        "contract": "contracts/strategies/ConvexEthMetaStrategy.sol:ConvexEthMetaStrategy",
        "label": "harvesterAddress",
        "offset": 0,
        "slot": "57",
        "type": "t_address"
      },
      {
        "astId": 27244,
        "contract": "contracts/strategies/ConvexEthMetaStrategy.sol:ConvexEthMetaStrategy",
        "label": "rewardTokenAddresses",
        "offset": 0,
        "slot": "58",
        "type": "t_array(t_address)dyn_storage"
      },
      {
        "astId": 27248,
        "contract": "contracts/strategies/ConvexEthMetaStrategy.sol:ConvexEthMetaStrategy",
        "label": "_reserved",
        "offset": 0,
        "slot": "59",
        "type": "t_array(t_int256)98_storage"
      },
      {
        "astId": 19761,
        "contract": "contracts/strategies/ConvexEthMetaStrategy.sol:ConvexEthMetaStrategy",
        "label": "cvxDepositorAddress",
        "offset": 0,
        "slot": "157",
        "type": "t_address"
      },
      {
        "astId": 19764,
        "contract": "contracts/strategies/ConvexEthMetaStrategy.sol:ConvexEthMetaStrategy",
        "label": "cvxRewardStaker",
        "offset": 0,
        "slot": "158",
        "type": "t_contract(IRewardStaking)23157"
      },
      {
        "astId": 19766,
        "contract": "contracts/strategies/ConvexEthMetaStrategy.sol:ConvexEthMetaStrategy",
        "label": "cvxDepositorPTokenId",
        "offset": 0,
        "slot": "159",
        "type": "t_uint256"
      },
      {
        "astId": 19769,
        "contract": "contracts/strategies/ConvexEthMetaStrategy.sol:ConvexEthMetaStrategy",
        "label": "curvePool",
        "offset": 0,
        "slot": "160",
        "type": "t_contract(ICurveETHPoolV1)22860"
      },
      {
        "astId": 19772,
        "contract": "contracts/strategies/ConvexEthMetaStrategy.sol:ConvexEthMetaStrategy",
        "label": "lpToken",
        "offset": 0,
        "slot": "161",
        "type": "t_contract(IERC20)623"
      },
      {
        "astId": 19775,
        "contract": "contracts/strategies/ConvexEthMetaStrategy.sol:ConvexEthMetaStrategy",
        "label": "oeth",
        "offset": 0,
        "slot": "162",
        "type": "t_contract(IERC20)623"
      },
      {
        "astId": 19778,
        "contract": "contracts/strategies/ConvexEthMetaStrategy.sol:ConvexEthMetaStrategy",
        "label": "weth",
        "offset": 0,
        "slot": "163",
        "type": "t_contract(IWETH9)7354"
      },
      {
        "astId": 19780,
        "contract": "contracts/strategies/ConvexEthMetaStrategy.sol:ConvexEthMetaStrategy",
        "label": "oethCoinIndex",
        "offset": 0,
        "slot": "164",
        "type": "t_uint128"
      },
      {
        "astId": 19782,
        "contract": "contracts/strategies/ConvexEthMetaStrategy.sol:ConvexEthMetaStrategy",
        "label": "ethCoinIndex",
        "offset": 16,
        "slot": "164",
        "type": "t_uint128"
      }
    ],
    "types": {
      "t_address": {
        "encoding": "inplace",
        "label": "address",
        "numberOfBytes": "20"
      },
      "t_array(t_address)dyn_storage": {
        "base": "t_address",
        "encoding": "dynamic_array",
        "label": "address[]",
        "numberOfBytes": "32"
      },
      "t_array(t_int256)98_storage": {
        "base": "t_int256",
        "encoding": "inplace",
        "label": "int256[98]",
        "numberOfBytes": "3136"
      },
      "t_array(t_uint256)50_storage": {
        "base": "t_uint256",
        "encoding": "inplace",
        "label": "uint256[50]",
        "numberOfBytes": "1600"
      },
      "t_bool": {
        "encoding": "inplace",
        "label": "bool",
        "numberOfBytes": "1"
      },
      "t_contract(ICurveETHPoolV1)22860": {
        "encoding": "inplace",
        "label": "contract ICurveETHPoolV1",
        "numberOfBytes": "20"
      },
      "t_contract(IERC20)623": {
        "encoding": "inplace",
        "label": "contract IERC20",
        "numberOfBytes": "20"
      },
      "t_contract(IRewardStaking)23157": {
        "encoding": "inplace",
        "label": "contract IRewardStaking",
        "numberOfBytes": "20"
      },
      "t_contract(IWETH9)7354": {
        "encoding": "inplace",
        "label": "contract IWETH9",
        "numberOfBytes": "20"
      },
      "t_int256": {
        "encoding": "inplace",
        "label": "int256",
        "numberOfBytes": "32"
      },
      "t_mapping(t_address,t_address)": {
        "encoding": "mapping",
        "key": "t_address",
        "label": "mapping(address => address)",
        "numberOfBytes": "32",
        "value": "t_address"
      },
      "t_uint128": {
        "encoding": "inplace",
        "label": "uint128",
        "numberOfBytes": "16"
      },
      "t_uint256": {
        "encoding": "inplace",
        "label": "uint256",
        "numberOfBytes": "32"
      }
    }
  }
}