{
  "address": "0xEe83F8eBB435373f6c231173995cC990697af1B8",
  "abi": [
    {
      "anonymous": false,
      "inputs": [
        {
          "indexed": true,
          "internalType": "address",
          "name": "_asset",
          "type": "address"
        },
        {
          "indexed": false,
          "internalType": "address",
          "name": "_pToken",
          "type": "address"
        },
        {
          "indexed": false,
          "internalType": "uint256",
          "name": "_amount",
          "type": "uint256"
        }
      ],
      "name": "Deposit",
      "type": "event"
    },
    {
      "anonymous": false,
      "inputs": [
        {
          "indexed": true,
          "internalType": "address",
          "name": "previousGovernor",
          "type": "address"
        },
        {
          "indexed": true,
          "internalType": "address",
          "name": "newGovernor",
          "type": "address"
        }
      ],
      "name": "GovernorshipTransferred",
      "type": "event"
    },
    {
      "anonymous": false,
      "inputs": [
        {
          "indexed": false,
          "internalType": "address",
          "name": "_oldHarvesterAddress",
          "type": "address"
        },
        {
          "indexed": false,
          "internalType": "address",
          "name": "_newHarvesterAddress",
          "type": "address"
        }
      ],
      "name": "HarvesterAddressesUpdated",
      "type": "event"
    },
    {
      "anonymous": false,
      "inputs": [
        {
          "indexed": true,
          "internalType": "address",
          "name": "_asset",
          "type": "address"
        },
        {
          "indexed": false,
          "internalType": "address",
          "name": "_pToken",
          "type": "address"
        }
      ],
      "name": "PTokenAdded",
      "type": "event"
    },
    {
      "anonymous": false,
      "inputs": [
        {
          "indexed": true,
          "internalType": "address",
          "name": "_asset",
          "type": "address"
        },
        {
          "indexed": false,
          "internalType": "address",
          "name": "_pToken",
          "type": "address"
        }
      ],
      "name": "PTokenRemoved",
      "type": "event"
    },
    {
      "anonymous": false,
      "inputs": [
        {
          "indexed": true,
          "internalType": "address",
          "name": "previousGovernor",
          "type": "address"
        },
        {
          "indexed": true,
          "internalType": "address",
          "name": "newGovernor",
          "type": "address"
        }
      ],
      "name": "PendingGovernorshipTransfer",
      "type": "event"
    },
    {
      "anonymous": false,
      "inputs": [
        {
          "indexed": false,
          "internalType": "address[]",
          "name": "_oldAddresses",
          "type": "address[]"
        },
        {
          "indexed": false,
          "internalType": "address[]",
          "name": "_newAddresses",
          "type": "address[]"
        }
      ],
      "name": "RewardTokenAddressesUpdated",
      "type": "event"
    },
    {
      "anonymous": false,
      "inputs": [
        {
          "indexed": false,
          "internalType": "address",
          "name": "recipient",
          "type": "address"
        },
        {
          "indexed": false,
          "internalType": "address",
          "name": "rewardToken",
          "type": "address"
        },
        {
          "indexed": false,
          "internalType": "uint256",
          "name": "amount",
          "type": "uint256"
        }
      ],
      "name": "RewardTokenCollected",
      "type": "event"
    },
    {
      "anonymous": false,
      "inputs": [
        {
          "indexed": true,
          "internalType": "address",
          "name": "_asset",
          "type": "address"
        },
        {
          "indexed": false,
          "internalType": "address",
          "name": "_pToken",
          "type": "address"
        },
        {
          "indexed": false,
          "internalType": "uint256",
          "name": "_amount",
          "type": "uint256"
        }
      ],
      "name": "Withdrawal",
      "type": "event"
    },
    {
      "inputs": [],
      "name": "_deprecated_cvxRewardTokenAddress",
      "outputs": [
        {
          "internalType": "address",
          "name": "",
          "type": "address"
        }
      ],
      "stateMutability": "view",
      "type": "function"
    },
    {
      "inputs": [],
      "name": "_deprecated_rewardLiquidationThreshold",
      "outputs": [
        {
          "internalType": "uint256",
          "name": "",
          "type": "uint256"
        }
      ],
      "stateMutability": "view",
      "type": "function"
    },
    {
      "inputs": [],
      "name": "_deprecated_rewardTokenAddress",
      "outputs": [
        {
          "internalType": "address",
          "name": "",
          "type": "address"
        }
      ],
      "stateMutability": "view",
      "type": "function"
    },
    {
      "inputs": [
        {
          "internalType": "address",
          "name": "",
          "type": "address"
        }
      ],
      "name": "assetToPToken",
      "outputs": [
        {
          "internalType": "address",
          "name": "",
          "type": "address"
        }
      ],
      "stateMutability": "view",
      "type": "function"
    },
    {
      "inputs": [
        {
          "internalType": "address",
          "name": "_asset",
          "type": "address"
        }
      ],
      "name": "checkBalance",
      "outputs": [
        {
          "internalType": "uint256",
          "name": "balance",
          "type": "uint256"
        }
      ],
      "stateMutability": "view",
      "type": "function"
    },
    {
      "inputs": [],
      "name": "claimGovernance",
      "outputs": [],
      "stateMutability": "nonpayable",
      "type": "function"
    },
    {
      "inputs": [],
      "name": "collectRewardTokens",
      "outputs": [],
      "stateMutability": "nonpayable",
      "type": "function"
    },
    {
      "inputs": [
        {
          "internalType": "address",
          "name": "_asset",
          "type": "address"
        },
        {
          "internalType": "uint256",
          "name": "_amount",
          "type": "uint256"
        }
      ],
      "name": "deposit",
      "outputs": [],
      "stateMutability": "nonpayable",
      "type": "function"
    },
    {
      "inputs": [],
      "name": "depositAll",
      "outputs": [],
      "stateMutability": "nonpayable",
      "type": "function"
    },
    {
      "inputs": [],
      "name": "getRewardTokenAddresses",
      "outputs": [
        {
          "internalType": "address[]",
          "name": "",
          "type": "address[]"
        }
      ],
      "stateMutability": "view",
      "type": "function"
    },
    {
      "inputs": [],
      "name": "governor",
      "outputs": [
        {
          "internalType": "address",
          "name": "",
          "type": "address"
        }
      ],
      "stateMutability": "view",
      "type": "function"
    },
    {
      "inputs": [],
      "name": "harvesterAddress",
      "outputs": [
        {
          "internalType": "address",
          "name": "",
          "type": "address"
        }
      ],
      "stateMutability": "view",
      "type": "function"
    },
    {
      "inputs": [
        {
          "internalType": "address",
          "name": "_platformAddress",
          "type": "address"
        },
        {
          "internalType": "address",
          "name": "_vaultAddress",
          "type": "address"
        },
        {
          "internalType": "address[]",
          "name": "_rewardTokenAddresses",
          "type": "address[]"
        },
        {
          "internalType": "address[]",
          "name": "_assets",
          "type": "address[]"
        },
        {
          "internalType": "address[]",
          "name": "_pTokens",
          "type": "address[]"
        }
      ],
      "name": "initialize",
      "outputs": [],
      "stateMutability": "nonpayable",
      "type": "function"
    },
    {
      "inputs": [
        {
          "internalType": "address",
          "name": "_platformAddress",
          "type": "address"
        },
        {
          "internalType": "address",
          "name": "_vaultAddress",
          "type": "address"
        },
        {
          "internalType": "address[]",
          "name": "_rewardTokenAddresses",
          "type": "address[]"
        },
        {
          "internalType": "address[]",
          "name": "_assets",
          "type": "address[]"
        },
        {
          "internalType": "address[]",
          "name": "_pTokens",
          "type": "address[]"
        },
        {
          "internalType": "address",
          "name": "_cvxDepositorAddress",
          "type": "address"
        },
        {
          "internalType": "address",
          "name": "_cvxRewardStakerAddress",
          "type": "address"
        },
        {
          "internalType": "uint256",
          "name": "_cvxDepositorPTokenId",
          "type": "uint256"
        }
      ],
      "name": "initialize",
      "outputs": [],
      "stateMutability": "nonpayable",
      "type": "function"
    },
    {
      "inputs": [],
      "name": "isGovernor",
      "outputs": [
        {
          "internalType": "bool",
          "name": "",
          "type": "bool"
        }
      ],
      "stateMutability": "view",
      "type": "function"
    },
    {
      "inputs": [],
      "name": "platformAddress",
      "outputs": [
        {
          "internalType": "address",
          "name": "",
          "type": "address"
        }
      ],
      "stateMutability": "view",
      "type": "function"
    },
    {
      "inputs": [
        {
          "internalType": "uint256",
          "name": "_assetIndex",
          "type": "uint256"
        }
      ],
      "name": "removePToken",
      "outputs": [],
      "stateMutability": "nonpayable",
      "type": "function"
    },
    {
      "inputs": [
        {
          "internalType": "uint256",
          "name": "",
          "type": "uint256"
        }
      ],
      "name": "rewardTokenAddresses",
      "outputs": [
        {
          "internalType": "address",
          "name": "",
          "type": "address"
        }
      ],
      "stateMutability": "view",
      "type": "function"
    },
    {
      "inputs": [],
      "name": "safeApproveAllTokens",
      "outputs": [],
      "stateMutability": "nonpayable",
      "type": "function"
    },
    {
      "inputs": [
        {
          "internalType": "address",
          "name": "_harvesterAddress",
          "type": "address"
        }
      ],
      "name": "setHarvesterAddress",
      "outputs": [],
      "stateMutability": "nonpayable",
      "type": "function"
    },
    {
      "inputs": [
        {
          "internalType": "address",
          "name": "_asset",
          "type": "address"
        },
        {
          "internalType": "address",
          "name": "_pToken",
          "type": "address"
        }
      ],
      "name": "setPTokenAddress",
      "outputs": [],
      "stateMutability": "nonpayable",
      "type": "function"
    },
    {
      "inputs": [
        {
          "internalType": "address[]",
          "name": "_rewardTokenAddresses",
          "type": "address[]"
        }
      ],
      "name": "setRewardTokenAddresses",
      "outputs": [],
      "stateMutability": "nonpayable",
      "type": "function"
    },
    {
      "inputs": [
        {
          "internalType": "address",
          "name": "_asset",
          "type": "address"
        }
      ],
      "name": "supportsAsset",
      "outputs": [
        {
          "internalType": "bool",
          "name": "",
          "type": "bool"
        }
      ],
      "stateMutability": "view",
      "type": "function"
    },
    {
      "inputs": [
        {
          "internalType": "address",
          "name": "_newGovernor",
          "type": "address"
        }
      ],
      "name": "transferGovernance",
      "outputs": [],
      "stateMutability": "nonpayable",
      "type": "function"
    },
    {
      "inputs": [
        {
          "internalType": "address",
          "name": "_asset",
          "type": "address"
        },
        {
          "internalType": "uint256",
          "name": "_amount",
          "type": "uint256"
        }
      ],
      "name": "transferToken",
      "outputs": [],
      "stateMutability": "nonpayable",
      "type": "function"
    },
    {
      "inputs": [],
      "name": "vaultAddress",
      "outputs": [
        {
          "internalType": "address",
          "name": "",
          "type": "address"
        }
      ],
      "stateMutability": "view",
      "type": "function"
    },
    {
      "inputs": [
        {
          "internalType": "address",
          "name": "_recipient",
          "type": "address"
        },
        {
          "internalType": "address",
          "name": "_asset",
          "type": "address"
        },
        {
          "internalType": "uint256",
          "name": "_amount",
          "type": "uint256"
        }
      ],
      "name": "withdraw",
      "outputs": [],
      "stateMutability": "nonpayable",
      "type": "function"
    },
    {
      "inputs": [],
      "name": "withdrawAll",
      "outputs": [],
      "stateMutability": "nonpayable",
      "type": "function"
    }
  ],
  "transactionHash": "0x843422a062d1ee317577832b6b61429bbb0a21904927c3486aed038f0fa7388c",
  "args": [],
  "solcInputHash": "0d2296c1822a9318e7d4eca895a31e55",
  "bytecode": "0x608060405234801561001057600080fd5b50610028336000805160206200322983398151915255565b60008051602062003229833981519152546040516001600160a01b03909116906000907fc7c0c772add429241571afb3805861fb3cfa2af374534088b76cdb4325a87e9a908290a36131a980620000806000396000f3fe608060405234801561001057600080fd5b50600436106101c45760003560e01c80639688d2fc116100f9578063d38bfff411610097578063de5f626811610071578063de5f6268146103bd578063f08aa030146103c5578063f6ca71b0146103d8578063f817bc63146103ed57600080fd5b8063d38bfff414610384578063d9caed1214610397578063dbe55e56146103aa57600080fd5b8063aa388af6116100d3578063aa388af614610323578063ad1728cb14610361578063c2e1e3f414610369578063c7af33521461037c57600080fd5b80639688d2fc146102ea57806396d538bb146102fd5780639aaca3e61461031057600080fd5b80635a063f631161016657806367c7066c1161014057806367c7066c146102a95780637b2d9b2c146102bc578063853828b6146102cf5780639136616a146102d757600080fd5b80635a063f63146102785780635d36b190146102805780635f5152261461028857600080fd5b80631072cbea116101a25780631072cbea1461022c5780632e6552011461023f578063430bf08a1461025257806347e7ef241461026557600080fd5b80630c340a24146101c95780630ed57b3a146101ee5780630fc3b4c414610203575b600080fd5b6101d16103f6565b6040516001600160a01b0390911681526020015b60405180910390f35b6102016101fc3660046129c2565b610413565b005b6101d1610211366004612988565b6035602052600090815260409020546001600160a01b031681565b61020161023a366004612be5565b61044e565b6037546101d1906001600160a01b031681565b6034546101d1906001600160a01b031681565b610201610273366004612be5565b61048e565b6102016106f1565b6102016107f8565b61029b610296366004612988565b61089e565b6040519081526020016101e5565b6039546101d1906001600160a01b031681565b6101d16102ca366004612c75565b6109e5565b610201610a0f565b6102016102e5366004612c75565b610ca4565b6102016102f83660046129fb565b610e6f565b61020161030b366004612c11565b610f78565b61020161031e366004612aba565b61109e565b610351610331366004612988565b6001600160a01b0390811660009081526035602052604090205416151590565b60405190151581526020016101e5565b610201611294565b610201610377366004612988565b61134d565b6103516113cc565b610201610392366004612988565b6113fd565b6102016103a5366004612ba4565b6114a1565b6033546101d1906001600160a01b031681565b610201611789565b60a0546101d1906001600160a01b031681565b6103e0611a79565b6040516101e59190612d0f565b61029b60385481565b600061040e6000805160206131548339815191525490565b905090565b61041b6113cc565b6104405760405162461bcd60e51b815260040161043790612e79565b60405180910390fd5b61044a8282611adb565b5050565b6104566113cc565b6104725760405162461bcd60e51b815260040161043790612e79565b61044a61047d6103f6565b6001600160a01b0384169083611c40565b6034546001600160a01b031633146104b85760405162461bcd60e51b815260040161043790612e42565b600080516020613134833981519152805460028114156104ea5760405162461bcd60e51b815260040161043790612efe565b60028255600083116105375760405162461bcd60e51b81526020600482015260166024820152754d757374206465706f73697420736f6d657468696e6760501b6044820152606401610437565b603354604080516001600160a01b03928316815260208101869052918616917f5548c837ab068cf56a2c2479df0882a4922fd203edb7517321831d95078c5f62910160405180910390a2610589612896565b600061059486611ca3565b9050848282600381106105a9576105a9613108565b60200201526033546001600160a01b031660006105c588611d3f565b9050600061064f836001600160a01b031663bb7b8b806040518163ffffffff1660e01b815260040160206040518083038186803b15801561060557600080fd5b505afa158015610619573d6000803e3d6000fd5b505050506040513d601f19601f8201168201806040525081019061063d9190612c8e565b6106498a601286611e2e565b90611e92565b9050600061067661066f662386f26fc10000670de0b6b3a764000061307e565b8390611ebb565b604051634515cef360e01b81529091506001600160a01b03851690634515cef3906106a79089908590600401612df4565b600060405180830381600087803b1580156106c157600080fd5b505af11580156106d5573d6000803e3d6000fd5b505050506106e1611ed0565b5050505050506001825550505050565b6039546001600160a01b0316331461074b5760405162461bcd60e51b815260206004820152601b60248201527f43616c6c6572206973206e6f74207468652048617276657374657200000000006044820152606401610437565b6000805160206131348339815191528054600281141561077d5760405162461bcd60e51b815260040161043790612efe565b60028255609f60009054906101000a90046001600160a01b03166001600160a01b0316633d18b9126040518163ffffffff1660e01b8152600401600060405180830381600087803b1580156107d157600080fd5b505af11580156107e5573d6000803e3d6000fd5b505050506107f161202a565b5060019055565b7f44c4d30b2eaad5130ad70c3ba6972730566f3e6359ab83e800d905c61b1c51db546001600160a01b0316336001600160a01b0316146108935760405162461bcd60e51b815260206004820152603060248201527f4f6e6c79207468652070656e64696e6720476f7665726e6f722063616e20636f60448201526f6d706c6574652074686520636c61696d60801b6064820152608401610437565b61089c33612185565b565b6001600160a01b038181166000908152603560205260408120549091166108fb5760405162461bcd60e51b8152602060048201526011602482015270155b9cdd5c1c1bdc9d195908185cdcd95d607a1b6044820152606401610437565b6000610905612246565b6033549093506001600160a01b031691505081156109de576000816001600160a01b031663bb7b8b806040518163ffffffff1660e01b815260040160206040518083038186803b15801561095857600080fd5b505afa15801561096c573d6000803e3d6000fd5b505050506040513d601f19601f820116820180604052508101906109909190612c8e565b90506000670de0b6b3a76400006109a7838661305f565b6109b19190612f52565b905060006109be87611d3f565b905060036109ce83836012611e2e565b6109d89190612f52565b95505050505b5050919050565b603a81815481106109f557600080fd5b6000918252602090912001546001600160a01b0316905081565b6034546001600160a01b0316331480610a405750610a2b6103f6565b6001600160a01b0316336001600160a01b0316145b610a985760405162461bcd60e51b815260206004820152602360248201527f43616c6c6572206973206e6f7420746865205661756c74206f7220476f7665726044820152623737b960e91b6064820152608401610437565b60008051602061313483398151915280546002811415610aca5760405162461bcd60e51b815260040161043790612efe565b60028255600080610ad9612246565b9250925050610ae782612355565b6040805160608101825260008082526020820181905281830152603354915163ecb586a560e01b815290916001600160a01b031690819063ecb586a590610b349086908690600401612f26565b600060405180830381600087803b158015610b4e57600080fd5b505af1158015610b62573d6000803e3d6000fd5b5050505060005b603654811015610c975760405163c661065760e01b8152600481018290526000906001600160a01b0384169063c66106579060240160206040518083038186803b158015610bb657600080fd5b505afa158015610bca573d6000803e3d6000fd5b505050506040513d601f19601f82011682018060405250810190610bee91906129a5565b6034546040516370a0823160e01b8152306004820152919250610c84916001600160a01b03918216918416906370a082319060240160206040518083038186803b158015610c3b57600080fd5b505afa158015610c4f573d6000803e3d6000fd5b505050506040513d601f19601f82011682018060405250810190610c739190612c8e565b6001600160a01b0384169190611c40565b5080610c8f816130c1565b915050610b69565b5050505050600182555050565b610cac6113cc565b610cc85760405162461bcd60e51b815260040161043790612e79565b6036548110610d095760405162461bcd60e51b815260206004820152600d60248201526c092dcecc2d8d2c840d2dcc8caf609b1b6044820152606401610437565b600060368281548110610d1e57610d1e613108565b60009182526020808320909101546001600160a01b03908116808452603590925260409092205460365491935090911690610d5b9060019061307e565b831015610ddd5760368054610d729060019061307e565b81548110610d8257610d82613108565b600091825260209091200154603680546001600160a01b039092169185908110610dae57610dae613108565b9060005260206000200160006101000a8154816001600160a01b0302191690836001600160a01b031602179055505b6036805480610dee57610dee6130f2565b60008281526020808220600019908401810180546001600160a01b031990811690915593019093556001600160a01b038581168083526035855260409283902080549094169093559051908416815290917f16b7600acff27e39a8a96056b3d533045298de927507f5c1d97e4accde60488c910160405180910390a2505050565b610e776113cc565b610e935760405162461bcd60e51b815260040161043790612e79565b600054610100900460ff1680610eac575060005460ff16155b610ec85760405162461bcd60e51b815260040161043790612eb0565b600054610100900460ff16158015610eea576000805461ffff19166101011790555b610f5b8989898989898080602002602001604051908101604052809392919081815260200183836020028082843760009201919091525050604080516020808d0282810182019093528c82529093508c92508b9182918501908490808284376000920191909152506123bd92505050565b8015610f6d576000805461ff00191690555b505050505050505050565b610f806113cc565b610f9c5760405162461bcd60e51b815260040161043790612e79565b60005b81811015611050576000838383818110610fbb57610fbb613108565b9050602002016020810190610fd09190612988565b6001600160a01b0316141561103e5760405162461bcd60e51b815260206004820152602e60248201527f43616e206e6f742073657420616e20656d70747920616464726573732061732060448201526d30903932bbb0b932103a37b5b2b760911b6064820152608401610437565b80611048816130c1565b915050610f9f565b507f04c0b9649497d316554306e53678d5f5f5dbc3a06f97dec13ff4cfe98b986bbc603a838360405161108593929190612d5c565b60405180910390a1611099603a83836128b4565b505050565b6110a66113cc565b6110c25760405162461bcd60e51b815260040161043790612e79565b600054610100900460ff16806110db575060005460ff16155b6110f75760405162461bcd60e51b815260040161043790612eb0565b600054610100900460ff16158015611119576000805461ffff19166101011790555b600387146111695760405162461bcd60e51b815260206004820152601e60248201527f4d75737420686176652065786163746c792074687265652061737365747300006044820152606401610437565b609e80546001600160a01b038087166001600160a01b031992831617909255609f80549286169290911691909117905560a182905585856000816111af576111af613108565b90506020020160208101906111c49190612988565b609d60006101000a8154816001600160a01b0302191690836001600160a01b0316021790555061126c8c8c8c8c8c8c80806020026020016040519081016040528093929190818152602001838360200280828437600081840152601f19601f820116905080830192505050505050508b8b808060200260200160405190810160405280939291908181526020018383602002808284376000920191909152506123bd92505050565b6112746124a6565b8015611286576000805461ff00191690555b505050505050505050505050565b61129c6113cc565b6112b85760405162461bcd60e51b815260040161043790612e79565b600080516020613134833981519152805460028114156112ea5760405162461bcd60e51b815260040161043790612efe565b600282556112f66124a6565b60005b603654811015611345576113336036828154811061131957611319613108565b6000918252602090912001546001600160a01b0316612519565b8061133d816130c1565b9150506112f9565b505060019055565b6113556113cc565b6113715760405162461bcd60e51b815260040161043790612e79565b603980546001600160a01b0319166001600160a01b0383169081179091556040805182815260208101929092527fe48386b84419f4d36e0f96c10cc3510b6fb1a33795620c5098b22472bbe90796910160405180910390a150565b60006113e46000805160206131548339815191525490565b6001600160a01b0316336001600160a01b031614905090565b6114056113cc565b6114215760405162461bcd60e51b815260040161043790612e79565b611449817f44c4d30b2eaad5130ad70c3ba6972730566f3e6359ab83e800d905c61b1c51db55565b806001600160a01b03166114696000805160206131548339815191525490565b6001600160a01b03167fa39cc5eb22d0f34d8beaefee8a3f17cc229c1a1d1ef87a5ad47313487b1c4f0d60405160405180910390a350565b6034546001600160a01b031633146114cb5760405162461bcd60e51b815260040161043790612e42565b600080516020613134833981519152805460028114156114fd5760405162461bcd60e51b815260040161043790612efe565b60028255600083116115425760405162461bcd60e51b815260206004820152600e60248201526d125b9d985b1a5908185b5bdd5b9d60921b6044820152606401610437565b6001600160a01b0384811660008181526035602090815260409182902054825194168452830186905290917f2717ead6b9200dd235aad468c9809ea400fe33ac69b5bfaa6d3e90fc922b6398910160405180910390a26000806115a3612246565b925050915060006115b387611ca3565b60335460405163cc2b27d760e01b815260048101859052600f83900b602482015291925082916001600160a01b0390911690600090829063cc2b27d79060440160206040518083038186803b15801561160b57600080fd5b505afa15801561161f573d6000803e3d6000fd5b505050506040513d601f19601f820116820180604052508101906116439190612c8e565b90506000816116528b8861305f565b61165c9190612f52565b90508086116116ad5760405162461bcd60e51b815260206004820152601960248201527f496e73756666696369656e7420334352562062616c616e6365000000000000006044820152606401610437565b808710156116c7576116c76116c2888361307e565b612355565b600060405180606001604052806000815260200160008152602001600081525090508a8187600381106116fc576116fc613108565b60200201526040516327f6ba8360e21b81526001600160a01b03851690639fdaea0c9061172f9084908690600401612df4565b600060405180830381600087803b15801561174957600080fd5b505af115801561175d573d6000803e3d6000fd5b50611776925050506001600160a01b038d168e8d611c40565b5050505050505050600182555050505050565b6034546001600160a01b031633146117b35760405162461bcd60e51b815260040161043790612e42565b600080516020613134833981519152805460028114156117e55760405162461bcd60e51b815260040161043790612efe565b6002825560408051606081018252600080825260208083018290528284018290526033548451630176f71760e71b81529451939492936001600160a01b03909116928492849263bb7b8b80926004808201939291829003018186803b15801561184d57600080fd5b505afa158015611861573d6000803e3d6000fd5b505050506040513d601f19601f820116820180604052508101906118859190612c8e565b905060005b6036548110156119e8576000603682815481106118a9576118a9613108565b60009182526020822001546040516370a0823160e01b81523060048201526001600160a01b03909116925082906370a082319060240160206040518083038186803b1580156118f757600080fd5b505afa15801561190b573d6000803e3d6000fd5b505050506040513d601f19601f8201168201806040525081019061192f9190612c8e565b905080156119d357600061194283611ca3565b90508188826003811061195757611957613108565b6020020152600061196784611d3f565b90506119798661064985601285611e2e565b6119839089612f3a565b603354604080516001600160a01b03928316815260208101879052929a50908616917f5548c837ab068cf56a2c2479df0882a4922fd203edb7517321831d95078c5f62910160405180910390a250505b505080806119e0906130c1565b91505061188a565b506000611a0e611a07662386f26fc10000670de0b6b3a764000061307e565b8590611ebb565b604051634515cef360e01b81529091506001600160a01b03841690634515cef390611a3f9088908590600401612df4565b600060405180830381600087803b158015611a5957600080fd5b505af1158015611a6d573d6000803e3d6000fd5b50505050610c97611ed0565b6060603a805480602002602001604051908101604052809291908181526020018280548015611ad157602002820191906000526020600020905b81546001600160a01b03168152600190910190602001808311611ab3575b5050505050905090565b6001600160a01b038281166000908152603560205260409020541615611b385760405162461bcd60e51b81526020600482015260126024820152711c151bdad95b88185b1c9958591e481cd95d60721b6044820152606401610437565b6001600160a01b03821615801590611b5857506001600160a01b03811615155b611b985760405162461bcd60e51b8152602060048201526011602482015270496e76616c69642061646472657373657360781b6044820152606401610437565b6001600160a01b03828116600081815260356020908152604080832080549587166001600160a01b031996871681179091556036805460018101825594527f4a11f94e20a93c79f6ec743a1954ec4fc2c08429ae2122118bf234b2185c81b890930180549095168417909455925190815290917fef6485b84315f9b1483beffa32aae9a0596890395e3d7521f1c5fbb51790e765910160405180910390a261044a8282612552565b6040516001600160a01b03831660248201526044810182905261109990849063a9059cbb60e01b906064015b60408051601f198184030181529190526020810180516001600160e01b03166001600160e01b03199093169290921790915261255b565b6000805b6003811015611d0057826001600160a01b031660368281548110611ccd57611ccd613108565b6000918252602090912001546001600160a01b03161415611cee5792915050565b80611cf8816130c1565b915050611ca7565b5060405162461bcd60e51b8152602060048201526013602482015272125b9d985b1a59080cdc1bdbdb08185cdcd95d606a1b6044820152606401610437565b600080826001600160a01b031663313ce5676040518163ffffffff1660e01b815260040160206040518083038186803b158015611d7b57600080fd5b505afa158015611d8f573d6000803e3d6000fd5b505050506040513d601f19601f82011682018060405250810190611db39190612ca7565b60ff16905060048110158015611dca575060128111155b611e285760405162461bcd60e51b815260206004820152602960248201527f546f6b656e206d75737420686176652073756666696369656e7420646563696d604482015268616c20706c6163657360b81b6064820152608401610437565b92915050565b600081831115611e5e57611e57611e45838561307e565b611e5090600a612fb7565b859061262d565b9350611e88565b81831015611e8857611e85611e73848461307e565b611e7e90600a612fb7565b8590612639565b93505b50825b9392505050565b600080611ea784670de0b6b3a764000061262d565b9050611eb38184612639565b949350505050565b6000611e8b8383670de0b6b3a7640000612645565b609d54609e5460a1546040516370a0823160e01b81523060048201526001600160a01b039384169360009316916343a0d0669185906370a082319060240160206040518083038186803b158015611f2657600080fd5b505afa158015611f3a573d6000803e3d6000fd5b505050506040513d601f19601f82011682018060405250810190611f5e9190612c8e565b6040516001600160e01b031960e085901b1681526004810192909252602482015260016044820152606401602060405180830381600087803b158015611fa357600080fd5b505af1158015611fb7573d6000803e3d6000fd5b505050506040513d601f19601f82011682018060405250810190611fdb9190612c53565b90508061044a5760405162461bcd60e51b815260206004820152601b60248201527f4661696c656420746f206465706f73697420746f20436f6e76657800000000006044820152606401610437565b60005b603a54811015612182576000603a828154811061204c5761204c613108565b60009182526020822001546040516370a0823160e01b81523060048201526001600160a01b03909116925082906370a082319060240160206040518083038186803b15801561209a57600080fd5b505afa1580156120ae573d6000803e3d6000fd5b505050506040513d601f19601f820116820180604052508101906120d29190612c8e565b603954603a80549293507ff6c07a063ed4e63808eb8da7112d46dbcd38de2b40a73dbcc9353c5a94c72353926001600160a01b03909216918690811061211a5761211a613108565b60009182526020918290200154604080516001600160a01b0394851681529390911691830191909152810183905260600160405180910390a160395461216d906001600160a01b03848116911683611c40565b5050808061217a906130c1565b91505061202d565b50565b6001600160a01b0381166121db5760405162461bcd60e51b815260206004820152601a60248201527f4e657720476f7665726e6f7220697320616464726573732830290000000000006044820152606401610437565b806001600160a01b03166121fb6000805160206131548339815191525490565b6001600160a01b03167fc7c0c772add429241571afb3805861fb3cfa2af374534088b76cdb4325a87e9a60405160405180910390a36121828160008051602061315483398151915255565b609d546040516370a0823160e01b8152306004820152600091829182916001600160a01b0316906370a082319060240160206040518083038186803b15801561228e57600080fd5b505afa1580156122a2573d6000803e3d6000fd5b505050506040513d601f19601f820116820180604052508101906122c69190612c8e565b609f546040516370a0823160e01b81523060048201529194506001600160a01b0316906370a082319060240160206040518083038186803b15801561230a57600080fd5b505afa15801561231e573d6000803e3d6000fd5b505050506040513d601f19601f820116820180604052508101906123429190612c8e565b915061234e8284612f3a565b9050909192565b609f54604051636197390160e11b815260048101839052600160248201526001600160a01b039091169063c32e720290604401600060405180830381600087803b1580156123a257600080fd5b505af11580156123b6573d6000803e3d6000fd5b5050505050565b603380546001600160a01b038089166001600160a01b03199283161790925560348054928816929091169190911790556123f9603a85856128b4565b508151815181146124435760405162461bcd60e51b8152602060048201526014602482015273496e76616c696420696e7075742061727261797360601b6044820152606401610437565b60005b8181101561249c5761248a84828151811061246357612463613108565b602002602001015184838151811061247d5761247d613108565b6020026020010151611adb565b80612494816130c1565b915050612446565b5050505050505050565b609d546033546001600160a01b03918216916124c6918391166000612667565b6033546124e2906001600160a01b038381169116600019612667565b609e546124fd906001600160a01b0383811691166000612667565b609e54612182906001600160a01b038381169116600019612667565b6033548190612536906001600160a01b0380841691166000612667565b60335461044a906001600160a01b038381169116600019612667565b61044a82612519565b60006125b0826040518060400160405280602081526020017f5361666545524332303a206c6f772d6c6576656c2063616c6c206661696c6564815250856001600160a01b031661278b9092919063ffffffff16565b80519091501561109957808060200190518101906125ce9190612c53565b6110995760405162461bcd60e51b815260206004820152602a60248201527f5361666545524332303a204552433230206f7065726174696f6e20646964206e6044820152691bdd081cdd58d8d9595960b21b6064820152608401610437565b6000611e8b828461305f565b6000611e8b8284612f52565b600080612652858561262d565b905061265e8184612639565b95945050505050565b8015806126f05750604051636eb1769f60e11b81523060048201526001600160a01b03838116602483015284169063dd62ed3e9060440160206040518083038186803b1580156126b657600080fd5b505afa1580156126ca573d6000803e3d6000fd5b505050506040513d601f19601f820116820180604052508101906126ee9190612c8e565b155b61275b5760405162461bcd60e51b815260206004820152603660248201527f5361666545524332303a20617070726f76652066726f6d206e6f6e2d7a65726f60448201527520746f206e6f6e2d7a65726f20616c6c6f77616e636560501b6064820152608401610437565b6040516001600160a01b03831660248201526044810182905261109990849063095ea7b360e01b90606401611c6c565b6060611eb3848460008585843b6127e45760405162461bcd60e51b815260206004820152601d60248201527f416464726573733a2063616c6c20746f206e6f6e2d636f6e74726163740000006044820152606401610437565b600080866001600160a01b031685876040516128009190612cf3565b60006040518083038185875af1925050503d806000811461283d576040519150601f19603f3d011682016040523d82523d6000602084013e612842565b606091505b509150915061285282828661285d565b979650505050505050565b6060831561286c575081611e8b565b82511561287c5782518084602001fd5b8160405162461bcd60e51b81526004016104379190612e0f565b60405180606001604052806003906020820280368337509192915050565b828054828255906000526020600020908101928215612907579160200282015b828111156129075781546001600160a01b0319166001600160a01b038435161782556020909201916001909101906128d4565b50612913929150612917565b5090565b5b808211156129135760008155600101612918565b80356129378161311e565b919050565b60008083601f84011261294e57600080fd5b50813567ffffffffffffffff81111561296657600080fd5b6020830191508360208260051b850101111561298157600080fd5b9250929050565b60006020828403121561299a57600080fd5b8135611e8b8161311e565b6000602082840312156129b757600080fd5b8151611e8b8161311e565b600080604083850312156129d557600080fd5b82356129e08161311e565b915060208301356129f08161311e565b809150509250929050565b60008060008060008060008060a0898b031215612a1757600080fd5b8835612a228161311e565b97506020890135612a328161311e565b9650604089013567ffffffffffffffff80821115612a4f57600080fd5b612a5b8c838d0161293c565b909850965060608b0135915080821115612a7457600080fd5b612a808c838d0161293c565b909650945060808b0135915080821115612a9957600080fd5b50612aa68b828c0161293c565b999c989b5096995094979396929594505050565b60008060008060008060008060008060006101008c8e031215612adc57600080fd5b612ae58c61292c565b9a50612af360208d0161292c565b995067ffffffffffffffff8060408e01351115612b0f57600080fd5b612b1f8e60408f01358f0161293c565b909a50985060608d0135811015612b3557600080fd5b612b458e60608f01358f0161293c565b909850965060808d0135811015612b5b57600080fd5b50612b6c8d60808e01358e0161293c565b9095509350612b7d60a08d0161292c565b9250612b8b60c08d0161292c565b915060e08c013590509295989b509295989b9093969950565b600080600060608486031215612bb957600080fd5b8335612bc48161311e565b92506020840135612bd48161311e565b929592945050506040919091013590565b60008060408385031215612bf857600080fd5b8235612c038161311e565b946020939093013593505050565b60008060208385031215612c2457600080fd5b823567ffffffffffffffff811115612c3b57600080fd5b612c478582860161293c565b90969095509350505050565b600060208284031215612c6557600080fd5b81518015158114611e8b57600080fd5b600060208284031215612c8757600080fd5b5035919050565b600060208284031215612ca057600080fd5b5051919050565b600060208284031215612cb957600080fd5b815160ff81168114611e8b57600080fd5b8060005b6003811015612ced578151845260209384019390910190600101612cce565b50505050565b60008251612d05818460208701613095565b9190910192915050565b6020808252825182820181905260009190848201906040850190845b81811015612d505783516001600160a01b031683529284019291840191600101612d2b565b50909695505050505050565b6000604082016040835280865480835260608501915087600052602092508260002060005b82811015612da65781546001600160a01b031684529284019260019182019101612d81565b505050838103828501528481528590820160005b86811015612de8578235612dcd8161311e565b6001600160a01b031682529183019190830190600101612dba565b50979650505050505050565b60808101612e028285612cca565b8260608301529392505050565b6020815260008251806020840152612e2e816040850160208701613095565b601f01601f19169190910160400192915050565b60208082526017908201527f43616c6c6572206973206e6f7420746865205661756c74000000000000000000604082015260600190565b6020808252601a908201527f43616c6c6572206973206e6f742074686520476f7665726e6f72000000000000604082015260600190565b6020808252602e908201527f496e697469616c697a61626c653a20636f6e747261637420697320616c72656160408201526d191e481a5b9a5d1a585b1a5e995960921b606082015260800190565b6020808252600e908201526d1499595b9d1c985b9d0818d85b1b60921b604082015260600190565b82815260808101611e8b6020830184612cca565b60008219821115612f4d57612f4d6130dc565b500190565b600082612f6f57634e487b7160e01b600052601260045260246000fd5b500490565b600181815b80851115612faf578160001904821115612f9557612f956130dc565b80851615612fa257918102915b93841c9390800290612f79565b509250929050565b6000611e8b8383600082612fcd57506001611e28565b81612fda57506000611e28565b8160018114612ff05760028114612ffa57613016565b6001915050611e28565b60ff84111561300b5761300b6130dc565b50506001821b611e28565b5060208310610133831016604e8410600b8410161715613039575081810a611e28565b6130438383612f74565b8060001904821115613057576130576130dc565b029392505050565b6000816000190483118215151615613079576130796130dc565b500290565b600082821015613090576130906130dc565b500390565b60005b838110156130b0578181015183820152602001613098565b83811115612ced5750506000910152565b60006000198214156130d5576130d56130dc565b5060010190565b634e487b7160e01b600052601160045260246000fd5b634e487b7160e01b600052603160045260246000fd5b634e487b7160e01b600052603260045260246000fd5b6001600160a01b038116811461218257600080fdfe53bf423e48ed90e97d02ab0ebab13b2a235a6bfbe9c321847d5c175333ac45357bea13895fa79d2831e0a9e28edede30099005a50d652d8957cf8a607ee6ca4aa2646970667358221220eef156762a9dc171f4edd919ed4f304b9ff1fdd419d7a9f0ac97bf258a15a51a64736f6c634300080700337bea13895fa79d2831e0a9e28edede30099005a50d652d8957cf8a607ee6ca4a",
  "devdoc": {
    "kind": "dev",
    "methods": {
      "checkBalance(address)": {
        "details": "Get the total asset value held in the platform",
        "params": {
          "_asset": "Address of the asset"
        },
        "returns": {
          "balance": "   Total value of the asset in the platform"
        }
      },
      "claimGovernance()": {
        "details": "Claim Governance of the contract to a new account (`newGovernor`). Can only be called by the new Governor."
      },
      "collectRewardTokens()": {
        "details": "Collect accumulated CRV and CVX and send to Vault."
      },
      "deposit(address,uint256)": {
        "details": "Deposit asset into the Curve 3Pool",
        "params": {
          "_amount": "Amount of asset to deposit",
          "_asset": "Address of asset to deposit"
        }
      },
      "depositAll()": {
        "details": "Deposit the entire balance of any supported asset into the Curve 3pool"
      },
      "getRewardTokenAddresses()": {
        "details": "Get the reward token addresses.",
        "returns": {
          "_0": "address[] the reward token addresses."
        }
      },
      "governor()": {
        "details": "Returns the address of the current Governor."
      },
      "initialize(address,address,address[],address[],address[])": {
        "details": "Internal initialize function, to set up initial internal state",
        "params": {
          "_assets": "Addresses of initial supported assets",
          "_pTokens": "Platform Token corresponding addresses",
          "_platformAddress": "Generic platform address",
          "_rewardTokenAddresses": "Address of reward token for platform",
          "_vaultAddress": "Address of the Vault"
        }
      },
      "initialize(address,address,address[],address[],address[],address,address,uint256)": {
        "params": {
          "_assets": "Addresses of supported assets. MUST be passed in the same                order as returned by coins on the pool contract, i.e.                DAI, USDC, USDT",
          "_cvxDepositorAddress": "Address of the Convex depositor(AKA booster) for this pool",
          "_cvxDepositorPTokenId": "Pid of the pool referred to by Depositor and staker",
          "_cvxRewardStakerAddress": "Address of the CVX rewards staker",
          "_pTokens": "Platform Token corresponding addresses",
          "_platformAddress": "Address of the Curve 3pool",
          "_rewardTokenAddresses": "Address of CRV & CVX",
          "_vaultAddress": "Address of the vault"
        }
      },
      "isGovernor()": {
        "details": "Returns true if the caller is the current Governor."
      },
      "removePToken(uint256)": {
        "details": "Remove a supported asset by passing its index.      This method can only be called by the system Governor",
        "params": {
          "_assetIndex": "Index of the asset to be removed"
        }
      },
      "safeApproveAllTokens()": {
        "details": "Approve the spending of all assets by their corresponding pool tokens,      if for some reason is it necessary."
      },
      "setHarvesterAddress(address)": {
        "details": "Set the reward token addresses.",
        "params": {
          "_harvesterAddress": "Address of the harvester"
        }
      },
      "setPTokenAddress(address,address)": {
        "details": "Provide support for asset by passing its pToken address.      This method can only be called by the system Governor",
        "params": {
          "_asset": "Address for the asset",
          "_pToken": "Address for the corresponding platform token"
        }
      },
      "setRewardTokenAddresses(address[])": {
        "details": "Set the reward token addresses.",
        "params": {
          "_rewardTokenAddresses": "Address array of the reward token"
        }
      },
      "supportsAsset(address)": {
        "details": "Retuns bool indicating whether asset is supported by strategy",
        "params": {
          "_asset": "Address of the asset"
        }
      },
      "transferGovernance(address)": {
        "details": "Transfers Governance of the contract to a new account (`newGovernor`). Can only be called by the current Governor. Must be claimed for this to complete",
        "params": {
          "_newGovernor": "Address of the new Governor"
        }
      },
      "transferToken(address,uint256)": {
        "details": "Transfer token to governor. Intended for recovering tokens stuck in      strategy contracts, i.e. mistaken sends.",
        "params": {
          "_amount": "Amount of the asset to transfer",
          "_asset": "Address for the asset"
        }
      },
      "withdraw(address,address,uint256)": {
        "details": "Withdraw asset from Curve 3Pool",
        "params": {
          "_amount": "Amount of asset to withdraw",
          "_asset": "Address of asset to withdraw",
          "_recipient": "Address to receive withdrawn asset"
        }
      },
      "withdrawAll()": {
        "details": "Remove all assets from platform and send them to Vault contract."
      }
    },
    "version": 1
  },
  "userdoc": {
    "kind": "user",
    "methods": {
      "initialize(address,address,address[],address[],address[],address,address,uint256)": {
        "notice": "Initializer for setting up strategy internal state. This overrides the InitializableAbstractStrategy initializer as Curve strategies don't fit well within that abstraction."
      }
    },
    "version": 1
  },
  "storageLayout": {
    "storage": [
      {
        "astId": 18714,
        "contract": "contracts/strategies/ConvexStrategy.sol:ConvexStrategy",
        "label": "initialized",
        "offset": 0,
        "slot": "0",
        "type": "t_bool"
      },
      {
        "astId": 18717,
        "contract": "contracts/strategies/ConvexStrategy.sol:ConvexStrategy",
        "label": "initializing",
        "offset": 1,
        "slot": "0",
        "type": "t_bool"
      },
      {
        "astId": 18757,
        "contract": "contracts/strategies/ConvexStrategy.sol:ConvexStrategy",
        "label": "______gap",
        "offset": 0,
        "slot": "1",
        "type": "t_array(t_uint256)50_storage"
      },
      {
        "astId": 18833,
        "contract": "contracts/strategies/ConvexStrategy.sol:ConvexStrategy",
        "label": "platformAddress",
        "offset": 0,
        "slot": "51",
        "type": "t_address"
      },
      {
        "astId": 18835,
        "contract": "contracts/strategies/ConvexStrategy.sol:ConvexStrategy",
        "label": "vaultAddress",
        "offset": 0,
        "slot": "52",
        "type": "t_address"
      },
      {
        "astId": 18839,
        "contract": "contracts/strategies/ConvexStrategy.sol:ConvexStrategy",
        "label": "assetToPToken",
        "offset": 0,
        "slot": "53",
        "type": "t_mapping(t_address,t_address)"
      },
      {
        "astId": 18842,
        "contract": "contracts/strategies/ConvexStrategy.sol:ConvexStrategy",
        "label": "assetsMapped",
        "offset": 0,
        "slot": "54",
        "type": "t_array(t_address)dyn_storage"
      },
      {
        "astId": 18844,
        "contract": "contracts/strategies/ConvexStrategy.sol:ConvexStrategy",
        "label": "_deprecated_rewardTokenAddress",
        "offset": 0,
        "slot": "55",
        "type": "t_address"
      },
      {
        "astId": 18846,
        "contract": "contracts/strategies/ConvexStrategy.sol:ConvexStrategy",
        "label": "_deprecated_rewardLiquidationThreshold",
        "offset": 0,
        "slot": "56",
        "type": "t_uint256"
      },
      {
        "astId": 18848,
        "contract": "contracts/strategies/ConvexStrategy.sol:ConvexStrategy",
        "label": "harvesterAddress",
        "offset": 0,
        "slot": "57",
        "type": "t_address"
      },
      {
        "astId": 18851,
        "contract": "contracts/strategies/ConvexStrategy.sol:ConvexStrategy",
        "label": "rewardTokenAddresses",
        "offset": 0,
        "slot": "58",
        "type": "t_array(t_address)dyn_storage"
      },
      {
        "astId": 18855,
        "contract": "contracts/strategies/ConvexStrategy.sol:ConvexStrategy",
        "label": "_reserved",
        "offset": 0,
        "slot": "59",
        "type": "t_array(t_int256)98_storage"
      },
      {
        "astId": 14505,
        "contract": "contracts/strategies/ConvexStrategy.sol:ConvexStrategy",
        "label": "pTokenAddress",
        "offset": 0,
        "slot": "157",
        "type": "t_address"
      },
      {
        "astId": 15881,
        "contract": "contracts/strategies/ConvexStrategy.sol:ConvexStrategy",
        "label": "cvxDepositorAddress",
        "offset": 0,
        "slot": "158",
        "type": "t_address"
      },
      {
        "astId": 15883,
        "contract": "contracts/strategies/ConvexStrategy.sol:ConvexStrategy",
        "label": "cvxRewardStakerAddress",
        "offset": 0,
        "slot": "159",
        "type": "t_address"
      },
      {
        "astId": 15885,
        "contract": "contracts/strategies/ConvexStrategy.sol:ConvexStrategy",
        "label": "_deprecated_cvxRewardTokenAddress",
        "offset": 0,
        "slot": "160",
        "type": "t_address"
      },
      {
        "astId": 15887,
        "contract": "contracts/strategies/ConvexStrategy.sol:ConvexStrategy",
        "label": "cvxDepositorPTokenId",
        "offset": 0,
        "slot": "161",
        "type": "t_uint256"
      }
    ],
    "types": {
      "t_address": {
        "encoding": "inplace",
        "label": "address",
        "numberOfBytes": "20"
      },
      "t_array(t_address)dyn_storage": {
        "base": "t_address",
        "encoding": "dynamic_array",
        "label": "address[]",
        "numberOfBytes": "32"
      },
      "t_array(t_int256)98_storage": {
        "base": "t_int256",
        "encoding": "inplace",
        "label": "int256[98]",
        "numberOfBytes": "3136"
      },
      "t_array(t_uint256)50_storage": {
        "base": "t_uint256",
        "encoding": "inplace",
        "label": "uint256[50]",
        "numberOfBytes": "1600"
      },
      "t_bool": {
        "encoding": "inplace",
        "label": "bool",
        "numberOfBytes": "1"
      },
      "t_int256": {
        "encoding": "inplace",
        "label": "int256",
        "numberOfBytes": "32"
      },
      "t_mapping(t_address,t_address)": {
        "encoding": "mapping",
        "key": "t_address",
        "label": "mapping(address => address)",
        "numberOfBytes": "32",
        "value": "t_address"
      },
      "t_uint256": {
        "encoding": "inplace",
        "label": "uint256",
        "numberOfBytes": "32"
      }
    }
  }
}