{
  "address": "0xCD0fb64080DB926b8C1cFE5208BB938D4ac89e55",
  "abi": [
    {
      "inputs": [
        {
          "components": [
            {
              "internalType": "address",
              "name": "platformAddress",
              "type": "address"
            },
            {
              "internalType": "address",
              "name": "vaultAddress",
              "type": "address"
            }
          ],
          "internalType": "struct InitializableAbstractStrategy.BaseStrategyConfig",
          "name": "_stratConfig",
          "type": "tuple"
        },
        {
          "components": [
            {
              "internalType": "address",
              "name": "cctpTokenMessenger",
              "type": "address"
            },
            {
              "internalType": "address",
              "name": "cctpMessageTransmitter",
              "type": "address"
            },
            {
              "internalType": "uint32",
              "name": "peerDomainID",
              "type": "uint32"
            },
            {
              "internalType": "address",
              "name": "peerStrategy",
              "type": "address"
            },
            {
              "internalType": "address",
              "name": "usdcToken",
              "type": "address"
            }
          ],
          "internalType": "struct AbstractCCTPIntegrator.CCTPIntegrationConfig",
          "name": "_cctpConfig",
          "type": "tuple"
        }
      ],
      "stateMutability": "nonpayable",
      "type": "constructor"
    },
    {
      "anonymous": false,
      "inputs": [
        {
          "indexed": false,
          "internalType": "uint16",
          "name": "feePremiumBps",
          "type": "uint16"
        }
      ],
      "name": "CCTPFeePremiumBpsSet",
      "type": "event"
    },
    {
      "anonymous": false,
      "inputs": [
        {
          "indexed": false,
          "internalType": "uint16",
          "name": "minFinalityThreshold",
          "type": "uint16"
        }
      ],
      "name": "CCTPMinFinalityThresholdSet",
      "type": "event"
    },
    {
      "anonymous": false,
      "inputs": [
        {
          "indexed": true,
          "internalType": "address",
          "name": "_asset",
          "type": "address"
        },
        {
          "indexed": false,
          "internalType": "address",
          "name": "_pToken",
          "type": "address"
        },
        {
          "indexed": false,
          "internalType": "uint256",
          "name": "_amount",
          "type": "uint256"
        }
      ],
      "name": "Deposit",
      "type": "event"
    },
    {
      "anonymous": false,
      "inputs": [
        {
          "indexed": true,
          "internalType": "address",
          "name": "previousGovernor",
          "type": "address"
        },
        {
          "indexed": true,
          "internalType": "address",
          "name": "newGovernor",
          "type": "address"
        }
      ],
      "name": "GovernorshipTransferred",
      "type": "event"
    },
    {
      "anonymous": false,
      "inputs": [
        {
          "indexed": false,
          "internalType": "address",
          "name": "_oldHarvesterAddress",
          "type": "address"
        },
        {
          "indexed": false,
          "internalType": "address",
          "name": "_newHarvesterAddress",
          "type": "address"
        }
      ],
      "name": "HarvesterAddressesUpdated",
      "type": "event"
    },
    {
      "anonymous": false,
      "inputs": [
        {
          "indexed": false,
          "internalType": "uint32",
          "name": "destinationDomain",
          "type": "uint32"
        },
        {
          "indexed": false,
          "internalType": "address",
          "name": "peerStrategy",
          "type": "address"
        },
        {
          "indexed": false,
          "internalType": "uint32",
          "name": "minFinalityThreshold",
          "type": "uint32"
        },
        {
          "indexed": false,
          "internalType": "bytes",
          "name": "message",
          "type": "bytes"
        }
      ],
      "name": "MessageTransmitted",
      "type": "event"
    },
    {
      "anonymous": false,
      "inputs": [
        {
          "indexed": false,
          "internalType": "address",
          "name": "operator",
          "type": "address"
        }
      ],
      "name": "OperatorChanged",
      "type": "event"
    },
    {
      "anonymous": false,
      "inputs": [
        {
          "indexed": true,
          "internalType": "address",
          "name": "_asset",
          "type": "address"
        },
        {
          "indexed": false,
          "internalType": "address",
          "name": "_pToken",
          "type": "address"
        }
      ],
      "name": "PTokenAdded",
      "type": "event"
    },
    {
      "anonymous": false,
      "inputs": [
        {
          "indexed": true,
          "internalType": "address",
          "name": "_asset",
          "type": "address"
        },
        {
          "indexed": false,
          "internalType": "address",
          "name": "_pToken",
          "type": "address"
        }
      ],
      "name": "PTokenRemoved",
      "type": "event"
    },
    {
      "anonymous": false,
      "inputs": [
        {
          "indexed": true,
          "internalType": "address",
          "name": "previousGovernor",
          "type": "address"
        },
        {
          "indexed": true,
          "internalType": "address",
          "name": "newGovernor",
          "type": "address"
        }
      ],
      "name": "PendingGovernorshipTransfer",
      "type": "event"
    },
    {
      "anonymous": false,
      "inputs": [
        {
          "indexed": false,
          "internalType": "uint256",
          "name": "balance",
          "type": "uint256"
        }
      ],
      "name": "RemoteStrategyBalanceUpdated",
      "type": "event"
    },
    {
      "anonymous": false,
      "inputs": [
        {
          "indexed": false,
          "internalType": "address[]",
          "name": "_oldAddresses",
          "type": "address[]"
        },
        {
          "indexed": false,
          "internalType": "address[]",
          "name": "_newAddresses",
          "type": "address[]"
        }
      ],
      "name": "RewardTokenAddressesUpdated",
      "type": "event"
    },
    {
      "anonymous": false,
      "inputs": [
        {
          "indexed": false,
          "internalType": "address",
          "name": "recipient",
          "type": "address"
        },
        {
          "indexed": false,
          "internalType": "address",
          "name": "rewardToken",
          "type": "address"
        },
        {
          "indexed": false,
          "internalType": "uint256",
          "name": "amount",
          "type": "uint256"
        }
      ],
      "name": "RewardTokenCollected",
      "type": "event"
    },
    {
      "anonymous": false,
      "inputs": [
        {
          "indexed": false,
          "internalType": "uint32",
          "name": "destinationDomain",
          "type": "uint32"
        },
        {
          "indexed": false,
          "internalType": "address",
          "name": "peerStrategy",
          "type": "address"
        },
        {
          "indexed": false,
          "internalType": "address",
          "name": "tokenAddress",
          "type": "address"
        },
        {
          "indexed": false,
          "internalType": "uint256",
          "name": "tokenAmount",
          "type": "uint256"
        },
        {
          "indexed": false,
          "internalType": "uint256",
          "name": "maxFee",
          "type": "uint256"
        },
        {
          "indexed": false,
          "internalType": "uint32",
          "name": "minFinalityThreshold",
          "type": "uint32"
        },
        {
          "indexed": false,
          "internalType": "bytes",
          "name": "hookData",
          "type": "bytes"
        }
      ],
      "name": "TokensBridged",
      "type": "event"
    },
    {
      "anonymous": false,
      "inputs": [
        {
          "indexed": true,
          "internalType": "address",
          "name": "asset",
          "type": "address"
        },
        {
          "indexed": false,
          "internalType": "uint256",
          "name": "amount",
          "type": "uint256"
        }
      ],
      "name": "WithdrawRequested",
      "type": "event"
    },
    {
      "anonymous": false,
      "inputs": [
        {
          "indexed": true,
          "internalType": "address",
          "name": "_asset",
          "type": "address"
        },
        {
          "indexed": false,
          "internalType": "address",
          "name": "_pToken",
          "type": "address"
        },
        {
          "indexed": false,
          "internalType": "uint256",
          "name": "_amount",
          "type": "uint256"
        }
      ],
      "name": "Withdrawal",
      "type": "event"
    },
    {
      "inputs": [],
      "name": "MAX_TRANSFER_AMOUNT",
      "outputs": [
        {
          "internalType": "uint256",
          "name": "",
          "type": "uint256"
        }
      ],
      "stateMutability": "view",
      "type": "function"
    },
    {
      "inputs": [
        {
          "internalType": "address",
          "name": "",
          "type": "address"
        }
      ],
      "name": "assetToPToken",
      "outputs": [
        {
          "internalType": "address",
          "name": "",
          "type": "address"
        }
      ],
      "stateMutability": "view",
      "type": "function"
    },
    {
      "inputs": [],
      "name": "cctpMessageTransmitter",
      "outputs": [
        {
          "internalType": "contract ICCTPMessageTransmitter",
          "name": "",
          "type": "address"
        }
      ],
      "stateMutability": "view",
      "type": "function"
    },
    {
      "inputs": [],
      "name": "cctpTokenMessenger",
      "outputs": [
        {
          "internalType": "contract ICCTPTokenMessenger",
          "name": "",
          "type": "address"
        }
      ],
      "stateMutability": "view",
      "type": "function"
    },
    {
      "inputs": [
        {
          "internalType": "address",
          "name": "_asset",
          "type": "address"
        }
      ],
      "name": "checkBalance",
      "outputs": [
        {
          "internalType": "uint256",
          "name": "balance",
          "type": "uint256"
        }
      ],
      "stateMutability": "view",
      "type": "function"
    },
    {
      "inputs": [],
      "name": "claimGovernance",
      "outputs": [],
      "stateMutability": "nonpayable",
      "type": "function"
    },
    {
      "inputs": [],
      "name": "collectRewardTokens",
      "outputs": [],
      "stateMutability": "nonpayable",
      "type": "function"
    },
    {
      "inputs": [
        {
          "internalType": "address",
          "name": "_asset",
          "type": "address"
        },
        {
          "internalType": "uint256",
          "name": "_amount",
          "type": "uint256"
        }
      ],
      "name": "deposit",
      "outputs": [],
      "stateMutability": "nonpayable",
      "type": "function"
    },
    {
      "inputs": [],
      "name": "depositAll",
      "outputs": [],
      "stateMutability": "nonpayable",
      "type": "function"
    },
    {
      "inputs": [],
      "name": "feePremiumBps",
      "outputs": [
        {
          "internalType": "uint16",
          "name": "",
          "type": "uint16"
        }
      ],
      "stateMutability": "view",
      "type": "function"
    },
    {
      "inputs": [],
      "name": "getRewardTokenAddresses",
      "outputs": [
        {
          "internalType": "address[]",
          "name": "",
          "type": "address[]"
        }
      ],
      "stateMutability": "view",
      "type": "function"
    },
    {
      "inputs": [],
      "name": "governor",
      "outputs": [
        {
          "internalType": "address",
          "name": "",
          "type": "address"
        }
      ],
      "stateMutability": "view",
      "type": "function"
    },
    {
      "inputs": [
        {
          "internalType": "uint32",
          "name": "sourceDomain",
          "type": "uint32"
        },
        {
          "internalType": "bytes32",
          "name": "sender",
          "type": "bytes32"
        },
        {
          "internalType": "uint32",
          "name": "finalityThresholdExecuted",
          "type": "uint32"
        },
        {
          "internalType": "bytes",
          "name": "messageBody",
          "type": "bytes"
        }
      ],
      "name": "handleReceiveFinalizedMessage",
      "outputs": [
        {
          "internalType": "bool",
          "name": "",
          "type": "bool"
        }
      ],
      "stateMutability": "nonpayable",
      "type": "function"
    },
    {
      "inputs": [
        {
          "internalType": "uint32",
          "name": "sourceDomain",
          "type": "uint32"
        },
        {
          "internalType": "bytes32",
          "name": "sender",
          "type": "bytes32"
        },
        {
          "internalType": "uint32",
          "name": "finalityThresholdExecuted",
          "type": "uint32"
        },
        {
          "internalType": "bytes",
          "name": "messageBody",
          "type": "bytes"
        }
      ],
      "name": "handleReceiveUnfinalizedMessage",
      "outputs": [
        {
          "internalType": "bool",
          "name": "",
          "type": "bool"
        }
      ],
      "stateMutability": "nonpayable",
      "type": "function"
    },
    {
      "inputs": [],
      "name": "harvesterAddress",
      "outputs": [
        {
          "internalType": "address",
          "name": "",
          "type": "address"
        }
      ],
      "stateMutability": "view",
      "type": "function"
    },
    {
      "inputs": [
        {
          "internalType": "address",
          "name": "_operator",
          "type": "address"
        },
        {
          "internalType": "uint16",
          "name": "_minFinalityThreshold",
          "type": "uint16"
        },
        {
          "internalType": "uint16",
          "name": "_feePremiumBps",
          "type": "uint16"
        }
      ],
      "name": "initialize",
      "outputs": [],
      "stateMutability": "nonpayable",
      "type": "function"
    },
    {
      "inputs": [],
      "name": "isGovernor",
      "outputs": [
        {
          "internalType": "bool",
          "name": "",
          "type": "bool"
        }
      ],
      "stateMutability": "view",
      "type": "function"
    },
    {
      "inputs": [
        {
          "internalType": "uint64",
          "name": "nonce",
          "type": "uint64"
        }
      ],
      "name": "isNonceProcessed",
      "outputs": [
        {
          "internalType": "bool",
          "name": "",
          "type": "bool"
        }
      ],
      "stateMutability": "view",
      "type": "function"
    },
    {
      "inputs": [],
      "name": "isTransferPending",
      "outputs": [
        {
          "internalType": "bool",
          "name": "",
          "type": "bool"
        }
      ],
      "stateMutability": "view",
      "type": "function"
    },
    {
      "inputs": [],
      "name": "lastTransferNonce",
      "outputs": [
        {
          "internalType": "uint64",
          "name": "",
          "type": "uint64"
        }
      ],
      "stateMutability": "view",
      "type": "function"
    },
    {
      "inputs": [],
      "name": "minFinalityThreshold",
      "outputs": [
        {
          "internalType": "uint16",
          "name": "",
          "type": "uint16"
        }
      ],
      "stateMutability": "view",
      "type": "function"
    },
    {
      "inputs": [],
      "name": "operator",
      "outputs": [
        {
          "internalType": "address",
          "name": "",
          "type": "address"
        }
      ],
      "stateMutability": "view",
      "type": "function"
    },
    {
      "inputs": [],
      "name": "peerDomainID",
      "outputs": [
        {
          "internalType": "uint32",
          "name": "",
          "type": "uint32"
        }
      ],
      "stateMutability": "view",
      "type": "function"
    },
    {
      "inputs": [],
      "name": "peerStrategy",
      "outputs": [
        {
          "internalType": "address",
          "name": "",
          "type": "address"
        }
      ],
      "stateMutability": "view",
      "type": "function"
    },
    {
      "inputs": [],
      "name": "pendingAmount",
      "outputs": [
        {
          "internalType": "uint256",
          "name": "",
          "type": "uint256"
        }
      ],
      "stateMutability": "view",
      "type": "function"
    },
    {
      "inputs": [],
      "name": "platformAddress",
      "outputs": [
        {
          "internalType": "address",
          "name": "",
          "type": "address"
        }
      ],
      "stateMutability": "view",
      "type": "function"
    },
    {
      "inputs": [
        {
          "internalType": "bytes",
          "name": "message",
          "type": "bytes"
        },
        {
          "internalType": "bytes",
          "name": "attestation",
          "type": "bytes"
        }
      ],
      "name": "relay",
      "outputs": [],
      "stateMutability": "nonpayable",
      "type": "function"
    },
    {
      "inputs": [],
      "name": "remoteStrategyBalance",
      "outputs": [
        {
          "internalType": "uint256",
          "name": "",
          "type": "uint256"
        }
      ],
      "stateMutability": "view",
      "type": "function"
    },
    {
      "inputs": [
        {
          "internalType": "uint256",
          "name": "_assetIndex",
          "type": "uint256"
        }
      ],
      "name": "removePToken",
      "outputs": [],
      "stateMutability": "nonpayable",
      "type": "function"
    },
    {
      "inputs": [
        {
          "internalType": "uint256",
          "name": "",
          "type": "uint256"
        }
      ],
      "name": "rewardTokenAddresses",
      "outputs": [
        {
          "internalType": "address",
          "name": "",
          "type": "address"
        }
      ],
      "stateMutability": "view",
      "type": "function"
    },
    {
      "inputs": [],
      "name": "safeApproveAllTokens",
      "outputs": [],
      "stateMutability": "nonpayable",
      "type": "function"
    },
    {
      "inputs": [
        {
          "internalType": "uint16",
          "name": "_feePremiumBps",
          "type": "uint16"
        }
      ],
      "name": "setFeePremiumBps",
      "outputs": [],
      "stateMutability": "nonpayable",
      "type": "function"
    },
    {
      "inputs": [
        {
          "internalType": "address",
          "name": "_harvesterAddress",
          "type": "address"
        }
      ],
      "name": "setHarvesterAddress",
      "outputs": [],
      "stateMutability": "nonpayable",
      "type": "function"
    },
    {
      "inputs": [
        {
          "internalType": "uint16",
          "name": "_minFinalityThreshold",
          "type": "uint16"
        }
      ],
      "name": "setMinFinalityThreshold",
      "outputs": [],
      "stateMutability": "nonpayable",
      "type": "function"
    },
    {
      "inputs": [
        {
          "internalType": "address",
          "name": "_operator",
          "type": "address"
        }
      ],
      "name": "setOperator",
      "outputs": [],
      "stateMutability": "nonpayable",
      "type": "function"
    },
    {
      "inputs": [
        {
          "internalType": "address",
          "name": "_asset",
          "type": "address"
        },
        {
          "internalType": "address",
          "name": "_pToken",
          "type": "address"
        }
      ],
      "name": "setPTokenAddress",
      "outputs": [],
      "stateMutability": "nonpayable",
      "type": "function"
    },
    {
      "inputs": [
        {
          "internalType": "address[]",
          "name": "_rewardTokenAddresses",
          "type": "address[]"
        }
      ],
      "name": "setRewardTokenAddresses",
      "outputs": [],
      "stateMutability": "nonpayable",
      "type": "function"
    },
    {
      "inputs": [
        {
          "internalType": "address",
          "name": "_asset",
          "type": "address"
        }
      ],
      "name": "supportsAsset",
      "outputs": [
        {
          "internalType": "bool",
          "name": "",
          "type": "bool"
        }
      ],
      "stateMutability": "view",
      "type": "function"
    },
    {
      "inputs": [
        {
          "internalType": "address",
          "name": "_newGovernor",
          "type": "address"
        }
      ],
      "name": "transferGovernance",
      "outputs": [],
      "stateMutability": "nonpayable",
      "type": "function"
    },
    {
      "inputs": [
        {
          "internalType": "address",
          "name": "_asset",
          "type": "address"
        },
        {
          "internalType": "uint256",
          "name": "_amount",
          "type": "uint256"
        }
      ],
      "name": "transferToken",
      "outputs": [],
      "stateMutability": "nonpayable",
      "type": "function"
    },
    {
      "inputs": [],
      "name": "usdcToken",
      "outputs": [
        {
          "internalType": "address",
          "name": "",
          "type": "address"
        }
      ],
      "stateMutability": "view",
      "type": "function"
    },
    {
      "inputs": [],
      "name": "vaultAddress",
      "outputs": [
        {
          "internalType": "address",
          "name": "",
          "type": "address"
        }
      ],
      "stateMutability": "view",
      "type": "function"
    },
    {
      "inputs": [
        {
          "internalType": "address",
          "name": "_recipient",
          "type": "address"
        },
        {
          "internalType": "address",
          "name": "_asset",
          "type": "address"
        },
        {
          "internalType": "uint256",
          "name": "_amount",
          "type": "uint256"
        }
      ],
      "name": "withdraw",
      "outputs": [],
      "stateMutability": "nonpayable",
      "type": "function"
    },
    {
      "inputs": [],
      "name": "withdrawAll",
      "outputs": [],
      "stateMutability": "nonpayable",
      "type": "function"
    }
  ],
  "transactionHash": "0x9602fdf7d98bbdbf70ee0cf88e1e6f70cb52ab1ffee246c4c23fe5c0fab11e4b",
  "args": [
    [
      "0x0000000000000000000000000000000000000000",
      "0x58890A9cB27586E83Cb51d2d26bbE18a1a647245"
    ],
    [
      "0x28b5a0e9C621a5BadaA536219b3a228C8168cf5d",
      "0x81D40F21F12A8F0E3252Bccb954D722d4c464B64",
      6,
      "0x1743658b284a843b47f555343dBB628d46D0C254",
      "0xA0b86991c6218b36c1d19D4a2e9Eb0cE3606eB48"
    ]
  ],
  "numDeployments": 1,
  "solcInputHash": "01156982c07e502831037b4abf9e46b9",
  "bytecode": "0x61016060405234801561001157600080fd5b50604051614921380380614921833981016040819052610030916105aa565b6080810151829082906001600160a01b03166100935760405162461bcd60e51b815260206004820152601460248201527f496e76616c69642055534443206164647265737300000000000000000000000060448201526064015b60405180910390fd5b80516001600160a01b03166100e05760405162461bcd60e51b8152602060048201526013602482015272496e76616c6964204343545020636f6e66696760681b604482015260640161008a565b60208101516001600160a01b03166101305760405162461bcd60e51b8152602060048201526013602482015272496e76616c6964204343545020636f6e66696760681b604482015260640161008a565b60608101516001600160a01b031661018a5760405162461bcd60e51b815260206004820152601d60248201527f496e76616c696420706565722073747261746567792061646472657373000000604482015260640161008a565b60208101516001600160a01b0390811660809081528251821660a052604083015163ffffffff1660e05260608301518216610100528201805190911660c052516000906101d6906103ad565b905060006101ed836080015161048d60201b60201c565b90508160061461023f5760405162461bcd60e51b815260206004820152601d60248201527f4261736520746f6b656e20646563696d616c73206d7573742062652036000000604482015260640161008a565b604051635553444360e01b602082015260240160405160208183030381529060405280519060200120816040516020016102799190610699565b60405160208183030381529060405280519060200120146102dc5760405162461bcd60e51b815260206004820152601960248201527f546f6b656e2073796d626f6c206d757374206265205553444300000000000000604482015260640161008a565b505081516001600160a01b0390811661012052602090920151821661014052508251161561034c5760405162461bcd60e51b815260206004820152601860248201527f496e76616c696420706c6174666f726d20616464726573730000000000000000604482015260640161008a565b60208201516001600160a01b03166103a65760405162461bcd60e51b815260206004820152601560248201527f496e76616c6964205661756c7420616464726573730000000000000000000000604482015260640161008a565b505061076c565b600080826001600160a01b031663313ce5676040518163ffffffff1660e01b8152600401602060405180830381865afa1580156103ee573d6000803e3d6000fd5b505050506040513d601f19601f8201168201806040525081019061041291906106b5565b60ff16905060048110158015610429575060128111155b6104875760405162461bcd60e51b815260206004820152602960248201527f546f6b656e206d75737420686176652073756666696369656e7420646563696d604482015268616c20706c6163657360b81b606482015260840161008a565b92915050565b60606000826001600160a01b03166395d89b416040518163ffffffff1660e01b8152600401600060405180830381865afa1580156104cf573d6000803e3d6000fd5b505050506040513d6000823e601f3d908101601f191682016040526104f791908101906106d8565b9392505050565b634e487b7160e01b600052604160045260246000fd5b604080519081016001600160401b0381118282101715610536576105366104fe565b60405290565b60405160a081016001600160401b0381118282101715610536576105366104fe565b604051601f8201601f191681016001600160401b0381118282101715610586576105866104fe565b604052919050565b80516001600160a01b03811681146105a557600080fd5b919050565b60008082840360e08112156105be57600080fd5b60408112156105cc57600080fd5b6105d4610514565b6105dd8561058e565b81526105eb6020860161058e565b6020820152925060a0603f198201121561060457600080fd5b5061060d61053c565b6106196040850161058e565b81526106276060850161058e565b6020820152608084015163ffffffff8116811461064357600080fd5b604082015261065460a0850161058e565b606082015261066560c0850161058e565b6080820152809150509250929050565b60005b83811015610690578181015183820152602001610678565b50506000910152565b600082516106ab818460208701610675565b9190910192915050565b6000602082840312156106c757600080fd5b815160ff811681146104f757600080fd5b6000602082840312156106ea57600080fd5b81516001600160401b0381111561070057600080fd5b8201601f8101841361071157600080fd5b80516001600160401b0381111561072a5761072a6104fe565b61073d601f8201601f191660200161055e565b81815285602083850101111561075257600080fd5b610763826020830160208601610675565b95945050505050565b60805160a05160c05160e05161010051610120516101405161403c6108e5600039600081816103dc01528181610a26015281816112fe015281816118f90152818161196e01528181611a0c01526125450152600061068a01526000818161049b01528181610d6e01528181611de101528181612ca301528181612d7f01528181612f7d015261303301526000818161050301528181610b8601528181611d6d01528181612c8101528181612d5d01528181612f5b0152613011015260008181610317015281816105be015281816107650152818161109a015281816111040152818161141301528181611a9701528181611b1b0152818161200e0152818161245a0152818161252301528181612578015281816126d30152818161286e01528181612bad01528181612cc80152612da101526000818161058c01528181610c0801528181612bcf0152612c5101526000818161053f015281816107ff01528181610e12015281816111c80152612f2d015261403c6000f3fe608060405234801561001057600080fd5b50600436106102745760003560e01c80637b2d9b2c11610151578063ba1066ed116100c3578063d9caed1211610087578063d9caed1214610672578063dbe55e5614610685578063de5f6268146106ac578063ed42412b146106b4578063f6ca71b0146106bd578063fc1b3113146106d257600080fd5b8063ba1066ed14610609578063c2e1e3f414610612578063c7af335214610625578063d38bfff41461062d578063d7dd614b1461064057600080fd5b80639136616a116101155780639136616a1461056157806396d538bb146105745780639748cf7c14610587578063aa388af6146105ae578063ad1728cb146105ee578063b3ab15fb146105f657600080fd5b80637b2d9b2c146104d05780637c92f219146104e3578063853828b6146104f65780638949f6f3146104fe5780638c73eb041461053a57600080fd5b8063430bf08a116101ea5780635a063f63116101ae5780635a063f63146104525780635a2364171461045a5780635d36b1901461046d5780635f515226146104755780636369e49f1461049657806367c7066c146104bd57600080fd5b8063430bf08a146103d757806347e7ef24146103fe5780635324df3214610411578063564a515814610425578063570ca7351461043857600080fd5b806311eac8551161023c57806311eac8551461031257806316a0f250146103395780631801c4081461035a5780631c4b995a1461038557806323c9ab3d1461039857806342c8c11c146103c457600080fd5b80630c340a24146102795780630ed57b3a1461029e5780630fc3b4c4146102b35780631072cbea146102dc57806311cffb67146102ef575b600080fd5b6102816106df565b6040516001600160a01b0390911681526020015b60405180910390f35b6102b16102ac3660046136d6565b6106fc565b005b6102816102c136600461370f565b6067602052600090815260409020546001600160a01b031681565b6102b16102ea36600461372c565b610737565b6103026102fd366004613814565b6107f2565b6040519015158152602001610295565b6102817f000000000000000000000000000000000000000000000000000000000000000081565b6033546103479061ffff1681565b60405161ffff9091168152602001610295565b603354600160201b90046001600160401b031660009081526034602052604090205460ff1615610302565b6102b161039336600461388d565b6108d8565b6103026103a63660046138e7565b6001600160401b031660009081526034602052604090205460ff1690565b6102b16103d2366004613904565b6109eb565b6102817f000000000000000000000000000000000000000000000000000000000000000081565b6102b161040c36600461372c565b610a1b565b6033546103479062010000900461ffff1681565b6102b161043336600461391f565b610aac565b60335461028190600160601b90046001600160a01b031681565b6102b1610f30565b6102b1610468366004613904565b610fc3565b6102b1610ff0565b61048861048336600461370f565b611096565b604051908152602001610295565b6102817f000000000000000000000000000000000000000000000000000000000000000081565b606b54610281906001600160a01b031681565b6102816104de366004613986565b611191565b6103026104f1366004613814565b6111bb565b6102b16112f3565b6105257f000000000000000000000000000000000000000000000000000000000000000081565b60405163ffffffff9091168152602001610295565b6102817f000000000000000000000000000000000000000000000000000000000000000081565b6102b161056f366004613986565b611459565b6102b161058236600461399f565b611624565b6102817f000000000000000000000000000000000000000000000000000000000000000081565b6103026105bc36600461370f565b7f00000000000000000000000000000000000000000000000000000000000000006001600160a01b0390811691161490565b6102b161173b565b6102b161060436600461370f565b61175f565b61048860d05481565b6102b161062036600461370f565b61178c565b610302611819565b6102b161063b36600461370f565b61184a565b60335461065a90600160201b90046001600160401b031681565b6040516001600160401b039091168152602001610295565b6102b1610680366004613a14565b6118ee565b6102817f000000000000000000000000000000000000000000000000000000000000000081565b6102b1611a01565b61048860cf5481565b6106c5611b40565b6040516102959190613a55565b6104886509184e72a00081565b60006106f7600080516020613fe78339815191525490565b905090565b610704611819565b6107295760405162461bcd60e51b815260040161072090613aa1565b60405180910390fd5b6107338282611ba2565b5050565b61073f611819565b61075b5760405162461bcd60e51b815260040161072090613aa1565b6001600160a01b037f00000000000000000000000000000000000000000000000000000000000000008116908316036107d65760405162461bcd60e51b815260206004820152601f60248201527f43616e6e6f74207472616e7366657220737570706f72746564206173736574006044820152606401610720565b6107336107e16106df565b6001600160a01b0384169083611d01565b6000336001600160a01b037f0000000000000000000000000000000000000000000000000000000000000000161461086c5760405162461bcd60e51b815260206004820152601e60248201527f43616c6c6572206973206e6f742043435450207472616e736d697474657200006044820152606401610720565b6107d08363ffffffff1610156108c45760405162461bcd60e51b815260206004820152601a60248201527f46696e616c697479207468726573686f6c6420746f6f206c6f770000000000006044820152606401610720565b6108cf858584611d69565b95945050505050565b6108e0611819565b6108fc5760405162461bcd60e51b815260040161072090613aa1565b600054610100900460ff1680610915575060005460ff16155b6109785760405162461bcd60e51b815260206004820152602e60248201527f496e697469616c697a61626c653a20636f6e747261637420697320616c72656160448201526d191e481a5b9a5d1a585b1a5e995960921b6064820152608401610720565b600054610100900460ff1615801561099a576000805461ffff19166101011790555b6109a5848484611e62565b60408051600080825260208201818152828401918252606083019093529091906109d0838383611eb7565b50505080156109e5576000805461ff00191690555b50505050565b6109f3611819565b610a0f5760405162461bcd60e51b815260040161072090613aa1565b610a1881611f6a565b50565b336001600160a01b037f00000000000000000000000000000000000000000000000000000000000000001614610a635760405162461bcd60e51b815260040161072090613ad8565b600080516020613fc783398151915280546001198101610a955760405162461bcd60e51b815260040161072090613b0f565b60028255610aa3848461200c565b50600190555050565b603354600160601b90046001600160a01b03163314610b0d5760405162461bcd60e51b815260206004820152601a60248201527f43616c6c6572206973206e6f7420746865204f70657261746f720000000000006044820152606401610720565b6000806000806000610b1e876121ca565b94509450945094509450600163ffffffff168563ffffffff1614610b845760405162461bcd60e51b815260206004820152601c60248201527f496e76616c69642043435450206d6573736167652076657273696f6e000000006044820152606401610720565b7f000000000000000000000000000000000000000000000000000000000000000063ffffffff168463ffffffff1614610bf75760405162461bcd60e51b81526020600482015260156024820152742ab735b737bbb71029b7bab931b2902237b6b0b4b760591b6044820152606401610720565b610c02816000612220565b945060007f00000000000000000000000000000000000000000000000000000000000000006001600160a01b0316846001600160a01b03161490508015610cbd578563ffffffff166001148015610c5b5750815160e411155b610c9e5760405162461bcd60e51b8152602060048201526014602482015273496e76616c6964206275726e206d65737361676560601b6044820152606401610720565b610ca982606461223f565b9350610cb682602461223f565b9250610d14565b63ffffffff86166103f214610d145760405162461bcd60e51b815260206004820152601b60248201527f556e737570706f72746564206d6573736167652076657273696f6e00000000006044820152606401610720565b306001600160a01b03841614610d6c5760405162461bcd60e51b815260206004820152601c60248201527f556e657870656374656420726563697069656e742061646472657373000000006044820152606401610720565b7f00000000000000000000000000000000000000000000000000000000000000006001600160a01b0316846001600160a01b031614610df85760405162461bcd60e51b815260206004820152602260248201527f496e636f72726563742073656e6465722f726563697069656e74206164647265604482015261737360f01b6064820152608401610720565b604051630afd9fa560e31b81526000906001600160a01b037f000000000000000000000000000000000000000000000000000000000000000016906357ecfd2890610e49908c908c90600401613b87565b6020604051808303816000875af1158015610e68573d6000803e3d6000fd5b505050506040513d601f19601f82011682018060405250810190610e8c9190613bbc565b905080610ed45760405162461bcd60e51b8152602060048201526016602482015275149958d95a5d99481b595cdcd859d94819985a5b195960521b6044820152606401610720565b8115610f25578251600090610eed90859060e490612259565b90506000610efc8560446123b3565b90506000610f0b8660a46123b3565b9050610f21610f1a8284613bed565b82856123cd565b5050505b505050505050505050565b606b546001600160a01b03163314610f8a5760405162461bcd60e51b815260206004820152601b60248201527f43616c6c6572206973206e6f74207468652048617276657374657200000000006044820152606401610720565b600080516020613fc783398151915280546001198101610fbc5760405162461bcd60e51b815260040161072090613b0f565b5060019055565b610fcb611819565b610fe75760405162461bcd60e51b815260040161072090613aa1565b610a18816125d5565b7f44c4d30b2eaad5130ad70c3ba6972730566f3e6359ab83e800d905c61b1c51db546001600160a01b0316336001600160a01b03161461108b5760405162461bcd60e51b815260206004820152603060248201527f4f6e6c79207468652070656e64696e6720476f7665726e6f722063616e20636f60448201526f6d706c6574652074686520636c61696d60801b6064820152608401610720565b61109433612672565b565b60007f00000000000000000000000000000000000000000000000000000000000000006001600160a01b0316826001600160a01b0316146110e95760405162461bcd60e51b815260040161072090613c00565b60cf5460d0546040516370a0823160e01b81523060048201527f00000000000000000000000000000000000000000000000000000000000000006001600160a01b0316906370a0823190602401602060405180830381865afa158015611153573d6000803e3d6000fd5b505050506040513d601f19601f820116820180604052508101906111779190613c2b565b6111819190613c44565b61118b9190613c44565b92915050565b606c81815481106111a157600080fd5b6000918252602090912001546001600160a01b0316905081565b6000336001600160a01b037f000000000000000000000000000000000000000000000000000000000000000016146112355760405162461bcd60e51b815260206004820152601e60248201527f43616c6c6572206973206e6f742043435450207472616e736d697474657200006044820152606401610720565b60335461ffff166103e81461129b5760405162461bcd60e51b815260206004820152602660248201527f556e66696e616c697a6564206d6573736167657320617265206e6f74207375706044820152651c1bdc9d195960d21b6064820152608401610720565b6103e88363ffffffff1610156108c45760405162461bcd60e51b815260206004820152601a60248201527f46696e616c697479207468726573686f6c6420746f6f206c6f770000000000006044820152606401610720565b336001600160a01b037f0000000000000000000000000000000000000000000000000000000000000000161480611342575061132d6106df565b6001600160a01b0316336001600160a01b0316145b61139a5760405162461bcd60e51b815260206004820152602360248201527f43616c6c6572206973206e6f7420746865205661756c74206f7220476f7665726044820152623737b960e91b6064820152608401610720565b600080516020613fc7833981519152805460011981016113cc5760405162461bcd60e51b815260040161072090613b0f565b60028255603354600160201b90046001600160401b031660009081526034602052604090205460ff1615610fbc5760cf54620f424081101561140e5750610fbc565b6114517f00000000000000000000000000000000000000000000000000000000000000006509184e72a000831161144557826126d1565b6509184e72a0006126d1565b505060019055565b611461611819565b61147d5760405162461bcd60e51b815260040161072090613aa1565b60685481106114be5760405162461bcd60e51b815260206004820152600d60248201526c092dcecc2d8d2c840d2dcc8caf609b1b6044820152606401610720565b6000606882815481106114d3576114d3613c57565b60009182526020808320909101546001600160a01b0390811680845260679092526040909220546068549193509091169061151090600190613bed565b831015611592576068805461152790600190613bed565b8154811061153757611537613c57565b600091825260209091200154606880546001600160a01b03909216918590811061156357611563613c57565b9060005260206000200160006101000a8154816001600160a01b0302191690836001600160a01b031602179055505b60688054806115a3576115a3613c6d565b60008281526020808220600019908401810180546001600160a01b031990811690915593019093556001600160a01b038581168083526067855260409283902080549094169093559051908416815290917f16b7600acff27e39a8a96056b3d533045298de927507f5c1d97e4accde60488c910160405180910390a2505050565b61162c611819565b6116485760405162461bcd60e51b815260040161072090613aa1565b8060005b818110156116f257600084848381811061166857611668613c57565b905060200201602081019061167d919061370f565b6001600160a01b0316036116ea5760405162461bcd60e51b815260206004820152602e60248201527f43616e206e6f742073657420616e20656d70747920616464726573732061732060448201526d30903932bbb0b932103a37b5b2b760911b6064820152608401610720565b60010161164c565b507f04c0b9649497d316554306e53678d5f5f5dbc3a06f97dec13ff4cfe98b986bbc606c848460405161172793929190613c83565b60405180910390a16109e5606c84846135f4565b611743611819565b610f8a5760405162461bcd60e51b815260040161072090613aa1565b611767611819565b6117835760405162461bcd60e51b815260040161072090613aa1565b610a18816128c7565b611794611819565b6117b05760405162461bcd60e51b815260040161072090613aa1565b606b54604080516001600160a01b03928316815291831660208301527fe48386b84419f4d36e0f96c10cc3510b6fb1a33795620c5098b22472bbe90796910160405180910390a1606b80546001600160a01b0319166001600160a01b0392909216919091179055565b6000611831600080516020613fe78339815191525490565b6001600160a01b0316336001600160a01b031614905090565b611852611819565b61186e5760405162461bcd60e51b815260040161072090613aa1565b611896817f44c4d30b2eaad5130ad70c3ba6972730566f3e6359ab83e800d905c61b1c51db55565b806001600160a01b03166118b6600080516020613fe78339815191525490565b6001600160a01b03167fa39cc5eb22d0f34d8beaefee8a3f17cc229c1a1d1ef87a5ad47313487b1c4f0d60405160405180910390a350565b336001600160a01b037f000000000000000000000000000000000000000000000000000000000000000016146119365760405162461bcd60e51b815260040161072090613ad8565b600080516020613fc7833981519152805460011981016119685760405162461bcd60e51b815260040161072090613b0f565b600282557f00000000000000000000000000000000000000000000000000000000000000006001600160a01b0316856001600160a01b0316146119ed5760405162461bcd60e51b815260206004820152601760248201527f4f6e6c79205661756c742063616e2077697468647261770000000000000000006044820152606401610720565b6119f784846126d1565b5060019055505050565b336001600160a01b037f00000000000000000000000000000000000000000000000000000000000000001614611a495760405162461bcd60e51b815260040161072090613ad8565b600080516020613fc783398151915280546001198101611a7b5760405162461bcd60e51b815260040161072090613b0f565b600282556040516370a0823160e01b81523060048201526000907f00000000000000000000000000000000000000000000000000000000000000006001600160a01b0316906370a0823190602401602060405180830381865afa158015611ae6573d6000803e3d6000fd5b505050506040513d601f19601f82011682018060405250810190611b0a9190613c2b565b9050620f42408110611451576114517f00000000000000000000000000000000000000000000000000000000000000008261200c565b6060606c805480602002602001604051908101604052809291908181526020018280548015611b9857602002820191906000526020600020905b81546001600160a01b03168152600190910190602001808311611b7a575b5050505050905090565b6001600160a01b038281166000908152606760205260409020541615611bff5760405162461bcd60e51b81526020600482015260126024820152711c151bdad95b88185b1c9958591e481cd95d60721b6044820152606401610720565b6001600160a01b03821615801590611c1f57506001600160a01b03811615155b611c5f5760405162461bcd60e51b8152602060048201526011602482015270496e76616c69642061646472657373657360781b6044820152606401610720565b6001600160a01b03828116600081815260676020908152604080832080549587166001600160a01b031996871681179091556068805460018101825594527fa2153420d844928b4421650203c77babc8b33d7f2e7b450e2966db0c2209775390930180549095168417909455925190815290917fef6485b84315f9b1483beffa32aae9a0596890395e3d7521f1c5fbb51790e765910160405180910390a25050565b6040516001600160a01b038316602482015260448101829052611d6490849063a9059cbb60e01b906064015b60408051601f198184030181529190526020810180516001600160e01b03166001600160e01b031990931692909217909152612922565b505050565b60007f000000000000000000000000000000000000000000000000000000000000000063ffffffff168463ffffffff1614611dde5760405162461bcd60e51b81526020600482015260156024820152742ab735b737bbb71029b7bab931b2902237b6b0b4b760591b6044820152606401610720565b827f00000000000000000000000000000000000000000000000000000000000000006001600160a01b0390811690821614611e4c5760405162461bcd60e51b815260206004820152600e60248201526d2ab735b737bbb71029b2b73232b960911b6044820152606401610720565b611e55836129f4565b60019150505b9392505050565b611e6b836128c7565b611e74826125d5565b611e7d81611f6a565b5050600080525060346020527f2dc2afdad33a5feea586a9545052327b65d28efb10d11fa69e77da986a1031cd805460ff19166001179055565b8251611eca90606c906020860190613657565b50815181518114611f145760405162461bcd60e51b8152602060048201526014602482015273496e76616c696420696e7075742061727261797360601b6044820152606401610720565b60005b81811015611f6357611f5b848281518110611f3457611f34613c57565b6020026020010151848381518110611f4e57611f4e613c57565b6020026020010151611ba2565b600101611f17565b5050505050565b610bb88161ffff161115611fb75760405162461bcd60e51b815260206004820152601460248201527308ccaca40e0e4cadad2eada40e8dede40d0d2ced60631b6044820152606401610720565b6033805463ffff000019166201000061ffff8416908102919091179091556040519081527f938c72cb9ba014c7d4d26f156021299f8926dee2aab1421b32a2408a8261cf60906020015b60405180910390a150565b7f00000000000000000000000000000000000000000000000000000000000000006001600160a01b0316826001600160a01b03161461205d5760405162461bcd60e51b815260040161072090613c00565b60d054156120ad5760405162461bcd60e51b815260206004820152601960248201527f556e65787065637465642070656e64696e6720616d6f756e74000000000000006044820152606401610720565b620f42408110156121005760405162461bcd60e51b815260206004820152601860248201527f4465706f73697420616d6f756e7420746f6f20736d616c6c00000000000000006044820152606401610720565b6509184e72a0008111156121565760405162461bcd60e51b815260206004820152601760248201527f4465706f73697420616d6f756e7420746f6f20686967680000000000000000006044820152606401610720565b6000612160612a52565b60d0839055905060006121738284612af6565b905061217f8382612b52565b604080516001600160a01b03861680825260208201869052917f5548c837ab068cf56a2c2479df0882a4922fd203edb7517321831d95078c5f6291015b60405180910390a250505050565b600080808060606121db8683612220565b94506121e8866004612220565b93506121f586602c61223f565b925061220286604c61223f565b8651909250612215908790609490612259565b905091939590929450565b6000611e5b61223a8484612235600482613c44565b612259565b612dde565b6000611e5b6122548484612235602082613c44565b612e14565b6060828210156122a15760405162461bcd60e51b8152602060048201526013602482015272496e76616c696420736c6963652072616e676560681b6044820152606401610720565b83518211156122f25760405162461bcd60e51b815260206004820152601d60248201527f536c69636520656e6420657863656564732064617461206c656e6774680000006044820152606401610720565b60006122fe8484613bed565b90506000816001600160401b0381111561231a5761231a613771565b6040519080825280601f01601f191660200182016040528015612344576020820181803683370190505b50905060005b828110156123a9578661235d8288613c44565b8151811061236d5761236d613c57565b602001015160f81c60f81b82828151811061238a5761238a613c57565b60200101906001600160f81b031916908160001a90535060010161234a565b5095945050505050565b6000611e5b6123c88484612235602082613c44565b612e4b565b603354600160201b90046001600160401b031660008181526034602052604090205460ff16156124395760405162461bcd60e51b8152602060048201526017602482015276139bdb98d948185b1c9958591e481c1c9bd8d95cdcd959604a1b6044820152606401610720565b612442826129f4565b6040516370a0823160e01b81523060048201526000907f00000000000000000000000000000000000000000000000000000000000000006001600160a01b0316906370a0823190602401602060405180830381865afa1580156124a9573d6000803e3d6000fd5b505050506040513d601f19601f820116820180604052508101906124cd9190613c2b565b9050848110156125165760405162461bcd60e51b8152602060048201526014602482015273496e73756666696369656e742062616c616e636560601b6044820152606401610720565b61256a6001600160a01b037f0000000000000000000000000000000000000000000000000000000000000000167f000000000000000000000000000000000000000000000000000000000000000083611d01565b604080516001600160a01b037f00000000000000000000000000000000000000000000000000000000000000001680825260208201849052917f2717ead6b9200dd235aad468c9809ea400fe33ac69b5bfaa6d3e90fc922b6398910160405180910390a25050505050565b8061ffff166103e814806125ee57508061ffff166107d0145b61262e5760405162461bcd60e51b8152602060048201526011602482015270125b9d985b1a59081d1a1c995cda1bdb19607a1b6044820152606401610720565b6033805461ffff191661ffff83169081179091556040519081527fe8fbd074d54232549e55ac463e02d202c16b1023e5d6aae276b3d8391b8c14bc90602001612001565b6001600160a01b0381166126c85760405162461bcd60e51b815260206004820152601a60248201527f4e657720476f7665726e6f7220697320616464726573732830290000000000006044820152606401610720565b610a1881612e82565b7f00000000000000000000000000000000000000000000000000000000000000006001600160a01b0316826001600160a01b0316146127225760405162461bcd60e51b815260040161072090613c00565b620f42408110156127755760405162461bcd60e51b815260206004820152601960248201527f576974686472617720616d6f756e7420746f6f20736d616c6c000000000000006044820152606401610720565b60cf548111156127df5760405162461bcd60e51b815260206004820152602f60248201527f576974686472617720616d6f756e7420657863656564732072656d6f7465207360448201526e747261746567792062616c616e636560881b6064820152608401610720565b6509184e72a0008111156128495760405162461bcd60e51b815260206004820152602b60248201527f576974686472617720616d6f756e742065786365656473206d6178207472616e60448201526a1cd9995c88185b5bdd5b9d60aa1b6064820152608401610720565b6000612853612a52565b905060006128618284612ee9565b905061286c81612f13565b7f00000000000000000000000000000000000000000000000000000000000000006001600160a01b03167ff7774b688d56120b783560a913ee60792a73dfd511812b7be5eccf10d08c6689846040516121bc91815260200190565b603380546bffffffffffffffffffffffff16600160601b6001600160a01b038416908102919091179091556040519081527f4721129e0e676ed6a92909bb24e853ccdd63ad72280cc2e974e38e480e0e6e5490602001612001565b6000612977826040518060400160405280602081526020017f5361666545524332303a206c6f772d6c6576656c2063616c6c206661696c6564815250856001600160a01b03166130619092919063ffffffff16565b805190915015611d6457808060200190518101906129959190613bbc565b611d645760405162461bcd60e51b815260206004820152602a60248201527f5361666545524332303a204552433230206f7065726174696f6e20646964206e6044820152691bdd081cdd58d8d9595960b21b6064820152608401610720565b60036129ff82613078565b63ffffffff1603612a1357610a1881613085565b60405162461bcd60e51b8152602060048201526014602482015273556e6b6e6f776e206d657373616765207479706560601b6044820152606401610720565b603354600160201b90046001600160401b031660008181526034602052604081205490919060ff16612abf5760405162461bcd60e51b81526020600482015260166024820152752832b73234b733903a37b5b2b7103a3930b739b332b960511b6044820152606401610720565b612aca816001613d1e565b603380546bffffffffffffffff000000001916600160201b6001600160401b0384160217905592915050565b604080516001600160401b03841660208201529081018290526060906103f29060019083015b60408051601f1981840301815290829052612b3b939291602001613d3d565b604051602081830303815290604052905092915050565b6509184e72a000821115612ba05760405162461bcd60e51b81526020600482015260156024820152740a8ded6cadc40c2dadeeadce840e8dede40d0d2ced605b1b6044820152606401610720565b612bf46001600160a01b037f0000000000000000000000000000000000000000000000000000000000000000167f00000000000000000000000000000000000000000000000000000000000000008461314d565b60335460009062010000900461ffff16612c0f576000612c34565b60335461271090612c2a9062010000900461ffff1685613d82565b612c349190613d99565b60335460405163779b432d60e01b81529192506001600160a01b037f000000000000000000000000000000000000000000000000000000000000000081169263779b432d92612cfd9288927f0000000000000000000000000000000000000000000000000000000000000000927f0000000000000000000000000000000000000000000000000000000000000000909216917f00000000000000000000000000000000000000000000000000000000000000009183918a9161ffff909116908c90600401613dbb565b600060405180830381600087803b158015612d1757600080fd5b505af1158015612d2b573d6000803e3d6000fd5b50506033546040517f149007d4a77eb98d041de59e6ca469bd27b351b74f16c4d0648978322a1b8a779350612dd192507f0000000000000000000000000000000000000000000000000000000000000000917f0000000000000000000000000000000000000000000000000000000000000000917f0000000000000000000000000000000000000000000000000000000000000000918991889161ffff16908a90613e1c565b60405180910390a1505050565b60008151600414612e015760405162461bcd60e51b815260040161072090613e77565b60e0612e0c83613ea4565b901c92915050565b60008151602014612e375760405162461bcd60e51b815260040161072090613e77565b8180602001905181019061118b9190613ecb565b60008151602014612e6e5760405162461bcd60e51b815260040161072090613e77565b8180602001905181019061118b9190613c2b565b806001600160a01b0316612ea2600080516020613fe78339815191525490565b6001600160a01b03167fc7c0c772add429241571afb3805861fb3cfa2af374534088b76cdb4325a87e9a60405160405180910390a3600080516020613fe783398151915255565b604080516001600160401b03841660208201529081018290526060906103f2906002908301612b1c565b6033546040516314b157ab60e01b81526001600160a01b037f00000000000000000000000000000000000000000000000000000000000000008116926314b157ab92612fb1927f0000000000000000000000000000000000000000000000000000000000000000927f000000000000000000000000000000000000000000000000000000000000000090911691829161ffff16908890600401613ee8565b600060405180830381600087803b158015612fcb57600080fd5b505af1158015612fdf573d6000803e3d6000fd5b50506033546040517f90d92e80437532a834bc16642d235a7c34efc4d5690f3f6e69794c6d8c5c7290935061200192507f0000000000000000000000000000000000000000000000000000000000000000917f00000000000000000000000000000000000000000000000000000000000000009161ffff909116908690613f1f565b60606130708484600085613262565b949350505050565b600061118b826004612220565b60008060006130938461338a565b60335492955090935091506001600160401b03600160201b909104811690841681146130c0575050505050565b603354600160201b90046001600160401b031660009081526034602052604090205460ff1615801561310d578215613105576130fb856133cb565b600060d05561310d565b505050505050565b60cf8490556040518481527f1cc993845fe77d504bd0e3391d651586e84db1cefbcdd9b4f85e8ed1c1f13c109060200160405180910390a1505050505050565b8015806131c75750604051636eb1769f60e11b81523060048201526001600160a01b03838116602483015284169063dd62ed3e90604401602060405180830381865afa1580156131a1573d6000803e3d6000fd5b505050506040513d601f19601f820116820180604052508101906131c59190613c2b565b155b6132325760405162461bcd60e51b815260206004820152603660248201527f5361666545524332303a20617070726f76652066726f6d206e6f6e2d7a65726f60448201527520746f206e6f6e2d7a65726f20616c6c6f77616e636560501b6064820152608401610720565b6040516001600160a01b038316602482015260448101829052611d6490849063095ea7b360e01b90606401611d2d565b6060824710156132c35760405162461bcd60e51b815260206004820152602660248201527f416464726573733a20696e73756666696369656e742062616c616e636520666f6044820152651c8818d85b1b60d21b6064820152608401610720565b843b6133115760405162461bcd60e51b815260206004820152601d60248201527f416464726573733a2063616c6c20746f206e6f6e2d636f6e74726163740000006044820152606401610720565b600080866001600160a01b0316858760405161332d9190613f61565b60006040518083038185875af1925050503d806000811461336a576040519150601f19603f3d011682016040523d82523d6000602084013e61336f565b606091505b509150915061337f8282866134dd565b979650505050505050565b600080600061339a846003613516565b60008060006133a8876135cf565b8060200190518101906133bb9190613f7d565b9199909850909650945050505050565b6033546001600160401b03600160201b90910481169082168111156134225760405162461bcd60e51b815260206004820152600d60248201526c4e6f6e636520746f6f206c6f7760981b6044820152606401610720565b6001600160401b03821660009081526034602052604090205460ff16156134855760405162461bcd60e51b8152602060048201526017602482015276139bdb98d948185b1c9958591e481c1c9bd8d95cdcd959604a1b6044820152606401610720565b6001600160401b038083166000818152603460205260409020805460ff191660011790559082161461073357603380546001600160401b038416600160201b026bffffffffffffffff00000000199091161790555050565b606083156134ec575081611e5b565b8251156134fc5782518084602001fd5b8160405162461bcd60e51b81526004016107209190613fb3565b6103f2613522836135e8565b63ffffffff16146135755760405162461bcd60e51b815260206004820152601e60248201527f496e76616c6964204f726967696e204d6573736167652056657273696f6e00006044820152606401610720565b8063ffffffff1661358583613078565b63ffffffff16146107335760405162461bcd60e51b8152602060048201526014602482015273496e76616c6964204d657373616765207479706560601b6044820152606401610720565b606061118b60088351846122599092919063ffffffff16565b600061118b8282612220565b828054828255906000526020600020908101928215613647579160200282015b828111156136475781546001600160a01b0319166001600160a01b03843516178255602090920191600190910190613614565b506136539291506136ac565b5090565b828054828255906000526020600020908101928215613647579160200282015b8281111561364757825182546001600160a01b0319166001600160a01b03909116178255602090920191600190910190613677565b5b8082111561365357600081556001016136ad565b6001600160a01b0381168114610a1857600080fd5b600080604083850312156136e957600080fd5b82356136f4816136c1565b91506020830135613704816136c1565b809150509250929050565b60006020828403121561372157600080fd5b8135611e5b816136c1565b6000806040838503121561373f57600080fd5b823561374a816136c1565b946020939093013593505050565b803563ffffffff8116811461376c57600080fd5b919050565b634e487b7160e01b600052604160045260246000fd5b600082601f83011261379857600080fd5b81356001600160401b038111156137b1576137b1613771565b604051601f8201601f19908116603f011681016001600160401b03811182821017156137df576137df613771565b6040528181528382016020018510156137f757600080fd5b816020850160208301376000918101602001919091529392505050565b6000806000806080858703121561382a57600080fd5b61383385613758565b93506020850135925061384860408601613758565b915060608501356001600160401b0381111561386357600080fd5b61386f87828801613787565b91505092959194509250565b803561ffff8116811461376c57600080fd5b6000806000606084860312156138a257600080fd5b83356138ad816136c1565b92506138bb6020850161387b565b91506138c96040850161387b565b90509250925092565b6001600160401b0381168114610a1857600080fd5b6000602082840312156138f957600080fd5b8135611e5b816138d2565b60006020828403121561391657600080fd5b611e5b8261387b565b6000806040838503121561393257600080fd5b82356001600160401b0381111561394857600080fd5b61395485828601613787565b92505060208301356001600160401b0381111561397057600080fd5b61397c85828601613787565b9150509250929050565b60006020828403121561399857600080fd5b5035919050565b600080602083850312156139b257600080fd5b82356001600160401b038111156139c857600080fd5b8301601f810185136139d957600080fd5b80356001600160401b038111156139ef57600080fd5b8560208260051b8401011115613a0457600080fd5b6020919091019590945092505050565b600080600060608486031215613a2957600080fd5b8335613a34816136c1565b92506020840135613a44816136c1565b929592945050506040919091013590565b602080825282518282018190526000918401906040840190835b81811015613a965783516001600160a01b0316835260209384019390920191600101613a6f565b509095945050505050565b6020808252601a908201527f43616c6c6572206973206e6f742074686520476f7665726e6f72000000000000604082015260600190565b60208082526017908201527f43616c6c6572206973206e6f7420746865205661756c74000000000000000000604082015260600190565b6020808252600e908201526d1499595b9d1c985b9d0818d85b1b60921b604082015260600190565b60005b83811015613b52578181015183820152602001613b3a565b50506000910152565b60008151808452613b73816020860160208601613b37565b601f01601f19169290920160200192915050565b604081526000613b9a6040830185613b5b565b82810360208401526108cf8185613b5b565b8051801515811461376c57600080fd5b600060208284031215613bce57600080fd5b611e5b82613bac565b634e487b7160e01b600052601160045260246000fd5b8181038181111561118b5761118b613bd7565b602080825260119082015270155b9cdd5c1c1bdc9d195908185cdcd95d607a1b604082015260600190565b600060208284031215613c3d57600080fd5b5051919050565b8082018082111561118b5761118b613bd7565b634e487b7160e01b600052603260045260246000fd5b634e487b7160e01b600052603160045260246000fd5b6040808252845490820181905260008581526020812090916060840190835b81811015613cc95783546001600160a01b0316835260019384019360209093019201613ca2565b50508381036020808601919091528582520190508460005b85811015613d12578135613cf4816136c1565b6001600160a01b031683526020928301929190910190600101613ce1565b50909695505050505050565b6001600160401b03818116838216019081111561118b5761118b613bd7565b63ffffffff60e01b8460e01b16815263ffffffff60e01b8360e01b16600482015260008251613d73816008850160208701613b37565b91909101600801949350505050565b808202811582820484141761118b5761118b613bd7565b600082613db657634e487b7160e01b600052601260045260246000fd5b500490565b88815263ffffffff8816602082015286604082015260018060a01b03861660608201528460808201528360a082015263ffffffff831660c082015261010060e08201526000613e0e610100830184613b5b565b9a9950505050505050505050565b63ffffffff88811682526001600160a01b038881166020840152871660408301526060820186905260808201859052831660a082015260e060c08201819052600090613e6a90830184613b5b565b9998505050505050505050565b602080825260139082015272092dcecc2d8d2c840c8c2e8c240d8cadccee8d606b1b604082015260600190565b80516020808301519190811015613ec5576000198160200360031b1b821691505b50919050565b600060208284031215613edd57600080fd5b8151611e5b816136c1565b63ffffffff8616815284602082015283604082015263ffffffff8316606082015260a06080820152600061337f60a0830184613b5b565b63ffffffff85811682526001600160a01b038516602083015283166040820152608060608201819052600090613f5790830184613b5b565b9695505050505050565b60008251613f73818460208701613b37565b9190910192915050565b600080600060608486031215613f9257600080fd5b8351613f9d816138d2565b602085015190935091506138c960408501613bac565b602081526000611e5b6020830184613b5b56fe53bf423e48ed90e97d02ab0ebab13b2a235a6bfbe9c321847d5c175333ac45357bea13895fa79d2831e0a9e28edede30099005a50d652d8957cf8a607ee6ca4aa26469706673582212206bc012d57b6866c132e2ec3ea39c5a6f9cbe528d2180552c7e991e5ab7396e0664736f6c634300081c0033",
  "libraries": {},
  "devdoc": {
    "kind": "dev",
    "methods": {
      "checkBalance(address)": {
        "params": {
          "_asset": "Address of the asset to check"
        },
        "returns": {
          "balance": "Total balance of the asset"
        }
      },
      "constructor": {
        "params": {
          "_stratConfig": "The platform and OToken vault addresses"
        }
      },
      "deposit(address,uint256)": {
        "params": {
          "_amount": "Units of asset to deposit",
          "_asset": "Address for the asset"
        }
      },
      "getRewardTokenAddresses()": {
        "returns": {
          "_0": "address[] the reward token addresses."
        }
      },
      "handleReceiveFinalizedMessage(uint32,bytes32,uint32,bytes)": {
        "details": "Handles a finalized CCTP message",
        "params": {
          "finalityThresholdExecuted": "Fidelity threshold executed",
          "messageBody": "Message body",
          "sender": "Sender of the message",
          "sourceDomain": "Source domain of the message"
        }
      },
      "handleReceiveUnfinalizedMessage(uint32,bytes32,uint32,bytes)": {
        "details": "Handles an unfinalized but safe CCTP message",
        "params": {
          "finalityThresholdExecuted": "Fidelity threshold executed",
          "messageBody": "Message body",
          "sender": "Sender of the message",
          "sourceDomain": "Source domain of the message"
        }
      },
      "initialize(address,uint16,uint16)": {
        "details": "Initialize the strategy implementation",
        "params": {
          "_feePremiumBps": "Fee premium in basis points",
          "_minFinalityThreshold": "Minimum finality threshold",
          "_operator": "Address of the operator"
        }
      },
      "isNonceProcessed(uint64)": {
        "details": "Checks if a given nonce is processed.      Nonce starts at 1, so 0 is disregarded.",
        "params": {
          "nonce": "Nonce to check"
        },
        "returns": {
          "_0": "True if the nonce is processed, false otherwise"
        }
      },
      "isTransferPending()": {
        "details": "Checks if the last known transfer is pending.      Nonce starts at 1, so 0 is disregarded.",
        "returns": {
          "_0": "True if a transfer is pending, false otherwise"
        }
      },
      "relay(bytes,bytes)": {
        "details": "Receives a message from the peer strategy on the other chain,      does some basic checks and relays it to the local MessageTransmitterV2.      If the message is a burn message, it will also handle the hook data      and call the _onTokenReceived function.",
        "params": {
          "attestation": "Attestation of the message",
          "message": "Payload of the message to send"
        }
      },
      "removePToken(uint256)": {
        "params": {
          "_assetIndex": "Index of the asset to be removed"
        }
      },
      "setFeePremiumBps(uint16)": {
        "details": "Set the fee premium in basis points.      Cannot be higher than 30% (3000 basis points).",
        "params": {
          "_feePremiumBps": "Fee premium in basis points"
        }
      },
      "setHarvesterAddress(address)": {
        "params": {
          "_harvesterAddress": "Address of the harvester contract."
        }
      },
      "setMinFinalityThreshold(uint16)": {
        "details": "Set the minimum finality threshold at which      the message is considered to be finalized to relay.      Only accepts a value of 1000 (Safe, after 1 epoch) or      2000 (Finalized, after 2 epochs).",
        "params": {
          "_minFinalityThreshold": "Minimum finality threshold"
        }
      },
      "setOperator(address)": {
        "details": "Set the operator address",
        "params": {
          "_operator": "Operator address"
        }
      },
      "setPTokenAddress(address,address)": {
        "params": {
          "_asset": "Address for the asset",
          "_pToken": "Address for the corresponding platform token"
        }
      },
      "setRewardTokenAddresses(address[])": {
        "params": {
          "_rewardTokenAddresses": "Array of reward token addresses"
        }
      },
      "supportsAsset(address)": {
        "params": {
          "_asset": "Address of the asset"
        },
        "returns": {
          "_0": "bool     Whether asset is supported"
        }
      },
      "transferGovernance(address)": {
        "params": {
          "_newGovernor": "Address of the new Governor"
        }
      },
      "transferToken(address,uint256)": {
        "params": {
          "_amount": "Amount of the asset to transfer",
          "_asset": "Address for the asset"
        }
      },
      "withdraw(address,address,uint256)": {
        "params": {
          "_amount": "Units of asset to withdraw",
          "_asset": "Address of the asset",
          "_recipient": "Address to which the asset should be sent"
        }
      }
    },
    "stateVariables": {
      "remoteStrategyBalance": {
        "details": "The remote balance is cached and might not reflect the actual         real-time balance of the remote strategy."
      }
    },
    "version": 1
  },
  "userdoc": {
    "kind": "user",
    "methods": {
      "MAX_TRANSFER_AMOUNT()": {
        "notice": "Max transfer threshold imposed by the CCTP          Ref: https://developers.circle.com/cctp/evm-smart-contracts#depositforburn"
      },
      "assetToPToken(address)": {
        "notice": "asset => pToken (Platform Specific Token Address)"
      },
      "cctpMessageTransmitter()": {
        "notice": "CCTP message transmitter contract"
      },
      "cctpTokenMessenger()": {
        "notice": "CCTP token messenger contract"
      },
      "checkBalance(address)": {
        "notice": "Check the balance of the strategy that includes          the balance of the asset on this contract,          the amount of the asset being bridged,          and the balance reported by the Remote strategy."
      },
      "claimGovernance()": {
        "notice": "Claim Governance of the contract to a new account (`newGovernor`). Can only be called by the new Governor."
      },
      "collectRewardTokens()": {
        "notice": "Collect accumulated reward token and send to Vault."
      },
      "deposit(address,uint256)": {
        "notice": "Deposit an amount of assets into the platform"
      },
      "depositAll()": {
        "notice": "Deposit all supported assets in this strategy contract to the platform"
      },
      "feePremiumBps()": {
        "notice": "Fee premium in basis points"
      },
      "getRewardTokenAddresses()": {
        "notice": "Get the reward token addresses."
      },
      "governor()": {
        "notice": "Returns the address of the current Governor."
      },
      "harvesterAddress()": {
        "notice": "Address of the Harvester contract allowed to collect reward tokens"
      },
      "isGovernor()": {
        "notice": "Returns true if the caller is the current Governor."
      },
      "lastTransferNonce()": {
        "notice": "Nonce of the last known deposit or withdrawal"
      },
      "minFinalityThreshold()": {
        "notice": "Minimum finality threshold         Can be 1000 (safe, after 1 epoch) or 2000 (finalized, after 2 epochs).         Ref: https://developers.circle.com/cctp/technical-guide#finality-thresholds"
      },
      "operator()": {
        "notice": "Operator address: Can relay CCTP messages"
      },
      "peerDomainID()": {
        "notice": "Domain ID of the chain from which messages are accepted"
      },
      "peerStrategy()": {
        "notice": "Strategy address on other chain"
      },
      "pendingAmount()": {
        "notice": "Amount that's bridged due to a pending Deposit process         but with no acknowledgement from the remote strategy yet"
      },
      "platformAddress()": {
        "notice": "Address of the underlying platform"
      },
      "remoteStrategyBalance()": {
        "notice": "Remote strategy balance"
      },
      "removePToken(uint256)": {
        "notice": "Remove a supported asset by passing its index.      This method can only be called by the system Governor"
      },
      "rewardTokenAddresses(uint256)": {
        "notice": "Address of the reward tokens. eg CRV, BAL, CVX, AURA"
      },
      "setHarvesterAddress(address)": {
        "notice": "Set the Harvester contract that can collect rewards."
      },
      "setPTokenAddress(address,address)": {
        "notice": "Provide support for asset by passing its pToken address.      This method can only be called by the system Governor"
      },
      "setRewardTokenAddresses(address[])": {
        "notice": "Set the reward token addresses. Any old addresses will be overwritten."
      },
      "supportsAsset(address)": {
        "notice": "Check if an asset is supported."
      },
      "transferGovernance(address)": {
        "notice": "Transfers Governance of the contract to a new account (`newGovernor`). Can only be called by the current Governor. Must be claimed for this to complete"
      },
      "transferToken(address,uint256)": {
        "notice": "Transfer token to governor. Intended for recovering tokens stuck in      strategy contracts, i.e. mistaken sends."
      },
      "usdcToken()": {
        "notice": "USDC address on local chain"
      },
      "vaultAddress()": {
        "notice": "Address of the OToken vault"
      },
      "withdraw(address,address,uint256)": {
        "notice": "Withdraw an `amount` of assets from the platform and send to the `_recipient`."
      },
      "withdrawAll()": {
        "notice": "Withdraw all supported assets from platform and sends to the OToken's Vault."
      }
    },
    "version": 1
  },
  "storageLayout": {
    "storage": [
      {
        "astId": 10447,
        "contract": "contracts/strategies/crosschain/CrossChainMasterStrategy.sol:CrossChainMasterStrategy",
        "label": "initialized",
        "offset": 0,
        "slot": "0",
        "type": "t_bool"
      },
      {
        "astId": 10450,
        "contract": "contracts/strategies/crosschain/CrossChainMasterStrategy.sol:CrossChainMasterStrategy",
        "label": "initializing",
        "offset": 1,
        "slot": "0",
        "type": "t_bool"
      },
      {
        "astId": 10490,
        "contract": "contracts/strategies/crosschain/CrossChainMasterStrategy.sol:CrossChainMasterStrategy",
        "label": "______gap",
        "offset": 0,
        "slot": "1",
        "type": "t_array(t_uint256)50_storage"
      },
      {
        "astId": 5896,
        "contract": "contracts/strategies/crosschain/CrossChainMasterStrategy.sol:CrossChainMasterStrategy",
        "label": "minFinalityThreshold",
        "offset": 0,
        "slot": "51",
        "type": "t_uint16"
      },
      {
        "astId": 5899,
        "contract": "contracts/strategies/crosschain/CrossChainMasterStrategy.sol:CrossChainMasterStrategy",
        "label": "feePremiumBps",
        "offset": 2,
        "slot": "51",
        "type": "t_uint16"
      },
      {
        "astId": 5902,
        "contract": "contracts/strategies/crosschain/CrossChainMasterStrategy.sol:CrossChainMasterStrategy",
        "label": "lastTransferNonce",
        "offset": 4,
        "slot": "51",
        "type": "t_uint64"
      },
      {
        "astId": 5905,
        "contract": "contracts/strategies/crosschain/CrossChainMasterStrategy.sol:CrossChainMasterStrategy",
        "label": "operator",
        "offset": 12,
        "slot": "51",
        "type": "t_address"
      },
      {
        "astId": 5910,
        "contract": "contracts/strategies/crosschain/CrossChainMasterStrategy.sol:CrossChainMasterStrategy",
        "label": "nonceProcessed",
        "offset": 0,
        "slot": "52",
        "type": "t_mapping(t_uint64,t_bool)"
      },
      {
        "astId": 5914,
        "contract": "contracts/strategies/crosschain/CrossChainMasterStrategy.sol:CrossChainMasterStrategy",
        "label": "__gap",
        "offset": 0,
        "slot": "53",
        "type": "t_array(t_uint256)48_storage"
      },
      {
        "astId": 10570,
        "contract": "contracts/strategies/crosschain/CrossChainMasterStrategy.sol:CrossChainMasterStrategy",
        "label": "_deprecated_platformAddress",
        "offset": 0,
        "slot": "101",
        "type": "t_address"
      },
      {
        "astId": 10573,
        "contract": "contracts/strategies/crosschain/CrossChainMasterStrategy.sol:CrossChainMasterStrategy",
        "label": "_deprecated_vaultAddress",
        "offset": 0,
        "slot": "102",
        "type": "t_address"
      },
      {
        "astId": 10578,
        "contract": "contracts/strategies/crosschain/CrossChainMasterStrategy.sol:CrossChainMasterStrategy",
        "label": "assetToPToken",
        "offset": 0,
        "slot": "103",
        "type": "t_mapping(t_address,t_address)"
      },
      {
        "astId": 10582,
        "contract": "contracts/strategies/crosschain/CrossChainMasterStrategy.sol:CrossChainMasterStrategy",
        "label": "assetsMapped",
        "offset": 0,
        "slot": "104",
        "type": "t_array(t_address)dyn_storage"
      },
      {
        "astId": 10584,
        "contract": "contracts/strategies/crosschain/CrossChainMasterStrategy.sol:CrossChainMasterStrategy",
        "label": "_deprecated_rewardTokenAddress",
        "offset": 0,
        "slot": "105",
        "type": "t_address"
      },
      {
        "astId": 10586,
        "contract": "contracts/strategies/crosschain/CrossChainMasterStrategy.sol:CrossChainMasterStrategy",
        "label": "_deprecated_rewardLiquidationThreshold",
        "offset": 0,
        "slot": "106",
        "type": "t_uint256"
      },
      {
        "astId": 10589,
        "contract": "contracts/strategies/crosschain/CrossChainMasterStrategy.sol:CrossChainMasterStrategy",
        "label": "harvesterAddress",
        "offset": 0,
        "slot": "107",
        "type": "t_address"
      },
      {
        "astId": 10593,
        "contract": "contracts/strategies/crosschain/CrossChainMasterStrategy.sol:CrossChainMasterStrategy",
        "label": "rewardTokenAddresses",
        "offset": 0,
        "slot": "108",
        "type": "t_array(t_address)dyn_storage"
      },
      {
        "astId": 10597,
        "contract": "contracts/strategies/crosschain/CrossChainMasterStrategy.sol:CrossChainMasterStrategy",
        "label": "_reserved",
        "offset": 0,
        "slot": "109",
        "type": "t_array(t_int256)98_storage"
      },
      {
        "astId": 6754,
        "contract": "contracts/strategies/crosschain/CrossChainMasterStrategy.sol:CrossChainMasterStrategy",
        "label": "remoteStrategyBalance",
        "offset": 0,
        "slot": "207",
        "type": "t_uint256"
      },
      {
        "astId": 6757,
        "contract": "contracts/strategies/crosschain/CrossChainMasterStrategy.sol:CrossChainMasterStrategy",
        "label": "pendingAmount",
        "offset": 0,
        "slot": "208",
        "type": "t_uint256"
      }
    ],
    "types": {
      "t_address": {
        "encoding": "inplace",
        "label": "address",
        "numberOfBytes": "20"
      },
      "t_array(t_address)dyn_storage": {
        "base": "t_address",
        "encoding": "dynamic_array",
        "label": "address[]",
        "numberOfBytes": "32"
      },
      "t_array(t_int256)98_storage": {
        "base": "t_int256",
        "encoding": "inplace",
        "label": "int256[98]",
        "numberOfBytes": "3136"
      },
      "t_array(t_uint256)48_storage": {
        "base": "t_uint256",
        "encoding": "inplace",
        "label": "uint256[48]",
        "numberOfBytes": "1536"
      },
      "t_array(t_uint256)50_storage": {
        "base": "t_uint256",
        "encoding": "inplace",
        "label": "uint256[50]",
        "numberOfBytes": "1600"
      },
      "t_bool": {
        "encoding": "inplace",
        "label": "bool",
        "numberOfBytes": "1"
      },
      "t_int256": {
        "encoding": "inplace",
        "label": "int256",
        "numberOfBytes": "32"
      },
      "t_mapping(t_address,t_address)": {
        "encoding": "mapping",
        "key": "t_address",
        "label": "mapping(address => address)",
        "numberOfBytes": "32",
        "value": "t_address"
      },
      "t_mapping(t_uint64,t_bool)": {
        "encoding": "mapping",
        "key": "t_uint64",
        "label": "mapping(uint64 => bool)",
        "numberOfBytes": "32",
        "value": "t_bool"
      },
      "t_uint16": {
        "encoding": "inplace",
        "label": "uint16",
        "numberOfBytes": "2"
      },
      "t_uint256": {
        "encoding": "inplace",
        "label": "uint256",
        "numberOfBytes": "32"
      },
      "t_uint64": {
        "encoding": "inplace",
        "label": "uint64",
        "numberOfBytes": "8"
      }
    }
  }
}