{
  "address": "0x2567fc741C6b9EFE589F2583e4431Ac4E69D8B8d",
  "abi": [
    {
      "inputs": [
        {
          "components": [
            {
              "internalType": "address",
              "name": "platformAddress",
              "type": "address"
            },
            {
              "internalType": "address",
              "name": "vaultAddress",
              "type": "address"
            }
          ],
          "internalType": "struct InitializableAbstractStrategy.BaseStrategyConfig",
          "name": "_stratConfig",
          "type": "tuple"
        },
        {
          "components": [
            {
              "internalType": "address",
              "name": "cctpTokenMessenger",
              "type": "address"
            },
            {
              "internalType": "address",
              "name": "cctpMessageTransmitter",
              "type": "address"
            },
            {
              "internalType": "uint32",
              "name": "peerDomainID",
              "type": "uint32"
            },
            {
              "internalType": "address",
              "name": "peerStrategy",
              "type": "address"
            },
            {
              "internalType": "address",
              "name": "usdcToken",
              "type": "address"
            },
            {
              "internalType": "address",
              "name": "peerUsdcToken",
              "type": "address"
            }
          ],
          "internalType": "struct AbstractCCTPIntegrator.CCTPIntegrationConfig",
          "name": "_cctpConfig",
          "type": "tuple"
        }
      ],
      "stateMutability": "nonpayable",
      "type": "constructor"
    },
    {
      "anonymous": false,
      "inputs": [
        {
          "indexed": false,
          "internalType": "uint64",
          "name": "nonce",
          "type": "uint64"
        },
        {
          "indexed": false,
          "internalType": "uint256",
          "name": "timestamp",
          "type": "uint256"
        },
        {
          "indexed": false,
          "internalType": "bool",
          "name": "isTooOld",
          "type": "bool"
        }
      ],
      "name": "BalanceCheckIgnored",
      "type": "event"
    },
    {
      "anonymous": false,
      "inputs": [
        {
          "indexed": false,
          "internalType": "uint16",
          "name": "feePremiumBps",
          "type": "uint16"
        }
      ],
      "name": "CCTPFeePremiumBpsSet",
      "type": "event"
    },
    {
      "anonymous": false,
      "inputs": [
        {
          "indexed": false,
          "internalType": "uint16",
          "name": "minFinalityThreshold",
          "type": "uint16"
        }
      ],
      "name": "CCTPMinFinalityThresholdSet",
      "type": "event"
    },
    {
      "anonymous": false,
      "inputs": [
        {
          "indexed": true,
          "internalType": "address",
          "name": "_asset",
          "type": "address"
        },
        {
          "indexed": false,
          "internalType": "address",
          "name": "_pToken",
          "type": "address"
        },
        {
          "indexed": false,
          "internalType": "uint256",
          "name": "_amount",
          "type": "uint256"
        }
      ],
      "name": "Deposit",
      "type": "event"
    },
    {
      "anonymous": false,
      "inputs": [
        {
          "indexed": true,
          "internalType": "address",
          "name": "previousGovernor",
          "type": "address"
        },
        {
          "indexed": true,
          "internalType": "address",
          "name": "newGovernor",
          "type": "address"
        }
      ],
      "name": "GovernorshipTransferred",
      "type": "event"
    },
    {
      "anonymous": false,
      "inputs": [
        {
          "indexed": false,
          "internalType": "address",
          "name": "_oldHarvesterAddress",
          "type": "address"
        },
        {
          "indexed": false,
          "internalType": "address",
          "name": "_newHarvesterAddress",
          "type": "address"
        }
      ],
      "name": "HarvesterAddressesUpdated",
      "type": "event"
    },
    {
      "anonymous": false,
      "inputs": [
        {
          "indexed": false,
          "internalType": "uint64",
          "name": "lastTransferNonce",
          "type": "uint64"
        }
      ],
      "name": "LastTransferNonceUpdated",
      "type": "event"
    },
    {
      "anonymous": false,
      "inputs": [
        {
          "indexed": false,
          "internalType": "uint32",
          "name": "destinationDomain",
          "type": "uint32"
        },
        {
          "indexed": false,
          "internalType": "address",
          "name": "peerStrategy",
          "type": "address"
        },
        {
          "indexed": false,
          "internalType": "uint32",
          "name": "minFinalityThreshold",
          "type": "uint32"
        },
        {
          "indexed": false,
          "internalType": "bytes",
          "name": "message",
          "type": "bytes"
        }
      ],
      "name": "MessageTransmitted",
      "type": "event"
    },
    {
      "anonymous": false,
      "inputs": [
        {
          "indexed": false,
          "internalType": "uint64",
          "name": "nonce",
          "type": "uint64"
        }
      ],
      "name": "NonceProcessed",
      "type": "event"
    },
    {
      "anonymous": false,
      "inputs": [
        {
          "indexed": false,
          "internalType": "address",
          "name": "operator",
          "type": "address"
        }
      ],
      "name": "OperatorChanged",
      "type": "event"
    },
    {
      "anonymous": false,
      "inputs": [
        {
          "indexed": true,
          "internalType": "address",
          "name": "_asset",
          "type": "address"
        },
        {
          "indexed": false,
          "internalType": "address",
          "name": "_pToken",
          "type": "address"
        }
      ],
      "name": "PTokenAdded",
      "type": "event"
    },
    {
      "anonymous": false,
      "inputs": [
        {
          "indexed": true,
          "internalType": "address",
          "name": "_asset",
          "type": "address"
        },
        {
          "indexed": false,
          "internalType": "address",
          "name": "_pToken",
          "type": "address"
        }
      ],
      "name": "PTokenRemoved",
      "type": "event"
    },
    {
      "anonymous": false,
      "inputs": [
        {
          "indexed": true,
          "internalType": "address",
          "name": "previousGovernor",
          "type": "address"
        },
        {
          "indexed": true,
          "internalType": "address",
          "name": "newGovernor",
          "type": "address"
        }
      ],
      "name": "PendingGovernorshipTransfer",
      "type": "event"
    },
    {
      "anonymous": false,
      "inputs": [
        {
          "indexed": false,
          "internalType": "uint256",
          "name": "balance",
          "type": "uint256"
        }
      ],
      "name": "RemoteStrategyBalanceUpdated",
      "type": "event"
    },
    {
      "anonymous": false,
      "inputs": [
        {
          "indexed": false,
          "internalType": "address[]",
          "name": "_oldAddresses",
          "type": "address[]"
        },
        {
          "indexed": false,
          "internalType": "address[]",
          "name": "_newAddresses",
          "type": "address[]"
        }
      ],
      "name": "RewardTokenAddressesUpdated",
      "type": "event"
    },
    {
      "anonymous": false,
      "inputs": [
        {
          "indexed": false,
          "internalType": "address",
          "name": "recipient",
          "type": "address"
        },
        {
          "indexed": false,
          "internalType": "address",
          "name": "rewardToken",
          "type": "address"
        },
        {
          "indexed": false,
          "internalType": "uint256",
          "name": "amount",
          "type": "uint256"
        }
      ],
      "name": "RewardTokenCollected",
      "type": "event"
    },
    {
      "anonymous": false,
      "inputs": [
        {
          "indexed": false,
          "internalType": "uint32",
          "name": "destinationDomain",
          "type": "uint32"
        },
        {
          "indexed": false,
          "internalType": "address",
          "name": "peerStrategy",
          "type": "address"
        },
        {
          "indexed": false,
          "internalType": "address",
          "name": "tokenAddress",
          "type": "address"
        },
        {
          "indexed": false,
          "internalType": "uint256",
          "name": "tokenAmount",
          "type": "uint256"
        },
        {
          "indexed": false,
          "internalType": "uint256",
          "name": "maxFee",
          "type": "uint256"
        },
        {
          "indexed": false,
          "internalType": "uint32",
          "name": "minFinalityThreshold",
          "type": "uint32"
        },
        {
          "indexed": false,
          "internalType": "bytes",
          "name": "hookData",
          "type": "bytes"
        }
      ],
      "name": "TokensBridged",
      "type": "event"
    },
    {
      "anonymous": false,
      "inputs": [],
      "name": "WithdrawAllSkipped",
      "type": "event"
    },
    {
      "anonymous": false,
      "inputs": [
        {
          "indexed": true,
          "internalType": "address",
          "name": "asset",
          "type": "address"
        },
        {
          "indexed": false,
          "internalType": "uint256",
          "name": "amount",
          "type": "uint256"
        }
      ],
      "name": "WithdrawRequested",
      "type": "event"
    },
    {
      "anonymous": false,
      "inputs": [
        {
          "indexed": true,
          "internalType": "address",
          "name": "_asset",
          "type": "address"
        },
        {
          "indexed": false,
          "internalType": "address",
          "name": "_pToken",
          "type": "address"
        },
        {
          "indexed": false,
          "internalType": "uint256",
          "name": "_amount",
          "type": "uint256"
        }
      ],
      "name": "Withdrawal",
      "type": "event"
    },
    {
      "inputs": [],
      "name": "MAX_TRANSFER_AMOUNT",
      "outputs": [
        {
          "internalType": "uint256",
          "name": "",
          "type": "uint256"
        }
      ],
      "stateMutability": "view",
      "type": "function"
    },
    {
      "inputs": [],
      "name": "MIN_TRANSFER_AMOUNT",
      "outputs": [
        {
          "internalType": "uint256",
          "name": "",
          "type": "uint256"
        }
      ],
      "stateMutability": "view",
      "type": "function"
    },
    {
      "inputs": [
        {
          "internalType": "address",
          "name": "",
          "type": "address"
        }
      ],
      "name": "assetToPToken",
      "outputs": [
        {
          "internalType": "address",
          "name": "",
          "type": "address"
        }
      ],
      "stateMutability": "view",
      "type": "function"
    },
    {
      "inputs": [],
      "name": "cctpMessageTransmitter",
      "outputs": [
        {
          "internalType": "contract ICCTPMessageTransmitter",
          "name": "",
          "type": "address"
        }
      ],
      "stateMutability": "view",
      "type": "function"
    },
    {
      "inputs": [],
      "name": "cctpTokenMessenger",
      "outputs": [
        {
          "internalType": "contract ICCTPTokenMessenger",
          "name": "",
          "type": "address"
        }
      ],
      "stateMutability": "view",
      "type": "function"
    },
    {
      "inputs": [
        {
          "internalType": "address",
          "name": "_asset",
          "type": "address"
        }
      ],
      "name": "checkBalance",
      "outputs": [
        {
          "internalType": "uint256",
          "name": "balance",
          "type": "uint256"
        }
      ],
      "stateMutability": "view",
      "type": "function"
    },
    {
      "inputs": [],
      "name": "claimGovernance",
      "outputs": [],
      "stateMutability": "nonpayable",
      "type": "function"
    },
    {
      "inputs": [],
      "name": "collectRewardTokens",
      "outputs": [],
      "stateMutability": "nonpayable",
      "type": "function"
    },
    {
      "inputs": [
        {
          "internalType": "address",
          "name": "_asset",
          "type": "address"
        },
        {
          "internalType": "uint256",
          "name": "_amount",
          "type": "uint256"
        }
      ],
      "name": "deposit",
      "outputs": [],
      "stateMutability": "nonpayable",
      "type": "function"
    },
    {
      "inputs": [],
      "name": "depositAll",
      "outputs": [],
      "stateMutability": "nonpayable",
      "type": "function"
    },
    {
      "inputs": [],
      "name": "feePremiumBps",
      "outputs": [
        {
          "internalType": "uint16",
          "name": "",
          "type": "uint16"
        }
      ],
      "stateMutability": "view",
      "type": "function"
    },
    {
      "inputs": [],
      "name": "getRewardTokenAddresses",
      "outputs": [
        {
          "internalType": "address[]",
          "name": "",
          "type": "address[]"
        }
      ],
      "stateMutability": "view",
      "type": "function"
    },
    {
      "inputs": [],
      "name": "governor",
      "outputs": [
        {
          "internalType": "address",
          "name": "",
          "type": "address"
        }
      ],
      "stateMutability": "view",
      "type": "function"
    },
    {
      "inputs": [
        {
          "internalType": "uint32",
          "name": "sourceDomain",
          "type": "uint32"
        },
        {
          "internalType": "bytes32",
          "name": "sender",
          "type": "bytes32"
        },
        {
          "internalType": "uint32",
          "name": "finalityThresholdExecuted",
          "type": "uint32"
        },
        {
          "internalType": "bytes",
          "name": "messageBody",
          "type": "bytes"
        }
      ],
      "name": "handleReceiveFinalizedMessage",
      "outputs": [
        {
          "internalType": "bool",
          "name": "",
          "type": "bool"
        }
      ],
      "stateMutability": "nonpayable",
      "type": "function"
    },
    {
      "inputs": [
        {
          "internalType": "uint32",
          "name": "sourceDomain",
          "type": "uint32"
        },
        {
          "internalType": "bytes32",
          "name": "sender",
          "type": "bytes32"
        },
        {
          "internalType": "uint32",
          "name": "finalityThresholdExecuted",
          "type": "uint32"
        },
        {
          "internalType": "bytes",
          "name": "messageBody",
          "type": "bytes"
        }
      ],
      "name": "handleReceiveUnfinalizedMessage",
      "outputs": [
        {
          "internalType": "bool",
          "name": "",
          "type": "bool"
        }
      ],
      "stateMutability": "nonpayable",
      "type": "function"
    },
    {
      "inputs": [],
      "name": "harvesterAddress",
      "outputs": [
        {
          "internalType": "address",
          "name": "",
          "type": "address"
        }
      ],
      "stateMutability": "view",
      "type": "function"
    },
    {
      "inputs": [
        {
          "internalType": "address",
          "name": "_operator",
          "type": "address"
        },
        {
          "internalType": "uint16",
          "name": "_minFinalityThreshold",
          "type": "uint16"
        },
        {
          "internalType": "uint16",
          "name": "_feePremiumBps",
          "type": "uint16"
        }
      ],
      "name": "initialize",
      "outputs": [],
      "stateMutability": "nonpayable",
      "type": "function"
    },
    {
      "inputs": [],
      "name": "isGovernor",
      "outputs": [
        {
          "internalType": "bool",
          "name": "",
          "type": "bool"
        }
      ],
      "stateMutability": "view",
      "type": "function"
    },
    {
      "inputs": [
        {
          "internalType": "uint64",
          "name": "nonce",
          "type": "uint64"
        }
      ],
      "name": "isNonceProcessed",
      "outputs": [
        {
          "internalType": "bool",
          "name": "",
          "type": "bool"
        }
      ],
      "stateMutability": "view",
      "type": "function"
    },
    {
      "inputs": [],
      "name": "isTransferPending",
      "outputs": [
        {
          "internalType": "bool",
          "name": "",
          "type": "bool"
        }
      ],
      "stateMutability": "view",
      "type": "function"
    },
    {
      "inputs": [],
      "name": "lastTransferNonce",
      "outputs": [
        {
          "internalType": "uint64",
          "name": "",
          "type": "uint64"
        }
      ],
      "stateMutability": "view",
      "type": "function"
    },
    {
      "inputs": [],
      "name": "minFinalityThreshold",
      "outputs": [
        {
          "internalType": "uint16",
          "name": "",
          "type": "uint16"
        }
      ],
      "stateMutability": "view",
      "type": "function"
    },
    {
      "inputs": [],
      "name": "operator",
      "outputs": [
        {
          "internalType": "address",
          "name": "",
          "type": "address"
        }
      ],
      "stateMutability": "view",
      "type": "function"
    },
    {
      "inputs": [],
      "name": "peerDomainID",
      "outputs": [
        {
          "internalType": "uint32",
          "name": "",
          "type": "uint32"
        }
      ],
      "stateMutability": "view",
      "type": "function"
    },
    {
      "inputs": [],
      "name": "peerStrategy",
      "outputs": [
        {
          "internalType": "address",
          "name": "",
          "type": "address"
        }
      ],
      "stateMutability": "view",
      "type": "function"
    },
    {
      "inputs": [],
      "name": "peerUsdcToken",
      "outputs": [
        {
          "internalType": "address",
          "name": "",
          "type": "address"
        }
      ],
      "stateMutability": "view",
      "type": "function"
    },
    {
      "inputs": [],
      "name": "pendingAmount",
      "outputs": [
        {
          "internalType": "uint256",
          "name": "",
          "type": "uint256"
        }
      ],
      "stateMutability": "view",
      "type": "function"
    },
    {
      "inputs": [],
      "name": "platformAddress",
      "outputs": [
        {
          "internalType": "address",
          "name": "",
          "type": "address"
        }
      ],
      "stateMutability": "view",
      "type": "function"
    },
    {
      "inputs": [
        {
          "internalType": "bytes",
          "name": "message",
          "type": "bytes"
        },
        {
          "internalType": "bytes",
          "name": "attestation",
          "type": "bytes"
        }
      ],
      "name": "relay",
      "outputs": [],
      "stateMutability": "nonpayable",
      "type": "function"
    },
    {
      "inputs": [],
      "name": "remoteStrategyBalance",
      "outputs": [
        {
          "internalType": "uint256",
          "name": "",
          "type": "uint256"
        }
      ],
      "stateMutability": "view",
      "type": "function"
    },
    {
      "inputs": [
        {
          "internalType": "uint256",
          "name": "_assetIndex",
          "type": "uint256"
        }
      ],
      "name": "removePToken",
      "outputs": [],
      "stateMutability": "nonpayable",
      "type": "function"
    },
    {
      "inputs": [
        {
          "internalType": "uint256",
          "name": "",
          "type": "uint256"
        }
      ],
      "name": "rewardTokenAddresses",
      "outputs": [
        {
          "internalType": "address",
          "name": "",
          "type": "address"
        }
      ],
      "stateMutability": "view",
      "type": "function"
    },
    {
      "inputs": [],
      "name": "safeApproveAllTokens",
      "outputs": [],
      "stateMutability": "nonpayable",
      "type": "function"
    },
    {
      "inputs": [
        {
          "internalType": "uint16",
          "name": "_feePremiumBps",
          "type": "uint16"
        }
      ],
      "name": "setFeePremiumBps",
      "outputs": [],
      "stateMutability": "nonpayable",
      "type": "function"
    },
    {
      "inputs": [
        {
          "internalType": "address",
          "name": "_harvesterAddress",
          "type": "address"
        }
      ],
      "name": "setHarvesterAddress",
      "outputs": [],
      "stateMutability": "nonpayable",
      "type": "function"
    },
    {
      "inputs": [
        {
          "internalType": "uint16",
          "name": "_minFinalityThreshold",
          "type": "uint16"
        }
      ],
      "name": "setMinFinalityThreshold",
      "outputs": [],
      "stateMutability": "nonpayable",
      "type": "function"
    },
    {
      "inputs": [
        {
          "internalType": "address",
          "name": "_operator",
          "type": "address"
        }
      ],
      "name": "setOperator",
      "outputs": [],
      "stateMutability": "nonpayable",
      "type": "function"
    },
    {
      "inputs": [
        {
          "internalType": "address",
          "name": "_asset",
          "type": "address"
        },
        {
          "internalType": "address",
          "name": "_pToken",
          "type": "address"
        }
      ],
      "name": "setPTokenAddress",
      "outputs": [],
      "stateMutability": "nonpayable",
      "type": "function"
    },
    {
      "inputs": [
        {
          "internalType": "address[]",
          "name": "_rewardTokenAddresses",
          "type": "address[]"
        }
      ],
      "name": "setRewardTokenAddresses",
      "outputs": [],
      "stateMutability": "nonpayable",
      "type": "function"
    },
    {
      "inputs": [
        {
          "internalType": "address",
          "name": "_asset",
          "type": "address"
        }
      ],
      "name": "supportsAsset",
      "outputs": [
        {
          "internalType": "bool",
          "name": "",
          "type": "bool"
        }
      ],
      "stateMutability": "view",
      "type": "function"
    },
    {
      "inputs": [
        {
          "internalType": "address",
          "name": "_newGovernor",
          "type": "address"
        }
      ],
      "name": "transferGovernance",
      "outputs": [],
      "stateMutability": "nonpayable",
      "type": "function"
    },
    {
      "inputs": [
        {
          "internalType": "address",
          "name": "_asset",
          "type": "address"
        },
        {
          "internalType": "uint256",
          "name": "_amount",
          "type": "uint256"
        }
      ],
      "name": "transferToken",
      "outputs": [],
      "stateMutability": "nonpayable",
      "type": "function"
    },
    {
      "inputs": [],
      "name": "usdcToken",
      "outputs": [
        {
          "internalType": "address",
          "name": "",
          "type": "address"
        }
      ],
      "stateMutability": "view",
      "type": "function"
    },
    {
      "inputs": [],
      "name": "vaultAddress",
      "outputs": [
        {
          "internalType": "address",
          "name": "",
          "type": "address"
        }
      ],
      "stateMutability": "view",
      "type": "function"
    },
    {
      "inputs": [
        {
          "internalType": "address",
          "name": "_recipient",
          "type": "address"
        },
        {
          "internalType": "address",
          "name": "_asset",
          "type": "address"
        },
        {
          "internalType": "uint256",
          "name": "_amount",
          "type": "uint256"
        }
      ],
      "name": "withdraw",
      "outputs": [],
      "stateMutability": "nonpayable",
      "type": "function"
    },
    {
      "inputs": [],
      "name": "withdrawAll",
      "outputs": [],
      "stateMutability": "nonpayable",
      "type": "function"
    }
  ],
  "transactionHash": "0xf1d87c5d5a6f9b572c25ef322320e9be4c2657ea1dafa4b400d4ff877ee76512",
  "args": [
    [
      "0x0000000000000000000000000000000000000000",
      "0xE75D77B1865Ae93c7eaa3040B038D7aA7BC02F70"
    ],
    [
      "0x28b5a0e9c621a5badaa536219b3a228c8168cf5d",
      "0x81D40F21F12A8F0E3252Bccb954D722d4c464B64",
      6,
      "0xB1d624fc40824683e2bFBEfd19eB208DbBE00866",
      "0xA0b86991c6218b36c1d19D4a2e9Eb0cE3606eB48",
      "0x833589fcd6edb6e08f4c7c32d4f71b54bda02913"
    ]
  ],
  "numDeployments": 1,
  "solcInputHash": "00a8ab5ddcdb46bc9891a2222be9eb31",
  "bytecode": "0x61018060405234801561001157600080fd5b50604051614c14380380614c148339810160408190526100309161060d565b6080810151829082906001600160a01b03166100935760405162461bcd60e51b815260206004820152601460248201527f496e76616c69642055534443206164647265737300000000000000000000000060448201526064015b60405180910390fd5b60a08101516001600160a01b03166100ed5760405162461bcd60e51b815260206004820152601960248201527f496e76616c696420706565722055534443206164647265737300000000000000604482015260640161008a565b80516001600160a01b031661013a5760405162461bcd60e51b8152602060048201526013602482015272496e76616c6964204343545020636f6e66696760681b604482015260640161008a565b60208101516001600160a01b031661018a5760405162461bcd60e51b8152602060048201526013602482015272496e76616c6964204343545020636f6e66696760681b604482015260640161008a565b60608101516001600160a01b03166101e45760405162461bcd60e51b815260206004820152601d60248201527f496e76616c696420706565722073747261746567792061646472657373000000604482015260640161008a565b60208101516001600160a01b0390811660809081528251821660a052604083015163ffffffff166101005260608301518216610120528201805190911660c0525160009061023190610410565b9050600061024883608001516104f060201b60201c565b90508160061461029a5760405162461bcd60e51b815260206004820152601d60248201527f4261736520746f6b656e20646563696d616c73206d7573742062652036000000604482015260640161008a565b604051635553444360e01b602082015260240160405160208183030381529060405280519060200120816040516020016102d4919061070e565b60405160208183030381529060405280519060200120146103375760405162461bcd60e51b815260206004820152601960248201527f546f6b656e2073796d626f6c206d757374206265205553444300000000000000604482015260640161008a565b505060a001516001600160a01b0390811660e0528151811661014052602090910151811661016052825116156103af5760405162461bcd60e51b815260206004820152601860248201527f496e76616c696420706c6174666f726d20616464726573730000000000000000604482015260640161008a565b60208201516001600160a01b03166104095760405162461bcd60e51b815260206004820152601560248201527f496e76616c6964205661756c7420616464726573730000000000000000000000604482015260640161008a565b50506107e1565b600080826001600160a01b031663313ce5676040518163ffffffff1660e01b8152600401602060405180830381865afa158015610451573d6000803e3d6000fd5b505050506040513d601f19601f82011682018060405250810190610475919061072a565b60ff1690506004811015801561048c575060128111155b6104ea5760405162461bcd60e51b815260206004820152602960248201527f546f6b656e206d75737420686176652073756666696369656e7420646563696d604482015268616c20706c6163657360b81b606482015260840161008a565b92915050565b60606000826001600160a01b03166395d89b416040518163ffffffff1660e01b8152600401600060405180830381865afa158015610532573d6000803e3d6000fd5b505050506040513d6000823e601f3d908101601f1916820160405261055a919081019061074d565b9392505050565b634e487b7160e01b600052604160045260246000fd5b604080519081016001600160401b038111828210171561059957610599610561565b60405290565b60405160c081016001600160401b038111828210171561059957610599610561565b604051601f8201601f191681016001600160401b03811182821017156105e9576105e9610561565b604052919050565b80516001600160a01b038116811461060857600080fd5b919050565b60008082840361010081121561062257600080fd5b604081121561063057600080fd5b610638610577565b610641856105f1565b815261064f602086016105f1565b6020820152925060c0603f198201121561066857600080fd5b5061067161059f565b61067d604085016105f1565b815261068b606085016105f1565b6020820152608084015163ffffffff811681146106a757600080fd5b60408201526106b860a085016105f1565b60608201526106c960c085016105f1565b60808201526106da60e085016105f1565b60a0820152809150509250929050565b60005b838110156107055781810151838201526020016106ed565b50506000910152565b600082516107208184602087016106ea565b9190910192915050565b60006020828403121561073c57600080fd5b815160ff8116811461055a57600080fd5b60006020828403121561075f57600080fd5b81516001600160401b0381111561077557600080fd5b8201601f8101841361078657600080fd5b80516001600160401b0381111561079f5761079f610561565b6107b2601f8201601f19166020016105c1565b8181528560208385010111156107c757600080fd5b6107d88260208301602086016106ea565b95945050505050565b60805160a05160c05160e051610100516101205161014051610160516142a861096c6000396000818161040a01528181610a6d015281816113cb015281816119f301528181611a6801528181611b06015261263f015260006106d10152600081816104bb01528181610e3b01528181611edb01528181612dd801528181612eb4015281816130b2015261316801526000818161054a01528181610bcd01528181611e6701528181612db601528181612e9201528181613090015261314601526000818161051b0152610cf601526000818161032d01528181610605015281816107ac01528181611167015281816111d10152818161150d01528181611b9101528181611c1501528181612108015281816125540152818161261d01528181612672015281816127cd0152818161296801528181612ce201528181612dfd0152612ed60152600081816105d301528181610c4f01528181612d040152612d860152600081816105860152818161084601528181610edf01528181611295015261306201526142a86000f3fe608060405234801561001057600080fd5b506004361061028a5760003560e01c80637b2d9b2c1161015c578063b3ab15fb116100ce578063d9caed1211610087578063d9caed12146106b9578063dbe55e56146106cc578063de5f6268146106f3578063ed42412b146106fb578063f6ca71b014610704578063fc1b31131461071957600080fd5b8063b3ab15fb1461063d578063ba1066ed14610650578063c2e1e3f414610659578063c7af33521461066c578063d38bfff414610674578063d7dd614b1461068757600080fd5b80638c73eb04116101205780638c73eb04146105815780639136616a146105a857806396d538bb146105bb5780639748cf7c146105ce578063aa388af6146105f5578063ad1728cb1461063557600080fd5b80637b2d9b2c146104f05780637c92f219146105035780637ddfce2d14610516578063853828b61461053d5780638949f6f31461054557600080fd5b806342c8c11c116102005780635a063f63116101b95780635a063f63146104805780635a236417146104885780635d36b1901461049b5780635f515226146104a35780636369e49f146104b657806367c7066c146104dd57600080fd5b806342c8c11c146103f2578063430bf08a1461040557806347e7ef241461042c5780635324df321461043f578063564a515814610453578063570ca7351461046657600080fd5b806311eac8551161025257806311eac8551461032857806316a0f2501461034f5780631801c408146103705780631c4b995a1461039b57806323c9ab3d146103ae5780633c3dbbc7146103da57600080fd5b80630c340a241461028f5780630ed57b3a146102b45780630fc3b4c4146102c95780631072cbea146102f257806311cffb6714610305575b600080fd5b610297610726565b6040516001600160a01b0390911681526020015b60405180910390f35b6102c76102c2366004613931565b610743565b005b6102976102d736600461396a565b6067602052600090815260409020546001600160a01b031681565b6102c7610300366004613987565b61077e565b610318610313366004613a6f565b610839565b60405190151581526020016102ab565b6102977f000000000000000000000000000000000000000000000000000000000000000081565b60335461035d9061ffff1681565b60405161ffff90911681526020016102ab565b603354600160201b90046001600160401b031660009081526034602052604090205460ff1615610318565b6102c76103a9366004613ae8565b61091f565b6103186103bc366004613b42565b6001600160401b031660009081526034602052604090205460ff1690565b6103e4620f424081565b6040519081526020016102ab565b6102c7610400366004613b5f565b610a32565b6102977f000000000000000000000000000000000000000000000000000000000000000081565b6102c761043a366004613987565b610a62565b60335461035d9062010000900461ffff1681565b6102c7610461366004613b7a565b610af3565b60335461029790600160601b90046001600160a01b031681565b6102c7610ffd565b6102c7610496366004613b5f565b611090565b6102c76110bd565b6103e46104b136600461396a565b611163565b6102977f000000000000000000000000000000000000000000000000000000000000000081565b606b54610297906001600160a01b031681565b6102976104fe366004613be1565b61125e565b610318610511366004613a6f565b611288565b6102977f000000000000000000000000000000000000000000000000000000000000000081565b6102c76113c0565b61056c7f000000000000000000000000000000000000000000000000000000000000000081565b60405163ffffffff90911681526020016102ab565b6102977f000000000000000000000000000000000000000000000000000000000000000081565b6102c76105b6366004613be1565b611553565b6102c76105c9366004613bfa565b61171e565b6102977f000000000000000000000000000000000000000000000000000000000000000081565b61031861060336600461396a565b7f00000000000000000000000000000000000000000000000000000000000000006001600160a01b0390811691161490565b6102c7611835565b6102c761064b36600461396a565b611859565b6103e460d05481565b6102c761066736600461396a565b611886565b610318611913565b6102c761068236600461396a565b611944565b6033546106a190600160201b90046001600160401b031681565b6040516001600160401b0390911681526020016102ab565b6102c76106c7366004613c6f565b6119e8565b6102977f000000000000000000000000000000000000000000000000000000000000000081565b6102c7611afb565b6103e460cf5481565b61070c611c3a565b6040516102ab9190613cb0565b6103e46509184e72a00081565b600061073e6000805160206142538339815191525490565b905090565b61074b611913565b6107705760405162461bcd60e51b815260040161076790613cfc565b60405180910390fd5b61077a8282611c9c565b5050565b610786611913565b6107a25760405162461bcd60e51b815260040161076790613cfc565b6001600160a01b037f000000000000000000000000000000000000000000000000000000000000000081169083160361081d5760405162461bcd60e51b815260206004820152601f60248201527f43616e6e6f74207472616e7366657220737570706f72746564206173736574006044820152606401610767565b61077a610828610726565b6001600160a01b0384169083611dfb565b6000336001600160a01b037f000000000000000000000000000000000000000000000000000000000000000016146108b35760405162461bcd60e51b815260206004820152601e60248201527f43616c6c6572206973206e6f742043435450207472616e736d697474657200006044820152606401610767565b6107d08363ffffffff16101561090b5760405162461bcd60e51b815260206004820152601a60248201527f46696e616c697479207468726573686f6c6420746f6f206c6f770000000000006044820152606401610767565b610916858584611e63565b95945050505050565b610927611913565b6109435760405162461bcd60e51b815260040161076790613cfc565b600054610100900460ff168061095c575060005460ff16155b6109bf5760405162461bcd60e51b815260206004820152602e60248201527f496e697469616c697a61626c653a20636f6e747261637420697320616c72656160448201526d191e481a5b9a5d1a585b1a5e995960921b6064820152608401610767565b600054610100900460ff161580156109e1576000805461ffff19166101011790555b6109ec848484611f5c565b6040805160008082526020820181815282840191825260608301909352909190610a17838383611fb1565b5050508015610a2c576000805461ff00191690555b50505050565b610a3a611913565b610a565760405162461bcd60e51b815260040161076790613cfc565b610a5f81612064565b50565b336001600160a01b037f00000000000000000000000000000000000000000000000000000000000000001614610aaa5760405162461bcd60e51b815260040161076790613d33565b60008051602061423383398151915280546001198101610adc5760405162461bcd60e51b815260040161076790613d6a565b60028255610aea8484612106565b50600190555050565b603354600160601b90046001600160a01b03163314610b545760405162461bcd60e51b815260206004820152601a60248201527f43616c6c6572206973206e6f7420746865204f70657261746f720000000000006044820152606401610767565b6000806000806000610b65876122c4565b94509450945094509450600163ffffffff168563ffffffff1614610bcb5760405162461bcd60e51b815260206004820152601c60248201527f496e76616c69642043435450206d6573736167652076657273696f6e000000006044820152606401610767565b7f000000000000000000000000000000000000000000000000000000000000000063ffffffff168463ffffffff1614610c3e5760405162461bcd60e51b81526020600482015260156024820152742ab735b737bbb71029b7bab931b2902237b6b0b4b760591b6044820152606401610767565b610c4981600061231a565b945060007f00000000000000000000000000000000000000000000000000000000000000006001600160a01b0316846001600160a01b03161490508015610d8a578563ffffffff166001148015610ca25750815160e411155b610ce55760405162461bcd60e51b8152602060048201526014602482015273496e76616c6964206275726e206d65737361676560601b6044820152606401610767565b6000610cf2836004612339565b90507f00000000000000000000000000000000000000000000000000000000000000006001600160a01b0316816001600160a01b031614610d6a5760405162461bcd60e51b815260206004820152601260248201527124b73b30b634b210313ab937103a37b5b2b760711b6044820152606401610767565b610d75836064612339565b9450610d82836024612339565b935050610de1565b63ffffffff86166103f214610de15760405162461bcd60e51b815260206004820152601b60248201527f556e737570706f72746564206d6573736167652076657273696f6e00000000006044820152606401610767565b306001600160a01b03841614610e395760405162461bcd60e51b815260206004820152601c60248201527f556e657870656374656420726563697069656e742061646472657373000000006044820152606401610767565b7f00000000000000000000000000000000000000000000000000000000000000006001600160a01b0316846001600160a01b031614610ec55760405162461bcd60e51b815260206004820152602260248201527f496e636f72726563742073656e6465722f726563697069656e74206164647265604482015261737360f01b6064820152608401610767565b604051630afd9fa560e31b81526000906001600160a01b037f000000000000000000000000000000000000000000000000000000000000000016906357ecfd2890610f16908c908c90600401613de2565b6020604051808303816000875af1158015610f35573d6000803e3d6000fd5b505050506040513d601f19601f82011682018060405250810190610f599190613e17565b905080610fa15760405162461bcd60e51b8152602060048201526016602482015275149958d95a5d99481b595cdcd859d94819985a5b195960521b6044820152606401610767565b8115610ff2578251600090610fba90859060e490612353565b90506000610fc98560446124ad565b90506000610fd88660a46124ad565b9050610fee610fe78284613e48565b82856124c7565b5050505b505050505050505050565b606b546001600160a01b031633146110575760405162461bcd60e51b815260206004820152601b60248201527f43616c6c6572206973206e6f74207468652048617276657374657200000000006044820152606401610767565b600080516020614233833981519152805460011981016110895760405162461bcd60e51b815260040161076790613d6a565b5060019055565b611098611913565b6110b45760405162461bcd60e51b815260040161076790613cfc565b610a5f816126cf565b7f44c4d30b2eaad5130ad70c3ba6972730566f3e6359ab83e800d905c61b1c51db546001600160a01b0316336001600160a01b0316146111585760405162461bcd60e51b815260206004820152603060248201527f4f6e6c79207468652070656e64696e6720476f7665726e6f722063616e20636f60448201526f6d706c6574652074686520636c61696d60801b6064820152608401610767565b6111613361276c565b565b60007f00000000000000000000000000000000000000000000000000000000000000006001600160a01b0316826001600160a01b0316146111b65760405162461bcd60e51b815260040161076790613e5b565b60cf5460d0546040516370a0823160e01b81523060048201527f00000000000000000000000000000000000000000000000000000000000000006001600160a01b0316906370a0823190602401602060405180830381865afa158015611220573d6000803e3d6000fd5b505050506040513d601f19601f820116820180604052508101906112449190613e86565b61124e9190613e9f565b6112589190613e9f565b92915050565b606c818154811061126e57600080fd5b6000918252602090912001546001600160a01b0316905081565b6000336001600160a01b037f000000000000000000000000000000000000000000000000000000000000000016146113025760405162461bcd60e51b815260206004820152601e60248201527f43616c6c6572206973206e6f742043435450207472616e736d697474657200006044820152606401610767565b60335461ffff166103e8146113685760405162461bcd60e51b815260206004820152602660248201527f556e66696e616c697a6564206d6573736167657320617265206e6f74207375706044820152651c1bdc9d195960d21b6064820152608401610767565b6103e88363ffffffff16101561090b5760405162461bcd60e51b815260206004820152601a60248201527f46696e616c697479207468726573686f6c6420746f6f206c6f770000000000006044820152606401610767565b336001600160a01b037f000000000000000000000000000000000000000000000000000000000000000016148061140f57506113fa610726565b6001600160a01b0316336001600160a01b0316145b6114675760405162461bcd60e51b815260206004820152602360248201527f43616c6c6572206973206e6f7420746865205661756c74206f7220476f7665726044820152623737b960e91b6064820152608401610767565b600080516020614233833981519152805460011981016114995760405162461bcd60e51b815260040161076790613d6a565b60028255603354600160201b90046001600160401b031660009081526034602052604090205460ff166114f4576040517ff49d67e0c10520c98c98114270c479ce28ba2e7bef7908bb15914eb5a3b6165190600090a1611089565b60cf54620f42408110156115085750611089565b61154b7f00000000000000000000000000000000000000000000000000000000000000006509184e72a000831161153f57826127cb565b6509184e72a0006127cb565b505060019055565b61155b611913565b6115775760405162461bcd60e51b815260040161076790613cfc565b60685481106115b85760405162461bcd60e51b815260206004820152600d60248201526c092dcecc2d8d2c840d2dcc8caf609b1b6044820152606401610767565b6000606882815481106115cd576115cd613eb2565b60009182526020808320909101546001600160a01b0390811680845260679092526040909220546068549193509091169061160a90600190613e48565b83101561168c576068805461162190600190613e48565b8154811061163157611631613eb2565b600091825260209091200154606880546001600160a01b03909216918590811061165d5761165d613eb2565b9060005260206000200160006101000a8154816001600160a01b0302191690836001600160a01b031602179055505b606880548061169d5761169d613ec8565b60008281526020808220600019908401810180546001600160a01b031990811690915593019093556001600160a01b038581168083526067855260409283902080549094169093559051908416815290917f16b7600acff27e39a8a96056b3d533045298de927507f5c1d97e4accde60488c910160405180910390a2505050565b611726611913565b6117425760405162461bcd60e51b815260040161076790613cfc565b8060005b818110156117ec57600084848381811061176257611762613eb2565b9050602002016020810190611777919061396a565b6001600160a01b0316036117e45760405162461bcd60e51b815260206004820152602e60248201527f43616e206e6f742073657420616e20656d70747920616464726573732061732060448201526d30903932bbb0b932103a37b5b2b760911b6064820152608401610767565b600101611746565b507f04c0b9649497d316554306e53678d5f5f5dbc3a06f97dec13ff4cfe98b986bbc606c848460405161182193929190613ede565b60405180910390a1610a2c606c848461384f565b61183d611913565b6110575760405162461bcd60e51b815260040161076790613cfc565b611861611913565b61187d5760405162461bcd60e51b815260040161076790613cfc565b610a5f816129c1565b61188e611913565b6118aa5760405162461bcd60e51b815260040161076790613cfc565b606b54604080516001600160a01b03928316815291831660208301527fe48386b84419f4d36e0f96c10cc3510b6fb1a33795620c5098b22472bbe90796910160405180910390a1606b80546001600160a01b0319166001600160a01b0392909216919091179055565b600061192b6000805160206142538339815191525490565b6001600160a01b0316336001600160a01b031614905090565b61194c611913565b6119685760405162461bcd60e51b815260040161076790613cfc565b611990817f44c4d30b2eaad5130ad70c3ba6972730566f3e6359ab83e800d905c61b1c51db55565b806001600160a01b03166119b06000805160206142538339815191525490565b6001600160a01b03167fa39cc5eb22d0f34d8beaefee8a3f17cc229c1a1d1ef87a5ad47313487b1c4f0d60405160405180910390a350565b336001600160a01b037f00000000000000000000000000000000000000000000000000000000000000001614611a305760405162461bcd60e51b815260040161076790613d33565b60008051602061423383398151915280546001198101611a625760405162461bcd60e51b815260040161076790613d6a565b600282557f00000000000000000000000000000000000000000000000000000000000000006001600160a01b0316856001600160a01b031614611ae75760405162461bcd60e51b815260206004820152601760248201527f4f6e6c79205661756c742063616e2077697468647261770000000000000000006044820152606401610767565b611af184846127cb565b5060019055505050565b336001600160a01b037f00000000000000000000000000000000000000000000000000000000000000001614611b435760405162461bcd60e51b815260040161076790613d33565b60008051602061423383398151915280546001198101611b755760405162461bcd60e51b815260040161076790613d6a565b600282556040516370a0823160e01b81523060048201526000907f00000000000000000000000000000000000000000000000000000000000000006001600160a01b0316906370a0823190602401602060405180830381865afa158015611be0573d6000803e3d6000fd5b505050506040513d601f19601f82011682018060405250810190611c049190613e86565b9050620f4240811061154b5761154b7f000000000000000000000000000000000000000000000000000000000000000082612106565b6060606c805480602002602001604051908101604052809291908181526020018280548015611c9257602002820191906000526020600020905b81546001600160a01b03168152600190910190602001808311611c74575b5050505050905090565b6001600160a01b038281166000908152606760205260409020541615611cf95760405162461bcd60e51b81526020600482015260126024820152711c151bdad95b88185b1c9958591e481cd95d60721b6044820152606401610767565b6001600160a01b03821615801590611d1957506001600160a01b03811615155b611d595760405162461bcd60e51b8152602060048201526011602482015270496e76616c69642061646472657373657360781b6044820152606401610767565b6001600160a01b03828116600081815260676020908152604080832080549587166001600160a01b031996871681179091556068805460018101825594527fa2153420d844928b4421650203c77babc8b33d7f2e7b450e2966db0c2209775390930180549095168417909455925190815290917fef6485b84315f9b1483beffa32aae9a0596890395e3d7521f1c5fbb51790e765910160405180910390a25050565b6040516001600160a01b038316602482015260448101829052611e5e90849063a9059cbb60e01b906064015b60408051601f198184030181529190526020810180516001600160e01b03166001600160e01b031990931692909217909152612a1c565b505050565b60007f000000000000000000000000000000000000000000000000000000000000000063ffffffff168463ffffffff1614611ed85760405162461bcd60e51b81526020600482015260156024820152742ab735b737bbb71029b7bab931b2902237b6b0b4b760591b6044820152606401610767565b827f00000000000000000000000000000000000000000000000000000000000000006001600160a01b0390811690821614611f465760405162461bcd60e51b815260206004820152600e60248201526d2ab735b737bbb71029b2b73232b960911b6044820152606401610767565b611f4f83612aee565b60019150505b9392505050565b611f65836129c1565b611f6e826126cf565b611f7781612064565b5050600080525060346020527f2dc2afdad33a5feea586a9545052327b65d28efb10d11fa69e77da986a1031cd805460ff19166001179055565b8251611fc490606c9060208601906138b2565b5081518151811461200e5760405162461bcd60e51b8152602060048201526014602482015273496e76616c696420696e7075742061727261797360601b6044820152606401610767565b60005b8181101561205d5761205584828151811061202e5761202e613eb2565b602002602001015184838151811061204857612048613eb2565b6020026020010151611c9c565b600101612011565b5050505050565b610bb88161ffff1611156120b15760405162461bcd60e51b815260206004820152601460248201527308ccaca40e0e4cadad2eada40e8dede40d0d2ced60631b6044820152606401610767565b6033805463ffff000019166201000061ffff8416908102919091179091556040519081527f938c72cb9ba014c7d4d26f156021299f8926dee2aab1421b32a2408a8261cf60906020015b60405180910390a150565b7f00000000000000000000000000000000000000000000000000000000000000006001600160a01b0316826001600160a01b0316146121575760405162461bcd60e51b815260040161076790613e5b565b60d054156121a75760405162461bcd60e51b815260206004820152601960248201527f556e65787065637465642070656e64696e6720616d6f756e74000000000000006044820152606401610767565b620f42408110156121fa5760405162461bcd60e51b815260206004820152601860248201527f4465706f73697420616d6f756e7420746f6f20736d616c6c00000000000000006044820152606401610767565b6509184e72a0008111156122505760405162461bcd60e51b815260206004820152601760248201527f4465706f73697420616d6f756e7420746f6f20686967680000000000000000006044820152606401610767565b600061225a612b4c565b60d08390559050600061226d8284612c2b565b90506122798382612c87565b604080516001600160a01b03861680825260208201869052917f5548c837ab068cf56a2c2479df0882a4922fd203edb7517321831d95078c5f6291015b60405180910390a250505050565b600080808060606122d5868361231a565b94506122e286600461231a565b93506122ef86602c612339565b92506122fc86604c612339565b865190925061230f908790609490612353565b905091939590929450565b6000611f55612334848461232f600482613e9f565b612353565b612f13565b6000611f5561234e848461232f602082613e9f565b612f49565b60608282101561239b5760405162461bcd60e51b8152602060048201526013602482015272496e76616c696420736c6963652072616e676560681b6044820152606401610767565b83518211156123ec5760405162461bcd60e51b815260206004820152601d60248201527f536c69636520656e6420657863656564732064617461206c656e6774680000006044820152606401610767565b60006123f88484613e48565b90506000816001600160401b03811115612414576124146139cc565b6040519080825280601f01601f19166020018201604052801561243e576020820181803683370190505b50905060005b828110156124a357866124578288613e9f565b8151811061246757612467613eb2565b602001015160f81c60f81b82828151811061248457612484613eb2565b60200101906001600160f81b031916908160001a905350600101612444565b5095945050505050565b6000611f556124c2848461232f602082613e9f565b612f80565b603354600160201b90046001600160401b031660008181526034602052604090205460ff16156125335760405162461bcd60e51b8152602060048201526017602482015276139bdb98d948185b1c9958591e481c1c9bd8d95cdcd959604a1b6044820152606401610767565b61253c82612aee565b6040516370a0823160e01b81523060048201526000907f00000000000000000000000000000000000000000000000000000000000000006001600160a01b0316906370a0823190602401602060405180830381865afa1580156125a3573d6000803e3d6000fd5b505050506040513d601f19601f820116820180604052508101906125c79190613e86565b9050848110156126105760405162461bcd60e51b8152602060048201526014602482015273496e73756666696369656e742062616c616e636560601b6044820152606401610767565b6126646001600160a01b037f0000000000000000000000000000000000000000000000000000000000000000167f000000000000000000000000000000000000000000000000000000000000000083611dfb565b604080516001600160a01b037f00000000000000000000000000000000000000000000000000000000000000001680825260208201849052917f2717ead6b9200dd235aad468c9809ea400fe33ac69b5bfaa6d3e90fc922b6398910160405180910390a25050505050565b8061ffff166103e814806126e857508061ffff166107d0145b6127285760405162461bcd60e51b8152602060048201526011602482015270125b9d985b1a59081d1a1c995cda1bdb19607a1b6044820152606401610767565b6033805461ffff191661ffff83169081179091556040519081527fe8fbd074d54232549e55ac463e02d202c16b1023e5d6aae276b3d8391b8c14bc906020016120fb565b6001600160a01b0381166127c25760405162461bcd60e51b815260206004820152601a60248201527f4e657720476f7665726e6f7220697320616464726573732830290000000000006044820152606401610767565b610a5f81612fb7565b7f00000000000000000000000000000000000000000000000000000000000000006001600160a01b0316826001600160a01b03161461281c5760405162461bcd60e51b815260040161076790613e5b565b620f424081101561286f5760405162461bcd60e51b815260206004820152601960248201527f576974686472617720616d6f756e7420746f6f20736d616c6c000000000000006044820152606401610767565b60cf548111156128d95760405162461bcd60e51b815260206004820152602f60248201527f576974686472617720616d6f756e7420657863656564732072656d6f7465207360448201526e747261746567792062616c616e636560881b6064820152608401610767565b6509184e72a0008111156129435760405162461bcd60e51b815260206004820152602b60248201527f576974686472617720616d6f756e742065786365656473206d6178207472616e60448201526a1cd9995c88185b5bdd5b9d60aa1b6064820152608401610767565b600061294d612b4c565b9050600061295b828461301e565b905061296681613048565b7f00000000000000000000000000000000000000000000000000000000000000006001600160a01b03167ff7774b688d56120b783560a913ee60792a73dfd511812b7be5eccf10d08c6689846040516122b691815260200190565b603380546bffffffffffffffffffffffff16600160601b6001600160a01b038416908102919091179091556040519081527f4721129e0e676ed6a92909bb24e853ccdd63ad72280cc2e974e38e480e0e6e54906020016120fb565b6000612a71826040518060400160405280602081526020017f5361666545524332303a206c6f772d6c6576656c2063616c6c206661696c6564815250856001600160a01b03166131969092919063ffffffff16565b805190915015611e5e5780806020019051810190612a8f9190613e17565b611e5e5760405162461bcd60e51b815260206004820152602a60248201527f5361666545524332303a204552433230206f7065726174696f6e20646964206e6044820152691bdd081cdd58d8d9595960b21b6064820152608401610767565b6003612af9826131ad565b63ffffffff1603612b0d57610a5f816131ba565b60405162461bcd60e51b8152602060048201526014602482015273556e6b6e6f776e206d657373616765207479706560601b6044820152606401610767565b603354600160201b90046001600160401b031660008181526034602052604081205490919060ff16612bb95760405162461bcd60e51b81526020600482015260166024820152752832b73234b733903a37b5b2b7103a3930b739b332b960511b6044820152606401610767565b612bc4816001613f79565b603380546bffffffffffffffff000000001916600160201b6001600160401b038416908102919091179091556040519081529091507fc328b88555c22b57c1f2678e88ad3d9982d056ca6b05be82546e7b6bc6fda2db9060200160405180910390a1919050565b604080516001600160401b03841660208201529081018290526060906103f29060019083015b60408051601f1981840301815290829052612c70939291602001613f98565b604051602081830303815290604052905092915050565b6509184e72a000821115612cd55760405162461bcd60e51b81526020600482015260156024820152740a8ded6cadc40c2dadeeadce840e8dede40d0d2ced605b1b6044820152606401610767565b612d296001600160a01b037f0000000000000000000000000000000000000000000000000000000000000000167f000000000000000000000000000000000000000000000000000000000000000084613328565b60335460009062010000900461ffff16612d44576000612d69565b60335461271090612d5f9062010000900461ffff1685613fdd565b612d699190613ff4565b60335460405163779b432d60e01b81529192506001600160a01b037f000000000000000000000000000000000000000000000000000000000000000081169263779b432d92612e329288927f0000000000000000000000000000000000000000000000000000000000000000927f0000000000000000000000000000000000000000000000000000000000000000909216917f00000000000000000000000000000000000000000000000000000000000000009183918a9161ffff909116908c90600401614016565b600060405180830381600087803b158015612e4c57600080fd5b505af1158015612e60573d6000803e3d6000fd5b50506033546040517f149007d4a77eb98d041de59e6ca469bd27b351b74f16c4d0648978322a1b8a779350612f0692507f0000000000000000000000000000000000000000000000000000000000000000917f0000000000000000000000000000000000000000000000000000000000000000917f0000000000000000000000000000000000000000000000000000000000000000918991889161ffff16908a90614077565b60405180910390a1505050565b60008151600414612f365760405162461bcd60e51b8152600401610767906140d2565b60e0612f41836140ff565b901c92915050565b60008151602014612f6c5760405162461bcd60e51b8152600401610767906140d2565b818060200190518101906112589190614126565b60008151602014612fa35760405162461bcd60e51b8152600401610767906140d2565b818060200190518101906112589190613e86565b806001600160a01b0316612fd76000805160206142538339815191525490565b6001600160a01b03167fc7c0c772add429241571afb3805861fb3cfa2af374534088b76cdb4325a87e9a60405160405180910390a360008051602061425383398151915255565b604080516001600160401b03841660208201529081018290526060906103f2906002908301612c51565b6033546040516314b157ab60e01b81526001600160a01b037f00000000000000000000000000000000000000000000000000000000000000008116926314b157ab926130e6927f0000000000000000000000000000000000000000000000000000000000000000927f000000000000000000000000000000000000000000000000000000000000000090911691829161ffff16908890600401614143565b600060405180830381600087803b15801561310057600080fd5b505af1158015613114573d6000803e3d6000fd5b50506033546040517f90d92e80437532a834bc16642d235a7c34efc4d5690f3f6e69794c6d8c5c729093506120fb92507f0000000000000000000000000000000000000000000000000000000000000000917f00000000000000000000000000000000000000000000000000000000000000009161ffff90911690869061417a565b60606131a5848460008561343d565b949350505050565b600061125882600461231a565b6000806000806131c985613565565b603354939750919550935091506001600160401b03600160201b909104811690851681146131f957505050505050565b603354600160201b90046001600160401b031660009081526034602052604090205460ff1615801561329557831561323e57613234866135ab565b600060d0556132f3565b604080516001600160401b0388168152602081018590526000918101919091527fb9bc68243850860710a5d53a1a72d81fc5caf0cf30620ed544cc098bd07dbd51906060015b60405180910390a150505050505050565b6132a26201518084613e9f565b4211156132f357604080516001600160401b0388168152602081018590526001918101919091527fb9bc68243850860710a5d53a1a72d81fc5caf0cf30620ed544cc098bd07dbd5190606001613284565b60cf8590556040518581527f1cc993845fe77d504bd0e3391d651586e84db1cefbcdd9b4f85e8ed1c1f13c1090602001613284565b8015806133a25750604051636eb1769f60e11b81523060048201526001600160a01b03838116602483015284169063dd62ed3e90604401602060405180830381865afa15801561337c573d6000803e3d6000fd5b505050506040513d601f19601f820116820180604052508101906133a09190613e86565b155b61340d5760405162461bcd60e51b815260206004820152603660248201527f5361666545524332303a20617070726f76652066726f6d206e6f6e2d7a65726f60448201527520746f206e6f6e2d7a65726f20616c6c6f77616e636560501b6064820152608401610767565b6040516001600160a01b038316602482015260448101829052611e5e90849063095ea7b360e01b90606401611e27565b60608247101561349e5760405162461bcd60e51b815260206004820152602660248201527f416464726573733a20696e73756666696369656e742062616c616e636520666f6044820152651c8818d85b1b60d21b6064820152608401610767565b843b6134ec5760405162461bcd60e51b815260206004820152601d60248201527f416464726573733a2063616c6c20746f206e6f6e2d636f6e74726163740000006044820152606401610767565b600080866001600160a01b0316858760405161350891906141bc565b60006040518083038185875af1925050503d8060008114613545576040519150601f19603f3d011682016040523d82523d6000602084013e61354a565b606091505b509150915061355a828286613738565b979650505050505050565b600080600080613576856003613771565b6000806000806135858961382a565b80602001905181019061359891906141d8565b929c919b50995090975095505050505050565b6033546001600160401b03600160201b90910481169082168111156136025760405162461bcd60e51b815260206004820152600d60248201526c4e6f6e636520746f6f206c6f7760981b6044820152606401610767565b6001600160401b03821660009081526034602052604090205460ff16156136655760405162461bcd60e51b8152602060048201526017602482015276139bdb98d948185b1c9958591e481c1c9bd8d95cdcd959604a1b6044820152606401610767565b6001600160401b038216600081815260346020908152604091829020805460ff1916600117905590519182527f8aa30b3e46076ef0187550969c01982aeb9af5db2eada56ab253a53e4c9946e9910160405180910390a1806001600160401b0316826001600160401b03161461077a57603380546bffffffffffffffff000000001916600160201b6001600160401b038516908102919091179091556040519081527fc328b88555c22b57c1f2678e88ad3d9982d056ca6b05be82546e7b6bc6fda2db9060200160405180910390a15050565b60608315613747575081611f55565b8251156137575782518084602001fd5b8160405162461bcd60e51b8152600401610767919061421f565b6103f261377d83613843565b63ffffffff16146137d05760405162461bcd60e51b815260206004820152601e60248201527f496e76616c6964204f726967696e204d6573736167652056657273696f6e00006044820152606401610767565b8063ffffffff166137e0836131ad565b63ffffffff161461077a5760405162461bcd60e51b8152602060048201526014602482015273496e76616c6964204d657373616765207479706560601b6044820152606401610767565b606061125860088351846123539092919063ffffffff16565b6000611258828261231a565b8280548282559060005260206000209081019282156138a2579160200282015b828111156138a25781546001600160a01b0319166001600160a01b0384351617825560209092019160019091019061386f565b506138ae929150613907565b5090565b8280548282559060005260206000209081019282156138a2579160200282015b828111156138a257825182546001600160a01b0319166001600160a01b039091161782556020909201916001909101906138d2565b5b808211156138ae5760008155600101613908565b6001600160a01b0381168114610a5f57600080fd5b6000806040838503121561394457600080fd5b823561394f8161391c565b9150602083013561395f8161391c565b809150509250929050565b60006020828403121561397c57600080fd5b8135611f558161391c565b6000806040838503121561399a57600080fd5b82356139a58161391c565b946020939093013593505050565b803563ffffffff811681146139c757600080fd5b919050565b634e487b7160e01b600052604160045260246000fd5b600082601f8301126139f357600080fd5b81356001600160401b03811115613a0c57613a0c6139cc565b604051601f8201601f19908116603f011681016001600160401b0381118282101715613a3a57613a3a6139cc565b604052818152838201602001851015613a5257600080fd5b816020850160208301376000918101602001919091529392505050565b60008060008060808587031215613a8557600080fd5b613a8e856139b3565b935060208501359250613aa3604086016139b3565b915060608501356001600160401b03811115613abe57600080fd5b613aca878288016139e2565b91505092959194509250565b803561ffff811681146139c757600080fd5b600080600060608486031215613afd57600080fd5b8335613b088161391c565b9250613b1660208501613ad6565b9150613b2460408501613ad6565b90509250925092565b6001600160401b0381168114610a5f57600080fd5b600060208284031215613b5457600080fd5b8135611f5581613b2d565b600060208284031215613b7157600080fd5b611f5582613ad6565b60008060408385031215613b8d57600080fd5b82356001600160401b03811115613ba357600080fd5b613baf858286016139e2565b92505060208301356001600160401b03811115613bcb57600080fd5b613bd7858286016139e2565b9150509250929050565b600060208284031215613bf357600080fd5b5035919050565b60008060208385031215613c0d57600080fd5b82356001600160401b03811115613c2357600080fd5b8301601f81018513613c3457600080fd5b80356001600160401b03811115613c4a57600080fd5b8560208260051b8401011115613c5f57600080fd5b6020919091019590945092505050565b600080600060608486031215613c8457600080fd5b8335613c8f8161391c565b92506020840135613c9f8161391c565b929592945050506040919091013590565b602080825282518282018190526000918401906040840190835b81811015613cf15783516001600160a01b0316835260209384019390920191600101613cca565b509095945050505050565b6020808252601a908201527f43616c6c6572206973206e6f742074686520476f7665726e6f72000000000000604082015260600190565b60208082526017908201527f43616c6c6572206973206e6f7420746865205661756c74000000000000000000604082015260600190565b6020808252600e908201526d1499595b9d1c985b9d0818d85b1b60921b604082015260600190565b60005b83811015613dad578181015183820152602001613d95565b50506000910152565b60008151808452613dce816020860160208601613d92565b601f01601f19169290920160200192915050565b604081526000613df56040830185613db6565b82810360208401526109168185613db6565b805180151581146139c757600080fd5b600060208284031215613e2957600080fd5b611f5582613e07565b634e487b7160e01b600052601160045260246000fd5b8181038181111561125857611258613e32565b602080825260119082015270155b9cdd5c1c1bdc9d195908185cdcd95d607a1b604082015260600190565b600060208284031215613e9857600080fd5b5051919050565b8082018082111561125857611258613e32565b634e487b7160e01b600052603260045260246000fd5b634e487b7160e01b600052603160045260246000fd5b6040808252845490820181905260008581526020812090916060840190835b81811015613f245783546001600160a01b0316835260019384019360209093019201613efd565b50508381036020808601919091528582520190508460005b85811015613f6d578135613f4f8161391c565b6001600160a01b031683526020928301929190910190600101613f3c565b50909695505050505050565b6001600160401b03818116838216019081111561125857611258613e32565b63ffffffff60e01b8460e01b16815263ffffffff60e01b8360e01b16600482015260008251613fce816008850160208701613d92565b91909101600801949350505050565b808202811582820484141761125857611258613e32565b60008261401157634e487b7160e01b600052601260045260246000fd5b500490565b88815263ffffffff8816602082015286604082015260018060a01b03861660608201528460808201528360a082015263ffffffff831660c082015261010060e08201526000614069610100830184613db6565b9a9950505050505050505050565b63ffffffff88811682526001600160a01b038881166020840152871660408301526060820186905260808201859052831660a082015260e060c082018190526000906140c590830184613db6565b9998505050505050505050565b602080825260139082015272092dcecc2d8d2c840c8c2e8c240d8cadccee8d606b1b604082015260600190565b80516020808301519190811015614120576000198160200360031b1b821691505b50919050565b60006020828403121561413857600080fd5b8151611f558161391c565b63ffffffff8616815284602082015283604082015263ffffffff8316606082015260a06080820152600061355a60a0830184613db6565b63ffffffff85811682526001600160a01b0385166020830152831660408201526080606082018190526000906141b290830184613db6565b9695505050505050565b600082516141ce818460208701613d92565b9190910192915050565b600080600080608085870312156141ee57600080fd5b84516141f981613b2d565b6020860151909450925061420f60408601613e07565b6060959095015193969295505050565b602081526000611f556020830184613db656fe53bf423e48ed90e97d02ab0ebab13b2a235a6bfbe9c321847d5c175333ac45357bea13895fa79d2831e0a9e28edede30099005a50d652d8957cf8a607ee6ca4aa2646970667358221220f9e4003bc05a0917ebba798c964944fadf1dc0e546995b8d06b1544dadc5345b64736f6c634300081c0033",
  "libraries": {},
  "devdoc": {
    "kind": "dev",
    "methods": {
      "checkBalance(address)": {
        "params": {
          "_asset": "Address of the asset to check"
        },
        "returns": {
          "balance": "Total balance of the asset"
        }
      },
      "constructor": {
        "params": {
          "_stratConfig": "The platform and OToken vault addresses"
        }
      },
      "deposit(address,uint256)": {
        "params": {
          "_amount": "Units of asset to deposit",
          "_asset": "Address for the asset"
        }
      },
      "getRewardTokenAddresses()": {
        "returns": {
          "_0": "address[] the reward token addresses."
        }
      },
      "handleReceiveFinalizedMessage(uint32,bytes32,uint32,bytes)": {
        "details": "Handles a finalized CCTP message",
        "params": {
          "finalityThresholdExecuted": "Fidelity threshold executed",
          "messageBody": "Message body",
          "sender": "Sender of the message",
          "sourceDomain": "Source domain of the message"
        }
      },
      "handleReceiveUnfinalizedMessage(uint32,bytes32,uint32,bytes)": {
        "details": "Handles an unfinalized but safe CCTP message",
        "params": {
          "finalityThresholdExecuted": "Fidelity threshold executed",
          "messageBody": "Message body",
          "sender": "Sender of the message",
          "sourceDomain": "Source domain of the message"
        }
      },
      "initialize(address,uint16,uint16)": {
        "details": "Initialize the strategy implementation",
        "params": {
          "_feePremiumBps": "Fee premium in basis points",
          "_minFinalityThreshold": "Minimum finality threshold",
          "_operator": "Address of the operator"
        }
      },
      "isNonceProcessed(uint64)": {
        "details": "Checks if a given nonce is processed.      Nonce starts at 1, so 0 is disregarded.",
        "params": {
          "nonce": "Nonce to check"
        },
        "returns": {
          "_0": "True if the nonce is processed, false otherwise"
        }
      },
      "isTransferPending()": {
        "details": "Checks if the last known transfer is pending.      Nonce starts at 1, so 0 is disregarded.",
        "returns": {
          "_0": "True if a transfer is pending, false otherwise"
        }
      },
      "relay(bytes,bytes)": {
        "details": "Receives a message from the peer strategy on the other chain,      does some basic checks and relays it to the local MessageTransmitterV2.      If the message is a burn message, it will also handle the hook data      and call the _onTokenReceived function.",
        "params": {
          "attestation": "Attestation of the message",
          "message": "Payload of the message to send"
        }
      },
      "removePToken(uint256)": {
        "params": {
          "_assetIndex": "Index of the asset to be removed"
        }
      },
      "setFeePremiumBps(uint16)": {
        "details": "Set the fee premium in basis points.      Cannot be higher than 30% (3000 basis points).",
        "params": {
          "_feePremiumBps": "Fee premium in basis points"
        }
      },
      "setHarvesterAddress(address)": {
        "params": {
          "_harvesterAddress": "Address of the harvester contract."
        }
      },
      "setMinFinalityThreshold(uint16)": {
        "details": "Set the minimum finality threshold at which      the message is considered to be finalized to relay.      Only accepts a value of 1000 (Safe, after 1 epoch) or      2000 (Finalized, after 2 epochs).",
        "params": {
          "_minFinalityThreshold": "Minimum finality threshold"
        }
      },
      "setOperator(address)": {
        "details": "Set the operator address",
        "params": {
          "_operator": "Operator address"
        }
      },
      "setPTokenAddress(address,address)": {
        "params": {
          "_asset": "Address for the asset",
          "_pToken": "Address for the corresponding platform token"
        }
      },
      "setRewardTokenAddresses(address[])": {
        "params": {
          "_rewardTokenAddresses": "Array of reward token addresses"
        }
      },
      "supportsAsset(address)": {
        "params": {
          "_asset": "Address of the asset"
        },
        "returns": {
          "_0": "bool     Whether asset is supported"
        }
      },
      "transferGovernance(address)": {
        "params": {
          "_newGovernor": "Address of the new Governor"
        }
      },
      "transferToken(address,uint256)": {
        "params": {
          "_amount": "Amount of the asset to transfer",
          "_asset": "Address for the asset"
        }
      },
      "withdraw(address,address,uint256)": {
        "params": {
          "_amount": "Units of asset to withdraw",
          "_asset": "Address of the asset",
          "_recipient": "Address to which the asset should be sent"
        }
      }
    },
    "stateVariables": {
      "remoteStrategyBalance": {
        "details": "The remote balance is cached and might not reflect the actual         real-time balance of the remote strategy."
      }
    },
    "version": 1
  },
  "userdoc": {
    "kind": "user",
    "methods": {
      "MAX_TRANSFER_AMOUNT()": {
        "notice": "Max transfer threshold imposed by the CCTP          Ref: https://developers.circle.com/cctp/evm-smart-contracts#depositforburn"
      },
      "MIN_TRANSFER_AMOUNT()": {
        "notice": "Minimum transfer amount to avoid zero or dust transfers"
      },
      "assetToPToken(address)": {
        "notice": "asset => pToken (Platform Specific Token Address)"
      },
      "cctpMessageTransmitter()": {
        "notice": "CCTP message transmitter contract"
      },
      "cctpTokenMessenger()": {
        "notice": "CCTP token messenger contract"
      },
      "checkBalance(address)": {
        "notice": "Check the balance of the strategy that includes          the balance of the asset on this contract,          the amount of the asset being bridged,          and the balance reported by the Remote strategy."
      },
      "claimGovernance()": {
        "notice": "Claim Governance of the contract to a new account (`newGovernor`). Can only be called by the new Governor."
      },
      "collectRewardTokens()": {
        "notice": "Collect accumulated reward token and send to Vault."
      },
      "deposit(address,uint256)": {
        "notice": "Deposit an amount of assets into the platform"
      },
      "depositAll()": {
        "notice": "Deposit all supported assets in this strategy contract to the platform"
      },
      "feePremiumBps()": {
        "notice": "Fee premium in basis points"
      },
      "getRewardTokenAddresses()": {
        "notice": "Get the reward token addresses."
      },
      "governor()": {
        "notice": "Returns the address of the current Governor."
      },
      "harvesterAddress()": {
        "notice": "Address of the Harvester contract allowed to collect reward tokens"
      },
      "isGovernor()": {
        "notice": "Returns true if the caller is the current Governor."
      },
      "lastTransferNonce()": {
        "notice": "Nonce of the last known deposit or withdrawal"
      },
      "minFinalityThreshold()": {
        "notice": "Minimum finality threshold         Can be 1000 (safe, after 1 epoch) or 2000 (finalized, after 2 epochs).         Ref: https://developers.circle.com/cctp/technical-guide#finality-thresholds"
      },
      "operator()": {
        "notice": "Operator address: Can relay CCTP messages"
      },
      "peerDomainID()": {
        "notice": "Domain ID of the chain from which messages are accepted"
      },
      "peerStrategy()": {
        "notice": "Strategy address on other chain"
      },
      "peerUsdcToken()": {
        "notice": "USDC address on remote chain"
      },
      "pendingAmount()": {
        "notice": "Amount that's bridged due to a pending Deposit process         but with no acknowledgement from the remote strategy yet"
      },
      "platformAddress()": {
        "notice": "Address of the underlying platform"
      },
      "remoteStrategyBalance()": {
        "notice": "Remote strategy balance"
      },
      "removePToken(uint256)": {
        "notice": "Remove a supported asset by passing its index.      This method can only be called by the system Governor"
      },
      "rewardTokenAddresses(uint256)": {
        "notice": "Address of the reward tokens. eg CRV, BAL, CVX, AURA"
      },
      "setHarvesterAddress(address)": {
        "notice": "Set the Harvester contract that can collect rewards."
      },
      "setPTokenAddress(address,address)": {
        "notice": "Provide support for asset by passing its pToken address.      This method can only be called by the system Governor"
      },
      "setRewardTokenAddresses(address[])": {
        "notice": "Set the reward token addresses. Any old addresses will be overwritten."
      },
      "supportsAsset(address)": {
        "notice": "Check if an asset is supported."
      },
      "transferGovernance(address)": {
        "notice": "Transfers Governance of the contract to a new account (`newGovernor`). Can only be called by the current Governor. Must be claimed for this to complete"
      },
      "transferToken(address,uint256)": {
        "notice": "Transfer token to governor. Intended for recovering tokens stuck in      strategy contracts, i.e. mistaken sends."
      },
      "usdcToken()": {
        "notice": "USDC address on local chain"
      },
      "vaultAddress()": {
        "notice": "Address of the OToken vault"
      },
      "withdraw(address,address,uint256)": {
        "notice": "Withdraw an `amount` of assets from the platform and send to the `_recipient`."
      },
      "withdrawAll()": {
        "notice": "Withdraw all supported assets from platform and sends to the OToken's Vault."
      }
    },
    "version": 1
  },
  "storageLayout": {
    "storage": [
      {
        "astId": 55299,
        "contract": "contracts/strategies/crosschain/CrossChainMasterStrategy.sol:CrossChainMasterStrategy",
        "label": "initialized",
        "offset": 0,
        "slot": "0",
        "type": "t_bool"
      },
      {
        "astId": 55302,
        "contract": "contracts/strategies/crosschain/CrossChainMasterStrategy.sol:CrossChainMasterStrategy",
        "label": "initializing",
        "offset": 1,
        "slot": "0",
        "type": "t_bool"
      },
      {
        "astId": 55342,
        "contract": "contracts/strategies/crosschain/CrossChainMasterStrategy.sol:CrossChainMasterStrategy",
        "label": "______gap",
        "offset": 0,
        "slot": "1",
        "type": "t_array(t_uint256)50_storage"
      },
      {
        "astId": 45196,
        "contract": "contracts/strategies/crosschain/CrossChainMasterStrategy.sol:CrossChainMasterStrategy",
        "label": "minFinalityThreshold",
        "offset": 0,
        "slot": "51",
        "type": "t_uint16"
      },
      {
        "astId": 45199,
        "contract": "contracts/strategies/crosschain/CrossChainMasterStrategy.sol:CrossChainMasterStrategy",
        "label": "feePremiumBps",
        "offset": 2,
        "slot": "51",
        "type": "t_uint16"
      },
      {
        "astId": 45202,
        "contract": "contracts/strategies/crosschain/CrossChainMasterStrategy.sol:CrossChainMasterStrategy",
        "label": "lastTransferNonce",
        "offset": 4,
        "slot": "51",
        "type": "t_uint64"
      },
      {
        "astId": 45205,
        "contract": "contracts/strategies/crosschain/CrossChainMasterStrategy.sol:CrossChainMasterStrategy",
        "label": "operator",
        "offset": 12,
        "slot": "51",
        "type": "t_address"
      },
      {
        "astId": 45210,
        "contract": "contracts/strategies/crosschain/CrossChainMasterStrategy.sol:CrossChainMasterStrategy",
        "label": "nonceProcessed",
        "offset": 0,
        "slot": "52",
        "type": "t_mapping(t_uint64,t_bool)"
      },
      {
        "astId": 45214,
        "contract": "contracts/strategies/crosschain/CrossChainMasterStrategy.sol:CrossChainMasterStrategy",
        "label": "__gap",
        "offset": 0,
        "slot": "53",
        "type": "t_array(t_uint256)48_storage"
      },
      {
        "astId": 55422,
        "contract": "contracts/strategies/crosschain/CrossChainMasterStrategy.sol:CrossChainMasterStrategy",
        "label": "_deprecated_platformAddress",
        "offset": 0,
        "slot": "101",
        "type": "t_address"
      },
      {
        "astId": 55425,
        "contract": "contracts/strategies/crosschain/CrossChainMasterStrategy.sol:CrossChainMasterStrategy",
        "label": "_deprecated_vaultAddress",
        "offset": 0,
        "slot": "102",
        "type": "t_address"
      },
      {
        "astId": 55430,
        "contract": "contracts/strategies/crosschain/CrossChainMasterStrategy.sol:CrossChainMasterStrategy",
        "label": "assetToPToken",
        "offset": 0,
        "slot": "103",
        "type": "t_mapping(t_address,t_address)"
      },
      {
        "astId": 55434,
        "contract": "contracts/strategies/crosschain/CrossChainMasterStrategy.sol:CrossChainMasterStrategy",
        "label": "assetsMapped",
        "offset": 0,
        "slot": "104",
        "type": "t_array(t_address)dyn_storage"
      },
      {
        "astId": 55436,
        "contract": "contracts/strategies/crosschain/CrossChainMasterStrategy.sol:CrossChainMasterStrategy",
        "label": "_deprecated_rewardTokenAddress",
        "offset": 0,
        "slot": "105",
        "type": "t_address"
      },
      {
        "astId": 55438,
        "contract": "contracts/strategies/crosschain/CrossChainMasterStrategy.sol:CrossChainMasterStrategy",
        "label": "_deprecated_rewardLiquidationThreshold",
        "offset": 0,
        "slot": "106",
        "type": "t_uint256"
      },
      {
        "astId": 55441,
        "contract": "contracts/strategies/crosschain/CrossChainMasterStrategy.sol:CrossChainMasterStrategy",
        "label": "harvesterAddress",
        "offset": 0,
        "slot": "107",
        "type": "t_address"
      },
      {
        "astId": 55445,
        "contract": "contracts/strategies/crosschain/CrossChainMasterStrategy.sol:CrossChainMasterStrategy",
        "label": "rewardTokenAddresses",
        "offset": 0,
        "slot": "108",
        "type": "t_array(t_address)dyn_storage"
      },
      {
        "astId": 55449,
        "contract": "contracts/strategies/crosschain/CrossChainMasterStrategy.sol:CrossChainMasterStrategy",
        "label": "_reserved",
        "offset": 0,
        "slot": "109",
        "type": "t_array(t_int256)98_storage"
      },
      {
        "astId": 46098,
        "contract": "contracts/strategies/crosschain/CrossChainMasterStrategy.sol:CrossChainMasterStrategy",
        "label": "remoteStrategyBalance",
        "offset": 0,
        "slot": "207",
        "type": "t_uint256"
      },
      {
        "astId": 46101,
        "contract": "contracts/strategies/crosschain/CrossChainMasterStrategy.sol:CrossChainMasterStrategy",
        "label": "pendingAmount",
        "offset": 0,
        "slot": "208",
        "type": "t_uint256"
      }
    ],
    "types": {
      "t_address": {
        "encoding": "inplace",
        "label": "address",
        "numberOfBytes": "20"
      },
      "t_array(t_address)dyn_storage": {
        "base": "t_address",
        "encoding": "dynamic_array",
        "label": "address[]",
        "numberOfBytes": "32"
      },
      "t_array(t_int256)98_storage": {
        "base": "t_int256",
        "encoding": "inplace",
        "label": "int256[98]",
        "numberOfBytes": "3136"
      },
      "t_array(t_uint256)48_storage": {
        "base": "t_uint256",
        "encoding": "inplace",
        "label": "uint256[48]",
        "numberOfBytes": "1536"
      },
      "t_array(t_uint256)50_storage": {
        "base": "t_uint256",
        "encoding": "inplace",
        "label": "uint256[50]",
        "numberOfBytes": "1600"
      },
      "t_bool": {
        "encoding": "inplace",
        "label": "bool",
        "numberOfBytes": "1"
      },
      "t_int256": {
        "encoding": "inplace",
        "label": "int256",
        "numberOfBytes": "32"
      },
      "t_mapping(t_address,t_address)": {
        "encoding": "mapping",
        "key": "t_address",
        "label": "mapping(address => address)",
        "numberOfBytes": "32",
        "value": "t_address"
      },
      "t_mapping(t_uint64,t_bool)": {
        "encoding": "mapping",
        "key": "t_uint64",
        "label": "mapping(uint64 => bool)",
        "numberOfBytes": "32",
        "value": "t_bool"
      },
      "t_uint16": {
        "encoding": "inplace",
        "label": "uint16",
        "numberOfBytes": "2"
      },
      "t_uint256": {
        "encoding": "inplace",
        "label": "uint256",
        "numberOfBytes": "32"
      },
      "t_uint64": {
        "encoding": "inplace",
        "label": "uint64",
        "numberOfBytes": "8"
      }
    }
  }
}