{
  "address": "0x6320Db7a3c1B95fD5684DC725C2cda9B82Fa20Fa",
  "abi": [
    {
      "inputs": [
        {
          "internalType": "address",
          "name": "_safeContract",
          "type": "address"
        },
        {
          "internalType": "address",
          "name": "_operator",
          "type": "address"
        },
        {
          "internalType": "address[]",
          "name": "_poolBoosters",
          "type": "address[]"
        },
        {
          "internalType": "uint256",
          "name": "_bridgeFee",
          "type": "uint256"
        },
        {
          "internalType": "uint256",
          "name": "_additionalGasLimit",
          "type": "uint256"
        }
      ],
      "stateMutability": "nonpayable",
      "type": "constructor"
    },
    {
      "anonymous": false,
      "inputs": [
        {
          "indexed": false,
          "internalType": "uint256",
          "name": "newGasLimit",
          "type": "uint256"
        }
      ],
      "name": "AdditionalGasLimitUpdated",
      "type": "event"
    },
    {
      "anonymous": false,
      "inputs": [
        {
          "indexed": false,
          "internalType": "uint256",
          "name": "newFee",
          "type": "uint256"
        }
      ],
      "name": "BridgeFeeUpdated",
      "type": "event"
    },
    {
      "anonymous": false,
      "inputs": [
        {
          "indexed": false,
          "internalType": "address",
          "name": "pool",
          "type": "address"
        }
      ],
      "name": "PoolBoosterAddressAdded",
      "type": "event"
    },
    {
      "anonymous": false,
      "inputs": [
        {
          "indexed": false,
          "internalType": "address",
          "name": "pool",
          "type": "address"
        }
      ],
      "name": "PoolBoosterAddressRemoved",
      "type": "event"
    },
    {
      "anonymous": false,
      "inputs": [
        {
          "indexed": true,
          "internalType": "bytes32",
          "name": "role",
          "type": "bytes32"
        },
        {
          "indexed": true,
          "internalType": "bytes32",
          "name": "previousAdminRole",
          "type": "bytes32"
        },
        {
          "indexed": true,
          "internalType": "bytes32",
          "name": "newAdminRole",
          "type": "bytes32"
        }
      ],
      "name": "RoleAdminChanged",
      "type": "event"
    },
    {
      "anonymous": false,
      "inputs": [
        {
          "indexed": true,
          "internalType": "bytes32",
          "name": "role",
          "type": "bytes32"
        },
        {
          "indexed": true,
          "internalType": "address",
          "name": "account",
          "type": "address"
        },
        {
          "indexed": true,
          "internalType": "address",
          "name": "sender",
          "type": "address"
        }
      ],
      "name": "RoleGranted",
      "type": "event"
    },
    {
      "anonymous": false,
      "inputs": [
        {
          "indexed": true,
          "internalType": "bytes32",
          "name": "role",
          "type": "bytes32"
        },
        {
          "indexed": true,
          "internalType": "address",
          "name": "account",
          "type": "address"
        },
        {
          "indexed": true,
          "internalType": "address",
          "name": "sender",
          "type": "address"
        }
      ],
      "name": "RoleRevoked",
      "type": "event"
    },
    {
      "inputs": [],
      "name": "DEFAULT_ADMIN_ROLE",
      "outputs": [
        {
          "internalType": "bytes32",
          "name": "",
          "type": "bytes32"
        }
      ],
      "stateMutability": "view",
      "type": "function"
    },
    {
      "inputs": [],
      "name": "OPERATOR_ROLE",
      "outputs": [
        {
          "internalType": "bytes32",
          "name": "",
          "type": "bytes32"
        }
      ],
      "stateMutability": "view",
      "type": "function"
    },
    {
      "inputs": [
        {
          "internalType": "address[]",
          "name": "_poolBoosters",
          "type": "address[]"
        }
      ],
      "name": "addPoolBoosterAddress",
      "outputs": [],
      "stateMutability": "nonpayable",
      "type": "function"
    },
    {
      "inputs": [],
      "name": "additionalGasLimit",
      "outputs": [
        {
          "internalType": "uint256",
          "name": "",
          "type": "uint256"
        }
      ],
      "stateMutability": "view",
      "type": "function"
    },
    {
      "inputs": [],
      "name": "bridgeFee",
      "outputs": [
        {
          "internalType": "uint256",
          "name": "",
          "type": "uint256"
        }
      ],
      "stateMutability": "view",
      "type": "function"
    },
    {
      "inputs": [],
      "name": "getPoolBoosters",
      "outputs": [
        {
          "internalType": "address[]",
          "name": "",
          "type": "address[]"
        }
      ],
      "stateMutability": "view",
      "type": "function"
    },
    {
      "inputs": [
        {
          "internalType": "bytes32",
          "name": "role",
          "type": "bytes32"
        }
      ],
      "name": "getRoleAdmin",
      "outputs": [
        {
          "internalType": "bytes32",
          "name": "",
          "type": "bytes32"
        }
      ],
      "stateMutability": "view",
      "type": "function"
    },
    {
      "inputs": [
        {
          "internalType": "bytes32",
          "name": "role",
          "type": "bytes32"
        },
        {
          "internalType": "uint256",
          "name": "index",
          "type": "uint256"
        }
      ],
      "name": "getRoleMember",
      "outputs": [
        {
          "internalType": "address",
          "name": "",
          "type": "address"
        }
      ],
      "stateMutability": "view",
      "type": "function"
    },
    {
      "inputs": [
        {
          "internalType": "bytes32",
          "name": "role",
          "type": "bytes32"
        }
      ],
      "name": "getRoleMemberCount",
      "outputs": [
        {
          "internalType": "uint256",
          "name": "",
          "type": "uint256"
        }
      ],
      "stateMutability": "view",
      "type": "function"
    },
    {
      "inputs": [
        {
          "internalType": "bytes32",
          "name": "role",
          "type": "bytes32"
        },
        {
          "internalType": "address",
          "name": "account",
          "type": "address"
        }
      ],
      "name": "grantRole",
      "outputs": [],
      "stateMutability": "nonpayable",
      "type": "function"
    },
    {
      "inputs": [
        {
          "internalType": "bytes32",
          "name": "role",
          "type": "bytes32"
        },
        {
          "internalType": "address",
          "name": "account",
          "type": "address"
        }
      ],
      "name": "hasRole",
      "outputs": [
        {
          "internalType": "bool",
          "name": "",
          "type": "bool"
        }
      ],
      "stateMutability": "view",
      "type": "function"
    },
    {
      "inputs": [
        {
          "internalType": "address",
          "name": "",
          "type": "address"
        }
      ],
      "name": "isPoolBooster",
      "outputs": [
        {
          "internalType": "bool",
          "name": "",
          "type": "bool"
        }
      ],
      "stateMutability": "view",
      "type": "function"
    },
    {
      "inputs": [
        {
          "internalType": "address[]",
          "name": "selectedPoolBoosters",
          "type": "address[]"
        }
      ],
      "name": "manageBribes",
      "outputs": [],
      "stateMutability": "nonpayable",
      "type": "function"
    },
    {
      "inputs": [
        {
          "internalType": "address[]",
          "name": "selectedPoolBoosters",
          "type": "address[]"
        },
        {
          "internalType": "uint256[]",
          "name": "totalRewardAmounts",
          "type": "uint256[]"
        },
        {
          "internalType": "uint8[]",
          "name": "extraDuration",
          "type": "uint8[]"
        },
        {
          "internalType": "uint256[]",
          "name": "rewardsPerVote",
          "type": "uint256[]"
        }
      ],
      "name": "manageBribes",
      "outputs": [],
      "stateMutability": "nonpayable",
      "type": "function"
    },
    {
      "inputs": [
        {
          "internalType": "uint256",
          "name": "",
          "type": "uint256"
        }
      ],
      "name": "poolBoosters",
      "outputs": [
        {
          "internalType": "address",
          "name": "",
          "type": "address"
        }
      ],
      "stateMutability": "view",
      "type": "function"
    },
    {
      "inputs": [
        {
          "internalType": "address[]",
          "name": "_poolBoosters",
          "type": "address[]"
        }
      ],
      "name": "removePoolBoosterAddress",
      "outputs": [],
      "stateMutability": "nonpayable",
      "type": "function"
    },
    {
      "inputs": [
        {
          "internalType": "bytes32",
          "name": "role",
          "type": "bytes32"
        },
        {
          "internalType": "address",
          "name": "account",
          "type": "address"
        }
      ],
      "name": "renounceRole",
      "outputs": [],
      "stateMutability": "nonpayable",
      "type": "function"
    },
    {
      "inputs": [
        {
          "internalType": "bytes32",
          "name": "role",
          "type": "bytes32"
        },
        {
          "internalType": "address",
          "name": "account",
          "type": "address"
        }
      ],
      "name": "revokeRole",
      "outputs": [],
      "stateMutability": "nonpayable",
      "type": "function"
    },
    {
      "inputs": [],
      "name": "safeContract",
      "outputs": [
        {
          "internalType": "contract ISafe",
          "name": "",
          "type": "address"
        }
      ],
      "stateMutability": "view",
      "type": "function"
    },
    {
      "inputs": [
        {
          "internalType": "uint256",
          "name": "newGasLimit",
          "type": "uint256"
        }
      ],
      "name": "setAdditionalGasLimit",
      "outputs": [],
      "stateMutability": "nonpayable",
      "type": "function"
    },
    {
      "inputs": [
        {
          "internalType": "uint256",
          "name": "newFee",
          "type": "uint256"
        }
      ],
      "name": "setBridgeFee",
      "outputs": [],
      "stateMutability": "nonpayable",
      "type": "function"
    },
    {
      "inputs": [
        {
          "internalType": "bytes4",
          "name": "interfaceId",
          "type": "bytes4"
        }
      ],
      "name": "supportsInterface",
      "outputs": [
        {
          "internalType": "bool",
          "name": "",
          "type": "bool"
        }
      ],
      "stateMutability": "view",
      "type": "function"
    },
    {
      "inputs": [
        {
          "internalType": "address",
          "name": "token",
          "type": "address"
        },
        {
          "internalType": "uint256",
          "name": "amount",
          "type": "uint256"
        }
      ],
      "name": "transferTokens",
      "outputs": [],
      "stateMutability": "nonpayable",
      "type": "function"
    },
    {
      "stateMutability": "payable",
      "type": "receive"
    }
  ],
  "transactionHash": "0x28bad757726d182461645b61e0154399aea103c4bda947712cb528cadc11d281",
  "args": [
    "0x4FF1b9D9ba8558F5EAfCec096318eA0d8b541971",
    "0x4b91827516f79d6F6a1F292eD99671663b09169a",
    [
      "0x2425ff98A23021BF056E96FB690BF49910a8cE49",
      "0x1A43D2F1bb24aC262D1d7ac05D16823E526FcA32",
      "0xDafF0D96037B0F7bf72C6e2b3125b5D19273B149",
      "0xc835BcA1378acb32C522f3831b8dba161a763FBE",
      "0xd5d46b7e8FF91C3227D2Cf0aAE263f87743e3340",
      "0xE9CA668D5C31Ea5162651667103537bDA5458500",
      "0x5400a839C198d787c784F370F5a27672285b2133",
      "0xAe6058D732f0f3E098A068A338dB07bbD5169d3D",
      "0x0a9Be4d89fFE3420ADf7e27c2DB14F789dd2aca8",
      "0xFc5fEF2D566f77262CeF4e86749fdF1170b6f63F"
    ],
    "1000000000000000",
    1000000
  ],
  "numDeployments": 4,
  "solcInputHash": "1c5f01b739cac2f443a9cf4561bb55be",
  "bytecode": "0x60a060405234801561001057600080fd5b506040516124f83803806124f883398101604081905261002f9161048f565b6001600160a01b0385166080819052859061004c906000906100de565b61006c6000805160206124d88339815191526080516100de60201b60201c565b506100856000805160206124d8833981519152856100de565b60005b83518110156100c1576100b98482815181106100a6576100a6610593565b602002602001015161010560201b60201c565b600101610088565b506100cb82610248565b6100d4816102d4565b50505050506105a9565b6100e88282610351565b600082815260016020526040902061010090826103f0565b505050565b6001600160a01b03811661014f5760405162461bcd60e51b815260206004820152600c60248201526b5a65726f206164647265737360a01b60448201526064015b60405180910390fd5b6001600160a01b03811660009081526003602052604090205460ff16156101ad5760405162461bcd60e51b8152602060048201526012602482015271141bdbdb08185b1c9958591e48185919195960721b6044820152606401610146565b6002805460018082019092557f405787fa12a823e0f2b7631cc41b3ba8828b3321ca811111fa75cd3aa3bb5ace0180546001600160a01b0319166001600160a01b038416908117909155600081815260036020908152604091829020805460ff1916909417909355519081527f73fbf341ebd14259e9d6b52784447ca2c15aa93c480c93927fd8135aefff774791015b60405180910390a150565b662386f26fc1000081111561029f5760405162461bcd60e51b815260206004820152601360248201527f4272696467652066656520746f6f2068696768000000000000000000000000006044820152606401610146565b60048190556040518181527f42dfb00d085d601e55327921154ae76c1b24270b026c5a0c51caee18eb4c401f9060200161023d565b6298968081111561031c5760405162461bcd60e51b815260206004820152601260248201527108ec2e640d8d2dad2e840e8dede40d0d2ced60731b6044820152606401610146565b60058190556040518181527ffe19406854a66706284c7b3480e4c2e37dc42dc468e1211d7a1abcaf721a6f009060200161023d565b6000828152602081815260408083206001600160a01b038516845290915290205460ff166103ec576000828152602081815260408083206001600160a01b03851684529091529020805460ff191660011790556103ab3390565b6001600160a01b0316816001600160a01b0316837f2f8788117e7eff1d82e926ec794901d17c78024a50270940304540a733656f0d60405160405180910390a45b5050565b6000610405836001600160a01b03841661040e565b90505b92915050565b600081815260018301602052604081205461045557508154600181810184556000848152602080822090930184905584548482528286019093526040902091909155610408565b506000610408565b80516001600160a01b038116811461047457600080fd5b919050565b634e487b7160e01b600052604160045260246000fd5b600080600080600060a086880312156104a757600080fd5b6104b08661045d565b94506104be6020870161045d565b60408701519094506001600160401b038111156104da57600080fd5b8601601f810188136104eb57600080fd5b80516001600160401b0381111561050457610504610479565b604051600582901b90603f8201601f191681016001600160401b038111828210171561053257610532610479565b60405291825260208184018101929081018b84111561055057600080fd5b6020850194505b83851015610576576105688561045d565b815260209485019401610557565b5060608a01516080909a0151989b979a5098979695505050505050565b634e487b7160e01b600052603260045260246000fd5b608051611ef16105e76000396000818161046401528181610943015281816109de01528181610ab501528181610f0601526110a10152611ef16000f3fe6080604052600436106101445760003560e01c806391d14854116100b6578063c33d24751161006f578063c33d2475146103b0578063ca15c873146103d0578063d547741f146103f0578063eec8e96714610410578063f5b541a614610430578063f9081ba21461045257600080fd5b806391d14854146102eb578063998cdf831461030b5780639ba025e21461032b578063a217fddf1461035b578063ab384df014610370578063bec3fa171461039057600080fd5b806328d10eae1161010857806328d10eae1461023f5780632f2ff15d1461025557806336568abe14610275578063433da0001461029557806382b12dd7146102b55780639010d07c146102cb57600080fd5b806301ffc9a7146101505780630ac2b29814610185578063110c1a41146101a75780631a765057146101df578063248a9ca31461020157600080fd5b3661014b57005b600080fd5b34801561015c57600080fd5b5061017061016b36600461199e565b610486565b60405190151581526020015b60405180910390f35b34801561019157600080fd5b506101a56101a03660046119c8565b6104b1565b005b3480156101b357600080fd5b506101c76101c23660046119c8565b6104fa565b6040516001600160a01b03909116815260200161017c565b3480156101eb57600080fd5b506101f4610524565b60405161017c91906119e1565b34801561020d57600080fd5b5061023161021c3660046119c8565b60009081526020819052604090206001015490565b60405190815260200161017c565b34801561024b57600080fd5b5061023160055481565b34801561026157600080fd5b506101a5610270366004611a49565b610586565b34801561028157600080fd5b506101a5610290366004611a49565b6105b1565b3480156102a157600080fd5b506101a56102b0366004611ac1565b61062f565b3480156102c157600080fd5b5061023160045481565b3480156102d757600080fd5b506101c76102e6366004611b03565b61083d565b3480156102f757600080fd5b50610170610306366004611a49565b61085c565b34801561031757600080fd5b506101a56103263660046119c8565b610885565b34801561033757600080fd5b50610170610346366004611b25565b60036020526000908152604090205460ff1681565b34801561036757600080fd5b50610231600081565b34801561037c57600080fd5b506101a561038b366004611ac1565b6108c2565b34801561039c57600080fd5b506101a56103ab366004611b40565b610938565b3480156103bc57600080fd5b506101a56103cb366004611b6a565b610b35565b3480156103dc57600080fd5b506102316103eb3660046119c8565b610ce0565b3480156103fc57600080fd5b506101a561040b366004611a49565b610cf7565b34801561041c57600080fd5b506101a561042b366004611ac1565b610d1d565b34801561043c57600080fd5b50610231600080516020611e9c83398151915281565b34801561045e57600080fd5b506101c77f000000000000000000000000000000000000000000000000000000000000000081565b60006001600160e01b03198216635a05180f60e01b14806104ab57506104ab82610d93565b92915050565b6104c9600080516020611e9c8339815191523361085c565b6104ee5760405162461bcd60e51b81526004016104e590611c41565b60405180910390fd5b6104f781610dc8565b50565b6002818154811061050a57600080fd5b6000918252602090912001546001600160a01b0316905081565b6060600280548060200260200160405190810160405280929190818152602001828054801561057c57602002820191906000526020600020905b81546001600160a01b0316815260019091019060200180831161055e575b5050505050905090565b6000828152602081905260409020600101546105a28133610e4c565b6105ac8383610eb0565b505050565b6001600160a01b03811633146106215760405162461bcd60e51b815260206004820152602f60248201527f416363657373436f6e74726f6c3a2063616e206f6e6c792072656e6f756e636560448201526e103937b632b9903337b91039b2b63360891b60648201526084016104e5565b61062b8282610ed2565b5050565b610647600080516020611e9c8339815191523361085c565b6106635760405162461bcd60e51b81526004016104e590611c41565b80806106a35760405162461bcd60e51b815260206004820152600f60248201526e115b5c1d1e481c1bdbdb081b1a5cdd608a1b60448201526064016104e5565b60008167ffffffffffffffff8111156106be576106be611c78565b6040519080825280602002602001820160405280156106e7578160200160208202803683370190505b50905060008267ffffffffffffffff81111561070557610705611c78565b60405190808252806020026020018201604052801561072e578160200160208202803683370190505b50905060008367ffffffffffffffff81111561074c5761074c611c78565b604051908082528060200260200182016040528015610775578160200160208202803683370190505b50905060005b848110156107f35760001984828151811061079857610798611c8e565b60200260200101818152505060018382815181106107b8576107b8611c8e565b602002602001019060ff16908160ff168152505060008282815181106107e0576107e0611c8e565b602090810291909101015260010161077b565b50610835868680806020026020016040519081016040528093929190818152602001838360200280828437600092019190915250879250869150859050610ef4565b505050505050565b6000828152600160205260408120610855908361122b565b9392505050565b6000918252602082815260408084206001600160a01b0393909316845291905290205460ff1690565b61089d600080516020611e9c8339815191523361085c565b6108b95760405162461bcd60e51b81526004016104e590611c41565b6104f781611237565b6108da600080516020611e9c8339815191523361085c565b6108f65760405162461bcd60e51b81526004016104e590611c41565b60005b818110156105ac5761093083838381811061091657610916611c8e565b905060200201602081019061092b9190611b25565b6112b9565b6001016108f9565b336001600160a01b037f000000000000000000000000000000000000000000000000000000000000000016146109b05760405162461bcd60e51b815260206004820152601f60248201527f43616c6c6572206973206e6f7420746865207361666520636f6e74726163740060448201526064016104e5565b6001600160a01b038216610a2757600081116109cc57476109ce565b805b6040519091506001600160a01b037f0000000000000000000000000000000000000000000000000000000000000000169082156108fc029083906000818181858888f193505050501580156105ac573d6000803e3d6000fd5b60008111610a9c576040516370a0823160e01b81523060048201526001600160a01b038316906370a0823190602401602060405180830381865afa158015610a73573d6000803e3d6000fd5b505050506040513d601f19601f82011682018060405250810190610a979190611ca4565b610a9e565b805b60405163a9059cbb60e01b81526001600160a01b037f000000000000000000000000000000000000000000000000000000000000000081166004830152602482018390529192509083169063a9059cbb906044016020604051808303816000875af1158015610b11573d6000803e3d6000fd5b505050506040513d601f19601f820116820180604052508101906105ac9190611cbd565b610b4d600080516020611e9c8339815191523361085c565b610b695760405162461bcd60e51b81526004016104e590611c41565b8680610ba95760405162461bcd60e51b815260206004820152600f60248201526e115b5c1d1e481c1bdbdb081b1a5cdd608a1b60448201526064016104e5565b808614610bc85760405162461bcd60e51b81526004016104e590611cdf565b808414610be75760405162461bcd60e51b81526004016104e590611cdf565b808214610c065760405162461bcd60e51b81526004016104e590611cdf565b610cd589898080602002602001604051908101604052809392919081815260200183836020028082843760009201919091525050604080516020808d0282810182019093528c82529093508c92508b91829185019084908082843760009201919091525050604080516020808c0282810182019093528b82529093508b92508a91829185019084908082843760009201919091525050604080516020808b0282810182019093528a82529093508a925089918291850190849080828437600092019190915250610ef492505050565b505050505050505050565b60008181526001602052604081206104ab90611442565b600082815260208190526040902060010154610d138133610e4c565b6105ac8383610ed2565b610d35600080516020611e9c8339815191523361085c565b610d515760405162461bcd60e51b81526004016104e590611c41565b60005b818110156105ac57610d8b838383818110610d7157610d71611c8e565b9050602002016020810190610d869190611b25565b61144c565b600101610d54565b60006001600160e01b03198216637965db0b60e01b14806104ab57506301ffc9a760e01b6001600160e01b03198316146104ab565b62989680811115610e105760405162461bcd60e51b815260206004820152601260248201527108ec2e640d8d2dad2e840e8dede40d0d2ced60731b60448201526064016104e5565b60058190556040518181527ffe19406854a66706284c7b3480e4c2e37dc42dc468e1211d7a1abcaf721a6f00906020015b60405180910390a150565b610e56828261085c565b61062b57610e6e816001600160a01b03166014611583565b610e79836020611583565b604051602001610e8a929190611d2c565b60408051601f198184030181529082905262461bcd60e51b82526104e591600401611dcd565b610eba828261171f565b60008281526001602052604090206105ac90826117a3565b610edc82826117b8565b60008281526001602052604090206105ac908261181d565b8351600454610f04908290611df6565b7f00000000000000000000000000000000000000000000000000000000000000006001600160a01b0316311015610f7d5760405162461bcd60e51b815260206004820152601e60248201527f4e6f7420656e6f7567682045544820666f72206272696467652066656573000060448201526064016104e5565b60005b81811015610835576000868281518110610f9c57610f9c611c8e565b6020908102919091018101516001600160a01b0381166000908152600390925260409091205490915060ff1661100b5760405162461bcd60e51b815260206004820152601460248201527324b73b30b634b2103837b7b6103137b7b9ba32b960611b60448201526064016104e5565b6000611018836001611e0d565b90505b8381101561109e5787818151811061103557611035611c8e565b60200260200101516001600160a01b0316826001600160a01b0316036110965760405162461bcd60e51b8152602060048201526016602482015275223ab83634b1b0ba32903837b7b6103137b7b9ba32b960511b60448201526064016104e5565b60010161101b565b507f00000000000000000000000000000000000000000000000000000000000000006001600160a01b031663468721a782600454636dbb501160e01b8a87815181106110ec576110ec611c8e565b60200260200101518a888151811061110657611106611c8e565b60200260200101518a898151811061112057611120611c8e565b6020908102919091010151600554604051602481019490945260ff90921660448401526064830152608482015260a40160408051601f198184030181529181526020820180516001600160e01b03166001600160e01b03199485161790525160e086901b909216825261119a939291600090600401611e20565b6020604051808303816000875af11580156111b9573d6000803e3d6000fd5b505050506040513d601f19601f820116820180604052508101906111dd9190611cbd565b6112225760405162461bcd60e51b815260206004820152601660248201527513585b9859d94818d85b5c185a59db8819985a5b195960521b60448201526064016104e5565b50600101610f80565b60006108558383611832565b662386f26fc100008111156112845760405162461bcd60e51b8152602060048201526013602482015272084e4d2c8ceca40cccaca40e8dede40d0d2ced606b1b60448201526064016104e5565b60048190556040518181527f42dfb00d085d601e55327921154ae76c1b24270b026c5a0c51caee18eb4c401f90602001610e41565b60025460005b8181101561140857826001600160a01b0316600282815481106112e4576112e4611c8e565b6000918252602090912001546001600160a01b03160361140057600261130b600184611e5b565b8154811061131b5761131b611c8e565b600091825260209091200154600280546001600160a01b03909216918390811061134757611347611c8e565b9060005260206000200160006101000a8154816001600160a01b0302191690836001600160a01b03160217905550600280548061138657611386611e6e565b60008281526020808220600019908401810180546001600160a01b03191690559092019092556001600160a01b03851680835260038252604092839020805460ff1916905591519182527f5acf3d4990bcb8de36e8b743ef49e57f65600af9d09b4a50da91c2061b8aca79910160405180910390a1505050565b6001016112bf565b5060405162461bcd60e51b815260206004820152600e60248201526d141bdbdb081b9bdd08199bdd5b9960921b60448201526064016104e5565b60006104ab825490565b6001600160a01b0381166114915760405162461bcd60e51b815260206004820152600c60248201526b5a65726f206164647265737360a01b60448201526064016104e5565b6001600160a01b03811660009081526003602052604090205460ff16156114ef5760405162461bcd60e51b8152602060048201526012602482015271141bdbdb08185b1c9958591e48185919195960721b60448201526064016104e5565b6002805460018082019092557f405787fa12a823e0f2b7631cc41b3ba8828b3321ca811111fa75cd3aa3bb5ace0180546001600160a01b0319166001600160a01b038416908117909155600081815260036020908152604091829020805460ff1916909417909355519081527f73fbf341ebd14259e9d6b52784447ca2c15aa93c480c93927fd8135aefff77479101610e41565b60606000611592836002611df6565b61159d906002611e0d565b67ffffffffffffffff8111156115b5576115b5611c78565b6040519080825280601f01601f1916602001820160405280156115df576020820181803683370190505b509050600360fc1b816000815181106115fa576115fa611c8e565b60200101906001600160f81b031916908160001a905350600f60fb1b8160018151811061162957611629611c8e565b60200101906001600160f81b031916908160001a905350600061164d846002611df6565b611658906001611e0d565b90505b60018111156116d0576f181899199a1a9b1b9c1cb0b131b232b360811b85600f166010811061168c5761168c611c8e565b1a60f81b8282815181106116a2576116a2611c8e565b60200101906001600160f81b031916908160001a90535060049490941c936116c981611e84565b905061165b565b5083156108555760405162461bcd60e51b815260206004820181905260248201527f537472696e67733a20686578206c656e67746820696e73756666696369656e7460448201526064016104e5565b611729828261085c565b61062b576000828152602081815260408083206001600160a01b03851684529091529020805460ff1916600117905561175f3390565b6001600160a01b0316816001600160a01b0316837f2f8788117e7eff1d82e926ec794901d17c78024a50270940304540a733656f0d60405160405180910390a45050565b6000610855836001600160a01b03841661185c565b6117c2828261085c565b1561062b576000828152602081815260408083206001600160a01b0385168085529252808320805460ff1916905551339285917ff6391f5c32d9c69d2a47ea670b442974b53935d1edc7fd64eb21e047a839171b9190a45050565b6000610855836001600160a01b0384166118ab565b600082600001828154811061184957611849611c8e565b9060005260206000200154905092915050565b60008181526001830160205260408120546118a3575081546001818101845560008481526020808220909301849055845484825282860190935260409020919091556104ab565b5060006104ab565b600081815260018301602052604081205480156119945760006118cf600183611e5b565b85549091506000906118e390600190611e5b565b905081811461194857600086600001828154811061190357611903611c8e565b906000526020600020015490508087600001848154811061192657611926611c8e565b6000918252602080832090910192909255918252600188019052604090208390555b855486908061195957611959611e6e565b6001900381819060005260206000200160009055905585600101600086815260200190815260200160002060009055600193505050506104ab565b60009150506104ab565b6000602082840312156119b057600080fd5b81356001600160e01b03198116811461085557600080fd5b6000602082840312156119da57600080fd5b5035919050565b602080825282518282018190526000918401906040840190835b81811015611a225783516001600160a01b03168352602093840193909201916001016119fb565b509095945050505050565b80356001600160a01b0381168114611a4457600080fd5b919050565b60008060408385031215611a5c57600080fd5b82359150611a6c60208401611a2d565b90509250929050565b60008083601f840112611a8757600080fd5b50813567ffffffffffffffff811115611a9f57600080fd5b6020830191508360208260051b8501011115611aba57600080fd5b9250929050565b60008060208385031215611ad457600080fd5b823567ffffffffffffffff811115611aeb57600080fd5b611af785828601611a75565b90969095509350505050565b60008060408385031215611b1657600080fd5b50508035926020909101359150565b600060208284031215611b3757600080fd5b61085582611a2d565b60008060408385031215611b5357600080fd5b611b5c83611a2d565b946020939093013593505050565b6000806000806000806000806080898b031215611b8657600080fd5b883567ffffffffffffffff811115611b9d57600080fd5b611ba98b828c01611a75565b909950975050602089013567ffffffffffffffff811115611bc957600080fd5b611bd58b828c01611a75565b909750955050604089013567ffffffffffffffff811115611bf557600080fd5b611c018b828c01611a75565b909550935050606089013567ffffffffffffffff811115611c2157600080fd5b611c2d8b828c01611a75565b999c989b5096995094979396929594505050565b60208082526019908201527f43616c6c6572206973206e6f7420616e206f70657261746f7200000000000000604082015260600190565b634e487b7160e01b600052604160045260246000fd5b634e487b7160e01b600052603260045260246000fd5b600060208284031215611cb657600080fd5b5051919050565b600060208284031215611ccf57600080fd5b8151801515811461085557600080fd5b6020808252600f908201526e098cadccee8d040dad2e6dac2e8c6d608b1b604082015260600190565b60005b83811015611d23578181015183820152602001611d0b565b50506000910152565b7f416363657373436f6e74726f6c3a206163636f756e7420000000000000000000815260008351611d64816017850160208801611d08565b7001034b99036b4b9b9b4b733903937b6329607d1b6017918401918201528351611d95816028840160208801611d08565b01602801949350505050565b60008151808452611db9816020860160208601611d08565b601f01601f19169290920160200192915050565b6020815260006108556020830184611da1565b634e487b7160e01b600052601160045260246000fd5b80820281158282048414176104ab576104ab611de0565b808201808211156104ab576104ab611de0565b60018060a01b0385168152836020820152608060408201526000611e476080830185611da1565b905060ff8316606083015295945050505050565b818103818111156104ab576104ab611de0565b634e487b7160e01b600052603160045260246000fd5b600081611e9357611e93611de0565b50600019019056fe97667070c54ef182b0f5858b034beac1b6f3089aa2d3188bb1e8929f4fa9b929a26469706673582212207fbb693eb2643db4563fe02f775a2dad760bde64151b8e46a4e5480bd5c48ad964736f6c634300081c003397667070c54ef182b0f5858b034beac1b6f3089aa2d3188bb1e8929f4fa9b929",
  "libraries": {},
  "devdoc": {
    "author": "Origin Protocol",
    "events": {
      "RoleAdminChanged(bytes32,bytes32,bytes32)": {
        "details": "Emitted when `newAdminRole` is set as ``role``'s admin role, replacing `previousAdminRole` `DEFAULT_ADMIN_ROLE` is the starting admin for all roles, despite {RoleAdminChanged} not being emitted signaling this. _Available since v3.1._"
      },
      "RoleGranted(bytes32,address,address)": {
        "details": "Emitted when `account` is granted `role`. `sender` is the account that originated the contract call, an admin role bearer except when using {AccessControl-_setupRole}."
      },
      "RoleRevoked(bytes32,address,address)": {
        "details": "Emitted when `account` is revoked `role`. `sender` is the account that originated the contract call:   - if using `revokeRole`, it is the admin role bearer   - if using `renounceRole`, it is the role bearer (i.e. `account`)"
      }
    },
    "kind": "dev",
    "methods": {
      "addPoolBoosterAddress(address[])": {
        "params": {
          "_poolBoosters": "Addresses to add"
        }
      },
      "constructor": {
        "params": {
          "_additionalGasLimit": "Gas limit for cross-chain execution in manageCampaign",
          "_bridgeFee": "ETH amount to send per pool booster for bridge fees",
          "_operator": "Address authorized to call operator-restricted functions",
          "_poolBoosters": "Initial list of CurvePoolBooster addresses to manage",
          "_safeContract": "Address of the Gnosis Safe this module is attached to"
        }
      },
      "getPoolBoosters()": {
        "returns": {
          "_0": "Array of pool booster addresses"
        }
      },
      "getRoleAdmin(bytes32)": {
        "details": "Returns the admin role that controls `role`. See {grantRole} and {revokeRole}. To change a role's admin, use {_setRoleAdmin}."
      },
      "getRoleMember(bytes32,uint256)": {
        "details": "Returns one of the accounts that have `role`. `index` must be a value between 0 and {getRoleMemberCount}, non-inclusive. Role bearers are not sorted in any particular way, and their ordering may change at any point. WARNING: When using {getRoleMember} and {getRoleMemberCount}, make sure you perform all queries on the same block. See the following https://forum.openzeppelin.com/t/iterating-over-elements-on-enumerableset-in-openzeppelin-contracts/2296[forum post] for more information."
      },
      "getRoleMemberCount(bytes32)": {
        "details": "Returns the number of accounts that have `role`. Can be used together with {getRoleMember} to enumerate all bearers of a role."
      },
      "grantRole(bytes32,address)": {
        "details": "Grants `role` to `account`. If `account` had not been already granted `role`, emits a {RoleGranted} event. Requirements: - the caller must have ``role``'s admin role."
      },
      "hasRole(bytes32,address)": {
        "details": "Returns `true` if `account` has been granted `role`."
      },
      "manageBribes(address[])": {
        "params": {
          "selectedPoolBoosters": "Explicit list of registered pool boosters to manage"
        }
      },
      "manageBribes(address[],uint256[],uint8[],uint256[])": {
        "params": {
          "extraDuration": "Number of periods to extend per selected pool",
          "rewardsPerVote": "Max reward per vote per selected pool",
          "selectedPoolBoosters": "Explicit list of registered pool boosters to manage",
          "totalRewardAmounts": "Total reward amount per selected pool"
        }
      },
      "removePoolBoosterAddress(address[])": {
        "params": {
          "_poolBoosters": "Addresses to remove"
        }
      },
      "renounceRole(bytes32,address)": {
        "details": "Revokes `role` from the calling account. Roles are often managed via {grantRole} and {revokeRole}: this function's purpose is to provide a mechanism for accounts to lose their privileges if they are compromised (such as when a trusted device is misplaced). If the calling account had been revoked `role`, emits a {RoleRevoked} event. Requirements: - the caller must be `account`."
      },
      "revokeRole(bytes32,address)": {
        "details": "Revokes `role` from `account`. If `account` had been granted `role`, emits a {RoleRevoked} event. Requirements: - the caller must have ``role``'s admin role."
      },
      "setAdditionalGasLimit(uint256)": {
        "params": {
          "newGasLimit": "New gas limit value"
        }
      },
      "setBridgeFee(uint256)": {
        "params": {
          "newFee": "New bridge fee amount in wei"
        }
      },
      "supportsInterface(bytes4)": {
        "details": "See {IERC165-supportsInterface}."
      },
      "transferTokens(address,uint256)": {
        "details": "Helps recovering any tokens accidentally sent to this module.",
        "params": {
          "amount": "Amount to transfer. 0 to transfer all balance.",
          "token": "Token to transfer. 0x0 to transfer Native token."
        }
      }
    },
    "title": "CurvePoolBoosterBribesModule",
    "version": 1
  },
  "userdoc": {
    "events": {
      "BridgeFeeUpdated(uint256)": {
        "notice": "--- Events"
      }
    },
    "kind": "user",
    "methods": {
      "addPoolBoosterAddress(address[])": {
        "notice": "Add new CurvePoolBooster addresses to the managed list"
      },
      "additionalGasLimit()": {
        "notice": "Gas limit passed to manageCampaign for cross-chain execution"
      },
      "bridgeFee()": {
        "notice": "ETH amount sent per pool booster to cover the L1 -> L2 bridge fee"
      },
      "getPoolBoosters()": {
        "notice": "Get the full list of managed CurvePoolBooster addresses"
      },
      "isPoolBooster(address)": {
        "notice": "Tracks whether an address is a registered pool booster"
      },
      "manageBribes(address[])": {
        "notice": "Manage bribe campaigns for a selected subset of registered pool boosters.         Uses defaults for all selected pools:           - totalRewardAmount = type(uint256).max           - numberOfPeriods = 1           - maxRewardPerVote = 0"
      },
      "manageBribes(address[],uint256[],uint8[],uint256[])": {
        "notice": "Fully configurable bribe management for an explicit list of pool boosters."
      },
      "poolBoosters(uint256)": {
        "notice": "List of CurvePoolBooster addresses managed by this module"
      },
      "removePoolBoosterAddress(address[])": {
        "notice": "Remove CurvePoolBooster addresses from the managed list"
      },
      "setAdditionalGasLimit(uint256)": {
        "notice": "Update the additional gas limit for cross-chain execution"
      },
      "setBridgeFee(uint256)": {
        "notice": "Update the ETH bridge fee sent per pool booster"
      }
    },
    "notice": "Gnosis Safe module that automates the management of VotemarketV2 bribe campaigns         across multiple CurvePoolBooster contracts. It instructs the Safe to call `manageCampaign`         on each registered pool booster, forwarding ETH from the Safe's balance to cover         bridge fees. Campaign parameters (reward amount, duration, reward rate) can be         configured per pool or left to sensible defaults.",
    "version": 1
  },
  "storageLayout": {
    "storage": [
      {
        "astId": 24,
        "contract": "contracts/automation/CurvePoolBoosterBribesModule.sol:CurvePoolBoosterBribesModule",
        "label": "_roles",
        "offset": 0,
        "slot": "0",
        "type": "t_mapping(t_bytes32,t_struct(RoleData)19_storage)"
      },
      {
        "astId": 327,
        "contract": "contracts/automation/CurvePoolBoosterBribesModule.sol:CurvePoolBoosterBribesModule",
        "label": "_roleMembers",
        "offset": 0,
        "slot": "1",
        "type": "t_mapping(t_bytes32,t_struct(AddressSet)1182_storage)"
      },
      {
        "astId": 1646,
        "contract": "contracts/automation/CurvePoolBoosterBribesModule.sol:CurvePoolBoosterBribesModule",
        "label": "poolBoosters",
        "offset": 0,
        "slot": "2",
        "type": "t_array(t_address)dyn_storage"
      },
      {
        "astId": 1651,
        "contract": "contracts/automation/CurvePoolBoosterBribesModule.sol:CurvePoolBoosterBribesModule",
        "label": "isPoolBooster",
        "offset": 0,
        "slot": "3",
        "type": "t_mapping(t_address,t_bool)"
      },
      {
        "astId": 1654,
        "contract": "contracts/automation/CurvePoolBoosterBribesModule.sol:CurvePoolBoosterBribesModule",
        "label": "bridgeFee",
        "offset": 0,
        "slot": "4",
        "type": "t_uint256"
      },
      {
        "astId": 1657,
        "contract": "contracts/automation/CurvePoolBoosterBribesModule.sol:CurvePoolBoosterBribesModule",
        "label": "additionalGasLimit",
        "offset": 0,
        "slot": "5",
        "type": "t_uint256"
      }
    ],
    "types": {
      "t_address": {
        "encoding": "inplace",
        "label": "address",
        "numberOfBytes": "20"
      },
      "t_array(t_address)dyn_storage": {
        "base": "t_address",
        "encoding": "dynamic_array",
        "label": "address[]",
        "numberOfBytes": "32"
      },
      "t_array(t_bytes32)dyn_storage": {
        "base": "t_bytes32",
        "encoding": "dynamic_array",
        "label": "bytes32[]",
        "numberOfBytes": "32"
      },
      "t_bool": {
        "encoding": "inplace",
        "label": "bool",
        "numberOfBytes": "1"
      },
      "t_bytes32": {
        "encoding": "inplace",
        "label": "bytes32",
        "numberOfBytes": "32"
      },
      "t_mapping(t_address,t_bool)": {
        "encoding": "mapping",
        "key": "t_address",
        "label": "mapping(address => bool)",
        "numberOfBytes": "32",
        "value": "t_bool"
      },
      "t_mapping(t_bytes32,t_struct(AddressSet)1182_storage)": {
        "encoding": "mapping",
        "key": "t_bytes32",
        "label": "mapping(bytes32 => struct EnumerableSet.AddressSet)",
        "numberOfBytes": "32",
        "value": "t_struct(AddressSet)1182_storage"
      },
      "t_mapping(t_bytes32,t_struct(RoleData)19_storage)": {
        "encoding": "mapping",
        "key": "t_bytes32",
        "label": "mapping(bytes32 => struct AccessControl.RoleData)",
        "numberOfBytes": "32",
        "value": "t_struct(RoleData)19_storage"
      },
      "t_mapping(t_bytes32,t_uint256)": {
        "encoding": "mapping",
        "key": "t_bytes32",
        "label": "mapping(bytes32 => uint256)",
        "numberOfBytes": "32",
        "value": "t_uint256"
      },
      "t_struct(AddressSet)1182_storage": {
        "encoding": "inplace",
        "label": "struct EnumerableSet.AddressSet",
        "members": [
          {
            "astId": 1181,
            "contract": "contracts/automation/CurvePoolBoosterBribesModule.sol:CurvePoolBoosterBribesModule",
            "label": "_inner",
            "offset": 0,
            "slot": "0",
            "type": "t_struct(Set)881_storage"
          }
        ],
        "numberOfBytes": "64"
      },
      "t_struct(RoleData)19_storage": {
        "encoding": "inplace",
        "label": "struct AccessControl.RoleData",
        "members": [
          {
            "astId": 16,
            "contract": "contracts/automation/CurvePoolBoosterBribesModule.sol:CurvePoolBoosterBribesModule",
            "label": "members",
            "offset": 0,
            "slot": "0",
            "type": "t_mapping(t_address,t_bool)"
          },
          {
            "astId": 18,
            "contract": "contracts/automation/CurvePoolBoosterBribesModule.sol:CurvePoolBoosterBribesModule",
            "label": "adminRole",
            "offset": 0,
            "slot": "1",
            "type": "t_bytes32"
          }
        ],
        "numberOfBytes": "64"
      },
      "t_struct(Set)881_storage": {
        "encoding": "inplace",
        "label": "struct EnumerableSet.Set",
        "members": [
          {
            "astId": 876,
            "contract": "contracts/automation/CurvePoolBoosterBribesModule.sol:CurvePoolBoosterBribesModule",
            "label": "_values",
            "offset": 0,
            "slot": "0",
            "type": "t_array(t_bytes32)dyn_storage"
          },
          {
            "astId": 880,
            "contract": "contracts/automation/CurvePoolBoosterBribesModule.sol:CurvePoolBoosterBribesModule",
            "label": "_indexes",
            "offset": 0,
            "slot": "1",
            "type": "t_mapping(t_bytes32,t_uint256)"
          }
        ],
        "numberOfBytes": "64"
      },
      "t_uint256": {
        "encoding": "inplace",
        "label": "uint256",
        "numberOfBytes": "32"
      }
    }
  }
}