{
  "address": "0xD01aDA994bc08ded72e12812818a35320b0F1cb2",
  "abi": [
    {
      "inputs": [
        {
          "components": [
            {
              "internalType": "address",
              "name": "platformAddress",
              "type": "address"
            },
            {
              "internalType": "address",
              "name": "vaultAddress",
              "type": "address"
            }
          ],
          "internalType": "struct InitializableAbstractStrategy.BaseStrategyConfig",
          "name": "_baseConfig",
          "type": "tuple"
        },
        {
          "internalType": "address",
          "name": "_otoken",
          "type": "address"
        },
        {
          "internalType": "address",
          "name": "_hardAsset",
          "type": "address"
        },
        {
          "internalType": "address",
          "name": "_gauge",
          "type": "address"
        },
        {
          "internalType": "address",
          "name": "_minter",
          "type": "address"
        }
      ],
      "stateMutability": "nonpayable",
      "type": "constructor"
    },
    {
      "anonymous": false,
      "inputs": [
        {
          "indexed": true,
          "internalType": "address",
          "name": "_asset",
          "type": "address"
        },
        {
          "indexed": false,
          "internalType": "address",
          "name": "_pToken",
          "type": "address"
        },
        {
          "indexed": false,
          "internalType": "uint256",
          "name": "_amount",
          "type": "uint256"
        }
      ],
      "name": "Deposit",
      "type": "event"
    },
    {
      "anonymous": false,
      "inputs": [
        {
          "indexed": true,
          "internalType": "address",
          "name": "previousGovernor",
          "type": "address"
        },
        {
          "indexed": true,
          "internalType": "address",
          "name": "newGovernor",
          "type": "address"
        }
      ],
      "name": "GovernorshipTransferred",
      "type": "event"
    },
    {
      "anonymous": false,
      "inputs": [
        {
          "indexed": false,
          "internalType": "address",
          "name": "_oldHarvesterAddress",
          "type": "address"
        },
        {
          "indexed": false,
          "internalType": "address",
          "name": "_newHarvesterAddress",
          "type": "address"
        }
      ],
      "name": "HarvesterAddressesUpdated",
      "type": "event"
    },
    {
      "anonymous": false,
      "inputs": [
        {
          "indexed": false,
          "internalType": "uint256",
          "name": "newMaxSlippage",
          "type": "uint256"
        }
      ],
      "name": "MaxSlippageUpdated",
      "type": "event"
    },
    {
      "anonymous": false,
      "inputs": [
        {
          "indexed": true,
          "internalType": "address",
          "name": "_asset",
          "type": "address"
        },
        {
          "indexed": false,
          "internalType": "address",
          "name": "_pToken",
          "type": "address"
        }
      ],
      "name": "PTokenAdded",
      "type": "event"
    },
    {
      "anonymous": false,
      "inputs": [
        {
          "indexed": true,
          "internalType": "address",
          "name": "_asset",
          "type": "address"
        },
        {
          "indexed": false,
          "internalType": "address",
          "name": "_pToken",
          "type": "address"
        }
      ],
      "name": "PTokenRemoved",
      "type": "event"
    },
    {
      "anonymous": false,
      "inputs": [
        {
          "indexed": true,
          "internalType": "address",
          "name": "previousGovernor",
          "type": "address"
        },
        {
          "indexed": true,
          "internalType": "address",
          "name": "newGovernor",
          "type": "address"
        }
      ],
      "name": "PendingGovernorshipTransfer",
      "type": "event"
    },
    {
      "anonymous": false,
      "inputs": [
        {
          "indexed": false,
          "internalType": "address[]",
          "name": "_oldAddresses",
          "type": "address[]"
        },
        {
          "indexed": false,
          "internalType": "address[]",
          "name": "_newAddresses",
          "type": "address[]"
        }
      ],
      "name": "RewardTokenAddressesUpdated",
      "type": "event"
    },
    {
      "anonymous": false,
      "inputs": [
        {
          "indexed": false,
          "internalType": "address",
          "name": "recipient",
          "type": "address"
        },
        {
          "indexed": false,
          "internalType": "address",
          "name": "rewardToken",
          "type": "address"
        },
        {
          "indexed": false,
          "internalType": "uint256",
          "name": "amount",
          "type": "uint256"
        }
      ],
      "name": "RewardTokenCollected",
      "type": "event"
    },
    {
      "anonymous": false,
      "inputs": [
        {
          "indexed": true,
          "internalType": "address",
          "name": "_asset",
          "type": "address"
        },
        {
          "indexed": false,
          "internalType": "address",
          "name": "_pToken",
          "type": "address"
        },
        {
          "indexed": false,
          "internalType": "uint256",
          "name": "_amount",
          "type": "uint256"
        }
      ],
      "name": "Withdrawal",
      "type": "event"
    },
    {
      "inputs": [],
      "name": "SOLVENCY_THRESHOLD",
      "outputs": [
        {
          "internalType": "uint256",
          "name": "",
          "type": "uint256"
        }
      ],
      "stateMutability": "view",
      "type": "function"
    },
    {
      "inputs": [
        {
          "internalType": "address",
          "name": "",
          "type": "address"
        }
      ],
      "name": "assetToPToken",
      "outputs": [
        {
          "internalType": "address",
          "name": "",
          "type": "address"
        }
      ],
      "stateMutability": "view",
      "type": "function"
    },
    {
      "inputs": [
        {
          "internalType": "address",
          "name": "_asset",
          "type": "address"
        }
      ],
      "name": "checkBalance",
      "outputs": [
        {
          "internalType": "uint256",
          "name": "balance",
          "type": "uint256"
        }
      ],
      "stateMutability": "view",
      "type": "function"
    },
    {
      "inputs": [],
      "name": "claimGovernance",
      "outputs": [],
      "stateMutability": "nonpayable",
      "type": "function"
    },
    {
      "inputs": [],
      "name": "collectRewardTokens",
      "outputs": [],
      "stateMutability": "nonpayable",
      "type": "function"
    },
    {
      "inputs": [],
      "name": "curvePool",
      "outputs": [
        {
          "internalType": "contract ICurveStableSwapNG",
          "name": "",
          "type": "address"
        }
      ],
      "stateMutability": "view",
      "type": "function"
    },
    {
      "inputs": [],
      "name": "decimalsHardAsset",
      "outputs": [
        {
          "internalType": "uint8",
          "name": "",
          "type": "uint8"
        }
      ],
      "stateMutability": "view",
      "type": "function"
    },
    {
      "inputs": [],
      "name": "decimalsOToken",
      "outputs": [
        {
          "internalType": "uint8",
          "name": "",
          "type": "uint8"
        }
      ],
      "stateMutability": "view",
      "type": "function"
    },
    {
      "inputs": [
        {
          "internalType": "address",
          "name": "_hardAsset",
          "type": "address"
        },
        {
          "internalType": "uint256",
          "name": "_amount",
          "type": "uint256"
        }
      ],
      "name": "deposit",
      "outputs": [],
      "stateMutability": "nonpayable",
      "type": "function"
    },
    {
      "inputs": [],
      "name": "depositAll",
      "outputs": [],
      "stateMutability": "nonpayable",
      "type": "function"
    },
    {
      "inputs": [],
      "name": "gauge",
      "outputs": [
        {
          "internalType": "contract ICurveLiquidityGaugeV6",
          "name": "",
          "type": "address"
        }
      ],
      "stateMutability": "view",
      "type": "function"
    },
    {
      "inputs": [],
      "name": "getRewardTokenAddresses",
      "outputs": [
        {
          "internalType": "address[]",
          "name": "",
          "type": "address[]"
        }
      ],
      "stateMutability": "view",
      "type": "function"
    },
    {
      "inputs": [],
      "name": "governor",
      "outputs": [
        {
          "internalType": "address",
          "name": "",
          "type": "address"
        }
      ],
      "stateMutability": "view",
      "type": "function"
    },
    {
      "inputs": [],
      "name": "hardAsset",
      "outputs": [
        {
          "internalType": "contract IERC20",
          "name": "",
          "type": "address"
        }
      ],
      "stateMutability": "view",
      "type": "function"
    },
    {
      "inputs": [],
      "name": "hardAssetCoinIndex",
      "outputs": [
        {
          "internalType": "uint128",
          "name": "",
          "type": "uint128"
        }
      ],
      "stateMutability": "view",
      "type": "function"
    },
    {
      "inputs": [],
      "name": "harvesterAddress",
      "outputs": [
        {
          "internalType": "address",
          "name": "",
          "type": "address"
        }
      ],
      "stateMutability": "view",
      "type": "function"
    },
    {
      "inputs": [
        {
          "internalType": "address[]",
          "name": "_rewardTokenAddresses",
          "type": "address[]"
        },
        {
          "internalType": "uint256",
          "name": "_maxSlippage",
          "type": "uint256"
        }
      ],
      "name": "initialize",
      "outputs": [],
      "stateMutability": "nonpayable",
      "type": "function"
    },
    {
      "inputs": [],
      "name": "isGovernor",
      "outputs": [
        {
          "internalType": "bool",
          "name": "",
          "type": "bool"
        }
      ],
      "stateMutability": "view",
      "type": "function"
    },
    {
      "inputs": [],
      "name": "lpToken",
      "outputs": [
        {
          "internalType": "contract IERC20",
          "name": "",
          "type": "address"
        }
      ],
      "stateMutability": "view",
      "type": "function"
    },
    {
      "inputs": [],
      "name": "maxSlippage",
      "outputs": [
        {
          "internalType": "uint256",
          "name": "",
          "type": "uint256"
        }
      ],
      "stateMutability": "view",
      "type": "function"
    },
    {
      "inputs": [
        {
          "internalType": "uint256",
          "name": "_oTokens",
          "type": "uint256"
        }
      ],
      "name": "mintAndAddOTokens",
      "outputs": [],
      "stateMutability": "nonpayable",
      "type": "function"
    },
    {
      "inputs": [],
      "name": "minter",
      "outputs": [
        {
          "internalType": "contract ICurveMinter",
          "name": "",
          "type": "address"
        }
      ],
      "stateMutability": "view",
      "type": "function"
    },
    {
      "inputs": [],
      "name": "oToken",
      "outputs": [
        {
          "internalType": "contract IERC20",
          "name": "",
          "type": "address"
        }
      ],
      "stateMutability": "view",
      "type": "function"
    },
    {
      "inputs": [],
      "name": "otokenCoinIndex",
      "outputs": [
        {
          "internalType": "uint128",
          "name": "",
          "type": "uint128"
        }
      ],
      "stateMutability": "view",
      "type": "function"
    },
    {
      "inputs": [],
      "name": "platformAddress",
      "outputs": [
        {
          "internalType": "address",
          "name": "",
          "type": "address"
        }
      ],
      "stateMutability": "view",
      "type": "function"
    },
    {
      "inputs": [
        {
          "internalType": "uint256",
          "name": "_lpTokens",
          "type": "uint256"
        }
      ],
      "name": "removeAndBurnOTokens",
      "outputs": [],
      "stateMutability": "nonpayable",
      "type": "function"
    },
    {
      "inputs": [
        {
          "internalType": "uint256",
          "name": "_lpTokens",
          "type": "uint256"
        }
      ],
      "name": "removeOnlyAssets",
      "outputs": [],
      "stateMutability": "nonpayable",
      "type": "function"
    },
    {
      "inputs": [
        {
          "internalType": "uint256",
          "name": "_assetIndex",
          "type": "uint256"
        }
      ],
      "name": "removePToken",
      "outputs": [],
      "stateMutability": "nonpayable",
      "type": "function"
    },
    {
      "inputs": [
        {
          "internalType": "uint256",
          "name": "",
          "type": "uint256"
        }
      ],
      "name": "rewardTokenAddresses",
      "outputs": [
        {
          "internalType": "address",
          "name": "",
          "type": "address"
        }
      ],
      "stateMutability": "view",
      "type": "function"
    },
    {
      "inputs": [],
      "name": "safeApproveAllTokens",
      "outputs": [],
      "stateMutability": "nonpayable",
      "type": "function"
    },
    {
      "inputs": [
        {
          "internalType": "address",
          "name": "_harvesterAddress",
          "type": "address"
        }
      ],
      "name": "setHarvesterAddress",
      "outputs": [],
      "stateMutability": "nonpayable",
      "type": "function"
    },
    {
      "inputs": [
        {
          "internalType": "uint256",
          "name": "_maxSlippage",
          "type": "uint256"
        }
      ],
      "name": "setMaxSlippage",
      "outputs": [],
      "stateMutability": "nonpayable",
      "type": "function"
    },
    {
      "inputs": [
        {
          "internalType": "address",
          "name": "_asset",
          "type": "address"
        },
        {
          "internalType": "address",
          "name": "_pToken",
          "type": "address"
        }
      ],
      "name": "setPTokenAddress",
      "outputs": [],
      "stateMutability": "nonpayable",
      "type": "function"
    },
    {
      "inputs": [
        {
          "internalType": "address[]",
          "name": "_rewardTokenAddresses",
          "type": "address[]"
        }
      ],
      "name": "setRewardTokenAddresses",
      "outputs": [],
      "stateMutability": "nonpayable",
      "type": "function"
    },
    {
      "inputs": [
        {
          "internalType": "address",
          "name": "_asset",
          "type": "address"
        }
      ],
      "name": "supportsAsset",
      "outputs": [
        {
          "internalType": "bool",
          "name": "",
          "type": "bool"
        }
      ],
      "stateMutability": "view",
      "type": "function"
    },
    {
      "inputs": [
        {
          "internalType": "address",
          "name": "_newGovernor",
          "type": "address"
        }
      ],
      "name": "transferGovernance",
      "outputs": [],
      "stateMutability": "nonpayable",
      "type": "function"
    },
    {
      "inputs": [
        {
          "internalType": "address",
          "name": "_asset",
          "type": "address"
        },
        {
          "internalType": "uint256",
          "name": "_amount",
          "type": "uint256"
        }
      ],
      "name": "transferToken",
      "outputs": [],
      "stateMutability": "nonpayable",
      "type": "function"
    },
    {
      "inputs": [],
      "name": "vaultAddress",
      "outputs": [
        {
          "internalType": "address",
          "name": "",
          "type": "address"
        }
      ],
      "stateMutability": "view",
      "type": "function"
    },
    {
      "inputs": [
        {
          "internalType": "address",
          "name": "_recipient",
          "type": "address"
        },
        {
          "internalType": "address",
          "name": "_hardAsset",
          "type": "address"
        },
        {
          "internalType": "uint256",
          "name": "_amount",
          "type": "uint256"
        }
      ],
      "name": "withdraw",
      "outputs": [],
      "stateMutability": "nonpayable",
      "type": "function"
    },
    {
      "inputs": [],
      "name": "withdrawAll",
      "outputs": [],
      "stateMutability": "nonpayable",
      "type": "function"
    }
  ],
  "transactionHash": "0xb50bc6ec7e571d92353b3ded8f62e853a88bfe6e87e16b0f22cb65a469bbccf3",
  "args": [
    [
      "0xcc7d5785AD5755B6164e21495E07aDb0Ff11C2A8",
      "0x39254033945AA2E4809Cc2977E7087BEE48bd7Ab"
    ],
    "0x856c4Efb76C1D1AE02e20CEB03A2A6a08b0b8dC3",
    "0xC02aaA39b223FE8D0A0e5C4F27eAD9083C756Cc2",
    "0x36cC1d791704445A5b6b9c36a667e511d4702F3f",
    "0xd061D61a4d941c39E5453435B6345Dc261C2fcE0"
  ],
  "numDeployments": 2,
  "solcInputHash": "9a0ce1bbda767c091786997c7ec479a2",
  "bytecode": "0x61020060405234801561001157600080fd5b50604051615ae4380380615ae483398101604081905261003091610420565b84516001600160a01b03908116608052602080870151821660a052865182166101005286518216610120528282166101605285821660e05284821660c0819052918416610140526040805163313ce56760e01b8152905163313ce567926004808401939192918290030181865afa1580156100af573d6000803e3d6000fd5b505050506040513d601f19601f820116820180604052508101906100d391906104db565b60ff166101e08160ff1681525050836001600160a01b031663313ce5676040518163ffffffff1660e01b8152600401602060405180830381865afa15801561011f573d6000803e3d6000fd5b505050506040513d601f19601f8201168201806040525081019061014391906104db565b60ff166101c0526101205160405163c661065760e01b8152600060048201526001600160a01b0385811692169063c661065790602401602060405180830381865afa158015610196573d6000803e3d6000fd5b505050506040513d601f19601f820116820180604052508101906101ba9190610505565b6001600160a01b0316146101d157600160006101d6565b600060015b60ff90811661018081905291166101a0526101205160405163c661065760e01b815260048101929092526001600160a01b038681169291169063c661065790602401602060405180830381865afa158015610235573d6000803e3d6000fd5b505050506040513d601f19601f820116820180604052508101906102599190610505565b6001600160a01b03161480156102f25750610120516101a05160405163c661065760e01b81526001600160801b0390911660048201526001600160a01b0385811692169063c661065790602401602060405180830381865afa1580156102c3573d6000803e3d6000fd5b505050506040513d601f19601f820116820180604052508101906102e79190610505565b6001600160a01b0316145b6103435760405162461bcd60e51b815260206004820152601460248201527f496e76616c696420636f696e20696e646578657300000000000000000000000060448201526064015b60405180910390fd5b610120516001600160a01b0316610140516001600160a01b03166382c630666040518163ffffffff1660e01b8152600401602060405180830381865afa158015610391573d6000803e3d6000fd5b505050506040513d601f19601f820116820180604052508101906103b59190610505565b6001600160a01b0316146103fa5760405162461bcd60e51b815260206004820152600c60248201526b125b9d985b1a59081c1bdbdb60a21b604482015260640161033a565b5050505050610520565b80516001600160a01b038116811461041b57600080fd5b919050565b600080600080600085870360c081121561043957600080fd5b604081121561044757600080fd5b50604080519081016001600160401b038111828210171561047857634e487b7160e01b600052604160045260246000fd5b60405261048487610404565b815261049260208801610404565b602082015294506104a560408701610404565b93506104b360608701610404565b92506104c160808701610404565b91506104cf60a08701610404565b90509295509295909350565b6000602082840312156104ed57600080fd5b815160ff811681146104fe57600080fd5b9392505050565b60006020828403121561051757600080fd5b6104fe82610404565b60805160a05160c05160e05161010051610120516101405161016051610180516101a0516101c0516101e0516151f26108f2600039600081816104690152818161087a01528181610af101528181610fd8015281816118e20152818161283b01528181612e52015281816131e50152818161383701528181613962015261436001526000818161064f0152818161085601528181610acd01528181610fb4015281816119060152818161281701528181612e2e01528181613209015281816138130152818161393e015261433c0152600081816105a50152818161089f0152818161090701528181610b1601528181610ffd0152818161289501528181612e77015281816131a60152818161398701528181613b1f015261430a0152600081816103ba0152818161080901528181610a8d01528181610f74015281816110f801528181612dee01528181612ec3015281816138f50152613b6701526000818161026701526115c4015260008181610526015281816112e10152818161159c015281816116220152818161186a01528181611d1401528181613d520152818161413d015281816141c301526142930152600081816103460152818161077b015281816109ff01528181610ee601528181611143015281816111f4015281816113d80152818161193301528181611ac701528181611e5e015281816128ef01528181612d600152818161311b0152818161327c0152818161386201528181613bb201528181613c65015261438d01526000818161042f015281816109c40152818161139a01528181611dd40152818161210801528181612180015281816127d401528181612ab101528181612fa7015281816137d301528181613ac40152818161411001526143ff0152600081816103020152818161134f01528181611ef6015281816121470152818161298601528181612a7801528181612f6e015281816133df01528181613a7901526140060152600081816104ec015281816105580152818161093a0152818161098b01528181610d6d0152818161174c015281816117d401528181611b3801528181611ffd01528181612080015281816120cf0152818161273a01528181612af401528181612bc701528181612c470152818161373301526140b0015260008181610380015281816106880152818161095c01528181610dfc015281816110580152818161146f01528181611c2a01528181611f82015281816120a20152818161267501528181612a1201528181612b3c01528181612c7601528181612f00015281816133590152613a1301526000818161060d0152818161403301526140d201526151f26000f3fe608060405234801561001057600080fd5b50600436106102485760003560e01c806367c7066c1161013b578063b60ce400116100b8578063dbe55e561161007c578063dbe55e5614610608578063de5f62681461062f578063e033193a14610637578063e70940d11461064a578063f6ca71b01461067157600080fd5b8063b60ce400146105a0578063c2e1e3f4146105c7578063c7af3352146105da578063d38bfff4146105e2578063d9caed12146105f557600080fd5b80639642913c116100ff5780639642913c146104e757806396d538bb1461050e578063a6f19c8414610521578063aa388af614610548578063ad1728cb1461059857600080fd5b806367c7066c1461049d5780637b2d9b2c146104b0578063853828b6146104c35780638c04166f146104cb5780639136616a146104d457600080fd5b8063430bf08a116101c95780635d36b1901161018d5780635d36b1901461040f5780635f515226146104175780635fcbd2851461042a57806360b5bb3f1461045157806365a217c61461046457600080fd5b8063430bf08a1461037b57806343f68a49146103a257806347de4b7d146103b557806347e7ef24146103f45780635a063f631461040757600080fd5b80631072cbea116102105780631072cbea146102ea5780631a32aad6146102fd5780631b91d0cc14610324578063218751b214610341578063371450381461036857600080fd5b8063012c63831461024d57806307546172146102625780630c340a24146102a65780630ed57b3a146102ae5780630fc3b4c4146102c1575b600080fd5b61026061025b3660046149bc565b610686565b005b6102897f000000000000000000000000000000000000000000000000000000000000000081565b6040516001600160a01b0390911681526020015b60405180910390f35b610289610cf0565b6102606102bc3660046149ea565b610d0d565b6102896102cf366004614a23565b6035602052600090815260409020546001600160a01b031681565b6102606102f8366004614a40565b610d3f565b6102897f000000000000000000000000000000000000000000000000000000000000000081565b610333670dd99bb65dd7000081565b60405190815260200161029d565b6102897f000000000000000000000000000000000000000000000000000000000000000081565b6102606103763660046149bc565b610dfa565b6102897f000000000000000000000000000000000000000000000000000000000000000081565b6102606103b03660046149bc565b611434565b6103dc7f000000000000000000000000000000000000000000000000000000000000000081565b6040516001600160801b03909116815260200161029d565b610260610402366004614a40565b611464565b6102606114f5565b6102606116a2565b610333610425366004614a23565b611748565b6102897f000000000000000000000000000000000000000000000000000000000000000081565b61026061045f366004614ab8565b6119e1565b61048b7f000000000000000000000000000000000000000000000000000000000000000081565b60405160ff909116815260200161029d565b603954610289906001600160a01b031681565b6102896104be3660046149bc565b611bf5565b610260611c1f565b610333609d5481565b6102606104e23660046149bc565b6121c4565b6102897f000000000000000000000000000000000000000000000000000000000000000081565b61026061051c366004614b04565b61238f565b6102897f000000000000000000000000000000000000000000000000000000000000000081565b610588610556366004614a23565b7f00000000000000000000000000000000000000000000000000000000000000006001600160a01b0390811691161490565b604051901515815260200161029d565b6102606124a6565b6103dc7f000000000000000000000000000000000000000000000000000000000000000081565b6102606105d5366004614a23565b612508565b610588612595565b6102606105f0366004614a23565b6125c6565b610260610603366004614b46565b61266a565b6102897f000000000000000000000000000000000000000000000000000000000000000081565b610260612b31565b6102606106453660046149bc565b612c74565b61048b7f000000000000000000000000000000000000000000000000000000000000000081565b610679612fd5565b60405161029d9190614b87565b7f00000000000000000000000000000000000000000000000000000000000000006001600160a01b031663570d8e1d6040518163ffffffff1660e01b8152600401602060405180830381865afa1580156106e4573d6000803e3d6000fd5b505050506040513d601f19601f820116820180604052508101906107089190614bd3565b6001600160a01b0316336001600160a01b0316146107415760405162461bcd60e51b815260040161073890614bf0565b60405180910390fd5b60008051602061515d833981519152805460011981016107735760405162461bcd60e51b815260040161073890614c27565b6002825560007f00000000000000000000000000000000000000000000000000000000000000006001600160a01b03166314f059796040518163ffffffff1660e01b8152600401600060405180830381865afa1580156107d7573d6000803e3d6000fd5b505050506040513d6000823e601f3d908101601f191682016040526107ff9190810190614c65565b9050600061084e827f00000000000000000000000000000000000000000000000000000000000000006001600160801b03168151811061084157610841614d32565b6020026020010151613037565b6108f36108ee7f000000000000000000000000000000000000000000000000000000000000000060ff167f000000000000000000000000000000000000000000000000000000000000000060ff16867f00000000000000000000000000000000000000000000000000000000000000006001600160801b0316815181106108d7576108d7614d32565b60200260200101516130a59092919063ffffffff16565b613037565b6108fd9190614d5e565b9050600061092b867f0000000000000000000000000000000000000000000000000000000000000000613109565b90506109816001600160a01b037f0000000000000000000000000000000000000000000000000000000000000000167f0000000000000000000000000000000000000000000000000000000000000000836132fa565b610989613355565b7f00000000000000000000000000000000000000000000000000000000000000006001600160a01b031660008051602061519d8339815191527f0000000000000000000000000000000000000000000000000000000000000000836040516109f2929190614d85565b60405180910390a25060007f00000000000000000000000000000000000000000000000000000000000000006001600160a01b03166314f059796040518163ffffffff1660e01b8152600401600060405180830381865afa158015610a5b573d6000803e3d6000fd5b505050506040513d6000823e601f3d908101601f19168201604052610a839190810190614c65565b90506000610ac5827f00000000000000000000000000000000000000000000000000000000000000006001600160801b03168151811061084157610841614d32565b610b4e6108ee7f000000000000000000000000000000000000000000000000000000000000000060ff167f000000000000000000000000000000000000000000000000000000000000000060ff16867f00000000000000000000000000000000000000000000000000000000000000006001600160801b0316815181106108d7576108d7614d32565b610b589190614d5e565b905082600003610bb5578015610bb05760405162461bcd60e51b815260206004820152601c60248201527f506f736974696f6e2062616c616e636520697320776f7273656e6564000000006044820152606401610738565b610ce3565b6000831215610c4d576000811315610c065760405162461bcd60e51b81526020600482015260146024820152734f546f6b656e73206f76657273686f742070656760601b6044820152606401610738565b808312610bb05760405162461bcd60e51b81526020600482015260156024820152744f546f6b656e732062616c616e636520776f72736560581b6044820152606401610738565b6000831315610ce3576000811215610c9d5760405162461bcd60e51b8152602060048201526013602482015272417373657473206f76657273686f742070656760681b6044820152606401610738565b828112610ce35760405162461bcd60e51b81526020600482015260146024820152734173736574732062616c616e636520776f72736560601b6044820152606401610738565b5050505060018255505050565b6000610d0860008051602061517d8339815191525490565b905090565b610d15612595565b610d315760405162461bcd60e51b815260040161073890614d9e565b610d3b82826134b7565b5050565b610d47612595565b610d635760405162461bcd60e51b815260040161073890614d9e565b6001600160a01b037f0000000000000000000000000000000000000000000000000000000000000000811690831603610dde5760405162461bcd60e51b815260206004820152601f60248201527f43616e6e6f74207472616e7366657220737570706f72746564206173736574006044820152606401610738565b610d3b610de9610cf0565b6001600160a01b03841690836132fa565b7f00000000000000000000000000000000000000000000000000000000000000006001600160a01b031663570d8e1d6040518163ffffffff1660e01b8152600401602060405180830381865afa158015610e58573d6000803e3d6000fd5b505050506040513d601f19601f82011682018060405250810190610e7c9190614bd3565b6001600160a01b0316336001600160a01b031614610eac5760405162461bcd60e51b815260040161073890614bf0565b60008051602061515d83398151915280546001198101610ede5760405162461bcd60e51b815260040161073890614c27565b6002825560007f00000000000000000000000000000000000000000000000000000000000000006001600160a01b03166314f059796040518163ffffffff1660e01b8152600401600060405180830381865afa158015610f42573d6000803e3d6000fd5b505050506040513d6000823e601f3d908101601f19168201604052610f6a9190810190614c65565b90506000610fac827f00000000000000000000000000000000000000000000000000000000000000006001600160801b03168151811061084157610841614d32565b6110356108ee7f000000000000000000000000000000000000000000000000000000000000000060ff167f000000000000000000000000000000000000000000000000000000000000000060ff16867f00000000000000000000000000000000000000000000000000000000000000006001600160801b0316815181106108d7576108d7614d32565b61103f9190614d5e565b60405163ab80dafb60e01b8152600481018790529091507f00000000000000000000000000000000000000000000000000000000000000006001600160a01b03169063ab80dafb90602401600060405180830381600087803b1580156110a457600080fd5b505af11580156110b8573d6000803e3d6000fd5b5060009250600291506110c89050565b6040519080825280602002602001820160405280156110f1578160200160208202803683370190505b50905085817f00000000000000000000000000000000000000000000000000000000000000006001600160801b03168151811061113057611130614d32565b60200260200101818152505060006111ca7f00000000000000000000000000000000000000000000000000000000000000006001600160a01b031663bb7b8b806040518163ffffffff1660e01b8152600401602060405180830381865afa15801561119f573d6000803e3d6000fd5b505050506040513d601f19601f820116820180604052508101906111c39190614dd5565b8890613616565b905060006111ee609d54670de0b6b3a76400006111e79190614dee565b8390613641565b905060007f00000000000000000000000000000000000000000000000000000000000000006001600160a01b031663b72df5de85846040518363ffffffff1660e01b8152600401611240929190614e3d565b6020604051808303816000875af115801561125f573d6000803e3d6000fd5b505050506040513d601f19601f820116820180604052508101906112839190614dd5565b9050818110156112cb5760405162461bcd60e51b815260206004820152601360248201527226b4b71026281030b6b7bab73a1032b93937b960691b6044820152606401610738565b60405163b6b55f2560e01b8152600481018290527f00000000000000000000000000000000000000000000000000000000000000006001600160a01b03169063b6b55f2590602401600060405180830381600087803b15801561132d57600080fd5b505af1158015611341573d6000803e3d6000fd5b5050505061134d613355565b7f00000000000000000000000000000000000000000000000000000000000000006001600160a01b03167f5548c837ab068cf56a2c2479df0882a4922fd203edb7517321831d95078c5f627f00000000000000000000000000000000000000000000000000000000000000008b6040516113c8929190614d85565b60405180910390a25050505060007f00000000000000000000000000000000000000000000000000000000000000006001600160a01b03166314f059796040518163ffffffff1660e01b8152600401600060405180830381865afa158015610a5b573d6000803e3d6000fd5b61143c612595565b6114585760405162461bcd60e51b815260040161073890614d9e565b61146181613656565b50565b336001600160a01b037f000000000000000000000000000000000000000000000000000000000000000016146114ac5760405162461bcd60e51b815260040161073890614e5f565b60008051602061515d833981519152805460011981016114de5760405162461bcd60e51b815260040161073890614c27565b600282556114ec84846136e8565b50600190555050565b6039546001600160a01b0316331461154f5760405162461bcd60e51b815260206004820152601b60248201527f43616c6c6572206973206e6f74207468652048617276657374657200000000006044820152606401610738565b60008051602061515d833981519152805460011981016115815760405162461bcd60e51b815260040161073890614c27565b600282556040516335313c2160e11b81526001600160a01b037f0000000000000000000000000000000000000000000000000000000000000000811660048301527f00000000000000000000000000000000000000000000000000000000000000001690636a62784290602401600060405180830381600087803b15801561160857600080fd5b505af115801561161c573d6000803e3d6000fd5b505050507f00000000000000000000000000000000000000000000000000000000000000006001600160a01b031663e6f1daf26040518163ffffffff1660e01b8152600401600060405180830381600087803b15801561167b57600080fd5b505af115801561168f573d6000803e3d6000fd5b5050505061169b613dc9565b5060019055565b7f44c4d30b2eaad5130ad70c3ba6972730566f3e6359ab83e800d905c61b1c51db546001600160a01b0316336001600160a01b03161461173d5760405162461bcd60e51b815260206004820152603060248201527f4f6e6c79207468652070656e64696e6720476f7665726e6f722063616e20636f60448201526f6d706c6574652074686520636c61696d60801b6064820152608401610738565b61174633613edd565b565b60007f00000000000000000000000000000000000000000000000000000000000000006001600160a01b0316826001600160a01b0316146117bf5760405162461bcd60e51b8152602060048201526011602482015270155b9cdd5c1c1bdc9d195908185cdcd95d607a1b6044820152606401610738565b6040516370a0823160e01b81523060048201527f00000000000000000000000000000000000000000000000000000000000000006001600160a01b0316906370a0823190602401602060405180830381865afa158015611823573d6000803e3d6000fd5b505050506040513d601f19601f820116820180604052508101906118479190614dd5565b6040516370a0823160e01b81523060048201529091506000906001600160a01b037f000000000000000000000000000000000000000000000000000000000000000016906370a0823190602401602060405180830381865afa1580156118b1573d6000803e3d6000fd5b505050506040513d601f19601f820116820180604052508101906118d59190614dd5565b905080156119db576119ce7f000000000000000000000000000000000000000000000000000000000000000060ff167f000000000000000000000000000000000000000000000000000000000000000060ff16670de0b6b3a76400007f00000000000000000000000000000000000000000000000000000000000000006001600160a01b031663bb7b8b806040518163ffffffff1660e01b8152600401602060405180830381865afa15801561198f573d6000803e3d6000fd5b505050506040513d601f19601f820116820180604052508101906119b39190614dd5565b6119bd9086614e96565b6119c79190614ead565b91906130a5565b6119d89083614ecf565b91505b50919050565b6119e9612595565b611a055760405162461bcd60e51b815260040161073890614d9e565b600054610100900460ff1680611a1e575060005460ff16155b611a815760405162461bcd60e51b815260206004820152602e60248201527f496e697469616c697a61626c653a20636f6e747261637420697320616c72656160448201526d191e481a5b9a5d1a585b1a5e995960921b6064820152608401610738565b600054610100900460ff16158015611aa3576000805461ffff19166101011790555b604080516001808252818301909252600091602080830190803683370190505090507f000000000000000000000000000000000000000000000000000000000000000081600081518110611af957611af9614d32565b6001600160a01b0392909216602092830291909101909101526040805160018082528183019092526000918160200160208202803683370190505090507f000000000000000000000000000000000000000000000000000000000000000081600081518110611b6a57611b6a614d32565b60200260200101906001600160a01b031690816001600160a01b031681525050611bca868680806020026020016040519081016040528093929190818152602001838360200280828437600092019190915250859250869150613f3c9050565b611bd2613fef565b611bdb84613656565b50508015611bef576000805461ff00191690555b50505050565b603a8181548110611c0557600080fd5b6000918252602090912001546001600160a01b0316905081565b336001600160a01b037f0000000000000000000000000000000000000000000000000000000000000000161480611c6e5750611c59610cf0565b6001600160a01b0316336001600160a01b0316145b611cc65760405162461bcd60e51b815260206004820152602360248201527f43616c6c6572206973206e6f7420746865205661756c74206f7220476f7665726044820152623737b960e91b6064820152608401610738565b60008051602061515d83398151915280546001198101611cf85760405162461bcd60e51b815260040161073890614c27565b600282556040516370a0823160e01b81523060048201526000907f00000000000000000000000000000000000000000000000000000000000000006001600160a01b0316906370a0823190602401602060405180830381865afa158015611d63573d6000803e3d6000fd5b505050506040513d601f19601f82011682018060405250810190611d879190614dd5565b9050611d92816141ac565b604080516002808252606082018352600092602083019080368337019050506040516370a0823160e01b81523060048201529091506000906001600160a01b037f000000000000000000000000000000000000000000000000000000000000000016906370a0823190602401602060405180830381865afa158015611e1b573d6000803e3d6000fd5b505050506040513d601f19601f82011682018060405250810190611e3f9190614dd5565b90508015611ede5760405163350376e360e21b81526001600160a01b037f0000000000000000000000000000000000000000000000000000000000000000169063d40ddb8c90611e959084908690600401614ee2565b6000604051808303816000875af1158015611eb4573d6000803e3d6000fd5b505050506040513d6000823e601f3d908101601f19168201604052611edc9190810190614c65565b505b6040516370a0823160e01b81523060048201526000907f00000000000000000000000000000000000000000000000000000000000000006001600160a01b0316906370a0823190602401602060405180830381865afa158015611f45573d6000803e3d6000fd5b505050506040513d601f19601f82011682018060405250810190611f699190614dd5565b60405163310bf9f560e11b8152600481018290529091507f00000000000000000000000000000000000000000000000000000000000000006001600160a01b031690636217f3ea90602401600060405180830381600087803b158015611fce57600080fd5b505af1158015611fe2573d6000803e3d6000fd5b50506040516370a0823160e01b8152306004820152600092507f00000000000000000000000000000000000000000000000000000000000000006001600160a01b031691506370a0823190602401602060405180830381865afa15801561204d573d6000803e3d6000fd5b505050506040513d601f19601f820116820180604052508101906120719190614dd5565b90506120c76001600160a01b037f0000000000000000000000000000000000000000000000000000000000000000167f0000000000000000000000000000000000000000000000000000000000000000836132fa565b801561213f577f00000000000000000000000000000000000000000000000000000000000000006001600160a01b031660008051602061519d8339815191527f000000000000000000000000000000000000000000000000000000000000000083604051612136929190614d85565b60405180910390a25b81156121b7577f00000000000000000000000000000000000000000000000000000000000000006001600160a01b031660008051602061519d8339815191527f0000000000000000000000000000000000000000000000000000000000000000846040516121ae929190614d85565b60405180910390a25b5050505050600182555050565b6121cc612595565b6121e85760405162461bcd60e51b815260040161073890614d9e565b60365481106122295760405162461bcd60e51b815260206004820152600d60248201526c092dcecc2d8d2c840d2dcc8caf609b1b6044820152606401610738565b60006036828154811061223e5761223e614d32565b60009182526020808320909101546001600160a01b0390811680845260359092526040909220546036549193509091169061227b90600190614dee565b8310156122fd576036805461229290600190614dee565b815481106122a2576122a2614d32565b600091825260209091200154603680546001600160a01b0390921691859081106122ce576122ce614d32565b9060005260206000200160006101000a8154816001600160a01b0302191690836001600160a01b031602179055505b603680548061230e5761230e614efb565b60008281526020808220600019908401810180546001600160a01b031990811690915593019093556001600160a01b038581168083526035855260409283902080549094169093559051908416815290917f16b7600acff27e39a8a96056b3d533045298de927507f5c1d97e4accde60488c910160405180910390a2505050565b612397612595565b6123b35760405162461bcd60e51b815260040161073890614d9e565b8060005b8181101561245d5760008484838181106123d3576123d3614d32565b90506020020160208101906123e89190614a23565b6001600160a01b0316036124555760405162461bcd60e51b815260206004820152602e60248201527f43616e206e6f742073657420616e20656d70747920616464726573732061732060448201526d30903932bbb0b932103a37b5b2b760911b6064820152608401610738565b6001016123b7565b507f04c0b9649497d316554306e53678d5f5f5dbc3a06f97dec13ff4cfe98b986bbc603a848460405161249293929190614f11565b60405180910390a1611bef603a84846148f3565b6124ae612595565b6124ca5760405162461bcd60e51b815260040161073890614d9e565b60008051602061515d833981519152805460011981016124fc5760405162461bcd60e51b815260040161073890614c27565b6002825561169b613fef565b612510612595565b61252c5760405162461bcd60e51b815260040161073890614d9e565b603954604080516001600160a01b03928316815291831660208301527fe48386b84419f4d36e0f96c10cc3510b6fb1a33795620c5098b22472bbe90796910160405180910390a1603980546001600160a01b0319166001600160a01b0392909216919091179055565b60006125ad60008051602061517d8339815191525490565b6001600160a01b0316336001600160a01b031614905090565b6125ce612595565b6125ea5760405162461bcd60e51b815260040161073890614d9e565b612612817f44c4d30b2eaad5130ad70c3ba6972730566f3e6359ab83e800d905c61b1c51db55565b806001600160a01b031661263260008051602061517d8339815191525490565b6001600160a01b03167fa39cc5eb22d0f34d8beaefee8a3f17cc229c1a1d1ef87a5ad47313487b1c4f0d60405160405180910390a350565b336001600160a01b037f000000000000000000000000000000000000000000000000000000000000000016146126b25760405162461bcd60e51b815260040161073890614e5f565b60008051602061515d833981519152805460011981016126e45760405162461bcd60e51b815260040161073890614c27565b60028255600083116127385760405162461bcd60e51b815260206004820152601760248201527f4d75737420776974686472617720736f6d657468696e670000000000000000006044820152606401610738565b7f00000000000000000000000000000000000000000000000000000000000000006001600160a01b0316846001600160a01b0316146127b95760405162461bcd60e51b815260206004820152601c60248201527f43616e206f6e6c792077697468647261772068617264206173736574000000006044820152606401610738565b836001600160a01b031660008051602061519d8339815191527f000000000000000000000000000000000000000000000000000000000000000085604051612802929190614d85565b60405180910390a260006128656128608560ff7f00000000000000000000000000000000000000000000000000000000000000008116907f0000000000000000000000000000000000000000000000000000000000000000166130a5565b6142f3565b9050612870816141ac565b60408051600280825260608201835260009260208301908036833701905050905084817f00000000000000000000000000000000000000000000000000000000000000006001600160801b0316815181106128cd576128cd614d32565b602090810291909101015260405163350376e360e21b81526001600160a01b037f0000000000000000000000000000000000000000000000000000000000000000169063d40ddb8c906129269085908590600401614ee2565b6000604051808303816000875af1158015612945573d6000803e3d6000fd5b505050506040513d6000823e601f3d908101601f1916820160405261296d9190810190614c65565b506040516370a0823160e01b81523060048201526000907f00000000000000000000000000000000000000000000000000000000000000006001600160a01b0316906370a0823190602401602060405180830381865afa1580156129d5573d6000803e3d6000fd5b505050506040513d601f19601f820116820180604052508101906129f99190614dd5565b60405163310bf9f560e11b8152600481018290529091507f00000000000000000000000000000000000000000000000000000000000000006001600160a01b031690636217f3ea90602401600060405180830381600087803b158015612a5e57600080fd5b505af1158015612a72573d6000803e3d6000fd5b505050507f00000000000000000000000000000000000000000000000000000000000000006001600160a01b031660008051602061519d8339815191527f000000000000000000000000000000000000000000000000000000000000000083604051612adf929190614d85565b60405180910390a2612b1b6001600160a01b037f00000000000000000000000000000000000000000000000000000000000000001689886132fa565b612b23613355565b505050600182555050505050565b336001600160a01b037f00000000000000000000000000000000000000000000000000000000000000001614612b795760405162461bcd60e51b815260040161073890614e5f565b60008051602061515d83398151915280546001198101612bab5760405162461bcd60e51b815260040161073890614c27565b600282556040516370a0823160e01b81523060048201526000907f00000000000000000000000000000000000000000000000000000000000000006001600160a01b0316906370a0823190602401602060405180830381865afa158015612c16573d6000803e3d6000fd5b505050506040513d601f19601f82011682018060405250810190612c3a9190614dd5565b90508015612c6c57612c6c7f0000000000000000000000000000000000000000000000000000000000000000826136e8565b505060019055565b7f00000000000000000000000000000000000000000000000000000000000000006001600160a01b031663570d8e1d6040518163ffffffff1660e01b8152600401602060405180830381865afa158015612cd2573d6000803e3d6000fd5b505050506040513d601f19601f82011682018060405250810190612cf69190614bd3565b6001600160a01b0316336001600160a01b031614612d265760405162461bcd60e51b815260040161073890614bf0565b60008051602061515d83398151915280546001198101612d585760405162461bcd60e51b815260040161073890614c27565b6002825560007f00000000000000000000000000000000000000000000000000000000000000006001600160a01b03166314f059796040518163ffffffff1660e01b8152600401600060405180830381865afa158015612dbc573d6000803e3d6000fd5b505050506040513d6000823e601f3d908101601f19168201604052612de49190810190614c65565b90506000612e26827f00000000000000000000000000000000000000000000000000000000000000006001600160801b03168151811061084157610841614d32565b612eaf6108ee7f000000000000000000000000000000000000000000000000000000000000000060ff167f000000000000000000000000000000000000000000000000000000000000000060ff16867f00000000000000000000000000000000000000000000000000000000000000006001600160801b0316815181106108d7576108d7614d32565b612eb99190614d5e565b90506000612ee7867f0000000000000000000000000000000000000000000000000000000000000000613109565b60405163310bf9f560e11b8152600481018290529091507f00000000000000000000000000000000000000000000000000000000000000006001600160a01b031690636217f3ea90602401600060405180830381600087803b158015612f4c57600080fd5b505af1158015612f60573d6000803e3d6000fd5b50505050612f6c613355565b7f00000000000000000000000000000000000000000000000000000000000000006001600160a01b031660008051602061519d8339815191527f0000000000000000000000000000000000000000000000000000000000000000836040516109f2929190614d85565b6060603a80548060200260200160405190810160405280929190818152602001828054801561302d57602002820191906000526020600020905b81546001600160a01b0316815260019091019060200180831161300f575b5050505050905090565b60006001600160ff1b038211156130a15760405162461bcd60e51b815260206004820152602860248201527f53616665436173743a2076616c756520646f65736e27742066697420696e2061604482015267371034b73a191a9b60c11b6064820152608401610738565b5090565b6000818311156130d5576130ce6130bc8385614dee565b6130c790600a615093565b85906144d7565b93506130ff565b818310156130ff576130fc6130ea8484614dee565b6130f590600a615093565b85906144e3565b93505b50825b9392505050565b6000613114836141ac565b60006131a27f00000000000000000000000000000000000000000000000000000000000000006001600160a01b031663bb7b8b806040518163ffffffff1660e01b8152600401602060405180830381865afa158015613177573d6000803e3d6000fd5b505050506040513d601f19601f8201168201806040525081019061319b9190614dd5565b8590613641565b90507f00000000000000000000000000000000000000000000000000000000000000006001600160801b0316836001600160801b0316036132315761322e8160ff7f00000000000000000000000000000000000000000000000000000000000000008116907f0000000000000000000000000000000000000000000000000000000000000000166130a5565b90505b600061324c609d54670de0b6b3a76400006111e79190614dee565b60405163081579a560e01b815260048101879052600f86900b6024820152604481018290523060648201529091507f00000000000000000000000000000000000000000000000000000000000000006001600160a01b03169063081579a5906084016020604051808303816000875af11580156132cd573d6000803e3d6000fd5b505050506040513d601f19601f820116820180604052508101906132f19190614dd5565b95945050505050565b6133508363a9059cbb60e01b8484604051602401613319929190614d85565b60408051601f198184030181529190526020810180516001600160e01b03166001600160e01b0319909316929092179091526144ef565b505050565b60007f00000000000000000000000000000000000000000000000000000000000000006001600160a01b031663d4c3eea06040518163ffffffff1660e01b8152600401602060405180830381865afa1580156133b5573d6000803e3d6000fd5b505050506040513d601f19601f820116820180604052508101906133d99190614dd5565b905060007f00000000000000000000000000000000000000000000000000000000000000006001600160a01b03166318160ddd6040518163ffffffff1660e01b8152600401602060405180830381865afa15801561343b573d6000803e3d6000fd5b505050506040513d601f19601f8201168201806040525081019061345f9190614dd5565b9050670dd99bb65dd700006134748383613616565b1015610d3b5760405162461bcd60e51b8152602060048201526012602482015271141c9bdd1bd8dbdb081a5b9cdbdb1d995b9d60721b6044820152606401610738565b6001600160a01b0382811660009081526035602052604090205416156135145760405162461bcd60e51b81526020600482015260126024820152711c151bdad95b88185b1c9958591e481cd95d60721b6044820152606401610738565b6001600160a01b0382161580159061353457506001600160a01b03811615155b6135745760405162461bcd60e51b8152602060048201526011602482015270496e76616c69642061646472657373657360781b6044820152606401610738565b6001600160a01b03828116600081815260356020908152604080832080549587166001600160a01b031996871681179091556036805460018101825594527f4a11f94e20a93c79f6ec743a1954ec4fc2c08429ae2122118bf234b2185c81b890930180549095168417909455925190815290917fef6485b84315f9b1483beffa32aae9a0596890395e3d7521f1c5fbb51790e765910160405180910390a25050565b60008061362b84670de0b6b3a76400006144d7565b905061363781846144e3565b9150505b92915050565b60006131028383670de0b6b3a76400006145c1565b66b1a2bc2ec500008111156136ad5760405162461bcd60e51b815260206004820152601f60248201527f536c697070616765206d757374206265206c657373207468616e2031303025006044820152606401610738565b609d8190556040518181527f9c922f6d0c990b250e9dd0a427a5c8da7f44b960f697fecb31cbbd8ba79ec8c29060200160405180910390a150565b600081116137315760405162461bcd60e51b81526020600482015260166024820152754d757374206465706f73697420736f6d657468696e6760501b6044820152606401610738565b7f00000000000000000000000000000000000000000000000000000000000000006001600160a01b0316826001600160a01b0316146137a65760405162461bcd60e51b8152602060048201526011602482015270155b9cdd5c1c1bdc9d195908185cdcd95d607a1b6044820152606401610738565b816001600160a01b03167f5548c837ab068cf56a2c2479df0882a4922fd203edb7517321831d95078c5f627f000000000000000000000000000000000000000000000000000000000000000083604051613801929190614d85565b60405180910390a2600061385c8260ff7f00000000000000000000000000000000000000000000000000000000000000008116907f0000000000000000000000000000000000000000000000000000000000000000166130a5565b905060007f00000000000000000000000000000000000000000000000000000000000000006001600160a01b03166314f059796040518163ffffffff1660e01b8152600401600060405180830381865afa1580156138be573d6000803e3d6000fd5b505050506040513d6000823e601f3d908101601f191682016040526138e69190810190614c65565b905060006139d8600061392d847f00000000000000000000000000000000000000000000000000000000000000006001600160801b03168151811061084157610841614d32565b61393686613037565b6139bf6108ee7f000000000000000000000000000000000000000000000000000000000000000060ff167f000000000000000000000000000000000000000000000000000000000000000060ff16897f00000000000000000000000000000000000000000000000000000000000000006001600160801b0316815181106108d7576108d7614d32565b6139c9919061509f565b6139d39190614d5e565b6145da565b90506139e481846145f1565b90506139fa816139f5856002614e96565b614601565b60405163ab80dafb60e01b8152600481018290529091507f00000000000000000000000000000000000000000000000000000000000000006001600160a01b03169063ab80dafb90602401600060405180830381600087803b158015613a5f57600080fd5b505af1158015613a73573d6000803e3d6000fd5b505050507f00000000000000000000000000000000000000000000000000000000000000006001600160a01b03167f5548c837ab068cf56a2c2479df0882a4922fd203edb7517321831d95078c5f627f000000000000000000000000000000000000000000000000000000000000000083604051613af2929190614d85565b60405180910390a260408051600280825260608201835260009260208301908036833701905050905084817f00000000000000000000000000000000000000000000000000000000000000006001600160801b031681518110613b5757613b57614d32565b60200260200101818152505081817f00000000000000000000000000000000000000000000000000000000000000006001600160801b031681518110613b9f57613b9f614d32565b6020026020010181815250506000613c427f00000000000000000000000000000000000000000000000000000000000000006001600160a01b031663bb7b8b806040518163ffffffff1660e01b8152600401602060405180830381865afa158015613c0e573d6000803e3d6000fd5b505050506040513d601f19601f82011682018060405250810190613c329190614dd5565b613c3c8588614ecf565b90613616565b90506000613c5f609d54670de0b6b3a76400006111e79190614dee565b905060007f00000000000000000000000000000000000000000000000000000000000000006001600160a01b031663b72df5de85846040518363ffffffff1660e01b8152600401613cb1929190614e3d565b6020604051808303816000875af1158015613cd0573d6000803e3d6000fd5b505050506040513d601f19601f82011682018060405250810190613cf49190614dd5565b905081811015613d3c5760405162461bcd60e51b815260206004820152601360248201527226b4b71026281030b6b7bab73a1032b93937b960691b6044820152606401610738565b60405163b6b55f2560e01b8152600481018290527f00000000000000000000000000000000000000000000000000000000000000006001600160a01b03169063b6b55f2590602401600060405180830381600087803b158015613d9e57600080fd5b505af1158015613db2573d6000803e3d6000fd5b50505050613dbe613355565b505050505050505050565b603a5460005b81811015610d3b576000603a8281548110613dec57613dec614d32565b60009182526020822001546040516370a0823160e01b81523060048201526001600160a01b03909116925082906370a0823190602401602060405180830381865afa158015613e3f573d6000803e3d6000fd5b505050506040513d601f19601f82011682018060405250810190613e639190614dd5565b90508015613ed357603954604080516001600160a01b039283168152918416602083015281018290527ff6c07a063ed4e63808eb8da7112d46dbcd38de2b40a73dbcc9353c5a94c723539060600160405180910390a1603954613ed3906001600160a01b038481169116836132fa565b5050600101613dcf565b6001600160a01b038116613f335760405162461bcd60e51b815260206004820152601a60248201527f4e657720476f7665726e6f7220697320616464726573732830290000000000006044820152606401610738565b61146181614610565b8251613f4f90603a906020860190614952565b50815181518114613f995760405162461bcd60e51b8152602060048201526014602482015273496e76616c696420696e7075742061727261797360601b6044820152606401610738565b60005b81811015613fe857613fe0848281518110613fb957613fb9614d32565b6020026020010151848381518110613fd357613fd3614d32565b60200260200101516134b7565b600101613f9c565b5050505050565b60405163095ea7b360e01b81526001600160a01b037f0000000000000000000000000000000000000000000000000000000000000000169063095ea7b39061405f907f00000000000000000000000000000000000000000000000000000000000000009060001990600401614d85565b6020604051808303816000875af115801561407e573d6000803e3d6000fd5b505050506040513d601f19601f820116820180604052508101906140a291906150c7565b506140f96001600160a01b037f0000000000000000000000000000000000000000000000000000000000000000167f0000000000000000000000000000000000000000000000000000000000000000600019614677565b60405163095ea7b360e01b81526001600160a01b037f0000000000000000000000000000000000000000000000000000000000000000169063095ea7b390614169907f00000000000000000000000000000000000000000000000000000000000000009060001990600401614d85565b6020604051808303816000875af1158015614188573d6000803e3d6000fd5b505050506040513d601f19601f8201168201806040525081019061146191906150c7565b6040516370a0823160e01b815230600482015281907f00000000000000000000000000000000000000000000000000000000000000006001600160a01b0316906370a0823190602401602060405180830381865afa158015614212573d6000803e3d6000fd5b505050506040513d601f19601f820116820180604052508101906142369190614dd5565b101561427d5760405162461bcd60e51b8152602060048201526016602482015275496e73756666696369656e74204c5020746f6b656e7360501b6044820152606401610738565b604051632e1a7d4d60e01b8152600481018290527f00000000000000000000000000000000000000000000000000000000000000006001600160a01b031690632e1a7d4d90602401600060405180830381600087803b1580156142df57600080fd5b505af1158015613fe8573d6000803e3d6000fd5b604051634903b0d160e01b81526001600160801b037f000000000000000000000000000000000000000000000000000000000000000016600482015260009081906143f89060ff7f00000000000000000000000000000000000000000000000000000000000000008116917f0000000000000000000000000000000000000000000000000000000000000000909116906001600160a01b037f00000000000000000000000000000000000000000000000000000000000000001690634903b0d190602401602060405180830381865afa1580156143d4573d6000803e3d6000fd5b505050506040513d601f19601f820116820180604052508101906119c79190614dd5565b90506000817f00000000000000000000000000000000000000000000000000000000000000006001600160a01b03166318160ddd6040518163ffffffff1660e01b8152600401602060405180830381865afa15801561445b573d6000803e3d6000fd5b505050506040513d601f19601f8201168201806040525081019061447f9190614dd5565b614498906ec097ce7bc90715b34b9f1000000000614e96565b6144a29190614ead565b90506000816144b2866001614ecf565b6144bc9190614e96565b90506132f16ec097ce7bc90715b34b9f100000000082614ead565b60006131028284614e96565b60006131028284614ead565b6000614544826040518060400160405280602081526020017f5361666545524332303a206c6f772d6c6576656c2063616c6c206661696c6564815250856001600160a01b031661477b9092919063ffffffff16565b805190915015613350578080602001905181019061456291906150c7565b6133505760405162461bcd60e51b815260206004820152602a60248201527f5361666545524332303a204552433230206f7065726174696f6e20646964206e6044820152691bdd081cdd58d8d9595960b21b6064820152608401610738565b6000806145ce85856144d7565b90506132f181846144e3565b6000818312156145ea5781613102565b5090919050565b6000818310156145ea5781613102565b60008183106145ea5781613102565b806001600160a01b031661463060008051602061517d8339815191525490565b6001600160a01b03167fc7c0c772add429241571afb3805861fb3cfa2af374534088b76cdb4325a87e9a60405160405180910390a360008051602061517d83398151915255565b8015806146f15750604051636eb1769f60e11b81523060048201526001600160a01b03838116602483015284169063dd62ed3e90604401602060405180830381865afa1580156146cb573d6000803e3d6000fd5b505050506040513d601f19601f820116820180604052508101906146ef9190614dd5565b155b61475c5760405162461bcd60e51b815260206004820152603660248201527f5361666545524332303a20617070726f76652066726f6d206e6f6e2d7a65726f60448201527520746f206e6f6e2d7a65726f20616c6c6f77616e636560501b6064820152608401610738565b6133508363095ea7b360e01b8484604051602401613319929190614d85565b606061478a8484600085614792565b949350505050565b6060824710156147f35760405162461bcd60e51b815260206004820152602660248201527f416464726573733a20696e73756666696369656e742062616c616e636520666f6044820152651c8818d85b1b60d21b6064820152608401610738565b843b6148415760405162461bcd60e51b815260206004820152601d60248201527f416464726573733a2063616c6c20746f206e6f6e2d636f6e74726163740000006044820152606401610738565b600080866001600160a01b0316858760405161485d919061510d565b60006040518083038185875af1925050503d806000811461489a576040519150601f19603f3d011682016040523d82523d6000602084013e61489f565b606091505b50915091506148af8282866148ba565b979650505050505050565b606083156148c9575081613102565b8251156148d95782518084602001fd5b8160405162461bcd60e51b81526004016107389190615129565b828054828255906000526020600020908101928215614946579160200282015b828111156149465781546001600160a01b0319166001600160a01b03843516178255602090920191600190910190614913565b506130a19291506149a7565b828054828255906000526020600020908101928215614946579160200282015b8281111561494657825182546001600160a01b0319166001600160a01b03909116178255602090920191600190910190614972565b5b808211156130a157600081556001016149a8565b6000602082840312156149ce57600080fd5b5035919050565b6001600160a01b038116811461146157600080fd5b600080604083850312156149fd57600080fd5b8235614a08816149d5565b91506020830135614a18816149d5565b809150509250929050565b600060208284031215614a3557600080fd5b8135613102816149d5565b60008060408385031215614a5357600080fd5b8235614a5e816149d5565b946020939093013593505050565b60008083601f840112614a7e57600080fd5b50813567ffffffffffffffff811115614a9657600080fd5b6020830191508360208260051b8501011115614ab157600080fd5b9250929050565b600080600060408486031215614acd57600080fd5b833567ffffffffffffffff811115614ae457600080fd5b614af086828701614a6c565b909790965060209590950135949350505050565b60008060208385031215614b1757600080fd5b823567ffffffffffffffff811115614b2e57600080fd5b614b3a85828601614a6c565b90969095509350505050565b600080600060608486031215614b5b57600080fd5b8335614b66816149d5565b92506020840135614b76816149d5565b929592945050506040919091013590565b602080825282518282018190526000918401906040840190835b81811015614bc85783516001600160a01b0316835260209384019390920191600101614ba1565b509095945050505050565b600060208284031215614be557600080fd5b8151613102816149d5565b6020808252601c908201527f43616c6c6572206973206e6f7420746865205374726174656769737400000000604082015260600190565b6020808252600e908201526d1499595b9d1c985b9d0818d85b1b60921b604082015260600190565b634e487b7160e01b600052604160045260246000fd5b600060208284031215614c7757600080fd5b815167ffffffffffffffff811115614c8e57600080fd5b8201601f81018413614c9f57600080fd5b805167ffffffffffffffff811115614cb957614cb9614c4f565b8060051b604051601f19603f830116810181811067ffffffffffffffff82111715614ce657614ce6614c4f565b604052918252602081840181019290810187841115614d0457600080fd5b6020850194505b83851015614d2757845180825260209586019590935001614d0b565b509695505050505050565b634e487b7160e01b600052603260045260246000fd5b634e487b7160e01b600052601160045260246000fd5b8181036000831280158383131683831282161715614d7e57614d7e614d48565b5092915050565b6001600160a01b03929092168252602082015260400190565b6020808252601a908201527f43616c6c6572206973206e6f742074686520476f7665726e6f72000000000000604082015260600190565b600060208284031215614de757600080fd5b5051919050565b8181038181111561363b5761363b614d48565b600081518084526020840193506020830160005b82811015614e33578151865260209586019590910190600101614e15565b5093949350505050565b604081526000614e506040830185614e01565b90508260208301529392505050565b60208082526017908201527f43616c6c6572206973206e6f7420746865205661756c74000000000000000000604082015260600190565b808202811582820484141761363b5761363b614d48565b600082614eca57634e487b7160e01b600052601260045260246000fd5b500490565b8082018082111561363b5761363b614d48565b82815260406020820152600061478a6040830184614e01565b634e487b7160e01b600052603160045260246000fd5b6040808252845490820181905260008581526020812090916060840190835b81811015614f575783546001600160a01b0316835260019384019360209093019201614f30565b50508381036020808601919091528582520190508460005b85811015614fa0578135614f82816149d5565b6001600160a01b031683526020928301929190910190600101614f6f565b50909695505050505050565b6001815b6001841115614fe757808504811115614fcb57614fcb614d48565b6001841615614fd957908102905b60019390931c928002614fb0565b935093915050565b600082614ffe5750600161363b565b8161500b5750600061363b565b8160018114615021576002811461502b57615047565b600191505061363b565b60ff84111561503c5761503c614d48565b50506001821b61363b565b5060208310610133831016604e8410600b841016171561506a575081810a61363b565b6150776000198484614fac565b806000190482111561508b5761508b614d48565b029392505050565b60006131028383614fef565b80820182811260008312801582168215821617156150bf576150bf614d48565b505092915050565b6000602082840312156150d957600080fd5b8151801515811461310257600080fd5b60005b838110156151045781810151838201526020016150ec565b50506000910152565b6000825161511f8184602087016150e9565b9190910192915050565b60208152600082518060208401526151488160408501602087016150e9565b601f01601f1916919091016040019291505056fe53bf423e48ed90e97d02ab0ebab13b2a235a6bfbe9c321847d5c175333ac45357bea13895fa79d2831e0a9e28edede30099005a50d652d8957cf8a607ee6ca4a2717ead6b9200dd235aad468c9809ea400fe33ac69b5bfaa6d3e90fc922b6398a264697066735822122029337a4c182fb90fc2edbfe25e32b5811d95e135b6ffc3b686ee4e92c5ee9c1264736f6c634300081c0033",
  "libraries": {},
  "devdoc": {
    "kind": "dev",
    "methods": {
      "checkBalance(address)": {
        "params": {
          "_asset": "Address of the asset"
        },
        "returns": {
          "balance": "   Total value of the asset in the platform"
        }
      },
      "deposit(address,uint256)": {
        "params": {
          "_amount": "Amount of hard asset to deposit.",
          "_hardAsset": "Address of hard asset contract."
        }
      },
      "getRewardTokenAddresses()": {
        "returns": {
          "_0": "address[] the reward token addresses."
        }
      },
      "initialize(address[],uint256)": {
        "params": {
          "_maxSlippage": "Maximum slippage allowed for adding/removing liquidity from the Curve pool.",
          "_rewardTokenAddresses": "Address of CRV"
        }
      },
      "mintAndAddOTokens(uint256)": {
        "params": {
          "_oTokens": "The amount of OTokens to be minted and added to the pool."
        }
      },
      "removeAndBurnOTokens(uint256)": {
        "params": {
          "_lpTokens": "The amount of Curve pool LP tokens to be burned for OTokens."
        }
      },
      "removeOnlyAssets(uint256)": {
        "details": "Curve pool LP tokens is used rather than hardAsset assets as Curve does not have a way to accurately calculate the amount of LP tokens for a required amount of hardAsset. Curve's `calc_token_amount` function does not include fees. A 3rd party library can be used that takes into account the fees, but this is a gas intensive process. It's easier for the trusted strategist to calculate the amount of Curve pool LP tokens required off-chain.",
        "params": {
          "_lpTokens": "The amount of Curve pool LP tokens to be burned for hardAsset."
        }
      },
      "removePToken(uint256)": {
        "params": {
          "_assetIndex": "Index of the asset to be removed"
        }
      },
      "setHarvesterAddress(address)": {
        "params": {
          "_harvesterAddress": "Address of the harvester contract."
        }
      },
      "setMaxSlippage(uint256)": {
        "params": {
          "_maxSlippage": "Maximum slippage allowed, 1e18 = 100%."
        }
      },
      "setPTokenAddress(address,address)": {
        "params": {
          "_asset": "Address for the asset",
          "_pToken": "Address for the corresponding platform token"
        }
      },
      "setRewardTokenAddresses(address[])": {
        "params": {
          "_rewardTokenAddresses": "Array of reward token addresses"
        }
      },
      "supportsAsset(address)": {
        "params": {
          "_asset": "Address of the asset"
        }
      },
      "transferGovernance(address)": {
        "params": {
          "_newGovernor": "Address of the new Governor"
        }
      },
      "transferToken(address,uint256)": {
        "params": {
          "_amount": "Amount of the asset to transfer",
          "_asset": "Address for the asset"
        }
      },
      "withdraw(address,address,uint256)": {
        "params": {
          "_amount": "Amount of hardAsset to withdraw.",
          "_hardAsset": "Address of the hardAsset contract.",
          "_recipient": "Address to receive withdrawn asset which is normally the Vault."
        }
      }
    },
    "stateVariables": {
      "SOLVENCY_THRESHOLD": {
        "details": "a threshold under which the contract no longer allows for the protocol to manually rebalance.      Guarding against a strategist / guardian being taken over and with multiple transactions      draining the protocol funds."
      }
    },
    "version": 1
  },
  "userdoc": {
    "kind": "user",
    "methods": {
      "assetToPToken(address)": {
        "notice": "asset => pToken (Platform Specific Token Address)"
      },
      "checkBalance(address)": {
        "notice": "Get the total asset value held in the platform"
      },
      "claimGovernance()": {
        "notice": "Claim Governance of the contract to a new account (`newGovernor`). Can only be called by the new Governor."
      },
      "collectRewardTokens()": {
        "notice": "Collect accumulated CRV (and other) rewards and send to the Harvester."
      },
      "curvePool()": {
        "notice": "Address of the Curve StableSwap NG pool contract."
      },
      "decimalsOToken()": {
        "notice": "Decimals of the OTOKEN and hardAsset."
      },
      "deposit(address,uint256)": {
        "notice": "Deposit hard asset into the Curve pool"
      },
      "depositAll()": {
        "notice": "Deposit the strategy's entire balance of hardAsset into the Curve pool"
      },
      "gauge()": {
        "notice": "Address of the Curve X-Chain Liquidity Gauge contract."
      },
      "getRewardTokenAddresses()": {
        "notice": "Get the reward token addresses."
      },
      "governor()": {
        "notice": "Returns the address of the current Governor."
      },
      "hardAsset()": {
        "notice": "Address of the hard asset (weth, usdt, usdc)."
      },
      "harvesterAddress()": {
        "notice": "Address of the Harvester contract allowed to collect reward tokens"
      },
      "initialize(address[],uint256)": {
        "notice": "Initializer for setting up strategy internal state. This overrides the InitializableAbstractStrategy initializer as Curve strategies don't fit well within that abstraction."
      },
      "isGovernor()": {
        "notice": "Returns true if the caller is the current Governor."
      },
      "lpToken()": {
        "notice": "Address of the LP (Liquidity Provider) token contract."
      },
      "maxSlippage()": {
        "notice": "Maximum slippage allowed for adding/removing liquidity from the Curve pool."
      },
      "mintAndAddOTokens(uint256)": {
        "notice": "Mint OTokens and one-sided add to the Curve pool. This is used when the Curve pool does not have enough OTokens and too many hardAsset. The OToken/Asset, eg OTOKEN/hardAsset, price with increase. The amount of assets in the vault is unchanged. The total supply of OTokens is increased. The asset value of the strategy and vault is increased."
      },
      "minter()": {
        "notice": "Address of the Curve Minter contract."
      },
      "oToken()": {
        "notice": "Address of the OTOKEN token contract."
      },
      "otokenCoinIndex()": {
        "notice": "Index of the OTOKEN and hardAsset in the Curve pool."
      },
      "platformAddress()": {
        "notice": "Address of the underlying platform"
      },
      "removeAndBurnOTokens(uint256)": {
        "notice": "One-sided remove of OTokens from the Curve pool which are then burned. This is used when the Curve pool has too many OTokens and not enough hardAsset. The amount of assets in the vault is unchanged. The total supply of OTokens is reduced. The asset value of the strategy and vault is reduced."
      },
      "removeOnlyAssets(uint256)": {
        "notice": "One-sided remove of hardAsset from the Curve pool and transfer to the vault. This is used when the Curve pool does not have enough OTokens and too many hardAsset. The OToken/Asset, eg OTOKEN/hardAsset, price with decrease. The amount of assets in the vault increases. The total supply of OTokens does not change. The asset value of the strategy reduces. The asset value of the vault should be close to the same."
      },
      "removePToken(uint256)": {
        "notice": "Remove a supported asset by passing its index.      This method can only be called by the system Governor"
      },
      "rewardTokenAddresses(uint256)": {
        "notice": "Address of the reward tokens. eg CRV, BAL, CVX, AURA"
      },
      "safeApproveAllTokens()": {
        "notice": "Approve the spending of all assets by their corresponding pool tokens,      if for some reason is it necessary."
      },
      "setHarvesterAddress(address)": {
        "notice": "Set the Harvester contract that can collect rewards."
      },
      "setMaxSlippage(uint256)": {
        "notice": "Sets the maximum slippage allowed for any swap/liquidity operation"
      },
      "setPTokenAddress(address,address)": {
        "notice": "Provide support for asset by passing its pToken address.      This method can only be called by the system Governor"
      },
      "setRewardTokenAddresses(address[])": {
        "notice": "Set the reward token addresses. Any old addresses will be overwritten."
      },
      "supportsAsset(address)": {
        "notice": "Returns bool indicating whether asset is supported by strategy"
      },
      "transferGovernance(address)": {
        "notice": "Transfers Governance of the contract to a new account (`newGovernor`). Can only be called by the current Governor. Must be claimed for this to complete"
      },
      "transferToken(address,uint256)": {
        "notice": "Transfer token to governor. Intended for recovering tokens stuck in      strategy contracts, i.e. mistaken sends."
      },
      "vaultAddress()": {
        "notice": "Address of the OToken vault"
      },
      "withdraw(address,address,uint256)": {
        "notice": "Withdraw hardAsset and OTOKEN from the Curve pool, burn the OTOKEN, transfer hardAsset to the recipient."
      },
      "withdrawAll()": {
        "notice": "Remove all hardAsset and OTOKEN from the Curve pool, burn the OTOKEN, transfer hardAsset to the Vault contract."
      }
    },
    "version": 1
  },
  "storageLayout": {
    "storage": [
      {
        "astId": 59155,
        "contract": "contracts/strategies/CurveAMOStrategy.sol:CurveAMOStrategy",
        "label": "initialized",
        "offset": 0,
        "slot": "0",
        "type": "t_bool"
      },
      {
        "astId": 59158,
        "contract": "contracts/strategies/CurveAMOStrategy.sol:CurveAMOStrategy",
        "label": "initializing",
        "offset": 1,
        "slot": "0",
        "type": "t_bool"
      },
      {
        "astId": 59198,
        "contract": "contracts/strategies/CurveAMOStrategy.sol:CurveAMOStrategy",
        "label": "______gap",
        "offset": 0,
        "slot": "1",
        "type": "t_array(t_uint256)50_storage"
      },
      {
        "astId": 59278,
        "contract": "contracts/strategies/CurveAMOStrategy.sol:CurveAMOStrategy",
        "label": "_deprecated_platformAddress",
        "offset": 0,
        "slot": "51",
        "type": "t_address"
      },
      {
        "astId": 59281,
        "contract": "contracts/strategies/CurveAMOStrategy.sol:CurveAMOStrategy",
        "label": "_deprecated_vaultAddress",
        "offset": 0,
        "slot": "52",
        "type": "t_address"
      },
      {
        "astId": 59286,
        "contract": "contracts/strategies/CurveAMOStrategy.sol:CurveAMOStrategy",
        "label": "assetToPToken",
        "offset": 0,
        "slot": "53",
        "type": "t_mapping(t_address,t_address)"
      },
      {
        "astId": 59290,
        "contract": "contracts/strategies/CurveAMOStrategy.sol:CurveAMOStrategy",
        "label": "assetsMapped",
        "offset": 0,
        "slot": "54",
        "type": "t_array(t_address)dyn_storage"
      },
      {
        "astId": 59292,
        "contract": "contracts/strategies/CurveAMOStrategy.sol:CurveAMOStrategy",
        "label": "_deprecated_rewardTokenAddress",
        "offset": 0,
        "slot": "55",
        "type": "t_address"
      },
      {
        "astId": 59294,
        "contract": "contracts/strategies/CurveAMOStrategy.sol:CurveAMOStrategy",
        "label": "_deprecated_rewardLiquidationThreshold",
        "offset": 0,
        "slot": "56",
        "type": "t_uint256"
      },
      {
        "astId": 59297,
        "contract": "contracts/strategies/CurveAMOStrategy.sol:CurveAMOStrategy",
        "label": "harvesterAddress",
        "offset": 0,
        "slot": "57",
        "type": "t_address"
      },
      {
        "astId": 59301,
        "contract": "contracts/strategies/CurveAMOStrategy.sol:CurveAMOStrategy",
        "label": "rewardTokenAddresses",
        "offset": 0,
        "slot": "58",
        "type": "t_array(t_address)dyn_storage"
      },
      {
        "astId": 59305,
        "contract": "contracts/strategies/CurveAMOStrategy.sol:CurveAMOStrategy",
        "label": "_reserved",
        "offset": 0,
        "slot": "59",
        "type": "t_array(t_int256)98_storage"
      },
      {
        "astId": 40491,
        "contract": "contracts/strategies/CurveAMOStrategy.sol:CurveAMOStrategy",
        "label": "maxSlippage",
        "offset": 0,
        "slot": "157",
        "type": "t_uint256"
      }
    ],
    "types": {
      "t_address": {
        "encoding": "inplace",
        "label": "address",
        "numberOfBytes": "20"
      },
      "t_array(t_address)dyn_storage": {
        "base": "t_address",
        "encoding": "dynamic_array",
        "label": "address[]",
        "numberOfBytes": "32"
      },
      "t_array(t_int256)98_storage": {
        "base": "t_int256",
        "encoding": "inplace",
        "label": "int256[98]",
        "numberOfBytes": "3136"
      },
      "t_array(t_uint256)50_storage": {
        "base": "t_uint256",
        "encoding": "inplace",
        "label": "uint256[50]",
        "numberOfBytes": "1600"
      },
      "t_bool": {
        "encoding": "inplace",
        "label": "bool",
        "numberOfBytes": "1"
      },
      "t_int256": {
        "encoding": "inplace",
        "label": "int256",
        "numberOfBytes": "32"
      },
      "t_mapping(t_address,t_address)": {
        "encoding": "mapping",
        "key": "t_address",
        "label": "mapping(address => address)",
        "numberOfBytes": "32",
        "value": "t_address"
      },
      "t_uint256": {
        "encoding": "inplace",
        "label": "uint256",
        "numberOfBytes": "32"
      }
    }
  }
}