{
    "address": "0x9F4308cdfa4d02C045BC8BD82864013b62D516Bb",
    "abi": [
        {
            "anonymous": false,
            "inputs": [
                {
                    "indexed": true,
                    "internalType": "address",
                    "name": "poolBoosterAddress",
                    "type": "address"
                }
            ],
            "name": "CurvePoolBoosterPlainCreated",
            "type": "event"
        },
        {
            "anonymous": false,
            "inputs": [
                {
                    "indexed": true,
                    "internalType": "address",
                    "name": "previousGovernor",
                    "type": "address"
                },
                {
                    "indexed": true,
                    "internalType": "address",
                    "name": "newGovernor",
                    "type": "address"
                }
            ],
            "name": "GovernorshipTransferred",
            "type": "event"
        },
        {
            "anonymous": false,
            "inputs": [
                {
                    "indexed": true,
                    "internalType": "address",
                    "name": "previousGovernor",
                    "type": "address"
                },
                {
                    "indexed": true,
                    "internalType": "address",
                    "name": "newGovernor",
                    "type": "address"
                }
            ],
            "name": "PendingGovernorshipTransfer",
            "type": "event"
        },
        {
            "anonymous": false,
            "inputs": [
                {
                    "indexed": false,
                    "internalType": "address",
                    "name": "_address",
                    "type": "address"
                }
            ],
            "name": "StrategistUpdated",
            "type": "event"
        },
        {
            "inputs": [],
            "name": "CREATEX",
            "outputs": [
                {
                    "internalType": "contract ICreateX",
                    "name": "",
                    "type": "address"
                }
            ],
            "stateMutability": "view",
            "type": "function"
        },
        {
            "inputs": [],
            "name": "claimGovernance",
            "outputs": [],
            "stateMutability": "nonpayable",
            "type": "function"
        },
        {
            "inputs": [
                {
                    "internalType": "address",
                    "name": "_rewardToken",
                    "type": "address"
                },
                {
                    "internalType": "address",
                    "name": "_gauge",
                    "type": "address"
                },
                {
                    "internalType": "bytes32",
                    "name": "_salt",
                    "type": "bytes32"
                }
            ],
            "name": "computePoolBoosterAddress",
            "outputs": [
                {
                    "internalType": "address",
                    "name": "",
                    "type": "address"
                }
            ],
            "stateMutability": "view",
            "type": "function"
        },
        {
            "inputs": [
                {
                    "internalType": "address",
                    "name": "_rewardToken",
                    "type": "address"
                },
                {
                    "internalType": "address",
                    "name": "_gauge",
                    "type": "address"
                },
                {
                    "internalType": "address",
                    "name": "_feeCollector",
                    "type": "address"
                },
                {
                    "internalType": "uint16",
                    "name": "_fee",
                    "type": "uint16"
                },
                {
                    "internalType": "address",
                    "name": "_campaignRemoteManager",
                    "type": "address"
                },
                {
                    "internalType": "address",
                    "name": "_votemarket",
                    "type": "address"
                },
                {
                    "internalType": "bytes32",
                    "name": "_salt",
                    "type": "bytes32"
                },
                {
                    "internalType": "address",
                    "name": "_expectedAddress",
                    "type": "address"
                }
            ],
            "name": "createCurvePoolBoosterPlain",
            "outputs": [
                {
                    "internalType": "address",
                    "name": "",
                    "type": "address"
                }
            ],
            "stateMutability": "nonpayable",
            "type": "function"
        },
        {
            "inputs": [
                {
                    "internalType": "uint256",
                    "name": "salt",
                    "type": "uint256"
                }
            ],
            "name": "encodeSaltForCreateX",
            "outputs": [
                {
                    "internalType": "bytes32",
                    "name": "encodedSalt",
                    "type": "bytes32"
                }
            ],
            "stateMutability": "view",
            "type": "function"
        },
        {
            "inputs": [],
            "name": "governor",
            "outputs": [
                {
                    "internalType": "address",
                    "name": "",
                    "type": "address"
                }
            ],
            "stateMutability": "view",
            "type": "function"
        },
        {
            "inputs": [
                {
                    "internalType": "address",
                    "name": "_governor",
                    "type": "address"
                },
                {
                    "internalType": "address",
                    "name": "_strategist",
                    "type": "address"
                }
            ],
            "name": "initialize",
            "outputs": [],
            "stateMutability": "nonpayable",
            "type": "function"
        },
        {
            "inputs": [],
            "name": "isGovernor",
            "outputs": [
                {
                    "internalType": "bool",
                    "name": "",
                    "type": "bool"
                }
            ],
            "stateMutability": "view",
            "type": "function"
        },
        {
            "inputs": [
                {
                    "internalType": "address",
                    "name": "_address",
                    "type": "address"
                }
            ],
            "name": "setStrategistAddr",
            "outputs": [],
            "stateMutability": "nonpayable",
            "type": "function"
        },
        {
            "inputs": [],
            "name": "strategistAddr",
            "outputs": [
                {
                    "internalType": "address",
                    "name": "",
                    "type": "address"
                }
            ],
            "stateMutability": "view",
            "type": "function"
        },
        {
            "inputs": [
                {
                    "internalType": "address",
                    "name": "_newGovernor",
                    "type": "address"
                }
            ],
            "name": "transferGovernance",
            "outputs": [],
            "stateMutability": "nonpayable",
            "type": "function"
        }
    ],
    "transactionHash": "0xa2d1760d4a1247a673947db24f986cb1a66a98a5f676e8306ca481e722abfc5d",
    "args": [],
    "numDeployments": 1,
    "solcInputHash": "9602f7d3a5ce850e2bd587c5231a1c5b",
    "bytecode": "0x6080604052348015600f57600080fd5b506136e68061001f6000396000f3fe608060405234801561001057600080fd5b50600436106100a95760003560e01c8063799a572d11610071578063799a572d1461011657806395b63c1414610129578063a6384c961461013c578063c7af335214610157578063d38bfff41461016f578063f059e3111461018257600080fd5b80630c340a24146100ae578063485cc955146100d3578063570d8e1d146100e85780635d36b190146100fb578063773540b314610103575b600080fd5b6100b66101a9565b6040516001600160a01b0390911681526020015b60405180910390f35b6100e66100e1366004610a71565b6101c6565b005b6033546100b6906001600160a01b031681565b6100e6610292565b6100e6610111366004610aaa565b610338565b6100b6610124366004610ace565b610398565b6100b6610137366004610b0f565b61045c565b6100b673ba5ed099633d3b313e4d5f7bdc1305d3c28ba5ed81565b61015f6107bb565b60405190151581526020016100ca565b6100e661017d366004610aaa565b6107ec565b61019b610190366004610bb6565b60a81c3060601b1790565b6040519081526020016100ca565b60006101c16000805160206136918339815191525490565b905090565b600054610100900460ff16806101df575060005460ff16155b6102475760405162461bcd60e51b815260206004820152602e60248201527f496e697469616c697a61626c653a20636f6e747261637420697320616c72656160448201526d191e481a5b9a5d1a585b1a5e995960921b60648201526084015b60405180910390fd5b600054610100900460ff16158015610269576000805461ffff19166101011790555b610272836108c0565b61027b82610927565b801561028d576000805461ff00191690555b505050565b7f44c4d30b2eaad5130ad70c3ba6972730566f3e6359ab83e800d905c61b1c51db546001600160a01b0316336001600160a01b03161461032d5760405162461bcd60e51b815260206004820152603060248201527f4f6e6c79207468652070656e64696e6720476f7665726e6f722063616e20636f60448201526f6d706c6574652074686520636c61696d60801b606482015260840161023e565b6103363361097b565b565b6103406107bb565b61038c5760405162461bcd60e51b815260206004820152601a60248201527f43616c6c6572206973206e6f742074686520476f7665726e6f72000000000000604482015260640161023e565b61039581610927565b50565b30600090815260208290526040812073ba5ed099633d3b313e4d5f7bdc1305d3c28ba5ed63d323826a826103cc88886109da565b80516020909101206040516001600160e01b031960e085901b1681526004810192909252602482015273ba5ed099633d3b313e4d5f7bdc1305d3c28ba5ed6044820152606401602060405180830381865afa15801561042f573d6000803e3d6000fd5b505050506040513d601f19601f820116820180604052508101906104539190610bcf565b95945050505050565b6033546000906001600160a01b031633148061047b575061047b6107bb565b6104d85760405162461bcd60e51b815260206004820152602860248201527f43616c6c6572206973206e6f74207468652053747261746567697374206f722060448201526723b7bb32b93737b960c11b606482015260840161023e565b60006104e26101a9565b6001600160a01b03160361052b5760405162461bcd60e51b815260206004820152601060248201526f11dbdd995c9b9bdc881b9bdd081cd95d60821b604482015260640161023e565b6033546001600160a01b03166105785760405162461bcd60e51b815260206004820152601260248201527114dd1c985d1959da5cdd081b9bdd081cd95d60721b604482015260640161023e565b606083901c3081146105cc5760405162461bcd60e51b815260206004820152601b60248201527f46726f6e742d72756e2070726f74656374696f6e206661696c65640000000000604482015260640161023e565b600073ba5ed099633d3b313e4d5f7bdc1305d3c28ba5ed6326307668866105f38e8e6109da565b6040518363ffffffff1660e01b8152600401610610929190610c10565b6020604051808303816000875af115801561062f573d6000803e3d6000fd5b505050506040513d601f19601f820116820180604052508101906106539190610bcf565b90506001600160a01b038416158061067c5750836001600160a01b0316816001600160a01b0316145b6106dc5760405162461bcd60e51b815260206004820152602b60248201527f506f6f6c20626f6f73746572206465706c6f79656420617420756e657870656360448201526a746564206164647265737360a81b606482015260840161023e565b806001600160a01b031663f87bc4346106f36101a9565b60335460405160e084901b6001600160e01b03191681526001600160a01b039283166004820152908216602482015261ffff8c1660448201528c821660648201528a8216608482015290891660a482015260c401600060405180830381600087803b15801561076157600080fd5b505af1158015610775573d6000803e3d6000fd5b50506040516001600160a01b03841692507f29517452b3d8f353a0d81b89ef1eb2c73ce0fc391e9d8e46c2c11c068d73bbe59150600090a29a9950505050505050505050565b60006107d36000805160206136918339815191525490565b6001600160a01b0316336001600160a01b031614905090565b6107f46107bb565b6108405760405162461bcd60e51b815260206004820152601a60248201527f43616c6c6572206973206e6f742074686520476f7665726e6f72000000000000604482015260640161023e565b610868817f44c4d30b2eaad5130ad70c3ba6972730566f3e6359ab83e800d905c61b1c51db55565b806001600160a01b03166108886000805160206136918339815191525490565b6001600160a01b03167fa39cc5eb22d0f34d8beaefee8a3f17cc229c1a1d1ef87a5ad47313487b1c4f0d60405160405180910390a350565b806001600160a01b03166108e06000805160206136918339815191525490565b6001600160a01b03167fc7c0c772add429241571afb3805861fb3cfa2af374534088b76cdb4325a87e9a60405160405180910390a360008051602061369183398151915255565b603380546001600160a01b0319166001600160a01b0383169081179091556040519081527f869e0abd13cc3a975de7b93be3df1cb2255c802b1cead85963cc79d99f131bee9060200160405180910390a150565b6001600160a01b0381166109d15760405162461bcd60e51b815260206004820152601a60248201527f4e657720476f7665726e6f722069732061646472657373283029000000000000604482015260640161023e565b610395816108c0565b6060604051806020016109ec90610a4f565b601f1982820381018352601f9091011660408181526001600160a01b03868116602084015285169082015260600160408051601f1981840301815290829052610a389291602001610c4a565b604051602081830303815290604052905092915050565b612a1780610c7a83390190565b6001600160a01b038116811461039557600080fd5b60008060408385031215610a8457600080fd5b8235610a8f81610a5c565b91506020830135610a9f81610a5c565b809150509250929050565b600060208284031215610abc57600080fd5b8135610ac781610a5c565b9392505050565b600080600060608486031215610ae357600080fd5b8335610aee81610a5c565b92506020840135610afe81610a5c565b929592945050506040919091013590565b600080600080600080600080610100898b031215610b2c57600080fd5b8835610b3781610a5c565b97506020890135610b4781610a5c565b96506040890135610b5781610a5c565b9550606089013561ffff81168114610b6e57600080fd5b94506080890135610b7e81610a5c565b935060a0890135610b8e81610a5c565b925060c0890135915060e0890135610ba581610a5c565b809150509295985092959890939650565b600060208284031215610bc857600080fd5b5035919050565b600060208284031215610be157600080fd5b8151610ac781610a5c565b60005b83811015610c07578181015183820152602001610bef565b50506000910152565b8281526040602082015260008251806040840152610c35816060850160208701610bec565b601f01601f1916919091016060019392505050565b60008351610c5c818460208801610bec565b835190830190610c70818360208801610bec565b0194935050505056fe60c060405234801561001057600080fd5b50604051612a17380380612a1783398101604081905261002f916100ea565b6001600160a01b0380831660a0528116608052818161004e6000610067565b50506001600160a01b0391821660a0521660805261011d565b6001600160a01b0381166100876000805160206129f78339815191525490565b6001600160a01b03167fc7c0c772add429241571afb3805861fb3cfa2af374534088b76cdb4325a87e9a60405160405180910390a36000805160206129f783398151915255565b80516001600160a01b03811681146100e557600080fd5b919050565b600080604083850312156100fd57600080fd5b610106836100ce565b9150610114602084016100ce565b90509250929050565b60805160a0516128536101a46000396000818161056a0152818161087b01528181610d7301528181610dae01528181610df3015281816111310152818161116c0152818161120e015281816113270152818161165d0152818161195b01528181611a490152611ad80152600081816103e7015281816111d0015261130201526128536000f3fe6080604052600436106101c65760003560e01c806394095c2d116100f7578063c7af335211610095578063e9a0214311610064578063e9a0214314610522578063ecefc70514610542578063f7c618c114610558578063f87bc4341461058c57600080fd5b8063c7af33521461048f578063d38bfff4146104b4578063d4629800146104d4578063ddca3f43146104f457600080fd5b8063ab34884c116100d1578063ab34884c14610409578063b0c5b7d814610429578063bcfb252c14610449578063c415b95c1461046957600080fd5b806394095c2d14610395578063a42dce80146103b5578063a6f19c84146103d557600080fd5b8063570d8e1d11610164578063773540b31161013e578063773540b31461031f578063833f68c81461033f5780638e0055531461035f5780638ed5b0fc1461037f57600080fd5b8063570d8e1d146102ca5780635d36b190146102ea5780637039e002146102ff57600080fd5b80630c340a24116101a05780630c340a2414610234578063146ffb261461026657806314c89e171461028a5780634707d000146102aa57600080fd5b806304824e70146101d257806305f56809146101f45780630aaef8541461021457600080fd5b366101cd57005b600080fd5b3480156101de57600080fd5b506101f26101ed36600461216b565b6105ac565b005b34801561020057600080fd5b506101f261020f36600461216b565b610755565b34801561022057600080fd5b506101f261022f366004612186565b610785565b34801561024057600080fd5b5061024961095b565b6040516001600160a01b0390911681526020015b60405180910390f35b34801561027257600080fd5b5061027c61a4b181565b60405190815260200161025d565b34801561029657600080fd5b506101f26102a5366004612186565b610978565b3480156102b657600080fd5b506101f26102c53660046121b2565b610aa2565b3480156102d657600080fd5b50603354610249906001600160a01b031681565b3480156102f657600080fd5b506101f2610c1f565b34801561030b57600080fd5b506101f261031a3660046121e5565b610cc5565b34801561032b57600080fd5b506101f261033a36600461216b565b610ec1565b34801561034b57600080fd5b50606754610249906001600160a01b031681565b34801561036b57600080fd5b506101f261037a366004612219565b610eee565b34801561038b57600080fd5b5061027c60695481565b3480156103a157600080fd5b506101f26103b0366004612234565b610f1b565b3480156103c157600080fd5b506101f26103d036600461216b565b610f8f565b3480156103e157600080fd5b506102497f000000000000000000000000000000000000000000000000000000000000000081565b34801561041557600080fd5b506101f261042436600461225e565b610fbc565b34801561043557600080fd5b506101f26104443660046122fd565b61139e565b34801561045557600080fd5b506101f261046436600461216b565b611460565b34801561047557600080fd5b50606654610249906201000090046001600160a01b031681565b34801561049b57600080fd5b506104a461148d565b604051901515815260200161025d565b3480156104c057600080fd5b506101f26104cf36600461216b565b6114be565b3480156104e057600080fd5b50606854610249906001600160a01b031681565b34801561050057600080fd5b5060665461050f9061ffff1681565b60405161ffff909116815260200161025d565b34801561052e57600080fd5b506101f261053d366004612362565b611562565b34801561054e57600080fd5b5061050f61271081565b34801561056457600080fd5b506102497f000000000000000000000000000000000000000000000000000000000000000081565b34801561059857600080fd5b506101f26105a7366004612395565b611731565b6000805160206127de833981519152805460011981016105e75760405162461bcd60e51b81526004016105de90612409565b60405180910390fd5b600282556033546001600160a01b0316331480610607575061060761148d565b6106235760405162461bcd60e51b81526004016105de90612431565b6001600160a01b03831661066c5760405162461bcd60e51b815260206004820152601060248201526f24b73b30b634b2103932b1b2b4bb32b960811b60448201526064016105de565b60405147906000906001600160a01b0386169083908381818185875af1925050503d80600081146106b9576040519150601f19603f3d011682016040523d82523d6000602084013e6106be565b606091505b50509050806107015760405162461bcd60e51b815260206004820152600f60248201526e151c985b9cd9995c8819985a5b1959608a1b60448201526064016105de565b6040805160008152602081018490526001600160a01b0387168183015290517ffb475a842bad10d3800b61bd1a92e716051afba979b124b583bd99a2d1d7bfd59181900360600190a1505060018255505050565b61075d61148d565b6107795760405162461bcd60e51b81526004016105de90612479565b610782816117d9565b50565b6000805160206127de833981519152805460011981016107b75760405162461bcd60e51b81526004016105de90612409565b600282556033546001600160a01b03163314806107d757506107d761148d565b6107f35760405162461bcd60e51b81526004016105de90612431565b6069546000036108155760405162461bcd60e51b81526004016105de906124b0565b6000851161085f5760405162461bcd60e51b8152602060048201526017602482015276496e76616c6964207265776172642070657220766f746560481b60448201526064016105de565b6067546040805160a08101825260695481526001600160a01b037f000000000000000000000000000000000000000000000000000000000000000081166020830152600082840181905260608301526080820189905260685492516335c5ecd560e21b81529381169363d717b3549389936108e693909261a4b1928b9216906004016124de565b6000604051808303818588803b1580156108ff57600080fd5b505af1158015610913573d6000803e3d6000fd5b50505050507f8f283dbedfa7a1926a86469a652c5f13e8f038708d78cbeb0e1950c9e08625028560405161094991815260200190565b60405180910390a15060019055505050565b60006109736000805160206127fe8339815191525490565b905090565b6000805160206127de833981519152805460011981016109aa5760405162461bcd60e51b81526004016105de90612409565b600282556033546001600160a01b03163314806109ca57506109ca61148d565b6109e65760405162461bcd60e51b81526004016105de90612431565b606754604080516020810182526069548152606854915163c533f30560e01b81529051600482015261a4b16024820152604481018690526001600160a01b03918216606482015291169063c533f3059086906084016000604051808303818588803b158015610a5457600080fd5b505af1158015610a68573d6000803e3d6000fd5b5050600060695550506040518681527f5e6eb33a418de5dbbc17f989f7ae362cdfbb1748c5d603137c767027a354edbc9150602001610949565b6000805160206127de83398151915280546001198101610ad45760405162461bcd60e51b81526004016105de90612409565b60028255610ae061148d565b610afc5760405162461bcd60e51b81526004016105de90612479565b6001600160a01b038316610b455760405162461bcd60e51b815260206004820152601060248201526f24b73b30b634b2103932b1b2b4bb32b960811b60448201526064016105de565b6040516370a0823160e01b81523060048201526000906001600160a01b038616906370a0823190602401602060405180830381865afa158015610b8c573d6000803e3d6000fd5b505050506040513d601f19601f82011682018060405250810190610bb0919061253d565b9050610bc66001600160a01b0386168583611872565b604080516001600160a01b038088168252602082018490528616918101919091527ffb475a842bad10d3800b61bd1a92e716051afba979b124b583bd99a2d1d7bfd5906060015b60405180910390a15050600190555050565b7f44c4d30b2eaad5130ad70c3ba6972730566f3e6359ab83e800d905c61b1c51db546001600160a01b0316336001600160a01b031614610cba5760405162461bcd60e51b815260206004820152603060248201527f4f6e6c79207468652070656e64696e6720476f7665726e6f722063616e20636f60448201526f6d706c6574652074686520636c61696d60801b60648201526084016105de565b610cc3336118da565b565b6000805160206127de83398151915280546001198101610cf75760405162461bcd60e51b81526004016105de90612409565b600282556033546001600160a01b0316331480610d175750610d1761148d565b610d335760405162461bcd60e51b81526004016105de90612431565b606954600003610d555760405162461bcd60e51b81526004016105de906124b0565b6000610d5f611939565b606754909150610d9d906001600160a01b037f0000000000000000000000000000000000000000000000000000000000000000811691166000611b58565b606754610dd7906001600160a01b037f00000000000000000000000000000000000000000000000000000000000000008116911683611b58565b6067546040805160a08101825260695481526001600160a01b037f000000000000000000000000000000000000000000000000000000000000000081166020830152600082840181905260608301869052608083015260685492516335c5ecd560e21b81529381169363d717b354938a93610e5e93909261a4b1928c9216906004016124de565b6000604051808303818588803b158015610e7757600080fd5b505af1158015610e8b573d6000803e3d6000fd5b50505050507fd922add93b22e9295e2ea259b37756ee2ccafa6872cccda342584d40c754c76681604051610c0d91815260200190565b610ec961148d565b610ee55760405162461bcd60e51b81526004016105de90612479565b61078281611c6d565b610ef661148d565b610f125760405162461bcd60e51b81526004016105de90612479565b61078281611cbb565b6033546001600160a01b0316331480610f375750610f3761148d565b610f535760405162461bcd60e51b81526004016105de90612431565b60698190556040518181527f53c4764ec903d5e515c69c93f0b9b2916f9aa3fa54b34caeeae7bb596d7ec0f6906020015b60405180910390a150565b610f9761148d565b610fb35760405162461bcd60e51b81526004016105de90612479565b61078281611d52565b6000805160206127de83398151915280546001198101610fee5760405162461bcd60e51b81526004016105de90612409565b600282556033546001600160a01b031633148061100e575061100e61148d565b61102a5760405162461bcd60e51b81526004016105de90612431565b6069541561107a5760405162461bcd60e51b815260206004820152601860248201527f43616d706169676e20616c72656164792063726561746564000000000000000060448201526064016105de565b60018860ff16116110c95760405162461bcd60e51b8152602060048201526019602482015278496e76616c6964206e756d626572206f6620706572696f647360381b60448201526064016105de565b600087116111135760405162461bcd60e51b8152602060048201526017602482015276496e76616c6964207265776172642070657220766f746560481b60448201526064016105de565b600061111d611939565b60675490915061115b906001600160a01b037f0000000000000000000000000000000000000000000000000000000000000000811691166000611b58565b606754611195906001600160a01b037f00000000000000000000000000000000000000000000000000000000000000008116911683611b58565b606760009054906101000a90046001600160a01b03166001600160a01b0316636509497d8660405180610140016040528061a4b181526020017f00000000000000000000000000000000000000000000000000000000000000006001600160a01b03168152602001306001600160a01b031681526020017f00000000000000000000000000000000000000000000000000000000000000006001600160a01b031681526020018d60ff1681526020018c81526020018581526020018b8b8080602002602001604051908101604052809392919081815260200183836020028082843760009201829052509385525050506020820181905260409182015260685490516001600160e01b031960e086901b1681526112c5929161a4b1918b916001600160a01b03169060040161259b565b6000604051808303818588803b1580156112de57600080fd5b505af11580156112f2573d6000803e3d6000fd5b5050604080516001600160a01b037f0000000000000000000000000000000000000000000000000000000000000000811682527f00000000000000000000000000000000000000000000000000000000000000001660208201529081018c9052606081018590527ffe76983af97e70cb1d5a3f3b21250c6bd2b5b9216dd3829a1cdab060e17ab15b935060800191506113889050565b60405180910390a1505060019055505050505050565b6113a661148d565b6113c25760405162461bcd60e51b81526004016105de90612479565b600054610100900460ff16806113db575060005460ff16155b6113f75760405162461bcd60e51b81526004016105de90612681565b600054610100900460ff16158015611419576000805461ffff19166101011790555b61142286611c6d565b61142b85611cbb565b61143484611d52565b61143d83611df8565b611446826117d9565b8015611458576000805461ff00191690555b505050505050565b61146861148d565b6114845760405162461bcd60e51b81526004016105de90612479565b61078281611df8565b60006114a56000805160206127fe8339815191525490565b6001600160a01b0316336001600160a01b031614905090565b6114c661148d565b6114e25760405162461bcd60e51b81526004016105de90612479565b61150a817f44c4d30b2eaad5130ad70c3ba6972730566f3e6359ab83e800d905c61b1c51db55565b806001600160a01b031661152a6000805160206127fe8339815191525490565b6001600160a01b03167fa39cc5eb22d0f34d8beaefee8a3f17cc229c1a1d1ef87a5ad47313487b1c4f0d60405160405180910390a350565b6000805160206127de833981519152805460011981016115945760405162461bcd60e51b81526004016105de90612409565b600282556033546001600160a01b03163314806115b457506115b461148d565b6115d05760405162461bcd60e51b81526004016105de90612431565b6069546000036115f25760405162461bcd60e51b81526004016105de906124b0565b60008560ff16116116415760405162461bcd60e51b8152602060048201526019602482015278496e76616c6964206e756d626572206f6620706572696f647360381b60448201526064016105de565b6067546040805160a08101825260695481526001600160a01b037f00000000000000000000000000000000000000000000000000000000000000008116602083015260ff891682840152600060608301819052608083015260685492516335c5ecd560e21b81529381169363d717b3549389936116ca93909261a4b1928b9216906004016124de565b6000604051808303818588803b1580156116e357600080fd5b505af11580156116f7573d6000803e3d6000fd5b505060405160ff891681527f71113ae8f52afc8062af1d0ec71513000c9a7b93eeb737ab8fb50f908445d78a935060200191506109499050565b600054610100900460ff168061174a575060005460ff16155b6117665760405162461bcd60e51b81526004016105de90612681565b600054610100900460ff16158015611788576000805461ffff19166101011790555b61179186611c6d565b61179a85611cbb565b6117a384611d52565b6117ac83611df8565b6117b5826117d9565b6117be87611e9c565b80156117d0576000805461ff00191690555b50505050505050565b6001600160a01b0381166118245760405162461bcd60e51b8152602060048201526012602482015271125b9d985b1a59081d9bdd195b585c9ad95d60721b60448201526064016105de565b606880546001600160a01b0319166001600160a01b0383169081179091556040519081527f4d91cd42ff82ea2004fe60a13788b0c4a8ea5cc08105cc9e21098a93547845ec90602001610f84565b6040516001600160a01b0383166024820152604481018290526118d590849063a9059cbb60e01b906064015b60408051601f198184030181529190526020810180516001600160e01b03166001600160e01b031990931692909217909152611f03565b505050565b6001600160a01b0381166119305760405162461bcd60e51b815260206004820152601a60248201527f4e657720476f7665726e6f72206973206164647265737328302900000000000060448201526064016105de565b61078281611e9c565b6040516370a0823160e01b815230600482015260009081906001600160a01b037f000000000000000000000000000000000000000000000000000000000000000016906370a0823190602401602060405180830381865afa1580156119a2573d6000803e3d6000fd5b505050506040513d601f19601f820116820180604052508101906119c6919061253d565b905060008111611a0e5760405162461bcd60e51b81526020600482015260136024820152724e6f2072657761726420746f206d616e61676560681b60448201526064016105de565b60665460009061271090611a269061ffff16846126cf565b611a309190612710565b90508015611b5257606654611a78906001600160a01b037f00000000000000000000000000000000000000000000000000000000000000008116916201000090041683611872565b60665460408051620100009092046001600160a01b03168252602082018390527f06c5efeff5c320943d265dc4e5f1af95ad523555ce0c1957e367dda5514572df910160405180910390a16040516370a0823160e01b81523060048201527f00000000000000000000000000000000000000000000000000000000000000006001600160a01b0316906370a0823190602401602060405180830381865afa158015611b27573d6000803e3d6000fd5b505050506040513d601f19601f82011682018060405250810190611b4b919061253d565b9250505090565b50919050565b801580611bd25750604051636eb1769f60e11b81523060048201526001600160a01b03838116602483015284169063dd62ed3e90604401602060405180830381865afa158015611bac573d6000803e3d6000fd5b505050506040513d601f19601f82011682018060405250810190611bd0919061253d565b155b611c3d5760405162461bcd60e51b815260206004820152603660248201527f5361666545524332303a20617070726f76652066726f6d206e6f6e2d7a65726f60448201527520746f206e6f6e2d7a65726f20616c6c6f77616e636560501b60648201526084016105de565b6040516001600160a01b0383166024820152604481018290526118d590849063095ea7b360e01b9060640161189e565b603380546001600160a01b0319166001600160a01b0383169081179091556040519081527f869e0abd13cc3a975de7b93be3df1cb2255c802b1cead85963cc79d99f131bee90602001610f84565b611cc86002612710612724565b61ffff168161ffff161115611d0e5760405162461bcd60e51b815260206004820152600c60248201526b08ccaca40e8dede40d0d2ced60a31b60448201526064016105de565b6066805461ffff191661ffff83169081179091556040519081527fc8fcf8ee1425e7e60b8af83735e1eb516d5b9ef05bfd6eece552ebaeb7c75b4890602001610f84565b6001600160a01b038116611da05760405162461bcd60e51b815260206004820152601560248201527424b73b30b634b2103332b29031b7b63632b1ba37b960591b60448201526064016105de565b6066805462010000600160b01b031916620100006001600160a01b038416908102919091179091556040519081527fe5693914d19c789bdee50a362998c0bc8d035a835f9871da5d51152f0582c34f90602001610f84565b6001600160a01b038116611e4e5760405162461bcd60e51b815260206004820152601d60248201527f496e76616c69642063616d706169676e52656d6f74654d616e6167657200000060448201526064016105de565b606780546001600160a01b0319166001600160a01b0383169081179091556040519081527f3647dc83747c62411c2c3b832d3b044db3479bebbaeb800e7eaf100d41d2038e90602001610f84565b806001600160a01b0316611ebc6000805160206127fe8339815191525490565b6001600160a01b03167fc7c0c772add429241571afb3805861fb3cfa2af374534088b76cdb4325a87e9a60405160405180910390a36000805160206127fe83398151915255565b6000611f58826040518060400160405280602081526020017f5361666545524332303a206c6f772d6c6576656c2063616c6c206661696c6564815250856001600160a01b0316611fd59092919063ffffffff16565b8051909150156118d55780806020019051810190611f769190612748565b6118d55760405162461bcd60e51b815260206004820152602a60248201527f5361666545524332303a204552433230206f7065726174696f6e20646964206e6044820152691bdd081cdd58d8d9595960b21b60648201526084016105de565b6060611fe48484600085611fee565b90505b9392505050565b60608247101561204f5760405162461bcd60e51b815260206004820152602660248201527f416464726573733a20696e73756666696369656e742062616c616e636520666f6044820152651c8818d85b1b60d21b60648201526084016105de565b843b61209d5760405162461bcd60e51b815260206004820152601d60248201527f416464726573733a2063616c6c20746f206e6f6e2d636f6e747261637400000060448201526064016105de565b600080866001600160a01b031685876040516120b9919061278e565b60006040518083038185875af1925050503d80600081146120f6576040519150601f19603f3d011682016040523d82523d6000602084013e6120fb565b606091505b509150915061210b828286612116565b979650505050505050565b60608315612125575081611fe7565b8251156121355782518084602001fd5b8160405162461bcd60e51b81526004016105de91906127aa565b80356001600160a01b038116811461216657600080fd5b919050565b60006020828403121561217d57600080fd5b611fe78261214f565b60008060006060848603121561219b57600080fd5b505081359360208301359350604090920135919050565b600080604083850312156121c557600080fd5b6121ce8361214f565b91506121dc6020840161214f565b90509250929050565b600080604083850312156121f857600080fd5b50508035926020909101359150565b803561ffff8116811461216657600080fd5b60006020828403121561222b57600080fd5b611fe782612207565b60006020828403121561224657600080fd5b5035919050565b803560ff8116811461216657600080fd5b60008060008060008060a0878903121561227757600080fd5b6122808761224d565b955060208701359450604087013567ffffffffffffffff8111156122a357600080fd5b8701601f810189136122b457600080fd5b803567ffffffffffffffff8111156122cb57600080fd5b8960208260051b84010111156122e057600080fd5b969995985060200196606081013595608090910135945092505050565b600080600080600060a0868803121561231557600080fd5b61231e8661214f565b945061232c60208701612207565b935061233a6040870161214f565b92506123486060870161214f565b91506123566080870161214f565b90509295509295909350565b60008060006060848603121561237757600080fd5b6123808461224d565b95602085013595506040909401359392505050565b60008060008060008060c087890312156123ae57600080fd5b6123b78761214f565b95506123c56020880161214f565b94506123d360408801612207565b93506123e16060880161214f565b92506123ef6080880161214f565b91506123fd60a0880161214f565b90509295509295509295565b6020808252600e908201526d1499595b9d1c985b9d0818d85b1b60921b604082015260600190565b60208082526028908201527f43616c6c6572206973206e6f74207468652053747261746567697374206f722060408201526723b7bb32b93737b960c11b606082015260800190565b6020808252601a908201527f43616c6c6572206973206e6f742074686520476f7665726e6f72000000000000604082015260600190565b60208082526014908201527310d85b5c185a59db881b9bdd0818dc99585d195960621b604082015260600190565b845181526020808601516001600160a01b039081169183019190915260408087015160ff1690830152606080870151908301526080958601519582019590955260a081019390935260c083019190915290911660e08201526101000190565b60006020828403121561254f57600080fd5b5051919050565b600081518084526020840193506020830160005b828110156125915781516001600160a01b031686526020958601959091019060010161256a565b5093949350505050565b6080815284516080820152600060208601516125c260a08401826001600160a01b03169052565b5060408601516001600160a01b03811660c08401525060608601516001600160a01b03811660e084015250608086015160ff81166101008401525060a086015161012083015260c086015161014083015260e086015161014061016084015261262f6101c0840182612556565b905061010087015161264d6101808501826001600160a01b03169052565b50610120969096015115156101a083015250602081019390935260408301919091526001600160a01b031660609091015290565b6020808252602e908201527f496e697469616c697a61626c653a20636f6e747261637420697320616c72656160408201526d191e481a5b9a5d1a585b1a5e995960921b606082015260800190565b80820281158282048414176126f457634e487b7160e01b600052601160045260246000fd5b92915050565b634e487b7160e01b600052601260045260246000fd5b60008261271f5761271f6126fa565b500490565b600061ffff831680612738576127386126fa565b8061ffff84160491505092915050565b60006020828403121561275a57600080fd5b81518015158114611fe757600080fd5b60005b8381101561278557818101518382015260200161276d565b50506000910152565b600082516127a081846020870161276a565b9190910192915050565b60208152600082518060208401526127c981604085016020870161276a565b601f01601f1916919091016040019291505056fe53bf423e48ed90e97d02ab0ebab13b2a235a6bfbe9c321847d5c175333ac45357bea13895fa79d2831e0a9e28edede30099005a50d652d8957cf8a607ee6ca4aa2646970667358221220d1318d1f4703dff5e0c02952434cd50e651a849d1c7ee912022701a46dc4d96b64736f6c634300081c00337bea13895fa79d2831e0a9e28edede30099005a50d652d8957cf8a607ee6ca4a7bea13895fa79d2831e0a9e28edede30099005a50d652d8957cf8a607ee6ca4aa2646970667358221220c379924f842b671bfa8aa0ba25f9fb8cc88302c1e695573a115c2d6f0528983364736f6c634300081c0033",
    "libraries": {},
    "devdoc": {
        "author": "Origin Protocol",
        "kind": "dev",
        "methods": {
            "computePoolBoosterAddress(address,address,bytes32)": {
                "params": {
                    "_gauge": "Address of the gauge (e.g. Curve OETH/WETH Gauge)",
                    "_rewardToken": "Address of the reward token (OETH or OUSD)",
                    "_salt": "A unique number that affects the address of the pool booster created. Note: this number        should match the one from `createCurvePoolBoosterPlain` in order for the final deployed address        and pre-computed address to match"
                }
            },
            "createCurvePoolBoosterPlain(address,address,address,uint16,address,address,bytes32,address)": {
                "params": {
                    "_campaignRemoteManager": "Address of the campaign remote manager",
                    "_expectedAddress": "The expected address of the pool booster. This is used to verify that the pool booster        was deployed at the expected address, otherwise the transaction batch will revert. If set to 0 then the        address verification is skipped.",
                    "_fee": "Fee in FEE_BASE unit payed when managing campaign",
                    "_feeCollector": "Address of the fee collector (e.g. MultichainStrategist)",
                    "_gauge": "Address of the gauge (e.g. Curve OETH/WETH Gauge)",
                    "_rewardToken": "Address of the reward token (OETH or OUSD)",
                    "_salt": "A unique number that affects the address of the pool booster created. Note: this number        should match the one from `computePoolBoosterAddress` in order for the final deployed address        and pre-computed address to match",
                    "_votemarket": "Address of the votemarket"
                }
            },
            "encodeSaltForCreateX(uint256)": {
                "details": "Encodes a salt for CreateX by concatenating deployer address (bytes20), cross-chain protection flag (bytes1), and the first 11 bytes of the provided salt (most significant bytes). This function is exposed for easier operations. For the salt value itself just use the epoch time when the operation is performed.",
                "params": {
                    "salt": "The raw salt as uint256; converted to bytes32, then only the first 11 bytes (MSB) are used."
                },
                "returns": {
                    "encodedSalt": "The resulting 32-byte encoded salt."
                }
            },
            "initialize(address,address)": {
                "params": {
                    "_governor": "Address of the governor",
                    "_strategist": "Address of the strategist"
                }
            },
            "setStrategistAddr(address)": {
                "details": "Set address of Strategist",
                "params": {
                    "_address": "Address of Strategist"
                }
            },
            "transferGovernance(address)": {
                "params": {
                    "_newGovernor": "Address of the new Governor"
                }
            }
        },
        "title": "CurvePoolBoosterFactory",
        "version": 1
    },
    "userdoc": {
        "kind": "user",
        "methods": {
            "CREATEX()": {
                "notice": "Address of the CreateX contract"
            },
            "claimGovernance()": {
                "notice": "Claim Governance of the contract to a new account (`newGovernor`). Can only be called by the new Governor."
            },
            "computePoolBoosterAddress(address,address,bytes32)": {
                "notice": "Create a new CurvePoolBoosterPlain instance (address computation version)"
            },
            "createCurvePoolBoosterPlain(address,address,address,uint16,address,address,bytes32,address)": {
                "notice": "Create a new CurvePoolBoosterPlain instance"
            },
            "governor()": {
                "notice": "Returns the address of the current Governor."
            },
            "initialize(address,address)": {
                "notice": "Initialize the contract. Normally we'd rather have the governor and strategist set in the constructor,         but since this contract is deployed by CreateX we need to set them in the initialize function because         the constructor's parameters influence the address of the contract when deployed using CreateX.         And having different governor and strategist on the same address on different chains would          cause issues."
            },
            "isGovernor()": {
                "notice": "Returns true if the caller is the current Governor."
            },
            "transferGovernance(address)": {
                "notice": "Transfers Governance of the contract to a new account (`newGovernor`). Can only be called by the current Governor. Must be claimed for this to complete"
            }
        },
        "notice": "Factory contract to create CurvePoolBoosterPlain instances",
        "version": 1
    },
    "storageLayout": {
        "storage": [
            {
                "astId": 2444,
                "contract": "contracts/strategies/CurvePoolBoosterFactory.sol:CurvePoolBoosterFactory",
                "label": "initialized",
                "offset": 0,
                "slot": "0",
                "type": "t_bool"
            },
            {
                "astId": 2447,
                "contract": "contracts/strategies/CurvePoolBoosterFactory.sol:CurvePoolBoosterFactory",
                "label": "initializing",
                "offset": 1,
                "slot": "0",
                "type": "t_bool"
            },
            {
                "astId": 2487,
                "contract": "contracts/strategies/CurvePoolBoosterFactory.sol:CurvePoolBoosterFactory",
                "label": "______gap",
                "offset": 0,
                "slot": "1",
                "type": "t_array(t_uint256)50_storage"
            },
            {
                "astId": 808,
                "contract": "contracts/strategies/CurvePoolBoosterFactory.sol:CurvePoolBoosterFactory",
                "label": "strategistAddr",
                "offset": 0,
                "slot": "51",
                "type": "t_address"
            },
            {
                "astId": 812,
                "contract": "contracts/strategies/CurvePoolBoosterFactory.sol:CurvePoolBoosterFactory",
                "label": "__gap",
                "offset": 0,
                "slot": "52",
                "type": "t_array(t_uint256)50_storage"
            }
        ],
        "types": {
            "t_address": {
                "encoding": "inplace",
                "label": "address",
                "numberOfBytes": "20"
            },
            "t_array(t_uint256)50_storage": {
                "base": "t_uint256",
                "encoding": "inplace",
                "label": "uint256[50]",
                "numberOfBytes": "1600"
            },
            "t_bool": {
                "encoding": "inplace",
                "label": "bool",
                "numberOfBytes": "1"
            },
            "t_uint256": {
                "encoding": "inplace",
                "label": "uint256",
                "numberOfBytes": "32"
            }
        }
    }
}