{
  "address": "0x630C1763D38AbE76301F58909fa174E7B84A7ECD",
  "abi": [
    {
      "inputs": [
        {
          "internalType": "address",
          "name": "_safeContract",
          "type": "address"
        }
      ],
      "stateMutability": "nonpayable",
      "type": "constructor"
    },
    {
      "inputs": [
        {
          "internalType": "uint16",
          "name": "optionType",
          "type": "uint16"
        }
      ],
      "name": "InvalidOptionType",
      "type": "error"
    },
    {
      "anonymous": false,
      "inputs": [
        {
          "indexed": true,
          "internalType": "bytes32",
          "name": "role",
          "type": "bytes32"
        },
        {
          "indexed": true,
          "internalType": "bytes32",
          "name": "previousAdminRole",
          "type": "bytes32"
        },
        {
          "indexed": true,
          "internalType": "bytes32",
          "name": "newAdminRole",
          "type": "bytes32"
        }
      ],
      "name": "RoleAdminChanged",
      "type": "event"
    },
    {
      "anonymous": false,
      "inputs": [
        {
          "indexed": true,
          "internalType": "bytes32",
          "name": "role",
          "type": "bytes32"
        },
        {
          "indexed": true,
          "internalType": "address",
          "name": "account",
          "type": "address"
        },
        {
          "indexed": true,
          "internalType": "address",
          "name": "sender",
          "type": "address"
        }
      ],
      "name": "RoleGranted",
      "type": "event"
    },
    {
      "anonymous": false,
      "inputs": [
        {
          "indexed": true,
          "internalType": "bytes32",
          "name": "role",
          "type": "bytes32"
        },
        {
          "indexed": true,
          "internalType": "address",
          "name": "account",
          "type": "address"
        },
        {
          "indexed": true,
          "internalType": "address",
          "name": "sender",
          "type": "address"
        }
      ],
      "name": "RoleRevoked",
      "type": "event"
    },
    {
      "inputs": [],
      "name": "CCIP_BASE_CHAIN_SELECTOR",
      "outputs": [
        {
          "internalType": "uint64",
          "name": "",
          "type": "uint64"
        }
      ],
      "stateMutability": "view",
      "type": "function"
    },
    {
      "inputs": [],
      "name": "CCIP_ROUTER",
      "outputs": [
        {
          "internalType": "contract IRouterClient",
          "name": "",
          "type": "address"
        }
      ],
      "stateMutability": "view",
      "type": "function"
    },
    {
      "inputs": [],
      "name": "DEFAULT_ADMIN_ROLE",
      "outputs": [
        {
          "internalType": "bytes32",
          "name": "",
          "type": "bytes32"
        }
      ],
      "stateMutability": "view",
      "type": "function"
    },
    {
      "inputs": [],
      "name": "LZ_ETH_OMNICHAIN_ADAPTER",
      "outputs": [
        {
          "internalType": "contract IOFT",
          "name": "",
          "type": "address"
        }
      ],
      "stateMutability": "view",
      "type": "function"
    },
    {
      "inputs": [],
      "name": "LZ_PLUME_ENDPOINT_ID",
      "outputs": [
        {
          "internalType": "uint32",
          "name": "",
          "type": "uint32"
        }
      ],
      "stateMutability": "view",
      "type": "function"
    },
    {
      "inputs": [],
      "name": "LZ_WOETH_OMNICHAIN_ADAPTER",
      "outputs": [
        {
          "internalType": "contract IOFT",
          "name": "",
          "type": "address"
        }
      ],
      "stateMutability": "view",
      "type": "function"
    },
    {
      "inputs": [],
      "name": "OPERATOR_ROLE",
      "outputs": [
        {
          "internalType": "bytes32",
          "name": "",
          "type": "bytes32"
        }
      ],
      "stateMutability": "view",
      "type": "function"
    },
    {
      "inputs": [
        {
          "internalType": "uint256",
          "name": "wethAmount",
          "type": "uint256"
        }
      ],
      "name": "bridgeWETHToBase",
      "outputs": [],
      "stateMutability": "payable",
      "type": "function"
    },
    {
      "inputs": [
        {
          "internalType": "uint256",
          "name": "wethAmount",
          "type": "uint256"
        },
        {
          "internalType": "uint256",
          "name": "slippageBps",
          "type": "uint256"
        }
      ],
      "name": "bridgeWETHToPlume",
      "outputs": [],
      "stateMutability": "payable",
      "type": "function"
    },
    {
      "inputs": [
        {
          "internalType": "uint256",
          "name": "woethAmount",
          "type": "uint256"
        }
      ],
      "name": "bridgeWOETHToBase",
      "outputs": [],
      "stateMutability": "payable",
      "type": "function"
    },
    {
      "inputs": [
        {
          "internalType": "uint256",
          "name": "woethAmount",
          "type": "uint256"
        },
        {
          "internalType": "uint256",
          "name": "slippageBps",
          "type": "uint256"
        }
      ],
      "name": "bridgeWOETHToPlume",
      "outputs": [],
      "stateMutability": "payable",
      "type": "function"
    },
    {
      "inputs": [
        {
          "internalType": "bytes32",
          "name": "role",
          "type": "bytes32"
        }
      ],
      "name": "getRoleAdmin",
      "outputs": [
        {
          "internalType": "bytes32",
          "name": "",
          "type": "bytes32"
        }
      ],
      "stateMutability": "view",
      "type": "function"
    },
    {
      "inputs": [
        {
          "internalType": "bytes32",
          "name": "role",
          "type": "bytes32"
        },
        {
          "internalType": "uint256",
          "name": "index",
          "type": "uint256"
        }
      ],
      "name": "getRoleMember",
      "outputs": [
        {
          "internalType": "address",
          "name": "",
          "type": "address"
        }
      ],
      "stateMutability": "view",
      "type": "function"
    },
    {
      "inputs": [
        {
          "internalType": "bytes32",
          "name": "role",
          "type": "bytes32"
        }
      ],
      "name": "getRoleMemberCount",
      "outputs": [
        {
          "internalType": "uint256",
          "name": "",
          "type": "uint256"
        }
      ],
      "stateMutability": "view",
      "type": "function"
    },
    {
      "inputs": [
        {
          "internalType": "bytes32",
          "name": "role",
          "type": "bytes32"
        },
        {
          "internalType": "address",
          "name": "account",
          "type": "address"
        }
      ],
      "name": "grantRole",
      "outputs": [],
      "stateMutability": "nonpayable",
      "type": "function"
    },
    {
      "inputs": [
        {
          "internalType": "bytes32",
          "name": "role",
          "type": "bytes32"
        },
        {
          "internalType": "address",
          "name": "account",
          "type": "address"
        }
      ],
      "name": "hasRole",
      "outputs": [
        {
          "internalType": "bool",
          "name": "",
          "type": "bool"
        }
      ],
      "stateMutability": "view",
      "type": "function"
    },
    {
      "inputs": [
        {
          "internalType": "uint256",
          "name": "wethAmount",
          "type": "uint256"
        },
        {
          "internalType": "bool",
          "name": "useNativeToken",
          "type": "bool"
        }
      ],
      "name": "mintAndWrap",
      "outputs": [
        {
          "internalType": "uint256",
          "name": "",
          "type": "uint256"
        }
      ],
      "stateMutability": "nonpayable",
      "type": "function"
    },
    {
      "inputs": [
        {
          "internalType": "uint256",
          "name": "wethAmount",
          "type": "uint256"
        },
        {
          "internalType": "bool",
          "name": "useNativeToken",
          "type": "bool"
        }
      ],
      "name": "mintWrapAndBridgeToBase",
      "outputs": [],
      "stateMutability": "payable",
      "type": "function"
    },
    {
      "inputs": [
        {
          "internalType": "uint256",
          "name": "wethAmount",
          "type": "uint256"
        },
        {
          "internalType": "uint256",
          "name": "slippageBps",
          "type": "uint256"
        },
        {
          "internalType": "bool",
          "name": "useNativeToken",
          "type": "bool"
        }
      ],
      "name": "mintWrapAndBridgeToPlume",
      "outputs": [],
      "stateMutability": "payable",
      "type": "function"
    },
    {
      "inputs": [],
      "name": "oeth",
      "outputs": [
        {
          "internalType": "contract IERC20",
          "name": "",
          "type": "address"
        }
      ],
      "stateMutability": "view",
      "type": "function"
    },
    {
      "inputs": [
        {
          "internalType": "bytes32",
          "name": "role",
          "type": "bytes32"
        },
        {
          "internalType": "address",
          "name": "account",
          "type": "address"
        }
      ],
      "name": "renounceRole",
      "outputs": [],
      "stateMutability": "nonpayable",
      "type": "function"
    },
    {
      "inputs": [
        {
          "internalType": "bytes32",
          "name": "role",
          "type": "bytes32"
        },
        {
          "internalType": "address",
          "name": "account",
          "type": "address"
        }
      ],
      "name": "revokeRole",
      "outputs": [],
      "stateMutability": "nonpayable",
      "type": "function"
    },
    {
      "inputs": [],
      "name": "safeContract",
      "outputs": [
        {
          "internalType": "contract ISafe",
          "name": "",
          "type": "address"
        }
      ],
      "stateMutability": "view",
      "type": "function"
    },
    {
      "inputs": [
        {
          "internalType": "bytes4",
          "name": "interfaceId",
          "type": "bytes4"
        }
      ],
      "name": "supportsInterface",
      "outputs": [
        {
          "internalType": "bool",
          "name": "",
          "type": "bool"
        }
      ],
      "stateMutability": "view",
      "type": "function"
    },
    {
      "inputs": [
        {
          "internalType": "address",
          "name": "token",
          "type": "address"
        },
        {
          "internalType": "uint256",
          "name": "amount",
          "type": "uint256"
        }
      ],
      "name": "transferTokens",
      "outputs": [],
      "stateMutability": "nonpayable",
      "type": "function"
    },
    {
      "inputs": [
        {
          "internalType": "uint256",
          "name": "woethAmount",
          "type": "uint256"
        }
      ],
      "name": "unwrapAndRedeem",
      "outputs": [
        {
          "internalType": "uint256",
          "name": "",
          "type": "uint256"
        }
      ],
      "stateMutability": "nonpayable",
      "type": "function"
    },
    {
      "inputs": [
        {
          "internalType": "uint256",
          "name": "woethAmount",
          "type": "uint256"
        }
      ],
      "name": "unwrapRedeemAndBridgeToBase",
      "outputs": [],
      "stateMutability": "payable",
      "type": "function"
    },
    {
      "inputs": [
        {
          "internalType": "uint256",
          "name": "woethAmount",
          "type": "uint256"
        },
        {
          "internalType": "uint256",
          "name": "slippageBps",
          "type": "uint256"
        }
      ],
      "name": "unwrapRedeemAndBridgeToPlume",
      "outputs": [],
      "stateMutability": "payable",
      "type": "function"
    },
    {
      "inputs": [],
      "name": "vault",
      "outputs": [
        {
          "internalType": "contract IVault",
          "name": "",
          "type": "address"
        }
      ],
      "stateMutability": "view",
      "type": "function"
    },
    {
      "inputs": [],
      "name": "weth",
      "outputs": [
        {
          "internalType": "contract IWETH9",
          "name": "",
          "type": "address"
        }
      ],
      "stateMutability": "view",
      "type": "function"
    },
    {
      "inputs": [],
      "name": "woeth",
      "outputs": [
        {
          "internalType": "contract IERC4626",
          "name": "",
          "type": "address"
        }
      ],
      "stateMutability": "view",
      "type": "function"
    },
    {
      "inputs": [
        {
          "internalType": "uint256",
          "name": "ethAmount",
          "type": "uint256"
        }
      ],
      "name": "wrapETH",
      "outputs": [],
      "stateMutability": "payable",
      "type": "function"
    },
    {
      "stateMutability": "payable",
      "type": "receive"
    }
  ],
  "transactionHash": "0xa785b755385cb179f1c25fbc31340a21ecf9626b56ba53cc3d1c8b3cd711d86c",
  "args": [
    "0x4FF1b9D9ba8558F5EAfCec096318eA0d8b541971"
  ],
  "numDeployments": 2,
  "solcInputHash": "1101d31e560dd75c163f21e33bb5e683",
  "bytecode": "0x60a060405234801561001057600080fd5b506040516132b43803806132b483398101604081905261002f916101b8565b6001600160a01b0381166080819052819061004c90600090610085565b61007e7f97667070c54ef182b0f5858b034beac1b6f3089aa2d3188bb1e8929f4fa9b92960805161008560201b60201c565b50506101e8565b61008f82826100ac565b60008281526001602052604090206100a7908261014b565b505050565b6000828152602081815260408083206001600160a01b038516845290915290205460ff16610147576000828152602081815260408083206001600160a01b03851684529091529020805460ff191660011790556101063390565b6001600160a01b0316816001600160a01b0316837f2f8788117e7eff1d82e926ec794901d17c78024a50270940304540a733656f0d60405160405180910390a45b5050565b6000610160836001600160a01b038416610169565b90505b92915050565b60008181526001830160205260408120546101b057508154600181810184556000848152602080822090930184905584548482528286019093526040902091909155610163565b506000610163565b6000602082840312156101ca57600080fd5b81516001600160a01b03811681146101e157600080fd5b9392505050565b6080516130106102a4600039600081816105bc0152818161073501528181610acd01528181610c8001528181610d1b01528181610df201528181610ea8015281816110a4015281816111eb0152818161132901528181611422015281816114b7015281816115ef01528181611747015281816117de01528181611920015281816119b501528181611afc01528181611cc701528181611e1801528181611fb1015281816120f3015281816121f0015261222b01526130106000f3fe6080604052600436106101e75760003560e01c80639010d07c11610102578063c6c2cd5e11610095578063f5b541a611610064578063f5b541a614610588578063f9081ba2146105aa578063fbfa77cf146105de578063fe5f42ca1461060657600080fd5b8063c6c2cd5e1461050d578063ca15c87314610520578063ccfe2a6914610540578063d547741f1461056857600080fd5b8063b5869109116100d1578063b5869109146104a7578063b7347cc8146104ba578063b8f68e32146104cd578063bec3fa17146104ed57600080fd5b80639010d07c1461043f57806391d148541461045f5780639ef261b01461047f578063a217fddf1461049257600080fd5b80633fc8cef31161017a57806359eec5cf1161014957806359eec5cf146103af5780636dcb5655146103d75780636e3ded18146103f757806374bcd67a1461042c57600080fd5b80633fc8cef31461033957806344c8c60114610361578063471101af1461037457806356d0ed611461038757600080fd5b80632a88cf25116101b65780632a88cf251461028e5780632f2ff15d146102ce5780633303d820146102ee57806336568abe1461031957600080fd5b806301ffc9a7146101f357806312b80f9c146102285780631c58db4f1461023d578063248a9ca31461025057600080fd5b366101ee57005b600080fd5b3480156101ff57600080fd5b5061021361020e36600461297d565b61062e565b60405190151581526020015b60405180910390f35b61023b6102363660046129b5565b610659565b005b61023b61024b3660046129ee565b6106c2565b34801561025c57600080fd5b5061028061026b3660046129ee565b60009081526020819052604090206001015490565b60405190815260200161021f565b34801561029a57600080fd5b506102b673dcee70654261af21c44c093c300ed3bb97b7819281565b6040516001600160a01b03909116815260200161021f565b3480156102da57600080fd5b5061023b6102e9366004612a1e565b6107c9565b3480156102fa57600080fd5b506103046176a281565b60405163ffffffff909116815260200161021f565b34801561032557600080fd5b5061023b610334366004612a1e565b6107f4565b34801561034557600080fd5b506102b673c02aaa39b223fe8d0a0e5c4f27ead9083c756cc281565b61023b61036f366004612a4a565b61086e565b61023b6103823660046129ee565b6108c7565b34801561039357600080fd5b506102b67377b2043768d28e9c9ab44e1abfc95944bce5793181565b3480156103bb57600080fd5b506102b6737d1bea5807e6af125826d56ff477745bb89972b881565b3480156103e357600080fd5b506102806103f2366004612a4a565b610911565b34801561040357600080fd5b5061041367dda641cfe44aff8281565b60405167ffffffffffffffff909116815260200161021f565b61023b61043a3660046129ee565b610966565b34801561044b57600080fd5b506102b661045a366004612a7a565b6109d9565b34801561046b57600080fd5b5061021361047a366004612a1e565b6109f1565b61023b61048d3660046129ee565b610a1a565b34801561049e57600080fd5b50610280600081565b61023b6104b5366004612a7a565b610a8a565b61023b6104c8366004612a7a565b610bc4565b3480156104d957600080fd5b506102806104e83660046129ee565b610c31565b3480156104f957600080fd5b5061023b610508366004612a9c565b610c75565b61023b61051b366004612a7a565b610e72565b34801561052c57600080fd5b5061028061053b3660046129ee565b610fce565b34801561054c57600080fd5b506102b673856c4efb76c1d1ae02e20ceb03a2a6a08b0b8dc381565b34801561057457600080fd5b5061023b610583366004612a1e565b610fe5565b34801561059457600080fd5b50610280600080516020612fbb83398151915281565b3480156105b657600080fd5b506102b67f000000000000000000000000000000000000000000000000000000000000000081565b3480156105ea57600080fd5b506102b67339254033945aa2e4809cc2977e7087bee48bd7ab81565b34801561061257600080fd5b506102b67380226fc0ee2b096224eeac085bb9a8cba1146f7d81565b60006001600160e01b03198216635a05180f60e01b148061065357506106538261100b565b92915050565b610671600080516020612fbb833981519152336109f1565b6106965760405162461bcd60e51b815260040161068d90612ac6565b60405180910390fd5b80156106a5576106a5836106c2565b60006106b084611040565b90506106bc8184610bc4565b50505050565b6106da600080516020612fbb833981519152336109f1565b6106f65760405162461bcd60e51b815260040161068d90612ac6565b6040805160048082526024820183526020820180516001600160e01b0316630d0e30db60e41b179052915163468721a760e01b81526001600160a01b037f0000000000000000000000000000000000000000000000000000000000000000169263468721a7926107829273c02aaa39b223fe8d0a0e5c4f27ead9083c756cc29287929160009101612b4d565b6020604051808303816000875af11580156107a1573d6000803e3d6000fd5b505050506040513d601f19601f820116820180604052508101906107c59190612b88565b5050565b6000828152602081905260409020600101546107e58133611688565b6107ef83836116ec565b505050565b6001600160a01b03811633146108645760405162461bcd60e51b815260206004820152602f60248201527f416363657373436f6e74726f6c3a2063616e206f6e6c792072656e6f756e636560448201526e103937b632b9903337b91039b2b63360891b606482015260840161068d565b6107c5828261170e565b610886600080516020612fbb833981519152336109f1565b6108a25760405162461bcd60e51b815260040161068d90612ac6565b80156108b1576108b1826106c2565b60006108bc83611040565b90506107ef81610a1a565b6108df600080516020612fbb833981519152336109f1565b6108fb5760405162461bcd60e51b815260040161068d90612ac6565b600061090682611730565b90506107c581610966565b600061092b600080516020612fbb833981519152336109f1565b6109475760405162461bcd60e51b815260040161068d90612ac6565b811561095657610956836106c2565b61095f83611040565b9392505050565b61097e600080516020612fbb833981519152336109f1565b61099a5760405162461bcd60e51b815260040161068d90612ac6565b6109d67380226fc0ee2b096224eeac085bb9a8cba1146f7d67dda641cfe44aff8273c02aaa39b223fe8d0a0e5c4f27ead9083c756cc284611af8565b50565b600082815260016020526040812061095f9083611f49565b6000918252602082815260408084206001600160a01b0393909316845291905290205460ff1690565b610a32600080516020612fbb833981519152336109f1565b610a4e5760405162461bcd60e51b815260040161068d90612ac6565b6109d67380226fc0ee2b096224eeac085bb9a8cba1146f7d67dda641cfe44aff8273dcee70654261af21c44c093c300ed3bb97b7819284611af8565b610aa2600080516020612fbb833981519152336109f1565b610abe5760405162461bcd60e51b815260040161068d90612ac6565b6000610ac983611730565b90507f00000000000000000000000000000000000000000000000000000000000000006001600160a01b031663468721a773c02aaa39b223fe8d0a0e5c4f27ead9083c756cc26000632e1a7d4d60e01b85604051602401610b2c91815260200190565b60408051601f198184030181529181526020820180516001600160e01b03166001600160e01b03199485161790525160e086901b9092168252610b76939291600090600401612b4d565b6020604051808303816000875af1158015610b95573d6000803e3d6000fd5b505050506040513d601f19601f82011682018060405250810190610bb99190612b88565b506107ef8183610e72565b610bdc600080516020612fbb833981519152336109f1565b610bf85760405162461bcd60e51b815260040161068d90612ac6565b6107c56176a273dcee70654261af21c44c093c300ed3bb97b78192737d1bea5807e6af125826d56ff477745bb89972b885856000611f55565b6000610c4b600080516020612fbb833981519152336109f1565b610c675760405162461bcd60e51b815260040161068d90612ac6565b61065382611730565b919050565b336001600160a01b037f00000000000000000000000000000000000000000000000000000000000000001614610ced5760405162461bcd60e51b815260206004820152601f60248201527f43616c6c6572206973206e6f7420746865207361666520636f6e747261637400604482015260640161068d565b6001600160a01b038216610d645760008111610d095747610d0b565b805b6040519091506001600160a01b037f0000000000000000000000000000000000000000000000000000000000000000169082156108fc029083906000818181858888f193505050501580156107ef573d6000803e3d6000fd5b60008111610dd9576040516370a0823160e01b81523060048201526001600160a01b038316906370a0823190602401602060405180830381865afa158015610db0573d6000803e3d6000fd5b505050506040513d601f19601f82011682018060405250810190610dd49190612ba5565b610ddb565b805b60405163a9059cbb60e01b81526001600160a01b037f000000000000000000000000000000000000000000000000000000000000000081166004830152602482018390529192509083169063a9059cbb906044016020604051808303816000875af1158015610e4e573d6000803e3d6000fd5b505050506040513d601f19601f820116820180604052508101906107ef9190612b88565b610e8a600080516020612fbb833981519152336109f1565b610ea65760405162461bcd60e51b815260040161068d90612ac6565b7f00000000000000000000000000000000000000000000000000000000000000006001600160a01b031663468721a773c02aaa39b223fe8d0a0e5c4f27ead9083c756cc26000632e1a7d4d60e01b86604051602401610f0791815260200190565b60408051601f198184030181529181526020820180516001600160e01b03166001600160e01b03199485161790525160e086901b9092168252610f51939291600090600401612b4d565b6020604051808303816000875af1158015610f70573d6000803e3d6000fd5b505050506040513d601f19601f82011682018060405250810190610f949190612b88565b506107c56176a273c02aaa39b223fe8d0a0e5c4f27ead9083c756cc27377b2043768d28e9c9ab44e1abfc95944bce5793185856001611f55565b60008181526001602052604081206106539061233f565b6000828152602081905260409020600101546110018133611688565b6107ef838361170e565b60006001600160e01b03198216637965db0b60e01b148061065357506301ffc9a760e01b6001600160e01b0319831614610653565b604080517339254033945aa2e4809cc2977e7087bee48bd7ab6024820152604480820184905282518083039091018152606490910182526020810180516001600160e01b031663095ea7b360e01b179052905163468721a760e01b815260009182917f00000000000000000000000000000000000000000000000000000000000000006001600160a01b03169163468721a7916110fa9173c02aaa39b223fe8d0a0e5c4f27ead9083c756cc2918691908290600401612b4d565b6020604051808303816000875af1158015611119573d6000803e3d6000fd5b505050506040513d601f19601f8201168201806040525081019061113d9190612b88565b9050806111855760405162461bcd60e51b815260206004820152601660248201527508cc2d2d8cac840e8de40c2e0e0e4deecca40ae8aa8960531b604482015260640161068d565b6040805173c02aaa39b223fe8d0a0e5c4f27ead9083c756cc2602482015260448101859052606480820186905282518083039091018152608490910182526020810180516001600160e01b0316630ab714fb60e11b179052905163468721a760e01b81527f00000000000000000000000000000000000000000000000000000000000000006001600160a01b03169163468721a791611242917339254033945aa2e4809cc2977e7087bee48bd7ab91600091908290600401612b4d565b6020604051808303816000875af1158015611261573d6000803e3d6000fd5b505050506040513d601f19601f820116820180604052508101906112859190612b88565b9050806112ca5760405162461bcd60e51b815260206004820152601360248201527208cc2d2d8cac840e8de40dad2dce8409e8aa89606b1b604482015260640161068d565b6040805173dcee70654261af21c44c093c300ed3bb97b781926024820152604480820186905282518083039091018152606490910182526020810180516001600160e01b031663095ea7b360e01b179052905163468721a760e01b81527f00000000000000000000000000000000000000000000000000000000000000006001600160a01b03169163468721a7916113809173856c4efb76c1d1ae02e20ceb03a2a6a08b0b8dc391600091908290600401612b4d565b6020604051808303816000875af115801561139f573d6000803e3d6000fd5b505050506040513d601f19601f820116820180604052508101906113c39190612b88565b90508061140b5760405162461bcd60e51b815260206004820152601660248201527508cc2d2d8cac840e8de40c2e0e0e4deecca409e8aa8960531b604482015260640161068d565b6040516370a0823160e01b81526001600160a01b037f000000000000000000000000000000000000000000000000000000000000000016600482015260009073dcee70654261af21c44c093c300ed3bb97b78192906370a0823190602401602060405180830381865afa158015611486573d6000803e3d6000fd5b505050506040513d601f19601f820116820180604052508101906114aa9190612ba5565b60408051602481018790527f00000000000000000000000000000000000000000000000000000000000000006001600160a01b0316604480830182905283518084039091018152606490920183526020820180516001600160e01b0316636e553f6560e01b179052915163468721a760e01b8152929350909163468721a7916115509173dcee70654261af21c44c093c300ed3bb97b78192916000918290600401612b4d565b6020604051808303816000875af115801561156f573d6000803e3d6000fd5b505050506040513d601f19601f820116820180604052508101906115939190612b88565b9150816115d85760405162461bcd60e51b815260206004820152601360248201527208cc2d2d8cac840e8de40eee4c2e0409e8aa89606b1b604482015260640161068d565b6040516370a0823160e01b81526001600160a01b037f0000000000000000000000000000000000000000000000000000000000000000166004820152819073dcee70654261af21c44c093c300ed3bb97b78192906370a0823190602401602060405180830381865afa158015611652573d6000803e3d6000fd5b505050506040513d601f19601f820116820180604052508101906116769190612ba5565b6116809190612bd4565b949350505050565b61169282826109f1565b6107c5576116aa816001600160a01b03166014612349565b6116b5836020612349565b6040516020016116c6929190612be7565b60408051601f198184030181529082905262461bcd60e51b825261068d91600401612c5c565b6116f682826124e5565b60008281526001602052604090206107ef9082612569565b611718828261257e565b60008281526001602052604090206107ef90826125e3565b6040516370a0823160e01b81526001600160a01b037f0000000000000000000000000000000000000000000000000000000000000000166004820152600090819073856c4efb76c1d1ae02e20ceb03a2a6a08b0b8dc3906370a0823190602401602060405180830381865afa1580156117ad573d6000803e3d6000fd5b505050506040513d601f19601f820116820180604052508101906117d19190612ba5565b60408051602481018690527f00000000000000000000000000000000000000000000000000000000000000006001600160a01b031660448201819052606480830182905283518084039091018152608490920183526020820180516001600160e01b0316635d043b2960e11b179052915163468721a760e01b815292935060009263468721a79161187e9173dcee70654261af21c44c093c300ed3bb97b781929186918290600401612b4d565b6020604051808303816000875af115801561189d573d6000803e3d6000fd5b505050506040513d601f19601f820116820180604052508101906118c19190612b88565b9050806119095760405162461bcd60e51b815260206004820152601660248201527508cc2d2d8cac840e8de40eadceee4c2e040ee9e8aa8960531b604482015260640161068d565b6040516370a0823160e01b81526001600160a01b037f0000000000000000000000000000000000000000000000000000000000000000166004820152829073856c4efb76c1d1ae02e20ceb03a2a6a08b0b8dc3906370a0823190602401602060405180830381865afa158015611983573d6000803e3d6000fd5b505050506040513d601f19601f820116820180604052508101906119a79190612ba5565b6119b19190612bd4565b91507f00000000000000000000000000000000000000000000000000000000000000006001600160a01b031663468721a77339254033945aa2e4809cc2977e7087bee48bd7ab6000637cbc237360e01b8687604051602401611a1d929190918252602082015260400190565b60408051601f198184030181529181526020820180516001600160e01b03166001600160e01b03199485161790525160e086901b9092168252611a67939291600090600401612b4d565b6020604051808303816000875af1158015611a86573d6000803e3d6000fd5b505050506040513d601f19601f82011682018060405250810190611aaa9190612b88565b905080611af15760405162461bcd60e51b815260206004820152601560248201527408cc2d2d8cac840e8de40e4cac8cacada409e8aa89605b1b604482015260640161068d565b5092915050565b60007f00000000000000000000000000000000000000000000000000000000000000006001600160a01b031663468721a784600063095ea7b360e01b8987604051602401611b5b9291906001600160a01b03929092168252602082015260400190565b60408051601f198184030181529181526020820180516001600160e01b03166001600160e01b03199485161790525160e086901b9092168252611ba5939291600090600401612b4d565b6020604051808303816000875af1158015611bc4573d6000803e3d6000fd5b505050506040513d601f19601f82011682018060405250810190611be89190612b88565b905080611c315760405162461bcd60e51b81526020600482015260176024820152762330b4b632b2103a379030b8383937bb32903a37b5b2b760491b604482015260640161068d565b604080516001808252818301909252600091816020015b6040805180820190915260008082526020820152815260200190600190039081611c4857905050905060006040518060400160405280866001600160a01b031681526020018581525090508082600081518110611ca757611ca7612c85565b60209081029190910101526040805160a081019091526001600160a01b037f00000000000000000000000000000000000000000000000000000000000000001660c08201526000908060e081016040516020818303038152906040528152602001604051602001611d2390602080825260009082015260400190565b604051602081830303815290604052815260200184815260200160006001600160a01b03168152602001611d9d6040518060200160405280600081525060408051915160248084019190915281518084039091018152604490920190526020810180516001600160e01b03166397a657c960e01b17905290565b90526040516320487ded60e01b81529091506000906001600160a01b038a16906320487ded90611dd3908b908690600401612c9b565b602060405180830381865afa158015611df0573d6000803e3d6000fd5b505050506040513d601f19601f82011682018060405250810190611e149190612ba5565b90507f00000000000000000000000000000000000000000000000000000000000000006001600160a01b031663468721a78a836396f4e9f960e01b8c87604051602401611e62929190612c9b565b60408051601f198184030181529181526020820180516001600160e01b03166001600160e01b03199485161790525160e086901b9092168252611eac939291600090600401612b4d565b6020604051808303816000875af1158015611ecb573d6000803e3d6000fd5b505050506040513d601f19601f82011682018060405250810190611eef9190612b88565b945084611f3e5760405162461bcd60e51b815260206004820152601b60248201527f4661696c656420746f2073656e642043434950206d6573736167650000000000604482015260640161068d565b505050505050505050565b600061095f83836125f8565b60008161207957604080516001600160a01b038781166024830152604480830188905283518084039091018152606490920183526020820180516001600160e01b031663095ea7b360e01b179052915163468721a760e01b81527f00000000000000000000000000000000000000000000000000000000000000009092169163468721a791611fed918a916000918290600401612b4d565b6020604051808303816000875af115801561200c573d6000803e3d6000fd5b505050506040513d601f19601f820116820180604052508101906120309190612b88565b9050806120795760405162461bcd60e51b81526020600482015260176024820152762330b4b632b2103a379030b8383937bb32903a37b5b2b760491b604482015260640161068d565b60006127106120888582612bd4565b6120929087612d7c565b61209c9190612d93565b905060006120d662061a8060006120cf60408051600360f01b602082015281516002818303018152602290910190915290565b9190612622565b905060006040518060e001604052808b63ffffffff1681526020017f00000000000000000000000000000000000000000000000000000000000000006001600160a01b031660001b81526020018881526020018481526020018381526020016040518060200160405280600081525081526020016040518060200160405280600081525081525090506000886001600160a01b0316633b6f743b8360006040518363ffffffff1660e01b8152600401612190929190612e34565b6040805180830381865afa1580156121ac573d6000803e3d6000fd5b505050506040513d601f19601f820116820180604052508101906121d09190612e58565b90506000866121e05781516121ec565b81516121ec908a612eba565b90507f00000000000000000000000000000000000000000000000000000000000000006001600160a01b031663468721a78b8363c7c7f5b360e01b87877f000000000000000000000000000000000000000000000000000000000000000060405160240161225c93929190612ecd565b60408051601f198184030181529181526020820180516001600160e01b03166001600160e01b03199485161790525160e086901b90921682526122a6939291600090600401612b4d565b6020604051808303816000875af11580156122c5573d6000803e3d6000fd5b505050506040513d601f19601f820116820180604052508101906122e99190612b88565b9550856123315760405162461bcd60e51b81526020600482015260166024820152752330b4b632b2103a3790313934b233b2903a37b5b2b760511b604482015260640161068d565b505050505050505050505050565b6000610653825490565b60606000612358836002612d7c565b612363906002612eba565b67ffffffffffffffff81111561237b5761237b612c6f565b6040519080825280601f01601f1916602001820160405280156123a5576020820181803683370190505b509050600360fc1b816000815181106123c0576123c0612c85565b60200101906001600160f81b031916908160001a905350600f60fb1b816001815181106123ef576123ef612c85565b60200101906001600160f81b031916908160001a9053506000612413846002612d7c565b61241e906001612eba565b90505b6001811115612496576f181899199a1a9b1b9c1cb0b131b232b360811b85600f166010811061245257612452612c85565b1a60f81b82828151811061246857612468612c85565b60200101906001600160f81b031916908160001a90535060049490941c9361248f81612f0c565b9050612421565b50831561095f5760405162461bcd60e51b815260206004820181905260248201527f537472696e67733a20686578206c656e67746820696e73756666696369656e74604482015260640161068d565b6124ef82826109f1565b6107c5576000828152602081815260408083206001600160a01b03851684529091529020805460ff191660011790556125253390565b6001600160a01b0316816001600160a01b0316837f2f8788117e7eff1d82e926ec794901d17c78024a50270940304540a733656f0d60405160405180910390a45050565b600061095f836001600160a01b03841661268a565b61258882826109f1565b156107c5576000828152602081815260408083206001600160a01b0385168085529252808320805460ff1916905551339285917ff6391f5c32d9c69d2a47ea670b442974b53935d1edc7fd64eb21e047a839171b9190a45050565b600061095f836001600160a01b0384166126d9565b600082600001828154811061260f5761260f612c85565b9060005260206000200154905092915050565b60608360036126328260006127cc565b61ffff1614612666576126468160006127cc565b604051633a51740d60e01b815261ffff909116600482015260240161068d565b60006126728585612829565b9050612680866001836128ab565b9695505050505050565b60008181526001830160205260408120546126d157508154600181810184556000848152602080822090930184905584548482528286019093526040902091909155610653565b506000610653565b600081815260018301602052604081205480156127c25760006126fd600183612bd4565b855490915060009061271190600190612bd4565b905081811461277657600086600001828154811061273157612731612c85565b906000526020600020015490508087600001848154811061275457612754612c85565b6000918252602080832090910192909255918252600188019052604090208390555b855486908061278757612787612f23565b600190038181906000526020600020016000905590558560010160008681526020019081526020016000206000905560019350505050610653565b6000915050610653565b60006127d9826002612eba565b835110156128205760405162461bcd60e51b8152602060048201526014602482015273746f55696e7431365f6f75744f66426f756e647360601b604482015260640161068d565b50016002015190565b60606fffffffffffffffffffffffffffffffff82161561287a57604080516001600160801b0319608086811b8216602084015285901b1660308201520160405160208183030381529060405261095f565b6040516001600160801b0319608085901b166020820152603001604051602081830303815290604052905092915050565b60608360036128bb8260006127cc565b61ffff16146128cf576126468160006127cc565b8460016128dc8551612916565b6128e7906001612f39565b86866040516020016128fd959493929190612f53565b6040516020818303038152906040529150509392505050565b600061ffff8211156129795760405162461bcd60e51b815260206004820152602660248201527f53616665436173743a2076616c756520646f65736e27742066697420696e203160448201526536206269747360d01b606482015260840161068d565b5090565b60006020828403121561298f57600080fd5b81356001600160e01b03198116811461095f57600080fd5b80151581146109d657600080fd5b6000806000606084860312156129ca57600080fd5b833592506020840135915060408401356129e3816129a7565b809150509250925092565b600060208284031215612a0057600080fd5b5035919050565b80356001600160a01b0381168114610c7057600080fd5b60008060408385031215612a3157600080fd5b82359150612a4160208401612a07565b90509250929050565b60008060408385031215612a5d57600080fd5b823591506020830135612a6f816129a7565b809150509250929050565b60008060408385031215612a8d57600080fd5b50508035926020909101359150565b60008060408385031215612aaf57600080fd5b612ab883612a07565b946020939093013593505050565b60208082526019908201527f43616c6c6572206973206e6f7420616e206f70657261746f7200000000000000604082015260600190565b60005b83811015612b18578181015183820152602001612b00565b50506000910152565b60008151808452612b39816020860160208601612afd565b601f01601f19169290920160200192915050565b60018060a01b0385168152836020820152608060408201526000612b746080830185612b21565b905060ff8316606083015295945050505050565b600060208284031215612b9a57600080fd5b815161095f816129a7565b600060208284031215612bb757600080fd5b5051919050565b634e487b7160e01b600052601160045260246000fd5b8181038181111561065357610653612bbe565b7f416363657373436f6e74726f6c3a206163636f756e7420000000000000000000815260008351612c1f816017850160208801612afd565b7001034b99036b4b9b9b4b733903937b6329607d1b6017918401918201528351612c50816028840160208801612afd565b01602801949350505050565b60208152600061095f6020830184612b21565b634e487b7160e01b600052604160045260246000fd5b634e487b7160e01b600052603260045260246000fd5b67ffffffffffffffff83168152604060208201526000825160a06040840152612cc760e0840182612b21565b90506020840151603f19848303016060850152612ce48282612b21565b6040860151858203603f19016080870152805180835260209182019450600093509101905b80831015612d4057835180516001600160a01b03168352602090810151818401529093019260019290920191604090910190612d09565b5060608601516001600160a01b031660a08601526080860151858203603f190160c08701529250612d718184612b21565b979650505050505050565b808202811582820484141761065357610653612bbe565b600082612db057634e487b7160e01b600052601260045260246000fd5b500490565b63ffffffff81511682526020810151602083015260408101516040830152606081015160608301526000608082015160e06080850152612df860e0850182612b21565b905060a083015184820360a0860152612e118282612b21565b91505060c083015184820360c0860152612e2b8282612b21565b95945050505050565b604081526000612e476040830185612db5565b905082151560208301529392505050565b60006040828403128015612e6b57600080fd5b600090506040516040810181811067ffffffffffffffff82111715612e9e57634e487b7160e01b83526041600452602483fd5b6040528351815260209384015193810193909352509092915050565b8082018082111561065357610653612bbe565b608081526000612ee06080830186612db5565b8451602084810191909152909401516040830152506001600160a01b0391909116606090910152919050565b600081612f1b57612f1b612bbe565b506000190190565b634e487b7160e01b600052603160045260246000fd5b61ffff818116838216019081111561065357610653612bbe565b60008651612f65818460208b01612afd565b6001600160f81b031960f888811b82169285019283526001600160f01b031960f089901b16600184015286901b1660038201528351612fab816004840160208801612afd565b0160040197965050505050505056fe97667070c54ef182b0f5858b034beac1b6f3089aa2d3188bb1e8929f4fa9b929a26469706673582212207c8fc90977e09d51f0e5b67777c4a936a67d0460f5b39290767c8d2b6685eceb64736f6c634300081c0033",
  "libraries": {},
  "devdoc": {
    "events": {
      "RoleAdminChanged(bytes32,bytes32,bytes32)": {
        "details": "Emitted when `newAdminRole` is set as ``role``'s admin role, replacing `previousAdminRole` `DEFAULT_ADMIN_ROLE` is the starting admin for all roles, despite {RoleAdminChanged} not being emitted signaling this. _Available since v3.1._"
      },
      "RoleGranted(bytes32,address,address)": {
        "details": "Emitted when `account` is granted `role`. `sender` is the account that originated the contract call, an admin role bearer except when using {AccessControl-_setupRole}."
      },
      "RoleRevoked(bytes32,address,address)": {
        "details": "Emitted when `account` is revoked `role`. `sender` is the account that originated the contract call:   - if using `revokeRole`, it is the admin role bearer   - if using `renounceRole`, it is the role bearer (i.e. `account`)"
      }
    },
    "kind": "dev",
    "methods": {
      "bridgeWETHToBase(uint256)": {
        "details": "Bridges wETH to Base using CCIP.",
        "params": {
          "wethAmount": "Amount of wETH to bridge."
        }
      },
      "bridgeWETHToPlume(uint256,uint256)": {
        "details": "Bridges wETH to Plume.",
        "params": {
          "slippageBps": "Slippage in 10^4 basis points.",
          "wethAmount": "Amount of wETH to bridge."
        }
      },
      "bridgeWOETHToBase(uint256)": {
        "details": "Bridges wOETH to Base using CCIP.",
        "params": {
          "woethAmount": "Amount of wOETH to bridge."
        }
      },
      "bridgeWOETHToPlume(uint256,uint256)": {
        "details": "Bridges wOETH to Plume.",
        "params": {
          "slippageBps": "Slippage in 10^4 basis points.",
          "woethAmount": "Amount of wOETH to bridge."
        }
      },
      "getRoleAdmin(bytes32)": {
        "details": "Returns the admin role that controls `role`. See {grantRole} and {revokeRole}. To change a role's admin, use {_setRoleAdmin}."
      },
      "getRoleMember(bytes32,uint256)": {
        "details": "Returns one of the accounts that have `role`. `index` must be a value between 0 and {getRoleMemberCount}, non-inclusive. Role bearers are not sorted in any particular way, and their ordering may change at any point. WARNING: When using {getRoleMember} and {getRoleMemberCount}, make sure you perform all queries on the same block. See the following https://forum.openzeppelin.com/t/iterating-over-elements-on-enumerableset-in-openzeppelin-contracts/2296[forum post] for more information."
      },
      "getRoleMemberCount(bytes32)": {
        "details": "Returns the number of accounts that have `role`. Can be used together with {getRoleMember} to enumerate all bearers of a role."
      },
      "grantRole(bytes32,address)": {
        "details": "Grants `role` to `account`. If `account` had not been already granted `role`, emits a {RoleGranted} event. Requirements: - the caller must have ``role``'s admin role."
      },
      "hasRole(bytes32,address)": {
        "details": "Returns `true` if `account` has been granted `role`."
      },
      "mintAndWrap(uint256,bool)": {
        "details": "Mints OETH and wraps it into wOETH.",
        "params": {
          "useNativeToken": "Whether to use native token to mint.",
          "wethAmount": "Amount of WETH to mint."
        },
        "returns": {
          "_0": "Amount of wOETH minted."
        }
      },
      "mintWrapAndBridgeToBase(uint256,bool)": {
        "details": "Mints OETH and wraps it into wOETH, then bridges it to Base using CCIP.",
        "params": {
          "useNativeToken": "Whether to use native token to mint.",
          "wethAmount": "Amount of WETH to mint."
        }
      },
      "mintWrapAndBridgeToPlume(uint256,uint256,bool)": {
        "details": "Mints OETH and wraps it into wOETH, then bridges it to Plume.",
        "params": {
          "slippageBps": "Bridge slippage in 10^4 basis points.",
          "useNativeToken": "Whether to use native token to mint.",
          "wethAmount": "Amount of WETH to mint."
        }
      },
      "renounceRole(bytes32,address)": {
        "details": "Revokes `role` from the calling account. Roles are often managed via {grantRole} and {revokeRole}: this function's purpose is to provide a mechanism for accounts to lose their privileges if they are compromised (such as when a trusted device is misplaced). If the calling account had been revoked `role`, emits a {RoleRevoked} event. Requirements: - the caller must be `account`."
      },
      "revokeRole(bytes32,address)": {
        "details": "Revokes `role` from `account`. If `account` had been granted `role`, emits a {RoleRevoked} event. Requirements: - the caller must have ``role``'s admin role."
      },
      "supportsInterface(bytes4)": {
        "details": "See {IERC165-supportsInterface}."
      },
      "transferTokens(address,uint256)": {
        "details": "Helps recovering any tokens accidentally sent to this module.",
        "params": {
          "amount": "Amount to transfer. 0 to transfer all balance.",
          "token": "Token to transfer. 0x0 to transfer Native token."
        }
      },
      "unwrapAndRedeem(uint256)": {
        "details": "Unwraps wOETH and redeems it to get WETH.",
        "params": {
          "woethAmount": "Amount of wOETH to unwrap."
        },
        "returns": {
          "_0": "Amount of WETH received."
        }
      },
      "unwrapRedeemAndBridgeToBase(uint256)": {
        "details": "Unwraps wOETH and redeems it to get WETH, then bridges it to Base using CCIP.",
        "params": {
          "woethAmount": "Amount of wOETH to unwrap."
        }
      },
      "unwrapRedeemAndBridgeToPlume(uint256,uint256)": {
        "details": "Unwraps wOETH and redeems it to get WETH, then bridges it to Plume.",
        "params": {
          "slippageBps": "Bridge slippage in 10^4 basis points.",
          "woethAmount": "Amount of wOETH to unwrap."
        }
      }
    },
    "version": 1
  },
  "userdoc": {
    "kind": "user",
    "methods": {},
    "version": 1
  },
  "storageLayout": {
    "storage": [
      {
        "astId": 2872,
        "contract": "contracts/automation/EthereumBridgeHelperModule.sol:EthereumBridgeHelperModule",
        "label": "_roles",
        "offset": 0,
        "slot": "0",
        "type": "t_mapping(t_bytes32,t_struct(RoleData)2867_storage)"
      },
      {
        "astId": 3175,
        "contract": "contracts/automation/EthereumBridgeHelperModule.sol:EthereumBridgeHelperModule",
        "label": "_roleMembers",
        "offset": 0,
        "slot": "1",
        "type": "t_mapping(t_bytes32,t_struct(AddressSet)5386_storage)"
      }
    ],
    "types": {
      "t_address": {
        "encoding": "inplace",
        "label": "address",
        "numberOfBytes": "20"
      },
      "t_array(t_bytes32)dyn_storage": {
        "base": "t_bytes32",
        "encoding": "dynamic_array",
        "label": "bytes32[]",
        "numberOfBytes": "32"
      },
      "t_bool": {
        "encoding": "inplace",
        "label": "bool",
        "numberOfBytes": "1"
      },
      "t_bytes32": {
        "encoding": "inplace",
        "label": "bytes32",
        "numberOfBytes": "32"
      },
      "t_mapping(t_address,t_bool)": {
        "encoding": "mapping",
        "key": "t_address",
        "label": "mapping(address => bool)",
        "numberOfBytes": "32",
        "value": "t_bool"
      },
      "t_mapping(t_bytes32,t_struct(AddressSet)5386_storage)": {
        "encoding": "mapping",
        "key": "t_bytes32",
        "label": "mapping(bytes32 => struct EnumerableSet.AddressSet)",
        "numberOfBytes": "32",
        "value": "t_struct(AddressSet)5386_storage"
      },
      "t_mapping(t_bytes32,t_struct(RoleData)2867_storage)": {
        "encoding": "mapping",
        "key": "t_bytes32",
        "label": "mapping(bytes32 => struct AccessControl.RoleData)",
        "numberOfBytes": "32",
        "value": "t_struct(RoleData)2867_storage"
      },
      "t_mapping(t_bytes32,t_uint256)": {
        "encoding": "mapping",
        "key": "t_bytes32",
        "label": "mapping(bytes32 => uint256)",
        "numberOfBytes": "32",
        "value": "t_uint256"
      },
      "t_struct(AddressSet)5386_storage": {
        "encoding": "inplace",
        "label": "struct EnumerableSet.AddressSet",
        "members": [
          {
            "astId": 5385,
            "contract": "contracts/automation/EthereumBridgeHelperModule.sol:EthereumBridgeHelperModule",
            "label": "_inner",
            "offset": 0,
            "slot": "0",
            "type": "t_struct(Set)5085_storage"
          }
        ],
        "numberOfBytes": "64"
      },
      "t_struct(RoleData)2867_storage": {
        "encoding": "inplace",
        "label": "struct AccessControl.RoleData",
        "members": [
          {
            "astId": 2864,
            "contract": "contracts/automation/EthereumBridgeHelperModule.sol:EthereumBridgeHelperModule",
            "label": "members",
            "offset": 0,
            "slot": "0",
            "type": "t_mapping(t_address,t_bool)"
          },
          {
            "astId": 2866,
            "contract": "contracts/automation/EthereumBridgeHelperModule.sol:EthereumBridgeHelperModule",
            "label": "adminRole",
            "offset": 0,
            "slot": "1",
            "type": "t_bytes32"
          }
        ],
        "numberOfBytes": "64"
      },
      "t_struct(Set)5085_storage": {
        "encoding": "inplace",
        "label": "struct EnumerableSet.Set",
        "members": [
          {
            "astId": 5080,
            "contract": "contracts/automation/EthereumBridgeHelperModule.sol:EthereumBridgeHelperModule",
            "label": "_values",
            "offset": 0,
            "slot": "0",
            "type": "t_array(t_bytes32)dyn_storage"
          },
          {
            "astId": 5084,
            "contract": "contracts/automation/EthereumBridgeHelperModule.sol:EthereumBridgeHelperModule",
            "label": "_indexes",
            "offset": 0,
            "slot": "1",
            "type": "t_mapping(t_bytes32,t_uint256)"
          }
        ],
        "numberOfBytes": "64"
      },
      "t_uint256": {
        "encoding": "inplace",
        "label": "uint256",
        "numberOfBytes": "32"
      }
    }
  }
}