{
  "address": "0x89020552847E4041773E2412Ef522abd1706Ff33",
  "abi": [
    {
      "inputs": [
        {
          "internalType": "address",
          "name": "_strategy",
          "type": "address"
        }
      ],
      "stateMutability": "nonpayable",
      "type": "constructor"
    },
    {
      "anonymous": false,
      "inputs": [
        {
          "indexed": true,
          "internalType": "address",
          "name": "strategy",
          "type": "address"
        },
        {
          "indexed": false,
          "internalType": "uint256",
          "name": "amount",
          "type": "uint256"
        }
      ],
      "name": "ExecutionRewardsCollected",
      "type": "event"
    },
    {
      "inputs": [],
      "name": "STRATEGY",
      "outputs": [
        {
          "internalType": "address",
          "name": "",
          "type": "address"
        }
      ],
      "stateMutability": "view",
      "type": "function"
    },
    {
      "inputs": [],
      "name": "collect",
      "outputs": [
        {
          "internalType": "uint256",
          "name": "eth",
          "type": "uint256"
        }
      ],
      "stateMutability": "nonpayable",
      "type": "function"
    },
    {
      "stateMutability": "payable",
      "type": "receive"
    }
  ],
  "transactionHash": "0xbeac404bb279d8fcf2a80e174faf74c2f5e3bfa86b310f5faa5f2bca281f5f9a",
  "args": [
    "0xE98538A0e8C2871C2482e1Be8cC6bd9F8E8fFD63"
  ],
  "numDeployments": 3,
  "solcInputHash": "591522de905e9c0f04eb6635aadcda42",
  "bytecode": "0x60a060405234801561001057600080fd5b506040516103be3803806103be83398101604081905261002f91610044565b60601b6001600160601b031916608052610074565b60006020828403121561005657600080fd5b81516001600160a01b038116811461006d57600080fd5b9392505050565b60805160601c6103196100a560003960008181604b0152818160ba01528181610139015261016001526103196000f3fe60806040526004361061002d5760003560e01c8063185025ef14610039578063e52253811461008a57600080fd5b3661003457005b600080fd5b34801561004557600080fd5b5061006d7f000000000000000000000000000000000000000000000000000000000000000081565b6040516001600160a01b0390911681526020015b60405180910390f35b34801561009657600080fd5b5061009f6100ad565b604051908152602001610081565b6000336001600160a01b037f0000000000000000000000000000000000000000000000000000000000000000161461012c5760405162461bcd60e51b815260206004820152601a60248201527f43616c6c6572206973206e6f742074686520537472617465677900000000000060448201526064015b60405180910390fd5b504780156101c25761015e7f0000000000000000000000000000000000000000000000000000000000000000826101c5565b7f00000000000000000000000000000000000000000000000000000000000000006001600160a01b03167fc2acb502a0dc166a61cd83b914b480d76050e91a6797d7a833be84c4eace1dfe826040516101b991815260200190565b60405180910390a25b90565b804710156102155760405162461bcd60e51b815260206004820152601d60248201527f416464726573733a20696e73756666696369656e742062616c616e63650000006044820152606401610123565b6000826001600160a01b03168260405160006040518083038185875af1925050503d8060008114610262576040519150601f19603f3d011682016040523d82523d6000602084013e610267565b606091505b50509050806102de5760405162461bcd60e51b815260206004820152603a60248201527f416464726573733a20756e61626c6520746f2073656e642076616c75652c207260448201527f6563697069656e74206d617920686176652072657665727465640000000000006064820152608401610123565b50505056fea2646970667358221220820ecc375f00208f6789d08bcdc870d64534e6b8f2b067fce4d4d92181f857e264736f6c63430008070033",
  "libraries": {},
  "devdoc": {
    "author": "Origin Protocol Inc",
    "kind": "dev",
    "methods": {
      "collect()": {
        "returns": {
          "eth": "The amount of execution rewards that were sent to the Native Staking Strategy"
        }
      },
      "constructor": {
        "params": {
          "_strategy": "Address of the Native Staking Strategy"
        }
      }
    },
    "title": "Fee Accumulator for Native Staking SSV Strategy",
    "version": 1
  },
  "userdoc": {
    "kind": "user",
    "methods": {
      "STRATEGY()": {
        "notice": "The address of the Native Staking Strategy"
      },
      "collect()": {
        "notice": "sends all ETH in this FeeAccumulator contract to the Native Staking Strategy."
      }
    },
    "notice": "Receives execution rewards which includes tx fees and MEV rewards like tx priority and tx ordering. It does NOT include swept ETH from beacon chain consensus rewards or full validator withdrawals.",
    "version": 1
  },
  "storageLayout": {
    "storage": [],
    "types": null
  }
}