{
  "address": "0x57d49c28Cf9A0f65B1279a97eD01C3e49a5A173f",
  "abi": [
    {
      "inputs": [
        {
          "components": [
            {
              "internalType": "address",
              "name": "platformAddress",
              "type": "address"
            },
            {
              "internalType": "address",
              "name": "vaultAddress",
              "type": "address"
            }
          ],
          "internalType": "struct InitializableAbstractStrategy.BaseStrategyConfig",
          "name": "_stratConfig",
          "type": "tuple"
        }
      ],
      "stateMutability": "nonpayable",
      "type": "constructor"
    },
    {
      "anonymous": false,
      "inputs": [
        {
          "indexed": true,
          "internalType": "address",
          "name": "_asset",
          "type": "address"
        },
        {
          "indexed": false,
          "internalType": "address",
          "name": "_pToken",
          "type": "address"
        },
        {
          "indexed": false,
          "internalType": "uint256",
          "name": "_amount",
          "type": "uint256"
        }
      ],
      "name": "Deposit",
      "type": "event"
    },
    {
      "anonymous": false,
      "inputs": [
        {
          "indexed": true,
          "internalType": "address",
          "name": "previousGovernor",
          "type": "address"
        },
        {
          "indexed": true,
          "internalType": "address",
          "name": "newGovernor",
          "type": "address"
        }
      ],
      "name": "GovernorshipTransferred",
      "type": "event"
    },
    {
      "anonymous": false,
      "inputs": [
        {
          "indexed": false,
          "internalType": "address",
          "name": "_oldHarvesterAddress",
          "type": "address"
        },
        {
          "indexed": false,
          "internalType": "address",
          "name": "_newHarvesterAddress",
          "type": "address"
        }
      ],
      "name": "HarvesterAddressesUpdated",
      "type": "event"
    },
    {
      "anonymous": false,
      "inputs": [
        {
          "indexed": true,
          "internalType": "address",
          "name": "_asset",
          "type": "address"
        },
        {
          "indexed": false,
          "internalType": "address",
          "name": "_pToken",
          "type": "address"
        }
      ],
      "name": "PTokenAdded",
      "type": "event"
    },
    {
      "anonymous": false,
      "inputs": [
        {
          "indexed": true,
          "internalType": "address",
          "name": "_asset",
          "type": "address"
        },
        {
          "indexed": false,
          "internalType": "address",
          "name": "_pToken",
          "type": "address"
        }
      ],
      "name": "PTokenRemoved",
      "type": "event"
    },
    {
      "anonymous": false,
      "inputs": [
        {
          "indexed": true,
          "internalType": "address",
          "name": "previousGovernor",
          "type": "address"
        },
        {
          "indexed": true,
          "internalType": "address",
          "name": "newGovernor",
          "type": "address"
        }
      ],
      "name": "PendingGovernorshipTransfer",
      "type": "event"
    },
    {
      "anonymous": false,
      "inputs": [
        {
          "indexed": false,
          "internalType": "address[]",
          "name": "_oldAddresses",
          "type": "address[]"
        },
        {
          "indexed": false,
          "internalType": "address[]",
          "name": "_newAddresses",
          "type": "address[]"
        }
      ],
      "name": "RewardTokenAddressesUpdated",
      "type": "event"
    },
    {
      "anonymous": false,
      "inputs": [
        {
          "indexed": false,
          "internalType": "address",
          "name": "recipient",
          "type": "address"
        },
        {
          "indexed": false,
          "internalType": "address",
          "name": "rewardToken",
          "type": "address"
        },
        {
          "indexed": false,
          "internalType": "uint256",
          "name": "amount",
          "type": "uint256"
        }
      ],
      "name": "RewardTokenCollected",
      "type": "event"
    },
    {
      "anonymous": false,
      "inputs": [
        {
          "indexed": false,
          "internalType": "address",
          "name": "asset",
          "type": "address"
        },
        {
          "indexed": false,
          "internalType": "uint256",
          "name": "amount",
          "type": "uint256"
        }
      ],
      "name": "SkippedWithdrawal",
      "type": "event"
    },
    {
      "anonymous": false,
      "inputs": [
        {
          "indexed": true,
          "internalType": "address",
          "name": "_asset",
          "type": "address"
        },
        {
          "indexed": false,
          "internalType": "address",
          "name": "_pToken",
          "type": "address"
        },
        {
          "indexed": false,
          "internalType": "uint256",
          "name": "_amount",
          "type": "uint256"
        }
      ],
      "name": "Withdrawal",
      "type": "event"
    },
    {
      "inputs": [],
      "name": "_deprecated_rewardLiquidationThreshold",
      "outputs": [
        {
          "internalType": "uint256",
          "name": "",
          "type": "uint256"
        }
      ],
      "stateMutability": "view",
      "type": "function"
    },
    {
      "inputs": [],
      "name": "_deprecated_rewardTokenAddress",
      "outputs": [
        {
          "internalType": "address",
          "name": "",
          "type": "address"
        }
      ],
      "stateMutability": "view",
      "type": "function"
    },
    {
      "inputs": [
        {
          "internalType": "address",
          "name": "",
          "type": "address"
        }
      ],
      "name": "assetToPToken",
      "outputs": [
        {
          "internalType": "address",
          "name": "",
          "type": "address"
        }
      ],
      "stateMutability": "view",
      "type": "function"
    },
    {
      "inputs": [
        {
          "internalType": "address",
          "name": "_asset",
          "type": "address"
        }
      ],
      "name": "checkBalance",
      "outputs": [
        {
          "internalType": "uint256",
          "name": "balance",
          "type": "uint256"
        }
      ],
      "stateMutability": "view",
      "type": "function"
    },
    {
      "inputs": [],
      "name": "claimGovernance",
      "outputs": [],
      "stateMutability": "nonpayable",
      "type": "function"
    },
    {
      "inputs": [],
      "name": "collectRewardTokens",
      "outputs": [],
      "stateMutability": "nonpayable",
      "type": "function"
    },
    {
      "inputs": [
        {
          "internalType": "address",
          "name": "_asset",
          "type": "address"
        },
        {
          "internalType": "uint256",
          "name": "_amount",
          "type": "uint256"
        }
      ],
      "name": "deposit",
      "outputs": [],
      "stateMutability": "nonpayable",
      "type": "function"
    },
    {
      "inputs": [],
      "name": "depositAll",
      "outputs": [],
      "stateMutability": "nonpayable",
      "type": "function"
    },
    {
      "inputs": [],
      "name": "getRewardTokenAddresses",
      "outputs": [
        {
          "internalType": "address[]",
          "name": "",
          "type": "address[]"
        }
      ],
      "stateMutability": "view",
      "type": "function"
    },
    {
      "inputs": [],
      "name": "governor",
      "outputs": [
        {
          "internalType": "address",
          "name": "",
          "type": "address"
        }
      ],
      "stateMutability": "view",
      "type": "function"
    },
    {
      "inputs": [],
      "name": "harvesterAddress",
      "outputs": [
        {
          "internalType": "address",
          "name": "",
          "type": "address"
        }
      ],
      "stateMutability": "view",
      "type": "function"
    },
    {
      "inputs": [
        {
          "internalType": "address[]",
          "name": "_rewardTokenAddresses",
          "type": "address[]"
        },
        {
          "internalType": "address[]",
          "name": "_assets",
          "type": "address[]"
        },
        {
          "internalType": "address[]",
          "name": "_pTokens",
          "type": "address[]"
        }
      ],
      "name": "initialize",
      "outputs": [],
      "stateMutability": "nonpayable",
      "type": "function"
    },
    {
      "inputs": [],
      "name": "isGovernor",
      "outputs": [
        {
          "internalType": "bool",
          "name": "",
          "type": "bool"
        }
      ],
      "stateMutability": "view",
      "type": "function"
    },
    {
      "inputs": [],
      "name": "platformAddress",
      "outputs": [
        {
          "internalType": "address",
          "name": "",
          "type": "address"
        }
      ],
      "stateMutability": "view",
      "type": "function"
    },
    {
      "inputs": [
        {
          "internalType": "uint256",
          "name": "_assetIndex",
          "type": "uint256"
        }
      ],
      "name": "removePToken",
      "outputs": [],
      "stateMutability": "nonpayable",
      "type": "function"
    },
    {
      "inputs": [
        {
          "internalType": "uint256",
          "name": "",
          "type": "uint256"
        }
      ],
      "name": "rewardTokenAddresses",
      "outputs": [
        {
          "internalType": "address",
          "name": "",
          "type": "address"
        }
      ],
      "stateMutability": "view",
      "type": "function"
    },
    {
      "inputs": [],
      "name": "safeApproveAllTokens",
      "outputs": [],
      "stateMutability": "nonpayable",
      "type": "function"
    },
    {
      "inputs": [
        {
          "internalType": "address",
          "name": "_harvesterAddress",
          "type": "address"
        }
      ],
      "name": "setHarvesterAddress",
      "outputs": [],
      "stateMutability": "nonpayable",
      "type": "function"
    },
    {
      "inputs": [
        {
          "internalType": "address",
          "name": "_asset",
          "type": "address"
        },
        {
          "internalType": "address",
          "name": "_pToken",
          "type": "address"
        }
      ],
      "name": "setPTokenAddress",
      "outputs": [],
      "stateMutability": "nonpayable",
      "type": "function"
    },
    {
      "inputs": [
        {
          "internalType": "address[]",
          "name": "_rewardTokenAddresses",
          "type": "address[]"
        }
      ],
      "name": "setRewardTokenAddresses",
      "outputs": [],
      "stateMutability": "nonpayable",
      "type": "function"
    },
    {
      "inputs": [
        {
          "internalType": "address",
          "name": "_asset",
          "type": "address"
        }
      ],
      "name": "supportsAsset",
      "outputs": [
        {
          "internalType": "bool",
          "name": "",
          "type": "bool"
        }
      ],
      "stateMutability": "view",
      "type": "function"
    },
    {
      "inputs": [
        {
          "internalType": "address",
          "name": "_newGovernor",
          "type": "address"
        }
      ],
      "name": "transferGovernance",
      "outputs": [],
      "stateMutability": "nonpayable",
      "type": "function"
    },
    {
      "inputs": [
        {
          "internalType": "address",
          "name": "_asset",
          "type": "address"
        },
        {
          "internalType": "uint256",
          "name": "_amount",
          "type": "uint256"
        }
      ],
      "name": "transferToken",
      "outputs": [],
      "stateMutability": "nonpayable",
      "type": "function"
    },
    {
      "inputs": [],
      "name": "vaultAddress",
      "outputs": [
        {
          "internalType": "address",
          "name": "",
          "type": "address"
        }
      ],
      "stateMutability": "view",
      "type": "function"
    },
    {
      "inputs": [
        {
          "internalType": "address",
          "name": "_recipient",
          "type": "address"
        },
        {
          "internalType": "address",
          "name": "_asset",
          "type": "address"
        },
        {
          "internalType": "uint256",
          "name": "_amount",
          "type": "uint256"
        }
      ],
      "name": "withdraw",
      "outputs": [],
      "stateMutability": "nonpayable",
      "type": "function"
    },
    {
      "inputs": [],
      "name": "withdrawAll",
      "outputs": [],
      "stateMutability": "nonpayable",
      "type": "function"
    }
  ],
  "transactionHash": "0x03a8cc020af4d2e0776bcc03502f93ed91f02cd0d360297b4ac6df630d6875c8",
  "args": [
    {
      "platformAddress": "0x0000000000000000000000000000000000000001",
      "vaultAddress": "0xE75D77B1865Ae93c7eaa3040B038D7aA7BC02F70"
    }
  ],
  "numDeployments": 1,
  "solcInputHash": "11207d24c21a3c709e67acc28c6491d2",
  "bytecode": "0x60c06040523480156200001157600080fd5b5060405162002534380380620025348339810160408190526200003491620000dd565b80806200004e336000805160206200251483398151915255565b60008051602062002514833981519152546040516001600160a01b03909116906000907fc7c0c772add429241571afb3805861fb3cfa2af374534088b76cdb4325a87e9a908290a380516001600160601b0319606091821b8116608052602090920151901b1660a052506200014b9050565b80516001600160a01b0381168114620000d857600080fd5b919050565b600060408284031215620000f057600080fd5b604080519081016001600160401b03811182821017156200012157634e487b7160e01b600052604160045260246000fd5b6040526200012f83620000c0565b81526200013f60208401620000c0565b60208201529392505050565b60805160601c60a05160601c61237a6200019a60003960008181610221015281816105a9015281816107280152818161099101528181610f1801526111bc01526000610372015261237a6000f3fe608060405234801561001057600080fd5b506004361061018e5760003560e01c8063853828b6116100de578063c7af335211610097578063dbe55e5611610071578063dbe55e561461036d578063de5f626814610394578063f6ca71b01461039c578063f817bc63146103b157600080fd5b8063c7af33521461033f578063d38bfff414610347578063d9caed121461035a57600080fd5b8063853828b6146102b85780639136616a146102c057806396d538bb146102d3578063aa388af6146102e6578063ad1728cb14610324578063c2e1e3f41461032c57600080fd5b8063435356d11161014b5780635d36b190116101255780635d36b190146102695780635f5152261461027157806367c7066c146102925780637b2d9b2c146102a557600080fd5b8063435356d11461024357806347e7ef24146102565780635a063f63146101cb57600080fd5b80630c340a24146101935780630ed57b3a146101b85780630fc3b4c4146101cd5780631072cbea146101f65780632e65520114610209578063430bf08a1461021c575b600080fd5b61019b6103ba565b6040516001600160a01b0390911681526020015b60405180910390f35b6101cb6101c6366004611e8e565b6103d7565b005b61019b6101db366004611e73565b6035602052600090815260409020546001600160a01b031681565b6101cb610204366004611efd565b610412565b60375461019b906001600160a01b031681565b61019b7f000000000000000000000000000000000000000000000000000000000000000081565b6101cb610251366004611f69565b610452565b6101cb610264366004611efd565b61059e565b6101cb610631565b61028461027f366004611e73565b6106d5565b6040519081526020016101af565b60395461019b906001600160a01b031681565b61019b6102b3366004612025565b6106f3565b6101cb61071d565b6101cb6102ce366004612025565b610a44565b6101cb6102e1366004611f27565b610c0f565b6103146102f4366004611e73565b6001600160a01b0390811660009081526035602052604090205416151590565b60405190151581526020016101af565b6101cb610d35565b6101cb61033a366004611e73565b610db9565b610314610e38565b6101cb610355366004611e73565b610e69565b6101cb610368366004611ec1565b610f0d565b61019b7f000000000000000000000000000000000000000000000000000000000000000081565b6101cb6111b1565b6103a46112fd565b6040516101af9190612073565b61028460385481565b60006103d26000805160206123258339815191525490565b905090565b6103df610e38565b6104045760405162461bcd60e51b81526004016103fb906121c0565b60405180910390fd5b61040e828261135f565b5050565b61041a610e38565b6104365760405162461bcd60e51b81526004016103fb906121c0565b61040e6104416103ba565b6001600160a01b03841690836114c4565b61045a610e38565b6104765760405162461bcd60e51b81526004016103fb906121c0565b600054610100900460ff168061048f575060005460ff16155b6104f25760405162461bcd60e51b815260206004820152602e60248201527f496e697469616c697a61626c653a20636f6e747261637420697320616c72656160448201526d191e481a5b9a5d1a585b1a5e995960921b60648201526084016103fb565b600054610100900460ff16158015610514576000805461ffff19166101011790555b610583878787878080602002602001604051908101604052809392919081815260200183836020028082843760009201919091525050604080516020808b0282810182019093528a82529093508a92508991829185019084908082843760009201919091525061152792505050565b8015610595576000805461ff00191690555b50505050505050565b336001600160a01b037f000000000000000000000000000000000000000000000000000000000000000016146105e65760405162461bcd60e51b81526004016103fb90612189565b600080516020612305833981519152805460028114156106185760405162461bcd60e51b81526004016103fb906121f7565b6002825561062684846115de565b50600190555050565b565b7f44c4d30b2eaad5130ad70c3ba6972730566f3e6359ab83e800d905c61b1c51db546001600160a01b0316336001600160a01b0316146106cc5760405162461bcd60e51b815260206004820152603060248201527f4f6e6c79207468652070656e64696e6720476f7665726e6f722063616e20636f60448201526f6d706c6574652074686520636c61696d60801b60648201526084016103fb565b61062f33611738565b6000806106e1836117fc565b90506106ec81611864565b9392505050565b603a818154811061070357600080fd5b6000918252602090912001546001600160a01b0316905081565b336001600160a01b037f000000000000000000000000000000000000000000000000000000000000000016148061076c57506107576103ba565b6001600160a01b0316336001600160a01b0316145b6107c45760405162461bcd60e51b815260206004820152602360248201527f43616c6c6572206973206e6f7420746865205661756c74206f7220476f7665726044820152623737b960e91b60648201526084016103fb565b600080516020612305833981519152805460028114156107f65760405162461bcd60e51b81526004016103fb906121f7565b6002825560365460005b81811015610a3a5760006036828154811061081d5761081d6122ee565b60009182526020822001546001600160a01b0316915061083c826117fc565b6040516370a0823160e01b81523060048201529091506000906001600160a01b038316906370a082319060240160206040518083038186803b15801561088157600080fd5b505afa158015610895573d6000803e3d6000fd5b505050506040513d601f19601f820116820180604052508101906108b9919061203e565b90508015610a265760405163db006a7560e01b8152600481018290526001600160a01b0383169063db006a7590602401602060405180830381600087803b15801561090357600080fd5b505af1158015610917573d6000803e3d6000fd5b505050506040513d601f19601f8201168201806040525081019061093b919061203e565b156109785760405162461bcd60e51b815260206004820152600d60248201526c14995919595b4819985a5b1959609a1b60448201526064016103fb565b6040516370a0823160e01b8152306004820152610a26907f0000000000000000000000000000000000000000000000000000000000000000906001600160a01b038616906370a082319060240160206040518083038186803b1580156109dd57600080fd5b505afa1580156109f1573d6000803e3d6000fd5b505050506040513d601f19601f82011682018060405250810190610a15919061203e565b6001600160a01b03861691906114c4565b50505080610a33906122a7565b9050610800565b5050600182555050565b610a4c610e38565b610a685760405162461bcd60e51b81526004016103fb906121c0565b6036548110610aa95760405162461bcd60e51b815260206004820152600d60248201526c092dcecc2d8d2c840d2dcc8caf609b1b60448201526064016103fb565b600060368281548110610abe57610abe6122ee565b60009182526020808320909101546001600160a01b03908116808452603590925260409092205460365491935090911690610afb90600190612260565b831015610b7d5760368054610b1290600190612260565b81548110610b2257610b226122ee565b600091825260209091200154603680546001600160a01b039092169185908110610b4e57610b4e6122ee565b9060005260206000200160006101000a8154816001600160a01b0302191690836001600160a01b031602179055505b6036805480610b8e57610b8e6122d8565b60008281526020808220600019908401810180546001600160a01b031990811690915593019093556001600160a01b038581168083526035855260409283902080549094169093559051908416815290917f16b7600acff27e39a8a96056b3d533045298de927507f5c1d97e4accde60488c910160405180910390a2505050565b610c17610e38565b610c335760405162461bcd60e51b81526004016103fb906121c0565b60005b81811015610ce7576000838383818110610c5257610c526122ee565b9050602002016020810190610c679190611e73565b6001600160a01b03161415610cd55760405162461bcd60e51b815260206004820152602e60248201527f43616e206e6f742073657420616e20656d70747920616464726573732061732060448201526d30903932bbb0b932103a37b5b2b760911b60648201526084016103fb565b80610cdf816122a7565b915050610c36565b507f04c0b9649497d316554306e53678d5f5f5dbc3a06f97dec13ff4cfe98b986bbc603a8383604051610d1c939291906120c0565b60405180910390a1610d30603a8383611d93565b505050565b60365460005b8181101561040e57600060368281548110610d5857610d586122ee565b60009182526020808320909101546001600160a01b03908116808452603590925260408320549193501690610d90908390839061196b565b610da66001600160a01b0383168260001961196b565b505080610db2906122a7565b9050610d3b565b610dc1610e38565b610ddd5760405162461bcd60e51b81526004016103fb906121c0565b603980546001600160a01b0319166001600160a01b0383169081179091556040805182815260208101929092527fe48386b84419f4d36e0f96c10cc3510b6fb1a33795620c5098b22472bbe90796910160405180910390a150565b6000610e506000805160206123258339815191525490565b6001600160a01b0316336001600160a01b031614905090565b610e71610e38565b610e8d5760405162461bcd60e51b81526004016103fb906121c0565b610eb5817f44c4d30b2eaad5130ad70c3ba6972730566f3e6359ab83e800d905c61b1c51db55565b806001600160a01b0316610ed56000805160206123258339815191525490565b6001600160a01b03167fa39cc5eb22d0f34d8beaefee8a3f17cc229c1a1d1ef87a5ad47313487b1c4f0d60405160405180910390a350565b336001600160a01b037f00000000000000000000000000000000000000000000000000000000000000001614610f555760405162461bcd60e51b81526004016103fb90612189565b60008051602061230583398151915280546002811415610f875760405162461bcd60e51b81526004016103fb906121f7565b6002825560008311610fdb5760405162461bcd60e51b815260206004820152601760248201527f4d75737420776974686472617720736f6d657468696e6700000000000000000060448201526064016103fb565b6001600160a01b03851661102a5760405162461bcd60e51b8152602060048201526016602482015275135d5cdd081cdc1958da599e481c9958da5c1a595b9d60521b60448201526064016103fb565b6000611035856117fc565b905060006110438286611a8f565b90508061109357604080516001600160a01b0388168152602081018790527f2ca0d37ecfc1b8853f4bc276c69586250b3978c1d467c05d6c143966026724ec910160405180910390a150506111a7565b604080516001600160a01b038481168252602082018890528816917f2717ead6b9200dd235aad468c9809ea400fe33ac69b5bfaa6d3e90fc922b6398910160405180910390a260405163852a12e360e01b8152600481018690526001600160a01b0383169063852a12e390602401602060405180830381600087803b15801561111b57600080fd5b505af115801561112f573d6000803e3d6000fd5b505050506040513d601f19601f82011682018060405250810190611153919061203e565b156111905760405162461bcd60e51b815260206004820152600d60248201526c14995919595b4819985a5b1959609a1b60448201526064016103fb565b6111a46001600160a01b03871688876114c4565b50505b5060019055505050565b336001600160a01b037f000000000000000000000000000000000000000000000000000000000000000016146111f95760405162461bcd60e51b81526004016103fb90612189565b6000805160206123058339815191528054600281141561122b5760405162461bcd60e51b81526004016103fb906121f7565b6002825560365460005b81811015610a3a57600060368281548110611252576112526122ee565b60009182526020822001546040516370a0823160e01b81523060048201526001600160a01b03909116925082906370a082319060240160206040518083038186803b1580156112a057600080fd5b505afa1580156112b4573d6000803e3d6000fd5b505050506040513d601f19601f820116820180604052508101906112d8919061203e565b905080156112ea576112ea82826115de565b5050806112f6906122a7565b9050611235565b6060603a80548060200260200160405190810160405280929190818152602001828054801561135557602002820191906000526020600020905b81546001600160a01b03168152600190910190602001808311611337575b5050505050905090565b6001600160a01b0382811660009081526035602052604090205416156113bc5760405162461bcd60e51b81526020600482015260126024820152711c151bdad95b88185b1c9958591e481cd95d60721b60448201526064016103fb565b6001600160a01b038216158015906113dc57506001600160a01b03811615155b61141c5760405162461bcd60e51b8152602060048201526011602482015270496e76616c69642061646472657373657360781b60448201526064016103fb565b6001600160a01b03828116600081815260356020908152604080832080549587166001600160a01b031996871681179091556036805460018101825594527f4a11f94e20a93c79f6ec743a1954ec4fc2c08429ae2122118bf234b2185c81b890930180549095168417909455925190815290917fef6485b84315f9b1483beffa32aae9a0596890395e3d7521f1c5fbb51790e765910160405180910390a261040e8282611b1e565b6040516001600160a01b038316602482015260448101829052610d3090849063a9059cbb60e01b906064015b60408051601f198184030181529190526020810180516001600160e01b03166001600160e01b031990931692909217909152611b49565b611533603a8585611d93565b5081518151811461157d5760405162461bcd60e51b8152602060048201526014602482015273496e76616c696420696e7075742061727261797360601b60448201526064016103fb565b60005b818110156115d6576115c484828151811061159d5761159d6122ee565b60200260200101518483815181106115b7576115b76122ee565b602002602001015161135f565b806115ce816122a7565b915050611580565b505050505050565b600081116116275760405162461bcd60e51b81526020600482015260166024820152754d757374206465706f73697420736f6d657468696e6760501b60448201526064016103fb565b6000611632836117fc565b604080516001600160a01b03808416825260208201869052929350918516917f5548c837ab068cf56a2c2479df0882a4922fd203edb7517321831d95078c5f62910160405180910390a260405163140e25ad60e31b8152600481018390526001600160a01b0382169063a0712d6890602401602060405180830381600087803b1580156116be57600080fd5b505af11580156116d2573d6000803e3d6000fd5b505050506040513d601f19601f820116820180604052508101906116f6919061203e565b15610d305760405162461bcd60e51b815260206004820152601260248201527118d51bdad95b881b5a5b9d0819985a5b195960721b60448201526064016103fb565b6001600160a01b03811661178e5760405162461bcd60e51b815260206004820152601a60248201527f4e657720476f7665726e6f72206973206164647265737328302900000000000060448201526064016103fb565b806001600160a01b03166117ae6000805160206123258339815191525490565b6001600160a01b03167fc7c0c772add429241571afb3805861fb3cfa2af374534088b76cdb4325a87e9a60405160405180910390a36117f98160008051602061232583398151915255565b50565b6001600160a01b038082166000908152603560205260408120549091168061185e5760405162461bcd60e51b815260206004820152601560248201527418d51bdad95b88191bd95cc81b9bdd08195e1a5cdd605a1b60448201526064016103fb565b92915050565b6000670de0b6b3a7640000826001600160a01b031663182df0f56040518163ffffffff1660e01b815260040160206040518083038186803b1580156118a857600080fd5b505afa1580156118bc573d6000803e3d6000fd5b505050506040513d601f19601f820116820180604052508101906118e0919061203e565b6040516370a0823160e01b81523060048201526001600160a01b038516906370a082319060240160206040518083038186803b15801561191f57600080fd5b505afa158015611933573d6000803e3d6000fd5b505050506040513d601f19601f82011682018060405250810190611957919061203e565b6119619190612241565b61185e919061221f565b8015806119f45750604051636eb1769f60e11b81523060048201526001600160a01b03838116602483015284169063dd62ed3e9060440160206040518083038186803b1580156119ba57600080fd5b505afa1580156119ce573d6000803e3d6000fd5b505050506040513d601f19601f820116820180604052508101906119f2919061203e565b155b611a5f5760405162461bcd60e51b815260206004820152603660248201527f5361666545524332303a20617070726f76652066726f6d206e6f6e2d7a65726f60448201527520746f206e6f6e2d7a65726f20616c6c6f77616e636560501b60648201526084016103fb565b6040516001600160a01b038316602482015260448101829052610d3090849063095ea7b360e01b906064016114f0565b6000826001600160a01b031663182df0f56040518163ffffffff1660e01b815260040160206040518083038186803b158015611aca57600080fd5b505afa158015611ade573d6000803e3d6000fd5b505050506040513d601f19601f82011682018060405250810190611b02919061203e565b611b1483670de0b6b3a7640000612241565b6106ec919061221f565b611b336001600160a01b03831682600061196b565b61040e6001600160a01b0383168260001961196b565b6000611b9e826040518060400160405280602081526020017f5361666545524332303a206c6f772d6c6576656c2063616c6c206661696c6564815250856001600160a01b0316611c1b9092919063ffffffff16565b805190915015610d305780806020019051810190611bbc9190612003565b610d305760405162461bcd60e51b815260206004820152602a60248201527f5361666545524332303a204552433230206f7065726174696f6e20646964206e6044820152691bdd081cdd58d8d9595960b21b60648201526084016103fb565b6060611c2a8484600085611c32565b949350505050565b606082471015611c935760405162461bcd60e51b815260206004820152602660248201527f416464726573733a20696e73756666696369656e742062616c616e636520666f6044820152651c8818d85b1b60d21b60648201526084016103fb565b843b611ce15760405162461bcd60e51b815260206004820152601d60248201527f416464726573733a2063616c6c20746f206e6f6e2d636f6e747261637400000060448201526064016103fb565b600080866001600160a01b03168587604051611cfd9190612057565b60006040518083038185875af1925050503d8060008114611d3a576040519150601f19603f3d011682016040523d82523d6000602084013e611d3f565b606091505b5091509150611d4f828286611d5a565b979650505050505050565b60608315611d695750816106ec565b825115611d795782518084602001fd5b8160405162461bcd60e51b81526004016103fb9190612156565b828054828255906000526020600020908101928215611de6579160200282015b82811115611de65781546001600160a01b0319166001600160a01b03843516178255602090920191600190910190611db3565b50611df2929150611df6565b5090565b5b80821115611df25760008155600101611df7565b80356001600160a01b0381168114611e2257600080fd5b919050565b60008083601f840112611e3957600080fd5b50813567ffffffffffffffff811115611e5157600080fd5b6020830191508360208260051b8501011115611e6c57600080fd5b9250929050565b600060208284031215611e8557600080fd5b6106ec82611e0b565b60008060408385031215611ea157600080fd5b611eaa83611e0b565b9150611eb860208401611e0b565b90509250929050565b600080600060608486031215611ed657600080fd5b611edf84611e0b565b9250611eed60208501611e0b565b9150604084013590509250925092565b60008060408385031215611f1057600080fd5b611f1983611e0b565b946020939093013593505050565b60008060208385031215611f3a57600080fd5b823567ffffffffffffffff811115611f5157600080fd5b611f5d85828601611e27565b90969095509350505050565b60008060008060008060608789031215611f8257600080fd5b863567ffffffffffffffff80821115611f9a57600080fd5b611fa68a838b01611e27565b90985096506020890135915080821115611fbf57600080fd5b611fcb8a838b01611e27565b90965094506040890135915080821115611fe457600080fd5b50611ff189828a01611e27565b979a9699509497509295939492505050565b60006020828403121561201557600080fd5b815180151581146106ec57600080fd5b60006020828403121561203757600080fd5b5035919050565b60006020828403121561205057600080fd5b5051919050565b60008251612069818460208701612277565b9190910192915050565b6020808252825182820181905260009190848201906040850190845b818110156120b45783516001600160a01b03168352928401929184019160010161208f565b50909695505050505050565b6000604082016040835280865480835260608501915087600052602092508260002060005b8281101561210a5781546001600160a01b0316845292840192600191820191016120e5565b505050838103828501528481528590820160005b8681101561214a576001600160a01b0361213784611e0b565b168252918301919083019060010161211e565b50979650505050505050565b6020815260008251806020840152612175816040850160208701612277565b601f01601f19169190910160400192915050565b60208082526017908201527f43616c6c6572206973206e6f7420746865205661756c74000000000000000000604082015260600190565b6020808252601a908201527f43616c6c6572206973206e6f742074686520476f7665726e6f72000000000000604082015260600190565b6020808252600e908201526d1499595b9d1c985b9d0818d85b1b60921b604082015260600190565b60008261223c57634e487b7160e01b600052601260045260246000fd5b500490565b600081600019048311821515161561225b5761225b6122c2565b500290565b600082821015612272576122726122c2565b500390565b60005b8381101561229257818101518382015260200161227a565b838111156122a1576000848401525b50505050565b60006000198214156122bb576122bb6122c2565b5060010190565b634e487b7160e01b600052601160045260246000fd5b634e487b7160e01b600052603160045260246000fd5b634e487b7160e01b600052603260045260246000fdfe53bf423e48ed90e97d02ab0ebab13b2a235a6bfbe9c321847d5c175333ac45357bea13895fa79d2831e0a9e28edede30099005a50d652d8957cf8a607ee6ca4aa264697066735822122087ac57e90853259c25423fdd9aabce5c11d610b8b7552e8559497d421dc30cce64736f6c634300080700337bea13895fa79d2831e0a9e28edede30099005a50d652d8957cf8a607ee6ca4a",
  "devdoc": {
    "kind": "dev",
    "methods": {
      "checkBalance(address)": {
        "params": {
          "_asset": "Address of the asset"
        },
        "returns": {
          "balance": "   Total value of the asset in the platform"
        }
      },
      "deposit(address,uint256)": {
        "params": {
          "_amount": "Amount of assets to deposit",
          "_asset": "Address of asset to deposit"
        }
      },
      "getRewardTokenAddresses()": {
        "details": "Get the reward token addresses.",
        "returns": {
          "_0": "address[] the reward token addresses."
        }
      },
      "initialize(address[],address[],address[])": {
        "params": {
          "_assets": "Addresses of initial supported assets",
          "_pTokens": "Platform Token corresponding addresses",
          "_rewardTokenAddresses": "Address of reward token for platform"
        }
      },
      "removePToken(uint256)": {
        "details": "Remove a supported asset by passing its index.      This method can only be called by the system Governor",
        "params": {
          "_assetIndex": "Index of the asset to be removed"
        }
      },
      "setHarvesterAddress(address)": {
        "details": "Set the reward token addresses.",
        "params": {
          "_harvesterAddress": "Address of the harvester"
        }
      },
      "setPTokenAddress(address,address)": {
        "details": "Provide support for asset by passing its pToken address.      This method can only be called by the system Governor",
        "params": {
          "_asset": "Address for the asset",
          "_pToken": "Address for the corresponding platform token"
        }
      },
      "setRewardTokenAddresses(address[])": {
        "details": "Set the reward token addresses.",
        "params": {
          "_rewardTokenAddresses": "Address array of the reward token"
        }
      },
      "supportsAsset(address)": {
        "details": "Retuns bool indicating whether asset is supported by strategy",
        "params": {
          "_asset": "Address of the asset"
        }
      },
      "transferGovernance(address)": {
        "params": {
          "_newGovernor": "Address of the new Governor"
        }
      },
      "transferToken(address,uint256)": {
        "details": "Transfer token to governor. Intended for recovering tokens stuck in      strategy contracts, i.e. mistaken sends.",
        "params": {
          "_amount": "Amount of the asset to transfer",
          "_asset": "Address for the asset"
        }
      },
      "withdraw(address,address,uint256)": {
        "params": {
          "_amount": "Amount of assets to withdraw",
          "_asset": "Address of the asset to withdraw",
          "_recipient": "Address to receive withdrawn assets"
        }
      }
    },
    "version": 1
  },
  "userdoc": {
    "kind": "user",
    "methods": {
      "checkBalance(address)": {
        "notice": "Get the total asset value held in the underlying platform      This includes any interest that was generated since depositing.      The exchange rate between the cToken and asset gradually increases,      causing the cToken to be worth more corresponding asset."
      },
      "claimGovernance()": {
        "notice": "Claim Governance of the contract to a new account (`newGovernor`). Can only be called by the new Governor."
      },
      "collectRewardTokens()": {
        "notice": "Collect accumulated COMP and send to Harvester."
      },
      "deposit(address,uint256)": {
        "notice": "Deposit asset into the underlying platform"
      },
      "depositAll()": {
        "notice": "Deposit the entire balance of any supported asset in the strategy into the underlying platform"
      },
      "governor()": {
        "notice": "Returns the address of the current Governor."
      },
      "initialize(address[],address[],address[])": {
        "notice": "Internal initialize function, to set up initial internal state"
      },
      "isGovernor()": {
        "notice": "Returns true if the caller is the current Governor."
      },
      "platformAddress()": {
        "notice": "Address of the underlying platform"
      },
      "safeApproveAllTokens()": {
        "notice": "Approve the spending of all assets by their corresponding cToken,      if for some reason is it necessary."
      },
      "transferGovernance(address)": {
        "notice": "Transfers Governance of the contract to a new account (`newGovernor`). Can only be called by the current Governor. Must be claimed for this to complete"
      },
      "vaultAddress()": {
        "notice": "Address of the OToken vault"
      },
      "withdraw(address,address,uint256)": {
        "notice": "Withdraw an asset from the underlying platform"
      },
      "withdrawAll()": {
        "notice": "Remove all supported assets from the underlying platform and send them to Vault contract."
      }
    },
    "version": 1
  },
  "storageLayout": {
    "storage": [
      {
        "astId": 5212,
        "contract": "contracts/strategies/FluxStrategy.sol:FluxStrategy",
        "label": "initialized",
        "offset": 0,
        "slot": "0",
        "type": "t_bool"
      },
      {
        "astId": 5215,
        "contract": "contracts/strategies/FluxStrategy.sol:FluxStrategy",
        "label": "initializing",
        "offset": 1,
        "slot": "0",
        "type": "t_bool"
      },
      {
        "astId": 5255,
        "contract": "contracts/strategies/FluxStrategy.sol:FluxStrategy",
        "label": "______gap",
        "offset": 0,
        "slot": "1",
        "type": "t_array(t_uint256)50_storage"
      },
      {
        "astId": 5335,
        "contract": "contracts/strategies/FluxStrategy.sol:FluxStrategy",
        "label": "_deprecated_platformAddress",
        "offset": 0,
        "slot": "51",
        "type": "t_address"
      },
      {
        "astId": 5338,
        "contract": "contracts/strategies/FluxStrategy.sol:FluxStrategy",
        "label": "_deprecated_vaultAddress",
        "offset": 0,
        "slot": "52",
        "type": "t_address"
      },
      {
        "astId": 5342,
        "contract": "contracts/strategies/FluxStrategy.sol:FluxStrategy",
        "label": "assetToPToken",
        "offset": 0,
        "slot": "53",
        "type": "t_mapping(t_address,t_address)"
      },
      {
        "astId": 5345,
        "contract": "contracts/strategies/FluxStrategy.sol:FluxStrategy",
        "label": "assetsMapped",
        "offset": 0,
        "slot": "54",
        "type": "t_array(t_address)dyn_storage"
      },
      {
        "astId": 5347,
        "contract": "contracts/strategies/FluxStrategy.sol:FluxStrategy",
        "label": "_deprecated_rewardTokenAddress",
        "offset": 0,
        "slot": "55",
        "type": "t_address"
      },
      {
        "astId": 5349,
        "contract": "contracts/strategies/FluxStrategy.sol:FluxStrategy",
        "label": "_deprecated_rewardLiquidationThreshold",
        "offset": 0,
        "slot": "56",
        "type": "t_uint256"
      },
      {
        "astId": 5351,
        "contract": "contracts/strategies/FluxStrategy.sol:FluxStrategy",
        "label": "harvesterAddress",
        "offset": 0,
        "slot": "57",
        "type": "t_address"
      },
      {
        "astId": 5354,
        "contract": "contracts/strategies/FluxStrategy.sol:FluxStrategy",
        "label": "rewardTokenAddresses",
        "offset": 0,
        "slot": "58",
        "type": "t_array(t_address)dyn_storage"
      },
      {
        "astId": 5358,
        "contract": "contracts/strategies/FluxStrategy.sol:FluxStrategy",
        "label": "_reserved",
        "offset": 0,
        "slot": "59",
        "type": "t_array(t_int256)98_storage"
      },
      {
        "astId": 2640,
        "contract": "contracts/strategies/FluxStrategy.sol:FluxStrategy",
        "label": "__reserved",
        "offset": 0,
        "slot": "157",
        "type": "t_array(t_int256)50_storage"
      }
    ],
    "types": {
      "t_address": {
        "encoding": "inplace",
        "label": "address",
        "numberOfBytes": "20"
      },
      "t_array(t_address)dyn_storage": {
        "base": "t_address",
        "encoding": "dynamic_array",
        "label": "address[]",
        "numberOfBytes": "32"
      },
      "t_array(t_int256)50_storage": {
        "base": "t_int256",
        "encoding": "inplace",
        "label": "int256[50]",
        "numberOfBytes": "1600"
      },
      "t_array(t_int256)98_storage": {
        "base": "t_int256",
        "encoding": "inplace",
        "label": "int256[98]",
        "numberOfBytes": "3136"
      },
      "t_array(t_uint256)50_storage": {
        "base": "t_uint256",
        "encoding": "inplace",
        "label": "uint256[50]",
        "numberOfBytes": "1600"
      },
      "t_bool": {
        "encoding": "inplace",
        "label": "bool",
        "numberOfBytes": "1"
      },
      "t_int256": {
        "encoding": "inplace",
        "label": "int256",
        "numberOfBytes": "32"
      },
      "t_mapping(t_address,t_address)": {
        "encoding": "mapping",
        "key": "t_address",
        "label": "mapping(address => address)",
        "numberOfBytes": "32",
        "value": "t_address"
      },
      "t_uint256": {
        "encoding": "inplace",
        "label": "uint256",
        "numberOfBytes": "32"
      }
    }
  }
}