{
  "address": "0x5061CDe874f75D119dE3B07E191644097343AB9E",
  "abi": [
    {
      "anonymous": false,
      "inputs": [
        {
          "indexed": true,
          "internalType": "address",
          "name": "_asset",
          "type": "address"
        },
        {
          "indexed": false,
          "internalType": "address",
          "name": "_pToken",
          "type": "address"
        },
        {
          "indexed": false,
          "internalType": "uint256",
          "name": "_amount",
          "type": "uint256"
        }
      ],
      "name": "Deposit",
      "type": "event"
    },
    {
      "anonymous": false,
      "inputs": [
        {
          "indexed": true,
          "internalType": "address",
          "name": "previousGovernor",
          "type": "address"
        },
        {
          "indexed": true,
          "internalType": "address",
          "name": "newGovernor",
          "type": "address"
        }
      ],
      "name": "GovernorshipTransferred",
      "type": "event"
    },
    {
      "anonymous": false,
      "inputs": [
        {
          "indexed": false,
          "internalType": "address",
          "name": "_oldHarvesterAddress",
          "type": "address"
        },
        {
          "indexed": false,
          "internalType": "address",
          "name": "_newHarvesterAddress",
          "type": "address"
        }
      ],
      "name": "HarvesterAddressesUpdated",
      "type": "event"
    },
    {
      "anonymous": false,
      "inputs": [
        {
          "indexed": true,
          "internalType": "address",
          "name": "_asset",
          "type": "address"
        },
        {
          "indexed": false,
          "internalType": "address",
          "name": "_pToken",
          "type": "address"
        }
      ],
      "name": "PTokenAdded",
      "type": "event"
    },
    {
      "anonymous": false,
      "inputs": [
        {
          "indexed": true,
          "internalType": "address",
          "name": "_asset",
          "type": "address"
        },
        {
          "indexed": false,
          "internalType": "address",
          "name": "_pToken",
          "type": "address"
        }
      ],
      "name": "PTokenRemoved",
      "type": "event"
    },
    {
      "anonymous": false,
      "inputs": [
        {
          "indexed": true,
          "internalType": "address",
          "name": "previousGovernor",
          "type": "address"
        },
        {
          "indexed": true,
          "internalType": "address",
          "name": "newGovernor",
          "type": "address"
        }
      ],
      "name": "PendingGovernorshipTransfer",
      "type": "event"
    },
    {
      "anonymous": false,
      "inputs": [
        {
          "indexed": false,
          "internalType": "address[]",
          "name": "_oldAddresses",
          "type": "address[]"
        },
        {
          "indexed": false,
          "internalType": "address[]",
          "name": "_newAddresses",
          "type": "address[]"
        }
      ],
      "name": "RewardTokenAddressesUpdated",
      "type": "event"
    },
    {
      "anonymous": false,
      "inputs": [
        {
          "indexed": false,
          "internalType": "address",
          "name": "recipient",
          "type": "address"
        },
        {
          "indexed": false,
          "internalType": "address",
          "name": "rewardToken",
          "type": "address"
        },
        {
          "indexed": false,
          "internalType": "uint256",
          "name": "amount",
          "type": "uint256"
        }
      ],
      "name": "RewardTokenCollected",
      "type": "event"
    },
    {
      "anonymous": false,
      "inputs": [
        {
          "indexed": true,
          "internalType": "address",
          "name": "_asset",
          "type": "address"
        },
        {
          "indexed": false,
          "internalType": "address",
          "name": "_pToken",
          "type": "address"
        },
        {
          "indexed": false,
          "internalType": "uint256",
          "name": "_amount",
          "type": "uint256"
        }
      ],
      "name": "Withdrawal",
      "type": "event"
    },
    {
      "inputs": [],
      "name": "_deprecated_rewardLiquidationThreshold",
      "outputs": [
        {
          "internalType": "uint256",
          "name": "",
          "type": "uint256"
        }
      ],
      "stateMutability": "view",
      "type": "function"
    },
    {
      "inputs": [],
      "name": "_deprecated_rewardTokenAddress",
      "outputs": [
        {
          "internalType": "address",
          "name": "",
          "type": "address"
        }
      ],
      "stateMutability": "view",
      "type": "function"
    },
    {
      "inputs": [
        {
          "internalType": "address",
          "name": "",
          "type": "address"
        }
      ],
      "name": "assetToPToken",
      "outputs": [
        {
          "internalType": "address",
          "name": "",
          "type": "address"
        }
      ],
      "stateMutability": "view",
      "type": "function"
    },
    {
      "inputs": [
        {
          "internalType": "address",
          "name": "_asset",
          "type": "address"
        }
      ],
      "name": "checkBalance",
      "outputs": [
        {
          "internalType": "uint256",
          "name": "balance",
          "type": "uint256"
        }
      ],
      "stateMutability": "view",
      "type": "function"
    },
    {
      "inputs": [],
      "name": "claimGovernance",
      "outputs": [],
      "stateMutability": "nonpayable",
      "type": "function"
    },
    {
      "inputs": [],
      "name": "collectRewardTokens",
      "outputs": [],
      "stateMutability": "nonpayable",
      "type": "function"
    },
    {
      "inputs": [
        {
          "internalType": "address",
          "name": "_asset",
          "type": "address"
        },
        {
          "internalType": "uint256",
          "name": "_amount",
          "type": "uint256"
        }
      ],
      "name": "deposit",
      "outputs": [],
      "stateMutability": "nonpayable",
      "type": "function"
    },
    {
      "inputs": [],
      "name": "depositAll",
      "outputs": [],
      "stateMutability": "nonpayable",
      "type": "function"
    },
    {
      "inputs": [],
      "name": "fraxETHMinter",
      "outputs": [
        {
          "internalType": "contract IFraxETHMinter",
          "name": "",
          "type": "address"
        }
      ],
      "stateMutability": "view",
      "type": "function"
    },
    {
      "inputs": [],
      "name": "getRewardTokenAddresses",
      "outputs": [
        {
          "internalType": "address[]",
          "name": "",
          "type": "address[]"
        }
      ],
      "stateMutability": "view",
      "type": "function"
    },
    {
      "inputs": [],
      "name": "governor",
      "outputs": [
        {
          "internalType": "address",
          "name": "",
          "type": "address"
        }
      ],
      "stateMutability": "view",
      "type": "function"
    },
    {
      "inputs": [],
      "name": "harvesterAddress",
      "outputs": [
        {
          "internalType": "address",
          "name": "",
          "type": "address"
        }
      ],
      "stateMutability": "view",
      "type": "function"
    },
    {
      "inputs": [
        {
          "internalType": "address",
          "name": "_platformAddress",
          "type": "address"
        },
        {
          "internalType": "address",
          "name": "_vaultAddress",
          "type": "address"
        },
        {
          "internalType": "address[]",
          "name": "_rewardTokenAddresses",
          "type": "address[]"
        },
        {
          "internalType": "address[]",
          "name": "_assets",
          "type": "address[]"
        },
        {
          "internalType": "address[]",
          "name": "_pTokens",
          "type": "address[]"
        }
      ],
      "name": "initialize",
      "outputs": [],
      "stateMutability": "nonpayable",
      "type": "function"
    },
    {
      "inputs": [],
      "name": "isGovernor",
      "outputs": [
        {
          "internalType": "bool",
          "name": "",
          "type": "bool"
        }
      ],
      "stateMutability": "view",
      "type": "function"
    },
    {
      "inputs": [],
      "name": "platformAddress",
      "outputs": [
        {
          "internalType": "address",
          "name": "",
          "type": "address"
        }
      ],
      "stateMutability": "view",
      "type": "function"
    },
    {
      "inputs": [
        {
          "internalType": "uint256",
          "name": "_assetIndex",
          "type": "uint256"
        }
      ],
      "name": "removePToken",
      "outputs": [],
      "stateMutability": "nonpayable",
      "type": "function"
    },
    {
      "inputs": [
        {
          "internalType": "uint256",
          "name": "",
          "type": "uint256"
        }
      ],
      "name": "rewardTokenAddresses",
      "outputs": [
        {
          "internalType": "address",
          "name": "",
          "type": "address"
        }
      ],
      "stateMutability": "view",
      "type": "function"
    },
    {
      "inputs": [],
      "name": "safeApproveAllTokens",
      "outputs": [],
      "stateMutability": "nonpayable",
      "type": "function"
    },
    {
      "inputs": [
        {
          "internalType": "address",
          "name": "_harvesterAddress",
          "type": "address"
        }
      ],
      "name": "setHarvesterAddress",
      "outputs": [],
      "stateMutability": "nonpayable",
      "type": "function"
    },
    {
      "inputs": [
        {
          "internalType": "address",
          "name": "_asset",
          "type": "address"
        },
        {
          "internalType": "address",
          "name": "_pToken",
          "type": "address"
        }
      ],
      "name": "setPTokenAddress",
      "outputs": [],
      "stateMutability": "nonpayable",
      "type": "function"
    },
    {
      "inputs": [
        {
          "internalType": "address[]",
          "name": "_rewardTokenAddresses",
          "type": "address[]"
        }
      ],
      "name": "setRewardTokenAddresses",
      "outputs": [],
      "stateMutability": "nonpayable",
      "type": "function"
    },
    {
      "inputs": [
        {
          "internalType": "address",
          "name": "_asset",
          "type": "address"
        }
      ],
      "name": "supportsAsset",
      "outputs": [
        {
          "internalType": "bool",
          "name": "",
          "type": "bool"
        }
      ],
      "stateMutability": "view",
      "type": "function"
    },
    {
      "inputs": [
        {
          "internalType": "address",
          "name": "_newGovernor",
          "type": "address"
        }
      ],
      "name": "transferGovernance",
      "outputs": [],
      "stateMutability": "nonpayable",
      "type": "function"
    },
    {
      "inputs": [
        {
          "internalType": "address",
          "name": "_asset",
          "type": "address"
        },
        {
          "internalType": "uint256",
          "name": "_amount",
          "type": "uint256"
        }
      ],
      "name": "transferToken",
      "outputs": [],
      "stateMutability": "nonpayable",
      "type": "function"
    },
    {
      "inputs": [],
      "name": "vaultAddress",
      "outputs": [
        {
          "internalType": "address",
          "name": "",
          "type": "address"
        }
      ],
      "stateMutability": "view",
      "type": "function"
    },
    {
      "inputs": [],
      "name": "weth",
      "outputs": [
        {
          "internalType": "address",
          "name": "",
          "type": "address"
        }
      ],
      "stateMutability": "view",
      "type": "function"
    },
    {
      "inputs": [
        {
          "internalType": "address",
          "name": "_recipient",
          "type": "address"
        },
        {
          "internalType": "address",
          "name": "_asset",
          "type": "address"
        },
        {
          "internalType": "uint256",
          "name": "_amount",
          "type": "uint256"
        }
      ],
      "name": "withdraw",
      "outputs": [],
      "stateMutability": "nonpayable",
      "type": "function"
    },
    {
      "inputs": [],
      "name": "withdrawAll",
      "outputs": [],
      "stateMutability": "nonpayable",
      "type": "function"
    },
    {
      "stateMutability": "payable",
      "type": "receive"
    }
  ],
  "transactionHash": "0xfe09752b5dfdf5b3447ccbd12c4fd9d763374699b604dfbc589046b3e8867eb4",
  "args": [],
  "numDeployments": 1,
  "solcInputHash": "eb3803f4b776f7e789c9524b3df6c6da",
  "bytecode": "0x608060405234801561001057600080fd5b506100273360008051602061267a83398151915255565b60008051602061267a833981519152546040516001600160a01b03909116906000907fc7c0c772add429241571afb3805861fb3cfa2af374534088b76cdb4325a87e9a908290a36125fd8061007d6000396000f3fe6080604052600436106101bb5760003560e01c8063853828b6116100ec578063c7af33521161008a578063dbe55e5611610064578063dbe55e56146104e8578063de5f626814610508578063f6ca71b01461051d578063f817bc631461053f57600080fd5b8063c7af335214610493578063d38bfff4146104a8578063d9caed12146104c857600080fd5b806396d538bb116100c657806396d538bb1461040e578063aa388af61461042e578063ad1728cb1461045e578063c2e1e3f41461047357600080fd5b8063853828b6146103b95780639136616a146103ce5780639688d2fc146103ee57600080fd5b8063430bf08a116101595780635d36b190116101335780635d36b190146103365780635f5152261461034b57806367c7066c146103795780637b2d9b2c1461039957600080fd5b8063430bf08a146102e157806347e7ef24146103015780635a063f631461032157600080fd5b80630fc3b4c4116101955780630fc3b4c4146102435780631072cbea146102795780632e655201146102995780633fc8cef3146102b957600080fd5b806305afe672146101c75780630c340a241461020c5780630ed57b3a1461022157600080fd5b366101c257005b600080fd5b3480156101d357600080fd5b506101ef73bafa44efe7901e04e39dad13167d089c559c113881565b6040516001600160a01b0390911681526020015b60405180910390f35b34801561021857600080fd5b506101ef610555565b34801561022d57600080fd5b5061024161023c3660046120fa565b610572565b005b34801561024f57600080fd5b506101ef61025e3660046120df565b6035602052600090815260409020546001600160a01b031681565b34801561028557600080fd5b50610241610294366004612224565b6105ad565b3480156102a557600080fd5b506037546101ef906001600160a01b031681565b3480156102c557600080fd5b506101ef73c02aaa39b223fe8d0a0e5c4f27ead9083c756cc281565b3480156102ed57600080fd5b506034546101ef906001600160a01b031681565b34801561030d57600080fd5b5061024161031c366004612224565b6105ed565b34801561032d57600080fd5b50610241610660565b34801561034257600080fd5b506102416106ff565b34801561035757600080fd5b5061036b6103663660046120df565b6107a5565b604051908152602001610203565b34801561038557600080fd5b506039546101ef906001600160a01b031681565b3480156103a557600080fd5b506101ef6103b43660046122b2565b610882565b3480156103c557600080fd5b506102416108ac565b3480156103da57600080fd5b506102416103e93660046122b2565b610ad4565b3480156103fa57600080fd5b5061024161040936600461212d565b610c9f565b34801561041a57600080fd5b5061024161042936600461224e565b610def565b34801561043a57600080fd5b5061044e6104493660046120df565b610f15565b6040519015158152602001610203565b34801561046a57600080fd5b50610241610f55565b34801561047f57600080fd5b5061024161048e3660046120df565b610f93565b34801561049f57600080fd5b5061044e611012565b3480156104b457600080fd5b506102416104c33660046120df565b611043565b3480156104d457600080fd5b506102416104e33660046121e8565b6110e7565b3480156104f457600080fd5b506033546101ef906001600160a01b031681565b34801561051457600080fd5b506102416112f4565b34801561052957600080fd5b506105326114a3565b6040516102039190612300565b34801561054b57600080fd5b5061036b60385481565b600061056d6000805160206125a88339815191525490565b905090565b61057a611012565b61059f5760405162461bcd60e51b81526004016105969061244d565b60405180910390fd5b6105a98282611505565b5050565b6105b5611012565b6105d15760405162461bcd60e51b81526004016105969061244d565b6105a96105dc610555565b6001600160a01b038416908361166a565b6034546001600160a01b031633146106175760405162461bcd60e51b815260040161059690612416565b600080516020612588833981519152805460028114156106495760405162461bcd60e51b8152600401610596906124bb565b6002825561065784846116cd565b50600190555050565b6039546001600160a01b031633146106ba5760405162461bcd60e51b815260206004820152601b60248201527f43616c6c6572206973206e6f74207468652048617276657374657200000000006044820152606401610596565b600080516020612588833981519152805460028114156106ec5760405162461bcd60e51b8152600401610596906124bb565b600282556106f861192c565b5060019055565b7f44c4d30b2eaad5130ad70c3ba6972730566f3e6359ab83e800d905c61b1c51db546001600160a01b0316336001600160a01b03161461079a5760405162461bcd60e51b815260206004820152603060248201527f4f6e6c79207468652070656e64696e6720476f7665726e6f722063616e20636f60448201526f6d706c6574652074686520636c61696d60801b6064820152608401610596565b6107a333611a87565b565b60006001600160a01b03821673c02aaa39b223fe8d0a0e5c4f27ead9083c756cc214156107d457506000919050565b609e546001600160a01b038381169116146108015760405162461bcd60e51b815260040161059690612484565b60335460405163ce96cb7760e01b81523060048201526001600160a01b039091169063ce96cb779060240160206040518083038186803b15801561084457600080fd5b505afa158015610858573d6000803e3d6000fd5b505050506040513d601f19601f8201168201806040525081019061087c91906122cb565b92915050565b603a818154811061089257600080fd5b6000918252602090912001546001600160a01b0316905081565b6034546001600160a01b03163314806108dd57506108c8610555565b6001600160a01b0316336001600160a01b0316145b6109355760405162461bcd60e51b815260206004820152602360248201527f43616c6c6572206973206e6f7420746865205661756c74206f7220476f7665726044820152623737b960e91b6064820152608401610596565b600080516020612588833981519152805460028114156109675760405162461bcd60e51b8152600401610596906124bb565b60028255609d546040516370a0823160e01b81523060048201526000916001600160a01b0316906370a082319060240160206040518083038186803b1580156109af57600080fd5b505afa1580156109c3573d6000803e3d6000fd5b505050506040513d601f19601f820116820180604052508101906109e791906122cb565b603354603454604051635d043b2960e11b8152600481018490526001600160a01b03918216602482015230604482015292935060009291169063ba08765290606401602060405180830381600087803b158015610a4357600080fd5b505af1158015610a57573d6000803e3d6000fd5b505050506040513d601f19601f82011682018060405250810190610a7b91906122cb565b609e54609d54604080516001600160a01b039283168152602081018590529394509116917f2717ead6b9200dd235aad468c9809ea400fe33ac69b5bfaa6d3e90fc922b6398910160405180910390a25050600182555050565b610adc611012565b610af85760405162461bcd60e51b81526004016105969061244d565b6036548110610b395760405162461bcd60e51b815260206004820152600d60248201526c092dcecc2d8d2c840d2dcc8caf609b1b6044820152606401610596565b600060368281548110610b4e57610b4e612571565b60009182526020808320909101546001600160a01b03908116808452603590925260409092205460365491935090911690610b8b906001906124e3565b831015610c0d5760368054610ba2906001906124e3565b81548110610bb257610bb2612571565b600091825260209091200154603680546001600160a01b039092169185908110610bde57610bde612571565b9060005260206000200160006101000a8154816001600160a01b0302191690836001600160a01b031602179055505b6036805480610c1e57610c1e61255b565b60008281526020808220600019908401810180546001600160a01b031990811690915593019093556001600160a01b038581168083526035855260409283902080549094169093559051908416815290917f16b7600acff27e39a8a96056b3d533045298de927507f5c1d97e4accde60488c910160405180910390a2505050565b610ca7611012565b610cc35760405162461bcd60e51b81526004016105969061244d565b600054610100900460ff1680610cdc575060005460ff16155b610d3f5760405162461bcd60e51b815260206004820152602e60248201527f496e697469616c697a61626c653a20636f6e747261637420697320616c72656160448201526d191e481a5b9a5d1a585b1a5e995960921b6064820152608401610596565b600054610100900460ff16158015610d61576000805461ffff19166101011790555b610dd28989898989898080602002602001604051908101604052809392919081815260200183836020028082843760009201919091525050604080516020808d0282810182019093528c82529093508c92508b918291850190849080828437600092019190915250611b4892505050565b8015610de4576000805461ff00191690555b505050505050505050565b610df7611012565b610e135760405162461bcd60e51b81526004016105969061244d565b60005b81811015610ec7576000838383818110610e3257610e32612571565b9050602002016020810190610e4791906120df565b6001600160a01b03161415610eb55760405162461bcd60e51b815260206004820152602e60248201527f43616e206e6f742073657420616e20656d70747920616464726573732061732060448201526d30903932bbb0b932103a37b5b2b760911b6064820152608401610596565b80610ebf8161252a565b915050610e16565b507f04c0b9649497d316554306e53678d5f5f5dbc3a06f97dec13ff4cfe98b986bbc603a8383604051610efc9392919061234d565b60405180910390a1610f10603a8383611fff565b505050565b609e546000906001600160a01b038381169116148061087c57506001600160a01b03821673c02aaa39b223fe8d0a0e5c4f27ead9083c756cc21492915050565b603354609e54610f74916001600160a01b039182169116600019611c31565b603354609d546107a3916001600160a01b039182169116600019611c31565b610f9b611012565b610fb75760405162461bcd60e51b81526004016105969061244d565b603980546001600160a01b0319166001600160a01b0383169081179091556040805182815260208101929092527fe48386b84419f4d36e0f96c10cc3510b6fb1a33795620c5098b22472bbe90796910160405180910390a150565b600061102a6000805160206125a88339815191525490565b6001600160a01b0316336001600160a01b031614905090565b61104b611012565b6110675760405162461bcd60e51b81526004016105969061244d565b61108f817f44c4d30b2eaad5130ad70c3ba6972730566f3e6359ab83e800d905c61b1c51db55565b806001600160a01b03166110af6000805160206125a88339815191525490565b6001600160a01b03167fa39cc5eb22d0f34d8beaefee8a3f17cc229c1a1d1ef87a5ad47313487b1c4f0d60405160405180910390a350565b6034546001600160a01b031633146111115760405162461bcd60e51b815260040161059690612416565b600080516020612588833981519152805460028114156111435760405162461bcd60e51b8152600401610596906124bb565b60028255600083116111975760405162461bcd60e51b815260206004820152601760248201527f4d75737420776974686472617720736f6d657468696e670000000000000000006044820152606401610596565b6001600160a01b0385166111e65760405162461bcd60e51b8152602060048201526016602482015275135d5cdd081cdc1958da599e481c9958da5c1a595b9d60521b6044820152606401610596565b609e546001600160a01b038581169116146112135760405162461bcd60e51b815260040161059690612484565b603354604051632d182be560e21b8152600481018590526001600160a01b0387811660248301523060448301529091169063b460af9490606401602060405180830381600087803b15801561126757600080fd5b505af115801561127b573d6000803e3d6000fd5b505050506040513d601f19601f8201168201806040525081019061129f91906122cb565b50609d54604080516001600160a01b03928316815260208101869052918616917f2717ead6b9200dd235aad468c9809ea400fe33ac69b5bfaa6d3e90fc922b6398910160405180910390a25060019055505050565b6034546001600160a01b0316331461131e5760405162461bcd60e51b815260040161059690612416565b600080516020612588833981519152805460028114156113505760405162461bcd60e51b8152600401610596906124bb565b60028255609e546040516370a0823160e01b81523060048201526000916001600160a01b0316906370a082319060240160206040518083038186803b15801561139857600080fd5b505afa1580156113ac573d6000803e3d6000fd5b505050506040513d601f19601f820116820180604052508101906113d091906122cb565b905080156113ee57609e546113ee906001600160a01b0316826116cd565b6040516370a0823160e01b815230600482015260009073c02aaa39b223fe8d0a0e5c4f27ead9083c756cc2906370a082319060240160206040518083038186803b15801561143b57600080fd5b505afa15801561144f573d6000803e3d6000fd5b505050506040513d601f19601f8201168201806040525081019061147391906122cb565b905080156114995761149973c02aaa39b223fe8d0a0e5c4f27ead9083c756cc2826116cd565b5050600182555050565b6060603a8054806020026020016040519081016040528092919081815260200182805480156114fb57602002820191906000526020600020905b81546001600160a01b031681526001909101906020018083116114dd575b5050505050905090565b6001600160a01b0382811660009081526035602052604090205416156115625760405162461bcd60e51b81526020600482015260126024820152711c151bdad95b88185b1c9958591e481cd95d60721b6044820152606401610596565b6001600160a01b0382161580159061158257506001600160a01b03811615155b6115c25760405162461bcd60e51b8152602060048201526011602482015270496e76616c69642061646472657373657360781b6044820152606401610596565b6001600160a01b03828116600081815260356020908152604080832080549587166001600160a01b031996871681179091556036805460018101825594527f4a11f94e20a93c79f6ec743a1954ec4fc2c08429ae2122118bf234b2185c81b890930180549095168417909455925190815290917fef6485b84315f9b1483beffa32aae9a0596890395e3d7521f1c5fbb51790e765910160405180910390a26105a98282611d55565b6040516001600160a01b038316602482015260448101829052610f1090849063a9059cbb60e01b906064015b60408051601f198184030181529190526020810180516001600160e01b03166001600160e01b031990931692909217909152611db3565b600081116117165760405162461bcd60e51b81526020600482015260166024820152754d757374206465706f73697420736f6d657468696e6760501b6044820152606401610596565b6001600160a01b03821673c02aaa39b223fe8d0a0e5c4f27ead9083c756cc2141561182c57604051632e1a7d4d60e01b81526004810182905273c02aaa39b223fe8d0a0e5c4f27ead9083c756cc290632e1a7d4d90602401600060405180830381600087803b15801561178857600080fd5b505af115801561179c573d6000803e3d6000fd5b5050604051634dcd454760e01b815230600482015273bafa44efe7901e04e39dad13167d089c559c11389250634dcd4547915083906024016020604051808303818588803b1580156117ed57600080fd5b505af1158015611801573d6000803e3d6000fd5b50505050506040513d601f19601f8201168201806040525081019061182691906122cb565b506118de565b609e546001600160a01b03838116911614156118c657603354604051636e553f6560e01b8152600481018390523060248201526001600160a01b0390911690636e553f6590604401602060405180830381600087803b15801561188e57600080fd5b505af11580156118a2573d6000803e3d6000fd5b505050506040513d601f19601f8201168201806040525081019061182691906122cb565b60405162461bcd60e51b815260040161059690612484565b609d54604080516001600160a01b03928316815260208101849052918416917f5548c837ab068cf56a2c2479df0882a4922fd203edb7517321831d95078c5f62910160405180910390a25050565b60005b603a54811015611a84576000603a828154811061194e5761194e612571565b60009182526020822001546040516370a0823160e01b81523060048201526001600160a01b03909116925082906370a082319060240160206040518083038186803b15801561199c57600080fd5b505afa1580156119b0573d6000803e3d6000fd5b505050506040513d601f19601f820116820180604052508101906119d491906122cb565b603954603a80549293507ff6c07a063ed4e63808eb8da7112d46dbcd38de2b40a73dbcc9353c5a94c72353926001600160a01b039092169186908110611a1c57611a1c612571565b60009182526020918290200154604080516001600160a01b0394851681529390911691830191909152810183905260600160405180910390a1603954611a6f906001600160a01b0384811691168361166a565b50508080611a7c9061252a565b91505061192f565b50565b6001600160a01b038116611add5760405162461bcd60e51b815260206004820152601a60248201527f4e657720476f7665726e6f7220697320616464726573732830290000000000006044820152606401610596565b806001600160a01b0316611afd6000805160206125a88339815191525490565b6001600160a01b03167fc7c0c772add429241571afb3805861fb3cfa2af374534088b76cdb4325a87e9a60405160405180910390a3611a84816000805160206125a883398151915255565b603380546001600160a01b038089166001600160a01b0319928316179092556034805492881692909116919091179055611b84603a8585611fff565b50815181518114611bce5760405162461bcd60e51b8152602060048201526014602482015273496e76616c696420696e7075742061727261797360601b6044820152606401610596565b60005b81811015611c2757611c15848281518110611bee57611bee612571565b6020026020010151848381518110611c0857611c08612571565b6020026020010151611505565b80611c1f8161252a565b915050611bd1565b5050505050505050565b801580611cba5750604051636eb1769f60e11b81523060048201526001600160a01b03838116602483015284169063dd62ed3e9060440160206040518083038186803b158015611c8057600080fd5b505afa158015611c94573d6000803e3d6000fd5b505050506040513d601f19601f82011682018060405250810190611cb891906122cb565b155b611d255760405162461bcd60e51b815260206004820152603660248201527f5361666545524332303a20617070726f76652066726f6d206e6f6e2d7a65726f60448201527520746f206e6f6e2d7a65726f20616c6c6f77616e636560501b6064820152608401610596565b6040516001600160a01b038316602482015260448101829052610f1090849063095ea7b360e01b90606401611696565b609d80546001600160a01b03199081166001600160a01b03848116918217909355609e805490921685841617909155603354611d949216600019611c31565b603354609e546105a9916001600160a01b039182169116600019611c31565b6000611e08826040518060400160405280602081526020017f5361666545524332303a206c6f772d6c6576656c2063616c6c206661696c6564815250856001600160a01b0316611e859092919063ffffffff16565b805190915015610f105780806020019051810190611e269190612290565b610f105760405162461bcd60e51b815260206004820152602a60248201527f5361666545524332303a204552433230206f7065726174696f6e20646964206e6044820152691bdd081cdd58d8d9595960b21b6064820152608401610596565b6060611e948484600085611e9e565b90505b9392505050565b606082471015611eff5760405162461bcd60e51b815260206004820152602660248201527f416464726573733a20696e73756666696369656e742062616c616e636520666f6044820152651c8818d85b1b60d21b6064820152608401610596565b843b611f4d5760405162461bcd60e51b815260206004820152601d60248201527f416464726573733a2063616c6c20746f206e6f6e2d636f6e74726163740000006044820152606401610596565b600080866001600160a01b03168587604051611f6991906122e4565b60006040518083038185875af1925050503d8060008114611fa6576040519150601f19603f3d011682016040523d82523d6000602084013e611fab565b606091505b5091509150611fbb828286611fc6565b979650505050505050565b60608315611fd5575081611e97565b825115611fe55782518084602001fd5b8160405162461bcd60e51b815260040161059691906123e3565b828054828255906000526020600020908101928215612052579160200282015b828111156120525781546001600160a01b0319166001600160a01b0384351617825560209092019160019091019061201f565b5061205e929150612062565b5090565b5b8082111561205e5760008155600101612063565b80356001600160a01b038116811461208e57600080fd5b919050565b60008083601f8401126120a557600080fd5b50813567ffffffffffffffff8111156120bd57600080fd5b6020830191508360208260051b85010111156120d857600080fd5b9250929050565b6000602082840312156120f157600080fd5b611e9782612077565b6000806040838503121561210d57600080fd5b61211683612077565b915061212460208401612077565b90509250929050565b60008060008060008060008060a0898b03121561214957600080fd5b61215289612077565b975061216060208a01612077565b9650604089013567ffffffffffffffff8082111561217d57600080fd5b6121898c838d01612093565b909850965060608b01359150808211156121a257600080fd5b6121ae8c838d01612093565b909650945060808b01359150808211156121c757600080fd5b506121d48b828c01612093565b999c989b5096995094979396929594505050565b6000806000606084860312156121fd57600080fd5b61220684612077565b925061221460208501612077565b9150604084013590509250925092565b6000806040838503121561223757600080fd5b61224083612077565b946020939093013593505050565b6000806020838503121561226157600080fd5b823567ffffffffffffffff81111561227857600080fd5b61228485828601612093565b90969095509350505050565b6000602082840312156122a257600080fd5b81518015158114611e9757600080fd5b6000602082840312156122c457600080fd5b5035919050565b6000602082840312156122dd57600080fd5b5051919050565b600082516122f68184602087016124fa565b9190910192915050565b6020808252825182820181905260009190848201906040850190845b818110156123415783516001600160a01b03168352928401929184019160010161231c565b50909695505050505050565b6000604082016040835280865480835260608501915087600052602092508260002060005b828110156123975781546001600160a01b031684529284019260019182019101612372565b505050838103828501528481528590820160005b868110156123d7576001600160a01b036123c484612077565b16825291830191908301906001016123ab565b50979650505050505050565b60208152600082518060208401526124028160408501602087016124fa565b601f01601f19169190910160400192915050565b60208082526017908201527f43616c6c6572206973206e6f7420746865205661756c74000000000000000000604082015260600190565b6020808252601a908201527f43616c6c6572206973206e6f742074686520476f7665726e6f72000000000000604082015260600190565b60208082526018908201527f556e657870656374656420617373657420616464726573730000000000000000604082015260600190565b6020808252600e908201526d1499595b9d1c985b9d0818d85b1b60921b604082015260600190565b6000828210156124f5576124f5612545565b500390565b60005b838110156125155781810151838201526020016124fd565b83811115612524576000848401525b50505050565b600060001982141561253e5761253e612545565b5060010190565b634e487b7160e01b600052601160045260246000fd5b634e487b7160e01b600052603160045260246000fd5b634e487b7160e01b600052603260045260246000fdfe53bf423e48ed90e97d02ab0ebab13b2a235a6bfbe9c321847d5c175333ac45357bea13895fa79d2831e0a9e28edede30099005a50d652d8957cf8a607ee6ca4aa2646970667358221220b9498ba464441269ccfa467471f8a70690292d66dc1da0aeb20fce24217a66d564736f6c634300080700337bea13895fa79d2831e0a9e28edede30099005a50d652d8957cf8a607ee6ca4a",
  "devdoc": {
    "kind": "dev",
    "methods": {
      "checkBalance(address)": {
        "details": "Get the total asset value held in the platform",
        "params": {
          "_asset": "Address of the asset"
        },
        "returns": {
          "balance": "   Total value of the asset in the platform"
        }
      },
      "claimGovernance()": {
        "details": "Claim Governance of the contract to a new account (`newGovernor`). Can only be called by the new Governor."
      },
      "collectRewardTokens()": {
        "details": "Collect accumulated reward token and send to Vault."
      },
      "deposit(address,uint256)": {
        "details": "Deposit assets by converting them to shares",
        "params": {
          "_amount": "Amount of asset to deposit",
          "_asset": "Address of asset to deposit"
        }
      },
      "depositAll()": {
        "details": "Deposit the entire balance of assetToken to gain shareToken"
      },
      "getRewardTokenAddresses()": {
        "details": "Get the reward token addresses.",
        "returns": {
          "_0": "address[] the reward token addresses."
        }
      },
      "governor()": {
        "details": "Returns the address of the current Governor."
      },
      "initialize(address,address,address[],address[],address[])": {
        "details": "Internal initialize function, to set up initial internal state",
        "params": {
          "_assets": "Addresses of initial supported assets",
          "_pTokens": "Platform Token corresponding addresses",
          "_platformAddress": "Generic platform address",
          "_rewardTokenAddresses": "Address of reward token for platform",
          "_vaultAddress": "Address of the Vault"
        }
      },
      "isGovernor()": {
        "details": "Returns true if the caller is the current Governor."
      },
      "removePToken(uint256)": {
        "details": "Remove a supported asset by passing its index.      This method can only be called by the system Governor",
        "params": {
          "_assetIndex": "Index of the asset to be removed"
        }
      },
      "safeApproveAllTokens()": {
        "details": "Approve the spending of all assets by their corresponding cToken,      if for some reason is it necessary."
      },
      "setHarvesterAddress(address)": {
        "details": "Set the reward token addresses.",
        "params": {
          "_harvesterAddress": "Address of the harvester"
        }
      },
      "setPTokenAddress(address,address)": {
        "details": "Provide support for asset by passing its pToken address.      This method can only be called by the system Governor",
        "params": {
          "_asset": "Address for the asset",
          "_pToken": "Address for the corresponding platform token"
        }
      },
      "setRewardTokenAddresses(address[])": {
        "details": "Set the reward token addresses.",
        "params": {
          "_rewardTokenAddresses": "Address array of the reward token"
        }
      },
      "supportsAsset(address)": {
        "details": "Retuns bool indicating whether asset is supported by strategy",
        "params": {
          "_asset": "Address of the asset"
        }
      },
      "transferGovernance(address)": {
        "details": "Transfers Governance of the contract to a new account (`newGovernor`). Can only be called by the current Governor. Must be claimed for this to complete",
        "params": {
          "_newGovernor": "Address of the new Governor"
        }
      },
      "transferToken(address,uint256)": {
        "details": "Transfer token to governor. Intended for recovering tokens stuck in      strategy contracts, i.e. mistaken sends.",
        "params": {
          "_amount": "Amount of the asset to transfer",
          "_asset": "Address for the asset"
        }
      },
      "withdraw(address,address,uint256)": {
        "details": "Withdraw asset by burning shares",
        "params": {
          "_amount": "Amount of asset to withdraw",
          "_asset": "Address of asset to withdraw",
          "_recipient": "Address to receive withdrawn asset"
        }
      },
      "withdrawAll()": {
        "details": "Remove all assets from platform and send them to Vault contract."
      }
    },
    "version": 1
  },
  "userdoc": {
    "kind": "user",
    "methods": {},
    "version": 1
  },
  "storageLayout": {
    "storage": [
      {
        "astId": 14892,
        "contract": "contracts/strategies/FraxETHStrategy.sol:FraxETHStrategy",
        "label": "initialized",
        "offset": 0,
        "slot": "0",
        "type": "t_bool"
      },
      {
        "astId": 14895,
        "contract": "contracts/strategies/FraxETHStrategy.sol:FraxETHStrategy",
        "label": "initializing",
        "offset": 1,
        "slot": "0",
        "type": "t_bool"
      },
      {
        "astId": 14935,
        "contract": "contracts/strategies/FraxETHStrategy.sol:FraxETHStrategy",
        "label": "______gap",
        "offset": 0,
        "slot": "1",
        "type": "t_array(t_uint256)50_storage"
      },
      {
        "astId": 15013,
        "contract": "contracts/strategies/FraxETHStrategy.sol:FraxETHStrategy",
        "label": "platformAddress",
        "offset": 0,
        "slot": "51",
        "type": "t_address"
      },
      {
        "astId": 15015,
        "contract": "contracts/strategies/FraxETHStrategy.sol:FraxETHStrategy",
        "label": "vaultAddress",
        "offset": 0,
        "slot": "52",
        "type": "t_address"
      },
      {
        "astId": 15019,
        "contract": "contracts/strategies/FraxETHStrategy.sol:FraxETHStrategy",
        "label": "assetToPToken",
        "offset": 0,
        "slot": "53",
        "type": "t_mapping(t_address,t_address)"
      },
      {
        "astId": 15022,
        "contract": "contracts/strategies/FraxETHStrategy.sol:FraxETHStrategy",
        "label": "assetsMapped",
        "offset": 0,
        "slot": "54",
        "type": "t_array(t_address)dyn_storage"
      },
      {
        "astId": 15024,
        "contract": "contracts/strategies/FraxETHStrategy.sol:FraxETHStrategy",
        "label": "_deprecated_rewardTokenAddress",
        "offset": 0,
        "slot": "55",
        "type": "t_address"
      },
      {
        "astId": 15026,
        "contract": "contracts/strategies/FraxETHStrategy.sol:FraxETHStrategy",
        "label": "_deprecated_rewardLiquidationThreshold",
        "offset": 0,
        "slot": "56",
        "type": "t_uint256"
      },
      {
        "astId": 15028,
        "contract": "contracts/strategies/FraxETHStrategy.sol:FraxETHStrategy",
        "label": "harvesterAddress",
        "offset": 0,
        "slot": "57",
        "type": "t_address"
      },
      {
        "astId": 15031,
        "contract": "contracts/strategies/FraxETHStrategy.sol:FraxETHStrategy",
        "label": "rewardTokenAddresses",
        "offset": 0,
        "slot": "58",
        "type": "t_array(t_address)dyn_storage"
      },
      {
        "astId": 15035,
        "contract": "contracts/strategies/FraxETHStrategy.sol:FraxETHStrategy",
        "label": "_reserved",
        "offset": 0,
        "slot": "59",
        "type": "t_array(t_int256)98_storage"
      },
      {
        "astId": 10531,
        "contract": "contracts/strategies/FraxETHStrategy.sol:FraxETHStrategy",
        "label": "shareToken",
        "offset": 0,
        "slot": "157",
        "type": "t_contract(IERC20)623"
      },
      {
        "astId": 10534,
        "contract": "contracts/strategies/FraxETHStrategy.sol:FraxETHStrategy",
        "label": "assetToken",
        "offset": 0,
        "slot": "158",
        "type": "t_contract(IERC20)623"
      },
      {
        "astId": 10538,
        "contract": "contracts/strategies/FraxETHStrategy.sol:FraxETHStrategy",
        "label": "__gap",
        "offset": 0,
        "slot": "159",
        "type": "t_array(t_uint256)50_storage"
      }
    ],
    "types": {
      "t_address": {
        "encoding": "inplace",
        "label": "address",
        "numberOfBytes": "20"
      },
      "t_array(t_address)dyn_storage": {
        "base": "t_address",
        "encoding": "dynamic_array",
        "label": "address[]",
        "numberOfBytes": "32"
      },
      "t_array(t_int256)98_storage": {
        "base": "t_int256",
        "encoding": "inplace",
        "label": "int256[98]",
        "numberOfBytes": "3136"
      },
      "t_array(t_uint256)50_storage": {
        "base": "t_uint256",
        "encoding": "inplace",
        "label": "uint256[50]",
        "numberOfBytes": "1600"
      },
      "t_bool": {
        "encoding": "inplace",
        "label": "bool",
        "numberOfBytes": "1"
      },
      "t_contract(IERC20)623": {
        "encoding": "inplace",
        "label": "contract IERC20",
        "numberOfBytes": "20"
      },
      "t_int256": {
        "encoding": "inplace",
        "label": "int256",
        "numberOfBytes": "32"
      },
      "t_mapping(t_address,t_address)": {
        "encoding": "mapping",
        "key": "t_address",
        "label": "mapping(address => address)",
        "numberOfBytes": "32",
        "value": "t_address"
      },
      "t_uint256": {
        "encoding": "inplace",
        "label": "uint256",
        "numberOfBytes": "32"
      }
    }
  }
}