{
  "address": "0x8a3b6D3739461137d20825c36ED6016803d3104F",
  "abi": [
    {
      "inputs": [
        {
          "components": [
            {
              "internalType": "address",
              "name": "platformAddress",
              "type": "address"
            },
            {
              "internalType": "address",
              "name": "vaultAddress",
              "type": "address"
            }
          ],
          "internalType": "struct InitializableAbstractStrategy.BaseStrategyConfig",
          "name": "_baseConfig",
          "type": "tuple"
        },
        {
          "internalType": "address",
          "name": "_assetToken",
          "type": "address"
        }
      ],
      "stateMutability": "nonpayable",
      "type": "constructor"
    },
    {
      "anonymous": false,
      "inputs": [
        {
          "indexed": true,
          "internalType": "address",
          "name": "_asset",
          "type": "address"
        },
        {
          "indexed": false,
          "internalType": "address",
          "name": "_pToken",
          "type": "address"
        },
        {
          "indexed": false,
          "internalType": "uint256",
          "name": "_amount",
          "type": "uint256"
        }
      ],
      "name": "Deposit",
      "type": "event"
    },
    {
      "anonymous": false,
      "inputs": [
        {
          "indexed": true,
          "internalType": "address",
          "name": "previousGovernor",
          "type": "address"
        },
        {
          "indexed": true,
          "internalType": "address",
          "name": "newGovernor",
          "type": "address"
        }
      ],
      "name": "GovernorshipTransferred",
      "type": "event"
    },
    {
      "anonymous": false,
      "inputs": [
        {
          "indexed": false,
          "internalType": "address",
          "name": "_oldHarvesterAddress",
          "type": "address"
        },
        {
          "indexed": false,
          "internalType": "address",
          "name": "_newHarvesterAddress",
          "type": "address"
        }
      ],
      "name": "HarvesterAddressesUpdated",
      "type": "event"
    },
    {
      "anonymous": false,
      "inputs": [
        {
          "indexed": true,
          "internalType": "address",
          "name": "_asset",
          "type": "address"
        },
        {
          "indexed": false,
          "internalType": "address",
          "name": "_pToken",
          "type": "address"
        }
      ],
      "name": "PTokenAdded",
      "type": "event"
    },
    {
      "anonymous": false,
      "inputs": [
        {
          "indexed": true,
          "internalType": "address",
          "name": "_asset",
          "type": "address"
        },
        {
          "indexed": false,
          "internalType": "address",
          "name": "_pToken",
          "type": "address"
        }
      ],
      "name": "PTokenRemoved",
      "type": "event"
    },
    {
      "anonymous": false,
      "inputs": [
        {
          "indexed": true,
          "internalType": "address",
          "name": "previousGovernor",
          "type": "address"
        },
        {
          "indexed": true,
          "internalType": "address",
          "name": "newGovernor",
          "type": "address"
        }
      ],
      "name": "PendingGovernorshipTransfer",
      "type": "event"
    },
    {
      "anonymous": false,
      "inputs": [
        {
          "indexed": false,
          "internalType": "address[]",
          "name": "_oldAddresses",
          "type": "address[]"
        },
        {
          "indexed": false,
          "internalType": "address[]",
          "name": "_newAddresses",
          "type": "address[]"
        }
      ],
      "name": "RewardTokenAddressesUpdated",
      "type": "event"
    },
    {
      "anonymous": false,
      "inputs": [
        {
          "indexed": false,
          "internalType": "address",
          "name": "recipient",
          "type": "address"
        },
        {
          "indexed": false,
          "internalType": "address",
          "name": "rewardToken",
          "type": "address"
        },
        {
          "indexed": false,
          "internalType": "uint256",
          "name": "amount",
          "type": "uint256"
        }
      ],
      "name": "RewardTokenCollected",
      "type": "event"
    },
    {
      "anonymous": false,
      "inputs": [
        {
          "indexed": true,
          "internalType": "address",
          "name": "_asset",
          "type": "address"
        },
        {
          "indexed": false,
          "internalType": "address",
          "name": "_pToken",
          "type": "address"
        },
        {
          "indexed": false,
          "internalType": "uint256",
          "name": "_amount",
          "type": "uint256"
        }
      ],
      "name": "Withdrawal",
      "type": "event"
    },
    {
      "inputs": [
        {
          "internalType": "address",
          "name": "",
          "type": "address"
        }
      ],
      "name": "assetToPToken",
      "outputs": [
        {
          "internalType": "address",
          "name": "",
          "type": "address"
        }
      ],
      "stateMutability": "view",
      "type": "function"
    },
    {
      "inputs": [],
      "name": "assetToken",
      "outputs": [
        {
          "internalType": "contract IERC20",
          "name": "",
          "type": "address"
        }
      ],
      "stateMutability": "view",
      "type": "function"
    },
    {
      "inputs": [
        {
          "internalType": "address",
          "name": "_asset",
          "type": "address"
        }
      ],
      "name": "checkBalance",
      "outputs": [
        {
          "internalType": "uint256",
          "name": "balance",
          "type": "uint256"
        }
      ],
      "stateMutability": "view",
      "type": "function"
    },
    {
      "inputs": [],
      "name": "claimGovernance",
      "outputs": [],
      "stateMutability": "nonpayable",
      "type": "function"
    },
    {
      "inputs": [],
      "name": "collectRewardTokens",
      "outputs": [],
      "stateMutability": "nonpayable",
      "type": "function"
    },
    {
      "inputs": [
        {
          "internalType": "address",
          "name": "_asset",
          "type": "address"
        },
        {
          "internalType": "uint256",
          "name": "_amount",
          "type": "uint256"
        }
      ],
      "name": "deposit",
      "outputs": [],
      "stateMutability": "nonpayable",
      "type": "function"
    },
    {
      "inputs": [],
      "name": "depositAll",
      "outputs": [],
      "stateMutability": "nonpayable",
      "type": "function"
    },
    {
      "inputs": [],
      "name": "getRewardTokenAddresses",
      "outputs": [
        {
          "internalType": "address[]",
          "name": "",
          "type": "address[]"
        }
      ],
      "stateMutability": "view",
      "type": "function"
    },
    {
      "inputs": [],
      "name": "governor",
      "outputs": [
        {
          "internalType": "address",
          "name": "",
          "type": "address"
        }
      ],
      "stateMutability": "view",
      "type": "function"
    },
    {
      "inputs": [],
      "name": "harvesterAddress",
      "outputs": [
        {
          "internalType": "address",
          "name": "",
          "type": "address"
        }
      ],
      "stateMutability": "view",
      "type": "function"
    },
    {
      "inputs": [
        {
          "internalType": "address[]",
          "name": "_rewardTokenAddresses",
          "type": "address[]"
        },
        {
          "internalType": "address[]",
          "name": "_assets",
          "type": "address[]"
        },
        {
          "internalType": "address[]",
          "name": "_pTokens",
          "type": "address[]"
        }
      ],
      "name": "initialize",
      "outputs": [],
      "stateMutability": "nonpayable",
      "type": "function"
    },
    {
      "inputs": [],
      "name": "initialize",
      "outputs": [],
      "stateMutability": "nonpayable",
      "type": "function"
    },
    {
      "inputs": [],
      "name": "isGovernor",
      "outputs": [
        {
          "internalType": "bool",
          "name": "",
          "type": "bool"
        }
      ],
      "stateMutability": "view",
      "type": "function"
    },
    {
      "inputs": [],
      "name": "platformAddress",
      "outputs": [
        {
          "internalType": "address",
          "name": "",
          "type": "address"
        }
      ],
      "stateMutability": "view",
      "type": "function"
    },
    {
      "inputs": [
        {
          "internalType": "uint256",
          "name": "",
          "type": "uint256"
        }
      ],
      "name": "removePToken",
      "outputs": [],
      "stateMutability": "nonpayable",
      "type": "function"
    },
    {
      "inputs": [
        {
          "internalType": "uint256",
          "name": "",
          "type": "uint256"
        }
      ],
      "name": "rewardTokenAddresses",
      "outputs": [
        {
          "internalType": "address",
          "name": "",
          "type": "address"
        }
      ],
      "stateMutability": "view",
      "type": "function"
    },
    {
      "inputs": [],
      "name": "safeApproveAllTokens",
      "outputs": [],
      "stateMutability": "nonpayable",
      "type": "function"
    },
    {
      "inputs": [
        {
          "internalType": "address",
          "name": "_harvesterAddress",
          "type": "address"
        }
      ],
      "name": "setHarvesterAddress",
      "outputs": [],
      "stateMutability": "nonpayable",
      "type": "function"
    },
    {
      "inputs": [
        {
          "internalType": "address",
          "name": "",
          "type": "address"
        },
        {
          "internalType": "address",
          "name": "",
          "type": "address"
        }
      ],
      "name": "setPTokenAddress",
      "outputs": [],
      "stateMutability": "nonpayable",
      "type": "function"
    },
    {
      "inputs": [
        {
          "internalType": "address[]",
          "name": "_rewardTokenAddresses",
          "type": "address[]"
        }
      ],
      "name": "setRewardTokenAddresses",
      "outputs": [],
      "stateMutability": "nonpayable",
      "type": "function"
    },
    {
      "inputs": [],
      "name": "shareToken",
      "outputs": [
        {
          "internalType": "contract IERC20",
          "name": "",
          "type": "address"
        }
      ],
      "stateMutability": "view",
      "type": "function"
    },
    {
      "inputs": [
        {
          "internalType": "address",
          "name": "_asset",
          "type": "address"
        }
      ],
      "name": "supportsAsset",
      "outputs": [
        {
          "internalType": "bool",
          "name": "",
          "type": "bool"
        }
      ],
      "stateMutability": "view",
      "type": "function"
    },
    {
      "inputs": [
        {
          "internalType": "address",
          "name": "_newGovernor",
          "type": "address"
        }
      ],
      "name": "transferGovernance",
      "outputs": [],
      "stateMutability": "nonpayable",
      "type": "function"
    },
    {
      "inputs": [
        {
          "internalType": "address",
          "name": "_asset",
          "type": "address"
        },
        {
          "internalType": "uint256",
          "name": "_amount",
          "type": "uint256"
        }
      ],
      "name": "transferToken",
      "outputs": [],
      "stateMutability": "nonpayable",
      "type": "function"
    },
    {
      "inputs": [],
      "name": "vaultAddress",
      "outputs": [
        {
          "internalType": "address",
          "name": "",
          "type": "address"
        }
      ],
      "stateMutability": "view",
      "type": "function"
    },
    {
      "inputs": [
        {
          "internalType": "address",
          "name": "_recipient",
          "type": "address"
        },
        {
          "internalType": "address",
          "name": "_asset",
          "type": "address"
        },
        {
          "internalType": "uint256",
          "name": "_amount",
          "type": "uint256"
        }
      ],
      "name": "withdraw",
      "outputs": [],
      "stateMutability": "nonpayable",
      "type": "function"
    },
    {
      "inputs": [],
      "name": "withdrawAll",
      "outputs": [],
      "stateMutability": "nonpayable",
      "type": "function"
    }
  ],
  "transactionHash": "0xe645ee91189937722b1d27b0203d2059555d3ce5f93a0dfe8516dd6ca33dd7ed",
  "args": [
    [
      "0x83F20F44975D03b1b09e64809B757c47f942BEeA",
      "0xE75D77B1865Ae93c7eaa3040B038D7aA7BC02F70"
    ],
    "0x6B175474E89094C44Da98b954EedeAC495271d0F"
  ],
  "numDeployments": 2,
  "solcInputHash": "5b3811a09678f3f195958692be915ae2",
  "bytecode": "0x6101006040523480156200001257600080fd5b5060405162002665380380620026658339810160408190526200003591620000ea565b816200004e336000805160206200264583398151915255565b60008051602062002645833981519152546040516001600160a01b03909116906000907fc7c0c772add429241571afb3805861fb3cfa2af374534088b76cdb4325a87e9a908290a380516001600160601b0319606091821b8116608052602090920151811b821660a0529251831b811660c052911b1660e0526200017c565b80516001600160a01b0381168114620000e557600080fd5b919050565b6000808284036060811215620000ff57600080fd5b60408112156200010e57600080fd5b50604080519081016001600160401b03811182821017156200014057634e487b7160e01b600052604160045260246000fd5b6040526200014e84620000cd565b81526200015e60208501620000cd565b602082015291506200017360408401620000cd565b90509250929050565b60805160601c60a05160601c60c05160601c60e05160601c6123db6200026a6000396000818161022901528181610357015281816107ff015281816109e001528181610cf20152818161115801528181611356015281816113e5015281816115d1015261195f0152600081816102e101528181610b9e01528181610d3d0152818161125e01526116cf0152600081816102500152818161063001528181610ab401528181610c3e0152818161104401526112cb0152600081816103e50152818161086301528181610a3401528181610c72015281816111d30152818161163c015261192f01526123db6000f3fe608060405234801561001057600080fd5b50600436106101a95760003560e01c80637b2d9b2c116100f9578063c2e1e3f411610097578063d9caed1211610071578063d9caed12146103cd578063dbe55e56146103e0578063de5f626814610407578063f6ca71b01461040f57600080fd5b8063c2e1e3f41461039f578063c7af3352146103b2578063d38bfff4146103ba57600080fd5b80639136616a116100d35780639136616a1461032657806396d538bb14610334578063aa388af614610347578063ad1728cb1461039757600080fd5b80637b2d9b2c146103035780638129fc1c14610316578063853828b61461031e57600080fd5b8063435356d1116101665780635d36b190116101405780635d36b190146102a05780635f515226146102a857806367c7066c146102c95780636c9fa59e146102dc57600080fd5b8063435356d11461027257806347e7ef24146102855780635a063f631461029857600080fd5b80630c340a24146101ae5780630ed57b3a146101d35780630fc3b4c4146101e85780631072cbea146102115780631083f76114610224578063430bf08a1461024b575b600080fd5b6101b6610424565b6040516001600160a01b0390911681526020015b60405180910390f35b6101e66101e1366004611ee4565b610441565b005b6101b66101f6366004611ec9565b6035602052600090815260409020546001600160a01b031681565b6101e661021f366004611f53565b6104ad565b6101b67f000000000000000000000000000000000000000000000000000000000000000081565b6101b67f000000000000000000000000000000000000000000000000000000000000000081565b6101e6610280366004611fbf565b6104f1565b6101e6610293366004611f53565b610625565b6101e66106b6565b6101e6610755565b6102bb6102b6366004611ec9565b6107fb565b6040519081526020016101ca565b6039546101b6906001600160a01b031681565b6101b67f000000000000000000000000000000000000000000000000000000000000000081565b6101b661031136600461207b565b6108eb565b6101e6610915565b6101e6610aa9565b6101e66101e136600461207b565b6101e6610342366004611f7d565b610d91565b610387610355366004611ec9565b7f00000000000000000000000000000000000000000000000000000000000000006001600160a01b0390811691161490565b60405190151581526020016101ca565b6101e6610eb9565b6101e66103ad366004611ec9565b610ee5565b610387610f64565b6101e66103c8366004611ec9565b610f95565b6101e66103db366004611f17565b611039565b6101b67f000000000000000000000000000000000000000000000000000000000000000081565b6101e66112c0565b610417611412565b6040516101ca91906120c9565b600061043c6000805160206123868339815191525490565b905090565b610449610f64565b61046e5760405162461bcd60e51b815260040161046590612216565b60405180910390fd5b60405162461bcd60e51b81526020600482015260146024820152733ab739bab83837b93a32b210333ab731ba34b7b760611b6044820152606401610465565b6104b5610f64565b6104d15760405162461bcd60e51b815260040161046590612216565b6104ed6104dc610424565b6001600160a01b0384169083611474565b5050565b6104f9610f64565b6105155760405162461bcd60e51b815260040161046590612216565b600054610100900460ff168061052e575060005460ff16155b61054a5760405162461bcd60e51b815260040161046590612284565b600054610100900460ff1615801561056c576000805461ffff19166101011790555b61060a87878080602002602001604051908101604052809392919081815260200183836020028082843760009201919091525050604080516020808b0282810182019093528a82529093508a92508991829185019084908082843760009201919091525050604080516020808a028281018201909352898252909350899250889182918501908490808284376000920191909152506114cb92505050565b801561061c576000805461ff00191690555b50505050505050565b336001600160a01b037f0000000000000000000000000000000000000000000000000000000000000000161461066d5760405162461bcd60e51b8152600401610465906121df565b6000805160206123668339815191528054600281141561069f5760405162461bcd60e51b8152600401610465906122d2565b600282556106ad8484611586565b50600190555050565b6039546001600160a01b031633146107105760405162461bcd60e51b815260206004820152601b60248201527f43616c6c6572206973206e6f74207468652048617276657374657200000000006044820152606401610465565b600080516020612366833981519152805460028114156107425760405162461bcd60e51b8152600401610465906122d2565b6002825561074e61172b565b5060019055565b7f44c4d30b2eaad5130ad70c3ba6972730566f3e6359ab83e800d905c61b1c51db546001600160a01b0316336001600160a01b0316146107f05760405162461bcd60e51b815260206004820152603060248201527f4f6e6c79207468652070656e64696e6720476f7665726e6f722063616e20636f60448201526f6d706c6574652074686520636c61696d60801b6064820152608401610465565b6107f933611857565b565b60007f00000000000000000000000000000000000000000000000000000000000000006001600160a01b0316826001600160a01b03161461084e5760405162461bcd60e51b81526004016104659061224d565b60405163ce96cb7760e01b81523060048201527f00000000000000000000000000000000000000000000000000000000000000006001600160a01b03169063ce96cb779060240160206040518083038186803b1580156108ad57600080fd5b505afa1580156108c1573d6000803e3d6000fd5b505050506040513d601f19601f820116820180604052508101906108e59190612094565b92915050565b603a81815481106108fb57600080fd5b6000918252602090912001546001600160a01b0316905081565b61091d610f64565b6109395760405162461bcd60e51b815260040161046590612216565b600054610100900460ff1680610952575060005460ff16155b61096e5760405162461bcd60e51b815260040161046590612284565b600054610100900460ff16158015610990576000805461ffff19166101011790555b6040805160008082526001602080840182815260608501865293949293928501908036833750506040805160018082528183019092529293506000929150602080830190803683370190505090507f000000000000000000000000000000000000000000000000000000000000000082600081518110610a1257610a1261234f565b60200260200101906001600160a01b031690816001600160a01b0316815250507f000000000000000000000000000000000000000000000000000000000000000081600081518110610a6657610a6661234f565b60200260200101906001600160a01b031690816001600160a01b031681525050610a918383836114cb565b5050508015610aa6576000805461ff00191690555b50565b336001600160a01b037f0000000000000000000000000000000000000000000000000000000000000000161480610af85750610ae3610424565b6001600160a01b0316336001600160a01b0316145b610b505760405162461bcd60e51b815260206004820152602360248201527f43616c6c6572206973206e6f7420746865205661756c74206f7220476f7665726044820152623737b960e91b6064820152608401610465565b60008051602061236683398151915280546002811415610b825760405162461bcd60e51b8152600401610465906122d2565b600282556040516370a0823160e01b81523060048201526000907f00000000000000000000000000000000000000000000000000000000000000006001600160a01b0316906370a082319060240160206040518083038186803b158015610be857600080fd5b505afa158015610bfc573d6000803e3d6000fd5b505050506040513d601f19601f82011682018060405250810190610c209190612094565b604051635d043b2960e11b8152600481018290526001600160a01b037f0000000000000000000000000000000000000000000000000000000000000000811660248301523060448301529192506000917f0000000000000000000000000000000000000000000000000000000000000000169063ba08765290606401602060405180830381600087803b158015610cb657600080fd5b505af1158015610cca573d6000803e3d6000fd5b505050506040513d601f19601f82011682018060405250810190610cee9190612094565b90507f00000000000000000000000000000000000000000000000000000000000000006001600160a01b03167f2717ead6b9200dd235aad468c9809ea400fe33ac69b5bfaa6d3e90fc922b63987f000000000000000000000000000000000000000000000000000000000000000083604051610d7f9291906001600160a01b03929092168252602082015260400190565b60405180910390a25050600182555050565b610d99610f64565b610db55760405162461bcd60e51b815260040161046590612216565b603a5460005b81811015610e6a576000848483818110610dd757610dd761234f565b9050602002016020810190610dec9190611ec9565b6001600160a01b03161415610e5a5760405162461bcd60e51b815260206004820152602e60248201527f43616e206e6f742073657420616e20656d70747920616464726573732061732060448201526d30903932bbb0b932103a37b5b2b760911b6064820152608401610465565b610e6381612326565b9050610dbb565b507f04c0b9649497d316554306e53678d5f5f5dbc3a06f97dec13ff4cfe98b986bbc603a8484604051610e9f93929190612116565b60405180910390a1610eb3603a8484611d94565b50505050565b610ec1610f64565b610edd5760405162461bcd60e51b815260040161046590612216565b6107f9611918565b610eed610f64565b610f095760405162461bcd60e51b815260040161046590612216565b603980546001600160a01b0319166001600160a01b0383169081179091556040805182815260208101929092527fe48386b84419f4d36e0f96c10cc3510b6fb1a33795620c5098b22472bbe90796910160405180910390a150565b6000610f7c6000805160206123868339815191525490565b6001600160a01b0316336001600160a01b031614905090565b610f9d610f64565b610fb95760405162461bcd60e51b815260040161046590612216565b610fe1817f44c4d30b2eaad5130ad70c3ba6972730566f3e6359ab83e800d905c61b1c51db55565b806001600160a01b03166110016000805160206123868339815191525490565b6001600160a01b03167fa39cc5eb22d0f34d8beaefee8a3f17cc229c1a1d1ef87a5ad47313487b1c4f0d60405160405180910390a350565b336001600160a01b037f000000000000000000000000000000000000000000000000000000000000000016146110815760405162461bcd60e51b8152600401610465906121df565b600080516020612366833981519152805460028114156110b35760405162461bcd60e51b8152600401610465906122d2565b60028255600083116111075760405162461bcd60e51b815260206004820152601760248201527f4d75737420776974686472617720736f6d657468696e670000000000000000006044820152606401610465565b6001600160a01b0385166111565760405162461bcd60e51b8152602060048201526016602482015275135d5cdd081cdc1958da599e481c9958da5c1a595b9d60521b6044820152606401610465565b7f00000000000000000000000000000000000000000000000000000000000000006001600160a01b0316846001600160a01b0316146111a75760405162461bcd60e51b81526004016104659061224d565b604051632d182be560e21b8152600481018490526001600160a01b0386811660248301523060448301527f0000000000000000000000000000000000000000000000000000000000000000169063b460af9490606401602060405180830381600087803b15801561121757600080fd5b505af115801561122b573d6000803e3d6000fd5b505050506040513d601f19601f8201168201806040525081019061124f9190612094565b50604080516001600160a01b037f000000000000000000000000000000000000000000000000000000000000000081168252602082018690528616917f2717ead6b9200dd235aad468c9809ea400fe33ac69b5bfaa6d3e90fc922b6398910160405180910390a25060019055505050565b336001600160a01b037f000000000000000000000000000000000000000000000000000000000000000016146113085760405162461bcd60e51b8152600401610465906121df565b6000805160206123668339815191528054600281141561133a5760405162461bcd60e51b8152600401610465906122d2565b600282556040516370a0823160e01b81523060048201526000907f00000000000000000000000000000000000000000000000000000000000000006001600160a01b0316906370a082319060240160206040518083038186803b1580156113a057600080fd5b505afa1580156113b4573d6000803e3d6000fd5b505050506040513d601f19601f820116820180604052508101906113d89190612094565b9050801561140a5761140a7f000000000000000000000000000000000000000000000000000000000000000082611586565b505060019055565b6060603a80548060200260200160405190810160405280929190818152602001828054801561146a57602002820191906000526020600020905b81546001600160a01b0316815260019091019060200180831161144c575b5050505050905090565b604080516001600160a01b038416602482015260448082018490528251808303909101815260649091019091526020810180516001600160e01b031663a9059cbb60e01b1790526114c69084906119db565b505050565b82516114de90603a906020860190611df7565b508151815181146115285760405162461bcd60e51b8152602060048201526014602482015273496e76616c696420696e7075742061727261797360601b6044820152606401610465565b60005b8181101561157f5761156f8482815181106115485761154861234f565b60200260200101518483815181106115625761156261234f565b6020026020010151611aad565b61157881612326565b905061152b565b5050505050565b600081116115cf5760405162461bcd60e51b81526020600482015260166024820152754d757374206465706f73697420736f6d657468696e6760501b6044820152606401610465565b7f00000000000000000000000000000000000000000000000000000000000000006001600160a01b0316826001600160a01b0316146116205760405162461bcd60e51b81526004016104659061224d565b604051636e553f6560e01b8152600481018290523060248201527f00000000000000000000000000000000000000000000000000000000000000006001600160a01b031690636e553f6590604401602060405180830381600087803b15801561168857600080fd5b505af115801561169c573d6000803e3d6000fd5b505050506040513d601f19601f820116820180604052508101906116c09190612094565b50604080516001600160a01b037f000000000000000000000000000000000000000000000000000000000000000081168252602082018490528416917f5548c837ab068cf56a2c2479df0882a4922fd203edb7517321831d95078c5f62910160405180910390a25050565b603a5460005b818110156104ed576000603a828154811061174e5761174e61234f565b60009182526020822001546040516370a0823160e01b81523060048201526001600160a01b03909116925082906370a082319060240160206040518083038186803b15801561179c57600080fd5b505afa1580156117b0573d6000803e3d6000fd5b505050506040513d601f19601f820116820180604052508101906117d49190612094565b9050801561184457603954604080516001600160a01b039283168152918416602083015281018290527ff6c07a063ed4e63808eb8da7112d46dbcd38de2b40a73dbcc9353c5a94c723539060600160405180910390a1603954611844906001600160a01b03848116911683611474565b50508061185090612326565b9050611731565b6001600160a01b0381166118ad5760405162461bcd60e51b815260206004820152601a60248201527f4e657720476f7665726e6f7220697320616464726573732830290000000000006044820152606401610465565b806001600160a01b03166118cd6000805160206123868339815191525490565b6001600160a01b03167fc7c0c772add429241571afb3805861fb3cfa2af374534088b76cdb4325a87e9a60405160405180910390a3610aa68160008051602061238683398151915255565b60405163095ea7b360e01b81526001600160a01b037f00000000000000000000000000000000000000000000000000000000000000008116600483015260001960248301527f0000000000000000000000000000000000000000000000000000000000000000169063095ea7b390604401602060405180830381600087803b1580156119a357600080fd5b505af11580156119b7573d6000803e3d6000fd5b505050506040513d601f19601f82011682018060405250810190610aa69190612059565b6000611a30826040518060400160405280602081526020017f5361666545524332303a206c6f772d6c6576656c2063616c6c206661696c6564815250856001600160a01b0316611c129092919063ffffffff16565b8051909150156114c65780806020019051810190611a4e9190612059565b6114c65760405162461bcd60e51b815260206004820152602a60248201527f5361666545524332303a204552433230206f7065726174696f6e20646964206e6044820152691bdd081cdd58d8d9595960b21b6064820152608401610465565b6001600160a01b038281166000908152603560205260409020541615611b0a5760405162461bcd60e51b81526020600482015260126024820152711c151bdad95b88185b1c9958591e481cd95d60721b6044820152606401610465565b6001600160a01b03821615801590611b2a57506001600160a01b03811615155b611b6a5760405162461bcd60e51b8152602060048201526011602482015270496e76616c69642061646472657373657360781b6044820152606401610465565b6001600160a01b03828116600081815260356020908152604080832080549587166001600160a01b031996871681179091556036805460018101825594527f4a11f94e20a93c79f6ec743a1954ec4fc2c08429ae2122118bf234b2185c81b890930180549095168417909455925190815290917fef6485b84315f9b1483beffa32aae9a0596890395e3d7521f1c5fbb51790e765910160405180910390a26104ed8282611c2b565b6060611c218484600085611c33565b90505b9392505050565b6104ed611918565b606082471015611c945760405162461bcd60e51b815260206004820152602660248201527f416464726573733a20696e73756666696369656e742062616c616e636520666f6044820152651c8818d85b1b60d21b6064820152608401610465565b843b611ce25760405162461bcd60e51b815260206004820152601d60248201527f416464726573733a2063616c6c20746f206e6f6e2d636f6e74726163740000006044820152606401610465565b600080866001600160a01b03168587604051611cfe91906120ad565b60006040518083038185875af1925050503d8060008114611d3b576040519150601f19603f3d011682016040523d82523d6000602084013e611d40565b606091505b5091509150611d50828286611d5b565b979650505050505050565b60608315611d6a575081611c24565b825115611d7a5782518084602001fd5b8160405162461bcd60e51b815260040161046591906121ac565b828054828255906000526020600020908101928215611de7579160200282015b82811115611de75781546001600160a01b0319166001600160a01b03843516178255602090920191600190910190611db4565b50611df3929150611e4c565b5090565b828054828255906000526020600020908101928215611de7579160200282015b82811115611de757825182546001600160a01b0319166001600160a01b03909116178255602090920191600190910190611e17565b5b80821115611df35760008155600101611e4d565b80356001600160a01b0381168114611e7857600080fd5b919050565b60008083601f840112611e8f57600080fd5b50813567ffffffffffffffff811115611ea757600080fd5b6020830191508360208260051b8501011115611ec257600080fd5b9250929050565b600060208284031215611edb57600080fd5b611c2482611e61565b60008060408385031215611ef757600080fd5b611f0083611e61565b9150611f0e60208401611e61565b90509250929050565b600080600060608486031215611f2c57600080fd5b611f3584611e61565b9250611f4360208501611e61565b9150604084013590509250925092565b60008060408385031215611f6657600080fd5b611f6f83611e61565b946020939093013593505050565b60008060208385031215611f9057600080fd5b823567ffffffffffffffff811115611fa757600080fd5b611fb385828601611e7d565b90969095509350505050565b60008060008060008060608789031215611fd857600080fd5b863567ffffffffffffffff80821115611ff057600080fd5b611ffc8a838b01611e7d565b9098509650602089013591508082111561201557600080fd5b6120218a838b01611e7d565b9096509450604089013591508082111561203a57600080fd5b5061204789828a01611e7d565b979a9699509497509295939492505050565b60006020828403121561206b57600080fd5b81518015158114611c2457600080fd5b60006020828403121561208d57600080fd5b5035919050565b6000602082840312156120a657600080fd5b5051919050565b600082516120bf8184602087016122fa565b9190910192915050565b6020808252825182820181905260009190848201906040850190845b8181101561210a5783516001600160a01b0316835292840192918401916001016120e5565b50909695505050505050565b6000604082016040835280865480835260608501915087600052602092508260002060005b828110156121605781546001600160a01b03168452928401926001918201910161213b565b505050838103828501528481528590820160005b868110156121a0576001600160a01b0361218d84611e61565b1682529183019190830190600101612174565b50979650505050505050565b60208152600082518060208401526121cb8160408501602087016122fa565b601f01601f19169190910160400192915050565b60208082526017908201527f43616c6c6572206973206e6f7420746865205661756c74000000000000000000604082015260600190565b6020808252601a908201527f43616c6c6572206973206e6f742074686520476f7665726e6f72000000000000604082015260600190565b60208082526018908201527f556e657870656374656420617373657420616464726573730000000000000000604082015260600190565b6020808252602e908201527f496e697469616c697a61626c653a20636f6e747261637420697320616c72656160408201526d191e481a5b9a5d1a585b1a5e995960921b606082015260800190565b6020808252600e908201526d1499595b9d1c985b9d0818d85b1b60921b604082015260600190565b60005b838110156123155781810151838201526020016122fd565b83811115610eb35750506000910152565b600060001982141561234857634e487b7160e01b600052601160045260246000fd5b5060010190565b634e487b7160e01b600052603260045260246000fdfe53bf423e48ed90e97d02ab0ebab13b2a235a6bfbe9c321847d5c175333ac45357bea13895fa79d2831e0a9e28edede30099005a50d652d8957cf8a607ee6ca4aa2646970667358221220ec4503df863b64c0d0c24d834cf4ceedaf16cbbeba44e3053ca6c13cddea733464736f6c634300080700337bea13895fa79d2831e0a9e28edede30099005a50d652d8957cf8a607ee6ca4a",
  "devdoc": {
    "kind": "dev",
    "methods": {
      "checkBalance(address)": {
        "details": "Get the total asset value held in the platform",
        "params": {
          "_asset": "Address of the asset"
        },
        "returns": {
          "balance": "   Total value of the asset in the platform"
        }
      },
      "collectRewardTokens()": {
        "details": "Collect accumulated reward token and send to Vault."
      },
      "constructor": {
        "params": {
          "_assetToken": "Address of the ERC-4626 asset token. eg frxETH or DAI",
          "_baseConfig": "Base strategy config with platformAddress (ERC-4626 Vault contract), eg sfrxETH or sDAI, and vaultAddress (OToken Vault contract), eg VaultProxy or OETHVaultProxy"
        }
      },
      "deposit(address,uint256)": {
        "details": "Deposit assets by converting them to shares",
        "params": {
          "_amount": "Amount of asset to deposit",
          "_asset": "Address of asset to deposit"
        }
      },
      "depositAll()": {
        "details": "Deposit the entire balance of assetToken to gain shareToken"
      },
      "getRewardTokenAddresses()": {
        "details": "Get the reward token addresses.",
        "returns": {
          "_0": "address[] the reward token addresses."
        }
      },
      "initialize(address[],address[],address[])": {
        "params": {
          "_assets": "Addresses of initial supported assets",
          "_pTokens": "Platform Token corresponding addresses",
          "_rewardTokenAddresses": "Address of reward token for platform"
        }
      },
      "removePToken(uint256)": {
        "details": "If the ERC-4626 Tokenized Vault needed to be changed, a new contract would need to be deployed and the proxy updated."
      },
      "setHarvesterAddress(address)": {
        "details": "Set the reward token addresses.",
        "params": {
          "_harvesterAddress": "Address of the harvester"
        }
      },
      "setPTokenAddress(address,address)": {
        "details": "If the ERC-4626 Tokenized Vault needed to be changed, a new contract would need to be deployed and the proxy updated."
      },
      "setRewardTokenAddresses(address[])": {
        "details": "Set the reward token addresses.",
        "params": {
          "_rewardTokenAddresses": "Address array of the reward token"
        }
      },
      "supportsAsset(address)": {
        "details": "Retuns bool indicating whether asset is supported by strategy",
        "params": {
          "_asset": "Address of the asset"
        }
      },
      "transferGovernance(address)": {
        "params": {
          "_newGovernor": "Address of the new Governor"
        }
      },
      "transferToken(address,uint256)": {
        "details": "Transfer token to governor. Intended for recovering tokens stuck in      strategy contracts, i.e. mistaken sends.",
        "params": {
          "_amount": "Amount of the asset to transfer",
          "_asset": "Address for the asset"
        }
      },
      "withdraw(address,address,uint256)": {
        "details": "Withdraw asset by burning shares",
        "params": {
          "_amount": "Amount of asset to withdraw",
          "_asset": "Address of asset to withdraw",
          "_recipient": "Address to receive withdrawn asset"
        }
      },
      "withdrawAll()": {
        "details": "Remove all assets from platform and send them to Vault contract."
      }
    },
    "stateVariables": {
      "_deprecate_assetToken": {
        "details": "Replaced with an immutable variable"
      },
      "_deprecate_shareToken": {
        "details": "Replaced with an immutable variable"
      }
    },
    "version": 1
  },
  "userdoc": {
    "kind": "user",
    "methods": {
      "claimGovernance()": {
        "notice": "Claim Governance of the contract to a new account (`newGovernor`). Can only be called by the new Governor."
      },
      "governor()": {
        "notice": "Returns the address of the current Governor."
      },
      "initialize(address[],address[],address[])": {
        "notice": "Internal initialize function, to set up initial internal state"
      },
      "isGovernor()": {
        "notice": "Returns true if the caller is the current Governor."
      },
      "platformAddress()": {
        "notice": "Address of the underlying platform"
      },
      "removePToken(uint256)": {
        "notice": "is not supported for this strategy as the asset and ERC-4626 Tokenized Vault are set at deploy time."
      },
      "safeApproveAllTokens()": {
        "notice": "Governor approves the the ERC-4626 Tokenized Vault to spend the asset."
      },
      "setPTokenAddress(address,address)": {
        "notice": "is not supported for this strategy as the asset and ERC-4626 Tokenized Vault are set at deploy time."
      },
      "transferGovernance(address)": {
        "notice": "Transfers Governance of the contract to a new account (`newGovernor`). Can only be called by the current Governor. Must be claimed for this to complete"
      },
      "vaultAddress()": {
        "notice": "Address of the OToken vault"
      }
    },
    "version": 1
  },
  "storageLayout": {
    "storage": [
      {
        "astId": 28406,
        "contract": "contracts/strategies/Generalized4626Strategy.sol:Generalized4626Strategy",
        "label": "initialized",
        "offset": 0,
        "slot": "0",
        "type": "t_bool"
      },
      {
        "astId": 28409,
        "contract": "contracts/strategies/Generalized4626Strategy.sol:Generalized4626Strategy",
        "label": "initializing",
        "offset": 1,
        "slot": "0",
        "type": "t_bool"
      },
      {
        "astId": 28449,
        "contract": "contracts/strategies/Generalized4626Strategy.sol:Generalized4626Strategy",
        "label": "______gap",
        "offset": 0,
        "slot": "1",
        "type": "t_array(t_uint256)50_storage"
      },
      {
        "astId": 28529,
        "contract": "contracts/strategies/Generalized4626Strategy.sol:Generalized4626Strategy",
        "label": "_deprecated_platformAddress",
        "offset": 0,
        "slot": "51",
        "type": "t_address"
      },
      {
        "astId": 28532,
        "contract": "contracts/strategies/Generalized4626Strategy.sol:Generalized4626Strategy",
        "label": "_deprecated_vaultAddress",
        "offset": 0,
        "slot": "52",
        "type": "t_address"
      },
      {
        "astId": 28536,
        "contract": "contracts/strategies/Generalized4626Strategy.sol:Generalized4626Strategy",
        "label": "assetToPToken",
        "offset": 0,
        "slot": "53",
        "type": "t_mapping(t_address,t_address)"
      },
      {
        "astId": 28539,
        "contract": "contracts/strategies/Generalized4626Strategy.sol:Generalized4626Strategy",
        "label": "assetsMapped",
        "offset": 0,
        "slot": "54",
        "type": "t_array(t_address)dyn_storage"
      },
      {
        "astId": 28541,
        "contract": "contracts/strategies/Generalized4626Strategy.sol:Generalized4626Strategy",
        "label": "_deprecated_rewardTokenAddress",
        "offset": 0,
        "slot": "55",
        "type": "t_address"
      },
      {
        "astId": 28543,
        "contract": "contracts/strategies/Generalized4626Strategy.sol:Generalized4626Strategy",
        "label": "_deprecated_rewardLiquidationThreshold",
        "offset": 0,
        "slot": "56",
        "type": "t_uint256"
      },
      {
        "astId": 28545,
        "contract": "contracts/strategies/Generalized4626Strategy.sol:Generalized4626Strategy",
        "label": "harvesterAddress",
        "offset": 0,
        "slot": "57",
        "type": "t_address"
      },
      {
        "astId": 28548,
        "contract": "contracts/strategies/Generalized4626Strategy.sol:Generalized4626Strategy",
        "label": "rewardTokenAddresses",
        "offset": 0,
        "slot": "58",
        "type": "t_array(t_address)dyn_storage"
      },
      {
        "astId": 28552,
        "contract": "contracts/strategies/Generalized4626Strategy.sol:Generalized4626Strategy",
        "label": "_reserved",
        "offset": 0,
        "slot": "59",
        "type": "t_array(t_int256)98_storage"
      },
      {
        "astId": 22625,
        "contract": "contracts/strategies/Generalized4626Strategy.sol:Generalized4626Strategy",
        "label": "_deprecate_shareToken",
        "offset": 0,
        "slot": "157",
        "type": "t_address"
      },
      {
        "astId": 22628,
        "contract": "contracts/strategies/Generalized4626Strategy.sol:Generalized4626Strategy",
        "label": "_deprecate_assetToken",
        "offset": 0,
        "slot": "158",
        "type": "t_address"
      },
      {
        "astId": 22638,
        "contract": "contracts/strategies/Generalized4626Strategy.sol:Generalized4626Strategy",
        "label": "__gap",
        "offset": 0,
        "slot": "159",
        "type": "t_array(t_uint256)50_storage"
      }
    ],
    "types": {
      "t_address": {
        "encoding": "inplace",
        "label": "address",
        "numberOfBytes": "20"
      },
      "t_array(t_address)dyn_storage": {
        "base": "t_address",
        "encoding": "dynamic_array",
        "label": "address[]",
        "numberOfBytes": "32"
      },
      "t_array(t_int256)98_storage": {
        "base": "t_int256",
        "encoding": "inplace",
        "label": "int256[98]",
        "numberOfBytes": "3136"
      },
      "t_array(t_uint256)50_storage": {
        "base": "t_uint256",
        "encoding": "inplace",
        "label": "uint256[50]",
        "numberOfBytes": "1600"
      },
      "t_bool": {
        "encoding": "inplace",
        "label": "bool",
        "numberOfBytes": "1"
      },
      "t_int256": {
        "encoding": "inplace",
        "label": "int256",
        "numberOfBytes": "32"
      },
      "t_mapping(t_address,t_address)": {
        "encoding": "mapping",
        "key": "t_address",
        "label": "mapping(address => address)",
        "numberOfBytes": "32",
        "value": "t_address"
      },
      "t_uint256": {
        "encoding": "inplace",
        "label": "uint256",
        "numberOfBytes": "32"
      }
    }
  }
}