{
  "address": "0x01CEa9a0e124Bd0e224326e30358A0E52aA4Ee23",
  "abi": [
    {
      "inputs": [
        {
          "components": [
            {
              "internalType": "address",
              "name": "platformAddress",
              "type": "address"
            },
            {
              "internalType": "address",
              "name": "vaultAddress",
              "type": "address"
            }
          ],
          "internalType": "struct InitializableAbstractStrategy.BaseStrategyConfig",
          "name": "_baseConfig",
          "type": "tuple"
        },
        {
          "internalType": "address",
          "name": "_assetToken",
          "type": "address"
        }
      ],
      "stateMutability": "nonpayable",
      "type": "constructor"
    },
    {
      "anonymous": false,
      "inputs": [
        {
          "indexed": true,
          "internalType": "address",
          "name": "token",
          "type": "address"
        },
        {
          "indexed": false,
          "internalType": "uint256",
          "name": "amount",
          "type": "uint256"
        }
      ],
      "name": "ClaimedRewards",
      "type": "event"
    },
    {
      "anonymous": false,
      "inputs": [
        {
          "indexed": true,
          "internalType": "address",
          "name": "_asset",
          "type": "address"
        },
        {
          "indexed": false,
          "internalType": "address",
          "name": "_pToken",
          "type": "address"
        },
        {
          "indexed": false,
          "internalType": "uint256",
          "name": "_amount",
          "type": "uint256"
        }
      ],
      "name": "Deposit",
      "type": "event"
    },
    {
      "anonymous": false,
      "inputs": [
        {
          "indexed": true,
          "internalType": "address",
          "name": "previousGovernor",
          "type": "address"
        },
        {
          "indexed": true,
          "internalType": "address",
          "name": "newGovernor",
          "type": "address"
        }
      ],
      "name": "GovernorshipTransferred",
      "type": "event"
    },
    {
      "anonymous": false,
      "inputs": [
        {
          "indexed": false,
          "internalType": "address",
          "name": "_oldHarvesterAddress",
          "type": "address"
        },
        {
          "indexed": false,
          "internalType": "address",
          "name": "_newHarvesterAddress",
          "type": "address"
        }
      ],
      "name": "HarvesterAddressesUpdated",
      "type": "event"
    },
    {
      "anonymous": false,
      "inputs": [
        {
          "indexed": true,
          "internalType": "address",
          "name": "_asset",
          "type": "address"
        },
        {
          "indexed": false,
          "internalType": "address",
          "name": "_pToken",
          "type": "address"
        }
      ],
      "name": "PTokenAdded",
      "type": "event"
    },
    {
      "anonymous": false,
      "inputs": [
        {
          "indexed": true,
          "internalType": "address",
          "name": "_asset",
          "type": "address"
        },
        {
          "indexed": false,
          "internalType": "address",
          "name": "_pToken",
          "type": "address"
        }
      ],
      "name": "PTokenRemoved",
      "type": "event"
    },
    {
      "anonymous": false,
      "inputs": [
        {
          "indexed": true,
          "internalType": "address",
          "name": "previousGovernor",
          "type": "address"
        },
        {
          "indexed": true,
          "internalType": "address",
          "name": "newGovernor",
          "type": "address"
        }
      ],
      "name": "PendingGovernorshipTransfer",
      "type": "event"
    },
    {
      "anonymous": false,
      "inputs": [
        {
          "indexed": false,
          "internalType": "address[]",
          "name": "_oldAddresses",
          "type": "address[]"
        },
        {
          "indexed": false,
          "internalType": "address[]",
          "name": "_newAddresses",
          "type": "address[]"
        }
      ],
      "name": "RewardTokenAddressesUpdated",
      "type": "event"
    },
    {
      "anonymous": false,
      "inputs": [
        {
          "indexed": false,
          "internalType": "address",
          "name": "recipient",
          "type": "address"
        },
        {
          "indexed": false,
          "internalType": "address",
          "name": "rewardToken",
          "type": "address"
        },
        {
          "indexed": false,
          "internalType": "uint256",
          "name": "amount",
          "type": "uint256"
        }
      ],
      "name": "RewardTokenCollected",
      "type": "event"
    },
    {
      "anonymous": false,
      "inputs": [
        {
          "indexed": true,
          "internalType": "address",
          "name": "_asset",
          "type": "address"
        },
        {
          "indexed": false,
          "internalType": "address",
          "name": "_pToken",
          "type": "address"
        },
        {
          "indexed": false,
          "internalType": "uint256",
          "name": "_amount",
          "type": "uint256"
        }
      ],
      "name": "Withdrawal",
      "type": "event"
    },
    {
      "inputs": [
        {
          "internalType": "address",
          "name": "",
          "type": "address"
        }
      ],
      "name": "assetToPToken",
      "outputs": [
        {
          "internalType": "address",
          "name": "",
          "type": "address"
        }
      ],
      "stateMutability": "view",
      "type": "function"
    },
    {
      "inputs": [],
      "name": "assetToken",
      "outputs": [
        {
          "internalType": "contract IERC20",
          "name": "",
          "type": "address"
        }
      ],
      "stateMutability": "view",
      "type": "function"
    },
    {
      "inputs": [
        {
          "internalType": "address",
          "name": "_asset",
          "type": "address"
        }
      ],
      "name": "checkBalance",
      "outputs": [
        {
          "internalType": "uint256",
          "name": "balance",
          "type": "uint256"
        }
      ],
      "stateMutability": "view",
      "type": "function"
    },
    {
      "inputs": [],
      "name": "claimGovernance",
      "outputs": [],
      "stateMutability": "nonpayable",
      "type": "function"
    },
    {
      "inputs": [],
      "name": "collectRewardTokens",
      "outputs": [],
      "stateMutability": "nonpayable",
      "type": "function"
    },
    {
      "inputs": [
        {
          "internalType": "address",
          "name": "_asset",
          "type": "address"
        },
        {
          "internalType": "uint256",
          "name": "_amount",
          "type": "uint256"
        }
      ],
      "name": "deposit",
      "outputs": [],
      "stateMutability": "nonpayable",
      "type": "function"
    },
    {
      "inputs": [],
      "name": "depositAll",
      "outputs": [],
      "stateMutability": "nonpayable",
      "type": "function"
    },
    {
      "inputs": [],
      "name": "getRewardTokenAddresses",
      "outputs": [
        {
          "internalType": "address[]",
          "name": "",
          "type": "address[]"
        }
      ],
      "stateMutability": "view",
      "type": "function"
    },
    {
      "inputs": [],
      "name": "governor",
      "outputs": [
        {
          "internalType": "address",
          "name": "",
          "type": "address"
        }
      ],
      "stateMutability": "view",
      "type": "function"
    },
    {
      "inputs": [],
      "name": "harvesterAddress",
      "outputs": [
        {
          "internalType": "address",
          "name": "",
          "type": "address"
        }
      ],
      "stateMutability": "view",
      "type": "function"
    },
    {
      "inputs": [],
      "name": "initialize",
      "outputs": [],
      "stateMutability": "nonpayable",
      "type": "function"
    },
    {
      "inputs": [],
      "name": "isGovernor",
      "outputs": [
        {
          "internalType": "bool",
          "name": "",
          "type": "bool"
        }
      ],
      "stateMutability": "view",
      "type": "function"
    },
    {
      "inputs": [
        {
          "internalType": "address",
          "name": "token",
          "type": "address"
        },
        {
          "internalType": "uint256",
          "name": "amount",
          "type": "uint256"
        },
        {
          "internalType": "bytes32[]",
          "name": "proof",
          "type": "bytes32[]"
        }
      ],
      "name": "merkleClaim",
      "outputs": [],
      "stateMutability": "nonpayable",
      "type": "function"
    },
    {
      "inputs": [],
      "name": "merkleDistributor",
      "outputs": [
        {
          "internalType": "contract IDistributor",
          "name": "",
          "type": "address"
        }
      ],
      "stateMutability": "view",
      "type": "function"
    },
    {
      "inputs": [],
      "name": "platformAddress",
      "outputs": [
        {
          "internalType": "address",
          "name": "",
          "type": "address"
        }
      ],
      "stateMutability": "view",
      "type": "function"
    },
    {
      "inputs": [
        {
          "internalType": "uint256",
          "name": "",
          "type": "uint256"
        }
      ],
      "name": "removePToken",
      "outputs": [],
      "stateMutability": "nonpayable",
      "type": "function"
    },
    {
      "inputs": [
        {
          "internalType": "uint256",
          "name": "",
          "type": "uint256"
        }
      ],
      "name": "rewardTokenAddresses",
      "outputs": [
        {
          "internalType": "address",
          "name": "",
          "type": "address"
        }
      ],
      "stateMutability": "view",
      "type": "function"
    },
    {
      "inputs": [],
      "name": "safeApproveAllTokens",
      "outputs": [],
      "stateMutability": "nonpayable",
      "type": "function"
    },
    {
      "inputs": [
        {
          "internalType": "address",
          "name": "_harvesterAddress",
          "type": "address"
        }
      ],
      "name": "setHarvesterAddress",
      "outputs": [],
      "stateMutability": "nonpayable",
      "type": "function"
    },
    {
      "inputs": [
        {
          "internalType": "address",
          "name": "",
          "type": "address"
        },
        {
          "internalType": "address",
          "name": "",
          "type": "address"
        }
      ],
      "name": "setPTokenAddress",
      "outputs": [],
      "stateMutability": "nonpayable",
      "type": "function"
    },
    {
      "inputs": [
        {
          "internalType": "address[]",
          "name": "_rewardTokenAddresses",
          "type": "address[]"
        }
      ],
      "name": "setRewardTokenAddresses",
      "outputs": [],
      "stateMutability": "nonpayable",
      "type": "function"
    },
    {
      "inputs": [],
      "name": "shareToken",
      "outputs": [
        {
          "internalType": "contract IERC20",
          "name": "",
          "type": "address"
        }
      ],
      "stateMutability": "view",
      "type": "function"
    },
    {
      "inputs": [
        {
          "internalType": "address",
          "name": "_asset",
          "type": "address"
        }
      ],
      "name": "supportsAsset",
      "outputs": [
        {
          "internalType": "bool",
          "name": "",
          "type": "bool"
        }
      ],
      "stateMutability": "view",
      "type": "function"
    },
    {
      "inputs": [
        {
          "internalType": "address",
          "name": "_newGovernor",
          "type": "address"
        }
      ],
      "name": "transferGovernance",
      "outputs": [],
      "stateMutability": "nonpayable",
      "type": "function"
    },
    {
      "inputs": [
        {
          "internalType": "address",
          "name": "_asset",
          "type": "address"
        },
        {
          "internalType": "uint256",
          "name": "_amount",
          "type": "uint256"
        }
      ],
      "name": "transferToken",
      "outputs": [],
      "stateMutability": "nonpayable",
      "type": "function"
    },
    {
      "inputs": [],
      "name": "vaultAddress",
      "outputs": [
        {
          "internalType": "address",
          "name": "",
          "type": "address"
        }
      ],
      "stateMutability": "view",
      "type": "function"
    },
    {
      "inputs": [
        {
          "internalType": "address",
          "name": "_recipient",
          "type": "address"
        },
        {
          "internalType": "address",
          "name": "_asset",
          "type": "address"
        },
        {
          "internalType": "uint256",
          "name": "_amount",
          "type": "uint256"
        }
      ],
      "name": "withdraw",
      "outputs": [],
      "stateMutability": "nonpayable",
      "type": "function"
    },
    {
      "inputs": [],
      "name": "withdrawAll",
      "outputs": [],
      "stateMutability": "nonpayable",
      "type": "function"
    }
  ],
  "transactionHash": "0xe79bfde1964f5c9978b949e5b2aaab4c98359665d73713cbb6d7d4f440e7d507",
  "args": [
    [
      "0xFB154c729A16802c4ad1E8f7FF539a8b9f49c960",
      "0xE75D77B1865Ae93c7eaa3040B038D7aA7BC02F70"
    ],
    "0xA0b86991c6218b36c1d19D4a2e9Eb0cE3606eB48"
  ],
  "numDeployments": 10,
  "solcInputHash": "5fe086b316374b8a69a32a69d3834ffe",
  "bytecode": "0x61010060405234801561001157600080fd5b506040516127cf3803806127cf83398101604081905261003091610076565b81516001600160a01b039081166080526020830151811660a0529151821660c0521660e0526100ff565b80516001600160a01b038116811461007157600080fd5b919050565b600080828403606081121561008a57600080fd5b604081121561009857600080fd5b50604080519081016001600160401b03811182821017156100c957634e487b7160e01b600052604160045260246000fd5b6040526100d58461005a565b81526100e36020850161005a565b602082015291506100f66040840161005a565b90509250929050565b60805160a05160c05160e0516125e86101e76000396000818161024401528181610372015281816105110152818161099b01528181610c1e01528181610f16015281816113800152818161156f015281816115ef015281816117200152611ad80152600081816102fc01528181610ddc01528181610f6101528181611477015261180f01526000818161027e015281816107cc01528181610cf201528181610e770152818161126c01526114e4015260008181610400015281816109ff01528181610c7201528181610ea5015281816113fb0152818161178b0152611aa801526125e86000f3fe608060405234801561001057600080fd5b50600436106101c45760003560e01c80638129fc1c116100f9578063c7af335211610097578063dbe55e5611610071578063dbe55e56146103fb578063de5f626814610422578063f4537f781461042a578063f6ca71b01461044557600080fd5b8063c7af3352146103cd578063d38bfff4146103d5578063d9caed12146103e857600080fd5b806396d538bb116100d357806396d538bb1461034f578063aa388af614610362578063ad1728cb146103b2578063c2e1e3f4146103ba57600080fd5b80638129fc1c14610331578063853828b6146103395780639136616a1461034157600080fd5b806347e7ef24116101665780635f515226116101405780635f515226146102c357806367c7066c146102e45780636c9fa59e146102f75780637b2d9b2c1461031e57600080fd5b806347e7ef24146102a05780635a063f63146102b35780635d36b190146102bb57600080fd5b80631072cbea116101a25780631072cbea1461022c5780631083f7611461023f578063237839f014610266578063430bf08a1461027957600080fd5b80630c340a24146101c95780630ed57b3a146101ee5780630fc3b4c414610203575b600080fd5b6101d161045a565b6040516001600160a01b0390911681526020015b60405180910390f35b6102016101fc36600461204c565b610477565b005b6101d161021136600461207f565b6035602052600090815260409020546001600160a01b031681565b61020161023a36600461209a565b6104e3565b6101d17f000000000000000000000000000000000000000000000000000000000000000081565b610201610274366004612110565b6105a2565b6101d17f000000000000000000000000000000000000000000000000000000000000000081565b6102016102ae36600461209a565b6107c1565b610201610852565b6102016108f1565b6102d66102d136600461207f565b610997565b6040519081526020016101e5565b6039546101d1906001600160a01b031681565b6101d17f000000000000000000000000000000000000000000000000000000000000000081565b6101d161032c36600461216a565b610ae2565b610201610b0c565b610201610ce7565b6102016101fc36600461216a565b61020161035d366004612183565b610fb6565b6103a261037036600461207f565b7f00000000000000000000000000000000000000000000000000000000000000006001600160a01b0390811691161490565b60405190151581526020016101e5565b6102016110d3565b6102016103c836600461207f565b6110ff565b6103a261118c565b6102016103e336600461207f565b6111bd565b6102016103f63660046121c5565b611261565b6101d17f000000000000000000000000000000000000000000000000000000000000000081565b6102016114d9565b6101d1733ef3d8ba38ebe18db133cec108f4d14ce00dd9ae81565b61044d61161c565b6040516101e59190612247565b60006104726000805160206125938339815191525490565b905090565b61047f61118c565b6104a45760405162461bcd60e51b815260040161049b9061225a565b60405180910390fd5b60405162461bcd60e51b81526020600482015260146024820152733ab739bab83837b93a32b210333ab731ba34b7b760611b604482015260640161049b565b6104eb61118c565b6105075760405162461bcd60e51b815260040161049b9061225a565b6001600160a01b037f00000000000000000000000000000000000000000000000000000000000000008116908316036105825760405162461bcd60e51b815260206004820152601f60248201527f43616e6e6f74207472616e7366657220737570706f7274656420617373657400604482015260640161049b565b61059e61058d61045a565b6001600160a01b038416908361167e565b5050565b6040805160018082528183019092526000916020808301908036833701905050905030816000815181106105d8576105d8612291565b6001600160a01b039290921660209283029190910190910152604080516001808252818301909252600091816020016020820280368337019050509050858160008151811061062957610629612291565b6001600160a01b039290921660209283029190910190910152604080516001808252818301909252600091816020016020820280368337019050509050858160008151811061067a5761067a612291565b6020908102919091010152604080516001808252818301909252600091816020015b606081526020019060019003908161069c57905050905085858080602002602001604051908101604052809392919081815260200183836020028082843760009201829052508551869450909250151590506106fa576106fa612291565b60209081029190910101526040516301c7ba5760e61b8152733ef3d8ba38ebe18db133cec108f4d14ce00dd9ae906371ee95c0906107429087908790879087906004016122a7565b600060405180830381600087803b15801561075c57600080fd5b505af1158015610770573d6000803e3d6000fd5b50505050876001600160a01b03167f2d5429efdeca7741a8cd94067b18d988bc4e5f1d5b8272c37b7bfc31e9bfa32c886040516107af91815260200190565b60405180910390a25050505050505050565b336001600160a01b037f000000000000000000000000000000000000000000000000000000000000000016146108095760405162461bcd60e51b815260040161049b90612395565b6000805160206125738339815191528054600119810161083b5760405162461bcd60e51b815260040161049b906123cc565b6002825561084984846116d5565b50600190555050565b6039546001600160a01b031633146108ac5760405162461bcd60e51b815260206004820152601b60248201527f43616c6c6572206973206e6f7420746865204861727665737465720000000000604482015260640161049b565b600080516020612573833981519152805460011981016108de5760405162461bcd60e51b815260040161049b906123cc565b600282556108ea61186b565b5060019055565b7f44c4d30b2eaad5130ad70c3ba6972730566f3e6359ab83e800d905c61b1c51db546001600160a01b0316336001600160a01b03161461098c5760405162461bcd60e51b815260206004820152603060248201527f4f6e6c79207468652070656e64696e6720476f7665726e6f722063616e20636f60448201526f6d706c6574652074686520636c61696d60801b606482015260840161049b565b6109953361197f565b565b60007f00000000000000000000000000000000000000000000000000000000000000006001600160a01b0316826001600160a01b0316146109ea5760405162461bcd60e51b815260040161049b906123f4565b6040516370a0823160e01b81523060048201527f0000000000000000000000000000000000000000000000000000000000000000906001600160a01b03821690634cdad5069082906370a0823190602401602060405180830381865afa158015610a58573d6000803e3d6000fd5b505050506040513d601f19601f82011682018060405250810190610a7c919061242b565b6040518263ffffffff1660e01b8152600401610a9a91815260200190565b602060405180830381865afa158015610ab7573d6000803e3d6000fd5b505050506040513d601f19601f82011682018060405250810190610adb919061242b565b9392505050565b603a8181548110610af257600080fd5b6000918252602090912001546001600160a01b0316905081565b610b1461118c565b610b305760405162461bcd60e51b815260040161049b9061225a565b600054610100900460ff1680610b49575060005460ff16155b610bac5760405162461bcd60e51b815260206004820152602e60248201527f496e697469616c697a61626c653a20636f6e747261637420697320616c72656160448201526d191e481a5b9a5d1a585b1a5e995960921b606482015260840161049b565b600054610100900460ff16158015610bce576000805461ffff19166101011790555b6040805160008082526001602080840182815260608501865293949293928501908036833750506040805160018082528183019092529293506000929150602080830190803683370190505090507f000000000000000000000000000000000000000000000000000000000000000082600081518110610c5057610c50612291565b60200260200101906001600160a01b031690816001600160a01b0316815250507f000000000000000000000000000000000000000000000000000000000000000081600081518110610ca457610ca4612291565b60200260200101906001600160a01b031690816001600160a01b031681525050610ccf8383836119de565b5050508015610ce4576000805461ff00191690555b50565b336001600160a01b037f0000000000000000000000000000000000000000000000000000000000000000161480610d365750610d2161045a565b6001600160a01b0316336001600160a01b0316145b610d8e5760405162461bcd60e51b815260206004820152602360248201527f43616c6c6572206973206e6f7420746865205661756c74206f7220476f7665726044820152623737b960e91b606482015260840161049b565b60008051602061257383398151915280546001198101610dc05760405162461bcd60e51b815260040161049b906123cc565b600282556040516370a0823160e01b81523060048201526000907f00000000000000000000000000000000000000000000000000000000000000006001600160a01b0316906370a0823190602401602060405180830381865afa158015610e2b573d6000803e3d6000fd5b505050506040513d601f19601f82011682018060405250810190610e4f919061242b565b905060008115610fac57604051635d043b2960e11b8152600481018390526001600160a01b037f0000000000000000000000000000000000000000000000000000000000000000811660248301523060448301527f0000000000000000000000000000000000000000000000000000000000000000169063ba087652906064016020604051808303816000875af1158015610eee573d6000803e3d6000fd5b505050506040513d601f19601f82011682018060405250810190610f12919061242b565b90507f00000000000000000000000000000000000000000000000000000000000000006001600160a01b03167f2717ead6b9200dd235aad468c9809ea400fe33ac69b5bfaa6d3e90fc922b63987f000000000000000000000000000000000000000000000000000000000000000083604051610fa39291906001600160a01b03929092168252602082015260400190565b60405180910390a25b5050600182555050565b610fbe61118c565b610fda5760405162461bcd60e51b815260040161049b9061225a565b8060005b81811015611084576000848483818110610ffa57610ffa612291565b905060200201602081019061100f919061207f565b6001600160a01b03160361107c5760405162461bcd60e51b815260206004820152602e60248201527f43616e206e6f742073657420616e20656d70747920616464726573732061732060448201526d30903932bbb0b932103a37b5b2b760911b606482015260840161049b565b600101610fde565b507f04c0b9649497d316554306e53678d5f5f5dbc3a06f97dec13ff4cfe98b986bbc603a84846040516110b993929190612444565b60405180910390a16110cd603a8484611f63565b50505050565b6110db61118c565b6110f75760405162461bcd60e51b815260040161049b9061225a565b610995611a91565b61110761118c565b6111235760405162461bcd60e51b815260040161049b9061225a565b603954604080516001600160a01b03928316815291831660208301527fe48386b84419f4d36e0f96c10cc3510b6fb1a33795620c5098b22472bbe90796910160405180910390a1603980546001600160a01b0319166001600160a01b0392909216919091179055565b60006111a46000805160206125938339815191525490565b6001600160a01b0316336001600160a01b031614905090565b6111c561118c565b6111e15760405162461bcd60e51b815260040161049b9061225a565b611209817f44c4d30b2eaad5130ad70c3ba6972730566f3e6359ab83e800d905c61b1c51db55565b806001600160a01b03166112296000805160206125938339815191525490565b6001600160a01b03167fa39cc5eb22d0f34d8beaefee8a3f17cc229c1a1d1ef87a5ad47313487b1c4f0d60405160405180910390a350565b336001600160a01b037f000000000000000000000000000000000000000000000000000000000000000016146112a95760405162461bcd60e51b815260040161049b90612395565b600080516020612573833981519152805460011981016112db5760405162461bcd60e51b815260040161049b906123cc565b600282556000831161132f5760405162461bcd60e51b815260206004820152601760248201527f4d75737420776974686472617720736f6d657468696e67000000000000000000604482015260640161049b565b6001600160a01b03851661137e5760405162461bcd60e51b8152602060048201526016602482015275135d5cdd081cdc1958da599e481c9958da5c1a595b9d60521b604482015260640161049b565b7f00000000000000000000000000000000000000000000000000000000000000006001600160a01b0316846001600160a01b0316146113cf5760405162461bcd60e51b815260040161049b906123f4565b604051632d182be560e21b8152600481018490526001600160a01b0386811660248301523060448301527f0000000000000000000000000000000000000000000000000000000000000000169063b460af94906064016020604051808303816000875af1158015611444573d6000803e3d6000fd5b505050506040513d601f19601f82011682018060405250810190611468919061242b565b50604080516001600160a01b037f000000000000000000000000000000000000000000000000000000000000000081168252602082018690528616917f2717ead6b9200dd235aad468c9809ea400fe33ac69b5bfaa6d3e90fc922b6398910160405180910390a25060019055505050565b336001600160a01b037f000000000000000000000000000000000000000000000000000000000000000016146115215760405162461bcd60e51b815260040161049b90612395565b600080516020612573833981519152805460011981016115535760405162461bcd60e51b815260040161049b906123cc565b600282556040516370a0823160e01b81523060048201526000907f00000000000000000000000000000000000000000000000000000000000000006001600160a01b0316906370a0823190602401602060405180830381865afa1580156115be573d6000803e3d6000fd5b505050506040513d601f19601f820116820180604052508101906115e2919061242b565b90508015611614576116147f0000000000000000000000000000000000000000000000000000000000000000826116d5565b505060019055565b6060603a80548060200260200160405190810160405280929190818152602001828054801561167457602002820191906000526020600020905b81546001600160a01b03168152600190910190602001808311611656575b5050505050905090565b604080516001600160a01b038416602482015260448082018490528251808303909101815260649091019091526020810180516001600160e01b031663a9059cbb60e01b1790526116d0908490611b45565b505050565b6000811161171e5760405162461bcd60e51b81526020600482015260166024820152754d757374206465706f73697420736f6d657468696e6760501b604482015260640161049b565b7f00000000000000000000000000000000000000000000000000000000000000006001600160a01b0316826001600160a01b03161461176f5760405162461bcd60e51b815260040161049b906123f4565b604051636e553f6560e01b8152600481018290523060248201527f00000000000000000000000000000000000000000000000000000000000000006001600160a01b031690636e553f65906044016020604051808303816000875af11580156117dc573d6000803e3d6000fd5b505050506040513d601f19601f82011682018060405250810190611800919061242b565b50604080516001600160a01b037f000000000000000000000000000000000000000000000000000000000000000081168252602082018490528416917f5548c837ab068cf56a2c2479df0882a4922fd203edb7517321831d95078c5f62910160405180910390a25050565b603a5460005b8181101561059e576000603a828154811061188e5761188e612291565b60009182526020822001546040516370a0823160e01b81523060048201526001600160a01b03909116925082906370a0823190602401602060405180830381865afa1580156118e1573d6000803e3d6000fd5b505050506040513d601f19601f82011682018060405250810190611905919061242b565b9050801561197557603954604080516001600160a01b039283168152918416602083015281018290527ff6c07a063ed4e63808eb8da7112d46dbcd38de2b40a73dbcc9353c5a94c723539060600160405180910390a1603954611975906001600160a01b0384811691168361167e565b5050600101611871565b6001600160a01b0381166119d55760405162461bcd60e51b815260206004820152601a60248201527f4e657720476f7665726e6f722069732061646472657373283029000000000000604482015260640161049b565b610ce481611c17565b82516119f190603a906020860190611fc6565b50815181518114611a3b5760405162461bcd60e51b8152602060048201526014602482015273496e76616c696420696e7075742061727261797360601b604482015260640161049b565b60005b81811015611a8a57611a82848281518110611a5b57611a5b612291565b6020026020010151848381518110611a7557611a75612291565b6020026020010151611c7e565b600101611a3e565b5050505050565b60405163095ea7b360e01b81526001600160a01b037f00000000000000000000000000000000000000000000000000000000000000008116600483015260001960248301527f0000000000000000000000000000000000000000000000000000000000000000169063095ea7b3906044016020604051808303816000875af1158015611b21573d6000803e3d6000fd5b505050506040513d601f19601f82011682018060405250810190610ce491906124dd565b6000611b9a826040518060400160405280602081526020017f5361666545524332303a206c6f772d6c6576656c2063616c6c206661696c6564815250856001600160a01b0316611de39092919063ffffffff16565b8051909150156116d05780806020019051810190611bb891906124dd565b6116d05760405162461bcd60e51b815260206004820152602a60248201527f5361666545524332303a204552433230206f7065726174696f6e20646964206e6044820152691bdd081cdd58d8d9595960b21b606482015260840161049b565b806001600160a01b0316611c376000805160206125938339815191525490565b6001600160a01b03167fc7c0c772add429241571afb3805861fb3cfa2af374534088b76cdb4325a87e9a60405160405180910390a360008051602061259383398151915255565b6001600160a01b038281166000908152603560205260409020541615611cdb5760405162461bcd60e51b81526020600482015260126024820152711c151bdad95b88185b1c9958591e481cd95d60721b604482015260640161049b565b6001600160a01b03821615801590611cfb57506001600160a01b03811615155b611d3b5760405162461bcd60e51b8152602060048201526011602482015270496e76616c69642061646472657373657360781b604482015260640161049b565b6001600160a01b03828116600081815260356020908152604080832080549587166001600160a01b031996871681179091556036805460018101825594527f4a11f94e20a93c79f6ec743a1954ec4fc2c08429ae2122118bf234b2185c81b890930180549095168417909455925190815290917fef6485b84315f9b1483beffa32aae9a0596890395e3d7521f1c5fbb51790e765910160405180910390a261059e8282611dfa565b6060611df28484600085611e02565b949350505050565b61059e611a91565b606082471015611e635760405162461bcd60e51b815260206004820152602660248201527f416464726573733a20696e73756666696369656e742062616c616e636520666f6044820152651c8818d85b1b60d21b606482015260840161049b565b843b611eb15760405162461bcd60e51b815260206004820152601d60248201527f416464726573733a2063616c6c20746f206e6f6e2d636f6e7472616374000000604482015260640161049b565b600080866001600160a01b03168587604051611ecd9190612523565b60006040518083038185875af1925050503d8060008114611f0a576040519150601f19603f3d011682016040523d82523d6000602084013e611f0f565b606091505b5091509150611f1f828286611f2a565b979650505050505050565b60608315611f39575081610adb565b825115611f495782518084602001fd5b8160405162461bcd60e51b815260040161049b919061253f565b828054828255906000526020600020908101928215611fb6579160200282015b82811115611fb65781546001600160a01b0319166001600160a01b03843516178255602090920191600190910190611f83565b50611fc292915061201b565b5090565b828054828255906000526020600020908101928215611fb6579160200282015b82811115611fb657825182546001600160a01b0319166001600160a01b03909116178255602090920191600190910190611fe6565b5b80821115611fc2576000815560010161201c565b80356001600160a01b038116811461204757600080fd5b919050565b6000806040838503121561205f57600080fd5b61206883612030565b915061207660208401612030565b90509250929050565b60006020828403121561209157600080fd5b610adb82612030565b600080604083850312156120ad57600080fd5b6120b683612030565b946020939093013593505050565b60008083601f8401126120d657600080fd5b50813567ffffffffffffffff8111156120ee57600080fd5b6020830191508360208260051b850101111561210957600080fd5b9250929050565b6000806000806060858703121561212657600080fd5b61212f85612030565b935060208501359250604085013567ffffffffffffffff81111561215257600080fd5b61215e878288016120c4565b95989497509550505050565b60006020828403121561217c57600080fd5b5035919050565b6000806020838503121561219657600080fd5b823567ffffffffffffffff8111156121ad57600080fd5b6121b9858286016120c4565b90969095509350505050565b6000806000606084860312156121da57600080fd5b6121e384612030565b92506121f160208501612030565b929592945050506040919091013590565b600081518084526020840193506020830160005b8281101561223d5781516001600160a01b0316865260209586019590910190600101612216565b5093949350505050565b602081526000610adb6020830184612202565b6020808252601a908201527f43616c6c6572206973206e6f742074686520476f7665726e6f72000000000000604082015260600190565b634e487b7160e01b600052603260045260246000fd5b6080815260006122ba6080830187612202565b82810360208401526122cc8187612202565b83810360408501528551808252602080880193509091019060005b818110156123055783518352602093840193909201916001016122e7565b50508381036060850152845180825260208083019350600582901b8301810190870160005b8381101561238557848303601f190186528151805180855260209182019185019060005b8181101561236c57835183526020938401939092019160010161234e565b505060209788019790945092909201915060010161232a565b50909a9950505050505050505050565b60208082526017908201527f43616c6c6572206973206e6f7420746865205661756c74000000000000000000604082015260600190565b6020808252600e908201526d1499595b9d1c985b9d0818d85b1b60921b604082015260600190565b60208082526018908201527f556e657870656374656420617373657420616464726573730000000000000000604082015260600190565b60006020828403121561243d57600080fd5b5051919050565b6040808252845490820181905260008581526020812090916060840190835b8181101561248a5783546001600160a01b0316835260019384019360209093019201612463565b50508381036020808601919091528582520190508460005b858110156124d1576001600160a01b036124bb83612030565b16835260209283019291909101906001016124a2565b50909695505050505050565b6000602082840312156124ef57600080fd5b81518015158114610adb57600080fd5b60005b8381101561251a578181015183820152602001612502565b50506000910152565b600082516125358184602087016124ff565b9190910192915050565b602081526000825180602084015261255e8160408501602087016124ff565b601f01601f1916919091016040019291505056fe53bf423e48ed90e97d02ab0ebab13b2a235a6bfbe9c321847d5c175333ac45357bea13895fa79d2831e0a9e28edede30099005a50d652d8957cf8a607ee6ca4aa2646970667358221220400f53ebc6a879908b5e2017c44280bf74719d4889e6302ad507c274bb5cc5c764736f6c634300081c0033",
  "libraries": {},
  "devdoc": {
    "kind": "dev",
    "methods": {
      "checkBalance(address)": {
        "params": {
          "_asset": "Address of the asset"
        },
        "returns": {
          "balance": "   Total value of the asset in the platform"
        }
      },
      "constructor": {
        "params": {
          "_assetToken": "Address of the ERC-4626 asset token. eg frxETH or DAI",
          "_baseConfig": "Base strategy config with platformAddress (ERC-4626 Vault contract), eg sfrxETH or sDAI, and vaultAddress (OToken Vault contract), eg VaultProxy or OETHVaultProxy"
        }
      },
      "deposit(address,uint256)": {
        "details": "Deposit assets by converting them to shares",
        "params": {
          "_amount": "Amount of asset to deposit",
          "_asset": "Address of asset to deposit"
        }
      },
      "depositAll()": {
        "details": "Deposit the entire balance of assetToken to gain shareToken"
      },
      "getRewardTokenAddresses()": {
        "returns": {
          "_0": "address[] the reward token addresses."
        }
      },
      "merkleClaim(address,uint256,bytes32[])": {
        "params": {
          "amount": "The amount of tokens to claim.",
          "proof": "The Merkle proof to validate the claim.",
          "token": "The address of the token to claim."
        }
      },
      "removePToken(uint256)": {
        "details": "If the ERC-4626 Tokenized Vault needed to be changed, a new contract would need to be deployed and the proxy updated."
      },
      "setHarvesterAddress(address)": {
        "params": {
          "_harvesterAddress": "Address of the harvester contract."
        }
      },
      "setPTokenAddress(address,address)": {
        "details": "If the ERC-4626 Tokenized Vault needed to be changed, a new contract would need to be deployed and the proxy updated."
      },
      "setRewardTokenAddresses(address[])": {
        "params": {
          "_rewardTokenAddresses": "Array of reward token addresses"
        }
      },
      "supportsAsset(address)": {
        "details": "Returns bool indicating whether asset is supported by strategy",
        "params": {
          "_asset": "Address of the asset"
        }
      },
      "transferGovernance(address)": {
        "params": {
          "_newGovernor": "Address of the new Governor"
        }
      },
      "transferToken(address,uint256)": {
        "params": {
          "_amount": "Amount of the asset to transfer",
          "_asset": "Address for the asset"
        }
      },
      "withdraw(address,address,uint256)": {
        "details": "Withdraw asset by burning shares",
        "params": {
          "_amount": "Amount of asset to withdraw",
          "_asset": "Address of asset to withdraw",
          "_recipient": "Address to receive withdrawn asset"
        }
      },
      "withdrawAll()": {
        "details": "Remove all assets from platform and send them to Vault contract."
      }
    },
    "stateVariables": {
      "_deprecate_assetToken": {
        "details": "Replaced with an immutable variable"
      },
      "_deprecate_shareToken": {
        "details": "Replaced with an immutable variable"
      }
    },
    "version": 1
  },
  "userdoc": {
    "kind": "user",
    "methods": {
      "assetToPToken(address)": {
        "notice": "asset => pToken (Platform Specific Token Address)"
      },
      "checkBalance(address)": {
        "notice": "Get the total asset value held in the platform"
      },
      "claimGovernance()": {
        "notice": "Claim Governance of the contract to a new account (`newGovernor`). Can only be called by the new Governor."
      },
      "collectRewardTokens()": {
        "notice": "Collect accumulated reward token and send to Vault."
      },
      "getRewardTokenAddresses()": {
        "notice": "Get the reward token addresses."
      },
      "governor()": {
        "notice": "Returns the address of the current Governor."
      },
      "harvesterAddress()": {
        "notice": "Address of the Harvester contract allowed to collect reward tokens"
      },
      "isGovernor()": {
        "notice": "Returns true if the caller is the current Governor."
      },
      "merkleClaim(address,uint256,bytes32[])": {
        "notice": "Claim tokens from the Merkle Distributor"
      },
      "merkleDistributor()": {
        "notice": "The address of the Merkle Distributor contract."
      },
      "platformAddress()": {
        "notice": "Address of the underlying platform"
      },
      "removePToken(uint256)": {
        "notice": "is not supported for this strategy as the asset and ERC-4626 Tokenized Vault are set at deploy time."
      },
      "rewardTokenAddresses(uint256)": {
        "notice": "Address of the reward tokens. eg CRV, BAL, CVX, AURA"
      },
      "safeApproveAllTokens()": {
        "notice": "Governor approves the ERC-4626 Tokenized Vault to spend the asset."
      },
      "setHarvesterAddress(address)": {
        "notice": "Set the Harvester contract that can collect rewards."
      },
      "setPTokenAddress(address,address)": {
        "notice": "is not supported for this strategy as the asset and ERC-4626 Tokenized Vault are set at deploy time."
      },
      "setRewardTokenAddresses(address[])": {
        "notice": "Set the reward token addresses. Any old addresses will be overwritten."
      },
      "transferGovernance(address)": {
        "notice": "Transfers Governance of the contract to a new account (`newGovernor`). Can only be called by the current Governor. Must be claimed for this to complete"
      },
      "transferToken(address,uint256)": {
        "notice": "Transfer token to governor. Intended for recovering tokens stuck in      strategy contracts, i.e. mistaken sends."
      },
      "vaultAddress()": {
        "notice": "Address of the OToken vault"
      }
    },
    "version": 1
  },
  "storageLayout": {
    "storage": [
      {
        "astId": 4786,
        "contract": "contracts/strategies/Generalized4626Strategy.sol:Generalized4626Strategy",
        "label": "initialized",
        "offset": 0,
        "slot": "0",
        "type": "t_bool"
      },
      {
        "astId": 4789,
        "contract": "contracts/strategies/Generalized4626Strategy.sol:Generalized4626Strategy",
        "label": "initializing",
        "offset": 1,
        "slot": "0",
        "type": "t_bool"
      },
      {
        "astId": 4829,
        "contract": "contracts/strategies/Generalized4626Strategy.sol:Generalized4626Strategy",
        "label": "______gap",
        "offset": 0,
        "slot": "1",
        "type": "t_array(t_uint256)50_storage"
      },
      {
        "astId": 4909,
        "contract": "contracts/strategies/Generalized4626Strategy.sol:Generalized4626Strategy",
        "label": "_deprecated_platformAddress",
        "offset": 0,
        "slot": "51",
        "type": "t_address"
      },
      {
        "astId": 4912,
        "contract": "contracts/strategies/Generalized4626Strategy.sol:Generalized4626Strategy",
        "label": "_deprecated_vaultAddress",
        "offset": 0,
        "slot": "52",
        "type": "t_address"
      },
      {
        "astId": 4917,
        "contract": "contracts/strategies/Generalized4626Strategy.sol:Generalized4626Strategy",
        "label": "assetToPToken",
        "offset": 0,
        "slot": "53",
        "type": "t_mapping(t_address,t_address)"
      },
      {
        "astId": 4921,
        "contract": "contracts/strategies/Generalized4626Strategy.sol:Generalized4626Strategy",
        "label": "assetsMapped",
        "offset": 0,
        "slot": "54",
        "type": "t_array(t_address)dyn_storage"
      },
      {
        "astId": 4923,
        "contract": "contracts/strategies/Generalized4626Strategy.sol:Generalized4626Strategy",
        "label": "_deprecated_rewardTokenAddress",
        "offset": 0,
        "slot": "55",
        "type": "t_address"
      },
      {
        "astId": 4925,
        "contract": "contracts/strategies/Generalized4626Strategy.sol:Generalized4626Strategy",
        "label": "_deprecated_rewardLiquidationThreshold",
        "offset": 0,
        "slot": "56",
        "type": "t_uint256"
      },
      {
        "astId": 4928,
        "contract": "contracts/strategies/Generalized4626Strategy.sol:Generalized4626Strategy",
        "label": "harvesterAddress",
        "offset": 0,
        "slot": "57",
        "type": "t_address"
      },
      {
        "astId": 4932,
        "contract": "contracts/strategies/Generalized4626Strategy.sol:Generalized4626Strategy",
        "label": "rewardTokenAddresses",
        "offset": 0,
        "slot": "58",
        "type": "t_array(t_address)dyn_storage"
      },
      {
        "astId": 4936,
        "contract": "contracts/strategies/Generalized4626Strategy.sol:Generalized4626Strategy",
        "label": "_reserved",
        "offset": 0,
        "slot": "59",
        "type": "t_array(t_int256)98_storage"
      },
      {
        "astId": 2437,
        "contract": "contracts/strategies/Generalized4626Strategy.sol:Generalized4626Strategy",
        "label": "_deprecate_shareToken",
        "offset": 0,
        "slot": "157",
        "type": "t_address"
      },
      {
        "astId": 2440,
        "contract": "contracts/strategies/Generalized4626Strategy.sol:Generalized4626Strategy",
        "label": "_deprecate_assetToken",
        "offset": 0,
        "slot": "158",
        "type": "t_address"
      },
      {
        "astId": 2450,
        "contract": "contracts/strategies/Generalized4626Strategy.sol:Generalized4626Strategy",
        "label": "__gap",
        "offset": 0,
        "slot": "159",
        "type": "t_array(t_uint256)50_storage"
      }
    ],
    "types": {
      "t_address": {
        "encoding": "inplace",
        "label": "address",
        "numberOfBytes": "20"
      },
      "t_array(t_address)dyn_storage": {
        "base": "t_address",
        "encoding": "dynamic_array",
        "label": "address[]",
        "numberOfBytes": "32"
      },
      "t_array(t_int256)98_storage": {
        "base": "t_int256",
        "encoding": "inplace",
        "label": "int256[98]",
        "numberOfBytes": "3136"
      },
      "t_array(t_uint256)50_storage": {
        "base": "t_uint256",
        "encoding": "inplace",
        "label": "uint256[50]",
        "numberOfBytes": "1600"
      },
      "t_bool": {
        "encoding": "inplace",
        "label": "bool",
        "numberOfBytes": "1"
      },
      "t_int256": {
        "encoding": "inplace",
        "label": "int256",
        "numberOfBytes": "32"
      },
      "t_mapping(t_address,t_address)": {
        "encoding": "mapping",
        "key": "t_address",
        "label": "mapping(address => address)",
        "numberOfBytes": "32",
        "value": "t_address"
      },
      "t_uint256": {
        "encoding": "inplace",
        "label": "uint256",
        "numberOfBytes": "32"
      }
    }
  }
}