{
  "address": "0xd7a5997EabF06Ab8F2414A4C5a2470706EC4Baa7",
  "abi": [
    {
      "inputs": [
        {
          "components": [
            {
              "internalType": "address",
              "name": "platformAddress",
              "type": "address"
            },
            {
              "internalType": "address",
              "name": "vaultAddress",
              "type": "address"
            }
          ],
          "internalType": "struct InitializableAbstractStrategy.BaseStrategyConfig",
          "name": "_baseConfig",
          "type": "tuple"
        },
        {
          "internalType": "address",
          "name": "_assetToken",
          "type": "address"
        }
      ],
      "stateMutability": "nonpayable",
      "type": "constructor"
    },
    {
      "anonymous": false,
      "inputs": [
        {
          "indexed": true,
          "internalType": "address",
          "name": "_asset",
          "type": "address"
        },
        {
          "indexed": false,
          "internalType": "address",
          "name": "_pToken",
          "type": "address"
        },
        {
          "indexed": false,
          "internalType": "uint256",
          "name": "_amount",
          "type": "uint256"
        }
      ],
      "name": "Deposit",
      "type": "event"
    },
    {
      "anonymous": false,
      "inputs": [
        {
          "indexed": true,
          "internalType": "address",
          "name": "previousGovernor",
          "type": "address"
        },
        {
          "indexed": true,
          "internalType": "address",
          "name": "newGovernor",
          "type": "address"
        }
      ],
      "name": "GovernorshipTransferred",
      "type": "event"
    },
    {
      "anonymous": false,
      "inputs": [
        {
          "indexed": false,
          "internalType": "address",
          "name": "_oldHarvesterAddress",
          "type": "address"
        },
        {
          "indexed": false,
          "internalType": "address",
          "name": "_newHarvesterAddress",
          "type": "address"
        }
      ],
      "name": "HarvesterAddressesUpdated",
      "type": "event"
    },
    {
      "anonymous": false,
      "inputs": [
        {
          "indexed": true,
          "internalType": "address",
          "name": "_asset",
          "type": "address"
        },
        {
          "indexed": false,
          "internalType": "address",
          "name": "_pToken",
          "type": "address"
        }
      ],
      "name": "PTokenAdded",
      "type": "event"
    },
    {
      "anonymous": false,
      "inputs": [
        {
          "indexed": true,
          "internalType": "address",
          "name": "_asset",
          "type": "address"
        },
        {
          "indexed": false,
          "internalType": "address",
          "name": "_pToken",
          "type": "address"
        }
      ],
      "name": "PTokenRemoved",
      "type": "event"
    },
    {
      "anonymous": false,
      "inputs": [
        {
          "indexed": true,
          "internalType": "address",
          "name": "previousGovernor",
          "type": "address"
        },
        {
          "indexed": true,
          "internalType": "address",
          "name": "newGovernor",
          "type": "address"
        }
      ],
      "name": "PendingGovernorshipTransfer",
      "type": "event"
    },
    {
      "anonymous": false,
      "inputs": [
        {
          "indexed": false,
          "internalType": "address[]",
          "name": "_oldAddresses",
          "type": "address[]"
        },
        {
          "indexed": false,
          "internalType": "address[]",
          "name": "_newAddresses",
          "type": "address[]"
        }
      ],
      "name": "RewardTokenAddressesUpdated",
      "type": "event"
    },
    {
      "anonymous": false,
      "inputs": [
        {
          "indexed": false,
          "internalType": "address",
          "name": "recipient",
          "type": "address"
        },
        {
          "indexed": false,
          "internalType": "address",
          "name": "rewardToken",
          "type": "address"
        },
        {
          "indexed": false,
          "internalType": "uint256",
          "name": "amount",
          "type": "uint256"
        }
      ],
      "name": "RewardTokenCollected",
      "type": "event"
    },
    {
      "anonymous": false,
      "inputs": [
        {
          "indexed": true,
          "internalType": "address",
          "name": "_asset",
          "type": "address"
        },
        {
          "indexed": false,
          "internalType": "address",
          "name": "_pToken",
          "type": "address"
        },
        {
          "indexed": false,
          "internalType": "uint256",
          "name": "_amount",
          "type": "uint256"
        }
      ],
      "name": "Withdrawal",
      "type": "event"
    },
    {
      "inputs": [
        {
          "internalType": "address",
          "name": "",
          "type": "address"
        }
      ],
      "name": "assetToPToken",
      "outputs": [
        {
          "internalType": "address",
          "name": "",
          "type": "address"
        }
      ],
      "stateMutability": "view",
      "type": "function"
    },
    {
      "inputs": [],
      "name": "assetToken",
      "outputs": [
        {
          "internalType": "contract IERC20",
          "name": "",
          "type": "address"
        }
      ],
      "stateMutability": "view",
      "type": "function"
    },
    {
      "inputs": [
        {
          "internalType": "address",
          "name": "_asset",
          "type": "address"
        }
      ],
      "name": "checkBalance",
      "outputs": [
        {
          "internalType": "uint256",
          "name": "balance",
          "type": "uint256"
        }
      ],
      "stateMutability": "view",
      "type": "function"
    },
    {
      "inputs": [],
      "name": "claimGovernance",
      "outputs": [],
      "stateMutability": "nonpayable",
      "type": "function"
    },
    {
      "inputs": [],
      "name": "collectRewardTokens",
      "outputs": [],
      "stateMutability": "nonpayable",
      "type": "function"
    },
    {
      "inputs": [
        {
          "internalType": "address",
          "name": "_asset",
          "type": "address"
        },
        {
          "internalType": "uint256",
          "name": "_amount",
          "type": "uint256"
        }
      ],
      "name": "deposit",
      "outputs": [],
      "stateMutability": "nonpayable",
      "type": "function"
    },
    {
      "inputs": [],
      "name": "depositAll",
      "outputs": [],
      "stateMutability": "nonpayable",
      "type": "function"
    },
    {
      "inputs": [],
      "name": "getRewardTokenAddresses",
      "outputs": [
        {
          "internalType": "address[]",
          "name": "",
          "type": "address[]"
        }
      ],
      "stateMutability": "view",
      "type": "function"
    },
    {
      "inputs": [],
      "name": "governor",
      "outputs": [
        {
          "internalType": "address",
          "name": "",
          "type": "address"
        }
      ],
      "stateMutability": "view",
      "type": "function"
    },
    {
      "inputs": [],
      "name": "harvesterAddress",
      "outputs": [
        {
          "internalType": "address",
          "name": "",
          "type": "address"
        }
      ],
      "stateMutability": "view",
      "type": "function"
    },
    {
      "inputs": [],
      "name": "initialize",
      "outputs": [],
      "stateMutability": "nonpayable",
      "type": "function"
    },
    {
      "inputs": [],
      "name": "isGovernor",
      "outputs": [
        {
          "internalType": "bool",
          "name": "",
          "type": "bool"
        }
      ],
      "stateMutability": "view",
      "type": "function"
    },
    {
      "inputs": [],
      "name": "platformAddress",
      "outputs": [
        {
          "internalType": "address",
          "name": "",
          "type": "address"
        }
      ],
      "stateMutability": "view",
      "type": "function"
    },
    {
      "inputs": [
        {
          "internalType": "uint256",
          "name": "",
          "type": "uint256"
        }
      ],
      "name": "removePToken",
      "outputs": [],
      "stateMutability": "nonpayable",
      "type": "function"
    },
    {
      "inputs": [
        {
          "internalType": "uint256",
          "name": "",
          "type": "uint256"
        }
      ],
      "name": "rewardTokenAddresses",
      "outputs": [
        {
          "internalType": "address",
          "name": "",
          "type": "address"
        }
      ],
      "stateMutability": "view",
      "type": "function"
    },
    {
      "inputs": [],
      "name": "safeApproveAllTokens",
      "outputs": [],
      "stateMutability": "nonpayable",
      "type": "function"
    },
    {
      "inputs": [
        {
          "internalType": "address",
          "name": "_harvesterAddress",
          "type": "address"
        }
      ],
      "name": "setHarvesterAddress",
      "outputs": [],
      "stateMutability": "nonpayable",
      "type": "function"
    },
    {
      "inputs": [
        {
          "internalType": "address",
          "name": "",
          "type": "address"
        },
        {
          "internalType": "address",
          "name": "",
          "type": "address"
        }
      ],
      "name": "setPTokenAddress",
      "outputs": [],
      "stateMutability": "nonpayable",
      "type": "function"
    },
    {
      "inputs": [
        {
          "internalType": "address[]",
          "name": "_rewardTokenAddresses",
          "type": "address[]"
        }
      ],
      "name": "setRewardTokenAddresses",
      "outputs": [],
      "stateMutability": "nonpayable",
      "type": "function"
    },
    {
      "inputs": [],
      "name": "shareToken",
      "outputs": [
        {
          "internalType": "contract IERC20",
          "name": "",
          "type": "address"
        }
      ],
      "stateMutability": "view",
      "type": "function"
    },
    {
      "inputs": [
        {
          "internalType": "address",
          "name": "_asset",
          "type": "address"
        }
      ],
      "name": "supportsAsset",
      "outputs": [
        {
          "internalType": "bool",
          "name": "",
          "type": "bool"
        }
      ],
      "stateMutability": "view",
      "type": "function"
    },
    {
      "inputs": [
        {
          "internalType": "address",
          "name": "_newGovernor",
          "type": "address"
        }
      ],
      "name": "transferGovernance",
      "outputs": [],
      "stateMutability": "nonpayable",
      "type": "function"
    },
    {
      "inputs": [
        {
          "internalType": "address",
          "name": "_asset",
          "type": "address"
        },
        {
          "internalType": "uint256",
          "name": "_amount",
          "type": "uint256"
        }
      ],
      "name": "transferToken",
      "outputs": [],
      "stateMutability": "nonpayable",
      "type": "function"
    },
    {
      "inputs": [],
      "name": "vaultAddress",
      "outputs": [
        {
          "internalType": "address",
          "name": "",
          "type": "address"
        }
      ],
      "stateMutability": "view",
      "type": "function"
    },
    {
      "inputs": [
        {
          "internalType": "address",
          "name": "_recipient",
          "type": "address"
        },
        {
          "internalType": "address",
          "name": "_asset",
          "type": "address"
        },
        {
          "internalType": "uint256",
          "name": "_amount",
          "type": "uint256"
        }
      ],
      "name": "withdraw",
      "outputs": [],
      "stateMutability": "nonpayable",
      "type": "function"
    },
    {
      "inputs": [],
      "name": "withdrawAll",
      "outputs": [],
      "stateMutability": "nonpayable",
      "type": "function"
    }
  ],
  "transactionHash": "0xbb735db8c73d720a07876be176cd300cd44ffb51bffeed19f80f1e32fb7f0f48",
  "args": [
    [
      "0x8CB3649114051cA5119141a34C200D65dc0Faa73",
      "0xE75D77B1865Ae93c7eaa3040B038D7aA7BC02F70"
    ],
    "0xdAC17F958D2ee523a2206206994597C13D831ec7"
  ],
  "numDeployments": 1,
  "solcInputHash": "3949701d43759ba19f5651ece1fa739b",
  "bytecode": "0x6101006040523480156200001257600080fd5b50604051620024bf380380620024bf8339810160408190526200003591620000ef565b81818162000050336000805160206200249f83398151915255565b6000805160206200249f833981519152546040516001600160a01b03909116906000907fc7c0c772add429241571afb3805861fb3cfa2af374534088b76cdb4325a87e9a908290a380516001600160601b0319606091821b8116608052602090920151811b821660a0529251831b811660c052911b1660e05250620001819050565b80516001600160a01b0381168114620000ea57600080fd5b919050565b60008082840360608112156200010457600080fd5b60408112156200011357600080fd5b50604080519081016001600160401b03811182821017156200014557634e487b7160e01b600052604160045260246000fd5b6040526200015384620000d2565b81526200016360208501620000d2565b602082015291506200017860408401620000d2565b90509250929050565b60805160601c60a05160601c60c05160601c60e05160601c612229620002766000396000818161020e01528181610329015281816104a50152818161071a0152818161094201528181610c58015281816110cb015281816112c9015281816113580152818161148901526118d20152600081816102b301528181610b0001528181610ca3015281816111d101526115870152600081816102350152818161054b01528181610a1601528181610baa01528181610fb7015261123e0152600081816103b70152818161077e0152818161099601528181610bd801528181611146015281816114f401526118a201526122296000f3fe608060405234801561001057600080fd5b506004361061018e5760003560e01c80638129fc1c116100de578063c2e1e3f411610097578063d9caed1211610071578063d9caed121461039f578063dbe55e56146103b2578063de5f6268146103d9578063f6ca71b0146103e157600080fd5b8063c2e1e3f414610371578063c7af335214610384578063d38bfff41461038c57600080fd5b80638129fc1c146102e8578063853828b6146102f05780639136616a146102f857806396d538bb14610306578063aa388af614610319578063ad1728cb1461036957600080fd5b806347e7ef241161014b5780635f515226116101255780635f5152261461027a57806367c7066c1461029b5780636c9fa59e146102ae5780637b2d9b2c146102d557600080fd5b806347e7ef24146102575780635a063f631461026a5780635d36b1901461027257600080fd5b80630c340a24146101935780630ed57b3a146101b85780630fc3b4c4146101cd5780631072cbea146101f65780631083f76114610209578063430bf08a14610230575b600080fd5b61019b6103f6565b6040516001600160a01b0390911681526020015b60405180910390f35b6101cb6101c6366004611de7565b610413565b005b61019b6101db366004611dcc565b6035602052600090815260409020546001600160a01b031681565b6101cb610204366004611e56565b61047f565b61019b7f000000000000000000000000000000000000000000000000000000000000000081565b61019b7f000000000000000000000000000000000000000000000000000000000000000081565b6101cb610265366004611e56565b610540565b6101cb6105d1565b6101cb610670565b61028d610288366004611dcc565b610716565b6040519081526020016101af565b60395461019b906001600160a01b031681565b61019b7f000000000000000000000000000000000000000000000000000000000000000081565b61019b6102e3366004611f17565b610806565b6101cb610830565b6101cb610a0b565b6101cb6101c6366004611f17565b6101cb610314366004611e80565b610cf8565b610359610327366004611dcc565b7f00000000000000000000000000000000000000000000000000000000000000006001600160a01b0390811691161490565b60405190151581526020016101af565b6101cb610e1e565b6101cb61037f366004611dcc565b610e4a565b610359610ed7565b6101cb61039a366004611dcc565b610f08565b6101cb6103ad366004611e1a565b610fac565b61019b7f000000000000000000000000000000000000000000000000000000000000000081565b6101cb611233565b6103e9611385565b6040516101af9190611f65565b600061040e6000805160206121d48339815191525490565b905090565b61041b610ed7565b6104405760405162461bcd60e51b8152600401610437906120b2565b60405180910390fd5b60405162461bcd60e51b81526020600482015260146024820152733ab739bab83837b93a32b210333ab731ba34b7b760611b6044820152606401610437565b610487610ed7565b6104a35760405162461bcd60e51b8152600401610437906120b2565b7f00000000000000000000000000000000000000000000000000000000000000006001600160a01b0390811690831614156105205760405162461bcd60e51b815260206004820152601f60248201527f43616e6e6f74207472616e7366657220737570706f72746564206173736574006044820152606401610437565b61053c61052b6103f6565b6001600160a01b03841690836113e7565b5050565b336001600160a01b037f000000000000000000000000000000000000000000000000000000000000000016146105885760405162461bcd60e51b81526004016104379061207b565b6000805160206121b4833981519152805460028114156105ba5760405162461bcd60e51b815260040161043790612120565b600282556105c8848461143e565b50600190555050565b6039546001600160a01b0316331461062b5760405162461bcd60e51b815260206004820152601b60248201527f43616c6c6572206973206e6f74207468652048617276657374657200000000006044820152606401610437565b6000805160206121b48339815191528054600281141561065d5760405162461bcd60e51b815260040161043790612120565b600282556106696115e3565b5060019055565b7f44c4d30b2eaad5130ad70c3ba6972730566f3e6359ab83e800d905c61b1c51db546001600160a01b0316336001600160a01b03161461070b5760405162461bcd60e51b815260206004820152603060248201527f4f6e6c79207468652070656e64696e6720476f7665726e6f722063616e20636f60448201526f6d706c6574652074686520636c61696d60801b6064820152608401610437565b6107143361170f565b565b60007f00000000000000000000000000000000000000000000000000000000000000006001600160a01b0316826001600160a01b0316146107695760405162461bcd60e51b8152600401610437906120e9565b60405163ce96cb7760e01b81523060048201527f00000000000000000000000000000000000000000000000000000000000000006001600160a01b03169063ce96cb779060240160206040518083038186803b1580156107c857600080fd5b505afa1580156107dc573d6000803e3d6000fd5b505050506040513d601f19601f820116820180604052508101906108009190611f30565b92915050565b603a818154811061081657600080fd5b6000918252602090912001546001600160a01b0316905081565b610838610ed7565b6108545760405162461bcd60e51b8152600401610437906120b2565b600054610100900460ff168061086d575060005460ff16155b6108d05760405162461bcd60e51b815260206004820152602e60248201527f496e697469616c697a61626c653a20636f6e747261637420697320616c72656160448201526d191e481a5b9a5d1a585b1a5e995960921b6064820152608401610437565b600054610100900460ff161580156108f2576000805461ffff19166101011790555b6040805160008082526001602080840182815260608501865293949293928501908036833750506040805160018082528183019092529293506000929150602080830190803683370190505090507f0000000000000000000000000000000000000000000000000000000000000000826000815181106109745761097461219d565b60200260200101906001600160a01b031690816001600160a01b0316815250507f0000000000000000000000000000000000000000000000000000000000000000816000815181106109c8576109c861219d565b60200260200101906001600160a01b031690816001600160a01b0316815250506109f38383836117d0565b5050508015610a08576000805461ff00191690555b50565b336001600160a01b037f0000000000000000000000000000000000000000000000000000000000000000161480610a5a5750610a456103f6565b6001600160a01b0316336001600160a01b0316145b610ab25760405162461bcd60e51b815260206004820152602360248201527f43616c6c6572206973206e6f7420746865205661756c74206f7220476f7665726044820152623737b960e91b6064820152608401610437565b6000805160206121b483398151915280546002811415610ae45760405162461bcd60e51b815260040161043790612120565b600282556040516370a0823160e01b81523060048201526000907f00000000000000000000000000000000000000000000000000000000000000006001600160a01b0316906370a082319060240160206040518083038186803b158015610b4a57600080fd5b505afa158015610b5e573d6000803e3d6000fd5b505050506040513d601f19601f82011682018060405250810190610b829190611f30565b905060008115610cee57604051635d043b2960e11b8152600481018390526001600160a01b037f0000000000000000000000000000000000000000000000000000000000000000811660248301523060448301527f0000000000000000000000000000000000000000000000000000000000000000169063ba08765290606401602060405180830381600087803b158015610c1c57600080fd5b505af1158015610c30573d6000803e3d6000fd5b505050506040513d601f19601f82011682018060405250810190610c549190611f30565b90507f00000000000000000000000000000000000000000000000000000000000000006001600160a01b03167f2717ead6b9200dd235aad468c9809ea400fe33ac69b5bfaa6d3e90fc922b63987f000000000000000000000000000000000000000000000000000000000000000083604051610ce59291906001600160a01b03929092168252602082015260400190565b60405180910390a25b5050600182555050565b610d00610ed7565b610d1c5760405162461bcd60e51b8152600401610437906120b2565b8060005b81811015610dcf576000848483818110610d3c57610d3c61219d565b9050602002016020810190610d519190611dcc565b6001600160a01b03161415610dbf5760405162461bcd60e51b815260206004820152602e60248201527f43616e206e6f742073657420616e20656d70747920616464726573732061732060448201526d30903932bbb0b932103a37b5b2b760911b6064820152608401610437565b610dc881612174565b9050610d20565b507f04c0b9649497d316554306e53678d5f5f5dbc3a06f97dec13ff4cfe98b986bbc603a8484604051610e0493929190611fb2565b60405180910390a1610e18603a8484611ce3565b50505050565b610e26610ed7565b610e425760405162461bcd60e51b8152600401610437906120b2565b61071461188b565b610e52610ed7565b610e6e5760405162461bcd60e51b8152600401610437906120b2565b603954604080516001600160a01b03928316815291831660208301527fe48386b84419f4d36e0f96c10cc3510b6fb1a33795620c5098b22472bbe90796910160405180910390a1603980546001600160a01b0319166001600160a01b0392909216919091179055565b6000610eef6000805160206121d48339815191525490565b6001600160a01b0316336001600160a01b031614905090565b610f10610ed7565b610f2c5760405162461bcd60e51b8152600401610437906120b2565b610f54817f44c4d30b2eaad5130ad70c3ba6972730566f3e6359ab83e800d905c61b1c51db55565b806001600160a01b0316610f746000805160206121d48339815191525490565b6001600160a01b03167fa39cc5eb22d0f34d8beaefee8a3f17cc229c1a1d1ef87a5ad47313487b1c4f0d60405160405180910390a350565b336001600160a01b037f00000000000000000000000000000000000000000000000000000000000000001614610ff45760405162461bcd60e51b81526004016104379061207b565b6000805160206121b4833981519152805460028114156110265760405162461bcd60e51b815260040161043790612120565b600282556000831161107a5760405162461bcd60e51b815260206004820152601760248201527f4d75737420776974686472617720736f6d657468696e670000000000000000006044820152606401610437565b6001600160a01b0385166110c95760405162461bcd60e51b8152602060048201526016602482015275135d5cdd081cdc1958da599e481c9958da5c1a595b9d60521b6044820152606401610437565b7f00000000000000000000000000000000000000000000000000000000000000006001600160a01b0316846001600160a01b03161461111a5760405162461bcd60e51b8152600401610437906120e9565b604051632d182be560e21b8152600481018490526001600160a01b0386811660248301523060448301527f0000000000000000000000000000000000000000000000000000000000000000169063b460af9490606401602060405180830381600087803b15801561118a57600080fd5b505af115801561119e573d6000803e3d6000fd5b505050506040513d601f19601f820116820180604052508101906111c29190611f30565b50604080516001600160a01b037f000000000000000000000000000000000000000000000000000000000000000081168252602082018690528616917f2717ead6b9200dd235aad468c9809ea400fe33ac69b5bfaa6d3e90fc922b6398910160405180910390a25060019055505050565b336001600160a01b037f0000000000000000000000000000000000000000000000000000000000000000161461127b5760405162461bcd60e51b81526004016104379061207b565b6000805160206121b4833981519152805460028114156112ad5760405162461bcd60e51b815260040161043790612120565b600282556040516370a0823160e01b81523060048201526000907f00000000000000000000000000000000000000000000000000000000000000006001600160a01b0316906370a082319060240160206040518083038186803b15801561131357600080fd5b505afa158015611327573d6000803e3d6000fd5b505050506040513d601f19601f8201168201806040525081019061134b9190611f30565b9050801561137d5761137d7f00000000000000000000000000000000000000000000000000000000000000008261143e565b505060019055565b6060603a8054806020026020016040519081016040528092919081815260200182805480156113dd57602002820191906000526020600020905b81546001600160a01b031681526001909101906020018083116113bf575b5050505050905090565b604080516001600160a01b038416602482015260448082018490528251808303909101815260649091019091526020810180516001600160e01b031663a9059cbb60e01b17905261143990849061192a565b505050565b600081116114875760405162461bcd60e51b81526020600482015260166024820152754d757374206465706f73697420736f6d657468696e6760501b6044820152606401610437565b7f00000000000000000000000000000000000000000000000000000000000000006001600160a01b0316826001600160a01b0316146114d85760405162461bcd60e51b8152600401610437906120e9565b604051636e553f6560e01b8152600481018290523060248201527f00000000000000000000000000000000000000000000000000000000000000006001600160a01b031690636e553f6590604401602060405180830381600087803b15801561154057600080fd5b505af1158015611554573d6000803e3d6000fd5b505050506040513d601f19601f820116820180604052508101906115789190611f30565b50604080516001600160a01b037f000000000000000000000000000000000000000000000000000000000000000081168252602082018490528416917f5548c837ab068cf56a2c2479df0882a4922fd203edb7517321831d95078c5f62910160405180910390a25050565b603a5460005b8181101561053c576000603a82815481106116065761160661219d565b60009182526020822001546040516370a0823160e01b81523060048201526001600160a01b03909116925082906370a082319060240160206040518083038186803b15801561165457600080fd5b505afa158015611668573d6000803e3d6000fd5b505050506040513d601f19601f8201168201806040525081019061168c9190611f30565b905080156116fc57603954604080516001600160a01b039283168152918416602083015281018290527ff6c07a063ed4e63808eb8da7112d46dbcd38de2b40a73dbcc9353c5a94c723539060600160405180910390a16039546116fc906001600160a01b038481169116836113e7565b50508061170890612174565b90506115e9565b6001600160a01b0381166117655760405162461bcd60e51b815260206004820152601a60248201527f4e657720476f7665726e6f7220697320616464726573732830290000000000006044820152606401610437565b806001600160a01b03166117856000805160206121d48339815191525490565b6001600160a01b03167fc7c0c772add429241571afb3805861fb3cfa2af374534088b76cdb4325a87e9a60405160405180910390a3610a08816000805160206121d483398151915255565b82516117e390603a906020860190611d46565b5081518151811461182d5760405162461bcd60e51b8152602060048201526014602482015273496e76616c696420696e7075742061727261797360601b6044820152606401610437565b60005b818110156118845761187484828151811061184d5761184d61219d565b60200260200101518483815181106118675761186761219d565b60200260200101516119fc565b61187d81612174565b9050611830565b5050505050565b60405163095ea7b360e01b81526001600160a01b037f00000000000000000000000000000000000000000000000000000000000000008116600483015260001960248301527f0000000000000000000000000000000000000000000000000000000000000000169063095ea7b390604401600060405180830381600087803b15801561191657600080fd5b505af1158015610e18573d6000803e3d6000fd5b600061197f826040518060400160405280602081526020017f5361666545524332303a206c6f772d6c6576656c2063616c6c206661696c6564815250856001600160a01b0316611b619092919063ffffffff16565b805190915015611439578080602001905181019061199d9190611ef5565b6114395760405162461bcd60e51b815260206004820152602a60248201527f5361666545524332303a204552433230206f7065726174696f6e20646964206e6044820152691bdd081cdd58d8d9595960b21b6064820152608401610437565b6001600160a01b038281166000908152603560205260409020541615611a595760405162461bcd60e51b81526020600482015260126024820152711c151bdad95b88185b1c9958591e481cd95d60721b6044820152606401610437565b6001600160a01b03821615801590611a7957506001600160a01b03811615155b611ab95760405162461bcd60e51b8152602060048201526011602482015270496e76616c69642061646472657373657360781b6044820152606401610437565b6001600160a01b03828116600081815260356020908152604080832080549587166001600160a01b031996871681179091556036805460018101825594527f4a11f94e20a93c79f6ec743a1954ec4fc2c08429ae2122118bf234b2185c81b890930180549095168417909455925190815290917fef6485b84315f9b1483beffa32aae9a0596890395e3d7521f1c5fbb51790e765910160405180910390a261053c8282611b7a565b6060611b708484600085611b82565b90505b9392505050565b61053c61188b565b606082471015611be35760405162461bcd60e51b815260206004820152602660248201527f416464726573733a20696e73756666696369656e742062616c616e636520666f6044820152651c8818d85b1b60d21b6064820152608401610437565b843b611c315760405162461bcd60e51b815260206004820152601d60248201527f416464726573733a2063616c6c20746f206e6f6e2d636f6e74726163740000006044820152606401610437565b600080866001600160a01b03168587604051611c4d9190611f49565b60006040518083038185875af1925050503d8060008114611c8a576040519150601f19603f3d011682016040523d82523d6000602084013e611c8f565b606091505b5091509150611c9f828286611caa565b979650505050505050565b60608315611cb9575081611b73565b825115611cc95782518084602001fd5b8160405162461bcd60e51b81526004016104379190612048565b828054828255906000526020600020908101928215611d36579160200282015b82811115611d365781546001600160a01b0319166001600160a01b03843516178255602090920191600190910190611d03565b50611d42929150611d9b565b5090565b828054828255906000526020600020908101928215611d36579160200282015b82811115611d3657825182546001600160a01b0319166001600160a01b03909116178255602090920191600190910190611d66565b5b80821115611d425760008155600101611d9c565b80356001600160a01b0381168114611dc757600080fd5b919050565b600060208284031215611dde57600080fd5b611b7382611db0565b60008060408385031215611dfa57600080fd5b611e0383611db0565b9150611e1160208401611db0565b90509250929050565b600080600060608486031215611e2f57600080fd5b611e3884611db0565b9250611e4660208501611db0565b9150604084013590509250925092565b60008060408385031215611e6957600080fd5b611e7283611db0565b946020939093013593505050565b60008060208385031215611e9357600080fd5b823567ffffffffffffffff80821115611eab57600080fd5b818501915085601f830112611ebf57600080fd5b813581811115611ece57600080fd5b8660208260051b8501011115611ee357600080fd5b60209290920196919550909350505050565b600060208284031215611f0757600080fd5b81518015158114611b7357600080fd5b600060208284031215611f2957600080fd5b5035919050565b600060208284031215611f4257600080fd5b5051919050565b60008251611f5b818460208701612148565b9190910192915050565b6020808252825182820181905260009190848201906040850190845b81811015611fa65783516001600160a01b031683529284019291840191600101611f81565b50909695505050505050565b6000604082016040835280865480835260608501915087600052602092508260002060005b82811015611ffc5781546001600160a01b031684529284019260019182019101611fd7565b505050838103828501528481528590820160005b8681101561203c576001600160a01b0361202984611db0565b1682529183019190830190600101612010565b50979650505050505050565b6020815260008251806020840152612067816040850160208701612148565b601f01601f19169190910160400192915050565b60208082526017908201527f43616c6c6572206973206e6f7420746865205661756c74000000000000000000604082015260600190565b6020808252601a908201527f43616c6c6572206973206e6f742074686520476f7665726e6f72000000000000604082015260600190565b60208082526018908201527f556e657870656374656420617373657420616464726573730000000000000000604082015260600190565b6020808252600e908201526d1499595b9d1c985b9d0818d85b1b60921b604082015260600190565b60005b8381101561216357818101518382015260200161214b565b83811115610e185750506000910152565b600060001982141561219657634e487b7160e01b600052601160045260246000fd5b5060010190565b634e487b7160e01b600052603260045260246000fdfe53bf423e48ed90e97d02ab0ebab13b2a235a6bfbe9c321847d5c175333ac45357bea13895fa79d2831e0a9e28edede30099005a50d652d8957cf8a607ee6ca4aa264697066735822122008303a6abfd7693dc19c18711cfec467ce19a90009b473854947091684a3cf0164736f6c634300080700337bea13895fa79d2831e0a9e28edede30099005a50d652d8957cf8a607ee6ca4a",
  "libraries": {},
  "devdoc": {
    "kind": "dev",
    "methods": {
      "checkBalance(address)": {
        "details": "Get the total asset value held in the platform",
        "params": {
          "_asset": "Address of the asset"
        },
        "returns": {
          "balance": "   Total value of the asset in the platform"
        }
      },
      "constructor": {
        "params": {
          "_assetToken": "Address of the ERC-4626 asset token. eg frxETH or DAI",
          "_baseConfig": "Base strategy config with platformAddress (ERC-4626 Vault contract), eg sfrxETH or sDAI, and vaultAddress (OToken Vault contract), eg VaultProxy or OETHVaultProxy"
        }
      },
      "deposit(address,uint256)": {
        "details": "Deposit assets by converting them to shares",
        "params": {
          "_amount": "Amount of asset to deposit",
          "_asset": "Address of asset to deposit"
        }
      },
      "depositAll()": {
        "details": "Deposit the entire balance of assetToken to gain shareToken"
      },
      "getRewardTokenAddresses()": {
        "returns": {
          "_0": "address[] the reward token addresses."
        }
      },
      "removePToken(uint256)": {
        "details": "If the ERC-4626 Tokenized Vault needed to be changed, a new contract would need to be deployed and the proxy updated."
      },
      "setHarvesterAddress(address)": {
        "params": {
          "_harvesterAddress": "Address of the harvester contract."
        }
      },
      "setPTokenAddress(address,address)": {
        "details": "If the ERC-4626 Tokenized Vault needed to be changed, a new contract would need to be deployed and the proxy updated."
      },
      "setRewardTokenAddresses(address[])": {
        "params": {
          "_rewardTokenAddresses": "Array of reward token addresses"
        }
      },
      "supportsAsset(address)": {
        "details": "Returns bool indicating whether asset is supported by strategy",
        "params": {
          "_asset": "Address of the asset"
        }
      },
      "transferGovernance(address)": {
        "params": {
          "_newGovernor": "Address of the new Governor"
        }
      },
      "transferToken(address,uint256)": {
        "params": {
          "_amount": "Amount of the asset to transfer",
          "_asset": "Address for the asset"
        }
      },
      "withdraw(address,address,uint256)": {
        "details": "Withdraw asset by burning shares",
        "params": {
          "_amount": "Amount of asset to withdraw",
          "_asset": "Address of asset to withdraw",
          "_recipient": "Address to receive withdrawn asset"
        }
      },
      "withdrawAll()": {
        "details": "Remove all assets from platform and send them to Vault contract."
      }
    },
    "version": 1
  },
  "userdoc": {
    "kind": "user",
    "methods": {
      "assetToPToken(address)": {
        "notice": "asset => pToken (Platform Specific Token Address)"
      },
      "claimGovernance()": {
        "notice": "Claim Governance of the contract to a new account (`newGovernor`). Can only be called by the new Governor."
      },
      "collectRewardTokens()": {
        "notice": "Collect accumulated reward token and send to Vault."
      },
      "getRewardTokenAddresses()": {
        "notice": "Get the reward token addresses."
      },
      "governor()": {
        "notice": "Returns the address of the current Governor."
      },
      "harvesterAddress()": {
        "notice": "Address of the Harvester contract allowed to collect reward tokens"
      },
      "isGovernor()": {
        "notice": "Returns true if the caller is the current Governor."
      },
      "platformAddress()": {
        "notice": "Address of the underlying platform"
      },
      "removePToken(uint256)": {
        "notice": "is not supported for this strategy as the asset and ERC-4626 Tokenized Vault are set at deploy time."
      },
      "rewardTokenAddresses(uint256)": {
        "notice": "Address of the reward tokens. eg CRV, BAL, CVX, AURA"
      },
      "safeApproveAllTokens()": {
        "notice": "Governor approves the the ERC-4626 Tokenized Vault to spend the asset."
      },
      "setHarvesterAddress(address)": {
        "notice": "Set the Harvester contract that can collect rewards."
      },
      "setPTokenAddress(address,address)": {
        "notice": "is not supported for this strategy as the asset and ERC-4626 Tokenized Vault are set at deploy time."
      },
      "setRewardTokenAddresses(address[])": {
        "notice": "Set the reward token addresses. Any old addresses will be overwritten."
      },
      "transferGovernance(address)": {
        "notice": "Transfers Governance of the contract to a new account (`newGovernor`). Can only be called by the current Governor. Must be claimed for this to complete"
      },
      "transferToken(address,uint256)": {
        "notice": "Transfer token to governor. Intended for recovering tokens stuck in      strategy contracts, i.e. mistaken sends."
      },
      "vaultAddress()": {
        "notice": "Address of the OToken vault"
      }
    },
    "version": 1
  },
  "storageLayout": {
    "storage": [
      {
        "astId": 48583,
        "contract": "contracts/strategies/Generalized4626USDTStrategy.sol:Generalized4626USDTStrategy",
        "label": "initialized",
        "offset": 0,
        "slot": "0",
        "type": "t_bool"
      },
      {
        "astId": 48586,
        "contract": "contracts/strategies/Generalized4626USDTStrategy.sol:Generalized4626USDTStrategy",
        "label": "initializing",
        "offset": 1,
        "slot": "0",
        "type": "t_bool"
      },
      {
        "astId": 48626,
        "contract": "contracts/strategies/Generalized4626USDTStrategy.sol:Generalized4626USDTStrategy",
        "label": "______gap",
        "offset": 0,
        "slot": "1",
        "type": "t_array(t_uint256)50_storage"
      },
      {
        "astId": 48706,
        "contract": "contracts/strategies/Generalized4626USDTStrategy.sol:Generalized4626USDTStrategy",
        "label": "_deprecated_platformAddress",
        "offset": 0,
        "slot": "51",
        "type": "t_address"
      },
      {
        "astId": 48709,
        "contract": "contracts/strategies/Generalized4626USDTStrategy.sol:Generalized4626USDTStrategy",
        "label": "_deprecated_vaultAddress",
        "offset": 0,
        "slot": "52",
        "type": "t_address"
      },
      {
        "astId": 48714,
        "contract": "contracts/strategies/Generalized4626USDTStrategy.sol:Generalized4626USDTStrategy",
        "label": "assetToPToken",
        "offset": 0,
        "slot": "53",
        "type": "t_mapping(t_address,t_address)"
      },
      {
        "astId": 48718,
        "contract": "contracts/strategies/Generalized4626USDTStrategy.sol:Generalized4626USDTStrategy",
        "label": "assetsMapped",
        "offset": 0,
        "slot": "54",
        "type": "t_array(t_address)dyn_storage"
      },
      {
        "astId": 48720,
        "contract": "contracts/strategies/Generalized4626USDTStrategy.sol:Generalized4626USDTStrategy",
        "label": "_deprecated_rewardTokenAddress",
        "offset": 0,
        "slot": "55",
        "type": "t_address"
      },
      {
        "astId": 48722,
        "contract": "contracts/strategies/Generalized4626USDTStrategy.sol:Generalized4626USDTStrategy",
        "label": "_deprecated_rewardLiquidationThreshold",
        "offset": 0,
        "slot": "56",
        "type": "t_uint256"
      },
      {
        "astId": 48725,
        "contract": "contracts/strategies/Generalized4626USDTStrategy.sol:Generalized4626USDTStrategy",
        "label": "harvesterAddress",
        "offset": 0,
        "slot": "57",
        "type": "t_address"
      },
      {
        "astId": 48729,
        "contract": "contracts/strategies/Generalized4626USDTStrategy.sol:Generalized4626USDTStrategy",
        "label": "rewardTokenAddresses",
        "offset": 0,
        "slot": "58",
        "type": "t_array(t_address)dyn_storage"
      },
      {
        "astId": 48733,
        "contract": "contracts/strategies/Generalized4626USDTStrategy.sol:Generalized4626USDTStrategy",
        "label": "_reserved",
        "offset": 0,
        "slot": "59",
        "type": "t_array(t_int256)98_storage"
      },
      {
        "astId": 33974,
        "contract": "contracts/strategies/Generalized4626USDTStrategy.sol:Generalized4626USDTStrategy",
        "label": "_deprecate_shareToken",
        "offset": 0,
        "slot": "157",
        "type": "t_address"
      },
      {
        "astId": 33977,
        "contract": "contracts/strategies/Generalized4626USDTStrategy.sol:Generalized4626USDTStrategy",
        "label": "_deprecate_assetToken",
        "offset": 0,
        "slot": "158",
        "type": "t_address"
      },
      {
        "astId": 33987,
        "contract": "contracts/strategies/Generalized4626USDTStrategy.sol:Generalized4626USDTStrategy",
        "label": "__gap",
        "offset": 0,
        "slot": "159",
        "type": "t_array(t_uint256)50_storage"
      }
    ],
    "types": {
      "t_address": {
        "encoding": "inplace",
        "label": "address",
        "numberOfBytes": "20"
      },
      "t_array(t_address)dyn_storage": {
        "base": "t_address",
        "encoding": "dynamic_array",
        "label": "address[]",
        "numberOfBytes": "32"
      },
      "t_array(t_int256)98_storage": {
        "base": "t_int256",
        "encoding": "inplace",
        "label": "int256[98]",
        "numberOfBytes": "3136"
      },
      "t_array(t_uint256)50_storage": {
        "base": "t_uint256",
        "encoding": "inplace",
        "label": "uint256[50]",
        "numberOfBytes": "1600"
      },
      "t_bool": {
        "encoding": "inplace",
        "label": "bool",
        "numberOfBytes": "1"
      },
      "t_int256": {
        "encoding": "inplace",
        "label": "int256",
        "numberOfBytes": "32"
      },
      "t_mapping(t_address,t_address)": {
        "encoding": "mapping",
        "key": "t_address",
        "label": "mapping(address => address)",
        "numberOfBytes": "32",
        "value": "t_address"
      },
      "t_uint256": {
        "encoding": "inplace",
        "label": "uint256",
        "numberOfBytes": "32"
      }
    }
  }
}