{
  "address": "0x167747bF5B3B6Bf2F7f7C4CCe32C463E9598D425",
  "abi": [
    {
      "anonymous": false,
      "inputs": [
        {
          "indexed": true,
          "internalType": "address",
          "name": "_asset",
          "type": "address"
        },
        {
          "indexed": false,
          "internalType": "address",
          "name": "_pToken",
          "type": "address"
        },
        {
          "indexed": false,
          "internalType": "uint256",
          "name": "_amount",
          "type": "uint256"
        }
      ],
      "name": "Deposit",
      "type": "event"
    },
    {
      "anonymous": false,
      "inputs": [
        {
          "indexed": true,
          "internalType": "address",
          "name": "previousGovernor",
          "type": "address"
        },
        {
          "indexed": true,
          "internalType": "address",
          "name": "newGovernor",
          "type": "address"
        }
      ],
      "name": "GovernorshipTransferred",
      "type": "event"
    },
    {
      "anonymous": false,
      "inputs": [
        {
          "indexed": false,
          "internalType": "address",
          "name": "_oldHarvesterAddress",
          "type": "address"
        },
        {
          "indexed": false,
          "internalType": "address",
          "name": "_newHarvesterAddress",
          "type": "address"
        }
      ],
      "name": "HarvesterAddressesUpdated",
      "type": "event"
    },
    {
      "anonymous": false,
      "inputs": [
        {
          "indexed": true,
          "internalType": "address",
          "name": "_asset",
          "type": "address"
        },
        {
          "indexed": false,
          "internalType": "address",
          "name": "_pToken",
          "type": "address"
        }
      ],
      "name": "PTokenAdded",
      "type": "event"
    },
    {
      "anonymous": false,
      "inputs": [
        {
          "indexed": true,
          "internalType": "address",
          "name": "_asset",
          "type": "address"
        },
        {
          "indexed": false,
          "internalType": "address",
          "name": "_pToken",
          "type": "address"
        }
      ],
      "name": "PTokenRemoved",
      "type": "event"
    },
    {
      "anonymous": false,
      "inputs": [
        {
          "indexed": true,
          "internalType": "address",
          "name": "previousGovernor",
          "type": "address"
        },
        {
          "indexed": true,
          "internalType": "address",
          "name": "newGovernor",
          "type": "address"
        }
      ],
      "name": "PendingGovernorshipTransfer",
      "type": "event"
    },
    {
      "anonymous": false,
      "inputs": [
        {
          "indexed": false,
          "internalType": "address[]",
          "name": "_oldAddresses",
          "type": "address[]"
        },
        {
          "indexed": false,
          "internalType": "address[]",
          "name": "_newAddresses",
          "type": "address[]"
        }
      ],
      "name": "RewardTokenAddressesUpdated",
      "type": "event"
    },
    {
      "anonymous": false,
      "inputs": [
        {
          "indexed": false,
          "internalType": "address",
          "name": "recipient",
          "type": "address"
        },
        {
          "indexed": false,
          "internalType": "address",
          "name": "rewardToken",
          "type": "address"
        },
        {
          "indexed": false,
          "internalType": "uint256",
          "name": "amount",
          "type": "uint256"
        }
      ],
      "name": "RewardTokenCollected",
      "type": "event"
    },
    {
      "anonymous": false,
      "inputs": [
        {
          "indexed": true,
          "internalType": "address",
          "name": "_asset",
          "type": "address"
        },
        {
          "indexed": false,
          "internalType": "address",
          "name": "_pToken",
          "type": "address"
        },
        {
          "indexed": false,
          "internalType": "uint256",
          "name": "_amount",
          "type": "uint256"
        }
      ],
      "name": "Withdrawal",
      "type": "event"
    },
    {
      "inputs": [],
      "name": "_deprecated_rewardLiquidationThreshold",
      "outputs": [
        {
          "internalType": "uint256",
          "name": "",
          "type": "uint256"
        }
      ],
      "stateMutability": "view",
      "type": "function"
    },
    {
      "inputs": [],
      "name": "_deprecated_rewardTokenAddress",
      "outputs": [
        {
          "internalType": "address",
          "name": "",
          "type": "address"
        }
      ],
      "stateMutability": "view",
      "type": "function"
    },
    {
      "inputs": [
        {
          "internalType": "address",
          "name": "",
          "type": "address"
        }
      ],
      "name": "assetToPToken",
      "outputs": [
        {
          "internalType": "address",
          "name": "",
          "type": "address"
        }
      ],
      "stateMutability": "view",
      "type": "function"
    },
    {
      "inputs": [
        {
          "internalType": "address",
          "name": "_asset",
          "type": "address"
        }
      ],
      "name": "checkBalance",
      "outputs": [
        {
          "internalType": "uint256",
          "name": "balance",
          "type": "uint256"
        }
      ],
      "stateMutability": "view",
      "type": "function"
    },
    {
      "inputs": [],
      "name": "claimGovernance",
      "outputs": [],
      "stateMutability": "nonpayable",
      "type": "function"
    },
    {
      "inputs": [],
      "name": "collectRewardTokens",
      "outputs": [],
      "stateMutability": "nonpayable",
      "type": "function"
    },
    {
      "inputs": [
        {
          "internalType": "address",
          "name": "_asset",
          "type": "address"
        },
        {
          "internalType": "uint256",
          "name": "_amount",
          "type": "uint256"
        }
      ],
      "name": "deposit",
      "outputs": [],
      "stateMutability": "nonpayable",
      "type": "function"
    },
    {
      "inputs": [],
      "name": "depositAll",
      "outputs": [],
      "stateMutability": "nonpayable",
      "type": "function"
    },
    {
      "inputs": [],
      "name": "getRewardTokenAddresses",
      "outputs": [
        {
          "internalType": "address[]",
          "name": "",
          "type": "address[]"
        }
      ],
      "stateMutability": "view",
      "type": "function"
    },
    {
      "inputs": [],
      "name": "governor",
      "outputs": [
        {
          "internalType": "address",
          "name": "",
          "type": "address"
        }
      ],
      "stateMutability": "view",
      "type": "function"
    },
    {
      "inputs": [],
      "name": "harvesterAddress",
      "outputs": [
        {
          "internalType": "address",
          "name": "",
          "type": "address"
        }
      ],
      "stateMutability": "view",
      "type": "function"
    },
    {
      "inputs": [
        {
          "internalType": "address",
          "name": "_platformAddress",
          "type": "address"
        },
        {
          "internalType": "address",
          "name": "_vaultAddress",
          "type": "address"
        },
        {
          "internalType": "address[]",
          "name": "_rewardTokenAddresses",
          "type": "address[]"
        },
        {
          "internalType": "address[]",
          "name": "_assets",
          "type": "address[]"
        },
        {
          "internalType": "address[]",
          "name": "_pTokens",
          "type": "address[]"
        }
      ],
      "name": "initialize",
      "outputs": [],
      "stateMutability": "nonpayable",
      "type": "function"
    },
    {
      "inputs": [],
      "name": "isGovernor",
      "outputs": [
        {
          "internalType": "bool",
          "name": "",
          "type": "bool"
        }
      ],
      "stateMutability": "view",
      "type": "function"
    },
    {
      "inputs": [],
      "name": "platformAddress",
      "outputs": [
        {
          "internalType": "address",
          "name": "",
          "type": "address"
        }
      ],
      "stateMutability": "view",
      "type": "function"
    },
    {
      "inputs": [
        {
          "internalType": "uint256",
          "name": "_assetIndex",
          "type": "uint256"
        }
      ],
      "name": "removePToken",
      "outputs": [],
      "stateMutability": "nonpayable",
      "type": "function"
    },
    {
      "inputs": [
        {
          "internalType": "uint256",
          "name": "",
          "type": "uint256"
        }
      ],
      "name": "rewardTokenAddresses",
      "outputs": [
        {
          "internalType": "address",
          "name": "",
          "type": "address"
        }
      ],
      "stateMutability": "view",
      "type": "function"
    },
    {
      "inputs": [],
      "name": "safeApproveAllTokens",
      "outputs": [],
      "stateMutability": "nonpayable",
      "type": "function"
    },
    {
      "inputs": [
        {
          "internalType": "address",
          "name": "_harvesterAddress",
          "type": "address"
        }
      ],
      "name": "setHarvesterAddress",
      "outputs": [],
      "stateMutability": "nonpayable",
      "type": "function"
    },
    {
      "inputs": [
        {
          "internalType": "address",
          "name": "_asset",
          "type": "address"
        },
        {
          "internalType": "address",
          "name": "_pToken",
          "type": "address"
        }
      ],
      "name": "setPTokenAddress",
      "outputs": [],
      "stateMutability": "nonpayable",
      "type": "function"
    },
    {
      "inputs": [
        {
          "internalType": "address[]",
          "name": "_rewardTokenAddresses",
          "type": "address[]"
        }
      ],
      "name": "setRewardTokenAddresses",
      "outputs": [],
      "stateMutability": "nonpayable",
      "type": "function"
    },
    {
      "inputs": [
        {
          "internalType": "address",
          "name": "_asset",
          "type": "address"
        }
      ],
      "name": "supportsAsset",
      "outputs": [
        {
          "internalType": "bool",
          "name": "",
          "type": "bool"
        }
      ],
      "stateMutability": "view",
      "type": "function"
    },
    {
      "inputs": [
        {
          "internalType": "address",
          "name": "_newGovernor",
          "type": "address"
        }
      ],
      "name": "transferGovernance",
      "outputs": [],
      "stateMutability": "nonpayable",
      "type": "function"
    },
    {
      "inputs": [
        {
          "internalType": "address",
          "name": "_asset",
          "type": "address"
        },
        {
          "internalType": "uint256",
          "name": "_amount",
          "type": "uint256"
        }
      ],
      "name": "transferToken",
      "outputs": [],
      "stateMutability": "nonpayable",
      "type": "function"
    },
    {
      "inputs": [],
      "name": "vaultAddress",
      "outputs": [
        {
          "internalType": "address",
          "name": "",
          "type": "address"
        }
      ],
      "stateMutability": "view",
      "type": "function"
    },
    {
      "inputs": [
        {
          "internalType": "address",
          "name": "_recipient",
          "type": "address"
        },
        {
          "internalType": "address",
          "name": "_asset",
          "type": "address"
        },
        {
          "internalType": "uint256",
          "name": "_amount",
          "type": "uint256"
        }
      ],
      "name": "withdraw",
      "outputs": [],
      "stateMutability": "nonpayable",
      "type": "function"
    },
    {
      "inputs": [],
      "name": "withdrawAll",
      "outputs": [],
      "stateMutability": "nonpayable",
      "type": "function"
    }
  ],
  "transactionHash": "0xd13fe902aa886cd33741bfe0db4c49652d49753da803754e7de37833e2e3c8d3",
  "args": [],
  "solcInputHash": "8564b351f4bb5da3f43a5b9c5739eec4",
  "bytecode": "0x608060405234801561001057600080fd5b50610027336000805160206122fd83398151915255565b6000805160206122fd833981519152546040516001600160a01b03909116906000907fc7c0c772add429241571afb3805861fb3cfa2af374534088b76cdb4325a87e9a908290a36122808061007d6000396000f3fe608060405234801561001057600080fd5b506004361061018e5760003560e01c80639136616a116100de578063c7af335211610097578063dbe55e5611610071578063dbe55e5614610355578063de5f626814610368578063f6ca71b014610370578063f817bc631461038557600080fd5b8063c7af335214610327578063d38bfff41461032f578063d9caed121461034257600080fd5b80639136616a146102a15780639688d2fc146102b457806396d538bb146102c7578063aa388af6146102da578063ad1728cb1461030c578063c2e1e3f41461031457600080fd5b806347e7ef241161014b5780635f515226116101255780635f5152261461025257806367c7066c146102735780637b2d9b2c14610286578063853828b61461029957600080fd5b806347e7ef241461022f5780635a063f63146102425780635d36b1901461024a57600080fd5b80630c340a24146101935780630ed57b3a146101b85780630fc3b4c4146101cd5780631072cbea146101f65780632e65520114610209578063430bf08a1461021c575b600080fd5b61019b61038e565b6040516001600160a01b0390911681526020015b60405180910390f35b6101cb6101c6366004611d7d565b6103ab565b005b61019b6101db366004611d62565b6035602052600090815260409020546001600160a01b031681565b6101cb610204366004611ea7565b6103e6565b60375461019b906001600160a01b031681565b60345461019b906001600160a01b031681565b6101cb61023d366004611ea7565b610426565b6101cb610499565b6101cb610538565b610265610260366004611d62565b6105de565b6040519081526020016101af565b60395461019b906001600160a01b031681565b61019b610294366004611f35565b610708565b6101cb610732565b6101cb6102af366004611f35565b61095a565b6101cb6102c2366004611db0565b610b25565b6101cb6102d5366004611ed1565b610c75565b6102fc6102e8366004611d62565b609e546001600160a01b0391821691161490565b60405190151581526020016101af565b6101cb610d9b565b6101cb610322366004611d62565b610dd9565b6102fc610e58565b6101cb61033d366004611d62565b610e89565b6101cb610350366004611e6b565b610f2d565b60335461019b906001600160a01b031681565b6101cb61113a565b61037861123c565b6040516101af9190611f83565b61026560385481565b60006103a660008051602061222b8339815191525490565b905090565b6103b3610e58565b6103d85760405162461bcd60e51b81526004016103cf906120d0565b60405180910390fd5b6103e2828261129e565b5050565b6103ee610e58565b61040a5760405162461bcd60e51b81526004016103cf906120d0565b6103e261041561038e565b6001600160a01b0384169083611403565b6034546001600160a01b031633146104505760405162461bcd60e51b81526004016103cf90612099565b60008051602061220b833981519152805460028114156104825760405162461bcd60e51b81526004016103cf9061213e565b600282556104908484611466565b50600190555050565b6039546001600160a01b031633146104f35760405162461bcd60e51b815260206004820152601b60248201527f43616c6c6572206973206e6f742074686520486172766573746572000000000060448201526064016103cf565b60008051602061220b833981519152805460028114156105255760405162461bcd60e51b81526004016103cf9061213e565b600282556105316115af565b5060019055565b7f44c4d30b2eaad5130ad70c3ba6972730566f3e6359ab83e800d905c61b1c51db546001600160a01b0316336001600160a01b0316146105d35760405162461bcd60e51b815260206004820152603060248201527f4f6e6c79207468652070656e64696e6720476f7665726e6f722063616e20636f60448201526f6d706c6574652074686520636c61696d60801b60648201526084016103cf565b6105dc3361170a565b565b609e546000906001600160a01b0383811691161461060e5760405162461bcd60e51b81526004016103cf90612107565b603354609d546040516370a0823160e01b81523060048201526001600160a01b03928316926307a2d13a9216906370a082319060240160206040518083038186803b15801561065c57600080fd5b505afa158015610670573d6000803e3d6000fd5b505050506040513d601f19601f820116820180604052508101906106949190611f4e565b6040518263ffffffff1660e01b81526004016106b291815260200190565b60206040518083038186803b1580156106ca57600080fd5b505afa1580156106de573d6000803e3d6000fd5b505050506040513d601f19601f820116820180604052508101906107029190611f4e565b92915050565b603a818154811061071857600080fd5b6000918252602090912001546001600160a01b0316905081565b6034546001600160a01b0316331480610763575061074e61038e565b6001600160a01b0316336001600160a01b0316145b6107bb5760405162461bcd60e51b815260206004820152602360248201527f43616c6c6572206973206e6f7420746865205661756c74206f7220476f7665726044820152623737b960e91b60648201526084016103cf565b60008051602061220b833981519152805460028114156107ed5760405162461bcd60e51b81526004016103cf9061213e565b60028255609d546040516370a0823160e01b81523060048201526000916001600160a01b0316906370a082319060240160206040518083038186803b15801561083557600080fd5b505afa158015610849573d6000803e3d6000fd5b505050506040513d601f19601f8201168201806040525081019061086d9190611f4e565b603354603454604051635d043b2960e11b8152600481018490526001600160a01b03918216602482015230604482015292935060009291169063ba08765290606401602060405180830381600087803b1580156108c957600080fd5b505af11580156108dd573d6000803e3d6000fd5b505050506040513d601f19601f820116820180604052508101906109019190611f4e565b609e54609d54604080516001600160a01b039283168152602081018590529394509116917f2717ead6b9200dd235aad468c9809ea400fe33ac69b5bfaa6d3e90fc922b6398910160405180910390a25050600182555050565b610962610e58565b61097e5760405162461bcd60e51b81526004016103cf906120d0565b60365481106109bf5760405162461bcd60e51b815260206004820152600d60248201526c092dcecc2d8d2c840d2dcc8caf609b1b60448201526064016103cf565b6000603682815481106109d4576109d46121f4565b60009182526020808320909101546001600160a01b03908116808452603590925260409092205460365491935090911690610a1190600190612166565b831015610a935760368054610a2890600190612166565b81548110610a3857610a386121f4565b600091825260209091200154603680546001600160a01b039092169185908110610a6457610a646121f4565b9060005260206000200160006101000a8154816001600160a01b0302191690836001600160a01b031602179055505b6036805480610aa457610aa46121de565b60008281526020808220600019908401810180546001600160a01b031990811690915593019093556001600160a01b038581168083526035855260409283902080549094169093559051908416815290917f16b7600acff27e39a8a96056b3d533045298de927507f5c1d97e4accde60488c910160405180910390a2505050565b610b2d610e58565b610b495760405162461bcd60e51b81526004016103cf906120d0565b600054610100900460ff1680610b62575060005460ff16155b610bc55760405162461bcd60e51b815260206004820152602e60248201527f496e697469616c697a61626c653a20636f6e747261637420697320616c72656160448201526d191e481a5b9a5d1a585b1a5e995960921b60648201526084016103cf565b600054610100900460ff16158015610be7576000805461ffff19166101011790555b610c588989898989898080602002602001604051908101604052809392919081815260200183836020028082843760009201919091525050604080516020808d0282810182019093528c82529093508c92508b9182918501908490808284376000920191909152506117cb92505050565b8015610c6a576000805461ff00191690555b505050505050505050565b610c7d610e58565b610c995760405162461bcd60e51b81526004016103cf906120d0565b60005b81811015610d4d576000838383818110610cb857610cb86121f4565b9050602002016020810190610ccd9190611d62565b6001600160a01b03161415610d3b5760405162461bcd60e51b815260206004820152602e60248201527f43616e206e6f742073657420616e20656d70747920616464726573732061732060448201526d30903932bbb0b932103a37b5b2b760911b60648201526084016103cf565b80610d45816121ad565b915050610c9c565b507f04c0b9649497d316554306e53678d5f5f5dbc3a06f97dec13ff4cfe98b986bbc603a8383604051610d8293929190611fd0565b60405180910390a1610d96603a8383611c82565b505050565b603354609e54610dba916001600160a01b0391821691166000196118b4565b603354609d546105dc916001600160a01b0391821691166000196118b4565b610de1610e58565b610dfd5760405162461bcd60e51b81526004016103cf906120d0565b603980546001600160a01b0319166001600160a01b0383169081179091556040805182815260208101929092527fe48386b84419f4d36e0f96c10cc3510b6fb1a33795620c5098b22472bbe90796910160405180910390a150565b6000610e7060008051602061222b8339815191525490565b6001600160a01b0316336001600160a01b031614905090565b610e91610e58565b610ead5760405162461bcd60e51b81526004016103cf906120d0565b610ed5817f44c4d30b2eaad5130ad70c3ba6972730566f3e6359ab83e800d905c61b1c51db55565b806001600160a01b0316610ef560008051602061222b8339815191525490565b6001600160a01b03167fa39cc5eb22d0f34d8beaefee8a3f17cc229c1a1d1ef87a5ad47313487b1c4f0d60405160405180910390a350565b6034546001600160a01b03163314610f575760405162461bcd60e51b81526004016103cf90612099565b60008051602061220b83398151915280546002811415610f895760405162461bcd60e51b81526004016103cf9061213e565b6002825560008311610fdd5760405162461bcd60e51b815260206004820152601760248201527f4d75737420776974686472617720736f6d657468696e6700000000000000000060448201526064016103cf565b6001600160a01b03851661102c5760405162461bcd60e51b8152602060048201526016602482015275135d5cdd081cdc1958da599e481c9958da5c1a595b9d60521b60448201526064016103cf565b609e546001600160a01b038581169116146110595760405162461bcd60e51b81526004016103cf90612107565b603354604051632d182be560e21b8152600481018590526001600160a01b0387811660248301523060448301529091169063b460af9490606401602060405180830381600087803b1580156110ad57600080fd5b505af11580156110c1573d6000803e3d6000fd5b505050506040513d601f19601f820116820180604052508101906110e59190611f4e565b50609d54604080516001600160a01b03928316815260208101869052918616917f2717ead6b9200dd235aad468c9809ea400fe33ac69b5bfaa6d3e90fc922b6398910160405180910390a25060019055505050565b6034546001600160a01b031633146111645760405162461bcd60e51b81526004016103cf90612099565b60008051602061220b833981519152805460028114156111965760405162461bcd60e51b81526004016103cf9061213e565b60028255609e546040516370a0823160e01b81523060048201526000916001600160a01b0316906370a082319060240160206040518083038186803b1580156111de57600080fd5b505afa1580156111f2573d6000803e3d6000fd5b505050506040513d601f19601f820116820180604052508101906112169190611f4e565b9050801561123457609e54611234906001600160a01b031682611466565b505060019055565b6060603a80548060200260200160405190810160405280929190818152602001828054801561129457602002820191906000526020600020905b81546001600160a01b03168152600190910190602001808311611276575b5050505050905090565b6001600160a01b0382811660009081526035602052604090205416156112fb5760405162461bcd60e51b81526020600482015260126024820152711c151bdad95b88185b1c9958591e481cd95d60721b60448201526064016103cf565b6001600160a01b0382161580159061131b57506001600160a01b03811615155b61135b5760405162461bcd60e51b8152602060048201526011602482015270496e76616c69642061646472657373657360781b60448201526064016103cf565b6001600160a01b03828116600081815260356020908152604080832080549587166001600160a01b031996871681179091556036805460018101825594527f4a11f94e20a93c79f6ec743a1954ec4fc2c08429ae2122118bf234b2185c81b890930180549095168417909455925190815290917fef6485b84315f9b1483beffa32aae9a0596890395e3d7521f1c5fbb51790e765910160405180910390a26103e282826119d8565b6040516001600160a01b038316602482015260448101829052610d9690849063a9059cbb60e01b906064015b60408051601f198184030181529190526020810180516001600160e01b03166001600160e01b031990931692909217909152611a36565b600081116114af5760405162461bcd60e51b81526020600482015260166024820152754d757374206465706f73697420736f6d657468696e6760501b60448201526064016103cf565b609e546001600160a01b038381169116146114dc5760405162461bcd60e51b81526004016103cf90612107565b603354604051636e553f6560e01b8152600481018390523060248201526001600160a01b0390911690636e553f6590604401602060405180830381600087803b15801561152857600080fd5b505af115801561153c573d6000803e3d6000fd5b505050506040513d601f19601f820116820180604052508101906115609190611f4e565b50609d54604080516001600160a01b03928316815260208101849052918416917f5548c837ab068cf56a2c2479df0882a4922fd203edb7517321831d95078c5f62910160405180910390a25050565b60005b603a54811015611707576000603a82815481106115d1576115d16121f4565b60009182526020822001546040516370a0823160e01b81523060048201526001600160a01b03909116925082906370a082319060240160206040518083038186803b15801561161f57600080fd5b505afa158015611633573d6000803e3d6000fd5b505050506040513d601f19601f820116820180604052508101906116579190611f4e565b603954603a80549293507ff6c07a063ed4e63808eb8da7112d46dbcd38de2b40a73dbcc9353c5a94c72353926001600160a01b03909216918690811061169f5761169f6121f4565b60009182526020918290200154604080516001600160a01b0394851681529390911691830191909152810183905260600160405180910390a16039546116f2906001600160a01b03848116911683611403565b505080806116ff906121ad565b9150506115b2565b50565b6001600160a01b0381166117605760405162461bcd60e51b815260206004820152601a60248201527f4e657720476f7665726e6f72206973206164647265737328302900000000000060448201526064016103cf565b806001600160a01b031661178060008051602061222b8339815191525490565b6001600160a01b03167fc7c0c772add429241571afb3805861fb3cfa2af374534088b76cdb4325a87e9a60405160405180910390a36117078160008051602061222b83398151915255565b603380546001600160a01b038089166001600160a01b0319928316179092556034805492881692909116919091179055611807603a8585611c82565b508151815181146118515760405162461bcd60e51b8152602060048201526014602482015273496e76616c696420696e7075742061727261797360601b60448201526064016103cf565b60005b818110156118aa57611898848281518110611871576118716121f4565b602002602001015184838151811061188b5761188b6121f4565b602002602001015161129e565b806118a2816121ad565b915050611854565b5050505050505050565b80158061193d5750604051636eb1769f60e11b81523060048201526001600160a01b03838116602483015284169063dd62ed3e9060440160206040518083038186803b15801561190357600080fd5b505afa158015611917573d6000803e3d6000fd5b505050506040513d601f19601f8201168201806040525081019061193b9190611f4e565b155b6119a85760405162461bcd60e51b815260206004820152603660248201527f5361666545524332303a20617070726f76652066726f6d206e6f6e2d7a65726f60448201527520746f206e6f6e2d7a65726f20616c6c6f77616e636560501b60648201526084016103cf565b6040516001600160a01b038316602482015260448101829052610d9690849063095ea7b360e01b9060640161142f565b609d80546001600160a01b03199081166001600160a01b03848116918217909355609e805490921685841617909155603354611a1792166000196118b4565b603354609e546103e2916001600160a01b0391821691166000196118b4565b6000611a8b826040518060400160405280602081526020017f5361666545524332303a206c6f772d6c6576656c2063616c6c206661696c6564815250856001600160a01b0316611b089092919063ffffffff16565b805190915015610d965780806020019051810190611aa99190611f13565b610d965760405162461bcd60e51b815260206004820152602a60248201527f5361666545524332303a204552433230206f7065726174696f6e20646964206e6044820152691bdd081cdd58d8d9595960b21b60648201526084016103cf565b6060611b178484600085611b21565b90505b9392505050565b606082471015611b825760405162461bcd60e51b815260206004820152602660248201527f416464726573733a20696e73756666696369656e742062616c616e636520666f6044820152651c8818d85b1b60d21b60648201526084016103cf565b843b611bd05760405162461bcd60e51b815260206004820152601d60248201527f416464726573733a2063616c6c20746f206e6f6e2d636f6e747261637400000060448201526064016103cf565b600080866001600160a01b03168587604051611bec9190611f67565b60006040518083038185875af1925050503d8060008114611c29576040519150601f19603f3d011682016040523d82523d6000602084013e611c2e565b606091505b5091509150611c3e828286611c49565b979650505050505050565b60608315611c58575081611b1a565b825115611c685782518084602001fd5b8160405162461bcd60e51b81526004016103cf9190612066565b828054828255906000526020600020908101928215611cd5579160200282015b82811115611cd55781546001600160a01b0319166001600160a01b03843516178255602090920191600190910190611ca2565b50611ce1929150611ce5565b5090565b5b80821115611ce15760008155600101611ce6565b80356001600160a01b0381168114611d1157600080fd5b919050565b60008083601f840112611d2857600080fd5b50813567ffffffffffffffff811115611d4057600080fd5b6020830191508360208260051b8501011115611d5b57600080fd5b9250929050565b600060208284031215611d7457600080fd5b611b1a82611cfa565b60008060408385031215611d9057600080fd5b611d9983611cfa565b9150611da760208401611cfa565b90509250929050565b60008060008060008060008060a0898b031215611dcc57600080fd5b611dd589611cfa565b9750611de360208a01611cfa565b9650604089013567ffffffffffffffff80821115611e0057600080fd5b611e0c8c838d01611d16565b909850965060608b0135915080821115611e2557600080fd5b611e318c838d01611d16565b909650945060808b0135915080821115611e4a57600080fd5b50611e578b828c01611d16565b999c989b5096995094979396929594505050565b600080600060608486031215611e8057600080fd5b611e8984611cfa565b9250611e9760208501611cfa565b9150604084013590509250925092565b60008060408385031215611eba57600080fd5b611ec383611cfa565b946020939093013593505050565b60008060208385031215611ee457600080fd5b823567ffffffffffffffff811115611efb57600080fd5b611f0785828601611d16565b90969095509350505050565b600060208284031215611f2557600080fd5b81518015158114611b1a57600080fd5b600060208284031215611f4757600080fd5b5035919050565b600060208284031215611f6057600080fd5b5051919050565b60008251611f7981846020870161217d565b9190910192915050565b6020808252825182820181905260009190848201906040850190845b81811015611fc45783516001600160a01b031683529284019291840191600101611f9f565b50909695505050505050565b6000604082016040835280865480835260608501915087600052602092508260002060005b8281101561201a5781546001600160a01b031684529284019260019182019101611ff5565b505050838103828501528481528590820160005b8681101561205a576001600160a01b0361204784611cfa565b168252918301919083019060010161202e565b50979650505050505050565b602081526000825180602084015261208581604085016020870161217d565b601f01601f19169190910160400192915050565b60208082526017908201527f43616c6c6572206973206e6f7420746865205661756c74000000000000000000604082015260600190565b6020808252601a908201527f43616c6c6572206973206e6f742074686520476f7665726e6f72000000000000604082015260600190565b60208082526018908201527f556e657870656374656420617373657420616464726573730000000000000000604082015260600190565b6020808252600e908201526d1499595b9d1c985b9d0818d85b1b60921b604082015260600190565b600082821015612178576121786121c8565b500390565b60005b83811015612198578181015183820152602001612180565b838111156121a7576000848401525b50505050565b60006000198214156121c1576121c16121c8565b5060010190565b634e487b7160e01b600052601160045260246000fd5b634e487b7160e01b600052603160045260246000fd5b634e487b7160e01b600052603260045260246000fdfe53bf423e48ed90e97d02ab0ebab13b2a235a6bfbe9c321847d5c175333ac45357bea13895fa79d2831e0a9e28edede30099005a50d652d8957cf8a607ee6ca4aa2646970667358221220f785ecfbb727b6b247d9c5c7925506f55b2a07113ca14b4961e11ea2d60676a464736f6c634300080700337bea13895fa79d2831e0a9e28edede30099005a50d652d8957cf8a607ee6ca4a",
  "devdoc": {
    "kind": "dev",
    "methods": {
      "checkBalance(address)": {
        "details": "Get the total asset value held in the platform",
        "params": {
          "_asset": "Address of the asset"
        },
        "returns": {
          "balance": "   Total value of the asset in the platform"
        }
      },
      "claimGovernance()": {
        "details": "Claim Governance of the contract to a new account (`newGovernor`). Can only be called by the new Governor."
      },
      "collectRewardTokens()": {
        "details": "Collect accumulated reward token and send to Vault."
      },
      "deposit(address,uint256)": {
        "details": "Deposit assets by converting them to shares",
        "params": {
          "_amount": "Amount of asset to deposit",
          "_asset": "Address of asset to deposit"
        }
      },
      "depositAll()": {
        "details": "Deposit the entire balance of assetToken to gain shareToken"
      },
      "getRewardTokenAddresses()": {
        "details": "Get the reward token addresses.",
        "returns": {
          "_0": "address[] the reward token addresses."
        }
      },
      "governor()": {
        "details": "Returns the address of the current Governor."
      },
      "initialize(address,address,address[],address[],address[])": {
        "details": "Internal initialize function, to set up initial internal state",
        "params": {
          "_assets": "Addresses of initial supported assets",
          "_pTokens": "Platform Token corresponding addresses",
          "_platformAddress": "Generic platform address",
          "_rewardTokenAddresses": "Address of reward token for platform",
          "_vaultAddress": "Address of the Vault"
        }
      },
      "isGovernor()": {
        "details": "Returns true if the caller is the current Governor."
      },
      "removePToken(uint256)": {
        "details": "Remove a supported asset by passing its index.      This method can only be called by the system Governor",
        "params": {
          "_assetIndex": "Index of the asset to be removed"
        }
      },
      "safeApproveAllTokens()": {
        "details": "Approve the spending of all assets by their corresponding cToken,      if for some reason is it necessary."
      },
      "setHarvesterAddress(address)": {
        "details": "Set the reward token addresses.",
        "params": {
          "_harvesterAddress": "Address of the harvester"
        }
      },
      "setPTokenAddress(address,address)": {
        "details": "Provide support for asset by passing its pToken address.      This method can only be called by the system Governor",
        "params": {
          "_asset": "Address for the asset",
          "_pToken": "Address for the corresponding platform token"
        }
      },
      "setRewardTokenAddresses(address[])": {
        "details": "Set the reward token addresses.",
        "params": {
          "_rewardTokenAddresses": "Address array of the reward token"
        }
      },
      "supportsAsset(address)": {
        "details": "Retuns bool indicating whether asset is supported by strategy",
        "params": {
          "_asset": "Address of the asset"
        }
      },
      "transferGovernance(address)": {
        "details": "Transfers Governance of the contract to a new account (`newGovernor`). Can only be called by the current Governor. Must be claimed for this to complete",
        "params": {
          "_newGovernor": "Address of the new Governor"
        }
      },
      "transferToken(address,uint256)": {
        "details": "Transfer token to governor. Intended for recovering tokens stuck in      strategy contracts, i.e. mistaken sends.",
        "params": {
          "_amount": "Amount of the asset to transfer",
          "_asset": "Address for the asset"
        }
      },
      "withdraw(address,address,uint256)": {
        "details": "Withdraw asset by burning shares",
        "params": {
          "_amount": "Amount of asset to withdraw",
          "_asset": "Address of asset to withdraw",
          "_recipient": "Address to receive withdrawn asset"
        }
      },
      "withdrawAll()": {
        "details": "Remove all assets from platform and send them to Vault contract."
      }
    },
    "version": 1
  },
  "userdoc": {
    "kind": "user",
    "methods": {},
    "version": 1
  },
  "storageLayout": {
    "storage": [
      {
        "astId": 24590,
        "contract": "contracts/strategies/Generalized4626Strategy.sol:Generalized4626Strategy",
        "label": "initialized",
        "offset": 0,
        "slot": "0",
        "type": "t_bool"
      },
      {
        "astId": 24593,
        "contract": "contracts/strategies/Generalized4626Strategy.sol:Generalized4626Strategy",
        "label": "initializing",
        "offset": 1,
        "slot": "0",
        "type": "t_bool"
      },
      {
        "astId": 24633,
        "contract": "contracts/strategies/Generalized4626Strategy.sol:Generalized4626Strategy",
        "label": "______gap",
        "offset": 0,
        "slot": "1",
        "type": "t_array(t_uint256)50_storage"
      },
      {
        "astId": 24711,
        "contract": "contracts/strategies/Generalized4626Strategy.sol:Generalized4626Strategy",
        "label": "platformAddress",
        "offset": 0,
        "slot": "51",
        "type": "t_address"
      },
      {
        "astId": 24713,
        "contract": "contracts/strategies/Generalized4626Strategy.sol:Generalized4626Strategy",
        "label": "vaultAddress",
        "offset": 0,
        "slot": "52",
        "type": "t_address"
      },
      {
        "astId": 24717,
        "contract": "contracts/strategies/Generalized4626Strategy.sol:Generalized4626Strategy",
        "label": "assetToPToken",
        "offset": 0,
        "slot": "53",
        "type": "t_mapping(t_address,t_address)"
      },
      {
        "astId": 24720,
        "contract": "contracts/strategies/Generalized4626Strategy.sol:Generalized4626Strategy",
        "label": "assetsMapped",
        "offset": 0,
        "slot": "54",
        "type": "t_array(t_address)dyn_storage"
      },
      {
        "astId": 24722,
        "contract": "contracts/strategies/Generalized4626Strategy.sol:Generalized4626Strategy",
        "label": "_deprecated_rewardTokenAddress",
        "offset": 0,
        "slot": "55",
        "type": "t_address"
      },
      {
        "astId": 24724,
        "contract": "contracts/strategies/Generalized4626Strategy.sol:Generalized4626Strategy",
        "label": "_deprecated_rewardLiquidationThreshold",
        "offset": 0,
        "slot": "56",
        "type": "t_uint256"
      },
      {
        "astId": 24726,
        "contract": "contracts/strategies/Generalized4626Strategy.sol:Generalized4626Strategy",
        "label": "harvesterAddress",
        "offset": 0,
        "slot": "57",
        "type": "t_address"
      },
      {
        "astId": 24729,
        "contract": "contracts/strategies/Generalized4626Strategy.sol:Generalized4626Strategy",
        "label": "rewardTokenAddresses",
        "offset": 0,
        "slot": "58",
        "type": "t_array(t_address)dyn_storage"
      },
      {
        "astId": 24733,
        "contract": "contracts/strategies/Generalized4626Strategy.sol:Generalized4626Strategy",
        "label": "_reserved",
        "offset": 0,
        "slot": "59",
        "type": "t_array(t_int256)98_storage"
      },
      {
        "astId": 20054,
        "contract": "contracts/strategies/Generalized4626Strategy.sol:Generalized4626Strategy",
        "label": "shareToken",
        "offset": 0,
        "slot": "157",
        "type": "t_contract(IERC20)623"
      },
      {
        "astId": 20057,
        "contract": "contracts/strategies/Generalized4626Strategy.sol:Generalized4626Strategy",
        "label": "assetToken",
        "offset": 0,
        "slot": "158",
        "type": "t_contract(IERC20)623"
      }
    ],
    "types": {
      "t_address": {
        "encoding": "inplace",
        "label": "address",
        "numberOfBytes": "20"
      },
      "t_array(t_address)dyn_storage": {
        "base": "t_address",
        "encoding": "dynamic_array",
        "label": "address[]",
        "numberOfBytes": "32"
      },
      "t_array(t_int256)98_storage": {
        "base": "t_int256",
        "encoding": "inplace",
        "label": "int256[98]",
        "numberOfBytes": "3136"
      },
      "t_array(t_uint256)50_storage": {
        "base": "t_uint256",
        "encoding": "inplace",
        "label": "uint256[50]",
        "numberOfBytes": "1600"
      },
      "t_bool": {
        "encoding": "inplace",
        "label": "bool",
        "numberOfBytes": "1"
      },
      "t_contract(IERC20)623": {
        "encoding": "inplace",
        "label": "contract IERC20",
        "numberOfBytes": "20"
      },
      "t_int256": {
        "encoding": "inplace",
        "label": "int256",
        "numberOfBytes": "32"
      },
      "t_mapping(t_address,t_address)": {
        "encoding": "mapping",
        "key": "t_address",
        "label": "mapping(address => address)",
        "numberOfBytes": "32",
        "value": "t_address"
      },
      "t_uint256": {
        "encoding": "inplace",
        "label": "uint256",
        "numberOfBytes": "32"
      }
    }
  }
}