{
  "address": "0x6aD90cB172001eE0096Bb758c617F5cba5163687",
  "abi": [
    {
      "inputs": [
        {
          "internalType": "address",
          "name": "_vault",
          "type": "address"
        },
        {
          "internalType": "address",
          "name": "_usdtAddress",
          "type": "address"
        }
      ],
      "stateMutability": "nonpayable",
      "type": "constructor"
    },
    {
      "anonymous": false,
      "inputs": [
        {
          "indexed": true,
          "internalType": "address",
          "name": "previousGovernor",
          "type": "address"
        },
        {
          "indexed": true,
          "internalType": "address",
          "name": "newGovernor",
          "type": "address"
        }
      ],
      "name": "GovernorshipTransferred",
      "type": "event"
    },
    {
      "anonymous": false,
      "inputs": [
        {
          "indexed": true,
          "internalType": "address",
          "name": "previousGovernor",
          "type": "address"
        },
        {
          "indexed": true,
          "internalType": "address",
          "name": "newGovernor",
          "type": "address"
        }
      ],
      "name": "PendingGovernorshipTransfer",
      "type": "event"
    },
    {
      "anonymous": false,
      "inputs": [
        {
          "indexed": false,
          "internalType": "address",
          "name": "_tokenAddress",
          "type": "address"
        },
        {
          "indexed": false,
          "internalType": "uint16",
          "name": "_allowedSlippageBps",
          "type": "uint16"
        },
        {
          "indexed": false,
          "internalType": "uint16",
          "name": "_harvestRewardBps",
          "type": "uint16"
        },
        {
          "indexed": false,
          "internalType": "address",
          "name": "_uniswapV2CompatibleAddr",
          "type": "address"
        },
        {
          "indexed": false,
          "internalType": "uint256",
          "name": "_liquidationLimit",
          "type": "uint256"
        },
        {
          "indexed": false,
          "internalType": "bool",
          "name": "_doSwapRewardToken",
          "type": "bool"
        }
      ],
      "name": "RewardTokenConfigUpdated",
      "type": "event"
    },
    {
      "anonymous": false,
      "inputs": [
        {
          "indexed": false,
          "internalType": "address",
          "name": "_address",
          "type": "address"
        },
        {
          "indexed": false,
          "internalType": "bool",
          "name": "_isSupported",
          "type": "bool"
        }
      ],
      "name": "SupportedStrategyUpdate",
      "type": "event"
    },
    {
      "anonymous": false,
      "inputs": [
        {
          "indexed": false,
          "internalType": "address",
          "name": "_address",
          "type": "address"
        }
      ],
      "name": "UniswapUpdated",
      "type": "event"
    },
    {
      "inputs": [],
      "name": "claimGovernance",
      "outputs": [],
      "stateMutability": "nonpayable",
      "type": "function"
    },
    {
      "inputs": [],
      "name": "governor",
      "outputs": [
        {
          "internalType": "address",
          "name": "",
          "type": "address"
        }
      ],
      "stateMutability": "view",
      "type": "function"
    },
    {
      "inputs": [
        {
          "internalType": "address",
          "name": "_strategyAddr",
          "type": "address"
        }
      ],
      "name": "harvest",
      "outputs": [],
      "stateMutability": "nonpayable",
      "type": "function"
    },
    {
      "inputs": [],
      "name": "harvest",
      "outputs": [],
      "stateMutability": "nonpayable",
      "type": "function"
    },
    {
      "inputs": [],
      "name": "harvestAndSwap",
      "outputs": [],
      "stateMutability": "nonpayable",
      "type": "function"
    },
    {
      "inputs": [
        {
          "internalType": "address",
          "name": "_strategyAddr",
          "type": "address"
        }
      ],
      "name": "harvestAndSwap",
      "outputs": [],
      "stateMutability": "nonpayable",
      "type": "function"
    },
    {
      "inputs": [
        {
          "internalType": "address",
          "name": "_strategyAddr",
          "type": "address"
        },
        {
          "internalType": "address",
          "name": "_rewardTo",
          "type": "address"
        }
      ],
      "name": "harvestAndSwap",
      "outputs": [],
      "stateMutability": "nonpayable",
      "type": "function"
    },
    {
      "inputs": [],
      "name": "isGovernor",
      "outputs": [
        {
          "internalType": "bool",
          "name": "",
          "type": "bool"
        }
      ],
      "stateMutability": "view",
      "type": "function"
    },
    {
      "inputs": [],
      "name": "rewardProceedsAddress",
      "outputs": [
        {
          "internalType": "address",
          "name": "",
          "type": "address"
        }
      ],
      "stateMutability": "view",
      "type": "function"
    },
    {
      "inputs": [
        {
          "internalType": "address",
          "name": "",
          "type": "address"
        }
      ],
      "name": "rewardTokenConfigs",
      "outputs": [
        {
          "internalType": "uint16",
          "name": "allowedSlippageBps",
          "type": "uint16"
        },
        {
          "internalType": "uint16",
          "name": "harvestRewardBps",
          "type": "uint16"
        },
        {
          "internalType": "address",
          "name": "uniswapV2CompatibleAddr",
          "type": "address"
        },
        {
          "internalType": "bool",
          "name": "doSwapRewardToken",
          "type": "bool"
        },
        {
          "internalType": "uint256",
          "name": "liquidationLimit",
          "type": "uint256"
        }
      ],
      "stateMutability": "view",
      "type": "function"
    },
    {
      "inputs": [
        {
          "internalType": "address",
          "name": "_tokenAddress",
          "type": "address"
        },
        {
          "internalType": "uint16",
          "name": "_allowedSlippageBps",
          "type": "uint16"
        },
        {
          "internalType": "uint16",
          "name": "_harvestRewardBps",
          "type": "uint16"
        },
        {
          "internalType": "address",
          "name": "_uniswapV2CompatibleAddr",
          "type": "address"
        },
        {
          "internalType": "uint256",
          "name": "_liquidationLimit",
          "type": "uint256"
        },
        {
          "internalType": "bool",
          "name": "_doSwapRewardToken",
          "type": "bool"
        }
      ],
      "name": "setRewardTokenConfig",
      "outputs": [],
      "stateMutability": "nonpayable",
      "type": "function"
    },
    {
      "inputs": [
        {
          "internalType": "address",
          "name": "_rewardProceedsAddress",
          "type": "address"
        }
      ],
      "name": "setRewardsProceedsAddress",
      "outputs": [],
      "stateMutability": "nonpayable",
      "type": "function"
    },
    {
      "inputs": [
        {
          "internalType": "address",
          "name": "_strategyAddress",
          "type": "address"
        },
        {
          "internalType": "bool",
          "name": "_isSupported",
          "type": "bool"
        }
      ],
      "name": "setSupportedStrategy",
      "outputs": [],
      "stateMutability": "nonpayable",
      "type": "function"
    },
    {
      "inputs": [
        {
          "internalType": "address",
          "name": "",
          "type": "address"
        }
      ],
      "name": "supportedStrategies",
      "outputs": [
        {
          "internalType": "bool",
          "name": "",
          "type": "bool"
        }
      ],
      "stateMutability": "view",
      "type": "function"
    },
    {
      "inputs": [],
      "name": "swap",
      "outputs": [],
      "stateMutability": "nonpayable",
      "type": "function"
    },
    {
      "inputs": [
        {
          "internalType": "address",
          "name": "_swapToken",
          "type": "address"
        }
      ],
      "name": "swapRewardToken",
      "outputs": [],
      "stateMutability": "nonpayable",
      "type": "function"
    },
    {
      "inputs": [
        {
          "internalType": "address",
          "name": "_newGovernor",
          "type": "address"
        }
      ],
      "name": "transferGovernance",
      "outputs": [],
      "stateMutability": "nonpayable",
      "type": "function"
    },
    {
      "inputs": [
        {
          "internalType": "address",
          "name": "_asset",
          "type": "address"
        },
        {
          "internalType": "uint256",
          "name": "_amount",
          "type": "uint256"
        }
      ],
      "name": "transferToken",
      "outputs": [],
      "stateMutability": "nonpayable",
      "type": "function"
    },
    {
      "inputs": [],
      "name": "usdtAddress",
      "outputs": [
        {
          "internalType": "address",
          "name": "",
          "type": "address"
        }
      ],
      "stateMutability": "view",
      "type": "function"
    },
    {
      "inputs": [],
      "name": "vaultAddress",
      "outputs": [
        {
          "internalType": "address",
          "name": "",
          "type": "address"
        }
      ],
      "stateMutability": "view",
      "type": "function"
    }
  ],
  "transactionHash": "0x31a939b0763b6b93163893855c23ec1a48a1e5eef829c7d738035ec23f0debce",
  "args": [
    "0xE75D77B1865Ae93c7eaa3040B038D7aA7BC02F70",
    "0xdAC17F958D2ee523a2206206994597C13D831ec7"
  ],
  "numDeployments": 2,
  "solcInputHash": "4b50676bca9e9a4e842de1d53a0040b0",
  "bytecode": "0x60c06040523480156200001157600080fd5b506040516200268338038062002683833981016040819052620000349162000101565b816200004d336000805160206200266383398151915255565b60008051602062002663833981519152546040516001600160a01b03909116906000907fc7c0c772add429241571afb3805861fb3cfa2af374534088b76cdb4325a87e9a908290a36001600160a01b038116620000a957600080fd5b60601b6001600160601b0319166080526001600160a01b038116620000cd57600080fd5b60601b6001600160601b03191660a0525062000139565b80516001600160a01b0381168114620000fc57600080fd5b919050565b600080604083850312156200011557600080fd5b6200012083620000e4565b91506200013060208401620000e4565b90509250929050565b60805160601c60a05160601c6124cd62000196600039600081816102a7015281816114da01526115bf0152600081816101b10152818161072001528181610af101528181610e8001528181610f5901526111c801526124cd6000f3fe608060405234801561001057600080fd5b506004361061012c5760003560e01c80635d36b190116100ad578063b76e83af11610071578063b76e83af146102dc578063bb444881146102ef578063c7af335214610302578063d38bfff41461031a578063ee3be5f51461032d57600080fd5b80635d36b1901461027f57806365f6fa94146102875780638119c0651461029a5780639ab4a445146102a2578063a994317f146102c957600080fd5b806326aaf9cf116100f457806326aaf9cf14610199578063430bf08a146101ac5780634641257d146101d3578063548f5ae5146101db578063587c8440146101ee57600080fd5b806305f566e5146101315780630c340a24146101465780630e5c011e1461016b5780630fbd78081461017e5780631072cbea14610186575b600080fd5b61014461013f366004611e00565b610350565b005b61014e610413565b6040516001600160a01b0390911681526020015b60405180910390f35b610144610179366004611e00565b610430565b61014461049b565b610144610194366004611f16565b610519565b6101446101a7366004611e00565b61055d565b61014e7f000000000000000000000000000000000000000000000000000000000000000081565b6101446105cd565b6101446101e9366004611e00565b61062f565b6102436101fc366004611e00565b6000602081905290815260409020805460019091015461ffff808316926201000081049091169164010000000082046001600160a01b031691600160c01b900460ff169085565b6040805161ffff96871681529590941660208601526001600160a01b03909216928401929092529015156060830152608082015260a001610162565b61014461066f565b610144610295366004611e73565b610715565b61014461080a565b61014e7f000000000000000000000000000000000000000000000000000000000000000081565b6101446102d7366004611e3a565b610878565b60025461014e906001600160a01b031681565b6101446102fd366004611ea1565b6108c1565b61030a610ce3565b6040519015158152602001610162565b610144610328366004611e00565b610d14565b61030a61033b366004611e00565b60016020526000908152604090205460ff1681565b610358610ce3565b61037d5760405162461bcd60e51b81526004016103749061211c565b60405180910390fd5b6001600160a01b0381166103f15760405162461bcd60e51b815260206004820152603560248201527f526577617264732070726f636565647320616464726573732073686f756c642060448201527462652061206e6f6e207a65726f206164647265737360581b6064820152608401610374565b600280546001600160a01b0319166001600160a01b0392909216919091179055565b600061042b6000805160206124788339815191525490565b905090565b610438610ce3565b6104545760405162461bcd60e51b81526004016103749061211c565b600080516020612458833981519152805460028114156104865760405162461bcd60e51b815260040161037490612153565b6002825561049383610db8565b506001905550565b6104a3610ce3565b6104bf5760405162461bcd60e51b81526004016103749061211c565b600080516020612458833981519152805460028114156104f15760405162461bcd60e51b815260040161037490612153565b600282556104fd610e7c565b600254610512906001600160a01b0316610f55565b5060019055565b610521610ce3565b61053d5760405162461bcd60e51b81526004016103749061211c565b610559610548610413565b6001600160a01b03841690836110ed565b5050565b610565610ce3565b6105815760405162461bcd60e51b81526004016103749061211c565b600080516020612458833981519152805460028114156105b35760405162461bcd60e51b815260040161037490612153565b6002808355546104939084906001600160a01b0316611150565b6105d5610ce3565b6105f15760405162461bcd60e51b81526004016103749061211c565b600080516020612458833981519152805460028114156106235760405162461bcd60e51b815260040161037490612153565b60028255610512610e7c565b600080516020612458833981519152805460028114156106615760405162461bcd60e51b815260040161037490612153565b600282556104938333611769565b7f44c4d30b2eaad5130ad70c3ba6972730566f3e6359ab83e800d905c61b1c51db546001600160a01b0316336001600160a01b03161461070a5760405162461bcd60e51b815260206004820152603060248201527f4f6e6c79207468652070656e64696e6720476f7665726e6f722063616e20636f60448201526f6d706c6574652074686520636c61696d60801b6064820152608401610374565b61071333611838565b565b336001600160a01b037f000000000000000000000000000000000000000000000000000000000000000016148061074f575061074f610ce3565b6107a75760405162461bcd60e51b815260206004820152602360248201527f43616c6c6572206973206e6f7420746865205661756c74206f7220476f7665726044820152623737b960e91b6064820152608401610374565b6001600160a01b038216600081815260016020908152604091829020805460ff19168515159081179091558251938452908301527f013ed61add17cbfcbbd95bf8543da67c89658c5477d3f3199a1a2d58ecf1913f910160405180910390a15050565b610812610ce3565b61082e5760405162461bcd60e51b81526004016103749061211c565b600080516020612458833981519152805460028114156108605760405162461bcd60e51b815260040161037490612153565b600280835554610512906001600160a01b0316610f55565b600080516020612458833981519152805460028114156108aa5760405162461bcd60e51b815260040161037490612153565b600282556108b88484611769565b50600190555050565b6108c9610ce3565b6108e55760405162461bcd60e51b81526004016103749061211c565b6103e88561ffff16111561094b5760405162461bcd60e51b815260206004820152602760248201527f416c6c6f77656420736c6970706167652073686f756c64206e6f74206265206f6044820152667665722031302560c81b6064820152608401610374565b6103e88461ffff1611156109b35760405162461bcd60e51b815260206004820152602960248201527f4861727665737420726577617264206665652073686f756c64206e6f74206265604482015268206f7665722031302560b81b6064820152608401610374565b6001600160a01b038316610a275760405162461bcd60e51b815260206004820152603560248201527f556e697377617020636f6d70617469626c6520616464726573732073686f756c60448201527464206265206e6f6e207a65726f206164647265737360581b6064820152608401610374565b6040805160a08101825261ffff878116825286811660208084019182526001600160a01b0388811685870190815287151560608701908152608087018a81528e8416600090815280865289812080548a51985195519451988a1663ffffffff198216176201000096909a169590950298909817640100000000600160c81b031916640100000000938616840260ff60c01b191617600160c01b97151597909702969096178755516001909601959095558651635c4443cf60e11b8152965195969490048116948c947f00000000000000000000000000000000000000000000000000000000000000009092169263b888879e9260048082019391829003018186803b158015610b3557600080fd5b505afa158015610b49573d6000803e3d6000fd5b505050506040513d601f19601f82011682018060405250810190610b6d9190611e1d565b6040516315d5220f60e31b81526001600160a01b038c811660048301529192509082169063aea910789060240160206040518083038186803b158015610bb257600080fd5b505afa158015610bc6573d6000803e3d6000fd5b505050506040513d601f19601f82011682018060405250810190610bea9190612091565b506001600160a01b03831615801590610c155750866001600160a01b0316836001600160a01b031614155b15610c2f57610c2f6001600160a01b0383168460006118fc565b866001600160a01b0316836001600160a01b031614610c7357610c5d6001600160a01b0383168860006118fc565b610c736001600160a01b038316886000196118fc565b604080516001600160a01b038c8116825261ffff8c811660208401528b1682840152891660608201526080810188905286151560a082015290517fa366f54fe2381dd56321b1e05d11e00e0acbbee5663bcd5111ed8f604ba530ad9181900360c00190a150505050505050505050565b6000610cfb6000805160206124788339815191525490565b6001600160a01b0316336001600160a01b031614905090565b610d1c610ce3565b610d385760405162461bcd60e51b81526004016103749061211c565b610d60817f44c4d30b2eaad5130ad70c3ba6972730566f3e6359ab83e800d905c61b1c51db55565b806001600160a01b0316610d806000805160206124788339815191525490565b6001600160a01b03167fa39cc5eb22d0f34d8beaefee8a3f17cc229c1a1d1ef87a5ad47313487b1c4f0d60405160405180910390a350565b6001600160a01b03811660009081526001602052604090205460ff16610e205760405162461bcd60e51b815260206004820152601c60248201527f4e6f7420612076616c69642073747261746567792061646472657373000000006044820152606401610374565b6000819050806001600160a01b0316635a063f636040518163ffffffff1660e01b8152600401600060405180830381600087803b158015610e6057600080fd5b505af1158015610e74573d6000803e3d6000fd5b505050505050565b60007f00000000000000000000000000000000000000000000000000000000000000006001600160a01b031663c3b288646040518163ffffffff1660e01b815260040160006040518083038186803b158015610ed757600080fd5b505afa158015610eeb573d6000803e3d6000fd5b505050506040513d6000823e601f3d908101601f19168201604052610f139190810190611f42565b905060005b815181101561055957610f43828281518110610f3657610f36612408565b6020026020010151610db8565b80610f4d816123d7565b915050610f18565b60007f00000000000000000000000000000000000000000000000000000000000000006001600160a01b031663c3b288646040518163ffffffff1660e01b815260040160006040518083038186803b158015610fb057600080fd5b505afa158015610fc4573d6000803e3d6000fd5b505050506040513d6000823e601f3d908101601f19168201604052610fec9190810190611f42565b905060005b81518110156110e857600082828151811061100e5761100e612408565b602002602001015190506000816001600160a01b031663f6ca71b06040518163ffffffff1660e01b815260040160006040518083038186803b15801561105357600080fd5b505afa158015611067573d6000803e3d6000fd5b505050506040513d6000823e601f3d908101601f1916820160405261108f9190810190611f42565b905060005b81518110156110d2576110c08282815181106110b2576110b2612408565b602002602001015187611150565b806110ca816123d7565b915050611094565b50505080806110e0906123d7565b915050610ff1565b505050565b6040516001600160a01b0383166024820152604481018290526110e890849063a9059cbb60e01b906064015b60408051601f198184030181529190526020810180516001600160e01b03166001600160e01b031990931692909217909152611a20565b6001600160a01b0382811660009081526020818152604091829020825160a081018452815461ffff80821683526201000082041693820193909352640100000000830490941692840192909252600160c01b900460ff1615156060830181905260019091015460808301526111c457505050565b60007f00000000000000000000000000000000000000000000000000000000000000006001600160a01b031663b888879e6040518163ffffffff1660e01b815260040160206040518083038186803b15801561121f57600080fd5b505afa158015611233573d6000803e3d6000fd5b505050506040513d601f19601f820116820180604052508101906112579190611e1d565b6040516370a0823160e01b815230600482015290915084906000906001600160a01b038316906370a082319060240160206040518083038186803b15801561129e57600080fd5b505afa1580156112b2573d6000803e3d6000fd5b505050506040513d601f19601f820116820180604052508101906112d69190612091565b9050806112e557505050505050565b60006112f5828660800151611af2565b6040516315d5220f60e31b81526001600160a01b03898116600483015291925060009186169063aea910789060240160206040518083038186803b15801561133c57600080fd5b505afa158015611350573d6000803e3d6000fd5b505050506040513d601f19601f820116820180604052508101906113749190612091565b90506000670de0b6b3a76400006127106113c160066113928d611b0c565b8b5187906113a29061271061236d565b6113b09061ffff168a61234e565b6113ba919061234e565b9190611bf5565b6113cb9190612241565b6113d59190612241565b604080516003808252608082019092529192506000919060208201606080368337019050509050898160008151811061141057611410612408565b60200260200101906001600160a01b031690816001600160a01b03168152505087604001516001600160a01b031663ad5c46486040518163ffffffff1660e01b815260040160206040518083038186803b15801561146d57600080fd5b505afa158015611481573d6000803e3d6000fd5b505050506040513d601f19601f820116820180604052508101906114a59190611e1d565b816001815181106114b8576114b8612408565b60200260200101906001600160a01b031690816001600160a01b0316815250507f00000000000000000000000000000000000000000000000000000000000000008160028151811061150c5761150c612408565b6001600160a01b0392831660209182029290920101526040808a015190516338ed173960e01b81529116906338ed173990611553908790869086903090429060040161217b565b600060405180830381600087803b15801561156d57600080fd5b505af1158015611581573d6000803e3d6000fd5b505050506040513d6000823e601f3d908101601f191682016040526115a99190810190611fe8565b506040516370a0823160e01b81523060048201527f0000000000000000000000000000000000000000000000000000000000000000906000906001600160a01b038316906370a082319060240160206040518083038186803b15801561160e57600080fd5b505afa158015611622573d6000803e3d6000fd5b505050506040513d601f19601f820116820180604052508101906116469190612091565b905060008a6020015161271061165c919061236d565b61ffff1690506000612710611671838561234e565b61167b9190612241565b90508b6020015161ffff1682116117205760405162461bcd60e51b815260206004820152605f60248201527f4164647265737320726563656976696e67206861727665737420696e63656e7460448201527f69766520697320726563656976696e67206d6f7265207265776172647320746860648201527f616e2074686520726577617264732070726f6365656473206164647265737300608482015260a401610374565b60025461173a906001600160a01b038681169116836110ed565b6117598d6117488386612390565b6001600160a01b03871691906110ed565b5050505050505050505050505050565b61177282610db8565b60008290506000816001600160a01b031663f6ca71b06040518163ffffffff1660e01b815260040160006040518083038186803b1580156117b257600080fd5b505afa1580156117c6573d6000803e3d6000fd5b505050506040513d6000823e601f3d908101601f191682016040526117ee9190810190611f42565b905060005b81518110156118315761181f82828151811061181157611811612408565b602002602001015185611150565b80611829816123d7565b9150506117f3565b5050505050565b6001600160a01b03811661188e5760405162461bcd60e51b815260206004820152601a60248201527f4e657720476f7665726e6f7220697320616464726573732830290000000000006044820152606401610374565b806001600160a01b03166118ae6000805160206124788339815191525490565b6001600160a01b03167fc7c0c772add429241571afb3805861fb3cfa2af374534088b76cdb4325a87e9a60405160405180910390a36118f98160008051602061247883398151915255565b50565b8015806119855750604051636eb1769f60e11b81523060048201526001600160a01b03838116602483015284169063dd62ed3e9060440160206040518083038186803b15801561194b57600080fd5b505afa15801561195f573d6000803e3d6000fd5b505050506040513d601f19601f820116820180604052508101906119839190612091565b155b6119f05760405162461bcd60e51b815260206004820152603660248201527f5361666545524332303a20617070726f76652066726f6d206e6f6e2d7a65726f60448201527520746f206e6f6e2d7a65726f20616c6c6f77616e636560501b6064820152608401610374565b6040516001600160a01b0383166024820152604481018290526110e890849063095ea7b360e01b90606401611119565b6000611a75826040518060400160405280602081526020017f5361666545524332303a206c6f772d6c6576656c2063616c6c206661696c6564815250856001600160a01b0316611c599092919063ffffffff16565b8051909150156110e85780806020019051810190611a939190612074565b6110e85760405162461bcd60e51b815260206004820152602a60248201527f5361666545524332303a204552433230206f7065726174696f6e20646964206e6044820152691bdd081cdd58d8d9595960b21b6064820152608401610374565b6000818310611b015781611b03565b825b90505b92915050565b600080826001600160a01b031663313ce5676040518163ffffffff1660e01b815260040160206040518083038186803b158015611b4857600080fd5b505afa158015611b5c573d6000803e3d6000fd5b505050506040513d601f19601f82011682018060405250810190611b8091906120aa565b60ff16905060048110158015611b97575060128111155b611b065760405162461bcd60e51b815260206004820152602960248201527f546f6b656e206d75737420686176652073756666696369656e7420646563696d604482015268616c20706c6163657360b81b6064820152608401610374565b600081831115611c2557611c1e611c0c8385612390565b611c1790600a6122a6565b8590611c70565b9350611c4f565b81831015611c4f57611c4c611c3a8484612390565b611c4590600a6122a6565b8590611c7c565b93505b50825b9392505050565b6060611c688484600085611c88565b949350505050565b6000611b03828461234e565b6000611b038284612241565b606082471015611ce95760405162461bcd60e51b815260206004820152602660248201527f416464726573733a20696e73756666696369656e742062616c616e636520666f6044820152651c8818d85b1b60d21b6064820152608401610374565b843b611d375760405162461bcd60e51b815260206004820152601d60248201527f416464726573733a2063616c6c20746f206e6f6e2d636f6e74726163740000006044820152606401610374565b600080866001600160a01b03168587604051611d5391906120cd565b60006040518083038185875af1925050503d8060008114611d90576040519150601f19603f3d011682016040523d82523d6000602084013e611d95565b606091505b5091509150611da5828286611db0565b979650505050505050565b60608315611dbf575081611c52565b825115611dcf5782518084602001fd5b8160405162461bcd60e51b815260040161037491906120e9565b803561ffff81168114611dfb57600080fd5b919050565b600060208284031215611e1257600080fd5b8135611c5281612434565b600060208284031215611e2f57600080fd5b8151611c5281612434565b60008060408385031215611e4d57600080fd5b8235611e5881612434565b91506020830135611e6881612434565b809150509250929050565b60008060408385031215611e8657600080fd5b8235611e9181612434565b91506020830135611e6881612449565b60008060008060008060c08789031215611eba57600080fd5b8635611ec581612434565b9550611ed360208801611de9565b9450611ee160408801611de9565b93506060870135611ef181612434565b92506080870135915060a0870135611f0881612449565b809150509295509295509295565b60008060408385031215611f2957600080fd5b8235611f3481612434565b946020939093013593505050565b60006020808385031215611f5557600080fd5b825167ffffffffffffffff811115611f6c57600080fd5b8301601f81018513611f7d57600080fd5b8051611f90611f8b8261221d565b6121ec565b80828252848201915084840188868560051b8701011115611fb057600080fd5b600094505b83851015611fdc578051611fc881612434565b835260019490940193918501918501611fb5565b50979650505050505050565b60006020808385031215611ffb57600080fd5b825167ffffffffffffffff81111561201257600080fd5b8301601f8101851361202357600080fd5b8051612031611f8b8261221d565b80828252848201915084840188868560051b870101111561205157600080fd5b600094505b83851015611fdc578051835260019490940193918501918501612056565b60006020828403121561208657600080fd5b8151611c5281612449565b6000602082840312156120a357600080fd5b5051919050565b6000602082840312156120bc57600080fd5b815160ff81168114611c5257600080fd5b600082516120df8184602087016123a7565b9190910192915050565b60208152600082518060208401526121088160408501602087016123a7565b601f01601f19169190910160400192915050565b6020808252601a908201527f43616c6c6572206973206e6f742074686520476f7665726e6f72000000000000604082015260600190565b6020808252600e908201526d1499595b9d1c985b9d0818d85b1b60921b604082015260600190565b600060a082018783526020878185015260a0604085015281875180845260c086019150828901935060005b818110156121cb5784516001600160a01b0316835293830193918301916001016121a6565b50506001600160a01b03969096166060850152505050608001529392505050565b604051601f8201601f1916810167ffffffffffffffff811182821017156122155761221561241e565b604052919050565b600067ffffffffffffffff8211156122375761223761241e565b5060051b60200190565b60008261225e57634e487b7160e01b600052601260045260246000fd5b500490565b600181815b8085111561229e578160001904821115612284576122846123f2565b8085161561229157918102915b93841c9390800290612268565b509250929050565b6000611b0383836000826122bc57506001611b06565b816122c957506000611b06565b81600181146122df57600281146122e957612305565b6001915050611b06565b60ff8411156122fa576122fa6123f2565b50506001821b611b06565b5060208310610133831016604e8410600b8410161715612328575081810a611b06565b6123328383612263565b8060001904821115612346576123466123f2565b029392505050565b6000816000190483118215151615612368576123686123f2565b500290565b600061ffff83811690831681811015612388576123886123f2565b039392505050565b6000828210156123a2576123a26123f2565b500390565b60005b838110156123c25781810151838201526020016123aa565b838111156123d1576000848401525b50505050565b60006000198214156123eb576123eb6123f2565b5060010190565b634e487b7160e01b600052601160045260246000fd5b634e487b7160e01b600052603260045260246000fd5b634e487b7160e01b600052604160045260246000fd5b6001600160a01b03811681146118f957600080fd5b80151581146118f957600080fdfe53bf423e48ed90e97d02ab0ebab13b2a235a6bfbe9c321847d5c175333ac45357bea13895fa79d2831e0a9e28edede30099005a50d652d8957cf8a607ee6ca4aa264697066735822122010ec4ac34929fe07b5bcfa3fa8895773da6d4c8e40477ba6080c9c2e009c883564736f6c634300080700337bea13895fa79d2831e0a9e28edede30099005a50d652d8957cf8a607ee6ca4a",
  "devdoc": {
    "kind": "dev",
    "methods": {
      "constructor": {
        "details": "Constructor to set up initial internal state",
        "params": {
          "_usdtAddress": "Address of Tether",
          "_vault": "Address of the Vault"
        }
      },
      "harvest()": {
        "details": "Collect reward tokens from all strategies"
      },
      "harvest(address)": {
        "details": "Collect reward tokens for a specific strategy.",
        "params": {
          "_strategyAddr": "Address of the strategy to collect rewards from"
        }
      },
      "harvestAndSwap(address)": {
        "details": "Collect reward tokens for a specific strategy and swap for supported      stablecoin via Uniswap. Can be called by anyone. Rewards incentivizing      the caller are sent to the caller of this function.",
        "params": {
          "_strategyAddr": "Address of the strategy to collect rewards from"
        }
      },
      "harvestAndSwap(address,address)": {
        "details": "Collect reward tokens for a specific strategy and swap for supported      stablecoin via Uniswap. Can be called by anyone.",
        "params": {
          "_rewardTo": "Address where to send a share of harvest rewards to as an incentive      for executing this function",
          "_strategyAddr": "Address of the strategy to collect rewards from"
        }
      },
      "setRewardTokenConfig(address,uint16,uint16,address,uint256,bool)": {
        "details": "Add/update a reward token configuration that holds harvesting config variables",
        "params": {
          "_allowedSlippageBps": "uint16 maximum allowed slippage denominated in basis points.        Example: 300 == 3% slippage",
          "_doSwapRewardToken": "bool When true the reward token is being swapped. In a need of (temporarily)        disabling the swapping of a reward token this needs to be set to false.",
          "_harvestRewardBps": "uint16 amount of reward tokens the caller of the function is rewarded.        Example: 100 == 1%",
          "_liquidationLimit": "uint256 Maximum amount of token to be sold per one swap function call.        When value is 0 there is no limit.",
          "_tokenAddress": "Address of the reward token",
          "_uniswapV2CompatibleAddr": "Address Address of a UniswapV2 compatible contract to perform        the exchange from reward tokens to stablecoin (currently hard-coded to USDT)"
        }
      },
      "setRewardsProceedsAddress(address)": {
        "params": {
          "_rewardProceedsAddress": "Address of the reward token"
        }
      },
      "setSupportedStrategy(address,bool)": {
        "details": "Flags a strategy as supported or not supported one",
        "params": {
          "_isSupported": "Bool marking strategy as supported or not supported",
          "_strategyAddress": "Address of the strategy"
        }
      },
      "swap()": {
        "details": "Swap all supported swap tokens for stablecoins via Uniswap."
      },
      "swapRewardToken(address)": {
        "details": "Governance convenience function to swap a specific _rewardToken and send       rewards to the vault.",
        "params": {
          "_swapToken": "Address of the token to swap."
        }
      },
      "transferGovernance(address)": {
        "params": {
          "_newGovernor": "Address of the new Governor"
        }
      },
      "transferToken(address,uint256)": {
        "details": "Transfer token to governor. Intended for recovering tokens stuck in      contract, i.e. mistaken sends.",
        "params": {
          "_amount": "Amount of the asset to transfer",
          "_asset": "Address for the asset"
        }
      }
    },
    "version": 1
  },
  "userdoc": {
    "kind": "user",
    "methods": {
      "claimGovernance()": {
        "notice": "Claim Governance of the contract to a new account (`newGovernor`). Can only be called by the new Governor."
      },
      "governor()": {
        "notice": "Returns the address of the current Governor."
      },
      "isGovernor()": {
        "notice": "Returns true if the caller is the current Governor."
      },
      "rewardProceedsAddress()": {
        "notice": "Address receiving rewards proceeds. Initially the Vault contract later will possibly be replaced by another contract that eases out rewards distribution."
      },
      "setRewardsProceedsAddress(address)": {
        "notice": "Set the Address receiving rewards proceeds."
      },
      "transferGovernance(address)": {
        "notice": "Transfers Governance of the contract to a new account (`newGovernor`). Can only be called by the current Governor. Must be claimed for this to complete"
      }
    },
    "version": 1
  },
  "storageLayout": {
    "storage": [
      {
        "astId": 4984,
        "contract": "contracts/harvest/Harvester.sol:Harvester",
        "label": "rewardTokenConfigs",
        "offset": 0,
        "slot": "0",
        "type": "t_mapping(t_address,t_struct(RewardTokenConfig)4979_storage)"
      },
      {
        "astId": 4988,
        "contract": "contracts/harvest/Harvester.sol:Harvester",
        "label": "supportedStrategies",
        "offset": 0,
        "slot": "1",
        "type": "t_mapping(t_address,t_bool)"
      },
      {
        "astId": 4993,
        "contract": "contracts/harvest/Harvester.sol:Harvester",
        "label": "rewardProceedsAddress",
        "offset": 0,
        "slot": "2",
        "type": "t_address"
      }
    ],
    "types": {
      "t_address": {
        "encoding": "inplace",
        "label": "address",
        "numberOfBytes": "20"
      },
      "t_bool": {
        "encoding": "inplace",
        "label": "bool",
        "numberOfBytes": "1"
      },
      "t_mapping(t_address,t_bool)": {
        "encoding": "mapping",
        "key": "t_address",
        "label": "mapping(address => bool)",
        "numberOfBytes": "32",
        "value": "t_bool"
      },
      "t_mapping(t_address,t_struct(RewardTokenConfig)4979_storage)": {
        "encoding": "mapping",
        "key": "t_address",
        "label": "mapping(address => struct BaseHarvester.RewardTokenConfig)",
        "numberOfBytes": "32",
        "value": "t_struct(RewardTokenConfig)4979_storage"
      },
      "t_struct(RewardTokenConfig)4979_storage": {
        "encoding": "inplace",
        "label": "struct BaseHarvester.RewardTokenConfig",
        "members": [
          {
            "astId": 4970,
            "contract": "contracts/harvest/Harvester.sol:Harvester",
            "label": "allowedSlippageBps",
            "offset": 0,
            "slot": "0",
            "type": "t_uint16"
          },
          {
            "astId": 4972,
            "contract": "contracts/harvest/Harvester.sol:Harvester",
            "label": "harvestRewardBps",
            "offset": 2,
            "slot": "0",
            "type": "t_uint16"
          },
          {
            "astId": 4974,
            "contract": "contracts/harvest/Harvester.sol:Harvester",
            "label": "uniswapV2CompatibleAddr",
            "offset": 4,
            "slot": "0",
            "type": "t_address"
          },
          {
            "astId": 4976,
            "contract": "contracts/harvest/Harvester.sol:Harvester",
            "label": "doSwapRewardToken",
            "offset": 24,
            "slot": "0",
            "type": "t_bool"
          },
          {
            "astId": 4978,
            "contract": "contracts/harvest/Harvester.sol:Harvester",
            "label": "liquidationLimit",
            "offset": 0,
            "slot": "1",
            "type": "t_uint256"
          }
        ],
        "numberOfBytes": "64"
      },
      "t_uint16": {
        "encoding": "inplace",
        "label": "uint16",
        "numberOfBytes": "2"
      },
      "t_uint256": {
        "encoding": "inplace",
        "label": "uint256",
        "numberOfBytes": "32"
      }
    }
  }
}