{
  "address": "0xDbCD3CbF3fb639a2DB5c7950793c5020d7780071",
  "abi": [
    {
      "inputs": [
        {
          "components": [
            {
              "internalType": "address",
              "name": "platformAddress",
              "type": "address"
            },
            {
              "internalType": "address",
              "name": "vaultAddress",
              "type": "address"
            }
          ],
          "internalType": "struct InitializableAbstractStrategy.BaseStrategyConfig",
          "name": "_stratConfig",
          "type": "tuple"
        }
      ],
      "stateMutability": "nonpayable",
      "type": "constructor"
    },
    {
      "anonymous": false,
      "inputs": [
        {
          "indexed": true,
          "internalType": "address",
          "name": "_asset",
          "type": "address"
        },
        {
          "indexed": false,
          "internalType": "address",
          "name": "_pToken",
          "type": "address"
        },
        {
          "indexed": false,
          "internalType": "uint256",
          "name": "_amount",
          "type": "uint256"
        }
      ],
      "name": "Deposit",
      "type": "event"
    },
    {
      "anonymous": false,
      "inputs": [
        {
          "indexed": true,
          "internalType": "address",
          "name": "previousGovernor",
          "type": "address"
        },
        {
          "indexed": true,
          "internalType": "address",
          "name": "newGovernor",
          "type": "address"
        }
      ],
      "name": "GovernorshipTransferred",
      "type": "event"
    },
    {
      "anonymous": false,
      "inputs": [
        {
          "indexed": false,
          "internalType": "address",
          "name": "_oldHarvesterAddress",
          "type": "address"
        },
        {
          "indexed": false,
          "internalType": "address",
          "name": "_newHarvesterAddress",
          "type": "address"
        }
      ],
      "name": "HarvesterAddressesUpdated",
      "type": "event"
    },
    {
      "anonymous": false,
      "inputs": [
        {
          "indexed": true,
          "internalType": "address",
          "name": "_asset",
          "type": "address"
        },
        {
          "indexed": false,
          "internalType": "address",
          "name": "_pToken",
          "type": "address"
        }
      ],
      "name": "PTokenAdded",
      "type": "event"
    },
    {
      "anonymous": false,
      "inputs": [
        {
          "indexed": true,
          "internalType": "address",
          "name": "_asset",
          "type": "address"
        },
        {
          "indexed": false,
          "internalType": "address",
          "name": "_pToken",
          "type": "address"
        }
      ],
      "name": "PTokenRemoved",
      "type": "event"
    },
    {
      "anonymous": false,
      "inputs": [
        {
          "indexed": true,
          "internalType": "address",
          "name": "previousGovernor",
          "type": "address"
        },
        {
          "indexed": true,
          "internalType": "address",
          "name": "newGovernor",
          "type": "address"
        }
      ],
      "name": "PendingGovernorshipTransfer",
      "type": "event"
    },
    {
      "anonymous": false,
      "inputs": [
        {
          "indexed": false,
          "internalType": "address[]",
          "name": "_oldAddresses",
          "type": "address[]"
        },
        {
          "indexed": false,
          "internalType": "address[]",
          "name": "_newAddresses",
          "type": "address[]"
        }
      ],
      "name": "RewardTokenAddressesUpdated",
      "type": "event"
    },
    {
      "anonymous": false,
      "inputs": [
        {
          "indexed": false,
          "internalType": "address",
          "name": "recipient",
          "type": "address"
        },
        {
          "indexed": false,
          "internalType": "address",
          "name": "rewardToken",
          "type": "address"
        },
        {
          "indexed": false,
          "internalType": "uint256",
          "name": "amount",
          "type": "uint256"
        }
      ],
      "name": "RewardTokenCollected",
      "type": "event"
    },
    {
      "anonymous": false,
      "inputs": [
        {
          "indexed": true,
          "internalType": "address",
          "name": "_asset",
          "type": "address"
        },
        {
          "indexed": false,
          "internalType": "address",
          "name": "_pToken",
          "type": "address"
        },
        {
          "indexed": false,
          "internalType": "uint256",
          "name": "_amount",
          "type": "uint256"
        }
      ],
      "name": "Withdrawal",
      "type": "event"
    },
    {
      "anonymous": false,
      "inputs": [
        {
          "indexed": false,
          "internalType": "uint256[]",
          "name": "requestIds",
          "type": "uint256[]"
        },
        {
          "indexed": false,
          "internalType": "uint256",
          "name": "amount",
          "type": "uint256"
        }
      ],
      "name": "WithdrawalClaims",
      "type": "event"
    },
    {
      "anonymous": false,
      "inputs": [
        {
          "indexed": false,
          "internalType": "uint256[]",
          "name": "requestIds",
          "type": "uint256[]"
        },
        {
          "indexed": false,
          "internalType": "uint256[]",
          "name": "amounts",
          "type": "uint256[]"
        }
      ],
      "name": "WithdrawalRequests",
      "type": "event"
    },
    {
      "inputs": [],
      "name": "MaxWithdrawalAmount",
      "outputs": [
        {
          "internalType": "uint256",
          "name": "",
          "type": "uint256"
        }
      ],
      "stateMutability": "view",
      "type": "function"
    },
    {
      "inputs": [
        {
          "internalType": "address",
          "name": "",
          "type": "address"
        }
      ],
      "name": "assetToPToken",
      "outputs": [
        {
          "internalType": "address",
          "name": "",
          "type": "address"
        }
      ],
      "stateMutability": "view",
      "type": "function"
    },
    {
      "inputs": [
        {
          "internalType": "address",
          "name": "_asset",
          "type": "address"
        }
      ],
      "name": "checkBalance",
      "outputs": [
        {
          "internalType": "uint256",
          "name": "balance",
          "type": "uint256"
        }
      ],
      "stateMutability": "view",
      "type": "function"
    },
    {
      "inputs": [],
      "name": "claimGovernance",
      "outputs": [],
      "stateMutability": "nonpayable",
      "type": "function"
    },
    {
      "inputs": [
        {
          "internalType": "uint256[]",
          "name": "_requestIds",
          "type": "uint256[]"
        },
        {
          "internalType": "uint256",
          "name": "expectedAmount",
          "type": "uint256"
        }
      ],
      "name": "claimWithdrawals",
      "outputs": [],
      "stateMutability": "nonpayable",
      "type": "function"
    },
    {
      "inputs": [],
      "name": "collectRewardTokens",
      "outputs": [],
      "stateMutability": "nonpayable",
      "type": "function"
    },
    {
      "inputs": [
        {
          "internalType": "address",
          "name": "",
          "type": "address"
        },
        {
          "internalType": "uint256",
          "name": "",
          "type": "uint256"
        }
      ],
      "name": "deposit",
      "outputs": [],
      "stateMutability": "nonpayable",
      "type": "function"
    },
    {
      "inputs": [],
      "name": "depositAll",
      "outputs": [],
      "stateMutability": "nonpayable",
      "type": "function"
    },
    {
      "inputs": [],
      "name": "getRewardTokenAddresses",
      "outputs": [
        {
          "internalType": "address[]",
          "name": "",
          "type": "address[]"
        }
      ],
      "stateMutability": "view",
      "type": "function"
    },
    {
      "inputs": [],
      "name": "governor",
      "outputs": [
        {
          "internalType": "address",
          "name": "",
          "type": "address"
        }
      ],
      "stateMutability": "view",
      "type": "function"
    },
    {
      "inputs": [],
      "name": "harvesterAddress",
      "outputs": [
        {
          "internalType": "address",
          "name": "",
          "type": "address"
        }
      ],
      "stateMutability": "view",
      "type": "function"
    },
    {
      "inputs": [
        {
          "internalType": "address[]",
          "name": "_rewardTokenAddresses",
          "type": "address[]"
        },
        {
          "internalType": "address[]",
          "name": "_assets",
          "type": "address[]"
        },
        {
          "internalType": "address[]",
          "name": "_pTokens",
          "type": "address[]"
        }
      ],
      "name": "initialize",
      "outputs": [],
      "stateMutability": "nonpayable",
      "type": "function"
    },
    {
      "inputs": [],
      "name": "isGovernor",
      "outputs": [
        {
          "internalType": "bool",
          "name": "",
          "type": "bool"
        }
      ],
      "stateMutability": "view",
      "type": "function"
    },
    {
      "inputs": [],
      "name": "outstandingWithdrawals",
      "outputs": [
        {
          "internalType": "uint256",
          "name": "",
          "type": "uint256"
        }
      ],
      "stateMutability": "view",
      "type": "function"
    },
    {
      "inputs": [],
      "name": "platformAddress",
      "outputs": [
        {
          "internalType": "address",
          "name": "",
          "type": "address"
        }
      ],
      "stateMutability": "view",
      "type": "function"
    },
    {
      "inputs": [
        {
          "internalType": "uint256",
          "name": "_assetIndex",
          "type": "uint256"
        }
      ],
      "name": "removePToken",
      "outputs": [],
      "stateMutability": "nonpayable",
      "type": "function"
    },
    {
      "inputs": [
        {
          "internalType": "uint256",
          "name": "",
          "type": "uint256"
        }
      ],
      "name": "rewardTokenAddresses",
      "outputs": [
        {
          "internalType": "address",
          "name": "",
          "type": "address"
        }
      ],
      "stateMutability": "view",
      "type": "function"
    },
    {
      "inputs": [],
      "name": "safeApproveAllTokens",
      "outputs": [],
      "stateMutability": "nonpayable",
      "type": "function"
    },
    {
      "inputs": [
        {
          "internalType": "address",
          "name": "_harvesterAddress",
          "type": "address"
        }
      ],
      "name": "setHarvesterAddress",
      "outputs": [],
      "stateMutability": "nonpayable",
      "type": "function"
    },
    {
      "inputs": [
        {
          "internalType": "address",
          "name": "_asset",
          "type": "address"
        },
        {
          "internalType": "address",
          "name": "_pToken",
          "type": "address"
        }
      ],
      "name": "setPTokenAddress",
      "outputs": [],
      "stateMutability": "nonpayable",
      "type": "function"
    },
    {
      "inputs": [
        {
          "internalType": "address[]",
          "name": "_rewardTokenAddresses",
          "type": "address[]"
        }
      ],
      "name": "setRewardTokenAddresses",
      "outputs": [],
      "stateMutability": "nonpayable",
      "type": "function"
    },
    {
      "inputs": [
        {
          "internalType": "address",
          "name": "_asset",
          "type": "address"
        }
      ],
      "name": "supportsAsset",
      "outputs": [
        {
          "internalType": "bool",
          "name": "",
          "type": "bool"
        }
      ],
      "stateMutability": "pure",
      "type": "function"
    },
    {
      "inputs": [
        {
          "internalType": "address",
          "name": "_newGovernor",
          "type": "address"
        }
      ],
      "name": "transferGovernance",
      "outputs": [],
      "stateMutability": "nonpayable",
      "type": "function"
    },
    {
      "inputs": [
        {
          "internalType": "address",
          "name": "_asset",
          "type": "address"
        },
        {
          "internalType": "uint256",
          "name": "_amount",
          "type": "uint256"
        }
      ],
      "name": "transferToken",
      "outputs": [],
      "stateMutability": "nonpayable",
      "type": "function"
    },
    {
      "inputs": [],
      "name": "vaultAddress",
      "outputs": [
        {
          "internalType": "address",
          "name": "",
          "type": "address"
        }
      ],
      "stateMutability": "view",
      "type": "function"
    },
    {
      "inputs": [
        {
          "internalType": "address",
          "name": "_recipient",
          "type": "address"
        },
        {
          "internalType": "address",
          "name": "_asset",
          "type": "address"
        },
        {
          "internalType": "uint256",
          "name": "_amount",
          "type": "uint256"
        }
      ],
      "name": "withdraw",
      "outputs": [],
      "stateMutability": "nonpayable",
      "type": "function"
    },
    {
      "inputs": [],
      "name": "withdrawAll",
      "outputs": [],
      "stateMutability": "nonpayable",
      "type": "function"
    },
    {
      "stateMutability": "payable",
      "type": "receive"
    }
  ],
  "transactionHash": "0x840646a8f7361ca81757c181d01f7eb7bc071b0da44fa06197063af34e1035e7",
  "args": [
    [
      "0x0000000000000000000000000000000000000000",
      "0x39254033945AA2E4809Cc2977E7087BEE48bd7Ab"
    ]
  ],
  "numDeployments": 1,
  "solcInputHash": "c4121d4b5229cdd775de32cd8bbfe662",
  "bytecode": "0x60c06040523480156200001157600080fd5b5060405162003184380380620031848339810160408190526200003491620000da565b806200004d336000805160206200316483398151915255565b60008051602062003164833981519152546040516001600160a01b03909116906000907fc7c0c772add429241571afb3805861fb3cfa2af374534088b76cdb4325a87e9a908290a380516001600160601b0319606091821b8116608052602090920151901b1660a0525062000148565b80516001600160a01b0381168114620000d557600080fd5b919050565b600060408284031215620000ed57600080fd5b604080519081016001600160401b03811182821017156200011e57634e487b7160e01b600052604160045260246000fd5b6040526200012c83620000bd565b81526200013c60208401620000bd565b60208201529392505050565b60805160601c60a05160601c612fb1620001b36000396000818161029301528181610715015281816109ee01528181610bf601528181610d880152818161127e01528181611668015281816118cc0152818161198b0152611e34015260006104d60152612fb16000f3fe6080604052600436106101a05760003560e01c80637b2d9b2c116100ec578063c2e1e3f41161008a578063d9caed1211610064578063d9caed12146104a4578063dbe55e56146104c4578063de5f6268146104f8578063f6ca71b01461050d57600080fd5b8063c2e1e3f41461044f578063c7af33521461046f578063d38bfff41461048457600080fd5b806396d538bb116100c657806396d538bb146103ca578063aa388af6146103ea578063ad1728cb1461041a578063be88599d1461042f57600080fd5b80637b2d9b2c14610375578063853828b6146103955780639136616a146103aa57600080fd5b8063435356d1116101595780635d36b190116101335780635d36b1901461030a5780635f5152261461031f57806363e373c91461033f57806367c7066c1461035557600080fd5b8063435356d1146102b557806347e7ef24146102d55780635a063f63146102f557600080fd5b80630c340a24146101ac5780630ed57b3a146101de5780630fc3b4c414610200578063103e2f8f146102365780631072cbea14610261578063430bf08a1461028157600080fd5b366101a757005b600080fd5b3480156101b857600080fd5b506101c161052f565b6040516001600160a01b0390911681526020015b60405180910390f35b3480156101ea57600080fd5b506101fe6101f9366004612803565b61054c565b005b34801561020c57600080fd5b506101c161021b3660046127c9565b6035602052600090815260409020546001600160a01b031681565b34801561024257600080fd5b50610253683635c9adc5dea0000081565b6040519081526020016101d5565b34801561026d57600080fd5b506101fe61027c36600461287d565b610587565b34801561028d57600080fd5b506101c17f000000000000000000000000000000000000000000000000000000000000000081565b3480156102c157600080fd5b506101fe6102d036600461291e565b61061d565b3480156102e157600080fd5b506101fe6102f036600461287d565b61070a565b34801561030157600080fd5b506101fe6107d0565b34801561031657600080fd5b506101fe61086f565b34801561032b57600080fd5b5061025361033a3660046127c9565b610915565b34801561034b57600080fd5b50610253609d5481565b34801561036157600080fd5b506039546101c1906001600160a01b031681565b34801561038157600080fd5b506101c1610390366004612afe565b6109b9565b3480156103a157600080fd5b506101fe6109e3565b3480156103b657600080fd5b506101fe6103c5366004612afe565b610e68565b3480156103d657600080fd5b506101fe6103e53660046128a9565b611033565b3480156103f657600080fd5b5061040a6104053660046127c9565b611153565b60405190151581526020016101d5565b34801561042657600080fd5b506101fe6111a2565b34801561043b57600080fd5b506101fe61044a366004612a3e565b611246565b34801561045b57600080fd5b506101fe61046a3660046127c9565b61175f565b34801561047b57600080fd5b5061040a6117ec565b34801561049057600080fd5b506101fe61049f3660046127c9565b61181d565b3480156104b057600080fd5b506101fe6104bf36600461283c565b6118c1565b3480156104d057600080fd5b506101c17f000000000000000000000000000000000000000000000000000000000000000081565b34801561050457600080fd5b506101fe611980565b34801561051957600080fd5b50610522611f2d565b6040516101d59190612ba0565b6000610547600080516020612f5c8339815191525490565b905090565b6105546117ec565b6105795760405162461bcd60e51b815260040161057090612d82565b60405180910390fd5b6105838282611f8f565b5050565b61058f6117ec565b6105ab5760405162461bcd60e51b815260040161057090612d82565b6105b482611153565b156106015760405162461bcd60e51b815260206004820152601f60248201527f43616e6e6f74207472616e7366657220737570706f72746564206173736574006044820152606401610570565b61058361060c61052f565b6001600160a01b03841690836120f4565b6106256117ec565b6106415760405162461bcd60e51b815260040161057090612d82565b600054610100900460ff168061065a575060005460ff16155b6106bd5760405162461bcd60e51b815260206004820152602e60248201527f496e697469616c697a61626c653a20636f6e747261637420697320616c72656160448201526d191e481a5b9a5d1a585b1a5e995960921b6064820152608401610570565b600054610100900460ff161580156106df576000805461ffff19166101011790555b6106ea84848461214f565b6106f26111a2565b8015610704576000805461ff00191690555b50505050565b336001600160a01b037f000000000000000000000000000000000000000000000000000000000000000016146107525760405162461bcd60e51b815260040161057090612d4b565b600080516020612f3c833981519152805460028114156107845760405162461bcd60e51b815260040161057090612db9565b6002825560405162461bcd60e51b815260206004820152601860248201527f757365206465706f736974416c6c282920696e737465616400000000000000006044820152606401610570565b6039546001600160a01b0316331461082a5760405162461bcd60e51b815260206004820152601b60248201527f43616c6c6572206973206e6f74207468652048617276657374657200000000006044820152606401610570565b600080516020612f3c8339815191528054600281141561085c5760405162461bcd60e51b815260040161057090612db9565b6002825561086861220a565b5060019055565b7f44c4d30b2eaad5130ad70c3ba6972730566f3e6359ab83e800d905c61b1c51db546001600160a01b0316336001600160a01b03161461090a5760405162461bcd60e51b815260206004820152603060248201527f4f6e6c79207468652070656e64696e6720476f7665726e6f722063616e20636f60448201526f6d706c6574652074686520636c61696d60801b6064820152608401610570565b61091333612336565b565b60006001600160a01b03821673c02aaa39b223fe8d0a0e5c4f27ead9083c756cc21415610944575050609d5490565b6001600160a01b03821673ae7ab96520de3a18e5e111b5eaab095312d7fe84141561097157506000919050565b60405162461bcd60e51b815260206004820152601860248201527f556e6578706563746564206173736574206164647265737300000000000000006044820152606401610570565b603a81815481106109c957600080fd5b6000918252602090912001546001600160a01b0316905081565b336001600160a01b037f0000000000000000000000000000000000000000000000000000000000000000161480610a325750610a1d61052f565b6001600160a01b0316336001600160a01b0316145b610a8a5760405162461bcd60e51b815260206004820152602360248201527f43616c6c6572206973206e6f7420746865205661756c74206f7220476f7665726044820152623737b960e91b6064820152608401610570565b600080516020612f3c83398151915280546002811415610abc5760405162461bcd60e51b815260040161057090612db9565b60028255303115610b3a5773c02aaa39b223fe8d0a0e5c4f27ead9083c756cc26001600160a01b031663d0e30db0306001600160a01b0316316040518263ffffffff1660e01b81526004016000604051808303818588803b158015610b2057600080fd5b505af1158015610b34573d6000803e3d6000fd5b50505050505b6040516370a0823160e01b815230600482015260009073c02aaa39b223fe8d0a0e5c4f27ead9083c756cc2906370a082319060240160206040518083038186803b158015610b8757600080fd5b505afa158015610b9b573d6000803e3d6000fd5b505050506040513d601f19601f82011682018060405250810190610bbf9190612b17565b90508015610ccc5760405163a9059cbb60e01b815273c02aaa39b223fe8d0a0e5c4f27ead9083c756cc29063a9059cbb90610c20907f0000000000000000000000000000000000000000000000000000000000000000908590600401612b87565b602060405180830381600087803b158015610c3a57600080fd5b505af1158015610c4e573d6000803e3d6000fd5b505050506040513d601f19601f82011682018060405250810190610c729190612adc565b5073c02aaa39b223fe8d0a0e5c4f27ead9083c756cc26001600160a01b03167f2717ead6b9200dd235aad468c9809ea400fe33ac69b5bfaa6d3e90fc922b6398600083604051610cc3929190612b87565b60405180910390a25b6040516370a0823160e01b815230600482015260009073ae7ab96520de3a18e5e111b5eaab095312d7fe84906370a082319060240160206040518083038186803b158015610d1957600080fd5b505afa158015610d2d573d6000803e3d6000fd5b505050506040513d601f19601f82011682018060405250810190610d519190612b17565b90508015610e5e5760405163a9059cbb60e01b815273ae7ab96520de3a18e5e111b5eaab095312d7fe849063a9059cbb90610db2907f0000000000000000000000000000000000000000000000000000000000000000908590600401612b87565b602060405180830381600087803b158015610dcc57600080fd5b505af1158015610de0573d6000803e3d6000fd5b505050506040513d601f19601f82011682018060405250810190610e049190612adc565b5073ae7ab96520de3a18e5e111b5eaab095312d7fe846001600160a01b03167f2717ead6b9200dd235aad468c9809ea400fe33ac69b5bfaa6d3e90fc922b6398600083604051610e55929190612b87565b60405180910390a25b5050600182555050565b610e706117ec565b610e8c5760405162461bcd60e51b815260040161057090612d82565b6036548110610ecd5760405162461bcd60e51b815260206004820152600d60248201526c092dcecc2d8d2c840d2dcc8caf609b1b6044820152606401610570565b600060368281548110610ee257610ee2612efa565b60009182526020808320909101546001600160a01b03908116808452603590925260409092205460365491935090911690610f1f90600190612e70565b831015610fa15760368054610f3690600190612e70565b81548110610f4657610f46612efa565b600091825260209091200154603680546001600160a01b039092169185908110610f7257610f72612efa565b9060005260206000200160006101000a8154816001600160a01b0302191690836001600160a01b031602179055505b6036805480610fb257610fb2612ee4565b60008281526020808220600019908401810180546001600160a01b031990811690915593019093556001600160a01b038581168083526035855260409283902080549094169093559051908416815290917f16b7600acff27e39a8a96056b3d533045298de927507f5c1d97e4accde60488c910160405180910390a2505050565b61103b6117ec565b6110575760405162461bcd60e51b815260040161057090612d82565b8060005b8181101561110a57600084848381811061107757611077612efa565b905060200201602081019061108c91906127c9565b6001600160a01b031614156110fa5760405162461bcd60e51b815260206004820152602e60248201527f43616e206e6f742073657420616e20656d70747920616464726573732061732060448201526d30903932bbb0b932103a37b5b2b760911b6064820152608401610570565b61110381612eb3565b905061105b565b507f04c0b9649497d316554306e53678d5f5f5dbc3a06f97dec13ff4cfe98b986bbc603a848460405161113f93929190612bed565b60405180910390a1610704603a8484612681565b60006001600160a01b03821673ae7ab96520de3a18e5e111b5eaab095312d7fe84148061119c57506001600160a01b03821673c02aaa39b223fe8d0a0e5c4f27ead9083c756cc2145b92915050565b60405163095ea7b360e01b815273ae7ab96520de3a18e5e111b5eaab095312d7fe849063095ea7b3906111f19073889edc2edab5f40e902b864ad4d7ade8e412f9b19060001990600401612b87565b602060405180830381600087803b15801561120b57600080fd5b505af115801561121f573d6000803e3d6000fd5b505050506040513d601f19601f820116820180604052508101906112439190612adc565b50565b600080516020612f3c833981519152805460028114156112785760405162461bcd60e51b815260040161057090612db9565b600282557f00000000000000000000000000000000000000000000000000000000000000006001600160a01b031663570d8e1d6040518163ffffffff1660e01b815260040160206040518083038186803b1580156112d557600080fd5b505afa1580156112e9573d6000803e3d6000fd5b505050506040513d601f19601f8201168201806040525081019061130d91906127e6565b6001600160a01b0316336001600160a01b03161461136d5760405162461bcd60e51b815260206004820152601c60248201527f43616c6c6572206973206e6f74207468652053747261746567697374000000006044820152606401610570565b6000306001600160a01b0316319050600073889edc2edab5f40e902b864ad4d7ade8e412f9b16001600160a01b031663526eae3e6040518163ffffffff1660e01b815260040160206040518083038186803b1580156113cb57600080fd5b505afa1580156113df573d6000803e3d6000fd5b505050506040513d601f19601f820116820180604052508101906114039190612b17565b604051633155f1fd60e11b815290915060009073889edc2edab5f40e902b864ad4d7ade8e412f9b1906362abe3fa90611445908a906001908790600401612cd1565b60006040518083038186803b15801561145d57600080fd5b505afa158015611471573d6000803e3d6000fd5b505050506040513d6000823e601f3d908101601f1916820160405261149991908101906129a6565b60405163e3afe0a360e01b815290915073889edc2edab5f40e902b864ad4d7ade8e412f9b19063e3afe0a3906114d5908a908590600401612ca3565b600060405180830381600087803b1580156114ef57600080fd5b505af1158015611503573d6000803e3d6000fd5b505030319150600090506115178583612e70565b905087611525826002612e36565b101580156115335750878111155b61157f5760405162461bcd60e51b815260206004820152601e60248201527f5769746864726177616c20616d6f756e74206e6f7420657870656374656400006044820152606401610570565b7f267cc6358f56dbb41cd8f8e92ba8480d6ff784fb4f18a6aa22e386bf2bacb47e89826040516115b0929190612cf6565b60405180910390a180609d60008282546115ca9190612e70565b9250508190555073c02aaa39b223fe8d0a0e5c4f27ead9083c756cc26001600160a01b031663d0e30db0836040518263ffffffff1660e01b81526004016000604051808303818588803b15801561162057600080fd5b505af1158015611634573d6000803e3d6000fd5b505060405163a9059cbb60e01b815273c02aaa39b223fe8d0a0e5c4f27ead9083c756cc2935063a9059cbb925061169291507f0000000000000000000000000000000000000000000000000000000000000000908690600401612b87565b602060405180830381600087803b1580156116ac57600080fd5b505af11580156116c0573d6000803e3d6000fd5b505050506040513d601f19601f820116820180604052508101906116e49190612adc565b5073c02aaa39b223fe8d0a0e5c4f27ead9083c756cc26001600160a01b03167f2717ead6b9200dd235aad468c9809ea400fe33ac69b5bfaa6d3e90fc922b639873889edc2edab5f40e902b864ad4d7ade8e412f9b184604051611748929190612b87565b60405180910390a250505050506001825550505050565b6117676117ec565b6117835760405162461bcd60e51b815260040161057090612d82565b603954604080516001600160a01b03928316815291831660208301527fe48386b84419f4d36e0f96c10cc3510b6fb1a33795620c5098b22472bbe90796910160405180910390a1603980546001600160a01b0319166001600160a01b0392909216919091179055565b6000611804600080516020612f5c8339815191525490565b6001600160a01b0316336001600160a01b031614905090565b6118256117ec565b6118415760405162461bcd60e51b815260040161057090612d82565b611869817f44c4d30b2eaad5130ad70c3ba6972730566f3e6359ab83e800d905c61b1c51db55565b806001600160a01b0316611889600080516020612f5c8339815191525490565b6001600160a01b03167fa39cc5eb22d0f34d8beaefee8a3f17cc229c1a1d1ef87a5ad47313487b1c4f0d60405160405180910390a350565b336001600160a01b037f000000000000000000000000000000000000000000000000000000000000000016146119095760405162461bcd60e51b815260040161057090612d4b565b600080516020612f3c8339815191528054600281141561193b5760405162461bcd60e51b815260040161057090612db9565b6002825560405162461bcd60e51b815260206004820152601660248201527575736520636c61696d5769746864726177616c73282960501b6044820152606401610570565b336001600160a01b037f000000000000000000000000000000000000000000000000000000000000000016146119c85760405162461bcd60e51b815260040161057090612d4b565b600080516020612f3c833981519152805460028114156119fa5760405162461bcd60e51b815260040161057090612db9565b600282556040516370a0823160e01b815230600482015260009073ae7ab96520de3a18e5e111b5eaab095312d7fe84906370a082319060240160206040518083038186803b158015611a4b57600080fd5b505afa158015611a5f573d6000803e3d6000fd5b505050506040513d601f19601f82011682018060405250810190611a839190612b17565b905060008111611acc5760405162461bcd60e51b81526020600482015260146024820152734e6f20737445544820746f20776974686472617760601b6044820152606401610570565b6000611ae1683635c9adc5dea0000083612e4e565b611aec906001612e36565b905060008167ffffffffffffffff811115611b0957611b09612f10565b604051908082528060200260200182016040528015611b32578160200160208202803683370190505b5090508260005b683635c9adc5dea00000821115611b9657683635c9adc5dea000008382611b5f81612eb3565b935081518110611b7157611b71612efa565b6020908102919091010152611b8f683635c9adc5dea0000083612e70565b9150611b39565b81838281518110611ba957611ba9612efa565b6020908102919091010152604051636b34082160e11b815260009073889edc2edab5f40e902b864ad4d7ade8e412f9b19063d668104290611bf09087903090600401612c79565b600060405180830381600087803b158015611c0a57600080fd5b505af1158015611c1e573d6000803e3d6000fd5b505050506040513d6000823e601f3d908101601f19168201604052611c4691908101906129a6565b90507f4a54e868001801e435d72d0f5a4ead23b6be3f49544fcfde1b83dd6d779a50f48185604051611c79929190612ca3565b60405180910390a16040516370a0823160e01b815230600482015260009073ae7ab96520de3a18e5e111b5eaab095312d7fe84906370a082319060240160206040518083038186803b158015611cce57600080fd5b505afa158015611ce2573d6000803e3d6000fd5b505050506040513d601f19601f82011682018060405250810190611d069190612b17565b905085811115611d585760405162461bcd60e51b815260206004820152601f60248201527f4e6f7420616c6c20737445746820696e207769746864726177207175657565006044820152606401610570565b611d628188612e70565b609d6000828254611d739190612e36565b90915550506040516370a0823160e01b815230600482015260009073c02aaa39b223fe8d0a0e5c4f27ead9083c756cc2906370a082319060240160206040518083038186803b158015611dc557600080fd5b505afa158015611dd9573d6000803e3d6000fd5b505050506040513d601f19601f82011682018060405250810190611dfd9190612b17565b90508015611eb25760405163a9059cbb60e01b815273c02aaa39b223fe8d0a0e5c4f27ead9083c756cc29063a9059cbb90611e5e907f0000000000000000000000000000000000000000000000000000000000000000908590600401612b87565b602060405180830381600087803b158015611e7857600080fd5b505af1158015611e8c573d6000803e3d6000fd5b505050506040513d601f19601f82011682018060405250810190611eb09190612adc565b505b73ae7ab96520de3a18e5e111b5eaab095312d7fe846001600160a01b03167f5548c837ab068cf56a2c2479df0882a4922fd203edb7517321831d95078c5f6273889edc2edab5f40e902b864ad4d7ade8e412f9b18a604051611f15929190612b87565b60405180910390a25050505050505050600182555050565b6060603a805480602002602001604051908101604052809291908181526020018280548015611f8557602002820191906000526020600020905b81546001600160a01b03168152600190910190602001808311611f67575b5050505050905090565b6001600160a01b038281166000908152603560205260409020541615611fec5760405162461bcd60e51b81526020600482015260126024820152711c151bdad95b88185b1c9958591e481cd95d60721b6044820152606401610570565b6001600160a01b0382161580159061200c57506001600160a01b03811615155b61204c5760405162461bcd60e51b8152602060048201526011602482015270496e76616c69642061646472657373657360781b6044820152606401610570565b6001600160a01b03828116600081815260356020908152604080832080549587166001600160a01b031996871681179091556036805460018101825594527f4a11f94e20a93c79f6ec743a1954ec4fc2c08429ae2122118bf234b2185c81b890930180549095168417909455925190815290917fef6485b84315f9b1483beffa32aae9a0596890395e3d7521f1c5fbb51790e765910160405180910390a261058382826123f7565b61214a8363a9059cbb60e01b8484604051602401612113929190612b87565b60408051601f198184030181529190526020810180516001600160e01b03166001600160e01b031990931692909217909152612435565b505050565b825161216290603a9060208601906126e4565b508151815181146121ac5760405162461bcd60e51b8152602060048201526014602482015273496e76616c696420696e7075742061727261797360601b6044820152606401610570565b60005b81811015612203576121f38482815181106121cc576121cc612efa565b60200260200101518483815181106121e6576121e6612efa565b6020026020010151611f8f565b6121fc81612eb3565b90506121af565b5050505050565b603a5460005b81811015610583576000603a828154811061222d5761222d612efa565b60009182526020822001546040516370a0823160e01b81523060048201526001600160a01b03909116925082906370a082319060240160206040518083038186803b15801561227b57600080fd5b505afa15801561228f573d6000803e3d6000fd5b505050506040513d601f19601f820116820180604052508101906122b39190612b17565b9050801561232357603954604080516001600160a01b039283168152918416602083015281018290527ff6c07a063ed4e63808eb8da7112d46dbcd38de2b40a73dbcc9353c5a94c723539060600160405180910390a1603954612323906001600160a01b038481169116836120f4565b50508061232f90612eb3565b9050612210565b6001600160a01b03811661238c5760405162461bcd60e51b815260206004820152601a60248201527f4e657720476f7665726e6f7220697320616464726573732830290000000000006044820152606401610570565b806001600160a01b03166123ac600080516020612f5c8339815191525490565b6001600160a01b03167fc7c0c772add429241571afb3805861fb3cfa2af374534088b76cdb4325a87e9a60405160405180910390a361124381600080516020612f5c83398151915255565b60405162461bcd60e51b8152602060048201526013602482015272139bc81c151bdad95b9cc8185c99481d5cd959606a1b6044820152606401610570565b600061248a826040518060400160405280602081526020017f5361666545524332303a206c6f772d6c6576656c2063616c6c206661696c6564815250856001600160a01b03166125079092919063ffffffff16565b80519091501561214a57808060200190518101906124a89190612adc565b61214a5760405162461bcd60e51b815260206004820152602a60248201527f5361666545524332303a204552433230206f7065726174696f6e20646964206e6044820152691bdd081cdd58d8d9595960b21b6064820152608401610570565b60606125168484600085612520565b90505b9392505050565b6060824710156125815760405162461bcd60e51b815260206004820152602660248201527f416464726573733a20696e73756666696369656e742062616c616e636520666f6044820152651c8818d85b1b60d21b6064820152608401610570565b843b6125cf5760405162461bcd60e51b815260206004820152601d60248201527f416464726573733a2063616c6c20746f206e6f6e2d636f6e74726163740000006044820152606401610570565b600080866001600160a01b031685876040516125eb9190612b6b565b60006040518083038185875af1925050503d8060008114612628576040519150601f19603f3d011682016040523d82523d6000602084013e61262d565b606091505b509150915061263d828286612648565b979650505050505050565b60608315612657575081612519565b8251156126675782518084602001fd5b8160405162461bcd60e51b81526004016105709190612d18565b8280548282559060005260206000209081019282156126d4579160200282015b828111156126d45781546001600160a01b0319166001600160a01b038435161782556020909201916001909101906126a1565b506126e0929150612739565b5090565b8280548282559060005260206000209081019282156126d4579160200282015b828111156126d457825182546001600160a01b0319166001600160a01b03909116178255602090920191600190910190612704565b5b808211156126e0576000815560010161273a565b600082601f83011261275f57600080fd5b8135602061277461276f83612e12565b612de1565b80838252828201915082860187848660051b890101111561279457600080fd5b60005b858110156127bc5781356127aa81612f26565b84529284019290840190600101612797565b5090979650505050505050565b6000602082840312156127db57600080fd5b813561251981612f26565b6000602082840312156127f857600080fd5b815161251981612f26565b6000806040838503121561281657600080fd5b823561282181612f26565b9150602083013561283181612f26565b809150509250929050565b60008060006060848603121561285157600080fd5b833561285c81612f26565b9250602084013561286c81612f26565b929592945050506040919091013590565b6000806040838503121561289057600080fd5b823561289b81612f26565b946020939093013593505050565b600080602083850312156128bc57600080fd5b823567ffffffffffffffff808211156128d457600080fd5b818501915085601f8301126128e857600080fd5b8135818111156128f757600080fd5b8660208260051b850101111561290c57600080fd5b60209290920196919550909350505050565b60008060006060848603121561293357600080fd5b833567ffffffffffffffff8082111561294b57600080fd5b6129578783880161274e565b9450602086013591508082111561296d57600080fd5b6129798783880161274e565b9350604086013591508082111561298f57600080fd5b5061299c8682870161274e565b9150509250925092565b600060208083850312156129b957600080fd5b825167ffffffffffffffff8111156129d057600080fd5b8301601f810185136129e157600080fd5b80516129ef61276f82612e12565b80828252848201915084840188868560051b8701011115612a0f57600080fd5b600094505b83851015612a32578051835260019490940193918501918501612a14565b50979650505050505050565b60008060408385031215612a5157600080fd5b823567ffffffffffffffff811115612a6857600080fd5b8301601f81018513612a7957600080fd5b80356020612a8961276f83612e12565b80838252828201915082850189848660051b8801011115612aa957600080fd5b600095505b84861015612acc578035835260019590950194918301918301612aae565b5098969091013596505050505050565b600060208284031215612aee57600080fd5b8151801515811461251957600080fd5b600060208284031215612b1057600080fd5b5035919050565b600060208284031215612b2957600080fd5b5051919050565b600081518084526020808501945080840160005b83811015612b6057815187529582019590820190600101612b44565b509495945050505050565b60008251612b7d818460208701612e87565b9190910192915050565b6001600160a01b03929092168252602082015260400190565b6020808252825182820181905260009190848201906040850190845b81811015612be15783516001600160a01b031683529284019291840191600101612bbc565b50909695505050505050565b6000604082016040835280865480835260608501915087600052602092508260002060005b82811015612c375781546001600160a01b031684529284019260019182019101612c12565b505050838103828501528481528590820160005b86811015612a32578235612c5e81612f26565b6001600160a01b031682529183019190830190600101612c4b565b604081526000612c8c6040830185612b30565b905060018060a01b03831660208301529392505050565b604081526000612cb66040830185612b30565b8281036020840152612cc88185612b30565b95945050505050565b606081526000612ce46060830186612b30565b60208301949094525060400152919050565b604081526000612d096040830185612b30565b90508260208301529392505050565b6020815260008251806020840152612d37816040850160208701612e87565b601f01601f19169190910160400192915050565b60208082526017908201527f43616c6c6572206973206e6f7420746865205661756c74000000000000000000604082015260600190565b6020808252601a908201527f43616c6c6572206973206e6f742074686520476f7665726e6f72000000000000604082015260600190565b6020808252600e908201526d1499595b9d1c985b9d0818d85b1b60921b604082015260600190565b604051601f8201601f1916810167ffffffffffffffff81118282101715612e0a57612e0a612f10565b604052919050565b600067ffffffffffffffff821115612e2c57612e2c612f10565b5060051b60200190565b60008219821115612e4957612e49612ece565b500190565b600082612e6b57634e487b7160e01b600052601260045260246000fd5b500490565b600082821015612e8257612e82612ece565b500390565b60005b83811015612ea2578181015183820152602001612e8a565b838111156107045750506000910152565b6000600019821415612ec757612ec7612ece565b5060010190565b634e487b7160e01b600052601160045260246000fd5b634e487b7160e01b600052603160045260246000fd5b634e487b7160e01b600052603260045260246000fd5b634e487b7160e01b600052604160045260246000fd5b6001600160a01b038116811461124357600080fdfe53bf423e48ed90e97d02ab0ebab13b2a235a6bfbe9c321847d5c175333ac45357bea13895fa79d2831e0a9e28edede30099005a50d652d8957cf8a607ee6ca4aa2646970667358221220c3037963bbf2281366067a2f62c9002625c0a5d8a0199f7735f91685a54d21c264736f6c634300080700337bea13895fa79d2831e0a9e28edede30099005a50d652d8957cf8a607ee6ca4a",
  "libraries": {},
  "devdoc": {
    "author": "Origin Protocol Inc",
    "kind": "dev",
    "methods": {
      "checkBalance(address)": {
        "params": {
          "_asset": "Address of the asset"
        },
        "returns": {
          "balance": "   Total value of the asset in the platform"
        }
      },
      "claimWithdrawals(uint256[],uint256)": {
        "params": {
          "_requestIds": "Array of withdrawal request identifiers",
          "expectedAmount": "Total amount of ETH expect to be withdrawn"
        }
      },
      "getRewardTokenAddresses()": {
        "returns": {
          "_0": "address[] the reward token addresses."
        }
      },
      "initialize(address[],address[],address[])": {
        "params": {
          "_assets": "Addresses of initial supported assets",
          "_pTokens": "Platform Token corresponding addresses",
          "_rewardTokenAddresses": "Address of reward token for platform"
        }
      },
      "removePToken(uint256)": {
        "params": {
          "_assetIndex": "Index of the asset to be removed"
        }
      },
      "setHarvesterAddress(address)": {
        "params": {
          "_harvesterAddress": "Address of the harvester contract."
        }
      },
      "setPTokenAddress(address,address)": {
        "params": {
          "_asset": "Address for the asset",
          "_pToken": "Address for the corresponding platform token"
        }
      },
      "setRewardTokenAddresses(address[])": {
        "params": {
          "_rewardTokenAddresses": "Array of reward token addresses"
        }
      },
      "supportsAsset(address)": {
        "params": {
          "_asset": "Address of the asset"
        },
        "returns": {
          "_0": "bool     Whether asset is supported"
        }
      },
      "transferGovernance(address)": {
        "params": {
          "_newGovernor": "Address of the new Governor"
        }
      },
      "transferToken(address,uint256)": {
        "params": {
          "_amount": "Amount of the asset to transfer",
          "_asset": "Address for the asset"
        }
      },
      "withdraw(address,address,uint256)": {
        "params": {
          "_amount": "Amount of assets to withdraw",
          "_asset": "Address of the asset to withdraw",
          "_recipient": "Address to receive withdrawn assets"
        }
      }
    },
    "title": "Lido Withdrawal Strategy",
    "version": 1
  },
  "userdoc": {
    "kind": "user",
    "methods": {
      "MaxWithdrawalAmount()": {
        "notice": "Maximum amount of stETH that can be withdrawn in a single request"
      },
      "assetToPToken(address)": {
        "notice": "asset => pToken (Platform Specific Token Address)"
      },
      "checkBalance(address)": {
        "notice": "Returns the amount of queued stETH that will be returned as WETH. We return this as a WETH asset, since that is what it will eventually be returned as. We only return the outstandingWithdrawals, because the contract itself should never hold any funds."
      },
      "claimGovernance()": {
        "notice": "Claim Governance of the contract to a new account (`newGovernor`). Can only be called by the new Governor."
      },
      "claimWithdrawals(uint256[],uint256)": {
        "notice": "Claim previously requested withdrawals that have now finalized. Called by the Strategist."
      },
      "collectRewardTokens()": {
        "notice": "Collect accumulated reward token and send to Vault."
      },
      "deposit(address,uint256)": {
        "notice": "deposit() function not used for this strategy. Use depositAll() instead."
      },
      "depositAll()": {
        "notice": "Takes all given stETH and creates Lido withdrawal request"
      },
      "getRewardTokenAddresses()": {
        "notice": "Get the reward token addresses."
      },
      "governor()": {
        "notice": "Returns the address of the current Governor."
      },
      "harvesterAddress()": {
        "notice": "Address of the Harvester contract allowed to collect reward tokens"
      },
      "initialize(address[],address[],address[])": {
        "notice": "initialize function, to set up initial internal state"
      },
      "isGovernor()": {
        "notice": "Returns true if the caller is the current Governor."
      },
      "outstandingWithdrawals()": {
        "notice": "Total amount of stETH that has been requested to be withdrawn for ETH"
      },
      "platformAddress()": {
        "notice": "Address of the underlying platform"
      },
      "removePToken(uint256)": {
        "notice": "Remove a supported asset by passing its index.      This method can only be called by the system Governor"
      },
      "rewardTokenAddresses(uint256)": {
        "notice": "Address of the reward tokens. eg CRV, BAL, CVX, AURA"
      },
      "safeApproveAllTokens()": {
        "notice": "Approve the spending of all assets by their corresponding cToken,      if for some reason is it necessary."
      },
      "setHarvesterAddress(address)": {
        "notice": "Set the Harvester contract that can collect rewards."
      },
      "setPTokenAddress(address,address)": {
        "notice": "Provide support for asset by passing its pToken address.      This method can only be called by the system Governor"
      },
      "setRewardTokenAddresses(address[])": {
        "notice": "Set the reward token addresses. Any old addresses will be overwritten."
      },
      "supportsAsset(address)": {
        "notice": "Check if an asset is supported."
      },
      "transferGovernance(address)": {
        "notice": "Transfers Governance of the contract to a new account (`newGovernor`). Can only be called by the current Governor. Must be claimed for this to complete"
      },
      "transferToken(address,uint256)": {
        "notice": "Transfer token to governor. Intended for recovering tokens stuck in      strategy contracts, i.e. mistaken sends."
      },
      "vaultAddress()": {
        "notice": "Address of the OToken vault"
      },
      "withdraw(address,address,uint256)": {
        "notice": "Withdraw an asset from the underlying platform"
      },
      "withdrawAll()": {
        "notice": "Withdraw all assets from this strategy, and transfer to the Vault. In correct operation, this strategy should never hold any assets."
      }
    },
    "notice": "This strategy withdraws ETH from stETH via the Lido Withdrawal Queue contract",
    "version": 1
  },
  "storageLayout": {
    "storage": [
      {
        "astId": 43429,
        "contract": "contracts/strategies/LidoWithdrawalStrategy.sol:LidoWithdrawalStrategy",
        "label": "initialized",
        "offset": 0,
        "slot": "0",
        "type": "t_bool"
      },
      {
        "astId": 43432,
        "contract": "contracts/strategies/LidoWithdrawalStrategy.sol:LidoWithdrawalStrategy",
        "label": "initializing",
        "offset": 1,
        "slot": "0",
        "type": "t_bool"
      },
      {
        "astId": 43472,
        "contract": "contracts/strategies/LidoWithdrawalStrategy.sol:LidoWithdrawalStrategy",
        "label": "______gap",
        "offset": 0,
        "slot": "1",
        "type": "t_array(t_uint256)50_storage"
      },
      {
        "astId": 43552,
        "contract": "contracts/strategies/LidoWithdrawalStrategy.sol:LidoWithdrawalStrategy",
        "label": "_deprecated_platformAddress",
        "offset": 0,
        "slot": "51",
        "type": "t_address"
      },
      {
        "astId": 43555,
        "contract": "contracts/strategies/LidoWithdrawalStrategy.sol:LidoWithdrawalStrategy",
        "label": "_deprecated_vaultAddress",
        "offset": 0,
        "slot": "52",
        "type": "t_address"
      },
      {
        "astId": 43560,
        "contract": "contracts/strategies/LidoWithdrawalStrategy.sol:LidoWithdrawalStrategy",
        "label": "assetToPToken",
        "offset": 0,
        "slot": "53",
        "type": "t_mapping(t_address,t_address)"
      },
      {
        "astId": 43564,
        "contract": "contracts/strategies/LidoWithdrawalStrategy.sol:LidoWithdrawalStrategy",
        "label": "assetsMapped",
        "offset": 0,
        "slot": "54",
        "type": "t_array(t_address)dyn_storage"
      },
      {
        "astId": 43566,
        "contract": "contracts/strategies/LidoWithdrawalStrategy.sol:LidoWithdrawalStrategy",
        "label": "_deprecated_rewardTokenAddress",
        "offset": 0,
        "slot": "55",
        "type": "t_address"
      },
      {
        "astId": 43568,
        "contract": "contracts/strategies/LidoWithdrawalStrategy.sol:LidoWithdrawalStrategy",
        "label": "_deprecated_rewardLiquidationThreshold",
        "offset": 0,
        "slot": "56",
        "type": "t_uint256"
      },
      {
        "astId": 43571,
        "contract": "contracts/strategies/LidoWithdrawalStrategy.sol:LidoWithdrawalStrategy",
        "label": "harvesterAddress",
        "offset": 0,
        "slot": "57",
        "type": "t_address"
      },
      {
        "astId": 43575,
        "contract": "contracts/strategies/LidoWithdrawalStrategy.sol:LidoWithdrawalStrategy",
        "label": "rewardTokenAddresses",
        "offset": 0,
        "slot": "58",
        "type": "t_array(t_address)dyn_storage"
      },
      {
        "astId": 43579,
        "contract": "contracts/strategies/LidoWithdrawalStrategy.sol:LidoWithdrawalStrategy",
        "label": "_reserved",
        "offset": 0,
        "slot": "59",
        "type": "t_array(t_int256)98_storage"
      },
      {
        "astId": 33217,
        "contract": "contracts/strategies/LidoWithdrawalStrategy.sol:LidoWithdrawalStrategy",
        "label": "outstandingWithdrawals",
        "offset": 0,
        "slot": "157",
        "type": "t_uint256"
      }
    ],
    "types": {
      "t_address": {
        "encoding": "inplace",
        "label": "address",
        "numberOfBytes": "20"
      },
      "t_array(t_address)dyn_storage": {
        "base": "t_address",
        "encoding": "dynamic_array",
        "label": "address[]",
        "numberOfBytes": "32"
      },
      "t_array(t_int256)98_storage": {
        "base": "t_int256",
        "encoding": "inplace",
        "label": "int256[98]",
        "numberOfBytes": "3136"
      },
      "t_array(t_uint256)50_storage": {
        "base": "t_uint256",
        "encoding": "inplace",
        "label": "uint256[50]",
        "numberOfBytes": "1600"
      },
      "t_bool": {
        "encoding": "inplace",
        "label": "bool",
        "numberOfBytes": "1"
      },
      "t_int256": {
        "encoding": "inplace",
        "label": "int256",
        "numberOfBytes": "32"
      },
      "t_mapping(t_address,t_address)": {
        "encoding": "mapping",
        "key": "t_address",
        "label": "mapping(address => address)",
        "numberOfBytes": "32",
        "value": "t_address"
      },
      "t_uint256": {
        "encoding": "inplace",
        "label": "uint256",
        "numberOfBytes": "32"
      }
    }
  }
}