{
  "abi": [
    {
      "constant": true,
      "inputs": [],
      "name": "governor",
      "outputs": [
        {
          "internalType": "address",
          "name": "",
          "type": "address"
        }
      ],
      "payable": false,
      "stateMutability": "view",
      "type": "function"
    },
    {
      "constant": false,
      "inputs": [
        {
          "internalType": "string",
          "name": "symbol",
          "type": "string"
        }
      ],
      "name": "priceMin",
      "outputs": [
        {
          "internalType": "uint256",
          "name": "price",
          "type": "uint256"
        }
      ],
      "payable": false,
      "stateMutability": "nonpayable",
      "type": "function"
    },
    {
      "constant": true,
      "inputs": [],
      "name": "maxDrift",
      "outputs": [
        {
          "internalType": "uint256",
          "name": "",
          "type": "uint256"
        }
      ],
      "payable": false,
      "stateMutability": "view",
      "type": "function"
    },
    {
      "constant": false,
      "inputs": [
        {
          "internalType": "uint256",
          "name": "_maxDrift",
          "type": "uint256"
        },
        {
          "internalType": "uint256",
          "name": "_minDrift",
          "type": "uint256"
        }
      ],
      "name": "setMinMaxDrift",
      "outputs": [],
      "payable": false,
      "stateMutability": "nonpayable",
      "type": "function"
    },
    {
      "constant": true,
      "inputs": [],
      "name": "minDrift",
      "outputs": [
        {
          "internalType": "uint256",
          "name": "",
          "type": "uint256"
        }
      ],
      "payable": false,
      "stateMutability": "view",
      "type": "function"
    },
    {
      "constant": false,
      "inputs": [],
      "name": "claimGovernance",
      "outputs": [],
      "payable": false,
      "stateMutability": "nonpayable",
      "type": "function"
    },
    {
      "constant": false,
      "inputs": [
        {
          "internalType": "string",
          "name": "symbol",
          "type": "string"
        }
      ],
      "name": "priceMax",
      "outputs": [
        {
          "internalType": "uint256",
          "name": "price",
          "type": "uint256"
        }
      ],
      "payable": false,
      "stateMutability": "nonpayable",
      "type": "function"
    },
    {
      "constant": false,
      "inputs": [
        {
          "internalType": "string",
          "name": "symbol",
          "type": "string"
        },
        {
          "internalType": "address[]",
          "name": "ethOracles",
          "type": "address[]"
        },
        {
          "internalType": "address[]",
          "name": "usdOracles",
          "type": "address[]"
        }
      ],
      "name": "registerTokenOracles",
      "outputs": [],
      "payable": false,
      "stateMutability": "nonpayable",
      "type": "function"
    },
    {
      "constant": true,
      "inputs": [],
      "name": "isGovernor",
      "outputs": [
        {
          "internalType": "bool",
          "name": "",
          "type": "bool"
        }
      ],
      "payable": false,
      "stateMutability": "view",
      "type": "function"
    },
    {
      "constant": false,
      "inputs": [
        {
          "internalType": "address",
          "name": "_newGovernor",
          "type": "address"
        }
      ],
      "name": "transferGovernance",
      "outputs": [],
      "payable": false,
      "stateMutability": "nonpayable",
      "type": "function"
    },
    {
      "constant": false,
      "inputs": [
        {
          "internalType": "address",
          "name": "oracle",
          "type": "address"
        }
      ],
      "name": "unregisterEthUsdOracle",
      "outputs": [],
      "payable": false,
      "stateMutability": "nonpayable",
      "type": "function"
    },
    {
      "constant": false,
      "inputs": [
        {
          "internalType": "address",
          "name": "oracle",
          "type": "address"
        }
      ],
      "name": "registerEthUsdOracle",
      "outputs": [],
      "payable": false,
      "stateMutability": "nonpayable",
      "type": "function"
    },
    {
      "constant": true,
      "inputs": [
        {
          "internalType": "uint256",
          "name": "",
          "type": "uint256"
        }
      ],
      "name": "ethUsdOracles",
      "outputs": [
        {
          "internalType": "address",
          "name": "",
          "type": "address"
        }
      ],
      "payable": false,
      "stateMutability": "view",
      "type": "function"
    },
    {
      "inputs": [
        {
          "internalType": "uint256",
          "name": "_maxDrift",
          "type": "uint256"
        },
        {
          "internalType": "uint256",
          "name": "_minDrift",
          "type": "uint256"
        }
      ],
      "payable": false,
      "stateMutability": "nonpayable",
      "type": "constructor"
    },
    {
      "anonymous": false,
      "inputs": [
        {
          "indexed": true,
          "internalType": "address",
          "name": "previousGovernor",
          "type": "address"
        },
        {
          "indexed": true,
          "internalType": "address",
          "name": "newGovernor",
          "type": "address"
        }
      ],
      "name": "PendingGovernorshipTransfer",
      "type": "event"
    },
    {
      "anonymous": false,
      "inputs": [
        {
          "indexed": true,
          "internalType": "address",
          "name": "previousGovernor",
          "type": "address"
        },
        {
          "indexed": true,
          "internalType": "address",
          "name": "newGovernor",
          "type": "address"
        }
      ],
      "name": "GovernorshipTransferred",
      "type": "event"
    }
  ],
  "address": "0x4d4f5e7a1FE57F5cEB38BfcE8653EFFa5e584458",
  "args": [
    130000000,
    70000000
  ],
  "solcInputHash": "0xe198a4f714a9d5197026cf78b295a6fd26dbd68e473094a20c650315d538ef64",
  "bytecode": "0x608060405234801561001057600080fd5b50604051611d1e380380611d1e8339818101604052604081101561003357600080fd5b81019080805190602001909291908051906020019092919050505061005d336100da60201b60201c565b61006b61010960201b60201c565b73ffffffffffffffffffffffffffffffffffffffff16600073ffffffffffffffffffffffffffffffffffffffff167fc7c0c772add429241571afb3805861fb3cfa2af374534088b76cdb4325a87e9a60405160405180910390a38160358190555080603681905550505061013a565b60007f7bea13895fa79d2831e0a9e28edede30099005a50d652d8957cf8a607ee6ca4a60001b90508181555050565b6000807f7bea13895fa79d2831e0a9e28edede30099005a50d652d8957cf8a607ee6ca4a60001b9050805491505090565b611bd5806101496000396000f3fe608060405234801561001057600080fd5b50600436106100cf5760003560e01c80637bf0c2151161008c578063d38bfff411610066578063d38bfff4146103fb578063dd93e3ff1461043f578063df3be62c14610483578063f92ebeac146104c7576100cf565b80637bf0c2151461022957806398698d3c146102b6578063c7af3352146103d9576100cf565b80630c340a24146100d457806319af6bf01461011e57806330d5fa4c146101ab57806339295f9f146101c957806344347397146102015780635d36b1901461021f575b600080fd5b6100dc610535565b604051808273ffffffffffffffffffffffffffffffffffffffff1673ffffffffffffffffffffffffffffffffffffffff16815260200191505060405180910390f35b6101956004803603602081101561013457600080fd5b810190808035906020019064010000000081111561015157600080fd5b82018360208201111561016357600080fd5b8035906020019184600183028401116401000000008311171561018557600080fd5b9091929391929390505050610544565b6040518082815260200191505060405180910390f35b6101b3610b23565b6040518082815260200191505060405180910390f35b6101ff600480360360408110156101df57600080fd5b810190808035906020019092919080359060200190929190505050610b29565b005b610209610bb5565b6040518082815260200191505060405180910390f35b610227610bbb565b005b6102a06004803603602081101561023f57600080fd5b810190808035906020019064010000000081111561025c57600080fd5b82018360208201111561026e57600080fd5b8035906020019184600183028401116401000000008311171561029057600080fd5b9091929391929390505050610c51565b6040518082815260200191505060405180910390f35b6103d7600480360360608110156102cc57600080fd5b81019080803590602001906401000000008111156102e957600080fd5b8201836020820111156102fb57600080fd5b8035906020019184600183028401116401000000008311171561031d57600080fd5b90919293919293908035906020019064010000000081111561033e57600080fd5b82018360208201111561035057600080fd5b8035906020019184602083028401116401000000008311171561037257600080fd5b90919293919293908035906020019064010000000081111561039357600080fd5b8201836020820111156103a557600080fd5b803590602001918460208302840111640100000000831117156103c757600080fd5b9091929391929390505050611176565b005b6103e1611267565b604051808215151515815260200191505060405180910390f35b61043d6004803603602081101561041157600080fd5b81019080803573ffffffffffffffffffffffffffffffffffffffff1690602001909291905050506112a4565b005b6104816004803603602081101561045557600080fd5b81019080803573ffffffffffffffffffffffffffffffffffffffff16906020019092919050505061138b565b005b6104c56004803603602081101561049957600080fd5b81019080803573ffffffffffffffffffffffffffffffffffffffff1690602001909291905050506115f5565b005b6104f3600480360360208110156104dd57600080fd5b81019080803590602001909291905050506117d2565b604051808273ffffffffffffffffffffffffffffffffffffffff1673ffffffffffffffffffffffffffffffffffffffff16815260200191505060405180910390f35b600061053f61180e565b905090565b60008060346000858560405160200180838380828437808301925050509250505060405160208183030381529060405280519060200120815260200190815260200160002090506000807fffffffffffffffffffffffffffffffffffffffffffffffffffffffffffffffff935060008360010180549050111561087d577fffffffffffffffffffffffffffffffffffffffffffffffffffffffffffffffff915060008090505b83600101805490508110156107075783600101818154811061060857fe5b9060005260206000200160009054906101000a900473ffffffffffffffffffffffffffffffffffffffff1673ffffffffffffffffffffffffffffffffffffffff16632d9ff29688886040518363ffffffff1660e01b815260040180806020018281038252848482818152602001925080828437600081840152601f19601f8201169050808301925050509350505050602060405180830381600087803b1580156106b157600080fd5b505af11580156106c5573d6000803e3d6000fd5b505050506040513d60208110156106db57600080fd5b81019080805190602001909291905050509150818311156106fa578192505b80806001019150506105ea565b508193507fffffffffffffffffffffffffffffffffffffffffffffffffffffffffffffffff915060008090505b603380549050811015610814576033818154811061074e57fe5b9060005260206000200160009054906101000a900473ffffffffffffffffffffffffffffffffffffffff1673ffffffffffffffffffffffffffffffffffffffff16639478ab8c6040518163ffffffff1660e01b815260040160206040518083038186803b1580156107be57600080fd5b505afa1580156107d2573d6000803e3d6000fd5b505050506040513d60208110156107e857600080fd5b8101908080519060200190929190505050915081831115610807578192505b8080600101915050610734565b507fffffffffffffffffffffffffffffffffffffffffffffffffffffffffffffffff841415801561086557507fffffffffffffffffffffffffffffffffffffffffffffffffffffffffffffffff8214155b1561087c57620f42408285028161087857fe5b0493505b5b6000836000018054905011156109b35760008090505b83600001805490508110156109b15760648460000182815481106108b357fe5b9060005260206000200160009054906101000a900473ffffffffffffffffffffffffffffffffffffffff1673ffffffffffffffffffffffffffffffffffffffff1663fe2c619889896040518363ffffffff1660e01b815260040180806020018281038252848482818152602001925080828437600081840152601f19601f820116905080830192505050935050505060206040518083038186803b15801561095a57600080fd5b505afa15801561096e573d6000803e3d6000fd5b505050506040513d602081101561098457600080fd5b8101908080519060200190929190505050029150818511156109a4578194505b8080600101915050610893565b505b6035548410610a2a576040517f08c379a00000000000000000000000000000000000000000000000000000000081526004018080602001828103825260188152602001807f50726963652065786365656473206d61782076616c75652e000000000000000081525060200191505060405180910390fd5b6036548411610aa1576040517f08c379a000000000000000000000000000000000000000000000000000000000815260040180806020018281038252601b8152602001807f5072696365206c6f776572207468616e206d696e2076616c75652e000000000081525060200191505060405180910390fd5b7fffffffffffffffffffffffffffffffffffffffffffffffffffffffffffffffff841415610b1a576040517f08c379a000000000000000000000000000000000000000000000000000000000815260040180806020018281038252602f815260200180611b13602f913960400191505060405180910390fd5b50505092915050565b60355481565b610b31611267565b610ba3576040517f08c379a000000000000000000000000000000000000000000000000000000000815260040180806020018281038252601a8152602001807f43616c6c6572206973206e6f742074686520476f7665726e6f7200000000000081525060200191505060405180910390fd5b81603581905550806036819055505050565b60365481565b610bc361183f565b73ffffffffffffffffffffffffffffffffffffffff163373ffffffffffffffffffffffffffffffffffffffff1614610c46576040517f08c379a0000000000000000000000000000000000000000000000000000000008152600401808060200182810382526030815260200180611b426030913960400191505060405180910390fd5b610c4f33611870565b565b600080603460008585604051602001808383808284378083019250505092505050604051602081830303815290604052805190602001208152602001908152602001600020905060008060009350600083600101805490501115610eef576000915060008090505b8360010180549050811015610dd657836001018181548110610cd757fe5b9060005260206000200160009054906101000a900473ffffffffffffffffffffffffffffffffffffffff1673ffffffffffffffffffffffffffffffffffffffff16632d9ff29688886040518363ffffffff1660e01b815260040180806020018281038252848482818152602001925080828437600081840152601f19601f8201169050808301925050509350505050602060405180830381600087803b158015610d8057600080fd5b505af1158015610d94573d6000803e3d6000fd5b505050506040513d6020811015610daa57600080fd5b8101908080519060200190929190505050915081831015610dc9578192505b8080600101915050610cb9565b508193506000915060008090505b603380549050811015610ec45760338181548110610dfe57fe5b9060005260206000200160009054906101000a900473ffffffffffffffffffffffffffffffffffffffff1673ffffffffffffffffffffffffffffffffffffffff16639478ab8c6040518163ffffffff1660e01b815260040160206040518083038186803b158015610e6e57600080fd5b505afa158015610e82573d6000803e3d6000fd5b505050506040513d6020811015610e9857600080fd5b8101908080519060200190929190505050915081831015610eb7578192505b8080600101915050610de4565b5060008414158015610ed7575060008214155b15610eee57620f424082850281610eea57fe5b0493505b5b6000836000018054905011156110255760008090505b8360000180549050811015611023576064846000018281548110610f2557fe5b9060005260206000200160009054906101000a900473ffffffffffffffffffffffffffffffffffffffff1673ffffffffffffffffffffffffffffffffffffffff1663fe2c619889896040518363ffffffff1660e01b815260040180806020018281038252848482818152602001925080828437600081840152601f19601f820116905080830192505050935050505060206040518083038186803b158015610fcc57600080fd5b505afa158015610fe0573d6000803e3d6000fd5b505050506040513d6020811015610ff657600080fd5b810190808051906020019092919050505002915081851015611016578194505b8080600101915050610f05565b505b603554841061109c576040517f08c379a00000000000000000000000000000000000000000000000000000000081526004018080602001828103825260168152602001807f50726963652061626f7665206d61782076616c75652e0000000000000000000081525060200191505060405180910390fd5b6036548411611113576040517f08c379a00000000000000000000000000000000000000000000000000000000081526004018080602001828103825260168152602001807f50726963652062656c6f77206d696e2076616c75652e0000000000000000000081525060200191505060405180910390fd5b600084141561116d576040517f08c379a000000000000000000000000000000000000000000000000000000000815260040180806020018281038252602f815260200180611b72602f913960400191505060405180910390fd5b50505092915050565b61117e611267565b6111f0576040517f08c379a000000000000000000000000000000000000000000000000000000000815260040180806020018281038252601a8152602001807f43616c6c6572206973206e6f742074686520476f7665726e6f7200000000000081525060200191505060405180910390fd5b6000603460008888604051602001808383808284378083019250505092505050604051602081830303815290604052805190602001208152602001908152602001600020905084848260010191906112499291906119de565b50828282600001919061125d9291906119de565b5050505050505050565b600061127161180e565b73ffffffffffffffffffffffffffffffffffffffff163373ffffffffffffffffffffffffffffffffffffffff1614905090565b6112ac611267565b61131e576040517f08c379a000000000000000000000000000000000000000000000000000000000815260040180806020018281038252601a8152602001807f43616c6c6572206973206e6f742074686520476f7665726e6f7200000000000081525060200191505060405180910390fd5b61132781611980565b8073ffffffffffffffffffffffffffffffffffffffff1661134661180e565b73ffffffffffffffffffffffffffffffffffffffff167fa39cc5eb22d0f34d8beaefee8a3f17cc229c1a1d1ef87a5ad47313487b1c4f0d60405160405180910390a350565b611393611267565b611405576040517f08c379a000000000000000000000000000000000000000000000000000000000815260040180806020018281038252601a8152602001807f43616c6c6572206973206e6f742074686520476f7665726e6f7200000000000081525060200191505060405180910390fd5b60008090505b603380549050811015611583578173ffffffffffffffffffffffffffffffffffffffff166033828154811061143c57fe5b9060005260206000200160009054906101000a900473ffffffffffffffffffffffffffffffffffffffff1673ffffffffffffffffffffffffffffffffffffffff1614156115765760336001603380549050038154811061149857fe5b9060005260206000200160009054906101000a900473ffffffffffffffffffffffffffffffffffffffff16603382815481106114d057fe5b9060005260206000200160006101000a81548173ffffffffffffffffffffffffffffffffffffffff021916908373ffffffffffffffffffffffffffffffffffffffff16021790555060336001603380549050038154811061152d57fe5b9060005260206000200160006101000a81549073ffffffffffffffffffffffffffffffffffffffff0219169055603380548091906001900361156f9190611a7e565b50506115f2565b808060010191505061140b565b506040517f08c379a00000000000000000000000000000000000000000000000000000000081526004018080602001828103825260108152602001807f4f7261636c65206e6f7420666f756e640000000000000000000000000000000081525060200191505060405180910390fd5b50565b6115fd611267565b61166f576040517f08c379a000000000000000000000000000000000000000000000000000000000815260040180806020018281038252601a8152602001807f43616c6c6572206973206e6f742074686520476f7665726e6f7200000000000081525060200191505060405180910390fd5b60008090505b603380549050811015611768578173ffffffffffffffffffffffffffffffffffffffff16603382815481106116a657fe5b9060005260206000200160009054906101000a900473ffffffffffffffffffffffffffffffffffffffff1673ffffffffffffffffffffffffffffffffffffffff16141561175b576040517f08c379a000000000000000000000000000000000000000000000000000000000815260040180806020018281038252601a8152602001807f4f7261636c6520616c726561647920726567697374657265642e00000000000081525060200191505060405180910390fd5b8080600101915050611675565b5060338190806001815401808255809150509060018203906000526020600020016000909192909190916101000a81548173ffffffffffffffffffffffffffffffffffffffff021916908373ffffffffffffffffffffffffffffffffffffffff1602179055505050565b603381815481106117df57fe5b906000526020600020016000915054906101000a900473ffffffffffffffffffffffffffffffffffffffff1681565b6000807f7bea13895fa79d2831e0a9e28edede30099005a50d652d8957cf8a607ee6ca4a60001b9050805491505090565b6000807f44c4d30b2eaad5130ad70c3ba6972730566f3e6359ab83e800d905c61b1c51db60001b9050805491505090565b600073ffffffffffffffffffffffffffffffffffffffff168173ffffffffffffffffffffffffffffffffffffffff161415611913576040517f08c379a000000000000000000000000000000000000000000000000000000000815260040180806020018281038252601a8152602001807f4e657720476f7665726e6f72206973206164647265737328302900000000000081525060200191505060405180910390fd5b8073ffffffffffffffffffffffffffffffffffffffff1661193261180e565b73ffffffffffffffffffffffffffffffffffffffff167fc7c0c772add429241571afb3805861fb3cfa2af374534088b76cdb4325a87e9a60405160405180910390a361197d816119af565b50565b60007f44c4d30b2eaad5130ad70c3ba6972730566f3e6359ab83e800d905c61b1c51db60001b90508181555050565b60007f7bea13895fa79d2831e0a9e28edede30099005a50d652d8957cf8a607ee6ca4a60001b90508181555050565b828054828255906000526020600020908101928215611a6d579160200282015b82811115611a6c57823573ffffffffffffffffffffffffffffffffffffffff168260006101000a81548173ffffffffffffffffffffffffffffffffffffffff021916908373ffffffffffffffffffffffffffffffffffffffff160217905550916020019190600101906119fe565b5b509050611a7a9190611aaa565b5090565b815481835581811115611aa557818360005260206000209182019101611aa49190611aed565b5b505050565b611aea91905b80821115611ae657600081816101000a81549073ffffffffffffffffffffffffffffffffffffffff021916905550600101611ab0565b5090565b90565b611b0f91905b80821115611b0b576000816000905550600101611af3565b5090565b9056fe4e6f6e65206f66206f7572206f7261636c65732072657475726e656420612076616c6964206d696e207072696365214f6e6c79207468652070656e64696e6720476f7665726e6f722063616e20636f6d706c6574652074686520636c61696d4e6f6e65206f66206f7572206f7261636c65732072657475726e656420612076616c6964206d617820707269636521a265627a7a723158205a97e89c0821a927291181610a4739dcbc5d56409f825a5477785388b24a034e64736f6c634300050b0032",
  "devdoc": {
    "methods": {
      "claimGovernance()": {
        "details": "Claim Governance of the contract to a new account (`newGovernor`). Can only be called by the new Governor."
      },
      "governor()": {
        "details": "Returns the address of the current Governor."
      },
      "isGovernor()": {
        "details": "Returns true if the caller is the current Governor."
      },
      "priceMax(string)": {
        "return": "symbol Asset symbol. Example: \"DAI\"price Max price from all the oracles, in USD with 8 decimal digits.*"
      },
      "priceMin(string)": {
        "return": "symbol Asset symbol. Example: \"DAI\"price Min price from all the oracles, in USD with 8 decimal digits.*"
      },
      "registerEthUsdOracle(address)": {
        "params": {
          "oracle": "Address of an oracle that implements the IEthUsdOracle interface.*"
        }
      },
      "registerTokenOracles(string,address[],address[])": {
        "params": {
          "ethOracles": "Addresses of oracles that implements the IEthUsdOracle interface and answers for this asset",
          "usdOracles": "Addresses of oracles that implements the IPriceOracle interface and answers for this asset*"
        }
      },
      "transferGovernance(address)": {
        "details": "Transfers Governance of the contract to a new account (`newGovernor`). Can only be called by the current Governor. Must be claimed for this to complete",
        "params": {
          "_newGovernor": "Address of the new Governor"
        }
      },
      "unregisterEthUsdOracle(address)": {
        "params": {
          "oracle": "Address of an oracle that implements the IEthUsdOracle interface.*"
        }
      }
    }
  },
  "userdoc": {
    "methods": {
      "priceMax(string)": {
        "notice": "Returns max price of an asset in USD."
      },
      "priceMin(string)": {
        "notice": "Returns the min price of an asset in USD."
      },
      "registerEthUsdOracle(address)": {
        "notice": "Adds an oracle to the list of oracles to pull data from."
      },
      "registerTokenOracles(string,address[],address[])": {
        "notice": "Adds an oracle to the list of oracles to pull data from."
      },
      "unregisterEthUsdOracle(address)": {
        "notice": "Removes an oracle to the list of oracles to pull data from."
      }
    }
  },
  "gasEstimates": {
    "creation": {
      "codeDepositCost": "1425000",
      "executionCost": "infinite",
      "totalCost": "infinite"
    },
    "external": {
      "claimGovernance()": "infinite",
      "ethUsdOracles(uint256)": "905",
      "governor()": "480",
      "isGovernor()": "563",
      "maxDrift()": "450",
      "minDrift()": "494",
      "priceMax(string)": "infinite",
      "priceMin(string)": "infinite",
      "registerEthUsdOracle(address)": "infinite",
      "registerTokenOracles(string,address[],address[])": "infinite",
      "setMinMaxDrift(uint256,uint256)": "40675",
      "transferGovernance(address)": "infinite",
      "unregisterEthUsdOracle(address)": "infinite"
    }
  }
}