{
  "address": "0xC033785181372379dB2BF9dD32178a7FDf495AcD",
  "abi": [
    {
      "inputs": [],
      "name": "latestBlockRoot",
      "outputs": [
        {
          "internalType": "bytes32",
          "name": "parentRoot",
          "type": "bytes32"
        },
        {
          "internalType": "uint64",
          "name": "timestamp",
          "type": "uint64"
        }
      ],
      "stateMutability": "view",
      "type": "function"
    },
    {
      "inputs": [
        {
          "internalType": "uint64",
          "name": "timestamp",
          "type": "uint64"
        }
      ],
      "name": "parentBlockRoot",
      "outputs": [
        {
          "internalType": "bytes32",
          "name": "parentRoot",
          "type": "bytes32"
        }
      ],
      "stateMutability": "view",
      "type": "function"
    }
  ],
  "transactionHash": "0xb3e40319c3f02fe3cd586a386514c74ac9561733b02adcbb700c28884808f4a0",
  "args": [],
  "numDeployments": 1,
  "solcInputHash": "c59d428f039161f4fb50596eaf7cf65d",
  "bytecode": "0x6080604052348015600f57600080fd5b506103068061001f6000396000f3fe608060405234801561001057600080fd5b50600436106100365760003560e01c8063aa24b3c41461003b578063be7c629b14610061575b600080fd5b61004e610049366004610217565b610087565b6040519081526020015b60405180910390f35b610069610098565b6040805192835267ffffffffffffffff909116602083015201610058565b6000610092826100aa565b92915050565b6000426100a4816100aa565b91509091565b60006100b9611fff600c61025e565b6100cd67ffffffffffffffff841642610275565b106101135760405162461bcd60e51b8152602060048201526011602482015270151a5b595cdd185b5c081d1bdbc81bdb19607a1b60448201526064015b60405180910390fd5b6040805167ffffffffffffffff841660208201526000918291720f3df6d732807ef1319fb7b8bb8522d0beac02910160408051601f198184030181529082905261015c91610288565b600060405180830381855afa9150503d8060008114610197576040519150601f19603f3d011682016040523d82523d6000602084013e61019c565b606091505b50915091508180156101af575060008151115b6101fb5760405162461bcd60e51b815260206004820152601860248201527f496e76616c696420626561636f6e2074696d657374616d700000000000000000604482015260640161010a565b8080602001905181019061020f91906102b7565b949350505050565b60006020828403121561022957600080fd5b813567ffffffffffffffff8116811461024157600080fd5b9392505050565b634e487b7160e01b600052601160045260246000fd5b808202811582820484141761009257610092610248565b8181038181111561009257610092610248565b6000825160005b818110156102a9576020818601810151858301520161028f565b506000920191825250919050565b6000602082840312156102c957600080fd5b505191905056fea26469706673582212207a11786e77e163c908123ec990a787da176fb5ca3ed4860bde0a72a1a7a1611664736f6c634300081c0033",
  "libraries": {},
  "devdoc": {
    "kind": "dev",
    "methods": {},
    "version": 1
  },
  "userdoc": {
    "kind": "user",
    "methods": {},
    "version": 1
  },
  "storageLayout": {
    "storage": [],
    "types": null
  }
}