{
  "address": "0xC72bda59E382be10bb5D71aBd01Ecc65aa16fD83",
  "abi": [
    {
      "anonymous": false,
      "inputs": [
        {
          "indexed": true,
          "internalType": "address",
          "name": "_asset",
          "type": "address"
        },
        {
          "indexed": false,
          "internalType": "address",
          "name": "_pToken",
          "type": "address"
        },
        {
          "indexed": false,
          "internalType": "uint256",
          "name": "_amount",
          "type": "uint256"
        }
      ],
      "name": "Deposit",
      "type": "event"
    },
    {
      "anonymous": false,
      "inputs": [
        {
          "indexed": true,
          "internalType": "address",
          "name": "previousGovernor",
          "type": "address"
        },
        {
          "indexed": true,
          "internalType": "address",
          "name": "newGovernor",
          "type": "address"
        }
      ],
      "name": "GovernorshipTransferred",
      "type": "event"
    },
    {
      "anonymous": false,
      "inputs": [
        {
          "indexed": false,
          "internalType": "address",
          "name": "_oldHarvesterAddress",
          "type": "address"
        },
        {
          "indexed": false,
          "internalType": "address",
          "name": "_newHarvesterAddress",
          "type": "address"
        }
      ],
      "name": "HarvesterAddressesUpdated",
      "type": "event"
    },
    {
      "anonymous": false,
      "inputs": [
        {
          "indexed": true,
          "internalType": "address",
          "name": "_asset",
          "type": "address"
        },
        {
          "indexed": false,
          "internalType": "address",
          "name": "_pToken",
          "type": "address"
        }
      ],
      "name": "PTokenAdded",
      "type": "event"
    },
    {
      "anonymous": false,
      "inputs": [
        {
          "indexed": true,
          "internalType": "address",
          "name": "_asset",
          "type": "address"
        },
        {
          "indexed": false,
          "internalType": "address",
          "name": "_pToken",
          "type": "address"
        }
      ],
      "name": "PTokenRemoved",
      "type": "event"
    },
    {
      "anonymous": false,
      "inputs": [
        {
          "indexed": true,
          "internalType": "address",
          "name": "previousGovernor",
          "type": "address"
        },
        {
          "indexed": true,
          "internalType": "address",
          "name": "newGovernor",
          "type": "address"
        }
      ],
      "name": "PendingGovernorshipTransfer",
      "type": "event"
    },
    {
      "anonymous": false,
      "inputs": [
        {
          "indexed": false,
          "internalType": "address[]",
          "name": "_oldAddresses",
          "type": "address[]"
        },
        {
          "indexed": false,
          "internalType": "address[]",
          "name": "_newAddresses",
          "type": "address[]"
        }
      ],
      "name": "RewardTokenAddressesUpdated",
      "type": "event"
    },
    {
      "anonymous": false,
      "inputs": [
        {
          "indexed": false,
          "internalType": "address",
          "name": "recipient",
          "type": "address"
        },
        {
          "indexed": false,
          "internalType": "address",
          "name": "rewardToken",
          "type": "address"
        },
        {
          "indexed": false,
          "internalType": "uint256",
          "name": "amount",
          "type": "uint256"
        }
      ],
      "name": "RewardTokenCollected",
      "type": "event"
    },
    {
      "anonymous": false,
      "inputs": [
        {
          "indexed": true,
          "internalType": "address",
          "name": "_asset",
          "type": "address"
        },
        {
          "indexed": false,
          "internalType": "address",
          "name": "_pToken",
          "type": "address"
        },
        {
          "indexed": false,
          "internalType": "uint256",
          "name": "_amount",
          "type": "uint256"
        }
      ],
      "name": "Withdrawal",
      "type": "event"
    },
    {
      "inputs": [],
      "name": "LENS",
      "outputs": [
        {
          "internalType": "address",
          "name": "",
          "type": "address"
        }
      ],
      "stateMutability": "view",
      "type": "function"
    },
    {
      "inputs": [],
      "name": "MORPHO",
      "outputs": [
        {
          "internalType": "address",
          "name": "",
          "type": "address"
        }
      ],
      "stateMutability": "view",
      "type": "function"
    },
    {
      "inputs": [],
      "name": "_deprecated_rewardLiquidationThreshold",
      "outputs": [
        {
          "internalType": "uint256",
          "name": "",
          "type": "uint256"
        }
      ],
      "stateMutability": "view",
      "type": "function"
    },
    {
      "inputs": [],
      "name": "_deprecated_rewardTokenAddress",
      "outputs": [
        {
          "internalType": "address",
          "name": "",
          "type": "address"
        }
      ],
      "stateMutability": "view",
      "type": "function"
    },
    {
      "inputs": [
        {
          "internalType": "address",
          "name": "",
          "type": "address"
        }
      ],
      "name": "assetToPToken",
      "outputs": [
        {
          "internalType": "address",
          "name": "",
          "type": "address"
        }
      ],
      "stateMutability": "view",
      "type": "function"
    },
    {
      "inputs": [
        {
          "internalType": "address",
          "name": "_asset",
          "type": "address"
        }
      ],
      "name": "checkBalance",
      "outputs": [
        {
          "internalType": "uint256",
          "name": "balance",
          "type": "uint256"
        }
      ],
      "stateMutability": "view",
      "type": "function"
    },
    {
      "inputs": [],
      "name": "claimGovernance",
      "outputs": [],
      "stateMutability": "nonpayable",
      "type": "function"
    },
    {
      "inputs": [],
      "name": "collectRewardTokens",
      "outputs": [],
      "stateMutability": "nonpayable",
      "type": "function"
    },
    {
      "inputs": [
        {
          "internalType": "address",
          "name": "_asset",
          "type": "address"
        },
        {
          "internalType": "uint256",
          "name": "_amount",
          "type": "uint256"
        }
      ],
      "name": "deposit",
      "outputs": [],
      "stateMutability": "nonpayable",
      "type": "function"
    },
    {
      "inputs": [],
      "name": "depositAll",
      "outputs": [],
      "stateMutability": "nonpayable",
      "type": "function"
    },
    {
      "inputs": [],
      "name": "getPendingRewards",
      "outputs": [
        {
          "internalType": "uint256",
          "name": "balance",
          "type": "uint256"
        }
      ],
      "stateMutability": "view",
      "type": "function"
    },
    {
      "inputs": [],
      "name": "getRewardTokenAddresses",
      "outputs": [
        {
          "internalType": "address[]",
          "name": "",
          "type": "address[]"
        }
      ],
      "stateMutability": "view",
      "type": "function"
    },
    {
      "inputs": [],
      "name": "governor",
      "outputs": [
        {
          "internalType": "address",
          "name": "",
          "type": "address"
        }
      ],
      "stateMutability": "view",
      "type": "function"
    },
    {
      "inputs": [],
      "name": "harvesterAddress",
      "outputs": [
        {
          "internalType": "address",
          "name": "",
          "type": "address"
        }
      ],
      "stateMutability": "view",
      "type": "function"
    },
    {
      "inputs": [
        {
          "internalType": "address",
          "name": "_vaultAddress",
          "type": "address"
        },
        {
          "internalType": "address[]",
          "name": "_rewardTokenAddresses",
          "type": "address[]"
        },
        {
          "internalType": "address[]",
          "name": "_assets",
          "type": "address[]"
        },
        {
          "internalType": "address[]",
          "name": "_pTokens",
          "type": "address[]"
        }
      ],
      "name": "initialize",
      "outputs": [],
      "stateMutability": "nonpayable",
      "type": "function"
    },
    {
      "inputs": [
        {
          "internalType": "address",
          "name": "_platformAddress",
          "type": "address"
        },
        {
          "internalType": "address",
          "name": "_vaultAddress",
          "type": "address"
        },
        {
          "internalType": "address[]",
          "name": "_rewardTokenAddresses",
          "type": "address[]"
        },
        {
          "internalType": "address[]",
          "name": "_assets",
          "type": "address[]"
        },
        {
          "internalType": "address[]",
          "name": "_pTokens",
          "type": "address[]"
        }
      ],
      "name": "initialize",
      "outputs": [],
      "stateMutability": "nonpayable",
      "type": "function"
    },
    {
      "inputs": [],
      "name": "isGovernor",
      "outputs": [
        {
          "internalType": "bool",
          "name": "",
          "type": "bool"
        }
      ],
      "stateMutability": "view",
      "type": "function"
    },
    {
      "inputs": [],
      "name": "platformAddress",
      "outputs": [
        {
          "internalType": "address",
          "name": "",
          "type": "address"
        }
      ],
      "stateMutability": "view",
      "type": "function"
    },
    {
      "inputs": [
        {
          "internalType": "uint256",
          "name": "_assetIndex",
          "type": "uint256"
        }
      ],
      "name": "removePToken",
      "outputs": [],
      "stateMutability": "nonpayable",
      "type": "function"
    },
    {
      "inputs": [
        {
          "internalType": "uint256",
          "name": "",
          "type": "uint256"
        }
      ],
      "name": "rewardTokenAddresses",
      "outputs": [
        {
          "internalType": "address",
          "name": "",
          "type": "address"
        }
      ],
      "stateMutability": "view",
      "type": "function"
    },
    {
      "inputs": [],
      "name": "safeApproveAllTokens",
      "outputs": [],
      "stateMutability": "nonpayable",
      "type": "function"
    },
    {
      "inputs": [
        {
          "internalType": "address",
          "name": "_harvesterAddress",
          "type": "address"
        }
      ],
      "name": "setHarvesterAddress",
      "outputs": [],
      "stateMutability": "nonpayable",
      "type": "function"
    },
    {
      "inputs": [
        {
          "internalType": "address",
          "name": "_asset",
          "type": "address"
        },
        {
          "internalType": "address",
          "name": "_pToken",
          "type": "address"
        }
      ],
      "name": "setPTokenAddress",
      "outputs": [],
      "stateMutability": "nonpayable",
      "type": "function"
    },
    {
      "inputs": [
        {
          "internalType": "address[]",
          "name": "_rewardTokenAddresses",
          "type": "address[]"
        }
      ],
      "name": "setRewardTokenAddresses",
      "outputs": [],
      "stateMutability": "nonpayable",
      "type": "function"
    },
    {
      "inputs": [
        {
          "internalType": "address",
          "name": "_asset",
          "type": "address"
        }
      ],
      "name": "supportsAsset",
      "outputs": [
        {
          "internalType": "bool",
          "name": "",
          "type": "bool"
        }
      ],
      "stateMutability": "view",
      "type": "function"
    },
    {
      "inputs": [
        {
          "internalType": "address",
          "name": "_newGovernor",
          "type": "address"
        }
      ],
      "name": "transferGovernance",
      "outputs": [],
      "stateMutability": "nonpayable",
      "type": "function"
    },
    {
      "inputs": [
        {
          "internalType": "address",
          "name": "_asset",
          "type": "address"
        },
        {
          "internalType": "uint256",
          "name": "_amount",
          "type": "uint256"
        }
      ],
      "name": "transferToken",
      "outputs": [],
      "stateMutability": "nonpayable",
      "type": "function"
    },
    {
      "inputs": [],
      "name": "vaultAddress",
      "outputs": [
        {
          "internalType": "address",
          "name": "",
          "type": "address"
        }
      ],
      "stateMutability": "view",
      "type": "function"
    },
    {
      "inputs": [
        {
          "internalType": "address",
          "name": "_recipient",
          "type": "address"
        },
        {
          "internalType": "address",
          "name": "_asset",
          "type": "address"
        },
        {
          "internalType": "uint256",
          "name": "_amount",
          "type": "uint256"
        }
      ],
      "name": "withdraw",
      "outputs": [],
      "stateMutability": "nonpayable",
      "type": "function"
    },
    {
      "inputs": [],
      "name": "withdrawAll",
      "outputs": [],
      "stateMutability": "nonpayable",
      "type": "function"
    }
  ],
  "transactionHash": "0x0063699d541cfc8c0e51e6cd385825ef990a48f62824e2de3942e77f170029f9",
  "args": [],
  "solcInputHash": "20a1941bff44004e2cc4db999d36e2f6",
  "bytecode": "0x608060405234801561001057600080fd5b50610027336000805160206123db83398151915255565b6000805160206123db833981519152546040516001600160a01b03909116906000907fc7c0c772add429241571afb3805861fb3cfa2af374534088b76cdb4325a87e9a908290a361235e8061007d6000396000f3fe608060405234801561001057600080fd5b50600436106101da5760003560e01c8063853828b611610104578063c7af3352116100a2578063dbe55e5611610071578063dbe55e56146103fd578063de5f626814610410578063f6ca71b014610418578063f817bc631461042d57600080fd5b8063c7af3352146103c8578063d38bfff4146103d0578063d9621f9e146103e3578063d9caed12146103ea57600080fd5b806396d538bb116100de57806396d538bb1461035c578063aa388af61461036f578063ad1728cb146103ad578063c2e1e3f4146103b557600080fd5b8063853828b61461032e5780639136616a146103365780639688d2fc1461034957600080fd5b80633acb56241161017c5780635d36b1901161014b5780635d36b190146102df5780635f515226146102e757806367c7066c146103085780637b2d9b2c1461031b57600080fd5b80633acb562414610296578063430bf08a146102b157806347e7ef24146102c45780635a063f63146102d757600080fd5b80631072cbea116101b85780631072cbea1461024257806318a4619a146102555780632e655201146102705780632f26b1de1461028357600080fd5b80630c340a24146101df5780630ed57b3a146102045780630fc3b4c414610219575b600080fd5b6101e7610436565b6040516001600160a01b0390911681526020015b60405180910390f35b610217610212366004611d6f565b610453565b005b6101e7610227366004611d54565b6035602052600090815260409020546001600160a01b031681565b610217610250366004611f44565b61048e565b6101e773507fa343d0a90786d86c7cd885f5c49263a91ff481565b6037546101e7906001600160a01b031681565b610217610291366004611e99565b6104ce565b6101e773777777c9898d384f785ee44acfe945efdff5f3e081565b6034546101e7906001600160a01b031681565b6102176102d2366004611f44565b6105ea565b61021761065d565b6102176106f0565b6102fa6102f5366004611d54565b610796565b6040519081526020016101fb565b6039546101e7906001600160a01b031681565b6101e7610329366004611fd2565b6107a7565b6102176107d1565b610217610344366004611fd2565b610933565b610217610357366004611da2565b610aff565b61021761036a366004611f6e565b610c08565b61039d61037d366004611d54565b6001600160a01b0390811660009081526035602052604090205416151590565b60405190151581526020016101fb565b610217610d2e565b6102176103c3366004611d54565b610e29565b61039d610ea8565b6102176103de366004611d54565b610ed9565b60006102fa565b6102176103f8366004611e5d565b610f7d565b6033546101e7906001600160a01b031681565b610217610ff2565b610420611144565b6040516101fb919061204e565b6102fa60385481565b600061044e6000805160206123098339815191525490565b905090565b61045b610ea8565b6104805760405162461bcd60e51b81526004016104779061219b565b60405180910390fd5b61048a82826111a6565b5050565b610496610ea8565b6104b25760405162461bcd60e51b81526004016104779061219b565b61048a6104bd610436565b6001600160a01b038416908361130b565b6104d6610ea8565b6104f25760405162461bcd60e51b81526004016104779061219b565b600054610100900460ff168061050b575060005460ff16155b6105275760405162461bcd60e51b8152600401610477906121d2565b600054610100900460ff16158015610549576000805461ffff19166101011790555b6105ce73777777c9898d384f785ee44acfe945efdff5f3e089898989898080602002602001604051908101604052809392919081815260200183836020028082843760009201919091525050604080516020808d0282810182019093528c82529093508c92508b91829185019084908082843760009201919091525061136e92505050565b80156105e0576000805461ff00191690555b5050505050505050565b6034546001600160a01b031633146106145760405162461bcd60e51b815260040161047790612164565b6000805160206122e9833981519152805460028114156106465760405162461bcd60e51b815260040161047790612220565b60028255610654848461144d565b50600190555050565b6039546001600160a01b031633146106b75760405162461bcd60e51b815260206004820152601b60248201527f43616c6c6572206973206e6f74207468652048617276657374657200000000006044820152606401610477565b6000805160206122e9833981519152805460028114156106e95760405162461bcd60e51b815260040161047790612220565b5060019055565b7f44c4d30b2eaad5130ad70c3ba6972730566f3e6359ab83e800d905c61b1c51db546001600160a01b0316336001600160a01b03161461078b5760405162461bcd60e51b815260206004820152603060248201527f4f6e6c79207468652070656e64696e6720476f7665726e6f722063616e20636f60448201526f6d706c6574652074686520636c61696d60801b6064820152608401610477565b61079433611561565b565b60006107a182611625565b92915050565b603a81815481106107b757600080fd5b6000918252602090912001546001600160a01b0316905081565b6034546001600160a01b031633148061080257506107ed610436565b6001600160a01b0316336001600160a01b0316145b61085a5760405162461bcd60e51b815260206004820152602360248201527f43616c6c6572206973206e6f7420746865205661756c74206f7220476f7665726044820152623737b960e91b6064820152608401610477565b6000805160206122e98339815191528054600281141561088c5760405162461bcd60e51b815260040161047790612220565b6002825560005b60365481101561092b5760006108cf603683815481106108b5576108b56122d2565b6000918252602090912001546001600160a01b0316611625565b905080156109185760345460368054610918926001600160a01b03169190859081106108fd576108fd6122d2565b6000918252602090912001546001600160a01b0316836116ce565b50806109238161228b565b915050610893565b505060019055565b61093b610ea8565b6109575760405162461bcd60e51b81526004016104779061219b565b60365481106109985760405162461bcd60e51b815260206004820152600d60248201526c092dcecc2d8d2c840d2dcc8caf609b1b6044820152606401610477565b6000603682815481106109ad576109ad6122d2565b60009182526020808320909101546001600160a01b039081168084526035909252604090922054603654919350909116906109ea90600190612248565b831015610a6c5760368054610a0190600190612248565b81548110610a1157610a116122d2565b600091825260209091200154603680546001600160a01b039092169185908110610a3d57610a3d6122d2565b9060005260206000200160006101000a8154816001600160a01b0302191690836001600160a01b031602179055505b6036805480610a7d57610a7d6122bc565b60008281526020808220600019908401810180546001600160a01b031990811690915593019093556001600160a01b038581168083526035855260409283902080549094169093559051908416815290917f16b7600acff27e39a8a96056b3d533045298de927507f5c1d97e4accde60488c91015b60405180910390a2505050565b610b07610ea8565b610b235760405162461bcd60e51b81526004016104779061219b565b600054610100900460ff1680610b3c575060005460ff16155b610b585760405162461bcd60e51b8152600401610477906121d2565b600054610100900460ff16158015610b7a576000805461ffff19166101011790555b610beb8989898989898080602002602001604051908101604052809392919081815260200183836020028082843760009201919091525050604080516020808d0282810182019093528c82529093508c92508b91829185019084908082843760009201919091525061136e92505050565b8015610bfd576000805461ff00191690555b505050505050505050565b610c10610ea8565b610c2c5760405162461bcd60e51b81526004016104779061219b565b60005b81811015610ce0576000838383818110610c4b57610c4b6122d2565b9050602002016020810190610c609190611d54565b6001600160a01b03161415610cce5760405162461bcd60e51b815260206004820152602e60248201527f43616e206e6f742073657420616e20656d70747920616464726573732061732060448201526d30903932bbb0b932103a37b5b2b760911b6064820152608401610477565b80610cd88161228b565b915050610c2f565b507f04c0b9649497d316554306e53678d5f5f5dbc3a06f97dec13ff4cfe98b986bbc603a8383604051610d159392919061209b565b60405180910390a1610d29603a8383611c74565b505050565b610d36610ea8565b610d525760405162461bcd60e51b81526004016104779061219b565b6000805160206122e983398151915280546002811415610d845760405162461bcd60e51b815260040161047790612220565b6002825560365460005b81811015610e1f57600060368281548110610dab57610dab6122d2565b60009182526020822001546001600160a01b03169150610de290829073777777c9898d384f785ee44acfe945efdff5f3e09061184f565b610e0c6001600160a01b03821673777777c9898d384f785ee44acfe945efdff5f3e060001961184f565b5080610e178161228b565b915050610d8e565b5050600182555050565b610e31610ea8565b610e4d5760405162461bcd60e51b81526004016104779061219b565b603980546001600160a01b0319166001600160a01b0383169081179091556040805182815260208101929092527fe48386b84419f4d36e0f96c10cc3510b6fb1a33795620c5098b22472bbe90796910160405180910390a150565b6000610ec06000805160206123098339815191525490565b6001600160a01b0316336001600160a01b031614905090565b610ee1610ea8565b610efd5760405162461bcd60e51b81526004016104779061219b565b610f25817f44c4d30b2eaad5130ad70c3ba6972730566f3e6359ab83e800d905c61b1c51db55565b806001600160a01b0316610f456000805160206123098339815191525490565b6001600160a01b03167fa39cc5eb22d0f34d8beaefee8a3f17cc229c1a1d1ef87a5ad47313487b1c4f0d60405160405180910390a350565b6034546001600160a01b03163314610fa75760405162461bcd60e51b815260040161047790612164565b6000805160206122e983398151915280546002811415610fd95760405162461bcd60e51b815260040161047790612220565b60028255610fe88585856116ce565b5060019055505050565b6034546001600160a01b0316331461101c5760405162461bcd60e51b815260040161047790612164565b6000805160206122e98339815191528054600281141561104e5760405162461bcd60e51b815260040161047790612220565b6002825560005b60365481101561092b57600060368281548110611074576110746122d2565b6000918252602090912001546040516370a0823160e01b81523060048201526001600160a01b03909116906370a082319060240160206040518083038186803b1580156110c057600080fd5b505afa1580156110d4573d6000803e3d6000fd5b505050506040513d601f19601f820116820180604052508101906110f89190611feb565b905080156111315761113160368381548110611116576111166122d2565b6000918252602090912001546001600160a01b03168261144d565b508061113c8161228b565b915050611055565b6060603a80548060200260200160405190810160405280929190818152602001828054801561119c57602002820191906000526020600020905b81546001600160a01b0316815260019091019060200180831161117e575b5050505050905090565b6001600160a01b0382811660009081526035602052604090205416156112035760405162461bcd60e51b81526020600482015260126024820152711c151bdad95b88185b1c9958591e481cd95d60721b6044820152606401610477565b6001600160a01b0382161580159061122357506001600160a01b03811615155b6112635760405162461bcd60e51b8152602060048201526011602482015270496e76616c69642061646472657373657360781b6044820152606401610477565b6001600160a01b03828116600081815260356020908152604080832080549587166001600160a01b031996871681179091556036805460018101825594527f4a11f94e20a93c79f6ec743a1954ec4fc2c08429ae2122118bf234b2185c81b890930180549095168417909455925190815290917fef6485b84315f9b1483beffa32aae9a0596890395e3d7521f1c5fbb51790e765910160405180910390a261048a8282611973565b6040516001600160a01b038316602482015260448101829052610d2990849063a9059cbb60e01b906064015b60408051601f198184030181529190526020810180516001600160e01b03166001600160e01b0319909316929092179091526119c6565b603380546001600160a01b038089166001600160a01b03199283161790925560348054928816929091169190911790556113aa603a8585611c74565b508151815181146113f45760405162461bcd60e51b8152602060048201526014602482015273496e76616c696420696e7075742061727261797360601b6044820152606401610477565b60005b818110156105e05761143b848281518110611414576114146122d2565b602002602001015184838151811061142e5761142e6122d2565b60200260200101516111a6565b806114458161228b565b9150506113f7565b600081116114965760405162461bcd60e51b81526020600482015260166024820152754d757374206465706f73697420736f6d657468696e6760501b6044820152606401610477565b60006114a183611a98565b604051630c0a769b60e01b81526001600160a01b03821660048201523060248201526044810184905290915073777777c9898d384f785ee44acfe945efdff5f3e090630c0a769b90606401600060405180830381600087803b15801561150657600080fd5b505af115801561151a573d6000803e3d6000fd5b5050604080516001600160a01b03858116825260208201879052871693507f5548c837ab068cf56a2c2479df0882a4922fd203edb7517321831d95078c5f62925001610af2565b6001600160a01b0381166115b75760405162461bcd60e51b815260206004820152601a60248201527f4e657720476f7665726e6f7220697320616464726573732830290000000000006044820152606401610477565b806001600160a01b03166115d76000805160206123098339815191525490565b6001600160a01b03167fc7c0c772add429241571afb3805861fb3cfa2af374534088b76cdb4325a87e9a60405160405180910390a36116228160008051602061230983398151915255565b50565b60008061163183611a98565b60405163a480b7ed60e01b81526001600160a01b038216600482015230602482015290915073507fa343d0a90786d86c7cd885f5c49263a91ff49063a480b7ed9060440160606040518083038186803b15801561168d57600080fd5b505afa1580156116a1573d6000803e3d6000fd5b505050506040513d601f19601f820116820180604052508101906116c59190612004565b95945050505050565b6000811161171e5760405162461bcd60e51b815260206004820152601760248201527f4d75737420776974686472617720736f6d657468696e670000000000000000006044820152606401610477565b6001600160a01b03831661176d5760405162461bcd60e51b8152602060048201526016602482015275135d5cdd081cdc1958da599e481c9958da5c1a595b9d60521b6044820152606401610477565b600061177883611a98565b60405163f3fef3a360e01b81526001600160a01b03821660048201526024810184905290915073777777c9898d384f785ee44acfe945efdff5f3e09063f3fef3a390604401600060405180830381600087803b1580156117d757600080fd5b505af11580156117eb573d6000803e3d6000fd5b5050604080516001600160a01b03858116825260208201879052871693507f2717ead6b9200dd235aad468c9809ea400fe33ac69b5bfaa6d3e90fc922b639892500160405180910390a26118496001600160a01b038416858461130b565b50505050565b8015806118d85750604051636eb1769f60e11b81523060048201526001600160a01b03838116602483015284169063dd62ed3e9060440160206040518083038186803b15801561189e57600080fd5b505afa1580156118b2573d6000803e3d6000fd5b505050506040513d601f19601f820116820180604052508101906118d69190611feb565b155b6119435760405162461bcd60e51b815260206004820152603660248201527f5361666545524332303a20617070726f76652066726f6d206e6f6e2d7a65726f60448201527520746f206e6f6e2d7a65726f20616c6c6f77616e636560501b6064820152608401610477565b6040516001600160a01b038316602482015260448101829052610d2990849063095ea7b360e01b90606401611337565b61199c6001600160a01b03831673777777c9898d384f785ee44acfe945efdff5f3e0600061184f565b61048a6001600160a01b03831673777777c9898d384f785ee44acfe945efdff5f3e060001961184f565b6000611a1b826040518060400160405280602081526020017f5361666545524332303a206c6f772d6c6576656c2063616c6c206661696c6564815250856001600160a01b0316611afa9092919063ffffffff16565b805190915015610d295780806020019051810190611a399190611fb0565b610d295760405162461bcd60e51b815260206004820152602a60248201527f5361666545524332303a204552433230206f7065726174696f6e20646964206e6044820152691bdd081cdd58d8d9595960b21b6064820152608401610477565b6001600160a01b03808216600090815260356020526040812054909116806107a15760405162461bcd60e51b81526020600482015260156024820152741c151bdad95b88191bd95cc81b9bdd08195e1a5cdd605a1b6044820152606401610477565b6060611b098484600085611b13565b90505b9392505050565b606082471015611b745760405162461bcd60e51b815260206004820152602660248201527f416464726573733a20696e73756666696369656e742062616c616e636520666f6044820152651c8818d85b1b60d21b6064820152608401610477565b843b611bc25760405162461bcd60e51b815260206004820152601d60248201527f416464726573733a2063616c6c20746f206e6f6e2d636f6e74726163740000006044820152606401610477565b600080866001600160a01b03168587604051611bde9190612032565b60006040518083038185875af1925050503d8060008114611c1b576040519150601f19603f3d011682016040523d82523d6000602084013e611c20565b606091505b5091509150611c30828286611c3b565b979650505050505050565b60608315611c4a575081611b0c565b825115611c5a5782518084602001fd5b8160405162461bcd60e51b81526004016104779190612131565b828054828255906000526020600020908101928215611cc7579160200282015b82811115611cc75781546001600160a01b0319166001600160a01b03843516178255602090920191600190910190611c94565b50611cd3929150611cd7565b5090565b5b80821115611cd35760008155600101611cd8565b80356001600160a01b0381168114611d0357600080fd5b919050565b60008083601f840112611d1a57600080fd5b50813567ffffffffffffffff811115611d3257600080fd5b6020830191508360208260051b8501011115611d4d57600080fd5b9250929050565b600060208284031215611d6657600080fd5b611b0c82611cec565b60008060408385031215611d8257600080fd5b611d8b83611cec565b9150611d9960208401611cec565b90509250929050565b60008060008060008060008060a0898b031215611dbe57600080fd5b611dc789611cec565b9750611dd560208a01611cec565b9650604089013567ffffffffffffffff80821115611df257600080fd5b611dfe8c838d01611d08565b909850965060608b0135915080821115611e1757600080fd5b611e238c838d01611d08565b909650945060808b0135915080821115611e3c57600080fd5b50611e498b828c01611d08565b999c989b5096995094979396929594505050565b600080600060608486031215611e7257600080fd5b611e7b84611cec565b9250611e8960208501611cec565b9150604084013590509250925092565b60008060008060008060006080888a031215611eb457600080fd5b611ebd88611cec565b9650602088013567ffffffffffffffff80821115611eda57600080fd5b611ee68b838c01611d08565b909850965060408a0135915080821115611eff57600080fd5b611f0b8b838c01611d08565b909650945060608a0135915080821115611f2457600080fd5b50611f318a828b01611d08565b989b979a50959850939692959293505050565b60008060408385031215611f5757600080fd5b611f6083611cec565b946020939093013593505050565b60008060208385031215611f8157600080fd5b823567ffffffffffffffff811115611f9857600080fd5b611fa485828601611d08565b90969095509350505050565b600060208284031215611fc257600080fd5b81518015158114611b0c57600080fd5b600060208284031215611fe457600080fd5b5035919050565b600060208284031215611ffd57600080fd5b5051919050565b60008060006060848603121561201957600080fd5b8351925060208401519150604084015190509250925092565b6000825161204481846020870161225f565b9190910192915050565b6020808252825182820181905260009190848201906040850190845b8181101561208f5783516001600160a01b03168352928401929184019160010161206a565b50909695505050505050565b6000604082016040835280865480835260608501915087600052602092508260002060005b828110156120e55781546001600160a01b0316845292840192600191820191016120c0565b505050838103828501528481528590820160005b86811015612125576001600160a01b0361211284611cec565b16825291830191908301906001016120f9565b50979650505050505050565b602081526000825180602084015261215081604085016020870161225f565b601f01601f19169190910160400192915050565b60208082526017908201527f43616c6c6572206973206e6f7420746865205661756c74000000000000000000604082015260600190565b6020808252601a908201527f43616c6c6572206973206e6f742074686520476f7665726e6f72000000000000604082015260600190565b6020808252602e908201527f496e697469616c697a61626c653a20636f6e747261637420697320616c72656160408201526d191e481a5b9a5d1a585b1a5e995960921b606082015260800190565b6020808252600e908201526d1499595b9d1c985b9d0818d85b1b60921b604082015260600190565b60008282101561225a5761225a6122a6565b500390565b60005b8381101561227a578181015183820152602001612262565b838111156118495750506000910152565b600060001982141561229f5761229f6122a6565b5060010190565b634e487b7160e01b600052601160045260246000fd5b634e487b7160e01b600052603160045260246000fd5b634e487b7160e01b600052603260045260246000fdfe53bf423e48ed90e97d02ab0ebab13b2a235a6bfbe9c321847d5c175333ac45357bea13895fa79d2831e0a9e28edede30099005a50d652d8957cf8a607ee6ca4aa26469706673582212203b7f8da072583806977c41fbeb03501c8bf320136af51be6e39b26dcccee1afe64736f6c634300080700337bea13895fa79d2831e0a9e28edede30099005a50d652d8957cf8a607ee6ca4a",
  "devdoc": {
    "kind": "dev",
    "methods": {
      "checkBalance(address)": {
        "details": "Return total value of an asset held in the platform",
        "params": {
          "_asset": "Address of the asset"
        },
        "returns": {
          "balance": "   Total value of the asset in the platform"
        }
      },
      "claimGovernance()": {
        "details": "Claim Governance of the contract to a new account (`newGovernor`). Can only be called by the new Governor."
      },
      "collectRewardTokens()": {
        "details": "Collect accumulated rewards and send them to Harvester."
      },
      "deposit(address,uint256)": {
        "details": "Deposit asset into Morpho",
        "params": {
          "_amount": "Amount of asset to deposit",
          "_asset": "Address of asset to deposit"
        }
      },
      "depositAll()": {
        "details": "Deposit the entire balance of any supported asset into Morpho"
      },
      "getPendingRewards()": {
        "details": "Get the amount of rewards pending to be collected from the protocol"
      },
      "getRewardTokenAddresses()": {
        "details": "Get the reward token addresses.",
        "returns": {
          "_0": "address[] the reward token addresses."
        }
      },
      "governor()": {
        "details": "Returns the address of the current Governor."
      },
      "initialize(address,address,address[],address[],address[])": {
        "details": "Internal initialize function, to set up initial internal state",
        "params": {
          "_assets": "Addresses of initial supported assets",
          "_pTokens": "Platform Token corresponding addresses",
          "_platformAddress": "Generic platform address",
          "_rewardTokenAddresses": "Address of reward token for platform",
          "_vaultAddress": "Address of the Vault"
        }
      },
      "initialize(address,address[],address[],address[])": {
        "details": "Initialize function, to set up initial internal state",
        "params": {
          "_assets": "Addresses of initial supported assets",
          "_pTokens": "Platform Token corresponding addresses",
          "_rewardTokenAddresses": "Address of reward token for platform",
          "_vaultAddress": "Address of the Vault"
        }
      },
      "isGovernor()": {
        "details": "Returns true if the caller is the current Governor."
      },
      "removePToken(uint256)": {
        "details": "Remove a supported asset by passing its index.      This method can only be called by the system Governor",
        "params": {
          "_assetIndex": "Index of the asset to be removed"
        }
      },
      "safeApproveAllTokens()": {
        "details": "Approve the spending of all assets by main Morpho contract,      if for some reason is it necessary."
      },
      "setHarvesterAddress(address)": {
        "details": "Set the reward token addresses.",
        "params": {
          "_harvesterAddress": "Address of the harvester"
        }
      },
      "setPTokenAddress(address,address)": {
        "details": "Provide support for asset by passing its pToken address.      This method can only be called by the system Governor",
        "params": {
          "_asset": "Address for the asset",
          "_pToken": "Address for the corresponding platform token"
        }
      },
      "setRewardTokenAddresses(address[])": {
        "details": "Set the reward token addresses.",
        "params": {
          "_rewardTokenAddresses": "Address array of the reward token"
        }
      },
      "supportsAsset(address)": {
        "details": "Retuns bool indicating whether asset is supported by strategy",
        "params": {
          "_asset": "Address of the asset"
        }
      },
      "transferGovernance(address)": {
        "details": "Transfers Governance of the contract to a new account (`newGovernor`). Can only be called by the current Governor. Must be claimed for this to complete",
        "params": {
          "_newGovernor": "Address of the new Governor"
        }
      },
      "transferToken(address,uint256)": {
        "details": "Transfer token to governor. Intended for recovering tokens stuck in      strategy contracts, i.e. mistaken sends.",
        "params": {
          "_amount": "Amount of the asset to transfer",
          "_asset": "Address for the asset"
        }
      },
      "withdraw(address,address,uint256)": {
        "details": "Withdraw asset from Morpho",
        "params": {
          "_amount": "Amount of asset to withdraw",
          "_asset": "Address of asset to withdraw",
          "_recipient": "Address to receive withdrawn asset"
        }
      },
      "withdrawAll()": {
        "details": "Remove all assets from platform and send them to Vault contract."
      }
    },
    "version": 1
  },
  "userdoc": {
    "kind": "user",
    "methods": {},
    "version": 1
  },
  "storageLayout": {
    "storage": [
      {
        "astId": 23171,
        "contract": "contracts/strategies/MorphoAaveStrategy.sol:MorphoAaveStrategy",
        "label": "initialized",
        "offset": 0,
        "slot": "0",
        "type": "t_bool"
      },
      {
        "astId": 23174,
        "contract": "contracts/strategies/MorphoAaveStrategy.sol:MorphoAaveStrategy",
        "label": "initializing",
        "offset": 1,
        "slot": "0",
        "type": "t_bool"
      },
      {
        "astId": 23214,
        "contract": "contracts/strategies/MorphoAaveStrategy.sol:MorphoAaveStrategy",
        "label": "______gap",
        "offset": 0,
        "slot": "1",
        "type": "t_array(t_uint256)50_storage"
      },
      {
        "astId": 23292,
        "contract": "contracts/strategies/MorphoAaveStrategy.sol:MorphoAaveStrategy",
        "label": "platformAddress",
        "offset": 0,
        "slot": "51",
        "type": "t_address"
      },
      {
        "astId": 23294,
        "contract": "contracts/strategies/MorphoAaveStrategy.sol:MorphoAaveStrategy",
        "label": "vaultAddress",
        "offset": 0,
        "slot": "52",
        "type": "t_address"
      },
      {
        "astId": 23298,
        "contract": "contracts/strategies/MorphoAaveStrategy.sol:MorphoAaveStrategy",
        "label": "assetToPToken",
        "offset": 0,
        "slot": "53",
        "type": "t_mapping(t_address,t_address)"
      },
      {
        "astId": 23301,
        "contract": "contracts/strategies/MorphoAaveStrategy.sol:MorphoAaveStrategy",
        "label": "assetsMapped",
        "offset": 0,
        "slot": "54",
        "type": "t_array(t_address)dyn_storage"
      },
      {
        "astId": 23303,
        "contract": "contracts/strategies/MorphoAaveStrategy.sol:MorphoAaveStrategy",
        "label": "_deprecated_rewardTokenAddress",
        "offset": 0,
        "slot": "55",
        "type": "t_address"
      },
      {
        "astId": 23305,
        "contract": "contracts/strategies/MorphoAaveStrategy.sol:MorphoAaveStrategy",
        "label": "_deprecated_rewardLiquidationThreshold",
        "offset": 0,
        "slot": "56",
        "type": "t_uint256"
      },
      {
        "astId": 23307,
        "contract": "contracts/strategies/MorphoAaveStrategy.sol:MorphoAaveStrategy",
        "label": "harvesterAddress",
        "offset": 0,
        "slot": "57",
        "type": "t_address"
      },
      {
        "astId": 23310,
        "contract": "contracts/strategies/MorphoAaveStrategy.sol:MorphoAaveStrategy",
        "label": "rewardTokenAddresses",
        "offset": 0,
        "slot": "58",
        "type": "t_array(t_address)dyn_storage"
      },
      {
        "astId": 23314,
        "contract": "contracts/strategies/MorphoAaveStrategy.sol:MorphoAaveStrategy",
        "label": "_reserved",
        "offset": 0,
        "slot": "59",
        "type": "t_array(t_int256)98_storage"
      }
    ],
    "types": {
      "t_address": {
        "encoding": "inplace",
        "label": "address",
        "numberOfBytes": "20"
      },
      "t_array(t_address)dyn_storage": {
        "base": "t_address",
        "encoding": "dynamic_array",
        "label": "address[]",
        "numberOfBytes": "32"
      },
      "t_array(t_int256)98_storage": {
        "base": "t_int256",
        "encoding": "inplace",
        "label": "int256[98]",
        "numberOfBytes": "3136"
      },
      "t_array(t_uint256)50_storage": {
        "base": "t_uint256",
        "encoding": "inplace",
        "label": "uint256[50]",
        "numberOfBytes": "1600"
      },
      "t_bool": {
        "encoding": "inplace",
        "label": "bool",
        "numberOfBytes": "1"
      },
      "t_int256": {
        "encoding": "inplace",
        "label": "int256",
        "numberOfBytes": "32"
      },
      "t_mapping(t_address,t_address)": {
        "encoding": "mapping",
        "key": "t_address",
        "label": "mapping(address => address)",
        "numberOfBytes": "32",
        "value": "t_address"
      },
      "t_uint256": {
        "encoding": "inplace",
        "label": "uint256",
        "numberOfBytes": "32"
      }
    }
  }
}