{
  "address": "0x5cC70898c47f73265BdE5b8BB9D37346d0726c09",
  "abi": [
    {
      "anonymous": false,
      "inputs": [
        {
          "indexed": true,
          "internalType": "address",
          "name": "_asset",
          "type": "address"
        },
        {
          "indexed": false,
          "internalType": "address",
          "name": "_pToken",
          "type": "address"
        },
        {
          "indexed": false,
          "internalType": "uint256",
          "name": "_amount",
          "type": "uint256"
        }
      ],
      "name": "Deposit",
      "type": "event"
    },
    {
      "anonymous": false,
      "inputs": [
        {
          "indexed": true,
          "internalType": "address",
          "name": "previousGovernor",
          "type": "address"
        },
        {
          "indexed": true,
          "internalType": "address",
          "name": "newGovernor",
          "type": "address"
        }
      ],
      "name": "GovernorshipTransferred",
      "type": "event"
    },
    {
      "anonymous": false,
      "inputs": [
        {
          "indexed": false,
          "internalType": "address",
          "name": "_oldHarvesterAddress",
          "type": "address"
        },
        {
          "indexed": false,
          "internalType": "address",
          "name": "_newHarvesterAddress",
          "type": "address"
        }
      ],
      "name": "HarvesterAddressesUpdated",
      "type": "event"
    },
    {
      "anonymous": false,
      "inputs": [
        {
          "indexed": true,
          "internalType": "address",
          "name": "_asset",
          "type": "address"
        },
        {
          "indexed": false,
          "internalType": "address",
          "name": "_pToken",
          "type": "address"
        }
      ],
      "name": "PTokenAdded",
      "type": "event"
    },
    {
      "anonymous": false,
      "inputs": [
        {
          "indexed": true,
          "internalType": "address",
          "name": "_asset",
          "type": "address"
        },
        {
          "indexed": false,
          "internalType": "address",
          "name": "_pToken",
          "type": "address"
        }
      ],
      "name": "PTokenRemoved",
      "type": "event"
    },
    {
      "anonymous": false,
      "inputs": [
        {
          "indexed": true,
          "internalType": "address",
          "name": "previousGovernor",
          "type": "address"
        },
        {
          "indexed": true,
          "internalType": "address",
          "name": "newGovernor",
          "type": "address"
        }
      ],
      "name": "PendingGovernorshipTransfer",
      "type": "event"
    },
    {
      "anonymous": false,
      "inputs": [
        {
          "indexed": false,
          "internalType": "address[]",
          "name": "_oldAddresses",
          "type": "address[]"
        },
        {
          "indexed": false,
          "internalType": "address[]",
          "name": "_newAddresses",
          "type": "address[]"
        }
      ],
      "name": "RewardTokenAddressesUpdated",
      "type": "event"
    },
    {
      "anonymous": false,
      "inputs": [
        {
          "indexed": false,
          "internalType": "address",
          "name": "recipient",
          "type": "address"
        },
        {
          "indexed": false,
          "internalType": "address",
          "name": "rewardToken",
          "type": "address"
        },
        {
          "indexed": false,
          "internalType": "uint256",
          "name": "amount",
          "type": "uint256"
        }
      ],
      "name": "RewardTokenCollected",
      "type": "event"
    },
    {
      "anonymous": false,
      "inputs": [
        {
          "indexed": true,
          "internalType": "address",
          "name": "_asset",
          "type": "address"
        },
        {
          "indexed": false,
          "internalType": "address",
          "name": "_pToken",
          "type": "address"
        },
        {
          "indexed": false,
          "internalType": "uint256",
          "name": "_amount",
          "type": "uint256"
        }
      ],
      "name": "Withdrawal",
      "type": "event"
    },
    {
      "inputs": [],
      "name": "LENS",
      "outputs": [
        {
          "internalType": "address",
          "name": "",
          "type": "address"
        }
      ],
      "stateMutability": "view",
      "type": "function"
    },
    {
      "inputs": [],
      "name": "MORPHO",
      "outputs": [
        {
          "internalType": "address",
          "name": "",
          "type": "address"
        }
      ],
      "stateMutability": "view",
      "type": "function"
    },
    {
      "inputs": [],
      "name": "_deprecated_rewardLiquidationThreshold",
      "outputs": [
        {
          "internalType": "uint256",
          "name": "",
          "type": "uint256"
        }
      ],
      "stateMutability": "view",
      "type": "function"
    },
    {
      "inputs": [],
      "name": "_deprecated_rewardTokenAddress",
      "outputs": [
        {
          "internalType": "address",
          "name": "",
          "type": "address"
        }
      ],
      "stateMutability": "view",
      "type": "function"
    },
    {
      "inputs": [
        {
          "internalType": "address",
          "name": "",
          "type": "address"
        }
      ],
      "name": "assetToPToken",
      "outputs": [
        {
          "internalType": "address",
          "name": "",
          "type": "address"
        }
      ],
      "stateMutability": "view",
      "type": "function"
    },
    {
      "inputs": [
        {
          "internalType": "address",
          "name": "_asset",
          "type": "address"
        }
      ],
      "name": "checkBalance",
      "outputs": [
        {
          "internalType": "uint256",
          "name": "balance",
          "type": "uint256"
        }
      ],
      "stateMutability": "view",
      "type": "function"
    },
    {
      "inputs": [],
      "name": "claimGovernance",
      "outputs": [],
      "stateMutability": "nonpayable",
      "type": "function"
    },
    {
      "inputs": [],
      "name": "collectRewardTokens",
      "outputs": [],
      "stateMutability": "nonpayable",
      "type": "function"
    },
    {
      "inputs": [
        {
          "internalType": "address",
          "name": "_asset",
          "type": "address"
        },
        {
          "internalType": "uint256",
          "name": "_amount",
          "type": "uint256"
        }
      ],
      "name": "deposit",
      "outputs": [],
      "stateMutability": "nonpayable",
      "type": "function"
    },
    {
      "inputs": [],
      "name": "depositAll",
      "outputs": [],
      "stateMutability": "nonpayable",
      "type": "function"
    },
    {
      "inputs": [],
      "name": "getPendingRewards",
      "outputs": [
        {
          "internalType": "uint256",
          "name": "balance",
          "type": "uint256"
        }
      ],
      "stateMutability": "view",
      "type": "function"
    },
    {
      "inputs": [],
      "name": "getRewardTokenAddresses",
      "outputs": [
        {
          "internalType": "address[]",
          "name": "",
          "type": "address[]"
        }
      ],
      "stateMutability": "view",
      "type": "function"
    },
    {
      "inputs": [],
      "name": "governor",
      "outputs": [
        {
          "internalType": "address",
          "name": "",
          "type": "address"
        }
      ],
      "stateMutability": "view",
      "type": "function"
    },
    {
      "inputs": [],
      "name": "harvesterAddress",
      "outputs": [
        {
          "internalType": "address",
          "name": "",
          "type": "address"
        }
      ],
      "stateMutability": "view",
      "type": "function"
    },
    {
      "inputs": [
        {
          "internalType": "address",
          "name": "_vaultAddress",
          "type": "address"
        },
        {
          "internalType": "address[]",
          "name": "_rewardTokenAddresses",
          "type": "address[]"
        },
        {
          "internalType": "address[]",
          "name": "_assets",
          "type": "address[]"
        },
        {
          "internalType": "address[]",
          "name": "_pTokens",
          "type": "address[]"
        }
      ],
      "name": "initialize",
      "outputs": [],
      "stateMutability": "nonpayable",
      "type": "function"
    },
    {
      "inputs": [
        {
          "internalType": "address",
          "name": "_platformAddress",
          "type": "address"
        },
        {
          "internalType": "address",
          "name": "_vaultAddress",
          "type": "address"
        },
        {
          "internalType": "address[]",
          "name": "_rewardTokenAddresses",
          "type": "address[]"
        },
        {
          "internalType": "address[]",
          "name": "_assets",
          "type": "address[]"
        },
        {
          "internalType": "address[]",
          "name": "_pTokens",
          "type": "address[]"
        }
      ],
      "name": "initialize",
      "outputs": [],
      "stateMutability": "nonpayable",
      "type": "function"
    },
    {
      "inputs": [],
      "name": "isGovernor",
      "outputs": [
        {
          "internalType": "bool",
          "name": "",
          "type": "bool"
        }
      ],
      "stateMutability": "view",
      "type": "function"
    },
    {
      "inputs": [],
      "name": "platformAddress",
      "outputs": [
        {
          "internalType": "address",
          "name": "",
          "type": "address"
        }
      ],
      "stateMutability": "view",
      "type": "function"
    },
    {
      "inputs": [
        {
          "internalType": "uint256",
          "name": "_assetIndex",
          "type": "uint256"
        }
      ],
      "name": "removePToken",
      "outputs": [],
      "stateMutability": "nonpayable",
      "type": "function"
    },
    {
      "inputs": [
        {
          "internalType": "uint256",
          "name": "",
          "type": "uint256"
        }
      ],
      "name": "rewardTokenAddresses",
      "outputs": [
        {
          "internalType": "address",
          "name": "",
          "type": "address"
        }
      ],
      "stateMutability": "view",
      "type": "function"
    },
    {
      "inputs": [],
      "name": "safeApproveAllTokens",
      "outputs": [],
      "stateMutability": "nonpayable",
      "type": "function"
    },
    {
      "inputs": [
        {
          "internalType": "address",
          "name": "_harvesterAddress",
          "type": "address"
        }
      ],
      "name": "setHarvesterAddress",
      "outputs": [],
      "stateMutability": "nonpayable",
      "type": "function"
    },
    {
      "inputs": [
        {
          "internalType": "address",
          "name": "_asset",
          "type": "address"
        },
        {
          "internalType": "address",
          "name": "_pToken",
          "type": "address"
        }
      ],
      "name": "setPTokenAddress",
      "outputs": [],
      "stateMutability": "nonpayable",
      "type": "function"
    },
    {
      "inputs": [
        {
          "internalType": "address[]",
          "name": "_rewardTokenAddresses",
          "type": "address[]"
        }
      ],
      "name": "setRewardTokenAddresses",
      "outputs": [],
      "stateMutability": "nonpayable",
      "type": "function"
    },
    {
      "inputs": [
        {
          "internalType": "address",
          "name": "_asset",
          "type": "address"
        }
      ],
      "name": "supportsAsset",
      "outputs": [
        {
          "internalType": "bool",
          "name": "",
          "type": "bool"
        }
      ],
      "stateMutability": "view",
      "type": "function"
    },
    {
      "inputs": [
        {
          "internalType": "address",
          "name": "_newGovernor",
          "type": "address"
        }
      ],
      "name": "transferGovernance",
      "outputs": [],
      "stateMutability": "nonpayable",
      "type": "function"
    },
    {
      "inputs": [
        {
          "internalType": "address",
          "name": "_asset",
          "type": "address"
        },
        {
          "internalType": "uint256",
          "name": "_amount",
          "type": "uint256"
        }
      ],
      "name": "transferToken",
      "outputs": [],
      "stateMutability": "nonpayable",
      "type": "function"
    },
    {
      "inputs": [],
      "name": "vaultAddress",
      "outputs": [
        {
          "internalType": "address",
          "name": "",
          "type": "address"
        }
      ],
      "stateMutability": "view",
      "type": "function"
    },
    {
      "inputs": [
        {
          "internalType": "address",
          "name": "_recipient",
          "type": "address"
        },
        {
          "internalType": "address",
          "name": "_asset",
          "type": "address"
        },
        {
          "internalType": "uint256",
          "name": "_amount",
          "type": "uint256"
        }
      ],
      "name": "withdraw",
      "outputs": [],
      "stateMutability": "nonpayable",
      "type": "function"
    },
    {
      "inputs": [],
      "name": "withdrawAll",
      "outputs": [],
      "stateMutability": "nonpayable",
      "type": "function"
    }
  ],
  "transactionHash": "0x9cba3074b20e8b2a3821b32c5cee7cf5c6d33e2be27570c65097d8c88f9d64ad",
  "args": [],
  "solcInputHash": "45f21ed8322beac01d1e19cec9c24934",
  "bytecode": "0x608060405234801561001057600080fd5b506100273360008051602061288e83398151915255565b60008051602061288e833981519152546040516001600160a01b03909116906000907fc7c0c772add429241571afb3805861fb3cfa2af374534088b76cdb4325a87e9a908290a36128118061007d6000396000f3fe608060405234801561001057600080fd5b50600436106101da5760003560e01c8063853828b611610104578063c7af3352116100a2578063dbe55e5611610071578063dbe55e56146103fe578063de5f626814610411578063f6ca71b014610419578063f817bc631461042e57600080fd5b8063c7af3352146103c8578063d38bfff4146103d0578063d9621f9e146103e3578063d9caed12146103eb57600080fd5b806396d538bb116100de57806396d538bb1461035c578063aa388af61461036f578063ad1728cb146103ad578063c2e1e3f4146103b557600080fd5b8063853828b61461032e5780639136616a146103365780639688d2fc1461034957600080fd5b80633acb56241161017c5780635d36b1901161014b5780635d36b190146102df5780635f515226146102e757806367c7066c146103085780637b2d9b2c1461031b57600080fd5b80633acb562414610296578063430bf08a146102b157806347e7ef24146102c45780635a063f63146102d757600080fd5b80631072cbea116101b85780631072cbea1461024257806318a4619a146102555780632e655201146102705780632f26b1de1461028357600080fd5b80630c340a24146101df5780630ed57b3a146102045780630fc3b4c414610219575b600080fd5b6101e7610437565b6040516001600160a01b0390911681526020015b60405180910390f35b6102176102123660046121b4565b610454565b005b6101e7610227366004612199565b6035602052600090815260409020546001600160a01b031681565b610217610250366004612389565b61048f565b6101e773930f1b46e1d081ec1524efd95752be3ece51ef6781565b6037546101e7906001600160a01b031681565b6102176102913660046122de565b6104cf565b6101e7738888882f8f843896699869179fb6e4f7e3b5888881565b6034546101e7906001600160a01b031681565b6102176102d2366004612389565b6105eb565b61021761065e565b610217610996565b6102fa6102f5366004612199565b610a3c565b6040519081526020016101fb565b6039546101e7906001600160a01b031681565b6101e7610329366004612417565b610a4d565b610217610a77565b610217610344366004612417565b610bd9565b6102176103573660046121e7565b610da4565b61021761036a3660046123b3565b610ead565b61039d61037d366004612199565b6001600160a01b0390811660009081526035602052604090205416151590565b60405190151581526020016101fb565b610217610fd3565b6102176103c3366004612199565b6110ce565b61039d61114d565b6102176103de366004612199565b61117e565b6102fa611222565b6102176103f93660046122a2565b61138d565b6033546101e7906001600160a01b031681565b610217611402565b610421611554565b6040516101fb91906124d7565b6102fa60385481565b600061044f6000805160206127bc8339815191525490565b905090565b61045c61114d565b6104815760405162461bcd60e51b815260040161047890612638565b60405180910390fd5b61048b82826115b6565b5050565b61049761114d565b6104b35760405162461bcd60e51b815260040161047890612638565b61048b6104be610437565b6001600160a01b038416908361171b565b6104d761114d565b6104f35760405162461bcd60e51b815260040161047890612638565b600054610100900460ff168061050c575060005460ff16155b6105285760405162461bcd60e51b81526004016104789061266f565b600054610100900460ff1615801561054a576000805461ffff19166101011790555b6105cf738888882f8f843896699869179fb6e4f7e3b5888889898989898080602002602001604051908101604052809392919081815260200183836020028082843760009201919091525050604080516020808d0282810182019093528c82529093508c92508b91829185019084908082843760009201919091525061177e92505050565b80156105e1576000805461ff00191690555b5050505050505050565b6034546001600160a01b031633146106155760405162461bcd60e51b815260040161047890612601565b60008051602061279c833981519152805460028114156106475760405162461bcd60e51b8152600401610478906126bd565b60028255610655848461185d565b50600190555050565b6039546001600160a01b031633146106b85760405162461bcd60e51b815260206004820152601b60248201527f43616c6c6572206973206e6f74207468652048617276657374657200000000006044820152606401610478565b60008051602061279c833981519152805460028114156106ea5760405162461bcd60e51b8152600401610478906126bd565b6002825560365460009067ffffffffffffffff81111561070c5761070c612785565b604051908082528060200260200182016040528015610735578160200160208202803683370190505b50905060005b6036548110156107c757603560006036838154811061075c5761075c61276f565b60009182526020808320909101546001600160a01b039081168452908301939093526040909101902054835191169083908390811061079d5761079d61276f565b6001600160a01b0390921660209283029190910190910152806107bf81612728565b91505061073b565b50604051630a4711e760e11b8152738888882f8f843896699869179fb6e4f7e3b588889063148e23ce90610802908490600090600401612514565b602060405180830381600087803b15801561081c57600080fd5b505af1158015610830573d6000803e3d6000fd5b505050506040513d601f19601f820116820180604052508101906108549190612430565b506000603a60008154811061086b5761086b61276f565b60009182526020822001546040516370a0823160e01b81523060048201526001600160a01b03909116925082906370a082319060240160206040518083038186803b1580156108b957600080fd5b505afa1580156108cd573d6000803e3d6000fd5b505050506040513d601f19601f820116820180604052508101906108f19190612430565b603954603a80549293507ff6c07a063ed4e63808eb8da7112d46dbcd38de2b40a73dbcc9353c5a94c72353926001600160a01b03909216916000906109385761093861276f565b60009182526020918290200154604080516001600160a01b0394851681529390911691830191909152810183905260600160405180910390a160395461098b906001600160a01b0384811691168361171b565b505050600182555050565b7f44c4d30b2eaad5130ad70c3ba6972730566f3e6359ab83e800d905c61b1c51db546001600160a01b0316336001600160a01b031614610a315760405162461bcd60e51b815260206004820152603060248201527f4f6e6c79207468652070656e64696e6720476f7665726e6f722063616e20636f60448201526f6d706c6574652074686520636c61696d60801b6064820152608401610478565b610a3a33611988565b565b6000610a4782611a4c565b92915050565b603a8181548110610a5d57600080fd5b6000918252602090912001546001600160a01b0316905081565b6034546001600160a01b0316331480610aa85750610a93610437565b6001600160a01b0316336001600160a01b0316145b610b005760405162461bcd60e51b815260206004820152602360248201527f43616c6c6572206973206e6f7420746865205661756c74206f7220476f7665726044820152623737b960e91b6064820152608401610478565b60008051602061279c83398151915280546002811415610b325760405162461bcd60e51b8152600401610478906126bd565b6002825560005b603654811015610bd1576000610b7560368381548110610b5b57610b5b61276f565b6000918252602090912001546001600160a01b0316611a4c565b90508015610bbe5760345460368054610bbe926001600160a01b0316919085908110610ba357610ba361276f565b6000918252602090912001546001600160a01b031683611afc565b5080610bc981612728565b915050610b39565b505060019055565b610be161114d565b610bfd5760405162461bcd60e51b815260040161047890612638565b6036548110610c3e5760405162461bcd60e51b815260206004820152600d60248201526c092dcecc2d8d2c840d2dcc8caf609b1b6044820152606401610478565b600060368281548110610c5357610c5361276f565b60009182526020808320909101546001600160a01b03908116808452603590925260409092205460365491935090911690610c90906001906126e5565b831015610d125760368054610ca7906001906126e5565b81548110610cb757610cb761276f565b600091825260209091200154603680546001600160a01b039092169185908110610ce357610ce361276f565b9060005260206000200160006101000a8154816001600160a01b0302191690836001600160a01b031602179055505b6036805480610d2357610d23612759565b60008281526020808220600019908401810180546001600160a01b031990811690915593019093556001600160a01b038581168083526035855260409283902080549094169093559051908416815290917f16b7600acff27e39a8a96056b3d533045298de927507f5c1d97e4accde60488c910160405180910390a2505050565b610dac61114d565b610dc85760405162461bcd60e51b815260040161047890612638565b600054610100900460ff1680610de1575060005460ff16155b610dfd5760405162461bcd60e51b81526004016104789061266f565b600054610100900460ff16158015610e1f576000805461ffff19166101011790555b610e908989898989898080602002602001604051908101604052809392919081815260200183836020028082843760009201919091525050604080516020808d0282810182019093528c82529093508c92508b91829185019084908082843760009201919091525061177e92505050565b8015610ea2576000805461ff00191690555b505050505050505050565b610eb561114d565b610ed15760405162461bcd60e51b815260040161047890612638565b60005b81811015610f85576000838383818110610ef057610ef061276f565b9050602002016020810190610f059190612199565b6001600160a01b03161415610f735760405162461bcd60e51b815260206004820152602e60248201527f43616e206e6f742073657420616e20656d70747920616464726573732061732060448201526d30903932bbb0b932103a37b5b2b760911b6064820152608401610478565b80610f7d81612728565b915050610ed4565b507f04c0b9649497d316554306e53678d5f5f5dbc3a06f97dec13ff4cfe98b986bbc603a8383604051610fba93929190612538565b60405180910390a1610fce603a83836120b9565b505050565b610fdb61114d565b610ff75760405162461bcd60e51b815260040161047890612638565b60008051602061279c833981519152805460028114156110295760405162461bcd60e51b8152600401610478906126bd565b6002825560365460005b818110156110c4576000603682815481106110505761105061276f565b60009182526020822001546001600160a01b03169150611087908290738888882f8f843896699869179fb6e4f7e3b5888890611c94565b6110b16001600160a01b038216738888882f8f843896699869179fb6e4f7e3b58888600019611c94565b50806110bc81612728565b915050611033565b5050600182555050565b6110d661114d565b6110f25760405162461bcd60e51b815260040161047890612638565b603980546001600160a01b0319166001600160a01b0383169081179091556040805182815260208101929092527fe48386b84419f4d36e0f96c10cc3510b6fb1a33795620c5098b22472bbe90796910160405180910390a150565b60006111656000805160206127bc8339815191525490565b6001600160a01b0316336001600160a01b031614905090565b61118661114d565b6111a25760405162461bcd60e51b815260040161047890612638565b6111ca817f44c4d30b2eaad5130ad70c3ba6972730566f3e6359ab83e800d905c61b1c51db55565b806001600160a01b03166111ea6000805160206127bc8339815191525490565b6001600160a01b03167fa39cc5eb22d0f34d8beaefee8a3f17cc229c1a1d1ef87a5ad47313487b1c4f0d60405160405180910390a350565b603654600090819067ffffffffffffffff81111561124257611242612785565b60405190808252806020026020018201604052801561126b578160200160208202803683370190505b50905060005b6036548110156112fd5760356000603683815481106112925761129261276f565b60009182526020808320909101546001600160a01b03908116845290830193909352604090910190205483519116908390839081106112d3576112d361276f565b6001600160a01b0390921660209283029190910190910152806112f581612728565b915050611271565b5060405163c11940b560e01b815273930f1b46e1d081ec1524efd95752be3ece51ef679063c11940b59061133790849030906004016124ea565b60206040518083038186803b15801561134f57600080fd5b505afa158015611363573d6000803e3d6000fd5b505050506040513d601f19601f820116820180604052508101906113879190612430565b91505090565b6034546001600160a01b031633146113b75760405162461bcd60e51b815260040161047890612601565b60008051602061279c833981519152805460028114156113e95760405162461bcd60e51b8152600401610478906126bd565b600282556113f8858585611afc565b5060019055505050565b6034546001600160a01b0316331461142c5760405162461bcd60e51b815260040161047890612601565b60008051602061279c8339815191528054600281141561145e5760405162461bcd60e51b8152600401610478906126bd565b6002825560005b603654811015610bd1576000603682815481106114845761148461276f565b6000918252602090912001546040516370a0823160e01b81523060048201526001600160a01b03909116906370a082319060240160206040518083038186803b1580156114d057600080fd5b505afa1580156114e4573d6000803e3d6000fd5b505050506040513d601f19601f820116820180604052508101906115089190612430565b9050801561154157611541603683815481106115265761152661276f565b6000918252602090912001546001600160a01b03168261185d565b508061154c81612728565b915050611465565b6060603a8054806020026020016040519081016040528092919081815260200182805480156115ac57602002820191906000526020600020905b81546001600160a01b0316815260019091019060200180831161158e575b5050505050905090565b6001600160a01b0382811660009081526035602052604090205416156116135760405162461bcd60e51b81526020600482015260126024820152711c151bdad95b88185b1c9958591e481cd95d60721b6044820152606401610478565b6001600160a01b0382161580159061163357506001600160a01b03811615155b6116735760405162461bcd60e51b8152602060048201526011602482015270496e76616c69642061646472657373657360781b6044820152606401610478565b6001600160a01b03828116600081815260356020908152604080832080549587166001600160a01b031996871681179091556036805460018101825594527f4a11f94e20a93c79f6ec743a1954ec4fc2c08429ae2122118bf234b2185c81b890930180549095168417909455925190815290917fef6485b84315f9b1483beffa32aae9a0596890395e3d7521f1c5fbb51790e765910160405180910390a261048b8282611db8565b6040516001600160a01b038316602482015260448101829052610fce90849063a9059cbb60e01b906064015b60408051601f198184030181529190526020810180516001600160e01b03166001600160e01b031990931692909217909152611e0b565b603380546001600160a01b038089166001600160a01b03199283161790925560348054928816929091169190911790556117ba603a85856120b9565b508151815181146118045760405162461bcd60e51b8152602060048201526014602482015273496e76616c696420696e7075742061727261797360601b6044820152606401610478565b60005b818110156105e15761184b8482815181106118245761182461276f565b602002602001015184838151811061183e5761183e61276f565b60200260200101516115b6565b8061185581612728565b915050611807565b600081116118a65760405162461bcd60e51b81526020600482015260166024820152754d757374206465706f73697420736f6d657468696e6760501b6044820152606401610478565b738888882f8f843896699869179fb6e4f7e3b58888630c0a769b6118c984611edd565b6040516001600160e01b031960e084901b1681526001600160a01b03909116600482015230602482015260448101849052606401600060405180830381600087803b15801561191757600080fd5b505af115801561192b573d6000803e3d6000fd5b50505050816001600160a01b03167f5548c837ab068cf56a2c2479df0882a4922fd203edb7517321831d95078c5f6261196384611edd565b604080516001600160a01b039092168252602082018590520160405180910390a25050565b6001600160a01b0381166119de5760405162461bcd60e51b815260206004820152601a60248201527f4e657720476f7665726e6f7220697320616464726573732830290000000000006044820152606401610478565b806001600160a01b03166119fe6000805160206127bc8339815191525490565b6001600160a01b03167fc7c0c772add429241571afb3805861fb3cfa2af374534088b76cdb4325a87e9a60405160405180910390a3611a49816000805160206127bc83398151915255565b50565b6001600160a01b0381811660009081526035602052604080822054905163a480b7ed60e01b8152921660048301819052306024840152909173930f1b46e1d081ec1524efd95752be3ece51ef679063a480b7ed9060440160606040518083038186803b158015611abb57600080fd5b505afa158015611acf573d6000803e3d6000fd5b505050506040513d601f19601f82011682018060405250810190611af39190612449565b95945050505050565b60008111611b4c5760405162461bcd60e51b815260206004820152601760248201527f4d75737420776974686472617720736f6d657468696e670000000000000000006044820152606401610478565b6001600160a01b038316611b9b5760405162461bcd60e51b8152602060048201526016602482015275135d5cdd081cdc1958da599e481c9958da5c1a595b9d60521b6044820152606401610478565b6001600160a01b038281166000908152603560205260409081902054905163f3fef3a360e01b81529116600482018190526024820183905290738888882f8f843896699869179fb6e4f7e3b588889063f3fef3a390604401600060405180830381600087803b158015611c0d57600080fd5b505af1158015611c21573d6000803e3d6000fd5b50505050826001600160a01b03167f2717ead6b9200dd235aad468c9809ea400fe33ac69b5bfaa6d3e90fc922b6398611c5985611edd565b604080516001600160a01b039092168252602082018690520160405180910390a2611c8e6001600160a01b038416858461171b565b50505050565b801580611d1d5750604051636eb1769f60e11b81523060048201526001600160a01b03838116602483015284169063dd62ed3e9060440160206040518083038186803b158015611ce357600080fd5b505afa158015611cf7573d6000803e3d6000fd5b505050506040513d601f19601f82011682018060405250810190611d1b9190612430565b155b611d885760405162461bcd60e51b815260206004820152603660248201527f5361666545524332303a20617070726f76652066726f6d206e6f6e2d7a65726f60448201527520746f206e6f6e2d7a65726f20616c6c6f77616e636560501b6064820152608401610478565b6040516001600160a01b038316602482015260448101829052610fce90849063095ea7b360e01b90606401611747565b611de16001600160a01b038316738888882f8f843896699869179fb6e4f7e3b588886000611c94565b61048b6001600160a01b038316738888882f8f843896699869179fb6e4f7e3b58888600019611c94565b6000611e60826040518060400160405280602081526020017f5361666545524332303a206c6f772d6c6576656c2063616c6c206661696c6564815250856001600160a01b0316611f3f9092919063ffffffff16565b805190915015610fce5780806020019051810190611e7e91906123f5565b610fce5760405162461bcd60e51b815260206004820152602a60248201527f5361666545524332303a204552433230206f7065726174696f6e20646964206e6044820152691bdd081cdd58d8d9595960b21b6064820152608401610478565b6001600160a01b0380821660009081526035602052604081205490911680610a475760405162461bcd60e51b815260206004820152601560248201527418d51bdad95b88191bd95cc81b9bdd08195e1a5cdd605a1b6044820152606401610478565b6060611f4e8484600085611f58565b90505b9392505050565b606082471015611fb95760405162461bcd60e51b815260206004820152602660248201527f416464726573733a20696e73756666696369656e742062616c616e636520666f6044820152651c8818d85b1b60d21b6064820152608401610478565b843b6120075760405162461bcd60e51b815260206004820152601d60248201527f416464726573733a2063616c6c20746f206e6f6e2d636f6e74726163740000006044820152606401610478565b600080866001600160a01b0316858760405161202391906124bb565b60006040518083038185875af1925050503d8060008114612060576040519150601f19603f3d011682016040523d82523d6000602084013e612065565b606091505b5091509150612075828286612080565b979650505050505050565b6060831561208f575081611f51565b82511561209f5782518084602001fd5b8160405162461bcd60e51b815260040161047891906125ce565b82805482825590600052602060002090810192821561210c579160200282015b8281111561210c5781546001600160a01b0319166001600160a01b038435161782556020909201916001909101906120d9565b5061211892915061211c565b5090565b5b80821115612118576000815560010161211d565b80356001600160a01b038116811461214857600080fd5b919050565b60008083601f84011261215f57600080fd5b50813567ffffffffffffffff81111561217757600080fd5b6020830191508360208260051b850101111561219257600080fd5b9250929050565b6000602082840312156121ab57600080fd5b611f5182612131565b600080604083850312156121c757600080fd5b6121d083612131565b91506121de60208401612131565b90509250929050565b60008060008060008060008060a0898b03121561220357600080fd5b61220c89612131565b975061221a60208a01612131565b9650604089013567ffffffffffffffff8082111561223757600080fd5b6122438c838d0161214d565b909850965060608b013591508082111561225c57600080fd5b6122688c838d0161214d565b909650945060808b013591508082111561228157600080fd5b5061228e8b828c0161214d565b999c989b5096995094979396929594505050565b6000806000606084860312156122b757600080fd5b6122c084612131565b92506122ce60208501612131565b9150604084013590509250925092565b60008060008060008060006080888a0312156122f957600080fd5b61230288612131565b9650602088013567ffffffffffffffff8082111561231f57600080fd5b61232b8b838c0161214d565b909850965060408a013591508082111561234457600080fd5b6123508b838c0161214d565b909650945060608a013591508082111561236957600080fd5b506123768a828b0161214d565b989b979a50959850939692959293505050565b6000806040838503121561239c57600080fd5b6123a583612131565b946020939093013593505050565b600080602083850312156123c657600080fd5b823567ffffffffffffffff8111156123dd57600080fd5b6123e98582860161214d565b90969095509350505050565b60006020828403121561240757600080fd5b81518015158114611f5157600080fd5b60006020828403121561242957600080fd5b5035919050565b60006020828403121561244257600080fd5b5051919050565b60008060006060848603121561245e57600080fd5b8351925060208401519150604084015190509250925092565b600081518084526020808501945080840160005b838110156124b05781516001600160a01b03168752958201959082019060010161248b565b509495945050505050565b600082516124cd8184602087016126fc565b9190910192915050565b602081526000611f516020830184612477565b6040815260006124fd6040830185612477565b905060018060a01b03831660208301529392505050565b6040815260006125276040830185612477565b905082151560208301529392505050565b6000604082016040835280865480835260608501915087600052602092508260002060005b828110156125825781546001600160a01b03168452928401926001918201910161255d565b505050838103828501528481528590820160005b868110156125c2576001600160a01b036125af84612131565b1682529183019190830190600101612596565b50979650505050505050565b60208152600082518060208401526125ed8160408501602087016126fc565b601f01601f19169190910160400192915050565b60208082526017908201527f43616c6c6572206973206e6f7420746865205661756c74000000000000000000604082015260600190565b6020808252601a908201527f43616c6c6572206973206e6f742074686520476f7665726e6f72000000000000604082015260600190565b6020808252602e908201527f496e697469616c697a61626c653a20636f6e747261637420697320616c72656160408201526d191e481a5b9a5d1a585b1a5e995960921b606082015260800190565b6020808252600e908201526d1499595b9d1c985b9d0818d85b1b60921b604082015260600190565b6000828210156126f7576126f7612743565b500390565b60005b838110156127175781810151838201526020016126ff565b83811115611c8e5750506000910152565b600060001982141561273c5761273c612743565b5060010190565b634e487b7160e01b600052601160045260246000fd5b634e487b7160e01b600052603160045260246000fd5b634e487b7160e01b600052603260045260246000fd5b634e487b7160e01b600052604160045260246000fdfe53bf423e48ed90e97d02ab0ebab13b2a235a6bfbe9c321847d5c175333ac45357bea13895fa79d2831e0a9e28edede30099005a50d652d8957cf8a607ee6ca4aa264697066735822122087d57a3fed5d4cb4d4582a2d6ab886b4fe38e7ced3ffc7cbb63013479db076d364736f6c634300080700337bea13895fa79d2831e0a9e28edede30099005a50d652d8957cf8a607ee6ca4a",
  "devdoc": {
    "kind": "dev",
    "methods": {
      "checkBalance(address)": {
        "details": "Return total value of an asset held in the platform",
        "params": {
          "_asset": "Address of the asset"
        },
        "returns": {
          "balance": "   Total value of the asset in the platform"
        }
      },
      "claimGovernance()": {
        "details": "Claim Governance of the contract to a new account (`newGovernor`). Can only be called by the new Governor."
      },
      "collectRewardTokens()": {
        "details": "Collect accumulated rewards and send them to Harvester."
      },
      "deposit(address,uint256)": {
        "details": "Deposit asset into Morpho",
        "params": {
          "_amount": "Amount of asset to deposit",
          "_asset": "Address of asset to deposit"
        }
      },
      "depositAll()": {
        "details": "Deposit the entire balance of any supported asset into Morpho"
      },
      "getPendingRewards()": {
        "details": "Get the amount of rewards pending to be collected from the protocol"
      },
      "getRewardTokenAddresses()": {
        "details": "Get the reward token addresses.",
        "returns": {
          "_0": "address[] the reward token addresses."
        }
      },
      "governor()": {
        "details": "Returns the address of the current Governor."
      },
      "initialize(address,address,address[],address[],address[])": {
        "details": "Internal initialize function, to set up initial internal state",
        "params": {
          "_assets": "Addresses of initial supported assets",
          "_pTokens": "Platform Token corresponding addresses",
          "_platformAddress": "Generic platform address",
          "_rewardTokenAddresses": "Address of reward token for platform",
          "_vaultAddress": "Address of the Vault"
        }
      },
      "initialize(address,address[],address[],address[])": {
        "details": "Initialize function, to set up initial internal state",
        "params": {
          "_assets": "Addresses of initial supported assets",
          "_pTokens": "Platform Token corresponding addresses",
          "_rewardTokenAddresses": "Address of reward token for platform",
          "_vaultAddress": "Address of the Vault"
        }
      },
      "isGovernor()": {
        "details": "Returns true if the caller is the current Governor."
      },
      "removePToken(uint256)": {
        "details": "Remove a supported asset by passing its index.      This method can only be called by the system Governor",
        "params": {
          "_assetIndex": "Index of the asset to be removed"
        }
      },
      "safeApproveAllTokens()": {
        "details": "Approve the spending of all assets by main Morpho contract,      if for some reason is it necessary."
      },
      "setHarvesterAddress(address)": {
        "details": "Set the reward token addresses.",
        "params": {
          "_harvesterAddress": "Address of the harvester"
        }
      },
      "setPTokenAddress(address,address)": {
        "details": "Provide support for asset by passing its pToken address.      This method can only be called by the system Governor",
        "params": {
          "_asset": "Address for the asset",
          "_pToken": "Address for the corresponding platform token"
        }
      },
      "setRewardTokenAddresses(address[])": {
        "details": "Set the reward token addresses.",
        "params": {
          "_rewardTokenAddresses": "Address array of the reward token"
        }
      },
      "supportsAsset(address)": {
        "details": "Retuns bool indicating whether asset is supported by strategy",
        "params": {
          "_asset": "Address of the asset"
        }
      },
      "transferGovernance(address)": {
        "details": "Transfers Governance of the contract to a new account (`newGovernor`). Can only be called by the current Governor. Must be claimed for this to complete",
        "params": {
          "_newGovernor": "Address of the new Governor"
        }
      },
      "transferToken(address,uint256)": {
        "details": "Transfer token to governor. Intended for recovering tokens stuck in      strategy contracts, i.e. mistaken sends.",
        "params": {
          "_amount": "Amount of the asset to transfer",
          "_asset": "Address for the asset"
        }
      },
      "withdraw(address,address,uint256)": {
        "details": "Withdraw asset from Morpho",
        "params": {
          "_amount": "Amount of asset to withdraw",
          "_asset": "Address of asset to withdraw",
          "_recipient": "Address to receive withdrawn asset"
        }
      },
      "withdrawAll()": {
        "details": "Remove all assets from platform and send them to Vault contract."
      }
    },
    "version": 1
  },
  "userdoc": {
    "kind": "user",
    "methods": {},
    "version": 1
  },
  "storageLayout": {
    "storage": [
      {
        "astId": 22574,
        "contract": "contracts/strategies/MorphoCompoundStrategy.sol:MorphoCompoundStrategy",
        "label": "initialized",
        "offset": 0,
        "slot": "0",
        "type": "t_bool"
      },
      {
        "astId": 22577,
        "contract": "contracts/strategies/MorphoCompoundStrategy.sol:MorphoCompoundStrategy",
        "label": "initializing",
        "offset": 1,
        "slot": "0",
        "type": "t_bool"
      },
      {
        "astId": 22617,
        "contract": "contracts/strategies/MorphoCompoundStrategy.sol:MorphoCompoundStrategy",
        "label": "______gap",
        "offset": 0,
        "slot": "1",
        "type": "t_array(t_uint256)50_storage"
      },
      {
        "astId": 22695,
        "contract": "contracts/strategies/MorphoCompoundStrategy.sol:MorphoCompoundStrategy",
        "label": "platformAddress",
        "offset": 0,
        "slot": "51",
        "type": "t_address"
      },
      {
        "astId": 22697,
        "contract": "contracts/strategies/MorphoCompoundStrategy.sol:MorphoCompoundStrategy",
        "label": "vaultAddress",
        "offset": 0,
        "slot": "52",
        "type": "t_address"
      },
      {
        "astId": 22701,
        "contract": "contracts/strategies/MorphoCompoundStrategy.sol:MorphoCompoundStrategy",
        "label": "assetToPToken",
        "offset": 0,
        "slot": "53",
        "type": "t_mapping(t_address,t_address)"
      },
      {
        "astId": 22704,
        "contract": "contracts/strategies/MorphoCompoundStrategy.sol:MorphoCompoundStrategy",
        "label": "assetsMapped",
        "offset": 0,
        "slot": "54",
        "type": "t_array(t_address)dyn_storage"
      },
      {
        "astId": 22706,
        "contract": "contracts/strategies/MorphoCompoundStrategy.sol:MorphoCompoundStrategy",
        "label": "_deprecated_rewardTokenAddress",
        "offset": 0,
        "slot": "55",
        "type": "t_address"
      },
      {
        "astId": 22708,
        "contract": "contracts/strategies/MorphoCompoundStrategy.sol:MorphoCompoundStrategy",
        "label": "_deprecated_rewardLiquidationThreshold",
        "offset": 0,
        "slot": "56",
        "type": "t_uint256"
      },
      {
        "astId": 22710,
        "contract": "contracts/strategies/MorphoCompoundStrategy.sol:MorphoCompoundStrategy",
        "label": "harvesterAddress",
        "offset": 0,
        "slot": "57",
        "type": "t_address"
      },
      {
        "astId": 22713,
        "contract": "contracts/strategies/MorphoCompoundStrategy.sol:MorphoCompoundStrategy",
        "label": "rewardTokenAddresses",
        "offset": 0,
        "slot": "58",
        "type": "t_array(t_address)dyn_storage"
      },
      {
        "astId": 22717,
        "contract": "contracts/strategies/MorphoCompoundStrategy.sol:MorphoCompoundStrategy",
        "label": "_reserved",
        "offset": 0,
        "slot": "59",
        "type": "t_array(t_int256)98_storage"
      },
      {
        "astId": 16030,
        "contract": "contracts/strategies/MorphoCompoundStrategy.sol:MorphoCompoundStrategy",
        "label": "__reserved",
        "offset": 0,
        "slot": "157",
        "type": "t_array(t_int256)50_storage"
      }
    ],
    "types": {
      "t_address": {
        "encoding": "inplace",
        "label": "address",
        "numberOfBytes": "20"
      },
      "t_array(t_address)dyn_storage": {
        "base": "t_address",
        "encoding": "dynamic_array",
        "label": "address[]",
        "numberOfBytes": "32"
      },
      "t_array(t_int256)50_storage": {
        "base": "t_int256",
        "encoding": "inplace",
        "label": "int256[50]",
        "numberOfBytes": "1600"
      },
      "t_array(t_int256)98_storage": {
        "base": "t_int256",
        "encoding": "inplace",
        "label": "int256[98]",
        "numberOfBytes": "3136"
      },
      "t_array(t_uint256)50_storage": {
        "base": "t_uint256",
        "encoding": "inplace",
        "label": "uint256[50]",
        "numberOfBytes": "1600"
      },
      "t_bool": {
        "encoding": "inplace",
        "label": "bool",
        "numberOfBytes": "1"
      },
      "t_int256": {
        "encoding": "inplace",
        "label": "int256",
        "numberOfBytes": "32"
      },
      "t_mapping(t_address,t_address)": {
        "encoding": "mapping",
        "key": "t_address",
        "label": "mapping(address => address)",
        "numberOfBytes": "32",
        "value": "t_address"
      },
      "t_uint256": {
        "encoding": "inplace",
        "label": "uint256",
        "numberOfBytes": "32"
      }
    }
  }
}