{
  "address": "0x49b60053869a0a7EF60242EA7a4d1317a8D51f54",
  "abi": [
    {
      "inputs": [
        {
          "internalType": "address",
          "name": "_weth",
          "type": "address"
        }
      ],
      "stateMutability": "nonpayable",
      "type": "constructor"
    },
    {
      "anonymous": false,
      "inputs": [
        {
          "indexed": false,
          "internalType": "uint256",
          "name": "_threshold",
          "type": "uint256"
        }
      ],
      "name": "AllocateThresholdUpdated",
      "type": "event"
    },
    {
      "anonymous": false,
      "inputs": [
        {
          "indexed": false,
          "internalType": "address",
          "name": "_asset",
          "type": "address"
        },
        {
          "indexed": false,
          "internalType": "address",
          "name": "_strategy",
          "type": "address"
        },
        {
          "indexed": false,
          "internalType": "uint256",
          "name": "_amount",
          "type": "uint256"
        }
      ],
      "name": "AssetAllocated",
      "type": "event"
    },
    {
      "anonymous": false,
      "inputs": [
        {
          "indexed": false,
          "internalType": "address",
          "name": "_asset",
          "type": "address"
        },
        {
          "indexed": false,
          "internalType": "address",
          "name": "_strategy",
          "type": "address"
        }
      ],
      "name": "AssetDefaultStrategyUpdated",
      "type": "event"
    },
    {
      "anonymous": false,
      "inputs": [
        {
          "indexed": false,
          "internalType": "address",
          "name": "_asset",
          "type": "address"
        }
      ],
      "name": "AssetRemoved",
      "type": "event"
    },
    {
      "anonymous": false,
      "inputs": [
        {
          "indexed": false,
          "internalType": "address",
          "name": "_asset",
          "type": "address"
        }
      ],
      "name": "AssetSupported",
      "type": "event"
    },
    {
      "anonymous": false,
      "inputs": [],
      "name": "CapitalPaused",
      "type": "event"
    },
    {
      "anonymous": false,
      "inputs": [],
      "name": "CapitalUnpaused",
      "type": "event"
    },
    {
      "anonymous": false,
      "inputs": [
        {
          "indexed": true,
          "internalType": "address",
          "name": "_dripper",
          "type": "address"
        }
      ],
      "name": "DripperChanged",
      "type": "event"
    },
    {
      "anonymous": false,
      "inputs": [
        {
          "indexed": true,
          "internalType": "address",
          "name": "previousGovernor",
          "type": "address"
        },
        {
          "indexed": true,
          "internalType": "address",
          "name": "newGovernor",
          "type": "address"
        }
      ],
      "name": "GovernorshipTransferred",
      "type": "event"
    },
    {
      "anonymous": false,
      "inputs": [
        {
          "indexed": false,
          "internalType": "uint256",
          "name": "maxSupplyDiff",
          "type": "uint256"
        }
      ],
      "name": "MaxSupplyDiffChanged",
      "type": "event"
    },
    {
      "anonymous": false,
      "inputs": [
        {
          "indexed": false,
          "internalType": "address",
          "name": "_addr",
          "type": "address"
        },
        {
          "indexed": false,
          "internalType": "uint256",
          "name": "_value",
          "type": "uint256"
        }
      ],
      "name": "Mint",
      "type": "event"
    },
    {
      "anonymous": false,
      "inputs": [
        {
          "indexed": false,
          "internalType": "uint256",
          "name": "_threshold",
          "type": "uint256"
        }
      ],
      "name": "NetOusdMintForStrategyThresholdChanged",
      "type": "event"
    },
    {
      "anonymous": false,
      "inputs": [
        {
          "indexed": false,
          "internalType": "address",
          "name": "_ousdMetaStrategy",
          "type": "address"
        }
      ],
      "name": "OusdMetaStrategyUpdated",
      "type": "event"
    },
    {
      "anonymous": false,
      "inputs": [
        {
          "indexed": true,
          "internalType": "address",
          "name": "previousGovernor",
          "type": "address"
        },
        {
          "indexed": true,
          "internalType": "address",
          "name": "newGovernor",
          "type": "address"
        }
      ],
      "name": "PendingGovernorshipTransfer",
      "type": "event"
    },
    {
      "anonymous": false,
      "inputs": [
        {
          "indexed": false,
          "internalType": "address",
          "name": "_priceProvider",
          "type": "address"
        }
      ],
      "name": "PriceProviderUpdated",
      "type": "event"
    },
    {
      "anonymous": false,
      "inputs": [],
      "name": "RebasePaused",
      "type": "event"
    },
    {
      "anonymous": false,
      "inputs": [
        {
          "indexed": false,
          "internalType": "uint256",
          "name": "_threshold",
          "type": "uint256"
        }
      ],
      "name": "RebaseThresholdUpdated",
      "type": "event"
    },
    {
      "anonymous": false,
      "inputs": [],
      "name": "RebaseUnpaused",
      "type": "event"
    },
    {
      "anonymous": false,
      "inputs": [
        {
          "indexed": false,
          "internalType": "address",
          "name": "_addr",
          "type": "address"
        },
        {
          "indexed": false,
          "internalType": "uint256",
          "name": "_value",
          "type": "uint256"
        }
      ],
      "name": "Redeem",
      "type": "event"
    },
    {
      "anonymous": false,
      "inputs": [
        {
          "indexed": false,
          "internalType": "uint256",
          "name": "_redeemFeeBps",
          "type": "uint256"
        }
      ],
      "name": "RedeemFeeUpdated",
      "type": "event"
    },
    {
      "anonymous": false,
      "inputs": [
        {
          "indexed": false,
          "internalType": "address",
          "name": "_address",
          "type": "address"
        }
      ],
      "name": "StrategistUpdated",
      "type": "event"
    },
    {
      "anonymous": false,
      "inputs": [
        {
          "indexed": true,
          "internalType": "address",
          "name": "strategy",
          "type": "address"
        }
      ],
      "name": "StrategyAddedToMintWhitelist",
      "type": "event"
    },
    {
      "anonymous": false,
      "inputs": [
        {
          "indexed": false,
          "internalType": "address",
          "name": "_addr",
          "type": "address"
        }
      ],
      "name": "StrategyApproved",
      "type": "event"
    },
    {
      "anonymous": false,
      "inputs": [
        {
          "indexed": false,
          "internalType": "address",
          "name": "_addr",
          "type": "address"
        }
      ],
      "name": "StrategyRemoved",
      "type": "event"
    },
    {
      "anonymous": false,
      "inputs": [
        {
          "indexed": true,
          "internalType": "address",
          "name": "strategy",
          "type": "address"
        }
      ],
      "name": "StrategyRemovedFromMintWhitelist",
      "type": "event"
    },
    {
      "anonymous": false,
      "inputs": [
        {
          "indexed": false,
          "internalType": "uint256",
          "name": "_basis",
          "type": "uint256"
        }
      ],
      "name": "SwapAllowedUndervalueChanged",
      "type": "event"
    },
    {
      "anonymous": false,
      "inputs": [
        {
          "indexed": false,
          "internalType": "address",
          "name": "_asset",
          "type": "address"
        },
        {
          "indexed": false,
          "internalType": "uint256",
          "name": "_basis",
          "type": "uint256"
        }
      ],
      "name": "SwapSlippageChanged",
      "type": "event"
    },
    {
      "anonymous": false,
      "inputs": [
        {
          "indexed": true,
          "internalType": "address",
          "name": "_fromAsset",
          "type": "address"
        },
        {
          "indexed": true,
          "internalType": "address",
          "name": "_toAsset",
          "type": "address"
        },
        {
          "indexed": false,
          "internalType": "uint256",
          "name": "_fromAssetAmount",
          "type": "uint256"
        },
        {
          "indexed": false,
          "internalType": "uint256",
          "name": "_toAssetAmount",
          "type": "uint256"
        }
      ],
      "name": "Swapped",
      "type": "event"
    },
    {
      "anonymous": false,
      "inputs": [
        {
          "indexed": false,
          "internalType": "address",
          "name": "_address",
          "type": "address"
        }
      ],
      "name": "SwapperChanged",
      "type": "event"
    },
    {
      "anonymous": false,
      "inputs": [
        {
          "indexed": false,
          "internalType": "address",
          "name": "_address",
          "type": "address"
        }
      ],
      "name": "TrusteeAddressChanged",
      "type": "event"
    },
    {
      "anonymous": false,
      "inputs": [
        {
          "indexed": false,
          "internalType": "uint256",
          "name": "_basis",
          "type": "uint256"
        }
      ],
      "name": "TrusteeFeeBpsChanged",
      "type": "event"
    },
    {
      "anonymous": false,
      "inputs": [
        {
          "indexed": false,
          "internalType": "uint256",
          "name": "_vaultBuffer",
          "type": "uint256"
        }
      ],
      "name": "VaultBufferUpdated",
      "type": "event"
    },
    {
      "anonymous": false,
      "inputs": [
        {
          "indexed": false,
          "internalType": "uint256",
          "name": "_claimable",
          "type": "uint256"
        },
        {
          "indexed": false,
          "internalType": "uint256",
          "name": "_newClaimable",
          "type": "uint256"
        }
      ],
      "name": "WithdrawalClaimable",
      "type": "event"
    },
    {
      "anonymous": false,
      "inputs": [
        {
          "indexed": true,
          "internalType": "address",
          "name": "_withdrawer",
          "type": "address"
        },
        {
          "indexed": true,
          "internalType": "uint256",
          "name": "_requestId",
          "type": "uint256"
        },
        {
          "indexed": false,
          "internalType": "uint256",
          "name": "_amount",
          "type": "uint256"
        }
      ],
      "name": "WithdrawalClaimed",
      "type": "event"
    },
    {
      "anonymous": false,
      "inputs": [
        {
          "indexed": true,
          "internalType": "address",
          "name": "_withdrawer",
          "type": "address"
        },
        {
          "indexed": true,
          "internalType": "uint256",
          "name": "_requestId",
          "type": "uint256"
        },
        {
          "indexed": false,
          "internalType": "uint256",
          "name": "_amount",
          "type": "uint256"
        },
        {
          "indexed": false,
          "internalType": "uint256",
          "name": "_queued",
          "type": "uint256"
        }
      ],
      "name": "WithdrawalRequested",
      "type": "event"
    },
    {
      "anonymous": false,
      "inputs": [
        {
          "indexed": false,
          "internalType": "address",
          "name": "_to",
          "type": "address"
        },
        {
          "indexed": false,
          "internalType": "uint256",
          "name": "_yield",
          "type": "uint256"
        },
        {
          "indexed": false,
          "internalType": "uint256",
          "name": "_fee",
          "type": "uint256"
        }
      ],
      "name": "YieldDistribution",
      "type": "event"
    },
    {
      "stateMutability": "nonpayable",
      "type": "fallback"
    },
    {
      "inputs": [],
      "name": "CLAIM_DELAY",
      "outputs": [
        {
          "internalType": "uint256",
          "name": "",
          "type": "uint256"
        }
      ],
      "stateMutability": "view",
      "type": "function"
    },
    {
      "inputs": [],
      "name": "addWithdrawalQueueLiquidity",
      "outputs": [],
      "stateMutability": "nonpayable",
      "type": "function"
    },
    {
      "inputs": [],
      "name": "allocate",
      "outputs": [],
      "stateMutability": "nonpayable",
      "type": "function"
    },
    {
      "inputs": [
        {
          "internalType": "address",
          "name": "",
          "type": "address"
        }
      ],
      "name": "assetDefaultStrategies",
      "outputs": [
        {
          "internalType": "address",
          "name": "",
          "type": "address"
        }
      ],
      "stateMutability": "view",
      "type": "function"
    },
    {
      "inputs": [],
      "name": "autoAllocateThreshold",
      "outputs": [
        {
          "internalType": "uint256",
          "name": "",
          "type": "uint256"
        }
      ],
      "stateMutability": "view",
      "type": "function"
    },
    {
      "inputs": [
        {
          "internalType": "uint256",
          "name": "_amount",
          "type": "uint256"
        }
      ],
      "name": "burnForStrategy",
      "outputs": [],
      "stateMutability": "nonpayable",
      "type": "function"
    },
    {
      "inputs": [],
      "name": "cacheWETHAssetIndex",
      "outputs": [],
      "stateMutability": "nonpayable",
      "type": "function"
    },
    {
      "inputs": [
        {
          "internalType": "uint256",
          "name": "_amount",
          "type": "uint256"
        }
      ],
      "name": "calculateRedeemOutputs",
      "outputs": [
        {
          "internalType": "uint256[]",
          "name": "",
          "type": "uint256[]"
        }
      ],
      "stateMutability": "view",
      "type": "function"
    },
    {
      "inputs": [],
      "name": "capitalPaused",
      "outputs": [
        {
          "internalType": "bool",
          "name": "",
          "type": "bool"
        }
      ],
      "stateMutability": "view",
      "type": "function"
    },
    {
      "inputs": [
        {
          "internalType": "address",
          "name": "_asset",
          "type": "address"
        }
      ],
      "name": "checkBalance",
      "outputs": [
        {
          "internalType": "uint256",
          "name": "",
          "type": "uint256"
        }
      ],
      "stateMutability": "view",
      "type": "function"
    },
    {
      "inputs": [],
      "name": "claimGovernance",
      "outputs": [],
      "stateMutability": "nonpayable",
      "type": "function"
    },
    {
      "inputs": [
        {
          "internalType": "uint256",
          "name": "_requestId",
          "type": "uint256"
        }
      ],
      "name": "claimWithdrawal",
      "outputs": [
        {
          "internalType": "uint256",
          "name": "amount",
          "type": "uint256"
        }
      ],
      "stateMutability": "nonpayable",
      "type": "function"
    },
    {
      "inputs": [
        {
          "internalType": "uint256[]",
          "name": "_requestIds",
          "type": "uint256[]"
        }
      ],
      "name": "claimWithdrawals",
      "outputs": [
        {
          "internalType": "uint256[]",
          "name": "amounts",
          "type": "uint256[]"
        },
        {
          "internalType": "uint256",
          "name": "totalAmount",
          "type": "uint256"
        }
      ],
      "stateMutability": "nonpayable",
      "type": "function"
    },
    {
      "inputs": [],
      "name": "dripper",
      "outputs": [
        {
          "internalType": "address",
          "name": "",
          "type": "address"
        }
      ],
      "stateMutability": "view",
      "type": "function"
    },
    {
      "inputs": [],
      "name": "getAllAssets",
      "outputs": [
        {
          "internalType": "address[]",
          "name": "",
          "type": "address[]"
        }
      ],
      "stateMutability": "view",
      "type": "function"
    },
    {
      "inputs": [],
      "name": "getAllStrategies",
      "outputs": [
        {
          "internalType": "address[]",
          "name": "",
          "type": "address[]"
        }
      ],
      "stateMutability": "view",
      "type": "function"
    },
    {
      "inputs": [
        {
          "internalType": "address",
          "name": "_asset",
          "type": "address"
        }
      ],
      "name": "getAssetConfig",
      "outputs": [
        {
          "components": [
            {
              "internalType": "bool",
              "name": "isSupported",
              "type": "bool"
            },
            {
              "internalType": "enum VaultStorage.UnitConversion",
              "name": "unitConversion",
              "type": "uint8"
            },
            {
              "internalType": "uint8",
              "name": "decimals",
              "type": "uint8"
            },
            {
              "internalType": "uint16",
              "name": "allowedOracleSlippageBps",
              "type": "uint16"
            }
          ],
          "internalType": "struct VaultStorage.Asset",
          "name": "config",
          "type": "tuple"
        }
      ],
      "stateMutability": "view",
      "type": "function"
    },
    {
      "inputs": [],
      "name": "getAssetCount",
      "outputs": [
        {
          "internalType": "uint256",
          "name": "",
          "type": "uint256"
        }
      ],
      "stateMutability": "view",
      "type": "function"
    },
    {
      "inputs": [],
      "name": "getStrategyCount",
      "outputs": [
        {
          "internalType": "uint256",
          "name": "",
          "type": "uint256"
        }
      ],
      "stateMutability": "view",
      "type": "function"
    },
    {
      "inputs": [],
      "name": "governor",
      "outputs": [
        {
          "internalType": "address",
          "name": "",
          "type": "address"
        }
      ],
      "stateMutability": "view",
      "type": "function"
    },
    {
      "inputs": [
        {
          "internalType": "address",
          "name": "_priceProvider",
          "type": "address"
        },
        {
          "internalType": "address",
          "name": "_oToken",
          "type": "address"
        }
      ],
      "name": "initialize",
      "outputs": [],
      "stateMutability": "nonpayable",
      "type": "function"
    },
    {
      "inputs": [],
      "name": "isGovernor",
      "outputs": [
        {
          "internalType": "bool",
          "name": "",
          "type": "bool"
        }
      ],
      "stateMutability": "view",
      "type": "function"
    },
    {
      "inputs": [
        {
          "internalType": "address",
          "name": "",
          "type": "address"
        }
      ],
      "name": "isMintWhitelistedStrategy",
      "outputs": [
        {
          "internalType": "bool",
          "name": "",
          "type": "bool"
        }
      ],
      "stateMutability": "view",
      "type": "function"
    },
    {
      "inputs": [
        {
          "internalType": "address",
          "name": "_asset",
          "type": "address"
        }
      ],
      "name": "isSupportedAsset",
      "outputs": [
        {
          "internalType": "bool",
          "name": "",
          "type": "bool"
        }
      ],
      "stateMutability": "view",
      "type": "function"
    },
    {
      "inputs": [],
      "name": "maxSupplyDiff",
      "outputs": [
        {
          "internalType": "uint256",
          "name": "",
          "type": "uint256"
        }
      ],
      "stateMutability": "view",
      "type": "function"
    },
    {
      "inputs": [
        {
          "internalType": "address",
          "name": "_asset",
          "type": "address"
        },
        {
          "internalType": "uint256",
          "name": "_amount",
          "type": "uint256"
        },
        {
          "internalType": "uint256",
          "name": "_minimumOusdAmount",
          "type": "uint256"
        }
      ],
      "name": "mint",
      "outputs": [],
      "stateMutability": "nonpayable",
      "type": "function"
    },
    {
      "inputs": [
        {
          "internalType": "uint256",
          "name": "_amount",
          "type": "uint256"
        }
      ],
      "name": "mintForStrategy",
      "outputs": [],
      "stateMutability": "nonpayable",
      "type": "function"
    },
    {
      "inputs": [],
      "name": "netOusdMintForStrategyThreshold",
      "outputs": [
        {
          "internalType": "uint256",
          "name": "",
          "type": "uint256"
        }
      ],
      "stateMutability": "view",
      "type": "function"
    },
    {
      "inputs": [],
      "name": "netOusdMintedForStrategy",
      "outputs": [
        {
          "internalType": "int256",
          "name": "",
          "type": "int256"
        }
      ],
      "stateMutability": "view",
      "type": "function"
    },
    {
      "inputs": [],
      "name": "ousdMetaStrategy",
      "outputs": [
        {
          "internalType": "address",
          "name": "",
          "type": "address"
        }
      ],
      "stateMutability": "view",
      "type": "function"
    },
    {
      "inputs": [],
      "name": "priceProvider",
      "outputs": [
        {
          "internalType": "address",
          "name": "",
          "type": "address"
        }
      ],
      "stateMutability": "view",
      "type": "function"
    },
    {
      "inputs": [
        {
          "internalType": "address",
          "name": "asset",
          "type": "address"
        }
      ],
      "name": "priceUnitMint",
      "outputs": [
        {
          "internalType": "uint256",
          "name": "price",
          "type": "uint256"
        }
      ],
      "stateMutability": "view",
      "type": "function"
    },
    {
      "inputs": [
        {
          "internalType": "address",
          "name": "asset",
          "type": "address"
        }
      ],
      "name": "priceUnitRedeem",
      "outputs": [
        {
          "internalType": "uint256",
          "name": "price",
          "type": "uint256"
        }
      ],
      "stateMutability": "view",
      "type": "function"
    },
    {
      "inputs": [],
      "name": "rebase",
      "outputs": [],
      "stateMutability": "nonpayable",
      "type": "function"
    },
    {
      "inputs": [],
      "name": "rebasePaused",
      "outputs": [
        {
          "internalType": "bool",
          "name": "",
          "type": "bool"
        }
      ],
      "stateMutability": "view",
      "type": "function"
    },
    {
      "inputs": [],
      "name": "rebaseThreshold",
      "outputs": [
        {
          "internalType": "uint256",
          "name": "",
          "type": "uint256"
        }
      ],
      "stateMutability": "view",
      "type": "function"
    },
    {
      "inputs": [
        {
          "internalType": "uint256",
          "name": "_amount",
          "type": "uint256"
        },
        {
          "internalType": "uint256",
          "name": "_minimumUnitAmount",
          "type": "uint256"
        }
      ],
      "name": "redeem",
      "outputs": [],
      "stateMutability": "nonpayable",
      "type": "function"
    },
    {
      "inputs": [
        {
          "internalType": "uint256",
          "name": "_minimumUnitAmount",
          "type": "uint256"
        }
      ],
      "name": "redeemAll",
      "outputs": [],
      "stateMutability": "nonpayable",
      "type": "function"
    },
    {
      "inputs": [],
      "name": "redeemFeeBps",
      "outputs": [
        {
          "internalType": "uint256",
          "name": "",
          "type": "uint256"
        }
      ],
      "stateMutability": "view",
      "type": "function"
    },
    {
      "inputs": [
        {
          "internalType": "uint256",
          "name": "_amount",
          "type": "uint256"
        }
      ],
      "name": "requestWithdrawal",
      "outputs": [
        {
          "internalType": "uint256",
          "name": "requestId",
          "type": "uint256"
        },
        {
          "internalType": "uint256",
          "name": "queued",
          "type": "uint256"
        }
      ],
      "stateMutability": "nonpayable",
      "type": "function"
    },
    {
      "inputs": [
        {
          "internalType": "address",
          "name": "newImpl",
          "type": "address"
        }
      ],
      "name": "setAdminImpl",
      "outputs": [],
      "stateMutability": "nonpayable",
      "type": "function"
    },
    {
      "inputs": [],
      "name": "strategistAddr",
      "outputs": [
        {
          "internalType": "address",
          "name": "",
          "type": "address"
        }
      ],
      "stateMutability": "view",
      "type": "function"
    },
    {
      "inputs": [],
      "name": "totalValue",
      "outputs": [
        {
          "internalType": "uint256",
          "name": "value",
          "type": "uint256"
        }
      ],
      "stateMutability": "view",
      "type": "function"
    },
    {
      "inputs": [
        {
          "internalType": "address",
          "name": "_newGovernor",
          "type": "address"
        }
      ],
      "name": "transferGovernance",
      "outputs": [],
      "stateMutability": "nonpayable",
      "type": "function"
    },
    {
      "inputs": [],
      "name": "trusteeAddress",
      "outputs": [
        {
          "internalType": "address",
          "name": "",
          "type": "address"
        }
      ],
      "stateMutability": "view",
      "type": "function"
    },
    {
      "inputs": [],
      "name": "trusteeFeeBps",
      "outputs": [
        {
          "internalType": "uint256",
          "name": "",
          "type": "uint256"
        }
      ],
      "stateMutability": "view",
      "type": "function"
    },
    {
      "inputs": [],
      "name": "vaultBuffer",
      "outputs": [
        {
          "internalType": "uint256",
          "name": "",
          "type": "uint256"
        }
      ],
      "stateMutability": "view",
      "type": "function"
    },
    {
      "inputs": [],
      "name": "weth",
      "outputs": [
        {
          "internalType": "address",
          "name": "",
          "type": "address"
        }
      ],
      "stateMutability": "view",
      "type": "function"
    },
    {
      "inputs": [],
      "name": "wethAssetIndex",
      "outputs": [
        {
          "internalType": "uint256",
          "name": "",
          "type": "uint256"
        }
      ],
      "stateMutability": "view",
      "type": "function"
    },
    {
      "inputs": [],
      "name": "withdrawalQueueMetadata",
      "outputs": [
        {
          "internalType": "uint128",
          "name": "queued",
          "type": "uint128"
        },
        {
          "internalType": "uint128",
          "name": "claimable",
          "type": "uint128"
        },
        {
          "internalType": "uint128",
          "name": "claimed",
          "type": "uint128"
        },
        {
          "internalType": "uint128",
          "name": "nextWithdrawalIndex",
          "type": "uint128"
        }
      ],
      "stateMutability": "view",
      "type": "function"
    },
    {
      "inputs": [
        {
          "internalType": "uint256",
          "name": "",
          "type": "uint256"
        }
      ],
      "name": "withdrawalRequests",
      "outputs": [
        {
          "internalType": "address",
          "name": "withdrawer",
          "type": "address"
        },
        {
          "internalType": "bool",
          "name": "claimed",
          "type": "bool"
        },
        {
          "internalType": "uint40",
          "name": "timestamp",
          "type": "uint40"
        },
        {
          "internalType": "uint128",
          "name": "amount",
          "type": "uint128"
        },
        {
          "internalType": "uint128",
          "name": "queued",
          "type": "uint128"
        }
      ],
      "stateMutability": "view",
      "type": "function"
    }
  ],
  "transactionHash": "0xdd0d5aa098e412102132b0a654d7f956931c0781b28d64c8fc7fabf1568bd91f",
  "args": [
    "0xC02aaA39b223FE8D0A0e5C4F27eAD9083C756Cc2"
  ],
  "numDeployments": 5,
  "solcInputHash": "dfd5d58273047b4c55b9b9449e7aeb71",
  "bytecode": "0x6037805461ffff60a01b1916600160a81b179055603d80546001600160a01b0319908116909155603e805482169055603f8054909116905560e0604052600060a081905260c052604880546001600160b01b03191690553480156200006357600080fd5b506040516200438a3803806200438a8339810160408190526200008691620000fc565b6200009e336000805160206200436a83398151915255565b6000805160206200436a833981519152546040516001600160a01b03909116906000907fc7c0c772add429241571afb3805861fb3cfa2af374534088b76cdb4325a87e9a908290a360601b6001600160601b0319166080526200012e565b6000602082840312156200010f57600080fd5b81516001600160a01b03811681146200012757600080fd5b9392505050565b60805160601c6141b4620001b66000396000818161044101528181610961015281816109d401528181610e2601528181611a5601528181611b340152818161235001528181612a2801528181612b7201528181612d8b01528181612e9201528181612fa101528181612fec01528181613054015281816133fe01526137e201526141b46000f3fe608060405234801561001057600080fd5b50600436106102f15760003560e01c806367bd7ba31161019d578063abaa9916116100e9578063d38bfff4116100a2578063e45cc9f01161007c578063e45cc9f014610792578063e6cc54321461079b578063f8444436146107af578063fc0cfeee146107c2576102f1565b8063d38bfff41461076e578063d4c3eea014610781578063e18132c414610789576102f1565b8063abaa991614610733578063af14052c1461073b578063b888879e14610743578063b9b17f9f14610756578063c3b288641461075e578063c7af335214610766576102f1565b8063937b2581116101565780639fa1826e116101305780639fa1826e146106e6578063a0aead4d146106ef578063a403e4d5146106f7578063ab80dafb14610720576102f1565b8063937b2581146105ea5780639be918e6146106925780639ee679e8146106be576102f1565b806367bd7ba3146105725780636ec3ab67146105925780637136a7a6146105b25780637a2202f3146105c55780637cbc2373146105ce5780638e510b52146105e1576102f1565b80634530820a1161025c57806354c6d858116102155780635d36b190116101ef5780635d36b190146105315780635f51522614610539578063603ea03b1461054c5780636217f3ea1461055f576102f1565b806354c6d85814610502578063570d8e1d1461050b5780635b60f9fc1461051e576102f1565b80634530820a1461046b578063485cc9551461049e57806348e30f54146104b157806349c1d54d146104d257806352d38e5d146104e557806353ca9f24146104ee576102f1565b80632acada4d116102ae5780632acada4d146103ad57806331e19cfa146103c2578063362bd1a3146103ca5780633b8fe28d146104295780633fc8cef31461043c57806344c5470714610463576102f1565b806309f6442c146103375780630c340a2414610353578063156e29f61461037357806318ce56bd146103885780631edfe3da1461039b578063207134b0146103a4575b7fa2bd3d3cf188a41358c8b401076eb59066b09dec5775650c0de4c55187d17bd9366000803760008036600084545af43d6000803e808015610332573d6000f35b3d6000fd5b61034060385481565b6040519081526020015b60405180910390f35b61035b6107d5565b6040516001600160a01b03909116815260200161034a565b610386610381366004613a77565b6107f2565b005b60455461035b906001600160a01b031681565b61034060395481565b61034060435481565b6103b5610870565b60405161034a9190613c55565b603654610340565b604b54604c546103f6916001600160801b0380821692600160801b928390048216928183169291041684565b604080516001600160801b039586168152938516602085015291841691830191909152909116606082015260800161034a565b610340610437366004613a29565b6108d2565b61035b7f000000000000000000000000000000000000000000000000000000000000000081565b61038661092d565b61048e610479366004613a29565b60496020526000908152604090205460ff1681565b604051901515815260200161034a565b6103866104ac366004613a44565b610a76565b6104c46104bf366004613aaa565b610c78565b60405161034a929190613cb5565b60425461035b906001600160a01b031681565b610340603b5481565b60375461048e90600160a01b900460ff1681565b610340607b5481565b603f5461035b906001600160a01b031681565b61034061052c366004613a29565b610e61565b610386610e8a565b610340610547366004613a29565b610f30565b604a5461035b906001600160a01b031681565b61038661056d366004613b91565b610f41565b610585610580366004613b91565b6110d8565b60405161034a9190613ca2565b6105a56105a0366004613a29565b6110e3565b60405161034a9190613dfe565b6103866105c0366004613b91565b611189565b61034060475481565b6103866105dc366004613bc3565b611274565b61034060415481565b61064b6105f8366004613b91565b604d60205260009081526040902080546001909101546001600160a01b03821691600160a01b810460ff1691600160a81b90910464ffffffffff16906001600160801b0380821691600160801b90041685565b604080516001600160a01b039096168652931515602086015264ffffffffff909216928401929092526001600160801b03918216606084015216608082015260a00161034a565b61048e6106a0366004613a29565b6001600160a01b031660009081526033602052604090205460ff1690565b6106d16106cc366004613b91565b6112e7565b6040805192835260208301919091520161034a565b610340603a5481565b603454610340565b61035b610705366004613a29565b6040602081905260009182529020546001600160a01b031681565b61038661072e366004613b91565b611552565b6103866116c9565b610386611741565b60375461035b906001600160a01b031681565b610386611787565b6103b56117f7565b61048e611857565b61038661077c366004613a29565b611888565b61034061192c565b61034061025881565b61034060465481565b60375461048e90600160a81b900460ff1681565b6103406107bd366004613b91565b611936565b6103866107d0366004613a29565b611a90565b60006107ed60008051602061415f8339815191525490565b905090565b603754600160a81b900460ff16156108255760405162461bcd60e51b815260040161081c90613dae565b60405180910390fd5b60008051602061413f833981519152805460028114156108575760405162461bcd60e51b815260040161081c90613dd6565b60028255610866858585611b32565b5060019055505050565b606060348054806020026020016040519081016040528092919081815260200182805480156108c857602002820191906000526020600020905b81546001600160a01b031681526001909101906020018083116108aa575b5050505050905090565b6000806108fb6108f56108e485611db3565b670de0b6b3a7640000906012611e1d565b84611e7f565b9050670de0b6b3a764000081610912856001611fdb565b61091c9190613fe5565b6109269190613ed8565b9392505050565b610935611857565b6109515760405162461bcd60e51b815260040161081c90613d4e565b60345460005b818110156109d1577f00000000000000000000000000000000000000000000000000000000000000006001600160a01b03166034828154811061099c5761099c614112565b6000918252602090912001546001600160a01b031614156109c157607b8190556109d1565b6109ca816140ae565b9050610957565b507f00000000000000000000000000000000000000000000000000000000000000006001600160a01b03166034607b5481548110610a1157610a11614112565b6000918252602090912001546001600160a01b031614610a735760405162461bcd60e51b815260206004820152601860248201527f496e76616c6964205745544820417373657420496e6465780000000000000000604482015260640161081c565b50565b610a7e611857565b610a9a5760405162461bcd60e51b815260040161081c90613d4e565b600054610100900460ff1680610ab3575060005460ff16155b610b165760405162461bcd60e51b815260206004820152602e60248201527f496e697469616c697a61626c653a20636f6e747261637420697320616c72656160448201526d191e481a5b9a5d1a585b1a5e995960921b606482015260840161081c565b600054610100900460ff16158015610b38576000805461ffff19166101011790555b6001600160a01b038316610b8e5760405162461bcd60e51b815260206004820152601d60248201527f507269636550726f76696465722061646472657373206973207a65726f000000604482015260640161081c565b6001600160a01b038216610bdd5760405162461bcd60e51b81526020600482015260166024820152756f546f6b656e2061646472657373206973207a65726f60501b604482015260640161081c565b603c80546001600160a01b038481166001600160a01b031990921691909117909155603780546001600160b01b03191691851691909117600160a81b17905560006038819055603981905569054b40b1f852bda00000603a55683635c9adc5dea00000603b556040805191825260208201908190529051610c60916036916139a1565b508015610c73576000805461ff00191690555b505050565b603754606090600090600160a81b900460ff1615610ca85760405162461bcd60e51b815260040161081c90613dae565b60008051602061413f83398151915280546002811415610cda5760405162461bcd60e51b815260040161081c90613dd6565b60028255604a60009054906101000a90046001600160a01b03166001600160a01b031663e52253816040518163ffffffff1660e01b8152600401600060405180830381600087803b158015610d2e57600080fd5b505af1158015610d42573d6000803e3d6000fd5b50505050610d4e6122cd565b50845167ffffffffffffffff811115610d6957610d69614128565b604051908082528060200260200182016040528015610d92578160200160208202803683370190505b50935060005b8551811015610e1857610dc3868281518110610db657610db6614112565b60200260200101516124b5565b858281518110610dd557610dd5614112565b602002602001018181525050848181518110610df357610df3614112565b602002602001015184610e069190613ec0565b9350610e11816140ae565b9050610d98565b50610e4d6001600160a01b037f0000000000000000000000000000000000000000000000000000000000000000163385612757565b610e56836127ad565b600182555050915091565b600080610e736108f56108e485611db3565b9050670de0b6b3a764000081610912856000611fdb565b7f44c4d30b2eaad5130ad70c3ba6972730566f3e6359ab83e800d905c61b1c51db546001600160a01b0316336001600160a01b031614610f255760405162461bcd60e51b815260206004820152603060248201527f4f6e6c79207468652070656e64696e6720476f7665726e6f722063616e20636f60448201526f6d706c6574652074686520636c61696d60801b606482015260840161081c565b610f2e33612963565b565b6000610f3b82612a24565b92915050565b603754600160a81b900460ff1615610f6b5760405162461bcd60e51b815260040161081c90613dae565b6045546001600160a01b03163314610f955760405162461bcd60e51b815260040161081c90613d0a565b6001600160ff1b038110610fbb5760405162461bcd60e51b815260040161081c90613d85565b7f222838db2794d11532d940e8dec38ae307ed0b63cd97c233322e221f998767a63382604051610fec929190613c3c565b60405180910390a180604660008282546110069190614004565b909155505060475460465461101a90612af7565b106110715760405162461bcd60e51b815260206004820152602160248201527f417474656d7074696e6720746f206275726e20746f6f206d756368204f5553446044820152601760f91b606482015260840161081c565b603c54604051632770a7eb60e21b81526001600160a01b0390911690639dc29fac906110a39033908590600401613c3c565b600060405180830381600087803b1580156110bd57600080fd5b505af11580156110d1573d6000803e3d6000fd5b5050505050565b6060610f3b82612b3a565b604080516080808201835260008083526020808401829052838501829052606084018290526001600160a01b038616825260338152908490208451928301909452835460ff80821615158452939492939184019161010090910416600181111561114f5761114f6140fc565b6001811115611160576111606140fc565b8152905462010000810460ff1660208301526301000000900461ffff1660409091015292915050565b603754600160a81b900460ff16156111b35760405162461bcd60e51b815260040161081c90613dae565b60008051602061413f833981519152805460028114156111e55760405162461bcd60e51b815260040161081c90613dd6565b60028255603c546040516370a0823160e01b815233600482015261126c916001600160a01b0316906370a082319060240160206040518083038186803b15801561122e57600080fd5b505afa158015611242573d6000803e3d6000fd5b505050506040513d601f19601f820116820180604052508101906112669190613baa565b84612c7b565b506001905550565b603754600160a81b900460ff161561129e5760405162461bcd60e51b815260040161081c90613dae565b60008051602061413f833981519152805460028114156112d05760405162461bcd60e51b815260040161081c90613dd6565b600282556112de8484612c7b565b50600190555050565b6037546000908190600160a81b900460ff16156113165760405162461bcd60e51b815260040161081c90613dae565b60008051602061413f833981519152805460028114156113485760405162461bcd60e51b815260040161081c90613dd6565b60028255604c54604b546001600160801b03600160801b9092048216955061137291879116613ec0565b9250611387611382856001613ec0565b612e1f565b604c80546001600160801b03928316600160801b0292169190911790556113ad83612e1f565b604b80546001600160801b0319166001600160801b03929092169190911790556040805160a081018252338152600060208201524264ffffffffff1691810191909152606081016113fd87612e1f565b6001600160801b0316815260200161141485612e1f565b6001600160801b039081169091526000868152604d602090815260409182902084518154928601518685015164ffffffffff16600160a81b0264ffffffffff60a81b19911515600160a01b026001600160a81b03199095166001600160a01b0393841617949094171692909217815560608501516080909501518416600160801b029490931693909317600190920191909155603c549051632770a7eb60e21b8152911690639dc29fac906114cf9033908990600401613c3c565b600060405180830381600087803b1580156114e957600080fd5b505af11580156114fd573d6000803e3d6000fd5b5050505061150a856127ad565b6040805186815260208101859052859133917f38e3d972947cfef94205163d483d6287ef27eb312e20cb8e0b13a49989db232e910160405180910390a3600182555050915091565b603754600160a81b900460ff161561157c5760405162461bcd60e51b815260040161081c90613dae565b6045546001600160a01b031633146115a65760405162461bcd60e51b815260040161081c90613d0a565b6001600160ff1b0381106115cc5760405162461bcd60e51b815260040161081c90613d85565b7f0f6798a560793a54c3bcfe86a93cde1e73087d944c0ea20544137d412139688533826040516115fd929190613c3c565b60405180910390a180604660008282546116179190613e54565b909155505060475460465461162b90612af7565b106116975760405162461bcd60e51b815260206004820152603660248201527f4d696e746564206f75736420737572706173736564206e65744f7573644d696e6044820152753a2337b929ba3930ba32b3bcaa343932b9b437b6321760511b606482015260840161081c565b603c546040516340c10f1960e01b81526001600160a01b03909116906340c10f19906110a39033908590600401613c3c565b603754600160a81b900460ff16156116f35760405162461bcd60e51b815260040161081c90613dae565b60008051602061413f833981519152805460028114156117255760405162461bcd60e51b815260040161081c90613dd6565b600282556117316122cd565b5061173a612e88565b5060019055565b60008051602061413f833981519152805460028114156117735760405162461bcd60e51b815260040161081c90613dd6565b6002825561177f6130bc565b505060019055565b604a60009054906101000a90046001600160a01b03166001600160a01b031663e52253816040518163ffffffff1660e01b8152600401600060405180830381600087803b1580156117d757600080fd5b505af11580156117eb573d6000803e3d6000fd5b50505050610a736122cd565b606060368054806020026020016040519081016040528092919081815260200182805480156108c8576020028201919060005260206000209081546001600160a01b031681526001909101906020018083116108aa575050505050905090565b600061186f60008051602061415f8339815191525490565b6001600160a01b0316336001600160a01b031614905090565b611890611857565b6118ac5760405162461bcd60e51b815260040161081c90613d4e565b6118d4817f44c4d30b2eaad5130ad70c3ba6972730566f3e6359ab83e800d905c61b1c51db55565b806001600160a01b03166118f460008051602061415f8339815191525490565b6001600160a01b03167fa39cc5eb22d0f34d8beaefee8a3f17cc229c1a1d1ef87a5ad47313487b1c4f0d60405160405180910390a350565b60006107ed6133f7565b603754600090600160a81b900460ff16156119635760405162461bcd60e51b815260040161081c90613dae565b60008051602061413f833981519152805460028114156119955760405162461bcd60e51b815260040161081c90613dd6565b60028255604b546000858152604d60205260409020600101546001600160801b03600160801b92839004811692909104161115611a3e57604a60009054906101000a90046001600160a01b03166001600160a01b031663e52253816040518163ffffffff1660e01b8152600401600060405180830381600087803b158015611a1c57600080fd5b505af1158015611a30573d6000803e3d6000fd5b50505050611a3c6122cd565b505b611a47846124b5565b9250611a7d6001600160a01b037f0000000000000000000000000000000000000000000000000000000000000000163385612757565b611a86836127ad565b5060019055919050565b611a98611857565b611ab45760405162461bcd60e51b815260040161081c90613d4e565b803b611b0e5760405162461bcd60e51b8152602060048201526024808201527f6e657720696d706c656d656e746174696f6e206973206e6f74206120636f6e746044820152631c9858dd60e21b606482015260840161081c565b7fa2bd3d3cf188a41358c8b401076eb59066b09dec5775650c0de4c55187d17bd955565b7f00000000000000000000000000000000000000000000000000000000000000006001600160a01b0316836001600160a01b031614611bb35760405162461bcd60e51b815260206004820152601d60248201527f556e737570706f7274656420617373657420666f72206d696e74696e67000000604482015260640161081c565b60008211611c035760405162461bcd60e51b815260206004820152601d60248201527f416d6f756e74206d7573742062652067726561746572207468616e2030000000604482015260640161081c565b80821015611c535760405162461bcd60e51b815260206004820152601e60248201527f4d696e7420616d6f756e74206c6f776572207468616e206d696e696d756d0000604482015260640161081c565b7f0f6798a560793a54c3bcfe86a93cde1e73087d944c0ea20544137d41213968853383604051611c84929190613c3c565b60405180910390a1603754600160a01b900460ff16158015611ca85750603b548210155b15611d1f57604a60009054906101000a90046001600160a01b03166001600160a01b031663e52253816040518163ffffffff1660e01b8152600401600060405180830381600087803b158015611cfd57600080fd5b505af1158015611d11573d6000803e3d6000fd5b50505050611d1d6130bc565b505b603c546040516340c10f1960e01b81526001600160a01b03909116906340c10f1990611d519033908690600401613c3c565b600060405180830381600087803b158015611d6b57600080fd5b505af1158015611d7f573d6000803e3d6000fd5b50611d99925050506001600160a01b038416333085613422565b611da16122cd565b50603a548210610c7357610c73612e88565b6001600160a01b03811660009081526033602052604090205462010000900460ff1680611e185760405162461bcd60e51b8152602060048201526013602482015272111958da5b585b1cc81b9bdd0818d858da1959606a1b604482015260640161081c565b919050565b600081831115611e4d57611e46611e34838561406b565b611e3f90600a613f3d565b8590613460565b9350611e77565b81831015611e7757611e74611e62848461406b565b611e6d90600a613f3d565b859061346c565b93505b509192915050565b6001600160a01b038116600090815260336020526040812054610100900460ff1681816001811115611eb357611eb36140fc565b1415611ed757611ecf6012611ec785611db3565b869190611e1d565b915050610f3b565b6001816001811115611eeb57611eeb6140fc565b1415611f8c576000836001600160a01b031663e6aa216c6040518163ffffffff1660e01b815260040160206040518083038186803b158015611f2c57600080fd5b505afa158015611f40573d6000803e3d6000fd5b505050506040513d601f19601f82011682018060405250810190611f649190613baa565b9050670de0b6b3a7640000611f798287613fe5565b611f839190613ed8565b92505050610f3b565b60405162461bcd60e51b815260206004820152601b60248201527f556e737570706f7274656420636f6e76657273696f6e20747970650000000000604482015260640161081c565b5092915050565b6001600160a01b038281166000818152603360205260408082205460375491516315d5220f60e31b81526004810194909452919361010090920460ff169291169063aea910789060240160206040518083038186803b15801561203d57600080fd5b505afa158015612051573d6000803e3d6000fd5b505050506040513d601f19601f820116820180604052508101906120759190613baa565b9150600181600181111561208b5761208b6140fc565b141561212b576000846001600160a01b031663e6aa216c6040518163ffffffff1660e01b815260040160206040518083038186803b1580156120cc57600080fd5b505afa1580156120e0573d6000803e3d6000fd5b505050506040513d601f19601f820116820180604052508101906121049190613baa565b90508061211984670de0b6b3a7640000613fe5565b6121239190613ed8565b92505061218c565b600081600181111561213f5761213f6140fc565b1461218c5760405162461bcd60e51b815260206004820152601b60248201527f556e737570706f7274656420636f6e76657273696f6e20747970650000000000604482015260640161081c565b67120a871cc00200008211156121e45760405162461bcd60e51b815260206004820152601860248201527f5661756c743a2050726963652065786365656473206d61780000000000000000604482015260640161081c565b6709b6e64a8ec600008210156122355760405162461bcd60e51b81526020600482015260166024820152752b30bab63a1d10283934b1b2903ab73232b91036b4b760511b604482015260640161081c565b82156122ac57670de0b6b3a764000082111561225757670de0b6b3a764000091505b670dd99bb65dd700008210156122a75760405162461bcd60e51b815260206004820152601560248201527441737365742070726963652062656c6f772070656760581b604482015260640161081c565b611fd4565b670de0b6b3a7640000821015611fd45750670de0b6b3a76400009392505050565b60408051608081018252604b546001600160801b03808216808452600160801b92839004821660208501819052604c548084169686019690965292909404166060830152600092839161231f91614043565b6001600160801b03169050806123385760009250505090565b6040516370a0823160e01b81523060048201526000907f00000000000000000000000000000000000000000000000000000000000000006001600160a01b0316906370a082319060240160206040518083038186803b15801561239a57600080fd5b505afa1580156123ae573d6000803e3d6000fd5b505050506040513d601f19601f820116820180604052508101906123d29190613baa565b90506000836040015184602001516123ea9190614043565b6001600160801b0316905080821161240757600094505050505090565b6000612413828461406b565b90508084106124225780612424565b835b955060008686602001516001600160801b03166124419190613ec0565b905061244c81612e1f565b604b80546001600160801b03928316600160801b0292169190911790556040517fee79a0c43d3993055690b54e074b5153e8bae8d1a872b656dedb64aa8f463333906124a49083908a90918252602082015260400190565b60405180910390a150505050505090565b6000818152604d60209081526040808320815160a08101835281546001600160a01b038116825260ff600160a01b82041615158286015264ffffffffff600160a81b90910481168285019081526001909301546001600160801b03808216606080860191909152600160801b92839004821660808087019190915287519081018852604b548084168252849004831698810198909852604c548083169789019790975291909504909416938501939093529051909291429161257b916102589116613ec0565b11156125bf5760405162461bcd60e51b815260206004820152601360248201527210db185a5b4819195b185e481b9bdd081b595d606a1b604482015260640161081c565b80602001516001600160801b031682608001516001600160801b031611156126295760405162461bcd60e51b815260206004820152601760248201527f51756575652070656e64696e67206c6971756964697479000000000000000000604482015260640161081c565b81516001600160a01b031633146126725760405162461bcd60e51b815260206004820152600d60248201526c2737ba103932b8bab2b9ba32b960991b604482015260640161081c565b6020820151156126b65760405162461bcd60e51b815260206004820152600f60248201526e105b1c9958591e4818db185a5b5959608a1b604482015260640161081c565b6000848152604d602052604090819020805460ff60a01b1916600160a01b1790556060830151908201516126ea9190613e95565b604c80546001600160801b0319166001600160801b03928316179055606083015160405191168152849033907f2d43eb174787155132b52ddb6b346e2dca99302eac3df4466dbeff953d3c84d19060200160405180910390a350606001516001600160801b031692915050565b610c738363a9059cbb60e01b8484604051602401612776929190613c3c565b60408051601f198184030181529190526020810180516001600160e01b03166001600160e01b031990931692909217909152613478565b6000603b5482101580156127cb5750603754600160a01b900460ff16155b156127df576127d86130bc565b90506127ea565b6127e76133f7565b90505b6041541561295f57600081116128425760405162461bcd60e51b815260206004820152601d60248201527f546f6f206d616e79206f75747374616e64696e67207265717565737473000000604482015260640161081c565b60006128d482603c60009054906101000a90046001600160a01b03166001600160a01b03166318160ddd6040518163ffffffff1660e01b815260040160206040518083038186803b15801561289657600080fd5b505afa1580156128aa573d6000803e3d6000fd5b505050506040513d601f19601f820116820180604052508101906128ce9190613baa565b9061354a565b9050604154670de0b6b3a764000082116128ff576128fa82670de0b6b3a764000061406b565b612911565b612911670de0b6b3a76400008361406b565b1115610c735760405162461bcd60e51b815260206004820152601e60248201527f4261636b696e6720737570706c79206c6971756964697479206572726f720000604482015260640161081c565b5050565b6001600160a01b0381166129b95760405162461bcd60e51b815260206004820152601a60248201527f4e657720476f7665726e6f722069732061646472657373283029000000000000604482015260640161081c565b806001600160a01b03166129d960008051602061415f8339815191525490565b6001600160a01b03167fc7c0c772add429241571afb3805861fb3cfa2af374534088b76cdb4325a87e9a60405160405180910390a3610a738160008051602061415f83398151915255565b60007f00000000000000000000000000000000000000000000000000000000000000006001600160a01b0316826001600160a01b031614612a6757506000919050565b612a7082613573565b60408051608081018252604b546001600160801b03808216808452600160801b9283900482166020850152604c54808316958501869052929092041660608301529293509190612ac09084613ec0565b1015612acf5750600092915050565b805160408201516001600160801b0391821691612aed911684613ec0565b610926919061406b565b60006001600160ff1b038212612b1f5760405162461bcd60e51b815260040161081c90613d85565b6000821215612b3657612b31826140c9565b610f3b565b5090565b60385460609015612b6957603854600090612b59908490612710613742565b9050612b65818461406b565b9250505b6000607b5490507f00000000000000000000000000000000000000000000000000000000000000006001600160a01b031660348281548110612bad57612bad614112565b6000918252602090912001546001600160a01b031614612c0f5760405162461bcd60e51b815260206004820152601b60248201527f5745544820417373657420696e646578206e6f74206361636865640000000000604482015260640161081c565b60345467ffffffffffffffff811115612c2a57612c2a614128565b604051908082528060200260200182016040528015612c53578160200160208202803683370190505b50915082828281518110612c6957612c69614112565b60200260200101818152505050919050565b7f222838db2794d11532d940e8dec38ae307ed0b63cd97c233322e221f998767a63383604051612cac929190613c3c565b60405180910390a181612cbd575050565b6000612cc883612b3a565b607b5481518110612cdb57612cdb614112565b6020026020010151905081811015612d355760405162461bcd60e51b815260206004820181905260248201527f52656465656d20616d6f756e74206c6f776572207468616e206d696e696d756d604482015260640161081c565b80612d3e613764565b1015612d7e5760405162461bcd60e51b815260206004820152600f60248201526e2634b8bab4b234ba3c9032b93937b960891b604482015260640161081c565b612db26001600160a01b037f0000000000000000000000000000000000000000000000000000000000000000163383612757565b603c54604051632770a7eb60e21b81526001600160a01b0390911690639dc29fac90612de49033908790600401613c3c565b600060405180830381600087803b158015612dfe57600080fd5b505af1158015612e12573d6000803e3d6000fd5b50505050610c73836127ad565b60006001600160801b03821115612b365760405162461bcd60e51b815260206004820152602760248201527f53616665436173743a2076616c756520646f65736e27742066697420696e20316044820152663238206269747360c81b606482015260840161081c565b6001600160a01b037f000000000000000000000000000000000000000000000000000000000000000081166000908152604060208190529020541680612ecb5750565b6000612ed5613764565b905080612ee0575050565b603c54604080516318160ddd60e01b815290516000926001600160a01b0316916318160ddd916004808301926020929190829003018186803b158015612f2557600080fd5b505afa158015612f39573d6000803e3d6000fd5b505050506040513d601f19601f82011682018060405250810190612f5d9190613baa565b90506000612f766039548361388190919063ffffffff16565b9050808311612f855750505050565b6000612f91828561406b565b905084612fc86001600160a01b037f0000000000000000000000000000000000000000000000000000000000000000168284612757565b6040516311f9fbc960e21b81526001600160a01b038216906347e7ef2490613016907f0000000000000000000000000000000000000000000000000000000000000000908690600401613c3c565b600060405180830381600087803b15801561303057600080fd5b505af1158015613044573d6000803e3d6000fd5b5050604080516001600160a01b037f0000000000000000000000000000000000000000000000000000000000000000811682528a1660208201529081018590527f41b99659f6ba0803f444aff29e5bf6e26dd86a3219aff92119d69710a956ba8d9250606001905060405180910390a1505050505050565b603754600090600160a01b900460ff161561310b5760405162461bcd60e51b815260206004820152600f60248201526e149958985cda5b99c81c185d5cd959608a1b604482015260640161081c565b603c54604080516318160ddd60e01b815290516000926001600160a01b0316916318160ddd916004808301926020929190829003018186803b15801561315057600080fd5b505afa158015613164573d6000803e3d6000fd5b505050506040513d601f19601f820116820180604052508101906131889190613baa565b905060006131946133f7565b9050816131a45791506133f49050565b6042546001600160a01b031680158015906131be57508282115b156133005760006131cf848461406b565b905060006131ec604354612710846137429092919063ffffffff16565b90508082116132485760405162461bcd60e51b815260206004820152602260248201527f466565206d757374206e6f742062652067726561746572207468616e207969656044820152611b1960f21b606482015260840161081c565b80156132b357603c546040516340c10f1960e01b81526001600160a01b03909116906340c10f19906132809086908590600401613c3c565b600060405180830381600087803b15801561329a57600080fd5b505af11580156132ae573d6000803e3d6000fd5b505050505b604080516001600160a01b0385168152602081018490529081018290527f09516ecf4a8a86e59780a9befc6dee948bc9e60a36e3be68d31ea817ee8d2c809060600160405180910390a150505b603c60009054906101000a90046001600160a01b03166001600160a01b03166318160ddd6040518163ffffffff1660e01b815260040160206040518083038186803b15801561334e57600080fd5b505afa158015613362573d6000803e3d6000fd5b505050506040513d601f19601f820116820180604052508101906133869190613baa565b9250828211156133ef57603c546040516339a7919f60e01b8152600481018490526001600160a01b03909116906339a7919f90602401600060405180830381600087803b1580156133d657600080fd5b505af11580156133ea573d6000803e3d6000fd5b505050505b509150505b90565b60006107ed7f0000000000000000000000000000000000000000000000000000000000000000612a24565b6040516001600160a01b038085166024830152831660448201526064810182905261345a9085906323b872dd60e01b90608401612776565b50505050565b60006109268284613fe5565b60006109268284613ed8565b60006134cd826040518060400160405280602081526020017f5361666545524332303a206c6f772d6c6576656c2063616c6c206661696c6564815250856001600160a01b03166138969092919063ffffffff16565b805190915015610c7357808060200190518101906134eb9190613b6f565b610c735760405162461bcd60e51b815260206004820152602a60248201527f5361666545524332303a204552433230206f7065726174696f6e20646964206e6044820152691bdd081cdd58d8d9595960b21b606482015260840161081c565b60008061355f84670de0b6b3a7640000613460565b905061356b818461346c565b949350505050565b6040516370a0823160e01b815230600482015260009082906001600160a01b038216906370a082319060240160206040518083038186803b1580156135b757600080fd5b505afa1580156135cb573d6000803e3d6000fd5b505050506040513d601f19601f820116820180604052508101906135ef9190613baa565b60365490925060005b8181101561373a5760006036828154811061361557613615614112565b60009182526020909120015460405163551c457b60e11b81526001600160a01b0388811660048301529091169150819063aa388af69060240160206040518083038186803b15801561366657600080fd5b505afa15801561367a573d6000803e3d6000fd5b505050506040513d601f19601f8201168201806040525081019061369e9190613b6f565b1561372957604051632fa8a91360e11b81526001600160a01b038781166004830152821690635f5152269060240160206040518083038186803b1580156136e457600080fd5b505afa1580156136f8573d6000803e3d6000fd5b505050506040513d601f19601f8201168201806040525081019061371c9190613baa565b6137269086613ec0565b94505b50613733816140ae565b90506135f8565b505050919050565b60008061374f8585613460565b905061375b818461346c565b95945050505050565b60408051608081018252604b546001600160801b03808216808452600160801b9283900482166020850152604c548083169585018690529290920416606083015260009283916137b49190614043565b6040516370a0823160e01b81523060048201526001600160801b039190911691506000906001600160a01b037f000000000000000000000000000000000000000000000000000000000000000016906370a082319060240160206040518083038186803b15801561382457600080fd5b505afa158015613838573d6000803e3d6000fd5b505050506040513d601f19601f8201168201806040525081019061385c9190613baa565b905081811161386f576000935050505090565b613879828261406b565b935050505090565b60006109268383670de0b6b3a7640000613742565b606061356b848460008585843b6138ef5760405162461bcd60e51b815260206004820152601d60248201527f416464726573733a2063616c6c20746f206e6f6e2d636f6e7472616374000000604482015260640161081c565b600080866001600160a01b0316858760405161390b9190613c20565b60006040518083038185875af1925050503d8060008114613948576040519150601f19603f3d011682016040523d82523d6000602084013e61394d565b606091505b509150915061395d828286613968565b979650505050505050565b60608315613977575081610926565b8251156139875782518084602001fd5b8160405162461bcd60e51b815260040161081c9190613cd7565b8280548282559060005260206000209081019282156139f6579160200282015b828111156139f657825182546001600160a01b0319166001600160a01b039091161782556020909201916001909101906139c1565b50612b369291505b80821115612b3657600081556001016139fe565b80356001600160a01b0381168114611e1857600080fd5b600060208284031215613a3b57600080fd5b61092682613a12565b60008060408385031215613a5757600080fd5b613a6083613a12565b9150613a6e60208401613a12565b90509250929050565b600080600060608486031215613a8c57600080fd5b613a9584613a12565b95602085013595506040909401359392505050565b60006020808385031215613abd57600080fd5b823567ffffffffffffffff80821115613ad557600080fd5b818501915085601f830112613ae957600080fd5b813581811115613afb57613afb614128565b8060051b604051601f19603f83011681018181108582111715613b2057613b20614128565b604052828152858101935084860182860187018a1015613b3f57600080fd5b600095505b83861015613b62578035855260019590950194938601938601613b44565b5098975050505050505050565b600060208284031215613b8157600080fd5b8151801515811461092657600080fd5b600060208284031215613ba357600080fd5b5035919050565b600060208284031215613bbc57600080fd5b5051919050565b60008060408385031215613bd657600080fd5b50508035926020909101359150565b600081518084526020808501945080840160005b83811015613c1557815187529582019590820190600101613bf9565b509495945050505050565b60008251613c32818460208701614082565b9190910192915050565b6001600160a01b03929092168252602082015260400190565b6020808252825182820181905260009190848201906040850190845b81811015613c965783516001600160a01b031683529284019291840191600101613c71565b50909695505050505050565b6020815260006109266020830184613be5565b604081526000613cc86040830185613be5565b90508260208301529392505050565b6020815260008251806020840152613cf6816040850160208701614082565b601f01601f19169190910160400192915050565b60208082526024908201527f43616c6c6572206973206e6f7420746865204f555344206d65746120737472616040820152637465677960e01b606082015260800190565b6020808252601a908201527f43616c6c6572206973206e6f742074686520476f7665726e6f72000000000000604082015260600190565b6020808252600f908201526e082dadeeadce840e8dede40d0d2ced608b1b604082015260600190565b6020808252600e908201526d10d85c1a5d185b081c185d5cd95960921b604082015260600190565b6020808252600e908201526d1499595b9d1c985b9d0818d85b1b60921b604082015260600190565b8151151581526020820151608082019060028110613e2c57634e487b7160e01b600052602160045260246000fd5b8060208401525060ff604084015116604083015261ffff606084015116606083015292915050565b600080821280156001600160ff1b0384900385131615613e7657613e766140e6565b600160ff1b8390038412811615613e8f57613e8f6140e6565b50500190565b60006001600160801b03808316818516808303821115613eb757613eb76140e6565b01949350505050565b60008219821115613ed357613ed36140e6565b500190565b600082613ef557634e487b7160e01b600052601260045260246000fd5b500490565b600181815b80851115613f35578160001904821115613f1b57613f1b6140e6565b80851615613f2857918102915b93841c9390800290613eff565b509250929050565b60006109268383600082613f5357506001610f3b565b81613f6057506000610f3b565b8160018114613f765760028114613f8057613f9c565b6001915050610f3b565b60ff841115613f9157613f916140e6565b50506001821b610f3b565b5060208310610133831016604e8410600b8410161715613fbf575081810a610f3b565b613fc98383613efa565b8060001904821115613fdd57613fdd6140e6565b029392505050565b6000816000190483118215151615613fff57613fff6140e6565b500290565b60008083128015600160ff1b850184121615614022576140226140e6565b6001600160ff1b038401831381161561403d5761403d6140e6565b50500390565b60006001600160801b0383811690831681811015614063576140636140e6565b039392505050565b60008282101561407d5761407d6140e6565b500390565b60005b8381101561409d578181015183820152602001614085565b8381111561345a5750506000910152565b60006000198214156140c2576140c26140e6565b5060010190565b6000600160ff1b8214156140df576140df6140e6565b5060000390565b634e487b7160e01b600052601160045260246000fd5b634e487b7160e01b600052602160045260246000fd5b634e487b7160e01b600052603260045260246000fd5b634e487b7160e01b600052604160045260246000fdfe53bf423e48ed90e97d02ab0ebab13b2a235a6bfbe9c321847d5c175333ac45357bea13895fa79d2831e0a9e28edede30099005a50d652d8957cf8a607ee6ca4aa264697066735822122018cdf3d19ae68832258a759c7e2ee7bba930aef1aa2d172ee7af730dd9e50ca864736f6c634300080700337bea13895fa79d2831e0a9e28edede30099005a50d652d8957cf8a607ee6ca4a",
  "libraries": {},
  "devdoc": {
    "author": "Origin Protocol Inc",
    "kind": "dev",
    "methods": {
      "addWithdrawalQueueLiquidity()": {
        "details": "is called from the Native Staking strategy when validator withdrawals are processed. It also called before any WETH is allocated to a strategy."
      },
      "burnForStrategy(uint256)": {
        "details": "Notice: can't use `nonReentrant` modifier since the `redeem` function could require withdrawal on `ConvexOUSDMetaStrategy` and that one can call `burnForStrategy` while the execution of the `redeem` has not yet completed -> causing a `nonReentrant` collision. Also important to understand is that this is a limitation imposed by the test suite. Production / mainnet contracts should never be configured in a way where mint/redeem functions that are moving funds between the Vault and end user wallets can influence strategies utilizing this function.",
        "params": {
          "_amount": "Amount of OUSD to burn"
        }
      },
      "cacheWETHAssetIndex()": {
        "details": "Caches WETH's index in `allAssets` variable.      Reduces gas usage by redeem by caching that."
      },
      "checkBalance(address)": {
        "params": {
          "_asset": "Address of asset"
        },
        "returns": {
          "_0": "uint256 Balance of asset in decimals of asset"
        }
      },
      "claimWithdrawal(uint256)": {
        "params": {
          "_requestId": "Unique ID for the withdrawal request"
        },
        "returns": {
          "amount": "Amount of WETH transferred to the withdrawer"
        }
      },
      "claimWithdrawals(uint256[])": {
        "params": {
          "_requestIds": "Unique ID of each withdrawal request"
        },
        "returns": {
          "amounts": "Amount of WETH received for each request",
          "totalAmount": "Total amount of WETH transferred to the withdrawer"
        }
      },
      "isSupportedAsset(address)": {
        "params": {
          "_asset": "address of the asset"
        },
        "returns": {
          "_0": "true if supported"
        }
      },
      "mint(address,uint256,uint256)": {
        "params": {
          "_amount": "Amount of the asset being deposited",
          "_asset": "Address of the asset being deposited",
          "_minimumOusdAmount": "Minimum OTokens to mint"
        }
      },
      "mintForStrategy(uint256)": {
        "params": {
          "_amount": "Amount of the asset being deposited Notice: can't use `nonReentrant` modifier since the `mint` function can call `allocate`, and that can trigger `ConvexOUSDMetaStrategy` to call this function while the execution of the `mint` has not yet completed -> causing a `nonReentrant` collision. Also important to understand is that this is a limitation imposed by the test suite. Production / mainnet contracts should never be configured in a way where mint/redeem functions that are moving funds between the Vault and end user wallets can influence strategies utilizing this function."
        }
      },
      "priceUnitMint(address)": {
        "params": {
          "asset": "address of the asset"
        },
        "returns": {
          "price": "uint256: unit (USD / ETH) price for 1 unit of the asset, in 18 decimal fixed"
        }
      },
      "priceUnitRedeem(address)": {
        "params": {
          "asset": "Address of the asset"
        },
        "returns": {
          "price": "uint256: unit (USD / ETH) price for 1 unit of the asset, in 18 decimal fixed"
        }
      },
      "redeem(uint256,uint256)": {
        "params": {
          "_amount": "Amount of OTokens to burn",
          "_minimumUnitAmount": "Minimum stablecoin units to receive in return"
        }
      },
      "redeemAll(uint256)": {
        "params": {
          "_minimumUnitAmount": "Minimum stablecoin units to receive in return"
        }
      },
      "requestWithdrawal(uint256)": {
        "params": {
          "_amount": "Amount of OETH to burn.",
          "queued": "Cumulative total of all WETH queued including already claimed requests.",
          "requestId": "Unique ID for the withdrawal request"
        }
      },
      "setAdminImpl(address)": {
        "params": {
          "newImpl": "address of the implementation"
        }
      },
      "totalValue()": {
        "returns": {
          "value": "Total value in USD/ETH (1e18)"
        }
      },
      "transferGovernance(address)": {
        "params": {
          "_newGovernor": "Address of the new Governor"
        }
      }
    },
    "title": "OETH VaultCore Contract",
    "version": 1
  },
  "userdoc": {
    "kind": "user",
    "methods": {
      "addWithdrawalQueueLiquidity()": {
        "notice": "Collects harvested rewards from the Dripper as WETH then adds WETH to the withdrawal queue if there is a funding shortfall."
      },
      "allocate()": {
        "notice": "Allocate unallocated funds on Vault to strategies.*"
      },
      "assetDefaultStrategies(address)": {
        "notice": "Mapping of asset address to the Strategy that they should automatically"
      },
      "autoAllocateThreshold()": {
        "notice": "OToken mints over this amount automatically allocate funds. 18 decimals."
      },
      "burnForStrategy(uint256)": {
        "notice": "Burn OTokens for Metapool Strategy"
      },
      "calculateRedeemOutputs(uint256)": {
        "notice": "Calculate the outputs for a redeem function, i.e. the mix of coins that will be returned"
      },
      "capitalPaused()": {
        "notice": "pause operations that change the OToken supply. eg mint, redeem, allocate, mint/burn for strategy"
      },
      "checkBalance(address)": {
        "notice": "Get the balance of an asset held in Vault and all strategies."
      },
      "claimGovernance()": {
        "notice": "Claim Governance of the contract to a new account (`newGovernor`). Can only be called by the new Governor."
      },
      "claimWithdrawal(uint256)": {
        "notice": "Claim a previously requested withdrawal once it is claimable. This request can be claimed once the withdrawal queue's `claimable` amount is greater than or equal this request's `queued` amount and 10 minutes has passed. If the requests is not claimable, the transaction will revert with `Queue pending liquidity`. If the request is not older than 10 minutes, the transaction will revert with `Claim delay not met`. OETH is converted to WETH at 1:1."
      },
      "claimWithdrawals(uint256[])": {
        "notice": "Claim a previously requested withdrawals once they are claimable. This requests can be claimed once the withdrawal queue's `claimable` amount is greater than or equal each request's `queued` amount and 10 minutes has passed. If one of the requests is not claimable, the whole transaction will revert with `Queue pending liquidity`. If one of the requests is not older than 10 minutes, the whole transaction will revert with `Claim delay not met`."
      },
      "dripper()": {
        "notice": "Address of the Dripper contract that streams harvested rewards to the Vault"
      },
      "getAllAssets()": {
        "notice": "Return all vault asset addresses in order"
      },
      "getAllStrategies()": {
        "notice": "Return the array of all strategies"
      },
      "getAssetConfig(address)": {
        "notice": "Gets the vault configuration of a supported asset."
      },
      "getAssetCount()": {
        "notice": "Return the number of assets supported by the Vault."
      },
      "getStrategyCount()": {
        "notice": "Return the number of strategies active on the Vault."
      },
      "governor()": {
        "notice": "Returns the address of the current Governor."
      },
      "isGovernor()": {
        "notice": "Returns true if the caller is the current Governor."
      },
      "isSupportedAsset(address)": {
        "notice": "Returns whether the vault supports the asset"
      },
      "maxSupplyDiff()": {
        "notice": "Max difference between total supply and total value of assets. 18 decimals."
      },
      "mint(address,uint256,uint256)": {
        "notice": "Deposit a supported asset and mint OTokens."
      },
      "mintForStrategy(uint256)": {
        "notice": "Mint OTokens for a Metapool Strategy"
      },
      "netOusdMintForStrategyThreshold()": {
        "notice": "How much net total OTokens are allowed to be minted by all strategies"
      },
      "netOusdMintedForStrategy()": {
        "notice": "How much OTokens are currently minted by the strategy"
      },
      "ousdMetaStrategy()": {
        "notice": "Metapool strategy that is allowed to mint/burn OTokens without changing collateral"
      },
      "priceProvider()": {
        "notice": "Address of the Oracle price provider contract"
      },
      "priceUnitMint(address)": {
        "notice": "Returns the total price in 18 digit units for a given asset.      Never goes above 1, since that is how we price mints."
      },
      "priceUnitRedeem(address)": {
        "notice": "Returns the total price in 18 digit unit for a given asset.      Never goes below 1, since that is how we price redeems"
      },
      "rebase()": {
        "notice": "Calculate the total value of assets held by the Vault and all      strategies and update the supply of OTokens."
      },
      "rebasePaused()": {
        "notice": "pause rebasing if true"
      },
      "rebaseThreshold()": {
        "notice": "OToken mints over this amount automatically rebase. 18 decimals."
      },
      "redeem(uint256,uint256)": {
        "notice": "Withdraw a supported asset and burn OTokens."
      },
      "redeemAll(uint256)": {
        "notice": "Withdraw a supported asset and burn all OTokens."
      },
      "redeemFeeBps()": {
        "notice": "Redemption fee in basis points. eg 50 = 0.5%"
      },
      "requestWithdrawal(uint256)": {
        "notice": "Request an asynchronous withdrawal of WETH in exchange for OETH. The OETH is burned on request and the WETH is transferred to the withdrawer on claim. This request can be claimed once the withdrawal queue's `claimable` amount is greater than or equal this request's `queued` amount. There is no minimum time or block number before a request can be claimed. It just needs enough WETH liquidity in the Vault to satisfy all the outstanding requests to that point in the queue. OETH is converted to WETH at 1:1."
      },
      "setAdminImpl(address)": {
        "notice": "set the implementation for the admin, this needs to be in a base class else we cannot set it"
      },
      "strategistAddr()": {
        "notice": "Address of the Strategist"
      },
      "totalValue()": {
        "notice": "Determine the total value of assets held by the vault and its         strategies."
      },
      "transferGovernance(address)": {
        "notice": "Transfers Governance of the contract to a new account (`newGovernor`). Can only be called by the current Governor. Must be claimed for this to complete"
      },
      "trusteeAddress()": {
        "notice": "Trustee contract that can collect a percentage of yield"
      },
      "trusteeFeeBps()": {
        "notice": "Amount of yield collected in basis points. eg 2000 = 20%"
      },
      "vaultBuffer()": {
        "notice": "Percentage of assets to keep in Vault to handle (most) withdrawals. 100% = 1e18."
      },
      "withdrawalQueueMetadata()": {
        "notice": "Global metadata for the withdrawal queue including: queued - cumulative total of all withdrawal requests included the ones that have already been claimed claimable - cumulative total of all the requests that can be claimed including the ones already claimed claimed - total of all the requests that have been claimed nextWithdrawalIndex - index of the next withdrawal request starting at 0"
      },
      "withdrawalRequests(uint256)": {
        "notice": "Mapping of withdrawal request indices to the user withdrawal request data"
      }
    },
    "version": 1
  },
  "storageLayout": {
    "storage": [
      {
        "astId": 43372,
        "contract": "contracts/vault/OETHVaultCore.sol:OETHVaultCore",
        "label": "initialized",
        "offset": 0,
        "slot": "0",
        "type": "t_bool"
      },
      {
        "astId": 43375,
        "contract": "contracts/vault/OETHVaultCore.sol:OETHVaultCore",
        "label": "initializing",
        "offset": 1,
        "slot": "0",
        "type": "t_bool"
      },
      {
        "astId": 43415,
        "contract": "contracts/vault/OETHVaultCore.sol:OETHVaultCore",
        "label": "______gap",
        "offset": 0,
        "slot": "1",
        "type": "t_array(t_uint256)50_storage"
      },
      {
        "astId": 49292,
        "contract": "contracts/vault/OETHVaultCore.sol:OETHVaultCore",
        "label": "assets",
        "offset": 0,
        "slot": "51",
        "type": "t_mapping(t_address,t_struct(Asset)49286_storage)"
      },
      {
        "astId": 49296,
        "contract": "contracts/vault/OETHVaultCore.sol:OETHVaultCore",
        "label": "allAssets",
        "offset": 0,
        "slot": "52",
        "type": "t_array(t_address)dyn_storage"
      },
      {
        "astId": 49307,
        "contract": "contracts/vault/OETHVaultCore.sol:OETHVaultCore",
        "label": "strategies",
        "offset": 0,
        "slot": "53",
        "type": "t_mapping(t_address,t_struct(Strategy)49301_storage)"
      },
      {
        "astId": 49311,
        "contract": "contracts/vault/OETHVaultCore.sol:OETHVaultCore",
        "label": "allStrategies",
        "offset": 0,
        "slot": "54",
        "type": "t_array(t_address)dyn_storage"
      },
      {
        "astId": 49314,
        "contract": "contracts/vault/OETHVaultCore.sol:OETHVaultCore",
        "label": "priceProvider",
        "offset": 0,
        "slot": "55",
        "type": "t_address"
      },
      {
        "astId": 49318,
        "contract": "contracts/vault/OETHVaultCore.sol:OETHVaultCore",
        "label": "rebasePaused",
        "offset": 20,
        "slot": "55",
        "type": "t_bool"
      },
      {
        "astId": 49322,
        "contract": "contracts/vault/OETHVaultCore.sol:OETHVaultCore",
        "label": "capitalPaused",
        "offset": 21,
        "slot": "55",
        "type": "t_bool"
      },
      {
        "astId": 49325,
        "contract": "contracts/vault/OETHVaultCore.sol:OETHVaultCore",
        "label": "redeemFeeBps",
        "offset": 0,
        "slot": "56",
        "type": "t_uint256"
      },
      {
        "astId": 49328,
        "contract": "contracts/vault/OETHVaultCore.sol:OETHVaultCore",
        "label": "vaultBuffer",
        "offset": 0,
        "slot": "57",
        "type": "t_uint256"
      },
      {
        "astId": 49331,
        "contract": "contracts/vault/OETHVaultCore.sol:OETHVaultCore",
        "label": "autoAllocateThreshold",
        "offset": 0,
        "slot": "58",
        "type": "t_uint256"
      },
      {
        "astId": 49334,
        "contract": "contracts/vault/OETHVaultCore.sol:OETHVaultCore",
        "label": "rebaseThreshold",
        "offset": 0,
        "slot": "59",
        "type": "t_uint256"
      },
      {
        "astId": 49338,
        "contract": "contracts/vault/OETHVaultCore.sol:OETHVaultCore",
        "label": "oUSD",
        "offset": 0,
        "slot": "60",
        "type": "t_contract(OUSD)42033"
      },
      {
        "astId": 49347,
        "contract": "contracts/vault/OETHVaultCore.sol:OETHVaultCore",
        "label": "_deprecated_rebaseHooksAddr",
        "offset": 0,
        "slot": "61",
        "type": "t_address"
      },
      {
        "astId": 49353,
        "contract": "contracts/vault/OETHVaultCore.sol:OETHVaultCore",
        "label": "_deprecated_uniswapAddr",
        "offset": 0,
        "slot": "62",
        "type": "t_address"
      },
      {
        "astId": 49360,
        "contract": "contracts/vault/OETHVaultCore.sol:OETHVaultCore",
        "label": "strategistAddr",
        "offset": 0,
        "slot": "63",
        "type": "t_address"
      },
      {
        "astId": 49365,
        "contract": "contracts/vault/OETHVaultCore.sol:OETHVaultCore",
        "label": "assetDefaultStrategies",
        "offset": 0,
        "slot": "64",
        "type": "t_mapping(t_address,t_address)"
      },
      {
        "astId": 49368,
        "contract": "contracts/vault/OETHVaultCore.sol:OETHVaultCore",
        "label": "maxSupplyDiff",
        "offset": 0,
        "slot": "65",
        "type": "t_uint256"
      },
      {
        "astId": 49371,
        "contract": "contracts/vault/OETHVaultCore.sol:OETHVaultCore",
        "label": "trusteeAddress",
        "offset": 0,
        "slot": "66",
        "type": "t_address"
      },
      {
        "astId": 49374,
        "contract": "contracts/vault/OETHVaultCore.sol:OETHVaultCore",
        "label": "trusteeFeeBps",
        "offset": 0,
        "slot": "67",
        "type": "t_uint256"
      },
      {
        "astId": 49378,
        "contract": "contracts/vault/OETHVaultCore.sol:OETHVaultCore",
        "label": "_deprecated_swapTokens",
        "offset": 0,
        "slot": "68",
        "type": "t_array(t_address)dyn_storage"
      },
      {
        "astId": 49384,
        "contract": "contracts/vault/OETHVaultCore.sol:OETHVaultCore",
        "label": "ousdMetaStrategy",
        "offset": 0,
        "slot": "69",
        "type": "t_address"
      },
      {
        "astId": 49387,
        "contract": "contracts/vault/OETHVaultCore.sol:OETHVaultCore",
        "label": "netOusdMintedForStrategy",
        "offset": 0,
        "slot": "70",
        "type": "t_int256"
      },
      {
        "astId": 49390,
        "contract": "contracts/vault/OETHVaultCore.sol:OETHVaultCore",
        "label": "netOusdMintForStrategyThreshold",
        "offset": 0,
        "slot": "71",
        "type": "t_uint256"
      },
      {
        "astId": 49411,
        "contract": "contracts/vault/OETHVaultCore.sol:OETHVaultCore",
        "label": "swapConfig",
        "offset": 0,
        "slot": "72",
        "type": "t_struct(SwapConfig)49401_storage"
      },
      {
        "astId": 49415,
        "contract": "contracts/vault/OETHVaultCore.sol:OETHVaultCore",
        "label": "isMintWhitelistedStrategy",
        "offset": 0,
        "slot": "73",
        "type": "t_mapping(t_address,t_bool)"
      },
      {
        "astId": 49418,
        "contract": "contracts/vault/OETHVaultCore.sol:OETHVaultCore",
        "label": "dripper",
        "offset": 0,
        "slot": "74",
        "type": "t_address"
      },
      {
        "astId": 49431,
        "contract": "contracts/vault/OETHVaultCore.sol:OETHVaultCore",
        "label": "withdrawalQueueMetadata",
        "offset": 0,
        "slot": "75",
        "type": "t_struct(WithdrawalQueueMetadata)49427_storage"
      },
      {
        "astId": 49448,
        "contract": "contracts/vault/OETHVaultCore.sol:OETHVaultCore",
        "label": "withdrawalRequests",
        "offset": 0,
        "slot": "77",
        "type": "t_mapping(t_uint256,t_struct(WithdrawalRequest)49442_storage)"
      },
      {
        "astId": 49452,
        "contract": "contracts/vault/OETHVaultCore.sol:OETHVaultCore",
        "label": "__gap",
        "offset": 0,
        "slot": "78",
        "type": "t_array(t_uint256)45_storage"
      },
      {
        "astId": 44752,
        "contract": "contracts/vault/OETHVaultCore.sol:OETHVaultCore",
        "label": "wethAssetIndex",
        "offset": 0,
        "slot": "123",
        "type": "t_uint256"
      },
      {
        "astId": 44756,
        "contract": "contracts/vault/OETHVaultCore.sol:OETHVaultCore",
        "label": "__gap",
        "offset": 0,
        "slot": "124",
        "type": "t_array(t_uint256)50_storage"
      }
    ],
    "types": {
      "t_address": {
        "encoding": "inplace",
        "label": "address",
        "numberOfBytes": "20"
      },
      "t_array(t_address)dyn_storage": {
        "base": "t_address",
        "encoding": "dynamic_array",
        "label": "address[]",
        "numberOfBytes": "32"
      },
      "t_array(t_uint256)45_storage": {
        "base": "t_uint256",
        "encoding": "inplace",
        "label": "uint256[45]",
        "numberOfBytes": "1440"
      },
      "t_array(t_uint256)50_storage": {
        "base": "t_uint256",
        "encoding": "inplace",
        "label": "uint256[50]",
        "numberOfBytes": "1600"
      },
      "t_bool": {
        "encoding": "inplace",
        "label": "bool",
        "numberOfBytes": "1"
      },
      "t_contract(OUSD)42033": {
        "encoding": "inplace",
        "label": "contract OUSD",
        "numberOfBytes": "20"
      },
      "t_enum(UnitConversion)49276": {
        "encoding": "inplace",
        "label": "enum VaultStorage.UnitConversion",
        "numberOfBytes": "1"
      },
      "t_int256": {
        "encoding": "inplace",
        "label": "int256",
        "numberOfBytes": "32"
      },
      "t_mapping(t_address,t_address)": {
        "encoding": "mapping",
        "key": "t_address",
        "label": "mapping(address => address)",
        "numberOfBytes": "32",
        "value": "t_address"
      },
      "t_mapping(t_address,t_bool)": {
        "encoding": "mapping",
        "key": "t_address",
        "label": "mapping(address => bool)",
        "numberOfBytes": "32",
        "value": "t_bool"
      },
      "t_mapping(t_address,t_struct(Asset)49286_storage)": {
        "encoding": "mapping",
        "key": "t_address",
        "label": "mapping(address => struct VaultStorage.Asset)",
        "numberOfBytes": "32",
        "value": "t_struct(Asset)49286_storage"
      },
      "t_mapping(t_address,t_struct(Strategy)49301_storage)": {
        "encoding": "mapping",
        "key": "t_address",
        "label": "mapping(address => struct VaultStorage.Strategy)",
        "numberOfBytes": "32",
        "value": "t_struct(Strategy)49301_storage"
      },
      "t_mapping(t_uint256,t_struct(WithdrawalRequest)49442_storage)": {
        "encoding": "mapping",
        "key": "t_uint256",
        "label": "mapping(uint256 => struct VaultStorage.WithdrawalRequest)",
        "numberOfBytes": "32",
        "value": "t_struct(WithdrawalRequest)49442_storage"
      },
      "t_struct(Asset)49286_storage": {
        "encoding": "inplace",
        "label": "struct VaultStorage.Asset",
        "members": [
          {
            "astId": 49278,
            "contract": "contracts/vault/OETHVaultCore.sol:OETHVaultCore",
            "label": "isSupported",
            "offset": 0,
            "slot": "0",
            "type": "t_bool"
          },
          {
            "astId": 49281,
            "contract": "contracts/vault/OETHVaultCore.sol:OETHVaultCore",
            "label": "unitConversion",
            "offset": 1,
            "slot": "0",
            "type": "t_enum(UnitConversion)49276"
          },
          {
            "astId": 49283,
            "contract": "contracts/vault/OETHVaultCore.sol:OETHVaultCore",
            "label": "decimals",
            "offset": 2,
            "slot": "0",
            "type": "t_uint8"
          },
          {
            "astId": 49285,
            "contract": "contracts/vault/OETHVaultCore.sol:OETHVaultCore",
            "label": "allowedOracleSlippageBps",
            "offset": 3,
            "slot": "0",
            "type": "t_uint16"
          }
        ],
        "numberOfBytes": "32"
      },
      "t_struct(Strategy)49301_storage": {
        "encoding": "inplace",
        "label": "struct VaultStorage.Strategy",
        "members": [
          {
            "astId": 49298,
            "contract": "contracts/vault/OETHVaultCore.sol:OETHVaultCore",
            "label": "isSupported",
            "offset": 0,
            "slot": "0",
            "type": "t_bool"
          },
          {
            "astId": 49300,
            "contract": "contracts/vault/OETHVaultCore.sol:OETHVaultCore",
            "label": "_deprecated",
            "offset": 0,
            "slot": "1",
            "type": "t_uint256"
          }
        ],
        "numberOfBytes": "64"
      },
      "t_struct(SwapConfig)49401_storage": {
        "encoding": "inplace",
        "label": "struct VaultStorage.SwapConfig",
        "members": [
          {
            "astId": 49398,
            "contract": "contracts/vault/OETHVaultCore.sol:OETHVaultCore",
            "label": "swapper",
            "offset": 0,
            "slot": "0",
            "type": "t_address"
          },
          {
            "astId": 49400,
            "contract": "contracts/vault/OETHVaultCore.sol:OETHVaultCore",
            "label": "allowedUndervalueBps",
            "offset": 20,
            "slot": "0",
            "type": "t_uint16"
          }
        ],
        "numberOfBytes": "32"
      },
      "t_struct(WithdrawalQueueMetadata)49427_storage": {
        "encoding": "inplace",
        "label": "struct VaultStorage.WithdrawalQueueMetadata",
        "members": [
          {
            "astId": 49420,
            "contract": "contracts/vault/OETHVaultCore.sol:OETHVaultCore",
            "label": "queued",
            "offset": 0,
            "slot": "0",
            "type": "t_uint128"
          },
          {
            "astId": 49422,
            "contract": "contracts/vault/OETHVaultCore.sol:OETHVaultCore",
            "label": "claimable",
            "offset": 16,
            "slot": "0",
            "type": "t_uint128"
          },
          {
            "astId": 49424,
            "contract": "contracts/vault/OETHVaultCore.sol:OETHVaultCore",
            "label": "claimed",
            "offset": 0,
            "slot": "1",
            "type": "t_uint128"
          },
          {
            "astId": 49426,
            "contract": "contracts/vault/OETHVaultCore.sol:OETHVaultCore",
            "label": "nextWithdrawalIndex",
            "offset": 16,
            "slot": "1",
            "type": "t_uint128"
          }
        ],
        "numberOfBytes": "64"
      },
      "t_struct(WithdrawalRequest)49442_storage": {
        "encoding": "inplace",
        "label": "struct VaultStorage.WithdrawalRequest",
        "members": [
          {
            "astId": 49433,
            "contract": "contracts/vault/OETHVaultCore.sol:OETHVaultCore",
            "label": "withdrawer",
            "offset": 0,
            "slot": "0",
            "type": "t_address"
          },
          {
            "astId": 49435,
            "contract": "contracts/vault/OETHVaultCore.sol:OETHVaultCore",
            "label": "claimed",
            "offset": 20,
            "slot": "0",
            "type": "t_bool"
          },
          {
            "astId": 49437,
            "contract": "contracts/vault/OETHVaultCore.sol:OETHVaultCore",
            "label": "timestamp",
            "offset": 21,
            "slot": "0",
            "type": "t_uint40"
          },
          {
            "astId": 49439,
            "contract": "contracts/vault/OETHVaultCore.sol:OETHVaultCore",
            "label": "amount",
            "offset": 0,
            "slot": "1",
            "type": "t_uint128"
          },
          {
            "astId": 49441,
            "contract": "contracts/vault/OETHVaultCore.sol:OETHVaultCore",
            "label": "queued",
            "offset": 16,
            "slot": "1",
            "type": "t_uint128"
          }
        ],
        "numberOfBytes": "64"
      },
      "t_uint128": {
        "encoding": "inplace",
        "label": "uint128",
        "numberOfBytes": "16"
      },
      "t_uint16": {
        "encoding": "inplace",
        "label": "uint16",
        "numberOfBytes": "2"
      },
      "t_uint256": {
        "encoding": "inplace",
        "label": "uint256",
        "numberOfBytes": "32"
      },
      "t_uint40": {
        "encoding": "inplace",
        "label": "uint40",
        "numberOfBytes": "5"
      },
      "t_uint8": {
        "encoding": "inplace",
        "label": "uint8",
        "numberOfBytes": "1"
      }
    }
  }
}