{
  "address": "0xEc5d0801fCDaf14E6F72a0FD877581e5b7617c87",
  "abi": [
    {
      "anonymous": false,
      "inputs": [
        {
          "indexed": false,
          "internalType": "address",
          "name": "account",
          "type": "address"
        }
      ],
      "name": "AccountRebasingDisabled",
      "type": "event"
    },
    {
      "anonymous": false,
      "inputs": [
        {
          "indexed": false,
          "internalType": "address",
          "name": "account",
          "type": "address"
        }
      ],
      "name": "AccountRebasingEnabled",
      "type": "event"
    },
    {
      "anonymous": false,
      "inputs": [
        {
          "indexed": true,
          "internalType": "address",
          "name": "owner",
          "type": "address"
        },
        {
          "indexed": true,
          "internalType": "address",
          "name": "spender",
          "type": "address"
        },
        {
          "indexed": false,
          "internalType": "uint256",
          "name": "value",
          "type": "uint256"
        }
      ],
      "name": "Approval",
      "type": "event"
    },
    {
      "anonymous": false,
      "inputs": [
        {
          "indexed": true,
          "internalType": "address",
          "name": "previousGovernor",
          "type": "address"
        },
        {
          "indexed": true,
          "internalType": "address",
          "name": "newGovernor",
          "type": "address"
        }
      ],
      "name": "GovernorshipTransferred",
      "type": "event"
    },
    {
      "anonymous": false,
      "inputs": [
        {
          "indexed": true,
          "internalType": "address",
          "name": "previousGovernor",
          "type": "address"
        },
        {
          "indexed": true,
          "internalType": "address",
          "name": "newGovernor",
          "type": "address"
        }
      ],
      "name": "PendingGovernorshipTransfer",
      "type": "event"
    },
    {
      "anonymous": false,
      "inputs": [
        {
          "indexed": false,
          "internalType": "uint256",
          "name": "totalSupply",
          "type": "uint256"
        },
        {
          "indexed": false,
          "internalType": "uint256",
          "name": "rebasingCredits",
          "type": "uint256"
        },
        {
          "indexed": false,
          "internalType": "uint256",
          "name": "rebasingCreditsPerToken",
          "type": "uint256"
        }
      ],
      "name": "TotalSupplyUpdatedHighres",
      "type": "event"
    },
    {
      "anonymous": false,
      "inputs": [
        {
          "indexed": true,
          "internalType": "address",
          "name": "from",
          "type": "address"
        },
        {
          "indexed": true,
          "internalType": "address",
          "name": "to",
          "type": "address"
        },
        {
          "indexed": false,
          "internalType": "uint256",
          "name": "value",
          "type": "uint256"
        }
      ],
      "name": "Transfer",
      "type": "event"
    },
    {
      "inputs": [],
      "name": "_totalSupply",
      "outputs": [
        {
          "internalType": "uint256",
          "name": "",
          "type": "uint256"
        }
      ],
      "stateMutability": "view",
      "type": "function"
    },
    {
      "inputs": [
        {
          "internalType": "address",
          "name": "_owner",
          "type": "address"
        },
        {
          "internalType": "address",
          "name": "_spender",
          "type": "address"
        }
      ],
      "name": "allowance",
      "outputs": [
        {
          "internalType": "uint256",
          "name": "",
          "type": "uint256"
        }
      ],
      "stateMutability": "view",
      "type": "function"
    },
    {
      "inputs": [
        {
          "internalType": "address",
          "name": "_spender",
          "type": "address"
        },
        {
          "internalType": "uint256",
          "name": "_value",
          "type": "uint256"
        }
      ],
      "name": "approve",
      "outputs": [
        {
          "internalType": "bool",
          "name": "",
          "type": "bool"
        }
      ],
      "stateMutability": "nonpayable",
      "type": "function"
    },
    {
      "inputs": [
        {
          "internalType": "address",
          "name": "_account",
          "type": "address"
        }
      ],
      "name": "balanceOf",
      "outputs": [
        {
          "internalType": "uint256",
          "name": "",
          "type": "uint256"
        }
      ],
      "stateMutability": "view",
      "type": "function"
    },
    {
      "inputs": [
        {
          "internalType": "address",
          "name": "account",
          "type": "address"
        },
        {
          "internalType": "uint256",
          "name": "amount",
          "type": "uint256"
        }
      ],
      "name": "burn",
      "outputs": [],
      "stateMutability": "nonpayable",
      "type": "function"
    },
    {
      "inputs": [
        {
          "internalType": "uint256",
          "name": "_newTotalSupply",
          "type": "uint256"
        }
      ],
      "name": "changeSupply",
      "outputs": [],
      "stateMutability": "nonpayable",
      "type": "function"
    },
    {
      "inputs": [],
      "name": "claimGovernance",
      "outputs": [],
      "stateMutability": "nonpayable",
      "type": "function"
    },
    {
      "inputs": [
        {
          "internalType": "address",
          "name": "_account",
          "type": "address"
        }
      ],
      "name": "creditsBalanceOf",
      "outputs": [
        {
          "internalType": "uint256",
          "name": "",
          "type": "uint256"
        },
        {
          "internalType": "uint256",
          "name": "",
          "type": "uint256"
        }
      ],
      "stateMutability": "view",
      "type": "function"
    },
    {
      "inputs": [
        {
          "internalType": "address",
          "name": "_account",
          "type": "address"
        }
      ],
      "name": "creditsBalanceOfHighres",
      "outputs": [
        {
          "internalType": "uint256",
          "name": "",
          "type": "uint256"
        },
        {
          "internalType": "uint256",
          "name": "",
          "type": "uint256"
        },
        {
          "internalType": "bool",
          "name": "",
          "type": "bool"
        }
      ],
      "stateMutability": "view",
      "type": "function"
    },
    {
      "inputs": [],
      "name": "decimals",
      "outputs": [
        {
          "internalType": "uint8",
          "name": "",
          "type": "uint8"
        }
      ],
      "stateMutability": "view",
      "type": "function"
    },
    {
      "inputs": [
        {
          "internalType": "address",
          "name": "_spender",
          "type": "address"
        },
        {
          "internalType": "uint256",
          "name": "_subtractedValue",
          "type": "uint256"
        }
      ],
      "name": "decreaseAllowance",
      "outputs": [
        {
          "internalType": "bool",
          "name": "",
          "type": "bool"
        }
      ],
      "stateMutability": "nonpayable",
      "type": "function"
    },
    {
      "inputs": [
        {
          "internalType": "address",
          "name": "_account",
          "type": "address"
        }
      ],
      "name": "governanceRebaseOptIn",
      "outputs": [],
      "stateMutability": "nonpayable",
      "type": "function"
    },
    {
      "inputs": [],
      "name": "governor",
      "outputs": [
        {
          "internalType": "address",
          "name": "",
          "type": "address"
        }
      ],
      "stateMutability": "view",
      "type": "function"
    },
    {
      "inputs": [
        {
          "internalType": "address",
          "name": "_spender",
          "type": "address"
        },
        {
          "internalType": "uint256",
          "name": "_addedValue",
          "type": "uint256"
        }
      ],
      "name": "increaseAllowance",
      "outputs": [
        {
          "internalType": "bool",
          "name": "",
          "type": "bool"
        }
      ],
      "stateMutability": "nonpayable",
      "type": "function"
    },
    {
      "inputs": [
        {
          "internalType": "string",
          "name": "_nameArg",
          "type": "string"
        },
        {
          "internalType": "string",
          "name": "_symbolArg",
          "type": "string"
        },
        {
          "internalType": "address",
          "name": "_vaultAddress",
          "type": "address"
        },
        {
          "internalType": "uint256",
          "name": "_initialCreditsPerToken",
          "type": "uint256"
        }
      ],
      "name": "initialize",
      "outputs": [],
      "stateMutability": "nonpayable",
      "type": "function"
    },
    {
      "inputs": [],
      "name": "isGovernor",
      "outputs": [
        {
          "internalType": "bool",
          "name": "",
          "type": "bool"
        }
      ],
      "stateMutability": "view",
      "type": "function"
    },
    {
      "inputs": [
        {
          "internalType": "address",
          "name": "",
          "type": "address"
        }
      ],
      "name": "isUpgraded",
      "outputs": [
        {
          "internalType": "uint256",
          "name": "",
          "type": "uint256"
        }
      ],
      "stateMutability": "view",
      "type": "function"
    },
    {
      "inputs": [
        {
          "internalType": "address",
          "name": "_account",
          "type": "address"
        },
        {
          "internalType": "uint256",
          "name": "_amount",
          "type": "uint256"
        }
      ],
      "name": "mint",
      "outputs": [],
      "stateMutability": "nonpayable",
      "type": "function"
    },
    {
      "inputs": [],
      "name": "name",
      "outputs": [
        {
          "internalType": "string",
          "name": "",
          "type": "string"
        }
      ],
      "stateMutability": "view",
      "type": "function"
    },
    {
      "inputs": [
        {
          "internalType": "address",
          "name": "",
          "type": "address"
        }
      ],
      "name": "nonRebasingCreditsPerToken",
      "outputs": [
        {
          "internalType": "uint256",
          "name": "",
          "type": "uint256"
        }
      ],
      "stateMutability": "view",
      "type": "function"
    },
    {
      "inputs": [],
      "name": "nonRebasingSupply",
      "outputs": [
        {
          "internalType": "uint256",
          "name": "",
          "type": "uint256"
        }
      ],
      "stateMutability": "view",
      "type": "function"
    },
    {
      "inputs": [],
      "name": "rebaseOptIn",
      "outputs": [],
      "stateMutability": "nonpayable",
      "type": "function"
    },
    {
      "inputs": [],
      "name": "rebaseOptOut",
      "outputs": [],
      "stateMutability": "nonpayable",
      "type": "function"
    },
    {
      "inputs": [
        {
          "internalType": "address",
          "name": "",
          "type": "address"
        }
      ],
      "name": "rebaseState",
      "outputs": [
        {
          "internalType": "enum OUSD.RebaseOptions",
          "name": "",
          "type": "uint8"
        }
      ],
      "stateMutability": "view",
      "type": "function"
    },
    {
      "inputs": [],
      "name": "rebasingCredits",
      "outputs": [
        {
          "internalType": "uint256",
          "name": "",
          "type": "uint256"
        }
      ],
      "stateMutability": "view",
      "type": "function"
    },
    {
      "inputs": [],
      "name": "rebasingCreditsHighres",
      "outputs": [
        {
          "internalType": "uint256",
          "name": "",
          "type": "uint256"
        }
      ],
      "stateMutability": "view",
      "type": "function"
    },
    {
      "inputs": [],
      "name": "rebasingCreditsPerToken",
      "outputs": [
        {
          "internalType": "uint256",
          "name": "",
          "type": "uint256"
        }
      ],
      "stateMutability": "view",
      "type": "function"
    },
    {
      "inputs": [],
      "name": "rebasingCreditsPerTokenHighres",
      "outputs": [
        {
          "internalType": "uint256",
          "name": "",
          "type": "uint256"
        }
      ],
      "stateMutability": "view",
      "type": "function"
    },
    {
      "inputs": [],
      "name": "symbol",
      "outputs": [
        {
          "internalType": "string",
          "name": "",
          "type": "string"
        }
      ],
      "stateMutability": "view",
      "type": "function"
    },
    {
      "inputs": [],
      "name": "totalSupply",
      "outputs": [
        {
          "internalType": "uint256",
          "name": "",
          "type": "uint256"
        }
      ],
      "stateMutability": "view",
      "type": "function"
    },
    {
      "inputs": [
        {
          "internalType": "address",
          "name": "_to",
          "type": "address"
        },
        {
          "internalType": "uint256",
          "name": "_value",
          "type": "uint256"
        }
      ],
      "name": "transfer",
      "outputs": [
        {
          "internalType": "bool",
          "name": "",
          "type": "bool"
        }
      ],
      "stateMutability": "nonpayable",
      "type": "function"
    },
    {
      "inputs": [
        {
          "internalType": "address",
          "name": "_from",
          "type": "address"
        },
        {
          "internalType": "address",
          "name": "_to",
          "type": "address"
        },
        {
          "internalType": "uint256",
          "name": "_value",
          "type": "uint256"
        }
      ],
      "name": "transferFrom",
      "outputs": [
        {
          "internalType": "bool",
          "name": "",
          "type": "bool"
        }
      ],
      "stateMutability": "nonpayable",
      "type": "function"
    },
    {
      "inputs": [
        {
          "internalType": "address",
          "name": "_newGovernor",
          "type": "address"
        }
      ],
      "name": "transferGovernance",
      "outputs": [],
      "stateMutability": "nonpayable",
      "type": "function"
    },
    {
      "inputs": [],
      "name": "vaultAddress",
      "outputs": [
        {
          "internalType": "address",
          "name": "",
          "type": "address"
        }
      ],
      "stateMutability": "view",
      "type": "function"
    }
  ],
  "transactionHash": "0xecb054abf518b4b7669f98e8d3ca2075137c400569970a221678b7d99088d1a4",
  "args": [],
  "numDeployments": 2,
  "solcInputHash": "1f64d475987afcfdfd68658dbcb40f20",
  "bytecode": "0x6080604052609c80546001600160a01b031916905534801561002057600080fd5b506100373360008051602061213d83398151915255565b60008051602061213d833981519152546040516001600160a01b03909116906000907fc7c0c772add429241571afb3805861fb3cfa2af374534088b76cdb4325a87e9a908290a36120b08061008d6000396000f3fe608060405234801561001057600080fd5b50600436106102065760003560e01c80637a46a9c51161011a578063c2376dff116100ad578063e5c4fffe1161007c578063e5c4fffe1461045c578063e696393a1461048c578063f51b0fd414610495578063f542033f1461049d578063f9854bfc146104b057600080fd5b8063c2376dff14610400578063c7af335214610408578063d38bfff414610410578063dd62ed3e1461042357600080fd5b80639dc29fac116100e95780639dc29fac146103b4578063a457c2d7146103c7578063a9059cbb146103da578063baa9c9db146103ed57600080fd5b80637a46a9c51461037c5780637d0d66ff1461038457806395d89b411461038c57806395ef84b91461039457600080fd5b806339a7919f1161019d578063456ee2861161016c578063456ee286146103095780635d36b19014610339578063609350cd146103415780636691cb3d1461036157806370a082311461036957600080fd5b806339a7919f146102c55780633eaaf86b146102da57806340c10f19146102e3578063430bf08a146102f657600080fd5b806318160ddd116101d957806318160ddd1461028257806323b872dd1461028a578063313ce5671461029d57806339509351146102b257600080fd5b806306fdde031461020b578063077f22b714610229578063095ea7b31461023f5780630c340a2414610262575b600080fd5b6102136104d8565b6040516102209190611e58565b60405180910390f35b61023161056a565b604051908152602001610220565b61025261024d366004611d64565b610583565b6040519015158152602001610220565b61026a6105ef565b6040516001600160a01b039091168152602001610220565b609a54610231565b610252610298366004611d28565b610607565b60995460405160ff9091168152602001610220565b6102526102c0366004611d64565b610759565b6102d86102d3366004611e17565b6107de565b005b610231609a5481565b6102d86102f1366004611d64565b6109e7565b609c5461026a906001600160a01b031681565b61032c610317366004611cda565b60a26020526000908152604090205460ff1681565b6040516102209190611e30565b6102d8610a1f565b61023161034f366004611cda565b60a16020526000908152604090205481565b610231610ac5565b610231610377366004611cda565b610ad9565b609f54610231565b609e54610231565b610213610b2f565b6102316103a2366004611cda565b60a36020526000908152604090205481565b6102d86103c2366004611d64565b610b3e565b6102526103d5366004611d64565b610b72565b6102526103e8366004611d64565b610c59565b6102d86103fb366004611cda565b610d3a565b6102d8610d9d565b610252610ec4565b6102d861041e366004611cda565b610ef5565b610231610431366004611cf5565b6001600160a01b039182166000908152609b6020908152604080832093909416825291909152205490565b61046f61046a366004611cda565b610f99565b604080519384526020840192909252151590820152606001610220565b61023160a05481565b6102d8610fe8565b6102d86104ab366004611d8e565b61102e565b6104c36104be366004611cda565b6111a1565b60408051928352602083019190915201610220565b6060609780546104e790611fb3565b80601f016020809104026020016040519081016040528092919081815260200182805461051390611fb3565b80156105605780601f1061053557610100808354040283529160200191610560565b820191906000526020600020905b81548152906001019060200180831161054357829003601f168201915b5050505050905090565b6000633b9aca00609e5461057e9190611f5b565b905090565b336000818152609b602090815260408083206001600160a01b038716808552925280832085905551919290917f8c5be1e5ebec7d5bd14f71427d1e84f3dd0314c0f7b2291e5b200ac8c7c3b925906105de9086815260200190565b60405180910390a350600192915050565b600061057e60008051602061205b8339815191525490565b60006001600160a01b03831661065f5760405162461bcd60e51b81526020600482015260186024820152775472616e7366657220746f207a65726f206164647265737360401b60448201526064015b60405180910390fd5b61066884610ad9565b8211156106b75760405162461bcd60e51b815260206004820152601d60248201527f5472616e736665722067726561746572207468616e2062616c616e63650000006044820152606401610656565b6001600160a01b0384166000908152609b602090815260408083203384529091529020546106e59083611225565b6001600160a01b0385166000908152609b60209081526040808320338452909152902055610714848484611238565b826001600160a01b0316846001600160a01b031660008051602061203b8339815191528460405161074791815260200190565b60405180910390a35060019392505050565b336000908152609b602090815260408083206001600160a01b038616845290915281205461078790836113a5565b336000818152609b602090815260408083206001600160a01b038916808552908352928190208590555193845290927f8c5be1e5ebec7d5bd14f71427d1e84f3dd0314c0f7b2291e5b200ac8c7c3b92591016105de565b609c546001600160a01b031633146108085760405162461bcd60e51b815260040161065690611ead565b60008051602061201b8339815191528054600281141561083a5760405162461bcd60e51b815260040161065690611f1b565b600282556000609a54116108905760405162461bcd60e51b815260206004820152601860248201527f43616e6e6f7420696e637265617365203020737570706c7900000000000000006044820152606401610656565b82609a5414156108e657609a54609e54609f5460408051938452602084019290925282820152517f41645eb819d3011b13f97696a8109d14bfcddfaca7d063ec0564d62a3e2572359181900360600190a16109df565b6001600160801b0383116108fa5782610903565b6001600160801b035b609a81905560a0546109219161091891611225565b609e54906113b1565b609f8190556109725760405162461bcd60e51b815260206004820152601860248201527f496e76616c6964206368616e676520696e20737570706c7900000000000000006044820152606401610656565b61099560a05461098f609f54609e546113b190919063ffffffff16565b906113a5565b609a819055609e54609f5460408051938452602084019290925282820152517f41645eb819d3011b13f97696a8109d14bfcddfaca7d063ec0564d62a3e2572359181900360600190a15b506001905550565b609c546001600160a01b03163314610a115760405162461bcd60e51b815260040161065690611ead565b610a1b82826113da565b5050565b7f44c4d30b2eaad5130ad70c3ba6972730566f3e6359ab83e800d905c61b1c51db546001600160a01b0316336001600160a01b031614610aba5760405162461bcd60e51b815260206004820152603060248201527f4f6e6c79207468652070656e64696e6720476f7665726e6f722063616e20636f60448201526f6d706c6574652074686520636c61696d60801b6064820152608401610656565b610ac33361157b565b565b6000633b9aca00609f5461057e9190611f5b565b6001600160a01b0381166000908152609d6020526040812054610afe57506000919050565b610b29610b0a8361163f565b6001600160a01b0384166000908152609d6020526040902054906113b1565b92915050565b6060609880546104e790611fb3565b609c546001600160a01b03163314610b685760405162461bcd60e51b815260040161065690611ead565b610a1b8282611686565b336000908152609b602090815260408083206001600160a01b0386168452909152812054808310610bc657336000908152609b602090815260408083206001600160a01b0388168452909152812055610bf5565b610bd08184611225565b336000908152609b602090815260408083206001600160a01b03891684529091529020555b336000818152609b602090815260408083206001600160a01b038916808552908352928190205490519081529192917f8c5be1e5ebec7d5bd14f71427d1e84f3dd0314c0f7b2291e5b200ac8c7c3b925910160405180910390a35060019392505050565b60006001600160a01b038316610cac5760405162461bcd60e51b81526020600482015260186024820152775472616e7366657220746f207a65726f206164647265737360401b6044820152606401610656565b610cb533610ad9565b821115610d045760405162461bcd60e51b815260206004820152601d60248201527f5472616e736665722067726561746572207468616e2062616c616e63650000006044820152606401610656565b610d0f338484611238565b6040518281526001600160a01b03841690339060008051602061203b833981519152906020016105de565b60008051602061201b83398151915280546002811415610d6c5760405162461bcd60e51b815260040161065690611f1b565b60028255610d78610ec4565b610d945760405162461bcd60e51b815260040161065690611ee4565b6109df8361188f565b60008051602061201b83398151915280546002811415610dcf5760405162461bcd60e51b815260040161065690611f1b565b60028255610ddc336119c7565b15610e295760405162461bcd60e51b815260206004820152601860248201527f4163636f756e7420686173206e6f74206f7074656420696e00000000000000006044820152606401610656565b610e3e610e3533610ad9565b60a054906113a5565b60a055609f5433600090815260a16020908152604080832093909355609d90522054609e54610e6c91611225565b609e5533600081815260a26020908152604091829020805460ff1916600117905590519182527f201ace89ad3f5ab7428b91989f6a50d1998791c7b94a0fa812fd64a57687165e910160405180910390a15060019055565b6000610edc60008051602061205b8339815191525490565b6001600160a01b0316336001600160a01b031614905090565b610efd610ec4565b610f195760405162461bcd60e51b815260040161065690611ee4565b610f41817f44c4d30b2eaad5130ad70c3ba6972730566f3e6359ab83e800d905c61b1c51db55565b806001600160a01b0316610f6160008051602061205b8339815191525490565b6001600160a01b03167fa39cc5eb22d0f34d8beaefee8a3f17cc229c1a1d1ef87a5ad47313487b1c4f0d60405160405180910390a350565b6001600160a01b0381166000908152609d602052604081205481908190610fbf8561163f565b6001600160a01b0395909516600090815260a36020526040902054909560019091149350915050565b60008051602061201b8339815191528054600281141561101a5760405162461bcd60e51b815260040161065690611f1b565b600282556110273361188f565b5060019055565b611036610ec4565b6110525760405162461bcd60e51b815260040161065690611ee4565b600054610100900460ff168061106b575060005460ff16155b6110ce5760405162461bcd60e51b815260206004820152602e60248201527f496e697469616c697a61626c653a20636f6e747261637420697320616c72656160448201526d191e481a5b9a5d1a585b1a5e995960921b6064820152608401610656565b600054610100900460ff161580156110f0576000805461ffff19166101011790555b61116687878080601f01602080910402602001604051908101604052809392919081815260200183838082843760009201919091525050604080516020601f8b01819004810282018101909252898152925089915088908190840183828082843760009201919091525060129250611a32915050565b609f829055609c80546001600160a01b0319166001600160a01b0385161790558015611198576000805461ff00191690555b50505050505050565b60008060006111af8461163f565b9050806b033b2e3c9fd0803ce800000014156111e5576001600160a01b039093166000908152609d602052604090205493915050565b6001600160a01b0384166000908152609d602052604090205461120d90633b9aca0090611f5b565b61121b633b9aca0083611f5b565b9250925050915091565b60006112318284611f9c565b9392505050565b6000611243836119c7565b90506000611250856119c7565b905060006112676112608661163f565b8590611a72565b9050600061127e6112778861163f565b8690611a72565b90506112ef816040518060400160405280601f81526020017f5472616e7366657220616d6f756e7420657863656564732062616c616e636500815250609d60008b6001600160a01b03166001600160a01b0316815260200190815260200160002054611a879092919063ffffffff16565b6001600160a01b038089166000908152609d6020526040808220939093559088168152205461131e90836113a5565b6001600160a01b0387166000908152609d6020526040902055838015611342575082155b1561136c5760a05461135490866113a5565b60a055609e546113649082611225565b609e55611198565b831580156113775750825b156111985760a0546113899086611225565b60a055609e5461139990836113a5565b609e5550505050505050565b60006112318284611f43565b6000806113c684670de0b6b3a7640000611ab3565b90506113d28184611abf565b949350505050565b60008051602061201b8339815191528054600281141561140c5760405162461bcd60e51b815260040161065690611f1b565b600282556001600160a01b0384166114665760405162461bcd60e51b815260206004820152601860248201527f4d696e7420746f20746865207a65726f206164647265737300000000000000006044820152606401610656565b6000611471856119c7565b905060006114816112778761163f565b6001600160a01b0387166000908152609d60205260409020549091506114a790826113a5565b6001600160a01b0387166000908152609d602052604090205581156114db5760a0546114d390866113a5565b60a0556114ec565b609e546114e890826113a5565b609e555b609a546114f990866113a5565b609a8190556001600160801b03116115405760405162461bcd60e51b815260206004820152600a6024820152694d617820737570706c7960b01b6044820152606401610656565b6040518581526001600160a01b0387169060009060008051602061203b8339815191529060200160405180910390a350506001825550505050565b6001600160a01b0381166115d15760405162461bcd60e51b815260206004820152601a60248201527f4e657720476f7665726e6f7220697320616464726573732830290000000000006044820152606401610656565b806001600160a01b03166115f160008051602061205b8339815191525490565b6001600160a01b03167fc7c0c772add429241571afb3805861fb3cfa2af374534088b76cdb4325a87e9a60405160405180910390a361163c8160008051602061205b83398151915255565b50565b6001600160a01b038116600090815260a160205260408120541561167957506001600160a01b0316600090815260a1602052604090205490565b5050609f5490565b919050565b60008051602061201b833981519152805460028114156116b85760405162461bcd60e51b815260040161065690611f1b565b600282556001600160a01b0384166117125760405162461bcd60e51b815260206004820152601a60248201527f4275726e2066726f6d20746865207a65726f20616464726573730000000000006044820152606401610656565b8261171c57611886565b6000611727856119c7565b905060006117376112778761163f565b6001600160a01b0387166000908152609d60205260409020549091508082148061176a575081611768600183611f9c565b145b1561178d576001600160a01b0387166000908152609d6020526040812055611817565b818111156117d6576001600160a01b0387166000908152609d60205260409020546117b89083611225565b6001600160a01b0388166000908152609d6020526040902055611817565b60405162461bcd60e51b815260206004820152601660248201527552656d6f766520657863656564732062616c616e636560501b6044820152606401610656565b82156118325760a05461182a9087611225565b60a055611843565b609e5461183f9083611225565b609e555b609a546118509087611225565b609a556040518681526000906001600160a01b0389169060008051602061203b8339815191529060200160405180910390a35050505b50600190555050565b611898816119c7565b6118e45760405162461bcd60e51b815260206004820152601960248201527f4163636f756e7420686173206e6f74206f70746564206f7574000000000000006044820152606401610656565b600061191d6118f28361163f565b609f546001600160a01b0385166000908152609d602052604090205461191791611ab3565b90611abf565b905061193461192b83610ad9565b60a05490611225565b60a0556001600160a01b0382166000908152609d60205260409020819055609e5461195f90826113a5565b609e556001600160a01b038216600081815260a260209081526040808320805460ff1916600217905560a182528083209290925590519182527f19a249fa2050bac8314ac10e3ad420bd9825574bf750f58810c3c7adfc7b1c6f910160405180910390a15050565b6000813b158015908190611a0557506001600160a01b038316600090815260a2602052604081205460ff166002811115611a0357611a03612004565b145b15611a1357611a1383611acb565b50506001600160a01b0316600090815260a16020526040902054151590565b8251611a45906097906020860190611be1565b508151611a59906098906020850190611be1565b506099805460ff191660ff929092169190911790555050565b60006112318383670de0b6b3a7640000611bbf565b60008184841115611aab5760405162461bcd60e51b81526004016106569190611e58565b505050900390565b60006112318284611f7d565b60006112318284611f5b565b6001600160a01b038116600090815260a1602052604090205461163c576040516001600160a01b03821681527f201ace89ad3f5ab7428b91989f6a50d1998791c7b94a0fa812fd64a57687165e9060200160405180910390a16001600160a01b0381166000908152609d6020526040902054611b69576001600160a01b0316600090815260a1602052604090206b033b2e3c9fd0803ce80000009055565b609f546001600160a01b038216600090815260a16020526040902055611b91610e3582610ad9565b60a0556001600160a01b0381166000908152609d6020526040902054609e54611bb991611225565b609e5550565b600080611bcc8585611ab3565b9050611bd88184611abf565b95945050505050565b828054611bed90611fb3565b90600052602060002090601f016020900481019282611c0f5760008555611c55565b82601f10611c2857805160ff1916838001178555611c55565b82800160010185558215611c55579182015b82811115611c55578251825591602001919060010190611c3a565b50611c61929150611c65565b5090565b5b80821115611c615760008155600101611c66565b80356001600160a01b038116811461168157600080fd5b60008083601f840112611ca357600080fd5b50813567ffffffffffffffff811115611cbb57600080fd5b602083019150836020828501011115611cd357600080fd5b9250929050565b600060208284031215611cec57600080fd5b61123182611c7a565b60008060408385031215611d0857600080fd5b611d1183611c7a565b9150611d1f60208401611c7a565b90509250929050565b600080600060608486031215611d3d57600080fd5b611d4684611c7a565b9250611d5460208501611c7a565b9150604084013590509250925092565b60008060408385031215611d7757600080fd5b611d8083611c7a565b946020939093013593505050565b60008060008060008060808789031215611da757600080fd5b863567ffffffffffffffff80821115611dbf57600080fd5b611dcb8a838b01611c91565b90985096506020890135915080821115611de457600080fd5b50611df189828a01611c91565b9095509350611e04905060408801611c7a565b9150606087013590509295509295509295565b600060208284031215611e2957600080fd5b5035919050565b6020810160038310611e5257634e487b7160e01b600052602160045260246000fd5b91905290565b600060208083528351808285015260005b81811015611e8557858101830151858201604001528201611e69565b81811115611e97576000604083870101525b50601f01601f1916929092016040019392505050565b60208082526017908201527f43616c6c6572206973206e6f7420746865205661756c74000000000000000000604082015260600190565b6020808252601a908201527f43616c6c6572206973206e6f742074686520476f7665726e6f72000000000000604082015260600190565b6020808252600e908201526d1499595b9d1c985b9d0818d85b1b60921b604082015260600190565b60008219821115611f5657611f56611fee565b500190565b600082611f7857634e487b7160e01b600052601260045260246000fd5b500490565b6000816000190483118215151615611f9757611f97611fee565b500290565b600082821015611fae57611fae611fee565b500390565b600181811c90821680611fc757607f821691505b60208210811415611fe857634e487b7160e01b600052602260045260246000fd5b50919050565b634e487b7160e01b600052601160045260246000fd5b634e487b7160e01b600052602160045260246000fdfe53bf423e48ed90e97d02ab0ebab13b2a235a6bfbe9c321847d5c175333ac4535ddf252ad1be2c89b69c2b068fc378daa952ba7f163c4a11628f55a4df523b3ef7bea13895fa79d2831e0a9e28edede30099005a50d652d8957cf8a607ee6ca4aa2646970667358221220e6ce96a4adc2aa5ece684be58c49f0afc45c508d1faee763208eca986ee5334c64736f6c634300080700337bea13895fa79d2831e0a9e28edede30099005a50d652d8957cf8a607ee6ca4a",
  "libraries": {},
  "devdoc": {
    "author": "Origin Protocol Inc",
    "kind": "dev",
    "methods": {
      "allowance(address,address)": {
        "details": "Function to check the amount of tokens that _owner has allowed to      `_spender`.",
        "params": {
          "_owner": "The address which owns the funds.",
          "_spender": "The address which will spend the funds."
        },
        "returns": {
          "_0": "The number of tokens still available for the _spender."
        }
      },
      "approve(address,uint256)": {
        "details": "Approve the passed address to spend the specified amount of tokens      on behalf of msg.sender. This method is included for ERC20      compatibility. `increaseAllowance` and `decreaseAllowance` should be      used instead.      Changing an allowance with this method brings the risk that someone      may transfer both the old and the new allowance - if they are both      greater than zero - if a transfer transaction is mined before the      later approve() call is mined.",
        "params": {
          "_spender": "The address which will spend the funds.",
          "_value": "The amount of tokens to be spent."
        }
      },
      "balanceOf(address)": {
        "details": "Gets the balance of the specified address.",
        "params": {
          "_account": "Address to query the balance of."
        },
        "returns": {
          "_0": "A uint256 representing the amount of base units owned by the         specified address."
        }
      },
      "burn(address,uint256)": {
        "details": "Burns tokens, decreasing totalSupply."
      },
      "changeSupply(uint256)": {
        "details": "Modify the supply without minting new tokens. This uses a change in      the exchange rate between \"credits\" and OUSD tokens to change balances.",
        "params": {
          "_newTotalSupply": "New total supply of OUSD."
        }
      },
      "creditsBalanceOf(address)": {
        "details": "Gets the credits balance of the specified address.Backwards compatible with old low res credits per token.",
        "params": {
          "_account": "The address to query the balance of."
        },
        "returns": {
          "_0": "(uint256, uint256) Credit balance and credits per token of the         address"
        }
      },
      "creditsBalanceOfHighres(address)": {
        "details": "Gets the credits balance of the specified address.",
        "params": {
          "_account": "The address to query the balance of."
        },
        "returns": {
          "_0": "(uint256, uint256, bool) Credit balance, credits per token of the         address, and isUpgraded"
        }
      },
      "decreaseAllowance(address,uint256)": {
        "details": "Decrease the amount of tokens that an owner has allowed to `_spender`.",
        "params": {
          "_spender": "The address which will spend the funds.",
          "_subtractedValue": "The amount of tokens to decrease the allowance        by."
        }
      },
      "governanceRebaseOptIn(address)": {
        "details": "Add a contract address to the non-rebasing exception list. The address's balance will be part of rebases and the account will be exposed to upside and downside.",
        "params": {
          "_account": "Address of the account."
        }
      },
      "increaseAllowance(address,uint256)": {
        "details": "Increase the amount of tokens that an owner has allowed to      `_spender`.      This method should be used instead of approve() to avoid the double      approval vulnerability described above.",
        "params": {
          "_addedValue": "The amount of tokens to increase the allowance by.",
          "_spender": "The address which will spend the funds."
        }
      },
      "mint(address,uint256)": {
        "details": "Mints new tokens, increasing totalSupply."
      },
      "rebaseOptIn()": {
        "details": "Add a contract address to the non-rebasing exception list. The address's balance will be part of rebases and the account will be exposed to upside and downside."
      },
      "rebaseOptOut()": {
        "details": "Explicitly mark that an address is non-rebasing."
      },
      "rebasingCredits()": {
        "returns": {
          "_0": "Low resolution total number of rebasing credits"
        }
      },
      "rebasingCreditsHighres()": {
        "returns": {
          "_0": "High resolution total number of rebasing credits"
        }
      },
      "rebasingCreditsPerToken()": {
        "returns": {
          "_0": "Low resolution rebasingCreditsPerToken"
        }
      },
      "rebasingCreditsPerTokenHighres()": {
        "returns": {
          "_0": "High resolution rebasingCreditsPerToken"
        }
      },
      "totalSupply()": {
        "returns": {
          "_0": "The total supply of OUSD."
        }
      },
      "transfer(address,uint256)": {
        "details": "Transfer tokens to a specified address.",
        "params": {
          "_to": "the address to transfer to.",
          "_value": "the amount to be transferred."
        },
        "returns": {
          "_0": "true on success."
        }
      },
      "transferFrom(address,address,uint256)": {
        "details": "Transfer tokens from one address to another.",
        "params": {
          "_from": "The address you want to send tokens from.",
          "_to": "The address you want to transfer to.",
          "_value": "The amount of tokens to be transferred."
        }
      },
      "transferGovernance(address)": {
        "params": {
          "_newGovernor": "Address of the new Governor"
        }
      }
    },
    "title": "OETH Token Contract",
    "version": 1
  },
  "userdoc": {
    "kind": "user",
    "methods": {
      "claimGovernance()": {
        "notice": "Claim Governance of the contract to a new account (`newGovernor`). Can only be called by the new Governor."
      },
      "decimals()": {
        "notice": "Returns the number of decimals used to get its user representation. For example, if `decimals` equals `2`, a balance of `505` tokens should be displayed to a user as `5,05` (`505 / 10 ** 2`). Tokens usually opt for a value of 18, imitating the relationship between Ether and Wei. NOTE: This information is only used for _display_ purposes: it in no way affects any of the arithmetic of the contract, including {IERC20-balanceOf} and {IERC20-transfer}."
      },
      "governanceRebaseOptIn(address)": {
        "notice": "Enable rebasing for an account."
      },
      "governor()": {
        "notice": "Returns the address of the current Governor."
      },
      "isGovernor()": {
        "notice": "Returns true if the caller is the current Governor."
      },
      "name()": {
        "notice": "Returns the name of the token."
      },
      "symbol()": {
        "notice": "Returns the symbol of the token, usually a shorter version of the name."
      },
      "transferGovernance(address)": {
        "notice": "Transfers Governance of the contract to a new account (`newGovernor`). Can only be called by the current Governor. Must be claimed for this to complete"
      }
    },
    "version": 1
  },
  "storageLayout": {
    "storage": [
      {
        "astId": 36843,
        "contract": "contracts/token/OETH.sol:OETH",
        "label": "initialized",
        "offset": 0,
        "slot": "0",
        "type": "t_bool"
      },
      {
        "astId": 36846,
        "contract": "contracts/token/OETH.sol:OETH",
        "label": "initializing",
        "offset": 1,
        "slot": "0",
        "type": "t_bool"
      },
      {
        "astId": 36886,
        "contract": "contracts/token/OETH.sol:OETH",
        "label": "______gap",
        "offset": 0,
        "slot": "1",
        "type": "t_array(t_uint256)50_storage"
      },
      {
        "astId": 37526,
        "contract": "contracts/token/OETH.sol:OETH",
        "label": "_____gap",
        "offset": 0,
        "slot": "51",
        "type": "t_array(t_uint256)100_storage"
      },
      {
        "astId": 37528,
        "contract": "contracts/token/OETH.sol:OETH",
        "label": "_name",
        "offset": 0,
        "slot": "151",
        "type": "t_string_storage"
      },
      {
        "astId": 37530,
        "contract": "contracts/token/OETH.sol:OETH",
        "label": "_symbol",
        "offset": 0,
        "slot": "152",
        "type": "t_string_storage"
      },
      {
        "astId": 37532,
        "contract": "contracts/token/OETH.sol:OETH",
        "label": "_decimals",
        "offset": 0,
        "slot": "153",
        "type": "t_uint8"
      },
      {
        "astId": 34499,
        "contract": "contracts/token/OETH.sol:OETH",
        "label": "_totalSupply",
        "offset": 0,
        "slot": "154",
        "type": "t_uint256"
      },
      {
        "astId": 34505,
        "contract": "contracts/token/OETH.sol:OETH",
        "label": "_allowances",
        "offset": 0,
        "slot": "155",
        "type": "t_mapping(t_address,t_mapping(t_address,t_uint256))"
      },
      {
        "astId": 34511,
        "contract": "contracts/token/OETH.sol:OETH",
        "label": "vaultAddress",
        "offset": 0,
        "slot": "156",
        "type": "t_address"
      },
      {
        "astId": 34515,
        "contract": "contracts/token/OETH.sol:OETH",
        "label": "_creditBalances",
        "offset": 0,
        "slot": "157",
        "type": "t_mapping(t_address,t_uint256)"
      },
      {
        "astId": 34517,
        "contract": "contracts/token/OETH.sol:OETH",
        "label": "_rebasingCredits",
        "offset": 0,
        "slot": "158",
        "type": "t_uint256"
      },
      {
        "astId": 34519,
        "contract": "contracts/token/OETH.sol:OETH",
        "label": "_rebasingCreditsPerToken",
        "offset": 0,
        "slot": "159",
        "type": "t_uint256"
      },
      {
        "astId": 34521,
        "contract": "contracts/token/OETH.sol:OETH",
        "label": "nonRebasingSupply",
        "offset": 0,
        "slot": "160",
        "type": "t_uint256"
      },
      {
        "astId": 34525,
        "contract": "contracts/token/OETH.sol:OETH",
        "label": "nonRebasingCreditsPerToken",
        "offset": 0,
        "slot": "161",
        "type": "t_mapping(t_address,t_uint256)"
      },
      {
        "astId": 34530,
        "contract": "contracts/token/OETH.sol:OETH",
        "label": "rebaseState",
        "offset": 0,
        "slot": "162",
        "type": "t_mapping(t_address,t_enum(RebaseOptions)34490)"
      },
      {
        "astId": 34534,
        "contract": "contracts/token/OETH.sol:OETH",
        "label": "isUpgraded",
        "offset": 0,
        "slot": "163",
        "type": "t_mapping(t_address,t_uint256)"
      }
    ],
    "types": {
      "t_address": {
        "encoding": "inplace",
        "label": "address",
        "numberOfBytes": "20"
      },
      "t_array(t_uint256)100_storage": {
        "base": "t_uint256",
        "encoding": "inplace",
        "label": "uint256[100]",
        "numberOfBytes": "3200"
      },
      "t_array(t_uint256)50_storage": {
        "base": "t_uint256",
        "encoding": "inplace",
        "label": "uint256[50]",
        "numberOfBytes": "1600"
      },
      "t_bool": {
        "encoding": "inplace",
        "label": "bool",
        "numberOfBytes": "1"
      },
      "t_enum(RebaseOptions)34490": {
        "encoding": "inplace",
        "label": "enum OUSD.RebaseOptions",
        "numberOfBytes": "1"
      },
      "t_mapping(t_address,t_enum(RebaseOptions)34490)": {
        "encoding": "mapping",
        "key": "t_address",
        "label": "mapping(address => enum OUSD.RebaseOptions)",
        "numberOfBytes": "32",
        "value": "t_enum(RebaseOptions)34490"
      },
      "t_mapping(t_address,t_mapping(t_address,t_uint256))": {
        "encoding": "mapping",
        "key": "t_address",
        "label": "mapping(address => mapping(address => uint256))",
        "numberOfBytes": "32",
        "value": "t_mapping(t_address,t_uint256)"
      },
      "t_mapping(t_address,t_uint256)": {
        "encoding": "mapping",
        "key": "t_address",
        "label": "mapping(address => uint256)",
        "numberOfBytes": "32",
        "value": "t_uint256"
      },
      "t_string_storage": {
        "encoding": "bytes",
        "label": "string",
        "numberOfBytes": "32"
      },
      "t_uint256": {
        "encoding": "inplace",
        "label": "uint256",
        "numberOfBytes": "32"
      },
      "t_uint8": {
        "encoding": "inplace",
        "label": "uint8",
        "numberOfBytes": "1"
      }
    }
  }
}