{
  "address": "0x399B69Bf06CCec7A53Befea14771059d39a3617a",
  "abi": [
    {
      "inputs": [
        {
          "internalType": "address",
          "name": "_governor",
          "type": "address"
        },
        {
          "internalType": "address",
          "name": "_strategist",
          "type": "address"
        }
      ],
      "stateMutability": "nonpayable",
      "type": "constructor"
    },
    {
      "anonymous": false,
      "inputs": [
        {
          "indexed": true,
          "internalType": "address",
          "name": "previousGovernor",
          "type": "address"
        },
        {
          "indexed": true,
          "internalType": "address",
          "name": "newGovernor",
          "type": "address"
        }
      ],
      "name": "GovernorshipTransferred",
      "type": "event"
    },
    {
      "anonymous": false,
      "inputs": [
        {
          "indexed": false,
          "internalType": "address",
          "name": "strategy",
          "type": "address"
        },
        {
          "indexed": false,
          "internalType": "address",
          "name": "token",
          "type": "address"
        },
        {
          "indexed": false,
          "internalType": "uint256",
          "name": "amount",
          "type": "uint256"
        }
      ],
      "name": "Harvested",
      "type": "event"
    },
    {
      "anonymous": false,
      "inputs": [
        {
          "indexed": true,
          "internalType": "address",
          "name": "previousGovernor",
          "type": "address"
        },
        {
          "indexed": true,
          "internalType": "address",
          "name": "newGovernor",
          "type": "address"
        }
      ],
      "name": "PendingGovernorshipTransfer",
      "type": "event"
    },
    {
      "anonymous": false,
      "inputs": [
        {
          "indexed": false,
          "internalType": "address",
          "name": "_address",
          "type": "address"
        }
      ],
      "name": "StrategistUpdated",
      "type": "event"
    },
    {
      "anonymous": false,
      "inputs": [
        {
          "indexed": false,
          "internalType": "address",
          "name": "strategy",
          "type": "address"
        },
        {
          "indexed": false,
          "internalType": "bool",
          "name": "status",
          "type": "bool"
        }
      ],
      "name": "SupportedStrategyUpdated",
      "type": "event"
    },
    {
      "inputs": [],
      "name": "claimGovernance",
      "outputs": [],
      "stateMutability": "nonpayable",
      "type": "function"
    },
    {
      "inputs": [],
      "name": "governor",
      "outputs": [
        {
          "internalType": "address",
          "name": "",
          "type": "address"
        }
      ],
      "stateMutability": "view",
      "type": "function"
    },
    {
      "inputs": [
        {
          "internalType": "address",
          "name": "_strategy",
          "type": "address"
        }
      ],
      "name": "harvestAndTransfer",
      "outputs": [],
      "stateMutability": "nonpayable",
      "type": "function"
    },
    {
      "inputs": [
        {
          "internalType": "address[]",
          "name": "_strategies",
          "type": "address[]"
        }
      ],
      "name": "harvestAndTransfer",
      "outputs": [],
      "stateMutability": "nonpayable",
      "type": "function"
    },
    {
      "inputs": [],
      "name": "isGovernor",
      "outputs": [
        {
          "internalType": "bool",
          "name": "",
          "type": "bool"
        }
      ],
      "stateMutability": "view",
      "type": "function"
    },
    {
      "inputs": [
        {
          "internalType": "address",
          "name": "_address",
          "type": "address"
        }
      ],
      "name": "setStrategistAddr",
      "outputs": [],
      "stateMutability": "nonpayable",
      "type": "function"
    },
    {
      "inputs": [
        {
          "internalType": "address",
          "name": "_strategy",
          "type": "address"
        },
        {
          "internalType": "bool",
          "name": "_isSupported",
          "type": "bool"
        }
      ],
      "name": "setSupportedStrategy",
      "outputs": [],
      "stateMutability": "nonpayable",
      "type": "function"
    },
    {
      "inputs": [],
      "name": "strategistAddr",
      "outputs": [
        {
          "internalType": "address",
          "name": "",
          "type": "address"
        }
      ],
      "stateMutability": "view",
      "type": "function"
    },
    {
      "inputs": [
        {
          "internalType": "address",
          "name": "",
          "type": "address"
        }
      ],
      "name": "supportedStrategies",
      "outputs": [
        {
          "internalType": "bool",
          "name": "",
          "type": "bool"
        }
      ],
      "stateMutability": "view",
      "type": "function"
    },
    {
      "inputs": [
        {
          "internalType": "address",
          "name": "_newGovernor",
          "type": "address"
        }
      ],
      "name": "transferGovernance",
      "outputs": [],
      "stateMutability": "nonpayable",
      "type": "function"
    },
    {
      "inputs": [
        {
          "internalType": "address",
          "name": "_asset",
          "type": "address"
        },
        {
          "internalType": "uint256",
          "name": "_amount",
          "type": "uint256"
        }
      ],
      "name": "transferToken",
      "outputs": [],
      "stateMutability": "nonpayable",
      "type": "function"
    }
  ],
  "transactionHash": "0xa9a423b143fde161fcd3104e2bb73ad2d3059777396fa426defdd786ff66f500",
  "args": [
    "0x35918cDE7233F2dD33fA41ae3Cb6aE0e42E0e69F",
    "0xF14BBdf064E3F67f51cd9BD646aE3716aD938FDC"
  ],
  "numDeployments": 1,
  "solcInputHash": "d7c660a3891a398302ba4accfb7a44b7",
  "bytecode": "0x60806040523480156200001157600080fd5b50604051620011af380380620011af8339810160408190526200003491620001ce565b6200004c336000805160206200118f83398151915255565b6000805160206200118f833981519152546040516001600160a01b03909116906000906000805160206200116f833981519152908290a36200008e81620000a1565b6200009982620000f5565b505062000206565b600080546001600160a01b0319166001600160a01b0383169081179091556040519081527f869e0abd13cc3a975de7b93be3df1cb2255c802b1cead85963cc79d99f131bee9060200160405180910390a150565b6001600160a01b038116620001505760405162461bcd60e51b815260206004820152601a60248201527f4e657720476f7665726e6f722069732061646472657373283029000000000000604482015260640160405180910390fd5b6001600160a01b038116620001726000805160206200118f8339815191525490565b6001600160a01b03166000805160206200116f83398151915260405160405180910390a3620001ae816000805160206200118f83398151915255565b50565b80516001600160a01b0381168114620001c957600080fd5b919050565b60008060408385031215620001e257600080fd5b620001ed83620001b1565b9150620001fd60208401620001b1565b90509250929050565b610f5980620002166000396000f3fe608060405234801561001057600080fd5b50600436106100a95760003560e01c806365f6fa941161007157806365f6fa9414610116578063773540b314610129578063b8a02d041461013c578063c7af33521461014f578063d38bfff414610167578063ee3be5f51461017a57600080fd5b806308765741146100ae5780630c340a24146100c35780631072cbea146100e8578063570d8e1d146100fb5780635d36b1901461010e575b600080fd5b6100c16100bc366004610bcb565b61019d565b005b6100cb6101a9565b6040516001600160a01b0390911681526020015b60405180910390f35b6100c16100f6366004610c21565b6101c6565b6000546100cb906001600160a01b031681565b6100c1610225565b6100c1610124366004610be8565b6102cb565b6100c1610137366004610bcb565b6103af565b6100c161014a366004610c4d565b61040c565b61015761045d565b60405190151581526020016100df565b6100c1610175366004610bcb565b61048e565b610157610188366004610bcb565b60336020526000908152604090205460ff1681565b6101a681610562565b50565b60006101c1600080516020610f048339815191525490565b905090565b6000546001600160a01b03163314806101e257506101e261045d565b6102075760405162461bcd60e51b81526004016101fe90610e13565b60405180910390fd5b600054610221906001600160a01b03848116911683610808565b5050565b7f44c4d30b2eaad5130ad70c3ba6972730566f3e6359ab83e800d905c61b1c51db546001600160a01b0316336001600160a01b0316146102c05760405162461bcd60e51b815260206004820152603060248201527f4f6e6c79207468652070656e64696e6720476f7665726e6f722063616e20636f60448201526f6d706c6574652074686520636c61696d60801b60648201526084016101fe565b6102c93361085a565b565b6000546001600160a01b03163314806102e757506102e761045d565b6103035760405162461bcd60e51b81526004016101fe90610e13565b6001600160a01b03821661034c5760405162461bcd60e51b815260206004820152601060248201526f496e76616c696420737472617465677960801b60448201526064016101fe565b6001600160a01b038216600081815260336020908152604091829020805460ff19168515159081179091558251938452908301527f3ca7a8b51f893d82f3035738ff1da9ae735b29cf93d0e61bb859313c379b3e76910160405180910390a15050565b6103b761045d565b6104035760405162461bcd60e51b815260206004820152601a60248201527f43616c6c6572206973206e6f742074686520476f7665726e6f7200000000000060448201526064016101fe565b6101a68161091b565b60005b818110156104585761044683838381811061042c5761042c610eb4565b90506020020160208101906104419190610bcb565b610562565b8061045081610e8b565b91505061040f565b505050565b6000610475600080516020610f048339815191525490565b6001600160a01b0316336001600160a01b031614905090565b61049661045d565b6104e25760405162461bcd60e51b815260206004820152601a60248201527f43616c6c6572206973206e6f742074686520476f7665726e6f7200000000000060448201526064016101fe565b61050a817f44c4d30b2eaad5130ad70c3ba6972730566f3e6359ab83e800d905c61b1c51db55565b806001600160a01b031661052a600080516020610f048339815191525490565b6001600160a01b03167fa39cc5eb22d0f34d8beaefee8a3f17cc229c1a1d1ef87a5ad47313487b1c4f0d60405160405180910390a350565b6001600160a01b03811660009081526033602052604090205460ff166105c35760405162461bcd60e51b815260206004820152601660248201527514dd1c985d1959de481b9bdd081cdd5c1c1bdc9d195960521b60448201526064016101fe565b806001600160a01b0316635a063f636040518163ffffffff1660e01b8152600401600060405180830381600087803b1580156105fe57600080fd5b505af1158015610612573d6000803e3d6000fd5b505050506000816001600160a01b031663f6ca71b06040518163ffffffff1660e01b815260040160006040518083038186803b15801561065157600080fd5b505afa158015610665573d6000803e3d6000fd5b505050506040513d6000823e601f3d908101601f1916820160405261068d9190810190610cc2565b905060005b81518110156104585760008282815181106106af576106af610eb4565b60209081029190910101516040516370a0823160e01b81523060048201526001600160a01b03909116906370a082319060240160206040518083038186803b1580156106fa57600080fd5b505afa15801561070e573d6000803e3d6000fd5b505050506040513d601f19601f820116820180604052508101906107329190610dab565b905080156107f5576000548351610781916001600160a01b031690839086908690811061076157610761610eb4565b60200260200101516001600160a01b03166108089092919063ffffffff16565b7fd58d3254a9f6b81d7107d95df18a30e7cadd385d1644ae44761b6a6f2b0a1145848484815181106107b5576107b5610eb4565b6020026020010151836040516107ec939291906001600160a01b039384168152919092166020820152604081019190915260600190565b60405180910390a15b508061080081610e8b565b915050610692565b604080516001600160a01b038416602482015260448082018490528251808303909101815260649091019091526020810180516001600160e01b031663a9059cbb60e01b17905261045890849061096f565b6001600160a01b0381166108b05760405162461bcd60e51b815260206004820152601a60248201527f4e657720476f7665726e6f72206973206164647265737328302900000000000060448201526064016101fe565b806001600160a01b03166108d0600080516020610f048339815191525490565b6001600160a01b03167fc7c0c772add429241571afb3805861fb3cfa2af374534088b76cdb4325a87e9a60405160405180910390a36101a681600080516020610f0483398151915255565b600080546001600160a01b0319166001600160a01b0383169081179091556040519081527f869e0abd13cc3a975de7b93be3df1cb2255c802b1cead85963cc79d99f131bee9060200160405180910390a150565b60006109c4826040518060400160405280602081526020017f5361666545524332303a206c6f772d6c6576656c2063616c6c206661696c6564815250856001600160a01b0316610a419092919063ffffffff16565b80519091501561045857808060200190518101906109e29190610d8e565b6104585760405162461bcd60e51b815260206004820152602a60248201527f5361666545524332303a204552433230206f7065726174696f6e20646964206e6044820152691bdd081cdd58d8d9595960b21b60648201526084016101fe565b6060610a508484600085610a5a565b90505b9392505050565b606082471015610abb5760405162461bcd60e51b815260206004820152602660248201527f416464726573733a20696e73756666696369656e742062616c616e636520666f6044820152651c8818d85b1b60d21b60648201526084016101fe565b843b610b095760405162461bcd60e51b815260206004820152601d60248201527f416464726573733a2063616c6c20746f206e6f6e2d636f6e747261637400000060448201526064016101fe565b600080866001600160a01b03168587604051610b259190610dc4565b60006040518083038185875af1925050503d8060008114610b62576040519150601f19603f3d011682016040523d82523d6000602084013e610b67565b606091505b5091509150610b77828286610b82565b979650505050505050565b60608315610b91575081610a53565b825115610ba15782518084602001fd5b8160405162461bcd60e51b81526004016101fe9190610de0565b8051610bc681610ee0565b919050565b600060208284031215610bdd57600080fd5b8135610a5381610ee0565b60008060408385031215610bfb57600080fd5b8235610c0681610ee0565b91506020830135610c1681610ef5565b809150509250929050565b60008060408385031215610c3457600080fd5b8235610c3f81610ee0565b946020939093013593505050565b60008060208385031215610c6057600080fd5b823567ffffffffffffffff80821115610c7857600080fd5b818501915085601f830112610c8c57600080fd5b813581811115610c9b57600080fd5b8660208260051b8501011115610cb057600080fd5b60209290920196919550909350505050565b60006020808385031215610cd557600080fd5b825167ffffffffffffffff80821115610ced57600080fd5b818501915085601f830112610d0157600080fd5b815181811115610d1357610d13610eca565b8060051b604051601f19603f83011681018181108582111715610d3857610d38610eca565b604052828152858101935084860182860187018a1015610d5757600080fd5b600095505b83861015610d8157610d6d81610bbb565b855260019590950194938601938601610d5c565b5098975050505050505050565b600060208284031215610da057600080fd5b8151610a5381610ef5565b600060208284031215610dbd57600080fd5b5051919050565b60008251610dd6818460208701610e5b565b9190910192915050565b6020815260008251806020840152610dff816040850160208701610e5b565b601f01601f19169190910160400192915050565b60208082526028908201527f43616c6c6572206973206e6f74207468652053747261746567697374206f722060408201526723b7bb32b93737b960c11b606082015260800190565b60005b83811015610e76578181015183820152602001610e5e565b83811115610e85576000848401525b50505050565b6000600019821415610ead57634e487b7160e01b600052601160045260246000fd5b5060010190565b634e487b7160e01b600052603260045260246000fd5b634e487b7160e01b600052604160045260246000fd5b6001600160a01b03811681146101a657600080fd5b80151581146101a657600080fdfe7bea13895fa79d2831e0a9e28edede30099005a50d652d8957cf8a607ee6ca4aa264697066735822122027065b972e70cda25b892771efae834c770de5525f43356004915384a7e07a9564736f6c63430008070033c7c0c772add429241571afb3805861fb3cfa2af374534088b76cdb4325a87e9a7bea13895fa79d2831e0a9e28edede30099005a50d652d8957cf8a607ee6ca4a",
  "libraries": {},
  "devdoc": {
    "kind": "dev",
    "methods": {
      "setStrategistAddr(address)": {
        "details": "Set address of Strategist",
        "params": {
          "_address": "Address of Strategist"
        }
      },
      "transferGovernance(address)": {
        "params": {
          "_newGovernor": "Address of the new Governor"
        }
      }
    },
    "version": 1
  },
  "userdoc": {
    "events": {
      "Harvested(address,address,uint256)": {
        "notice": "--- EVENTS"
      }
    },
    "kind": "user",
    "methods": {
      "claimGovernance()": {
        "notice": "Claim Governance of the contract to a new account (`newGovernor`). Can only be called by the new Governor."
      },
      "constructor": {
        "notice": "--- CONSTRUCTOR"
      },
      "governor()": {
        "notice": "Returns the address of the current Governor."
      },
      "harvestAndTransfer(address)": {
        "notice": "--- MUTATIVE FUNCTIONS"
      },
      "isGovernor()": {
        "notice": "Returns true if the caller is the current Governor."
      },
      "setSupportedStrategy(address,bool)": {
        "notice": "--- GOVERNANCE"
      },
      "supportedStrategies(address)": {
        "notice": "--- STORAGE"
      },
      "transferGovernance(address)": {
        "notice": "Transfers Governance of the contract to a new account (`newGovernor`). Can only be called by the current Governor. Must be claimed for this to complete"
      }
    },
    "version": 1
  },
  "storageLayout": {
    "storage": [
      {
        "astId": 9181,
        "contract": "contracts/harvest/OETHHarvesterSimple.sol:OETHHarvesterSimple",
        "label": "strategistAddr",
        "offset": 0,
        "slot": "0",
        "type": "t_address"
      },
      {
        "astId": 9185,
        "contract": "contracts/harvest/OETHHarvesterSimple.sol:OETHHarvesterSimple",
        "label": "__gap",
        "offset": 0,
        "slot": "1",
        "type": "t_array(t_uint256)50_storage"
      },
      {
        "astId": 11533,
        "contract": "contracts/harvest/OETHHarvesterSimple.sol:OETHHarvesterSimple",
        "label": "supportedStrategies",
        "offset": 0,
        "slot": "51",
        "type": "t_mapping(t_address,t_bool)"
      }
    ],
    "types": {
      "t_address": {
        "encoding": "inplace",
        "label": "address",
        "numberOfBytes": "20"
      },
      "t_array(t_uint256)50_storage": {
        "base": "t_uint256",
        "encoding": "inplace",
        "label": "uint256[50]",
        "numberOfBytes": "1600"
      },
      "t_bool": {
        "encoding": "inplace",
        "label": "bool",
        "numberOfBytes": "1"
      },
      "t_mapping(t_address,t_bool)": {
        "encoding": "mapping",
        "key": "t_address",
        "label": "mapping(address => bool)",
        "numberOfBytes": "32",
        "value": "t_bool"
      },
      "t_uint256": {
        "encoding": "inplace",
        "label": "uint256",
        "numberOfBytes": "32"
      }
    }
  }
}