{
  "address": "0xEA24e9Bac006DE9635Ac7fA4D767fFb64FB5645c",
  "abi": [
    {
      "anonymous": false,
      "inputs": [
        {
          "indexed": false,
          "internalType": "uint256",
          "name": "_threshold",
          "type": "uint256"
        }
      ],
      "name": "AllocateThresholdUpdated",
      "type": "event"
    },
    {
      "anonymous": false,
      "inputs": [
        {
          "indexed": false,
          "internalType": "address",
          "name": "_asset",
          "type": "address"
        },
        {
          "indexed": false,
          "internalType": "address",
          "name": "_strategy",
          "type": "address"
        },
        {
          "indexed": false,
          "internalType": "uint256",
          "name": "_amount",
          "type": "uint256"
        }
      ],
      "name": "AssetAllocated",
      "type": "event"
    },
    {
      "anonymous": false,
      "inputs": [
        {
          "indexed": false,
          "internalType": "address",
          "name": "_asset",
          "type": "address"
        },
        {
          "indexed": false,
          "internalType": "address",
          "name": "_strategy",
          "type": "address"
        }
      ],
      "name": "AssetDefaultStrategyUpdated",
      "type": "event"
    },
    {
      "anonymous": false,
      "inputs": [
        {
          "indexed": false,
          "internalType": "address",
          "name": "_asset",
          "type": "address"
        }
      ],
      "name": "AssetSupported",
      "type": "event"
    },
    {
      "anonymous": false,
      "inputs": [],
      "name": "CapitalPaused",
      "type": "event"
    },
    {
      "anonymous": false,
      "inputs": [],
      "name": "CapitalUnpaused",
      "type": "event"
    },
    {
      "anonymous": false,
      "inputs": [
        {
          "indexed": true,
          "internalType": "address",
          "name": "previousGovernor",
          "type": "address"
        },
        {
          "indexed": true,
          "internalType": "address",
          "name": "newGovernor",
          "type": "address"
        }
      ],
      "name": "GovernorshipTransferred",
      "type": "event"
    },
    {
      "anonymous": false,
      "inputs": [
        {
          "indexed": false,
          "internalType": "uint256",
          "name": "maxSupplyDiff",
          "type": "uint256"
        }
      ],
      "name": "MaxSupplyDiffChanged",
      "type": "event"
    },
    {
      "anonymous": false,
      "inputs": [
        {
          "indexed": false,
          "internalType": "address",
          "name": "_addr",
          "type": "address"
        },
        {
          "indexed": false,
          "internalType": "uint256",
          "name": "_value",
          "type": "uint256"
        }
      ],
      "name": "Mint",
      "type": "event"
    },
    {
      "anonymous": false,
      "inputs": [
        {
          "indexed": false,
          "internalType": "uint256",
          "name": "_threshold",
          "type": "uint256"
        }
      ],
      "name": "NetOusdMintForStrategyThresholdChanged",
      "type": "event"
    },
    {
      "anonymous": false,
      "inputs": [
        {
          "indexed": false,
          "internalType": "address",
          "name": "_ousdMetaStrategy",
          "type": "address"
        }
      ],
      "name": "OusdMetaStrategyUpdated",
      "type": "event"
    },
    {
      "anonymous": false,
      "inputs": [
        {
          "indexed": true,
          "internalType": "address",
          "name": "previousGovernor",
          "type": "address"
        },
        {
          "indexed": true,
          "internalType": "address",
          "name": "newGovernor",
          "type": "address"
        }
      ],
      "name": "PendingGovernorshipTransfer",
      "type": "event"
    },
    {
      "anonymous": false,
      "inputs": [
        {
          "indexed": false,
          "internalType": "address",
          "name": "_priceProvider",
          "type": "address"
        }
      ],
      "name": "PriceProviderUpdated",
      "type": "event"
    },
    {
      "anonymous": false,
      "inputs": [],
      "name": "RebasePaused",
      "type": "event"
    },
    {
      "anonymous": false,
      "inputs": [
        {
          "indexed": false,
          "internalType": "uint256",
          "name": "_threshold",
          "type": "uint256"
        }
      ],
      "name": "RebaseThresholdUpdated",
      "type": "event"
    },
    {
      "anonymous": false,
      "inputs": [],
      "name": "RebaseUnpaused",
      "type": "event"
    },
    {
      "anonymous": false,
      "inputs": [
        {
          "indexed": false,
          "internalType": "address",
          "name": "_addr",
          "type": "address"
        },
        {
          "indexed": false,
          "internalType": "uint256",
          "name": "_value",
          "type": "uint256"
        }
      ],
      "name": "Redeem",
      "type": "event"
    },
    {
      "anonymous": false,
      "inputs": [
        {
          "indexed": false,
          "internalType": "uint256",
          "name": "_redeemFeeBps",
          "type": "uint256"
        }
      ],
      "name": "RedeemFeeUpdated",
      "type": "event"
    },
    {
      "anonymous": false,
      "inputs": [
        {
          "indexed": false,
          "internalType": "address",
          "name": "_address",
          "type": "address"
        }
      ],
      "name": "StrategistUpdated",
      "type": "event"
    },
    {
      "anonymous": false,
      "inputs": [
        {
          "indexed": false,
          "internalType": "address",
          "name": "_addr",
          "type": "address"
        }
      ],
      "name": "StrategyApproved",
      "type": "event"
    },
    {
      "anonymous": false,
      "inputs": [
        {
          "indexed": false,
          "internalType": "address",
          "name": "_addr",
          "type": "address"
        }
      ],
      "name": "StrategyRemoved",
      "type": "event"
    },
    {
      "anonymous": false,
      "inputs": [
        {
          "indexed": false,
          "internalType": "uint256",
          "name": "_basis",
          "type": "uint256"
        }
      ],
      "name": "SwapAllowedUndervalueChanged",
      "type": "event"
    },
    {
      "anonymous": false,
      "inputs": [
        {
          "indexed": false,
          "internalType": "address",
          "name": "_asset",
          "type": "address"
        },
        {
          "indexed": false,
          "internalType": "uint256",
          "name": "_basis",
          "type": "uint256"
        }
      ],
      "name": "SwapSlippageChanged",
      "type": "event"
    },
    {
      "anonymous": false,
      "inputs": [
        {
          "indexed": true,
          "internalType": "address",
          "name": "_fromAsset",
          "type": "address"
        },
        {
          "indexed": true,
          "internalType": "address",
          "name": "_toAsset",
          "type": "address"
        },
        {
          "indexed": false,
          "internalType": "uint256",
          "name": "_fromAssetAmount",
          "type": "uint256"
        },
        {
          "indexed": false,
          "internalType": "uint256",
          "name": "_toAssetAmount",
          "type": "uint256"
        }
      ],
      "name": "Swapped",
      "type": "event"
    },
    {
      "anonymous": false,
      "inputs": [
        {
          "indexed": false,
          "internalType": "address",
          "name": "_address",
          "type": "address"
        }
      ],
      "name": "SwapperChanged",
      "type": "event"
    },
    {
      "anonymous": false,
      "inputs": [
        {
          "indexed": false,
          "internalType": "address",
          "name": "_address",
          "type": "address"
        }
      ],
      "name": "TrusteeAddressChanged",
      "type": "event"
    },
    {
      "anonymous": false,
      "inputs": [
        {
          "indexed": false,
          "internalType": "uint256",
          "name": "_basis",
          "type": "uint256"
        }
      ],
      "name": "TrusteeFeeBpsChanged",
      "type": "event"
    },
    {
      "anonymous": false,
      "inputs": [
        {
          "indexed": false,
          "internalType": "uint256",
          "name": "_vaultBuffer",
          "type": "uint256"
        }
      ],
      "name": "VaultBufferUpdated",
      "type": "event"
    },
    {
      "anonymous": false,
      "inputs": [
        {
          "indexed": false,
          "internalType": "address",
          "name": "_to",
          "type": "address"
        },
        {
          "indexed": false,
          "internalType": "uint256",
          "name": "_yield",
          "type": "uint256"
        },
        {
          "indexed": false,
          "internalType": "uint256",
          "name": "_fee",
          "type": "uint256"
        }
      ],
      "name": "YieldDistribution",
      "type": "event"
    },
    {
      "stateMutability": "payable",
      "type": "fallback"
    },
    {
      "inputs": [],
      "name": "allocate",
      "outputs": [],
      "stateMutability": "nonpayable",
      "type": "function"
    },
    {
      "inputs": [
        {
          "internalType": "address",
          "name": "",
          "type": "address"
        }
      ],
      "name": "assetDefaultStrategies",
      "outputs": [
        {
          "internalType": "address",
          "name": "",
          "type": "address"
        }
      ],
      "stateMutability": "view",
      "type": "function"
    },
    {
      "inputs": [],
      "name": "autoAllocateThreshold",
      "outputs": [
        {
          "internalType": "uint256",
          "name": "",
          "type": "uint256"
        }
      ],
      "stateMutability": "view",
      "type": "function"
    },
    {
      "inputs": [
        {
          "internalType": "uint256",
          "name": "_amount",
          "type": "uint256"
        }
      ],
      "name": "burnForStrategy",
      "outputs": [],
      "stateMutability": "nonpayable",
      "type": "function"
    },
    {
      "inputs": [
        {
          "internalType": "uint256",
          "name": "_amount",
          "type": "uint256"
        }
      ],
      "name": "calculateRedeemOutputs",
      "outputs": [
        {
          "internalType": "uint256[]",
          "name": "",
          "type": "uint256[]"
        }
      ],
      "stateMutability": "view",
      "type": "function"
    },
    {
      "inputs": [],
      "name": "capitalPaused",
      "outputs": [
        {
          "internalType": "bool",
          "name": "",
          "type": "bool"
        }
      ],
      "stateMutability": "view",
      "type": "function"
    },
    {
      "inputs": [
        {
          "internalType": "address",
          "name": "_asset",
          "type": "address"
        }
      ],
      "name": "checkBalance",
      "outputs": [
        {
          "internalType": "uint256",
          "name": "",
          "type": "uint256"
        }
      ],
      "stateMutability": "view",
      "type": "function"
    },
    {
      "inputs": [],
      "name": "claimGovernance",
      "outputs": [],
      "stateMutability": "nonpayable",
      "type": "function"
    },
    {
      "inputs": [],
      "name": "getAllAssets",
      "outputs": [
        {
          "internalType": "address[]",
          "name": "",
          "type": "address[]"
        }
      ],
      "stateMutability": "view",
      "type": "function"
    },
    {
      "inputs": [],
      "name": "getAllStrategies",
      "outputs": [
        {
          "internalType": "address[]",
          "name": "",
          "type": "address[]"
        }
      ],
      "stateMutability": "view",
      "type": "function"
    },
    {
      "inputs": [
        {
          "internalType": "address",
          "name": "_asset",
          "type": "address"
        }
      ],
      "name": "getAssetConfig",
      "outputs": [
        {
          "components": [
            {
              "internalType": "bool",
              "name": "isSupported",
              "type": "bool"
            },
            {
              "internalType": "enum VaultStorage.UnitConversion",
              "name": "unitConversion",
              "type": "uint8"
            },
            {
              "internalType": "uint8",
              "name": "decimals",
              "type": "uint8"
            },
            {
              "internalType": "uint16",
              "name": "allowedOracleSlippageBps",
              "type": "uint16"
            }
          ],
          "internalType": "struct VaultStorage.Asset",
          "name": "config",
          "type": "tuple"
        }
      ],
      "stateMutability": "view",
      "type": "function"
    },
    {
      "inputs": [],
      "name": "getAssetCount",
      "outputs": [
        {
          "internalType": "uint256",
          "name": "",
          "type": "uint256"
        }
      ],
      "stateMutability": "view",
      "type": "function"
    },
    {
      "inputs": [],
      "name": "getStrategyCount",
      "outputs": [
        {
          "internalType": "uint256",
          "name": "",
          "type": "uint256"
        }
      ],
      "stateMutability": "view",
      "type": "function"
    },
    {
      "inputs": [],
      "name": "governor",
      "outputs": [
        {
          "internalType": "address",
          "name": "",
          "type": "address"
        }
      ],
      "stateMutability": "view",
      "type": "function"
    },
    {
      "inputs": [],
      "name": "isGovernor",
      "outputs": [
        {
          "internalType": "bool",
          "name": "",
          "type": "bool"
        }
      ],
      "stateMutability": "view",
      "type": "function"
    },
    {
      "inputs": [
        {
          "internalType": "address",
          "name": "_asset",
          "type": "address"
        }
      ],
      "name": "isSupportedAsset",
      "outputs": [
        {
          "internalType": "bool",
          "name": "",
          "type": "bool"
        }
      ],
      "stateMutability": "view",
      "type": "function"
    },
    {
      "inputs": [],
      "name": "maxSupplyDiff",
      "outputs": [
        {
          "internalType": "uint256",
          "name": "",
          "type": "uint256"
        }
      ],
      "stateMutability": "view",
      "type": "function"
    },
    {
      "inputs": [
        {
          "internalType": "address",
          "name": "_asset",
          "type": "address"
        },
        {
          "internalType": "uint256",
          "name": "_amount",
          "type": "uint256"
        },
        {
          "internalType": "uint256",
          "name": "_minimumOusdAmount",
          "type": "uint256"
        }
      ],
      "name": "mint",
      "outputs": [],
      "stateMutability": "nonpayable",
      "type": "function"
    },
    {
      "inputs": [
        {
          "internalType": "uint256",
          "name": "_amount",
          "type": "uint256"
        }
      ],
      "name": "mintForStrategy",
      "outputs": [],
      "stateMutability": "nonpayable",
      "type": "function"
    },
    {
      "inputs": [],
      "name": "netOusdMintForStrategyThreshold",
      "outputs": [
        {
          "internalType": "uint256",
          "name": "",
          "type": "uint256"
        }
      ],
      "stateMutability": "view",
      "type": "function"
    },
    {
      "inputs": [],
      "name": "netOusdMintedForStrategy",
      "outputs": [
        {
          "internalType": "int256",
          "name": "",
          "type": "int256"
        }
      ],
      "stateMutability": "view",
      "type": "function"
    },
    {
      "inputs": [],
      "name": "ousdMetaStrategy",
      "outputs": [
        {
          "internalType": "address",
          "name": "",
          "type": "address"
        }
      ],
      "stateMutability": "view",
      "type": "function"
    },
    {
      "inputs": [],
      "name": "priceProvider",
      "outputs": [
        {
          "internalType": "address",
          "name": "",
          "type": "address"
        }
      ],
      "stateMutability": "view",
      "type": "function"
    },
    {
      "inputs": [
        {
          "internalType": "address",
          "name": "asset",
          "type": "address"
        }
      ],
      "name": "priceUnitMint",
      "outputs": [
        {
          "internalType": "uint256",
          "name": "price",
          "type": "uint256"
        }
      ],
      "stateMutability": "view",
      "type": "function"
    },
    {
      "inputs": [
        {
          "internalType": "address",
          "name": "asset",
          "type": "address"
        }
      ],
      "name": "priceUnitRedeem",
      "outputs": [
        {
          "internalType": "uint256",
          "name": "price",
          "type": "uint256"
        }
      ],
      "stateMutability": "view",
      "type": "function"
    },
    {
      "inputs": [],
      "name": "rebase",
      "outputs": [],
      "stateMutability": "nonpayable",
      "type": "function"
    },
    {
      "inputs": [],
      "name": "rebasePaused",
      "outputs": [
        {
          "internalType": "bool",
          "name": "",
          "type": "bool"
        }
      ],
      "stateMutability": "view",
      "type": "function"
    },
    {
      "inputs": [],
      "name": "rebaseThreshold",
      "outputs": [
        {
          "internalType": "uint256",
          "name": "",
          "type": "uint256"
        }
      ],
      "stateMutability": "view",
      "type": "function"
    },
    {
      "inputs": [
        {
          "internalType": "uint256",
          "name": "_amount",
          "type": "uint256"
        },
        {
          "internalType": "uint256",
          "name": "_minimumUnitAmount",
          "type": "uint256"
        }
      ],
      "name": "redeem",
      "outputs": [],
      "stateMutability": "nonpayable",
      "type": "function"
    },
    {
      "inputs": [
        {
          "internalType": "uint256",
          "name": "_minimumUnitAmount",
          "type": "uint256"
        }
      ],
      "name": "redeemAll",
      "outputs": [],
      "stateMutability": "nonpayable",
      "type": "function"
    },
    {
      "inputs": [],
      "name": "redeemFeeBps",
      "outputs": [
        {
          "internalType": "uint256",
          "name": "",
          "type": "uint256"
        }
      ],
      "stateMutability": "view",
      "type": "function"
    },
    {
      "inputs": [
        {
          "internalType": "address",
          "name": "newImpl",
          "type": "address"
        }
      ],
      "name": "setAdminImpl",
      "outputs": [],
      "stateMutability": "nonpayable",
      "type": "function"
    },
    {
      "inputs": [],
      "name": "strategistAddr",
      "outputs": [
        {
          "internalType": "address",
          "name": "",
          "type": "address"
        }
      ],
      "stateMutability": "view",
      "type": "function"
    },
    {
      "inputs": [],
      "name": "totalValue",
      "outputs": [
        {
          "internalType": "uint256",
          "name": "value",
          "type": "uint256"
        }
      ],
      "stateMutability": "view",
      "type": "function"
    },
    {
      "inputs": [
        {
          "internalType": "address",
          "name": "_newGovernor",
          "type": "address"
        }
      ],
      "name": "transferGovernance",
      "outputs": [],
      "stateMutability": "nonpayable",
      "type": "function"
    },
    {
      "inputs": [],
      "name": "trusteeAddress",
      "outputs": [
        {
          "internalType": "address",
          "name": "",
          "type": "address"
        }
      ],
      "stateMutability": "view",
      "type": "function"
    },
    {
      "inputs": [],
      "name": "trusteeFeeBps",
      "outputs": [
        {
          "internalType": "uint256",
          "name": "",
          "type": "uint256"
        }
      ],
      "stateMutability": "view",
      "type": "function"
    },
    {
      "inputs": [],
      "name": "vaultBuffer",
      "outputs": [
        {
          "internalType": "uint256",
          "name": "",
          "type": "uint256"
        }
      ],
      "stateMutability": "view",
      "type": "function"
    }
  ],
  "transactionHash": "0x585aef8279519a6b0a7110fff46be5b70f22f0f626753adc1d5f2166a8f6a191",
  "args": [],
  "numDeployments": 2,
  "solcInputHash": "e08d4b98ef0bf7a625aa1659b6c5e4fc",
  "bytecode": "0x6037805461ffff60a01b1916600160a81b179055603d80546001600160a01b0319908116909155603e805482169055603f80548216905560458054909116905560006046819055604781905560c0604052608081905260a052604880546001600160b01b03191690553480156200007557600080fd5b506200008e336000805160206200367c83398151915255565b6000805160206200367c833981519152546040516001600160a01b03909116906000907fc7c0c772add429241571afb3805861fb3cfa2af374534088b76cdb4325a87e9a908290a361359680620000e66000396000f3fe6080604052600436106102255760003560e01c80637136a7a611610123578063abaa9916116100ab578063d38bfff41161006f578063d38bfff414610676578063d4c3eea014610696578063e45cc9f0146106ab578063e6cc5432146106c1578063fc0cfeee146106e257610225565b8063abaa991614610602578063af14052c14610617578063b888879e1461062c578063c3b288641461064c578063c7af33521461066157610225565b80639be918e6116100f25780639be918e6146105485780639fa1826e14610581578063a0aead4d14610597578063a403e4d5146105ac578063ab80dafb146105e257610225565b80637136a7a6146104dc5780637a2202f3146104fc5780637cbc2373146105125780638e510b521461053257610225565b806349c1d54d116101b15780635d36b190116101755780635d36b1901461042d5780635f515226146104425780636217f3ea1461046257806367bd7ba3146104825780636ec3ab67146104af57610225565b806349c1d54d1461038657806352d38e5d146103a657806353ca9f24146103bc578063570d8e1d146103ed5780635b60f9fc1461040d57610225565b80631edfe3da116101f85780631edfe3da14610303578063207134b0146103195780632acada4d1461032f57806331e19cfa146103515780633b8fe28d1461036657610225565b806309f6442c1461026b5780630c340a2414610294578063156e29f6146102c157806318ce56bd146102e3575b7fa2bd3d3cf188a41358c8b401076eb59066b09dec5775650c0de4c55187d17bd9366000803760008036600084545af43d6000803e808015610266573d6000f35b3d6000fd5b34801561027757600080fd5b5061028160385481565b6040519081526020015b60405180910390f35b3480156102a057600080fd5b506102a9610702565b6040516001600160a01b03909116815260200161028b565b3480156102cd57600080fd5b506102e16102dc366004612fe0565b61071f565b005b3480156102ef57600080fd5b506045546102a9906001600160a01b031681565b34801561030f57600080fd5b5061028160395481565b34801561032557600080fd5b5061028160435481565b34801561033b57600080fd5b506103446109cd565b60405161028b91906130be565b34801561035d57600080fd5b50603654610281565b34801561037257600080fd5b50610281610381366004612fc5565b610a2f565b34801561039257600080fd5b506042546102a9906001600160a01b031681565b3480156103b257600080fd5b50610281603b5481565b3480156103c857600080fd5b506037546103dd90600160a01b900460ff1681565b604051901515815260200161028b565b3480156103f957600080fd5b50603f546102a9906001600160a01b031681565b34801561041957600080fd5b50610281610428366004612fc5565b610a8a565b34801561043957600080fd5b506102e1610ab3565b34801561044e57600080fd5b5061028161045d366004612fc5565b610b59565b34801561046e57600080fd5b506102e161047d366004613035565b610b6a565b34801561048e57600080fd5b506104a261049d366004613035565b610d2c565b60405161028b919061310b565b3480156104bb57600080fd5b506104cf6104ca366004612fc5565b610d37565b60405161028b9190613233565b3480156104e857600080fd5b506102e16104f7366004613035565b610ddd565b34801561050857600080fd5b5061028160475481565b34801561051e57600080fd5b506102e161052d366004613067565b610ec8565b34801561053e57600080fd5b5061028160415481565b34801561055457600080fd5b506103dd610563366004612fc5565b6001600160a01b031660009081526033602052604090205460ff1690565b34801561058d57600080fd5b50610281603a5481565b3480156105a357600080fd5b50603454610281565b3480156105b857600080fd5b506102a96105c7366004612fc5565b6040602081905260009182529020546001600160a01b031681565b3480156105ee57600080fd5b506102e16105fd366004613035565b610f3b565b34801561060e57600080fd5b506102e1611112565b34801561062357600080fd5b506102e1611181565b34801561063857600080fd5b506037546102a9906001600160a01b031681565b34801561065857600080fd5b506103446111c7565b34801561066d57600080fd5b506103dd611227565b34801561068257600080fd5b506102e1610691366004612fc5565b611258565b3480156106a257600080fd5b5061028161132c565b3480156106b757600080fd5b5061028160465481565b3480156106cd57600080fd5b506037546103dd90600160a81b900460ff1681565b3480156106ee57600080fd5b506102e16106fd366004612fc5565b611336565b600061071a6000805160206135418339815191525490565b905090565b603754600160a81b900460ff16156107525760405162461bcd60e51b8152600401610749906131e3565b60405180910390fd5b600080516020613521833981519152805460028114156107845760405162461bcd60e51b81526004016107499061320b565b600282556001600160a01b03851660009081526033602052604090205460ff166107e95760405162461bcd60e51b8152602060048201526016602482015275105cdcd95d081a5cc81b9bdd081cdd5c1c1bdc9d195960521b6044820152606401610749565b600084116108395760405162461bcd60e51b815260206004820152601d60248201527f416d6f756e74206d7573742062652067726561746572207468616e20300000006044820152606401610749565b60006108458587611408565b90506000610854876001611564565b90506000670de0b6b3a764000061086b83856133ef565b61087591906132e2565b905085156108cd57858110156108cd5760405162461bcd60e51b815260206004820152601e60248201527f4d696e7420616d6f756e74206c6f776572207468616e206d696e696d756d00006044820152606401610749565b7f0f6798a560793a54c3bcfe86a93cde1e73087d944c0ea20544137d412139688533826040516108fe9291906130a5565b60405180910390a1603b5481101580156109225750603754600160a01b900460ff16155b156109315761092f611856565b505b603c546040516340c10f1960e01b81526001600160a01b03909116906340c10f199061096390339085906004016130a5565b600060405180830381600087803b15801561097d57600080fd5b505af1158015610991573d6000803e3d6000fd5b508a92506109ad9150506001600160a01b03821633308b611b91565b603a5482106109be576109be611c02565b50505050600182555050505050565b60606034805480602002602001604051908101604052809291908181526020018280548015610a2557602002820191906000526020600020905b81546001600160a01b03168152600190910190602001808311610a07575b5050505050905090565b600080610a58610a52610a4185611e70565b670de0b6b3a7640000906012611eda565b84611408565b9050670de0b6b3a764000081610a6f856001611564565b610a7991906133ef565b610a8391906132e2565b9392505050565b600080610a9c610a52610a4185611e70565b9050670de0b6b3a764000081610a6f856000611564565b7f44c4d30b2eaad5130ad70c3ba6972730566f3e6359ab83e800d905c61b1c51db546001600160a01b0316336001600160a01b031614610b4e5760405162461bcd60e51b815260206004820152603060248201527f4f6e6c79207468652070656e64696e6720476f7665726e6f722063616e20636f60448201526f6d706c6574652074686520636c61696d60801b6064820152608401610749565b610b5733611f3c565b565b6000610b6482611ffd565b92915050565b603754600160a81b900460ff1615610b945760405162461bcd60e51b8152600401610749906131e3565b6045546001600160a01b03163314610bbe5760405162461bcd60e51b815260040161074990613176565b6001600160ff1b038110610be45760405162461bcd60e51b8152600401610749906131ba565b7f222838db2794d11532d940e8dec38ae307ed0b63cd97c233322e221f998767a63382604051610c159291906130a5565b60405180910390a18060466000828254610c2f919061340e565b9091555050604754604654610c43906121cc565b10610c9a5760405162461bcd60e51b815260206004820152602160248201527f417474656d7074696e6720746f206275726e20746f6f206d756368204f5553446044820152601760f91b6064820152608401610749565b603c54604051632770a7eb60e21b81526001600160a01b0390911690639dc29fac90610ccc90339085906004016130a5565b600060405180830381600087803b158015610ce657600080fd5b505af1158015610cfa573d6000803e3d6000fd5b50505050603b548110158015610d1a5750603754600160a01b900460ff16155b15610d2957610d27611856565b505b50565b6060610b648261220f565b604080516080808201835260008083526020808401829052838501829052606084018290526001600160a01b038616825260338152908490208451928301909452835460ff808216151584529394929391840191610100909104166001811115610da357610da36134de565b6001811115610db457610db46134de565b8152905462010000810460ff1660208301526301000000900461ffff1660409091015292915050565b603754600160a81b900460ff1615610e075760405162461bcd60e51b8152600401610749906131e3565b60008051602061352183398151915280546002811415610e395760405162461bcd60e51b81526004016107499061320b565b60028255603c546040516370a0823160e01b8152336004820152610ec0916001600160a01b0316906370a082319060240160206040518083038186803b158015610e8257600080fd5b505afa158015610e96573d6000803e3d6000fd5b505050506040513d601f19601f82011682018060405250810190610eba919061304e565b846124ef565b506001905550565b603754600160a81b900460ff1615610ef25760405162461bcd60e51b8152600401610749906131e3565b60008051602061352183398151915280546002811415610f245760405162461bcd60e51b81526004016107499061320b565b60028255610f3284846124ef565b50600190555050565b603754600160a81b900460ff1615610f655760405162461bcd60e51b8152600401610749906131e3565b6045546001600160a01b03163314610f8f5760405162461bcd60e51b815260040161074990613176565b6001600160ff1b038110610fb55760405162461bcd60e51b8152600401610749906131ba565b7f0f6798a560793a54c3bcfe86a93cde1e73087d944c0ea20544137d41213968853382604051610fe69291906130a5565b60405180910390a1603b54811015801561100a5750603754600160a01b900460ff16155b1561101957611017611856565b505b806046600082825461102b9190613289565b909155505060475460465461103f906121cc565b106110ab5760405162461bcd60e51b815260206004820152603660248201527f4d696e746564206f75736420737572706173736564206e65744f7573644d696e6044820152753a2337b929ba3930ba32b3bcaa343932b9b437b6321760511b6064820152608401610749565b603c546040516340c10f1960e01b81526001600160a01b03909116906340c10f19906110dd90339085906004016130a5565b600060405180830381600087803b1580156110f757600080fd5b505af115801561110b573d6000803e3d6000fd5b5050505050565b603754600160a81b900460ff161561113c5760405162461bcd60e51b8152600401610749906131e3565b6000805160206135218339815191528054600281141561116e5760405162461bcd60e51b81526004016107499061320b565b6002825561117a611c02565b5060019055565b600080516020613521833981519152805460028114156111b35760405162461bcd60e51b81526004016107499061320b565b600282556111bf611856565b505060019055565b60606036805480602002602001604051908101604052809291908181526020018280548015610a25576020028201919060005260206000209081546001600160a01b03168152600190910190602001808311610a07575050505050905090565b600061123f6000805160206135418339815191525490565b6001600160a01b0316336001600160a01b031614905090565b611260611227565b6112ac5760405162461bcd60e51b815260206004820152601a60248201527f43616c6c6572206973206e6f742074686520476f7665726e6f720000000000006044820152606401610749565b6112d4817f44c4d30b2eaad5130ad70c3ba6972730566f3e6359ab83e800d905c61b1c51db55565b806001600160a01b03166112f46000805160206135418339815191525490565b6001600160a01b03167fa39cc5eb22d0f34d8beaefee8a3f17cc229c1a1d1ef87a5ad47313487b1c4f0d60405160405180910390a350565b600061071a612a11565b61133e611227565b61138a5760405162461bcd60e51b815260206004820152601a60248201527f43616c6c6572206973206e6f742074686520476f7665726e6f720000000000006044820152606401610749565b803b6113e45760405162461bcd60e51b8152602060048201526024808201527f6e657720696d706c656d656e746174696f6e206973206e6f74206120636f6e746044820152631c9858dd60e21b6064820152608401610749565b7fa2bd3d3cf188a41358c8b401076eb59066b09dec5775650c0de4c55187d17bd955565b6001600160a01b038116600090815260336020526040812054610100900460ff168181600181111561143c5761143c6134de565b141561146057611458601261145085611e70565b869190611eda565b915050610b64565b6001816001811115611474576114746134de565b1415611515576000836001600160a01b031663e6aa216c6040518163ffffffff1660e01b815260040160206040518083038186803b1580156114b557600080fd5b505afa1580156114c9573d6000803e3d6000fd5b505050506040513d601f19601f820116820180604052508101906114ed919061304e565b9050670de0b6b3a764000061150282876133ef565b61150c91906132e2565b92505050610b64565b60405162461bcd60e51b815260206004820152601b60248201527f556e737570706f7274656420636f6e76657273696f6e207479706500000000006044820152606401610749565b5092915050565b6001600160a01b038281166000818152603360205260408082205460375491516315d5220f60e31b81526004810194909452919361010090920460ff169291169063aea910789060240160206040518083038186803b1580156115c657600080fd5b505afa1580156115da573d6000803e3d6000fd5b505050506040513d601f19601f820116820180604052508101906115fe919061304e565b91506001816001811115611614576116146134de565b14156116b4576000846001600160a01b031663e6aa216c6040518163ffffffff1660e01b815260040160206040518083038186803b15801561165557600080fd5b505afa158015611669573d6000803e3d6000fd5b505050506040513d601f19601f8201168201806040525081019061168d919061304e565b9050806116a284670de0b6b3a76400006133ef565b6116ac91906132e2565b925050611715565b60008160018111156116c8576116c86134de565b146117155760405162461bcd60e51b815260206004820152601b60248201527f556e737570706f7274656420636f6e76657273696f6e207479706500000000006044820152606401610749565b67120a871cc002000082111561176d5760405162461bcd60e51b815260206004820152601860248201527f5661756c743a2050726963652065786365656473206d617800000000000000006044820152606401610749565b6709b6e64a8ec600008210156117be5760405162461bcd60e51b81526020600482015260166024820152752b30bab63a1d10283934b1b2903ab73232b91036b4b760511b6044820152606401610749565b821561183557670de0b6b3a76400008211156117e057670de0b6b3a764000091505b670dd99bb65dd700008210156118305760405162461bcd60e51b815260206004820152601560248201527441737365742070726963652062656c6f772070656760581b6044820152606401610749565b61155d565b670de0b6b3a764000082101561155d5750670de0b6b3a76400009392505050565b603754600090600160a01b900460ff16156118a55760405162461bcd60e51b815260206004820152600f60248201526e149958985cda5b99c81c185d5cd959608a1b6044820152606401610749565b603c54604080516318160ddd60e01b815290516000926001600160a01b0316916318160ddd916004808301926020929190829003018186803b1580156118ea57600080fd5b505afa1580156118fe573d6000803e3d6000fd5b505050506040513d601f19601f82011682018060405250810190611922919061304e565b9050600061192e612a11565b90508161193e579150611b8e9050565b6042546001600160a01b0316801580159061195857508282115b15611a9a576000611969848461344d565b9050600061198660435461271084612a2d9092919063ffffffff16565b90508082116119e25760405162461bcd60e51b815260206004820152602260248201527f466565206d757374206e6f742062652067726561746572207468616e207969656044820152611b1960f21b6064820152608401610749565b8015611a4d57603c546040516340c10f1960e01b81526001600160a01b03909116906340c10f1990611a1a90869085906004016130a5565b600060405180830381600087803b158015611a3457600080fd5b505af1158015611a48573d6000803e3d6000fd5b505050505b604080516001600160a01b0385168152602081018490529081018290527f09516ecf4a8a86e59780a9befc6dee948bc9e60a36e3be68d31ea817ee8d2c809060600160405180910390a150505b603c60009054906101000a90046001600160a01b03166001600160a01b03166318160ddd6040518163ffffffff1660e01b815260040160206040518083038186803b158015611ae857600080fd5b505afa158015611afc573d6000803e3d6000fd5b505050506040513d601f19601f82011682018060405250810190611b20919061304e565b925082821115611b8957603c546040516339a7919f60e01b8152600481018490526001600160a01b03909116906339a7919f90602401600060405180830381600087803b158015611b7057600080fd5b505af1158015611b84573d6000803e3d6000fd5b505050505b509150505b90565b6040516001600160a01b0380851660248301528316604482015260648101829052611bfc9085906323b872dd60e01b906084015b60408051601f198184030181529190526020810180516001600160e01b03166001600160e01b031990931692909217909152612a4f565b50505050565b6000611c0c612b26565b905080611c165750565b6000611c20612c08565b90506000611c2e82846132ca565b9050600082611c5357603954611c4c90670de0b6b3a764000061344d565b9050611c90565b8382603954611c6291906133ef565b611c6c91906132e2565b905080670de0b6b3a76400001115611bfc57611c4c81670de0b6b3a764000061344d565b80611c9b5750505050565b60345460005b81811015611e6857600060348281548110611cbe57611cbe6134f4565b60009182526020822001546040516370a0823160e01b81523060048201526001600160a01b03909116925082906370a082319060240160206040518083038186803b158015611d0c57600080fd5b505afa158015611d20573d6000803e3d6000fd5b505050506040513d601f19601f82011682018060405250810190611d44919061304e565b905080611d52575050611e58565b6000611d5e8287612c64565b6001600160a01b03808516600090815260406020819052902054919250168015801590611d8b5750600082115b15611e535780611da56001600160a01b0386168285612c79565b6040516311f9fbc960e21b81526001600160a01b038216906347e7ef2490611dd390889087906004016130a5565b600060405180830381600087803b158015611ded57600080fd5b505af1158015611e01573d6000803e3d6000fd5b5050604080516001600160a01b03808a168252861660208201529081018690527f41b99659f6ba0803f444aff29e5bf6e26dd86a3219aff92119d69710a956ba8d9250606001905060405180910390a1505b505050505b611e6181613490565b9050611ca1565b505050505050565b6001600160a01b03811660009081526033602052604090205462010000900460ff1680611ed55760405162461bcd60e51b8152602060048201526013602482015272111958da5b585b1cc81b9bdd0818d858da1959606a1b6044820152606401610749565b919050565b600081831115611f0a57611f03611ef1838561344d565b611efc90600a613347565b8590612c98565b9350611f34565b81831015611f3457611f31611f1f848461344d565b611f2a90600a613347565b8590612ca4565b93505b509192915050565b6001600160a01b038116611f925760405162461bcd60e51b815260206004820152601a60248201527f4e657720476f7665726e6f7220697320616464726573732830290000000000006044820152606401610749565b806001600160a01b0316611fb26000805160206135418339815191525490565b6001600160a01b03167fc7c0c772add429241571afb3805861fb3cfa2af374534088b76cdb4325a87e9a60405160405180910390a3610d298160008051602061354183398151915255565b6040516370a0823160e01b815230600482015260009082906001600160a01b038216906370a082319060240160206040518083038186803b15801561204157600080fd5b505afa158015612055573d6000803e3d6000fd5b505050506040513d601f19601f82011682018060405250810190612079919061304e565b60365490925060005b818110156121c45760006036828154811061209f5761209f6134f4565b60009182526020909120015460405163551c457b60e11b81526001600160a01b0388811660048301529091169150819063aa388af69060240160206040518083038186803b1580156120f057600080fd5b505afa158015612104573d6000803e3d6000fd5b505050506040513d601f19601f820116820180604052508101906121289190613013565b156121b357604051632fa8a91360e11b81526001600160a01b038781166004830152821690635f5152269060240160206040518083038186803b15801561216e57600080fd5b505afa158015612182573d6000803e3d6000fd5b505050506040513d601f19601f820116820180604052508101906121a6919061304e565b6121b090866132ca565b94505b506121bd81613490565b9050612082565b505050919050565b60006001600160ff1b0382126121f45760405162461bcd60e51b8152600401610749906131ba565b600082121561220b57612206826134ab565b610b64565b5090565b60345460609060008167ffffffffffffffff8111156122305761223061350a565b604051908082528060200260200182016040528015612259578160200160208202803683370190505b50905060008267ffffffffffffffff8111156122775761227761350a565b6040519080825280602002602001820160405280156122a0578160200160208202803683370190505b5090508267ffffffffffffffff8111156122bc576122bc61350a565b6040519080825280602002602001820160405280156122e5578160200160208202803683370190505b506038549094501561231557603854600090612305908790612710612a2d565b9050612311818761344d565b9550505b6000805b848110156123d857600060348281548110612336576123366134f4565b60009182526020822001546001600160a01b0316915061235582611ffd565b90508085848151811061236a5761236a6134f4565b6020026020010181815250506123808183611408565b868481518110612392576123926134f4565b6020026020010181815250508583815181106123b0576123b06134f4565b6020026020010151846123c391906132ca565b93505050806123d190613490565b9050612319565b506000805b8581101561246c576000612417603483815481106123fd576123fd6134f4565b60009182526020822001546001600160a01b031690611564565b90506000848288858151811061242f5761242f6134f4565b602002602001015161244191906133ef565b61244b91906132e2565b905061245781856132ca565b935050508061246590613490565b90506123dd565b5060006124798883612cb0565b905060005b868110156124e357838286838151811061249a5761249a6134f4565b60200260200101516124ac91906133ef565b6124b691906132e2565b8882815181106124c8576124c86134f4565b60209081029190910101526124dc81613490565b905061247e565b50505050505050919050565b60006124fa8361220f565b90507f222838db2794d11532d940e8dec38ae307ed0b63cd97c233322e221f998767a6338460405161252d9291906130a5565b60405180910390a160345460005b8181101561277e57828181518110612555576125556134f4565b60200260200101516000141561256a5761276e565b60006034828154811061257f5761257f6134f4565b60009182526020909120015484516001600160a01b0390911691508490839081106125ac576125ac6134f4565b60209081029190910101516040516370a0823160e01b81523060048201526001600160a01b038316906370a082319060240160206040518083038186803b1580156125f657600080fd5b505afa15801561260a573d6000803e3d6000fd5b505050506040513d601f19601f8201168201806040525081019061262e919061304e565b1061266f5761266a33858481518110612649576126496134f4565b6020026020010151836001600160a01b0316612c799092919063ffffffff16565b61276c565b6001600160a01b03808216600090815260406020819052902054168015612730576000819050806001600160a01b031663d9caed1233858988815181106126b8576126b86134f4565b60209081029190910101516040516001600160e01b031960e086901b1681526001600160a01b0393841660048201529290911660248301526044820152606401600060405180830381600087803b15801561271257600080fd5b505af1158015612726573d6000803e3d6000fd5b505050505061276a565b60405162461bcd60e51b815260206004820152600f60248201526e2634b8bab4b234ba3c9032b93937b960891b6044820152606401610749565b505b505b61277781613490565b905061253b565b50821561284b576000805b83518110156127f8576127dc8482815181106127a7576127a76134f4565b6020026020010151603483815481106127c2576127c26134f4565b6000918252602090912001546001600160a01b0316611408565b6127e690836132ca565b91506127f181613490565b9050612789565b50838110156128495760405162461bcd60e51b815260206004820181905260248201527f52656465656d20616d6f756e74206c6f776572207468616e206d696e696d756d6044820152606401610749565b505b603c54604051632770a7eb60e21b81526001600160a01b0390911690639dc29fac9061287d90339088906004016130a5565b600060405180830381600087803b15801561289757600080fd5b505af11580156128ab573d6000803e3d6000fd5b505050506000603b5485101580156128cd5750603754600160a01b900460ff16155b156128e1576128da611856565b90506128ec565b6128e9612a11565b90505b6041541561110b57600061298682603c60009054906101000a90046001600160a01b03166001600160a01b03166318160ddd6040518163ffffffff1660e01b815260040160206040518083038186803b15801561294857600080fd5b505afa15801561295c573d6000803e3d6000fd5b505050506040513d601f19601f82011682018060405250810190612980919061304e565b90612cb0565b9050604154670de0b6b3a764000082116129b1576129ac82670de0b6b3a764000061344d565b6129c3565b6129c3670de0b6b3a76400008361344d565b1115611e685760405162461bcd60e51b815260206004820152601e60248201527f4261636b696e6720737570706c79206c6971756964697479206572726f7200006044820152606401610749565b6000612a1b612c08565b612a23612b26565b61071a91906132ca565b600080612a3a8585612c98565b9050612a468184612ca4565b95945050505050565b6000612aa4826040518060400160405280602081526020017f5361666545524332303a206c6f772d6c6576656c2063616c6c206661696c6564815250856001600160a01b0316612cd99092919063ffffffff16565b805190915015612b215780806020019051810190612ac29190613013565b612b215760405162461bcd60e51b815260206004820152602a60248201527f5361666545524332303a204552433230206f7065726174696f6e20646964206e6044820152691bdd081cdd58d8d9595960b21b6064820152608401610749565b505050565b603454600090815b81811015612c0357600060348281548110612b4b57612b4b6134f4565b60009182526020822001546040516370a0823160e01b81523060048201526001600160a01b03909116925082906370a082319060240160206040518083038186803b158015612b9957600080fd5b505afa158015612bad573d6000803e3d6000fd5b505050506040513d601f19601f82011682018060405250810190612bd1919061304e565b90508015612bf057612be38183611408565b612bed90866132ca565b94505b505080612bfc90613490565b9050612b2e565b505090565b603654600090815b81811015612c0357612c4860368281548110612c2e57612c2e6134f4565b6000918252602090912001546001600160a01b0316612ce8565b612c5290846132ca565b9250612c5d81613490565b9050612c10565b6000610a838383670de0b6b3a7640000612a2d565b612b218363a9059cbb60e01b8484604051602401611bc59291906130a5565b6000610a8382846133ef565b6000610a8382846132e2565b600080612cc584670de0b6b3a7640000612c98565b9050612cd18184612ca4565b949350505050565b6060612cd18484600085612e4d565b6034546000908290825b818110156121c457600060348281548110612d0f57612d0f6134f4565b60009182526020909120015460405163551c457b60e11b81526001600160a01b039182166004820181905292509085169063aa388af69060240160206040518083038186803b158015612d6157600080fd5b505afa158015612d75573d6000803e3d6000fd5b505050506040513d601f19601f82011682018060405250810190612d999190613013565b15612e3c57604051632fa8a91360e11b81526001600160a01b03828116600483015260009190861690635f5152269060240160206040518083038186803b158015612de357600080fd5b505afa158015612df7573d6000803e3d6000fd5b505050506040513d601f19601f82011682018060405250810190612e1b919061304e565b90508015612e3a57612e2d8183611408565b612e3790876132ca565b95505b505b50612e4681613490565b9050612cf2565b606082471015612eae5760405162461bcd60e51b815260206004820152602660248201527f416464726573733a20696e73756666696369656e742062616c616e636520666f6044820152651c8818d85b1b60d21b6064820152608401610749565b843b612efc5760405162461bcd60e51b815260206004820152601d60248201527f416464726573733a2063616c6c20746f206e6f6e2d636f6e74726163740000006044820152606401610749565b600080866001600160a01b03168587604051612f189190613089565b60006040518083038185875af1925050503d8060008114612f55576040519150601f19603f3d011682016040523d82523d6000602084013e612f5a565b606091505b5091509150612f6a828286612f75565b979650505050505050565b60608315612f84575081610a83565b825115612f945782518084602001fd5b8160405162461bcd60e51b81526004016107499190613143565b80356001600160a01b0381168114611ed557600080fd5b600060208284031215612fd757600080fd5b610a8382612fae565b600080600060608486031215612ff557600080fd5b612ffe84612fae565b95602085013595506040909401359392505050565b60006020828403121561302557600080fd5b81518015158114610a8357600080fd5b60006020828403121561304757600080fd5b5035919050565b60006020828403121561306057600080fd5b5051919050565b6000806040838503121561307a57600080fd5b50508035926020909101359150565b6000825161309b818460208701613464565b9190910192915050565b6001600160a01b03929092168252602082015260400190565b6020808252825182820181905260009190848201906040850190845b818110156130ff5783516001600160a01b0316835292840192918401916001016130da565b50909695505050505050565b6020808252825182820181905260009190848201906040850190845b818110156130ff57835183529284019291840191600101613127565b6020815260008251806020840152613162816040850160208701613464565b601f01601f19169190910160400192915050565b60208082526024908201527f43616c6c6572206973206e6f7420746865204f555344206d65746120737472616040820152637465677960e01b606082015260800190565b6020808252600f908201526e082dadeeadce840e8dede40d0d2ced608b1b604082015260600190565b6020808252600e908201526d10d85c1a5d185b081c185d5cd95960921b604082015260600190565b6020808252600e908201526d1499595b9d1c985b9d0818d85b1b60921b604082015260600190565b815115158152602082015160808201906002811061326157634e487b7160e01b600052602160045260246000fd5b8060208401525060ff604084015116604083015261ffff606084015116606083015292915050565b600080821280156001600160ff1b03849003851316156132ab576132ab6134c8565b600160ff1b83900384128116156132c4576132c46134c8565b50500190565b600082198211156132dd576132dd6134c8565b500190565b6000826132ff57634e487b7160e01b600052601260045260246000fd5b500490565b600181815b8085111561333f578160001904821115613325576133256134c8565b8085161561333257918102915b93841c9390800290613309565b509250929050565b6000610a83838360008261335d57506001610b64565b8161336a57506000610b64565b8160018114613380576002811461338a576133a6565b6001915050610b64565b60ff84111561339b5761339b6134c8565b50506001821b610b64565b5060208310610133831016604e8410600b84101617156133c9575081810a610b64565b6133d38383613304565b80600019048211156133e7576133e76134c8565b029392505050565b6000816000190483118215151615613409576134096134c8565b500290565b60008083128015600160ff1b85018412161561342c5761342c6134c8565b6001600160ff1b0384018313811615613447576134476134c8565b50500390565b60008282101561345f5761345f6134c8565b500390565b60005b8381101561347f578181015183820152602001613467565b83811115611bfc5750506000910152565b60006000198214156134a4576134a46134c8565b5060010190565b6000600160ff1b8214156134c1576134c16134c8565b5060000390565b634e487b7160e01b600052601160045260246000fd5b634e487b7160e01b600052602160045260246000fd5b634e487b7160e01b600052603260045260246000fd5b634e487b7160e01b600052604160045260246000fdfe53bf423e48ed90e97d02ab0ebab13b2a235a6bfbe9c321847d5c175333ac45357bea13895fa79d2831e0a9e28edede30099005a50d652d8957cf8a607ee6ca4aa26469706673582212209ccb2610ebb083fc75ce814c82a613e7297aace4c5f2584f58077676a165f3da64736f6c634300080700337bea13895fa79d2831e0a9e28edede30099005a50d652d8957cf8a607ee6ca4a",
  "devdoc": {
    "author": "Origin Protocol Inc",
    "kind": "dev",
    "methods": {
      "burnForStrategy(uint256)": {
        "details": "Notice: can't use `nonReentrant` modifier since the `redeem` function could require withdrawal on `ConvexOUSDMetaStrategy` and that one can call `burnForStrategy` while the execution of the `redeem` has not yet completed -> causing a `nonReentrant` collision. Also important to understand is that this is a limitation imposed by the test suite. Production / mainnet contracts should never be configured in a way where mint/redeem functions that are moving funds between the Vault and end user wallets can influence strategies utilizing this function.",
        "params": {
          "_amount": "Amount of OUSD to burn"
        }
      },
      "checkBalance(address)": {
        "params": {
          "_asset": "Address of asset"
        },
        "returns": {
          "_0": "uint256 Balance of asset in decimals of asset"
        }
      },
      "isSupportedAsset(address)": {
        "params": {
          "_asset": "address of the asset"
        },
        "returns": {
          "_0": "true if supported"
        }
      },
      "mint(address,uint256,uint256)": {
        "params": {
          "_amount": "Amount of the asset being deposited",
          "_asset": "Address of the asset being deposited",
          "_minimumOusdAmount": "Minimum OTokens to mint"
        }
      },
      "mintForStrategy(uint256)": {
        "params": {
          "_amount": "Amount of the asset being deposited Notice: can't use `nonReentrant` modifier since the `mint` function can call `allocate`, and that can trigger `ConvexOUSDMetaStrategy` to call this function while the execution of the `mint` has not yet completed -> causing a `nonReentrant` collision. Also important to understand is that this is a limitation imposed by the test suite. Production / mainnet contracts should never be configured in a way where mint/redeem functions that are moving funds between the Vault and end user wallets can influence strategies utilizing this function."
        }
      },
      "priceUnitMint(address)": {
        "params": {
          "asset": "address of the asset"
        },
        "returns": {
          "price": "uint256: unit (USD / ETH) price for 1 unit of the asset, in 18 decimal fixed"
        }
      },
      "priceUnitRedeem(address)": {
        "params": {
          "asset": "Address of the asset"
        },
        "returns": {
          "price": "uint256: unit (USD / ETH) price for 1 unit of the asset, in 18 decimal fixed"
        }
      },
      "redeem(uint256,uint256)": {
        "params": {
          "_amount": "Amount of OTokens to burn",
          "_minimumUnitAmount": "Minimum stablecoin units to receive in return"
        }
      },
      "redeemAll(uint256)": {
        "params": {
          "_minimumUnitAmount": "Minimum stablecoin units to receive in return"
        }
      },
      "setAdminImpl(address)": {
        "params": {
          "newImpl": "address of the implementation"
        }
      },
      "totalValue()": {
        "returns": {
          "value": "Total value in USD (1e18)"
        }
      },
      "transferGovernance(address)": {
        "params": {
          "_newGovernor": "Address of the new Governor"
        }
      }
    },
    "title": "OETH VaultCore Contract",
    "version": 1
  },
  "userdoc": {
    "kind": "user",
    "methods": {
      "allocate()": {
        "notice": "Allocate unallocated funds on Vault to strategies.*"
      },
      "assetDefaultStrategies(address)": {
        "notice": "Mapping of asset address to the Strategy that they should automatically"
      },
      "autoAllocateThreshold()": {
        "notice": "OToken mints over this amount automatically allocate funds. 18 decimals."
      },
      "burnForStrategy(uint256)": {
        "notice": "Burn OTokens for Metapool Strategy"
      },
      "calculateRedeemOutputs(uint256)": {
        "notice": "Calculate the outputs for a redeem function, i.e. the mix of coins that will be returned"
      },
      "capitalPaused()": {
        "notice": "pause operations that change the OToken supply. eg mint, redeem, allocate, mint/burn for strategy"
      },
      "checkBalance(address)": {
        "notice": "Get the balance of an asset held in Vault and all strategies."
      },
      "claimGovernance()": {
        "notice": "Claim Governance of the contract to a new account (`newGovernor`). Can only be called by the new Governor."
      },
      "getAllAssets()": {
        "notice": "Return all vault asset addresses in order"
      },
      "getAllStrategies()": {
        "notice": "Return the array of all strategies"
      },
      "getAssetConfig(address)": {
        "notice": "Gets the vault configuration of a supported asset."
      },
      "getAssetCount()": {
        "notice": "Return the number of assets supported by the Vault."
      },
      "getStrategyCount()": {
        "notice": "Return the number of strategies active on the Vault."
      },
      "governor()": {
        "notice": "Returns the address of the current Governor."
      },
      "isGovernor()": {
        "notice": "Returns true if the caller is the current Governor."
      },
      "isSupportedAsset(address)": {
        "notice": "Returns whether the vault supports the asset"
      },
      "maxSupplyDiff()": {
        "notice": "Max difference between total supply and total value of assets. 18 decimals."
      },
      "mint(address,uint256,uint256)": {
        "notice": "Deposit a supported asset and mint OTokens."
      },
      "mintForStrategy(uint256)": {
        "notice": "Mint OTokens for a Metapool Strategy"
      },
      "netOusdMintForStrategyThreshold()": {
        "notice": "How much net total OTokens are allowed to be minted by all strategies"
      },
      "netOusdMintedForStrategy()": {
        "notice": "How much OTokens are currently minted by the strategy"
      },
      "ousdMetaStrategy()": {
        "notice": "Metapool strategy that is allowed to mint/burn OTokens without changing collateral"
      },
      "priceProvider()": {
        "notice": "Address of the Oracle price provider contract"
      },
      "priceUnitMint(address)": {
        "notice": "Returns the total price in 18 digit units for a given asset.      Never goes above 1, since that is how we price mints."
      },
      "priceUnitRedeem(address)": {
        "notice": "Returns the total price in 18 digit unit for a given asset.      Never goes below 1, since that is how we price redeems"
      },
      "rebase()": {
        "notice": "Calculate the total value of assets held by the Vault and all      strategies and update the supply of OTokens."
      },
      "rebasePaused()": {
        "notice": "pause rebasing if true"
      },
      "rebaseThreshold()": {
        "notice": "OToken mints over this amount automatically rebase. 18 decimals."
      },
      "redeem(uint256,uint256)": {
        "notice": "Withdraw a supported asset and burn OTokens."
      },
      "redeemAll(uint256)": {
        "notice": "Withdraw a supported asset and burn all OTokens."
      },
      "redeemFeeBps()": {
        "notice": "Redemption fee in basis points. eg 50 = 0.5%"
      },
      "setAdminImpl(address)": {
        "notice": "set the implementation for the admin, this needs to be in a base class else we cannot set it"
      },
      "strategistAddr()": {
        "notice": "Address of the Strategist"
      },
      "totalValue()": {
        "notice": "Determine the total value of assets held by the vault and its         strategies."
      },
      "transferGovernance(address)": {
        "notice": "Transfers Governance of the contract to a new account (`newGovernor`). Can only be called by the current Governor. Must be claimed for this to complete"
      },
      "trusteeAddress()": {
        "notice": "Trustee contract that can collect a percentage of yield"
      },
      "trusteeFeeBps()": {
        "notice": "Amount of yield collected in basis points. eg 2000 = 20%"
      },
      "vaultBuffer()": {
        "notice": "Percentage of assets to keep in Vault to handle (most) withdrawals. 100% = 1e18."
      }
    },
    "version": 1
  },
  "storageLayout": {
    "storage": [
      {
        "astId": 28178,
        "contract": "contracts/vault/OETHVaultCore.sol:OETHVaultCore",
        "label": "initialized",
        "offset": 0,
        "slot": "0",
        "type": "t_bool"
      },
      {
        "astId": 28181,
        "contract": "contracts/vault/OETHVaultCore.sol:OETHVaultCore",
        "label": "initializing",
        "offset": 1,
        "slot": "0",
        "type": "t_bool"
      },
      {
        "astId": 28221,
        "contract": "contracts/vault/OETHVaultCore.sol:OETHVaultCore",
        "label": "______gap",
        "offset": 0,
        "slot": "1",
        "type": "t_array(t_uint256)50_storage"
      },
      {
        "astId": 32478,
        "contract": "contracts/vault/OETHVaultCore.sol:OETHVaultCore",
        "label": "assets",
        "offset": 0,
        "slot": "51",
        "type": "t_mapping(t_address,t_struct(Asset)32472_storage)"
      },
      {
        "astId": 32482,
        "contract": "contracts/vault/OETHVaultCore.sol:OETHVaultCore",
        "label": "allAssets",
        "offset": 0,
        "slot": "52",
        "type": "t_array(t_address)dyn_storage"
      },
      {
        "astId": 32493,
        "contract": "contracts/vault/OETHVaultCore.sol:OETHVaultCore",
        "label": "strategies",
        "offset": 0,
        "slot": "53",
        "type": "t_mapping(t_address,t_struct(Strategy)32487_storage)"
      },
      {
        "astId": 32497,
        "contract": "contracts/vault/OETHVaultCore.sol:OETHVaultCore",
        "label": "allStrategies",
        "offset": 0,
        "slot": "54",
        "type": "t_array(t_address)dyn_storage"
      },
      {
        "astId": 32500,
        "contract": "contracts/vault/OETHVaultCore.sol:OETHVaultCore",
        "label": "priceProvider",
        "offset": 0,
        "slot": "55",
        "type": "t_address"
      },
      {
        "astId": 32504,
        "contract": "contracts/vault/OETHVaultCore.sol:OETHVaultCore",
        "label": "rebasePaused",
        "offset": 20,
        "slot": "55",
        "type": "t_bool"
      },
      {
        "astId": 32508,
        "contract": "contracts/vault/OETHVaultCore.sol:OETHVaultCore",
        "label": "capitalPaused",
        "offset": 21,
        "slot": "55",
        "type": "t_bool"
      },
      {
        "astId": 32511,
        "contract": "contracts/vault/OETHVaultCore.sol:OETHVaultCore",
        "label": "redeemFeeBps",
        "offset": 0,
        "slot": "56",
        "type": "t_uint256"
      },
      {
        "astId": 32514,
        "contract": "contracts/vault/OETHVaultCore.sol:OETHVaultCore",
        "label": "vaultBuffer",
        "offset": 0,
        "slot": "57",
        "type": "t_uint256"
      },
      {
        "astId": 32517,
        "contract": "contracts/vault/OETHVaultCore.sol:OETHVaultCore",
        "label": "autoAllocateThreshold",
        "offset": 0,
        "slot": "58",
        "type": "t_uint256"
      },
      {
        "astId": 32520,
        "contract": "contracts/vault/OETHVaultCore.sol:OETHVaultCore",
        "label": "rebaseThreshold",
        "offset": 0,
        "slot": "59",
        "type": "t_uint256"
      },
      {
        "astId": 32524,
        "contract": "contracts/vault/OETHVaultCore.sol:OETHVaultCore",
        "label": "oUSD",
        "offset": 0,
        "slot": "60",
        "type": "t_contract(OUSD)27579"
      },
      {
        "astId": 32533,
        "contract": "contracts/vault/OETHVaultCore.sol:OETHVaultCore",
        "label": "_deprecated_rebaseHooksAddr",
        "offset": 0,
        "slot": "61",
        "type": "t_address"
      },
      {
        "astId": 32539,
        "contract": "contracts/vault/OETHVaultCore.sol:OETHVaultCore",
        "label": "_deprecated_uniswapAddr",
        "offset": 0,
        "slot": "62",
        "type": "t_address"
      },
      {
        "astId": 32546,
        "contract": "contracts/vault/OETHVaultCore.sol:OETHVaultCore",
        "label": "strategistAddr",
        "offset": 0,
        "slot": "63",
        "type": "t_address"
      },
      {
        "astId": 32551,
        "contract": "contracts/vault/OETHVaultCore.sol:OETHVaultCore",
        "label": "assetDefaultStrategies",
        "offset": 0,
        "slot": "64",
        "type": "t_mapping(t_address,t_address)"
      },
      {
        "astId": 32554,
        "contract": "contracts/vault/OETHVaultCore.sol:OETHVaultCore",
        "label": "maxSupplyDiff",
        "offset": 0,
        "slot": "65",
        "type": "t_uint256"
      },
      {
        "astId": 32557,
        "contract": "contracts/vault/OETHVaultCore.sol:OETHVaultCore",
        "label": "trusteeAddress",
        "offset": 0,
        "slot": "66",
        "type": "t_address"
      },
      {
        "astId": 32560,
        "contract": "contracts/vault/OETHVaultCore.sol:OETHVaultCore",
        "label": "trusteeFeeBps",
        "offset": 0,
        "slot": "67",
        "type": "t_uint256"
      },
      {
        "astId": 32564,
        "contract": "contracts/vault/OETHVaultCore.sol:OETHVaultCore",
        "label": "_deprecated_swapTokens",
        "offset": 0,
        "slot": "68",
        "type": "t_array(t_address)dyn_storage"
      },
      {
        "astId": 32574,
        "contract": "contracts/vault/OETHVaultCore.sol:OETHVaultCore",
        "label": "ousdMetaStrategy",
        "offset": 0,
        "slot": "69",
        "type": "t_address"
      },
      {
        "astId": 32578,
        "contract": "contracts/vault/OETHVaultCore.sol:OETHVaultCore",
        "label": "netOusdMintedForStrategy",
        "offset": 0,
        "slot": "70",
        "type": "t_int256"
      },
      {
        "astId": 32582,
        "contract": "contracts/vault/OETHVaultCore.sol:OETHVaultCore",
        "label": "netOusdMintForStrategyThreshold",
        "offset": 0,
        "slot": "71",
        "type": "t_uint256"
      },
      {
        "astId": 32603,
        "contract": "contracts/vault/OETHVaultCore.sol:OETHVaultCore",
        "label": "swapConfig",
        "offset": 0,
        "slot": "72",
        "type": "t_struct(SwapConfig)32593_storage"
      }
    ],
    "types": {
      "t_address": {
        "encoding": "inplace",
        "label": "address",
        "numberOfBytes": "20"
      },
      "t_array(t_address)dyn_storage": {
        "base": "t_address",
        "encoding": "dynamic_array",
        "label": "address[]",
        "numberOfBytes": "32"
      },
      "t_array(t_uint256)50_storage": {
        "base": "t_uint256",
        "encoding": "inplace",
        "label": "uint256[50]",
        "numberOfBytes": "1600"
      },
      "t_bool": {
        "encoding": "inplace",
        "label": "bool",
        "numberOfBytes": "1"
      },
      "t_contract(OUSD)27579": {
        "encoding": "inplace",
        "label": "contract OUSD",
        "numberOfBytes": "20"
      },
      "t_enum(UnitConversion)32462": {
        "encoding": "inplace",
        "label": "enum VaultStorage.UnitConversion",
        "numberOfBytes": "1"
      },
      "t_int256": {
        "encoding": "inplace",
        "label": "int256",
        "numberOfBytes": "32"
      },
      "t_mapping(t_address,t_address)": {
        "encoding": "mapping",
        "key": "t_address",
        "label": "mapping(address => address)",
        "numberOfBytes": "32",
        "value": "t_address"
      },
      "t_mapping(t_address,t_struct(Asset)32472_storage)": {
        "encoding": "mapping",
        "key": "t_address",
        "label": "mapping(address => struct VaultStorage.Asset)",
        "numberOfBytes": "32",
        "value": "t_struct(Asset)32472_storage"
      },
      "t_mapping(t_address,t_struct(Strategy)32487_storage)": {
        "encoding": "mapping",
        "key": "t_address",
        "label": "mapping(address => struct VaultStorage.Strategy)",
        "numberOfBytes": "32",
        "value": "t_struct(Strategy)32487_storage"
      },
      "t_struct(Asset)32472_storage": {
        "encoding": "inplace",
        "label": "struct VaultStorage.Asset",
        "members": [
          {
            "astId": 32464,
            "contract": "contracts/vault/OETHVaultCore.sol:OETHVaultCore",
            "label": "isSupported",
            "offset": 0,
            "slot": "0",
            "type": "t_bool"
          },
          {
            "astId": 32467,
            "contract": "contracts/vault/OETHVaultCore.sol:OETHVaultCore",
            "label": "unitConversion",
            "offset": 1,
            "slot": "0",
            "type": "t_enum(UnitConversion)32462"
          },
          {
            "astId": 32469,
            "contract": "contracts/vault/OETHVaultCore.sol:OETHVaultCore",
            "label": "decimals",
            "offset": 2,
            "slot": "0",
            "type": "t_uint8"
          },
          {
            "astId": 32471,
            "contract": "contracts/vault/OETHVaultCore.sol:OETHVaultCore",
            "label": "allowedOracleSlippageBps",
            "offset": 3,
            "slot": "0",
            "type": "t_uint16"
          }
        ],
        "numberOfBytes": "32"
      },
      "t_struct(Strategy)32487_storage": {
        "encoding": "inplace",
        "label": "struct VaultStorage.Strategy",
        "members": [
          {
            "astId": 32484,
            "contract": "contracts/vault/OETHVaultCore.sol:OETHVaultCore",
            "label": "isSupported",
            "offset": 0,
            "slot": "0",
            "type": "t_bool"
          },
          {
            "astId": 32486,
            "contract": "contracts/vault/OETHVaultCore.sol:OETHVaultCore",
            "label": "_deprecated",
            "offset": 0,
            "slot": "1",
            "type": "t_uint256"
          }
        ],
        "numberOfBytes": "64"
      },
      "t_struct(SwapConfig)32593_storage": {
        "encoding": "inplace",
        "label": "struct VaultStorage.SwapConfig",
        "members": [
          {
            "astId": 32590,
            "contract": "contracts/vault/OETHVaultCore.sol:OETHVaultCore",
            "label": "swapper",
            "offset": 0,
            "slot": "0",
            "type": "t_address"
          },
          {
            "astId": 32592,
            "contract": "contracts/vault/OETHVaultCore.sol:OETHVaultCore",
            "label": "allowedUndervalueBps",
            "offset": 20,
            "slot": "0",
            "type": "t_uint16"
          }
        ],
        "numberOfBytes": "32"
      },
      "t_uint16": {
        "encoding": "inplace",
        "label": "uint16",
        "numberOfBytes": "2"
      },
      "t_uint256": {
        "encoding": "inplace",
        "label": "uint256",
        "numberOfBytes": "32"
      },
      "t_uint8": {
        "encoding": "inplace",
        "label": "uint8",
        "numberOfBytes": "1"
      }
    }
  }
}