{
  "address": "0x2FDfBb2b905484f1445E23A97C97F65fe0e43dEC",
  "abi": [
    {
      "inputs": [
        {
          "internalType": "address",
          "name": "_vault",
          "type": "address"
        },
        {
          "internalType": "address",
          "name": "_token",
          "type": "address"
        }
      ],
      "stateMutability": "nonpayable",
      "type": "constructor"
    },
    {
      "anonymous": false,
      "inputs": [
        {
          "indexed": true,
          "internalType": "address",
          "name": "previousGovernor",
          "type": "address"
        },
        {
          "indexed": true,
          "internalType": "address",
          "name": "newGovernor",
          "type": "address"
        }
      ],
      "name": "GovernorshipTransferred",
      "type": "event"
    },
    {
      "anonymous": false,
      "inputs": [
        {
          "indexed": true,
          "internalType": "address",
          "name": "previousGovernor",
          "type": "address"
        },
        {
          "indexed": true,
          "internalType": "address",
          "name": "newGovernor",
          "type": "address"
        }
      ],
      "name": "PendingGovernorshipTransfer",
      "type": "event"
    },
    {
      "inputs": [],
      "name": "availableFunds",
      "outputs": [
        {
          "internalType": "uint256",
          "name": "",
          "type": "uint256"
        }
      ],
      "stateMutability": "view",
      "type": "function"
    },
    {
      "inputs": [],
      "name": "claimGovernance",
      "outputs": [],
      "stateMutability": "nonpayable",
      "type": "function"
    },
    {
      "inputs": [],
      "name": "collect",
      "outputs": [],
      "stateMutability": "nonpayable",
      "type": "function"
    },
    {
      "inputs": [],
      "name": "collectAndRebase",
      "outputs": [],
      "stateMutability": "nonpayable",
      "type": "function"
    },
    {
      "inputs": [],
      "name": "drip",
      "outputs": [
        {
          "internalType": "uint64",
          "name": "lastCollect",
          "type": "uint64"
        },
        {
          "internalType": "uint192",
          "name": "perBlock",
          "type": "uint192"
        }
      ],
      "stateMutability": "view",
      "type": "function"
    },
    {
      "inputs": [],
      "name": "dripDuration",
      "outputs": [
        {
          "internalType": "uint256",
          "name": "",
          "type": "uint256"
        }
      ],
      "stateMutability": "view",
      "type": "function"
    },
    {
      "inputs": [],
      "name": "governor",
      "outputs": [
        {
          "internalType": "address",
          "name": "",
          "type": "address"
        }
      ],
      "stateMutability": "view",
      "type": "function"
    },
    {
      "inputs": [],
      "name": "isGovernor",
      "outputs": [
        {
          "internalType": "bool",
          "name": "",
          "type": "bool"
        }
      ],
      "stateMutability": "view",
      "type": "function"
    },
    {
      "inputs": [
        {
          "internalType": "uint256",
          "name": "_durationSeconds",
          "type": "uint256"
        }
      ],
      "name": "setDripDuration",
      "outputs": [],
      "stateMutability": "nonpayable",
      "type": "function"
    },
    {
      "inputs": [
        {
          "internalType": "address",
          "name": "_newGovernor",
          "type": "address"
        }
      ],
      "name": "transferGovernance",
      "outputs": [],
      "stateMutability": "nonpayable",
      "type": "function"
    },
    {
      "inputs": [
        {
          "internalType": "address",
          "name": "_asset",
          "type": "address"
        },
        {
          "internalType": "uint256",
          "name": "_amount",
          "type": "uint256"
        }
      ],
      "name": "transferToken",
      "outputs": [],
      "stateMutability": "nonpayable",
      "type": "function"
    }
  ],
  "transactionHash": "0x24c14af31aeb147d35d7bf986d1210b9395a056eea917f430f8aa955fcfd8e3e",
  "args": [
    "0x39254033945AA2E4809Cc2977E7087BEE48bd7Ab",
    "0xc02aaa39b223fe8d0a0e5c4f27ead9083c756cc2"
  ],
  "solcInputHash": "8564b351f4bb5da3f43a5b9c5739eec4",
  "bytecode": "0x60c060405234801561001057600080fd5b50604051610e47380380610e4783398101604081905261002f916100cb565b818161004733600080516020610e2783398151915255565b600080516020610e27833981519152546040516001600160a01b03909116906000907fc7c0c772add429241571afb3805861fb3cfa2af374534088b76cdb4325a87e9a908290a36001600160601b0319606092831b8116608052911b1660a052506100fe9050565b80516001600160a01b03811681146100c657600080fd5b919050565b600080604083850312156100de57600080fd5b6100e7836100af565b91506100f5602084016100af565b90509250929050565b60805160601c60a05160601c610ce961013e600039600081816102bb0152818161058c01526106c101526000818161042801526106e30152610ce96000f3fe608060405234801561001057600080fd5b50600436106100a95760003560e01c8063737962971161007157806373796297146101195780639f678cca14610121578063bb7a632e1461016f578063c7af335214610178578063d38bfff414610190578063e5225381146101a357600080fd5b80630493a0fa146100ae5780630c340a24146100c35780631072cbea146100e857806346fcff4c146100fb5780635d36b19014610111575b600080fd5b6100c16100bc366004610b41565b6101ab565b005b6100cb610238565b6040516001600160a01b0390911681526020015b60405180910390f35b6100c16100f6366004610af5565b610255565b610103610299565b6040519081526020016100df565b6100c1610378565b6100c161041e565b6001546101479067ffffffffffffffff811690600160401b90046001600160c01b031682565b6040805167ffffffffffffffff90931683526001600160c01b039091166020830152016100df565b61010360005481565b61018061049b565b60405190151581526020016100df565b6100c161019e366004610ada565b6104cc565b6100c1610570565b6101b361049b565b6101d85760405162461bcd60e51b81526004016101cf90610bc2565b60405180910390fd5b600081116102285760405162461bcd60e51b815260206004820152601960248201527f6475726174696f6e206d757374206265206e6f6e2d7a65726f0000000000000060448201526064016101cf565b6000819055610235610574565b50565b6000610250600080516020610c948339815191525490565b905090565b61025d61049b565b6102795760405162461bcd60e51b81526004016101cf90610bc2565b610295610284610238565b6001600160a01b038416908361070d565b5050565b6040516370a0823160e01b815230600482015260009081906001600160a01b037f000000000000000000000000000000000000000000000000000000000000000016906370a082319060240160206040518083038186803b1580156102fd57600080fd5b505afa158015610311573d6000803e3d6000fd5b505050506040513d601f19601f820116820180604052508101906103359190610b5a565b6040805180820190915260015467ffffffffffffffff81168252600160401b90046001600160c01b0316602082015290915061037290829061075f565b91505090565b7f44c4d30b2eaad5130ad70c3ba6972730566f3e6359ab83e800d905c61b1c51db546001600160a01b0316336001600160a01b0316146104135760405162461bcd60e51b815260206004820152603060248201527f4f6e6c79207468652070656e64696e6720476f7665726e6f722063616e20636f60448201526f6d706c6574652074686520636c61696d60801b60648201526084016101cf565b61041c336107b1565b565b610426610574565b7f00000000000000000000000000000000000000000000000000000000000000006001600160a01b031663af14052c6040518163ffffffff1660e01b8152600401600060405180830381600087803b15801561048157600080fd5b505af1158015610495573d6000803e3d6000fd5b50505050565b60006104b3600080516020610c948339815191525490565b6001600160a01b0316336001600160a01b031614905090565b6104d461049b565b6104f05760405162461bcd60e51b81526004016101cf90610bc2565b610518817f44c4d30b2eaad5130ad70c3ba6972730566f3e6359ab83e800d905c61b1c51db55565b806001600160a01b0316610538600080516020610c948339815191525490565b6001600160a01b03167fa39cc5eb22d0f34d8beaefee8a3f17cc229c1a1d1ef87a5ad47313487b1c4f0d60405160405180910390a350565b61041c5b6040516370a0823160e01b81523060048201526000907f00000000000000000000000000000000000000000000000000000000000000006001600160a01b0316906370a082319060240160206040518083038186803b1580156105d657600080fd5b505afa1580156105ea573d6000803e3d6000fd5b505050506040513d601f19601f8201168201806040525081019061060e9190610b5a565b6040805180820190915260015467ffffffffffffffff81168252600160401b90046001600160c01b0316602082015290915060009061064e90839061075f565b9050600061065c8284610c3a565b905060405180604001604052804267ffffffffffffffff168152602001600054836106879190610bf9565b6001600160c01b03908116909152815160209092015116600160401b0267ffffffffffffffff909116176001556107086001600160a01b037f0000000000000000000000000000000000000000000000000000000000000000167f00000000000000000000000000000000000000000000000000000000000000008461070d565b505050565b604080516001600160a01b038416602482015260448082018490528251808303909101815260649091019091526020810180516001600160e01b031663a9059cbb60e01b179052610708908490610872565b8051600090819061077a9067ffffffffffffffff1642610c3a565b9050600083602001516001600160c01b0316826107979190610c1b565b90508481116107a657806107a8565b845b95945050505050565b6001600160a01b0381166108075760405162461bcd60e51b815260206004820152601a60248201527f4e657720476f7665726e6f72206973206164647265737328302900000000000060448201526064016101cf565b806001600160a01b0316610827600080516020610c948339815191525490565b6001600160a01b03167fc7c0c772add429241571afb3805861fb3cfa2af374534088b76cdb4325a87e9a60405160405180910390a361023581600080516020610c9483398151915255565b60006108c7826040518060400160405280602081526020017f5361666545524332303a206c6f772d6c6576656c2063616c6c206661696c6564815250856001600160a01b03166109449092919063ffffffff16565b80519091501561070857808060200190518101906108e59190610b1f565b6107085760405162461bcd60e51b815260206004820152602a60248201527f5361666545524332303a204552433230206f7065726174696f6e20646964206e6044820152691bdd081cdd58d8d9595960b21b60648201526084016101cf565b6060610953848460008561095d565b90505b9392505050565b6060824710156109be5760405162461bcd60e51b815260206004820152602660248201527f416464726573733a20696e73756666696369656e742062616c616e636520666f6044820152651c8818d85b1b60d21b60648201526084016101cf565b843b610a0c5760405162461bcd60e51b815260206004820152601d60248201527f416464726573733a2063616c6c20746f206e6f6e2d636f6e747261637400000060448201526064016101cf565b600080866001600160a01b03168587604051610a289190610b73565b60006040518083038185875af1925050503d8060008114610a65576040519150601f19603f3d011682016040523d82523d6000602084013e610a6a565b606091505b5091509150610a7a828286610a85565b979650505050505050565b60608315610a94575081610956565b825115610aa45782518084602001fd5b8160405162461bcd60e51b81526004016101cf9190610b8f565b80356001600160a01b0381168114610ad557600080fd5b919050565b600060208284031215610aec57600080fd5b61095682610abe565b60008060408385031215610b0857600080fd5b610b1183610abe565b946020939093013593505050565b600060208284031215610b3157600080fd5b8151801515811461095657600080fd5b600060208284031215610b5357600080fd5b5035919050565b600060208284031215610b6c57600080fd5b5051919050565b60008251610b85818460208701610c51565b9190910192915050565b6020815260008251806020840152610bae816040850160208701610c51565b601f01601f19169190910160400192915050565b6020808252601a908201527f43616c6c6572206973206e6f742074686520476f7665726e6f72000000000000604082015260600190565b600082610c1657634e487b7160e01b600052601260045260246000fd5b500490565b6000816000190483118215151615610c3557610c35610c7d565b500290565b600082821015610c4c57610c4c610c7d565b500390565b60005b83811015610c6c578181015183820152602001610c54565b838111156104955750506000910152565b634e487b7160e01b600052601160045260246000fdfe7bea13895fa79d2831e0a9e28edede30099005a50d652d8957cf8a607ee6ca4aa264697066735822122097f2ec778daeb3f50511142ac8eb7ece3a3981f1b3d0a919abf156d9e2807d9a64736f6c634300080700337bea13895fa79d2831e0a9e28edede30099005a50d652d8957cf8a607ee6ca4a",
  "devdoc": {
    "author": "Origin Protocol Inc",
    "kind": "dev",
    "methods": {
      "availableFunds()": {
        "returns": {
          "_0": "The amount that would be sent if a collect was called"
        }
      },
      "claimGovernance()": {
        "details": "Claim Governance of the contract to a new account (`newGovernor`). Can only be called by the new Governor."
      },
      "governor()": {
        "details": "Returns the address of the current Governor."
      },
      "isGovernor()": {
        "details": "Returns true if the caller is the current Governor."
      },
      "setDripDuration(uint256)": {
        "details": "Change the drip duration. Governor only.",
        "params": {
          "_durationSeconds": "the number of seconds to drip out the entire  balance over if no collects were called during that time."
        }
      },
      "transferGovernance(address)": {
        "details": "Transfers Governance of the contract to a new account (`newGovernor`). Can only be called by the current Governor. Must be claimed for this to complete",
        "params": {
          "_newGovernor": "Address of the new Governor"
        }
      },
      "transferToken(address,uint256)": {
        "details": "Transfer out ERC20 tokens held by the contract. Governor only.",
        "params": {
          "_amount": "amount to transfer",
          "_asset": "ERC20 token address"
        }
      }
    },
    "title": "OETH Dripper Contract",
    "version": 1
  },
  "userdoc": {
    "kind": "user",
    "methods": {
      "collect()": {
        "notice": "Collect all dripped funds and send to vault.  Recalculate new drip rate."
      },
      "collectAndRebase()": {
        "notice": "Collect all dripped funds, send to vault, recalculate new drip  rate, and rebase OUSD."
      }
    },
    "version": 1
  },
  "storageLayout": {
    "storage": [
      {
        "astId": 4346,
        "contract": "contracts/harvest/OETHDripper.sol:OETHDripper",
        "label": "dripDuration",
        "offset": 0,
        "slot": "0",
        "type": "t_uint256"
      },
      {
        "astId": 4349,
        "contract": "contracts/harvest/OETHDripper.sol:OETHDripper",
        "label": "drip",
        "offset": 0,
        "slot": "1",
        "type": "t_struct(Drip)4340_storage"
      }
    ],
    "types": {
      "t_struct(Drip)4340_storage": {
        "encoding": "inplace",
        "label": "struct Dripper.Drip",
        "members": [
          {
            "astId": 4337,
            "contract": "contracts/harvest/OETHDripper.sol:OETHDripper",
            "label": "lastCollect",
            "offset": 0,
            "slot": "0",
            "type": "t_uint64"
          },
          {
            "astId": 4339,
            "contract": "contracts/harvest/OETHDripper.sol:OETHDripper",
            "label": "perBlock",
            "offset": 8,
            "slot": "0",
            "type": "t_uint192"
          }
        ],
        "numberOfBytes": "32"
      },
      "t_uint192": {
        "encoding": "inplace",
        "label": "uint192",
        "numberOfBytes": "24"
      },
      "t_uint256": {
        "encoding": "inplace",
        "label": "uint256",
        "numberOfBytes": "32"
      },
      "t_uint64": {
        "encoding": "inplace",
        "label": "uint64",
        "numberOfBytes": "8"
      }
    }
  }
}