{
  "address": "0x31FD8618379D8e473Ec2B1540B906E8e11D2A99b",
  "abi": [
    {
      "inputs": [
        {
          "internalType": "address",
          "name": "_vault",
          "type": "address"
        },
        {
          "internalType": "address",
          "name": "_ousd",
          "type": "address"
        }
      ],
      "stateMutability": "nonpayable",
      "type": "constructor"
    },
    {
      "inputs": [
        {
          "internalType": "int256",
          "name": "expectedProfit",
          "type": "int256"
        },
        {
          "internalType": "int256",
          "name": "profitVariance",
          "type": "int256"
        },
        {
          "internalType": "int256",
          "name": "expectedVaultChange",
          "type": "int256"
        },
        {
          "internalType": "int256",
          "name": "vaultChangeVariance",
          "type": "int256"
        }
      ],
      "name": "checkDelta",
      "outputs": [],
      "stateMutability": "nonpayable",
      "type": "function"
    },
    {
      "inputs": [],
      "name": "ousd",
      "outputs": [
        {
          "internalType": "contract IOUSD",
          "name": "",
          "type": "address"
        }
      ],
      "stateMutability": "view",
      "type": "function"
    },
    {
      "inputs": [
        {
          "internalType": "address",
          "name": "",
          "type": "address"
        }
      ],
      "name": "snapshots",
      "outputs": [
        {
          "internalType": "uint256",
          "name": "vaultValue",
          "type": "uint256"
        },
        {
          "internalType": "uint256",
          "name": "totalSupply",
          "type": "uint256"
        },
        {
          "internalType": "uint256",
          "name": "time",
          "type": "uint256"
        }
      ],
      "stateMutability": "view",
      "type": "function"
    },
    {
      "inputs": [],
      "name": "takeSnapshot",
      "outputs": [],
      "stateMutability": "nonpayable",
      "type": "function"
    },
    {
      "inputs": [],
      "name": "vault",
      "outputs": [
        {
          "internalType": "contract IVault",
          "name": "",
          "type": "address"
        }
      ],
      "stateMutability": "view",
      "type": "function"
    }
  ],
  "transactionHash": "0x965bc53474504ee488d4f00c415ddf5ebb38947904ac5638c7bc6f9b6c38e47c",
  "args": [
    "0x39254033945AA2E4809Cc2977E7087BEE48bd7Ab",
    "0x856c4Efb76C1D1AE02e20CEB03A2A6a08b0b8dC3"
  ],
  "solcInputHash": "490dd8e63c32a56c16a9ff12906668d3",
  "bytecode": "0x60c060405234801561001057600080fd5b5060405161089a38038061089a83398101604081905261002f91610069565b6001600160601b0319606092831b8116608052911b1660a05261009c565b80516001600160a01b038116811461006457600080fd5b919050565b6000806040838503121561007c57600080fd5b6100858361004d565b91506100936020840161004d565b90509250929050565b60805160601c60a05160601c6107b86100e26000396000818160cd01528181610228015261052b01526000818161010c01528181610174015261049501526107b86000f3fe608060405234801561001057600080fd5b50600436106100575760003560e01c806334b3081f1461005c578063b1d79df5146100ab578063b3d3d37e146100c0578063bebacc8e146100c8578063fbfa77cf14610107575b600080fd5b61008b61006a36600461065a565b60006020819052908152604090208054600182015460029092015490919083565b604080519384526020840192909252908201526060015b60405180910390f35b6100be6100b936600461068a565b61012e565b005b6100be610488565b6100ef7f000000000000000000000000000000000000000000000000000000000000000081565b6040516001600160a01b0390911681526020016100a2565b6100ef7f000000000000000000000000000000000000000000000000000000000000000081565b336000908152602081815260408083208151606081018352815480825260018301549482019490945260029091015491810191909152919061016f906105ec565b6102087f00000000000000000000000000000000000000000000000000000000000000006001600160a01b031663d4c3eea06040518163ffffffff1660e01b815260040160206040518083038186803b1580156101cb57600080fd5b505afa1580156101df573d6000803e3d6000fd5b505050506040513d601f19601f8201168201806040525081019061020391906106bc565b6105ec565b6102129190610716565b9050600061022383602001516105ec565b61027f7f00000000000000000000000000000000000000000000000000000000000000006001600160a01b03166318160ddd6040518163ffffffff1660e01b815260040160206040518083038186803b1580156101cb57600080fd5b6102899190610716565b905060006102978284610716565b90506102a561012c42610755565b846040015110156102f05760405162461bcd60e51b815260206004820152601060248201526f14db985c1cda1bdd081d1bdbc81bdb1960821b60448201526064015b60405180910390fd5b42846040015111156103375760405162461bcd60e51b815260206004820152601060248201526f536e617073686f7420746f6f206e657760801b60448201526064016102e7565b6103418789610716565b8112156103815760405162461bcd60e51b815260206004820152600e60248201526d50726f66697420746f6f206c6f7760901b60448201526064016102e7565b61038b87896106d5565b8113156103cc5760405162461bcd60e51b815260206004820152600f60248201526e0a0e4deccd2e840e8dede40d0d2ced608b1b60448201526064016102e7565b6103d68587610716565b8312156104255760405162461bcd60e51b815260206004820152601a60248201527f5661756c742076616c7565206368616e676520746f6f206c6f7700000000000060448201526064016102e7565b61042f85876106d5565b83131561047e5760405162461bcd60e51b815260206004820152601b60248201527f5661756c742076616c7565206368616e676520746f6f2068696768000000000060448201526064016102e7565b5050505050505050565b60405180606001604052807f00000000000000000000000000000000000000000000000000000000000000006001600160a01b031663d4c3eea06040518163ffffffff1660e01b815260040160206040518083038186803b1580156104ec57600080fd5b505afa158015610500573d6000803e3d6000fd5b505050506040513d601f19601f8201168201806040525081019061052491906106bc565b81526020017f00000000000000000000000000000000000000000000000000000000000000006001600160a01b03166318160ddd6040518163ffffffff1660e01b815260040160206040518083038186803b15801561058257600080fd5b505afa158015610596573d6000803e3d6000fd5b505050506040513d601f19601f820116820180604052508101906105ba91906106bc565b815242602091820152336000908152808252604090819020835181559183015160018301559190910151600290910155565b60006001600160ff1b038211156106565760405162461bcd60e51b815260206004820152602860248201527f53616665436173743a2076616c756520646f65736e27742066697420696e2061604482015267371034b73a191a9b60c11b60648201526084016102e7565b5090565b60006020828403121561066c57600080fd5b81356001600160a01b038116811461068357600080fd5b9392505050565b600080600080608085870312156106a057600080fd5b5050823594602084013594506040840135936060013592509050565b6000602082840312156106ce57600080fd5b5051919050565b600080821280156001600160ff1b03849003851316156106f7576106f761076c565b600160ff1b83900384128116156107105761071061076c565b50500190565b60008083128015600160ff1b8501841216156107345761073461076c565b6001600160ff1b038401831381161561074f5761074f61076c565b50500390565b6000828210156107675761076761076c565b500390565b634e487b7160e01b600052601160045260246000fdfea2646970667358221220624f9edcb994a02685104eb2bf9beb002b9397a6d28f151dde5d1458f7b85faf64736f6c63430008070033",
  "devdoc": {
    "kind": "dev",
    "methods": {},
    "version": 1
  },
  "userdoc": {
    "kind": "user",
    "methods": {},
    "version": 1
  },
  "storageLayout": {
    "storage": [
      {
        "astId": 702,
        "contract": "contracts/strategies/VaultValueChecker.sol:OETHVaultValueChecker",
        "label": "snapshots",
        "offset": 0,
        "slot": "0",
        "type": "t_mapping(t_address,t_struct(Snapshot)697_storage)"
      }
    ],
    "types": {
      "t_address": {
        "encoding": "inplace",
        "label": "address",
        "numberOfBytes": "20"
      },
      "t_mapping(t_address,t_struct(Snapshot)697_storage)": {
        "encoding": "mapping",
        "key": "t_address",
        "label": "mapping(address => struct VaultValueChecker.Snapshot)",
        "numberOfBytes": "32",
        "value": "t_struct(Snapshot)697_storage"
      },
      "t_struct(Snapshot)697_storage": {
        "encoding": "inplace",
        "label": "struct VaultValueChecker.Snapshot",
        "members": [
          {
            "astId": 692,
            "contract": "contracts/strategies/VaultValueChecker.sol:OETHVaultValueChecker",
            "label": "vaultValue",
            "offset": 0,
            "slot": "0",
            "type": "t_uint256"
          },
          {
            "astId": 694,
            "contract": "contracts/strategies/VaultValueChecker.sol:OETHVaultValueChecker",
            "label": "totalSupply",
            "offset": 0,
            "slot": "1",
            "type": "t_uint256"
          },
          {
            "astId": 696,
            "contract": "contracts/strategies/VaultValueChecker.sol:OETHVaultValueChecker",
            "label": "time",
            "offset": 0,
            "slot": "2",
            "type": "t_uint256"
          }
        ],
        "numberOfBytes": "96"
      },
      "t_uint256": {
        "encoding": "inplace",
        "label": "uint256",
        "numberOfBytes": "32"
      }
    }
  }
}