{
  "address": "0x1091588Cc431275F99DC5Df311fd8E1Ab81c89F3",
  "abi": [
    {
      "anonymous": false,
      "inputs": [
        {
          "indexed": false,
          "internalType": "uint256",
          "name": "_threshold",
          "type": "uint256"
        }
      ],
      "name": "AllocateThresholdUpdated",
      "type": "event"
    },
    {
      "anonymous": false,
      "inputs": [
        {
          "indexed": false,
          "internalType": "address",
          "name": "_asset",
          "type": "address"
        },
        {
          "indexed": false,
          "internalType": "address",
          "name": "_strategy",
          "type": "address"
        },
        {
          "indexed": false,
          "internalType": "uint256",
          "name": "_amount",
          "type": "uint256"
        }
      ],
      "name": "AssetAllocated",
      "type": "event"
    },
    {
      "anonymous": false,
      "inputs": [
        {
          "indexed": false,
          "internalType": "address",
          "name": "_asset",
          "type": "address"
        },
        {
          "indexed": false,
          "internalType": "address",
          "name": "_strategy",
          "type": "address"
        }
      ],
      "name": "AssetDefaultStrategyUpdated",
      "type": "event"
    },
    {
      "anonymous": false,
      "inputs": [
        {
          "indexed": false,
          "internalType": "address",
          "name": "_asset",
          "type": "address"
        }
      ],
      "name": "AssetSupported",
      "type": "event"
    },
    {
      "anonymous": false,
      "inputs": [],
      "name": "CapitalPaused",
      "type": "event"
    },
    {
      "anonymous": false,
      "inputs": [],
      "name": "CapitalUnpaused",
      "type": "event"
    },
    {
      "anonymous": false,
      "inputs": [
        {
          "indexed": true,
          "internalType": "address",
          "name": "previousGovernor",
          "type": "address"
        },
        {
          "indexed": true,
          "internalType": "address",
          "name": "newGovernor",
          "type": "address"
        }
      ],
      "name": "GovernorshipTransferred",
      "type": "event"
    },
    {
      "anonymous": false,
      "inputs": [
        {
          "indexed": false,
          "internalType": "uint256",
          "name": "maxSupplyDiff",
          "type": "uint256"
        }
      ],
      "name": "MaxSupplyDiffChanged",
      "type": "event"
    },
    {
      "anonymous": false,
      "inputs": [
        {
          "indexed": false,
          "internalType": "address",
          "name": "_addr",
          "type": "address"
        },
        {
          "indexed": false,
          "internalType": "uint256",
          "name": "_value",
          "type": "uint256"
        }
      ],
      "name": "Mint",
      "type": "event"
    },
    {
      "anonymous": false,
      "inputs": [
        {
          "indexed": false,
          "internalType": "uint256",
          "name": "_threshold",
          "type": "uint256"
        }
      ],
      "name": "NetOusdMintForStrategyThresholdChanged",
      "type": "event"
    },
    {
      "anonymous": false,
      "inputs": [
        {
          "indexed": false,
          "internalType": "address",
          "name": "_ousdMetaStrategy",
          "type": "address"
        }
      ],
      "name": "OusdMetaStrategyUpdated",
      "type": "event"
    },
    {
      "anonymous": false,
      "inputs": [
        {
          "indexed": true,
          "internalType": "address",
          "name": "previousGovernor",
          "type": "address"
        },
        {
          "indexed": true,
          "internalType": "address",
          "name": "newGovernor",
          "type": "address"
        }
      ],
      "name": "PendingGovernorshipTransfer",
      "type": "event"
    },
    {
      "anonymous": false,
      "inputs": [
        {
          "indexed": false,
          "internalType": "address",
          "name": "_priceProvider",
          "type": "address"
        }
      ],
      "name": "PriceProviderUpdated",
      "type": "event"
    },
    {
      "anonymous": false,
      "inputs": [],
      "name": "RebasePaused",
      "type": "event"
    },
    {
      "anonymous": false,
      "inputs": [
        {
          "indexed": false,
          "internalType": "uint256",
          "name": "_threshold",
          "type": "uint256"
        }
      ],
      "name": "RebaseThresholdUpdated",
      "type": "event"
    },
    {
      "anonymous": false,
      "inputs": [],
      "name": "RebaseUnpaused",
      "type": "event"
    },
    {
      "anonymous": false,
      "inputs": [
        {
          "indexed": false,
          "internalType": "address",
          "name": "_addr",
          "type": "address"
        },
        {
          "indexed": false,
          "internalType": "uint256",
          "name": "_value",
          "type": "uint256"
        }
      ],
      "name": "Redeem",
      "type": "event"
    },
    {
      "anonymous": false,
      "inputs": [
        {
          "indexed": false,
          "internalType": "uint256",
          "name": "_redeemFeeBps",
          "type": "uint256"
        }
      ],
      "name": "RedeemFeeUpdated",
      "type": "event"
    },
    {
      "anonymous": false,
      "inputs": [
        {
          "indexed": false,
          "internalType": "address",
          "name": "_address",
          "type": "address"
        }
      ],
      "name": "StrategistUpdated",
      "type": "event"
    },
    {
      "anonymous": false,
      "inputs": [
        {
          "indexed": false,
          "internalType": "address",
          "name": "_addr",
          "type": "address"
        }
      ],
      "name": "StrategyApproved",
      "type": "event"
    },
    {
      "anonymous": false,
      "inputs": [
        {
          "indexed": false,
          "internalType": "address",
          "name": "_addr",
          "type": "address"
        }
      ],
      "name": "StrategyRemoved",
      "type": "event"
    },
    {
      "anonymous": false,
      "inputs": [
        {
          "indexed": false,
          "internalType": "address",
          "name": "_address",
          "type": "address"
        }
      ],
      "name": "TrusteeAddressChanged",
      "type": "event"
    },
    {
      "anonymous": false,
      "inputs": [
        {
          "indexed": false,
          "internalType": "uint256",
          "name": "_basis",
          "type": "uint256"
        }
      ],
      "name": "TrusteeFeeBpsChanged",
      "type": "event"
    },
    {
      "anonymous": false,
      "inputs": [
        {
          "indexed": false,
          "internalType": "uint256",
          "name": "_vaultBuffer",
          "type": "uint256"
        }
      ],
      "name": "VaultBufferUpdated",
      "type": "event"
    },
    {
      "anonymous": false,
      "inputs": [
        {
          "indexed": false,
          "internalType": "address",
          "name": "_to",
          "type": "address"
        },
        {
          "indexed": false,
          "internalType": "uint256",
          "name": "_yield",
          "type": "uint256"
        },
        {
          "indexed": false,
          "internalType": "uint256",
          "name": "_fee",
          "type": "uint256"
        }
      ],
      "name": "YieldDistribution",
      "type": "event"
    },
    {
      "stateMutability": "payable",
      "type": "fallback"
    },
    {
      "inputs": [],
      "name": "allocate",
      "outputs": [],
      "stateMutability": "nonpayable",
      "type": "function"
    },
    {
      "inputs": [
        {
          "internalType": "address",
          "name": "",
          "type": "address"
        }
      ],
      "name": "assetDefaultStrategies",
      "outputs": [
        {
          "internalType": "address",
          "name": "",
          "type": "address"
        }
      ],
      "stateMutability": "view",
      "type": "function"
    },
    {
      "inputs": [],
      "name": "autoAllocateThreshold",
      "outputs": [
        {
          "internalType": "uint256",
          "name": "",
          "type": "uint256"
        }
      ],
      "stateMutability": "view",
      "type": "function"
    },
    {
      "inputs": [
        {
          "internalType": "uint256",
          "name": "_amount",
          "type": "uint256"
        }
      ],
      "name": "burnForStrategy",
      "outputs": [],
      "stateMutability": "nonpayable",
      "type": "function"
    },
    {
      "inputs": [
        {
          "internalType": "uint256",
          "name": "_amount",
          "type": "uint256"
        }
      ],
      "name": "calculateRedeemOutputs",
      "outputs": [
        {
          "internalType": "uint256[]",
          "name": "",
          "type": "uint256[]"
        }
      ],
      "stateMutability": "view",
      "type": "function"
    },
    {
      "inputs": [],
      "name": "capitalPaused",
      "outputs": [
        {
          "internalType": "bool",
          "name": "",
          "type": "bool"
        }
      ],
      "stateMutability": "view",
      "type": "function"
    },
    {
      "inputs": [
        {
          "internalType": "address",
          "name": "_asset",
          "type": "address"
        }
      ],
      "name": "checkBalance",
      "outputs": [
        {
          "internalType": "uint256",
          "name": "",
          "type": "uint256"
        }
      ],
      "stateMutability": "view",
      "type": "function"
    },
    {
      "inputs": [],
      "name": "claimGovernance",
      "outputs": [],
      "stateMutability": "nonpayable",
      "type": "function"
    },
    {
      "inputs": [],
      "name": "getAllAssets",
      "outputs": [
        {
          "internalType": "address[]",
          "name": "",
          "type": "address[]"
        }
      ],
      "stateMutability": "view",
      "type": "function"
    },
    {
      "inputs": [],
      "name": "getAllStrategies",
      "outputs": [
        {
          "internalType": "address[]",
          "name": "",
          "type": "address[]"
        }
      ],
      "stateMutability": "view",
      "type": "function"
    },
    {
      "inputs": [],
      "name": "getAssetCount",
      "outputs": [
        {
          "internalType": "uint256",
          "name": "",
          "type": "uint256"
        }
      ],
      "stateMutability": "view",
      "type": "function"
    },
    {
      "inputs": [],
      "name": "getStrategyCount",
      "outputs": [
        {
          "internalType": "uint256",
          "name": "",
          "type": "uint256"
        }
      ],
      "stateMutability": "view",
      "type": "function"
    },
    {
      "inputs": [],
      "name": "governor",
      "outputs": [
        {
          "internalType": "address",
          "name": "",
          "type": "address"
        }
      ],
      "stateMutability": "view",
      "type": "function"
    },
    {
      "inputs": [],
      "name": "isGovernor",
      "outputs": [
        {
          "internalType": "bool",
          "name": "",
          "type": "bool"
        }
      ],
      "stateMutability": "view",
      "type": "function"
    },
    {
      "inputs": [
        {
          "internalType": "address",
          "name": "_asset",
          "type": "address"
        }
      ],
      "name": "isSupportedAsset",
      "outputs": [
        {
          "internalType": "bool",
          "name": "",
          "type": "bool"
        }
      ],
      "stateMutability": "view",
      "type": "function"
    },
    {
      "inputs": [],
      "name": "maxSupplyDiff",
      "outputs": [
        {
          "internalType": "uint256",
          "name": "",
          "type": "uint256"
        }
      ],
      "stateMutability": "view",
      "type": "function"
    },
    {
      "inputs": [
        {
          "internalType": "address",
          "name": "_asset",
          "type": "address"
        },
        {
          "internalType": "uint256",
          "name": "_amount",
          "type": "uint256"
        },
        {
          "internalType": "uint256",
          "name": "_minimumOusdAmount",
          "type": "uint256"
        }
      ],
      "name": "mint",
      "outputs": [],
      "stateMutability": "nonpayable",
      "type": "function"
    },
    {
      "inputs": [
        {
          "internalType": "uint256",
          "name": "_amount",
          "type": "uint256"
        }
      ],
      "name": "mintForStrategy",
      "outputs": [],
      "stateMutability": "nonpayable",
      "type": "function"
    },
    {
      "inputs": [],
      "name": "netOusdMintForStrategyThreshold",
      "outputs": [
        {
          "internalType": "uint256",
          "name": "",
          "type": "uint256"
        }
      ],
      "stateMutability": "view",
      "type": "function"
    },
    {
      "inputs": [],
      "name": "netOusdMintedForStrategy",
      "outputs": [
        {
          "internalType": "int256",
          "name": "",
          "type": "int256"
        }
      ],
      "stateMutability": "view",
      "type": "function"
    },
    {
      "inputs": [],
      "name": "ousdMetaStrategy",
      "outputs": [
        {
          "internalType": "address",
          "name": "",
          "type": "address"
        }
      ],
      "stateMutability": "view",
      "type": "function"
    },
    {
      "inputs": [],
      "name": "priceProvider",
      "outputs": [
        {
          "internalType": "address",
          "name": "",
          "type": "address"
        }
      ],
      "stateMutability": "view",
      "type": "function"
    },
    {
      "inputs": [
        {
          "internalType": "address",
          "name": "asset",
          "type": "address"
        }
      ],
      "name": "priceUnitMint",
      "outputs": [
        {
          "internalType": "uint256",
          "name": "price",
          "type": "uint256"
        }
      ],
      "stateMutability": "view",
      "type": "function"
    },
    {
      "inputs": [
        {
          "internalType": "address",
          "name": "asset",
          "type": "address"
        }
      ],
      "name": "priceUnitRedeem",
      "outputs": [
        {
          "internalType": "uint256",
          "name": "price",
          "type": "uint256"
        }
      ],
      "stateMutability": "view",
      "type": "function"
    },
    {
      "inputs": [],
      "name": "rebase",
      "outputs": [],
      "stateMutability": "nonpayable",
      "type": "function"
    },
    {
      "inputs": [],
      "name": "rebasePaused",
      "outputs": [
        {
          "internalType": "bool",
          "name": "",
          "type": "bool"
        }
      ],
      "stateMutability": "view",
      "type": "function"
    },
    {
      "inputs": [],
      "name": "rebaseThreshold",
      "outputs": [
        {
          "internalType": "uint256",
          "name": "",
          "type": "uint256"
        }
      ],
      "stateMutability": "view",
      "type": "function"
    },
    {
      "inputs": [
        {
          "internalType": "uint256",
          "name": "_amount",
          "type": "uint256"
        },
        {
          "internalType": "uint256",
          "name": "_minimumUnitAmount",
          "type": "uint256"
        }
      ],
      "name": "redeem",
      "outputs": [],
      "stateMutability": "nonpayable",
      "type": "function"
    },
    {
      "inputs": [
        {
          "internalType": "uint256",
          "name": "_minimumUnitAmount",
          "type": "uint256"
        }
      ],
      "name": "redeemAll",
      "outputs": [],
      "stateMutability": "nonpayable",
      "type": "function"
    },
    {
      "inputs": [],
      "name": "redeemFeeBps",
      "outputs": [
        {
          "internalType": "uint256",
          "name": "",
          "type": "uint256"
        }
      ],
      "stateMutability": "view",
      "type": "function"
    },
    {
      "inputs": [
        {
          "internalType": "address",
          "name": "newImpl",
          "type": "address"
        }
      ],
      "name": "setAdminImpl",
      "outputs": [],
      "stateMutability": "nonpayable",
      "type": "function"
    },
    {
      "inputs": [],
      "name": "strategistAddr",
      "outputs": [
        {
          "internalType": "address",
          "name": "",
          "type": "address"
        }
      ],
      "stateMutability": "view",
      "type": "function"
    },
    {
      "inputs": [],
      "name": "totalValue",
      "outputs": [
        {
          "internalType": "uint256",
          "name": "value",
          "type": "uint256"
        }
      ],
      "stateMutability": "view",
      "type": "function"
    },
    {
      "inputs": [
        {
          "internalType": "address",
          "name": "_newGovernor",
          "type": "address"
        }
      ],
      "name": "transferGovernance",
      "outputs": [],
      "stateMutability": "nonpayable",
      "type": "function"
    },
    {
      "inputs": [],
      "name": "trusteeAddress",
      "outputs": [
        {
          "internalType": "address",
          "name": "",
          "type": "address"
        }
      ],
      "stateMutability": "view",
      "type": "function"
    },
    {
      "inputs": [],
      "name": "trusteeFeeBps",
      "outputs": [
        {
          "internalType": "uint256",
          "name": "",
          "type": "uint256"
        }
      ],
      "stateMutability": "view",
      "type": "function"
    },
    {
      "inputs": [],
      "name": "vaultBuffer",
      "outputs": [
        {
          "internalType": "uint256",
          "name": "",
          "type": "uint256"
        }
      ],
      "stateMutability": "view",
      "type": "function"
    }
  ],
  "transactionHash": "0x6a962dd0144dfbd2755d5bd9e6f96b9db10c852be3ff1ded6d8ebf6da6817e56",
  "args": [],
  "solcInputHash": "8564b351f4bb5da3f43a5b9c5739eec4",
  "bytecode": "0x60806040526037805461ffff60a01b1916600160a81b179055603d80546001600160a01b0319908116909155603e805482169055603f805482169055604580549091169055600060468190556047553480156200005b57600080fd5b506200007433600080516020620035cf83398151915255565b600080516020620035cf833981519152546040516001600160a01b03909116906000907fc7c0c772add429241571afb3805861fb3cfa2af374534088b76cdb4325a87e9a908290a361350380620000cc6000396000f3fe60806040526004361061021a5760003560e01c80637136a7a611610123578063abaa9916116100ab578063d38bfff41161006f578063d38bfff41461063e578063d4c3eea01461065e578063e45cc9f014610673578063e6cc543214610689578063fc0cfeee146106aa5761021a565b8063abaa9916146105ca578063af14052c146105df578063b888879e146105f4578063c3b2886414610614578063c7af3352146106295761021a565b80639be918e6116100f25780639be918e6146105105780639fa1826e14610549578063a0aead4d1461055f578063a403e4d514610574578063ab80dafb146105aa5761021a565b80637136a7a6146104a45780637a2202f3146104c45780637cbc2373146104da5780638e510b52146104fa5761021a565b806349c1d54d116101a65780635b60f9fc116101755780635b60f9fc146104025780635d36b190146104225780635f515226146104375780636217f3ea1461045757806367bd7ba3146104775761021a565b806349c1d54d1461037b57806352d38e5d1461039b57806353ca9f24146103b1578063570d8e1d146103e25761021a565b80631edfe3da116101ed5780631edfe3da146102f8578063207134b01461030e5780632acada4d1461032457806331e19cfa146103465780633b8fe28d1461035b5761021a565b806309f6442c146102605780630c340a2414610289578063156e29f6146102b657806318ce56bd146102d8575b7fa2bd3d3cf188a41358c8b401076eb59066b09dec5775650c0de4c55187d17bd9366000803760008036600084545af43d6000803e80801561025b573d6000f35b3d6000fd5b34801561026c57600080fd5b5061027660385481565b6040519081526020015b60405180910390f35b34801561029557600080fd5b5061029e6106ca565b6040516001600160a01b039091168152602001610280565b3480156102c257600080fd5b506102d66102d1366004612fa3565b6106e7565b005b3480156102e457600080fd5b5060455461029e906001600160a01b031681565b34801561030457600080fd5b5061027660395481565b34801561031a57600080fd5b5061027660435481565b34801561033057600080fd5b50610339610993565b6040516102809190613081565b34801561035257600080fd5b50603654610276565b34801561036757600080fd5b50610276610376366004612f88565b6109f5565b34801561038757600080fd5b5060425461029e906001600160a01b031681565b3480156103a757600080fd5b50610276603b5481565b3480156103bd57600080fd5b506037546103d290600160a01b900460ff1681565b6040519015158152602001610280565b3480156103ee57600080fd5b50603f5461029e906001600160a01b031681565b34801561040e57600080fd5b5061027661041d366004612f88565b610a50565b34801561042e57600080fd5b506102d6610a79565b34801561044357600080fd5b50610276610452366004612f88565b610b1f565b34801561046357600080fd5b506102d6610472366004612ff8565b610b30565b34801561048357600080fd5b50610497610492366004612ff8565b610cf0565b60405161028091906130ce565b3480156104b057600080fd5b506102d66104bf366004612ff8565b610d05565b3480156104d057600080fd5b5061027660475481565b3480156104e657600080fd5b506102d66104f536600461302a565b610df0565b34801561050657600080fd5b5061027660415481565b34801561051c57600080fd5b506103d261052b366004612f88565b6001600160a01b031660009081526033602052604090205460ff1690565b34801561055557600080fd5b50610276603a5481565b34801561056b57600080fd5b50603454610276565b34801561058057600080fd5b5061029e61058f366004612f88565b6040602081905260009182529020546001600160a01b031681565b3480156105b657600080fd5b506102d66105c5366004612ff8565b610e63565b3480156105d657600080fd5b506102d6611038565b3480156105eb57600080fd5b506102d66110a7565b34801561060057600080fd5b5060375461029e906001600160a01b031681565b34801561062057600080fd5b506103396110e5565b34801561063557600080fd5b506103d2611145565b34801561064a57600080fd5b506102d6610659366004612f88565b611176565b34801561066a57600080fd5b5061027661124a565b34801561067f57600080fd5b5061027660465481565b34801561069557600080fd5b506037546103d290600160a81b900460ff1681565b3480156106b657600080fd5b506102d66106c5366004612f88565b611254565b60006106e26000805160206134ae8339815191525490565b905090565b603754600160a81b900460ff161561071a5760405162461bcd60e51b8152600401610711906131a6565b60405180910390fd5b60008051602061348e8339815191528054600281141561074c5760405162461bcd60e51b8152600401610711906131ce565b600282556001600160a01b03851660009081526033602052604090205460ff166107b15760405162461bcd60e51b8152602060048201526016602482015275105cdcd95d081a5cc81b9bdd081cdd5c1c1bdc9d195960521b6044820152606401610711565b600084116108015760405162461bcd60e51b815260206004820152601d60248201527f416d6f756e74206d7573742062652067726561746572207468616e20300000006044820152606401610711565b600061080d8587611326565b9050600061081c876001611482565b90506000670de0b6b3a7640000610833838561335c565b61083d919061324f565b9050851561089557858110156108955760405162461bcd60e51b815260206004820152601e60248201527f4d696e7420616d6f756e74206c6f776572207468616e206d696e696d756d00006044820152606401610711565b7f0f6798a560793a54c3bcfe86a93cde1e73087d944c0ea20544137d412139688533826040516108c6929190613068565b60405180910390a1603b5481101580156108ea5750603754600160a01b900460ff16155b156108f7576108f7611774565b603c546040516340c10f1960e01b81526001600160a01b03909116906340c10f19906109299033908590600401613068565b600060405180830381600087803b15801561094357600080fd5b505af1158015610957573d6000803e3d6000fd5b508a92506109739150506001600160a01b03821633308b611aac565b603a54821061098457610984611b1d565b50505050600182555050505050565b606060348054806020026020016040519081016040528092919081815260200182805480156109eb57602002820191906000526020600020905b81546001600160a01b031681526001909101906020018083116109cd575b5050505050905090565b600080610a1e610a18610a0785611d85565b670de0b6b3a7640000906012611de4565b84611326565b9050670de0b6b3a764000081610a35856001611482565b610a3f919061335c565b610a49919061324f565b9392505050565b600080610a62610a18610a0785611d85565b9050670de0b6b3a764000081610a35856000611482565b7f44c4d30b2eaad5130ad70c3ba6972730566f3e6359ab83e800d905c61b1c51db546001600160a01b0316336001600160a01b031614610b145760405162461bcd60e51b815260206004820152603060248201527f4f6e6c79207468652070656e64696e6720476f7665726e6f722063616e20636f60448201526f6d706c6574652074686520636c61696d60801b6064820152608401610711565b610b1d33611e46565b565b6000610b2a82611f07565b92915050565b603754600160a81b900460ff1615610b5a5760405162461bcd60e51b8152600401610711906131a6565b6045546001600160a01b03163314610b845760405162461bcd60e51b815260040161071190613139565b6001600160ff1b038110610baa5760405162461bcd60e51b81526004016107119061317d565b7f222838db2794d11532d940e8dec38ae307ed0b63cd97c233322e221f998767a63382604051610bdb929190613068565b60405180910390a18060466000828254610bf5919061337b565b9091555050604754604654610c09906120d7565b10610c605760405162461bcd60e51b815260206004820152602160248201527f417474656d7074696e6720746f206275726e20746f6f206d756368204f5553446044820152601760f91b6064820152608401610711565b603c54604051632770a7eb60e21b81526001600160a01b0390911690639dc29fac90610c929033908590600401613068565b600060405180830381600087803b158015610cac57600080fd5b505af1158015610cc0573d6000803e3d6000fd5b50505050603b548110158015610ce05750603754600160a01b900460ff16155b15610ced57610ced611774565b50565b60606000610cfd8361211a565b509392505050565b603754600160a81b900460ff1615610d2f5760405162461bcd60e51b8152600401610711906131a6565b60008051602061348e83398151915280546002811415610d615760405162461bcd60e51b8152600401610711906131ce565b60028255603c546040516370a0823160e01b8152336004820152610de8916001600160a01b0316906370a082319060240160206040518083038186803b158015610daa57600080fd5b505afa158015610dbe573d6000803e3d6000fd5b505050506040513d601f19601f82011682018060405250810190610de29190613011565b8461241e565b506001905550565b603754600160a81b900460ff1615610e1a5760405162461bcd60e51b8152600401610711906131a6565b60008051602061348e83398151915280546002811415610e4c5760405162461bcd60e51b8152600401610711906131ce565b60028255610e5a848461241e565b50600190555050565b603754600160a81b900460ff1615610e8d5760405162461bcd60e51b8152600401610711906131a6565b6045546001600160a01b03163314610eb75760405162461bcd60e51b815260040161071190613139565b6001600160ff1b038110610edd5760405162461bcd60e51b81526004016107119061317d565b7f0f6798a560793a54c3bcfe86a93cde1e73087d944c0ea20544137d41213968853382604051610f0e929190613068565b60405180910390a1603b548110158015610f325750603754600160a01b900460ff16155b15610f3f57610f3f611774565b8060466000828254610f5191906131f6565b9091555050604754604654610f65906120d7565b10610fd15760405162461bcd60e51b815260206004820152603660248201527f4d696e746564206f75736420737572706173736564206e65744f7573644d696e6044820152753a2337b929ba3930ba32b3bcaa343932b9b437b6321760511b6064820152608401610711565b603c546040516340c10f1960e01b81526001600160a01b03909116906340c10f19906110039033908590600401613068565b600060405180830381600087803b15801561101d57600080fd5b505af1158015611031573d6000803e3d6000fd5b5050505050565b603754600160a81b900460ff16156110625760405162461bcd60e51b8152600401610711906131a6565b60008051602061348e833981519152805460028114156110945760405162461bcd60e51b8152600401610711906131ce565b600282556110a0611b1d565b5060019055565b60008051602061348e833981519152805460028114156110d95760405162461bcd60e51b8152600401610711906131ce565b600282556110a0611774565b606060368054806020026020016040519081016040528092919081815260200182805480156109eb576020028201919060005260206000209081546001600160a01b031681526001909101906020018083116109cd575050505050905090565b600061115d6000805160206134ae8339815191525490565b6001600160a01b0316336001600160a01b031614905090565b61117e611145565b6111ca5760405162461bcd60e51b815260206004820152601a60248201527f43616c6c6572206973206e6f742074686520476f7665726e6f720000000000006044820152606401610711565b6111f2817f44c4d30b2eaad5130ad70c3ba6972730566f3e6359ab83e800d905c61b1c51db55565b806001600160a01b03166112126000805160206134ae8339815191525490565b6001600160a01b03167fa39cc5eb22d0f34d8beaefee8a3f17cc229c1a1d1ef87a5ad47313487b1c4f0d60405160405180910390a350565b60006106e261297a565b61125c611145565b6112a85760405162461bcd60e51b815260206004820152601a60248201527f43616c6c6572206973206e6f742074686520476f7665726e6f720000000000006044820152606401610711565b803b6113025760405162461bcd60e51b8152602060048201526024808201527f6e657720696d706c656d656e746174696f6e206973206e6f74206120636f6e746044820152631c9858dd60e21b6064820152608401610711565b7fa2bd3d3cf188a41358c8b401076eb59066b09dec5775650c0de4c55187d17bd955565b6001600160a01b038116600090815260336020526040812054610100900460ff168181600181111561135a5761135a61344b565b141561137e57611376601261136e85611d85565b869190611de4565b915050610b2a565b60018160018111156113925761139261344b565b1415611433576000836001600160a01b031663e6aa216c6040518163ffffffff1660e01b815260040160206040518083038186803b1580156113d357600080fd5b505afa1580156113e7573d6000803e3d6000fd5b505050506040513d601f19601f8201168201806040525081019061140b9190613011565b9050670de0b6b3a7640000611420828761335c565b61142a919061324f565b92505050610b2a565b60405162461bcd60e51b815260206004820152601b60248201527f556e737570706f7274656420636f6e76657273696f6e207479706500000000006044820152606401610711565b5092915050565b6001600160a01b038281166000818152603360205260408082205460375491516315d5220f60e31b81526004810194909452919361010090920460ff169291169063aea910789060240160206040518083038186803b1580156114e457600080fd5b505afa1580156114f8573d6000803e3d6000fd5b505050506040513d601f19601f8201168201806040525081019061151c9190613011565b915060018160018111156115325761153261344b565b14156115d2576000846001600160a01b031663e6aa216c6040518163ffffffff1660e01b815260040160206040518083038186803b15801561157357600080fd5b505afa158015611587573d6000803e3d6000fd5b505050506040513d601f19601f820116820180604052508101906115ab9190613011565b9050806115c084670de0b6b3a764000061335c565b6115ca919061324f565b925050611633565b60008160018111156115e6576115e661344b565b146116335760405162461bcd60e51b815260206004820152601b60248201527f556e737570706f7274656420636f6e76657273696f6e207479706500000000006044820152606401610711565b67120a871cc002000082111561168b5760405162461bcd60e51b815260206004820152601860248201527f5661756c743a2050726963652065786365656473206d617800000000000000006044820152606401610711565b6709b6e64a8ec600008210156116dc5760405162461bcd60e51b81526020600482015260166024820152752b30bab63a1d10283934b1b2903ab73232b91036b4b760511b6044820152606401610711565b821561175357670de0b6b3a76400008211156116fe57670de0b6b3a764000091505b670dd99bb65dd7000082101561174e5760405162461bcd60e51b815260206004820152601560248201527441737365742070726963652062656c6f772070656760581b6044820152606401610711565b61147b565b670de0b6b3a764000082101561147b5750670de0b6b3a76400009392505050565b603754600160a01b900460ff16156117c05760405162461bcd60e51b815260206004820152600f60248201526e149958985cda5b99c81c185d5cd959608a1b6044820152606401610711565b603c54604080516318160ddd60e01b815290516000926001600160a01b0316916318160ddd916004808301926020929190829003018186803b15801561180557600080fd5b505afa158015611819573d6000803e3d6000fd5b505050506040513d601f19601f8201168201806040525081019061183d9190613011565b9050806118475750565b600061185161297a565b6042549091506001600160a01b0316801580159061186e57508282115b156119b857600061187f8385612995565b905060006118a461271061189e604354856129a190919063ffffffff16565b906129ad565b90508082116119005760405162461bcd60e51b815260206004820152602260248201527f466565206d757374206e6f742062652067726561746572207468616e207969656044820152611b1960f21b6064820152608401610711565b801561196b57603c546040516340c10f1960e01b81526001600160a01b03909116906340c10f19906119389086908590600401613068565b600060405180830381600087803b15801561195257600080fd5b505af1158015611966573d6000803e3d6000fd5b505050505b604080516001600160a01b0385168152602081018490529081018290527f09516ecf4a8a86e59780a9befc6dee948bc9e60a36e3be68d31ea817ee8d2c809060600160405180910390a150505b603c60009054906101000a90046001600160a01b03166001600160a01b03166318160ddd6040518163ffffffff1660e01b815260040160206040518083038186803b158015611a0657600080fd5b505afa158015611a1a573d6000803e3d6000fd5b505050506040513d601f19601f82011682018060405250810190611a3e9190613011565b925082821115611aa757603c546040516339a7919f60e01b8152600481018490526001600160a01b03909116906339a7919f90602401600060405180830381600087803b158015611a8e57600080fd5b505af1158015611aa2573d6000803e3d6000fd5b505050505b505050565b6040516001600160a01b0380851660248301528316604482015260648101829052611b179085906323b872dd60e01b906084015b60408051601f198184030181529190526020810180516001600160e01b03166001600160e01b0319909316929092179091526129b9565b50505050565b6000611b27612a8b565b905080611b315750565b6000611b3b612b75565b90506000611b498383612bd1565b9050600082611b6f57603954611b6890670de0b6b3a764000090612995565b9050611bac565b611b888461189e846039546129a190919063ffffffff16565b905080670de0b6b3a76400001115611b1757611b68670de0b6b3a764000082612995565b80611bb75750505050565b60005b60345481101561103157600060348281548110611bd957611bd9613461565b60009182526020822001546040516370a0823160e01b81523060048201526001600160a01b03909116925082906370a082319060240160206040518083038186803b158015611c2757600080fd5b505afa158015611c3b573d6000803e3d6000fd5b505050506040513d601f19601f82011682018060405250810190611c5f9190613011565b905080611c6d575050611d73565b6000611c798286612bdd565b6001600160a01b03808516600090815260406020819052902054919250168015801590611ca65750600082115b15611d6e5780611cc06001600160a01b0386168285612bf2565b6040516311f9fbc960e21b81526001600160a01b038216906347e7ef2490611cee9088908790600401613068565b600060405180830381600087803b158015611d0857600080fd5b505af1158015611d1c573d6000803e3d6000fd5b5050604080516001600160a01b03808a168252861660208201529081018690527f41b99659f6ba0803f444aff29e5bf6e26dd86a3219aff92119d69710a956ba8d9250606001905060405180910390a1505b505050505b80611d7d816133fd565b915050611bba565b6001600160a01b03811660009081526033602052604081206001015480610b2a5760405162461bcd60e51b8152602060048201526013602482015272111958da5b585b1cc81b9bdd0818d858da1959606a1b6044820152606401610711565b600081831115611e1457611e0d611dfb83856133ba565b611e0690600a6132b4565b85906129a1565b9350611e3e565b81831015611e3e57611e3b611e2984846133ba565b611e3490600a6132b4565b85906129ad565b93505b509192915050565b6001600160a01b038116611e9c5760405162461bcd60e51b815260206004820152601a60248201527f4e657720476f7665726e6f7220697320616464726573732830290000000000006044820152606401610711565b806001600160a01b0316611ebc6000805160206134ae8339815191525490565b6001600160a01b03167fc7c0c772add429241571afb3805861fb3cfa2af374534088b76cdb4325a87e9a60405160405180910390a3610ced816000805160206134ae83398151915255565b6040516370a0823160e01b815230600482015260009082906001600160a01b038216906370a082319060240160206040518083038186803b158015611f4b57600080fd5b505afa158015611f5f573d6000803e3d6000fd5b505050506040513d601f19601f82011682018060405250810190611f839190613011565b915060005b6036548110156120d057600060368281548110611fa757611fa7613461565b60009182526020909120015460405163551c457b60e11b81526001600160a01b0387811660048301529091169150819063aa388af69060240160206040518083038186803b158015611ff857600080fd5b505afa15801561200c573d6000803e3d6000fd5b505050506040513d601f19601f820116820180604052508101906120309190612fd6565b156120bd57604051632fa8a91360e11b81526001600160a01b0386811660048301526120ba9190831690635f5152269060240160206040518083038186803b15801561207b57600080fd5b505afa15801561208f573d6000803e3d6000fd5b505050506040513d601f19601f820116820180604052508101906120b39190613011565b8590612bd1565b93505b50806120c8816133fd565b915050611f88565b5050919050565b60006001600160ff1b0382126120ff5760405162461bcd60e51b81526004016107119061317d565b60008212156121165761211182613418565b610b2a565b5090565b603454606090600090818167ffffffffffffffff81111561213d5761213d613477565b604051908082528060200260200182016040528015612166578160200160208202803683370190505b50905060008267ffffffffffffffff81111561218457612184613477565b6040519080825280602002602001820160405280156121ad578160200160208202803683370190505b5090508267ffffffffffffffff8111156121c9576121c9613477565b6040519080825280602002602001820160405280156121f2578160200160208202803683370190505b506038549095501561222b57600061221b61271061189e6038548a6129a190919063ffffffff16565b90506122278782612995565b9650505b60005b8381101561231a5760006122686034838154811061224e5761224e613461565b6000918252602090912001546001600160a01b0316611f07565b90508083838151811061227d5761227d613461565b6020026020010181815250506122ba81603484815481106122a0576122a0613461565b6000918252602090912001546001600160a01b0316611326565b8483815181106122cc576122cc613461565b6020026020010181815250506123048483815181106122ed576122ed613461565b602002602001015187612bd190919063ffffffff16565b9550508080612312906133fd565b91505061222e565b506000805b848110156123b05760006123596034838154811061233f5761233f613461565b60009182526020822001546001600160a01b031690611482565b9050600061238d8861189e8489878151811061237757612377613461565b60200260200101516129a190919063ffffffff16565b90506123998482612bd1565b9350505080806123a8906133fd565b91505061231f565b5060006123bd8883612c11565b905060005b85811015612413576123e48761189e8487858151811061237757612377613461565b8882815181106123f6576123f6613461565b60209081029190910101528061240b816133fd565b9150506123c2565b505050505050915091565b60008061242a8461211a565b915091506000603c60009054906101000a90046001600160a01b03166001600160a01b03166318160ddd6040518163ffffffff1660e01b815260040160206040518083038186803b15801561247e57600080fd5b505afa158015612492573d6000803e3d6000fd5b505050506040513d601f19601f820116820180604052508101906124b69190613011565b6041549091501561255a5760006124cd8284612c11565b9050604154670de0b6b3a764000082116124f8576124f3670de0b6b3a764000083612995565b61250a565b61250a82670de0b6b3a7640000612995565b11156125585760405162461bcd60e51b815260206004820152601e60248201527f4261636b696e6720737570706c79206c6971756964697479206572726f7200006044820152606401610711565b505b7f222838db2794d11532d940e8dec38ae307ed0b63cd97c233322e221f998767a6338660405161258b929190613068565b60405180910390a160005b603454811015612838578381815181106125b2576125b2613461565b6020026020010151600014156125c757612826565b6000603482815481106125dc576125dc613461565b60009182526020909120015485516001600160a01b03909116915085908390811061260957612609613461565b60209081029190910101516040516370a0823160e01b81523060048201526001600160a01b038316906370a082319060240160206040518083038186803b15801561265357600080fd5b505afa158015612667573d6000803e3d6000fd5b505050506040513d601f19601f8201168201806040525081019061268b9190613011565b106126cc576126c7338684815181106126a6576126a6613461565b6020026020010151836001600160a01b0316612bf29092919063ffffffff16565b612824565b600060406000603485815481106126e5576126e5613461565b60009182526020808320909101546001600160a01b03908116845290830193909352604090910190205416905080156127e8576000819050806001600160a01b031663d9caed12336034878154811061274057612740613461565b9060005260206000200160009054906101000a90046001600160a01b03168a888151811061277057612770613461565b60209081029190910101516040516001600160e01b031960e086901b1681526001600160a01b0393841660048201529290911660248301526044820152606401600060405180830381600087803b1580156127ca57600080fd5b505af11580156127de573d6000803e3d6000fd5b5050505050612822565b60405162461bcd60e51b815260206004820152600f60248201526e2634b8bab4b234ba3c9032b93937b960891b6044820152606401610711565b505b505b80612830816133fd565b915050612596565b5083156128ed576000805b845181101561289a5761287c85828151811061286157612861613461565b6020026020010151603483815481106122a0576122a0613461565b6128869083613237565b915080612892816133fd565b915050612843565b50848110156128eb5760405162461bcd60e51b815260206004820181905260248201527f52656465656d20616d6f756e74206c6f776572207468616e206d696e696d756d6044820152606401610711565b505b603c54604051632770a7eb60e21b81526001600160a01b0390911690639dc29fac9061291f9033908990600401613068565b600060405180830381600087803b15801561293957600080fd5b505af115801561294d573d6000803e3d6000fd5b50505050603b54851015801561296d5750603754600160a01b900460ff16155b1561103157611031611774565b60006106e2612987612b75565b61298f612a8b565b90612bd1565b6000610a4982846133ba565b6000610a49828461335c565b6000610a49828461324f565b6000612a0e826040518060400160405280602081526020017f5361666545524332303a206c6f772d6c6576656c2063616c6c206661696c6564815250856001600160a01b0316612c3a9092919063ffffffff16565b805190915015611aa75780806020019051810190612a2c9190612fd6565b611aa75760405162461bcd60e51b815260206004820152602a60248201527f5361666545524332303a204552433230206f7065726174696f6e20646964206e6044820152691bdd081cdd58d8d9595960b21b6064820152608401610711565b6000805b60345481101561211657600060348281548110612aae57612aae613461565b60009182526020822001546040516370a0823160e01b81523060048201526001600160a01b03909116925082906370a082319060240160206040518083038186803b158015612afc57600080fd5b505afa158015612b10573d6000803e3d6000fd5b505050506040513d601f19601f82011682018060405250810190612b349190613011565b90508015612b6057612b5381603485815481106122a0576122a0613461565b612b5d9085613237565b93505b50508080612b6d906133fd565b915050612a8f565b6000805b60365481101561211657612bbd612bb660368381548110612b9c57612b9c613461565b6000918252602090912001546001600160a01b0316612c49565b8390612bd1565b915080612bc9816133fd565b915050612b79565b6000610a498284613237565b6000610a498383670de0b6b3a7640000612de9565b611aa78363a9059cbb60e01b8484604051602401611ae0929190613068565b600080612c2684670de0b6b3a76400006129a1565b9050612c3281846129ad565b949350505050565b6060612c328484600085612e0b565b600081815b6034548110156120d057816001600160a01b031663aa388af660348381548110612c7a57612c7a613461565b60009182526020909120015460405160e083901b6001600160e01b03191681526001600160a01b03909116600482015260240160206040518083038186803b158015612cc557600080fd5b505afa158015612cd9573d6000803e3d6000fd5b505050506040513d601f19601f82011682018060405250810190612cfd9190612fd6565b15612dd7576000826001600160a01b0316635f51522660348481548110612d2657612d26613461565b60009182526020909120015460405160e083901b6001600160e01b03191681526001600160a01b03909116600482015260240160206040518083038186803b158015612d7157600080fd5b505afa158015612d85573d6000803e3d6000fd5b505050506040513d601f19601f82011682018060405250810190612da99190613011565b90508015612dd557612dc881603484815481106122a0576122a0613461565b612dd29085613237565b93505b505b80612de1816133fd565b915050612c4e565b600080612df685856129a1565b9050612e0281846129ad565b95945050505050565b606082471015612e6c5760405162461bcd60e51b815260206004820152602660248201527f416464726573733a20696e73756666696369656e742062616c616e636520666f6044820152651c8818d85b1b60d21b6064820152608401610711565b843b612eba5760405162461bcd60e51b815260206004820152601d60248201527f416464726573733a2063616c6c20746f206e6f6e2d636f6e74726163740000006044820152606401610711565b600080866001600160a01b03168587604051612ed6919061304c565b60006040518083038185875af1925050503d8060008114612f13576040519150601f19603f3d011682016040523d82523d6000602084013e612f18565b606091505b5091509150612f28828286612f33565b979650505050505050565b60608315612f42575081610a49565b825115612f525782518084602001fd5b8160405162461bcd60e51b81526004016107119190613106565b80356001600160a01b0381168114612f8357600080fd5b919050565b600060208284031215612f9a57600080fd5b610a4982612f6c565b600080600060608486031215612fb857600080fd5b612fc184612f6c565b95602085013595506040909401359392505050565b600060208284031215612fe857600080fd5b81518015158114610a4957600080fd5b60006020828403121561300a57600080fd5b5035919050565b60006020828403121561302357600080fd5b5051919050565b6000806040838503121561303d57600080fd5b50508035926020909101359150565b6000825161305e8184602087016133d1565b9190910192915050565b6001600160a01b03929092168252602082015260400190565b6020808252825182820181905260009190848201906040850190845b818110156130c25783516001600160a01b03168352928401929184019160010161309d565b50909695505050505050565b6020808252825182820181905260009190848201906040850190845b818110156130c2578351835292840192918401916001016130ea565b60208152600082518060208401526131258160408501602087016133d1565b601f01601f19169190910160400192915050565b60208082526024908201527f43616c6c6572206973206e6f7420746865204f555344206d65746120737472616040820152637465677960e01b606082015260800190565b6020808252600f908201526e082dadeeadce840e8dede40d0d2ced608b1b604082015260600190565b6020808252600e908201526d10d85c1a5d185b081c185d5cd95960921b604082015260600190565b6020808252600e908201526d1499595b9d1c985b9d0818d85b1b60921b604082015260600190565b600080821280156001600160ff1b038490038513161561321857613218613435565b600160ff1b839003841281161561323157613231613435565b50500190565b6000821982111561324a5761324a613435565b500190565b60008261326c57634e487b7160e01b600052601260045260246000fd5b500490565b600181815b808511156132ac57816000190482111561329257613292613435565b8085161561329f57918102915b93841c9390800290613276565b509250929050565b6000610a4983836000826132ca57506001610b2a565b816132d757506000610b2a565b81600181146132ed57600281146132f757613313565b6001915050610b2a565b60ff84111561330857613308613435565b50506001821b610b2a565b5060208310610133831016604e8410600b8410161715613336575081810a610b2a565b6133408383613271565b806000190482111561335457613354613435565b029392505050565b600081600019048311821515161561337657613376613435565b500290565b60008083128015600160ff1b85018412161561339957613399613435565b6001600160ff1b03840183138116156133b4576133b4613435565b50500390565b6000828210156133cc576133cc613435565b500390565b60005b838110156133ec5781810151838201526020016133d4565b83811115611b175750506000910152565b600060001982141561341157613411613435565b5060010190565b6000600160ff1b82141561342e5761342e613435565b5060000390565b634e487b7160e01b600052601160045260246000fd5b634e487b7160e01b600052602160045260246000fd5b634e487b7160e01b600052603260045260246000fd5b634e487b7160e01b600052604160045260246000fdfe53bf423e48ed90e97d02ab0ebab13b2a235a6bfbe9c321847d5c175333ac45357bea13895fa79d2831e0a9e28edede30099005a50d652d8957cf8a607ee6ca4aa2646970667358221220305c01b83b94864dc389a21232ced1da530925ad23c5cc33a2bff31a86210d2d64736f6c634300080700337bea13895fa79d2831e0a9e28edede30099005a50d652d8957cf8a607ee6ca4a",
  "devdoc": {
    "author": "Origin Protocol Inc",
    "kind": "dev",
    "methods": {
      "allocate()": {
        "details": "Allocate unallocated funds on Vault to strategies.*"
      },
      "burnForStrategy(uint256)": {
        "details": "Burn OUSD for OUSD Meta Strategy",
        "params": {
          "_amount": "Amount of OUSD to burn Notice: can't use `nonReentrant` modifier since the `redeem` function could require withdrawal on `ConvexOUSDMetaStrategy` and that one can call `burnForStrategy` while the execution of the `redeem` has not yet completed -> causing a `nonReentrant` collision. Also important to understand is that this is a limitation imposed by the test suite. Production / mainnet contracts should never be configured in a way where mint/redeem functions that are moving funds between the Vault and end user wallets can influence strategies utilizing this function."
        }
      },
      "checkBalance(address)": {
        "params": {
          "_asset": "Address of asset"
        },
        "returns": {
          "_0": "uint256 Balance of asset in decimals of asset"
        }
      },
      "claimGovernance()": {
        "details": "Claim Governance of the contract to a new account (`newGovernor`). Can only be called by the new Governor."
      },
      "getAllAssets()": {
        "details": "Return all asset addresses in order"
      },
      "getAllStrategies()": {
        "details": "Return the array of all strategies"
      },
      "getAssetCount()": {
        "details": "Return the number of assets supported by the Vault."
      },
      "getStrategyCount()": {
        "details": "Return the number of strategies active on the Vault."
      },
      "governor()": {
        "details": "Returns the address of the current Governor."
      },
      "isGovernor()": {
        "details": "Returns true if the caller is the current Governor."
      },
      "mint(address,uint256,uint256)": {
        "details": "Deposit a supported asset and mint OUSD.",
        "params": {
          "_amount": "Amount of the asset being deposited",
          "_asset": "Address of the asset being deposited",
          "_minimumOusdAmount": "Minimum OUSD to mint"
        }
      },
      "mintForStrategy(uint256)": {
        "details": "Mint OUSD for OUSD Meta Strategy",
        "params": {
          "_amount": "Amount of the asset being deposited Notice: can't use `nonReentrant` modifier since the `mint` function can call `allocate`, and that can trigger `ConvexOUSDMetaStrategy` to call this function while the execution of the `mint` has not yet completed -> causing a `nonReentrant` collision. Also important to understand is that this is a limitation imposed by the test suite. Production / mainnet contracts should never be configured in a way where mint/redeem functions that are moving funds between the Vault and end user wallets can influence strategies utilizing this function."
        }
      },
      "priceUnitMint(address)": {
        "details": "Returns the total price in 18 digit units for a given asset.      Never goes above 1, since that is how we price mints.",
        "params": {
          "asset": "address of the asset"
        },
        "returns": {
          "price": "uint256: unit (USD / ETH) price for 1 unit of the asset, in 18 decimal fixed"
        }
      },
      "priceUnitRedeem(address)": {
        "details": "Returns the total price in 18 digit unit for a given asset.      Never goes below 1, since that is how we price redeems",
        "params": {
          "asset": "Address of the asset"
        },
        "returns": {
          "price": "uint256: unit (USD / ETH) price for 1 unit of the asset, in 18 decimal fixed"
        }
      },
      "rebase()": {
        "details": "Calculate the total value of assets held by the Vault and all      strategies and update the supply of OUSD."
      },
      "redeem(uint256,uint256)": {
        "details": "Withdraw a supported asset and burn OUSD.",
        "params": {
          "_amount": "Amount of OUSD to burn",
          "_minimumUnitAmount": "Minimum stablecoin units to receive in return"
        }
      },
      "redeemAll(uint256)": {
        "params": {
          "_minimumUnitAmount": "Minimum stablecoin units to receive in return"
        }
      },
      "setAdminImpl(address)": {
        "details": "set the implementation for the admin, this needs to be in a base class else we cannot set it",
        "params": {
          "newImpl": "address of the implementation"
        }
      },
      "totalValue()": {
        "details": "Determine the total value of assets held by the vault and its         strategies.",
        "returns": {
          "value": "Total value in USD (1e18)"
        }
      },
      "transferGovernance(address)": {
        "details": "Transfers Governance of the contract to a new account (`newGovernor`). Can only be called by the current Governor. Must be claimed for this to complete",
        "params": {
          "_newGovernor": "Address of the new Governor"
        }
      }
    },
    "title": "OETH VaultCore Contract",
    "version": 1
  },
  "userdoc": {
    "kind": "user",
    "methods": {
      "allocate()": {
        "notice": "Allocate unallocated funds on Vault to strategies."
      },
      "calculateRedeemOutputs(uint256)": {
        "notice": "Calculate the outputs for a redeem function, i.e. the mix of coins that will be returned"
      },
      "checkBalance(address)": {
        "notice": "Get the balance of an asset held in Vault and all strategies."
      },
      "redeemAll(uint256)": {
        "notice": "Withdraw a supported asset and burn all OUSD."
      }
    },
    "version": 1
  },
  "storageLayout": {
    "storage": [
      {
        "astId": 24590,
        "contract": "contracts/vault/OETHVaultCore.sol:OETHVaultCore",
        "label": "initialized",
        "offset": 0,
        "slot": "0",
        "type": "t_bool"
      },
      {
        "astId": 24593,
        "contract": "contracts/vault/OETHVaultCore.sol:OETHVaultCore",
        "label": "initializing",
        "offset": 1,
        "slot": "0",
        "type": "t_bool"
      },
      {
        "astId": 24633,
        "contract": "contracts/vault/OETHVaultCore.sol:OETHVaultCore",
        "label": "______gap",
        "offset": 0,
        "slot": "1",
        "type": "t_array(t_uint256)50_storage"
      },
      {
        "astId": 28671,
        "contract": "contracts/vault/OETHVaultCore.sol:OETHVaultCore",
        "label": "assets",
        "offset": 0,
        "slot": "51",
        "type": "t_mapping(t_address,t_struct(Asset)28666_storage)"
      },
      {
        "astId": 28674,
        "contract": "contracts/vault/OETHVaultCore.sol:OETHVaultCore",
        "label": "allAssets",
        "offset": 0,
        "slot": "52",
        "type": "t_array(t_address)dyn_storage"
      },
      {
        "astId": 28684,
        "contract": "contracts/vault/OETHVaultCore.sol:OETHVaultCore",
        "label": "strategies",
        "offset": 0,
        "slot": "53",
        "type": "t_mapping(t_address,t_struct(Strategy)28679_storage)"
      },
      {
        "astId": 28687,
        "contract": "contracts/vault/OETHVaultCore.sol:OETHVaultCore",
        "label": "allStrategies",
        "offset": 0,
        "slot": "54",
        "type": "t_array(t_address)dyn_storage"
      },
      {
        "astId": 28689,
        "contract": "contracts/vault/OETHVaultCore.sol:OETHVaultCore",
        "label": "priceProvider",
        "offset": 0,
        "slot": "55",
        "type": "t_address"
      },
      {
        "astId": 28692,
        "contract": "contracts/vault/OETHVaultCore.sol:OETHVaultCore",
        "label": "rebasePaused",
        "offset": 20,
        "slot": "55",
        "type": "t_bool"
      },
      {
        "astId": 28695,
        "contract": "contracts/vault/OETHVaultCore.sol:OETHVaultCore",
        "label": "capitalPaused",
        "offset": 21,
        "slot": "55",
        "type": "t_bool"
      },
      {
        "astId": 28697,
        "contract": "contracts/vault/OETHVaultCore.sol:OETHVaultCore",
        "label": "redeemFeeBps",
        "offset": 0,
        "slot": "56",
        "type": "t_uint256"
      },
      {
        "astId": 28699,
        "contract": "contracts/vault/OETHVaultCore.sol:OETHVaultCore",
        "label": "vaultBuffer",
        "offset": 0,
        "slot": "57",
        "type": "t_uint256"
      },
      {
        "astId": 28701,
        "contract": "contracts/vault/OETHVaultCore.sol:OETHVaultCore",
        "label": "autoAllocateThreshold",
        "offset": 0,
        "slot": "58",
        "type": "t_uint256"
      },
      {
        "astId": 28703,
        "contract": "contracts/vault/OETHVaultCore.sol:OETHVaultCore",
        "label": "rebaseThreshold",
        "offset": 0,
        "slot": "59",
        "type": "t_uint256"
      },
      {
        "astId": 28706,
        "contract": "contracts/vault/OETHVaultCore.sol:OETHVaultCore",
        "label": "oUSD",
        "offset": 0,
        "slot": "60",
        "type": "t_contract(OUSD)24300"
      },
      {
        "astId": 28715,
        "contract": "contracts/vault/OETHVaultCore.sol:OETHVaultCore",
        "label": "_deprecated_rebaseHooksAddr",
        "offset": 0,
        "slot": "61",
        "type": "t_address"
      },
      {
        "astId": 28721,
        "contract": "contracts/vault/OETHVaultCore.sol:OETHVaultCore",
        "label": "_deprecated_uniswapAddr",
        "offset": 0,
        "slot": "62",
        "type": "t_address"
      },
      {
        "astId": 28727,
        "contract": "contracts/vault/OETHVaultCore.sol:OETHVaultCore",
        "label": "strategistAddr",
        "offset": 0,
        "slot": "63",
        "type": "t_address"
      },
      {
        "astId": 28731,
        "contract": "contracts/vault/OETHVaultCore.sol:OETHVaultCore",
        "label": "assetDefaultStrategies",
        "offset": 0,
        "slot": "64",
        "type": "t_mapping(t_address,t_address)"
      },
      {
        "astId": 28733,
        "contract": "contracts/vault/OETHVaultCore.sol:OETHVaultCore",
        "label": "maxSupplyDiff",
        "offset": 0,
        "slot": "65",
        "type": "t_uint256"
      },
      {
        "astId": 28735,
        "contract": "contracts/vault/OETHVaultCore.sol:OETHVaultCore",
        "label": "trusteeAddress",
        "offset": 0,
        "slot": "66",
        "type": "t_address"
      },
      {
        "astId": 28737,
        "contract": "contracts/vault/OETHVaultCore.sol:OETHVaultCore",
        "label": "trusteeFeeBps",
        "offset": 0,
        "slot": "67",
        "type": "t_uint256"
      },
      {
        "astId": 28740,
        "contract": "contracts/vault/OETHVaultCore.sol:OETHVaultCore",
        "label": "_deprecated_swapTokens",
        "offset": 0,
        "slot": "68",
        "type": "t_array(t_address)dyn_storage"
      },
      {
        "astId": 28749,
        "contract": "contracts/vault/OETHVaultCore.sol:OETHVaultCore",
        "label": "ousdMetaStrategy",
        "offset": 0,
        "slot": "69",
        "type": "t_address"
      },
      {
        "astId": 28752,
        "contract": "contracts/vault/OETHVaultCore.sol:OETHVaultCore",
        "label": "netOusdMintedForStrategy",
        "offset": 0,
        "slot": "70",
        "type": "t_int256"
      },
      {
        "astId": 28755,
        "contract": "contracts/vault/OETHVaultCore.sol:OETHVaultCore",
        "label": "netOusdMintForStrategyThreshold",
        "offset": 0,
        "slot": "71",
        "type": "t_uint256"
      }
    ],
    "types": {
      "t_address": {
        "encoding": "inplace",
        "label": "address",
        "numberOfBytes": "20"
      },
      "t_array(t_address)dyn_storage": {
        "base": "t_address",
        "encoding": "dynamic_array",
        "label": "address[]",
        "numberOfBytes": "32"
      },
      "t_array(t_uint256)50_storage": {
        "base": "t_uint256",
        "encoding": "inplace",
        "label": "uint256[50]",
        "numberOfBytes": "1600"
      },
      "t_bool": {
        "encoding": "inplace",
        "label": "bool",
        "numberOfBytes": "1"
      },
      "t_contract(OUSD)24300": {
        "encoding": "inplace",
        "label": "contract OUSD",
        "numberOfBytes": "20"
      },
      "t_enum(UnitConversion)28658": {
        "encoding": "inplace",
        "label": "enum VaultStorage.UnitConversion",
        "numberOfBytes": "1"
      },
      "t_int256": {
        "encoding": "inplace",
        "label": "int256",
        "numberOfBytes": "32"
      },
      "t_mapping(t_address,t_address)": {
        "encoding": "mapping",
        "key": "t_address",
        "label": "mapping(address => address)",
        "numberOfBytes": "32",
        "value": "t_address"
      },
      "t_mapping(t_address,t_struct(Asset)28666_storage)": {
        "encoding": "mapping",
        "key": "t_address",
        "label": "mapping(address => struct VaultStorage.Asset)",
        "numberOfBytes": "32",
        "value": "t_struct(Asset)28666_storage"
      },
      "t_mapping(t_address,t_struct(Strategy)28679_storage)": {
        "encoding": "mapping",
        "key": "t_address",
        "label": "mapping(address => struct VaultStorage.Strategy)",
        "numberOfBytes": "32",
        "value": "t_struct(Strategy)28679_storage"
      },
      "t_struct(Asset)28666_storage": {
        "encoding": "inplace",
        "label": "struct VaultStorage.Asset",
        "members": [
          {
            "astId": 28660,
            "contract": "contracts/vault/OETHVaultCore.sol:OETHVaultCore",
            "label": "isSupported",
            "offset": 0,
            "slot": "0",
            "type": "t_bool"
          },
          {
            "astId": 28663,
            "contract": "contracts/vault/OETHVaultCore.sol:OETHVaultCore",
            "label": "unitConversion",
            "offset": 1,
            "slot": "0",
            "type": "t_enum(UnitConversion)28658"
          },
          {
            "astId": 28665,
            "contract": "contracts/vault/OETHVaultCore.sol:OETHVaultCore",
            "label": "decimals",
            "offset": 0,
            "slot": "1",
            "type": "t_uint256"
          }
        ],
        "numberOfBytes": "64"
      },
      "t_struct(Strategy)28679_storage": {
        "encoding": "inplace",
        "label": "struct VaultStorage.Strategy",
        "members": [
          {
            "astId": 28676,
            "contract": "contracts/vault/OETHVaultCore.sol:OETHVaultCore",
            "label": "isSupported",
            "offset": 0,
            "slot": "0",
            "type": "t_bool"
          },
          {
            "astId": 28678,
            "contract": "contracts/vault/OETHVaultCore.sol:OETHVaultCore",
            "label": "_deprecated",
            "offset": 0,
            "slot": "1",
            "type": "t_uint256"
          }
        ],
        "numberOfBytes": "64"
      },
      "t_uint256": {
        "encoding": "inplace",
        "label": "uint256",
        "numberOfBytes": "32"
      }
    }
  }
}