{
  "address": "0x22431cc134bD24171D71ba1470eA037b36a950D7",
  "abi": [
    {
      "inputs": [
        {
          "internalType": "address",
          "name": "_weth",
          "type": "address"
        }
      ],
      "stateMutability": "nonpayable",
      "type": "constructor"
    },
    {
      "anonymous": false,
      "inputs": [
        {
          "indexed": false,
          "internalType": "uint256",
          "name": "_threshold",
          "type": "uint256"
        }
      ],
      "name": "AllocateThresholdUpdated",
      "type": "event"
    },
    {
      "anonymous": false,
      "inputs": [
        {
          "indexed": false,
          "internalType": "address",
          "name": "_asset",
          "type": "address"
        },
        {
          "indexed": false,
          "internalType": "address",
          "name": "_strategy",
          "type": "address"
        },
        {
          "indexed": false,
          "internalType": "uint256",
          "name": "_amount",
          "type": "uint256"
        }
      ],
      "name": "AssetAllocated",
      "type": "event"
    },
    {
      "anonymous": false,
      "inputs": [
        {
          "indexed": false,
          "internalType": "address",
          "name": "_asset",
          "type": "address"
        },
        {
          "indexed": false,
          "internalType": "address",
          "name": "_strategy",
          "type": "address"
        }
      ],
      "name": "AssetDefaultStrategyUpdated",
      "type": "event"
    },
    {
      "anonymous": false,
      "inputs": [
        {
          "indexed": false,
          "internalType": "address",
          "name": "_asset",
          "type": "address"
        }
      ],
      "name": "AssetRemoved",
      "type": "event"
    },
    {
      "anonymous": false,
      "inputs": [
        {
          "indexed": false,
          "internalType": "address",
          "name": "_asset",
          "type": "address"
        }
      ],
      "name": "AssetSupported",
      "type": "event"
    },
    {
      "anonymous": false,
      "inputs": [],
      "name": "CapitalPaused",
      "type": "event"
    },
    {
      "anonymous": false,
      "inputs": [],
      "name": "CapitalUnpaused",
      "type": "event"
    },
    {
      "anonymous": false,
      "inputs": [
        {
          "indexed": false,
          "internalType": "uint256",
          "name": "dripDuration",
          "type": "uint256"
        }
      ],
      "name": "DripDurationChanged",
      "type": "event"
    },
    {
      "anonymous": false,
      "inputs": [
        {
          "indexed": true,
          "internalType": "address",
          "name": "_dripper",
          "type": "address"
        }
      ],
      "name": "DripperChanged",
      "type": "event"
    },
    {
      "anonymous": false,
      "inputs": [
        {
          "indexed": true,
          "internalType": "address",
          "name": "previousGovernor",
          "type": "address"
        },
        {
          "indexed": true,
          "internalType": "address",
          "name": "newGovernor",
          "type": "address"
        }
      ],
      "name": "GovernorshipTransferred",
      "type": "event"
    },
    {
      "anonymous": false,
      "inputs": [
        {
          "indexed": false,
          "internalType": "uint256",
          "name": "maxSupplyDiff",
          "type": "uint256"
        }
      ],
      "name": "MaxSupplyDiffChanged",
      "type": "event"
    },
    {
      "anonymous": false,
      "inputs": [
        {
          "indexed": false,
          "internalType": "address",
          "name": "_addr",
          "type": "address"
        },
        {
          "indexed": false,
          "internalType": "uint256",
          "name": "_value",
          "type": "uint256"
        }
      ],
      "name": "Mint",
      "type": "event"
    },
    {
      "anonymous": false,
      "inputs": [
        {
          "indexed": false,
          "internalType": "uint256",
          "name": "_threshold",
          "type": "uint256"
        }
      ],
      "name": "NetOusdMintForStrategyThresholdChanged",
      "type": "event"
    },
    {
      "anonymous": false,
      "inputs": [
        {
          "indexed": false,
          "internalType": "address",
          "name": "_ousdMetaStrategy",
          "type": "address"
        }
      ],
      "name": "OusdMetaStrategyUpdated",
      "type": "event"
    },
    {
      "anonymous": false,
      "inputs": [
        {
          "indexed": true,
          "internalType": "address",
          "name": "previousGovernor",
          "type": "address"
        },
        {
          "indexed": true,
          "internalType": "address",
          "name": "newGovernor",
          "type": "address"
        }
      ],
      "name": "PendingGovernorshipTransfer",
      "type": "event"
    },
    {
      "anonymous": false,
      "inputs": [
        {
          "indexed": false,
          "internalType": "address",
          "name": "_priceProvider",
          "type": "address"
        }
      ],
      "name": "PriceProviderUpdated",
      "type": "event"
    },
    {
      "anonymous": false,
      "inputs": [],
      "name": "RebasePaused",
      "type": "event"
    },
    {
      "anonymous": false,
      "inputs": [
        {
          "indexed": false,
          "internalType": "uint256",
          "name": "rebaseRatePerSecond",
          "type": "uint256"
        }
      ],
      "name": "RebasePerSecondMaxChanged",
      "type": "event"
    },
    {
      "anonymous": false,
      "inputs": [
        {
          "indexed": false,
          "internalType": "uint256",
          "name": "_threshold",
          "type": "uint256"
        }
      ],
      "name": "RebaseThresholdUpdated",
      "type": "event"
    },
    {
      "anonymous": false,
      "inputs": [],
      "name": "RebaseUnpaused",
      "type": "event"
    },
    {
      "anonymous": false,
      "inputs": [
        {
          "indexed": false,
          "internalType": "address",
          "name": "_addr",
          "type": "address"
        },
        {
          "indexed": false,
          "internalType": "uint256",
          "name": "_value",
          "type": "uint256"
        }
      ],
      "name": "Redeem",
      "type": "event"
    },
    {
      "anonymous": false,
      "inputs": [
        {
          "indexed": false,
          "internalType": "uint256",
          "name": "_redeemFeeBps",
          "type": "uint256"
        }
      ],
      "name": "RedeemFeeUpdated",
      "type": "event"
    },
    {
      "anonymous": false,
      "inputs": [
        {
          "indexed": false,
          "internalType": "address",
          "name": "_address",
          "type": "address"
        }
      ],
      "name": "StrategistUpdated",
      "type": "event"
    },
    {
      "anonymous": false,
      "inputs": [
        {
          "indexed": true,
          "internalType": "address",
          "name": "strategy",
          "type": "address"
        }
      ],
      "name": "StrategyAddedToMintWhitelist",
      "type": "event"
    },
    {
      "anonymous": false,
      "inputs": [
        {
          "indexed": false,
          "internalType": "address",
          "name": "_addr",
          "type": "address"
        }
      ],
      "name": "StrategyApproved",
      "type": "event"
    },
    {
      "anonymous": false,
      "inputs": [
        {
          "indexed": false,
          "internalType": "address",
          "name": "_addr",
          "type": "address"
        }
      ],
      "name": "StrategyRemoved",
      "type": "event"
    },
    {
      "anonymous": false,
      "inputs": [
        {
          "indexed": true,
          "internalType": "address",
          "name": "strategy",
          "type": "address"
        }
      ],
      "name": "StrategyRemovedFromMintWhitelist",
      "type": "event"
    },
    {
      "anonymous": false,
      "inputs": [
        {
          "indexed": false,
          "internalType": "uint256",
          "name": "_basis",
          "type": "uint256"
        }
      ],
      "name": "SwapAllowedUndervalueChanged",
      "type": "event"
    },
    {
      "anonymous": false,
      "inputs": [
        {
          "indexed": false,
          "internalType": "address",
          "name": "_asset",
          "type": "address"
        },
        {
          "indexed": false,
          "internalType": "uint256",
          "name": "_basis",
          "type": "uint256"
        }
      ],
      "name": "SwapSlippageChanged",
      "type": "event"
    },
    {
      "anonymous": false,
      "inputs": [
        {
          "indexed": true,
          "internalType": "address",
          "name": "_fromAsset",
          "type": "address"
        },
        {
          "indexed": true,
          "internalType": "address",
          "name": "_toAsset",
          "type": "address"
        },
        {
          "indexed": false,
          "internalType": "uint256",
          "name": "_fromAssetAmount",
          "type": "uint256"
        },
        {
          "indexed": false,
          "internalType": "uint256",
          "name": "_toAssetAmount",
          "type": "uint256"
        }
      ],
      "name": "Swapped",
      "type": "event"
    },
    {
      "anonymous": false,
      "inputs": [
        {
          "indexed": false,
          "internalType": "address",
          "name": "_address",
          "type": "address"
        }
      ],
      "name": "SwapperChanged",
      "type": "event"
    },
    {
      "anonymous": false,
      "inputs": [
        {
          "indexed": false,
          "internalType": "address",
          "name": "_address",
          "type": "address"
        }
      ],
      "name": "TrusteeAddressChanged",
      "type": "event"
    },
    {
      "anonymous": false,
      "inputs": [
        {
          "indexed": false,
          "internalType": "uint256",
          "name": "_basis",
          "type": "uint256"
        }
      ],
      "name": "TrusteeFeeBpsChanged",
      "type": "event"
    },
    {
      "anonymous": false,
      "inputs": [
        {
          "indexed": false,
          "internalType": "uint256",
          "name": "_vaultBuffer",
          "type": "uint256"
        }
      ],
      "name": "VaultBufferUpdated",
      "type": "event"
    },
    {
      "anonymous": false,
      "inputs": [
        {
          "indexed": false,
          "internalType": "uint256",
          "name": "_newDelay",
          "type": "uint256"
        }
      ],
      "name": "WithdrawalClaimDelayUpdated",
      "type": "event"
    },
    {
      "anonymous": false,
      "inputs": [
        {
          "indexed": false,
          "internalType": "uint256",
          "name": "_claimable",
          "type": "uint256"
        },
        {
          "indexed": false,
          "internalType": "uint256",
          "name": "_newClaimable",
          "type": "uint256"
        }
      ],
      "name": "WithdrawalClaimable",
      "type": "event"
    },
    {
      "anonymous": false,
      "inputs": [
        {
          "indexed": true,
          "internalType": "address",
          "name": "_withdrawer",
          "type": "address"
        },
        {
          "indexed": true,
          "internalType": "uint256",
          "name": "_requestId",
          "type": "uint256"
        },
        {
          "indexed": false,
          "internalType": "uint256",
          "name": "_amount",
          "type": "uint256"
        }
      ],
      "name": "WithdrawalClaimed",
      "type": "event"
    },
    {
      "anonymous": false,
      "inputs": [
        {
          "indexed": true,
          "internalType": "address",
          "name": "_withdrawer",
          "type": "address"
        },
        {
          "indexed": true,
          "internalType": "uint256",
          "name": "_requestId",
          "type": "uint256"
        },
        {
          "indexed": false,
          "internalType": "uint256",
          "name": "_amount",
          "type": "uint256"
        },
        {
          "indexed": false,
          "internalType": "uint256",
          "name": "_queued",
          "type": "uint256"
        }
      ],
      "name": "WithdrawalRequested",
      "type": "event"
    },
    {
      "anonymous": false,
      "inputs": [
        {
          "indexed": false,
          "internalType": "address",
          "name": "_to",
          "type": "address"
        },
        {
          "indexed": false,
          "internalType": "uint256",
          "name": "_yield",
          "type": "uint256"
        },
        {
          "indexed": false,
          "internalType": "uint256",
          "name": "_fee",
          "type": "uint256"
        }
      ],
      "name": "YieldDistribution",
      "type": "event"
    },
    {
      "stateMutability": "nonpayable",
      "type": "fallback"
    },
    {
      "inputs": [],
      "name": "ADMIN_IMPLEMENTATION",
      "outputs": [
        {
          "internalType": "address",
          "name": "adminImpl",
          "type": "address"
        }
      ],
      "stateMutability": "view",
      "type": "function"
    },
    {
      "inputs": [],
      "name": "addWithdrawalQueueLiquidity",
      "outputs": [],
      "stateMutability": "nonpayable",
      "type": "function"
    },
    {
      "inputs": [],
      "name": "adminImplPosition",
      "outputs": [
        {
          "internalType": "bytes32",
          "name": "",
          "type": "bytes32"
        }
      ],
      "stateMutability": "view",
      "type": "function"
    },
    {
      "inputs": [],
      "name": "allocate",
      "outputs": [],
      "stateMutability": "nonpayable",
      "type": "function"
    },
    {
      "inputs": [
        {
          "internalType": "address",
          "name": "",
          "type": "address"
        }
      ],
      "name": "assetDefaultStrategies",
      "outputs": [
        {
          "internalType": "address",
          "name": "",
          "type": "address"
        }
      ],
      "stateMutability": "view",
      "type": "function"
    },
    {
      "inputs": [],
      "name": "autoAllocateThreshold",
      "outputs": [
        {
          "internalType": "uint256",
          "name": "",
          "type": "uint256"
        }
      ],
      "stateMutability": "view",
      "type": "function"
    },
    {
      "inputs": [
        {
          "internalType": "uint256",
          "name": "amount",
          "type": "uint256"
        }
      ],
      "name": "burnForStrategy",
      "outputs": [],
      "stateMutability": "nonpayable",
      "type": "function"
    },
    {
      "inputs": [],
      "name": "cacheWETHAssetIndex",
      "outputs": [],
      "stateMutability": "nonpayable",
      "type": "function"
    },
    {
      "inputs": [
        {
          "internalType": "uint256",
          "name": "_amount",
          "type": "uint256"
        }
      ],
      "name": "calculateRedeemOutputs",
      "outputs": [
        {
          "internalType": "uint256[]",
          "name": "",
          "type": "uint256[]"
        }
      ],
      "stateMutability": "view",
      "type": "function"
    },
    {
      "inputs": [],
      "name": "capitalPaused",
      "outputs": [
        {
          "internalType": "bool",
          "name": "",
          "type": "bool"
        }
      ],
      "stateMutability": "view",
      "type": "function"
    },
    {
      "inputs": [
        {
          "internalType": "address",
          "name": "_asset",
          "type": "address"
        }
      ],
      "name": "checkBalance",
      "outputs": [
        {
          "internalType": "uint256",
          "name": "",
          "type": "uint256"
        }
      ],
      "stateMutability": "view",
      "type": "function"
    },
    {
      "inputs": [],
      "name": "claimGovernance",
      "outputs": [],
      "stateMutability": "nonpayable",
      "type": "function"
    },
    {
      "inputs": [
        {
          "internalType": "uint256",
          "name": "_requestId",
          "type": "uint256"
        }
      ],
      "name": "claimWithdrawal",
      "outputs": [
        {
          "internalType": "uint256",
          "name": "amount",
          "type": "uint256"
        }
      ],
      "stateMutability": "nonpayable",
      "type": "function"
    },
    {
      "inputs": [
        {
          "internalType": "uint256[]",
          "name": "_requestIds",
          "type": "uint256[]"
        }
      ],
      "name": "claimWithdrawals",
      "outputs": [
        {
          "internalType": "uint256[]",
          "name": "amounts",
          "type": "uint256[]"
        },
        {
          "internalType": "uint256",
          "name": "totalAmount",
          "type": "uint256"
        }
      ],
      "stateMutability": "nonpayable",
      "type": "function"
    },
    {
      "inputs": [],
      "name": "dripDuration",
      "outputs": [
        {
          "internalType": "uint64",
          "name": "",
          "type": "uint64"
        }
      ],
      "stateMutability": "view",
      "type": "function"
    },
    {
      "inputs": [],
      "name": "dripper",
      "outputs": [
        {
          "internalType": "address",
          "name": "",
          "type": "address"
        }
      ],
      "stateMutability": "view",
      "type": "function"
    },
    {
      "inputs": [],
      "name": "getAllAssets",
      "outputs": [
        {
          "internalType": "address[]",
          "name": "",
          "type": "address[]"
        }
      ],
      "stateMutability": "view",
      "type": "function"
    },
    {
      "inputs": [],
      "name": "getAllStrategies",
      "outputs": [
        {
          "internalType": "address[]",
          "name": "",
          "type": "address[]"
        }
      ],
      "stateMutability": "view",
      "type": "function"
    },
    {
      "inputs": [
        {
          "internalType": "address",
          "name": "_asset",
          "type": "address"
        }
      ],
      "name": "getAssetConfig",
      "outputs": [
        {
          "components": [
            {
              "internalType": "bool",
              "name": "isSupported",
              "type": "bool"
            },
            {
              "internalType": "enum VaultStorage.UnitConversion",
              "name": "unitConversion",
              "type": "uint8"
            },
            {
              "internalType": "uint8",
              "name": "decimals",
              "type": "uint8"
            },
            {
              "internalType": "uint16",
              "name": "allowedOracleSlippageBps",
              "type": "uint16"
            }
          ],
          "internalType": "struct VaultStorage.Asset",
          "name": "config",
          "type": "tuple"
        }
      ],
      "stateMutability": "view",
      "type": "function"
    },
    {
      "inputs": [],
      "name": "getAssetCount",
      "outputs": [
        {
          "internalType": "uint256",
          "name": "",
          "type": "uint256"
        }
      ],
      "stateMutability": "view",
      "type": "function"
    },
    {
      "inputs": [],
      "name": "getStrategyCount",
      "outputs": [
        {
          "internalType": "uint256",
          "name": "",
          "type": "uint256"
        }
      ],
      "stateMutability": "view",
      "type": "function"
    },
    {
      "inputs": [],
      "name": "governor",
      "outputs": [
        {
          "internalType": "address",
          "name": "",
          "type": "address"
        }
      ],
      "stateMutability": "view",
      "type": "function"
    },
    {
      "inputs": [
        {
          "internalType": "address",
          "name": "_priceProvider",
          "type": "address"
        },
        {
          "internalType": "address",
          "name": "_oToken",
          "type": "address"
        }
      ],
      "name": "initialize",
      "outputs": [],
      "stateMutability": "nonpayable",
      "type": "function"
    },
    {
      "inputs": [],
      "name": "isGovernor",
      "outputs": [
        {
          "internalType": "bool",
          "name": "",
          "type": "bool"
        }
      ],
      "stateMutability": "view",
      "type": "function"
    },
    {
      "inputs": [
        {
          "internalType": "address",
          "name": "",
          "type": "address"
        }
      ],
      "name": "isMintWhitelistedStrategy",
      "outputs": [
        {
          "internalType": "bool",
          "name": "",
          "type": "bool"
        }
      ],
      "stateMutability": "view",
      "type": "function"
    },
    {
      "inputs": [
        {
          "internalType": "address",
          "name": "_asset",
          "type": "address"
        }
      ],
      "name": "isSupportedAsset",
      "outputs": [
        {
          "internalType": "bool",
          "name": "",
          "type": "bool"
        }
      ],
      "stateMutability": "view",
      "type": "function"
    },
    {
      "inputs": [],
      "name": "lastRebase",
      "outputs": [
        {
          "internalType": "uint64",
          "name": "",
          "type": "uint64"
        }
      ],
      "stateMutability": "view",
      "type": "function"
    },
    {
      "inputs": [],
      "name": "maxSupplyDiff",
      "outputs": [
        {
          "internalType": "uint256",
          "name": "",
          "type": "uint256"
        }
      ],
      "stateMutability": "view",
      "type": "function"
    },
    {
      "inputs": [
        {
          "internalType": "address",
          "name": "_asset",
          "type": "address"
        },
        {
          "internalType": "uint256",
          "name": "_amount",
          "type": "uint256"
        },
        {
          "internalType": "uint256",
          "name": "_minimumOusdAmount",
          "type": "uint256"
        }
      ],
      "name": "mint",
      "outputs": [],
      "stateMutability": "nonpayable",
      "type": "function"
    },
    {
      "inputs": [
        {
          "internalType": "uint256",
          "name": "amount",
          "type": "uint256"
        }
      ],
      "name": "mintForStrategy",
      "outputs": [],
      "stateMutability": "nonpayable",
      "type": "function"
    },
    {
      "inputs": [],
      "name": "netOusdMintForStrategyThreshold",
      "outputs": [
        {
          "internalType": "uint256",
          "name": "",
          "type": "uint256"
        }
      ],
      "stateMutability": "view",
      "type": "function"
    },
    {
      "inputs": [],
      "name": "netOusdMintedForStrategy",
      "outputs": [
        {
          "internalType": "int256",
          "name": "",
          "type": "int256"
        }
      ],
      "stateMutability": "view",
      "type": "function"
    },
    {
      "inputs": [],
      "name": "oUSD",
      "outputs": [
        {
          "internalType": "contract OUSD",
          "name": "",
          "type": "address"
        }
      ],
      "stateMutability": "view",
      "type": "function"
    },
    {
      "inputs": [],
      "name": "ousdMetaStrategy",
      "outputs": [
        {
          "internalType": "address",
          "name": "",
          "type": "address"
        }
      ],
      "stateMutability": "view",
      "type": "function"
    },
    {
      "inputs": [],
      "name": "previewYield",
      "outputs": [
        {
          "internalType": "uint256",
          "name": "yield",
          "type": "uint256"
        }
      ],
      "stateMutability": "view",
      "type": "function"
    },
    {
      "inputs": [],
      "name": "priceProvider",
      "outputs": [
        {
          "internalType": "address",
          "name": "",
          "type": "address"
        }
      ],
      "stateMutability": "view",
      "type": "function"
    },
    {
      "inputs": [
        {
          "internalType": "address",
          "name": "asset",
          "type": "address"
        }
      ],
      "name": "priceUnitMint",
      "outputs": [
        {
          "internalType": "uint256",
          "name": "price",
          "type": "uint256"
        }
      ],
      "stateMutability": "view",
      "type": "function"
    },
    {
      "inputs": [
        {
          "internalType": "address",
          "name": "asset",
          "type": "address"
        }
      ],
      "name": "priceUnitRedeem",
      "outputs": [
        {
          "internalType": "uint256",
          "name": "price",
          "type": "uint256"
        }
      ],
      "stateMutability": "view",
      "type": "function"
    },
    {
      "inputs": [],
      "name": "rebase",
      "outputs": [],
      "stateMutability": "nonpayable",
      "type": "function"
    },
    {
      "inputs": [],
      "name": "rebasePaused",
      "outputs": [
        {
          "internalType": "bool",
          "name": "",
          "type": "bool"
        }
      ],
      "stateMutability": "view",
      "type": "function"
    },
    {
      "inputs": [],
      "name": "rebasePerSecondMax",
      "outputs": [
        {
          "internalType": "uint64",
          "name": "",
          "type": "uint64"
        }
      ],
      "stateMutability": "view",
      "type": "function"
    },
    {
      "inputs": [],
      "name": "rebasePerSecondTarget",
      "outputs": [
        {
          "internalType": "uint64",
          "name": "",
          "type": "uint64"
        }
      ],
      "stateMutability": "view",
      "type": "function"
    },
    {
      "inputs": [],
      "name": "rebaseThreshold",
      "outputs": [
        {
          "internalType": "uint256",
          "name": "",
          "type": "uint256"
        }
      ],
      "stateMutability": "view",
      "type": "function"
    },
    {
      "inputs": [
        {
          "internalType": "uint256",
          "name": "_amount",
          "type": "uint256"
        },
        {
          "internalType": "uint256",
          "name": "_minimumUnitAmount",
          "type": "uint256"
        }
      ],
      "name": "redeem",
      "outputs": [],
      "stateMutability": "nonpayable",
      "type": "function"
    },
    {
      "inputs": [],
      "name": "redeemFeeBps",
      "outputs": [
        {
          "internalType": "uint256",
          "name": "",
          "type": "uint256"
        }
      ],
      "stateMutability": "view",
      "type": "function"
    },
    {
      "inputs": [
        {
          "internalType": "uint256",
          "name": "_amount",
          "type": "uint256"
        }
      ],
      "name": "requestWithdrawal",
      "outputs": [
        {
          "internalType": "uint256",
          "name": "requestId",
          "type": "uint256"
        },
        {
          "internalType": "uint256",
          "name": "queued",
          "type": "uint256"
        }
      ],
      "stateMutability": "nonpayable",
      "type": "function"
    },
    {
      "inputs": [
        {
          "internalType": "address",
          "name": "newImpl",
          "type": "address"
        }
      ],
      "name": "setAdminImpl",
      "outputs": [],
      "stateMutability": "nonpayable",
      "type": "function"
    },
    {
      "inputs": [
        {
          "internalType": "address",
          "name": "",
          "type": "address"
        }
      ],
      "name": "strategies",
      "outputs": [
        {
          "internalType": "bool",
          "name": "isSupported",
          "type": "bool"
        },
        {
          "internalType": "uint256",
          "name": "_deprecated",
          "type": "uint256"
        }
      ],
      "stateMutability": "view",
      "type": "function"
    },
    {
      "inputs": [],
      "name": "strategistAddr",
      "outputs": [
        {
          "internalType": "address",
          "name": "",
          "type": "address"
        }
      ],
      "stateMutability": "view",
      "type": "function"
    },
    {
      "inputs": [],
      "name": "totalValue",
      "outputs": [
        {
          "internalType": "uint256",
          "name": "value",
          "type": "uint256"
        }
      ],
      "stateMutability": "view",
      "type": "function"
    },
    {
      "inputs": [
        {
          "internalType": "address",
          "name": "_newGovernor",
          "type": "address"
        }
      ],
      "name": "transferGovernance",
      "outputs": [],
      "stateMutability": "nonpayable",
      "type": "function"
    },
    {
      "inputs": [],
      "name": "trusteeAddress",
      "outputs": [
        {
          "internalType": "address",
          "name": "",
          "type": "address"
        }
      ],
      "stateMutability": "view",
      "type": "function"
    },
    {
      "inputs": [],
      "name": "trusteeFeeBps",
      "outputs": [
        {
          "internalType": "uint256",
          "name": "",
          "type": "uint256"
        }
      ],
      "stateMutability": "view",
      "type": "function"
    },
    {
      "inputs": [],
      "name": "vaultBuffer",
      "outputs": [
        {
          "internalType": "uint256",
          "name": "",
          "type": "uint256"
        }
      ],
      "stateMutability": "view",
      "type": "function"
    },
    {
      "inputs": [],
      "name": "weth",
      "outputs": [
        {
          "internalType": "address",
          "name": "",
          "type": "address"
        }
      ],
      "stateMutability": "view",
      "type": "function"
    },
    {
      "inputs": [],
      "name": "wethAssetIndex",
      "outputs": [
        {
          "internalType": "uint256",
          "name": "",
          "type": "uint256"
        }
      ],
      "stateMutability": "view",
      "type": "function"
    },
    {
      "inputs": [],
      "name": "withdrawalClaimDelay",
      "outputs": [
        {
          "internalType": "uint256",
          "name": "",
          "type": "uint256"
        }
      ],
      "stateMutability": "view",
      "type": "function"
    },
    {
      "inputs": [],
      "name": "withdrawalQueueMetadata",
      "outputs": [
        {
          "internalType": "uint128",
          "name": "queued",
          "type": "uint128"
        },
        {
          "internalType": "uint128",
          "name": "claimable",
          "type": "uint128"
        },
        {
          "internalType": "uint128",
          "name": "claimed",
          "type": "uint128"
        },
        {
          "internalType": "uint128",
          "name": "nextWithdrawalIndex",
          "type": "uint128"
        }
      ],
      "stateMutability": "view",
      "type": "function"
    },
    {
      "inputs": [
        {
          "internalType": "uint256",
          "name": "",
          "type": "uint256"
        }
      ],
      "name": "withdrawalRequests",
      "outputs": [
        {
          "internalType": "address",
          "name": "withdrawer",
          "type": "address"
        },
        {
          "internalType": "bool",
          "name": "claimed",
          "type": "bool"
        },
        {
          "internalType": "uint40",
          "name": "timestamp",
          "type": "uint40"
        },
        {
          "internalType": "uint128",
          "name": "amount",
          "type": "uint128"
        },
        {
          "internalType": "uint128",
          "name": "queued",
          "type": "uint128"
        }
      ],
      "stateMutability": "view",
      "type": "function"
    }
  ],
  "transactionHash": "0x8679676dd886573e63b74fbcee57cd0ea2db58540367779def12cb678fc35438",
  "args": [
    "0xC02aaA39b223FE8D0A0e5C4F27eAD9083C756Cc2"
  ],
  "numDeployments": 9,
  "solcInputHash": "3d93c313784f00c00800e6c458e27c1d",
  "bytecode": "0x603d80546001600160a01b0319908116909155603e805482169055603f8054909116905560e0604052600060a081905260c052604880546001600160b01b031916905534801561004e57600080fd5b506040516144a53803806144a583398101604081905261006d9161007e565b6001600160a01b03166080526100ae565b60006020828403121561009057600080fd5b81516001600160a01b03811681146100a757600080fd5b9392505050565b6080516143736101326000396000818161051b01528181610ae601528181610b5001528181610fb501528181611ba201528181611c6e0152818161245d01528181612b0901528181612c1001528181612e5301528181612f5e01528181613061015281816130ac015281816131140152818161351d0152613b0601526143736000f3fe608060405234801561001057600080fd5b50600436106103995760003560e01c80636217f3ea116101e9578063af14052c1161010f578063d38bfff4116100ad578063ea33b8e41161007c578063ea33b8e414610917578063ef08edc21461091f578063f844443614610934578063fc0cfeee1461094757610399565b8063d38bfff4146108df578063d4c3eea0146108f2578063e45cc9f0146108fa578063e6cc54321461090357610399565b8063bb7a632e116100e9578063bb7a632e146108a0578063c3b28864146108ba578063c7af3352146108c2578063cc2fe94b146108ca57610399565b8063af14052c1461087d578063b888879e14610885578063b9b17f9f1461089857610399565b8063937b258111610187578063a0aead4d11610156578063a0aead4d14610831578063a403e4d514610839578063ab80dafb14610862578063abaa99161461087557610399565b8063937b25811461072c5780639be918e6146107d45780639ee679e8146108005780639fa1826e1461082857610399565b806378f353a1116101c357806378f353a1146106f45780637a2202f3146107075780637cbc2373146107105780638e510b521461072357610399565b80636217f3ea146106a157806367bd7ba3146106b45780636ec3ab67146106d457610399565b806345e4213b116102ce57806353ca9f241161026c5780635b60f9fc1161023b5780635b60f9fc146106605780635d36b190146106735780635f5152261461067b578063603ea03b1461068e57610399565b806353ca9f241461061d57806354c6d85814610631578063570d8e1d1461063a5780635802a1721461064d57610399565b806349c1d54d116102a857806349c1d54d146105b55780634d5f4629146105c8578063527e83a8146105fa57806352d38e5d1461061457610399565b806345e4213b14610578578063485cc9551461058157806348e30f541461059457610399565b806331e19cfa1161033b5780633b8fe28d116103155780633b8fe28d146105035780633fc8cef31461051657806344c547071461053d5780634530820a1461054557610399565b806331e19cfa14610458578063362bd1a31461046057806339ebf823146104bf57610399565b806318ce56bd1161037757806318ce56bd1461041e5780631edfe3da14610431578063207134b01461043a5780632acada4d1461044357610399565b806309f6442c146103cf5780630c340a24146103eb578063156e29f61461040b575b6000805160206142fe833981519152366000803760008036600084545af43d6000803e8080156103c8573d6000f35b3d6000fd5b005b6103d860385481565b6040519081526020015b60405180910390f35b6103f361095a565b6040516001600160a01b0390911681526020016103e2565b6103cd610419366004613d63565b610977565b6045546103f3906001600160a01b031681565b6103d860395481565b6103d860435481565b61044b6109f5565b6040516103e29190613d96565b6036546103d8565b604b54604c5461048c916001600160801b0380821692600160801b928390048216928183169291041684565b604080516001600160801b03958616815293851660208501529184169183019190915290911660608201526080016103e2565b6104ec6104cd366004613de2565b6035602052600090815260409020805460019091015460ff9091169082565b6040805192151583526020830191909152016103e2565b6103d8610511366004613de2565b610a57565b6103f37f000000000000000000000000000000000000000000000000000000000000000081565b6103cd610ab2565b610568610553366004613de2565b60496020526000908152604090205460ff1681565b60405190151581526020016103e2565b6103d8604e5481565b6103cd61058f366004613dfd565b610bf2565b6105a76105a2366004613e30565b610e13565b6040516103e2929190613ee1565b6042546103f3906001600160a01b031681565b604f546105e290600160c01b90046001600160401b031681565b6040516001600160401b0390911681526020016103e2565b604f546105e290600160801b90046001600160401b031681565b6103d8603b5481565b60375461056890600160a01b900460ff1681565b6103d8607b5481565b603f546103f3906001600160a01b031681565b603c546103f3906001600160a01b031681565b6103d861066e366004613de2565b610ff2565b6103cd61101b565b6103d8610689366004613de2565b6110c1565b604a546103f3906001600160a01b031681565b6103cd6106af366004613f03565b6110d2565b6106c76106c2366004613f03565b611256565b6040516103e29190613f1c565b6106e76106e2366004613de2565b611261565b6040516103e29190613f45565b604f546105e2906001600160401b031681565b6103d860475481565b6103cd61071e366004613f9b565b611307565b6103d860415481565b61078d61073a366004613f03565b604d60205260009081526040902080546001909101546001600160a01b03821691600160a01b810460ff1691600160a81b90910464ffffffffff16906001600160801b0380821691600160801b90041685565b604080516001600160a01b039096168652931515602086015264ffffffffff909216928401929092526001600160801b03918216606084015216608082015260a0016103e2565b6105686107e2366004613de2565b6001600160a01b031660009081526033602052604090205460ff1690565b61081361080e366004613f03565b61137a565b604080519283526020830191909152016103e2565b6103d8603a5481565b6034546103d8565b6103f3610847366004613de2565b6040602081905260009182529020546001600160a01b031681565b6103cd610870366004613f03565b611637565b6103cd611786565b6103cd6117fe565b6037546103f3906001600160a01b031681565b6103cd611844565b604f546105e290600160401b90046001600160401b031681565b61044b6118b4565b610568611914565b6000805160206142fe833981519152546103f3565b6103cd6108ed366004613de2565b611945565b6103d86119e9565b6103d860465481565b60375461056890600160a81b900460ff1681565b6103d86119f3565b6103d86000805160206142fe83398151915281565b6103d8610942366004613f03565b611a82565b6103cd610955366004613de2565b611bdc565b600061097260008051602061431e8339815191525490565b905090565b603754600160a81b900460ff16156109aa5760405162461bcd60e51b81526004016109a190613fbd565b60405180910390fd5b6000805160206142de833981519152805460011981016109dc5760405162461bcd60e51b81526004016109a190613fe5565b600282556109eb858585611c6c565b5060019055505050565b60606034805480602002602001604051908101604052809291908181526020018280548015610a4d57602002820191906000526020600020905b81546001600160a01b03168152600190910190602001808311610a2f575b5050505050905090565b600080610a80610a7a610a6985611eed565b670de0b6b3a7640000906012611f57565b84611fb9565b9050670de0b6b3a764000081610a97856001612104565b610aa19190614023565b610aab919061403a565b9392505050565b610aba611914565b610ad65760405162461bcd60e51b81526004016109a19061405c565b60345460005b81811015610b4d577f00000000000000000000000000000000000000000000000000000000000000006001600160a01b031660348281548110610b2157610b21614093565b6000918252602090912001546001600160a01b031603610b4557607b819055610b4d565b600101610adc565b507f00000000000000000000000000000000000000000000000000000000000000006001600160a01b03166034607b5481548110610b8d57610b8d614093565b6000918252602090912001546001600160a01b031614610bef5760405162461bcd60e51b815260206004820152601860248201527f496e76616c6964205745544820417373657420496e646578000000000000000060448201526064016109a1565b50565b610bfa611914565b610c165760405162461bcd60e51b81526004016109a19061405c565b600054610100900460ff1680610c2f575060005460ff16155b610c925760405162461bcd60e51b815260206004820152602e60248201527f496e697469616c697a61626c653a20636f6e747261637420697320616c72656160448201526d191e481a5b9a5d1a585b1a5e995960921b60648201526084016109a1565b600054610100900460ff16158015610cb4576000805461ffff19166101011790555b6001600160a01b038316610d0a5760405162461bcd60e51b815260206004820152601d60248201527f507269636550726f76696465722061646472657373206973207a65726f00000060448201526064016109a1565b6001600160a01b038216610d595760405162461bcd60e51b81526020600482015260166024820152756f546f6b656e2061646472657373206973207a65726f60501b60448201526064016109a1565b603c80546001600160a01b038481166001600160a01b031990921691909117909155603780546001600160b01b03191691851691909117600160a81b17905560006038819055603981905569054b40b1f852bda00000603a55683635c9adc5dea00000603b556040805191825260208201908190529051610ddc91603691613cdb565b50604f80546fffffffffffffffff00000000000000001916600160401b1790558015610e0e576000805461ff00191690555b505050565b603754606090600090600160a81b900460ff1615610e435760405162461bcd60e51b81526004016109a190613fbd565b6000805160206142de83398151915280546001198101610e755760405162461bcd60e51b81526004016109a190613fe5565b60028255604a60009054906101000a90046001600160a01b03166001600160a01b031663e52253816040518163ffffffff1660e01b8152600401600060405180830381600087803b158015610ec957600080fd5b505af1158015610edd573d6000803e3d6000fd5b50505050610ee96123d7565b50846001600160401b03811115610f0257610f026140a9565b604051908082528060200260200182016040528015610f2b578160200160208202803683370190505b50935060005b85811015610fa757610f5a878783818110610f4e57610f4e614093565b905060200201356125b3565b858281518110610f6c57610f6c614093565b602002602001018181525050848181518110610f8a57610f8a614093565b602002602001015184610f9d91906140bf565b9350600101610f31565b50610fdc6001600160a01b037f00000000000000000000000000000000000000000000000000000000000000001633856128a9565b610fe5836128ff565b6001825550509250929050565b600080611004610a7a610a6985611eed565b9050670de0b6b3a764000081610a97856000612104565b7f44c4d30b2eaad5130ad70c3ba6972730566f3e6359ab83e800d905c61b1c51db546001600160a01b0316336001600160a01b0316146110b65760405162461bcd60e51b815260206004820152603060248201527f4f6e6c79207468652070656e64696e6720476f7665726e6f722063616e20636f60448201526f6d706c6574652074686520636c61696d60801b60648201526084016109a1565b6110bf33612aa6565b565b60006110cc82612b05565b92915050565b603754600160a81b900460ff16156110fc5760405162461bcd60e51b81526004016109a190613fbd565b3360009081526035602052604090205460ff1615156001146111575760405162461bcd60e51b8152602060048201526014602482015273556e737570706f7274656420737472617465677960601b60448201526064016109a1565b3360009081526049602052604090205460ff1615156001146111b65760405162461bcd60e51b81526020600482015260186024820152774e6f742077686974656c697374656420737472617465677960401b60448201526064016109a1565b7f222838db2794d11532d940e8dec38ae307ed0b63cd97c233322e221f998767a633826040516111e79291906140d2565b60405180910390a1603c54604051632770a7eb60e21b81526001600160a01b0390911690639dc29fac9061122190339085906004016140d2565b600060405180830381600087803b15801561123b57600080fd5b505af115801561124f573d6000803e3d6000fd5b5050505050565b60606110cc82612bd8565b604080516080808201835260008083526020808401829052838501829052606084018290526001600160a01b038616825260338152908490208451928301909452835460ff8082161515845293949293918401916101009091041660018111156112cd576112cd613f2f565b60018111156112de576112de613f2f565b8152905462010000810460ff1660208301526301000000900461ffff1660409091015292915050565b603754600160a81b900460ff16156113315760405162461bcd60e51b81526004016109a190613fbd565b6000805160206142de833981519152805460011981016113635760405162461bcd60e51b81526004016109a190613fe5565b600282556113718484612d18565b50600190555050565b6037546000908190600160a81b900460ff16156113a95760405162461bcd60e51b81526004016109a190613fbd565b6000805160206142de833981519152805460011981016113db5760405162461bcd60e51b81526004016109a190613fe5565b600282556000604e54116114315760405162461bcd60e51b815260206004820152601d60248201527f4173796e63207769746864726177616c73206e6f7420656e61626c656400000060448201526064016109a1565b604c54604b546001600160801b03600160801b90920482169550611457918791166140bf565b925061146c6114678560016140bf565b612ee7565b604c80546001600160801b03928316600160801b02921691909117905561149283612ee7565b604b80546001600160801b0319166001600160801b03929092169190911790556040805160a081018252338152600060208201524264ffffffffff1691810191909152606081016114e287612ee7565b6001600160801b031681526020016114f985612ee7565b6001600160801b039081169091526000868152604d602090815260409182902084518154928601518685015164ffffffffff16600160a81b0264ffffffffff60a81b19911515600160a01b026001600160a81b03199095166001600160a01b0393841617949094171692909217815560608501516080909501518416600160801b029490931693909317600190920191909155603c549051632770a7eb60e21b8152911690639dc29fac906115b490339089906004016140d2565b600060405180830381600087803b1580156115ce57600080fd5b505af11580156115e2573d6000803e3d6000fd5b505050506115ef856128ff565b6040805186815260208101859052859133917f38e3d972947cfef94205163d483d6287ef27eb312e20cb8e0b13a49989db232e910160405180910390a3600182555050915091565b603754600160a81b900460ff16156116615760405162461bcd60e51b81526004016109a190613fbd565b3360009081526035602052604090205460ff1615156001146116bc5760405162461bcd60e51b8152602060048201526014602482015273556e737570706f7274656420737472617465677960601b60448201526064016109a1565b3360009081526049602052604090205460ff16151560011461171b5760405162461bcd60e51b81526020600482015260186024820152774e6f742077686974656c697374656420737472617465677960401b60448201526064016109a1565b7f0f6798a560793a54c3bcfe86a93cde1e73087d944c0ea20544137d4121396885338260405161174c9291906140d2565b60405180910390a1603c546040516340c10f1960e01b81526001600160a01b03909116906340c10f199061122190339085906004016140d2565b603754600160a81b900460ff16156117b05760405162461bcd60e51b81526004016109a190613fbd565b6000805160206142de833981519152805460011981016117e25760405162461bcd60e51b81526004016109a190613fe5565b600282556117ee6123d7565b506117f7612f54565b5060019055565b6000805160206142de833981519152805460011981016118305760405162461bcd60e51b81526004016109a190613fe5565b6002825561183c61317c565b505060019055565b604a60009054906101000a90046001600160a01b03166001600160a01b031663e52253816040518163ffffffff1660e01b8152600401600060405180830381600087803b15801561189457600080fd5b505af11580156118a8573d6000803e3d6000fd5b50505050610bef6123d7565b60606036805480602002602001604051908101604052809291908181526020018280548015610a4d576020028201919060005260206000209081546001600160a01b03168152600190910190602001808311610a2f575050505050905090565b600061192c60008051602061431e8339815191525490565b6001600160a01b0316336001600160a01b031614905090565b61194d611914565b6119695760405162461bcd60e51b81526004016109a19061405c565b611991817f44c4d30b2eaad5130ad70c3ba6972730566f3e6359ab83e800d905c61b1c51db55565b806001600160a01b03166119b160008051602061431e8339815191525490565b6001600160a01b03167fa39cc5eb22d0f34d8beaefee8a3f17cc229c1a1d1ef87a5ad47313487b1c4f0d60405160405180910390a350565b6000610972613516565b6000611a7c603c60009054906101000a90046001600160a01b03166001600160a01b03166318160ddd6040518163ffffffff1660e01b8152600401602060405180830381865afa158015611a4b573d6000803e3d6000fd5b505050506040513d601f19601f82011682018060405250810190611a6f91906140eb565b611a77613516565b613541565b50919050565b603754600090600160a81b900460ff1615611aaf5760405162461bcd60e51b81526004016109a190613fbd565b6000805160206142de83398151915280546001198101611ae15760405162461bcd60e51b81526004016109a190613fe5565b60028255604b546000858152604d60205260409020600101546001600160801b03600160801b92839004811692909104161115611b8a57604a60009054906101000a90046001600160a01b03166001600160a01b031663e52253816040518163ffffffff1660e01b8152600401600060405180830381600087803b158015611b6857600080fd5b505af1158015611b7c573d6000803e3d6000fd5b50505050611b886123d7565b505b611b93846125b3565b9250611bc96001600160a01b037f00000000000000000000000000000000000000000000000000000000000000001633856128a9565b611bd2836128ff565b5060019055919050565b611be4611914565b611c005760405162461bcd60e51b81526004016109a19061405c565b803b611c5a5760405162461bcd60e51b8152602060048201526024808201527f6e657720696d706c656d656e746174696f6e206973206e6f74206120636f6e746044820152631c9858dd60e21b60648201526084016109a1565b6000805160206142fe83398151915255565b7f00000000000000000000000000000000000000000000000000000000000000006001600160a01b0316836001600160a01b031614611ced5760405162461bcd60e51b815260206004820152601d60248201527f556e737570706f7274656420617373657420666f72206d696e74696e6700000060448201526064016109a1565b60008211611d3d5760405162461bcd60e51b815260206004820152601d60248201527f416d6f756e74206d7573742062652067726561746572207468616e203000000060448201526064016109a1565b80821015611d8d5760405162461bcd60e51b815260206004820152601e60248201527f4d696e7420616d6f756e74206c6f776572207468616e206d696e696d756d000060448201526064016109a1565b7f0f6798a560793a54c3bcfe86a93cde1e73087d944c0ea20544137d41213968853383604051611dbe9291906140d2565b60405180910390a1603754600160a01b900460ff16158015611de25750603b548210155b15611e5957604a60009054906101000a90046001600160a01b03166001600160a01b031663e52253816040518163ffffffff1660e01b8152600401600060405180830381600087803b158015611e3757600080fd5b505af1158015611e4b573d6000803e3d6000fd5b50505050611e5761317c565b505b603c546040516340c10f1960e01b81526001600160a01b03909116906340c10f1990611e8b90339086906004016140d2565b600060405180830381600087803b158015611ea557600080fd5b505af1158015611eb9573d6000803e3d6000fd5b50611ed3925050506001600160a01b038416333085613714565b611edb6123d7565b50603a548210610e0e57610e0e612f54565b6001600160a01b03811660009081526033602052604090205462010000900460ff1680611f525760405162461bcd60e51b8152602060048201526013602482015272111958da5b585b1cc81b9bdd0818d858da1959606a1b60448201526064016109a1565b919050565b600081831115611f8757611f80611f6e8385614104565b611f7990600a6141fe565b8590613752565b9350611fb1565b81831015611fb157611fae611f9c8484614104565b611fa790600a6141fe565b859061375e565b93505b509192915050565b6001600160a01b038116600090815260336020526040812054610100900460ff1681816001811115611fed57611fed613f2f565b0361201057612008601261200085611eed565b869190611f57565b9150506110cc565b600181600181111561202457612024613f2f565b036120b5576000836001600160a01b031663e6aa216c6040518163ffffffff1660e01b8152600401602060405180830381865afa158015612069573d6000803e3d6000fd5b505050506040513d601f19601f8201168201806040525081019061208d91906140eb565b9050670de0b6b3a76400006120a28287614023565b6120ac919061403a565b925050506110cc565b60405162461bcd60e51b815260206004820152601b60248201527f556e737570706f7274656420636f6e76657273696f6e2074797065000000000060448201526064016109a1565b5092915050565b6001600160a01b038281166000818152603360205260408082205460375491516315d5220f60e31b81526004810194909452919361010090920460ff169291169063aea9107890602401602060405180830381865afa15801561216b573d6000803e3d6000fd5b505050506040513d601f19601f8201168201806040525081019061218f91906140eb565b915060018160018111156121a5576121a5613f2f565b03612235576000846001600160a01b031663e6aa216c6040518163ffffffff1660e01b8152600401602060405180830381865afa1580156121ea573d6000803e3d6000fd5b505050506040513d601f19601f8201168201806040525081019061220e91906140eb565b90508061222384670de0b6b3a7640000614023565b61222d919061403a565b925050612296565b600081600181111561224957612249613f2f565b146122965760405162461bcd60e51b815260206004820152601b60248201527f556e737570706f7274656420636f6e76657273696f6e2074797065000000000060448201526064016109a1565b67120a871cc00200008211156122ee5760405162461bcd60e51b815260206004820152601860248201527f5661756c743a2050726963652065786365656473206d6178000000000000000060448201526064016109a1565b6709b6e64a8ec6000082101561233f5760405162461bcd60e51b81526020600482015260166024820152752b30bab63a1d10283934b1b2903ab73232b91036b4b760511b60448201526064016109a1565b82156123b657670de0b6b3a764000082111561236157670de0b6b3a764000091505b670dd99bb65dd700008210156123b15760405162461bcd60e51b815260206004820152601560248201527441737365742070726963652062656c6f772070656760581b60448201526064016109a1565b6120fd565b670de0b6b3a76400008210156120fd5750670de0b6b3a76400009392505050565b60408051608081018252604b546001600160801b03808216808452600160801b92839004821660208501819052604c54808416968601969096529290940416606083015260009283916124299161420a565b6001600160801b03169050806000036124455760009250505090565b6040516370a0823160e01b81523060048201526000907f00000000000000000000000000000000000000000000000000000000000000006001600160a01b0316906370a0823190602401602060405180830381865afa1580156124ac573d6000803e3d6000fd5b505050506040513d601f19601f820116820180604052508101906124d091906140eb565b90506000836040015184602001516124e8919061420a565b6001600160801b0316905080821161250557600094505050505090565b60006125118284614104565b90508084106125205780612522565b835b955060008686602001516001600160801b031661253f91906140bf565b905061254a81612ee7565b604b80546001600160801b03928316600160801b0292169190911790556040517fee79a0c43d3993055690b54e074b5153e8bae8d1a872b656dedb64aa8f463333906125a29083908a90918252602082015260400190565b60405180910390a150505050505090565b600080604e54116126065760405162461bcd60e51b815260206004820152601d60248201527f4173796e63207769746864726177616c73206e6f7420656e61626c656400000060448201526064016109a1565b6000828152604d6020908152604091829020825160a08101845281546001600160a01b038116825260ff600160a01b82041615158285015264ffffffffff600160a81b90910481168286019081526001909301546001600160801b03808216606080860191909152600160801b92839004821660808087019190915288519081018952604b548084168252849004831697810197909752604c54808316988801989098529190960490951694840194909452604e549151909342926126cd929091166140bf565b11156127115760405162461bcd60e51b815260206004820152601360248201527210db185a5b4819195b185e481b9bdd081b595d606a1b60448201526064016109a1565b80602001516001600160801b031682608001516001600160801b0316111561277b5760405162461bcd60e51b815260206004820152601760248201527f51756575652070656e64696e67206c697175696469747900000000000000000060448201526064016109a1565b81516001600160a01b031633146127c45760405162461bcd60e51b815260206004820152600d60248201526c2737ba103932b8bab2b9ba32b960991b60448201526064016109a1565b6020820151156128085760405162461bcd60e51b815260206004820152600f60248201526e105b1c9958591e4818db185a5b5959608a1b60448201526064016109a1565b6000848152604d602052604090819020805460ff60a01b1916600160a01b17905560608301519082015161283c9190614229565b604c80546001600160801b0319166001600160801b03928316179055606083015160405191168152849033907f2d43eb174787155132b52ddb6b346e2dca99302eac3df4466dbeff953d3c84d19060200160405180910390a350606001516001600160801b031692915050565b610e0e8363a9059cbb60e01b84846040516024016128c89291906140d2565b60408051601f198184030181529190526020810180516001600160e01b03166001600160e01b03199093169290921790915261376a565b6000603b54821015801561291d5750603754600160a01b900460ff16155b156129315761292a61317c565b905061293c565b612939613516565b90505b60415415612aa257600081116129945760405162461bcd60e51b815260206004820152601d60248201527f546f6f206d616e79206f75747374616e64696e6720726571756573747300000060448201526064016109a1565b6000612a1782603c60009054906101000a90046001600160a01b03166001600160a01b03166318160ddd6040518163ffffffff1660e01b8152600401602060405180830381865afa1580156129ed573d6000803e3d6000fd5b505050506040513d601f19601f82011682018060405250810190612a1191906140eb565b9061383c565b9050604154670de0b6b3a76400008211612a4257612a3d82670de0b6b3a7640000614104565b612a54565b612a54670de0b6b3a764000083614104565b1115610e0e5760405162461bcd60e51b815260206004820152601e60248201527f4261636b696e6720737570706c79206c6971756964697479206572726f72000060448201526064016109a1565b5050565b6001600160a01b038116612afc5760405162461bcd60e51b815260206004820152601a60248201527f4e657720476f7665726e6f72206973206164647265737328302900000000000060448201526064016109a1565b610bef81613865565b60007f00000000000000000000000000000000000000000000000000000000000000006001600160a01b0316826001600160a01b031614612b4857506000919050565b612b51826138cc565b60408051608081018252604b546001600160801b03808216808452600160801b9283900482166020850152604c54808316958501869052929092041660608301529293509190612ba190846140bf565b1015612bb05750600092915050565b805160408201516001600160801b0391821691612bce9116846140bf565b610aab9190614104565b60385460609015612c0757603854600090612bf7908490612710613a66565b9050612c038184614104565b9250505b6000607b5490507f00000000000000000000000000000000000000000000000000000000000000006001600160a01b031660348281548110612c4b57612c4b614093565b6000918252602090912001546001600160a01b031614612cad5760405162461bcd60e51b815260206004820152601b60248201527f5745544820417373657420696e646578206e6f7420636163686564000000000060448201526064016109a1565b6034546001600160401b03811115612cc757612cc76140a9565b604051908082528060200260200182016040528015612cf0578160200160208202803683370190505b50915082828281518110612d0657612d06614093565b60200260200101818152505050919050565b7f222838db2794d11532d940e8dec38ae307ed0b63cd97c233322e221f998767a63383604051612d499291906140d2565b60405180910390a181600003612d5d575050565b603f546000906001600160a01b0316331480612d7c5750612d7c611914565b612da957612d8983612bd8565b607b5481518110612d9c57612d9c614093565b6020026020010151612dab565b825b905081811015612dfd5760405162461bcd60e51b815260206004820181905260248201527f52656465656d20616d6f756e74206c6f776572207468616e206d696e696d756d60448201526064016109a1565b80612e06613a88565b1015612e465760405162461bcd60e51b815260206004820152600f60248201526e2634b8bab4b234ba3c9032b93937b960891b60448201526064016109a1565b612e7a6001600160a01b037f00000000000000000000000000000000000000000000000000000000000000001633836128a9565b603c54604051632770a7eb60e21b81526001600160a01b0390911690639dc29fac90612eac90339087906004016140d2565b600060405180830381600087803b158015612ec657600080fd5b505af1158015612eda573d6000803e3d6000fd5b50505050610e0e836128ff565b60006001600160801b03821115612f505760405162461bcd60e51b815260206004820152602760248201527f53616665436173743a2076616c756520646f65736e27742066697420696e20316044820152663238206269747360c81b60648201526084016109a1565b5090565b6001600160a01b037f000000000000000000000000000000000000000000000000000000000000000081166000908152604060208190529020541680612f975750565b6000612fa1613a88565b905080600003612faf575050565b603c54604080516318160ddd60e01b815290516000926001600160a01b0316916318160ddd9160048083019260209291908290030181865afa158015612ff9573d6000803e3d6000fd5b505050506040513d601f19601f8201168201806040525081019061301d91906140eb565b9050600061303660395483613b9690919063ffffffff16565b90508083116130455750505050565b60006130518285614104565b9050846130886001600160a01b037f00000000000000000000000000000000000000000000000000000000000000001682846128a9565b6040516311f9fbc960e21b81526001600160a01b038216906347e7ef24906130d6907f00000000000000000000000000000000000000000000000000000000000000009086906004016140d2565b600060405180830381600087803b1580156130f057600080fd5b505af1158015613104573d6000803e3d6000fd5b5050604080516001600160a01b037f0000000000000000000000000000000000000000000000000000000000000000811682528a1660208201529081018590527f41b99659f6ba0803f444aff29e5bf6e26dd86a3219aff92119d69710a956ba8d9250606001905060405180910390a1505050505050565b603754600090600160a01b900460ff16156131cb5760405162461bcd60e51b815260206004820152600f60248201526e149958985cda5b99c81c185d5cd959608a1b60448201526064016109a1565b603c54604080516318160ddd60e01b815290516000926001600160a01b0316916318160ddd9160048083019260209291908290030181865afa158015613215573d6000803e3d6000fd5b505050506040513d601f19601f8201168201806040525081019061323991906140eb565b90506000613245613516565b9050816000036132585791506135139050565b6000806132658484613541565b9092509050600061327683866140bf565b9050848111158061328657508381115b15613295575091949350505050565b6132a6826001600160401b03613bab565b604f805477ffffffffffffffffffffffffffffffff000000000000000016600160c01b6001600160401b039384160267ffffffffffffffff19161742929092169190911790556042546001600160a01b0316600081156133e257612710604354866133119190614023565b61331b919061403a565b905080156133e25784811061337d5760405162461bcd60e51b815260206004820152602260248201527f466565206d757374206e6f742062652067726561746572207468616e207969656044820152611b1960f21b60648201526084016109a1565b603c546040516340c10f1960e01b81526001600160a01b03909116906340c10f19906133af90859085906004016140d2565b600060405180830381600087803b1580156133c957600080fd5b505af11580156133dd573d6000803e3d6000fd5b505050505b604080516001600160a01b0384168152602081018790529081018290527f09516ecf4a8a86e59780a9befc6dee948bc9e60a36e3be68d31ea817ee8d2c809060600160405180910390a1603c60009054906101000a90046001600160a01b03166001600160a01b03166318160ddd6040518163ffffffff1660e01b8152600401602060405180830381865afa15801561347f573d6000803e3d6000fd5b505050506040513d601f19601f820116820180604052508101906134a391906140eb565b83111561350957603c546040516339a7919f60e01b8152600481018590526001600160a01b03909116906339a7919f90602401600060405180830381600087803b1580156134f057600080fd5b505af1158015613504573d6000803e3d6000fd5b505050505b5093955050505050505b90565b60006109727f0000000000000000000000000000000000000000000000000000000000000000612b05565b6000806000603c60009054906101000a90046001600160a01b03166001600160a01b031663e696393a6040518163ffffffff1660e01b8152600401602060405180830381865afa158015613599573d6000803e3d6000fd5b505050506040513d601f19601f820116820180604052508101906135bd91906140eb565b905060006135cb8287614104565b604f549091506000906135e7906001600160401b031642614104565b604f54600160c01b90046001600160401b031694509050801580613609575081155b8061361357508587115b8061362557506001600160401b034210155b15613636576000945050505061370d565b6136408787614104565b604f54909550600160401b90046001600160401b031660018111156136a55761367d8561366e836002614023565b613678908961403a565b613bc1565b94506136928561368d838961403a565b613bab565b94506136a28661368d8488614023565b95505b604f546136e6908790670de0b6b3a764000090600160801b90046001600160401b03166136d28688614023565b6136dc9190614023565b61368d919061403a565b955061370686670de0b6b3a76400006136dc66470de4df82000087614023565b9550505050505b9250929050565b6040516001600160a01b038085166024830152831660448201526064810182905261374c9085906323b872dd60e01b906084016128c8565b50505050565b6000610aab8284614023565b6000610aab828461403a565b60006137bf826040518060400160405280602081526020017f5361666545524332303a206c6f772d6c6576656c2063616c6c206661696c6564815250856001600160a01b0316613bd09092919063ffffffff16565b805190915015610e0e57808060200190518101906137dd9190614248565b610e0e5760405162461bcd60e51b815260206004820152602a60248201527f5361666545524332303a204552433230206f7065726174696f6e20646964206e6044820152691bdd081cdd58d8d9595960b21b60648201526084016109a1565b60008061385184670de0b6b3a7640000613752565b905061385d818461375e565b949350505050565b806001600160a01b031661388560008051602061431e8339815191525490565b6001600160a01b03167fc7c0c772add429241571afb3805861fb3cfa2af374534088b76cdb4325a87e9a60405160405180910390a360008051602061431e83398151915255565b6040516370a0823160e01b815230600482015260009082906001600160a01b038216906370a0823190602401602060405180830381865afa158015613915573d6000803e3d6000fd5b505050506040513d601f19601f8201168201806040525081019061393991906140eb565b60365490925060005b81811015613a5e5760006036828154811061395f5761395f614093565b60009182526020909120015460405163551c457b60e11b81526001600160a01b0388811660048301529091169150819063aa388af690602401602060405180830381865afa1580156139b5573d6000803e3d6000fd5b505050506040513d601f19601f820116820180604052508101906139d99190614248565b15613a5557604051632fa8a91360e11b81526001600160a01b038781166004830152821690635f51522690602401602060405180830381865afa158015613a24573d6000803e3d6000fd5b505050506040513d601f19601f82011682018060405250810190613a4891906140eb565b613a5290866140bf565b94505b50600101613942565b505050919050565b600080613a738585613752565b9050613a7f818461375e565b95945050505050565b60408051608081018252604b546001600160801b03808216808452600160801b9283900482166020850152604c54808316958501869052929092041660608301526000928391613ad8919061420a565b6040516370a0823160e01b81523060048201526001600160801b039190911691506000906001600160a01b037f000000000000000000000000000000000000000000000000000000000000000016906370a0823190602401602060405180830381865afa158015613b4d573d6000803e3d6000fd5b505050506040513d601f19601f82011682018060405250810190613b7191906140eb565b9050818111613b84576000935050505090565b613b8e8282614104565b935050505090565b6000610aab8383670de0b6b3a7640000613a66565b6000818310613bba5781610aab565b5090919050565b6000818311613bba5781610aab565b606061385d848460008585843b613c295760405162461bcd60e51b815260206004820152601d60248201527f416464726573733a2063616c6c20746f206e6f6e2d636f6e747261637400000060448201526064016109a1565b600080866001600160a01b03168587604051613c45919061428e565b60006040518083038185875af1925050503d8060008114613c82576040519150601f19603f3d011682016040523d82523d6000602084013e613c87565b606091505b5091509150613c97828286613ca2565b979650505050505050565b60608315613cb1575081610aab565b825115613cc15782518084602001fd5b8160405162461bcd60e51b81526004016109a191906142aa565b828054828255906000526020600020908101928215613d30579160200282015b82811115613d3057825182546001600160a01b0319166001600160a01b03909116178255602090920191600190910190613cfb565b50612f509291505b80821115612f505760008155600101613d38565b80356001600160a01b0381168114611f5257600080fd5b600080600060608486031215613d7857600080fd5b613d8184613d4c565b95602085013595506040909401359392505050565b602080825282518282018190526000918401906040840190835b81811015613dd75783516001600160a01b0316835260209384019390920191600101613db0565b509095945050505050565b600060208284031215613df457600080fd5b610aab82613d4c565b60008060408385031215613e1057600080fd5b613e1983613d4c565b9150613e2760208401613d4c565b90509250929050565b60008060208385031215613e4357600080fd5b82356001600160401b03811115613e5957600080fd5b8301601f81018513613e6a57600080fd5b80356001600160401b03811115613e8057600080fd5b8560208260051b8401011115613e9557600080fd5b6020919091019590945092505050565b600081518084526020840193506020830160005b82811015613ed7578151865260209586019590910190600101613eb9565b5093949350505050565b604081526000613ef46040830185613ea5565b90508260208301529392505050565b600060208284031215613f1557600080fd5b5035919050565b602081526000610aab6020830184613ea5565b634e487b7160e01b600052602160045260246000fd5b8151151581526020820151608082019060028110613f7357634e487b7160e01b600052602160045260246000fd5b8060208401525060ff604084015116604083015261ffff606084015116606083015292915050565b60008060408385031215613fae57600080fd5b50508035926020909101359150565b6020808252600e908201526d10d85c1a5d185b081c185d5cd95960921b604082015260600190565b6020808252600e908201526d1499595b9d1c985b9d0818d85b1b60921b604082015260600190565b634e487b7160e01b600052601160045260246000fd5b80820281158282048414176110cc576110cc61400d565b60008261405757634e487b7160e01b600052601260045260246000fd5b500490565b6020808252601a908201527f43616c6c6572206973206e6f742074686520476f7665726e6f72000000000000604082015260600190565b634e487b7160e01b600052603260045260246000fd5b634e487b7160e01b600052604160045260246000fd5b808201808211156110cc576110cc61400d565b6001600160a01b03929092168252602082015260400190565b6000602082840312156140fd57600080fd5b5051919050565b818103818111156110cc576110cc61400d565b6001815b6001841115614152578085048111156141365761413661400d565b600184161561414457908102905b60019390931c92800261411b565b935093915050565b600082614169575060016110cc565b81614176575060006110cc565b816001811461418c5760028114614196576141b2565b60019150506110cc565b60ff8411156141a7576141a761400d565b50506001821b6110cc565b5060208310610133831016604e8410600b84101617156141d5575081810a6110cc565b6141e26000198484614117565b80600019048211156141f6576141f661400d565b029392505050565b6000610aab838361415a565b6001600160801b0382811682821603908111156110cc576110cc61400d565b6001600160801b0381811683821601908111156110cc576110cc61400d565b60006020828403121561425a57600080fd5b81518015158114610aab57600080fd5b60005b8381101561428557818101518382015260200161426d565b50506000910152565b600082516142a081846020870161426a565b9190910192915050565b60208152600082518060208401526142c981604085016020870161426a565b601f01601f1916919091016040019291505056fe53bf423e48ed90e97d02ab0ebab13b2a235a6bfbe9c321847d5c175333ac4535a2bd3d3cf188a41358c8b401076eb59066b09dec5775650c0de4c55187d17bd97bea13895fa79d2831e0a9e28edede30099005a50d652d8957cf8a607ee6ca4aa2646970667358221220080c10048cd02c60922c73f1307185a629d08d4703fd0355a893c49ba2a7c13764736f6c634300081c0033",
  "libraries": {},
  "devdoc": {
    "author": "Origin Protocol Inc",
    "kind": "dev",
    "methods": {
      "addWithdrawalQueueLiquidity()": {
        "details": "is called from the Native Staking strategy when validator withdrawals are processed. It also called before any WETH is allocated to a strategy."
      },
      "cacheWETHAssetIndex()": {
        "details": "Caches WETH's index in `allAssets` variable.      Reduces gas usage by redeem by caching that."
      },
      "checkBalance(address)": {
        "params": {
          "_asset": "Address of asset"
        },
        "returns": {
          "_0": "uint256 Balance of asset in decimals of asset"
        }
      },
      "claimWithdrawal(uint256)": {
        "params": {
          "_requestId": "Unique ID for the withdrawal request"
        },
        "returns": {
          "amount": "Amount of WETH transferred to the withdrawer"
        }
      },
      "claimWithdrawals(uint256[])": {
        "params": {
          "_requestIds": "Unique ID of each withdrawal request"
        },
        "returns": {
          "amounts": "Amount of WETH received for each request",
          "totalAmount": "Total amount of WETH transferred to the withdrawer"
        }
      },
      "getAssetConfig(address)": {
        "params": {
          "_asset": "Address of the token asset"
        }
      },
      "isSupportedAsset(address)": {
        "params": {
          "_asset": "address of the asset"
        },
        "returns": {
          "_0": "true if supported"
        }
      },
      "mint(address,uint256,uint256)": {
        "params": {
          "_amount": "Amount of the asset being deposited",
          "_asset": "Address of the asset being deposited",
          "_minimumOusdAmount": "Minimum OTokens to mint"
        }
      },
      "previewYield()": {
        "returns": {
          "yield": "amount of expected yield"
        }
      },
      "priceUnitMint(address)": {
        "params": {
          "asset": "address of the asset"
        },
        "returns": {
          "price": "uint256: unit (USD / ETH) price for 1 unit of the asset, in 18 decimal fixed"
        }
      },
      "priceUnitRedeem(address)": {
        "params": {
          "asset": "Address of the asset"
        },
        "returns": {
          "price": "uint256: unit (USD / ETH) price for 1 unit of the asset, in 18 decimal fixed"
        }
      },
      "redeem(uint256,uint256)": {
        "params": {
          "_amount": "Amount of OTokens to burn",
          "_minimumUnitAmount": "Minimum stablecoin units to receive in return"
        }
      },
      "requestWithdrawal(uint256)": {
        "params": {
          "_amount": "Amount of OETH to burn."
        },
        "returns": {
          "queued": "Cumulative total of all WETH queued including already claimed requests.",
          "requestId": "Unique ID for the withdrawal request"
        }
      },
      "setAdminImpl(address)": {
        "params": {
          "newImpl": "address of the implementation"
        }
      },
      "totalValue()": {
        "returns": {
          "value": "Total value in USD/ETH (1e18)"
        }
      },
      "transferGovernance(address)": {
        "params": {
          "_newGovernor": "Address of the new Governor"
        }
      }
    },
    "title": "OETH VaultCore Contract",
    "version": 1
  },
  "userdoc": {
    "kind": "user",
    "methods": {
      "addWithdrawalQueueLiquidity()": {
        "notice": "Collects harvested rewards from the Dripper as WETH then adds WETH to the withdrawal queue if there is a funding shortfall."
      },
      "allocate()": {
        "notice": "Allocate unallocated funds on Vault to strategies.*"
      },
      "assetDefaultStrategies(address)": {
        "notice": "Mapping of asset address to the Strategy that they should automatically"
      },
      "autoAllocateThreshold()": {
        "notice": "OToken mints over this amount automatically allocate funds. 18 decimals."
      },
      "calculateRedeemOutputs(uint256)": {
        "notice": "Calculate the outputs for a redeem function, i.e. the mix of coins that will be returned"
      },
      "capitalPaused()": {
        "notice": "pause operations that change the OToken supply. eg mint, redeem, allocate, mint/burn for strategy"
      },
      "checkBalance(address)": {
        "notice": "Get the balance of an asset held in Vault and all strategies."
      },
      "claimGovernance()": {
        "notice": "Claim Governance of the contract to a new account (`newGovernor`). Can only be called by the new Governor."
      },
      "claimWithdrawal(uint256)": {
        "notice": "Claim a previously requested withdrawal once it is claimable. This request can be claimed once the withdrawal queue's `claimable` amount is greater than or equal this request's `queued` amount and 10 minutes has passed. If the requests is not claimable, the transaction will revert with `Queue pending liquidity`. If the request is not older than 10 minutes, the transaction will revert with `Claim delay not met`. OETH is converted to WETH at 1:1."
      },
      "claimWithdrawals(uint256[])": {
        "notice": "Claim a previously requested withdrawals once they are claimable. This requests can be claimed once the withdrawal queue's `claimable` amount is greater than or equal each request's `queued` amount and 10 minutes has passed. If one of the requests is not claimable, the whole transaction will revert with `Queue pending liquidity`. If one of the requests is not older than 10 minutes, the whole transaction will revert with `Claim delay not met`."
      },
      "dripDuration()": {
        "notice": "Automatic rebase yield calculations. In seconds. Set to 0 or 1 to disable."
      },
      "dripper()": {
        "notice": "Address of the Dripper contract that streams harvested rewards to the Vault"
      },
      "getAllAssets()": {
        "notice": "Return all vault asset addresses in order"
      },
      "getAllStrategies()": {
        "notice": "Return the array of all strategies"
      },
      "getAssetConfig(address)": {
        "notice": "Gets the vault configuration of a supported asset."
      },
      "getAssetCount()": {
        "notice": "Return the number of assets supported by the Vault."
      },
      "getStrategyCount()": {
        "notice": "Return the number of strategies active on the Vault."
      },
      "governor()": {
        "notice": "Returns the address of the current Governor."
      },
      "isGovernor()": {
        "notice": "Returns true if the caller is the current Governor."
      },
      "isSupportedAsset(address)": {
        "notice": "Returns whether the vault supports the asset"
      },
      "lastRebase()": {
        "notice": "Time in seconds that the vault last rebased yield."
      },
      "maxSupplyDiff()": {
        "notice": "Max difference between total supply and total value of assets. 18 decimals."
      },
      "mint(address,uint256,uint256)": {
        "notice": "Deposit a supported asset and mint OTokens."
      },
      "netOusdMintForStrategyThreshold()": {
        "notice": "How much net total OTokens are allowed to be minted by all strategies"
      },
      "netOusdMintedForStrategy()": {
        "notice": "How much OTokens are currently minted by the strategy"
      },
      "ousdMetaStrategy()": {
        "notice": "Metapool strategy that is allowed to mint/burn OTokens without changing collateral"
      },
      "previewYield()": {
        "notice": "Calculates the amount that would rebase at at next rebase. This is before any fees."
      },
      "priceProvider()": {
        "notice": "Address of the Oracle price provider contract"
      },
      "priceUnitMint(address)": {
        "notice": "Returns the total price in 18 digit units for a given asset.      Never goes above 1, since that is how we price mints."
      },
      "priceUnitRedeem(address)": {
        "notice": "Returns the total price in 18 digit unit for a given asset.      Never goes below 1, since that is how we price redeems"
      },
      "rebase()": {
        "notice": "Calculate the total value of assets held by the Vault and all      strategies and update the supply of OTokens."
      },
      "rebasePaused()": {
        "notice": "pause rebasing if true"
      },
      "rebasePerSecondMax()": {
        "notice": "max rebase percentage per second   Can be used to set maximum yield of the protocol,   spreading out yield over time"
      },
      "rebasePerSecondTarget()": {
        "notice": "target rebase rate limit, based on past rates and funds available."
      },
      "rebaseThreshold()": {
        "notice": "OToken mints over this amount automatically rebase. 18 decimals."
      },
      "redeem(uint256,uint256)": {
        "notice": "Withdraw a supported asset and burn OTokens."
      },
      "redeemFeeBps()": {
        "notice": "Redemption fee in basis points. eg 50 = 0.5%"
      },
      "requestWithdrawal(uint256)": {
        "notice": "Request an asynchronous withdrawal of WETH in exchange for OETH. The OETH is burned on request and the WETH is transferred to the withdrawer on claim. This request can be claimed once the withdrawal queue's `claimable` amount is greater than or equal this request's `queued` amount. There is a minimum of 10 minutes before a request can be claimed. After that, the request just needs enough WETH liquidity in the Vault to satisfy all the outstanding requests to that point in the queue. OETH is converted to WETH at 1:1."
      },
      "setAdminImpl(address)": {
        "notice": "set the implementation for the admin, this needs to be in a base class else we cannot set it"
      },
      "strategistAddr()": {
        "notice": "Address of the Strategist"
      },
      "totalValue()": {
        "notice": "Determine the total value of assets held by the vault and its         strategies."
      },
      "transferGovernance(address)": {
        "notice": "Transfers Governance of the contract to a new account (`newGovernor`). Can only be called by the current Governor. Must be claimed for this to complete"
      },
      "trusteeAddress()": {
        "notice": "Trustee contract that can collect a percentage of yield"
      },
      "trusteeFeeBps()": {
        "notice": "Amount of yield collected in basis points. eg 2000 = 20%"
      },
      "vaultBuffer()": {
        "notice": "Percentage of assets to keep in Vault to handle (most) withdrawals. 100% = 1e18."
      },
      "withdrawalClaimDelay()": {
        "notice": "Sets a minimum delay that is required to elapse between     requesting async withdrawals and claiming the request.     When set to 0 async withdrawals are disabled."
      },
      "withdrawalQueueMetadata()": {
        "notice": "Global metadata for the withdrawal queue including: queued - cumulative total of all withdrawal requests included the ones that have already been claimed claimable - cumulative total of all the requests that can be claimed including the ones already claimed claimed - total of all the requests that have been claimed nextWithdrawalIndex - index of the next withdrawal request starting at 0"
      },
      "withdrawalRequests(uint256)": {
        "notice": "Mapping of withdrawal request indices to the user withdrawal request data"
      }
    },
    "version": 1
  },
  "storageLayout": {
    "storage": [
      {
        "astId": 59237,
        "contract": "contracts/vault/OETHVaultCore.sol:OETHVaultCore",
        "label": "initialized",
        "offset": 0,
        "slot": "0",
        "type": "t_bool"
      },
      {
        "astId": 59240,
        "contract": "contracts/vault/OETHVaultCore.sol:OETHVaultCore",
        "label": "initializing",
        "offset": 1,
        "slot": "0",
        "type": "t_bool"
      },
      {
        "astId": 59280,
        "contract": "contracts/vault/OETHVaultCore.sol:OETHVaultCore",
        "label": "______gap",
        "offset": 0,
        "slot": "1",
        "type": "t_array(t_uint256)50_storage"
      },
      {
        "astId": 66519,
        "contract": "contracts/vault/OETHVaultCore.sol:OETHVaultCore",
        "label": "assets",
        "offset": 0,
        "slot": "51",
        "type": "t_mapping(t_address,t_struct(Asset)66513_storage)"
      },
      {
        "astId": 66523,
        "contract": "contracts/vault/OETHVaultCore.sol:OETHVaultCore",
        "label": "allAssets",
        "offset": 0,
        "slot": "52",
        "type": "t_array(t_address)dyn_storage"
      },
      {
        "astId": 66534,
        "contract": "contracts/vault/OETHVaultCore.sol:OETHVaultCore",
        "label": "strategies",
        "offset": 0,
        "slot": "53",
        "type": "t_mapping(t_address,t_struct(Strategy)66528_storage)"
      },
      {
        "astId": 66538,
        "contract": "contracts/vault/OETHVaultCore.sol:OETHVaultCore",
        "label": "allStrategies",
        "offset": 0,
        "slot": "54",
        "type": "t_array(t_address)dyn_storage"
      },
      {
        "astId": 66541,
        "contract": "contracts/vault/OETHVaultCore.sol:OETHVaultCore",
        "label": "priceProvider",
        "offset": 0,
        "slot": "55",
        "type": "t_address"
      },
      {
        "astId": 66544,
        "contract": "contracts/vault/OETHVaultCore.sol:OETHVaultCore",
        "label": "rebasePaused",
        "offset": 20,
        "slot": "55",
        "type": "t_bool"
      },
      {
        "astId": 66547,
        "contract": "contracts/vault/OETHVaultCore.sol:OETHVaultCore",
        "label": "capitalPaused",
        "offset": 21,
        "slot": "55",
        "type": "t_bool"
      },
      {
        "astId": 66550,
        "contract": "contracts/vault/OETHVaultCore.sol:OETHVaultCore",
        "label": "redeemFeeBps",
        "offset": 0,
        "slot": "56",
        "type": "t_uint256"
      },
      {
        "astId": 66553,
        "contract": "contracts/vault/OETHVaultCore.sol:OETHVaultCore",
        "label": "vaultBuffer",
        "offset": 0,
        "slot": "57",
        "type": "t_uint256"
      },
      {
        "astId": 66556,
        "contract": "contracts/vault/OETHVaultCore.sol:OETHVaultCore",
        "label": "autoAllocateThreshold",
        "offset": 0,
        "slot": "58",
        "type": "t_uint256"
      },
      {
        "astId": 66559,
        "contract": "contracts/vault/OETHVaultCore.sol:OETHVaultCore",
        "label": "rebaseThreshold",
        "offset": 0,
        "slot": "59",
        "type": "t_uint256"
      },
      {
        "astId": 66563,
        "contract": "contracts/vault/OETHVaultCore.sol:OETHVaultCore",
        "label": "oUSD",
        "offset": 0,
        "slot": "60",
        "type": "t_contract(OUSD)56628"
      },
      {
        "astId": 66574,
        "contract": "contracts/vault/OETHVaultCore.sol:OETHVaultCore",
        "label": "_deprecated_rebaseHooksAddr",
        "offset": 0,
        "slot": "61",
        "type": "t_address"
      },
      {
        "astId": 66581,
        "contract": "contracts/vault/OETHVaultCore.sol:OETHVaultCore",
        "label": "_deprecated_uniswapAddr",
        "offset": 0,
        "slot": "62",
        "type": "t_address"
      },
      {
        "astId": 66588,
        "contract": "contracts/vault/OETHVaultCore.sol:OETHVaultCore",
        "label": "strategistAddr",
        "offset": 0,
        "slot": "63",
        "type": "t_address"
      },
      {
        "astId": 66593,
        "contract": "contracts/vault/OETHVaultCore.sol:OETHVaultCore",
        "label": "assetDefaultStrategies",
        "offset": 0,
        "slot": "64",
        "type": "t_mapping(t_address,t_address)"
      },
      {
        "astId": 66596,
        "contract": "contracts/vault/OETHVaultCore.sol:OETHVaultCore",
        "label": "maxSupplyDiff",
        "offset": 0,
        "slot": "65",
        "type": "t_uint256"
      },
      {
        "astId": 66599,
        "contract": "contracts/vault/OETHVaultCore.sol:OETHVaultCore",
        "label": "trusteeAddress",
        "offset": 0,
        "slot": "66",
        "type": "t_address"
      },
      {
        "astId": 66602,
        "contract": "contracts/vault/OETHVaultCore.sol:OETHVaultCore",
        "label": "trusteeFeeBps",
        "offset": 0,
        "slot": "67",
        "type": "t_uint256"
      },
      {
        "astId": 66606,
        "contract": "contracts/vault/OETHVaultCore.sol:OETHVaultCore",
        "label": "_deprecated_swapTokens",
        "offset": 0,
        "slot": "68",
        "type": "t_array(t_address)dyn_storage"
      },
      {
        "astId": 66612,
        "contract": "contracts/vault/OETHVaultCore.sol:OETHVaultCore",
        "label": "ousdMetaStrategy",
        "offset": 0,
        "slot": "69",
        "type": "t_address"
      },
      {
        "astId": 66615,
        "contract": "contracts/vault/OETHVaultCore.sol:OETHVaultCore",
        "label": "netOusdMintedForStrategy",
        "offset": 0,
        "slot": "70",
        "type": "t_int256"
      },
      {
        "astId": 66618,
        "contract": "contracts/vault/OETHVaultCore.sol:OETHVaultCore",
        "label": "netOusdMintForStrategyThreshold",
        "offset": 0,
        "slot": "71",
        "type": "t_uint256"
      },
      {
        "astId": 66640,
        "contract": "contracts/vault/OETHVaultCore.sol:OETHVaultCore",
        "label": "swapConfig",
        "offset": 0,
        "slot": "72",
        "type": "t_struct(SwapConfig)66630_storage"
      },
      {
        "astId": 66644,
        "contract": "contracts/vault/OETHVaultCore.sol:OETHVaultCore",
        "label": "isMintWhitelistedStrategy",
        "offset": 0,
        "slot": "73",
        "type": "t_mapping(t_address,t_bool)"
      },
      {
        "astId": 66647,
        "contract": "contracts/vault/OETHVaultCore.sol:OETHVaultCore",
        "label": "dripper",
        "offset": 0,
        "slot": "74",
        "type": "t_address"
      },
      {
        "astId": 66661,
        "contract": "contracts/vault/OETHVaultCore.sol:OETHVaultCore",
        "label": "withdrawalQueueMetadata",
        "offset": 0,
        "slot": "75",
        "type": "t_struct(WithdrawalQueueMetadata)66657_storage"
      },
      {
        "astId": 66678,
        "contract": "contracts/vault/OETHVaultCore.sol:OETHVaultCore",
        "label": "withdrawalRequests",
        "offset": 0,
        "slot": "77",
        "type": "t_mapping(t_uint256,t_struct(WithdrawalRequest)66672_storage)"
      },
      {
        "astId": 66681,
        "contract": "contracts/vault/OETHVaultCore.sol:OETHVaultCore",
        "label": "withdrawalClaimDelay",
        "offset": 0,
        "slot": "78",
        "type": "t_uint256"
      },
      {
        "astId": 66684,
        "contract": "contracts/vault/OETHVaultCore.sol:OETHVaultCore",
        "label": "lastRebase",
        "offset": 0,
        "slot": "79",
        "type": "t_uint64"
      },
      {
        "astId": 66687,
        "contract": "contracts/vault/OETHVaultCore.sol:OETHVaultCore",
        "label": "dripDuration",
        "offset": 8,
        "slot": "79",
        "type": "t_uint64"
      },
      {
        "astId": 66690,
        "contract": "contracts/vault/OETHVaultCore.sol:OETHVaultCore",
        "label": "rebasePerSecondMax",
        "offset": 16,
        "slot": "79",
        "type": "t_uint64"
      },
      {
        "astId": 66693,
        "contract": "contracts/vault/OETHVaultCore.sol:OETHVaultCore",
        "label": "rebasePerSecondTarget",
        "offset": 24,
        "slot": "79",
        "type": "t_uint64"
      },
      {
        "astId": 66708,
        "contract": "contracts/vault/OETHVaultCore.sol:OETHVaultCore",
        "label": "__gap",
        "offset": 0,
        "slot": "80",
        "type": "t_array(t_uint256)43_storage"
      },
      {
        "astId": 61092,
        "contract": "contracts/vault/OETHVaultCore.sol:OETHVaultCore",
        "label": "wethAssetIndex",
        "offset": 0,
        "slot": "123",
        "type": "t_uint256"
      },
      {
        "astId": 61096,
        "contract": "contracts/vault/OETHVaultCore.sol:OETHVaultCore",
        "label": "__gap",
        "offset": 0,
        "slot": "124",
        "type": "t_array(t_uint256)50_storage"
      }
    ],
    "types": {
      "t_address": {
        "encoding": "inplace",
        "label": "address",
        "numberOfBytes": "20"
      },
      "t_array(t_address)dyn_storage": {
        "base": "t_address",
        "encoding": "dynamic_array",
        "label": "address[]",
        "numberOfBytes": "32"
      },
      "t_array(t_uint256)43_storage": {
        "base": "t_uint256",
        "encoding": "inplace",
        "label": "uint256[43]",
        "numberOfBytes": "1376"
      },
      "t_array(t_uint256)50_storage": {
        "base": "t_uint256",
        "encoding": "inplace",
        "label": "uint256[50]",
        "numberOfBytes": "1600"
      },
      "t_bool": {
        "encoding": "inplace",
        "label": "bool",
        "numberOfBytes": "1"
      },
      "t_contract(OUSD)56628": {
        "encoding": "inplace",
        "label": "contract OUSD",
        "numberOfBytes": "20"
      },
      "t_enum(UnitConversion)66503": {
        "encoding": "inplace",
        "label": "enum VaultStorage.UnitConversion",
        "numberOfBytes": "1"
      },
      "t_int256": {
        "encoding": "inplace",
        "label": "int256",
        "numberOfBytes": "32"
      },
      "t_mapping(t_address,t_address)": {
        "encoding": "mapping",
        "key": "t_address",
        "label": "mapping(address => address)",
        "numberOfBytes": "32",
        "value": "t_address"
      },
      "t_mapping(t_address,t_bool)": {
        "encoding": "mapping",
        "key": "t_address",
        "label": "mapping(address => bool)",
        "numberOfBytes": "32",
        "value": "t_bool"
      },
      "t_mapping(t_address,t_struct(Asset)66513_storage)": {
        "encoding": "mapping",
        "key": "t_address",
        "label": "mapping(address => struct VaultStorage.Asset)",
        "numberOfBytes": "32",
        "value": "t_struct(Asset)66513_storage"
      },
      "t_mapping(t_address,t_struct(Strategy)66528_storage)": {
        "encoding": "mapping",
        "key": "t_address",
        "label": "mapping(address => struct VaultStorage.Strategy)",
        "numberOfBytes": "32",
        "value": "t_struct(Strategy)66528_storage"
      },
      "t_mapping(t_uint256,t_struct(WithdrawalRequest)66672_storage)": {
        "encoding": "mapping",
        "key": "t_uint256",
        "label": "mapping(uint256 => struct VaultStorage.WithdrawalRequest)",
        "numberOfBytes": "32",
        "value": "t_struct(WithdrawalRequest)66672_storage"
      },
      "t_struct(Asset)66513_storage": {
        "encoding": "inplace",
        "label": "struct VaultStorage.Asset",
        "members": [
          {
            "astId": 66505,
            "contract": "contracts/vault/OETHVaultCore.sol:OETHVaultCore",
            "label": "isSupported",
            "offset": 0,
            "slot": "0",
            "type": "t_bool"
          },
          {
            "astId": 66508,
            "contract": "contracts/vault/OETHVaultCore.sol:OETHVaultCore",
            "label": "unitConversion",
            "offset": 1,
            "slot": "0",
            "type": "t_enum(UnitConversion)66503"
          },
          {
            "astId": 66510,
            "contract": "contracts/vault/OETHVaultCore.sol:OETHVaultCore",
            "label": "decimals",
            "offset": 2,
            "slot": "0",
            "type": "t_uint8"
          },
          {
            "astId": 66512,
            "contract": "contracts/vault/OETHVaultCore.sol:OETHVaultCore",
            "label": "allowedOracleSlippageBps",
            "offset": 3,
            "slot": "0",
            "type": "t_uint16"
          }
        ],
        "numberOfBytes": "32"
      },
      "t_struct(Strategy)66528_storage": {
        "encoding": "inplace",
        "label": "struct VaultStorage.Strategy",
        "members": [
          {
            "astId": 66525,
            "contract": "contracts/vault/OETHVaultCore.sol:OETHVaultCore",
            "label": "isSupported",
            "offset": 0,
            "slot": "0",
            "type": "t_bool"
          },
          {
            "astId": 66527,
            "contract": "contracts/vault/OETHVaultCore.sol:OETHVaultCore",
            "label": "_deprecated",
            "offset": 0,
            "slot": "1",
            "type": "t_uint256"
          }
        ],
        "numberOfBytes": "64"
      },
      "t_struct(SwapConfig)66630_storage": {
        "encoding": "inplace",
        "label": "struct VaultStorage.SwapConfig",
        "members": [
          {
            "astId": 66627,
            "contract": "contracts/vault/OETHVaultCore.sol:OETHVaultCore",
            "label": "swapper",
            "offset": 0,
            "slot": "0",
            "type": "t_address"
          },
          {
            "astId": 66629,
            "contract": "contracts/vault/OETHVaultCore.sol:OETHVaultCore",
            "label": "allowedUndervalueBps",
            "offset": 20,
            "slot": "0",
            "type": "t_uint16"
          }
        ],
        "numberOfBytes": "32"
      },
      "t_struct(WithdrawalQueueMetadata)66657_storage": {
        "encoding": "inplace",
        "label": "struct VaultStorage.WithdrawalQueueMetadata",
        "members": [
          {
            "astId": 66650,
            "contract": "contracts/vault/OETHVaultCore.sol:OETHVaultCore",
            "label": "queued",
            "offset": 0,
            "slot": "0",
            "type": "t_uint128"
          },
          {
            "astId": 66652,
            "contract": "contracts/vault/OETHVaultCore.sol:OETHVaultCore",
            "label": "claimable",
            "offset": 16,
            "slot": "0",
            "type": "t_uint128"
          },
          {
            "astId": 66654,
            "contract": "contracts/vault/OETHVaultCore.sol:OETHVaultCore",
            "label": "claimed",
            "offset": 0,
            "slot": "1",
            "type": "t_uint128"
          },
          {
            "astId": 66656,
            "contract": "contracts/vault/OETHVaultCore.sol:OETHVaultCore",
            "label": "nextWithdrawalIndex",
            "offset": 16,
            "slot": "1",
            "type": "t_uint128"
          }
        ],
        "numberOfBytes": "64"
      },
      "t_struct(WithdrawalRequest)66672_storage": {
        "encoding": "inplace",
        "label": "struct VaultStorage.WithdrawalRequest",
        "members": [
          {
            "astId": 66663,
            "contract": "contracts/vault/OETHVaultCore.sol:OETHVaultCore",
            "label": "withdrawer",
            "offset": 0,
            "slot": "0",
            "type": "t_address"
          },
          {
            "astId": 66665,
            "contract": "contracts/vault/OETHVaultCore.sol:OETHVaultCore",
            "label": "claimed",
            "offset": 20,
            "slot": "0",
            "type": "t_bool"
          },
          {
            "astId": 66667,
            "contract": "contracts/vault/OETHVaultCore.sol:OETHVaultCore",
            "label": "timestamp",
            "offset": 21,
            "slot": "0",
            "type": "t_uint40"
          },
          {
            "astId": 66669,
            "contract": "contracts/vault/OETHVaultCore.sol:OETHVaultCore",
            "label": "amount",
            "offset": 0,
            "slot": "1",
            "type": "t_uint128"
          },
          {
            "astId": 66671,
            "contract": "contracts/vault/OETHVaultCore.sol:OETHVaultCore",
            "label": "queued",
            "offset": 16,
            "slot": "1",
            "type": "t_uint128"
          }
        ],
        "numberOfBytes": "64"
      },
      "t_uint128": {
        "encoding": "inplace",
        "label": "uint128",
        "numberOfBytes": "16"
      },
      "t_uint16": {
        "encoding": "inplace",
        "label": "uint16",
        "numberOfBytes": "2"
      },
      "t_uint256": {
        "encoding": "inplace",
        "label": "uint256",
        "numberOfBytes": "32"
      },
      "t_uint40": {
        "encoding": "inplace",
        "label": "uint40",
        "numberOfBytes": "5"
      },
      "t_uint64": {
        "encoding": "inplace",
        "label": "uint64",
        "numberOfBytes": "8"
      },
      "t_uint8": {
        "encoding": "inplace",
        "label": "uint8",
        "numberOfBytes": "1"
      }
    }
  }
}