{
  "address": "0xaFEF023Dec90Bc87Ae978C946BAe7124143e7b84",
  "abi": [
    {
      "inputs": [
        {
          "internalType": "address",
          "name": "_weth",
          "type": "address"
        }
      ],
      "stateMutability": "nonpayable",
      "type": "constructor"
    },
    {
      "anonymous": false,
      "inputs": [
        {
          "indexed": false,
          "internalType": "uint256",
          "name": "_threshold",
          "type": "uint256"
        }
      ],
      "name": "AllocateThresholdUpdated",
      "type": "event"
    },
    {
      "anonymous": false,
      "inputs": [
        {
          "indexed": false,
          "internalType": "address",
          "name": "_asset",
          "type": "address"
        },
        {
          "indexed": false,
          "internalType": "address",
          "name": "_strategy",
          "type": "address"
        },
        {
          "indexed": false,
          "internalType": "uint256",
          "name": "_amount",
          "type": "uint256"
        }
      ],
      "name": "AssetAllocated",
      "type": "event"
    },
    {
      "anonymous": false,
      "inputs": [
        {
          "indexed": false,
          "internalType": "address",
          "name": "_asset",
          "type": "address"
        },
        {
          "indexed": false,
          "internalType": "address",
          "name": "_strategy",
          "type": "address"
        }
      ],
      "name": "AssetDefaultStrategyUpdated",
      "type": "event"
    },
    {
      "anonymous": false,
      "inputs": [
        {
          "indexed": false,
          "internalType": "address",
          "name": "_asset",
          "type": "address"
        }
      ],
      "name": "AssetRemoved",
      "type": "event"
    },
    {
      "anonymous": false,
      "inputs": [
        {
          "indexed": false,
          "internalType": "address",
          "name": "_asset",
          "type": "address"
        }
      ],
      "name": "AssetSupported",
      "type": "event"
    },
    {
      "anonymous": false,
      "inputs": [],
      "name": "CapitalPaused",
      "type": "event"
    },
    {
      "anonymous": false,
      "inputs": [],
      "name": "CapitalUnpaused",
      "type": "event"
    },
    {
      "anonymous": false,
      "inputs": [
        {
          "indexed": true,
          "internalType": "address",
          "name": "_dripper",
          "type": "address"
        }
      ],
      "name": "DripperChanged",
      "type": "event"
    },
    {
      "anonymous": false,
      "inputs": [
        {
          "indexed": true,
          "internalType": "address",
          "name": "previousGovernor",
          "type": "address"
        },
        {
          "indexed": true,
          "internalType": "address",
          "name": "newGovernor",
          "type": "address"
        }
      ],
      "name": "GovernorshipTransferred",
      "type": "event"
    },
    {
      "anonymous": false,
      "inputs": [
        {
          "indexed": false,
          "internalType": "uint256",
          "name": "maxSupplyDiff",
          "type": "uint256"
        }
      ],
      "name": "MaxSupplyDiffChanged",
      "type": "event"
    },
    {
      "anonymous": false,
      "inputs": [
        {
          "indexed": false,
          "internalType": "address",
          "name": "_addr",
          "type": "address"
        },
        {
          "indexed": false,
          "internalType": "uint256",
          "name": "_value",
          "type": "uint256"
        }
      ],
      "name": "Mint",
      "type": "event"
    },
    {
      "anonymous": false,
      "inputs": [
        {
          "indexed": false,
          "internalType": "uint256",
          "name": "_threshold",
          "type": "uint256"
        }
      ],
      "name": "NetOusdMintForStrategyThresholdChanged",
      "type": "event"
    },
    {
      "anonymous": false,
      "inputs": [
        {
          "indexed": false,
          "internalType": "address",
          "name": "_ousdMetaStrategy",
          "type": "address"
        }
      ],
      "name": "OusdMetaStrategyUpdated",
      "type": "event"
    },
    {
      "anonymous": false,
      "inputs": [
        {
          "indexed": true,
          "internalType": "address",
          "name": "previousGovernor",
          "type": "address"
        },
        {
          "indexed": true,
          "internalType": "address",
          "name": "newGovernor",
          "type": "address"
        }
      ],
      "name": "PendingGovernorshipTransfer",
      "type": "event"
    },
    {
      "anonymous": false,
      "inputs": [
        {
          "indexed": false,
          "internalType": "address",
          "name": "_priceProvider",
          "type": "address"
        }
      ],
      "name": "PriceProviderUpdated",
      "type": "event"
    },
    {
      "anonymous": false,
      "inputs": [],
      "name": "RebasePaused",
      "type": "event"
    },
    {
      "anonymous": false,
      "inputs": [
        {
          "indexed": false,
          "internalType": "uint256",
          "name": "_threshold",
          "type": "uint256"
        }
      ],
      "name": "RebaseThresholdUpdated",
      "type": "event"
    },
    {
      "anonymous": false,
      "inputs": [],
      "name": "RebaseUnpaused",
      "type": "event"
    },
    {
      "anonymous": false,
      "inputs": [
        {
          "indexed": false,
          "internalType": "address",
          "name": "_addr",
          "type": "address"
        },
        {
          "indexed": false,
          "internalType": "uint256",
          "name": "_value",
          "type": "uint256"
        }
      ],
      "name": "Redeem",
      "type": "event"
    },
    {
      "anonymous": false,
      "inputs": [
        {
          "indexed": false,
          "internalType": "uint256",
          "name": "_redeemFeeBps",
          "type": "uint256"
        }
      ],
      "name": "RedeemFeeUpdated",
      "type": "event"
    },
    {
      "anonymous": false,
      "inputs": [
        {
          "indexed": false,
          "internalType": "address",
          "name": "_address",
          "type": "address"
        }
      ],
      "name": "StrategistUpdated",
      "type": "event"
    },
    {
      "anonymous": false,
      "inputs": [
        {
          "indexed": true,
          "internalType": "address",
          "name": "strategy",
          "type": "address"
        }
      ],
      "name": "StrategyAddedToMintWhitelist",
      "type": "event"
    },
    {
      "anonymous": false,
      "inputs": [
        {
          "indexed": false,
          "internalType": "address",
          "name": "_addr",
          "type": "address"
        }
      ],
      "name": "StrategyApproved",
      "type": "event"
    },
    {
      "anonymous": false,
      "inputs": [
        {
          "indexed": false,
          "internalType": "address",
          "name": "_addr",
          "type": "address"
        }
      ],
      "name": "StrategyRemoved",
      "type": "event"
    },
    {
      "anonymous": false,
      "inputs": [
        {
          "indexed": true,
          "internalType": "address",
          "name": "strategy",
          "type": "address"
        }
      ],
      "name": "StrategyRemovedFromMintWhitelist",
      "type": "event"
    },
    {
      "anonymous": false,
      "inputs": [
        {
          "indexed": false,
          "internalType": "uint256",
          "name": "_basis",
          "type": "uint256"
        }
      ],
      "name": "SwapAllowedUndervalueChanged",
      "type": "event"
    },
    {
      "anonymous": false,
      "inputs": [
        {
          "indexed": false,
          "internalType": "address",
          "name": "_asset",
          "type": "address"
        },
        {
          "indexed": false,
          "internalType": "uint256",
          "name": "_basis",
          "type": "uint256"
        }
      ],
      "name": "SwapSlippageChanged",
      "type": "event"
    },
    {
      "anonymous": false,
      "inputs": [
        {
          "indexed": true,
          "internalType": "address",
          "name": "_fromAsset",
          "type": "address"
        },
        {
          "indexed": true,
          "internalType": "address",
          "name": "_toAsset",
          "type": "address"
        },
        {
          "indexed": false,
          "internalType": "uint256",
          "name": "_fromAssetAmount",
          "type": "uint256"
        },
        {
          "indexed": false,
          "internalType": "uint256",
          "name": "_toAssetAmount",
          "type": "uint256"
        }
      ],
      "name": "Swapped",
      "type": "event"
    },
    {
      "anonymous": false,
      "inputs": [
        {
          "indexed": false,
          "internalType": "address",
          "name": "_address",
          "type": "address"
        }
      ],
      "name": "SwapperChanged",
      "type": "event"
    },
    {
      "anonymous": false,
      "inputs": [
        {
          "indexed": false,
          "internalType": "address",
          "name": "_address",
          "type": "address"
        }
      ],
      "name": "TrusteeAddressChanged",
      "type": "event"
    },
    {
      "anonymous": false,
      "inputs": [
        {
          "indexed": false,
          "internalType": "uint256",
          "name": "_basis",
          "type": "uint256"
        }
      ],
      "name": "TrusteeFeeBpsChanged",
      "type": "event"
    },
    {
      "anonymous": false,
      "inputs": [
        {
          "indexed": false,
          "internalType": "uint256",
          "name": "_vaultBuffer",
          "type": "uint256"
        }
      ],
      "name": "VaultBufferUpdated",
      "type": "event"
    },
    {
      "anonymous": false,
      "inputs": [
        {
          "indexed": false,
          "internalType": "uint256",
          "name": "_newDelay",
          "type": "uint256"
        }
      ],
      "name": "WithdrawalClaimDelayUpdated",
      "type": "event"
    },
    {
      "anonymous": false,
      "inputs": [
        {
          "indexed": false,
          "internalType": "uint256",
          "name": "_claimable",
          "type": "uint256"
        },
        {
          "indexed": false,
          "internalType": "uint256",
          "name": "_newClaimable",
          "type": "uint256"
        }
      ],
      "name": "WithdrawalClaimable",
      "type": "event"
    },
    {
      "anonymous": false,
      "inputs": [
        {
          "indexed": true,
          "internalType": "address",
          "name": "_withdrawer",
          "type": "address"
        },
        {
          "indexed": true,
          "internalType": "uint256",
          "name": "_requestId",
          "type": "uint256"
        },
        {
          "indexed": false,
          "internalType": "uint256",
          "name": "_amount",
          "type": "uint256"
        }
      ],
      "name": "WithdrawalClaimed",
      "type": "event"
    },
    {
      "anonymous": false,
      "inputs": [
        {
          "indexed": true,
          "internalType": "address",
          "name": "_withdrawer",
          "type": "address"
        },
        {
          "indexed": true,
          "internalType": "uint256",
          "name": "_requestId",
          "type": "uint256"
        },
        {
          "indexed": false,
          "internalType": "uint256",
          "name": "_amount",
          "type": "uint256"
        },
        {
          "indexed": false,
          "internalType": "uint256",
          "name": "_queued",
          "type": "uint256"
        }
      ],
      "name": "WithdrawalRequested",
      "type": "event"
    },
    {
      "anonymous": false,
      "inputs": [
        {
          "indexed": false,
          "internalType": "address",
          "name": "_to",
          "type": "address"
        },
        {
          "indexed": false,
          "internalType": "uint256",
          "name": "_yield",
          "type": "uint256"
        },
        {
          "indexed": false,
          "internalType": "uint256",
          "name": "_fee",
          "type": "uint256"
        }
      ],
      "name": "YieldDistribution",
      "type": "event"
    },
    {
      "inputs": [],
      "name": "allowedSwapUndervalue",
      "outputs": [
        {
          "internalType": "uint256",
          "name": "value",
          "type": "uint256"
        }
      ],
      "stateMutability": "view",
      "type": "function"
    },
    {
      "inputs": [
        {
          "internalType": "address",
          "name": "_addr",
          "type": "address"
        }
      ],
      "name": "approveStrategy",
      "outputs": [],
      "stateMutability": "nonpayable",
      "type": "function"
    },
    {
      "inputs": [
        {
          "internalType": "address",
          "name": "",
          "type": "address"
        }
      ],
      "name": "assetDefaultStrategies",
      "outputs": [
        {
          "internalType": "address",
          "name": "",
          "type": "address"
        }
      ],
      "stateMutability": "view",
      "type": "function"
    },
    {
      "inputs": [],
      "name": "autoAllocateThreshold",
      "outputs": [
        {
          "internalType": "uint256",
          "name": "",
          "type": "uint256"
        }
      ],
      "stateMutability": "view",
      "type": "function"
    },
    {
      "inputs": [
        {
          "internalType": "address",
          "name": "_asset",
          "type": "address"
        }
      ],
      "name": "cacheDecimals",
      "outputs": [],
      "stateMutability": "nonpayable",
      "type": "function"
    },
    {
      "inputs": [],
      "name": "capitalPaused",
      "outputs": [
        {
          "internalType": "bool",
          "name": "",
          "type": "bool"
        }
      ],
      "stateMutability": "view",
      "type": "function"
    },
    {
      "inputs": [],
      "name": "claimGovernance",
      "outputs": [],
      "stateMutability": "nonpayable",
      "type": "function"
    },
    {
      "inputs": [
        {
          "internalType": "address",
          "name": "_strategyToAddress",
          "type": "address"
        },
        {
          "internalType": "address[]",
          "name": "_assets",
          "type": "address[]"
        },
        {
          "internalType": "uint256[]",
          "name": "_amounts",
          "type": "uint256[]"
        }
      ],
      "name": "depositToStrategy",
      "outputs": [],
      "stateMutability": "nonpayable",
      "type": "function"
    },
    {
      "inputs": [],
      "name": "dripper",
      "outputs": [
        {
          "internalType": "address",
          "name": "",
          "type": "address"
        }
      ],
      "stateMutability": "view",
      "type": "function"
    },
    {
      "inputs": [],
      "name": "governor",
      "outputs": [
        {
          "internalType": "address",
          "name": "",
          "type": "address"
        }
      ],
      "stateMutability": "view",
      "type": "function"
    },
    {
      "inputs": [],
      "name": "isGovernor",
      "outputs": [
        {
          "internalType": "bool",
          "name": "",
          "type": "bool"
        }
      ],
      "stateMutability": "view",
      "type": "function"
    },
    {
      "inputs": [
        {
          "internalType": "address",
          "name": "",
          "type": "address"
        }
      ],
      "name": "isMintWhitelistedStrategy",
      "outputs": [
        {
          "internalType": "bool",
          "name": "",
          "type": "bool"
        }
      ],
      "stateMutability": "view",
      "type": "function"
    },
    {
      "inputs": [],
      "name": "maxSupplyDiff",
      "outputs": [
        {
          "internalType": "uint256",
          "name": "",
          "type": "uint256"
        }
      ],
      "stateMutability": "view",
      "type": "function"
    },
    {
      "inputs": [],
      "name": "netOusdMintForStrategyThreshold",
      "outputs": [
        {
          "internalType": "uint256",
          "name": "",
          "type": "uint256"
        }
      ],
      "stateMutability": "view",
      "type": "function"
    },
    {
      "inputs": [],
      "name": "netOusdMintedForStrategy",
      "outputs": [
        {
          "internalType": "int256",
          "name": "",
          "type": "int256"
        }
      ],
      "stateMutability": "view",
      "type": "function"
    },
    {
      "inputs": [],
      "name": "ousdMetaStrategy",
      "outputs": [
        {
          "internalType": "address",
          "name": "",
          "type": "address"
        }
      ],
      "stateMutability": "view",
      "type": "function"
    },
    {
      "inputs": [],
      "name": "pauseCapital",
      "outputs": [],
      "stateMutability": "nonpayable",
      "type": "function"
    },
    {
      "inputs": [],
      "name": "pauseRebase",
      "outputs": [],
      "stateMutability": "nonpayable",
      "type": "function"
    },
    {
      "inputs": [],
      "name": "priceProvider",
      "outputs": [
        {
          "internalType": "address",
          "name": "",
          "type": "address"
        }
      ],
      "stateMutability": "view",
      "type": "function"
    },
    {
      "inputs": [],
      "name": "rebasePaused",
      "outputs": [
        {
          "internalType": "bool",
          "name": "",
          "type": "bool"
        }
      ],
      "stateMutability": "view",
      "type": "function"
    },
    {
      "inputs": [],
      "name": "rebaseThreshold",
      "outputs": [
        {
          "internalType": "uint256",
          "name": "",
          "type": "uint256"
        }
      ],
      "stateMutability": "view",
      "type": "function"
    },
    {
      "inputs": [],
      "name": "redeemFeeBps",
      "outputs": [
        {
          "internalType": "uint256",
          "name": "",
          "type": "uint256"
        }
      ],
      "stateMutability": "view",
      "type": "function"
    },
    {
      "inputs": [
        {
          "internalType": "address",
          "name": "_asset",
          "type": "address"
        }
      ],
      "name": "removeAsset",
      "outputs": [],
      "stateMutability": "nonpayable",
      "type": "function"
    },
    {
      "inputs": [
        {
          "internalType": "address",
          "name": "_addr",
          "type": "address"
        }
      ],
      "name": "removeStrategy",
      "outputs": [],
      "stateMutability": "nonpayable",
      "type": "function"
    },
    {
      "inputs": [
        {
          "internalType": "address",
          "name": "newImpl",
          "type": "address"
        }
      ],
      "name": "setAdminImpl",
      "outputs": [],
      "stateMutability": "nonpayable",
      "type": "function"
    },
    {
      "inputs": [
        {
          "internalType": "address",
          "name": "_asset",
          "type": "address"
        },
        {
          "internalType": "address",
          "name": "_strategy",
          "type": "address"
        }
      ],
      "name": "setAssetDefaultStrategy",
      "outputs": [],
      "stateMutability": "nonpayable",
      "type": "function"
    },
    {
      "inputs": [
        {
          "internalType": "uint256",
          "name": "_threshold",
          "type": "uint256"
        }
      ],
      "name": "setAutoAllocateThreshold",
      "outputs": [],
      "stateMutability": "nonpayable",
      "type": "function"
    },
    {
      "inputs": [
        {
          "internalType": "address",
          "name": "_dripper",
          "type": "address"
        }
      ],
      "name": "setDripper",
      "outputs": [],
      "stateMutability": "nonpayable",
      "type": "function"
    },
    {
      "inputs": [
        {
          "internalType": "uint256",
          "name": "_maxSupplyDiff",
          "type": "uint256"
        }
      ],
      "name": "setMaxSupplyDiff",
      "outputs": [],
      "stateMutability": "nonpayable",
      "type": "function"
    },
    {
      "inputs": [
        {
          "internalType": "uint256",
          "name": "_threshold",
          "type": "uint256"
        }
      ],
      "name": "setNetOusdMintForStrategyThreshold",
      "outputs": [],
      "stateMutability": "nonpayable",
      "type": "function"
    },
    {
      "inputs": [
        {
          "internalType": "address",
          "name": "_asset",
          "type": "address"
        },
        {
          "internalType": "uint16",
          "name": "_allowedOracleSlippageBps",
          "type": "uint16"
        }
      ],
      "name": "setOracleSlippage",
      "outputs": [],
      "stateMutability": "nonpayable",
      "type": "function"
    },
    {
      "inputs": [
        {
          "internalType": "address",
          "name": "_ousdMetaStrategy",
          "type": "address"
        }
      ],
      "name": "setOusdMetaStrategy",
      "outputs": [],
      "stateMutability": "nonpayable",
      "type": "function"
    },
    {
      "inputs": [
        {
          "internalType": "address",
          "name": "_priceProvider",
          "type": "address"
        }
      ],
      "name": "setPriceProvider",
      "outputs": [],
      "stateMutability": "nonpayable",
      "type": "function"
    },
    {
      "inputs": [
        {
          "internalType": "uint256",
          "name": "_threshold",
          "type": "uint256"
        }
      ],
      "name": "setRebaseThreshold",
      "outputs": [],
      "stateMutability": "nonpayable",
      "type": "function"
    },
    {
      "inputs": [
        {
          "internalType": "uint256",
          "name": "_redeemFeeBps",
          "type": "uint256"
        }
      ],
      "name": "setRedeemFeeBps",
      "outputs": [],
      "stateMutability": "nonpayable",
      "type": "function"
    },
    {
      "inputs": [
        {
          "internalType": "address",
          "name": "_address",
          "type": "address"
        }
      ],
      "name": "setStrategistAddr",
      "outputs": [],
      "stateMutability": "nonpayable",
      "type": "function"
    },
    {
      "inputs": [
        {
          "internalType": "uint16",
          "name": "_basis",
          "type": "uint16"
        }
      ],
      "name": "setSwapAllowedUndervalue",
      "outputs": [],
      "stateMutability": "nonpayable",
      "type": "function"
    },
    {
      "inputs": [
        {
          "internalType": "address",
          "name": "_swapperAddr",
          "type": "address"
        }
      ],
      "name": "setSwapper",
      "outputs": [],
      "stateMutability": "nonpayable",
      "type": "function"
    },
    {
      "inputs": [
        {
          "internalType": "address",
          "name": "_address",
          "type": "address"
        }
      ],
      "name": "setTrusteeAddress",
      "outputs": [],
      "stateMutability": "nonpayable",
      "type": "function"
    },
    {
      "inputs": [
        {
          "internalType": "uint256",
          "name": "_basis",
          "type": "uint256"
        }
      ],
      "name": "setTrusteeFeeBps",
      "outputs": [],
      "stateMutability": "nonpayable",
      "type": "function"
    },
    {
      "inputs": [
        {
          "internalType": "uint256",
          "name": "_vaultBuffer",
          "type": "uint256"
        }
      ],
      "name": "setVaultBuffer",
      "outputs": [],
      "stateMutability": "nonpayable",
      "type": "function"
    },
    {
      "inputs": [
        {
          "internalType": "uint256",
          "name": "_delay",
          "type": "uint256"
        }
      ],
      "name": "setWithdrawalClaimDelay",
      "outputs": [],
      "stateMutability": "nonpayable",
      "type": "function"
    },
    {
      "inputs": [],
      "name": "strategistAddr",
      "outputs": [
        {
          "internalType": "address",
          "name": "",
          "type": "address"
        }
      ],
      "stateMutability": "view",
      "type": "function"
    },
    {
      "inputs": [
        {
          "internalType": "address",
          "name": "_asset",
          "type": "address"
        },
        {
          "internalType": "uint8",
          "name": "_unitConversion",
          "type": "uint8"
        }
      ],
      "name": "supportAsset",
      "outputs": [],
      "stateMutability": "nonpayable",
      "type": "function"
    },
    {
      "inputs": [
        {
          "internalType": "address",
          "name": "_fromAsset",
          "type": "address"
        },
        {
          "internalType": "address",
          "name": "_toAsset",
          "type": "address"
        },
        {
          "internalType": "uint256",
          "name": "_fromAssetAmount",
          "type": "uint256"
        },
        {
          "internalType": "uint256",
          "name": "_minToAssetAmount",
          "type": "uint256"
        },
        {
          "internalType": "bytes",
          "name": "_data",
          "type": "bytes"
        }
      ],
      "name": "swapCollateral",
      "outputs": [
        {
          "internalType": "uint256",
          "name": "toAssetAmount",
          "type": "uint256"
        }
      ],
      "stateMutability": "nonpayable",
      "type": "function"
    },
    {
      "inputs": [],
      "name": "swapper",
      "outputs": [
        {
          "internalType": "address",
          "name": "swapper_",
          "type": "address"
        }
      ],
      "stateMutability": "view",
      "type": "function"
    },
    {
      "inputs": [
        {
          "internalType": "address",
          "name": "_newGovernor",
          "type": "address"
        }
      ],
      "name": "transferGovernance",
      "outputs": [],
      "stateMutability": "nonpayable",
      "type": "function"
    },
    {
      "inputs": [
        {
          "internalType": "address",
          "name": "_asset",
          "type": "address"
        },
        {
          "internalType": "uint256",
          "name": "_amount",
          "type": "uint256"
        }
      ],
      "name": "transferToken",
      "outputs": [],
      "stateMutability": "nonpayable",
      "type": "function"
    },
    {
      "inputs": [],
      "name": "trusteeAddress",
      "outputs": [
        {
          "internalType": "address",
          "name": "",
          "type": "address"
        }
      ],
      "stateMutability": "view",
      "type": "function"
    },
    {
      "inputs": [],
      "name": "trusteeFeeBps",
      "outputs": [
        {
          "internalType": "uint256",
          "name": "",
          "type": "uint256"
        }
      ],
      "stateMutability": "view",
      "type": "function"
    },
    {
      "inputs": [],
      "name": "unpauseCapital",
      "outputs": [],
      "stateMutability": "nonpayable",
      "type": "function"
    },
    {
      "inputs": [],
      "name": "unpauseRebase",
      "outputs": [],
      "stateMutability": "nonpayable",
      "type": "function"
    },
    {
      "inputs": [],
      "name": "vaultBuffer",
      "outputs": [
        {
          "internalType": "uint256",
          "name": "",
          "type": "uint256"
        }
      ],
      "stateMutability": "view",
      "type": "function"
    },
    {
      "inputs": [],
      "name": "weth",
      "outputs": [
        {
          "internalType": "address",
          "name": "",
          "type": "address"
        }
      ],
      "stateMutability": "view",
      "type": "function"
    },
    {
      "inputs": [],
      "name": "withdrawAllFromStrategies",
      "outputs": [],
      "stateMutability": "nonpayable",
      "type": "function"
    },
    {
      "inputs": [
        {
          "internalType": "address",
          "name": "_strategyAddr",
          "type": "address"
        }
      ],
      "name": "withdrawAllFromStrategy",
      "outputs": [],
      "stateMutability": "nonpayable",
      "type": "function"
    },
    {
      "inputs": [
        {
          "internalType": "address",
          "name": "_strategyFromAddress",
          "type": "address"
        },
        {
          "internalType": "address[]",
          "name": "_assets",
          "type": "address[]"
        },
        {
          "internalType": "uint256[]",
          "name": "_amounts",
          "type": "uint256[]"
        }
      ],
      "name": "withdrawFromStrategy",
      "outputs": [],
      "stateMutability": "nonpayable",
      "type": "function"
    },
    {
      "inputs": [],
      "name": "withdrawalClaimDelay",
      "outputs": [
        {
          "internalType": "uint256",
          "name": "",
          "type": "uint256"
        }
      ],
      "stateMutability": "view",
      "type": "function"
    },
    {
      "inputs": [],
      "name": "withdrawalQueueMetadata",
      "outputs": [
        {
          "internalType": "uint128",
          "name": "queued",
          "type": "uint128"
        },
        {
          "internalType": "uint128",
          "name": "claimable",
          "type": "uint128"
        },
        {
          "internalType": "uint128",
          "name": "claimed",
          "type": "uint128"
        },
        {
          "internalType": "uint128",
          "name": "nextWithdrawalIndex",
          "type": "uint128"
        }
      ],
      "stateMutability": "view",
      "type": "function"
    },
    {
      "inputs": [
        {
          "internalType": "uint256",
          "name": "",
          "type": "uint256"
        }
      ],
      "name": "withdrawalRequests",
      "outputs": [
        {
          "internalType": "address",
          "name": "withdrawer",
          "type": "address"
        },
        {
          "internalType": "bool",
          "name": "claimed",
          "type": "bool"
        },
        {
          "internalType": "uint40",
          "name": "timestamp",
          "type": "uint40"
        },
        {
          "internalType": "uint128",
          "name": "amount",
          "type": "uint128"
        },
        {
          "internalType": "uint128",
          "name": "queued",
          "type": "uint128"
        }
      ],
      "stateMutability": "view",
      "type": "function"
    }
  ],
  "transactionHash": "0xd449be0b116b7d7c74d7d1082e15072db037686d1ab11bb7f2bea5cd13253431",
  "args": [
    "0xC02aaA39b223FE8D0A0e5C4F27eAD9083C756Cc2"
  ],
  "numDeployments": 5,
  "solcInputHash": "d7c660a3891a398302ba4accfb7a44b7",
  "bytecode": "0x6037805461ffff60a01b1916600160a81b179055603d80546001600160a01b0319908116909155603e805482169055603f8054909116905560e0604052600060a081905260c052604880546001600160b01b03191690553480156200006357600080fd5b50604051620037c8380380620037c88339810160408190526200008691620000fc565b6200009e33600080516020620037a883398151915255565b600080516020620037a8833981519152546040516001600160a01b03909116906000907fc7c0c772add429241571afb3805861fb3cfa2af374534088b76cdb4325a87e9a908290a360601b6001600160601b0319166080526200012e565b6000602082840312156200010f57600080fd5b81516001600160a01b03811681146200012757600080fd5b9392505050565b60805160601c613646620001626000396000818161053c01528181612839015281816129690152612cce01526136466000f3fe608060405234801561001057600080fd5b50600436106103a45760003560e01c8063603ea03b116101e9578063ae69f3cb1161010f578063c9919112116100ad578063e6cc54321161007c578063e6cc543214610876578063e829cc161461088a578063eb03654b1461089d578063fc0cfeee146108b057600080fd5b8063c99191121461083f578063d38bfff414610847578063d58e3b3a1461085a578063e45cc9f01461086d57600080fd5b8063b890ebf6116100e9578063b890ebf614610809578063bc90106b1461081c578063c5f008411461082f578063c7af33521461083757600080fd5b8063ae69f3cb146107d0578063b2c9336d146107e3578063b888879e146107f657600080fd5b8063840c4c7a1161018757806394828ffd1161015657806394828ffd146107835780639c82f2a41461078b5780639fa1826e1461079e578063a403e4d5146107a757600080fd5b8063840c4c7a146106ac5780638e510b52146106bf5780638ec489a2146106c8578063937b2581146106db57600080fd5b80636c7561e8116101c35780636c7561e81461066a578063773540b31461067d5780637a2202f3146106905780637b9a70961461069957600080fd5b8063603ea03b14610631578063636e6c4014610644578063663e64ce1461065757600080fd5b8063372aa224116102ce5780634a5e42b11161026c57806353ca9f241161023b57806353ca9f24146105ef578063570d8e1d14610603578063597c8910146106165780635d36b1901461062957600080fd5b80634a5e42b1146105ad5780634bed3bc0146105c057806350ba711c146105d357806352d38e5d146105e657600080fd5b80633fc8cef3116102a85780633fc8cef3146105375780634530820a1461055e57806345e4213b1461059157806349c1d54d1461059a57600080fd5b8063372aa224146105095780633b8ae3971461051c5780633dbc911f1461052f57600080fd5b80631cfbe7bc116103465780632da845a8116103155780632da845a8146104715780632e9958ab14610484578063362bd1a31461049757806336b6d944146104f657600080fd5b80631cfbe7bc1461043b5780631edfe3da1461044e578063207134b0146104575780632b3297f91461046057600080fd5b80630c340a24116103825780630c340a24146103e25780631072cbea14610402578063175188e81461041557806318ce56bd1461042857600080fd5b806309f49bf5146103a957806309f6442c146103b35780630acbda75146103cf575b600080fd5b6103b16108c3565b005b6103bc60385481565b6040519081526020015b60405180910390f35b6103b16103dd3660046133be565b61093c565b6103ea6109ee565b6040516001600160a01b0390911681526020016103c6565b6103b1610410366004613320565b610a0b565b6103b1610423366004613181565b610ab8565b6045546103ea906001600160a01b031681565b6103b16104493660046133be565b610db9565b6103bc60395481565b6103bc60435481565b6048546001600160a01b03166103ea565b6103b161047f366004613181565b610e7b565b6103b1610492366004613181565b610eed565b604b54604c546104c3916001600160801b0380821692600160801b928390048216928183169291041684565b604080516001600160801b03958616815293851660208501529184169183019190915290911660608201526080016103c6565b6103b1610504366004613181565b610f5b565b6103b1610517366004613181565b610f8b565b6103b161052a366004613181565b610ffd565b6103b161113a565b6103ea7f000000000000000000000000000000000000000000000000000000000000000081565b61058161056c366004613181565b60496020526000908152604090205460ff1681565b60405190151581526020016103c6565b6103bc604e5481565b6042546103ea906001600160a01b031681565b6103b16105bb366004613181565b6111b0565b604854600160a01b900461ffff166103bc565b6103bc6105e13660046131cf565b6114bd565b6103bc603b5481565b60375461058190600160a01b900460ff1681565b603f546103ea906001600160a01b031681565b6103b1610624366004613181565b611560565b6103b16115a1565b604a546103ea906001600160a01b031681565b6103b16106523660046133be565b611647565b6103b16106653660046133be565b6116a5565b6103b161067836600461334a565b6116fe565b6103b161068b366004613181565b61197c565b6103bc60475481565b6103b16106a73660046132f6565b6119ee565b6103b16106ba366004613275565b611b24565b6103bc60415481565b6103b16106d63660046133be565b611bbd565b61073c6106e93660046133be565b604d60205260009081526040902080546001909101546001600160a01b03821691600160a01b810460ff1691600160a81b90910464ffffffffff16906001600160801b0380821691600160801b90041685565b604080516001600160a01b039096168652931515602086015264ffffffffff909216928401929092526001600160801b03918216606084015216608082015260a0016103c6565b6103b1611c72565b6103b1610799366004613181565b611ce2565b6103bc603a5481565b6103ea6107b5366004613181565b6040602081905260009182529020546001600160a01b031681565b6103b16107de366004613275565b611d54565b6103b16107f13660046133be565b611de2565b6037546103ea906001600160a01b031681565b6103b16108173660046133be565b611e3b565b6103b161082a36600461319c565b611e94565b6103b16120d6565b61058161214c565b6103b161217d565b6103b1610855366004613181565b6121bd565b6103b1610868366004613181565b612261565b6103bc60465481565b60375461058190600160a81b900460ff1681565b6103b16108983660046133a3565b6122d3565b6103b16108ab3660046133be565b612393565b6103b16108be366004613181565b612448565b603f546001600160a01b03163314806108df57506108df61214c565b6109045760405162461bcd60e51b81526004016108fb90613493565b60405180910390fd5b6037805460ff60a01b191690556040517fbc044409505c95b6b851433df96e1beae715c909d8e7c1d6d7ab783300d4e3b990600090a1565b61094461214c565b6109605760405162461bcd60e51b81526004016108fb9061345c565b6113888111156109b25760405162461bcd60e51b815260206004820152601760248201527f62617369732063616e6e6f74206578636565642035302500000000000000000060448201526064016108fb565b60438190556040518181527f56287a45051933ea374811b3d5d165033047be5572cac676f7c28b8be4f746c7906020015b60405180910390a150565b6000610a066000805160206135f18339815191525490565b905090565b610a1361214c565b610a2f5760405162461bcd60e51b81526004016108fb9061345c565b6001600160a01b03821660009081526033602052604090205460ff1615610a985760405162461bcd60e51b815260206004820152601760248201527f4f6e6c7920756e737570706f727465642061737365747300000000000000000060448201526064016108fb565b610ab4610aa36109ee565b6001600160a01b03841690836124ea565b5050565b610ac061214c565b610adc5760405162461bcd60e51b81526004016108fb9061345c565b6001600160a01b03811660009081526035602052604090205460ff16610b3c5760405162461bcd60e51b815260206004820152601560248201527414dd1c985d1959de481b9bdd08185c1c1c9bdd9959605a1b60448201526064016108fb565b60345460005b81811015610bf457826001600160a01b03166040600060348481548110610b6b57610b6b6135cb565b60009182526020808320909101546001600160a01b039081168452908301939093526040909101902054161415610be45760405162461bcd60e51b815260206004820181905260248201527f53747261746567792069732064656661756c7420666f7220616e20617373657460448201526064016108fb565b610bed8161356e565b9050610b42565b506036548060005b82811015610c5457846001600160a01b031660368281548110610c2157610c216135cb565b6000918252602090912001546001600160a01b03161415610c4457809150610c54565b610c4d8161356e565b9050610bfc565b5081811015610db3576036610c6a60018461352b565b81548110610c7a57610c7a6135cb565b600091825260209091200154603680546001600160a01b039092169183908110610ca657610ca66135cb565b9060005260206000200160006101000a8154816001600160a01b0302191690836001600160a01b031602179055506036805480610ce557610ce56135b5565b60008281526020808220830160001990810180546001600160a01b03191690559092019092556001600160a01b03861680835260359091526040808320805460ff19169055805163429c145b60e11b81529051879363853828b6926004808201939182900301818387803b158015610d5c57600080fd5b505af1158015610d70573d6000803e3d6000fd5b50506040516001600160a01b03881681527f09a1db4b80c32706328728508c941a6b954f31eb5affd32f236c1fd405f8fea49250602001905060405180910390a1505b50505050565b610dc161214c565b610ddd5760405162461bcd60e51b81526004016108fb9061345c565b801580610dfa57506102588110158015610dfa57506213c6808111155b610e465760405162461bcd60e51b815260206004820152601a60248201527f496e76616c696420636c61696d2064656c617920706572696f6400000000000060448201526064016108fb565b604e8190556040518181527fc59f5e32049abab44ddea11021f5abb89422a2f550837afcf25df9fc8d0db6b0906020016109e3565b610e8361214c565b610e9f5760405162461bcd60e51b81526004016108fb9061345c565b604280546001600160a01b0319166001600160a01b0383169081179091556040519081527f1e4af5ac389e8cde1bdaa6830881b6c987c62a45cfb3b33d27d805cde3b57750906020016109e3565b610ef561214c565b610f115760405162461bcd60e51b81526004016108fb9061345c565b604a80546001600160a01b0319166001600160a01b0383169081179091556040517faf2910d9759321733de15af1827a49830692912adeb2b3646334861f2cd2eed490600090a250565b610f6361214c565b610f7f5760405162461bcd60e51b81526004016108fb9061345c565b610f8881612541565b50565b610f9361214c565b610faf5760405162461bcd60e51b81526004016108fb9061345c565b603780546001600160a01b0319166001600160a01b0383169081179091556040519081527fb266add5f3044b17d27db796af992cecbe413921b4e8aaaee03c719e16b9806a906020016109e3565b61100561214c565b6110215760405162461bcd60e51b81526004016108fb9061345c565b6001600160a01b03811660009081526035602052604090205460ff161561108a5760405162461bcd60e51b815260206004820152601960248201527f537472617465677920616c726561647920617070726f7665640000000000000060448201526064016108fb565b6040805180820182526001808252600060208084018281526001600160a01b038716808452603583528684209551865460ff19169015151786559051948401949094556036805493840181559091527f4a11f94e20a93c79f6ec743a1954ec4fc2c08429ae2122118bf234b2185c81b890910180546001600160a01b0319168317905591519081527f960dd94cbb79169f09a4e445d58b895df2d9bffa5b31055d0932d801724a20d191016109e3565b603f546001600160a01b0316331480611156575061115661214c565b6111725760405162461bcd60e51b81526004016108fb90613493565b6037805460ff60a81b1916600160a81b1790556040517f71f0e5b62f846a22e0b4d159e516e62fa9c2b8eb570be15f83e67d98a2ee51e090600090a1565b6111b861214c565b6111d45760405162461bcd60e51b81526004016108fb9061345c565b6001600160a01b03811660009081526033602052604090205460ff166112325760405162461bcd60e51b8152602060048201526013602482015272105cdcd95d081b9bdd081cdd5c1c1bdc9d1959606a1b60448201526064016108fb565b604051632fa8a91360e11b81526001600160a01b03821660048201526509184e72a000903090635f5152269060240160206040518083038186803b15801561127957600080fd5b505afa15801561128d573d6000803e3d6000fd5b505050506040513d601f19601f820116820180604052508101906112b191906133d7565b11156112ff5760405162461bcd60e51b815260206004820152601760248201527f5661756c74207374696c6c20686f6c647320617373657400000000000000000060448201526064016108fb565b6034548060005b8281101561135e57836001600160a01b03166034828154811061132b5761132b6135cb565b6000918252602090912001546001600160a01b0316141561134e5780915061135e565b6113578161356e565b9050611306565b50603461136c60018461352b565b8154811061137c5761137c6135cb565b600091825260209091200154603480546001600160a01b0390921691839081106113a8576113a86135cb565b9060005260206000200160006101000a8154816001600160a01b0302191690836001600160a01b0316021790555060348054806113e7576113e76135b5565b60008281526020808220600019908401810180546001600160a01b031990811690915593019093556001600160a01b038616808252604080855280832080549094169093558251908152928301527fba58ce12801c949fa65f41c46ed108671c219baf945fa48d21026cea99ff252a910160405180910390a16001600160a01b038316600081815260336020908152604091829020805464ffffffffff1916905590519182527f37803e2125c48ee96c38ddf04e826daf335b0e1603579040fd275aba6d06b6fc910160405180910390a1505050565b7f53bf423e48ed90e97d02ab0ebab13b2a235a6bfbe9c321847d5c175333ac453580546000919060028114156115055760405162461bcd60e51b81526004016108fb906134db565b60028255603f546001600160a01b0316331480611525575061152561214c565b6115415760405162461bcd60e51b81526004016108fb90613493565b61154f898989898989612657565b600190925550979650505050505050565b603f546001600160a01b031633148061157c575061157c61214c565b6115985760405162461bcd60e51b81526004016108fb90613493565b610f88816126a2565b7f44c4d30b2eaad5130ad70c3ba6972730566f3e6359ab83e800d905c61b1c51db546001600160a01b0316336001600160a01b03161461163c5760405162461bcd60e51b815260206004820152603060248201527f4f6e6c79207468652070656e64696e6720476f7665726e6f722063616e20636f60448201526f6d706c6574652074686520636c61696d60801b60648201526084016108fb565b61164533612701565b565b61164f61214c565b61166b5760405162461bcd60e51b81526004016108fb9061345c565b600060465560478190556040518181527fc29d6fedbc6bdf267a08166c2b976fbd72aca5d6a769528616f8b9224c8f197f906020016109e3565b6116ad61214c565b6116c95760405162461bcd60e51b81526004016108fb9061345c565b60418190556040518181527f95201f9c21f26877223b1ff4073936a6484c35495649e60e55730497aeb60d93906020016109e3565b61170661214c565b6117225760405162461bcd60e51b81526004016108fb9061345c565b6001600160a01b03821660009081526033602052604090205460ff161561178b5760405162461bcd60e51b815260206004820152601760248201527f417373657420616c726561647920737570706f7274656400000000000000000060448201526064016108fb565b60405180608001604052806001151581526020018260ff1660018111156117b4576117b461359f565b60018111156117c5576117c561359f565b81526000602080830182905260409283018290526001600160a01b0386168252603381529190208251815490151560ff19821681178355928401519192839161ff001990911661ffff19909116176101008360018111156118285761182861359f565b02179055506040820151815460609093015161ffff1663010000000264ffff0000001960ff90921662010000029190911664ffffff0000199093169290921791909117905561187682612541565b603480546001810182556000919091527f46bddb1178e94d7f2892ff5f366840eb658911794f2c3a44c450aa2c505186c10180546001600160a01b0319166001600160a01b038481169182179092556037546040516315d5220f60e31b815260048101929092529091169063aea910789060240160206040518083038186803b15801561190257600080fd5b505afa158015611916573d6000803e3d6000fd5b505050506040513d601f19601f8201168201806040525081019061193a91906133d7565b506040516001600160a01b03831681527f4f1ac48525e50059cc1cc6e0e1940ece0dd653a4db4841538d6aef036be2fb7b906020015b60405180910390a15050565b61198461214c565b6119a05760405162461bcd60e51b81526004016108fb9061345c565b603f80546001600160a01b0319166001600160a01b0383169081179091556040519081527f869e0abd13cc3a975de7b93be3df1cb2255c802b1cead85963cc79d99f131bee906020016109e3565b6119f661214c565b611a125760405162461bcd60e51b81526004016108fb9061345c565b6001600160a01b03821660009081526033602052604090205460ff16611a705760405162461bcd60e51b8152602060048201526013602482015272105cdcd95d081b9bdd081cdd5c1c1bdc9d1959606a1b60448201526064016108fb565b6103e88161ffff1610611ab95760405162461bcd60e51b81526020600482015260116024820152700a6d8d2e0e0c2ceca40e8dede40d0d2ced607b1b60448201526064016108fb565b6001600160a01b038216600081815260336020908152604091829020805464ffff0000001916630100000061ffff8716908102919091179091558251938452908301527f8d22e9d2cbe8bb65a3c4412bd8970743864512a1a0e004e8d00fb96277b78b949101611970565b603f546001600160a01b0316331480611b405750611b4061214c565b611b5c5760405162461bcd60e51b81526004016108fb90613493565b7f53bf423e48ed90e97d02ab0ebab13b2a235a6bfbe9c321847d5c175333ac453580546002811415611ba05760405162461bcd60e51b81526004016108fb906134db565b60028255611bb187878787876127c2565b50600190555050505050565b603f546001600160a01b0316331480611bd95750611bd961214c565b611bf55760405162461bcd60e51b81526004016108fb90613493565b670de0b6b3a7640000811115611c3d5760405162461bcd60e51b815260206004820152600d60248201526c496e76616c69642076616c756560981b60448201526064016108fb565b60398190556040518181527f41ecb23a0e7865b25f38c268b7c3012220d822929e9edff07326e89d5bb822b5906020016109e3565b603f546001600160a01b0316331480611c8e5750611c8e61214c565b611caa5760405162461bcd60e51b81526004016108fb90613493565b6037805460ff60a81b191690556040517f891ebab18da80ebeeea06b1b1cede098329c4c008906a98370c2ac7a80b571cb90600090a1565b611cea61214c565b611d065760405162461bcd60e51b81526004016108fb9061345c565b604880546001600160a01b0319166001600160a01b0383169081179091556040519081527f7d7719313229e558c5a3893cad2eb86a86a049156d1d9ebd5c63a8eedefd1c03906020016109e3565b603f546001600160a01b0316331480611d705750611d7061214c565b611d8c5760405162461bcd60e51b81526004016108fb90613493565b7f53bf423e48ed90e97d02ab0ebab13b2a235a6bfbe9c321847d5c175333ac453580546002811415611dd05760405162461bcd60e51b81526004016108fb906134db565b60028255611bb13088888888886129fa565b611dea61214c565b611e065760405162461bcd60e51b81526004016108fb9061345c565b603a8190556040518181527f2ec5fb5a3d2703edc461252d92ccd2799c3c74f01d97212b20388207fa17ae45906020016109e3565b611e4361214c565b611e5f5760405162461bcd60e51b81526004016108fb9061345c565b603b8190556040518181527f39367850377ac04920a9a670f2180e7a94d83b15ad302e59875ec58fd10bd37d906020016109e3565b603f546001600160a01b0316331480611eb05750611eb061214c565b611ecc5760405162461bcd60e51b81526004016108fb90613493565b604080516001600160a01b038085168252831660208201527fba58ce12801c949fa65f41c46ed108671c219baf945fa48d21026cea99ff252a910160405180910390a16001600160a01b038116156120a8576001600160a01b03811660009081526035602052604090205460ff16611f7e5760405162461bcd60e51b815260206004820152601560248201527414dd1c985d1959de481b9bdd08185c1c1c9bdd9959605a1b60448201526064016108fb565b6001600160a01b038216600090815260336020526040902054819060ff16611fe15760405162461bcd60e51b8152602060048201526016602482015275105cdcd95d081a5cc81b9bdd081cdd5c1c1bdc9d195960521b60448201526064016108fb565b60405163551c457b60e11b81526001600160a01b03848116600483015282169063aa388af69060240160206040518083038186803b15801561202257600080fd5b505afa158015612036573d6000803e3d6000fd5b505050506040513d601f19601f8201168201806040525081019061205a9190613381565b6120a65760405162461bcd60e51b815260206004820152601f60248201527f4173736574206e6f7420737570706f727465642062792053747261746567790060448201526064016108fb565b505b6001600160a01b03918216600090815260406020819052902080546001600160a01b03191691909216179055565b603f546001600160a01b03163314806120f257506120f261214c565b61210e5760405162461bcd60e51b81526004016108fb90613493565b6037805460ff60a01b1916600160a01b1790556040517f8cff26a5985614b3d30629cc4ab83824bf115aec971b718d8f2f99562032e97290600090a1565b60006121646000805160206135f18339815191525490565b6001600160a01b0316336001600160a01b031614905090565b603f546001600160a01b0316331480612199575061219961214c565b6121b55760405162461bcd60e51b81526004016108fb90613493565b611645612a63565b6121c561214c565b6121e15760405162461bcd60e51b81526004016108fb9061345c565b612209817f44c4d30b2eaad5130ad70c3ba6972730566f3e6359ab83e800d905c61b1c51db55565b806001600160a01b03166122296000805160206135f18339815191525490565b6001600160a01b03167fa39cc5eb22d0f34d8beaefee8a3f17cc229c1a1d1ef87a5ad47313487b1c4f0d60405160405180910390a350565b61226961214c565b6122855760405162461bcd60e51b81526004016108fb9061345c565b604580546001600160a01b0319166001600160a01b0383169081179091556040519081527fa12850fb726e0b2b7b3c9a9342031e1268a8148d0eb06b4bea8613204ffcd2b8906020016109e3565b6122db61214c565b6122f75760405162461bcd60e51b81526004016108fb9061345c565b6127118161ffff16106123435760405162461bcd60e51b8152602060048201526014602482015273496e76616c696420626173697320706f696e747360601b60448201526064016108fb565b6048805461ffff60a01b1916600160a01b61ffff8416908102919091179091556040519081527ff12c00256bee2b6facb111a88a9b1cff86e79132939b44f1353212d6f7469557906020016109e3565b61239b61214c565b6123b75760405162461bcd60e51b81526004016108fb9061345c565b6103e88111156124135760405162461bcd60e51b815260206004820152602160248201527f52656465656d206665652073686f756c64206e6f74206265206f7665722031306044820152602560f81b60648201526084016108fb565b60388190556040518181527fd6c7508d6658ccee36b7b7d7fd72e5cbaeefb40c64eff24e9ae7470e846304ee906020016109e3565b61245061214c565b61246c5760405162461bcd60e51b81526004016108fb9061345c565b803b6124c65760405162461bcd60e51b8152602060048201526024808201527f6e657720696d706c656d656e746174696f6e206973206e6f74206120636f6e746044820152631c9858dd60e21b60648201526084016108fb565b7fa2bd3d3cf188a41358c8b401076eb59066b09dec5775650c0de4c55187d17bd955565b604080516001600160a01b038416602482015260448082018490528251808303909101815260649091019091526020810180516001600160e01b031663a9059cbb60e01b17905261253c908490612aba565b505050565b6001600160a01b0381166000908152603360205260409020805462010000900460ff161561256d575050565b6000826001600160a01b031663313ce5676040518163ffffffff1660e01b815260040160206040518083038186803b1580156125a857600080fd5b505afa1580156125bc573d6000803e3d6000fd5b505050506040513d601f19601f820116820180604052508101906125e091906133f0565b905060068160ff16101580156125fa575060128160ff1611155b61263d5760405162461bcd60e51b81526020600482015260146024820152732ab732bc3832b1ba32b210383932b1b4b9b4b7b760611b60448201526064016108fb565b815460ff909116620100000262ff00001990911617905550565b60405162461bcd60e51b815260206004820152601d60248201527f436f6c6c61746572616c2073776170206e6f7420737570706f7274656400000060448201526000906064016108fb565b6126ab81612b8c565b306001600160a01b031663b9b17f9f6040518163ffffffff1660e01b8152600401600060405180830381600087803b1580156126e657600080fd5b505af11580156126fa573d6000803e3d6000fd5b5050505050565b6001600160a01b0381166127575760405162461bcd60e51b815260206004820152601a60248201527f4e657720476f7665726e6f72206973206164647265737328302900000000000060448201526064016108fb565b806001600160a01b03166127776000805160206135f18339815191525490565b6001600160a01b03167fc7c0c772add429241571afb3805861fb3cfa2af374534088b76cdb4325a87e9a60405160405180910390a3610f88816000805160206135f183398151915255565b6001600160a01b03851660009081526035602052604090205460ff166128205760405162461bcd60e51b8152602060048201526013602482015272496e76616c696420746f20537472617465677960681b60448201526064016108fb565b6001831480156128305750600181145b801561289457507f00000000000000000000000000000000000000000000000000000000000000006001600160a01b031684846000818110612874576128746135cb565b90506020020160208101906128899190613181565b6001600160a01b0316145b6128d95760405162461bcd60e51b815260206004820152601660248201527513db9b1e4815d15512081a5cc81cdd5c1c1bdc9d195960521b60448201526064016108fb565b6128e1612c50565b828260008181106128f4576128f46135cb565b9050602002013511156129495760405162461bcd60e51b815260206004820152601960248201527f4e6f7420656e6f756768205745544820617661696c61626c650000000000000060448201526064016108fb565b6129a08583836000818110612960576129606135cb565b905060200201357f00000000000000000000000000000000000000000000000000000000000000006001600160a01b03166124ea9092919063ffffffff16565b846001600160a01b031663de5f62686040518163ffffffff1660e01b8152600401600060405180830381600087803b1580156129db57600080fd5b505af11580156129ef573d6000803e3d6000fd5b505050505050505050565b612a08868686868686612d6d565b306001600160a01b031663b9b17f9f6040518163ffffffff1660e01b8152600401600060405180830381600087803b158015612a4357600080fd5b505af1158015612a57573d6000803e3d6000fd5b50505050505050505050565b612a6b612efb565b306001600160a01b031663b9b17f9f6040518163ffffffff1660e01b8152600401600060405180830381600087803b158015612aa657600080fd5b505af1158015610db3573d6000803e3d6000fd5b6000612b0f826040518060400160405280602081526020017f5361666545524332303a206c6f772d6c6576656c2063616c6c206661696c6564815250856001600160a01b0316612f8d9092919063ffffffff16565b80519091501561253c5780806020019051810190612b2d9190613381565b61253c5760405162461bcd60e51b815260206004820152602a60248201527f5361666545524332303a204552433230206f7065726174696f6e20646964206e6044820152691bdd081cdd58d8d9595960b21b60648201526084016108fb565b6001600160a01b03811660009081526035602052604090205460ff16612bf45760405162461bcd60e51b815260206004820152601960248201527f5374726174656779206973206e6f7420737570706f727465640000000000000060448201526064016108fb565b6000819050806001600160a01b031663853828b66040518163ffffffff1660e01b8152600401600060405180830381600087803b158015612c3457600080fd5b505af1158015612c48573d6000803e3d6000fd5b505050505050565b60408051608081018252604b546001600160801b03808216808452600160801b9283900482166020850152604c54808316958501869052929092041660608301526000928391612ca09190613503565b6040516370a0823160e01b81523060048201526001600160801b039190911691506000906001600160a01b037f000000000000000000000000000000000000000000000000000000000000000016906370a082319060240160206040518083038186803b158015612d1057600080fd5b505afa158015612d24573d6000803e3d6000fd5b505050506040513d601f19601f82011682018060405250810190612d4891906133d7565b9050818111612d5b576000935050505090565b612d65828261352b565b935050505090565b6001600160a01b03851660009081526035602052604090205460ff16612dcd5760405162461bcd60e51b8152602060048201526015602482015274496e76616c69642066726f6d20537472617465677960581b60448201526064016108fb565b828114612e1c5760405162461bcd60e51b815260206004820152601960248201527f506172616d65746572206c656e677468206d69736d617463680000000000000060448201526064016108fb565b8260005b81811015612ef157866001600160a01b031663d9caed1289888885818110612e4a57612e4a6135cb565b9050602002016020810190612e5f9190613181565b878786818110612e7157612e716135cb565b6040516001600160e01b031960e088901b1681526001600160a01b03958616600482015294909316602485015250602090910201356044820152606401600060405180830381600087803b158015612ec857600080fd5b505af1158015612edc573d6000803e3d6000fd5b5050505080612eea9061356e565b9050612e20565b5050505050505050565b60365460005b81811015610ab45760368181548110612f1c57612f1c6135cb565b60009182526020822001546040805163429c145b60e11b815290516001600160a01b039092169263853828b69260048084019382900301818387803b158015612f6457600080fd5b505af1158015612f78573d6000803e3d6000fd5b5050505080612f869061356e565b9050612f01565b6060612f9c8484600085612fa6565b90505b9392505050565b6060824710156130075760405162461bcd60e51b815260206004820152602660248201527f416464726573733a20696e73756666696369656e742062616c616e636520666f6044820152651c8818d85b1b60d21b60648201526084016108fb565b843b6130555760405162461bcd60e51b815260206004820152601d60248201527f416464726573733a2063616c6c20746f206e6f6e2d636f6e747261637400000060448201526064016108fb565b600080866001600160a01b03168587604051613071919061340d565b60006040518083038185875af1925050503d80600081146130ae576040519150601f19603f3d011682016040523d82523d6000602084013e6130b3565b606091505b50915091506130c38282866130ce565b979650505050505050565b606083156130dd575081612f9f565b8251156130ed5782518084602001fd5b8160405162461bcd60e51b81526004016108fb9190613429565b80356001600160a01b038116811461311e57600080fd5b919050565b60008083601f84011261313557600080fd5b50813567ffffffffffffffff81111561314d57600080fd5b6020830191508360208260051b850101111561316857600080fd5b9250929050565b803561ffff8116811461311e57600080fd5b60006020828403121561319357600080fd5b612f9f82613107565b600080604083850312156131af57600080fd5b6131b883613107565b91506131c660208401613107565b90509250929050565b60008060008060008060a087890312156131e857600080fd5b6131f187613107565b95506131ff60208801613107565b94506040870135935060608701359250608087013567ffffffffffffffff8082111561322a57600080fd5b818901915089601f83011261323e57600080fd5b81358181111561324d57600080fd5b8a602082850101111561325f57600080fd5b6020830194508093505050509295509295509295565b60008060008060006060868803121561328d57600080fd5b61329686613107565b9450602086013567ffffffffffffffff808211156132b357600080fd5b6132bf89838a01613123565b909650945060408801359150808211156132d857600080fd5b506132e588828901613123565b969995985093965092949392505050565b6000806040838503121561330957600080fd5b61331283613107565b91506131c66020840161316f565b6000806040838503121561333357600080fd5b61333c83613107565b946020939093013593505050565b6000806040838503121561335d57600080fd5b61336683613107565b91506020830135613376816135e1565b809150509250929050565b60006020828403121561339357600080fd5b81518015158114612f9f57600080fd5b6000602082840312156133b557600080fd5b612f9f8261316f565b6000602082840312156133d057600080fd5b5035919050565b6000602082840312156133e957600080fd5b5051919050565b60006020828403121561340257600080fd5b8151612f9f816135e1565b6000825161341f818460208701613542565b9190910192915050565b6020815260008251806020840152613448816040850160208701613542565b601f01601f19169190910160400192915050565b6020808252601a908201527f43616c6c6572206973206e6f742074686520476f7665726e6f72000000000000604082015260600190565b60208082526028908201527f43616c6c6572206973206e6f74207468652053747261746567697374206f722060408201526723b7bb32b93737b960c11b606082015260800190565b6020808252600e908201526d1499595b9d1c985b9d0818d85b1b60921b604082015260600190565b60006001600160801b038381169083168181101561352357613523613589565b039392505050565b60008282101561353d5761353d613589565b500390565b60005b8381101561355d578181015183820152602001613545565b83811115610db35750506000910152565b600060001982141561358257613582613589565b5060010190565b634e487b7160e01b600052601160045260246000fd5b634e487b7160e01b600052602160045260246000fd5b634e487b7160e01b600052603160045260246000fd5b634e487b7160e01b600052603260045260246000fd5b60ff81168114610f8857600080fdfe7bea13895fa79d2831e0a9e28edede30099005a50d652d8957cf8a607ee6ca4aa264697066735822122010ec31245a6498ee75fad52e1c4ed4cf555094a32e0ed78f7b1bdeabdbe3861b64736f6c634300080700337bea13895fa79d2831e0a9e28edede30099005a50d652d8957cf8a607ee6ca4a",
  "libraries": {},
  "devdoc": {
    "author": "Origin Protocol Inc",
    "kind": "dev",
    "methods": {
      "allowedSwapUndervalue()": {
        "returns": {
          "value": "Percentage in basis points."
        }
      },
      "approveStrategy(address)": {
        "params": {
          "_addr": "Address of the strategy to add"
        }
      },
      "cacheDecimals(address)": {
        "params": {
          "_asset": "Address of asset token"
        }
      },
      "depositToStrategy(address,address[],uint256[])": {
        "params": {
          "_amounts": "Array of amounts of each corresponding asset to deposit.",
          "_assets": "Array of asset address that will be deposited into the strategy.",
          "_strategyToAddress": "Address of the Strategy to deposit assets into."
        }
      },
      "removeAsset(address)": {
        "params": {
          "_asset": "Address of asset"
        }
      },
      "removeStrategy(address)": {
        "params": {
          "_addr": "Address of the strategy to remove"
        }
      },
      "setAdminImpl(address)": {
        "params": {
          "newImpl": "address of the implementation"
        }
      },
      "setAssetDefaultStrategy(address,address)": {
        "params": {
          "_asset": "Address of the asset",
          "_strategy": "Address of the Strategy"
        }
      },
      "setAutoAllocateThreshold(uint256)": {
        "params": {
          "_threshold": "OToken amount with 18 fixed decimals."
        }
      },
      "setDripper(address)": {
        "params": {
          "_dripper": "Address of the Dripper contract."
        }
      },
      "setNetOusdMintForStrategyThreshold(uint256)": {
        "params": {
          "_threshold": "OToken amount with 18 fixed decimals."
        }
      },
      "setOracleSlippage(address,uint16)": {
        "params": {
          "_allowedOracleSlippageBps": "allowed slippage from Oracle in basis points. eg 20 = 0.2%. Max 10%.",
          "_asset": "Address of the asset token."
        }
      },
      "setOusdMetaStrategy(address)": {
        "params": {
          "_ousdMetaStrategy": "Address of OToken metapool strategy"
        }
      },
      "setPriceProvider(address)": {
        "params": {
          "_priceProvider": "Address of price provider"
        }
      },
      "setRebaseThreshold(uint256)": {
        "params": {
          "_threshold": "OToken amount with 18 fixed decimals."
        }
      },
      "setRedeemFeeBps(uint256)": {
        "params": {
          "_redeemFeeBps": "Basis point fee to be charged"
        }
      },
      "setStrategistAddr(address)": {
        "params": {
          "_address": "Address of Strategist"
        }
      },
      "setSwapAllowedUndervalue(uint16)": {
        "params": {
          "_basis": "Percentage in basis points. eg 100 == 1%"
        }
      },
      "setSwapper(address)": {
        "params": {
          "_swapperAddr": "Address of the Swapper contract that implements the ISwapper interface."
        }
      },
      "setVaultBuffer(uint256)": {
        "params": {
          "_vaultBuffer": "Percentage using 18 decimals. 100% = 1e18."
        }
      },
      "setWithdrawalClaimDelay(uint256)": {
        "params": {
          "_delay": "Delay period (should be between 10 mins to 7 days).          Set to 0 to disable async withdrawals"
        }
      },
      "supportAsset(address,uint8)": {
        "params": {
          "_asset": "Address of asset"
        }
      },
      "swapCollateral(address,address,uint256,uint256,bytes)": {
        "params": {
          "_data": "implementation specific data. eg 1Inch swap data",
          "_fromAsset": "The token address of the asset being sold by the vault.",
          "_fromAssetAmount": "The amount of assets being sold by the vault.",
          "_minToAssetAmount": "The minimum amount of assets to be purchased.",
          "_toAsset": "The token address of the asset being purchased by the vault."
        },
        "returns": {
          "toAssetAmount": "The amount of toAssets that was received from the swap"
        }
      },
      "transferGovernance(address)": {
        "params": {
          "_newGovernor": "Address of the new Governor"
        }
      },
      "transferToken(address,uint256)": {
        "params": {
          "_amount": "Amount of the asset to transfer",
          "_asset": "Address for the asset"
        }
      },
      "withdrawAllFromStrategy(address)": {
        "params": {
          "_strategyAddr": "Strategy address."
        }
      },
      "withdrawFromStrategy(address,address[],uint256[])": {
        "params": {
          "_amounts": "Array of amounts of each corresponding asset to withdraw.",
          "_assets": "Array of asset address that will be withdrawn from the strategy.",
          "_strategyFromAddress": "Address of the Strategy to withdraw assets from."
        }
      }
    },
    "title": "OETH VaultAdmin Contract",
    "version": 1
  },
  "userdoc": {
    "kind": "user",
    "methods": {
      "allowedSwapUndervalue()": {
        "notice": "Max allowed percentage the vault total value can drop below the OToken total supply in basis points when executing a collateral swap. For example 100 == 1%"
      },
      "approveStrategy(address)": {
        "notice": "Add a strategy to the Vault."
      },
      "assetDefaultStrategies(address)": {
        "notice": "Mapping of asset address to the Strategy that they should automatically"
      },
      "autoAllocateThreshold()": {
        "notice": "OToken mints over this amount automatically allocate funds. 18 decimals."
      },
      "cacheDecimals(address)": {
        "notice": "Cache decimals on OracleRouter for a particular asset. This action      is required before that asset's price can be accessed."
      },
      "capitalPaused()": {
        "notice": "pause operations that change the OToken supply. eg mint, redeem, allocate, mint/burn for strategy"
      },
      "claimGovernance()": {
        "notice": "Claim Governance of the contract to a new account (`newGovernor`). Can only be called by the new Governor."
      },
      "depositToStrategy(address,address[],uint256[])": {
        "notice": "Deposit multiple assets from the vault into the strategy."
      },
      "dripper()": {
        "notice": "Address of the Dripper contract that streams harvested rewards to the Vault"
      },
      "governor()": {
        "notice": "Returns the address of the current Governor."
      },
      "isGovernor()": {
        "notice": "Returns true if the caller is the current Governor."
      },
      "maxSupplyDiff()": {
        "notice": "Max difference between total supply and total value of assets. 18 decimals."
      },
      "netOusdMintForStrategyThreshold()": {
        "notice": "How much net total OTokens are allowed to be minted by all strategies"
      },
      "netOusdMintedForStrategy()": {
        "notice": "How much OTokens are currently minted by the strategy"
      },
      "ousdMetaStrategy()": {
        "notice": "Metapool strategy that is allowed to mint/burn OTokens without changing collateral"
      },
      "pauseCapital()": {
        "notice": "Set the deposit paused flag to true to prevent capital movement."
      },
      "pauseRebase()": {
        "notice": "Set the deposit paused flag to true to prevent rebasing."
      },
      "priceProvider()": {
        "notice": "Address of the Oracle price provider contract"
      },
      "rebasePaused()": {
        "notice": "pause rebasing if true"
      },
      "rebaseThreshold()": {
        "notice": "OToken mints over this amount automatically rebase. 18 decimals."
      },
      "redeemFeeBps()": {
        "notice": "Redemption fee in basis points. eg 50 = 0.5%"
      },
      "removeAsset(address)": {
        "notice": "Remove a supported asset from the Vault"
      },
      "removeStrategy(address)": {
        "notice": "Remove a strategy from the Vault."
      },
      "setAdminImpl(address)": {
        "notice": "set the implementation for the admin, this needs to be in a base class else we cannot set it"
      },
      "setAssetDefaultStrategy(address,address)": {
        "notice": "Set the default Strategy for an asset, i.e. the one which the asset will be automatically allocated to and withdrawn from"
      },
      "setAutoAllocateThreshold(uint256)": {
        "notice": "Sets the minimum amount of OTokens in a mint to trigger an automatic allocation of funds afterwords."
      },
      "setDripper(address)": {
        "notice": "Set the Dripper contract that streams harvested rewards to the vault."
      },
      "setMaxSupplyDiff(uint256)": {
        "notice": "Sets the maximum allowable difference between total supply and backing assets' value."
      },
      "setNetOusdMintForStrategyThreshold(uint256)": {
        "notice": "Set maximum amount of OTokens that can at any point be minted and deployed to strategy (used only by ConvexOUSDMetaStrategy for now)."
      },
      "setOracleSlippage(address,uint16)": {
        "notice": "Set the allowed slippage from the Oracle price for collateral asset swaps."
      },
      "setOusdMetaStrategy(address)": {
        "notice": "Set OToken Metapool strategy"
      },
      "setPriceProvider(address)": {
        "notice": "Set address of price provider."
      },
      "setRebaseThreshold(uint256)": {
        "notice": "Set a minimum amount of OTokens in a mint or redeem that triggers a rebase"
      },
      "setRedeemFeeBps(uint256)": {
        "notice": "Set a fee in basis points to be charged for a redeem."
      },
      "setStrategistAddr(address)": {
        "notice": "Set address of Strategist"
      },
      "setSwapAllowedUndervalue(uint16)": {
        "notice": "Set max allowed percentage the vault total value can drop below the OToken total supply in basis points when executing collateral swaps."
      },
      "setSwapper(address)": {
        "notice": "Set the contract the performs swaps of collateral assets."
      },
      "setTrusteeAddress(address)": {
        "notice": "Sets the trusteeAddress that can receive a portion of yield.      Setting to the zero address disables this feature."
      },
      "setTrusteeFeeBps(uint256)": {
        "notice": "Sets the TrusteeFeeBps to the percentage of yield that should be      received in basis points."
      },
      "setVaultBuffer(uint256)": {
        "notice": "Set a buffer of assets to keep in the Vault to handle most redemptions without needing to spend gas unwinding assets from a Strategy."
      },
      "setWithdrawalClaimDelay(uint256)": {
        "notice": "Changes the async withdrawal claim period for OETH & superOETHb"
      },
      "strategistAddr()": {
        "notice": "Address of the Strategist"
      },
      "supportAsset(address,uint8)": {
        "notice": "Add a supported asset to the contract, i.e. one that can be         to mint OTokens."
      },
      "swapCollateral(address,address,uint256,uint256,bytes)": {
        "notice": "Strategist swaps collateral assets sitting in the vault."
      },
      "swapper()": {
        "notice": "Contract that swaps the vault's collateral assets"
      },
      "transferGovernance(address)": {
        "notice": "Transfers Governance of the contract to a new account (`newGovernor`). Can only be called by the current Governor. Must be claimed for this to complete"
      },
      "transferToken(address,uint256)": {
        "notice": "Transfer token to governor. Intended for recovering tokens stuck in      contract, i.e. mistaken sends."
      },
      "trusteeAddress()": {
        "notice": "Trustee contract that can collect a percentage of yield"
      },
      "trusteeFeeBps()": {
        "notice": "Amount of yield collected in basis points. eg 2000 = 20%"
      },
      "unpauseCapital()": {
        "notice": "Set the deposit paused flag to false to enable capital movement."
      },
      "unpauseRebase()": {
        "notice": "Set the deposit paused flag to true to allow rebasing."
      },
      "vaultBuffer()": {
        "notice": "Percentage of assets to keep in Vault to handle (most) withdrawals. 100% = 1e18."
      },
      "withdrawAllFromStrategies()": {
        "notice": "Withdraws all assets from all the strategies and sends assets to the Vault."
      },
      "withdrawAllFromStrategy(address)": {
        "notice": "Withdraws all assets from the strategy and sends assets to the Vault."
      },
      "withdrawFromStrategy(address,address[],uint256[])": {
        "notice": "Withdraw multiple assets from the strategy to the vault."
      },
      "withdrawalClaimDelay()": {
        "notice": "Sets a minimum delay that is required to elapse between     requesting async withdrawals and claiming the request.     When set to 0 async withdrawals are disabled."
      },
      "withdrawalQueueMetadata()": {
        "notice": "Global metadata for the withdrawal queue including: queued - cumulative total of all withdrawal requests included the ones that have already been claimed claimable - cumulative total of all the requests that can be claimed including the ones already claimed claimed - total of all the requests that have been claimed nextWithdrawalIndex - index of the next withdrawal request starting at 0"
      },
      "withdrawalRequests(uint256)": {
        "notice": "Mapping of withdrawal request indices to the user withdrawal request data"
      }
    },
    "version": 1
  },
  "storageLayout": {
    "storage": [
      {
        "astId": 48804,
        "contract": "contracts/vault/OETHVaultAdmin.sol:OETHVaultAdmin",
        "label": "initialized",
        "offset": 0,
        "slot": "0",
        "type": "t_bool"
      },
      {
        "astId": 48807,
        "contract": "contracts/vault/OETHVaultAdmin.sol:OETHVaultAdmin",
        "label": "initializing",
        "offset": 1,
        "slot": "0",
        "type": "t_bool"
      },
      {
        "astId": 48847,
        "contract": "contracts/vault/OETHVaultAdmin.sol:OETHVaultAdmin",
        "label": "______gap",
        "offset": 0,
        "slot": "1",
        "type": "t_array(t_uint256)50_storage"
      },
      {
        "astId": 55106,
        "contract": "contracts/vault/OETHVaultAdmin.sol:OETHVaultAdmin",
        "label": "assets",
        "offset": 0,
        "slot": "51",
        "type": "t_mapping(t_address,t_struct(Asset)55100_storage)"
      },
      {
        "astId": 55110,
        "contract": "contracts/vault/OETHVaultAdmin.sol:OETHVaultAdmin",
        "label": "allAssets",
        "offset": 0,
        "slot": "52",
        "type": "t_array(t_address)dyn_storage"
      },
      {
        "astId": 55121,
        "contract": "contracts/vault/OETHVaultAdmin.sol:OETHVaultAdmin",
        "label": "strategies",
        "offset": 0,
        "slot": "53",
        "type": "t_mapping(t_address,t_struct(Strategy)55115_storage)"
      },
      {
        "astId": 55125,
        "contract": "contracts/vault/OETHVaultAdmin.sol:OETHVaultAdmin",
        "label": "allStrategies",
        "offset": 0,
        "slot": "54",
        "type": "t_array(t_address)dyn_storage"
      },
      {
        "astId": 55128,
        "contract": "contracts/vault/OETHVaultAdmin.sol:OETHVaultAdmin",
        "label": "priceProvider",
        "offset": 0,
        "slot": "55",
        "type": "t_address"
      },
      {
        "astId": 55132,
        "contract": "contracts/vault/OETHVaultAdmin.sol:OETHVaultAdmin",
        "label": "rebasePaused",
        "offset": 20,
        "slot": "55",
        "type": "t_bool"
      },
      {
        "astId": 55136,
        "contract": "contracts/vault/OETHVaultAdmin.sol:OETHVaultAdmin",
        "label": "capitalPaused",
        "offset": 21,
        "slot": "55",
        "type": "t_bool"
      },
      {
        "astId": 55139,
        "contract": "contracts/vault/OETHVaultAdmin.sol:OETHVaultAdmin",
        "label": "redeemFeeBps",
        "offset": 0,
        "slot": "56",
        "type": "t_uint256"
      },
      {
        "astId": 55142,
        "contract": "contracts/vault/OETHVaultAdmin.sol:OETHVaultAdmin",
        "label": "vaultBuffer",
        "offset": 0,
        "slot": "57",
        "type": "t_uint256"
      },
      {
        "astId": 55145,
        "contract": "contracts/vault/OETHVaultAdmin.sol:OETHVaultAdmin",
        "label": "autoAllocateThreshold",
        "offset": 0,
        "slot": "58",
        "type": "t_uint256"
      },
      {
        "astId": 55148,
        "contract": "contracts/vault/OETHVaultAdmin.sol:OETHVaultAdmin",
        "label": "rebaseThreshold",
        "offset": 0,
        "slot": "59",
        "type": "t_uint256"
      },
      {
        "astId": 55152,
        "contract": "contracts/vault/OETHVaultAdmin.sol:OETHVaultAdmin",
        "label": "oUSD",
        "offset": 0,
        "slot": "60",
        "type": "t_contract(OUSD)46322"
      },
      {
        "astId": 55161,
        "contract": "contracts/vault/OETHVaultAdmin.sol:OETHVaultAdmin",
        "label": "_deprecated_rebaseHooksAddr",
        "offset": 0,
        "slot": "61",
        "type": "t_address"
      },
      {
        "astId": 55167,
        "contract": "contracts/vault/OETHVaultAdmin.sol:OETHVaultAdmin",
        "label": "_deprecated_uniswapAddr",
        "offset": 0,
        "slot": "62",
        "type": "t_address"
      },
      {
        "astId": 55174,
        "contract": "contracts/vault/OETHVaultAdmin.sol:OETHVaultAdmin",
        "label": "strategistAddr",
        "offset": 0,
        "slot": "63",
        "type": "t_address"
      },
      {
        "astId": 55179,
        "contract": "contracts/vault/OETHVaultAdmin.sol:OETHVaultAdmin",
        "label": "assetDefaultStrategies",
        "offset": 0,
        "slot": "64",
        "type": "t_mapping(t_address,t_address)"
      },
      {
        "astId": 55182,
        "contract": "contracts/vault/OETHVaultAdmin.sol:OETHVaultAdmin",
        "label": "maxSupplyDiff",
        "offset": 0,
        "slot": "65",
        "type": "t_uint256"
      },
      {
        "astId": 55185,
        "contract": "contracts/vault/OETHVaultAdmin.sol:OETHVaultAdmin",
        "label": "trusteeAddress",
        "offset": 0,
        "slot": "66",
        "type": "t_address"
      },
      {
        "astId": 55188,
        "contract": "contracts/vault/OETHVaultAdmin.sol:OETHVaultAdmin",
        "label": "trusteeFeeBps",
        "offset": 0,
        "slot": "67",
        "type": "t_uint256"
      },
      {
        "astId": 55192,
        "contract": "contracts/vault/OETHVaultAdmin.sol:OETHVaultAdmin",
        "label": "_deprecated_swapTokens",
        "offset": 0,
        "slot": "68",
        "type": "t_array(t_address)dyn_storage"
      },
      {
        "astId": 55198,
        "contract": "contracts/vault/OETHVaultAdmin.sol:OETHVaultAdmin",
        "label": "ousdMetaStrategy",
        "offset": 0,
        "slot": "69",
        "type": "t_address"
      },
      {
        "astId": 55201,
        "contract": "contracts/vault/OETHVaultAdmin.sol:OETHVaultAdmin",
        "label": "netOusdMintedForStrategy",
        "offset": 0,
        "slot": "70",
        "type": "t_int256"
      },
      {
        "astId": 55204,
        "contract": "contracts/vault/OETHVaultAdmin.sol:OETHVaultAdmin",
        "label": "netOusdMintForStrategyThreshold",
        "offset": 0,
        "slot": "71",
        "type": "t_uint256"
      },
      {
        "astId": 55225,
        "contract": "contracts/vault/OETHVaultAdmin.sol:OETHVaultAdmin",
        "label": "swapConfig",
        "offset": 0,
        "slot": "72",
        "type": "t_struct(SwapConfig)55215_storage"
      },
      {
        "astId": 55229,
        "contract": "contracts/vault/OETHVaultAdmin.sol:OETHVaultAdmin",
        "label": "isMintWhitelistedStrategy",
        "offset": 0,
        "slot": "73",
        "type": "t_mapping(t_address,t_bool)"
      },
      {
        "astId": 55232,
        "contract": "contracts/vault/OETHVaultAdmin.sol:OETHVaultAdmin",
        "label": "dripper",
        "offset": 0,
        "slot": "74",
        "type": "t_address"
      },
      {
        "astId": 55245,
        "contract": "contracts/vault/OETHVaultAdmin.sol:OETHVaultAdmin",
        "label": "withdrawalQueueMetadata",
        "offset": 0,
        "slot": "75",
        "type": "t_struct(WithdrawalQueueMetadata)55241_storage"
      },
      {
        "astId": 55262,
        "contract": "contracts/vault/OETHVaultAdmin.sol:OETHVaultAdmin",
        "label": "withdrawalRequests",
        "offset": 0,
        "slot": "77",
        "type": "t_mapping(t_uint256,t_struct(WithdrawalRequest)55256_storage)"
      },
      {
        "astId": 55265,
        "contract": "contracts/vault/OETHVaultAdmin.sol:OETHVaultAdmin",
        "label": "withdrawalClaimDelay",
        "offset": 0,
        "slot": "78",
        "type": "t_uint256"
      },
      {
        "astId": 55269,
        "contract": "contracts/vault/OETHVaultAdmin.sol:OETHVaultAdmin",
        "label": "__gap",
        "offset": 0,
        "slot": "79",
        "type": "t_array(t_uint256)44_storage"
      }
    ],
    "types": {
      "t_address": {
        "encoding": "inplace",
        "label": "address",
        "numberOfBytes": "20"
      },
      "t_array(t_address)dyn_storage": {
        "base": "t_address",
        "encoding": "dynamic_array",
        "label": "address[]",
        "numberOfBytes": "32"
      },
      "t_array(t_uint256)44_storage": {
        "base": "t_uint256",
        "encoding": "inplace",
        "label": "uint256[44]",
        "numberOfBytes": "1408"
      },
      "t_array(t_uint256)50_storage": {
        "base": "t_uint256",
        "encoding": "inplace",
        "label": "uint256[50]",
        "numberOfBytes": "1600"
      },
      "t_bool": {
        "encoding": "inplace",
        "label": "bool",
        "numberOfBytes": "1"
      },
      "t_contract(OUSD)46322": {
        "encoding": "inplace",
        "label": "contract OUSD",
        "numberOfBytes": "20"
      },
      "t_enum(UnitConversion)55090": {
        "encoding": "inplace",
        "label": "enum VaultStorage.UnitConversion",
        "numberOfBytes": "1"
      },
      "t_int256": {
        "encoding": "inplace",
        "label": "int256",
        "numberOfBytes": "32"
      },
      "t_mapping(t_address,t_address)": {
        "encoding": "mapping",
        "key": "t_address",
        "label": "mapping(address => address)",
        "numberOfBytes": "32",
        "value": "t_address"
      },
      "t_mapping(t_address,t_bool)": {
        "encoding": "mapping",
        "key": "t_address",
        "label": "mapping(address => bool)",
        "numberOfBytes": "32",
        "value": "t_bool"
      },
      "t_mapping(t_address,t_struct(Asset)55100_storage)": {
        "encoding": "mapping",
        "key": "t_address",
        "label": "mapping(address => struct VaultStorage.Asset)",
        "numberOfBytes": "32",
        "value": "t_struct(Asset)55100_storage"
      },
      "t_mapping(t_address,t_struct(Strategy)55115_storage)": {
        "encoding": "mapping",
        "key": "t_address",
        "label": "mapping(address => struct VaultStorage.Strategy)",
        "numberOfBytes": "32",
        "value": "t_struct(Strategy)55115_storage"
      },
      "t_mapping(t_uint256,t_struct(WithdrawalRequest)55256_storage)": {
        "encoding": "mapping",
        "key": "t_uint256",
        "label": "mapping(uint256 => struct VaultStorage.WithdrawalRequest)",
        "numberOfBytes": "32",
        "value": "t_struct(WithdrawalRequest)55256_storage"
      },
      "t_struct(Asset)55100_storage": {
        "encoding": "inplace",
        "label": "struct VaultStorage.Asset",
        "members": [
          {
            "astId": 55092,
            "contract": "contracts/vault/OETHVaultAdmin.sol:OETHVaultAdmin",
            "label": "isSupported",
            "offset": 0,
            "slot": "0",
            "type": "t_bool"
          },
          {
            "astId": 55095,
            "contract": "contracts/vault/OETHVaultAdmin.sol:OETHVaultAdmin",
            "label": "unitConversion",
            "offset": 1,
            "slot": "0",
            "type": "t_enum(UnitConversion)55090"
          },
          {
            "astId": 55097,
            "contract": "contracts/vault/OETHVaultAdmin.sol:OETHVaultAdmin",
            "label": "decimals",
            "offset": 2,
            "slot": "0",
            "type": "t_uint8"
          },
          {
            "astId": 55099,
            "contract": "contracts/vault/OETHVaultAdmin.sol:OETHVaultAdmin",
            "label": "allowedOracleSlippageBps",
            "offset": 3,
            "slot": "0",
            "type": "t_uint16"
          }
        ],
        "numberOfBytes": "32"
      },
      "t_struct(Strategy)55115_storage": {
        "encoding": "inplace",
        "label": "struct VaultStorage.Strategy",
        "members": [
          {
            "astId": 55112,
            "contract": "contracts/vault/OETHVaultAdmin.sol:OETHVaultAdmin",
            "label": "isSupported",
            "offset": 0,
            "slot": "0",
            "type": "t_bool"
          },
          {
            "astId": 55114,
            "contract": "contracts/vault/OETHVaultAdmin.sol:OETHVaultAdmin",
            "label": "_deprecated",
            "offset": 0,
            "slot": "1",
            "type": "t_uint256"
          }
        ],
        "numberOfBytes": "64"
      },
      "t_struct(SwapConfig)55215_storage": {
        "encoding": "inplace",
        "label": "struct VaultStorage.SwapConfig",
        "members": [
          {
            "astId": 55212,
            "contract": "contracts/vault/OETHVaultAdmin.sol:OETHVaultAdmin",
            "label": "swapper",
            "offset": 0,
            "slot": "0",
            "type": "t_address"
          },
          {
            "astId": 55214,
            "contract": "contracts/vault/OETHVaultAdmin.sol:OETHVaultAdmin",
            "label": "allowedUndervalueBps",
            "offset": 20,
            "slot": "0",
            "type": "t_uint16"
          }
        ],
        "numberOfBytes": "32"
      },
      "t_struct(WithdrawalQueueMetadata)55241_storage": {
        "encoding": "inplace",
        "label": "struct VaultStorage.WithdrawalQueueMetadata",
        "members": [
          {
            "astId": 55234,
            "contract": "contracts/vault/OETHVaultAdmin.sol:OETHVaultAdmin",
            "label": "queued",
            "offset": 0,
            "slot": "0",
            "type": "t_uint128"
          },
          {
            "astId": 55236,
            "contract": "contracts/vault/OETHVaultAdmin.sol:OETHVaultAdmin",
            "label": "claimable",
            "offset": 16,
            "slot": "0",
            "type": "t_uint128"
          },
          {
            "astId": 55238,
            "contract": "contracts/vault/OETHVaultAdmin.sol:OETHVaultAdmin",
            "label": "claimed",
            "offset": 0,
            "slot": "1",
            "type": "t_uint128"
          },
          {
            "astId": 55240,
            "contract": "contracts/vault/OETHVaultAdmin.sol:OETHVaultAdmin",
            "label": "nextWithdrawalIndex",
            "offset": 16,
            "slot": "1",
            "type": "t_uint128"
          }
        ],
        "numberOfBytes": "64"
      },
      "t_struct(WithdrawalRequest)55256_storage": {
        "encoding": "inplace",
        "label": "struct VaultStorage.WithdrawalRequest",
        "members": [
          {
            "astId": 55247,
            "contract": "contracts/vault/OETHVaultAdmin.sol:OETHVaultAdmin",
            "label": "withdrawer",
            "offset": 0,
            "slot": "0",
            "type": "t_address"
          },
          {
            "astId": 55249,
            "contract": "contracts/vault/OETHVaultAdmin.sol:OETHVaultAdmin",
            "label": "claimed",
            "offset": 20,
            "slot": "0",
            "type": "t_bool"
          },
          {
            "astId": 55251,
            "contract": "contracts/vault/OETHVaultAdmin.sol:OETHVaultAdmin",
            "label": "timestamp",
            "offset": 21,
            "slot": "0",
            "type": "t_uint40"
          },
          {
            "astId": 55253,
            "contract": "contracts/vault/OETHVaultAdmin.sol:OETHVaultAdmin",
            "label": "amount",
            "offset": 0,
            "slot": "1",
            "type": "t_uint128"
          },
          {
            "astId": 55255,
            "contract": "contracts/vault/OETHVaultAdmin.sol:OETHVaultAdmin",
            "label": "queued",
            "offset": 16,
            "slot": "1",
            "type": "t_uint128"
          }
        ],
        "numberOfBytes": "64"
      },
      "t_uint128": {
        "encoding": "inplace",
        "label": "uint128",
        "numberOfBytes": "16"
      },
      "t_uint16": {
        "encoding": "inplace",
        "label": "uint16",
        "numberOfBytes": "2"
      },
      "t_uint256": {
        "encoding": "inplace",
        "label": "uint256",
        "numberOfBytes": "32"
      },
      "t_uint40": {
        "encoding": "inplace",
        "label": "uint40",
        "numberOfBytes": "5"
      },
      "t_uint8": {
        "encoding": "inplace",
        "label": "uint8",
        "numberOfBytes": "1"
      }
    }
  }
}