{
  "address": "0x1D6E0d7A1244276acf22a4E1dfC3C58186b1f624",
  "abi": [
    {
      "inputs": [
        {
          "internalType": "address",
          "name": "_vault",
          "type": "address"
        }
      ],
      "stateMutability": "nonpayable",
      "type": "constructor"
    },
    {
      "anonymous": false,
      "inputs": [
        {
          "indexed": true,
          "internalType": "address",
          "name": "previousGovernor",
          "type": "address"
        },
        {
          "indexed": true,
          "internalType": "address",
          "name": "newGovernor",
          "type": "address"
        }
      ],
      "name": "GovernorshipTransferred",
      "type": "event"
    },
    {
      "anonymous": false,
      "inputs": [
        {
          "indexed": true,
          "internalType": "address",
          "name": "previousGovernor",
          "type": "address"
        },
        {
          "indexed": true,
          "internalType": "address",
          "name": "newGovernor",
          "type": "address"
        }
      ],
      "name": "PendingGovernorshipTransfer",
      "type": "event"
    },
    {
      "anonymous": false,
      "inputs": [
        {
          "indexed": false,
          "internalType": "address",
          "name": "_tokenAddress",
          "type": "address"
        },
        {
          "indexed": false,
          "internalType": "uint16",
          "name": "_allowedSlippageBps",
          "type": "uint16"
        },
        {
          "indexed": false,
          "internalType": "uint16",
          "name": "_harvestRewardBps",
          "type": "uint16"
        },
        {
          "indexed": false,
          "internalType": "address",
          "name": "_uniswapV2CompatibleAddr",
          "type": "address"
        },
        {
          "indexed": false,
          "internalType": "uint256",
          "name": "_liquidationLimit",
          "type": "uint256"
        },
        {
          "indexed": false,
          "internalType": "bool",
          "name": "_doSwapRewardToken",
          "type": "bool"
        }
      ],
      "name": "RewardTokenConfigUpdated",
      "type": "event"
    },
    {
      "anonymous": false,
      "inputs": [
        {
          "indexed": false,
          "internalType": "address",
          "name": "_address",
          "type": "address"
        },
        {
          "indexed": false,
          "internalType": "bool",
          "name": "_isSupported",
          "type": "bool"
        }
      ],
      "name": "SupportedStrategyUpdate",
      "type": "event"
    },
    {
      "anonymous": false,
      "inputs": [
        {
          "indexed": false,
          "internalType": "address",
          "name": "_address",
          "type": "address"
        }
      ],
      "name": "UniswapUpdated",
      "type": "event"
    },
    {
      "inputs": [],
      "name": "claimGovernance",
      "outputs": [],
      "stateMutability": "nonpayable",
      "type": "function"
    },
    {
      "inputs": [],
      "name": "governor",
      "outputs": [
        {
          "internalType": "address",
          "name": "",
          "type": "address"
        }
      ],
      "stateMutability": "view",
      "type": "function"
    },
    {
      "inputs": [
        {
          "internalType": "address",
          "name": "_strategyAddr",
          "type": "address"
        }
      ],
      "name": "harvest",
      "outputs": [],
      "stateMutability": "nonpayable",
      "type": "function"
    },
    {
      "inputs": [],
      "name": "harvest",
      "outputs": [],
      "stateMutability": "nonpayable",
      "type": "function"
    },
    {
      "inputs": [],
      "name": "harvestAndSwap",
      "outputs": [],
      "stateMutability": "nonpayable",
      "type": "function"
    },
    {
      "inputs": [
        {
          "internalType": "address",
          "name": "_strategyAddr",
          "type": "address"
        }
      ],
      "name": "harvestAndSwap",
      "outputs": [],
      "stateMutability": "nonpayable",
      "type": "function"
    },
    {
      "inputs": [
        {
          "internalType": "address",
          "name": "_strategyAddr",
          "type": "address"
        },
        {
          "internalType": "address",
          "name": "_rewardTo",
          "type": "address"
        }
      ],
      "name": "harvestAndSwap",
      "outputs": [],
      "stateMutability": "nonpayable",
      "type": "function"
    },
    {
      "inputs": [],
      "name": "isGovernor",
      "outputs": [
        {
          "internalType": "bool",
          "name": "",
          "type": "bool"
        }
      ],
      "stateMutability": "view",
      "type": "function"
    },
    {
      "inputs": [],
      "name": "rewardProceedsAddress",
      "outputs": [
        {
          "internalType": "address",
          "name": "",
          "type": "address"
        }
      ],
      "stateMutability": "view",
      "type": "function"
    },
    {
      "inputs": [
        {
          "internalType": "address",
          "name": "",
          "type": "address"
        }
      ],
      "name": "rewardTokenConfigs",
      "outputs": [
        {
          "internalType": "uint16",
          "name": "allowedSlippageBps",
          "type": "uint16"
        },
        {
          "internalType": "uint16",
          "name": "harvestRewardBps",
          "type": "uint16"
        },
        {
          "internalType": "address",
          "name": "uniswapV2CompatibleAddr",
          "type": "address"
        },
        {
          "internalType": "bool",
          "name": "doSwapRewardToken",
          "type": "bool"
        },
        {
          "internalType": "uint256",
          "name": "liquidationLimit",
          "type": "uint256"
        }
      ],
      "stateMutability": "view",
      "type": "function"
    },
    {
      "inputs": [
        {
          "internalType": "address",
          "name": "_tokenAddress",
          "type": "address"
        },
        {
          "internalType": "uint16",
          "name": "_allowedSlippageBps",
          "type": "uint16"
        },
        {
          "internalType": "uint16",
          "name": "_harvestRewardBps",
          "type": "uint16"
        },
        {
          "internalType": "address",
          "name": "_uniswapV2CompatibleAddr",
          "type": "address"
        },
        {
          "internalType": "uint256",
          "name": "_liquidationLimit",
          "type": "uint256"
        },
        {
          "internalType": "bool",
          "name": "_doSwapRewardToken",
          "type": "bool"
        }
      ],
      "name": "setRewardTokenConfig",
      "outputs": [],
      "stateMutability": "nonpayable",
      "type": "function"
    },
    {
      "inputs": [
        {
          "internalType": "address",
          "name": "_rewardProceedsAddress",
          "type": "address"
        }
      ],
      "name": "setRewardsProceedsAddress",
      "outputs": [],
      "stateMutability": "nonpayable",
      "type": "function"
    },
    {
      "inputs": [
        {
          "internalType": "address",
          "name": "_strategyAddress",
          "type": "address"
        },
        {
          "internalType": "bool",
          "name": "_isSupported",
          "type": "bool"
        }
      ],
      "name": "setSupportedStrategy",
      "outputs": [],
      "stateMutability": "nonpayable",
      "type": "function"
    },
    {
      "inputs": [
        {
          "internalType": "address",
          "name": "",
          "type": "address"
        }
      ],
      "name": "supportedStrategies",
      "outputs": [
        {
          "internalType": "bool",
          "name": "",
          "type": "bool"
        }
      ],
      "stateMutability": "view",
      "type": "function"
    },
    {
      "inputs": [],
      "name": "swap",
      "outputs": [],
      "stateMutability": "nonpayable",
      "type": "function"
    },
    {
      "inputs": [
        {
          "internalType": "address",
          "name": "_swapToken",
          "type": "address"
        }
      ],
      "name": "swapRewardToken",
      "outputs": [],
      "stateMutability": "nonpayable",
      "type": "function"
    },
    {
      "inputs": [
        {
          "internalType": "address",
          "name": "_newGovernor",
          "type": "address"
        }
      ],
      "name": "transferGovernance",
      "outputs": [],
      "stateMutability": "nonpayable",
      "type": "function"
    },
    {
      "inputs": [
        {
          "internalType": "address",
          "name": "_asset",
          "type": "address"
        },
        {
          "internalType": "uint256",
          "name": "_amount",
          "type": "uint256"
        }
      ],
      "name": "transferToken",
      "outputs": [],
      "stateMutability": "nonpayable",
      "type": "function"
    },
    {
      "inputs": [],
      "name": "vaultAddress",
      "outputs": [
        {
          "internalType": "address",
          "name": "",
          "type": "address"
        }
      ],
      "stateMutability": "view",
      "type": "function"
    }
  ],
  "transactionHash": "0x640f0c950f433cabed093d61138177e8eebe9bfb2fe35ec85a3c70296bfd8638",
  "args": [
    "0x39254033945AA2E4809Cc2977E7087BEE48bd7Ab"
  ],
  "solcInputHash": "3180b890bce877902c7cf982bc7b2dda",
  "bytecode": "0x60a06040523480156200001157600080fd5b5060405162002580380380620025808339810160408190526200003491620000c0565b806200004d336000805160206200256083398151915255565b60008051602062002560833981519152546040516001600160a01b03909116906000907fc7c0c772add429241571afb3805861fb3cfa2af374534088b76cdb4325a87e9a908290a36001600160a01b038116620000a957600080fd5b60601b6001600160601b03191660805250620000f2565b600060208284031215620000d357600080fd5b81516001600160a01b0381168114620000eb57600080fd5b9392505050565b60805160601c61242c62000134600039600081816101a6015281816106ee01528181610abf01528181610e4e01528181610f270152611196015261242c6000f3fe608060405234801561001057600080fd5b50600436106101215760003560e01c8063587c8440116100ad578063b76e83af11610071578063b76e83af146102aa578063bb444881146102bd578063c7af3352146102d0578063d38bfff4146102e8578063ee3be5f5146102fb57600080fd5b8063587c8440146101e35780635d36b1901461027457806365f6fa941461027c5780638119c0651461028f578063a994317f1461029757600080fd5b80631072cbea116100f45780631072cbea1461017b57806326aaf9cf1461018e578063430bf08a146101a15780634641257d146101c8578063548f5ae5146101d057600080fd5b806305f566e5146101265780630c340a241461013b5780630e5c011e146101605780630fbd780814610173575b600080fd5b610139610134366004611d5f565b61031e565b005b6101436103e1565b6040516001600160a01b0390911681526020015b60405180910390f35b61013961016e366004611d5f565b6103fe565b610139610469565b610139610189366004611e75565b6104e7565b61013961019c366004611d5f565b61052b565b6101437f000000000000000000000000000000000000000000000000000000000000000081565b61013961059b565b6101396101de366004611d5f565b6105fd565b6102386101f1366004611d5f565b6000602081905290815260409020805460019091015461ffff808316926201000081049091169164010000000082046001600160a01b031691600160c01b900460ff169085565b6040805161ffff96871681529590941660208601526001600160a01b03909216928401929092529015156060830152608082015260a001610157565b61013961063d565b61013961028a366004611dd2565b6106e3565b6101396107d8565b6101396102a5366004611d99565b610846565b600254610143906001600160a01b031681565b6101396102cb366004611e00565b61088f565b6102d8610cb1565b6040519015158152602001610157565b6101396102f6366004611d5f565b610ce2565b6102d8610309366004611d5f565b60016020526000908152604090205460ff1681565b610326610cb1565b61034b5760405162461bcd60e51b81526004016103429061207b565b60405180910390fd5b6001600160a01b0381166103bf5760405162461bcd60e51b815260206004820152603560248201527f526577617264732070726f636565647320616464726573732073686f756c642060448201527462652061206e6f6e207a65726f206164647265737360581b6064820152608401610342565b600280546001600160a01b0319166001600160a01b0392909216919091179055565b60006103f96000805160206123d78339815191525490565b905090565b610406610cb1565b6104225760405162461bcd60e51b81526004016103429061207b565b6000805160206123b7833981519152805460028114156104545760405162461bcd60e51b8152600401610342906120b2565b6002825561046183610d86565b506001905550565b610471610cb1565b61048d5760405162461bcd60e51b81526004016103429061207b565b6000805160206123b7833981519152805460028114156104bf5760405162461bcd60e51b8152600401610342906120b2565b600282556104cb610e4a565b6002546104e0906001600160a01b0316610f23565b5060019055565b6104ef610cb1565b61050b5760405162461bcd60e51b81526004016103429061207b565b6105276105166103e1565b6001600160a01b03841690836110bb565b5050565b610533610cb1565b61054f5760405162461bcd60e51b81526004016103429061207b565b6000805160206123b7833981519152805460028114156105815760405162461bcd60e51b8152600401610342906120b2565b6002808355546104619084906001600160a01b031661111e565b6105a3610cb1565b6105bf5760405162461bcd60e51b81526004016103429061207b565b6000805160206123b7833981519152805460028114156105f15760405162461bcd60e51b8152600401610342906120b2565b600282556104e0610e4a565b6000805160206123b78339815191528054600281141561062f5760405162461bcd60e51b8152600401610342906120b2565b6002825561046183336116c8565b7f44c4d30b2eaad5130ad70c3ba6972730566f3e6359ab83e800d905c61b1c51db546001600160a01b0316336001600160a01b0316146106d85760405162461bcd60e51b815260206004820152603060248201527f4f6e6c79207468652070656e64696e6720476f7665726e6f722063616e20636f60448201526f6d706c6574652074686520636c61696d60801b6064820152608401610342565b6106e133611797565b565b336001600160a01b037f000000000000000000000000000000000000000000000000000000000000000016148061071d575061071d610cb1565b6107755760405162461bcd60e51b815260206004820152602360248201527f43616c6c6572206973206e6f7420746865205661756c74206f7220476f7665726044820152623737b960e91b6064820152608401610342565b6001600160a01b038216600081815260016020908152604091829020805460ff19168515159081179091558251938452908301527f013ed61add17cbfcbbd95bf8543da67c89658c5477d3f3199a1a2d58ecf1913f910160405180910390a15050565b6107e0610cb1565b6107fc5760405162461bcd60e51b81526004016103429061207b565b6000805160206123b78339815191528054600281141561082e5760405162461bcd60e51b8152600401610342906120b2565b6002808355546104e0906001600160a01b0316610f23565b6000805160206123b7833981519152805460028114156108785760405162461bcd60e51b8152600401610342906120b2565b6002825561088684846116c8565b50600190555050565b610897610cb1565b6108b35760405162461bcd60e51b81526004016103429061207b565b6103e88561ffff1611156109195760405162461bcd60e51b815260206004820152602760248201527f416c6c6f77656420736c6970706167652073686f756c64206e6f74206265206f6044820152667665722031302560c81b6064820152608401610342565b6103e88461ffff1611156109815760405162461bcd60e51b815260206004820152602960248201527f4861727665737420726577617264206665652073686f756c64206e6f74206265604482015268206f7665722031302560b81b6064820152608401610342565b6001600160a01b0383166109f55760405162461bcd60e51b815260206004820152603560248201527f556e697377617020636f6d70617469626c6520616464726573732073686f756c60448201527464206265206e6f6e207a65726f206164647265737360581b6064820152608401610342565b6040805160a08101825261ffff878116825286811660208084019182526001600160a01b0388811685870190815287151560608701908152608087018a81528e8416600090815280865289812080548a51985195519451988a1663ffffffff198216176201000096909a169590950298909817640100000000600160c81b031916640100000000938616840260ff60c01b191617600160c01b97151597909702969096178755516001909601959095558651635c4443cf60e11b8152965195969490048116948c947f00000000000000000000000000000000000000000000000000000000000000009092169263b888879e9260048082019391829003018186803b158015610b0357600080fd5b505afa158015610b17573d6000803e3d6000fd5b505050506040513d601f19601f82011682018060405250810190610b3b9190611d7c565b6040516315d5220f60e31b81526001600160a01b038c811660048301529192509082169063aea910789060240160206040518083038186803b158015610b8057600080fd5b505afa158015610b94573d6000803e3d6000fd5b505050506040513d601f19601f82011682018060405250810190610bb89190611ff0565b506001600160a01b03831615801590610be35750866001600160a01b0316836001600160a01b031614155b15610bfd57610bfd6001600160a01b03831684600061185b565b866001600160a01b0316836001600160a01b031614610c4157610c2b6001600160a01b03831688600061185b565b610c416001600160a01b0383168860001961185b565b604080516001600160a01b038c8116825261ffff8c811660208401528b1682840152891660608201526080810188905286151560a082015290517fa366f54fe2381dd56321b1e05d11e00e0acbbee5663bcd5111ed8f604ba530ad9181900360c00190a150505050505050505050565b6000610cc96000805160206123d78339815191525490565b6001600160a01b0316336001600160a01b031614905090565b610cea610cb1565b610d065760405162461bcd60e51b81526004016103429061207b565b610d2e817f44c4d30b2eaad5130ad70c3ba6972730566f3e6359ab83e800d905c61b1c51db55565b806001600160a01b0316610d4e6000805160206123d78339815191525490565b6001600160a01b03167fa39cc5eb22d0f34d8beaefee8a3f17cc229c1a1d1ef87a5ad47313487b1c4f0d60405160405180910390a350565b6001600160a01b03811660009081526001602052604090205460ff16610dee5760405162461bcd60e51b815260206004820152601c60248201527f4e6f7420612076616c69642073747261746567792061646472657373000000006044820152606401610342565b6000819050806001600160a01b0316635a063f636040518163ffffffff1660e01b8152600401600060405180830381600087803b158015610e2e57600080fd5b505af1158015610e42573d6000803e3d6000fd5b505050505050565b60007f00000000000000000000000000000000000000000000000000000000000000006001600160a01b031663c3b288646040518163ffffffff1660e01b815260040160006040518083038186803b158015610ea557600080fd5b505afa158015610eb9573d6000803e3d6000fd5b505050506040513d6000823e601f3d908101601f19168201604052610ee19190810190611ea1565b905060005b815181101561052757610f11828281518110610f0457610f04612367565b6020026020010151610d86565b80610f1b81612336565b915050610ee6565b60007f00000000000000000000000000000000000000000000000000000000000000006001600160a01b031663c3b288646040518163ffffffff1660e01b815260040160006040518083038186803b158015610f7e57600080fd5b505afa158015610f92573d6000803e3d6000fd5b505050506040513d6000823e601f3d908101601f19168201604052610fba9190810190611ea1565b905060005b81518110156110b6576000828281518110610fdc57610fdc612367565b602002602001015190506000816001600160a01b031663f6ca71b06040518163ffffffff1660e01b815260040160006040518083038186803b15801561102157600080fd5b505afa158015611035573d6000803e3d6000fd5b505050506040513d6000823e601f3d908101601f1916820160405261105d9190810190611ea1565b905060005b81518110156110a05761108e82828151811061108057611080612367565b60200260200101518761111e565b8061109881612336565b915050611062565b50505080806110ae90612336565b915050610fbf565b505050565b6040516001600160a01b0383166024820152604481018290526110b690849063a9059cbb60e01b906064015b60408051601f198184030181529190526020810180516001600160e01b03166001600160e01b03199093169290921790915261197f565b6001600160a01b0382811660009081526020818152604091829020825160a081018452815461ffff80821683526201000082041693820193909352640100000000830490941692840192909252600160c01b900460ff16151560608301819052600190910154608083015261119257505050565b60007f00000000000000000000000000000000000000000000000000000000000000006001600160a01b031663b888879e6040518163ffffffff1660e01b815260040160206040518083038186803b1580156111ed57600080fd5b505afa158015611201573d6000803e3d6000fd5b505050506040513d601f19601f820116820180604052508101906112259190611d7c565b6040516370a0823160e01b815230600482015290915084906000906001600160a01b038316906370a082319060240160206040518083038186803b15801561126c57600080fd5b505afa158015611280573d6000803e3d6000fd5b505050506040513d601f19601f820116820180604052508101906112a49190611ff0565b9050806112b357505050505050565b60006112c3828660800151611a51565b6040516315d5220f60e31b81526001600160a01b03898116600483015291925060009186169063aea910789060240160206040518083038186803b15801561130a57600080fd5b505afa15801561131e573d6000803e3d6000fd5b505050506040513d601f19601f820116820180604052508101906113429190611ff0565b90506000670de0b6b3a764000061271061138f60126113608d611a6b565b8b518790611370906127106122cc565b61137e9061ffff168a6122ad565b61138891906122ad565b9190611b54565b61139991906121a0565b6113a391906121a0565b9050600087604001516001600160a01b031663ad5c46486040518163ffffffff1660e01b815260040160206040518083038186803b1580156113e457600080fd5b505afa1580156113f8573d6000803e3d6000fd5b505050506040513d601f19601f8201168201806040525081019061141c9190611d7c565b60408051600280825260608201835292935060009290916020830190803683370190505090508a8160008151811061145657611456612367565b60200260200101906001600160a01b031690816001600160a01b031681525050818160018151811061148a5761148a612367565b6001600160a01b0392831660209182029290920101526040808b015190516338ed173960e01b81529116906338ed1739906114d190889087908690309042906004016120da565b600060405180830381600087803b1580156114eb57600080fd5b505af11580156114ff573d6000803e3d6000fd5b505050506040513d6000823e601f3d908101601f191682016040526115279190810190611f47565b506040516370a0823160e01b815230600482015282906000906001600160a01b038316906370a082319060240160206040518083038186803b15801561156c57600080fd5b505afa158015611580573d6000803e3d6000fd5b505050506040513d601f19601f820116820180604052508101906115a49190611ff0565b905060008b602001516127106115ba91906122cc565b61ffff16905060006127106115cf83856122ad565b6115d991906121a0565b90508c6020015161ffff16821161167e5760405162461bcd60e51b815260206004820152605f60248201527f4164647265737320726563656976696e67206861727665737420696e63656e7460448201527f69766520697320726563656976696e67206d6f7265207265776172647320746860648201527f616e2074686520726577617264732070726f6365656473206164647265737300608482015260a401610342565b600254611698906001600160a01b038681169116836110bb565b6116b78e6116a683866122ef565b6001600160a01b03871691906110bb565b505050505050505050505050505050565b6116d182610d86565b60008290506000816001600160a01b031663f6ca71b06040518163ffffffff1660e01b815260040160006040518083038186803b15801561171157600080fd5b505afa158015611725573d6000803e3d6000fd5b505050506040513d6000823e601f3d908101601f1916820160405261174d9190810190611ea1565b905060005b81518110156117905761177e82828151811061177057611770612367565b60200260200101518561111e565b8061178881612336565b915050611752565b5050505050565b6001600160a01b0381166117ed5760405162461bcd60e51b815260206004820152601a60248201527f4e657720476f7665726e6f7220697320616464726573732830290000000000006044820152606401610342565b806001600160a01b031661180d6000805160206123d78339815191525490565b6001600160a01b03167fc7c0c772add429241571afb3805861fb3cfa2af374534088b76cdb4325a87e9a60405160405180910390a3611858816000805160206123d783398151915255565b50565b8015806118e45750604051636eb1769f60e11b81523060048201526001600160a01b03838116602483015284169063dd62ed3e9060440160206040518083038186803b1580156118aa57600080fd5b505afa1580156118be573d6000803e3d6000fd5b505050506040513d601f19601f820116820180604052508101906118e29190611ff0565b155b61194f5760405162461bcd60e51b815260206004820152603660248201527f5361666545524332303a20617070726f76652066726f6d206e6f6e2d7a65726f60448201527520746f206e6f6e2d7a65726f20616c6c6f77616e636560501b6064820152608401610342565b6040516001600160a01b0383166024820152604481018290526110b690849063095ea7b360e01b906064016110e7565b60006119d4826040518060400160405280602081526020017f5361666545524332303a206c6f772d6c6576656c2063616c6c206661696c6564815250856001600160a01b0316611bb89092919063ffffffff16565b8051909150156110b657808060200190518101906119f29190611fd3565b6110b65760405162461bcd60e51b815260206004820152602a60248201527f5361666545524332303a204552433230206f7065726174696f6e20646964206e6044820152691bdd081cdd58d8d9595960b21b6064820152608401610342565b6000818310611a605781611a62565b825b90505b92915050565b600080826001600160a01b031663313ce5676040518163ffffffff1660e01b815260040160206040518083038186803b158015611aa757600080fd5b505afa158015611abb573d6000803e3d6000fd5b505050506040513d601f19601f82011682018060405250810190611adf9190612009565b60ff16905060048110158015611af6575060128111155b611a655760405162461bcd60e51b815260206004820152602960248201527f546f6b656e206d75737420686176652073756666696369656e7420646563696d604482015268616c20706c6163657360b81b6064820152608401610342565b600081831115611b8457611b7d611b6b83856122ef565b611b7690600a612205565b8590611bcf565b9350611bae565b81831015611bae57611bab611b9984846122ef565b611ba490600a612205565b8590611bdb565b93505b50825b9392505050565b6060611bc78484600085611be7565b949350505050565b6000611a6282846122ad565b6000611a6282846121a0565b606082471015611c485760405162461bcd60e51b815260206004820152602660248201527f416464726573733a20696e73756666696369656e742062616c616e636520666f6044820152651c8818d85b1b60d21b6064820152608401610342565b843b611c965760405162461bcd60e51b815260206004820152601d60248201527f416464726573733a2063616c6c20746f206e6f6e2d636f6e74726163740000006044820152606401610342565b600080866001600160a01b03168587604051611cb2919061202c565b60006040518083038185875af1925050503d8060008114611cef576040519150601f19603f3d011682016040523d82523d6000602084013e611cf4565b606091505b5091509150611d04828286611d0f565b979650505050505050565b60608315611d1e575081611bb1565b825115611d2e5782518084602001fd5b8160405162461bcd60e51b81526004016103429190612048565b803561ffff81168114611d5a57600080fd5b919050565b600060208284031215611d7157600080fd5b8135611bb181612393565b600060208284031215611d8e57600080fd5b8151611bb181612393565b60008060408385031215611dac57600080fd5b8235611db781612393565b91506020830135611dc781612393565b809150509250929050565b60008060408385031215611de557600080fd5b8235611df081612393565b91506020830135611dc7816123a8565b60008060008060008060c08789031215611e1957600080fd5b8635611e2481612393565b9550611e3260208801611d48565b9450611e4060408801611d48565b93506060870135611e5081612393565b92506080870135915060a0870135611e67816123a8565b809150509295509295509295565b60008060408385031215611e8857600080fd5b8235611e9381612393565b946020939093013593505050565b60006020808385031215611eb457600080fd5b825167ffffffffffffffff811115611ecb57600080fd5b8301601f81018513611edc57600080fd5b8051611eef611eea8261217c565b61214b565b80828252848201915084840188868560051b8701011115611f0f57600080fd5b600094505b83851015611f3b578051611f2781612393565b835260019490940193918501918501611f14565b50979650505050505050565b60006020808385031215611f5a57600080fd5b825167ffffffffffffffff811115611f7157600080fd5b8301601f81018513611f8257600080fd5b8051611f90611eea8261217c565b80828252848201915084840188868560051b8701011115611fb057600080fd5b600094505b83851015611f3b578051835260019490940193918501918501611fb5565b600060208284031215611fe557600080fd5b8151611bb1816123a8565b60006020828403121561200257600080fd5b5051919050565b60006020828403121561201b57600080fd5b815160ff81168114611bb157600080fd5b6000825161203e818460208701612306565b9190910192915050565b6020815260008251806020840152612067816040850160208701612306565b601f01601f19169190910160400192915050565b6020808252601a908201527f43616c6c6572206973206e6f742074686520476f7665726e6f72000000000000604082015260600190565b6020808252600e908201526d1499595b9d1c985b9d0818d85b1b60921b604082015260600190565b600060a082018783526020878185015260a0604085015281875180845260c086019150828901935060005b8181101561212a5784516001600160a01b031683529383019391830191600101612105565b50506001600160a01b03969096166060850152505050608001529392505050565b604051601f8201601f1916810167ffffffffffffffff811182821017156121745761217461237d565b604052919050565b600067ffffffffffffffff8211156121965761219661237d565b5060051b60200190565b6000826121bd57634e487b7160e01b600052601260045260246000fd5b500490565b600181815b808511156121fd5781600019048211156121e3576121e3612351565b808516156121f057918102915b93841c93908002906121c7565b509250929050565b6000611a62838360008261221b57506001611a65565b8161222857506000611a65565b816001811461223e576002811461224857612264565b6001915050611a65565b60ff84111561225957612259612351565b50506001821b611a65565b5060208310610133831016604e8410600b8410161715612287575081810a611a65565b61229183836121c2565b80600019048211156122a5576122a5612351565b029392505050565b60008160001904831182151516156122c7576122c7612351565b500290565b600061ffff838116908316818110156122e7576122e7612351565b039392505050565b60008282101561230157612301612351565b500390565b60005b83811015612321578181015183820152602001612309565b83811115612330576000848401525b50505050565b600060001982141561234a5761234a612351565b5060010190565b634e487b7160e01b600052601160045260246000fd5b634e487b7160e01b600052603260045260246000fd5b634e487b7160e01b600052604160045260246000fd5b6001600160a01b038116811461185857600080fd5b801515811461185857600080fdfe53bf423e48ed90e97d02ab0ebab13b2a235a6bfbe9c321847d5c175333ac45357bea13895fa79d2831e0a9e28edede30099005a50d652d8957cf8a607ee6ca4aa264697066735822122073cce3ab51ea2e787f2242d9d04e8bec328de8209e75eec953794cbbbf9346d464736f6c634300080700337bea13895fa79d2831e0a9e28edede30099005a50d652d8957cf8a607ee6ca4a",
  "devdoc": {
    "kind": "dev",
    "methods": {
      "claimGovernance()": {
        "details": "Claim Governance of the contract to a new account (`newGovernor`). Can only be called by the new Governor."
      },
      "governor()": {
        "details": "Returns the address of the current Governor."
      },
      "harvest()": {
        "details": "Collect reward tokens from all strategies"
      },
      "harvest(address)": {
        "details": "Collect reward tokens for a specific strategy.",
        "params": {
          "_strategyAddr": "Address of the strategy to collect rewards from"
        }
      },
      "harvestAndSwap(address)": {
        "details": "Collect reward tokens for a specific strategy and swap for supported      stablecoin via Uniswap. Can be called by anyone. Rewards incentivizing      the caller are sent to the caller of this function.",
        "params": {
          "_strategyAddr": "Address of the strategy to collect rewards from"
        }
      },
      "harvestAndSwap(address,address)": {
        "details": "Collect reward tokens for a specific strategy and swap for supported      stablecoin via Uniswap. Can be called by anyone.",
        "params": {
          "_rewardTo": "Address where to send a share of harvest rewards to as an incentive      for executing this function",
          "_strategyAddr": "Address of the strategy to collect rewards from"
        }
      },
      "isGovernor()": {
        "details": "Returns true if the caller is the current Governor."
      },
      "setRewardTokenConfig(address,uint16,uint16,address,uint256,bool)": {
        "details": "Add/update a reward token configuration that holds harvesting config variables",
        "params": {
          "_allowedSlippageBps": "uint16 maximum allowed slippage denominated in basis points.        Example: 300 == 3% slippage",
          "_doSwapRewardToken": "bool When true the reward token is being swapped. In a need of (temporarily)        disabling the swapping of a reward token this needs to be set to false.",
          "_harvestRewardBps": "uint16 amount of reward tokens the caller of the function is rewarded.        Example: 100 == 1%",
          "_liquidationLimit": "uint256 Maximum amount of token to be sold per one swap function call.        When value is 0 there is no limit.",
          "_tokenAddress": "Address of the reward token",
          "_uniswapV2CompatibleAddr": "Address Address of a UniswapV2 compatible contract to perform        the exchange from reward tokens to stablecoin (currently hard-coded to USDT)"
        }
      },
      "setRewardsProceedsAddress(address)": {
        "params": {
          "_rewardProceedsAddress": "Address of the reward token"
        }
      },
      "setSupportedStrategy(address,bool)": {
        "details": "Flags a strategy as supported or not supported one",
        "params": {
          "_isSupported": "Bool marking strategy as supported or not supported",
          "_strategyAddress": "Address of the strategy"
        }
      },
      "swap()": {
        "details": "Swap all supported swap tokens for stablecoins via Uniswap."
      },
      "swapRewardToken(address)": {
        "details": "Governance convenience function to swap a specific _rewardToken and send       rewards to the vault.",
        "params": {
          "_swapToken": "Address of the token to swap."
        }
      },
      "transferGovernance(address)": {
        "details": "Transfers Governance of the contract to a new account (`newGovernor`). Can only be called by the current Governor. Must be claimed for this to complete",
        "params": {
          "_newGovernor": "Address of the new Governor"
        }
      },
      "transferToken(address,uint256)": {
        "details": "Transfer token to governor. Intended for recovering tokens stuck in      contract, i.e. mistaken sends.",
        "params": {
          "_amount": "Amount of the asset to transfer",
          "_asset": "Address for the asset"
        }
      }
    },
    "version": 1
  },
  "userdoc": {
    "kind": "user",
    "methods": {
      "rewardProceedsAddress()": {
        "notice": "Address receiving rewards proceeds. Initially the Vault contract later will possibly be replaced by another contract that eases out rewards distribution."
      },
      "setRewardsProceedsAddress(address)": {
        "notice": "Set the Address receiving rewards proceeds."
      }
    },
    "version": 1
  },
  "storageLayout": {
    "storage": [
      {
        "astId": 4591,
        "contract": "contracts/harvest/OETHHarvester.sol:OETHHarvester",
        "label": "rewardTokenConfigs",
        "offset": 0,
        "slot": "0",
        "type": "t_mapping(t_address,t_struct(RewardTokenConfig)4586_storage)"
      },
      {
        "astId": 4595,
        "contract": "contracts/harvest/OETHHarvester.sol:OETHHarvester",
        "label": "supportedStrategies",
        "offset": 0,
        "slot": "1",
        "type": "t_mapping(t_address,t_bool)"
      },
      {
        "astId": 4600,
        "contract": "contracts/harvest/OETHHarvester.sol:OETHHarvester",
        "label": "rewardProceedsAddress",
        "offset": 0,
        "slot": "2",
        "type": "t_address"
      }
    ],
    "types": {
      "t_address": {
        "encoding": "inplace",
        "label": "address",
        "numberOfBytes": "20"
      },
      "t_bool": {
        "encoding": "inplace",
        "label": "bool",
        "numberOfBytes": "1"
      },
      "t_mapping(t_address,t_bool)": {
        "encoding": "mapping",
        "key": "t_address",
        "label": "mapping(address => bool)",
        "numberOfBytes": "32",
        "value": "t_bool"
      },
      "t_mapping(t_address,t_struct(RewardTokenConfig)4586_storage)": {
        "encoding": "mapping",
        "key": "t_address",
        "label": "mapping(address => struct BaseHarvester.RewardTokenConfig)",
        "numberOfBytes": "32",
        "value": "t_struct(RewardTokenConfig)4586_storage"
      },
      "t_struct(RewardTokenConfig)4586_storage": {
        "encoding": "inplace",
        "label": "struct BaseHarvester.RewardTokenConfig",
        "members": [
          {
            "astId": 4577,
            "contract": "contracts/harvest/OETHHarvester.sol:OETHHarvester",
            "label": "allowedSlippageBps",
            "offset": 0,
            "slot": "0",
            "type": "t_uint16"
          },
          {
            "astId": 4579,
            "contract": "contracts/harvest/OETHHarvester.sol:OETHHarvester",
            "label": "harvestRewardBps",
            "offset": 2,
            "slot": "0",
            "type": "t_uint16"
          },
          {
            "astId": 4581,
            "contract": "contracts/harvest/OETHHarvester.sol:OETHHarvester",
            "label": "uniswapV2CompatibleAddr",
            "offset": 4,
            "slot": "0",
            "type": "t_address"
          },
          {
            "astId": 4583,
            "contract": "contracts/harvest/OETHHarvester.sol:OETHHarvester",
            "label": "doSwapRewardToken",
            "offset": 24,
            "slot": "0",
            "type": "t_bool"
          },
          {
            "astId": 4585,
            "contract": "contracts/harvest/OETHHarvester.sol:OETHHarvester",
            "label": "liquidationLimit",
            "offset": 0,
            "slot": "1",
            "type": "t_uint256"
          }
        ],
        "numberOfBytes": "64"
      },
      "t_uint16": {
        "encoding": "inplace",
        "label": "uint16",
        "numberOfBytes": "2"
      },
      "t_uint256": {
        "encoding": "inplace",
        "label": "uint256",
        "numberOfBytes": "32"
      }
    }
  }
}