{
  "address": "0xe4775E018bFC72CC3c4944E6879d64cDF885c247",
  "abi": [
    {
      "anonymous": false,
      "inputs": [
        {
          "indexed": false,
          "internalType": "uint256",
          "name": "_threshold",
          "type": "uint256"
        }
      ],
      "name": "AllocateThresholdUpdated",
      "type": "event"
    },
    {
      "anonymous": false,
      "inputs": [
        {
          "indexed": false,
          "internalType": "address",
          "name": "_asset",
          "type": "address"
        },
        {
          "indexed": false,
          "internalType": "address",
          "name": "_strategy",
          "type": "address"
        },
        {
          "indexed": false,
          "internalType": "uint256",
          "name": "_amount",
          "type": "uint256"
        }
      ],
      "name": "AssetAllocated",
      "type": "event"
    },
    {
      "anonymous": false,
      "inputs": [
        {
          "indexed": false,
          "internalType": "address",
          "name": "_asset",
          "type": "address"
        },
        {
          "indexed": false,
          "internalType": "address",
          "name": "_strategy",
          "type": "address"
        }
      ],
      "name": "AssetDefaultStrategyUpdated",
      "type": "event"
    },
    {
      "anonymous": false,
      "inputs": [
        {
          "indexed": false,
          "internalType": "address",
          "name": "_asset",
          "type": "address"
        }
      ],
      "name": "AssetSupported",
      "type": "event"
    },
    {
      "anonymous": false,
      "inputs": [],
      "name": "CapitalPaused",
      "type": "event"
    },
    {
      "anonymous": false,
      "inputs": [],
      "name": "CapitalUnpaused",
      "type": "event"
    },
    {
      "anonymous": false,
      "inputs": [
        {
          "indexed": true,
          "internalType": "address",
          "name": "previousGovernor",
          "type": "address"
        },
        {
          "indexed": true,
          "internalType": "address",
          "name": "newGovernor",
          "type": "address"
        }
      ],
      "name": "GovernorshipTransferred",
      "type": "event"
    },
    {
      "anonymous": false,
      "inputs": [
        {
          "indexed": false,
          "internalType": "uint256",
          "name": "maxSupplyDiff",
          "type": "uint256"
        }
      ],
      "name": "MaxSupplyDiffChanged",
      "type": "event"
    },
    {
      "anonymous": false,
      "inputs": [
        {
          "indexed": false,
          "internalType": "address",
          "name": "_addr",
          "type": "address"
        },
        {
          "indexed": false,
          "internalType": "uint256",
          "name": "_value",
          "type": "uint256"
        }
      ],
      "name": "Mint",
      "type": "event"
    },
    {
      "anonymous": false,
      "inputs": [
        {
          "indexed": false,
          "internalType": "uint256",
          "name": "_threshold",
          "type": "uint256"
        }
      ],
      "name": "NetOusdMintForStrategyThresholdChanged",
      "type": "event"
    },
    {
      "anonymous": false,
      "inputs": [
        {
          "indexed": false,
          "internalType": "address",
          "name": "_ousdMetaStrategy",
          "type": "address"
        }
      ],
      "name": "OusdMetaStrategyUpdated",
      "type": "event"
    },
    {
      "anonymous": false,
      "inputs": [
        {
          "indexed": true,
          "internalType": "address",
          "name": "previousGovernor",
          "type": "address"
        },
        {
          "indexed": true,
          "internalType": "address",
          "name": "newGovernor",
          "type": "address"
        }
      ],
      "name": "PendingGovernorshipTransfer",
      "type": "event"
    },
    {
      "anonymous": false,
      "inputs": [
        {
          "indexed": false,
          "internalType": "address",
          "name": "_priceProvider",
          "type": "address"
        }
      ],
      "name": "PriceProviderUpdated",
      "type": "event"
    },
    {
      "anonymous": false,
      "inputs": [],
      "name": "RebasePaused",
      "type": "event"
    },
    {
      "anonymous": false,
      "inputs": [
        {
          "indexed": false,
          "internalType": "uint256",
          "name": "_threshold",
          "type": "uint256"
        }
      ],
      "name": "RebaseThresholdUpdated",
      "type": "event"
    },
    {
      "anonymous": false,
      "inputs": [],
      "name": "RebaseUnpaused",
      "type": "event"
    },
    {
      "anonymous": false,
      "inputs": [
        {
          "indexed": false,
          "internalType": "address",
          "name": "_addr",
          "type": "address"
        },
        {
          "indexed": false,
          "internalType": "uint256",
          "name": "_value",
          "type": "uint256"
        }
      ],
      "name": "Redeem",
      "type": "event"
    },
    {
      "anonymous": false,
      "inputs": [
        {
          "indexed": false,
          "internalType": "uint256",
          "name": "_redeemFeeBps",
          "type": "uint256"
        }
      ],
      "name": "RedeemFeeUpdated",
      "type": "event"
    },
    {
      "anonymous": false,
      "inputs": [
        {
          "indexed": false,
          "internalType": "address",
          "name": "_address",
          "type": "address"
        }
      ],
      "name": "StrategistUpdated",
      "type": "event"
    },
    {
      "anonymous": false,
      "inputs": [
        {
          "indexed": false,
          "internalType": "address",
          "name": "_addr",
          "type": "address"
        }
      ],
      "name": "StrategyApproved",
      "type": "event"
    },
    {
      "anonymous": false,
      "inputs": [
        {
          "indexed": false,
          "internalType": "address",
          "name": "_addr",
          "type": "address"
        }
      ],
      "name": "StrategyRemoved",
      "type": "event"
    },
    {
      "anonymous": false,
      "inputs": [
        {
          "indexed": false,
          "internalType": "address",
          "name": "_address",
          "type": "address"
        }
      ],
      "name": "TrusteeAddressChanged",
      "type": "event"
    },
    {
      "anonymous": false,
      "inputs": [
        {
          "indexed": false,
          "internalType": "uint256",
          "name": "_basis",
          "type": "uint256"
        }
      ],
      "name": "TrusteeFeeBpsChanged",
      "type": "event"
    },
    {
      "anonymous": false,
      "inputs": [
        {
          "indexed": false,
          "internalType": "uint256",
          "name": "_vaultBuffer",
          "type": "uint256"
        }
      ],
      "name": "VaultBufferUpdated",
      "type": "event"
    },
    {
      "anonymous": false,
      "inputs": [
        {
          "indexed": false,
          "internalType": "address",
          "name": "_to",
          "type": "address"
        },
        {
          "indexed": false,
          "internalType": "uint256",
          "name": "_yield",
          "type": "uint256"
        },
        {
          "indexed": false,
          "internalType": "uint256",
          "name": "_fee",
          "type": "uint256"
        }
      ],
      "name": "YieldDistribution",
      "type": "event"
    },
    {
      "inputs": [
        {
          "internalType": "address",
          "name": "_addr",
          "type": "address"
        }
      ],
      "name": "approveStrategy",
      "outputs": [],
      "stateMutability": "nonpayable",
      "type": "function"
    },
    {
      "inputs": [
        {
          "internalType": "address",
          "name": "",
          "type": "address"
        }
      ],
      "name": "assetDefaultStrategies",
      "outputs": [
        {
          "internalType": "address",
          "name": "",
          "type": "address"
        }
      ],
      "stateMutability": "view",
      "type": "function"
    },
    {
      "inputs": [],
      "name": "autoAllocateThreshold",
      "outputs": [
        {
          "internalType": "uint256",
          "name": "",
          "type": "uint256"
        }
      ],
      "stateMutability": "view",
      "type": "function"
    },
    {
      "inputs": [
        {
          "internalType": "address",
          "name": "_asset",
          "type": "address"
        }
      ],
      "name": "cacheDecimals",
      "outputs": [],
      "stateMutability": "nonpayable",
      "type": "function"
    },
    {
      "inputs": [],
      "name": "capitalPaused",
      "outputs": [
        {
          "internalType": "bool",
          "name": "",
          "type": "bool"
        }
      ],
      "stateMutability": "view",
      "type": "function"
    },
    {
      "inputs": [],
      "name": "claimGovernance",
      "outputs": [],
      "stateMutability": "nonpayable",
      "type": "function"
    },
    {
      "inputs": [
        {
          "internalType": "address",
          "name": "_strategyToAddress",
          "type": "address"
        },
        {
          "internalType": "address[]",
          "name": "_assets",
          "type": "address[]"
        },
        {
          "internalType": "uint256[]",
          "name": "_amounts",
          "type": "uint256[]"
        }
      ],
      "name": "depositToStrategy",
      "outputs": [],
      "stateMutability": "nonpayable",
      "type": "function"
    },
    {
      "inputs": [],
      "name": "governor",
      "outputs": [
        {
          "internalType": "address",
          "name": "",
          "type": "address"
        }
      ],
      "stateMutability": "view",
      "type": "function"
    },
    {
      "inputs": [
        {
          "internalType": "address",
          "name": "_priceProvider",
          "type": "address"
        },
        {
          "internalType": "address",
          "name": "_ousd",
          "type": "address"
        }
      ],
      "name": "initialize",
      "outputs": [],
      "stateMutability": "nonpayable",
      "type": "function"
    },
    {
      "inputs": [],
      "name": "isGovernor",
      "outputs": [
        {
          "internalType": "bool",
          "name": "",
          "type": "bool"
        }
      ],
      "stateMutability": "view",
      "type": "function"
    },
    {
      "inputs": [],
      "name": "maxSupplyDiff",
      "outputs": [
        {
          "internalType": "uint256",
          "name": "",
          "type": "uint256"
        }
      ],
      "stateMutability": "view",
      "type": "function"
    },
    {
      "inputs": [],
      "name": "netOusdMintForStrategyThreshold",
      "outputs": [
        {
          "internalType": "uint256",
          "name": "",
          "type": "uint256"
        }
      ],
      "stateMutability": "view",
      "type": "function"
    },
    {
      "inputs": [],
      "name": "netOusdMintedForStrategy",
      "outputs": [
        {
          "internalType": "int256",
          "name": "",
          "type": "int256"
        }
      ],
      "stateMutability": "view",
      "type": "function"
    },
    {
      "inputs": [],
      "name": "ousdMetaStrategy",
      "outputs": [
        {
          "internalType": "address",
          "name": "",
          "type": "address"
        }
      ],
      "stateMutability": "view",
      "type": "function"
    },
    {
      "inputs": [],
      "name": "pauseCapital",
      "outputs": [],
      "stateMutability": "nonpayable",
      "type": "function"
    },
    {
      "inputs": [],
      "name": "pauseRebase",
      "outputs": [],
      "stateMutability": "nonpayable",
      "type": "function"
    },
    {
      "inputs": [],
      "name": "priceProvider",
      "outputs": [
        {
          "internalType": "address",
          "name": "",
          "type": "address"
        }
      ],
      "stateMutability": "view",
      "type": "function"
    },
    {
      "inputs": [
        {
          "internalType": "address",
          "name": "_strategyFromAddress",
          "type": "address"
        },
        {
          "internalType": "address",
          "name": "_strategyToAddress",
          "type": "address"
        },
        {
          "internalType": "address[]",
          "name": "_assets",
          "type": "address[]"
        },
        {
          "internalType": "uint256[]",
          "name": "_amounts",
          "type": "uint256[]"
        }
      ],
      "name": "reallocate",
      "outputs": [],
      "stateMutability": "nonpayable",
      "type": "function"
    },
    {
      "inputs": [],
      "name": "rebasePaused",
      "outputs": [
        {
          "internalType": "bool",
          "name": "",
          "type": "bool"
        }
      ],
      "stateMutability": "view",
      "type": "function"
    },
    {
      "inputs": [],
      "name": "rebaseThreshold",
      "outputs": [
        {
          "internalType": "uint256",
          "name": "",
          "type": "uint256"
        }
      ],
      "stateMutability": "view",
      "type": "function"
    },
    {
      "inputs": [],
      "name": "redeemFeeBps",
      "outputs": [
        {
          "internalType": "uint256",
          "name": "",
          "type": "uint256"
        }
      ],
      "stateMutability": "view",
      "type": "function"
    },
    {
      "inputs": [
        {
          "internalType": "address",
          "name": "_addr",
          "type": "address"
        }
      ],
      "name": "removeStrategy",
      "outputs": [],
      "stateMutability": "nonpayable",
      "type": "function"
    },
    {
      "inputs": [
        {
          "internalType": "address",
          "name": "newImpl",
          "type": "address"
        }
      ],
      "name": "setAdminImpl",
      "outputs": [],
      "stateMutability": "nonpayable",
      "type": "function"
    },
    {
      "inputs": [
        {
          "internalType": "address",
          "name": "_asset",
          "type": "address"
        },
        {
          "internalType": "address",
          "name": "_strategy",
          "type": "address"
        }
      ],
      "name": "setAssetDefaultStrategy",
      "outputs": [],
      "stateMutability": "nonpayable",
      "type": "function"
    },
    {
      "inputs": [
        {
          "internalType": "uint256",
          "name": "_threshold",
          "type": "uint256"
        }
      ],
      "name": "setAutoAllocateThreshold",
      "outputs": [],
      "stateMutability": "nonpayable",
      "type": "function"
    },
    {
      "inputs": [
        {
          "internalType": "uint256",
          "name": "_maxSupplyDiff",
          "type": "uint256"
        }
      ],
      "name": "setMaxSupplyDiff",
      "outputs": [],
      "stateMutability": "nonpayable",
      "type": "function"
    },
    {
      "inputs": [
        {
          "internalType": "uint256",
          "name": "_threshold",
          "type": "uint256"
        }
      ],
      "name": "setNetOusdMintForStrategyThreshold",
      "outputs": [],
      "stateMutability": "nonpayable",
      "type": "function"
    },
    {
      "inputs": [
        {
          "internalType": "address",
          "name": "_ousdMetaStrategy",
          "type": "address"
        }
      ],
      "name": "setOusdMetaStrategy",
      "outputs": [],
      "stateMutability": "nonpayable",
      "type": "function"
    },
    {
      "inputs": [
        {
          "internalType": "address",
          "name": "_priceProvider",
          "type": "address"
        }
      ],
      "name": "setPriceProvider",
      "outputs": [],
      "stateMutability": "nonpayable",
      "type": "function"
    },
    {
      "inputs": [
        {
          "internalType": "uint256",
          "name": "_threshold",
          "type": "uint256"
        }
      ],
      "name": "setRebaseThreshold",
      "outputs": [],
      "stateMutability": "nonpayable",
      "type": "function"
    },
    {
      "inputs": [
        {
          "internalType": "uint256",
          "name": "_redeemFeeBps",
          "type": "uint256"
        }
      ],
      "name": "setRedeemFeeBps",
      "outputs": [],
      "stateMutability": "nonpayable",
      "type": "function"
    },
    {
      "inputs": [
        {
          "internalType": "address",
          "name": "_address",
          "type": "address"
        }
      ],
      "name": "setStrategistAddr",
      "outputs": [],
      "stateMutability": "nonpayable",
      "type": "function"
    },
    {
      "inputs": [
        {
          "internalType": "address",
          "name": "_address",
          "type": "address"
        }
      ],
      "name": "setTrusteeAddress",
      "outputs": [],
      "stateMutability": "nonpayable",
      "type": "function"
    },
    {
      "inputs": [
        {
          "internalType": "uint256",
          "name": "_basis",
          "type": "uint256"
        }
      ],
      "name": "setTrusteeFeeBps",
      "outputs": [],
      "stateMutability": "nonpayable",
      "type": "function"
    },
    {
      "inputs": [
        {
          "internalType": "uint256",
          "name": "_vaultBuffer",
          "type": "uint256"
        }
      ],
      "name": "setVaultBuffer",
      "outputs": [],
      "stateMutability": "nonpayable",
      "type": "function"
    },
    {
      "inputs": [],
      "name": "strategistAddr",
      "outputs": [
        {
          "internalType": "address",
          "name": "",
          "type": "address"
        }
      ],
      "stateMutability": "view",
      "type": "function"
    },
    {
      "inputs": [
        {
          "internalType": "address",
          "name": "_asset",
          "type": "address"
        },
        {
          "internalType": "uint8",
          "name": "_unitConversion",
          "type": "uint8"
        }
      ],
      "name": "supportAsset",
      "outputs": [],
      "stateMutability": "nonpayable",
      "type": "function"
    },
    {
      "inputs": [
        {
          "internalType": "address",
          "name": "_newGovernor",
          "type": "address"
        }
      ],
      "name": "transferGovernance",
      "outputs": [],
      "stateMutability": "nonpayable",
      "type": "function"
    },
    {
      "inputs": [
        {
          "internalType": "address",
          "name": "_asset",
          "type": "address"
        },
        {
          "internalType": "uint256",
          "name": "_amount",
          "type": "uint256"
        }
      ],
      "name": "transferToken",
      "outputs": [],
      "stateMutability": "nonpayable",
      "type": "function"
    },
    {
      "inputs": [],
      "name": "trusteeAddress",
      "outputs": [
        {
          "internalType": "address",
          "name": "",
          "type": "address"
        }
      ],
      "stateMutability": "view",
      "type": "function"
    },
    {
      "inputs": [],
      "name": "trusteeFeeBps",
      "outputs": [
        {
          "internalType": "uint256",
          "name": "",
          "type": "uint256"
        }
      ],
      "stateMutability": "view",
      "type": "function"
    },
    {
      "inputs": [],
      "name": "unpauseCapital",
      "outputs": [],
      "stateMutability": "nonpayable",
      "type": "function"
    },
    {
      "inputs": [],
      "name": "unpauseRebase",
      "outputs": [],
      "stateMutability": "nonpayable",
      "type": "function"
    },
    {
      "inputs": [],
      "name": "vaultBuffer",
      "outputs": [
        {
          "internalType": "uint256",
          "name": "",
          "type": "uint256"
        }
      ],
      "stateMutability": "view",
      "type": "function"
    },
    {
      "inputs": [],
      "name": "withdrawAllFromStrategies",
      "outputs": [],
      "stateMutability": "nonpayable",
      "type": "function"
    },
    {
      "inputs": [
        {
          "internalType": "address",
          "name": "_strategyAddr",
          "type": "address"
        }
      ],
      "name": "withdrawAllFromStrategy",
      "outputs": [],
      "stateMutability": "nonpayable",
      "type": "function"
    },
    {
      "inputs": [
        {
          "internalType": "address",
          "name": "_strategyFromAddress",
          "type": "address"
        },
        {
          "internalType": "address[]",
          "name": "_assets",
          "type": "address[]"
        },
        {
          "internalType": "uint256[]",
          "name": "_amounts",
          "type": "uint256[]"
        }
      ],
      "name": "withdrawFromStrategy",
      "outputs": [],
      "stateMutability": "nonpayable",
      "type": "function"
    }
  ],
  "transactionHash": "0x70f0f847ff306f3b4146cb3d50109e46fd3b6dd4ec8e99de12ce46c4fa36267d",
  "args": [],
  "solcInputHash": "8564b351f4bb5da3f43a5b9c5739eec4",
  "bytecode": "0x60806040526037805461ffff60a01b1916600160a81b179055603d80546001600160a01b0319908116909155603e805482169055603f8054821690556045805490911690556000604681905560475534801561005a57600080fd5b506100723360008051602062002d3183398151915255565b60008051602062002d31833981519152546040516001600160a01b03909116906000907fc7c0c772add429241571afb3805861fb3cfa2af374534088b76cdb4325a87e9a908290a3612c6780620000ca6000396000f3fe608060405234801561001057600080fd5b50600436106102955760003560e01c80636c7561e811610167578063b888879e116100ce578063d38bfff411610087578063d38bfff41461055b578063d58e3b3a1461056e578063e45cc9f014610581578063e6cc54321461058a578063eb03654b1461059e578063fc0cfeee146105b157600080fd5b8063b888879e1461050a578063b890ebf61461051d578063bc90106b14610530578063c5f0084114610543578063c7af33521461054b578063c99191121461055357600080fd5b80638ec489a2116101205780638ec489a21461049757806394828ffd146104aa5780639fa1826e146104b2578063a403e4d5146104bb578063ae69f3cb146104e4578063b2c9336d146104f757600080fd5b80636c7561e814610439578063773540b31461044c5780637a2202f31461045f5780637fe2d39314610468578063840c4c7a1461047b5780638e510b521461048e57600080fd5b8063372aa2241161020b57806353ca9f24116101c457806353ca9f24146103c1578063570d8e1d146103e5578063597c8910146103f85780635d36b1901461040b578063636e6c4014610413578063663e64ce1461042657600080fd5b8063372aa224146103645780633b8ae397146103775780633dbc911f1461038a578063485cc9551461039257806349c1d54d146103a557806352d38e5d146103b857600080fd5b8063175188e81161025d578063175188e81461030657806318ce56bd146103195780631edfe3da1461032c578063207134b0146103355780632da845a81461033e57806336b6d9441461035157600080fd5b806309f49bf51461029a57806309f6442c146102a45780630acbda75146102c05780630c340a24146102d35780631072cbea146102f3575b600080fd5b6102a26105c4565b005b6102ad60385481565b6040519081526020015b60405180910390f35b6102a26102ce3660046129f4565b610629565b6102db6106db565b6040516001600160a01b0390911681526020016102b7565b6102a2610301366004612971565b6106f8565b6102a2610314366004612811565b6107a5565b6045546102db906001600160a01b031681565b6102ad60395481565b6102ad60435481565b6102a261034c366004612811565b610aac565b6102a261035f366004612811565b610b1e565b6102a2610372366004612811565b610b4e565b6102a2610385366004612811565b610bc0565b6102a2610cfd565b6102a26103a036600461282c565b610d73565b6042546102db906001600160a01b031681565b6102ad603b5481565b6037546103d590600160a01b900460ff1681565b60405190151581526020016102b7565b603f546102db906001600160a01b031681565b6102a2610406366004612811565b610f73565b6102a261106f565b6102a26104213660046129f4565b611115565b6102a26104343660046129f4565b611173565b6102a261044736600461299b565b6111cc565b6102a261045a366004612811565b61140f565b6102ad60475481565b6102a261047636600461285f565b611481565b6102a26104893660046128f0565b6116ac565b6102ad60415481565b6102a26104a53660046129f4565b6116f8565b6102a26117ad565b6102ad603a5481565b6102db6104c9366004612811565b6040602081905260009182529020546001600160a01b031681565b6102a26104f23660046128f0565b61181d565b6102a26105053660046129f4565b611863565b6037546102db906001600160a01b031681565b6102a261052b3660046129f4565b6118bc565b6102a261053e36600461282c565b611915565b6102a2611b57565b6103d5611bcd565b6102a2611bfe565b6102a2610569366004612811565b611ccf565b6102a261057c366004612811565b611d73565b6102ad60465481565b6037546103d590600160a81b900460ff1681565b6102a26105ac3660046129f4565b611de5565b6102a26105bf366004612811565b611e9a565b6105cc611bcd565b6105f15760405162461bcd60e51b81526004016105e890612a92565b60405180910390fd5b6037805460ff60a01b191690556040517fbc044409505c95b6b851433df96e1beae715c909d8e7c1d6d7ab783300d4e3b990600090a1565b610631611bcd565b61064d5760405162461bcd60e51b81526004016105e890612a92565b61138881111561069f5760405162461bcd60e51b815260206004820152601760248201527f62617369732063616e6e6f74206578636565642035302500000000000000000060448201526064016105e8565b60438190556040518181527f56287a45051933ea374811b3d5d165033047be5572cac676f7c28b8be4f746c7906020015b60405180910390a150565b60006106f3600080516020612c128339815191525490565b905090565b610700611bcd565b61071c5760405162461bcd60e51b81526004016105e890612a92565b6001600160a01b03821660009081526033602052604090205460ff16156107855760405162461bcd60e51b815260206004820152601760248201527f4f6e6c7920756e737570706f727465642061737365747300000000000000000060448201526064016105e8565b6107a16107906106db565b6001600160a01b0384169083611f3c565b5050565b6107ad611bcd565b6107c95760405162461bcd60e51b81526004016105e890612a92565b6001600160a01b03811660009081526035602052604090205460ff166108295760405162461bcd60e51b815260206004820152601560248201527414dd1c985d1959de481b9bdd08185c1c1c9bdd9959605a1b60448201526064016105e8565b60005b6034548110156108e257816001600160a01b0316604060006034848154811061085757610857612bec565b60009182526020808320909101546001600160a01b0390811684529083019390935260409091019020541614156108d05760405162461bcd60e51b815260206004820181905260248201527f53747261746567792069732064656661756c7420666f7220616e20617373657460448201526064016105e8565b806108da81612b8f565b91505061082c565b5060365460005b60365481101561094557826001600160a01b03166036828154811061091057610910612bec565b6000918252602090912001546001600160a01b0316141561093357809150610945565b8061093d81612b8f565b9150506108e9565b506036548110156107a1576036805461096090600190612b48565b8154811061097057610970612bec565b600091825260209091200154603680546001600160a01b03909216918390811061099c5761099c612bec565b9060005260206000200160006101000a8154816001600160a01b0302191690836001600160a01b0316021790555060368054806109db576109db612bd6565b60008281526020808220830160001990810180546001600160a01b03191690559092019092556001600160a01b03841680835260359091526040808320805460ff19169055805163429c145b60e11b81529051859363853828b6926004808201939182900301818387803b158015610a5257600080fd5b505af1158015610a66573d6000803e3d6000fd5b50506040516001600160a01b03861681527f09a1db4b80c32706328728508c941a6b954f31eb5affd32f236c1fd405f8fea49250602001905060405180910390a1505050565b610ab4611bcd565b610ad05760405162461bcd60e51b81526004016105e890612a92565b604280546001600160a01b0319166001600160a01b0383169081179091556040519081527f1e4af5ac389e8cde1bdaa6830881b6c987c62a45cfb3b33d27d805cde3b57750906020016106d0565b610b26611bcd565b610b425760405162461bcd60e51b81526004016105e890612a92565b610b4b81611f8e565b50565b610b56611bcd565b610b725760405162461bcd60e51b81526004016105e890612a92565b603780546001600160a01b0319166001600160a01b0383169081179091556040519081527fb266add5f3044b17d27db796af992cecbe413921b4e8aaaee03c719e16b9806a906020016106d0565b610bc8611bcd565b610be45760405162461bcd60e51b81526004016105e890612a92565b6001600160a01b03811660009081526035602052604090205460ff1615610c4d5760405162461bcd60e51b815260206004820152601960248201527f537472617465677920616c726561647920617070726f7665640000000000000060448201526064016105e8565b6040805180820182526001808252600060208084018281526001600160a01b038716808452603583528684209551865460ff19169015151786559051948401949094556036805493840181559091527f4a11f94e20a93c79f6ec743a1954ec4fc2c08429ae2122118bf234b2185c81b890910180546001600160a01b0319168317905591519081527f960dd94cbb79169f09a4e445d58b895df2d9bffa5b31055d0932d801724a20d191016106d0565b603f546001600160a01b0316331480610d195750610d19611bcd565b610d355760405162461bcd60e51b81526004016105e890612b00565b6037805460ff60a81b1916600160a81b1790556040517f71f0e5b62f846a22e0b4d159e516e62fa9c2b8eb570be15f83e67d98a2ee51e090600090a1565b610d7b611bcd565b610d975760405162461bcd60e51b81526004016105e890612a92565b600054610100900460ff1680610db0575060005460ff16155b610e135760405162461bcd60e51b815260206004820152602e60248201527f496e697469616c697a61626c653a20636f6e747261637420697320616c72656160448201526d191e481a5b9a5d1a585b1a5e995960921b60648201526084016105e8565b600054610100900460ff16158015610e35576000805461ffff19166101011790555b6001600160a01b038316610e8b5760405162461bcd60e51b815260206004820152601d60248201527f507269636550726f76696465722061646472657373206973207a65726f00000060448201526064016105e8565b6001600160a01b038216610ed85760405162461bcd60e51b81526020600482015260146024820152736f5553442061646472657373206973207a65726f60601b60448201526064016105e8565b603c80546001600160a01b038481166001600160a01b031990921691909117909155603780546001600160b01b03191691851691909117600160a81b17905560006038819055603981905569054b40b1f852bda00000603a55683635c9adc5dea00000603b556040805191825260208201908190529051610f5b9160369161272f565b508015610f6e576000805461ff00191690555b505050565b603f546001600160a01b0316331480610f8f5750610f8f611bcd565b610fab5760405162461bcd60e51b81526004016105e890612b00565b6001600160a01b03811660009081526035602052604090205460ff166110135760405162461bcd60e51b815260206004820152601960248201527f5374726174656779206973206e6f7420737570706f727465640000000000000060448201526064016105e8565b6000819050806001600160a01b031663853828b66040518163ffffffff1660e01b8152600401600060405180830381600087803b15801561105357600080fd5b505af1158015611067573d6000803e3d6000fd5b505050505050565b7f44c4d30b2eaad5130ad70c3ba6972730566f3e6359ab83e800d905c61b1c51db546001600160a01b0316336001600160a01b03161461110a5760405162461bcd60e51b815260206004820152603060248201527f4f6e6c79207468652070656e64696e6720476f7665726e6f722063616e20636f60448201526f6d706c6574652074686520636c61696d60801b60648201526084016105e8565b6111133361208a565b565b61111d611bcd565b6111395760405162461bcd60e51b81526004016105e890612a92565b600060465560478190556040518181527fc29d6fedbc6bdf267a08166c2b976fbd72aca5d6a769528616f8b9224c8f197f906020016106d0565b61117b611bcd565b6111975760405162461bcd60e51b81526004016105e890612a92565b60418190556040518181527f95201f9c21f26877223b1ff4073936a6484c35495649e60e55730497aeb60d93906020016106d0565b6111d4611bcd565b6111f05760405162461bcd60e51b81526004016105e890612a92565b6001600160a01b03821660009081526033602052604090205460ff16156112595760405162461bcd60e51b815260206004820152601760248201527f417373657420616c726561647920737570706f7274656400000000000000000060448201526064016105e8565b60405180606001604052806001151581526020018260ff16600181111561128257611282612bc0565b600181111561129357611293612bc0565b8152600060209182018190526001600160a01b038516815260338252604090208251815490151560ff19821681178355928401519192839161ff001990911661ffff19909116176101008360018111156112ef576112ef612bc0565b02179055506040820151816001015590505061130a82611f8e565b603480546001810182556000919091527f46bddb1178e94d7f2892ff5f366840eb658911794f2c3a44c450aa2c505186c10180546001600160a01b0319166001600160a01b038481169182179092556037546040516315d5220f60e31b815260048101929092529091169063aea910789060240160206040518083038186803b15801561139657600080fd5b505afa1580156113aa573d6000803e3d6000fd5b505050506040513d601f19601f820116820180604052508101906113ce9190612a0d565b506040516001600160a01b03831681527f4f1ac48525e50059cc1cc6e0e1940ece0dd653a4db4841538d6aef036be2fb7b9060200160405180910390a15050565b611417611bcd565b6114335760405162461bcd60e51b81526004016105e890612a92565b603f80546001600160a01b0319166001600160a01b0383169081179091556040519081527f869e0abd13cc3a975de7b93be3df1cb2255c802b1cead85963cc79d99f131bee906020016106d0565b603f546001600160a01b031633148061149d575061149d611bcd565b6114b95760405162461bcd60e51b81526004016105e890612b00565b6001600160a01b03851660009081526035602052604090205460ff166115175760405162461bcd60e51b8152602060048201526013602482015272496e76616c696420746f20537472617465677960681b60448201526064016105e8565b8281146115365760405162461bcd60e51b81526004016105e890612ac9565b61154485878686868661214b565b8460005b8481101561164f57816001600160a01b031663aa388af687878481811061157157611571612bec565b90506020020160208101906115869190612811565b6040516001600160e01b031960e084901b1681526001600160a01b03909116600482015260240160206040518083038186803b1580156115c557600080fd5b505afa1580156115d9573d6000803e3d6000fd5b505050506040513d601f19601f820116820180604052508101906115fd91906129d2565b61163d5760405162461bcd60e51b8152602060048201526011602482015270105cdcd95d081d5b9cdd5c1c1bdc9d1959607a1b60448201526064016105e8565b8061164781612b8f565b915050611548565b50806001600160a01b031663de5f62686040518163ffffffff1660e01b8152600401600060405180830381600087803b15801561168b57600080fd5b505af115801561169f573d6000803e3d6000fd5b5050505050505050505050565b603f546001600160a01b03163314806116c857506116c8611bcd565b6116e45760405162461bcd60e51b81526004016105e890612b00565b6116f185858585856122ab565b5050505050565b603f546001600160a01b03163314806117145750611714611bcd565b6117305760405162461bcd60e51b81526004016105e890612b00565b670de0b6b3a76400008111156117785760405162461bcd60e51b815260206004820152600d60248201526c496e76616c69642076616c756560981b60448201526064016105e8565b60398190556040518181527f41ecb23a0e7865b25f38c268b7c3012220d822929e9edff07326e89d5bb822b5906020016106d0565b603f546001600160a01b03163314806117c957506117c9611bcd565b6117e55760405162461bcd60e51b81526004016105e890612b00565b6037805460ff60a81b191690556040517f891ebab18da80ebeeea06b1b1cede098329c4c008906a98370c2ac7a80b571cb90600090a1565b603f546001600160a01b03163314806118395750611839611bcd565b6118555760405162461bcd60e51b81526004016105e890612b00565b6116f130868686868661214b565b61186b611bcd565b6118875760405162461bcd60e51b81526004016105e890612a92565b603a8190556040518181527f2ec5fb5a3d2703edc461252d92ccd2799c3c74f01d97212b20388207fa17ae45906020016106d0565b6118c4611bcd565b6118e05760405162461bcd60e51b81526004016105e890612a92565b603b8190556040518181527f39367850377ac04920a9a670f2180e7a94d83b15ad302e59875ec58fd10bd37d906020016106d0565b603f546001600160a01b03163314806119315750611931611bcd565b61194d5760405162461bcd60e51b81526004016105e890612b00565b604080516001600160a01b038085168252831660208201527fba58ce12801c949fa65f41c46ed108671c219baf945fa48d21026cea99ff252a910160405180910390a16001600160a01b03811615611b29576001600160a01b03811660009081526035602052604090205460ff166119ff5760405162461bcd60e51b815260206004820152601560248201527414dd1c985d1959de481b9bdd08185c1c1c9bdd9959605a1b60448201526064016105e8565b6001600160a01b038216600090815260336020526040902054819060ff16611a625760405162461bcd60e51b8152602060048201526016602482015275105cdcd95d081a5cc81b9bdd081cdd5c1c1bdc9d195960521b60448201526064016105e8565b60405163551c457b60e11b81526001600160a01b03848116600483015282169063aa388af69060240160206040518083038186803b158015611aa357600080fd5b505afa158015611ab7573d6000803e3d6000fd5b505050506040513d601f19601f82011682018060405250810190611adb91906129d2565b611b275760405162461bcd60e51b815260206004820152601f60248201527f4173736574206e6f7420737570706f727465642062792053747261746567790060448201526064016105e8565b505b6001600160a01b03918216600090815260406020819052902080546001600160a01b03191691909216179055565b603f546001600160a01b0316331480611b735750611b73611bcd565b611b8f5760405162461bcd60e51b81526004016105e890612b00565b6037805460ff60a01b1916600160a01b1790556040517f8cff26a5985614b3d30629cc4ab83824bf115aec971b718d8f2f99562032e97290600090a1565b6000611be5600080516020612c128339815191525490565b6001600160a01b0316336001600160a01b031614905090565b603f546001600160a01b0316331480611c1a5750611c1a611bcd565b611c365760405162461bcd60e51b81526004016105e890612b00565b60005b603654811015610b4b57600060368281548110611c5857611c58612bec565b60009182526020822001546040805163429c145b60e11b815290516001600160a01b039092169350839263853828b69260048084019382900301818387803b158015611ca357600080fd5b505af1158015611cb7573d6000803e3d6000fd5b50505050508080611cc790612b8f565b915050611c39565b611cd7611bcd565b611cf35760405162461bcd60e51b81526004016105e890612a92565b611d1b817f44c4d30b2eaad5130ad70c3ba6972730566f3e6359ab83e800d905c61b1c51db55565b806001600160a01b0316611d3b600080516020612c128339815191525490565b6001600160a01b03167fa39cc5eb22d0f34d8beaefee8a3f17cc229c1a1d1ef87a5ad47313487b1c4f0d60405160405180910390a350565b611d7b611bcd565b611d975760405162461bcd60e51b81526004016105e890612a92565b604580546001600160a01b0319166001600160a01b0383169081179091556040519081527fa12850fb726e0b2b7b3c9a9342031e1268a8148d0eb06b4bea8613204ffcd2b8906020016106d0565b611ded611bcd565b611e095760405162461bcd60e51b81526004016105e890612a92565b6103e8811115611e655760405162461bcd60e51b815260206004820152602160248201527f52656465656d206665652073686f756c64206e6f74206265206f7665722031306044820152602560f81b60648201526084016105e8565b60388190556040518181527fd6c7508d6658ccee36b7b7d7fd72e5cbaeefb40c64eff24e9ae7470e846304ee906020016106d0565b611ea2611bcd565b611ebe5760405162461bcd60e51b81526004016105e890612a92565b803b611f185760405162461bcd60e51b8152602060048201526024808201527f6e657720696d706c656d656e746174696f6e206973206e6f74206120636f6e746044820152631c9858dd60e21b60648201526084016105e8565b7fa2bd3d3cf188a41358c8b401076eb59066b09dec5775650c0de4c55187d17bd955565b604080516001600160a01b038416602482015260448082018490528251808303909101815260649091019091526020810180516001600160e01b031663a9059cbb60e01b179052610f6e9084906124e3565b6001600160a01b0381166000908152603360205260409020600181015415611fb4575050565b6000826001600160a01b031663313ce5676040518163ffffffff1660e01b815260040160206040518083038186803b158015611fef57600080fd5b505afa158015612003573d6000803e3d6000fd5b505050506040513d601f19601f820116820180604052508101906120279190612a26565b60ff1690506006811015801561203e575060128111155b6120815760405162461bcd60e51b81526020600482015260146024820152732ab732bc3832b1ba32b210383932b1b4b9b4b7b760611b60448201526064016105e8565b60019091015550565b6001600160a01b0381166120e05760405162461bcd60e51b815260206004820152601a60248201527f4e657720476f7665726e6f72206973206164647265737328302900000000000060448201526064016105e8565b806001600160a01b0316612100600080516020612c128339815191525490565b6001600160a01b03167fc7c0c772add429241571afb3805861fb3cfa2af374534088b76cdb4325a87e9a60405160405180910390a3610b4b81600080516020612c1283398151915255565b6001600160a01b03851660009081526035602052604090205460ff166121ab5760405162461bcd60e51b8152602060048201526015602482015274496e76616c69642066726f6d20537472617465677960581b60448201526064016105e8565b8281146121ca5760405162461bcd60e51b81526004016105e890612ac9565b8460005b848110156122a157816001600160a01b031663d9caed12898888858181106121f8576121f8612bec565b905060200201602081019061220d9190612811565b87878681811061221f5761221f612bec565b6040516001600160e01b031960e088901b1681526001600160a01b03958616600482015294909316602485015250602090910201356044820152606401600060405180830381600087803b15801561227657600080fd5b505af115801561228a573d6000803e3d6000fd5b50505050808061229990612b8f565b9150506121ce565b5050505050505050565b6001600160a01b03851660009081526035602052604090205460ff166123095760405162461bcd60e51b8152602060048201526013602482015272496e76616c696420746f20537472617465677960681b60448201526064016105e8565b8281146123285760405162461bcd60e51b81526004016105e890612ac9565b8460005b8481101561248757816001600160a01b031663aa388af687878481811061235557612355612bec565b905060200201602081019061236a9190612811565b6040516001600160e01b031960e084901b1681526001600160a01b03909116600482015260240160206040518083038186803b1580156123a957600080fd5b505afa1580156123bd573d6000803e3d6000fd5b505050506040513d601f19601f820116820180604052508101906123e191906129d2565b6124215760405162461bcd60e51b8152602060048201526011602482015270105cdcd95d081d5b9cdd5c1c1bdc9d1959607a1b60448201526064016105e8565b6124758785858481811061243757612437612bec565b9050602002013588888581811061245057612450612bec565b90506020020160208101906124659190612811565b6001600160a01b03169190611f3c565b8061247f81612b8f565b91505061232c565b50806001600160a01b031663de5f62686040518163ffffffff1660e01b8152600401600060405180830381600087803b1580156124c357600080fd5b505af11580156124d7573d6000803e3d6000fd5b50505050505050505050565b6000612538826040518060400160405280602081526020017f5361666545524332303a206c6f772d6c6576656c2063616c6c206661696c6564815250856001600160a01b03166125b59092919063ffffffff16565b805190915015610f6e578080602001905181019061255691906129d2565b610f6e5760405162461bcd60e51b815260206004820152602a60248201527f5361666545524332303a204552433230206f7065726174696f6e20646964206e6044820152691bdd081cdd58d8d9595960b21b60648201526084016105e8565b60606125c484846000856125ce565b90505b9392505050565b60608247101561262f5760405162461bcd60e51b815260206004820152602660248201527f416464726573733a20696e73756666696369656e742062616c616e636520666f6044820152651c8818d85b1b60d21b60648201526084016105e8565b843b61267d5760405162461bcd60e51b815260206004820152601d60248201527f416464726573733a2063616c6c20746f206e6f6e2d636f6e747261637400000060448201526064016105e8565b600080866001600160a01b031685876040516126999190612a43565b60006040518083038185875af1925050503d80600081146126d6576040519150601f19603f3d011682016040523d82523d6000602084013e6126db565b606091505b50915091506126eb8282866126f6565b979650505050505050565b606083156127055750816125c7565b8251156127155782518084602001fd5b8160405162461bcd60e51b81526004016105e89190612a5f565b828054828255906000526020600020908101928215612784579160200282015b8281111561278457825182546001600160a01b0319166001600160a01b0390911617825560209092019160019091019061274f565b50612790929150612794565b5090565b5b808211156127905760008155600101612795565b80356001600160a01b03811681146127c057600080fd5b919050565b60008083601f8401126127d757600080fd5b50813567ffffffffffffffff8111156127ef57600080fd5b6020830191508360208260051b850101111561280a57600080fd5b9250929050565b60006020828403121561282357600080fd5b6125c7826127a9565b6000806040838503121561283f57600080fd5b612848836127a9565b9150612856602084016127a9565b90509250929050565b6000806000806000806080878903121561287857600080fd5b612881876127a9565b955061288f602088016127a9565b9450604087013567ffffffffffffffff808211156128ac57600080fd5b6128b88a838b016127c5565b909650945060608901359150808211156128d157600080fd5b506128de89828a016127c5565b979a9699509497509295939492505050565b60008060008060006060868803121561290857600080fd5b612911866127a9565b9450602086013567ffffffffffffffff8082111561292e57600080fd5b61293a89838a016127c5565b9096509450604088013591508082111561295357600080fd5b50612960888289016127c5565b969995985093965092949392505050565b6000806040838503121561298457600080fd5b61298d836127a9565b946020939093013593505050565b600080604083850312156129ae57600080fd5b6129b7836127a9565b915060208301356129c781612c02565b809150509250929050565b6000602082840312156129e457600080fd5b815180151581146125c757600080fd5b600060208284031215612a0657600080fd5b5035919050565b600060208284031215612a1f57600080fd5b5051919050565b600060208284031215612a3857600080fd5b81516125c781612c02565b60008251612a55818460208701612b5f565b9190910192915050565b6020815260008251806020840152612a7e816040850160208701612b5f565b601f01601f19169190910160400192915050565b6020808252601a908201527f43616c6c6572206973206e6f742074686520476f7665726e6f72000000000000604082015260600190565b60208082526019908201527f506172616d65746572206c656e677468206d69736d6174636800000000000000604082015260600190565b60208082526028908201527f43616c6c6572206973206e6f74207468652053747261746567697374206f722060408201526723b7bb32b93737b960c11b606082015260800190565b600082821015612b5a57612b5a612baa565b500390565b60005b83811015612b7a578181015183820152602001612b62565b83811115612b89576000848401525b50505050565b6000600019821415612ba357612ba3612baa565b5060010190565b634e487b7160e01b600052601160045260246000fd5b634e487b7160e01b600052602160045260246000fd5b634e487b7160e01b600052603160045260246000fd5b634e487b7160e01b600052603260045260246000fd5b60ff81168114610b4b57600080fdfe7bea13895fa79d2831e0a9e28edede30099005a50d652d8957cf8a607ee6ca4aa2646970667358221220391d4bdb4e4e9a1ac0e9b115b087120dccbb1e5ae5a9f4133b321870e4a6684264736f6c634300080700337bea13895fa79d2831e0a9e28edede30099005a50d652d8957cf8a607ee6ca4a",
  "devdoc": {
    "author": "Origin Protocol Inc",
    "kind": "dev",
    "methods": {
      "approveStrategy(address)": {
        "details": "Add a strategy to the Vault.",
        "params": {
          "_addr": "Address of the strategy to add"
        }
      },
      "claimGovernance()": {
        "details": "Claim Governance of the contract to a new account (`newGovernor`). Can only be called by the new Governor."
      },
      "depositToStrategy(address,address[],uint256[])": {
        "details": "Deposit multiple assets from the vault into the strategy.",
        "params": {
          "_amounts": "Array of amounts of each corresponding asset to deposit.",
          "_assets": "Array of asset address that will be deposited into the strategy.",
          "_strategyToAddress": "Address of the Strategy to deposit assets into."
        }
      },
      "governor()": {
        "details": "Returns the address of the current Governor."
      },
      "isGovernor()": {
        "details": "Returns true if the caller is the current Governor."
      },
      "pauseCapital()": {
        "details": "Set the deposit paused flag to true to prevent capital movement."
      },
      "pauseRebase()": {
        "details": "Set the deposit paused flag to true to prevent rebasing."
      },
      "reallocate(address,address,address[],uint256[])": {
        "details": "Move assets from one Strategy to another",
        "params": {
          "_amounts": "Array of amounts of each corresponding asset to move.",
          "_assets": "Array of asset address that will be moved",
          "_strategyFromAddress": "Address of Strategy to move assets from.",
          "_strategyToAddress": "Address of Strategy to move assets to."
        }
      },
      "removeStrategy(address)": {
        "details": "Remove a strategy from the Vault.",
        "params": {
          "_addr": "Address of the strategy to remove"
        }
      },
      "setAdminImpl(address)": {
        "details": "set the implementation for the admin, this needs to be in a base class else we cannot set it",
        "params": {
          "newImpl": "address of the implementation"
        }
      },
      "setAssetDefaultStrategy(address,address)": {
        "details": "Set the default Strategy for an asset, i.e. the one which the asset will be automatically allocated to and withdrawn from",
        "params": {
          "_asset": "Address of the asset",
          "_strategy": "Address of the Strategy"
        }
      },
      "setAutoAllocateThreshold(uint256)": {
        "details": "Sets the minimum amount of OUSD in a mint to trigger an automatic allocation of funds afterwords.",
        "params": {
          "_threshold": "OUSD amount with 18 fixed decimals."
        }
      },
      "setMaxSupplyDiff(uint256)": {
        "details": "Sets the maximum allowable difference between total supply and backing assets' value."
      },
      "setNetOusdMintForStrategyThreshold(uint256)": {
        "details": "Set maximum amount of OUSD that can at any point be minted and deployed to strategy (used only by ConvexOUSDMetaStrategy for now).",
        "params": {
          "_threshold": "OUSD amount with 18 fixed decimals."
        }
      },
      "setOusdMetaStrategy(address)": {
        "details": "Set OUSD Meta strategy",
        "params": {
          "_ousdMetaStrategy": "Address of ousd meta strategy"
        }
      },
      "setPriceProvider(address)": {
        "details": "Set address of price provider.",
        "params": {
          "_priceProvider": "Address of price provider"
        }
      },
      "setRebaseThreshold(uint256)": {
        "details": "Set a minimum amount of OUSD in a mint or redeem that triggers a rebase",
        "params": {
          "_threshold": "OUSD amount with 18 fixed decimals."
        }
      },
      "setRedeemFeeBps(uint256)": {
        "details": "Set a fee in basis points to be charged for a redeem.",
        "params": {
          "_redeemFeeBps": "Basis point fee to be charged"
        }
      },
      "setStrategistAddr(address)": {
        "details": "Set address of Strategist",
        "params": {
          "_address": "Address of Strategist"
        }
      },
      "setTrusteeAddress(address)": {
        "details": "Sets the trusteeAddress that can receive a portion of yield.      Setting to the zero address disables this feature."
      },
      "setTrusteeFeeBps(uint256)": {
        "details": "Sets the TrusteeFeeBps to the percentage of yield that should be      received in basis points."
      },
      "setVaultBuffer(uint256)": {
        "details": "Set a buffer of assets to keep in the Vault to handle most redemptions without needing to spend gas unwinding assets from a Strategy.",
        "params": {
          "_vaultBuffer": "Percentage using 18 decimals. 100% = 1e18."
        }
      },
      "supportAsset(address,uint8)": {
        "details": "Add a supported asset to the contract, i.e. one that can be         to mint OUSD.",
        "params": {
          "_asset": "Address of asset"
        }
      },
      "transferGovernance(address)": {
        "details": "Transfers Governance of the contract to a new account (`newGovernor`). Can only be called by the current Governor. Must be claimed for this to complete",
        "params": {
          "_newGovernor": "Address of the new Governor"
        }
      },
      "transferToken(address,uint256)": {
        "details": "Transfer token to governor. Intended for recovering tokens stuck in      contract, i.e. mistaken sends.",
        "params": {
          "_amount": "Amount of the asset to transfer",
          "_asset": "Address for the asset"
        }
      },
      "unpauseCapital()": {
        "details": "Set the deposit paused flag to false to enable capital movement."
      },
      "unpauseRebase()": {
        "details": "Set the deposit paused flag to true to allow rebasing."
      },
      "withdrawAllFromStrategies()": {
        "details": "Withdraws all assets from all the strategies and sends assets to the Vault."
      },
      "withdrawAllFromStrategy(address)": {
        "details": "Withdraws all assets from the strategy and sends assets to the Vault.",
        "params": {
          "_strategyAddr": "Strategy address."
        }
      },
      "withdrawFromStrategy(address,address[],uint256[])": {
        "details": "Withdraw multiple assets from the strategy to the vault.",
        "params": {
          "_amounts": "Array of amounts of each corresponding asset to withdraw.",
          "_assets": "Array of asset address that will be withdrawn from the strategy.",
          "_strategyFromAddress": "Address of the Strategy to withdraw assets from."
        }
      }
    },
    "title": "OETH Vault Contract",
    "version": 1
  },
  "userdoc": {
    "kind": "user",
    "methods": {},
    "version": 1
  },
  "storageLayout": {
    "storage": [
      {
        "astId": 24590,
        "contract": "contracts/vault/OETHVault.sol:OETHVault",
        "label": "initialized",
        "offset": 0,
        "slot": "0",
        "type": "t_bool"
      },
      {
        "astId": 24593,
        "contract": "contracts/vault/OETHVault.sol:OETHVault",
        "label": "initializing",
        "offset": 1,
        "slot": "0",
        "type": "t_bool"
      },
      {
        "astId": 24633,
        "contract": "contracts/vault/OETHVault.sol:OETHVault",
        "label": "______gap",
        "offset": 0,
        "slot": "1",
        "type": "t_array(t_uint256)50_storage"
      },
      {
        "astId": 28671,
        "contract": "contracts/vault/OETHVault.sol:OETHVault",
        "label": "assets",
        "offset": 0,
        "slot": "51",
        "type": "t_mapping(t_address,t_struct(Asset)28666_storage)"
      },
      {
        "astId": 28674,
        "contract": "contracts/vault/OETHVault.sol:OETHVault",
        "label": "allAssets",
        "offset": 0,
        "slot": "52",
        "type": "t_array(t_address)dyn_storage"
      },
      {
        "astId": 28684,
        "contract": "contracts/vault/OETHVault.sol:OETHVault",
        "label": "strategies",
        "offset": 0,
        "slot": "53",
        "type": "t_mapping(t_address,t_struct(Strategy)28679_storage)"
      },
      {
        "astId": 28687,
        "contract": "contracts/vault/OETHVault.sol:OETHVault",
        "label": "allStrategies",
        "offset": 0,
        "slot": "54",
        "type": "t_array(t_address)dyn_storage"
      },
      {
        "astId": 28689,
        "contract": "contracts/vault/OETHVault.sol:OETHVault",
        "label": "priceProvider",
        "offset": 0,
        "slot": "55",
        "type": "t_address"
      },
      {
        "astId": 28692,
        "contract": "contracts/vault/OETHVault.sol:OETHVault",
        "label": "rebasePaused",
        "offset": 20,
        "slot": "55",
        "type": "t_bool"
      },
      {
        "astId": 28695,
        "contract": "contracts/vault/OETHVault.sol:OETHVault",
        "label": "capitalPaused",
        "offset": 21,
        "slot": "55",
        "type": "t_bool"
      },
      {
        "astId": 28697,
        "contract": "contracts/vault/OETHVault.sol:OETHVault",
        "label": "redeemFeeBps",
        "offset": 0,
        "slot": "56",
        "type": "t_uint256"
      },
      {
        "astId": 28699,
        "contract": "contracts/vault/OETHVault.sol:OETHVault",
        "label": "vaultBuffer",
        "offset": 0,
        "slot": "57",
        "type": "t_uint256"
      },
      {
        "astId": 28701,
        "contract": "contracts/vault/OETHVault.sol:OETHVault",
        "label": "autoAllocateThreshold",
        "offset": 0,
        "slot": "58",
        "type": "t_uint256"
      },
      {
        "astId": 28703,
        "contract": "contracts/vault/OETHVault.sol:OETHVault",
        "label": "rebaseThreshold",
        "offset": 0,
        "slot": "59",
        "type": "t_uint256"
      },
      {
        "astId": 28706,
        "contract": "contracts/vault/OETHVault.sol:OETHVault",
        "label": "oUSD",
        "offset": 0,
        "slot": "60",
        "type": "t_contract(OUSD)24300"
      },
      {
        "astId": 28715,
        "contract": "contracts/vault/OETHVault.sol:OETHVault",
        "label": "_deprecated_rebaseHooksAddr",
        "offset": 0,
        "slot": "61",
        "type": "t_address"
      },
      {
        "astId": 28721,
        "contract": "contracts/vault/OETHVault.sol:OETHVault",
        "label": "_deprecated_uniswapAddr",
        "offset": 0,
        "slot": "62",
        "type": "t_address"
      },
      {
        "astId": 28727,
        "contract": "contracts/vault/OETHVault.sol:OETHVault",
        "label": "strategistAddr",
        "offset": 0,
        "slot": "63",
        "type": "t_address"
      },
      {
        "astId": 28731,
        "contract": "contracts/vault/OETHVault.sol:OETHVault",
        "label": "assetDefaultStrategies",
        "offset": 0,
        "slot": "64",
        "type": "t_mapping(t_address,t_address)"
      },
      {
        "astId": 28733,
        "contract": "contracts/vault/OETHVault.sol:OETHVault",
        "label": "maxSupplyDiff",
        "offset": 0,
        "slot": "65",
        "type": "t_uint256"
      },
      {
        "astId": 28735,
        "contract": "contracts/vault/OETHVault.sol:OETHVault",
        "label": "trusteeAddress",
        "offset": 0,
        "slot": "66",
        "type": "t_address"
      },
      {
        "astId": 28737,
        "contract": "contracts/vault/OETHVault.sol:OETHVault",
        "label": "trusteeFeeBps",
        "offset": 0,
        "slot": "67",
        "type": "t_uint256"
      },
      {
        "astId": 28740,
        "contract": "contracts/vault/OETHVault.sol:OETHVault",
        "label": "_deprecated_swapTokens",
        "offset": 0,
        "slot": "68",
        "type": "t_array(t_address)dyn_storage"
      },
      {
        "astId": 28749,
        "contract": "contracts/vault/OETHVault.sol:OETHVault",
        "label": "ousdMetaStrategy",
        "offset": 0,
        "slot": "69",
        "type": "t_address"
      },
      {
        "astId": 28752,
        "contract": "contracts/vault/OETHVault.sol:OETHVault",
        "label": "netOusdMintedForStrategy",
        "offset": 0,
        "slot": "70",
        "type": "t_int256"
      },
      {
        "astId": 28755,
        "contract": "contracts/vault/OETHVault.sol:OETHVault",
        "label": "netOusdMintForStrategyThreshold",
        "offset": 0,
        "slot": "71",
        "type": "t_uint256"
      }
    ],
    "types": {
      "t_address": {
        "encoding": "inplace",
        "label": "address",
        "numberOfBytes": "20"
      },
      "t_array(t_address)dyn_storage": {
        "base": "t_address",
        "encoding": "dynamic_array",
        "label": "address[]",
        "numberOfBytes": "32"
      },
      "t_array(t_uint256)50_storage": {
        "base": "t_uint256",
        "encoding": "inplace",
        "label": "uint256[50]",
        "numberOfBytes": "1600"
      },
      "t_bool": {
        "encoding": "inplace",
        "label": "bool",
        "numberOfBytes": "1"
      },
      "t_contract(OUSD)24300": {
        "encoding": "inplace",
        "label": "contract OUSD",
        "numberOfBytes": "20"
      },
      "t_enum(UnitConversion)28658": {
        "encoding": "inplace",
        "label": "enum VaultStorage.UnitConversion",
        "numberOfBytes": "1"
      },
      "t_int256": {
        "encoding": "inplace",
        "label": "int256",
        "numberOfBytes": "32"
      },
      "t_mapping(t_address,t_address)": {
        "encoding": "mapping",
        "key": "t_address",
        "label": "mapping(address => address)",
        "numberOfBytes": "32",
        "value": "t_address"
      },
      "t_mapping(t_address,t_struct(Asset)28666_storage)": {
        "encoding": "mapping",
        "key": "t_address",
        "label": "mapping(address => struct VaultStorage.Asset)",
        "numberOfBytes": "32",
        "value": "t_struct(Asset)28666_storage"
      },
      "t_mapping(t_address,t_struct(Strategy)28679_storage)": {
        "encoding": "mapping",
        "key": "t_address",
        "label": "mapping(address => struct VaultStorage.Strategy)",
        "numberOfBytes": "32",
        "value": "t_struct(Strategy)28679_storage"
      },
      "t_struct(Asset)28666_storage": {
        "encoding": "inplace",
        "label": "struct VaultStorage.Asset",
        "members": [
          {
            "astId": 28660,
            "contract": "contracts/vault/OETHVault.sol:OETHVault",
            "label": "isSupported",
            "offset": 0,
            "slot": "0",
            "type": "t_bool"
          },
          {
            "astId": 28663,
            "contract": "contracts/vault/OETHVault.sol:OETHVault",
            "label": "unitConversion",
            "offset": 1,
            "slot": "0",
            "type": "t_enum(UnitConversion)28658"
          },
          {
            "astId": 28665,
            "contract": "contracts/vault/OETHVault.sol:OETHVault",
            "label": "decimals",
            "offset": 0,
            "slot": "1",
            "type": "t_uint256"
          }
        ],
        "numberOfBytes": "64"
      },
      "t_struct(Strategy)28679_storage": {
        "encoding": "inplace",
        "label": "struct VaultStorage.Strategy",
        "members": [
          {
            "astId": 28676,
            "contract": "contracts/vault/OETHVault.sol:OETHVault",
            "label": "isSupported",
            "offset": 0,
            "slot": "0",
            "type": "t_bool"
          },
          {
            "astId": 28678,
            "contract": "contracts/vault/OETHVault.sol:OETHVault",
            "label": "_deprecated",
            "offset": 0,
            "slot": "1",
            "type": "t_uint256"
          }
        ],
        "numberOfBytes": "64"
      },
      "t_uint256": {
        "encoding": "inplace",
        "label": "uint256",
        "numberOfBytes": "32"
      }
    }
  }
}