{
  "address": "0x63fE17626844264ba448A21bD77099bEC26363dB",
  "abi": [
    {
      "inputs": [
        {
          "components": [
            {
              "internalType": "address",
              "name": "platformAddress",
              "type": "address"
            },
            {
              "internalType": "address",
              "name": "vaultAddress",
              "type": "address"
            }
          ],
          "internalType": "struct InitializableAbstractStrategy.BaseStrategyConfig",
          "name": "_baseConfig",
          "type": "tuple"
        },
        {
          "internalType": "address",
          "name": "_gauge",
          "type": "address"
        }
      ],
      "stateMutability": "nonpayable",
      "type": "constructor"
    },
    {
      "anonymous": false,
      "inputs": [
        {
          "indexed": true,
          "internalType": "address",
          "name": "_asset",
          "type": "address"
        },
        {
          "indexed": false,
          "internalType": "address",
          "name": "_pToken",
          "type": "address"
        },
        {
          "indexed": false,
          "internalType": "uint256",
          "name": "_amount",
          "type": "uint256"
        }
      ],
      "name": "Deposit",
      "type": "event"
    },
    {
      "anonymous": false,
      "inputs": [
        {
          "indexed": true,
          "internalType": "address",
          "name": "previousGovernor",
          "type": "address"
        },
        {
          "indexed": true,
          "internalType": "address",
          "name": "newGovernor",
          "type": "address"
        }
      ],
      "name": "GovernorshipTransferred",
      "type": "event"
    },
    {
      "anonymous": false,
      "inputs": [
        {
          "indexed": false,
          "internalType": "address",
          "name": "_oldHarvesterAddress",
          "type": "address"
        },
        {
          "indexed": false,
          "internalType": "address",
          "name": "_newHarvesterAddress",
          "type": "address"
        }
      ],
      "name": "HarvesterAddressesUpdated",
      "type": "event"
    },
    {
      "anonymous": false,
      "inputs": [
        {
          "indexed": false,
          "internalType": "uint256",
          "name": "maxDepeg",
          "type": "uint256"
        }
      ],
      "name": "MaxDepegUpdated",
      "type": "event"
    },
    {
      "anonymous": false,
      "inputs": [
        {
          "indexed": true,
          "internalType": "address",
          "name": "_asset",
          "type": "address"
        },
        {
          "indexed": false,
          "internalType": "address",
          "name": "_pToken",
          "type": "address"
        }
      ],
      "name": "PTokenAdded",
      "type": "event"
    },
    {
      "anonymous": false,
      "inputs": [
        {
          "indexed": true,
          "internalType": "address",
          "name": "_asset",
          "type": "address"
        },
        {
          "indexed": false,
          "internalType": "address",
          "name": "_pToken",
          "type": "address"
        }
      ],
      "name": "PTokenRemoved",
      "type": "event"
    },
    {
      "anonymous": false,
      "inputs": [
        {
          "indexed": true,
          "internalType": "address",
          "name": "previousGovernor",
          "type": "address"
        },
        {
          "indexed": true,
          "internalType": "address",
          "name": "newGovernor",
          "type": "address"
        }
      ],
      "name": "PendingGovernorshipTransfer",
      "type": "event"
    },
    {
      "anonymous": false,
      "inputs": [
        {
          "indexed": false,
          "internalType": "address[]",
          "name": "_oldAddresses",
          "type": "address[]"
        },
        {
          "indexed": false,
          "internalType": "address[]",
          "name": "_newAddresses",
          "type": "address[]"
        }
      ],
      "name": "RewardTokenAddressesUpdated",
      "type": "event"
    },
    {
      "anonymous": false,
      "inputs": [
        {
          "indexed": false,
          "internalType": "address",
          "name": "recipient",
          "type": "address"
        },
        {
          "indexed": false,
          "internalType": "address",
          "name": "rewardToken",
          "type": "address"
        },
        {
          "indexed": false,
          "internalType": "uint256",
          "name": "amount",
          "type": "uint256"
        }
      ],
      "name": "RewardTokenCollected",
      "type": "event"
    },
    {
      "anonymous": false,
      "inputs": [
        {
          "indexed": false,
          "internalType": "uint256",
          "name": "assetSwapped",
          "type": "uint256"
        },
        {
          "indexed": false,
          "internalType": "uint256",
          "name": "lpTokens",
          "type": "uint256"
        },
        {
          "indexed": false,
          "internalType": "uint256",
          "name": "oTokenBurnt",
          "type": "uint256"
        }
      ],
      "name": "SwapAssetsToPool",
      "type": "event"
    },
    {
      "anonymous": false,
      "inputs": [
        {
          "indexed": false,
          "internalType": "uint256",
          "name": "oTokenMinted",
          "type": "uint256"
        },
        {
          "indexed": false,
          "internalType": "uint256",
          "name": "assetDepositAmount",
          "type": "uint256"
        },
        {
          "indexed": false,
          "internalType": "uint256",
          "name": "oTokenDepositAmount",
          "type": "uint256"
        },
        {
          "indexed": false,
          "internalType": "uint256",
          "name": "lpTokens",
          "type": "uint256"
        }
      ],
      "name": "SwapOTokensToPool",
      "type": "event"
    },
    {
      "anonymous": false,
      "inputs": [
        {
          "indexed": true,
          "internalType": "address",
          "name": "_asset",
          "type": "address"
        },
        {
          "indexed": false,
          "internalType": "address",
          "name": "_pToken",
          "type": "address"
        },
        {
          "indexed": false,
          "internalType": "uint256",
          "name": "_amount",
          "type": "uint256"
        }
      ],
      "name": "Withdrawal",
      "type": "event"
    },
    {
      "inputs": [],
      "name": "PRECISION",
      "outputs": [
        {
          "internalType": "uint256",
          "name": "",
          "type": "uint256"
        }
      ],
      "stateMutability": "view",
      "type": "function"
    },
    {
      "inputs": [],
      "name": "SOLVENCY_THRESHOLD",
      "outputs": [
        {
          "internalType": "uint256",
          "name": "",
          "type": "uint256"
        }
      ],
      "stateMutability": "view",
      "type": "function"
    },
    {
      "inputs": [],
      "name": "asset",
      "outputs": [
        {
          "internalType": "address",
          "name": "",
          "type": "address"
        }
      ],
      "stateMutability": "view",
      "type": "function"
    },
    {
      "inputs": [
        {
          "internalType": "address",
          "name": "",
          "type": "address"
        }
      ],
      "name": "assetToPToken",
      "outputs": [
        {
          "internalType": "address",
          "name": "",
          "type": "address"
        }
      ],
      "stateMutability": "view",
      "type": "function"
    },
    {
      "inputs": [
        {
          "internalType": "address",
          "name": "_asset",
          "type": "address"
        }
      ],
      "name": "checkBalance",
      "outputs": [
        {
          "internalType": "uint256",
          "name": "balance",
          "type": "uint256"
        }
      ],
      "stateMutability": "view",
      "type": "function"
    },
    {
      "inputs": [],
      "name": "claimGovernance",
      "outputs": [],
      "stateMutability": "nonpayable",
      "type": "function"
    },
    {
      "inputs": [],
      "name": "collectRewardTokens",
      "outputs": [],
      "stateMutability": "nonpayable",
      "type": "function"
    },
    {
      "inputs": [
        {
          "internalType": "address",
          "name": "_asset",
          "type": "address"
        },
        {
          "internalType": "uint256",
          "name": "_assetAmount",
          "type": "uint256"
        }
      ],
      "name": "deposit",
      "outputs": [],
      "stateMutability": "nonpayable",
      "type": "function"
    },
    {
      "inputs": [],
      "name": "depositAll",
      "outputs": [],
      "stateMutability": "nonpayable",
      "type": "function"
    },
    {
      "inputs": [],
      "name": "gauge",
      "outputs": [
        {
          "internalType": "address",
          "name": "",
          "type": "address"
        }
      ],
      "stateMutability": "view",
      "type": "function"
    },
    {
      "inputs": [],
      "name": "getRewardTokenAddresses",
      "outputs": [
        {
          "internalType": "address[]",
          "name": "",
          "type": "address[]"
        }
      ],
      "stateMutability": "view",
      "type": "function"
    },
    {
      "inputs": [],
      "name": "governor",
      "outputs": [
        {
          "internalType": "address",
          "name": "",
          "type": "address"
        }
      ],
      "stateMutability": "view",
      "type": "function"
    },
    {
      "inputs": [],
      "name": "harvesterAddress",
      "outputs": [
        {
          "internalType": "address",
          "name": "",
          "type": "address"
        }
      ],
      "stateMutability": "view",
      "type": "function"
    },
    {
      "inputs": [
        {
          "internalType": "address[]",
          "name": "_rewardTokenAddresses",
          "type": "address[]"
        },
        {
          "internalType": "uint256",
          "name": "_maxDepeg",
          "type": "uint256"
        }
      ],
      "name": "initialize",
      "outputs": [],
      "stateMutability": "nonpayable",
      "type": "function"
    },
    {
      "inputs": [],
      "name": "isGovernor",
      "outputs": [
        {
          "internalType": "bool",
          "name": "",
          "type": "bool"
        }
      ],
      "stateMutability": "view",
      "type": "function"
    },
    {
      "inputs": [],
      "name": "maxDepeg",
      "outputs": [
        {
          "internalType": "uint256",
          "name": "",
          "type": "uint256"
        }
      ],
      "stateMutability": "view",
      "type": "function"
    },
    {
      "inputs": [],
      "name": "oToken",
      "outputs": [
        {
          "internalType": "address",
          "name": "",
          "type": "address"
        }
      ],
      "stateMutability": "view",
      "type": "function"
    },
    {
      "inputs": [],
      "name": "oTokenPoolIndex",
      "outputs": [
        {
          "internalType": "uint256",
          "name": "",
          "type": "uint256"
        }
      ],
      "stateMutability": "view",
      "type": "function"
    },
    {
      "inputs": [],
      "name": "platformAddress",
      "outputs": [
        {
          "internalType": "address",
          "name": "",
          "type": "address"
        }
      ],
      "stateMutability": "view",
      "type": "function"
    },
    {
      "inputs": [],
      "name": "pool",
      "outputs": [
        {
          "internalType": "address",
          "name": "",
          "type": "address"
        }
      ],
      "stateMutability": "view",
      "type": "function"
    },
    {
      "inputs": [
        {
          "internalType": "uint256",
          "name": "_assetIndex",
          "type": "uint256"
        }
      ],
      "name": "removePToken",
      "outputs": [],
      "stateMutability": "nonpayable",
      "type": "function"
    },
    {
      "inputs": [
        {
          "internalType": "uint256",
          "name": "",
          "type": "uint256"
        }
      ],
      "name": "rewardTokenAddresses",
      "outputs": [
        {
          "internalType": "address",
          "name": "",
          "type": "address"
        }
      ],
      "stateMutability": "view",
      "type": "function"
    },
    {
      "inputs": [],
      "name": "safeApproveAllTokens",
      "outputs": [],
      "stateMutability": "nonpayable",
      "type": "function"
    },
    {
      "inputs": [
        {
          "internalType": "address",
          "name": "_harvesterAddress",
          "type": "address"
        }
      ],
      "name": "setHarvesterAddress",
      "outputs": [],
      "stateMutability": "nonpayable",
      "type": "function"
    },
    {
      "inputs": [
        {
          "internalType": "uint256",
          "name": "_maxDepeg",
          "type": "uint256"
        }
      ],
      "name": "setMaxDepeg",
      "outputs": [],
      "stateMutability": "nonpayable",
      "type": "function"
    },
    {
      "inputs": [
        {
          "internalType": "address",
          "name": "_asset",
          "type": "address"
        },
        {
          "internalType": "address",
          "name": "_pToken",
          "type": "address"
        }
      ],
      "name": "setPTokenAddress",
      "outputs": [],
      "stateMutability": "nonpayable",
      "type": "function"
    },
    {
      "inputs": [
        {
          "internalType": "address[]",
          "name": "_rewardTokenAddresses",
          "type": "address[]"
        }
      ],
      "name": "setRewardTokenAddresses",
      "outputs": [],
      "stateMutability": "nonpayable",
      "type": "function"
    },
    {
      "inputs": [
        {
          "internalType": "address",
          "name": "_asset",
          "type": "address"
        }
      ],
      "name": "supportsAsset",
      "outputs": [
        {
          "internalType": "bool",
          "name": "",
          "type": "bool"
        }
      ],
      "stateMutability": "view",
      "type": "function"
    },
    {
      "inputs": [
        {
          "internalType": "uint256",
          "name": "_assetAmount",
          "type": "uint256"
        }
      ],
      "name": "swapAssetsToPool",
      "outputs": [],
      "stateMutability": "nonpayable",
      "type": "function"
    },
    {
      "inputs": [
        {
          "internalType": "uint256",
          "name": "_oTokenAmount",
          "type": "uint256"
        }
      ],
      "name": "swapOTokensToPool",
      "outputs": [],
      "stateMutability": "nonpayable",
      "type": "function"
    },
    {
      "inputs": [
        {
          "internalType": "address",
          "name": "_newGovernor",
          "type": "address"
        }
      ],
      "name": "transferGovernance",
      "outputs": [],
      "stateMutability": "nonpayable",
      "type": "function"
    },
    {
      "inputs": [
        {
          "internalType": "address",
          "name": "_asset",
          "type": "address"
        },
        {
          "internalType": "uint256",
          "name": "_amount",
          "type": "uint256"
        }
      ],
      "name": "transferToken",
      "outputs": [],
      "stateMutability": "nonpayable",
      "type": "function"
    },
    {
      "inputs": [],
      "name": "vaultAddress",
      "outputs": [
        {
          "internalType": "address",
          "name": "",
          "type": "address"
        }
      ],
      "stateMutability": "view",
      "type": "function"
    },
    {
      "inputs": [
        {
          "internalType": "address",
          "name": "_recipient",
          "type": "address"
        },
        {
          "internalType": "address",
          "name": "_asset",
          "type": "address"
        },
        {
          "internalType": "uint256",
          "name": "_assetAmount",
          "type": "uint256"
        }
      ],
      "name": "withdraw",
      "outputs": [],
      "stateMutability": "nonpayable",
      "type": "function"
    },
    {
      "inputs": [],
      "name": "withdrawAll",
      "outputs": [],
      "stateMutability": "nonpayable",
      "type": "function"
    }
  ],
  "transactionHash": "0x07c8c50ee6d1d09f4f7a31b2d96565310e0b3329f1fdb6c9f4c4aa03f0c79e48",
  "args": [
    [
      "0x6c4ced4DE136538D10CD805ff68cdE69a52469Fd",
      "0x39254033945AA2E4809Cc2977E7087BEE48bd7Ab"
    ],
    "0xE9eAc35efB37Bd839413c5b29A26C6B32AdAE1De"
  ],
  "numDeployments": 1,
  "solcInputHash": "ef6171d107508ae04c8fb89562e479dd",
  "bytecode": "0x61016060405234801561001157600080fd5b50604051615a8d380380615a8d833981016040819052610030916105af565b81516001600160a01b0390811660805260208084015190911660a0526040805163313ce56760e01b815290518492849273856c4efb76c1d1ae02e20ceb03a2a6a08b0b8dc39273c02aaa39b223fe8d0a0e5c4f27ead9083c756cc292839263313ce56792600480830193928290030181865afa1580156100b4573d6000803e3d6000fd5b505050506040513d601f19601f820116820180604052508101906100d89190610638565b60ff16601214801561014e5750816001600160a01b031663313ce5676040518163ffffffff1660e01b8152600401602060405180830381865afa158015610123573d6000803e3d6000fd5b505050506040513d601f19601f820116820180604052508101906101479190610638565b60ff166012145b61019f5760405162461bcd60e51b815260206004820152601860248201527f496e636f727265637420746f6b656e20646563696d616c73000000000000000060448201526064015b60405180910390fd5b83600001516001600160a01b03166309047bdd6040518163ffffffff1660e01b8152600401602060405180830381865afa1580156101e1573d6000803e3d6000fd5b505050506040513d601f19601f820116820180604052508101906102059190610662565b15156001146102485760405162461bcd60e51b815260206004820152600f60248201526e506f6f6c206e6f7420737461626c6560881b6044820152606401610196565b83600001516001600160a01b0316836001600160a01b03166382bfefc86040518163ffffffff1660e01b8152600401602060405180830381865afa158015610294573d6000803e3d6000fd5b505050506040513d601f19601f820116820180604052508101906102b89190610684565b6001600160a01b0316146103005760405162461bcd60e51b815260206004820152600f60248201526e496e636f727265637420676175676560881b6044820152606401610196565b816001600160a01b031684600001516001600160a01b0316630dfe16816040518163ffffffff1660e01b8152600401602060405180830381865afa15801561034c573d6000803e3d6000fd5b505050506040513d601f19601f820116820180604052508101906103709190610684565b6001600160a01b031614610385576001610388565b60005b60ff166101408190521561039c578061039e565b815b6001600160a01b031684600001516001600160a01b0316630dfe16816040518163ffffffff1660e01b8152600401602060405180830381865afa1580156103e9573d6000803e3d6000fd5b505050506040513d601f19601f8201168201806040525081019061040d9190610684565b6001600160a01b03161480156104a95750610140511561042d578161042f565b805b6001600160a01b031684600001516001600160a01b031663d21220a76040518163ffffffff1660e01b8152600401602060405180830381865afa15801561047a573d6000803e3d6000fd5b505050506040513d601f19601f8201168201806040525081019061049e9190610684565b6001600160a01b0316145b6104f55760405162461bcd60e51b815260206004820152601560248201527f496e636f727265637420706f6f6c20746f6b656e7300000000000000000000006044820152606401610196565b6001600160a01b0380831660e05281811660c0528451811661010052831661012052610521600061052c565b50505050505061069f565b6001600160a01b03811661054c600080516020615a6d8339815191525490565b6001600160a01b03167fc7c0c772add429241571afb3805861fb3cfa2af374534088b76cdb4325a87e9a60405160405180910390a3600080516020615a6d83398151915255565b80516001600160a01b03811681146105aa57600080fd5b919050565b60008082840360608112156105c357600080fd5b60408112156105d157600080fd5b50604080519081016001600160401b038111828210171561060257634e487b7160e01b600052604160045260246000fd5b60405261060e84610593565b815261061c60208501610593565b6020820152915061062f60408401610593565b90509250929050565b60006020828403121561064a57600080fd5b815160ff8116811461065b57600080fd5b9392505050565b60006020828403121561067457600080fd5b8151801515811461065b57600080fd5b60006020828403121561069657600080fd5b61065b82610593565b60805160a05160c05160e0516101005161012051610140516150956109d86000396000818161033f01528181613d3101528181613d6301528181614038015261407601526000818161043d01528181610cb301528181610ed70152818161131301528181611399015281816138ed0152818161395e01528181613b3101528181613c0801526144c00152600081816102a8015281816107ce015281816108810152818161094001528181610b6b01528181610bdc01528181611052015281816112980152818161165a015281816116cb01528181611a3301528181611d6e0152818161232f0152818161272201528181612793015281816128690152818161291c015281816129db01528181612bff01528181612c7001528181612e7401528181613111015281816136d2015281816138c0015281816139e601528181613a6101528181613aa601528181613c7101528181613caa01528181613e2e01528181613eac015281816140d301528181614195015281816143a4015281816143f801526144320152600081816102cf0152818161085501528181610ba30152818161144e0152818161169201528181611af501528181611c4901528181611d3d015281816124e30152818161275a015281816128f001528181612c3701528181612fa201528181612fde015281816130d80152818161347301528181613f0f01528181613f4b01526143d60152600081816103180152818161046f015281816105e40152818161091201528181610a8201528181610b3201528181610ddd01528181610e41015281816110c301528181611555015281816115d80152818161162101528181611c6a01528181611ca6015281816123e5015281816125e9015281816126b8015281816126e9015281816129ad01528181612b3301528181612bc601528181612f8101528181613ed301528181613f8701528181613fff015261438201526000818161036601528181610746015281816111b1015281816114da015281816115fa015281816118d801528181611bdf015281816122a7015281816124360152818161256f015281816127e101528181612d190152818161306a0152818161337401526133ed0152600061050c01526150956000f3fe608060405234801561001057600080fd5b50600436106102115760003560e01c806367c7066c11610125578063ad1728cb116100ad578063d9caed121161007c578063d9caed12146104f4578063dbe55e5614610507578063de5f62681461052e578063f6ca71b014610536578063fd2816911461054b57600080fd5b8063ad1728cb146104be578063c2e1e3f4146104c6578063c7af3352146104d9578063d38bfff4146104e157600080fd5b8063936bfd2b116100f4578063936bfd2b1461041257806396d538bb14610425578063a6f19c8414610438578063aa388af61461045f578063aaf5eb68146104af57600080fd5b806367c7066c146103d15780637b2d9b2c146103e4578063853828b6146103f75780639136616a146103ff57600080fd5b8063332edd43116101a857806347e7ef241161017757806347e7ef24146103885780635a063f631461039b5780635d36b190146103a35780635f515226146103ab57806360b5bb3f146103be57600080fd5b8063332edd431461030057806338d52e0f146103135780633b70019a1461033a578063430bf08a1461036157600080fd5b806314180efa116101e457806314180efa1461028c57806316f0115b146102a35780631a32aad6146102ca5780631b91d0cc146102f157600080fd5b80630c340a24146102165780630ed57b3a1461023b5780630fc3b4c4146102505780631072cbea14610279575b600080fd5b61021e61055e565b6040516001600160a01b0390911681526020015b60405180910390f35b61024e610249366004614a2a565b61057b565b005b61021e61025e366004614a63565b6035602052600090815260409020546001600160a01b031681565b61024e610287366004614a80565b6105b6565b610295609d5481565b604051908152602001610232565b61021e7f000000000000000000000000000000000000000000000000000000000000000081565b61021e7f000000000000000000000000000000000000000000000000000000000000000081565b610295670dd99bb65dd7000081565b61024e61030e366004614aac565b610671565b61021e7f000000000000000000000000000000000000000000000000000000000000000081565b6102957f000000000000000000000000000000000000000000000000000000000000000081565b61021e7f000000000000000000000000000000000000000000000000000000000000000081565b61024e610396366004614a80565b61073b565b61024e610c21565b61024e610d33565b6102956103b9366004614a63565b610dd9565b61024e6103cc366004614b11565b610f6c565b60395461021e906001600160a01b031681565b61021e6103f2366004614aac565b61117c565b61024e6111a6565b61024e61040d366004614aac565b61170b565b61024e610420366004614aac565b6118d6565b61024e610433366004614b5d565b611fc1565b61021e7f000000000000000000000000000000000000000000000000000000000000000081565b61049f61046d366004614a63565b7f00000000000000000000000000000000000000000000000000000000000000006001600160a01b0390811691161490565b6040519015158152602001610232565b610295670de0b6b3a764000081565b61024e6120d8565b61024e6104d4366004614a63565b61213a565b61049f6121c7565b61024e6104ef366004614a63565b6121f8565b61024e610502366004614b9f565b61229c565b61021e7f000000000000000000000000000000000000000000000000000000000000000081565b61024e6127d6565b61053e612cb5565b6040516102329190614be0565b61024e610559366004614aac565b612d17565b60006105766000805160206150208339815191525490565b905090565b6105836121c7565b6105a85760405162461bcd60e51b815260040161059f90614c2c565b60405180910390fd5b6105b28282613195565b5050565b6105be6121c7565b6105da5760405162461bcd60e51b815260040161059f90614c2c565b6001600160a01b037f00000000000000000000000000000000000000000000000000000000000000008116908316036106555760405162461bcd60e51b815260206004820152601f60248201527f43616e6e6f74207472616e7366657220737570706f7274656420617373657400604482015260640161059f565b6105b261066061055e565b6001600160a01b03841690836132f4565b6106796121c7565b6106955760405162461bcd60e51b815260040161059f90614c2c565b66038d7ea4c6800081101580156106b4575067016345785d8a00008111155b6107005760405162461bcd60e51b815260206004820152601760248201527f496e76616c6964206d61782064657065672072616e6765000000000000000000604482015260640161059f565b609d8190556040518181527f751b2076684396993691b15336f73e6013600139b240b956be4ec75978b6caf49060200160405180910390a150565b336001600160a01b037f000000000000000000000000000000000000000000000000000000000000000016146107835760405162461bcd60e51b815260040161059f90614c63565b600080516020615000833981519152805460011981016107b55760405162461bcd60e51b815260040161059f90614c9a565b6002825560405163bc25cf7760e01b81523060048201527f00000000000000000000000000000000000000000000000000000000000000006001600160a01b03169063bc25cf7790602401600060405180830381600087803b15801561081a57600080fd5b505af115801561082e573d6000803e3d6000fd5b50506040516378a051ad60e11b8152670de0b6b3a764000060048201526001600160a01b037f000000000000000000000000000000000000000000000000000000000000000081166024830152600093507f000000000000000000000000000000000000000000000000000000000000000016915063f140a35a90604401602060405180830381865afa1580156108c9573d6000803e3d6000fd5b505050506040513d601f19601f820116820180604052508101906108ed9190614cc2565b6040516378a051ad60e11b8152670de0b6b3a764000060048201526001600160a01b037f0000000000000000000000000000000000000000000000000000000000000000811660248301529192506000917f0000000000000000000000000000000000000000000000000000000000000000169063f140a35a90604401602060405180830381865afa158015610987573d6000803e3d6000fd5b505050506040513d601f19601f820116820180604052508101906109ab9190614cc2565b9050600081116109ef5760405162461bcd60e51b815260206004820152600f60248201526e506f6f6c20646567656e657261746560881b604482015260640161059f565b6000610a0a826ec097ce7bc90715b34b9f1000000000614d07565b609d54909150670de0b6b3a764000090610a249082614d29565b8410158015610a3f5750609d54610a3b9082614d3c565b8211155b610a805760405162461bcd60e51b81526020600482015260126024820152717072696365206f7574206f662072616e676560701b604482015260640161059f565b7f00000000000000000000000000000000000000000000000000000000000000006001600160a01b0316886001600160a01b031614610ad15760405162461bcd60e51b815260040161059f90614d4f565b60008711610b1a5760405162461bcd60e51b81526020600482015260166024820152754d757374206465706f73697420736f6d657468696e6760501b604482015260640161059f565b6000610b258861334f565b509050610b306133e9565b7f00000000000000000000000000000000000000000000000000000000000000006001600160a01b0316600080516020614fe08339815191527f00000000000000000000000000000000000000000000000000000000000000008a604051610b99929190614d7a565b60405180910390a27f00000000000000000000000000000000000000000000000000000000000000006001600160a01b0316600080516020614fe08339815191527f000000000000000000000000000000000000000000000000000000000000000083604051610c0a929190614d7a565b60405180910390a250505050506001825550505050565b6039546001600160a01b03163314610c7b5760405162461bcd60e51b815260206004820152601b60248201527f43616c6c6572206973206e6f7420746865204861727665737465720000000000604482015260640161059f565b60008051602061500083398151915280546001198101610cad5760405162461bcd60e51b815260040161059f90614c9a565b600282557f00000000000000000000000000000000000000000000000000000000000000006001600160a01b0316633d18b9126040518163ffffffff1660e01b8152600401600060405180830381600087803b158015610d0c57600080fd5b505af1158015610d20573d6000803e3d6000fd5b50505050610d2c613557565b5060019055565b7f44c4d30b2eaad5130ad70c3ba6972730566f3e6359ab83e800d905c61b1c51db546001600160a01b0316336001600160a01b031614610dce5760405162461bcd60e51b815260206004820152603060248201527f4f6e6c79207468652070656e64696e6720476f7665726e6f722063616e20636f60448201526f6d706c6574652074686520636c61696d60801b606482015260840161059f565b610dd73361366b565b565b60007f00000000000000000000000000000000000000000000000000000000000000006001600160a01b0316826001600160a01b031614610e2c5760405162461bcd60e51b815260040161059f90614d4f565b6040516370a0823160e01b81523060048201527f00000000000000000000000000000000000000000000000000000000000000006001600160a01b0316906370a0823190602401602060405180830381865afa158015610e90573d6000803e3d6000fd5b505050506040513d601f19601f82011682018060405250810190610eb49190614cc2565b6040516370a0823160e01b81523060048201529091506000906001600160a01b037f000000000000000000000000000000000000000000000000000000000000000016906370a0823190602401602060405180830381865afa158015610f1e573d6000803e3d6000fd5b505050506040513d601f19601f82011682018060405250810190610f429190614cc2565b905080600003610f525750919050565b610f5b816136cd565b610f659083614d3c565b9392505050565b610f746121c7565b610f905760405162461bcd60e51b815260040161059f90614c2c565b600054610100900460ff1680610fa9575060005460ff16155b61100c5760405162461bcd60e51b815260206004820152602e60248201527f496e697469616c697a61626c653a20636f6e747261637420697320616c72656160448201526d191e481a5b9a5d1a585b1a5e995960921b606482015260840161059f565b600054610100900460ff1615801561102e576000805461ffff19166101011790555b604080516001808252818301909252600091602080830190803683370190505090507f00000000000000000000000000000000000000000000000000000000000000008160008151811061108457611084614d93565b6001600160a01b0392909216602092830291909101909101526040805160018082528183019092526000918160200160208202803683370190505090507f0000000000000000000000000000000000000000000000000000000000000000816000815181106110f5576110f5614d93565b60200260200101906001600160a01b031690816001600160a01b0316815250506111558686808060200260200160405190810160405280939291908181526020018383602002808284376000920191909152508592508691506137f69050565b609d8490556111626138a9565b50508015611176576000805461ff00191690555b50505050565b603a818154811061118c57600080fd5b6000918252602090912001546001600160a01b0316905081565b336001600160a01b037f00000000000000000000000000000000000000000000000000000000000000001614806111f557506111e061055e565b6001600160a01b0316336001600160a01b0316145b61124d5760405162461bcd60e51b815260206004820152602360248201527f43616c6c6572206973206e6f7420746865205661756c74206f7220476f7665726044820152623737b960e91b606482015260840161059f565b6000805160206150008339815191528054600119810161127f5760405162461bcd60e51b815260040161059f90614c9a565b6002825560405163bc25cf7760e01b81523060048201527f00000000000000000000000000000000000000000000000000000000000000006001600160a01b03169063bc25cf7790602401600060405180830381600087803b1580156112e457600080fd5b505af11580156112f8573d6000803e3d6000fd5b50506040516370a0823160e01b8152306004820152600092507f00000000000000000000000000000000000000000000000000000000000000006001600160a01b031691506370a0823190602401602060405180830381865afa158015611363573d6000803e3d6000fd5b505050506040513d601f19601f820116820180604052508101906113879190614cc2565b9050806000036113975750610d2c565b7f00000000000000000000000000000000000000000000000000000000000000006001600160a01b031663caa6fea46040518163ffffffff1660e01b81526004016020604051808303816000875af11580156113f7573d6000803e3d6000fd5b505050506040513d601f19601f8201168201806040525081019061141b9190614da9565b1561142d5761142861395c565b611436565b61143681613b1a565b6040516370a0823160e01b81523060048201526000907f00000000000000000000000000000000000000000000000000000000000000006001600160a01b0316906370a0823190602401602060405180830381865afa15801561149d573d6000803e3d6000fd5b505050506040513d601f19601f820116820180604052508101906114c19190614cc2565b60405163310bf9f560e11b8152600481018290529091507f00000000000000000000000000000000000000000000000000000000000000006001600160a01b031690636217f3ea90602401600060405180830381600087803b15801561152657600080fd5b505af115801561153a573d6000803e3d6000fd5b50506040516370a0823160e01b8152306004820152600092507f00000000000000000000000000000000000000000000000000000000000000006001600160a01b031691506370a0823190602401602060405180830381865afa1580156115a5573d6000803e3d6000fd5b505050506040513d601f19601f820116820180604052508101906115c99190614cc2565b905061161f6001600160a01b037f0000000000000000000000000000000000000000000000000000000000000000167f0000000000000000000000000000000000000000000000000000000000000000836132f4565b7f00000000000000000000000000000000000000000000000000000000000000006001600160a01b03166000805160206150408339815191527f000000000000000000000000000000000000000000000000000000000000000083604051611688929190614d7a565b60405180910390a27f00000000000000000000000000000000000000000000000000000000000000006001600160a01b03166000805160206150408339815191527f0000000000000000000000000000000000000000000000000000000000000000846040516116f9929190614d7a565b60405180910390a25050505060019055565b6117136121c7565b61172f5760405162461bcd60e51b815260040161059f90614c2c565b60365481106117705760405162461bcd60e51b815260206004820152600d60248201526c092dcecc2d8d2c840d2dcc8caf609b1b604482015260640161059f565b60006036828154811061178557611785614d93565b60009182526020808320909101546001600160a01b039081168084526035909252604090922054603654919350909116906117c290600190614d29565b83101561184457603680546117d990600190614d29565b815481106117e9576117e9614d93565b600091825260209091200154603680546001600160a01b03909216918590811061181557611815614d93565b9060005260206000200160006101000a8154816001600160a01b0302191690836001600160a01b031602179055505b603680548061185557611855614dcb565b60008281526020808220600019908401810180546001600160a01b031990811690915593019093556001600160a01b038581168083526035855260409283902080549094169093559051908416815290917f16b7600acff27e39a8a96056b3d533045298de927507f5c1d97e4accde60488c910160405180910390a2505050565b7f00000000000000000000000000000000000000000000000000000000000000006001600160a01b031663570d8e1d6040518163ffffffff1660e01b8152600401602060405180830381865afa158015611934573d6000803e3d6000fd5b505050506040513d601f19601f820116820180604052508101906119589190614de1565b6001600160a01b0316336001600160a01b0316146119b85760405162461bcd60e51b815260206004820152601c60248201527f43616c6c6572206973206e6f7420746865205374726174656769737400000000604482015260640161059f565b600080516020615000833981519152805460011981016119ea5760405162461bcd60e51b815260040161059f90614c9a565b600282556000806119f9613ca2565b915091506000611a0882613d97565b611a1184613d97565b611a1b9190614dfe565b60405163bc25cf7760e01b81523060048201529091507f00000000000000000000000000000000000000000000000000000000000000006001600160a01b03169063bc25cf7790602401600060405180830381600087803b158015611a7f57600080fd5b505af1158015611a93573d6000803e3d6000fd5b5050505060008611611add5760405162461bcd60e51b81526020600482015260136024820152724d757374207377617020736f6d657468696e6760681b604482015260640161059f565b6040516370a0823160e01b81523060048201526000907f00000000000000000000000000000000000000000000000000000000000000006001600160a01b0316906370a0823190602401602060405180830381865afa158015611b44573d6000803e3d6000fd5b505050506040513d601f19601f82011682018060405250810190611b689190614cc2565b905080871015611bba5760405162461bcd60e51b815260206004820152601b60248201527f546f6f206d756368204f546f6b656e20696e2073747261746567790000000000604482015260640161059f565b6000611bc68289614d29565b60405163ab80dafb60e01b8152600481018290529091507f00000000000000000000000000000000000000000000000000000000000000006001600160a01b03169063ab80dafb90602401600060405180830381600087803b158015611c2b57600080fd5b505af1158015611c3f573d6000803e3d6000fd5b50505050611c8e887f00000000000000000000000000000000000000000000000000000000000000007f0000000000000000000000000000000000000000000000000000000000000000613e05565b6040516370a0823160e01b81523060048201526000907f00000000000000000000000000000000000000000000000000000000000000006001600160a01b0316906370a0823190602401602060405180830381865afa158015611cf5573d6000803e3d6000fd5b505050506040513d601f19601f82011682018060405250810190611d199190614cc2565b9050600080611d278361334f565b91509150611d336133e9565b6001600160a01b037f000000000000000000000000000000000000000000000000000000000000000016600080516020614fe08339815191527f0000000000000000000000000000000000000000000000000000000000000000611d978588614d3c565b604051611da5929190614d7a565b60405180910390a26040805185815260208101859052908101839052606081018290527f5dc2c48aff3a9501b325d0849716390264e71f015d9c2bff72574302ddf19a179060800160405180910390a15050505050600080611e05613ca2565b915091506000611e1482613d97565b611e1d84613d97565b611e279190614dfe565b905083600003611e84578015611e7f5760405162461bcd60e51b815260206004820152601c60248201527f506f736974696f6e2062616c616e636520697320776f7273656e656400000000604482015260640161059f565b611fb2565b6000841215611f1b576000811315611ed45760405162461bcd60e51b8152602060048201526013602482015272417373657473206f76657273686f742070656760681b604482015260640161059f565b808412611e7f5760405162461bcd60e51b81526020600482015260156024820152744f546f6b656e732062616c616e636520776f72736560581b604482015260640161059f565b6000841315611fb2576000811215611f6c5760405162461bcd60e51b81526020600482015260146024820152734f546f6b656e73206f76657273686f742070656760601b604482015260640161059f565b838112611fb25760405162461bcd60e51b81526020600482015260146024820152734173736574732062616c616e636520776f72736560601b604482015260640161059f565b50505050505060018255505050565b611fc96121c7565b611fe55760405162461bcd60e51b815260040161059f90614c2c565b8060005b8181101561208f57600084848381811061200557612005614d93565b905060200201602081019061201a9190614a63565b6001600160a01b0316036120875760405162461bcd60e51b815260206004820152602e60248201527f43616e206e6f742073657420616e20656d70747920616464726573732061732060448201526d30903932bbb0b932103a37b5b2b760911b606482015260840161059f565b600101611fe9565b507f04c0b9649497d316554306e53678d5f5f5dbc3a06f97dec13ff4cfe98b986bbc603a84846040516120c493929190614e25565b60405180910390a1611176603a848461494c565b6120e06121c7565b6120fc5760405162461bcd60e51b815260040161059f90614c2c565b6000805160206150008339815191528054600119810161212e5760405162461bcd60e51b815260040161059f90614c9a565b60028255610d2c6138a9565b6121426121c7565b61215e5760405162461bcd60e51b815260040161059f90614c2c565b603954604080516001600160a01b03928316815291831660208301527fe48386b84419f4d36e0f96c10cc3510b6fb1a33795620c5098b22472bbe90796910160405180910390a1603980546001600160a01b0319166001600160a01b0392909216919091179055565b60006121df6000805160206150208339815191525490565b6001600160a01b0316336001600160a01b031614905090565b6122006121c7565b61221c5760405162461bcd60e51b815260040161059f90614c2c565b612244817f44c4d30b2eaad5130ad70c3ba6972730566f3e6359ab83e800d905c61b1c51db55565b806001600160a01b03166122646000805160206150208339815191525490565b6001600160a01b03167fa39cc5eb22d0f34d8beaefee8a3f17cc229c1a1d1ef87a5ad47313487b1c4f0d60405160405180910390a350565b336001600160a01b037f000000000000000000000000000000000000000000000000000000000000000016146122e45760405162461bcd60e51b815260040161059f90614c63565b600080516020615000833981519152805460011981016123165760405162461bcd60e51b815260040161059f90614c9a565b6002825560405163bc25cf7760e01b81523060048201527f00000000000000000000000000000000000000000000000000000000000000006001600160a01b03169063bc25cf7790602401600060405180830381600087803b15801561237b57600080fd5b505af115801561238f573d6000803e3d6000fd5b50505050600083116123e35760405162461bcd60e51b815260206004820152601760248201527f4d75737420776974686472617720736f6d657468696e67000000000000000000604482015260640161059f565b7f00000000000000000000000000000000000000000000000000000000000000006001600160a01b0316846001600160a01b0316146124345760405162461bcd60e51b815260040161059f90614d4f565b7f00000000000000000000000000000000000000000000000000000000000000006001600160a01b0316856001600160a01b0316146124b55760405162461bcd60e51b815260206004820152601e60248201527f4f6e6c7920776974686472617720746f207661756c7420616c6c6f7765640000604482015260640161059f565b60006124c084614147565b90506124cb81613b1a565b6040516370a0823160e01b81523060048201526000907f00000000000000000000000000000000000000000000000000000000000000006001600160a01b0316906370a0823190602401602060405180830381865afa158015612532573d6000803e3d6000fd5b505050506040513d601f19601f820116820180604052508101906125569190614cc2565b60405163310bf9f560e11b8152600481018290529091507f00000000000000000000000000000000000000000000000000000000000000006001600160a01b031690636217f3ea90602401600060405180830381600087803b1580156125bb57600080fd5b505af11580156125cf573d6000803e3d6000fd5b50506040516370a0823160e01b81523060048201528792507f00000000000000000000000000000000000000000000000000000000000000006001600160a01b031691506370a0823190602401602060405180830381865afa158015612639573d6000803e3d6000fd5b505050506040513d601f19601f8201168201806040525081019061265d9190614cc2565b10156126ab5760405162461bcd60e51b815260206004820152601860248201527f4e6f7420656e6f7567682061737365742072656d6f7665640000000000000000604482015260640161059f565b6126df6001600160a01b037f00000000000000000000000000000000000000000000000000000000000000001688876132f4565b6126e76133e9565b7f00000000000000000000000000000000000000000000000000000000000000006001600160a01b03166000805160206150408339815191527f000000000000000000000000000000000000000000000000000000000000000087604051612750929190614d7a565b60405180910390a27f00000000000000000000000000000000000000000000000000000000000000006001600160a01b03166000805160206150408339815191527f0000000000000000000000000000000000000000000000000000000000000000836040516127c1929190614d7a565b60405180910390a25050600182555050505050565b336001600160a01b037f0000000000000000000000000000000000000000000000000000000000000000161461281e5760405162461bcd60e51b815260040161059f90614c63565b600080516020615000833981519152805460011981016128505760405162461bcd60e51b815260040161059f90614c9a565b6002825560405163bc25cf7760e01b81523060048201527f00000000000000000000000000000000000000000000000000000000000000006001600160a01b03169063bc25cf7790602401600060405180830381600087803b1580156128b557600080fd5b505af11580156128c9573d6000803e3d6000fd5b50506040516378a051ad60e11b8152670de0b6b3a764000060048201526001600160a01b037f000000000000000000000000000000000000000000000000000000000000000081166024830152600093507f000000000000000000000000000000000000000000000000000000000000000016915063f140a35a90604401602060405180830381865afa158015612964573d6000803e3d6000fd5b505050506040513d601f19601f820116820180604052508101906129889190614cc2565b6040516378a051ad60e11b8152670de0b6b3a764000060048201526001600160a01b037f0000000000000000000000000000000000000000000000000000000000000000811660248301529192506000917f0000000000000000000000000000000000000000000000000000000000000000169063f140a35a90604401602060405180830381865afa158015612a22573d6000803e3d6000fd5b505050506040513d601f19601f82011682018060405250810190612a469190614cc2565b905060008111612a8a5760405162461bcd60e51b815260206004820152600f60248201526e506f6f6c20646567656e657261746560881b604482015260640161059f565b6000612aa5826ec097ce7bc90715b34b9f1000000000614d07565b609d54909150670de0b6b3a764000090612abf9082614d29565b8410158015612ada5750609d54612ad69082614d3c565b8211155b612b1b5760405162461bcd60e51b81526020600482015260126024820152717072696365206f7574206f662072616e676560701b604482015260640161059f565b6040516370a0823160e01b81523060048201526000907f00000000000000000000000000000000000000000000000000000000000000006001600160a01b0316906370a0823190602401602060405180830381865afa158015612b82573d6000803e3d6000fd5b505050506040513d601f19601f82011682018060405250810190612ba69190614cc2565b90508015612ca8576000612bb98261334f565b509050612bc46133e9565b7f00000000000000000000000000000000000000000000000000000000000000006001600160a01b0316600080516020614fe08339815191527f000000000000000000000000000000000000000000000000000000000000000084604051612c2d929190614d7a565b60405180910390a27f00000000000000000000000000000000000000000000000000000000000000006001600160a01b0316600080516020614fe08339815191527f000000000000000000000000000000000000000000000000000000000000000083604051612c9e929190614d7a565b60405180910390a2505b5050505050600182555050565b6060603a805480602002602001604051908101604052809291908181526020018280548015612d0d57602002820191906000526020600020905b81546001600160a01b03168152600190910190602001808311612cef575b5050505050905090565b7f00000000000000000000000000000000000000000000000000000000000000006001600160a01b031663570d8e1d6040518163ffffffff1660e01b8152600401602060405180830381865afa158015612d75573d6000803e3d6000fd5b505050506040513d601f19601f82011682018060405250810190612d999190614de1565b6001600160a01b0316336001600160a01b031614612df95760405162461bcd60e51b815260206004820152601c60248201527f43616c6c6572206973206e6f7420746865205374726174656769737400000000604482015260640161059f565b60008051602061500083398151915280546001198101612e2b5760405162461bcd60e51b815260040161059f90614c9a565b60028255600080612e3a613ca2565b915091506000612e4982613d97565b612e5284613d97565b612e5c9190614dfe565b60405163bc25cf7760e01b81523060048201529091507f00000000000000000000000000000000000000000000000000000000000000006001600160a01b03169063bc25cf7790602401600060405180830381600087803b158015612ec057600080fd5b505af1158015612ed4573d6000803e3d6000fd5b5050505060008611612f1e5760405162461bcd60e51b81526020600482015260136024820152724d757374207377617020736f6d657468696e6760681b604482015260640161059f565b6000612f2987614147565b905060008111612f725760405162461bcd60e51b81526020600482015260146024820152732737902628103a37b5b2b739903a3790313ab93760611b604482015260640161059f565b612f7b81613b1a565b612fc6877f00000000000000000000000000000000000000000000000000000000000000007f0000000000000000000000000000000000000000000000000000000000000000613e05565b6040516370a0823160e01b81523060048201526000907f00000000000000000000000000000000000000000000000000000000000000006001600160a01b0316906370a0823190602401602060405180830381865afa15801561302d573d6000803e3d6000fd5b505050506040513d601f19601f820116820180604052508101906130519190614cc2565b60405163310bf9f560e11b8152600481018290529091507f00000000000000000000000000000000000000000000000000000000000000006001600160a01b031690636217f3ea90602401600060405180830381600087803b1580156130b657600080fd5b505af11580156130ca573d6000803e3d6000fd5b505050506130d66133e9565b7f00000000000000000000000000000000000000000000000000000000000000006001600160a01b03166000805160206150408339815191527f00000000000000000000000000000000000000000000000000000000000000008360405161313f929190614d7a565b60405180910390a260408051898152602081018490529081018290527f03584ea52c244b3d91731a63525b7b17ce30252926bfca52eb9db9f3e644ccf99060600160405180910390a15050600080611e05613ca2565b6001600160a01b0382811660009081526035602052604090205416156131f25760405162461bcd60e51b81526020600482015260126024820152711c151bdad95b88185b1c9958591e481cd95d60721b604482015260640161059f565b6001600160a01b0382161580159061321257506001600160a01b03811615155b6132525760405162461bcd60e51b8152602060048201526011602482015270496e76616c69642061646472657373657360781b604482015260640161059f565b6001600160a01b03828116600081815260356020908152604080832080549587166001600160a01b031996871681179091556036805460018101825594527f4a11f94e20a93c79f6ec743a1954ec4fc2c08429ae2122118bf234b2185c81b890930180549095168417909455925190815290917fef6485b84315f9b1483beffa32aae9a0596890395e3d7521f1c5fbb51790e765910160405180910390a25050565b61334a8363a9059cbb60e01b8484604051602401613313929190614d7a565b60408051601f198184030181529190526020810180516001600160e01b03166001600160e01b031990931692909217909152614236565b505050565b60008061335b83614308565b60405163ab80dafb60e01b8152600481018290529092507f00000000000000000000000000000000000000000000000000000000000000006001600160a01b03169063ab80dafb90602401600060405180830381600087803b1580156133c057600080fd5b505af11580156133d4573d6000803e3d6000fd5b505050506133e28383614373565b9050915091565b60007f00000000000000000000000000000000000000000000000000000000000000006001600160a01b031663d4c3eea06040518163ffffffff1660e01b8152600401602060405180830381865afa158015613449573d6000803e3d6000fd5b505050506040513d601f19601f8201168201806040525081019061346d9190614cc2565b905060007f00000000000000000000000000000000000000000000000000000000000000006001600160a01b03166318160ddd6040518163ffffffff1660e01b8152600401602060405180830381865afa1580156134cf573d6000803e3d6000fd5b505050506040513d601f19601f820116820180604052508101906134f39190614cc2565b90506000811180156135155750670dd99bb65dd70000613513838361452a565b105b156105b25760405162461bcd60e51b8152602060048201526012602482015271141c9bdd1bd8dbdb081a5b9cdbdb1d995b9d60721b604482015260640161059f565b603a5460005b818110156105b2576000603a828154811061357a5761357a614d93565b60009182526020822001546040516370a0823160e01b81523060048201526001600160a01b03909116925082906370a0823190602401602060405180830381865afa1580156135cd573d6000803e3d6000fd5b505050506040513d601f19601f820116820180604052508101906135f19190614cc2565b9050801561366157603954604080516001600160a01b039283168152918416602083015281018290527ff6c07a063ed4e63808eb8da7112d46dbcd38de2b40a73dbcc9353c5a94c723539060600160405180910390a1603954613661906001600160a01b038481169116836132f4565b505060010161355d565b6001600160a01b0381166136c15760405162461bcd60e51b815260206004820152601a60248201527f4e657720476f7665726e6f722069732061646472657373283029000000000000604482015260640161059f565b6136ca81614555565b50565b6000807f00000000000000000000000000000000000000000000000000000000000000006001600160a01b03166318160ddd6040518163ffffffff1660e01b8152600401602060405180830381865afa15801561372e573d6000803e3d6000fd5b505050506040513d601f19601f820116820180604052508101906137529190614cc2565b9050806000036137655750600092915050565b600080613770613ca2565b91509150600061378083836145bc565b905060006137aa600261379b84670de0b6b3a7640000614ec0565b6137a59190614d07565b61464c565b905060006137c36137a583670de0b6b3a7640000614ec0565b905060006137d2826002614ec0565b9050866137df828b614ec0565b6137e99190614d07565b9998505050505050505050565b825161380990603a9060208601906149ab565b508151815181146138535760405162461bcd60e51b8152602060048201526014602482015273496e76616c696420696e7075742061727261797360601b604482015260640161059f565b60005b818110156138a25761389a84828151811061387357613873614d93565b602002602001015184838151811061388d5761388d614d93565b6020026020010151613195565b600101613856565b5050505050565b60405163095ea7b360e01b81526001600160a01b037f0000000000000000000000000000000000000000000000000000000000000000169063095ea7b390613919907f00000000000000000000000000000000000000000000000000000000000000009060001990600401614d7a565b6020604051808303816000875af1158015613938573d6000803e3d6000fd5b505050506040513d601f19601f820116820180604052508101906136ca9190614da9565b7f00000000000000000000000000000000000000000000000000000000000000006001600160a01b031663db2e21bc6040518163ffffffff1660e01b8152600401600060405180830381600087803b1580156139b757600080fd5b505af11580156139cb573d6000803e3d6000fd5b50506040516370a0823160e01b8152306004820152600092507f00000000000000000000000000000000000000000000000000000000000000006001600160a01b031691506370a0823190602401602060405180830381865afa158015613a36573d6000803e3d6000fd5b505050506040513d601f19601f82011682018060405250810190613a5a9190614cc2565b9050613a917f00000000000000000000000000000000000000000000000000000000000000006001600160a01b03811690836132f4565b60405163226bf2d160e21b81523060048201527f00000000000000000000000000000000000000000000000000000000000000006001600160a01b0316906389afcb449060240160408051808303816000875af1158015613af6573d6000803e3d6000fd5b505050506040513d601f19601f8201168201806040525081019061334a9190614ed7565b6040516370a0823160e01b815230600482015281907f00000000000000000000000000000000000000000000000000000000000000006001600160a01b0316906370a0823190602401602060405180830381865afa158015613b80573d6000803e3d6000fd5b505050506040513d601f19601f82011682018060405250810190613ba49190614cc2565b1015613bf25760405162461bcd60e51b815260206004820152601d60248201527f4e6f7420656e6f756768204c5020746f6b656e7320696e206761756765000000604482015260640161059f565b604051632e1a7d4d60e01b8152600481018290527f00000000000000000000000000000000000000000000000000000000000000006001600160a01b031690632e1a7d4d90602401600060405180830381600087803b158015613c5457600080fd5b505af1158015613c68573d6000803e3d6000fd5b50613a919250507f00000000000000000000000000000000000000000000000000000000000000006001600160a01b0381169150836132f4565b6000806000807f00000000000000000000000000000000000000000000000000000000000000006001600160a01b0316630902f1ac6040518163ffffffff1660e01b8152600401606060405180830381865afa158015613d06573d6000803e3d6000fd5b505050506040513d601f19601f82011682018060405250810190613d2a9190614efb565b50915091507f0000000000000000000000000000000000000000000000000000000000000000600014613d5d5781613d5f565b805b93507f000000000000000000000000000000000000000000000000000000000000000015613d8d5780613d8f565b815b925050509091565b60006001600160ff1b03821115613e015760405162461bcd60e51b815260206004820152602860248201527f53616665436173743a2076616c756520646f65736e27742066697420696e2061604482015267371034b73a191a9b60c11b606482015260840161059f565b5090565b6040516378a051ad60e11b8152600481018490526001600160a01b0383811660248301526000917f00000000000000000000000000000000000000000000000000000000000000009091169063f140a35a90604401602060405180830381865afa158015613e77573d6000803e3d6000fd5b505050506040513d601f19601f82011682018060405250810190613e9b9190614cc2565b9050613ed16001600160a01b0384167f0000000000000000000000000000000000000000000000000000000000000000866132f4565b7f00000000000000000000000000000000000000000000000000000000000000006001600160a01b0316836001600160a01b0316148015613f4357507f00000000000000000000000000000000000000000000000000000000000000006001600160a01b0316826001600160a01b0316145b80613fbb57507f00000000000000000000000000000000000000000000000000000000000000006001600160a01b0316836001600160a01b0316148015613fbb57507f00000000000000000000000000000000000000000000000000000000000000006001600160a01b0316826001600160a01b0316145b613ffa5760405162461bcd60e51b815260206004820152601060248201526f0556e737570706f7274656420737761760841b604482015260640161059f565b6000807f00000000000000000000000000000000000000000000000000000000000000006001600160a01b0316856001600160a01b031603614074577f0000000000000000000000000000000000000000000000000000000000000000600003614069575081905060006140ae565b5060009050816140ae565b7f00000000000000000000000000000000000000000000000000000000000000006000036140a7575060009050816140ae565b5081905060005b6040805160008152602081019182905263022c0d9f60e01b9091526001600160a01b037f0000000000000000000000000000000000000000000000000000000000000000169063022c0d9f9061410d9085908590309060248101614f79565b600060405180830381600087803b15801561412757600080fd5b505af115801561413b573d6000803e3d6000fd5b50505050505050505050565b600080614152613ca2565b509050600081116141925760405162461bcd60e51b815260206004820152600a602482015269115b5c1d1e481c1bdbdb60b21b604482015260640161059f565b807f00000000000000000000000000000000000000000000000000000000000000006001600160a01b03166318160ddd6040518163ffffffff1660e01b8152600401602060405180830381865afa1580156141f1573d6000803e3d6000fd5b505050506040513d601f19601f820116820180604052508101906142159190614cc2565b61421f9085614ec0565b6142299190614d07565b9150610f65600183614d3c565b600061428b826040518060400160405280602081526020017f5361666545524332303a206c6f772d6c6576656c2063616c6c206661696c6564815250856001600160a01b03166147c49092919063ffffffff16565b80519091501561334a57808060200190518101906142a99190614da9565b61334a5760405162461bcd60e51b815260206004820152602a60248201527f5361666545524332303a204552433230206f7065726174696f6e20646964206e6044820152691bdd081cdd58d8d9595960b21b606482015260840161059f565b6000806000614315613ca2565b91509150600082116143565760405162461bcd60e51b815260206004820152600a602482015269115b5c1d1e481c1bdbdb60b21b604482015260640161059f565b816143618286614ec0565b61436b9190614d07565b949350505050565b60006143c96001600160a01b037f0000000000000000000000000000000000000000000000000000000000000000167f0000000000000000000000000000000000000000000000000000000000000000856132f4565b61441d6001600160a01b037f0000000000000000000000000000000000000000000000000000000000000000167f0000000000000000000000000000000000000000000000000000000000000000846132f4565b6040516335313c2160e11b81523060048201527f00000000000000000000000000000000000000000000000000000000000000006001600160a01b031690636a627842906024016020604051808303816000875af1158015614483573d6000803e3d6000fd5b505050506040513d601f19601f820116820180604052508101906144a79190614cc2565b60405163b6b55f2560e01b8152600481018290529091507f00000000000000000000000000000000000000000000000000000000000000006001600160a01b03169063b6b55f2590602401600060405180830381600087803b15801561450c57600080fd5b505af1158015614520573d6000803e3d6000fd5b5050505092915050565b60008061453f84670de0b6b3a76400006147d3565b905061454b81846147df565b9150505b92915050565b806001600160a01b03166145756000805160206150208339815191525490565b6001600160a01b03167fc7c0c772add429241571afb3805861fb3cfa2af374534088b76cdb4325a87e9a60405160405180910390a360008051602061502083398151915255565b600080670de0b6b3a76400006145d28486614ec0565b6145dc9190614d07565b90506000670de0b6b3a76400006145f38580614ec0565b6145fd9190614d07565b670de0b6b3a76400006146108780614ec0565b61461a9190614d07565b6146249190614d3c565b9050670de0b6b3a76400006146398284614ec0565b6146439190614d07565b95945050505050565b60008160000361465e57506000919050565b50600181600160801b81106146785760409190911b9060801c5b6801000000000000000081106146935760209190911b9060401c5b64010000000081106146aa5760109190911b9060201c5b6201000081106146bf5760089190911b9060101c5b61010081106146d35760049190911b9060081c5b601081106146e65760029190911b9060041c5b600481106146f657600182901b91505b600182848161470757614707614cdb565b048301901c9150600182848161471f5761471f614cdb565b048301901c9150600182848161473757614737614cdb565b048301901c9150600182848161474f5761474f614cdb565b048301901c9150600182848161476757614767614cdb565b048301901c9150600182848161477f5761477f614cdb565b048301901c9150600182848161479757614797614cdb565b048301901c915060008284816147af576147af614cdb565b0490508083106147bd578092505b5050919050565b606061436b84846000856147eb565b6000610f658284614ec0565b6000610f658284614d07565b60608247101561484c5760405162461bcd60e51b815260206004820152602660248201527f416464726573733a20696e73756666696369656e742062616c616e636520666f6044820152651c8818d85b1b60d21b606482015260840161059f565b843b61489a5760405162461bcd60e51b815260206004820152601d60248201527f416464726573733a2063616c6c20746f206e6f6e2d636f6e7472616374000000604482015260640161059f565b600080866001600160a01b031685876040516148b69190614fb0565b60006040518083038185875af1925050503d80600081146148f3576040519150601f19603f3d011682016040523d82523d6000602084013e6148f8565b606091505b5091509150614908828286614913565b979650505050505050565b60608315614922575081610f65565b8251156149325782518084602001fd5b8160405162461bcd60e51b815260040161059f9190614fcc565b82805482825590600052602060002090810192821561499f579160200282015b8281111561499f5781546001600160a01b0319166001600160a01b0384351617825560209092019160019091019061496c565b50613e01929150614a00565b82805482825590600052602060002090810192821561499f579160200282015b8281111561499f57825182546001600160a01b0319166001600160a01b039091161782556020909201916001909101906149cb565b5b80821115613e015760008155600101614a01565b6001600160a01b03811681146136ca57600080fd5b60008060408385031215614a3d57600080fd5b8235614a4881614a15565b91506020830135614a5881614a15565b809150509250929050565b600060208284031215614a7557600080fd5b8135610f6581614a15565b60008060408385031215614a9357600080fd5b8235614a9e81614a15565b946020939093013593505050565b600060208284031215614abe57600080fd5b5035919050565b60008083601f840112614ad757600080fd5b50813567ffffffffffffffff811115614aef57600080fd5b6020830191508360208260051b8501011115614b0a57600080fd5b9250929050565b600080600060408486031215614b2657600080fd5b833567ffffffffffffffff811115614b3d57600080fd5b614b4986828701614ac5565b909790965060209590950135949350505050565b60008060208385031215614b7057600080fd5b823567ffffffffffffffff811115614b8757600080fd5b614b9385828601614ac5565b90969095509350505050565b600080600060608486031215614bb457600080fd5b8335614bbf81614a15565b92506020840135614bcf81614a15565b929592945050506040919091013590565b602080825282518282018190526000918401906040840190835b81811015614c215783516001600160a01b0316835260209384019390920191600101614bfa565b509095945050505050565b6020808252601a908201527f43616c6c6572206973206e6f742074686520476f7665726e6f72000000000000604082015260600190565b60208082526017908201527f43616c6c6572206973206e6f7420746865205661756c74000000000000000000604082015260600190565b6020808252600e908201526d1499595b9d1c985b9d0818d85b1b60921b604082015260600190565b600060208284031215614cd457600080fd5b5051919050565b634e487b7160e01b600052601260045260246000fd5b634e487b7160e01b600052601160045260246000fd5b600082614d2457634e487b7160e01b600052601260045260246000fd5b500490565b8181038181111561454f5761454f614cf1565b8082018082111561454f5761454f614cf1565b602080825260119082015270155b9cdd5c1c1bdc9d195908185cdcd95d607a1b604082015260600190565b6001600160a01b03929092168252602082015260400190565b634e487b7160e01b600052603260045260246000fd5b600060208284031215614dbb57600080fd5b81518015158114610f6557600080fd5b634e487b7160e01b600052603160045260246000fd5b600060208284031215614df357600080fd5b8151610f6581614a15565b8181036000831280158383131683831282161715614e1e57614e1e614cf1565b5092915050565b6040808252845490820181905260008581526020812090916060840190835b81811015614e6b5783546001600160a01b0316835260019384019360209093019201614e44565b50508381036020808601919091528582520190508460005b85811015614eb4578135614e9681614a15565b6001600160a01b031683526020928301929190910190600101614e83565b50909695505050505050565b808202811582820484141761454f5761454f614cf1565b60008060408385031215614eea57600080fd5b505080516020909101519092909150565b600080600060608486031215614f1057600080fd5b5050815160208301516040909301519094929350919050565b60005b83811015614f44578181015183820152602001614f2c565b50506000910152565b60008151808452614f65816020860160208601614f29565b601f01601f19169290920160200192915050565b84815283602082015260018060a01b0383166040820152608060608201526000614fa66080830184614f4d565b9695505050505050565b60008251614fc2818460208701614f29565b9190910192915050565b602081526000610f656020830184614f4d56fe5548c837ab068cf56a2c2479df0882a4922fd203edb7517321831d95078c5f6253bf423e48ed90e97d02ab0ebab13b2a235a6bfbe9c321847d5c175333ac45357bea13895fa79d2831e0a9e28edede30099005a50d652d8957cf8a607ee6ca4a2717ead6b9200dd235aad468c9809ea400fe33ac69b5bfaa6d3e90fc922b6398a26469706673582212205972c48df50bbb2e25ce53146b176ea5e017fb424c33fa47c5f0a36263e3ae8164736f6c634300081c00337bea13895fa79d2831e0a9e28edede30099005a50d652d8957cf8a607ee6ca4a",
  "libraries": {},
  "devdoc": {
    "kind": "dev",
    "methods": {
      "checkBalance(address)": {
        "params": {
          "_asset": "Address of the asset token"
        },
        "returns": {
          "balance": "   Total value in asset."
        }
      },
      "constructor": {
        "params": {
          "_baseConfig": "The `platformAddress` is the address of the Supernova OETH/WETH pool. The `vaultAddress` is the address of the OETH Vault.",
          "_gauge": "Address of the Supernova gauge for the pool."
        }
      },
      "deposit(address,uint256)": {
        "details": "This tx must be wrapped by the VaultValueChecker. To minimize loses, the pool should be rebalanced before depositing. The pool's oToken/asset price must be within the maxDepeg range.",
        "params": {
          "_asset": "Address of asset token.",
          "_assetAmount": "Amount of asset tokens to deposit."
        }
      },
      "depositAll()": {
        "details": "This tx must be wrapped by the VaultValueChecker. To minimize loses, the pool should be rebalanced before depositing. The pool's oToken/asset price must be within the maxDepeg range."
      },
      "getRewardTokenAddresses()": {
        "returns": {
          "_0": "address[] the reward token addresses."
        }
      },
      "initialize(address[],uint256)": {
        "params": {
          "_maxDepeg": "The max amount the OToken/asset price can deviate from peg (1e18) before deposits are reverted.",
          "_rewardTokenAddresses": "Array containing SWPx token address"
        }
      },
      "removePToken(uint256)": {
        "params": {
          "_assetIndex": "Index of the asset to be removed"
        }
      },
      "setHarvesterAddress(address)": {
        "params": {
          "_harvesterAddress": "Address of the harvester contract."
        }
      },
      "setMaxDepeg(uint256)": {
        "params": {
          "_maxDepeg": "the OToken/asset price from peg (1e18) in 18 decimals. eg 0.01e18 or 1e16 is 1% which is 100 basis points."
        }
      },
      "setPTokenAddress(address,address)": {
        "params": {
          "_asset": "Address for the asset",
          "_pToken": "Address for the corresponding platform token"
        }
      },
      "setRewardTokenAddresses(address[])": {
        "params": {
          "_rewardTokenAddresses": "Array of reward token addresses"
        }
      },
      "supportsAsset(address)": {
        "params": {
          "_asset": "Address of the asset"
        }
      },
      "swapAssetsToPool(uint256)": {
        "params": {
          "_assetAmount": "Amount of asset tokens to swap into the pool."
        }
      },
      "swapOTokensToPool(uint256)": {
        "params": {
          "_oTokenAmount": "Amount of OToken to swap into the pool."
        }
      },
      "transferGovernance(address)": {
        "params": {
          "_newGovernor": "Address of the new Governor"
        }
      },
      "transferToken(address,uint256)": {
        "params": {
          "_amount": "Amount of the asset to transfer",
          "_asset": "Address for the asset"
        }
      },
      "withdraw(address,address,uint256)": {
        "params": {
          "_asset": "Address of the asset token.",
          "_assetAmount": "Amount of asset tokens to withdraw.",
          "_recipient": "Address of the Vault."
        }
      },
      "withdrawAll()": {
        "details": "There is no solvency check here as withdrawAll can be called to quickly secure assets to the Vault in emergencies."
      }
    },
    "version": 1
  },
  "userdoc": {
    "kind": "user",
    "methods": {
      "PRECISION()": {
        "notice": "Precision for the Algebra Stable AMM (sAMM) invariant k."
      },
      "SOLVENCY_THRESHOLD()": {
        "notice": "a threshold under which the contract no longer allows for the protocol to manually rebalance.      Guarding against a strategist / guardian being taken over and with multiple transactions      draining the protocol funds."
      },
      "asset()": {
        "notice": "Address of the asset (non OToken) token contract"
      },
      "assetToPToken(address)": {
        "notice": "asset => pToken (Platform Specific Token Address)"
      },
      "checkBalance(address)": {
        "notice": "Get the asset value of assets in the strategy and Algebra pool. The value of the assets in the pool is calculated assuming the pool is balanced. This way the value can not be manipulated by changing the pool's token balances."
      },
      "claimGovernance()": {
        "notice": "Claim Governance of the contract to a new account (`newGovernor`). Can only be called by the new Governor."
      },
      "collectRewardTokens()": {
        "notice": "Collect accumulated SWPx (and other) rewards and send to the Harvester."
      },
      "deposit(address,uint256)": {
        "notice": "Deposit an amount of asset into the Algebra pool. Mint OToken in proportion to the pool's asset and OToken reserves, transfer asset and OToken to the pool, mint the pool's LP token and deposit in the gauge."
      },
      "depositAll()": {
        "notice": "Deposit all the strategy's asset tokens into the Algebra pool. Mint OToken in proportion to the pool's asset and OToken reserves, transfer asset and OToken to the pool, mint the pool's LP token and deposit in the gauge."
      },
      "gauge()": {
        "notice": "Address of the Algebra Gauge contract."
      },
      "getRewardTokenAddresses()": {
        "notice": "Get the reward token addresses."
      },
      "governor()": {
        "notice": "Returns the address of the current Governor."
      },
      "harvesterAddress()": {
        "notice": "Address of the Harvester contract allowed to collect reward tokens"
      },
      "initialize(address[],uint256)": {
        "notice": "Initializer for setting up strategy internal state. This overrides the InitializableAbstractStrategy initializer as Algebra strategies don't fit well within that abstraction."
      },
      "isGovernor()": {
        "notice": "Returns true if the caller is the current Governor."
      },
      "maxDepeg()": {
        "notice": "The max amount the OToken/asset price can deviate from peg (1e18) before deposits are reverted scaled to 18 decimals. eg 0.01e18 or 1e16 is 1% which is 100 basis points. This is the amount below and above peg so a 50 basis point deviation (0.005e18) allows a price range from 0.995 to 1.005."
      },
      "oToken()": {
        "notice": "Address of the OToken token contract."
      },
      "oTokenPoolIndex()": {
        "notice": "Index of the OToken in the Algebra pool."
      },
      "platformAddress()": {
        "notice": "Address of the underlying platform"
      },
      "pool()": {
        "notice": "Address of the Algebra Stable pool contract."
      },
      "removePToken(uint256)": {
        "notice": "Remove a supported asset by passing its index.      This method can only be called by the system Governor"
      },
      "rewardTokenAddresses(uint256)": {
        "notice": "Address of the reward tokens. eg CRV, BAL, CVX, AURA"
      },
      "safeApproveAllTokens()": {
        "notice": "Approve the spending of all assets by their corresponding pool tokens,      if for some reason is it necessary."
      },
      "setHarvesterAddress(address)": {
        "notice": "Set the Harvester contract that can collect rewards."
      },
      "setMaxDepeg(uint256)": {
        "notice": "Set the maximum deviation from the OToken/asset peg (1e18) before deposits are reverted."
      },
      "setPTokenAddress(address,address)": {
        "notice": "Provide support for asset by passing its pToken address.      This method can only be called by the system Governor"
      },
      "setRewardTokenAddresses(address[])": {
        "notice": "Set the reward token addresses. Any old addresses will be overwritten."
      },
      "supportsAsset(address)": {
        "notice": "Returns bool indicating whether asset is supported by strategy"
      },
      "swapAssetsToPool(uint256)": {
        "notice": "Used when there is more OToken than asset in the pool. asset and OToken is removed from the pool, the received asset is swapped for OToken and the left over OToken in the strategy is burnt. The OToken/asset price is < 1.0 so OToken is being bought at a discount."
      },
      "swapOTokensToPool(uint256)": {
        "notice": "Used when there is more asset than OToken in the pool. OToken is minted and swapped for asset against the pool, more OToken is minted and added back into the pool with the swapped out asset. The OToken/asset price is > 1.0 so OToken is being sold at a premium."
      },
      "transferGovernance(address)": {
        "notice": "Transfers Governance of the contract to a new account (`newGovernor`). Can only be called by the current Governor. Must be claimed for this to complete"
      },
      "transferToken(address,uint256)": {
        "notice": "Transfer token to governor. Intended for recovering tokens stuck in      strategy contracts, i.e. mistaken sends."
      },
      "vaultAddress()": {
        "notice": "Address of the OToken vault"
      },
      "withdraw(address,address,uint256)": {
        "notice": "Withdraw asset and OToken from the Algebra pool, burn the OToken, and transfer the asset to the recipient."
      },
      "withdrawAll()": {
        "notice": "Withdraw all pool LP tokens from the gauge, remove all asset and OToken from the Algebra pool, burn all the OToken, and transfer all the asset to the Vault contract."
      }
    },
    "version": 1
  },
  "storageLayout": {
    "storage": [
      {
        "astId": 40537,
        "contract": "contracts/strategies/algebra/OETHSupernovaAMOStrategy.sol:OETHSupernovaAMOStrategy",
        "label": "initialized",
        "offset": 0,
        "slot": "0",
        "type": "t_bool"
      },
      {
        "astId": 40540,
        "contract": "contracts/strategies/algebra/OETHSupernovaAMOStrategy.sol:OETHSupernovaAMOStrategy",
        "label": "initializing",
        "offset": 1,
        "slot": "0",
        "type": "t_bool"
      },
      {
        "astId": 40580,
        "contract": "contracts/strategies/algebra/OETHSupernovaAMOStrategy.sol:OETHSupernovaAMOStrategy",
        "label": "______gap",
        "offset": 0,
        "slot": "1",
        "type": "t_array(t_uint256)50_storage"
      },
      {
        "astId": 40660,
        "contract": "contracts/strategies/algebra/OETHSupernovaAMOStrategy.sol:OETHSupernovaAMOStrategy",
        "label": "_deprecated_platformAddress",
        "offset": 0,
        "slot": "51",
        "type": "t_address"
      },
      {
        "astId": 40663,
        "contract": "contracts/strategies/algebra/OETHSupernovaAMOStrategy.sol:OETHSupernovaAMOStrategy",
        "label": "_deprecated_vaultAddress",
        "offset": 0,
        "slot": "52",
        "type": "t_address"
      },
      {
        "astId": 40668,
        "contract": "contracts/strategies/algebra/OETHSupernovaAMOStrategy.sol:OETHSupernovaAMOStrategy",
        "label": "assetToPToken",
        "offset": 0,
        "slot": "53",
        "type": "t_mapping(t_address,t_address)"
      },
      {
        "astId": 40672,
        "contract": "contracts/strategies/algebra/OETHSupernovaAMOStrategy.sol:OETHSupernovaAMOStrategy",
        "label": "assetsMapped",
        "offset": 0,
        "slot": "54",
        "type": "t_array(t_address)dyn_storage"
      },
      {
        "astId": 40674,
        "contract": "contracts/strategies/algebra/OETHSupernovaAMOStrategy.sol:OETHSupernovaAMOStrategy",
        "label": "_deprecated_rewardTokenAddress",
        "offset": 0,
        "slot": "55",
        "type": "t_address"
      },
      {
        "astId": 40676,
        "contract": "contracts/strategies/algebra/OETHSupernovaAMOStrategy.sol:OETHSupernovaAMOStrategy",
        "label": "_deprecated_rewardLiquidationThreshold",
        "offset": 0,
        "slot": "56",
        "type": "t_uint256"
      },
      {
        "astId": 40679,
        "contract": "contracts/strategies/algebra/OETHSupernovaAMOStrategy.sol:OETHSupernovaAMOStrategy",
        "label": "harvesterAddress",
        "offset": 0,
        "slot": "57",
        "type": "t_address"
      },
      {
        "astId": 40683,
        "contract": "contracts/strategies/algebra/OETHSupernovaAMOStrategy.sol:OETHSupernovaAMOStrategy",
        "label": "rewardTokenAddresses",
        "offset": 0,
        "slot": "58",
        "type": "t_array(t_address)dyn_storage"
      },
      {
        "astId": 40687,
        "contract": "contracts/strategies/algebra/OETHSupernovaAMOStrategy.sol:OETHSupernovaAMOStrategy",
        "label": "_reserved",
        "offset": 0,
        "slot": "59",
        "type": "t_array(t_int256)98_storage"
      },
      {
        "astId": 32306,
        "contract": "contracts/strategies/algebra/OETHSupernovaAMOStrategy.sol:OETHSupernovaAMOStrategy",
        "label": "maxDepeg",
        "offset": 0,
        "slot": "157",
        "type": "t_uint256"
      }
    ],
    "types": {
      "t_address": {
        "encoding": "inplace",
        "label": "address",
        "numberOfBytes": "20"
      },
      "t_array(t_address)dyn_storage": {
        "base": "t_address",
        "encoding": "dynamic_array",
        "label": "address[]",
        "numberOfBytes": "32"
      },
      "t_array(t_int256)98_storage": {
        "base": "t_int256",
        "encoding": "inplace",
        "label": "int256[98]",
        "numberOfBytes": "3136"
      },
      "t_array(t_uint256)50_storage": {
        "base": "t_uint256",
        "encoding": "inplace",
        "label": "uint256[50]",
        "numberOfBytes": "1600"
      },
      "t_bool": {
        "encoding": "inplace",
        "label": "bool",
        "numberOfBytes": "1"
      },
      "t_int256": {
        "encoding": "inplace",
        "label": "int256",
        "numberOfBytes": "32"
      },
      "t_mapping(t_address,t_address)": {
        "encoding": "mapping",
        "key": "t_address",
        "label": "mapping(address => address)",
        "numberOfBytes": "32",
        "value": "t_address"
      },
      "t_uint256": {
        "encoding": "inplace",
        "label": "uint256",
        "numberOfBytes": "32"
      }
    }
  }
}