{
  "address": "0x1ACee8cBAA5e54A65080B6bBD794dF1491785eD5",
  "abi": [
    {
      "inputs": [
        {
          "internalType": "address",
          "name": "_weth",
          "type": "address"
        }
      ],
      "stateMutability": "nonpayable",
      "type": "constructor"
    },
    {
      "anonymous": false,
      "inputs": [
        {
          "indexed": false,
          "internalType": "uint256",
          "name": "_threshold",
          "type": "uint256"
        }
      ],
      "name": "AllocateThresholdUpdated",
      "type": "event"
    },
    {
      "anonymous": false,
      "inputs": [
        {
          "indexed": false,
          "internalType": "address",
          "name": "_asset",
          "type": "address"
        },
        {
          "indexed": false,
          "internalType": "address",
          "name": "_strategy",
          "type": "address"
        },
        {
          "indexed": false,
          "internalType": "uint256",
          "name": "_amount",
          "type": "uint256"
        }
      ],
      "name": "AssetAllocated",
      "type": "event"
    },
    {
      "anonymous": false,
      "inputs": [
        {
          "indexed": false,
          "internalType": "address",
          "name": "_asset",
          "type": "address"
        },
        {
          "indexed": false,
          "internalType": "address",
          "name": "_strategy",
          "type": "address"
        }
      ],
      "name": "AssetDefaultStrategyUpdated",
      "type": "event"
    },
    {
      "anonymous": false,
      "inputs": [
        {
          "indexed": false,
          "internalType": "address",
          "name": "_asset",
          "type": "address"
        }
      ],
      "name": "AssetRemoved",
      "type": "event"
    },
    {
      "anonymous": false,
      "inputs": [
        {
          "indexed": false,
          "internalType": "address",
          "name": "_asset",
          "type": "address"
        }
      ],
      "name": "AssetSupported",
      "type": "event"
    },
    {
      "anonymous": false,
      "inputs": [],
      "name": "CapitalPaused",
      "type": "event"
    },
    {
      "anonymous": false,
      "inputs": [],
      "name": "CapitalUnpaused",
      "type": "event"
    },
    {
      "anonymous": false,
      "inputs": [
        {
          "indexed": true,
          "internalType": "address",
          "name": "_dripper",
          "type": "address"
        }
      ],
      "name": "DripperChanged",
      "type": "event"
    },
    {
      "anonymous": false,
      "inputs": [
        {
          "indexed": true,
          "internalType": "address",
          "name": "previousGovernor",
          "type": "address"
        },
        {
          "indexed": true,
          "internalType": "address",
          "name": "newGovernor",
          "type": "address"
        }
      ],
      "name": "GovernorshipTransferred",
      "type": "event"
    },
    {
      "anonymous": false,
      "inputs": [
        {
          "indexed": false,
          "internalType": "uint256",
          "name": "maxSupplyDiff",
          "type": "uint256"
        }
      ],
      "name": "MaxSupplyDiffChanged",
      "type": "event"
    },
    {
      "anonymous": false,
      "inputs": [
        {
          "indexed": false,
          "internalType": "address",
          "name": "_addr",
          "type": "address"
        },
        {
          "indexed": false,
          "internalType": "uint256",
          "name": "_value",
          "type": "uint256"
        }
      ],
      "name": "Mint",
      "type": "event"
    },
    {
      "anonymous": false,
      "inputs": [
        {
          "indexed": false,
          "internalType": "uint256",
          "name": "_threshold",
          "type": "uint256"
        }
      ],
      "name": "NetOusdMintForStrategyThresholdChanged",
      "type": "event"
    },
    {
      "anonymous": false,
      "inputs": [
        {
          "indexed": false,
          "internalType": "address",
          "name": "_ousdMetaStrategy",
          "type": "address"
        }
      ],
      "name": "OusdMetaStrategyUpdated",
      "type": "event"
    },
    {
      "anonymous": false,
      "inputs": [
        {
          "indexed": true,
          "internalType": "address",
          "name": "previousGovernor",
          "type": "address"
        },
        {
          "indexed": true,
          "internalType": "address",
          "name": "newGovernor",
          "type": "address"
        }
      ],
      "name": "PendingGovernorshipTransfer",
      "type": "event"
    },
    {
      "anonymous": false,
      "inputs": [
        {
          "indexed": false,
          "internalType": "address",
          "name": "_priceProvider",
          "type": "address"
        }
      ],
      "name": "PriceProviderUpdated",
      "type": "event"
    },
    {
      "anonymous": false,
      "inputs": [],
      "name": "RebasePaused",
      "type": "event"
    },
    {
      "anonymous": false,
      "inputs": [
        {
          "indexed": false,
          "internalType": "uint256",
          "name": "_threshold",
          "type": "uint256"
        }
      ],
      "name": "RebaseThresholdUpdated",
      "type": "event"
    },
    {
      "anonymous": false,
      "inputs": [],
      "name": "RebaseUnpaused",
      "type": "event"
    },
    {
      "anonymous": false,
      "inputs": [
        {
          "indexed": false,
          "internalType": "address",
          "name": "_addr",
          "type": "address"
        },
        {
          "indexed": false,
          "internalType": "uint256",
          "name": "_value",
          "type": "uint256"
        }
      ],
      "name": "Redeem",
      "type": "event"
    },
    {
      "anonymous": false,
      "inputs": [
        {
          "indexed": false,
          "internalType": "uint256",
          "name": "_redeemFeeBps",
          "type": "uint256"
        }
      ],
      "name": "RedeemFeeUpdated",
      "type": "event"
    },
    {
      "anonymous": false,
      "inputs": [
        {
          "indexed": false,
          "internalType": "address",
          "name": "_address",
          "type": "address"
        }
      ],
      "name": "StrategistUpdated",
      "type": "event"
    },
    {
      "anonymous": false,
      "inputs": [
        {
          "indexed": true,
          "internalType": "address",
          "name": "strategy",
          "type": "address"
        }
      ],
      "name": "StrategyAddedToMintWhitelist",
      "type": "event"
    },
    {
      "anonymous": false,
      "inputs": [
        {
          "indexed": false,
          "internalType": "address",
          "name": "_addr",
          "type": "address"
        }
      ],
      "name": "StrategyApproved",
      "type": "event"
    },
    {
      "anonymous": false,
      "inputs": [
        {
          "indexed": false,
          "internalType": "address",
          "name": "_addr",
          "type": "address"
        }
      ],
      "name": "StrategyRemoved",
      "type": "event"
    },
    {
      "anonymous": false,
      "inputs": [
        {
          "indexed": true,
          "internalType": "address",
          "name": "strategy",
          "type": "address"
        }
      ],
      "name": "StrategyRemovedFromMintWhitelist",
      "type": "event"
    },
    {
      "anonymous": false,
      "inputs": [
        {
          "indexed": false,
          "internalType": "uint256",
          "name": "_basis",
          "type": "uint256"
        }
      ],
      "name": "SwapAllowedUndervalueChanged",
      "type": "event"
    },
    {
      "anonymous": false,
      "inputs": [
        {
          "indexed": false,
          "internalType": "address",
          "name": "_asset",
          "type": "address"
        },
        {
          "indexed": false,
          "internalType": "uint256",
          "name": "_basis",
          "type": "uint256"
        }
      ],
      "name": "SwapSlippageChanged",
      "type": "event"
    },
    {
      "anonymous": false,
      "inputs": [
        {
          "indexed": true,
          "internalType": "address",
          "name": "_fromAsset",
          "type": "address"
        },
        {
          "indexed": true,
          "internalType": "address",
          "name": "_toAsset",
          "type": "address"
        },
        {
          "indexed": false,
          "internalType": "uint256",
          "name": "_fromAssetAmount",
          "type": "uint256"
        },
        {
          "indexed": false,
          "internalType": "uint256",
          "name": "_toAssetAmount",
          "type": "uint256"
        }
      ],
      "name": "Swapped",
      "type": "event"
    },
    {
      "anonymous": false,
      "inputs": [
        {
          "indexed": false,
          "internalType": "address",
          "name": "_address",
          "type": "address"
        }
      ],
      "name": "SwapperChanged",
      "type": "event"
    },
    {
      "anonymous": false,
      "inputs": [
        {
          "indexed": false,
          "internalType": "address",
          "name": "_address",
          "type": "address"
        }
      ],
      "name": "TrusteeAddressChanged",
      "type": "event"
    },
    {
      "anonymous": false,
      "inputs": [
        {
          "indexed": false,
          "internalType": "uint256",
          "name": "_basis",
          "type": "uint256"
        }
      ],
      "name": "TrusteeFeeBpsChanged",
      "type": "event"
    },
    {
      "anonymous": false,
      "inputs": [
        {
          "indexed": false,
          "internalType": "uint256",
          "name": "_vaultBuffer",
          "type": "uint256"
        }
      ],
      "name": "VaultBufferUpdated",
      "type": "event"
    },
    {
      "anonymous": false,
      "inputs": [
        {
          "indexed": false,
          "internalType": "uint256",
          "name": "_newDelay",
          "type": "uint256"
        }
      ],
      "name": "WithdrawalClaimDelayUpdated",
      "type": "event"
    },
    {
      "anonymous": false,
      "inputs": [
        {
          "indexed": false,
          "internalType": "uint256",
          "name": "_claimable",
          "type": "uint256"
        },
        {
          "indexed": false,
          "internalType": "uint256",
          "name": "_newClaimable",
          "type": "uint256"
        }
      ],
      "name": "WithdrawalClaimable",
      "type": "event"
    },
    {
      "anonymous": false,
      "inputs": [
        {
          "indexed": true,
          "internalType": "address",
          "name": "_withdrawer",
          "type": "address"
        },
        {
          "indexed": true,
          "internalType": "uint256",
          "name": "_requestId",
          "type": "uint256"
        },
        {
          "indexed": false,
          "internalType": "uint256",
          "name": "_amount",
          "type": "uint256"
        }
      ],
      "name": "WithdrawalClaimed",
      "type": "event"
    },
    {
      "anonymous": false,
      "inputs": [
        {
          "indexed": true,
          "internalType": "address",
          "name": "_withdrawer",
          "type": "address"
        },
        {
          "indexed": true,
          "internalType": "uint256",
          "name": "_requestId",
          "type": "uint256"
        },
        {
          "indexed": false,
          "internalType": "uint256",
          "name": "_amount",
          "type": "uint256"
        },
        {
          "indexed": false,
          "internalType": "uint256",
          "name": "_queued",
          "type": "uint256"
        }
      ],
      "name": "WithdrawalRequested",
      "type": "event"
    },
    {
      "anonymous": false,
      "inputs": [
        {
          "indexed": false,
          "internalType": "address",
          "name": "_to",
          "type": "address"
        },
        {
          "indexed": false,
          "internalType": "uint256",
          "name": "_yield",
          "type": "uint256"
        },
        {
          "indexed": false,
          "internalType": "uint256",
          "name": "_fee",
          "type": "uint256"
        }
      ],
      "name": "YieldDistribution",
      "type": "event"
    },
    {
      "stateMutability": "nonpayable",
      "type": "fallback"
    },
    {
      "inputs": [],
      "name": "addWithdrawalQueueLiquidity",
      "outputs": [],
      "stateMutability": "nonpayable",
      "type": "function"
    },
    {
      "inputs": [],
      "name": "allocate",
      "outputs": [],
      "stateMutability": "nonpayable",
      "type": "function"
    },
    {
      "inputs": [
        {
          "internalType": "address",
          "name": "",
          "type": "address"
        }
      ],
      "name": "assetDefaultStrategies",
      "outputs": [
        {
          "internalType": "address",
          "name": "",
          "type": "address"
        }
      ],
      "stateMutability": "view",
      "type": "function"
    },
    {
      "inputs": [],
      "name": "autoAllocateThreshold",
      "outputs": [
        {
          "internalType": "uint256",
          "name": "",
          "type": "uint256"
        }
      ],
      "stateMutability": "view",
      "type": "function"
    },
    {
      "inputs": [
        {
          "internalType": "uint256",
          "name": "_amount",
          "type": "uint256"
        }
      ],
      "name": "burnForStrategy",
      "outputs": [],
      "stateMutability": "nonpayable",
      "type": "function"
    },
    {
      "inputs": [],
      "name": "cacheWETHAssetIndex",
      "outputs": [],
      "stateMutability": "nonpayable",
      "type": "function"
    },
    {
      "inputs": [
        {
          "internalType": "uint256",
          "name": "_amount",
          "type": "uint256"
        }
      ],
      "name": "calculateRedeemOutputs",
      "outputs": [
        {
          "internalType": "uint256[]",
          "name": "",
          "type": "uint256[]"
        }
      ],
      "stateMutability": "view",
      "type": "function"
    },
    {
      "inputs": [],
      "name": "capitalPaused",
      "outputs": [
        {
          "internalType": "bool",
          "name": "",
          "type": "bool"
        }
      ],
      "stateMutability": "view",
      "type": "function"
    },
    {
      "inputs": [
        {
          "internalType": "address",
          "name": "_asset",
          "type": "address"
        }
      ],
      "name": "checkBalance",
      "outputs": [
        {
          "internalType": "uint256",
          "name": "",
          "type": "uint256"
        }
      ],
      "stateMutability": "view",
      "type": "function"
    },
    {
      "inputs": [],
      "name": "claimGovernance",
      "outputs": [],
      "stateMutability": "nonpayable",
      "type": "function"
    },
    {
      "inputs": [
        {
          "internalType": "uint256",
          "name": "_requestId",
          "type": "uint256"
        }
      ],
      "name": "claimWithdrawal",
      "outputs": [
        {
          "internalType": "uint256",
          "name": "amount",
          "type": "uint256"
        }
      ],
      "stateMutability": "nonpayable",
      "type": "function"
    },
    {
      "inputs": [
        {
          "internalType": "uint256[]",
          "name": "_requestIds",
          "type": "uint256[]"
        }
      ],
      "name": "claimWithdrawals",
      "outputs": [
        {
          "internalType": "uint256[]",
          "name": "amounts",
          "type": "uint256[]"
        },
        {
          "internalType": "uint256",
          "name": "totalAmount",
          "type": "uint256"
        }
      ],
      "stateMutability": "nonpayable",
      "type": "function"
    },
    {
      "inputs": [],
      "name": "dripper",
      "outputs": [
        {
          "internalType": "address",
          "name": "",
          "type": "address"
        }
      ],
      "stateMutability": "view",
      "type": "function"
    },
    {
      "inputs": [],
      "name": "getAllAssets",
      "outputs": [
        {
          "internalType": "address[]",
          "name": "",
          "type": "address[]"
        }
      ],
      "stateMutability": "view",
      "type": "function"
    },
    {
      "inputs": [],
      "name": "getAllStrategies",
      "outputs": [
        {
          "internalType": "address[]",
          "name": "",
          "type": "address[]"
        }
      ],
      "stateMutability": "view",
      "type": "function"
    },
    {
      "inputs": [
        {
          "internalType": "address",
          "name": "_asset",
          "type": "address"
        }
      ],
      "name": "getAssetConfig",
      "outputs": [
        {
          "components": [
            {
              "internalType": "bool",
              "name": "isSupported",
              "type": "bool"
            },
            {
              "internalType": "enum VaultStorage.UnitConversion",
              "name": "unitConversion",
              "type": "uint8"
            },
            {
              "internalType": "uint8",
              "name": "decimals",
              "type": "uint8"
            },
            {
              "internalType": "uint16",
              "name": "allowedOracleSlippageBps",
              "type": "uint16"
            }
          ],
          "internalType": "struct VaultStorage.Asset",
          "name": "config",
          "type": "tuple"
        }
      ],
      "stateMutability": "view",
      "type": "function"
    },
    {
      "inputs": [],
      "name": "getAssetCount",
      "outputs": [
        {
          "internalType": "uint256",
          "name": "",
          "type": "uint256"
        }
      ],
      "stateMutability": "view",
      "type": "function"
    },
    {
      "inputs": [],
      "name": "getStrategyCount",
      "outputs": [
        {
          "internalType": "uint256",
          "name": "",
          "type": "uint256"
        }
      ],
      "stateMutability": "view",
      "type": "function"
    },
    {
      "inputs": [],
      "name": "governor",
      "outputs": [
        {
          "internalType": "address",
          "name": "",
          "type": "address"
        }
      ],
      "stateMutability": "view",
      "type": "function"
    },
    {
      "inputs": [
        {
          "internalType": "address",
          "name": "_priceProvider",
          "type": "address"
        },
        {
          "internalType": "address",
          "name": "_oToken",
          "type": "address"
        }
      ],
      "name": "initialize",
      "outputs": [],
      "stateMutability": "nonpayable",
      "type": "function"
    },
    {
      "inputs": [],
      "name": "isGovernor",
      "outputs": [
        {
          "internalType": "bool",
          "name": "",
          "type": "bool"
        }
      ],
      "stateMutability": "view",
      "type": "function"
    },
    {
      "inputs": [
        {
          "internalType": "address",
          "name": "",
          "type": "address"
        }
      ],
      "name": "isMintWhitelistedStrategy",
      "outputs": [
        {
          "internalType": "bool",
          "name": "",
          "type": "bool"
        }
      ],
      "stateMutability": "view",
      "type": "function"
    },
    {
      "inputs": [
        {
          "internalType": "address",
          "name": "_asset",
          "type": "address"
        }
      ],
      "name": "isSupportedAsset",
      "outputs": [
        {
          "internalType": "bool",
          "name": "",
          "type": "bool"
        }
      ],
      "stateMutability": "view",
      "type": "function"
    },
    {
      "inputs": [],
      "name": "maxSupplyDiff",
      "outputs": [
        {
          "internalType": "uint256",
          "name": "",
          "type": "uint256"
        }
      ],
      "stateMutability": "view",
      "type": "function"
    },
    {
      "inputs": [
        {
          "internalType": "address",
          "name": "_asset",
          "type": "address"
        },
        {
          "internalType": "uint256",
          "name": "_amount",
          "type": "uint256"
        },
        {
          "internalType": "uint256",
          "name": "_minimumOusdAmount",
          "type": "uint256"
        }
      ],
      "name": "mint",
      "outputs": [],
      "stateMutability": "nonpayable",
      "type": "function"
    },
    {
      "inputs": [
        {
          "internalType": "uint256",
          "name": "_amount",
          "type": "uint256"
        }
      ],
      "name": "mintForStrategy",
      "outputs": [],
      "stateMutability": "nonpayable",
      "type": "function"
    },
    {
      "inputs": [],
      "name": "netOusdMintForStrategyThreshold",
      "outputs": [
        {
          "internalType": "uint256",
          "name": "",
          "type": "uint256"
        }
      ],
      "stateMutability": "view",
      "type": "function"
    },
    {
      "inputs": [],
      "name": "netOusdMintedForStrategy",
      "outputs": [
        {
          "internalType": "int256",
          "name": "",
          "type": "int256"
        }
      ],
      "stateMutability": "view",
      "type": "function"
    },
    {
      "inputs": [],
      "name": "ousdMetaStrategy",
      "outputs": [
        {
          "internalType": "address",
          "name": "",
          "type": "address"
        }
      ],
      "stateMutability": "view",
      "type": "function"
    },
    {
      "inputs": [],
      "name": "priceProvider",
      "outputs": [
        {
          "internalType": "address",
          "name": "",
          "type": "address"
        }
      ],
      "stateMutability": "view",
      "type": "function"
    },
    {
      "inputs": [
        {
          "internalType": "address",
          "name": "asset",
          "type": "address"
        }
      ],
      "name": "priceUnitMint",
      "outputs": [
        {
          "internalType": "uint256",
          "name": "price",
          "type": "uint256"
        }
      ],
      "stateMutability": "view",
      "type": "function"
    },
    {
      "inputs": [
        {
          "internalType": "address",
          "name": "asset",
          "type": "address"
        }
      ],
      "name": "priceUnitRedeem",
      "outputs": [
        {
          "internalType": "uint256",
          "name": "price",
          "type": "uint256"
        }
      ],
      "stateMutability": "view",
      "type": "function"
    },
    {
      "inputs": [],
      "name": "rebase",
      "outputs": [],
      "stateMutability": "nonpayable",
      "type": "function"
    },
    {
      "inputs": [],
      "name": "rebasePaused",
      "outputs": [
        {
          "internalType": "bool",
          "name": "",
          "type": "bool"
        }
      ],
      "stateMutability": "view",
      "type": "function"
    },
    {
      "inputs": [],
      "name": "rebaseThreshold",
      "outputs": [
        {
          "internalType": "uint256",
          "name": "",
          "type": "uint256"
        }
      ],
      "stateMutability": "view",
      "type": "function"
    },
    {
      "inputs": [
        {
          "internalType": "uint256",
          "name": "_amount",
          "type": "uint256"
        },
        {
          "internalType": "uint256",
          "name": "_minimumUnitAmount",
          "type": "uint256"
        }
      ],
      "name": "redeem",
      "outputs": [],
      "stateMutability": "nonpayable",
      "type": "function"
    },
    {
      "inputs": [
        {
          "internalType": "uint256",
          "name": "_minimumUnitAmount",
          "type": "uint256"
        }
      ],
      "name": "redeemAll",
      "outputs": [],
      "stateMutability": "nonpayable",
      "type": "function"
    },
    {
      "inputs": [],
      "name": "redeemFeeBps",
      "outputs": [
        {
          "internalType": "uint256",
          "name": "",
          "type": "uint256"
        }
      ],
      "stateMutability": "view",
      "type": "function"
    },
    {
      "inputs": [
        {
          "internalType": "uint256",
          "name": "_amount",
          "type": "uint256"
        }
      ],
      "name": "requestWithdrawal",
      "outputs": [
        {
          "internalType": "uint256",
          "name": "requestId",
          "type": "uint256"
        },
        {
          "internalType": "uint256",
          "name": "queued",
          "type": "uint256"
        }
      ],
      "stateMutability": "nonpayable",
      "type": "function"
    },
    {
      "inputs": [
        {
          "internalType": "address",
          "name": "newImpl",
          "type": "address"
        }
      ],
      "name": "setAdminImpl",
      "outputs": [],
      "stateMutability": "nonpayable",
      "type": "function"
    },
    {
      "inputs": [],
      "name": "strategistAddr",
      "outputs": [
        {
          "internalType": "address",
          "name": "",
          "type": "address"
        }
      ],
      "stateMutability": "view",
      "type": "function"
    },
    {
      "inputs": [],
      "name": "totalValue",
      "outputs": [
        {
          "internalType": "uint256",
          "name": "value",
          "type": "uint256"
        }
      ],
      "stateMutability": "view",
      "type": "function"
    },
    {
      "inputs": [
        {
          "internalType": "address",
          "name": "_newGovernor",
          "type": "address"
        }
      ],
      "name": "transferGovernance",
      "outputs": [],
      "stateMutability": "nonpayable",
      "type": "function"
    },
    {
      "inputs": [],
      "name": "trusteeAddress",
      "outputs": [
        {
          "internalType": "address",
          "name": "",
          "type": "address"
        }
      ],
      "stateMutability": "view",
      "type": "function"
    },
    {
      "inputs": [],
      "name": "trusteeFeeBps",
      "outputs": [
        {
          "internalType": "uint256",
          "name": "",
          "type": "uint256"
        }
      ],
      "stateMutability": "view",
      "type": "function"
    },
    {
      "inputs": [],
      "name": "vaultBuffer",
      "outputs": [
        {
          "internalType": "uint256",
          "name": "",
          "type": "uint256"
        }
      ],
      "stateMutability": "view",
      "type": "function"
    },
    {
      "inputs": [],
      "name": "weth",
      "outputs": [
        {
          "internalType": "address",
          "name": "",
          "type": "address"
        }
      ],
      "stateMutability": "view",
      "type": "function"
    },
    {
      "inputs": [],
      "name": "wethAssetIndex",
      "outputs": [
        {
          "internalType": "uint256",
          "name": "",
          "type": "uint256"
        }
      ],
      "stateMutability": "view",
      "type": "function"
    },
    {
      "inputs": [],
      "name": "withdrawalClaimDelay",
      "outputs": [
        {
          "internalType": "uint256",
          "name": "",
          "type": "uint256"
        }
      ],
      "stateMutability": "view",
      "type": "function"
    },
    {
      "inputs": [],
      "name": "withdrawalQueueMetadata",
      "outputs": [
        {
          "internalType": "uint128",
          "name": "queued",
          "type": "uint128"
        },
        {
          "internalType": "uint128",
          "name": "claimable",
          "type": "uint128"
        },
        {
          "internalType": "uint128",
          "name": "claimed",
          "type": "uint128"
        },
        {
          "internalType": "uint128",
          "name": "nextWithdrawalIndex",
          "type": "uint128"
        }
      ],
      "stateMutability": "view",
      "type": "function"
    },
    {
      "inputs": [
        {
          "internalType": "uint256",
          "name": "",
          "type": "uint256"
        }
      ],
      "name": "withdrawalRequests",
      "outputs": [
        {
          "internalType": "address",
          "name": "withdrawer",
          "type": "address"
        },
        {
          "internalType": "bool",
          "name": "claimed",
          "type": "bool"
        },
        {
          "internalType": "uint40",
          "name": "timestamp",
          "type": "uint40"
        },
        {
          "internalType": "uint128",
          "name": "amount",
          "type": "uint128"
        },
        {
          "internalType": "uint128",
          "name": "queued",
          "type": "uint128"
        }
      ],
      "stateMutability": "view",
      "type": "function"
    }
  ],
  "transactionHash": "0x9c5533ab5b4bf460f54f83e70929a2a98350e46a47026ded1840d10700ad8eaa",
  "args": [
    "0xC02aaA39b223FE8D0A0e5C4F27eAD9083C756Cc2"
  ],
  "numDeployments": 6,
  "solcInputHash": "d7c660a3891a398302ba4accfb7a44b7",
  "bytecode": "0x6037805461ffff60a01b1916600160a81b179055603d80546001600160a01b0319908116909155603e805482169055603f8054909116905560e0604052600060a081905260c052604880546001600160b01b03191690553480156200006357600080fd5b5060405162004430380380620044308339810160408190526200008691620000fc565b6200009e336000805160206200441083398151915255565b60008051602062004410833981519152546040516001600160a01b03909116906000907fc7c0c772add429241571afb3805861fb3cfa2af374534088b76cdb4325a87e9a908290a360601b6001600160601b0319166080526200012e565b6000602082840312156200010f57600080fd5b81516001600160a01b03811681146200012757600080fd5b9392505050565b60805160601c61425a620001b66000396000818161044101528181610961015281816109d401528181610e2601528181611aa801528181611b86015281816123a201528181612ace01528181612c1801528181612e3101528181612f380152818161304701528181613092015281816130fa015281816134a40152613888015261425a6000f3fe608060405234801561001057600080fd5b50600436106102f15760003560e01c80636217f3ea1161019d578063ab80dafb116100e9578063c7af3352116100a2578063e45cc9f01161007c578063e45cc9f014610792578063e6cc54321461079b578063f8444436146107af578063fc0cfeee146107c2576102f1565b8063c7af33521461076f578063d38bfff414610777578063d4c3eea01461078a576102f1565b8063ab80dafb14610729578063abaa99161461073c578063af14052c14610744578063b888879e1461074c578063b9b17f9f1461075f578063c3b2886414610767576102f1565b80638e510b52116101565780639ee679e8116101305780639ee679e8146106c75780639fa1826e146106ef578063a0aead4d146106f8578063a403e4d514610700576102f1565b80638e510b52146105ea578063937b2581146105f35780639be918e61461069b576102f1565b80636217f3ea1461056857806367bd7ba31461057b5780636ec3ab671461059b5780637136a7a6146105bb5780637a2202f3146105ce5780637cbc2373146105d7576102f1565b80634530820a1161025c57806353ca9f24116102155780635b60f9fc116101ef5780635b60f9fc146105275780635d36b1901461053a5780635f51522614610542578063603ea03b14610555576102f1565b806353ca9f24146104f757806354c6d8581461050b578063570d8e1d14610514576102f1565b80634530820a1461046b57806345e4213b1461049e578063485cc955146104a757806348e30f54146104ba57806349c1d54d146104db57806352d38e5d146104ee576102f1565b80632acada4d116102ae5780632acada4d146103ad57806331e19cfa146103c2578063362bd1a3146103ca5780633b8fe28d146104295780633fc8cef31461043c57806344c5470714610463576102f1565b806309f6442c146103375780630c340a2414610353578063156e29f61461037357806318ce56bd146103885780631edfe3da1461039b578063207134b0146103a4575b7fa2bd3d3cf188a41358c8b401076eb59066b09dec5775650c0de4c55187d17bd9366000803760008036600084545af43d6000803e808015610332573d6000f35b3d6000fd5b61034060385481565b6040519081526020015b60405180910390f35b61035b6107d5565b6040516001600160a01b03909116815260200161034a565b610386610381366004613b1d565b6107f2565b005b60455461035b906001600160a01b031681565b61034060395481565b61034060435481565b6103b5610870565b60405161034a9190613cfb565b603654610340565b604b54604c546103f6916001600160801b0380821692600160801b928390048216928183169291041684565b604080516001600160801b039586168152938516602085015291841691830191909152909116606082015260800161034a565b610340610437366004613acf565b6108d2565b61035b7f000000000000000000000000000000000000000000000000000000000000000081565b61038661092d565b61048e610479366004613acf565b60496020526000908152604090205460ff1681565b604051901515815260200161034a565b610340604e5481565b6103866104b5366004613aea565b610a76565b6104cd6104c8366004613b50565b610c78565b60405161034a929190613d5b565b60425461035b906001600160a01b031681565b610340603b5481565b60375461048e90600160a01b900460ff1681565b610340607b5481565b603f5461035b906001600160a01b031681565b610340610535366004613acf565b610e61565b610386610e8a565b610340610550366004613acf565b610f30565b604a5461035b906001600160a01b031681565b610386610576366004613c37565b610f41565b61058e610589366004613c37565b6110d8565b60405161034a9190613d48565b6105ae6105a9366004613acf565b6110e3565b60405161034a9190613ea4565b6103866105c9366004613c37565b611189565b61034060475481565b6103866105e5366004613c69565b611274565b61034060415481565b610654610601366004613c37565b604d60205260009081526040902080546001909101546001600160a01b03821691600160a01b810460ff1691600160a81b90910464ffffffffff16906001600160801b0380821691600160801b90041685565b604080516001600160a01b039096168652931515602086015264ffffffffff909216928401929092526001600160801b03918216606084015216608082015260a00161034a565b61048e6106a9366004613acf565b6001600160a01b031660009081526033602052604090205460ff1690565b6106da6106d5366004613c37565b6112e7565b6040805192835260208301919091520161034a565b610340603a5481565b603454610340565b61035b61070e366004613acf565b6040602081905260009182529020546001600160a01b031681565b610386610737366004613c37565b6115a4565b61038661171b565b610386611793565b60375461035b906001600160a01b031681565b6103866117d9565b6103b5611849565b61048e6118a9565b610386610785366004613acf565b6118da565b61034061197e565b61034060465481565b60375461048e90600160a81b900460ff1681565b6103406107bd366004613c37565b611988565b6103866107d0366004613acf565b611ae2565b60006107ed6000805160206142058339815191525490565b905090565b603754600160a81b900460ff16156108255760405162461bcd60e51b815260040161081c90613e54565b60405180910390fd5b6000805160206141e5833981519152805460028114156108575760405162461bcd60e51b815260040161081c90613e7c565b60028255610866858585611b84565b5060019055505050565b606060348054806020026020016040519081016040528092919081815260200182805480156108c857602002820191906000526020600020905b81546001600160a01b031681526001909101906020018083116108aa575b5050505050905090565b6000806108fb6108f56108e485611e05565b670de0b6b3a7640000906012611e6f565b84611ed1565b9050670de0b6b3a76400008161091285600161202d565b61091c919061408b565b6109269190613f7e565b9392505050565b6109356118a9565b6109515760405162461bcd60e51b815260040161081c90613df4565b60345460005b818110156109d1577f00000000000000000000000000000000000000000000000000000000000000006001600160a01b03166034828154811061099c5761099c6141b8565b6000918252602090912001546001600160a01b031614156109c157607b8190556109d1565b6109ca81614154565b9050610957565b507f00000000000000000000000000000000000000000000000000000000000000006001600160a01b03166034607b5481548110610a1157610a116141b8565b6000918252602090912001546001600160a01b031614610a735760405162461bcd60e51b815260206004820152601860248201527f496e76616c6964205745544820417373657420496e6465780000000000000000604482015260640161081c565b50565b610a7e6118a9565b610a9a5760405162461bcd60e51b815260040161081c90613df4565b600054610100900460ff1680610ab3575060005460ff16155b610b165760405162461bcd60e51b815260206004820152602e60248201527f496e697469616c697a61626c653a20636f6e747261637420697320616c72656160448201526d191e481a5b9a5d1a585b1a5e995960921b606482015260840161081c565b600054610100900460ff16158015610b38576000805461ffff19166101011790555b6001600160a01b038316610b8e5760405162461bcd60e51b815260206004820152601d60248201527f507269636550726f76696465722061646472657373206973207a65726f000000604482015260640161081c565b6001600160a01b038216610bdd5760405162461bcd60e51b81526020600482015260166024820152756f546f6b656e2061646472657373206973207a65726f60501b604482015260640161081c565b603c80546001600160a01b038481166001600160a01b031990921691909117909155603780546001600160b01b03191691851691909117600160a81b17905560006038819055603981905569054b40b1f852bda00000603a55683635c9adc5dea00000603b556040805191825260208201908190529051610c6091603691613a47565b508015610c73576000805461ff00191690555b505050565b603754606090600090600160a81b900460ff1615610ca85760405162461bcd60e51b815260040161081c90613e54565b6000805160206141e583398151915280546002811415610cda5760405162461bcd60e51b815260040161081c90613e7c565b60028255604a60009054906101000a90046001600160a01b03166001600160a01b031663e52253816040518163ffffffff1660e01b8152600401600060405180830381600087803b158015610d2e57600080fd5b505af1158015610d42573d6000803e3d6000fd5b50505050610d4e61231f565b50845167ffffffffffffffff811115610d6957610d696141ce565b604051908082528060200260200182016040528015610d92578160200160208202803683370190505b50935060005b8551811015610e1857610dc3868281518110610db657610db66141b8565b6020026020010151612507565b858281518110610dd557610dd56141b8565b602002602001018181525050848181518110610df357610df36141b8565b602002602001015184610e069190613f66565b9350610e1181614154565b9050610d98565b50610e4d6001600160a01b037f00000000000000000000000000000000000000000000000000000000000000001633856127fd565b610e5683612853565b600182555050915091565b600080610e736108f56108e485611e05565b9050670de0b6b3a76400008161091285600061202d565b7f44c4d30b2eaad5130ad70c3ba6972730566f3e6359ab83e800d905c61b1c51db546001600160a01b0316336001600160a01b031614610f255760405162461bcd60e51b815260206004820152603060248201527f4f6e6c79207468652070656e64696e6720476f7665726e6f722063616e20636f60448201526f6d706c6574652074686520636c61696d60801b606482015260840161081c565b610f2e33612a09565b565b6000610f3b82612aca565b92915050565b603754600160a81b900460ff1615610f6b5760405162461bcd60e51b815260040161081c90613e54565b6045546001600160a01b03163314610f955760405162461bcd60e51b815260040161081c90613db0565b6001600160ff1b038110610fbb5760405162461bcd60e51b815260040161081c90613e2b565b7f222838db2794d11532d940e8dec38ae307ed0b63cd97c233322e221f998767a63382604051610fec929190613ce2565b60405180910390a1806046600082825461100691906140aa565b909155505060475460465461101a90612b9d565b106110715760405162461bcd60e51b815260206004820152602160248201527f417474656d7074696e6720746f206275726e20746f6f206d756368204f5553446044820152601760f91b606482015260840161081c565b603c54604051632770a7eb60e21b81526001600160a01b0390911690639dc29fac906110a39033908590600401613ce2565b600060405180830381600087803b1580156110bd57600080fd5b505af11580156110d1573d6000803e3d6000fd5b5050505050565b6060610f3b82612be0565b604080516080808201835260008083526020808401829052838501829052606084018290526001600160a01b038616825260338152908490208451928301909452835460ff80821615158452939492939184019161010090910416600181111561114f5761114f6141a2565b6001811115611160576111606141a2565b8152905462010000810460ff1660208301526301000000900461ffff1660409091015292915050565b603754600160a81b900460ff16156111b35760405162461bcd60e51b815260040161081c90613e54565b6000805160206141e5833981519152805460028114156111e55760405162461bcd60e51b815260040161081c90613e7c565b60028255603c546040516370a0823160e01b815233600482015261126c916001600160a01b0316906370a082319060240160206040518083038186803b15801561122e57600080fd5b505afa158015611242573d6000803e3d6000fd5b505050506040513d601f19601f820116820180604052508101906112669190613c50565b84612d21565b506001905550565b603754600160a81b900460ff161561129e5760405162461bcd60e51b815260040161081c90613e54565b6000805160206141e5833981519152805460028114156112d05760405162461bcd60e51b815260040161081c90613e7c565b600282556112de8484612d21565b50600190555050565b6037546000908190600160a81b900460ff16156113165760405162461bcd60e51b815260040161081c90613e54565b6000805160206141e5833981519152805460028114156113485760405162461bcd60e51b815260040161081c90613e7c565b600282556000604e541161139e5760405162461bcd60e51b815260206004820152601d60248201527f4173796e63207769746864726177616c73206e6f7420656e61626c6564000000604482015260640161081c565b604c54604b546001600160801b03600160801b909204821695506113c491879116613f66565b92506113d96113d4856001613f66565b612ec5565b604c80546001600160801b03928316600160801b0292169190911790556113ff83612ec5565b604b80546001600160801b0319166001600160801b03929092169190911790556040805160a081018252338152600060208201524264ffffffffff16918101919091526060810161144f87612ec5565b6001600160801b0316815260200161146685612ec5565b6001600160801b039081169091526000868152604d602090815260409182902084518154928601518685015164ffffffffff16600160a81b0264ffffffffff60a81b19911515600160a01b026001600160a81b03199095166001600160a01b0393841617949094171692909217815560608501516080909501518416600160801b029490931693909317600190920191909155603c549051632770a7eb60e21b8152911690639dc29fac906115219033908990600401613ce2565b600060405180830381600087803b15801561153b57600080fd5b505af115801561154f573d6000803e3d6000fd5b5050505061155c85612853565b6040805186815260208101859052859133917f38e3d972947cfef94205163d483d6287ef27eb312e20cb8e0b13a49989db232e910160405180910390a3600182555050915091565b603754600160a81b900460ff16156115ce5760405162461bcd60e51b815260040161081c90613e54565b6045546001600160a01b031633146115f85760405162461bcd60e51b815260040161081c90613db0565b6001600160ff1b03811061161e5760405162461bcd60e51b815260040161081c90613e2b565b7f0f6798a560793a54c3bcfe86a93cde1e73087d944c0ea20544137d4121396885338260405161164f929190613ce2565b60405180910390a180604660008282546116699190613efa565b909155505060475460465461167d90612b9d565b106116e95760405162461bcd60e51b815260206004820152603660248201527f4d696e746564206f75736420737572706173736564206e65744f7573644d696e6044820152753a2337b929ba3930ba32b3bcaa343932b9b437b6321760511b606482015260840161081c565b603c546040516340c10f1960e01b81526001600160a01b03909116906340c10f19906110a39033908590600401613ce2565b603754600160a81b900460ff16156117455760405162461bcd60e51b815260040161081c90613e54565b6000805160206141e5833981519152805460028114156117775760405162461bcd60e51b815260040161081c90613e7c565b6002825561178361231f565b5061178c612f2e565b5060019055565b6000805160206141e5833981519152805460028114156117c55760405162461bcd60e51b815260040161081c90613e7c565b600282556117d1613162565b505060019055565b604a60009054906101000a90046001600160a01b03166001600160a01b031663e52253816040518163ffffffff1660e01b8152600401600060405180830381600087803b15801561182957600080fd5b505af115801561183d573d6000803e3d6000fd5b50505050610a7361231f565b606060368054806020026020016040519081016040528092919081815260200182805480156108c8576020028201919060005260206000209081546001600160a01b031681526001909101906020018083116108aa575050505050905090565b60006118c16000805160206142058339815191525490565b6001600160a01b0316336001600160a01b031614905090565b6118e26118a9565b6118fe5760405162461bcd60e51b815260040161081c90613df4565b611926817f44c4d30b2eaad5130ad70c3ba6972730566f3e6359ab83e800d905c61b1c51db55565b806001600160a01b03166119466000805160206142058339815191525490565b6001600160a01b03167fa39cc5eb22d0f34d8beaefee8a3f17cc229c1a1d1ef87a5ad47313487b1c4f0d60405160405180910390a350565b60006107ed61349d565b603754600090600160a81b900460ff16156119b55760405162461bcd60e51b815260040161081c90613e54565b6000805160206141e5833981519152805460028114156119e75760405162461bcd60e51b815260040161081c90613e7c565b60028255604b546000858152604d60205260409020600101546001600160801b03600160801b92839004811692909104161115611a9057604a60009054906101000a90046001600160a01b03166001600160a01b031663e52253816040518163ffffffff1660e01b8152600401600060405180830381600087803b158015611a6e57600080fd5b505af1158015611a82573d6000803e3d6000fd5b50505050611a8e61231f565b505b611a9984612507565b9250611acf6001600160a01b037f00000000000000000000000000000000000000000000000000000000000000001633856127fd565b611ad883612853565b5060019055919050565b611aea6118a9565b611b065760405162461bcd60e51b815260040161081c90613df4565b803b611b605760405162461bcd60e51b8152602060048201526024808201527f6e657720696d706c656d656e746174696f6e206973206e6f74206120636f6e746044820152631c9858dd60e21b606482015260840161081c565b7fa2bd3d3cf188a41358c8b401076eb59066b09dec5775650c0de4c55187d17bd955565b7f00000000000000000000000000000000000000000000000000000000000000006001600160a01b0316836001600160a01b031614611c055760405162461bcd60e51b815260206004820152601d60248201527f556e737570706f7274656420617373657420666f72206d696e74696e67000000604482015260640161081c565b60008211611c555760405162461bcd60e51b815260206004820152601d60248201527f416d6f756e74206d7573742062652067726561746572207468616e2030000000604482015260640161081c565b80821015611ca55760405162461bcd60e51b815260206004820152601e60248201527f4d696e7420616d6f756e74206c6f776572207468616e206d696e696d756d0000604482015260640161081c565b7f0f6798a560793a54c3bcfe86a93cde1e73087d944c0ea20544137d41213968853383604051611cd6929190613ce2565b60405180910390a1603754600160a01b900460ff16158015611cfa5750603b548210155b15611d7157604a60009054906101000a90046001600160a01b03166001600160a01b031663e52253816040518163ffffffff1660e01b8152600401600060405180830381600087803b158015611d4f57600080fd5b505af1158015611d63573d6000803e3d6000fd5b50505050611d6f613162565b505b603c546040516340c10f1960e01b81526001600160a01b03909116906340c10f1990611da39033908690600401613ce2565b600060405180830381600087803b158015611dbd57600080fd5b505af1158015611dd1573d6000803e3d6000fd5b50611deb925050506001600160a01b0384163330856134c8565b611df361231f565b50603a548210610c7357610c73612f2e565b6001600160a01b03811660009081526033602052604090205462010000900460ff1680611e6a5760405162461bcd60e51b8152602060048201526013602482015272111958da5b585b1cc81b9bdd0818d858da1959606a1b604482015260640161081c565b919050565b600081831115611e9f57611e98611e868385614111565b611e9190600a613fe3565b8590613506565b9350611ec9565b81831015611ec957611ec6611eb48484614111565b611ebf90600a613fe3565b8590613512565b93505b509192915050565b6001600160a01b038116600090815260336020526040812054610100900460ff1681816001811115611f0557611f056141a2565b1415611f2957611f216012611f1985611e05565b869190611e6f565b915050610f3b565b6001816001811115611f3d57611f3d6141a2565b1415611fde576000836001600160a01b031663e6aa216c6040518163ffffffff1660e01b815260040160206040518083038186803b158015611f7e57600080fd5b505afa158015611f92573d6000803e3d6000fd5b505050506040513d601f19601f82011682018060405250810190611fb69190613c50565b9050670de0b6b3a7640000611fcb828761408b565b611fd59190613f7e565b92505050610f3b565b60405162461bcd60e51b815260206004820152601b60248201527f556e737570706f7274656420636f6e76657273696f6e20747970650000000000604482015260640161081c565b5092915050565b6001600160a01b038281166000818152603360205260408082205460375491516315d5220f60e31b81526004810194909452919361010090920460ff169291169063aea910789060240160206040518083038186803b15801561208f57600080fd5b505afa1580156120a3573d6000803e3d6000fd5b505050506040513d601f19601f820116820180604052508101906120c79190613c50565b915060018160018111156120dd576120dd6141a2565b141561217d576000846001600160a01b031663e6aa216c6040518163ffffffff1660e01b815260040160206040518083038186803b15801561211e57600080fd5b505afa158015612132573d6000803e3d6000fd5b505050506040513d601f19601f820116820180604052508101906121569190613c50565b90508061216b84670de0b6b3a764000061408b565b6121759190613f7e565b9250506121de565b6000816001811115612191576121916141a2565b146121de5760405162461bcd60e51b815260206004820152601b60248201527f556e737570706f7274656420636f6e76657273696f6e20747970650000000000604482015260640161081c565b67120a871cc00200008211156122365760405162461bcd60e51b815260206004820152601860248201527f5661756c743a2050726963652065786365656473206d61780000000000000000604482015260640161081c565b6709b6e64a8ec600008210156122875760405162461bcd60e51b81526020600482015260166024820152752b30bab63a1d10283934b1b2903ab73232b91036b4b760511b604482015260640161081c565b82156122fe57670de0b6b3a76400008211156122a957670de0b6b3a764000091505b670dd99bb65dd700008210156122f95760405162461bcd60e51b815260206004820152601560248201527441737365742070726963652062656c6f772070656760581b604482015260640161081c565b612026565b670de0b6b3a76400008210156120265750670de0b6b3a76400009392505050565b60408051608081018252604b546001600160801b03808216808452600160801b92839004821660208501819052604c5480841696860196909652929094041660608301526000928391612371916140e9565b6001600160801b031690508061238a5760009250505090565b6040516370a0823160e01b81523060048201526000907f00000000000000000000000000000000000000000000000000000000000000006001600160a01b0316906370a082319060240160206040518083038186803b1580156123ec57600080fd5b505afa158015612400573d6000803e3d6000fd5b505050506040513d601f19601f820116820180604052508101906124249190613c50565b905060008360400151846020015161243c91906140e9565b6001600160801b0316905080821161245957600094505050505090565b60006124658284614111565b90508084106124745780612476565b835b955060008686602001516001600160801b03166124939190613f66565b905061249e81612ec5565b604b80546001600160801b03928316600160801b0292169190911790556040517fee79a0c43d3993055690b54e074b5153e8bae8d1a872b656dedb64aa8f463333906124f69083908a90918252602082015260400190565b60405180910390a150505050505090565b600080604e541161255a5760405162461bcd60e51b815260206004820152601d60248201527f4173796e63207769746864726177616c73206e6f7420656e61626c6564000000604482015260640161081c565b6000828152604d6020908152604091829020825160a08101845281546001600160a01b038116825260ff600160a01b82041615158285015264ffffffffff600160a81b90910481168286019081526001909301546001600160801b03808216606080860191909152600160801b92839004821660808087019190915288519081018952604b548084168252849004831697810197909752604c54808316988801989098529190960490951694840194909452604e5491519093429261262192909116613f66565b11156126655760405162461bcd60e51b815260206004820152601360248201527210db185a5b4819195b185e481b9bdd081b595d606a1b604482015260640161081c565b80602001516001600160801b031682608001516001600160801b031611156126cf5760405162461bcd60e51b815260206004820152601760248201527f51756575652070656e64696e67206c6971756964697479000000000000000000604482015260640161081c565b81516001600160a01b031633146127185760405162461bcd60e51b815260206004820152600d60248201526c2737ba103932b8bab2b9ba32b960991b604482015260640161081c565b60208201511561275c5760405162461bcd60e51b815260206004820152600f60248201526e105b1c9958591e4818db185a5b5959608a1b604482015260640161081c565b6000848152604d602052604090819020805460ff60a01b1916600160a01b1790556060830151908201516127909190613f3b565b604c80546001600160801b0319166001600160801b03928316179055606083015160405191168152849033907f2d43eb174787155132b52ddb6b346e2dca99302eac3df4466dbeff953d3c84d19060200160405180910390a350606001516001600160801b031692915050565b610c738363a9059cbb60e01b848460405160240161281c929190613ce2565b60408051601f198184030181529190526020810180516001600160e01b03166001600160e01b03199093169290921790915261351e565b6000603b5482101580156128715750603754600160a01b900460ff16155b156128855761287e613162565b9050612890565b61288d61349d565b90505b60415415612a0557600081116128e85760405162461bcd60e51b815260206004820152601d60248201527f546f6f206d616e79206f75747374616e64696e67207265717565737473000000604482015260640161081c565b600061297a82603c60009054906101000a90046001600160a01b03166001600160a01b03166318160ddd6040518163ffffffff1660e01b815260040160206040518083038186803b15801561293c57600080fd5b505afa158015612950573d6000803e3d6000fd5b505050506040513d601f19601f820116820180604052508101906129749190613c50565b906135f0565b9050604154670de0b6b3a764000082116129a5576129a082670de0b6b3a7640000614111565b6129b7565b6129b7670de0b6b3a764000083614111565b1115610c735760405162461bcd60e51b815260206004820152601e60248201527f4261636b696e6720737570706c79206c6971756964697479206572726f720000604482015260640161081c565b5050565b6001600160a01b038116612a5f5760405162461bcd60e51b815260206004820152601a60248201527f4e657720476f7665726e6f722069732061646472657373283029000000000000604482015260640161081c565b806001600160a01b0316612a7f6000805160206142058339815191525490565b6001600160a01b03167fc7c0c772add429241571afb3805861fb3cfa2af374534088b76cdb4325a87e9a60405160405180910390a3610a738160008051602061420583398151915255565b60007f00000000000000000000000000000000000000000000000000000000000000006001600160a01b0316826001600160a01b031614612b0d57506000919050565b612b1682613619565b60408051608081018252604b546001600160801b03808216808452600160801b9283900482166020850152604c54808316958501869052929092041660608301529293509190612b669084613f66565b1015612b755750600092915050565b805160408201516001600160801b0391821691612b93911684613f66565b6109269190614111565b60006001600160ff1b038212612bc55760405162461bcd60e51b815260040161081c90613e2b565b6000821215612bdc57612bd78261416f565b610f3b565b5090565b60385460609015612c0f57603854600090612bff9084906127106137e8565b9050612c0b8184614111565b9250505b6000607b5490507f00000000000000000000000000000000000000000000000000000000000000006001600160a01b031660348281548110612c5357612c536141b8565b6000918252602090912001546001600160a01b031614612cb55760405162461bcd60e51b815260206004820152601b60248201527f5745544820417373657420696e646578206e6f74206361636865640000000000604482015260640161081c565b60345467ffffffffffffffff811115612cd057612cd06141ce565b604051908082528060200260200182016040528015612cf9578160200160208202803683370190505b50915082828281518110612d0f57612d0f6141b8565b60200260200101818152505050919050565b7f222838db2794d11532d940e8dec38ae307ed0b63cd97c233322e221f998767a63383604051612d52929190613ce2565b60405180910390a181612d63575050565b6000612d6e83612be0565b607b5481518110612d8157612d816141b8565b6020026020010151905081811015612ddb5760405162461bcd60e51b815260206004820181905260248201527f52656465656d20616d6f756e74206c6f776572207468616e206d696e696d756d604482015260640161081c565b80612de461380a565b1015612e245760405162461bcd60e51b815260206004820152600f60248201526e2634b8bab4b234ba3c9032b93937b960891b604482015260640161081c565b612e586001600160a01b037f00000000000000000000000000000000000000000000000000000000000000001633836127fd565b603c54604051632770a7eb60e21b81526001600160a01b0390911690639dc29fac90612e8a9033908790600401613ce2565b600060405180830381600087803b158015612ea457600080fd5b505af1158015612eb8573d6000803e3d6000fd5b50505050610c7383612853565b60006001600160801b03821115612bdc5760405162461bcd60e51b815260206004820152602760248201527f53616665436173743a2076616c756520646f65736e27742066697420696e20316044820152663238206269747360c81b606482015260840161081c565b6001600160a01b037f000000000000000000000000000000000000000000000000000000000000000081166000908152604060208190529020541680612f715750565b6000612f7b61380a565b905080612f86575050565b603c54604080516318160ddd60e01b815290516000926001600160a01b0316916318160ddd916004808301926020929190829003018186803b158015612fcb57600080fd5b505afa158015612fdf573d6000803e3d6000fd5b505050506040513d601f19601f820116820180604052508101906130039190613c50565b9050600061301c6039548361392790919063ffffffff16565b905080831161302b5750505050565b60006130378285614111565b90508461306e6001600160a01b037f00000000000000000000000000000000000000000000000000000000000000001682846127fd565b6040516311f9fbc960e21b81526001600160a01b038216906347e7ef24906130bc907f0000000000000000000000000000000000000000000000000000000000000000908690600401613ce2565b600060405180830381600087803b1580156130d657600080fd5b505af11580156130ea573d6000803e3d6000fd5b5050604080516001600160a01b037f0000000000000000000000000000000000000000000000000000000000000000811682528a1660208201529081018590527f41b99659f6ba0803f444aff29e5bf6e26dd86a3219aff92119d69710a956ba8d9250606001905060405180910390a1505050505050565b603754600090600160a01b900460ff16156131b15760405162461bcd60e51b815260206004820152600f60248201526e149958985cda5b99c81c185d5cd959608a1b604482015260640161081c565b603c54604080516318160ddd60e01b815290516000926001600160a01b0316916318160ddd916004808301926020929190829003018186803b1580156131f657600080fd5b505afa15801561320a573d6000803e3d6000fd5b505050506040513d601f19601f8201168201806040525081019061322e9190613c50565b9050600061323a61349d565b90508161324a57915061349a9050565b6042546001600160a01b0316801580159061326457508282115b156133a65760006132758484614111565b90506000613292604354612710846137e89092919063ffffffff16565b90508082116132ee5760405162461bcd60e51b815260206004820152602260248201527f466565206d757374206e6f742062652067726561746572207468616e207969656044820152611b1960f21b606482015260840161081c565b801561335957603c546040516340c10f1960e01b81526001600160a01b03909116906340c10f19906133269086908590600401613ce2565b600060405180830381600087803b15801561334057600080fd5b505af1158015613354573d6000803e3d6000fd5b505050505b604080516001600160a01b0385168152602081018490529081018290527f09516ecf4a8a86e59780a9befc6dee948bc9e60a36e3be68d31ea817ee8d2c809060600160405180910390a150505b603c60009054906101000a90046001600160a01b03166001600160a01b03166318160ddd6040518163ffffffff1660e01b815260040160206040518083038186803b1580156133f457600080fd5b505afa158015613408573d6000803e3d6000fd5b505050506040513d601f19601f8201168201806040525081019061342c9190613c50565b92508282111561349557603c546040516339a7919f60e01b8152600481018490526001600160a01b03909116906339a7919f90602401600060405180830381600087803b15801561347c57600080fd5b505af1158015613490573d6000803e3d6000fd5b505050505b509150505b90565b60006107ed7f0000000000000000000000000000000000000000000000000000000000000000612aca565b6040516001600160a01b03808516602483015283166044820152606481018290526135009085906323b872dd60e01b9060840161281c565b50505050565b6000610926828461408b565b60006109268284613f7e565b6000613573826040518060400160405280602081526020017f5361666545524332303a206c6f772d6c6576656c2063616c6c206661696c6564815250856001600160a01b031661393c9092919063ffffffff16565b805190915015610c7357808060200190518101906135919190613c15565b610c735760405162461bcd60e51b815260206004820152602a60248201527f5361666545524332303a204552433230206f7065726174696f6e20646964206e6044820152691bdd081cdd58d8d9595960b21b606482015260840161081c565b60008061360584670de0b6b3a7640000613506565b90506136118184613512565b949350505050565b6040516370a0823160e01b815230600482015260009082906001600160a01b038216906370a082319060240160206040518083038186803b15801561365d57600080fd5b505afa158015613671573d6000803e3d6000fd5b505050506040513d601f19601f820116820180604052508101906136959190613c50565b60365490925060005b818110156137e0576000603682815481106136bb576136bb6141b8565b60009182526020909120015460405163551c457b60e11b81526001600160a01b0388811660048301529091169150819063aa388af69060240160206040518083038186803b15801561370c57600080fd5b505afa158015613720573d6000803e3d6000fd5b505050506040513d601f19601f820116820180604052508101906137449190613c15565b156137cf57604051632fa8a91360e11b81526001600160a01b038781166004830152821690635f5152269060240160206040518083038186803b15801561378a57600080fd5b505afa15801561379e573d6000803e3d6000fd5b505050506040513d601f19601f820116820180604052508101906137c29190613c50565b6137cc9086613f66565b94505b506137d981614154565b905061369e565b505050919050565b6000806137f58585613506565b90506138018184613512565b95945050505050565b60408051608081018252604b546001600160801b03808216808452600160801b9283900482166020850152604c5480831695850186905292909204166060830152600092839161385a91906140e9565b6040516370a0823160e01b81523060048201526001600160801b039190911691506000906001600160a01b037f000000000000000000000000000000000000000000000000000000000000000016906370a082319060240160206040518083038186803b1580156138ca57600080fd5b505afa1580156138de573d6000803e3d6000fd5b505050506040513d601f19601f820116820180604052508101906139029190613c50565b9050818111613915576000935050505090565b61391f8282614111565b935050505090565b60006109268383670de0b6b3a76400006137e8565b6060613611848460008585843b6139955760405162461bcd60e51b815260206004820152601d60248201527f416464726573733a2063616c6c20746f206e6f6e2d636f6e7472616374000000604482015260640161081c565b600080866001600160a01b031685876040516139b19190613cc6565b60006040518083038185875af1925050503d80600081146139ee576040519150601f19603f3d011682016040523d82523d6000602084013e6139f3565b606091505b5091509150613a03828286613a0e565b979650505050505050565b60608315613a1d575081610926565b825115613a2d5782518084602001fd5b8160405162461bcd60e51b815260040161081c9190613d7d565b828054828255906000526020600020908101928215613a9c579160200282015b82811115613a9c57825182546001600160a01b0319166001600160a01b03909116178255602090920191600190910190613a67565b50612bdc9291505b80821115612bdc5760008155600101613aa4565b80356001600160a01b0381168114611e6a57600080fd5b600060208284031215613ae157600080fd5b61092682613ab8565b60008060408385031215613afd57600080fd5b613b0683613ab8565b9150613b1460208401613ab8565b90509250929050565b600080600060608486031215613b3257600080fd5b613b3b84613ab8565b95602085013595506040909401359392505050565b60006020808385031215613b6357600080fd5b823567ffffffffffffffff80821115613b7b57600080fd5b818501915085601f830112613b8f57600080fd5b813581811115613ba157613ba16141ce565b8060051b604051601f19603f83011681018181108582111715613bc657613bc66141ce565b604052828152858101935084860182860187018a1015613be557600080fd5b600095505b83861015613c08578035855260019590950194938601938601613bea565b5098975050505050505050565b600060208284031215613c2757600080fd5b8151801515811461092657600080fd5b600060208284031215613c4957600080fd5b5035919050565b600060208284031215613c6257600080fd5b5051919050565b60008060408385031215613c7c57600080fd5b50508035926020909101359150565b600081518084526020808501945080840160005b83811015613cbb57815187529582019590820190600101613c9f565b509495945050505050565b60008251613cd8818460208701614128565b9190910192915050565b6001600160a01b03929092168252602082015260400190565b6020808252825182820181905260009190848201906040850190845b81811015613d3c5783516001600160a01b031683529284019291840191600101613d17565b50909695505050505050565b6020815260006109266020830184613c8b565b604081526000613d6e6040830185613c8b565b90508260208301529392505050565b6020815260008251806020840152613d9c816040850160208701614128565b601f01601f19169190910160400192915050565b60208082526024908201527f43616c6c6572206973206e6f7420746865204f555344206d65746120737472616040820152637465677960e01b606082015260800190565b6020808252601a908201527f43616c6c6572206973206e6f742074686520476f7665726e6f72000000000000604082015260600190565b6020808252600f908201526e082dadeeadce840e8dede40d0d2ced608b1b604082015260600190565b6020808252600e908201526d10d85c1a5d185b081c185d5cd95960921b604082015260600190565b6020808252600e908201526d1499595b9d1c985b9d0818d85b1b60921b604082015260600190565b8151151581526020820151608082019060028110613ed257634e487b7160e01b600052602160045260246000fd5b8060208401525060ff604084015116604083015261ffff606084015116606083015292915050565b600080821280156001600160ff1b0384900385131615613f1c57613f1c61418c565b600160ff1b8390038412811615613f3557613f3561418c565b50500190565b60006001600160801b03808316818516808303821115613f5d57613f5d61418c565b01949350505050565b60008219821115613f7957613f7961418c565b500190565b600082613f9b57634e487b7160e01b600052601260045260246000fd5b500490565b600181815b80851115613fdb578160001904821115613fc157613fc161418c565b80851615613fce57918102915b93841c9390800290613fa5565b509250929050565b60006109268383600082613ff957506001610f3b565b8161400657506000610f3b565b816001811461401c576002811461402657614042565b6001915050610f3b565b60ff8411156140375761403761418c565b50506001821b610f3b565b5060208310610133831016604e8410600b8410161715614065575081810a610f3b565b61406f8383613fa0565b80600019048211156140835761408361418c565b029392505050565b60008160001904831182151516156140a5576140a561418c565b500290565b60008083128015600160ff1b8501841216156140c8576140c861418c565b6001600160ff1b03840183138116156140e3576140e361418c565b50500390565b60006001600160801b03838116908316818110156141095761410961418c565b039392505050565b6000828210156141235761412361418c565b500390565b60005b8381101561414357818101518382015260200161412b565b838111156135005750506000910152565b60006000198214156141685761416861418c565b5060010190565b6000600160ff1b8214156141855761418561418c565b5060000390565b634e487b7160e01b600052601160045260246000fd5b634e487b7160e01b600052602160045260246000fd5b634e487b7160e01b600052603260045260246000fd5b634e487b7160e01b600052604160045260246000fdfe53bf423e48ed90e97d02ab0ebab13b2a235a6bfbe9c321847d5c175333ac45357bea13895fa79d2831e0a9e28edede30099005a50d652d8957cf8a607ee6ca4aa26469706673582212201464950967fff539d4adebb64eec7de4aaa8fadd10313d990ca972e1246ece5f64736f6c634300080700337bea13895fa79d2831e0a9e28edede30099005a50d652d8957cf8a607ee6ca4a",
  "libraries": {},
  "devdoc": {
    "author": "Origin Protocol Inc",
    "kind": "dev",
    "methods": {
      "addWithdrawalQueueLiquidity()": {
        "details": "is called from the Native Staking strategy when validator withdrawals are processed. It also called before any WETH is allocated to a strategy."
      },
      "burnForStrategy(uint256)": {
        "details": "Notice: can't use `nonReentrant` modifier since the `redeem` function could require withdrawal on `ConvexOUSDMetaStrategy` and that one can call `burnForStrategy` while the execution of the `redeem` has not yet completed -> causing a `nonReentrant` collision. Also important to understand is that this is a limitation imposed by the test suite. Production / mainnet contracts should never be configured in a way where mint/redeem functions that are moving funds between the Vault and end user wallets can influence strategies utilizing this function.",
        "params": {
          "_amount": "Amount of OUSD to burn"
        }
      },
      "cacheWETHAssetIndex()": {
        "details": "Caches WETH's index in `allAssets` variable.      Reduces gas usage by redeem by caching that."
      },
      "checkBalance(address)": {
        "params": {
          "_asset": "Address of asset"
        },
        "returns": {
          "_0": "uint256 Balance of asset in decimals of asset"
        }
      },
      "claimWithdrawal(uint256)": {
        "params": {
          "_requestId": "Unique ID for the withdrawal request"
        },
        "returns": {
          "amount": "Amount of WETH transferred to the withdrawer"
        }
      },
      "claimWithdrawals(uint256[])": {
        "params": {
          "_requestIds": "Unique ID of each withdrawal request"
        },
        "returns": {
          "amounts": "Amount of WETH received for each request",
          "totalAmount": "Total amount of WETH transferred to the withdrawer"
        }
      },
      "isSupportedAsset(address)": {
        "params": {
          "_asset": "address of the asset"
        },
        "returns": {
          "_0": "true if supported"
        }
      },
      "mint(address,uint256,uint256)": {
        "params": {
          "_amount": "Amount of the asset being deposited",
          "_asset": "Address of the asset being deposited",
          "_minimumOusdAmount": "Minimum OTokens to mint"
        }
      },
      "mintForStrategy(uint256)": {
        "params": {
          "_amount": "Amount of the asset being deposited Notice: can't use `nonReentrant` modifier since the `mint` function can call `allocate`, and that can trigger `ConvexOUSDMetaStrategy` to call this function while the execution of the `mint` has not yet completed -> causing a `nonReentrant` collision. Also important to understand is that this is a limitation imposed by the test suite. Production / mainnet contracts should never be configured in a way where mint/redeem functions that are moving funds between the Vault and end user wallets can influence strategies utilizing this function."
        }
      },
      "priceUnitMint(address)": {
        "params": {
          "asset": "address of the asset"
        },
        "returns": {
          "price": "uint256: unit (USD / ETH) price for 1 unit of the asset, in 18 decimal fixed"
        }
      },
      "priceUnitRedeem(address)": {
        "params": {
          "asset": "Address of the asset"
        },
        "returns": {
          "price": "uint256: unit (USD / ETH) price for 1 unit of the asset, in 18 decimal fixed"
        }
      },
      "redeem(uint256,uint256)": {
        "params": {
          "_amount": "Amount of OTokens to burn",
          "_minimumUnitAmount": "Minimum stablecoin units to receive in return"
        }
      },
      "redeemAll(uint256)": {
        "params": {
          "_minimumUnitAmount": "Minimum stablecoin units to receive in return"
        }
      },
      "requestWithdrawal(uint256)": {
        "params": {
          "_amount": "Amount of OETH to burn.",
          "queued": "Cumulative total of all WETH queued including already claimed requests.",
          "requestId": "Unique ID for the withdrawal request"
        }
      },
      "setAdminImpl(address)": {
        "params": {
          "newImpl": "address of the implementation"
        }
      },
      "totalValue()": {
        "returns": {
          "value": "Total value in USD/ETH (1e18)"
        }
      },
      "transferGovernance(address)": {
        "params": {
          "_newGovernor": "Address of the new Governor"
        }
      }
    },
    "title": "OETH VaultCore Contract",
    "version": 1
  },
  "userdoc": {
    "kind": "user",
    "methods": {
      "addWithdrawalQueueLiquidity()": {
        "notice": "Collects harvested rewards from the Dripper as WETH then adds WETH to the withdrawal queue if there is a funding shortfall."
      },
      "allocate()": {
        "notice": "Allocate unallocated funds on Vault to strategies.*"
      },
      "assetDefaultStrategies(address)": {
        "notice": "Mapping of asset address to the Strategy that they should automatically"
      },
      "autoAllocateThreshold()": {
        "notice": "OToken mints over this amount automatically allocate funds. 18 decimals."
      },
      "burnForStrategy(uint256)": {
        "notice": "Burn OTokens for Metapool Strategy"
      },
      "calculateRedeemOutputs(uint256)": {
        "notice": "Calculate the outputs for a redeem function, i.e. the mix of coins that will be returned"
      },
      "capitalPaused()": {
        "notice": "pause operations that change the OToken supply. eg mint, redeem, allocate, mint/burn for strategy"
      },
      "checkBalance(address)": {
        "notice": "Get the balance of an asset held in Vault and all strategies."
      },
      "claimGovernance()": {
        "notice": "Claim Governance of the contract to a new account (`newGovernor`). Can only be called by the new Governor."
      },
      "claimWithdrawal(uint256)": {
        "notice": "Claim a previously requested withdrawal once it is claimable. This request can be claimed once the withdrawal queue's `claimable` amount is greater than or equal this request's `queued` amount and 10 minutes has passed. If the requests is not claimable, the transaction will revert with `Queue pending liquidity`. If the request is not older than 10 minutes, the transaction will revert with `Claim delay not met`. OETH is converted to WETH at 1:1."
      },
      "claimWithdrawals(uint256[])": {
        "notice": "Claim a previously requested withdrawals once they are claimable. This requests can be claimed once the withdrawal queue's `claimable` amount is greater than or equal each request's `queued` amount and 10 minutes has passed. If one of the requests is not claimable, the whole transaction will revert with `Queue pending liquidity`. If one of the requests is not older than 10 minutes, the whole transaction will revert with `Claim delay not met`."
      },
      "dripper()": {
        "notice": "Address of the Dripper contract that streams harvested rewards to the Vault"
      },
      "getAllAssets()": {
        "notice": "Return all vault asset addresses in order"
      },
      "getAllStrategies()": {
        "notice": "Return the array of all strategies"
      },
      "getAssetConfig(address)": {
        "notice": "Gets the vault configuration of a supported asset."
      },
      "getAssetCount()": {
        "notice": "Return the number of assets supported by the Vault."
      },
      "getStrategyCount()": {
        "notice": "Return the number of strategies active on the Vault."
      },
      "governor()": {
        "notice": "Returns the address of the current Governor."
      },
      "isGovernor()": {
        "notice": "Returns true if the caller is the current Governor."
      },
      "isSupportedAsset(address)": {
        "notice": "Returns whether the vault supports the asset"
      },
      "maxSupplyDiff()": {
        "notice": "Max difference between total supply and total value of assets. 18 decimals."
      },
      "mint(address,uint256,uint256)": {
        "notice": "Deposit a supported asset and mint OTokens."
      },
      "mintForStrategy(uint256)": {
        "notice": "Mint OTokens for a Metapool Strategy"
      },
      "netOusdMintForStrategyThreshold()": {
        "notice": "How much net total OTokens are allowed to be minted by all strategies"
      },
      "netOusdMintedForStrategy()": {
        "notice": "How much OTokens are currently minted by the strategy"
      },
      "ousdMetaStrategy()": {
        "notice": "Metapool strategy that is allowed to mint/burn OTokens without changing collateral"
      },
      "priceProvider()": {
        "notice": "Address of the Oracle price provider contract"
      },
      "priceUnitMint(address)": {
        "notice": "Returns the total price in 18 digit units for a given asset.      Never goes above 1, since that is how we price mints."
      },
      "priceUnitRedeem(address)": {
        "notice": "Returns the total price in 18 digit unit for a given asset.      Never goes below 1, since that is how we price redeems"
      },
      "rebase()": {
        "notice": "Calculate the total value of assets held by the Vault and all      strategies and update the supply of OTokens."
      },
      "rebasePaused()": {
        "notice": "pause rebasing if true"
      },
      "rebaseThreshold()": {
        "notice": "OToken mints over this amount automatically rebase. 18 decimals."
      },
      "redeem(uint256,uint256)": {
        "notice": "Withdraw a supported asset and burn OTokens."
      },
      "redeemAll(uint256)": {
        "notice": "Withdraw a supported asset and burn all OTokens."
      },
      "redeemFeeBps()": {
        "notice": "Redemption fee in basis points. eg 50 = 0.5%"
      },
      "requestWithdrawal(uint256)": {
        "notice": "Request an asynchronous withdrawal of WETH in exchange for OETH. The OETH is burned on request and the WETH is transferred to the withdrawer on claim. This request can be claimed once the withdrawal queue's `claimable` amount is greater than or equal this request's `queued` amount. There is no minimum time or block number before a request can be claimed. It just needs enough WETH liquidity in the Vault to satisfy all the outstanding requests to that point in the queue. OETH is converted to WETH at 1:1."
      },
      "setAdminImpl(address)": {
        "notice": "set the implementation for the admin, this needs to be in a base class else we cannot set it"
      },
      "strategistAddr()": {
        "notice": "Address of the Strategist"
      },
      "totalValue()": {
        "notice": "Determine the total value of assets held by the vault and its         strategies."
      },
      "transferGovernance(address)": {
        "notice": "Transfers Governance of the contract to a new account (`newGovernor`). Can only be called by the current Governor. Must be claimed for this to complete"
      },
      "trusteeAddress()": {
        "notice": "Trustee contract that can collect a percentage of yield"
      },
      "trusteeFeeBps()": {
        "notice": "Amount of yield collected in basis points. eg 2000 = 20%"
      },
      "vaultBuffer()": {
        "notice": "Percentage of assets to keep in Vault to handle (most) withdrawals. 100% = 1e18."
      },
      "withdrawalClaimDelay()": {
        "notice": "Sets a minimum delay that is required to elapse between     requesting async withdrawals and claiming the request.     When set to 0 async withdrawals are disabled."
      },
      "withdrawalQueueMetadata()": {
        "notice": "Global metadata for the withdrawal queue including: queued - cumulative total of all withdrawal requests included the ones that have already been claimed claimable - cumulative total of all the requests that can be claimed including the ones already claimed claimed - total of all the requests that have been claimed nextWithdrawalIndex - index of the next withdrawal request starting at 0"
      },
      "withdrawalRequests(uint256)": {
        "notice": "Mapping of withdrawal request indices to the user withdrawal request data"
      }
    },
    "version": 1
  },
  "storageLayout": {
    "storage": [
      {
        "astId": 48804,
        "contract": "contracts/vault/OETHVaultCore.sol:OETHVaultCore",
        "label": "initialized",
        "offset": 0,
        "slot": "0",
        "type": "t_bool"
      },
      {
        "astId": 48807,
        "contract": "contracts/vault/OETHVaultCore.sol:OETHVaultCore",
        "label": "initializing",
        "offset": 1,
        "slot": "0",
        "type": "t_bool"
      },
      {
        "astId": 48847,
        "contract": "contracts/vault/OETHVaultCore.sol:OETHVaultCore",
        "label": "______gap",
        "offset": 0,
        "slot": "1",
        "type": "t_array(t_uint256)50_storage"
      },
      {
        "astId": 55106,
        "contract": "contracts/vault/OETHVaultCore.sol:OETHVaultCore",
        "label": "assets",
        "offset": 0,
        "slot": "51",
        "type": "t_mapping(t_address,t_struct(Asset)55100_storage)"
      },
      {
        "astId": 55110,
        "contract": "contracts/vault/OETHVaultCore.sol:OETHVaultCore",
        "label": "allAssets",
        "offset": 0,
        "slot": "52",
        "type": "t_array(t_address)dyn_storage"
      },
      {
        "astId": 55121,
        "contract": "contracts/vault/OETHVaultCore.sol:OETHVaultCore",
        "label": "strategies",
        "offset": 0,
        "slot": "53",
        "type": "t_mapping(t_address,t_struct(Strategy)55115_storage)"
      },
      {
        "astId": 55125,
        "contract": "contracts/vault/OETHVaultCore.sol:OETHVaultCore",
        "label": "allStrategies",
        "offset": 0,
        "slot": "54",
        "type": "t_array(t_address)dyn_storage"
      },
      {
        "astId": 55128,
        "contract": "contracts/vault/OETHVaultCore.sol:OETHVaultCore",
        "label": "priceProvider",
        "offset": 0,
        "slot": "55",
        "type": "t_address"
      },
      {
        "astId": 55132,
        "contract": "contracts/vault/OETHVaultCore.sol:OETHVaultCore",
        "label": "rebasePaused",
        "offset": 20,
        "slot": "55",
        "type": "t_bool"
      },
      {
        "astId": 55136,
        "contract": "contracts/vault/OETHVaultCore.sol:OETHVaultCore",
        "label": "capitalPaused",
        "offset": 21,
        "slot": "55",
        "type": "t_bool"
      },
      {
        "astId": 55139,
        "contract": "contracts/vault/OETHVaultCore.sol:OETHVaultCore",
        "label": "redeemFeeBps",
        "offset": 0,
        "slot": "56",
        "type": "t_uint256"
      },
      {
        "astId": 55142,
        "contract": "contracts/vault/OETHVaultCore.sol:OETHVaultCore",
        "label": "vaultBuffer",
        "offset": 0,
        "slot": "57",
        "type": "t_uint256"
      },
      {
        "astId": 55145,
        "contract": "contracts/vault/OETHVaultCore.sol:OETHVaultCore",
        "label": "autoAllocateThreshold",
        "offset": 0,
        "slot": "58",
        "type": "t_uint256"
      },
      {
        "astId": 55148,
        "contract": "contracts/vault/OETHVaultCore.sol:OETHVaultCore",
        "label": "rebaseThreshold",
        "offset": 0,
        "slot": "59",
        "type": "t_uint256"
      },
      {
        "astId": 55152,
        "contract": "contracts/vault/OETHVaultCore.sol:OETHVaultCore",
        "label": "oUSD",
        "offset": 0,
        "slot": "60",
        "type": "t_contract(OUSD)46322"
      },
      {
        "astId": 55161,
        "contract": "contracts/vault/OETHVaultCore.sol:OETHVaultCore",
        "label": "_deprecated_rebaseHooksAddr",
        "offset": 0,
        "slot": "61",
        "type": "t_address"
      },
      {
        "astId": 55167,
        "contract": "contracts/vault/OETHVaultCore.sol:OETHVaultCore",
        "label": "_deprecated_uniswapAddr",
        "offset": 0,
        "slot": "62",
        "type": "t_address"
      },
      {
        "astId": 55174,
        "contract": "contracts/vault/OETHVaultCore.sol:OETHVaultCore",
        "label": "strategistAddr",
        "offset": 0,
        "slot": "63",
        "type": "t_address"
      },
      {
        "astId": 55179,
        "contract": "contracts/vault/OETHVaultCore.sol:OETHVaultCore",
        "label": "assetDefaultStrategies",
        "offset": 0,
        "slot": "64",
        "type": "t_mapping(t_address,t_address)"
      },
      {
        "astId": 55182,
        "contract": "contracts/vault/OETHVaultCore.sol:OETHVaultCore",
        "label": "maxSupplyDiff",
        "offset": 0,
        "slot": "65",
        "type": "t_uint256"
      },
      {
        "astId": 55185,
        "contract": "contracts/vault/OETHVaultCore.sol:OETHVaultCore",
        "label": "trusteeAddress",
        "offset": 0,
        "slot": "66",
        "type": "t_address"
      },
      {
        "astId": 55188,
        "contract": "contracts/vault/OETHVaultCore.sol:OETHVaultCore",
        "label": "trusteeFeeBps",
        "offset": 0,
        "slot": "67",
        "type": "t_uint256"
      },
      {
        "astId": 55192,
        "contract": "contracts/vault/OETHVaultCore.sol:OETHVaultCore",
        "label": "_deprecated_swapTokens",
        "offset": 0,
        "slot": "68",
        "type": "t_array(t_address)dyn_storage"
      },
      {
        "astId": 55198,
        "contract": "contracts/vault/OETHVaultCore.sol:OETHVaultCore",
        "label": "ousdMetaStrategy",
        "offset": 0,
        "slot": "69",
        "type": "t_address"
      },
      {
        "astId": 55201,
        "contract": "contracts/vault/OETHVaultCore.sol:OETHVaultCore",
        "label": "netOusdMintedForStrategy",
        "offset": 0,
        "slot": "70",
        "type": "t_int256"
      },
      {
        "astId": 55204,
        "contract": "contracts/vault/OETHVaultCore.sol:OETHVaultCore",
        "label": "netOusdMintForStrategyThreshold",
        "offset": 0,
        "slot": "71",
        "type": "t_uint256"
      },
      {
        "astId": 55225,
        "contract": "contracts/vault/OETHVaultCore.sol:OETHVaultCore",
        "label": "swapConfig",
        "offset": 0,
        "slot": "72",
        "type": "t_struct(SwapConfig)55215_storage"
      },
      {
        "astId": 55229,
        "contract": "contracts/vault/OETHVaultCore.sol:OETHVaultCore",
        "label": "isMintWhitelistedStrategy",
        "offset": 0,
        "slot": "73",
        "type": "t_mapping(t_address,t_bool)"
      },
      {
        "astId": 55232,
        "contract": "contracts/vault/OETHVaultCore.sol:OETHVaultCore",
        "label": "dripper",
        "offset": 0,
        "slot": "74",
        "type": "t_address"
      },
      {
        "astId": 55245,
        "contract": "contracts/vault/OETHVaultCore.sol:OETHVaultCore",
        "label": "withdrawalQueueMetadata",
        "offset": 0,
        "slot": "75",
        "type": "t_struct(WithdrawalQueueMetadata)55241_storage"
      },
      {
        "astId": 55262,
        "contract": "contracts/vault/OETHVaultCore.sol:OETHVaultCore",
        "label": "withdrawalRequests",
        "offset": 0,
        "slot": "77",
        "type": "t_mapping(t_uint256,t_struct(WithdrawalRequest)55256_storage)"
      },
      {
        "astId": 55265,
        "contract": "contracts/vault/OETHVaultCore.sol:OETHVaultCore",
        "label": "withdrawalClaimDelay",
        "offset": 0,
        "slot": "78",
        "type": "t_uint256"
      },
      {
        "astId": 55269,
        "contract": "contracts/vault/OETHVaultCore.sol:OETHVaultCore",
        "label": "__gap",
        "offset": 0,
        "slot": "79",
        "type": "t_array(t_uint256)44_storage"
      },
      {
        "astId": 50515,
        "contract": "contracts/vault/OETHVaultCore.sol:OETHVaultCore",
        "label": "wethAssetIndex",
        "offset": 0,
        "slot": "123",
        "type": "t_uint256"
      },
      {
        "astId": 50519,
        "contract": "contracts/vault/OETHVaultCore.sol:OETHVaultCore",
        "label": "__gap",
        "offset": 0,
        "slot": "124",
        "type": "t_array(t_uint256)50_storage"
      }
    ],
    "types": {
      "t_address": {
        "encoding": "inplace",
        "label": "address",
        "numberOfBytes": "20"
      },
      "t_array(t_address)dyn_storage": {
        "base": "t_address",
        "encoding": "dynamic_array",
        "label": "address[]",
        "numberOfBytes": "32"
      },
      "t_array(t_uint256)44_storage": {
        "base": "t_uint256",
        "encoding": "inplace",
        "label": "uint256[44]",
        "numberOfBytes": "1408"
      },
      "t_array(t_uint256)50_storage": {
        "base": "t_uint256",
        "encoding": "inplace",
        "label": "uint256[50]",
        "numberOfBytes": "1600"
      },
      "t_bool": {
        "encoding": "inplace",
        "label": "bool",
        "numberOfBytes": "1"
      },
      "t_contract(OUSD)46322": {
        "encoding": "inplace",
        "label": "contract OUSD",
        "numberOfBytes": "20"
      },
      "t_enum(UnitConversion)55090": {
        "encoding": "inplace",
        "label": "enum VaultStorage.UnitConversion",
        "numberOfBytes": "1"
      },
      "t_int256": {
        "encoding": "inplace",
        "label": "int256",
        "numberOfBytes": "32"
      },
      "t_mapping(t_address,t_address)": {
        "encoding": "mapping",
        "key": "t_address",
        "label": "mapping(address => address)",
        "numberOfBytes": "32",
        "value": "t_address"
      },
      "t_mapping(t_address,t_bool)": {
        "encoding": "mapping",
        "key": "t_address",
        "label": "mapping(address => bool)",
        "numberOfBytes": "32",
        "value": "t_bool"
      },
      "t_mapping(t_address,t_struct(Asset)55100_storage)": {
        "encoding": "mapping",
        "key": "t_address",
        "label": "mapping(address => struct VaultStorage.Asset)",
        "numberOfBytes": "32",
        "value": "t_struct(Asset)55100_storage"
      },
      "t_mapping(t_address,t_struct(Strategy)55115_storage)": {
        "encoding": "mapping",
        "key": "t_address",
        "label": "mapping(address => struct VaultStorage.Strategy)",
        "numberOfBytes": "32",
        "value": "t_struct(Strategy)55115_storage"
      },
      "t_mapping(t_uint256,t_struct(WithdrawalRequest)55256_storage)": {
        "encoding": "mapping",
        "key": "t_uint256",
        "label": "mapping(uint256 => struct VaultStorage.WithdrawalRequest)",
        "numberOfBytes": "32",
        "value": "t_struct(WithdrawalRequest)55256_storage"
      },
      "t_struct(Asset)55100_storage": {
        "encoding": "inplace",
        "label": "struct VaultStorage.Asset",
        "members": [
          {
            "astId": 55092,
            "contract": "contracts/vault/OETHVaultCore.sol:OETHVaultCore",
            "label": "isSupported",
            "offset": 0,
            "slot": "0",
            "type": "t_bool"
          },
          {
            "astId": 55095,
            "contract": "contracts/vault/OETHVaultCore.sol:OETHVaultCore",
            "label": "unitConversion",
            "offset": 1,
            "slot": "0",
            "type": "t_enum(UnitConversion)55090"
          },
          {
            "astId": 55097,
            "contract": "contracts/vault/OETHVaultCore.sol:OETHVaultCore",
            "label": "decimals",
            "offset": 2,
            "slot": "0",
            "type": "t_uint8"
          },
          {
            "astId": 55099,
            "contract": "contracts/vault/OETHVaultCore.sol:OETHVaultCore",
            "label": "allowedOracleSlippageBps",
            "offset": 3,
            "slot": "0",
            "type": "t_uint16"
          }
        ],
        "numberOfBytes": "32"
      },
      "t_struct(Strategy)55115_storage": {
        "encoding": "inplace",
        "label": "struct VaultStorage.Strategy",
        "members": [
          {
            "astId": 55112,
            "contract": "contracts/vault/OETHVaultCore.sol:OETHVaultCore",
            "label": "isSupported",
            "offset": 0,
            "slot": "0",
            "type": "t_bool"
          },
          {
            "astId": 55114,
            "contract": "contracts/vault/OETHVaultCore.sol:OETHVaultCore",
            "label": "_deprecated",
            "offset": 0,
            "slot": "1",
            "type": "t_uint256"
          }
        ],
        "numberOfBytes": "64"
      },
      "t_struct(SwapConfig)55215_storage": {
        "encoding": "inplace",
        "label": "struct VaultStorage.SwapConfig",
        "members": [
          {
            "astId": 55212,
            "contract": "contracts/vault/OETHVaultCore.sol:OETHVaultCore",
            "label": "swapper",
            "offset": 0,
            "slot": "0",
            "type": "t_address"
          },
          {
            "astId": 55214,
            "contract": "contracts/vault/OETHVaultCore.sol:OETHVaultCore",
            "label": "allowedUndervalueBps",
            "offset": 20,
            "slot": "0",
            "type": "t_uint16"
          }
        ],
        "numberOfBytes": "32"
      },
      "t_struct(WithdrawalQueueMetadata)55241_storage": {
        "encoding": "inplace",
        "label": "struct VaultStorage.WithdrawalQueueMetadata",
        "members": [
          {
            "astId": 55234,
            "contract": "contracts/vault/OETHVaultCore.sol:OETHVaultCore",
            "label": "queued",
            "offset": 0,
            "slot": "0",
            "type": "t_uint128"
          },
          {
            "astId": 55236,
            "contract": "contracts/vault/OETHVaultCore.sol:OETHVaultCore",
            "label": "claimable",
            "offset": 16,
            "slot": "0",
            "type": "t_uint128"
          },
          {
            "astId": 55238,
            "contract": "contracts/vault/OETHVaultCore.sol:OETHVaultCore",
            "label": "claimed",
            "offset": 0,
            "slot": "1",
            "type": "t_uint128"
          },
          {
            "astId": 55240,
            "contract": "contracts/vault/OETHVaultCore.sol:OETHVaultCore",
            "label": "nextWithdrawalIndex",
            "offset": 16,
            "slot": "1",
            "type": "t_uint128"
          }
        ],
        "numberOfBytes": "64"
      },
      "t_struct(WithdrawalRequest)55256_storage": {
        "encoding": "inplace",
        "label": "struct VaultStorage.WithdrawalRequest",
        "members": [
          {
            "astId": 55247,
            "contract": "contracts/vault/OETHVaultCore.sol:OETHVaultCore",
            "label": "withdrawer",
            "offset": 0,
            "slot": "0",
            "type": "t_address"
          },
          {
            "astId": 55249,
            "contract": "contracts/vault/OETHVaultCore.sol:OETHVaultCore",
            "label": "claimed",
            "offset": 20,
            "slot": "0",
            "type": "t_bool"
          },
          {
            "astId": 55251,
            "contract": "contracts/vault/OETHVaultCore.sol:OETHVaultCore",
            "label": "timestamp",
            "offset": 21,
            "slot": "0",
            "type": "t_uint40"
          },
          {
            "astId": 55253,
            "contract": "contracts/vault/OETHVaultCore.sol:OETHVaultCore",
            "label": "amount",
            "offset": 0,
            "slot": "1",
            "type": "t_uint128"
          },
          {
            "astId": 55255,
            "contract": "contracts/vault/OETHVaultCore.sol:OETHVaultCore",
            "label": "queued",
            "offset": 16,
            "slot": "1",
            "type": "t_uint128"
          }
        ],
        "numberOfBytes": "64"
      },
      "t_uint128": {
        "encoding": "inplace",
        "label": "uint128",
        "numberOfBytes": "16"
      },
      "t_uint16": {
        "encoding": "inplace",
        "label": "uint16",
        "numberOfBytes": "2"
      },
      "t_uint256": {
        "encoding": "inplace",
        "label": "uint256",
        "numberOfBytes": "32"
      },
      "t_uint40": {
        "encoding": "inplace",
        "label": "uint40",
        "numberOfBytes": "5"
      },
      "t_uint8": {
        "encoding": "inplace",
        "label": "uint8",
        "numberOfBytes": "1"
      }
    }
  }
}