{
  "address": "0x468A68da3cefcDD644ce0Ea9B9564b246218aeeC",
  "abi": [
    {
      "inputs": [
        {
          "internalType": "address",
          "name": "_auraPriceFeed",
          "type": "address"
        }
      ],
      "stateMutability": "nonpayable",
      "type": "constructor"
    },
    {
      "inputs": [],
      "name": "auraPriceFeed",
      "outputs": [
        {
          "internalType": "address",
          "name": "",
          "type": "address"
        }
      ],
      "stateMutability": "view",
      "type": "function"
    },
    {
      "inputs": [
        {
          "internalType": "address",
          "name": "asset",
          "type": "address"
        }
      ],
      "name": "cacheDecimals",
      "outputs": [
        {
          "internalType": "uint8",
          "name": "",
          "type": "uint8"
        }
      ],
      "stateMutability": "nonpayable",
      "type": "function"
    },
    {
      "inputs": [
        {
          "internalType": "address",
          "name": "asset",
          "type": "address"
        }
      ],
      "name": "price",
      "outputs": [
        {
          "internalType": "uint256",
          "name": "",
          "type": "uint256"
        }
      ],
      "stateMutability": "view",
      "type": "function"
    }
  ],
  "transactionHash": "0xc2c03c53f74ad55f2bc895b62391c6cf571210ed07b148f6474c43362bc8c4fb",
  "args": [
    "0x94e16bC08d7CCd7f2999Eb5eA3f35DD1EDCBd15B"
  ],
  "numDeployments": 3,
  "solcInputHash": "12a0ec7d553ea14c37843dc6b8319f03",
  "bytecode": "0x60a060405234801561001057600080fd5b50604051610a17380380610a1783398101604081905261002f91610044565b60601b6001600160601b031916608052610074565b60006020828403121561005657600080fd5b81516001600160a01b038116811461006d57600080fd5b9392505050565b60805160601c61097f61009860003960008181604b01526105c0015261097f6000f3fe608060405234801561001057600080fd5b50600436106100415760003560e01c806323e2c52f1461004657806336b6d9441461008a578063aea91078146100af575b600080fd5b61006d7f000000000000000000000000000000000000000000000000000000000000000081565b6040516001600160a01b0390911681526020015b60405180910390f35b61009d61009836600461070f565b6100d0565b60405160ff9091168152602001610081565b6100c26100bd36600461070f565b610209565b604051908152602001610081565b6000806100dc8361035c565b5090506001600160a01b03811661010e5760405162461bcd60e51b8152600401610105906107ab565b60405180910390fd5b6001600160a01b038116600114156101685760405162461bcd60e51b815260206004820152601f60248201527f4669786564207072696365206665656473206e6f7420737570706f72746564006044820152606401610105565b6000816001600160a01b031663313ce5676040518163ffffffff1660e01b815260040160206040518083038186803b1580156101a357600080fd5b505afa1580156101b7573d6000803e3d6000fd5b505050506040513d601f19601f820116820180604052508101906101db9190610788565b6001600160a01b03929092166000908152602081905260409020805460ff191660ff84161790555092915050565b60008060006102178461035c565b90925090506001600160a01b0382166001141561023f5750670de0b6b3a76400009392505050565b6001600160a01b0382166102655760405162461bcd60e51b8152600401610105906107ab565b600080836001600160a01b031663feaf968c6040518163ffffffff1660e01b815260040160a06040518083038186803b1580156102a157600080fd5b505afa1580156102b5573d6000803e3d6000fd5b505050506040513d601f19601f820116820180604052508101906102d99190610738565b509350509250504283826102ed91906107d8565b10156103325760405162461bcd60e51b815260206004820152601460248201527313dc9858db19481c1c9a58d9481d1bdbc81bdb1960621b6044820152606401610105565b600061033d85610600565b9050600061035084601260ff851661066f565b98975050505050505050565b60008073c02aaa39b223fe8d0a0e5c4f27ead9083c756cc26001600160a01b03841614156103905750600190506000915091565b735e8422345238f34275888049021821e8e08caa1f6001600160a01b03841614156103e25773c58f3385fbc1c8ad2c0c9a061d7c13b141d7a5df91506103db6201518061fd206107d8565b9050915091565b73ae7ab96520de3a18e5e111b5eaab095312d7fe846001600160a01b038416141561042b577386392dc19c0b719886221c78ab11eb8cf5c5281291506103db62015180806107d8565b73ae78736cd615f374d3085123a210448e74fc63936001600160a01b03841614156104745773536218f9e9eb48863970252233c8f271f554c2d091506103db62015180806107d8565b73d533a949740bb3306d119cc777fa900ba034cd526001600160a01b03841614156104bd57738a12be339b0cd1829b91adc01977caa5e9ac121e91506103db62015180806107d8565b734e3fbd56cd56c3e72c1403e103b45db9da5b9d2b6001600160a01b03841614156105065773c9cbf687f43176b302f03f5e58470b77d07c61c691506103db62015180806107d8565b73be9895146f7af43049ca1c1ae358b0541ea497046001600160a01b038416141561054f5773f017fcb346a1885194689ba23eff2fe6fa5c483b91506103db62015180806107d8565b73ba100000625a3754423978a60c9317c58a424e3d6001600160a01b03841614156105985773c1438aa3823a6ba0c159cfa8d98df5a994ba120b91506103db62015180806107d8565b73c0c293ce456ff0ed870add98a0828dd4d2903dbf6001600160a01b03841614156105e857507f000000000000000000000000000000000000000000000000000000000000000090506000915091565b60405162461bcd60e51b8152600401610105906107ab565b6001600160a01b03811660009081526020819052604081205460ff16806106695760405162461bcd60e51b815260206004820152601b60248201527f4f7261636c653a20446563696d616c73206e6f742063616368656400000000006044820152606401610105565b92915050565b60008183111561069f57610698610686838561091c565b61069190600a610855565b85906106d1565b93506106c9565b818310156106c9576106c66106b4848461091c565b6106bf90600a610855565b85906106e4565b93505b509192915050565b60006106dd82846108fd565b9392505050565b60006106dd82846107f0565b805169ffffffffffffffffffff8116811461070a57600080fd5b919050565b60006020828403121561072157600080fd5b81356001600160a01b03811681146106dd57600080fd5b600080600080600060a0868803121561075057600080fd5b610759866106f0565b945060208601519350604086015192506060860151915061077c608087016106f0565b90509295509295909350565b60006020828403121561079a57600080fd5b815160ff811681146106dd57600080fd5b6020808252601390820152724173736574206e6f7420617661696c61626c6560681b604082015260600190565b600082198211156107eb576107eb610933565b500190565b60008261080d57634e487b7160e01b600052601260045260246000fd5b500490565b600181815b8085111561084d57816000190482111561083357610833610933565b8085161561084057918102915b93841c9390800290610817565b509250929050565b60006106dd838360008261086b57506001610669565b8161087857506000610669565b816001811461088e5760028114610898576108b4565b6001915050610669565b60ff8411156108a9576108a9610933565b50506001821b610669565b5060208310610133831016604e8410600b84101617156108d7575081810a610669565b6108e18383610812565b80600019048211156108f5576108f5610933565b029392505050565b600081600019048311821515161561091757610917610933565b500290565b60008282101561092e5761092e610933565b500390565b634e487b7160e01b600052601160045260246000fdfea26469706673582212208bb9e5b4d24c18e967be0056a4a15b3a2016b122cc56423ba9c36822d028de9564736f6c63430008070033",
  "libraries": {},
  "devdoc": {
    "kind": "dev",
    "methods": {
      "cacheDecimals(address)": {
        "params": {
          "asset": "address of the asset"
        },
        "returns": {
          "_0": "uint8 corresponding asset decimals"
        }
      },
      "price(address)": {
        "params": {
          "asset": "address of the asset"
        },
        "returns": {
          "_0": "uint256 unit price for 1 asset unit, in 18 decimal fixed"
        }
      }
    },
    "version": 1
  },
  "userdoc": {
    "kind": "user",
    "methods": {
      "cacheDecimals(address)": {
        "notice": "Before an asset/feed price is fetches for the first time the         decimals need to be cached. This is a gas optimization"
      },
      "price(address)": {
        "notice": "Returns the total price in 18 digit units for a given asset.         This implementation does not (!) do range checks as the         parent OracleRouter does."
      }
    },
    "version": 1
  },
  "storageLayout": {
    "storage": [
      {
        "astId": 20635,
        "contract": "contracts/oracle/OETHOracleRouter.sol:OETHOracleRouter",
        "label": "decimalsCache",
        "offset": 0,
        "slot": "0",
        "type": "t_mapping(t_address,t_uint8)"
      }
    ],
    "types": {
      "t_address": {
        "encoding": "inplace",
        "label": "address",
        "numberOfBytes": "20"
      },
      "t_mapping(t_address,t_uint8)": {
        "encoding": "mapping",
        "key": "t_address",
        "label": "mapping(address => uint8)",
        "numberOfBytes": "32",
        "value": "t_uint8"
      },
      "t_uint8": {
        "encoding": "inplace",
        "label": "uint8",
        "numberOfBytes": "1"
      }
    }
  }
}