{
  "address": "0x31a91336414d3B955E494E7d485a6B06b55FC8fB",
  "abi": [
    {
      "anonymous": false,
      "inputs": [
        {
          "indexed": false,
          "internalType": "uint256",
          "name": "_threshold",
          "type": "uint256"
        }
      ],
      "name": "AllocateThresholdUpdated",
      "type": "event"
    },
    {
      "anonymous": false,
      "inputs": [
        {
          "indexed": false,
          "internalType": "address",
          "name": "_asset",
          "type": "address"
        },
        {
          "indexed": false,
          "internalType": "address",
          "name": "_strategy",
          "type": "address"
        },
        {
          "indexed": false,
          "internalType": "uint256",
          "name": "_amount",
          "type": "uint256"
        }
      ],
      "name": "AssetAllocated",
      "type": "event"
    },
    {
      "anonymous": false,
      "inputs": [
        {
          "indexed": false,
          "internalType": "address",
          "name": "_asset",
          "type": "address"
        },
        {
          "indexed": false,
          "internalType": "address",
          "name": "_strategy",
          "type": "address"
        }
      ],
      "name": "AssetDefaultStrategyUpdated",
      "type": "event"
    },
    {
      "anonymous": false,
      "inputs": [
        {
          "indexed": false,
          "internalType": "address",
          "name": "_asset",
          "type": "address"
        }
      ],
      "name": "AssetSupported",
      "type": "event"
    },
    {
      "anonymous": false,
      "inputs": [],
      "name": "CapitalPaused",
      "type": "event"
    },
    {
      "anonymous": false,
      "inputs": [],
      "name": "CapitalUnpaused",
      "type": "event"
    },
    {
      "anonymous": false,
      "inputs": [
        {
          "indexed": true,
          "internalType": "address",
          "name": "previousGovernor",
          "type": "address"
        },
        {
          "indexed": true,
          "internalType": "address",
          "name": "newGovernor",
          "type": "address"
        }
      ],
      "name": "GovernorshipTransferred",
      "type": "event"
    },
    {
      "anonymous": false,
      "inputs": [
        {
          "indexed": false,
          "internalType": "uint256",
          "name": "maxSupplyDiff",
          "type": "uint256"
        }
      ],
      "name": "MaxSupplyDiffChanged",
      "type": "event"
    },
    {
      "anonymous": false,
      "inputs": [
        {
          "indexed": false,
          "internalType": "address",
          "name": "_addr",
          "type": "address"
        },
        {
          "indexed": false,
          "internalType": "uint256",
          "name": "_value",
          "type": "uint256"
        }
      ],
      "name": "Mint",
      "type": "event"
    },
    {
      "anonymous": false,
      "inputs": [
        {
          "indexed": false,
          "internalType": "uint256",
          "name": "_threshold",
          "type": "uint256"
        }
      ],
      "name": "NetOusdMintForStrategyThresholdChanged",
      "type": "event"
    },
    {
      "anonymous": false,
      "inputs": [
        {
          "indexed": false,
          "internalType": "address",
          "name": "_ousdMetaStrategy",
          "type": "address"
        }
      ],
      "name": "OusdMetaStrategyUpdated",
      "type": "event"
    },
    {
      "anonymous": false,
      "inputs": [
        {
          "indexed": true,
          "internalType": "address",
          "name": "previousGovernor",
          "type": "address"
        },
        {
          "indexed": true,
          "internalType": "address",
          "name": "newGovernor",
          "type": "address"
        }
      ],
      "name": "PendingGovernorshipTransfer",
      "type": "event"
    },
    {
      "anonymous": false,
      "inputs": [
        {
          "indexed": false,
          "internalType": "address",
          "name": "_priceProvider",
          "type": "address"
        }
      ],
      "name": "PriceProviderUpdated",
      "type": "event"
    },
    {
      "anonymous": false,
      "inputs": [],
      "name": "RebasePaused",
      "type": "event"
    },
    {
      "anonymous": false,
      "inputs": [
        {
          "indexed": false,
          "internalType": "uint256",
          "name": "_threshold",
          "type": "uint256"
        }
      ],
      "name": "RebaseThresholdUpdated",
      "type": "event"
    },
    {
      "anonymous": false,
      "inputs": [],
      "name": "RebaseUnpaused",
      "type": "event"
    },
    {
      "anonymous": false,
      "inputs": [
        {
          "indexed": false,
          "internalType": "address",
          "name": "_addr",
          "type": "address"
        },
        {
          "indexed": false,
          "internalType": "uint256",
          "name": "_value",
          "type": "uint256"
        }
      ],
      "name": "Redeem",
      "type": "event"
    },
    {
      "anonymous": false,
      "inputs": [
        {
          "indexed": false,
          "internalType": "uint256",
          "name": "_redeemFeeBps",
          "type": "uint256"
        }
      ],
      "name": "RedeemFeeUpdated",
      "type": "event"
    },
    {
      "anonymous": false,
      "inputs": [
        {
          "indexed": false,
          "internalType": "address",
          "name": "_address",
          "type": "address"
        }
      ],
      "name": "StrategistUpdated",
      "type": "event"
    },
    {
      "anonymous": false,
      "inputs": [
        {
          "indexed": false,
          "internalType": "address",
          "name": "_addr",
          "type": "address"
        }
      ],
      "name": "StrategyApproved",
      "type": "event"
    },
    {
      "anonymous": false,
      "inputs": [
        {
          "indexed": false,
          "internalType": "address",
          "name": "_addr",
          "type": "address"
        }
      ],
      "name": "StrategyRemoved",
      "type": "event"
    },
    {
      "anonymous": false,
      "inputs": [
        {
          "indexed": false,
          "internalType": "uint256",
          "name": "_basis",
          "type": "uint256"
        }
      ],
      "name": "SwapAllowedUndervalueChanged",
      "type": "event"
    },
    {
      "anonymous": false,
      "inputs": [
        {
          "indexed": false,
          "internalType": "address",
          "name": "_asset",
          "type": "address"
        },
        {
          "indexed": false,
          "internalType": "uint256",
          "name": "_basis",
          "type": "uint256"
        }
      ],
      "name": "SwapSlippageChanged",
      "type": "event"
    },
    {
      "anonymous": false,
      "inputs": [
        {
          "indexed": true,
          "internalType": "address",
          "name": "_fromAsset",
          "type": "address"
        },
        {
          "indexed": true,
          "internalType": "address",
          "name": "_toAsset",
          "type": "address"
        },
        {
          "indexed": false,
          "internalType": "uint256",
          "name": "_fromAssetAmount",
          "type": "uint256"
        },
        {
          "indexed": false,
          "internalType": "uint256",
          "name": "_toAssetAmount",
          "type": "uint256"
        }
      ],
      "name": "Swapped",
      "type": "event"
    },
    {
      "anonymous": false,
      "inputs": [
        {
          "indexed": false,
          "internalType": "address",
          "name": "_address",
          "type": "address"
        }
      ],
      "name": "SwapperChanged",
      "type": "event"
    },
    {
      "anonymous": false,
      "inputs": [
        {
          "indexed": false,
          "internalType": "address",
          "name": "_address",
          "type": "address"
        }
      ],
      "name": "TrusteeAddressChanged",
      "type": "event"
    },
    {
      "anonymous": false,
      "inputs": [
        {
          "indexed": false,
          "internalType": "uint256",
          "name": "_basis",
          "type": "uint256"
        }
      ],
      "name": "TrusteeFeeBpsChanged",
      "type": "event"
    },
    {
      "anonymous": false,
      "inputs": [
        {
          "indexed": false,
          "internalType": "uint256",
          "name": "_vaultBuffer",
          "type": "uint256"
        }
      ],
      "name": "VaultBufferUpdated",
      "type": "event"
    },
    {
      "anonymous": false,
      "inputs": [
        {
          "indexed": false,
          "internalType": "address",
          "name": "_to",
          "type": "address"
        },
        {
          "indexed": false,
          "internalType": "uint256",
          "name": "_yield",
          "type": "uint256"
        },
        {
          "indexed": false,
          "internalType": "uint256",
          "name": "_fee",
          "type": "uint256"
        }
      ],
      "name": "YieldDistribution",
      "type": "event"
    },
    {
      "inputs": [],
      "name": "allowedSwapUndervalue",
      "outputs": [
        {
          "internalType": "uint256",
          "name": "value",
          "type": "uint256"
        }
      ],
      "stateMutability": "view",
      "type": "function"
    },
    {
      "inputs": [
        {
          "internalType": "address",
          "name": "_addr",
          "type": "address"
        }
      ],
      "name": "approveStrategy",
      "outputs": [],
      "stateMutability": "nonpayable",
      "type": "function"
    },
    {
      "inputs": [
        {
          "internalType": "address",
          "name": "",
          "type": "address"
        }
      ],
      "name": "assetDefaultStrategies",
      "outputs": [
        {
          "internalType": "address",
          "name": "",
          "type": "address"
        }
      ],
      "stateMutability": "view",
      "type": "function"
    },
    {
      "inputs": [],
      "name": "autoAllocateThreshold",
      "outputs": [
        {
          "internalType": "uint256",
          "name": "",
          "type": "uint256"
        }
      ],
      "stateMutability": "view",
      "type": "function"
    },
    {
      "inputs": [
        {
          "internalType": "address",
          "name": "_asset",
          "type": "address"
        }
      ],
      "name": "cacheDecimals",
      "outputs": [],
      "stateMutability": "nonpayable",
      "type": "function"
    },
    {
      "inputs": [],
      "name": "capitalPaused",
      "outputs": [
        {
          "internalType": "bool",
          "name": "",
          "type": "bool"
        }
      ],
      "stateMutability": "view",
      "type": "function"
    },
    {
      "inputs": [],
      "name": "claimGovernance",
      "outputs": [],
      "stateMutability": "nonpayable",
      "type": "function"
    },
    {
      "inputs": [
        {
          "internalType": "address",
          "name": "_strategyToAddress",
          "type": "address"
        },
        {
          "internalType": "address[]",
          "name": "_assets",
          "type": "address[]"
        },
        {
          "internalType": "uint256[]",
          "name": "_amounts",
          "type": "uint256[]"
        }
      ],
      "name": "depositToStrategy",
      "outputs": [],
      "stateMutability": "nonpayable",
      "type": "function"
    },
    {
      "inputs": [],
      "name": "governor",
      "outputs": [
        {
          "internalType": "address",
          "name": "",
          "type": "address"
        }
      ],
      "stateMutability": "view",
      "type": "function"
    },
    {
      "inputs": [],
      "name": "isGovernor",
      "outputs": [
        {
          "internalType": "bool",
          "name": "",
          "type": "bool"
        }
      ],
      "stateMutability": "view",
      "type": "function"
    },
    {
      "inputs": [],
      "name": "maxSupplyDiff",
      "outputs": [
        {
          "internalType": "uint256",
          "name": "",
          "type": "uint256"
        }
      ],
      "stateMutability": "view",
      "type": "function"
    },
    {
      "inputs": [],
      "name": "netOusdMintForStrategyThreshold",
      "outputs": [
        {
          "internalType": "uint256",
          "name": "",
          "type": "uint256"
        }
      ],
      "stateMutability": "view",
      "type": "function"
    },
    {
      "inputs": [],
      "name": "netOusdMintedForStrategy",
      "outputs": [
        {
          "internalType": "int256",
          "name": "",
          "type": "int256"
        }
      ],
      "stateMutability": "view",
      "type": "function"
    },
    {
      "inputs": [],
      "name": "ousdMetaStrategy",
      "outputs": [
        {
          "internalType": "address",
          "name": "",
          "type": "address"
        }
      ],
      "stateMutability": "view",
      "type": "function"
    },
    {
      "inputs": [],
      "name": "pauseCapital",
      "outputs": [],
      "stateMutability": "nonpayable",
      "type": "function"
    },
    {
      "inputs": [],
      "name": "pauseRebase",
      "outputs": [],
      "stateMutability": "nonpayable",
      "type": "function"
    },
    {
      "inputs": [],
      "name": "priceProvider",
      "outputs": [
        {
          "internalType": "address",
          "name": "",
          "type": "address"
        }
      ],
      "stateMutability": "view",
      "type": "function"
    },
    {
      "inputs": [],
      "name": "rebasePaused",
      "outputs": [
        {
          "internalType": "bool",
          "name": "",
          "type": "bool"
        }
      ],
      "stateMutability": "view",
      "type": "function"
    },
    {
      "inputs": [],
      "name": "rebaseThreshold",
      "outputs": [
        {
          "internalType": "uint256",
          "name": "",
          "type": "uint256"
        }
      ],
      "stateMutability": "view",
      "type": "function"
    },
    {
      "inputs": [],
      "name": "redeemFeeBps",
      "outputs": [
        {
          "internalType": "uint256",
          "name": "",
          "type": "uint256"
        }
      ],
      "stateMutability": "view",
      "type": "function"
    },
    {
      "inputs": [
        {
          "internalType": "address",
          "name": "_addr",
          "type": "address"
        }
      ],
      "name": "removeStrategy",
      "outputs": [],
      "stateMutability": "nonpayable",
      "type": "function"
    },
    {
      "inputs": [
        {
          "internalType": "address",
          "name": "newImpl",
          "type": "address"
        }
      ],
      "name": "setAdminImpl",
      "outputs": [],
      "stateMutability": "nonpayable",
      "type": "function"
    },
    {
      "inputs": [
        {
          "internalType": "address",
          "name": "_asset",
          "type": "address"
        },
        {
          "internalType": "address",
          "name": "_strategy",
          "type": "address"
        }
      ],
      "name": "setAssetDefaultStrategy",
      "outputs": [],
      "stateMutability": "nonpayable",
      "type": "function"
    },
    {
      "inputs": [
        {
          "internalType": "uint256",
          "name": "_threshold",
          "type": "uint256"
        }
      ],
      "name": "setAutoAllocateThreshold",
      "outputs": [],
      "stateMutability": "nonpayable",
      "type": "function"
    },
    {
      "inputs": [
        {
          "internalType": "uint256",
          "name": "_maxSupplyDiff",
          "type": "uint256"
        }
      ],
      "name": "setMaxSupplyDiff",
      "outputs": [],
      "stateMutability": "nonpayable",
      "type": "function"
    },
    {
      "inputs": [
        {
          "internalType": "uint256",
          "name": "_threshold",
          "type": "uint256"
        }
      ],
      "name": "setNetOusdMintForStrategyThreshold",
      "outputs": [],
      "stateMutability": "nonpayable",
      "type": "function"
    },
    {
      "inputs": [
        {
          "internalType": "address",
          "name": "_asset",
          "type": "address"
        },
        {
          "internalType": "uint16",
          "name": "_allowedOracleSlippageBps",
          "type": "uint16"
        }
      ],
      "name": "setOracleSlippage",
      "outputs": [],
      "stateMutability": "nonpayable",
      "type": "function"
    },
    {
      "inputs": [
        {
          "internalType": "address",
          "name": "_ousdMetaStrategy",
          "type": "address"
        }
      ],
      "name": "setOusdMetaStrategy",
      "outputs": [],
      "stateMutability": "nonpayable",
      "type": "function"
    },
    {
      "inputs": [
        {
          "internalType": "address",
          "name": "_priceProvider",
          "type": "address"
        }
      ],
      "name": "setPriceProvider",
      "outputs": [],
      "stateMutability": "nonpayable",
      "type": "function"
    },
    {
      "inputs": [
        {
          "internalType": "uint256",
          "name": "_threshold",
          "type": "uint256"
        }
      ],
      "name": "setRebaseThreshold",
      "outputs": [],
      "stateMutability": "nonpayable",
      "type": "function"
    },
    {
      "inputs": [
        {
          "internalType": "uint256",
          "name": "_redeemFeeBps",
          "type": "uint256"
        }
      ],
      "name": "setRedeemFeeBps",
      "outputs": [],
      "stateMutability": "nonpayable",
      "type": "function"
    },
    {
      "inputs": [
        {
          "internalType": "address",
          "name": "_address",
          "type": "address"
        }
      ],
      "name": "setStrategistAddr",
      "outputs": [],
      "stateMutability": "nonpayable",
      "type": "function"
    },
    {
      "inputs": [
        {
          "internalType": "uint16",
          "name": "_basis",
          "type": "uint16"
        }
      ],
      "name": "setSwapAllowedUndervalue",
      "outputs": [],
      "stateMutability": "nonpayable",
      "type": "function"
    },
    {
      "inputs": [
        {
          "internalType": "address",
          "name": "_swapperAddr",
          "type": "address"
        }
      ],
      "name": "setSwapper",
      "outputs": [],
      "stateMutability": "nonpayable",
      "type": "function"
    },
    {
      "inputs": [
        {
          "internalType": "address",
          "name": "_address",
          "type": "address"
        }
      ],
      "name": "setTrusteeAddress",
      "outputs": [],
      "stateMutability": "nonpayable",
      "type": "function"
    },
    {
      "inputs": [
        {
          "internalType": "uint256",
          "name": "_basis",
          "type": "uint256"
        }
      ],
      "name": "setTrusteeFeeBps",
      "outputs": [],
      "stateMutability": "nonpayable",
      "type": "function"
    },
    {
      "inputs": [
        {
          "internalType": "uint256",
          "name": "_vaultBuffer",
          "type": "uint256"
        }
      ],
      "name": "setVaultBuffer",
      "outputs": [],
      "stateMutability": "nonpayable",
      "type": "function"
    },
    {
      "inputs": [],
      "name": "strategistAddr",
      "outputs": [
        {
          "internalType": "address",
          "name": "",
          "type": "address"
        }
      ],
      "stateMutability": "view",
      "type": "function"
    },
    {
      "inputs": [
        {
          "internalType": "address",
          "name": "_asset",
          "type": "address"
        },
        {
          "internalType": "uint8",
          "name": "_unitConversion",
          "type": "uint8"
        }
      ],
      "name": "supportAsset",
      "outputs": [],
      "stateMutability": "nonpayable",
      "type": "function"
    },
    {
      "inputs": [
        {
          "internalType": "address",
          "name": "_fromAsset",
          "type": "address"
        },
        {
          "internalType": "address",
          "name": "_toAsset",
          "type": "address"
        },
        {
          "internalType": "uint256",
          "name": "_fromAssetAmount",
          "type": "uint256"
        },
        {
          "internalType": "uint256",
          "name": "_minToAssetAmount",
          "type": "uint256"
        },
        {
          "internalType": "bytes",
          "name": "_data",
          "type": "bytes"
        }
      ],
      "name": "swapCollateral",
      "outputs": [
        {
          "internalType": "uint256",
          "name": "toAssetAmount",
          "type": "uint256"
        }
      ],
      "stateMutability": "nonpayable",
      "type": "function"
    },
    {
      "inputs": [],
      "name": "swapper",
      "outputs": [
        {
          "internalType": "address",
          "name": "swapper_",
          "type": "address"
        }
      ],
      "stateMutability": "view",
      "type": "function"
    },
    {
      "inputs": [
        {
          "internalType": "address",
          "name": "_newGovernor",
          "type": "address"
        }
      ],
      "name": "transferGovernance",
      "outputs": [],
      "stateMutability": "nonpayable",
      "type": "function"
    },
    {
      "inputs": [
        {
          "internalType": "address",
          "name": "_asset",
          "type": "address"
        },
        {
          "internalType": "uint256",
          "name": "_amount",
          "type": "uint256"
        }
      ],
      "name": "transferToken",
      "outputs": [],
      "stateMutability": "nonpayable",
      "type": "function"
    },
    {
      "inputs": [],
      "name": "trusteeAddress",
      "outputs": [
        {
          "internalType": "address",
          "name": "",
          "type": "address"
        }
      ],
      "stateMutability": "view",
      "type": "function"
    },
    {
      "inputs": [],
      "name": "trusteeFeeBps",
      "outputs": [
        {
          "internalType": "uint256",
          "name": "",
          "type": "uint256"
        }
      ],
      "stateMutability": "view",
      "type": "function"
    },
    {
      "inputs": [],
      "name": "unpauseCapital",
      "outputs": [],
      "stateMutability": "nonpayable",
      "type": "function"
    },
    {
      "inputs": [],
      "name": "unpauseRebase",
      "outputs": [],
      "stateMutability": "nonpayable",
      "type": "function"
    },
    {
      "inputs": [],
      "name": "vaultBuffer",
      "outputs": [
        {
          "internalType": "uint256",
          "name": "",
          "type": "uint256"
        }
      ],
      "stateMutability": "view",
      "type": "function"
    },
    {
      "inputs": [],
      "name": "withdrawAllFromStrategies",
      "outputs": [],
      "stateMutability": "nonpayable",
      "type": "function"
    },
    {
      "inputs": [
        {
          "internalType": "address",
          "name": "_strategyAddr",
          "type": "address"
        }
      ],
      "name": "withdrawAllFromStrategy",
      "outputs": [],
      "stateMutability": "nonpayable",
      "type": "function"
    },
    {
      "inputs": [
        {
          "internalType": "address",
          "name": "_strategyFromAddress",
          "type": "address"
        },
        {
          "internalType": "address[]",
          "name": "_assets",
          "type": "address[]"
        },
        {
          "internalType": "uint256[]",
          "name": "_amounts",
          "type": "uint256[]"
        }
      ],
      "name": "withdrawFromStrategy",
      "outputs": [],
      "stateMutability": "nonpayable",
      "type": "function"
    }
  ],
  "transactionHash": "0x53f3b55dd7bd481a785e81e8898e3261411c4d2f51cec43eef8a26d612630c43",
  "args": [],
  "numDeployments": 2,
  "solcInputHash": "e08d4b98ef0bf7a625aa1659b6c5e4fc",
  "bytecode": "0x6037805461ffff60a01b1916600160a81b179055603d80546001600160a01b0319908116909155603e805482169055603f80548216905560458054909116905560006046819055604781905560c0604052608081905260a052604880546001600160b01b03191690553480156200007557600080fd5b506200008e336000805160206200360a83398151915255565b6000805160206200360a833981519152546040516001600160a01b03909116906000907fc7c0c772add429241571afb3805861fb3cfa2af374534088b76cdb4325a87e9a908290a361352480620000e66000396000f3fe608060405234801561001057600080fd5b50600436106102f15760003560e01c80636c7561e81161019d578063b888879e116100e9578063d38bfff4116100a2578063e6cc54321161007c578063e6cc54321461061d578063e829cc1614610631578063eb03654b14610644578063fc0cfeee1461065757600080fd5b8063d38bfff4146105ee578063d58e3b3a14610601578063e45cc9f01461061457600080fd5b8063b888879e1461059d578063b890ebf6146105b0578063bc90106b146105c3578063c5f00841146105d6578063c7af3352146105de578063c9919112146105e657600080fd5b80638ec489a2116101565780639fa1826e116101305780639fa1826e14610545578063a403e4d51461054e578063ae69f3cb14610577578063b2c9336d1461058a57600080fd5b80638ec489a21461051757806394828ffd1461052a5780639c82f2a41461053257600080fd5b80636c7561e8146104b9578063773540b3146104cc5780637a2202f3146104df5780637b9a7096146104e8578063840c4c7a146104fb5780638e510b521461050e57600080fd5b8063372aa2241161025c57806352d38e5d11610215578063597c8910116101ef578063597c8910146104785780635d36b1901461048b578063636e6c4014610493578063663e64ce146104a657600080fd5b806352d38e5d1461043857806353ca9f2414610441578063570d8e1d1461046557600080fd5b8063372aa224146103d15780633b8ae397146103e45780633dbc911f146103f757806349c1d54d146103ff5780634bed3bc01461041257806350ba711c1461042557600080fd5b806318ce56bd116102ae57806318ce56bd146103755780631edfe3da14610388578063207134b0146103915780632b3297f91461039a5780632da845a8146103ab57806336b6d944146103be57600080fd5b806309f49bf5146102f657806309f6442c146103005780630acbda751461031c5780630c340a241461032f5780631072cbea1461034f578063175188e814610362575b600080fd5b6102fe61066a565b005b61030960385481565b6040519081526020015b60405180910390f35b6102fe61032a3660046131de565b6106e3565b610337610795565b6040516001600160a01b039091168152602001610313565b6102fe61035d366004613140565b6107b2565b6102fe610370366004612fa1565b61085f565b604554610337906001600160a01b031681565b61030960395481565b61030960435481565b6048546001600160a01b0316610337565b6102fe6103b9366004612fa1565b610b60565b6102fe6103cc366004612fa1565b610bd2565b6102fe6103df366004612fa1565b610c02565b6102fe6103f2366004612fa1565b610c74565b6102fe610db1565b604254610337906001600160a01b031681565b604854600160a01b900461ffff16610309565b610309610433366004612fef565b610e27565b610309603b5481565b60375461045590600160a01b900460ff1681565b6040519015158152602001610313565b603f54610337906001600160a01b031681565b6102fe610486366004612fa1565b611616565b6102fe611712565b6102fe6104a13660046131de565b6117b8565b6102fe6104b43660046131de565b611816565b6102fe6104c736600461316a565b61186f565b6102fe6104da366004612fa1565b611aed565b61030960475481565b6102fe6104f6366004613116565b611b5f565b6102fe610509366004613095565b611c95565b61030960415481565b6102fe6105253660046131de565b611d2e565b6102fe611de3565b6102fe610540366004612fa1565b611e53565b610309603a5481565b61033761055c366004612fa1565b6040602081905260009182529020546001600160a01b031681565b6102fe610585366004613095565b611ec5565b6102fe6105983660046131de565b611f53565b603754610337906001600160a01b031681565b6102fe6105be3660046131de565b611fac565b6102fe6105d1366004612fbc565b612005565b6102fe612247565b6104556122bd565b6102fe6122ee565b6102fe6105fc366004612fa1565b6123b8565b6102fe61060f366004612fa1565b61245c565b61030960465481565b60375461045590600160a81b900460ff1681565b6102fe61063f3660046131c3565b6124ce565b6102fe6106523660046131de565b61258e565b6102fe610665366004612fa1565b612643565b603f546001600160a01b031633148061068657506106866122bd565b6106ab5760405162461bcd60e51b81526004016106a29061330f565b60405180910390fd5b6037805460ff60a01b191690556040517fbc044409505c95b6b851433df96e1beae715c909d8e7c1d6d7ab783300d4e3b990600090a1565b6106eb6122bd565b6107075760405162461bcd60e51b81526004016106a2906132d8565b6113888111156107595760405162461bcd60e51b815260206004820152601760248201527f62617369732063616e6e6f74206578636565642035302500000000000000000060448201526064016106a2565b60438190556040518181527f56287a45051933ea374811b3d5d165033047be5572cac676f7c28b8be4f746c7906020015b60405180910390a150565b60006107ad6000805160206134cf8339815191525490565b905090565b6107ba6122bd565b6107d65760405162461bcd60e51b81526004016106a2906132d8565b6001600160a01b03821660009081526033602052604090205460ff161561083f5760405162461bcd60e51b815260206004820152601760248201527f4f6e6c7920756e737570706f727465642061737365747300000000000000000060448201526064016106a2565b61085b61084a610795565b6001600160a01b03841690836126e5565b5050565b6108676122bd565b6108835760405162461bcd60e51b81526004016106a2906132d8565b6001600160a01b03811660009081526035602052604090205460ff166108e35760405162461bcd60e51b815260206004820152601560248201527414dd1c985d1959de481b9bdd08185c1c1c9bdd9959605a1b60448201526064016106a2565b60345460005b8181101561099b57826001600160a01b03166040600060348481548110610912576109126134a9565b60009182526020808320909101546001600160a01b03908116845290830193909352604090910190205416141561098b5760405162461bcd60e51b815260206004820181905260248201527f53747261746567792069732064656661756c7420666f7220616e20617373657460448201526064016106a2565b6109948161344c565b90506108e9565b506036548060005b828110156109fb57846001600160a01b0316603682815481106109c8576109c86134a9565b6000918252602090912001546001600160a01b031614156109eb578091506109fb565b6109f48161344c565b90506109a3565b5081811015610b5a576036610a11600184613409565b81548110610a2157610a216134a9565b600091825260209091200154603680546001600160a01b039092169183908110610a4d57610a4d6134a9565b9060005260206000200160006101000a8154816001600160a01b0302191690836001600160a01b031602179055506036805480610a8c57610a8c613493565b60008281526020808220830160001990810180546001600160a01b03191690559092019092556001600160a01b03861680835260359091526040808320805460ff19169055805163429c145b60e11b81529051879363853828b6926004808201939182900301818387803b158015610b0357600080fd5b505af1158015610b17573d6000803e3d6000fd5b50506040516001600160a01b03881681527f09a1db4b80c32706328728508c941a6b954f31eb5affd32f236c1fd405f8fea49250602001905060405180910390a1505b50505050565b610b686122bd565b610b845760405162461bcd60e51b81526004016106a2906132d8565b604280546001600160a01b0319166001600160a01b0383169081179091556040519081527f1e4af5ac389e8cde1bdaa6830881b6c987c62a45cfb3b33d27d805cde3b577509060200161078a565b610bda6122bd565b610bf65760405162461bcd60e51b81526004016106a2906132d8565b610bff8161273c565b50565b610c0a6122bd565b610c265760405162461bcd60e51b81526004016106a2906132d8565b603780546001600160a01b0319166001600160a01b0383169081179091556040519081527fb266add5f3044b17d27db796af992cecbe413921b4e8aaaee03c719e16b9806a9060200161078a565b610c7c6122bd565b610c985760405162461bcd60e51b81526004016106a2906132d8565b6001600160a01b03811660009081526035602052604090205460ff1615610d015760405162461bcd60e51b815260206004820152601960248201527f537472617465677920616c726561647920617070726f7665640000000000000060448201526064016106a2565b6040805180820182526001808252600060208084018281526001600160a01b038716808452603583528684209551865460ff19169015151786559051948401949094556036805493840181559091527f4a11f94e20a93c79f6ec743a1954ec4fc2c08429ae2122118bf234b2185c81b890910180546001600160a01b0319168317905591519081527f960dd94cbb79169f09a4e445d58b895df2d9bffa5b31055d0932d801724a20d1910161078a565b603f546001600160a01b0316331480610dcd5750610dcd6122bd565b610de95760405162461bcd60e51b81526004016106a29061330f565b6037805460ff60a81b1916600160a81b1790556040517f71f0e5b62f846a22e0b4d159e516e62fa9c2b8eb570be15f83e67d98a2ee51e090600090a1565b7f53bf423e48ed90e97d02ab0ebab13b2a235a6bfbe9c321847d5c175333ac45358054600091906002811415610e6f5760405162461bcd60e51b81526004016106a290613357565b60028255603f546001600160a01b0316331480610e8f5750610e8f6122bd565b610eab5760405162461bcd60e51b81526004016106a29061330f565b6001600160a01b0389166000908152603360209081526040808320815160808101909252805460ff808216151584529293919291840191610100909104166001811115610efa57610efa61347d565b6001811115610f0b57610f0b61347d565b8152905462010000810460ff908116602080850191909152630100000090920461ffff166040938401526001600160a01b038d1660009081526033835283812084516080810190955280548084161515865295965090949092840191610100909104166001811115610f7f57610f7f61347d565b6001811115610f9057610f9061347d565b8152905462010000810460ff1660208301526301000000900461ffff1660409091015282519091506110045760405162461bcd60e51b815260206004820152601b60248201527f46726f6d206173736574206973206e6f7420737570706f72746564000000000060448201526064016106a2565b80516110525760405162461bcd60e51b815260206004820152601960248201527f546f206173736574206973206e6f7420737570706f727465640000000000000060448201526064016106a2565b6040805180820182526048546001600160a01b038082168352600160a01b90910461ffff16602083015291516370a0823160e01b81523060048201529091600091908d16906370a082319060240160206040518083038186803b1580156110b857600080fd5b505afa1580156110cc573d6000803e3d6000fd5b505050506040513d601f19601f820116820180604052508101906110f091906131f7565b825190915061110a906001600160a01b038f16908d6126e5565b81600001516001600160a01b0316632506c0188e8e60018f61112c9190613409565b8e8e8e6040518763ffffffff1660e01b815260040161115096959493929190613249565b602060405180830381600087803b15801561116a57600080fd5b505af115801561117e573d6000803e3d6000fd5b505050506040513d601f19601f820116820180604052508101906111a291906131f7565b506040516370a0823160e01b815230600482015281906001600160a01b038e16906370a082319060240160206040518083038186803b1580156111e457600080fd5b505afa1580156111f8573d6000803e3d6000fd5b505050506040513d601f19601f8201168201806040525081019061121c91906131f7565b6112269190613409565b965050888610156112795760405162461bcd60e51b815260206004820152601960248201527f5374726174656769737420736c697070616765206c696d69740000000000000060448201526064016106a2565b6000826060015161271061128d919061337f565b6037546040516315d5220f60e31b81526001600160a01b038f8116600483015261ffff93909316929091169063aea910789060240160206040518083038186803b1580156112da57600080fd5b505afa1580156112ee573d6000803e3d6000fd5b505050506040513d601f19601f8201168201806040525081019061131291906131f7565b61131c91906133c7565b603760009054906101000a90046001600160a01b03166001600160a01b031663aea910788f6040518263ffffffff1660e01b815260040161136c91906001600160a01b0391909116815260200190565b60206040518083038186803b15801561138457600080fd5b505afa158015611398573d6000803e3d6000fd5b505050506040513d601f19601f820116820180604052508101906113bc91906131f7565b60608601516113cd906127106133e6565b6113db9061ffff168e6133c7565b6113e591906133c7565b6113ef91906133a5565b9050808710156114415760405162461bcd60e51b815260206004820152601e60248201527f4f7261636c6520736c697070616765206c696d6974206578636565646564000060448201526064016106a2565b612710826020015161271061145691906133e6565b61ffff16603c60009054906101000a90046001600160a01b03166001600160a01b03166318160ddd6040518163ffffffff1660e01b815260040160206040518083038186803b1580156114a857600080fd5b505afa1580156114bc573d6000803e3d6000fd5b505050506040513d601f19601f820116820180604052508101906114e091906131f7565b6114ea91906133c7565b6114f491906133a5565b306001600160a01b031663d4c3eea06040518163ffffffff1660e01b815260040160206040518083038186803b15801561152d57600080fd5b505afa158015611541573d6000803e3d6000fd5b505050506040513d601f19601f8201168201806040525081019061156591906131f7565b10156115ac5760405162461bcd60e51b8152602060048201526016602482015275416c6c6f7765642076616c7565203c20737570706c7960501b60448201526064016106a2565b8b6001600160a01b03168d6001600160a01b03167fa078c4190abe07940190effc1846be0ccf03ad6007bc9e93f9697d0b460befbb8d8a6040516115fa929190918252602082015260400190565b60405180910390a3505050506001825550509695505050505050565b603f546001600160a01b031633148061163257506116326122bd565b61164e5760405162461bcd60e51b81526004016106a29061330f565b6001600160a01b03811660009081526035602052604090205460ff166116b65760405162461bcd60e51b815260206004820152601960248201527f5374726174656779206973206e6f7420737570706f727465640000000000000060448201526064016106a2565b6000819050806001600160a01b031663853828b66040518163ffffffff1660e01b8152600401600060405180830381600087803b1580156116f657600080fd5b505af115801561170a573d6000803e3d6000fd5b505050505050565b7f44c4d30b2eaad5130ad70c3ba6972730566f3e6359ab83e800d905c61b1c51db546001600160a01b0316336001600160a01b0316146117ad5760405162461bcd60e51b815260206004820152603060248201527f4f6e6c79207468652070656e64696e6720476f7665726e6f722063616e20636f60448201526f6d706c6574652074686520636c61696d60801b60648201526084016106a2565b6117b633612852565b565b6117c06122bd565b6117dc5760405162461bcd60e51b81526004016106a2906132d8565b600060465560478190556040518181527fc29d6fedbc6bdf267a08166c2b976fbd72aca5d6a769528616f8b9224c8f197f9060200161078a565b61181e6122bd565b61183a5760405162461bcd60e51b81526004016106a2906132d8565b60418190556040518181527f95201f9c21f26877223b1ff4073936a6484c35495649e60e55730497aeb60d939060200161078a565b6118776122bd565b6118935760405162461bcd60e51b81526004016106a2906132d8565b6001600160a01b03821660009081526033602052604090205460ff16156118fc5760405162461bcd60e51b815260206004820152601760248201527f417373657420616c726561647920737570706f7274656400000000000000000060448201526064016106a2565b60405180608001604052806001151581526020018260ff1660018111156119255761192561347d565b60018111156119365761193661347d565b81526000602080830182905260409283018290526001600160a01b0386168252603381529190208251815490151560ff19821681178355928401519192839161ff001990911661ffff19909116176101008360018111156119995761199961347d565b02179055506040820151815460609093015161ffff1663010000000264ffff0000001960ff90921662010000029190911664ffffff000019909316929092179190911790556119e78261273c565b603480546001810182556000919091527f46bddb1178e94d7f2892ff5f366840eb658911794f2c3a44c450aa2c505186c10180546001600160a01b0319166001600160a01b038481169182179092556037546040516315d5220f60e31b815260048101929092529091169063aea910789060240160206040518083038186803b158015611a7357600080fd5b505afa158015611a87573d6000803e3d6000fd5b505050506040513d601f19601f82011682018060405250810190611aab91906131f7565b506040516001600160a01b03831681527f4f1ac48525e50059cc1cc6e0e1940ece0dd653a4db4841538d6aef036be2fb7b906020015b60405180910390a15050565b611af56122bd565b611b115760405162461bcd60e51b81526004016106a2906132d8565b603f80546001600160a01b0319166001600160a01b0383169081179091556040519081527f869e0abd13cc3a975de7b93be3df1cb2255c802b1cead85963cc79d99f131bee9060200161078a565b611b676122bd565b611b835760405162461bcd60e51b81526004016106a2906132d8565b6001600160a01b03821660009081526033602052604090205460ff16611be15760405162461bcd60e51b8152602060048201526013602482015272105cdcd95d081b9bdd081cdd5c1c1bdc9d1959606a1b60448201526064016106a2565b6103e88161ffff1610611c2a5760405162461bcd60e51b81526020600482015260116024820152700a6d8d2e0e0c2ceca40e8dede40d0d2ced607b1b60448201526064016106a2565b6001600160a01b038216600081815260336020908152604091829020805464ffff0000001916630100000061ffff8716908102919091179091558251938452908301527f8d22e9d2cbe8bb65a3c4412bd8970743864512a1a0e004e8d00fb96277b78b949101611ae1565b603f546001600160a01b0316331480611cb15750611cb16122bd565b611ccd5760405162461bcd60e51b81526004016106a29061330f565b7f53bf423e48ed90e97d02ab0ebab13b2a235a6bfbe9c321847d5c175333ac453580546002811415611d115760405162461bcd60e51b81526004016106a290613357565b60028255611d228787878787612913565b50600190555050505050565b603f546001600160a01b0316331480611d4a5750611d4a6122bd565b611d665760405162461bcd60e51b81526004016106a29061330f565b670de0b6b3a7640000811115611dae5760405162461bcd60e51b815260206004820152600d60248201526c496e76616c69642076616c756560981b60448201526064016106a2565b60398190556040518181527f41ecb23a0e7865b25f38c268b7c3012220d822929e9edff07326e89d5bb822b59060200161078a565b603f546001600160a01b0316331480611dff5750611dff6122bd565b611e1b5760405162461bcd60e51b81526004016106a29061330f565b6037805460ff60a81b191690556040517f891ebab18da80ebeeea06b1b1cede098329c4c008906a98370c2ac7a80b571cb90600090a1565b611e5b6122bd565b611e775760405162461bcd60e51b81526004016106a2906132d8565b604880546001600160a01b0319166001600160a01b0383169081179091556040519081527f7d7719313229e558c5a3893cad2eb86a86a049156d1d9ebd5c63a8eedefd1c039060200161078a565b603f546001600160a01b0316331480611ee15750611ee16122bd565b611efd5760405162461bcd60e51b81526004016106a29061330f565b7f53bf423e48ed90e97d02ab0ebab13b2a235a6bfbe9c321847d5c175333ac453580546002811415611f415760405162461bcd60e51b81526004016106a290613357565b60028255611d22308888888888612b51565b611f5b6122bd565b611f775760405162461bcd60e51b81526004016106a2906132d8565b603a8190556040518181527f2ec5fb5a3d2703edc461252d92ccd2799c3c74f01d97212b20388207fa17ae459060200161078a565b611fb46122bd565b611fd05760405162461bcd60e51b81526004016106a2906132d8565b603b8190556040518181527f39367850377ac04920a9a670f2180e7a94d83b15ad302e59875ec58fd10bd37d9060200161078a565b603f546001600160a01b031633148061202157506120216122bd565b61203d5760405162461bcd60e51b81526004016106a29061330f565b604080516001600160a01b038085168252831660208201527fba58ce12801c949fa65f41c46ed108671c219baf945fa48d21026cea99ff252a910160405180910390a16001600160a01b03811615612219576001600160a01b03811660009081526035602052604090205460ff166120ef5760405162461bcd60e51b815260206004820152601560248201527414dd1c985d1959de481b9bdd08185c1c1c9bdd9959605a1b60448201526064016106a2565b6001600160a01b038216600090815260336020526040902054819060ff166121525760405162461bcd60e51b8152602060048201526016602482015275105cdcd95d081a5cc81b9bdd081cdd5c1c1bdc9d195960521b60448201526064016106a2565b60405163551c457b60e11b81526001600160a01b03848116600483015282169063aa388af69060240160206040518083038186803b15801561219357600080fd5b505afa1580156121a7573d6000803e3d6000fd5b505050506040513d601f19601f820116820180604052508101906121cb91906131a1565b6122175760405162461bcd60e51b815260206004820152601f60248201527f4173736574206e6f7420737570706f727465642062792053747261746567790060448201526064016106a2565b505b6001600160a01b03918216600090815260406020819052902080546001600160a01b03191691909216179055565b603f546001600160a01b031633148061226357506122636122bd565b61227f5760405162461bcd60e51b81526004016106a29061330f565b6037805460ff60a01b1916600160a01b1790556040517f8cff26a5985614b3d30629cc4ab83824bf115aec971b718d8f2f99562032e97290600090a1565b60006122d56000805160206134cf8339815191525490565b6001600160a01b0316336001600160a01b031614905090565b603f546001600160a01b031633148061230a575061230a6122bd565b6123265760405162461bcd60e51b81526004016106a29061330f565b60365460005b8181101561085b5760368181548110612347576123476134a9565b60009182526020822001546040805163429c145b60e11b815290516001600160a01b039092169263853828b69260048084019382900301818387803b15801561238f57600080fd5b505af11580156123a3573d6000803e3d6000fd5b50505050806123b19061344c565b905061232c565b6123c06122bd565b6123dc5760405162461bcd60e51b81526004016106a2906132d8565b612404817f44c4d30b2eaad5130ad70c3ba6972730566f3e6359ab83e800d905c61b1c51db55565b806001600160a01b03166124246000805160206134cf8339815191525490565b6001600160a01b03167fa39cc5eb22d0f34d8beaefee8a3f17cc229c1a1d1ef87a5ad47313487b1c4f0d60405160405180910390a350565b6124646122bd565b6124805760405162461bcd60e51b81526004016106a2906132d8565b604580546001600160a01b0319166001600160a01b0383169081179091556040519081527fa12850fb726e0b2b7b3c9a9342031e1268a8148d0eb06b4bea8613204ffcd2b89060200161078a565b6124d66122bd565b6124f25760405162461bcd60e51b81526004016106a2906132d8565b6127118161ffff161061253e5760405162461bcd60e51b8152602060048201526014602482015273496e76616c696420626173697320706f696e747360601b60448201526064016106a2565b6048805461ffff60a01b1916600160a01b61ffff8416908102919091179091556040519081527ff12c00256bee2b6facb111a88a9b1cff86e79132939b44f1353212d6f74695579060200161078a565b6125966122bd565b6125b25760405162461bcd60e51b81526004016106a2906132d8565b6103e881111561260e5760405162461bcd60e51b815260206004820152602160248201527f52656465656d206665652073686f756c64206e6f74206265206f7665722031306044820152602560f81b60648201526084016106a2565b60388190556040518181527fd6c7508d6658ccee36b7b7d7fd72e5cbaeefb40c64eff24e9ae7470e846304ee9060200161078a565b61264b6122bd565b6126675760405162461bcd60e51b81526004016106a2906132d8565b803b6126c15760405162461bcd60e51b8152602060048201526024808201527f6e657720696d706c656d656e746174696f6e206973206e6f74206120636f6e746044820152631c9858dd60e21b60648201526084016106a2565b7fa2bd3d3cf188a41358c8b401076eb59066b09dec5775650c0de4c55187d17bd955565b604080516001600160a01b038416602482015260448082018490528251808303909101815260649091019091526020810180516001600160e01b031663a9059cbb60e01b179052612737908490612cdb565b505050565b6001600160a01b0381166000908152603360205260409020805462010000900460ff1615612768575050565b6000826001600160a01b031663313ce5676040518163ffffffff1660e01b815260040160206040518083038186803b1580156127a357600080fd5b505afa1580156127b7573d6000803e3d6000fd5b505050506040513d601f19601f820116820180604052508101906127db9190613210565b905060068160ff16101580156127f5575060128160ff1611155b6128385760405162461bcd60e51b81526020600482015260146024820152732ab732bc3832b1ba32b210383932b1b4b9b4b7b760611b60448201526064016106a2565b815460ff909116620100000262ff00001990911617905550565b6001600160a01b0381166128a85760405162461bcd60e51b815260206004820152601a60248201527f4e657720476f7665726e6f72206973206164647265737328302900000000000060448201526064016106a2565b806001600160a01b03166128c86000805160206134cf8339815191525490565b6001600160a01b03167fc7c0c772add429241571afb3805861fb3cfa2af374534088b76cdb4325a87e9a60405160405180910390a3610bff816000805160206134cf83398151915255565b6001600160a01b03851660009081526035602052604090205460ff166129715760405162461bcd60e51b8152602060048201526013602482015272496e76616c696420746f20537472617465677960681b60448201526064016106a2565b8281146129bc5760405162461bcd60e51b81526020600482015260196024820152780a0c2e4c2dacae8cae440d8cadccee8d040dad2e6dac2e8c6d603b1b60448201526064016106a2565b8260005b81811015612af55760008686838181106129dc576129dc6134a9565b90506020020160208101906129f19190612fa1565b60405163551c457b60e11b81526001600160a01b0380831660048301529192509089169063aa388af69060240160206040518083038186803b158015612a3657600080fd5b505afa158015612a4a573d6000803e3d6000fd5b505050506040513d601f19601f82011682018060405250810190612a6e91906131a1565b612aae5760405162461bcd60e51b8152602060048201526011602482015270105cdcd95d081d5b9cdd5c1c1bdc9d1959607a1b60448201526064016106a2565b612ae488868685818110612ac457612ac46134a9565b90506020020135836001600160a01b03166126e59092919063ffffffff16565b50612aee8161344c565b90506129c0565b50856001600160a01b031663de5f62686040518163ffffffff1660e01b8152600401600060405180830381600087803b158015612b3157600080fd5b505af1158015612b45573d6000803e3d6000fd5b50505050505050505050565b6001600160a01b03851660009081526035602052604090205460ff16612bb15760405162461bcd60e51b8152602060048201526015602482015274496e76616c69642066726f6d20537472617465677960581b60448201526064016106a2565b828114612bfc5760405162461bcd60e51b81526020600482015260196024820152780a0c2e4c2dacae8cae440d8cadccee8d040dad2e6dac2e8c6d603b1b60448201526064016106a2565b8260005b81811015612cd157866001600160a01b031663d9caed1289888885818110612c2a57612c2a6134a9565b9050602002016020810190612c3f9190612fa1565b878786818110612c5157612c516134a9565b6040516001600160e01b031960e088901b1681526001600160a01b03958616600482015294909316602485015250602090910201356044820152606401600060405180830381600087803b158015612ca857600080fd5b505af1158015612cbc573d6000803e3d6000fd5b5050505080612cca9061344c565b9050612c00565b5050505050505050565b6000612d30826040518060400160405280602081526020017f5361666545524332303a206c6f772d6c6576656c2063616c6c206661696c6564815250856001600160a01b0316612dad9092919063ffffffff16565b8051909150156127375780806020019051810190612d4e91906131a1565b6127375760405162461bcd60e51b815260206004820152602a60248201527f5361666545524332303a204552433230206f7065726174696f6e20646964206e6044820152691bdd081cdd58d8d9595960b21b60648201526084016106a2565b6060612dbc8484600085612dc6565b90505b9392505050565b606082471015612e275760405162461bcd60e51b815260206004820152602660248201527f416464726573733a20696e73756666696369656e742062616c616e636520666f6044820152651c8818d85b1b60d21b60648201526084016106a2565b843b612e755760405162461bcd60e51b815260206004820152601d60248201527f416464726573733a2063616c6c20746f206e6f6e2d636f6e747261637400000060448201526064016106a2565b600080866001600160a01b03168587604051612e91919061322d565b60006040518083038185875af1925050503d8060008114612ece576040519150601f19603f3d011682016040523d82523d6000602084013e612ed3565b606091505b5091509150612ee3828286612eee565b979650505050505050565b60608315612efd575081612dbf565b825115612f0d5782518084602001fd5b8160405162461bcd60e51b81526004016106a291906132a5565b80356001600160a01b0381168114612f3e57600080fd5b919050565b60008083601f840112612f5557600080fd5b50813567ffffffffffffffff811115612f6d57600080fd5b6020830191508360208260051b8501011115612f8857600080fd5b9250929050565b803561ffff81168114612f3e57600080fd5b600060208284031215612fb357600080fd5b612dbf82612f27565b60008060408385031215612fcf57600080fd5b612fd883612f27565b9150612fe660208401612f27565b90509250929050565b60008060008060008060a0878903121561300857600080fd5b61301187612f27565b955061301f60208801612f27565b94506040870135935060608701359250608087013567ffffffffffffffff8082111561304a57600080fd5b818901915089601f83011261305e57600080fd5b81358181111561306d57600080fd5b8a602082850101111561307f57600080fd5b6020830194508093505050509295509295509295565b6000806000806000606086880312156130ad57600080fd5b6130b686612f27565b9450602086013567ffffffffffffffff808211156130d357600080fd5b6130df89838a01612f43565b909650945060408801359150808211156130f857600080fd5b5061310588828901612f43565b969995985093965092949392505050565b6000806040838503121561312957600080fd5b61313283612f27565b9150612fe660208401612f8f565b6000806040838503121561315357600080fd5b61315c83612f27565b946020939093013593505050565b6000806040838503121561317d57600080fd5b61318683612f27565b91506020830135613196816134bf565b809150509250929050565b6000602082840312156131b357600080fd5b81518015158114612dbf57600080fd5b6000602082840312156131d557600080fd5b612dbf82612f8f565b6000602082840312156131f057600080fd5b5035919050565b60006020828403121561320957600080fd5b5051919050565b60006020828403121561322257600080fd5b8151612dbf816134bf565b6000825161323f818460208701613420565b9190910192915050565b6001600160a01b03878116825286166020820152604081018590526060810184905260a06080820181905281018290526000828460c0840137600060c0848401015260c0601f19601f8501168301019050979650505050505050565b60208152600082518060208401526132c4816040850160208701613420565b601f01601f19169190910160400192915050565b6020808252601a908201527f43616c6c6572206973206e6f742074686520476f7665726e6f72000000000000604082015260600190565b60208082526028908201527f43616c6c6572206973206e6f74207468652053747261746567697374206f722060408201526723b7bb32b93737b960c11b606082015260800190565b6020808252600e908201526d1499595b9d1c985b9d0818d85b1b60921b604082015260600190565b600061ffff80831681851680830382111561339c5761339c613467565b01949350505050565b6000826133c257634e487b7160e01b600052601260045260246000fd5b500490565b60008160001904831182151516156133e1576133e1613467565b500290565b600061ffff8381169083168181101561340157613401613467565b039392505050565b60008282101561341b5761341b613467565b500390565b60005b8381101561343b578181015183820152602001613423565b83811115610b5a5750506000910152565b600060001982141561346057613460613467565b5060010190565b634e487b7160e01b600052601160045260246000fd5b634e487b7160e01b600052602160045260246000fd5b634e487b7160e01b600052603160045260246000fd5b634e487b7160e01b600052603260045260246000fd5b60ff81168114610bff57600080fdfe7bea13895fa79d2831e0a9e28edede30099005a50d652d8957cf8a607ee6ca4aa26469706673582212209100561cfa072b721b2ec8c93362fd622cff906251075f2ed664839afab4d3f364736f6c634300080700337bea13895fa79d2831e0a9e28edede30099005a50d652d8957cf8a607ee6ca4a",
  "devdoc": {
    "author": "Origin Protocol Inc",
    "kind": "dev",
    "methods": {
      "allowedSwapUndervalue()": {
        "returns": {
          "value": "Percentage in basis points."
        }
      },
      "approveStrategy(address)": {
        "params": {
          "_addr": "Address of the strategy to add"
        }
      },
      "cacheDecimals(address)": {
        "params": {
          "_asset": "Address of asset token"
        }
      },
      "depositToStrategy(address,address[],uint256[])": {
        "params": {
          "_amounts": "Array of amounts of each corresponding asset to deposit.",
          "_assets": "Array of asset address that will be deposited into the strategy.",
          "_strategyToAddress": "Address of the Strategy to deposit assets into."
        }
      },
      "removeStrategy(address)": {
        "params": {
          "_addr": "Address of the strategy to remove"
        }
      },
      "setAdminImpl(address)": {
        "params": {
          "newImpl": "address of the implementation"
        }
      },
      "setAssetDefaultStrategy(address,address)": {
        "params": {
          "_asset": "Address of the asset",
          "_strategy": "Address of the Strategy"
        }
      },
      "setAutoAllocateThreshold(uint256)": {
        "params": {
          "_threshold": "OToken amount with 18 fixed decimals."
        }
      },
      "setNetOusdMintForStrategyThreshold(uint256)": {
        "params": {
          "_threshold": "OToken amount with 18 fixed decimals."
        }
      },
      "setOracleSlippage(address,uint16)": {
        "params": {
          "_allowedOracleSlippageBps": "allowed slippage from Oracle in basis points. eg 20 = 0.2%. Max 10%.",
          "_asset": "Address of the asset token."
        }
      },
      "setOusdMetaStrategy(address)": {
        "params": {
          "_ousdMetaStrategy": "Address of OToken metapool strategy"
        }
      },
      "setPriceProvider(address)": {
        "params": {
          "_priceProvider": "Address of price provider"
        }
      },
      "setRebaseThreshold(uint256)": {
        "params": {
          "_threshold": "OToken amount with 18 fixed decimals."
        }
      },
      "setRedeemFeeBps(uint256)": {
        "params": {
          "_redeemFeeBps": "Basis point fee to be charged"
        }
      },
      "setStrategistAddr(address)": {
        "params": {
          "_address": "Address of Strategist"
        }
      },
      "setSwapAllowedUndervalue(uint16)": {
        "params": {
          "_basis": "Percentage in basis points. eg 100 == 1%"
        }
      },
      "setSwapper(address)": {
        "params": {
          "_swapperAddr": "Address of the Swapper contract that implements the ISwapper interface."
        }
      },
      "setVaultBuffer(uint256)": {
        "params": {
          "_vaultBuffer": "Percentage using 18 decimals. 100% = 1e18."
        }
      },
      "supportAsset(address,uint8)": {
        "params": {
          "_asset": "Address of asset"
        }
      },
      "swapCollateral(address,address,uint256,uint256,bytes)": {
        "params": {
          "_data": "implementation specific data. eg 1Inch swap data",
          "_fromAsset": "The token address of the asset being sold by the vault.",
          "_fromAssetAmount": "The amount of assets being sold by the vault.",
          "_minToAssetAmount": "The minimum amount of assets to be purchased.",
          "_toAsset": "The token address of the asset being purchased by the vault."
        },
        "returns": {
          "toAssetAmount": "The amount of toAssets that was received from the swap"
        }
      },
      "transferGovernance(address)": {
        "params": {
          "_newGovernor": "Address of the new Governor"
        }
      },
      "transferToken(address,uint256)": {
        "params": {
          "_amount": "Amount of the asset to transfer",
          "_asset": "Address for the asset"
        }
      },
      "withdrawAllFromStrategy(address)": {
        "params": {
          "_strategyAddr": "Strategy address."
        }
      },
      "withdrawFromStrategy(address,address[],uint256[])": {
        "params": {
          "_amounts": "Array of amounts of each corresponding asset to withdraw.",
          "_assets": "Array of asset address that will be withdrawn from the strategy.",
          "_strategyFromAddress": "Address of the Strategy to withdraw assets from."
        }
      }
    },
    "title": "OETH VaultAdmin Contract",
    "version": 1
  },
  "userdoc": {
    "kind": "user",
    "methods": {
      "allowedSwapUndervalue()": {
        "notice": "Max allowed percentage the vault total value can drop below the OToken total supply in basis points when executing a collateral swap. For example 100 == 1%"
      },
      "approveStrategy(address)": {
        "notice": "Add a strategy to the Vault."
      },
      "assetDefaultStrategies(address)": {
        "notice": "Mapping of asset address to the Strategy that they should automatically"
      },
      "autoAllocateThreshold()": {
        "notice": "OToken mints over this amount automatically allocate funds. 18 decimals."
      },
      "cacheDecimals(address)": {
        "notice": "Cache decimals on OracleRouter for a particular asset. This action      is required before that asset's price can be accessed."
      },
      "capitalPaused()": {
        "notice": "pause operations that change the OToken supply. eg mint, redeem, allocate, mint/burn for strategy"
      },
      "claimGovernance()": {
        "notice": "Claim Governance of the contract to a new account (`newGovernor`). Can only be called by the new Governor."
      },
      "depositToStrategy(address,address[],uint256[])": {
        "notice": "Deposit multiple assets from the vault into the strategy."
      },
      "governor()": {
        "notice": "Returns the address of the current Governor."
      },
      "isGovernor()": {
        "notice": "Returns true if the caller is the current Governor."
      },
      "maxSupplyDiff()": {
        "notice": "Max difference between total supply and total value of assets. 18 decimals."
      },
      "netOusdMintForStrategyThreshold()": {
        "notice": "How much net total OTokens are allowed to be minted by all strategies"
      },
      "netOusdMintedForStrategy()": {
        "notice": "How much OTokens are currently minted by the strategy"
      },
      "ousdMetaStrategy()": {
        "notice": "Metapool strategy that is allowed to mint/burn OTokens without changing collateral"
      },
      "pauseCapital()": {
        "notice": "Set the deposit paused flag to true to prevent capital movement."
      },
      "pauseRebase()": {
        "notice": "Set the deposit paused flag to true to prevent rebasing."
      },
      "priceProvider()": {
        "notice": "Address of the Oracle price provider contract"
      },
      "rebasePaused()": {
        "notice": "pause rebasing if true"
      },
      "rebaseThreshold()": {
        "notice": "OToken mints over this amount automatically rebase. 18 decimals."
      },
      "redeemFeeBps()": {
        "notice": "Redemption fee in basis points. eg 50 = 0.5%"
      },
      "removeStrategy(address)": {
        "notice": "Remove a strategy from the Vault."
      },
      "setAdminImpl(address)": {
        "notice": "set the implementation for the admin, this needs to be in a base class else we cannot set it"
      },
      "setAssetDefaultStrategy(address,address)": {
        "notice": "Set the default Strategy for an asset, i.e. the one which the asset will be automatically allocated to and withdrawn from"
      },
      "setAutoAllocateThreshold(uint256)": {
        "notice": "Sets the minimum amount of OTokens in a mint to trigger an automatic allocation of funds afterwords."
      },
      "setMaxSupplyDiff(uint256)": {
        "notice": "Sets the maximum allowable difference between total supply and backing assets' value."
      },
      "setNetOusdMintForStrategyThreshold(uint256)": {
        "notice": "Set maximum amount of OTokens that can at any point be minted and deployed to strategy (used only by ConvexOUSDMetaStrategy for now)."
      },
      "setOracleSlippage(address,uint16)": {
        "notice": "Set the allowed slippage from the Oracle price for collateral asset swaps."
      },
      "setOusdMetaStrategy(address)": {
        "notice": "Set OToken Metapool strategy"
      },
      "setPriceProvider(address)": {
        "notice": "Set address of price provider."
      },
      "setRebaseThreshold(uint256)": {
        "notice": "Set a minimum amount of OTokens in a mint or redeem that triggers a rebase"
      },
      "setRedeemFeeBps(uint256)": {
        "notice": "Set a fee in basis points to be charged for a redeem."
      },
      "setStrategistAddr(address)": {
        "notice": "Set address of Strategist"
      },
      "setSwapAllowedUndervalue(uint16)": {
        "notice": "Set max allowed percentage the vault total value can drop below the OToken total supply in basis points when executing collateral swaps."
      },
      "setSwapper(address)": {
        "notice": "Set the contract the performs swaps of collateral assets."
      },
      "setTrusteeAddress(address)": {
        "notice": "Sets the trusteeAddress that can receive a portion of yield.      Setting to the zero address disables this feature."
      },
      "setTrusteeFeeBps(uint256)": {
        "notice": "Sets the TrusteeFeeBps to the percentage of yield that should be      received in basis points."
      },
      "setVaultBuffer(uint256)": {
        "notice": "Set a buffer of assets to keep in the Vault to handle most redemptions without needing to spend gas unwinding assets from a Strategy."
      },
      "strategistAddr()": {
        "notice": "Address of the Strategist"
      },
      "supportAsset(address,uint8)": {
        "notice": "Add a supported asset to the contract, i.e. one that can be         to mint OTokens."
      },
      "swapCollateral(address,address,uint256,uint256,bytes)": {
        "notice": "Strategist swaps collateral assets sitting in the vault."
      },
      "swapper()": {
        "notice": "Contract that swaps the vault's collateral assets"
      },
      "transferGovernance(address)": {
        "notice": "Transfers Governance of the contract to a new account (`newGovernor`). Can only be called by the current Governor. Must be claimed for this to complete"
      },
      "transferToken(address,uint256)": {
        "notice": "Transfer token to governor. Intended for recovering tokens stuck in      contract, i.e. mistaken sends."
      },
      "trusteeAddress()": {
        "notice": "Trustee contract that can collect a percentage of yield"
      },
      "trusteeFeeBps()": {
        "notice": "Amount of yield collected in basis points. eg 2000 = 20%"
      },
      "unpauseCapital()": {
        "notice": "Set the deposit paused flag to false to enable capital movement."
      },
      "unpauseRebase()": {
        "notice": "Set the deposit paused flag to true to allow rebasing."
      },
      "vaultBuffer()": {
        "notice": "Percentage of assets to keep in Vault to handle (most) withdrawals. 100% = 1e18."
      },
      "withdrawAllFromStrategies()": {
        "notice": "Withdraws all assets from all the strategies and sends assets to the Vault."
      },
      "withdrawAllFromStrategy(address)": {
        "notice": "Withdraws all assets from the strategy and sends assets to the Vault."
      },
      "withdrawFromStrategy(address,address[],uint256[])": {
        "notice": "Withdraw multiple assets from the strategy to the vault."
      }
    },
    "version": 1
  },
  "storageLayout": {
    "storage": [
      {
        "astId": 28178,
        "contract": "contracts/vault/OETHVaultAdmin.sol:OETHVaultAdmin",
        "label": "initialized",
        "offset": 0,
        "slot": "0",
        "type": "t_bool"
      },
      {
        "astId": 28181,
        "contract": "contracts/vault/OETHVaultAdmin.sol:OETHVaultAdmin",
        "label": "initializing",
        "offset": 1,
        "slot": "0",
        "type": "t_bool"
      },
      {
        "astId": 28221,
        "contract": "contracts/vault/OETHVaultAdmin.sol:OETHVaultAdmin",
        "label": "______gap",
        "offset": 0,
        "slot": "1",
        "type": "t_array(t_uint256)50_storage"
      },
      {
        "astId": 32478,
        "contract": "contracts/vault/OETHVaultAdmin.sol:OETHVaultAdmin",
        "label": "assets",
        "offset": 0,
        "slot": "51",
        "type": "t_mapping(t_address,t_struct(Asset)32472_storage)"
      },
      {
        "astId": 32482,
        "contract": "contracts/vault/OETHVaultAdmin.sol:OETHVaultAdmin",
        "label": "allAssets",
        "offset": 0,
        "slot": "52",
        "type": "t_array(t_address)dyn_storage"
      },
      {
        "astId": 32493,
        "contract": "contracts/vault/OETHVaultAdmin.sol:OETHVaultAdmin",
        "label": "strategies",
        "offset": 0,
        "slot": "53",
        "type": "t_mapping(t_address,t_struct(Strategy)32487_storage)"
      },
      {
        "astId": 32497,
        "contract": "contracts/vault/OETHVaultAdmin.sol:OETHVaultAdmin",
        "label": "allStrategies",
        "offset": 0,
        "slot": "54",
        "type": "t_array(t_address)dyn_storage"
      },
      {
        "astId": 32500,
        "contract": "contracts/vault/OETHVaultAdmin.sol:OETHVaultAdmin",
        "label": "priceProvider",
        "offset": 0,
        "slot": "55",
        "type": "t_address"
      },
      {
        "astId": 32504,
        "contract": "contracts/vault/OETHVaultAdmin.sol:OETHVaultAdmin",
        "label": "rebasePaused",
        "offset": 20,
        "slot": "55",
        "type": "t_bool"
      },
      {
        "astId": 32508,
        "contract": "contracts/vault/OETHVaultAdmin.sol:OETHVaultAdmin",
        "label": "capitalPaused",
        "offset": 21,
        "slot": "55",
        "type": "t_bool"
      },
      {
        "astId": 32511,
        "contract": "contracts/vault/OETHVaultAdmin.sol:OETHVaultAdmin",
        "label": "redeemFeeBps",
        "offset": 0,
        "slot": "56",
        "type": "t_uint256"
      },
      {
        "astId": 32514,
        "contract": "contracts/vault/OETHVaultAdmin.sol:OETHVaultAdmin",
        "label": "vaultBuffer",
        "offset": 0,
        "slot": "57",
        "type": "t_uint256"
      },
      {
        "astId": 32517,
        "contract": "contracts/vault/OETHVaultAdmin.sol:OETHVaultAdmin",
        "label": "autoAllocateThreshold",
        "offset": 0,
        "slot": "58",
        "type": "t_uint256"
      },
      {
        "astId": 32520,
        "contract": "contracts/vault/OETHVaultAdmin.sol:OETHVaultAdmin",
        "label": "rebaseThreshold",
        "offset": 0,
        "slot": "59",
        "type": "t_uint256"
      },
      {
        "astId": 32524,
        "contract": "contracts/vault/OETHVaultAdmin.sol:OETHVaultAdmin",
        "label": "oUSD",
        "offset": 0,
        "slot": "60",
        "type": "t_contract(OUSD)27579"
      },
      {
        "astId": 32533,
        "contract": "contracts/vault/OETHVaultAdmin.sol:OETHVaultAdmin",
        "label": "_deprecated_rebaseHooksAddr",
        "offset": 0,
        "slot": "61",
        "type": "t_address"
      },
      {
        "astId": 32539,
        "contract": "contracts/vault/OETHVaultAdmin.sol:OETHVaultAdmin",
        "label": "_deprecated_uniswapAddr",
        "offset": 0,
        "slot": "62",
        "type": "t_address"
      },
      {
        "astId": 32546,
        "contract": "contracts/vault/OETHVaultAdmin.sol:OETHVaultAdmin",
        "label": "strategistAddr",
        "offset": 0,
        "slot": "63",
        "type": "t_address"
      },
      {
        "astId": 32551,
        "contract": "contracts/vault/OETHVaultAdmin.sol:OETHVaultAdmin",
        "label": "assetDefaultStrategies",
        "offset": 0,
        "slot": "64",
        "type": "t_mapping(t_address,t_address)"
      },
      {
        "astId": 32554,
        "contract": "contracts/vault/OETHVaultAdmin.sol:OETHVaultAdmin",
        "label": "maxSupplyDiff",
        "offset": 0,
        "slot": "65",
        "type": "t_uint256"
      },
      {
        "astId": 32557,
        "contract": "contracts/vault/OETHVaultAdmin.sol:OETHVaultAdmin",
        "label": "trusteeAddress",
        "offset": 0,
        "slot": "66",
        "type": "t_address"
      },
      {
        "astId": 32560,
        "contract": "contracts/vault/OETHVaultAdmin.sol:OETHVaultAdmin",
        "label": "trusteeFeeBps",
        "offset": 0,
        "slot": "67",
        "type": "t_uint256"
      },
      {
        "astId": 32564,
        "contract": "contracts/vault/OETHVaultAdmin.sol:OETHVaultAdmin",
        "label": "_deprecated_swapTokens",
        "offset": 0,
        "slot": "68",
        "type": "t_array(t_address)dyn_storage"
      },
      {
        "astId": 32574,
        "contract": "contracts/vault/OETHVaultAdmin.sol:OETHVaultAdmin",
        "label": "ousdMetaStrategy",
        "offset": 0,
        "slot": "69",
        "type": "t_address"
      },
      {
        "astId": 32578,
        "contract": "contracts/vault/OETHVaultAdmin.sol:OETHVaultAdmin",
        "label": "netOusdMintedForStrategy",
        "offset": 0,
        "slot": "70",
        "type": "t_int256"
      },
      {
        "astId": 32582,
        "contract": "contracts/vault/OETHVaultAdmin.sol:OETHVaultAdmin",
        "label": "netOusdMintForStrategyThreshold",
        "offset": 0,
        "slot": "71",
        "type": "t_uint256"
      },
      {
        "astId": 32603,
        "contract": "contracts/vault/OETHVaultAdmin.sol:OETHVaultAdmin",
        "label": "swapConfig",
        "offset": 0,
        "slot": "72",
        "type": "t_struct(SwapConfig)32593_storage"
      }
    ],
    "types": {
      "t_address": {
        "encoding": "inplace",
        "label": "address",
        "numberOfBytes": "20"
      },
      "t_array(t_address)dyn_storage": {
        "base": "t_address",
        "encoding": "dynamic_array",
        "label": "address[]",
        "numberOfBytes": "32"
      },
      "t_array(t_uint256)50_storage": {
        "base": "t_uint256",
        "encoding": "inplace",
        "label": "uint256[50]",
        "numberOfBytes": "1600"
      },
      "t_bool": {
        "encoding": "inplace",
        "label": "bool",
        "numberOfBytes": "1"
      },
      "t_contract(OUSD)27579": {
        "encoding": "inplace",
        "label": "contract OUSD",
        "numberOfBytes": "20"
      },
      "t_enum(UnitConversion)32462": {
        "encoding": "inplace",
        "label": "enum VaultStorage.UnitConversion",
        "numberOfBytes": "1"
      },
      "t_int256": {
        "encoding": "inplace",
        "label": "int256",
        "numberOfBytes": "32"
      },
      "t_mapping(t_address,t_address)": {
        "encoding": "mapping",
        "key": "t_address",
        "label": "mapping(address => address)",
        "numberOfBytes": "32",
        "value": "t_address"
      },
      "t_mapping(t_address,t_struct(Asset)32472_storage)": {
        "encoding": "mapping",
        "key": "t_address",
        "label": "mapping(address => struct VaultStorage.Asset)",
        "numberOfBytes": "32",
        "value": "t_struct(Asset)32472_storage"
      },
      "t_mapping(t_address,t_struct(Strategy)32487_storage)": {
        "encoding": "mapping",
        "key": "t_address",
        "label": "mapping(address => struct VaultStorage.Strategy)",
        "numberOfBytes": "32",
        "value": "t_struct(Strategy)32487_storage"
      },
      "t_struct(Asset)32472_storage": {
        "encoding": "inplace",
        "label": "struct VaultStorage.Asset",
        "members": [
          {
            "astId": 32464,
            "contract": "contracts/vault/OETHVaultAdmin.sol:OETHVaultAdmin",
            "label": "isSupported",
            "offset": 0,
            "slot": "0",
            "type": "t_bool"
          },
          {
            "astId": 32467,
            "contract": "contracts/vault/OETHVaultAdmin.sol:OETHVaultAdmin",
            "label": "unitConversion",
            "offset": 1,
            "slot": "0",
            "type": "t_enum(UnitConversion)32462"
          },
          {
            "astId": 32469,
            "contract": "contracts/vault/OETHVaultAdmin.sol:OETHVaultAdmin",
            "label": "decimals",
            "offset": 2,
            "slot": "0",
            "type": "t_uint8"
          },
          {
            "astId": 32471,
            "contract": "contracts/vault/OETHVaultAdmin.sol:OETHVaultAdmin",
            "label": "allowedOracleSlippageBps",
            "offset": 3,
            "slot": "0",
            "type": "t_uint16"
          }
        ],
        "numberOfBytes": "32"
      },
      "t_struct(Strategy)32487_storage": {
        "encoding": "inplace",
        "label": "struct VaultStorage.Strategy",
        "members": [
          {
            "astId": 32484,
            "contract": "contracts/vault/OETHVaultAdmin.sol:OETHVaultAdmin",
            "label": "isSupported",
            "offset": 0,
            "slot": "0",
            "type": "t_bool"
          },
          {
            "astId": 32486,
            "contract": "contracts/vault/OETHVaultAdmin.sol:OETHVaultAdmin",
            "label": "_deprecated",
            "offset": 0,
            "slot": "1",
            "type": "t_uint256"
          }
        ],
        "numberOfBytes": "64"
      },
      "t_struct(SwapConfig)32593_storage": {
        "encoding": "inplace",
        "label": "struct VaultStorage.SwapConfig",
        "members": [
          {
            "astId": 32590,
            "contract": "contracts/vault/OETHVaultAdmin.sol:OETHVaultAdmin",
            "label": "swapper",
            "offset": 0,
            "slot": "0",
            "type": "t_address"
          },
          {
            "astId": 32592,
            "contract": "contracts/vault/OETHVaultAdmin.sol:OETHVaultAdmin",
            "label": "allowedUndervalueBps",
            "offset": 20,
            "slot": "0",
            "type": "t_uint16"
          }
        ],
        "numberOfBytes": "32"
      },
      "t_uint16": {
        "encoding": "inplace",
        "label": "uint16",
        "numberOfBytes": "2"
      },
      "t_uint256": {
        "encoding": "inplace",
        "label": "uint256",
        "numberOfBytes": "32"
      },
      "t_uint8": {
        "encoding": "inplace",
        "label": "uint8",
        "numberOfBytes": "1"
      }
    }
  }
}