{
  "address": "0x60fF8354e9C0E78e032B7daeA8da2c3265287dBd",
  "abi": [
    {
      "inputs": [
        {
          "internalType": "address",
          "name": "_asset",
          "type": "address"
        }
      ],
      "name": "cacheDecimals",
      "outputs": [
        {
          "internalType": "uint8",
          "name": "",
          "type": "uint8"
        }
      ],
      "stateMutability": "nonpayable",
      "type": "function"
    },
    {
      "inputs": [
        {
          "internalType": "address",
          "name": "asset",
          "type": "address"
        }
      ],
      "name": "price",
      "outputs": [
        {
          "internalType": "uint256",
          "name": "",
          "type": "uint256"
        }
      ],
      "stateMutability": "view",
      "type": "function"
    }
  ],
  "transactionHash": "0xed2bfca895dd88b4fbbccccb67da585625d20db37aa9539d09285bc6d5f58c5e",
  "args": [],
  "solcInputHash": "8564b351f4bb5da3f43a5b9c5739eec4",
  "bytecode": "0x608060405234801561001057600080fd5b50610911806100206000396000f3fe608060405234801561001057600080fd5b50600436106100365760003560e01c806336b6d9441461003b578063aea9107814610065575b600080fd5b61004e6100493660046106b9565b610086565b60405160ff90911681526020015b60405180910390f35b6100786100733660046106b9565b6101bf565b60405190815260200161005c565b600080610092836102b6565b90506001600160a01b0381166100c35760405162461bcd60e51b81526004016100ba90610755565b60405180910390fd5b6001600160a01b0381166001141561011d5760405162461bcd60e51b815260206004820152601f60248201527f4669786564207072696365206665656473206e6f7420737570706f727465640060448201526064016100ba565b6000816001600160a01b031663313ce5676040518163ffffffff1660e01b815260040160206040518083038186803b15801561015857600080fd5b505afa15801561016c573d6000803e3d6000fd5b505050506040513d601f19601f820116820180604052508101906101909190610732565b6001600160a01b03949094166000908152602081905260409020805460ff191660ff8616179055509192915050565b6000806101cb836102b6565b90506001600160a01b038116600114156101ef5750670de0b6b3a764000092915050565b6001600160a01b0381166102155760405162461bcd60e51b81526004016100ba90610755565b6000816001600160a01b031663feaf968c6040518163ffffffff1660e01b815260040160a06040518083038186803b15801561025057600080fd5b505afa158015610264573d6000803e3d6000fd5b505050506040513d601f19601f8201168201806040525081019061028891906106e2565b5050509150506000610299856105af565b905060006102ac83601260ff851661061e565b9695505050505050565b6000736b175474e89094c44da98b954eedeac495271d0f6001600160a01b03831614156102f8575073aed0c38402a5d19df6e4c03f4e2dced6e29c1ee9919050565b73a0b86991c6218b36c1d19d4a2e9eb0ce3606eb486001600160a01b03831614156103385750738fffffd4afb6115b954bd326cbe7b4ba576818f6919050565b73dac17f958d2ee523a2206206994597c13d831ec76001600160a01b03831614156103785750733e7d1eab13ad0104d2750b8863b489d65364e32d919050565b73c00e94cb662c3520282e6f5717214004a7f268886001600160a01b03831614156103b8575073dbd020caef83efd542f4de03e3cf0c28a4428bd5919050565b737fc66500c84a76ad7e9c93437bfc5ac33e2ddae96001600160a01b03831614156103f8575073547a514d5e3769680ce22b2361c10ea13619e8a9919050565b73d533a949740bb3306d119cc777fa900ba034cd526001600160a01b0383161415610438575073cd627aa160a6fa45eb793d19ef54f5062f20f33f919050565b734e3fbd56cd56c3e72c1403e103b45db9da5b9d2b6001600160a01b0383161415610478575073d962fc30a72a84ce50161031391756bf2876af5d919050565b73ae78736cd615f374d3085123a210448e74fc63936001600160a01b03831614156104b8575073536218f9e9eb48863970252233c8f271f554c2d0919050565b73be9895146f7af43049ca1c1ae358b0541ea497046001600160a01b03831614156104f8575073f017fcb346a1885194689ba23eff2fe6fa5c483b919050565b73ae7ab96520de3a18e5e111b5eaab095312d7fe846001600160a01b038316141561053857507386392dc19c0b719886221c78ab11eb8cf5c52812919050565b735e8422345238f34275888049021821e8e08caa1f6001600160a01b038316141561056557506001919050565b73c02aaa39b223fe8d0a0e5c4f27ead9083c756cc26001600160a01b038316141561059257506001919050565b60405162461bcd60e51b81526004016100ba90610755565b919050565b6001600160a01b03811660009081526020819052604081205460ff16806106185760405162461bcd60e51b815260206004820152601b60248201527f4f7261636c653a20446563696d616c73206e6f7420636163686564000000000060448201526064016100ba565b92915050565b60008183111561064e5761064761063583856108ae565b61064090600a6107e7565b8590610680565b9350610678565b818310156106785761067561066384846108ae565b61066e90600a6107e7565b8590610693565b93505b509192915050565b600061068c828461088f565b9392505050565b600061068c8284610782565b805169ffffffffffffffffffff811681146105aa57600080fd5b6000602082840312156106cb57600080fd5b81356001600160a01b038116811461068c57600080fd5b600080600080600060a086880312156106fa57600080fd5b6107038661069f565b94506020860151935060408601519250606086015191506107266080870161069f565b90509295509295909350565b60006020828403121561074457600080fd5b815160ff8116811461068c57600080fd5b6020808252601390820152724173736574206e6f7420617661696c61626c6560681b604082015260600190565b60008261079f57634e487b7160e01b600052601260045260246000fd5b500490565b600181815b808511156107df5781600019048211156107c5576107c56108c5565b808516156107d257918102915b93841c93908002906107a9565b509250929050565b600061068c83836000826107fd57506001610618565b8161080a57506000610618565b8160018114610820576002811461082a57610846565b6001915050610618565b60ff84111561083b5761083b6108c5565b50506001821b610618565b5060208310610133831016604e8410600b8410161715610869575081810a610618565b61087383836107a4565b8060001904821115610887576108876108c5565b029392505050565b60008160001904831182151516156108a9576108a96108c5565b500290565b6000828210156108c0576108c06108c5565b500390565b634e487b7160e01b600052601160045260246000fdfea2646970667358221220b64106ef00c8120059c28fb362a0c371b5b25b469310cc543062492457705b6a64736f6c63430008070033",
  "devdoc": {
    "kind": "dev",
    "methods": {
      "price(address)": {
        "params": {
          "asset": "address of the asset"
        },
        "returns": {
          "_0": "uint256 unit price for 1 asset unit, in 18 decimal fixed"
        }
      }
    },
    "version": 1
  },
  "userdoc": {
    "kind": "user",
    "methods": {
      "price(address)": {
        "notice": "Returns the total price in 18 digit units for a given asset.         This implementation does not (!) do range checks as the         parent OracleRouter does."
      }
    },
    "version": 1
  },
  "storageLayout": {
    "storage": [
      {
        "astId": 14118,
        "contract": "contracts/oracle/OracleRouter.sol:OETHOracleRouter",
        "label": "decimalsCache",
        "offset": 0,
        "slot": "0",
        "type": "t_mapping(t_address,t_uint8)"
      }
    ],
    "types": {
      "t_address": {
        "encoding": "inplace",
        "label": "address",
        "numberOfBytes": "20"
      },
      "t_mapping(t_address,t_uint8)": {
        "encoding": "mapping",
        "key": "t_address",
        "label": "mapping(address => uint8)",
        "numberOfBytes": "32",
        "value": "t_uint8"
      },
      "t_uint8": {
        "encoding": "inplace",
        "label": "uint8",
        "numberOfBytes": "1"
      }
    }
  }
}