{
  "address": "0x7533365d1b0D95380bc4e94D0bdEF5173E43f954",
  "abi": [
    {
      "inputs": [
        {
          "internalType": "address",
          "name": "asset",
          "type": "address"
        }
      ],
      "name": "price",
      "outputs": [
        {
          "internalType": "uint256",
          "name": "",
          "type": "uint256"
        }
      ],
      "stateMutability": "view",
      "type": "function"
    }
  ],
  "transactionHash": "0xa2e02095acbd917cdf665e1dc221f21a575327b55a7b5934c8351fd4ac1b85db",
  "args": [],
  "solcInputHash": "0d2296c1822a9318e7d4eca895a31e55",
  "bytecode": "0x608060405234801561001057600080fd5b50610722806100206000396000f3fe608060405234801561001057600080fd5b506004361061002b5760003560e01c8063aea9107814610030575b600080fd5b61004361003e366004610564565b610055565b60405190815260200160405180910390f35b600080610061836101f0565b90506001600160a01b0381166100b45760405162461bcd60e51b81526020600482015260136024820152724173736574206e6f7420617661696c61626c6560681b60448201526064015b60405180910390fd5b6000816001600160a01b031663feaf968c6040518163ffffffff1660e01b815260040160a06040518083038186803b1580156100ef57600080fd5b505afa158015610103573d6000803e3d6000fd5b505050506040513d601f19601f82011682018060405250810190610127919061063a565b505050915050600081905061013b856103f5565b156101e8576307bfa4808111156101945760405162461bcd60e51b815260206004820152601960248201527f4f7261636c653a2050726963652065786365656473206d61780000000000000060448201526064016100ab565b63042c1d808110156101e85760405162461bcd60e51b815260206004820152601760248201527f4f7261636c653a20507269636520756e646572206d696e00000000000000000060448201526064016100ab565b949350505050565b60006001600160a01b038216736b175474e89094c44da98b954eedeac495271d0f1415610232575073aed0c38402a5d19df6e4c03f4e2dced6e29c1ee9919050565b6001600160a01b03821673a0b86991c6218b36c1d19d4a2e9eb0ce3606eb4814156102725750738fffffd4afb6115b954bd326cbe7b4ba576818f6919050565b6001600160a01b03821673dac17f958d2ee523a2206206994597c13d831ec714156102b25750733e7d1eab13ad0104d2750b8863b489d65364e32d919050565b6001600160a01b03821673c00e94cb662c3520282e6f5717214004a7f2688814156102f2575073dbd020caef83efd542f4de03e3cf0c28a4428bd5919050565b6001600160a01b038216737fc66500c84a76ad7e9c93437bfc5ac33e2ddae91415610332575073547a514d5e3769680ce22b2361c10ea13619e8a9919050565b6001600160a01b03821673d533a949740bb3306d119cc777fa900ba034cd521415610372575073cd627aa160a6fa45eb793d19ef54f5062f20f33f919050565b6001600160a01b038216734e3fbd56cd56c3e72c1403e103b45db9da5b9d2b14156103b2575073d962fc30a72a84ce50161031391756bf2876af5d919050565b60405162461bcd60e51b81526020600482015260136024820152724173736574206e6f7420617661696c61626c6560681b60448201526064016100ab565b919050565b600080610401836104ca565b9050600081604051602001610416919061068a565b604051602081830303815290604052805190602001209050604051602001610447906244414960e81b815260030190565b604051602081830303815290604052805190602001208114806104915750604051635553444360e01b60208201526024016040516020818303038152906040528051906020012081145b806101e85750604051631554d11560e21b6020820152602401604051602081830303815290604052805190602001208114949350505050565b60606000826001600160a01b03166395d89b416040518163ffffffff1660e01b815260040160006040518083038186803b15801561050757600080fd5b505afa15801561051b573d6000803e3d6000fd5b505050506040513d6000823e601f3d908101601f19168201604052610543919081019061058d565b9392505050565b805169ffffffffffffffffffff811681146103f057600080fd5b60006020828403121561057657600080fd5b81356001600160a01b038116811461054357600080fd5b60006020828403121561059f57600080fd5b815167ffffffffffffffff808211156105b757600080fd5b818401915084601f8301126105cb57600080fd5b8151818111156105dd576105dd6106d6565b604051601f8201601f19908116603f01168101908382118183101715610605576106056106d6565b8160405282815287602084870101111561061e57600080fd5b61062f8360208301602088016106a6565b979650505050505050565b600080600080600060a0868803121561065257600080fd5b61065b8661054a565b945060208601519350604086015192506060860151915061067e6080870161054a565b90509295509295909350565b6000825161069c8184602087016106a6565b9190910192915050565b60005b838110156106c15781810151838201526020016106a9565b838111156106d0576000848401525b50505050565b634e487b7160e01b600052604160045260246000fdfea264697066735822122081fa43a728c1e700e98a3a1986ba2909fab4d821a5f1db068f02912cda09859564736f6c63430008070033",
  "devdoc": {
    "kind": "dev",
    "methods": {
      "price(address)": {
        "params": {
          "asset": "address of the asset"
        },
        "returns": {
          "_0": "uint256 USD price of 1 of the asset, in 8 decimal fixed"
        }
      }
    },
    "version": 1
  },
  "userdoc": {
    "kind": "user",
    "methods": {
      "price(address)": {
        "notice": "Returns the total price in 8 digit USD for a given asset."
      }
    },
    "version": 1
  },
  "storageLayout": {
    "storage": [],
    "types": null
  }
}