{
  "address": "0xe7fD05515A51509Ca373a42E81ae63A40AA4384b",
  "abi": [
    {
      "inputs": [
        {
          "internalType": "address",
          "name": "asset",
          "type": "address"
        }
      ],
      "name": "cacheDecimals",
      "outputs": [
        {
          "internalType": "uint8",
          "name": "",
          "type": "uint8"
        }
      ],
      "stateMutability": "nonpayable",
      "type": "function"
    },
    {
      "inputs": [
        {
          "internalType": "address",
          "name": "asset",
          "type": "address"
        }
      ],
      "name": "price",
      "outputs": [
        {
          "internalType": "uint256",
          "name": "",
          "type": "uint256"
        }
      ],
      "stateMutability": "view",
      "type": "function"
    }
  ],
  "transactionHash": "0x7e585cf23faf97c868709374e84a75fe84c06a3c75cd2aba8f2a5c0992bb4db4",
  "args": [],
  "numDeployments": 2,
  "solcInputHash": "4b50676bca9e9a4e842de1d53a0040b0",
  "bytecode": "0x608060405234801561001057600080fd5b50610c61806100206000396000f3fe608060405234801561001057600080fd5b50600436106100365760003560e01c806336b6d9441461003b578063aea9107814610065575b600080fd5b61004e6100493660046108ed565b610086565b60405160ff90911681526020015b60405180910390f35b6100786100733660046108ed565b6101bf565b60405190815260200161005c565b60008061009283610412565b5090506001600160a01b0381166100c45760405162461bcd60e51b81526004016100bb90610a47565b60405180910390fd5b6001600160a01b0381166001141561011e5760405162461bcd60e51b815260206004820152601f60248201527f4669786564207072696365206665656473206e6f7420737570706f727465640060448201526064016100bb565b6000816001600160a01b031663313ce5676040518163ffffffff1660e01b815260040160206040518083038186803b15801561015957600080fd5b505afa15801561016d573d6000803e3d6000fd5b505050506040513d601f19601f820116820180604052508101906101919190610a08565b6001600160a01b03929092166000908152602081905260409020805460ff191660ff84161790555092915050565b60008060006101cd84610412565b90925090506001600160a01b0382166101f85760405162461bcd60e51b81526004016100bb90610a47565b6001600160a01b038216600114156102525760405162461bcd60e51b815260206004820152601f60248201527f4669786564207072696365206665656473206e6f7420737570706f727465640060448201526064016100bb565b600080836001600160a01b031663feaf968c6040518163ffffffff1660e01b815260040160a06040518083038186803b15801561028e57600080fd5b505afa1580156102a2573d6000803e3d6000fd5b505050506040513d601f19601f820116820180604052508101906102c691906109b8565b509350509250504283826102da9190610a74565b101561031f5760405162461bcd60e51b815260206004820152601460248201527313dc9858db19481c1c9a58d9481d1bdbc81bdb1960621b60448201526064016100bb565b600061032a85610639565b9050600061034760128360ff16610340876106a8565b91906106fe565b905061035288610760565b156104075767120a871cc00200008111156103af5760405162461bcd60e51b815260206004820152601960248201527f4f7261636c653a2050726963652065786365656473206d61780000000000000060448201526064016100bb565b6709b6e64a8ec600008110156104075760405162461bcd60e51b815260206004820152601760248201527f4f7261636c653a20507269636520756e646572206d696e00000000000000000060448201526064016100bb565b979650505050505050565b600080736b175474e89094c44da98b954eedeac495271d0f6001600160a01b03841614156104675773aed0c38402a5d19df6e4c03f4e2dced6e29c1ee9915061046062015180610e10610a74565b9050915091565b73a0b86991c6218b36c1d19d4a2e9eb0ce3606eb486001600160a01b03841614156104b057738fffffd4afb6115b954bd326cbe7b4ba576818f691506104606201518080610a74565b73dac17f958d2ee523a2206206994597c13d831ec76001600160a01b03841614156104f957733e7d1eab13ad0104d2750b8863b489d65364e32d91506104606201518080610a74565b73c00e94cb662c3520282e6f5717214004a7f268886001600160a01b03841614156105445773dbd020caef83efd542f4de03e3cf0c28a4428bd5915061046062015180610e10610a74565b737fc66500c84a76ad7e9c93437bfc5ac33e2ddae96001600160a01b038416141561058f5773547a514d5e3769680ce22b2361c10ea13619e8a9915061046062015180610e10610a74565b73d533a949740bb3306d119cc777fa900ba034cd526001600160a01b03841614156105d85773cd627aa160a6fa45eb793d19ef54f5062f20f33f91506104606201518080610a74565b734e3fbd56cd56c3e72c1403e103b45db9da5b9d2b6001600160a01b03841614156106215773d962fc30a72a84ce50161031391756bf2876af5d91506104606201518080610a74565b60405162461bcd60e51b81526004016100bb90610a47565b6001600160a01b03811660009081526020819052604081205460ff16806106a25760405162461bcd60e51b815260206004820152601b60248201527f4f7261636c653a20446563696d616c73206e6f7420636163686564000000000060448201526064016100bb565b92915050565b6000808212156106fa5760405162461bcd60e51b815260206004820181905260248201527f53616665436173743a2076616c7565206d75737420626520706f73697469766560448201526064016100bb565b5090565b60008183111561072e576107276107158385610bb8565b61072090600a610af1565b8590610836565b9350610758565b81831015610758576107556107438484610bb8565b61074e90600a610af1565b8590610849565b93505b509192915050565b60008061076c83610855565b90506000816040516020016107819190610a2b565b6040516020818303038152906040528051906020012090506040516020016107b2906244414960e81b815260030190565b604051602081830303815290604052805190602001208114806107fc5750604051635553444360e01b60208201526024016040516020818303038152906040528051906020012081145b8061082e5750604051631554d11560e21b60208201526024016040516020818303038152906040528051906020012081145b949350505050565b60006108428284610b99565b9392505050565b60006108428284610a8c565b60606000826001600160a01b03166395d89b416040518163ffffffff1660e01b815260040160006040518083038186803b15801561089257600080fd5b505afa1580156108a6573d6000803e3d6000fd5b505050506040513d6000823e601f3d908101601f191682016040526108429190810190610916565b805169ffffffffffffffffffff811681146108e857600080fd5b919050565b6000602082840312156108ff57600080fd5b81356001600160a01b038116811461084257600080fd5b60006020828403121561092857600080fd5b815167ffffffffffffffff8082111561094057600080fd5b818401915084601f83011261095457600080fd5b81518181111561096657610966610c15565b604051601f8201601f19908116603f0116810190838211818310171561098e5761098e610c15565b816040528281528760208487010111156109a757600080fd5b610407836020830160208801610bcf565b600080600080600060a086880312156109d057600080fd5b6109d9866108ce565b94506020860151935060408601519250606086015191506109fc608087016108ce565b90509295509295909350565b600060208284031215610a1a57600080fd5b815160ff8116811461084257600080fd5b60008251610a3d818460208701610bcf565b9190910192915050565b6020808252601390820152724173736574206e6f7420617661696c61626c6560681b604082015260600190565b60008219821115610a8757610a87610bff565b500190565b600082610aa957634e487b7160e01b600052601260045260246000fd5b500490565b600181815b80851115610ae9578160001904821115610acf57610acf610bff565b80851615610adc57918102915b93841c9390800290610ab3565b509250929050565b60006108428383600082610b07575060016106a2565b81610b14575060006106a2565b8160018114610b2a5760028114610b3457610b50565b60019150506106a2565b60ff841115610b4557610b45610bff565b50506001821b6106a2565b5060208310610133831016604e8410600b8410161715610b73575081810a6106a2565b610b7d8383610aae565b8060001904821115610b9157610b91610bff565b029392505050565b6000816000190483118215151615610bb357610bb3610bff565b500290565b600082821015610bca57610bca610bff565b500390565b60005b83811015610bea578181015183820152602001610bd2565b83811115610bf9576000848401525b50505050565b634e487b7160e01b600052601160045260246000fd5b634e487b7160e01b600052604160045260246000fdfea2646970667358221220945664c6a7da0d0761797a6e6cf463572250751df5a015d7783b338e510ef62864736f6c63430008070033",
  "devdoc": {
    "kind": "dev",
    "methods": {
      "cacheDecimals(address)": {
        "params": {
          "asset": "address of the asset"
        },
        "returns": {
          "_0": "uint8 corresponding asset decimals"
        }
      },
      "price(address)": {
        "params": {
          "asset": "address of the asset"
        },
        "returns": {
          "_0": "uint256 unit price for 1 asset unit, in 18 decimal fixed"
        }
      }
    },
    "version": 1
  },
  "userdoc": {
    "kind": "user",
    "methods": {
      "cacheDecimals(address)": {
        "notice": "Before an asset/feed price is fetches for the first time the         decimals need to be cached. This is a gas optimization"
      },
      "price(address)": {
        "notice": "Returns the total price in 18 digit unit for a given asset."
      }
    },
    "version": 1
  },
  "storageLayout": {
    "storage": [
      {
        "astId": 15385,
        "contract": "contracts/oracle/OracleRouter.sol:OracleRouter",
        "label": "decimalsCache",
        "offset": 0,
        "slot": "0",
        "type": "t_mapping(t_address,t_uint8)"
      }
    ],
    "types": {
      "t_address": {
        "encoding": "inplace",
        "label": "address",
        "numberOfBytes": "20"
      },
      "t_mapping(t_address,t_uint8)": {
        "encoding": "mapping",
        "key": "t_address",
        "label": "mapping(address => uint8)",
        "numberOfBytes": "32",
        "value": "t_uint8"
      },
      "t_uint8": {
        "encoding": "inplace",
        "label": "uint8",
        "numberOfBytes": "1"
      }
    }
  }
}