{
  "address": "0xa7695eED05094E28AA575CB0cCa3CF17848a7981",
  "abi": [
    {
      "inputs": [
        {
          "internalType": "address",
          "name": "asset",
          "type": "address"
        }
      ],
      "name": "price",
      "outputs": [
        {
          "internalType": "uint256",
          "name": "",
          "type": "uint256"
        }
      ],
      "stateMutability": "view",
      "type": "function"
    }
  ],
  "transactionHash": "0x762f38bd3fa06d6e1678cce4cd215cc9a01187f2e51dcda9a393d17c779b83d4",
  "args": [],
  "solcInputHash": "b6193023c3a28756304ff066bec0ae10",
  "bytecode": "0x608060405234801561001057600080fd5b506106e2806100206000396000f3fe608060405234801561001057600080fd5b506004361061002b5760003560e01c8063aea9107814610030575b600080fd5b61004361003e366004610524565b610055565b60405190815260200160405180910390f35b600080610061836101f0565b90506001600160a01b0381166100b45760405162461bcd60e51b81526020600482015260136024820152724173736574206e6f7420617661696c61626c6560681b60448201526064015b60405180910390fd5b6000816001600160a01b031663feaf968c6040518163ffffffff1660e01b815260040160a06040518083038186803b1580156100ef57600080fd5b505afa158015610103573d6000803e3d6000fd5b505050506040513d601f19601f8201168201806040525081019061012791906105fa565b505050915050600081905061013b856103b5565b156101e8576307bfa4808111156101945760405162461bcd60e51b815260206004820152601960248201527f4f7261636c653a2050726963652065786365656473206d61780000000000000060448201526064016100ab565b63042c1d808110156101e85760405162461bcd60e51b815260206004820152601760248201527f4f7261636c653a20507269636520756e646572206d696e00000000000000000060448201526064016100ab565b949350505050565b60006001600160a01b038216736b175474e89094c44da98b954eedeac495271d0f1415610232575073aed0c38402a5d19df6e4c03f4e2dced6e29c1ee9919050565b6001600160a01b03821673a0b86991c6218b36c1d19d4a2e9eb0ce3606eb4814156102725750738fffffd4afb6115b954bd326cbe7b4ba576818f6919050565b6001600160a01b03821673dac17f958d2ee523a2206206994597c13d831ec714156102b25750733e7d1eab13ad0104d2750b8863b489d65364e32d919050565b6001600160a01b03821673c00e94cb662c3520282e6f5717214004a7f2688814156102f2575073dbd020caef83efd542f4de03e3cf0c28a4428bd5919050565b6001600160a01b038216737fc66500c84a76ad7e9c93437bfc5ac33e2ddae91415610332575073547a514d5e3769680ce22b2361c10ea13619e8a9919050565b6001600160a01b03821673d533a949740bb3306d119cc777fa900ba034cd521415610372575073cd627aa160a6fa45eb793d19ef54f5062f20f33f919050565b60405162461bcd60e51b81526020600482015260136024820152724173736574206e6f7420617661696c61626c6560681b60448201526064016100ab565b919050565b6000806103c18361048a565b90506000816040516020016103d6919061064a565b604051602081830303815290604052805190602001209050604051602001610407906244414960e81b815260030190565b604051602081830303815290604052805190602001208114806104515750604051635553444360e01b60208201526024016040516020818303038152906040528051906020012081145b806101e85750604051631554d11560e21b6020820152602401604051602081830303815290604052805190602001208114949350505050565b60606000826001600160a01b03166395d89b416040518163ffffffff1660e01b815260040160006040518083038186803b1580156104c757600080fd5b505afa1580156104db573d6000803e3d6000fd5b505050506040513d6000823e601f3d908101601f19168201604052610503919081019061054d565b9392505050565b805169ffffffffffffffffffff811681146103b057600080fd5b60006020828403121561053657600080fd5b81356001600160a01b038116811461050357600080fd5b60006020828403121561055f57600080fd5b815167ffffffffffffffff8082111561057757600080fd5b818401915084601f83011261058b57600080fd5b81518181111561059d5761059d610696565b604051601f8201601f19908116603f011681019083821181831017156105c5576105c5610696565b816040528281528760208487010111156105de57600080fd5b6105ef836020830160208801610666565b979650505050505050565b600080600080600060a0868803121561061257600080fd5b61061b8661050a565b945060208601519350604086015192506060860151915061063e6080870161050a565b90509295509295909350565b6000825161065c818460208701610666565b9190910192915050565b60005b83811015610681578181015183820152602001610669565b83811115610690576000848401525b50505050565b634e487b7160e01b600052604160045260246000fdfea2646970667358221220345085eac60cc32a54da2ea2c5c5752d85aad7a0c87334f076e59918cfdc38c464736f6c63430008070033",
  "devdoc": {
    "kind": "dev",
    "methods": {
      "price(address)": {
        "params": {
          "asset": "address of the asset"
        },
        "returns": {
          "_0": "uint256 USD price of 1 of the asset, in 8 decimal fixed"
        }
      }
    },
    "version": 1
  },
  "userdoc": {
    "kind": "user",
    "methods": {
      "price(address)": {
        "notice": "Returns the total price in 8 digit USD for a given asset."
      }
    },
    "version": 1
  },
  "storageLayout": {
    "storage": [],
    "types": null
  }
}