{
  "address": "0x9F802B1199037D7f9F7297537cDbE3b64dc46333",
  "abi": [
    {
      "inputs": [
        {
          "internalType": "address",
          "name": "_oToken",
          "type": "address"
        }
      ],
      "stateMutability": "nonpayable",
      "type": "constructor"
    },
    {
      "anonymous": false,
      "inputs": [
        {
          "indexed": true,
          "internalType": "address",
          "name": "previousGovernor",
          "type": "address"
        },
        {
          "indexed": true,
          "internalType": "address",
          "name": "newGovernor",
          "type": "address"
        }
      ],
      "name": "GovernorshipTransferred",
      "type": "event"
    },
    {
      "anonymous": false,
      "inputs": [
        {
          "indexed": true,
          "internalType": "address",
          "name": "previousGovernor",
          "type": "address"
        },
        {
          "indexed": true,
          "internalType": "address",
          "name": "newGovernor",
          "type": "address"
        }
      ],
      "name": "PendingGovernorshipTransfer",
      "type": "event"
    },
    {
      "anonymous": false,
      "inputs": [
        {
          "indexed": false,
          "internalType": "address",
          "name": "_address",
          "type": "address"
        }
      ],
      "name": "StrategistUpdated",
      "type": "event"
    },
    {
      "anonymous": false,
      "inputs": [
        {
          "indexed": true,
          "internalType": "address",
          "name": "strategyAddr",
          "type": "address"
        },
        {
          "indexed": false,
          "internalType": "enum OriginLens.StrategyKinds",
          "name": "kind",
          "type": "uint8"
        }
      ],
      "name": "StrategyTypeChanged",
      "type": "event"
    },
    {
      "inputs": [],
      "name": "ETH_ADDR",
      "outputs": [
        {
          "internalType": "address",
          "name": "",
          "type": "address"
        }
      ],
      "stateMutability": "view",
      "type": "function"
    },
    {
      "inputs": [],
      "name": "WETH_ADDR",
      "outputs": [
        {
          "internalType": "address",
          "name": "",
          "type": "address"
        }
      ],
      "stateMutability": "view",
      "type": "function"
    },
    {
      "inputs": [],
      "name": "assetCount",
      "outputs": [
        {
          "internalType": "uint256",
          "name": "",
          "type": "uint256"
        }
      ],
      "stateMutability": "view",
      "type": "function"
    },
    {
      "inputs": [
        {
          "internalType": "uint256",
          "name": "",
          "type": "uint256"
        }
      ],
      "name": "assets",
      "outputs": [
        {
          "internalType": "address",
          "name": "",
          "type": "address"
        }
      ],
      "stateMutability": "view",
      "type": "function"
    },
    {
      "inputs": [],
      "name": "cacheStrategies",
      "outputs": [],
      "stateMutability": "nonpayable",
      "type": "function"
    },
    {
      "inputs": [],
      "name": "claimGovernance",
      "outputs": [],
      "stateMutability": "nonpayable",
      "type": "function"
    },
    {
      "inputs": [
        {
          "internalType": "address",
          "name": "",
          "type": "address"
        }
      ],
      "name": "curvePoolCoinCount",
      "outputs": [
        {
          "internalType": "uint256",
          "name": "",
          "type": "uint256"
        }
      ],
      "stateMutability": "view",
      "type": "function"
    },
    {
      "inputs": [
        {
          "internalType": "address",
          "name": "strategyAddr",
          "type": "address"
        },
        {
          "internalType": "address",
          "name": "asset",
          "type": "address"
        }
      ],
      "name": "getStrategyAssetBalance",
      "outputs": [
        {
          "internalType": "uint256",
          "name": "balance",
          "type": "uint256"
        }
      ],
      "stateMutability": "view",
      "type": "function"
    },
    {
      "inputs": [
        {
          "internalType": "address",
          "name": "strategyAddr",
          "type": "address"
        }
      ],
      "name": "getStrategyBalances",
      "outputs": [
        {
          "internalType": "address[]",
          "name": "supportedAssets",
          "type": "address[]"
        },
        {
          "internalType": "uint256[]",
          "name": "assetBalances",
          "type": "uint256[]"
        }
      ],
      "stateMutability": "view",
      "type": "function"
    },
    {
      "inputs": [],
      "name": "governor",
      "outputs": [
        {
          "internalType": "address",
          "name": "",
          "type": "address"
        }
      ],
      "stateMutability": "view",
      "type": "function"
    },
    {
      "inputs": [
        {
          "internalType": "address",
          "name": "_strategistAddr",
          "type": "address"
        },
        {
          "internalType": "address[]",
          "name": "_strategies",
          "type": "address[]"
        },
        {
          "internalType": "uint8[]",
          "name": "strategyKinds",
          "type": "uint8[]"
        }
      ],
      "name": "initialize",
      "outputs": [],
      "stateMutability": "nonpayable",
      "type": "function"
    },
    {
      "inputs": [],
      "name": "isGovernor",
      "outputs": [
        {
          "internalType": "bool",
          "name": "",
          "type": "bool"
        }
      ],
      "stateMutability": "view",
      "type": "function"
    },
    {
      "inputs": [],
      "name": "oToken",
      "outputs": [
        {
          "internalType": "contract IOUSD",
          "name": "",
          "type": "address"
        }
      ],
      "stateMutability": "view",
      "type": "function"
    },
    {
      "inputs": [],
      "name": "oracleRouter",
      "outputs": [
        {
          "internalType": "contract IOracle",
          "name": "",
          "type": "address"
        }
      ],
      "stateMutability": "view",
      "type": "function"
    },
    {
      "inputs": [
        {
          "internalType": "address",
          "name": "_address",
          "type": "address"
        }
      ],
      "name": "setStrategistAddr",
      "outputs": [],
      "stateMutability": "nonpayable",
      "type": "function"
    },
    {
      "inputs": [
        {
          "internalType": "address",
          "name": "strategy",
          "type": "address"
        },
        {
          "internalType": "enum OriginLens.StrategyKinds",
          "name": "kind",
          "type": "uint8"
        }
      ],
      "name": "setStrategyKind",
      "outputs": [],
      "stateMutability": "nonpayable",
      "type": "function"
    },
    {
      "inputs": [
        {
          "internalType": "uint256",
          "name": "",
          "type": "uint256"
        }
      ],
      "name": "strategies",
      "outputs": [
        {
          "internalType": "address",
          "name": "",
          "type": "address"
        }
      ],
      "stateMutability": "view",
      "type": "function"
    },
    {
      "inputs": [],
      "name": "strategistAddr",
      "outputs": [
        {
          "internalType": "address",
          "name": "",
          "type": "address"
        }
      ],
      "stateMutability": "view",
      "type": "function"
    },
    {
      "inputs": [
        {
          "internalType": "address",
          "name": "",
          "type": "address"
        }
      ],
      "name": "strategyConfig",
      "outputs": [
        {
          "internalType": "bool",
          "name": "supported",
          "type": "bool"
        },
        {
          "internalType": "enum OriginLens.StrategyKinds",
          "name": "kind",
          "type": "uint8"
        }
      ],
      "stateMutability": "view",
      "type": "function"
    },
    {
      "inputs": [
        {
          "internalType": "address",
          "name": "_newGovernor",
          "type": "address"
        }
      ],
      "name": "transferGovernance",
      "outputs": [],
      "stateMutability": "nonpayable",
      "type": "function"
    },
    {
      "inputs": [],
      "name": "vault",
      "outputs": [
        {
          "internalType": "contract IVault",
          "name": "",
          "type": "address"
        }
      ],
      "stateMutability": "view",
      "type": "function"
    }
  ],
  "transactionHash": "0x9eea030e7fd367e951a935465845e2413a2780ae9486d38fcec65c59ea8e99a0",
  "args": [
    "0x856c4Efb76C1D1AE02e20CEB03A2A6a08b0b8dC3"
  ],
  "numDeployments": 1,
  "solcInputHash": "6b58876f1411779f09706d8243519c5b",
  "bytecode": "0x6101006040523480156200001257600080fd5b5060405162002c4438038062002c448339810160408190526200003591620002c5565b6200004d3360008051602062002c2483398151915255565b60008051602062002c24833981519152546040516001600160a01b03909116906000907fc7c0c772add429241571afb3805861fb3cfa2af374534088b76cdb4325a87e9a908290a36001600160a01b038116620000f05760405162461bcd60e51b815260206004820152601660248201527f496e76616c6964204f546f6b656e206164647265737300000000000000000000604482015260640160405180910390fd5b806001600160a01b031660a0816001600160a01b031660601b815250506000816001600160a01b031663430bf08a6040518163ffffffff1660e01b815260040160206040518083038186803b1580156200014957600080fd5b505afa1580156200015e573d6000803e3d6000fd5b505050506040513d601f19601f82011682018060405250810190620001849190620002c5565b9050806001600160a01b03166080816001600160a01b031660601b81525050806001600160a01b031663a0aead4d6040518163ffffffff1660e01b815260040160206040518083038186803b158015620001dd57600080fd5b505afa158015620001f2573d6000803e3d6000fd5b505050506040513d601f19601f82011682018060405250810190620002189190620002f7565b60c08181525050806001600160a01b031663b888879e6040518163ffffffff1660e01b815260040160206040518083038186803b1580156200025957600080fd5b505afa1580156200026e573d6000803e3d6000fd5b505050506040513d601f19601f82011682018060405250810190620002949190620002c5565b60601b6001600160601b03191660e052620002bd600060008051602062002c2483398151915255565b505062000311565b600060208284031215620002d857600080fd5b81516001600160a01b0381168114620002f057600080fd5b9392505050565b6000602082840312156200030a57600080fd5b5051919050565b60805160601c60a05160601c60c05160e05160601c6128ad6200037760003960006101b801526000818161033501528181610b7a0152610be201526000818161016601526114dc01526000818161035c0152818161043e015261094401526128ad6000f3fe608060405234801561001057600080fd5b50600436106101375760003560e01c806391450e63116100b8578063d574ea3d1161007c578063d574ea3d146102c9578063dd6640c3146102dc578063e336f8c5146102fc578063e50bf68f1461030f578063eafe7a7414610330578063fbfa77cf1461035757600080fd5b806391450e631461023e578063aefc61e014610278578063c7af33521461028b578063cf35bdd0146102a3578063d38bfff4146102b657600080fd5b8063570d8e1d116100ff578063570d8e1d146101da5780635d36b190146101ed578063773540b3146101f55780637753f47b1461020857806382dfc5f71461022357600080fd5b80630c340a241461013c5780631a32aad6146101615780633a1d532b1461018857806344f98829146101a957806355a29e91146101b3575b600080fd5b61014461037e565b6040516001600160a01b0390911681526020015b60405180910390f35b6101447f000000000000000000000000000000000000000000000000000000000000000081565b61019b61019636600461225a565b61039b565b604051908152602001610158565b6101b161043a565b005b6101447f000000000000000000000000000000000000000000000000000000000000000081565b603354610144906001600160a01b031681565b6101b16105b9565b6101b1610203366004612220565b61065f565b61014473eeeeeeeeeeeeeeeeeeeeeeeeeeeeeeeeeeeeeeee81565b61014473c02aaa39b223fe8d0a0e5c4f27ead9083c756cc281565b61026a61024c366004612220565b60686020526000908152604090205460ff8082169161010090041682565b60405161015892919061269a565b6101b1610286366004612315565b61068f565b610293610712565b6040519015158152602001610158565b6101446102b136600461258a565b610743565b6101b16102c4366004612220565b61076d565b6101446102d736600461258a565b610811565b61019b6102ea366004612220565b60696020526000908152604090205481565b6101b161030a366004612293565b610821565b61032261031d366004612220565b610a94565b604051610158929190612623565b61019b7f000000000000000000000000000000000000000000000000000000000000000081565b6101447f000000000000000000000000000000000000000000000000000000000000000081565b60006103966000805160206128588339815191525490565b905090565b6001600160a01b03821660009081526068602090815260408083208151808301909252805460ff80821615158452859484019161010090041660038111156103e5576103e5612800565b60038111156103f6576103f6612800565b90525080519091506104235760405162461bcd60e51b815260040161041a906126f5565b60405180910390fd5b8361042f818584610e1c565b925050505b92915050565b60007f00000000000000000000000000000000000000000000000000000000000000006001600160a01b031663c3b288646040518163ffffffff1660e01b815260040160006040518083038186803b15801561049557600080fd5b505afa1580156104a9573d6000803e3d6000fd5b505050506040513d6000823e601f3d908101601f191682016040526104d19190810190612347565b905060005b60665481101561053d57600060686000606684815481106104f9576104f9612816565b6000918252602080832091909101546001600160a01b031683528201929092526040019020805460ff1916911515919091179055610536816127cf565b90506104d6565b5060005b81518110156105a15760006068600084848151811061056257610562612816565b6020908102919091018101516001600160a01b03168252810191909152604001600020805460ff191660011790555061059a816127cf565b9050610541565b5080516105b59060669060208401906120e9565b5050565b7f44c4d30b2eaad5130ad70c3ba6972730566f3e6359ab83e800d905c61b1c51db546001600160a01b0316336001600160a01b0316146106545760405162461bcd60e51b815260206004820152603060248201527f4f6e6c79207468652070656e64696e6720476f7665726e6f722063616e20636f60448201526f6d706c6574652074686520636c61696d60801b606482015260840161041a565b61065d33610f20565b565b610667610712565b6106835760405162461bcd60e51b815260040161041a906126be565b61068c81610fe1565b50565b6033546001600160a01b03163314806106ab57506106ab610712565b6107085760405162461bcd60e51b815260206004820152602860248201527f43616c6c6572206973206e6f74207468652053747261746567697374206f722060448201526723b7bb32b93737b960c11b606482015260840161041a565b6105b58282611035565b600061072a6000805160206128588339815191525490565b6001600160a01b0316336001600160a01b031614905090565b6067818154811061075357600080fd5b6000918252602090912001546001600160a01b0316905081565b610775610712565b6107915760405162461bcd60e51b815260040161041a906126be565b6107b9817f44c4d30b2eaad5130ad70c3ba6972730566f3e6359ab83e800d905c61b1c51db55565b806001600160a01b03166107d96000805160206128588339815191525490565b6001600160a01b03167fa39cc5eb22d0f34d8beaefee8a3f17cc229c1a1d1ef87a5ad47313487b1c4f0d60405160405180910390a350565b6066818154811061075357600080fd5b610829610712565b6108455760405162461bcd60e51b815260040161041a906126be565b600054610100900460ff168061085e575060005460ff16155b6108c15760405162461bcd60e51b815260206004820152602e60248201527f496e697469616c697a61626c653a20636f6e747261637420697320616c72656160448201526d191e481a5b9a5d1a585b1a5e995960921b606482015260840161041a565b600054610100900460ff161580156108e3576000805461ffff19166101011790555b6001600160a01b0386166109395760405162461bcd60e51b815260206004820152601a60248201527f496e76616c696420737472617465676973742061646472657373000000000000604482015260640161041a565b61094286610fe1565b7f00000000000000000000000000000000000000000000000000000000000000006001600160a01b0316632acada4d6040518163ffffffff1660e01b815260040160006040518083038186803b15801561099b57600080fd5b505afa1580156109af573d6000803e3d6000fd5b505050506040513d6000823e601f3d908101601f191682016040526109d79190810190612347565b80516109eb916067916020909101906120e9565b506109f461043a565b60005b84811015610a7957610a69868683818110610a1457610a14612816565b9050602002016020810190610a299190612220565b858584818110610a3b57610a3b612816565b9050602002016020810190610a5091906125a3565b60ff166003811115610a6457610a64612800565b611035565b610a72816127cf565b90506109f7565b508015610a8c576000805461ff00191690555b505050505050565b6001600160a01b03811660009081526068602090815260408083208151808301909252805460ff8082161515845260609586959094939290840191610100909104166003811115610ae757610ae7612800565b6003811115610af857610af8612800565b9052508051909150610b1c5760405162461bcd60e51b815260040161041a906126f5565b83600182602001516003811115610b3557610b35612800565b1415610b4f57610b448161116c565b935093505050915091565b600282602001516003811115610b6757610b67612800565b1415610b7657610b4481611836565b60007f00000000000000000000000000000000000000000000000000000000000000006001600160401b03811115610bb057610bb061282c565b604051908082528060200260200182016040528015610bd9578160200160208202803683370190505b5090506000805b7f0000000000000000000000000000000000000000000000000000000000000000811015610cf457600060678281548110610c1d57610c1d612816565b60009182526020909120015460405163551c457b60e11b81526001600160a01b039182166004820181905292509086169063aa388af69060240160206040518083038186803b158015610c6f57600080fd5b505afa158015610c83573d6000803e3d6000fd5b505050506040513d601f19601f82011682018060405250810190610ca7919061254f565b15610ce35780848481518110610cbf57610cbf612816565b6001600160a01b0390921660209283029190910190910152610ce0836127cf565b92505b50610ced816127cf565b9050610be0565b50806001600160401b03811115610d0d57610d0d61282c565b604051908082528060200260200182016040528015610d36578160200160208202803683370190505b509550806001600160401b03811115610d5157610d5161282c565b604051908082528060200260200182016040528015610d7a578160200160208202803683370190505b50945060005b81811015610e12576000838281518110610d9c57610d9c612816565b6020026020010151905080888381518110610db957610db9612816565b60200260200101906001600160a01b031690816001600160a01b031681525050610de4858288610e1c565b878381518110610df657610df6612816565b602090810291909101015250610e0b816127cf565b9050610d80565b5050505050915091565b6000600182602001516003811115610e3657610e36612800565b1415610e4d57610e468484611e2a565b9050610f19565b600282602001516003811115610e6557610e65612800565b1415610e7557610e468484611eec565b600382602001516003811115610e8d57610e8d612800565b1415610e9d57610e468484611f5f565b604051632fa8a91360e11b81526001600160a01b038481166004830152851690635f5152269060240160206040518083038186803b158015610ede57600080fd5b505afa158015610ef2573d6000803e3d6000fd5b505050506040513d601f19601f82011682018060405250810190610f169190612571565b90505b9392505050565b6001600160a01b038116610f765760405162461bcd60e51b815260206004820152601a60248201527f4e657720476f7665726e6f722069732061646472657373283029000000000000604482015260640161041a565b806001600160a01b0316610f966000805160206128588339815191525490565b6001600160a01b03167fc7c0c772add429241571afb3805861fb3cfa2af374534088b76cdb4325a87e9a60405160405180910390a361068c8160008051602061285883398151915255565b603380546001600160a01b0319166001600160a01b0383169081179091556040519081527f869e0abd13cc3a975de7b93be3df1cb2255c802b1cead85963cc79d99f131bee9060200160405180910390a150565b6001600160a01b0382166000908152606860205260409020805460ff1661106e5760405162461bcd60e51b815260040161041a906126f5565b80548290829061ff00191661010083600381111561108e5761108e612800565b021790555060018260038111156110a7576110a7612800565b141561112657611126836001600160a01b031663dbe55e566040518163ffffffff1660e01b815260040160206040518083038186803b1580156110e957600080fd5b505afa1580156110fd573d6000803e3d6000fd5b505050506040513d601f19601f82011682018060405250810190611121919061223d565b611f9c565b826001600160a01b03167f7fab7e3127613cf3a72eafc4bfcb3e179d35d1c69e1d0217c1dd029dc23690bd8360405161115f91906126b0565b60405180910390a2505050565b6060806000836001600160a01b031663dbe55e566040518163ffffffff1660e01b815260040160206040518083038186803b1580156111aa57600080fd5b505afa1580156111be573d6000803e3d6000fd5b505050506040513d601f19601f820116820180604052508101906111e2919061223d565b6001600160a01b038116600090815260696020526040902054909150806001600160401b038111156112165761121661282c565b60405190808252806020026020018201604052801561123f578160200160208202803683370190505b509350806001600160401b0381111561125a5761125a61282c565b604051908082528060200260200182016040528015611283578160200160208202803683370190505b5092506000856001600160a01b031663046832b46040518163ffffffff1660e01b815260040160206040518083038186803b1580156112c157600080fd5b505afa1580156112d5573d6000803e3d6000fd5b505050506040513d601f19601f820116820180604052508101906112f9919061223d565b6040516370a0823160e01b81526001600160a01b03888116600483015291909116906370a082319060240160206040518083038186803b15801561133c57600080fd5b505afa158015611350573d6000803e3d6000fd5b505050506040513d601f19601f820116820180604052508101906113749190612571565b90506000805b838110156117335760405163c661065760e01b8152600481018290526000906001600160a01b0387169063c66106579060240160206040518083038186803b1580156113c557600080fd5b505afa1580156113d9573d6000803e3d6000fd5b505050506040513d601f19601f820116820180604052508101906113fd919061223d565b604051634903b0d160e01b8152600481018490529091506000906001600160a01b03881690634903b0d19060240160206040518083038186803b15801561144357600080fd5b505afa158015611457573d6000803e3d6000fd5b505050506040513d601f19601f8201168201806040525081019061147b9190612571565b90508189848151811061149057611490612816565b60200260200101906001600160a01b031690816001600160a01b031681525050808884815181106114c3576114c3612816565b60209081029190910101526114d88185612776565b93507f00000000000000000000000000000000000000000000000000000000000000006001600160a01b0316826001600160a01b031614611720576040516303f0ed3160e21b81526001600160a01b038381166004830152600091908c1690630fc3b4c49060240160206040518083038186803b15801561155857600080fd5b505afa15801561156c573d6000803e3d6000fd5b505050506040513d601f19601f82011682018060405250810190611590919061223d565b90506001600160a01b03831673eeeeeeeeeeeeeeeeeeeeeeeeeeeeeeeeeeeeeeee14156116895773c02aaa39b223fe8d0a0e5c4f27ead9083c756cc28a85815181106115de576115de612816565b6001600160a01b0392831660209182029290920101526040516370a0823160e01b8152908c16600482015273c02aaa39b223fe8d0a0e5c4f27ead9083c756cc2906370a082319060240160206040518083038186803b15801561164057600080fd5b505afa158015611654573d6000803e3d6000fd5b505050506040513d601f19601f820116820180604052508101906116789190612571565b6116829087612776565b955061171e565b6001600160a01b0381161561171e576040516370a0823160e01b81526001600160a01b038c811660048301528216906370a082319060240160206040518083038186803b1580156116d957600080fd5b505afa1580156116ed573d6000803e3d6000fd5b505050506040513d601f19601f820116820180604052508101906117119190612571565b61171b9087612776565b95505b505b50508061172c906127cf565b905061137a565b506117b8846001600160a01b031663bb7b8b806040518163ffffffff1660e01b815260040160206040518083038186803b15801561177057600080fd5b505afa158015611784573d6000803e3d6000fd5b505050506040513d601f19601f820116820180604052508101906117a89190612571565b8390670de0b6b3a7640000612086565b915060005b8651811015610e1257611809828783815181106117dc576117dc612816565b60200260200101516305f5e1006117f391906127b0565b6117fd919061278e565b84906305f5e100612086565b86828151811061181b5761181b612816565b602090810291909101015261182f816127cf565b90506117bd565b6060806000836001600160a01b031663c71daccb6040518163ffffffff1660e01b815260040160206040518083038186803b15801561187457600080fd5b505afa158015611888573d6000803e3d6000fd5b505050506040513d601f19601f820116820180604052508101906118ac9190612571565b9050600080856001600160a01b031663158274a56040518163ffffffff1660e01b815260040160206040518083038186803b1580156118ea57600080fd5b505afa1580156118fe573d6000803e3d6000fd5b505050506040513d601f19601f82011682018060405250810190611922919061223d565b6001600160a01b031663f94d4668876001600160a01b031663dbbb64b96040518163ffffffff1660e01b815260040160206040518083038186803b15801561196957600080fd5b505afa15801561197d573d6000803e3d6000fd5b505050506040513d601f19601f820116820180604052508101906119a19190612571565b6040518263ffffffff1660e01b81526004016119bf91815260200190565b60006040518083038186803b1580156119d757600080fd5b505afa1580156119eb573d6000803e3d6000fd5b505050506040513d6000823e601f3d908101601f19168201604052611a1391908101906123e7565b50915091506000866001600160a01b031663dbe55e566040518163ffffffff1660e01b815260040160206040518083038186803b158015611a5357600080fd5b505afa158015611a67573d6000803e3d6000fd5b505050506040513d601f19601f82011682018060405250810190611a8b919061223d565b6001600160a01b031663238a2d596040518163ffffffff1660e01b815260040160006040518083038186803b158015611ac357600080fd5b505afa158015611ad7573d6000803e3d6000fd5b505050506040513d6000823e601f3d908101601f19168201604052611aff91908101906124bb565b905082516001600160401b03811115611b1a57611b1a61282c565b604051908082528060200260200182016040528015611b43578160200160208202803683370190505b50955082516001600160401b03811115611b5f57611b5f61282c565b604051908082528060200260200182016040528015611b88578160200160208202803683370190505b509450600083516001600160401b03811115611ba657611ba661282c565b604051908082528060200260200182016040528015611bcf578160200160208202803683370190505b5090506000805b8551811015611d7e576000858281518110611bf357611bf3612816565b602002602001015190506000670de0b6b3a76400009050878381518110611c1c57611c1c612816565b60200260200101518b8481518110611c3657611c36612816565b60200260200101906001600160a01b031690816001600160a01b03168152505060006001600160a01b0316868481518110611c7357611c73612816565b60200260200101516001600160a01b031614611d2257858381518110611c9b57611c9b612816565b60200260200101516001600160a01b031663679aefce6040518163ffffffff1660e01b815260040160206040518083038186803b158015611cdb57600080fd5b505afa158015611cef573d6000803e3d6000fd5b505050506040513d601f19601f82011682018060405250810190611d139190612571565b9050611d1f82826120a8565b91505b80858481518110611d3557611d35612816565b602002602001018181525050818a8481518110611d5457611d54612816565b6020908102919091010152611d698285612776565b9350505080611d77906127cf565b9050611bd6565b5060005b8551811015611e1e57611df1838281518110611da057611da0612816565b6020026020010151611deb848b8581518110611dbe57611dbe612816565b60200260200101516305f5e100611dd591906127b0565b611ddf919061278e565b8a906305f5e100612086565b906120a8565b888281518110611e0357611e03612816565b6020908102919091010152611e17816127cf565b9050611d82565b50505050505050915091565b6000806000611e388561116c565b9150915060005b8251811015611eaf57846001600160a01b0316838281518110611e6457611e64612816565b60200260200101516001600160a01b03161415611e9f57818181518110611e8d57611e8d612816565b60200260200101519350505050610434565b611ea8816127cf565b9050611e3f565b5060405162461bcd60e51b8152602060048201526011602482015270155b9cdd5c1c1bdc9d195908185cdcd95d607a1b604482015260640161041a565b6000806000611efa85611836565b9150915060005b8251811015611eaf57846001600160a01b0316838281518110611f2657611f26612816565b60200260200101516001600160a01b03161415611f4f57818181518110611e8d57611e8d612816565b611f58816127cf565b9050611f01565b60405162461bcd60e51b815260206004820152600f60248201526e139bdd081a5b5c1b195b595b9d1959608a1b604482015260009060640161041a565b60015b60048110156105b5576000826001600160a01b031663c661065760e01b83604051602401611fcf91815260200190565b60408051601f198184030181529181526020820180516001600160e01b03166001600160e01b031990941693909317909252905161200d91906125e8565b600060405180830381855afa9150503d8060008114612048576040519150601f19603f3d011682016040523d82523d6000602084013e61204d565b606091505b50909150508061207557506001600160a01b0391909116600090815260696020526040902055565b5061207f816127cf565b9050611f9f565b60008061209385856120d1565b905061209f81846120dd565b95945050505050565b6000806120bd84670de0b6b3a76400006120d1565b90506120c981846120dd565b949350505050565b6000610f1982846127b0565b6000610f19828461278e565b82805482825590600052602060002090810192821561213e579160200282015b8281111561213e57825182546001600160a01b0319166001600160a01b03909116178255602090920191600190910190612109565b5061214a92915061214e565b5090565b5b8082111561214a576000815560010161214f565b60008083601f84011261217557600080fd5b5081356001600160401b0381111561218c57600080fd5b6020830191508360208260051b85010111156121a757600080fd5b9250929050565b600082601f8301126121bf57600080fd5b815160206121d46121cf83612753565b612723565b80838252828201915082860187848660051b89010111156121f457600080fd5b60005b85811015612213578151845292840192908401906001016121f7565b5090979650505050505050565b60006020828403121561223257600080fd5b8135610f1981612842565b60006020828403121561224f57600080fd5b8151610f1981612842565b6000806040838503121561226d57600080fd5b823561227881612842565b9150602083013561228881612842565b809150509250929050565b6000806000806000606086880312156122ab57600080fd5b85356122b681612842565b945060208601356001600160401b03808211156122d257600080fd5b6122de89838a01612163565b909650945060408801359150808211156122f757600080fd5b5061230488828901612163565b969995985093965092949392505050565b6000806040838503121561232857600080fd5b823561233381612842565b915060208301356004811061228857600080fd5b6000602080838503121561235a57600080fd5b82516001600160401b0381111561237057600080fd5b8301601f8101851361238157600080fd5b805161238f6121cf82612753565b80828252848201915084840188868560051b87010111156123af57600080fd5b600094505b838510156123db5780516123c781612842565b8352600194909401939185019185016123b4565b50979650505050505050565b6000806000606084860312156123fc57600080fd5b83516001600160401b038082111561241357600080fd5b818601915086601f83011261242757600080fd5b815160206124376121cf83612753565b8083825282820191508286018b848660051b890101111561245757600080fd5b600096505b8487101561248357805161246f81612842565b83526001969096019591830191830161245c565b509189015191975090935050508082111561249d57600080fd5b506124aa868287016121ae565b925050604084015190509250925092565b600060208083850312156124ce57600080fd5b82516001600160401b038111156124e457600080fd5b8301601f810185136124f557600080fd5b80516125036121cf82612753565b80828252848201915084840188868560051b870101111561252357600080fd5b600094505b838510156123db57805161253b81612842565b835260019490940193918501918501612528565b60006020828403121561256157600080fd5b81518015158114610f1957600080fd5b60006020828403121561258357600080fd5b5051919050565b60006020828403121561259c57600080fd5b5035919050565b6000602082840312156125b557600080fd5b813560ff81168114610f1957600080fd5b600481106125e457634e487b7160e01b600052602160045260246000fd5b9052565b6000825160005b8181101561260957602081860181015185830152016125ef565b81811115612618576000828501525b509190910192915050565b604080825283519082018190526000906020906060840190828701845b828110156126655781516001600160a01b031684529284019290840190600101612640565b5050508381038285015284518082528583019183019060005b818110156122135783518352928401929184019160010161267e565b821515815260408101610f1960208301846125c6565b6020810161043482846125c6565b6020808252601a908201527f43616c6c6572206973206e6f742074686520476f7665726e6f72000000000000604082015260600190565b602080825260149082015273556e737570706f7274656420737472617465677960601b604082015260600190565b604051601f8201601f191681016001600160401b038111828210171561274b5761274b61282c565b604052919050565b60006001600160401b0382111561276c5761276c61282c565b5060051b60200190565b60008219821115612789576127896127ea565b500190565b6000826127ab57634e487b7160e01b600052601260045260246000fd5b500490565b60008160001904831182151516156127ca576127ca6127ea565b500290565b60006000198214156127e3576127e36127ea565b5060010190565b634e487b7160e01b600052601160045260246000fd5b634e487b7160e01b600052602160045260246000fd5b634e487b7160e01b600052603260045260246000fd5b634e487b7160e01b600052604160045260246000fd5b6001600160a01b038116811461068c57600080fdfe7bea13895fa79d2831e0a9e28edede30099005a50d652d8957cf8a607ee6ca4aa2646970667358221220ab9be56c30da0d6bbaa230de6b0384c28cf376caa56798b43a14dac274e0459d64736f6c634300080700337bea13895fa79d2831e0a9e28edede30099005a50d652d8957cf8a607ee6ca4a",
  "devdoc": {
    "kind": "dev",
    "methods": {
      "setStrategistAddr(address)": {
        "details": "Set address of Strategist",
        "params": {
          "_address": "Address of Strategist"
        }
      },
      "transferGovernance(address)": {
        "params": {
          "_newGovernor": "Address of the new Governor"
        }
      }
    },
    "version": 1
  },
  "userdoc": {
    "kind": "user",
    "methods": {
      "claimGovernance()": {
        "notice": "Claim Governance of the contract to a new account (`newGovernor`). Can only be called by the new Governor."
      },
      "governor()": {
        "notice": "Returns the address of the current Governor."
      },
      "isGovernor()": {
        "notice": "Returns true if the caller is the current Governor."
      },
      "transferGovernance(address)": {
        "notice": "Transfers Governance of the contract to a new account (`newGovernor`). Can only be called by the current Governor. Must be claimed for this to complete"
      }
    },
    "version": 1
  },
  "storageLayout": {
    "storage": [
      {
        "astId": 3642,
        "contract": "contracts/utils/OriginLens.sol:OriginLens",
        "label": "initialized",
        "offset": 0,
        "slot": "0",
        "type": "t_bool"
      },
      {
        "astId": 3645,
        "contract": "contracts/utils/OriginLens.sol:OriginLens",
        "label": "initializing",
        "offset": 1,
        "slot": "0",
        "type": "t_bool"
      },
      {
        "astId": 3685,
        "contract": "contracts/utils/OriginLens.sol:OriginLens",
        "label": "______gap",
        "offset": 0,
        "slot": "1",
        "type": "t_array(t_uint256)50_storage"
      },
      {
        "astId": 1164,
        "contract": "contracts/utils/OriginLens.sol:OriginLens",
        "label": "strategistAddr",
        "offset": 0,
        "slot": "51",
        "type": "t_address"
      },
      {
        "astId": 1168,
        "contract": "contracts/utils/OriginLens.sol:OriginLens",
        "label": "__gap",
        "offset": 0,
        "slot": "52",
        "type": "t_array(t_uint256)50_storage"
      },
      {
        "astId": 4434,
        "contract": "contracts/utils/OriginLens.sol:OriginLens",
        "label": "strategies",
        "offset": 0,
        "slot": "102",
        "type": "t_array(t_address)dyn_storage"
      },
      {
        "astId": 4437,
        "contract": "contracts/utils/OriginLens.sol:OriginLens",
        "label": "assets",
        "offset": 0,
        "slot": "103",
        "type": "t_array(t_address)dyn_storage"
      },
      {
        "astId": 4442,
        "contract": "contracts/utils/OriginLens.sol:OriginLens",
        "label": "strategyConfig",
        "offset": 0,
        "slot": "104",
        "type": "t_mapping(t_address,t_struct(StrategyConfig)4424_storage)"
      },
      {
        "astId": 4446,
        "contract": "contracts/utils/OriginLens.sol:OriginLens",
        "label": "curvePoolCoinCount",
        "offset": 0,
        "slot": "105",
        "type": "t_mapping(t_address,t_uint256)"
      }
    ],
    "types": {
      "t_address": {
        "encoding": "inplace",
        "label": "address",
        "numberOfBytes": "20"
      },
      "t_array(t_address)dyn_storage": {
        "base": "t_address",
        "encoding": "dynamic_array",
        "label": "address[]",
        "numberOfBytes": "32"
      },
      "t_array(t_uint256)50_storage": {
        "base": "t_uint256",
        "encoding": "inplace",
        "label": "uint256[50]",
        "numberOfBytes": "1600"
      },
      "t_bool": {
        "encoding": "inplace",
        "label": "bool",
        "numberOfBytes": "1"
      },
      "t_enum(StrategyKinds)4418": {
        "encoding": "inplace",
        "label": "enum OriginLens.StrategyKinds",
        "numberOfBytes": "1"
      },
      "t_mapping(t_address,t_struct(StrategyConfig)4424_storage)": {
        "encoding": "mapping",
        "key": "t_address",
        "label": "mapping(address => struct OriginLens.StrategyConfig)",
        "numberOfBytes": "32",
        "value": "t_struct(StrategyConfig)4424_storage"
      },
      "t_mapping(t_address,t_uint256)": {
        "encoding": "mapping",
        "key": "t_address",
        "label": "mapping(address => uint256)",
        "numberOfBytes": "32",
        "value": "t_uint256"
      },
      "t_struct(StrategyConfig)4424_storage": {
        "encoding": "inplace",
        "label": "struct OriginLens.StrategyConfig",
        "members": [
          {
            "astId": 4420,
            "contract": "contracts/utils/OriginLens.sol:OriginLens",
            "label": "supported",
            "offset": 0,
            "slot": "0",
            "type": "t_bool"
          },
          {
            "astId": 4423,
            "contract": "contracts/utils/OriginLens.sol:OriginLens",
            "label": "kind",
            "offset": 1,
            "slot": "0",
            "type": "t_enum(StrategyKinds)4418"
          }
        ],
        "numberOfBytes": "32"
      },
      "t_uint256": {
        "encoding": "inplace",
        "label": "uint256",
        "numberOfBytes": "32"
      }
    }
  }
}