{
  "address": "0xFc9f0C869b63C9346DfF4a3fc146e52791028d7d",
  "abi": [
    {
      "anonymous": false,
      "inputs": [
        {
          "indexed": true,
          "internalType": "address",
          "name": "owner",
          "type": "address"
        },
        {
          "indexed": true,
          "internalType": "address",
          "name": "spender",
          "type": "address"
        },
        {
          "indexed": false,
          "internalType": "uint256",
          "name": "value",
          "type": "uint256"
        }
      ],
      "name": "Approval",
      "type": "event"
    },
    {
      "anonymous": false,
      "inputs": [
        {
          "indexed": true,
          "internalType": "address",
          "name": "previousGovernor",
          "type": "address"
        },
        {
          "indexed": true,
          "internalType": "address",
          "name": "newGovernor",
          "type": "address"
        }
      ],
      "name": "GovernorshipTransferred",
      "type": "event"
    },
    {
      "anonymous": false,
      "inputs": [
        {
          "indexed": true,
          "internalType": "address",
          "name": "previousGovernor",
          "type": "address"
        },
        {
          "indexed": true,
          "internalType": "address",
          "name": "newGovernor",
          "type": "address"
        }
      ],
      "name": "PendingGovernorshipTransfer",
      "type": "event"
    },
    {
      "anonymous": false,
      "inputs": [
        {
          "indexed": false,
          "internalType": "uint256",
          "name": "totalSupply",
          "type": "uint256"
        },
        {
          "indexed": false,
          "internalType": "uint256",
          "name": "rebasingCredits",
          "type": "uint256"
        },
        {
          "indexed": false,
          "internalType": "uint256",
          "name": "rebasingCreditsPerToken",
          "type": "uint256"
        }
      ],
      "name": "TotalSupplyUpdated",
      "type": "event"
    },
    {
      "anonymous": false,
      "inputs": [
        {
          "indexed": true,
          "internalType": "address",
          "name": "from",
          "type": "address"
        },
        {
          "indexed": true,
          "internalType": "address",
          "name": "to",
          "type": "address"
        },
        {
          "indexed": false,
          "internalType": "uint256",
          "name": "value",
          "type": "uint256"
        }
      ],
      "name": "Transfer",
      "type": "event"
    },
    {
      "inputs": [],
      "name": "_totalSupply",
      "outputs": [
        {
          "internalType": "uint256",
          "name": "",
          "type": "uint256"
        }
      ],
      "stateMutability": "view",
      "type": "function"
    },
    {
      "inputs": [
        {
          "internalType": "address",
          "name": "_owner",
          "type": "address"
        },
        {
          "internalType": "address",
          "name": "_spender",
          "type": "address"
        }
      ],
      "name": "allowance",
      "outputs": [
        {
          "internalType": "uint256",
          "name": "",
          "type": "uint256"
        }
      ],
      "stateMutability": "view",
      "type": "function"
    },
    {
      "inputs": [
        {
          "internalType": "address",
          "name": "_spender",
          "type": "address"
        },
        {
          "internalType": "uint256",
          "name": "_value",
          "type": "uint256"
        }
      ],
      "name": "approve",
      "outputs": [
        {
          "internalType": "bool",
          "name": "",
          "type": "bool"
        }
      ],
      "stateMutability": "nonpayable",
      "type": "function"
    },
    {
      "inputs": [
        {
          "internalType": "address",
          "name": "_account",
          "type": "address"
        }
      ],
      "name": "balanceOf",
      "outputs": [
        {
          "internalType": "uint256",
          "name": "",
          "type": "uint256"
        }
      ],
      "stateMutability": "view",
      "type": "function"
    },
    {
      "inputs": [
        {
          "internalType": "address",
          "name": "account",
          "type": "address"
        },
        {
          "internalType": "uint256",
          "name": "amount",
          "type": "uint256"
        }
      ],
      "name": "burn",
      "outputs": [],
      "stateMutability": "nonpayable",
      "type": "function"
    },
    {
      "inputs": [
        {
          "internalType": "uint256",
          "name": "_newTotalSupply",
          "type": "uint256"
        }
      ],
      "name": "changeSupply",
      "outputs": [],
      "stateMutability": "nonpayable",
      "type": "function"
    },
    {
      "inputs": [],
      "name": "claimGovernance",
      "outputs": [],
      "stateMutability": "nonpayable",
      "type": "function"
    },
    {
      "inputs": [
        {
          "internalType": "address",
          "name": "_account",
          "type": "address"
        }
      ],
      "name": "creditsBalanceOf",
      "outputs": [
        {
          "internalType": "uint256",
          "name": "",
          "type": "uint256"
        },
        {
          "internalType": "uint256",
          "name": "",
          "type": "uint256"
        }
      ],
      "stateMutability": "view",
      "type": "function"
    },
    {
      "inputs": [],
      "name": "decimals",
      "outputs": [
        {
          "internalType": "uint8",
          "name": "",
          "type": "uint8"
        }
      ],
      "stateMutability": "view",
      "type": "function"
    },
    {
      "inputs": [
        {
          "internalType": "address",
          "name": "_spender",
          "type": "address"
        },
        {
          "internalType": "uint256",
          "name": "_subtractedValue",
          "type": "uint256"
        }
      ],
      "name": "decreaseAllowance",
      "outputs": [
        {
          "internalType": "bool",
          "name": "",
          "type": "bool"
        }
      ],
      "stateMutability": "nonpayable",
      "type": "function"
    },
    {
      "inputs": [],
      "name": "governor",
      "outputs": [
        {
          "internalType": "address",
          "name": "",
          "type": "address"
        }
      ],
      "stateMutability": "view",
      "type": "function"
    },
    {
      "inputs": [
        {
          "internalType": "address",
          "name": "_spender",
          "type": "address"
        },
        {
          "internalType": "uint256",
          "name": "_addedValue",
          "type": "uint256"
        }
      ],
      "name": "increaseAllowance",
      "outputs": [
        {
          "internalType": "bool",
          "name": "",
          "type": "bool"
        }
      ],
      "stateMutability": "nonpayable",
      "type": "function"
    },
    {
      "inputs": [
        {
          "internalType": "string",
          "name": "_nameArg",
          "type": "string"
        },
        {
          "internalType": "string",
          "name": "_symbolArg",
          "type": "string"
        },
        {
          "internalType": "address",
          "name": "_vaultAddress",
          "type": "address"
        }
      ],
      "name": "initialize",
      "outputs": [],
      "stateMutability": "nonpayable",
      "type": "function"
    },
    {
      "inputs": [],
      "name": "isGovernor",
      "outputs": [
        {
          "internalType": "bool",
          "name": "",
          "type": "bool"
        }
      ],
      "stateMutability": "view",
      "type": "function"
    },
    {
      "inputs": [
        {
          "internalType": "address",
          "name": "_account",
          "type": "address"
        },
        {
          "internalType": "uint256",
          "name": "_amount",
          "type": "uint256"
        }
      ],
      "name": "mint",
      "outputs": [],
      "stateMutability": "nonpayable",
      "type": "function"
    },
    {
      "inputs": [],
      "name": "name",
      "outputs": [
        {
          "internalType": "string",
          "name": "",
          "type": "string"
        }
      ],
      "stateMutability": "view",
      "type": "function"
    },
    {
      "inputs": [
        {
          "internalType": "address",
          "name": "",
          "type": "address"
        }
      ],
      "name": "nonRebasingCreditsPerToken",
      "outputs": [
        {
          "internalType": "uint256",
          "name": "",
          "type": "uint256"
        }
      ],
      "stateMutability": "view",
      "type": "function"
    },
    {
      "inputs": [],
      "name": "nonRebasingSupply",
      "outputs": [
        {
          "internalType": "uint256",
          "name": "",
          "type": "uint256"
        }
      ],
      "stateMutability": "view",
      "type": "function"
    },
    {
      "inputs": [],
      "name": "rebaseOptIn",
      "outputs": [],
      "stateMutability": "nonpayable",
      "type": "function"
    },
    {
      "inputs": [],
      "name": "rebaseOptOut",
      "outputs": [],
      "stateMutability": "nonpayable",
      "type": "function"
    },
    {
      "inputs": [
        {
          "internalType": "address",
          "name": "",
          "type": "address"
        }
      ],
      "name": "rebaseState",
      "outputs": [
        {
          "internalType": "enum OUSD.RebaseOptions",
          "name": "",
          "type": "uint8"
        }
      ],
      "stateMutability": "view",
      "type": "function"
    },
    {
      "inputs": [],
      "name": "rebasingCredits",
      "outputs": [
        {
          "internalType": "uint256",
          "name": "",
          "type": "uint256"
        }
      ],
      "stateMutability": "view",
      "type": "function"
    },
    {
      "inputs": [],
      "name": "rebasingCreditsPerToken",
      "outputs": [
        {
          "internalType": "uint256",
          "name": "",
          "type": "uint256"
        }
      ],
      "stateMutability": "view",
      "type": "function"
    },
    {
      "inputs": [],
      "name": "symbol",
      "outputs": [
        {
          "internalType": "string",
          "name": "",
          "type": "string"
        }
      ],
      "stateMutability": "view",
      "type": "function"
    },
    {
      "inputs": [],
      "name": "totalSupply",
      "outputs": [
        {
          "internalType": "uint256",
          "name": "",
          "type": "uint256"
        }
      ],
      "stateMutability": "view",
      "type": "function"
    },
    {
      "inputs": [
        {
          "internalType": "address",
          "name": "_to",
          "type": "address"
        },
        {
          "internalType": "uint256",
          "name": "_value",
          "type": "uint256"
        }
      ],
      "name": "transfer",
      "outputs": [
        {
          "internalType": "bool",
          "name": "",
          "type": "bool"
        }
      ],
      "stateMutability": "nonpayable",
      "type": "function"
    },
    {
      "inputs": [
        {
          "internalType": "address",
          "name": "_from",
          "type": "address"
        },
        {
          "internalType": "address",
          "name": "_to",
          "type": "address"
        },
        {
          "internalType": "uint256",
          "name": "_value",
          "type": "uint256"
        }
      ],
      "name": "transferFrom",
      "outputs": [
        {
          "internalType": "bool",
          "name": "",
          "type": "bool"
        }
      ],
      "stateMutability": "nonpayable",
      "type": "function"
    },
    {
      "inputs": [
        {
          "internalType": "address",
          "name": "_newGovernor",
          "type": "address"
        }
      ],
      "name": "transferGovernance",
      "outputs": [],
      "stateMutability": "nonpayable",
      "type": "function"
    },
    {
      "inputs": [],
      "name": "vaultAddress",
      "outputs": [
        {
          "internalType": "address",
          "name": "",
          "type": "address"
        }
      ],
      "stateMutability": "view",
      "type": "function"
    }
  ],
  "transactionHash": "0x5c777a0edf746d07d488d231e1638c5b03709996d5d5fb81f32e31197ec498c7",
  "args": [],
  "solcInputHash": "b6193023c3a28756304ff066bec0ae10",
  "bytecode": "0x6080604052609c80546001600160a01b031916905534801561002057600080fd5b5061003733600080516020611ec383398151915255565b600080516020611ec3833981519152546040516001600160a01b03909116906000907fc7c0c772add429241571afb3805861fb3cfa2af374534088b76cdb4325a87e9a908290a3611e368061008d6000396000f3fe608060405234801561001057600080fd5b50600436106101cf5760003560e01c80635d36b19011610104578063a9059cbb116100a2578063dd62ed3e11610071578063dd62ed3e146103be578063e696393a146103f7578063f51b0fd414610400578063f9854bfc1461040857600080fd5b8063a9059cbb14610388578063c2376dff1461039b578063c7af3352146103a3578063d38bfff4146103ab57600080fd5b806370a08231116100de57806370a082311461034757806395d89b411461035a5780639dc29fac14610362578063a457c2d71461037557600080fd5b80635d36b19014610316578063609350cd1461031e5780636691cb3d1461033e57600080fd5b8063313ce567116101715780633eaaf86b1161014b5780633eaaf86b146102b757806340c10f19146102c0578063430bf08a146102d3578063456ee286146102e657600080fd5b8063313ce5671461027c578063395093511461029157806339a7919f146102a457600080fd5b8063095ea7b3116101ad578063095ea7b31461021e5780630c340a241461024157806318160ddd1461026157806323b872dd1461026957600080fd5b806306fdde03146101d4578063077f224a146101f2578063077f22b714610207575b600080fd5b6101dc610430565b6040516101e99190611c15565b60405180910390f35b610205610200366004611b53565b6104c2565b005b610210609e5481565b6040519081526020016101e9565b61023161022c366004611b29565b610670565b60405190151581526020016101e9565b6102496106dc565b6040516001600160a01b0390911681526020016101e9565b609a54610210565b610231610277366004611aed565b6106f9565b60995460405160ff90911681526020016101e9565b61023161029f366004611b29565b610846565b6102056102b2366004611bd4565b6108cb565b610210609a5481565b6102056102ce366004611b29565b610ad4565b609c54610249906001600160a01b031681565b6103096102f4366004611a9f565b60a26020526000908152604090205460ff1681565b6040516101e99190611bed565b610205610b0c565b61021061032c366004611a9f565b60a16020526000908152604090205481565b610210609f5481565b610210610355366004611a9f565b610bb2565b6101dc610c08565b610205610370366004611b29565b610c17565b610231610383366004611b29565b610c4b565b610231610396366004611b29565b610d32565b610205610e13565b610231610f07565b6102056103b9366004611a9f565b610f38565b6102106103cc366004611aba565b6001600160a01b039182166000908152609b6020908152604080832093909416825291909152205490565b61021060a05481565b61020561100c565b61041b610416366004611a9f565b611130565b604080519283526020830191909152016101e9565b60606097805461043f90611d39565b80601f016020809104026020016040519081016040528092919081815260200182805461046b90611d39565b80156104b85780601f1061048d576101008083540402835291602001916104b8565b820191906000526020600020905b81548152906001019060200180831161049b57829003601f168201915b5050505050905090565b6104ca610f07565b61051b5760405162461bcd60e51b815260206004820152601a60248201527f43616c6c6572206973206e6f742074686520476f7665726e6f7200000000000060448201526064015b60405180910390fd5b600054610100900460ff1680610534575060005460ff16155b6105975760405162461bcd60e51b815260206004820152602e60248201527f496e697469616c697a61626c653a20636f6e747261637420697320616c72656160448201526d191e481a5b9a5d1a585b1a5e995960921b6064820152608401610512565b600054610100900460ff161580156105b9576000805461ffff19166101011790555b61062f86868080601f01602080910402602001604051908101604052809392919081815260200183838082843760009201919091525050604080516020601f8a0181900481028201810190925288815292508891508790819084018382808284376000920191909152506012925061115d915050565b670de0b6b3a7640000609f55609c80546001600160a01b0319166001600160a01b0384161790558015610668576000805461ff00191690555b505050505050565b336000818152609b602090815260408083206001600160a01b038716808552925280832085905551919290917f8c5be1e5ebec7d5bd14f71427d1e84f3dd0314c0f7b2291e5b200ac8c7c3b925906106cb9086815260200190565b60405180910390a350600192915050565b60006106f4600080516020611de18339815191525490565b905090565b60006001600160a01b03831661074c5760405162461bcd60e51b81526020600482015260186024820152775472616e7366657220746f207a65726f206164647265737360401b6044820152606401610512565b61075584610bb2565b8211156107a45760405162461bcd60e51b815260206004820152601d60248201527f5472616e736665722067726561746572207468616e2062616c616e63650000006044820152606401610512565b6001600160a01b0384166000908152609b602090815260408083203384529091529020546107d2908361119d565b6001600160a01b0385166000908152609b602090815260408083203384529091529020556108018484846111b0565b826001600160a01b0316846001600160a01b0316600080516020611dc18339815191528460405161083491815260200190565b60405180910390a35060019392505050565b336000908152609b602090815260408083206001600160a01b0386168452909152812054610874908361131e565b336000818152609b602090815260408083206001600160a01b038916808552908352928190208590555193845290927f8c5be1e5ebec7d5bd14f71427d1e84f3dd0314c0f7b2291e5b200ac8c7c3b92591016106cb565b609c546001600160a01b031633146108f55760405162461bcd60e51b815260040161051290611c6a565b600080516020611da1833981519152805460028114156109275760405162461bcd60e51b815260040161051290611ca1565b600282556000609a541161097d5760405162461bcd60e51b815260206004820152601860248201527f43616e6e6f7420696e637265617365203020737570706c7900000000000000006044820152606401610512565b82609a5414156109d357609a54609e54609f5460408051938452602084019290925282820152517f99e56f783b536ffacf422d59183ea321dd80dcd6d23daa13023e8afea38c3df19181900360600190a1610acc565b6001600160801b0383116109e757826109f0565b6001600160801b035b609a81905560a054610a0e91610a059161119d565b609e549061132a565b609f819055610a5f5760405162461bcd60e51b815260206004820152601860248201527f496e76616c6964206368616e676520696e20737570706c7900000000000000006044820152606401610512565b610a8260a054610a7c609f54609e5461132a90919063ffffffff16565b9061131e565b609a819055609e54609f5460408051938452602084019290925282820152517f99e56f783b536ffacf422d59183ea321dd80dcd6d23daa13023e8afea38c3df19181900360600190a15b506001905550565b609c546001600160a01b03163314610afe5760405162461bcd60e51b815260040161051290611c6a565b610b088282611353565b5050565b7f44c4d30b2eaad5130ad70c3ba6972730566f3e6359ab83e800d905c61b1c51db546001600160a01b0316336001600160a01b031614610ba75760405162461bcd60e51b815260206004820152603060248201527f4f6e6c79207468652070656e64696e6720476f7665726e6f722063616e20636f60448201526f6d706c6574652074686520636c61696d60801b6064820152608401610512565b610bb0336114f4565b565b6001600160a01b0381166000908152609d6020526040812054610bd757506000919050565b610c02610be3836115b8565b6001600160a01b0384166000908152609d60205260409020549061132a565b92915050565b60606098805461043f90611d39565b609c546001600160a01b03163314610c415760405162461bcd60e51b815260040161051290611c6a565b610b0882826115ff565b336000908152609b602090815260408083206001600160a01b0386168452909152812054808310610c9f57336000908152609b602090815260408083206001600160a01b0388168452909152812055610cce565b610ca9818461119d565b336000908152609b602090815260408083206001600160a01b03891684529091529020555b336000818152609b602090815260408083206001600160a01b038916808552908352928190205490519081529192917f8c5be1e5ebec7d5bd14f71427d1e84f3dd0314c0f7b2291e5b200ac8c7c3b925910160405180910390a35060019392505050565b60006001600160a01b038316610d855760405162461bcd60e51b81526020600482015260186024820152775472616e7366657220746f207a65726f206164647265737360401b6044820152606401610512565b610d8e33610bb2565b821115610ddd5760405162461bcd60e51b815260206004820152601d60248201527f5472616e736665722067726561746572207468616e2062616c616e63650000006044820152606401610512565b610de83384846111b0565b6040518281526001600160a01b038416903390600080516020611dc1833981519152906020016106cb565b600080516020611da183398151915280546002811415610e455760405162461bcd60e51b815260040161051290611ca1565b60028255610e5233611808565b15610e9f5760405162461bcd60e51b815260206004820152601860248201527f4163636f756e7420686173206e6f74206f7074656420696e00000000000000006044820152606401610512565b610eb4610eab33610bb2565b60a0549061131e565b60a055609f5433600090815260a16020908152604080832093909355609d90522054609e54610ee29161119d565b609e555033600090815260a260205260409020805460ff191660019081179091559055565b6000610f1f600080516020611de18339815191525490565b6001600160a01b0316336001600160a01b031614905090565b610f40610f07565b610f8c5760405162461bcd60e51b815260206004820152601a60248201527f43616c6c6572206973206e6f742074686520476f7665726e6f720000000000006044820152606401610512565b610fb4817f44c4d30b2eaad5130ad70c3ba6972730566f3e6359ab83e800d905c61b1c51db55565b806001600160a01b0316610fd4600080516020611de18339815191525490565b6001600160a01b03167fa39cc5eb22d0f34d8beaefee8a3f17cc229c1a1d1ef87a5ad47313487b1c4f0d60405160405180910390a350565b600080516020611da18339815191528054600281141561103e5760405162461bcd60e51b815260040161051290611ca1565b6002825561104b33611808565b6110975760405162461bcd60e51b815260206004820152601960248201527f4163636f756e7420686173206e6f74206f70746564206f7574000000000000006044820152606401610512565b60006110c76110a5336115b8565b609f54336000908152609d60205260409020546110c191611873565b9061187f565b90506110de6110d533610bb2565b60a0549061119d565b60a055336000908152609d60205260409020819055609e54611100908261131e565b609e55505033600090815260a260209081526040808320805460ff1916600217905560a190915281205560019055565b6001600160a01b0381166000908152609d60205260408120548190611154846115b8565b91509150915091565b82516111709060979060208601906119a6565b5081516111849060989060208501906119a6565b506099805460ff191660ff929092169190911790555050565b60006111a98284611d22565b9392505050565b60006111bb83611808565b905060006111c885611808565b905060006111df6111d8866115b8565b859061188b565b905060006111f66111ef886115b8565b869061188b565b9050611267816040518060400160405280601f81526020017f5472616e7366657220616d6f756e7420657863656564732062616c616e636500815250609d60008b6001600160a01b03166001600160a01b03168152602001908152602001600020546118a09092919063ffffffff16565b6001600160a01b038089166000908152609d60205260408082209390935590881681522054611296908361131e565b6001600160a01b0387166000908152609d60205260409020558380156112ba575082155b156112e45760a0546112cc908661131e565b60a055609e546112dc908261119d565b609e55611315565b831580156112ef5750825b156113155760a054611301908661119d565b60a055609e54611311908361131e565b609e555b50505050505050565b60006111a98284611cc9565b60008061133f84670de0b6b3a7640000611873565b905061134b818461187f565b949350505050565b600080516020611da1833981519152805460028114156113855760405162461bcd60e51b815260040161051290611ca1565b600282556001600160a01b0384166113df5760405162461bcd60e51b815260206004820152601860248201527f4d696e7420746f20746865207a65726f206164647265737300000000000000006044820152606401610512565b60006113ea85611808565b905060006113fa6111ef876115b8565b6001600160a01b0387166000908152609d6020526040902054909150611420908261131e565b6001600160a01b0387166000908152609d602052604090205581156114545760a05461144c908661131e565b60a055611465565b609e54611461908261131e565b609e555b609a54611472908661131e565b609a8190556001600160801b03116114b95760405162461bcd60e51b815260206004820152600a6024820152694d617820737570706c7960b01b6044820152606401610512565b6040518581526001600160a01b03871690600090600080516020611dc18339815191529060200160405180910390a350506001825550505050565b6001600160a01b03811661154a5760405162461bcd60e51b815260206004820152601a60248201527f4e657720476f7665726e6f7220697320616464726573732830290000000000006044820152606401610512565b806001600160a01b031661156a600080516020611de18339815191525490565b6001600160a01b03167fc7c0c772add429241571afb3805861fb3cfa2af374534088b76cdb4325a87e9a60405160405180910390a36115b581600080516020611de183398151915255565b50565b6001600160a01b038116600090815260a16020526040812054156115f257506001600160a01b0316600090815260a1602052604090205490565b5050609f5490565b919050565b600080516020611da1833981519152805460028114156116315760405162461bcd60e51b815260040161051290611ca1565b600282556001600160a01b03841661168b5760405162461bcd60e51b815260206004820152601a60248201527f4275726e2066726f6d20746865207a65726f20616464726573730000000000006044820152606401610512565b82611695576117ff565b60006116a085611808565b905060006116b06111ef876115b8565b6001600160a01b0387166000908152609d6020526040902054909150808214806116e35750816116e1600183611d22565b145b15611706576001600160a01b0387166000908152609d6020526040812055611790565b8181111561174f576001600160a01b0387166000908152609d6020526040902054611731908361119d565b6001600160a01b0388166000908152609d6020526040902055611790565b60405162461bcd60e51b815260206004820152601660248201527552656d6f766520657863656564732062616c616e636560501b6044820152606401610512565b82156117ab5760a0546117a3908761119d565b60a0556117bc565b609e546117b8908361119d565b609e555b609a546117c9908761119d565b609a556040518681526000906001600160a01b03891690600080516020611dc18339815191529060200160405180910390a35050505b50600190555050565b6000813b15801590819061184657506001600160a01b038316600090815260a2602052604081205460ff16600281111561184457611844611d8a565b145b1561185457611854836118cc565b50506001600160a01b0316600090815260a16020526040902054151590565b60006111a98284611d03565b60006111a98284611ce1565b60006111a98383670de0b6b3a7640000611984565b600081848411156118c45760405162461bcd60e51b81526004016105129190611c15565b505050900390565b6001600160a01b038116600090815260a160205260409020546115b5576001600160a01b0381166000908152609d602052604090205461192e576001600160a01b0316600090815260a1602052604090206b033b2e3c9fd0803ce80000009055565b609f546001600160a01b038216600090815260a16020526040902055611956610eab82610bb2565b60a0556001600160a01b0381166000908152609d6020526040902054609e5461197e9161119d565b609e5550565b6000806119918585611873565b905061199d818461187f565b95945050505050565b8280546119b290611d39565b90600052602060002090601f0160209004810192826119d45760008555611a1a565b82601f106119ed57805160ff1916838001178555611a1a565b82800160010185558215611a1a579182015b82811115611a1a5782518255916020019190600101906119ff565b50611a26929150611a2a565b5090565b5b80821115611a265760008155600101611a2b565b80356001600160a01b03811681146115fa57600080fd5b60008083601f840112611a6857600080fd5b50813567ffffffffffffffff811115611a8057600080fd5b602083019150836020828501011115611a9857600080fd5b9250929050565b600060208284031215611ab157600080fd5b6111a982611a3f565b60008060408385031215611acd57600080fd5b611ad683611a3f565b9150611ae460208401611a3f565b90509250929050565b600080600060608486031215611b0257600080fd5b611b0b84611a3f565b9250611b1960208501611a3f565b9150604084013590509250925092565b60008060408385031215611b3c57600080fd5b611b4583611a3f565b946020939093013593505050565b600080600080600060608688031215611b6b57600080fd5b853567ffffffffffffffff80821115611b8357600080fd5b611b8f89838a01611a56565b90975095506020880135915080821115611ba857600080fd5b50611bb588828901611a56565b9094509250611bc8905060408701611a3f565b90509295509295909350565b600060208284031215611be657600080fd5b5035919050565b6020810160038310611c0f57634e487b7160e01b600052602160045260246000fd5b91905290565b600060208083528351808285015260005b81811015611c4257858101830151858201604001528201611c26565b81811115611c54576000604083870101525b50601f01601f1916929092016040019392505050565b60208082526017908201527f43616c6c6572206973206e6f7420746865205661756c74000000000000000000604082015260600190565b6020808252600e908201526d1499595b9d1c985b9d0818d85b1b60921b604082015260600190565b60008219821115611cdc57611cdc611d74565b500190565b600082611cfe57634e487b7160e01b600052601260045260246000fd5b500490565b6000816000190483118215151615611d1d57611d1d611d74565b500290565b600082821015611d3457611d34611d74565b500390565b600181811c90821680611d4d57607f821691505b60208210811415611d6e57634e487b7160e01b600052602260045260246000fd5b50919050565b634e487b7160e01b600052601160045260246000fd5b634e487b7160e01b600052602160045260246000fdfe53bf423e48ed90e97d02ab0ebab13b2a235a6bfbe9c321847d5c175333ac4535ddf252ad1be2c89b69c2b068fc378daa952ba7f163c4a11628f55a4df523b3ef7bea13895fa79d2831e0a9e28edede30099005a50d652d8957cf8a607ee6ca4aa2646970667358221220d6f5cd70003e4962d48176f7abb64035348ca0450a79c1f66065bb924753046264736f6c634300080700337bea13895fa79d2831e0a9e28edede30099005a50d652d8957cf8a607ee6ca4a",
  "devdoc": {
    "kind": "dev",
    "methods": {
      "allowance(address,address)": {
        "details": "Function to check the amount of tokens that _owner has allowed to      `_spender`.",
        "params": {
          "_owner": "The address which owns the funds.",
          "_spender": "The address which will spend the funds."
        },
        "returns": {
          "_0": "The number of tokens still available for the _spender."
        }
      },
      "approve(address,uint256)": {
        "details": "Approve the passed address to spend the specified amount of tokens      on behalf of msg.sender. This method is included for ERC20      compatibility. `increaseAllowance` and `decreaseAllowance` should be      used instead.      Changing an allowance with this method brings the risk that someone      may transfer both the old and the new allowance - if they are both      greater than zero - if a transfer transaction is mined before the      later approve() call is mined.",
        "params": {
          "_spender": "The address which will spend the funds.",
          "_value": "The amount of tokens to be spent."
        }
      },
      "balanceOf(address)": {
        "details": "Gets the balance of the specified address.",
        "params": {
          "_account": "Address to query the balance of."
        },
        "returns": {
          "_0": "A uint256 representing the amount of base units owned by the         specified address."
        }
      },
      "burn(address,uint256)": {
        "details": "Burns tokens, decreasing totalSupply."
      },
      "changeSupply(uint256)": {
        "details": "Modify the supply without minting new tokens. This uses a change in      the exchange rate between \"credits\" and OUSD tokens to change balances.",
        "params": {
          "_newTotalSupply": "New total supply of OUSD."
        }
      },
      "claimGovernance()": {
        "details": "Claim Governance of the contract to a new account (`newGovernor`). Can only be called by the new Governor."
      },
      "creditsBalanceOf(address)": {
        "details": "Gets the credits balance of the specified address.",
        "params": {
          "_account": "The address to query the balance of."
        },
        "returns": {
          "_0": "(uint256, uint256) Credit balance and credits per token of the         address"
        }
      },
      "decimals()": {
        "details": "Returns the number of decimals used to get its user representation. For example, if `decimals` equals `2`, a balance of `505` tokens should be displayed to a user as `5,05` (`505 / 10 ** 2`). Tokens usually opt for a value of 18, imitating the relationship between Ether and Wei. NOTE: This information is only used for _display_ purposes: it in no way affects any of the arithmetic of the contract, including {IERC20-balanceOf} and {IERC20-transfer}."
      },
      "decreaseAllowance(address,uint256)": {
        "details": "Decrease the amount of tokens that an owner has allowed to `_spender`.",
        "params": {
          "_spender": "The address which will spend the funds.",
          "_subtractedValue": "The amount of tokens to decrease the allowance        by."
        }
      },
      "governor()": {
        "details": "Returns the address of the current Governor."
      },
      "increaseAllowance(address,uint256)": {
        "details": "Increase the amount of tokens that an owner has allowed to      `_spender`.      This method should be used instead of approve() to avoid the double      approval vulnerability described above.",
        "params": {
          "_addedValue": "The amount of tokens to increase the allowance by.",
          "_spender": "The address which will spend the funds."
        }
      },
      "isGovernor()": {
        "details": "Returns true if the caller is the current Governor."
      },
      "mint(address,uint256)": {
        "details": "Mints new tokens, increasing totalSupply."
      },
      "name()": {
        "details": "Returns the name of the token."
      },
      "rebaseOptIn()": {
        "details": "Add a contract address to the non-rebasing exception list. The address's balance will be part of rebases and the account will be exposed to upside and downside."
      },
      "rebaseOptOut()": {
        "details": "Explicitly mark that an address is non-rebasing."
      },
      "symbol()": {
        "details": "Returns the symbol of the token, usually a shorter version of the name."
      },
      "totalSupply()": {
        "returns": {
          "_0": "The total supply of OUSD."
        }
      },
      "transfer(address,uint256)": {
        "details": "Transfer tokens to a specified address.",
        "params": {
          "_to": "the address to transfer to.",
          "_value": "the amount to be transferred."
        },
        "returns": {
          "_0": "true on success."
        }
      },
      "transferFrom(address,address,uint256)": {
        "details": "Transfer tokens from one address to another.",
        "params": {
          "_from": "The address you want to send tokens from.",
          "_to": "The address you want to transfer to.",
          "_value": "The amount of tokens to be transferred."
        }
      },
      "transferGovernance(address)": {
        "details": "Transfers Governance of the contract to a new account (`newGovernor`). Can only be called by the current Governor. Must be claimed for this to complete",
        "params": {
          "_newGovernor": "Address of the new Governor"
        }
      }
    },
    "version": 1
  },
  "userdoc": {
    "kind": "user",
    "methods": {},
    "notice": "NOTE that this is an ERC20 token but the invariant that the sum of balanceOf(x) for all x is not >= totalSupply(). This is a consequence of the rebasing design. Any integrations with OUSD should be aware.",
    "version": 1
  },
  "storageLayout": {
    "storage": [
      {
        "astId": 16815,
        "contract": "contracts/token/OUSD.sol:OUSD",
        "label": "initialized",
        "offset": 0,
        "slot": "0",
        "type": "t_bool"
      },
      {
        "astId": 16818,
        "contract": "contracts/token/OUSD.sol:OUSD",
        "label": "initializing",
        "offset": 1,
        "slot": "0",
        "type": "t_bool"
      },
      {
        "astId": 16858,
        "contract": "contracts/token/OUSD.sol:OUSD",
        "label": "______gap",
        "offset": 0,
        "slot": "1",
        "type": "t_array(t_uint256)50_storage"
      },
      {
        "astId": 17373,
        "contract": "contracts/token/OUSD.sol:OUSD",
        "label": "_____gap",
        "offset": 0,
        "slot": "51",
        "type": "t_array(t_uint256)100_storage"
      },
      {
        "astId": 17375,
        "contract": "contracts/token/OUSD.sol:OUSD",
        "label": "_name",
        "offset": 0,
        "slot": "151",
        "type": "t_string_storage"
      },
      {
        "astId": 17377,
        "contract": "contracts/token/OUSD.sol:OUSD",
        "label": "_symbol",
        "offset": 0,
        "slot": "152",
        "type": "t_string_storage"
      },
      {
        "astId": 17379,
        "contract": "contracts/token/OUSD.sol:OUSD",
        "label": "_decimals",
        "offset": 0,
        "slot": "153",
        "type": "t_uint8"
      },
      {
        "astId": 15712,
        "contract": "contracts/token/OUSD.sol:OUSD",
        "label": "_totalSupply",
        "offset": 0,
        "slot": "154",
        "type": "t_uint256"
      },
      {
        "astId": 15718,
        "contract": "contracts/token/OUSD.sol:OUSD",
        "label": "_allowances",
        "offset": 0,
        "slot": "155",
        "type": "t_mapping(t_address,t_mapping(t_address,t_uint256))"
      },
      {
        "astId": 15724,
        "contract": "contracts/token/OUSD.sol:OUSD",
        "label": "vaultAddress",
        "offset": 0,
        "slot": "156",
        "type": "t_address"
      },
      {
        "astId": 15728,
        "contract": "contracts/token/OUSD.sol:OUSD",
        "label": "_creditBalances",
        "offset": 0,
        "slot": "157",
        "type": "t_mapping(t_address,t_uint256)"
      },
      {
        "astId": 15730,
        "contract": "contracts/token/OUSD.sol:OUSD",
        "label": "rebasingCredits",
        "offset": 0,
        "slot": "158",
        "type": "t_uint256"
      },
      {
        "astId": 15732,
        "contract": "contracts/token/OUSD.sol:OUSD",
        "label": "rebasingCreditsPerToken",
        "offset": 0,
        "slot": "159",
        "type": "t_uint256"
      },
      {
        "astId": 15734,
        "contract": "contracts/token/OUSD.sol:OUSD",
        "label": "nonRebasingSupply",
        "offset": 0,
        "slot": "160",
        "type": "t_uint256"
      },
      {
        "astId": 15738,
        "contract": "contracts/token/OUSD.sol:OUSD",
        "label": "nonRebasingCreditsPerToken",
        "offset": 0,
        "slot": "161",
        "type": "t_mapping(t_address,t_uint256)"
      },
      {
        "astId": 15743,
        "contract": "contracts/token/OUSD.sol:OUSD",
        "label": "rebaseState",
        "offset": 0,
        "slot": "162",
        "type": "t_mapping(t_address,t_enum(RebaseOptions)15703)"
      }
    ],
    "types": {
      "t_address": {
        "encoding": "inplace",
        "label": "address",
        "numberOfBytes": "20"
      },
      "t_array(t_uint256)100_storage": {
        "base": "t_uint256",
        "encoding": "inplace",
        "label": "uint256[100]",
        "numberOfBytes": "3200"
      },
      "t_array(t_uint256)50_storage": {
        "base": "t_uint256",
        "encoding": "inplace",
        "label": "uint256[50]",
        "numberOfBytes": "1600"
      },
      "t_bool": {
        "encoding": "inplace",
        "label": "bool",
        "numberOfBytes": "1"
      },
      "t_enum(RebaseOptions)15703": {
        "encoding": "inplace",
        "label": "enum OUSD.RebaseOptions",
        "numberOfBytes": "1"
      },
      "t_mapping(t_address,t_enum(RebaseOptions)15703)": {
        "encoding": "mapping",
        "key": "t_address",
        "label": "mapping(address => enum OUSD.RebaseOptions)",
        "numberOfBytes": "32",
        "value": "t_enum(RebaseOptions)15703"
      },
      "t_mapping(t_address,t_mapping(t_address,t_uint256))": {
        "encoding": "mapping",
        "key": "t_address",
        "label": "mapping(address => mapping(address => uint256))",
        "numberOfBytes": "32",
        "value": "t_mapping(t_address,t_uint256)"
      },
      "t_mapping(t_address,t_uint256)": {
        "encoding": "mapping",
        "key": "t_address",
        "label": "mapping(address => uint256)",
        "numberOfBytes": "32",
        "value": "t_uint256"
      },
      "t_string_storage": {
        "encoding": "bytes",
        "label": "string",
        "numberOfBytes": "32"
      },
      "t_uint256": {
        "encoding": "inplace",
        "label": "uint256",
        "numberOfBytes": "32"
      },
      "t_uint8": {
        "encoding": "inplace",
        "label": "uint8",
        "numberOfBytes": "1"
      }
    }
  }
}