{
  "address": "0xA7B7c59a1705E4A624eA8a4ad8a06F9DE22Dcc33",
  "abi": [
    {
      "anonymous": false,
      "inputs": [
        {
          "indexed": false,
          "internalType": "address",
          "name": "account",
          "type": "address"
        }
      ],
      "name": "AccountRebasingDisabled",
      "type": "event"
    },
    {
      "anonymous": false,
      "inputs": [
        {
          "indexed": false,
          "internalType": "address",
          "name": "account",
          "type": "address"
        }
      ],
      "name": "AccountRebasingEnabled",
      "type": "event"
    },
    {
      "anonymous": false,
      "inputs": [
        {
          "indexed": true,
          "internalType": "address",
          "name": "owner",
          "type": "address"
        },
        {
          "indexed": true,
          "internalType": "address",
          "name": "spender",
          "type": "address"
        },
        {
          "indexed": false,
          "internalType": "uint256",
          "name": "value",
          "type": "uint256"
        }
      ],
      "name": "Approval",
      "type": "event"
    },
    {
      "anonymous": false,
      "inputs": [
        {
          "indexed": true,
          "internalType": "address",
          "name": "previousGovernor",
          "type": "address"
        },
        {
          "indexed": true,
          "internalType": "address",
          "name": "newGovernor",
          "type": "address"
        }
      ],
      "name": "GovernorshipTransferred",
      "type": "event"
    },
    {
      "anonymous": false,
      "inputs": [
        {
          "indexed": true,
          "internalType": "address",
          "name": "previousGovernor",
          "type": "address"
        },
        {
          "indexed": true,
          "internalType": "address",
          "name": "newGovernor",
          "type": "address"
        }
      ],
      "name": "PendingGovernorshipTransfer",
      "type": "event"
    },
    {
      "anonymous": false,
      "inputs": [
        {
          "indexed": false,
          "internalType": "uint256",
          "name": "totalSupply",
          "type": "uint256"
        },
        {
          "indexed": false,
          "internalType": "uint256",
          "name": "rebasingCredits",
          "type": "uint256"
        },
        {
          "indexed": false,
          "internalType": "uint256",
          "name": "rebasingCreditsPerToken",
          "type": "uint256"
        }
      ],
      "name": "TotalSupplyUpdatedHighres",
      "type": "event"
    },
    {
      "anonymous": false,
      "inputs": [
        {
          "indexed": true,
          "internalType": "address",
          "name": "from",
          "type": "address"
        },
        {
          "indexed": true,
          "internalType": "address",
          "name": "to",
          "type": "address"
        },
        {
          "indexed": false,
          "internalType": "uint256",
          "name": "value",
          "type": "uint256"
        }
      ],
      "name": "Transfer",
      "type": "event"
    },
    {
      "anonymous": false,
      "inputs": [
        {
          "indexed": false,
          "internalType": "address",
          "name": "source",
          "type": "address"
        },
        {
          "indexed": false,
          "internalType": "address",
          "name": "target",
          "type": "address"
        }
      ],
      "name": "YieldDelegated",
      "type": "event"
    },
    {
      "anonymous": false,
      "inputs": [
        {
          "indexed": false,
          "internalType": "address",
          "name": "source",
          "type": "address"
        },
        {
          "indexed": false,
          "internalType": "address",
          "name": "target",
          "type": "address"
        }
      ],
      "name": "YieldUndelegated",
      "type": "event"
    },
    {
      "inputs": [
        {
          "internalType": "address",
          "name": "_owner",
          "type": "address"
        },
        {
          "internalType": "address",
          "name": "_spender",
          "type": "address"
        }
      ],
      "name": "allowance",
      "outputs": [
        {
          "internalType": "uint256",
          "name": "",
          "type": "uint256"
        }
      ],
      "stateMutability": "view",
      "type": "function"
    },
    {
      "inputs": [
        {
          "internalType": "address",
          "name": "_spender",
          "type": "address"
        },
        {
          "internalType": "uint256",
          "name": "_value",
          "type": "uint256"
        }
      ],
      "name": "approve",
      "outputs": [
        {
          "internalType": "bool",
          "name": "",
          "type": "bool"
        }
      ],
      "stateMutability": "nonpayable",
      "type": "function"
    },
    {
      "inputs": [
        {
          "internalType": "address",
          "name": "_account",
          "type": "address"
        }
      ],
      "name": "balanceOf",
      "outputs": [
        {
          "internalType": "uint256",
          "name": "",
          "type": "uint256"
        }
      ],
      "stateMutability": "view",
      "type": "function"
    },
    {
      "inputs": [
        {
          "internalType": "address",
          "name": "_account",
          "type": "address"
        },
        {
          "internalType": "uint256",
          "name": "_amount",
          "type": "uint256"
        }
      ],
      "name": "burn",
      "outputs": [],
      "stateMutability": "nonpayable",
      "type": "function"
    },
    {
      "inputs": [
        {
          "internalType": "uint256",
          "name": "_newTotalSupply",
          "type": "uint256"
        }
      ],
      "name": "changeSupply",
      "outputs": [],
      "stateMutability": "nonpayable",
      "type": "function"
    },
    {
      "inputs": [],
      "name": "claimGovernance",
      "outputs": [],
      "stateMutability": "nonpayable",
      "type": "function"
    },
    {
      "inputs": [
        {
          "internalType": "address",
          "name": "_account",
          "type": "address"
        }
      ],
      "name": "creditsBalanceOf",
      "outputs": [
        {
          "internalType": "uint256",
          "name": "",
          "type": "uint256"
        },
        {
          "internalType": "uint256",
          "name": "",
          "type": "uint256"
        }
      ],
      "stateMutability": "view",
      "type": "function"
    },
    {
      "inputs": [
        {
          "internalType": "address",
          "name": "_account",
          "type": "address"
        }
      ],
      "name": "creditsBalanceOfHighres",
      "outputs": [
        {
          "internalType": "uint256",
          "name": "",
          "type": "uint256"
        },
        {
          "internalType": "uint256",
          "name": "",
          "type": "uint256"
        },
        {
          "internalType": "bool",
          "name": "",
          "type": "bool"
        }
      ],
      "stateMutability": "view",
      "type": "function"
    },
    {
      "inputs": [],
      "name": "decimals",
      "outputs": [
        {
          "internalType": "uint8",
          "name": "",
          "type": "uint8"
        }
      ],
      "stateMutability": "pure",
      "type": "function"
    },
    {
      "inputs": [
        {
          "internalType": "address",
          "name": "_from",
          "type": "address"
        },
        {
          "internalType": "address",
          "name": "_to",
          "type": "address"
        }
      ],
      "name": "delegateYield",
      "outputs": [],
      "stateMutability": "nonpayable",
      "type": "function"
    },
    {
      "inputs": [
        {
          "internalType": "address",
          "name": "_account",
          "type": "address"
        }
      ],
      "name": "governanceRebaseOptIn",
      "outputs": [],
      "stateMutability": "nonpayable",
      "type": "function"
    },
    {
      "inputs": [],
      "name": "governor",
      "outputs": [
        {
          "internalType": "address",
          "name": "",
          "type": "address"
        }
      ],
      "stateMutability": "view",
      "type": "function"
    },
    {
      "inputs": [
        {
          "internalType": "address",
          "name": "_vaultAddress",
          "type": "address"
        },
        {
          "internalType": "uint256",
          "name": "_initialCreditsPerToken",
          "type": "uint256"
        }
      ],
      "name": "initialize",
      "outputs": [],
      "stateMutability": "nonpayable",
      "type": "function"
    },
    {
      "inputs": [],
      "name": "isGovernor",
      "outputs": [
        {
          "internalType": "bool",
          "name": "",
          "type": "bool"
        }
      ],
      "stateMutability": "view",
      "type": "function"
    },
    {
      "inputs": [
        {
          "internalType": "address",
          "name": "_account",
          "type": "address"
        },
        {
          "internalType": "uint256",
          "name": "_amount",
          "type": "uint256"
        }
      ],
      "name": "mint",
      "outputs": [],
      "stateMutability": "nonpayable",
      "type": "function"
    },
    {
      "inputs": [],
      "name": "name",
      "outputs": [
        {
          "internalType": "string",
          "name": "",
          "type": "string"
        }
      ],
      "stateMutability": "pure",
      "type": "function"
    },
    {
      "inputs": [
        {
          "internalType": "address",
          "name": "_account",
          "type": "address"
        }
      ],
      "name": "nonRebasingCreditsPerToken",
      "outputs": [
        {
          "internalType": "uint256",
          "name": "",
          "type": "uint256"
        }
      ],
      "stateMutability": "view",
      "type": "function"
    },
    {
      "inputs": [],
      "name": "nonRebasingSupply",
      "outputs": [
        {
          "internalType": "uint256",
          "name": "",
          "type": "uint256"
        }
      ],
      "stateMutability": "view",
      "type": "function"
    },
    {
      "inputs": [],
      "name": "rebaseOptIn",
      "outputs": [],
      "stateMutability": "nonpayable",
      "type": "function"
    },
    {
      "inputs": [],
      "name": "rebaseOptOut",
      "outputs": [],
      "stateMutability": "nonpayable",
      "type": "function"
    },
    {
      "inputs": [
        {
          "internalType": "address",
          "name": "",
          "type": "address"
        }
      ],
      "name": "rebaseState",
      "outputs": [
        {
          "internalType": "enum OUSD.RebaseOptions",
          "name": "",
          "type": "uint8"
        }
      ],
      "stateMutability": "view",
      "type": "function"
    },
    {
      "inputs": [],
      "name": "rebasingCredits",
      "outputs": [
        {
          "internalType": "uint256",
          "name": "",
          "type": "uint256"
        }
      ],
      "stateMutability": "view",
      "type": "function"
    },
    {
      "inputs": [],
      "name": "rebasingCreditsHighres",
      "outputs": [
        {
          "internalType": "uint256",
          "name": "",
          "type": "uint256"
        }
      ],
      "stateMutability": "view",
      "type": "function"
    },
    {
      "inputs": [],
      "name": "rebasingCreditsPerToken",
      "outputs": [
        {
          "internalType": "uint256",
          "name": "",
          "type": "uint256"
        }
      ],
      "stateMutability": "view",
      "type": "function"
    },
    {
      "inputs": [],
      "name": "rebasingCreditsPerTokenHighres",
      "outputs": [
        {
          "internalType": "uint256",
          "name": "",
          "type": "uint256"
        }
      ],
      "stateMutability": "view",
      "type": "function"
    },
    {
      "inputs": [],
      "name": "symbol",
      "outputs": [
        {
          "internalType": "string",
          "name": "",
          "type": "string"
        }
      ],
      "stateMutability": "pure",
      "type": "function"
    },
    {
      "inputs": [],
      "name": "totalSupply",
      "outputs": [
        {
          "internalType": "uint256",
          "name": "",
          "type": "uint256"
        }
      ],
      "stateMutability": "view",
      "type": "function"
    },
    {
      "inputs": [
        {
          "internalType": "address",
          "name": "_to",
          "type": "address"
        },
        {
          "internalType": "uint256",
          "name": "_value",
          "type": "uint256"
        }
      ],
      "name": "transfer",
      "outputs": [
        {
          "internalType": "bool",
          "name": "",
          "type": "bool"
        }
      ],
      "stateMutability": "nonpayable",
      "type": "function"
    },
    {
      "inputs": [
        {
          "internalType": "address",
          "name": "_from",
          "type": "address"
        },
        {
          "internalType": "address",
          "name": "_to",
          "type": "address"
        },
        {
          "internalType": "uint256",
          "name": "_value",
          "type": "uint256"
        }
      ],
      "name": "transferFrom",
      "outputs": [
        {
          "internalType": "bool",
          "name": "",
          "type": "bool"
        }
      ],
      "stateMutability": "nonpayable",
      "type": "function"
    },
    {
      "inputs": [
        {
          "internalType": "address",
          "name": "_newGovernor",
          "type": "address"
        }
      ],
      "name": "transferGovernance",
      "outputs": [],
      "stateMutability": "nonpayable",
      "type": "function"
    },
    {
      "inputs": [
        {
          "internalType": "address",
          "name": "_from",
          "type": "address"
        }
      ],
      "name": "undelegateYield",
      "outputs": [],
      "stateMutability": "nonpayable",
      "type": "function"
    },
    {
      "inputs": [],
      "name": "vaultAddress",
      "outputs": [
        {
          "internalType": "address",
          "name": "",
          "type": "address"
        }
      ],
      "stateMutability": "view",
      "type": "function"
    },
    {
      "inputs": [
        {
          "internalType": "address",
          "name": "",
          "type": "address"
        }
      ],
      "name": "yieldFrom",
      "outputs": [
        {
          "internalType": "address",
          "name": "",
          "type": "address"
        }
      ],
      "stateMutability": "view",
      "type": "function"
    },
    {
      "inputs": [
        {
          "internalType": "address",
          "name": "",
          "type": "address"
        }
      ],
      "name": "yieldTo",
      "outputs": [
        {
          "internalType": "address",
          "name": "",
          "type": "address"
        }
      ],
      "stateMutability": "view",
      "type": "function"
    }
  ],
  "transactionHash": "0xf07b9f33f9e217fd038399797f0a21bb3d36ebee660b93785cae85916028db09",
  "args": [],
  "numDeployments": 3,
  "solcInputHash": "a003ef9b1159d0b00ba7c0b4b2386c56",
  "bytecode": "0x6080604052348015600f57600080fd5b5061262d8061001f6000396000f3fe608060405234801561001057600080fd5b50600436106102065760003560e01c806370a082311161011a578063c2376dff116100ad578063dd62ed3e1161007c578063dd62ed3e14610498578063e5c4fffe146104d1578063e696393a14610501578063f51b0fd41461050a578063f9854bfc1461051257600080fd5b8063c2376dff14610462578063c7af33521461046a578063cd6dc68714610472578063d38bfff41461048557600080fd5b80639d01fc72116100e95780639d01fc72146104165780639dc29fac14610429578063a9059cbb1461043c578063baa9c9db1461044f57600080fd5b806370a08231146103d35780637a46a9c5146103e65780637d0d66ff146103ee57806395d89b41146103f657600080fd5b806339a7919f1161019d5780635d36b1901161016c5780635d36b190146103485780635f5a857714610350578063609350cd146103795780636691cb3d146103a25780636b96be39146103aa57600080fd5b806339a7919f146102df57806340c10f19146102f2578063430bf08a14610305578063456ee2861461031857600080fd5b80630c340a24116101d95780630c340a241461029457806318160ddd146102b457806323b872dd146102bd578063313ce567146102d057600080fd5b806306a2da3d1461020b57806306fdde0314610220578063077f22b71461025b578063095ea7b314610271575b600080fd5b61021e61021936600461225f565b61053a565b005b60408051808201909152600d81526c27b934b3b4b7102237b63630b960991b60208201525b604051610252919061227c565b60405180910390f35b6102636107b2565b604051908152602001610252565b61028461027f3660046122ca565b6107cb565b6040519015158152602001610252565b61029c610838565b6040516001600160a01b039091168152602001610252565b610263609a5481565b6102846102cb3660046122f6565b610850565b60405160128152602001610252565b61021e6102ed366004612337565b610985565b61021e6103003660046122ca565b610b5d565b609c5461029c906001600160a01b031681565b61033b61032636600461225f565b60a26020526000908152604090205460ff1681565b6040516102529190612366565b61021e610c8b565b61029c61035e36600461225f565b60a4602052600090815260409020546001600160a01b031681565b61026361038736600461225f565b6001600160a01b0316600090815260a1602052604090205490565b610263610d31565b61029c6103b836600461225f565b60a5602052600090815260409020546001600160a01b031681565b6102636103e136600461225f565b610d45565b609f54610263565b609e54610263565b60408051808201909152600481526313d554d160e21b6020820152610245565b61021e61042436600461238e565b610e33565b61021e6104373660046122ca565b6113dc565b61028461044a3660046122ca565b6114ca565b61021e61045d36600461225f565b611553565b61021e6115d1565b6102846115da565b61021e6104803660046122ca565b61160b565b61021e61049336600461225f565b6116ee565b6102636104a636600461238e565b6001600160a01b039182166000908152609b6020908152604080832093909416825291909152205490565b6104e46104df36600461225f565b611792565b604080519384526020840192909252151590820152606001610252565b61026360a05481565b61021e6117c6565b61052561052036600461225f565b6117cf565b60408051928352602083019190915201610252565b6105426115da565b806105d45750609c60009054906101000a90046001600160a01b03166001600160a01b031663570d8e1d6040518163ffffffff1660e01b8152600401602060405180830381865afa15801561059b573d6000803e3d6000fd5b505050506040513d601f19601f820116820180604052508101906105bf91906123c7565b6001600160a01b0316336001600160a01b0316145b6105f95760405162461bcd60e51b81526004016105f0906123e4565b60405180910390fd5b6001600160a01b03818116600090815260a460205260409020541661065b5760405162461bcd60e51b815260206004820152601860248201527716995c9bc81859191c995cdcc81b9bdd08185b1b1bddd95960421b60448201526064016105f0565b6001600160a01b03808216600090815260a460205260408120549091169061068283610d45565b9050600061068f83610d45565b6001600160a01b0384166000908152609d60205260408120549192506106b483611852565b6001600160a01b03868116600081815260a56020908152604080832080546001600160a01b0319908116909155948c16835260a48252808320805490951690945560a2808252848320805460ff19908116600117909155609d8084528685208c9055948452908252848320805490911660021790559190915290812082905590915061073f83611893565b61074883611893565b6107529190612442565b90506107668161076187611893565b611901565b604080516001600160a01b03808a168252881660208201527fa4fa89dd14422a509261a2d4d459f93abdc84c6e92c5e7ae5448243713967bd3910160405180910390a150505050505050565b6000633b9aca00609e546107c69190612469565b905090565b336000818152609b602090815260408083206001600160a01b038716808552925280832085905551919290917f8c5be1e5ebec7d5bd14f71427d1e84f3dd0314c0f7b2291e5b200ac8c7c3b925906108269086815260200190565b60405180910390a35060015b92915050565b60006107c66000805160206125d88339815191525490565b60006001600160a01b0383166108a35760405162461bcd60e51b81526020600482015260186024820152775472616e7366657220746f207a65726f206164647265737360401b60448201526064016105f0565b6001600160a01b0384166000908152609b602090815260408083203384529091529020548083111561090c5760405162461bcd60e51b8152602060048201526012602482015271105b1b1bddd85b98d948195e18d95959195960721b60448201526064016105f0565b6001600160a01b0385166000908152609b602090815260408083203384529091529020838203905561093f858585611945565b836001600160a01b0316856001600160a01b03166000805160206125b88339815191528560405161097291815260200190565b60405180910390a3506001949350505050565b609c546001600160a01b031633146109af5760405162461bcd60e51b81526004016105f09061248b565b6000609a5411610a015760405162461bcd60e51b815260206004820152601860248201527f43616e6e6f7420696e637265617365203020737570706c79000000000000000060448201526064016105f0565b80609a5403610a5457609a54609e54609f5460408051938452602084019290925282820152517f41645eb819d3011b13f97696a8109d14bfcddfaca7d063ec0564d62a3e2572359181900360600190a150565b6001600160801b038111610a685780610a71565b6001600160801b035b609a81905560a054600091610a8691906124c2565b905080600182609e54670de0b6b3a7640000610aa291906124d5565b610aac91906124ec565b610ab691906124c2565b610ac09190612469565b609f819055610b115760405162461bcd60e51b815260206004820152601860248201527f496e76616c6964206368616e676520696e20737570706c79000000000000000060448201526064016105f0565b609a54609e54609f5460408051938452602084019290925282820152517f41645eb819d3011b13f97696a8109d14bfcddfaca7d063ec0564d62a3e2572359181900360600190a1505b50565b609c546001600160a01b03163314610b875760405162461bcd60e51b81526004016105f09061248b565b6001600160a01b038216610bdd5760405162461bcd60e51b815260206004820152601860248201527f4d696e7420746f20746865207a65726f2061646472657373000000000000000060448201526064016105f0565b600080610bf284610bed85611893565b61198e565b91509150610c008282611901565b82609a54610c0e91906124ec565b609a8190556001600160801b0311610c555760405162461bcd60e51b815260206004820152600a6024820152694d617820737570706c7960b01b60448201526064016105f0565b6040518381526001600160a01b038516906000906000805160206125b8833981519152906020015b60405180910390a350505050565b7f44c4d30b2eaad5130ad70c3ba6972730566f3e6359ab83e800d905c61b1c51db546001600160a01b0316336001600160a01b031614610d265760405162461bcd60e51b815260206004820152603060248201527f4f6e6c79207468652070656e64696e6720476f7665726e6f722063616e20636f60448201526f6d706c6574652074686520636c61696d60801b60648201526084016105f0565b610d2f33611c7c565b565b6000633b9aca00609f546107c69190612469565b6001600160a01b038116600090815260a2602052604081205460ff166003816004811115610d7557610d75612350565b03610d975750506001600160a01b03166000908152609d602052604090205490565b6000610da284611cdb565b6001600160a01b0385166000908152609d6020526040902054610dcd90670de0b6b3a76400006124d5565b610dd79190612469565b90506004826004811115610ded57610ded612350565b03610e2c576001600160a01b03808516600090815260a560209081526040808320549093168252609d90522054610e2490826124c2565b949350505050565b9392505050565b610e3b6115da565b80610ecd5750609c60009054906101000a90046001600160a01b03166001600160a01b031663570d8e1d6040518163ffffffff1660e01b8152600401602060405180830381865afa158015610e94573d6000803e3d6000fd5b505050506040513d601f19601f82011682018060405250810190610eb891906123c7565b6001600160a01b0316336001600160a01b0316145b610ee95760405162461bcd60e51b81526004016105f0906123e4565b6001600160a01b038216610f3f5760405162461bcd60e51b815260206004820152601d60248201527f5a65726f2066726f6d2061646472657373206e6f7420616c6c6f77656400000060448201526064016105f0565b6001600160a01b038116610f955760405162461bcd60e51b815260206004820152601b60248201527f5a65726f20746f2061646472657373206e6f7420616c6c6f776564000000000060448201526064016105f0565b806001600160a01b0316826001600160a01b031603610ff65760405162461bcd60e51b815260206004820152601760248201527f43616e6e6f742064656c656761746520746f2073656c6600000000000000000060448201526064016105f0565b6001600160a01b03818116600090815260a560205260409020541615801561103657506001600160a01b03818116600090815260a4602052604090205416155b801561105a57506001600160a01b03828116600090815260a5602052604090205416155b801561107e57506001600160a01b03828116600090815260a4602052604090205416155b6110d65760405162461bcd60e51b8152602060048201526024808201527f426c6f636b6564206279206578697374696e67207969656c642064656c6567616044820152633a34b7b760e11b60648201526084016105f0565b6001600160a01b03808316600090815260a2602052604080822054928416825281205460ff92831692169082600481111561111357611113612350565b14806111305750600182600481111561112e5761112e612350565b145b8061114c5750600282600481111561114a5761114a612350565b145b6111985760405162461bcd60e51b815260206004820152601860248201527f496e76616c69642072656261736553746174652066726f6d000000000000000060448201526064016105f0565b60008160048111156111ac576111ac612350565b14806111c9575060018160048111156111c7576111c7612350565b145b806111e5575060028160048111156111e3576111e3612350565b145b61122a5760405162461bcd60e51b8152602060048201526016602482015275496e76616c696420726562617365537461746520746f60501b60448201526064016105f0565b6001600160a01b038416600090815260a1602052604081205490036112525761125284611d0a565b6001600160a01b038316600090815260a16020526040902054156112795761127983611ee5565b600061128485610d45565b9050600061129185610d45565b6001600160a01b0386166000908152609d60205260408120549192506112bf6112ba84866124ec565b611852565b6001600160a01b03898116600081815260a46020908152604080832080546001600160a01b0319908116968f1696871790915585845260a5835281842080549091168517905592825260a2808252838320805460ff1990811660031790915560a18352848420670de0b6b3a76400009055609d8084528585208c90559584529082528383208054909116600417905592909252812082905590915061136383611893565b61136c83611893565b6113769190612442565b905061138e8161138587611893565b610761906124ff565b604080516001600160a01b03808c1682528a1660208201527f31e39e4bb9df9d4143551c8a3a4798fc19b0854768570ce84d966f6adffd01a3910160405180910390a1505050505050505050565b609c546001600160a01b031633146114065760405162461bcd60e51b81526004016105f09061248b565b6001600160a01b03821661145c5760405162461bcd60e51b815260206004820152601a60248201527f4275726e2066726f6d20746865207a65726f206164647265737300000000000060448201526064016105f0565b80156114c65760008061147b8461147285611893565b610bed906124ff565b915091506114898282611901565b82609a5461149791906124c2565b609a556040518381526000906001600160a01b038616906000805160206125b883398151915290602001610c7d565b5050565b60006001600160a01b03831661151d5760405162461bcd60e51b81526020600482015260186024820152775472616e7366657220746f207a65726f206164647265737360401b60448201526064016105f0565b611528338484611945565b6040518281526001600160a01b0384169033906000805160206125b883398151915290602001610826565b61155b6115da565b6115775760405162461bcd60e51b81526004016105f09061251b565b6001600160a01b0381166115c85760405162461bcd60e51b815260206004820152601860248201527716995c9bc81859191c995cdcc81b9bdd08185b1b1bddd95960421b60448201526064016105f0565b610b5a81611ee5565b610d2f33611d0a565b60006115f26000805160206125d88339815191525490565b6001600160a01b0316336001600160a01b031614905090565b6116136115da565b61162f5760405162461bcd60e51b81526004016105f09061251b565b6001600160a01b03821661167a5760405162461bcd60e51b81526020600482015260126024820152715a65726f207661756c74206164647265737360701b60448201526064016105f0565b609c546001600160a01b0316156116c95760405162461bcd60e51b8152602060048201526013602482015272105b1c9958591e481a5b9a5d1a585b1a5e9959606a1b60448201526064016105f0565b609f55609c80546001600160a01b0319166001600160a01b0392909216919091179055565b6116f66115da565b6117125760405162461bcd60e51b81526004016105f09061251b565b61173a817f44c4d30b2eaad5130ad70c3ba6972730566f3e6359ab83e800d905c61b1c51db55565b806001600160a01b031661175a6000805160206125d88339815191525490565b6001600160a01b03167fa39cc5eb22d0f34d8beaefee8a3f17cc229c1a1d1ef87a5ad47313487b1c4f0d60405160405180910390a350565b6001600160a01b0381166000908152609d6020526040812054819081906117b885611cdb565b909590945060019350915050565b610d2f33611ee5565b60008060006117dd84611cdb565b9050806b033b2e3c9fd0803ce800000003611812576001600160a01b039093166000908152609d602052604090205493915050565b6001600160a01b0384166000908152609d602052604090205461183a90633b9aca0090612469565b611848633b9aca0083612469565b9250925050915091565b6000670de0b6b3a76400006001609f548461186d91906124d5565b61187f90670de0b6b3a76400006124ec565b61188991906124c2565b6108329190612469565b60006001600160ff1b038211156118fd5760405162461bcd60e51b815260206004820152602860248201527f53616665436173743a2076616c756520646f65736e27742066697420696e2061604482015267371034b73a191a9b60c11b60648201526084016105f0565b5090565b81156119295761192582611916609e54611893565b6119209190612552565b6120c0565b609e555b80156114c65761193e8161191660a054611893565b60a0555050565b6000806119558561147285611893565b9150915060008061196986610bed87611893565b909250905061198561197b8386612552565b6107618386612552565b50505050505050565b6001600160a01b038216600090815260a26020526040812054819060ff16816119be6119b987610d45565b611893565b905060006119cc8683612552565b1215611a1a5760405162461bcd60e51b815260206004820152601f60248201527f5472616e7366657220616d6f756e7420657863656564732062616c616e63650060448201526064016105f0565b6000611a296119208784612552565b90506003836004811115611a3f57611a3f612350565b03611ae4576001600160a01b03808816600090815260a4602052604081205490911690611a6b82610d45565b90506000611a7c6112ba85846124ec565b6001600160a01b0384166000908152609d6020526040902054909150611aa190611893565b611aaa82611893565b611ab49190612442565b6001600160a01b03808c166000908152609d60205260408082208890559590911681529390932055509450611c72565b6004836004811115611af857611af8612350565b03611b90576001600160a01b03808816600090815260a560209081526040808320549093168252609d905290812054611b35906112ba90846124ec565b6001600160a01b0389166000908152609d6020526040902054909150611b5a90611893565b611b6382611893565b611b6d9190612442565b6001600160a01b0389166000908152609d60205260409020919091559450611c72565b611b9987612112565b6001600160a01b038716600090815260a160205260409020548015611c0e5786945080670de0b6b3a764000014611bee576001600160a01b038816600090815260a160205260409020670de0b6b3a764000090555b6001600160a01b0388166000908152609d60205260409020829055611c70565b6000611c1983611852565b6001600160a01b038a166000908152609d6020526040902054909150611c3e90611893565b611c4782611893565b611c519190612442565b6001600160a01b038a166000908152609d602052604090209190915595505b505b5050509250929050565b6001600160a01b038116611cd25760405162461bcd60e51b815260206004820152601a60248201527f4e657720476f7665726e6f72206973206164647265737328302900000000000060448201526064016105f0565b610b5a816121e3565b6001600160a01b038116600090815260a160205260408120548015611d005792915050565b5050609f54919050565b6001600160a01b038116600090815260a1602052604090205415611d705760405162461bcd60e51b815260206004820152601860248201527f4163636f756e74206d757374206265207265626173696e67000000000000000060448201526064016105f0565b6001600160a01b038116600090815260a2602052604090205460ff166002816004811115611da057611da0612350565b1480611dbd57506000816004811115611dbb57611dbb612350565b145b611e1d5760405162461bcd60e51b815260206004820152602b60248201527f4f6e6c79207374616e64617264207265626173696e67206163636f756e74732060448201526a18d85b881bdc1d081bdd5d60aa1b60648201526084016105f0565b6001600160a01b0382166000908152609d602052604081205490611e4084610d45565b6001600160a01b038516600090815260a260209081526040808320805460ff1916600117905560a18252808320670de0b6b3a76400009055609d90915290208190559050611ea2611e9083611893565b611e99906124ff565b61076183611893565b6040516001600160a01b03851681527f201ace89ad3f5ab7428b91989f6a50d1998791c7b94a0fa812fd64a57687165e906020015b60405180910390a150505050565b6000611ef082610d45565b6001600160a01b038316600090815260a16020526040902054909150151580611f2f57506001600160a01b0382166000908152609d6020526040902054155b611f7b5760405162461bcd60e51b815260206004820152601c60248201527f4163636f756e74206d757374206265206e6f6e2d7265626173696e670000000060448201526064016105f0565b6001600160a01b038216600090815260a2602052604090205460ff166001816004811115611fab57611fab612350565b1480611fc857506000816004811115611fc657611fc6612350565b145b61202b5760405162461bcd60e51b815260206004820152602e60248201527f4f6e6c79207374616e64617264206e6f6e2d7265626173696e67206163636f7560448201526d373a399031b0b71037b83a1034b760911b60648201526084016105f0565b600061203683611852565b6001600160a01b038516600090815260a260209081526040808320805460ff1916600217905560a18252808320839055609d9091529020819055905061208761207e82611893565b61138585611893565b6040516001600160a01b03851681527f19a249fa2050bac8314ac10e3ad420bd9825574bf750f58810c3c7adfc7b1c6f90602001611ed7565b6000808212156118fd5760405162461bcd60e51b815260206004820181905260248201527f53616665436173743a2076616c7565206d75737420626520706f73697469766560448201526064016105f0565b6001600160a01b0381163b600081158061217457508160171480156121745750826001600160a01b0316803b806020016040519081016040528181526000908060200190933c6121619061257a565b6001600160e81b03191662ef010060e81b145b9050801580156121ae57506001600160a01b038316600090815260a2602052604081205460ff1660048111156121ac576121ac612350565b145b80156121d057506001600160a01b038316600090815260a16020526040902054155b156121de576121de83611d0a565b505050565b806001600160a01b03166122036000805160206125d88339815191525490565b6001600160a01b03167fc7c0c772add429241571afb3805861fb3cfa2af374534088b76cdb4325a87e9a60405160405180910390a36000805160206125d883398151915255565b6001600160a01b0381168114610b5a57600080fd5b60006020828403121561227157600080fd5b8135610e2c8161224a565b602081526000825180602084015260005b818110156122aa576020818601810151604086840101520161228d565b506000604082850101526040601f19601f83011684010191505092915050565b600080604083850312156122dd57600080fd5b82356122e88161224a565b946020939093013593505050565b60008060006060848603121561230b57600080fd5b83356123168161224a565b925060208401356123268161224a565b929592945050506040919091013590565b60006020828403121561234957600080fd5b5035919050565b634e487b7160e01b600052602160045260246000fd5b602081016005831061238857634e487b7160e01b600052602160045260246000fd5b91905290565b600080604083850312156123a157600080fd5b82356123ac8161224a565b915060208301356123bc8161224a565b809150509250929050565b6000602082840312156123d957600080fd5b8151610e2c8161224a565b60208082526028908201527f43616c6c6572206973206e6f74207468652053747261746567697374206f722060408201526723b7bb32b93737b960c11b606082015260800190565b634e487b7160e01b600052601160045260246000fd5b81810360008312801583831316838312821617156124625761246261242c565b5092915050565b60008261248657634e487b7160e01b600052601260045260246000fd5b500490565b60208082526017908201527f43616c6c6572206973206e6f7420746865205661756c74000000000000000000604082015260600190565b818103818111156108325761083261242c565b80820281158282048414176108325761083261242c565b808201808211156108325761083261242c565b6000600160ff1b82016125145761251461242c565b5060000390565b6020808252601a908201527f43616c6c6572206973206e6f742074686520476f7665726e6f72000000000000604082015260600190565b80820182811260008312801582168215821617156125725761257261242c565b505092915050565b805160208201516001600160e81b03198116919060038210156125b0576001600160e81b03196003838103901b81901b82161692505b505091905056feddf252ad1be2c89b69c2b068fc378daa952ba7f163c4a11628f55a4df523b3ef7bea13895fa79d2831e0a9e28edede30099005a50d652d8957cf8a607ee6ca4aa2646970667358221220108513ec8beb26dd8db3557a841c83409c82de8ac9643e9e3f56f58c9c59b96664736f6c634300081c0033",
  "libraries": {},
  "devdoc": {
    "events": {
      "AccountRebasingDisabled(address)": {
        "details": "Event triggered when an account opts out of rebasing",
        "params": {
          "account": "Address of the account"
        }
      },
      "AccountRebasingEnabled(address)": {
        "details": "Event triggered when an account opts in for rebasing",
        "params": {
          "account": "Address of the account"
        }
      },
      "Approval(address,address,uint256)": {
        "details": "Emitted when the allowance of a `spender` for an `owner` is set by      a call to {approve}. `value` is the new allowance.",
        "params": {
          "owner": "Address of the owner approving allowance",
          "spender": "Address of the spender allowance is granted to",
          "value": "Amount of tokens spender can transfer"
        }
      },
      "TotalSupplyUpdatedHighres(uint256,uint256,uint256)": {
        "details": "Event triggered when the supply changes",
        "params": {
          "rebasingCredits": "Updated token rebasing credits",
          "rebasingCreditsPerToken": "Updated token rebasing credits per token",
          "totalSupply": "Updated token total supply"
        }
      },
      "Transfer(address,address,uint256)": {
        "details": "Emitted when `value` tokens are moved from one account `from` to      another `to`.",
        "params": {
          "from": "Address of the account tokens are moved from",
          "to": "Address of the account tokens are moved to",
          "value": "Amount of tokens transferred"
        }
      },
      "YieldDelegated(address,address)": {
        "details": "Yield resulting from {changeSupply} that a `source` account would      receive is directed to `target` account.",
        "params": {
          "source": "Address of the source forwarding the yield",
          "target": "Address of the target receiving the yield"
        }
      },
      "YieldUndelegated(address,address)": {
        "details": "Yield delegation from `source` account to the `target` account is      suspended.",
        "params": {
          "source": "Address of the source suspending yield forwarding",
          "target": "Address of the target no longer receiving yield from `source`        account"
        }
      }
    },
    "kind": "dev",
    "methods": {
      "allowance(address,address)": {
        "params": {
          "_owner": "The address which owns the funds.",
          "_spender": "The address which will spend the funds."
        },
        "returns": {
          "_0": "The number of tokens still available for the _spender."
        }
      },
      "approve(address,uint256)": {
        "params": {
          "_spender": "The address which will spend the funds.",
          "_value": "The amount of tokens to be spent."
        },
        "returns": {
          "_0": "true on success."
        }
      },
      "balanceOf(address)": {
        "params": {
          "_account": "Address to query the balance of."
        },
        "returns": {
          "_0": "A uint256 representing the amount of base units owned by the         specified address."
        }
      },
      "changeSupply(uint256)": {
        "params": {
          "_newTotalSupply": "New total supply of OUSD."
        }
      },
      "creditsBalanceOf(address)": {
        "details": "Backwards compatible with old low res credits per token.",
        "params": {
          "_account": "The address to query the balance of."
        },
        "returns": {
          "_0": "(uint256, uint256) Credit balance and credits per token of the         address"
        }
      },
      "creditsBalanceOfHighres(address)": {
        "params": {
          "_account": "The address to query the balance of."
        },
        "returns": {
          "_0": "(uint256, uint256, bool) Credit balance, credits per token of the         address, and isUpgraded"
        }
      },
      "decimals()": {
        "details": "Returns the number of decimals used to get its user representation."
      },
      "governanceRebaseOptIn(address)": {
        "params": {
          "_account": "Address of the account."
        }
      },
      "initialize(address,uint256)": {
        "details": "Initializes the contract and sets necessary variables.",
        "params": {
          "_initialCreditsPerToken": "The starting rebasing credits per token.",
          "_vaultAddress": "Address of the vault contract"
        }
      },
      "name()": {
        "details": "Returns the name of the token."
      },
      "rebasingCredits()": {
        "returns": {
          "_0": "Low resolution total number of rebasing credits"
        }
      },
      "rebasingCreditsHighres()": {
        "returns": {
          "_0": "High resolution total number of rebasing credits"
        }
      },
      "rebasingCreditsPerToken()": {
        "returns": {
          "_0": "Low resolution rebasingCreditsPerToken"
        }
      },
      "rebasingCreditsPerTokenHighres()": {
        "returns": {
          "_0": "High resolution rebasingCreditsPerToken"
        }
      },
      "symbol()": {
        "details": "Returns the symbol of the token, a shorter version      of the name."
      },
      "transfer(address,uint256)": {
        "params": {
          "_to": "the address to transfer to.",
          "_value": "the amount to be transferred."
        },
        "returns": {
          "_0": "true on success."
        }
      },
      "transferFrom(address,address,uint256)": {
        "params": {
          "_from": "The address you want to send tokens from.",
          "_to": "The address you want to transfer to.",
          "_value": "The amount of tokens to be transferred."
        },
        "returns": {
          "_0": "true on success."
        }
      },
      "transferGovernance(address)": {
        "params": {
          "_newGovernor": "Address of the new Governor"
        }
      }
    },
    "stateVariables": {
      "nonRebasingSupply": {
        "details": "The amount of tokens that are not rebasing - receiving yield"
      },
      "rebaseState": {
        "details": "A map of all addresses and their respective RebaseOptions"
      },
      "totalSupply": {
        "details": "The amount of tokens in existence"
      },
      "vaultAddress": {
        "details": "The vault with privileges to execute {mint}, {burn}     and {changeSupply}"
      },
      "yieldFrom": {
        "details": "A map of addresses that are receiving the yield. This is an      inverse mapping of {yieldTo} Key Account receiving yield Value Account forwarding yield"
      },
      "yieldTo": {
        "details": "A map of addresses that have yields forwarded to. This is an      inverse mapping of {yieldFrom} Key Account forwarding yield Value Account receiving yield"
      }
    },
    "version": 1
  },
  "userdoc": {
    "kind": "user",
    "methods": {
      "allowance(address,address)": {
        "notice": "Function to check the amount of tokens that _owner has allowed      to `_spender`."
      },
      "approve(address,uint256)": {
        "notice": "Approve the passed address to spend the specified amount of      tokens on behalf of msg.sender."
      },
      "balanceOf(address)": {
        "notice": "Gets the balance of the specified address."
      },
      "burn(address,uint256)": {
        "notice": "Destroys `_amount` tokens from `_account`,     reducing the total supply."
      },
      "changeSupply(uint256)": {
        "notice": "Distribute yield to users. This changes the exchange rate  between \"credits\" and OUSD tokens to change rebasing user's balances."
      },
      "claimGovernance()": {
        "notice": "Claim Governance of the contract to a new account (`newGovernor`). Can only be called by the new Governor."
      },
      "creditsBalanceOf(address)": {
        "notice": "Gets the credits balance of the specified address."
      },
      "creditsBalanceOfHighres(address)": {
        "notice": "Gets the credits balance of the specified address."
      },
      "governanceRebaseOptIn(address)": {
        "notice": "The calling account will start receiving yield after a successful call."
      },
      "governor()": {
        "notice": "Returns the address of the current Governor."
      },
      "isGovernor()": {
        "notice": "Returns true if the caller is the current Governor."
      },
      "mint(address,uint256)": {
        "notice": "Creates `_amount` tokens and assigns them to `_account`,     increasing the total supply."
      },
      "rebaseOptIn()": {
        "notice": "The calling account will start receiving yield after a successful call."
      },
      "rebaseOptOut()": {
        "notice": "The calling account will no longer receive yield"
      },
      "transfer(address,uint256)": {
        "notice": "Transfer tokens to a specified address."
      },
      "transferFrom(address,address,uint256)": {
        "notice": "Transfer tokens from one address to another."
      },
      "transferGovernance(address)": {
        "notice": "Transfers Governance of the contract to a new account (`newGovernor`). Can only be called by the current Governor. Must be claimed for this to complete"
      }
    },
    "version": 1
  },
  "storageLayout": {
    "storage": [
      {
        "astId": 46176,
        "contract": "contracts/token/OUSD.sol:OUSD",
        "label": "_gap",
        "offset": 0,
        "slot": "0",
        "type": "t_array(t_uint256)154_storage"
      },
      {
        "astId": 46186,
        "contract": "contracts/token/OUSD.sol:OUSD",
        "label": "totalSupply",
        "offset": 0,
        "slot": "154",
        "type": "t_uint256"
      },
      {
        "astId": 46192,
        "contract": "contracts/token/OUSD.sol:OUSD",
        "label": "allowances",
        "offset": 0,
        "slot": "155",
        "type": "t_mapping(t_address,t_mapping(t_address,t_uint256))"
      },
      {
        "astId": 46195,
        "contract": "contracts/token/OUSD.sol:OUSD",
        "label": "vaultAddress",
        "offset": 0,
        "slot": "156",
        "type": "t_address"
      },
      {
        "astId": 46199,
        "contract": "contracts/token/OUSD.sol:OUSD",
        "label": "creditBalances",
        "offset": 0,
        "slot": "157",
        "type": "t_mapping(t_address,t_uint256)"
      },
      {
        "astId": 46201,
        "contract": "contracts/token/OUSD.sol:OUSD",
        "label": "rebasingCredits_",
        "offset": 0,
        "slot": "158",
        "type": "t_uint256"
      },
      {
        "astId": 46203,
        "contract": "contracts/token/OUSD.sol:OUSD",
        "label": "rebasingCreditsPerToken_",
        "offset": 0,
        "slot": "159",
        "type": "t_uint256"
      },
      {
        "astId": 46206,
        "contract": "contracts/token/OUSD.sol:OUSD",
        "label": "nonRebasingSupply",
        "offset": 0,
        "slot": "160",
        "type": "t_uint256"
      },
      {
        "astId": 46210,
        "contract": "contracts/token/OUSD.sol:OUSD",
        "label": "alternativeCreditsPerToken",
        "offset": 0,
        "slot": "161",
        "type": "t_mapping(t_address,t_uint256)"
      },
      {
        "astId": 46216,
        "contract": "contracts/token/OUSD.sol:OUSD",
        "label": "rebaseState",
        "offset": 0,
        "slot": "162",
        "type": "t_mapping(t_address,t_enum(RebaseOptions)46172)"
      },
      {
        "astId": 46220,
        "contract": "contracts/token/OUSD.sol:OUSD",
        "label": "__deprecated_isUpgraded",
        "offset": 0,
        "slot": "163",
        "type": "t_mapping(t_address,t_uint256)"
      },
      {
        "astId": 46225,
        "contract": "contracts/token/OUSD.sol:OUSD",
        "label": "yieldTo",
        "offset": 0,
        "slot": "164",
        "type": "t_mapping(t_address,t_address)"
      },
      {
        "astId": 46230,
        "contract": "contracts/token/OUSD.sol:OUSD",
        "label": "yieldFrom",
        "offset": 0,
        "slot": "165",
        "type": "t_mapping(t_address,t_address)"
      },
      {
        "astId": 46237,
        "contract": "contracts/token/OUSD.sol:OUSD",
        "label": "__gap",
        "offset": 0,
        "slot": "166",
        "type": "t_array(t_uint256)34_storage"
      }
    ],
    "types": {
      "t_address": {
        "encoding": "inplace",
        "label": "address",
        "numberOfBytes": "20"
      },
      "t_array(t_uint256)154_storage": {
        "base": "t_uint256",
        "encoding": "inplace",
        "label": "uint256[154]",
        "numberOfBytes": "4928"
      },
      "t_array(t_uint256)34_storage": {
        "base": "t_uint256",
        "encoding": "inplace",
        "label": "uint256[34]",
        "numberOfBytes": "1088"
      },
      "t_enum(RebaseOptions)46172": {
        "encoding": "inplace",
        "label": "enum OUSD.RebaseOptions",
        "numberOfBytes": "1"
      },
      "t_mapping(t_address,t_address)": {
        "encoding": "mapping",
        "key": "t_address",
        "label": "mapping(address => address)",
        "numberOfBytes": "32",
        "value": "t_address"
      },
      "t_mapping(t_address,t_enum(RebaseOptions)46172)": {
        "encoding": "mapping",
        "key": "t_address",
        "label": "mapping(address => enum OUSD.RebaseOptions)",
        "numberOfBytes": "32",
        "value": "t_enum(RebaseOptions)46172"
      },
      "t_mapping(t_address,t_mapping(t_address,t_uint256))": {
        "encoding": "mapping",
        "key": "t_address",
        "label": "mapping(address => mapping(address => uint256))",
        "numberOfBytes": "32",
        "value": "t_mapping(t_address,t_uint256)"
      },
      "t_mapping(t_address,t_uint256)": {
        "encoding": "mapping",
        "key": "t_address",
        "label": "mapping(address => uint256)",
        "numberOfBytes": "32",
        "value": "t_uint256"
      },
      "t_uint256": {
        "encoding": "inplace",
        "label": "uint256",
        "numberOfBytes": "32"
      }
    }
  }
}