{
  "address": "0x33db8d52d65F75E4cdDA1b02463760c9561A2aa1",
  "abi": [
    {
      "anonymous": false,
      "inputs": [
        {
          "indexed": true,
          "internalType": "address",
          "name": "owner",
          "type": "address"
        },
        {
          "indexed": true,
          "internalType": "address",
          "name": "spender",
          "type": "address"
        },
        {
          "indexed": false,
          "internalType": "uint256",
          "name": "value",
          "type": "uint256"
        }
      ],
      "name": "Approval",
      "type": "event"
    },
    {
      "anonymous": false,
      "inputs": [
        {
          "indexed": true,
          "internalType": "address",
          "name": "previousGovernor",
          "type": "address"
        },
        {
          "indexed": true,
          "internalType": "address",
          "name": "newGovernor",
          "type": "address"
        }
      ],
      "name": "GovernorshipTransferred",
      "type": "event"
    },
    {
      "anonymous": false,
      "inputs": [
        {
          "indexed": true,
          "internalType": "address",
          "name": "previousGovernor",
          "type": "address"
        },
        {
          "indexed": true,
          "internalType": "address",
          "name": "newGovernor",
          "type": "address"
        }
      ],
      "name": "PendingGovernorshipTransfer",
      "type": "event"
    },
    {
      "anonymous": false,
      "inputs": [
        {
          "indexed": false,
          "internalType": "uint256",
          "name": "totalSupply",
          "type": "uint256"
        },
        {
          "indexed": false,
          "internalType": "uint256",
          "name": "rebasingCredits",
          "type": "uint256"
        },
        {
          "indexed": false,
          "internalType": "uint256",
          "name": "rebasingCreditsPerToken",
          "type": "uint256"
        }
      ],
      "name": "TotalSupplyUpdatedHighres",
      "type": "event"
    },
    {
      "anonymous": false,
      "inputs": [
        {
          "indexed": true,
          "internalType": "address",
          "name": "from",
          "type": "address"
        },
        {
          "indexed": true,
          "internalType": "address",
          "name": "to",
          "type": "address"
        },
        {
          "indexed": false,
          "internalType": "uint256",
          "name": "value",
          "type": "uint256"
        }
      ],
      "name": "Transfer",
      "type": "event"
    },
    {
      "inputs": [],
      "name": "_totalSupply",
      "outputs": [
        {
          "internalType": "uint256",
          "name": "",
          "type": "uint256"
        }
      ],
      "stateMutability": "view",
      "type": "function"
    },
    {
      "inputs": [
        {
          "internalType": "address",
          "name": "_owner",
          "type": "address"
        },
        {
          "internalType": "address",
          "name": "_spender",
          "type": "address"
        }
      ],
      "name": "allowance",
      "outputs": [
        {
          "internalType": "uint256",
          "name": "",
          "type": "uint256"
        }
      ],
      "stateMutability": "view",
      "type": "function"
    },
    {
      "inputs": [
        {
          "internalType": "address",
          "name": "_spender",
          "type": "address"
        },
        {
          "internalType": "uint256",
          "name": "_value",
          "type": "uint256"
        }
      ],
      "name": "approve",
      "outputs": [
        {
          "internalType": "bool",
          "name": "",
          "type": "bool"
        }
      ],
      "stateMutability": "nonpayable",
      "type": "function"
    },
    {
      "inputs": [
        {
          "internalType": "address",
          "name": "_account",
          "type": "address"
        }
      ],
      "name": "balanceOf",
      "outputs": [
        {
          "internalType": "uint256",
          "name": "",
          "type": "uint256"
        }
      ],
      "stateMutability": "view",
      "type": "function"
    },
    {
      "inputs": [
        {
          "internalType": "address",
          "name": "account",
          "type": "address"
        },
        {
          "internalType": "uint256",
          "name": "amount",
          "type": "uint256"
        }
      ],
      "name": "burn",
      "outputs": [],
      "stateMutability": "nonpayable",
      "type": "function"
    },
    {
      "inputs": [
        {
          "internalType": "uint256",
          "name": "_newTotalSupply",
          "type": "uint256"
        }
      ],
      "name": "changeSupply",
      "outputs": [],
      "stateMutability": "nonpayable",
      "type": "function"
    },
    {
      "inputs": [],
      "name": "claimGovernance",
      "outputs": [],
      "stateMutability": "nonpayable",
      "type": "function"
    },
    {
      "inputs": [
        {
          "internalType": "address",
          "name": "_account",
          "type": "address"
        }
      ],
      "name": "creditsBalanceOf",
      "outputs": [
        {
          "internalType": "uint256",
          "name": "",
          "type": "uint256"
        },
        {
          "internalType": "uint256",
          "name": "",
          "type": "uint256"
        }
      ],
      "stateMutability": "view",
      "type": "function"
    },
    {
      "inputs": [
        {
          "internalType": "address",
          "name": "_account",
          "type": "address"
        }
      ],
      "name": "creditsBalanceOfHighres",
      "outputs": [
        {
          "internalType": "uint256",
          "name": "",
          "type": "uint256"
        },
        {
          "internalType": "uint256",
          "name": "",
          "type": "uint256"
        },
        {
          "internalType": "bool",
          "name": "",
          "type": "bool"
        }
      ],
      "stateMutability": "view",
      "type": "function"
    },
    {
      "inputs": [],
      "name": "decimals",
      "outputs": [
        {
          "internalType": "uint8",
          "name": "",
          "type": "uint8"
        }
      ],
      "stateMutability": "view",
      "type": "function"
    },
    {
      "inputs": [
        {
          "internalType": "address",
          "name": "_spender",
          "type": "address"
        },
        {
          "internalType": "uint256",
          "name": "_subtractedValue",
          "type": "uint256"
        }
      ],
      "name": "decreaseAllowance",
      "outputs": [
        {
          "internalType": "bool",
          "name": "",
          "type": "bool"
        }
      ],
      "stateMutability": "nonpayable",
      "type": "function"
    },
    {
      "inputs": [],
      "name": "governor",
      "outputs": [
        {
          "internalType": "address",
          "name": "",
          "type": "address"
        }
      ],
      "stateMutability": "view",
      "type": "function"
    },
    {
      "inputs": [
        {
          "internalType": "address",
          "name": "_spender",
          "type": "address"
        },
        {
          "internalType": "uint256",
          "name": "_addedValue",
          "type": "uint256"
        }
      ],
      "name": "increaseAllowance",
      "outputs": [
        {
          "internalType": "bool",
          "name": "",
          "type": "bool"
        }
      ],
      "stateMutability": "nonpayable",
      "type": "function"
    },
    {
      "inputs": [
        {
          "internalType": "string",
          "name": "_nameArg",
          "type": "string"
        },
        {
          "internalType": "string",
          "name": "_symbolArg",
          "type": "string"
        },
        {
          "internalType": "address",
          "name": "_vaultAddress",
          "type": "address"
        }
      ],
      "name": "initialize",
      "outputs": [],
      "stateMutability": "nonpayable",
      "type": "function"
    },
    {
      "inputs": [],
      "name": "isGovernor",
      "outputs": [
        {
          "internalType": "bool",
          "name": "",
          "type": "bool"
        }
      ],
      "stateMutability": "view",
      "type": "function"
    },
    {
      "inputs": [
        {
          "internalType": "address",
          "name": "",
          "type": "address"
        }
      ],
      "name": "isUpgraded",
      "outputs": [
        {
          "internalType": "uint256",
          "name": "",
          "type": "uint256"
        }
      ],
      "stateMutability": "view",
      "type": "function"
    },
    {
      "inputs": [
        {
          "internalType": "address",
          "name": "_account",
          "type": "address"
        },
        {
          "internalType": "uint256",
          "name": "_amount",
          "type": "uint256"
        }
      ],
      "name": "mint",
      "outputs": [],
      "stateMutability": "nonpayable",
      "type": "function"
    },
    {
      "inputs": [],
      "name": "name",
      "outputs": [
        {
          "internalType": "string",
          "name": "",
          "type": "string"
        }
      ],
      "stateMutability": "view",
      "type": "function"
    },
    {
      "inputs": [
        {
          "internalType": "address",
          "name": "",
          "type": "address"
        }
      ],
      "name": "nonRebasingCreditsPerToken",
      "outputs": [
        {
          "internalType": "uint256",
          "name": "",
          "type": "uint256"
        }
      ],
      "stateMutability": "view",
      "type": "function"
    },
    {
      "inputs": [],
      "name": "nonRebasingSupply",
      "outputs": [
        {
          "internalType": "uint256",
          "name": "",
          "type": "uint256"
        }
      ],
      "stateMutability": "view",
      "type": "function"
    },
    {
      "inputs": [],
      "name": "rebaseOptIn",
      "outputs": [],
      "stateMutability": "nonpayable",
      "type": "function"
    },
    {
      "inputs": [],
      "name": "rebaseOptOut",
      "outputs": [],
      "stateMutability": "nonpayable",
      "type": "function"
    },
    {
      "inputs": [
        {
          "internalType": "address",
          "name": "",
          "type": "address"
        }
      ],
      "name": "rebaseState",
      "outputs": [
        {
          "internalType": "enum OUSD.RebaseOptions",
          "name": "",
          "type": "uint8"
        }
      ],
      "stateMutability": "view",
      "type": "function"
    },
    {
      "inputs": [],
      "name": "rebasingCredits",
      "outputs": [
        {
          "internalType": "uint256",
          "name": "",
          "type": "uint256"
        }
      ],
      "stateMutability": "view",
      "type": "function"
    },
    {
      "inputs": [],
      "name": "rebasingCreditsHighres",
      "outputs": [
        {
          "internalType": "uint256",
          "name": "",
          "type": "uint256"
        }
      ],
      "stateMutability": "view",
      "type": "function"
    },
    {
      "inputs": [],
      "name": "rebasingCreditsPerToken",
      "outputs": [
        {
          "internalType": "uint256",
          "name": "",
          "type": "uint256"
        }
      ],
      "stateMutability": "view",
      "type": "function"
    },
    {
      "inputs": [],
      "name": "rebasingCreditsPerTokenHighres",
      "outputs": [
        {
          "internalType": "uint256",
          "name": "",
          "type": "uint256"
        }
      ],
      "stateMutability": "view",
      "type": "function"
    },
    {
      "inputs": [],
      "name": "symbol",
      "outputs": [
        {
          "internalType": "string",
          "name": "",
          "type": "string"
        }
      ],
      "stateMutability": "view",
      "type": "function"
    },
    {
      "inputs": [],
      "name": "totalSupply",
      "outputs": [
        {
          "internalType": "uint256",
          "name": "",
          "type": "uint256"
        }
      ],
      "stateMutability": "view",
      "type": "function"
    },
    {
      "inputs": [
        {
          "internalType": "address",
          "name": "_to",
          "type": "address"
        },
        {
          "internalType": "uint256",
          "name": "_value",
          "type": "uint256"
        }
      ],
      "name": "transfer",
      "outputs": [
        {
          "internalType": "bool",
          "name": "",
          "type": "bool"
        }
      ],
      "stateMutability": "nonpayable",
      "type": "function"
    },
    {
      "inputs": [
        {
          "internalType": "address",
          "name": "_from",
          "type": "address"
        },
        {
          "internalType": "address",
          "name": "_to",
          "type": "address"
        },
        {
          "internalType": "uint256",
          "name": "_value",
          "type": "uint256"
        }
      ],
      "name": "transferFrom",
      "outputs": [
        {
          "internalType": "bool",
          "name": "",
          "type": "bool"
        }
      ],
      "stateMutability": "nonpayable",
      "type": "function"
    },
    {
      "inputs": [
        {
          "internalType": "address",
          "name": "_newGovernor",
          "type": "address"
        }
      ],
      "name": "transferGovernance",
      "outputs": [],
      "stateMutability": "nonpayable",
      "type": "function"
    },
    {
      "inputs": [],
      "name": "vaultAddress",
      "outputs": [
        {
          "internalType": "address",
          "name": "",
          "type": "address"
        }
      ],
      "stateMutability": "view",
      "type": "function"
    }
  ],
  "transactionHash": "0xc9b6fc6a4fad18dad197ff7d0636f74bf066671d75656849a1c45122e00d54cf",
  "args": [],
  "solcInputHash": "713b8d277c4f5ddf94b91b3e17ac2dbc",
  "bytecode": "0x6080604052609c80546001600160a01b031916905534801561002057600080fd5b506100373360008051602061201b83398151915255565b60008051602061201b833981519152546040516001600160a01b03909116906000907fc7c0c772add429241571afb3805861fb3cfa2af374534088b76cdb4325a87e9a908290a3611f8e8061008d6000396000f3fe608060405234801561001057600080fd5b50600436106101fb5760003560e01c80636691cb3d1161011a578063a9059cbb116100ad578063dd62ed3e1161007c578063dd62ed3e14610418578063e5c4fffe14610451578063e696393a14610481578063f51b0fd41461048a578063f9854bfc1461049257600080fd5b8063a9059cbb146103e2578063c2376dff146103f5578063c7af3352146103fd578063d38bfff41461040557600080fd5b806395d89b41116100e957806395d89b411461039457806395ef84b91461039c5780639dc29fac146103bc578063a457c2d7146103cf57600080fd5b80636691cb3d1461036957806370a08231146103715780637a46a9c5146103845780637d0d66ff1461038c57600080fd5b80633950935111610192578063430bf08a11610161578063430bf08a146102fe578063456ee286146103115780635d36b19014610341578063609350cd1461034957600080fd5b806339509351146102bc57806339a7919f146102cf5780633eaaf86b146102e257806340c10f19146102eb57600080fd5b80630c340a24116101ce5780630c340a241461026c57806318160ddd1461028c57806323b872dd14610294578063313ce567146102a757600080fd5b806306fdde0314610200578063077f224a1461021e578063077f22b714610233578063095ea7b314610249575b600080fd5b6102086104ba565b6040516102159190611d6d565b60405180910390f35b61023161022c366004611cab565b61054c565b005b61023b6106fa565b604051908152602001610215565b61025c610257366004611c81565b610713565b6040519015158152602001610215565b61027461077f565b6040516001600160a01b039091168152602001610215565b609a5461023b565b61025c6102a2366004611c45565b610797565b60995460405160ff9091168152602001610215565b61025c6102ca366004611c81565b6108e4565b6102316102dd366004611d2c565b610969565b61023b609a5481565b6102316102f9366004611c81565b610b72565b609c54610274906001600160a01b031681565b61033461031f366004611bf7565b60a26020526000908152604090205460ff1681565b6040516102159190611d45565b610231610baa565b61023b610357366004611bf7565b60a16020526000908152604090205481565b61023b610c50565b61023b61037f366004611bf7565b610c64565b609f5461023b565b609e5461023b565b610208610cba565b61023b6103aa366004611bf7565b60a36020526000908152604090205481565b6102316103ca366004611c81565b610cc9565b61025c6103dd366004611c81565b610cfd565b61025c6103f0366004611c81565b610de4565b610231610ec5565b61025c610fb9565b610231610413366004611bf7565b610fea565b61023b610426366004611c12565b6001600160a01b039182166000908152609b6020908152604080832093909416825291909152205490565b61046461045f366004611bf7565b6110be565b604080519384526020840192909252151590820152606001610215565b61023b60a05481565b61023161110d565b6104a56104a0366004611bf7565b611231565b60408051928352602083019190915201610215565b6060609780546104c990611e91565b80601f01602080910402602001604051908101604052809291908181526020018280546104f590611e91565b80156105425780601f1061051757610100808354040283529160200191610542565b820191906000526020600020905b81548152906001019060200180831161052557829003601f168201915b5050505050905090565b610554610fb9565b6105a55760405162461bcd60e51b815260206004820152601a60248201527f43616c6c6572206973206e6f742074686520476f7665726e6f7200000000000060448201526064015b60405180910390fd5b600054610100900460ff16806105be575060005460ff16155b6106215760405162461bcd60e51b815260206004820152602e60248201527f496e697469616c697a61626c653a20636f6e747261637420697320616c72656160448201526d191e481a5b9a5d1a585b1a5e995960921b606482015260840161059c565b600054610100900460ff16158015610643576000805461ffff19166101011790555b6106b986868080601f01602080910402602001604051908101604052809392919081815260200183838082843760009201919091525050604080516020601f8a018190048102820181019092528881529250889150879081908401838280828437600092019190915250601292506112b5915050565b670de0b6b3a7640000609f55609c80546001600160a01b0319166001600160a01b03841617905580156106f2576000805461ff00191690555b505050505050565b6000633b9aca00609e5461070e9190611e39565b905090565b336000818152609b602090815260408083206001600160a01b038716808552925280832085905551919290917f8c5be1e5ebec7d5bd14f71427d1e84f3dd0314c0f7b2291e5b200ac8c7c3b9259061076e9086815260200190565b60405180910390a350600192915050565b600061070e600080516020611f398339815191525490565b60006001600160a01b0383166107ea5760405162461bcd60e51b81526020600482015260186024820152775472616e7366657220746f207a65726f206164647265737360401b604482015260640161059c565b6107f384610c64565b8211156108425760405162461bcd60e51b815260206004820152601d60248201527f5472616e736665722067726561746572207468616e2062616c616e6365000000604482015260640161059c565b6001600160a01b0384166000908152609b6020908152604080832033845290915290205461087090836112f5565b6001600160a01b0385166000908152609b6020908152604080832033845290915290205561089f848484611308565b826001600160a01b0316846001600160a01b0316600080516020611f19833981519152846040516108d291815260200190565b60405180910390a35060019392505050565b336000908152609b602090815260408083206001600160a01b03861684529091528120546109129083611476565b336000818152609b602090815260408083206001600160a01b038916808552908352928190208590555193845290927f8c5be1e5ebec7d5bd14f71427d1e84f3dd0314c0f7b2291e5b200ac8c7c3b925910161076e565b609c546001600160a01b031633146109935760405162461bcd60e51b815260040161059c90611dc2565b600080516020611ef9833981519152805460028114156109c55760405162461bcd60e51b815260040161059c90611df9565b600282556000609a5411610a1b5760405162461bcd60e51b815260206004820152601860248201527f43616e6e6f7420696e637265617365203020737570706c790000000000000000604482015260640161059c565b82609a541415610a7157609a54609e54609f5460408051938452602084019290925282820152517f41645eb819d3011b13f97696a8109d14bfcddfaca7d063ec0564d62a3e2572359181900360600190a1610b6a565b6001600160801b038311610a855782610a8e565b6001600160801b035b609a81905560a054610aac91610aa3916112f5565b609e5490611482565b609f819055610afd5760405162461bcd60e51b815260206004820152601860248201527f496e76616c6964206368616e676520696e20737570706c790000000000000000604482015260640161059c565b610b2060a054610b1a609f54609e5461148290919063ffffffff16565b90611476565b609a819055609e54609f5460408051938452602084019290925282820152517f41645eb819d3011b13f97696a8109d14bfcddfaca7d063ec0564d62a3e2572359181900360600190a15b506001905550565b609c546001600160a01b03163314610b9c5760405162461bcd60e51b815260040161059c90611dc2565b610ba682826114ab565b5050565b7f44c4d30b2eaad5130ad70c3ba6972730566f3e6359ab83e800d905c61b1c51db546001600160a01b0316336001600160a01b031614610c455760405162461bcd60e51b815260206004820152603060248201527f4f6e6c79207468652070656e64696e6720476f7665726e6f722063616e20636f60448201526f6d706c6574652074686520636c61696d60801b606482015260840161059c565b610c4e3361164c565b565b6000633b9aca00609f5461070e9190611e39565b6001600160a01b0381166000908152609d6020526040812054610c8957506000919050565b610cb4610c9583611710565b6001600160a01b0384166000908152609d602052604090205490611482565b92915050565b6060609880546104c990611e91565b609c546001600160a01b03163314610cf35760405162461bcd60e51b815260040161059c90611dc2565b610ba68282611757565b336000908152609b602090815260408083206001600160a01b0386168452909152812054808310610d5157336000908152609b602090815260408083206001600160a01b0388168452909152812055610d80565b610d5b81846112f5565b336000908152609b602090815260408083206001600160a01b03891684529091529020555b336000818152609b602090815260408083206001600160a01b038916808552908352928190205490519081529192917f8c5be1e5ebec7d5bd14f71427d1e84f3dd0314c0f7b2291e5b200ac8c7c3b925910160405180910390a35060019392505050565b60006001600160a01b038316610e375760405162461bcd60e51b81526020600482015260186024820152775472616e7366657220746f207a65726f206164647265737360401b604482015260640161059c565b610e4033610c64565b821115610e8f5760405162461bcd60e51b815260206004820152601d60248201527f5472616e736665722067726561746572207468616e2062616c616e6365000000604482015260640161059c565b610e9a338484611308565b6040518281526001600160a01b038416903390600080516020611f198339815191529060200161076e565b600080516020611ef983398151915280546002811415610ef75760405162461bcd60e51b815260040161059c90611df9565b60028255610f0433611960565b15610f515760405162461bcd60e51b815260206004820152601860248201527f4163636f756e7420686173206e6f74206f7074656420696e0000000000000000604482015260640161059c565b610f66610f5d33610c64565b60a05490611476565b60a055609f5433600090815260a16020908152604080832093909355609d90522054609e54610f94916112f5565b609e555033600090815260a260205260409020805460ff191660019081179091559055565b6000610fd1600080516020611f398339815191525490565b6001600160a01b0316336001600160a01b031614905090565b610ff2610fb9565b61103e5760405162461bcd60e51b815260206004820152601a60248201527f43616c6c6572206973206e6f742074686520476f7665726e6f72000000000000604482015260640161059c565b611066817f44c4d30b2eaad5130ad70c3ba6972730566f3e6359ab83e800d905c61b1c51db55565b806001600160a01b0316611086600080516020611f398339815191525490565b6001600160a01b03167fa39cc5eb22d0f34d8beaefee8a3f17cc229c1a1d1ef87a5ad47313487b1c4f0d60405160405180910390a350565b6001600160a01b0381166000908152609d6020526040812054819081906110e485611710565b6001600160a01b0395909516600090815260a36020526040902054909560019091149350915050565b600080516020611ef98339815191528054600281141561113f5760405162461bcd60e51b815260040161059c90611df9565b6002825561114c33611960565b6111985760405162461bcd60e51b815260206004820152601960248201527f4163636f756e7420686173206e6f74206f70746564206f757400000000000000604482015260640161059c565b60006111c86111a633611710565b609f54336000908152609d60205260409020546111c2916119cb565b906119d7565b90506111df6111d633610c64565b60a054906112f5565b60a055336000908152609d60205260409020819055609e546112019082611476565b609e55505033600090815260a260209081526040808320805460ff1916600217905560a190915281205560019055565b600080600061123f84611710565b9050806b033b2e3c9fd0803ce80000001415611275576001600160a01b039093166000908152609d602052604090205493915050565b6001600160a01b0384166000908152609d602052604090205461129d90633b9aca0090611e39565b6112ab633b9aca0083611e39565b9250925050915091565b82516112c8906097906020860190611afe565b5081516112dc906098906020850190611afe565b506099805460ff191660ff929092169190911790555050565b60006113018284611e7a565b9392505050565b600061131383611960565b9050600061132085611960565b9050600061133761133086611710565b85906119e3565b9050600061134e61134788611710565b86906119e3565b90506113bf816040518060400160405280601f81526020017f5472616e7366657220616d6f756e7420657863656564732062616c616e636500815250609d60008b6001600160a01b03166001600160a01b03168152602001908152602001600020546119f89092919063ffffffff16565b6001600160a01b038089166000908152609d602052604080822093909355908816815220546113ee9083611476565b6001600160a01b0387166000908152609d6020526040902055838015611412575082155b1561143c5760a0546114249086611476565b60a055609e5461143490826112f5565b609e5561146d565b831580156114475750825b1561146d5760a05461145990866112f5565b60a055609e546114699083611476565b609e555b50505050505050565b60006113018284611e21565b60008061149784670de0b6b3a76400006119cb565b90506114a381846119d7565b949350505050565b600080516020611ef9833981519152805460028114156114dd5760405162461bcd60e51b815260040161059c90611df9565b600282556001600160a01b0384166115375760405162461bcd60e51b815260206004820152601860248201527f4d696e7420746f20746865207a65726f20616464726573730000000000000000604482015260640161059c565b600061154285611960565b9050600061155261134787611710565b6001600160a01b0387166000908152609d60205260409020549091506115789082611476565b6001600160a01b0387166000908152609d602052604090205581156115ac5760a0546115a49086611476565b60a0556115bd565b609e546115b99082611476565b609e555b609a546115ca9086611476565b609a8190556001600160801b03116116115760405162461bcd60e51b815260206004820152600a6024820152694d617820737570706c7960b01b604482015260640161059c565b6040518581526001600160a01b03871690600090600080516020611f198339815191529060200160405180910390a350506001825550505050565b6001600160a01b0381166116a25760405162461bcd60e51b815260206004820152601a60248201527f4e657720476f7665726e6f722069732061646472657373283029000000000000604482015260640161059c565b806001600160a01b03166116c2600080516020611f398339815191525490565b6001600160a01b03167fc7c0c772add429241571afb3805861fb3cfa2af374534088b76cdb4325a87e9a60405160405180910390a361170d81600080516020611f3983398151915255565b50565b6001600160a01b038116600090815260a160205260408120541561174a57506001600160a01b0316600090815260a1602052604090205490565b5050609f5490565b919050565b600080516020611ef9833981519152805460028114156117895760405162461bcd60e51b815260040161059c90611df9565b600282556001600160a01b0384166117e35760405162461bcd60e51b815260206004820152601a60248201527f4275726e2066726f6d20746865207a65726f2061646472657373000000000000604482015260640161059c565b826117ed57611957565b60006117f885611960565b9050600061180861134787611710565b6001600160a01b0387166000908152609d60205260409020549091508082148061183b575081611839600183611e7a565b145b1561185e576001600160a01b0387166000908152609d60205260408120556118e8565b818111156118a7576001600160a01b0387166000908152609d602052604090205461188990836112f5565b6001600160a01b0388166000908152609d60205260409020556118e8565b60405162461bcd60e51b815260206004820152601660248201527552656d6f766520657863656564732062616c616e636560501b604482015260640161059c565b82156119035760a0546118fb90876112f5565b60a055611914565b609e5461191090836112f5565b609e555b609a5461192190876112f5565b609a556040518681526000906001600160a01b03891690600080516020611f198339815191529060200160405180910390a35050505b50600190555050565b6000813b15801590819061199e57506001600160a01b038316600090815260a2602052604081205460ff16600281111561199c5761199c611ee2565b145b156119ac576119ac83611a24565b50506001600160a01b0316600090815260a16020526040902054151590565b60006113018284611e5b565b60006113018284611e39565b60006113018383670de0b6b3a7640000611adc565b60008184841115611a1c5760405162461bcd60e51b815260040161059c9190611d6d565b505050900390565b6001600160a01b038116600090815260a1602052604090205461170d576001600160a01b0381166000908152609d6020526040902054611a86576001600160a01b0316600090815260a1602052604090206b033b2e3c9fd0803ce80000009055565b609f546001600160a01b038216600090815260a16020526040902055611aae610f5d82610c64565b60a0556001600160a01b0381166000908152609d6020526040902054609e54611ad6916112f5565b609e5550565b600080611ae985856119cb565b9050611af581846119d7565b95945050505050565b828054611b0a90611e91565b90600052602060002090601f016020900481019282611b2c5760008555611b72565b82601f10611b4557805160ff1916838001178555611b72565b82800160010185558215611b72579182015b82811115611b72578251825591602001919060010190611b57565b50611b7e929150611b82565b5090565b5b80821115611b7e5760008155600101611b83565b80356001600160a01b038116811461175257600080fd5b60008083601f840112611bc057600080fd5b50813567ffffffffffffffff811115611bd857600080fd5b602083019150836020828501011115611bf057600080fd5b9250929050565b600060208284031215611c0957600080fd5b61130182611b97565b60008060408385031215611c2557600080fd5b611c2e83611b97565b9150611c3c60208401611b97565b90509250929050565b600080600060608486031215611c5a57600080fd5b611c6384611b97565b9250611c7160208501611b97565b9150604084013590509250925092565b60008060408385031215611c9457600080fd5b611c9d83611b97565b946020939093013593505050565b600080600080600060608688031215611cc357600080fd5b853567ffffffffffffffff80821115611cdb57600080fd5b611ce789838a01611bae565b90975095506020880135915080821115611d0057600080fd5b50611d0d88828901611bae565b9094509250611d20905060408701611b97565b90509295509295909350565b600060208284031215611d3e57600080fd5b5035919050565b6020810160038310611d6757634e487b7160e01b600052602160045260246000fd5b91905290565b600060208083528351808285015260005b81811015611d9a57858101830151858201604001528201611d7e565b81811115611dac576000604083870101525b50601f01601f1916929092016040019392505050565b60208082526017908201527f43616c6c6572206973206e6f7420746865205661756c74000000000000000000604082015260600190565b6020808252600e908201526d1499595b9d1c985b9d0818d85b1b60921b604082015260600190565b60008219821115611e3457611e34611ecc565b500190565b600082611e5657634e487b7160e01b600052601260045260246000fd5b500490565b6000816000190483118215151615611e7557611e75611ecc565b500290565b600082821015611e8c57611e8c611ecc565b500390565b600181811c90821680611ea557607f821691505b60208210811415611ec657634e487b7160e01b600052602260045260246000fd5b50919050565b634e487b7160e01b600052601160045260246000fd5b634e487b7160e01b600052602160045260246000fdfe53bf423e48ed90e97d02ab0ebab13b2a235a6bfbe9c321847d5c175333ac4535ddf252ad1be2c89b69c2b068fc378daa952ba7f163c4a11628f55a4df523b3ef7bea13895fa79d2831e0a9e28edede30099005a50d652d8957cf8a607ee6ca4aa26469706673582212201b8ec42930889e5de1fe27c8e9555b99a6d3a74f39b4ad730ffae97e3dc9bd4464736f6c634300080700337bea13895fa79d2831e0a9e28edede30099005a50d652d8957cf8a607ee6ca4a",
  "devdoc": {
    "kind": "dev",
    "methods": {
      "allowance(address,address)": {
        "details": "Function to check the amount of tokens that _owner has allowed to      `_spender`.",
        "params": {
          "_owner": "The address which owns the funds.",
          "_spender": "The address which will spend the funds."
        },
        "returns": {
          "_0": "The number of tokens still available for the _spender."
        }
      },
      "approve(address,uint256)": {
        "details": "Approve the passed address to spend the specified amount of tokens      on behalf of msg.sender. This method is included for ERC20      compatibility. `increaseAllowance` and `decreaseAllowance` should be      used instead.      Changing an allowance with this method brings the risk that someone      may transfer both the old and the new allowance - if they are both      greater than zero - if a transfer transaction is mined before the      later approve() call is mined.",
        "params": {
          "_spender": "The address which will spend the funds.",
          "_value": "The amount of tokens to be spent."
        }
      },
      "balanceOf(address)": {
        "details": "Gets the balance of the specified address.",
        "params": {
          "_account": "Address to query the balance of."
        },
        "returns": {
          "_0": "A uint256 representing the amount of base units owned by the         specified address."
        }
      },
      "burn(address,uint256)": {
        "details": "Burns tokens, decreasing totalSupply."
      },
      "changeSupply(uint256)": {
        "details": "Modify the supply without minting new tokens. This uses a change in      the exchange rate between \"credits\" and OUSD tokens to change balances.",
        "params": {
          "_newTotalSupply": "New total supply of OUSD."
        }
      },
      "claimGovernance()": {
        "details": "Claim Governance of the contract to a new account (`newGovernor`). Can only be called by the new Governor."
      },
      "creditsBalanceOf(address)": {
        "details": "Gets the credits balance of the specified address.Backwards compatible with old low res credits per token.",
        "params": {
          "_account": "The address to query the balance of."
        },
        "returns": {
          "_0": "(uint256, uint256) Credit balance and credits per token of the         address"
        }
      },
      "creditsBalanceOfHighres(address)": {
        "details": "Gets the credits balance of the specified address.",
        "params": {
          "_account": "The address to query the balance of."
        },
        "returns": {
          "_0": "(uint256, uint256, bool) Credit balance, credits per token of the         address, and isUpgraded"
        }
      },
      "decimals()": {
        "details": "Returns the number of decimals used to get its user representation. For example, if `decimals` equals `2`, a balance of `505` tokens should be displayed to a user as `5,05` (`505 / 10 ** 2`). Tokens usually opt for a value of 18, imitating the relationship between Ether and Wei. NOTE: This information is only used for _display_ purposes: it in no way affects any of the arithmetic of the contract, including {IERC20-balanceOf} and {IERC20-transfer}."
      },
      "decreaseAllowance(address,uint256)": {
        "details": "Decrease the amount of tokens that an owner has allowed to `_spender`.",
        "params": {
          "_spender": "The address which will spend the funds.",
          "_subtractedValue": "The amount of tokens to decrease the allowance        by."
        }
      },
      "governor()": {
        "details": "Returns the address of the current Governor."
      },
      "increaseAllowance(address,uint256)": {
        "details": "Increase the amount of tokens that an owner has allowed to      `_spender`.      This method should be used instead of approve() to avoid the double      approval vulnerability described above.",
        "params": {
          "_addedValue": "The amount of tokens to increase the allowance by.",
          "_spender": "The address which will spend the funds."
        }
      },
      "isGovernor()": {
        "details": "Returns true if the caller is the current Governor."
      },
      "mint(address,uint256)": {
        "details": "Mints new tokens, increasing totalSupply."
      },
      "name()": {
        "details": "Returns the name of the token."
      },
      "rebaseOptIn()": {
        "details": "Add a contract address to the non-rebasing exception list. The address's balance will be part of rebases and the account will be exposed to upside and downside."
      },
      "rebaseOptOut()": {
        "details": "Explicitly mark that an address is non-rebasing."
      },
      "rebasingCredits()": {
        "returns": {
          "_0": "Low resolution total number of rebasing credits"
        }
      },
      "rebasingCreditsHighres()": {
        "returns": {
          "_0": "High resolution total number of rebasing credits"
        }
      },
      "rebasingCreditsPerToken()": {
        "returns": {
          "_0": "Low resolution rebasingCreditsPerToken"
        }
      },
      "rebasingCreditsPerTokenHighres()": {
        "returns": {
          "_0": "High resolution rebasingCreditsPerToken"
        }
      },
      "symbol()": {
        "details": "Returns the symbol of the token, usually a shorter version of the name."
      },
      "totalSupply()": {
        "returns": {
          "_0": "The total supply of OUSD."
        }
      },
      "transfer(address,uint256)": {
        "details": "Transfer tokens to a specified address.",
        "params": {
          "_to": "the address to transfer to.",
          "_value": "the amount to be transferred."
        },
        "returns": {
          "_0": "true on success."
        }
      },
      "transferFrom(address,address,uint256)": {
        "details": "Transfer tokens from one address to another.",
        "params": {
          "_from": "The address you want to send tokens from.",
          "_to": "The address you want to transfer to.",
          "_value": "The amount of tokens to be transferred."
        }
      },
      "transferGovernance(address)": {
        "details": "Transfers Governance of the contract to a new account (`newGovernor`). Can only be called by the current Governor. Must be claimed for this to complete",
        "params": {
          "_newGovernor": "Address of the new Governor"
        }
      }
    },
    "version": 1
  },
  "userdoc": {
    "kind": "user",
    "methods": {},
    "notice": "NOTE that this is an ERC20 token but the invariant that the sum of balanceOf(x) for all x is not >= totalSupply(). This is a consequence of the rebasing design. Any integrations with OUSD should be aware.",
    "version": 1
  },
  "storageLayout": {
    "storage": [
      {
        "astId": 16900,
        "contract": "contracts/token/OUSD.sol:OUSD",
        "label": "initialized",
        "offset": 0,
        "slot": "0",
        "type": "t_bool"
      },
      {
        "astId": 16903,
        "contract": "contracts/token/OUSD.sol:OUSD",
        "label": "initializing",
        "offset": 1,
        "slot": "0",
        "type": "t_bool"
      },
      {
        "astId": 16943,
        "contract": "contracts/token/OUSD.sol:OUSD",
        "label": "______gap",
        "offset": 0,
        "slot": "1",
        "type": "t_array(t_uint256)50_storage"
      },
      {
        "astId": 17458,
        "contract": "contracts/token/OUSD.sol:OUSD",
        "label": "_____gap",
        "offset": 0,
        "slot": "51",
        "type": "t_array(t_uint256)100_storage"
      },
      {
        "astId": 17460,
        "contract": "contracts/token/OUSD.sol:OUSD",
        "label": "_name",
        "offset": 0,
        "slot": "151",
        "type": "t_string_storage"
      },
      {
        "astId": 17462,
        "contract": "contracts/token/OUSD.sol:OUSD",
        "label": "_symbol",
        "offset": 0,
        "slot": "152",
        "type": "t_string_storage"
      },
      {
        "astId": 17464,
        "contract": "contracts/token/OUSD.sol:OUSD",
        "label": "_decimals",
        "offset": 0,
        "slot": "153",
        "type": "t_uint8"
      },
      {
        "astId": 15704,
        "contract": "contracts/token/OUSD.sol:OUSD",
        "label": "_totalSupply",
        "offset": 0,
        "slot": "154",
        "type": "t_uint256"
      },
      {
        "astId": 15710,
        "contract": "contracts/token/OUSD.sol:OUSD",
        "label": "_allowances",
        "offset": 0,
        "slot": "155",
        "type": "t_mapping(t_address,t_mapping(t_address,t_uint256))"
      },
      {
        "astId": 15716,
        "contract": "contracts/token/OUSD.sol:OUSD",
        "label": "vaultAddress",
        "offset": 0,
        "slot": "156",
        "type": "t_address"
      },
      {
        "astId": 15720,
        "contract": "contracts/token/OUSD.sol:OUSD",
        "label": "_creditBalances",
        "offset": 0,
        "slot": "157",
        "type": "t_mapping(t_address,t_uint256)"
      },
      {
        "astId": 15722,
        "contract": "contracts/token/OUSD.sol:OUSD",
        "label": "_rebasingCredits",
        "offset": 0,
        "slot": "158",
        "type": "t_uint256"
      },
      {
        "astId": 15724,
        "contract": "contracts/token/OUSD.sol:OUSD",
        "label": "_rebasingCreditsPerToken",
        "offset": 0,
        "slot": "159",
        "type": "t_uint256"
      },
      {
        "astId": 15726,
        "contract": "contracts/token/OUSD.sol:OUSD",
        "label": "nonRebasingSupply",
        "offset": 0,
        "slot": "160",
        "type": "t_uint256"
      },
      {
        "astId": 15730,
        "contract": "contracts/token/OUSD.sol:OUSD",
        "label": "nonRebasingCreditsPerToken",
        "offset": 0,
        "slot": "161",
        "type": "t_mapping(t_address,t_uint256)"
      },
      {
        "astId": 15735,
        "contract": "contracts/token/OUSD.sol:OUSD",
        "label": "rebaseState",
        "offset": 0,
        "slot": "162",
        "type": "t_mapping(t_address,t_enum(RebaseOptions)15695)"
      },
      {
        "astId": 15739,
        "contract": "contracts/token/OUSD.sol:OUSD",
        "label": "isUpgraded",
        "offset": 0,
        "slot": "163",
        "type": "t_mapping(t_address,t_uint256)"
      }
    ],
    "types": {
      "t_address": {
        "encoding": "inplace",
        "label": "address",
        "numberOfBytes": "20"
      },
      "t_array(t_uint256)100_storage": {
        "base": "t_uint256",
        "encoding": "inplace",
        "label": "uint256[100]",
        "numberOfBytes": "3200"
      },
      "t_array(t_uint256)50_storage": {
        "base": "t_uint256",
        "encoding": "inplace",
        "label": "uint256[50]",
        "numberOfBytes": "1600"
      },
      "t_bool": {
        "encoding": "inplace",
        "label": "bool",
        "numberOfBytes": "1"
      },
      "t_enum(RebaseOptions)15695": {
        "encoding": "inplace",
        "label": "enum OUSD.RebaseOptions",
        "numberOfBytes": "1"
      },
      "t_mapping(t_address,t_enum(RebaseOptions)15695)": {
        "encoding": "mapping",
        "key": "t_address",
        "label": "mapping(address => enum OUSD.RebaseOptions)",
        "numberOfBytes": "32",
        "value": "t_enum(RebaseOptions)15695"
      },
      "t_mapping(t_address,t_mapping(t_address,t_uint256))": {
        "encoding": "mapping",
        "key": "t_address",
        "label": "mapping(address => mapping(address => uint256))",
        "numberOfBytes": "32",
        "value": "t_mapping(t_address,t_uint256)"
      },
      "t_mapping(t_address,t_uint256)": {
        "encoding": "mapping",
        "key": "t_address",
        "label": "mapping(address => uint256)",
        "numberOfBytes": "32",
        "value": "t_uint256"
      },
      "t_string_storage": {
        "encoding": "bytes",
        "label": "string",
        "numberOfBytes": "32"
      },
      "t_uint256": {
        "encoding": "inplace",
        "label": "uint256",
        "numberOfBytes": "32"
      },
      "t_uint8": {
        "encoding": "inplace",
        "label": "uint8",
        "numberOfBytes": "1"
      }
    }
  }
}