{
  "address": "0xA8F148b41C0036Ec22b477cf9D0CC564b6Fbb9a2",
  "abi": [
    {
      "constant": true,
      "inputs": [],
      "name": "name",
      "outputs": [
        {
          "internalType": "string",
          "name": "",
          "type": "string"
        }
      ],
      "payable": false,
      "stateMutability": "view",
      "type": "function"
    },
    {
      "constant": false,
      "inputs": [
        {
          "internalType": "string",
          "name": "_nameArg",
          "type": "string"
        },
        {
          "internalType": "string",
          "name": "_symbolArg",
          "type": "string"
        },
        {
          "internalType": "address",
          "name": "_vaultAddress",
          "type": "address"
        }
      ],
      "name": "initialize",
      "outputs": [],
      "payable": false,
      "stateMutability": "nonpayable",
      "type": "function"
    },
    {
      "constant": true,
      "inputs": [],
      "name": "rebasingCredits",
      "outputs": [
        {
          "internalType": "uint256",
          "name": "",
          "type": "uint256"
        }
      ],
      "payable": false,
      "stateMutability": "view",
      "type": "function"
    },
    {
      "constant": false,
      "inputs": [
        {
          "internalType": "address",
          "name": "_spender",
          "type": "address"
        },
        {
          "internalType": "uint256",
          "name": "_value",
          "type": "uint256"
        }
      ],
      "name": "approve",
      "outputs": [
        {
          "internalType": "bool",
          "name": "",
          "type": "bool"
        }
      ],
      "payable": false,
      "stateMutability": "nonpayable",
      "type": "function"
    },
    {
      "constant": true,
      "inputs": [],
      "name": "governor",
      "outputs": [
        {
          "internalType": "address",
          "name": "",
          "type": "address"
        }
      ],
      "payable": false,
      "stateMutability": "view",
      "type": "function"
    },
    {
      "constant": true,
      "inputs": [],
      "name": "totalSupply",
      "outputs": [
        {
          "internalType": "uint256",
          "name": "",
          "type": "uint256"
        }
      ],
      "payable": false,
      "stateMutability": "view",
      "type": "function"
    },
    {
      "constant": false,
      "inputs": [
        {
          "internalType": "address",
          "name": "_from",
          "type": "address"
        },
        {
          "internalType": "address",
          "name": "_to",
          "type": "address"
        },
        {
          "internalType": "uint256",
          "name": "_value",
          "type": "uint256"
        }
      ],
      "name": "transferFrom",
      "outputs": [
        {
          "internalType": "bool",
          "name": "",
          "type": "bool"
        }
      ],
      "payable": false,
      "stateMutability": "nonpayable",
      "type": "function"
    },
    {
      "constant": true,
      "inputs": [],
      "name": "decimals",
      "outputs": [
        {
          "internalType": "uint8",
          "name": "",
          "type": "uint8"
        }
      ],
      "payable": false,
      "stateMutability": "view",
      "type": "function"
    },
    {
      "constant": false,
      "inputs": [
        {
          "internalType": "address",
          "name": "_spender",
          "type": "address"
        },
        {
          "internalType": "uint256",
          "name": "_addedValue",
          "type": "uint256"
        }
      ],
      "name": "increaseAllowance",
      "outputs": [
        {
          "internalType": "bool",
          "name": "",
          "type": "bool"
        }
      ],
      "payable": false,
      "stateMutability": "nonpayable",
      "type": "function"
    },
    {
      "constant": false,
      "inputs": [
        {
          "internalType": "uint256",
          "name": "_newTotalSupply",
          "type": "uint256"
        }
      ],
      "name": "changeSupply",
      "outputs": [],
      "payable": false,
      "stateMutability": "nonpayable",
      "type": "function"
    },
    {
      "constant": true,
      "inputs": [],
      "name": "_totalSupply",
      "outputs": [
        {
          "internalType": "uint256",
          "name": "",
          "type": "uint256"
        }
      ],
      "payable": false,
      "stateMutability": "view",
      "type": "function"
    },
    {
      "constant": false,
      "inputs": [
        {
          "internalType": "address",
          "name": "_account",
          "type": "address"
        },
        {
          "internalType": "uint256",
          "name": "_amount",
          "type": "uint256"
        }
      ],
      "name": "mint",
      "outputs": [],
      "payable": false,
      "stateMutability": "nonpayable",
      "type": "function"
    },
    {
      "constant": true,
      "inputs": [],
      "name": "vaultAddress",
      "outputs": [
        {
          "internalType": "address",
          "name": "",
          "type": "address"
        }
      ],
      "payable": false,
      "stateMutability": "view",
      "type": "function"
    },
    {
      "constant": true,
      "inputs": [
        {
          "internalType": "address",
          "name": "",
          "type": "address"
        }
      ],
      "name": "rebaseState",
      "outputs": [
        {
          "internalType": "enum OUSD.RebaseOptions",
          "name": "",
          "type": "uint8"
        }
      ],
      "payable": false,
      "stateMutability": "view",
      "type": "function"
    },
    {
      "constant": false,
      "inputs": [],
      "name": "claimGovernance",
      "outputs": [],
      "payable": false,
      "stateMutability": "nonpayable",
      "type": "function"
    },
    {
      "constant": true,
      "inputs": [
        {
          "internalType": "address",
          "name": "",
          "type": "address"
        }
      ],
      "name": "nonRebasingCreditsPerToken",
      "outputs": [
        {
          "internalType": "uint256",
          "name": "",
          "type": "uint256"
        }
      ],
      "payable": false,
      "stateMutability": "view",
      "type": "function"
    },
    {
      "constant": true,
      "inputs": [],
      "name": "rebasingCreditsPerToken",
      "outputs": [
        {
          "internalType": "uint256",
          "name": "",
          "type": "uint256"
        }
      ],
      "payable": false,
      "stateMutability": "view",
      "type": "function"
    },
    {
      "constant": true,
      "inputs": [
        {
          "internalType": "address",
          "name": "_account",
          "type": "address"
        }
      ],
      "name": "balanceOf",
      "outputs": [
        {
          "internalType": "uint256",
          "name": "",
          "type": "uint256"
        }
      ],
      "payable": false,
      "stateMutability": "view",
      "type": "function"
    },
    {
      "constant": false,
      "inputs": [
        {
          "internalType": "address",
          "name": "_vaultAddress",
          "type": "address"
        }
      ],
      "name": "setVaultAddress",
      "outputs": [],
      "payable": false,
      "stateMutability": "nonpayable",
      "type": "function"
    },
    {
      "constant": true,
      "inputs": [],
      "name": "symbol",
      "outputs": [
        {
          "internalType": "string",
          "name": "",
          "type": "string"
        }
      ],
      "payable": false,
      "stateMutability": "view",
      "type": "function"
    },
    {
      "constant": false,
      "inputs": [
        {
          "internalType": "address",
          "name": "account",
          "type": "address"
        },
        {
          "internalType": "uint256",
          "name": "amount",
          "type": "uint256"
        }
      ],
      "name": "burn",
      "outputs": [],
      "payable": false,
      "stateMutability": "nonpayable",
      "type": "function"
    },
    {
      "constant": false,
      "inputs": [
        {
          "internalType": "address",
          "name": "_spender",
          "type": "address"
        },
        {
          "internalType": "uint256",
          "name": "_subtractedValue",
          "type": "uint256"
        }
      ],
      "name": "decreaseAllowance",
      "outputs": [
        {
          "internalType": "bool",
          "name": "",
          "type": "bool"
        }
      ],
      "payable": false,
      "stateMutability": "nonpayable",
      "type": "function"
    },
    {
      "constant": false,
      "inputs": [
        {
          "internalType": "address",
          "name": "_to",
          "type": "address"
        },
        {
          "internalType": "uint256",
          "name": "_value",
          "type": "uint256"
        }
      ],
      "name": "transfer",
      "outputs": [
        {
          "internalType": "bool",
          "name": "",
          "type": "bool"
        }
      ],
      "payable": false,
      "stateMutability": "nonpayable",
      "type": "function"
    },
    {
      "constant": false,
      "inputs": [],
      "name": "rebaseOptOut",
      "outputs": [],
      "payable": false,
      "stateMutability": "nonpayable",
      "type": "function"
    },
    {
      "constant": true,
      "inputs": [],
      "name": "isGovernor",
      "outputs": [
        {
          "internalType": "bool",
          "name": "",
          "type": "bool"
        }
      ],
      "payable": false,
      "stateMutability": "view",
      "type": "function"
    },
    {
      "constant": false,
      "inputs": [
        {
          "internalType": "address",
          "name": "_newGovernor",
          "type": "address"
        }
      ],
      "name": "transferGovernance",
      "outputs": [],
      "payable": false,
      "stateMutability": "nonpayable",
      "type": "function"
    },
    {
      "constant": false,
      "inputs": [],
      "name": "reset",
      "outputs": [],
      "payable": false,
      "stateMutability": "nonpayable",
      "type": "function"
    },
    {
      "constant": true,
      "inputs": [
        {
          "internalType": "address",
          "name": "_owner",
          "type": "address"
        },
        {
          "internalType": "address",
          "name": "_spender",
          "type": "address"
        }
      ],
      "name": "allowance",
      "outputs": [
        {
          "internalType": "uint256",
          "name": "",
          "type": "uint256"
        }
      ],
      "payable": false,
      "stateMutability": "view",
      "type": "function"
    },
    {
      "constant": true,
      "inputs": [],
      "name": "_deprecated_nonRebasingCredits",
      "outputs": [
        {
          "internalType": "uint256",
          "name": "",
          "type": "uint256"
        }
      ],
      "payable": false,
      "stateMutability": "view",
      "type": "function"
    },
    {
      "constant": true,
      "inputs": [],
      "name": "nonRebasingSupply",
      "outputs": [
        {
          "internalType": "uint256",
          "name": "",
          "type": "uint256"
        }
      ],
      "payable": false,
      "stateMutability": "view",
      "type": "function"
    },
    {
      "constant": false,
      "inputs": [],
      "name": "rebaseOptIn",
      "outputs": [],
      "payable": false,
      "stateMutability": "nonpayable",
      "type": "function"
    },
    {
      "constant": true,
      "inputs": [
        {
          "internalType": "address",
          "name": "_account",
          "type": "address"
        }
      ],
      "name": "creditsBalanceOf",
      "outputs": [
        {
          "internalType": "uint256",
          "name": "",
          "type": "uint256"
        },
        {
          "internalType": "uint256",
          "name": "",
          "type": "uint256"
        }
      ],
      "payable": false,
      "stateMutability": "view",
      "type": "function"
    },
    {
      "anonymous": false,
      "inputs": [
        {
          "indexed": false,
          "internalType": "uint256",
          "name": "totalSupply",
          "type": "uint256"
        },
        {
          "indexed": false,
          "internalType": "uint256",
          "name": "rebasingCredits",
          "type": "uint256"
        },
        {
          "indexed": false,
          "internalType": "uint256",
          "name": "rebasingCreditsPerToken",
          "type": "uint256"
        }
      ],
      "name": "TotalSupplyUpdated",
      "type": "event"
    },
    {
      "anonymous": false,
      "inputs": [
        {
          "indexed": true,
          "internalType": "address",
          "name": "previousGovernor",
          "type": "address"
        },
        {
          "indexed": true,
          "internalType": "address",
          "name": "newGovernor",
          "type": "address"
        }
      ],
      "name": "PendingGovernorshipTransfer",
      "type": "event"
    },
    {
      "anonymous": false,
      "inputs": [
        {
          "indexed": true,
          "internalType": "address",
          "name": "previousGovernor",
          "type": "address"
        },
        {
          "indexed": true,
          "internalType": "address",
          "name": "newGovernor",
          "type": "address"
        }
      ],
      "name": "GovernorshipTransferred",
      "type": "event"
    },
    {
      "anonymous": false,
      "inputs": [
        {
          "indexed": true,
          "internalType": "address",
          "name": "from",
          "type": "address"
        },
        {
          "indexed": true,
          "internalType": "address",
          "name": "to",
          "type": "address"
        },
        {
          "indexed": false,
          "internalType": "uint256",
          "name": "value",
          "type": "uint256"
        }
      ],
      "name": "Transfer",
      "type": "event"
    },
    {
      "anonymous": false,
      "inputs": [
        {
          "indexed": true,
          "internalType": "address",
          "name": "owner",
          "type": "address"
        },
        {
          "indexed": true,
          "internalType": "address",
          "name": "spender",
          "type": "address"
        },
        {
          "indexed": false,
          "internalType": "uint256",
          "name": "value",
          "type": "uint256"
        }
      ],
      "name": "Approval",
      "type": "event"
    }
  ],
  "transactionHash": "0x4cc937a1f30bcabe6c1bf50440f29ea27297c88cc895512de9203e30b6a769a4",
  "args": [],
  "solcInputHash": "d641aaf0ed5d604d73e8f53c6d96978e",
  "bytecode": "0x6080604052603d80546001600160a01b031916905562000028336001600160e01b036200008116565b6200003b6001600160e01b036200009416565b6001600160a01b031660006001600160a01b03167fc7c0c772add429241571afb3805861fb3cfa2af374534088b76cdb4325a87e9a60405160405180910390a3620000a8565b6000805160206200246483398151915255565b600080516020620024648339815191525490565b6123ac80620000b86000396000f3fe608060405234801561001057600080fd5b50600436106101f05760003560e01c80636691cb3d1161010f578063c7af3352116100a2578063e3be8a0b11610071578063e3be8a0b14610662578063e696393a1461066a578063f51b0fd414610672578063f9854bfc1461067a576101f0565b8063c7af3352146105fe578063d38bfff414610606578063d826f88f1461062c578063dd62ed3e14610634576101f0565b80639dc29fac116100de5780639dc29fac14610572578063a457c2d71461059e578063a9059cbb146105ca578063c2376dff146105f6576101f0565b80636691cb3d1461051657806370a082311461051e57806385535cc51461054457806395d89b411461056a576101f0565b80633950935111610187578063430bf08a11610156578063430bf08a14610496578063456ee2861461049e5780635d36b190146104e8578063609350cd146104f0576101f0565b8063395093511461041957806339a7919f146104455780633eaaf86b1461046257806340c10f191461046a576101f0565b80630c340a24116101c35780630c340a241461039957806318160ddd146103bd57806323b872dd146103c5578063313ce567146103fb576101f0565b806306fdde03146101f5578063077f224a14610272578063077f22b71461033f578063095ea7b314610359575b600080fd5b6101fd6106b9565b6040805160208082528351818301528351919283929083019185019080838360005b8381101561023757818101518382015260200161021f565b50505050905090810190601f1680156102645780820380516001836020036101000a031916815260200191505b509250505060405180910390f35b61033d6004803603606081101561028857600080fd5b8101906020810181356401000000008111156102a357600080fd5b8201836020820111156102b557600080fd5b803590602001918460018302840111640100000000831117156102d757600080fd5b9193909290916020810190356401000000008111156102f557600080fd5b82018360208201111561030757600080fd5b8035906020019184600183028401116401000000008311171561032957600080fd5b9193509150356001600160a01b0316610750565b005b6103476108ea565b60408051918252519081900360200190f35b6103856004803603604081101561036f57600080fd5b506001600160a01b0381351690602001356108f0565b604080519115158252519081900360200190f35b6103a1610957565b604080516001600160a01b039092168252519081900360200190f35b610347610966565b610385600480360360608110156103db57600080fd5b506001600160a01b0381358116916020810135909116906040013561096c565b610403610ac7565b6040805160ff9092168252519081900360200190f35b6103856004803603604081101561042f57600080fd5b506001600160a01b038135169060200135610ad0565b61033d6004803603602081101561045b57600080fd5b5035610b69565b610347610de3565b61033d6004803603604081101561048057600080fd5b506001600160a01b038135169060200135610de9565b6103a1610e50565b6104c4600480360360208110156104b457600080fd5b50356001600160a01b0316610e5f565b604051808260028111156104d457fe5b60ff16815260200191505060405180910390f35b61033d610e74565b6103476004803603602081101561050657600080fd5b50356001600160a01b0316610ed6565b610347610ee8565b6103476004803603602081101561053457600080fd5b50356001600160a01b0316610eee565b61033d6004803603602081101561055a57600080fd5b50356001600160a01b0316610f4c565b6101fd610fc4565b61033d6004803603604081101561058857600080fd5b506001600160a01b038135169060200135611025565b610385600480360360408110156105b457600080fd5b506001600160a01b038135169060200135611088565b610385600480360360408110156105e057600080fd5b506001600160a01b038135169060200135611177565b61033d61126e565b610385611398565b61033d6004803603602081101561061c57600080fd5b50356001600160a01b03166113bb565b61033d611464565b6103476004803603604081101561064a57600080fd5b506001600160a01b03813581169160200135166114dc565b610347611507565b61034761150d565b61033d611513565b6106a06004803603602081101561069057600080fd5b50356001600160a01b0316611679565b6040805192835260208301919091528051918290030190f35b60358054604080516020601f60026000196101006001881615020190951694909404938401819004810282018101909252828152606093909290918301828280156107455780601f1061071a57610100808354040283529160200191610745565b820191906000526020600020905b81548152906001019060200180831161072857829003601f168201915b505050505090505b90565b610758611398565b6107a6576040805162461bcd60e51b815260206004820152601a60248201527921b0b63632b91034b9903737ba103a34329023b7bb32b93737b960311b604482015290519081900360640190fd5b600054610100900460ff16806107bf57506107bf6116a6565b806107cd575060005460ff16155b6108085760405162461bcd60e51b815260040180806020018281038252602e8152602001806122fa602e913960400191505060405180910390fd5b600054610100900460ff16158015610833576000805460ff1961ff0019909116610100171660011790555b6108a986868080601f01602080910402602001604051908101604052809392919081815260200183838082843760009201919091525050604080516020601f8a018190048102820181019092528881529250889150879081908401838280828437600092019190915250601292506116ac915050565b670de0b6b3a7640000603a55603d80546001600160a01b0319166001600160a01b03841617905580156108e2576000805461ff00191690555b505050505050565b60395481565b336000818152603c602090815260408083206001600160a01b038716808552908352818420869055815186815291519394909390927f8c5be1e5ebec7d5bd14f71427d1e84f3dd0314c0f7b2291e5b200ac8c7c3b925928290030190a35060015b92915050565b60006109616116ec565b905090565b60385490565b60006001600160a01b0383166109c4576040805162461bcd60e51b81526020600482015260186024820152775472616e7366657220746f207a65726f206164647265737360401b604482015290519081900360640190fd5b6109cd84610eee565b821115610a21576040805162461bcd60e51b815260206004820152601d60248201527f5472616e736665722067726561746572207468616e2062616c616e6365000000604482015290519081900360640190fd5b6001600160a01b0384166000908152603c60209081526040808320338452909152902054610a55908363ffffffff61171116565b6001600160a01b0385166000908152603c60209081526040808320338452909152902055610a8484848461175a565b826001600160a01b0316846001600160a01b0316600080516020612328833981519152846040518082815260200191505060405180910390a35060019392505050565b60375460ff1690565b336000908152603c602090815260408083206001600160a01b0386168452909152812054610b04908363ffffffff6118f216565b336000818152603c602090815260408083206001600160a01b0389168085529083529281902085905580519485525191937f8c5be1e5ebec7d5bd14f71427d1e84f3dd0314c0f7b2291e5b200ac8c7c3b925929081900390910190a350600192915050565b603d546001600160a01b03163314610bc2576040805162461bcd60e51b815260206004820152601760248201527610d85b1b195c881a5cc81b9bdd081d1a194815985d5b1d604a1b604482015290519081900360640190fd5b6000805160206122b983398151915280546002811415610c1a576040805162461bcd60e51b815260206004820152600e60248201526d1499595b9d1c985b9d0818d85b1b60921b604482015290519081900360640190fd5b60028255600060385411610c75576040805162461bcd60e51b815260206004820152601860248201527f43616e6e6f7420696e637265617365203020737570706c790000000000000000604482015290519081900360640190fd5b826038541415610ccb57603854603954603a5460408051938452602084019290925282820152517f99e56f783b536ffacf422d59183ea321dd80dcd6d23daa13023e8afea38c3df19181900360600190a1610ddb565b6001600160801b038311610cdf5782610ce8565b6001600160801b035b6038819055603f54610d1291610d039163ffffffff61171116565b6039549063ffffffff61194c16565b603a819055610d68576040805162461bcd60e51b815260206004820152601860248201527f496e76616c6964206368616e676520696e20737570706c790000000000000000604482015290519081900360640190fd5b610d91603f54610d85603a5460395461194c90919063ffffffff16565b9063ffffffff6118f216565b6038819055603954603a5460408051938452602084019290925282820152517f99e56f783b536ffacf422d59183ea321dd80dcd6d23daa13023e8afea38c3df19181900360600190a15b506001905550565b60385481565b603d546001600160a01b03163314610e42576040805162461bcd60e51b815260206004820152601760248201527610d85b1b195c881a5cc81b9bdd081d1a194815985d5b1d604a1b604482015290519081900360640190fd5b610e4c8282611981565b5050565b603d546001600160a01b031681565b60416020526000908152604090205460ff1681565b610e7c611b6a565b6001600160a01b0316336001600160a01b031614610ecb5760405162461bcd60e51b81526004018080602001828103825260308152602001806123486030913960400191505060405180910390fd5b610ed433611b8f565b565b60406020819052600091825290205481565b603a5481565b6001600160a01b038116600090815260426020526040812054610f1357506000610f47565b610f44610f1f83611c3d565b6001600160a01b0384166000908152604260205260409020549063ffffffff61194c16565b90505b919050565b610f54611398565b610fa2576040805162461bcd60e51b815260206004820152601a60248201527921b0b63632b91034b9903737ba103a34329023b7bb32b93737b960311b604482015290519081900360640190fd5b603d80546001600160a01b0319166001600160a01b0392909216919091179055565b60368054604080516020601f60026000196101006001881615020190951694909404938401819004810282018101909252828152606093909290918301828280156107455780601f1061071a57610100808354040283529160200191610745565b603d546001600160a01b0316331461107e576040805162461bcd60e51b815260206004820152601760248201527610d85b1b195c881a5cc81b9bdd081d1a194815985d5b1d604a1b604482015290519081900360640190fd5b610e4c8282611c83565b336000908152603c602090815260408083206001600160a01b03861684529091528120548083106110dc57336000908152603c602090815260408083206001600160a01b0388168452909152812055611111565b6110ec818463ffffffff61171116565b336000908152603c602090815260408083206001600160a01b03891684529091529020555b336000818152603c602090815260408083206001600160a01b0389168085529083529281902054815190815290519293927f8c5be1e5ebec7d5bd14f71427d1e84f3dd0314c0f7b2291e5b200ac8c7c3b925929181900390910190a35060019392505050565b60006001600160a01b0383166111cf576040805162461bcd60e51b81526020600482015260186024820152775472616e7366657220746f207a65726f206164647265737360401b604482015290519081900360640190fd5b6111d833610eee565b82111561122c576040805162461bcd60e51b815260206004820152601d60248201527f5472616e736665722067726561746572207468616e2062616c616e6365000000604482015290519081900360640190fd5b61123733848461175a565b6040805183815290516001600160a01b0385169133916000805160206123288339815191529181900360200190a350600192915050565b6000805160206122b9833981519152805460028114156112c6576040805162461bcd60e51b815260206004820152600e60248201526d1499595b9d1c985b9d0818d85b1b60921b604482015290519081900360640190fd5b600282556112d333611ec3565b15611325576040805162461bcd60e51b815260206004820152601860248201527f4163636f756e7420686173206e6f74206f7074656420696e0000000000000000604482015290519081900360640190fd5b61134061133133610eee565b603f549063ffffffff6118f216565b603f55603a543360009081526040602081815281832093909355604290925220546039546113739163ffffffff61171116565b60395550336000908152604160205260409020805460ff191660019081179091559055565b60006113a26116ec565b6001600160a01b0316336001600160a01b031614905090565b6113c3611398565b611411576040805162461bcd60e51b815260206004820152601a60248201527921b0b63632b91034b9903737ba103a34329023b7bb32b93737b960311b604482015290519081900360640190fd5b61141a81611f4c565b806001600160a01b031661142c6116ec565b6001600160a01b03167fa39cc5eb22d0f34d8beaefee8a3f17cc229c1a1d1ef87a5ad47313487b1c4f0d60405160405180910390a350565b61146c611398565b6114ba576040805162461bcd60e51b815260206004820152601a60248201527921b0b63632b91034b9903737ba103a34329023b7bb32b93737b960311b604482015290519081900360640190fd5b600060388190556039819055670de0b6b3a7640000603a55603f819055603e55565b6001600160a01b039182166000908152603c6020908152604080832093909416825291909152205490565b603e5481565b603f5481565b6000805160206122b98339815191528054600281141561156b576040805162461bcd60e51b815260206004820152600e60248201526d1499595b9d1c985b9d0818d85b1b60921b604482015290519081900360640190fd5b6002825561157833611ec3565b6115c9576040805162461bcd60e51b815260206004820152601960248201527f4163636f756e7420686173206e6f74206f70746564206f757400000000000000604482015290519081900360640190fd5b60006116056115d733611c3d565b603a54336000908152604260205260409020546115f99163ffffffff611f7016565b9063ffffffff611fc916565b905061162261161333610eee565b603f549063ffffffff61171116565b603f5533600090815260426020526040902081905560395461164a908263ffffffff6118f216565b6039555050336000908152604160209081526040808320805460ff191660021790559081905281205560019055565b6001600160a01b038116600090815260426020526040812054819061169d84611c3d565b91509150915091565b303b1590565b82516116bf906035906020860190612220565b5081516116d3906036906020850190612220565b506037805460ff191660ff929092169190911790555050565b7f7bea13895fa79d2831e0a9e28edede30099005a50d652d8957cf8a607ee6ca4a5490565b600061175383836040518060400160405280601e81526020017f536166654d6174683a207375627472616374696f6e206f766572666c6f77000081525061200b565b9392505050565b600061176583611ec3565b9050600061177285611ec3565b9050600061178f61178286611c3d565b859063ffffffff6120a216565b905060006117ac61179f88611c3d565b869063ffffffff6120a216565b905061181d816040518060400160405280601f81526020017f5472616e7366657220616d6f756e7420657863656564732062616c616e636500815250604260008b6001600160a01b03166001600160a01b031681526020019081526020016000205461200b9092919063ffffffff16565b6001600160a01b038089166000908152604260205260408082209390935590881681522054611852908363ffffffff6118f216565b6001600160a01b038716600090815260426020526040902055838015611876575082155b156118ac57603f5461188e908663ffffffff6118f216565b603f556039546118a4908263ffffffff61171116565b6039556118e9565b831580156118b75750825b156118e957603f546118cf908663ffffffff61171116565b603f556039546118e5908363ffffffff6118f216565b6039555b50505050505050565b600082820183811015611753576040805162461bcd60e51b815260206004820152601b60248201527f536166654d6174683a206164646974696f6e206f766572666c6f770000000000604482015290519081900360640190fd5b60008061196784670de0b6b3a764000063ffffffff611f7016565b9050611979818463ffffffff611fc916565b949350505050565b6000805160206122b9833981519152805460028114156119d9576040805162461bcd60e51b815260206004820152600e60248201526d1499595b9d1c985b9d0818d85b1b60921b604482015290519081900360640190fd5b600282556001600160a01b038416611a38576040805162461bcd60e51b815260206004820152601860248201527f4d696e7420746f20746865207a65726f20616464726573730000000000000000604482015290519081900360640190fd5b6000611a4385611ec3565b90506000611a5361179f87611c3d565b6001600160a01b038716600090815260426020526040902054909150611a7f908263ffffffff6118f216565b6001600160a01b0387166000908152604260205260409020558115611ab957603f54611ab1908663ffffffff6118f216565b603f55611ad0565b603954611acc908263ffffffff6118f216565b6039555b603854611ae3908663ffffffff6118f216565b60388190556001600160801b0311611b2f576040805162461bcd60e51b815260206004820152600a6024820152694d617820737570706c7960b01b604482015290519081900360640190fd5b6040805186815290516001600160a01b038816916000916000805160206123288339815191529181900360200190a350506001825550505050565b7f44c4d30b2eaad5130ad70c3ba6972730566f3e6359ab83e800d905c61b1c51db5490565b6001600160a01b038116611bea576040805162461bcd60e51b815260206004820152601a60248201527f4e657720476f7665726e6f722069732061646472657373283029000000000000604482015290519081900360640190fd5b806001600160a01b0316611bfc6116ec565b6001600160a01b03167fc7c0c772add429241571afb3805861fb3cfa2af374534088b76cdb4325a87e9a60405160405180910390a3611c3a816120b7565b50565b6001600160a01b03811660009081526040602081905281205415611c7a57506001600160a01b038116600090815260406020819052902054610f47565b50603a54610f47565b6000805160206122b983398151915280546002811415611cdb576040805162461bcd60e51b815260206004820152600e60248201526d1499595b9d1c985b9d0818d85b1b60921b604482015290519081900360640190fd5b600282556001600160a01b038416611d3a576040805162461bcd60e51b815260206004820152601a60248201527f4275726e2066726f6d20746865207a65726f2061646472657373000000000000604482015290519081900360640190fd5b6000611d4585611ec3565b90506000611d5561179f87611c3d565b6001600160a01b03871660009081526042602052604090205490915080821480611d8157508160018203145b15611da4576001600160a01b038716600090815260426020526040812055611e39565b81811115611df3576001600160a01b038716600090815260426020526040902054611dd5908363ffffffff61171116565b6001600160a01b038816600090815260426020526040902055611e39565b6040805162461bcd60e51b815260206004820152601660248201527552656d6f766520657863656564732062616c616e636560501b604482015290519081900360640190fd5b8215611e5a57603f54611e52908763ffffffff61171116565b603f55611e71565b603954611e6d908363ffffffff61171116565b6039555b603854611e84908763ffffffff61171116565b6038556040805187815290516000916001600160a01b038a16916000805160206123288339815191529181900360200190a35050506001825550505050565b6000611ece826120db565b15611f1b5760026001600160a01b03831660009081526041602052604090205460ff166002811115611efc57fe5b1415611f0a57506000610f47565b611f1382612114565b506001610f47565b60016001600160a01b03831660009081526041602052604090205460ff166002811115611f4457fe5b149050610f47565b7f44c4d30b2eaad5130ad70c3ba6972730566f3e6359ab83e800d905c61b1c51db55565b600082611f7f57506000610951565b82820282848281611f8c57fe5b04146117535760405162461bcd60e51b81526004018080602001828103825260218152602001806122d96021913960400191505060405180910390fd5b600061175383836040518060400160405280601a81526020017f536166654d6174683a206469766973696f6e206279207a65726f00000000000081525061218d565b6000818484111561209a5760405162461bcd60e51b81526004018080602001828103825283818151815260200191508051906020019080838360005b8381101561205f578181015183820152602001612047565b50505050905090810190601f16801561208c5780820380516001836020036101000a031916815260200191505b509250505060405180910390fd5b505050900390565b60006117538383670de0b6b3a76400006121f2565b7f7bea13895fa79d2831e0a9e28edede30099005a50d652d8957cf8a607ee6ca4a55565b6000813f7fc5d2460186f7233c927e7db2dcc703c0e500b653ca82273b7bfad8045d85a470818114801590611979575050151592915050565b6001600160a01b038116600090815260406020819052902054611c3a57603a546001600160a01b03821660009081526040602081905290205561215961133182610eee565b603f556001600160a01b0381166000908152604260205260409020546039546121879163ffffffff61171116565b60395550565b600081836121dc5760405162461bcd60e51b815260206004820181815283516024840152835190928392604490910191908501908083836000831561205f578181015183820152602001612047565b5060008385816121e857fe5b0495945050505050565b600080612205858563ffffffff611f7016565b9050612217818463ffffffff611fc916565b95945050505050565b828054600181600116156101000203166002900490600052602060002090601f016020900481019282601f1061226157805160ff191683800117855561228e565b8280016001018555821561228e579182015b8281111561228e578251825591602001919060010190612273565b5061229a92915061229e565b5090565b61074d91905b8082111561229a57600081556001016122a456fe53bf423e48ed90e97d02ab0ebab13b2a235a6bfbe9c321847d5c175333ac4535536166654d6174683a206d756c7469706c69636174696f6e206f766572666c6f77436f6e747261637420696e7374616e63652068617320616c7265616479206265656e20696e697469616c697a6564ddf252ad1be2c89b69c2b068fc378daa952ba7f163c4a11628f55a4df523b3ef4f6e6c79207468652070656e64696e6720476f7665726e6f722063616e20636f6d706c6574652074686520636c61696da265627a7a723158205c9d5e3c3c38c720d7e24369102ed9ad61cadd8c63b4bd050acc34c7273d1cc664736f6c634300050b00327bea13895fa79d2831e0a9e28edede30099005a50d652d8957cf8a607ee6ca4a",
  "devdoc": {
    "methods": {
      "allowance(address,address)": {
        "details": "Function to check the _amount of tokens that an owner has allowed to a _spender.",
        "params": {
          "_owner": "The address which owns the funds.",
          "_spender": "The address which will spend the funds."
        },
        "return": "The number of tokens still available for the _spender."
      },
      "approve(address,uint256)": {
        "details": "Approve the passed address to spend the specified _amount of tokens on behalf of msg.sender. This method is included for ERC20 compatibility. increaseAllowance and decreaseAllowance should be used instead. Changing an allowance with this method brings the risk that someone may transfer both the old and the new allowance - if they are both greater than zero - if a transfer transaction is mined before the later approve() call is mined.",
        "params": {
          "_spender": "The address which will spend the funds.",
          "_value": "The _amount of tokens to be spent."
        }
      },
      "balanceOf(address)": {
        "details": "Gets the balance of the specified address.",
        "params": {
          "_account": "Address to query the balance of."
        },
        "return": "A uint256 representing the _amount of base units owned by the        specified address."
      },
      "burn(address,uint256)": {
        "details": "Burns tokens, decreasing totalSupply."
      },
      "changeSupply(uint256)": {
        "details": "Modify the supply without minting new tokens. This uses a change in     the exchange rate between \"credits\" and OUSD tokens to change balances.",
        "params": {
          "_newTotalSupply": "New total supply of OUSD."
        },
        "return": "uint256 representing the new total supply."
      },
      "claimGovernance()": {
        "details": "Claim Governance of the contract to a new account (`newGovernor`). Can only be called by the new Governor."
      },
      "creditsBalanceOf(address)": {
        "details": "Gets the credits balance of the specified address.",
        "params": {
          "_account": "The address to query the balance of."
        },
        "return": "(uint256, uint256) Credit balance and credits per token of the        address"
      },
      "decimals()": {
        "details": "Returns the number of decimals used to get its user representation. For example, if `decimals` equals `2`, a balance of `505` tokens should be displayed to a user as `5,05` (`505 / 10 ** 2`).     * Tokens usually opt for a value of 18, imitating the relationship between Ether and Wei.     * NOTE: This information is only used for _display_ purposes: it in no way affects any of the arithmetic of the contract, including {IERC20-balanceOf} and {IERC20-transfer}."
      },
      "decreaseAllowance(address,uint256)": {
        "details": "Decrease the _amount of tokens that an owner has allowed to a _spender.",
        "params": {
          "_spender": "The address which will spend the funds.",
          "_subtractedValue": "The _amount of tokens to decrease the allowance by."
        }
      },
      "governor()": {
        "details": "Returns the address of the current Governor."
      },
      "increaseAllowance(address,uint256)": {
        "details": "Increase the _amount of tokens that an owner has allowed to a _spender. This method should be used instead of approve() to avoid the double approval vulnerability described above.",
        "params": {
          "_addedValue": "The _amount of tokens to increase the allowance by.",
          "_spender": "The address which will spend the funds."
        }
      },
      "isGovernor()": {
        "details": "Returns true if the caller is the current Governor."
      },
      "mint(address,uint256)": {
        "details": "Mints new tokens, increasing totalSupply."
      },
      "name()": {
        "details": "Returns the name of the token."
      },
      "rebaseOptIn()": {
        "details": "Add a contract address to the non rebasing exception list. I.e. the address's balance will be part of rebases so the account will be exposed to upside and downside."
      },
      "rebaseOptOut()": {
        "details": "Remove a contract address to the non rebasing exception list."
      },
      "symbol()": {
        "details": "Returns the symbol of the token, usually a shorter version of the name."
      },
      "totalSupply()": {
        "return": "The total supply of OUSD."
      },
      "transfer(address,uint256)": {
        "details": "Transfer tokens to a specified address.",
        "params": {
          "_to": "the address to transfer to.",
          "_value": "the _amount to be transferred."
        },
        "return": "true on success."
      },
      "transferFrom(address,address,uint256)": {
        "details": "Transfer tokens from one address to another.",
        "params": {
          "_from": "The address you want to send tokens from.",
          "_to": "The address you want to transfer to.",
          "_value": "The _amount of tokens to be transferred."
        }
      },
      "transferGovernance(address)": {
        "details": "Transfers Governance of the contract to a new account (`newGovernor`). Can only be called by the current Governor. Must be claimed for this to complete",
        "params": {
          "_newGovernor": "Address of the new Governor"
        }
      }
    }
  },
  "userdoc": {
    "methods": {
      "reset()": {
        "notice": "Reset function to restore initial state. TODO Remove"
      }
    }
  }
}