{
  "address": "0xB06d8C94D4073E249fDEc446b1A99a2f5F482A20",
  "abi": [
    {
      "inputs": [
        {
          "internalType": "address",
          "name": "_oToken",
          "type": "address"
        },
        {
          "internalType": "address",
          "name": "_ogv",
          "type": "address"
        },
        {
          "internalType": "address",
          "name": "_cvx",
          "type": "address"
        },
        {
          "internalType": "address",
          "name": "_cvxLocker",
          "type": "address"
        }
      ],
      "stateMutability": "nonpayable",
      "type": "constructor"
    },
    {
      "anonymous": false,
      "inputs": [
        {
          "indexed": true,
          "internalType": "address",
          "name": "previousGovernor",
          "type": "address"
        },
        {
          "indexed": true,
          "internalType": "address",
          "name": "newGovernor",
          "type": "address"
        }
      ],
      "name": "GovernorshipTransferred",
      "type": "event"
    },
    {
      "anonymous": false,
      "inputs": [
        {
          "indexed": true,
          "internalType": "address",
          "name": "oToken",
          "type": "address"
        },
        {
          "indexed": true,
          "internalType": "address",
          "name": "swappedFor",
          "type": "address"
        },
        {
          "indexed": false,
          "internalType": "uint256",
          "name": "swapAmountIn",
          "type": "uint256"
        },
        {
          "indexed": false,
          "internalType": "uint256",
          "name": "minExpected",
          "type": "uint256"
        }
      ],
      "name": "OTokenBuyback",
      "type": "event"
    },
    {
      "anonymous": false,
      "inputs": [
        {
          "indexed": true,
          "internalType": "address",
          "name": "previousGovernor",
          "type": "address"
        },
        {
          "indexed": true,
          "internalType": "address",
          "name": "newGovernor",
          "type": "address"
        }
      ],
      "name": "PendingGovernorshipTransfer",
      "type": "event"
    },
    {
      "anonymous": false,
      "inputs": [
        {
          "indexed": true,
          "internalType": "address",
          "name": "_address",
          "type": "address"
        }
      ],
      "name": "RewardsSourceUpdated",
      "type": "event"
    },
    {
      "anonymous": false,
      "inputs": [
        {
          "indexed": false,
          "internalType": "address",
          "name": "_address",
          "type": "address"
        }
      ],
      "name": "StrategistUpdated",
      "type": "event"
    },
    {
      "anonymous": false,
      "inputs": [
        {
          "indexed": true,
          "internalType": "address",
          "name": "_address",
          "type": "address"
        }
      ],
      "name": "TreasuryManagerUpdated",
      "type": "event"
    },
    {
      "anonymous": false,
      "inputs": [
        {
          "indexed": true,
          "internalType": "address",
          "name": "_address",
          "type": "address"
        }
      ],
      "name": "UniswapUniversalRouterUpdated",
      "type": "event"
    },
    {
      "inputs": [],
      "name": "claimGovernance",
      "outputs": [],
      "stateMutability": "nonpayable",
      "type": "function"
    },
    {
      "inputs": [],
      "name": "cvx",
      "outputs": [
        {
          "internalType": "address",
          "name": "",
          "type": "address"
        }
      ],
      "stateMutability": "view",
      "type": "function"
    },
    {
      "inputs": [],
      "name": "cvxLocker",
      "outputs": [
        {
          "internalType": "address",
          "name": "",
          "type": "address"
        }
      ],
      "stateMutability": "view",
      "type": "function"
    },
    {
      "inputs": [],
      "name": "cvxPath",
      "outputs": [
        {
          "internalType": "bytes",
          "name": "",
          "type": "bytes"
        }
      ],
      "stateMutability": "view",
      "type": "function"
    },
    {
      "inputs": [],
      "name": "governor",
      "outputs": [
        {
          "internalType": "address",
          "name": "",
          "type": "address"
        }
      ],
      "stateMutability": "view",
      "type": "function"
    },
    {
      "inputs": [
        {
          "internalType": "address",
          "name": "_uniswapUniversalRouter",
          "type": "address"
        },
        {
          "internalType": "address",
          "name": "_strategistAddr",
          "type": "address"
        },
        {
          "internalType": "address",
          "name": "_treasuryManagerAddr",
          "type": "address"
        },
        {
          "internalType": "address",
          "name": "_rewardsSource",
          "type": "address"
        }
      ],
      "name": "initialize",
      "outputs": [],
      "stateMutability": "nonpayable",
      "type": "function"
    },
    {
      "inputs": [],
      "name": "isGovernor",
      "outputs": [
        {
          "internalType": "bool",
          "name": "",
          "type": "bool"
        }
      ],
      "stateMutability": "view",
      "type": "function"
    },
    {
      "inputs": [],
      "name": "lockAllCVX",
      "outputs": [],
      "stateMutability": "nonpayable",
      "type": "function"
    },
    {
      "inputs": [],
      "name": "oToken",
      "outputs": [
        {
          "internalType": "address",
          "name": "",
          "type": "address"
        }
      ],
      "stateMutability": "view",
      "type": "function"
    },
    {
      "inputs": [],
      "name": "ogv",
      "outputs": [
        {
          "internalType": "address",
          "name": "",
          "type": "address"
        }
      ],
      "stateMutability": "view",
      "type": "function"
    },
    {
      "inputs": [],
      "name": "ogvPath",
      "outputs": [
        {
          "internalType": "bytes",
          "name": "",
          "type": "bytes"
        }
      ],
      "stateMutability": "view",
      "type": "function"
    },
    {
      "inputs": [],
      "name": "rewardsSource",
      "outputs": [
        {
          "internalType": "address",
          "name": "",
          "type": "address"
        }
      ],
      "stateMutability": "view",
      "type": "function"
    },
    {
      "inputs": [],
      "name": "safeApproveAllTokens",
      "outputs": [],
      "stateMutability": "nonpayable",
      "type": "function"
    },
    {
      "inputs": [
        {
          "internalType": "address",
          "name": "_address",
          "type": "address"
        }
      ],
      "name": "setRewardsSource",
      "outputs": [],
      "stateMutability": "nonpayable",
      "type": "function"
    },
    {
      "inputs": [
        {
          "internalType": "address",
          "name": "_address",
          "type": "address"
        }
      ],
      "name": "setStrategistAddr",
      "outputs": [],
      "stateMutability": "nonpayable",
      "type": "function"
    },
    {
      "inputs": [
        {
          "internalType": "address",
          "name": "_address",
          "type": "address"
        }
      ],
      "name": "setTreasuryManager",
      "outputs": [],
      "stateMutability": "nonpayable",
      "type": "function"
    },
    {
      "inputs": [
        {
          "internalType": "address",
          "name": "_router",
          "type": "address"
        }
      ],
      "name": "setUniswapUniversalRouter",
      "outputs": [],
      "stateMutability": "nonpayable",
      "type": "function"
    },
    {
      "inputs": [],
      "name": "strategistAddr",
      "outputs": [
        {
          "internalType": "address",
          "name": "",
          "type": "address"
        }
      ],
      "stateMutability": "view",
      "type": "function"
    },
    {
      "inputs": [
        {
          "internalType": "uint256",
          "name": "oTokenAmount",
          "type": "uint256"
        },
        {
          "internalType": "uint256",
          "name": "minOGV",
          "type": "uint256"
        },
        {
          "internalType": "uint256",
          "name": "minCVX",
          "type": "uint256"
        }
      ],
      "name": "swap",
      "outputs": [],
      "stateMutability": "nonpayable",
      "type": "function"
    },
    {
      "inputs": [
        {
          "internalType": "address",
          "name": "_newGovernor",
          "type": "address"
        }
      ],
      "name": "transferGovernance",
      "outputs": [],
      "stateMutability": "nonpayable",
      "type": "function"
    },
    {
      "inputs": [
        {
          "internalType": "address",
          "name": "token",
          "type": "address"
        },
        {
          "internalType": "uint256",
          "name": "amount",
          "type": "uint256"
        }
      ],
      "name": "transferToken",
      "outputs": [],
      "stateMutability": "nonpayable",
      "type": "function"
    },
    {
      "inputs": [],
      "name": "treasuryManager",
      "outputs": [
        {
          "internalType": "address",
          "name": "",
          "type": "address"
        }
      ],
      "stateMutability": "view",
      "type": "function"
    },
    {
      "inputs": [],
      "name": "universalRouter",
      "outputs": [
        {
          "internalType": "address",
          "name": "",
          "type": "address"
        }
      ],
      "stateMutability": "view",
      "type": "function"
    }
  ],
  "transactionHash": "0xe22f222da13c4a00bb067d05f3f0a1961e6bbfeb18febee0bc9a2c7dc4a55784",
  "args": [
    "0x2A8e1E676Ec238d8A992307B495b45B3fEAa5e86",
    "0x9c354503C38481a7A7a51629142963F98eCC12D0",
    "0x4e3fbd56cd56c3e72c1403e103b45db9da5b9d2b",
    "0x72a19342e8F1838460eBFCCEf09F6585e32db86E"
  ],
  "numDeployments": 1,
  "solcInputHash": "cbe8ca5d8b66f667d4342579c23f943f",
  "bytecode": "0x6101006040523480156200001257600080fd5b506040516200204738038062002047833981016040819052620000359162000104565b8383838362000051336000805160206200202783398151915255565b60008051602062002027833981519152546040516001600160a01b03909116906000907fc7c0c772add429241571afb3805861fb3cfa2af374534088b76cdb4325a87e9a908290a3620000b260006000805160206200202783398151915255565b6001600160601b0319606094851b811660805292841b831660a05290831b821660c05290911b1660e052506200016192505050565b80516001600160a01b0381168114620000ff57600080fd5b919050565b600080600080608085870312156200011b57600080fd5b6200012685620000e7565b93506200013660208601620000e7565b92506200014660408601620000e7565b91506200015660608601620000e7565b905092959194509250565b60805160601c60a05160601c60c05160601c60e05160601c611e10620002176000396000818161026701528181610de501526111dd01526000818161028e01528181610881015281816109cd01528181610c7c01528181610dc30152818161120b01526114a80152600081816101b2015281816107e40152818161095e01528181610b73015261144f0152600081816101d901528181610a5d01528181610b9801528181610ca00152610e350152611e106000f3fe608060405234801561001057600080fd5b506004361061014d5760003560e01c8063773540b3116100c3578063d1c766381161007c578063d1c76638146102e3578063d1f97aae146102f6578063d38bfff4146102fe578063f7240d2f14610311578063f8c8765e14610324578063fe47a9f21461033757600080fd5b8063773540b31461024f5780638d68f9ff14610262578063923c1d61146102895780639d9892cd146102b0578063ad1728cb146102c3578063c7af3352146102cb57600080fd5b80631a32aad6116101155780631a32aad6146101d457806335a9e4df146101fb5780633cea70d91461020e5780634bb2497d14610221578063570d8e1d146102345780635d36b1901461024757600080fd5b8063015763ba146101525780630c340a24146101705780631072cbea14610190578063113f2ec7146101a5578063142561cf146101ad575b600080fd5b61015a61034a565b6040516101679190611b72565b60405180910390f35b610178610366565b6040516001600160a01b039091168152602001610167565b6101a361019e366004611a58565b610383565b005b6101a361044c565b6101787f000000000000000000000000000000000000000000000000000000000000000081565b6101787f000000000000000000000000000000000000000000000000000000000000000081565b606654610178906001600160a01b031681565b606c54610178906001600160a01b031681565b6101a361022f3660046119e9565b61048e565b603354610178906001600160a01b031681565b6101a36104be565b6101a361025d3660046119e9565b610562565b6101787f000000000000000000000000000000000000000000000000000000000000000081565b6101787f000000000000000000000000000000000000000000000000000000000000000081565b6101a36102be366004611abd565b61058f565b6101a3610d7e565b6102d3610eb3565b6040519015158152602001610167565b6101a36102f13660046119e9565b610ee4565b61015a610f11565b6101a361030c3660046119e9565b610f2d565b606b54610178906001600160a01b031681565b6101a3610332366004611a04565b610fd1565b6101a36103453660046119e9565b6110d0565b604051806080016040528060598152602001611d826059913981565b600061037e600080516020611d628339815191525490565b905090565b61038b610eb3565b6103b05760405162461bcd60e51b81526004016103a790611c00565b60405180910390fd5b7f53bf423e48ed90e97d02ab0ebab13b2a235a6bfbe9c321847d5c175333ac4535805460028114156104155760405162461bcd60e51b815260206004820152600e60248201526d1499595b9d1c985b9d0818d85b1b60921b60448201526064016103a7565b60028255610443610432600080516020611d628339815191525490565b6001600160a01b03861690856110fd565b50600190555050565b6033546001600160a01b03163314806104685750610468610eb3565b6104845760405162461bcd60e51b81526004016103a790611c37565b61048c611165565b565b610496610eb3565b6104b25760405162461bcd60e51b81526004016103a790611c00565b6104bb816112ec565b50565b7f44c4d30b2eaad5130ad70c3ba6972730566f3e6359ab83e800d905c61b1c51db546001600160a01b0316336001600160a01b0316146105595760405162461bcd60e51b815260206004820152603060248201527f4f6e6c79207468652070656e64696e6720476f7665726e6f722063616e20636f60448201526f6d706c6574652074686520636c61696d60801b60648201526084016103a7565b61048c33611336565b61056a610eb3565b6105865760405162461bcd60e51b81526004016103a790611c00565b6104bb816113f7565b6033546001600160a01b03163314806105ab57506105ab610eb3565b6105c75760405162461bcd60e51b81526004016103a790611c37565b7f53bf423e48ed90e97d02ab0ebab13b2a235a6bfbe9c321847d5c175333ac45358054600281141561062c5760405162461bcd60e51b815260206004820152600e60248201526d1499595b9d1c985b9d0818d85b1b60921b60448201526064016103a7565b60028255600085116106765760405162461bcd60e51b8152602060048201526013602482015272125b9d985b1a590814ddd85c08105b5bdd5b9d606a1b60448201526064016103a7565b6066546001600160a01b03166106c75760405162461bcd60e51b8152602060048201526016602482015275155b9a5cddd85c08149bdd5d195c881b9bdd081cd95d60521b60448201526064016103a7565b606b546001600160a01b031661071f5760405162461bcd60e51b815260206004820152601e60248201527f52657761726473536f7572636520636f6e7472616374206e6f7420736574000060448201526064016103a7565b6000841161076f5760405162461bcd60e51b815260206004820152601960248201527f496e76616c6964206d696e416d6f756e7420666f72204f47560000000000000060448201526064016103a7565b600083116107bf5760405162461bcd60e51b815260206004820152601960248201527f496e76616c6964206d696e416d6f756e7420666f72204356580000000000000060448201526064016103a7565b606b546040516370a0823160e01b81526001600160a01b0391821660048201526000917f000000000000000000000000000000000000000000000000000000000000000016906370a082319060240160206040518083038186803b15801561082657600080fd5b505afa15801561083a573d6000803e3d6000fd5b505050506040513d601f19601f8201168201806040525081019061085e9190611aa4565b6040516370a0823160e01b81523060048201529091506000906001600160a01b037f000000000000000000000000000000000000000000000000000000000000000016906370a082319060240160206040518083038186803b1580156108c357600080fd5b505afa1580156108d7573d6000803e3d6000fd5b505050506040513d601f19601f820116820180604052508101906108fb9190611aa4565b9050600061090a600289611c7f565b90506000610918828a611ca1565b6040805160028082526060820190925291925060009190816020015b6060815260200190600190039081610934575050606b549091506001600160a01b0316838a6109827f000000000000000000000000000000000000000000000000000000000000000061144b565b6000604051602001610998959493929190611b31565b604051602081830303815290604052816000815181106109ba576109ba611cf2565b60200260200101819052503082896109f17f000000000000000000000000000000000000000000000000000000000000000061144b565b6000604051602001610a07959493929190611b31565b60405160208183030381529060405281600181518110610a2957610a29611cf2565b602090810291909101015260665460405163a9059cbb60e01b81526001600160a01b039182166004820152602481018c90527f00000000000000000000000000000000000000000000000000000000000000009091169063a9059cbb90604401602060405180830381600087803b158015610aa357600080fd5b505af1158015610ab7573d6000803e3d6000fd5b505050506040513d601f19601f82011682018060405250810190610adb9190611a82565b5060665460408051808201825260028152600060208201529051630d64d59360e21b81526001600160a01b0390921691633593564c91610b219185904290600401611b85565b600060405180830381600087803b158015610b3b57600080fd5b505af1158015610b4f573d6000803e3d6000fd5b5050606b546040516370a0823160e01b81526001600160a01b0391821660048201527f0000000000000000000000000000000000000000000000000000000000000000821693507f000000000000000000000000000000000000000000000000000000000000000090911691507f298e4dbf1f6f43b0e8cd13394bba43125c8c376005b44b664a9fd2eaaeb44743908690899085906370a082319060240160206040518083038186803b158015610c0557600080fd5b505afa158015610c19573d6000803e3d6000fd5b505050506040513d601f19601f82011682018060405250810190610c3d9190611aa4565b610c479190611ca1565b6040805192835260208301919091520160405180910390a36040516370a0823160e01b81523060048201526001600160a01b037f00000000000000000000000000000000000000000000000000000000000000008116917f0000000000000000000000000000000000000000000000000000000000000000909116907f298e4dbf1f6f43b0e8cd13394bba43125c8c376005b44b664a9fd2eaaeb44743908590889085906370a082319060240160206040518083038186803b158015610d0c57600080fd5b505afa158015610d20573d6000803e3d6000fd5b505050506040513d601f19601f82011682018060405250810190610d449190611aa4565b610d4e9190611ca1565b6040805192835260208301919091520160405180910390a3610d6e611165565b5050505050600182555050505050565b6033546001600160a01b0316331480610d9a5750610d9a610eb3565b610db65760405162461bcd60e51b81526004016103a790611c37565b610e0c6001600160a01b037f0000000000000000000000000000000000000000000000000000000000000000167f000000000000000000000000000000000000000000000000000000000000000060001961153e565b60665460405163095ea7b360e01b81526001600160a01b039182166004820152600060248201527f00000000000000000000000000000000000000000000000000000000000000009091169063095ea7b390604401602060405180830381600087803b158015610e7b57600080fd5b505af1158015610e8f573d6000803e3d6000fd5b505050506040513d601f19601f820116820180604052508101906104bb9190611a82565b6000610ecb600080516020611d628339815191525490565b6001600160a01b0316336001600160a01b031614905090565b610eec610eb3565b610f085760405162461bcd60e51b81526004016103a790611c00565b6104bb81611662565b604051806080016040528060598152602001611d096059913981565b610f35610eb3565b610f515760405162461bcd60e51b81526004016103a790611c00565b610f79817f44c4d30b2eaad5130ad70c3ba6972730566f3e6359ab83e800d905c61b1c51db55565b806001600160a01b0316610f99600080516020611d628339815191525490565b6001600160a01b03167fa39cc5eb22d0f34d8beaefee8a3f17cc229c1a1d1ef87a5ad47313487b1c4f0d60405160405180910390a350565b610fd9610eb3565b610ff55760405162461bcd60e51b81526004016103a790611c00565b600054610100900460ff168061100e575060005460ff16155b6110715760405162461bcd60e51b815260206004820152602e60248201527f496e697469616c697a61626c653a20636f6e747261637420697320616c72656160448201526d191e481a5b9a5d1a585b1a5e995960921b60648201526084016103a7565b600054610100900460ff16158015611093576000805461ffff19166101011790555b61109c846113f7565b6110a5856112ec565b6110ae82611662565b6110b7836116f4565b80156110c9576000805461ff00191690555b5050505050565b6110d8610eb3565b6110f45760405162461bcd60e51b81526004016103a790611c00565b6104bb816116f4565b6040516001600160a01b03831660248201526044810182905261116090849063a9059cbb60e01b906064015b60408051601f198184030181529190526020810180516001600160e01b03166001600160e01b031990931692909217909152611786565b505050565b606c546001600160a01b03166111bd5760405162461bcd60e51b815260206004820181905260248201527f5472656173757279206d616e616765722061646472657373206e6f742073657460448201526064016103a7565b606c546040516370a0823160e01b81523060048201526001600160a01b037f000000000000000000000000000000000000000000000000000000000000000081169263e2ab691d92908216917f000000000000000000000000000000000000000000000000000000000000000016906370a082319060240160206040518083038186803b15801561124d57600080fd5b505afa158015611261573d6000803e3d6000fd5b505050506040513d601f19601f820116820180604052508101906112859190611aa4565b6040516001600160e01b031960e085901b1681526001600160a01b039092166004830152602482015260006044820152606401600060405180830381600087803b1580156112d257600080fd5b505af11580156112e6573d6000803e3d6000fd5b50505050565b606680546001600160a01b0319166001600160a01b0383169081179091556040517f051797c39b656a0d4662e15ca4b53ab75d44de6827a925c626b8432985f5941590600090a250565b6001600160a01b03811661138c5760405162461bcd60e51b815260206004820152601a60248201527f4e657720476f7665726e6f72206973206164647265737328302900000000000060448201526064016103a7565b806001600160a01b03166113ac600080516020611d628339815191525490565b6001600160a01b03167fc7c0c772add429241571afb3805861fb3cfa2af374534088b76cdb4325a87e9a60405160405180910390a36104bb81600080516020611d6283398151915255565b603380546001600160a01b0319166001600160a01b0383169081179091556040519081527f869e0abd13cc3a975de7b93be3df1cb2255c802b1cead85963cc79d99f131bee9060200160405180910390a150565b60607f00000000000000000000000000000000000000000000000000000000000000006001600160a01b0316826001600160a01b031614156114a657604051806080016040528060598152602001611d096059913992915050565b7f00000000000000000000000000000000000000000000000000000000000000006001600160a01b0316826001600160a01b031614156114ff57604051806080016040528060598152602001611d826059913992915050565b60405162461bcd60e51b815260206004820152600f60248201526e24b73b30b634b2103a37aa37b5b2b760891b60448201526064016103a7565b919050565b8015806115c75750604051636eb1769f60e11b81523060048201526001600160a01b03838116602483015284169063dd62ed3e9060440160206040518083038186803b15801561158d57600080fd5b505afa1580156115a1573d6000803e3d6000fd5b505050506040513d601f19601f820116820180604052508101906115c59190611aa4565b155b6116325760405162461bcd60e51b815260206004820152603660248201527f5361666545524332303a20617070726f76652066726f6d206e6f6e2d7a65726f60448201527520746f206e6f6e2d7a65726f20616c6c6f77616e636560501b60648201526084016103a7565b6040516001600160a01b03831660248201526044810182905261116090849063095ea7b360e01b90606401611129565b6001600160a01b0381166116aa5760405162461bcd60e51b815260206004820152600f60248201526e1059191c995cdcc81b9bdd081cd95d608a1b60448201526064016103a7565b606b80546001600160a01b0319166001600160a01b0383169081179091556040517f95561238de8d7836da6d15311c07a2546a1a712b477f44391ddd1e6e0556c6cd90600090a250565b6001600160a01b03811661173c5760405162461bcd60e51b815260206004820152600f60248201526e1059191c995cdcc81b9bdd081cd95d608a1b60448201526064016103a7565b606c80546001600160a01b0319166001600160a01b0383169081179091556040517fd16d2cf254200e4dc6dc82512e9d11673e06a798c40b90cef7583729b4f7a8d490600090a250565b60006117db826040518060400160405280602081526020017f5361666545524332303a206c6f772d6c6576656c2063616c6c206661696c6564815250856001600160a01b03166118589092919063ffffffff16565b80519091501561116057808060200190518101906117f99190611a82565b6111605760405162461bcd60e51b815260206004820152602a60248201527f5361666545524332303a204552433230206f7065726174696f6e20646964206e6044820152691bdd081cdd58d8d9595960b21b60648201526084016103a7565b60606118678484600085611871565b90505b9392505050565b6060824710156118d25760405162461bcd60e51b815260206004820152602660248201527f416464726573733a20696e73756666696369656e742062616c616e636520666f6044820152651c8818d85b1b60d21b60648201526084016103a7565b843b6119205760405162461bcd60e51b815260206004820152601d60248201527f416464726573733a2063616c6c20746f206e6f6e2d636f6e747261637400000060448201526064016103a7565b600080866001600160a01b0316858760405161193c9190611b15565b60006040518083038185875af1925050503d8060008114611979576040519150601f19603f3d011682016040523d82523d6000602084013e61197e565b606091505b509150915061198e828286611999565b979650505050505050565b606083156119a857508161186a565b8251156119b85782518084602001fd5b8160405162461bcd60e51b81526004016103a79190611b72565b80356001600160a01b038116811461153957600080fd5b6000602082840312156119fb57600080fd5b61186a826119d2565b60008060008060808587031215611a1a57600080fd5b611a23856119d2565b9350611a31602086016119d2565b9250611a3f604086016119d2565b9150611a4d606086016119d2565b905092959194509250565b60008060408385031215611a6b57600080fd5b611a74836119d2565b946020939093013593505050565b600060208284031215611a9457600080fd5b8151801515811461186a57600080fd5b600060208284031215611ab657600080fd5b5051919050565b600080600060608486031215611ad257600080fd5b505081359360208301359350604090920135919050565b60008151808452611b01816020860160208601611cc6565b601f01601f19169290920160200192915050565b60008251611b27818460208701611cc6565b9190910192915050565b60018060a01b038616815284602082015283604082015260a060608201526000611b5e60a0830185611ae9565b905082151560808301529695505050505050565b60208152600061186a6020830184611ae9565b606081526000611b986060830186611ae9565b6020838203818501528186518084528284019150828160051b85010183890160005b83811015611be857601f19878403018552611bd6838351611ae9565b94860194925090850190600101611bba565b50508095505050505050826040830152949350505050565b6020808252601a908201527f43616c6c6572206973206e6f742074686520476f7665726e6f72000000000000604082015260600190565b60208082526028908201527f43616c6c6572206973206e6f74207468652053747261746567697374206f722060408201526723b7bb32b93737b960c11b606082015260800190565b600082611c9c57634e487b7160e01b600052601260045260246000fd5b500490565b600082821015611cc157634e487b7160e01b600052601160045260246000fd5b500390565b60005b83811015611ce1578181015183820152602001611cc9565b838111156112e65750506000910152565b634e487b7160e01b600052603260045260246000fdfe2a8e1e676ec238d8a992307b495b45b3feaa5e860001f4dac17f958d2ee523a2206206994597c13d831ec70001f4c02aaa39b223fe8d0a0e5c4f27ead9083c756cc2000bb89c354503c38481a7a7a51629142963f98ecc12d07bea13895fa79d2831e0a9e28edede30099005a50d652d8957cf8a607ee6ca4a2a8e1e676ec238d8a992307b495b45b3feaa5e860001f4dac17f958d2ee523a2206206994597c13d831ec70001f4c02aaa39b223fe8d0a0e5c4f27ead9083c756cc20027104e3fbd56cd56c3e72c1403e103b45db9da5b9d2ba2646970667358221220152ad296403f37fc630599470dcb26d7a19b4108d682cf82eb30a8cf4ea6759a64736f6c634300080700337bea13895fa79d2831e0a9e28edede30099005a50d652d8957cf8a607ee6ca4a",
  "devdoc": {
    "kind": "dev",
    "methods": {
      "initialize(address,address,address,address)": {
        "params": {
          "_rewardsSource": "Address of RewardsSource contract",
          "_strategistAddr": "Address of Strategist multi-sig wallet",
          "_treasuryManagerAddr": "Address that receives the treasury's share of OUSD",
          "_uniswapUniversalRouter": "Address of Uniswap V3 Router"
        }
      },
      "lockAllCVX()": {
        "details": "Locks all CVX held by the contract on behalf of the Treasury Manager"
      },
      "safeApproveAllTokens()": {
        "details": "Approve CVX Locker to move CVX held by this contract"
      },
      "setRewardsSource(address)": {
        "details": "Sets the address that receives the OGV buyback rewards",
        "params": {
          "_address": "Address"
        }
      },
      "setStrategistAddr(address)": {
        "details": "Set address of Strategist",
        "params": {
          "_address": "Address of Strategist"
        }
      },
      "setTreasuryManager(address)": {
        "details": "Sets the address that can receive and manage the funds for Treasury",
        "params": {
          "_address": "Address"
        }
      },
      "setUniswapUniversalRouter(address)": {
        "details": "Set address of Uniswap Universal Router for performing liquidation of platform fee tokens. Setting to 0x0 will pause swaps.",
        "params": {
          "_router": "Address of the Uniswap Universal router"
        }
      },
      "swap(uint256,uint256,uint256)": {
        "details": "Swaps half of `oTokenAmount` to OGV      and the rest to CVX and finally lock up CVX",
        "params": {
          "minCVX": "Minimum CVX to receive for oTokenAmount/2",
          "minOGV": "Minimum OGV to receive for oTokenAmount/2",
          "oTokenAmount": "Amount of OUSD/OETH to swap"
        }
      },
      "transferGovernance(address)": {
        "params": {
          "_newGovernor": "Address of the new Governor"
        }
      },
      "transferToken(address,uint256)": {
        "params": {
          "amount": "amount of the token to be transferred",
          "token": "token to be transferered"
        }
      }
    },
    "version": 1
  },
  "userdoc": {
    "kind": "user",
    "methods": {
      "claimGovernance()": {
        "notice": "Claim Governance of the contract to a new account (`newGovernor`). Can only be called by the new Governor."
      },
      "governor()": {
        "notice": "Returns the address of the current Governor."
      },
      "isGovernor()": {
        "notice": "Returns true if the caller is the current Governor."
      },
      "transferGovernance(address)": {
        "notice": "Transfers Governance of the contract to a new account (`newGovernor`). Can only be called by the current Governor. Must be claimed for this to complete"
      },
      "transferToken(address,uint256)": {
        "notice": "Owner function to withdraw a specific amount of a token"
      }
    },
    "version": 1
  },
  "storageLayout": {
    "storage": [
      {
        "astId": 35607,
        "contract": "contracts/buyback/OUSDBuyback.sol:OUSDBuyback",
        "label": "initialized",
        "offset": 0,
        "slot": "0",
        "type": "t_bool"
      },
      {
        "astId": 35610,
        "contract": "contracts/buyback/OUSDBuyback.sol:OUSDBuyback",
        "label": "initializing",
        "offset": 1,
        "slot": "0",
        "type": "t_bool"
      },
      {
        "astId": 35650,
        "contract": "contracts/buyback/OUSDBuyback.sol:OUSDBuyback",
        "label": "______gap",
        "offset": 0,
        "slot": "1",
        "type": "t_array(t_uint256)50_storage"
      },
      {
        "astId": 7682,
        "contract": "contracts/buyback/OUSDBuyback.sol:OUSDBuyback",
        "label": "strategistAddr",
        "offset": 0,
        "slot": "51",
        "type": "t_address"
      },
      {
        "astId": 7686,
        "contract": "contracts/buyback/OUSDBuyback.sol:OUSDBuyback",
        "label": "__gap",
        "offset": 0,
        "slot": "52",
        "type": "t_array(t_uint256)50_storage"
      },
      {
        "astId": 2234,
        "contract": "contracts/buyback/OUSDBuyback.sol:OUSDBuyback",
        "label": "universalRouter",
        "offset": 0,
        "slot": "102",
        "type": "t_address"
      },
      {
        "astId": 2236,
        "contract": "contracts/buyback/OUSDBuyback.sol:OUSDBuyback",
        "label": "__deprecated_ousd",
        "offset": 0,
        "slot": "103",
        "type": "t_address"
      },
      {
        "astId": 2238,
        "contract": "contracts/buyback/OUSDBuyback.sol:OUSDBuyback",
        "label": "__deprecated_ogv",
        "offset": 0,
        "slot": "104",
        "type": "t_address"
      },
      {
        "astId": 2240,
        "contract": "contracts/buyback/OUSDBuyback.sol:OUSDBuyback",
        "label": "__deprecated_usdt",
        "offset": 0,
        "slot": "105",
        "type": "t_address"
      },
      {
        "astId": 2242,
        "contract": "contracts/buyback/OUSDBuyback.sol:OUSDBuyback",
        "label": "__deprecated_weth9",
        "offset": 0,
        "slot": "106",
        "type": "t_address"
      },
      {
        "astId": 2244,
        "contract": "contracts/buyback/OUSDBuyback.sol:OUSDBuyback",
        "label": "rewardsSource",
        "offset": 0,
        "slot": "107",
        "type": "t_address"
      },
      {
        "astId": 2246,
        "contract": "contracts/buyback/OUSDBuyback.sol:OUSDBuyback",
        "label": "treasuryManager",
        "offset": 0,
        "slot": "108",
        "type": "t_address"
      },
      {
        "astId": 2248,
        "contract": "contracts/buyback/OUSDBuyback.sol:OUSDBuyback",
        "label": "__deprecated_treasuryBps",
        "offset": 0,
        "slot": "109",
        "type": "t_uint256"
      }
    ],
    "types": {
      "t_address": {
        "encoding": "inplace",
        "label": "address",
        "numberOfBytes": "20"
      },
      "t_array(t_uint256)50_storage": {
        "base": "t_uint256",
        "encoding": "inplace",
        "label": "uint256[50]",
        "numberOfBytes": "1600"
      },
      "t_bool": {
        "encoding": "inplace",
        "label": "bool",
        "numberOfBytes": "1"
      },
      "t_uint256": {
        "encoding": "inplace",
        "label": "uint256",
        "numberOfBytes": "32"
      }
    }
  }
}