{
  "address": "0xE3A9F4eDaF8aBD275Beea7e6a19fDbE6B314578e",
  "abi": [
    {
      "inputs": [
        {
          "internalType": "address",
          "name": "_usdc",
          "type": "address"
        }
      ],
      "stateMutability": "nonpayable",
      "type": "constructor"
    },
    {
      "anonymous": false,
      "inputs": [
        {
          "indexed": false,
          "internalType": "uint256",
          "name": "_threshold",
          "type": "uint256"
        }
      ],
      "name": "AllocateThresholdUpdated",
      "type": "event"
    },
    {
      "anonymous": false,
      "inputs": [
        {
          "indexed": false,
          "internalType": "address",
          "name": "_asset",
          "type": "address"
        },
        {
          "indexed": false,
          "internalType": "address",
          "name": "_strategy",
          "type": "address"
        },
        {
          "indexed": false,
          "internalType": "uint256",
          "name": "_amount",
          "type": "uint256"
        }
      ],
      "name": "AssetAllocated",
      "type": "event"
    },
    {
      "anonymous": false,
      "inputs": [],
      "name": "CapitalPaused",
      "type": "event"
    },
    {
      "anonymous": false,
      "inputs": [],
      "name": "CapitalUnpaused",
      "type": "event"
    },
    {
      "anonymous": false,
      "inputs": [
        {
          "indexed": false,
          "internalType": "address",
          "name": "_strategy",
          "type": "address"
        }
      ],
      "name": "DefaultStrategyUpdated",
      "type": "event"
    },
    {
      "anonymous": false,
      "inputs": [
        {
          "indexed": false,
          "internalType": "uint256",
          "name": "dripDuration",
          "type": "uint256"
        }
      ],
      "name": "DripDurationChanged",
      "type": "event"
    },
    {
      "anonymous": false,
      "inputs": [
        {
          "indexed": true,
          "internalType": "address",
          "name": "previousGovernor",
          "type": "address"
        },
        {
          "indexed": true,
          "internalType": "address",
          "name": "newGovernor",
          "type": "address"
        }
      ],
      "name": "GovernorshipTransferred",
      "type": "event"
    },
    {
      "anonymous": false,
      "inputs": [
        {
          "indexed": false,
          "internalType": "uint256",
          "name": "maxSupplyDiff",
          "type": "uint256"
        }
      ],
      "name": "MaxSupplyDiffChanged",
      "type": "event"
    },
    {
      "anonymous": false,
      "inputs": [
        {
          "indexed": false,
          "internalType": "address",
          "name": "_addr",
          "type": "address"
        },
        {
          "indexed": false,
          "internalType": "uint256",
          "name": "_value",
          "type": "uint256"
        }
      ],
      "name": "Mint",
      "type": "event"
    },
    {
      "anonymous": false,
      "inputs": [
        {
          "indexed": true,
          "internalType": "address",
          "name": "previousGovernor",
          "type": "address"
        },
        {
          "indexed": true,
          "internalType": "address",
          "name": "newGovernor",
          "type": "address"
        }
      ],
      "name": "PendingGovernorshipTransfer",
      "type": "event"
    },
    {
      "anonymous": false,
      "inputs": [],
      "name": "RebasePaused",
      "type": "event"
    },
    {
      "anonymous": false,
      "inputs": [
        {
          "indexed": false,
          "internalType": "uint256",
          "name": "rebaseRatePerSecond",
          "type": "uint256"
        }
      ],
      "name": "RebasePerSecondMaxChanged",
      "type": "event"
    },
    {
      "anonymous": false,
      "inputs": [
        {
          "indexed": false,
          "internalType": "uint256",
          "name": "_threshold",
          "type": "uint256"
        }
      ],
      "name": "RebaseThresholdUpdated",
      "type": "event"
    },
    {
      "anonymous": false,
      "inputs": [],
      "name": "RebaseUnpaused",
      "type": "event"
    },
    {
      "anonymous": false,
      "inputs": [
        {
          "indexed": false,
          "internalType": "address",
          "name": "_addr",
          "type": "address"
        },
        {
          "indexed": false,
          "internalType": "uint256",
          "name": "_value",
          "type": "uint256"
        }
      ],
      "name": "Redeem",
      "type": "event"
    },
    {
      "anonymous": false,
      "inputs": [
        {
          "indexed": false,
          "internalType": "address",
          "name": "_address",
          "type": "address"
        }
      ],
      "name": "StrategistUpdated",
      "type": "event"
    },
    {
      "anonymous": false,
      "inputs": [
        {
          "indexed": true,
          "internalType": "address",
          "name": "strategy",
          "type": "address"
        }
      ],
      "name": "StrategyAddedToMintWhitelist",
      "type": "event"
    },
    {
      "anonymous": false,
      "inputs": [
        {
          "indexed": false,
          "internalType": "address",
          "name": "_addr",
          "type": "address"
        }
      ],
      "name": "StrategyApproved",
      "type": "event"
    },
    {
      "anonymous": false,
      "inputs": [
        {
          "indexed": false,
          "internalType": "address",
          "name": "_addr",
          "type": "address"
        }
      ],
      "name": "StrategyRemoved",
      "type": "event"
    },
    {
      "anonymous": false,
      "inputs": [
        {
          "indexed": true,
          "internalType": "address",
          "name": "strategy",
          "type": "address"
        }
      ],
      "name": "StrategyRemovedFromMintWhitelist",
      "type": "event"
    },
    {
      "anonymous": false,
      "inputs": [
        {
          "indexed": false,
          "internalType": "address",
          "name": "_address",
          "type": "address"
        }
      ],
      "name": "TrusteeAddressChanged",
      "type": "event"
    },
    {
      "anonymous": false,
      "inputs": [
        {
          "indexed": false,
          "internalType": "uint256",
          "name": "_basis",
          "type": "uint256"
        }
      ],
      "name": "TrusteeFeeBpsChanged",
      "type": "event"
    },
    {
      "anonymous": false,
      "inputs": [
        {
          "indexed": false,
          "internalType": "uint256",
          "name": "_vaultBuffer",
          "type": "uint256"
        }
      ],
      "name": "VaultBufferUpdated",
      "type": "event"
    },
    {
      "anonymous": false,
      "inputs": [
        {
          "indexed": false,
          "internalType": "uint256",
          "name": "_newDelay",
          "type": "uint256"
        }
      ],
      "name": "WithdrawalClaimDelayUpdated",
      "type": "event"
    },
    {
      "anonymous": false,
      "inputs": [
        {
          "indexed": false,
          "internalType": "uint256",
          "name": "_claimable",
          "type": "uint256"
        },
        {
          "indexed": false,
          "internalType": "uint256",
          "name": "_newClaimable",
          "type": "uint256"
        }
      ],
      "name": "WithdrawalClaimable",
      "type": "event"
    },
    {
      "anonymous": false,
      "inputs": [
        {
          "indexed": true,
          "internalType": "address",
          "name": "_withdrawer",
          "type": "address"
        },
        {
          "indexed": true,
          "internalType": "uint256",
          "name": "_requestId",
          "type": "uint256"
        },
        {
          "indexed": false,
          "internalType": "uint256",
          "name": "_amount",
          "type": "uint256"
        }
      ],
      "name": "WithdrawalClaimed",
      "type": "event"
    },
    {
      "anonymous": false,
      "inputs": [
        {
          "indexed": true,
          "internalType": "address",
          "name": "_withdrawer",
          "type": "address"
        },
        {
          "indexed": true,
          "internalType": "uint256",
          "name": "_requestId",
          "type": "uint256"
        },
        {
          "indexed": false,
          "internalType": "uint256",
          "name": "_amount",
          "type": "uint256"
        },
        {
          "indexed": false,
          "internalType": "uint256",
          "name": "_queued",
          "type": "uint256"
        }
      ],
      "name": "WithdrawalRequested",
      "type": "event"
    },
    {
      "anonymous": false,
      "inputs": [
        {
          "indexed": false,
          "internalType": "address",
          "name": "_to",
          "type": "address"
        },
        {
          "indexed": false,
          "internalType": "uint256",
          "name": "_yield",
          "type": "uint256"
        },
        {
          "indexed": false,
          "internalType": "uint256",
          "name": "_fee",
          "type": "uint256"
        }
      ],
      "name": "YieldDistribution",
      "type": "event"
    },
    {
      "inputs": [
        {
          "internalType": "address",
          "name": "strategyAddr",
          "type": "address"
        }
      ],
      "name": "addStrategyToMintWhitelist",
      "outputs": [],
      "stateMutability": "nonpayable",
      "type": "function"
    },
    {
      "inputs": [],
      "name": "addWithdrawalQueueLiquidity",
      "outputs": [],
      "stateMutability": "nonpayable",
      "type": "function"
    },
    {
      "inputs": [],
      "name": "allocate",
      "outputs": [],
      "stateMutability": "nonpayable",
      "type": "function"
    },
    {
      "inputs": [
        {
          "internalType": "address",
          "name": "_addr",
          "type": "address"
        }
      ],
      "name": "approveStrategy",
      "outputs": [],
      "stateMutability": "nonpayable",
      "type": "function"
    },
    {
      "inputs": [],
      "name": "asset",
      "outputs": [
        {
          "internalType": "address",
          "name": "",
          "type": "address"
        }
      ],
      "stateMutability": "view",
      "type": "function"
    },
    {
      "inputs": [],
      "name": "autoAllocateThreshold",
      "outputs": [
        {
          "internalType": "uint256",
          "name": "",
          "type": "uint256"
        }
      ],
      "stateMutability": "view",
      "type": "function"
    },
    {
      "inputs": [
        {
          "internalType": "uint256",
          "name": "_amount",
          "type": "uint256"
        }
      ],
      "name": "burnForStrategy",
      "outputs": [],
      "stateMutability": "nonpayable",
      "type": "function"
    },
    {
      "inputs": [],
      "name": "capitalPaused",
      "outputs": [
        {
          "internalType": "bool",
          "name": "",
          "type": "bool"
        }
      ],
      "stateMutability": "view",
      "type": "function"
    },
    {
      "inputs": [
        {
          "internalType": "address",
          "name": "_asset",
          "type": "address"
        }
      ],
      "name": "checkBalance",
      "outputs": [
        {
          "internalType": "uint256",
          "name": "",
          "type": "uint256"
        }
      ],
      "stateMutability": "view",
      "type": "function"
    },
    {
      "inputs": [],
      "name": "claimGovernance",
      "outputs": [],
      "stateMutability": "nonpayable",
      "type": "function"
    },
    {
      "inputs": [
        {
          "internalType": "uint256",
          "name": "_requestId",
          "type": "uint256"
        }
      ],
      "name": "claimWithdrawal",
      "outputs": [
        {
          "internalType": "uint256",
          "name": "amount",
          "type": "uint256"
        }
      ],
      "stateMutability": "nonpayable",
      "type": "function"
    },
    {
      "inputs": [
        {
          "internalType": "uint256[]",
          "name": "_requestIds",
          "type": "uint256[]"
        }
      ],
      "name": "claimWithdrawals",
      "outputs": [
        {
          "internalType": "uint256[]",
          "name": "amounts",
          "type": "uint256[]"
        },
        {
          "internalType": "uint256",
          "name": "totalAmount",
          "type": "uint256"
        }
      ],
      "stateMutability": "nonpayable",
      "type": "function"
    },
    {
      "inputs": [],
      "name": "defaultStrategy",
      "outputs": [
        {
          "internalType": "address",
          "name": "",
          "type": "address"
        }
      ],
      "stateMutability": "view",
      "type": "function"
    },
    {
      "inputs": [
        {
          "internalType": "address",
          "name": "_strategyToAddress",
          "type": "address"
        },
        {
          "internalType": "address[]",
          "name": "_assets",
          "type": "address[]"
        },
        {
          "internalType": "uint256[]",
          "name": "_amounts",
          "type": "uint256[]"
        }
      ],
      "name": "depositToStrategy",
      "outputs": [],
      "stateMutability": "nonpayable",
      "type": "function"
    },
    {
      "inputs": [],
      "name": "dripDuration",
      "outputs": [
        {
          "internalType": "uint64",
          "name": "",
          "type": "uint64"
        }
      ],
      "stateMutability": "view",
      "type": "function"
    },
    {
      "inputs": [],
      "name": "getAllAssets",
      "outputs": [
        {
          "internalType": "address[]",
          "name": "",
          "type": "address[]"
        }
      ],
      "stateMutability": "view",
      "type": "function"
    },
    {
      "inputs": [],
      "name": "getAllStrategies",
      "outputs": [
        {
          "internalType": "address[]",
          "name": "",
          "type": "address[]"
        }
      ],
      "stateMutability": "view",
      "type": "function"
    },
    {
      "inputs": [],
      "name": "getAssetCount",
      "outputs": [
        {
          "internalType": "uint256",
          "name": "",
          "type": "uint256"
        }
      ],
      "stateMutability": "view",
      "type": "function"
    },
    {
      "inputs": [],
      "name": "getStrategyCount",
      "outputs": [
        {
          "internalType": "uint256",
          "name": "",
          "type": "uint256"
        }
      ],
      "stateMutability": "view",
      "type": "function"
    },
    {
      "inputs": [],
      "name": "governor",
      "outputs": [
        {
          "internalType": "address",
          "name": "",
          "type": "address"
        }
      ],
      "stateMutability": "view",
      "type": "function"
    },
    {
      "inputs": [
        {
          "internalType": "address",
          "name": "_oToken",
          "type": "address"
        }
      ],
      "name": "initialize",
      "outputs": [],
      "stateMutability": "nonpayable",
      "type": "function"
    },
    {
      "inputs": [],
      "name": "isGovernor",
      "outputs": [
        {
          "internalType": "bool",
          "name": "",
          "type": "bool"
        }
      ],
      "stateMutability": "view",
      "type": "function"
    },
    {
      "inputs": [
        {
          "internalType": "address",
          "name": "",
          "type": "address"
        }
      ],
      "name": "isMintWhitelistedStrategy",
      "outputs": [
        {
          "internalType": "bool",
          "name": "",
          "type": "bool"
        }
      ],
      "stateMutability": "view",
      "type": "function"
    },
    {
      "inputs": [
        {
          "internalType": "address",
          "name": "_asset",
          "type": "address"
        }
      ],
      "name": "isSupportedAsset",
      "outputs": [
        {
          "internalType": "bool",
          "name": "",
          "type": "bool"
        }
      ],
      "stateMutability": "view",
      "type": "function"
    },
    {
      "inputs": [],
      "name": "lastRebase",
      "outputs": [
        {
          "internalType": "uint64",
          "name": "",
          "type": "uint64"
        }
      ],
      "stateMutability": "view",
      "type": "function"
    },
    {
      "inputs": [],
      "name": "maxSupplyDiff",
      "outputs": [
        {
          "internalType": "uint256",
          "name": "",
          "type": "uint256"
        }
      ],
      "stateMutability": "view",
      "type": "function"
    },
    {
      "inputs": [
        {
          "internalType": "address",
          "name": "",
          "type": "address"
        },
        {
          "internalType": "uint256",
          "name": "_amount",
          "type": "uint256"
        },
        {
          "internalType": "uint256",
          "name": "",
          "type": "uint256"
        }
      ],
      "name": "mint",
      "outputs": [],
      "stateMutability": "nonpayable",
      "type": "function"
    },
    {
      "inputs": [
        {
          "internalType": "uint256",
          "name": "_amount",
          "type": "uint256"
        }
      ],
      "name": "mint",
      "outputs": [],
      "stateMutability": "nonpayable",
      "type": "function"
    },
    {
      "inputs": [
        {
          "internalType": "uint256",
          "name": "_amount",
          "type": "uint256"
        }
      ],
      "name": "mintForStrategy",
      "outputs": [],
      "stateMutability": "nonpayable",
      "type": "function"
    },
    {
      "inputs": [],
      "name": "oToken",
      "outputs": [
        {
          "internalType": "contract OUSD",
          "name": "",
          "type": "address"
        }
      ],
      "stateMutability": "view",
      "type": "function"
    },
    {
      "inputs": [],
      "name": "oUSD",
      "outputs": [
        {
          "internalType": "contract OUSD",
          "name": "",
          "type": "address"
        }
      ],
      "stateMutability": "view",
      "type": "function"
    },
    {
      "inputs": [],
      "name": "pauseCapital",
      "outputs": [],
      "stateMutability": "nonpayable",
      "type": "function"
    },
    {
      "inputs": [],
      "name": "pauseRebase",
      "outputs": [],
      "stateMutability": "nonpayable",
      "type": "function"
    },
    {
      "inputs": [],
      "name": "previewYield",
      "outputs": [
        {
          "internalType": "uint256",
          "name": "yield",
          "type": "uint256"
        }
      ],
      "stateMutability": "view",
      "type": "function"
    },
    {
      "inputs": [],
      "name": "rebase",
      "outputs": [],
      "stateMutability": "nonpayable",
      "type": "function"
    },
    {
      "inputs": [],
      "name": "rebasePaused",
      "outputs": [
        {
          "internalType": "bool",
          "name": "",
          "type": "bool"
        }
      ],
      "stateMutability": "view",
      "type": "function"
    },
    {
      "inputs": [],
      "name": "rebasePerSecondMax",
      "outputs": [
        {
          "internalType": "uint64",
          "name": "",
          "type": "uint64"
        }
      ],
      "stateMutability": "view",
      "type": "function"
    },
    {
      "inputs": [],
      "name": "rebasePerSecondTarget",
      "outputs": [
        {
          "internalType": "uint64",
          "name": "",
          "type": "uint64"
        }
      ],
      "stateMutability": "view",
      "type": "function"
    },
    {
      "inputs": [],
      "name": "rebaseThreshold",
      "outputs": [
        {
          "internalType": "uint256",
          "name": "",
          "type": "uint256"
        }
      ],
      "stateMutability": "view",
      "type": "function"
    },
    {
      "inputs": [
        {
          "internalType": "address",
          "name": "_addr",
          "type": "address"
        }
      ],
      "name": "removeStrategy",
      "outputs": [],
      "stateMutability": "nonpayable",
      "type": "function"
    },
    {
      "inputs": [
        {
          "internalType": "address",
          "name": "strategyAddr",
          "type": "address"
        }
      ],
      "name": "removeStrategyFromMintWhitelist",
      "outputs": [],
      "stateMutability": "nonpayable",
      "type": "function"
    },
    {
      "inputs": [
        {
          "internalType": "uint256",
          "name": "_amount",
          "type": "uint256"
        }
      ],
      "name": "requestWithdrawal",
      "outputs": [
        {
          "internalType": "uint256",
          "name": "requestId",
          "type": "uint256"
        },
        {
          "internalType": "uint256",
          "name": "queued",
          "type": "uint256"
        }
      ],
      "stateMutability": "nonpayable",
      "type": "function"
    },
    {
      "inputs": [
        {
          "internalType": "uint256",
          "name": "_threshold",
          "type": "uint256"
        }
      ],
      "name": "setAutoAllocateThreshold",
      "outputs": [],
      "stateMutability": "nonpayable",
      "type": "function"
    },
    {
      "inputs": [
        {
          "internalType": "address",
          "name": "_strategy",
          "type": "address"
        }
      ],
      "name": "setDefaultStrategy",
      "outputs": [],
      "stateMutability": "nonpayable",
      "type": "function"
    },
    {
      "inputs": [
        {
          "internalType": "uint256",
          "name": "_dripDuration",
          "type": "uint256"
        }
      ],
      "name": "setDripDuration",
      "outputs": [],
      "stateMutability": "nonpayable",
      "type": "function"
    },
    {
      "inputs": [
        {
          "internalType": "uint256",
          "name": "_maxSupplyDiff",
          "type": "uint256"
        }
      ],
      "name": "setMaxSupplyDiff",
      "outputs": [],
      "stateMutability": "nonpayable",
      "type": "function"
    },
    {
      "inputs": [
        {
          "internalType": "uint256",
          "name": "apr",
          "type": "uint256"
        }
      ],
      "name": "setRebaseRateMax",
      "outputs": [],
      "stateMutability": "nonpayable",
      "type": "function"
    },
    {
      "inputs": [
        {
          "internalType": "uint256",
          "name": "_threshold",
          "type": "uint256"
        }
      ],
      "name": "setRebaseThreshold",
      "outputs": [],
      "stateMutability": "nonpayable",
      "type": "function"
    },
    {
      "inputs": [
        {
          "internalType": "address",
          "name": "_address",
          "type": "address"
        }
      ],
      "name": "setStrategistAddr",
      "outputs": [],
      "stateMutability": "nonpayable",
      "type": "function"
    },
    {
      "inputs": [
        {
          "internalType": "address",
          "name": "_address",
          "type": "address"
        }
      ],
      "name": "setTrusteeAddress",
      "outputs": [],
      "stateMutability": "nonpayable",
      "type": "function"
    },
    {
      "inputs": [
        {
          "internalType": "uint256",
          "name": "_basis",
          "type": "uint256"
        }
      ],
      "name": "setTrusteeFeeBps",
      "outputs": [],
      "stateMutability": "nonpayable",
      "type": "function"
    },
    {
      "inputs": [
        {
          "internalType": "uint256",
          "name": "_vaultBuffer",
          "type": "uint256"
        }
      ],
      "name": "setVaultBuffer",
      "outputs": [],
      "stateMutability": "nonpayable",
      "type": "function"
    },
    {
      "inputs": [
        {
          "internalType": "uint256",
          "name": "_delay",
          "type": "uint256"
        }
      ],
      "name": "setWithdrawalClaimDelay",
      "outputs": [],
      "stateMutability": "nonpayable",
      "type": "function"
    },
    {
      "inputs": [
        {
          "internalType": "address",
          "name": "",
          "type": "address"
        }
      ],
      "name": "strategies",
      "outputs": [
        {
          "internalType": "bool",
          "name": "isSupported",
          "type": "bool"
        },
        {
          "internalType": "uint256",
          "name": "_deprecated",
          "type": "uint256"
        }
      ],
      "stateMutability": "view",
      "type": "function"
    },
    {
      "inputs": [],
      "name": "strategistAddr",
      "outputs": [
        {
          "internalType": "address",
          "name": "",
          "type": "address"
        }
      ],
      "stateMutability": "view",
      "type": "function"
    },
    {
      "inputs": [],
      "name": "totalValue",
      "outputs": [
        {
          "internalType": "uint256",
          "name": "value",
          "type": "uint256"
        }
      ],
      "stateMutability": "view",
      "type": "function"
    },
    {
      "inputs": [
        {
          "internalType": "address",
          "name": "_newGovernor",
          "type": "address"
        }
      ],
      "name": "transferGovernance",
      "outputs": [],
      "stateMutability": "nonpayable",
      "type": "function"
    },
    {
      "inputs": [
        {
          "internalType": "address",
          "name": "_asset",
          "type": "address"
        },
        {
          "internalType": "uint256",
          "name": "_amount",
          "type": "uint256"
        }
      ],
      "name": "transferToken",
      "outputs": [],
      "stateMutability": "nonpayable",
      "type": "function"
    },
    {
      "inputs": [],
      "name": "trusteeAddress",
      "outputs": [
        {
          "internalType": "address",
          "name": "",
          "type": "address"
        }
      ],
      "stateMutability": "view",
      "type": "function"
    },
    {
      "inputs": [],
      "name": "trusteeFeeBps",
      "outputs": [
        {
          "internalType": "uint256",
          "name": "",
          "type": "uint256"
        }
      ],
      "stateMutability": "view",
      "type": "function"
    },
    {
      "inputs": [],
      "name": "unpauseCapital",
      "outputs": [],
      "stateMutability": "nonpayable",
      "type": "function"
    },
    {
      "inputs": [],
      "name": "unpauseRebase",
      "outputs": [],
      "stateMutability": "nonpayable",
      "type": "function"
    },
    {
      "inputs": [],
      "name": "vaultBuffer",
      "outputs": [
        {
          "internalType": "uint256",
          "name": "",
          "type": "uint256"
        }
      ],
      "stateMutability": "view",
      "type": "function"
    },
    {
      "inputs": [],
      "name": "withdrawAllFromStrategies",
      "outputs": [],
      "stateMutability": "nonpayable",
      "type": "function"
    },
    {
      "inputs": [
        {
          "internalType": "address",
          "name": "_strategyAddr",
          "type": "address"
        }
      ],
      "name": "withdrawAllFromStrategy",
      "outputs": [],
      "stateMutability": "nonpayable",
      "type": "function"
    },
    {
      "inputs": [
        {
          "internalType": "address",
          "name": "_strategyFromAddress",
          "type": "address"
        },
        {
          "internalType": "address[]",
          "name": "_assets",
          "type": "address[]"
        },
        {
          "internalType": "uint256[]",
          "name": "_amounts",
          "type": "uint256[]"
        }
      ],
      "name": "withdrawFromStrategy",
      "outputs": [],
      "stateMutability": "nonpayable",
      "type": "function"
    },
    {
      "inputs": [],
      "name": "withdrawalClaimDelay",
      "outputs": [
        {
          "internalType": "uint256",
          "name": "",
          "type": "uint256"
        }
      ],
      "stateMutability": "view",
      "type": "function"
    },
    {
      "inputs": [],
      "name": "withdrawalQueueMetadata",
      "outputs": [
        {
          "internalType": "uint128",
          "name": "queued",
          "type": "uint128"
        },
        {
          "internalType": "uint128",
          "name": "claimable",
          "type": "uint128"
        },
        {
          "internalType": "uint128",
          "name": "claimed",
          "type": "uint128"
        },
        {
          "internalType": "uint128",
          "name": "nextWithdrawalIndex",
          "type": "uint128"
        }
      ],
      "stateMutability": "view",
      "type": "function"
    },
    {
      "inputs": [
        {
          "internalType": "uint256",
          "name": "",
          "type": "uint256"
        }
      ],
      "name": "withdrawalRequests",
      "outputs": [
        {
          "internalType": "address",
          "name": "withdrawer",
          "type": "address"
        },
        {
          "internalType": "bool",
          "name": "claimed",
          "type": "bool"
        },
        {
          "internalType": "uint40",
          "name": "timestamp",
          "type": "uint40"
        },
        {
          "internalType": "uint128",
          "name": "amount",
          "type": "uint128"
        },
        {
          "internalType": "uint128",
          "name": "queued",
          "type": "uint128"
        }
      ],
      "stateMutability": "view",
      "type": "function"
    }
  ],
  "transactionHash": "0xa361816fd836104b056b300916eba6be18d0c0234466b3545bf2718a589775cf",
  "args": [
    "0xA0b86991c6218b36c1d19D4a2e9Eb0cE3606eB48"
  ],
  "numDeployments": 1,
  "solcInputHash": "246907a3fd0d7c6bfd72156e1588273e",
  "bytecode": "0x60c0604052603d80546001600160a01b0319908116909155603e805482169055603f8054909116905534801561003457600080fd5b5060405161544638038061544683398101604081905261005391610133565b808080806000816001600160a01b031663313ce5676040518163ffffffff1660e01b8152600401602060405180830381865afa158015610097573d6000803e3d6000fd5b505050506040513d601f19601f820116820180604052508101906100bb9190610163565b905060128160ff1611156101155760405162461bcd60e51b815260206004820152601660248201527f696e76616c696420617373657420646563696d616c7300000000000000000000604482015260640160405180910390fd5b6001600160a01b0390911660805260ff1660a0525061018692505050565b60006020828403121561014557600080fd5b81516001600160a01b038116811461015c57600080fd5b9392505050565b60006020828403121561017557600080fd5b815160ff8116811461015c57600080fd5b60805160a0516151e561026160003960008181610fa60152818161178b0152818161205401528181612c6f015281816131560152818161376201528181613806015281816140ae01526144630152600081816105870152818161089401528181610c4e01528181610fe4015281816112d301528181611438015281816117570152818161189401528181612c3b015281816132520152818161338001528181613b0501528181613dda01528181613f110152818161411901528181614164015281816141cc0152818161448a01526148c501526151e56000f3fe608060405234801561001057600080fd5b50600436106104075760003560e01c80636217f3ea11610220578063ae69f3cb11610130578063c5f00841116100b8578063d4c3eea011610087578063d4c3eea0146109e6578063e6cc5432146109ee578063ea33b8e414610a02578063f844443614610a0a578063fac5bb9b14610a1d57600080fd5b8063c5f00841146109bb578063c7af3352146109c3578063c9919112146109cb578063d38bfff4146109d357600080fd5b8063b890ebf6116100ff578063b890ebf61461096b578063b9b17f9f1461097e578063bb7a632e14610986578063c3b28864146109a0578063c4d66de8146109a857600080fd5b8063ae69f3cb1461092a578063af14052c1461093d578063b2c9336d14610945578063b4925a201461095857600080fd5b806394828ffd116101b35780639fa1826e116101825780639fa1826e146108ec578063a0712d68146108f5578063a0aead4d14610908578063ab80dafb1461090f578063abaa99161461092257600080fd5b806394828ffd1461086957806395b166bc146108715780639be918e6146108845780639ee679e8146108c457600080fd5b8063840c4c7a116101ef578063840c4c7a146107925780638e510b52146107a55780638ec489a2146107ae578063937b2581146107c157600080fd5b80636217f3ea14610746578063663e64ce14610759578063773540b31461076c57806378f353a11461077f57600080fd5b806339ebf8231161031b578063527e83a8116102ae57806357bee9441161027d57806357bee944146106f45780635802a17214610707578063597c8910146107185780635d36b1901461072b5780635f5152261461073357600080fd5b8063527e83a8146106aa57806352d38e5d146106c457806353ca9f24146106cd578063570d8e1d146106e157600080fd5b806345e4213b116102ea57806345e4213b1461063b57806348e30f541461064457806349c1d54d146106655780634d5f46291461067857600080fd5b806339ebf823146105a95780633b8ae397146105ed5780633dbc911f146106005780634530820a1461060857600080fd5b80631a32aad61161039e5780632acada4d1161036d5780632acada4d146104f35780632da845a81461050857806331e19cfa1461051b578063362bd1a31461052357806338d52e0f1461058257600080fd5b80631a32aad6146104ad5780631cfbe7bc146104c05780631edfe3da146104d3578063207134b0146104ea57600080fd5b80631072cbea116103da5780631072cbea14610461578063156e29f614610474578063175188e8146104875780631816dd4a1461049a57600080fd5b80630493a0fa1461040c57806309f49bf5146104215780630acbda75146104295780630c340a241461043c575b600080fd5b61041f61041a366004614b73565b610a30565b005b61041f610ae6565b61041f610437366004614b73565b610b56565b610444610c01565b6040516001600160a01b0390911681526020015b60405180910390f35b61041f61046f366004614ba8565b610c1e565b61041f610482366004614bd2565b610cdc565b61041f610495366004614c05565b610d4f565b61041f6104a8366004614c05565b6110e2565b603c54610444906001600160a01b031681565b61041f6104ce366004614b73565b6111e9565b6104dc60395481565b604051908152602001610458565b6104dc60435481565b6104fb6112ab565b6040516104589190614c20565b61041f610516366004614c05565b611322565b6036546104dc565b604b54604c5461054f916001600160801b0380821692600160801b928390048216928183169291041684565b604080516001600160801b0395861681529385166020850152918416918301919091529091166060820152608001610458565b6104447f000000000000000000000000000000000000000000000000000000000000000081565b6105d66105b7366004614c05565b6035602052600090815260409020805460019091015460ff9091169082565b604080519215158352602083019190915201610458565b61041f6105fb366004614c05565b611394565b61041f6115a7565b61062b610616366004614c05565b60496020526000908152604090205460ff1681565b6040519015158152602001610458565b6104dc604e5481565b610657610652366004614cb0565b61161d565b604051610458929190614cf1565b604254610444906001600160a01b031681565b604f5461069290600160c01b90046001600160401b031681565b6040516001600160401b039091168152602001610458565b604f5461069290600160801b90046001600160401b031681565b6104dc603b5481565b60375461062b90600160a01b900460ff1681565b603f54610444906001600160a01b031681565b61041f610702366004614c05565b6117c2565b603c546001600160a01b0316610444565b61041f610726366004614c05565b611975565b61041f6119b9565b6104dc610741366004614c05565b611a5f565b61041f610754366004614b73565b611a70565b61041f610767366004614b73565b611bf4565b61041f61077a366004614c05565b611c4d565b604f54610692906001600160401b031681565b61041f6107a0366004614d3e565b611cbf565b6104dc60415481565b61041f6107bc366004614b73565b611d46565b6108226107cf366004614b73565b604d60205260009081526040902080546001909101546001600160a01b03821691600160a01b810460ff1691600160a81b90910464ffffffffff16906001600160801b0380821691600160801b90041685565b604080516001600160a01b039096168652931515602086015264ffffffffff909216928401929092526001600160801b03918216606084015216608082015260a001610458565b61041f611dfb565b61041f61087f366004614c05565b611e6b565b61062b610892366004614c05565b7f00000000000000000000000000000000000000000000000000000000000000006001600160a01b0390811691161490565b6108d76108d2366004614b73565b611f32565b60408051928352602083019190915201610458565b6104dc603a5481565b61041f610903366004614b73565b612273565b60016104dc565b61041f61091d366004614b73565b6122e4565b61041f612433565b61041f610938366004614d3e565b6124ab565b61041f612527565b61041f610953366004614b73565b61256d565b61041f610966366004614b73565b6125c6565b61041f610979366004614b73565b6126e4565b61041f61273d565b604f5461069290600160401b90046001600160401b031681565b6104fb612745565b61041f6109b6366004614c05565b6127a7565b61041f61295f565b61062b6129d5565b61041f612a06565b61041f6109e1366004614c05565b612a46565b6104dc612aea565b60375461062b90600160a81b900460ff1681565b6104dc612af4565b6104dc610a18366004614b73565b612b83565b605054610444906001600160a01b031681565b603f546001600160a01b0316331480610a4c5750610a4c6129d5565b610a715760405162461bcd60e51b8152600401610a6890614dc2565b60405180910390fd5b610a79612c9e565b50610a8381613038565b604f80546001600160401b0392909216600160401b0267ffffffffffffffff60401b199092169190911790556040518181527f406e15fbca1d8ded2dbb06765fea3a54f18395c54125a4c9916dd00ea14ee15e906020015b60405180910390a150565b603f546001600160a01b0316331480610b025750610b026129d5565b610b1e5760405162461bcd60e51b8152600401610a6890614dc2565b6037805460ff60a01b191690556040517fbc044409505c95b6b851433df96e1beae715c909d8e7c1d6d7ab783300d4e3b990600090a1565b610b5e6129d5565b610b7a5760405162461bcd60e51b8152600401610a6890614e0a565b611388811115610bcc5760405162461bcd60e51b815260206004820152601760248201527f62617369732063616e6e6f7420657863656564203530250000000000000000006044820152606401610a68565b60438190556040518181527f56287a45051933ea374811b3d5d165033047be5572cac676f7c28b8be4f746c790602001610adb565b6000610c196000805160206151908339815191525490565b905090565b610c266129d5565b610c425760405162461bcd60e51b8152600401610a6890614e0a565b816001600160a01b03167f00000000000000000000000000000000000000000000000000000000000000006001600160a01b031603610cbc5760405162461bcd60e51b815260206004820152601660248201527513db9b1e481d5b9cdd5c1c1bdc9d195908185cdcd95d60521b6044820152606401610a68565b610cd8610cc7610c01565b6001600160a01b03841690836130a4565b5050565b603754600160a81b900460ff1615610d065760405162461bcd60e51b8152600401610a6890614e41565b60008051602061517083398151915280546001198101610d385760405162461bcd60e51b8152600401610a6890614e69565b60028255610d45846130fa565b5060019055505050565b610d576129d5565b610d735760405162461bcd60e51b8152600401610a6890614e0a565b6001600160a01b03811660009081526035602052604090205460ff16610dab5760405162461bcd60e51b8152600401610a6890614e91565b6050546001600160a01b03808316911603610e085760405162461bcd60e51b815260206004820152601d60248201527f53747261746567792069732064656661756c7420666f722061737365740000006044820152606401610a68565b6036548060005b82811015610e5e57836001600160a01b031660368281548110610e3457610e34614ec0565b6000918252602090912001546001600160a01b031603610e5657809150610e5e565b600101610e0f565b50818110156110dd576036610e74600184614eec565b81548110610e8457610e84614ec0565b600091825260209091200154603680546001600160a01b039092169183908110610eb057610eb0614ec0565b9060005260206000200160006101000a8154816001600160a01b0302191690836001600160a01b031602179055506036805480610eef57610eef614eff565b60008281526020808220830160001990810180546001600160a01b03191690559092019092556001600160a01b038516808352603582526040808420805460ff1990811690915560499093528084208054909316909255815163429c145b60e11b815291518693919263853828b692600480830193919282900301818387803b158015610f7b57600080fd5b505af1158015610f8f573d6000803e3d6000fd5b5060009250610fcd91506509184e72a000905060ff7f0000000000000000000000000000000000000000000000000000000000000000166012613296565b604051632fa8a91360e11b81526001600160a01b037f0000000000000000000000000000000000000000000000000000000000000000811660048301529192508291841690635f51522690602401602060405180830381865afa158015611038573d6000803e3d6000fd5b505050506040513d601f19601f8201168201806040525081019061105c9190614f15565b1061109e5760405162461bcd60e51b81526020600482015260126024820152715374726174656779206861732066756e647360701b6044820152606401610a68565b6040516001600160a01b03861681527f09a1db4b80c32706328728508c941a6b954f31eb5affd32f236c1fd405f8fea49060200160405180910390a150505b505050565b6110ea6129d5565b6111065760405162461bcd60e51b8152600401610a6890614e0a565b6001600160a01b03811660009081526035602052604090205460ff1661113e5760405162461bcd60e51b8152600401610a6890614e91565b6001600160a01b03811660009081526049602052604090205460ff161561119d5760405162461bcd60e51b8152602060048201526013602482015272105b1c9958591e481dda1a5d195b1a5cdd1959606a1b6044820152606401610a68565b6001600160a01b038116600081815260496020526040808220805460ff19166001179055517f47c8c96a5942f094264111c5fe7f6a4fe86efe63254a6fa7afa5fc84f07d58e89190a250565b6111f16129d5565b61120d5760405162461bcd60e51b8152600401610a6890614e0a565b80158061122a5750610258811015801561122a57506213c6808111155b6112765760405162461bcd60e51b815260206004820152601a60248201527f496e76616c696420636c61696d2064656c617920706572696f640000000000006044820152606401610a68565b604e8190556040518181527fc59f5e32049abab44ddea11021f5abb89422a2f550837afcf25df9fc8d0db6b090602001610adb565b60408051600180825281830190925260609160009190602080830190803683370190505090507f00000000000000000000000000000000000000000000000000000000000000008160008151811061130557611305614ec0565b6001600160a01b0390921660209283029190910190910152919050565b61132a6129d5565b6113465760405162461bcd60e51b8152600401610a6890614e0a565b604280546001600160a01b0319166001600160a01b0383169081179091556040519081527f1e4af5ac389e8cde1bdaa6830881b6c987c62a45cfb3b33d27d805cde3b5775090602001610adb565b61139c6129d5565b6113b85760405162461bcd60e51b8152600401610a6890614e0a565b6001600160a01b03811660009081526035602052604090205460ff16156114215760405162461bcd60e51b815260206004820152601960248201527f537472617465677920616c726561647920617070726f766564000000000000006044820152606401610a68565b60405163551c457b60e11b81526001600160a01b037f00000000000000000000000000000000000000000000000000000000000000008116600483015282169063aa388af690602401602060405180830381865afa158015611487573d6000803e3d6000fd5b505050506040513d601f19601f820116820180604052508101906114ab9190614f44565b6114f75760405162461bcd60e51b815260206004820152601f60248201527f4173736574206e6f7420737570706f72746564206279205374726174656779006044820152606401610a68565b6040805180820182526001808252600060208084018281526001600160a01b038716808452603583528684209551865460ff19169015151786559051948401949094556036805493840181559091527f4a11f94e20a93c79f6ec743a1954ec4fc2c08429ae2122118bf234b2185c81b890910180546001600160a01b0319168317905591519081527f960dd94cbb79169f09a4e445d58b895df2d9bffa5b31055d0932d801724a20d19101610adb565b603f546001600160a01b03163314806115c357506115c36129d5565b6115df5760405162461bcd60e51b8152600401610a6890614dc2565b6037805460ff60a81b1916600160a81b1790556040517f71f0e5b62f846a22e0b4d159e516e62fa9c2b8eb570be15f83e67d98a2ee51e090600090a1565b603754606090600090600160a81b900460ff161561164d5760405162461bcd60e51b8152600401610a6890614e41565b6000805160206151708339815191528054600119810161167f5760405162461bcd60e51b8152600401610a6890614e69565b6002825561168b6132fa565b50846001600160401b038111156116a4576116a4614f2e565b6040519080825280602002602001820160405280156116cd578160200160208202803683370190505b50935060005b85811015611749576116fc8787838181106116f0576116f0614ec0565b905060200201356134d6565b85828151811061170e5761170e614ec0565b60200260200101818152505084818151811061172c5761172c614ec0565b60200260200101518461173f9190614f66565b93506001016116d3565b5061177e6001600160a01b037f00000000000000000000000000000000000000000000000000000000000000001633856130a4565b6117b56117b084601260ff7f000000000000000000000000000000000000000000000000000000000000000016613296565b613837565b6001825550509250929050565b603f546001600160a01b03163314806117de57506117de6129d5565b6117fa5760405162461bcd60e51b8152600401610a6890614dc2565b6040516001600160a01b03821681527f45a9e715f8779ebeab88d3e8d081fb8b484b7730857e7c4478a95a5b1d8f79489060200160405180910390a16001600160a01b03811615611953576001600160a01b03811660009081526035602052604090205460ff1661187d5760405162461bcd60e51b8152600401610a6890614e91565b60405163551c457b60e11b81526001600160a01b037f00000000000000000000000000000000000000000000000000000000000000008116600483015282169063aa388af690602401602060405180830381865afa1580156118e3573d6000803e3d6000fd5b505050506040513d601f19601f820116820180604052508101906119079190614f44565b6119535760405162461bcd60e51b815260206004820152601f60248201527f4173736574206e6f7420737570706f72746564206279205374726174656779006044820152606401610a68565b605080546001600160a01b0319166001600160a01b0392909216919091179055565b603f546001600160a01b031633148061199157506119916129d5565b6119ad5760405162461bcd60e51b8152600401610a6890614dc2565b6119b6816139da565b50565b7f44c4d30b2eaad5130ad70c3ba6972730566f3e6359ab83e800d905c61b1c51db546001600160a01b0316336001600160a01b031614611a545760405162461bcd60e51b815260206004820152603060248201527f4f6e6c79207468652070656e64696e6720476f7665726e6f722063616e20636f60448201526f6d706c6574652074686520636c61696d60801b6064820152608401610a68565b611a5d33613aa2565b565b6000611a6a82613b01565b92915050565b603754600160a81b900460ff1615611a9a5760405162461bcd60e51b8152600401610a6890614e41565b3360009081526035602052604090205460ff161515600114611af55760405162461bcd60e51b8152602060048201526014602482015273556e737570706f7274656420737472617465677960601b6044820152606401610a68565b3360009081526049602052604090205460ff161515600114611b545760405162461bcd60e51b81526020600482015260186024820152774e6f742077686974656c697374656420737472617465677960401b6044820152606401610a68565b7f222838db2794d11532d940e8dec38ae307ed0b63cd97c233322e221f998767a63382604051611b85929190614f79565b60405180910390a1603c54604051632770a7eb60e21b81526001600160a01b0390911690639dc29fac90611bbf9033908590600401614f79565b600060405180830381600087803b158015611bd957600080fd5b505af1158015611bed573d6000803e3d6000fd5b5050505050565b611bfc6129d5565b611c185760405162461bcd60e51b8152600401610a6890614e0a565b60418190556040518181527f95201f9c21f26877223b1ff4073936a6484c35495649e60e55730497aeb60d9390602001610adb565b611c556129d5565b611c715760405162461bcd60e51b8152600401610a6890614e0a565b603f80546001600160a01b0319166001600160a01b0383169081179091556040519081527f869e0abd13cc3a975de7b93be3df1cb2255c802b1cead85963cc79d99f131bee90602001610adb565b603f546001600160a01b0316331480611cdb5750611cdb6129d5565b611cf75760405162461bcd60e51b8152600401610a6890614dc2565b60008051602061517083398151915280546001198101611d295760405162461bcd60e51b8152600401610a6890614e69565b60028255611d3a8787878787613d63565b50600190555050505050565b603f546001600160a01b0316331480611d625750611d626129d5565b611d7e5760405162461bcd60e51b8152600401610a6890614dc2565b670de0b6b3a7640000811115611dc65760405162461bcd60e51b815260206004820152600d60248201526c496e76616c69642076616c756560981b6044820152606401610a68565b60398190556040518181527f41ecb23a0e7865b25f38c268b7c3012220d822929e9edff07326e89d5bb822b590602001610adb565b603f546001600160a01b0316331480611e175750611e176129d5565b611e335760405162461bcd60e51b8152600401610a6890614dc2565b6037805460ff60a81b191690556040517f891ebab18da80ebeeea06b1b1cede098329c4c008906a98370c2ac7a80b571cb90600090a1565b611e736129d5565b611e8f5760405162461bcd60e51b8152600401610a6890614e0a565b6001600160a01b03811660009081526049602052604090205460ff16611ee95760405162461bcd60e51b815260206004820152600f60248201526e139bdd081dda1a5d195b1a5cdd1959608a1b6044820152606401610a68565b6001600160a01b038116600081815260496020526040808220805460ff19169055517f0ec40967a61509853550658e51d0e4297f7cba244fe4adc8ba18b5631ac20e2f9190a250565b6037546000908190600160a81b900460ff1615611f615760405162461bcd60e51b8152600401610a6890614e41565b60008051602061517083398151915280546001198101611f935760405162461bcd60e51b8152600401610a6890614e69565b6002825560008511611fe75760405162461bcd60e51b815260206004820152601d60248201527f416d6f756e74206d7573742062652067726561746572207468616e20300000006044820152606401610a68565b6000604e54116120395760405162461bcd60e51b815260206004820152601d60248201527f4173796e63207769746864726177616c73206e6f7420656e61626c65640000006044820152606401610a68565b604c54600160801b90046001600160801b0316935061207d857f000000000000000000000000000000000000000000000000000000000000000060ff166012613296565b604b5461209391906001600160801b0316614f66565b92506120a86120a3856001614f66565b613fa2565b604c80546001600160801b03928316600160801b0292169190911790556120ce83613fa2565b604b80546001600160801b0319166001600160801b03929092169190911790556040805160a081018252338152600060208201524264ffffffffff16918101919091526060810161211e87613fa2565b6001600160801b0316815260200161213585613fa2565b6001600160801b039081169091526000868152604d602090815260409182902084518154928601518685015164ffffffffff16600160a81b0264ffffffffff60a81b19911515600160a01b026001600160a81b03199095166001600160a01b0393841617949094171692909217815560608501516080909501518416600160801b029490931693909317600190920191909155603c549051632770a7eb60e21b8152911690639dc29fac906121f09033908990600401614f79565b600060405180830381600087803b15801561220a57600080fd5b505af115801561221e573d6000803e3d6000fd5b5050505061222b85613837565b6040805186815260208101859052859133917f38e3d972947cfef94205163d483d6287ef27eb312e20cb8e0b13a49989db232e910160405180910390a3600182555050915091565b603754600160a81b900460ff161561229d5760405162461bcd60e51b8152600401610a6890614e41565b600080516020615170833981519152805460011981016122cf5760405162461bcd60e51b8152600401610a6890614e69565b600282556122dc836130fa565b506001905550565b603754600160a81b900460ff161561230e5760405162461bcd60e51b8152600401610a6890614e41565b3360009081526035602052604090205460ff1615156001146123695760405162461bcd60e51b8152602060048201526014602482015273556e737570706f7274656420737472617465677960601b6044820152606401610a68565b3360009081526049602052604090205460ff1615156001146123c85760405162461bcd60e51b81526020600482015260186024820152774e6f742077686974656c697374656420737472617465677960401b6044820152606401610a68565b7f0f6798a560793a54c3bcfe86a93cde1e73087d944c0ea20544137d412139688533826040516123f9929190614f79565b60405180910390a1603c546040516340c10f1960e01b81526001600160a01b03909116906340c10f1990611bbf9033908590600401614f79565b603754600160a81b900460ff161561245d5760405162461bcd60e51b8152600401610a6890614e41565b6000805160206151708339815191528054600119810161248f5760405162461bcd60e51b8152600401610a6890614e69565b6002825561249b6132fa565b506124a461400b565b5060019055565b603f546001600160a01b03163314806124c757506124c76129d5565b6124e35760405162461bcd60e51b8152600401610a6890614dc2565b600080516020615170833981519152805460011981016125155760405162461bcd60e51b8152600401610a6890614e69565b60028255611d3a308888888888614234565b600080516020615170833981519152805460011981016125595760405162461bcd60e51b8152600401610a6890614e69565b60028255612565612c9e565b505060019055565b6125756129d5565b6125915760405162461bcd60e51b8152600401610a6890614e0a565b603a8190556040518181527f2ec5fb5a3d2703edc461252d92ccd2799c3c74f01d97212b20388207fa17ae4590602001610adb565b603f546001600160a01b03163314806125e257506125e26129d5565b6125fe5760405162461bcd60e51b8152600401610a6890614dc2565b612606612c9e565b5060006301e13380612619606484614f92565b6126239190614f92565b90506126396201518066b1a2bc2ec50000614f92565b8111156126785760405162461bcd60e51b815260206004820152600d60248201526c0a4c2e8ca40e8dede40d0d2ced609b1b6044820152606401610a68565b61268181613038565b604f80546001600160401b0392909216600160801b0267ffffffffffffffff60801b199092169190911790556040518181527fef46f143af5fead0010484fe7d6ec2e2972420faa76157f5a6075aa72e614cb59060200160405180910390a15050565b6126ec6129d5565b6127085760405162461bcd60e51b8152600401610a6890614e0a565b603b8190556040518181527f39367850377ac04920a9a670f2180e7a94d83b15ad302e59875ec58fd10bd37d90602001610adb565b6119b66132fa565b6060603680548060200260200160405190810160405280929190818152602001828054801561279d57602002820191906000526020600020905b81546001600160a01b0316815260019091019060200180831161277f575b5050505050905090565b6127af6129d5565b6127cb5760405162461bcd60e51b8152600401610a6890614e0a565b600054610100900460ff16806127e4575060005460ff16155b6128475760405162461bcd60e51b815260206004820152602e60248201527f496e697469616c697a61626c653a20636f6e747261637420697320616c72656160448201526d191e481a5b9a5d1a585b1a5e995960921b6064820152608401610a68565b600054610100900460ff16158015612869576000805461ffff19166101011790555b6001600160a01b0382166128b85760405162461bcd60e51b81526020600482015260166024820152756f546f6b656e2061646472657373206973207a65726f60501b6044820152606401610a68565b603c80546001600160a01b0384166001600160a01b03199091161790556037805461ffff60a01b1916600160a81b1790556000603981905569054b40b1f852bda00000603a55683635c9adc5dea00000603b55604080519182526020820190819052905161292891603691614b02565b50604f805467ffffffffffffffff60401b19166a093a8000000000000000001790558015610cd8576000805461ff00191690555050565b603f546001600160a01b031633148061297b575061297b6129d5565b6129975760405162461bcd60e51b8152600401610a6890614dc2565b6037805460ff60a01b1916600160a01b1790556040517f8cff26a5985614b3d30629cc4ab83824bf115aec971b718d8f2f99562032e97290600090a1565b60006129ed6000805160206151908339815191525490565b6001600160a01b0316336001600160a01b031614905090565b603f546001600160a01b0316331480612a225750612a226129d5565b612a3e5760405162461bcd60e51b8152600401610a6890614dc2565b611a5d6143c5565b612a4e6129d5565b612a6a5760405162461bcd60e51b8152600401610a6890614e0a565b612a92817f44c4d30b2eaad5130ad70c3ba6972730566f3e6359ab83e800d905c61b1c51db55565b806001600160a01b0316612ab26000805160206151908339815191525490565b6001600160a01b03167fa39cc5eb22d0f34d8beaefee8a3f17cc229c1a1d1ef87a5ad47313487b1c4f0d60405160405180910390a350565b6000610c1961445a565b6000612b7d603c60009054906101000a90046001600160a01b03166001600160a01b03166318160ddd6040518163ffffffff1660e01b8152600401602060405180830381865afa158015612b4c573d6000803e3d6000fd5b505050506040513d601f19601f82011682018060405250810190612b709190614f15565b612b7861445a565b6144ae565b50919050565b603754600090600160a81b900460ff1615612bb05760405162461bcd60e51b8152600401610a6890614e41565b60008051602061517083398151915280546001198101612be25760405162461bcd60e51b8152600401610a6890614e69565b60028255604b546000858152604d60205260409020600101546001600160801b03600160801b92839004811692909104161115612c2357612c216132fa565b505b612c2c846134d6565b9250612c626001600160a01b037f00000000000000000000000000000000000000000000000000000000000000001633856130a4565b612c946117b084601260ff7f000000000000000000000000000000000000000000000000000000000000000016613296565b5060019055919050565b603754600090600160a01b900460ff1615612ced5760405162461bcd60e51b815260206004820152600f60248201526e149958985cda5b99c81c185d5cd959608a1b6044820152606401610a68565b603c54604080516318160ddd60e01b815290516000926001600160a01b0316916318160ddd9160048083019260209291908290030181865afa158015612d37573d6000803e3d6000fd5b505050506040513d601f19601f82011682018060405250810190612d5b9190614f15565b90506000612d6761445a565b905081600003612d7a5791506130359050565b600080612d8784846144ae565b90925090506000612d988386614f66565b90508481111580612da857508381115b15612db7575091949350505050565b612dc8826001600160401b03614681565b604f805477ffffffffffffffffffffffffffffffff000000000000000016600160c01b6001600160401b039384160267ffffffffffffffff19161742929092169190911790556042546001600160a01b031660008115612f045761271060435486612e339190614fb4565b612e3d9190614f92565b90508015612f0457848110612e9f5760405162461bcd60e51b815260206004820152602260248201527f466565206d757374206e6f742062652067726561746572207468616e207969656044820152611b1960f21b6064820152608401610a68565b603c546040516340c10f1960e01b81526001600160a01b03909116906340c10f1990612ed19085908590600401614f79565b600060405180830381600087803b158015612eeb57600080fd5b505af1158015612eff573d6000803e3d6000fd5b505050505b604080516001600160a01b0384168152602081018790529081018290527f09516ecf4a8a86e59780a9befc6dee948bc9e60a36e3be68d31ea817ee8d2c809060600160405180910390a1603c60009054906101000a90046001600160a01b03166001600160a01b03166318160ddd6040518163ffffffff1660e01b8152600401602060405180830381865afa158015612fa1573d6000803e3d6000fd5b505050506040513d601f19601f82011682018060405250810190612fc59190614f15565b83111561302b57603c546040516339a7919f60e01b8152600481018590526001600160a01b03909116906339a7919f90602401600060405180830381600087803b15801561301257600080fd5b505af1158015613026573d6000803e3d6000fd5b505050505b5093955050505050505b90565b60006001600160401b038211156130a05760405162461bcd60e51b815260206004820152602660248201527f53616665436173743a2076616c756520646f65736e27742066697420696e203660448201526534206269747360d01b6064820152608401610a68565b5090565b6110dd8363a9059cbb60e01b84846040516024016130c3929190614f79565b60408051601f198184030181529190526020810180516001600160e01b03166001600160e01b031990931692909217909152614697565b6000811161314a5760405162461bcd60e51b815260206004820152601d60248201527f416d6f756e74206d7573742062652067726561746572207468616e20300000006044820152606401610a68565b600061317b82601260ff7f000000000000000000000000000000000000000000000000000000000000000016613296565b90507f0f6798a560793a54c3bcfe86a93cde1e73087d944c0ea20544137d412139688533826040516131ae929190614f79565b60405180910390a1603754600160a01b900460ff161580156131d25750603b548110155b156131e1576131df612c9e565b505b603c546040516340c10f1960e01b81526001600160a01b03909116906340c10f19906132139033908590600401614f79565b600060405180830381600087803b15801561322d57600080fd5b505af1158015613241573d6000803e3d6000fd5b5061327c9250506001600160a01b037f0000000000000000000000000000000000000000000000000000000000000000169050333085614769565b6132846132fa565b50603a548110610cd857610cd861400b565b6000818311156132c6576132bf6132ad8385614eec565b6132b890600a6150b2565b85906147a7565b93506132f0565b818310156132f0576132ed6132db8484614eec565b6132e690600a6150b2565b85906147b3565b93505b50825b9392505050565b60408051608081018252604b546001600160801b03808216808452600160801b92839004821660208501819052604c548084169686019690965292909404166060830152600092839161334c916150be565b6001600160801b03169050806000036133685760009250505090565b6040516370a0823160e01b81523060048201526000907f00000000000000000000000000000000000000000000000000000000000000006001600160a01b0316906370a0823190602401602060405180830381865afa1580156133cf573d6000803e3d6000fd5b505050506040513d601f19601f820116820180604052508101906133f39190614f15565b905060008360400151846020015161340b91906150be565b6001600160801b0316905080821161342857600094505050505090565b60006134348284614eec565b90508084106134435780613445565b835b955060008686602001516001600160801b03166134629190614f66565b905061346d81613fa2565b604b80546001600160801b03928316600160801b0292169190911790556040517fee79a0c43d3993055690b54e074b5153e8bae8d1a872b656dedb64aa8f463333906134c59083908a90918252602082015260400190565b60405180910390a150505050505090565b600080604e54116135295760405162461bcd60e51b815260206004820152601d60248201527f4173796e63207769746864726177616c73206e6f7420656e61626c65640000006044820152606401610a68565b6000828152604d6020908152604091829020825160a08101845281546001600160a01b038116825260ff600160a01b82041615158285015264ffffffffff600160a81b90910481168286019081526001909301546001600160801b03808216606080860191909152600160801b92839004821660808087019190915288519081018952604b548084168252849004831697810197909752604c54808316988801989098529190960490951694840194909452604e549151909342926135f092909116614f66565b11156136345760405162461bcd60e51b815260206004820152601360248201527210db185a5b4819195b185e481b9bdd081b595d606a1b6044820152606401610a68565b80602001516001600160801b031682608001516001600160801b0316111561369e5760405162461bcd60e51b815260206004820152601760248201527f51756575652070656e64696e67206c69717569646974790000000000000000006044820152606401610a68565b81516001600160a01b031633146136e75760405162461bcd60e51b815260206004820152600d60248201526c2737ba103932b8bab2b9ba32b960991b6044820152606401610a68565b60208201511561372b5760405162461bcd60e51b815260206004820152600f60248201526e105b1c9958591e4818db185a5b5959608a1b6044820152606401610a68565b6000848152604d60205260409020805460ff60a01b1916600160a01b179055606082015161378b906120a3906001600160801b03167f000000000000000000000000000000000000000000000000000000000000000060ff166012613296565b816040015161379a91906150dd565b604c80546001600160801b0319166001600160801b03928316179055606083015160405191168152849033907f2d43eb174787155132b52ddb6b346e2dca99302eac3df4466dbeff953d3c84d19060200160405180910390a361382f82606001516001600160801b03167f000000000000000000000000000000000000000000000000000000000000000060ff166012613296565b949350505050565b6000603b5482101580156138555750603754600160a01b900460ff16155b1561386957613862612c9e565b9050613874565b61387161445a565b90505b60415415610cd857600081116138cc5760405162461bcd60e51b815260206004820152601d60248201527f546f6f206d616e79206f75747374616e64696e672072657175657374730000006044820152606401610a68565b600061394f82603c60009054906101000a90046001600160a01b03166001600160a01b03166318160ddd6040518163ffffffff1660e01b8152600401602060405180830381865afa158015613925573d6000803e3d6000fd5b505050506040513d601f19601f820116820180604052508101906139499190614f15565b906147bf565b9050604154670de0b6b3a7640000821161397a5761397582670de0b6b3a7640000614eec565b61398c565b61398c670de0b6b3a764000083614eec565b11156110dd5760405162461bcd60e51b815260206004820152601e60248201527f4261636b696e6720737570706c79206c6971756964697479206572726f7200006044820152606401610a68565b6001600160a01b03811660009081526035602052604090205460ff16613a425760405162461bcd60e51b815260206004820152601960248201527f5374726174656779206973206e6f7420737570706f72746564000000000000006044820152606401610a68565b6000819050806001600160a01b031663853828b66040518163ffffffff1660e01b8152600401600060405180830381600087803b158015613a8257600080fd5b505af1158015613a96573d6000803e3d6000fd5b505050506110dd6132fa565b6001600160a01b038116613af85760405162461bcd60e51b815260206004820152601a60248201527f4e657720476f7665726e6f7220697320616464726573732830290000000000006044820152606401610a68565b6119b6816147e0565b60007f00000000000000000000000000000000000000000000000000000000000000006001600160a01b0316826001600160a01b031614613b4457506000919050565b6040516370a0823160e01b815230600482015282906001600160a01b038216906370a0823190602401602060405180830381865afa158015613b8a573d6000803e3d6000fd5b505050506040513d601f19601f82011682018060405250810190613bae9190614f15565b60365490925060005b81811015613cd357600060368281548110613bd457613bd4614ec0565b60009182526020909120015460405163551c457b60e11b81526001600160a01b0388811660048301529091169150819063aa388af690602401602060405180830381865afa158015613c2a573d6000803e3d6000fd5b505050506040513d601f19601f82011682018060405250810190613c4e9190614f44565b15613cca57604051632fa8a91360e11b81526001600160a01b038781166004830152821690635f51522690602401602060405180830381865afa158015613c99573d6000803e3d6000fd5b505050506040513d601f19601f82011682018060405250810190613cbd9190614f15565b613cc79086614f66565b94505b50600101613bb7565b5060408051608081018252604b546001600160801b03808216808452600160801b9283900482166020850152604c54808316958501869052929092041660608301529091613d219086614f66565b1015613d3257506000949350505050565b805160408201516001600160801b0391821691613d50911686614f66565b613d5a9190614eec565b95945050505050565b6001600160a01b03851660009081526035602052604090205460ff16613dc15760405162461bcd60e51b8152602060048201526013602482015272496e76616c696420746f20537472617465677960681b6044820152606401610a68565b600183148015613dd15750600181145b8015613e3557507f00000000000000000000000000000000000000000000000000000000000000006001600160a01b031684846000818110613e1557613e15614ec0565b9050602002016020810190613e2a9190614c05565b6001600160a01b0316145b613e815760405162461bcd60e51b815260206004820152601760248201527f4f6e6c7920617373657420697320737570706f727465640000000000000000006044820152606401610a68565b613e89614847565b82826000818110613e9c57613e9c614ec0565b905060200201351115613ef15760405162461bcd60e51b815260206004820152601b60248201527f4e6f7420656e6f7567682061737365747320617661696c61626c6500000000006044820152606401610a68565b613f488583836000818110613f0857613f08614ec0565b905060200201357f00000000000000000000000000000000000000000000000000000000000000006001600160a01b03166130a49092919063ffffffff16565b846001600160a01b031663de5f62686040518163ffffffff1660e01b8152600401600060405180830381600087803b158015613f8357600080fd5b505af1158015613f97573d6000803e3d6000fd5b505050505050505050565b60006001600160801b038211156130a05760405162461bcd60e51b815260206004820152602760248201527f53616665436173743a2076616c756520646f65736e27742066697420696e20316044820152663238206269747360c81b6064820152608401610a68565b6050546001600160a01b03168061401f5750565b6000614029614847565b905080600003614037575050565b603c54604080516318160ddd60e01b815290516000926001600160a01b0316916318160ddd9160048083019260209291908290030181865afa158015614081573d6000803e3d6000fd5b505050506040513d601f19601f820116820180604052508101906140a59190614f15565b905060006140ee7f000000000000000000000000000000000000000000000000000000000000000060ff1660126140e76039548661495590919063ffffffff16565b9190613296565b90508083116140fd5750505050565b60006141098285614eec565b9050846141406001600160a01b037f00000000000000000000000000000000000000000000000000000000000000001682846130a4565b6040516311f9fbc960e21b81526001600160a01b038216906347e7ef249061418e907f0000000000000000000000000000000000000000000000000000000000000000908690600401614f79565b600060405180830381600087803b1580156141a857600080fd5b505af11580156141bc573d6000803e3d6000fd5b5050604080516001600160a01b037f0000000000000000000000000000000000000000000000000000000000000000811682528a1660208201529081018590527f41b99659f6ba0803f444aff29e5bf6e26dd86a3219aff92119d69710a956ba8d9250606001905060405180910390a1505050505050565b6001600160a01b03851660009081526035602052604090205460ff166142945760405162461bcd60e51b8152602060048201526015602482015274496e76616c69642066726f6d20537472617465677960581b6044820152606401610a68565b8281146142e35760405162461bcd60e51b815260206004820152601960248201527f506172616d65746572206c656e677468206d69736d61746368000000000000006044820152606401610a68565b8260005b818110156143b257866001600160a01b031663d9caed128988888581811061431157614311614ec0565b90506020020160208101906143269190614c05565b87878681811061433857614338614ec0565b6040516001600160e01b031960e088901b1681526001600160a01b03958616600482015294909316602485015250602090910201356044820152606401600060405180830381600087803b15801561438f57600080fd5b505af11580156143a3573d6000803e3d6000fd5b505050508060010190506142e7565b506143bb6132fa565b5050505050505050565b60365460005b8181101561445157603681815481106143e6576143e6614ec0565b60009182526020822001546040805163429c145b60e11b815290516001600160a01b039092169263853828b69260048084019382900301818387803b15801561442e57600080fd5b505af1158015614442573d6000803e3d6000fd5b505050508060010190506143cb565b50610cd86132fa565b6000610c1960127f000000000000000000000000000000000000000000000000000000000000000060ff166140e77f0000000000000000000000000000000000000000000000000000000000000000613b01565b6000806000603c60009054906101000a90046001600160a01b03166001600160a01b031663e696393a6040518163ffffffff1660e01b8152600401602060405180830381865afa158015614506573d6000803e3d6000fd5b505050506040513d601f19601f8201168201806040525081019061452a9190614f15565b905060006145388287614eec565b604f54909150600090614554906001600160401b031642614eec565b604f54600160c01b90046001600160401b031694509050801580614576575081155b8061458057508587115b8061459257506001600160401b034210155b156145a3576000945050505061467a565b6145ad8787614eec565b604f54909550600160401b90046001600160401b03166001811115614612576145ea856145db836002614fb4565b6145e59089614f92565b61496a565b94506145ff856145fa8389614f92565b614681565b945061460f866145fa8488614fb4565b95505b604f54614653908790670de0b6b3a764000090600160801b90046001600160401b031661463f8688614fb4565b6146499190614fb4565b6145fa9190614f92565b955061467386670de0b6b3a764000061464966470de4df82000087614fb4565b9550505050505b9250929050565b600081831061469057816132f3565b5090919050565b60006146ec826040518060400160405280602081526020017f5361666545524332303a206c6f772d6c6576656c2063616c6c206661696c6564815250856001600160a01b03166149799092919063ffffffff16565b8051909150156110dd578080602001905181019061470a9190614f44565b6110dd5760405162461bcd60e51b815260206004820152602a60248201527f5361666545524332303a204552433230206f7065726174696f6e20646964206e6044820152691bdd081cdd58d8d9595960b21b6064820152608401610a68565b6040516001600160a01b03808516602483015283166044820152606481018290526147a19085906323b872dd60e01b906084016130c3565b50505050565b60006132f38284614fb4565b60006132f38284614f92565b6000806147d484670de0b6b3a76400006147a7565b905061382f81846147b3565b806001600160a01b03166148006000805160206151908339815191525490565b6001600160a01b03167fc7c0c772add429241571afb3805861fb3cfa2af374534088b76cdb4325a87e9a60405160405180910390a360008051602061519083398151915255565b60408051608081018252604b546001600160801b03808216808452600160801b9283900482166020850152604c5480831695850186905292909204166060830152600092839161489791906150be565b6040516370a0823160e01b81523060048201526001600160801b039190911691506000906001600160a01b037f000000000000000000000000000000000000000000000000000000000000000016906370a0823190602401602060405180830381865afa15801561490c573d6000803e3d6000fd5b505050506040513d601f19601f820116820180604052508101906149309190614f15565b9050818111614943576000935050505090565b61494d8282614eec565b935050505090565b60006132f38383670de0b6b3a7640000614988565b600081831161469057816132f3565b606061382f84846000856149a1565b60008061499585856147a7565b9050613d5a81846147b3565b606082471015614a025760405162461bcd60e51b815260206004820152602660248201527f416464726573733a20696e73756666696369656e742062616c616e636520666f6044820152651c8818d85b1b60d21b6064820152608401610a68565b843b614a505760405162461bcd60e51b815260206004820152601d60248201527f416464726573733a2063616c6c20746f206e6f6e2d636f6e74726163740000006044820152606401610a68565b600080866001600160a01b03168587604051614a6c9190615120565b60006040518083038185875af1925050503d8060008114614aa9576040519150601f19603f3d011682016040523d82523d6000602084013e614aae565b606091505b5091509150614abe828286614ac9565b979650505050505050565b60608315614ad85750816132f3565b825115614ae85782518084602001fd5b8160405162461bcd60e51b8152600401610a68919061513c565b828054828255906000526020600020908101928215614b57579160200282015b82811115614b5757825182546001600160a01b0319166001600160a01b03909116178255602090920191600190910190614b22565b506130a09291505b808211156130a05760008155600101614b5f565b600060208284031215614b8557600080fd5b5035919050565b80356001600160a01b0381168114614ba357600080fd5b919050565b60008060408385031215614bbb57600080fd5b614bc483614b8c565b946020939093013593505050565b600080600060608486031215614be757600080fd5b614bf084614b8c565b95602085013595506040909401359392505050565b600060208284031215614c1757600080fd5b6132f382614b8c565b602080825282518282018190526000918401906040840190835b81811015614c615783516001600160a01b0316835260209384019390920191600101614c3a565b509095945050505050565b60008083601f840112614c7e57600080fd5b5081356001600160401b03811115614c9557600080fd5b6020830191508360208260051b850101111561467a57600080fd5b60008060208385031215614cc357600080fd5b82356001600160401b03811115614cd957600080fd5b614ce585828601614c6c565b90969095509350505050565b6040808252835190820181905260009060208501906060840190835b81811015614d2b578351835260209384019390920191600101614d0d565b5050602093909301939093525092915050565b600080600080600060608688031215614d5657600080fd5b614d5f86614b8c565b945060208601356001600160401b03811115614d7a57600080fd5b614d8688828901614c6c565b90955093505060408601356001600160401b03811115614da557600080fd5b614db188828901614c6c565b969995985093965092949392505050565b60208082526028908201527f43616c6c6572206973206e6f74207468652053747261746567697374206f722060408201526723b7bb32b93737b960c11b606082015260800190565b6020808252601a908201527f43616c6c6572206973206e6f742074686520476f7665726e6f72000000000000604082015260600190565b6020808252600e908201526d10d85c1a5d185b081c185d5cd95960921b604082015260600190565b6020808252600e908201526d1499595b9d1c985b9d0818d85b1b60921b604082015260600190565b60208082526015908201527414dd1c985d1959de481b9bdd08185c1c1c9bdd9959605a1b604082015260600190565b634e487b7160e01b600052603260045260246000fd5b634e487b7160e01b600052601160045260246000fd5b81810381811115611a6a57611a6a614ed6565b634e487b7160e01b600052603160045260246000fd5b600060208284031215614f2757600080fd5b5051919050565b634e487b7160e01b600052604160045260246000fd5b600060208284031215614f5657600080fd5b815180151581146132f357600080fd5b80820180821115611a6a57611a6a614ed6565b6001600160a01b03929092168252602082015260400190565b600082614faf57634e487b7160e01b600052601260045260246000fd5b500490565b8082028115828204841417611a6a57611a6a614ed6565b6001815b600184111561500657808504811115614fea57614fea614ed6565b6001841615614ff857908102905b60019390931c928002614fcf565b935093915050565b60008261501d57506001611a6a565b8161502a57506000611a6a565b8160018114615040576002811461504a57615066565b6001915050611a6a565b60ff84111561505b5761505b614ed6565b50506001821b611a6a565b5060208310610133831016604e8410600b8410161715615089575081810a611a6a565b6150966000198484614fcb565b80600019048211156150aa576150aa614ed6565b029392505050565b60006132f3838361500e565b6001600160801b038281168282160390811115611a6a57611a6a614ed6565b6001600160801b038181168382160190811115611a6a57611a6a614ed6565b60005b838110156151175781810151838201526020016150ff565b50506000910152565b600082516151328184602087016150fc565b9190910192915050565b602081526000825180602084015261515b8160408501602087016150fc565b601f01601f1916919091016040019291505056fe53bf423e48ed90e97d02ab0ebab13b2a235a6bfbe9c321847d5c175333ac45357bea13895fa79d2831e0a9e28edede30099005a50d652d8957cf8a607ee6ca4aa2646970667358221220cdd4681ab24eb83949cc552c3025347ea514edc98002eccc2e188ec66b9f87e864736f6c634300081c0033",
  "libraries": {},
  "devdoc": {
    "author": "Origin Protocol Inc",
    "kind": "dev",
    "methods": {
      "addStrategyToMintWhitelist(address)": {
        "params": {
          "strategyAddr": "Strategy address"
        }
      },
      "addWithdrawalQueueLiquidity()": {
        "details": "is called from the Native Staking strategy when validator withdrawals are processed. It also called before any WETH is allocated to a strategy."
      },
      "approveStrategy(address)": {
        "params": {
          "_addr": "Address of the strategy to add"
        }
      },
      "burnForStrategy(uint256)": {
        "details": "Notice: can't use `nonReentrant` modifier since the `redeem` function could require withdrawal on an AMO strategy and that one can call `burnForStrategy` while the execution of the `redeem` has not yet completed -> causing a `nonReentrant` collision. Also important to understand is that this is a limitation imposed by the test suite. Production / mainnet contracts should never be configured in a way where mint/redeem functions that are moving funds between the Vault and end user wallets can influence strategies utilizing this function.",
        "params": {
          "_amount": "Amount of OToken to burn"
        }
      },
      "checkBalance(address)": {
        "params": {
          "_asset": "Address of asset"
        },
        "returns": {
          "_0": "uint256 Balance of asset in decimals of asset"
        }
      },
      "claimWithdrawal(uint256)": {
        "params": {
          "_requestId": "Unique ID for the withdrawal request"
        },
        "returns": {
          "amount": "Amount of asset transferred to the withdrawer"
        }
      },
      "claimWithdrawals(uint256[])": {
        "params": {
          "_requestIds": "Unique ID of each withdrawal request"
        },
        "returns": {
          "amounts": "Amount of asset received for each request",
          "totalAmount": "Total amount of asset transferred to the withdrawer"
        }
      },
      "depositToStrategy(address,address[],uint256[])": {
        "params": {
          "_amounts": "Array of amounts of each corresponding asset to deposit.",
          "_assets": "Array of asset address that will be deposited into the strategy.",
          "_strategyToAddress": "Address of the Strategy to deposit asset into."
        }
      },
      "isSupportedAsset(address)": {
        "params": {
          "_asset": "address of the asset"
        },
        "returns": {
          "_0": "true if supported"
        }
      },
      "mint(address,uint256,uint256)": {
        "details": "Deprecated: use `mint(uint256 _amount)` instead.Deprecated: param _asset Address of the asset being depositedDeprecated: param _minimumOusdAmount Minimum OTokens to mint",
        "params": {
          "_amount": "Amount of the asset being deposited"
        }
      },
      "mint(uint256)": {
        "params": {
          "_amount": "Amount of the asset being deposited"
        }
      },
      "mintForStrategy(uint256)": {
        "params": {
          "_amount": "Amount of OToken to mint Notice: can't use `nonReentrant` modifier since the `mint` function can call `allocate`, and that can trigger an AMO strategy to call this function while the execution of the `mint` has not yet completed -> causing a `nonReentrant` collision. Also important to understand is that this is a limitation imposed by the test suite. Production / mainnet contracts should never be configured in a way where mint/redeem functions that are moving funds between the Vault and end user wallets can influence strategies utilizing this function."
        }
      },
      "previewYield()": {
        "returns": {
          "yield": "amount of expected yield"
        }
      },
      "removeStrategy(address)": {
        "params": {
          "_addr": "Address of the strategy to remove"
        }
      },
      "removeStrategyFromMintWhitelist(address)": {
        "params": {
          "strategyAddr": "Strategy address"
        }
      },
      "requestWithdrawal(uint256)": {
        "params": {
          "_amount": "Amount of OToken to burn."
        },
        "returns": {
          "queued": "Cumulative total of all asset queued including already claimed requests.",
          "requestId": "Unique ID for the withdrawal request"
        }
      },
      "setAutoAllocateThreshold(uint256)": {
        "params": {
          "_threshold": "OToken amount with 18 fixed decimals."
        }
      },
      "setDefaultStrategy(address)": {
        "params": {
          "_strategy": "Address of the Strategy"
        }
      },
      "setDripDuration(uint256)": {
        "params": {
          "_dripDuration": "Time in seconds to target a constant yield rate"
        }
      },
      "setRebaseRateMax(uint256)": {
        "params": {
          "apr": "in 1e18 notation. 3 * 1e18 = 3% APR"
        }
      },
      "setRebaseThreshold(uint256)": {
        "params": {
          "_threshold": "OToken amount with 18 fixed decimals."
        }
      },
      "setStrategistAddr(address)": {
        "params": {
          "_address": "Address of Strategist"
        }
      },
      "setVaultBuffer(uint256)": {
        "params": {
          "_vaultBuffer": "Percentage using 18 decimals. 100% = 1e18."
        }
      },
      "setWithdrawalClaimDelay(uint256)": {
        "params": {
          "_delay": "Delay period (should be between 10 mins to 7 days).          Set to 0 to disable async withdrawals"
        }
      },
      "totalValue()": {
        "returns": {
          "value": "Total value in USD/ETH (1e18)"
        }
      },
      "transferGovernance(address)": {
        "params": {
          "_newGovernor": "Address of the new Governor"
        }
      },
      "transferToken(address,uint256)": {
        "params": {
          "_amount": "Amount of the asset to transfer",
          "_asset": "Address for the asset"
        }
      },
      "withdrawAllFromStrategy(address)": {
        "params": {
          "_strategyAddr": "Strategy address."
        }
      },
      "withdrawFromStrategy(address,address[],uint256[])": {
        "params": {
          "_amounts": "Array of amounts of each corresponding asset to withdraw.",
          "_assets": "Array of asset address that will be withdrawn from the strategy.",
          "_strategyFromAddress": "Address of the Strategy to withdraw asset from."
        }
      }
    },
    "title": "OUSD VaultAdmin Contract",
    "version": 1
  },
  "userdoc": {
    "kind": "user",
    "methods": {
      "addStrategyToMintWhitelist(address)": {
        "notice": "Adds a strategy to the mint whitelist.          Reverts if strategy isn't approved on Vault."
      },
      "addWithdrawalQueueLiquidity()": {
        "notice": "Adds WETH to the withdrawal queue if there is a funding shortfall."
      },
      "allocate()": {
        "notice": "Allocate unallocated funds on Vault to strategies."
      },
      "approveStrategy(address)": {
        "notice": "Add a strategy to the Vault."
      },
      "autoAllocateThreshold()": {
        "notice": "OToken mints over this amount automatically allocate funds. 18 decimals."
      },
      "burnForStrategy(uint256)": {
        "notice": "Burn OTokens for an allowed Strategy"
      },
      "capitalPaused()": {
        "notice": "pause operations that change the OToken supply. eg mint, redeem, allocate, mint/burn for strategy"
      },
      "checkBalance(address)": {
        "notice": "Get the balance of an asset held in Vault and all strategies."
      },
      "claimGovernance()": {
        "notice": "Claim Governance of the contract to a new account (`newGovernor`). Can only be called by the new Governor."
      },
      "claimWithdrawal(uint256)": {
        "notice": "Claim a previously requested withdrawal once it is claimable. This request can be claimed once the withdrawal queue's `claimable` amount is greater than or equal this request's `queued` amount and 10 minutes has passed. If the requests is not claimable, the transaction will revert with `Queue pending liquidity`. If the request is not older than 10 minutes, the transaction will revert with `Claim delay not met`. OToken is converted to asset at 1:1."
      },
      "claimWithdrawals(uint256[])": {
        "notice": "Claim a previously requested withdrawals once they are claimable. This requests can be claimed once the withdrawal queue's `claimable` amount is greater than or equal each request's `queued` amount and 10 minutes has passed. If one of the requests is not claimable, the whole transaction will revert with `Queue pending liquidity`. If one of the requests is not older than 10 minutes, the whole transaction will revert with `Claim delay not met`."
      },
      "defaultStrategy()": {
        "notice": "Default strategy for asset"
      },
      "depositToStrategy(address,address[],uint256[])": {
        "notice": "Deposit multiple asset from the vault into the strategy."
      },
      "dripDuration()": {
        "notice": "Automatic rebase yield calculations. In seconds. Set to 0 or 1 to disable."
      },
      "getAllAssets()": {
        "notice": "Return all vault asset addresses in order"
      },
      "getAllStrategies()": {
        "notice": "Return the array of all strategies"
      },
      "getAssetCount()": {
        "notice": "Return the number of asset supported by the Vault."
      },
      "getStrategyCount()": {
        "notice": "Return the number of strategies active on the Vault."
      },
      "governor()": {
        "notice": "Returns the address of the current Governor."
      },
      "isGovernor()": {
        "notice": "Returns true if the caller is the current Governor."
      },
      "isSupportedAsset(address)": {
        "notice": "Returns whether the vault supports the asset"
      },
      "lastRebase()": {
        "notice": "Time in seconds that the vault last rebased yield."
      },
      "maxSupplyDiff()": {
        "notice": "Max difference between total supply and total value of assets. 18 decimals."
      },
      "mint(address,uint256,uint256)": {
        "notice": "Deposit a supported asset and mint OTokens."
      },
      "mint(uint256)": {
        "notice": "Deposit a supported asset and mint OTokens."
      },
      "mintForStrategy(uint256)": {
        "notice": "Mint OTokens for an allowed Strategy"
      },
      "oUSD()": {
        "notice": "Deprecated: use `oToken()` instead."
      },
      "pauseCapital()": {
        "notice": "Set the deposit paused flag to true to prevent capital movement."
      },
      "pauseRebase()": {
        "notice": "Set the deposit paused flag to true to prevent rebasing."
      },
      "previewYield()": {
        "notice": "Calculates the amount that would rebase at next rebase. This is before any fees."
      },
      "rebase()": {
        "notice": "Calculate the total value of asset held by the Vault and all      strategies and update the supply of OTokens."
      },
      "rebasePaused()": {
        "notice": "pause rebasing if true"
      },
      "rebasePerSecondMax()": {
        "notice": "max rebase percentage per second   Can be used to set maximum yield of the protocol,   spreading out yield over time"
      },
      "rebasePerSecondTarget()": {
        "notice": "target rebase rate limit, based on past rates and funds available."
      },
      "rebaseThreshold()": {
        "notice": "OToken mints over this amount automatically rebase. 18 decimals."
      },
      "removeStrategy(address)": {
        "notice": "Remove a strategy from the Vault."
      },
      "removeStrategyFromMintWhitelist(address)": {
        "notice": "Removes a strategy from the mint whitelist."
      },
      "requestWithdrawal(uint256)": {
        "notice": "Request an asynchronous withdrawal of asset in exchange for OToken. The OToken is burned on request and the asset is transferred to the withdrawer on claim. This request can be claimed once the withdrawal queue's `claimable` amount is greater than or equal this request's `queued` amount. There is a minimum of 10 minutes before a request can be claimed. After that, the request just needs enough asset liquidity in the Vault to satisfy all the outstanding requests to that point in the queue. OToken is converted to asset at 1:1."
      },
      "setAutoAllocateThreshold(uint256)": {
        "notice": "Sets the minimum amount of OTokens in a mint to trigger an automatic allocation of funds afterwords."
      },
      "setDefaultStrategy(address)": {
        "notice": "Set the default Strategy for asset, i.e. the one which the asset will be automatically allocated to and withdrawn from"
      },
      "setDripDuration(uint256)": {
        "notice": "Set the drip duration period"
      },
      "setMaxSupplyDiff(uint256)": {
        "notice": "Sets the maximum allowable difference between total supply and asset' value."
      },
      "setRebaseRateMax(uint256)": {
        "notice": "Set a yield streaming max rate. This spreads yield over time if it is above the max rate. This is a per rebase APR which due to compounding differs from the yearly APR. Governance should consider this fact when picking a desired APR"
      },
      "setRebaseThreshold(uint256)": {
        "notice": "Set a minimum amount of OTokens in a mint or redeem that triggers a rebase"
      },
      "setStrategistAddr(address)": {
        "notice": "Set address of Strategist"
      },
      "setTrusteeAddress(address)": {
        "notice": "Sets the trusteeAddress that can receive a portion of yield.      Setting to the zero address disables this feature."
      },
      "setTrusteeFeeBps(uint256)": {
        "notice": "Sets the TrusteeFeeBps to the percentage of yield that should be      received in basis points."
      },
      "setVaultBuffer(uint256)": {
        "notice": "Set a buffer of asset to keep in the Vault to handle most redemptions without needing to spend gas unwinding asset from a Strategy."
      },
      "setWithdrawalClaimDelay(uint256)": {
        "notice": "Changes the async withdrawal claim period for OETH & superOETHb"
      },
      "strategistAddr()": {
        "notice": "Address of the Strategist"
      },
      "totalValue()": {
        "notice": "Determine the total value of asset held by the vault and its         strategies."
      },
      "transferGovernance(address)": {
        "notice": "Transfers Governance of the contract to a new account (`newGovernor`). Can only be called by the current Governor. Must be claimed for this to complete"
      },
      "transferToken(address,uint256)": {
        "notice": "Transfer token to governor. Intended for recovering tokens stuck in      contract, i.e. mistaken sends."
      },
      "trusteeAddress()": {
        "notice": "Trustee contract that can collect a percentage of yield"
      },
      "trusteeFeeBps()": {
        "notice": "Amount of yield collected in basis points. eg 2000 = 20%"
      },
      "unpauseCapital()": {
        "notice": "Set the deposit paused flag to false to enable capital movement."
      },
      "unpauseRebase()": {
        "notice": "Set the deposit paused flag to true to allow rebasing."
      },
      "vaultBuffer()": {
        "notice": "Percentage of assets to keep in Vault to handle (most) withdrawals. 100% = 1e18."
      },
      "withdrawAllFromStrategies()": {
        "notice": "Withdraws all asset from all the strategies and sends asset to the Vault."
      },
      "withdrawAllFromStrategy(address)": {
        "notice": "Withdraws all asset from the strategy and sends asset to the Vault."
      },
      "withdrawFromStrategy(address,address[],uint256[])": {
        "notice": "Withdraw multiple asset from the strategy to the vault."
      },
      "withdrawalClaimDelay()": {
        "notice": "Sets a minimum delay that is required to elapse between     requesting async withdrawals and claiming the request.     When set to 0 async withdrawals are disabled."
      },
      "withdrawalQueueMetadata()": {
        "notice": "Global metadata for the withdrawal queue including: queued - cumulative total of all withdrawal requests included the ones that have already been claimed claimable - cumulative total of all the requests that can be claimed including the ones already claimed claimed - total of all the requests that have been claimed nextWithdrawalIndex - index of the next withdrawal request starting at 0"
      },
      "withdrawalRequests(uint256)": {
        "notice": "Mapping of withdrawal request indices to the user withdrawal request data"
      }
    },
    "version": 1
  },
  "storageLayout": {
    "storage": [
      {
        "astId": 59818,
        "contract": "contracts/vault/OUSDVault.sol:OUSDVault",
        "label": "initialized",
        "offset": 0,
        "slot": "0",
        "type": "t_bool"
      },
      {
        "astId": 59821,
        "contract": "contracts/vault/OUSDVault.sol:OUSDVault",
        "label": "initializing",
        "offset": 1,
        "slot": "0",
        "type": "t_bool"
      },
      {
        "astId": 59861,
        "contract": "contracts/vault/OUSDVault.sol:OUSDVault",
        "label": "______gap",
        "offset": 0,
        "slot": "1",
        "type": "t_array(t_uint256)50_storage"
      },
      {
        "astId": 63565,
        "contract": "contracts/vault/OUSDVault.sol:OUSDVault",
        "label": "_deprecated_assets",
        "offset": 0,
        "slot": "51",
        "type": "t_uint256"
      },
      {
        "astId": 63569,
        "contract": "contracts/vault/OUSDVault.sol:OUSDVault",
        "label": "_deprecated_allAssets",
        "offset": 0,
        "slot": "52",
        "type": "t_array(t_address)dyn_storage"
      },
      {
        "astId": 63580,
        "contract": "contracts/vault/OUSDVault.sol:OUSDVault",
        "label": "strategies",
        "offset": 0,
        "slot": "53",
        "type": "t_mapping(t_address,t_struct(Strategy)63574_storage)"
      },
      {
        "astId": 63584,
        "contract": "contracts/vault/OUSDVault.sol:OUSDVault",
        "label": "allStrategies",
        "offset": 0,
        "slot": "54",
        "type": "t_array(t_address)dyn_storage"
      },
      {
        "astId": 63587,
        "contract": "contracts/vault/OUSDVault.sol:OUSDVault",
        "label": "_deprecated_priceProvider",
        "offset": 0,
        "slot": "55",
        "type": "t_address"
      },
      {
        "astId": 63590,
        "contract": "contracts/vault/OUSDVault.sol:OUSDVault",
        "label": "rebasePaused",
        "offset": 20,
        "slot": "55",
        "type": "t_bool"
      },
      {
        "astId": 63593,
        "contract": "contracts/vault/OUSDVault.sol:OUSDVault",
        "label": "capitalPaused",
        "offset": 21,
        "slot": "55",
        "type": "t_bool"
      },
      {
        "astId": 63596,
        "contract": "contracts/vault/OUSDVault.sol:OUSDVault",
        "label": "_deprecated_redeemFeeBps",
        "offset": 0,
        "slot": "56",
        "type": "t_uint256"
      },
      {
        "astId": 63599,
        "contract": "contracts/vault/OUSDVault.sol:OUSDVault",
        "label": "vaultBuffer",
        "offset": 0,
        "slot": "57",
        "type": "t_uint256"
      },
      {
        "astId": 63602,
        "contract": "contracts/vault/OUSDVault.sol:OUSDVault",
        "label": "autoAllocateThreshold",
        "offset": 0,
        "slot": "58",
        "type": "t_uint256"
      },
      {
        "astId": 63605,
        "contract": "contracts/vault/OUSDVault.sol:OUSDVault",
        "label": "rebaseThreshold",
        "offset": 0,
        "slot": "59",
        "type": "t_uint256"
      },
      {
        "astId": 63609,
        "contract": "contracts/vault/OUSDVault.sol:OUSDVault",
        "label": "oToken",
        "offset": 0,
        "slot": "60",
        "type": "t_contract(OUSD)58565"
      },
      {
        "astId": 63616,
        "contract": "contracts/vault/OUSDVault.sol:OUSDVault",
        "label": "_deprecated_rebaseHooksAddr",
        "offset": 0,
        "slot": "61",
        "type": "t_address"
      },
      {
        "astId": 63623,
        "contract": "contracts/vault/OUSDVault.sol:OUSDVault",
        "label": "_deprecated_uniswapAddr",
        "offset": 0,
        "slot": "62",
        "type": "t_address"
      },
      {
        "astId": 63630,
        "contract": "contracts/vault/OUSDVault.sol:OUSDVault",
        "label": "strategistAddr",
        "offset": 0,
        "slot": "63",
        "type": "t_address"
      },
      {
        "astId": 63633,
        "contract": "contracts/vault/OUSDVault.sol:OUSDVault",
        "label": "_deprecated_assetDefaultStrategies",
        "offset": 0,
        "slot": "64",
        "type": "t_uint256"
      },
      {
        "astId": 63636,
        "contract": "contracts/vault/OUSDVault.sol:OUSDVault",
        "label": "maxSupplyDiff",
        "offset": 0,
        "slot": "65",
        "type": "t_uint256"
      },
      {
        "astId": 63639,
        "contract": "contracts/vault/OUSDVault.sol:OUSDVault",
        "label": "trusteeAddress",
        "offset": 0,
        "slot": "66",
        "type": "t_address"
      },
      {
        "astId": 63642,
        "contract": "contracts/vault/OUSDVault.sol:OUSDVault",
        "label": "trusteeFeeBps",
        "offset": 0,
        "slot": "67",
        "type": "t_uint256"
      },
      {
        "astId": 63646,
        "contract": "contracts/vault/OUSDVault.sol:OUSDVault",
        "label": "_deprecated_swapTokens",
        "offset": 0,
        "slot": "68",
        "type": "t_array(t_address)dyn_storage"
      },
      {
        "astId": 63649,
        "contract": "contracts/vault/OUSDVault.sol:OUSDVault",
        "label": "_deprecated_ousdMetaStrategy",
        "offset": 0,
        "slot": "69",
        "type": "t_address"
      },
      {
        "astId": 63652,
        "contract": "contracts/vault/OUSDVault.sol:OUSDVault",
        "label": "_deprecated_netOusdMintedForStrategy",
        "offset": 0,
        "slot": "70",
        "type": "t_int256"
      },
      {
        "astId": 63655,
        "contract": "contracts/vault/OUSDVault.sol:OUSDVault",
        "label": "_deprecated_netOusdMintForStrategyThreshold",
        "offset": 0,
        "slot": "71",
        "type": "t_uint256"
      },
      {
        "astId": 63657,
        "contract": "contracts/vault/OUSDVault.sol:OUSDVault",
        "label": "_deprecated_swapConfig",
        "offset": 0,
        "slot": "72",
        "type": "t_uint256"
      },
      {
        "astId": 63661,
        "contract": "contracts/vault/OUSDVault.sol:OUSDVault",
        "label": "isMintWhitelistedStrategy",
        "offset": 0,
        "slot": "73",
        "type": "t_mapping(t_address,t_bool)"
      },
      {
        "astId": 63664,
        "contract": "contracts/vault/OUSDVault.sol:OUSDVault",
        "label": "_deprecated_dripper",
        "offset": 0,
        "slot": "74",
        "type": "t_address"
      },
      {
        "astId": 63678,
        "contract": "contracts/vault/OUSDVault.sol:OUSDVault",
        "label": "withdrawalQueueMetadata",
        "offset": 0,
        "slot": "75",
        "type": "t_struct(WithdrawalQueueMetadata)63674_storage"
      },
      {
        "astId": 63695,
        "contract": "contracts/vault/OUSDVault.sol:OUSDVault",
        "label": "withdrawalRequests",
        "offset": 0,
        "slot": "77",
        "type": "t_mapping(t_uint256,t_struct(WithdrawalRequest)63689_storage)"
      },
      {
        "astId": 63698,
        "contract": "contracts/vault/OUSDVault.sol:OUSDVault",
        "label": "withdrawalClaimDelay",
        "offset": 0,
        "slot": "78",
        "type": "t_uint256"
      },
      {
        "astId": 63701,
        "contract": "contracts/vault/OUSDVault.sol:OUSDVault",
        "label": "lastRebase",
        "offset": 0,
        "slot": "79",
        "type": "t_uint64"
      },
      {
        "astId": 63704,
        "contract": "contracts/vault/OUSDVault.sol:OUSDVault",
        "label": "dripDuration",
        "offset": 8,
        "slot": "79",
        "type": "t_uint64"
      },
      {
        "astId": 63707,
        "contract": "contracts/vault/OUSDVault.sol:OUSDVault",
        "label": "rebasePerSecondMax",
        "offset": 16,
        "slot": "79",
        "type": "t_uint64"
      },
      {
        "astId": 63710,
        "contract": "contracts/vault/OUSDVault.sol:OUSDVault",
        "label": "rebasePerSecondTarget",
        "offset": 24,
        "slot": "79",
        "type": "t_uint64"
      },
      {
        "astId": 63724,
        "contract": "contracts/vault/OUSDVault.sol:OUSDVault",
        "label": "defaultStrategy",
        "offset": 0,
        "slot": "80",
        "type": "t_address"
      },
      {
        "astId": 63728,
        "contract": "contracts/vault/OUSDVault.sol:OUSDVault",
        "label": "__gap",
        "offset": 0,
        "slot": "81",
        "type": "t_array(t_uint256)42_storage"
      },
      {
        "astId": 63731,
        "contract": "contracts/vault/OUSDVault.sol:OUSDVault",
        "label": "_deprecated_wethAssetIndex",
        "offset": 0,
        "slot": "123",
        "type": "t_uint256"
      }
    ],
    "types": {
      "t_address": {
        "encoding": "inplace",
        "label": "address",
        "numberOfBytes": "20"
      },
      "t_array(t_address)dyn_storage": {
        "base": "t_address",
        "encoding": "dynamic_array",
        "label": "address[]",
        "numberOfBytes": "32"
      },
      "t_array(t_uint256)42_storage": {
        "base": "t_uint256",
        "encoding": "inplace",
        "label": "uint256[42]",
        "numberOfBytes": "1344"
      },
      "t_array(t_uint256)50_storage": {
        "base": "t_uint256",
        "encoding": "inplace",
        "label": "uint256[50]",
        "numberOfBytes": "1600"
      },
      "t_bool": {
        "encoding": "inplace",
        "label": "bool",
        "numberOfBytes": "1"
      },
      "t_contract(OUSD)58565": {
        "encoding": "inplace",
        "label": "contract OUSD",
        "numberOfBytes": "20"
      },
      "t_int256": {
        "encoding": "inplace",
        "label": "int256",
        "numberOfBytes": "32"
      },
      "t_mapping(t_address,t_bool)": {
        "encoding": "mapping",
        "key": "t_address",
        "label": "mapping(address => bool)",
        "numberOfBytes": "32",
        "value": "t_bool"
      },
      "t_mapping(t_address,t_struct(Strategy)63574_storage)": {
        "encoding": "mapping",
        "key": "t_address",
        "label": "mapping(address => struct VaultStorage.Strategy)",
        "numberOfBytes": "32",
        "value": "t_struct(Strategy)63574_storage"
      },
      "t_mapping(t_uint256,t_struct(WithdrawalRequest)63689_storage)": {
        "encoding": "mapping",
        "key": "t_uint256",
        "label": "mapping(uint256 => struct VaultStorage.WithdrawalRequest)",
        "numberOfBytes": "32",
        "value": "t_struct(WithdrawalRequest)63689_storage"
      },
      "t_struct(Strategy)63574_storage": {
        "encoding": "inplace",
        "label": "struct VaultStorage.Strategy",
        "members": [
          {
            "astId": 63571,
            "contract": "contracts/vault/OUSDVault.sol:OUSDVault",
            "label": "isSupported",
            "offset": 0,
            "slot": "0",
            "type": "t_bool"
          },
          {
            "astId": 63573,
            "contract": "contracts/vault/OUSDVault.sol:OUSDVault",
            "label": "_deprecated",
            "offset": 0,
            "slot": "1",
            "type": "t_uint256"
          }
        ],
        "numberOfBytes": "64"
      },
      "t_struct(WithdrawalQueueMetadata)63674_storage": {
        "encoding": "inplace",
        "label": "struct VaultStorage.WithdrawalQueueMetadata",
        "members": [
          {
            "astId": 63667,
            "contract": "contracts/vault/OUSDVault.sol:OUSDVault",
            "label": "queued",
            "offset": 0,
            "slot": "0",
            "type": "t_uint128"
          },
          {
            "astId": 63669,
            "contract": "contracts/vault/OUSDVault.sol:OUSDVault",
            "label": "claimable",
            "offset": 16,
            "slot": "0",
            "type": "t_uint128"
          },
          {
            "astId": 63671,
            "contract": "contracts/vault/OUSDVault.sol:OUSDVault",
            "label": "claimed",
            "offset": 0,
            "slot": "1",
            "type": "t_uint128"
          },
          {
            "astId": 63673,
            "contract": "contracts/vault/OUSDVault.sol:OUSDVault",
            "label": "nextWithdrawalIndex",
            "offset": 16,
            "slot": "1",
            "type": "t_uint128"
          }
        ],
        "numberOfBytes": "64"
      },
      "t_struct(WithdrawalRequest)63689_storage": {
        "encoding": "inplace",
        "label": "struct VaultStorage.WithdrawalRequest",
        "members": [
          {
            "astId": 63680,
            "contract": "contracts/vault/OUSDVault.sol:OUSDVault",
            "label": "withdrawer",
            "offset": 0,
            "slot": "0",
            "type": "t_address"
          },
          {
            "astId": 63682,
            "contract": "contracts/vault/OUSDVault.sol:OUSDVault",
            "label": "claimed",
            "offset": 20,
            "slot": "0",
            "type": "t_bool"
          },
          {
            "astId": 63684,
            "contract": "contracts/vault/OUSDVault.sol:OUSDVault",
            "label": "timestamp",
            "offset": 21,
            "slot": "0",
            "type": "t_uint40"
          },
          {
            "astId": 63686,
            "contract": "contracts/vault/OUSDVault.sol:OUSDVault",
            "label": "amount",
            "offset": 0,
            "slot": "1",
            "type": "t_uint128"
          },
          {
            "astId": 63688,
            "contract": "contracts/vault/OUSDVault.sol:OUSDVault",
            "label": "queued",
            "offset": 16,
            "slot": "1",
            "type": "t_uint128"
          }
        ],
        "numberOfBytes": "64"
      },
      "t_uint128": {
        "encoding": "inplace",
        "label": "uint128",
        "numberOfBytes": "16"
      },
      "t_uint256": {
        "encoding": "inplace",
        "label": "uint256",
        "numberOfBytes": "32"
      },
      "t_uint40": {
        "encoding": "inplace",
        "label": "uint40",
        "numberOfBytes": "5"
      },
      "t_uint64": {
        "encoding": "inplace",
        "label": "uint64",
        "numberOfBytes": "8"
      }
    }
  }
}