{
  "address": "0xC67436e3c9c24aFBd33782DE930Fbd328EA0A752",
  "abi": [
    {
      "inputs": [
        {
          "internalType": "address",
          "name": "_oToken",
          "type": "address"
        },
        {
          "internalType": "address",
          "name": "_governor",
          "type": "address"
        },
        {
          "internalType": "address",
          "name": "_centralRegistry",
          "type": "address"
        },
        {
          "internalType": "address",
          "name": "_beacon",
          "type": "address"
        }
      ],
      "stateMutability": "nonpayable",
      "type": "constructor"
    },
    {
      "anonymous": false,
      "inputs": [
        {
          "indexed": true,
          "internalType": "address",
          "name": "previousGovernor",
          "type": "address"
        },
        {
          "indexed": true,
          "internalType": "address",
          "name": "newGovernor",
          "type": "address"
        }
      ],
      "name": "GovernorshipTransferred",
      "type": "event"
    },
    {
      "anonymous": false,
      "inputs": [
        {
          "indexed": true,
          "internalType": "address",
          "name": "previousGovernor",
          "type": "address"
        },
        {
          "indexed": true,
          "internalType": "address",
          "name": "newGovernor",
          "type": "address"
        }
      ],
      "name": "PendingGovernorshipTransfer",
      "type": "event"
    },
    {
      "inputs": [],
      "name": "VERSION",
      "outputs": [
        {
          "internalType": "string",
          "name": "",
          "type": "string"
        }
      ],
      "stateMutability": "view",
      "type": "function"
    },
    {
      "inputs": [],
      "name": "beacon",
      "outputs": [
        {
          "internalType": "address",
          "name": "",
          "type": "address"
        }
      ],
      "stateMutability": "view",
      "type": "function"
    },
    {
      "inputs": [
        {
          "internalType": "address[]",
          "name": "_exclusionList",
          "type": "address[]"
        }
      ],
      "name": "bribeAll",
      "outputs": [],
      "stateMutability": "nonpayable",
      "type": "function"
    },
    {
      "inputs": [],
      "name": "centralRegistry",
      "outputs": [
        {
          "internalType": "contract IPoolBoostCentralRegistry",
          "name": "",
          "type": "address"
        }
      ],
      "stateMutability": "view",
      "type": "function"
    },
    {
      "inputs": [],
      "name": "claimGovernance",
      "outputs": [],
      "stateMutability": "nonpayable",
      "type": "function"
    },
    {
      "inputs": [
        {
          "internalType": "uint256",
          "name": "_salt",
          "type": "uint256"
        },
        {
          "internalType": "bytes",
          "name": "_initData",
          "type": "bytes"
        }
      ],
      "name": "computePoolBoosterAddress",
      "outputs": [
        {
          "internalType": "address",
          "name": "",
          "type": "address"
        }
      ],
      "stateMutability": "view",
      "type": "function"
    },
    {
      "inputs": [
        {
          "internalType": "address",
          "name": "_ammPoolAddress",
          "type": "address"
        },
        {
          "internalType": "bytes",
          "name": "_initData",
          "type": "bytes"
        },
        {
          "internalType": "uint256",
          "name": "_salt",
          "type": "uint256"
        }
      ],
      "name": "createPoolBoosterMerkl",
      "outputs": [],
      "stateMutability": "nonpayable",
      "type": "function"
    },
    {
      "inputs": [],
      "name": "governor",
      "outputs": [
        {
          "internalType": "address",
          "name": "",
          "type": "address"
        }
      ],
      "stateMutability": "view",
      "type": "function"
    },
    {
      "inputs": [],
      "name": "isGovernor",
      "outputs": [
        {
          "internalType": "bool",
          "name": "",
          "type": "bool"
        }
      ],
      "stateMutability": "view",
      "type": "function"
    },
    {
      "inputs": [],
      "name": "oToken",
      "outputs": [
        {
          "internalType": "address",
          "name": "",
          "type": "address"
        }
      ],
      "stateMutability": "view",
      "type": "function"
    },
    {
      "inputs": [
        {
          "internalType": "address",
          "name": "",
          "type": "address"
        }
      ],
      "name": "poolBoosterFromPool",
      "outputs": [
        {
          "internalType": "address",
          "name": "boosterAddress",
          "type": "address"
        },
        {
          "internalType": "address",
          "name": "ammPoolAddress",
          "type": "address"
        },
        {
          "internalType": "enum IPoolBoostCentralRegistry.PoolBoosterType",
          "name": "boosterType",
          "type": "uint8"
        }
      ],
      "stateMutability": "view",
      "type": "function"
    },
    {
      "inputs": [],
      "name": "poolBoosterLength",
      "outputs": [
        {
          "internalType": "uint256",
          "name": "",
          "type": "uint256"
        }
      ],
      "stateMutability": "view",
      "type": "function"
    },
    {
      "inputs": [
        {
          "internalType": "uint256",
          "name": "",
          "type": "uint256"
        }
      ],
      "name": "poolBoosters",
      "outputs": [
        {
          "internalType": "address",
          "name": "boosterAddress",
          "type": "address"
        },
        {
          "internalType": "address",
          "name": "ammPoolAddress",
          "type": "address"
        },
        {
          "internalType": "enum IPoolBoostCentralRegistry.PoolBoosterType",
          "name": "boosterType",
          "type": "uint8"
        }
      ],
      "stateMutability": "view",
      "type": "function"
    },
    {
      "inputs": [
        {
          "internalType": "address",
          "name": "_poolBoosterAddress",
          "type": "address"
        }
      ],
      "name": "removePoolBooster",
      "outputs": [],
      "stateMutability": "nonpayable",
      "type": "function"
    },
    {
      "inputs": [
        {
          "internalType": "uint256",
          "name": "_index",
          "type": "uint256"
        }
      ],
      "name": "removePoolBoosterByIndex",
      "outputs": [],
      "stateMutability": "nonpayable",
      "type": "function"
    },
    {
      "inputs": [
        {
          "internalType": "address",
          "name": "_newGovernor",
          "type": "address"
        }
      ],
      "name": "transferGovernance",
      "outputs": [],
      "stateMutability": "nonpayable",
      "type": "function"
    }
  ],
  "transactionHash": "0x4874d544486bed466fca29f96446f93d6087278191b3eac0328b2afec6ae919d",
  "args": [
    "0x856c4Efb76C1D1AE02e20CEB03A2A6a08b0b8dC3",
    "0x4FF1b9D9ba8558F5EAfCec096318eA0d8b541971",
    "0xAA8af8Db4B6a827B51786334d26349eb03569731",
    "0xB6670839d7619410b82DE37db8198DbB8a9E0074"
  ],
  "numDeployments": 2,
  "solcInputHash": "5af312d996f4da69bb86cb58ee55b3eb",
  "bytecode": "0x60c060405234801561001057600080fd5b50604051611ed7380380611ed783398101604081905261002f9161025a565b8383836001600160a01b03831661008d5760405162461bcd60e51b815260206004820152601660248201527f496e76616c6964206f546f6b656e20616464726573730000000000000000000060448201526064015b60405180910390fd5b6001600160a01b0382166100e35760405162461bcd60e51b815260206004820152601860248201527f496e76616c696420676f7665726e6f72206164647265737300000000000000006044820152606401610084565b6001600160a01b0381166101395760405162461bcd60e51b815260206004820181905260248201527f496e76616c69642063656e7472616c20726567697374727920616464726573736044820152606401610084565b6001600160a01b03808416608052811660a052610155826101d7565b5050506001600160a01b0381166101ae5760405162461bcd60e51b815260206004820152601660248201527f496e76616c696420626561636f6e2061646472657373000000000000000000006044820152606401610084565b600280546001600160a01b0319166001600160a01b0392909216919091179055506102ae915050565b6001600160a01b0381166101f7600080516020611eb78339815191525490565b6001600160a01b03167fc7c0c772add429241571afb3805861fb3cfa2af374534088b76cdb4325a87e9a60405160405180910390a3600080516020611eb783398151915255565b80516001600160a01b038116811461025557600080fd5b919050565b6000806000806080858703121561027057600080fd5b6102798561023e565b93506102876020860161023e565b92506102956040860161023e565b91506102a36060860161023e565b905092959194509250565b60805160a051611bcf6102e8600039600081816101b90152818161073801528181610be70152610f83015260006101620152611bcf6000f3fe608060405234801561001057600080fd5b50600436106101005760003560e01c8063b6eee96211610097578063d517786811610066578063d517786814610259578063dff17b011461026c578063e24abe631461027f578063ffa1ad741461029257600080fd5b8063b6eee962146101db578063c7af33521461021b578063ce2895e114610233578063d38bfff41461024657600080fd5b80631e91eaa6116100d35780631e91eaa61461018457806359659e90146101975780635d36b190146101aa5780638f73dcfa146101b457600080fd5b80630c340a2414610105578063110c1a411461012a57806317c01cb31461014c5780631a32aad61461015d575b600080fd5b61010d6102c3565b6040516001600160a01b0390911681526020015b60405180910390f35b61013d610138366004611069565b6102e0565b60405161012193929190611098565b600054604051908152602001610121565b61010d7f000000000000000000000000000000000000000000000000000000000000000081565b61010d610192366004611125565b610326565b60025461010d906001600160a01b031681565b6101b261043e565b005b61010d7f000000000000000000000000000000000000000000000000000000000000000081565b61013d6101e936600461118d565b600160208190526000918252604090912080549101546001600160a01b0391821691811690600160a01b900460ff1683565b6102236104e4565b6040519015158152602001610121565b6101b2610241366004611069565b610515565b6101b261025436600461118d565b610799565b6101b26102673660046111c5565b61083d565b6101b261027a366004611295565b61086d565b6101b261028d36600461118d565b6109f4565b6102b6604051806040016040528060058152602001640312e302e360dc1b81525081565b6040516101219190611313565b60006102db600080516020611b7a8339815191525490565b905090565b600081815481106102f057600080fd5b6000918252602090912060029091020180546001909101546001600160a01b03918216925090811690600160a01b900460ff1683565b600080841161036b5760405162461bcd60e51b815260206004820152600c60248201526b125b9d985b1a59081cd85b1d60a21b60448201526064015b60405180910390fd5b60006040518060200161037d9061105c565b601f1982820381018352601f9091011660408190526002546103b1916001600160a01b039091169087908790602001611346565b60408051601f19818403018152908290526103cf9291602001611386565b60408051808303601f1901815282825280516020918201206001600160f81b0319828501523060601b6bffffffffffffffffffffffff19166021850152603584019890985260558084019890985281518084039098018852607590920190528551950194909420949350505050565b7f44c4d30b2eaad5130ad70c3ba6972730566f3e6359ab83e800d905c61b1c51db546001600160a01b0316336001600160a01b0316146104d95760405162461bcd60e51b815260206004820152603060248201527f4f6e6c79207468652070656e64696e6720476f7665726e6f722063616e20636f60448201526f6d706c6574652074686520636c61696d60801b6064820152608401610362565b6104e233610ca0565b565b60006104fc600080516020611b7a8339815191525490565b6001600160a01b0316336001600160a01b031614905090565b61051d6104e4565b6105395760405162461bcd60e51b8152600401610362906113b5565b6000548082106105815760405162461bcd60e51b8152602060048201526013602482015272496e646578206f7574206f6620626f756e647360681b6044820152606401610362565b6000808381548110610595576105956113ec565b6000918252602082206002909102015481546001600160a01b039091169250600191908190869081106105ca576105ca6113ec565b6000918252602080832060016002909302018201546001600160a01b031684528301939093526040909101812080546001600160a01b0319168155820180546001600160a81b0319169055906106209084611402565b81548110610630576106306113ec565b906000526020600020906002020160008481548110610651576106516113ec565b60009182526020909120825460029092020180546001600160a01b03199081166001600160a01b0393841617825560018085018054918401805493841692909516918217855554929360ff600160a01b94859004169390926001600160a81b031916909117908360048111156106c9576106c9611082565b021790555090505060008054806106e2576106e2611429565b6000828152602090206002600019929092019182020180546001600160a01b031916815560010180546001600160a81b03191690559055604051630702522960e01b81526001600160a01b0382811660048301527f00000000000000000000000000000000000000000000000000000000000000001690630702522990602401600060405180830381600087803b15801561077c57600080fd5b505af1158015610790573d6000803e3d6000fd5b50505050505050565b6107a16104e4565b6107bd5760405162461bcd60e51b8152600401610362906113b5565b6107e5817f44c4d30b2eaad5130ad70c3ba6972730566f3e6359ab83e800d905c61b1c51db55565b806001600160a01b0316610805600080516020611b7a8339815191525490565b6001600160a01b03167fa39cc5eb22d0f34d8beaefee8a3f17cc229c1a1d1ef87a5ad47313487b1c4f0d60405160405180910390a350565b6108456104e4565b6108615760405162461bcd60e51b8152600401610362906113b5565b61086a81610cff565b50565b6108756104e4565b6108915760405162461bcd60e51b8152600401610362906113b5565b6001600160a01b0384166108e75760405162461bcd60e51b815260206004820152601e60248201527f496e76616c696420616d6d506f6f6c41646472657373206164647265737300006044820152606401610362565b600081116109265760405162461bcd60e51b815260206004820152600c60248201526b125b9d985b1a59081cd85b1d60a21b6044820152606401610362565b6001600160a01b03848116600090815260016020526040902054161561098e5760405162461bcd60e51b815260206004820152601b60248201527f506f6f6c20626f6f7374657220616c72656164792065786973747300000000006044820152606401610362565b60025460405160009183916001600160a01b0390911690869086906109b29061105c565b6109be93929190611346565b8190604051809103906000f59050801580156109de573d6000803e3d6000fd5b5090506109ed81866003610df2565b5050505050565b6109fc6104e4565b610a185760405162461bcd60e51b8152600401610362906113b5565b6000805490805b82811015610c5457836001600160a01b031660008281548110610a4457610a446113ec565b60009182526020909120600290910201546001600160a01b031603610c4c5760016000808381548110610a7957610a796113ec565b6000918252602080832060016002909302018201546001600160a01b031684528301939093526040909101812080546001600160a01b0319168155820180546001600160a81b031916905590610acf9085611402565b81548110610adf57610adf6113ec565b906000526020600020906002020160008281548110610b0057610b006113ec565b60009182526020909120825460029092020180546001600160a01b03199081166001600160a01b0393841617825560018085018054918401805493841692909516918217855554929360ff600160a01b94859004169390926001600160a81b03191690911790836004811115610b7857610b78611082565b02179055509050506000805480610b9157610b91611429565b6000828152602090206002600019929092019182020180546001600160a01b031916815560010180546001600160a81b03191690559055604051630702522960e01b81526001600160a01b0385811660048301527f00000000000000000000000000000000000000000000000000000000000000001690630702522990602401600060405180830381600087803b158015610c2b57600080fd5b505af1158015610c3f573d6000803e3d6000fd5b5050505060019150610c54565b600101610a1f565b5080610c9b5760405162461bcd60e51b8152602060048201526016602482015275141bdbdb08189bdbdcdd195c881b9bdd08199bdd5b9960521b6044820152606401610362565b505050565b6001600160a01b038116610cf65760405162461bcd60e51b815260206004820152601a60248201527f4e657720476f7665726e6f7220697320616464726573732830290000000000006044820152606401610362565b61086a81610ff5565b60008054905b81811015610c9b576000808281548110610d2157610d216113ec565b6000918252602082206002909102015485516001600160a01b039091169250815b81811015610d8d57836001600160a01b0316878281518110610d6657610d666113ec565b60200260200101516001600160a01b031603610d855760019250610d8d565b600101610d42565b5081610de757826001600160a01b03166337d0208c6040518163ffffffff1660e01b8152600401600060405180830381600087803b158015610dce57600080fd5b505af1158015610de2573d6000803e3d6000fd5b505050505b505050600101610d05565b60006040518060600160405280856001600160a01b03168152602001846001600160a01b03168152602001836004811115610e2f57610e2f611082565b905260008054600181018255908052815160029091027f290decd9548b62a8d60345a988386fc84ba6bc95484008f6362f93160ef3e563810180546001600160a01b039384166001600160a01b031991821617825560208501517f290decd9548b62a8d60345a988386fc84ba6bc95484008f6362f93160ef3e5649093018054939094169083168117845560408501519495508594919391926001600160a81b03191617600160a01b836004811115610eea57610eea611082565b021790555050506001600160a01b03808416600090815260016020818152604092839020855181549086166001600160a01b03199182161782559186015192810180549390951691831682178555928501518594909290916001600160a81b031990911617600160a01b836004811115610f6657610f66611082565b021790555050604051630b22521d60e31b81526001600160a01b037f000000000000000000000000000000000000000000000000000000000000000016915063591290e890610fbd90879087908790600401611098565b600060405180830381600087803b158015610fd757600080fd5b505af1158015610feb573d6000803e3d6000fd5b5050505050505050565b806001600160a01b0316611015600080516020611b7a8339815191525490565b6001600160a01b03167fc7c0c772add429241571afb3805861fb3cfa2af374534088b76cdb4325a87e9a60405160405180910390a3600080516020611b7a83398151915255565b61073a8061144083390190565b60006020828403121561107b57600080fd5b5035919050565b634e487b7160e01b600052602160045260246000fd5b6001600160a01b0384811682528316602082015260608101600583106110ce57634e487b7160e01b600052602160045260246000fd5b826040830152949350505050565b60008083601f8401126110ee57600080fd5b50813567ffffffffffffffff81111561110657600080fd5b60208301915083602082850101111561111e57600080fd5b9250929050565b60008060006040848603121561113a57600080fd5b83359250602084013567ffffffffffffffff81111561115857600080fd5b611164868287016110dc565b9497909650939450505050565b80356001600160a01b038116811461118857600080fd5b919050565b60006020828403121561119f57600080fd5b6111a882611171565b9392505050565b634e487b7160e01b600052604160045260246000fd5b6000602082840312156111d757600080fd5b813567ffffffffffffffff8111156111ee57600080fd5b8201601f810184136111ff57600080fd5b803567ffffffffffffffff811115611219576112196111af565b8060051b604051601f19603f830116810181811067ffffffffffffffff82111715611246576112466111af565b60405291825260208184018101929081018784111561126457600080fd5b6020850194505b8385101561128a5761127c85611171565b81526020948501940161126b565b509695505050505050565b600080600080606085870312156112ab57600080fd5b6112b485611171565b9350602085013567ffffffffffffffff8111156112d057600080fd5b6112dc878288016110dc565b9598909750949560400135949350505050565b60005b8381101561130a5781810151838201526020016112f2565b50506000910152565b60208152600082518060208401526113328160408501602087016112ef565b601f01601f19169190910160400192915050565b6001600160a01b03841681526040602082018190528101829052818360608301376000818301606090810191909152601f909201601f1916010192915050565b600083516113988184602088016112ef565b8351908301906113ac8183602088016112ef565b01949350505050565b6020808252601a908201527f43616c6c6572206973206e6f742074686520476f7665726e6f72000000000000604082015260600190565b634e487b7160e01b600052603260045260246000fd5b8181038181111561142357634e487b7160e01b600052601160045260246000fd5b92915050565b634e487b7160e01b600052603160045260246000fdfe608060405260405161073a38038061073a83398101604081905261002291610431565b61004d60017fa3f0ad74e5423aebfd80d3ef4346578335a9a72aeaee59ff6cb3582b35133d516104f7565b6000805160206106f38339815191521461006957610069610518565b6100758282600061007c565b5050610598565b6100858361013d565b6040516001600160a01b038416907f1cf3b03a6cf19fa2baba4df148e9dcabedea7f8a5c07840e207e5c089be95d3e90600090a26000825111806100c65750805b1561013857610136836001600160a01b0316635c60da1b6040518163ffffffff1660e01b8152600401602060405180830381865afa15801561010c573d6000803e3d6000fd5b505050506040513d601f19601f82011682018060405250810190610130919061052e565b8361029d565b505b505050565b803b61019e5760405162461bcd60e51b815260206004820152602560248201527f455243313936373a206e657720626561636f6e206973206e6f74206120636f6e6044820152641d1c9858dd60da1b60648201526084015b60405180910390fd5b610209816001600160a01b0316635c60da1b6040518163ffffffff1660e01b8152600401602060405180830381865afa1580156101df573d6000803e3d6000fd5b505050506040513d601f19601f82011682018060405250810190610203919061052e565b3b151590565b61026e5760405162461bcd60e51b815260206004820152603060248201527f455243313936373a20626561636f6e20696d706c656d656e746174696f6e206960448201526f1cc81b9bdd08184818dbdb9d1c9858dd60821b6064820152608401610195565b6000805160206106f383398151915280546001600160a01b0319166001600160a01b0392909216919091179055565b60606102c28383604051806060016040528060278152602001610713602791396102cb565b90505b92915050565b6060833b61032a5760405162461bcd60e51b815260206004820152602660248201527f416464726573733a2064656c65676174652063616c6c20746f206e6f6e2d636f6044820152651b9d1c9858dd60d21b6064820152608401610195565b600080856001600160a01b0316856040516103459190610549565b600060405180830381855af49150503d8060008114610380576040519150601f19603f3d011682016040523d82523d6000602084013e610385565b606091505b5090925090506103968282866103a2565b925050505b9392505050565b606083156103b157508161039b565b8251156103c15782518084602001fd5b8160405162461bcd60e51b81526004016101959190610565565b80516001600160a01b03811681146103f257600080fd5b919050565b634e487b7160e01b600052604160045260246000fd5b60005b83811015610428578181015183820152602001610410565b50506000910152565b6000806040838503121561044457600080fd5b61044d836103db565b60208401519092506001600160401b0381111561046957600080fd5b8301601f8101851361047a57600080fd5b80516001600160401b03811115610493576104936103f7565b604051601f8201601f19908116603f011681016001600160401b03811182821017156104c1576104c16103f7565b6040528181528282016020018710156104d957600080fd5b6104ea82602083016020860161040d565b8093505050509250929050565b818103818111156102c557634e487b7160e01b600052601160045260246000fd5b634e487b7160e01b600052600160045260246000fd5b60006020828403121561054057600080fd5b6102c2826103db565b6000825161055b81846020870161040d565b9190910192915050565b602081526000825180602084015261058481604085016020870161040d565b601f01601f19169190910160400192915050565b61014c806105a76000396000f3fe60806040523661001357610011610017565b005b6100115b610027610022610029565b6100c2565b565b600061005c7fa3f0ad74e5423aebfd80d3ef4346578335a9a72aeaee59ff6cb3582b35133d50546001600160a01b031690565b6001600160a01b0316635c60da1b6040518163ffffffff1660e01b8152600401602060405180830381865afa158015610099573d6000803e3d6000fd5b505050506040513d601f19601f820116820180604052508101906100bd91906100e6565b905090565b3660008037600080366000845af43d6000803e8080156100e1573d6000f35b3d6000fd5b6000602082840312156100f857600080fd5b81516001600160a01b038116811461010f57600080fd5b939250505056fea2646970667358221220acd74fdbdb8dd1f024f48d85be94d726f5d4879cfa57631673eb02fd5070949f64736f6c634300081c0033a3f0ad74e5423aebfd80d3ef4346578335a9a72aeaee59ff6cb3582b35133d50416464726573733a206c6f772d6c6576656c2064656c65676174652063616c6c206661696c65647bea13895fa79d2831e0a9e28edede30099005a50d652d8957cf8a607ee6ca4aa2646970667358221220a7f02efa7d08c38afe13d83d39a0999b7b8b3d6c449961b645a8acc7338c1b3f64736f6c634300081c00337bea13895fa79d2831e0a9e28edede30099005a50d652d8957cf8a607ee6ca4a",
  "libraries": {},
  "devdoc": {
    "author": "Origin Protocol",
    "kind": "dev",
    "methods": {
      "bribeAll(address[])": {
        "params": {
          "_exclusionList": "A list of pool booster addresses to skip"
        }
      },
      "computePoolBoosterAddress(uint256,bytes)": {
        "params": {
          "_initData": "Encoded call data matching the one used in createPoolBoosterMerkl",
          "_salt": "Unique number matching the one used in createPoolBoosterMerkl"
        },
        "returns": {
          "_0": "The predicted proxy address"
        }
      },
      "constructor": {
        "params": {
          "_beacon": "Address of the UpgradeableBeacon",
          "_centralRegistry": "Address of the central registry",
          "_governor": "Address of the governor",
          "_oToken": "Address of the OToken"
        }
      },
      "createPoolBoosterMerkl(address,bytes,uint256)": {
        "params": {
          "_ammPoolAddress": "Address of the AMM pool",
          "_initData": "Encoded call data for initializing the proxy",
          "_salt": "Unique number that determines the proxy address"
        }
      },
      "removePoolBooster(address)": {
        "params": {
          "_poolBoosterAddress": "Address of the pool booster to remove"
        }
      },
      "removePoolBoosterByIndex(uint256)": {
        "details": "More gas-efficient than removePoolBooster when the index is known",
        "params": {
          "_index": "Index of the pool booster in the poolBoosters array"
        }
      },
      "transferGovernance(address)": {
        "params": {
          "_newGovernor": "Address of the new Governor"
        }
      }
    },
    "title": "PoolBoosterFactoryMerkl",
    "version": 1
  },
  "userdoc": {
    "kind": "user",
    "methods": {
      "VERSION()": {
        "notice": "Contract version"
      },
      "beacon()": {
        "notice": "Address of the UpgradeableBeacon"
      },
      "bribeAll(address[])": {
        "notice": "Calls bribe() on all pool boosters, skipping those in the exclusion list"
      },
      "claimGovernance()": {
        "notice": "Claim Governance of the contract to a new account (`newGovernor`). Can only be called by the new Governor."
      },
      "computePoolBoosterAddress(uint256,bytes)": {
        "notice": "Compute the deterministic address of a BeaconProxy"
      },
      "createPoolBoosterMerkl(address,bytes,uint256)": {
        "notice": "Create a Pool Booster for Merkl using a BeaconProxy"
      },
      "governor()": {
        "notice": "Returns the address of the current Governor."
      },
      "isGovernor()": {
        "notice": "Returns true if the caller is the current Governor."
      },
      "removePoolBooster(address)": {
        "notice": "Removes a pool booster from the internal list"
      },
      "removePoolBoosterByIndex(uint256)": {
        "notice": "Removes a pool booster at a specific index from the internal list"
      },
      "transferGovernance(address)": {
        "notice": "Transfers Governance of the contract to a new account (`newGovernor`). Can only be called by the current Governor. Must be claimed for this to complete"
      }
    },
    "notice": "Factory for creating Merkl pool boosters using BeaconProxy.",
    "version": 1
  },
  "storageLayout": {
    "storage": [
      {
        "astId": 35888,
        "contract": "contracts/poolBooster/PoolBoosterFactoryMerkl.sol:PoolBoosterFactoryMerkl",
        "label": "poolBoosters",
        "offset": 0,
        "slot": "0",
        "type": "t_array(t_struct(PoolBoosterEntry)35879_storage)dyn_storage"
      },
      {
        "astId": 35893,
        "contract": "contracts/poolBooster/PoolBoosterFactoryMerkl.sol:PoolBoosterFactoryMerkl",
        "label": "poolBoosterFromPool",
        "offset": 0,
        "slot": "1",
        "type": "t_mapping(t_address,t_struct(PoolBoosterEntry)35879_storage)"
      },
      {
        "astId": 36469,
        "contract": "contracts/poolBooster/PoolBoosterFactoryMerkl.sol:PoolBoosterFactoryMerkl",
        "label": "beacon",
        "offset": 0,
        "slot": "2",
        "type": "t_address"
      }
    ],
    "types": {
      "t_address": {
        "encoding": "inplace",
        "label": "address",
        "numberOfBytes": "20"
      },
      "t_array(t_struct(PoolBoosterEntry)35879_storage)dyn_storage": {
        "base": "t_struct(PoolBoosterEntry)35879_storage",
        "encoding": "dynamic_array",
        "label": "struct AbstractPoolBoosterFactory.PoolBoosterEntry[]",
        "numberOfBytes": "32"
      },
      "t_enum(PoolBoosterType)28257": {
        "encoding": "inplace",
        "label": "enum IPoolBoostCentralRegistry.PoolBoosterType",
        "numberOfBytes": "1"
      },
      "t_mapping(t_address,t_struct(PoolBoosterEntry)35879_storage)": {
        "encoding": "mapping",
        "key": "t_address",
        "label": "mapping(address => struct AbstractPoolBoosterFactory.PoolBoosterEntry)",
        "numberOfBytes": "32",
        "value": "t_struct(PoolBoosterEntry)35879_storage"
      },
      "t_struct(PoolBoosterEntry)35879_storage": {
        "encoding": "inplace",
        "label": "struct AbstractPoolBoosterFactory.PoolBoosterEntry",
        "members": [
          {
            "astId": 35873,
            "contract": "contracts/poolBooster/PoolBoosterFactoryMerkl.sol:PoolBoosterFactoryMerkl",
            "label": "boosterAddress",
            "offset": 0,
            "slot": "0",
            "type": "t_address"
          },
          {
            "astId": 35875,
            "contract": "contracts/poolBooster/PoolBoosterFactoryMerkl.sol:PoolBoosterFactoryMerkl",
            "label": "ammPoolAddress",
            "offset": 0,
            "slot": "1",
            "type": "t_address"
          },
          {
            "astId": 35878,
            "contract": "contracts/poolBooster/PoolBoosterFactoryMerkl.sol:PoolBoosterFactoryMerkl",
            "label": "boosterType",
            "offset": 20,
            "slot": "1",
            "type": "t_enum(PoolBoosterType)28257"
          }
        ],
        "numberOfBytes": "64"
      }
    }
  }
}