{
  "address": "0x861fF038092906708cAE8f70De086bee13B68fd4",
  "abi": [
    {
      "inputs": [],
      "stateMutability": "nonpayable",
      "type": "constructor"
    },
    {
      "anonymous": false,
      "inputs": [
        {
          "indexed": false,
          "internalType": "uint256",
          "name": "amount",
          "type": "uint256"
        }
      ],
      "name": "BribeExecuted",
      "type": "event"
    },
    {
      "anonymous": false,
      "inputs": [
        {
          "indexed": false,
          "internalType": "bytes",
          "name": "newCampaignData",
          "type": "bytes"
        }
      ],
      "name": "CampaignDataUpdated",
      "type": "event"
    },
    {
      "anonymous": false,
      "inputs": [
        {
          "indexed": false,
          "internalType": "uint32",
          "name": "newCampaignType",
          "type": "uint32"
        }
      ],
      "name": "CampaignTypeUpdated",
      "type": "event"
    },
    {
      "anonymous": false,
      "inputs": [
        {
          "indexed": false,
          "internalType": "uint32",
          "name": "newDuration",
          "type": "uint32"
        }
      ],
      "name": "DurationUpdated",
      "type": "event"
    },
    {
      "anonymous": false,
      "inputs": [
        {
          "indexed": true,
          "internalType": "address",
          "name": "previousGovernor",
          "type": "address"
        },
        {
          "indexed": true,
          "internalType": "address",
          "name": "newGovernor",
          "type": "address"
        }
      ],
      "name": "GovernorshipTransferred",
      "type": "event"
    },
    {
      "anonymous": false,
      "inputs": [
        {
          "indexed": false,
          "internalType": "address",
          "name": "newMerklDistributor",
          "type": "address"
        }
      ],
      "name": "MerklDistributorUpdated",
      "type": "event"
    },
    {
      "anonymous": false,
      "inputs": [
        {
          "indexed": true,
          "internalType": "address",
          "name": "previousGovernor",
          "type": "address"
        },
        {
          "indexed": true,
          "internalType": "address",
          "name": "newGovernor",
          "type": "address"
        }
      ],
      "name": "PendingGovernorshipTransfer",
      "type": "event"
    },
    {
      "anonymous": false,
      "inputs": [
        {
          "indexed": false,
          "internalType": "address",
          "name": "newRewardToken",
          "type": "address"
        }
      ],
      "name": "RewardTokenUpdated",
      "type": "event"
    },
    {
      "anonymous": false,
      "inputs": [
        {
          "indexed": false,
          "internalType": "address",
          "name": "_address",
          "type": "address"
        }
      ],
      "name": "StrategistUpdated",
      "type": "event"
    },
    {
      "anonymous": false,
      "inputs": [
        {
          "indexed": false,
          "internalType": "address",
          "name": "token",
          "type": "address"
        },
        {
          "indexed": false,
          "internalType": "uint256",
          "name": "amount",
          "type": "uint256"
        },
        {
          "indexed": false,
          "internalType": "address",
          "name": "receiver",
          "type": "address"
        }
      ],
      "name": "TokensRescued",
      "type": "event"
    },
    {
      "inputs": [],
      "name": "MIN_BRIBE_AMOUNT",
      "outputs": [
        {
          "internalType": "uint256",
          "name": "",
          "type": "uint256"
        }
      ],
      "stateMutability": "view",
      "type": "function"
    },
    {
      "inputs": [],
      "name": "VERSION",
      "outputs": [
        {
          "internalType": "string",
          "name": "",
          "type": "string"
        }
      ],
      "stateMutability": "view",
      "type": "function"
    },
    {
      "inputs": [],
      "name": "bribe",
      "outputs": [],
      "stateMutability": "nonpayable",
      "type": "function"
    },
    {
      "inputs": [],
      "name": "campaignData",
      "outputs": [
        {
          "internalType": "bytes",
          "name": "",
          "type": "bytes"
        }
      ],
      "stateMutability": "view",
      "type": "function"
    },
    {
      "inputs": [],
      "name": "campaignType",
      "outputs": [
        {
          "internalType": "uint32",
          "name": "",
          "type": "uint32"
        }
      ],
      "stateMutability": "view",
      "type": "function"
    },
    {
      "inputs": [],
      "name": "claimGovernance",
      "outputs": [],
      "stateMutability": "nonpayable",
      "type": "function"
    },
    {
      "inputs": [],
      "name": "duration",
      "outputs": [
        {
          "internalType": "uint32",
          "name": "",
          "type": "uint32"
        }
      ],
      "stateMutability": "view",
      "type": "function"
    },
    {
      "inputs": [],
      "name": "factory",
      "outputs": [
        {
          "internalType": "address",
          "name": "",
          "type": "address"
        }
      ],
      "stateMutability": "view",
      "type": "function"
    },
    {
      "inputs": [],
      "name": "getNextPeriodStartTime",
      "outputs": [
        {
          "internalType": "uint32",
          "name": "",
          "type": "uint32"
        }
      ],
      "stateMutability": "view",
      "type": "function"
    },
    {
      "inputs": [],
      "name": "governor",
      "outputs": [
        {
          "internalType": "address",
          "name": "",
          "type": "address"
        }
      ],
      "stateMutability": "view",
      "type": "function"
    },
    {
      "inputs": [
        {
          "internalType": "uint32",
          "name": "_duration",
          "type": "uint32"
        },
        {
          "internalType": "uint32",
          "name": "_campaignType",
          "type": "uint32"
        },
        {
          "internalType": "address",
          "name": "_rewardToken",
          "type": "address"
        },
        {
          "internalType": "address",
          "name": "_merklDistributor",
          "type": "address"
        },
        {
          "internalType": "address",
          "name": "_governor",
          "type": "address"
        },
        {
          "internalType": "address",
          "name": "_strategist",
          "type": "address"
        },
        {
          "internalType": "bytes",
          "name": "_campaignData",
          "type": "bytes"
        }
      ],
      "name": "initialize",
      "outputs": [],
      "stateMutability": "nonpayable",
      "type": "function"
    },
    {
      "inputs": [],
      "name": "isGovernor",
      "outputs": [
        {
          "internalType": "bool",
          "name": "",
          "type": "bool"
        }
      ],
      "stateMutability": "view",
      "type": "function"
    },
    {
      "inputs": [],
      "name": "merklDistributor",
      "outputs": [
        {
          "internalType": "contract IMerklDistributor",
          "name": "",
          "type": "address"
        }
      ],
      "stateMutability": "view",
      "type": "function"
    },
    {
      "inputs": [
        {
          "internalType": "address",
          "name": "token",
          "type": "address"
        },
        {
          "internalType": "address",
          "name": "receiver",
          "type": "address"
        }
      ],
      "name": "rescueToken",
      "outputs": [],
      "stateMutability": "nonpayable",
      "type": "function"
    },
    {
      "inputs": [],
      "name": "rewardToken",
      "outputs": [
        {
          "internalType": "address",
          "name": "",
          "type": "address"
        }
      ],
      "stateMutability": "view",
      "type": "function"
    },
    {
      "inputs": [
        {
          "internalType": "bytes",
          "name": "_campaignData",
          "type": "bytes"
        }
      ],
      "name": "setCampaignData",
      "outputs": [],
      "stateMutability": "nonpayable",
      "type": "function"
    },
    {
      "inputs": [
        {
          "internalType": "uint32",
          "name": "_campaignType",
          "type": "uint32"
        }
      ],
      "name": "setCampaignType",
      "outputs": [],
      "stateMutability": "nonpayable",
      "type": "function"
    },
    {
      "inputs": [
        {
          "internalType": "uint32",
          "name": "_duration",
          "type": "uint32"
        }
      ],
      "name": "setDuration",
      "outputs": [],
      "stateMutability": "nonpayable",
      "type": "function"
    },
    {
      "inputs": [
        {
          "internalType": "address",
          "name": "_merklDistributor",
          "type": "address"
        }
      ],
      "name": "setMerklDistributor",
      "outputs": [],
      "stateMutability": "nonpayable",
      "type": "function"
    },
    {
      "inputs": [
        {
          "internalType": "address",
          "name": "_rewardToken",
          "type": "address"
        }
      ],
      "name": "setRewardToken",
      "outputs": [],
      "stateMutability": "nonpayable",
      "type": "function"
    },
    {
      "inputs": [
        {
          "internalType": "address",
          "name": "_address",
          "type": "address"
        }
      ],
      "name": "setStrategistAddr",
      "outputs": [],
      "stateMutability": "nonpayable",
      "type": "function"
    },
    {
      "inputs": [],
      "name": "strategistAddr",
      "outputs": [
        {
          "internalType": "address",
          "name": "",
          "type": "address"
        }
      ],
      "stateMutability": "view",
      "type": "function"
    },
    {
      "inputs": [
        {
          "internalType": "address",
          "name": "_newGovernor",
          "type": "address"
        }
      ],
      "name": "transferGovernance",
      "outputs": [],
      "stateMutability": "nonpayable",
      "type": "function"
    }
  ],
  "transactionHash": "0xa3bfa4694bed9a05ad1e69f2730380c31de1cec37047f66d3ff4878686cbf502",
  "args": [],
  "numDeployments": 1,
  "solcInputHash": "5af312d996f4da69bb86cb58ee55b3eb",
  "bytecode": "0x6080604052348015600f57600080fd5b50603354610100900460ff16806028575060335460ff16155b608e5760405162461bcd60e51b815260206004820152602e60248201527f496e697469616c697a61626c653a20636f6e747261637420697320616c72656160448201526d191e481a5b9a5d1a585b1a5e995960921b606482015260840160405180910390fd5b603354610100900460ff1615801560af576033805461ffff19166101011790555b801560c0576033805461ff00191690555b50611b49806100d06000396000f3fe608060405234801561001057600080fd5b506004361061014d5760003560e01c80635d36b190116100c3578063c7af33521161007c578063c7af3352146102a6578063d38bfff4146102be578063dbfba959146102d1578063edd5271e146102e4578063f7c618c1146102f9578063ffa1ad741461031357600080fd5b80635d36b1901461023a578063759dadce14610242578063773540b31461025a5780638aee81271461026d5780639732e72014610280578063c45a01551461029357600080fd5b806334bb9c171161011557806334bb9c17146101d757806337d0208c146101df5780633978033f146101e757806340752549146102015780634707d00014610214578063570d8e1d1461022757600080fd5b80630b8a2dfe146101525780630c340a24146101675780630dcefbdc1461018c5780630fb5a6b41461019f5780632fa4abea146101c4575b600080fd5b6101656101603660046115da565b610337565b005b61016f610449565b6040516001600160a01b0390911681526020015b60405180910390f35b61016561019a366004611681565b610466565b6067546101af9063ffffffff1681565b60405163ffffffff9091168152602001610183565b60695461016f906001600160a01b031681565b6101af6104ac565b6101656104d7565b6101f36402540be40081565b604051908152602001610183565b61016561020f3660046116c3565b610898565b6101656102223660046116de565b6108dc565b60005461016f906001600160a01b031681565b610165610a19565b6067546101af90640100000000900463ffffffff1681565b610165610268366004611711565b610abf565b61016561027b366004611711565b610aec565b61016561028e3660046116c3565b610b2d565b60685461016f906001600160a01b031681565b6102ae610b6e565b6040519015158152602001610183565b6101656102cc366004611711565b610b9f565b6101656102df366004611711565b610c43565b6102ec610c84565b604051610183919061177c565b60675461016f90600160401b90046001600160a01b031681565b6102ec604051806040016040528060058152602001640312e302e360dc1b81525081565b603354610100900460ff1680610350575060335460ff16155b6103b85760405162461bcd60e51b815260206004820152602e60248201527f496e697469616c697a61626c653a20636f6e747261637420697320616c72656160448201526d191e481a5b9a5d1a585b1a5e995960921b60648201526084015b60405180910390fd5b603354610100900460ff161580156103da576033805461ffff19166101011790555b6103e389610d12565b6103ec88610dab565b6103f587610e4e565b6103fe86610f03565b61040785611000565b61041084611067565b61041a83836110b5565b606880546001600160a01b03191633179055801561043e576033805461ff00191690555b505050505050505050565b6000610461600080516020611af48339815191525490565b905090565b6000546001600160a01b03163314806104825750610482610b6e565b61049e5760405162461bcd60e51b81526004016103af9061178f565b6104a882826110b5565b5050565b60675460009063ffffffff166104c281426117ed565b6104cd90600161180f565b6104619190611828565b6068546001600160a01b03163314806104f357506104f3610b6e565b8061050857506000546001600160a01b031633145b6105545760405162461bcd60e51b815260206004820152601f60248201527f4e6f7420676f7665726e6f722c20737472617465676973742c2066637472790060448201526064016103af565b606954606754604051630ab35fb160e21b8152600160401b9091046001600160a01b0390811660048301526000921690632acd7ec490602401602060405180830381865afa1580156105aa573d6000803e3d6000fd5b505050506040513d601f19601f820116820180604052508101906105ce919061183f565b9050600081116106205760405162461bcd60e51b815260206004820152601d60248201527f4d696e2072657761726420616d6f756e74206d757374206265203e203000000060448201526064016103af565b6067546040516370a0823160e01b8152306004820152600091600160401b90046001600160a01b0316906370a0823190602401602060405180830381865afa158015610670573d6000803e3d6000fd5b505050506040513d601f19601f82011682018060405250810190610694919061183f565b90506402540be4008110806106c557506067546106b79063ffffffff1683611828565b6106c382610e10611828565b105b156106ce575050565b6069546067546106f2916001600160a01b03600160401b9092048216911683611139565b60695460408051610100810182526000808252546001600160a01b039081166020830152606754600160401b81048216938301939093526060820185905264010000000090920463ffffffff16608082015291169063a63f05ad9060a081016107596104ac565b63ffffffff90811682526067541660208201526066805460409092019161077f90611858565b80601f01602080910402602001604051908101604052809291908181526020018280546107ab90611858565b80156107f85780601f106107cd576101008083540402835291602001916107f8565b820191906000526020600020905b8154815290600101906020018083116107db57829003601f168201915b50505050508152506040518263ffffffff1660e01b815260040161081c9190611892565b6020604051808303816000875af115801561083b573d6000803e3d6000fd5b505050506040513d601f19601f8201168201806040525081019061085f919061183f565b506040518181527f1424c3a24f9b1f30558ab0a7b48e07ce9f7d85b293a69a90356e1478504232eb906020015b60405180910390a15050565b6000546001600160a01b03163314806108b457506108b4610b6e565b6108d05760405162461bcd60e51b81526004016103af9061178f565b6108d981610dab565b50565b6108e4610b6e565b6109005760405162461bcd60e51b81526004016103af9061192b565b6001600160a01b0381166109495760405162461bcd60e51b815260206004820152601060248201526f24b73b30b634b2103932b1b2b4bb32b960811b60448201526064016103af565b6040516370a0823160e01b81523060048201526000906001600160a01b038416906370a0823190602401602060405180830381865afa158015610990573d6000803e3d6000fd5b505050506040513d601f19601f820116820180604052508101906109b4919061183f565b90506109ca6001600160a01b0384168383611286565b604080516001600160a01b0385811682526020820184905284168183015290517ffb475a842bad10d3800b61bd1a92e716051afba979b124b583bd99a2d1d7bfd59181900360600190a1505050565b7f44c4d30b2eaad5130ad70c3ba6972730566f3e6359ab83e800d905c61b1c51db546001600160a01b0316336001600160a01b031614610ab45760405162461bcd60e51b815260206004820152603060248201527f4f6e6c79207468652070656e64696e6720476f7665726e6f722063616e20636f60448201526f6d706c6574652074686520636c61696d60801b60648201526084016103af565b610abd336112b6565b565b610ac7610b6e565b610ae35760405162461bcd60e51b81526004016103af9061192b565b6108d981611067565b6000546001600160a01b0316331480610b085750610b08610b6e565b610b245760405162461bcd60e51b81526004016103af9061178f565b6108d981610e4e565b6000546001600160a01b0316331480610b495750610b49610b6e565b610b655760405162461bcd60e51b81526004016103af9061178f565b6108d981610d12565b6000610b86600080516020611af48339815191525490565b6001600160a01b0316336001600160a01b031614905090565b610ba7610b6e565b610bc35760405162461bcd60e51b81526004016103af9061192b565b610beb817f44c4d30b2eaad5130ad70c3ba6972730566f3e6359ab83e800d905c61b1c51db55565b806001600160a01b0316610c0b600080516020611af48339815191525490565b6001600160a01b03167fa39cc5eb22d0f34d8beaefee8a3f17cc229c1a1d1ef87a5ad47313487b1c4f0d60405160405180910390a350565b6000546001600160a01b0316331480610c5f5750610c5f610b6e565b610c7b5760405162461bcd60e51b81526004016103af9061178f565b6108d981610f03565b60668054610c9190611858565b80601f0160208091040260200160405190810160405280929190818152602001828054610cbd90611858565b8015610d0a5780601f10610cdf57610100808354040283529160200191610d0a565b820191906000526020600020905b815481529060010190602001808311610ced57829003601f168201915b505050505081565b610e108163ffffffff1611610d5c5760405162461bcd60e51b815260206004820152601060248201526f24b73b30b634b210323ab930ba34b7b760811b60448201526064016103af565b6067805463ffffffff191663ffffffff83169081179091556040519081527fa67b967e55d02f04b1be9612dc90ff1f062c213e866e4f6c0b545a19a4f9dc58906020015b60405180910390a150565b60008163ffffffff1611610df85760405162461bcd60e51b8152602060048201526014602482015273496e76616c69642063616d706169676e5479706560601b60448201526064016103af565b6067805467ffffffff00000000191664010000000063ffffffff8416908102919091179091556040519081527f750480d2a1617ef1f9fa661a59228d8402b6753a99382ff39544cf0e9b2575fb90602001610da0565b6001600160a01b038116610ea45760405162461bcd60e51b815260206004820152601b60248201527f496e76616c696420726577617264546f6b656e2061646472657373000000000060448201526064016103af565b6067805468010000000000000000600160e01b031916600160401b6001600160a01b038416908102919091179091556040519081527fa5289ba11778999f4dfb9415023783188d42bbb5db0612cbfbe55999069612a090602001610da0565b6001600160a01b038116610f595760405162461bcd60e51b815260206004820152601d60248201527f496e76616c6964206d65726b6c4469737472696275746f72206164647200000060448201526064016103af565b606980546001600160a01b0319166001600160a01b0383169081179091556040805163063b87bf60e41b815290516363b87bf09160048082019260009290919082900301818387803b158015610fae57600080fd5b505af1158015610fc2573d6000803e3d6000fd5b50506040516001600160a01b03841681527f1a0e4b3bfcac0fa1e13f7c8b088964c6daea7147fa49e39f54db5787518fe9c992506020019050610da0565b806001600160a01b0316611020600080516020611af48339815191525490565b6001600160a01b03167fc7c0c772add429241571afb3805861fb3cfa2af374534088b76cdb4325a87e9a60405160405180910390a3600080516020611af483398151915255565b600080546001600160a01b0319166001600160a01b0383169081179091556040519081527f869e0abd13cc3a975de7b93be3df1cb2255c802b1cead85963cc79d99f131bee90602001610da0565b806110fa5760405162461bcd60e51b8152602060048201526015602482015274496e76616c69642063616d706169676e206461746160581b60448201526064016103af565b60666111078284836119c6565b507f1cf235a2bed09c379154ee828c7805bc81b4f762461e011b99338e0bf7b621f7828260405161088c929190611a86565b8015806111b35750604051636eb1769f60e11b81523060048201526001600160a01b03838116602483015284169063dd62ed3e90604401602060405180830381865afa15801561118d573d6000803e3d6000fd5b505050506040513d601f19601f820116820180604052508101906111b1919061183f565b155b61121e5760405162461bcd60e51b815260206004820152603660248201527f5361666545524332303a20617070726f76652066726f6d206e6f6e2d7a65726f60448201527520746f206e6f6e2d7a65726f20616c6c6f77616e636560501b60648201526084016103af565b6040516001600160a01b03831660248201526044810182905261128190849063095ea7b360e01b906064015b60408051601f198184030181529190526020810180516001600160e01b03166001600160e01b031990931692909217909152611315565b505050565b6040516001600160a01b03831660248201526044810182905261128190849063a9059cbb60e01b9060640161124a565b6001600160a01b03811661130c5760405162461bcd60e51b815260206004820152601a60248201527f4e657720476f7665726e6f72206973206164647265737328302900000000000060448201526064016103af565b6108d981611000565b600061136a826040518060400160405280602081526020017f5361666545524332303a206c6f772d6c6576656c2063616c6c206661696c6564815250856001600160a01b03166113e79092919063ffffffff16565b80519091501561128157808060200190518101906113889190611ab5565b6112815760405162461bcd60e51b815260206004820152602a60248201527f5361666545524332303a204552433230206f7065726174696f6e20646964206e6044820152691bdd081cdd58d8d9595960b21b60648201526084016103af565b60606113f68484600085611400565b90505b9392505050565b6060824710156114615760405162461bcd60e51b815260206004820152602660248201527f416464726573733a20696e73756666696369656e742062616c616e636520666f6044820152651c8818d85b1b60d21b60648201526084016103af565b843b6114af5760405162461bcd60e51b815260206004820152601d60248201527f416464726573733a2063616c6c20746f206e6f6e2d636f6e747261637400000060448201526064016103af565b600080866001600160a01b031685876040516114cb9190611ad7565b60006040518083038185875af1925050503d8060008114611508576040519150601f19603f3d011682016040523d82523d6000602084013e61150d565b606091505b509150915061151d828286611528565b979650505050505050565b606083156115375750816113f9565b8251156115475782518084602001fd5b8160405162461bcd60e51b81526004016103af919061177c565b803563ffffffff8116811461157557600080fd5b919050565b80356001600160a01b038116811461157557600080fd5b60008083601f8401126115a357600080fd5b50813567ffffffffffffffff8111156115bb57600080fd5b6020830191508360208285010111156115d357600080fd5b9250929050565b60008060008060008060008060e0898b0312156115f657600080fd5b6115ff89611561565b975061160d60208a01611561565b965061161b60408a0161157a565b955061162960608a0161157a565b945061163760808a0161157a565b935061164560a08a0161157a565b925060c089013567ffffffffffffffff81111561166157600080fd5b61166d8b828c01611591565b999c989b5096995094979396929594505050565b6000806020838503121561169457600080fd5b823567ffffffffffffffff8111156116ab57600080fd5b6116b785828601611591565b90969095509350505050565b6000602082840312156116d557600080fd5b6113f982611561565b600080604083850312156116f157600080fd5b6116fa8361157a565b91506117086020840161157a565b90509250929050565b60006020828403121561172357600080fd5b6113f98261157a565b60005b8381101561174757818101518382015260200161172f565b50506000910152565b6000815180845261176881602086016020860161172c565b601f01601f19169290920160200192915050565b6020815260006113f96020830184611750565b60208082526028908201527f43616c6c6572206973206e6f74207468652053747261746567697374206f722060408201526723b7bb32b93737b960c11b606082015260800190565b634e487b7160e01b600052601160045260246000fd5b60008261180a57634e487b7160e01b600052601260045260246000fd5b500490565b80820180821115611822576118226117d7565b92915050565b8082028115828204841417611822576118226117d7565b60006020828403121561185157600080fd5b5051919050565b600181811c9082168061186c57607f821691505b60208210810361188c57634e487b7160e01b600052602260045260246000fd5b50919050565b602081528151602082015260018060a01b03602083015116604082015260018060a01b03604083015116606082015260608201516080820152600060808301516118e460a084018263ffffffff169052565b5060a083015163ffffffff811660c08401525060c083015163ffffffff811660e08401525060e083015161010080840152611923610120840182611750565b949350505050565b6020808252601a908201527f43616c6c6572206973206e6f742074686520476f7665726e6f72000000000000604082015260600190565b634e487b7160e01b600052604160045260246000fd5b601f82111561128157806000526020600020601f840160051c8101602085101561199f5750805b601f840160051c820191505b818110156119bf57600081556001016119ab565b5050505050565b67ffffffffffffffff8311156119de576119de611962565b6119f2836119ec8354611858565b83611978565b6000601f841160018114611a265760008515611a0e5750838201355b600019600387901b1c1916600186901b1783556119bf565b600083815260209020601f19861690835b82811015611a575786850135825560209485019460019092019101611a37565b5086821015611a745760001960f88860031b161c19848701351681555b505060018560011b0183555050505050565b60208152816020820152818360408301376000818301604090810191909152601f909201601f19160101919050565b600060208284031215611ac757600080fd5b815180151581146113f957600080fd5b60008251611ae981846020870161172c565b919091019291505056fe7bea13895fa79d2831e0a9e28edede30099005a50d652d8957cf8a607ee6ca4aa2646970667358221220426c0ac14d14a4ba9e8bd47c81c2469953f788a88bfdd0697e473dfe2e8cf29864736f6c634300081c0033",
  "libraries": {},
  "devdoc": {
    "author": "Origin Protocol",
    "kind": "dev",
    "methods": {
      "bribe()": {
        "details": "Skips silently if balance is below MIN_BRIBE_AMOUNT or insufficient for the duration"
      },
      "constructor": {
        "details": "Lock the implementation contract against initialization"
      },
      "getNextPeriodStartTime()": {
        "returns": {
          "_0": "The next period start timestamp as uint32"
        }
      },
      "initialize(uint32,uint32,address,address,address,address,bytes)": {
        "params": {
          "_campaignData": "Encoded campaign data passed to the Merkl distributor",
          "_campaignType": "Type identifier for the Merkl campaign",
          "_duration": "Duration of each campaign period",
          "_governor": "Address of the governor",
          "_merklDistributor": "Address of the Merkl distributor contract",
          "_rewardToken": "Address of the reward token",
          "_strategist": "Address of the strategist"
        }
      },
      "rescueToken(address,address)": {
        "details": "Only callable by the governor",
        "params": {
          "receiver": "Address to receive the tokens",
          "token": "Address of the token to rescue"
        }
      },
      "setCampaignData(bytes)": {
        "params": {
          "_campaignData": "New campaign data"
        }
      },
      "setCampaignType(uint32)": {
        "params": {
          "_campaignType": "New campaign type"
        }
      },
      "setDuration(uint32)": {
        "params": {
          "_duration": "New duration"
        }
      },
      "setMerklDistributor(address)": {
        "params": {
          "_merklDistributor": "New Merkl distributor address"
        }
      },
      "setRewardToken(address)": {
        "params": {
          "_rewardToken": "New reward token address"
        }
      },
      "setStrategistAddr(address)": {
        "details": "Set address of Strategist",
        "params": {
          "_address": "Address of Strategist"
        }
      },
      "transferGovernance(address)": {
        "params": {
          "_newGovernor": "Address of the new Governor"
        }
      }
    },
    "title": "PoolBoosterMerklV2",
    "version": 1
  },
  "userdoc": {
    "events": {
      "CampaignDataUpdated(bytes)": {
        "notice": "--- EVENTS"
      }
    },
    "kind": "user",
    "methods": {
      "MIN_BRIBE_AMOUNT()": {
        "notice": "Minimum bribe amount to execute a bribe"
      },
      "VERSION()": {
        "notice": "Contract version"
      },
      "bribe()": {
        "notice": "Execute a bribe by creating a campaign on the Merkl distributor"
      },
      "campaignData()": {
        "notice": "Encoded campaign data passed to the Merkl distributor"
      },
      "campaignType()": {
        "notice": "Type identifier for the Merkl campaign"
      },
      "claimGovernance()": {
        "notice": "Claim Governance of the contract to a new account (`newGovernor`). Can only be called by the new Governor."
      },
      "duration()": {
        "notice": "Duration of each campaign period in seconds"
      },
      "factory()": {
        "notice": "Address of the factory that created this pool booster"
      },
      "getNextPeriodStartTime()": {
        "notice": "Returns the timestamp for the start of the next period based on the configured duration"
      },
      "governor()": {
        "notice": "Returns the address of the current Governor."
      },
      "initialize(uint32,uint32,address,address,address,address,bytes)": {
        "notice": "Initialize the contract with campaign parameters and governance"
      },
      "isGovernor()": {
        "notice": "Returns true if the caller is the current Governor."
      },
      "merklDistributor()": {
        "notice": "Merkl distributor contract used to create campaigns"
      },
      "rescueToken(address,address)": {
        "notice": "Rescue ERC20 tokens from the contract"
      },
      "rewardToken()": {
        "notice": "Address of the reward token used for bribes"
      },
      "setCampaignData(bytes)": {
        "notice": "Set the campaign data"
      },
      "setCampaignType(uint32)": {
        "notice": "Set the campaign type"
      },
      "setDuration(uint32)": {
        "notice": "Set the duration"
      },
      "setMerklDistributor(address)": {
        "notice": "Set the Merkl distributor"
      },
      "setRewardToken(address)": {
        "notice": "Set the reward token"
      },
      "transferGovernance(address)": {
        "notice": "Transfers Governance of the contract to a new account (`newGovernor`). Can only be called by the current Governor. Must be claimed for this to complete"
      }
    },
    "notice": "Pool booster that creates campaigns on the Merkl distributor to incentivize liquidity.",
    "version": 1
  },
  "storageLayout": {
    "storage": [
      {
        "astId": 18872,
        "contract": "contracts/poolBooster/PoolBoosterMerklV2.sol:PoolBoosterMerklV2",
        "label": "strategistAddr",
        "offset": 0,
        "slot": "0",
        "type": "t_address"
      },
      {
        "astId": 18876,
        "contract": "contracts/poolBooster/PoolBoosterMerklV2.sol:PoolBoosterMerklV2",
        "label": "__gap",
        "offset": 0,
        "slot": "1",
        "type": "t_array(t_uint256)50_storage"
      },
      {
        "astId": 61372,
        "contract": "contracts/poolBooster/PoolBoosterMerklV2.sol:PoolBoosterMerklV2",
        "label": "initialized",
        "offset": 0,
        "slot": "51",
        "type": "t_bool"
      },
      {
        "astId": 61375,
        "contract": "contracts/poolBooster/PoolBoosterMerklV2.sol:PoolBoosterMerklV2",
        "label": "initializing",
        "offset": 1,
        "slot": "51",
        "type": "t_bool"
      },
      {
        "astId": 61415,
        "contract": "contracts/poolBooster/PoolBoosterMerklV2.sol:PoolBoosterMerklV2",
        "label": "______gap",
        "offset": 0,
        "slot": "52",
        "type": "t_array(t_uint256)50_storage"
      },
      {
        "astId": 37511,
        "contract": "contracts/poolBooster/PoolBoosterMerklV2.sol:PoolBoosterMerklV2",
        "label": "campaignData",
        "offset": 0,
        "slot": "102",
        "type": "t_bytes_storage"
      },
      {
        "astId": 37514,
        "contract": "contracts/poolBooster/PoolBoosterMerklV2.sol:PoolBoosterMerklV2",
        "label": "duration",
        "offset": 0,
        "slot": "103",
        "type": "t_uint32"
      },
      {
        "astId": 37517,
        "contract": "contracts/poolBooster/PoolBoosterMerklV2.sol:PoolBoosterMerklV2",
        "label": "campaignType",
        "offset": 4,
        "slot": "103",
        "type": "t_uint32"
      },
      {
        "astId": 37520,
        "contract": "contracts/poolBooster/PoolBoosterMerklV2.sol:PoolBoosterMerklV2",
        "label": "rewardToken",
        "offset": 8,
        "slot": "103",
        "type": "t_address"
      },
      {
        "astId": 37523,
        "contract": "contracts/poolBooster/PoolBoosterMerklV2.sol:PoolBoosterMerklV2",
        "label": "factory",
        "offset": 0,
        "slot": "104",
        "type": "t_address"
      },
      {
        "astId": 37527,
        "contract": "contracts/poolBooster/PoolBoosterMerklV2.sol:PoolBoosterMerklV2",
        "label": "merklDistributor",
        "offset": 0,
        "slot": "105",
        "type": "t_contract(IMerklDistributor)28248"
      },
      {
        "astId": 37532,
        "contract": "contracts/poolBooster/PoolBoosterMerklV2.sol:PoolBoosterMerklV2",
        "label": "__gap",
        "offset": 0,
        "slot": "106",
        "type": "t_array(t_uint256)50_storage"
      }
    ],
    "types": {
      "t_address": {
        "encoding": "inplace",
        "label": "address",
        "numberOfBytes": "20"
      },
      "t_array(t_uint256)50_storage": {
        "base": "t_uint256",
        "encoding": "inplace",
        "label": "uint256[50]",
        "numberOfBytes": "1600"
      },
      "t_bool": {
        "encoding": "inplace",
        "label": "bool",
        "numberOfBytes": "1"
      },
      "t_bytes_storage": {
        "encoding": "bytes",
        "label": "bytes",
        "numberOfBytes": "32"
      },
      "t_contract(IMerklDistributor)28248": {
        "encoding": "inplace",
        "label": "contract IMerklDistributor",
        "numberOfBytes": "20"
      },
      "t_uint256": {
        "encoding": "inplace",
        "label": "uint256",
        "numberOfBytes": "32"
      },
      "t_uint32": {
        "encoding": "inplace",
        "label": "uint32",
        "numberOfBytes": "4"
      }
    }
  }
}