{
  "address": "0xcD0fcF8a31Bc78ec07752e9CCD3960E936D18366",
  "abi": [
    {
      "inputs": [],
      "name": "SWAP_ROUTER",
      "outputs": [
        {
          "internalType": "address",
          "name": "",
          "type": "address"
        }
      ],
      "stateMutability": "view",
      "type": "function"
    },
    {
      "inputs": [
        {
          "internalType": "address[]",
          "name": "_assets",
          "type": "address[]"
        }
      ],
      "name": "approveAssets",
      "outputs": [],
      "stateMutability": "nonpayable",
      "type": "function"
    },
    {
      "inputs": [
        {
          "internalType": "address",
          "name": "_fromAsset",
          "type": "address"
        },
        {
          "internalType": "address",
          "name": "_toAsset",
          "type": "address"
        },
        {
          "internalType": "uint256",
          "name": "_fromAssetAmount",
          "type": "uint256"
        },
        {
          "internalType": "uint256",
          "name": "_minToAssetAmount",
          "type": "uint256"
        },
        {
          "internalType": "bytes",
          "name": "_data",
          "type": "bytes"
        }
      ],
      "name": "swap",
      "outputs": [
        {
          "internalType": "uint256",
          "name": "toAssetAmount",
          "type": "uint256"
        }
      ],
      "stateMutability": "nonpayable",
      "type": "function"
    }
  ],
  "transactionHash": "0xb3b5e13a39b0362e194ae23e041f08281e94eb6534a7baa6d922fde0978ddec8",
  "args": [],
  "solcInputHash": "5f84276316dac9ef7adb55812616a542",
  "bytecode": "0x608060405234801561001057600080fd5b50610f5c806100206000396000f3fe608060405234801561001057600080fd5b50600436106100415760003560e01c80632506c018146100465780633b6b0e1d1461006c578063c600589314610081575b600080fd5b610059610054366004610938565b6100b4565b6040519081526020015b60405180910390f35b61007f61007a3660046109e2565b610517565b005b61009c731111111254eeb25477b68fb85ed929f73a96058281565b6040516001600160a01b039091168152602001610063565b6040516370a0823160e01b815230600482015260009085906001600160a01b038916906370a082319060240160206040518083038186803b1580156100f857600080fd5b505afa15801561010c573d6000803e3d6000fd5b505050506040513d601f19601f820116820180604052508101906101309190610c0d565b101561017a5760405162461bcd60e51b8152602060048201526014602482015273496e73756666696369656e742062616c616e636560601b60448201526064015b60405180910390fd5b604051636eb1769f60e11b8152306004820152731111111254eeb25477b68fb85ed929f73a960582602482015285906001600160a01b0389169063dd62ed3e9060440160206040518083038186803b1580156101d557600080fd5b505afa1580156101e9573d6000803e3d6000fd5b505050506040513d601f19601f8201168201806040525081019061020d9190610c0d565b10156102545760405162461bcd60e51b8152602060048201526016602482015275496e73756666696369656e7420616c6c6f77616e636560501b6044820152606401610171565b60006102636004828587610e2f565b61026c91610e59565b90506001600160e01b031981166312aa3caf60e01b14156103985760008061029685870187610aaa565b925092505060006040518060e001604052808c6001600160a01b031681526020018b6001600160a01b03168152602001846001600160a01b03168152602001336001600160a01b031681526020018a815260200189815260200160048152509050731111111254eeb25477b68fb85ed929f73a9605826001600160a01b03166312aa3caf8483856040518463ffffffff1660e01b815260040161033b93929190610d3e565b6040805180830381600087803b15801561035457600080fd5b505af1158015610368573d6000803e3d6000fd5b505050506040513d601f19601f8201168201806040525081019061038c9190610c26565b50945061050c92505050565b6001600160e01b0319811663f78dc25360e01b141561045c5760006103bf84860186610b62565b60405163f78dc25360e01b8152909250731111111254eeb25477b68fb85ed929f73a960582915063f78dc253906104029033908d908c908c908890600401610ccd565b602060405180830381600087803b15801561041c57600080fd5b505af1158015610430573d6000803e3d6000fd5b505050506040513d601f19601f820116820180604052508101906104549190610c0d565b92505061050c565b6001600160e01b031981166317901e3560e31b14156104c457600061048384860186610b62565b6040516317901e3560e31b8152909250731111111254eeb25477b68fb85ed929f73a960582915063bc80f1a8906104029033908b908b908790600401610d07565b60405162461bcd60e51b815260206004820152601960248201527f556e737570706f7274656420737761702066756e6374696f6e000000000000006044820152606401610171565b509695505050505050565b60005b815181101561058057610570731111111254eeb25477b68fb85ed929f73a96058260001984848151811061055057610550610ee2565b60200260200101516001600160a01b03166105849092919063ffffffff16565b61057981610eb9565b905061051a565b5050565b80158061060d5750604051636eb1769f60e11b81523060048201526001600160a01b03838116602483015284169063dd62ed3e9060440160206040518083038186803b1580156105d357600080fd5b505afa1580156105e7573d6000803e3d6000fd5b505050506040513d601f19601f8201168201806040525081019061060b9190610c0d565b155b6106785760405162461bcd60e51b815260206004820152603660248201527f5361666545524332303a20617070726f76652066726f6d206e6f6e2d7a65726f60448201527520746f206e6f6e2d7a65726f20616c6c6f77616e636560501b6064820152608401610171565b604080516001600160a01b038416602482015260448082018490528251808303909101815260649091019091526020810180516001600160e01b031663095ea7b360e01b1790526106ca9084906106cf565b505050565b6000610724826040518060400160405280602081526020017f5361666545524332303a206c6f772d6c6576656c2063616c6c206661696c6564815250856001600160a01b03166107a19092919063ffffffff16565b8051909150156106ca57808060200190518101906107429190610a88565b6106ca5760405162461bcd60e51b815260206004820152602a60248201527f5361666545524332303a204552433230206f7065726174696f6e20646964206e6044820152691bdd081cdd58d8d9595960b21b6064820152608401610171565b60606107b084846000856107ba565b90505b9392505050565b60608247101561081b5760405162461bcd60e51b815260206004820152602660248201527f416464726573733a20696e73756666696369656e742062616c616e636520666f6044820152651c8818d85b1b60d21b6064820152608401610171565b843b6108695760405162461bcd60e51b815260206004820152601d60248201527f416464726573733a2063616c6c20746f206e6f6e2d636f6e74726163740000006044820152606401610171565b600080866001600160a01b031685876040516108859190610cb1565b60006040518083038185875af1925050503d80600081146108c2576040519150601f19603f3d011682016040523d82523d6000602084013e6108c7565b606091505b50915091506108d78282866108e2565b979650505050505050565b606083156108f15750816107b3565b8251156109015782518084602001fd5b8160405162461bcd60e51b81526004016101719190610dc7565b80356001600160e01b03198116811461093357600080fd5b919050565b60008060008060008060a0878903121561095157600080fd5b863561095c81610f0e565b9550602087013561096c81610f0e565b94506040870135935060608701359250608087013567ffffffffffffffff8082111561099757600080fd5b818901915089601f8301126109ab57600080fd5b8135818111156109ba57600080fd5b8a60208285010111156109cc57600080fd5b6020830194508093505050509295509295509295565b600060208083850312156109f557600080fd5b823567ffffffffffffffff811115610a0c57600080fd5b8301601f81018513610a1d57600080fd5b8035610a30610a2b82610e0b565b610dda565b80828252848201915084840188868560051b8701011115610a5057600080fd5b600094505b83851015610a7c578035610a6881610f0e565b835260019490940193918501918501610a55565b50979650505050505050565b600060208284031215610a9a57600080fd5b815180151581146107b357600080fd5b600080600060608486031215610abf57600080fd5b610ac88461091b565b9250602080850135610ad981610f0e565b9250604085013567ffffffffffffffff80821115610af657600080fd5b818701915087601f830112610b0a57600080fd5b813581811115610b1c57610b1c610ef8565b610b2e601f8201601f19168501610dda565b91508082528884828501011115610b4457600080fd5b80848401858401376000848284010152508093505050509250925092565b60008060408385031215610b7557600080fd5b610b7e8361091b565b915060208084013567ffffffffffffffff811115610b9b57600080fd5b8401601f81018613610bac57600080fd5b8035610bba610a2b82610e0b565b80828252848201915084840189868560051b8701011115610bda57600080fd5b600094505b83851015610bfd578035835260019490940193918501918501610bdf565b5080955050505050509250929050565b600060208284031215610c1f57600080fd5b5051919050565b60008060408385031215610c3957600080fd5b505080516020909101519092909150565b600081518084526020808501945080840160005b83811015610c7a57815187529582019590820190600101610c5e565b509495945050505050565b60008151808452610c9d816020860160208601610e89565b601f01601f19169290920160200192915050565b60008251610cc3818460208701610e89565b9190910192915050565b6001600160a01b03868116825285166020820152604081018490526060810183905260a0608082018190526000906108d790830184610c4a565b60018060a01b0385168152836020820152826040820152608060608201526000610d346080830184610c4a565b9695505050505050565b600061014060018060a01b03808716845280865116602085015280602087015116604085015280604087015116606085015280606087015116608085015250608085015160a084015260a085015160c084015260c085015160e084015280610100840152610db28184016000815260200190565b9050828103610120840152610d348185610c85565b6020815260006107b36020830184610c85565b604051601f8201601f1916810167ffffffffffffffff81118282101715610e0357610e03610ef8565b604052919050565b600067ffffffffffffffff821115610e2557610e25610ef8565b5060051b60200190565b60008085851115610e3f57600080fd5b83861115610e4c57600080fd5b5050820193919092039150565b6001600160e01b03198135818116916004851015610e815780818660040360031b1b83161692505b505092915050565b60005b83811015610ea4578181015183820152602001610e8c565b83811115610eb3576000848401525b50505050565b6000600019821415610edb57634e487b7160e01b600052601160045260246000fd5b5060010190565b634e487b7160e01b600052603260045260246000fd5b634e487b7160e01b600052604160045260246000fd5b6001600160a01b0381168114610f2357600080fd5b5056fea264697066735822122095b9e54f84024de18180156be3fd725fe6fb08d0a770a4b862e31355f6e49a3f64736f6c63430008070033",
  "devdoc": {
    "kind": "dev",
    "methods": {
      "swap(address,address,uint256,uint256,bytes)": {
        "params": {
          "_data": "RLP encoded executer address and bytes data. This is re-encoded tx.data from 1Inch swap API",
          "_fromAsset": "The token address of the asset being sold by the vault.",
          "_fromAssetAmount": "The amount of assets being sold by the vault.",
          "_minToAssetAmount": "The minimum amount of assets to be purchased.",
          "_toAsset": "The token address of the asset being purchased by the vault."
        }
      }
    },
    "version": 1
  },
  "userdoc": {
    "kind": "user",
    "methods": {
      "SWAP_ROUTER()": {
        "notice": "1Inch router contract to give allowance to perform swaps"
      },
      "swap(address,address,uint256,uint256,bytes)": {
        "notice": "Strategist swaps assets sitting in the contract of the `assetHolder`."
      }
    },
    "version": 1
  },
  "storageLayout": {
    "storage": [],
    "types": null
  }
}