{
  "address": "0x874c74E6ec318AD0a7e6f23301678a4751d00482",
  "abi": [
    {
      "constant": false,
      "inputs": [],
      "name": "collectRewardToken",
      "outputs": [],
      "payable": false,
      "stateMutability": "nonpayable",
      "type": "function"
    },
    {
      "constant": true,
      "inputs": [],
      "name": "governor",
      "outputs": [
        {
          "internalType": "address",
          "name": "",
          "type": "address"
        }
      ],
      "payable": false,
      "stateMutability": "view",
      "type": "function"
    },
    {
      "constant": false,
      "inputs": [
        {
          "internalType": "address",
          "name": "_asset",
          "type": "address"
        },
        {
          "internalType": "address",
          "name": "_pToken",
          "type": "address"
        }
      ],
      "name": "setPTokenAddress",
      "outputs": [],
      "payable": false,
      "stateMutability": "nonpayable",
      "type": "function"
    },
    {
      "constant": true,
      "inputs": [
        {
          "internalType": "address",
          "name": "",
          "type": "address"
        }
      ],
      "name": "assetToPToken",
      "outputs": [
        {
          "internalType": "address",
          "name": "",
          "type": "address"
        }
      ],
      "payable": false,
      "stateMutability": "view",
      "type": "function"
    },
    {
      "constant": false,
      "inputs": [
        {
          "internalType": "address",
          "name": "_asset",
          "type": "address"
        },
        {
          "internalType": "uint256",
          "name": "_amount",
          "type": "uint256"
        }
      ],
      "name": "transferToken",
      "outputs": [],
      "payable": false,
      "stateMutability": "nonpayable",
      "type": "function"
    },
    {
      "constant": true,
      "inputs": [],
      "name": "rewardTokenAddress",
      "outputs": [
        {
          "internalType": "address",
          "name": "",
          "type": "address"
        }
      ],
      "payable": false,
      "stateMutability": "view",
      "type": "function"
    },
    {
      "constant": true,
      "inputs": [],
      "name": "vaultAddress",
      "outputs": [
        {
          "internalType": "address",
          "name": "",
          "type": "address"
        }
      ],
      "payable": false,
      "stateMutability": "view",
      "type": "function"
    },
    {
      "constant": false,
      "inputs": [
        {
          "internalType": "address",
          "name": "_asset",
          "type": "address"
        },
        {
          "internalType": "uint256",
          "name": "_amount",
          "type": "uint256"
        }
      ],
      "name": "deposit",
      "outputs": [],
      "payable": false,
      "stateMutability": "nonpayable",
      "type": "function"
    },
    {
      "constant": true,
      "inputs": [],
      "name": "rewardLiquidationThreshold",
      "outputs": [
        {
          "internalType": "uint256",
          "name": "",
          "type": "uint256"
        }
      ],
      "payable": false,
      "stateMutability": "view",
      "type": "function"
    },
    {
      "constant": false,
      "inputs": [],
      "name": "claimGovernance",
      "outputs": [],
      "payable": false,
      "stateMutability": "nonpayable",
      "type": "function"
    },
    {
      "constant": true,
      "inputs": [
        {
          "internalType": "address",
          "name": "_asset",
          "type": "address"
        }
      ],
      "name": "checkBalance",
      "outputs": [
        {
          "internalType": "uint256",
          "name": "balance",
          "type": "uint256"
        }
      ],
      "payable": false,
      "stateMutability": "view",
      "type": "function"
    },
    {
      "constant": false,
      "inputs": [
        {
          "internalType": "address",
          "name": "_platformAddress",
          "type": "address"
        },
        {
          "internalType": "address",
          "name": "_vaultAddress",
          "type": "address"
        },
        {
          "internalType": "address",
          "name": "_rewardTokenAddress",
          "type": "address"
        },
        {
          "internalType": "address[]",
          "name": "_assets",
          "type": "address[]"
        },
        {
          "internalType": "address[]",
          "name": "_pTokens",
          "type": "address[]"
        }
      ],
      "name": "initialize",
      "outputs": [],
      "payable": false,
      "stateMutability": "nonpayable",
      "type": "function"
    },
    {
      "constant": false,
      "inputs": [],
      "name": "withdrawAll",
      "outputs": [],
      "payable": false,
      "stateMutability": "nonpayable",
      "type": "function"
    },
    {
      "constant": false,
      "inputs": [
        {
          "internalType": "uint256",
          "name": "_assetIndex",
          "type": "uint256"
        }
      ],
      "name": "removePToken",
      "outputs": [],
      "payable": false,
      "stateMutability": "nonpayable",
      "type": "function"
    },
    {
      "constant": false,
      "inputs": [
        {
          "internalType": "address",
          "name": "_rewardTokenAddress",
          "type": "address"
        }
      ],
      "name": "setRewardTokenAddress",
      "outputs": [],
      "payable": false,
      "stateMutability": "nonpayable",
      "type": "function"
    },
    {
      "constant": true,
      "inputs": [
        {
          "internalType": "address",
          "name": "_asset",
          "type": "address"
        }
      ],
      "name": "supportsAsset",
      "outputs": [
        {
          "internalType": "bool",
          "name": "",
          "type": "bool"
        }
      ],
      "payable": false,
      "stateMutability": "view",
      "type": "function"
    },
    {
      "constant": false,
      "inputs": [],
      "name": "safeApproveAllTokens",
      "outputs": [],
      "payable": false,
      "stateMutability": "nonpayable",
      "type": "function"
    },
    {
      "constant": true,
      "inputs": [],
      "name": "isGovernor",
      "outputs": [
        {
          "internalType": "bool",
          "name": "",
          "type": "bool"
        }
      ],
      "payable": false,
      "stateMutability": "view",
      "type": "function"
    },
    {
      "constant": false,
      "inputs": [
        {
          "internalType": "uint256",
          "name": "_threshold",
          "type": "uint256"
        }
      ],
      "name": "setRewardLiquidationThreshold",
      "outputs": [],
      "payable": false,
      "stateMutability": "nonpayable",
      "type": "function"
    },
    {
      "constant": false,
      "inputs": [
        {
          "internalType": "address",
          "name": "_newGovernor",
          "type": "address"
        }
      ],
      "name": "transferGovernance",
      "outputs": [],
      "payable": false,
      "stateMutability": "nonpayable",
      "type": "function"
    },
    {
      "constant": false,
      "inputs": [
        {
          "internalType": "address",
          "name": "_recipient",
          "type": "address"
        },
        {
          "internalType": "address",
          "name": "_asset",
          "type": "address"
        },
        {
          "internalType": "uint256",
          "name": "_amount",
          "type": "uint256"
        }
      ],
      "name": "withdraw",
      "outputs": [],
      "payable": false,
      "stateMutability": "nonpayable",
      "type": "function"
    },
    {
      "constant": true,
      "inputs": [],
      "name": "platformAddress",
      "outputs": [
        {
          "internalType": "address",
          "name": "",
          "type": "address"
        }
      ],
      "payable": false,
      "stateMutability": "view",
      "type": "function"
    },
    {
      "constant": false,
      "inputs": [],
      "name": "depositAll",
      "outputs": [],
      "payable": false,
      "stateMutability": "nonpayable",
      "type": "function"
    },
    {
      "constant": false,
      "inputs": [
        {
          "internalType": "address",
          "name": "_platformAddress",
          "type": "address"
        },
        {
          "internalType": "address",
          "name": "_vaultAddress",
          "type": "address"
        },
        {
          "internalType": "address",
          "name": "_rewardTokenAddress",
          "type": "address"
        },
        {
          "internalType": "address[]",
          "name": "_assets",
          "type": "address[]"
        },
        {
          "internalType": "address[]",
          "name": "_pTokens",
          "type": "address[]"
        },
        {
          "internalType": "address",
          "name": "_crvGaugeAddress",
          "type": "address"
        },
        {
          "internalType": "address",
          "name": "_crvMinterAddress",
          "type": "address"
        }
      ],
      "name": "initialize",
      "outputs": [],
      "payable": false,
      "stateMutability": "nonpayable",
      "type": "function"
    },
    {
      "anonymous": false,
      "inputs": [
        {
          "indexed": false,
          "internalType": "address",
          "name": "recipient",
          "type": "address"
        },
        {
          "indexed": false,
          "internalType": "uint256",
          "name": "amount",
          "type": "uint256"
        }
      ],
      "name": "RewardTokenCollected",
      "type": "event"
    },
    {
      "anonymous": false,
      "inputs": [
        {
          "indexed": true,
          "internalType": "address",
          "name": "_asset",
          "type": "address"
        },
        {
          "indexed": false,
          "internalType": "address",
          "name": "_pToken",
          "type": "address"
        }
      ],
      "name": "PTokenAdded",
      "type": "event"
    },
    {
      "anonymous": false,
      "inputs": [
        {
          "indexed": true,
          "internalType": "address",
          "name": "_asset",
          "type": "address"
        },
        {
          "indexed": false,
          "internalType": "address",
          "name": "_pToken",
          "type": "address"
        }
      ],
      "name": "PTokenRemoved",
      "type": "event"
    },
    {
      "anonymous": false,
      "inputs": [
        {
          "indexed": true,
          "internalType": "address",
          "name": "_asset",
          "type": "address"
        },
        {
          "indexed": false,
          "internalType": "address",
          "name": "_pToken",
          "type": "address"
        },
        {
          "indexed": false,
          "internalType": "uint256",
          "name": "_amount",
          "type": "uint256"
        }
      ],
      "name": "Deposit",
      "type": "event"
    },
    {
      "anonymous": false,
      "inputs": [
        {
          "indexed": true,
          "internalType": "address",
          "name": "_asset",
          "type": "address"
        },
        {
          "indexed": false,
          "internalType": "address",
          "name": "_pToken",
          "type": "address"
        },
        {
          "indexed": false,
          "internalType": "uint256",
          "name": "_amount",
          "type": "uint256"
        }
      ],
      "name": "Withdrawal",
      "type": "event"
    },
    {
      "anonymous": false,
      "inputs": [
        {
          "indexed": true,
          "internalType": "address",
          "name": "previousGovernor",
          "type": "address"
        },
        {
          "indexed": true,
          "internalType": "address",
          "name": "newGovernor",
          "type": "address"
        }
      ],
      "name": "PendingGovernorshipTransfer",
      "type": "event"
    },
    {
      "anonymous": false,
      "inputs": [
        {
          "indexed": true,
          "internalType": "address",
          "name": "previousGovernor",
          "type": "address"
        },
        {
          "indexed": true,
          "internalType": "address",
          "name": "newGovernor",
          "type": "address"
        }
      ],
      "name": "GovernorshipTransferred",
      "type": "event"
    }
  ],
  "transactionHash": "0xbfd35c792a90363f7e49da55da6e27e7589888078ea358d7831ba4a739c474fc",
  "args": [],
  "solcInputHash": "73204ccbbda88063af53d0f430a5ab39",
  "bytecode": "0x608060405262000018336001600160e01b036200007116565b6200002b6001600160e01b036200008416565b6001600160a01b031660006001600160a01b03167fc7c0c772add429241571afb3805861fb3cfa2af374534088b76cdb4325a87e9a60405160405180910390a362000098565b6000805160206200320783398151915255565b600080516020620032078339815191525490565b61315f80620000a86000396000f3fe608060405234801561001057600080fd5b50600436106101585760003560e01c8063853828b6116100c3578063cd3b02121161007c578063cd3b021214610403578063d38bfff414610420578063d9caed1214610446578063dbe55e561461047c578063de5f626814610484578063ee01555d1461048c57610158565b8063853828b61461036e5780639136616a146103765780639a6acf2014610393578063aa388af6146103b9578063ad1728cb146103f3578063c7af3352146103fb57610158565b8063430bf08a11610115578063430bf08a1461021357806347e7ef241461021b5780635653b414146102475780635d36b190146102615780635f51522614610269578063790fcf9f1461028f57610158565b80630242241d1461015d5780630c340a24146101675780630ed57b3a1461018b5780630fc3b4c4146101b95780631072cbea146101df578063125f9e331461020b575b600080fd5b61016561057c565b005b61016f61078e565b604080516001600160a01b039092168252519081900360200190f35b610165600480360360408110156101a157600080fd5b506001600160a01b038135811691602001351661079d565b61016f600480360360208110156101cf57600080fd5b50356001600160a01b03166107f2565b610165600480360360408110156101f557600080fd5b506001600160a01b03813516906020013561080d565b61016f610876565b61016f610885565b6101656004803603604081101561023157600080fd5b506001600160a01b038135169060200135610894565b61024f610c6b565b60408051918252519081900360200190f35b610165610c71565b61024f6004803603602081101561027f57600080fd5b50356001600160a01b0316610cd3565b610165600480360360a08110156102a557600080fd5b6001600160a01b0382358116926020810135821692604082013590921691810190608081016060820135600160201b8111156102e057600080fd5b8201836020820111156102f257600080fd5b803590602001918460208302840111600160201b8311171561031357600080fd5b919390929091602081019035600160201b81111561033057600080fd5b82018360208201111561034257600080fd5b803590602001918460208302840111600160201b8311171561036357600080fd5b509092509050610e89565b610165610fe9565b6101656004803603602081101561038c57600080fd5b5035611390565b610165600480360360208110156103a957600080fd5b50356001600160a01b031661155b565b6103df600480360360208110156103cf57600080fd5b50356001600160a01b03166115c4565b604080519115158252519081900360200190f35b6101656115e7565b6103df61166e565b6101656004803603602081101561041957600080fd5b5035611691565b6101656004803603602081101561043657600080fd5b50356001600160a01b03166116dd565b6101656004803603606081101561045c57600080fd5b506001600160a01b03813581169160208101359091169060400135611777565b61016f611c36565b610165611c45565b610165600480360360e08110156104a257600080fd5b6001600160a01b0382358116926020810135821692604082013590921691810190608081016060820135600160201b8111156104dd57600080fd5b8201836020820111156104ef57600080fd5b803590602001918460208302840111600160201b8311171561051057600080fd5b919390929091602081019035600160201b81111561052d57600080fd5b82018360208201111561053f57600080fd5b803590602001918460208302840111600160201b8311171561056057600080fd5b91935091506001600160a01b03813581169160200135166120be565b6034546001600160a01b031633146105d5576040805162461bcd60e51b815260206004820152601760248201527610d85b1b195c881a5cc81b9bdd081d1a194815985d5b1d604a1b604482015290519081900360640190fd5b600080516020612fe38339815191528054600281141561062d576040805162461bcd60e51b815260206004820152600e60248201526d1499595b9d1c985b9d0818d85b1b60921b604482015290519081900360640190fd5b60028255603754603a54604080516370a0823160e01b815230600482015290516001600160a01b03938416939092169160009184916370a0823191602480820192602092909190829003018186803b15801561068857600080fd5b505afa15801561069c573d6000803e3d6000fd5b505050506040513d60208110156106b257600080fd5b5051603454604080516001600160a01b0390921682526020820183905280519293507f9b15fe06f6132479e0c4d9dfbbff1de507a47663a459b2cc4ba1aa5a55e5205892918290030190a1603954604080516335313c2160e11b81526001600160a01b039283166004820152905191841691636a6278429160248082019260009290919082900301818387803b15801561074b57600080fd5b505af115801561075f573d6000803e3d6000fd5b505060345461078392506001600160a01b038681169250168363ffffffff61225016565b505050600182555050565b60006107986122a7565b905090565b6107a561166e565b6107e4576040805162461bcd60e51b815260206004820152601a602482015260008051602061302c833981519152604482015290519081900360640190fd5b6107ee82826122cc565b5050565b6035602052600090815260409020546001600160a01b031681565b61081561166e565b610854576040805162461bcd60e51b815260206004820152601a602482015260008051602061302c833981519152604482015290519081900360640190fd5b6107ee61085f61078e565b6001600160a01b038416908363ffffffff61225016565b6037546001600160a01b031681565b6034546001600160a01b031681565b6034546001600160a01b031633146108ed576040805162461bcd60e51b815260206004820152601760248201527610d85b1b195c881a5cc81b9bdd081d1a194815985d5b1d604a1b604482015290519081900360640190fd5b600080516020612fe383398151915280546002811415610945576040805162461bcd60e51b815260206004820152600e60248201526d1499595b9d1c985b9d0818d85b1b60921b604482015290519081900360640190fd5b6002825560008311610997576040805162461bcd60e51b81526020600482015260166024820152754d757374206465706f73697420736f6d657468696e6760501b604482015290519081900360640190fd5b603354604080516001600160a01b039283168152602081018690528151928716927f5548c837ab068cf56a2c2479df0882a4922fd203edb7517321831d95078c5f62929181900390910190a26109eb612fa1565b60006109f68661243b565b905084828260038110610a0557fe5b60200201526033546001600160a01b03166000610a21886124cd565b90506000610aad836001600160a01b031663bb7b8b806040518163ffffffff1660e01b815260040160206040518083038186803b158015610a6157600080fd5b505afa158015610a75573d6000803e3d6000fd5b505050506040513d6020811015610a8b57600080fd5b5051610aa18a601286900363ffffffff61258d16565b9063ffffffff6125e716565b90506000610ae0610ad3670de0b6b3a7640000662386f26fc1000063ffffffff61261c16565b839063ffffffff61266516565b604051634515cef360e01b81529091506001600160a01b03851690634515cef390889084906004018083606080838360005b83811015610b2a578181015183820152602001610b12565b5050505090500182815260200192505050600060405180830381600087803b158015610b5557600080fd5b505af1158015610b69573d6000803e3d6000fd5b5050506001600160a01b03808c166000908152603560209081526040918290205460395483516370a0823160e01b81523060048201529351918516955090931692636e553f659285926370a0823192602480840193829003018186803b158015610bd257600080fd5b505afa158015610be6573d6000803e3d6000fd5b505050506040513d6020811015610bfc57600080fd5b5051604080516001600160e01b031960e085901b168152600481019290925230602483015251604480830192600092919082900301818387803b158015610c4257600080fd5b505af1158015610c56573d6000803e3d6000fd5b50505050505050505050506001825550505050565b60385481565b610c7961267a565b6001600160a01b0316336001600160a01b031614610cc85760405162461bcd60e51b81526004018080602001828103825260308152602001806130fb6030913960400191505060405180910390fd5b610cd13361269f565b565b6001600160a01b03818116600090815260356020526040812054909116610d35576040805162461bcd60e51b8152602060048201526011602482015270155b9cdd5c1c1bdc9d195908185cdcd95d607a1b604482015290519081900360640190fd5b6000610d3f61274a565b6033546001600160a01b0387811660009081526035602090815260408083205481516318160ddd60e01b81529151969950948416975091955092909116926318160ddd92600480840193919291829003018186803b158015610da057600080fd5b505afa158015610db4573d6000803e3d6000fd5b505050506040513d6020811015610dca57600080fd5b505190508015610e81576000610ddf8661243b565b90506000836001600160a01b0316634903b0d1836040518263ffffffff1660e01b81526004018082815260200191505060206040518083038186803b158015610e2757600080fd5b505afa158015610e3b573d6000803e3d6000fd5b505050506040513d6020811015610e5157600080fd5b505190508015610e7e57610e7b83610e6f878463ffffffff61288616565b9063ffffffff6128df16565b95505b50505b505050919050565b610e9161166e565b610ed0576040805162461bcd60e51b815260206004820152601a602482015260008051602061302c833981519152604482015290519081900360640190fd5b600054610100900460ff1680610ee95750610ee9612921565b80610ef7575060005460ff16155b610f325760405162461bcd60e51b815260040180806020018281038252602e81526020018061306d602e913960400191505060405180910390fd5b600054610100900460ff16158015610f5d576000805460ff1961ff0019909116610100171660011790555b610fcd88888888888080602002602001604051908101604052809392919081815260200183836020028082843760009201919091525050604080516020808c0282810182019093528b82529093508b92508a91829185019084908082843760009201919091525061292792505050565b8015610fdf576000805461ff00191690555b5050505050505050565b6034546001600160a01b031633148061101a575061100561078e565b6001600160a01b0316336001600160a01b0316145b6110555760405162461bcd60e51b8152600401808060200182810382526023815260200180612fc06023913960400191505060405180910390fd5b600080516020612fe3833981519152805460028114156110ad576040805162461bcd60e51b815260206004820152600e60248201526d1499595b9d1c985b9d0818d85b1b60921b604482015290519081900360640190fd5b600282556000806110bc61274a565b60395460408051632e1a7d4d60e01b81526004810185905290519396509194506001600160a01b03169250632e1a7d4d91602480830192600092919082900301818387803b15801561110d57600080fd5b505af1158015611121573d6000803e3d6000fd5b5050505061112d612fa1565b5060408051606081018252600080825260208201819052918101829052905b6036548110156111d15760006036828154811061116557fe5b60009182526020822001546001600160a01b0316915061118482610cd3565b905060006111918361243b565b90506111b5610ad3670de0b6b3a7640000662386f26fc1000063ffffffff61261c16565b8582600381106111c157fe5b602002015250505060010161114c565b5060335460405163ecb586a560e01b8152600481018481526001600160a01b0390921691829163ecb586a591869186919060240182606080838360005b8381101561122657818101518382015260200161120e565b5050505090500192505050600060405180830381600087803b15801561124b57600080fd5b505af115801561125f573d6000803e3d6000fd5b506000925050505b603654811015611383576000826001600160a01b031663c6610657836040518263ffffffff1660e01b81526004018082815260200191505060206040518083038186803b1580156112b757600080fd5b505afa1580156112cb573d6000803e3d6000fd5b505050506040513d60208110156112e157600080fd5b5051603454604080516370a0823160e01b8152306004820152905192935061137a926001600160a01b03928316928516916370a08231916024808301926020929190829003018186803b15801561133757600080fd5b505afa15801561134b573d6000803e3d6000fd5b505050506040513d602081101561136157600080fd5b50516001600160a01b038416919063ffffffff61225016565b50600101611267565b5050505050600182555050565b61139861166e565b6113d7576040805162461bcd60e51b815260206004820152601a602482015260008051602061302c833981519152604482015290519081900360640190fd5b603654811061141d576040805162461bcd60e51b815260206004820152600d60248201526c092dcecc2d8d2c840d2dcc8caf609b1b604482015290519081900360640190fd5b60006036828154811061142c57fe5b60009182526020808320909101546001600160a01b03908116808452603590925260409092205460365491935090911690600019018310156114cf5760368054600019810190811061147a57fe5b600091825260209091200154603680546001600160a01b0390921691859081106114a057fe5b9060005260206000200160006101000a8154816001600160a01b0302191690836001600160a01b031602179055505b60368054806114da57fe5b60008281526020808220830160001990810180546001600160a01b031990811690915593019093556001600160a01b0385811680835260358552604092839020805490941690935581519085168152905191927f16b7600acff27e39a8a96056b3d533045298de927507f5c1d97e4accde60488c92918290030190a2505050565b61156361166e565b6115a2576040805162461bcd60e51b815260206004820152601a602482015260008051602061302c833981519152604482015290519081900360640190fd5b603780546001600160a01b0319166001600160a01b0392909216919091179055565b6001600160a01b038181166000908152603560205260409020541615155b919050565b60005b60365481101561166b576116636036828154811061160457fe5b9060005260206000200160009054906101000a90046001600160a01b0316603560006036858154811061163357fe5b60009182526020808320909101546001600160a01b039081168452908301939093526040909101902054166129fe565b6001016115ea565b50565b60006116786122a7565b6001600160a01b0316336001600160a01b031614905090565b61169961166e565b6116d8576040805162461bcd60e51b815260206004820152601a602482015260008051602061302c833981519152604482015290519081900360640190fd5b603855565b6116e561166e565b611724576040805162461bcd60e51b815260206004820152601a602482015260008051602061302c833981519152604482015290519081900360640190fd5b61172d81612ad1565b806001600160a01b031661173f6122a7565b6001600160a01b03167fa39cc5eb22d0f34d8beaefee8a3f17cc229c1a1d1ef87a5ad47313487b1c4f0d60405160405180910390a350565b6034546001600160a01b031633146117d0576040805162461bcd60e51b815260206004820152601760248201527610d85b1b195c881a5cc81b9bdd081d1a194815985d5b1d604a1b604482015290519081900360640190fd5b600080516020612fe383398151915280546002811415611828576040805162461bcd60e51b815260206004820152600e60248201526d1499595b9d1c985b9d0818d85b1b60921b604482015290519081900360640190fd5b600282556001600160a01b03851661187b576040805162461bcd60e51b8152602060048201526011602482015270125b9d985b1a59081c9958da5c1a595b9d607a1b604482015290519081900360640190fd5b600083116118c1576040805162461bcd60e51b815260206004820152600e60248201526d125b9d985b1a5908185b5bdd5b9d60921b604482015290519081900360640190fd5b6001600160a01b03808516600081815260356020908152604091829020548251941684528301869052805191927f2717ead6b9200dd235aad468c9809ea400fe33ac69b5bfaa6d3e90fc922b6398929081900390910190a260008061192461274a565b92505091506000811161197e576040805162461bcd60e51b815260206004820152601960248201527f496e73756666696369656e7420334352562062616c616e636500000000000000604482015290519081900360640190fd5b60006119898761243b565b6033546040805163cc2b27d760e01b815260048101869052600f84810b900b602482015290519293506001600160a01b0390911691600091839163cc2b27d791604480820192602092909190829003018186803b1580156119e957600080fd5b505afa1580156119fd573d6000803e3d6000fd5b505050506040513d6020811015611a1357600080fd5b505190506000611a2d82610e6f878c63ffffffff61288616565b905080861015611aa7576039546001600160a01b0316632e1a7d4d611a58838963ffffffff61261c16565b6040518263ffffffff1660e01b815260040180828152602001915050600060405180830381600087803b158015611a8e57600080fd5b505af1158015611aa2573d6000803e3d6000fd5b505050505b6000611ab28b6124cd565b90506000611af96011198301611aed611ae0670de0b6b3a7640000662386f26fc1000063ffffffff61261c16565b869063ffffffff61266516565b9063ffffffff61258d16565b9050846001600160a01b0316631a4d01d28488846040518463ffffffff1660e01b81526004018084815260200183600f0b600f0b81526020018281526020019350505050600060405180830381600087803b158015611b5757600080fd5b505af1158015611b6b573d6000803e3d6000fd5b50611b84925050506001600160a01b038d168e8d612250565b604080516370a0823160e01b815230600482015290516000916001600160a01b038f16916370a0823191602480820192602092909190829003018186803b158015611bce57600080fd5b505afa158015611be2573d6000803e3d6000fd5b505050506040513d6020811015611bf857600080fd5b505190508015611c2257603454611c22906001600160a01b038f811691168363ffffffff61225016565b505050505050505050600182555050505050565b6033546001600160a01b031681565b6034546001600160a01b03163314611c9e576040805162461bcd60e51b815260206004820152601760248201527610d85b1b195c881a5cc81b9bdd081d1a194815985d5b1d604a1b604482015290519081900360640190fd5b600080516020612fe383398151915280546002811415611cf6576040805162461bcd60e51b815260206004820152600e60248201526d1499595b9d1c985b9d0818d85b1b60921b604482015290519081900360640190fd5b60028255611d02612fa1565b50604080516060810182526000808252602082018190529181018290526033549091906001600160a01b0316815b603654811015611ee357600060368281548110611d4957fe5b6000918252602080832090910154604080516370a0823160e01b815230600482015290516001600160a01b03909216945084926370a0823192602480840193829003018186803b158015611d9c57600080fd5b505afa158015611db0573d6000803e3d6000fd5b505050506040513d6020811015611dc657600080fd5b505190508015611ed9576000611ddb8361243b565b905081878260038110611dea57fe5b60200201526000611dfa846124cd565b9050611e88611e7b876001600160a01b031663bb7b8b806040518163ffffffff1660e01b815260040160206040518083038186803b158015611e3b57600080fd5b505afa158015611e4f573d6000803e3d6000fd5b505050506040513d6020811015611e6557600080fd5b5051610aa186601286900363ffffffff61258d16565b889063ffffffff612af516565b603354604080516001600160a01b039283168152602081018790528151939a50918716927f5548c837ab068cf56a2c2479df0882a4922fd203edb7517321831d95078c5f629281900390910190a250505b5050600101611d30565b506000611f15611f08670de0b6b3a7640000662386f26fc1000063ffffffff61261c16565b849063ffffffff61266516565b604051634515cef360e01b81529091506001600160a01b03831690634515cef390869084906004018083606080838360005b83811015611f5f578181015183820152602001611f47565b5050505090500182815260200192505050600060405180830381600087803b158015611f8a57600080fd5b505af1158015611f9e573d6000803e3d6000fd5b505050506000603560006036600081548110611fb657fe5b60009182526020808320909101546001600160a01b0390811684528382019490945260409283019091205460395483516370a0823160e01b81523060048201529351918516955090931692636e553f659285926370a0823192602480840193829003018186803b15801561202957600080fd5b505afa15801561203d573d6000803e3d6000fd5b505050506040513d602081101561205357600080fd5b5051604080516001600160e01b031960e085901b168152600481019290925230602483015251604480830192600092919082900301818387803b15801561209957600080fd5b505af11580156120ad573d6000803e3d6000fd5b505050505050505050600182555050565b6120c661166e565b612105576040805162461bcd60e51b815260206004820152601a602482015260008051602061302c833981519152604482015290519081900360640190fd5b600054610100900460ff168061211e575061211e612921565b8061212c575060005460ff16155b6121675760405162461bcd60e51b815260040180806020018281038252602e81526020018061306d602e913960400191505060405180910390fd5b600054610100900460ff16158015612192576000805460ff1961ff0019909116610100171660011790555b603980546001600160a01b038086166001600160a01b031992831617909255603a8054928516929091169190911790556040805160208089028281018201909352888252612232928d928d928d928d918d91829185019084908082843760009201919091525050604080516020808e0282810182019093528d82529093508d92508c91829185019084908082843760009201919091525061292792505050565b8015612244576000805461ff00191690555b50505050505050505050565b604080516001600160a01b038416602482015260448082018490528251808303909101815260649091019091526020810180516001600160e01b031663a9059cbb60e01b1790526122a2908490612b4f565b505050565b7f7bea13895fa79d2831e0a9e28edede30099005a50d652d8957cf8a607ee6ca4a5490565b6001600160a01b03828116600090815260356020526040902054161561232e576040805162461bcd60e51b81526020600482015260126024820152711c151bdad95b88185b1c9958591e481cd95d60721b604482015290519081900360640190fd5b6001600160a01b0382161580159061234e57506001600160a01b03811615155b612393576040805162461bcd60e51b8152602060048201526011602482015270496e76616c69642061646472657373657360781b604482015290519081900360640190fd5b6001600160a01b03808316600081815260356020908152604080832080549587166001600160a01b031996871681179091556036805460018101825594527f4a11f94e20a93c79f6ec743a1954ec4fc2c08429ae2122118bf234b2185c81b8909301805490951684179094558351918252925191927fef6485b84315f9b1483beffa32aae9a0596890395e3d7521f1c5fbb51790e76592918290030190a26107ee82826129fe565b6000805b600381101561248957826001600160a01b03166036828154811061245f57fe5b6000918252602090912001546001600160a01b031614156124815790506115e2565b60010161243f565b506040805162461bcd60e51b8152602060048201526013602482015272125b9d985b1a59080cdc1bdbdb08185cdcd95d606a1b604482015290519081900360640190fd5b600080826001600160a01b031663313ce5676040518163ffffffff1660e01b815260040160206040518083038186803b15801561250957600080fd5b505afa15801561251d573d6000803e3d6000fd5b505050506040513d602081101561253357600080fd5b505160ff1690506004811080159061254c575060128111155b6125875760405162461bcd60e51b81526004018080602001828103825260298152602001806130036029913960400191505060405180910390fd5b92915050565b6000808260000b13156125b8576125b183600084900b600a0a63ffffffff61288616565b92506125e0565b60008260000b12156125e0576125dd836000848103900b600a0a63ffffffff6128df16565b92505b5090919050565b60008061260284670de0b6b3a764000063ffffffff61288616565b9050612614818463ffffffff6128df16565b949350505050565b600061265e83836040518060400160405280601e81526020017f536166654d6174683a207375627472616374696f6e206f766572666c6f770000815250612d07565b9392505050565b600061265e8383670de0b6b3a7640000612d9e565b7f44c4d30b2eaad5130ad70c3ba6972730566f3e6359ab83e800d905c61b1c51db5490565b6001600160a01b0381166126fa576040805162461bcd60e51b815260206004820152601a60248201527f4e657720476f7665726e6f722069732061646472657373283029000000000000604482015290519081900360640190fd5b806001600160a01b031661270c6122a7565b6001600160a01b03167fc7c0c772add429241571afb3805861fb3cfa2af374534088b76cdb4325a87e9a60405160405180910390a361166b81612dcc565b600080600060356000603660008154811061276157fe5b60009182526020808320909101546001600160a01b0390811684528382019490945260409283019091205482516370a0823160e01b815230600482015292519316926370a08231926024808201939291829003018186803b1580156127c557600080fd5b505afa1580156127d9573d6000803e3d6000fd5b505050506040513d60208110156127ef57600080fd5b5051603954604080516370a0823160e01b815230600482015290519295506001600160a01b039091169182916370a08231916024808301926020929190829003018186803b15801561284057600080fd5b505afa158015612854573d6000803e3d6000fd5b505050506040513d602081101561286a57600080fd5b5051925061287e848463ffffffff612af516565b915050909192565b60008261289557506000612587565b828202828482816128a257fe5b041461265e5760405162461bcd60e51b815260040180806020018281038252602181526020018061304c6021913960400191505060405180910390fd5b600061265e83836040518060400160405280601a81526020017f536166654d6174683a206469766973696f6e206279207a65726f000000000000815250612df0565b303b1590565b603380546001600160a01b038088166001600160a01b0319928316179092556034805487841690831617905560378054928616929091169190911790558151815181146129b2576040805162461bcd60e51b8152602060048201526014602482015273496e76616c696420696e7075742061727261797360601b604482015290519081900360640190fd5b60005b818110156129f5576129ed8482815181106129cc57fe5b60200260200101518483815181106129e057fe5b60200260200101516122cc565b6001016129b5565b50505050505050565b60335482908290612a23906001600160a01b038085169116600063ffffffff612e5516565b603354612a45906001600160a01b03848116911660001963ffffffff612e5516565b603354612a66906001600160a01b038381169116600063ffffffff612e5516565b603354612a88906001600160a01b03838116911660001963ffffffff612e5516565b603954612aa9906001600160a01b038381169116600063ffffffff612e5516565b603954612acb906001600160a01b03838116911660001963ffffffff612e5516565b50505050565b7f44c4d30b2eaad5130ad70c3ba6972730566f3e6359ab83e800d905c61b1c51db55565b60008282018381101561265e576040805162461bcd60e51b815260206004820152601b60248201527f536166654d6174683a206164646974696f6e206f766572666c6f770000000000604482015290519081900360640190fd5b612b61826001600160a01b0316612f68565b612bb2576040805162461bcd60e51b815260206004820152601f60248201527f5361666545524332303a2063616c6c20746f206e6f6e2d636f6e747261637400604482015290519081900360640190fd5b60006060836001600160a01b0316836040518082805190602001908083835b60208310612bf05780518252601f199092019160209182019101612bd1565b6001836020036101000a0380198251168184511680821785525050505050509050019150506000604051808303816000865af19150503d8060008114612c52576040519150601f19603f3d011682016040523d82523d6000602084013e612c57565b606091505b509150915081612cae576040805162461bcd60e51b815260206004820181905260248201527f5361666545524332303a206c6f772d6c6576656c2063616c6c206661696c6564604482015290519081900360640190fd5b805115612acb57808060200190516020811015612cca57600080fd5b5051612acb5760405162461bcd60e51b815260040180806020018281038252602a81526020018061309b602a913960400191505060405180910390fd5b60008184841115612d965760405162461bcd60e51b81526004018080602001828103825283818151815260200191508051906020019080838360005b83811015612d5b578181015183820152602001612d43565b50505050905090810190601f168015612d885780820380516001836020036101000a031916815260200191505b509250505060405180910390fd5b505050900390565b600080612db1858563ffffffff61288616565b9050612dc3818463ffffffff6128df16565b95945050505050565b7f7bea13895fa79d2831e0a9e28edede30099005a50d652d8957cf8a607ee6ca4a55565b60008183612e3f5760405162461bcd60e51b8152602060048201818152835160248401528351909283926044909101919085019080838360008315612d5b578181015183820152602001612d43565b506000838581612e4b57fe5b0495945050505050565b801580612edb575060408051636eb1769f60e11b81523060048201526001600160a01b03848116602483015291519185169163dd62ed3e91604480820192602092909190829003018186803b158015612ead57600080fd5b505afa158015612ec1573d6000803e3d6000fd5b505050506040513d6020811015612ed757600080fd5b5051155b612f165760405162461bcd60e51b81526004018080602001828103825260368152602001806130c56036913960400191505060405180910390fd5b604080516001600160a01b038416602482015260448082018490528251808303909101815260649091019091526020810180516001600160e01b031663095ea7b360e01b1790526122a2908490612b4f565b6000813f7fc5d2460186f7233c927e7db2dcc703c0e500b653ca82273b7bfad8045d85a470818114801590612614575050151592915050565b6040518060600160405280600390602082028038833950919291505056fe43616c6c6572206973206e6f7420746865205661756c74206f7220476f7665726e6f7253bf423e48ed90e97d02ab0ebab13b2a235a6bfbe9c321847d5c175333ac4535546f6b656e206d75737420686176652073756666696369656e7420646563696d616c20706c6163657343616c6c6572206973206e6f742074686520476f7665726e6f72000000000000536166654d6174683a206d756c7469706c69636174696f6e206f766572666c6f77436f6e747261637420696e7374616e63652068617320616c7265616479206265656e20696e697469616c697a65645361666545524332303a204552433230206f7065726174696f6e20646964206e6f7420737563636565645361666545524332303a20617070726f76652066726f6d206e6f6e2d7a65726f20746f206e6f6e2d7a65726f20616c6c6f77616e63654f6e6c79207468652070656e64696e6720476f7665726e6f722063616e20636f6d706c6574652074686520636c61696da265627a7a723158201dac26aba08bb8f95d6319453774992d7b51e7f7be2b724ff61e42b6edf98ef064736f6c634300050b00327bea13895fa79d2831e0a9e28edede30099005a50d652d8957cf8a607ee6ca4a",
  "devdoc": {
    "methods": {
      "checkBalance(address)": {
        "details": "Get the total asset value held in the platform",
        "params": {
          "_asset": "Address of the asset"
        },
        "return": "balance    Total value of the asset in the platform"
      },
      "claimGovernance()": {
        "details": "Claim Governance of the contract to a new account (`newGovernor`). Can only be called by the new Governor."
      },
      "collectRewardToken()": {
        "details": "Collect accumulated CRV and send to Vault."
      },
      "deposit(address,uint256)": {
        "details": "Deposit asset into the Curve 3Pool",
        "params": {
          "_amount": "Amount of asset to deposit",
          "_asset": "Address of asset to deposit"
        }
      },
      "depositAll()": {
        "details": "Deposit the entire balance of any supported asset into the Curve 3pool"
      },
      "governor()": {
        "details": "Returns the address of the current Governor."
      },
      "initialize(address,address,address,address[],address[])": {
        "details": "Internal initialize function, to set up initial internal state",
        "params": {
          "_assets": "Addresses of initial supported assets",
          "_pTokens": "Platform Token corresponding addresses",
          "_platformAddress": "jGeneric platform address",
          "_rewardTokenAddress": "Address of reward token for platform",
          "_vaultAddress": "Address of the Vault"
        }
      },
      "initialize(address,address,address,address[],address[],address,address)": {
        "params": {
          "_assets": "Addresses of supported assets. MUST be passed in the same               order as returned by coins on the pool contract, i.e.               DAI, USDC, USDT",
          "_crvGaugeAddress": "Address of the Curve DAO gauge for this pool",
          "_crvMinterAddress": "Address of the CRV minter for rewards",
          "_pTokens": "Platform Token corresponding addresses",
          "_platformAddress": "Address of the Curve 3pool",
          "_rewardTokenAddress": "Address of CRV",
          "_vaultAddress": "Address of the vault"
        }
      },
      "isGovernor()": {
        "details": "Returns true if the caller is the current Governor."
      },
      "removePToken(uint256)": {
        "details": "Remove a supported asset by passing its index.     This method can only be called by the system Governor",
        "params": {
          "_assetIndex": "Index of the asset to be removed"
        }
      },
      "safeApproveAllTokens()": {
        "details": "Approve the spending of all assets by their corresponding pool tokens,     if for some reason is it necessary."
      },
      "setPTokenAddress(address,address)": {
        "details": "Provide support for asset by passing its pToken address.     This method can only be called by the system Governor",
        "params": {
          "_asset": "Address for the asset",
          "_pToken": "Address for the corresponding platform token"
        }
      },
      "setRewardLiquidationThreshold(uint256)": {
        "details": "Set the reward token liquidation threshold.",
        "params": {
          "_threshold": "Threshold amount in decimals of reward token that will cause the Vault to claim and withdrawAll on allocate() calls."
        }
      },
      "setRewardTokenAddress(address)": {
        "details": "Set the reward token address.",
        "params": {
          "_rewardTokenAddress": "Address of the reward token"
        }
      },
      "supportsAsset(address)": {
        "details": "Retuns bool indicating whether asset is supported by strategy",
        "params": {
          "_asset": "Address of the asset"
        }
      },
      "transferGovernance(address)": {
        "details": "Transfers Governance of the contract to a new account (`newGovernor`). Can only be called by the current Governor. Must be claimed for this to complete",
        "params": {
          "_newGovernor": "Address of the new Governor"
        }
      },
      "transferToken(address,uint256)": {
        "details": "Transfer token to governor. Intended for recovering tokens stuck in     strategy contracts, i.e. mistaken sends.",
        "params": {
          "_amount": "Amount of the asset to transfer",
          "_asset": "Address for the asset"
        }
      },
      "withdraw(address,address,uint256)": {
        "details": "Withdraw asset from Curve 3Pool",
        "params": {
          "_amount": "Amount of asset to withdraw",
          "_asset": "Address of asset to withdraw",
          "_recipient": "Address to receive withdrawn asset"
        }
      },
      "withdrawAll()": {
        "details": "Remove all assets from platform and send them to Vault contract."
      }
    }
  },
  "userdoc": {
    "methods": {
      "initialize(address,address,address,address[],address[],address,address)": {
        "notice": "Initializer for setting up strategy internal state. This overrides the InitializableAbstractStrategy initializer as Curve strategies don't fit well within that abstraction."
      }
    }
  }
}