{
  "address": "0x3EB68D8f4992A0e34aA58cc3dF86A40814078cF6",
  "abi": [
    {
      "anonymous": false,
      "inputs": [
        {
          "indexed": false,
          "internalType": "uint256",
          "name": "_threshold",
          "type": "uint256"
        }
      ],
      "name": "AllocateThresholdUpdated",
      "type": "event"
    },
    {
      "anonymous": false,
      "inputs": [
        {
          "indexed": false,
          "internalType": "address",
          "name": "_asset",
          "type": "address"
        },
        {
          "indexed": false,
          "internalType": "address",
          "name": "_strategy",
          "type": "address"
        },
        {
          "indexed": false,
          "internalType": "uint256",
          "name": "_amount",
          "type": "uint256"
        }
      ],
      "name": "AssetAllocated",
      "type": "event"
    },
    {
      "anonymous": false,
      "inputs": [
        {
          "indexed": false,
          "internalType": "address",
          "name": "_asset",
          "type": "address"
        },
        {
          "indexed": false,
          "internalType": "address",
          "name": "_strategy",
          "type": "address"
        }
      ],
      "name": "AssetDefaultStrategyUpdated",
      "type": "event"
    },
    {
      "anonymous": false,
      "inputs": [
        {
          "indexed": false,
          "internalType": "address",
          "name": "_asset",
          "type": "address"
        }
      ],
      "name": "AssetSupported",
      "type": "event"
    },
    {
      "anonymous": false,
      "inputs": [],
      "name": "CapitalPaused",
      "type": "event"
    },
    {
      "anonymous": false,
      "inputs": [],
      "name": "CapitalUnpaused",
      "type": "event"
    },
    {
      "anonymous": false,
      "inputs": [
        {
          "indexed": true,
          "internalType": "address",
          "name": "previousGovernor",
          "type": "address"
        },
        {
          "indexed": true,
          "internalType": "address",
          "name": "newGovernor",
          "type": "address"
        }
      ],
      "name": "GovernorshipTransferred",
      "type": "event"
    },
    {
      "anonymous": false,
      "inputs": [
        {
          "indexed": false,
          "internalType": "uint256",
          "name": "maxSupplyDiff",
          "type": "uint256"
        }
      ],
      "name": "MaxSupplyDiffChanged",
      "type": "event"
    },
    {
      "anonymous": false,
      "inputs": [
        {
          "indexed": false,
          "internalType": "address",
          "name": "_addr",
          "type": "address"
        },
        {
          "indexed": false,
          "internalType": "uint256",
          "name": "_value",
          "type": "uint256"
        }
      ],
      "name": "Mint",
      "type": "event"
    },
    {
      "anonymous": false,
      "inputs": [
        {
          "indexed": true,
          "internalType": "address",
          "name": "previousGovernor",
          "type": "address"
        },
        {
          "indexed": true,
          "internalType": "address",
          "name": "newGovernor",
          "type": "address"
        }
      ],
      "name": "PendingGovernorshipTransfer",
      "type": "event"
    },
    {
      "anonymous": false,
      "inputs": [
        {
          "indexed": false,
          "internalType": "address",
          "name": "_priceProvider",
          "type": "address"
        }
      ],
      "name": "PriceProviderUpdated",
      "type": "event"
    },
    {
      "anonymous": false,
      "inputs": [],
      "name": "RebasePaused",
      "type": "event"
    },
    {
      "anonymous": false,
      "inputs": [
        {
          "indexed": false,
          "internalType": "uint256",
          "name": "_threshold",
          "type": "uint256"
        }
      ],
      "name": "RebaseThresholdUpdated",
      "type": "event"
    },
    {
      "anonymous": false,
      "inputs": [],
      "name": "RebaseUnpaused",
      "type": "event"
    },
    {
      "anonymous": false,
      "inputs": [
        {
          "indexed": false,
          "internalType": "address",
          "name": "_addr",
          "type": "address"
        },
        {
          "indexed": false,
          "internalType": "uint256",
          "name": "_value",
          "type": "uint256"
        }
      ],
      "name": "Redeem",
      "type": "event"
    },
    {
      "anonymous": false,
      "inputs": [
        {
          "indexed": false,
          "internalType": "uint256",
          "name": "_redeemFeeBps",
          "type": "uint256"
        }
      ],
      "name": "RedeemFeeUpdated",
      "type": "event"
    },
    {
      "anonymous": false,
      "inputs": [
        {
          "indexed": false,
          "internalType": "address",
          "name": "_address",
          "type": "address"
        }
      ],
      "name": "StrategistUpdated",
      "type": "event"
    },
    {
      "anonymous": false,
      "inputs": [
        {
          "indexed": false,
          "internalType": "address",
          "name": "_addr",
          "type": "address"
        }
      ],
      "name": "StrategyApproved",
      "type": "event"
    },
    {
      "anonymous": false,
      "inputs": [
        {
          "indexed": false,
          "internalType": "address",
          "name": "_addr",
          "type": "address"
        }
      ],
      "name": "StrategyRemoved",
      "type": "event"
    },
    {
      "anonymous": false,
      "inputs": [
        {
          "indexed": false,
          "internalType": "address",
          "name": "_address",
          "type": "address"
        }
      ],
      "name": "SwapTokenAdded",
      "type": "event"
    },
    {
      "anonymous": false,
      "inputs": [
        {
          "indexed": false,
          "internalType": "address",
          "name": "_address",
          "type": "address"
        }
      ],
      "name": "SwapTokenRemoved",
      "type": "event"
    },
    {
      "anonymous": false,
      "inputs": [
        {
          "indexed": false,
          "internalType": "address",
          "name": "_address",
          "type": "address"
        }
      ],
      "name": "TrusteeAddressChanged",
      "type": "event"
    },
    {
      "anonymous": false,
      "inputs": [
        {
          "indexed": false,
          "internalType": "uint256",
          "name": "_basis",
          "type": "uint256"
        }
      ],
      "name": "TrusteeFeeBpsChanged",
      "type": "event"
    },
    {
      "anonymous": false,
      "inputs": [
        {
          "indexed": false,
          "internalType": "address",
          "name": "_address",
          "type": "address"
        }
      ],
      "name": "UniswapUpdated",
      "type": "event"
    },
    {
      "anonymous": false,
      "inputs": [
        {
          "indexed": false,
          "internalType": "uint256",
          "name": "_vaultBuffer",
          "type": "uint256"
        }
      ],
      "name": "VaultBufferUpdated",
      "type": "event"
    },
    {
      "anonymous": false,
      "inputs": [
        {
          "indexed": false,
          "internalType": "address",
          "name": "_to",
          "type": "address"
        },
        {
          "indexed": false,
          "internalType": "uint256",
          "name": "_yield",
          "type": "uint256"
        },
        {
          "indexed": false,
          "internalType": "uint256",
          "name": "_fee",
          "type": "uint256"
        }
      ],
      "name": "YieldDistribution",
      "type": "event"
    },
    {
      "inputs": [
        {
          "internalType": "address",
          "name": "_addr",
          "type": "address"
        }
      ],
      "name": "addSwapToken",
      "outputs": [],
      "stateMutability": "nonpayable",
      "type": "function"
    },
    {
      "inputs": [
        {
          "internalType": "address",
          "name": "_addr",
          "type": "address"
        }
      ],
      "name": "approveStrategy",
      "outputs": [],
      "stateMutability": "nonpayable",
      "type": "function"
    },
    {
      "inputs": [
        {
          "internalType": "address",
          "name": "",
          "type": "address"
        }
      ],
      "name": "assetDefaultStrategies",
      "outputs": [
        {
          "internalType": "address",
          "name": "",
          "type": "address"
        }
      ],
      "stateMutability": "view",
      "type": "function"
    },
    {
      "inputs": [],
      "name": "autoAllocateThreshold",
      "outputs": [
        {
          "internalType": "uint256",
          "name": "",
          "type": "uint256"
        }
      ],
      "stateMutability": "view",
      "type": "function"
    },
    {
      "inputs": [],
      "name": "capitalPaused",
      "outputs": [
        {
          "internalType": "bool",
          "name": "",
          "type": "bool"
        }
      ],
      "stateMutability": "view",
      "type": "function"
    },
    {
      "inputs": [],
      "name": "claimGovernance",
      "outputs": [],
      "stateMutability": "nonpayable",
      "type": "function"
    },
    {
      "inputs": [],
      "name": "governor",
      "outputs": [
        {
          "internalType": "address",
          "name": "",
          "type": "address"
        }
      ],
      "stateMutability": "view",
      "type": "function"
    },
    {
      "inputs": [
        {
          "internalType": "address",
          "name": "_strategyAddr",
          "type": "address"
        }
      ],
      "name": "harvest",
      "outputs": [],
      "stateMutability": "nonpayable",
      "type": "function"
    },
    {
      "inputs": [],
      "name": "harvest",
      "outputs": [],
      "stateMutability": "nonpayable",
      "type": "function"
    },
    {
      "inputs": [],
      "name": "harvestAndSwap",
      "outputs": [],
      "stateMutability": "nonpayable",
      "type": "function"
    },
    {
      "inputs": [
        {
          "internalType": "address",
          "name": "_strategyAddr",
          "type": "address"
        }
      ],
      "name": "harvestAndSwap",
      "outputs": [
        {
          "internalType": "uint256[]",
          "name": "",
          "type": "uint256[]"
        }
      ],
      "stateMutability": "nonpayable",
      "type": "function"
    },
    {
      "inputs": [],
      "name": "isGovernor",
      "outputs": [
        {
          "internalType": "bool",
          "name": "",
          "type": "bool"
        }
      ],
      "stateMutability": "view",
      "type": "function"
    },
    {
      "inputs": [],
      "name": "maxSupplyDiff",
      "outputs": [
        {
          "internalType": "uint256",
          "name": "",
          "type": "uint256"
        }
      ],
      "stateMutability": "view",
      "type": "function"
    },
    {
      "inputs": [],
      "name": "pauseCapital",
      "outputs": [],
      "stateMutability": "nonpayable",
      "type": "function"
    },
    {
      "inputs": [],
      "name": "pauseRebase",
      "outputs": [],
      "stateMutability": "nonpayable",
      "type": "function"
    },
    {
      "inputs": [],
      "name": "priceProvider",
      "outputs": [
        {
          "internalType": "address",
          "name": "",
          "type": "address"
        }
      ],
      "stateMutability": "view",
      "type": "function"
    },
    {
      "inputs": [
        {
          "internalType": "address",
          "name": "asset",
          "type": "address"
        }
      ],
      "name": "priceUSDMint",
      "outputs": [
        {
          "internalType": "uint256",
          "name": "",
          "type": "uint256"
        }
      ],
      "stateMutability": "view",
      "type": "function"
    },
    {
      "inputs": [
        {
          "internalType": "address",
          "name": "asset",
          "type": "address"
        }
      ],
      "name": "priceUSDRedeem",
      "outputs": [
        {
          "internalType": "uint256",
          "name": "",
          "type": "uint256"
        }
      ],
      "stateMutability": "view",
      "type": "function"
    },
    {
      "inputs": [
        {
          "internalType": "address",
          "name": "_strategyFromAddress",
          "type": "address"
        },
        {
          "internalType": "address",
          "name": "_strategyToAddress",
          "type": "address"
        },
        {
          "internalType": "address[]",
          "name": "_assets",
          "type": "address[]"
        },
        {
          "internalType": "uint256[]",
          "name": "_amounts",
          "type": "uint256[]"
        }
      ],
      "name": "reallocate",
      "outputs": [],
      "stateMutability": "nonpayable",
      "type": "function"
    },
    {
      "inputs": [],
      "name": "rebasePaused",
      "outputs": [
        {
          "internalType": "bool",
          "name": "",
          "type": "bool"
        }
      ],
      "stateMutability": "view",
      "type": "function"
    },
    {
      "inputs": [],
      "name": "rebaseThreshold",
      "outputs": [
        {
          "internalType": "uint256",
          "name": "",
          "type": "uint256"
        }
      ],
      "stateMutability": "view",
      "type": "function"
    },
    {
      "inputs": [],
      "name": "redeemFeeBps",
      "outputs": [
        {
          "internalType": "uint256",
          "name": "",
          "type": "uint256"
        }
      ],
      "stateMutability": "view",
      "type": "function"
    },
    {
      "inputs": [
        {
          "internalType": "address",
          "name": "_addr",
          "type": "address"
        }
      ],
      "name": "removeStrategy",
      "outputs": [],
      "stateMutability": "nonpayable",
      "type": "function"
    },
    {
      "inputs": [
        {
          "internalType": "address",
          "name": "_addr",
          "type": "address"
        }
      ],
      "name": "removeSwapToken",
      "outputs": [],
      "stateMutability": "nonpayable",
      "type": "function"
    },
    {
      "inputs": [
        {
          "internalType": "address",
          "name": "newImpl",
          "type": "address"
        }
      ],
      "name": "setAdminImpl",
      "outputs": [],
      "stateMutability": "nonpayable",
      "type": "function"
    },
    {
      "inputs": [
        {
          "internalType": "address",
          "name": "_asset",
          "type": "address"
        },
        {
          "internalType": "address",
          "name": "_strategy",
          "type": "address"
        }
      ],
      "name": "setAssetDefaultStrategy",
      "outputs": [],
      "stateMutability": "nonpayable",
      "type": "function"
    },
    {
      "inputs": [
        {
          "internalType": "uint256",
          "name": "_threshold",
          "type": "uint256"
        }
      ],
      "name": "setAutoAllocateThreshold",
      "outputs": [],
      "stateMutability": "nonpayable",
      "type": "function"
    },
    {
      "inputs": [
        {
          "internalType": "uint256",
          "name": "_maxSupplyDiff",
          "type": "uint256"
        }
      ],
      "name": "setMaxSupplyDiff",
      "outputs": [],
      "stateMutability": "nonpayable",
      "type": "function"
    },
    {
      "inputs": [
        {
          "internalType": "address",
          "name": "_priceProvider",
          "type": "address"
        }
      ],
      "name": "setPriceProvider",
      "outputs": [],
      "stateMutability": "nonpayable",
      "type": "function"
    },
    {
      "inputs": [
        {
          "internalType": "uint256",
          "name": "_threshold",
          "type": "uint256"
        }
      ],
      "name": "setRebaseThreshold",
      "outputs": [],
      "stateMutability": "nonpayable",
      "type": "function"
    },
    {
      "inputs": [
        {
          "internalType": "uint256",
          "name": "_redeemFeeBps",
          "type": "uint256"
        }
      ],
      "name": "setRedeemFeeBps",
      "outputs": [],
      "stateMutability": "nonpayable",
      "type": "function"
    },
    {
      "inputs": [
        {
          "internalType": "address",
          "name": "_address",
          "type": "address"
        }
      ],
      "name": "setStrategistAddr",
      "outputs": [],
      "stateMutability": "nonpayable",
      "type": "function"
    },
    {
      "inputs": [
        {
          "internalType": "address",
          "name": "_address",
          "type": "address"
        }
      ],
      "name": "setTrusteeAddress",
      "outputs": [],
      "stateMutability": "nonpayable",
      "type": "function"
    },
    {
      "inputs": [
        {
          "internalType": "uint256",
          "name": "_basis",
          "type": "uint256"
        }
      ],
      "name": "setTrusteeFeeBps",
      "outputs": [],
      "stateMutability": "nonpayable",
      "type": "function"
    },
    {
      "inputs": [
        {
          "internalType": "address",
          "name": "_address",
          "type": "address"
        }
      ],
      "name": "setUniswapAddr",
      "outputs": [],
      "stateMutability": "nonpayable",
      "type": "function"
    },
    {
      "inputs": [
        {
          "internalType": "uint256",
          "name": "_vaultBuffer",
          "type": "uint256"
        }
      ],
      "name": "setVaultBuffer",
      "outputs": [],
      "stateMutability": "nonpayable",
      "type": "function"
    },
    {
      "inputs": [],
      "name": "strategistAddr",
      "outputs": [
        {
          "internalType": "address",
          "name": "",
          "type": "address"
        }
      ],
      "stateMutability": "view",
      "type": "function"
    },
    {
      "inputs": [
        {
          "internalType": "address",
          "name": "_asset",
          "type": "address"
        }
      ],
      "name": "supportAsset",
      "outputs": [],
      "stateMutability": "nonpayable",
      "type": "function"
    },
    {
      "inputs": [],
      "name": "swap",
      "outputs": [],
      "stateMutability": "nonpayable",
      "type": "function"
    },
    {
      "inputs": [
        {
          "internalType": "uint256",
          "name": "",
          "type": "uint256"
        }
      ],
      "name": "swapTokens",
      "outputs": [
        {
          "internalType": "address",
          "name": "",
          "type": "address"
        }
      ],
      "stateMutability": "view",
      "type": "function"
    },
    {
      "inputs": [
        {
          "internalType": "address",
          "name": "_newGovernor",
          "type": "address"
        }
      ],
      "name": "transferGovernance",
      "outputs": [],
      "stateMutability": "nonpayable",
      "type": "function"
    },
    {
      "inputs": [
        {
          "internalType": "address",
          "name": "_asset",
          "type": "address"
        },
        {
          "internalType": "uint256",
          "name": "_amount",
          "type": "uint256"
        }
      ],
      "name": "transferToken",
      "outputs": [],
      "stateMutability": "nonpayable",
      "type": "function"
    },
    {
      "inputs": [],
      "name": "trusteeAddress",
      "outputs": [
        {
          "internalType": "address",
          "name": "",
          "type": "address"
        }
      ],
      "stateMutability": "view",
      "type": "function"
    },
    {
      "inputs": [],
      "name": "trusteeFeeBps",
      "outputs": [
        {
          "internalType": "uint256",
          "name": "",
          "type": "uint256"
        }
      ],
      "stateMutability": "view",
      "type": "function"
    },
    {
      "inputs": [],
      "name": "uniswapAddr",
      "outputs": [
        {
          "internalType": "address",
          "name": "",
          "type": "address"
        }
      ],
      "stateMutability": "view",
      "type": "function"
    },
    {
      "inputs": [],
      "name": "unpauseCapital",
      "outputs": [],
      "stateMutability": "nonpayable",
      "type": "function"
    },
    {
      "inputs": [],
      "name": "unpauseRebase",
      "outputs": [],
      "stateMutability": "nonpayable",
      "type": "function"
    },
    {
      "inputs": [],
      "name": "vaultBuffer",
      "outputs": [
        {
          "internalType": "uint256",
          "name": "",
          "type": "uint256"
        }
      ],
      "stateMutability": "view",
      "type": "function"
    },
    {
      "inputs": [],
      "name": "withdrawAllFromStrategies",
      "outputs": [],
      "stateMutability": "nonpayable",
      "type": "function"
    },
    {
      "inputs": [
        {
          "internalType": "address",
          "name": "_strategyAddr",
          "type": "address"
        }
      ],
      "name": "withdrawAllFromStrategy",
      "outputs": [],
      "stateMutability": "nonpayable",
      "type": "function"
    }
  ],
  "transactionHash": "0x340f6ecff6b3c285290cb4c231b5b043a221ac39463a7fc77f29c9e446d02904",
  "args": [],
  "solcInputHash": "b6193023c3a28756304ff066bec0ae10",
  "bytecode": "0x60806040526037805461ffff60a01b1916600160a81b179055603d80546001600160a01b0319908116909155603e805482169055603f805490911690553480156200004957600080fd5b5062000062336000805160206200378483398151915255565b60008051602062003784833981519152546040516001600160a01b03909116906000907fc7c0c772add429241571afb3805861fb3cfa2af374534088b76cdb4325a87e9a908290a36136ca80620000ba6000396000f3fe608060405234801561001057600080fd5b50600436106102d65760003560e01c80635d36b19011610182578063b2c9336d116100e9578063c7af3352116100a2578063e6cc54321161007c578063e6cc5432146105f1578063eb03654b14610605578063fc0cfeee14610618578063fe784eaa1461062b57600080fd5b8063c7af3352146105ce578063c9919112146105d6578063d38bfff4146105de57600080fd5b8063b2c9336d14610567578063b888879e1461057a578063b890ebf61461058d578063bc90106b146105a0578063bf550298146105b3578063c5f00841146105c657600080fd5b80638e510b521161013b5780638e510b52146104fe5780638ec489a21461050757806394828ffd1461051a5780639fa1826e14610522578063a403e4d51461052b578063aea173d51461055457600080fd5b80635d36b190146104a2578063663e64ce146104aa578063773540b3146104bd5780637fe2d393146104d05780638119c065146104e35780638c5cbb89146104eb57600080fd5b80632da845a81161024157806349c1d54d116101fa57806353ca9f24116101d457806353ca9f2414610438578063548f5ae51461045c578063570d8e1d1461047c578063597c89101461048f57600080fd5b806349c1d54d146104095780634cd55c2d1461041c57806352d38e5d1461042f57600080fd5b80632da845a8146103ad578063372aa224146103c05780633b8ae397146103d35780633dbc911f146103e65780634641257d146103ee57806347c47ed3146103f657600080fd5b80631072cbea116102935780631072cbea1461034f57806310d3fdac14610362578063128a8b0514610375578063175188e8146103885780631edfe3da1461039b578063207134b0146103a457600080fd5b806309f49bf5146102db57806309f6442c146102e55780630acbda75146103015780630c340a24146103145780630e5c011e146103345780630fbd780814610347575b600080fd5b6102e361063e565b005b6102ee60385481565b6040519081526020015b60405180910390f35b6102e361030f366004613239565b6106a3565b61031c610755565b6040516001600160a01b0390911681526020016102f8565b6102e361034236600461301e565b610772565b6102e36107c0565b6102e361035d366004613126565b61080a565b6102ee61037036600461301e565b6108b7565b603e5461031c906001600160a01b031681565b6102e361039636600461301e565b610961565b6102ee60395481565b6102ee60435481565b6102e36103bb36600461301e565b610c70565b6102e36103ce36600461301e565b610ce2565b6102e36103e136600461301e565b610d54565b6102e3610e91565b6102e3610f07565b6102e361040436600461301e565b610f8e565b60425461031c906001600160a01b031681565b6102e361042a36600461301e565b61119d565b6102ee603b5481565b60375461044c90600160a01b900460ff1681565b60405190151581526020016102f8565b61046f61046a36600461301e565b61134e565b6040516102f891906132aa565b603f5461031c906001600160a01b031681565b6102e361049d36600461301e565b61141a565b6102e3611516565b6102e36104b8366004613239565b6115ba565b6102e36104cb36600461301e565b611613565b6102e36104de366004613091565b611685565b6102e36119ed565b6102ee6104f936600461301e565b611a2f565b6102ee60415481565b6102e3610515366004613239565b611ad1565b6102e3611b86565b6102ee603a5481565b61031c61053936600461301e565b6040602081905260009182529020546001600160a01b031681565b6102e361056236600461301e565b611bf6565b6102e3610575366004613239565b611d1b565b60375461031c906001600160a01b031681565b6102e361059b366004613239565b611d74565b6102e36105ae366004613058565b611dcd565b6102e36105c136600461301e565b61200f565b6102e361221f565b61044c612295565b6102e36122c6565b6102e36105ec36600461301e565b612397565b60375461044c90600160a81b900460ff1681565b6102e3610613366004613239565b61243b565b6102e361062636600461301e565b612494565b61031c610639366004613239565b612536565b610646612295565b61066b5760405162461bcd60e51b815260040161066290613321565b60405180910390fd5b6037805460ff60a01b191690556040517fbc044409505c95b6b851433df96e1beae715c909d8e7c1d6d7ab783300d4e3b990600090a1565b6106ab612295565b6106c75760405162461bcd60e51b815260040161066290613321565b6113888111156107195760405162461bcd60e51b815260206004820152601760248201527f62617369732063616e6e6f7420657863656564203530250000000000000000006044820152606401610662565b60438190556040518181527f56287a45051933ea374811b3d5d165033047be5572cac676f7c28b8be4f746c7906020015b60405180910390a150565b600061076d6000805160206136758339815191525490565b905090565b3330148061078a5750603f546001600160a01b031633145b806107985750610798612295565b6107b45760405162461bcd60e51b8152600401610662906133a0565b6107bd81612560565b50565b603f546001600160a01b03163314806107dc57506107dc612295565b6107f85760405162461bcd60e51b815260040161066290613358565b610800610f07565b610808612642565b565b610812612295565b61082e5760405162461bcd60e51b815260040161066290613321565b6001600160a01b03821660009081526033602052604090205460ff16156108975760405162461bcd60e51b815260206004820152601760248201527f4f6e6c7920756e737570706f72746564206173736574730000000000000000006044820152606401610662565b6108b36108a2610755565b6001600160a01b0384169083612692565b5050565b6037546040516315d5220f60e31b81526001600160a01b038381166004830152600092839291169063aea910789060240160206040518083038186803b15801561090057600080fd5b505afa158015610914573d6000803e3d6000fd5b505050506040513d601f19601f820116820180604052508101906109389190613252565b90506305f5e10081111561094d57506305f5e1005b61095a81601260086126f5565b9392505050565b610969612295565b6109855760405162461bcd60e51b815260040161066290613321565b6001600160a01b03811660009081526035602052604090205460ff166109e55760405162461bcd60e51b815260206004820152601560248201527414dd1c985d1959de481b9bdd08185c1c1c9bdd9959605a1b6044820152606401610662565b60005b603454811015610a9e57816001600160a01b03166040600060348481548110610a1357610a13613633565b60009182526020808320909101546001600160a01b039081168452908301939093526040909101902054161415610a8c5760405162461bcd60e51b815260206004820181905260248201527f53747261746567792069732064656661756c7420666f7220616e2061737365746044820152606401610662565b80610a96816135ec565b9150506109e8565b5060365460005b603654811015610b0157826001600160a01b031660368281548110610acc57610acc613633565b6000918252602090912001546001600160a01b03161415610aef57809150610b01565b80610af9816135ec565b915050610aa5565b506036548110156108b35760368054610b1c906001906135a5565b81548110610b2c57610b2c613633565b600091825260209091200154603680546001600160a01b039092169183908110610b5857610b58613633565b9060005260206000200160006101000a8154816001600160a01b0302191690836001600160a01b031602179055506036805480610b9757610b9761361d565b60008281526020808220830160001990810180546001600160a01b03191690559092019092556001600160a01b03841680835260359091526040808320805460ff19169055805163429c145b60e11b81529051859363853828b6926004808201939182900301818387803b158015610c0e57600080fd5b505af1158015610c22573d6000803e3d6000fd5b50505050610c2f83612560565b6040516001600160a01b03841681527f09a1db4b80c32706328728508c941a6b954f31eb5affd32f236c1fd405f8fea49060200160405180910390a1505050565b610c78612295565b610c945760405162461bcd60e51b815260040161066290613321565b604280546001600160a01b0319166001600160a01b0383169081179091556040519081527f1e4af5ac389e8cde1bdaa6830881b6c987c62a45cfb3b33d27d805cde3b577509060200161074a565b610cea612295565b610d065760405162461bcd60e51b815260040161066290613321565b603780546001600160a01b0319166001600160a01b0383169081179091556040519081527fb266add5f3044b17d27db796af992cecbe413921b4e8aaaee03c719e16b9806a9060200161074a565b610d5c612295565b610d785760405162461bcd60e51b815260040161066290613321565b6001600160a01b03811660009081526035602052604090205460ff1615610de15760405162461bcd60e51b815260206004820152601960248201527f537472617465677920616c726561647920617070726f766564000000000000006044820152606401610662565b6040805180820182526001808252600060208084018281526001600160a01b038716808452603583528684209551865460ff19169015151786559051948401949094556036805493840181559091527f4a11f94e20a93c79f6ec743a1954ec4fc2c08429ae2122118bf234b2185c81b890910180546001600160a01b0319168317905591519081527f960dd94cbb79169f09a4e445d58b895df2d9bffa5b31055d0932d801724a20d1910161074a565b603f546001600160a01b0316331480610ead5750610ead612295565b610ec95760405162461bcd60e51b815260040161066290613358565b6037805460ff60a81b1916600160a81b1790556040517f71f0e5b62f846a22e0b4d159e516e62fa9c2b8eb570be15f83e67d98a2ee51e090600090a1565b603f546001600160a01b0316331480610f235750610f23612295565b610f3f5760405162461bcd60e51b815260040161066290613358565b60005b6036548110156107bd57610f7c60368281548110610f6257610f62613633565b6000918252602090912001546001600160a01b0316612560565b80610f86816135ec565b915050610f42565b610f96612295565b610fb25760405162461bcd60e51b815260040161066290613321565b60005b60445481101561105157816001600160a01b031660448281548110610fdc57610fdc613633565b6000918252602090912001546001600160a01b0316141561103f5760405162461bcd60e51b815260206004820152601860248201527f5377617020746f6b656e20616c726561647920616464656400000000000000006044820152606401610662565b80611049816135ec565b915050610fb5565b506037546040516315d5220f60e31b81526001600160a01b0383811660048301529091169063aea910789060240160206040518083038186803b15801561109757600080fd5b505afa1580156110ab573d6000803e3d6000fd5b505050506040513d601f19601f820116820180604052508101906110cf9190613252565b50604480546001810182556000919091527f9b22d3d61959b4d3528b1d8ba932c96fbe302b36a1aad1d95cab54f9e0a135ea0180546001600160a01b0319166001600160a01b0383811691909117909155603e54161561116457603e548190611146906001600160a01b0380841691166000612757565b603e54611162906001600160a01b038381169116600019612757565b505b6040516001600160a01b03821681527f4ba01ddccbf6b4d5f02200480ff6f40d2edbdbfcce73acdc5078881fd10e1d589060200161074a565b6111a5612295565b6111c15760405162461bcd60e51b815260040161066290613321565b6001600160a01b03811660009081526033602052604090205460ff161561122a5760405162461bcd60e51b815260206004820152601760248201527f417373657420616c726561647920737570706f727465640000000000000000006044820152606401610662565b604080516020808201835260018083526001600160a01b03858116600081815260339094528584209451855460ff1916901515179094556034805492830181559092527f46bddb1178e94d7f2892ff5f366840eb658911794f2c3a44c450aa2c505186c10180546001600160a01b0319168317905560375492516315d5220f60e31b81526004810192909252919091169063aea910789060240160206040518083038186803b1580156112dc57600080fd5b505afa1580156112f0573d6000803e3d6000fd5b505050506040513d601f19601f820116820180604052508101906113149190613252565b506040516001600160a01b03821681527f4f1ac48525e50059cc1cc6e0e1940ece0dd653a4db4841538d6aef036be2fb7b9060200161074a565b6060333014806113685750603f546001600160a01b031633145b806113765750611376612295565b6113925760405162461bcd60e51b8152600401610662906133a0565b8161139c81612560565b61095a816001600160a01b031663125f9e336040518163ffffffff1660e01b815260040160206040518083038186803b1580156113d857600080fd5b505afa1580156113ec573d6000803e3d6000fd5b505050506040513d601f19601f82011682018060405250810190611410919061303b565b61287b565b919050565b603f546001600160a01b03163314806114365750611436612295565b6114525760405162461bcd60e51b815260040161066290613358565b6001600160a01b03811660009081526035602052604090205460ff166114ba5760405162461bcd60e51b815260206004820152601960248201527f5374726174656779206973206e6f7420737570706f72746564000000000000006044820152606401610662565b6000819050806001600160a01b031663853828b66040518163ffffffff1660e01b8152600401600060405180830381600087803b1580156114fa57600080fd5b505af115801561150e573d6000803e3d6000fd5b505050505050565b7f44c4d30b2eaad5130ad70c3ba6972730566f3e6359ab83e800d905c61b1c51db546001600160a01b0316336001600160a01b0316146115b15760405162461bcd60e51b815260206004820152603060248201527f4f6e6c79207468652070656e64696e6720476f7665726e6f722063616e20636f60448201526f6d706c6574652074686520636c61696d60801b6064820152608401610662565b61080833612bbd565b6115c2612295565b6115de5760405162461bcd60e51b815260040161066290613321565b60418190556040518181527f95201f9c21f26877223b1ff4073936a6484c35495649e60e55730497aeb60d939060200161074a565b61161b612295565b6116375760405162461bcd60e51b815260040161066290613321565b603f80546001600160a01b0319166001600160a01b0383169081179091556040519081527f869e0abd13cc3a975de7b93be3df1cb2255c802b1cead85963cc79d99f131bee9060200161074a565b603f546001600160a01b03163314806116a157506116a1612295565b6116bd5760405162461bcd60e51b815260040161066290613358565b6001600160a01b03861660009081526035602052604090205460ff1661171d5760405162461bcd60e51b8152602060048201526015602482015274496e76616c69642066726f6d20537472617465677960581b6044820152606401610662565b6001600160a01b03851660009081526035602052604090205460ff1661177b5760405162461bcd60e51b8152602060048201526013602482015272496e76616c696420746f20537472617465677960681b6044820152606401610662565b8281146117ca5760405162461bcd60e51b815260206004820152601960248201527f506172616d65746572206c656e677468206d69736d61746368000000000000006044820152606401610662565b858560005b8581101561198f57816001600160a01b031663aa388af68888848181106117f8576117f8613633565b905060200201602081019061180d919061301e565b6040516001600160e01b031960e084901b1681526001600160a01b03909116600482015260240160206040518083038186803b15801561184c57600080fd5b505afa158015611860573d6000803e3d6000fd5b505050506040513d601f19601f820116820180604052508101906118849190613217565b6118c45760405162461bcd60e51b8152602060048201526011602482015270105cdcd95d081d5b9cdd5c1c1bdc9d1959607a1b6044820152606401610662565b826001600160a01b031663d9caed12838989858181106118e6576118e6613633565b90506020020160208101906118fb919061301e565b88888681811061190d5761190d613633565b6040516001600160e01b031960e088901b1681526001600160a01b03958616600482015294909316602485015250602090910201356044820152606401600060405180830381600087803b15801561196457600080fd5b505af1158015611978573d6000803e3d6000fd5b505050508080611987906135ec565b9150506117cf565b50806001600160a01b031663de5f62686040518163ffffffff1660e01b8152600401600060405180830381600087803b1580156119cb57600080fd5b505af11580156119df573d6000803e3d6000fd5b505050505050505050505050565b33301480611a055750603f546001600160a01b031633145b80611a135750611a13612295565b6108005760405162461bcd60e51b8152600401610662906133a0565b6037546040516315d5220f60e31b81526001600160a01b038381166004830152600092839291169063aea910789060240160206040518083038186803b158015611a7857600080fd5b505afa158015611a8c573d6000803e3d6000fd5b505050506040513d601f19601f82011682018060405250810190611ab09190613252565b90506305f5e10081101561094d57506305f5e10061095a81601260086126f5565b603f546001600160a01b0316331480611aed5750611aed612295565b611b095760405162461bcd60e51b815260040161066290613358565b670de0b6b3a7640000811115611b515760405162461bcd60e51b815260206004820152600d60248201526c496e76616c69642076616c756560981b6044820152606401610662565b60398190556040518181527f41ecb23a0e7865b25f38c268b7c3012220d822929e9edff07326e89d5bb822b59060200161074a565b603f546001600160a01b0316331480611ba25750611ba2612295565b611bbe5760405162461bcd60e51b815260040161066290613358565b6037805460ff60a81b191690556040517f891ebab18da80ebeeea06b1b1cede098329c4c008906a98370c2ac7a80b571cb90600090a1565b611bfe612295565b611c1a5760405162461bcd60e51b815260040161066290613321565b60005b604454811015611c7d57603e5460448054611c6b926001600160a01b03169160009185908110611c4f57611c4f613633565b6000918252602090912001546001600160a01b03169190612757565b80611c75816135ec565b915050611c1d565b50603e80546001600160a01b0319166001600160a01b03831617905560005b604454811015611ce157603e5460448054611ccf926001600160a01b0316916000199185908110611c4f57611c4f613633565b80611cd9816135ec565b915050611c9c565b506040516001600160a01b03821681527fca20db57f4368388dd6766259da48cd22a485cba21ee6ec8c519007cb66dfd039060200161074a565b611d23612295565b611d3f5760405162461bcd60e51b815260040161066290613321565b603a8190556040518181527f2ec5fb5a3d2703edc461252d92ccd2799c3c74f01d97212b20388207fa17ae459060200161074a565b611d7c612295565b611d985760405162461bcd60e51b815260040161066290613321565b603b8190556040518181527f39367850377ac04920a9a670f2180e7a94d83b15ad302e59875ec58fd10bd37d9060200161074a565b603f546001600160a01b0316331480611de95750611de9612295565b611e055760405162461bcd60e51b815260040161066290613358565b604080516001600160a01b038085168252831660208201527fba58ce12801c949fa65f41c46ed108671c219baf945fa48d21026cea99ff252a910160405180910390a16001600160a01b03811615611fe1576001600160a01b03811660009081526035602052604090205460ff16611eb75760405162461bcd60e51b815260206004820152601560248201527414dd1c985d1959de481b9bdd08185c1c1c9bdd9959605a1b6044820152606401610662565b6001600160a01b038216600090815260336020526040902054819060ff16611f1a5760405162461bcd60e51b8152602060048201526016602482015275105cdcd95d081a5cc81b9bdd081cdd5c1c1bdc9d195960521b6044820152606401610662565b60405163551c457b60e11b81526001600160a01b03848116600483015282169063aa388af69060240160206040518083038186803b158015611f5b57600080fd5b505afa158015611f6f573d6000803e3d6000fd5b505050506040513d601f19601f82011682018060405250810190611f939190613217565b611fdf5760405162461bcd60e51b815260206004820152601f60248201527f4173736574206e6f7420737570706f72746564206279205374726174656779006044820152606401610662565b505b6001600160a01b03918216600090815260406020819052902080546001600160a01b03191691909216179055565b612017612295565b6120335760405162461bcd60e51b815260040161066290613321565b60445460005b60445481101561209557826001600160a01b03166044828154811061206057612060613633565b6000918252602090912001546001600160a01b0316141561208357809150612095565b8061208d816135ec565b915050612039565b506044548114156120df5760405162461bcd60e51b815260206004820152601460248201527314ddd85c081d1bdad95b881b9bdd08185919195960621b6044820152606401610662565b805b6044546120f0906001906135a5565b81101561217b576044612104826001613461565b8154811061211457612114613633565b600091825260209091200154604480546001600160a01b03909216918390811061214057612140613633565b600091825260209091200180546001600160a01b0319166001600160a01b039290921691909117905580612173816135ec565b9150506120e1565b50604480548061218d5761218d61361d565b600082815260209020810160001990810180546001600160a01b0319169055019055603e546001600160a01b0316156121df57603e5482906121dd906001600160a01b0380841691166000612757565b505b6040516001600160a01b03831681527f4391927cd15f9cac8e830ce47413c6548683f1ba75ff8ca58985f6d4bbb21cb69060200160405180910390a15050565b603f546001600160a01b031633148061223b575061223b612295565b6122575760405162461bcd60e51b815260040161066290613358565b6037805460ff60a01b1916600160a01b1790556040517f8cff26a5985614b3d30629cc4ab83824bf115aec971b718d8f2f99562032e97290600090a1565b60006122ad6000805160206136758339815191525490565b6001600160a01b0316336001600160a01b031614905090565b603f546001600160a01b03163314806122e257506122e2612295565b6122fe5760405162461bcd60e51b815260040161066290613358565b60005b6036548110156107bd5760006036828154811061232057612320613633565b60009182526020822001546040805163429c145b60e11b815290516001600160a01b039092169350839263853828b69260048084019382900301818387803b15801561236b57600080fd5b505af115801561237f573d6000803e3d6000fd5b5050505050808061238f906135ec565b915050612301565b61239f612295565b6123bb5760405162461bcd60e51b815260040161066290613321565b6123e3817f44c4d30b2eaad5130ad70c3ba6972730566f3e6359ab83e800d905c61b1c51db55565b806001600160a01b03166124036000805160206136758339815191525490565b6001600160a01b03167fa39cc5eb22d0f34d8beaefee8a3f17cc229c1a1d1ef87a5ad47313487b1c4f0d60405160405180910390a350565b612443612295565b61245f5760405162461bcd60e51b815260040161066290613321565b60388190556040518181527fd6c7508d6658ccee36b7b7d7fd72e5cbaeefb40c64eff24e9ae7470e846304ee9060200161074a565b61249c612295565b6124b85760405162461bcd60e51b815260040161066290613321565b803b6125125760405162461bcd60e51b8152602060048201526024808201527f6e657720696d706c656d656e746174696f6e206973206e6f74206120636f6e746044820152631c9858dd60e21b6064820152608401610662565b7fa2bd3d3cf188a41358c8b401076eb59066b09dec5775650c0de4c55187d17bd955565b6044818154811061254657600080fd5b6000918252602090912001546001600160a01b0316905081565b60008190506000816001600160a01b031663125f9e336040518163ffffffff1660e01b815260040160206040518083038186803b1580156125a057600080fd5b505afa1580156125b4573d6000803e3d6000fd5b505050506040513d601f19601f820116820180604052508101906125d8919061303b565b90506001600160a01b0381161561263d57816001600160a01b0316630242241d6040518163ffffffff1660e01b8152600401600060405180830381600087803b15801561262457600080fd5b505af1158015612638573d6000803e3d6000fd5b505050505b505050565b60005b6044548110156107bd5761267f6044828154811061266557612665613633565b6000918252602090912001546001600160a01b031661287b565b508061268a816135ec565b915050612645565b6040516001600160a01b03831660248201526044810182905261263d90849063a9059cbb60e01b906064015b60408051601f198184030181529190526020810180516001600160e01b03166001600160e01b031990931692909217909152612c7e565b6000818311156127255761271e61270c83856135a5565b61271790600a6134de565b8590612d50565b935061274f565b8183101561274f5761274c61273a84846135a5565b61274590600a6134de565b8590612d65565b93505b509192915050565b8015806127e05750604051636eb1769f60e11b81523060048201526001600160a01b03838116602483015284169063dd62ed3e9060440160206040518083038186803b1580156127a657600080fd5b505afa1580156127ba573d6000803e3d6000fd5b505050506040513d601f19601f820116820180604052508101906127de9190613252565b155b61284b5760405162461bcd60e51b815260206004820152603660248201527f5361666545524332303a20617070726f76652066726f6d206e6f6e2d7a65726f60448201527520746f206e6f6e2d7a65726f20616c6c6f77616e636560501b6064820152608401610662565b6040516001600160a01b03831660248201526044810182905261263d90849063095ea7b360e01b906064016126be565b603e546060906001600160a01b031615611415576040516370a0823160e01b815230600482015282906000906001600160a01b038316906370a082319060240160206040518083038186803b1580156128d357600080fd5b505afa1580156128e7573d6000803e3d6000fd5b505050506040513d601f19601f8201168201806040525081019061290b9190613252565b90508015612bb6576037546040516315d5220f60e31b81526001600160a01b038681166004830152600092169063aea910789060240160206040518083038186803b15801561295957600080fd5b505afa15801561296d573d6000803e3d6000fd5b505050506040513d601f19601f820116820180604052508101906129919190613252565b905060006129d660066129a388612d71565b6129ae906008613461565b60646129ba8688613586565b6129c5906061613586565b6129cf9190613479565b91906126f5565b6040805160038082526080820190925291925060009190602082016060803683370190505090508681600081518110612a1157612a11613633565b6001600160a01b03928316602091820292909201810191909152603e54604080516315ab88c960e31b81529051919093169263ad5c4648926004808301939192829003018186803b158015612a6557600080fd5b505afa158015612a79573d6000803e3d6000fd5b505050506040513d601f19601f82011682018060405250810190612a9d919061303b565b81600181518110612ab057612ab0613633565b60200260200101906001600160a01b031690816001600160a01b0316815250506034600181548110612ae457612ae4613633565b9060005260206000200160009054906101000a90046001600160a01b031681600281518110612b1557612b15613633565b6001600160a01b039283166020918202929092010152603e546040516338ed173960e01b81529116906338ed173990612b5a90879086908690309042906004016133f0565b600060405180830381600087803b158015612b7457600080fd5b505af1158015612b88573d6000803e3d6000fd5b505050506040513d6000823e601f3d908101601f19168201604052612bb09190810190613152565b95505050505b5050919050565b6001600160a01b038116612c135760405162461bcd60e51b815260206004820152601a60248201527f4e657720476f7665726e6f7220697320616464726573732830290000000000006044820152606401610662565b806001600160a01b0316612c336000805160206136758339815191525490565b6001600160a01b03167fc7c0c772add429241571afb3805861fb3cfa2af374534088b76cdb4325a87e9a60405160405180910390a36107bd8160008051602061367583398151915255565b6000612cd3826040518060400160405280602081526020017f5361666545524332303a206c6f772d6c6576656c2063616c6c206661696c6564815250856001600160a01b0316612e5a9092919063ffffffff16565b80519091501561263d5780806020019051810190612cf19190613217565b61263d5760405162461bcd60e51b815260206004820152602a60248201527f5361666545524332303a204552433230206f7065726174696f6e20646964206e6044820152691bdd081cdd58d8d9595960b21b6064820152608401610662565b6000612d5c8284613586565b90505b92915050565b6000612d5c8284613479565b600080826001600160a01b031663313ce5676040518163ffffffff1660e01b815260040160206040518083038186803b158015612dad57600080fd5b505afa158015612dc1573d6000803e3d6000fd5b505050506040513d601f19601f82011682018060405250810190612de5919061326b565b60ff16905060048110158015612dfc575060128111155b612d5f5760405162461bcd60e51b815260206004820152602960248201527f546f6b656e206d75737420686176652073756666696369656e7420646563696d604482015268616c20706c6163657360b81b6064820152608401610662565b6060612e698484600085612e71565b949350505050565b606082471015612ed25760405162461bcd60e51b815260206004820152602660248201527f416464726573733a20696e73756666696369656e742062616c616e636520666f6044820152651c8818d85b1b60d21b6064820152608401610662565b843b612f205760405162461bcd60e51b815260206004820152601d60248201527f416464726573733a2063616c6c20746f206e6f6e2d636f6e74726163740000006044820152606401610662565b600080866001600160a01b03168587604051612f3c919061328e565b60006040518083038185875af1925050503d8060008114612f79576040519150601f19603f3d011682016040523d82523d6000602084013e612f7e565b606091505b5091509150612f8e828286612f99565b979650505050505050565b60608315612fa857508161095a565b825115612fb85782518084602001fd5b8160405162461bcd60e51b815260040161066291906132ee565b60008083601f840112612fe457600080fd5b50813567ffffffffffffffff811115612ffc57600080fd5b6020830191508360208260051b850101111561301757600080fd5b9250929050565b60006020828403121561303057600080fd5b813561095a8161365f565b60006020828403121561304d57600080fd5b815161095a8161365f565b6000806040838503121561306b57600080fd5b82356130768161365f565b915060208301356130868161365f565b809150509250929050565b600080600080600080608087890312156130aa57600080fd5b86356130b58161365f565b955060208701356130c58161365f565b9450604087013567ffffffffffffffff808211156130e257600080fd5b6130ee8a838b01612fd2565b9096509450606089013591508082111561310757600080fd5b5061311489828a01612fd2565b979a9699509497509295939492505050565b6000806040838503121561313957600080fd5b82356131448161365f565b946020939093013593505050565b6000602080838503121561316557600080fd5b825167ffffffffffffffff8082111561317d57600080fd5b818501915085601f83011261319157600080fd5b8151818111156131a3576131a3613649565b8060051b604051601f19603f830116810181811085821117156131c8576131c8613649565b604052828152858101935084860182860187018a10156131e757600080fd5b600095505b8386101561320a5780518552600195909501949386019386016131ec565b5098975050505050505050565b60006020828403121561322957600080fd5b8151801515811461095a57600080fd5b60006020828403121561324b57600080fd5b5035919050565b60006020828403121561326457600080fd5b5051919050565b60006020828403121561327d57600080fd5b815160ff8116811461095a57600080fd5b600082516132a08184602087016135bc565b9190910192915050565b6020808252825182820181905260009190848201906040850190845b818110156132e2578351835292840192918401916001016132c6565b50909695505050505050565b602081526000825180602084015261330d8160408501602087016135bc565b601f01601f19169190910160400192915050565b6020808252601a908201527f43616c6c6572206973206e6f742074686520476f7665726e6f72000000000000604082015260600190565b60208082526028908201527f43616c6c6572206973206e6f74207468652053747261746567697374206f722060408201526723b7bb32b93737b960c11b606082015260800190565b60208082526030908201527f43616c6c6572206973206e6f7420746865205661756c742c20476f7665726e6f60408201526f1c8b081bdc8814dd1c985d1959da5cdd60821b606082015260800190565b600060a082018783526020878185015260a0604085015281875180845260c086019150828901935060005b818110156134405784516001600160a01b03168352938301939183019160010161341b565b50506001600160a01b03969096166060850152505050608001529392505050565b6000821982111561347457613474613607565b500190565b60008261349657634e487b7160e01b600052601260045260246000fd5b500490565b600181815b808511156134d65781600019048211156134bc576134bc613607565b808516156134c957918102915b93841c93908002906134a0565b509250929050565b6000612d5c83836000826134f457506001612d5f565b8161350157506000612d5f565b816001811461351757600281146135215761353d565b6001915050612d5f565b60ff84111561353257613532613607565b50506001821b612d5f565b5060208310610133831016604e8410600b8410161715613560575081810a612d5f565b61356a838361349b565b806000190482111561357e5761357e613607565b029392505050565b60008160001904831182151516156135a0576135a0613607565b500290565b6000828210156135b7576135b7613607565b500390565b60005b838110156135d75781810151838201526020016135bf565b838111156135e6576000848401525b50505050565b600060001982141561360057613600613607565b5060010190565b634e487b7160e01b600052601160045260246000fd5b634e487b7160e01b600052603160045260246000fd5b634e487b7160e01b600052603260045260246000fd5b634e487b7160e01b600052604160045260246000fd5b6001600160a01b03811681146107bd57600080fdfe7bea13895fa79d2831e0a9e28edede30099005a50d652d8957cf8a607ee6ca4aa26469706673582212207e791469b5d317c17602f061e08c0b33c83ebda362213f2c0b9188cecd7e31ad64736f6c634300080700337bea13895fa79d2831e0a9e28edede30099005a50d652d8957cf8a607ee6ca4a",
  "devdoc": {
    "kind": "dev",
    "methods": {
      "addSwapToken(address)": {
        "details": "Add a swap token to the tokens that get liquidated for stablecoins      whenever swap is called. The token must have a valid feed registered      with the price provider.",
        "params": {
          "_addr": "Address of the token"
        }
      },
      "approveStrategy(address)": {
        "details": "Add a strategy to the Vault.",
        "params": {
          "_addr": "Address of the strategy to add"
        }
      },
      "claimGovernance()": {
        "details": "Claim Governance of the contract to a new account (`newGovernor`). Can only be called by the new Governor."
      },
      "governor()": {
        "details": "Returns the address of the current Governor."
      },
      "harvest()": {
        "details": "Collect reward tokens from all strategies"
      },
      "harvest(address)": {
        "details": "Collect reward tokens for a specific strategy. Called from the vault.",
        "params": {
          "_strategyAddr": "Address of the strategy to collect rewards from"
        }
      },
      "harvestAndSwap(address)": {
        "details": "Collect reward tokens for a specific strategy and swap for supported      stablecoin via Uniswap. Called from the vault.",
        "params": {
          "_strategyAddr": "Address of the strategy to collect rewards from"
        }
      },
      "isGovernor()": {
        "details": "Returns true if the caller is the current Governor."
      },
      "pauseCapital()": {
        "details": "Set the deposit paused flag to true to prevent capital movement."
      },
      "pauseRebase()": {
        "details": "Set the deposit paused flag to true to prevent rebasing."
      },
      "priceUSDMint(address)": {
        "details": "Returns the total price in 18 digit USD for a given asset.      Never goes above 1, since that is how we price mints",
        "params": {
          "asset": "address of the asset"
        },
        "returns": {
          "_0": "uint256 USD price of 1 of the asset, in 18 decimal fixed"
        }
      },
      "priceUSDRedeem(address)": {
        "details": "Returns the total price in 18 digit USD for a given asset.      Never goes below 1, since that is how we price redeems",
        "params": {
          "asset": "Address of the asset"
        },
        "returns": {
          "_0": "uint256 USD price of 1 of the asset, in 18 decimal fixed"
        }
      },
      "reallocate(address,address,address[],uint256[])": {
        "params": {
          "_amounts": "Array of amounts of each corresponding asset to move.",
          "_assets": "Array of asset address that will be moved",
          "_strategyFromAddress": "Address of Strategy to move assets from.",
          "_strategyToAddress": "Address of Strategy to move assets to."
        }
      },
      "removeStrategy(address)": {
        "details": "Remove a strategy from the Vault. Removes all invested assets and returns them to the Vault.",
        "params": {
          "_addr": "Address of the strategy to remove"
        }
      },
      "removeSwapToken(address)": {
        "details": "Remove a swap token from the tokens that get liquidated for stablecoins.",
        "params": {
          "_addr": "Address of the token"
        }
      },
      "setAdminImpl(address)": {
        "details": "set the implementation for the admin, this needs to be in a base class else we cannot set it",
        "params": {
          "newImpl": "address of the implementation"
        }
      },
      "setAssetDefaultStrategy(address,address)": {
        "details": "Set the default Strategy for an asset, i.e. the one which the asset will be automatically allocated to and withdrawn from",
        "params": {
          "_asset": "Address of the asset",
          "_strategy": "Address of the Strategy"
        }
      },
      "setAutoAllocateThreshold(uint256)": {
        "details": "Sets the minimum amount of OUSD in a mint to trigger an automatic allocation of funds afterwords.",
        "params": {
          "_threshold": "OUSD amount with 18 fixed decimals."
        }
      },
      "setMaxSupplyDiff(uint256)": {
        "details": "Sets the maximum allowable difference between total supply and backing assets' value."
      },
      "setPriceProvider(address)": {
        "details": "Set address of price provider.",
        "params": {
          "_priceProvider": "Address of price provider"
        }
      },
      "setRebaseThreshold(uint256)": {
        "details": "Set a minimum amount of OUSD in a mint or redeem that triggers a rebase",
        "params": {
          "_threshold": "OUSD amount with 18 fixed decimals."
        }
      },
      "setRedeemFeeBps(uint256)": {
        "details": "Set a fee in basis points to be charged for a redeem.",
        "params": {
          "_redeemFeeBps": "Basis point fee to be charged"
        }
      },
      "setStrategistAddr(address)": {
        "details": "Set address of Strategist",
        "params": {
          "_address": "Address of Strategist"
        }
      },
      "setTrusteeAddress(address)": {
        "details": "Sets the trusteeAddress that can receive a portion of yield.      Setting to the zero address disables this feature."
      },
      "setTrusteeFeeBps(uint256)": {
        "details": "Sets the TrusteeFeeBps to the percentage of yield that should be      received in basis points."
      },
      "setUniswapAddr(address)": {
        "details": "Set address of Uniswap for performing liquidation of strategy reward tokens",
        "params": {
          "_address": "Address of Uniswap"
        }
      },
      "setVaultBuffer(uint256)": {
        "details": "Set a buffer of assets to keep in the Vault to handle most redemptions without needing to spend gas unwinding assets from a Strategy.",
        "params": {
          "_vaultBuffer": "Percentage using 18 decimals. 100% = 1e18."
        }
      },
      "supportAsset(address)": {
        "details": "Add a supported asset to the contract, i.e. one that can be         to mint OUSD.",
        "params": {
          "_asset": "Address of asset"
        }
      },
      "swap()": {
        "details": "Swap all supported swap tokens for stablecoins via Uniswap."
      },
      "transferGovernance(address)": {
        "details": "Transfers Governance of the contract to a new account (`newGovernor`). Can only be called by the current Governor. Must be claimed for this to complete",
        "params": {
          "_newGovernor": "Address of the new Governor"
        }
      },
      "transferToken(address,uint256)": {
        "details": "Transfer token to governor. Intended for recovering tokens stuck in      contract, i.e. mistaken sends.",
        "params": {
          "_amount": "Amount of the asset to transfer",
          "_asset": "Address for the asset"
        }
      },
      "unpauseCapital()": {
        "details": "Set the deposit paused flag to false to enable capital movement."
      },
      "unpauseRebase()": {
        "details": "Set the deposit paused flag to true to allow rebasing."
      },
      "withdrawAllFromStrategies()": {
        "details": "Withdraws all assets from all the strategies and sends assets to the Vault."
      },
      "withdrawAllFromStrategy(address)": {
        "details": "Withdraws all assets from the strategy and sends assets to the Vault.",
        "params": {
          "_strategyAddr": "Strategy address."
        }
      }
    },
    "version": 1
  },
  "userdoc": {
    "kind": "user",
    "methods": {
      "reallocate(address,address,address[],uint256[])": {
        "notice": "Move assets from one Strategy to another"
      }
    },
    "version": 1
  },
  "storageLayout": {
    "storage": [
      {
        "astId": 16815,
        "contract": "contracts/vault/VaultAdmin.sol:VaultAdmin",
        "label": "initialized",
        "offset": 0,
        "slot": "0",
        "type": "t_bool"
      },
      {
        "astId": 16818,
        "contract": "contracts/vault/VaultAdmin.sol:VaultAdmin",
        "label": "initializing",
        "offset": 1,
        "slot": "0",
        "type": "t_bool"
      },
      {
        "astId": 16858,
        "contract": "contracts/vault/VaultAdmin.sol:VaultAdmin",
        "label": "______gap",
        "offset": 0,
        "slot": "1",
        "type": "t_array(t_uint256)50_storage"
      },
      {
        "astId": 20916,
        "contract": "contracts/vault/VaultAdmin.sol:VaultAdmin",
        "label": "assets",
        "offset": 0,
        "slot": "51",
        "type": "t_mapping(t_address,t_struct(Asset)20911_storage)"
      },
      {
        "astId": 20919,
        "contract": "contracts/vault/VaultAdmin.sol:VaultAdmin",
        "label": "allAssets",
        "offset": 0,
        "slot": "52",
        "type": "t_array(t_address)dyn_storage"
      },
      {
        "astId": 20929,
        "contract": "contracts/vault/VaultAdmin.sol:VaultAdmin",
        "label": "strategies",
        "offset": 0,
        "slot": "53",
        "type": "t_mapping(t_address,t_struct(Strategy)20924_storage)"
      },
      {
        "astId": 20932,
        "contract": "contracts/vault/VaultAdmin.sol:VaultAdmin",
        "label": "allStrategies",
        "offset": 0,
        "slot": "54",
        "type": "t_array(t_address)dyn_storage"
      },
      {
        "astId": 20934,
        "contract": "contracts/vault/VaultAdmin.sol:VaultAdmin",
        "label": "priceProvider",
        "offset": 0,
        "slot": "55",
        "type": "t_address"
      },
      {
        "astId": 20937,
        "contract": "contracts/vault/VaultAdmin.sol:VaultAdmin",
        "label": "rebasePaused",
        "offset": 20,
        "slot": "55",
        "type": "t_bool"
      },
      {
        "astId": 20940,
        "contract": "contracts/vault/VaultAdmin.sol:VaultAdmin",
        "label": "capitalPaused",
        "offset": 21,
        "slot": "55",
        "type": "t_bool"
      },
      {
        "astId": 20942,
        "contract": "contracts/vault/VaultAdmin.sol:VaultAdmin",
        "label": "redeemFeeBps",
        "offset": 0,
        "slot": "56",
        "type": "t_uint256"
      },
      {
        "astId": 20944,
        "contract": "contracts/vault/VaultAdmin.sol:VaultAdmin",
        "label": "vaultBuffer",
        "offset": 0,
        "slot": "57",
        "type": "t_uint256"
      },
      {
        "astId": 20946,
        "contract": "contracts/vault/VaultAdmin.sol:VaultAdmin",
        "label": "autoAllocateThreshold",
        "offset": 0,
        "slot": "58",
        "type": "t_uint256"
      },
      {
        "astId": 20948,
        "contract": "contracts/vault/VaultAdmin.sol:VaultAdmin",
        "label": "rebaseThreshold",
        "offset": 0,
        "slot": "59",
        "type": "t_uint256"
      },
      {
        "astId": 20951,
        "contract": "contracts/vault/VaultAdmin.sol:VaultAdmin",
        "label": "oUSD",
        "offset": 0,
        "slot": "60",
        "type": "t_contract(OUSD)16756"
      },
      {
        "astId": 20960,
        "contract": "contracts/vault/VaultAdmin.sol:VaultAdmin",
        "label": "_deprecated_rebaseHooksAddr",
        "offset": 0,
        "slot": "61",
        "type": "t_address"
      },
      {
        "astId": 20966,
        "contract": "contracts/vault/VaultAdmin.sol:VaultAdmin",
        "label": "uniswapAddr",
        "offset": 0,
        "slot": "62",
        "type": "t_address"
      },
      {
        "astId": 20972,
        "contract": "contracts/vault/VaultAdmin.sol:VaultAdmin",
        "label": "strategistAddr",
        "offset": 0,
        "slot": "63",
        "type": "t_address"
      },
      {
        "astId": 20976,
        "contract": "contracts/vault/VaultAdmin.sol:VaultAdmin",
        "label": "assetDefaultStrategies",
        "offset": 0,
        "slot": "64",
        "type": "t_mapping(t_address,t_address)"
      },
      {
        "astId": 20978,
        "contract": "contracts/vault/VaultAdmin.sol:VaultAdmin",
        "label": "maxSupplyDiff",
        "offset": 0,
        "slot": "65",
        "type": "t_uint256"
      },
      {
        "astId": 20980,
        "contract": "contracts/vault/VaultAdmin.sol:VaultAdmin",
        "label": "trusteeAddress",
        "offset": 0,
        "slot": "66",
        "type": "t_address"
      },
      {
        "astId": 20982,
        "contract": "contracts/vault/VaultAdmin.sol:VaultAdmin",
        "label": "trusteeFeeBps",
        "offset": 0,
        "slot": "67",
        "type": "t_uint256"
      },
      {
        "astId": 20985,
        "contract": "contracts/vault/VaultAdmin.sol:VaultAdmin",
        "label": "swapTokens",
        "offset": 0,
        "slot": "68",
        "type": "t_array(t_address)dyn_storage"
      }
    ],
    "types": {
      "t_address": {
        "encoding": "inplace",
        "label": "address",
        "numberOfBytes": "20"
      },
      "t_array(t_address)dyn_storage": {
        "base": "t_address",
        "encoding": "dynamic_array",
        "label": "address[]",
        "numberOfBytes": "32"
      },
      "t_array(t_uint256)50_storage": {
        "base": "t_uint256",
        "encoding": "inplace",
        "label": "uint256[50]",
        "numberOfBytes": "1600"
      },
      "t_bool": {
        "encoding": "inplace",
        "label": "bool",
        "numberOfBytes": "1"
      },
      "t_contract(OUSD)16756": {
        "encoding": "inplace",
        "label": "contract OUSD",
        "numberOfBytes": "20"
      },
      "t_mapping(t_address,t_address)": {
        "encoding": "mapping",
        "key": "t_address",
        "label": "mapping(address => address)",
        "numberOfBytes": "32",
        "value": "t_address"
      },
      "t_mapping(t_address,t_struct(Asset)20911_storage)": {
        "encoding": "mapping",
        "key": "t_address",
        "label": "mapping(address => struct VaultStorage.Asset)",
        "numberOfBytes": "32",
        "value": "t_struct(Asset)20911_storage"
      },
      "t_mapping(t_address,t_struct(Strategy)20924_storage)": {
        "encoding": "mapping",
        "key": "t_address",
        "label": "mapping(address => struct VaultStorage.Strategy)",
        "numberOfBytes": "32",
        "value": "t_struct(Strategy)20924_storage"
      },
      "t_struct(Asset)20911_storage": {
        "encoding": "inplace",
        "label": "struct VaultStorage.Asset",
        "members": [
          {
            "astId": 20910,
            "contract": "contracts/vault/VaultAdmin.sol:VaultAdmin",
            "label": "isSupported",
            "offset": 0,
            "slot": "0",
            "type": "t_bool"
          }
        ],
        "numberOfBytes": "32"
      },
      "t_struct(Strategy)20924_storage": {
        "encoding": "inplace",
        "label": "struct VaultStorage.Strategy",
        "members": [
          {
            "astId": 20921,
            "contract": "contracts/vault/VaultAdmin.sol:VaultAdmin",
            "label": "isSupported",
            "offset": 0,
            "slot": "0",
            "type": "t_bool"
          },
          {
            "astId": 20923,
            "contract": "contracts/vault/VaultAdmin.sol:VaultAdmin",
            "label": "_deprecated",
            "offset": 0,
            "slot": "1",
            "type": "t_uint256"
          }
        ],
        "numberOfBytes": "64"
      },
      "t_uint256": {
        "encoding": "inplace",
        "label": "uint256",
        "numberOfBytes": "32"
      }
    }
  }
}