{
  "address": "0x5B98B3255522E95f842967723Ee4Cc7dCEaa9150",
  "abi": [
    {
      "inputs": [
        {
          "internalType": "address",
          "name": "_vault",
          "type": "address"
        }
      ],
      "stateMutability": "nonpayable",
      "type": "constructor"
    },
    {
      "inputs": [
        {
          "internalType": "int256",
          "name": "maxLoss",
          "type": "int256"
        }
      ],
      "name": "checkLoss",
      "outputs": [],
      "stateMutability": "nonpayable",
      "type": "function"
    },
    {
      "inputs": [],
      "name": "snapshotValue",
      "outputs": [
        {
          "internalType": "uint256",
          "name": "",
          "type": "uint256"
        }
      ],
      "stateMutability": "view",
      "type": "function"
    },
    {
      "inputs": [],
      "name": "takeSnapshot",
      "outputs": [],
      "stateMutability": "nonpayable",
      "type": "function"
    },
    {
      "inputs": [],
      "name": "vault",
      "outputs": [
        {
          "internalType": "contract VaultCore",
          "name": "",
          "type": "address"
        }
      ],
      "stateMutability": "view",
      "type": "function"
    }
  ],
  "transactionHash": "0xa5acddd8f72d0300253f4aa115fde181d7dc7c967102bfd735d5a6f297e12edb",
  "args": [
    "0xE75D77B1865Ae93c7eaa3040B038D7aA7BC02F70"
  ],
  "solcInputHash": "13fa0b125dadc24af07fdb6493ded77f",
  "bytecode": "0x608060405234801561001057600080fd5b5060405161036d38038061036d83398101604081905261002f91610054565b600180546001600160a01b0319166001600160a01b0392909216919091179055610084565b60006020828403121561006657600080fd5b81516001600160a01b038116811461007d57600080fd5b9392505050565b6102da806100936000396000f3fe608060405234801561001057600080fd5b506004361061004c5760003560e01c80632cd47c2314610051578063b3d3d37e14610066578063bbfb21391461006e578063fbfa77cf1461008a575b600080fd5b61006461005f36600461021d565b6100b5565b005b610064610192565b61007760005481565b6040519081526020015b60405180910390f35b60015461009d906001600160a01b031681565b6040516001600160a01b039091168152602001610081565b600154604080516306a61f7560e51b815290516000926001600160a01b03169163d4c3eea0916004808301926020929190829003018186803b1580156100fa57600080fd5b505afa15801561010e573d6000803e3d6000fd5b505050506040513d601f19601f820116820180604052508101906101329190610236565b9050600081600054610144919061024f565b905082811261018d5760405162461bcd60e51b815260206004820152601160248201527013585e081b1bdcdcc8195e18d959591959607a1b604482015260640160405180910390fd5b505050565b600160009054906101000a90046001600160a01b03166001600160a01b031663d4c3eea06040518163ffffffff1660e01b815260040160206040518083038186803b1580156101e057600080fd5b505afa1580156101f4573d6000803e3d6000fd5b505050506040513d601f19601f820116820180604052508101906102189190610236565b600055565b60006020828403121561022f57600080fd5b5035919050565b60006020828403121561024857600080fd5b5051919050565b60008083128015600160ff1b85018412161561026d5761026d61028e565b6001600160ff1b03840183138116156102885761028861028e565b50500390565b634e487b7160e01b600052601160045260246000fdfea26469706673582212208d6e2615ca8981066020e67db54a9daaa5d6e4212a7894475b91ac12e583827364736f6c63430008070033",
  "devdoc": {
    "kind": "dev",
    "methods": {},
    "version": 1
  },
  "userdoc": {
    "kind": "user",
    "methods": {},
    "version": 1
  },
  "storageLayout": {
    "storage": [
      {
        "astId": 15928,
        "contract": "contracts/strategies/VaultValueChecker.sol:VaultValueChecker",
        "label": "snapshotValue",
        "offset": 0,
        "slot": "0",
        "type": "t_uint256"
      },
      {
        "astId": 15931,
        "contract": "contracts/strategies/VaultValueChecker.sol:VaultValueChecker",
        "label": "vault",
        "offset": 0,
        "slot": "1",
        "type": "t_contract(VaultCore)21405"
      }
    ],
    "types": {
      "t_contract(VaultCore)21405": {
        "encoding": "inplace",
        "label": "contract VaultCore",
        "numberOfBytes": "20"
      },
      "t_uint256": {
        "encoding": "inplace",
        "label": "uint256",
        "numberOfBytes": "32"
      }
    }
  }
}