{
  "address": "0xE54f14FC3fBc5915D070DE4758bcF591541BD1c3",
  "abi": [
    {
      "constant": true,
      "inputs": [],
      "name": "redeemFeeBps",
      "outputs": [
        {
          "internalType": "uint256",
          "name": "",
          "type": "uint256"
        }
      ],
      "payable": false,
      "stateMutability": "view",
      "type": "function"
    },
    {
      "constant": true,
      "inputs": [],
      "name": "governor",
      "outputs": [
        {
          "internalType": "address",
          "name": "",
          "type": "address"
        }
      ],
      "payable": false,
      "stateMutability": "view",
      "type": "function"
    },
    {
      "constant": true,
      "inputs": [],
      "name": "uniswapAddr",
      "outputs": [
        {
          "internalType": "address",
          "name": "",
          "type": "address"
        }
      ],
      "payable": false,
      "stateMutability": "view",
      "type": "function"
    },
    {
      "constant": false,
      "inputs": [
        {
          "internalType": "address",
          "name": "_asset",
          "type": "address"
        },
        {
          "internalType": "uint256",
          "name": "_amount",
          "type": "uint256"
        },
        {
          "internalType": "uint256",
          "name": "_minimumOusdAmount",
          "type": "uint256"
        }
      ],
      "name": "mint",
      "outputs": [],
      "payable": false,
      "stateMutability": "nonpayable",
      "type": "function"
    },
    {
      "constant": true,
      "inputs": [],
      "name": "vaultBuffer",
      "outputs": [
        {
          "internalType": "uint256",
          "name": "",
          "type": "uint256"
        }
      ],
      "payable": false,
      "stateMutability": "view",
      "type": "function"
    },
    {
      "constant": true,
      "inputs": [],
      "name": "getAllAssets",
      "outputs": [
        {
          "internalType": "address[]",
          "name": "",
          "type": "address[]"
        }
      ],
      "payable": false,
      "stateMutability": "view",
      "type": "function"
    },
    {
      "constant": true,
      "inputs": [],
      "name": "getStrategyCount",
      "outputs": [
        {
          "internalType": "uint256",
          "name": "",
          "type": "uint256"
        }
      ],
      "payable": false,
      "stateMutability": "view",
      "type": "function"
    },
    {
      "constant": true,
      "inputs": [],
      "name": "rebaseThreshold",
      "outputs": [
        {
          "internalType": "uint256",
          "name": "",
          "type": "uint256"
        }
      ],
      "payable": false,
      "stateMutability": "view",
      "type": "function"
    },
    {
      "constant": true,
      "inputs": [],
      "name": "rebasePaused",
      "outputs": [
        {
          "internalType": "bool",
          "name": "",
          "type": "bool"
        }
      ],
      "payable": false,
      "stateMutability": "view",
      "type": "function"
    },
    {
      "constant": true,
      "inputs": [],
      "name": "strategistAddr",
      "outputs": [
        {
          "internalType": "address",
          "name": "",
          "type": "address"
        }
      ],
      "payable": false,
      "stateMutability": "view",
      "type": "function"
    },
    {
      "constant": false,
      "inputs": [],
      "name": "claimGovernance",
      "outputs": [],
      "payable": false,
      "stateMutability": "nonpayable",
      "type": "function"
    },
    {
      "constant": true,
      "inputs": [
        {
          "internalType": "address",
          "name": "_asset",
          "type": "address"
        }
      ],
      "name": "checkBalance",
      "outputs": [
        {
          "internalType": "uint256",
          "name": "",
          "type": "uint256"
        }
      ],
      "payable": false,
      "stateMutability": "view",
      "type": "function"
    },
    {
      "constant": true,
      "inputs": [
        {
          "internalType": "uint256",
          "name": "_amount",
          "type": "uint256"
        }
      ],
      "name": "calculateRedeemOutputs",
      "outputs": [
        {
          "internalType": "uint256[]",
          "name": "",
          "type": "uint256[]"
        }
      ],
      "payable": false,
      "stateMutability": "view",
      "type": "function"
    },
    {
      "constant": false,
      "inputs": [
        {
          "internalType": "uint256",
          "name": "_minimumUnitAmount",
          "type": "uint256"
        }
      ],
      "name": "redeemAll",
      "outputs": [],
      "payable": false,
      "stateMutability": "nonpayable",
      "type": "function"
    },
    {
      "constant": false,
      "inputs": [
        {
          "internalType": "uint256",
          "name": "_amount",
          "type": "uint256"
        },
        {
          "internalType": "uint256",
          "name": "_minimumUnitAmount",
          "type": "uint256"
        }
      ],
      "name": "redeem",
      "outputs": [],
      "payable": false,
      "stateMutability": "nonpayable",
      "type": "function"
    },
    {
      "constant": true,
      "inputs": [],
      "name": "maxSupplyDiff",
      "outputs": [
        {
          "internalType": "uint256",
          "name": "",
          "type": "uint256"
        }
      ],
      "payable": false,
      "stateMutability": "view",
      "type": "function"
    },
    {
      "constant": true,
      "inputs": [
        {
          "internalType": "address",
          "name": "_asset",
          "type": "address"
        }
      ],
      "name": "isSupportedAsset",
      "outputs": [
        {
          "internalType": "bool",
          "name": "",
          "type": "bool"
        }
      ],
      "payable": false,
      "stateMutability": "view",
      "type": "function"
    },
    {
      "constant": true,
      "inputs": [],
      "name": "autoAllocateThreshold",
      "outputs": [
        {
          "internalType": "uint256",
          "name": "",
          "type": "uint256"
        }
      ],
      "payable": false,
      "stateMutability": "view",
      "type": "function"
    },
    {
      "constant": true,
      "inputs": [],
      "name": "getAssetCount",
      "outputs": [
        {
          "internalType": "uint256",
          "name": "",
          "type": "uint256"
        }
      ],
      "payable": false,
      "stateMutability": "view",
      "type": "function"
    },
    {
      "constant": true,
      "inputs": [
        {
          "internalType": "address",
          "name": "",
          "type": "address"
        }
      ],
      "name": "assetDefaultStrategies",
      "outputs": [
        {
          "internalType": "address",
          "name": "",
          "type": "address"
        }
      ],
      "payable": false,
      "stateMutability": "view",
      "type": "function"
    },
    {
      "constant": false,
      "inputs": [],
      "name": "allocate",
      "outputs": [],
      "payable": false,
      "stateMutability": "nonpayable",
      "type": "function"
    },
    {
      "constant": false,
      "inputs": [],
      "name": "rebase",
      "outputs": [
        {
          "internalType": "uint256",
          "name": "newTotalSupply",
          "type": "uint256"
        }
      ],
      "payable": false,
      "stateMutability": "nonpayable",
      "type": "function"
    },
    {
      "constant": true,
      "inputs": [],
      "name": "priceProvider",
      "outputs": [
        {
          "internalType": "address",
          "name": "",
          "type": "address"
        }
      ],
      "payable": false,
      "stateMutability": "view",
      "type": "function"
    },
    {
      "constant": true,
      "inputs": [],
      "name": "isGovernor",
      "outputs": [
        {
          "internalType": "bool",
          "name": "",
          "type": "bool"
        }
      ],
      "payable": false,
      "stateMutability": "view",
      "type": "function"
    },
    {
      "constant": false,
      "inputs": [
        {
          "internalType": "address",
          "name": "_newGovernor",
          "type": "address"
        }
      ],
      "name": "transferGovernance",
      "outputs": [],
      "payable": false,
      "stateMutability": "nonpayable",
      "type": "function"
    },
    {
      "constant": true,
      "inputs": [],
      "name": "totalValue",
      "outputs": [
        {
          "internalType": "uint256",
          "name": "value",
          "type": "uint256"
        }
      ],
      "payable": false,
      "stateMutability": "view",
      "type": "function"
    },
    {
      "constant": true,
      "inputs": [],
      "name": "capitalPaused",
      "outputs": [
        {
          "internalType": "bool",
          "name": "",
          "type": "bool"
        }
      ],
      "payable": false,
      "stateMutability": "view",
      "type": "function"
    },
    {
      "constant": false,
      "inputs": [
        {
          "internalType": "address[]",
          "name": "_assets",
          "type": "address[]"
        },
        {
          "internalType": "uint256[]",
          "name": "_amounts",
          "type": "uint256[]"
        },
        {
          "internalType": "uint256",
          "name": "_minimumOusdAmount",
          "type": "uint256"
        }
      ],
      "name": "mintMultiple",
      "outputs": [],
      "payable": false,
      "stateMutability": "nonpayable",
      "type": "function"
    },
    {
      "constant": false,
      "inputs": [
        {
          "internalType": "address",
          "name": "newImpl",
          "type": "address"
        }
      ],
      "name": "setAdminImpl",
      "outputs": [],
      "payable": false,
      "stateMutability": "nonpayable",
      "type": "function"
    },
    {
      "payable": true,
      "stateMutability": "payable",
      "type": "fallback"
    },
    {
      "anonymous": false,
      "inputs": [
        {
          "indexed": false,
          "internalType": "address",
          "name": "_asset",
          "type": "address"
        }
      ],
      "name": "AssetSupported",
      "type": "event"
    },
    {
      "anonymous": false,
      "inputs": [
        {
          "indexed": false,
          "internalType": "address",
          "name": "_asset",
          "type": "address"
        },
        {
          "indexed": false,
          "internalType": "address",
          "name": "_strategy",
          "type": "address"
        }
      ],
      "name": "AssetDefaultStrategyUpdated",
      "type": "event"
    },
    {
      "anonymous": false,
      "inputs": [
        {
          "indexed": false,
          "internalType": "address",
          "name": "_addr",
          "type": "address"
        }
      ],
      "name": "StrategyApproved",
      "type": "event"
    },
    {
      "anonymous": false,
      "inputs": [
        {
          "indexed": false,
          "internalType": "address",
          "name": "_addr",
          "type": "address"
        }
      ],
      "name": "StrategyRemoved",
      "type": "event"
    },
    {
      "anonymous": false,
      "inputs": [
        {
          "indexed": false,
          "internalType": "address",
          "name": "_addr",
          "type": "address"
        },
        {
          "indexed": false,
          "internalType": "uint256",
          "name": "_value",
          "type": "uint256"
        }
      ],
      "name": "Mint",
      "type": "event"
    },
    {
      "anonymous": false,
      "inputs": [
        {
          "indexed": false,
          "internalType": "address",
          "name": "_addr",
          "type": "address"
        },
        {
          "indexed": false,
          "internalType": "uint256",
          "name": "_value",
          "type": "uint256"
        }
      ],
      "name": "Redeem",
      "type": "event"
    },
    {
      "anonymous": false,
      "inputs": [],
      "name": "CapitalPaused",
      "type": "event"
    },
    {
      "anonymous": false,
      "inputs": [],
      "name": "CapitalUnpaused",
      "type": "event"
    },
    {
      "anonymous": false,
      "inputs": [],
      "name": "RebasePaused",
      "type": "event"
    },
    {
      "anonymous": false,
      "inputs": [],
      "name": "RebaseUnpaused",
      "type": "event"
    },
    {
      "anonymous": false,
      "inputs": [
        {
          "indexed": false,
          "internalType": "uint256",
          "name": "_vaultBuffer",
          "type": "uint256"
        }
      ],
      "name": "VaultBufferUpdated",
      "type": "event"
    },
    {
      "anonymous": false,
      "inputs": [
        {
          "indexed": false,
          "internalType": "uint256",
          "name": "_redeemFeeBps",
          "type": "uint256"
        }
      ],
      "name": "RedeemFeeUpdated",
      "type": "event"
    },
    {
      "anonymous": false,
      "inputs": [
        {
          "indexed": false,
          "internalType": "address",
          "name": "_priceProvider",
          "type": "address"
        }
      ],
      "name": "PriceProviderUpdated",
      "type": "event"
    },
    {
      "anonymous": false,
      "inputs": [
        {
          "indexed": false,
          "internalType": "uint256",
          "name": "_threshold",
          "type": "uint256"
        }
      ],
      "name": "AllocateThresholdUpdated",
      "type": "event"
    },
    {
      "anonymous": false,
      "inputs": [
        {
          "indexed": false,
          "internalType": "uint256",
          "name": "_threshold",
          "type": "uint256"
        }
      ],
      "name": "RebaseThresholdUpdated",
      "type": "event"
    },
    {
      "anonymous": false,
      "inputs": [
        {
          "indexed": false,
          "internalType": "address",
          "name": "_address",
          "type": "address"
        }
      ],
      "name": "UniswapUpdated",
      "type": "event"
    },
    {
      "anonymous": false,
      "inputs": [
        {
          "indexed": false,
          "internalType": "address",
          "name": "_address",
          "type": "address"
        }
      ],
      "name": "StrategistUpdated",
      "type": "event"
    },
    {
      "anonymous": false,
      "inputs": [
        {
          "indexed": false,
          "internalType": "uint256",
          "name": "maxSupplyDiff",
          "type": "uint256"
        }
      ],
      "name": "MaxSupplyDiffChanged",
      "type": "event"
    },
    {
      "anonymous": false,
      "inputs": [
        {
          "indexed": true,
          "internalType": "address",
          "name": "previousGovernor",
          "type": "address"
        },
        {
          "indexed": true,
          "internalType": "address",
          "name": "newGovernor",
          "type": "address"
        }
      ],
      "name": "PendingGovernorshipTransfer",
      "type": "event"
    },
    {
      "anonymous": false,
      "inputs": [
        {
          "indexed": true,
          "internalType": "address",
          "name": "previousGovernor",
          "type": "address"
        },
        {
          "indexed": true,
          "internalType": "address",
          "name": "newGovernor",
          "type": "address"
        }
      ],
      "name": "GovernorshipTransferred",
      "type": "event"
    }
  ],
  "transactionHash": "0xd34a3c38cc175aca484668ee2c60673db41f4816165600aed935d21095591cbd",
  "args": [],
  "solcInputHash": "d641aaf0ed5d604d73e8f53c6d96978e",
  "bytecode": "0x60806040526037805461ffff60a01b19167501000000000000000000000000000000000000000000179055603d80546001600160a01b0319908116909155603e805482169055603f8054909116905562000062336001600160e01b03620000bb16565b620000756001600160e01b03620000ce16565b6001600160a01b031660006001600160a01b03167fc7c0c772add429241571afb3805861fb3cfa2af374534088b76cdb4325a87e9a60405160405180910390a3620000e2565b600080516020620037da83398151915255565b600080516020620037da8339815191525490565b6136e880620000f26000396000f3fe6080604052600436106101c25760003560e01c80637cbc2373116100f7578063af14052c11610095578063d4c3eea011610064578063d4c3eea014610590578063e6cc5432146105a5578063f0efb4c7146105ba578063fc0cfeee14610689576101c2565b8063af14052c1461051e578063b888879e14610533578063c7af335214610548578063d38bfff41461055d576101c2565b80639fa1826e116100d15780639fa1826e146104ac578063a0aead4d146104c1578063a403e4d5146104d6578063abaa991614610509576101c2565b80637cbc2373146104345780638e510b52146104645780639be918e614610479576101c2565b806352d38e5d116101645780635d36b1901161013e5780635d36b190146103985780635f515226146103ad57806367bd7ba3146103e05780637136a7a61461040a576101c2565b806352d38e5d1461034557806353ca9f241461035a578063570d8e1d14610383576101c2565b8063156e29f6116101a0578063156e29f6146102755780631edfe3da146102b65780632acada4d146102cb57806331e19cfa14610330576101c2565b806309f6442c146102085780630c340a241461022f578063128a8b0514610260575b7fa2bd3d3cf188a41358c8b401076eb59066b09dec5775650c0de4c55187d17bd9366000803760008036600084545af43d6000803e808015610203573d6000f35b3d6000fd5b34801561021457600080fd5b5061021d6106bc565b60408051918252519081900360200190f35b34801561023b57600080fd5b506102446106c2565b604080516001600160a01b039092168252519081900360200190f35b34801561026c57600080fd5b506102446106d2565b34801561028157600080fd5b506102b46004803603606081101561029857600080fd5b506001600160a01b0381351690602081013590604001356106e1565b005b3480156102c257600080fd5b5061021d610af6565b3480156102d757600080fd5b506102e0610afc565b60408051602080825283518183015283519192839290830191858101910280838360005b8381101561031c578181015183820152602001610304565b505050509050019250505060405180910390f35b34801561033c57600080fd5b5061021d610b5e565b34801561035157600080fd5b5061021d610b64565b34801561036657600080fd5b5061036f610b6a565b604080519115158252519081900360200190f35b34801561038f57600080fd5b50610244610b7a565b3480156103a457600080fd5b506102b4610b89565b3480156103b957600080fd5b5061021d600480360360208110156103d057600080fd5b50356001600160a01b0316610beb565b3480156103ec57600080fd5b506102e06004803603602081101561040357600080fd5b5035610bfc565b34801561041657600080fd5b506102b46004803603602081101561042d57600080fd5b5035610c07565b34801561044057600080fd5b506102b46004803603604081101561045757600080fd5b5080359060200135610dd9565b34801561047057600080fd5b5061021d610ec2565b34801561048557600080fd5b5061036f6004803603602081101561049c57600080fd5b50356001600160a01b0316610ec8565b3480156104b857600080fd5b5061021d610ee6565b3480156104cd57600080fd5b5061021d610eec565b3480156104e257600080fd5b50610244600480360360208110156104f957600080fd5b50356001600160a01b0316610ef2565b34801561051557600080fd5b506102b4610f0d565b34801561052a57600080fd5b5061021d610fc8565b34801561053f57600080fd5b5061024461108a565b34801561055457600080fd5b5061036f611099565b34801561056957600080fd5b506102b46004803603602081101561058057600080fd5b50356001600160a01b03166110bc565b34801561059c57600080fd5b5061021d611168565b3480156105b157600080fd5b5061036f611172565b3480156105c657600080fd5b506102b4600480360360608110156105dd57600080fd5b8101906020810181356401000000008111156105f857600080fd5b82018360208201111561060a57600080fd5b8035906020019184602083028401116401000000008311171561062c57600080fd5b91939092909160208101903564010000000081111561064a57600080fd5b82018360208201111561065c57600080fd5b8035906020019184602083028401116401000000008311171561067e57600080fd5b919350915035611182565b34801561069557600080fd5b506102b4600480360360208110156106ac57600080fd5b50356001600160a01b031661167f565b60385481565b60006106cc6116fc565b90505b90565b603e546001600160a01b031681565b603754600160a81b900460ff1615610731576040805162461bcd60e51b815260206004820152600e60248201526d10d85c1a5d185b081c185d5cd95960921b604482015290519081900360640190fd5b6000805160206135f083398151915280546002811415610789576040805162461bcd60e51b815260206004820152600e60248201526d1499595b9d1c985b9d0818d85b1b60921b604482015290519081900360640190fd5b600282556001600160a01b03851660009081526033602052604090205460ff166107f3576040805162461bcd60e51b8152602060048201526016602482015275105cdcd95d081a5cc81b9bdd081cdd5c1c1bdc9d195960521b604482015290519081900360640190fd5b60008411610848576040805162461bcd60e51b815260206004820152601d60248201527f416d6f756e74206d7573742062652067726561746572207468616e2030000000604482015290519081900360640190fd5b6037546000906001600160a01b03166319af6bf061086588611721565b6040518263ffffffff1660e01b81526004018080602001828103825283818151815260200191508051906020019080838360005b838110156108b1578181015183820152602001610899565b50505050905090810190601f1680156108de5780820380516001836020036101000a031916815260200191505b509250505060206040518083038186803b1580156108fb57600080fd5b505afa15801561090f573d6000803e3d6000fd5b505050506040513d602081101561092557600080fd5b505190506305f5e10081111561093c57506305f5e1005b600061094787611852565b9050600061095f87601284900363ffffffff61190c16565b9050600061098961097785600a63ffffffff61190c16565b8990600a86900a63ffffffff61196616565b905086156109e657868110156109e6576040805162461bcd60e51b815260206004820152601e60248201527f4d696e7420616d6f756e74206c6f776572207468616e206d696e696d756d0000604482015290519081900360640190fd5b604080513381526020810183905281517f0f6798a560793a54c3bcfe86a93cde1e73087d944c0ea20544137d4121396885929181900390910190a1603b548210158015610a3d5750603754600160a01b900460ff16155b15610a4c57610a4a611994565b505b603c54604080516340c10f1960e01b81523360048201526024810184905290516001600160a01b03909216916340c10f199160448082019260009290919082900301818387803b158015610a9f57600080fd5b505af1158015610ab3573d6000803e3d6000fd5b508b9250610ad59150506001600160a01b03821633308c63ffffffff611b5d16565b603a548310610ae657610ae6611bbd565b5050505050600182555050505050565b60395481565b60606034805480602002602001604051908101604052809291908181526020018280548015610b5457602002820191906000526020600020905b81546001600160a01b03168152600190910190602001808311610b36575b5050505050905090565b60365490565b603b5481565b603754600160a01b900460ff1681565b603f546001600160a01b031681565b610b916120ec565b6001600160a01b0316336001600160a01b031614610be05760405162461bcd60e51b81526004018080602001828103825260308152602001806136846030913960400191505060405180910390fd5b610be933612111565b565b6000610bf6826121bf565b92915050565b6060610bf682612380565b603754600160a81b900460ff1615610c57576040805162461bcd60e51b815260206004820152600e60248201526d10d85c1a5d185b081c185d5cd95960921b604482015290519081900360640190fd5b6000805160206135f083398151915280546002811415610caf576040805162461bcd60e51b815260206004820152600e60248201526d1499595b9d1c985b9d0818d85b1b60921b604482015290519081900360640190fd5b60028255603b54603c54604080516370a0823160e01b815233600482015290516001600160a01b03909216916370a0823191602480820192602092909190829003018186803b158015610d0157600080fd5b505afa158015610d15573d6000803e3d6000fd5b505050506040513d6020811015610d2b57600080fd5b5051118015610d445750603754600160a01b900460ff16155b15610d5357610d51611994565b505b603c54604080516370a0823160e01b81523360048201529051610dd1926001600160a01b0316916370a08231916024808301926020929190829003018186803b158015610d9f57600080fd5b505afa158015610db3573d6000803e3d6000fd5b505050506040513d6020811015610dc957600080fd5b505184612641565b506001905550565b603754600160a81b900460ff1615610e29576040805162461bcd60e51b815260206004820152600e60248201526d10d85c1a5d185b081c185d5cd95960921b604482015290519081900360640190fd5b6000805160206135f083398151915280546002811415610e81576040805162461bcd60e51b815260206004820152600e60248201526d1499595b9d1c985b9d0818d85b1b60921b604482015290519081900360640190fd5b60028255603b5484118015610ea05750603754600160a01b900460ff16155b15610eaf57610ead611994565b505b610eb98484612641565b50600190555050565b60415481565b6001600160a01b031660009081526033602052604090205460ff1690565b603a5481565b60345490565b6040602081905260009182529020546001600160a01b031681565b603754600160a81b900460ff1615610f5d576040805162461bcd60e51b815260206004820152600e60248201526d10d85c1a5d185b081c185d5cd95960921b604482015290519081900360640190fd5b6000805160206135f083398151915280546002811415610fb5576040805162461bcd60e51b815260206004820152600e60248201526d1499595b9d1c985b9d0818d85b1b60921b604482015290519081900360640190fd5b60028255610fc1611bbd565b5060019055565b603754600090600160a01b900460ff161561101c576040805162461bcd60e51b815260206004820152600f60248201526e149958985cda5b99c81c185d5cd959608a1b604482015290519081900360640190fd5b6000805160206135f083398151915280546002811415611074576040805162461bcd60e51b815260206004820152600e60248201526d1499595b9d1c985b9d0818d85b1b60921b604482015290519081900360640190fd5b60028255611080611994565b9250506001905590565b6037546001600160a01b031681565b60006110a36116fc565b6001600160a01b0316336001600160a01b031614905090565b6110c4611099565b611115576040805162461bcd60e51b815260206004820152601a60248201527f43616c6c6572206973206e6f742074686520476f7665726e6f72000000000000604482015290519081900360640190fd5b61111e81612bf3565b806001600160a01b03166111306116fc565b6001600160a01b03167fa39cc5eb22d0f34d8beaefee8a3f17cc229c1a1d1ef87a5ad47313487b1c4f0d60405160405180910390a350565b60006106cc612c17565b603754600160a81b900460ff1681565b603754600160a81b900460ff16156111d2576040805162461bcd60e51b815260206004820152600e60248201526d10d85c1a5d185b081c185d5cd95960921b604482015290519081900360640190fd5b6000805160206135f08339815191528054600281141561122a576040805162461bcd60e51b815260206004820152600e60248201526d1499595b9d1c985b9d0818d85b1b60921b604482015290519081900360640190fd5b60028255858414611282576040805162461bcd60e51b815260206004820152601960248201527f506172616d65746572206c656e677468206d69736d6174636800000000000000604482015290519081900360640190fd5b600080606061129082612c38565b905060005b898110156114c957603360008c8c848181106112ad57fe5b602090810292909201356001600160a01b03168352508101919091526040016000205460ff1661131d576040805162461bcd60e51b8152602060048201526016602482015275105cdcd95d081a5cc81b9bdd081cdd5c1c1bdc9d195960521b604482015290519081900360640190fd5b600089898381811061132b57fe5b9050602002013511611384576040805162461bcd60e51b815260206004820152601d60248201527f416d6f756e74206d7573742062652067726561746572207468616e2030000000604482015290519081900360640190fd5b60005b6034548110156114c0576034818154811061139e57fe5b6000918252602090912001546001600160a01b03168c8c848181106113bf57fe5b905060200201356001600160a01b03166001600160a01b031614156114b857600061140a603483815481106113f057fe5b6000918252602090912001546001600160a01b0316611852565b9050600084838151811061141a57fe5b60200260200101519050670de0b6b3a764000081111561143f5750670de0b6b3a76400005b61147761146a836012038e8e8881811061145557fe5b9050602002013561190c90919063ffffffff16565b889063ffffffff612e3e16565b96506114b36114a68284600a0a8f8f8981811061149057fe5b905060200201356119669092919063ffffffff16565b879063ffffffff612e3e16565b955050505b600101611387565b50600101611295565b5085156115255785821015611525576040805162461bcd60e51b815260206004820152601e60248201527f4d696e7420616d6f756e74206c6f776572207468616e206d696e696d756d0000604482015290519081900360640190fd5b604080513381526020810184905281517f0f6798a560793a54c3bcfe86a93cde1e73087d944c0ea20544137d4121396885929181900390910190a1603b54831015801561157c5750603754600160a01b900460ff16155b1561158b57611589611994565b505b603c54604080516340c10f1960e01b81523360048201526024810185905290516001600160a01b03909216916340c10f199160448082019260009290919082900301818387803b1580156115de57600080fd5b505af11580156115f2573d6000803e3d6000fd5b506000925050505b8981101561165d5760008b8b8381811061161057fe5b905060200201356001600160a01b0316905061165433308c8c8681811061163357fe5b90506020020135846001600160a01b0316611b5d909392919063ffffffff16565b506001016115fa565b50603a54831061166f5761166f611bbd565b5050506001825550505050505050565b611687611099565b6116d8576040805162461bcd60e51b815260206004820152601a60248201527f43616c6c6572206973206e6f742074686520476f7665726e6f72000000000000604482015290519081900360640190fd5b7fa2bd3d3cf188a41358c8b401076eb59066b09dec5775650c0de4c55187d17bd955565b7f7bea13895fa79d2831e0a9e28edede30099005a50d652d8957cf8a607ee6ca4a5490565b606080826001600160a01b03166395d89b416040518163ffffffff1660e01b815260040160006040518083038186803b15801561175d57600080fd5b505afa158015611771573d6000803e3d6000fd5b505050506040513d6000823e601f3d908101601f19168201604052602081101561179a57600080fd5b81019080805160405193929190846401000000008211156117ba57600080fd5b9083019060208201858111156117cf57600080fd5b82516401000000008111828201881017156117e957600080fd5b82525081516020918201929091019080838360005b838110156118165781810151838201526020016117fe565b50505050905090810190601f1680156118435780820380516001836020036101000a031916815260200191505b50604052509195945050505050565b600080826001600160a01b031663313ce5676040518163ffffffff1660e01b815260040160206040518083038186803b15801561188e57600080fd5b505afa1580156118a2573d6000803e3d6000fd5b505050506040513d60208110156118b857600080fd5b505160ff169050600481108015906118d1575060128111155b610bf65760405162461bcd60e51b81526004018080602001828103825260298152602001806136106029913960400191505060405180910390fd5b6000808260000b13156119375761193083600084900b600a0a63ffffffff612e9f16565b925061195f565b60008260000b121561195f5761195c836000848103900b600a0a63ffffffff612ef816565b92505b5090919050565b600080611979858563ffffffff612e9f16565b905061198b818463ffffffff612ef816565b95945050505050565b603754600090600160a01b900460ff16156119e8576040805162461bcd60e51b815260206004820152600f60248201526e149958985cda5b99c81c185d5cd959608a1b604482015290519081900360640190fd5b603c60009054906101000a90046001600160a01b03166001600160a01b03166318160ddd6040518163ffffffff1660e01b815260040160206040518083038186803b158015611a3657600080fd5b505afa158015611a4a573d6000803e3d6000fd5b505050506040513d6020811015611a6057600080fd5b5051611a6e575060006106cf565b603c54604080516318160ddd60e01b815290516000926001600160a01b0316916318160ddd916004808301926020929190829003018186803b158015611ab357600080fd5b505afa158015611ac7573d6000803e3d6000fd5b505050506040513d6020811015611add57600080fd5b50519050611ae9612c17565b915080821115611b5957603c54604080516339a7919f60e01b81526004810185905290516001600160a01b03909216916339a7919f9160248082019260009290919082900301818387803b158015611b4057600080fd5b505af1158015611b54573d6000803e3d6000fd5b505050505b5090565b604080516001600160a01b0385811660248301528416604482015260648082018490528251808303909101815260849091019091526020810180516001600160e01b03166323b872dd60e01b179052611bb7908590612f3a565b50505050565b6000611bc76130f2565b905080611bd45750610be9565b6000611bde6131de565b90506000611bf2838363ffffffff612e3e16565b9050600082611c1e57603954611c1790670de0b6b3a76400009063ffffffff61323016565b9050611c76565b611c4384611c3784603954612e9f90919063ffffffff16565b9063ffffffff612ef816565b905080670de0b6b3a76400001115611c6d57611c17670de0b6b3a76400008263ffffffff61323016565b50505050610be9565b80611c845750505050610be9565b60005b603454811015611e1357600060348281548110611ca057fe5b6000918252602080832090910154604080516370a0823160e01b815230600482015290516001600160a01b03909216945084926370a0823192602480840193829003018186803b158015611cf357600080fd5b505afa158015611d07573d6000803e3d6000fd5b505050506040513d6020811015611d1d57600080fd5b5051905080611d2d575050611e0b565b6000611d3f828663ffffffff61327216565b6001600160a01b03808516600090815260406020819052902054919250168015801590611d6c5750600082115b15611e065780611d8c6001600160a01b038616828563ffffffff61328716565b806001600160a01b03166347e7ef2486856040518363ffffffff1660e01b815260040180836001600160a01b03166001600160a01b0316815260200182815260200192505050600060405180830381600087803b158015611dec57600080fd5b505af1158015611e00573d6000803e3d6000fd5b50505050505b505050505b600101611c87565b5060005b6036548110156120e557600060368281548110611e3057fe5b60009182526020808320909101546040805163125f9e3360e01b815290516001600160a01b039092169450849263125f9e3392600480840193829003018186803b158015611e7d57600080fd5b505afa158015611e91573d6000803e3d6000fd5b505050506040513d6020811015611ea757600080fd5b505190506001600160a01b038116156120db576000826001600160a01b0316635653b4146040518163ffffffff1660e01b815260040160206040518083038186803b158015611ef557600080fd5b505afa158015611f09573d6000803e3d6000fd5b505050506040513d6020811015611f1f57600080fd5b5051905080611fae57306001600160a01b0316630e5c011e60368681548110611f4457fe5b6000918252602082200154604080516001600160e01b031960e086901b1681526001600160a01b039092166004830152516024808301939282900301818387803b158015611f9157600080fd5b505af1158015611fa5573d6000803e3d6000fd5b505050506120d9565b60008290506000816001600160a01b03166370a0823160368881548110611fd157fe5b60009182526020918290200154604080516001600160e01b031960e086901b1681526001600160a01b0390921660048301525160248083019392829003018186803b15801561201f57600080fd5b505afa158015612033573d6000803e3d6000fd5b505050506040513d602081101561204957600080fd5b505190508281106120d657306001600160a01b0316630e5c011e6036888154811061207057fe5b6000918252602082200154604080516001600160e01b031960e086901b1681526001600160a01b039092166004830152516024808301939282900301818387803b1580156120bd57600080fd5b505af11580156120d1573d6000803e3d6000fd5b505050505b50505b505b5050600101611e17565b5050505050565b7f44c4d30b2eaad5130ad70c3ba6972730566f3e6359ab83e800d905c61b1c51db5490565b6001600160a01b03811661216c576040805162461bcd60e51b815260206004820152601a60248201527f4e657720476f7665726e6f722069732061646472657373283029000000000000604482015290519081900360640190fd5b806001600160a01b031661217e6116fc565b6001600160a01b03167fc7c0c772add429241571afb3805861fb3cfa2af374534088b76cdb4325a87e9a60405160405180910390a36121bc816132de565b50565b604080516370a0823160e01b8152306004820152905160009183916001600160a01b038316916370a08231916024808301926020929190829003018186803b15801561220a57600080fd5b505afa15801561221e573d6000803e3d6000fd5b505050506040513d602081101561223457600080fd5b5051915060005b6036548110156123795760006036828154811061225457fe5b600091825260209182902001546040805163551c457b60e11b81526001600160a01b0389811660048301529151919092169350839263aa388af69260248082019391829003018186803b1580156122aa57600080fd5b505afa1580156122be573d6000803e3d6000fd5b505050506040513d60208110156122d457600080fd5b5051156123705761236d816001600160a01b0316635f515226876040518263ffffffff1660e01b815260040180826001600160a01b03166001600160a01b0316815260200191505060206040518083038186803b15801561233457600080fd5b505afa158015612348573d6000803e3d6000fd5b505050506040513d602081101561235e57600080fd5b5051859063ffffffff612e3e16565b93505b5060010161223b565b5050919050565b6060600061238c610eec565b9050606061239a6001612c38565b90506060826040519080825280602002602001820160405280156123c8578160200160208202803883390190505b5090506060836040519080825280602002602001820160405280156123f7578160200160208202803883390190505b506040805186815260208088028201019091529091506000908190868015612429578160200160208202803883390190505b5060385490975015612468576000612452612710611c376038548c612e9f90919063ffffffff16565b9050612464898263ffffffff61323016565b9850505b60005b6034548110156125185760006124a16034838154811061248757fe5b6000918252602090912001546001600160a01b03166121bf565b905060006124b5603484815481106113f057fe5b9050818784815181106124c457fe5b602002602001018181525050808684815181106124dd57fe5b602090810291909101015261250c6124ff83601284900363ffffffff61190c16565b869063ffffffff612e3e16565b9450505060010161246b565b5060005b6034548110156125c957600086828151811061253457fe5b60200260200101519050670de0b6b3a76400008110156125595750670de0b6b3a76400005b60006125ab85611c378461259f8a888151811061257257fe5b60200260200101516012038c898151811061258957fe5b602002602001015161190c90919063ffffffff16565b9063ffffffff612e9f16565b90506125bd848263ffffffff612e3e16565b9350505060010161251c565b5060006125dc898363ffffffff61330216565b905060005b6034548110156126345761261584611c37848985815181106125ff57fe5b6020026020010151612e9f90919063ffffffff16565b89828151811061262157fe5b60209081029190910101526001016125e1565b5050505050505050919050565b60008211612696576040805162461bcd60e51b815260206004820152601d60248201527f416d6f756e74206d7573742062652067726561746572207468616e2030000000604482015290519081900360640190fd5b603c54604080516318160ddd60e01b815290516000926001600160a01b0316916318160ddd916004808301926020929190829003018186803b1580156126db57600080fd5b505afa1580156126ef573d6000803e3d6000fd5b505050506040513d602081101561270557600080fd5b505190506000612713612c17565b604154909150156127ce576000612730838363ffffffff61330216565b9050604154670de0b6b3a764000082116127615761275c670de0b6b3a76400008363ffffffff61323016565b612779565b61277982670de0b6b3a764000063ffffffff61323016565b11156127cc576040805162461bcd60e51b815260206004820152601e60248201527f4261636b696e6720737570706c79206c6971756964697479206572726f720000604482015290519081900360640190fd5b505b604080513381526020810186905281517f222838db2794d11532d940e8dec38ae307ed0b63cd97c233322e221f998767a6929181900390910190a1606061281485612380565b905060005b603454811015612aaa5781818151811061282f57fe5b60200260200101516000141561284457612aa2565b60006034828154811061285357fe5b60009182526020909120015483516001600160a01b03909116915083908390811061287a57fe5b6020026020010151816001600160a01b03166370a08231306040518263ffffffff1660e01b815260040180826001600160a01b03166001600160a01b0316815260200191505060206040518083038186803b1580156128d857600080fd5b505afa1580156128ec573d6000803e3d6000fd5b505050506040513d602081101561290257600080fd5b50511061293f5761293a3384848151811061291957fe5b6020026020010151836001600160a01b03166132879092919063ffffffff16565b612aa0565b6000604060006034858154811061295257fe5b60009182526020808320909101546001600160a01b0390811684529083019390935260409091019020541690508015612a5f576000819050806001600160a01b031663d9caed1233603487815481106129a757fe5b9060005260206000200160009054906101000a90046001600160a01b03168888815181106129d157fe5b60200260200101516040518463ffffffff1660e01b815260040180846001600160a01b03166001600160a01b03168152602001836001600160a01b03166001600160a01b031681526020018281526020019350505050600060405180830381600087803b158015612a4157600080fd5b505af1158015612a55573d6000803e3d6000fd5b5050505050612a9e565b6040805162461bcd60e51b815260206004820152600f60248201526e2634b8bab4b234ba3c9032b93937b960891b604482015290519081900360640190fd5b505b505b600101612819565b508315612b58576000805b8251811015612b00576000612ad0603483815481106113f057fe5b9050612af5612ae88260120386858151811061258957fe5b849063ffffffff612e3e16565b925050600101612ab5565b5084811015612b56576040805162461bcd60e51b815260206004820181905260248201527f52656465656d20616d6f756e74206c6f776572207468616e206d696e696d756d604482015290519081900360640190fd5b505b603c5460408051632770a7eb60e21b81523360048201526024810188905290516001600160a01b0390921691639dc29fac9160448082019260009290919082900301818387803b158015612bab57600080fd5b505af1158015612bbf573d6000803e3d6000fd5b50505050603b5485118015612bde5750603754600160a01b900460ff16155b156120e557612beb611994565b505050505050565b7f44c4d30b2eaad5130ad70c3ba6972730566f3e6359ab83e800d905c61b1c51db55565b60006106cc612c246131de565b612c2c6130f2565b9063ffffffff612e3e16565b6060612c42610eec565b604051908082528060200260200182016040528015612c6b578160200160208202803883390190505b506037549091506001600160a01b031660005b603454811015612379576060612cb460348381548110612c9a57fe5b6000918252602090912001546001600160a01b0316611721565b90508415612dbc57612d9f600a846001600160a01b0316637bf0c215846040518263ffffffff1660e01b81526004018080602001828103825283818151815260200191508051906020019080838360005b83811015612d1d578181015183820152602001612d05565b50505050905090810190601f168015612d4a5780820380516001836020036101000a031916815260200191505b509250505060206040518083038186803b158015612d6757600080fd5b505afa158015612d7b573d6000803e3d6000fd5b505050506040513d6020811015612d9157600080fd5b50519063ffffffff61190c16565b848381518110612dab57fe5b602002602001018181525050612e35565b60405163019af6bf60e41b8152602060048201818152835160248401528351612e1c93600a936001600160a01b038916936319af6bf093889391928392604401919085019080838360008315612d1d578181015183820152602001612d05565b848381518110612e2857fe5b6020026020010181815250505b50600101612c7e565b600082820183811015612e98576040805162461bcd60e51b815260206004820152601b60248201527f536166654d6174683a206164646974696f6e206f766572666c6f770000000000604482015290519081900360640190fd5b9392505050565b600082612eae57506000610bf6565b82820282848281612ebb57fe5b0414612e985760405162461bcd60e51b81526004018080602001828103825260218152602001806136396021913960400191505060405180910390fd5b6000612e9883836040518060400160405280601a81526020017f536166654d6174683a206469766973696f6e206279207a65726f000000000000815250613337565b612f4c826001600160a01b03166133d9565b612f9d576040805162461bcd60e51b815260206004820152601f60248201527f5361666545524332303a2063616c6c20746f206e6f6e2d636f6e747261637400604482015290519081900360640190fd5b60006060836001600160a01b0316836040518082805190602001908083835b60208310612fdb5780518252601f199092019160209182019101612fbc565b6001836020036101000a0380198251168184511680821785525050505050509050019150506000604051808303816000865af19150503d806000811461303d576040519150601f19603f3d011682016040523d82523d6000602084013e613042565b606091505b509150915081613099576040805162461bcd60e51b815260206004820181905260248201527f5361666545524332303a206c6f772d6c6576656c2063616c6c206661696c6564604482015290519081900360640190fd5b805115611bb7578080602001905160208110156130b557600080fd5b5051611bb75760405162461bcd60e51b815260040180806020018281038252602a81526020018061365a602a913960400191505060405180910390fd5b6000805b603454811015611b595760006034828154811061310f57fe5b6000918252602082200154603480546001600160a01b03909216935061313991859081106113f057fe5b604080516370a0823160e01b815230600482015290519192506000916001600160a01b038516916370a08231916024808301926020929190829003018186803b15801561318557600080fd5b505afa158015613199573d6000803e3d6000fd5b505050506040513d60208110156131af57600080fd5b5051905080156131d3576131d06124ff82601285900363ffffffff61190c16565b94505b5050506001016130f6565b6000805b603654811015611b5957613226613219603683815481106131ff57fe5b6000918252602090912001546001600160a01b0316613412565b839063ffffffff612e3e16565b91506001016131e2565b6000612e9883836040518060400160405280601e81526020017f536166654d6174683a207375627472616374696f6e206f766572666c6f770000815250613595565b6000612e988383670de0b6b3a7640000611966565b604080516001600160a01b038416602482015260448082018490528251808303909101815260649091019091526020810180516001600160e01b031663a9059cbb60e01b1790526132d9908490612f3a565b505050565b7f7bea13895fa79d2831e0a9e28edede30099005a50d652d8957cf8a607ee6ca4a55565b60008061331d84670de0b6b3a764000063ffffffff612e9f16565b905061332f818463ffffffff612ef816565b949350505050565b600081836133c35760405162461bcd60e51b81526004018080602001828103825283818151815260200191508051906020019080838360005b83811015613388578181015183820152602001613370565b50505050905090810190601f1680156133b55780820380516001836020036101000a031916815260200191505b509250505060405180910390fd5b5060008385816133cf57fe5b0495945050505050565b6000813f7fc5d2460186f7233c927e7db2dcc703c0e500b653ca82273b7bfad8045d85a47081811480159061332f575050151592915050565b600081815b603454811015612379576000613433603483815481106113f057fe5b9050826001600160a01b031663aa388af66034848154811061345157fe5b60009182526020918290200154604080516001600160e01b031960e086901b1681526001600160a01b0390921660048301525160248083019392829003018186803b15801561349f57600080fd5b505afa1580156134b3573d6000803e3d6000fd5b505050506040513d60208110156134c957600080fd5b50511561358c576000836001600160a01b0316635f515226603485815481106134ee57fe5b60009182526020918290200154604080516001600160e01b031960e086901b1681526001600160a01b0390921660048301525160248083019392829003018186803b15801561353c57600080fd5b505afa158015613550573d6000803e3d6000fd5b505050506040513d602081101561356657600080fd5b50519050801561358a576135876124ff82601285900363ffffffff61190c16565b94505b505b50600101613417565b600081848411156135e75760405162461bcd60e51b8152602060048201818152835160248401528351909283926044909101919085019080838360008315613388578181015183820152602001613370565b50505090039056fe53bf423e48ed90e97d02ab0ebab13b2a235a6bfbe9c321847d5c175333ac4535546f6b656e206d75737420686176652073756666696369656e7420646563696d616c20706c61636573536166654d6174683a206d756c7469706c69636174696f6e206f766572666c6f775361666545524332303a204552433230206f7065726174696f6e20646964206e6f7420737563636565644f6e6c79207468652070656e64696e6720476f7665726e6f722063616e20636f6d706c6574652074686520636c61696da265627a7a72315820ab97d4c53e4ef80d280841f43291bad1192e147995980878462b60004ce5f35164736f6c634300050b00327bea13895fa79d2831e0a9e28edede30099005a50d652d8957cf8a607ee6ca4a",
  "devdoc": {
    "methods": {
      "allocate()": {
        "details": "Allocate unallocated funds on Vault to strategies.*"
      },
      "checkBalance(address)": {
        "params": {
          "_asset": "Address of asset"
        },
        "return": "uint256 Balance of asset in decimals of asset"
      },
      "claimGovernance()": {
        "details": "Claim Governance of the contract to a new account (`newGovernor`). Can only be called by the new Governor."
      },
      "getAllAssets()": {
        "details": "Return all asset addresses in order"
      },
      "getAssetCount()": {
        "details": "Return the number of assets suppported by the Vault."
      },
      "getStrategyCount()": {
        "details": "Return the number of strategies active on the Vault."
      },
      "governor()": {
        "details": "Returns the address of the current Governor."
      },
      "isGovernor()": {
        "details": "Returns true if the caller is the current Governor."
      },
      "mint(address,uint256,uint256)": {
        "details": "Deposit a supported asset and mint OUSD.",
        "params": {
          "_amount": "Amount of the asset being deposited",
          "_asset": "Address of the asset being deposited",
          "_minimumOusdAmount": "Minimum OUSD to mint"
        }
      },
      "mintMultiple(address[],uint256[],uint256)": {
        "details": "Mint for multiple assets in the same call.",
        "params": {
          "_amounts": "Amount of each asset at the same index in the _assets                to deposit.",
          "_assets": "Addresses of assets being deposited",
          "_minimumOusdAmount": "Minimum OUSD to mint"
        }
      },
      "rebase()": {
        "details": "Calculate the total value of assets held by the Vault and all     strategies and update the supply of OUSD.",
        "return": "uint256 New total supply of OUSD"
      },
      "redeem(uint256,uint256)": {
        "details": "Withdraw a supported asset and burn OUSD.",
        "params": {
          "_amount": "Amount of OUSD to burn",
          "_minimumUnitAmount": "Minimum stablecoin units to receive in return"
        }
      },
      "redeemAll(uint256)": {
        "params": {
          "_minimumUnitAmount": "Minimum stablecoin units to receive in return"
        }
      },
      "setAdminImpl(address)": {
        "details": "set the implementation for the admin, this needs to be in a base class else we cannot set it",
        "params": {
          "newImpl": "address pf the implementation"
        }
      },
      "totalValue()": {
        "details": "Determine the total value of assets held by the vault and its        strategies.",
        "return": "uint256 value Total value in USD (1e18)"
      },
      "transferGovernance(address)": {
        "details": "Transfers Governance of the contract to a new account (`newGovernor`). Can only be called by the current Governor. Must be claimed for this to complete",
        "params": {
          "_newGovernor": "Address of the new Governor"
        }
      }
    }
  },
  "userdoc": {
    "methods": {
      "allocate()": {
        "notice": "Allocate unallocated funds on Vault to strategies."
      },
      "calculateRedeemOutputs(uint256)": {
        "notice": "Calculate the outputs for a redeem function, i.e. the mix of coins that will be returned"
      },
      "checkBalance(address)": {
        "notice": "Get the balance of an asset held in Vault and all strategies."
      },
      "redeemAll(uint256)": {
        "notice": "Withdraw a supported asset and burn all OUSD."
      }
    }
  }
}