{
  "address": "0xb981226900B63c4dB67E3e80C56Ff4b9f9135Ad0",
  "abi": [
    {
      "anonymous": false,
      "inputs": [
        {
          "indexed": false,
          "internalType": "uint256",
          "name": "_threshold",
          "type": "uint256"
        }
      ],
      "name": "AllocateThresholdUpdated",
      "type": "event"
    },
    {
      "anonymous": false,
      "inputs": [
        {
          "indexed": false,
          "internalType": "address",
          "name": "_asset",
          "type": "address"
        },
        {
          "indexed": false,
          "internalType": "address",
          "name": "_strategy",
          "type": "address"
        },
        {
          "indexed": false,
          "internalType": "uint256",
          "name": "_amount",
          "type": "uint256"
        }
      ],
      "name": "AssetAllocated",
      "type": "event"
    },
    {
      "anonymous": false,
      "inputs": [
        {
          "indexed": false,
          "internalType": "address",
          "name": "_asset",
          "type": "address"
        },
        {
          "indexed": false,
          "internalType": "address",
          "name": "_strategy",
          "type": "address"
        }
      ],
      "name": "AssetDefaultStrategyUpdated",
      "type": "event"
    },
    {
      "anonymous": false,
      "inputs": [
        {
          "indexed": false,
          "internalType": "address",
          "name": "_asset",
          "type": "address"
        }
      ],
      "name": "AssetSupported",
      "type": "event"
    },
    {
      "anonymous": false,
      "inputs": [],
      "name": "CapitalPaused",
      "type": "event"
    },
    {
      "anonymous": false,
      "inputs": [],
      "name": "CapitalUnpaused",
      "type": "event"
    },
    {
      "anonymous": false,
      "inputs": [
        {
          "indexed": true,
          "internalType": "address",
          "name": "previousGovernor",
          "type": "address"
        },
        {
          "indexed": true,
          "internalType": "address",
          "name": "newGovernor",
          "type": "address"
        }
      ],
      "name": "GovernorshipTransferred",
      "type": "event"
    },
    {
      "anonymous": false,
      "inputs": [
        {
          "indexed": false,
          "internalType": "uint256",
          "name": "maxSupplyDiff",
          "type": "uint256"
        }
      ],
      "name": "MaxSupplyDiffChanged",
      "type": "event"
    },
    {
      "anonymous": false,
      "inputs": [
        {
          "indexed": false,
          "internalType": "address",
          "name": "_addr",
          "type": "address"
        },
        {
          "indexed": false,
          "internalType": "uint256",
          "name": "_value",
          "type": "uint256"
        }
      ],
      "name": "Mint",
      "type": "event"
    },
    {
      "anonymous": false,
      "inputs": [
        {
          "indexed": false,
          "internalType": "uint256",
          "name": "_threshold",
          "type": "uint256"
        }
      ],
      "name": "NetOusdMintForStrategyThresholdChanged",
      "type": "event"
    },
    {
      "anonymous": false,
      "inputs": [
        {
          "indexed": false,
          "internalType": "address",
          "name": "_ousdMetaStrategy",
          "type": "address"
        }
      ],
      "name": "OusdMetaStrategyUpdated",
      "type": "event"
    },
    {
      "anonymous": false,
      "inputs": [
        {
          "indexed": true,
          "internalType": "address",
          "name": "previousGovernor",
          "type": "address"
        },
        {
          "indexed": true,
          "internalType": "address",
          "name": "newGovernor",
          "type": "address"
        }
      ],
      "name": "PendingGovernorshipTransfer",
      "type": "event"
    },
    {
      "anonymous": false,
      "inputs": [
        {
          "indexed": false,
          "internalType": "address",
          "name": "_priceProvider",
          "type": "address"
        }
      ],
      "name": "PriceProviderUpdated",
      "type": "event"
    },
    {
      "anonymous": false,
      "inputs": [],
      "name": "RebasePaused",
      "type": "event"
    },
    {
      "anonymous": false,
      "inputs": [
        {
          "indexed": false,
          "internalType": "uint256",
          "name": "_threshold",
          "type": "uint256"
        }
      ],
      "name": "RebaseThresholdUpdated",
      "type": "event"
    },
    {
      "anonymous": false,
      "inputs": [],
      "name": "RebaseUnpaused",
      "type": "event"
    },
    {
      "anonymous": false,
      "inputs": [
        {
          "indexed": false,
          "internalType": "address",
          "name": "_addr",
          "type": "address"
        },
        {
          "indexed": false,
          "internalType": "uint256",
          "name": "_value",
          "type": "uint256"
        }
      ],
      "name": "Redeem",
      "type": "event"
    },
    {
      "anonymous": false,
      "inputs": [
        {
          "indexed": false,
          "internalType": "uint256",
          "name": "_redeemFeeBps",
          "type": "uint256"
        }
      ],
      "name": "RedeemFeeUpdated",
      "type": "event"
    },
    {
      "anonymous": false,
      "inputs": [
        {
          "indexed": false,
          "internalType": "address",
          "name": "_address",
          "type": "address"
        }
      ],
      "name": "StrategistUpdated",
      "type": "event"
    },
    {
      "anonymous": false,
      "inputs": [
        {
          "indexed": false,
          "internalType": "address",
          "name": "_addr",
          "type": "address"
        }
      ],
      "name": "StrategyApproved",
      "type": "event"
    },
    {
      "anonymous": false,
      "inputs": [
        {
          "indexed": false,
          "internalType": "address",
          "name": "_addr",
          "type": "address"
        }
      ],
      "name": "StrategyRemoved",
      "type": "event"
    },
    {
      "anonymous": false,
      "inputs": [
        {
          "indexed": false,
          "internalType": "address",
          "name": "_address",
          "type": "address"
        }
      ],
      "name": "TrusteeAddressChanged",
      "type": "event"
    },
    {
      "anonymous": false,
      "inputs": [
        {
          "indexed": false,
          "internalType": "uint256",
          "name": "_basis",
          "type": "uint256"
        }
      ],
      "name": "TrusteeFeeBpsChanged",
      "type": "event"
    },
    {
      "anonymous": false,
      "inputs": [
        {
          "indexed": false,
          "internalType": "uint256",
          "name": "_vaultBuffer",
          "type": "uint256"
        }
      ],
      "name": "VaultBufferUpdated",
      "type": "event"
    },
    {
      "anonymous": false,
      "inputs": [
        {
          "indexed": false,
          "internalType": "address",
          "name": "_to",
          "type": "address"
        },
        {
          "indexed": false,
          "internalType": "uint256",
          "name": "_yield",
          "type": "uint256"
        },
        {
          "indexed": false,
          "internalType": "uint256",
          "name": "_fee",
          "type": "uint256"
        }
      ],
      "name": "YieldDistribution",
      "type": "event"
    },
    {
      "inputs": [
        {
          "internalType": "address",
          "name": "_addr",
          "type": "address"
        }
      ],
      "name": "approveStrategy",
      "outputs": [],
      "stateMutability": "nonpayable",
      "type": "function"
    },
    {
      "inputs": [
        {
          "internalType": "address",
          "name": "",
          "type": "address"
        }
      ],
      "name": "assetDefaultStrategies",
      "outputs": [
        {
          "internalType": "address",
          "name": "",
          "type": "address"
        }
      ],
      "stateMutability": "view",
      "type": "function"
    },
    {
      "inputs": [],
      "name": "autoAllocateThreshold",
      "outputs": [
        {
          "internalType": "uint256",
          "name": "",
          "type": "uint256"
        }
      ],
      "stateMutability": "view",
      "type": "function"
    },
    {
      "inputs": [],
      "name": "capitalPaused",
      "outputs": [
        {
          "internalType": "bool",
          "name": "",
          "type": "bool"
        }
      ],
      "stateMutability": "view",
      "type": "function"
    },
    {
      "inputs": [],
      "name": "claimGovernance",
      "outputs": [],
      "stateMutability": "nonpayable",
      "type": "function"
    },
    {
      "inputs": [],
      "name": "governor",
      "outputs": [
        {
          "internalType": "address",
          "name": "",
          "type": "address"
        }
      ],
      "stateMutability": "view",
      "type": "function"
    },
    {
      "inputs": [],
      "name": "isGovernor",
      "outputs": [
        {
          "internalType": "bool",
          "name": "",
          "type": "bool"
        }
      ],
      "stateMutability": "view",
      "type": "function"
    },
    {
      "inputs": [],
      "name": "maxSupplyDiff",
      "outputs": [
        {
          "internalType": "uint256",
          "name": "",
          "type": "uint256"
        }
      ],
      "stateMutability": "view",
      "type": "function"
    },
    {
      "inputs": [],
      "name": "netOusdMintForStrategyThreshold",
      "outputs": [
        {
          "internalType": "uint256",
          "name": "",
          "type": "uint256"
        }
      ],
      "stateMutability": "view",
      "type": "function"
    },
    {
      "inputs": [],
      "name": "netOusdMintedForStrategy",
      "outputs": [
        {
          "internalType": "int256",
          "name": "",
          "type": "int256"
        }
      ],
      "stateMutability": "view",
      "type": "function"
    },
    {
      "inputs": [],
      "name": "ousdMetaStrategy",
      "outputs": [
        {
          "internalType": "address",
          "name": "",
          "type": "address"
        }
      ],
      "stateMutability": "view",
      "type": "function"
    },
    {
      "inputs": [],
      "name": "pauseCapital",
      "outputs": [],
      "stateMutability": "nonpayable",
      "type": "function"
    },
    {
      "inputs": [],
      "name": "pauseRebase",
      "outputs": [],
      "stateMutability": "nonpayable",
      "type": "function"
    },
    {
      "inputs": [],
      "name": "priceProvider",
      "outputs": [
        {
          "internalType": "address",
          "name": "",
          "type": "address"
        }
      ],
      "stateMutability": "view",
      "type": "function"
    },
    {
      "inputs": [
        {
          "internalType": "address",
          "name": "asset",
          "type": "address"
        }
      ],
      "name": "priceUSDMint",
      "outputs": [
        {
          "internalType": "uint256",
          "name": "",
          "type": "uint256"
        }
      ],
      "stateMutability": "view",
      "type": "function"
    },
    {
      "inputs": [
        {
          "internalType": "address",
          "name": "asset",
          "type": "address"
        }
      ],
      "name": "priceUSDRedeem",
      "outputs": [
        {
          "internalType": "uint256",
          "name": "",
          "type": "uint256"
        }
      ],
      "stateMutability": "view",
      "type": "function"
    },
    {
      "inputs": [
        {
          "internalType": "address",
          "name": "_strategyFromAddress",
          "type": "address"
        },
        {
          "internalType": "address",
          "name": "_strategyToAddress",
          "type": "address"
        },
        {
          "internalType": "address[]",
          "name": "_assets",
          "type": "address[]"
        },
        {
          "internalType": "uint256[]",
          "name": "_amounts",
          "type": "uint256[]"
        }
      ],
      "name": "reallocate",
      "outputs": [],
      "stateMutability": "nonpayable",
      "type": "function"
    },
    {
      "inputs": [],
      "name": "rebasePaused",
      "outputs": [
        {
          "internalType": "bool",
          "name": "",
          "type": "bool"
        }
      ],
      "stateMutability": "view",
      "type": "function"
    },
    {
      "inputs": [],
      "name": "rebaseThreshold",
      "outputs": [
        {
          "internalType": "uint256",
          "name": "",
          "type": "uint256"
        }
      ],
      "stateMutability": "view",
      "type": "function"
    },
    {
      "inputs": [],
      "name": "redeemFeeBps",
      "outputs": [
        {
          "internalType": "uint256",
          "name": "",
          "type": "uint256"
        }
      ],
      "stateMutability": "view",
      "type": "function"
    },
    {
      "inputs": [
        {
          "internalType": "address",
          "name": "_addr",
          "type": "address"
        }
      ],
      "name": "removeStrategy",
      "outputs": [],
      "stateMutability": "nonpayable",
      "type": "function"
    },
    {
      "inputs": [
        {
          "internalType": "address",
          "name": "newImpl",
          "type": "address"
        }
      ],
      "name": "setAdminImpl",
      "outputs": [],
      "stateMutability": "nonpayable",
      "type": "function"
    },
    {
      "inputs": [
        {
          "internalType": "address",
          "name": "_asset",
          "type": "address"
        },
        {
          "internalType": "address",
          "name": "_strategy",
          "type": "address"
        }
      ],
      "name": "setAssetDefaultStrategy",
      "outputs": [],
      "stateMutability": "nonpayable",
      "type": "function"
    },
    {
      "inputs": [
        {
          "internalType": "uint256",
          "name": "_threshold",
          "type": "uint256"
        }
      ],
      "name": "setAutoAllocateThreshold",
      "outputs": [],
      "stateMutability": "nonpayable",
      "type": "function"
    },
    {
      "inputs": [
        {
          "internalType": "uint256",
          "name": "_maxSupplyDiff",
          "type": "uint256"
        }
      ],
      "name": "setMaxSupplyDiff",
      "outputs": [],
      "stateMutability": "nonpayable",
      "type": "function"
    },
    {
      "inputs": [
        {
          "internalType": "uint256",
          "name": "_threshold",
          "type": "uint256"
        }
      ],
      "name": "setNetOusdMintForStrategyThreshold",
      "outputs": [],
      "stateMutability": "nonpayable",
      "type": "function"
    },
    {
      "inputs": [
        {
          "internalType": "address",
          "name": "_ousdMetaStrategy",
          "type": "address"
        }
      ],
      "name": "setOusdMetaStrategy",
      "outputs": [],
      "stateMutability": "nonpayable",
      "type": "function"
    },
    {
      "inputs": [
        {
          "internalType": "address",
          "name": "_priceProvider",
          "type": "address"
        }
      ],
      "name": "setPriceProvider",
      "outputs": [],
      "stateMutability": "nonpayable",
      "type": "function"
    },
    {
      "inputs": [
        {
          "internalType": "uint256",
          "name": "_threshold",
          "type": "uint256"
        }
      ],
      "name": "setRebaseThreshold",
      "outputs": [],
      "stateMutability": "nonpayable",
      "type": "function"
    },
    {
      "inputs": [
        {
          "internalType": "uint256",
          "name": "_redeemFeeBps",
          "type": "uint256"
        }
      ],
      "name": "setRedeemFeeBps",
      "outputs": [],
      "stateMutability": "nonpayable",
      "type": "function"
    },
    {
      "inputs": [
        {
          "internalType": "address",
          "name": "_address",
          "type": "address"
        }
      ],
      "name": "setStrategistAddr",
      "outputs": [],
      "stateMutability": "nonpayable",
      "type": "function"
    },
    {
      "inputs": [
        {
          "internalType": "address",
          "name": "_address",
          "type": "address"
        }
      ],
      "name": "setTrusteeAddress",
      "outputs": [],
      "stateMutability": "nonpayable",
      "type": "function"
    },
    {
      "inputs": [
        {
          "internalType": "uint256",
          "name": "_basis",
          "type": "uint256"
        }
      ],
      "name": "setTrusteeFeeBps",
      "outputs": [],
      "stateMutability": "nonpayable",
      "type": "function"
    },
    {
      "inputs": [
        {
          "internalType": "uint256",
          "name": "_vaultBuffer",
          "type": "uint256"
        }
      ],
      "name": "setVaultBuffer",
      "outputs": [],
      "stateMutability": "nonpayable",
      "type": "function"
    },
    {
      "inputs": [],
      "name": "strategistAddr",
      "outputs": [
        {
          "internalType": "address",
          "name": "",
          "type": "address"
        }
      ],
      "stateMutability": "view",
      "type": "function"
    },
    {
      "inputs": [
        {
          "internalType": "address",
          "name": "_asset",
          "type": "address"
        }
      ],
      "name": "supportAsset",
      "outputs": [],
      "stateMutability": "nonpayable",
      "type": "function"
    },
    {
      "inputs": [
        {
          "internalType": "address",
          "name": "_newGovernor",
          "type": "address"
        }
      ],
      "name": "transferGovernance",
      "outputs": [],
      "stateMutability": "nonpayable",
      "type": "function"
    },
    {
      "inputs": [
        {
          "internalType": "address",
          "name": "_asset",
          "type": "address"
        },
        {
          "internalType": "uint256",
          "name": "_amount",
          "type": "uint256"
        }
      ],
      "name": "transferToken",
      "outputs": [],
      "stateMutability": "nonpayable",
      "type": "function"
    },
    {
      "inputs": [],
      "name": "trusteeAddress",
      "outputs": [
        {
          "internalType": "address",
          "name": "",
          "type": "address"
        }
      ],
      "stateMutability": "view",
      "type": "function"
    },
    {
      "inputs": [],
      "name": "trusteeFeeBps",
      "outputs": [
        {
          "internalType": "uint256",
          "name": "",
          "type": "uint256"
        }
      ],
      "stateMutability": "view",
      "type": "function"
    },
    {
      "inputs": [],
      "name": "unpauseCapital",
      "outputs": [],
      "stateMutability": "nonpayable",
      "type": "function"
    },
    {
      "inputs": [],
      "name": "unpauseRebase",
      "outputs": [],
      "stateMutability": "nonpayable",
      "type": "function"
    },
    {
      "inputs": [],
      "name": "vaultBuffer",
      "outputs": [
        {
          "internalType": "uint256",
          "name": "",
          "type": "uint256"
        }
      ],
      "stateMutability": "view",
      "type": "function"
    },
    {
      "inputs": [],
      "name": "withdrawAllFromStrategies",
      "outputs": [],
      "stateMutability": "nonpayable",
      "type": "function"
    },
    {
      "inputs": [
        {
          "internalType": "address",
          "name": "_strategyAddr",
          "type": "address"
        }
      ],
      "name": "withdrawAllFromStrategy",
      "outputs": [],
      "stateMutability": "nonpayable",
      "type": "function"
    }
  ],
  "transactionHash": "0xf0d1cb1870956542ea93eac8b8e7da61249c441bfb7814029855eb16629dcf83",
  "args": [],
  "solcInputHash": "319af15f161ea85e31c5299a9c5b406b",
  "bytecode": "0x60806040526037805461ffff60a01b1916600160a81b179055603d80546001600160a01b0319908116909155603e805482169055603f8054821690556045805490911690556000604681905560475534801561005a57600080fd5b50610071336000805160206127e983398151915255565b6000805160206127e9833981519152546040516001600160a01b03909116906000907fc7c0c772add429241571afb3805861fb3cfa2af374534088b76cdb4325a87e9a908290a3612722806100c76000396000f3fe608060405234801561001057600080fd5b506004361061027f5760003560e01c8063663e64ce1161015c578063b888879e116100ce578063d38bfff411610087578063d38bfff41461051f578063d58e3b3a14610532578063e45cc9f014610545578063e6cc54321461054e578063eb03654b14610562578063fc0cfeee1461057557600080fd5b8063b888879e146104ce578063b890ebf6146104e1578063bc90106b146104f4578063c5f0084114610507578063c7af33521461050f578063c99191121461051757600080fd5b80638e510b52116101205780638e510b52146104655780638ec489a21461046e57806394828ffd146104815780639fa1826e14610489578063a403e4d514610492578063b2c9336d146104bb57600080fd5b8063663e64ce14610410578063773540b3146104235780637a2202f3146104365780637fe2d3931461043f5780638c5cbb891461045257600080fd5b8063372aa224116101f557806352d38e5d116101b957806352d38e5d146103a257806353ca9f24146103ab578063570d8e1d146103cf578063597c8910146103e25780635d36b190146103f5578063636e6c40146103fd57600080fd5b8063372aa2241461034e5780633b8ae397146103615780633dbc911f1461037457806349c1d54d1461037c5780634cd55c2d1461038f57600080fd5b806310d3fdac1161024757806310d3fdac146102f0578063175188e81461030357806318ce56bd146103165780631edfe3da14610329578063207134b0146103325780632da845a81461033b57600080fd5b806309f49bf51461028457806309f6442c1461028e5780630acbda75146102aa5780630c340a24146102bd5780631072cbea146102dd575b600080fd5b61028c610588565b005b61029760385481565b6040519081526020015b60405180910390f35b61028c6102b83660046123fc565b6105ed565b6102c561069f565b6040516001600160a01b0390911681526020016102a1565b61028c6102eb3660046123b0565b6106bc565b6102976102fe3660046122d1565b610769565b61028c6103113660046122d1565b61085f565b6045546102c5906001600160a01b031681565b61029760395481565b61029760435481565b61028c6103493660046122d1565b610b66565b61028c61035c3660046122d1565b610bd8565b61028c61036f3660046122d1565b610c4a565b61028c610d87565b6042546102c5906001600160a01b031681565b61028c61039d3660046122d1565b610dfd565b610297603b5481565b6037546103bf90600160a01b900460ff1681565b60405190151581526020016102a1565b603f546102c5906001600160a01b031681565b61028c6103f03660046122d1565b610fae565b61028c6110aa565b61028c61040b3660046123fc565b611150565b61028c61041e3660046123fc565b6111ae565b61028c6104313660046122d1565b611207565b61029760475481565b61028c61044d36600461231f565b611279565b6102976104603660046122d1565b6115e1565b61029760415481565b61028c61047c3660046123fc565b611683565b61028c611738565b610297603a5481565b6102c56104a03660046122d1565b6040602081905260009182529020546001600160a01b031681565b61028c6104c93660046123fc565b6117a8565b6037546102c5906001600160a01b031681565b61028c6104ef3660046123fc565b611801565b61028c6105023660046122ec565b61185a565b61028c611a9c565b6103bf611b12565b61028c611b43565b61028c61052d3660046122d1565b611c17565b61028c6105403660046122d1565b611cbb565b61029760465481565b6037546103bf90600160a81b900460ff1681565b61028c6105703660046123fc565b611d2d565b61028c6105833660046122d1565b611de2565b610590611b12565b6105b55760405162461bcd60e51b81526004016105ac9061247d565b60405180910390fd5b6037805460ff60a01b191690556040517fbc044409505c95b6b851433df96e1beae715c909d8e7c1d6d7ab783300d4e3b990600090a1565b6105f5611b12565b6106115760405162461bcd60e51b81526004016105ac9061247d565b6113888111156106635760405162461bcd60e51b815260206004820152601760248201527f62617369732063616e6e6f74206578636565642035302500000000000000000060448201526064016105ac565b60438190556040518181527f56287a45051933ea374811b3d5d165033047be5572cac676f7c28b8be4f746c7906020015b60405180910390a150565b60006106b76000805160206126cd8339815191525490565b905090565b6106c4611b12565b6106e05760405162461bcd60e51b81526004016105ac9061247d565b6001600160a01b03821660009081526033602052604090205460ff16156107495760405162461bcd60e51b815260206004820152601760248201527f4f6e6c7920756e737570706f727465642061737365747300000000000000000060448201526064016105ac565b61076561075461069f565b6001600160a01b0384169083611e84565b5050565b6037546040516315d5220f60e31b81526001600160a01b038381166004830152600092839291169063aea910789060240160206040518083038186803b1580156107b257600080fd5b505afa1580156107c6573d6000803e3d6000fd5b505050506040513d601f19601f820116820180604052508101906107ea9190612415565b90506305f2d3c08110156108385760405162461bcd60e51b815260206004820152601560248201527441737365742070726963652062656c6f772070656760581b60448201526064016105ac565b6305f5e10081111561084b57506305f5e1005b6108588160126008611edb565b9392505050565b610867611b12565b6108835760405162461bcd60e51b81526004016105ac9061247d565b6001600160a01b03811660009081526035602052604090205460ff166108e35760405162461bcd60e51b815260206004820152601560248201527414dd1c985d1959de481b9bdd08185c1c1c9bdd9959605a1b60448201526064016105ac565b60005b60345481101561099c57816001600160a01b03166040600060348481548110610911576109116126b6565b60009182526020808320909101546001600160a01b03908116845290830193909352604090910190205416141561098a5760405162461bcd60e51b815260206004820181905260248201527f53747261746567792069732064656661756c7420666f7220616e20617373657460448201526064016105ac565b806109948161266f565b9150506108e6565b5060365460005b6036548110156109ff57826001600160a01b0316603682815481106109ca576109ca6126b6565b6000918252602090912001546001600160a01b031614156109ed578091506109ff565b806109f78161266f565b9150506109a3565b506036548110156107655760368054610a1a90600190612628565b81548110610a2a57610a2a6126b6565b600091825260209091200154603680546001600160a01b039092169183908110610a5657610a566126b6565b9060005260206000200160006101000a8154816001600160a01b0302191690836001600160a01b031602179055506036805480610a9557610a956126a0565b60008281526020808220830160001990810180546001600160a01b03191690559092019092556001600160a01b03841680835260359091526040808320805460ff19169055805163429c145b60e11b81529051859363853828b6926004808201939182900301818387803b158015610b0c57600080fd5b505af1158015610b20573d6000803e3d6000fd5b50506040516001600160a01b03861681527f09a1db4b80c32706328728508c941a6b954f31eb5affd32f236c1fd405f8fea49250602001905060405180910390a1505050565b610b6e611b12565b610b8a5760405162461bcd60e51b81526004016105ac9061247d565b604280546001600160a01b0319166001600160a01b0383169081179091556040519081527f1e4af5ac389e8cde1bdaa6830881b6c987c62a45cfb3b33d27d805cde3b5775090602001610694565b610be0611b12565b610bfc5760405162461bcd60e51b81526004016105ac9061247d565b603780546001600160a01b0319166001600160a01b0383169081179091556040519081527fb266add5f3044b17d27db796af992cecbe413921b4e8aaaee03c719e16b9806a90602001610694565b610c52611b12565b610c6e5760405162461bcd60e51b81526004016105ac9061247d565b6001600160a01b03811660009081526035602052604090205460ff1615610cd75760405162461bcd60e51b815260206004820152601960248201527f537472617465677920616c726561647920617070726f7665640000000000000060448201526064016105ac565b6040805180820182526001808252600060208084018281526001600160a01b038716808452603583528684209551865460ff19169015151786559051948401949094556036805493840181559091527f4a11f94e20a93c79f6ec743a1954ec4fc2c08429ae2122118bf234b2185c81b890910180546001600160a01b0319168317905591519081527f960dd94cbb79169f09a4e445d58b895df2d9bffa5b31055d0932d801724a20d19101610694565b603f546001600160a01b0316331480610da35750610da3611b12565b610dbf5760405162461bcd60e51b81526004016105ac906124b4565b6037805460ff60a81b1916600160a81b1790556040517f71f0e5b62f846a22e0b4d159e516e62fa9c2b8eb570be15f83e67d98a2ee51e090600090a1565b610e05611b12565b610e215760405162461bcd60e51b81526004016105ac9061247d565b6001600160a01b03811660009081526033602052604090205460ff1615610e8a5760405162461bcd60e51b815260206004820152601760248201527f417373657420616c726561647920737570706f7274656400000000000000000060448201526064016105ac565b604080516020808201835260018083526001600160a01b03858116600081815260339094528584209451855460ff1916901515179094556034805492830181559092527f46bddb1178e94d7f2892ff5f366840eb658911794f2c3a44c450aa2c505186c10180546001600160a01b0319168317905560375492516315d5220f60e31b81526004810192909252919091169063aea910789060240160206040518083038186803b158015610f3c57600080fd5b505afa158015610f50573d6000803e3d6000fd5b505050506040513d601f19601f82011682018060405250810190610f749190612415565b506040516001600160a01b03821681527f4f1ac48525e50059cc1cc6e0e1940ece0dd653a4db4841538d6aef036be2fb7b90602001610694565b603f546001600160a01b0316331480610fca5750610fca611b12565b610fe65760405162461bcd60e51b81526004016105ac906124b4565b6001600160a01b03811660009081526035602052604090205460ff1661104e5760405162461bcd60e51b815260206004820152601960248201527f5374726174656779206973206e6f7420737570706f727465640000000000000060448201526064016105ac565b6000819050806001600160a01b031663853828b66040518163ffffffff1660e01b8152600401600060405180830381600087803b15801561108e57600080fd5b505af11580156110a2573d6000803e3d6000fd5b505050505050565b7f44c4d30b2eaad5130ad70c3ba6972730566f3e6359ab83e800d905c61b1c51db546001600160a01b0316336001600160a01b0316146111455760405162461bcd60e51b815260206004820152603060248201527f4f6e6c79207468652070656e64696e6720476f7665726e6f722063616e20636f60448201526f6d706c6574652074686520636c61696d60801b60648201526084016105ac565b61114e33611f3d565b565b611158611b12565b6111745760405162461bcd60e51b81526004016105ac9061247d565b600060465560478190556040518181527fc29d6fedbc6bdf267a08166c2b976fbd72aca5d6a769528616f8b9224c8f197f90602001610694565b6111b6611b12565b6111d25760405162461bcd60e51b81526004016105ac9061247d565b60418190556040518181527f95201f9c21f26877223b1ff4073936a6484c35495649e60e55730497aeb60d9390602001610694565b61120f611b12565b61122b5760405162461bcd60e51b81526004016105ac9061247d565b603f80546001600160a01b0319166001600160a01b0383169081179091556040519081527f869e0abd13cc3a975de7b93be3df1cb2255c802b1cead85963cc79d99f131bee90602001610694565b603f546001600160a01b03163314806112955750611295611b12565b6112b15760405162461bcd60e51b81526004016105ac906124b4565b6001600160a01b03861660009081526035602052604090205460ff166113115760405162461bcd60e51b8152602060048201526015602482015274496e76616c69642066726f6d20537472617465677960581b60448201526064016105ac565b6001600160a01b03851660009081526035602052604090205460ff1661136f5760405162461bcd60e51b8152602060048201526013602482015272496e76616c696420746f20537472617465677960681b60448201526064016105ac565b8281146113be5760405162461bcd60e51b815260206004820152601960248201527f506172616d65746572206c656e677468206d69736d617463680000000000000060448201526064016105ac565b858560005b8581101561158357816001600160a01b031663aa388af68888848181106113ec576113ec6126b6565b905060200201602081019061140191906122d1565b6040516001600160e01b031960e084901b1681526001600160a01b03909116600482015260240160206040518083038186803b15801561144057600080fd5b505afa158015611454573d6000803e3d6000fd5b505050506040513d601f19601f8201168201806040525081019061147891906123da565b6114b85760405162461bcd60e51b8152602060048201526011602482015270105cdcd95d081d5b9cdd5c1c1bdc9d1959607a1b60448201526064016105ac565b826001600160a01b031663d9caed12838989858181106114da576114da6126b6565b90506020020160208101906114ef91906122d1565b888886818110611501576115016126b6565b6040516001600160e01b031960e088901b1681526001600160a01b03958616600482015294909316602485015250602090910201356044820152606401600060405180830381600087803b15801561155857600080fd5b505af115801561156c573d6000803e3d6000fd5b50505050808061157b9061266f565b9150506113c3565b50806001600160a01b031663de5f62686040518163ffffffff1660e01b8152600401600060405180830381600087803b1580156115bf57600080fd5b505af11580156115d3573d6000803e3d6000fd5b505050505050505050505050565b6037546040516315d5220f60e31b81526001600160a01b038381166004830152600092839291169063aea910789060240160206040518083038186803b15801561162a57600080fd5b505afa15801561163e573d6000803e3d6000fd5b505050506040513d601f19601f820116820180604052508101906116629190612415565b90506305f5e10081101561084b57506305f5e1006108588160126008611edb565b603f546001600160a01b031633148061169f575061169f611b12565b6116bb5760405162461bcd60e51b81526004016105ac906124b4565b670de0b6b3a76400008111156117035760405162461bcd60e51b815260206004820152600d60248201526c496e76616c69642076616c756560981b60448201526064016105ac565b60398190556040518181527f41ecb23a0e7865b25f38c268b7c3012220d822929e9edff07326e89d5bb822b590602001610694565b603f546001600160a01b03163314806117545750611754611b12565b6117705760405162461bcd60e51b81526004016105ac906124b4565b6037805460ff60a81b191690556040517f891ebab18da80ebeeea06b1b1cede098329c4c008906a98370c2ac7a80b571cb90600090a1565b6117b0611b12565b6117cc5760405162461bcd60e51b81526004016105ac9061247d565b603a8190556040518181527f2ec5fb5a3d2703edc461252d92ccd2799c3c74f01d97212b20388207fa17ae4590602001610694565b611809611b12565b6118255760405162461bcd60e51b81526004016105ac9061247d565b603b8190556040518181527f39367850377ac04920a9a670f2180e7a94d83b15ad302e59875ec58fd10bd37d90602001610694565b603f546001600160a01b03163314806118765750611876611b12565b6118925760405162461bcd60e51b81526004016105ac906124b4565b604080516001600160a01b038085168252831660208201527fba58ce12801c949fa65f41c46ed108671c219baf945fa48d21026cea99ff252a910160405180910390a16001600160a01b03811615611a6e576001600160a01b03811660009081526035602052604090205460ff166119445760405162461bcd60e51b815260206004820152601560248201527414dd1c985d1959de481b9bdd08185c1c1c9bdd9959605a1b60448201526064016105ac565b6001600160a01b038216600090815260336020526040902054819060ff166119a75760405162461bcd60e51b8152602060048201526016602482015275105cdcd95d081a5cc81b9bdd081cdd5c1c1bdc9d195960521b60448201526064016105ac565b60405163551c457b60e11b81526001600160a01b03848116600483015282169063aa388af69060240160206040518083038186803b1580156119e857600080fd5b505afa1580156119fc573d6000803e3d6000fd5b505050506040513d601f19601f82011682018060405250810190611a2091906123da565b611a6c5760405162461bcd60e51b815260206004820152601f60248201527f4173736574206e6f7420737570706f727465642062792053747261746567790060448201526064016105ac565b505b6001600160a01b03918216600090815260406020819052902080546001600160a01b03191691909216179055565b603f546001600160a01b0316331480611ab85750611ab8611b12565b611ad45760405162461bcd60e51b81526004016105ac906124b4565b6037805460ff60a01b1916600160a01b1790556040517f8cff26a5985614b3d30629cc4ab83824bf115aec971b718d8f2f99562032e97290600090a1565b6000611b2a6000805160206126cd8339815191525490565b6001600160a01b0316336001600160a01b031614905090565b603f546001600160a01b0316331480611b5f5750611b5f611b12565b611b7b5760405162461bcd60e51b81526004016105ac906124b4565b60005b603654811015611c1457600060368281548110611b9d57611b9d6126b6565b60009182526020822001546040805163429c145b60e11b815290516001600160a01b039092169350839263853828b69260048084019382900301818387803b158015611be857600080fd5b505af1158015611bfc573d6000803e3d6000fd5b50505050508080611c0c9061266f565b915050611b7e565b50565b611c1f611b12565b611c3b5760405162461bcd60e51b81526004016105ac9061247d565b611c63817f44c4d30b2eaad5130ad70c3ba6972730566f3e6359ab83e800d905c61b1c51db55565b806001600160a01b0316611c836000805160206126cd8339815191525490565b6001600160a01b03167fa39cc5eb22d0f34d8beaefee8a3f17cc229c1a1d1ef87a5ad47313487b1c4f0d60405160405180910390a350565b611cc3611b12565b611cdf5760405162461bcd60e51b81526004016105ac9061247d565b604580546001600160a01b0319166001600160a01b0383169081179091556040519081527fa12850fb726e0b2b7b3c9a9342031e1268a8148d0eb06b4bea8613204ffcd2b890602001610694565b611d35611b12565b611d515760405162461bcd60e51b81526004016105ac9061247d565b6103e8811115611dad5760405162461bcd60e51b815260206004820152602160248201527f52656465656d206665652073686f756c64206e6f74206265206f7665722031306044820152602560f81b60648201526084016105ac565b60388190556040518181527fd6c7508d6658ccee36b7b7d7fd72e5cbaeefb40c64eff24e9ae7470e846304ee90602001610694565b611dea611b12565b611e065760405162461bcd60e51b81526004016105ac9061247d565b803b611e605760405162461bcd60e51b8152602060048201526024808201527f6e657720696d706c656d656e746174696f6e206973206e6f74206120636f6e746044820152631c9858dd60e21b60648201526084016105ac565b7fa2bd3d3cf188a41358c8b401076eb59066b09dec5775650c0de4c55187d17bd955565b604080516001600160a01b038416602482015260448082018490528251808303909101815260649091019091526020810180516001600160e01b031663a9059cbb60e01b179052611ed6908490611ffe565b505050565b600081831115611f0b57611f04611ef28385612628565b611efd90600a612561565b85906120d0565b9350611f35565b81831015611f3557611f32611f208484612628565b611f2b90600a612561565b85906120e5565b93505b509192915050565b6001600160a01b038116611f935760405162461bcd60e51b815260206004820152601a60248201527f4e657720476f7665726e6f72206973206164647265737328302900000000000060448201526064016105ac565b806001600160a01b0316611fb36000805160206126cd8339815191525490565b6001600160a01b03167fc7c0c772add429241571afb3805861fb3cfa2af374534088b76cdb4325a87e9a60405160405180910390a3611c14816000805160206126cd83398151915255565b6000612053826040518060400160405280602081526020017f5361666545524332303a206c6f772d6c6576656c2063616c6c206661696c6564815250856001600160a01b03166120f19092919063ffffffff16565b805190915015611ed6578080602001905181019061207191906123da565b611ed65760405162461bcd60e51b815260206004820152602a60248201527f5361666545524332303a204552433230206f7065726174696f6e20646964206e6044820152691bdd081cdd58d8d9595960b21b60648201526084016105ac565b60006120dc8284612609565b90505b92915050565b60006120dc82846124fc565b60606121008484600085612108565b949350505050565b6060824710156121695760405162461bcd60e51b815260206004820152602660248201527f416464726573733a20696e73756666696369656e742062616c616e636520666f6044820152651c8818d85b1b60d21b60648201526084016105ac565b843b6121b75760405162461bcd60e51b815260206004820152601d60248201527f416464726573733a2063616c6c20746f206e6f6e2d636f6e747261637400000060448201526064016105ac565b600080866001600160a01b031685876040516121d3919061242e565b60006040518083038185875af1925050503d8060008114612210576040519150601f19603f3d011682016040523d82523d6000602084013e612215565b606091505b5091509150612225828286612230565b979650505050505050565b6060831561223f575081610858565b82511561224f5782518084602001fd5b8160405162461bcd60e51b81526004016105ac919061244a565b80356001600160a01b038116811461228057600080fd5b919050565b60008083601f84011261229757600080fd5b50813567ffffffffffffffff8111156122af57600080fd5b6020830191508360208260051b85010111156122ca57600080fd5b9250929050565b6000602082840312156122e357600080fd5b6120dc82612269565b600080604083850312156122ff57600080fd5b61230883612269565b915061231660208401612269565b90509250929050565b6000806000806000806080878903121561233857600080fd5b61234187612269565b955061234f60208801612269565b9450604087013567ffffffffffffffff8082111561236c57600080fd5b6123788a838b01612285565b9096509450606089013591508082111561239157600080fd5b5061239e89828a01612285565b979a9699509497509295939492505050565b600080604083850312156123c357600080fd5b6123cc83612269565b946020939093013593505050565b6000602082840312156123ec57600080fd5b8151801515811461085857600080fd5b60006020828403121561240e57600080fd5b5035919050565b60006020828403121561242757600080fd5b5051919050565b6000825161244081846020870161263f565b9190910192915050565b602081526000825180602084015261246981604085016020870161263f565b601f01601f19169190910160400192915050565b6020808252601a908201527f43616c6c6572206973206e6f742074686520476f7665726e6f72000000000000604082015260600190565b60208082526028908201527f43616c6c6572206973206e6f74207468652053747261746567697374206f722060408201526723b7bb32b93737b960c11b606082015260800190565b60008261251957634e487b7160e01b600052601260045260246000fd5b500490565b600181815b8085111561255957816000190482111561253f5761253f61268a565b8085161561254c57918102915b93841c9390800290612523565b509250929050565b60006120dc8383600082612577575060016120df565b81612584575060006120df565b816001811461259a57600281146125a4576125c0565b60019150506120df565b60ff8411156125b5576125b561268a565b50506001821b6120df565b5060208310610133831016604e8410600b84101617156125e3575081810a6120df565b6125ed838361251e565b80600019048211156126015761260161268a565b029392505050565b60008160001904831182151516156126235761262361268a565b500290565b60008282101561263a5761263a61268a565b500390565b60005b8381101561265a578181015183820152602001612642565b83811115612669576000848401525b50505050565b60006000198214156126835761268361268a565b5060010190565b634e487b7160e01b600052601160045260246000fd5b634e487b7160e01b600052603160045260246000fd5b634e487b7160e01b600052603260045260246000fdfe7bea13895fa79d2831e0a9e28edede30099005a50d652d8957cf8a607ee6ca4aa26469706673582212202ac8a80abc3f7f18cfb1b70a759f65b3fcdd6af5ffc69db191b4e2e3717b687f64736f6c634300080700337bea13895fa79d2831e0a9e28edede30099005a50d652d8957cf8a607ee6ca4a",
  "devdoc": {
    "kind": "dev",
    "methods": {
      "approveStrategy(address)": {
        "details": "Add a strategy to the Vault.",
        "params": {
          "_addr": "Address of the strategy to add"
        }
      },
      "claimGovernance()": {
        "details": "Claim Governance of the contract to a new account (`newGovernor`). Can only be called by the new Governor."
      },
      "governor()": {
        "details": "Returns the address of the current Governor."
      },
      "isGovernor()": {
        "details": "Returns true if the caller is the current Governor."
      },
      "pauseCapital()": {
        "details": "Set the deposit paused flag to true to prevent capital movement."
      },
      "pauseRebase()": {
        "details": "Set the deposit paused flag to true to prevent rebasing."
      },
      "priceUSDMint(address)": {
        "details": "Returns the total price in 18 digit USD for a given asset.      Never goes above 1, since that is how we price mints",
        "params": {
          "asset": "address of the asset"
        },
        "returns": {
          "_0": "uint256 USD price of 1 of the asset, in 18 decimal fixed"
        }
      },
      "priceUSDRedeem(address)": {
        "details": "Returns the total price in 18 digit USD for a given asset.      Never goes below 1, since that is how we price redeems",
        "params": {
          "asset": "Address of the asset"
        },
        "returns": {
          "_0": "uint256 USD price of 1 of the asset, in 18 decimal fixed"
        }
      },
      "reallocate(address,address,address[],uint256[])": {
        "params": {
          "_amounts": "Array of amounts of each corresponding asset to move.",
          "_assets": "Array of asset address that will be moved",
          "_strategyFromAddress": "Address of Strategy to move assets from.",
          "_strategyToAddress": "Address of Strategy to move assets to."
        }
      },
      "removeStrategy(address)": {
        "details": "Remove a strategy from the Vault.",
        "params": {
          "_addr": "Address of the strategy to remove"
        }
      },
      "setAdminImpl(address)": {
        "details": "set the implementation for the admin, this needs to be in a base class else we cannot set it",
        "params": {
          "newImpl": "address of the implementation"
        }
      },
      "setAssetDefaultStrategy(address,address)": {
        "details": "Set the default Strategy for an asset, i.e. the one which the asset will be automatically allocated to and withdrawn from",
        "params": {
          "_asset": "Address of the asset",
          "_strategy": "Address of the Strategy"
        }
      },
      "setAutoAllocateThreshold(uint256)": {
        "details": "Sets the minimum amount of OUSD in a mint to trigger an automatic allocation of funds afterwords.",
        "params": {
          "_threshold": "OUSD amount with 18 fixed decimals."
        }
      },
      "setMaxSupplyDiff(uint256)": {
        "details": "Sets the maximum allowable difference between total supply and backing assets' value."
      },
      "setNetOusdMintForStrategyThreshold(uint256)": {
        "details": "Set maximum amount of OUSD that can at any point be minted and deployed to strategy (used only by ConvexOUSDMetaStrategy for now).",
        "params": {
          "_threshold": "OUSD amount with 18 fixed decimals."
        }
      },
      "setOusdMetaStrategy(address)": {
        "details": "Set OUSD Meta strategy",
        "params": {
          "_ousdMetaStrategy": "Address of ousd meta strategy"
        }
      },
      "setPriceProvider(address)": {
        "details": "Set address of price provider.",
        "params": {
          "_priceProvider": "Address of price provider"
        }
      },
      "setRebaseThreshold(uint256)": {
        "details": "Set a minimum amount of OUSD in a mint or redeem that triggers a rebase",
        "params": {
          "_threshold": "OUSD amount with 18 fixed decimals."
        }
      },
      "setRedeemFeeBps(uint256)": {
        "details": "Set a fee in basis points to be charged for a redeem.",
        "params": {
          "_redeemFeeBps": "Basis point fee to be charged"
        }
      },
      "setStrategistAddr(address)": {
        "details": "Set address of Strategist",
        "params": {
          "_address": "Address of Strategist"
        }
      },
      "setTrusteeAddress(address)": {
        "details": "Sets the trusteeAddress that can receive a portion of yield.      Setting to the zero address disables this feature."
      },
      "setTrusteeFeeBps(uint256)": {
        "details": "Sets the TrusteeFeeBps to the percentage of yield that should be      received in basis points."
      },
      "setVaultBuffer(uint256)": {
        "details": "Set a buffer of assets to keep in the Vault to handle most redemptions without needing to spend gas unwinding assets from a Strategy.",
        "params": {
          "_vaultBuffer": "Percentage using 18 decimals. 100% = 1e18."
        }
      },
      "supportAsset(address)": {
        "details": "Add a supported asset to the contract, i.e. one that can be         to mint OUSD.",
        "params": {
          "_asset": "Address of asset"
        }
      },
      "transferGovernance(address)": {
        "details": "Transfers Governance of the contract to a new account (`newGovernor`). Can only be called by the current Governor. Must be claimed for this to complete",
        "params": {
          "_newGovernor": "Address of the new Governor"
        }
      },
      "transferToken(address,uint256)": {
        "details": "Transfer token to governor. Intended for recovering tokens stuck in      contract, i.e. mistaken sends.",
        "params": {
          "_amount": "Amount of the asset to transfer",
          "_asset": "Address for the asset"
        }
      },
      "unpauseCapital()": {
        "details": "Set the deposit paused flag to false to enable capital movement."
      },
      "unpauseRebase()": {
        "details": "Set the deposit paused flag to true to allow rebasing."
      },
      "withdrawAllFromStrategies()": {
        "details": "Withdraws all assets from all the strategies and sends assets to the Vault."
      },
      "withdrawAllFromStrategy(address)": {
        "details": "Withdraws all assets from the strategy and sends assets to the Vault.",
        "params": {
          "_strategyAddr": "Strategy address."
        }
      }
    },
    "version": 1
  },
  "userdoc": {
    "kind": "user",
    "methods": {
      "reallocate(address,address,address[],uint256[])": {
        "notice": "Move assets from one Strategy to another"
      }
    },
    "version": 1
  },
  "storageLayout": {
    "storage": [
      {
        "astId": 21409,
        "contract": "contracts/vault/VaultAdmin.sol:VaultAdmin",
        "label": "initialized",
        "offset": 0,
        "slot": "0",
        "type": "t_bool"
      },
      {
        "astId": 21412,
        "contract": "contracts/vault/VaultAdmin.sol:VaultAdmin",
        "label": "initializing",
        "offset": 1,
        "slot": "0",
        "type": "t_bool"
      },
      {
        "astId": 21452,
        "contract": "contracts/vault/VaultAdmin.sol:VaultAdmin",
        "label": "______gap",
        "offset": 0,
        "slot": "1",
        "type": "t_array(t_uint256)50_storage"
      },
      {
        "astId": 25008,
        "contract": "contracts/vault/VaultAdmin.sol:VaultAdmin",
        "label": "assets",
        "offset": 0,
        "slot": "51",
        "type": "t_mapping(t_address,t_struct(Asset)25003_storage)"
      },
      {
        "astId": 25011,
        "contract": "contracts/vault/VaultAdmin.sol:VaultAdmin",
        "label": "allAssets",
        "offset": 0,
        "slot": "52",
        "type": "t_array(t_address)dyn_storage"
      },
      {
        "astId": 25021,
        "contract": "contracts/vault/VaultAdmin.sol:VaultAdmin",
        "label": "strategies",
        "offset": 0,
        "slot": "53",
        "type": "t_mapping(t_address,t_struct(Strategy)25016_storage)"
      },
      {
        "astId": 25024,
        "contract": "contracts/vault/VaultAdmin.sol:VaultAdmin",
        "label": "allStrategies",
        "offset": 0,
        "slot": "54",
        "type": "t_array(t_address)dyn_storage"
      },
      {
        "astId": 25026,
        "contract": "contracts/vault/VaultAdmin.sol:VaultAdmin",
        "label": "priceProvider",
        "offset": 0,
        "slot": "55",
        "type": "t_address"
      },
      {
        "astId": 25029,
        "contract": "contracts/vault/VaultAdmin.sol:VaultAdmin",
        "label": "rebasePaused",
        "offset": 20,
        "slot": "55",
        "type": "t_bool"
      },
      {
        "astId": 25032,
        "contract": "contracts/vault/VaultAdmin.sol:VaultAdmin",
        "label": "capitalPaused",
        "offset": 21,
        "slot": "55",
        "type": "t_bool"
      },
      {
        "astId": 25034,
        "contract": "contracts/vault/VaultAdmin.sol:VaultAdmin",
        "label": "redeemFeeBps",
        "offset": 0,
        "slot": "56",
        "type": "t_uint256"
      },
      {
        "astId": 25036,
        "contract": "contracts/vault/VaultAdmin.sol:VaultAdmin",
        "label": "vaultBuffer",
        "offset": 0,
        "slot": "57",
        "type": "t_uint256"
      },
      {
        "astId": 25038,
        "contract": "contracts/vault/VaultAdmin.sol:VaultAdmin",
        "label": "autoAllocateThreshold",
        "offset": 0,
        "slot": "58",
        "type": "t_uint256"
      },
      {
        "astId": 25040,
        "contract": "contracts/vault/VaultAdmin.sol:VaultAdmin",
        "label": "rebaseThreshold",
        "offset": 0,
        "slot": "59",
        "type": "t_uint256"
      },
      {
        "astId": 25043,
        "contract": "contracts/vault/VaultAdmin.sol:VaultAdmin",
        "label": "oUSD",
        "offset": 0,
        "slot": "60",
        "type": "t_contract(OUSD)21235"
      },
      {
        "astId": 25052,
        "contract": "contracts/vault/VaultAdmin.sol:VaultAdmin",
        "label": "_deprecated_rebaseHooksAddr",
        "offset": 0,
        "slot": "61",
        "type": "t_address"
      },
      {
        "astId": 25058,
        "contract": "contracts/vault/VaultAdmin.sol:VaultAdmin",
        "label": "_deprecated_uniswapAddr",
        "offset": 0,
        "slot": "62",
        "type": "t_address"
      },
      {
        "astId": 25064,
        "contract": "contracts/vault/VaultAdmin.sol:VaultAdmin",
        "label": "strategistAddr",
        "offset": 0,
        "slot": "63",
        "type": "t_address"
      },
      {
        "astId": 25068,
        "contract": "contracts/vault/VaultAdmin.sol:VaultAdmin",
        "label": "assetDefaultStrategies",
        "offset": 0,
        "slot": "64",
        "type": "t_mapping(t_address,t_address)"
      },
      {
        "astId": 25070,
        "contract": "contracts/vault/VaultAdmin.sol:VaultAdmin",
        "label": "maxSupplyDiff",
        "offset": 0,
        "slot": "65",
        "type": "t_uint256"
      },
      {
        "astId": 25072,
        "contract": "contracts/vault/VaultAdmin.sol:VaultAdmin",
        "label": "trusteeAddress",
        "offset": 0,
        "slot": "66",
        "type": "t_address"
      },
      {
        "astId": 25074,
        "contract": "contracts/vault/VaultAdmin.sol:VaultAdmin",
        "label": "trusteeFeeBps",
        "offset": 0,
        "slot": "67",
        "type": "t_uint256"
      },
      {
        "astId": 25077,
        "contract": "contracts/vault/VaultAdmin.sol:VaultAdmin",
        "label": "_deprecated_swapTokens",
        "offset": 0,
        "slot": "68",
        "type": "t_array(t_address)dyn_storage"
      },
      {
        "astId": 25086,
        "contract": "contracts/vault/VaultAdmin.sol:VaultAdmin",
        "label": "ousdMetaStrategy",
        "offset": 0,
        "slot": "69",
        "type": "t_address"
      },
      {
        "astId": 25089,
        "contract": "contracts/vault/VaultAdmin.sol:VaultAdmin",
        "label": "netOusdMintedForStrategy",
        "offset": 0,
        "slot": "70",
        "type": "t_int256"
      },
      {
        "astId": 25092,
        "contract": "contracts/vault/VaultAdmin.sol:VaultAdmin",
        "label": "netOusdMintForStrategyThreshold",
        "offset": 0,
        "slot": "71",
        "type": "t_uint256"
      }
    ],
    "types": {
      "t_address": {
        "encoding": "inplace",
        "label": "address",
        "numberOfBytes": "20"
      },
      "t_array(t_address)dyn_storage": {
        "base": "t_address",
        "encoding": "dynamic_array",
        "label": "address[]",
        "numberOfBytes": "32"
      },
      "t_array(t_uint256)50_storage": {
        "base": "t_uint256",
        "encoding": "inplace",
        "label": "uint256[50]",
        "numberOfBytes": "1600"
      },
      "t_bool": {
        "encoding": "inplace",
        "label": "bool",
        "numberOfBytes": "1"
      },
      "t_contract(OUSD)21235": {
        "encoding": "inplace",
        "label": "contract OUSD",
        "numberOfBytes": "20"
      },
      "t_int256": {
        "encoding": "inplace",
        "label": "int256",
        "numberOfBytes": "32"
      },
      "t_mapping(t_address,t_address)": {
        "encoding": "mapping",
        "key": "t_address",
        "label": "mapping(address => address)",
        "numberOfBytes": "32",
        "value": "t_address"
      },
      "t_mapping(t_address,t_struct(Asset)25003_storage)": {
        "encoding": "mapping",
        "key": "t_address",
        "label": "mapping(address => struct VaultStorage.Asset)",
        "numberOfBytes": "32",
        "value": "t_struct(Asset)25003_storage"
      },
      "t_mapping(t_address,t_struct(Strategy)25016_storage)": {
        "encoding": "mapping",
        "key": "t_address",
        "label": "mapping(address => struct VaultStorage.Strategy)",
        "numberOfBytes": "32",
        "value": "t_struct(Strategy)25016_storage"
      },
      "t_struct(Asset)25003_storage": {
        "encoding": "inplace",
        "label": "struct VaultStorage.Asset",
        "members": [
          {
            "astId": 25002,
            "contract": "contracts/vault/VaultAdmin.sol:VaultAdmin",
            "label": "isSupported",
            "offset": 0,
            "slot": "0",
            "type": "t_bool"
          }
        ],
        "numberOfBytes": "32"
      },
      "t_struct(Strategy)25016_storage": {
        "encoding": "inplace",
        "label": "struct VaultStorage.Strategy",
        "members": [
          {
            "astId": 25013,
            "contract": "contracts/vault/VaultAdmin.sol:VaultAdmin",
            "label": "isSupported",
            "offset": 0,
            "slot": "0",
            "type": "t_bool"
          },
          {
            "astId": 25015,
            "contract": "contracts/vault/VaultAdmin.sol:VaultAdmin",
            "label": "_deprecated",
            "offset": 0,
            "slot": "1",
            "type": "t_uint256"
          }
        ],
        "numberOfBytes": "64"
      },
      "t_uint256": {
        "encoding": "inplace",
        "label": "uint256",
        "numberOfBytes": "32"
      }
    }
  }
}