{
  "address": "0x328d15F6B5Eba1C30CDe1A5F1f5A9E35b07f5424",
  "abi": [
    {
      "constant": true,
      "inputs": [],
      "name": "depositPaused",
      "outputs": [
        {
          "internalType": "bool",
          "name": "",
          "type": "bool"
        }
      ],
      "payable": false,
      "stateMutability": "view",
      "type": "function"
    },
    {
      "constant": false,
      "inputs": [
        {
          "internalType": "address[]",
          "name": "_assets",
          "type": "address[]"
        },
        {
          "internalType": "uint256[]",
          "name": "_amounts",
          "type": "uint256[]"
        }
      ],
      "name": "mintMultiple",
      "outputs": [],
      "payable": false,
      "stateMutability": "nonpayable",
      "type": "function"
    },
    {
      "constant": true,
      "inputs": [],
      "name": "redeemFeeBps",
      "outputs": [
        {
          "internalType": "uint256",
          "name": "",
          "type": "uint256"
        }
      ],
      "payable": false,
      "stateMutability": "view",
      "type": "function"
    },
    {
      "constant": true,
      "inputs": [],
      "name": "governor",
      "outputs": [
        {
          "internalType": "address",
          "name": "",
          "type": "address"
        }
      ],
      "payable": false,
      "stateMutability": "view",
      "type": "function"
    },
    {
      "constant": true,
      "inputs": [],
      "name": "uniswapAddr",
      "outputs": [
        {
          "internalType": "address",
          "name": "",
          "type": "address"
        }
      ],
      "payable": false,
      "stateMutability": "view",
      "type": "function"
    },
    {
      "constant": true,
      "inputs": [],
      "name": "vaultBuffer",
      "outputs": [
        {
          "internalType": "uint256",
          "name": "",
          "type": "uint256"
        }
      ],
      "payable": false,
      "stateMutability": "view",
      "type": "function"
    },
    {
      "constant": true,
      "inputs": [],
      "name": "getAllAssets",
      "outputs": [
        {
          "internalType": "address[]",
          "name": "",
          "type": "address[]"
        }
      ],
      "payable": false,
      "stateMutability": "view",
      "type": "function"
    },
    {
      "constant": false,
      "inputs": [],
      "name": "redeemAll",
      "outputs": [],
      "payable": false,
      "stateMutability": "nonpayable",
      "type": "function"
    },
    {
      "constant": true,
      "inputs": [],
      "name": "getStrategyCount",
      "outputs": [
        {
          "internalType": "uint256",
          "name": "",
          "type": "uint256"
        }
      ],
      "payable": false,
      "stateMutability": "view",
      "type": "function"
    },
    {
      "constant": false,
      "inputs": [
        {
          "internalType": "address",
          "name": "_asset",
          "type": "address"
        },
        {
          "internalType": "uint256",
          "name": "_amount",
          "type": "uint256"
        }
      ],
      "name": "mint",
      "outputs": [],
      "payable": false,
      "stateMutability": "nonpayable",
      "type": "function"
    },
    {
      "constant": true,
      "inputs": [],
      "name": "rebaseThreshold",
      "outputs": [
        {
          "internalType": "uint256",
          "name": "",
          "type": "uint256"
        }
      ],
      "payable": false,
      "stateMutability": "view",
      "type": "function"
    },
    {
      "constant": true,
      "inputs": [],
      "name": "rebasePaused",
      "outputs": [
        {
          "internalType": "bool",
          "name": "",
          "type": "bool"
        }
      ],
      "payable": false,
      "stateMutability": "view",
      "type": "function"
    },
    {
      "constant": true,
      "inputs": [],
      "name": "strategistAddr",
      "outputs": [
        {
          "internalType": "address",
          "name": "",
          "type": "address"
        }
      ],
      "payable": false,
      "stateMutability": "view",
      "type": "function"
    },
    {
      "constant": false,
      "inputs": [],
      "name": "claimGovernance",
      "outputs": [],
      "payable": false,
      "stateMutability": "nonpayable",
      "type": "function"
    },
    {
      "constant": true,
      "inputs": [
        {
          "internalType": "address",
          "name": "_asset",
          "type": "address"
        }
      ],
      "name": "checkBalance",
      "outputs": [
        {
          "internalType": "uint256",
          "name": "",
          "type": "uint256"
        }
      ],
      "payable": false,
      "stateMutability": "view",
      "type": "function"
    },
    {
      "constant": false,
      "inputs": [
        {
          "internalType": "uint256",
          "name": "_amount",
          "type": "uint256"
        }
      ],
      "name": "calculateRedeemOutputs",
      "outputs": [
        {
          "internalType": "uint256[]",
          "name": "",
          "type": "uint256[]"
        }
      ],
      "payable": false,
      "stateMutability": "nonpayable",
      "type": "function"
    },
    {
      "constant": true,
      "inputs": [],
      "name": "rebaseHooksAddr",
      "outputs": [
        {
          "internalType": "address",
          "name": "",
          "type": "address"
        }
      ],
      "payable": false,
      "stateMutability": "view",
      "type": "function"
    },
    {
      "constant": true,
      "inputs": [
        {
          "internalType": "address",
          "name": "_asset",
          "type": "address"
        }
      ],
      "name": "isSupportedAsset",
      "outputs": [
        {
          "internalType": "bool",
          "name": "",
          "type": "bool"
        }
      ],
      "payable": false,
      "stateMutability": "view",
      "type": "function"
    },
    {
      "constant": true,
      "inputs": [],
      "name": "autoAllocateThreshold",
      "outputs": [
        {
          "internalType": "uint256",
          "name": "",
          "type": "uint256"
        }
      ],
      "payable": false,
      "stateMutability": "view",
      "type": "function"
    },
    {
      "constant": true,
      "inputs": [],
      "name": "getAssetCount",
      "outputs": [
        {
          "internalType": "uint256",
          "name": "",
          "type": "uint256"
        }
      ],
      "payable": false,
      "stateMutability": "view",
      "type": "function"
    },
    {
      "constant": false,
      "inputs": [],
      "name": "allocate",
      "outputs": [],
      "payable": false,
      "stateMutability": "nonpayable",
      "type": "function"
    },
    {
      "constant": false,
      "inputs": [],
      "name": "rebase",
      "outputs": [
        {
          "internalType": "uint256",
          "name": "",
          "type": "uint256"
        }
      ],
      "payable": false,
      "stateMutability": "nonpayable",
      "type": "function"
    },
    {
      "constant": true,
      "inputs": [],
      "name": "priceProvider",
      "outputs": [
        {
          "internalType": "address",
          "name": "",
          "type": "address"
        }
      ],
      "payable": false,
      "stateMutability": "view",
      "type": "function"
    },
    {
      "constant": true,
      "inputs": [],
      "name": "isGovernor",
      "outputs": [
        {
          "internalType": "bool",
          "name": "",
          "type": "bool"
        }
      ],
      "payable": false,
      "stateMutability": "view",
      "type": "function"
    },
    {
      "constant": false,
      "inputs": [
        {
          "internalType": "address",
          "name": "_newGovernor",
          "type": "address"
        }
      ],
      "name": "transferGovernance",
      "outputs": [],
      "payable": false,
      "stateMutability": "nonpayable",
      "type": "function"
    },
    {
      "constant": true,
      "inputs": [],
      "name": "totalValue",
      "outputs": [
        {
          "internalType": "uint256",
          "name": "value",
          "type": "uint256"
        }
      ],
      "payable": false,
      "stateMutability": "view",
      "type": "function"
    },
    {
      "constant": false,
      "inputs": [
        {
          "internalType": "uint256",
          "name": "_amount",
          "type": "uint256"
        }
      ],
      "name": "redeem",
      "outputs": [],
      "payable": false,
      "stateMutability": "nonpayable",
      "type": "function"
    },
    {
      "constant": false,
      "inputs": [
        {
          "internalType": "address",
          "name": "newImpl",
          "type": "address"
        }
      ],
      "name": "setAdminImpl",
      "outputs": [],
      "payable": false,
      "stateMutability": "nonpayable",
      "type": "function"
    },
    {
      "payable": true,
      "stateMutability": "payable",
      "type": "fallback"
    },
    {
      "anonymous": false,
      "inputs": [
        {
          "indexed": false,
          "internalType": "address",
          "name": "_asset",
          "type": "address"
        }
      ],
      "name": "AssetSupported",
      "type": "event"
    },
    {
      "anonymous": false,
      "inputs": [
        {
          "indexed": false,
          "internalType": "address",
          "name": "_addr",
          "type": "address"
        }
      ],
      "name": "StrategyAdded",
      "type": "event"
    },
    {
      "anonymous": false,
      "inputs": [
        {
          "indexed": false,
          "internalType": "address",
          "name": "_addr",
          "type": "address"
        }
      ],
      "name": "StrategyRemoved",
      "type": "event"
    },
    {
      "anonymous": false,
      "inputs": [
        {
          "indexed": false,
          "internalType": "address",
          "name": "_addr",
          "type": "address"
        },
        {
          "indexed": false,
          "internalType": "uint256",
          "name": "_value",
          "type": "uint256"
        }
      ],
      "name": "Mint",
      "type": "event"
    },
    {
      "anonymous": false,
      "inputs": [
        {
          "indexed": false,
          "internalType": "address",
          "name": "_addr",
          "type": "address"
        },
        {
          "indexed": false,
          "internalType": "uint256",
          "name": "_value",
          "type": "uint256"
        }
      ],
      "name": "Redeem",
      "type": "event"
    },
    {
      "anonymous": false,
      "inputs": [
        {
          "indexed": false,
          "internalType": "address[]",
          "name": "_strategyAddresses",
          "type": "address[]"
        },
        {
          "indexed": false,
          "internalType": "uint256[]",
          "name": "weights",
          "type": "uint256[]"
        }
      ],
      "name": "StrategyWeightsUpdated",
      "type": "event"
    },
    {
      "anonymous": false,
      "inputs": [],
      "name": "DepositsPaused",
      "type": "event"
    },
    {
      "anonymous": false,
      "inputs": [],
      "name": "DepositsUnpaused",
      "type": "event"
    },
    {
      "anonymous": false,
      "inputs": [
        {
          "indexed": true,
          "internalType": "address",
          "name": "previousGovernor",
          "type": "address"
        },
        {
          "indexed": true,
          "internalType": "address",
          "name": "newGovernor",
          "type": "address"
        }
      ],
      "name": "PendingGovernorshipTransfer",
      "type": "event"
    },
    {
      "anonymous": false,
      "inputs": [
        {
          "indexed": true,
          "internalType": "address",
          "name": "previousGovernor",
          "type": "address"
        },
        {
          "indexed": true,
          "internalType": "address",
          "name": "newGovernor",
          "type": "address"
        }
      ],
      "name": "GovernorshipTransferred",
      "type": "event"
    }
  ],
  "transactionHash": "0x127a15cbd6fe2f08fec950f0aa6e250c41b7102b5044d634de7008fcc67bd7be",
  "args": [],
  "solcInputHash": "e0a9e0bb392301ddd8a143004a57e0b9",
  "bytecode": "0x60806040526037805461ffff60a01b19167501000000000000000000000000000000000000000000179055603d80546001600160a01b0319908116909155603e805482169055603f8054909116905562000062336001600160e01b03620000bb16565b620000756001600160e01b03620000ce16565b6001600160a01b031660006001600160a01b03167fc7c0c772add429241571afb3805861fb3cfa2af374534088b76cdb4325a87e9a60405160405180910390a3620000e2565b6000805160206200340583398151915255565b600080516020620034058339815191525490565b61331380620000f26000396000f3fe6080604052600436106101b75760003560e01c80635f515226116100ec578063af14052c1161008a578063d38bfff411610064578063d38bfff4146105b8578063d4c3eea0146105eb578063db006a7514610600578063fc0cfeee1461062a576101b7565b8063af14052c14610579578063b888879e1461058e578063c7af3352146105a3576101b7565b80639be918e6116100c65780639be918e6146105075780639fa1826e1461053a578063a0aead4d1461054f578063abaa991614610564576101b7565b80635f5152261461049557806367bd7ba3146104c8578063796be57b146104f2576101b7565b80632f4350c21161015957806352d38e5d1161013357806352d38e5d1461044157806353ca9f2414610456578063570d8e1d1461046b5780635d36b19014610480576101b7565b80632f4350c2146103de57806331e19cfa146103f357806340c10f1914610408576101b7565b80630c340a24116101955780630c340a241461031e578063128a8b051461034f5780631edfe3da146103645780632acada4d14610379576101b7565b806302befd24146101fd57806307ea54771461022657806309f6442c146102f7575b7fa2bd3d3cf188a41358c8b401076eb59066b09dec5775650c0de4c55187d17bd9366000803760008036600084545af43d6000803e8080156101f8573d6000f35b3d6000fd5b34801561020957600080fd5b5061021261065d565b604080519115158252519081900360200190f35b34801561023257600080fd5b506102f56004803603604081101561024957600080fd5b81019060208101813564010000000081111561026457600080fd5b82018360208201111561027657600080fd5b8035906020019184602083028401116401000000008311171561029857600080fd5b9193909290916020810190356401000000008111156102b657600080fd5b8201836020820111156102c857600080fd5b803590602001918460208302840111640100000000831117156102ea57600080fd5b50909250905061066d565b005b34801561030357600080fd5b5061030c6109c6565b60408051918252519081900360200190f35b34801561032a57600080fd5b506103336109cc565b604080516001600160a01b039092168252519081900360200190f35b34801561035b57600080fd5b506103336109db565b34801561037057600080fd5b5061030c6109ea565b34801561038557600080fd5b5061038e6109f0565b60408051602080825283518183015283519192839290830191858101910280838360005b838110156103ca5781810151838201526020016103b2565b505050509050019250505060405180910390f35b3480156103ea57600080fd5b506102f5610a52565b3480156103ff57600080fd5b5061030c610b73565b34801561041457600080fd5b506102f56004803603604081101561042b57600080fd5b506001600160a01b038135169060200135610b79565b34801561044d57600080fd5b5061030c610e66565b34801561046257600080fd5b50610212610e6c565b34801561047757600080fd5b50610333610e7c565b34801561048c57600080fd5b506102f5610e8b565b3480156104a157600080fd5b5061030c600480360360208110156104b857600080fd5b50356001600160a01b0316610eeb565b3480156104d457600080fd5b5061038e600480360360208110156104eb57600080fd5b5035610efe565b3480156104fe57600080fd5b50610333610f09565b34801561051357600080fd5b506102126004803603602081101561052a57600080fd5b50356001600160a01b0316610f18565b34801561054657600080fd5b5061030c610f36565b34801561055b57600080fd5b5061030c610f3c565b34801561057057600080fd5b506102f5610f42565b34801561058557600080fd5b5061030c610f4a565b34801561059a57600080fd5b50610333610fac565b3480156105af57600080fd5b50610212610fbb565b3480156105c457600080fd5b506102f5600480360360208110156105db57600080fd5b50356001600160a01b0316610fde565b3480156105f757600080fd5b5061030c61108a565b34801561060c57600080fd5b506102f56004803603602081101561062357600080fd5b5035611094565b34801561063657600080fd5b506102f56004803603602081101561064d57600080fd5b50356001600160a01b03166110cc565b603754600160a81b900460ff1681565b603754600160a81b900460ff16156106be576040805162461bcd60e51b815260206004820152600f60248201526e11195c1bdcda5d1cc81c185d5cd959608a1b604482015290519081900360640190fd5b828114610712576040805162461bcd60e51b815260206004820152601960248201527f506172616d65746572206c656e677468206d69736d6174636800000000000000604482015290519081900360640190fd5b600080606061072082611149565b905060005b6034548110156108715760005b87811015610868576034828154811061074757fe5b6000918252602090912001546001600160a01b031689898381811061076857fe5b905060200201356001600160a01b03166001600160a01b0316141561086057600087878381811061079557fe5b9050602002013511156108605760006107ce603484815481106107b457fe5b6000918252602090912001546001600160a01b0316611358565b905060008484815181106107de57fe5b60200260200101519050670de0b6b3a76400008111156108035750670de0b6b3a76400005b61082b826012038a8a8681811061081657fe5b9050602002013561141290919063ffffffff16565b870196506108598183600a0a8b8b8781811061084357fe5b9050602002013561146e9092919063ffffffff16565b8601955050505b600101610732565b50600101610725565b50603b54831015801561088e5750603754600160a01b900460ff16155b1561089f5761089d600161149c565b505b60005b868110156109055760008888838181106108b857fe5b905060200201356001600160a01b031690506108fc33308989868181106108db57fe5b90506020020135846001600160a01b03166116f5909392919063ffffffff16565b506001016108a2565b50603c54604080516340c10f1960e01b81523360048201526024810185905290516001600160a01b03909216916340c10f199160448082019260009290919082900301818387803b15801561095957600080fd5b505af115801561096d573d6000803e3d6000fd5b5050604080513381526020810186905281517f0f6798a560793a54c3bcfe86a93cde1e73087d944c0ea20544137d41213968859450908190039091019150a1603a5483106109bd576109bd610f42565b50505050505050565b60385481565b60006109d6611755565b905090565b603e546001600160a01b031681565b60395481565b60606034805480602002602001604051908101604052809291908181526020018280548015610a4857602002820191906000526020600020905b81546001600160a01b03168152600190910190602001808311610a2a575b5050505050905090565b603b54603c54604080516370a0823160e01b815233600482015290516001600160a01b03909216916370a0823191602480820192602092909190829003018186803b158015610aa057600080fd5b505afa158015610ab4573d6000803e3d6000fd5b505050506040513d6020811015610aca57600080fd5b5051118015610ae35750603754600160a01b900460ff16155b15610af457610af2600061149c565b505b603c54604080516370a0823160e01b81523360048201529051610b71926001600160a01b0316916370a08231916024808301926020929190829003018186803b158015610b4057600080fd5b505afa158015610b54573d6000803e3d6000fd5b505050506040513d6020811015610b6a57600080fd5b505161177a565b565b60365490565b603754600160a81b900460ff1615610bca576040805162461bcd60e51b815260206004820152600f60248201526e11195c1bdcda5d1cc81c185d5cd959608a1b604482015290519081900360640190fd5b6001600160a01b03821660009081526033602052604090205460ff16610c30576040805162461bcd60e51b8152602060048201526016602482015275105cdcd95d081a5cc81b9bdd081cdd5c1c1bdc9d195960521b604482015290519081900360640190fd5b60008111610c85576040805162461bcd60e51b815260206004820152601d60248201527f416d6f756e74206d7573742062652067726561746572207468616e2030000000604482015290519081900360640190fd5b6037546000906001600160a01b03166319af6bf0610ca285611b70565b6040518263ffffffff1660e01b81526004018080602001828103825283818151815260200191508051906020019080838360005b83811015610cee578181015183820152602001610cd6565b50505050905090810190601f168015610d1b5780820380516001836020036101000a031916815260200191505b5092505050602060405180830381600087803b158015610d3a57600080fd5b505af1158015610d4e573d6000803e3d6000fd5b505050506040513d6020811015610d6457600080fd5b505190506305f5e100811115610d7b57506305f5e1005b6000610d8684611358565b90506000610d9e84601284900363ffffffff61141216565b90506000610dc8610db685600a63ffffffff61141216565b8690600a86900a63ffffffff61146e16565b9050603b548210158015610de65750603754600160a01b900460ff16155b15610df757610df5600161149c565b505b85610e136001600160a01b03821633308963ffffffff6116f516565b603c54604080516340c10f1960e01b81523360048201526024810185905290516001600160a01b03909216916340c10f199160448082019260009290919082900301818387803b15801561095957600080fd5b603b5481565b603754600160a01b900460ff1681565b603f546001600160a01b031681565b610e93611ca1565b6001600160a01b0316336001600160a01b031614610ee25760405162461bcd60e51b81526004018080602001828103825260308152602001806132af6030913960400191505060405180910390fd5b610b7133611cc6565b6000610ef682611d71565b90505b919050565b6060610ef682611f1e565b603d546001600160a01b031681565b6001600160a01b031660009081526033602052604090205460ff1690565b603a5481565b60345490565b610b716121ce565b603754600090600160a01b900460ff1615610f9e576040805162461bcd60e51b815260206004820152600f60248201526e149958985cda5b99c81c185d5cd959608a1b604482015290519081900360640190fd5b610fa8600161149c565b5090565b6037546001600160a01b031681565b6000610fc5611755565b6001600160a01b0316336001600160a01b031614905090565b610fe6610fbb565b611037576040805162461bcd60e51b815260206004820152601a60248201527f43616c6c6572206973206e6f742074686520476f7665726e6f72000000000000604482015290519081900360640190fd5b611040816126ef565b806001600160a01b0316611052611755565b6001600160a01b03167fa39cc5eb22d0f34d8beaefee8a3f17cc229c1a1d1ef87a5ad47313487b1c4f0d60405160405180910390a350565b60006109d6612713565b603b54811180156110af5750603754600160a01b900460ff16155b156110c0576110be600061149c565b505b6110c98161177a565b50565b6110d4610fbb565b611125576040805162461bcd60e51b815260206004820152601a60248201527f43616c6c6572206973206e6f742074686520476f7665726e6f72000000000000604482015290519081900360640190fd5b7fa2bd3d3cf188a41358c8b401076eb59066b09dec5775650c0de4c55187d17bd955565b6060611153610f3c565b60405190808252806020026020018201604052801561117c578160200160208202803883390190505b506037549091506001600160a01b031660005b6034548110156113515760606111c5603483815481106111ab57fe5b6000918252602090912001546001600160a01b0316611b70565b905084156112cf576112b2600a846001600160a01b0316637bf0c215846040518263ffffffff1660e01b81526004018080602001828103825283818151815260200191508051906020019080838360005b8381101561122e578181015183820152602001611216565b50505050905090810190601f16801561125b5780820380516001836020036101000a031916815260200191505b5092505050602060405180830381600087803b15801561127a57600080fd5b505af115801561128e573d6000803e3d6000fd5b505050506040513d60208110156112a457600080fd5b50519063ffffffff61141216565b8483815181106112be57fe5b602002602001018181525050611348565b60405163019af6bf60e41b815260206004820181815283516024840152835161132f93600a936001600160a01b038916936319af6bf09388939192839260440191908501908083836000831561122e578181015183820152602001611216565b84838151811061133b57fe5b6020026020010181815250505b5060010161118f565b5050919050565b600080826001600160a01b031663313ce5676040518163ffffffff1660e01b815260040160206040518083038186803b15801561139457600080fd5b505afa1580156113a8573d6000803e3d6000fd5b505050506040513d60208110156113be57600080fd5b505160ff169050600481108015906113d7575060128111155b610ef65760405162461bcd60e51b815260040180806020018281038252602981526020018061323b6029913960400191505060405180910390fd5b6000808260000b131561143d5761143683600084900b600a0a63ffffffff61272b16565b9250611465565b60008260000b121561146557611462836000848103900b600a0a63ffffffff61278b16565b92505b50815b92915050565b600080611481858563ffffffff61272b16565b9050611493818463ffffffff61278b16565b95945050505050565b603754600090600160a01b900460ff16156114f0576040805162461bcd60e51b815260206004820152600f60248201526e149958985cda5b99c81c185d5cd959608a1b604482015290519081900360640190fd5b603c60009054906101000a90046001600160a01b03166001600160a01b03166318160ddd6040518163ffffffff1660e01b815260040160206040518083038186803b15801561153e57600080fd5b505afa158015611552573d6000803e3d6000fd5b505050506040513d602081101561156857600080fd5b505161157657506000610ef9565b603c54604080516318160ddd60e01b815290516000926001600160a01b0316916318160ddd916004808301926020929190829003018186803b1580156115bb57600080fd5b505afa1580156115cf573d6000803e3d6000fd5b505050506040513d60208110156115e557600080fd5b5051905060006115f3612713565b90508181111561135157603c54604080516339a7919f60e01b81526004810184905290516001600160a01b03909216916339a7919f916024808201926020929091908290030181600087803b15801561164b57600080fd5b505af115801561165f573d6000803e3d6000fd5b505050506040513d602081101561167557600080fd5b5050603d546001600160a01b03161561135157603d5460408051631dcf530f60e01b8152861515600482015290516001600160a01b0390921691631dcf530f9160248082019260009290919082900301818387803b1580156116d657600080fd5b505af11580156116ea573d6000803e3d6000fd5b505050505050919050565b604080516001600160a01b0385811660248301528416604482015260648082018490528251808303909101815260849091019091526020810180516001600160e01b03166323b872dd60e01b17905261174f9085906127cd565b50505050565b7f7bea13895fa79d2831e0a9e28edede30099005a50d652d8957cf8a607ee6ca4a5490565b600081116117cf576040805162461bcd60e51b815260206004820152601d60248201527f416d6f756e74206d7573742062652067726561746572207468616e2030000000604482015290519081900360640190fd5b60606117da82611f1e565b905060005b603454811015611a99578181815181106117f557fe5b60200260200101516000141561180a57611a91565b60006034828154811061181957fe5b60009182526020909120015483516001600160a01b03909116915083908390811061184057fe5b6020026020010151816001600160a01b03166370a08231306040518263ffffffff1660e01b815260040180826001600160a01b03166001600160a01b0316815260200191505060206040518083038186803b15801561189e57600080fd5b505afa1580156118b2573d6000803e3d6000fd5b505050506040513d60208110156118c857600080fd5b50511061190557611900338484815181106118df57fe5b6020026020010151836001600160a01b03166129859092919063ffffffff16565b611a8f565b600061194e6034848154811061191757fe5b9060005260206000200160009054906101000a90046001600160a01b031685858151811061194157fe5b60200260200101516129dc565b90506001600160a01b03811615611a4e576000819050806001600160a01b031663d9caed12336034878154811061198157fe5b9060005260206000200160009054906101000a90046001600160a01b03168888815181106119ab57fe5b60200260200101516040518463ffffffff1660e01b815260040180846001600160a01b03166001600160a01b03168152602001836001600160a01b03166001600160a01b031681526020018281526020019350505050602060405180830381600087803b158015611a1b57600080fd5b505af1158015611a2f573d6000803e3d6000fd5b505050506040513d6020811015611a4557600080fd5b50611a8d915050565b6040805162461bcd60e51b815260206004820152600f60248201526e2634b8bab4b234ba3c9032b93937b960891b604482015290519081900360640190fd5b505b505b6001016117df565b50603c5460408051632770a7eb60e21b81523360048201526024810185905290516001600160a01b0390921691639dc29fac9160448082019260009290919082900301818387803b158015611aed57600080fd5b505af1158015611b01573d6000803e3d6000fd5b50505050603b5482118015611b205750603754600160a01b900460ff16155b15611b3157611b2f600161149c565b505b604080513381526020810184905281517f222838db2794d11532d940e8dec38ae307ed0b63cd97c233322e221f998767a6929181900390910190a15050565b606080826001600160a01b03166395d89b416040518163ffffffff1660e01b815260040160006040518083038186803b158015611bac57600080fd5b505afa158015611bc0573d6000803e3d6000fd5b505050506040513d6000823e601f3d908101601f191682016040526020811015611be957600080fd5b8101908080516040519392919084640100000000821115611c0957600080fd5b908301906020820185811115611c1e57600080fd5b8251640100000000811182820188101715611c3857600080fd5b82525081516020918201929091019080838360005b83811015611c65578181015183820152602001611c4d565b50505050905090810190601f168015611c925780820380516001836020036101000a031916815260200191505b50604052509195945050505050565b7f44c4d30b2eaad5130ad70c3ba6972730566f3e6359ab83e800d905c61b1c51db5490565b6001600160a01b038116611d21576040805162461bcd60e51b815260206004820152601a60248201527f4e657720476f7665726e6f722069732061646472657373283029000000000000604482015290519081900360640190fd5b806001600160a01b0316611d33611755565b6001600160a01b03167fc7c0c772add429241571afb3805861fb3cfa2af374534088b76cdb4325a87e9a60405160405180910390a36110c981612b83565b604080516370a0823160e01b8152306004820152905160009183916001600160a01b038316916370a08231916024808301926020929190829003018186803b158015611dbc57600080fd5b505afa158015611dd0573d6000803e3d6000fd5b505050506040513d6020811015611de657600080fd5b5051915060005b60365481101561135157600060368281548110611e0657fe5b600091825260209182902001546040805163551c457b60e11b81526001600160a01b0389811660048301529151919092169350839263aa388af69260248082019391829003018186803b158015611e5c57600080fd5b505afa158015611e70573d6000803e3d6000fd5b505050506040513d6020811015611e8657600080fd5b505115611f1557806001600160a01b0316635f515226866040518263ffffffff1660e01b815260040180826001600160a01b03166001600160a01b0316815260200191505060206040518083038186803b158015611ee357600080fd5b505afa158015611ef7573d6000803e3d6000fd5b505050506040513d6020811015611f0d57600080fd5b505193909301925b50600101611ded565b60606000611f2a610f3c565b90506060611f386001611149565b9050606082604051908082528060200260200182016040528015611f66578160200160208202803883390190505b509050606083604051908082528060200260200182016040528015611f95578160200160208202803883390190505b506040805186815260208088028201019091529091506000908190868015611fc7578160200160208202803883390190505b5060385490975015612012576000611ffc612710611ff06038548c61272b90919063ffffffff16565b9063ffffffff61278b16565b905061200e898263ffffffff612ba716565b9850505b60005b6034548110156120b457600061204b6034838154811061203157fe5b6000918252602090912001546001600160a01b0316611d71565b9050600061205f603484815481106107b457fe5b90508187848151811061206e57fe5b6020026020010181815250508086848151811061208757fe5b60209081029190910101526120a682601283900363ffffffff61141216565b909401935050600101612015565b5060005b6034548110156121565760008682815181106120d057fe5b60200260200101519050670de0b6b3a76400008110156120f55750670de0b6b3a76400005b600061214785611ff08461213b8a888151811061210e57fe5b60200260200101516012038c898151811061212557fe5b602002602001015161141290919063ffffffff16565b9063ffffffff61272b16565b939093019250506001016120b8565b506000612169898363ffffffff612be916565b905060005b6034548110156121c1576121a284611ff08489858151811061218c57fe5b602002602001015161272b90919063ffffffff16565b8982815181106121ae57fe5b602090810291909101015260010161216e565b5050505050505050919050565b60006121d8612c1e565b9050806121e55750610b71565b60006121ef612d09565b905081810160008261221e5760395461221790670de0b6b3a76400009063ffffffff612ba716565b905061226a565b61223784611ff08460395461272b90919063ffffffff16565b905080670de0b6b3a7640000111561226157612217670de0b6b3a76400008263ffffffff612ba716565b50505050610b71565b806122785750505050610b71565b60005b6034548110156124165760006034828154811061229457fe5b6000918252602080832090910154604080516370a0823160e01b815230600482015290516001600160a01b03909216945084926370a0823192602480840193829003018186803b1580156122e757600080fd5b505afa1580156122fb573d6000803e3d6000fd5b505050506040513d602081101561231157600080fd5b505190508061232157505061240e565b6000612333828663ffffffff612d4d16565b905060006123418483612d62565b90506001600160a01b0381161580159061235b5750600082115b15612409578061237b6001600160a01b038616828563ffffffff61298516565b806001600160a01b03166347e7ef2486856040518363ffffffff1660e01b815260040180836001600160a01b03166001600160a01b0316815260200182815260200192505050602060405180830381600087803b1580156123db57600080fd5b505af11580156123ef573d6000803e3d6000fd5b505050506040513d602081101561240557600080fd5b5050505b505050505b60010161227b565b5060005b6036548110156126e85760006036828154811061243357fe5b60009182526020808320909101546040805163125f9e3360e01b815290516001600160a01b039092169450849263125f9e3392600480840193829003018186803b15801561248057600080fd5b505afa158015612494573d6000803e3d6000fd5b505050506040513d60208110156124aa57600080fd5b505190506001600160a01b038116156126de576000826001600160a01b0316635653b4146040518163ffffffff1660e01b815260040160206040518083038186803b1580156124f857600080fd5b505afa15801561250c573d6000803e3d6000fd5b505050506040513d602081101561252257600080fd5b50519050806125b157306001600160a01b0316630e5c011e6036868154811061254757fe5b6000918252602082200154604080516001600160e01b031960e086901b1681526001600160a01b039092166004830152516024808301939282900301818387803b15801561259457600080fd5b505af11580156125a8573d6000803e3d6000fd5b505050506126dc565b60008290506000816001600160a01b03166370a08231603688815481106125d457fe5b60009182526020918290200154604080516001600160e01b031960e086901b1681526001600160a01b0390921660048301525160248083019392829003018186803b15801561262257600080fd5b505afa158015612636573d6000803e3d6000fd5b505050506040513d602081101561264c57600080fd5b505190508281106126d957306001600160a01b0316630e5c011e6036888154811061267357fe5b6000918252602082200154604080516001600160e01b031960e086901b1681526001600160a01b039092166004830152516024808301939282900301818387803b1580156126c057600080fd5b505af11580156126d4573d6000803e3d6000fd5b505050505b50505b505b505060010161241a565b5050505050565b7f44c4d30b2eaad5130ad70c3ba6972730566f3e6359ab83e800d905c61b1c51db55565b600061271d612d09565b612725612c1e565b01905090565b60008261273a57506000611468565b8282028284828161274757fe5b04146127845760405162461bcd60e51b81526004018080602001828103825260218152602001806132646021913960400191505060405180910390fd5b9392505050565b600061278483836040518060400160405280601a81526020017f536166654d6174683a206469766973696f6e206279207a65726f000000000000815250612e73565b6127df826001600160a01b0316612f15565b612830576040805162461bcd60e51b815260206004820152601f60248201527f5361666545524332303a2063616c6c20746f206e6f6e2d636f6e747261637400604482015290519081900360640190fd5b60006060836001600160a01b0316836040518082805190602001908083835b6020831061286e5780518252601f19909201916020918201910161284f565b6001836020036101000a0380198251168184511680821785525050505050509050019150506000604051808303816000865af19150503d80600081146128d0576040519150601f19603f3d011682016040523d82523d6000602084013e6128d5565b606091505b50915091508161292c576040805162461bcd60e51b815260206004820181905260248201527f5361666545524332303a206c6f772d6c6576656c2063616c6c206661696c6564604482015290519081900360640190fd5b80511561174f5780806020019051602081101561294857600080fd5b505161174f5760405162461bcd60e51b815260040180806020018281038252602a815260200180613285602a913960400191505060405180910390fd5b604080516001600160a01b038416602482015260448082018490528251808303909101815260649091019091526020810180516001600160e01b031663a9059cbb60e01b1790526129d79084906127cd565b505050565b6000600019815b603654811015612b7b576000603682815481106129fc57fe5b600091825260209182902001546040805163551c457b60e11b81526001600160a01b038a811660048301529151919092169350839263aa388af69260248082019391829003018186803b158015612a5257600080fd5b505afa158015612a66573d6000803e3d6000fd5b505050506040513d6020811015612a7c57600080fd5b50518015612b0a575084816001600160a01b0316635f515226886040518263ffffffff1660e01b815260040180826001600160a01b03166001600160a01b0316815260200191505060206040518083038186803b158015612adc57600080fd5b505afa158015612af0573d6000803e3d6000fd5b505050506040513d6020811015612b0657600080fd5b5051115b15612b72576000612b3f60368481548110612b2157fe5b60009182526020822001546001600160a01b03169089908990612f4e565b9050838111612b705780935060368381548110612b5857fe5b6000918252602090912001546001600160a01b031694505b505b506001016129e3565b505092915050565b7f7bea13895fa79d2831e0a9e28edede30099005a50d652d8957cf8a607ee6ca4a55565b600061278483836040518060400160405280601e81526020017f536166654d6174683a207375627472616374696f6e206f766572666c6f770000815250613004565b600080612c0484670de0b6b3a764000063ffffffff61272b16565b9050612c16818463ffffffff61278b16565b949350505050565b6000805b603454811015610fa857600060348281548110612c3b57fe5b6000918252602082200154603480546001600160a01b039092169350612c6591859081106107b457fe5b604080516370a0823160e01b815230600482015290519192506000916001600160a01b038516916370a08231916024808301926020929190829003018186803b158015612cb157600080fd5b505afa158015612cc5573d6000803e3d6000fd5b505050506040513d6020811015612cdb57600080fd5b505190508015612cfe57612cf981601284900363ffffffff61141216565b850194505b505050600101612c22565b6000805b603654811015610fa857612d4160368281548110612d2757fe5b6000918252602090912001546001600160a01b031661305e565b90910190600101612d0d565b60006127848383670de0b6b3a764000061146e565b600080805b603654811015612b7b57600060368281548110612d8057fe5b600091825260209182902001546040805163551c457b60e11b81526001600160a01b038a811660048301529151919092169350839263aa388af69260248082019391829003018186803b158015612dd657600080fd5b505afa158015612dea573d6000803e3d6000fd5b505050506040513d6020811015612e0057600080fd5b505115612e6a576000612e3760368481548110612e1957fe5b6000918252602090912001546001600160a01b031688886001612f4e565b9050838110612e685780935060368381548110612e5057fe5b6000918252602090912001546001600160a01b031694505b505b50600101612d67565b60008183612eff5760405162461bcd60e51b81526004018080602001828103825283818151815260200191508051906020019080838360005b83811015612ec4578181015183820152602001612eac565b50505050905090810190601f168015612ef15780820380516001836020036101000a031916815260200191505b509250505060405180910390fd5b506000838581612f0b57fe5b0495945050505050565b6000813f7fc5d2460186f7233c927e7db2dcc703c0e500b653ca82273b7bfad8045d85a470818114801590612c16575050151592915050565b6001600160a01b03841660009081526035602052604081206001015480612f79576000915050612c16565b6000612f8486611358565b9050612ff88285612fc057612fbb612fa688601286900363ffffffff61141216565b612faf8b61305e565b9063ffffffff612ba716565b612fec565b612fec612fd788601286900363ffffffff61141216565b612fe08b61305e565b9063ffffffff6131e016565b9063ffffffff612be916565b19979650505050505050565b600081848411156130565760405162461bcd60e51b8152602060048201818152835160248401528351909283926044909101919085019080838360008315612ec4578181015183820152602001612eac565b505050900390565b600081815b60345481101561135157600061307f603483815481106107b457fe5b9050826001600160a01b031663aa388af66034848154811061309d57fe5b60009182526020918290200154604080516001600160e01b031960e086901b1681526001600160a01b0390921660048301525160248083019392829003018186803b1580156130eb57600080fd5b505afa1580156130ff573d6000803e3d6000fd5b505050506040513d602081101561311557600080fd5b5051156131d7576000836001600160a01b0316635f5152266034858154811061313a57fe5b60009182526020918290200154604080516001600160e01b031960e086901b1681526001600160a01b0390921660048301525160248083019392829003018186803b15801561318857600080fd5b505afa15801561319c573d6000803e3d6000fd5b505050506040513d60208110156131b257600080fd5b5051905080156131d5576131d081601284900363ffffffff61141216565b850194505b505b50600101613063565b600082820183811015612784576040805162461bcd60e51b815260206004820152601b60248201527f536166654d6174683a206164646974696f6e206f766572666c6f770000000000604482015290519081900360640190fdfe546f6b656e206d75737420686176652073756666696369656e7420646563696d616c20706c61636573536166654d6174683a206d756c7469706c69636174696f6e206f766572666c6f775361666545524332303a204552433230206f7065726174696f6e20646964206e6f7420737563636565644f6e6c79207468652070656e64696e6720476f7665726e6f722063616e20636f6d706c6574652074686520636c61696da265627a7a723158202c71f94d834ebba418b1ce11b67ec5816b522e3e59aa0527923f5caef3f14cd964736f6c634300050b00327bea13895fa79d2831e0a9e28edede30099005a50d652d8957cf8a607ee6ca4a",
  "devdoc": {
    "methods": {
      "allocate()": {
        "details": "Allocate unallocated funds on Vault to strategies.*"
      },
      "checkBalance(address)": {
        "params": {
          "_asset": "Address of asset"
        },
        "return": "uint256 Balance of asset in decimals of asset"
      },
      "claimGovernance()": {
        "details": "Claim Governance of the contract to a new account (`newGovernor`). Can only be called by the new Governor."
      },
      "getAllAssets()": {
        "details": "Return all asset addresses in order"
      },
      "getAssetCount()": {
        "details": "Return the number of assets suppported by the Vault."
      },
      "getStrategyCount()": {
        "details": "Return the number of strategies active on the Vault."
      },
      "governor()": {
        "details": "Returns the address of the current Governor."
      },
      "isGovernor()": {
        "details": "Returns true if the caller is the current Governor."
      },
      "mint(address,uint256)": {
        "details": "Deposit a supported asset and mint OUSD.",
        "params": {
          "_amount": "Amount of the asset being deposited",
          "_asset": "Address of the asset being deposited"
        }
      },
      "mintMultiple(address[],uint256[])": {
        "details": "Mint for multiple assets in the same call.",
        "params": {
          "_amounts": "Amount of each asset at the same index in the _assets                to deposit.",
          "_assets": "Addresses of assets being deposited"
        }
      },
      "rebase()": {
        "details": "Calculate the total value of assets held by the Vault and all        strategies and update the supply of oUSD"
      },
      "redeem(uint256)": {
        "details": "Withdraw a supported asset and burn OUSD.",
        "params": {
          "_amount": "Amount of OUSD to burn"
        }
      },
      "setAdminImpl(address)": {
        "details": "set the implementation for the admin, this needs to be in a base class else we cannot set it",
        "params": {
          "newImpl": "address pf the implementation"
        }
      },
      "totalValue()": {
        "details": "Determine the total value of assets held by the vault and its        strategies.",
        "return": "uint256 value Total value in USD (1e18)"
      },
      "transferGovernance(address)": {
        "details": "Transfers Governance of the contract to a new account (`newGovernor`). Can only be called by the current Governor. Must be claimed for this to complete",
        "params": {
          "_newGovernor": "Address of the new Governor"
        }
      }
    }
  },
  "userdoc": {
    "methods": {
      "allocate()": {
        "notice": "Allocate unallocated funds on Vault to strategies."
      },
      "calculateRedeemOutputs(uint256)": {
        "notice": "Calculate the outputs for a redeem function, i.e. the mix of coins that will be returned"
      },
      "checkBalance(address)": {
        "notice": "Get the balance of an asset held in Vault and all strategies."
      },
      "redeemAll()": {
        "notice": "Withdraw a supported asset and burn all OUSD."
      }
    }
  }
}