{
  "address": "0x6b89f2410c45701E1456f9e2c5C3f8fAB5137B7A",
  "abi": [
    {
      "anonymous": false,
      "inputs": [
        {
          "indexed": false,
          "internalType": "uint256",
          "name": "_threshold",
          "type": "uint256"
        }
      ],
      "name": "AllocateThresholdUpdated",
      "type": "event"
    },
    {
      "anonymous": false,
      "inputs": [
        {
          "indexed": false,
          "internalType": "address",
          "name": "_asset",
          "type": "address"
        },
        {
          "indexed": false,
          "internalType": "address",
          "name": "_strategy",
          "type": "address"
        },
        {
          "indexed": false,
          "internalType": "uint256",
          "name": "_amount",
          "type": "uint256"
        }
      ],
      "name": "AssetAllocated",
      "type": "event"
    },
    {
      "anonymous": false,
      "inputs": [
        {
          "indexed": false,
          "internalType": "address",
          "name": "_asset",
          "type": "address"
        },
        {
          "indexed": false,
          "internalType": "address",
          "name": "_strategy",
          "type": "address"
        }
      ],
      "name": "AssetDefaultStrategyUpdated",
      "type": "event"
    },
    {
      "anonymous": false,
      "inputs": [
        {
          "indexed": false,
          "internalType": "address",
          "name": "_asset",
          "type": "address"
        }
      ],
      "name": "AssetRemoved",
      "type": "event"
    },
    {
      "anonymous": false,
      "inputs": [
        {
          "indexed": false,
          "internalType": "address",
          "name": "_asset",
          "type": "address"
        }
      ],
      "name": "AssetSupported",
      "type": "event"
    },
    {
      "anonymous": false,
      "inputs": [],
      "name": "CapitalPaused",
      "type": "event"
    },
    {
      "anonymous": false,
      "inputs": [],
      "name": "CapitalUnpaused",
      "type": "event"
    },
    {
      "anonymous": false,
      "inputs": [
        {
          "indexed": false,
          "internalType": "uint256",
          "name": "dripDuration",
          "type": "uint256"
        }
      ],
      "name": "DripDurationChanged",
      "type": "event"
    },
    {
      "anonymous": false,
      "inputs": [
        {
          "indexed": true,
          "internalType": "address",
          "name": "_dripper",
          "type": "address"
        }
      ],
      "name": "DripperChanged",
      "type": "event"
    },
    {
      "anonymous": false,
      "inputs": [
        {
          "indexed": true,
          "internalType": "address",
          "name": "previousGovernor",
          "type": "address"
        },
        {
          "indexed": true,
          "internalType": "address",
          "name": "newGovernor",
          "type": "address"
        }
      ],
      "name": "GovernorshipTransferred",
      "type": "event"
    },
    {
      "anonymous": false,
      "inputs": [
        {
          "indexed": false,
          "internalType": "uint256",
          "name": "maxSupplyDiff",
          "type": "uint256"
        }
      ],
      "name": "MaxSupplyDiffChanged",
      "type": "event"
    },
    {
      "anonymous": false,
      "inputs": [
        {
          "indexed": false,
          "internalType": "address",
          "name": "_addr",
          "type": "address"
        },
        {
          "indexed": false,
          "internalType": "uint256",
          "name": "_value",
          "type": "uint256"
        }
      ],
      "name": "Mint",
      "type": "event"
    },
    {
      "anonymous": false,
      "inputs": [
        {
          "indexed": false,
          "internalType": "uint256",
          "name": "_threshold",
          "type": "uint256"
        }
      ],
      "name": "NetOusdMintForStrategyThresholdChanged",
      "type": "event"
    },
    {
      "anonymous": false,
      "inputs": [
        {
          "indexed": false,
          "internalType": "address",
          "name": "_ousdMetaStrategy",
          "type": "address"
        }
      ],
      "name": "OusdMetaStrategyUpdated",
      "type": "event"
    },
    {
      "anonymous": false,
      "inputs": [
        {
          "indexed": true,
          "internalType": "address",
          "name": "previousGovernor",
          "type": "address"
        },
        {
          "indexed": true,
          "internalType": "address",
          "name": "newGovernor",
          "type": "address"
        }
      ],
      "name": "PendingGovernorshipTransfer",
      "type": "event"
    },
    {
      "anonymous": false,
      "inputs": [
        {
          "indexed": false,
          "internalType": "address",
          "name": "_priceProvider",
          "type": "address"
        }
      ],
      "name": "PriceProviderUpdated",
      "type": "event"
    },
    {
      "anonymous": false,
      "inputs": [],
      "name": "RebasePaused",
      "type": "event"
    },
    {
      "anonymous": false,
      "inputs": [
        {
          "indexed": false,
          "internalType": "uint256",
          "name": "rebaseRatePerSecond",
          "type": "uint256"
        }
      ],
      "name": "RebasePerSecondMaxChanged",
      "type": "event"
    },
    {
      "anonymous": false,
      "inputs": [
        {
          "indexed": false,
          "internalType": "uint256",
          "name": "_threshold",
          "type": "uint256"
        }
      ],
      "name": "RebaseThresholdUpdated",
      "type": "event"
    },
    {
      "anonymous": false,
      "inputs": [],
      "name": "RebaseUnpaused",
      "type": "event"
    },
    {
      "anonymous": false,
      "inputs": [
        {
          "indexed": false,
          "internalType": "address",
          "name": "_addr",
          "type": "address"
        },
        {
          "indexed": false,
          "internalType": "uint256",
          "name": "_value",
          "type": "uint256"
        }
      ],
      "name": "Redeem",
      "type": "event"
    },
    {
      "anonymous": false,
      "inputs": [
        {
          "indexed": false,
          "internalType": "uint256",
          "name": "_redeemFeeBps",
          "type": "uint256"
        }
      ],
      "name": "RedeemFeeUpdated",
      "type": "event"
    },
    {
      "anonymous": false,
      "inputs": [
        {
          "indexed": false,
          "internalType": "address",
          "name": "_address",
          "type": "address"
        }
      ],
      "name": "StrategistUpdated",
      "type": "event"
    },
    {
      "anonymous": false,
      "inputs": [
        {
          "indexed": true,
          "internalType": "address",
          "name": "strategy",
          "type": "address"
        }
      ],
      "name": "StrategyAddedToMintWhitelist",
      "type": "event"
    },
    {
      "anonymous": false,
      "inputs": [
        {
          "indexed": false,
          "internalType": "address",
          "name": "_addr",
          "type": "address"
        }
      ],
      "name": "StrategyApproved",
      "type": "event"
    },
    {
      "anonymous": false,
      "inputs": [
        {
          "indexed": false,
          "internalType": "address",
          "name": "_addr",
          "type": "address"
        }
      ],
      "name": "StrategyRemoved",
      "type": "event"
    },
    {
      "anonymous": false,
      "inputs": [
        {
          "indexed": true,
          "internalType": "address",
          "name": "strategy",
          "type": "address"
        }
      ],
      "name": "StrategyRemovedFromMintWhitelist",
      "type": "event"
    },
    {
      "anonymous": false,
      "inputs": [
        {
          "indexed": false,
          "internalType": "uint256",
          "name": "_basis",
          "type": "uint256"
        }
      ],
      "name": "SwapAllowedUndervalueChanged",
      "type": "event"
    },
    {
      "anonymous": false,
      "inputs": [
        {
          "indexed": false,
          "internalType": "address",
          "name": "_asset",
          "type": "address"
        },
        {
          "indexed": false,
          "internalType": "uint256",
          "name": "_basis",
          "type": "uint256"
        }
      ],
      "name": "SwapSlippageChanged",
      "type": "event"
    },
    {
      "anonymous": false,
      "inputs": [
        {
          "indexed": true,
          "internalType": "address",
          "name": "_fromAsset",
          "type": "address"
        },
        {
          "indexed": true,
          "internalType": "address",
          "name": "_toAsset",
          "type": "address"
        },
        {
          "indexed": false,
          "internalType": "uint256",
          "name": "_fromAssetAmount",
          "type": "uint256"
        },
        {
          "indexed": false,
          "internalType": "uint256",
          "name": "_toAssetAmount",
          "type": "uint256"
        }
      ],
      "name": "Swapped",
      "type": "event"
    },
    {
      "anonymous": false,
      "inputs": [
        {
          "indexed": false,
          "internalType": "address",
          "name": "_address",
          "type": "address"
        }
      ],
      "name": "SwapperChanged",
      "type": "event"
    },
    {
      "anonymous": false,
      "inputs": [
        {
          "indexed": false,
          "internalType": "address",
          "name": "_address",
          "type": "address"
        }
      ],
      "name": "TrusteeAddressChanged",
      "type": "event"
    },
    {
      "anonymous": false,
      "inputs": [
        {
          "indexed": false,
          "internalType": "uint256",
          "name": "_basis",
          "type": "uint256"
        }
      ],
      "name": "TrusteeFeeBpsChanged",
      "type": "event"
    },
    {
      "anonymous": false,
      "inputs": [
        {
          "indexed": false,
          "internalType": "uint256",
          "name": "_vaultBuffer",
          "type": "uint256"
        }
      ],
      "name": "VaultBufferUpdated",
      "type": "event"
    },
    {
      "anonymous": false,
      "inputs": [
        {
          "indexed": false,
          "internalType": "uint256",
          "name": "_newDelay",
          "type": "uint256"
        }
      ],
      "name": "WithdrawalClaimDelayUpdated",
      "type": "event"
    },
    {
      "anonymous": false,
      "inputs": [
        {
          "indexed": false,
          "internalType": "uint256",
          "name": "_claimable",
          "type": "uint256"
        },
        {
          "indexed": false,
          "internalType": "uint256",
          "name": "_newClaimable",
          "type": "uint256"
        }
      ],
      "name": "WithdrawalClaimable",
      "type": "event"
    },
    {
      "anonymous": false,
      "inputs": [
        {
          "indexed": true,
          "internalType": "address",
          "name": "_withdrawer",
          "type": "address"
        },
        {
          "indexed": true,
          "internalType": "uint256",
          "name": "_requestId",
          "type": "uint256"
        },
        {
          "indexed": false,
          "internalType": "uint256",
          "name": "_amount",
          "type": "uint256"
        }
      ],
      "name": "WithdrawalClaimed",
      "type": "event"
    },
    {
      "anonymous": false,
      "inputs": [
        {
          "indexed": true,
          "internalType": "address",
          "name": "_withdrawer",
          "type": "address"
        },
        {
          "indexed": true,
          "internalType": "uint256",
          "name": "_requestId",
          "type": "uint256"
        },
        {
          "indexed": false,
          "internalType": "uint256",
          "name": "_amount",
          "type": "uint256"
        },
        {
          "indexed": false,
          "internalType": "uint256",
          "name": "_queued",
          "type": "uint256"
        }
      ],
      "name": "WithdrawalRequested",
      "type": "event"
    },
    {
      "anonymous": false,
      "inputs": [
        {
          "indexed": false,
          "internalType": "address",
          "name": "_to",
          "type": "address"
        },
        {
          "indexed": false,
          "internalType": "uint256",
          "name": "_yield",
          "type": "uint256"
        },
        {
          "indexed": false,
          "internalType": "uint256",
          "name": "_fee",
          "type": "uint256"
        }
      ],
      "name": "YieldDistribution",
      "type": "event"
    },
    {
      "stateMutability": "nonpayable",
      "type": "fallback"
    },
    {
      "inputs": [],
      "name": "ADMIN_IMPLEMENTATION",
      "outputs": [
        {
          "internalType": "address",
          "name": "adminImpl",
          "type": "address"
        }
      ],
      "stateMutability": "view",
      "type": "function"
    },
    {
      "inputs": [],
      "name": "adminImplPosition",
      "outputs": [
        {
          "internalType": "bytes32",
          "name": "",
          "type": "bytes32"
        }
      ],
      "stateMutability": "view",
      "type": "function"
    },
    {
      "inputs": [],
      "name": "allocate",
      "outputs": [],
      "stateMutability": "nonpayable",
      "type": "function"
    },
    {
      "inputs": [
        {
          "internalType": "address",
          "name": "",
          "type": "address"
        }
      ],
      "name": "assetDefaultStrategies",
      "outputs": [
        {
          "internalType": "address",
          "name": "",
          "type": "address"
        }
      ],
      "stateMutability": "view",
      "type": "function"
    },
    {
      "inputs": [],
      "name": "autoAllocateThreshold",
      "outputs": [
        {
          "internalType": "uint256",
          "name": "",
          "type": "uint256"
        }
      ],
      "stateMutability": "view",
      "type": "function"
    },
    {
      "inputs": [
        {
          "internalType": "uint256",
          "name": "_amount",
          "type": "uint256"
        }
      ],
      "name": "burnForStrategy",
      "outputs": [],
      "stateMutability": "nonpayable",
      "type": "function"
    },
    {
      "inputs": [
        {
          "internalType": "uint256",
          "name": "_amount",
          "type": "uint256"
        }
      ],
      "name": "calculateRedeemOutputs",
      "outputs": [
        {
          "internalType": "uint256[]",
          "name": "",
          "type": "uint256[]"
        }
      ],
      "stateMutability": "view",
      "type": "function"
    },
    {
      "inputs": [],
      "name": "capitalPaused",
      "outputs": [
        {
          "internalType": "bool",
          "name": "",
          "type": "bool"
        }
      ],
      "stateMutability": "view",
      "type": "function"
    },
    {
      "inputs": [
        {
          "internalType": "address",
          "name": "_asset",
          "type": "address"
        }
      ],
      "name": "checkBalance",
      "outputs": [
        {
          "internalType": "uint256",
          "name": "",
          "type": "uint256"
        }
      ],
      "stateMutability": "view",
      "type": "function"
    },
    {
      "inputs": [],
      "name": "claimGovernance",
      "outputs": [],
      "stateMutability": "nonpayable",
      "type": "function"
    },
    {
      "inputs": [],
      "name": "dripDuration",
      "outputs": [
        {
          "internalType": "uint64",
          "name": "",
          "type": "uint64"
        }
      ],
      "stateMutability": "view",
      "type": "function"
    },
    {
      "inputs": [],
      "name": "dripper",
      "outputs": [
        {
          "internalType": "address",
          "name": "",
          "type": "address"
        }
      ],
      "stateMutability": "view",
      "type": "function"
    },
    {
      "inputs": [],
      "name": "getAllAssets",
      "outputs": [
        {
          "internalType": "address[]",
          "name": "",
          "type": "address[]"
        }
      ],
      "stateMutability": "view",
      "type": "function"
    },
    {
      "inputs": [],
      "name": "getAllStrategies",
      "outputs": [
        {
          "internalType": "address[]",
          "name": "",
          "type": "address[]"
        }
      ],
      "stateMutability": "view",
      "type": "function"
    },
    {
      "inputs": [
        {
          "internalType": "address",
          "name": "_asset",
          "type": "address"
        }
      ],
      "name": "getAssetConfig",
      "outputs": [
        {
          "components": [
            {
              "internalType": "bool",
              "name": "isSupported",
              "type": "bool"
            },
            {
              "internalType": "enum VaultStorage.UnitConversion",
              "name": "unitConversion",
              "type": "uint8"
            },
            {
              "internalType": "uint8",
              "name": "decimals",
              "type": "uint8"
            },
            {
              "internalType": "uint16",
              "name": "allowedOracleSlippageBps",
              "type": "uint16"
            }
          ],
          "internalType": "struct VaultStorage.Asset",
          "name": "config",
          "type": "tuple"
        }
      ],
      "stateMutability": "view",
      "type": "function"
    },
    {
      "inputs": [],
      "name": "getAssetCount",
      "outputs": [
        {
          "internalType": "uint256",
          "name": "",
          "type": "uint256"
        }
      ],
      "stateMutability": "view",
      "type": "function"
    },
    {
      "inputs": [],
      "name": "getStrategyCount",
      "outputs": [
        {
          "internalType": "uint256",
          "name": "",
          "type": "uint256"
        }
      ],
      "stateMutability": "view",
      "type": "function"
    },
    {
      "inputs": [],
      "name": "governor",
      "outputs": [
        {
          "internalType": "address",
          "name": "",
          "type": "address"
        }
      ],
      "stateMutability": "view",
      "type": "function"
    },
    {
      "inputs": [
        {
          "internalType": "address",
          "name": "_priceProvider",
          "type": "address"
        },
        {
          "internalType": "address",
          "name": "_oToken",
          "type": "address"
        }
      ],
      "name": "initialize",
      "outputs": [],
      "stateMutability": "nonpayable",
      "type": "function"
    },
    {
      "inputs": [],
      "name": "isGovernor",
      "outputs": [
        {
          "internalType": "bool",
          "name": "",
          "type": "bool"
        }
      ],
      "stateMutability": "view",
      "type": "function"
    },
    {
      "inputs": [
        {
          "internalType": "address",
          "name": "",
          "type": "address"
        }
      ],
      "name": "isMintWhitelistedStrategy",
      "outputs": [
        {
          "internalType": "bool",
          "name": "",
          "type": "bool"
        }
      ],
      "stateMutability": "view",
      "type": "function"
    },
    {
      "inputs": [
        {
          "internalType": "address",
          "name": "_asset",
          "type": "address"
        }
      ],
      "name": "isSupportedAsset",
      "outputs": [
        {
          "internalType": "bool",
          "name": "",
          "type": "bool"
        }
      ],
      "stateMutability": "view",
      "type": "function"
    },
    {
      "inputs": [],
      "name": "lastRebase",
      "outputs": [
        {
          "internalType": "uint64",
          "name": "",
          "type": "uint64"
        }
      ],
      "stateMutability": "view",
      "type": "function"
    },
    {
      "inputs": [],
      "name": "maxSupplyDiff",
      "outputs": [
        {
          "internalType": "uint256",
          "name": "",
          "type": "uint256"
        }
      ],
      "stateMutability": "view",
      "type": "function"
    },
    {
      "inputs": [
        {
          "internalType": "address",
          "name": "_asset",
          "type": "address"
        },
        {
          "internalType": "uint256",
          "name": "_amount",
          "type": "uint256"
        },
        {
          "internalType": "uint256",
          "name": "_minimumOusdAmount",
          "type": "uint256"
        }
      ],
      "name": "mint",
      "outputs": [],
      "stateMutability": "nonpayable",
      "type": "function"
    },
    {
      "inputs": [
        {
          "internalType": "uint256",
          "name": "_amount",
          "type": "uint256"
        }
      ],
      "name": "mintForStrategy",
      "outputs": [],
      "stateMutability": "nonpayable",
      "type": "function"
    },
    {
      "inputs": [],
      "name": "netOusdMintForStrategyThreshold",
      "outputs": [
        {
          "internalType": "uint256",
          "name": "",
          "type": "uint256"
        }
      ],
      "stateMutability": "view",
      "type": "function"
    },
    {
      "inputs": [],
      "name": "netOusdMintedForStrategy",
      "outputs": [
        {
          "internalType": "int256",
          "name": "",
          "type": "int256"
        }
      ],
      "stateMutability": "view",
      "type": "function"
    },
    {
      "inputs": [],
      "name": "oUSD",
      "outputs": [
        {
          "internalType": "contract OUSD",
          "name": "",
          "type": "address"
        }
      ],
      "stateMutability": "view",
      "type": "function"
    },
    {
      "inputs": [],
      "name": "ousdMetaStrategy",
      "outputs": [
        {
          "internalType": "address",
          "name": "",
          "type": "address"
        }
      ],
      "stateMutability": "view",
      "type": "function"
    },
    {
      "inputs": [],
      "name": "previewYield",
      "outputs": [
        {
          "internalType": "uint256",
          "name": "yield",
          "type": "uint256"
        }
      ],
      "stateMutability": "view",
      "type": "function"
    },
    {
      "inputs": [],
      "name": "priceProvider",
      "outputs": [
        {
          "internalType": "address",
          "name": "",
          "type": "address"
        }
      ],
      "stateMutability": "view",
      "type": "function"
    },
    {
      "inputs": [
        {
          "internalType": "address",
          "name": "asset",
          "type": "address"
        }
      ],
      "name": "priceUnitMint",
      "outputs": [
        {
          "internalType": "uint256",
          "name": "price",
          "type": "uint256"
        }
      ],
      "stateMutability": "view",
      "type": "function"
    },
    {
      "inputs": [
        {
          "internalType": "address",
          "name": "asset",
          "type": "address"
        }
      ],
      "name": "priceUnitRedeem",
      "outputs": [
        {
          "internalType": "uint256",
          "name": "price",
          "type": "uint256"
        }
      ],
      "stateMutability": "view",
      "type": "function"
    },
    {
      "inputs": [],
      "name": "rebase",
      "outputs": [],
      "stateMutability": "nonpayable",
      "type": "function"
    },
    {
      "inputs": [],
      "name": "rebasePaused",
      "outputs": [
        {
          "internalType": "bool",
          "name": "",
          "type": "bool"
        }
      ],
      "stateMutability": "view",
      "type": "function"
    },
    {
      "inputs": [],
      "name": "rebasePerSecondMax",
      "outputs": [
        {
          "internalType": "uint64",
          "name": "",
          "type": "uint64"
        }
      ],
      "stateMutability": "view",
      "type": "function"
    },
    {
      "inputs": [],
      "name": "rebasePerSecondTarget",
      "outputs": [
        {
          "internalType": "uint64",
          "name": "",
          "type": "uint64"
        }
      ],
      "stateMutability": "view",
      "type": "function"
    },
    {
      "inputs": [],
      "name": "rebaseThreshold",
      "outputs": [
        {
          "internalType": "uint256",
          "name": "",
          "type": "uint256"
        }
      ],
      "stateMutability": "view",
      "type": "function"
    },
    {
      "inputs": [
        {
          "internalType": "uint256",
          "name": "_amount",
          "type": "uint256"
        },
        {
          "internalType": "uint256",
          "name": "_minimumUnitAmount",
          "type": "uint256"
        }
      ],
      "name": "redeem",
      "outputs": [],
      "stateMutability": "nonpayable",
      "type": "function"
    },
    {
      "inputs": [],
      "name": "redeemFeeBps",
      "outputs": [
        {
          "internalType": "uint256",
          "name": "",
          "type": "uint256"
        }
      ],
      "stateMutability": "view",
      "type": "function"
    },
    {
      "inputs": [
        {
          "internalType": "address",
          "name": "newImpl",
          "type": "address"
        }
      ],
      "name": "setAdminImpl",
      "outputs": [],
      "stateMutability": "nonpayable",
      "type": "function"
    },
    {
      "inputs": [
        {
          "internalType": "address",
          "name": "",
          "type": "address"
        }
      ],
      "name": "strategies",
      "outputs": [
        {
          "internalType": "bool",
          "name": "isSupported",
          "type": "bool"
        },
        {
          "internalType": "uint256",
          "name": "_deprecated",
          "type": "uint256"
        }
      ],
      "stateMutability": "view",
      "type": "function"
    },
    {
      "inputs": [],
      "name": "strategistAddr",
      "outputs": [
        {
          "internalType": "address",
          "name": "",
          "type": "address"
        }
      ],
      "stateMutability": "view",
      "type": "function"
    },
    {
      "inputs": [],
      "name": "totalValue",
      "outputs": [
        {
          "internalType": "uint256",
          "name": "value",
          "type": "uint256"
        }
      ],
      "stateMutability": "view",
      "type": "function"
    },
    {
      "inputs": [
        {
          "internalType": "address",
          "name": "_newGovernor",
          "type": "address"
        }
      ],
      "name": "transferGovernance",
      "outputs": [],
      "stateMutability": "nonpayable",
      "type": "function"
    },
    {
      "inputs": [],
      "name": "trusteeAddress",
      "outputs": [
        {
          "internalType": "address",
          "name": "",
          "type": "address"
        }
      ],
      "stateMutability": "view",
      "type": "function"
    },
    {
      "inputs": [],
      "name": "trusteeFeeBps",
      "outputs": [
        {
          "internalType": "uint256",
          "name": "",
          "type": "uint256"
        }
      ],
      "stateMutability": "view",
      "type": "function"
    },
    {
      "inputs": [],
      "name": "vaultBuffer",
      "outputs": [
        {
          "internalType": "uint256",
          "name": "",
          "type": "uint256"
        }
      ],
      "stateMutability": "view",
      "type": "function"
    },
    {
      "inputs": [],
      "name": "withdrawalClaimDelay",
      "outputs": [
        {
          "internalType": "uint256",
          "name": "",
          "type": "uint256"
        }
      ],
      "stateMutability": "view",
      "type": "function"
    },
    {
      "inputs": [],
      "name": "withdrawalQueueMetadata",
      "outputs": [
        {
          "internalType": "uint128",
          "name": "queued",
          "type": "uint128"
        },
        {
          "internalType": "uint128",
          "name": "claimable",
          "type": "uint128"
        },
        {
          "internalType": "uint128",
          "name": "claimed",
          "type": "uint128"
        },
        {
          "internalType": "uint128",
          "name": "nextWithdrawalIndex",
          "type": "uint128"
        }
      ],
      "stateMutability": "view",
      "type": "function"
    },
    {
      "inputs": [
        {
          "internalType": "uint256",
          "name": "",
          "type": "uint256"
        }
      ],
      "name": "withdrawalRequests",
      "outputs": [
        {
          "internalType": "address",
          "name": "withdrawer",
          "type": "address"
        },
        {
          "internalType": "bool",
          "name": "claimed",
          "type": "bool"
        },
        {
          "internalType": "uint40",
          "name": "timestamp",
          "type": "uint40"
        },
        {
          "internalType": "uint128",
          "name": "amount",
          "type": "uint128"
        },
        {
          "internalType": "uint128",
          "name": "queued",
          "type": "uint128"
        }
      ],
      "stateMutability": "view",
      "type": "function"
    }
  ],
  "transactionHash": "0x1875a43961a15762deb18aace2be9f80783716fc7b0ec6145ac9a9a4347742aa",
  "args": [],
  "numDeployments": 3,
  "solcInputHash": "3d93c313784f00c00800e6c458e27c1d",
  "bytecode": "0x603d80546001600160a01b0319908116909155603e805482169055603f8054909116905560c06040526000608081905260a052604880546001600160b01b0319169055348015604d57600080fd5b506139fd8061005d6000396000f3fe608060405234801561001057600080fd5b506004361061030c5760003560e01c806367bd7ba31161019d578063af14052c116100e9578063d38bfff4116100a2578063e6cc54321161007c578063e6cc5432146107ed578063ea33b8e414610801578063ef08edc214610809578063fc0cfeee1461081e5761030c565b8063d38bfff4146107c9578063d4c3eea0146107dc578063e45cc9f0146107e45761030c565b8063af14052c1461076f578063b888879e14610777578063bb7a632e1461078a578063c3b28864146107a4578063c7af3352146107ac578063cc2fe94b146107b45761030c565b8063937b258111610156578063a0aead4d11610130578063a0aead4d14610723578063a403e4d51461072b578063ab80dafb14610754578063abaa9916146107675761030c565b8063937b2581146106465780639be918e6146106ee5780639fa1826e1461071a5761030c565b806367bd7ba3146105ce5780636ec3ab67146105ee57806378f353a11461060e5780637a2202f3146106215780637cbc23731461062a5780638e510b521461063d5761030c565b8063485cc9551161025c578063570d8e1d116102155780635d36b190116101ef5780635d36b1901461058d5780635f51522614610595578063603ea03b146105a85780636217f3ea146105bb5761030c565b8063570d8e1d146105545780635802a172146105675780635b60f9fc1461057a5761030c565b8063485cc955146104c557806349c1d54d146104d85780634d5f4629146104eb578063527e83a81461051d57806352d38e5d1461053757806353ca9f24146105405761030c565b80632acada4d116102c957806339ebf823116102a357806339ebf823146104325780633b8fe28d146104765780634530820a1461048957806345e4213b146104bc5761030c565b80632acada4d146103b657806331e19cfa146103cb578063362bd1a3146103d35761030c565b806309f6442c146103425780630c340a241461035e578063156e29f61461037e57806318ce56bd146103915780631edfe3da146103a4578063207134b0146103ad575b600080516020613988833981519152366000803760008036600084545af43d6000803e80801561033b573d6000f35b3d6000fd5b005b61034b60385481565b6040519081526020015b60405180910390f35b610366610831565b6040516001600160a01b039091168152602001610355565b61034061038c366004613408565b61084e565b604554610366906001600160a01b031681565b61034b60395481565b61034b60435481565b6103be6108cc565b604051610355919061343b565b60365461034b565b604b54604c546103ff916001600160801b0380821692600160801b928390048216928183169291041684565b604080516001600160801b0395861681529385166020850152918416918301919091529091166060820152608001610355565b61045f610440366004613487565b6035602052600090815260409020805460019091015460ff9091169082565b604080519215158352602083019190915201610355565b61034b610484366004613487565b61092e565b6104ac610497366004613487565b60496020526000908152604090205460ff1681565b6040519015158152602001610355565b61034b604e5481565b6103406104d33660046134a2565b610989565b604254610366906001600160a01b031681565b604f5461050590600160c01b90046001600160401b031681565b6040516001600160401b039091168152602001610355565b604f5461050590600160801b90046001600160401b031681565b61034b603b5481565b6037546104ac90600160a01b900460ff1681565b603f54610366906001600160a01b031681565b603c54610366906001600160a01b031681565b61034b610588366004613487565b610baa565b610340610bd3565b61034b6105a3366004613487565b610c79565b604a54610366906001600160a01b031681565b6103406105c93660046134d5565b610c8a565b6105e16105dc3660046134d5565b610e21565b60405161035591906134ee565b6106016105fc366004613487565b610e2c565b604051610355919061353c565b604f54610505906001600160401b031681565b61034b60475481565b610340610638366004613592565b610ed2565b61034b60415481565b6106a76106543660046134d5565b604d60205260009081526040902080546001909101546001600160a01b03821691600160a01b810460ff1691600160a81b90910464ffffffffff16906001600160801b0380821691600160801b90041685565b604080516001600160a01b039096168652931515602086015264ffffffffff909216928401929092526001600160801b03918216606084015216608082015260a001610355565b6104ac6106fc366004613487565b6001600160a01b031660009081526033602052604090205460ff1690565b61034b603a5481565b60345461034b565b610366610739366004613487565b6040602081905260009182529020546001600160a01b031681565b6103406107623660046134d5565b610f45565b6103406110bc565b61034061112b565b603754610366906001600160a01b031681565b604f5461050590600160401b90046001600160401b031681565b6103be611171565b6104ac6111d1565b60008051602061398883398151915254610366565b6103406107d7366004613487565b611202565b61034b6112a6565b61034b60465481565b6037546104ac90600160a81b900460ff1681565b61034b6112b0565b61034b60008051602061398883398151915281565b61034061082c366004613487565b61133f565b60006108496000805160206139a88339815191525490565b905090565b603754600160a81b900460ff16156108815760405162461bcd60e51b8152600401610878906135b4565b60405180910390fd5b600080516020613968833981519152805460011981016108b35760405162461bcd60e51b8152600401610878906135dc565b600282556108c28585856113cf565b5060019055505050565b6060603480548060200260200160405190810160405280929190818152602001828054801561092457602002820191906000526020600020905b81546001600160a01b03168152600190910190602001808311610906575b5050505050905090565b60008061095761095161094085611688565b670de0b6b3a76400009060126116f2565b84611754565b9050670de0b6b3a76400008161096e85600161189f565b610978919061361a565b6109829190613631565b9392505050565b6109916111d1565b6109ad5760405162461bcd60e51b815260040161087890613653565b600054610100900460ff16806109c6575060005460ff16155b610a295760405162461bcd60e51b815260206004820152602e60248201527f496e697469616c697a61626c653a20636f6e747261637420697320616c72656160448201526d191e481a5b9a5d1a585b1a5e995960921b6064820152608401610878565b600054610100900460ff16158015610a4b576000805461ffff19166101011790555b6001600160a01b038316610aa15760405162461bcd60e51b815260206004820152601d60248201527f507269636550726f76696465722061646472657373206973207a65726f0000006044820152606401610878565b6001600160a01b038216610af05760405162461bcd60e51b81526020600482015260166024820152756f546f6b656e2061646472657373206973207a65726f60501b6044820152606401610878565b603c80546001600160a01b038481166001600160a01b031990921691909117909155603780546001600160b01b03191691851691909117600160a81b17905560006038819055603981905569054b40b1f852bda00000603a55683635c9adc5dea00000603b556040805191825260208201908190529051610b7391603691613380565b50604f80546fffffffffffffffff00000000000000001916600160401b1790558015610ba5576000805461ff00191690555b505050565b600080610bbc61095161094085611688565b9050670de0b6b3a76400008161096e85600061189f565b7f44c4d30b2eaad5130ad70c3ba6972730566f3e6359ab83e800d905c61b1c51db546001600160a01b0316336001600160a01b031614610c6e5760405162461bcd60e51b815260206004820152603060248201527f4f6e6c79207468652070656e64696e6720476f7665726e6f722063616e20636f60448201526f6d706c6574652074686520636c61696d60801b6064820152608401610878565b610c7733611b72565b565b6000610c8482611bd4565b92915050565b603754600160a81b900460ff1615610cb45760405162461bcd60e51b8152600401610878906135b4565b6045546001600160a01b03163314610cde5760405162461bcd60e51b8152600401610878906136a0565b6001600160ff1b038110610d045760405162461bcd60e51b8152600401610878906136e4565b7f222838db2794d11532d940e8dec38ae307ed0b63cd97c233322e221f998767a63382604051610d3592919061370d565b60405180910390a18060466000828254610d4f9190613726565b9091555050604754604654610d6390611d6e565b10610dba5760405162461bcd60e51b815260206004820152602160248201527f417474656d7074696e6720746f206275726e20746f6f206d756368204f5553446044820152601760f91b6064820152608401610878565b603c54604051632770a7eb60e21b81526001600160a01b0390911690639dc29fac90610dec903390859060040161370d565b600060405180830381600087803b158015610e0657600080fd5b505af1158015610e1a573d6000803e3d6000fd5b5050505050565b6060610c8482611db1565b604080516080808201835260008083526020808401829052838501829052606084018290526001600160a01b038616825260338152908490208451928301909452835460ff808216151584529394929391840191610100909104166001811115610e9857610e98613526565b6001811115610ea957610ea9613526565b8152905462010000810460ff1660208301526301000000900461ffff1660409091015292915050565b603754600160a81b900460ff1615610efc5760405162461bcd60e51b8152600401610878906135b4565b60008051602061396883398151915280546001198101610f2e5760405162461bcd60e51b8152600401610878906135dc565b60028255610f3c848461207a565b50600190555050565b603754600160a81b900460ff1615610f6f5760405162461bcd60e51b8152600401610878906135b4565b6045546001600160a01b03163314610f995760405162461bcd60e51b8152600401610878906136a0565b6001600160ff1b038110610fbf5760405162461bcd60e51b8152600401610878906136e4565b7f0f6798a560793a54c3bcfe86a93cde1e73087d944c0ea20544137d41213968853382604051610ff092919061370d565b60405180910390a1806046600082825461100a9190613746565b909155505060475460465461101e90611d6e565b1061108a5760405162461bcd60e51b815260206004820152603660248201527f4d696e746564206f75736420737572706173736564206e65744f7573644d696e6044820152753a2337b929ba3930ba32b3bcaa343932b9b437b6321760511b6064820152608401610878565b603c546040516340c10f1960e01b81526001600160a01b03909116906340c10f1990610dec903390859060040161370d565b603754600160a81b900460ff16156110e65760405162461bcd60e51b8152600401610878906135b4565b600080516020613968833981519152805460011981016111185760405162461bcd60e51b8152600401610878906135dc565b60028255611124612425565b5060019055565b6000805160206139688339815191528054600119810161115d5760405162461bcd60e51b8152600401610878906135dc565b60028255611169612688565b505060019055565b60606036805480602002602001604051908101604052809291908181526020018280548015610924576020028201919060005260206000209081546001600160a01b03168152600190910190602001808311610906575050505050905090565b60006111e96000805160206139a88339815191525490565b6001600160a01b0316336001600160a01b031614905090565b61120a6111d1565b6112265760405162461bcd60e51b815260040161087890613653565b61124e817f44c4d30b2eaad5130ad70c3ba6972730566f3e6359ab83e800d905c61b1c51db55565b806001600160a01b031661126e6000805160206139a88339815191525490565b6001600160a01b03167fa39cc5eb22d0f34d8beaefee8a3f17cc229c1a1d1ef87a5ad47313487b1c4f0d60405160405180910390a350565b6000610849612a22565b6000611339603c60009054906101000a90046001600160a01b03166001600160a01b03166318160ddd6040518163ffffffff1660e01b8152600401602060405180830381865afa158015611308573d6000803e3d6000fd5b505050506040513d601f19601f8201168201806040525081019061132c919061376e565b611334612a22565b612a3e565b50919050565b6113476111d1565b6113635760405162461bcd60e51b815260040161087890613653565b803b6113bd5760405162461bcd60e51b8152602060048201526024808201527f6e657720696d706c656d656e746174696f6e206973206e6f74206120636f6e746044820152631c9858dd60e21b6064820152608401610878565b60008051602061398883398151915255565b6001600160a01b03831660009081526033602052604090205460ff166114305760405162461bcd60e51b8152602060048201526016602482015275105cdcd95d081a5cc81b9bdd081cdd5c1c1bdc9d195960521b6044820152606401610878565b600082116114805760405162461bcd60e51b815260206004820152601d60248201527f416d6f756e74206d7573742062652067726561746572207468616e20300000006044820152606401610878565b600061148c8385611754565b9050600061149b85600161189f565b90506000670de0b6b3a76400006114b2838561361a565b6114bc9190613631565b9050831561151457838110156115145760405162461bcd60e51b815260206004820152601e60248201527f4d696e7420616d6f756e74206c6f776572207468616e206d696e696d756d00006044820152606401610878565b7f0f6798a560793a54c3bcfe86a93cde1e73087d944c0ea20544137d4121396885338260405161154592919061370d565b60405180910390a1603b5481101580156115695750603754600160a01b900460ff16155b156115f257604a546001600160a01b0316156115e857604a60009054906101000a90046001600160a01b03166001600160a01b031663e52253816040518163ffffffff1660e01b8152600401600060405180830381600087803b1580156115cf57600080fd5b505af11580156115e3573d6000803e3d6000fd5b505050505b6115f0612688565b505b603c546040516340c10f1960e01b81526001600160a01b03909116906340c10f1990611624903390859060040161370d565b600060405180830381600087803b15801561163e57600080fd5b505af1158015611652573d6000803e3d6000fd5b5088925061166e9150506001600160a01b038216333089612c11565b603a54821061167f5761167f612425565b50505050505050565b6001600160a01b03811660009081526033602052604090205462010000900460ff16806116ed5760405162461bcd60e51b8152602060048201526013602482015272111958da5b585b1cc81b9bdd0818d858da1959606a1b6044820152606401610878565b919050565b6000818311156117225761171b6117098385613787565b61171490600a613881565b8590612c7c565b935061174c565b8183101561174c576117496117378484613787565b61174290600a613881565b8590612c88565b93505b509192915050565b6001600160a01b038116600090815260336020526040812054610100900460ff168181600181111561178857611788613526565b036117ab576117a3601261179b85611688565b8691906116f2565b915050610c84565b60018160018111156117bf576117bf613526565b03611850576000836001600160a01b031663e6aa216c6040518163ffffffff1660e01b8152600401602060405180830381865afa158015611804573d6000803e3d6000fd5b505050506040513d601f19601f82011682018060405250810190611828919061376e565b9050670de0b6b3a764000061183d828761361a565b6118479190613631565b92505050610c84565b60405162461bcd60e51b815260206004820152601b60248201527f556e737570706f7274656420636f6e76657273696f6e207479706500000000006044820152606401610878565b5092915050565b6001600160a01b038281166000818152603360205260408082205460375491516315d5220f60e31b81526004810194909452919361010090920460ff169291169063aea9107890602401602060405180830381865afa158015611906573d6000803e3d6000fd5b505050506040513d601f19601f8201168201806040525081019061192a919061376e565b9150600181600181111561194057611940613526565b036119d0576000846001600160a01b031663e6aa216c6040518163ffffffff1660e01b8152600401602060405180830381865afa158015611985573d6000803e3d6000fd5b505050506040513d601f19601f820116820180604052508101906119a9919061376e565b9050806119be84670de0b6b3a764000061361a565b6119c89190613631565b925050611a31565b60008160018111156119e4576119e4613526565b14611a315760405162461bcd60e51b815260206004820152601b60248201527f556e737570706f7274656420636f6e76657273696f6e207479706500000000006044820152606401610878565b67120a871cc0020000821115611a895760405162461bcd60e51b815260206004820152601860248201527f5661756c743a2050726963652065786365656473206d617800000000000000006044820152606401610878565b6709b6e64a8ec60000821015611ada5760405162461bcd60e51b81526020600482015260166024820152752b30bab63a1d10283934b1b2903ab73232b91036b4b760511b6044820152606401610878565b8215611b5157670de0b6b3a7640000821115611afc57670de0b6b3a764000091505b670dd99bb65dd70000821015611b4c5760405162461bcd60e51b815260206004820152601560248201527441737365742070726963652062656c6f772070656760581b6044820152606401610878565b611898565b670de0b6b3a76400008210156118985750670de0b6b3a76400009392505050565b6001600160a01b038116611bc85760405162461bcd60e51b815260206004820152601a60248201527f4e657720476f7665726e6f7220697320616464726573732830290000000000006044820152606401610878565b611bd181612c94565b50565b6040516370a0823160e01b815230600482015260009082906001600160a01b038216906370a0823190602401602060405180830381865afa158015611c1d573d6000803e3d6000fd5b505050506040513d601f19601f82011682018060405250810190611c41919061376e565b60365490925060005b81811015611d6657600060368281548110611c6757611c6761388d565b60009182526020909120015460405163551c457b60e11b81526001600160a01b0388811660048301529091169150819063aa388af690602401602060405180830381865afa158015611cbd573d6000803e3d6000fd5b505050506040513d601f19601f82011682018060405250810190611ce191906138a3565b15611d5d57604051632fa8a91360e11b81526001600160a01b038781166004830152821690635f51522690602401602060405180830381865afa158015611d2c573d6000803e3d6000fd5b505050506040513d601f19601f82011682018060405250810190611d50919061376e565b611d5a90866138c5565b94505b50600101611c4a565b505050919050565b60006001600160ff1b038212611d965760405162461bcd60e51b8152600401610878906136e4565b6000821215611dad57611da8826138d8565b610c84565b5090565b6034546060906000816001600160401b03811115611dd157611dd161368a565b604051908082528060200260200182016040528015611dfa578160200160208202803683370190505b5090506000826001600160401b03811115611e1757611e1761368a565b604051908082528060200260200182016040528015611e40578160200160208202803683370190505b509050826001600160401b03811115611e5b57611e5b61368a565b604051908082528060200260200182016040528015611e84578160200160208202803683370190505b5060385490945015611eb457603854600090611ea4908790612710612cfb565b9050611eb08187613787565b9550505b6000805b84811015611f7157600060348281548110611ed557611ed561388d565b60009182526020822001546001600160a01b03169150611ef482611bd4565b905080858481518110611f0957611f0961388d565b602002602001018181525050611f1f8183611754565b868481518110611f3157611f3161388d565b602002602001018181525050858381518110611f4f57611f4f61388d565b602002602001015184611f6291906138c5565b93505050806001019050611eb8565b506000805b85811015611fff576000611fb060348381548110611f9657611f9661388d565b60009182526020822001546001600160a01b03169061189f565b905060008482888581518110611fc857611fc861388d565b6020026020010151611fda919061361a565b611fe49190613631565b9050611ff081856138c5565b93505050806001019050611f76565b50600061200c8883612d1d565b905060005b8681101561206e57838286838151811061202d5761202d61388d565b602002602001015161203f919061361a565b6120499190613631565b88828151811061205b5761205b61388d565b6020908102919091010152600101612011565b50505050505050919050565b600061208583611db1565b90507f222838db2794d11532d940e8dec38ae307ed0b63cd97c233322e221f998767a633846040516120b892919061370d565b60405180910390a160345460005b818110156122ed578281815181106120e0576120e061388d565b6020026020010151600003156122e5576000603482815481106121055761210561388d565b60009182526020909120015484516001600160a01b0390911691508490839081106121325761213261388d565b60209081029190910101516040516370a0823160e01b81523060048201526001600160a01b038316906370a0823190602401602060405180830381865afa158015612181573d6000803e3d6000fd5b505050506040513d601f19601f820116820180604052508101906121a5919061376e565b106121e6576121e1338584815181106121c0576121c061388d565b6020026020010151836001600160a01b0316612d469092919063ffffffff16565b6122e3565b6001600160a01b038082166000908152604060208190529020541680156122a7576000819050806001600160a01b031663d9caed12338589888151811061222f5761222f61388d565b60209081029190910101516040516001600160e01b031960e086901b1681526001600160a01b0393841660048201529290911660248301526044820152606401600060405180830381600087803b15801561228957600080fd5b505af115801561229d573d6000803e3d6000fd5b50505050506122e1565b60405162461bcd60e51b815260206004820152600f60248201526e2634b8bab4b234ba3c9032b93937b960891b6044820152606401610878565b505b505b6001016120c6565b5082156123b2576000805b835181101561235f5761234b8482815181106123165761231661388d565b6020026020010151603483815481106123315761233161388d565b6000918252602090912001546001600160a01b0316611754565b61235590836138c5565b91506001016122f8565b50838110156123b05760405162461bcd60e51b815260206004820181905260248201527f52656465656d20616d6f756e74206c6f776572207468616e206d696e696d756d6044820152606401610878565b505b603c54604051632770a7eb60e21b81526001600160a01b0390911690639dc29fac906123e4903390889060040161370d565b600060405180830381600087803b1580156123fe57600080fd5b505af1158015612412573d6000803e3d6000fd5b5050505061241f84612d65565b50505050565b600061242f612f0c565b90508060000361243c5750565b6000612446612fd6565b9050600061245482846138c5565b905060008260000361247c5760395461247590670de0b6b3a7640000613787565b90506124b9565b838260395461248b919061361a565b6124959190613631565b905080670de0b6b3a7640000111561241f5761247581670de0b6b3a7640000613787565b806000036124c75750505050565b60345460005b81811015612680576000603482815481106124ea576124ea61388d565b60009182526020822001546040516370a0823160e01b81523060048201526001600160a01b03909116925082906370a0823190602401602060405180830381865afa15801561253d573d6000803e3d6000fd5b505050506040513d601f19601f82011682018060405250810190612561919061376e565b905080600003612572575050612678565b600061257e828761302a565b6001600160a01b038085166000908152604060208190529020549192501680158015906125ab5750600082115b1561267357806125c56001600160a01b0386168285612d46565b6040516311f9fbc960e21b81526001600160a01b038216906347e7ef24906125f3908890879060040161370d565b600060405180830381600087803b15801561260d57600080fd5b505af1158015612621573d6000803e3d6000fd5b5050604080516001600160a01b03808a168252861660208201529081018690527f41b99659f6ba0803f444aff29e5bf6e26dd86a3219aff92119d69710a956ba8d9250606001905060405180910390a1505b505050505b6001016124cd565b505050505050565b603754600090600160a01b900460ff16156126d75760405162461bcd60e51b815260206004820152600f60248201526e149958985cda5b99c81c185d5cd959608a1b6044820152606401610878565b603c54604080516318160ddd60e01b815290516000926001600160a01b0316916318160ddd9160048083019260209291908290030181865afa158015612721573d6000803e3d6000fd5b505050506040513d601f19601f82011682018060405250810190612745919061376e565b90506000612751612a22565b905081600003612764579150612a1f9050565b6000806127718484612a3e565b9092509050600061278283866138c5565b9050848111158061279257508381115b156127a1575091949350505050565b6127b2826001600160401b0361303f565b604f805477ffffffffffffffffffffffffffffffff000000000000000016600160c01b6001600160401b039384160267ffffffffffffffff19161742929092169190911790556042546001600160a01b0316600081156128ee576127106043548661281d919061361a565b6128279190613631565b905080156128ee578481106128895760405162461bcd60e51b815260206004820152602260248201527f466565206d757374206e6f742062652067726561746572207468616e207969656044820152611b1960f21b6064820152608401610878565b603c546040516340c10f1960e01b81526001600160a01b03909116906340c10f19906128bb908590859060040161370d565b600060405180830381600087803b1580156128d557600080fd5b505af11580156128e9573d6000803e3d6000fd5b505050505b604080516001600160a01b0384168152602081018790529081018290527f09516ecf4a8a86e59780a9befc6dee948bc9e60a36e3be68d31ea817ee8d2c809060600160405180910390a1603c60009054906101000a90046001600160a01b03166001600160a01b03166318160ddd6040518163ffffffff1660e01b8152600401602060405180830381865afa15801561298b573d6000803e3d6000fd5b505050506040513d601f19601f820116820180604052508101906129af919061376e565b831115612a1557603c546040516339a7919f60e01b8152600481018590526001600160a01b03909116906339a7919f90602401600060405180830381600087803b1580156129fc57600080fd5b505af1158015612a10573d6000803e3d6000fd5b505050505b5093955050505050505b90565b6000612a2c612fd6565b612a34612f0c565b61084991906138c5565b6000806000603c60009054906101000a90046001600160a01b03166001600160a01b031663e696393a6040518163ffffffff1660e01b8152600401602060405180830381865afa158015612a96573d6000803e3d6000fd5b505050506040513d601f19601f82011682018060405250810190612aba919061376e565b90506000612ac88287613787565b604f54909150600090612ae4906001600160401b031642613787565b604f54600160c01b90046001600160401b031694509050801580612b06575081155b80612b1057508587115b80612b2257506001600160401b034210155b15612b335760009450505050612c0a565b612b3d8787613787565b604f54909550600160401b90046001600160401b03166001811115612ba257612b7a85612b6b83600261361a565b612b759089613631565b613055565b9450612b8f85612b8a8389613631565b61303f565b9450612b9f86612b8a848861361a565b95505b604f54612be3908790670de0b6b3a764000090600160801b90046001600160401b0316612bcf868861361a565b612bd9919061361a565b612b8a9190613631565b9550612c0386670de0b6b3a7640000612bd966470de4df8200008761361a565b9550505050505b9250929050565b6040516001600160a01b038085166024830152831660448201526064810182905261241f9085906323b872dd60e01b906084015b60408051601f198184030181529190526020810180516001600160e01b03166001600160e01b031990931692909217909152613064565b6000610982828461361a565b60006109828284613631565b806001600160a01b0316612cb46000805160206139a88339815191525490565b6001600160a01b03167fc7c0c772add429241571afb3805861fb3cfa2af374534088b76cdb4325a87e9a60405160405180910390a36000805160206139a883398151915255565b600080612d088585612c7c565b9050612d148184612c88565b95945050505050565b600080612d3284670de0b6b3a7640000612c7c565b9050612d3e8184612c88565b949350505050565b610ba58363a9059cbb60e01b8484604051602401612c4592919061370d565b6000603b548210158015612d835750603754600160a01b900460ff16155b15612d9757612d90612688565b9050612da2565b612d9f612a22565b90505b60415415612f085760008111612dfa5760405162461bcd60e51b815260206004820152601d60248201527f546f6f206d616e79206f75747374616e64696e672072657175657374730000006044820152606401610878565b6000612e7d82603c60009054906101000a90046001600160a01b03166001600160a01b03166318160ddd6040518163ffffffff1660e01b8152600401602060405180830381865afa158015612e53573d6000803e3d6000fd5b505050506040513d601f19601f82011682018060405250810190612e77919061376e565b90612d1d565b9050604154670de0b6b3a76400008211612ea857612ea382670de0b6b3a7640000613787565b612eba565b612eba670de0b6b3a764000083613787565b1115610ba55760405162461bcd60e51b815260206004820152601e60248201527f4261636b696e6720737570706c79206c6971756964697479206572726f7200006044820152606401610878565b5050565b603454600090815b81811015612fd157600060348281548110612f3157612f3161388d565b60009182526020822001546040516370a0823160e01b81523060048201526001600160a01b03909116925082906370a0823190602401602060405180830381865afa158015612f84573d6000803e3d6000fd5b505050506040513d601f19601f82011682018060405250810190612fa8919061376e565b90508015612fc757612fba8183611754565b612fc490866138c5565b94505b5050600101612f14565b505090565b603654600090815b81811015612fd15761301660368281548110612ffc57612ffc61388d565b6000918252602090912001546001600160a01b0316613136565b61302090846138c5565b9250600101612fde565b60006109828383670de0b6b3a7640000612cfb565b600081831061304e5781610982565b5090919050565b600081831161304e5781610982565b60006130b9826040518060400160405280602081526020017f5361666545524332303a206c6f772d6c6576656c2063616c6c206661696c6564815250856001600160a01b03166132759092919063ffffffff16565b805190915015610ba557808060200190518101906130d791906138a3565b610ba55760405162461bcd60e51b815260206004820152602a60248201527f5361666545524332303a204552433230206f7065726174696f6e20646964206e6044820152691bdd081cdd58d8d9595960b21b6064820152608401610878565b6034546000908290825b81811015611d665760006034828154811061315d5761315d61388d565b60009182526020909120015460405163551c457b60e11b81526001600160a01b039182166004820181905292509085169063aa388af690602401602060405180830381865afa1580156131b4573d6000803e3d6000fd5b505050506040513d601f19601f820116820180604052508101906131d891906138a3565b1561326c57604051632fa8a91360e11b81526001600160a01b03828116600483015260009190861690635f51522690602401602060405180830381865afa158015613227573d6000803e3d6000fd5b505050506040513d601f19601f8201168201806040525081019061324b919061376e565b9050801561326a5761325d8183611754565b61326790876138c5565b95505b505b50600101613140565b6060612d3e848460008585843b6132ce5760405162461bcd60e51b815260206004820152601d60248201527f416464726573733a2063616c6c20746f206e6f6e2d636f6e74726163740000006044820152606401610878565b600080866001600160a01b031685876040516132ea9190613918565b60006040518083038185875af1925050503d8060008114613327576040519150601f19603f3d011682016040523d82523d6000602084013e61332c565b606091505b509150915061333c828286613347565b979650505050505050565b60608315613356575081610982565b8251156133665782518084602001fd5b8160405162461bcd60e51b81526004016108789190613934565b8280548282559060005260206000209081019282156133d5579160200282015b828111156133d557825182546001600160a01b0319166001600160a01b039091161782556020909201916001909101906133a0565b50611dad9291505b80821115611dad57600081556001016133dd565b80356001600160a01b03811681146116ed57600080fd5b60008060006060848603121561341d57600080fd5b613426846133f1565b95602085013595506040909401359392505050565b602080825282518282018190526000918401906040840190835b8181101561347c5783516001600160a01b0316835260209384019390920191600101613455565b509095945050505050565b60006020828403121561349957600080fd5b610982826133f1565b600080604083850312156134b557600080fd5b6134be836133f1565b91506134cc602084016133f1565b90509250929050565b6000602082840312156134e757600080fd5b5035919050565b602080825282518282018190526000918401906040840190835b8181101561347c578351835260209384019390920191600101613508565b634e487b7160e01b600052602160045260246000fd5b815115158152602082015160808201906002811061356a57634e487b7160e01b600052602160045260246000fd5b8060208401525060ff604084015116604083015261ffff606084015116606083015292915050565b600080604083850312156135a557600080fd5b50508035926020909101359150565b6020808252600e908201526d10d85c1a5d185b081c185d5cd95960921b604082015260600190565b6020808252600e908201526d1499595b9d1c985b9d0818d85b1b60921b604082015260600190565b634e487b7160e01b600052601160045260246000fd5b8082028115828204841417610c8457610c84613604565b60008261364e57634e487b7160e01b600052601260045260246000fd5b500490565b6020808252601a908201527f43616c6c6572206973206e6f742074686520476f7665726e6f72000000000000604082015260600190565b634e487b7160e01b600052604160045260246000fd5b60208082526024908201527f43616c6c6572206973206e6f7420746865204f555344206d65746120737472616040820152637465677960e01b606082015260800190565b6020808252600f908201526e082dadeeadce840e8dede40d0d2ced608b1b604082015260600190565b6001600160a01b03929092168252602082015260400190565b818103600083128015838313168383128216171561189857611898613604565b808201828112600083128015821682158216171561376657613766613604565b505092915050565b60006020828403121561378057600080fd5b5051919050565b81810381811115610c8457610c84613604565b6001815b60018411156137d5578085048111156137b9576137b9613604565b60018416156137c757908102905b60019390931c92800261379e565b935093915050565b6000826137ec57506001610c84565b816137f957506000610c84565b816001811461380f576002811461381957613835565b6001915050610c84565b60ff84111561382a5761382a613604565b50506001821b610c84565b5060208310610133831016604e8410600b8410161715613858575081810a610c84565b613865600019848461379a565b806000190482111561387957613879613604565b029392505050565b600061098283836137dd565b634e487b7160e01b600052603260045260246000fd5b6000602082840312156138b557600080fd5b8151801515811461098257600080fd5b80820180821115610c8457610c84613604565b6000600160ff1b82016138ed576138ed613604565b5060000390565b60005b8381101561390f5781810151838201526020016138f7565b50506000910152565b6000825161392a8184602087016138f4565b9190910192915050565b60208152600082518060208401526139538160408501602087016138f4565b601f01601f1916919091016040019291505056fe53bf423e48ed90e97d02ab0ebab13b2a235a6bfbe9c321847d5c175333ac4535a2bd3d3cf188a41358c8b401076eb59066b09dec5775650c0de4c55187d17bd97bea13895fa79d2831e0a9e28edede30099005a50d652d8957cf8a607ee6ca4aa26469706673582212203467e799fccbe4b513445c3d641d62f9c855227a8c80bb625a5a7ea9f7168afe64736f6c634300081c0033",
  "libraries": {},
  "devdoc": {
    "kind": "dev",
    "methods": {
      "burnForStrategy(uint256)": {
        "details": "Notice: can't use `nonReentrant` modifier since the `redeem` function could require withdrawal on `ConvexOUSDMetaStrategy` and that one can call `burnForStrategy` while the execution of the `redeem` has not yet completed -> causing a `nonReentrant` collision. Also important to understand is that this is a limitation imposed by the test suite. Production / mainnet contracts should never be configured in a way where mint/redeem functions that are moving funds between the Vault and end user wallets can influence strategies utilizing this function.",
        "params": {
          "_amount": "Amount of OUSD to burn"
        }
      },
      "checkBalance(address)": {
        "params": {
          "_asset": "Address of asset"
        },
        "returns": {
          "_0": "uint256 Balance of asset in decimals of asset"
        }
      },
      "getAssetConfig(address)": {
        "params": {
          "_asset": "Address of the token asset"
        }
      },
      "isSupportedAsset(address)": {
        "params": {
          "_asset": "address of the asset"
        },
        "returns": {
          "_0": "true if supported"
        }
      },
      "mint(address,uint256,uint256)": {
        "params": {
          "_amount": "Amount of the asset being deposited",
          "_asset": "Address of the asset being deposited",
          "_minimumOusdAmount": "Minimum OTokens to mint"
        }
      },
      "mintForStrategy(uint256)": {
        "params": {
          "_amount": "Amount of the asset being deposited Notice: can't use `nonReentrant` modifier since the `mint` function can call `allocate`, and that can trigger `ConvexOUSDMetaStrategy` to call this function while the execution of the `mint` has not yet completed -> causing a `nonReentrant` collision. Also important to understand is that this is a limitation imposed by the test suite. Production / mainnet contracts should never be configured in a way where mint/redeem functions that are moving funds between the Vault and end user wallets can influence strategies utilizing this function."
        }
      },
      "previewYield()": {
        "returns": {
          "yield": "amount of expected yield"
        }
      },
      "priceUnitMint(address)": {
        "params": {
          "asset": "address of the asset"
        },
        "returns": {
          "price": "uint256: unit (USD / ETH) price for 1 unit of the asset, in 18 decimal fixed"
        }
      },
      "priceUnitRedeem(address)": {
        "params": {
          "asset": "Address of the asset"
        },
        "returns": {
          "price": "uint256: unit (USD / ETH) price for 1 unit of the asset, in 18 decimal fixed"
        }
      },
      "redeem(uint256,uint256)": {
        "params": {
          "_amount": "Amount of OTokens to burn",
          "_minimumUnitAmount": "Minimum stablecoin units to receive in return"
        }
      },
      "setAdminImpl(address)": {
        "params": {
          "newImpl": "address of the implementation"
        }
      },
      "totalValue()": {
        "returns": {
          "value": "Total value in USD/ETH (1e18)"
        }
      },
      "transferGovernance(address)": {
        "params": {
          "_newGovernor": "Address of the new Governor"
        }
      }
    },
    "stateVariables": {
      "MAX_INT": {
        "details": "max signed int"
      }
    },
    "version": 1
  },
  "userdoc": {
    "kind": "user",
    "methods": {
      "allocate()": {
        "notice": "Allocate unallocated funds on Vault to strategies.*"
      },
      "assetDefaultStrategies(address)": {
        "notice": "Mapping of asset address to the Strategy that they should automatically"
      },
      "autoAllocateThreshold()": {
        "notice": "OToken mints over this amount automatically allocate funds. 18 decimals."
      },
      "burnForStrategy(uint256)": {
        "notice": "Burn OTokens for Metapool Strategy"
      },
      "calculateRedeemOutputs(uint256)": {
        "notice": "Calculate the outputs for a redeem function, i.e. the mix of coins that will be returned"
      },
      "capitalPaused()": {
        "notice": "pause operations that change the OToken supply. eg mint, redeem, allocate, mint/burn for strategy"
      },
      "checkBalance(address)": {
        "notice": "Get the balance of an asset held in Vault and all strategies."
      },
      "claimGovernance()": {
        "notice": "Claim Governance of the contract to a new account (`newGovernor`). Can only be called by the new Governor."
      },
      "dripDuration()": {
        "notice": "Automatic rebase yield calculations. In seconds. Set to 0 or 1 to disable."
      },
      "dripper()": {
        "notice": "Address of the Dripper contract that streams harvested rewards to the Vault"
      },
      "getAllAssets()": {
        "notice": "Return all vault asset addresses in order"
      },
      "getAllStrategies()": {
        "notice": "Return the array of all strategies"
      },
      "getAssetConfig(address)": {
        "notice": "Gets the vault configuration of a supported asset."
      },
      "getAssetCount()": {
        "notice": "Return the number of assets supported by the Vault."
      },
      "getStrategyCount()": {
        "notice": "Return the number of strategies active on the Vault."
      },
      "governor()": {
        "notice": "Returns the address of the current Governor."
      },
      "isGovernor()": {
        "notice": "Returns true if the caller is the current Governor."
      },
      "isSupportedAsset(address)": {
        "notice": "Returns whether the vault supports the asset"
      },
      "lastRebase()": {
        "notice": "Time in seconds that the vault last rebased yield."
      },
      "maxSupplyDiff()": {
        "notice": "Max difference between total supply and total value of assets. 18 decimals."
      },
      "mint(address,uint256,uint256)": {
        "notice": "Deposit a supported asset and mint OTokens."
      },
      "mintForStrategy(uint256)": {
        "notice": "Mint OTokens for a Metapool Strategy"
      },
      "netOusdMintForStrategyThreshold()": {
        "notice": "How much net total OTokens are allowed to be minted by all strategies"
      },
      "netOusdMintedForStrategy()": {
        "notice": "How much OTokens are currently minted by the strategy"
      },
      "ousdMetaStrategy()": {
        "notice": "Metapool strategy that is allowed to mint/burn OTokens without changing collateral"
      },
      "previewYield()": {
        "notice": "Calculates the amount that would rebase at at next rebase. This is before any fees."
      },
      "priceProvider()": {
        "notice": "Address of the Oracle price provider contract"
      },
      "priceUnitMint(address)": {
        "notice": "Returns the total price in 18 digit units for a given asset.      Never goes above 1, since that is how we price mints."
      },
      "priceUnitRedeem(address)": {
        "notice": "Returns the total price in 18 digit unit for a given asset.      Never goes below 1, since that is how we price redeems"
      },
      "rebase()": {
        "notice": "Calculate the total value of assets held by the Vault and all      strategies and update the supply of OTokens."
      },
      "rebasePaused()": {
        "notice": "pause rebasing if true"
      },
      "rebasePerSecondMax()": {
        "notice": "max rebase percentage per second   Can be used to set maximum yield of the protocol,   spreading out yield over time"
      },
      "rebasePerSecondTarget()": {
        "notice": "target rebase rate limit, based on past rates and funds available."
      },
      "rebaseThreshold()": {
        "notice": "OToken mints over this amount automatically rebase. 18 decimals."
      },
      "redeem(uint256,uint256)": {
        "notice": "Withdraw a supported asset and burn OTokens."
      },
      "redeemFeeBps()": {
        "notice": "Redemption fee in basis points. eg 50 = 0.5%"
      },
      "setAdminImpl(address)": {
        "notice": "set the implementation for the admin, this needs to be in a base class else we cannot set it"
      },
      "strategistAddr()": {
        "notice": "Address of the Strategist"
      },
      "totalValue()": {
        "notice": "Determine the total value of assets held by the vault and its         strategies."
      },
      "transferGovernance(address)": {
        "notice": "Transfers Governance of the contract to a new account (`newGovernor`). Can only be called by the current Governor. Must be claimed for this to complete"
      },
      "trusteeAddress()": {
        "notice": "Trustee contract that can collect a percentage of yield"
      },
      "trusteeFeeBps()": {
        "notice": "Amount of yield collected in basis points. eg 2000 = 20%"
      },
      "vaultBuffer()": {
        "notice": "Percentage of assets to keep in Vault to handle (most) withdrawals. 100% = 1e18."
      },
      "withdrawalClaimDelay()": {
        "notice": "Sets a minimum delay that is required to elapse between     requesting async withdrawals and claiming the request.     When set to 0 async withdrawals are disabled."
      },
      "withdrawalQueueMetadata()": {
        "notice": "Global metadata for the withdrawal queue including: queued - cumulative total of all withdrawal requests included the ones that have already been claimed claimable - cumulative total of all the requests that can be claimed including the ones already claimed claimed - total of all the requests that have been claimed nextWithdrawalIndex - index of the next withdrawal request starting at 0"
      },
      "withdrawalRequests(uint256)": {
        "notice": "Mapping of withdrawal request indices to the user withdrawal request data"
      }
    },
    "version": 1
  },
  "storageLayout": {
    "storage": [
      {
        "astId": 59237,
        "contract": "contracts/vault/VaultCore.sol:VaultCore",
        "label": "initialized",
        "offset": 0,
        "slot": "0",
        "type": "t_bool"
      },
      {
        "astId": 59240,
        "contract": "contracts/vault/VaultCore.sol:VaultCore",
        "label": "initializing",
        "offset": 1,
        "slot": "0",
        "type": "t_bool"
      },
      {
        "astId": 59280,
        "contract": "contracts/vault/VaultCore.sol:VaultCore",
        "label": "______gap",
        "offset": 0,
        "slot": "1",
        "type": "t_array(t_uint256)50_storage"
      },
      {
        "astId": 66519,
        "contract": "contracts/vault/VaultCore.sol:VaultCore",
        "label": "assets",
        "offset": 0,
        "slot": "51",
        "type": "t_mapping(t_address,t_struct(Asset)66513_storage)"
      },
      {
        "astId": 66523,
        "contract": "contracts/vault/VaultCore.sol:VaultCore",
        "label": "allAssets",
        "offset": 0,
        "slot": "52",
        "type": "t_array(t_address)dyn_storage"
      },
      {
        "astId": 66534,
        "contract": "contracts/vault/VaultCore.sol:VaultCore",
        "label": "strategies",
        "offset": 0,
        "slot": "53",
        "type": "t_mapping(t_address,t_struct(Strategy)66528_storage)"
      },
      {
        "astId": 66538,
        "contract": "contracts/vault/VaultCore.sol:VaultCore",
        "label": "allStrategies",
        "offset": 0,
        "slot": "54",
        "type": "t_array(t_address)dyn_storage"
      },
      {
        "astId": 66541,
        "contract": "contracts/vault/VaultCore.sol:VaultCore",
        "label": "priceProvider",
        "offset": 0,
        "slot": "55",
        "type": "t_address"
      },
      {
        "astId": 66544,
        "contract": "contracts/vault/VaultCore.sol:VaultCore",
        "label": "rebasePaused",
        "offset": 20,
        "slot": "55",
        "type": "t_bool"
      },
      {
        "astId": 66547,
        "contract": "contracts/vault/VaultCore.sol:VaultCore",
        "label": "capitalPaused",
        "offset": 21,
        "slot": "55",
        "type": "t_bool"
      },
      {
        "astId": 66550,
        "contract": "contracts/vault/VaultCore.sol:VaultCore",
        "label": "redeemFeeBps",
        "offset": 0,
        "slot": "56",
        "type": "t_uint256"
      },
      {
        "astId": 66553,
        "contract": "contracts/vault/VaultCore.sol:VaultCore",
        "label": "vaultBuffer",
        "offset": 0,
        "slot": "57",
        "type": "t_uint256"
      },
      {
        "astId": 66556,
        "contract": "contracts/vault/VaultCore.sol:VaultCore",
        "label": "autoAllocateThreshold",
        "offset": 0,
        "slot": "58",
        "type": "t_uint256"
      },
      {
        "astId": 66559,
        "contract": "contracts/vault/VaultCore.sol:VaultCore",
        "label": "rebaseThreshold",
        "offset": 0,
        "slot": "59",
        "type": "t_uint256"
      },
      {
        "astId": 66563,
        "contract": "contracts/vault/VaultCore.sol:VaultCore",
        "label": "oUSD",
        "offset": 0,
        "slot": "60",
        "type": "t_contract(OUSD)56628"
      },
      {
        "astId": 66574,
        "contract": "contracts/vault/VaultCore.sol:VaultCore",
        "label": "_deprecated_rebaseHooksAddr",
        "offset": 0,
        "slot": "61",
        "type": "t_address"
      },
      {
        "astId": 66581,
        "contract": "contracts/vault/VaultCore.sol:VaultCore",
        "label": "_deprecated_uniswapAddr",
        "offset": 0,
        "slot": "62",
        "type": "t_address"
      },
      {
        "astId": 66588,
        "contract": "contracts/vault/VaultCore.sol:VaultCore",
        "label": "strategistAddr",
        "offset": 0,
        "slot": "63",
        "type": "t_address"
      },
      {
        "astId": 66593,
        "contract": "contracts/vault/VaultCore.sol:VaultCore",
        "label": "assetDefaultStrategies",
        "offset": 0,
        "slot": "64",
        "type": "t_mapping(t_address,t_address)"
      },
      {
        "astId": 66596,
        "contract": "contracts/vault/VaultCore.sol:VaultCore",
        "label": "maxSupplyDiff",
        "offset": 0,
        "slot": "65",
        "type": "t_uint256"
      },
      {
        "astId": 66599,
        "contract": "contracts/vault/VaultCore.sol:VaultCore",
        "label": "trusteeAddress",
        "offset": 0,
        "slot": "66",
        "type": "t_address"
      },
      {
        "astId": 66602,
        "contract": "contracts/vault/VaultCore.sol:VaultCore",
        "label": "trusteeFeeBps",
        "offset": 0,
        "slot": "67",
        "type": "t_uint256"
      },
      {
        "astId": 66606,
        "contract": "contracts/vault/VaultCore.sol:VaultCore",
        "label": "_deprecated_swapTokens",
        "offset": 0,
        "slot": "68",
        "type": "t_array(t_address)dyn_storage"
      },
      {
        "astId": 66612,
        "contract": "contracts/vault/VaultCore.sol:VaultCore",
        "label": "ousdMetaStrategy",
        "offset": 0,
        "slot": "69",
        "type": "t_address"
      },
      {
        "astId": 66615,
        "contract": "contracts/vault/VaultCore.sol:VaultCore",
        "label": "netOusdMintedForStrategy",
        "offset": 0,
        "slot": "70",
        "type": "t_int256"
      },
      {
        "astId": 66618,
        "contract": "contracts/vault/VaultCore.sol:VaultCore",
        "label": "netOusdMintForStrategyThreshold",
        "offset": 0,
        "slot": "71",
        "type": "t_uint256"
      },
      {
        "astId": 66640,
        "contract": "contracts/vault/VaultCore.sol:VaultCore",
        "label": "swapConfig",
        "offset": 0,
        "slot": "72",
        "type": "t_struct(SwapConfig)66630_storage"
      },
      {
        "astId": 66644,
        "contract": "contracts/vault/VaultCore.sol:VaultCore",
        "label": "isMintWhitelistedStrategy",
        "offset": 0,
        "slot": "73",
        "type": "t_mapping(t_address,t_bool)"
      },
      {
        "astId": 66647,
        "contract": "contracts/vault/VaultCore.sol:VaultCore",
        "label": "dripper",
        "offset": 0,
        "slot": "74",
        "type": "t_address"
      },
      {
        "astId": 66661,
        "contract": "contracts/vault/VaultCore.sol:VaultCore",
        "label": "withdrawalQueueMetadata",
        "offset": 0,
        "slot": "75",
        "type": "t_struct(WithdrawalQueueMetadata)66657_storage"
      },
      {
        "astId": 66678,
        "contract": "contracts/vault/VaultCore.sol:VaultCore",
        "label": "withdrawalRequests",
        "offset": 0,
        "slot": "77",
        "type": "t_mapping(t_uint256,t_struct(WithdrawalRequest)66672_storage)"
      },
      {
        "astId": 66681,
        "contract": "contracts/vault/VaultCore.sol:VaultCore",
        "label": "withdrawalClaimDelay",
        "offset": 0,
        "slot": "78",
        "type": "t_uint256"
      },
      {
        "astId": 66684,
        "contract": "contracts/vault/VaultCore.sol:VaultCore",
        "label": "lastRebase",
        "offset": 0,
        "slot": "79",
        "type": "t_uint64"
      },
      {
        "astId": 66687,
        "contract": "contracts/vault/VaultCore.sol:VaultCore",
        "label": "dripDuration",
        "offset": 8,
        "slot": "79",
        "type": "t_uint64"
      },
      {
        "astId": 66690,
        "contract": "contracts/vault/VaultCore.sol:VaultCore",
        "label": "rebasePerSecondMax",
        "offset": 16,
        "slot": "79",
        "type": "t_uint64"
      },
      {
        "astId": 66693,
        "contract": "contracts/vault/VaultCore.sol:VaultCore",
        "label": "rebasePerSecondTarget",
        "offset": 24,
        "slot": "79",
        "type": "t_uint64"
      },
      {
        "astId": 66708,
        "contract": "contracts/vault/VaultCore.sol:VaultCore",
        "label": "__gap",
        "offset": 0,
        "slot": "80",
        "type": "t_array(t_uint256)43_storage"
      }
    ],
    "types": {
      "t_address": {
        "encoding": "inplace",
        "label": "address",
        "numberOfBytes": "20"
      },
      "t_array(t_address)dyn_storage": {
        "base": "t_address",
        "encoding": "dynamic_array",
        "label": "address[]",
        "numberOfBytes": "32"
      },
      "t_array(t_uint256)43_storage": {
        "base": "t_uint256",
        "encoding": "inplace",
        "label": "uint256[43]",
        "numberOfBytes": "1376"
      },
      "t_array(t_uint256)50_storage": {
        "base": "t_uint256",
        "encoding": "inplace",
        "label": "uint256[50]",
        "numberOfBytes": "1600"
      },
      "t_bool": {
        "encoding": "inplace",
        "label": "bool",
        "numberOfBytes": "1"
      },
      "t_contract(OUSD)56628": {
        "encoding": "inplace",
        "label": "contract OUSD",
        "numberOfBytes": "20"
      },
      "t_enum(UnitConversion)66503": {
        "encoding": "inplace",
        "label": "enum VaultStorage.UnitConversion",
        "numberOfBytes": "1"
      },
      "t_int256": {
        "encoding": "inplace",
        "label": "int256",
        "numberOfBytes": "32"
      },
      "t_mapping(t_address,t_address)": {
        "encoding": "mapping",
        "key": "t_address",
        "label": "mapping(address => address)",
        "numberOfBytes": "32",
        "value": "t_address"
      },
      "t_mapping(t_address,t_bool)": {
        "encoding": "mapping",
        "key": "t_address",
        "label": "mapping(address => bool)",
        "numberOfBytes": "32",
        "value": "t_bool"
      },
      "t_mapping(t_address,t_struct(Asset)66513_storage)": {
        "encoding": "mapping",
        "key": "t_address",
        "label": "mapping(address => struct VaultStorage.Asset)",
        "numberOfBytes": "32",
        "value": "t_struct(Asset)66513_storage"
      },
      "t_mapping(t_address,t_struct(Strategy)66528_storage)": {
        "encoding": "mapping",
        "key": "t_address",
        "label": "mapping(address => struct VaultStorage.Strategy)",
        "numberOfBytes": "32",
        "value": "t_struct(Strategy)66528_storage"
      },
      "t_mapping(t_uint256,t_struct(WithdrawalRequest)66672_storage)": {
        "encoding": "mapping",
        "key": "t_uint256",
        "label": "mapping(uint256 => struct VaultStorage.WithdrawalRequest)",
        "numberOfBytes": "32",
        "value": "t_struct(WithdrawalRequest)66672_storage"
      },
      "t_struct(Asset)66513_storage": {
        "encoding": "inplace",
        "label": "struct VaultStorage.Asset",
        "members": [
          {
            "astId": 66505,
            "contract": "contracts/vault/VaultCore.sol:VaultCore",
            "label": "isSupported",
            "offset": 0,
            "slot": "0",
            "type": "t_bool"
          },
          {
            "astId": 66508,
            "contract": "contracts/vault/VaultCore.sol:VaultCore",
            "label": "unitConversion",
            "offset": 1,
            "slot": "0",
            "type": "t_enum(UnitConversion)66503"
          },
          {
            "astId": 66510,
            "contract": "contracts/vault/VaultCore.sol:VaultCore",
            "label": "decimals",
            "offset": 2,
            "slot": "0",
            "type": "t_uint8"
          },
          {
            "astId": 66512,
            "contract": "contracts/vault/VaultCore.sol:VaultCore",
            "label": "allowedOracleSlippageBps",
            "offset": 3,
            "slot": "0",
            "type": "t_uint16"
          }
        ],
        "numberOfBytes": "32"
      },
      "t_struct(Strategy)66528_storage": {
        "encoding": "inplace",
        "label": "struct VaultStorage.Strategy",
        "members": [
          {
            "astId": 66525,
            "contract": "contracts/vault/VaultCore.sol:VaultCore",
            "label": "isSupported",
            "offset": 0,
            "slot": "0",
            "type": "t_bool"
          },
          {
            "astId": 66527,
            "contract": "contracts/vault/VaultCore.sol:VaultCore",
            "label": "_deprecated",
            "offset": 0,
            "slot": "1",
            "type": "t_uint256"
          }
        ],
        "numberOfBytes": "64"
      },
      "t_struct(SwapConfig)66630_storage": {
        "encoding": "inplace",
        "label": "struct VaultStorage.SwapConfig",
        "members": [
          {
            "astId": 66627,
            "contract": "contracts/vault/VaultCore.sol:VaultCore",
            "label": "swapper",
            "offset": 0,
            "slot": "0",
            "type": "t_address"
          },
          {
            "astId": 66629,
            "contract": "contracts/vault/VaultCore.sol:VaultCore",
            "label": "allowedUndervalueBps",
            "offset": 20,
            "slot": "0",
            "type": "t_uint16"
          }
        ],
        "numberOfBytes": "32"
      },
      "t_struct(WithdrawalQueueMetadata)66657_storage": {
        "encoding": "inplace",
        "label": "struct VaultStorage.WithdrawalQueueMetadata",
        "members": [
          {
            "astId": 66650,
            "contract": "contracts/vault/VaultCore.sol:VaultCore",
            "label": "queued",
            "offset": 0,
            "slot": "0",
            "type": "t_uint128"
          },
          {
            "astId": 66652,
            "contract": "contracts/vault/VaultCore.sol:VaultCore",
            "label": "claimable",
            "offset": 16,
            "slot": "0",
            "type": "t_uint128"
          },
          {
            "astId": 66654,
            "contract": "contracts/vault/VaultCore.sol:VaultCore",
            "label": "claimed",
            "offset": 0,
            "slot": "1",
            "type": "t_uint128"
          },
          {
            "astId": 66656,
            "contract": "contracts/vault/VaultCore.sol:VaultCore",
            "label": "nextWithdrawalIndex",
            "offset": 16,
            "slot": "1",
            "type": "t_uint128"
          }
        ],
        "numberOfBytes": "64"
      },
      "t_struct(WithdrawalRequest)66672_storage": {
        "encoding": "inplace",
        "label": "struct VaultStorage.WithdrawalRequest",
        "members": [
          {
            "astId": 66663,
            "contract": "contracts/vault/VaultCore.sol:VaultCore",
            "label": "withdrawer",
            "offset": 0,
            "slot": "0",
            "type": "t_address"
          },
          {
            "astId": 66665,
            "contract": "contracts/vault/VaultCore.sol:VaultCore",
            "label": "claimed",
            "offset": 20,
            "slot": "0",
            "type": "t_bool"
          },
          {
            "astId": 66667,
            "contract": "contracts/vault/VaultCore.sol:VaultCore",
            "label": "timestamp",
            "offset": 21,
            "slot": "0",
            "type": "t_uint40"
          },
          {
            "astId": 66669,
            "contract": "contracts/vault/VaultCore.sol:VaultCore",
            "label": "amount",
            "offset": 0,
            "slot": "1",
            "type": "t_uint128"
          },
          {
            "astId": 66671,
            "contract": "contracts/vault/VaultCore.sol:VaultCore",
            "label": "queued",
            "offset": 16,
            "slot": "1",
            "type": "t_uint128"
          }
        ],
        "numberOfBytes": "64"
      },
      "t_uint128": {
        "encoding": "inplace",
        "label": "uint128",
        "numberOfBytes": "16"
      },
      "t_uint16": {
        "encoding": "inplace",
        "label": "uint16",
        "numberOfBytes": "2"
      },
      "t_uint256": {
        "encoding": "inplace",
        "label": "uint256",
        "numberOfBytes": "32"
      },
      "t_uint40": {
        "encoding": "inplace",
        "label": "uint40",
        "numberOfBytes": "5"
      },
      "t_uint64": {
        "encoding": "inplace",
        "label": "uint64",
        "numberOfBytes": "8"
      },
      "t_uint8": {
        "encoding": "inplace",
        "label": "uint8",
        "numberOfBytes": "1"
      }
    }
  }
}