{
  "address": "0x226de75867B2f785BA19600e2a7e6eFccD57157B",
  "abi": [
    {
      "anonymous": false,
      "inputs": [
        {
          "indexed": false,
          "internalType": "uint256",
          "name": "_threshold",
          "type": "uint256"
        }
      ],
      "name": "AllocateThresholdUpdated",
      "type": "event"
    },
    {
      "anonymous": false,
      "inputs": [
        {
          "indexed": false,
          "internalType": "address",
          "name": "_asset",
          "type": "address"
        },
        {
          "indexed": false,
          "internalType": "address",
          "name": "_strategy",
          "type": "address"
        },
        {
          "indexed": false,
          "internalType": "uint256",
          "name": "_amount",
          "type": "uint256"
        }
      ],
      "name": "AssetAllocated",
      "type": "event"
    },
    {
      "anonymous": false,
      "inputs": [
        {
          "indexed": false,
          "internalType": "address",
          "name": "_asset",
          "type": "address"
        },
        {
          "indexed": false,
          "internalType": "address",
          "name": "_strategy",
          "type": "address"
        }
      ],
      "name": "AssetDefaultStrategyUpdated",
      "type": "event"
    },
    {
      "anonymous": false,
      "inputs": [
        {
          "indexed": false,
          "internalType": "address",
          "name": "_asset",
          "type": "address"
        }
      ],
      "name": "AssetSupported",
      "type": "event"
    },
    {
      "anonymous": false,
      "inputs": [],
      "name": "CapitalPaused",
      "type": "event"
    },
    {
      "anonymous": false,
      "inputs": [],
      "name": "CapitalUnpaused",
      "type": "event"
    },
    {
      "anonymous": false,
      "inputs": [
        {
          "indexed": true,
          "internalType": "address",
          "name": "previousGovernor",
          "type": "address"
        },
        {
          "indexed": true,
          "internalType": "address",
          "name": "newGovernor",
          "type": "address"
        }
      ],
      "name": "GovernorshipTransferred",
      "type": "event"
    },
    {
      "anonymous": false,
      "inputs": [
        {
          "indexed": false,
          "internalType": "uint256",
          "name": "maxSupplyDiff",
          "type": "uint256"
        }
      ],
      "name": "MaxSupplyDiffChanged",
      "type": "event"
    },
    {
      "anonymous": false,
      "inputs": [
        {
          "indexed": false,
          "internalType": "address",
          "name": "_addr",
          "type": "address"
        },
        {
          "indexed": false,
          "internalType": "uint256",
          "name": "_value",
          "type": "uint256"
        }
      ],
      "name": "Mint",
      "type": "event"
    },
    {
      "anonymous": false,
      "inputs": [
        {
          "indexed": true,
          "internalType": "address",
          "name": "previousGovernor",
          "type": "address"
        },
        {
          "indexed": true,
          "internalType": "address",
          "name": "newGovernor",
          "type": "address"
        }
      ],
      "name": "PendingGovernorshipTransfer",
      "type": "event"
    },
    {
      "anonymous": false,
      "inputs": [
        {
          "indexed": false,
          "internalType": "address",
          "name": "_priceProvider",
          "type": "address"
        }
      ],
      "name": "PriceProviderUpdated",
      "type": "event"
    },
    {
      "anonymous": false,
      "inputs": [],
      "name": "RebasePaused",
      "type": "event"
    },
    {
      "anonymous": false,
      "inputs": [
        {
          "indexed": false,
          "internalType": "uint256",
          "name": "_threshold",
          "type": "uint256"
        }
      ],
      "name": "RebaseThresholdUpdated",
      "type": "event"
    },
    {
      "anonymous": false,
      "inputs": [],
      "name": "RebaseUnpaused",
      "type": "event"
    },
    {
      "anonymous": false,
      "inputs": [
        {
          "indexed": false,
          "internalType": "address",
          "name": "_addr",
          "type": "address"
        },
        {
          "indexed": false,
          "internalType": "uint256",
          "name": "_value",
          "type": "uint256"
        }
      ],
      "name": "Redeem",
      "type": "event"
    },
    {
      "anonymous": false,
      "inputs": [
        {
          "indexed": false,
          "internalType": "uint256",
          "name": "_redeemFeeBps",
          "type": "uint256"
        }
      ],
      "name": "RedeemFeeUpdated",
      "type": "event"
    },
    {
      "anonymous": false,
      "inputs": [
        {
          "indexed": false,
          "internalType": "address",
          "name": "_address",
          "type": "address"
        }
      ],
      "name": "StrategistUpdated",
      "type": "event"
    },
    {
      "anonymous": false,
      "inputs": [
        {
          "indexed": false,
          "internalType": "address",
          "name": "_addr",
          "type": "address"
        }
      ],
      "name": "StrategyApproved",
      "type": "event"
    },
    {
      "anonymous": false,
      "inputs": [
        {
          "indexed": false,
          "internalType": "address",
          "name": "_addr",
          "type": "address"
        }
      ],
      "name": "StrategyRemoved",
      "type": "event"
    },
    {
      "anonymous": false,
      "inputs": [
        {
          "indexed": false,
          "internalType": "address",
          "name": "_address",
          "type": "address"
        }
      ],
      "name": "SwapTokenAdded",
      "type": "event"
    },
    {
      "anonymous": false,
      "inputs": [
        {
          "indexed": false,
          "internalType": "address",
          "name": "_address",
          "type": "address"
        }
      ],
      "name": "SwapTokenRemoved",
      "type": "event"
    },
    {
      "anonymous": false,
      "inputs": [
        {
          "indexed": false,
          "internalType": "address",
          "name": "_address",
          "type": "address"
        }
      ],
      "name": "TrusteeAddressChanged",
      "type": "event"
    },
    {
      "anonymous": false,
      "inputs": [
        {
          "indexed": false,
          "internalType": "uint256",
          "name": "_basis",
          "type": "uint256"
        }
      ],
      "name": "TrusteeFeeBpsChanged",
      "type": "event"
    },
    {
      "anonymous": false,
      "inputs": [
        {
          "indexed": false,
          "internalType": "address",
          "name": "_address",
          "type": "address"
        }
      ],
      "name": "UniswapUpdated",
      "type": "event"
    },
    {
      "anonymous": false,
      "inputs": [
        {
          "indexed": false,
          "internalType": "uint256",
          "name": "_vaultBuffer",
          "type": "uint256"
        }
      ],
      "name": "VaultBufferUpdated",
      "type": "event"
    },
    {
      "anonymous": false,
      "inputs": [
        {
          "indexed": false,
          "internalType": "address",
          "name": "_to",
          "type": "address"
        },
        {
          "indexed": false,
          "internalType": "uint256",
          "name": "_yield",
          "type": "uint256"
        },
        {
          "indexed": false,
          "internalType": "uint256",
          "name": "_fee",
          "type": "uint256"
        }
      ],
      "name": "YieldDistribution",
      "type": "event"
    },
    {
      "stateMutability": "payable",
      "type": "fallback"
    },
    {
      "inputs": [],
      "name": "allocate",
      "outputs": [],
      "stateMutability": "nonpayable",
      "type": "function"
    },
    {
      "inputs": [
        {
          "internalType": "address",
          "name": "",
          "type": "address"
        }
      ],
      "name": "assetDefaultStrategies",
      "outputs": [
        {
          "internalType": "address",
          "name": "",
          "type": "address"
        }
      ],
      "stateMutability": "view",
      "type": "function"
    },
    {
      "inputs": [],
      "name": "autoAllocateThreshold",
      "outputs": [
        {
          "internalType": "uint256",
          "name": "",
          "type": "uint256"
        }
      ],
      "stateMutability": "view",
      "type": "function"
    },
    {
      "inputs": [
        {
          "internalType": "uint256",
          "name": "_amount",
          "type": "uint256"
        }
      ],
      "name": "calculateRedeemOutputs",
      "outputs": [
        {
          "internalType": "uint256[]",
          "name": "",
          "type": "uint256[]"
        }
      ],
      "stateMutability": "view",
      "type": "function"
    },
    {
      "inputs": [],
      "name": "capitalPaused",
      "outputs": [
        {
          "internalType": "bool",
          "name": "",
          "type": "bool"
        }
      ],
      "stateMutability": "view",
      "type": "function"
    },
    {
      "inputs": [
        {
          "internalType": "address",
          "name": "_asset",
          "type": "address"
        }
      ],
      "name": "checkBalance",
      "outputs": [
        {
          "internalType": "uint256",
          "name": "",
          "type": "uint256"
        }
      ],
      "stateMutability": "view",
      "type": "function"
    },
    {
      "inputs": [],
      "name": "claimGovernance",
      "outputs": [],
      "stateMutability": "nonpayable",
      "type": "function"
    },
    {
      "inputs": [],
      "name": "getAllAssets",
      "outputs": [
        {
          "internalType": "address[]",
          "name": "",
          "type": "address[]"
        }
      ],
      "stateMutability": "view",
      "type": "function"
    },
    {
      "inputs": [],
      "name": "getAssetCount",
      "outputs": [
        {
          "internalType": "uint256",
          "name": "",
          "type": "uint256"
        }
      ],
      "stateMutability": "view",
      "type": "function"
    },
    {
      "inputs": [],
      "name": "getStrategyCount",
      "outputs": [
        {
          "internalType": "uint256",
          "name": "",
          "type": "uint256"
        }
      ],
      "stateMutability": "view",
      "type": "function"
    },
    {
      "inputs": [],
      "name": "governor",
      "outputs": [
        {
          "internalType": "address",
          "name": "",
          "type": "address"
        }
      ],
      "stateMutability": "view",
      "type": "function"
    },
    {
      "inputs": [],
      "name": "isGovernor",
      "outputs": [
        {
          "internalType": "bool",
          "name": "",
          "type": "bool"
        }
      ],
      "stateMutability": "view",
      "type": "function"
    },
    {
      "inputs": [
        {
          "internalType": "address",
          "name": "_asset",
          "type": "address"
        }
      ],
      "name": "isSupportedAsset",
      "outputs": [
        {
          "internalType": "bool",
          "name": "",
          "type": "bool"
        }
      ],
      "stateMutability": "view",
      "type": "function"
    },
    {
      "inputs": [],
      "name": "maxSupplyDiff",
      "outputs": [
        {
          "internalType": "uint256",
          "name": "",
          "type": "uint256"
        }
      ],
      "stateMutability": "view",
      "type": "function"
    },
    {
      "inputs": [
        {
          "internalType": "address",
          "name": "_asset",
          "type": "address"
        },
        {
          "internalType": "uint256",
          "name": "_amount",
          "type": "uint256"
        },
        {
          "internalType": "uint256",
          "name": "_minimumOusdAmount",
          "type": "uint256"
        }
      ],
      "name": "mint",
      "outputs": [],
      "stateMutability": "nonpayable",
      "type": "function"
    },
    {
      "inputs": [
        {
          "internalType": "address[]",
          "name": "_assets",
          "type": "address[]"
        },
        {
          "internalType": "uint256[]",
          "name": "_amounts",
          "type": "uint256[]"
        },
        {
          "internalType": "uint256",
          "name": "_minimumOusdAmount",
          "type": "uint256"
        }
      ],
      "name": "mintMultiple",
      "outputs": [],
      "stateMutability": "nonpayable",
      "type": "function"
    },
    {
      "inputs": [],
      "name": "priceProvider",
      "outputs": [
        {
          "internalType": "address",
          "name": "",
          "type": "address"
        }
      ],
      "stateMutability": "view",
      "type": "function"
    },
    {
      "inputs": [],
      "name": "rebase",
      "outputs": [],
      "stateMutability": "nonpayable",
      "type": "function"
    },
    {
      "inputs": [],
      "name": "rebasePaused",
      "outputs": [
        {
          "internalType": "bool",
          "name": "",
          "type": "bool"
        }
      ],
      "stateMutability": "view",
      "type": "function"
    },
    {
      "inputs": [],
      "name": "rebaseThreshold",
      "outputs": [
        {
          "internalType": "uint256",
          "name": "",
          "type": "uint256"
        }
      ],
      "stateMutability": "view",
      "type": "function"
    },
    {
      "inputs": [
        {
          "internalType": "uint256",
          "name": "_amount",
          "type": "uint256"
        },
        {
          "internalType": "uint256",
          "name": "_minimumUnitAmount",
          "type": "uint256"
        }
      ],
      "name": "redeem",
      "outputs": [],
      "stateMutability": "nonpayable",
      "type": "function"
    },
    {
      "inputs": [
        {
          "internalType": "uint256",
          "name": "_minimumUnitAmount",
          "type": "uint256"
        }
      ],
      "name": "redeemAll",
      "outputs": [],
      "stateMutability": "nonpayable",
      "type": "function"
    },
    {
      "inputs": [],
      "name": "redeemFeeBps",
      "outputs": [
        {
          "internalType": "uint256",
          "name": "",
          "type": "uint256"
        }
      ],
      "stateMutability": "view",
      "type": "function"
    },
    {
      "inputs": [
        {
          "internalType": "address",
          "name": "newImpl",
          "type": "address"
        }
      ],
      "name": "setAdminImpl",
      "outputs": [],
      "stateMutability": "nonpayable",
      "type": "function"
    },
    {
      "inputs": [],
      "name": "strategistAddr",
      "outputs": [
        {
          "internalType": "address",
          "name": "",
          "type": "address"
        }
      ],
      "stateMutability": "view",
      "type": "function"
    },
    {
      "inputs": [
        {
          "internalType": "uint256",
          "name": "",
          "type": "uint256"
        }
      ],
      "name": "swapTokens",
      "outputs": [
        {
          "internalType": "address",
          "name": "",
          "type": "address"
        }
      ],
      "stateMutability": "view",
      "type": "function"
    },
    {
      "inputs": [],
      "name": "totalValue",
      "outputs": [
        {
          "internalType": "uint256",
          "name": "value",
          "type": "uint256"
        }
      ],
      "stateMutability": "view",
      "type": "function"
    },
    {
      "inputs": [
        {
          "internalType": "address",
          "name": "_newGovernor",
          "type": "address"
        }
      ],
      "name": "transferGovernance",
      "outputs": [],
      "stateMutability": "nonpayable",
      "type": "function"
    },
    {
      "inputs": [],
      "name": "trusteeAddress",
      "outputs": [
        {
          "internalType": "address",
          "name": "",
          "type": "address"
        }
      ],
      "stateMutability": "view",
      "type": "function"
    },
    {
      "inputs": [],
      "name": "trusteeFeeBps",
      "outputs": [
        {
          "internalType": "uint256",
          "name": "",
          "type": "uint256"
        }
      ],
      "stateMutability": "view",
      "type": "function"
    },
    {
      "inputs": [],
      "name": "uniswapAddr",
      "outputs": [
        {
          "internalType": "address",
          "name": "",
          "type": "address"
        }
      ],
      "stateMutability": "view",
      "type": "function"
    },
    {
      "inputs": [],
      "name": "vaultBuffer",
      "outputs": [
        {
          "internalType": "uint256",
          "name": "",
          "type": "uint256"
        }
      ],
      "stateMutability": "view",
      "type": "function"
    }
  ],
  "transactionHash": "0x8842c934388832b6095b03ce434d9ebd388c5b2034fcb0f63ff908093bf8a1a6",
  "args": [],
  "solcInputHash": "b6193023c3a28756304ff066bec0ae10",
  "bytecode": "0x60806040526037805461ffff60a01b1916600160a81b179055603d80546001600160a01b0319908116909155603e805482169055603f805490911690553480156200004957600080fd5b5062000062336000805160206200376083398151915255565b60008051602062003760833981519152546040516001600160a01b03909116906000907fc7c0c772add429241571afb3805861fb3cfa2af374534088b76cdb4325a87e9a908290a36136a680620000ba6000396000f3fe6080604052600436106101e35760003560e01c80637cbc237311610102578063b888879e11610095578063e6cc543211610064578063e6cc543214610591578063f0efb4c7146105b2578063fc0cfeee146105d2578063fe784eaa146105f2576101e3565b8063b888879e14610527578063c7af335214610547578063d38bfff41461055c578063d4c3eea01461057c576101e3565b8063a0aead4d116100d1578063a0aead4d146104b2578063a403e4d5146104c7578063abaa9916146104fd578063af14052c14610512576101e3565b80637cbc23731461042d5780638e510b521461044d5780639be918e6146104635780639fa1826e1461049c576101e3565b806349c1d54d1161017a5780635d36b190116101495780635d36b190146103ab5780635f515226146103c057806367bd7ba3146103e05780637136a7a61461040d576101e3565b806349c1d54d1461032457806352d38e5d1461034457806353ca9f241461035a578063570d8e1d1461038b576101e3565b80631edfe3da116101b65780631edfe3da146102c1578063207134b0146102d75780632acada4d146102ed57806331e19cfa1461030f576101e3565b806309f6442c146102295780630c340a2414610252578063128a8b051461027f578063156e29f61461029f575b7fa2bd3d3cf188a41358c8b401076eb59066b09dec5775650c0de4c55187d17bd9366000803760008036600084545af43d6000803e808015610224573d6000f35b3d6000fd5b34801561023557600080fd5b5061023f60385481565b6040519081526020015b60405180910390f35b34801561025e57600080fd5b50610267610612565b6040516001600160a01b039091168152602001610249565b34801561028b57600080fd5b50603e54610267906001600160a01b031681565b3480156102ab57600080fd5b506102bf6102ba36600461319a565b61062f565b005b3480156102cd57600080fd5b5061023f60395481565b3480156102e357600080fd5b5061023f60435481565b3480156102f957600080fd5b50610302610945565b60405161024991906132f8565b34801561031b57600080fd5b5060365461023f565b34801561033057600080fd5b50604254610267906001600160a01b031681565b34801561035057600080fd5b5061023f603b5481565b34801561036657600080fd5b5060375461037b90600160a01b900460ff1681565b6040519015158152602001610249565b34801561039757600080fd5b50603f54610267906001600160a01b031681565b3480156103b757600080fd5b506102bf6109a7565b3480156103cc57600080fd5b5061023f6103db366004613160565b610a4d565b3480156103ec57600080fd5b506104006103fb366004613265565b610a5e565b6040516102499190613345565b34801561041957600080fd5b506102bf610428366004613265565b610a73565b34801561043957600080fd5b506102bf610448366004613297565b610b5e565b34801561045957600080fd5b5061023f60415481565b34801561046f57600080fd5b5061037b61047e366004613160565b6001600160a01b031660009081526033602052604090205460ff1690565b3480156104a857600080fd5b5061023f603a5481565b3480156104be57600080fd5b5060345461023f565b3480156104d357600080fd5b506102676104e2366004613160565b6040602081905260009182529020546001600160a01b031681565b34801561050957600080fd5b506102bf610bd1565b34801561051e57600080fd5b506102bf610c40565b34801561053357600080fd5b50603754610267906001600160a01b031681565b34801561055357600080fd5b5061037b610c7e565b34801561056857600080fd5b506102bf610577366004613160565b610caf565b34801561058857600080fd5b5061023f610d83565b34801561059d57600080fd5b5060375461037b90600160a81b900460ff1681565b3480156105be57600080fd5b506102bf6105cd3660046131cf565b610d8d565b3480156105de57600080fd5b506102bf6105ed366004613160565b611258565b3480156105fe57600080fd5b5061026761060d366004613265565b61132a565b600061062a6000805160206136518339815191525490565b905090565b603754600160a81b900460ff16156106625760405162461bcd60e51b8152600401610659906133e7565b60405180910390fd5b600080516020613631833981519152805460028114156106945760405162461bcd60e51b81526004016106599061340f565b600282556001600160a01b03851660009081526033602052604090205460ff166106f95760405162461bcd60e51b8152602060048201526016602482015275105cdcd95d081a5cc81b9bdd081cdd5c1c1bdc9d195960521b6044820152606401610659565b600084116107195760405162461bcd60e51b8152600401610659906133b0565b6037546040516315d5220f60e31b81526001600160a01b038781166004830152600092169063aea910789060240160206040518083038186803b15801561075f57600080fd5b505afa158015610773573d6000803e3d6000fd5b505050506040513d601f19601f82011682018060405250810190610797919061327e565b90506305f5e1008111156107ac57506305f5e1005b60006107b787611354565b905060006107c78760128461143d565b905060006107ee6107db856012600861143d565b6107e685600a6134b4565b8a91906114a1565b9050861561084657868110156108465760405162461bcd60e51b815260206004820152601e60248201527f4d696e7420616d6f756e74206c6f776572207468616e206d696e696d756d00006044820152606401610659565b60408051338152602081018390527f0f6798a560793a54c3bcfe86a93cde1e73087d944c0ea20544137d4121396885910160405180910390a1603b54821015801561089b5750603754600160a01b900460ff16155b156108a8576108a86114c3565b603c546040516340c10f1960e01b8152336004820152602481018390526001600160a01b03909116906340c10f1990604401600060405180830381600087803b1580156108f457600080fd5b505af1158015610908573d6000803e3d6000fd5b508b92506109249150506001600160a01b03821633308c6117fd565b603a5483106109355761093561186e565b5050505050600182555050505050565b6060603480548060200260200160405190810160405280929190818152602001828054801561099d57602002820191906000526020600020905b81546001600160a01b0316815260019091019060200180831161097f575b5050505050905090565b7f44c4d30b2eaad5130ad70c3ba6972730566f3e6359ab83e800d905c61b1c51db546001600160a01b0316336001600160a01b031614610a425760405162461bcd60e51b815260206004820152603060248201527f4f6e6c79207468652070656e64696e6720476f7665726e6f722063616e20636f60448201526f6d706c6574652074686520636c61696d60801b6064820152608401610659565b610a4b33611e71565b565b6000610a5882611f35565b92915050565b60606000610a6b83612105565b509392505050565b603754600160a81b900460ff1615610a9d5760405162461bcd60e51b8152600401610659906133e7565b60008051602061363183398151915280546002811415610acf5760405162461bcd60e51b81526004016106599061340f565b60028255603c546040516370a0823160e01b8152336004820152610b56916001600160a01b0316906370a082319060240160206040518083038186803b158015610b1857600080fd5b505afa158015610b2c573d6000803e3d6000fd5b505050506040513d601f19601f82011682018060405250810190610b50919061327e565b8461243a565b506001905550565b603754600160a81b900460ff1615610b885760405162461bcd60e51b8152600401610659906133e7565b60008051602061363183398151915280546002811415610bba5760405162461bcd60e51b81526004016106599061340f565b60028255610bc8848461243a565b50600190555050565b603754600160a81b900460ff1615610bfb5760405162461bcd60e51b8152600401610659906133e7565b60008051602061363183398151915280546002811415610c2d5760405162461bcd60e51b81526004016106599061340f565b60028255610c3961186e565b5060019055565b60008051602061363183398151915280546002811415610c725760405162461bcd60e51b81526004016106599061340f565b60028255610c396114c3565b6000610c966000805160206136518339815191525490565b6001600160a01b0316336001600160a01b031614905090565b610cb7610c7e565b610d035760405162461bcd60e51b815260206004820152601a60248201527f43616c6c6572206973206e6f742074686520476f7665726e6f720000000000006044820152606401610659565b610d2b817f44c4d30b2eaad5130ad70c3ba6972730566f3e6359ab83e800d905c61b1c51db55565b806001600160a01b0316610d4b6000805160206136518339815191525490565b6001600160a01b03167fa39cc5eb22d0f34d8beaefee8a3f17cc229c1a1d1ef87a5ad47313487b1c4f0d60405160405180910390a350565b600061062a6129b9565b603754600160a81b900460ff1615610db75760405162461bcd60e51b8152600401610659906133e7565b60008051602061363183398151915280546002811415610de95760405162461bcd60e51b81526004016106599061340f565b60028255858414610e3c5760405162461bcd60e51b815260206004820152601960248201527f506172616d65746572206c656e677468206d69736d61746368000000000000006044820152606401610659565b6000806000610e496129d4565b905060005b8981101561109857603360008c8c84818110610e6c57610e6c6135ef565b9050602002016020810190610e819190613160565b6001600160a01b0316815260208101919091526040016000205460ff16610ee35760405162461bcd60e51b8152602060048201526016602482015275105cdcd95d081a5cc81b9bdd081cdd5c1c1bdc9d195960521b6044820152606401610659565b6000898983818110610ef757610ef76135ef565b9050602002013511610f1b5760405162461bcd60e51b8152600401610659906133b0565b60005b6034548110156110855760348181548110610f3b57610f3b6135ef565b6000918252602090912001546001600160a01b03168c8c84818110610f6257610f626135ef565b9050602002016020810190610f779190613160565b6001600160a01b03161415611073576000610fb860348381548110610f9e57610f9e6135ef565b6000918252602090912001546001600160a01b0316611354565b90506000848381518110610fce57610fce6135ef565b60200260200101519050670de0b6b3a7640000811115610ff35750670de0b6b3a76400005b61102b6110246012848f8f8981811061100e5761100e6135ef565b9050602002013561143d9092919063ffffffff16565b8890612b24565b965061106e6110678261103f85600a6134b4565b8f8f89818110611051576110516135ef565b905060200201356114a19092919063ffffffff16565b8790612b24565b955050505b8061107d816135be565b915050610f1e565b5080611090816135be565b915050610e4e565b5085156110ef57858210156110ef5760405162461bcd60e51b815260206004820152601e60248201527f4d696e7420616d6f756e74206c6f776572207468616e206d696e696d756d00006044820152606401610659565b60408051338152602081018490527f0f6798a560793a54c3bcfe86a93cde1e73087d944c0ea20544137d4121396885910160405180910390a1603b5483101580156111445750603754600160a01b900460ff16155b15611151576111516114c3565b603c546040516340c10f1960e01b8152336004820152602481018490526001600160a01b03909116906340c10f1990604401600060405180830381600087803b15801561119d57600080fd5b505af11580156111b1573d6000803e3d6000fd5b5050505060005b898110156112365760008b8b838181106111d4576111d46135ef565b90506020020160208101906111e99190613160565b905061122333308c8c86818110611202576112026135ef565b90506020020135846001600160a01b03166117fd909392919063ffffffff16565b508061122e816135be565b9150506111b8565b50603a5483106112485761124861186e565b5050506001825550505050505050565b611260610c7e565b6112ac5760405162461bcd60e51b815260206004820152601a60248201527f43616c6c6572206973206e6f742074686520476f7665726e6f720000000000006044820152606401610659565b803b6113065760405162461bcd60e51b8152602060048201526024808201527f6e657720696d706c656d656e746174696f6e206973206e6f74206120636f6e746044820152631c9858dd60e21b6064820152608401610659565b7fa2bd3d3cf188a41358c8b401076eb59066b09dec5775650c0de4c55187d17bd955565b6044818154811061133a57600080fd5b6000918252602090912001546001600160a01b0316905081565b600080826001600160a01b031663313ce5676040518163ffffffff1660e01b815260040160206040518083038186803b15801561139057600080fd5b505afa1580156113a4573d6000803e3d6000fd5b505050506040513d601f19601f820116820180604052508101906113c891906132b9565b60ff169050600481101580156113df575060128111155b610a585760405162461bcd60e51b815260206004820152602960248201527f546f6b656e206d75737420686176652073756666696369656e7420646563696d604482015268616c20706c6163657360b81b6064820152608401610659565b60008183111561146d57611466611454838561357b565b61145f90600a6134b4565b8590612b30565b9350611497565b8183101561149757611494611482848461357b565b61148d90600a6134b4565b8590612b3c565b93505b50825b9392505050565b6000806114ae8585612b30565b90506114ba8184612b3c565b95945050505050565b603754600160a01b900460ff161561150f5760405162461bcd60e51b815260206004820152600f60248201526e149958985cda5b99c81c185d5cd959608a1b6044820152606401610659565b603c54604080516318160ddd60e01b815290516000926001600160a01b0316916318160ddd916004808301926020929190829003018186803b15801561155457600080fd5b505afa158015611568573d6000803e3d6000fd5b505050506040513d601f19601f8201168201806040525081019061158c919061327e565b9050806115965750565b60006115a06129b9565b6042549091506001600160a01b031680158015906115bd57508282115b156117095760006115ce8385612b48565b905060006115f36127106115ed60435485612b3090919063ffffffff16565b90612b3c565b905080821161164f5760405162461bcd60e51b815260206004820152602260248201527f466565206d757374206e6f742062652067726561746572207468616e207969656044820152611b1960f21b6064820152608401610659565b80156116bc57603c546040516340c10f1960e01b81526001600160a01b03858116600483015260248201849052909116906340c10f1990604401600060405180830381600087803b1580156116a357600080fd5b505af11580156116b7573d6000803e3d6000fd5b505050505b604080516001600160a01b0385168152602081018490529081018290527f09516ecf4a8a86e59780a9befc6dee948bc9e60a36e3be68d31ea817ee8d2c809060600160405180910390a150505b603c60009054906101000a90046001600160a01b03166001600160a01b03166318160ddd6040518163ffffffff1660e01b815260040160206040518083038186803b15801561175757600080fd5b505afa15801561176b573d6000803e3d6000fd5b505050506040513d601f19601f8201168201806040525081019061178f919061327e565b9250828211156117f857603c546040516339a7919f60e01b8152600481018490526001600160a01b03909116906339a7919f90602401600060405180830381600087803b1580156117df57600080fd5b505af11580156117f3573d6000803e3d6000fd5b505050505b505050565b6040516001600160a01b03808516602483015283166044820152606481018290526118689085906323b872dd60e01b906084015b60408051601f198184030181529190526020810180516001600160e01b03166001600160e01b031990931692909217909152612b54565b50505050565b60005b603654811015611b8357600060368281548110611890576118906135ef565b60009182526020808320909101546040805163125f9e3360e01b815290516001600160a01b039092169450849263125f9e3392600480840193829003018186803b1580156118dd57600080fd5b505afa1580156118f1573d6000803e3d6000fd5b505050506040513d601f19601f82011682018060405250810190611915919061317d565b90506001600160a01b03811615611b6e576000826001600160a01b0316635653b4146040518163ffffffff1660e01b815260040160206040518083038186803b15801561196157600080fd5b505afa158015611975573d6000803e3d6000fd5b505050506040513d601f19601f82011682018060405250810190611999919061327e565b905080611a2c57306001600160a01b031663548f5ae5603686815481106119c2576119c26135ef565b60009182526020909120015460405160e083901b6001600160e01b03191681526001600160a01b039091166004820152602401600060405180830381600087803b158015611a0f57600080fd5b505af1158015611a23573d6000803e3d6000fd5b50505050611b6c565b60008290506000816001600160a01b03166370a0823160368881548110611a5557611a556135ef565b60009182526020909120015460405160e083901b6001600160e01b03191681526001600160a01b03909116600482015260240160206040518083038186803b158015611aa057600080fd5b505afa158015611ab4573d6000803e3d6000fd5b505050506040513d601f19601f82011682018060405250810190611ad8919061327e565b9050828110611b6957306001600160a01b031663548f5ae560368881548110611b0357611b036135ef565b60009182526020909120015460405160e083901b6001600160e01b03191681526001600160a01b039091166004820152602401600060405180830381600087803b158015611b5057600080fd5b505af1158015611b64573d6000803e3d6000fd5b505050505b50505b505b50508080611b7b906135be565b915050611871565b506000611b8e612c26565b905080611b985750565b6000611ba2612d31565b90506000611bb08383612b24565b9050600082611bd657603954611bcf90670de0b6b3a764000090612b48565b9050611c13565b611bef846115ed84603954612b3090919063ffffffff16565b905080670de0b6b3a7640000111561186857611bcf670de0b6b3a764000082612b48565b80611c1e5750505050565b60005b603454811015611dee57600060348281548110611c4057611c406135ef565b60009182526020822001546040516370a0823160e01b81523060048201526001600160a01b03909116925082906370a082319060240160206040518083038186803b158015611c8e57600080fd5b505afa158015611ca2573d6000803e3d6000fd5b505050506040513d601f19601f82011682018060405250810190611cc6919061327e565b905080611cd4575050611ddc565b6000611ce08286612d8d565b6001600160a01b03808516600090815260406020819052902054919250168015801590611d0d5750600082115b15611dd75780611d276001600160a01b0386168285612da2565b6040516311f9fbc960e21b81526001600160a01b038681166004830152602482018590528216906347e7ef2490604401600060405180830381600087803b158015611d7157600080fd5b505af1158015611d85573d6000803e3d6000fd5b5050604080516001600160a01b03808a168252861660208201529081018690527f41b99659f6ba0803f444aff29e5bf6e26dd86a3219aff92119d69710a956ba8d9250606001905060405180910390a1505b505050505b80611de6816135be565b915050611c21565b506042546001600160a01b03168015611e6a57604260009054906101000a90046001600160a01b03166001600160a01b0316638119c0656040518163ffffffff1660e01b8152600401600060405180830381600087803b158015611e5157600080fd5b505af1158015611e65573d6000803e3d6000fd5b505050505b5050505050565b6001600160a01b038116611ec75760405162461bcd60e51b815260206004820152601a60248201527f4e657720476f7665726e6f7220697320616464726573732830290000000000006044820152606401610659565b806001600160a01b0316611ee76000805160206136518339815191525490565b6001600160a01b03167fc7c0c772add429241571afb3805861fb3cfa2af374534088b76cdb4325a87e9a60405160405180910390a3611f328160008051602061365183398151915255565b50565b6040516370a0823160e01b815230600482015260009082906001600160a01b038216906370a082319060240160206040518083038186803b158015611f7957600080fd5b505afa158015611f8d573d6000803e3d6000fd5b505050506040513d601f19601f82011682018060405250810190611fb1919061327e565b915060005b6036548110156120fe57600060368281548110611fd557611fd56135ef565b60009182526020909120015460405163551c457b60e11b81526001600160a01b0387811660048301529091169150819063aa388af69060240160206040518083038186803b15801561202657600080fd5b505afa15801561203a573d6000803e3d6000fd5b505050506040513d601f19601f8201168201806040525081019061205e9190613243565b156120eb57604051632fa8a91360e11b81526001600160a01b0386811660048301526120e89190831690635f5152269060240160206040518083038186803b1580156120a957600080fd5b505afa1580156120bd573d6000803e3d6000fd5b505050506040513d601f19601f820116820180604052508101906120e1919061327e565b8590612b24565b93505b50806120f6816135be565b915050611fb6565b5050919050565b606060008061211360345490565b9050600061211f6129d4565b905060008267ffffffffffffffff81111561213c5761213c613605565b604051908082528060200260200182016040528015612165578160200160208202803683370190505b50905060008367ffffffffffffffff81111561218357612183613605565b6040519080825280602002602001820160405280156121ac578160200160208202803683370190505b50905060008467ffffffffffffffff8111156121ca576121ca613605565b6040519080825280602002602001820160405280156121f3578160200160208202803683370190505b506038549097501561222c57600061221c6127106115ed6038548c612b3090919063ffffffff16565b90506122288982612b48565b9850505b60005b6034548110156122f157600061226b60348381548110612251576122516135ef565b6000918252602090912001546001600160a01b0316611f35565b9050600061228560348481548110610f9e57610f9e6135ef565b90508186848151811061229a5761229a6135ef565b602002602001018181525050808584815181106122b9576122b96135ef565b60209081029190910101526122da6122d38360128461143d565b8a90612b24565b9850505080806122e9906135be565b91505061222f565b5060005b6034548110156123b3576000858281518110612313576123136135ef565b60200260200101519050670de0b6b3a76400008110156123385750670de0b6b3a76400005b6000612390896115ed8461238a60128a8981518110612359576123596135ef565b60200260200101518c8a81518110612373576123736135ef565b602002602001015161143d9092919063ffffffff16565b90612b30565b905061239c8482612b24565b9350505080806123ab906135be565b9150506122f5565b5060006123c08983612dd2565b905060005b60345481101561242e576123ff886115ed848885815181106123e9576123e96135ef565b6020026020010151612b3090919063ffffffff16565b898281518110612411576124116135ef565b602090810291909101015280612426816135be565b9150506123c5565b50505050505050915091565b6000821161245a5760405162461bcd60e51b8152600401610659906133b0565b60008061246684612105565b915091506000603c60009054906101000a90046001600160a01b03166001600160a01b03166318160ddd6040518163ffffffff1660e01b815260040160206040518083038186803b1580156124ba57600080fd5b505afa1580156124ce573d6000803e3d6000fd5b505050506040513d601f19601f820116820180604052508101906124f2919061327e565b604154909150156125965760006125098284612dd2565b9050604154670de0b6b3a764000082116125345761252f670de0b6b3a764000083612b48565b612546565b61254682670de0b6b3a7640000612b48565b11156125945760405162461bcd60e51b815260206004820152601e60248201527f4261636b696e6720737570706c79206c6971756964697479206572726f7200006044820152606401610659565b505b60408051338152602081018790527f222838db2794d11532d940e8dec38ae307ed0b63cd97c233322e221f998767a6910160405180910390a160005b603454811015612874578381815181106125ee576125ee6135ef565b60200260200101516000141561260357612862565b600060348281548110612618576126186135ef565b60009182526020909120015485516001600160a01b039091169150859083908110612645576126456135ef565b60209081029190910101516040516370a0823160e01b81523060048201526001600160a01b038316906370a082319060240160206040518083038186803b15801561268f57600080fd5b505afa1580156126a3573d6000803e3d6000fd5b505050506040513d601f19601f820116820180604052508101906126c7919061327e565b1061270857612703338684815181106126e2576126e26135ef565b6020026020010151836001600160a01b0316612da29092919063ffffffff16565b612860565b60006040600060348581548110612721576127216135ef565b60009182526020808320909101546001600160a01b0390811684529083019390935260409091019020541690508015612824576000819050806001600160a01b031663d9caed12336034878154811061277c5761277c6135ef565b9060005260206000200160009054906101000a90046001600160a01b03168a88815181106127ac576127ac6135ef565b60209081029190910101516040516001600160e01b031960e086901b1681526001600160a01b0393841660048201529290911660248301526044820152606401600060405180830381600087803b15801561280657600080fd5b505af115801561281a573d6000803e3d6000fd5b505050505061285e565b60405162461bcd60e51b815260206004820152600f60248201526e2634b8bab4b234ba3c9032b93937b960891b6044820152606401610659565b505b505b8061286c816135be565b9150506125d2565b50831561292d576000805b84518110156128da5760006128a060348381548110610f9e57610f9e6135ef565b90506128c46128bd601283898681518110612373576123736135ef565b8490612b24565b92505080806128d2906135be565b91505061287f565b508481101561292b5760405162461bcd60e51b815260206004820181905260248201527f52656465656d20616d6f756e74206c6f776572207468616e206d696e696d756d6044820152606401610659565b505b603c54604051632770a7eb60e21b8152336004820152602481018790526001600160a01b0390911690639dc29fac90604401600060405180830381600087803b15801561297957600080fd5b505af115801561298d573d6000803e3d6000fd5b50505050603b54851180156129ac5750603754600160a01b900460ff16155b15611e6a57611e6a6114c3565b600061062a6129c6612d31565b6129ce612c26565b90612b24565b60606129df60345490565b67ffffffffffffffff8111156129f7576129f7613605565b604051908082528060200260200182016040528015612a20578160200160208202803683370190505b506037549091506001600160a01b031660005b603454811015612b1f57612af060126008846001600160a01b031663aea9107860348681548110612a6657612a666135ef565b60009182526020909120015460405160e083901b6001600160e01b03191681526001600160a01b03909116600482015260240160206040518083038186803b158015612ab157600080fd5b505afa158015612ac5573d6000803e3d6000fd5b505050506040513d601f19601f82011682018060405250810190612ae9919061327e565b919061143d565b838281518110612b0257612b026135ef565b602090810291909101015280612b17816135be565b915050612a33565b505090565b600061149a8284613437565b600061149a828461355c565b600061149a828461344f565b600061149a828461357b565b6000612ba9826040518060400160405280602081526020017f5361666545524332303a206c6f772d6c6576656c2063616c6c206661696c6564815250856001600160a01b0316612dfb9092919063ffffffff16565b8051909150156117f85780806020019051810190612bc79190613243565b6117f85760405162461bcd60e51b815260206004820152602a60248201527f5361666545524332303a204552433230206f7065726174696f6e20646964206e6044820152691bdd081cdd58d8d9595960b21b6064820152608401610659565b6000805b603454811015612d2d57600060348281548110612c4957612c496135ef565b6000918252602082200154603480546001600160a01b039092169350612c799185908110610f9e57610f9e6135ef565b6040516370a0823160e01b81523060048201529091506000906001600160a01b038416906370a082319060240160206040518083038186803b158015612cbe57600080fd5b505afa158015612cd2573d6000803e3d6000fd5b505050506040513d601f19601f82011682018060405250810190612cf6919061327e565b90508015612d1757612d14612d0d8260128561143d565b8690612b24565b94505b5050508080612d25906135be565b915050612c2a565b5090565b6000805b603654811015612d2d57612d79612d7260368381548110612d5857612d586135ef565b6000918252602090912001546001600160a01b0316612e0a565b8390612b24565b915080612d85816135be565b915050612d35565b600061149a8383670de0b6b3a76400006114a1565b6040516001600160a01b0383166024820152604481018290526117f890849063a9059cbb60e01b90606401611831565b600080612de784670de0b6b3a7640000612b30565b9050612df38184612b3c565b949350505050565b6060612df38484600085612fb3565b600081815b6034548110156120fe576000612e3160348381548110610f9e57610f9e6135ef565b9050826001600160a01b031663aa388af660348481548110612e5557612e556135ef565b60009182526020909120015460405160e083901b6001600160e01b03191681526001600160a01b03909116600482015260240160206040518083038186803b158015612ea057600080fd5b505afa158015612eb4573d6000803e3d6000fd5b505050506040513d601f19601f82011682018060405250810190612ed89190613243565b15612fa0576000836001600160a01b0316635f51522660348581548110612f0157612f016135ef565b60009182526020909120015460405160e083901b6001600160e01b03191681526001600160a01b03909116600482015260240160206040518083038186803b158015612f4c57600080fd5b505afa158015612f60573d6000803e3d6000fd5b505050506040513d601f19601f82011682018060405250810190612f84919061327e565b90508015612f9e57612f9b612d0d8260128561143d565b94505b505b5080612fab816135be565b915050612e0f565b6060824710156130145760405162461bcd60e51b815260206004820152602660248201527f416464726573733a20696e73756666696369656e742062616c616e636520666f6044820152651c8818d85b1b60d21b6064820152608401610659565b843b6130625760405162461bcd60e51b815260206004820152601d60248201527f416464726573733a2063616c6c20746f206e6f6e2d636f6e74726163740000006044820152606401610659565b600080866001600160a01b0316858760405161307e91906132dc565b60006040518083038185875af1925050503d80600081146130bb576040519150601f19603f3d011682016040523d82523d6000602084013e6130c0565b606091505b50915091506130d08282866130db565b979650505050505050565b606083156130ea57508161149a565b8251156130fa5782518084602001fd5b8160405162461bcd60e51b8152600401610659919061337d565b60008083601f84011261312657600080fd5b50813567ffffffffffffffff81111561313e57600080fd5b6020830191508360208260051b850101111561315957600080fd5b9250929050565b60006020828403121561317257600080fd5b813561149a8161361b565b60006020828403121561318f57600080fd5b815161149a8161361b565b6000806000606084860312156131af57600080fd5b83356131ba8161361b565b95602085013595506040909401359392505050565b6000806000806000606086880312156131e757600080fd5b853567ffffffffffffffff808211156131ff57600080fd5b61320b89838a01613114565b9097509550602088013591508082111561322457600080fd5b5061323188828901613114565b96999598509660400135949350505050565b60006020828403121561325557600080fd5b8151801515811461149a57600080fd5b60006020828403121561327757600080fd5b5035919050565b60006020828403121561329057600080fd5b5051919050565b600080604083850312156132aa57600080fd5b50508035926020909101359150565b6000602082840312156132cb57600080fd5b815160ff8116811461149a57600080fd5b600082516132ee818460208701613592565b9190910192915050565b6020808252825182820181905260009190848201906040850190845b818110156133395783516001600160a01b031683529284019291840191600101613314565b50909695505050505050565b6020808252825182820181905260009190848201906040850190845b8181101561333957835183529284019291840191600101613361565b602081526000825180602084015261339c816040850160208701613592565b601f01601f19169190910160400192915050565b6020808252601d908201527f416d6f756e74206d7573742062652067726561746572207468616e2030000000604082015260600190565b6020808252600e908201526d10d85c1a5d185b081c185d5cd95960921b604082015260600190565b6020808252600e908201526d1499595b9d1c985b9d0818d85b1b60921b604082015260600190565b6000821982111561344a5761344a6135d9565b500190565b60008261346c57634e487b7160e01b600052601260045260246000fd5b500490565b600181815b808511156134ac578160001904821115613492576134926135d9565b8085161561349f57918102915b93841c9390800290613476565b509250929050565b600061149a83836000826134ca57506001610a58565b816134d757506000610a58565b81600181146134ed57600281146134f757613513565b6001915050610a58565b60ff841115613508576135086135d9565b50506001821b610a58565b5060208310610133831016604e8410600b8410161715613536575081810a610a58565b6135408383613471565b8060001904821115613554576135546135d9565b029392505050565b6000816000190483118215151615613576576135766135d9565b500290565b60008282101561358d5761358d6135d9565b500390565b60005b838110156135ad578181015183820152602001613595565b838111156118685750506000910152565b60006000198214156135d2576135d26135d9565b5060010190565b634e487b7160e01b600052601160045260246000fd5b634e487b7160e01b600052603260045260246000fd5b634e487b7160e01b600052604160045260246000fd5b6001600160a01b0381168114611f3257600080fdfe53bf423e48ed90e97d02ab0ebab13b2a235a6bfbe9c321847d5c175333ac45357bea13895fa79d2831e0a9e28edede30099005a50d652d8957cf8a607ee6ca4aa2646970667358221220ee1328850c83d545572a07a1bf35bd163432b3865eb96bacd2153e0a7a5ac31364736f6c634300080700337bea13895fa79d2831e0a9e28edede30099005a50d652d8957cf8a607ee6ca4a",
  "devdoc": {
    "kind": "dev",
    "methods": {
      "allocate()": {
        "details": "Allocate unallocated funds on Vault to strategies.*"
      },
      "checkBalance(address)": {
        "params": {
          "_asset": "Address of asset"
        },
        "returns": {
          "_0": "uint256 Balance of asset in decimals of asset"
        }
      },
      "claimGovernance()": {
        "details": "Claim Governance of the contract to a new account (`newGovernor`). Can only be called by the new Governor."
      },
      "getAllAssets()": {
        "details": "Return all asset addresses in order"
      },
      "getAssetCount()": {
        "details": "Return the number of assets supported by the Vault."
      },
      "getStrategyCount()": {
        "details": "Return the number of strategies active on the Vault."
      },
      "governor()": {
        "details": "Returns the address of the current Governor."
      },
      "isGovernor()": {
        "details": "Returns true if the caller is the current Governor."
      },
      "mint(address,uint256,uint256)": {
        "details": "Deposit a supported asset and mint OUSD.",
        "params": {
          "_amount": "Amount of the asset being deposited",
          "_asset": "Address of the asset being deposited",
          "_minimumOusdAmount": "Minimum OUSD to mint"
        }
      },
      "mintMultiple(address[],uint256[],uint256)": {
        "details": "Mint for multiple assets in the same call.",
        "params": {
          "_amounts": "Amount of each asset at the same index in the _assets                 to deposit.",
          "_assets": "Addresses of assets being deposited",
          "_minimumOusdAmount": "Minimum OUSD to mint"
        }
      },
      "rebase()": {
        "details": "Calculate the total value of assets held by the Vault and all      strategies and update the supply of OUSD."
      },
      "redeem(uint256,uint256)": {
        "details": "Withdraw a supported asset and burn OUSD.",
        "params": {
          "_amount": "Amount of OUSD to burn",
          "_minimumUnitAmount": "Minimum stablecoin units to receive in return"
        }
      },
      "redeemAll(uint256)": {
        "params": {
          "_minimumUnitAmount": "Minimum stablecoin units to receive in return"
        }
      },
      "setAdminImpl(address)": {
        "details": "set the implementation for the admin, this needs to be in a base class else we cannot set it",
        "params": {
          "newImpl": "address of the implementation"
        }
      },
      "totalValue()": {
        "details": "Determine the total value of assets held by the vault and its         strategies.",
        "returns": {
          "value": "Total value in USD (1e18)"
        }
      },
      "transferGovernance(address)": {
        "details": "Transfers Governance of the contract to a new account (`newGovernor`). Can only be called by the current Governor. Must be claimed for this to complete",
        "params": {
          "_newGovernor": "Address of the new Governor"
        }
      }
    },
    "version": 1
  },
  "userdoc": {
    "kind": "user",
    "methods": {
      "allocate()": {
        "notice": "Allocate unallocated funds on Vault to strategies."
      },
      "calculateRedeemOutputs(uint256)": {
        "notice": "Calculate the outputs for a redeem function, i.e. the mix of coins that will be returned"
      },
      "checkBalance(address)": {
        "notice": "Get the balance of an asset held in Vault and all strategies."
      },
      "redeemAll(uint256)": {
        "notice": "Withdraw a supported asset and burn all OUSD."
      }
    },
    "version": 1
  },
  "storageLayout": {
    "storage": [
      {
        "astId": 16815,
        "contract": "contracts/vault/VaultCore.sol:VaultCore",
        "label": "initialized",
        "offset": 0,
        "slot": "0",
        "type": "t_bool"
      },
      {
        "astId": 16818,
        "contract": "contracts/vault/VaultCore.sol:VaultCore",
        "label": "initializing",
        "offset": 1,
        "slot": "0",
        "type": "t_bool"
      },
      {
        "astId": 16858,
        "contract": "contracts/vault/VaultCore.sol:VaultCore",
        "label": "______gap",
        "offset": 0,
        "slot": "1",
        "type": "t_array(t_uint256)50_storage"
      },
      {
        "astId": 20916,
        "contract": "contracts/vault/VaultCore.sol:VaultCore",
        "label": "assets",
        "offset": 0,
        "slot": "51",
        "type": "t_mapping(t_address,t_struct(Asset)20911_storage)"
      },
      {
        "astId": 20919,
        "contract": "contracts/vault/VaultCore.sol:VaultCore",
        "label": "allAssets",
        "offset": 0,
        "slot": "52",
        "type": "t_array(t_address)dyn_storage"
      },
      {
        "astId": 20929,
        "contract": "contracts/vault/VaultCore.sol:VaultCore",
        "label": "strategies",
        "offset": 0,
        "slot": "53",
        "type": "t_mapping(t_address,t_struct(Strategy)20924_storage)"
      },
      {
        "astId": 20932,
        "contract": "contracts/vault/VaultCore.sol:VaultCore",
        "label": "allStrategies",
        "offset": 0,
        "slot": "54",
        "type": "t_array(t_address)dyn_storage"
      },
      {
        "astId": 20934,
        "contract": "contracts/vault/VaultCore.sol:VaultCore",
        "label": "priceProvider",
        "offset": 0,
        "slot": "55",
        "type": "t_address"
      },
      {
        "astId": 20937,
        "contract": "contracts/vault/VaultCore.sol:VaultCore",
        "label": "rebasePaused",
        "offset": 20,
        "slot": "55",
        "type": "t_bool"
      },
      {
        "astId": 20940,
        "contract": "contracts/vault/VaultCore.sol:VaultCore",
        "label": "capitalPaused",
        "offset": 21,
        "slot": "55",
        "type": "t_bool"
      },
      {
        "astId": 20942,
        "contract": "contracts/vault/VaultCore.sol:VaultCore",
        "label": "redeemFeeBps",
        "offset": 0,
        "slot": "56",
        "type": "t_uint256"
      },
      {
        "astId": 20944,
        "contract": "contracts/vault/VaultCore.sol:VaultCore",
        "label": "vaultBuffer",
        "offset": 0,
        "slot": "57",
        "type": "t_uint256"
      },
      {
        "astId": 20946,
        "contract": "contracts/vault/VaultCore.sol:VaultCore",
        "label": "autoAllocateThreshold",
        "offset": 0,
        "slot": "58",
        "type": "t_uint256"
      },
      {
        "astId": 20948,
        "contract": "contracts/vault/VaultCore.sol:VaultCore",
        "label": "rebaseThreshold",
        "offset": 0,
        "slot": "59",
        "type": "t_uint256"
      },
      {
        "astId": 20951,
        "contract": "contracts/vault/VaultCore.sol:VaultCore",
        "label": "oUSD",
        "offset": 0,
        "slot": "60",
        "type": "t_contract(OUSD)16756"
      },
      {
        "astId": 20960,
        "contract": "contracts/vault/VaultCore.sol:VaultCore",
        "label": "_deprecated_rebaseHooksAddr",
        "offset": 0,
        "slot": "61",
        "type": "t_address"
      },
      {
        "astId": 20966,
        "contract": "contracts/vault/VaultCore.sol:VaultCore",
        "label": "uniswapAddr",
        "offset": 0,
        "slot": "62",
        "type": "t_address"
      },
      {
        "astId": 20972,
        "contract": "contracts/vault/VaultCore.sol:VaultCore",
        "label": "strategistAddr",
        "offset": 0,
        "slot": "63",
        "type": "t_address"
      },
      {
        "astId": 20976,
        "contract": "contracts/vault/VaultCore.sol:VaultCore",
        "label": "assetDefaultStrategies",
        "offset": 0,
        "slot": "64",
        "type": "t_mapping(t_address,t_address)"
      },
      {
        "astId": 20978,
        "contract": "contracts/vault/VaultCore.sol:VaultCore",
        "label": "maxSupplyDiff",
        "offset": 0,
        "slot": "65",
        "type": "t_uint256"
      },
      {
        "astId": 20980,
        "contract": "contracts/vault/VaultCore.sol:VaultCore",
        "label": "trusteeAddress",
        "offset": 0,
        "slot": "66",
        "type": "t_address"
      },
      {
        "astId": 20982,
        "contract": "contracts/vault/VaultCore.sol:VaultCore",
        "label": "trusteeFeeBps",
        "offset": 0,
        "slot": "67",
        "type": "t_uint256"
      },
      {
        "astId": 20985,
        "contract": "contracts/vault/VaultCore.sol:VaultCore",
        "label": "swapTokens",
        "offset": 0,
        "slot": "68",
        "type": "t_array(t_address)dyn_storage"
      }
    ],
    "types": {
      "t_address": {
        "encoding": "inplace",
        "label": "address",
        "numberOfBytes": "20"
      },
      "t_array(t_address)dyn_storage": {
        "base": "t_address",
        "encoding": "dynamic_array",
        "label": "address[]",
        "numberOfBytes": "32"
      },
      "t_array(t_uint256)50_storage": {
        "base": "t_uint256",
        "encoding": "inplace",
        "label": "uint256[50]",
        "numberOfBytes": "1600"
      },
      "t_bool": {
        "encoding": "inplace",
        "label": "bool",
        "numberOfBytes": "1"
      },
      "t_contract(OUSD)16756": {
        "encoding": "inplace",
        "label": "contract OUSD",
        "numberOfBytes": "20"
      },
      "t_mapping(t_address,t_address)": {
        "encoding": "mapping",
        "key": "t_address",
        "label": "mapping(address => address)",
        "numberOfBytes": "32",
        "value": "t_address"
      },
      "t_mapping(t_address,t_struct(Asset)20911_storage)": {
        "encoding": "mapping",
        "key": "t_address",
        "label": "mapping(address => struct VaultStorage.Asset)",
        "numberOfBytes": "32",
        "value": "t_struct(Asset)20911_storage"
      },
      "t_mapping(t_address,t_struct(Strategy)20924_storage)": {
        "encoding": "mapping",
        "key": "t_address",
        "label": "mapping(address => struct VaultStorage.Strategy)",
        "numberOfBytes": "32",
        "value": "t_struct(Strategy)20924_storage"
      },
      "t_struct(Asset)20911_storage": {
        "encoding": "inplace",
        "label": "struct VaultStorage.Asset",
        "members": [
          {
            "astId": 20910,
            "contract": "contracts/vault/VaultCore.sol:VaultCore",
            "label": "isSupported",
            "offset": 0,
            "slot": "0",
            "type": "t_bool"
          }
        ],
        "numberOfBytes": "32"
      },
      "t_struct(Strategy)20924_storage": {
        "encoding": "inplace",
        "label": "struct VaultStorage.Strategy",
        "members": [
          {
            "astId": 20921,
            "contract": "contracts/vault/VaultCore.sol:VaultCore",
            "label": "isSupported",
            "offset": 0,
            "slot": "0",
            "type": "t_bool"
          },
          {
            "astId": 20923,
            "contract": "contracts/vault/VaultCore.sol:VaultCore",
            "label": "_deprecated",
            "offset": 0,
            "slot": "1",
            "type": "t_uint256"
          }
        ],
        "numberOfBytes": "64"
      },
      "t_uint256": {
        "encoding": "inplace",
        "label": "uint256",
        "numberOfBytes": "32"
      }
    }
  }
}