{
  "address": "0xf00d4B19458C594d4Ea9D0B9861EDfD2c444fA9A",
  "abi": [
    {
      "constant": true,
      "inputs": [],
      "name": "redeemFeeBps",
      "outputs": [
        {
          "internalType": "uint256",
          "name": "",
          "type": "uint256"
        }
      ],
      "payable": false,
      "stateMutability": "view",
      "type": "function"
    },
    {
      "constant": true,
      "inputs": [],
      "name": "governor",
      "outputs": [
        {
          "internalType": "address",
          "name": "",
          "type": "address"
        }
      ],
      "payable": false,
      "stateMutability": "view",
      "type": "function"
    },
    {
      "constant": true,
      "inputs": [],
      "name": "uniswapAddr",
      "outputs": [
        {
          "internalType": "address",
          "name": "",
          "type": "address"
        }
      ],
      "payable": false,
      "stateMutability": "view",
      "type": "function"
    },
    {
      "constant": false,
      "inputs": [
        {
          "internalType": "address",
          "name": "_asset",
          "type": "address"
        },
        {
          "internalType": "uint256",
          "name": "_amount",
          "type": "uint256"
        },
        {
          "internalType": "uint256",
          "name": "_minimumOusdAmount",
          "type": "uint256"
        }
      ],
      "name": "mint",
      "outputs": [],
      "payable": false,
      "stateMutability": "nonpayable",
      "type": "function"
    },
    {
      "constant": true,
      "inputs": [],
      "name": "vaultBuffer",
      "outputs": [
        {
          "internalType": "uint256",
          "name": "",
          "type": "uint256"
        }
      ],
      "payable": false,
      "stateMutability": "view",
      "type": "function"
    },
    {
      "constant": true,
      "inputs": [],
      "name": "trusteeFeeBps",
      "outputs": [
        {
          "internalType": "uint256",
          "name": "",
          "type": "uint256"
        }
      ],
      "payable": false,
      "stateMutability": "view",
      "type": "function"
    },
    {
      "constant": true,
      "inputs": [],
      "name": "getAllAssets",
      "outputs": [
        {
          "internalType": "address[]",
          "name": "",
          "type": "address[]"
        }
      ],
      "payable": false,
      "stateMutability": "view",
      "type": "function"
    },
    {
      "constant": true,
      "inputs": [],
      "name": "getStrategyCount",
      "outputs": [
        {
          "internalType": "uint256",
          "name": "",
          "type": "uint256"
        }
      ],
      "payable": false,
      "stateMutability": "view",
      "type": "function"
    },
    {
      "constant": true,
      "inputs": [],
      "name": "trusteeAddress",
      "outputs": [
        {
          "internalType": "address",
          "name": "",
          "type": "address"
        }
      ],
      "payable": false,
      "stateMutability": "view",
      "type": "function"
    },
    {
      "constant": true,
      "inputs": [],
      "name": "rebaseThreshold",
      "outputs": [
        {
          "internalType": "uint256",
          "name": "",
          "type": "uint256"
        }
      ],
      "payable": false,
      "stateMutability": "view",
      "type": "function"
    },
    {
      "constant": true,
      "inputs": [],
      "name": "rebasePaused",
      "outputs": [
        {
          "internalType": "bool",
          "name": "",
          "type": "bool"
        }
      ],
      "payable": false,
      "stateMutability": "view",
      "type": "function"
    },
    {
      "constant": true,
      "inputs": [],
      "name": "strategistAddr",
      "outputs": [
        {
          "internalType": "address",
          "name": "",
          "type": "address"
        }
      ],
      "payable": false,
      "stateMutability": "view",
      "type": "function"
    },
    {
      "constant": false,
      "inputs": [],
      "name": "claimGovernance",
      "outputs": [],
      "payable": false,
      "stateMutability": "nonpayable",
      "type": "function"
    },
    {
      "constant": true,
      "inputs": [
        {
          "internalType": "address",
          "name": "_asset",
          "type": "address"
        }
      ],
      "name": "checkBalance",
      "outputs": [
        {
          "internalType": "uint256",
          "name": "",
          "type": "uint256"
        }
      ],
      "payable": false,
      "stateMutability": "view",
      "type": "function"
    },
    {
      "constant": true,
      "inputs": [
        {
          "internalType": "uint256",
          "name": "_amount",
          "type": "uint256"
        }
      ],
      "name": "calculateRedeemOutputs",
      "outputs": [
        {
          "internalType": "uint256[]",
          "name": "",
          "type": "uint256[]"
        }
      ],
      "payable": false,
      "stateMutability": "view",
      "type": "function"
    },
    {
      "constant": false,
      "inputs": [
        {
          "internalType": "uint256",
          "name": "_minimumUnitAmount",
          "type": "uint256"
        }
      ],
      "name": "redeemAll",
      "outputs": [],
      "payable": false,
      "stateMutability": "nonpayable",
      "type": "function"
    },
    {
      "constant": false,
      "inputs": [
        {
          "internalType": "uint256",
          "name": "_amount",
          "type": "uint256"
        },
        {
          "internalType": "uint256",
          "name": "_minimumUnitAmount",
          "type": "uint256"
        }
      ],
      "name": "redeem",
      "outputs": [],
      "payable": false,
      "stateMutability": "nonpayable",
      "type": "function"
    },
    {
      "constant": true,
      "inputs": [],
      "name": "maxSupplyDiff",
      "outputs": [
        {
          "internalType": "uint256",
          "name": "",
          "type": "uint256"
        }
      ],
      "payable": false,
      "stateMutability": "view",
      "type": "function"
    },
    {
      "constant": true,
      "inputs": [
        {
          "internalType": "address",
          "name": "_asset",
          "type": "address"
        }
      ],
      "name": "isSupportedAsset",
      "outputs": [
        {
          "internalType": "bool",
          "name": "",
          "type": "bool"
        }
      ],
      "payable": false,
      "stateMutability": "view",
      "type": "function"
    },
    {
      "constant": true,
      "inputs": [],
      "name": "autoAllocateThreshold",
      "outputs": [
        {
          "internalType": "uint256",
          "name": "",
          "type": "uint256"
        }
      ],
      "payable": false,
      "stateMutability": "view",
      "type": "function"
    },
    {
      "constant": true,
      "inputs": [],
      "name": "getAssetCount",
      "outputs": [
        {
          "internalType": "uint256",
          "name": "",
          "type": "uint256"
        }
      ],
      "payable": false,
      "stateMutability": "view",
      "type": "function"
    },
    {
      "constant": true,
      "inputs": [
        {
          "internalType": "address",
          "name": "",
          "type": "address"
        }
      ],
      "name": "assetDefaultStrategies",
      "outputs": [
        {
          "internalType": "address",
          "name": "",
          "type": "address"
        }
      ],
      "payable": false,
      "stateMutability": "view",
      "type": "function"
    },
    {
      "constant": false,
      "inputs": [],
      "name": "allocate",
      "outputs": [],
      "payable": false,
      "stateMutability": "nonpayable",
      "type": "function"
    },
    {
      "constant": false,
      "inputs": [],
      "name": "rebase",
      "outputs": [],
      "payable": false,
      "stateMutability": "nonpayable",
      "type": "function"
    },
    {
      "constant": true,
      "inputs": [],
      "name": "priceProvider",
      "outputs": [
        {
          "internalType": "address",
          "name": "",
          "type": "address"
        }
      ],
      "payable": false,
      "stateMutability": "view",
      "type": "function"
    },
    {
      "constant": true,
      "inputs": [],
      "name": "isGovernor",
      "outputs": [
        {
          "internalType": "bool",
          "name": "",
          "type": "bool"
        }
      ],
      "payable": false,
      "stateMutability": "view",
      "type": "function"
    },
    {
      "constant": false,
      "inputs": [
        {
          "internalType": "address",
          "name": "_newGovernor",
          "type": "address"
        }
      ],
      "name": "transferGovernance",
      "outputs": [],
      "payable": false,
      "stateMutability": "nonpayable",
      "type": "function"
    },
    {
      "constant": true,
      "inputs": [],
      "name": "totalValue",
      "outputs": [
        {
          "internalType": "uint256",
          "name": "value",
          "type": "uint256"
        }
      ],
      "payable": false,
      "stateMutability": "view",
      "type": "function"
    },
    {
      "constant": true,
      "inputs": [],
      "name": "capitalPaused",
      "outputs": [
        {
          "internalType": "bool",
          "name": "",
          "type": "bool"
        }
      ],
      "payable": false,
      "stateMutability": "view",
      "type": "function"
    },
    {
      "constant": false,
      "inputs": [
        {
          "internalType": "address[]",
          "name": "_assets",
          "type": "address[]"
        },
        {
          "internalType": "uint256[]",
          "name": "_amounts",
          "type": "uint256[]"
        },
        {
          "internalType": "uint256",
          "name": "_minimumOusdAmount",
          "type": "uint256"
        }
      ],
      "name": "mintMultiple",
      "outputs": [],
      "payable": false,
      "stateMutability": "nonpayable",
      "type": "function"
    },
    {
      "constant": false,
      "inputs": [
        {
          "internalType": "address",
          "name": "newImpl",
          "type": "address"
        }
      ],
      "name": "setAdminImpl",
      "outputs": [],
      "payable": false,
      "stateMutability": "nonpayable",
      "type": "function"
    },
    {
      "payable": true,
      "stateMutability": "payable",
      "type": "fallback"
    },
    {
      "anonymous": false,
      "inputs": [
        {
          "indexed": false,
          "internalType": "address",
          "name": "_asset",
          "type": "address"
        }
      ],
      "name": "AssetSupported",
      "type": "event"
    },
    {
      "anonymous": false,
      "inputs": [
        {
          "indexed": false,
          "internalType": "address",
          "name": "_asset",
          "type": "address"
        },
        {
          "indexed": false,
          "internalType": "address",
          "name": "_strategy",
          "type": "address"
        }
      ],
      "name": "AssetDefaultStrategyUpdated",
      "type": "event"
    },
    {
      "anonymous": false,
      "inputs": [
        {
          "indexed": false,
          "internalType": "address",
          "name": "_addr",
          "type": "address"
        }
      ],
      "name": "StrategyApproved",
      "type": "event"
    },
    {
      "anonymous": false,
      "inputs": [
        {
          "indexed": false,
          "internalType": "address",
          "name": "_addr",
          "type": "address"
        }
      ],
      "name": "StrategyRemoved",
      "type": "event"
    },
    {
      "anonymous": false,
      "inputs": [
        {
          "indexed": false,
          "internalType": "address",
          "name": "_addr",
          "type": "address"
        },
        {
          "indexed": false,
          "internalType": "uint256",
          "name": "_value",
          "type": "uint256"
        }
      ],
      "name": "Mint",
      "type": "event"
    },
    {
      "anonymous": false,
      "inputs": [
        {
          "indexed": false,
          "internalType": "address",
          "name": "_addr",
          "type": "address"
        },
        {
          "indexed": false,
          "internalType": "uint256",
          "name": "_value",
          "type": "uint256"
        }
      ],
      "name": "Redeem",
      "type": "event"
    },
    {
      "anonymous": false,
      "inputs": [],
      "name": "CapitalPaused",
      "type": "event"
    },
    {
      "anonymous": false,
      "inputs": [],
      "name": "CapitalUnpaused",
      "type": "event"
    },
    {
      "anonymous": false,
      "inputs": [],
      "name": "RebasePaused",
      "type": "event"
    },
    {
      "anonymous": false,
      "inputs": [],
      "name": "RebaseUnpaused",
      "type": "event"
    },
    {
      "anonymous": false,
      "inputs": [
        {
          "indexed": false,
          "internalType": "uint256",
          "name": "_vaultBuffer",
          "type": "uint256"
        }
      ],
      "name": "VaultBufferUpdated",
      "type": "event"
    },
    {
      "anonymous": false,
      "inputs": [
        {
          "indexed": false,
          "internalType": "uint256",
          "name": "_redeemFeeBps",
          "type": "uint256"
        }
      ],
      "name": "RedeemFeeUpdated",
      "type": "event"
    },
    {
      "anonymous": false,
      "inputs": [
        {
          "indexed": false,
          "internalType": "address",
          "name": "_priceProvider",
          "type": "address"
        }
      ],
      "name": "PriceProviderUpdated",
      "type": "event"
    },
    {
      "anonymous": false,
      "inputs": [
        {
          "indexed": false,
          "internalType": "uint256",
          "name": "_threshold",
          "type": "uint256"
        }
      ],
      "name": "AllocateThresholdUpdated",
      "type": "event"
    },
    {
      "anonymous": false,
      "inputs": [
        {
          "indexed": false,
          "internalType": "uint256",
          "name": "_threshold",
          "type": "uint256"
        }
      ],
      "name": "RebaseThresholdUpdated",
      "type": "event"
    },
    {
      "anonymous": false,
      "inputs": [
        {
          "indexed": false,
          "internalType": "address",
          "name": "_address",
          "type": "address"
        }
      ],
      "name": "UniswapUpdated",
      "type": "event"
    },
    {
      "anonymous": false,
      "inputs": [
        {
          "indexed": false,
          "internalType": "address",
          "name": "_address",
          "type": "address"
        }
      ],
      "name": "StrategistUpdated",
      "type": "event"
    },
    {
      "anonymous": false,
      "inputs": [
        {
          "indexed": false,
          "internalType": "uint256",
          "name": "maxSupplyDiff",
          "type": "uint256"
        }
      ],
      "name": "MaxSupplyDiffChanged",
      "type": "event"
    },
    {
      "anonymous": false,
      "inputs": [
        {
          "indexed": false,
          "internalType": "address",
          "name": "_to",
          "type": "address"
        },
        {
          "indexed": false,
          "internalType": "uint256",
          "name": "_yield",
          "type": "uint256"
        },
        {
          "indexed": false,
          "internalType": "uint256",
          "name": "_fee",
          "type": "uint256"
        }
      ],
      "name": "YieldDistribution",
      "type": "event"
    },
    {
      "anonymous": false,
      "inputs": [
        {
          "indexed": false,
          "internalType": "uint256",
          "name": "_basis",
          "type": "uint256"
        }
      ],
      "name": "TrusteeFeeBpsChanged",
      "type": "event"
    },
    {
      "anonymous": false,
      "inputs": [
        {
          "indexed": false,
          "internalType": "address",
          "name": "_address",
          "type": "address"
        }
      ],
      "name": "TrusteeAddressChanged",
      "type": "event"
    },
    {
      "anonymous": false,
      "inputs": [
        {
          "indexed": true,
          "internalType": "address",
          "name": "previousGovernor",
          "type": "address"
        },
        {
          "indexed": true,
          "internalType": "address",
          "name": "newGovernor",
          "type": "address"
        }
      ],
      "name": "PendingGovernorshipTransfer",
      "type": "event"
    },
    {
      "anonymous": false,
      "inputs": [
        {
          "indexed": true,
          "internalType": "address",
          "name": "previousGovernor",
          "type": "address"
        },
        {
          "indexed": true,
          "internalType": "address",
          "name": "newGovernor",
          "type": "address"
        }
      ],
      "name": "GovernorshipTransferred",
      "type": "event"
    }
  ],
  "transactionHash": "0x2bb4dcc3341a628b2de438b9b0e7294c470f8ca4d3b9ad2b5ec5786b6c652350",
  "args": [],
  "solcInputHash": "cca309778b0bcb384ba7e2e97bde53a0",
  "bytecode": "0x60806040526037805461ffff60a01b19167501000000000000000000000000000000000000000000179055603d80546001600160a01b0319908116909155603e805482169055603f8054909116905562000062336001600160e01b03620000bb16565b620000756001600160e01b03620000ce16565b6001600160a01b031660006001600160a01b03167fc7c0c772add429241571afb3805861fb3cfa2af374534088b76cdb4325a87e9a60405160405180910390a3620000e2565b600080516020620037d383398151915255565b600080516020620037d38339815191525490565b6136e180620000f26000396000f3fe6080604052600436106101d85760003560e01c80637136a7a611610102578063af14052c11610095578063d4c3eea011610064578063d4c3eea0146105d0578063e6cc5432146105e5578063f0efb4c7146105fa578063fc0cfeee146106c9576101d8565b8063af14052c1461055e578063b888879e14610573578063c7af335214610588578063d38bfff41461059d576101d8565b80639fa1826e116100d15780639fa1826e146104ec578063a0aead4d14610501578063a403e4d514610516578063abaa991614610549576101d8565b80637136a7a61461044a5780637cbc2373146104745780638e510b52146104a45780639be918e6146104b9576101d8565b806331e19cfa1161017a578063570d8e1d11610149578063570d8e1d146103c35780635d36b190146103d85780635f515226146103ed57806367bd7ba314610420576101d8565b806331e19cfa1461035b57806349c1d54d1461037057806352d38e5d1461038557806353ca9f241461039a576101d8565b8063156e29f6116101b6578063156e29f61461028b5780631edfe3da146102cc578063207134b0146102e15780632acada4d146102f6576101d8565b806309f6442c1461021e5780630c340a2414610245578063128a8b0514610276575b7fa2bd3d3cf188a41358c8b401076eb59066b09dec5775650c0de4c55187d17bd9366000803760008036600084545af43d6000803e808015610219573d6000f35b3d6000fd5b34801561022a57600080fd5b506102336106fc565b60408051918252519081900360200190f35b34801561025157600080fd5b5061025a610702565b604080516001600160a01b039092168252519081900360200190f35b34801561028257600080fd5b5061025a610711565b34801561029757600080fd5b506102ca600480360360608110156102ae57600080fd5b506001600160a01b038135169060208101359060400135610720565b005b3480156102d857600080fd5b50610233610ad1565b3480156102ed57600080fd5b50610233610ad7565b34801561030257600080fd5b5061030b610add565b60408051602080825283518183015283519192839290830191858101910280838360005b8381101561034757818101518382015260200161032f565b505050509050019250505060405180910390f35b34801561036757600080fd5b50610233610b3f565b34801561037c57600080fd5b5061025a610b45565b34801561039157600080fd5b50610233610b54565b3480156103a657600080fd5b506103af610b5a565b604080519115158252519081900360200190f35b3480156103cf57600080fd5b5061025a610b6a565b3480156103e457600080fd5b506102ca610b79565b3480156103f957600080fd5b506102336004803603602081101561041057600080fd5b50356001600160a01b0316610bdb565b34801561042c57600080fd5b5061030b6004803603602081101561044357600080fd5b5035610bec565b34801561045657600080fd5b506102ca6004803603602081101561046d57600080fd5b5035610bf7565b34801561048057600080fd5b506102ca6004803603604081101561049757600080fd5b5080359060200135610dc7565b3480156104b057600080fd5b50610233610eae565b3480156104c557600080fd5b506103af600480360360208110156104dc57600080fd5b50356001600160a01b0316610eb4565b3480156104f857600080fd5b50610233610ed2565b34801561050d57600080fd5b50610233610ed8565b34801561052257600080fd5b5061025a6004803603602081101561053957600080fd5b50356001600160a01b0316610ede565b34801561055557600080fd5b506102ca610ef9565b34801561056a57600080fd5b506102ca610fb4565b34801561057f57600080fd5b5061025a611069565b34801561059457600080fd5b506103af611078565b3480156105a957600080fd5b506102ca600480360360208110156105c057600080fd5b50356001600160a01b031661109b565b3480156105dc57600080fd5b50610233611147565b3480156105f157600080fd5b506103af611151565b34801561060657600080fd5b506102ca6004803603606081101561061d57600080fd5b81019060208101813564010000000081111561063857600080fd5b82018360208201111561064a57600080fd5b8035906020019184602083028401116401000000008311171561066c57600080fd5b91939092909160208101903564010000000081111561068a57600080fd5b82018360208201111561069c57600080fd5b803590602001918460208302840111640100000000831117156106be57600080fd5b919350915035611161565b3480156106d557600080fd5b506102ca600480360360208110156106ec57600080fd5b50356001600160a01b031661165c565b60385481565b600061070c61171d565b905090565b603e546001600160a01b031681565b603754600160a81b900460ff1615610770576040805162461bcd60e51b815260206004820152600e60248201526d10d85c1a5d185b081c185d5cd95960921b604482015290519081900360640190fd5b6000805160206135a3833981519152805460028114156107c8576040805162461bcd60e51b815260206004820152600e60248201526d1499595b9d1c985b9d0818d85b1b60921b604482015290519081900360640190fd5b600282556001600160a01b03851660009081526033602052604090205460ff16610832576040805162461bcd60e51b8152602060048201526016602482015275105cdcd95d081a5cc81b9bdd081cdd5c1c1bdc9d195960521b604482015290519081900360640190fd5b60008411610887576040805162461bcd60e51b815260206004820152601d60248201527f416d6f756e74206d7573742062652067726561746572207468616e2030000000604482015290519081900360640190fd5b603754604080516315d5220f60e31b81526001600160a01b0388811660048301529151600093929092169163aea9107891602480820192602092909190829003018186803b1580156108d857600080fd5b505afa1580156108ec573d6000803e3d6000fd5b505050506040513d602081101561090257600080fd5b505190506305f5e10081111561091957506305f5e1005b600061092487611742565b9050600061093c87601284900363ffffffff6117fc16565b9050600061096661095485600a63ffffffff6117fc16565b8990600a86900a63ffffffff61185616565b905086156109c357868110156109c3576040805162461bcd60e51b815260206004820152601e60248201527f4d696e7420616d6f756e74206c6f776572207468616e206d696e696d756d0000604482015290519081900360640190fd5b604080513381526020810183905281517f0f6798a560793a54c3bcfe86a93cde1e73087d944c0ea20544137d4121396885929181900390910190a1603b548210158015610a1a5750603754600160a01b900460ff16155b15610a2757610a27611884565b603c54604080516340c10f1960e01b81523360048201526024810184905290516001600160a01b03909216916340c10f199160448082019260009290919082900301818387803b158015610a7a57600080fd5b505af1158015610a8e573d6000803e3d6000fd5b508b9250610ab09150506001600160a01b03821633308c63ffffffff611bab16565b603a548310610ac157610ac1611c0b565b5050505050600182555050505050565b60395481565b60435481565b60606034805480602002602001604051908101604052809291908181526020018280548015610b3557602002820191906000526020600020905b81546001600160a01b03168152600190910190602001808311610b17575b5050505050905090565b60365490565b6042546001600160a01b031681565b603b5481565b603754600160a01b900460ff1681565b603f546001600160a01b031681565b610b81612196565b6001600160a01b0316336001600160a01b031614610bd05760405162461bcd60e51b815260040180806020018281038252603081526020018061367d6030913960400191505060405180910390fd5b610bd9336121bb565b565b6000610be682612269565b92915050565b6060610be68261242a565b603754600160a81b900460ff1615610c47576040805162461bcd60e51b815260206004820152600e60248201526d10d85c1a5d185b081c185d5cd95960921b604482015290519081900360640190fd5b6000805160206135a383398151915280546002811415610c9f576040805162461bcd60e51b815260206004820152600e60248201526d1499595b9d1c985b9d0818d85b1b60921b604482015290519081900360640190fd5b60028255603b54603c54604080516370a0823160e01b815233600482015290516001600160a01b03909216916370a0823191602480820192602092909190829003018186803b158015610cf157600080fd5b505afa158015610d05573d6000803e3d6000fd5b505050506040513d6020811015610d1b57600080fd5b5051118015610d345750603754600160a01b900460ff16155b15610d4157610d41611884565b603c54604080516370a0823160e01b81523360048201529051610dbf926001600160a01b0316916370a08231916024808301926020929190829003018186803b158015610d8d57600080fd5b505afa158015610da1573d6000803e3d6000fd5b505050506040513d6020811015610db757600080fd5b5051846126eb565b506001905550565b603754600160a81b900460ff1615610e17576040805162461bcd60e51b815260206004820152600e60248201526d10d85c1a5d185b081c185d5cd95960921b604482015290519081900360640190fd5b6000805160206135a383398151915280546002811415610e6f576040805162461bcd60e51b815260206004820152600e60248201526d1499595b9d1c985b9d0818d85b1b60921b604482015290519081900360640190fd5b60028255603b5484118015610e8e5750603754600160a01b900460ff16155b15610e9b57610e9b611884565b610ea584846126eb565b50600190555050565b60415481565b6001600160a01b031660009081526033602052604090205460ff1690565b603a5481565b60345490565b6040602081905260009182529020546001600160a01b031681565b603754600160a81b900460ff1615610f49576040805162461bcd60e51b815260206004820152600e60248201526d10d85c1a5d185b081c185d5cd95960921b604482015290519081900360640190fd5b6000805160206135a383398151915280546002811415610fa1576040805162461bcd60e51b815260206004820152600e60248201526d1499595b9d1c985b9d0818d85b1b60921b604482015290519081900360640190fd5b60028255610fad611c0b565b5060019055565b603754600160a01b900460ff1615611005576040805162461bcd60e51b815260206004820152600f60248201526e149958985cda5b99c81c185d5cd959608a1b604482015290519081900360640190fd5b6000805160206135a38339815191528054600281141561105d576040805162461bcd60e51b815260206004820152600e60248201526d1499595b9d1c985b9d0818d85b1b60921b604482015290519081900360640190fd5b60028255610fad611884565b6037546001600160a01b031681565b600061108261171d565b6001600160a01b0316336001600160a01b031614905090565b6110a3611078565b6110f4576040805162461bcd60e51b815260206004820152601a60248201527f43616c6c6572206973206e6f742074686520476f7665726e6f72000000000000604482015290519081900360640190fd5b6110fd81612c9c565b806001600160a01b031661110f61171d565b6001600160a01b03167fa39cc5eb22d0f34d8beaefee8a3f17cc229c1a1d1ef87a5ad47313487b1c4f0d60405160405180910390a350565b600061070c612cc0565b603754600160a81b900460ff1681565b603754600160a81b900460ff16156111b1576040805162461bcd60e51b815260206004820152600e60248201526d10d85c1a5d185b081c185d5cd95960921b604482015290519081900360640190fd5b6000805160206135a383398151915280546002811415611209576040805162461bcd60e51b815260206004820152600e60248201526d1499595b9d1c985b9d0818d85b1b60921b604482015290519081900360640190fd5b60028255858414611261576040805162461bcd60e51b815260206004820152601960248201527f506172616d65746572206c656e677468206d69736d6174636800000000000000604482015290519081900360640190fd5b600080606061126f82612ce1565b905060005b898110156114a857603360008c8c8481811061128c57fe5b602090810292909201356001600160a01b03168352508101919091526040016000205460ff166112fc576040805162461bcd60e51b8152602060048201526016602482015275105cdcd95d081a5cc81b9bdd081cdd5c1c1bdc9d195960521b604482015290519081900360640190fd5b600089898381811061130a57fe5b9050602002013511611363576040805162461bcd60e51b815260206004820152601d60248201527f416d6f756e74206d7573742062652067726561746572207468616e2030000000604482015290519081900360640190fd5b60005b60345481101561149f576034818154811061137d57fe5b6000918252602090912001546001600160a01b03168c8c8481811061139e57fe5b905060200201356001600160a01b03166001600160a01b031614156114975760006113e9603483815481106113cf57fe5b6000918252602090912001546001600160a01b0316611742565b905060008483815181106113f957fe5b60200260200101519050670de0b6b3a764000081111561141e5750670de0b6b3a76400005b611456611449836012038e8e8881811061143457fe5b905060200201356117fc90919063ffffffff16565b889063ffffffff612df716565b96506114926114858284600a0a8f8f8981811061146f57fe5b905060200201356118569092919063ffffffff16565b879063ffffffff612df716565b955050505b600101611366565b50600101611274565b5085156115045785821015611504576040805162461bcd60e51b815260206004820152601e60248201527f4d696e7420616d6f756e74206c6f776572207468616e206d696e696d756d0000604482015290519081900360640190fd5b604080513381526020810184905281517f0f6798a560793a54c3bcfe86a93cde1e73087d944c0ea20544137d4121396885929181900390910190a1603b54831015801561155b5750603754600160a01b900460ff16155b1561156857611568611884565b603c54604080516340c10f1960e01b81523360048201526024810185905290516001600160a01b03909216916340c10f199160448082019260009290919082900301818387803b1580156115bb57600080fd5b505af11580156115cf573d6000803e3d6000fd5b506000925050505b8981101561163a5760008b8b838181106115ed57fe5b905060200201356001600160a01b0316905061163133308c8c8681811061161057fe5b90506020020135846001600160a01b0316611bab909392919063ffffffff16565b506001016115d7565b50603a54831061164c5761164c611c0b565b5050506001825550505050505050565b611664611078565b6116b5576040805162461bcd60e51b815260206004820152601a60248201527f43616c6c6572206973206e6f742074686520476f7665726e6f72000000000000604482015290519081900360640190fd5b6116be81612e58565b6116f95760405162461bcd60e51b81526004018080602001828103825260248152602001806135c36024913960400191505060405180910390fd5b7fa2bd3d3cf188a41358c8b401076eb59066b09dec5775650c0de4c55187d17bd955565b7f7bea13895fa79d2831e0a9e28edede30099005a50d652d8957cf8a607ee6ca4a5490565b600080826001600160a01b031663313ce5676040518163ffffffff1660e01b815260040160206040518083038186803b15801561177e57600080fd5b505afa158015611792573d6000803e3d6000fd5b505050506040513d60208110156117a857600080fd5b505160ff169050600481108015906117c1575060128111155b610be65760405162461bcd60e51b81526004018080602001828103825260298152602001806135e76029913960400191505060405180910390fd5b6000808260000b13156118275761182083600084900b600a0a63ffffffff612e9416565b925061184f565b60008260000b121561184f5761184c836000848103900b600a0a63ffffffff612eed16565b92505b5090919050565b600080611869858563ffffffff612e9416565b905061187b818463ffffffff612eed16565b95945050505050565b603754600160a01b900460ff16156118d5576040805162461bcd60e51b815260206004820152600f60248201526e149958985cda5b99c81c185d5cd959608a1b604482015290519081900360640190fd5b603c54604080516318160ddd60e01b815290516000926001600160a01b0316916318160ddd916004808301926020929190829003018186803b15801561191a57600080fd5b505afa15801561192e573d6000803e3d6000fd5b505050506040513d602081101561194457600080fd5b50519050806119535750610bd9565b600061195d612cc0565b6042549091506001600160a01b0316801580159061197a57508282115b15611abc576000611991838563ffffffff612f2f16565b905060006119bc6127106119b060435485612e9490919063ffffffff16565b9063ffffffff612eed16565b90508082116119fc5760405162461bcd60e51b81526004018080602001828103825260228152602001806136316022913960400191505060405180910390fd5b8015611a7057603c54604080516340c10f1960e01b81526001600160a01b03868116600483015260248201859052915191909216916340c10f1991604480830192600092919082900301818387803b158015611a5757600080fd5b505af1158015611a6b573d6000803e3d6000fd5b505050505b604080516001600160a01b03851681526020810184905280820183905290517f09516ecf4a8a86e59780a9befc6dee948bc9e60a36e3be68d31ea817ee8d2c809181900360600190a150505b603c60009054906101000a90046001600160a01b03166001600160a01b03166318160ddd6040518163ffffffff1660e01b815260040160206040518083038186803b158015611b0a57600080fd5b505afa158015611b1e573d6000803e3d6000fd5b505050506040513d6020811015611b3457600080fd5b5051925082821115611ba657603c54604080516339a7919f60e01b81526004810185905290516001600160a01b03909216916339a7919f9160248082019260009290919082900301818387803b158015611b8d57600080fd5b505af1158015611ba1573d6000803e3d6000fd5b505050505b505050565b604080516001600160a01b0385811660248301528416604482015260648082018490528251808303909101815260849091019091526020810180516001600160e01b03166323b872dd60e01b179052611c05908590612f71565b50505050565b6000611c15613129565b905080611c225750610bd9565b6000611c2c613219565b90506000611c40838363ffffffff612df716565b9050600082611c6c57603954611c6590670de0b6b3a76400009063ffffffff612f2f16565b9050611cb8565b611c85846119b084603954612e9490919063ffffffff16565b905080670de0b6b3a76400001115611caf57611c65670de0b6b3a76400008263ffffffff612f2f16565b50505050610bd9565b80611cc65750505050610bd9565b60005b603454811015611e5557600060348281548110611ce257fe5b6000918252602080832090910154604080516370a0823160e01b815230600482015290516001600160a01b03909216945084926370a0823192602480840193829003018186803b158015611d3557600080fd5b505afa158015611d49573d6000803e3d6000fd5b505050506040513d6020811015611d5f57600080fd5b5051905080611d6f575050611e4d565b6000611d81828663ffffffff61326b16565b6001600160a01b03808516600090815260406020819052902054919250168015801590611dae5750600082115b15611e485780611dce6001600160a01b038616828563ffffffff61328016565b806001600160a01b03166347e7ef2486856040518363ffffffff1660e01b815260040180836001600160a01b03166001600160a01b0316815260200182815260200192505050600060405180830381600087803b158015611e2e57600080fd5b505af1158015611e42573d6000803e3d6000fd5b50505050505b505050505b600101611cc9565b5060005b60365481101561212757600060368281548110611e7257fe5b60009182526020808320909101546040805163125f9e3360e01b815290516001600160a01b039092169450849263125f9e3392600480840193829003018186803b158015611ebf57600080fd5b505afa158015611ed3573d6000803e3d6000fd5b505050506040513d6020811015611ee957600080fd5b505190506001600160a01b0381161561211d576000826001600160a01b0316635653b4146040518163ffffffff1660e01b815260040160206040518083038186803b158015611f3757600080fd5b505afa158015611f4b573d6000803e3d6000fd5b505050506040513d6020811015611f6157600080fd5b5051905080611ff057306001600160a01b0316630e5c011e60368681548110611f8657fe5b6000918252602082200154604080516001600160e01b031960e086901b1681526001600160a01b039092166004830152516024808301939282900301818387803b158015611fd357600080fd5b505af1158015611fe7573d6000803e3d6000fd5b5050505061211b565b60008290506000816001600160a01b03166370a082316036888154811061201357fe5b60009182526020918290200154604080516001600160e01b031960e086901b1681526001600160a01b0390921660048301525160248083019392829003018186803b15801561206157600080fd5b505afa158015612075573d6000803e3d6000fd5b505050506040513d602081101561208b57600080fd5b5051905082811061211857306001600160a01b0316630e5c011e603688815481106120b257fe5b6000918252602082200154604080516001600160e01b031960e086901b1681526001600160a01b039092166004830152516024808301939282900301818387803b1580156120ff57600080fd5b505af1158015612113573d6000803e3d6000fd5b505050505b50505b505b5050600101611e59565b50604260009054906101000a90046001600160a01b03166001600160a01b0316638119c0656040518163ffffffff1660e01b8152600401600060405180830381600087803b15801561217857600080fd5b505af115801561218c573d6000803e3d6000fd5b5050505050505050565b7f44c4d30b2eaad5130ad70c3ba6972730566f3e6359ab83e800d905c61b1c51db5490565b6001600160a01b038116612216576040805162461bcd60e51b815260206004820152601a60248201527f4e657720476f7665726e6f722069732061646472657373283029000000000000604482015290519081900360640190fd5b806001600160a01b031661222861171d565b6001600160a01b03167fc7c0c772add429241571afb3805861fb3cfa2af374534088b76cdb4325a87e9a60405160405180910390a3612266816132d2565b50565b604080516370a0823160e01b8152306004820152905160009183916001600160a01b038316916370a08231916024808301926020929190829003018186803b1580156122b457600080fd5b505afa1580156122c8573d6000803e3d6000fd5b505050506040513d60208110156122de57600080fd5b5051915060005b603654811015612423576000603682815481106122fe57fe5b600091825260209182902001546040805163551c457b60e11b81526001600160a01b0389811660048301529151919092169350839263aa388af69260248082019391829003018186803b15801561235457600080fd5b505afa158015612368573d6000803e3d6000fd5b505050506040513d602081101561237e57600080fd5b50511561241a57612417816001600160a01b0316635f515226876040518263ffffffff1660e01b815260040180826001600160a01b03166001600160a01b0316815260200191505060206040518083038186803b1580156123de57600080fd5b505afa1580156123f2573d6000803e3d6000fd5b505050506040513d602081101561240857600080fd5b5051859063ffffffff612df716565b93505b506001016122e5565b5050919050565b60606000612436610ed8565b905060606124446001612ce1565b9050606082604051908082528060200260200182016040528015612472578160200160208202803883390190505b5090506060836040519080825280602002602001820160405280156124a1578160200160208202803883390190505b5060408051868152602080880282010190915290915060009081908680156124d3578160200160208202803883390190505b50603854909750156125125760006124fc6127106119b06038548c612e9490919063ffffffff16565b905061250e898263ffffffff612f2f16565b9850505b60005b6034548110156125c257600061254b6034838154811061253157fe5b6000918252602090912001546001600160a01b0316612269565b9050600061255f603484815481106113cf57fe5b90508187848151811061256e57fe5b6020026020010181815250508086848151811061258757fe5b60209081029190910101526125b66125a983601284900363ffffffff6117fc16565b869063ffffffff612df716565b94505050600101612515565b5060005b6034548110156126735760008682815181106125de57fe5b60200260200101519050670de0b6b3a76400008110156126035750670de0b6b3a76400005b6000612655856119b0846126498a888151811061261c57fe5b60200260200101516012038c898151811061263357fe5b60200260200101516117fc90919063ffffffff16565b9063ffffffff612e9416565b9050612667848263ffffffff612df716565b935050506001016125c6565b506000612686898363ffffffff6132f616565b905060005b6034548110156126de576126bf846119b0848985815181106126a957fe5b6020026020010151612e9490919063ffffffff16565b8982815181106126cb57fe5b602090810291909101015260010161268b565b5050505050505050919050565b60008211612740576040805162461bcd60e51b815260206004820152601d60248201527f416d6f756e74206d7573742062652067726561746572207468616e2030000000604482015290519081900360640190fd5b603c54604080516318160ddd60e01b815290516000926001600160a01b0316916318160ddd916004808301926020929190829003018186803b15801561278557600080fd5b505afa158015612799573d6000803e3d6000fd5b505050506040513d60208110156127af57600080fd5b5051905060006127bd612cc0565b604154909150156128785760006127da838363ffffffff6132f616565b9050604154670de0b6b3a7640000821161280b57612806670de0b6b3a76400008363ffffffff612f2f16565b612823565b61282382670de0b6b3a764000063ffffffff612f2f16565b1115612876576040805162461bcd60e51b815260206004820152601e60248201527f4261636b696e6720737570706c79206c6971756964697479206572726f720000604482015290519081900360640190fd5b505b604080513381526020810186905281517f222838db2794d11532d940e8dec38ae307ed0b63cd97c233322e221f998767a6929181900390910190a160606128be8561242a565b905060005b603454811015612b54578181815181106128d957fe5b6020026020010151600014156128ee57612b4c565b6000603482815481106128fd57fe5b60009182526020909120015483516001600160a01b03909116915083908390811061292457fe5b6020026020010151816001600160a01b03166370a08231306040518263ffffffff1660e01b815260040180826001600160a01b03166001600160a01b0316815260200191505060206040518083038186803b15801561298257600080fd5b505afa158015612996573d6000803e3d6000fd5b505050506040513d60208110156129ac57600080fd5b5051106129e9576129e4338484815181106129c357fe5b6020026020010151836001600160a01b03166132809092919063ffffffff16565b612b4a565b600060406000603485815481106129fc57fe5b60009182526020808320909101546001600160a01b0390811684529083019390935260409091019020541690508015612b09576000819050806001600160a01b031663d9caed123360348781548110612a5157fe5b9060005260206000200160009054906101000a90046001600160a01b0316888881518110612a7b57fe5b60200260200101516040518463ffffffff1660e01b815260040180846001600160a01b03166001600160a01b03168152602001836001600160a01b03166001600160a01b031681526020018281526020019350505050600060405180830381600087803b158015612aeb57600080fd5b505af1158015612aff573d6000803e3d6000fd5b5050505050612b48565b6040805162461bcd60e51b815260206004820152600f60248201526e2634b8bab4b234ba3c9032b93937b960891b604482015290519081900360640190fd5b505b505b6001016128c3565b508315612c02576000805b8251811015612baa576000612b7a603483815481106113cf57fe5b9050612b9f612b928260120386858151811061263357fe5b849063ffffffff612df716565b925050600101612b5f565b5084811015612c00576040805162461bcd60e51b815260206004820181905260248201527f52656465656d20616d6f756e74206c6f776572207468616e206d696e696d756d604482015290519081900360640190fd5b505b603c5460408051632770a7eb60e21b81523360048201526024810188905290516001600160a01b0390921691639dc29fac9160448082019260009290919082900301818387803b158015612c5557600080fd5b505af1158015612c69573d6000803e3d6000fd5b50505050603b5485118015612c885750603754600160a01b900460ff16155b15612c9557612c95611884565b5050505050565b7f44c4d30b2eaad5130ad70c3ba6972730566f3e6359ab83e800d905c61b1c51db55565b600061070c612ccd613219565b612cd5613129565b9063ffffffff612df716565b6060612ceb610ed8565b604051908082528060200260200182016040528015612d14578160200160208202803883390190505b506037549091506001600160a01b031660005b60345481101561242357612dd8600a836001600160a01b031663aea9107860348581548110612d5257fe5b60009182526020918290200154604080516001600160e01b031960e086901b1681526001600160a01b0390921660048301525160248083019392829003018186803b158015612da057600080fd5b505afa158015612db4573d6000803e3d6000fd5b505050506040513d6020811015612dca57600080fd5b50519063ffffffff6117fc16565b838281518110612de457fe5b6020908102919091010152600101612d27565b600082820183811015612e51576040805162461bcd60e51b815260206004820152601b60248201527f536166654d6174683a206164646974696f6e206f766572666c6f770000000000604482015290519081900360640190fd5b9392505050565b6000813f7fc5d2460186f7233c927e7db2dcc703c0e500b653ca82273b7bfad8045d85a470818114801590612e8c57508115155b949350505050565b600082612ea357506000610be6565b82820282848281612eb057fe5b0414612e515760405162461bcd60e51b81526004018080602001828103825260218152602001806136106021913960400191505060405180910390fd5b6000612e5183836040518060400160405280601a81526020017f536166654d6174683a206469766973696f6e206279207a65726f000000000000815250613323565b6000612e5183836040518060400160405280601e81526020017f536166654d6174683a207375627472616374696f6e206f766572666c6f7700008152506133c5565b612f83826001600160a01b0316612e58565b612fd4576040805162461bcd60e51b815260206004820152601f60248201527f5361666545524332303a2063616c6c20746f206e6f6e2d636f6e747261637400604482015290519081900360640190fd5b60006060836001600160a01b0316836040518082805190602001908083835b602083106130125780518252601f199092019160209182019101612ff3565b6001836020036101000a0380198251168184511680821785525050505050509050019150506000604051808303816000865af19150503d8060008114613074576040519150601f19603f3d011682016040523d82523d6000602084013e613079565b606091505b5091509150816130d0576040805162461bcd60e51b815260206004820181905260248201527f5361666545524332303a206c6f772d6c6576656c2063616c6c206661696c6564604482015290519081900360640190fd5b805115611c05578080602001905160208110156130ec57600080fd5b5051611c055760405162461bcd60e51b815260040180806020018281038252602a815260200180613653602a913960400191505060405180910390fd5b6000805b6034548110156132155760006034828154811061314657fe5b6000918252602082200154603480546001600160a01b03909216935061317091859081106113cf57fe5b604080516370a0823160e01b815230600482015290519192506000916001600160a01b038516916370a08231916024808301926020929190829003018186803b1580156131bc57600080fd5b505afa1580156131d0573d6000803e3d6000fd5b505050506040513d60208110156131e657600080fd5b50519050801561320a576132076125a982601285900363ffffffff6117fc16565b94505b50505060010161312d565b5090565b6000805b603654811015613215576132616132546036838154811061323a57fe5b6000918252602090912001546001600160a01b031661341f565b839063ffffffff612df716565b915060010161321d565b6000612e518383670de0b6b3a7640000611856565b604080516001600160a01b038416602482015260448082018490528251808303909101815260649091019091526020810180516001600160e01b031663a9059cbb60e01b179052611ba6908490612f71565b7f7bea13895fa79d2831e0a9e28edede30099005a50d652d8957cf8a607ee6ca4a55565b60008061331184670de0b6b3a764000063ffffffff612e9416565b9050612e8c818463ffffffff612eed16565b600081836133af5760405162461bcd60e51b81526004018080602001828103825283818151815260200191508051906020019080838360005b8381101561337457818101518382015260200161335c565b50505050905090810190601f1680156133a15780820380516001836020036101000a031916815260200191505b509250505060405180910390fd5b5060008385816133bb57fe5b0495945050505050565b600081848411156134175760405162461bcd60e51b815260206004820181815283516024840152835190928392604490910191908501908083836000831561337457818101518382015260200161335c565b505050900390565b600081815b603454811015612423576000613440603483815481106113cf57fe5b9050826001600160a01b031663aa388af66034848154811061345e57fe5b60009182526020918290200154604080516001600160e01b031960e086901b1681526001600160a01b0390921660048301525160248083019392829003018186803b1580156134ac57600080fd5b505afa1580156134c0573d6000803e3d6000fd5b505050506040513d60208110156134d657600080fd5b505115613599576000836001600160a01b0316635f515226603485815481106134fb57fe5b60009182526020918290200154604080516001600160e01b031960e086901b1681526001600160a01b0390921660048301525160248083019392829003018186803b15801561354957600080fd5b505afa15801561355d573d6000803e3d6000fd5b505050506040513d602081101561357357600080fd5b505190508015613597576135946125a982601285900363ffffffff6117fc16565b94505b505b5060010161342456fe53bf423e48ed90e97d02ab0ebab13b2a235a6bfbe9c321847d5c175333ac45356e657720696d706c656d656e746174696f6e206973206e6f74206120636f6e7472616374546f6b656e206d75737420686176652073756666696369656e7420646563696d616c20706c61636573536166654d6174683a206d756c7469706c69636174696f6e206f766572666c6f77466565206d757374206e6f742062652067726561746572207468616e207969656c645361666545524332303a204552433230206f7065726174696f6e20646964206e6f7420737563636565644f6e6c79207468652070656e64696e6720476f7665726e6f722063616e20636f6d706c6574652074686520636c61696da265627a7a72315820f5ce484058ce120d7bb6fefde3051498b9396da8f85e58bb4fb70cd2ed9251b264736f6c634300050b00327bea13895fa79d2831e0a9e28edede30099005a50d652d8957cf8a607ee6ca4a",
  "devdoc": {
    "methods": {
      "allocate()": {
        "details": "Allocate unallocated funds on Vault to strategies.*"
      },
      "checkBalance(address)": {
        "params": {
          "_asset": "Address of asset"
        },
        "return": "uint256 Balance of asset in decimals of asset"
      },
      "claimGovernance()": {
        "details": "Claim Governance of the contract to a new account (`newGovernor`). Can only be called by the new Governor."
      },
      "getAllAssets()": {
        "details": "Return all asset addresses in order"
      },
      "getAssetCount()": {
        "details": "Return the number of assets suppported by the Vault."
      },
      "getStrategyCount()": {
        "details": "Return the number of strategies active on the Vault."
      },
      "governor()": {
        "details": "Returns the address of the current Governor."
      },
      "isGovernor()": {
        "details": "Returns true if the caller is the current Governor."
      },
      "mint(address,uint256,uint256)": {
        "details": "Deposit a supported asset and mint OUSD.",
        "params": {
          "_amount": "Amount of the asset being deposited",
          "_asset": "Address of the asset being deposited",
          "_minimumOusdAmount": "Minimum OUSD to mint"
        }
      },
      "mintMultiple(address[],uint256[],uint256)": {
        "details": "Mint for multiple assets in the same call.",
        "params": {
          "_amounts": "Amount of each asset at the same index in the _assets                to deposit.",
          "_assets": "Addresses of assets being deposited",
          "_minimumOusdAmount": "Minimum OUSD to mint"
        }
      },
      "rebase()": {
        "details": "Calculate the total value of assets held by the Vault and all     strategies and update the supply of OUSD."
      },
      "redeem(uint256,uint256)": {
        "details": "Withdraw a supported asset and burn OUSD.",
        "params": {
          "_amount": "Amount of OUSD to burn",
          "_minimumUnitAmount": "Minimum stablecoin units to receive in return"
        }
      },
      "redeemAll(uint256)": {
        "params": {
          "_minimumUnitAmount": "Minimum stablecoin units to receive in return"
        }
      },
      "setAdminImpl(address)": {
        "details": "set the implementation for the admin, this needs to be in a base class else we cannot set it",
        "params": {
          "newImpl": "address of the implementation"
        }
      },
      "totalValue()": {
        "details": "Determine the total value of assets held by the vault and its        strategies.",
        "return": "uint256 value Total value in USD (1e18)"
      },
      "transferGovernance(address)": {
        "details": "Transfers Governance of the contract to a new account (`newGovernor`). Can only be called by the current Governor. Must be claimed for this to complete",
        "params": {
          "_newGovernor": "Address of the new Governor"
        }
      }
    }
  },
  "userdoc": {
    "methods": {
      "allocate()": {
        "notice": "Allocate unallocated funds on Vault to strategies."
      },
      "calculateRedeemOutputs(uint256)": {
        "notice": "Calculate the outputs for a redeem function, i.e. the mix of coins that will be returned"
      },
      "checkBalance(address)": {
        "notice": "Get the balance of an asset held in Vault and all strategies."
      },
      "redeemAll(uint256)": {
        "notice": "Withdraw a supported asset and burn all OUSD."
      }
    }
  }
}