{
  "address": "0x6bd6CC9605Ae43B424cB06363255b061A84DfFD3",
  "abi": [
    {
      "constant": false,
      "inputs": [],
      "name": "unpauseRebase",
      "outputs": [],
      "payable": false,
      "stateMutability": "nonpayable",
      "type": "function"
    },
    {
      "constant": true,
      "inputs": [],
      "name": "redeemFeeBps",
      "outputs": [
        {
          "internalType": "uint256",
          "name": "",
          "type": "uint256"
        }
      ],
      "payable": false,
      "stateMutability": "view",
      "type": "function"
    },
    {
      "constant": true,
      "inputs": [],
      "name": "governor",
      "outputs": [
        {
          "internalType": "address",
          "name": "",
          "type": "address"
        }
      ],
      "payable": false,
      "stateMutability": "view",
      "type": "function"
    },
    {
      "constant": false,
      "inputs": [
        {
          "internalType": "address",
          "name": "_strategyAddr",
          "type": "address"
        }
      ],
      "name": "harvest",
      "outputs": [
        {
          "internalType": "uint256[]",
          "name": "",
          "type": "uint256[]"
        }
      ],
      "payable": false,
      "stateMutability": "nonpayable",
      "type": "function"
    },
    {
      "constant": false,
      "inputs": [
        {
          "internalType": "address",
          "name": "_asset",
          "type": "address"
        },
        {
          "internalType": "uint256",
          "name": "_amount",
          "type": "uint256"
        }
      ],
      "name": "transferToken",
      "outputs": [],
      "payable": false,
      "stateMutability": "nonpayable",
      "type": "function"
    },
    {
      "constant": true,
      "inputs": [],
      "name": "uniswapAddr",
      "outputs": [
        {
          "internalType": "address",
          "name": "",
          "type": "address"
        }
      ],
      "payable": false,
      "stateMutability": "view",
      "type": "function"
    },
    {
      "constant": false,
      "inputs": [
        {
          "internalType": "address",
          "name": "_addr",
          "type": "address"
        }
      ],
      "name": "removeStrategy",
      "outputs": [],
      "payable": false,
      "stateMutability": "nonpayable",
      "type": "function"
    },
    {
      "constant": true,
      "inputs": [],
      "name": "vaultBuffer",
      "outputs": [
        {
          "internalType": "uint256",
          "name": "",
          "type": "uint256"
        }
      ],
      "payable": false,
      "stateMutability": "view",
      "type": "function"
    },
    {
      "constant": true,
      "inputs": [
        {
          "internalType": "string",
          "name": "symbol",
          "type": "string"
        }
      ],
      "name": "priceUSDRedeem",
      "outputs": [
        {
          "internalType": "uint256",
          "name": "",
          "type": "uint256"
        }
      ],
      "payable": false,
      "stateMutability": "view",
      "type": "function"
    },
    {
      "constant": false,
      "inputs": [
        {
          "internalType": "address",
          "name": "_priceProvider",
          "type": "address"
        }
      ],
      "name": "setPriceProvider",
      "outputs": [],
      "payable": false,
      "stateMutability": "nonpayable",
      "type": "function"
    },
    {
      "constant": false,
      "inputs": [
        {
          "internalType": "address",
          "name": "_addr",
          "type": "address"
        }
      ],
      "name": "approveStrategy",
      "outputs": [],
      "payable": false,
      "stateMutability": "nonpayable",
      "type": "function"
    },
    {
      "constant": false,
      "inputs": [],
      "name": "pauseCapital",
      "outputs": [],
      "payable": false,
      "stateMutability": "nonpayable",
      "type": "function"
    },
    {
      "constant": false,
      "inputs": [],
      "name": "harvest",
      "outputs": [],
      "payable": false,
      "stateMutability": "nonpayable",
      "type": "function"
    },
    {
      "constant": false,
      "inputs": [
        {
          "internalType": "address",
          "name": "_priceProvider",
          "type": "address"
        },
        {
          "internalType": "address",
          "name": "_ousd",
          "type": "address"
        }
      ],
      "name": "initialize",
      "outputs": [],
      "payable": false,
      "stateMutability": "nonpayable",
      "type": "function"
    },
    {
      "constant": false,
      "inputs": [
        {
          "internalType": "address",
          "name": "_asset",
          "type": "address"
        }
      ],
      "name": "supportAsset",
      "outputs": [],
      "payable": false,
      "stateMutability": "nonpayable",
      "type": "function"
    },
    {
      "constant": true,
      "inputs": [],
      "name": "rebaseThreshold",
      "outputs": [
        {
          "internalType": "uint256",
          "name": "",
          "type": "uint256"
        }
      ],
      "payable": false,
      "stateMutability": "view",
      "type": "function"
    },
    {
      "constant": true,
      "inputs": [],
      "name": "rebasePaused",
      "outputs": [
        {
          "internalType": "bool",
          "name": "",
          "type": "bool"
        }
      ],
      "payable": false,
      "stateMutability": "view",
      "type": "function"
    },
    {
      "constant": true,
      "inputs": [],
      "name": "strategistAddr",
      "outputs": [
        {
          "internalType": "address",
          "name": "",
          "type": "address"
        }
      ],
      "payable": false,
      "stateMutability": "view",
      "type": "function"
    },
    {
      "constant": false,
      "inputs": [],
      "name": "claimGovernance",
      "outputs": [],
      "payable": false,
      "stateMutability": "nonpayable",
      "type": "function"
    },
    {
      "constant": false,
      "inputs": [
        {
          "internalType": "uint256",
          "name": "_maxSupplyDiff",
          "type": "uint256"
        }
      ],
      "name": "setMaxSupplyDiff",
      "outputs": [],
      "payable": false,
      "stateMutability": "nonpayable",
      "type": "function"
    },
    {
      "constant": true,
      "inputs": [
        {
          "internalType": "string",
          "name": "symbol",
          "type": "string"
        }
      ],
      "name": "priceUSDMint",
      "outputs": [
        {
          "internalType": "uint256",
          "name": "",
          "type": "uint256"
        }
      ],
      "payable": false,
      "stateMutability": "view",
      "type": "function"
    },
    {
      "constant": false,
      "inputs": [
        {
          "internalType": "address",
          "name": "_address",
          "type": "address"
        }
      ],
      "name": "setStrategistAddr",
      "outputs": [],
      "payable": false,
      "stateMutability": "nonpayable",
      "type": "function"
    },
    {
      "constant": false,
      "inputs": [
        {
          "internalType": "address",
          "name": "_strategyFromAddress",
          "type": "address"
        },
        {
          "internalType": "address",
          "name": "_strategyToAddress",
          "type": "address"
        },
        {
          "internalType": "address[]",
          "name": "_assets",
          "type": "address[]"
        },
        {
          "internalType": "uint256[]",
          "name": "_amounts",
          "type": "uint256[]"
        }
      ],
      "name": "reallocate",
      "outputs": [],
      "payable": false,
      "stateMutability": "nonpayable",
      "type": "function"
    },
    {
      "constant": true,
      "inputs": [],
      "name": "maxSupplyDiff",
      "outputs": [
        {
          "internalType": "uint256",
          "name": "",
          "type": "uint256"
        }
      ],
      "payable": false,
      "stateMutability": "view",
      "type": "function"
    },
    {
      "constant": false,
      "inputs": [
        {
          "internalType": "uint256",
          "name": "_vaultBuffer",
          "type": "uint256"
        }
      ],
      "name": "setVaultBuffer",
      "outputs": [],
      "payable": false,
      "stateMutability": "nonpayable",
      "type": "function"
    },
    {
      "constant": false,
      "inputs": [],
      "name": "unpauseCapital",
      "outputs": [],
      "payable": false,
      "stateMutability": "nonpayable",
      "type": "function"
    },
    {
      "constant": true,
      "inputs": [],
      "name": "autoAllocateThreshold",
      "outputs": [
        {
          "internalType": "uint256",
          "name": "",
          "type": "uint256"
        }
      ],
      "payable": false,
      "stateMutability": "view",
      "type": "function"
    },
    {
      "constant": true,
      "inputs": [
        {
          "internalType": "address",
          "name": "",
          "type": "address"
        }
      ],
      "name": "assetDefaultStrategies",
      "outputs": [
        {
          "internalType": "address",
          "name": "",
          "type": "address"
        }
      ],
      "payable": false,
      "stateMutability": "view",
      "type": "function"
    },
    {
      "constant": false,
      "inputs": [
        {
          "internalType": "address",
          "name": "_address",
          "type": "address"
        }
      ],
      "name": "setUniswapAddr",
      "outputs": [],
      "payable": false,
      "stateMutability": "nonpayable",
      "type": "function"
    },
    {
      "constant": false,
      "inputs": [
        {
          "internalType": "uint256",
          "name": "_threshold",
          "type": "uint256"
        }
      ],
      "name": "setAutoAllocateThreshold",
      "outputs": [],
      "payable": false,
      "stateMutability": "nonpayable",
      "type": "function"
    },
    {
      "constant": true,
      "inputs": [],
      "name": "priceProvider",
      "outputs": [
        {
          "internalType": "address",
          "name": "",
          "type": "address"
        }
      ],
      "payable": false,
      "stateMutability": "view",
      "type": "function"
    },
    {
      "constant": false,
      "inputs": [
        {
          "internalType": "uint256",
          "name": "_threshold",
          "type": "uint256"
        }
      ],
      "name": "setRebaseThreshold",
      "outputs": [],
      "payable": false,
      "stateMutability": "nonpayable",
      "type": "function"
    },
    {
      "constant": false,
      "inputs": [
        {
          "internalType": "address",
          "name": "_asset",
          "type": "address"
        },
        {
          "internalType": "address",
          "name": "_strategy",
          "type": "address"
        }
      ],
      "name": "setAssetDefaultStrategy",
      "outputs": [],
      "payable": false,
      "stateMutability": "nonpayable",
      "type": "function"
    },
    {
      "constant": false,
      "inputs": [],
      "name": "pauseRebase",
      "outputs": [],
      "payable": false,
      "stateMutability": "nonpayable",
      "type": "function"
    },
    {
      "constant": true,
      "inputs": [],
      "name": "isGovernor",
      "outputs": [
        {
          "internalType": "bool",
          "name": "",
          "type": "bool"
        }
      ],
      "payable": false,
      "stateMutability": "view",
      "type": "function"
    },
    {
      "constant": false,
      "inputs": [
        {
          "internalType": "address",
          "name": "_newGovernor",
          "type": "address"
        }
      ],
      "name": "transferGovernance",
      "outputs": [],
      "payable": false,
      "stateMutability": "nonpayable",
      "type": "function"
    },
    {
      "constant": true,
      "inputs": [],
      "name": "capitalPaused",
      "outputs": [
        {
          "internalType": "bool",
          "name": "",
          "type": "bool"
        }
      ],
      "payable": false,
      "stateMutability": "view",
      "type": "function"
    },
    {
      "constant": false,
      "inputs": [
        {
          "internalType": "uint256",
          "name": "_redeemFeeBps",
          "type": "uint256"
        }
      ],
      "name": "setRedeemFeeBps",
      "outputs": [],
      "payable": false,
      "stateMutability": "nonpayable",
      "type": "function"
    },
    {
      "constant": false,
      "inputs": [
        {
          "internalType": "address",
          "name": "newImpl",
          "type": "address"
        }
      ],
      "name": "setAdminImpl",
      "outputs": [],
      "payable": false,
      "stateMutability": "nonpayable",
      "type": "function"
    },
    {
      "anonymous": false,
      "inputs": [
        {
          "indexed": false,
          "internalType": "address",
          "name": "_asset",
          "type": "address"
        }
      ],
      "name": "AssetSupported",
      "type": "event"
    },
    {
      "anonymous": false,
      "inputs": [
        {
          "indexed": false,
          "internalType": "address",
          "name": "_asset",
          "type": "address"
        },
        {
          "indexed": false,
          "internalType": "address",
          "name": "_strategy",
          "type": "address"
        }
      ],
      "name": "AssetDefaultStrategyUpdated",
      "type": "event"
    },
    {
      "anonymous": false,
      "inputs": [
        {
          "indexed": false,
          "internalType": "address",
          "name": "_addr",
          "type": "address"
        }
      ],
      "name": "StrategyApproved",
      "type": "event"
    },
    {
      "anonymous": false,
      "inputs": [
        {
          "indexed": false,
          "internalType": "address",
          "name": "_addr",
          "type": "address"
        }
      ],
      "name": "StrategyRemoved",
      "type": "event"
    },
    {
      "anonymous": false,
      "inputs": [
        {
          "indexed": false,
          "internalType": "address",
          "name": "_addr",
          "type": "address"
        },
        {
          "indexed": false,
          "internalType": "uint256",
          "name": "_value",
          "type": "uint256"
        }
      ],
      "name": "Mint",
      "type": "event"
    },
    {
      "anonymous": false,
      "inputs": [
        {
          "indexed": false,
          "internalType": "address",
          "name": "_addr",
          "type": "address"
        },
        {
          "indexed": false,
          "internalType": "uint256",
          "name": "_value",
          "type": "uint256"
        }
      ],
      "name": "Redeem",
      "type": "event"
    },
    {
      "anonymous": false,
      "inputs": [],
      "name": "CapitalPaused",
      "type": "event"
    },
    {
      "anonymous": false,
      "inputs": [],
      "name": "CapitalUnpaused",
      "type": "event"
    },
    {
      "anonymous": false,
      "inputs": [],
      "name": "RebasePaused",
      "type": "event"
    },
    {
      "anonymous": false,
      "inputs": [],
      "name": "RebaseUnpaused",
      "type": "event"
    },
    {
      "anonymous": false,
      "inputs": [
        {
          "indexed": false,
          "internalType": "uint256",
          "name": "_vaultBuffer",
          "type": "uint256"
        }
      ],
      "name": "VaultBufferUpdated",
      "type": "event"
    },
    {
      "anonymous": false,
      "inputs": [
        {
          "indexed": false,
          "internalType": "uint256",
          "name": "_redeemFeeBps",
          "type": "uint256"
        }
      ],
      "name": "RedeemFeeUpdated",
      "type": "event"
    },
    {
      "anonymous": false,
      "inputs": [
        {
          "indexed": false,
          "internalType": "address",
          "name": "_priceProvider",
          "type": "address"
        }
      ],
      "name": "PriceProviderUpdated",
      "type": "event"
    },
    {
      "anonymous": false,
      "inputs": [
        {
          "indexed": false,
          "internalType": "uint256",
          "name": "_threshold",
          "type": "uint256"
        }
      ],
      "name": "AllocateThresholdUpdated",
      "type": "event"
    },
    {
      "anonymous": false,
      "inputs": [
        {
          "indexed": false,
          "internalType": "uint256",
          "name": "_threshold",
          "type": "uint256"
        }
      ],
      "name": "RebaseThresholdUpdated",
      "type": "event"
    },
    {
      "anonymous": false,
      "inputs": [
        {
          "indexed": false,
          "internalType": "address",
          "name": "_address",
          "type": "address"
        }
      ],
      "name": "UniswapUpdated",
      "type": "event"
    },
    {
      "anonymous": false,
      "inputs": [
        {
          "indexed": false,
          "internalType": "address",
          "name": "_address",
          "type": "address"
        }
      ],
      "name": "StrategistUpdated",
      "type": "event"
    },
    {
      "anonymous": false,
      "inputs": [
        {
          "indexed": false,
          "internalType": "uint256",
          "name": "maxSupplyDiff",
          "type": "uint256"
        }
      ],
      "name": "MaxSupplyDiffChanged",
      "type": "event"
    },
    {
      "anonymous": false,
      "inputs": [
        {
          "indexed": true,
          "internalType": "address",
          "name": "previousGovernor",
          "type": "address"
        },
        {
          "indexed": true,
          "internalType": "address",
          "name": "newGovernor",
          "type": "address"
        }
      ],
      "name": "PendingGovernorshipTransfer",
      "type": "event"
    },
    {
      "anonymous": false,
      "inputs": [
        {
          "indexed": true,
          "internalType": "address",
          "name": "previousGovernor",
          "type": "address"
        },
        {
          "indexed": true,
          "internalType": "address",
          "name": "newGovernor",
          "type": "address"
        }
      ],
      "name": "GovernorshipTransferred",
      "type": "event"
    }
  ],
  "transactionHash": "0xb49aed199923e8cfcfc42f4be68b34546c21203d358488b72a2c38ce98511957",
  "args": [],
  "solcInputHash": "d641aaf0ed5d604d73e8f53c6d96978e",
  "bytecode": "0x60806040526037805461ffff60a01b19167501000000000000000000000000000000000000000000179055603d80546001600160a01b0319908116909155603e805482169055603f8054909116905562000062336001600160e01b03620000bb16565b620000756001600160e01b03620000ce16565b6001600160a01b031660006001600160a01b03167fc7c0c772add429241571afb3805861fb3cfa2af374534088b76cdb4325a87e9a60405160405180910390a3620000e2565b60008051602062002f8283398151915255565b60008051602062002f828339815191525490565b612e9080620000f26000396000f3fe608060405234801561001057600080fd5b506004361061023d5760003560e01c8063663e64ce1161013b578063b2c9336d116100b8578063c7af33521161007c578063c7af335214610735578063d38bfff41461073d578063e6cc543214610763578063eb03654b1461076b578063fc0cfeee146107885761023d565b8063b2c9336d146106bd578063b888879e146106da578063b890ebf6146106e2578063bc90106b146106ff578063c5f008411461072d5761023d565b80638ec489a2116100ff5780638ec489a21461064457806394828ffd146106615780639fa1826e14610669578063a403e4d514610671578063aea173d5146106975761023d565b8063663e64ce146104b4578063686b37ca146104d1578063773540b31461053f5780637fe2d393146105655780638e510b521461063c5761023d565b8063372aa224116101c95780634cd55c2d1161018d5780634cd55c2d1461045a57806352d38e5d1461048057806353ca9f2414610488578063570d8e1d146104a45780635d36b190146104ac5761023d565b8063372aa224146103d05780633b8ae397146103f65780633dbc911f1461041c5780634641257d14610424578063485cc9551461042c5761023d565b80631072cbea116102105780631072cbea14610300578063128a8b051461032c578063175188e8146103345780631edfe3da1461035a57806329a903ec146103625761023d565b806309f49bf51461024257806309f6442c1461024c5780630c340a24146102665780630e5c011e1461028a575b600080fd5b61024a6107ae565b005b61025461082d565b60408051918252519081900360200190f35b61026e610833565b604080516001600160a01b039092168252519081900360200190f35b6102b0600480360360208110156102a057600080fd5b50356001600160a01b0316610842565b60408051602080825283518183015283519192839290830191858101910280838360005b838110156102ec5781810151838201526020016102d4565b505050509050019250505060405180910390f35b61024a6004803603604081101561031657600080fd5b506001600160a01b0381351690602001356108a1565b61026e61090e565b61024a6004803603602081101561034a57600080fd5b50356001600160a01b031661091d565b610254610b81565b6102546004803603602081101561037857600080fd5b810190602081018135600160201b81111561039257600080fd5b8201836020820111156103a457600080fd5b803590602001918460018302840111600160201b831117156103c557600080fd5b509092509050610b87565b61024a600480360360208110156103e657600080fd5b50356001600160a01b0316610bd1565b61024a6004803603602081101561040c57600080fd5b50356001600160a01b0316610c6c565b61024a610dd9565b61024a610e6e565b61024a6004803603604081101561044257600080fd5b506001600160a01b0381358116916020013516610ef8565b61024a6004803603602081101561047057600080fd5b50356001600160a01b03166110f4565b610254611251565b610490611257565b604080519115158252519081900360200190f35b61026e611267565b61024a611276565b61024a600480360360208110156104ca57600080fd5b50356112d8565b610254600480360360208110156104e757600080fd5b810190602081018135600160201b81111561050157600080fd5b82018360208201111561051357600080fd5b803590602001918460018302840111600160201b8311171561053457600080fd5b50909250905061135a565b61024a6004803603602081101561055557600080fd5b50356001600160a01b031661139b565b61024a6004803603608081101561057b57600080fd5b6001600160a01b038235811692602081013590911691810190606081016040820135600160201b8111156105ae57600080fd5b8201836020820111156105c057600080fd5b803590602001918460208302840111600160201b831117156105e157600080fd5b919390929091602081019035600160201b8111156105fe57600080fd5b82018360208201111561061057600080fd5b803590602001918460208302840111600160201b8311171561063157600080fd5b509092509050611436565b610254611813565b61024a6004803603602081101561065a57600080fd5b5035611819565b61024a6118e8565b610254611977565b61026e6004803603602081101561068757600080fd5b50356001600160a01b031661197d565b61024a600480360360208110156106ad57600080fd5b50356001600160a01b0316611998565b61024a600480360360208110156106d357600080fd5b5035611a33565b61026e611ab5565b61024a600480360360208110156106f857600080fd5b5035611ac4565b61024a6004803603604081101561071557600080fd5b506001600160a01b0381358116916020013516611b46565b61024a611db1565b610490611e36565b61024a6004803603602081101561075357600080fd5b50356001600160a01b0316611e59565b610490611ef3565b61024a6004803603602081101561078157600080fd5b5035611f03565b61024a6004803603602081101561079e57600080fd5b50356001600160a01b0316611f85565b6107b6611e36565b6107f5576040805162461bcd60e51b815260206004820152601a6024820152600080516020612d5d833981519152604482015290519081900360640190fd5b6037805460ff60a01b191690556040517fbc044409505c95b6b851433df96e1beae715c909d8e7c1d6d7ab783300d4e3b990600090a1565b60385481565b600061083d611ff0565b905090565b6060333014806108555750610855611e36565b6108905760405162461bcd60e51b8152600401808060200182810382526023815260200180612d126023913960400191505060405180910390fd5b61089982612015565b90505b919050565b6108a9611e36565b6108e8576040805162461bcd60e51b815260206004820152601a6024820152600080516020612d5d833981519152604482015290519081900360640190fd5b61090a6108f3610833565b6001600160a01b038416908363ffffffff61255316565b5050565b603e546001600160a01b031681565b610925611e36565b610964576040805162461bcd60e51b815260206004820152601a6024820152600080516020612d5d833981519152604482015290519081900360640190fd5b6001600160a01b03811660009081526035602052604090205460ff166109c9576040805162461bcd60e51b815260206004820152601560248201527414dd1c985d1959de481b9bdd08185c1c1c9bdd9959605a1b604482015290519081900360640190fd5b60365460005b603654811015610a1b57826001600160a01b0316603682815481106109f057fe5b6000918252602090912001546001600160a01b03161415610a1357809150610a1b565b6001016109cf565b50603654811015610b5f57603680546000198101908110610a3857fe5b600091825260209091200154603680546001600160a01b039092169183908110610a5e57fe5b9060005260206000200160006101000a8154816001600160a01b0302191690836001600160a01b031602179055506036805480610a9757fe5b6001900381819060005260206000200160006101000a8154906001600160a01b03021916905590556000829050806001600160a01b031663853828b66040518163ffffffff1660e01b8152600401600060405180830381600087803b158015610aff57600080fd5b505af1158015610b13573d6000803e3d6000fd5b50505050610b2083612015565b50604080516001600160a01b038516815290517f09a1db4b80c32706328728508c941a6b954f31eb5affd32f236c1fd405f8fea49181900360200190a1505b506001600160a01b03166000908152603560205260409020805460ff19169055565b60395481565b6000610bc883838080601f0160208091040260200160405190810160405280939291908181526020018383808284376000920191909152506125a592505050565b90505b92915050565b610bd9611e36565b610c18576040805162461bcd60e51b815260206004820152601a6024820152600080516020612d5d833981519152604482015290519081900360640190fd5b603780546001600160a01b0383166001600160a01b0319909116811790915560408051918252517fb266add5f3044b17d27db796af992cecbe413921b4e8aaaee03c719e16b9806a9181900360200190a150565b610c74611e36565b610cb3576040805162461bcd60e51b815260206004820152601a6024820152600080516020612d5d833981519152604482015290519081900360640190fd5b6001600160a01b03811660009081526035602052604090205460ff1615610d21576040805162461bcd60e51b815260206004820152601960248201527f537472617465677920616c726561647920617070726f76656400000000000000604482015290519081900360640190fd5b6040805180820182526001808252600060208084018281526001600160a01b038716808452603583528684209551865460ff19169015151786559051948401949094556036805493840181559091527f4a11f94e20a93c79f6ec743a1954ec4fc2c08429ae2122118bf234b2185c81b890910180546001600160a01b03191683179055825191825291517f960dd94cbb79169f09a4e445d58b895df2d9bffa5b31055d0932d801724a20d1929181900390910190a150565b603f546001600160a01b0316331480610df55750610df5611e36565b610e305760405162461bcd60e51b8152600401808060200182810382526028815260200180612d356028913960400191505060405180910390fd5b6037805460ff60a81b1916600160a81b1790556040517f71f0e5b62f846a22e0b4d159e516e62fa9c2b8eb570be15f83e67d98a2ee51e090600090a1565b610e76611e36565b610eb5576040805162461bcd60e51b815260206004820152601a6024820152600080516020612d5d833981519152604482015290519081900360640190fd5b60005b603654811015610ef557610eec60368281548110610ed257fe5b6000918252602090912001546001600160a01b0316612015565b50600101610eb8565b50565b610f00611e36565b610f3f576040805162461bcd60e51b815260206004820152601a6024820152600080516020612d5d833981519152604482015290519081900360640190fd5b600054610100900460ff1680610f585750610f58612692565b80610f66575060005460ff16155b610fa15760405162461bcd60e51b815260040180806020018281038252602e815260200180612d9e602e913960400191505060405180910390fd5b600054610100900460ff16158015610fcc576000805460ff1961ff0019909116610100171660011790555b6001600160a01b038316611027576040805162461bcd60e51b815260206004820152601d60248201527f507269636550726f76696465722061646472657373206973207a65726f000000604482015290519081900360640190fd5b6001600160a01b038216611079576040805162461bcd60e51b81526020600482015260146024820152736f5553442061646472657373206973207a65726f60601b604482015290519081900360640190fd5b603c80546001600160a01b038085166001600160a01b0319928316179092556037805461ffff60a01b1993871692169190911791909116600160a81b1790556000603881905560395569054b40b1f852bda00000603a55683635c9adc5dea00000603b5580156110ef576000805461ff00191690555b505050565b6110fc611e36565b61113b576040805162461bcd60e51b815260206004820152601a6024820152600080516020612d5d833981519152604482015290519081900360640190fd5b6001600160a01b03811660009081526033602052604090205460ff16156111a9576040805162461bcd60e51b815260206004820152601760248201527f417373657420616c726561647920737570706f72746564000000000000000000604482015290519081900360640190fd5b604080516020808201835260018083526001600160a01b0385166000818152603384528581209451855460ff1916901515179094556034805492830181559093527f46bddb1178e94d7f2892ff5f366840eb658911794f2c3a44c450aa2c505186c10180546001600160a01b03191683179055825191825291517f4f1ac48525e50059cc1cc6e0e1940ece0dd653a4db4841538d6aef036be2fb7b929181900390910190a150565b603b5481565b603754600160a01b900460ff1681565b603f546001600160a01b031681565b61127e612698565b6001600160a01b0316336001600160a01b0316146112cd5760405162461bcd60e51b8152600401808060200182810382526030815260200180612e2c6030913960400191505060405180910390fd5b6112d6336126bd565b565b6112e0611e36565b61131f576040805162461bcd60e51b815260206004820152601a6024820152600080516020612d5d833981519152604482015290519081900360640190fd5b60418190556040805182815290517f95201f9c21f26877223b1ff4073936a6484c35495649e60e55730497aeb60d939181900360200190a150565b6000610bc883838080601f01602080910402602001604051908101604052809392919081815260200183838082843760009201919091525061276892505050565b6113a3611e36565b6113e2576040805162461bcd60e51b815260206004820152601a6024820152600080516020612d5d833981519152604482015290519081900360640190fd5b603f80546001600160a01b0383166001600160a01b0319909116811790915560408051918252517f869e0abd13cc3a975de7b93be3df1cb2255c802b1cead85963cc79d99f131bee9181900360200190a150565b603f546001600160a01b03163314806114525750611452611e36565b61148d5760405162461bcd60e51b8152600401808060200182810382526028815260200180612d356028913960400191505060405180910390fd5b6001600160a01b03861660009081526035602052604090205460ff166114f2576040805162461bcd60e51b8152602060048201526015602482015274496e76616c69642066726f6d20537472617465677960581b604482015290519081900360640190fd5b6001600160a01b03851660009081526035602052604090205460ff16611555576040805162461bcd60e51b8152602060048201526013602482015272496e76616c696420746f20537472617465677960681b604482015290519081900360640190fd5b8281146115a9576040805162461bcd60e51b815260206004820152601960248201527f506172616d65746572206c656e677468206d69736d6174636800000000000000604482015290519081900360640190fd5b858560005b8581101561180857816001600160a01b031663aa388af68888848181106115d157fe5b905060200201356001600160a01b03166040518263ffffffff1660e01b815260040180826001600160a01b03166001600160a01b0316815260200191505060206040518083038186803b15801561162757600080fd5b505afa15801561163b573d6000803e3d6000fd5b505050506040513d602081101561165157600080fd5b5051611698576040805162461bcd60e51b8152602060048201526011602482015270105cdcd95d081d5b9cdd5c1c1bdc9d1959607a1b604482015290519081900360640190fd5b826001600160a01b031663d9caed12838989858181106116b457fe5b905060200201356001600160a01b03168888868181106116d057fe5b905060200201356040518463ffffffff1660e01b815260040180846001600160a01b03166001600160a01b03168152602001836001600160a01b03166001600160a01b031681526020018281526020019350505050600060405180830381600087803b15801561173f57600080fd5b505af1158015611753573d6000803e3d6000fd5b50505050816001600160a01b03166347e7ef2488888481811061177257fe5b905060200201356001600160a01b031687878581811061178e57fe5b905060200201356040518363ffffffff1660e01b815260040180836001600160a01b03166001600160a01b0316815260200182815260200192505050600060405180830381600087803b1580156117e457600080fd5b505af11580156117f8573d6000803e3d6000fd5b5050600190920191506115ae9050565b505050505050505050565b60415481565b611821611e36565b611860576040805162461bcd60e51b815260206004820152601a6024820152600080516020612d5d833981519152604482015290519081900360640190fd5b670de0b6b3a76400008111156118ad576040805162461bcd60e51b815260206004820152600d60248201526c496e76616c69642076616c756560981b604482015290519081900360640190fd5b60398190556040805182815290517f41ecb23a0e7865b25f38c268b7c3012220d822929e9edff07326e89d5bb822b59181900360200190a150565b603f546001600160a01b03163314806119045750611904611e36565b61193f5760405162461bcd60e51b8152600401808060200182810382526028815260200180612d356028913960400191505060405180910390fd5b6037805460ff60a81b191690556040517f891ebab18da80ebeeea06b1b1cede098329c4c008906a98370c2ac7a80b571cb90600090a1565b603a5481565b6040602081905260009182529020546001600160a01b031681565b6119a0611e36565b6119df576040805162461bcd60e51b815260206004820152601a6024820152600080516020612d5d833981519152604482015290519081900360640190fd5b603e80546001600160a01b0383166001600160a01b0319909116811790915560408051918252517fca20db57f4368388dd6766259da48cd22a485cba21ee6ec8c519007cb66dfd039181900360200190a150565b611a3b611e36565b611a7a576040805162461bcd60e51b815260206004820152601a6024820152600080516020612d5d833981519152604482015290519081900360640190fd5b603a8190556040805182815290517f2ec5fb5a3d2703edc461252d92ccd2799c3c74f01d97212b20388207fa17ae459181900360200190a150565b6037546001600160a01b031681565b611acc611e36565b611b0b576040805162461bcd60e51b815260206004820152601a6024820152600080516020612d5d833981519152604482015290519081900360640190fd5b603b8190556040805182815290517f39367850377ac04920a9a670f2180e7a94d83b15ad302e59875ec58fd10bd37d9181900360200190a150565b603f546001600160a01b0316331480611b625750611b62611e36565b611b9d5760405162461bcd60e51b8152600401808060200182810382526028815260200180612d356028913960400191505060405180910390fd5b604080516001600160a01b0380851682528316602082015281517fba58ce12801c949fa65f41c46ed108671c219baf945fa48d21026cea99ff252a929181900390910190a16001600160a01b03811660009081526035602052604090205460ff16611c47576040805162461bcd60e51b815260206004820152601560248201527414dd1c985d1959de481b9bdd08185c1c1c9bdd9959605a1b604482015290519081900360640190fd5b6001600160a01b038216600090815260336020526040902054819060ff16611caf576040805162461bcd60e51b8152602060048201526016602482015275105cdcd95d081a5cc81b9bdd081cdd5c1c1bdc9d195960521b604482015290519081900360640190fd5b806001600160a01b031663aa388af6846040518263ffffffff1660e01b815260040180826001600160a01b03166001600160a01b0316815260200191505060206040518083038186803b158015611d0557600080fd5b505afa158015611d19573d6000803e3d6000fd5b505050506040513d6020811015611d2f57600080fd5b5051611d82576040805162461bcd60e51b815260206004820152601f60248201527f4173736574206e6f7420737570706f7274656420627920537472617465677900604482015290519081900360640190fd5b506001600160a01b03918216600090815260406020819052902080546001600160a01b03191691909216179055565b611db9611e36565b611df8576040805162461bcd60e51b815260206004820152601a6024820152600080516020612d5d833981519152604482015290519081900360640190fd5b6037805460ff60a01b1916600160a01b1790556040517f8cff26a5985614b3d30629cc4ab83824bf115aec971b718d8f2f99562032e97290600090a1565b6000611e40611ff0565b6001600160a01b0316336001600160a01b031614905090565b611e61611e36565b611ea0576040805162461bcd60e51b815260206004820152601a6024820152600080516020612d5d833981519152604482015290519081900360640190fd5b611ea9816127d0565b806001600160a01b0316611ebb611ff0565b6001600160a01b03167fa39cc5eb22d0f34d8beaefee8a3f17cc229c1a1d1ef87a5ad47313487b1c4f0d60405160405180910390a350565b603754600160a81b900460ff1681565b611f0b611e36565b611f4a576040805162461bcd60e51b815260206004820152601a6024820152600080516020612d5d833981519152604482015290519081900360640190fd5b60388190556040805182815290517fd6c7508d6658ccee36b7b7d7fd72e5cbaeefb40c64eff24e9ae7470e846304ee9181900360200190a150565b611f8d611e36565b611fcc576040805162461bcd60e51b815260206004820152601a6024820152600080516020612d5d833981519152604482015290519081900360640190fd5b7fa2bd3d3cf188a41358c8b401076eb59066b09dec5775650c0de4c55187d17bd955565b7f7bea13895fa79d2831e0a9e28edede30099005a50d652d8957cf8a607ee6ca4a5490565b606060008290506000816001600160a01b031663125f9e336040518163ffffffff1660e01b815260040160206040518083038186803b15801561205757600080fd5b505afa15801561206b573d6000803e3d6000fd5b505050506040513d602081101561208157600080fd5b505190506001600160a01b0381161561254c57816001600160a01b0316630242241d6040518163ffffffff1660e01b8152600401600060405180830381600087803b1580156120cf57600080fd5b505af11580156120e3573d6000803e3d6000fd5b5050603e546001600160a01b031615915061254c9050576000826001600160a01b031663125f9e336040518163ffffffff1660e01b815260040160206040518083038186803b15801561213557600080fd5b505afa158015612149573d6000803e3d6000fd5b505050506040513d602081101561215f57600080fd5b5051604080516370a0823160e01b815230600482015290519192506000916001600160a01b038416916370a08231916024808301926020929190829003018186803b1580156121ad57600080fd5b505afa1580156121c1573d6000803e3d6000fd5b505050506040513d60208110156121d757600080fd5b50519050801561254957603e54612202906001600160a01b038481169116600063ffffffff6127f416565b603e54612222906001600160a01b0384811691168363ffffffff6127f416565b60408051600380825260808201909252606091602082018380388339019050509050846001600160a01b031663125f9e336040518163ffffffff1660e01b815260040160206040518083038186803b15801561227d57600080fd5b505afa158015612291573d6000803e3d6000fd5b505050506040513d60208110156122a757600080fd5b5051815182906000906122b657fe5b6001600160a01b03928316602091820292909201810191909152603e54604080516315ab88c960e31b81529051919093169263ad5c4648926004808301939192829003018186803b15801561230a57600080fd5b505afa15801561231e573d6000803e3d6000fd5b505050506040513d602081101561233457600080fd5b505181518290600190811061234557fe5b60200260200101906001600160a01b031690816001600160a01b031681525050603460018154811061237357fe5b9060005260206000200160009054906101000a90046001600160a01b03168160028151811061239e57fe5b6001600160a01b039283166020918202929092010152603e54166338ed173983600084306123d44261070863ffffffff61290716565b6040518663ffffffff1660e01b81526004018086815260200185815260200180602001846001600160a01b03166001600160a01b03168152602001838152602001828103825285818151815260200191508051906020019060200280838360005b8381101561244d578181015183820152602001612435565b505050509050019650505050505050600060405180830381600087803b15801561247657600080fd5b505af115801561248a573d6000803e3d6000fd5b505050506040513d6000823e601f3d908101601f1916820160405260208110156124b357600080fd5b8101908080516040519392919084600160201b8211156124d257600080fd5b9083019060208201858111156124e757600080fd5b82518660208202830111600160201b8211171561250357600080fd5b82525081516020918201928201910280838360005b83811015612530578181015183820152602001612518565b505050509050016040525050509550505050505061089c565b50505b5050919050565b604080516001600160a01b038416602482015260448082018490528251808303909101815260649091019091526020810180516001600160e01b031663a9059cbb60e01b1790526110ef908490612961565b603754604051637bf0c21560e01b815260206004820181815284516024840152845160009461089994600a946001600160a01b0390921693637bf0c21593899391928392604490910191908501908083838d5b838110156126105781810151838201526020016125f8565b50505050905090810190601f16801561263d5780820380516001836020036101000a031916815260200191505b509250505060206040518083038186803b15801561265a57600080fd5b505afa15801561266e573d6000803e3d6000fd5b505050506040513d602081101561268457600080fd5b50519063ffffffff612b1f16565b303b1590565b7f44c4d30b2eaad5130ad70c3ba6972730566f3e6359ab83e800d905c61b1c51db5490565b6001600160a01b038116612718576040805162461bcd60e51b815260206004820152601a60248201527f4e657720476f7665726e6f722069732061646472657373283029000000000000604482015290519081900360640190fd5b806001600160a01b031661272a611ff0565b6001600160a01b03167fc7c0c772add429241571afb3805861fb3cfa2af374534088b76cdb4325a87e9a60405160405180910390a3610ef581612b79565b60375460405163019af6bf60e41b815260206004820181815284516024840152845160009461089994600a946001600160a01b03909216936319af6bf093899391928392604490910191908501908083838d83156126105781810151838201526020016125f8565b7f44c4d30b2eaad5130ad70c3ba6972730566f3e6359ab83e800d905c61b1c51db55565b80158061287a575060408051636eb1769f60e11b81523060048201526001600160a01b03848116602483015291519185169163dd62ed3e91604480820192602092909190829003018186803b15801561284c57600080fd5b505afa158015612860573d6000803e3d6000fd5b505050506040513d602081101561287657600080fd5b5051155b6128b55760405162461bcd60e51b8152600401808060200182810382526036815260200180612df66036913960400191505060405180910390fd5b604080516001600160a01b038416602482015260448082018490528251808303909101815260649091019091526020810180516001600160e01b031663095ea7b360e01b1790526110ef908490612961565b600082820183811015610bc8576040805162461bcd60e51b815260206004820152601b60248201527f536166654d6174683a206164646974696f6e206f766572666c6f770000000000604482015290519081900360640190fd5b612973826001600160a01b0316612b9d565b6129c4576040805162461bcd60e51b815260206004820152601f60248201527f5361666545524332303a2063616c6c20746f206e6f6e2d636f6e747261637400604482015290519081900360640190fd5b60006060836001600160a01b0316836040518082805190602001908083835b60208310612a025780518252601f1990920191602091820191016129e3565b6001836020036101000a0380198251168184511680821785525050505050509050019150506000604051808303816000865af19150503d8060008114612a64576040519150601f19603f3d011682016040523d82523d6000602084013e612a69565b606091505b509150915081612ac0576040805162461bcd60e51b815260206004820181905260248201527f5361666545524332303a206c6f772d6c6576656c2063616c6c206661696c6564604482015290519081900360640190fd5b805115612b1957808060200190516020811015612adc57600080fd5b5051612b195760405162461bcd60e51b815260040180806020018281038252602a815260200180612dcc602a913960400191505060405180910390fd5b50505050565b6000808260000b1315612b4a57612b4383600084900b600a0a63ffffffff612bd916565b9250612b72565b60008260000b1215612b7257612b6f836000848103900b600a0a63ffffffff612c3216565b92505b5090919050565b7f7bea13895fa79d2831e0a9e28edede30099005a50d652d8957cf8a607ee6ca4a55565b6000813f7fc5d2460186f7233c927e7db2dcc703c0e500b653ca82273b7bfad8045d85a470818114801590612bd157508115155b949350505050565b600082612be857506000610bcb565b82820282848281612bf557fe5b0414610bc85760405162461bcd60e51b8152600401808060200182810382526021815260200180612d7d6021913960400191505060405180910390fd5b6000610bc883836040518060400160405280601a81526020017f536166654d6174683a206469766973696f6e206279207a65726f00000000000081525060008183612cfb5760405162461bcd60e51b81526004018080602001828103825283818151815260200191508051906020019080838360005b83811015612cc0578181015183820152602001612ca8565b50505050905090810190601f168015612ced5780820380516001836020036101000a031916815260200191505b509250505060405180910390fd5b506000838581612d0757fe5b049594505050505056fe43616c6c6572206973206e6f7420746865205661756c74206f7220476f7665726e6f7243616c6c6572206973206e6f74207468652053747261746567697374206f7220476f7665726e6f7243616c6c6572206973206e6f742074686520476f7665726e6f72000000000000536166654d6174683a206d756c7469706c69636174696f6e206f766572666c6f77436f6e747261637420696e7374616e63652068617320616c7265616479206265656e20696e697469616c697a65645361666545524332303a204552433230206f7065726174696f6e20646964206e6f7420737563636565645361666545524332303a20617070726f76652066726f6d206e6f6e2d7a65726f20746f206e6f6e2d7a65726f20616c6c6f77616e63654f6e6c79207468652070656e64696e6720476f7665726e6f722063616e20636f6d706c6574652074686520636c61696da265627a7a723158200cd58e5a07f1adf969108f1135f24230beb0cc32b7b8cb82033279bd201d13f664736f6c634300050b00327bea13895fa79d2831e0a9e28edede30099005a50d652d8957cf8a607ee6ca4a",
  "devdoc": {
    "methods": {
      "approveStrategy(address)": {
        "details": "Add a strategy to the Vault.",
        "params": {
          "_addr": "Address of the strategy to add"
        }
      },
      "claimGovernance()": {
        "details": "Claim Governance of the contract to a new account (`newGovernor`). Can only be called by the new Governor."
      },
      "governor()": {
        "details": "Returns the address of the current Governor."
      },
      "harvest()": {
        "details": "Collect reward tokens from all strategies and swap for supported     stablecoin via Uniswap"
      },
      "harvest(address)": {
        "details": "Collect reward tokens for a specific strategy and swap for supported     stablecoin via Uniswap",
        "params": {
          "_strategyAddr": "Address of the strategy to collect rewards from"
        }
      },
      "isGovernor()": {
        "details": "Returns true if the caller is the current Governor."
      },
      "pauseCapital()": {
        "details": "Set the deposit paused flag to true to prevent capital movement."
      },
      "pauseRebase()": {
        "details": "Set the deposit paused flag to true to prevent rebasing."
      },
      "priceUSDMint(string)": {
        "details": "Returns the total price in 18 digit USD for a given asset.     Using Min since min is what we use for mint pricing",
        "params": {
          "symbol": "String symbol of the asset"
        },
        "return": "uint256 USD price of 1 of the asset"
      },
      "priceUSDRedeem(string)": {
        "details": "Returns the total price in 18 digit USD for a given asset.     Using Max since max is what we use for redeem pricing",
        "params": {
          "symbol": "String symbol of the asset"
        },
        "return": "uint256 USD price of 1 of the asset"
      },
      "reallocate(address,address,address[],uint256[])": {
        "params": {
          "_amounts": "Array of amounts of each corresponding asset to move.",
          "_assets": "Array of asset address that will be moved",
          "_strategyFromAddress": "Address of Strategy to move assets from.",
          "_strategyToAddress": "Address of Strategy to move assets to."
        }
      },
      "removeStrategy(address)": {
        "details": "Remove a strategy from the Vault. Removes all invested assets and returns them to the Vault.",
        "params": {
          "_addr": "Address of the strategy to remove"
        }
      },
      "setAdminImpl(address)": {
        "details": "set the implementation for the admin, this needs to be in a base class else we cannot set it",
        "params": {
          "newImpl": "address pf the implementation"
        }
      },
      "setAssetDefaultStrategy(address,address)": {
        "details": "Set the default Strategy for an asset, i.e. the one which the asset will be automatically allocated to and withdrawn from",
        "params": {
          "_asset": "Address of the asset",
          "_strategy": "Address of the Strategy"
        }
      },
      "setAutoAllocateThreshold(uint256)": {
        "details": "Sets the minimum amount of OUSD in a mint to trigger an automatic allocation of funds afterwords.",
        "params": {
          "_threshold": "OUSD amount with 18 fixed decimals."
        }
      },
      "setMaxSupplyDiff(uint256)": {
        "details": "Sets the maximum allowable difference between total supply and backing assets' value."
      },
      "setPriceProvider(address)": {
        "details": "Set address of price provider.",
        "params": {
          "_priceProvider": "Address of price provider"
        }
      },
      "setRebaseThreshold(uint256)": {
        "details": "Set a minimum amount of OUSD in a mint or redeem that triggers a rebase",
        "params": {
          "_threshold": "OUSD amount with 18 fixed decimals."
        }
      },
      "setRedeemFeeBps(uint256)": {
        "details": "Set a fee in basis points to be charged for a redeem.",
        "params": {
          "_redeemFeeBps": "Basis point fee to be charged"
        }
      },
      "setStrategistAddr(address)": {
        "details": "Set address of Strategist",
        "params": {
          "_address": "Address of Strategist"
        }
      },
      "setUniswapAddr(address)": {
        "details": "Set address of Uniswap for performing liquidation of strategy reward tokens",
        "params": {
          "_address": "Address of Uniswap"
        }
      },
      "setVaultBuffer(uint256)": {
        "details": "Set a buffer of assets to keep in the Vault to handle most redemptions without needing to spend gas unwinding assets from a Strategy.",
        "params": {
          "_vaultBuffer": "Percentage using 18 decimals. 100% = 1e18."
        }
      },
      "supportAsset(address)": {
        "details": "Add a supported asset to the contract, i.e. one that can be        to mint OUSD.",
        "params": {
          "_asset": "Address of asset"
        }
      },
      "transferGovernance(address)": {
        "details": "Transfers Governance of the contract to a new account (`newGovernor`). Can only be called by the current Governor. Must be claimed for this to complete",
        "params": {
          "_newGovernor": "Address of the new Governor"
        }
      },
      "transferToken(address,uint256)": {
        "details": "Transfer token to governor. Intended for recovering tokens stuck in     contract, i.e. mistaken sends.",
        "params": {
          "_amount": "Amount of the asset to transfer",
          "_asset": "Address for the asset"
        }
      },
      "unpauseCapital()": {
        "details": "Set the deposit paused flag to false to enable capital movement."
      },
      "unpauseRebase()": {
        "details": "Set the deposit paused flag to true to allow rebasing."
      }
    }
  },
  "userdoc": {
    "methods": {
      "reallocate(address,address,address[],uint256[])": {
        "notice": "Move assets from one Strategy to another"
      }
    }
  }
}