{
  "abi": [
    {
      "constant": false,
      "inputs": [],
      "name": "pauseDeposits",
      "outputs": [],
      "payable": false,
      "stateMutability": "nonpayable",
      "type": "function"
    },
    {
      "constant": true,
      "inputs": [],
      "name": "depositPaused",
      "outputs": [
        {
          "internalType": "bool",
          "name": "",
          "type": "bool"
        }
      ],
      "payable": false,
      "stateMutability": "view",
      "type": "function"
    },
    {
      "constant": false,
      "inputs": [
        {
          "internalType": "address[]",
          "name": "_assets",
          "type": "address[]"
        },
        {
          "internalType": "uint256[]",
          "name": "_amounts",
          "type": "uint256[]"
        }
      ],
      "name": "mintMultiple",
      "outputs": [],
      "payable": false,
      "stateMutability": "nonpayable",
      "type": "function"
    },
    {
      "constant": false,
      "inputs": [],
      "name": "unpauseRebase",
      "outputs": [],
      "payable": false,
      "stateMutability": "nonpayable",
      "type": "function"
    },
    {
      "constant": true,
      "inputs": [],
      "name": "redeemFeeBps",
      "outputs": [
        {
          "internalType": "uint256",
          "name": "",
          "type": "uint256"
        }
      ],
      "payable": false,
      "stateMutability": "view",
      "type": "function"
    },
    {
      "constant": true,
      "inputs": [],
      "name": "governor",
      "outputs": [
        {
          "internalType": "address",
          "name": "",
          "type": "address"
        }
      ],
      "payable": false,
      "stateMutability": "view",
      "type": "function"
    },
    {
      "constant": false,
      "inputs": [
        {
          "internalType": "address",
          "name": "_asset",
          "type": "address"
        },
        {
          "internalType": "uint256",
          "name": "_amount",
          "type": "uint256"
        }
      ],
      "name": "transferToken",
      "outputs": [],
      "payable": false,
      "stateMutability": "nonpayable",
      "type": "function"
    },
    {
      "constant": false,
      "inputs": [
        {
          "internalType": "address",
          "name": "_addr",
          "type": "address"
        }
      ],
      "name": "removeStrategy",
      "outputs": [],
      "payable": false,
      "stateMutability": "nonpayable",
      "type": "function"
    },
    {
      "constant": false,
      "inputs": [
        {
          "internalType": "address",
          "name": "asset",
          "type": "address"
        }
      ],
      "name": "priceAssetUSDRedeem",
      "outputs": [
        {
          "internalType": "uint256",
          "name": "",
          "type": "uint256"
        }
      ],
      "payable": false,
      "stateMutability": "nonpayable",
      "type": "function"
    },
    {
      "constant": true,
      "inputs": [],
      "name": "vaultBuffer",
      "outputs": [
        {
          "internalType": "uint256",
          "name": "",
          "type": "uint256"
        }
      ],
      "payable": false,
      "stateMutability": "view",
      "type": "function"
    },
    {
      "constant": false,
      "inputs": [
        {
          "internalType": "string",
          "name": "symbol",
          "type": "string"
        }
      ],
      "name": "priceUSDRedeem",
      "outputs": [
        {
          "internalType": "uint256",
          "name": "",
          "type": "uint256"
        }
      ],
      "payable": false,
      "stateMutability": "nonpayable",
      "type": "function"
    },
    {
      "constant": true,
      "inputs": [],
      "name": "getAllAssets",
      "outputs": [
        {
          "internalType": "address[]",
          "name": "",
          "type": "address[]"
        }
      ],
      "payable": false,
      "stateMutability": "view",
      "type": "function"
    },
    {
      "constant": false,
      "inputs": [],
      "name": "redeemAll",
      "outputs": [],
      "payable": false,
      "stateMutability": "nonpayable",
      "type": "function"
    },
    {
      "constant": true,
      "inputs": [],
      "name": "getStrategyCount",
      "outputs": [
        {
          "internalType": "uint256",
          "name": "",
          "type": "uint256"
        }
      ],
      "payable": false,
      "stateMutability": "view",
      "type": "function"
    },
    {
      "constant": false,
      "inputs": [
        {
          "internalType": "address",
          "name": "_priceProvider",
          "type": "address"
        }
      ],
      "name": "setPriceProvider",
      "outputs": [],
      "payable": false,
      "stateMutability": "nonpayable",
      "type": "function"
    },
    {
      "constant": false,
      "inputs": [
        {
          "internalType": "address",
          "name": "_asset",
          "type": "address"
        },
        {
          "internalType": "uint256",
          "name": "_amount",
          "type": "uint256"
        }
      ],
      "name": "mint",
      "outputs": [],
      "payable": false,
      "stateMutability": "nonpayable",
      "type": "function"
    },
    {
      "constant": false,
      "inputs": [
        {
          "internalType": "address",
          "name": "asset",
          "type": "address"
        }
      ],
      "name": "priceAssetUSDMint",
      "outputs": [
        {
          "internalType": "uint256",
          "name": "",
          "type": "uint256"
        }
      ],
      "payable": false,
      "stateMutability": "nonpayable",
      "type": "function"
    },
    {
      "constant": false,
      "inputs": [
        {
          "internalType": "address",
          "name": "_priceProvider",
          "type": "address"
        },
        {
          "internalType": "address",
          "name": "_ousd",
          "type": "address"
        }
      ],
      "name": "initialize",
      "outputs": [],
      "payable": false,
      "stateMutability": "nonpayable",
      "type": "function"
    },
    {
      "constant": false,
      "inputs": [
        {
          "internalType": "address",
          "name": "_asset",
          "type": "address"
        }
      ],
      "name": "supportAsset",
      "outputs": [],
      "payable": false,
      "stateMutability": "nonpayable",
      "type": "function"
    },
    {
      "constant": false,
      "inputs": [
        {
          "internalType": "address[]",
          "name": "_strategyAddresses",
          "type": "address[]"
        },
        {
          "internalType": "uint256[]",
          "name": "_weights",
          "type": "uint256[]"
        }
      ],
      "name": "setStrategyWeights",
      "outputs": [],
      "payable": false,
      "stateMutability": "nonpayable",
      "type": "function"
    },
    {
      "constant": true,
      "inputs": [],
      "name": "rebaseThreshold",
      "outputs": [
        {
          "internalType": "uint256",
          "name": "",
          "type": "uint256"
        }
      ],
      "payable": false,
      "stateMutability": "view",
      "type": "function"
    },
    {
      "constant": true,
      "inputs": [],
      "name": "rebasePaused",
      "outputs": [
        {
          "internalType": "bool",
          "name": "",
          "type": "bool"
        }
      ],
      "payable": false,
      "stateMutability": "view",
      "type": "function"
    },
    {
      "constant": false,
      "inputs": [],
      "name": "claimGovernance",
      "outputs": [],
      "payable": false,
      "stateMutability": "nonpayable",
      "type": "function"
    },
    {
      "constant": true,
      "inputs": [
        {
          "internalType": "address",
          "name": "_asset",
          "type": "address"
        }
      ],
      "name": "checkBalance",
      "outputs": [
        {
          "internalType": "uint256",
          "name": "",
          "type": "uint256"
        }
      ],
      "payable": false,
      "stateMutability": "view",
      "type": "function"
    },
    {
      "constant": false,
      "inputs": [],
      "name": "unpauseDeposits",
      "outputs": [],
      "payable": false,
      "stateMutability": "nonpayable",
      "type": "function"
    },
    {
      "constant": false,
      "inputs": [
        {
          "internalType": "uint256",
          "name": "_amount",
          "type": "uint256"
        }
      ],
      "name": "calculateRedeemOutputs",
      "outputs": [
        {
          "internalType": "uint256[]",
          "name": "",
          "type": "uint256[]"
        }
      ],
      "payable": false,
      "stateMutability": "nonpayable",
      "type": "function"
    },
    {
      "constant": false,
      "inputs": [
        {
          "internalType": "string",
          "name": "symbol",
          "type": "string"
        }
      ],
      "name": "priceUSDMint",
      "outputs": [
        {
          "internalType": "uint256",
          "name": "",
          "type": "uint256"
        }
      ],
      "payable": false,
      "stateMutability": "nonpayable",
      "type": "function"
    },
    {
      "constant": false,
      "inputs": [
        {
          "internalType": "uint256",
          "name": "_vaultBuffer",
          "type": "uint256"
        }
      ],
      "name": "setVaultBuffer",
      "outputs": [],
      "payable": false,
      "stateMutability": "nonpayable",
      "type": "function"
    },
    {
      "constant": true,
      "inputs": [
        {
          "internalType": "address",
          "name": "_asset",
          "type": "address"
        }
      ],
      "name": "isSupportedAsset",
      "outputs": [
        {
          "internalType": "bool",
          "name": "",
          "type": "bool"
        }
      ],
      "payable": false,
      "stateMutability": "view",
      "type": "function"
    },
    {
      "constant": true,
      "inputs": [],
      "name": "autoAllocateThreshold",
      "outputs": [
        {
          "internalType": "uint256",
          "name": "",
          "type": "uint256"
        }
      ],
      "payable": false,
      "stateMutability": "view",
      "type": "function"
    },
    {
      "constant": true,
      "inputs": [],
      "name": "getAssetCount",
      "outputs": [
        {
          "internalType": "uint256",
          "name": "",
          "type": "uint256"
        }
      ],
      "payable": false,
      "stateMutability": "view",
      "type": "function"
    },
    {
      "constant": false,
      "inputs": [],
      "name": "allocate",
      "outputs": [],
      "payable": false,
      "stateMutability": "nonpayable",
      "type": "function"
    },
    {
      "constant": false,
      "inputs": [],
      "name": "rebase",
      "outputs": [
        {
          "internalType": "uint256",
          "name": "",
          "type": "uint256"
        }
      ],
      "payable": false,
      "stateMutability": "nonpayable",
      "type": "function"
    },
    {
      "constant": false,
      "inputs": [
        {
          "internalType": "uint256",
          "name": "_threshold",
          "type": "uint256"
        }
      ],
      "name": "setAutoAllocateThreshold",
      "outputs": [],
      "payable": false,
      "stateMutability": "nonpayable",
      "type": "function"
    },
    {
      "constant": true,
      "inputs": [],
      "name": "priceProvider",
      "outputs": [
        {
          "internalType": "address",
          "name": "",
          "type": "address"
        }
      ],
      "payable": false,
      "stateMutability": "view",
      "type": "function"
    },
    {
      "constant": false,
      "inputs": [
        {
          "internalType": "uint256",
          "name": "_threshold",
          "type": "uint256"
        }
      ],
      "name": "setRebaseThreshold",
      "outputs": [],
      "payable": false,
      "stateMutability": "nonpayable",
      "type": "function"
    },
    {
      "constant": false,
      "inputs": [],
      "name": "pauseRebase",
      "outputs": [],
      "payable": false,
      "stateMutability": "nonpayable",
      "type": "function"
    },
    {
      "constant": true,
      "inputs": [],
      "name": "isGovernor",
      "outputs": [
        {
          "internalType": "bool",
          "name": "",
          "type": "bool"
        }
      ],
      "payable": false,
      "stateMutability": "view",
      "type": "function"
    },
    {
      "constant": false,
      "inputs": [],
      "name": "getAPR",
      "outputs": [
        {
          "internalType": "uint256",
          "name": "",
          "type": "uint256"
        }
      ],
      "payable": false,
      "stateMutability": "nonpayable",
      "type": "function"
    },
    {
      "constant": false,
      "inputs": [
        {
          "internalType": "address",
          "name": "_addr",
          "type": "address"
        },
        {
          "internalType": "uint256",
          "name": "_targetWeight",
          "type": "uint256"
        }
      ],
      "name": "addStrategy",
      "outputs": [],
      "payable": false,
      "stateMutability": "nonpayable",
      "type": "function"
    },
    {
      "constant": false,
      "inputs": [
        {
          "internalType": "address",
          "name": "_newGovernor",
          "type": "address"
        }
      ],
      "name": "transferGovernance",
      "outputs": [],
      "payable": false,
      "stateMutability": "nonpayable",
      "type": "function"
    },
    {
      "constant": false,
      "inputs": [],
      "name": "totalValue",
      "outputs": [
        {
          "internalType": "uint256",
          "name": "value",
          "type": "uint256"
        }
      ],
      "payable": false,
      "stateMutability": "nonpayable",
      "type": "function"
    },
    {
      "constant": false,
      "inputs": [
        {
          "internalType": "uint256",
          "name": "_amount",
          "type": "uint256"
        }
      ],
      "name": "redeem",
      "outputs": [],
      "payable": false,
      "stateMutability": "nonpayable",
      "type": "function"
    },
    {
      "constant": false,
      "inputs": [
        {
          "internalType": "uint256",
          "name": "_redeemFeeBps",
          "type": "uint256"
        }
      ],
      "name": "setRedeemFeeBps",
      "outputs": [],
      "payable": false,
      "stateMutability": "nonpayable",
      "type": "function"
    },
    {
      "anonymous": false,
      "inputs": [
        {
          "indexed": false,
          "internalType": "address",
          "name": "_asset",
          "type": "address"
        }
      ],
      "name": "AssetSupported",
      "type": "event"
    },
    {
      "anonymous": false,
      "inputs": [
        {
          "indexed": false,
          "internalType": "address",
          "name": "_addr",
          "type": "address"
        }
      ],
      "name": "StrategyAdded",
      "type": "event"
    },
    {
      "anonymous": false,
      "inputs": [
        {
          "indexed": false,
          "internalType": "address",
          "name": "_addr",
          "type": "address"
        }
      ],
      "name": "StrategyRemoved",
      "type": "event"
    },
    {
      "anonymous": false,
      "inputs": [
        {
          "indexed": false,
          "internalType": "address",
          "name": "_addr",
          "type": "address"
        },
        {
          "indexed": false,
          "internalType": "uint256",
          "name": "_value",
          "type": "uint256"
        }
      ],
      "name": "Mint",
      "type": "event"
    },
    {
      "anonymous": false,
      "inputs": [
        {
          "indexed": false,
          "internalType": "address",
          "name": "_addr",
          "type": "address"
        },
        {
          "indexed": false,
          "internalType": "uint256",
          "name": "_value",
          "type": "uint256"
        }
      ],
      "name": "Redeem",
      "type": "event"
    },
    {
      "anonymous": false,
      "inputs": [
        {
          "indexed": false,
          "internalType": "address[]",
          "name": "_strategyAddresses",
          "type": "address[]"
        },
        {
          "indexed": false,
          "internalType": "uint256[]",
          "name": "weights",
          "type": "uint256[]"
        }
      ],
      "name": "StrategyWeightsUpdated",
      "type": "event"
    },
    {
      "anonymous": false,
      "inputs": [],
      "name": "DepositsPaused",
      "type": "event"
    },
    {
      "anonymous": false,
      "inputs": [],
      "name": "DepositsUnpaused",
      "type": "event"
    },
    {
      "anonymous": false,
      "inputs": [
        {
          "indexed": true,
          "internalType": "address",
          "name": "previousGovernor",
          "type": "address"
        },
        {
          "indexed": true,
          "internalType": "address",
          "name": "newGovernor",
          "type": "address"
        }
      ],
      "name": "PendingGovernorshipTransfer",
      "type": "event"
    },
    {
      "anonymous": false,
      "inputs": [
        {
          "indexed": true,
          "internalType": "address",
          "name": "previousGovernor",
          "type": "address"
        },
        {
          "indexed": true,
          "internalType": "address",
          "name": "newGovernor",
          "type": "address"
        }
      ],
      "name": "GovernorshipTransferred",
      "type": "event"
    }
  ],
  "address": "0x91B417BAe2F17fbaCE1c0130C41f83Fed42707bB",
  "args": [],
  "solcInputHash": "0xc3ed58d4ac120dfa2919d321de583c8a3efae00bddc1941bf938edf126b8030a",
  "bytecode": "0x60806040526000603760146101000a81548160ff0219169083151502179055506001603760156101000a81548160ff0219169083151502179055506200004b33620000bb60201b60201c565b6200005b620000ea60201b60201c565b73ffffffffffffffffffffffffffffffffffffffff16600073ffffffffffffffffffffffffffffffffffffffff167fc7c0c772add429241571afb3805861fb3cfa2af374534088b76cdb4325a87e9a60405160405180910390a36200011b565b60007f7bea13895fa79d2831e0a9e28edede30099005a50d652d8957cf8a607ee6ca4a60001b90508181555050565b6000807f7bea13895fa79d2831e0a9e28edede30099005a50d652d8957cf8a607ee6ca4a60001b9050805491505090565b615d7c806200012b6000396000f3fe608060405234801561001057600080fd5b50600436106102745760003560e01c80635d36b19011610151578063b2c9336d116100c3578063c89d5b8b11610087578063c89d5b8b14610bdd578063c9411e2214610bfb578063d38bfff414610c49578063d4c3eea014610c8d578063db006a7514610cab578063eb03654b14610cd957610274565b8063b2c9336d14610b0b578063b888879e14610b39578063b890ebf614610b83578063c5f0084114610bb1578063c7af335214610bbb57610274565b80638ec489a2116101155780638ec489a214610a1d5780639be918e614610a4b5780639fa1826e14610aa7578063a0aead4d14610ac5578063abaa991614610ae3578063af14052c14610aed57610274565b80635d36b190146108a15780635f515226146108ab57806363d8882a1461090357806367bd7ba31461090d578063686b37ca1461099057610274565b80632acada4d116101ea57806343a00463116101ae57806343a0046314610693578063485cc955146106eb5780634cd55c2d1461074f5780634dab68b31461079357806352d38e5d1461086157806353ca9f241461087f57610274565b80632acada4d1461057a5780632f4350c2146105d957806331e19cfa146105e3578063372aa2241461060157806340c10f191461064557610274565b80630c340a241161023c5780630c340a241461039b5780631072cbea146103e5578063175188e81461043357806317e363c9146104775780631edfe3da146104cf57806329a903ec146104ed57610274565b8063021919801461027957806302befd241461028357806307ea5477146102a557806309f49bf51461037357806309f6442c1461037d575b600080fd5b610281610d07565b005b61028b610dca565b604051808215151515815260200191505060405180910390f35b610371600480360360408110156102bb57600080fd5b81019080803590602001906401000000008111156102d857600080fd5b8201836020820111156102ea57600080fd5b8035906020019184602083028401116401000000008311171561030c57600080fd5b90919293919293908035906020019064010000000081111561032d57600080fd5b82018360208201111561033f57600080fd5b8035906020019184602083028401116401000000008311171561036157600080fd5b9091929391929390505050610ddd565b005b61037b6110a3565b005b61038561113a565b6040518082815260200191505060405180910390f35b6103a3611140565b604051808273ffffffffffffffffffffffffffffffffffffffff1673ffffffffffffffffffffffffffffffffffffffff16815260200191505060405180910390f35b610431600480360360408110156103fb57600080fd5b81019080803573ffffffffffffffffffffffffffffffffffffffff1690602001909291908035906020019092919050505061114f565b005b6104756004803603602081101561044957600080fd5b81019080803573ffffffffffffffffffffffffffffffffffffffff169060200190929190505050611297565b005b6104b96004803603602081101561048d57600080fd5b81019080803573ffffffffffffffffffffffffffffffffffffffff1690602001909291905050506115f7565b6040518082815260200191505060405180910390f35b6104d7611611565b6040518082815260200191505060405180910390f35b6105646004803603602081101561050357600080fd5b810190808035906020019064010000000081111561052057600080fd5b82018360208201111561053257600080fd5b8035906020019184600183028401116401000000008311171561055457600080fd5b9091929391929390505050611617565b6040518082815260200191505060405180910390f35b61058261166e565b6040518080602001828103825283818151815260200191508051906020019060200280838360005b838110156105c55780820151818401526020810190506105aa565b505050509050019250505060405180910390f35b6105e16116fc565b005b6105eb6117e0565b6040518082815260200191505060405180910390f35b6106436004803603602081101561061757600080fd5b81019080803573ffffffffffffffffffffffffffffffffffffffff1690602001909291905050506117ed565b005b6106916004803603604081101561065b57600080fd5b81019080803573ffffffffffffffffffffffffffffffffffffffff169060200190929190803590602001909291905050506118ab565b005b6106d5600480360360208110156106a957600080fd5b81019080803573ffffffffffffffffffffffffffffffffffffffff169060200190929190505050611c17565b6040518082815260200191505060405180910390f35b61074d6004803603604081101561070157600080fd5b81019080803573ffffffffffffffffffffffffffffffffffffffff169060200190929190803573ffffffffffffffffffffffffffffffffffffffff169060200190929190505050611c31565b005b6107916004803603602081101561076557600080fd5b81019080803573ffffffffffffffffffffffffffffffffffffffff169060200190929190505050611fdb565b005b61085f600480360360408110156107a957600080fd5b81019080803590602001906401000000008111156107c657600080fd5b8201836020820111156107d857600080fd5b803590602001918460208302840111640100000000831117156107fa57600080fd5b90919293919293908035906020019064010000000081111561081b57600080fd5b82018360208201111561082d57600080fd5b8035906020019184602083028401116401000000008311171561084f57600080fd5b9091929391929390505050612258565b005b610869612490565b6040518082815260200191505060405180910390f35b610887612496565b604051808215151515815260200191505060405180910390f35b6108a96124a9565b005b6108ed600480360360208110156108c157600080fd5b81019080803573ffffffffffffffffffffffffffffffffffffffff16906020019092919050505061253f565b6040518082815260200191505060405180910390f35b61090b612551565b005b6109396004803603602081101561092357600080fd5b8101908080359060200190929190505050612614565b6040518080602001828103825283818151815260200191508051906020019060200280838360005b8381101561097c578082015181840152602081019050610961565b505050509050019250505060405180910390f35b610a07600480360360208110156109a657600080fd5b81019080803590602001906401000000008111156109c357600080fd5b8201836020820111156109d557600080fd5b803590602001918460018302840111640100000000831117156109f757600080fd5b9091929391929390505050612626565b6040518082815260200191505060405180910390f35b610a4960048036036020811015610a3357600080fd5b810190808035906020019092919050505061267d565b005b610a8d60048036036020811015610a6157600080fd5b81019080803573ffffffffffffffffffffffffffffffffffffffff169060200190929190505050612701565b604051808215151515815260200191505060405180910390f35b610aaf61275a565b6040518082815260200191505060405180910390f35b610acd612760565b6040518082815260200191505060405180910390f35b610aeb61276d565b005b610af5612aee565b6040518082815260200191505060405180910390f35b610b3760048036036020811015610b2157600080fd5b8101908080359060200190929190505050612ce4565b005b610b41612d68565b604051808273ffffffffffffffffffffffffffffffffffffffff1673ffffffffffffffffffffffffffffffffffffffff16815260200191505060405180910390f35b610baf60048036036020811015610b9957600080fd5b8101908080359060200190929190505050612d8e565b005b610bb9612e12565b005b610bc3612ea9565b604051808215151515815260200191505060405180910390f35b610be5612ee6565b6040518082815260200191505060405180910390f35b610c4760048036036040811015610c1157600080fd5b81019080803573ffffffffffffffffffffffffffffffffffffffff169060200190929190803590602001909291905050506130e4565b005b610c8b60048036036020811015610c5f57600080fd5b81019080803573ffffffffffffffffffffffffffffffffffffffff169060200190929190505050613372565b005b610c95613459565b6040518082815260200191505060405180910390f35b610cd760048036036020811015610cc157600080fd5b8101908080359060200190929190505050613468565b005b610d0560048036036020811015610cef57600080fd5b8101908080359060200190929190505050613aaa565b005b610d0f612ea9565b610d81576040517f08c379a000000000000000000000000000000000000000000000000000000000815260040180806020018281038252601a8152602001807f43616c6c6572206973206e6f742074686520476f7665726e6f7200000000000081525060200191505060405180910390fd5b6001603760156101000a81548160ff0219169083151502179055507fdeeb69430b7153361c25d630947115165636e6a723fa8daea4b0de34b324745960405160405180910390a1565b603760159054906101000a900460ff1681565b818190508484905014610e58576040517f08c379a00000000000000000000000000000000000000000000000000000000081526004018080602001828103825260198152602001807f506172616d65746572206c656e677468206d69736d617463680000000000000081525060200191505060405180910390fd5b600080905060008090505b85859050811015610f30576000868683818110610e7c57fe5b9050602002013573ffffffffffffffffffffffffffffffffffffffff169050610eda3330878786818110610eac57fe5b905060200201358473ffffffffffffffffffffffffffffffffffffffff16613b2e909392919063ffffffff16565b610f1e878784818110610ee957fe5b9050602002013573ffffffffffffffffffffffffffffffffffffffff16868685818110610f1257fe5b90506020020135613c34565b83019250508080600101915050610e63565b50603b5481118015610f4f5750603760149054906101000a900460ff16155b15610f5e57610f5c612aee565b505b603c60009054906101000a900473ffffffffffffffffffffffffffffffffffffffff1673ffffffffffffffffffffffffffffffffffffffff166340c10f1933836040518363ffffffff1660e01b8152600401808373ffffffffffffffffffffffffffffffffffffffff1673ffffffffffffffffffffffffffffffffffffffff16815260200182815260200192505050600060405180830381600087803b15801561100757600080fd5b505af115801561101b573d6000803e3d6000fd5b505050507f0f6798a560793a54c3bcfe86a93cde1e73087d944c0ea20544137d41213968853382604051808373ffffffffffffffffffffffffffffffffffffffff1673ffffffffffffffffffffffffffffffffffffffff1681526020018281526020019250505060405180910390a1603a54811061109c5761109b61276d565b5b5050505050565b6110ab612ea9565b61111d576040517f08c379a000000000000000000000000000000000000000000000000000000000815260040180806020018281038252601a8152602001807f43616c6c6572206973206e6f742074686520476f7665726e6f7200000000000081525060200191505060405180910390fd5b6000603760146101000a81548160ff021916908315150217905550565b60385481565b600061114a613daa565b905090565b611157612ea9565b6111c9576040517f08c379a000000000000000000000000000000000000000000000000000000000815260040180806020018281038252601a8152602001807f43616c6c6572206973206e6f742074686520476f7665726e6f7200000000000081525060200191505060405180910390fd5b8173ffffffffffffffffffffffffffffffffffffffff1663a9059cbb6111ed611140565b836040518363ffffffff1660e01b8152600401808373ffffffffffffffffffffffffffffffffffffffff1673ffffffffffffffffffffffffffffffffffffffff16815260200182815260200192505050602060405180830381600087803b15801561125757600080fd5b505af115801561126b573d6000803e3d6000fd5b505050506040513d602081101561128157600080fd5b8101908080519060200190929190505050505050565b61129f612ea9565b611311576040517f08c379a000000000000000000000000000000000000000000000000000000000815260040180806020018281038252601a8152602001807f43616c6c6572206973206e6f742074686520476f7665726e6f7200000000000081525060200191505060405180910390fd5b603560008273ffffffffffffffffffffffffffffffffffffffff1673ffffffffffffffffffffffffffffffffffffffff16815260200190815260200160002060000160009054906101000a900460ff166113d3576040517f08c379a00000000000000000000000000000000000000000000000000000000081526004018080602001828103825260128152602001807f5374726174656779206e6f74206164646564000000000000000000000000000081525060200191505060405180910390fd5b6000603680549050905060008090505b603680549050811015611470578273ffffffffffffffffffffffffffffffffffffffff166036828154811061141457fe5b9060005260206000200160009054906101000a900473ffffffffffffffffffffffffffffffffffffffff1673ffffffffffffffffffffffffffffffffffffffff16141561146357809150611470565b80806001019150506113e3565b50603680549050811061147f57fe5b60366001603680549050038154811061149457fe5b9060005260206000200160009054906101000a900473ffffffffffffffffffffffffffffffffffffffff16603682815481106114cc57fe5b9060005260206000200160006101000a81548173ffffffffffffffffffffffffffffffffffffffff021916908373ffffffffffffffffffffffffffffffffffffffff16021790555060368054809190600190036115299190615c24565b5060008290508073ffffffffffffffffffffffffffffffffffffffff166328a070256040518163ffffffff1660e01b8152600401600060405180830381600087803b15801561157757600080fd5b505af115801561158b573d6000803e3d6000fd5b505050507f09a1db4b80c32706328728508c941a6b954f31eb5affd32f236c1fd405f8fea483604051808273ffffffffffffffffffffffffffffffffffffffff1673ffffffffffffffffffffffffffffffffffffffff16815260200191505060405180910390a1505050565b600061160a61160583613ddb565b613f28565b9050919050565b60395481565b600061166683838080601f016020809104026020016040519081016040528093929190818152602001838380828437600081840152601f19601f82011690508083019250505050505050613f28565b905092915050565b606060348054806020026020016040519081016040528092919081815260200182805480156116f257602002820191906000526020600020905b8160009054906101000a900473ffffffffffffffffffffffffffffffffffffffff1673ffffffffffffffffffffffffffffffffffffffff16815260200190600101908083116116a8575b5050505050905090565b6117de603c60009054906101000a900473ffffffffffffffffffffffffffffffffffffffff1673ffffffffffffffffffffffffffffffffffffffff166370a08231336040518263ffffffff1660e01b8152600401808273ffffffffffffffffffffffffffffffffffffffff1673ffffffffffffffffffffffffffffffffffffffff16815260200191505060206040518083038186803b15801561179e57600080fd5b505afa1580156117b2573d6000803e3d6000fd5b505050506040513d60208110156117c857600080fd5b8101908080519060200190929190505050613468565b565b6000603680549050905090565b6117f5612ea9565b611867576040517f08c379a000000000000000000000000000000000000000000000000000000000815260040180806020018281038252601a8152602001807f43616c6c6572206973206e6f742074686520476f7665726e6f7200000000000081525060200191505060405180910390fd5b80603760006101000a81548173ffffffffffffffffffffffffffffffffffffffff021916908373ffffffffffffffffffffffffffffffffffffffff16021790555050565b603760159054906101000a900460ff161561192e576040517f08c379a00000000000000000000000000000000000000000000000000000000081526004018080602001828103825260138152602001807f4465706f7369747320617265207061757365640000000000000000000000000081525060200191505060405180910390fd5b603360008373ffffffffffffffffffffffffffffffffffffffff1673ffffffffffffffffffffffffffffffffffffffff16815260200190815260200160002060000160009054906101000a900460ff166119f0576040517f08c379a00000000000000000000000000000000000000000000000000000000081526004018080602001828103825260168152602001807f4173736574206973206e6f7420737570706f727465640000000000000000000081525060200191505060405180910390fd5b60008111611a66576040517f08c379a000000000000000000000000000000000000000000000000000000000815260040180806020018281038252601d8152602001807f416d6f756e74206d7573742062652067726561746572207468616e203000000081525060200191505060405180910390fd5b6000829050611a983330848473ffffffffffffffffffffffffffffffffffffffff16613b2e909392919063ffffffff16565b6000611aa48484613c34565b9050603b5481118015611ac45750603760149054906101000a900460ff16155b15611ad357611ad1612aee565b505b603c60009054906101000a900473ffffffffffffffffffffffffffffffffffffffff1673ffffffffffffffffffffffffffffffffffffffff166340c10f1933836040518363ffffffff1660e01b8152600401808373ffffffffffffffffffffffffffffffffffffffff1673ffffffffffffffffffffffffffffffffffffffff16815260200182815260200192505050600060405180830381600087803b158015611b7c57600080fd5b505af1158015611b90573d6000803e3d6000fd5b505050507f0f6798a560793a54c3bcfe86a93cde1e73087d944c0ea20544137d41213968853382604051808373ffffffffffffffffffffffffffffffffffffffff1673ffffffffffffffffffffffffffffffffffffffff1681526020018281526020019250505060405180910390a1603a548110611c1157611c1061276d565b5b50505050565b6000611c2a611c2583613ddb565b614059565b9050919050565b611c39612ea9565b611cab576040517f08c379a000000000000000000000000000000000000000000000000000000000815260040180806020018281038252601a8152602001807f43616c6c6572206973206e6f742074686520476f7665726e6f7200000000000081525060200191505060405180910390fd5b600060019054906101000a900460ff1680611cca5750611cc961418a565b5b80611ce157506000809054906101000a900460ff16155b611d36576040517f08c379a000000000000000000000000000000000000000000000000000000000815260040180806020018281038252602e815260200180615cc0602e913960400191505060405180910390fd5b60008060019054906101000a900460ff161590508015611d86576001600060016101000a81548160ff02191690831515021790555060016000806101000a81548160ff0219169083151502179055505b600073ffffffffffffffffffffffffffffffffffffffff168373ffffffffffffffffffffffffffffffffffffffff161415611e29576040517f08c379a000000000000000000000000000000000000000000000000000000000815260040180806020018281038252601d8152602001807f507269636550726f76696465722061646472657373206973207a65726f00000081525060200191505060405180910390fd5b600073ffffffffffffffffffffffffffffffffffffffff168273ffffffffffffffffffffffffffffffffffffffff161415611ecc576040517f08c379a00000000000000000000000000000000000000000000000000000000081526004018080602001828103825260148152602001807f6f5553442061646472657373206973207a65726f00000000000000000000000081525060200191505060405180910390fd5b81603c60006101000a81548173ffffffffffffffffffffffffffffffffffffffff021916908373ffffffffffffffffffffffffffffffffffffffff16021790555082603760006101000a81548173ffffffffffffffffffffffffffffffffffffffff021916908373ffffffffffffffffffffffffffffffffffffffff1602179055506000603760146101000a81548160ff0219169083151502179055506001603760156101000a81548160ff0219169083151502179055506000603881905550600060398190555069054b40b1f852bda00000603a81905550683635c9adc5dea00000603b819055508015611fd65760008060016101000a81548160ff0219169083151502179055505b505050565b611fe3612ea9565b612055576040517f08c379a000000000000000000000000000000000000000000000000000000000815260040180806020018281038252601a8152602001807f43616c6c6572206973206e6f742074686520476f7665726e6f7200000000000081525060200191505060405180910390fd5b603360008273ffffffffffffffffffffffffffffffffffffffff1673ffffffffffffffffffffffffffffffffffffffff16815260200190815260200160002060000160009054906101000a900460ff1615612118576040517f08c379a00000000000000000000000000000000000000000000000000000000081526004018080602001828103825260178152602001807f417373657420616c726561647920737570706f7274656400000000000000000081525060200191505060405180910390fd5b604051806020016040528060011515815250603360008373ffffffffffffffffffffffffffffffffffffffff1673ffffffffffffffffffffffffffffffffffffffff16815260200190815260200160002060008201518160000160006101000a81548160ff02191690831515021790555090505060348190806001815401808255809150509060018203906000526020600020016000909192909190916101000a81548173ffffffffffffffffffffffffffffffffffffffff021916908373ffffffffffffffffffffffffffffffffffffffff160217905550507f4f1ac48525e50059cc1cc6e0e1940ece0dd653a4db4841538d6aef036be2fb7b81604051808273ffffffffffffffffffffffffffffffffffffffff1673ffffffffffffffffffffffffffffffffffffffff16815260200191505060405180910390a150565b612260612ea9565b6122d2576040517f08c379a000000000000000000000000000000000000000000000000000000000815260040180806020018281038252601a8152602001807f43616c6c6572206973206e6f742074686520476f7665726e6f7200000000000081525060200191505060405180910390fd5b81819050848490501461234d576040517f08c379a00000000000000000000000000000000000000000000000000000000081526004018080602001828103825260198152602001807f506172616d65746572206c656e677468206d69736d617463680000000000000081525060200191505060405180910390fd5b60008090505b848490508110156123ec5782828281811061236a57fe5b905060200201356035600087878581811061238157fe5b9050602002013573ffffffffffffffffffffffffffffffffffffffff1673ffffffffffffffffffffffffffffffffffffffff1673ffffffffffffffffffffffffffffffffffffffff168152602001908152602001600020600101819055508080600101915050612353565b507f96f2c15ff9c9cea757ec12e3f9aaa7705c3d0a154ee1e71c6e1221c8de0b7762848484846040518080602001806020018381038352878782818152602001925060200280828437600081840152601f19601f8201169050808301925050508381038252858582818152602001925060200280828437600081840152601f19601f820116905080830192505050965050505050505060405180910390a150505050565b603b5481565b603760149054906101000a900460ff1681565b6124b16141a1565b73ffffffffffffffffffffffffffffffffffffffff163373ffffffffffffffffffffffffffffffffffffffff1614612534576040517f08c379a0000000000000000000000000000000000000000000000000000000008152600401808060200182810382526030815260200180615d186030913960400191505060405180910390fd5b61253d336141d2565b565b600061254a826142e2565b9050919050565b612559612ea9565b6125cb576040517f08c379a000000000000000000000000000000000000000000000000000000000815260040180806020018281038252601a8152602001807f43616c6c6572206973206e6f742074686520476f7665726e6f7200000000000081525060200191505060405180910390fd5b6000603760156101000a81548160ff0219169083151502179055507f823084e804e36d8971e8b86749b6b0ace7b9f87ed272bef910c1e72d123eeb4860405160405180910390a1565b606061261f82614580565b9050919050565b600061267583838080601f016020809104026020016040519081016040528093929190818152602001838380828437600081840152601f19601f82011690508083019250505050505050614059565b905092915050565b612685612ea9565b6126f7576040517f08c379a000000000000000000000000000000000000000000000000000000000815260040180806020018281038252601a8152602001807f43616c6c6572206973206e6f742074686520476f7665726e6f7200000000000081525060200191505060405180910390fd5b8060398190555050565b6000603360008373ffffffffffffffffffffffffffffffffffffffff1673ffffffffffffffffffffffffffffffffffffffff16815260200190815260200160002060000160009054906101000a900460ff169050919050565b603a5481565b6000603480549050905090565b6000612777614874565b905060006127836149e6565b9050600081830190506000808314156127aa57603954670de0b6b3a76400000390506127f5565b6127e8600085116127c357670de0b6b3a76400006127c5565b845b6127da84603954614a5390919063ffffffff16565b614ad990919063ffffffff16565b670de0b6b3a76400000390505b60008114156128075750505050612aec565b60008090505b603480549050811015612ae65760006034828154811061282957fe5b9060005260206000200160009054906101000a900473ffffffffffffffffffffffffffffffffffffffff16905060008173ffffffffffffffffffffffffffffffffffffffff166370a08231306040518263ffffffff1660e01b8152600401808273ffffffffffffffffffffffffffffffffffffffff1673ffffffffffffffffffffffffffffffffffffffff16815260200191505060206040518083038186803b1580156128d557600080fd5b505afa1580156128e9573d6000803e3d6000fd5b505050506040513d60208110156128ff57600080fd5b810190808051906020019092919050505090506000811415612922575050612ad9565b60006129646034858154811061293457fe5b9060005260206000200160009054906101000a900473ffffffffffffffffffffffffffffffffffffffff16614b23565b9050600061297e6012830387614c1c90919063ffffffff16565b9050600061299a8284600a0a86614c9d9092919063ffffffff16565b905060006129a786614cd2565b9050600073ffffffffffffffffffffffffffffffffffffffff168173ffffffffffffffffffffffffffffffffffffffff1614612ad2576000819050612a0d81848973ffffffffffffffffffffffffffffffffffffffff16614e889092919063ffffffff16565b8073ffffffffffffffffffffffffffffffffffffffff166347e7ef2488856040518363ffffffff1660e01b8152600401808373ffffffffffffffffffffffffffffffffffffffff1673ffffffffffffffffffffffffffffffffffffffff16815260200182815260200192505050602060405180830381600087803b158015612a9457600080fd5b505af1158015612aa8573d6000803e3d6000fd5b505050506040513d6020811015612abe57600080fd5b810190808051906020019092919050505050505b5050505050505b808060010191505061280d565b50505050505b565b6000603760149054906101000a900460ff1615612b73576040517f08c379a000000000000000000000000000000000000000000000000000000000815260040180806020018281038252600f8152602001807f5265626173696e6720706175736564000000000000000000000000000000000081525060200191505060405180910390fd5b6000603c60009054906101000a900473ffffffffffffffffffffffffffffffffffffffff1673ffffffffffffffffffffffffffffffffffffffff166318160ddd6040518163ffffffff1660e01b815260040160206040518083038186803b158015612bdd57600080fd5b505afa158015612bf1573d6000803e3d6000fd5b505050506040513d6020811015612c0757600080fd5b81019080805190602001909291905050501415612c275760009050612ce1565b603c60009054906101000a900473ffffffffffffffffffffffffffffffffffffffff1673ffffffffffffffffffffffffffffffffffffffff166339a7919f612c6d614f59565b6040518263ffffffff1660e01b815260040180828152602001915050602060405180830381600087803b158015612ca357600080fd5b505af1158015612cb7573d6000803e3d6000fd5b505050506040513d6020811015612ccd57600080fd5b810190808051906020019092919050505090505b90565b612cec612ea9565b612d5e576040517f08c379a000000000000000000000000000000000000000000000000000000000815260040180806020018281038252601a8152602001807f43616c6c6572206973206e6f742074686520476f7665726e6f7200000000000081525060200191505060405180910390fd5b80603a8190555050565b603760009054906101000a900473ffffffffffffffffffffffffffffffffffffffff1681565b612d96612ea9565b612e08576040517f08c379a000000000000000000000000000000000000000000000000000000000815260040180806020018281038252601a8152602001807f43616c6c6572206973206e6f742074686520476f7665726e6f7200000000000081525060200191505060405180910390fd5b80603b8190555050565b612e1a612ea9565b612e8c576040517f08c379a000000000000000000000000000000000000000000000000000000000815260040180806020018281038252601a8152602001807f43616c6c6572206973206e6f742074686520476f7665726e6f7200000000000081525060200191505060405180910390fd5b6001603760146101000a81548160ff021916908315150217905550565b6000612eb3613daa565b73ffffffffffffffffffffffffffffffffffffffff163373ffffffffffffffffffffffffffffffffffffffff1614905090565b600080612ef16117e0565b1415612f0057600090506130e1565b600080905060008090505b6036805490508110156130db57600060368281548110612f2757fe5b9060005260206000200160009054906101000a900473ffffffffffffffffffffffffffffffffffffffff16905060008173ffffffffffffffffffffffffffffffffffffffff1663c89d5b8b6040518163ffffffff1660e01b815260040160206040518083038186803b158015612f9c57600080fd5b505afa158015612fb0573d6000803e3d6000fd5b505050506040513d6020811015612fc657600080fd5b810190808051906020019092919050505011156130cd576130c88173ffffffffffffffffffffffffffffffffffffffff1663c89d5b8b6040518163ffffffff1660e01b815260040160206040518083038186803b15801561302657600080fd5b505afa15801561303a573d6000803e3d6000fd5b505050506040513d602081101561305057600080fd5b81019080805190602001909291905050506130ba61306c614f59565b6130ac6036878154811061307c57fe5b9060005260206000200160009054906101000a900473ffffffffffffffffffffffffffffffffffffffff16614f71565b6151da90919063ffffffff16565b61521690919063ffffffff16565b830192505b508080600101915050612f0b565b50809150505b90565b6130ec612ea9565b61315e576040517f08c379a000000000000000000000000000000000000000000000000000000000815260040180806020018281038252601a8152602001807f43616c6c6572206973206e6f742074686520476f7665726e6f7200000000000081525060200191505060405180910390fd5b603560008373ffffffffffffffffffffffffffffffffffffffff1673ffffffffffffffffffffffffffffffffffffffff16815260200190815260200160002060000160009054906101000a900460ff1615613221576040517f08c379a00000000000000000000000000000000000000000000000000000000081526004018080602001828103825260168152602001807f537472617465677920616c72656164792061646465640000000000000000000081525060200191505060405180910390fd5b604051806040016040528060011515815260200182815250603560008473ffffffffffffffffffffffffffffffffffffffff1673ffffffffffffffffffffffffffffffffffffffff16815260200190815260200160002060008201518160000160006101000a81548160ff0219169083151502179055506020820151816001015590505060368290806001815401808255809150509060018203906000526020600020016000909192909190916101000a81548173ffffffffffffffffffffffffffffffffffffffff021916908373ffffffffffffffffffffffffffffffffffffffff160217905550507f3f008fd510eae7a9e7bee13513d7b83bef8003d488b5a3d0b0da4de71d6846f182604051808273ffffffffffffffffffffffffffffffffffffffff1673ffffffffffffffffffffffffffffffffffffffff16815260200191505060405180910390a15050565b61337a612ea9565b6133ec576040517f08c379a000000000000000000000000000000000000000000000000000000000815260040180806020018281038252601a8152602001807f43616c6c6572206973206e6f742074686520476f7665726e6f7200000000000081525060200191505060405180910390fd5b6133f581615233565b8073ffffffffffffffffffffffffffffffffffffffff16613414613daa565b73ffffffffffffffffffffffffffffffffffffffff167fa39cc5eb22d0f34d8beaefee8a3f17cc229c1a1d1ef87a5ad47313487b1c4f0d60405160405180910390a350565b6000613463614f59565b905090565b600081116134de576040517f08c379a000000000000000000000000000000000000000000000000000000000815260040180806020018281038252601d8152602001807f416d6f756e74206d7573742062652067726561746572207468616e203000000081525060200191505060405180910390fd5b603b54811180156134fc5750603760149054906101000a900460ff16155b1561350b57613509612aee565b505b600080603854111561355f57600061354261271061353460385486614a5390919063ffffffff16565b614ad990919063ffffffff16565b9050613557818461526290919063ffffffff16565b915050613563565b8190505b606061356e82614580565b905060008090505b60348054905081101561394b57600082828151811061359157fe5b602002602001015114156135a45761393e565b60006135fa603483815481106135b657fe5b9060005260206000200160009054906101000a900473ffffffffffffffffffffffffffffffffffffffff168484815181106135ed57fe5b60200260200101516152ac565b905060006034838154811061360b57fe5b9060005260206000200160009054906101000a900473ffffffffffffffffffffffffffffffffffffffff16905083838151811061364457fe5b60200260200101518173ffffffffffffffffffffffffffffffffffffffff166370a08231306040518263ffffffff1660e01b8152600401808273ffffffffffffffffffffffffffffffffffffffff1673ffffffffffffffffffffffffffffffffffffffff16815260200191505060206040518083038186803b1580156136c957600080fd5b505afa1580156136dd573d6000803e3d6000fd5b505050506040513d60208110156136f357600080fd5b81019080805190602001909291905050501061374c576137473385858151811061371957fe5b60200260200101518373ffffffffffffffffffffffffffffffffffffffff16614e889092919063ffffffff16565b61393b565b600073ffffffffffffffffffffffffffffffffffffffff168273ffffffffffffffffffffffffffffffffffffffff16146138cc5760008290508073ffffffffffffffffffffffffffffffffffffffff1663d9caed1233603487815481106137af57fe5b9060005260206000200160009054906101000a900473ffffffffffffffffffffffffffffffffffffffff168888815181106137e657fe5b60200260200101516040518463ffffffff1660e01b8152600401808473ffffffffffffffffffffffffffffffffffffffff1673ffffffffffffffffffffffffffffffffffffffff1681526020018373ffffffffffffffffffffffffffffffffffffffff1673ffffffffffffffffffffffffffffffffffffffff1681526020018281526020019350505050602060405180830381600087803b15801561388a57600080fd5b505af115801561389e573d6000803e3d6000fd5b505050506040513d60208110156138b457600080fd5b8101908080519060200190929190505050505061393a565b6040517f08c379a000000000000000000000000000000000000000000000000000000000815260040180806020018281038252600f8152602001807f4c6971756964697479206572726f72000000000000000000000000000000000081525060200191505060405180910390fd5b5b50505b8080600101915050613576565b50603c60009054906101000a900473ffffffffffffffffffffffffffffffffffffffff1673ffffffffffffffffffffffffffffffffffffffff16639dc29fac33856040518363ffffffff1660e01b8152600401808373ffffffffffffffffffffffffffffffffffffffff1673ffffffffffffffffffffffffffffffffffffffff16815260200182815260200192505050600060405180830381600087803b1580156139f557600080fd5b505af1158015613a09573d6000803e3d6000fd5b50505050603b5483118015613a2b5750603760149054906101000a900460ff16155b15613a3a57613a38612aee565b505b7f222838db2794d11532d940e8dec38ae307ed0b63cd97c233322e221f998767a63384604051808373ffffffffffffffffffffffffffffffffffffffff1673ffffffffffffffffffffffffffffffffffffffff1681526020018281526020019250505060405180910390a1505050565b613ab2612ea9565b613b24576040517f08c379a000000000000000000000000000000000000000000000000000000000815260040180806020018281038252601a8152602001807f43616c6c6572206973206e6f742074686520476f7665726e6f7200000000000081525060200191505060405180910390fd5b8060388190555050565b613c2e848573ffffffffffffffffffffffffffffffffffffffff166323b872dd905060e01b858585604051602401808473ffffffffffffffffffffffffffffffffffffffff1673ffffffffffffffffffffffffffffffffffffffff1681526020018373ffffffffffffffffffffffffffffffffffffffff1673ffffffffffffffffffffffffffffffffffffffff1681526020018281526020019350505050604051602081830303815290604052907bffffffffffffffffffffffffffffffffffffffffffffffffffffffff19166020820180517bffffffffffffffffffffffffffffffffffffffffffffffffffffffff838183161783525050505061552d565b50505050565b600080603760009054906101000a900473ffffffffffffffffffffffffffffffffffffffff1690506060613c6785613ddb565b905060008273ffffffffffffffffffffffffffffffffffffffff166319af6bf0836040518263ffffffff1660e01b81526004018080602001828103825283818151815260200191508051906020019080838360005b83811015613cd7578082015181840152602081019050613cbc565b50505050905090810190601f168015613d045780820380516001836020036101000a031916815260200191505b5092505050602060405180830381600087803b158015613d2357600080fd5b505af1158015613d37573d6000803e3d6000fd5b505050506040513d6020811015613d4d57600080fd5b810190808051906020019092919050505090506000613d758287614a5390919063ffffffff16565b90506000613d8288614b23565b9050613d9d8160080160120383614c1c90919063ffffffff16565b9550505050505092915050565b6000807f7bea13895fa79d2831e0a9e28edede30099005a50d652d8957cf8a607ee6ca4a60001b9050805491505090565b6060808273ffffffffffffffffffffffffffffffffffffffff166395d89b416040518163ffffffff1660e01b815260040160006040518083038186803b158015613e2457600080fd5b505afa158015613e38573d6000803e3d6000fd5b505050506040513d6000823e3d601f19601f820116820180604052506020811015613e6257600080fd5b8101908080516040519392919084640100000000821115613e8257600080fd5b83820191506020820185811115613e9857600080fd5b8251866001820283011164010000000082111715613eb557600080fd5b8083526020830192505050908051906020019080838360005b83811015613ee9578082015181840152602081019050613ece565b50505050905090810190601f168015613f165780820380516001836020036101000a031916815260200191505b50604052505050905080915050919050565b6000614052600a603760009054906101000a900473ffffffffffffffffffffffffffffffffffffffff1673ffffffffffffffffffffffffffffffffffffffff16637bf0c215856040518263ffffffff1660e01b81526004018080602001828103825283818151815260200191508051906020019080838360005b83811015613fbd578082015181840152602081019050613fa2565b50505050905090810190601f168015613fea5780820380516001836020036101000a031916815260200191505b5092505050602060405180830381600087803b15801561400957600080fd5b505af115801561401d573d6000803e3d6000fd5b505050506040513d602081101561403357600080fd5b8101908080519060200190929190505050614c1c90919063ffffffff16565b9050919050565b6000614183600a603760009054906101000a900473ffffffffffffffffffffffffffffffffffffffff1673ffffffffffffffffffffffffffffffffffffffff166319af6bf0856040518263ffffffff1660e01b81526004018080602001828103825283818151815260200191508051906020019080838360005b838110156140ee5780820151818401526020810190506140d3565b50505050905090810190601f16801561411b5780820380516001836020036101000a031916815260200191505b5092505050602060405180830381600087803b15801561413a57600080fd5b505af115801561414e573d6000803e3d6000fd5b505050506040513d602081101561416457600080fd5b8101908080519060200190929190505050614c1c90919063ffffffff16565b9050919050565b6000803090506000813b9050600081149250505090565b6000807f44c4d30b2eaad5130ad70c3ba6972730566f3e6359ab83e800d905c61b1c51db60001b9050805491505090565b600073ffffffffffffffffffffffffffffffffffffffff168173ffffffffffffffffffffffffffffffffffffffff161415614275576040517f08c379a000000000000000000000000000000000000000000000000000000000815260040180806020018281038252601a8152602001807f4e657720476f7665726e6f72206973206164647265737328302900000000000081525060200191505060405180910390fd5b8073ffffffffffffffffffffffffffffffffffffffff16614294613daa565b73ffffffffffffffffffffffffffffffffffffffff167fc7c0c772add429241571afb3805861fb3cfa2af374534088b76cdb4325a87e9a60405160405180910390a36142df81615778565b50565b6000808290508073ffffffffffffffffffffffffffffffffffffffff166370a08231306040518263ffffffff1660e01b8152600401808273ffffffffffffffffffffffffffffffffffffffff1673ffffffffffffffffffffffffffffffffffffffff16815260200191505060206040518083038186803b15801561436557600080fd5b505afa158015614379573d6000803e3d6000fd5b505050506040513d602081101561438f57600080fd5b8101908080519060200190929190505050915060008090505b603680549050811015614579576000603682815481106143c457fe5b9060005260206000200160009054906101000a900473ffffffffffffffffffffffffffffffffffffffff1690508073ffffffffffffffffffffffffffffffffffffffff1663aa388af6866040518263ffffffff1660e01b8152600401808273ffffffffffffffffffffffffffffffffffffffff1673ffffffffffffffffffffffffffffffffffffffff16815260200191505060206040518083038186803b15801561446e57600080fd5b505afa158015614482573d6000803e3d6000fd5b505050506040513d602081101561449857600080fd5b81019080805190602001909291905050501561456b578073ffffffffffffffffffffffffffffffffffffffff16635f515226866040518263ffffffff1660e01b8152600401808273ffffffffffffffffffffffffffffffffffffffff1673ffffffffffffffffffffffffffffffffffffffff16815260200191505060206040518083038186803b15801561452b57600080fd5b505afa15801561453f573d6000803e3d6000fd5b505050506040513d602081101561455557600080fd5b8101908080519060200190929190505050840193505b5080806001019150506143a8565b5050919050565b6060600061458c6157a7565b90506000809050600061459d612760565b9050806040519080825280602002602001820160405280156145ce5781602001602082028038833980820191505090505b50935060008090505b60348054905081101561475c576000614626603483815481106145f657fe5b9060005260206000200160009054906101000a900473ffffffffffffffffffffffffffffffffffffffff16614b23565b9050600061467e6034848154811061463a57fe5b9060005260206000200160009054906101000a900473ffffffffffffffffffffffffffffffffffffffff16614679846001614c1c90919063ffffffff16565b61586e565b905060006146fb876146ed8b6146df876012036146d160348b815481106146a157fe5b9060005260206000200160009054906101000a900473ffffffffffffffffffffffffffffffffffffffff166142e2565b614c1c90919063ffffffff16565b614a5390919063ffffffff16565b614ad990919063ffffffff16565b9050600081111561474c57614719828261521690919063ffffffff16565b860195506147336012840382614c1c90919063ffffffff16565b88858151811061473f57fe5b6020026020010181815250505b50505080806001019150506145d7565b506000828603905060008090505b855181101561486a57600086828151811061478157fe5b602002602001015114156147945761485d565b60008212156147fb576147d8846147ca8884815181106147b057fe5b602002602001015185600003614a5390919063ffffffff16565b614ad990919063ffffffff16565b8682815181106147e457fe5b60200260200101818151039150818152505061485c565b600082131561485b5761483c8461482e88848151811061481757fe5b602002602001015185614a5390919063ffffffff16565b614ad990919063ffffffff16565b86828151811061484857fe5b6020026020010181815101915081815250505b5b5b808060010191505061476a565b5050505050919050565b600080905060008090505b6034805490508110156149e25760006034828154811061489b57fe5b9060005260206000200160009054906101000a900473ffffffffffffffffffffffffffffffffffffffff16905060008173ffffffffffffffffffffffffffffffffffffffff166370a08231306040518263ffffffff1660e01b8152600401808273ffffffffffffffffffffffffffffffffffffffff1673ffffffffffffffffffffffffffffffffffffffff16815260200191505060206040518083038186803b15801561494757600080fd5b505afa15801561495b573d6000803e3d6000fd5b505050506040513d602081101561497157600080fd5b8101908080519060200190929190505050905060008111156149d3576149ce6034848154811061499d57fe5b9060005260206000200160009054906101000a900473ffffffffffffffffffffffffffffffffffffffff1682613c34565b840193505b5050808060010191505061487f565b5090565b600080905060008090505b603680549050811015614a4f57614a3e60368281548110614a0e57fe5b9060005260206000200160009054906101000a900473ffffffffffffffffffffffffffffffffffffffff16614f71565b8201915080806001019150506149f1565b5090565b600080831415614a665760009050614ad3565b6000828402905082848281614a7757fe5b0414614ace576040517f08c379a0000000000000000000000000000000000000000000000000000000008152600401808060200182810382526021815260200180615c9f6021913960400191505060405180910390fd5b809150505b92915050565b6000614b1b83836040518060400160405280601a81526020017f536166654d6174683a206469766973696f6e206279207a65726f0000000000008152506159e4565b905092915050565b6000808273ffffffffffffffffffffffffffffffffffffffff1663313ce5676040518163ffffffff1660e01b815260040160206040518083038186803b158015614b6c57600080fd5b505afa158015614b80573d6000803e3d6000fd5b505050506040513d6020811015614b9657600080fd5b810190808051906020019092919050505060ff16905060048110158015614bbe575060128111155b614c13576040517f08c379a0000000000000000000000000000000000000000000000000000000008152600401808060200182810382526029815260200180615c766029913960400191505060405180910390fd5b80915050919050565b6000808260000b1315614c4957614c428260000b600a0a84614a5390919063ffffffff16565b9250614c94565b60008260000b1215614c9357614c907fffffffffffffffffffffffffffffffffffffffffffffffffffffffffffffffff830260000b600a0a84614ad990919063ffffffff16565b92505b5b82905092915050565b600080614cb38486614a5390919063ffffffff16565b9050614cc88382614ad990919063ffffffff16565b9150509392505050565b6000809050600080905060008090505b603680549050811015614e8157600060368281548110614cfe57fe5b9060005260206000200160009054906101000a900473ffffffffffffffffffffffffffffffffffffffff1690508073ffffffffffffffffffffffffffffffffffffffff1663aa388af6866040518263ffffffff1660e01b8152600401808273ffffffffffffffffffffffffffffffffffffffff1673ffffffffffffffffffffffffffffffffffffffff16815260200191505060206040518083038186803b158015614da857600080fd5b505afa158015614dbc573d6000803e3d6000fd5b505050506040513d6020811015614dd257600080fd5b810190808051906020019092919050505015614e73576000614e2a60368481548110614dfa57fe5b9060005260206000200160009054906101000a900473ffffffffffffffffffffffffffffffffffffffff16615aaa565b9050838112614e715780935060368381548110614e4357fe5b9060005260206000200160009054906101000a900473ffffffffffffffffffffffffffffffffffffffff1694505b505b508080600101915050614ce2565b5050919050565b614f54838473ffffffffffffffffffffffffffffffffffffffff1663a9059cbb905060e01b8484604051602401808373ffffffffffffffffffffffffffffffffffffffff1673ffffffffffffffffffffffffffffffffffffffff16815260200182815260200192505050604051602081830303815290604052907bffffffffffffffffffffffffffffffffffffffffffffffffffffffff19166020820180517bffffffffffffffffffffffffffffffffffffffffffffffffffffffff838183161783525050505061552d565b505050565b6000614f636149e6565b614f6b614874565b01905090565b6000809050600082905060008090505b6034805490508110156151d3578173ffffffffffffffffffffffffffffffffffffffff1663aa388af660348381548110614fb757fe5b9060005260206000200160009054906101000a900473ffffffffffffffffffffffffffffffffffffffff166040518263ffffffff1660e01b8152600401808273ffffffffffffffffffffffffffffffffffffffff1673ffffffffffffffffffffffffffffffffffffffff16815260200191505060206040518083038186803b15801561504257600080fd5b505afa158015615056573d6000803e3d6000fd5b505050506040513d602081101561506c57600080fd5b8101908080519060200190929190505050156151c65760008273ffffffffffffffffffffffffffffffffffffffff16635f515226603484815481106150ad57fe5b9060005260206000200160009054906101000a900473ffffffffffffffffffffffffffffffffffffffff166040518263ffffffff1660e01b8152600401808273ffffffffffffffffffffffffffffffffffffffff1673ffffffffffffffffffffffffffffffffffffffff16815260200191505060206040518083038186803b15801561513857600080fd5b505afa15801561514c573d6000803e3d6000fd5b505050506040513d602081101561516257600080fd5b8101908080519060200190929190505050905060008111156151c4576151bf6034838154811061518e57fe5b9060005260206000200160009054906101000a900473ffffffffffffffffffffffffffffffffffffffff1682613c34565b840193505b505b8080600101915050614f81565b5050919050565b6000806151f8670de0b6b3a764000085614a5390919063ffffffff16565b905061520d8382614ad990919063ffffffff16565b91505092915050565b600061522b8383670de0b6b3a7640000614c9d565b905092915050565b60007f44c4d30b2eaad5130ad70c3ba6972730566f3e6359ab83e800d905c61b1c51db60001b90508181555050565b60006152a483836040518060400160405280601e81526020017f536166654d6174683a207375627472616374696f6e206f766572666c6f770000815250615b19565b905092915050565b60008090506000670de0b6b3a7640000905060008090505b603680549050811015615525576000603682815481106152e057fe5b9060005260206000200160009054906101000a900473ffffffffffffffffffffffffffffffffffffffff1690508073ffffffffffffffffffffffffffffffffffffffff1663aa388af6876040518263ffffffff1660e01b8152600401808273ffffffffffffffffffffffffffffffffffffffff1673ffffffffffffffffffffffffffffffffffffffff16815260200191505060206040518083038186803b15801561538a57600080fd5b505afa15801561539e573d6000803e3d6000fd5b505050506040513d60208110156153b457600080fd5b810190808051906020019092919050505080156154875750848173ffffffffffffffffffffffffffffffffffffffff16635f515226886040518263ffffffff1660e01b8152600401808273ffffffffffffffffffffffffffffffffffffffff1673ffffffffffffffffffffffffffffffffffffffff16815260200191505060206040518083038186803b15801561544a57600080fd5b505afa15801561545e573d6000803e3d6000fd5b505050506040513d602081101561547457600080fd5b8101908080519060200190929190505050115b156155175760006154ce6036848154811061549e57fe5b9060005260206000200160009054906101000a900473ffffffffffffffffffffffffffffffffffffffff16615aaa565b905083811361551557809350603683815481106154e757fe5b9060005260206000200160009054906101000a900473ffffffffffffffffffffffffffffffffffffffff1694505b505b5080806001019150506152c4565b505092915050565b61554c8273ffffffffffffffffffffffffffffffffffffffff16615bd9565b6155be576040517f08c379a000000000000000000000000000000000000000000000000000000000815260040180806020018281038252601f8152602001807f5361666545524332303a2063616c6c20746f206e6f6e2d636f6e74726163740081525060200191505060405180910390fd5b600060608373ffffffffffffffffffffffffffffffffffffffff16836040518082805190602001908083835b6020831061560d57805182526020820191506020810190506020830392506155ea565b6001836020036101000a0380198251168184511680821785525050505050509050019150506000604051808303816000865af19150503d806000811461566f576040519150601f19603f3d011682016040523d82523d6000602084013e615674565b606091505b5091509150816156ec576040517f08c379a00000000000000000000000000000000000000000000000000000000081526004018080602001828103825260208152602001807f5361666545524332303a206c6f772d6c6576656c2063616c6c206661696c656481525060200191505060405180910390fd5b6000815111156157725780806020019051602081101561570b57600080fd5b8101908080519060200190929190505050615771576040517f08c379a000000000000000000000000000000000000000000000000000000000815260040180806020018281038252602a815260200180615cee602a913960400191505060405180910390fd5b5b50505050565b60007f7bea13895fa79d2831e0a9e28edede30099005a50d652d8957cf8a607ee6ca4a60001b90508181555050565b600080905060008090505b60348054905081101561586a576000615801603483815481106157d157fe5b9060005260206000200160009054906101000a900473ffffffffffffffffffffffffffffffffffffffff16614b23565b90506158588160120361584a6034858154811061581a57fe5b9060005260206000200160009054906101000a900473ffffffffffffffffffffffffffffffffffffffff166142e2565b614c1c90919063ffffffff16565b830192505080806001019150506157b2565b5090565b600080603760009054906101000a900473ffffffffffffffffffffffffffffffffffffffff16905060606158a185613ddb565b905060008273ffffffffffffffffffffffffffffffffffffffff16637bf0c215836040518263ffffffff1660e01b81526004018080602001828103825283818151815260200191508051906020019080838360005b838110156159115780820151818401526020810190506158f6565b50505050905090810190601f16801561593e5780820380516001836020036101000a031916815260200191505b5092505050602060405180830381600087803b15801561595d57600080fd5b505af1158015615971573d6000803e3d6000fd5b505050506040513d602081101561598757600080fd5b8101908080519060200190929190505050905060006159af8287614a5390919063ffffffff16565b905060006159bc88614b23565b90506159d78160080160120383614c1c90919063ffffffff16565b9550505050505092915050565b60008083118290615a90576040517f08c379a00000000000000000000000000000000000000000000000000000000081526004018080602001828103825283818151815260200191508051906020019080838360005b83811015615a55578082015181840152602081019050615a3a565b50505050905090810190601f168015615a825780820380516001836020036101000a031916815260200191505b509250505060405180910390fd5b506000838581615a9c57fe5b049050809150509392505050565b6000615ace615ab7614f59565b615ac084614f71565b6151da90919063ffffffff16565b603560008473ffffffffffffffffffffffffffffffffffffffff1673ffffffffffffffffffffffffffffffffffffffff16815260200190815260200160002060010154039050919050565b6000838311158290615bc6576040517f08c379a00000000000000000000000000000000000000000000000000000000081526004018080602001828103825283818151815260200191508051906020019080838360005b83811015615b8b578082015181840152602081019050615b70565b50505050905090810190601f168015615bb85780820380516001836020036101000a031916815260200191505b509250505060405180910390fd5b5060008385039050809150509392505050565b60008060007fc5d2460186f7233c927e7db2dcc703c0e500b653ca82273b7bfad8045d85a47060001b9050833f9150808214158015615c1b57506000801b8214155b92505050919050565b815481835581811115615c4b57818360005260206000209182019101615c4a9190615c50565b5b505050565b615c7291905b80821115615c6e576000816000905550600101615c56565b5090565b9056fe546f6b656e206d75737420686176652073756666696369656e7420646563696d616c20706c61636573536166654d6174683a206d756c7469706c69636174696f6e206f766572666c6f77436f6e747261637420696e7374616e63652068617320616c7265616479206265656e20696e697469616c697a65645361666545524332303a204552433230206f7065726174696f6e20646964206e6f7420737563636565644f6e6c79207468652070656e64696e6720476f7665726e6f722063616e20636f6d706c6574652074686520636c61696da265627a7a72315820175751c1cdbc874bb9c245e8f51dbf058e0c7b0265a17f960701419e2d7d6e6a64736f6c634300050b0032",
  "devdoc": {
    "methods": {
      "addStrategy(address,uint256)": {
        "details": "Add a strategy to the Vault.",
        "params": {
          "_addr": "Address of the strategy to add",
          "_targetWeight": "Target percentage of asset allocation to strategy"
        }
      },
      "allocate()": {
        "details": "Allocate unallocated funds on Vault to strategies.*"
      },
      "checkBalance(address)": {
        "params": {
          "_asset": "Address of asset"
        },
        "return": "uint256 Balance of asset in decimals of asset"
      },
      "claimGovernance()": {
        "details": "Claim Governance of the contract to a new account (`newGovernor`). Can only be called by the new Governor."
      },
      "getAPR()": {
        "details": "Get the total APR of the Vault and all Strategies."
      },
      "getAllAssets()": {
        "details": "Return all asset addresses in order"
      },
      "getAssetCount()": {
        "details": "Return the number of assets suppported by the Vault."
      },
      "getStrategyCount()": {
        "details": "Return the number of strategies active on the Vault."
      },
      "governor()": {
        "details": "Returns the address of the current Governor."
      },
      "isGovernor()": {
        "details": "Returns true if the caller is the current Governor."
      },
      "isSupportedAsset(address)": {
        "details": "Determines if an asset is supported by the vault.",
        "params": {
          "_asset": "Address of the asset"
        }
      },
      "mint(address,uint256)": {
        "details": "Deposit a supported asset and mint OUSD.",
        "params": {
          "_amount": "Amount of the asset being deposited",
          "_asset": "Address of the asset being deposited"
        }
      },
      "mintMultiple(address[],uint256[])": {
        "details": "Mint for multiple assets in the same call.",
        "params": {
          "_amounts": "Amount of each asset at the same index in the _assets                to deposit.",
          "_assets": "Addresses of assets being deposited"
        }
      },
      "pauseDeposits()": {
        "details": "Set the deposit paused flag to true to prevent deposits."
      },
      "pauseRebase()": {
        "details": "Set the deposit paused flag to true to prevent rebasing."
      },
      "priceAssetUSDMint(address)": {
        "details": "Returns the total price in 18 digit USD for a given asset.     Using Min since min is what we use for mint pricing",
        "params": {
          "asset": "Address of the asset"
        },
        "return": "uint256 USD price of 1 of the asset"
      },
      "priceAssetUSDRedeem(address)": {
        "details": "Returns the total price in 18 digit USD for a given asset.     Using Max since max is what we use for redeem pricing",
        "params": {
          "asset": "Address of the asset"
        },
        "return": "uint256 USD price of 1 of the asset"
      },
      "priceUSDMint(string)": {
        "details": "Returns the total price in 18 digit USD for a given asset.     Using Min since min is what we use for mint pricing",
        "params": {
          "symbol": "String symbol of the asset"
        },
        "return": "uint256 USD price of 1 of the asset"
      },
      "priceUSDRedeem(string)": {
        "details": "Returns the total price in 18 digit USD for a given asset.     Using Max since max is what we use for redeem pricing",
        "params": {
          "symbol": "String symbol of the asset"
        },
        "return": "uint256 USD price of 1 of the asset"
      },
      "rebase()": {
        "details": "Calculate the total value of assets held by the Vault and all        strategies and update the supply of oUSD"
      },
      "redeem(uint256)": {
        "details": "Withdraw a supported asset and burn OUSD.",
        "params": {
          "_amount": "Amount of OUSD to burn"
        }
      },
      "removeStrategy(address)": {
        "details": "Remove a strategy from the Vault. Removes all invested assets and returns them to the Vault.",
        "params": {
          "_addr": "Address of the strategy to remove"
        }
      },
      "setAutoAllocateThreshold(uint256)": {
        "details": "Sets the minimum amount of OUSD in a mint to trigger an automatic allocation of funds afterwords.",
        "params": {
          "_threshold": "OUSD amount with 18 fixed decimals."
        }
      },
      "setPriceProvider(address)": {
        "details": "Set address of price provider.",
        "params": {
          "_priceProvider": "Address of price provider"
        }
      },
      "setRebaseThreshold(uint256)": {
        "details": "Set a minimum amount of OUSD in a mint or redeem that triggers a rebase",
        "params": {
          "_threshold": "OUSD amount with 18 fixed decimals."
        }
      },
      "setRedeemFeeBps(uint256)": {
        "details": "Set a fee in basis points to be charged for a redeem.",
        "params": {
          "_redeemFeeBps": "Basis point fee to be charged"
        }
      },
      "setStrategyWeights(address[],uint256[])": {
        "params": {
          "_strategyAddresses": "Array of strategy addresses",
          "_weights": "Array of corresponding weights, with 18 decimals.                For ex. 100%=1e18, 30%=3e17."
        }
      },
      "setVaultBuffer(uint256)": {
        "details": "Set a buffer of assets to keep in the Vault to handle most redemptions without needing to spend gas unwinding assets from a Strategy.",
        "params": {
          "_vaultBuffer": "Percentage using 18 decimals. 100% = 1e18."
        }
      },
      "supportAsset(address)": {
        "details": "Add a supported asset to the contract, i.e. one that can be        to mint OUSD.",
        "params": {
          "_asset": "Address of asset"
        }
      },
      "totalValue()": {
        "details": "Determine the total value of assets held by the vault and its        strategies.",
        "return": "uint256 value Total value in USD (1e18)"
      },
      "transferGovernance(address)": {
        "details": "Transfers Governance of the contract to a new account (`newGovernor`). Can only be called by the current Governor. Must be claimed for this to complete",
        "params": {
          "_newGovernor": "Address of the new Governor"
        }
      },
      "transferToken(address,uint256)": {
        "details": "Transfer token to governor. Intended for recovering tokens stuck in     contract, i.e. mistaken sends.",
        "params": {
          "_amount": "Amount of the asset to transfer",
          "_asset": "Address for the asset"
        }
      },
      "unpauseDeposits()": {
        "details": "Set the deposit paused flag to false to enable deposits."
      },
      "unpauseRebase()": {
        "details": "Set the deposit paused flag to true to allow rebasing."
      }
    }
  },
  "userdoc": {
    "methods": {
      "allocate()": {
        "notice": "Allocate unallocated funds on Vault to strategies."
      },
      "calculateRedeemOutputs(uint256)": {
        "notice": "Calculate the outputs for a redeem function, i.e. the mix of coins that will be returned"
      },
      "checkBalance(address)": {
        "notice": "Get the balance of an asset held in Vault and all strategies."
      },
      "redeemAll()": {
        "notice": "Withdraw a supported asset and burn all OUSD."
      },
      "setStrategyWeights(address[],uint256[])": {
        "notice": "Set the weights for multiple strategies."
      }
    }
  },
  "gasEstimates": {
    "creation": {
      "codeDepositCost": "4786400",
      "executionCost": "infinite",
      "totalCost": "infinite"
    },
    "external": {
      "addStrategy(address,uint256)": "83135",
      "allocate()": "infinite",
      "autoAllocateThreshold()": "494",
      "calculateRedeemOutputs(uint256)": "infinite",
      "checkBalance(address)": "infinite",
      "claimGovernance()": "infinite",
      "depositPaused()": "572",
      "getAPR()": "infinite",
      "getAllAssets()": "infinite",
      "getAssetCount()": "532",
      "getStrategyCount()": "511",
      "governor()": "525",
      "initialize(address,address)": "infinite",
      "isGovernor()": "629",
      "isSupportedAsset(address)": "717",
      "mint(address,uint256)": "infinite",
      "mintMultiple(address[],uint256[])": "infinite",
      "pauseDeposits()": "21608",
      "pauseRebase()": "20895",
      "priceAssetUSDMint(address)": "infinite",
      "priceAssetUSDRedeem(address)": "infinite",
      "priceProvider()": "520",
      "priceUSDMint(string)": "infinite",
      "priceUSDRedeem(string)": "infinite",
      "rebase()": "infinite",
      "rebasePaused()": "658",
      "rebaseThreshold()": "538",
      "redeem(uint256)": "infinite",
      "redeemAll()": "infinite",
      "redeemFeeBps()": "540",
      "removeStrategy(address)": "infinite",
      "setAutoAllocateThreshold(uint256)": "20610",
      "setPriceProvider(address)": "20936",
      "setRebaseThreshold(uint256)": "20654",
      "setRedeemFeeBps(uint256)": "20719",
      "setStrategyWeights(address[],uint256[])": "infinite",
      "setVaultBuffer(uint256)": "20610",
      "supportAsset(address)": "63090",
      "totalValue()": "infinite",
      "transferGovernance(address)": "infinite",
      "transferToken(address,uint256)": "infinite",
      "unpauseDeposits()": "21651",
      "unpauseRebase()": "20897",
      "vaultBuffer()": "539"
    },
    "internal": {
      "_calculateRedeemOutputs(uint256)": "infinite",
      "_checkBalance()": "infinite",
      "_checkBalance(address)": "infinite",
      "_priceUSDMax(address,uint256)": "infinite",
      "_priceUSDMin(address,uint256)": "infinite",
      "_priceUSDMint(string memory)": "infinite",
      "_priceUSDRedeem(string memory)": "infinite",
      "_selectDepositStrategyAddr(address)": "infinite",
      "_selectWithdrawStrategyAddr(address,uint256)": "infinite",
      "_strategyWeightDifference(address)": "infinite",
      "_totalValue()": "infinite",
      "_totalValueInStrategies()": "infinite",
      "_totalValueInStrategy(address)": "infinite",
      "_totalValueInVault()": "infinite"
    }
  }
}