{
  "abi": [
    {
      "constant": true,
      "inputs": [],
      "name": "depositPaused",
      "outputs": [
        {
          "internalType": "bool",
          "name": "",
          "type": "bool"
        }
      ],
      "payable": false,
      "stateMutability": "view",
      "type": "function"
    },
    {
      "constant": false,
      "inputs": [
        {
          "internalType": "address[]",
          "name": "_assets",
          "type": "address[]"
        },
        {
          "internalType": "uint256[]",
          "name": "_amounts",
          "type": "uint256[]"
        }
      ],
      "name": "mintMultiple",
      "outputs": [],
      "payable": false,
      "stateMutability": "nonpayable",
      "type": "function"
    },
    {
      "constant": true,
      "inputs": [],
      "name": "redeemFeeBps",
      "outputs": [
        {
          "internalType": "uint256",
          "name": "",
          "type": "uint256"
        }
      ],
      "payable": false,
      "stateMutability": "view",
      "type": "function"
    },
    {
      "constant": true,
      "inputs": [],
      "name": "governor",
      "outputs": [
        {
          "internalType": "address",
          "name": "",
          "type": "address"
        }
      ],
      "payable": false,
      "stateMutability": "view",
      "type": "function"
    },
    {
      "constant": true,
      "inputs": [],
      "name": "uniswapAddr",
      "outputs": [
        {
          "internalType": "address",
          "name": "",
          "type": "address"
        }
      ],
      "payable": false,
      "stateMutability": "view",
      "type": "function"
    },
    {
      "constant": true,
      "inputs": [],
      "name": "vaultBuffer",
      "outputs": [
        {
          "internalType": "uint256",
          "name": "",
          "type": "uint256"
        }
      ],
      "payable": false,
      "stateMutability": "view",
      "type": "function"
    },
    {
      "constant": true,
      "inputs": [],
      "name": "getAllAssets",
      "outputs": [
        {
          "internalType": "address[]",
          "name": "",
          "type": "address[]"
        }
      ],
      "payable": false,
      "stateMutability": "view",
      "type": "function"
    },
    {
      "constant": false,
      "inputs": [],
      "name": "redeemAll",
      "outputs": [],
      "payable": false,
      "stateMutability": "nonpayable",
      "type": "function"
    },
    {
      "constant": true,
      "inputs": [],
      "name": "getStrategyCount",
      "outputs": [
        {
          "internalType": "uint256",
          "name": "",
          "type": "uint256"
        }
      ],
      "payable": false,
      "stateMutability": "view",
      "type": "function"
    },
    {
      "constant": false,
      "inputs": [
        {
          "internalType": "address",
          "name": "_asset",
          "type": "address"
        },
        {
          "internalType": "uint256",
          "name": "_amount",
          "type": "uint256"
        }
      ],
      "name": "mint",
      "outputs": [],
      "payable": false,
      "stateMutability": "nonpayable",
      "type": "function"
    },
    {
      "constant": true,
      "inputs": [],
      "name": "rebaseThreshold",
      "outputs": [
        {
          "internalType": "uint256",
          "name": "",
          "type": "uint256"
        }
      ],
      "payable": false,
      "stateMutability": "view",
      "type": "function"
    },
    {
      "constant": true,
      "inputs": [],
      "name": "rebasePaused",
      "outputs": [
        {
          "internalType": "bool",
          "name": "",
          "type": "bool"
        }
      ],
      "payable": false,
      "stateMutability": "view",
      "type": "function"
    },
    {
      "constant": false,
      "inputs": [],
      "name": "claimGovernance",
      "outputs": [],
      "payable": false,
      "stateMutability": "nonpayable",
      "type": "function"
    },
    {
      "constant": true,
      "inputs": [
        {
          "internalType": "address",
          "name": "_asset",
          "type": "address"
        }
      ],
      "name": "checkBalance",
      "outputs": [
        {
          "internalType": "uint256",
          "name": "",
          "type": "uint256"
        }
      ],
      "payable": false,
      "stateMutability": "view",
      "type": "function"
    },
    {
      "constant": false,
      "inputs": [
        {
          "internalType": "uint256",
          "name": "_amount",
          "type": "uint256"
        }
      ],
      "name": "calculateRedeemOutputs",
      "outputs": [
        {
          "internalType": "uint256[]",
          "name": "",
          "type": "uint256[]"
        }
      ],
      "payable": false,
      "stateMutability": "nonpayable",
      "type": "function"
    },
    {
      "constant": true,
      "inputs": [],
      "name": "rebaseHooksAddr",
      "outputs": [
        {
          "internalType": "address",
          "name": "",
          "type": "address"
        }
      ],
      "payable": false,
      "stateMutability": "view",
      "type": "function"
    },
    {
      "constant": true,
      "inputs": [
        {
          "internalType": "address",
          "name": "_asset",
          "type": "address"
        }
      ],
      "name": "isSupportedAsset",
      "outputs": [
        {
          "internalType": "bool",
          "name": "",
          "type": "bool"
        }
      ],
      "payable": false,
      "stateMutability": "view",
      "type": "function"
    },
    {
      "constant": true,
      "inputs": [],
      "name": "autoAllocateThreshold",
      "outputs": [
        {
          "internalType": "uint256",
          "name": "",
          "type": "uint256"
        }
      ],
      "payable": false,
      "stateMutability": "view",
      "type": "function"
    },
    {
      "constant": true,
      "inputs": [],
      "name": "getAssetCount",
      "outputs": [
        {
          "internalType": "uint256",
          "name": "",
          "type": "uint256"
        }
      ],
      "payable": false,
      "stateMutability": "view",
      "type": "function"
    },
    {
      "constant": false,
      "inputs": [],
      "name": "allocate",
      "outputs": [],
      "payable": false,
      "stateMutability": "nonpayable",
      "type": "function"
    },
    {
      "constant": false,
      "inputs": [],
      "name": "rebase",
      "outputs": [
        {
          "internalType": "uint256",
          "name": "",
          "type": "uint256"
        }
      ],
      "payable": false,
      "stateMutability": "nonpayable",
      "type": "function"
    },
    {
      "constant": true,
      "inputs": [],
      "name": "priceProvider",
      "outputs": [
        {
          "internalType": "address",
          "name": "",
          "type": "address"
        }
      ],
      "payable": false,
      "stateMutability": "view",
      "type": "function"
    },
    {
      "constant": true,
      "inputs": [],
      "name": "isGovernor",
      "outputs": [
        {
          "internalType": "bool",
          "name": "",
          "type": "bool"
        }
      ],
      "payable": false,
      "stateMutability": "view",
      "type": "function"
    },
    {
      "constant": false,
      "inputs": [
        {
          "internalType": "address",
          "name": "_newGovernor",
          "type": "address"
        }
      ],
      "name": "transferGovernance",
      "outputs": [],
      "payable": false,
      "stateMutability": "nonpayable",
      "type": "function"
    },
    {
      "constant": true,
      "inputs": [],
      "name": "totalValue",
      "outputs": [
        {
          "internalType": "uint256",
          "name": "value",
          "type": "uint256"
        }
      ],
      "payable": false,
      "stateMutability": "view",
      "type": "function"
    },
    {
      "constant": false,
      "inputs": [
        {
          "internalType": "uint256",
          "name": "_amount",
          "type": "uint256"
        }
      ],
      "name": "redeem",
      "outputs": [],
      "payable": false,
      "stateMutability": "nonpayable",
      "type": "function"
    },
    {
      "constant": false,
      "inputs": [
        {
          "internalType": "address",
          "name": "newImpl",
          "type": "address"
        }
      ],
      "name": "setAdminImpl",
      "outputs": [],
      "payable": false,
      "stateMutability": "nonpayable",
      "type": "function"
    },
    {
      "payable": true,
      "stateMutability": "payable",
      "type": "fallback"
    },
    {
      "anonymous": false,
      "inputs": [
        {
          "indexed": false,
          "internalType": "address",
          "name": "_asset",
          "type": "address"
        }
      ],
      "name": "AssetSupported",
      "type": "event"
    },
    {
      "anonymous": false,
      "inputs": [
        {
          "indexed": false,
          "internalType": "address",
          "name": "_addr",
          "type": "address"
        }
      ],
      "name": "StrategyAdded",
      "type": "event"
    },
    {
      "anonymous": false,
      "inputs": [
        {
          "indexed": false,
          "internalType": "address",
          "name": "_addr",
          "type": "address"
        }
      ],
      "name": "StrategyRemoved",
      "type": "event"
    },
    {
      "anonymous": false,
      "inputs": [
        {
          "indexed": false,
          "internalType": "address",
          "name": "_addr",
          "type": "address"
        },
        {
          "indexed": false,
          "internalType": "uint256",
          "name": "_value",
          "type": "uint256"
        }
      ],
      "name": "Mint",
      "type": "event"
    },
    {
      "anonymous": false,
      "inputs": [
        {
          "indexed": false,
          "internalType": "address",
          "name": "_addr",
          "type": "address"
        },
        {
          "indexed": false,
          "internalType": "uint256",
          "name": "_value",
          "type": "uint256"
        }
      ],
      "name": "Redeem",
      "type": "event"
    },
    {
      "anonymous": false,
      "inputs": [
        {
          "indexed": false,
          "internalType": "address[]",
          "name": "_strategyAddresses",
          "type": "address[]"
        },
        {
          "indexed": false,
          "internalType": "uint256[]",
          "name": "weights",
          "type": "uint256[]"
        }
      ],
      "name": "StrategyWeightsUpdated",
      "type": "event"
    },
    {
      "anonymous": false,
      "inputs": [],
      "name": "DepositsPaused",
      "type": "event"
    },
    {
      "anonymous": false,
      "inputs": [],
      "name": "DepositsUnpaused",
      "type": "event"
    },
    {
      "anonymous": false,
      "inputs": [
        {
          "indexed": true,
          "internalType": "address",
          "name": "previousGovernor",
          "type": "address"
        },
        {
          "indexed": true,
          "internalType": "address",
          "name": "newGovernor",
          "type": "address"
        }
      ],
      "name": "PendingGovernorshipTransfer",
      "type": "event"
    },
    {
      "anonymous": false,
      "inputs": [
        {
          "indexed": true,
          "internalType": "address",
          "name": "previousGovernor",
          "type": "address"
        },
        {
          "indexed": true,
          "internalType": "address",
          "name": "newGovernor",
          "type": "address"
        }
      ],
      "name": "GovernorshipTransferred",
      "type": "event"
    }
  ],
  "address": "0x0660BF15A89d8e90Cba1B3f0ccF493C415B1369D",
  "args": [],
  "solcInputHash": "0xe198a4f714a9d5197026cf78b295a6fd26dbd68e473094a20c650315d538ef64",
  "bytecode": "0x60806040526000603760146101000a81548160ff0219169083151502179055506001603760156101000a81548160ff0219169083151502179055506000603d60006101000a81548173ffffffffffffffffffffffffffffffffffffffff021916908373ffffffffffffffffffffffffffffffffffffffff1602179055506000603e60006101000a81548173ffffffffffffffffffffffffffffffffffffffff021916908373ffffffffffffffffffffffffffffffffffffffff160217905550620000cf336200013f60201b60201c565b620000df6200016e60201b60201c565b73ffffffffffffffffffffffffffffffffffffffff16600073ffffffffffffffffffffffffffffffffffffffff167fc7c0c772add429241571afb3805861fb3cfa2af374534088b76cdb4325a87e9a60405160405180910390a36200019f565b60007f7bea13895fa79d2831e0a9e28edede30099005a50d652d8957cf8a607ee6ca4a60001b90508181555050565b6000807f7bea13895fa79d2831e0a9e28edede30099005a50d652d8957cf8a607ee6ca4a60001b9050805491505090565b6145c980620001af6000396000f3fe60806040526004361061019c5760003560e01c80635f515226116100ec578063af14052c1161008a578063d38bfff411610064578063d38bfff414610846578063d4c3eea014610897578063db006a75146108c2578063fc0cfeee146108fd5761019c565b8063af14052c14610795578063b888879e146107c0578063c7af3352146108175761019c565b80639be918e6116100c65780639be918e6146106bf5780639fa1826e14610728578063a0aead4d14610753578063abaa99161461077e5761019c565b80635f5152261461057357806367bd7ba3146105d8578063796be57b146106685761019c565b80632acada4d1161015957806340c10f191161013357806340c10f19146104a757806352d38e5d1461050257806353ca9f241461052d5780635d36b1901461055c5761019c565b80632acada4d146103f95780632f4350c21461046557806331e19cfa1461047c5761019c565b806302befd24146101eb57806307ea54771461021a57806309f6442c146102f55780630c340a2414610320578063128a8b05146103775780631edfe3da146103ce575b60007fa2bd3d3cf188a41358c8b401076eb59066b09dec5775650c0de4c55187d17bd960001b9050366000803760008036600084545af43d6000803e80600081146101e6573d6000f35b3d6000fd5b3480156101f757600080fd5b5061020061094e565b604051808215151515815260200191505060405180910390f35b34801561022657600080fd5b506102f36004803603604081101561023d57600080fd5b810190808035906020019064010000000081111561025a57600080fd5b82018360208201111561026c57600080fd5b8035906020019184602083028401116401000000008311171561028e57600080fd5b9091929391929390803590602001906401000000008111156102af57600080fd5b8201836020820111156102c157600080fd5b803590602001918460208302840111640100000000831117156102e357600080fd5b9091929391929390505050610961565b005b34801561030157600080fd5b5061030a610e0b565b6040518082815260200191505060405180910390f35b34801561032c57600080fd5b50610335610e11565b604051808273ffffffffffffffffffffffffffffffffffffffff1673ffffffffffffffffffffffffffffffffffffffff16815260200191505060405180910390f35b34801561038357600080fd5b5061038c610e20565b604051808273ffffffffffffffffffffffffffffffffffffffff1673ffffffffffffffffffffffffffffffffffffffff16815260200191505060405180910390f35b3480156103da57600080fd5b506103e3610e46565b6040518082815260200191505060405180910390f35b34801561040557600080fd5b5061040e610e4c565b6040518080602001828103825283818151815260200191508051906020019060200280838360005b83811015610451578082015181840152602081019050610436565b505050509050019250505060405180910390f35b34801561047157600080fd5b5061047a610eda565b005b34801561048857600080fd5b506104916110c6565b6040518082815260200191505060405180910390f35b3480156104b357600080fd5b50610500600480360360408110156104ca57600080fd5b81019080803573ffffffffffffffffffffffffffffffffffffffff169060200190929190803590602001909291905050506110d3565b005b34801561050e57600080fd5b506105176115a0565b6040518082815260200191505060405180910390f35b34801561053957600080fd5b506105426115a6565b604051808215151515815260200191505060405180910390f35b34801561056857600080fd5b506105716115b9565b005b34801561057f57600080fd5b506105c26004803603602081101561059657600080fd5b81019080803573ffffffffffffffffffffffffffffffffffffffff16906020019092919050505061164f565b6040518082815260200191505060405180910390f35b3480156105e457600080fd5b50610611600480360360208110156105fb57600080fd5b8101908080359060200190929190505050611661565b6040518080602001828103825283818151815260200191508051906020019060200280838360005b83811015610654578082015181840152602081019050610639565b505050509050019250505060405180910390f35b34801561067457600080fd5b5061067d611673565b604051808273ffffffffffffffffffffffffffffffffffffffff1673ffffffffffffffffffffffffffffffffffffffff16815260200191505060405180910390f35b3480156106cb57600080fd5b5061070e600480360360208110156106e257600080fd5b81019080803573ffffffffffffffffffffffffffffffffffffffff169060200190929190505050611699565b604051808215151515815260200191505060405180910390f35b34801561073457600080fd5b5061073d6116f2565b6040518082815260200191505060405180910390f35b34801561075f57600080fd5b506107686116f8565b6040518082815260200191505060405180910390f35b34801561078a57600080fd5b50610793611705565b005b3480156107a157600080fd5b506107aa61170f565b6040518082815260200191505060405180910390f35b3480156107cc57600080fd5b506107d56117a2565b604051808273ffffffffffffffffffffffffffffffffffffffff1673ffffffffffffffffffffffffffffffffffffffff16815260200191505060405180910390f35b34801561082357600080fd5b5061082c6117c8565b604051808215151515815260200191505060405180910390f35b34801561085257600080fd5b506108956004803603602081101561086957600080fd5b81019080803573ffffffffffffffffffffffffffffffffffffffff169060200190929190505050611805565b005b3480156108a357600080fd5b506108ac6118ec565b6040518082815260200191505060405180910390f35b3480156108ce57600080fd5b506108fb600480360360208110156108e557600080fd5b81019080803590602001909291905050506118fb565b005b34801561090957600080fd5b5061094c6004803603602081101561092057600080fd5b81019080803573ffffffffffffffffffffffffffffffffffffffff169060200190929190505050611936565b005b603760159054906101000a900460ff1681565b603760159054906101000a900460ff16156109e4576040517f08c379a000000000000000000000000000000000000000000000000000000000815260040180806020018281038252600f8152602001807f4465706f7369747320706175736564000000000000000000000000000000000081525060200191505060405180910390fd5b818190508484905014610a5f576040517f08c379a00000000000000000000000000000000000000000000000000000000081526004018080602001828103825260198152602001807f506172616d65746572206c656e677468206d69736d617463680000000000000081525060200191505060405180910390fd5b60008090506060610a7060006119df565b905060008090505b603480549050811015610c095760008090505b87879050811015610bfb5760348281548110610aa357fe5b9060005260206000200160009054906101000a900473ffffffffffffffffffffffffffffffffffffffff1673ffffffffffffffffffffffffffffffffffffffff16888883818110610af057fe5b9050602002013573ffffffffffffffffffffffffffffffffffffffff1673ffffffffffffffffffffffffffffffffffffffff161415610bee576000868683818110610b3757fe5b905060200201351115610bed576000610b8660348481548110610b5657fe5b9060005260206000200160009054906101000a900473ffffffffffffffffffffffffffffffffffffffff16611cf5565b90506000848481518110610b9657fe5b60200260200101519050670de0b6b3a7640000811115610bbc57670de0b6b3a764000090505b610be68183600a0a8a8a87818110610bd057fe5b90506020020135611dee9092919063ffffffff16565b8601955050505b5b8080600101915050610a8b565b508080600101915050610a78565b50603b5482118015610c285750603760149054906101000a900460ff16155b15610c3957610c376001611e23565b505b60008090505b86869050811015610cc4576000878783818110610c5857fe5b9050602002013573ffffffffffffffffffffffffffffffffffffffff169050610cb63330888886818110610c8857fe5b905060200201358473ffffffffffffffffffffffffffffffffffffffff166121b9909392919063ffffffff16565b508080600101915050610c3f565b50603c60009054906101000a900473ffffffffffffffffffffffffffffffffffffffff1673ffffffffffffffffffffffffffffffffffffffff166340c10f1933846040518363ffffffff1660e01b8152600401808373ffffffffffffffffffffffffffffffffffffffff1673ffffffffffffffffffffffffffffffffffffffff16815260200182815260200192505050600060405180830381600087803b158015610d6e57600080fd5b505af1158015610d82573d6000803e3d6000fd5b505050507f0f6798a560793a54c3bcfe86a93cde1e73087d944c0ea20544137d41213968853383604051808373ffffffffffffffffffffffffffffffffffffffff1673ffffffffffffffffffffffffffffffffffffffff1681526020018281526020019250505060405180910390a1603a548210610e0357610e02611705565b5b505050505050565b60385481565b6000610e1b6122bf565b905090565b603e60009054906101000a900473ffffffffffffffffffffffffffffffffffffffff1681565b60395481565b60606034805480602002602001604051908101604052809291908181526020018280548015610ed057602002820191906000526020600020905b8160009054906101000a900473ffffffffffffffffffffffffffffffffffffffff1673ffffffffffffffffffffffffffffffffffffffff1681526020019060010190808311610e86575b5050505050905090565b603b54603c60009054906101000a900473ffffffffffffffffffffffffffffffffffffffff1673ffffffffffffffffffffffffffffffffffffffff166370a08231336040518263ffffffff1660e01b8152600401808273ffffffffffffffffffffffffffffffffffffffff1673ffffffffffffffffffffffffffffffffffffffff16815260200191505060206040518083038186803b158015610f7c57600080fd5b505afa158015610f90573d6000803e3d6000fd5b505050506040513d6020811015610fa657600080fd5b8101908080519060200190929190505050118015610fd15750603760149054906101000a900460ff16155b15610fe257610fe06000611e23565b505b6110c4603c60009054906101000a900473ffffffffffffffffffffffffffffffffffffffff1673ffffffffffffffffffffffffffffffffffffffff166370a08231336040518263ffffffff1660e01b8152600401808273ffffffffffffffffffffffffffffffffffffffff1673ffffffffffffffffffffffffffffffffffffffff16815260200191505060206040518083038186803b15801561108457600080fd5b505afa158015611098573d6000803e3d6000fd5b505050506040513d60208110156110ae57600080fd5b81019080805190602001909291905050506122f0565b565b6000603680549050905090565b603760159054906101000a900460ff1615611156576040517f08c379a000000000000000000000000000000000000000000000000000000000815260040180806020018281038252600f8152602001807f4465706f7369747320706175736564000000000000000000000000000000000081525060200191505060405180910390fd5b603360008373ffffffffffffffffffffffffffffffffffffffff1673ffffffffffffffffffffffffffffffffffffffff16815260200190815260200160002060000160009054906101000a900460ff16611218576040517f08c379a00000000000000000000000000000000000000000000000000000000081526004018080602001828103825260168152602001807f4173736574206973206e6f7420737570706f727465640000000000000000000081525060200191505060405180910390fd5b6000811161128e576040517f08c379a000000000000000000000000000000000000000000000000000000000815260040180806020018281038252601d8152602001807f416d6f756e74206d7573742062652067726561746572207468616e203000000081525060200191505060405180910390fd5b6000603760009054906101000a900473ffffffffffffffffffffffffffffffffffffffff1673ffffffffffffffffffffffffffffffffffffffff166319af6bf06112d7856128ae565b6040518263ffffffff1660e01b81526004018080602001828103825283818151815260200191508051906020019080838360005b8381101561132657808201518184015260208101905061130b565b50505050905090810190601f1680156113535780820380516001836020036101000a031916815260200191505b5092505050602060405180830381600087803b15801561137257600080fd5b505af1158015611386573d6000803e3d6000fd5b505050506040513d602081101561139c57600080fd5b810190808051906020019092919050505090506305f5e1008111156113c3576305f5e10090505b60006113f86113dc600a846129fb90919063ffffffff16565b6113e586611cf5565b600a0a85611dee9092919063ffffffff16565b9050603b54811180156114185750603760149054906101000a900460ff16155b15611429576114276001611e23565b505b600084905061145b3330868473ffffffffffffffffffffffffffffffffffffffff166121b9909392919063ffffffff16565b603c60009054906101000a900473ffffffffffffffffffffffffffffffffffffffff1673ffffffffffffffffffffffffffffffffffffffff166340c10f1933846040518363ffffffff1660e01b8152600401808373ffffffffffffffffffffffffffffffffffffffff1673ffffffffffffffffffffffffffffffffffffffff16815260200182815260200192505050600060405180830381600087803b15801561150457600080fd5b505af1158015611518573d6000803e3d6000fd5b505050507f0f6798a560793a54c3bcfe86a93cde1e73087d944c0ea20544137d41213968853383604051808373ffffffffffffffffffffffffffffffffffffffff1673ffffffffffffffffffffffffffffffffffffffff1681526020018281526020019250505060405180910390a1603a54821061159957611598611705565b5b5050505050565b603b5481565b603760149054906101000a900460ff1681565b6115c1612a7c565b73ffffffffffffffffffffffffffffffffffffffff163373ffffffffffffffffffffffffffffffffffffffff1614611644576040517f08c379a00000000000000000000000000000000000000000000000000000000081526004018080602001828103825260308152602001806145656030913960400191505060405180910390fd5b61164d33612aad565b565b600061165a82612bbd565b9050919050565b606061166c82612e5b565b9050919050565b603d60009054906101000a900473ffffffffffffffffffffffffffffffffffffffff1681565b6000603360008373ffffffffffffffffffffffffffffffffffffffff1673ffffffffffffffffffffffffffffffffffffffff16815260200190815260200160002060000160009054906101000a900460ff169050919050565b603a5481565b6000603480549050905090565b61170d6131b5565b565b6000603760149054906101000a900460ff1615611794576040517f08c379a000000000000000000000000000000000000000000000000000000000815260040180806020018281038252600f8152602001807f5265626173696e6720706175736564000000000000000000000000000000000081525060200191505060405180910390fd5b61179e6001611e23565b5090565b603760009054906101000a900473ffffffffffffffffffffffffffffffffffffffff1681565b60006117d26122bf565b73ffffffffffffffffffffffffffffffffffffffff163373ffffffffffffffffffffffffffffffffffffffff1614905090565b61180d6117c8565b61187f576040517f08c379a000000000000000000000000000000000000000000000000000000000815260040180806020018281038252601a8152602001807f43616c6c6572206973206e6f742074686520476f7665726e6f7200000000000081525060200191505060405180910390fd5b611888816134f8565b8073ffffffffffffffffffffffffffffffffffffffff166118a76122bf565b73ffffffffffffffffffffffffffffffffffffffff167fa39cc5eb22d0f34d8beaefee8a3f17cc229c1a1d1ef87a5ad47313487b1c4f0d60405160405180910390a350565b60006118f6613527565b905090565b603b54811180156119195750603760149054906101000a900460ff16155b1561192a576119286000611e23565b505b611933816122f0565b50565b61193e6117c8565b6119b0576040517f08c379a000000000000000000000000000000000000000000000000000000000815260040180806020018281038252601a8152602001807f43616c6c6572206973206e6f742074686520476f7665726e6f7200000000000081525060200191505060405180910390fd5b60007fa2bd3d3cf188a41358c8b401076eb59066b09dec5775650c0de4c55187d17bd960001b90508181555050565b60606119e96116f8565b604051908082528060200260200182016040528015611a175781602001602082028038833980820191505090505b5090506000603760009054906101000a900473ffffffffffffffffffffffffffffffffffffffff16905060008090505b603480549050811015611cee576060611a9660348381548110611a6657fe5b9060005260206000200160009054906101000a900473ffffffffffffffffffffffffffffffffffffffff166128ae565b90508415611bc157611ba4600a8473ffffffffffffffffffffffffffffffffffffffff16637bf0c215846040518263ffffffff1660e01b81526004018080602001828103825283818151815260200191508051906020019080838360005b83811015611b0f578082015181840152602081019050611af4565b50505050905090810190601f168015611b3c5780820380516001836020036101000a031916815260200191505b5092505050602060405180830381600087803b158015611b5b57600080fd5b505af1158015611b6f573d6000803e3d6000fd5b505050506040513d6020811015611b8557600080fd5b81019080805190602001909291905050506129fb90919063ffffffff16565b848381518110611bb057fe5b602002602001018181525050611ce0565b611cc7600a8473ffffffffffffffffffffffffffffffffffffffff166319af6bf0846040518263ffffffff1660e01b81526004018080602001828103825283818151815260200191508051906020019080838360005b83811015611c32578082015181840152602081019050611c17565b50505050905090810190601f168015611c5f5780820380516001836020036101000a031916815260200191505b5092505050602060405180830381600087803b158015611c7e57600080fd5b505af1158015611c92573d6000803e3d6000fd5b505050506040513d6020811015611ca857600080fd5b81019080805190602001909291905050506129fb90919063ffffffff16565b848381518110611cd357fe5b6020026020010181815250505b508080600101915050611a47565b5050919050565b6000808273ffffffffffffffffffffffffffffffffffffffff1663313ce5676040518163ffffffff1660e01b815260040160206040518083038186803b158015611d3e57600080fd5b505afa158015611d52573d6000803e3d6000fd5b505050506040513d6020811015611d6857600080fd5b810190808051906020019092919050505060ff16905060048110158015611d90575060128111155b611de5576040517f08c379a00000000000000000000000000000000000000000000000000000000081526004018080602001828103825260298152602001806144f16029913960400191505060405180910390fd5b80915050919050565b600080611e04848661353f90919063ffffffff16565b9050611e1983826135c590919063ffffffff16565b9150509392505050565b6000603760149054906101000a900460ff1615611ea8576040517f08c379a000000000000000000000000000000000000000000000000000000000815260040180806020018281038252600f8152602001807f5265626173696e6720706175736564000000000000000000000000000000000081525060200191505060405180910390fd5b6000603c60009054906101000a900473ffffffffffffffffffffffffffffffffffffffff1673ffffffffffffffffffffffffffffffffffffffff166318160ddd6040518163ffffffff1660e01b815260040160206040518083038186803b158015611f1257600080fd5b505afa158015611f26573d6000803e3d6000fd5b505050506040513d6020811015611f3c57600080fd5b81019080805190602001909291905050501415611f5c57600090506121b4565b6000603c60009054906101000a900473ffffffffffffffffffffffffffffffffffffffff1673ffffffffffffffffffffffffffffffffffffffff166318160ddd6040518163ffffffff1660e01b815260040160206040518083038186803b158015611fc657600080fd5b505afa158015611fda573d6000803e3d6000fd5b505050506040513d6020811015611ff057600080fd5b81019080805190602001909291905050509050600061200d613527565b9050818111156121b157603c60009054906101000a900473ffffffffffffffffffffffffffffffffffffffff1673ffffffffffffffffffffffffffffffffffffffff166339a7919f826040518263ffffffff1660e01b815260040180828152602001915050602060405180830381600087803b15801561208c57600080fd5b505af11580156120a0573d6000803e3d6000fd5b505050506040513d60208110156120b657600080fd5b810190808051906020019092919050505050600073ffffffffffffffffffffffffffffffffffffffff16603d60009054906101000a900473ffffffffffffffffffffffffffffffffffffffff1673ffffffffffffffffffffffffffffffffffffffff16146121b057603d60009054906101000a900473ffffffffffffffffffffffffffffffffffffffff1673ffffffffffffffffffffffffffffffffffffffff16631dcf530f856040518263ffffffff1660e01b81526004018082151515158152602001915050600060405180830381600087803b15801561219757600080fd5b505af11580156121ab573d6000803e3d6000fd5b505050505b5b50505b919050565b6122b9848573ffffffffffffffffffffffffffffffffffffffff166323b872dd905060e01b858585604051602401808473ffffffffffffffffffffffffffffffffffffffff1673ffffffffffffffffffffffffffffffffffffffff1681526020018373ffffffffffffffffffffffffffffffffffffffff1673ffffffffffffffffffffffffffffffffffffffff1681526020018281526020019350505050604051602081830303815290604052907bffffffffffffffffffffffffffffffffffffffffffffffffffffffff19166020820180517bffffffffffffffffffffffffffffffffffffffffffffffffffffffff838183161783525050505061360f565b50505050565b6000807f7bea13895fa79d2831e0a9e28edede30099005a50d652d8957cf8a607ee6ca4a60001b9050805491505090565b60008111612366576040517f08c379a000000000000000000000000000000000000000000000000000000000815260040180806020018281038252601d8152602001807f416d6f756e74206d7573742062652067726561746572207468616e203000000081525060200191505060405180910390fd5b606061237182612e5b565b905060008090505b60348054905081101561274e57600082828151811061239457fe5b602002602001015114156123a757612741565b6000603482815481106123b657fe5b9060005260206000200160009054906101000a900473ffffffffffffffffffffffffffffffffffffffff1690508282815181106123ef57fe5b60200260200101518173ffffffffffffffffffffffffffffffffffffffff166370a08231306040518263ffffffff1660e01b8152600401808273ffffffffffffffffffffffffffffffffffffffff1673ffffffffffffffffffffffffffffffffffffffff16815260200191505060206040518083038186803b15801561247457600080fd5b505afa158015612488573d6000803e3d6000fd5b505050506040513d602081101561249e57600080fd5b8101908080519060200190929190505050106124f7576124f2338484815181106124c457fe5b60200260200101518373ffffffffffffffffffffffffffffffffffffffff1661385a9092919063ffffffff16565b61273f565b600061254d6034848154811061250957fe5b9060005260206000200160009054906101000a900473ffffffffffffffffffffffffffffffffffffffff1685858151811061254057fe5b602002602001015161392b565b9050600073ffffffffffffffffffffffffffffffffffffffff168173ffffffffffffffffffffffffffffffffffffffff16146126cf5760008190508073ffffffffffffffffffffffffffffffffffffffff1663d9caed1233603487815481106125b257fe5b9060005260206000200160009054906101000a900473ffffffffffffffffffffffffffffffffffffffff168888815181106125e957fe5b60200260200101516040518463ffffffff1660e01b8152600401808473ffffffffffffffffffffffffffffffffffffffff1673ffffffffffffffffffffffffffffffffffffffff1681526020018373ffffffffffffffffffffffffffffffffffffffff1673ffffffffffffffffffffffffffffffffffffffff1681526020018281526020019350505050602060405180830381600087803b15801561268d57600080fd5b505af11580156126a1573d6000803e3d6000fd5b505050506040513d60208110156126b757600080fd5b8101908080519060200190929190505050505061273d565b6040517f08c379a000000000000000000000000000000000000000000000000000000000815260040180806020018281038252600f8152602001807f4c6971756964697479206572726f72000000000000000000000000000000000081525060200191505060405180910390fd5b505b505b8080600101915050612379565b50603c60009054906101000a900473ffffffffffffffffffffffffffffffffffffffff1673ffffffffffffffffffffffffffffffffffffffff16639dc29fac33846040518363ffffffff1660e01b8152600401808373ffffffffffffffffffffffffffffffffffffffff1673ffffffffffffffffffffffffffffffffffffffff16815260200182815260200192505050600060405180830381600087803b1580156127f857600080fd5b505af115801561280c573d6000803e3d6000fd5b50505050603b548211801561282e5750603760149054906101000a900460ff16155b1561283f5761283d6001611e23565b505b7f222838db2794d11532d940e8dec38ae307ed0b63cd97c233322e221f998767a63383604051808373ffffffffffffffffffffffffffffffffffffffff1673ffffffffffffffffffffffffffffffffffffffff1681526020018281526020019250505060405180910390a15050565b6060808273ffffffffffffffffffffffffffffffffffffffff166395d89b416040518163ffffffff1660e01b815260040160006040518083038186803b1580156128f757600080fd5b505afa15801561290b573d6000803e3d6000fd5b505050506040513d6000823e3d601f19601f82011682018060405250602081101561293557600080fd5b810190808051604051939291908464010000000082111561295557600080fd5b8382019150602082018581111561296b57600080fd5b825186600182028301116401000000008211171561298857600080fd5b8083526020830192505050908051906020019080838360005b838110156129bc5780820151818401526020810190506129a1565b50505050905090810190601f1680156129e95780820380516001836020036101000a031916815260200191505b50604052505050905080915050919050565b6000808260000b1315612a2857612a218260000b600a0a8461353f90919063ffffffff16565b9250612a73565b60008260000b1215612a7257612a6f7fffffffffffffffffffffffffffffffffffffffffffffffffffffffffffffffff830260000b600a0a846135c590919063ffffffff16565b92505b5b82905092915050565b6000807f44c4d30b2eaad5130ad70c3ba6972730566f3e6359ab83e800d905c61b1c51db60001b9050805491505090565b600073ffffffffffffffffffffffffffffffffffffffff168173ffffffffffffffffffffffffffffffffffffffff161415612b50576040517f08c379a000000000000000000000000000000000000000000000000000000000815260040180806020018281038252601a8152602001807f4e657720476f7665726e6f72206973206164647265737328302900000000000081525060200191505060405180910390fd5b8073ffffffffffffffffffffffffffffffffffffffff16612b6f6122bf565b73ffffffffffffffffffffffffffffffffffffffff167fc7c0c772add429241571afb3805861fb3cfa2af374534088b76cdb4325a87e9a60405160405180910390a3612bba81613bac565b50565b6000808290508073ffffffffffffffffffffffffffffffffffffffff166370a08231306040518263ffffffff1660e01b8152600401808273ffffffffffffffffffffffffffffffffffffffff1673ffffffffffffffffffffffffffffffffffffffff16815260200191505060206040518083038186803b158015612c4057600080fd5b505afa158015612c54573d6000803e3d6000fd5b505050506040513d6020811015612c6a57600080fd5b8101908080519060200190929190505050915060008090505b603680549050811015612e5457600060368281548110612c9f57fe5b9060005260206000200160009054906101000a900473ffffffffffffffffffffffffffffffffffffffff1690508073ffffffffffffffffffffffffffffffffffffffff1663aa388af6866040518263ffffffff1660e01b8152600401808273ffffffffffffffffffffffffffffffffffffffff1673ffffffffffffffffffffffffffffffffffffffff16815260200191505060206040518083038186803b158015612d4957600080fd5b505afa158015612d5d573d6000803e3d6000fd5b505050506040513d6020811015612d7357600080fd5b810190808051906020019092919050505015612e46578073ffffffffffffffffffffffffffffffffffffffff16635f515226866040518263ffffffff1660e01b8152600401808273ffffffffffffffffffffffffffffffffffffffff1673ffffffffffffffffffffffffffffffffffffffff16815260200191505060206040518083038186803b158015612e0657600080fd5b505afa158015612e1a573d6000803e3d6000fd5b505050506040513d6020811015612e3057600080fd5b8101908080519060200190929190505050840193505b508080600101915050612c83565b5050919050565b60606000612e676116f8565b90506060612e7560016119df565b9050606082604051908082528060200260200182016040528015612ea85781602001602082028038833980820191505090505b509050606083604051908082528060200260200182016040528015612edc5781602001602082028038833980820191505090505b5090506000809050600080905085604051908082528060200260200182016040528015612f185781602001602082028038833980820191505090505b50965060006038541115612f6a576000612f51612710612f436038548c61353f90919063ffffffff16565b6135c590919063ffffffff16565b9050612f66818a613bdb90919063ffffffff16565b9850505b60008090505b603480549050811015613060576000612fbf60348381548110612f8f57fe5b9060005260206000200160009054906101000a900473ffffffffffffffffffffffffffffffffffffffff16612bbd565b9050600061300360348481548110612fd357fe5b9060005260206000200160009054906101000a900473ffffffffffffffffffffffffffffffffffffffff16611cf5565b90508187848151811061301257fe5b6020026020010181815250508086848151811061302b57fe5b60200260200101818152505061304d81601203836129fb90919063ffffffff16565b8501945050508080600101915050612f70565b5060008090505b60348054905081101561312057600086828151811061308257fe5b60200260200101519050670de0b6b3a76400008110156130a857670de0b6b3a764000090505b600061310a856130fc846130ee8a88815181106130c157fe5b60200260200101516012038c89815181106130d857fe5b60200260200101516129fb90919063ffffffff16565b61353f90919063ffffffff16565b6135c590919063ffffffff16565b9050808401935050508080600101915050613067565b506000613136828a613c2590919063ffffffff16565b905060008090505b6034805490508110156131a857613183846131758489858151811061315f57fe5b602002602001015161353f90919063ffffffff16565b6135c590919063ffffffff16565b89828151811061318f57fe5b602002602001018181525050808060010191505061313e565b5050505050505050919050565b60006131bf613c61565b905060008114156131d057506134f6565b60006131da613ded565b90506000818301905060008083141561320157603954670de0b6b3a7640000039050613256565b6132288461321a8460395461353f90919063ffffffff16565b6135c590919063ffffffff16565b905080670de0b6b3a7640000111561324c5780670de0b6b3a7640000039050613255565b505050506134f6565b5b600081141561326857505050506134f6565b60008090505b6034805490508110156134f05760006034828154811061328a57fe5b9060005260206000200160009054906101000a900473ffffffffffffffffffffffffffffffffffffffff16905060008173ffffffffffffffffffffffffffffffffffffffff166370a08231306040518263ffffffff1660e01b8152600401808273ffffffffffffffffffffffffffffffffffffffff1673ffffffffffffffffffffffffffffffffffffffff16815260200191505060206040518083038186803b15801561333657600080fd5b505afa15801561334a573d6000803e3d6000fd5b505050506040513d602081101561336057600080fd5b8101908080519060200190929190505050905060008114156133835750506134e3565b60006133988583613e5a90919063ffffffff16565b905060006133a584613e77565b9050600073ffffffffffffffffffffffffffffffffffffffff168173ffffffffffffffffffffffffffffffffffffffff16141580156133e45750600082115b156134de57600081905061341981848773ffffffffffffffffffffffffffffffffffffffff1661385a9092919063ffffffff16565b8073ffffffffffffffffffffffffffffffffffffffff166347e7ef2486856040518363ffffffff1660e01b8152600401808373ffffffffffffffffffffffffffffffffffffffff1673ffffffffffffffffffffffffffffffffffffffff16815260200182815260200192505050602060405180830381600087803b1580156134a057600080fd5b505af11580156134b4573d6000803e3d6000fd5b505050506040513d60208110156134ca57600080fd5b810190808051906020019092919050505050505b505050505b808060010191505061326e565b50505050505b565b60007f44c4d30b2eaad5130ad70c3ba6972730566f3e6359ab83e800d905c61b1c51db60001b90508181555050565b6000613531613ded565b613539613c61565b01905090565b60008083141561355257600090506135bf565b600082840290508284828161356357fe5b04146135ba576040517f08c379a000000000000000000000000000000000000000000000000000000000815260040180806020018281038252602181526020018061451a6021913960400191505060405180910390fd5b809150505b92915050565b600061360783836040518060400160405280601a81526020017f536166654d6174683a206469766973696f6e206279207a65726f00000000000081525061402d565b905092915050565b61362e8273ffffffffffffffffffffffffffffffffffffffff166140f3565b6136a0576040517f08c379a000000000000000000000000000000000000000000000000000000000815260040180806020018281038252601f8152602001807f5361666545524332303a2063616c6c20746f206e6f6e2d636f6e74726163740081525060200191505060405180910390fd5b600060608373ffffffffffffffffffffffffffffffffffffffff16836040518082805190602001908083835b602083106136ef57805182526020820191506020810190506020830392506136cc565b6001836020036101000a0380198251168184511680821785525050505050509050019150506000604051808303816000865af19150503d8060008114613751576040519150601f19603f3d011682016040523d82523d6000602084013e613756565b606091505b5091509150816137ce576040517f08c379a00000000000000000000000000000000000000000000000000000000081526004018080602001828103825260208152602001807f5361666545524332303a206c6f772d6c6576656c2063616c6c206661696c656481525060200191505060405180910390fd5b600081511115613854578080602001905160208110156137ed57600080fd5b8101908080519060200190929190505050613853576040517f08c379a000000000000000000000000000000000000000000000000000000000815260040180806020018281038252602a81526020018061453b602a913960400191505060405180910390fd5b5b50505050565b613926838473ffffffffffffffffffffffffffffffffffffffff1663a9059cbb905060e01b8484604051602401808373ffffffffffffffffffffffffffffffffffffffff1673ffffffffffffffffffffffffffffffffffffffff16815260200182815260200192505050604051602081830303815290604052907bffffffffffffffffffffffffffffffffffffffffffffffffffffffff19166020820180517bffffffffffffffffffffffffffffffffffffffffffffffffffffffff838183161783525050505061360f565b505050565b60008090506000670de0b6b3a7640000905060008090505b603680549050811015613ba45760006036828154811061395f57fe5b9060005260206000200160009054906101000a900473ffffffffffffffffffffffffffffffffffffffff1690508073ffffffffffffffffffffffffffffffffffffffff1663aa388af6876040518263ffffffff1660e01b8152600401808273ffffffffffffffffffffffffffffffffffffffff1673ffffffffffffffffffffffffffffffffffffffff16815260200191505060206040518083038186803b158015613a0957600080fd5b505afa158015613a1d573d6000803e3d6000fd5b505050506040513d6020811015613a3357600080fd5b81019080805190602001909291905050508015613b065750848173ffffffffffffffffffffffffffffffffffffffff16635f515226886040518263ffffffff1660e01b8152600401808273ffffffffffffffffffffffffffffffffffffffff1673ffffffffffffffffffffffffffffffffffffffff16815260200191505060206040518083038186803b158015613ac957600080fd5b505afa158015613add573d6000803e3d6000fd5b505050506040513d6020811015613af357600080fd5b8101908080519060200190929190505050115b15613b96576000613b4d60368481548110613b1d57fe5b9060005260206000200160009054906101000a900473ffffffffffffffffffffffffffffffffffffffff1661413e565b9050838113613b945780935060368381548110613b6657fe5b9060005260206000200160009054906101000a900473ffffffffffffffffffffffffffffffffffffffff1694505b505b508080600101915050613943565b505092915050565b60007f7bea13895fa79d2831e0a9e28edede30099005a50d652d8957cf8a607ee6ca4a60001b90508181555050565b6000613c1d83836040518060400160405280601e81526020017f536166654d6174683a207375627472616374696f6e206f766572666c6f7700008152506141ad565b905092915050565b600080613c43670de0b6b3a76400008561353f90919063ffffffff16565b9050613c5883826135c590919063ffffffff16565b91505092915050565b600080905060008090505b603480549050811015613de957600060348281548110613c8857fe5b9060005260206000200160009054906101000a900473ffffffffffffffffffffffffffffffffffffffff1690506000613cf760348481548110613cc757fe5b9060005260206000200160009054906101000a900473ffffffffffffffffffffffffffffffffffffffff16611cf5565b905060008273ffffffffffffffffffffffffffffffffffffffff166370a08231306040518263ffffffff1660e01b8152600401808273ffffffffffffffffffffffffffffffffffffffff1673ffffffffffffffffffffffffffffffffffffffff16815260200191505060206040518083038186803b158015613d7857600080fd5b505afa158015613d8c573d6000803e3d6000fd5b505050506040513d6020811015613da257600080fd5b810190808051906020019092919050505090506000811115613dd957613dd482601203826129fb90919063ffffffff16565b850194505b5050508080600101915050613c6c565b5090565b600080905060008090505b603680549050811015613e5657613e4560368281548110613e1557fe5b9060005260206000200160009054906101000a900473ffffffffffffffffffffffffffffffffffffffff1661426d565b820191508080600101915050613df8565b5090565b6000613e6f8383670de0b6b3a7640000611dee565b905092915050565b6000809050600080905060008090505b60368054905081101561402657600060368281548110613ea357fe5b9060005260206000200160009054906101000a900473ffffffffffffffffffffffffffffffffffffffff1690508073ffffffffffffffffffffffffffffffffffffffff1663aa388af6866040518263ffffffff1660e01b8152600401808273ffffffffffffffffffffffffffffffffffffffff1673ffffffffffffffffffffffffffffffffffffffff16815260200191505060206040518083038186803b158015613f4d57600080fd5b505afa158015613f61573d6000803e3d6000fd5b505050506040513d6020811015613f7757600080fd5b810190808051906020019092919050505015614018576000613fcf60368481548110613f9f57fe5b9060005260206000200160009054906101000a900473ffffffffffffffffffffffffffffffffffffffff1661413e565b90508381126140165780935060368381548110613fe857fe5b9060005260206000200160009054906101000a900473ffffffffffffffffffffffffffffffffffffffff1694505b505b508080600101915050613e87565b5050919050565b600080831182906140d9576040517f08c379a00000000000000000000000000000000000000000000000000000000081526004018080602001828103825283818151815260200191508051906020019080838360005b8381101561409e578082015181840152602081019050614083565b50505050905090810190601f1680156140cb5780820380516001836020036101000a031916815260200191505b509250505060405180910390fd5b5060008385816140e557fe5b049050809150509392505050565b60008060007fc5d2460186f7233c927e7db2dcc703c0e500b653ca82273b7bfad8045d85a47060001b9050833f915080821415801561413557506000801b8214155b92505050919050565b600061416261414b613527565b6141548461426d565b613c2590919063ffffffff16565b603560008473ffffffffffffffffffffffffffffffffffffffff1673ffffffffffffffffffffffffffffffffffffffff16815260200190815260200160002060010154039050919050565b600083831115829061425a576040517f08c379a00000000000000000000000000000000000000000000000000000000081526004018080602001828103825283818151815260200191508051906020019080838360005b8381101561421f578082015181840152602081019050614204565b50505050905090810190601f16801561424c5780820380516001836020036101000a031916815260200191505b509250505060405180910390fd5b5060008385039050809150509392505050565b6000809050600082905060008090505b6034805490508110156144e95760006142cc6034838154811061429c57fe5b9060005260206000200160009054906101000a900473ffffffffffffffffffffffffffffffffffffffff16611cf5565b90508273ffffffffffffffffffffffffffffffffffffffff1663aa388af6603484815481106142f757fe5b9060005260206000200160009054906101000a900473ffffffffffffffffffffffffffffffffffffffff166040518263ffffffff1660e01b8152600401808273ffffffffffffffffffffffffffffffffffffffff1673ffffffffffffffffffffffffffffffffffffffff16815260200191505060206040518083038186803b15801561438257600080fd5b505afa158015614396573d6000803e3d6000fd5b505050506040513d60208110156143ac57600080fd5b8101908080519060200190929190505050156144db5760008373ffffffffffffffffffffffffffffffffffffffff16635f515226603485815481106143ed57fe5b9060005260206000200160009054906101000a900473ffffffffffffffffffffffffffffffffffffffff166040518263ffffffff1660e01b8152600401808273ffffffffffffffffffffffffffffffffffffffff1673ffffffffffffffffffffffffffffffffffffffff16815260200191505060206040518083038186803b15801561447857600080fd5b505afa15801561448c573d6000803e3d6000fd5b505050506040513d60208110156144a257600080fd5b8101908080519060200190929190505050905060008111156144d9576144d482601203826129fb90919063ffffffff16565b850194505b505b50808060010191505061427d565b505091905056fe546f6b656e206d75737420686176652073756666696369656e7420646563696d616c20706c61636573536166654d6174683a206d756c7469706c69636174696f6e206f766572666c6f775361666545524332303a204552433230206f7065726174696f6e20646964206e6f7420737563636565644f6e6c79207468652070656e64696e6720476f7665726e6f722063616e20636f6d706c6574652074686520636c61696da265627a7a7231582087b0d0c24d6bdd4ce699af8d638801f5f32c070995d7a8f7cb03bd685a2a3e1564736f6c634300050b0032",
  "devdoc": {
    "methods": {
      "allocate()": {
        "details": "Allocate unallocated funds on Vault to strategies.*"
      },
      "checkBalance(address)": {
        "params": {
          "_asset": "Address of asset"
        },
        "return": "uint256 Balance of asset in decimals of asset"
      },
      "claimGovernance()": {
        "details": "Claim Governance of the contract to a new account (`newGovernor`). Can only be called by the new Governor."
      },
      "getAllAssets()": {
        "details": "Return all asset addresses in order"
      },
      "getAssetCount()": {
        "details": "Return the number of assets suppported by the Vault."
      },
      "getStrategyCount()": {
        "details": "Return the number of strategies active on the Vault."
      },
      "governor()": {
        "details": "Returns the address of the current Governor."
      },
      "isGovernor()": {
        "details": "Returns true if the caller is the current Governor."
      },
      "mint(address,uint256)": {
        "details": "Deposit a supported asset and mint OUSD.",
        "params": {
          "_amount": "Amount of the asset being deposited",
          "_asset": "Address of the asset being deposited"
        }
      },
      "mintMultiple(address[],uint256[])": {
        "details": "Mint for multiple assets in the same call.",
        "params": {
          "_amounts": "Amount of each asset at the same index in the _assets                to deposit.",
          "_assets": "Addresses of assets being deposited"
        }
      },
      "rebase()": {
        "details": "Calculate the total value of assets held by the Vault and all        strategies and update the supply of oUSD"
      },
      "redeem(uint256)": {
        "details": "Withdraw a supported asset and burn OUSD.",
        "params": {
          "_amount": "Amount of OUSD to burn"
        }
      },
      "setAdminImpl(address)": {
        "details": "set the implementation for the admin, this needs to be in a base class else we cannot set it",
        "params": {
          "newImpl": "address pf the implementation"
        }
      },
      "totalValue()": {
        "details": "Determine the total value of assets held by the vault and its        strategies.",
        "return": "uint256 value Total value in USD (1e18)"
      },
      "transferGovernance(address)": {
        "details": "Transfers Governance of the contract to a new account (`newGovernor`). Can only be called by the current Governor. Must be claimed for this to complete",
        "params": {
          "_newGovernor": "Address of the new Governor"
        }
      }
    }
  },
  "userdoc": {
    "methods": {
      "allocate()": {
        "notice": "Allocate unallocated funds on Vault to strategies."
      },
      "calculateRedeemOutputs(uint256)": {
        "notice": "Calculate the outputs for a redeem function, i.e. the mix of coins that will be returned"
      },
      "checkBalance(address)": {
        "notice": "Get the balance of an asset held in Vault and all strategies."
      },
      "redeemAll()": {
        "notice": "Withdraw a supported asset and burn all OUSD."
      }
    }
  },
  "gasEstimates": {
    "creation": {
      "codeDepositCost": "3573000",
      "executionCost": "infinite",
      "totalCost": "infinite"
    },
    "external": {
      "": "infinite",
      "allocate()": "infinite",
      "autoAllocateThreshold()": "472",
      "calculateRedeemOutputs(uint256)": "infinite",
      "checkBalance(address)": "infinite",
      "claimGovernance()": "infinite",
      "depositPaused()": "527",
      "getAllAssets()": "infinite",
      "getAssetCount()": "510",
      "getStrategyCount()": "511",
      "governor()": "569",
      "isGovernor()": "585",
      "isSupportedAsset(address)": "695",
      "mint(address,uint256)": "infinite",
      "mintMultiple(address[],uint256[])": "infinite",
      "priceProvider()": "520",
      "rebase()": "infinite",
      "rebaseHooksAddr()": "543",
      "rebasePaused()": "592",
      "rebaseThreshold()": "472",
      "redeem(uint256)": "infinite",
      "redeemAll()": "infinite",
      "redeemFeeBps()": "473",
      "setAdminImpl(address)": "20692",
      "totalValue()": "infinite",
      "transferGovernance(address)": "infinite",
      "uniswapAddr()": "565",
      "vaultBuffer()": "539"
    },
    "internal": {
      "_allocate()": "infinite",
      "_calculateRedeemOutputs(uint256)": "infinite",
      "_checkBalance()": "infinite",
      "_checkBalance(address)": "infinite",
      "_getAssetPrices(bool)": "infinite",
      "_redeem(uint256)": "infinite",
      "_selectDepositStrategyAddr(address)": "infinite",
      "_selectWithdrawStrategyAddr(address,uint256)": "infinite",
      "_strategyWeightDifference(address)": "infinite",
      "_totalValue()": "infinite",
      "_totalValueInStrategies()": "infinite",
      "_totalValueInStrategy(address)": "infinite",
      "_totalValueInVault()": "infinite",
      "rebase(bool)": "infinite"
    }
  }
}