{
  "address": "0x997c35A0bf8E21404aE4379841E0603C957138c3",
  "abi": [
    {
      "anonymous": false,
      "inputs": [
        {
          "indexed": false,
          "internalType": "uint256",
          "name": "_threshold",
          "type": "uint256"
        }
      ],
      "name": "AllocateThresholdUpdated",
      "type": "event"
    },
    {
      "anonymous": false,
      "inputs": [
        {
          "indexed": false,
          "internalType": "address",
          "name": "_asset",
          "type": "address"
        },
        {
          "indexed": false,
          "internalType": "address",
          "name": "_strategy",
          "type": "address"
        },
        {
          "indexed": false,
          "internalType": "uint256",
          "name": "_amount",
          "type": "uint256"
        }
      ],
      "name": "AssetAllocated",
      "type": "event"
    },
    {
      "anonymous": false,
      "inputs": [
        {
          "indexed": false,
          "internalType": "address",
          "name": "_asset",
          "type": "address"
        },
        {
          "indexed": false,
          "internalType": "address",
          "name": "_strategy",
          "type": "address"
        }
      ],
      "name": "AssetDefaultStrategyUpdated",
      "type": "event"
    },
    {
      "anonymous": false,
      "inputs": [
        {
          "indexed": false,
          "internalType": "address",
          "name": "_asset",
          "type": "address"
        }
      ],
      "name": "AssetSupported",
      "type": "event"
    },
    {
      "anonymous": false,
      "inputs": [],
      "name": "CapitalPaused",
      "type": "event"
    },
    {
      "anonymous": false,
      "inputs": [],
      "name": "CapitalUnpaused",
      "type": "event"
    },
    {
      "anonymous": false,
      "inputs": [
        {
          "indexed": true,
          "internalType": "address",
          "name": "previousGovernor",
          "type": "address"
        },
        {
          "indexed": true,
          "internalType": "address",
          "name": "newGovernor",
          "type": "address"
        }
      ],
      "name": "GovernorshipTransferred",
      "type": "event"
    },
    {
      "anonymous": false,
      "inputs": [
        {
          "indexed": false,
          "internalType": "uint256",
          "name": "maxSupplyDiff",
          "type": "uint256"
        }
      ],
      "name": "MaxSupplyDiffChanged",
      "type": "event"
    },
    {
      "anonymous": false,
      "inputs": [
        {
          "indexed": false,
          "internalType": "address",
          "name": "_addr",
          "type": "address"
        },
        {
          "indexed": false,
          "internalType": "uint256",
          "name": "_value",
          "type": "uint256"
        }
      ],
      "name": "Mint",
      "type": "event"
    },
    {
      "anonymous": false,
      "inputs": [
        {
          "indexed": false,
          "internalType": "uint256",
          "name": "_threshold",
          "type": "uint256"
        }
      ],
      "name": "NetOusdMintForStrategyThresholdChanged",
      "type": "event"
    },
    {
      "anonymous": false,
      "inputs": [
        {
          "indexed": false,
          "internalType": "address",
          "name": "_ousdMetaStrategy",
          "type": "address"
        }
      ],
      "name": "OusdMetaStrategyUpdated",
      "type": "event"
    },
    {
      "anonymous": false,
      "inputs": [
        {
          "indexed": true,
          "internalType": "address",
          "name": "previousGovernor",
          "type": "address"
        },
        {
          "indexed": true,
          "internalType": "address",
          "name": "newGovernor",
          "type": "address"
        }
      ],
      "name": "PendingGovernorshipTransfer",
      "type": "event"
    },
    {
      "anonymous": false,
      "inputs": [
        {
          "indexed": false,
          "internalType": "address",
          "name": "_priceProvider",
          "type": "address"
        }
      ],
      "name": "PriceProviderUpdated",
      "type": "event"
    },
    {
      "anonymous": false,
      "inputs": [],
      "name": "RebasePaused",
      "type": "event"
    },
    {
      "anonymous": false,
      "inputs": [
        {
          "indexed": false,
          "internalType": "uint256",
          "name": "_threshold",
          "type": "uint256"
        }
      ],
      "name": "RebaseThresholdUpdated",
      "type": "event"
    },
    {
      "anonymous": false,
      "inputs": [],
      "name": "RebaseUnpaused",
      "type": "event"
    },
    {
      "anonymous": false,
      "inputs": [
        {
          "indexed": false,
          "internalType": "address",
          "name": "_addr",
          "type": "address"
        },
        {
          "indexed": false,
          "internalType": "uint256",
          "name": "_value",
          "type": "uint256"
        }
      ],
      "name": "Redeem",
      "type": "event"
    },
    {
      "anonymous": false,
      "inputs": [
        {
          "indexed": false,
          "internalType": "uint256",
          "name": "_redeemFeeBps",
          "type": "uint256"
        }
      ],
      "name": "RedeemFeeUpdated",
      "type": "event"
    },
    {
      "anonymous": false,
      "inputs": [
        {
          "indexed": false,
          "internalType": "address",
          "name": "_address",
          "type": "address"
        }
      ],
      "name": "StrategistUpdated",
      "type": "event"
    },
    {
      "anonymous": false,
      "inputs": [
        {
          "indexed": false,
          "internalType": "address",
          "name": "_addr",
          "type": "address"
        }
      ],
      "name": "StrategyApproved",
      "type": "event"
    },
    {
      "anonymous": false,
      "inputs": [
        {
          "indexed": false,
          "internalType": "address",
          "name": "_addr",
          "type": "address"
        }
      ],
      "name": "StrategyRemoved",
      "type": "event"
    },
    {
      "anonymous": false,
      "inputs": [
        {
          "indexed": false,
          "internalType": "address",
          "name": "_address",
          "type": "address"
        }
      ],
      "name": "TrusteeAddressChanged",
      "type": "event"
    },
    {
      "anonymous": false,
      "inputs": [
        {
          "indexed": false,
          "internalType": "uint256",
          "name": "_basis",
          "type": "uint256"
        }
      ],
      "name": "TrusteeFeeBpsChanged",
      "type": "event"
    },
    {
      "anonymous": false,
      "inputs": [
        {
          "indexed": false,
          "internalType": "uint256",
          "name": "_vaultBuffer",
          "type": "uint256"
        }
      ],
      "name": "VaultBufferUpdated",
      "type": "event"
    },
    {
      "anonymous": false,
      "inputs": [
        {
          "indexed": false,
          "internalType": "address",
          "name": "_to",
          "type": "address"
        },
        {
          "indexed": false,
          "internalType": "uint256",
          "name": "_yield",
          "type": "uint256"
        },
        {
          "indexed": false,
          "internalType": "uint256",
          "name": "_fee",
          "type": "uint256"
        }
      ],
      "name": "YieldDistribution",
      "type": "event"
    },
    {
      "stateMutability": "payable",
      "type": "fallback"
    },
    {
      "inputs": [],
      "name": "allocate",
      "outputs": [],
      "stateMutability": "nonpayable",
      "type": "function"
    },
    {
      "inputs": [
        {
          "internalType": "address",
          "name": "",
          "type": "address"
        }
      ],
      "name": "assetDefaultStrategies",
      "outputs": [
        {
          "internalType": "address",
          "name": "",
          "type": "address"
        }
      ],
      "stateMutability": "view",
      "type": "function"
    },
    {
      "inputs": [],
      "name": "autoAllocateThreshold",
      "outputs": [
        {
          "internalType": "uint256",
          "name": "",
          "type": "uint256"
        }
      ],
      "stateMutability": "view",
      "type": "function"
    },
    {
      "inputs": [
        {
          "internalType": "uint256",
          "name": "_amount",
          "type": "uint256"
        }
      ],
      "name": "burnForStrategy",
      "outputs": [],
      "stateMutability": "nonpayable",
      "type": "function"
    },
    {
      "inputs": [
        {
          "internalType": "uint256",
          "name": "_amount",
          "type": "uint256"
        }
      ],
      "name": "calculateRedeemOutputs",
      "outputs": [
        {
          "internalType": "uint256[]",
          "name": "",
          "type": "uint256[]"
        }
      ],
      "stateMutability": "view",
      "type": "function"
    },
    {
      "inputs": [],
      "name": "capitalPaused",
      "outputs": [
        {
          "internalType": "bool",
          "name": "",
          "type": "bool"
        }
      ],
      "stateMutability": "view",
      "type": "function"
    },
    {
      "inputs": [
        {
          "internalType": "address",
          "name": "_asset",
          "type": "address"
        }
      ],
      "name": "checkBalance",
      "outputs": [
        {
          "internalType": "uint256",
          "name": "",
          "type": "uint256"
        }
      ],
      "stateMutability": "view",
      "type": "function"
    },
    {
      "inputs": [],
      "name": "claimGovernance",
      "outputs": [],
      "stateMutability": "nonpayable",
      "type": "function"
    },
    {
      "inputs": [],
      "name": "getAllAssets",
      "outputs": [
        {
          "internalType": "address[]",
          "name": "",
          "type": "address[]"
        }
      ],
      "stateMutability": "view",
      "type": "function"
    },
    {
      "inputs": [],
      "name": "getAllStrategies",
      "outputs": [
        {
          "internalType": "address[]",
          "name": "",
          "type": "address[]"
        }
      ],
      "stateMutability": "view",
      "type": "function"
    },
    {
      "inputs": [],
      "name": "getAssetCount",
      "outputs": [
        {
          "internalType": "uint256",
          "name": "",
          "type": "uint256"
        }
      ],
      "stateMutability": "view",
      "type": "function"
    },
    {
      "inputs": [],
      "name": "getStrategyCount",
      "outputs": [
        {
          "internalType": "uint256",
          "name": "",
          "type": "uint256"
        }
      ],
      "stateMutability": "view",
      "type": "function"
    },
    {
      "inputs": [],
      "name": "governor",
      "outputs": [
        {
          "internalType": "address",
          "name": "",
          "type": "address"
        }
      ],
      "stateMutability": "view",
      "type": "function"
    },
    {
      "inputs": [],
      "name": "isGovernor",
      "outputs": [
        {
          "internalType": "bool",
          "name": "",
          "type": "bool"
        }
      ],
      "stateMutability": "view",
      "type": "function"
    },
    {
      "inputs": [
        {
          "internalType": "address",
          "name": "_asset",
          "type": "address"
        }
      ],
      "name": "isSupportedAsset",
      "outputs": [
        {
          "internalType": "bool",
          "name": "",
          "type": "bool"
        }
      ],
      "stateMutability": "view",
      "type": "function"
    },
    {
      "inputs": [],
      "name": "maxSupplyDiff",
      "outputs": [
        {
          "internalType": "uint256",
          "name": "",
          "type": "uint256"
        }
      ],
      "stateMutability": "view",
      "type": "function"
    },
    {
      "inputs": [
        {
          "internalType": "address",
          "name": "_asset",
          "type": "address"
        },
        {
          "internalType": "uint256",
          "name": "_amount",
          "type": "uint256"
        },
        {
          "internalType": "uint256",
          "name": "_minimumOusdAmount",
          "type": "uint256"
        }
      ],
      "name": "mint",
      "outputs": [],
      "stateMutability": "nonpayable",
      "type": "function"
    },
    {
      "inputs": [
        {
          "internalType": "uint256",
          "name": "_amount",
          "type": "uint256"
        }
      ],
      "name": "mintForStrategy",
      "outputs": [],
      "stateMutability": "nonpayable",
      "type": "function"
    },
    {
      "inputs": [],
      "name": "netOusdMintForStrategyThreshold",
      "outputs": [
        {
          "internalType": "uint256",
          "name": "",
          "type": "uint256"
        }
      ],
      "stateMutability": "view",
      "type": "function"
    },
    {
      "inputs": [],
      "name": "netOusdMintedForStrategy",
      "outputs": [
        {
          "internalType": "int256",
          "name": "",
          "type": "int256"
        }
      ],
      "stateMutability": "view",
      "type": "function"
    },
    {
      "inputs": [],
      "name": "ousdMetaStrategy",
      "outputs": [
        {
          "internalType": "address",
          "name": "",
          "type": "address"
        }
      ],
      "stateMutability": "view",
      "type": "function"
    },
    {
      "inputs": [],
      "name": "priceProvider",
      "outputs": [
        {
          "internalType": "address",
          "name": "",
          "type": "address"
        }
      ],
      "stateMutability": "view",
      "type": "function"
    },
    {
      "inputs": [],
      "name": "rebase",
      "outputs": [],
      "stateMutability": "nonpayable",
      "type": "function"
    },
    {
      "inputs": [],
      "name": "rebasePaused",
      "outputs": [
        {
          "internalType": "bool",
          "name": "",
          "type": "bool"
        }
      ],
      "stateMutability": "view",
      "type": "function"
    },
    {
      "inputs": [],
      "name": "rebaseThreshold",
      "outputs": [
        {
          "internalType": "uint256",
          "name": "",
          "type": "uint256"
        }
      ],
      "stateMutability": "view",
      "type": "function"
    },
    {
      "inputs": [
        {
          "internalType": "uint256",
          "name": "_amount",
          "type": "uint256"
        },
        {
          "internalType": "uint256",
          "name": "_minimumUnitAmount",
          "type": "uint256"
        }
      ],
      "name": "redeem",
      "outputs": [],
      "stateMutability": "nonpayable",
      "type": "function"
    },
    {
      "inputs": [
        {
          "internalType": "uint256",
          "name": "_minimumUnitAmount",
          "type": "uint256"
        }
      ],
      "name": "redeemAll",
      "outputs": [],
      "stateMutability": "nonpayable",
      "type": "function"
    },
    {
      "inputs": [],
      "name": "redeemFeeBps",
      "outputs": [
        {
          "internalType": "uint256",
          "name": "",
          "type": "uint256"
        }
      ],
      "stateMutability": "view",
      "type": "function"
    },
    {
      "inputs": [
        {
          "internalType": "address",
          "name": "newImpl",
          "type": "address"
        }
      ],
      "name": "setAdminImpl",
      "outputs": [],
      "stateMutability": "nonpayable",
      "type": "function"
    },
    {
      "inputs": [],
      "name": "strategistAddr",
      "outputs": [
        {
          "internalType": "address",
          "name": "",
          "type": "address"
        }
      ],
      "stateMutability": "view",
      "type": "function"
    },
    {
      "inputs": [],
      "name": "totalValue",
      "outputs": [
        {
          "internalType": "uint256",
          "name": "value",
          "type": "uint256"
        }
      ],
      "stateMutability": "view",
      "type": "function"
    },
    {
      "inputs": [
        {
          "internalType": "address",
          "name": "_newGovernor",
          "type": "address"
        }
      ],
      "name": "transferGovernance",
      "outputs": [],
      "stateMutability": "nonpayable",
      "type": "function"
    },
    {
      "inputs": [],
      "name": "trusteeAddress",
      "outputs": [
        {
          "internalType": "address",
          "name": "",
          "type": "address"
        }
      ],
      "stateMutability": "view",
      "type": "function"
    },
    {
      "inputs": [],
      "name": "trusteeFeeBps",
      "outputs": [
        {
          "internalType": "uint256",
          "name": "",
          "type": "uint256"
        }
      ],
      "stateMutability": "view",
      "type": "function"
    },
    {
      "inputs": [],
      "name": "vaultBuffer",
      "outputs": [
        {
          "internalType": "uint256",
          "name": "",
          "type": "uint256"
        }
      ],
      "stateMutability": "view",
      "type": "function"
    }
  ],
  "transactionHash": "0x97fbd66f80e9c870cbf0b0f423d7132a975387a8040de0754274e310216c0551",
  "args": [],
  "solcInputHash": "319af15f161ea85e31c5299a9c5b406b",
  "bytecode": "0x60806040526037805461ffff60a01b1916600160a81b179055603d80546001600160a01b0319908116909155603e805482169055603f805482169055604580549091169055600060468190556047553480156200005b57600080fd5b5062000074336000805160206200346d83398151915255565b6000805160206200346d833981519152546040516001600160a01b03909116906000907fc7c0c772add429241571afb3805861fb3cfa2af374534088b76cdb4325a87e9a908290a36133a180620000cc6000396000f3fe6080604052600436106102045760003560e01c80637a2202f311610118578063af14052c116100a0578063d38bfff41161006f578063d38bfff4146105e8578063d4c3eea014610608578063e45cc9f01461061d578063e6cc543214610633578063fc0cfeee1461065457610204565b8063af14052c14610589578063b888879e1461059e578063c3b28864146105be578063c7af3352146105d357610204565b80639fa1826e116100e75780639fa1826e146104f3578063a0aead4d14610509578063a403e4d51461051e578063ab80dafb14610554578063abaa99161461057457610204565b80637a2202f31461046e5780637cbc2373146104845780638e510b52146104a45780639be918e6146104ba57610204565b806349c1d54d1161019b5780635d36b1901161016a5780635d36b190146103cc5780635f515226146103e15780636217f3ea1461040157806367bd7ba3146104215780637136a7a61461044e57610204565b806349c1d54d1461034557806352d38e5d1461036557806353ca9f241461037b578063570d8e1d146103ac57610204565b80631edfe3da116101d75780631edfe3da146102e2578063207134b0146102f85780632acada4d1461030e57806331e19cfa1461033057610204565b806309f6442c1461024a5780630c340a2414610273578063156e29f6146102a057806318ce56bd146102c2575b7fa2bd3d3cf188a41358c8b401076eb59066b09dec5775650c0de4c55187d17bd9366000803760008036600084545af43d6000803e808015610245573d6000f35b3d6000fd5b34801561025657600080fd5b5061026060385481565b6040519081526020015b60405180910390f35b34801561027f57600080fd5b50610288610674565b6040516001600160a01b03909116815260200161026a565b3480156102ac57600080fd5b506102c06102bb366004612e34565b610691565b005b3480156102ce57600080fd5b50604554610288906001600160a01b031681565b3480156102ee57600080fd5b5061026060395481565b34801561030457600080fd5b5061026060435481565b34801561031a57600080fd5b50610323610a23565b60405161026a9190612f35565b34801561033c57600080fd5b50603654610260565b34801561035157600080fd5b50604254610288906001600160a01b031681565b34801561037157600080fd5b50610260603b5481565b34801561038757600080fd5b5060375461039c90600160a01b900460ff1681565b604051901515815260200161026a565b3480156103b857600080fd5b50603f54610288906001600160a01b031681565b3480156103d857600080fd5b506102c0610a85565b3480156103ed57600080fd5b506102606103fc366004612e19565b610b2b565b34801561040d57600080fd5b506102c061041c366004612e89565b610b3c565b34801561042d57600080fd5b5061044161043c366004612e89565b610cfc565b60405161026a9190612f82565b34801561045a57600080fd5b506102c0610469366004612e89565b610d11565b34801561047a57600080fd5b5061026060475481565b34801561049057600080fd5b506102c061049f366004612ebb565b610dfc565b3480156104b057600080fd5b5061026060415481565b3480156104c657600080fd5b5061039c6104d5366004612e19565b6001600160a01b031660009081526033602052604090205460ff1690565b3480156104ff57600080fd5b50610260603a5481565b34801561051557600080fd5b50603454610260565b34801561052a57600080fd5b50610288610539366004612e19565b6040602081905260009182529020546001600160a01b031681565b34801561056057600080fd5b506102c061056f366004612e89565b610e6f565b34801561058057600080fd5b506102c0611044565b34801561059557600080fd5b506102c06110b3565b3480156105aa57600080fd5b50603754610288906001600160a01b031681565b3480156105ca57600080fd5b506103236110f1565b3480156105df57600080fd5b5061039c611151565b3480156105f457600080fd5b506102c0610603366004612e19565b611182565b34801561061457600080fd5b50610260611256565b34801561062957600080fd5b5061026060465481565b34801561063f57600080fd5b5060375461039c90600160a81b900460ff1681565b34801561066057600080fd5b506102c061066f366004612e19565b611260565b600061068c60008051602061334c8339815191525490565b905090565b603754600160a81b900460ff16156106c45760405162461bcd60e51b81526004016106bb9061305a565b60405180910390fd5b60008051602061332c833981519152805460028114156106f65760405162461bcd60e51b81526004016106bb90613082565b600282556001600160a01b03851660009081526033602052604090205460ff1661075b5760405162461bcd60e51b8152602060048201526016602482015275105cdcd95d081a5cc81b9bdd081cdd5c1c1bdc9d195960521b60448201526064016106bb565b600084116107ab5760405162461bcd60e51b815260206004820152601d60248201527f416d6f756e74206d7573742062652067726561746572207468616e203000000060448201526064016106bb565b6037546040516315d5220f60e31b81526001600160a01b038781166004830152600092169063aea910789060240160206040518083038186803b1580156107f157600080fd5b505afa158015610805573d6000803e3d6000fd5b505050506040513d601f19601f820116820180604052508101906108299190612ea2565b90506305f5e10081111561083e57506305f5e1005b6305f2d3c081101561088a5760405162461bcd60e51b815260206004820152601560248201527441737365742070726963652062656c6f772070656760581b60448201526064016106bb565b600061089587611332565b905060006108a58760128461141b565b905060006108cc6108b9856012600861141b565b6108c485600a613168565b8a919061147f565b9050861561092457868110156109245760405162461bcd60e51b815260206004820152601e60248201527f4d696e7420616d6f756e74206c6f776572207468616e206d696e696d756d000060448201526064016106bb565b7f0f6798a560793a54c3bcfe86a93cde1e73087d944c0ea20544137d41213968853382604051610955929190612f1c565b60405180910390a1603b5482101580156109795750603754600160a01b900460ff16155b15610986576109866114a1565b603c546040516340c10f1960e01b81526001600160a01b03909116906340c10f19906109b89033908590600401612f1c565b600060405180830381600087803b1580156109d257600080fd5b505af11580156109e6573d6000803e3d6000fd5b508b9250610a029150506001600160a01b03821633308c6117d9565b603a548310610a1357610a1361184a565b5050505050600182555050505050565b60606034805480602002602001604051908101604052809291908181526020018280548015610a7b57602002820191906000526020600020905b81546001600160a01b03168152600190910190602001808311610a5d575b5050505050905090565b7f44c4d30b2eaad5130ad70c3ba6972730566f3e6359ab83e800d905c61b1c51db546001600160a01b0316336001600160a01b031614610b205760405162461bcd60e51b815260206004820152603060248201527f4f6e6c79207468652070656e64696e6720476f7665726e6f722063616e20636f60448201526f6d706c6574652074686520636c61696d60801b60648201526084016106bb565b610b2933611b34565b565b6000610b3682611bf5565b92915050565b603754600160a81b900460ff1615610b665760405162461bcd60e51b81526004016106bb9061305a565b6045546001600160a01b03163314610b905760405162461bcd60e51b81526004016106bb90612fed565b6001600160ff1b038110610bb65760405162461bcd60e51b81526004016106bb90613031565b7f222838db2794d11532d940e8dec38ae307ed0b63cd97c233322e221f998767a63382604051610be7929190612f1c565b60405180910390a18060466000828254610c01919061322f565b9091555050604754604654610c1590611dc5565b10610c6c5760405162461bcd60e51b815260206004820152602160248201527f417474656d7074696e6720746f206275726e20746f6f206d756368204f5553446044820152601760f91b60648201526084016106bb565b603c54604051632770a7eb60e21b81526001600160a01b0390911690639dc29fac90610c9e9033908590600401612f1c565b600060405180830381600087803b158015610cb857600080fd5b505af1158015610ccc573d6000803e3d6000fd5b50505050603b548110158015610cec5750603754600160a01b900460ff16155b15610cf957610cf96114a1565b50565b60606000610d0983611e08565b509392505050565b603754600160a81b900460ff1615610d3b5760405162461bcd60e51b81526004016106bb9061305a565b60008051602061332c83398151915280546002811415610d6d5760405162461bcd60e51b81526004016106bb90613082565b60028255603c546040516370a0823160e01b8152336004820152610df4916001600160a01b0316906370a082319060240160206040518083038186803b158015610db657600080fd5b505afa158015610dca573d6000803e3d6000fd5b505050506040513d601f19601f82011682018060405250810190610dee9190612ea2565b84612157565b506001905550565b603754600160a81b900460ff1615610e265760405162461bcd60e51b81526004016106bb9061305a565b60008051602061332c83398151915280546002811415610e585760405162461bcd60e51b81526004016106bb90613082565b60028255610e668484612157565b50600190555050565b603754600160a81b900460ff1615610e995760405162461bcd60e51b81526004016106bb9061305a565b6045546001600160a01b03163314610ec35760405162461bcd60e51b81526004016106bb90612fed565b6001600160ff1b038110610ee95760405162461bcd60e51b81526004016106bb90613031565b7f0f6798a560793a54c3bcfe86a93cde1e73087d944c0ea20544137d41213968853382604051610f1a929190612f1c565b60405180910390a1603b548110158015610f3e5750603754600160a01b900460ff16155b15610f4b57610f4b6114a1565b8060466000828254610f5d91906130aa565b9091555050604754604654610f7190611dc5565b10610fdd5760405162461bcd60e51b815260206004820152603660248201527f4d696e746564206f75736420737572706173736564206e65744f7573644d696e6044820152753a2337b929ba3930ba32b3bcaa343932b9b437b6321760511b60648201526084016106bb565b603c546040516340c10f1960e01b81526001600160a01b03909116906340c10f199061100f9033908590600401612f1c565b600060405180830381600087803b15801561102957600080fd5b505af115801561103d573d6000803e3d6000fd5b5050505050565b603754600160a81b900460ff161561106e5760405162461bcd60e51b81526004016106bb9061305a565b60008051602061332c833981519152805460028114156110a05760405162461bcd60e51b81526004016106bb90613082565b600282556110ac61184a565b5060019055565b60008051602061332c833981519152805460028114156110e55760405162461bcd60e51b81526004016106bb90613082565b600282556110ac6114a1565b60606036805480602002602001604051908101604052809291908181526020018280548015610a7b576020028201919060005260206000209081546001600160a01b03168152600190910190602001808311610a5d575050505050905090565b600061116960008051602061334c8339815191525490565b6001600160a01b0316336001600160a01b031614905090565b61118a611151565b6111d65760405162461bcd60e51b815260206004820152601a60248201527f43616c6c6572206973206e6f742074686520476f7665726e6f7200000000000060448201526064016106bb565b6111fe817f44c4d30b2eaad5130ad70c3ba6972730566f3e6359ab83e800d905c61b1c51db55565b806001600160a01b031661121e60008051602061334c8339815191525490565b6001600160a01b03167fa39cc5eb22d0f34d8beaefee8a3f17cc229c1a1d1ef87a5ad47313487b1c4f0d60405160405180910390a350565b600061068c6126b7565b611268611151565b6112b45760405162461bcd60e51b815260206004820152601a60248201527f43616c6c6572206973206e6f742074686520476f7665726e6f7200000000000060448201526064016106bb565b803b61130e5760405162461bcd60e51b8152602060048201526024808201527f6e657720696d706c656d656e746174696f6e206973206e6f74206120636f6e746044820152631c9858dd60e21b60648201526084016106bb565b7fa2bd3d3cf188a41358c8b401076eb59066b09dec5775650c0de4c55187d17bd955565b600080826001600160a01b031663313ce5676040518163ffffffff1660e01b815260040160206040518083038186803b15801561136e57600080fd5b505afa158015611382573d6000803e3d6000fd5b505050506040513d601f19601f820116820180604052508101906113a69190612edd565b60ff169050600481101580156113bd575060128111155b610b365760405162461bcd60e51b815260206004820152602960248201527f546f6b656e206d75737420686176652073756666696369656e7420646563696d604482015268616c20706c6163657360b81b60648201526084016106bb565b60008183111561144b57611444611432838561326e565b61143d90600a613168565b85906126d2565b9350611475565b8183101561147557611472611460848461326e565b61146b90600a613168565b85906126de565b93505b50825b9392505050565b60008061148c85856126d2565b905061149881846126de565b95945050505050565b603754600160a01b900460ff16156114ed5760405162461bcd60e51b815260206004820152600f60248201526e149958985cda5b99c81c185d5cd959608a1b60448201526064016106bb565b603c54604080516318160ddd60e01b815290516000926001600160a01b0316916318160ddd916004808301926020929190829003018186803b15801561153257600080fd5b505afa158015611546573d6000803e3d6000fd5b505050506040513d601f19601f8201168201806040525081019061156a9190612ea2565b9050806115745750565b600061157e6126b7565b6042549091506001600160a01b0316801580159061159b57508282115b156116e55760006115ac83856126ea565b905060006115d16127106115cb604354856126d290919063ffffffff16565b906126de565b905080821161162d5760405162461bcd60e51b815260206004820152602260248201527f466565206d757374206e6f742062652067726561746572207468616e207969656044820152611b1960f21b60648201526084016106bb565b801561169857603c546040516340c10f1960e01b81526001600160a01b03909116906340c10f19906116659086908590600401612f1c565b600060405180830381600087803b15801561167f57600080fd5b505af1158015611693573d6000803e3d6000fd5b505050505b604080516001600160a01b0385168152602081018490529081018290527f09516ecf4a8a86e59780a9befc6dee948bc9e60a36e3be68d31ea817ee8d2c809060600160405180910390a150505b603c60009054906101000a90046001600160a01b03166001600160a01b03166318160ddd6040518163ffffffff1660e01b815260040160206040518083038186803b15801561173357600080fd5b505afa158015611747573d6000803e3d6000fd5b505050506040513d601f19601f8201168201806040525081019061176b9190612ea2565b9250828211156117d457603c546040516339a7919f60e01b8152600481018490526001600160a01b03909116906339a7919f90602401600060405180830381600087803b1580156117bb57600080fd5b505af11580156117cf573d6000803e3d6000fd5b505050505b505050565b6040516001600160a01b03808516602483015283166044820152606481018290526118449085906323b872dd60e01b906084015b60408051601f198184030181529190526020810180516001600160e01b03166001600160e01b0319909316929092179091526126f6565b50505050565b60006118546127c8565b90508061185e5750565b60006118686128cf565b90506000611876838361292b565b905060008261189c5760395461189590670de0b6b3a7640000906126ea565b90506118d9565b6118b5846115cb846039546126d290919063ffffffff16565b905080670de0b6b3a7640000111561184457611895670de0b6b3a7640000826126ea565b806118e45750505050565b60005b603454811015611ab257600060348281548110611906576119066132ff565b60009182526020822001546040516370a0823160e01b81523060048201526001600160a01b03909116925082906370a082319060240160206040518083038186803b15801561195457600080fd5b505afa158015611968573d6000803e3d6000fd5b505050506040513d601f19601f8201168201806040525081019061198c9190612ea2565b90508061199a575050611aa0565b60006119a68286612937565b6001600160a01b038085166000908152604060208190529020549192501680158015906119d35750600082115b15611a9b57806119ed6001600160a01b038616828561294c565b6040516311f9fbc960e21b81526001600160a01b038216906347e7ef2490611a1b9088908790600401612f1c565b600060405180830381600087803b158015611a3557600080fd5b505af1158015611a49573d6000803e3d6000fd5b5050604080516001600160a01b03808a168252861660208201529081018690527f41b99659f6ba0803f444aff29e5bf6e26dd86a3219aff92119d69710a956ba8d9250606001905060405180910390a1505b505050505b80611aaa816132b1565b9150506118e7565b506042546001600160a01b0316801561103d57604260009054906101000a90046001600160a01b03166001600160a01b0316638119c0656040518163ffffffff1660e01b8152600401600060405180830381600087803b158015611b1557600080fd5b505af1158015611b29573d6000803e3d6000fd5b505050505050505050565b6001600160a01b038116611b8a5760405162461bcd60e51b815260206004820152601a60248201527f4e657720476f7665726e6f72206973206164647265737328302900000000000060448201526064016106bb565b806001600160a01b0316611baa60008051602061334c8339815191525490565b6001600160a01b03167fc7c0c772add429241571afb3805861fb3cfa2af374534088b76cdb4325a87e9a60405160405180910390a3610cf98160008051602061334c83398151915255565b6040516370a0823160e01b815230600482015260009082906001600160a01b038216906370a082319060240160206040518083038186803b158015611c3957600080fd5b505afa158015611c4d573d6000803e3d6000fd5b505050506040513d601f19601f82011682018060405250810190611c719190612ea2565b915060005b603654811015611dbe57600060368281548110611c9557611c956132ff565b60009182526020909120015460405163551c457b60e11b81526001600160a01b0387811660048301529091169150819063aa388af69060240160206040518083038186803b158015611ce657600080fd5b505afa158015611cfa573d6000803e3d6000fd5b505050506040513d601f19601f82011682018060405250810190611d1e9190612e67565b15611dab57604051632fa8a91360e11b81526001600160a01b038681166004830152611da89190831690635f5152269060240160206040518083038186803b158015611d6957600080fd5b505afa158015611d7d573d6000803e3d6000fd5b505050506040513d601f19601f82011682018060405250810190611da19190612ea2565b859061292b565b93505b5080611db6816132b1565b915050611c76565b5050919050565b60006001600160ff1b038212611ded5760405162461bcd60e51b81526004016106bb90613031565b6000821215611e0457611dff826132cc565b610b36565b5090565b6060600080611e1660345490565b90506000611e2261296b565b905060008267ffffffffffffffff811115611e3f57611e3f613315565b604051908082528060200260200182016040528015611e68578160200160208202803683370190505b50905060008367ffffffffffffffff811115611e8657611e86613315565b604051908082528060200260200182016040528015611eaf578160200160208202803683370190505b50905060008467ffffffffffffffff811115611ecd57611ecd613315565b604051908082528060200260200182016040528015611ef6578160200160208202803683370190505b5060385490975015611f2f576000611f1f6127106115cb6038548c6126d290919063ffffffff16565b9050611f2b89826126ea565b9850505b60005b60345481101561200e576000611f6e60348381548110611f5457611f546132ff565b6000918252602090912001546001600160a01b0316611bf5565b90506000611fa260348481548110611f8857611f886132ff565b6000918252602090912001546001600160a01b0316611332565b905081868481518110611fb757611fb76132ff565b60200260200101818152505080858481518110611fd657611fd66132ff565b6020908102919091010152611ff7611ff08360128461141b565b8a9061292b565b985050508080612006906132b1565b915050611f32565b5060005b6034548110156120d0576000858281518110612030576120306132ff565b60200260200101519050670de0b6b3a76400008110156120555750670de0b6b3a76400005b60006120ad896115cb846120a760128a8981518110612076576120766132ff565b60200260200101518c8a81518110612090576120906132ff565b602002602001015161141b9092919063ffffffff16565b906126d2565b90506120b9848261292b565b9350505080806120c8906132b1565b915050612012565b5060006120dd8983612abb565b905060005b60345481101561214b5761211c886115cb84888581518110612106576121066132ff565b60200260200101516126d290919063ffffffff16565b89828151811061212e5761212e6132ff565b602090810291909101015280612143816132b1565b9150506120e2565b50505050505050915091565b60008061216384611e08565b915091506000603c60009054906101000a90046001600160a01b03166001600160a01b03166318160ddd6040518163ffffffff1660e01b815260040160206040518083038186803b1580156121b757600080fd5b505afa1580156121cb573d6000803e3d6000fd5b505050506040513d601f19601f820116820180604052508101906121ef9190612ea2565b604154909150156122935760006122068284612abb565b9050604154670de0b6b3a764000082116122315761222c670de0b6b3a7640000836126ea565b612243565b61224382670de0b6b3a76400006126ea565b11156122915760405162461bcd60e51b815260206004820152601e60248201527f4261636b696e6720737570706c79206c6971756964697479206572726f72000060448201526064016106bb565b505b7f222838db2794d11532d940e8dec38ae307ed0b63cd97c233322e221f998767a633866040516122c4929190612f1c565b60405180910390a160005b603454811015612571578381815181106122eb576122eb6132ff565b6020026020010151600014156123005761255f565b600060348281548110612315576123156132ff565b60009182526020909120015485516001600160a01b039091169150859083908110612342576123426132ff565b60209081029190910101516040516370a0823160e01b81523060048201526001600160a01b038316906370a082319060240160206040518083038186803b15801561238c57600080fd5b505afa1580156123a0573d6000803e3d6000fd5b505050506040513d601f19601f820116820180604052508101906123c49190612ea2565b1061240557612400338684815181106123df576123df6132ff565b6020026020010151836001600160a01b031661294c9092919063ffffffff16565b61255d565b6000604060006034858154811061241e5761241e6132ff565b60009182526020808320909101546001600160a01b0390811684529083019390935260409091019020541690508015612521576000819050806001600160a01b031663d9caed123360348781548110612479576124796132ff565b9060005260206000200160009054906101000a90046001600160a01b03168a88815181106124a9576124a96132ff565b60209081029190910101516040516001600160e01b031960e086901b1681526001600160a01b0393841660048201529290911660248301526044820152606401600060405180830381600087803b15801561250357600080fd5b505af1158015612517573d6000803e3d6000fd5b505050505061255b565b60405162461bcd60e51b815260206004820152600f60248201526e2634b8bab4b234ba3c9032b93937b960891b60448201526064016106bb565b505b505b80612569816132b1565b9150506122cf565b50831561262a576000805b84518110156125d757600061259d60348381548110611f8857611f886132ff565b90506125c16125ba601283898681518110612090576120906132ff565b849061292b565b92505080806125cf906132b1565b91505061257c565b50848110156126285760405162461bcd60e51b815260206004820181905260248201527f52656465656d20616d6f756e74206c6f776572207468616e206d696e696d756d60448201526064016106bb565b505b603c54604051632770a7eb60e21b81526001600160a01b0390911690639dc29fac9061265c9033908990600401612f1c565b600060405180830381600087803b15801561267657600080fd5b505af115801561268a573d6000803e3d6000fd5b50505050603b5485101580156126aa5750603754600160a01b900460ff16155b1561103d5761103d6114a1565b600061068c6126c46128cf565b6126cc6127c8565b9061292b565b60006114788284613210565b60006114788284613103565b6000611478828461326e565b600061274b826040518060400160405280602081526020017f5361666545524332303a206c6f772d6c6576656c2063616c6c206661696c6564815250856001600160a01b0316612ae49092919063ffffffff16565b8051909150156117d457808060200190518101906127699190612e67565b6117d45760405162461bcd60e51b815260206004820152602a60248201527f5361666545524332303a204552433230206f7065726174696f6e20646964206e6044820152691bdd081cdd58d8d9595960b21b60648201526084016106bb565b6000805b603454811015611e04576000603482815481106127eb576127eb6132ff565b6000918252602082200154603480546001600160a01b03909216935061281b9185908110611f8857611f886132ff565b6040516370a0823160e01b81523060048201529091506000906001600160a01b038416906370a082319060240160206040518083038186803b15801561286057600080fd5b505afa158015612874573d6000803e3d6000fd5b505050506040513d601f19601f820116820180604052508101906128989190612ea2565b905080156128b9576128b66128af8260128561141b565b869061292b565b94505b50505080806128c7906132b1565b9150506127cc565b6000805b603654811015611e0457612917612910603683815481106128f6576128f66132ff565b6000918252602090912001546001600160a01b0316612af3565b839061292b565b915080612923816132b1565b9150506128d3565b600061147882846130eb565b60006114788383670de0b6b3a764000061147f565b6117d48363a9059cbb60e01b848460405160240161180d929190612f1c565b606061297660345490565b67ffffffffffffffff81111561298e5761298e613315565b6040519080825280602002602001820160405280156129b7578160200160208202803683370190505b506037549091506001600160a01b031660005b603454811015612ab657612a8760126008846001600160a01b031663aea91078603486815481106129fd576129fd6132ff565b60009182526020909120015460405160e083901b6001600160e01b03191681526001600160a01b03909116600482015260240160206040518083038186803b158015612a4857600080fd5b505afa158015612a5c573d6000803e3d6000fd5b505050506040513d601f19601f82011682018060405250810190612a809190612ea2565b919061141b565b838281518110612a9957612a996132ff565b602090810291909101015280612aae816132b1565b9150506129ca565b505090565b600080612ad084670de0b6b3a76400006126d2565b9050612adc81846126de565b949350505050565b6060612adc8484600085612c9c565b600081815b603454811015611dbe576000612b1a60348381548110611f8857611f886132ff565b9050826001600160a01b031663aa388af660348481548110612b3e57612b3e6132ff565b60009182526020909120015460405160e083901b6001600160e01b03191681526001600160a01b03909116600482015260240160206040518083038186803b158015612b8957600080fd5b505afa158015612b9d573d6000803e3d6000fd5b505050506040513d601f19601f82011682018060405250810190612bc19190612e67565b15612c89576000836001600160a01b0316635f51522660348581548110612bea57612bea6132ff565b60009182526020909120015460405160e083901b6001600160e01b03191681526001600160a01b03909116600482015260240160206040518083038186803b158015612c3557600080fd5b505afa158015612c49573d6000803e3d6000fd5b505050506040513d601f19601f82011682018060405250810190612c6d9190612ea2565b90508015612c8757612c846128af8260128561141b565b94505b505b5080612c94816132b1565b915050612af8565b606082471015612cfd5760405162461bcd60e51b815260206004820152602660248201527f416464726573733a20696e73756666696369656e742062616c616e636520666f6044820152651c8818d85b1b60d21b60648201526084016106bb565b843b612d4b5760405162461bcd60e51b815260206004820152601d60248201527f416464726573733a2063616c6c20746f206e6f6e2d636f6e747261637400000060448201526064016106bb565b600080866001600160a01b03168587604051612d679190612f00565b60006040518083038185875af1925050503d8060008114612da4576040519150601f19603f3d011682016040523d82523d6000602084013e612da9565b606091505b5091509150612db9828286612dc4565b979650505050505050565b60608315612dd3575081611478565b825115612de35782518084602001fd5b8160405162461bcd60e51b81526004016106bb9190612fba565b80356001600160a01b0381168114612e1457600080fd5b919050565b600060208284031215612e2b57600080fd5b61147882612dfd565b600080600060608486031215612e4957600080fd5b612e5284612dfd565b95602085013595506040909401359392505050565b600060208284031215612e7957600080fd5b8151801515811461147857600080fd5b600060208284031215612e9b57600080fd5b5035919050565b600060208284031215612eb457600080fd5b5051919050565b60008060408385031215612ece57600080fd5b50508035926020909101359150565b600060208284031215612eef57600080fd5b815160ff8116811461147857600080fd5b60008251612f12818460208701613285565b9190910192915050565b6001600160a01b03929092168252602082015260400190565b6020808252825182820181905260009190848201906040850190845b81811015612f765783516001600160a01b031683529284019291840191600101612f51565b50909695505050505050565b6020808252825182820181905260009190848201906040850190845b81811015612f7657835183529284019291840191600101612f9e565b6020815260008251806020840152612fd9816040850160208701613285565b601f01601f19169190910160400192915050565b60208082526024908201527f43616c6c6572206973206e6f7420746865204f555344206d65746120737472616040820152637465677960e01b606082015260800190565b6020808252600f908201526e082dadeeadce840e8dede40d0d2ced608b1b604082015260600190565b6020808252600e908201526d10d85c1a5d185b081c185d5cd95960921b604082015260600190565b6020808252600e908201526d1499595b9d1c985b9d0818d85b1b60921b604082015260600190565b600080821280156001600160ff1b03849003851316156130cc576130cc6132e9565b600160ff1b83900384128116156130e5576130e56132e9565b50500190565b600082198211156130fe576130fe6132e9565b500190565b60008261312057634e487b7160e01b600052601260045260246000fd5b500490565b600181815b80851115613160578160001904821115613146576131466132e9565b8085161561315357918102915b93841c939080029061312a565b509250929050565b6000611478838360008261317e57506001610b36565b8161318b57506000610b36565b81600181146131a157600281146131ab576131c7565b6001915050610b36565b60ff8411156131bc576131bc6132e9565b50506001821b610b36565b5060208310610133831016604e8410600b84101617156131ea575081810a610b36565b6131f48383613125565b8060001904821115613208576132086132e9565b029392505050565b600081600019048311821515161561322a5761322a6132e9565b500290565b60008083128015600160ff1b85018412161561324d5761324d6132e9565b6001600160ff1b0384018313811615613268576132686132e9565b50500390565b600082821015613280576132806132e9565b500390565b60005b838110156132a0578181015183820152602001613288565b838111156118445750506000910152565b60006000198214156132c5576132c56132e9565b5060010190565b6000600160ff1b8214156132e2576132e26132e9565b5060000390565b634e487b7160e01b600052601160045260246000fd5b634e487b7160e01b600052603260045260246000fd5b634e487b7160e01b600052604160045260246000fdfe53bf423e48ed90e97d02ab0ebab13b2a235a6bfbe9c321847d5c175333ac45357bea13895fa79d2831e0a9e28edede30099005a50d652d8957cf8a607ee6ca4aa2646970667358221220d521406b880fd8e19ae5ead5f7ea5ca2aaf581c4ce035f14e20fe25b8f22ee1264736f6c634300080700337bea13895fa79d2831e0a9e28edede30099005a50d652d8957cf8a607ee6ca4a",
  "devdoc": {
    "kind": "dev",
    "methods": {
      "allocate()": {
        "details": "Allocate unallocated funds on Vault to strategies.*"
      },
      "burnForStrategy(uint256)": {
        "details": "Burn OUSD for OUSD Meta Strategy",
        "params": {
          "_amount": "Amount of OUSD to burn Notice: can't use `nonReentrant` modifier since the `redeem` function could require withdrawal on `ConvexOUSDMetaStrategy` and that one can call `burnForStrategy` while the execution of the `redeem` has not yet completed -> causing a `nonReentrant` collision. Also important to understand is that this is a limitation imposed by the test suite. Production / mainnet contracts should never be configured in a way where mint/redeem functions that are moving funds between the Vault and end user wallets can influence strategies utilizing this function."
        }
      },
      "checkBalance(address)": {
        "params": {
          "_asset": "Address of asset"
        },
        "returns": {
          "_0": "uint256 Balance of asset in decimals of asset"
        }
      },
      "claimGovernance()": {
        "details": "Claim Governance of the contract to a new account (`newGovernor`). Can only be called by the new Governor."
      },
      "getAllAssets()": {
        "details": "Return all asset addresses in order"
      },
      "getAllStrategies()": {
        "details": "Return the array of all strategies"
      },
      "getAssetCount()": {
        "details": "Return the number of assets supported by the Vault."
      },
      "getStrategyCount()": {
        "details": "Return the number of strategies active on the Vault."
      },
      "governor()": {
        "details": "Returns the address of the current Governor."
      },
      "isGovernor()": {
        "details": "Returns true if the caller is the current Governor."
      },
      "mint(address,uint256,uint256)": {
        "details": "Deposit a supported asset and mint OUSD.",
        "params": {
          "_amount": "Amount of the asset being deposited",
          "_asset": "Address of the asset being deposited",
          "_minimumOusdAmount": "Minimum OUSD to mint"
        }
      },
      "mintForStrategy(uint256)": {
        "details": "Mint OUSD for OUSD Meta Strategy",
        "params": {
          "_amount": "Amount of the asset being deposited Notice: can't use `nonReentrant` modifier since the `mint` function can call `allocate`, and that can trigger `ConvexOUSDMetaStrategy` to call this function while the execution of the `mint` has not yet completed -> causing a `nonReentrant` collision. Also important to understand is that this is a limitation imposed by the test suite. Production / mainnet contracts should never be configured in a way where mint/redeem functions that are moving funds between the Vault and end user wallets can influence strategies utilizing this function."
        }
      },
      "rebase()": {
        "details": "Calculate the total value of assets held by the Vault and all      strategies and update the supply of OUSD."
      },
      "redeem(uint256,uint256)": {
        "details": "Withdraw a supported asset and burn OUSD.",
        "params": {
          "_amount": "Amount of OUSD to burn",
          "_minimumUnitAmount": "Minimum stablecoin units to receive in return"
        }
      },
      "redeemAll(uint256)": {
        "params": {
          "_minimumUnitAmount": "Minimum stablecoin units to receive in return"
        }
      },
      "setAdminImpl(address)": {
        "details": "set the implementation for the admin, this needs to be in a base class else we cannot set it",
        "params": {
          "newImpl": "address of the implementation"
        }
      },
      "totalValue()": {
        "details": "Determine the total value of assets held by the vault and its         strategies.",
        "returns": {
          "value": "Total value in USD (1e18)"
        }
      },
      "transferGovernance(address)": {
        "details": "Transfers Governance of the contract to a new account (`newGovernor`). Can only be called by the current Governor. Must be claimed for this to complete",
        "params": {
          "_newGovernor": "Address of the new Governor"
        }
      }
    },
    "version": 1
  },
  "userdoc": {
    "kind": "user",
    "methods": {
      "allocate()": {
        "notice": "Allocate unallocated funds on Vault to strategies."
      },
      "calculateRedeemOutputs(uint256)": {
        "notice": "Calculate the outputs for a redeem function, i.e. the mix of coins that will be returned"
      },
      "checkBalance(address)": {
        "notice": "Get the balance of an asset held in Vault and all strategies."
      },
      "redeemAll(uint256)": {
        "notice": "Withdraw a supported asset and burn all OUSD."
      }
    },
    "version": 1
  },
  "storageLayout": {
    "storage": [
      {
        "astId": 21409,
        "contract": "contracts/vault/VaultCore.sol:VaultCore",
        "label": "initialized",
        "offset": 0,
        "slot": "0",
        "type": "t_bool"
      },
      {
        "astId": 21412,
        "contract": "contracts/vault/VaultCore.sol:VaultCore",
        "label": "initializing",
        "offset": 1,
        "slot": "0",
        "type": "t_bool"
      },
      {
        "astId": 21452,
        "contract": "contracts/vault/VaultCore.sol:VaultCore",
        "label": "______gap",
        "offset": 0,
        "slot": "1",
        "type": "t_array(t_uint256)50_storage"
      },
      {
        "astId": 25008,
        "contract": "contracts/vault/VaultCore.sol:VaultCore",
        "label": "assets",
        "offset": 0,
        "slot": "51",
        "type": "t_mapping(t_address,t_struct(Asset)25003_storage)"
      },
      {
        "astId": 25011,
        "contract": "contracts/vault/VaultCore.sol:VaultCore",
        "label": "allAssets",
        "offset": 0,
        "slot": "52",
        "type": "t_array(t_address)dyn_storage"
      },
      {
        "astId": 25021,
        "contract": "contracts/vault/VaultCore.sol:VaultCore",
        "label": "strategies",
        "offset": 0,
        "slot": "53",
        "type": "t_mapping(t_address,t_struct(Strategy)25016_storage)"
      },
      {
        "astId": 25024,
        "contract": "contracts/vault/VaultCore.sol:VaultCore",
        "label": "allStrategies",
        "offset": 0,
        "slot": "54",
        "type": "t_array(t_address)dyn_storage"
      },
      {
        "astId": 25026,
        "contract": "contracts/vault/VaultCore.sol:VaultCore",
        "label": "priceProvider",
        "offset": 0,
        "slot": "55",
        "type": "t_address"
      },
      {
        "astId": 25029,
        "contract": "contracts/vault/VaultCore.sol:VaultCore",
        "label": "rebasePaused",
        "offset": 20,
        "slot": "55",
        "type": "t_bool"
      },
      {
        "astId": 25032,
        "contract": "contracts/vault/VaultCore.sol:VaultCore",
        "label": "capitalPaused",
        "offset": 21,
        "slot": "55",
        "type": "t_bool"
      },
      {
        "astId": 25034,
        "contract": "contracts/vault/VaultCore.sol:VaultCore",
        "label": "redeemFeeBps",
        "offset": 0,
        "slot": "56",
        "type": "t_uint256"
      },
      {
        "astId": 25036,
        "contract": "contracts/vault/VaultCore.sol:VaultCore",
        "label": "vaultBuffer",
        "offset": 0,
        "slot": "57",
        "type": "t_uint256"
      },
      {
        "astId": 25038,
        "contract": "contracts/vault/VaultCore.sol:VaultCore",
        "label": "autoAllocateThreshold",
        "offset": 0,
        "slot": "58",
        "type": "t_uint256"
      },
      {
        "astId": 25040,
        "contract": "contracts/vault/VaultCore.sol:VaultCore",
        "label": "rebaseThreshold",
        "offset": 0,
        "slot": "59",
        "type": "t_uint256"
      },
      {
        "astId": 25043,
        "contract": "contracts/vault/VaultCore.sol:VaultCore",
        "label": "oUSD",
        "offset": 0,
        "slot": "60",
        "type": "t_contract(OUSD)21235"
      },
      {
        "astId": 25052,
        "contract": "contracts/vault/VaultCore.sol:VaultCore",
        "label": "_deprecated_rebaseHooksAddr",
        "offset": 0,
        "slot": "61",
        "type": "t_address"
      },
      {
        "astId": 25058,
        "contract": "contracts/vault/VaultCore.sol:VaultCore",
        "label": "_deprecated_uniswapAddr",
        "offset": 0,
        "slot": "62",
        "type": "t_address"
      },
      {
        "astId": 25064,
        "contract": "contracts/vault/VaultCore.sol:VaultCore",
        "label": "strategistAddr",
        "offset": 0,
        "slot": "63",
        "type": "t_address"
      },
      {
        "astId": 25068,
        "contract": "contracts/vault/VaultCore.sol:VaultCore",
        "label": "assetDefaultStrategies",
        "offset": 0,
        "slot": "64",
        "type": "t_mapping(t_address,t_address)"
      },
      {
        "astId": 25070,
        "contract": "contracts/vault/VaultCore.sol:VaultCore",
        "label": "maxSupplyDiff",
        "offset": 0,
        "slot": "65",
        "type": "t_uint256"
      },
      {
        "astId": 25072,
        "contract": "contracts/vault/VaultCore.sol:VaultCore",
        "label": "trusteeAddress",
        "offset": 0,
        "slot": "66",
        "type": "t_address"
      },
      {
        "astId": 25074,
        "contract": "contracts/vault/VaultCore.sol:VaultCore",
        "label": "trusteeFeeBps",
        "offset": 0,
        "slot": "67",
        "type": "t_uint256"
      },
      {
        "astId": 25077,
        "contract": "contracts/vault/VaultCore.sol:VaultCore",
        "label": "_deprecated_swapTokens",
        "offset": 0,
        "slot": "68",
        "type": "t_array(t_address)dyn_storage"
      },
      {
        "astId": 25086,
        "contract": "contracts/vault/VaultCore.sol:VaultCore",
        "label": "ousdMetaStrategy",
        "offset": 0,
        "slot": "69",
        "type": "t_address"
      },
      {
        "astId": 25089,
        "contract": "contracts/vault/VaultCore.sol:VaultCore",
        "label": "netOusdMintedForStrategy",
        "offset": 0,
        "slot": "70",
        "type": "t_int256"
      },
      {
        "astId": 25092,
        "contract": "contracts/vault/VaultCore.sol:VaultCore",
        "label": "netOusdMintForStrategyThreshold",
        "offset": 0,
        "slot": "71",
        "type": "t_uint256"
      }
    ],
    "types": {
      "t_address": {
        "encoding": "inplace",
        "label": "address",
        "numberOfBytes": "20"
      },
      "t_array(t_address)dyn_storage": {
        "base": "t_address",
        "encoding": "dynamic_array",
        "label": "address[]",
        "numberOfBytes": "32"
      },
      "t_array(t_uint256)50_storage": {
        "base": "t_uint256",
        "encoding": "inplace",
        "label": "uint256[50]",
        "numberOfBytes": "1600"
      },
      "t_bool": {
        "encoding": "inplace",
        "label": "bool",
        "numberOfBytes": "1"
      },
      "t_contract(OUSD)21235": {
        "encoding": "inplace",
        "label": "contract OUSD",
        "numberOfBytes": "20"
      },
      "t_int256": {
        "encoding": "inplace",
        "label": "int256",
        "numberOfBytes": "32"
      },
      "t_mapping(t_address,t_address)": {
        "encoding": "mapping",
        "key": "t_address",
        "label": "mapping(address => address)",
        "numberOfBytes": "32",
        "value": "t_address"
      },
      "t_mapping(t_address,t_struct(Asset)25003_storage)": {
        "encoding": "mapping",
        "key": "t_address",
        "label": "mapping(address => struct VaultStorage.Asset)",
        "numberOfBytes": "32",
        "value": "t_struct(Asset)25003_storage"
      },
      "t_mapping(t_address,t_struct(Strategy)25016_storage)": {
        "encoding": "mapping",
        "key": "t_address",
        "label": "mapping(address => struct VaultStorage.Strategy)",
        "numberOfBytes": "32",
        "value": "t_struct(Strategy)25016_storage"
      },
      "t_struct(Asset)25003_storage": {
        "encoding": "inplace",
        "label": "struct VaultStorage.Asset",
        "members": [
          {
            "astId": 25002,
            "contract": "contracts/vault/VaultCore.sol:VaultCore",
            "label": "isSupported",
            "offset": 0,
            "slot": "0",
            "type": "t_bool"
          }
        ],
        "numberOfBytes": "32"
      },
      "t_struct(Strategy)25016_storage": {
        "encoding": "inplace",
        "label": "struct VaultStorage.Strategy",
        "members": [
          {
            "astId": 25013,
            "contract": "contracts/vault/VaultCore.sol:VaultCore",
            "label": "isSupported",
            "offset": 0,
            "slot": "0",
            "type": "t_bool"
          },
          {
            "astId": 25015,
            "contract": "contracts/vault/VaultCore.sol:VaultCore",
            "label": "_deprecated",
            "offset": 0,
            "slot": "1",
            "type": "t_uint256"
          }
        ],
        "numberOfBytes": "64"
      },
      "t_uint256": {
        "encoding": "inplace",
        "label": "uint256",
        "numberOfBytes": "32"
      }
    }
  }
}