{
  "address": "0x1eF0553FEb80e6f133cAe3092e38F0b23dA6452b",
  "abi": [
    {
      "anonymous": false,
      "inputs": [
        {
          "indexed": false,
          "internalType": "uint256",
          "name": "_threshold",
          "type": "uint256"
        }
      ],
      "name": "AllocateThresholdUpdated",
      "type": "event"
    },
    {
      "anonymous": false,
      "inputs": [
        {
          "indexed": false,
          "internalType": "address",
          "name": "_asset",
          "type": "address"
        },
        {
          "indexed": false,
          "internalType": "address",
          "name": "_strategy",
          "type": "address"
        },
        {
          "indexed": false,
          "internalType": "uint256",
          "name": "_amount",
          "type": "uint256"
        }
      ],
      "name": "AssetAllocated",
      "type": "event"
    },
    {
      "anonymous": false,
      "inputs": [
        {
          "indexed": false,
          "internalType": "address",
          "name": "_asset",
          "type": "address"
        },
        {
          "indexed": false,
          "internalType": "address",
          "name": "_strategy",
          "type": "address"
        }
      ],
      "name": "AssetDefaultStrategyUpdated",
      "type": "event"
    },
    {
      "anonymous": false,
      "inputs": [
        {
          "indexed": false,
          "internalType": "address",
          "name": "_asset",
          "type": "address"
        }
      ],
      "name": "AssetSupported",
      "type": "event"
    },
    {
      "anonymous": false,
      "inputs": [],
      "name": "CapitalPaused",
      "type": "event"
    },
    {
      "anonymous": false,
      "inputs": [],
      "name": "CapitalUnpaused",
      "type": "event"
    },
    {
      "anonymous": false,
      "inputs": [
        {
          "indexed": true,
          "internalType": "address",
          "name": "previousGovernor",
          "type": "address"
        },
        {
          "indexed": true,
          "internalType": "address",
          "name": "newGovernor",
          "type": "address"
        }
      ],
      "name": "GovernorshipTransferred",
      "type": "event"
    },
    {
      "anonymous": false,
      "inputs": [
        {
          "indexed": false,
          "internalType": "uint256",
          "name": "maxSupplyDiff",
          "type": "uint256"
        }
      ],
      "name": "MaxSupplyDiffChanged",
      "type": "event"
    },
    {
      "anonymous": false,
      "inputs": [
        {
          "indexed": false,
          "internalType": "address",
          "name": "_addr",
          "type": "address"
        },
        {
          "indexed": false,
          "internalType": "uint256",
          "name": "_value",
          "type": "uint256"
        }
      ],
      "name": "Mint",
      "type": "event"
    },
    {
      "anonymous": false,
      "inputs": [
        {
          "indexed": false,
          "internalType": "uint256",
          "name": "_threshold",
          "type": "uint256"
        }
      ],
      "name": "NetOusdMintForStrategyThresholdChanged",
      "type": "event"
    },
    {
      "anonymous": false,
      "inputs": [
        {
          "indexed": false,
          "internalType": "address",
          "name": "_ousdMetaStrategy",
          "type": "address"
        }
      ],
      "name": "OusdMetaStrategyUpdated",
      "type": "event"
    },
    {
      "anonymous": false,
      "inputs": [
        {
          "indexed": true,
          "internalType": "address",
          "name": "previousGovernor",
          "type": "address"
        },
        {
          "indexed": true,
          "internalType": "address",
          "name": "newGovernor",
          "type": "address"
        }
      ],
      "name": "PendingGovernorshipTransfer",
      "type": "event"
    },
    {
      "anonymous": false,
      "inputs": [
        {
          "indexed": false,
          "internalType": "address",
          "name": "_priceProvider",
          "type": "address"
        }
      ],
      "name": "PriceProviderUpdated",
      "type": "event"
    },
    {
      "anonymous": false,
      "inputs": [],
      "name": "RebasePaused",
      "type": "event"
    },
    {
      "anonymous": false,
      "inputs": [
        {
          "indexed": false,
          "internalType": "uint256",
          "name": "_threshold",
          "type": "uint256"
        }
      ],
      "name": "RebaseThresholdUpdated",
      "type": "event"
    },
    {
      "anonymous": false,
      "inputs": [],
      "name": "RebaseUnpaused",
      "type": "event"
    },
    {
      "anonymous": false,
      "inputs": [
        {
          "indexed": false,
          "internalType": "address",
          "name": "_addr",
          "type": "address"
        },
        {
          "indexed": false,
          "internalType": "uint256",
          "name": "_value",
          "type": "uint256"
        }
      ],
      "name": "Redeem",
      "type": "event"
    },
    {
      "anonymous": false,
      "inputs": [
        {
          "indexed": false,
          "internalType": "uint256",
          "name": "_redeemFeeBps",
          "type": "uint256"
        }
      ],
      "name": "RedeemFeeUpdated",
      "type": "event"
    },
    {
      "anonymous": false,
      "inputs": [
        {
          "indexed": false,
          "internalType": "address",
          "name": "_address",
          "type": "address"
        }
      ],
      "name": "StrategistUpdated",
      "type": "event"
    },
    {
      "anonymous": false,
      "inputs": [
        {
          "indexed": false,
          "internalType": "address",
          "name": "_addr",
          "type": "address"
        }
      ],
      "name": "StrategyApproved",
      "type": "event"
    },
    {
      "anonymous": false,
      "inputs": [
        {
          "indexed": false,
          "internalType": "address",
          "name": "_addr",
          "type": "address"
        }
      ],
      "name": "StrategyRemoved",
      "type": "event"
    },
    {
      "anonymous": false,
      "inputs": [
        {
          "indexed": false,
          "internalType": "address",
          "name": "_address",
          "type": "address"
        }
      ],
      "name": "TrusteeAddressChanged",
      "type": "event"
    },
    {
      "anonymous": false,
      "inputs": [
        {
          "indexed": false,
          "internalType": "uint256",
          "name": "_basis",
          "type": "uint256"
        }
      ],
      "name": "TrusteeFeeBpsChanged",
      "type": "event"
    },
    {
      "anonymous": false,
      "inputs": [
        {
          "indexed": false,
          "internalType": "uint256",
          "name": "_vaultBuffer",
          "type": "uint256"
        }
      ],
      "name": "VaultBufferUpdated",
      "type": "event"
    },
    {
      "anonymous": false,
      "inputs": [
        {
          "indexed": false,
          "internalType": "address",
          "name": "_to",
          "type": "address"
        },
        {
          "indexed": false,
          "internalType": "uint256",
          "name": "_yield",
          "type": "uint256"
        },
        {
          "indexed": false,
          "internalType": "uint256",
          "name": "_fee",
          "type": "uint256"
        }
      ],
      "name": "YieldDistribution",
      "type": "event"
    },
    {
      "inputs": [
        {
          "internalType": "address",
          "name": "_addr",
          "type": "address"
        }
      ],
      "name": "approveStrategy",
      "outputs": [],
      "stateMutability": "nonpayable",
      "type": "function"
    },
    {
      "inputs": [
        {
          "internalType": "address",
          "name": "",
          "type": "address"
        }
      ],
      "name": "assetDefaultStrategies",
      "outputs": [
        {
          "internalType": "address",
          "name": "",
          "type": "address"
        }
      ],
      "stateMutability": "view",
      "type": "function"
    },
    {
      "inputs": [],
      "name": "autoAllocateThreshold",
      "outputs": [
        {
          "internalType": "uint256",
          "name": "",
          "type": "uint256"
        }
      ],
      "stateMutability": "view",
      "type": "function"
    },
    {
      "inputs": [],
      "name": "capitalPaused",
      "outputs": [
        {
          "internalType": "bool",
          "name": "",
          "type": "bool"
        }
      ],
      "stateMutability": "view",
      "type": "function"
    },
    {
      "inputs": [],
      "name": "claimGovernance",
      "outputs": [],
      "stateMutability": "nonpayable",
      "type": "function"
    },
    {
      "inputs": [
        {
          "internalType": "address",
          "name": "_strategyToAddress",
          "type": "address"
        },
        {
          "internalType": "address[]",
          "name": "_assets",
          "type": "address[]"
        },
        {
          "internalType": "uint256[]",
          "name": "_amounts",
          "type": "uint256[]"
        }
      ],
      "name": "depositToStrategy",
      "outputs": [],
      "stateMutability": "nonpayable",
      "type": "function"
    },
    {
      "inputs": [],
      "name": "governor",
      "outputs": [
        {
          "internalType": "address",
          "name": "",
          "type": "address"
        }
      ],
      "stateMutability": "view",
      "type": "function"
    },
    {
      "inputs": [],
      "name": "isGovernor",
      "outputs": [
        {
          "internalType": "bool",
          "name": "",
          "type": "bool"
        }
      ],
      "stateMutability": "view",
      "type": "function"
    },
    {
      "inputs": [],
      "name": "maxSupplyDiff",
      "outputs": [
        {
          "internalType": "uint256",
          "name": "",
          "type": "uint256"
        }
      ],
      "stateMutability": "view",
      "type": "function"
    },
    {
      "inputs": [],
      "name": "netOusdMintForStrategyThreshold",
      "outputs": [
        {
          "internalType": "uint256",
          "name": "",
          "type": "uint256"
        }
      ],
      "stateMutability": "view",
      "type": "function"
    },
    {
      "inputs": [],
      "name": "netOusdMintedForStrategy",
      "outputs": [
        {
          "internalType": "int256",
          "name": "",
          "type": "int256"
        }
      ],
      "stateMutability": "view",
      "type": "function"
    },
    {
      "inputs": [],
      "name": "ousdMetaStrategy",
      "outputs": [
        {
          "internalType": "address",
          "name": "",
          "type": "address"
        }
      ],
      "stateMutability": "view",
      "type": "function"
    },
    {
      "inputs": [],
      "name": "pauseCapital",
      "outputs": [],
      "stateMutability": "nonpayable",
      "type": "function"
    },
    {
      "inputs": [],
      "name": "pauseRebase",
      "outputs": [],
      "stateMutability": "nonpayable",
      "type": "function"
    },
    {
      "inputs": [],
      "name": "priceProvider",
      "outputs": [
        {
          "internalType": "address",
          "name": "",
          "type": "address"
        }
      ],
      "stateMutability": "view",
      "type": "function"
    },
    {
      "inputs": [
        {
          "internalType": "address",
          "name": "asset",
          "type": "address"
        }
      ],
      "name": "priceUSDMint",
      "outputs": [
        {
          "internalType": "uint256",
          "name": "",
          "type": "uint256"
        }
      ],
      "stateMutability": "view",
      "type": "function"
    },
    {
      "inputs": [
        {
          "internalType": "address",
          "name": "asset",
          "type": "address"
        }
      ],
      "name": "priceUSDRedeem",
      "outputs": [
        {
          "internalType": "uint256",
          "name": "",
          "type": "uint256"
        }
      ],
      "stateMutability": "view",
      "type": "function"
    },
    {
      "inputs": [
        {
          "internalType": "address",
          "name": "_strategyFromAddress",
          "type": "address"
        },
        {
          "internalType": "address",
          "name": "_strategyToAddress",
          "type": "address"
        },
        {
          "internalType": "address[]",
          "name": "_assets",
          "type": "address[]"
        },
        {
          "internalType": "uint256[]",
          "name": "_amounts",
          "type": "uint256[]"
        }
      ],
      "name": "reallocate",
      "outputs": [],
      "stateMutability": "nonpayable",
      "type": "function"
    },
    {
      "inputs": [],
      "name": "rebasePaused",
      "outputs": [
        {
          "internalType": "bool",
          "name": "",
          "type": "bool"
        }
      ],
      "stateMutability": "view",
      "type": "function"
    },
    {
      "inputs": [],
      "name": "rebaseThreshold",
      "outputs": [
        {
          "internalType": "uint256",
          "name": "",
          "type": "uint256"
        }
      ],
      "stateMutability": "view",
      "type": "function"
    },
    {
      "inputs": [],
      "name": "redeemFeeBps",
      "outputs": [
        {
          "internalType": "uint256",
          "name": "",
          "type": "uint256"
        }
      ],
      "stateMutability": "view",
      "type": "function"
    },
    {
      "inputs": [
        {
          "internalType": "address",
          "name": "_addr",
          "type": "address"
        }
      ],
      "name": "removeStrategy",
      "outputs": [],
      "stateMutability": "nonpayable",
      "type": "function"
    },
    {
      "inputs": [
        {
          "internalType": "address",
          "name": "newImpl",
          "type": "address"
        }
      ],
      "name": "setAdminImpl",
      "outputs": [],
      "stateMutability": "nonpayable",
      "type": "function"
    },
    {
      "inputs": [
        {
          "internalType": "address",
          "name": "_asset",
          "type": "address"
        },
        {
          "internalType": "address",
          "name": "_strategy",
          "type": "address"
        }
      ],
      "name": "setAssetDefaultStrategy",
      "outputs": [],
      "stateMutability": "nonpayable",
      "type": "function"
    },
    {
      "inputs": [
        {
          "internalType": "uint256",
          "name": "_threshold",
          "type": "uint256"
        }
      ],
      "name": "setAutoAllocateThreshold",
      "outputs": [],
      "stateMutability": "nonpayable",
      "type": "function"
    },
    {
      "inputs": [
        {
          "internalType": "uint256",
          "name": "_maxSupplyDiff",
          "type": "uint256"
        }
      ],
      "name": "setMaxSupplyDiff",
      "outputs": [],
      "stateMutability": "nonpayable",
      "type": "function"
    },
    {
      "inputs": [
        {
          "internalType": "uint256",
          "name": "_threshold",
          "type": "uint256"
        }
      ],
      "name": "setNetOusdMintForStrategyThreshold",
      "outputs": [],
      "stateMutability": "nonpayable",
      "type": "function"
    },
    {
      "inputs": [
        {
          "internalType": "address",
          "name": "_ousdMetaStrategy",
          "type": "address"
        }
      ],
      "name": "setOusdMetaStrategy",
      "outputs": [],
      "stateMutability": "nonpayable",
      "type": "function"
    },
    {
      "inputs": [
        {
          "internalType": "address",
          "name": "_priceProvider",
          "type": "address"
        }
      ],
      "name": "setPriceProvider",
      "outputs": [],
      "stateMutability": "nonpayable",
      "type": "function"
    },
    {
      "inputs": [
        {
          "internalType": "uint256",
          "name": "_threshold",
          "type": "uint256"
        }
      ],
      "name": "setRebaseThreshold",
      "outputs": [],
      "stateMutability": "nonpayable",
      "type": "function"
    },
    {
      "inputs": [
        {
          "internalType": "uint256",
          "name": "_redeemFeeBps",
          "type": "uint256"
        }
      ],
      "name": "setRedeemFeeBps",
      "outputs": [],
      "stateMutability": "nonpayable",
      "type": "function"
    },
    {
      "inputs": [
        {
          "internalType": "address",
          "name": "_address",
          "type": "address"
        }
      ],
      "name": "setStrategistAddr",
      "outputs": [],
      "stateMutability": "nonpayable",
      "type": "function"
    },
    {
      "inputs": [
        {
          "internalType": "address",
          "name": "_address",
          "type": "address"
        }
      ],
      "name": "setTrusteeAddress",
      "outputs": [],
      "stateMutability": "nonpayable",
      "type": "function"
    },
    {
      "inputs": [
        {
          "internalType": "uint256",
          "name": "_basis",
          "type": "uint256"
        }
      ],
      "name": "setTrusteeFeeBps",
      "outputs": [],
      "stateMutability": "nonpayable",
      "type": "function"
    },
    {
      "inputs": [
        {
          "internalType": "uint256",
          "name": "_vaultBuffer",
          "type": "uint256"
        }
      ],
      "name": "setVaultBuffer",
      "outputs": [],
      "stateMutability": "nonpayable",
      "type": "function"
    },
    {
      "inputs": [],
      "name": "strategistAddr",
      "outputs": [
        {
          "internalType": "address",
          "name": "",
          "type": "address"
        }
      ],
      "stateMutability": "view",
      "type": "function"
    },
    {
      "inputs": [
        {
          "internalType": "address",
          "name": "_asset",
          "type": "address"
        }
      ],
      "name": "supportAsset",
      "outputs": [],
      "stateMutability": "nonpayable",
      "type": "function"
    },
    {
      "inputs": [
        {
          "internalType": "address",
          "name": "_newGovernor",
          "type": "address"
        }
      ],
      "name": "transferGovernance",
      "outputs": [],
      "stateMutability": "nonpayable",
      "type": "function"
    },
    {
      "inputs": [
        {
          "internalType": "address",
          "name": "_asset",
          "type": "address"
        },
        {
          "internalType": "uint256",
          "name": "_amount",
          "type": "uint256"
        }
      ],
      "name": "transferToken",
      "outputs": [],
      "stateMutability": "nonpayable",
      "type": "function"
    },
    {
      "inputs": [],
      "name": "trusteeAddress",
      "outputs": [
        {
          "internalType": "address",
          "name": "",
          "type": "address"
        }
      ],
      "stateMutability": "view",
      "type": "function"
    },
    {
      "inputs": [],
      "name": "trusteeFeeBps",
      "outputs": [
        {
          "internalType": "uint256",
          "name": "",
          "type": "uint256"
        }
      ],
      "stateMutability": "view",
      "type": "function"
    },
    {
      "inputs": [],
      "name": "unpauseCapital",
      "outputs": [],
      "stateMutability": "nonpayable",
      "type": "function"
    },
    {
      "inputs": [],
      "name": "unpauseRebase",
      "outputs": [],
      "stateMutability": "nonpayable",
      "type": "function"
    },
    {
      "inputs": [],
      "name": "vaultBuffer",
      "outputs": [
        {
          "internalType": "uint256",
          "name": "",
          "type": "uint256"
        }
      ],
      "stateMutability": "view",
      "type": "function"
    },
    {
      "inputs": [],
      "name": "withdrawAllFromStrategies",
      "outputs": [],
      "stateMutability": "nonpayable",
      "type": "function"
    },
    {
      "inputs": [
        {
          "internalType": "address",
          "name": "_strategyAddr",
          "type": "address"
        }
      ],
      "name": "withdrawAllFromStrategy",
      "outputs": [],
      "stateMutability": "nonpayable",
      "type": "function"
    },
    {
      "inputs": [
        {
          "internalType": "address",
          "name": "_strategyFromAddress",
          "type": "address"
        },
        {
          "internalType": "address[]",
          "name": "_assets",
          "type": "address[]"
        },
        {
          "internalType": "uint256[]",
          "name": "_amounts",
          "type": "uint256[]"
        }
      ],
      "name": "withdrawFromStrategy",
      "outputs": [],
      "stateMutability": "nonpayable",
      "type": "function"
    }
  ],
  "transactionHash": "0x8bdb3946629dd697818d7071f473e73698cacd47f86b8c262e03034ffd90a7a1",
  "args": [],
  "solcInputHash": "a786c0987b7701f68a6f2fabd9044671",
  "bytecode": "0x60806040526037805461ffff60a01b1916600160a81b179055603d80546001600160a01b0319908116909155603e805482169055603f8054821690556045805490911690556000604681905560475534801561005a57600080fd5b506100723360008051602062002bcd83398151915255565b60008051602062002bcd833981519152546040516001600160a01b03909116906000907fc7c0c772add429241571afb3805861fb3cfa2af374534088b76cdb4325a87e9a908290a3612b0380620000ca6000396000f3fe608060405234801561001057600080fd5b50600436106102955760003560e01c8063773540b311610167578063b888879e116100ce578063d38bfff411610087578063d38bfff41461055b578063d58e3b3a1461056e578063e45cc9f014610581578063e6cc54321461058a578063eb03654b1461059e578063fc0cfeee146105b157600080fd5b8063b888879e1461050a578063b890ebf61461051d578063bc90106b14610530578063c5f0084114610543578063c7af33521461054b578063c99191121461055357600080fd5b80638ec489a2116101205780638ec489a21461049757806394828ffd146104aa5780639fa1826e146104b2578063a403e4d5146104bb578063ae69f3cb146104e4578063b2c9336d146104f757600080fd5b8063773540b3146104395780637a2202f31461044c5780637fe2d39314610455578063840c4c7a146104685780638c5cbb891461047b5780638e510b521461048e57600080fd5b8063372aa2241161020b57806353ca9f24116101c457806353ca9f24146103c1578063570d8e1d146103e5578063597c8910146103f85780635d36b1901461040b578063636e6c4014610413578063663e64ce1461042657600080fd5b8063372aa224146103645780633b8ae397146103775780633dbc911f1461038a57806349c1d54d146103925780634cd55c2d146103a557806352d38e5d146103b857600080fd5b806310d3fdac1161025d57806310d3fdac14610306578063175188e81461031957806318ce56bd1461032c5780631edfe3da1461033f578063207134b0146103485780632da845a81461035157600080fd5b806309f49bf51461029a57806309f6442c146102a45780630acbda75146102c05780630c340a24146102d35780631072cbea146102f3575b600080fd5b6102a26105c4565b005b6102ad60385481565b6040519081526020015b60405180910390f35b6102a26102ce3660046127a6565b610629565b6102db6106db565b6040516001600160a01b0390911681526020016102b7565b6102a261030136600461275a565b6106f8565b6102ad6103143660046125fa565b6107a5565b6102a26103273660046125fa565b61089b565b6045546102db906001600160a01b031681565b6102ad60395481565b6102ad60435481565b6102a261035f3660046125fa565b610ba2565b6102a26103723660046125fa565b610c14565b6102a26103853660046125fa565b610c86565b6102a2610dc3565b6042546102db906001600160a01b031681565b6102a26103b33660046125fa565b610e39565b6102ad603b5481565b6037546103d590600160a01b900460ff1681565b60405190151581526020016102b7565b603f546102db906001600160a01b031681565b6102a26104063660046125fa565b610fea565b6102a26110e6565b6102a26104213660046127a6565b61118c565b6102a26104343660046127a6565b6111ea565b6102a26104473660046125fa565b611243565b6102ad60475481565b6102a2610463366004612648565b6112b5565b6102a26104763660046126d9565b6114e0565b6102ad6104893660046125fa565b61152c565b6102ad60415481565b6102a26104a53660046127a6565b6115ce565b6102a2611683565b6102ad603a5481565b6102db6104c93660046125fa565b6040602081905260009182529020546001600160a01b031681565b6102a26104f23660046126d9565b6116f3565b6102a26105053660046127a6565b611739565b6037546102db906001600160a01b031681565b6102a261052b3660046127a6565b611792565b6102a261053e366004612615565b6117eb565b6102a2611a2d565b6103d5611aa3565b6102a2611ad4565b6102a26105693660046125fa565b611ba8565b6102a261057c3660046125fa565b611c4c565b6102ad60465481565b6037546103d590600160a81b900460ff1681565b6102a26105ac3660046127a6565b611cbe565b6102a26105bf3660046125fa565b611d73565b6105cc611aa3565b6105f15760405162461bcd60e51b81526004016105e890612827565b60405180910390fd5b6037805460ff60a01b191690556040517fbc044409505c95b6b851433df96e1beae715c909d8e7c1d6d7ab783300d4e3b990600090a1565b610631611aa3565b61064d5760405162461bcd60e51b81526004016105e890612827565b61138881111561069f5760405162461bcd60e51b815260206004820152601760248201527f62617369732063616e6e6f74206578636565642035302500000000000000000060448201526064016105e8565b60438190556040518181527f56287a45051933ea374811b3d5d165033047be5572cac676f7c28b8be4f746c7906020015b60405180910390a150565b60006106f3600080516020612aae8339815191525490565b905090565b610700611aa3565b61071c5760405162461bcd60e51b81526004016105e890612827565b6001600160a01b03821660009081526033602052604090205460ff16156107855760405162461bcd60e51b815260206004820152601760248201527f4f6e6c7920756e737570706f727465642061737365747300000000000000000060448201526064016105e8565b6107a16107906106db565b6001600160a01b0384169083611e15565b5050565b6037546040516315d5220f60e31b81526001600160a01b038381166004830152600092839291169063aea910789060240160206040518083038186803b1580156107ee57600080fd5b505afa158015610802573d6000803e3d6000fd5b505050506040513d601f19601f8201168201806040525081019061082691906127bf565b90506305f2d3c08110156108745760405162461bcd60e51b815260206004820152601560248201527441737365742070726963652062656c6f772070656760581b60448201526064016105e8565b6305f5e10081111561088757506305f5e1005b6108948160126008611e6c565b9392505050565b6108a3611aa3565b6108bf5760405162461bcd60e51b81526004016105e890612827565b6001600160a01b03811660009081526035602052604090205460ff1661091f5760405162461bcd60e51b815260206004820152601560248201527414dd1c985d1959de481b9bdd08185c1c1c9bdd9959605a1b60448201526064016105e8565b60005b6034548110156109d857816001600160a01b0316604060006034848154811061094d5761094d612a97565b60009182526020808320909101546001600160a01b0390811684529083019390935260409091019020541614156109c65760405162461bcd60e51b815260206004820181905260248201527f53747261746567792069732064656661756c7420666f7220616e20617373657460448201526064016105e8565b806109d081612a50565b915050610922565b5060365460005b603654811015610a3b57826001600160a01b031660368281548110610a0657610a06612a97565b6000918252602090912001546001600160a01b03161415610a2957809150610a3b565b80610a3381612a50565b9150506109df565b506036548110156107a15760368054610a5690600190612a09565b81548110610a6657610a66612a97565b600091825260209091200154603680546001600160a01b039092169183908110610a9257610a92612a97565b9060005260206000200160006101000a8154816001600160a01b0302191690836001600160a01b031602179055506036805480610ad157610ad1612a81565b60008281526020808220830160001990810180546001600160a01b03191690559092019092556001600160a01b03841680835260359091526040808320805460ff19169055805163429c145b60e11b81529051859363853828b6926004808201939182900301818387803b158015610b4857600080fd5b505af1158015610b5c573d6000803e3d6000fd5b50506040516001600160a01b03861681527f09a1db4b80c32706328728508c941a6b954f31eb5affd32f236c1fd405f8fea49250602001905060405180910390a1505050565b610baa611aa3565b610bc65760405162461bcd60e51b81526004016105e890612827565b604280546001600160a01b0319166001600160a01b0383169081179091556040519081527f1e4af5ac389e8cde1bdaa6830881b6c987c62a45cfb3b33d27d805cde3b57750906020016106d0565b610c1c611aa3565b610c385760405162461bcd60e51b81526004016105e890612827565b603780546001600160a01b0319166001600160a01b0383169081179091556040519081527fb266add5f3044b17d27db796af992cecbe413921b4e8aaaee03c719e16b9806a906020016106d0565b610c8e611aa3565b610caa5760405162461bcd60e51b81526004016105e890612827565b6001600160a01b03811660009081526035602052604090205460ff1615610d135760405162461bcd60e51b815260206004820152601960248201527f537472617465677920616c726561647920617070726f7665640000000000000060448201526064016105e8565b6040805180820182526001808252600060208084018281526001600160a01b038716808452603583528684209551865460ff19169015151786559051948401949094556036805493840181559091527f4a11f94e20a93c79f6ec743a1954ec4fc2c08429ae2122118bf234b2185c81b890910180546001600160a01b0319168317905591519081527f960dd94cbb79169f09a4e445d58b895df2d9bffa5b31055d0932d801724a20d191016106d0565b603f546001600160a01b0316331480610ddf5750610ddf611aa3565b610dfb5760405162461bcd60e51b81526004016105e890612895565b6037805460ff60a81b1916600160a81b1790556040517f71f0e5b62f846a22e0b4d159e516e62fa9c2b8eb570be15f83e67d98a2ee51e090600090a1565b610e41611aa3565b610e5d5760405162461bcd60e51b81526004016105e890612827565b6001600160a01b03811660009081526033602052604090205460ff1615610ec65760405162461bcd60e51b815260206004820152601760248201527f417373657420616c726561647920737570706f7274656400000000000000000060448201526064016105e8565b604080516020808201835260018083526001600160a01b03858116600081815260339094528584209451855460ff1916901515179094556034805492830181559092527f46bddb1178e94d7f2892ff5f366840eb658911794f2c3a44c450aa2c505186c10180546001600160a01b0319168317905560375492516315d5220f60e31b81526004810192909252919091169063aea910789060240160206040518083038186803b158015610f7857600080fd5b505afa158015610f8c573d6000803e3d6000fd5b505050506040513d601f19601f82011682018060405250810190610fb091906127bf565b506040516001600160a01b03821681527f4f1ac48525e50059cc1cc6e0e1940ece0dd653a4db4841538d6aef036be2fb7b906020016106d0565b603f546001600160a01b03163314806110065750611006611aa3565b6110225760405162461bcd60e51b81526004016105e890612895565b6001600160a01b03811660009081526035602052604090205460ff1661108a5760405162461bcd60e51b815260206004820152601960248201527f5374726174656779206973206e6f7420737570706f727465640000000000000060448201526064016105e8565b6000819050806001600160a01b031663853828b66040518163ffffffff1660e01b8152600401600060405180830381600087803b1580156110ca57600080fd5b505af11580156110de573d6000803e3d6000fd5b505050505050565b7f44c4d30b2eaad5130ad70c3ba6972730566f3e6359ab83e800d905c61b1c51db546001600160a01b0316336001600160a01b0316146111815760405162461bcd60e51b815260206004820152603060248201527f4f6e6c79207468652070656e64696e6720476f7665726e6f722063616e20636f60448201526f6d706c6574652074686520636c61696d60801b60648201526084016105e8565b61118a33611ece565b565b611194611aa3565b6111b05760405162461bcd60e51b81526004016105e890612827565b600060465560478190556040518181527fc29d6fedbc6bdf267a08166c2b976fbd72aca5d6a769528616f8b9224c8f197f906020016106d0565b6111f2611aa3565b61120e5760405162461bcd60e51b81526004016105e890612827565b60418190556040518181527f95201f9c21f26877223b1ff4073936a6484c35495649e60e55730497aeb60d93906020016106d0565b61124b611aa3565b6112675760405162461bcd60e51b81526004016105e890612827565b603f80546001600160a01b0319166001600160a01b0383169081179091556040519081527f869e0abd13cc3a975de7b93be3df1cb2255c802b1cead85963cc79d99f131bee906020016106d0565b603f546001600160a01b03163314806112d157506112d1611aa3565b6112ed5760405162461bcd60e51b81526004016105e890612895565b6001600160a01b03851660009081526035602052604090205460ff1661134b5760405162461bcd60e51b8152602060048201526013602482015272496e76616c696420746f20537472617465677960681b60448201526064016105e8565b82811461136a5760405162461bcd60e51b81526004016105e89061285e565b611378858786868686611f8f565b8460005b8481101561148357816001600160a01b031663aa388af68787848181106113a5576113a5612a97565b90506020020160208101906113ba91906125fa565b6040516001600160e01b031960e084901b1681526001600160a01b03909116600482015260240160206040518083038186803b1580156113f957600080fd5b505afa15801561140d573d6000803e3d6000fd5b505050506040513d601f19601f820116820180604052508101906114319190612784565b6114715760405162461bcd60e51b8152602060048201526011602482015270105cdcd95d081d5b9cdd5c1c1bdc9d1959607a1b60448201526064016105e8565b8061147b81612a50565b91505061137c565b50806001600160a01b031663de5f62686040518163ffffffff1660e01b8152600401600060405180830381600087803b1580156114bf57600080fd5b505af11580156114d3573d6000803e3d6000fd5b5050505050505050505050565b603f546001600160a01b03163314806114fc57506114fc611aa3565b6115185760405162461bcd60e51b81526004016105e890612895565b61152585858585856120ef565b5050505050565b6037546040516315d5220f60e31b81526001600160a01b038381166004830152600092839291169063aea910789060240160206040518083038186803b15801561157557600080fd5b505afa158015611589573d6000803e3d6000fd5b505050506040513d601f19601f820116820180604052508101906115ad91906127bf565b90506305f5e10081101561088757506305f5e1006108948160126008611e6c565b603f546001600160a01b03163314806115ea57506115ea611aa3565b6116065760405162461bcd60e51b81526004016105e890612895565b670de0b6b3a764000081111561164e5760405162461bcd60e51b815260206004820152600d60248201526c496e76616c69642076616c756560981b60448201526064016105e8565b60398190556040518181527f41ecb23a0e7865b25f38c268b7c3012220d822929e9edff07326e89d5bb822b5906020016106d0565b603f546001600160a01b031633148061169f575061169f611aa3565b6116bb5760405162461bcd60e51b81526004016105e890612895565b6037805460ff60a81b191690556040517f891ebab18da80ebeeea06b1b1cede098329c4c008906a98370c2ac7a80b571cb90600090a1565b603f546001600160a01b031633148061170f575061170f611aa3565b61172b5760405162461bcd60e51b81526004016105e890612895565b611525308686868686611f8f565b611741611aa3565b61175d5760405162461bcd60e51b81526004016105e890612827565b603a8190556040518181527f2ec5fb5a3d2703edc461252d92ccd2799c3c74f01d97212b20388207fa17ae45906020016106d0565b61179a611aa3565b6117b65760405162461bcd60e51b81526004016105e890612827565b603b8190556040518181527f39367850377ac04920a9a670f2180e7a94d83b15ad302e59875ec58fd10bd37d906020016106d0565b603f546001600160a01b03163314806118075750611807611aa3565b6118235760405162461bcd60e51b81526004016105e890612895565b604080516001600160a01b038085168252831660208201527fba58ce12801c949fa65f41c46ed108671c219baf945fa48d21026cea99ff252a910160405180910390a16001600160a01b038116156119ff576001600160a01b03811660009081526035602052604090205460ff166118d55760405162461bcd60e51b815260206004820152601560248201527414dd1c985d1959de481b9bdd08185c1c1c9bdd9959605a1b60448201526064016105e8565b6001600160a01b038216600090815260336020526040902054819060ff166119385760405162461bcd60e51b8152602060048201526016602482015275105cdcd95d081a5cc81b9bdd081cdd5c1c1bdc9d195960521b60448201526064016105e8565b60405163551c457b60e11b81526001600160a01b03848116600483015282169063aa388af69060240160206040518083038186803b15801561197957600080fd5b505afa15801561198d573d6000803e3d6000fd5b505050506040513d601f19601f820116820180604052508101906119b19190612784565b6119fd5760405162461bcd60e51b815260206004820152601f60248201527f4173736574206e6f7420737570706f727465642062792053747261746567790060448201526064016105e8565b505b6001600160a01b03918216600090815260406020819052902080546001600160a01b03191691909216179055565b603f546001600160a01b0316331480611a495750611a49611aa3565b611a655760405162461bcd60e51b81526004016105e890612895565b6037805460ff60a01b1916600160a01b1790556040517f8cff26a5985614b3d30629cc4ab83824bf115aec971b718d8f2f99562032e97290600090a1565b6000611abb600080516020612aae8339815191525490565b6001600160a01b0316336001600160a01b031614905090565b603f546001600160a01b0316331480611af05750611af0611aa3565b611b0c5760405162461bcd60e51b81526004016105e890612895565b60005b603654811015611ba557600060368281548110611b2e57611b2e612a97565b60009182526020822001546040805163429c145b60e11b815290516001600160a01b039092169350839263853828b69260048084019382900301818387803b158015611b7957600080fd5b505af1158015611b8d573d6000803e3d6000fd5b50505050508080611b9d90612a50565b915050611b0f565b50565b611bb0611aa3565b611bcc5760405162461bcd60e51b81526004016105e890612827565b611bf4817f44c4d30b2eaad5130ad70c3ba6972730566f3e6359ab83e800d905c61b1c51db55565b806001600160a01b0316611c14600080516020612aae8339815191525490565b6001600160a01b03167fa39cc5eb22d0f34d8beaefee8a3f17cc229c1a1d1ef87a5ad47313487b1c4f0d60405160405180910390a350565b611c54611aa3565b611c705760405162461bcd60e51b81526004016105e890612827565b604580546001600160a01b0319166001600160a01b0383169081179091556040519081527fa12850fb726e0b2b7b3c9a9342031e1268a8148d0eb06b4bea8613204ffcd2b8906020016106d0565b611cc6611aa3565b611ce25760405162461bcd60e51b81526004016105e890612827565b6103e8811115611d3e5760405162461bcd60e51b815260206004820152602160248201527f52656465656d206665652073686f756c64206e6f74206265206f7665722031306044820152602560f81b60648201526084016105e8565b60388190556040518181527fd6c7508d6658ccee36b7b7d7fd72e5cbaeefb40c64eff24e9ae7470e846304ee906020016106d0565b611d7b611aa3565b611d975760405162461bcd60e51b81526004016105e890612827565b803b611df15760405162461bcd60e51b8152602060048201526024808201527f6e657720696d706c656d656e746174696f6e206973206e6f74206120636f6e746044820152631c9858dd60e21b60648201526084016105e8565b7fa2bd3d3cf188a41358c8b401076eb59066b09dec5775650c0de4c55187d17bd955565b604080516001600160a01b038416602482015260448082018490528251808303909101815260649091019091526020810180516001600160e01b031663a9059cbb60e01b179052611e67908490612327565b505050565b600081831115611e9c57611e95611e838385612a09565b611e8e90600a612942565b85906123f9565b9350611ec6565b81831015611ec657611ec3611eb18484612a09565b611ebc90600a612942565b859061240e565b93505b509192915050565b6001600160a01b038116611f245760405162461bcd60e51b815260206004820152601a60248201527f4e657720476f7665726e6f72206973206164647265737328302900000000000060448201526064016105e8565b806001600160a01b0316611f44600080516020612aae8339815191525490565b6001600160a01b03167fc7c0c772add429241571afb3805861fb3cfa2af374534088b76cdb4325a87e9a60405160405180910390a3611ba581600080516020612aae83398151915255565b6001600160a01b03851660009081526035602052604090205460ff16611fef5760405162461bcd60e51b8152602060048201526015602482015274496e76616c69642066726f6d20537472617465677960581b60448201526064016105e8565b82811461200e5760405162461bcd60e51b81526004016105e89061285e565b8460005b848110156120e557816001600160a01b031663d9caed128988888581811061203c5761203c612a97565b905060200201602081019061205191906125fa565b87878681811061206357612063612a97565b6040516001600160e01b031960e088901b1681526001600160a01b03958616600482015294909316602485015250602090910201356044820152606401600060405180830381600087803b1580156120ba57600080fd5b505af11580156120ce573d6000803e3d6000fd5b5050505080806120dd90612a50565b915050612012565b5050505050505050565b6001600160a01b03851660009081526035602052604090205460ff1661214d5760405162461bcd60e51b8152602060048201526013602482015272496e76616c696420746f20537472617465677960681b60448201526064016105e8565b82811461216c5760405162461bcd60e51b81526004016105e89061285e565b8460005b848110156122cb57816001600160a01b031663aa388af687878481811061219957612199612a97565b90506020020160208101906121ae91906125fa565b6040516001600160e01b031960e084901b1681526001600160a01b03909116600482015260240160206040518083038186803b1580156121ed57600080fd5b505afa158015612201573d6000803e3d6000fd5b505050506040513d601f19601f820116820180604052508101906122259190612784565b6122655760405162461bcd60e51b8152602060048201526011602482015270105cdcd95d081d5b9cdd5c1c1bdc9d1959607a1b60448201526064016105e8565b6122b98785858481811061227b5761227b612a97565b9050602002013588888581811061229457612294612a97565b90506020020160208101906122a991906125fa565b6001600160a01b03169190611e15565b806122c381612a50565b915050612170565b50806001600160a01b031663de5f62686040518163ffffffff1660e01b8152600401600060405180830381600087803b15801561230757600080fd5b505af115801561231b573d6000803e3d6000fd5b50505050505050505050565b600061237c826040518060400160405280602081526020017f5361666545524332303a206c6f772d6c6576656c2063616c6c206661696c6564815250856001600160a01b031661241a9092919063ffffffff16565b805190915015611e67578080602001905181019061239a9190612784565b611e675760405162461bcd60e51b815260206004820152602a60248201527f5361666545524332303a204552433230206f7065726174696f6e20646964206e6044820152691bdd081cdd58d8d9595960b21b60648201526084016105e8565b600061240582846129ea565b90505b92915050565b600061240582846128dd565b60606124298484600085612431565b949350505050565b6060824710156124925760405162461bcd60e51b815260206004820152602660248201527f416464726573733a20696e73756666696369656e742062616c616e636520666f6044820152651c8818d85b1b60d21b60648201526084016105e8565b843b6124e05760405162461bcd60e51b815260206004820152601d60248201527f416464726573733a2063616c6c20746f206e6f6e2d636f6e747261637400000060448201526064016105e8565b600080866001600160a01b031685876040516124fc91906127d8565b60006040518083038185875af1925050503d8060008114612539576040519150601f19603f3d011682016040523d82523d6000602084013e61253e565b606091505b509150915061254e828286612559565b979650505050505050565b60608315612568575081610894565b8251156125785782518084602001fd5b8160405162461bcd60e51b81526004016105e891906127f4565b80356001600160a01b03811681146125a957600080fd5b919050565b60008083601f8401126125c057600080fd5b50813567ffffffffffffffff8111156125d857600080fd5b6020830191508360208260051b85010111156125f357600080fd5b9250929050565b60006020828403121561260c57600080fd5b61240582612592565b6000806040838503121561262857600080fd5b61263183612592565b915061263f60208401612592565b90509250929050565b6000806000806000806080878903121561266157600080fd5b61266a87612592565b955061267860208801612592565b9450604087013567ffffffffffffffff8082111561269557600080fd5b6126a18a838b016125ae565b909650945060608901359150808211156126ba57600080fd5b506126c789828a016125ae565b979a9699509497509295939492505050565b6000806000806000606086880312156126f157600080fd5b6126fa86612592565b9450602086013567ffffffffffffffff8082111561271757600080fd5b61272389838a016125ae565b9096509450604088013591508082111561273c57600080fd5b50612749888289016125ae565b969995985093965092949392505050565b6000806040838503121561276d57600080fd5b61277683612592565b946020939093013593505050565b60006020828403121561279657600080fd5b8151801515811461089457600080fd5b6000602082840312156127b857600080fd5b5035919050565b6000602082840312156127d157600080fd5b5051919050565b600082516127ea818460208701612a20565b9190910192915050565b6020815260008251806020840152612813816040850160208701612a20565b601f01601f19169190910160400192915050565b6020808252601a908201527f43616c6c6572206973206e6f742074686520476f7665726e6f72000000000000604082015260600190565b60208082526019908201527f506172616d65746572206c656e677468206d69736d6174636800000000000000604082015260600190565b60208082526028908201527f43616c6c6572206973206e6f74207468652053747261746567697374206f722060408201526723b7bb32b93737b960c11b606082015260800190565b6000826128fa57634e487b7160e01b600052601260045260246000fd5b500490565b600181815b8085111561293a57816000190482111561292057612920612a6b565b8085161561292d57918102915b93841c9390800290612904565b509250929050565b6000612405838360008261295857506001612408565b8161296557506000612408565b816001811461297b5760028114612985576129a1565b6001915050612408565b60ff84111561299657612996612a6b565b50506001821b612408565b5060208310610133831016604e8410600b84101617156129c4575081810a612408565b6129ce83836128ff565b80600019048211156129e2576129e2612a6b565b029392505050565b6000816000190483118215151615612a0457612a04612a6b565b500290565b600082821015612a1b57612a1b612a6b565b500390565b60005b83811015612a3b578181015183820152602001612a23565b83811115612a4a576000848401525b50505050565b6000600019821415612a6457612a64612a6b565b5060010190565b634e487b7160e01b600052601160045260246000fd5b634e487b7160e01b600052603160045260246000fd5b634e487b7160e01b600052603260045260246000fdfe7bea13895fa79d2831e0a9e28edede30099005a50d652d8957cf8a607ee6ca4aa26469706673582212201c2ef0edc98ed77445af94c98b4f1f331c896bf79127db35255cc9e63f07b15464736f6c634300080700337bea13895fa79d2831e0a9e28edede30099005a50d652d8957cf8a607ee6ca4a",
  "devdoc": {
    "kind": "dev",
    "methods": {
      "approveStrategy(address)": {
        "details": "Add a strategy to the Vault.",
        "params": {
          "_addr": "Address of the strategy to add"
        }
      },
      "claimGovernance()": {
        "details": "Claim Governance of the contract to a new account (`newGovernor`). Can only be called by the new Governor."
      },
      "depositToStrategy(address,address[],uint256[])": {
        "details": "Deposit multiple assets from the vault into the strategy.",
        "params": {
          "_amounts": "Array of amounts of each corresponding asset to deposit.",
          "_assets": "Array of asset address that will be deposited into the strategy.",
          "_strategyToAddress": "Address of the Strategy to deposit assets into."
        }
      },
      "governor()": {
        "details": "Returns the address of the current Governor."
      },
      "isGovernor()": {
        "details": "Returns true if the caller is the current Governor."
      },
      "pauseCapital()": {
        "details": "Set the deposit paused flag to true to prevent capital movement."
      },
      "pauseRebase()": {
        "details": "Set the deposit paused flag to true to prevent rebasing."
      },
      "priceUSDMint(address)": {
        "details": "Returns the total price in 18 digit USD for a given asset.      Never goes above 1, since that is how we price mints",
        "params": {
          "asset": "address of the asset"
        },
        "returns": {
          "_0": "uint256 USD price of 1 of the asset, in 18 decimal fixed"
        }
      },
      "priceUSDRedeem(address)": {
        "details": "Returns the total price in 18 digit USD for a given asset.      Never goes below 1, since that is how we price redeems",
        "params": {
          "asset": "Address of the asset"
        },
        "returns": {
          "_0": "uint256 USD price of 1 of the asset, in 18 decimal fixed"
        }
      },
      "reallocate(address,address,address[],uint256[])": {
        "details": "Move assets from one Strategy to another",
        "params": {
          "_amounts": "Array of amounts of each corresponding asset to move.",
          "_assets": "Array of asset address that will be moved",
          "_strategyFromAddress": "Address of Strategy to move assets from.",
          "_strategyToAddress": "Address of Strategy to move assets to."
        }
      },
      "removeStrategy(address)": {
        "details": "Remove a strategy from the Vault.",
        "params": {
          "_addr": "Address of the strategy to remove"
        }
      },
      "setAdminImpl(address)": {
        "details": "set the implementation for the admin, this needs to be in a base class else we cannot set it",
        "params": {
          "newImpl": "address of the implementation"
        }
      },
      "setAssetDefaultStrategy(address,address)": {
        "details": "Set the default Strategy for an asset, i.e. the one which the asset will be automatically allocated to and withdrawn from",
        "params": {
          "_asset": "Address of the asset",
          "_strategy": "Address of the Strategy"
        }
      },
      "setAutoAllocateThreshold(uint256)": {
        "details": "Sets the minimum amount of OUSD in a mint to trigger an automatic allocation of funds afterwords.",
        "params": {
          "_threshold": "OUSD amount with 18 fixed decimals."
        }
      },
      "setMaxSupplyDiff(uint256)": {
        "details": "Sets the maximum allowable difference between total supply and backing assets' value."
      },
      "setNetOusdMintForStrategyThreshold(uint256)": {
        "details": "Set maximum amount of OUSD that can at any point be minted and deployed to strategy (used only by ConvexOUSDMetaStrategy for now).",
        "params": {
          "_threshold": "OUSD amount with 18 fixed decimals."
        }
      },
      "setOusdMetaStrategy(address)": {
        "details": "Set OUSD Meta strategy",
        "params": {
          "_ousdMetaStrategy": "Address of ousd meta strategy"
        }
      },
      "setPriceProvider(address)": {
        "details": "Set address of price provider.",
        "params": {
          "_priceProvider": "Address of price provider"
        }
      },
      "setRebaseThreshold(uint256)": {
        "details": "Set a minimum amount of OUSD in a mint or redeem that triggers a rebase",
        "params": {
          "_threshold": "OUSD amount with 18 fixed decimals."
        }
      },
      "setRedeemFeeBps(uint256)": {
        "details": "Set a fee in basis points to be charged for a redeem.",
        "params": {
          "_redeemFeeBps": "Basis point fee to be charged"
        }
      },
      "setStrategistAddr(address)": {
        "details": "Set address of Strategist",
        "params": {
          "_address": "Address of Strategist"
        }
      },
      "setTrusteeAddress(address)": {
        "details": "Sets the trusteeAddress that can receive a portion of yield.      Setting to the zero address disables this feature."
      },
      "setTrusteeFeeBps(uint256)": {
        "details": "Sets the TrusteeFeeBps to the percentage of yield that should be      received in basis points."
      },
      "setVaultBuffer(uint256)": {
        "details": "Set a buffer of assets to keep in the Vault to handle most redemptions without needing to spend gas unwinding assets from a Strategy.",
        "params": {
          "_vaultBuffer": "Percentage using 18 decimals. 100% = 1e18."
        }
      },
      "supportAsset(address)": {
        "details": "Add a supported asset to the contract, i.e. one that can be         to mint OUSD.",
        "params": {
          "_asset": "Address of asset"
        }
      },
      "transferGovernance(address)": {
        "details": "Transfers Governance of the contract to a new account (`newGovernor`). Can only be called by the current Governor. Must be claimed for this to complete",
        "params": {
          "_newGovernor": "Address of the new Governor"
        }
      },
      "transferToken(address,uint256)": {
        "details": "Transfer token to governor. Intended for recovering tokens stuck in      contract, i.e. mistaken sends.",
        "params": {
          "_amount": "Amount of the asset to transfer",
          "_asset": "Address for the asset"
        }
      },
      "unpauseCapital()": {
        "details": "Set the deposit paused flag to false to enable capital movement."
      },
      "unpauseRebase()": {
        "details": "Set the deposit paused flag to true to allow rebasing."
      },
      "withdrawAllFromStrategies()": {
        "details": "Withdraws all assets from all the strategies and sends assets to the Vault."
      },
      "withdrawAllFromStrategy(address)": {
        "details": "Withdraws all assets from the strategy and sends assets to the Vault.",
        "params": {
          "_strategyAddr": "Strategy address."
        }
      },
      "withdrawFromStrategy(address,address[],uint256[])": {
        "details": "Withdraw multiple assets from the strategy to the vault.",
        "params": {
          "_amounts": "Array of amounts of each corresponding asset to withdraw.",
          "_assets": "Array of asset address that will be withdrawn from the strategy.",
          "_strategyFromAddress": "Address of the Strategy to withdraw assets from."
        }
      }
    },
    "version": 1
  },
  "userdoc": {
    "kind": "user",
    "methods": {},
    "version": 1
  },
  "storageLayout": {
    "storage": [
      {
        "astId": 23177,
        "contract": "contracts/vault/VaultAdmin.sol:VaultAdmin",
        "label": "initialized",
        "offset": 0,
        "slot": "0",
        "type": "t_bool"
      },
      {
        "astId": 23180,
        "contract": "contracts/vault/VaultAdmin.sol:VaultAdmin",
        "label": "initializing",
        "offset": 1,
        "slot": "0",
        "type": "t_bool"
      },
      {
        "astId": 23220,
        "contract": "contracts/vault/VaultAdmin.sol:VaultAdmin",
        "label": "______gap",
        "offset": 0,
        "slot": "1",
        "type": "t_array(t_uint256)50_storage"
      },
      {
        "astId": 26939,
        "contract": "contracts/vault/VaultAdmin.sol:VaultAdmin",
        "label": "assets",
        "offset": 0,
        "slot": "51",
        "type": "t_mapping(t_address,t_struct(Asset)26934_storage)"
      },
      {
        "astId": 26942,
        "contract": "contracts/vault/VaultAdmin.sol:VaultAdmin",
        "label": "allAssets",
        "offset": 0,
        "slot": "52",
        "type": "t_array(t_address)dyn_storage"
      },
      {
        "astId": 26952,
        "contract": "contracts/vault/VaultAdmin.sol:VaultAdmin",
        "label": "strategies",
        "offset": 0,
        "slot": "53",
        "type": "t_mapping(t_address,t_struct(Strategy)26947_storage)"
      },
      {
        "astId": 26955,
        "contract": "contracts/vault/VaultAdmin.sol:VaultAdmin",
        "label": "allStrategies",
        "offset": 0,
        "slot": "54",
        "type": "t_array(t_address)dyn_storage"
      },
      {
        "astId": 26957,
        "contract": "contracts/vault/VaultAdmin.sol:VaultAdmin",
        "label": "priceProvider",
        "offset": 0,
        "slot": "55",
        "type": "t_address"
      },
      {
        "astId": 26960,
        "contract": "contracts/vault/VaultAdmin.sol:VaultAdmin",
        "label": "rebasePaused",
        "offset": 20,
        "slot": "55",
        "type": "t_bool"
      },
      {
        "astId": 26963,
        "contract": "contracts/vault/VaultAdmin.sol:VaultAdmin",
        "label": "capitalPaused",
        "offset": 21,
        "slot": "55",
        "type": "t_bool"
      },
      {
        "astId": 26965,
        "contract": "contracts/vault/VaultAdmin.sol:VaultAdmin",
        "label": "redeemFeeBps",
        "offset": 0,
        "slot": "56",
        "type": "t_uint256"
      },
      {
        "astId": 26967,
        "contract": "contracts/vault/VaultAdmin.sol:VaultAdmin",
        "label": "vaultBuffer",
        "offset": 0,
        "slot": "57",
        "type": "t_uint256"
      },
      {
        "astId": 26969,
        "contract": "contracts/vault/VaultAdmin.sol:VaultAdmin",
        "label": "autoAllocateThreshold",
        "offset": 0,
        "slot": "58",
        "type": "t_uint256"
      },
      {
        "astId": 26971,
        "contract": "contracts/vault/VaultAdmin.sol:VaultAdmin",
        "label": "rebaseThreshold",
        "offset": 0,
        "slot": "59",
        "type": "t_uint256"
      },
      {
        "astId": 26974,
        "contract": "contracts/vault/VaultAdmin.sol:VaultAdmin",
        "label": "oUSD",
        "offset": 0,
        "slot": "60",
        "type": "t_contract(OUSD)23003"
      },
      {
        "astId": 26983,
        "contract": "contracts/vault/VaultAdmin.sol:VaultAdmin",
        "label": "_deprecated_rebaseHooksAddr",
        "offset": 0,
        "slot": "61",
        "type": "t_address"
      },
      {
        "astId": 26989,
        "contract": "contracts/vault/VaultAdmin.sol:VaultAdmin",
        "label": "_deprecated_uniswapAddr",
        "offset": 0,
        "slot": "62",
        "type": "t_address"
      },
      {
        "astId": 26995,
        "contract": "contracts/vault/VaultAdmin.sol:VaultAdmin",
        "label": "strategistAddr",
        "offset": 0,
        "slot": "63",
        "type": "t_address"
      },
      {
        "astId": 26999,
        "contract": "contracts/vault/VaultAdmin.sol:VaultAdmin",
        "label": "assetDefaultStrategies",
        "offset": 0,
        "slot": "64",
        "type": "t_mapping(t_address,t_address)"
      },
      {
        "astId": 27001,
        "contract": "contracts/vault/VaultAdmin.sol:VaultAdmin",
        "label": "maxSupplyDiff",
        "offset": 0,
        "slot": "65",
        "type": "t_uint256"
      },
      {
        "astId": 27003,
        "contract": "contracts/vault/VaultAdmin.sol:VaultAdmin",
        "label": "trusteeAddress",
        "offset": 0,
        "slot": "66",
        "type": "t_address"
      },
      {
        "astId": 27005,
        "contract": "contracts/vault/VaultAdmin.sol:VaultAdmin",
        "label": "trusteeFeeBps",
        "offset": 0,
        "slot": "67",
        "type": "t_uint256"
      },
      {
        "astId": 27008,
        "contract": "contracts/vault/VaultAdmin.sol:VaultAdmin",
        "label": "_deprecated_swapTokens",
        "offset": 0,
        "slot": "68",
        "type": "t_array(t_address)dyn_storage"
      },
      {
        "astId": 27017,
        "contract": "contracts/vault/VaultAdmin.sol:VaultAdmin",
        "label": "ousdMetaStrategy",
        "offset": 0,
        "slot": "69",
        "type": "t_address"
      },
      {
        "astId": 27020,
        "contract": "contracts/vault/VaultAdmin.sol:VaultAdmin",
        "label": "netOusdMintedForStrategy",
        "offset": 0,
        "slot": "70",
        "type": "t_int256"
      },
      {
        "astId": 27023,
        "contract": "contracts/vault/VaultAdmin.sol:VaultAdmin",
        "label": "netOusdMintForStrategyThreshold",
        "offset": 0,
        "slot": "71",
        "type": "t_uint256"
      }
    ],
    "types": {
      "t_address": {
        "encoding": "inplace",
        "label": "address",
        "numberOfBytes": "20"
      },
      "t_array(t_address)dyn_storage": {
        "base": "t_address",
        "encoding": "dynamic_array",
        "label": "address[]",
        "numberOfBytes": "32"
      },
      "t_array(t_uint256)50_storage": {
        "base": "t_uint256",
        "encoding": "inplace",
        "label": "uint256[50]",
        "numberOfBytes": "1600"
      },
      "t_bool": {
        "encoding": "inplace",
        "label": "bool",
        "numberOfBytes": "1"
      },
      "t_contract(OUSD)23003": {
        "encoding": "inplace",
        "label": "contract OUSD",
        "numberOfBytes": "20"
      },
      "t_int256": {
        "encoding": "inplace",
        "label": "int256",
        "numberOfBytes": "32"
      },
      "t_mapping(t_address,t_address)": {
        "encoding": "mapping",
        "key": "t_address",
        "label": "mapping(address => address)",
        "numberOfBytes": "32",
        "value": "t_address"
      },
      "t_mapping(t_address,t_struct(Asset)26934_storage)": {
        "encoding": "mapping",
        "key": "t_address",
        "label": "mapping(address => struct VaultStorage.Asset)",
        "numberOfBytes": "32",
        "value": "t_struct(Asset)26934_storage"
      },
      "t_mapping(t_address,t_struct(Strategy)26947_storage)": {
        "encoding": "mapping",
        "key": "t_address",
        "label": "mapping(address => struct VaultStorage.Strategy)",
        "numberOfBytes": "32",
        "value": "t_struct(Strategy)26947_storage"
      },
      "t_struct(Asset)26934_storage": {
        "encoding": "inplace",
        "label": "struct VaultStorage.Asset",
        "members": [
          {
            "astId": 26933,
            "contract": "contracts/vault/VaultAdmin.sol:VaultAdmin",
            "label": "isSupported",
            "offset": 0,
            "slot": "0",
            "type": "t_bool"
          }
        ],
        "numberOfBytes": "32"
      },
      "t_struct(Strategy)26947_storage": {
        "encoding": "inplace",
        "label": "struct VaultStorage.Strategy",
        "members": [
          {
            "astId": 26944,
            "contract": "contracts/vault/VaultAdmin.sol:VaultAdmin",
            "label": "isSupported",
            "offset": 0,
            "slot": "0",
            "type": "t_bool"
          },
          {
            "astId": 26946,
            "contract": "contracts/vault/VaultAdmin.sol:VaultAdmin",
            "label": "_deprecated",
            "offset": 0,
            "slot": "1",
            "type": "t_uint256"
          }
        ],
        "numberOfBytes": "64"
      },
      "t_uint256": {
        "encoding": "inplace",
        "label": "uint256",
        "numberOfBytes": "32"
      }
    }
  }
}