{
  "address": "0xd7Ee8397C76E1040A790777E420321865e2e5107",
  "abi": [
    {
      "inputs": [
        {
          "internalType": "address",
          "name": "_ccipRouter",
          "type": "address"
        },
        {
          "internalType": "uint64",
          "name": "_destinationChainSelector",
          "type": "uint64"
        },
        {
          "internalType": "contract IERC4626",
          "name": "_woethOnSourceChain",
          "type": "address"
        },
        {
          "internalType": "contract IERC20",
          "name": "_woethOnDestinationChain",
          "type": "address"
        },
        {
          "internalType": "contract IOETHZapper",
          "name": "_oethZapper",
          "type": "address"
        },
        {
          "internalType": "contract IERC20",
          "name": "_oeth",
          "type": "address"
        }
      ],
      "stateMutability": "nonpayable",
      "type": "constructor"
    },
    {
      "anonymous": false,
      "inputs": [
        {
          "indexed": true,
          "internalType": "bytes32",
          "name": "messageId",
          "type": "bytes32"
        },
        {
          "indexed": false,
          "internalType": "address",
          "name": "sender",
          "type": "address"
        },
        {
          "indexed": false,
          "internalType": "address",
          "name": "recipient",
          "type": "address"
        },
        {
          "indexed": false,
          "internalType": "uint256",
          "name": "amount",
          "type": "uint256"
        }
      ],
      "name": "Zap",
      "type": "event"
    },
    {
      "inputs": [],
      "name": "ccipRouter",
      "outputs": [
        {
          "internalType": "contract IRouterClient",
          "name": "",
          "type": "address"
        }
      ],
      "stateMutability": "view",
      "type": "function"
    },
    {
      "inputs": [],
      "name": "destinationChainSelector",
      "outputs": [
        {
          "internalType": "uint64",
          "name": "",
          "type": "uint64"
        }
      ],
      "stateMutability": "view",
      "type": "function"
    },
    {
      "inputs": [],
      "name": "oeth",
      "outputs": [
        {
          "internalType": "contract IERC20",
          "name": "",
          "type": "address"
        }
      ],
      "stateMutability": "view",
      "type": "function"
    },
    {
      "inputs": [],
      "name": "oethZapper",
      "outputs": [
        {
          "internalType": "contract IOETHZapper",
          "name": "",
          "type": "address"
        }
      ],
      "stateMutability": "view",
      "type": "function"
    },
    {
      "inputs": [],
      "name": "woethOnDestinationChain",
      "outputs": [
        {
          "internalType": "contract IERC20",
          "name": "",
          "type": "address"
        }
      ],
      "stateMutability": "view",
      "type": "function"
    },
    {
      "inputs": [],
      "name": "woethOnSourceChain",
      "outputs": [
        {
          "internalType": "contract IERC4626",
          "name": "",
          "type": "address"
        }
      ],
      "stateMutability": "view",
      "type": "function"
    },
    {
      "inputs": [
        {
          "internalType": "address",
          "name": "receiver",
          "type": "address"
        }
      ],
      "name": "zap",
      "outputs": [
        {
          "internalType": "bytes32",
          "name": "messageId",
          "type": "bytes32"
        }
      ],
      "stateMutability": "payable",
      "type": "function"
    },
    {
      "stateMutability": "payable",
      "type": "receive"
    }
  ],
  "transactionHash": "0xcbe652c8f6a16893b9f41609d59ff4e462cafe7b1846822982c353b65702a5f6",
  "args": [
    "0x80226fc0Ee2b096224EeAc085Bb9a8cba1146f7D",
    "4949039107694359620",
    "0xDcEe70654261AF21C44c093C300eD3Bb97b78192",
    "0xD8724322f44E5c58D7A815F542036fb17DbbF839",
    "0x9858e47BCbBe6fBAC040519B02d7cd4B2C470C66",
    "0x856c4Efb76C1D1AE02e20CEB03A2A6a08b0b8dC3"
  ],
  "numDeployments": 1,
  "solcInputHash": "4d0e706e1dc5fdf9ce5f66a1e4468316",
  "bytecode": "0x61014060405234801561001157600080fd5b50604051610a95380380610a958339810160408190526100309161018a565b606086811b6001600160601b03199081166101005260c087811b6001600160c01b03191660805286831b821660a05285831b8216905283821b811660e0529082901b166101205260405163095ea7b360e01b81526001600160a01b038086166004830152600019602483015282169063095ea7b390604401602060405180830381600087803b1580156100c257600080fd5b505af11580156100d6573d6000803e3d6000fd5b505050506040513d601f19601f820116820180604052508101906100fa919061021d565b5060405163095ea7b360e01b81526001600160a01b038781166004830152600019602483015285169063095ea7b390604401602060405180830381600087803b15801561014657600080fd5b505af115801561015a573d6000803e3d6000fd5b505050506040513d601f19601f8201168201806040525081019061017e919061021d565b5050505050505061025e565b60008060008060008060c087890312156101a357600080fd5b86516101ae81610246565b60208801519096506001600160401b03811681146101cb57600080fd5b60408801519095506101dc81610246565b60608801519094506101ed81610246565b60808801519093506101fe81610246565b60a088015190925061020f81610246565b809150509295509295509295565b60006020828403121561022f57600080fd5b8151801515811461023f57600080fd5b9392505050565b6001600160a01b038116811461025b57600080fd5b50565b60805160c01c60a05160601c60c05160601c60e05160601c6101005160601c6101205160601c6107b56102e060003960006101c4015260008181609d01526104e401526000818160ee015261021f015260006101f8015260008181610190015281816102db015261036b015260008181610122015261051101526107b56000f3fe6080604052600436106100745760003560e01c8063510a33831161004e578063510a33831461015d578063c082aa591461017e578063ccfe2a69146101b2578063e0e43b95146101e657600080fd5b80630de229841461008b57806314b6cfaf146100dc57806331db1ffc1461011057600080fd5b3661008657610083333461021a565b50005b600080fd5b34801561009757600080fd5b506100bf7f000000000000000000000000000000000000000000000000000000000000000081565b6040516001600160a01b0390911681526020015b60405180910390f35b3480156100e857600080fd5b506100bf7f000000000000000000000000000000000000000000000000000000000000000081565b34801561011c57600080fd5b506101447f000000000000000000000000000000000000000000000000000000000000000081565b60405167ffffffffffffffff90911681526020016100d3565b61017061016b3660046105f9565b6105e7565b6040519081526020016100d3565b34801561018a57600080fd5b506100bf7f000000000000000000000000000000000000000000000000000000000000000081565b3480156101be57600080fd5b506100bf7f000000000000000000000000000000000000000000000000000000000000000081565b3480156101f257600080fd5b506100bf7f000000000000000000000000000000000000000000000000000000000000000081565b6000807f00000000000000000000000000000000000000000000000000000000000000006001600160a01b031663d0e30db0846040518263ffffffff1660e01b81526004016020604051808303818588803b15801561027857600080fd5b505af115801561028c573d6000803e3d6000fd5b50505050506040513d601f19601f820116820180604052508101906102b19190610629565b604051636e553f6560e01b8152600481018290523060248201529091506000906001600160a01b037f00000000000000000000000000000000000000000000000000000000000000001690636e553f6590604401602060405180830381600087803b15801561031f57600080fd5b505af1158015610333573d6000803e3d6000fd5b505050506040513d601f19601f820116820180604052508101906103579190610629565b6040805160018082528183019092529192507f000000000000000000000000000000000000000000000000000000000000000091600091816020015b604080518082019091526000808252602082015281526020019060019003908161039357905050905060006040518060400160405280846001600160a01b0316815260200185815250905080826000815181106103f2576103f2610769565b60209081029190910101526040805160a081019091526001600160a01b03891660c08201526000908060e08101604051602081830303815290604052815260200160405160200161044e90602080825260009082015260400190565b604051602081830303815290604052815260200184815260200160006001600160a01b031681526020016104c86040518060200160405280600081525060408051915160248084019190915281518084039091018152604490920190526020810180516001600160e01b03166397a657c960e01b17905290565b90526040516396f4e9f960e01b81529091506001600160a01b037f000000000000000000000000000000000000000000000000000000000000000016906396f4e9f99061053b907f000000000000000000000000000000000000000000000000000000000000000090859060040161068f565b602060405180830381600087803b15801561055557600080fd5b505af1158015610569573d6000803e3d6000fd5b505050506040513d601f19601f8201168201806040525081019061058d9190610629565b604080513381526001600160a01b038c1660208201529081018a905290975087907fe60f8f9891d6ba1d4b24cf83eb5505159db0ad30b8424112e68be6e656927cbe9060600160405180910390a250505050505092915050565b60006105f3823461021a565b92915050565b60006020828403121561060b57600080fd5b81356001600160a01b038116811461062257600080fd5b9392505050565b60006020828403121561063b57600080fd5b5051919050565b6000815180845260005b818110156106685760208185018101518683018201520161064c565b8181111561067a576000602083870101525b50601f01601f19169290920160200192915050565b6000604067ffffffffffffffff8516835260208181850152845160a0838601526106bc60e0860182610642565b905081860151603f19808784030160608801526106d98383610642565b88860151888203830160808a01528051808352908601945060009350908501905b8084101561072c57845180516001600160a01b03168352860151868301529385019360019390930192908601906106fa565b5060608901516001600160a01b031660a08901526080890151888203830160c08a0152955061075b8187610642565b9a9950505050505050505050565b634e487b7160e01b600052603260045260246000fdfea2646970667358221220a375f935d8aa7803955126e8771ac23b7939de7a6f723a8a25d32f97592aab1b64736f6c63430008070033",
  "libraries": {},
  "devdoc": {
    "author": "Origin Protocol Inc",
    "events": {
      "Zap(bytes32,address,address,uint256)": {
        "details": "Event emitted when a zap occurs",
        "params": {
          "amount": "Amount of ETH zapped",
          "messageId": "Unique message identifier for each zap",
          "recipient": "Recipient address at destination chain",
          "sender": "Address initiating the zap"
        }
      }
    },
    "kind": "dev",
    "methods": {
      "zap(address)": {
        "params": {
          "receiver": "The address of the EOA on the destination chain"
        },
        "returns": {
          "messageId": "The ID of the message that was sent"
        }
      }
    },
    "stateVariables": {
      "ccipRouter": {
        "details": "The CCIP router contract address"
      },
      "destinationChainSelector": {
        "details": "The destination chain selector"
      },
      "oeth": {
        "details": "The OETH token contract address"
      },
      "oethZapper": {
        "details": "The OETH zapper contract address"
      },
      "woethOnDestinationChain": {
        "details": "The WOETH destination chain (Arbitrum)"
      },
      "woethOnSourceChain": {
        "details": "The WOETH source chain (Mainnet)"
      }
    },
    "title": "WOETH CCIP Zapper Contract",
    "version": 1
  },
  "userdoc": {
    "kind": "user",
    "methods": {
      "zap(address)": {
        "notice": "Accepts ETH, zaps for OETH, wraps it for WOETH and sends it to the destination chain (arbitrum)"
      }
    },
    "notice": "Helps to directly convert ETH on mainnet into WOETH on L2s.",
    "version": 1
  },
  "storageLayout": {
    "storage": [],
    "types": null
  }
}