{
  "address": "0xBF3B9b141Cb3629F5Bb8F721cbA9265c92494539",
  "abi": [
    {
      "inputs": [
        {
          "internalType": "contract ERC20",
          "name": "underlying_",
          "type": "address"
        },
        {
          "internalType": "string",
          "name": "name_",
          "type": "string"
        },
        {
          "internalType": "string",
          "name": "symbol_",
          "type": "string"
        }
      ],
      "stateMutability": "nonpayable",
      "type": "constructor"
    },
    {
      "anonymous": false,
      "inputs": [
        {
          "indexed": true,
          "internalType": "address",
          "name": "owner",
          "type": "address"
        },
        {
          "indexed": true,
          "internalType": "address",
          "name": "spender",
          "type": "address"
        },
        {
          "indexed": false,
          "internalType": "uint256",
          "name": "value",
          "type": "uint256"
        }
      ],
      "name": "Approval",
      "type": "event"
    },
    {
      "anonymous": false,
      "inputs": [
        {
          "indexed": true,
          "internalType": "address",
          "name": "caller",
          "type": "address"
        },
        {
          "indexed": true,
          "internalType": "address",
          "name": "owner",
          "type": "address"
        },
        {
          "indexed": false,
          "internalType": "uint256",
          "name": "assets",
          "type": "uint256"
        },
        {
          "indexed": false,
          "internalType": "uint256",
          "name": "shares",
          "type": "uint256"
        }
      ],
      "name": "Deposit",
      "type": "event"
    },
    {
      "anonymous": false,
      "inputs": [
        {
          "indexed": true,
          "internalType": "address",
          "name": "previousGovernor",
          "type": "address"
        },
        {
          "indexed": true,
          "internalType": "address",
          "name": "newGovernor",
          "type": "address"
        }
      ],
      "name": "GovernorshipTransferred",
      "type": "event"
    },
    {
      "anonymous": false,
      "inputs": [
        {
          "indexed": true,
          "internalType": "address",
          "name": "previousGovernor",
          "type": "address"
        },
        {
          "indexed": true,
          "internalType": "address",
          "name": "newGovernor",
          "type": "address"
        }
      ],
      "name": "PendingGovernorshipTransfer",
      "type": "event"
    },
    {
      "anonymous": false,
      "inputs": [
        {
          "indexed": true,
          "internalType": "address",
          "name": "from",
          "type": "address"
        },
        {
          "indexed": true,
          "internalType": "address",
          "name": "to",
          "type": "address"
        },
        {
          "indexed": false,
          "internalType": "uint256",
          "name": "value",
          "type": "uint256"
        }
      ],
      "name": "Transfer",
      "type": "event"
    },
    {
      "anonymous": false,
      "inputs": [
        {
          "indexed": true,
          "internalType": "address",
          "name": "caller",
          "type": "address"
        },
        {
          "indexed": true,
          "internalType": "address",
          "name": "receiver",
          "type": "address"
        },
        {
          "indexed": true,
          "internalType": "address",
          "name": "owner",
          "type": "address"
        },
        {
          "indexed": false,
          "internalType": "uint256",
          "name": "assets",
          "type": "uint256"
        },
        {
          "indexed": false,
          "internalType": "uint256",
          "name": "shares",
          "type": "uint256"
        }
      ],
      "name": "Withdraw",
      "type": "event"
    },
    {
      "inputs": [
        {
          "internalType": "address",
          "name": "owner",
          "type": "address"
        },
        {
          "internalType": "address",
          "name": "spender",
          "type": "address"
        }
      ],
      "name": "allowance",
      "outputs": [
        {
          "internalType": "uint256",
          "name": "",
          "type": "uint256"
        }
      ],
      "stateMutability": "view",
      "type": "function"
    },
    {
      "inputs": [
        {
          "internalType": "address",
          "name": "spender",
          "type": "address"
        },
        {
          "internalType": "uint256",
          "name": "amount",
          "type": "uint256"
        }
      ],
      "name": "approve",
      "outputs": [
        {
          "internalType": "bool",
          "name": "",
          "type": "bool"
        }
      ],
      "stateMutability": "nonpayable",
      "type": "function"
    },
    {
      "inputs": [],
      "name": "asset",
      "outputs": [
        {
          "internalType": "address",
          "name": "",
          "type": "address"
        }
      ],
      "stateMutability": "view",
      "type": "function"
    },
    {
      "inputs": [
        {
          "internalType": "address",
          "name": "account",
          "type": "address"
        }
      ],
      "name": "balanceOf",
      "outputs": [
        {
          "internalType": "uint256",
          "name": "",
          "type": "uint256"
        }
      ],
      "stateMutability": "view",
      "type": "function"
    },
    {
      "inputs": [],
      "name": "claimGovernance",
      "outputs": [],
      "stateMutability": "nonpayable",
      "type": "function"
    },
    {
      "inputs": [
        {
          "internalType": "uint256",
          "name": "shares",
          "type": "uint256"
        }
      ],
      "name": "convertToAssets",
      "outputs": [
        {
          "internalType": "uint256",
          "name": "assets",
          "type": "uint256"
        }
      ],
      "stateMutability": "view",
      "type": "function"
    },
    {
      "inputs": [
        {
          "internalType": "uint256",
          "name": "assets",
          "type": "uint256"
        }
      ],
      "name": "convertToShares",
      "outputs": [
        {
          "internalType": "uint256",
          "name": "shares",
          "type": "uint256"
        }
      ],
      "stateMutability": "view",
      "type": "function"
    },
    {
      "inputs": [],
      "name": "decimals",
      "outputs": [
        {
          "internalType": "uint8",
          "name": "",
          "type": "uint8"
        }
      ],
      "stateMutability": "view",
      "type": "function"
    },
    {
      "inputs": [
        {
          "internalType": "address",
          "name": "spender",
          "type": "address"
        },
        {
          "internalType": "uint256",
          "name": "subtractedValue",
          "type": "uint256"
        }
      ],
      "name": "decreaseAllowance",
      "outputs": [
        {
          "internalType": "bool",
          "name": "",
          "type": "bool"
        }
      ],
      "stateMutability": "nonpayable",
      "type": "function"
    },
    {
      "inputs": [
        {
          "internalType": "uint256",
          "name": "assets",
          "type": "uint256"
        },
        {
          "internalType": "address",
          "name": "receiver",
          "type": "address"
        }
      ],
      "name": "deposit",
      "outputs": [
        {
          "internalType": "uint256",
          "name": "",
          "type": "uint256"
        }
      ],
      "stateMutability": "nonpayable",
      "type": "function"
    },
    {
      "inputs": [],
      "name": "governor",
      "outputs": [
        {
          "internalType": "address",
          "name": "",
          "type": "address"
        }
      ],
      "stateMutability": "view",
      "type": "function"
    },
    {
      "inputs": [
        {
          "internalType": "address",
          "name": "spender",
          "type": "address"
        },
        {
          "internalType": "uint256",
          "name": "addedValue",
          "type": "uint256"
        }
      ],
      "name": "increaseAllowance",
      "outputs": [
        {
          "internalType": "bool",
          "name": "",
          "type": "bool"
        }
      ],
      "stateMutability": "nonpayable",
      "type": "function"
    },
    {
      "inputs": [],
      "name": "initialize",
      "outputs": [],
      "stateMutability": "nonpayable",
      "type": "function"
    },
    {
      "inputs": [],
      "name": "isGovernor",
      "outputs": [
        {
          "internalType": "bool",
          "name": "",
          "type": "bool"
        }
      ],
      "stateMutability": "view",
      "type": "function"
    },
    {
      "inputs": [
        {
          "internalType": "address",
          "name": "",
          "type": "address"
        }
      ],
      "name": "maxDeposit",
      "outputs": [
        {
          "internalType": "uint256",
          "name": "",
          "type": "uint256"
        }
      ],
      "stateMutability": "view",
      "type": "function"
    },
    {
      "inputs": [
        {
          "internalType": "address",
          "name": "",
          "type": "address"
        }
      ],
      "name": "maxMint",
      "outputs": [
        {
          "internalType": "uint256",
          "name": "",
          "type": "uint256"
        }
      ],
      "stateMutability": "view",
      "type": "function"
    },
    {
      "inputs": [
        {
          "internalType": "address",
          "name": "owner",
          "type": "address"
        }
      ],
      "name": "maxRedeem",
      "outputs": [
        {
          "internalType": "uint256",
          "name": "",
          "type": "uint256"
        }
      ],
      "stateMutability": "view",
      "type": "function"
    },
    {
      "inputs": [
        {
          "internalType": "address",
          "name": "owner",
          "type": "address"
        }
      ],
      "name": "maxWithdraw",
      "outputs": [
        {
          "internalType": "uint256",
          "name": "",
          "type": "uint256"
        }
      ],
      "stateMutability": "view",
      "type": "function"
    },
    {
      "inputs": [
        {
          "internalType": "uint256",
          "name": "shares",
          "type": "uint256"
        },
        {
          "internalType": "address",
          "name": "receiver",
          "type": "address"
        }
      ],
      "name": "mint",
      "outputs": [
        {
          "internalType": "uint256",
          "name": "",
          "type": "uint256"
        }
      ],
      "stateMutability": "nonpayable",
      "type": "function"
    },
    {
      "inputs": [],
      "name": "name",
      "outputs": [
        {
          "internalType": "string",
          "name": "",
          "type": "string"
        }
      ],
      "stateMutability": "view",
      "type": "function"
    },
    {
      "inputs": [
        {
          "internalType": "uint256",
          "name": "assets",
          "type": "uint256"
        }
      ],
      "name": "previewDeposit",
      "outputs": [
        {
          "internalType": "uint256",
          "name": "",
          "type": "uint256"
        }
      ],
      "stateMutability": "view",
      "type": "function"
    },
    {
      "inputs": [
        {
          "internalType": "uint256",
          "name": "shares",
          "type": "uint256"
        }
      ],
      "name": "previewMint",
      "outputs": [
        {
          "internalType": "uint256",
          "name": "",
          "type": "uint256"
        }
      ],
      "stateMutability": "view",
      "type": "function"
    },
    {
      "inputs": [
        {
          "internalType": "uint256",
          "name": "shares",
          "type": "uint256"
        }
      ],
      "name": "previewRedeem",
      "outputs": [
        {
          "internalType": "uint256",
          "name": "",
          "type": "uint256"
        }
      ],
      "stateMutability": "view",
      "type": "function"
    },
    {
      "inputs": [
        {
          "internalType": "uint256",
          "name": "assets",
          "type": "uint256"
        }
      ],
      "name": "previewWithdraw",
      "outputs": [
        {
          "internalType": "uint256",
          "name": "",
          "type": "uint256"
        }
      ],
      "stateMutability": "view",
      "type": "function"
    },
    {
      "inputs": [
        {
          "internalType": "uint256",
          "name": "shares",
          "type": "uint256"
        },
        {
          "internalType": "address",
          "name": "receiver",
          "type": "address"
        },
        {
          "internalType": "address",
          "name": "owner",
          "type": "address"
        }
      ],
      "name": "redeem",
      "outputs": [
        {
          "internalType": "uint256",
          "name": "",
          "type": "uint256"
        }
      ],
      "stateMutability": "nonpayable",
      "type": "function"
    },
    {
      "inputs": [],
      "name": "symbol",
      "outputs": [
        {
          "internalType": "string",
          "name": "",
          "type": "string"
        }
      ],
      "stateMutability": "view",
      "type": "function"
    },
    {
      "inputs": [],
      "name": "totalAssets",
      "outputs": [
        {
          "internalType": "uint256",
          "name": "",
          "type": "uint256"
        }
      ],
      "stateMutability": "view",
      "type": "function"
    },
    {
      "inputs": [],
      "name": "totalSupply",
      "outputs": [
        {
          "internalType": "uint256",
          "name": "",
          "type": "uint256"
        }
      ],
      "stateMutability": "view",
      "type": "function"
    },
    {
      "inputs": [
        {
          "internalType": "address",
          "name": "recipient",
          "type": "address"
        },
        {
          "internalType": "uint256",
          "name": "amount",
          "type": "uint256"
        }
      ],
      "name": "transfer",
      "outputs": [
        {
          "internalType": "bool",
          "name": "",
          "type": "bool"
        }
      ],
      "stateMutability": "nonpayable",
      "type": "function"
    },
    {
      "inputs": [
        {
          "internalType": "address",
          "name": "sender",
          "type": "address"
        },
        {
          "internalType": "address",
          "name": "recipient",
          "type": "address"
        },
        {
          "internalType": "uint256",
          "name": "amount",
          "type": "uint256"
        }
      ],
      "name": "transferFrom",
      "outputs": [
        {
          "internalType": "bool",
          "name": "",
          "type": "bool"
        }
      ],
      "stateMutability": "nonpayable",
      "type": "function"
    },
    {
      "inputs": [
        {
          "internalType": "address",
          "name": "_newGovernor",
          "type": "address"
        }
      ],
      "name": "transferGovernance",
      "outputs": [],
      "stateMutability": "nonpayable",
      "type": "function"
    },
    {
      "inputs": [
        {
          "internalType": "address",
          "name": "asset_",
          "type": "address"
        },
        {
          "internalType": "uint256",
          "name": "amount_",
          "type": "uint256"
        }
      ],
      "name": "transferToken",
      "outputs": [],
      "stateMutability": "nonpayable",
      "type": "function"
    },
    {
      "inputs": [
        {
          "internalType": "uint256",
          "name": "assets",
          "type": "uint256"
        },
        {
          "internalType": "address",
          "name": "receiver",
          "type": "address"
        },
        {
          "internalType": "address",
          "name": "owner",
          "type": "address"
        }
      ],
      "name": "withdraw",
      "outputs": [
        {
          "internalType": "uint256",
          "name": "",
          "type": "uint256"
        }
      ],
      "stateMutability": "nonpayable",
      "type": "function"
    }
  ],
  "transactionHash": "0xf230c9265d4b5789fc6ecc02e83c2e5448c85919a1a94b752e6c050ca0c177e9",
  "args": [
    "0x2A8e1E676Ec238d8A992307B495b45B3fEAa5e86",
    "Wrapped OUSD",
    "WOUSD"
  ],
  "solcInputHash": "ec2f91978315872d622e1d8393002477",
  "bytecode": "0x60a06040523480156200001157600080fd5b50604051620021b3380380620021b383398101604081905262000034916200023e565b82828281600390805190602001906200004f929190620000e1565b50805162000065906004906020840190620000e1565b50505060601b6001600160601b03191660805262000090336000805160206200219383398151915255565b60008051602062002193833981519152546040516001600160a01b03909116906000907fc7c0c772add429241571afb3805861fb3cfa2af374534088b76cdb4325a87e9a908290a35050506200031b565b828054620000ef90620002c8565b90600052602060002090601f0160209004810192826200011357600085556200015e565b82601f106200012e57805160ff19168380011785556200015e565b828001600101855582156200015e579182015b828111156200015e57825182559160200191906001019062000141565b506200016c92915062000170565b5090565b5b808211156200016c576000815560010162000171565b600082601f8301126200019957600080fd5b81516001600160401b0380821115620001b657620001b662000305565b604051601f8301601f19908116603f01168101908282118183101715620001e157620001e162000305565b81604052838152602092508683858801011115620001fe57600080fd5b600091505b8382101562000222578582018301518183018401529082019062000203565b83821115620002345760008385830101525b9695505050505050565b6000806000606084860312156200025457600080fd5b83516001600160a01b03811681146200026c57600080fd5b60208501519093506001600160401b03808211156200028a57600080fd5b620002988783880162000187565b93506040860151915080821115620002af57600080fd5b50620002be8682870162000187565b9150509250925092565b600181811c90821680620002dd57607f821691505b60208210811415620002ff57634e487b7160e01b600052602260045260246000fd5b50919050565b634e487b7160e01b600052604160045260246000fd5b60805160601c611e1a62000379600039600081816102f6015281816104ec015281816105b7015281816106fe0152818161094001528181610a9301528181610b2e01528181610d0601528181610e300152610edf0152611e1a6000f3fe608060405234801561001057600080fd5b50600436106101fb5760003560e01c806370a082311161011a578063ba087652116100ad578063ce96cb771161007c578063ce96cb771461044f578063d38bfff414610462578063d905777e14610475578063dd62ed3e14610488578063ef8b30f7146104c157600080fd5b8063ba08765214610421578063c63d75b61461032d578063c6e6f59214610434578063c7af33521461044757600080fd5b8063a457c2d7116100e9578063a457c2d7146103d5578063a9059cbb146103e8578063b3d7f6b9146103fb578063b460af941461040e57600080fd5b806370a08231146103705780638129fc1c1461039957806394bf804d146103a157806395d89b41146103b457600080fd5b806323b872dd11610192578063402d267d11610161578063402d267d1461032d5780634cdad506146103425780635d36b190146103555780636e553f651461035d57600080fd5b806323b872dd146102d2578063313ce567146102e557806338d52e0f146102f4578063395093511461031a57600080fd5b80630a28a477116101ce5780630a28a477146102825780630c340a24146102955780631072cbea146102b557806318160ddd146102ca57600080fd5b806301e1d1141461020057806306fdde031461021b57806307a2d13a1461024c578063095ea7b31461025f575b600080fd5b6102086104d4565b6040519081526020015b60405180910390f35b60408051808201909152600c81526b15dc985c1c19590813d554d160a21b60208201525b6040516102129190611bba565b61020861025a366004611aea565b610573565b61027261026d366004611a9e565b61066c565b6040519015158152602001610212565b610208610290366004611aea565b610683565b61029d6106b7565b6040516001600160a01b039091168152602001610212565b6102c86102c3366004611a9e565b6106cf565b005b600254610208565b6102726102e0366004611a62565b610794565b60405160128152602001610212565b7f000000000000000000000000000000000000000000000000000000000000000061029d565b610272610328366004611a9e565b61083e565b61020861033b366004611a14565b5060001990565b610208610350366004611aea565b61087a565b6102c8610885565b61020861036b366004611b1c565b61092b565b61020861037e366004611a14565b6001600160a01b031660009081526020819052604090205490565b6102c86109cf565b6102086103af366004611b1c565b610b19565b60408051808201909152600581526415d3d554d160da1b602082015261023f565b6102726103e3366004611a9e565b610bad565b6102726103f6366004611a9e565b610c46565b610208610409366004611aea565b610c53565b61020861041c366004611b3f565b610c6b565b61020861042f366004611b3f565b610d95565b610208610442366004611aea565b610eae565b610272610f80565b61020861045d366004611a14565b610fb1565b6102c8610470366004611a14565b610fd3565b610208610483366004611a14565b611077565b610208610496366004611a2f565b6001600160a01b03918216600090815260016020908152604080832093909416825291909152205490565b6102086104cf366004611aea565b611095565b6040516370a0823160e01b81523060048201526000907f00000000000000000000000000000000000000000000000000000000000000006001600160a01b0316906370a082319060240160206040518083038186803b15801561053657600080fd5b505afa15801561054a573d6000803e3d6000fd5b505050506040513d601f19601f8201168201806040525081019061056e9190611b03565b905090565b60008061057f60025490565b905080156105a957806105906104d4565b61059a9085611d4c565b6105a49190611c3c565b610665565b6105b56012600a611ca1565b7f00000000000000000000000000000000000000000000000000000000000000006001600160a01b031663313ce5676040518163ffffffff1660e01b815260040160206040518083038186803b15801561060e57600080fd5b505afa158015610622573d6000803e3d6000fd5b505050506040513d601f19601f820116820180604052508101906106469190611b7b565b61065190600a611ca1565b61065b9085611d4c565b6106659190611c3c565b9392505050565b60006106793384846110a0565b5060015b92915050565b60008061068f83610eae565b90508261069b82610573565b106106a75760006106aa565b60015b6106659060ff1682611c24565b600061056e600080516020611dc58339815191525490565b6106d7610f80565b6106fc5760405162461bcd60e51b81526004016106f390611bed565b60405180910390fd5b7f00000000000000000000000000000000000000000000000000000000000000006001600160a01b0316826001600160a01b031614156107745760405162461bcd60e51b815260206004820152601360248201527210d85b9b9bdd0818dbdb1b1958dd0813d554d1606a1b60448201526064016106f3565b61079061077f6106b7565b6001600160a01b03841690836111c4565b5050565b60006107a184848461122c565b6001600160a01b0384166000908152600160209081526040808320338452909152902054828110156108265760405162461bcd60e51b815260206004820152602860248201527f45524332303a207472616e7366657220616d6f756e74206578636565647320616044820152676c6c6f77616e636560c01b60648201526084016106f3565b61083385338584036110a0565b506001949350505050565b3360008181526001602090815260408083206001600160a01b03871684529091528120549091610679918590610875908690611c24565b6110a0565b600061067d82610573565b7f44c4d30b2eaad5130ad70c3ba6972730566f3e6359ab83e800d905c61b1c51db546001600160a01b0316336001600160a01b0316146109205760405162461bcd60e51b815260206004820152603060248201527f4f6e6c79207468652070656e64696e6720476f7665726e6f722063616e20636f60448201526f6d706c6574652074686520636c61696d60801b60648201526084016106f3565b610929336113fc565b565b600033600061093985611095565b90506109677f00000000000000000000000000000000000000000000000000000000000000008330886114bd565b61097184826114f5565b836001600160a01b0316826001600160a01b03167fdcbc1c05240f31ff3ad067ef1ee35ce4997762752e3a095284754544f4c709d787846040516109bf929190918252602082015260400190565b60405180910390a3949350505050565b6109d7610f80565b6109f35760405162461bcd60e51b81526004016106f390611bed565b600554610100900460ff1680610a0c575060055460ff16155b610a6f5760405162461bcd60e51b815260206004820152602e60248201527f496e697469616c697a61626c653a20636f6e747261637420697320616c72656160448201526d191e481a5b9a5d1a585b1a5e995960921b60648201526084016106f3565b600554610100900460ff16158015610a91576005805461ffff19166101011790555b7f00000000000000000000000000000000000000000000000000000000000000006001600160a01b031663f51b0fd46040518163ffffffff1660e01b8152600401600060405180830381600087803b158015610aec57600080fd5b505af1158015610b00573d6000803e3d6000fd5b505050508015610b16576005805461ff00191690555b50565b6000336000610b2785610c53565b9050610b557f00000000000000000000000000000000000000000000000000000000000000008330846114bd565b610b5f84866114f5565b836001600160a01b0316826001600160a01b03167fdcbc1c05240f31ff3ad067ef1ee35ce4997762752e3a095284754544f4c709d783886040516109bf929190918252602082015260400190565b3360009081526001602090815260408083206001600160a01b038616845290915281205482811015610c2f5760405162461bcd60e51b815260206004820152602560248201527f45524332303a2064656372656173656420616c6c6f77616e63652062656c6f77604482015264207a65726f60d81b60648201526084016106f3565b610c3c33858584036110a0565b5060019392505050565b600061067933848461122c565b600080610c5f83610573565b90508261069b82610eae565b6000610c7682610fb1565b841115610cc55760405162461bcd60e51b815260206004820152601f60248201527f455243343632363a207769746864726177206d6f7265207468656e206d61780060448201526064016106f3565b336000610cd186610683565b9050836001600160a01b0316826001600160a01b031614610cf757610cf78483836115d4565b610d018482611660565b610d2c7f000000000000000000000000000000000000000000000000000000000000000086886111c4565b836001600160a01b0316856001600160a01b0316836001600160a01b03167ffbde797d201c681b91056529119e0b02407c7bb96a4a2c75c01fc9667232c8db8985604051610d84929190918252602082015260400190565b60405180910390a495945050505050565b6000610da082611077565b841115610def5760405162461bcd60e51b815260206004820152601d60248201527f455243343632363a2072656465656d206d6f7265207468656e206d617800000060448201526064016106f3565b336000610dfb8661087a565b9050836001600160a01b0316826001600160a01b031614610e2157610e218483886115d4565b610e2b8487611660565b610e567f000000000000000000000000000000000000000000000000000000000000000086836111c4565b836001600160a01b0316856001600160a01b0316836001600160a01b03167ffbde797d201c681b91056529119e0b02407c7bb96a4a2c75c01fc9667232c8db848a604051610d84929190918252602082015260400190565b600080610eba60025490565b9050821580610ec7575080155b610edd57610ed36104d4565b61059a8285611d4c565b7f00000000000000000000000000000000000000000000000000000000000000006001600160a01b031663313ce5676040518163ffffffff1660e01b815260040160206040518083038186803b158015610f3657600080fd5b505afa158015610f4a573d6000803e3d6000fd5b505050506040513d601f19601f82011682018060405250810190610f6e9190611b7b565b610f7990600a611ca1565b6012610646565b6000610f98600080516020611dc58339815191525490565b6001600160a01b0316336001600160a01b031614905090565b6001600160a01b03811660009081526020819052604081205461067d90610573565b610fdb610f80565b610ff75760405162461bcd60e51b81526004016106f390611bed565b61101f817f44c4d30b2eaad5130ad70c3ba6972730566f3e6359ab83e800d905c61b1c51db55565b806001600160a01b031661103f600080516020611dc58339815191525490565b6001600160a01b03167fa39cc5eb22d0f34d8beaefee8a3f17cc229c1a1d1ef87a5ad47313487b1c4f0d60405160405180910390a350565b6001600160a01b03811660009081526020819052604081205461067d565b600061067d82610eae565b6001600160a01b0383166111025760405162461bcd60e51b8152602060048201526024808201527f45524332303a20617070726f76652066726f6d20746865207a65726f206164646044820152637265737360e01b60648201526084016106f3565b6001600160a01b0382166111635760405162461bcd60e51b815260206004820152602260248201527f45524332303a20617070726f766520746f20746865207a65726f206164647265604482015261737360f01b60648201526084016106f3565b6001600160a01b0383811660008181526001602090815260408083209487168084529482529182902085905590518481527f8c5be1e5ebec7d5bd14f71427d1e84f3dd0314c0f7b2291e5b200ac8c7c3b925910160405180910390a3505050565b6040516001600160a01b03831660248201526044810182905261122790849063a9059cbb60e01b906064015b60408051601f198184030181529190526020810180516001600160e01b03166001600160e01b0319909316929092179091526117ae565b505050565b6001600160a01b0383166112905760405162461bcd60e51b815260206004820152602560248201527f45524332303a207472616e736665722066726f6d20746865207a65726f206164604482015264647265737360d81b60648201526084016106f3565b6001600160a01b0382166112f25760405162461bcd60e51b815260206004820152602360248201527f45524332303a207472616e7366657220746f20746865207a65726f206164647260448201526265737360e81b60648201526084016106f3565b6001600160a01b0383166000908152602081905260409020548181101561136a5760405162461bcd60e51b815260206004820152602660248201527f45524332303a207472616e7366657220616d6f756e7420657863656564732062604482015265616c616e636560d01b60648201526084016106f3565b6001600160a01b038085166000908152602081905260408082208585039055918516815290812080548492906113a1908490611c24565b92505081905550826001600160a01b0316846001600160a01b03167fddf252ad1be2c89b69c2b068fc378daa952ba7f163c4a11628f55a4df523b3ef846040516113ed91815260200190565b60405180910390a35b50505050565b6001600160a01b0381166114525760405162461bcd60e51b815260206004820152601a60248201527f4e657720476f7665726e6f72206973206164647265737328302900000000000060448201526064016106f3565b806001600160a01b0316611472600080516020611dc58339815191525490565b6001600160a01b03167fc7c0c772add429241571afb3805861fb3cfa2af374534088b76cdb4325a87e9a60405160405180910390a3610b1681600080516020611dc583398151915255565b6040516001600160a01b03808516602483015283166044820152606481018290526113f69085906323b872dd60e01b906084016111f0565b6001600160a01b03821661154b5760405162461bcd60e51b815260206004820152601f60248201527f45524332303a206d696e7420746f20746865207a65726f20616464726573730060448201526064016106f3565b806002600082825461155d9190611c24565b90915550506001600160a01b0382166000908152602081905260408120805483929061158a908490611c24565b90915550506040518181526001600160a01b038316906000907fddf252ad1be2c89b69c2b068fc378daa952ba7f163c4a11628f55a4df523b3ef9060200160405180910390a35050565b6001600160a01b0383811660009081526001602090815260408083209386168352929052205460001981146113f657818110156116535760405162461bcd60e51b815260206004820152601d60248201527f45524332303a20696e73756666696369656e7420616c6c6f77616e636500000060448201526064016106f3565b6113f684848484036110a0565b6001600160a01b0382166116c05760405162461bcd60e51b815260206004820152602160248201527f45524332303a206275726e2066726f6d20746865207a65726f206164647265736044820152607360f81b60648201526084016106f3565b6001600160a01b038216600090815260208190526040902054818110156117345760405162461bcd60e51b815260206004820152602260248201527f45524332303a206275726e20616d6f756e7420657863656564732062616c616e604482015261636560f01b60648201526084016106f3565b6001600160a01b0383166000908152602081905260408120838303905560028054849290611763908490611d6b565b90915550506040518281526000906001600160a01b038516907fddf252ad1be2c89b69c2b068fc378daa952ba7f163c4a11628f55a4df523b3ef9060200160405180910390a3505050565b6000611803826040518060400160405280602081526020017f5361666545524332303a206c6f772d6c6576656c2063616c6c206661696c6564815250856001600160a01b03166118809092919063ffffffff16565b80519091501561122757808060200190518101906118219190611ac8565b6112275760405162461bcd60e51b815260206004820152602a60248201527f5361666545524332303a204552433230206f7065726174696f6e20646964206e6044820152691bdd081cdd58d8d9595960b21b60648201526084016106f3565b606061188f8484600085611897565b949350505050565b6060824710156118f85760405162461bcd60e51b815260206004820152602660248201527f416464726573733a20696e73756666696369656e742062616c616e636520666f6044820152651c8818d85b1b60d21b60648201526084016106f3565b843b6119465760405162461bcd60e51b815260206004820152601d60248201527f416464726573733a2063616c6c20746f206e6f6e2d636f6e747261637400000060448201526064016106f3565b600080866001600160a01b031685876040516119629190611b9e565b60006040518083038185875af1925050503d806000811461199f576040519150601f19603f3d011682016040523d82523d6000602084013e6119a4565b606091505b50915091506119b48282866119bf565b979650505050505050565b606083156119ce575081610665565b8251156119de5782518084602001fd5b8160405162461bcd60e51b81526004016106f39190611bba565b80356001600160a01b0381168114611a0f57600080fd5b919050565b600060208284031215611a2657600080fd5b610665826119f8565b60008060408385031215611a4257600080fd5b611a4b836119f8565b9150611a59602084016119f8565b90509250929050565b600080600060608486031215611a7757600080fd5b611a80846119f8565b9250611a8e602085016119f8565b9150604084013590509250925092565b60008060408385031215611ab157600080fd5b611aba836119f8565b946020939093013593505050565b600060208284031215611ada57600080fd5b8151801515811461066557600080fd5b600060208284031215611afc57600080fd5b5035919050565b600060208284031215611b1557600080fd5b5051919050565b60008060408385031215611b2f57600080fd5b82359150611a59602084016119f8565b600080600060608486031215611b5457600080fd5b83359250611b64602085016119f8565b9150611b72604085016119f8565b90509250925092565b600060208284031215611b8d57600080fd5b815160ff8116811461066557600080fd5b60008251611bb0818460208701611d82565b9190910192915050565b6020815260008251806020840152611bd9816040850160208701611d82565b601f01601f19169190910160400192915050565b6020808252601a908201527f43616c6c6572206973206e6f742074686520476f7665726e6f72000000000000604082015260600190565b60008219821115611c3757611c37611dae565b500190565b600082611c5957634e487b7160e01b600052601260045260246000fd5b500490565b600181815b80851115611c99578160001904821115611c7f57611c7f611dae565b80851615611c8c57918102915b93841c9390800290611c63565b509250929050565b600061066560ff841683600082611cba5750600161067d565b81611cc75750600061067d565b8160018114611cdd5760028114611ce757611d03565b600191505061067d565b60ff841115611cf857611cf8611dae565b50506001821b61067d565b5060208310610133831016604e8410600b8410161715611d26575081810a61067d565b611d308383611c5e565b8060001904821115611d4457611d44611dae565b029392505050565b6000816000190483118215151615611d6657611d66611dae565b500290565b600082821015611d7d57611d7d611dae565b500390565b60005b83811015611d9d578181015183820152602001611d85565b838111156113f65750506000910152565b634e487b7160e01b600052601160045260246000fdfe7bea13895fa79d2831e0a9e28edede30099005a50d652d8957cf8a607ee6ca4aa264697066735822122033899bdeae308a9a1be3c026882b4b53848dc211b06ffda84c2c588f29879fac64736f6c634300080700337bea13895fa79d2831e0a9e28edede30099005a50d652d8957cf8a607ee6ca4a",
  "devdoc": {
    "kind": "dev",
    "methods": {
      "allowance(address,address)": {
        "details": "See {IERC20-allowance}."
      },
      "approve(address,uint256)": {
        "details": "See {IERC20-approve}. Requirements: - `spender` cannot be the zero address."
      },
      "asset()": {
        "details": "See {IERC4262-asset} "
      },
      "balanceOf(address)": {
        "details": "See {IERC20-balanceOf}."
      },
      "claimGovernance()": {
        "details": "Claim Governance of the contract to a new account (`newGovernor`). Can only be called by the new Governor."
      },
      "convertToAssets(uint256)": {
        "details": "See {IERC4262-convertToAssets} "
      },
      "convertToShares(uint256)": {
        "details": "See {IERC4262-convertToShares} Will revert if asserts > 0, totalSupply > 0 and totalAssets = 0. That corresponds to a case where any asset would represent an infinite amout of shares."
      },
      "decimals()": {
        "details": "Returns the number of decimals used to get its user representation. For example, if `decimals` equals `2`, a balance of `505` tokens should be displayed to a user as `5.05` (`505 / 10 ** 2`). Tokens usually opt for a value of 18, imitating the relationship between Ether and Wei. This is the value {ERC20} uses, unless this function is overridden; NOTE: This information is only used for _display_ purposes: it in no way affects any of the arithmetic of the contract, including {IERC20-balanceOf} and {IERC20-transfer}."
      },
      "decreaseAllowance(address,uint256)": {
        "details": "Atomically decreases the allowance granted to `spender` by the caller. This is an alternative to {approve} that can be used as a mitigation for problems described in {IERC20-approve}. Emits an {Approval} event indicating the updated allowance. Requirements: - `spender` cannot be the zero address. - `spender` must have allowance for the caller of at least `subtractedValue`."
      },
      "deposit(uint256,address)": {
        "details": "See {IERC4262-deposit} "
      },
      "governor()": {
        "details": "Returns the address of the current Governor."
      },
      "increaseAllowance(address,uint256)": {
        "details": "Atomically increases the allowance granted to `spender` by the caller. This is an alternative to {approve} that can be used as a mitigation for problems described in {IERC20-approve}. Emits an {Approval} event indicating the updated allowance. Requirements: - `spender` cannot be the zero address."
      },
      "isGovernor()": {
        "details": "Returns true if the caller is the current Governor."
      },
      "maxDeposit(address)": {
        "details": "See {IERC4262-maxDeposit} "
      },
      "maxMint(address)": {
        "details": "See {IERC4262-maxMint} "
      },
      "maxRedeem(address)": {
        "details": "See {IERC4262-maxRedeem} "
      },
      "maxWithdraw(address)": {
        "details": "See {IERC4262-maxWithdraw} "
      },
      "mint(uint256,address)": {
        "details": "See {IERC4262-mint} "
      },
      "name()": {
        "details": "Returns the name of the token."
      },
      "previewDeposit(uint256)": {
        "details": "See {IERC4262-previewDeposit} "
      },
      "previewMint(uint256)": {
        "details": "See {IERC4262-previewMint} "
      },
      "previewRedeem(uint256)": {
        "details": "See {IERC4262-previewRedeem} "
      },
      "previewWithdraw(uint256)": {
        "details": "See {IERC4262-previewWithdraw} "
      },
      "redeem(uint256,address,address)": {
        "details": "See {IERC4262-redeem} "
      },
      "symbol()": {
        "details": "Returns the symbol of the token, usually a shorter version of the name."
      },
      "totalAssets()": {
        "details": "See {IERC4262-totalAssets} "
      },
      "totalSupply()": {
        "details": "See {IERC20-totalSupply}."
      },
      "transfer(address,uint256)": {
        "details": "See {IERC20-transfer}. Requirements: - `recipient` cannot be the zero address. - the caller must have a balance of at least `amount`."
      },
      "transferFrom(address,address,uint256)": {
        "details": "See {IERC20-transferFrom}. Emits an {Approval} event indicating the updated allowance. This is not required by the EIP. See the note at the beginning of {ERC20}. Requirements: - `sender` and `recipient` cannot be the zero address. - `sender` must have a balance of at least `amount`. - the caller must have allowance for ``sender``'s tokens of at least `amount`."
      },
      "transferGovernance(address)": {
        "details": "Transfers Governance of the contract to a new account (`newGovernor`). Can only be called by the current Governor. Must be claimed for this to complete",
        "params": {
          "_newGovernor": "Address of the new Governor"
        }
      },
      "transferToken(address,uint256)": {
        "params": {
          "amount_": "Amount of the asset to transfer",
          "asset_": "Address for the asset"
        }
      },
      "withdraw(uint256,address,address)": {
        "details": "See {IERC4262-withdraw} "
      }
    },
    "version": 1
  },
  "userdoc": {
    "kind": "user",
    "methods": {
      "initialize()": {
        "notice": "Enable OUSD rebasing for this contract"
      },
      "transferToken(address,uint256)": {
        "notice": "Transfer token to governor. Intended for recovering tokens stuck in      contract, i.e. mistaken sends. Cannot transfer OUSD"
      }
    },
    "version": 1
  },
  "storageLayout": {
    "storage": [
      {
        "astId": 15,
        "contract": "contracts/token/WrappedOusd.sol:WrappedOusd",
        "label": "_balances",
        "offset": 0,
        "slot": "0",
        "type": "t_mapping(t_address,t_uint256)"
      },
      {
        "astId": 21,
        "contract": "contracts/token/WrappedOusd.sol:WrappedOusd",
        "label": "_allowances",
        "offset": 0,
        "slot": "1",
        "type": "t_mapping(t_address,t_mapping(t_address,t_uint256))"
      },
      {
        "astId": 23,
        "contract": "contracts/token/WrappedOusd.sol:WrappedOusd",
        "label": "_totalSupply",
        "offset": 0,
        "slot": "2",
        "type": "t_uint256"
      },
      {
        "astId": 25,
        "contract": "contracts/token/WrappedOusd.sol:WrappedOusd",
        "label": "_name",
        "offset": 0,
        "slot": "3",
        "type": "t_string_storage"
      },
      {
        "astId": 27,
        "contract": "contracts/token/WrappedOusd.sol:WrappedOusd",
        "label": "_symbol",
        "offset": 0,
        "slot": "4",
        "type": "t_string_storage"
      },
      {
        "astId": 19108,
        "contract": "contracts/token/WrappedOusd.sol:WrappedOusd",
        "label": "initialized",
        "offset": 0,
        "slot": "5",
        "type": "t_bool"
      },
      {
        "astId": 19111,
        "contract": "contracts/token/WrappedOusd.sol:WrappedOusd",
        "label": "initializing",
        "offset": 1,
        "slot": "5",
        "type": "t_bool"
      },
      {
        "astId": 19151,
        "contract": "contracts/token/WrappedOusd.sol:WrappedOusd",
        "label": "______gap",
        "offset": 0,
        "slot": "6",
        "type": "t_array(t_uint256)50_storage"
      }
    ],
    "types": {
      "t_address": {
        "encoding": "inplace",
        "label": "address",
        "numberOfBytes": "20"
      },
      "t_array(t_uint256)50_storage": {
        "base": "t_uint256",
        "encoding": "inplace",
        "label": "uint256[50]",
        "numberOfBytes": "1600"
      },
      "t_bool": {
        "encoding": "inplace",
        "label": "bool",
        "numberOfBytes": "1"
      },
      "t_mapping(t_address,t_mapping(t_address,t_uint256))": {
        "encoding": "mapping",
        "key": "t_address",
        "label": "mapping(address => mapping(address => uint256))",
        "numberOfBytes": "32",
        "value": "t_mapping(t_address,t_uint256)"
      },
      "t_mapping(t_address,t_uint256)": {
        "encoding": "mapping",
        "key": "t_address",
        "label": "mapping(address => uint256)",
        "numberOfBytes": "32",
        "value": "t_uint256"
      },
      "t_string_storage": {
        "encoding": "bytes",
        "label": "string",
        "numberOfBytes": "32"
      },
      "t_uint256": {
        "encoding": "inplace",
        "label": "uint256",
        "numberOfBytes": "32"
      }
    }
  }
}