{
  "address": "0x8bb67820E8aC1a775DA25E50391718C1457d07ac",
  "abi": [
    {
      "inputs": [
        {
          "components": [
            {
              "internalType": "address",
              "name": "platformAddress",
              "type": "address"
            },
            {
              "internalType": "address",
              "name": "vaultAddress",
              "type": "address"
            }
          ],
          "internalType": "struct InitializableAbstractStrategy.BaseStrategyConfig",
          "name": "_stratConfig",
          "type": "tuple"
        },
        {
          "internalType": "address",
          "name": "_wethAddress",
          "type": "address"
        },
        {
          "internalType": "address",
          "name": "_oethbAddress",
          "type": "address"
        },
        {
          "internalType": "address",
          "name": "_swapRouter",
          "type": "address"
        },
        {
          "internalType": "address",
          "name": "_nonfungiblePositionManager",
          "type": "address"
        },
        {
          "internalType": "address",
          "name": "_clPool",
          "type": "address"
        },
        {
          "internalType": "address",
          "name": "_clGauge",
          "type": "address"
        },
        {
          "internalType": "address",
          "name": "_sugarHelper",
          "type": "address"
        },
        {
          "internalType": "int24",
          "name": "_lowerBoundingTick",
          "type": "int24"
        },
        {
          "internalType": "int24",
          "name": "_upperBoundingTick",
          "type": "int24"
        },
        {
          "internalType": "int24",
          "name": "_tickClosestToParity",
          "type": "int24"
        }
      ],
      "stateMutability": "nonpayable",
      "type": "constructor"
    },
    {
      "inputs": [
        {
          "internalType": "uint256",
          "name": "wethBalance",
          "type": "uint256"
        },
        {
          "internalType": "uint256",
          "name": "requiredWeth",
          "type": "uint256"
        }
      ],
      "name": "NotEnoughWethForSwap",
      "type": "error"
    },
    {
      "inputs": [
        {
          "internalType": "uint256",
          "name": "wethBalance",
          "type": "uint256"
        },
        {
          "internalType": "uint256",
          "name": "requiredWeth",
          "type": "uint256"
        }
      ],
      "name": "NotEnoughWethLiquidity",
      "type": "error"
    },
    {
      "inputs": [
        {
          "internalType": "int24",
          "name": "currentTick",
          "type": "int24"
        }
      ],
      "name": "OutsideExpectedTickRange",
      "type": "error"
    },
    {
      "inputs": [
        {
          "internalType": "uint256",
          "name": "currentPoolWethShare",
          "type": "uint256"
        },
        {
          "internalType": "uint256",
          "name": "allowedWethShareStart",
          "type": "uint256"
        },
        {
          "internalType": "uint256",
          "name": "allowedWethShareEnd",
          "type": "uint256"
        }
      ],
      "name": "PoolRebalanceOutOfBounds",
      "type": "error"
    },
    {
      "anonymous": false,
      "inputs": [
        {
          "indexed": true,
          "internalType": "address",
          "name": "_asset",
          "type": "address"
        },
        {
          "indexed": false,
          "internalType": "address",
          "name": "_pToken",
          "type": "address"
        },
        {
          "indexed": false,
          "internalType": "uint256",
          "name": "_amount",
          "type": "uint256"
        }
      ],
      "name": "Deposit",
      "type": "event"
    },
    {
      "anonymous": false,
      "inputs": [
        {
          "indexed": true,
          "internalType": "address",
          "name": "previousGovernor",
          "type": "address"
        },
        {
          "indexed": true,
          "internalType": "address",
          "name": "newGovernor",
          "type": "address"
        }
      ],
      "name": "GovernorshipTransferred",
      "type": "event"
    },
    {
      "anonymous": false,
      "inputs": [
        {
          "indexed": false,
          "internalType": "address",
          "name": "_oldHarvesterAddress",
          "type": "address"
        },
        {
          "indexed": false,
          "internalType": "address",
          "name": "_newHarvesterAddress",
          "type": "address"
        }
      ],
      "name": "HarvesterAddressesUpdated",
      "type": "event"
    },
    {
      "anonymous": false,
      "inputs": [
        {
          "indexed": false,
          "internalType": "uint256",
          "name": "wethAmountDesired",
          "type": "uint256"
        },
        {
          "indexed": false,
          "internalType": "uint256",
          "name": "oethbAmountDesired",
          "type": "uint256"
        },
        {
          "indexed": false,
          "internalType": "uint256",
          "name": "wethAmountSupplied",
          "type": "uint256"
        },
        {
          "indexed": false,
          "internalType": "uint256",
          "name": "oethbAmountSupplied",
          "type": "uint256"
        },
        {
          "indexed": false,
          "internalType": "uint256",
          "name": "tokenId",
          "type": "uint256"
        },
        {
          "indexed": false,
          "internalType": "uint256",
          "name": "underlyingAssets",
          "type": "uint256"
        }
      ],
      "name": "LiquidityAdded",
      "type": "event"
    },
    {
      "anonymous": false,
      "inputs": [
        {
          "indexed": false,
          "internalType": "uint256",
          "name": "withdrawLiquidityShare",
          "type": "uint256"
        },
        {
          "indexed": false,
          "internalType": "uint256",
          "name": "removedWETHAmount",
          "type": "uint256"
        },
        {
          "indexed": false,
          "internalType": "uint256",
          "name": "removedOETHbAmount",
          "type": "uint256"
        },
        {
          "indexed": false,
          "internalType": "uint256",
          "name": "wethAmountCollected",
          "type": "uint256"
        },
        {
          "indexed": false,
          "internalType": "uint256",
          "name": "oethbAmountCollected",
          "type": "uint256"
        },
        {
          "indexed": false,
          "internalType": "uint256",
          "name": "underlyingAssets",
          "type": "uint256"
        }
      ],
      "name": "LiquidityRemoved",
      "type": "event"
    },
    {
      "anonymous": false,
      "inputs": [
        {
          "indexed": true,
          "internalType": "address",
          "name": "_asset",
          "type": "address"
        },
        {
          "indexed": false,
          "internalType": "address",
          "name": "_pToken",
          "type": "address"
        }
      ],
      "name": "PTokenAdded",
      "type": "event"
    },
    {
      "anonymous": false,
      "inputs": [
        {
          "indexed": true,
          "internalType": "address",
          "name": "_asset",
          "type": "address"
        },
        {
          "indexed": false,
          "internalType": "address",
          "name": "_pToken",
          "type": "address"
        }
      ],
      "name": "PTokenRemoved",
      "type": "event"
    },
    {
      "anonymous": false,
      "inputs": [
        {
          "indexed": true,
          "internalType": "address",
          "name": "previousGovernor",
          "type": "address"
        },
        {
          "indexed": true,
          "internalType": "address",
          "name": "newGovernor",
          "type": "address"
        }
      ],
      "name": "PendingGovernorshipTransfer",
      "type": "event"
    },
    {
      "anonymous": false,
      "inputs": [
        {
          "indexed": false,
          "internalType": "uint256",
          "name": "currentPoolWethShare",
          "type": "uint256"
        }
      ],
      "name": "PoolRebalanced",
      "type": "event"
    },
    {
      "anonymous": false,
      "inputs": [
        {
          "indexed": false,
          "internalType": "uint256",
          "name": "allowedWethShareStart",
          "type": "uint256"
        },
        {
          "indexed": false,
          "internalType": "uint256",
          "name": "allowedWethShareEnd",
          "type": "uint256"
        }
      ],
      "name": "PoolWethShareIntervalUpdated",
      "type": "event"
    },
    {
      "anonymous": false,
      "inputs": [
        {
          "indexed": false,
          "internalType": "address[]",
          "name": "_oldAddresses",
          "type": "address[]"
        },
        {
          "indexed": false,
          "internalType": "address[]",
          "name": "_newAddresses",
          "type": "address[]"
        }
      ],
      "name": "RewardTokenAddressesUpdated",
      "type": "event"
    },
    {
      "anonymous": false,
      "inputs": [
        {
          "indexed": false,
          "internalType": "address",
          "name": "recipient",
          "type": "address"
        },
        {
          "indexed": false,
          "internalType": "address",
          "name": "rewardToken",
          "type": "address"
        },
        {
          "indexed": false,
          "internalType": "uint256",
          "name": "amount",
          "type": "uint256"
        }
      ],
      "name": "RewardTokenCollected",
      "type": "event"
    },
    {
      "anonymous": false,
      "inputs": [
        {
          "indexed": false,
          "internalType": "uint256",
          "name": "underlyingAssets",
          "type": "uint256"
        }
      ],
      "name": "UnderlyingAssetsUpdated",
      "type": "event"
    },
    {
      "anonymous": false,
      "inputs": [
        {
          "indexed": true,
          "internalType": "address",
          "name": "_asset",
          "type": "address"
        },
        {
          "indexed": false,
          "internalType": "address",
          "name": "_pToken",
          "type": "address"
        },
        {
          "indexed": false,
          "internalType": "uint256",
          "name": "_amount",
          "type": "uint256"
        }
      ],
      "name": "Withdrawal",
      "type": "event"
    },
    {
      "inputs": [],
      "name": "OETHb",
      "outputs": [
        {
          "internalType": "address",
          "name": "",
          "type": "address"
        }
      ],
      "stateMutability": "view",
      "type": "function"
    },
    {
      "inputs": [],
      "name": "SOLVENCY_THRESHOLD",
      "outputs": [
        {
          "internalType": "uint256",
          "name": "",
          "type": "uint256"
        }
      ],
      "stateMutability": "view",
      "type": "function"
    },
    {
      "inputs": [],
      "name": "WETH",
      "outputs": [
        {
          "internalType": "address",
          "name": "",
          "type": "address"
        }
      ],
      "stateMutability": "view",
      "type": "function"
    },
    {
      "inputs": [],
      "name": "allowedWethShareEnd",
      "outputs": [
        {
          "internalType": "uint256",
          "name": "",
          "type": "uint256"
        }
      ],
      "stateMutability": "view",
      "type": "function"
    },
    {
      "inputs": [],
      "name": "allowedWethShareStart",
      "outputs": [
        {
          "internalType": "uint256",
          "name": "",
          "type": "uint256"
        }
      ],
      "stateMutability": "view",
      "type": "function"
    },
    {
      "inputs": [
        {
          "internalType": "address",
          "name": "",
          "type": "address"
        }
      ],
      "name": "assetToPToken",
      "outputs": [
        {
          "internalType": "address",
          "name": "",
          "type": "address"
        }
      ],
      "stateMutability": "view",
      "type": "function"
    },
    {
      "inputs": [
        {
          "internalType": "address",
          "name": "_asset",
          "type": "address"
        }
      ],
      "name": "checkBalance",
      "outputs": [
        {
          "internalType": "uint256",
          "name": "",
          "type": "uint256"
        }
      ],
      "stateMutability": "view",
      "type": "function"
    },
    {
      "inputs": [],
      "name": "clGauge",
      "outputs": [
        {
          "internalType": "contract ICLGauge",
          "name": "",
          "type": "address"
        }
      ],
      "stateMutability": "view",
      "type": "function"
    },
    {
      "inputs": [],
      "name": "clPool",
      "outputs": [
        {
          "internalType": "contract ICLPool",
          "name": "",
          "type": "address"
        }
      ],
      "stateMutability": "view",
      "type": "function"
    },
    {
      "inputs": [],
      "name": "claimGovernance",
      "outputs": [],
      "stateMutability": "nonpayable",
      "type": "function"
    },
    {
      "inputs": [],
      "name": "collectRewardTokens",
      "outputs": [],
      "stateMutability": "nonpayable",
      "type": "function"
    },
    {
      "inputs": [
        {
          "internalType": "address",
          "name": "_asset",
          "type": "address"
        },
        {
          "internalType": "uint256",
          "name": "_amount",
          "type": "uint256"
        }
      ],
      "name": "deposit",
      "outputs": [],
      "stateMutability": "nonpayable",
      "type": "function"
    },
    {
      "inputs": [],
      "name": "depositAll",
      "outputs": [],
      "stateMutability": "nonpayable",
      "type": "function"
    },
    {
      "inputs": [],
      "name": "getCurrentTradingTick",
      "outputs": [
        {
          "internalType": "int24",
          "name": "_currentTick",
          "type": "int24"
        }
      ],
      "stateMutability": "view",
      "type": "function"
    },
    {
      "inputs": [],
      "name": "getPoolX96Price",
      "outputs": [
        {
          "internalType": "uint160",
          "name": "_sqrtRatioX96",
          "type": "uint160"
        }
      ],
      "stateMutability": "view",
      "type": "function"
    },
    {
      "inputs": [],
      "name": "getPositionPrincipal",
      "outputs": [
        {
          "internalType": "uint256",
          "name": "_amountWeth",
          "type": "uint256"
        },
        {
          "internalType": "uint256",
          "name": "_amountOethb",
          "type": "uint256"
        }
      ],
      "stateMutability": "view",
      "type": "function"
    },
    {
      "inputs": [],
      "name": "getRewardTokenAddresses",
      "outputs": [
        {
          "internalType": "address[]",
          "name": "",
          "type": "address[]"
        }
      ],
      "stateMutability": "view",
      "type": "function"
    },
    {
      "inputs": [],
      "name": "getWETHShare",
      "outputs": [
        {
          "internalType": "uint256",
          "name": "",
          "type": "uint256"
        }
      ],
      "stateMutability": "view",
      "type": "function"
    },
    {
      "inputs": [],
      "name": "governor",
      "outputs": [
        {
          "internalType": "address",
          "name": "",
          "type": "address"
        }
      ],
      "stateMutability": "view",
      "type": "function"
    },
    {
      "inputs": [],
      "name": "harvesterAddress",
      "outputs": [
        {
          "internalType": "address",
          "name": "",
          "type": "address"
        }
      ],
      "stateMutability": "view",
      "type": "function"
    },
    {
      "inputs": [],
      "name": "helper",
      "outputs": [
        {
          "internalType": "contract ISugarHelper",
          "name": "",
          "type": "address"
        }
      ],
      "stateMutability": "view",
      "type": "function"
    },
    {
      "inputs": [
        {
          "internalType": "address[]",
          "name": "_rewardTokenAddresses",
          "type": "address[]"
        }
      ],
      "name": "initialize",
      "outputs": [],
      "stateMutability": "nonpayable",
      "type": "function"
    },
    {
      "inputs": [],
      "name": "isGovernor",
      "outputs": [
        {
          "internalType": "bool",
          "name": "",
          "type": "bool"
        }
      ],
      "stateMutability": "view",
      "type": "function"
    },
    {
      "inputs": [],
      "name": "lowerTick",
      "outputs": [
        {
          "internalType": "int24",
          "name": "",
          "type": "int24"
        }
      ],
      "stateMutability": "view",
      "type": "function"
    },
    {
      "inputs": [
        {
          "internalType": "address",
          "name": "",
          "type": "address"
        },
        {
          "internalType": "address",
          "name": "",
          "type": "address"
        },
        {
          "internalType": "uint256",
          "name": "",
          "type": "uint256"
        },
        {
          "internalType": "bytes",
          "name": "",
          "type": "bytes"
        }
      ],
      "name": "onERC721Received",
      "outputs": [
        {
          "internalType": "bytes4",
          "name": "",
          "type": "bytes4"
        }
      ],
      "stateMutability": "nonpayable",
      "type": "function"
    },
    {
      "inputs": [],
      "name": "platformAddress",
      "outputs": [
        {
          "internalType": "address",
          "name": "",
          "type": "address"
        }
      ],
      "stateMutability": "view",
      "type": "function"
    },
    {
      "inputs": [],
      "name": "positionManager",
      "outputs": [
        {
          "internalType": "contract INonfungiblePositionManager",
          "name": "",
          "type": "address"
        }
      ],
      "stateMutability": "view",
      "type": "function"
    },
    {
      "inputs": [
        {
          "internalType": "uint256",
          "name": "_amountToSwap",
          "type": "uint256"
        },
        {
          "internalType": "bool",
          "name": "_swapWeth",
          "type": "bool"
        },
        {
          "internalType": "uint256",
          "name": "_minTokenReceived",
          "type": "uint256"
        }
      ],
      "name": "rebalance",
      "outputs": [],
      "stateMutability": "nonpayable",
      "type": "function"
    },
    {
      "inputs": [
        {
          "internalType": "uint256",
          "name": "",
          "type": "uint256"
        }
      ],
      "name": "removePToken",
      "outputs": [],
      "stateMutability": "nonpayable",
      "type": "function"
    },
    {
      "inputs": [
        {
          "internalType": "uint256",
          "name": "",
          "type": "uint256"
        }
      ],
      "name": "rewardTokenAddresses",
      "outputs": [
        {
          "internalType": "address",
          "name": "",
          "type": "address"
        }
      ],
      "stateMutability": "view",
      "type": "function"
    },
    {
      "inputs": [],
      "name": "safeApproveAllTokens",
      "outputs": [],
      "stateMutability": "nonpayable",
      "type": "function"
    },
    {
      "inputs": [
        {
          "internalType": "uint256",
          "name": "_allowedWethShareStart",
          "type": "uint256"
        },
        {
          "internalType": "uint256",
          "name": "_allowedWethShareEnd",
          "type": "uint256"
        }
      ],
      "name": "setAllowedPoolWethShareInterval",
      "outputs": [],
      "stateMutability": "nonpayable",
      "type": "function"
    },
    {
      "inputs": [
        {
          "internalType": "address",
          "name": "_harvesterAddress",
          "type": "address"
        }
      ],
      "name": "setHarvesterAddress",
      "outputs": [],
      "stateMutability": "nonpayable",
      "type": "function"
    },
    {
      "inputs": [
        {
          "internalType": "address",
          "name": "",
          "type": "address"
        },
        {
          "internalType": "address",
          "name": "",
          "type": "address"
        }
      ],
      "name": "setPTokenAddress",
      "outputs": [],
      "stateMutability": "nonpayable",
      "type": "function"
    },
    {
      "inputs": [
        {
          "internalType": "address[]",
          "name": "_rewardTokenAddresses",
          "type": "address[]"
        }
      ],
      "name": "setRewardTokenAddresses",
      "outputs": [],
      "stateMutability": "nonpayable",
      "type": "function"
    },
    {
      "inputs": [],
      "name": "sqrtRatioX96TickClosestToParity",
      "outputs": [
        {
          "internalType": "uint160",
          "name": "",
          "type": "uint160"
        }
      ],
      "stateMutability": "view",
      "type": "function"
    },
    {
      "inputs": [],
      "name": "sqrtRatioX96TickHigher",
      "outputs": [
        {
          "internalType": "uint160",
          "name": "",
          "type": "uint160"
        }
      ],
      "stateMutability": "view",
      "type": "function"
    },
    {
      "inputs": [],
      "name": "sqrtRatioX96TickLower",
      "outputs": [
        {
          "internalType": "uint160",
          "name": "",
          "type": "uint160"
        }
      ],
      "stateMutability": "view",
      "type": "function"
    },
    {
      "inputs": [
        {
          "internalType": "address",
          "name": "_asset",
          "type": "address"
        }
      ],
      "name": "supportsAsset",
      "outputs": [
        {
          "internalType": "bool",
          "name": "",
          "type": "bool"
        }
      ],
      "stateMutability": "view",
      "type": "function"
    },
    {
      "inputs": [],
      "name": "swapRouter",
      "outputs": [
        {
          "internalType": "contract ISwapRouter",
          "name": "",
          "type": "address"
        }
      ],
      "stateMutability": "view",
      "type": "function"
    },
    {
      "inputs": [],
      "name": "tickSpacing",
      "outputs": [
        {
          "internalType": "int24",
          "name": "",
          "type": "int24"
        }
      ],
      "stateMutability": "view",
      "type": "function"
    },
    {
      "inputs": [],
      "name": "tokenId",
      "outputs": [
        {
          "internalType": "uint256",
          "name": "",
          "type": "uint256"
        }
      ],
      "stateMutability": "view",
      "type": "function"
    },
    {
      "inputs": [
        {
          "internalType": "address",
          "name": "_newGovernor",
          "type": "address"
        }
      ],
      "name": "transferGovernance",
      "outputs": [],
      "stateMutability": "nonpayable",
      "type": "function"
    },
    {
      "inputs": [
        {
          "internalType": "address",
          "name": "_asset",
          "type": "address"
        },
        {
          "internalType": "uint256",
          "name": "_amount",
          "type": "uint256"
        }
      ],
      "name": "transferToken",
      "outputs": [],
      "stateMutability": "nonpayable",
      "type": "function"
    },
    {
      "inputs": [],
      "name": "underlyingAssets",
      "outputs": [
        {
          "internalType": "uint256",
          "name": "",
          "type": "uint256"
        }
      ],
      "stateMutability": "view",
      "type": "function"
    },
    {
      "inputs": [],
      "name": "upperTick",
      "outputs": [
        {
          "internalType": "int24",
          "name": "",
          "type": "int24"
        }
      ],
      "stateMutability": "view",
      "type": "function"
    },
    {
      "inputs": [],
      "name": "vaultAddress",
      "outputs": [
        {
          "internalType": "address",
          "name": "",
          "type": "address"
        }
      ],
      "stateMutability": "view",
      "type": "function"
    },
    {
      "inputs": [
        {
          "internalType": "address",
          "name": "_recipient",
          "type": "address"
        },
        {
          "internalType": "address",
          "name": "_asset",
          "type": "address"
        },
        {
          "internalType": "uint256",
          "name": "_amount",
          "type": "uint256"
        }
      ],
      "name": "withdraw",
      "outputs": [],
      "stateMutability": "nonpayable",
      "type": "function"
    },
    {
      "inputs": [],
      "name": "withdrawAll",
      "outputs": [],
      "stateMutability": "nonpayable",
      "type": "function"
    }
  ],
  "transactionHash": "0xde2b55aa221f136e29179d0bee78c1ac069d2bfc43916bfdfa41dcbfd6d317d2",
  "args": [
    [
      "0x0000000000000000000000000000000000000000",
      "0x98a0CbeF61bD2D21435f433bE4CD42B56B38CC93"
    ],
    "0x4200000000000000000000000000000000000006",
    "0xDBFeFD2e8460a6Ee4955A68582F85708BAEA60A3",
    "0xBE6D8f0d05cC4be24d5167a3eF062215bE6D18a5",
    "0x827922686190790b37229fd06084350E74485b72",
    "0x6446021F4E396dA3df4235C62537431372195D38",
    "0xdD234DBe2efF53BED9E8fC0e427ebcd74ed4F429",
    "0x0AD09A66af0154a84e86F761313d02d0abB6edd5",
    -1,
    0,
    0
  ],
  "numDeployments": 1,
  "solcInputHash": "6ccecd78fcbe2847b3552a9d30ae1a6c",
  "bytecode": "0x6102606040523480156200001257600080fd5b5060405162005cfa38038062005cfa833981016040819052620000359162000713565b8a6200004e3360008051602062005cda83398151915255565b60008051602062005cda833981519152546040516001600160a01b03909116906000907fc7c0c772add429241571afb3805861fb3cfa2af374534088b76cdb4325a87e9a908290a380516001600160601b0319606091821b8116608052602090920151901b1660a05260005460ff6101009091041680620000d2575060005460ff16155b6200013b5760405162461bcd60e51b815260206004820152602e60248201527f496e697469616c697a61626c653a20636f6e747261637420697320616c72656160448201526d191e481a5b9a5d1a585b1a5e995960921b60648201526084015b60405180910390fd5b600054610100900460ff161580156200015e576000805461ffff19166101011790555b8160020b8460020b14806200017857508160020b8360020b145b620001d05760405162461bcd60e51b815260206004820152602160248201527f4d6973636f6e66696775726564207469636b436c6f73657374546f50617269746044820152607960f81b606482015260840162000132565b8a6001600160a01b0316876001600160a01b0316630dfe16816040518163ffffffff1660e01b815260040160206040518083038186803b1580156200021457600080fd5b505afa15801562000229573d6000803e3d6000fd5b505050506040513d601f19601f820116820180604052508101906200024f9190620006ce565b6001600160a01b031614620002a75760405162461bcd60e51b815260206004820152601d60248201527f4f6e6c79205745544820737570706f7274656420617320746f6b656e30000000604482015260640162000132565b896001600160a01b0316876001600160a01b031663d21220a76040518163ffffffff1660e01b815260040160206040518083038186803b158015620002eb57600080fd5b505afa15801562000300573d6000803e3d6000fd5b505050506040513d601f19601f82011682018060405250810190620003269190620006ce565b6001600160a01b0316146200037e5760405162461bcd60e51b815260206004820152601e60248201527f4f6e6c79204f4554486220737570706f7274656420617320746f6b656e310000604482015260640162000132565b6000876001600160a01b031663d0c93a7c6040518163ffffffff1660e01b815260040160206040518083038186803b158015620003ba57600080fd5b505afa158015620003cf573d6000803e3d6000fd5b505050506040513d601f19601f82011682018060405250810190620003f59190620006f5565b90508060020b6001146200044c5760405162461bcd60e51b815260206004820152601760248201527f556e737570706f72746564207469636b53706163696e67000000000000000000604482015260640162000132565b6001600160601b031960608d811b821660c0528c811b821660e0528b811b8216610160528a811b82166101c05289811b82166101805288811b82166101a05287901b166101e05260405163986cfba360e01b8152600286900b60048201526001600160a01b0387169063986cfba39060240160206040518083038186803b158015620004d757600080fd5b505afa158015620004ec573d6000803e3d6000fd5b505050506040513d601f19601f82011682018060405250810190620005129190620006ce565b60601b6001600160601b0319166102005260405163986cfba360e01b8152600285900b60048201526001600160a01b0387169063986cfba39060240160206040518083038186803b1580156200056757600080fd5b505afa1580156200057c573d6000803e3d6000fd5b505050506040513d601f19601f82011682018060405250810190620005a29190620006ce565b60601b6001600160601b0319166102205260405163986cfba360e01b8152600284900b60048201526001600160a01b0387169063986cfba39060240160206040518083038186803b158015620005f757600080fd5b505afa1580156200060c573d6000803e3d6000fd5b505050506040513d601f19601f82011682018060405250810190620006329190620006ce565b60601b6001600160601b03191661024052600285810b810b60e890811b6101005285820b820b811b6101205282820b90910b901b6101405262000683600060008051602062005cda83398151915255565b50801562000697576000805461ff00191690555b5050505050505050505050506200086e565b8051620006b68162000855565b919050565b8051600281900b8114620006b657600080fd5b600060208284031215620006e157600080fd5b8151620006ee8162000855565b9392505050565b6000602082840312156200070857600080fd5b620006ee82620006bb565b60008060008060008060008060008060008b8d036101808112156200073757600080fd5b60408112156200074657600080fd5b50604080519081016001600160401b03811182821017156200077857634e487b7160e01b600052604160045260246000fd5b6040528c51620007888162000855565b815260208d01516200079a8162000855565b60208201529a50620007af60408d01620006a9565b9950620007bf60608d01620006a9565b9850620007cf60808d01620006a9565b9750620007df60a08d01620006a9565b9650620007ef60c08d01620006a9565b9550620007ff60e08d01620006a9565b9450620008106101008d01620006a9565b9350620008216101208d01620006bb565b9250620008326101408d01620006bb565b9150620008436101608d01620006bb565b90509295989b509295989b9093969950565b6001600160a01b03811681146200086b57600080fd5b50565b60805160601c60a05160601c60c05160601c60e05160601c6101005160e81c6101205160e81c6101405160e81c6101605160601c6101805160601c6101a05160601c6101c05160601c6101e05160601c6102005160601c6102205160601c6102405160601c61511d62000bbd6000396000818161047d015261409b01526000818161051e01528181612bb7015281816132c30152818161360d01526140eb01526000818161039d01528181612b7b015281816132e9015281816135d101526140c30152600081816104f701528181610bd401528181612840015281816136d3015261412a01526000818161057f01528181610b99015281816115b1015281816117f9015281816122570152818161234b0152818161248701528181612cfe01528181613827015281816138b401528181613af601528181613c390152613f1a0152600081816103ff01528181611ee0015281816120e1015281816124b40152818161252601528181612d8901528181612e160152818161341201528181613c660152613cd80152600081816104a401528181610a260152610ac40152600081816106f101528181611674015281816117370152818161314f01526131cf01526000818161072801528181613274015261394d01526000818161055801528181612814015281816136a9015261399f01526000818161061c015281816127e90152818161367e01526139760152600081816105b901528181610f63015281816115840152818161164701528181612f8401528181613244015281816135340152818161391e01528181613dd3015261424401526000818161066a015281816106b70152818161098701528181610e3101528181610ebe015281816112380152818161170a015281816117cc01528181611a7401528181611c1101528181611ca701528181611d8b0152818161266e01528181612697015281816128e801528181612faa015281816131220152818161321e0152818161348f015281816137fa01526138ef01526000818161042601528181610c620152818161106201528181611194015281816112c7015281816119ff01528181611ae901528181611b86015281816125e20152818161309f0152818161376301528181613d3e01526142eb01526000610775015261511d6000f3fe608060405234801561001057600080fd5b50600436106102bb5760003560e01c806367c7066c11610182578063aa388af6116100e9578063cd8b36c7116100a2578063d9caed121161007c578063d9caed121461075d578063dbe55e5614610770578063de5f626814610797578063f6ca71b01461079f57600080fd5b8063cd8b36c71461071b578063d0c93a7c14610723578063d38bfff41461074a57600080fd5b8063aa388af61461065a578063ad1728cb146106aa578063ad5c4648146106b2578063c2e1e3f4146106d9578063c31c9c07146106ec578063c7af33521461071357600080fd5b8063853828b61161013b578063853828b6146105ee5780639136616a146105f657806396d538bb146106045780639b1344ac146106175780639c1eb3da1461063e578063a224cee71461064757600080fd5b806367c7066c14610540578063727dd22814610553578063791b98bc1461057a5780637b2d9b2c146105a15780637b3b6068146105b45780637f1a327c146105db57600080fd5b80633d6953d711610226578063571fbf60116101df578063571fbf60146104c65780635a063f63146104cf5780635d36b190146104d75780635f515226146104df57806363b0e66a146104f257806365f1389d1461051957600080fd5b80633d6953d7146103fa578063430bf08a1461042157806345557c1f1461044857806347e7ef24146104655780634bc9c477146104785780634c0339b41461049f57600080fd5b8063150b7a0211610278578063150b7a0214610360578063153eb6d11461039857806317d70f7c146103bf5780631b91d0cc146103c857806330c83576146103d757806330dbda18146103df57600080fd5b806301701fe9146102c0578063042e586e146102d55780630c340a24146102f15780630ed57b3a146103115780630fc3b4c4146103245780631072cbea1461034d575b600080fd5b6102d36102ce366004614ba8565b6107b4565b005b6102de60a05481565b6040519081526020015b60405180910390f35b6102f9610907565b6040516001600160a01b0390911681526020016102e8565b6102d361031f3660046147c1565b610924565b6102f9610332366004614787565b6035602052600090815260409020546001600160a01b031681565b6102d361035b3660046148da565b610961565b61037f61036e36600461483b565b630a85bd0160e11b95945050505050565b6040516001600160e01b031990911681526020016102e8565b6102f97f000000000000000000000000000000000000000000000000000000000000000081565b6102de609d5481565b6102de670dd99bb65dd7000081565b6102f9610a22565b6103e7610ac0565b60405160029190910b81526020016102e8565b6102f97f000000000000000000000000000000000000000000000000000000000000000081565b6102f97f000000000000000000000000000000000000000000000000000000000000000081565b610450610b5e565b604080519283526020830191909152016102e8565b6102d36104733660046148da565b610c57565b6102f97f000000000000000000000000000000000000000000000000000000000000000081565b6102f97f000000000000000000000000000000000000000000000000000000000000000081565b6102de609f5481565b6102d3610ce8565b6102d3610d87565b6102de6104ed366004614787565b610e2d565b6102f97f000000000000000000000000000000000000000000000000000000000000000081565b6102f97f000000000000000000000000000000000000000000000000000000000000000081565b6039546102f9906001600160a01b031681565b6103e77f000000000000000000000000000000000000000000000000000000000000000081565b6102f97f000000000000000000000000000000000000000000000000000000000000000081565b6102f96105af366004614b13565b611000565b6102f97f000000000000000000000000000000000000000000000000000000000000000081565b6102d36105e9366004614b45565b61102a565b6102d3611189565b6102d361031f366004614b13565b6102d3610612366004614906565b6112f4565b6103e77f000000000000000000000000000000000000000000000000000000000000000081565b6102de609e5481565b6102d361065536600461497b565b61141a565b61069a610668366004614787565b7f00000000000000000000000000000000000000000000000000000000000000006001600160a01b0390811691161490565b60405190151581526020016102e8565b6102d3611513565b6102f97f000000000000000000000000000000000000000000000000000000000000000081565b6102d36106e7366004614787565b611876565b6102f97f000000000000000000000000000000000000000000000000000000000000000081565b61069a611903565b6102de611934565b6103e77f000000000000000000000000000000000000000000000000000000000000000081565b6102d3610758366004614787565b611950565b6102d361076b3660046147fa565b6119f4565b6102f97f000000000000000000000000000000000000000000000000000000000000000081565b6102d3611b7b565b6107a7611ccc565b6040516102e89190614d04565b6107bc611903565b6107e15760405162461bcd60e51b81526004016107d890614e53565b60405180910390fd5b8082106108235760405162461bcd60e51b815260206004820152601060248201526f125b9d985b1a59081a5b9d195c9d985b60821b60448201526064016107d8565b662386f26fc1000082116108725760405162461bcd60e51b8152602060048201526016602482015275125b9d985b1a59081a5b9d195c9d985b081cdd185c9d60521b60448201526064016107d8565b670d2f13f7789f000081106108c05760405162461bcd60e51b8152602060048201526014602482015273125b9d985b1a59081a5b9d195c9d985b08195b9960621b60448201526064016107d8565b609f82905560a081905560408051838152602081018390527ffb25072e740f40f37c0adb21abfa08b090c754a216aa3dce33b68fab089eff91910160405180910390a15050565b600061091f6000805160206150c88339815191525490565b905090565b60405162461bcd60e51b8152602060048201526012602482015271155b9cdd5c1c1bdc9d1959081b595d1a1bd960721b60448201526064016107d8565b610969611903565b6109855760405162461bcd60e51b81526004016107d890614e53565b7f00000000000000000000000000000000000000000000000000000000000000006001600160a01b039081169083161415610a025760405162461bcd60e51b815260206004820152601f60248201527f43616e6e6f74207472616e7366657220737570706f727465642061737365740060448201526064016107d8565b610a1e610a0d610907565b6001600160a01b0384169083611d2e565b5050565b60007f00000000000000000000000000000000000000000000000000000000000000006001600160a01b0316633850c7bd6040518163ffffffff1660e01b815260040160c06040518083038186803b158015610a7d57600080fd5b505afa158015610a91573d6000803e3d6000fd5b505050506040513d601f19601f82011682018060405250810190610ab59190614a99565b509395945050505050565b60007f00000000000000000000000000000000000000000000000000000000000000006001600160a01b0316633850c7bd6040518163ffffffff1660e01b815260040160c06040518083038186803b158015610b1b57600080fd5b505afa158015610b2f573d6000803e3d6000fd5b505050506040513d601f19601f82011682018060405250810190610b539190614a99565b509295945050505050565b600080609d5460001415610b755750600091829150565b6000610b7f610a22565b609d54604051632263539760e01b81526001600160a01b037f000000000000000000000000000000000000000000000000000000000000000081166004830152602482019290925282821660448201529192507f00000000000000000000000000000000000000000000000000000000000000001690632263539790606401604080518083038186803b158015610c1557600080fd5b505afa158015610c29573d6000803e3d6000fd5b505050506040513d601f19601f82011682018060405250810190610c4d9190614bca565b9094909350915050565b336001600160a01b037f00000000000000000000000000000000000000000000000000000000000000001614610c9f5760405162461bcd60e51b81526004016107d890614e1c565b6000805160206150a883398151915280546002811415610cd15760405162461bcd60e51b81526004016107d890614e8a565b60028255610cdf8484611d89565b50600190555050565b6039546001600160a01b03163314610d425760405162461bcd60e51b815260206004820152601b60248201527f43616c6c6572206973206e6f742074686520486172766573746572000000000060448201526064016107d8565b6000805160206150a883398151915280546002811415610d745760405162461bcd60e51b81526004016107d890614e8a565b60028255610d80611ead565b5060019055565b7f44c4d30b2eaad5130ad70c3ba6972730566f3e6359ab83e800d905c61b1c51db546001600160a01b0316336001600160a01b031614610e225760405162461bcd60e51b815260206004820152603060248201527f4f6e6c79207468652070656e64696e6720476f7665726e6f722063616e20636f60448201526f6d706c6574652074686520636c61696d60801b60648201526084016107d8565b610e2b33611f4d565b565b60007f00000000000000000000000000000000000000000000000000000000000000006001600160a01b0316826001600160a01b031614610ea65760405162461bcd60e51b815260206004820152601360248201527213db9b1e4815d15512081cdd5c1c1bdc9d1959606a1b60448201526064016107d8565b6040516370a0823160e01b81523060048201526000907f00000000000000000000000000000000000000000000000000000000000000006001600160a01b0316906370a082319060240160206040518083038186803b158015610f0857600080fd5b505afa158015610f1c573d6000803e3d6000fd5b505050506040513d601f19601f82011682018060405250810190610f409190614b2c565b6040516370a0823160e01b81523060048201529091506000906001600160a01b037f000000000000000000000000000000000000000000000000000000000000000016906370a082319060240160206040518083038186803b158015610fa557600080fd5b505afa158015610fb9573d6000803e3d6000fd5b505050506040513d601f19601f82011682018060405250810190610fdd9190614b2c565b90508082609e54610fee9190614f8b565b610ff89190614f8b565b949350505050565b603a818154811061101057600080fd5b6000918252602090912001546001600160a01b0316905081565b6000805160206150a88339815191528054600281141561105c5760405162461bcd60e51b81526004016107d890614e8a565b600282557f00000000000000000000000000000000000000000000000000000000000000006001600160a01b031663570d8e1d6040518163ffffffff1660e01b815260040160206040518083038186803b1580156110b957600080fd5b505afa1580156110cd573d6000803e3d6000fd5b505050506040513d601f19601f820116820180604052508101906110f191906147a4565b6001600160a01b0316336001600160a01b031614806111285750611113610907565b6001600160a01b0316336001600160a01b0316145b6111745760405162461bcd60e51b815260206004820152601e60248201527f4e6f742074686520476f7665726e6f72206f722053747261746567697374000060448201526064016107d8565b61117f858585612011565b5060019055505050565b336001600160a01b037f000000000000000000000000000000000000000000000000000000000000000016146111d15760405162461bcd60e51b81526004016107d890614e1c565b6000805160206150a8833981519152805460028114156112035760405162461bcd60e51b81526004016107d890614e8a565b60028255609d541561122057611220670de0b6b3a76400006120ae565b6040516370a0823160e01b81523060048201526000907f00000000000000000000000000000000000000000000000000000000000000006001600160a01b0316906370a082319060240160206040518083038186803b15801561128257600080fd5b505afa158015611296573d6000803e3d6000fd5b505050506040513d601f19601f820116820180604052508101906112ba9190614b2c565b905080156112ec576112ec7f000000000000000000000000000000000000000000000000000000000000000082612590565b505060019055565b6112fc611903565b6113185760405162461bcd60e51b81526004016107d890614e53565b8060005b818110156113cb57600084848381811061133857611338615058565b905060200201602081019061134d9190614787565b6001600160a01b031614156113bb5760405162461bcd60e51b815260206004820152602e60248201527f43616e206e6f742073657420616e20656d70747920616464726573732061732060448201526d30903932bbb0b932103a37b5b2b760911b60648201526084016107d8565b6113c481615027565b905061131c565b507f04c0b9649497d316554306e53678d5f5f5dbc3a06f97dec13ff4cfe98b986bbc603a848460405161140093929190614d51565b60405180910390a1611414603a8484614668565b50505050565b611422611903565b61143e5760405162461bcd60e51b81526004016107d890614e53565b600054610100900460ff1680611457575060005460ff16155b6114ba5760405162461bcd60e51b815260206004820152602e60248201527f496e697469616c697a61626c653a20636f6e747261637420697320616c72656160448201526d191e481a5b9a5d1a585b1a5e995960921b60648201526084016107d8565b600054610100900460ff161580156114dc576000805461ffff19166101011790555b604080516000808252602082019081528183019092526114fe918491906126fd565b8015610a1e576000805461ff00191690555050565b61151b611903565b6115375760405162461bcd60e51b81526004016107d890614e53565b6000805160206150a8833981519152805460028114156115695760405162461bcd60e51b81526004016107d890614e8a565b6002825560405163095ea7b360e01b81526001600160a01b037f0000000000000000000000000000000000000000000000000000000000000000169063095ea7b3906115dd907f00000000000000000000000000000000000000000000000000000000000000009060001990600401614ceb565b602060405180830381600087803b1580156115f757600080fd5b505af115801561160b573d6000803e3d6000fd5b505050506040513d601f19601f8201168201806040525081019061162f9190614a47565b5060405163095ea7b360e01b81526001600160a01b037f0000000000000000000000000000000000000000000000000000000000000000169063095ea7b3906116a0907f00000000000000000000000000000000000000000000000000000000000000009060001990600401614ceb565b602060405180830381600087803b1580156116ba57600080fd5b505af11580156116ce573d6000803e3d6000fd5b505050506040513d601f19601f820116820180604052508101906116f29190614a47565b5060405163095ea7b360e01b81526001600160a01b037f0000000000000000000000000000000000000000000000000000000000000000169063095ea7b390611762907f000000000000000000000000000000000000000000000000000000000000000090600090600401614ceb565b602060405180830381600087803b15801561177c57600080fd5b505af1158015611790573d6000803e3d6000fd5b505050506040513d601f19601f820116820180604052508101906117b49190614a47565b5060405163095ea7b360e01b81526001600160a01b037f0000000000000000000000000000000000000000000000000000000000000000169063095ea7b390611824907f000000000000000000000000000000000000000000000000000000000000000090600090600401614ceb565b602060405180830381600087803b15801561183e57600080fd5b505af1158015611852573d6000803e3d6000fd5b505050506040513d601f19601f820116820180604052508101906112ec9190614a47565b61187e611903565b61189a5760405162461bcd60e51b81526004016107d890614e53565b603954604080516001600160a01b03928316815291831660208301527fe48386b84419f4d36e0f96c10cc3510b6fb1a33795620c5098b22472bbe90796910160405180910390a1603980546001600160a01b0319166001600160a01b0392909216919091179055565b600061191b6000805160206150c88339815191525490565b6001600160a01b0316336001600160a01b031614905090565b60008061193f610a22565b905061194a816127b1565b91505090565b611958611903565b6119745760405162461bcd60e51b81526004016107d890614e53565b61199c817f44c4d30b2eaad5130ad70c3ba6972730566f3e6359ab83e800d905c61b1c51db55565b806001600160a01b03166119bc6000805160206150c88339815191525490565b6001600160a01b03167fa39cc5eb22d0f34d8beaefee8a3f17cc229c1a1d1ef87a5ad47313487b1c4f0d60405160405180910390a350565b336001600160a01b037f00000000000000000000000000000000000000000000000000000000000000001614611a3c5760405162461bcd60e51b81526004016107d890614e1c565b6000805160206150a883398151915280546002811415611a6e5760405162461bcd60e51b81526004016107d890614e8a565b600282557f00000000000000000000000000000000000000000000000000000000000000006001600160a01b0316846001600160a01b031614611ae75760405162461bcd60e51b8152602060048201526011602482015270155b9cdd5c1c1bdc9d195908185cdcd95d607a1b60448201526064016107d8565b7f00000000000000000000000000000000000000000000000000000000000000006001600160a01b0316856001600160a01b031614611b685760405162461bcd60e51b815260206004820152601e60248201527f4f6e6c7920776974686472617720746f207661756c7420616c6c6f776564000060448201526064016107d8565b611b71836128d0565b61117f8584612590565b336001600160a01b037f00000000000000000000000000000000000000000000000000000000000000001614611bc35760405162461bcd60e51b81526004016107d890614e1c565b6000805160206150a883398151915280546002811415611bf55760405162461bcd60e51b81526004016107d890614e8a565b600282556040516370a0823160e01b81523060048201526000907f00000000000000000000000000000000000000000000000000000000000000006001600160a01b0316906370a082319060240160206040518083038186803b158015611c5b57600080fd5b505afa158015611c6f573d6000803e3d6000fd5b505050506040513d601f19601f82011682018060405250810190611c939190614b2c565b905064e8d4a510008111156112ec576112ec7f000000000000000000000000000000000000000000000000000000000000000082611d89565b6060603a805480602002602001604051908101604052809291908181526020018280548015611d2457602002820191906000526020600020905b81546001600160a01b03168152600190910190602001808311611d06575b5050505050905090565b611d848363a9059cbb60e01b8484604051602401611d4d929190614ceb565b60408051601f198184030181529190526020810180516001600160e01b03166001600160e01b031990931692909217909152612a38565b505050565b7f00000000000000000000000000000000000000000000000000000000000000006001600160a01b0316826001600160a01b031614611dfe5760405162461bcd60e51b8152602060048201526011602482015270155b9cdd5c1c1bdc9d195908185cdcd95d607a1b60448201526064016107d8565b60008111611e475760405162461bcd60e51b81526020600482015260166024820152754d757374206465706f73697420736f6d657468696e6760501b60448201526064016107d8565b816001600160a01b03167f5548c837ab068cf56a2c2479df0882a4922fd203edb7517321831d95078c5f62600083604051611e83929190614ceb565b60405180910390a26000611e976000612b0a565b5090508015611d8457611d846000806000612011565b609d5415801590611ec15750611ec1612c95565b15611f4557609d54604051631c4b774b60e01b815260048101919091527f00000000000000000000000000000000000000000000000000000000000000006001600160a01b031690631c4b774b90602401600060405180830381600087803b158015611f2c57600080fd5b505af1158015611f40573d6000803e3d6000fd5b505050505b610e2b612e4f565b6001600160a01b038116611fa35760405162461bcd60e51b815260206004820152601a60248201527f4e657720476f7665726e6f72206973206164647265737328302900000000000060448201526064016107d8565b806001600160a01b0316611fc36000805160206150c88339815191525490565b6001600160a01b03167fc7c0c772add429241571afb3805861fb3cfa2af374534088b76cdb4325a87e9a60405160405180910390a361200e816000805160206150c883398151915255565b50565b609d541580159061201f5750815b801561202b5750600083115b1561203957612039836128d0565b821561204a5761204a838383612f7b565b6120546001612b0a565b505061205e6133df565b600061206a6001612b0a565b915050612075613d3a565b6040518181527f0d0d42e29eda809becae4f120dfbc3799e17df829fa338f8035c724579423b899060200160405180910390a150505050565b609d54158015906120c257506120c2612c95565b1561214657609d54604051632e1a7d4d60e01b815260048101919091527f00000000000000000000000000000000000000000000000000000000000000006001600160a01b031690632e1a7d4d90602401600060405180830381600087803b15801561212d57600080fd5b505af1158015612141573d6000803e3d6000fd5b505050505b600081116121965760405162461bcd60e51b815260206004820152601a60248201527f4d7573742072656d6f766520736f6d65206c697175696469747900000000000060448201526064016107d8565b60006121a0613eba565b905060006121bf6121ba6001600160801b03841685613fae565b613fca565b90506001600160801b03821615806121de57506001600160801b038116155b156121ea575050612439565b6040805160a081018252609d5481526001600160801b038381166020830190815260008385018181526060850182815242608087019081529651630624e65f60e11b81529551600487015292519093166024850152915160448401525160648301529151608482015281907f00000000000000000000000000000000000000000000000000000000000000006001600160a01b031690630c49ccbe9060a4016040805180830381600087803b1580156122a257600080fd5b505af11580156122b6573d6000803e3d6000fd5b505050506040513d601f19601f820116820180604052508101906122da9190614bca565b60408051608081018252609d54815230602082019081526001600160801b0382840181815260608401828152945163fc6f786560e01b81529351600485015291516001600160a01b0390811660248501529151811660448401529251909216606482015292945090925060009182917f0000000000000000000000000000000000000000000000000000000000000000169063fc6f7865906084016040805180830381600087803b15801561238e57600080fd5b505af11580156123a2573d6000803e3d6000fd5b505050506040513d601f19601f820116820180604052508101906123c69190614bca565b915091506123d2614037565b609e546040805189815260208101879052808201869052606081018590526080810184905260a0810192909252517fede5d7a610050b00dde41dd385fe2d91a558dde29318267aa4e011678b58cfc59181900360c00190a161243261422c565b5050505050505b609d541580159061244f575061244d612c95565b155b1561200e57600061245e613eba565b6001600160801b0316111561200e57609d5460405163095ea7b360e01b81526001600160a01b037f0000000000000000000000000000000000000000000000000000000000000000169163095ea7b3916124dc917f000000000000000000000000000000000000000000000000000000000000000091600401614ceb565b600060405180830381600087803b1580156124f657600080fd5b505af115801561250a573d6000803e3d6000fd5b5050609d5460405163b6b55f2560e01b815260048101919091527f00000000000000000000000000000000000000000000000000000000000000006001600160a01b0316925063b6b55f2591506024015b600060405180830381600087803b15801561257557600080fd5b505af1158015612589573d6000803e3d6000fd5b5050505050565b600081116125e05760405162461bcd60e51b815260206004820152601760248201527f4d75737420776974686472617720736f6d657468696e6700000000000000000060448201526064016107d8565b7f00000000000000000000000000000000000000000000000000000000000000006001600160a01b0316826001600160a01b0316146126615760405162461bcd60e51b815260206004820152601e60248201527f4f6e6c7920776974686472617720746f207661756c7420616c6c6f776564000060448201526064016107d8565b6126956001600160a01b037f0000000000000000000000000000000000000000000000000000000000000000168383611d2e565b7f00000000000000000000000000000000000000000000000000000000000000006001600160a01b03167f2717ead6b9200dd235aad468c9809ea400fe33ac69b5bfaa6d3e90fc922b63986000836040516126f1929190614ceb565b60405180910390a25050565b825161271090603a9060208601906146c7565b5081518151811461275a5760405162461bcd60e51b8152602060048201526014602482015273496e76616c696420696e7075742061727261797360601b60448201526064016107d8565b60005b81811015612589576127a184828151811061277a5761277a615058565b602002602001015184838151811061279457612794615058565b6020026020010151614322565b6127aa81615027565b905061275d565b604051630155925960e21b8152670de0b6b3a7640000600482018190526000602483018190526001600160a01b0384811660448501527f0000000000000000000000000000000000000000000000000000000000000000600290810b60648601527f0000000000000000000000000000000000000000000000000000000000000000900b6084850152909283917f0000000000000000000000000000000000000000000000000000000000000000169063055649649060a40160206040518083038186803b15801561288257600080fd5b505afa158015612896573d6000803e3d6000fd5b505050506040513d601f19601f820116820180604052508101906128ba9190614b2c565b9050610ff86128c98284614f8b565b8390614487565b6040516370a0823160e01b81523060048201526000907f00000000000000000000000000000000000000000000000000000000000000006001600160a01b0316906370a082319060240160206040518083038186803b15801561293257600080fd5b505afa158015612946573d6000803e3d6000fd5b505050506040513d601f19601f8201168201806040525081019061296a9190614b2c565b9050818110612977575050565b609d546129bf5760405162461bcd60e51b81526020600482015260166024820152754e6f206c697175696469747920617661696c61626c6560501b60448201526064016107d8565b60006129cb8284614fe4565b905060006129d7610b5e565b50905081811015612a055760405163a6737d8760e01b815260048101829052602481018390526044016107d8565b6000612a2d612a148484614487565b612a1f906001614f8b565b670de0b6b3a76400006144a8565b9050612589816120ae565b6000612a8d826040518060400160405280602081526020017f5361666545524332303a206c6f772d6c6576656c2063616c6c206661696c6564815250856001600160a01b03166144be9092919063ffffffff16565b805190915015611d845780806020019051810190612aab9190614a47565b611d845760405162461bcd60e51b815260206004820152602a60248201527f5361666545524332303a204552433230206f7065726174696f6e20646964206e6044820152691bdd081cdd58d8d9595960b21b60648201526084016107d8565b600080609f54600014158015612b21575060a05415155b612b6d5760405162461bcd60e51b815260206004820152601b60248201527f5765746820736861726520696e74657276616c206e6f7420736574000000000060448201526064016107d8565b6000612b77610a22565b90507f00000000000000000000000000000000000000000000000000000000000000006001600160a01b0316816001600160a01b0316111580612bec57507f00000000000000000000000000000000000000000000000000000000000000006001600160a01b0316816001600160a01b031610155b15612c2b578315612c1f57612bff610ac0565b604051635a2eba7560e01b815260029190910b60048201526024016107d8565b50600093849350915050565b612c34816127b1565b9150609f54821080612c47575060a05482115b15612c8b578315612c8157609f5460a0546040516301b40f4760e51b815260048101859052602481019290925260448201526064016107d8565b6000925050915091565b6001925050915091565b6000609d5460001415612ce15760405162461bcd60e51b815260206004820152601460248201527326b4b9b9b4b7339027232a102628103a37b5b2b760611b60448201526064016107d8565b609d546040516331a9108f60e11b81526000916001600160a01b037f00000000000000000000000000000000000000000000000000000000000000001691636352211e91612d359160040190815260200190565b60206040518083038186803b158015612d4d57600080fd5b505afa158015612d61573d6000803e3d6000fd5b505050506040513d601f19601f82011682018060405250810190612d8591906147a4565b90507f00000000000000000000000000000000000000000000000000000000000000006001600160a01b0316816001600160a01b03161480612dcf57506001600160a01b03811630145b612e145760405162461bcd60e51b81526020600482015260166024820152752ab732bc3832b1ba32b2103a37b5b2b71037bbb732b960511b60448201526064016107d8565b7f00000000000000000000000000000000000000000000000000000000000000006001600160a01b0316816001600160a01b03161491505090565b603a5460005b81811015610a1e576000603a8281548110612e7257612e72615058565b60009182526020822001546040516370a0823160e01b81523060048201526001600160a01b03909116925082906370a082319060240160206040518083038186803b158015612ec057600080fd5b505afa158015612ed4573d6000803e3d6000fd5b505050506040513d601f19601f82011682018060405250810190612ef89190614b2c565b90508015612f6857603954604080516001600160a01b039283168152918416602083015281018290527ff6c07a063ed4e63808eb8da7112d46dbcd38de2b40a73dbcc9353c5a94c723539060600160405180910390a1603954612f68906001600160a01b03848116911683611d2e565b505080612f7490615027565b9050612e55565b600082612fa8577f0000000000000000000000000000000000000000000000000000000000000000612fca565b7f00000000000000000000000000000000000000000000000000000000000000005b6040516370a0823160e01b81523060048201529091506000906001600160a01b038316906370a082319060240160206040518083038186803b15801561300f57600080fd5b505afa158015613023573d6000803e3d6000fd5b505050506040513d601f19601f820116820180604052508101906130479190614b2c565b90508481101561310557831561307a57604051631313cb9560e31b815260048101829052602481018690526044016107d8565b60006130868287614fe4565b60405163ab80dafb60e01b8152600481018290529091507f00000000000000000000000000000000000000000000000000000000000000006001600160a01b03169063ab80dafb90602401600060405180830381600087803b1580156130eb57600080fd5b505af11580156130ff573d6000803e3d6000fd5b50505050505b83156131cd5760405163095ea7b360e01b81526001600160a01b037f0000000000000000000000000000000000000000000000000000000000000000169063095ea7b390613179907f0000000000000000000000000000000000000000000000000000000000000000908990600401614ceb565b602060405180830381600087803b15801561319357600080fd5b505af11580156131a7573d6000803e3d6000fd5b505050506040513d601f19601f820116820180604052508101906131cb9190614a47565b505b7f00000000000000000000000000000000000000000000000000000000000000006001600160a01b031663a026383e604051806101000160405280856001600160a01b0316815260200187613242577f0000000000000000000000000000000000000000000000000000000000000000613264565b7f00000000000000000000000000000000000000000000000000000000000000005b6001600160a01b031681526020017f000000000000000000000000000000000000000000000000000000000000000060020b8152602001306001600160a01b03168152602001428152602001888152602001868152602001876132e7577f0000000000000000000000000000000000000000000000000000000000000000613309565b7f00000000000000000000000000000000000000000000000000000000000000005b6001600160a01b039081169091526040805160e085811b6001600160e01b03191682528451841660048301526020850151841660248301529184015160020b60448201526060840151831660648201526080840151608482015260a084015160a482015260c084015160c48201529201511660e482015261010401602060405180830381600087803b15801561339e57600080fd5b505af11580156133b2573d6000803e3d6000fd5b505050506040513d601f19601f820116820180604052508101906133d69190614b2c565b5061258961422c565b609d54158015906133f357506133f3612c95565b1561347757609d54604051632e1a7d4d60e01b815260048101919091527f00000000000000000000000000000000000000000000000000000000000000006001600160a01b031690632e1a7d4d90602401600060405180830381600087803b15801561345e57600080fd5b505af1158015613472573d6000803e3d6000fd5b505050505b6040516370a0823160e01b81523060048201526000907f00000000000000000000000000000000000000000000000000000000000000006001600160a01b0316906370a082319060240160206040518083038186803b1580156134d957600080fd5b505afa1580156134ed573d6000803e3d6000fd5b505050506040513d601f19601f820116820180604052508101906135119190614b2c565b6040516370a0823160e01b81523060048201529091506000906001600160a01b037f000000000000000000000000000000000000000000000000000000000000000016906370a082319060240160206040518083038186803b15801561357657600080fd5b505afa15801561358a573d6000803e3d6000fd5b505050506040513d601f19601f820116820180604052508101906135ae9190614b2c565b905064e8d4a5100082116135c3575050613beb565b60006135cd610a22565b90507f00000000000000000000000000000000000000000000000000000000000000006001600160a01b0316816001600160a01b031611158061364257507f00000000000000000000000000000000000000000000000000000000000000006001600160a01b0316816001600160a01b031610155b1561364f57612bff610ac0565b604051630155925960e21b8152600481018490526000602482018190526001600160a01b0383811660448401527f0000000000000000000000000000000000000000000000000000000000000000600290810b60648501527f0000000000000000000000000000000000000000000000000000000000000000900b608484015290917f00000000000000000000000000000000000000000000000000000000000000009091169063055649649060a40160206040518083038186803b15801561371757600080fd5b505afa15801561372b573d6000803e3d6000fd5b505050506040513d601f19601f8201168201806040525081019061374f9190614b2c565b9050828111156137e3576001600160a01b037f00000000000000000000000000000000000000000000000000000000000000001663ab80dafb6137928584614fe4565b6040518263ffffffff1660e01b81526004016137b091815260200190565b600060405180830381600087803b1580156137ca57600080fd5b505af11580156137de573d6000803e3d6000fd5b505050505b60405163095ea7b360e01b81526001600160a01b037f0000000000000000000000000000000000000000000000000000000000000000169063095ea7b390613851907f0000000000000000000000000000000000000000000000000000000000000000908890600401614ceb565b602060405180830381600087803b15801561386b57600080fd5b505af115801561387f573d6000803e3d6000fd5b505050506040513d601f19601f820116820180604052508101906138a39190614a47565b50600080609d5460001415613a83577f00000000000000000000000000000000000000000000000000000000000000006001600160a01b031663b5007d1f6040518061018001604052807f00000000000000000000000000000000000000000000000000000000000000006001600160a01b031681526020017f00000000000000000000000000000000000000000000000000000000000000006001600160a01b031681526020017f000000000000000000000000000000000000000000000000000000000000000060020b81526020017f000000000000000000000000000000000000000000000000000000000000000060020b81526020017f000000000000000000000000000000000000000000000000000000000000000060020b81526020018981526020018681526020016000815260200160008152602001306001600160a01b0316815260200142815260200160006001600160a01b03168152506040518263ffffffff1660e01b8152600401613a1f9190614eb2565b608060405180830381600087803b158015613a3957600080fd5b505af1158015613a4d573d6000803e3d6000fd5b505050506040513d601f19601f82011682018060405250810190613a719190614b6c565b609d939093559350909150613b799050565b6040805160c081018252609d54815260208101888152818301868152600060608401818152608085019182524260a08601908152955163219f5d1760e01b815294516004860152925160248501529051604484015290516064830152516084820152905160a48201526001600160a01b037f0000000000000000000000000000000000000000000000000000000000000000169063219f5d179060c401606060405180830381600087803b158015613b3a57600080fd5b505af1158015613b4e573d6000803e3d6000fd5b505050506040513d601f19601f82011682018060405250810190613b729190614a64565b9093509150505b613b81614037565b609d54609e54604080518981526020810187905290810185905260608101849052608081019290925260a08201527f1530ec748a27514ffab0987654233a80256393e127bdf02d94e32ff3c7148ec69060c00160405180910390a1613be461422c565b5050505050505b609d5415801590613c015750613bff612c95565b155b15610e2b576000613c10613eba565b6001600160801b03161115610e2b57609d5460405163095ea7b360e01b81526001600160a01b037f0000000000000000000000000000000000000000000000000000000000000000169163095ea7b391613c8e917f000000000000000000000000000000000000000000000000000000000000000091600401614ceb565b600060405180830381600087803b158015613ca857600080fd5b505af1158015613cbc573d6000803e3d6000fd5b5050609d5460405163b6b55f2560e01b815260048101919091527f00000000000000000000000000000000000000000000000000000000000000006001600160a01b0316925063b6b55f259150602401600060405180830381600087803b158015613d2657600080fd5b505af1158015611414573d6000803e3d6000fd5b60007f00000000000000000000000000000000000000000000000000000000000000006001600160a01b031663d4c3eea06040518163ffffffff1660e01b815260040160206040518083038186803b158015613d9557600080fd5b505afa158015613da9573d6000803e3d6000fd5b505050506040513d601f19601f82011682018060405250810190613dcd9190614b2c565b905060007f00000000000000000000000000000000000000000000000000000000000000006001600160a01b03166318160ddd6040518163ffffffff1660e01b815260040160206040518083038186803b158015613e2a57600080fd5b505afa158015613e3e573d6000803e3d6000fd5b505050506040513d601f19601f82011682018060405250810190613e629190614b2c565b9050670dd99bb65dd70000613e778383614487565b1015610a1e5760405162461bcd60e51b8152602060048201526012602482015271141c9bdd1bd8dbdb081a5b9cdbdb1d995b9d60721b60448201526064016107d8565b6000609d5460001415613f005760405162461bcd60e51b815260206004820152600e60248201526d2737902628103837b9b4ba34b7b760911b60448201526064016107d8565b609d5460405163133f757160e31b815260048101919091527f00000000000000000000000000000000000000000000000000000000000000006001600160a01b0316906399fbab88906024016101806040518083038186803b158015613f6557600080fd5b505afa158015613f79573d6000803e3d6000fd5b505050506040513d601f19601f82011682018060405250810190613f9d9190614bee565b50929b9a5050505050505050505050565b6000613fc38383670de0b6b3a76400006144cd565b9392505050565b60006001600160801b038211156140335760405162461bcd60e51b815260206004820152602760248201527f53616665436173743a2076616c756520646f65736e27742066697420696e20316044820152663238206269747360c81b60648201526084016107d8565b5090565b609d5461407a576000609e8190556040519081527fab1ece054738c773b84a8a32f5f969323c50dc7e28634302f91c7b75cb8387829060200160405180910390a1565b6000614084613eba565b60405163c72e160b60e01b81526001600160a01b037f0000000000000000000000000000000000000000000000000000000000000000811660048301527f0000000000000000000000000000000000000000000000000000000000000000811660248301527f0000000000000000000000000000000000000000000000000000000000000000811660448301526001600160801b038316606483015291925060009182917f00000000000000000000000000000000000000000000000000000000000000009091169063c72e160b90608401604080518083038186803b15801561416d57600080fd5b505afa158015614181573d6000803e3d6000fd5b505050506040513d601f19601f820116820180604052508101906141a59190614bca565b91509150816000146141ef5760405162461bcd60e51b8152602060048201526013602482015272139bdb881e995c9bc81dd95d1a105b5bdd5b9d606a1b60448201526064016107d8565b609e8190556040518181527fab1ece054738c773b84a8a32f5f969323c50dc7e28634302f91c7b75cb8387829060200160405180910390a1505050565b6040516370a0823160e01b81523060048201526000907f00000000000000000000000000000000000000000000000000000000000000006001600160a01b0316906370a082319060240160206040518083038186803b15801561428e57600080fd5b505afa1580156142a2573d6000803e3d6000fd5b505050506040513d601f19601f820116820180604052508101906142c69190614b2c565b905064e8d4a5100081111561200e5760405163310bf9f560e11b8152600481018290527f00000000000000000000000000000000000000000000000000000000000000006001600160a01b031690636217f3ea9060240161255b565b6001600160a01b03828116600090815260356020526040902054161561437f5760405162461bcd60e51b81526020600482015260126024820152711c151bdad95b88185b1c9958591e481cd95d60721b60448201526064016107d8565b6001600160a01b0382161580159061439f57506001600160a01b03811615155b6143df5760405162461bcd60e51b8152602060048201526011602482015270496e76616c69642061646472657373657360781b60448201526064016107d8565b6001600160a01b03828116600081815260356020908152604080832080549587166001600160a01b031996871681179091556036805460018101825594527f4a11f94e20a93c79f6ec743a1954ec4fc2c08429ae2122118bf234b2185c81b890930180549095168417909455925190815290917fef6485b84315f9b1483beffa32aae9a0596890395e3d7521f1c5fbb51790e765910160405180910390a2610a1e8282610924565b60008061449c84670de0b6b3a76400006144ef565b9050610ff881846144fb565b60008183106144b75781613fc3565b5090919050565b6060610ff88484600085614507565b6000806144da85856144ef565b90506144e681846144fb565b95945050505050565b6000613fc38284614fc5565b6000613fc38284614fa3565b6060824710156145685760405162461bcd60e51b815260206004820152602660248201527f416464726573733a20696e73756666696369656e742062616c616e636520666f6044820152651c8818d85b1b60d21b60648201526084016107d8565b843b6145b65760405162461bcd60e51b815260206004820152601d60248201527f416464726573733a2063616c6c20746f206e6f6e2d636f6e747261637400000060448201526064016107d8565b600080866001600160a01b031685876040516145d29190614ccf565b60006040518083038185875af1925050503d806000811461460f576040519150601f19603f3d011682016040523d82523d6000602084013e614614565b606091505b509150915061462482828661462f565b979650505050505050565b6060831561463e575081613fc3565b82511561464e5782518084602001fd5b8160405162461bcd60e51b81526004016107d89190614de9565b8280548282559060005260206000209081019282156146bb579160200282015b828111156146bb5781546001600160a01b0319166001600160a01b03843516178255602090920191600190910190614688565b5061403392915061471c565b8280548282559060005260206000209081019282156146bb579160200282015b828111156146bb57825182546001600160a01b0319166001600160a01b039091161782556020909201916001909101906146e7565b5b80821115614033576000815560010161471d565b803561473c81615084565b919050565b805161473c81615084565b8051600281900b811461473c57600080fd5b80516001600160801b038116811461473c57600080fd5b805161ffff8116811461473c57600080fd5b60006020828403121561479957600080fd5b8135613fc381615084565b6000602082840312156147b657600080fd5b8151613fc381615084565b600080604083850312156147d457600080fd5b82356147df81615084565b915060208301356147ef81615084565b809150509250929050565b60008060006060848603121561480f57600080fd5b833561481a81615084565b9250602084013561482a81615084565b929592945050506040919091013590565b60008060008060006080868803121561485357600080fd5b853561485e81615084565b9450602086013561486e81615084565b935060408601359250606086013567ffffffffffffffff8082111561489257600080fd5b818801915088601f8301126148a657600080fd5b8135818111156148b557600080fd5b8960208285010111156148c757600080fd5b9699959850939650602001949392505050565b600080604083850312156148ed57600080fd5b82356148f881615084565b946020939093013593505050565b6000806020838503121561491957600080fd5b823567ffffffffffffffff8082111561493157600080fd5b818501915085601f83011261494557600080fd5b81358181111561495457600080fd5b8660208260051b850101111561496957600080fd5b60209290920196919550909350505050565b6000602080838503121561498e57600080fd5b823567ffffffffffffffff808211156149a657600080fd5b818501915085601f8301126149ba57600080fd5b8135818111156149cc576149cc61506e565b8060051b604051601f19603f830116810181811085821117156149f1576149f161506e565b604052828152858101935084860182860187018a1015614a1057600080fd5b600095505b83861015614a3a57614a2681614731565b855260019590950194938601938601614a15565b5098975050505050505050565b600060208284031215614a5957600080fd5b8151613fc381615099565b600080600060608486031215614a7957600080fd5b614a828461475e565b925060208401519150604084015190509250925092565b60008060008060008060c08789031215614ab257600080fd5b8651614abd81615084565b9550614acb6020880161474c565b9450614ad960408801614775565b9350614ae760608801614775565b9250614af560808801614775565b915060a0870151614b0581615099565b809150509295509295509295565b600060208284031215614b2557600080fd5b5035919050565b600060208284031215614b3e57600080fd5b5051919050565b600080600060608486031215614b5a57600080fd5b83359250602084013561482a81615099565b60008060008060808587031215614b8257600080fd5b84519350614b926020860161475e565b6040860151606090960151949790965092505050565b60008060408385031215614bbb57600080fd5b50508035926020909101359150565b60008060408385031215614bdd57600080fd5b505080516020909101519092909150565b6000806000806000806000806000806000806101808d8f031215614c1157600080fd5b8c516bffffffffffffffffffffffff81168114614c2d57600080fd5b9b50614c3b60208e01614741565b9a50614c4960408e01614741565b9950614c5760608e01614741565b9850614c6560808e0161474c565b9750614c7360a08e0161474c565b9650614c8160c08e0161474c565b9550614c8f60e08e0161475e565b94506101008d015193506101208d01519250614cae6101408e0161475e565b9150614cbd6101608e0161475e565b90509295989b509295989b509295989b565b60008251614ce1818460208701614ffb565b9190910192915050565b6001600160a01b03929092168252602082015260400190565b6020808252825182820181905260009190848201906040850190845b81811015614d455783516001600160a01b031683529284019291840191600101614d20565b50909695505050505050565b6000604082016040835280865480835260608501915087600052602092508260002060005b82811015614d9b5781546001600160a01b031684529284019260019182019101614d76565b505050838103828501528481528590820160005b86811015614ddd578235614dc281615084565b6001600160a01b031682529183019190830190600101614daf565b50979650505050505050565b6020815260008251806020840152614e08816040850160208701614ffb565b601f01601f19169190910160400192915050565b60208082526017908201527f43616c6c6572206973206e6f7420746865205661756c74000000000000000000604082015260600190565b6020808252601a908201527f43616c6c6572206973206e6f742074686520476f7665726e6f72000000000000604082015260600190565b6020808252600e908201526d1499595b9d1c985b9d0818d85b1b60921b604082015260600190565b81516001600160a01b0316815261018081016020830151614ede60208401826001600160a01b03169052565b506040830151614ef3604084018260020b9052565b506060830151614f08606084018260020b9052565b506080830151614f1d608084018260020b9052565b5060a083015160a083015260c083015160c083015260e083015160e083015261010080840151818401525061012080840151614f63828501826001600160a01b03169052565b50506101408381015190830152610160928301516001600160a01b0316929091019190915290565b60008219821115614f9e57614f9e615042565b500190565b600082614fc057634e487b7160e01b600052601260045260246000fd5b500490565b6000816000190483118215151615614fdf57614fdf615042565b500290565b600082821015614ff657614ff6615042565b500390565b60005b83811015615016578181015183820152602001614ffe565b838111156114145750506000910152565b600060001982141561503b5761503b615042565b5060010190565b634e487b7160e01b600052601160045260246000fd5b634e487b7160e01b600052603260045260246000fd5b634e487b7160e01b600052604160045260246000fd5b6001600160a01b038116811461200e57600080fd5b801515811461200e57600080fdfe53bf423e48ed90e97d02ab0ebab13b2a235a6bfbe9c321847d5c175333ac45357bea13895fa79d2831e0a9e28edede30099005a50d652d8957cf8a607ee6ca4aa264697066735822122099c3db8219b5613a53afb33b9bfc1ade7a4b1642c4552b37de76d9a33ff1e90364736f6c634300080700337bea13895fa79d2831e0a9e28edede30099005a50d652d8957cf8a607ee6ca4a",
  "libraries": {},
  "devdoc": {
    "kind": "dev",
    "methods": {
      "checkBalance(address)": {
        "details": "Get the total asset value held in the platform",
        "params": {
          "_asset": "Address of the asset"
        },
        "returns": {
          "_0": "balance    Total value of the asset in the platform"
        }
      },
      "constructor": {
        "details": "This contract is intended to be used as a proxy. To prevent the      potential confusion of having a functional implementation contract      the constructor has the `initializer` modifier. This way the      `initialize` function can not be called on the implementation contract.      For the same reason the implementation contract also has the governor      set to a zero address.",
        "params": {
          "_clGauge": "Address of the Aerodrome slipstream pool gauge",
          "_clPool": "Address of the Aerodrome concentrated liquidity pool",
          "_lowerBoundingTick": "Smaller bounding tick of our liquidity position",
          "_nonfungiblePositionManager": "Address of position manager to add/remove         the liquidity",
          "_oethbAddress": "Address of the Erc20 OETHb Token contract",
          "_stratConfig": "the basic strategy configuration",
          "_sugarHelper": "Address of the Aerodrome Sugar helper contract",
          "_swapRouter": "Address of the Aerodrome Universal Swap Router",
          "_tickClosestToParity": "Tick that is closer to 1:1 price parity",
          "_upperBoundingTick": "Larger bounding tick of our liquidity position",
          "_wethAddress": "Address of the Erc20 WETH Token contract"
        }
      },
      "deposit(address,uint256)": {
        "params": {
          "_amount": "Units of asset to deposit",
          "_asset": "Address for the asset"
        }
      },
      "getCurrentTradingTick()": {
        "returns": {
          "_currentTick": "Current pool trading tick"
        }
      },
      "getPoolX96Price()": {
        "returns": {
          "_sqrtRatioX96": "Pool price"
        }
      },
      "getPositionPrincipal()": {
        "details": "Returns the balance of both tokens in a given position (excluding fees)",
        "returns": {
          "_amountOethb": "Amount of OETHb in position",
          "_amountWeth": "Amount of WETH in position"
        }
      },
      "getRewardTokenAddresses()": {
        "returns": {
          "_0": "address[] the reward token addresses."
        }
      },
      "getWETHShare()": {
        "returns": {
          "_0": "uint256 1e18 denominated percentage expressing the share"
        }
      },
      "initialize(address[])": {
        "params": {
          "_rewardTokenAddresses": "Address of reward token for platform"
        }
      },
      "rebalance(uint256,bool,uint256)": {
        "params": {
          "_amountToSwap": "The amount of the token to swap",
          "_minTokenReceived": "Slippage check -> minimum amount of token expected in return",
          "_swapWeth": "Swap using WETH when true, use OETHb when false"
        }
      },
      "removePToken(uint256)": {
        "params": {
          "_assetIndex": "Index of the asset to be removed"
        }
      },
      "safeApproveAllTokens()": {
        "details": "Approve the spending of all assets"
      },
      "setAllowedPoolWethShareInterval(uint256,uint256)": {
        "params": {
          "_allowedWethShareEnd": "End of WETH share interval expressed as 18 decimal amount",
          "_allowedWethShareStart": "Start of WETH share interval expressed as 18 decimal amount"
        }
      },
      "setHarvesterAddress(address)": {
        "params": {
          "_harvesterAddress": "Address of the harvester contract."
        }
      },
      "setPTokenAddress(address,address)": {
        "params": {
          "_asset": "Address for the asset",
          "_pToken": "Address for the corresponding platform token"
        }
      },
      "setRewardTokenAddresses(address[])": {
        "params": {
          "_rewardTokenAddresses": "Array of reward token addresses"
        }
      },
      "supportsAsset(address)": {
        "details": "Retuns bool indicating whether asset is supported by strategy",
        "params": {
          "_asset": "Address of the asset"
        }
      },
      "transferGovernance(address)": {
        "params": {
          "_newGovernor": "Address of the new Governor"
        }
      },
      "transferToken(address,uint256)": {
        "params": {
          "_amount": "Amount of the asset to transfer",
          "_asset": "Address for the asset"
        }
      },
      "withdraw(address,address,uint256)": {
        "params": {
          "_amount": "Amount of WETH to withdraw",
          "_asset": "WETH address",
          "_recipient": "Address to which the asset should be sent"
        }
      }
    },
    "stateVariables": {
      "SOLVENCY_THRESHOLD": {
        "details": "a threshold under which the contract no longer allows for the protocol to rebalance. Guarding      against a strategist / guardian being taken over and with multiple transactions draining the      protocol funds."
      },
      "__reserved": {
        "details": "reserved for inheritance"
      },
      "clGauge": {
        "details": "can become an immutable once the gauge is created on the base main-net"
      },
      "sqrtRatioX96TickClosestToParity": {
        "details": "tick closest to 1:1 price parity      Correctly assessing which tick is closer to 1:1 price parity is important since it affects      the way we calculate the underlying assets in check Balance. The underlying aerodrome pool      orders the tokens depending on the values of their addresses. If OETH token is token0 in the pool      then sqrtRatioX96TickClosestToParity=sqrtRatioX96TickLower. If it is token1 in the pool then      sqrtRatioX96TickClosestToParity=sqrtRatioX96TickHigher"
      },
      "sqrtRatioX96TickHigher": {
        "details": "tick higher has value 0 and represents 1:1 price parity of WETH to OETHb"
      },
      "sqrtRatioX96TickLower": {
        "details": "tick lower has value -1 and represents the lowest price of WETH priced in OETHb. Meaning the pool offers less than 1 OETHb for 1 WETH. In other terms to get 1 OETHB the swap needs to offer 1.0001 WETH this is where purchasing OETHb with WETH within the liquidity position is most expensive"
      },
      "underlyingAssets": {
        "details": "Minimum amount of tokens the strategy would be able to withdraw from the pool.      minimum amount of tokens are withdrawn at a 1:1 price"
      }
    },
    "version": 1
  },
  "userdoc": {
    "kind": "user",
    "methods": {
      "OETHb()": {
        "notice": "The address of the OETHb token contract"
      },
      "WETH()": {
        "notice": "The address of the Wrapped ETH (WETH) token contract"
      },
      "allowedWethShareEnd()": {
        "notice": "Marks the end of the interval that defines the allowed range of WETH share in the pre-configured pool's liquidity ticker"
      },
      "allowedWethShareStart()": {
        "notice": "Marks the start of the interval that defines the allowed range of WETH share in the pre-configured pool's liquidity ticker"
      },
      "assetToPToken(address)": {
        "notice": "asset => pToken (Platform Specific Token Address)"
      },
      "clGauge()": {
        "notice": "the gauge for the corresponding Slipstream pool (clPool)"
      },
      "clPool()": {
        "notice": "the underlying AMO Slipstream pool"
      },
      "claimGovernance()": {
        "notice": "Claim Governance of the contract to a new account (`newGovernor`). Can only be called by the new Governor."
      },
      "collectRewardTokens()": {
        "notice": "Collect accumulated reward token and send to Vault."
      },
      "constructor": {
        "notice": "the constructor"
      },
      "deposit(address,uint256)": {
        "notice": "Deposit an amount of assets into the strategy contract. Calling deposit doesn't         automatically deposit funds into the underlying Aerodrome pool"
      },
      "depositAll()": {
        "notice": "Deposit WETH to the strategy contract. This function does not add liquidity to the         underlying Aerodrome pool."
      },
      "getCurrentTradingTick()": {
        "notice": "Returns the current active trading tick of the underlying pool"
      },
      "getPoolX96Price()": {
        "notice": "Returns the current pool price in X96 format"
      },
      "getRewardTokenAddresses()": {
        "notice": "Get the reward token addresses."
      },
      "getWETHShare()": {
        "notice": "Returns the percentage of WETH liquidity in the configured ticker         owned by this strategy contract."
      },
      "governor()": {
        "notice": "Returns the address of the current Governor."
      },
      "harvesterAddress()": {
        "notice": "Address of the Harvester contract allowed to collect reward tokens"
      },
      "helper()": {
        "notice": "helper contract for liquidity and ticker math"
      },
      "initialize(address[])": {
        "notice": "initialize function, to set up initial internal state"
      },
      "isGovernor()": {
        "notice": "Returns true if the caller is the current Governor."
      },
      "lowerTick()": {
        "notice": "lower tick set to -1 representing the price of 1.0001 of WETH for 1 OETHb."
      },
      "onERC721Received(address,address,uint256,bytes)": {
        "notice": "Ref: https://docs.openzeppelin.com/contracts/3.x/api/token/erc721#IERC721Receiver-onERC721Received-address-address-uint256-bytes-"
      },
      "platformAddress()": {
        "notice": "Address of the underlying platform"
      },
      "positionManager()": {
        "notice": "the Position manager contract that is used to manage the pool's position"
      },
      "rebalance(uint256,bool,uint256)": {
        "notice": "Rebalance the pool to the desired token split and Deposit any WETH on the contract to the underlying aerodrome pool. Print the required amount of corresponding OETHb. After the rebalancing is done burn any potentially remaining OETHb tokens still on the strategy contract. This function has a slightly different behaviour depending on the status of the underlying Aerodrome slipstream pool. The function consists of the following 3 steps: 1. withdrawPartialLiquidity -> so that moving the activeTrading price via  a swap is cheaper 2. swapToDesiredPosition   -> move active trading price in the pool to be able to deposit WETH & OETHb                               tokens with the desired pre-configured shares 3. addLiquidity            -> add liquidity into the pool respecting share split configuration Scenario 1: When there is no liquidity in the pool from the strategy but there is from other LPs then             only step 1 is skipped. (It is important to note that liquidity needs to exist in the configured             strategy tick ranges in order for the swap to be possible) Step 3 mints new liquidity position             instead of adding to an existing one. Scenario 2: When there is strategy's liquidity in the pool all 3 steps are taken Exact _amountToSwap, _swapWeth & _minTokenReceived parameters shall be determined by simulating the transaction off-chain. The strategy checks that after the swap the share of the tokens is in the expected ranges."
      },
      "removePToken(uint256)": {
        "notice": "Remove a supported asset by passing its index.      This method can only be called by the system Governor"
      },
      "rewardTokenAddresses(uint256)": {
        "notice": "Address of the reward tokens. eg CRV, BAL, CVX, AURA"
      },
      "setAllowedPoolWethShareInterval(uint256,uint256)": {
        "notice": "Set allowed pool weth share interval. After the rebalance happens the share of WETH token in the ticker needs to be withing the specifications of the interval."
      },
      "setHarvesterAddress(address)": {
        "notice": "Set the Harvester contract that can collect rewards."
      },
      "setPTokenAddress(address,address)": {
        "notice": "Provide support for asset by passing its pToken address.      This method can only be called by the system Governor"
      },
      "setRewardTokenAddresses(address[])": {
        "notice": "Set the reward token addresses. Any old addresses will be overwritten."
      },
      "sqrtRatioX96TickHigher()": {
        "notice": "sqrtRatioX96TickHigher"
      },
      "sqrtRatioX96TickLower()": {
        "notice": "sqrtRatioX96TickLower"
      },
      "swapRouter()": {
        "notice": "the swapRouter for performing swaps"
      },
      "tickSpacing()": {
        "notice": "tick spacing of the pool (set to 1)"
      },
      "tokenId()": {
        "notice": "tokenId of the liquidity position"
      },
      "transferGovernance(address)": {
        "notice": "Transfers Governance of the contract to a new account (`newGovernor`). Can only be called by the current Governor. Must be claimed for this to complete"
      },
      "transferToken(address,uint256)": {
        "notice": "Transfer token to governor. Intended for recovering tokens stuck in      strategy contracts, i.e. mistaken sends."
      },
      "upperTick()": {
        "notice": "lower tick set to 0 representing the price of 1.0000 of WETH for 1 OETHb."
      },
      "vaultAddress()": {
        "notice": "Address of the OToken vault"
      },
      "withdraw(address,address,uint256)": {
        "notice": "Withdraw an `amount` of assets from the platform and         send to the `_recipient`."
      },
      "withdrawAll()": {
        "notice": "Withdraw WETH and sends it to the Vault."
      }
    },
    "version": 1
  },
  "storageLayout": {
    "storage": [
      {
        "astId": 28221,
        "contract": "contracts/strategies/aerodrome/AerodromeAMOStrategy.sol:AerodromeAMOStrategy",
        "label": "initialized",
        "offset": 0,
        "slot": "0",
        "type": "t_bool"
      },
      {
        "astId": 28224,
        "contract": "contracts/strategies/aerodrome/AerodromeAMOStrategy.sol:AerodromeAMOStrategy",
        "label": "initializing",
        "offset": 1,
        "slot": "0",
        "type": "t_bool"
      },
      {
        "astId": 28264,
        "contract": "contracts/strategies/aerodrome/AerodromeAMOStrategy.sol:AerodromeAMOStrategy",
        "label": "______gap",
        "offset": 0,
        "slot": "1",
        "type": "t_array(t_uint256)50_storage"
      },
      {
        "astId": 28344,
        "contract": "contracts/strategies/aerodrome/AerodromeAMOStrategy.sol:AerodromeAMOStrategy",
        "label": "_deprecated_platformAddress",
        "offset": 0,
        "slot": "51",
        "type": "t_address"
      },
      {
        "astId": 28347,
        "contract": "contracts/strategies/aerodrome/AerodromeAMOStrategy.sol:AerodromeAMOStrategy",
        "label": "_deprecated_vaultAddress",
        "offset": 0,
        "slot": "52",
        "type": "t_address"
      },
      {
        "astId": 28352,
        "contract": "contracts/strategies/aerodrome/AerodromeAMOStrategy.sol:AerodromeAMOStrategy",
        "label": "assetToPToken",
        "offset": 0,
        "slot": "53",
        "type": "t_mapping(t_address,t_address)"
      },
      {
        "astId": 28356,
        "contract": "contracts/strategies/aerodrome/AerodromeAMOStrategy.sol:AerodromeAMOStrategy",
        "label": "assetsMapped",
        "offset": 0,
        "slot": "54",
        "type": "t_array(t_address)dyn_storage"
      },
      {
        "astId": 28358,
        "contract": "contracts/strategies/aerodrome/AerodromeAMOStrategy.sol:AerodromeAMOStrategy",
        "label": "_deprecated_rewardTokenAddress",
        "offset": 0,
        "slot": "55",
        "type": "t_address"
      },
      {
        "astId": 28360,
        "contract": "contracts/strategies/aerodrome/AerodromeAMOStrategy.sol:AerodromeAMOStrategy",
        "label": "_deprecated_rewardLiquidationThreshold",
        "offset": 0,
        "slot": "56",
        "type": "t_uint256"
      },
      {
        "astId": 28363,
        "contract": "contracts/strategies/aerodrome/AerodromeAMOStrategy.sol:AerodromeAMOStrategy",
        "label": "harvesterAddress",
        "offset": 0,
        "slot": "57",
        "type": "t_address"
      },
      {
        "astId": 28367,
        "contract": "contracts/strategies/aerodrome/AerodromeAMOStrategy.sol:AerodromeAMOStrategy",
        "label": "rewardTokenAddresses",
        "offset": 0,
        "slot": "58",
        "type": "t_array(t_address)dyn_storage"
      },
      {
        "astId": 28371,
        "contract": "contracts/strategies/aerodrome/AerodromeAMOStrategy.sol:AerodromeAMOStrategy",
        "label": "_reserved",
        "offset": 0,
        "slot": "59",
        "type": "t_array(t_int256)98_storage"
      },
      {
        "astId": 22259,
        "contract": "contracts/strategies/aerodrome/AerodromeAMOStrategy.sol:AerodromeAMOStrategy",
        "label": "tokenId",
        "offset": 0,
        "slot": "157",
        "type": "t_uint256"
      },
      {
        "astId": 22262,
        "contract": "contracts/strategies/aerodrome/AerodromeAMOStrategy.sol:AerodromeAMOStrategy",
        "label": "underlyingAssets",
        "offset": 0,
        "slot": "158",
        "type": "t_uint256"
      },
      {
        "astId": 22265,
        "contract": "contracts/strategies/aerodrome/AerodromeAMOStrategy.sol:AerodromeAMOStrategy",
        "label": "allowedWethShareStart",
        "offset": 0,
        "slot": "159",
        "type": "t_uint256"
      },
      {
        "astId": 22268,
        "contract": "contracts/strategies/aerodrome/AerodromeAMOStrategy.sol:AerodromeAMOStrategy",
        "label": "allowedWethShareEnd",
        "offset": 0,
        "slot": "160",
        "type": "t_uint256"
      },
      {
        "astId": 22273,
        "contract": "contracts/strategies/aerodrome/AerodromeAMOStrategy.sol:AerodromeAMOStrategy",
        "label": "__reserved",
        "offset": 0,
        "slot": "161",
        "type": "t_array(t_int256)46_storage"
      }
    ],
    "types": {
      "t_address": {
        "encoding": "inplace",
        "label": "address",
        "numberOfBytes": "20"
      },
      "t_array(t_address)dyn_storage": {
        "base": "t_address",
        "encoding": "dynamic_array",
        "label": "address[]",
        "numberOfBytes": "32"
      },
      "t_array(t_int256)46_storage": {
        "base": "t_int256",
        "encoding": "inplace",
        "label": "int256[46]",
        "numberOfBytes": "1472"
      },
      "t_array(t_int256)98_storage": {
        "base": "t_int256",
        "encoding": "inplace",
        "label": "int256[98]",
        "numberOfBytes": "3136"
      },
      "t_array(t_uint256)50_storage": {
        "base": "t_uint256",
        "encoding": "inplace",
        "label": "uint256[50]",
        "numberOfBytes": "1600"
      },
      "t_bool": {
        "encoding": "inplace",
        "label": "bool",
        "numberOfBytes": "1"
      },
      "t_int256": {
        "encoding": "inplace",
        "label": "int256",
        "numberOfBytes": "32"
      },
      "t_mapping(t_address,t_address)": {
        "encoding": "mapping",
        "key": "t_address",
        "label": "mapping(address => address)",
        "numberOfBytes": "32",
        "value": "t_address"
      },
      "t_uint256": {
        "encoding": "inplace",
        "label": "uint256",
        "numberOfBytes": "32"
      }
    }
  }
}