{
  "address": "0xEA24e9Bac006DE9635Ac7fA4D767fFb64FB5645c",
  "abi": [
    {
      "inputs": [
        {
          "components": [
            {
              "internalType": "address",
              "name": "platformAddress",
              "type": "address"
            },
            {
              "internalType": "address",
              "name": "vaultAddress",
              "type": "address"
            }
          ],
          "internalType": "struct InitializableAbstractStrategy.BaseStrategyConfig",
          "name": "_baseConfig",
          "type": "tuple"
        },
        {
          "internalType": "address",
          "name": "_oeth",
          "type": "address"
        },
        {
          "internalType": "address",
          "name": "_weth",
          "type": "address"
        },
        {
          "internalType": "address",
          "name": "_gauge",
          "type": "address"
        },
        {
          "internalType": "address",
          "name": "_gaugeFactory",
          "type": "address"
        },
        {
          "internalType": "uint128",
          "name": "_oethCoinIndex",
          "type": "uint128"
        },
        {
          "internalType": "uint128",
          "name": "_wethCoinIndex",
          "type": "uint128"
        }
      ],
      "stateMutability": "nonpayable",
      "type": "constructor"
    },
    {
      "anonymous": false,
      "inputs": [
        {
          "indexed": true,
          "internalType": "address",
          "name": "_asset",
          "type": "address"
        },
        {
          "indexed": false,
          "internalType": "address",
          "name": "_pToken",
          "type": "address"
        },
        {
          "indexed": false,
          "internalType": "uint256",
          "name": "_amount",
          "type": "uint256"
        }
      ],
      "name": "Deposit",
      "type": "event"
    },
    {
      "anonymous": false,
      "inputs": [
        {
          "indexed": true,
          "internalType": "address",
          "name": "previousGovernor",
          "type": "address"
        },
        {
          "indexed": true,
          "internalType": "address",
          "name": "newGovernor",
          "type": "address"
        }
      ],
      "name": "GovernorshipTransferred",
      "type": "event"
    },
    {
      "anonymous": false,
      "inputs": [
        {
          "indexed": false,
          "internalType": "address",
          "name": "_oldHarvesterAddress",
          "type": "address"
        },
        {
          "indexed": false,
          "internalType": "address",
          "name": "_newHarvesterAddress",
          "type": "address"
        }
      ],
      "name": "HarvesterAddressesUpdated",
      "type": "event"
    },
    {
      "anonymous": false,
      "inputs": [
        {
          "indexed": false,
          "internalType": "uint256",
          "name": "newMaxSlippage",
          "type": "uint256"
        }
      ],
      "name": "MaxSlippageUpdated",
      "type": "event"
    },
    {
      "anonymous": false,
      "inputs": [
        {
          "indexed": true,
          "internalType": "address",
          "name": "_asset",
          "type": "address"
        },
        {
          "indexed": false,
          "internalType": "address",
          "name": "_pToken",
          "type": "address"
        }
      ],
      "name": "PTokenAdded",
      "type": "event"
    },
    {
      "anonymous": false,
      "inputs": [
        {
          "indexed": true,
          "internalType": "address",
          "name": "_asset",
          "type": "address"
        },
        {
          "indexed": false,
          "internalType": "address",
          "name": "_pToken",
          "type": "address"
        }
      ],
      "name": "PTokenRemoved",
      "type": "event"
    },
    {
      "anonymous": false,
      "inputs": [
        {
          "indexed": true,
          "internalType": "address",
          "name": "previousGovernor",
          "type": "address"
        },
        {
          "indexed": true,
          "internalType": "address",
          "name": "newGovernor",
          "type": "address"
        }
      ],
      "name": "PendingGovernorshipTransfer",
      "type": "event"
    },
    {
      "anonymous": false,
      "inputs": [
        {
          "indexed": false,
          "internalType": "address[]",
          "name": "_oldAddresses",
          "type": "address[]"
        },
        {
          "indexed": false,
          "internalType": "address[]",
          "name": "_newAddresses",
          "type": "address[]"
        }
      ],
      "name": "RewardTokenAddressesUpdated",
      "type": "event"
    },
    {
      "anonymous": false,
      "inputs": [
        {
          "indexed": false,
          "internalType": "address",
          "name": "recipient",
          "type": "address"
        },
        {
          "indexed": false,
          "internalType": "address",
          "name": "rewardToken",
          "type": "address"
        },
        {
          "indexed": false,
          "internalType": "uint256",
          "name": "amount",
          "type": "uint256"
        }
      ],
      "name": "RewardTokenCollected",
      "type": "event"
    },
    {
      "anonymous": false,
      "inputs": [
        {
          "indexed": true,
          "internalType": "address",
          "name": "_asset",
          "type": "address"
        },
        {
          "indexed": false,
          "internalType": "address",
          "name": "_pToken",
          "type": "address"
        },
        {
          "indexed": false,
          "internalType": "uint256",
          "name": "_amount",
          "type": "uint256"
        }
      ],
      "name": "Withdrawal",
      "type": "event"
    },
    {
      "inputs": [],
      "name": "SOLVENCY_THRESHOLD",
      "outputs": [
        {
          "internalType": "uint256",
          "name": "",
          "type": "uint256"
        }
      ],
      "stateMutability": "view",
      "type": "function"
    },
    {
      "inputs": [
        {
          "internalType": "address",
          "name": "",
          "type": "address"
        }
      ],
      "name": "assetToPToken",
      "outputs": [
        {
          "internalType": "address",
          "name": "",
          "type": "address"
        }
      ],
      "stateMutability": "view",
      "type": "function"
    },
    {
      "inputs": [
        {
          "internalType": "address",
          "name": "_asset",
          "type": "address"
        }
      ],
      "name": "checkBalance",
      "outputs": [
        {
          "internalType": "uint256",
          "name": "balance",
          "type": "uint256"
        }
      ],
      "stateMutability": "view",
      "type": "function"
    },
    {
      "inputs": [],
      "name": "claimGovernance",
      "outputs": [],
      "stateMutability": "nonpayable",
      "type": "function"
    },
    {
      "inputs": [],
      "name": "collectRewardTokens",
      "outputs": [],
      "stateMutability": "nonpayable",
      "type": "function"
    },
    {
      "inputs": [],
      "name": "curvePool",
      "outputs": [
        {
          "internalType": "contract ICurveStableSwapNG",
          "name": "",
          "type": "address"
        }
      ],
      "stateMutability": "view",
      "type": "function"
    },
    {
      "inputs": [
        {
          "internalType": "address",
          "name": "_weth",
          "type": "address"
        },
        {
          "internalType": "uint256",
          "name": "_amount",
          "type": "uint256"
        }
      ],
      "name": "deposit",
      "outputs": [],
      "stateMutability": "nonpayable",
      "type": "function"
    },
    {
      "inputs": [],
      "name": "depositAll",
      "outputs": [],
      "stateMutability": "nonpayable",
      "type": "function"
    },
    {
      "inputs": [],
      "name": "gauge",
      "outputs": [
        {
          "internalType": "contract ICurveXChainLiquidityGauge",
          "name": "",
          "type": "address"
        }
      ],
      "stateMutability": "view",
      "type": "function"
    },
    {
      "inputs": [],
      "name": "gaugeFactory",
      "outputs": [
        {
          "internalType": "contract IChildLiquidityGaugeFactory",
          "name": "",
          "type": "address"
        }
      ],
      "stateMutability": "view",
      "type": "function"
    },
    {
      "inputs": [],
      "name": "getRewardTokenAddresses",
      "outputs": [
        {
          "internalType": "address[]",
          "name": "",
          "type": "address[]"
        }
      ],
      "stateMutability": "view",
      "type": "function"
    },
    {
      "inputs": [],
      "name": "governor",
      "outputs": [
        {
          "internalType": "address",
          "name": "",
          "type": "address"
        }
      ],
      "stateMutability": "view",
      "type": "function"
    },
    {
      "inputs": [],
      "name": "harvesterAddress",
      "outputs": [
        {
          "internalType": "address",
          "name": "",
          "type": "address"
        }
      ],
      "stateMutability": "view",
      "type": "function"
    },
    {
      "inputs": [
        {
          "internalType": "address[]",
          "name": "_rewardTokenAddresses",
          "type": "address[]"
        },
        {
          "internalType": "uint256",
          "name": "_maxSlippage",
          "type": "uint256"
        }
      ],
      "name": "initialize",
      "outputs": [],
      "stateMutability": "nonpayable",
      "type": "function"
    },
    {
      "inputs": [],
      "name": "isGovernor",
      "outputs": [
        {
          "internalType": "bool",
          "name": "",
          "type": "bool"
        }
      ],
      "stateMutability": "view",
      "type": "function"
    },
    {
      "inputs": [],
      "name": "lpToken",
      "outputs": [
        {
          "internalType": "contract IERC20",
          "name": "",
          "type": "address"
        }
      ],
      "stateMutability": "view",
      "type": "function"
    },
    {
      "inputs": [],
      "name": "maxSlippage",
      "outputs": [
        {
          "internalType": "uint256",
          "name": "",
          "type": "uint256"
        }
      ],
      "stateMutability": "view",
      "type": "function"
    },
    {
      "inputs": [
        {
          "internalType": "uint256",
          "name": "_oTokens",
          "type": "uint256"
        }
      ],
      "name": "mintAndAddOTokens",
      "outputs": [],
      "stateMutability": "nonpayable",
      "type": "function"
    },
    {
      "inputs": [],
      "name": "oeth",
      "outputs": [
        {
          "internalType": "contract IERC20",
          "name": "",
          "type": "address"
        }
      ],
      "stateMutability": "view",
      "type": "function"
    },
    {
      "inputs": [],
      "name": "oethCoinIndex",
      "outputs": [
        {
          "internalType": "uint128",
          "name": "",
          "type": "uint128"
        }
      ],
      "stateMutability": "view",
      "type": "function"
    },
    {
      "inputs": [],
      "name": "platformAddress",
      "outputs": [
        {
          "internalType": "address",
          "name": "",
          "type": "address"
        }
      ],
      "stateMutability": "view",
      "type": "function"
    },
    {
      "inputs": [
        {
          "internalType": "uint256",
          "name": "_lpTokens",
          "type": "uint256"
        }
      ],
      "name": "removeAndBurnOTokens",
      "outputs": [],
      "stateMutability": "nonpayable",
      "type": "function"
    },
    {
      "inputs": [
        {
          "internalType": "uint256",
          "name": "_lpTokens",
          "type": "uint256"
        }
      ],
      "name": "removeOnlyAssets",
      "outputs": [],
      "stateMutability": "nonpayable",
      "type": "function"
    },
    {
      "inputs": [
        {
          "internalType": "uint256",
          "name": "_assetIndex",
          "type": "uint256"
        }
      ],
      "name": "removePToken",
      "outputs": [],
      "stateMutability": "nonpayable",
      "type": "function"
    },
    {
      "inputs": [
        {
          "internalType": "uint256",
          "name": "",
          "type": "uint256"
        }
      ],
      "name": "rewardTokenAddresses",
      "outputs": [
        {
          "internalType": "address",
          "name": "",
          "type": "address"
        }
      ],
      "stateMutability": "view",
      "type": "function"
    },
    {
      "inputs": [],
      "name": "safeApproveAllTokens",
      "outputs": [],
      "stateMutability": "nonpayable",
      "type": "function"
    },
    {
      "inputs": [
        {
          "internalType": "address",
          "name": "_harvesterAddress",
          "type": "address"
        }
      ],
      "name": "setHarvesterAddress",
      "outputs": [],
      "stateMutability": "nonpayable",
      "type": "function"
    },
    {
      "inputs": [
        {
          "internalType": "uint256",
          "name": "_maxSlippage",
          "type": "uint256"
        }
      ],
      "name": "setMaxSlippage",
      "outputs": [],
      "stateMutability": "nonpayable",
      "type": "function"
    },
    {
      "inputs": [
        {
          "internalType": "address",
          "name": "_asset",
          "type": "address"
        },
        {
          "internalType": "address",
          "name": "_pToken",
          "type": "address"
        }
      ],
      "name": "setPTokenAddress",
      "outputs": [],
      "stateMutability": "nonpayable",
      "type": "function"
    },
    {
      "inputs": [
        {
          "internalType": "address[]",
          "name": "_rewardTokenAddresses",
          "type": "address[]"
        }
      ],
      "name": "setRewardTokenAddresses",
      "outputs": [],
      "stateMutability": "nonpayable",
      "type": "function"
    },
    {
      "inputs": [
        {
          "internalType": "address",
          "name": "_asset",
          "type": "address"
        }
      ],
      "name": "supportsAsset",
      "outputs": [
        {
          "internalType": "bool",
          "name": "",
          "type": "bool"
        }
      ],
      "stateMutability": "view",
      "type": "function"
    },
    {
      "inputs": [
        {
          "internalType": "address",
          "name": "_newGovernor",
          "type": "address"
        }
      ],
      "name": "transferGovernance",
      "outputs": [],
      "stateMutability": "nonpayable",
      "type": "function"
    },
    {
      "inputs": [
        {
          "internalType": "address",
          "name": "_asset",
          "type": "address"
        },
        {
          "internalType": "uint256",
          "name": "_amount",
          "type": "uint256"
        }
      ],
      "name": "transferToken",
      "outputs": [],
      "stateMutability": "nonpayable",
      "type": "function"
    },
    {
      "inputs": [],
      "name": "vaultAddress",
      "outputs": [
        {
          "internalType": "address",
          "name": "",
          "type": "address"
        }
      ],
      "stateMutability": "view",
      "type": "function"
    },
    {
      "inputs": [],
      "name": "weth",
      "outputs": [
        {
          "internalType": "contract IWETH9",
          "name": "",
          "type": "address"
        }
      ],
      "stateMutability": "view",
      "type": "function"
    },
    {
      "inputs": [],
      "name": "wethCoinIndex",
      "outputs": [
        {
          "internalType": "uint128",
          "name": "",
          "type": "uint128"
        }
      ],
      "stateMutability": "view",
      "type": "function"
    },
    {
      "inputs": [
        {
          "internalType": "address",
          "name": "_recipient",
          "type": "address"
        },
        {
          "internalType": "address",
          "name": "_weth",
          "type": "address"
        },
        {
          "internalType": "uint256",
          "name": "_amount",
          "type": "uint256"
        }
      ],
      "name": "withdraw",
      "outputs": [],
      "stateMutability": "nonpayable",
      "type": "function"
    },
    {
      "inputs": [],
      "name": "withdrawAll",
      "outputs": [],
      "stateMutability": "nonpayable",
      "type": "function"
    }
  ],
  "transactionHash": "0x03fe052048766d21980d2047edc17188384589633bb3507e5941570318a26ab5",
  "args": [
    [
      "0x302A94E3C28c290EAF2a4605FC52e11Eb915f378",
      "0x98a0CbeF61bD2D21435f433bE4CD42B56B38CC93"
    ],
    "0xDBFeFD2e8460a6Ee4955A68582F85708BAEA60A3",
    "0x4200000000000000000000000000000000000006",
    "0x9da8420dbEEBDFc4902B356017610259ef7eeDD8",
    "0xe35A879E5EfB4F1Bb7F70dCF3250f2e19f096bd8",
    1,
    0
  ],
  "numDeployments": 2,
  "solcInputHash": "ea5866f942a7edcd1f4e3b18c390601e",
  "bytecode": "0x6101c060405234801561001157600080fd5b5060405161523238038061523283398101604081905261003091610138565b86516001600160a01b039081166080526020880151811660a0526001600160801b038084166101805282166101a0528751811661010052875181166101205286811660e05285811660c05284811661014052831661016052610092600061009e565b50505050505050610215565b6001600160a01b0381166100be6000805160206152128339815191525490565b6001600160a01b03167fc7c0c772add429241571afb3805861fb3cfa2af374534088b76cdb4325a87e9a60405160405180910390a360008051602061521283398151915255565b80516001600160a01b038116811461011c57600080fd5b919050565b80516001600160801b038116811461011c57600080fd5b600080600080600080600087890361010081121561015557600080fd5b604081121561016357600080fd5b50604080519081016001600160401b038111828210171561019457634e487b7160e01b600052604160045260246000fd5b6040526101a089610105565b81526101ae60208a01610105565b602082015296506101c160408901610105565b95506101cf60608901610105565b94506101dd60808901610105565b93506101eb60a08901610105565b92506101f960c08901610121565b915061020760e08901610121565b905092959891949750929550565b60805160a05160c05160e05161010051610120516101405161016051610180516101a051614cdb61053760003960008181610414015281816107de0152818161082a01528181610a6801528181610f040152818161275901528181612d69015281816136f30152818161388b01526140020152600081816104790152818161079301528181610a2a01528181610ec601528181610fff01528181612d2b01528181612db5015281816136ac01526138d301526000818161027601526114cb0152600081816104d7015281816111e8015281816114a3015281816115290152818161177101528181611bc901528181613abe01528181613f060152613f8b015260008181610309015281816107050152818161099c01528181610e380152818161104a015281816110fb015281816112df015281816117ef0152818161197c01528181611c94015281816127b301528181612c9d01528181612fa90152818161307d015281816136190152818161391e015281816139d101526140360152600081816103da01528181610961015281816112a101528181611cbe0152818161202d0152818161209e015281816126e80152818161297501528181612e99015281816135df0152818161383001528181613ed901526140a80152600081816105710152818161125601528181611da7015281816120650152818161284a0152818161293c01528181612e6001528181613185015281816137e50152613d7101526000818161034301528181610509015281816108680152818161092801528181610cbf01528181611653015281816116db015281816119ed01528181611eae01528181611f3c01528181611ff401528181612655015281816129c201528181612b0401528181612b840152818161353b0152613e2501526000818161036a015281816106120152818161089501528181610d4e01528181610f5f0152818161137601528181611adf01528181611e3301528181611f6901528181612590015281816128d601528181612a7901528181612bb301528181612df2015281816130ff015261377f0152600081816105be01528181613d9e0152613e520152614cdb6000f3fe608060405234801561001057600080fd5b50600436106102325760003560e01c806367c7066c11610130578063ad1728cb116100b8578063d9caed121161007c578063d9caed12146105a6578063dbe55e56146105b9578063de5f6268146105e0578063e033193a146105e8578063f6ca71b0146105fb57600080fd5b8063ad1728cb14610549578063c2e1e3f414610551578063c7af335214610564578063ccfe2a691461056c578063d38bfff41461059357600080fd5b80638c04166f116100ff5780638c04166f146104a35780639136616a146104ac57806396d538bb146104bf578063a6f19c84146104d2578063aa388af6146104f957600080fd5b806367c7066c1461044e5780637b2d9b2c146104615780637e489e0514610474578063853828b61461049b57600080fd5b80633fc8cef3116101be5780635d36b190116101825780635d36b190146103ba5780635f515226146103c25780635fcbd285146103d557806360b5bb3f146103fc578063625a91331461040f57600080fd5b80633fc8cef31461033e578063430bf08a1461036557806343f68a491461038c57806347e7ef241461039f5780635a063f63146103b257600080fd5b80630fc3b4c4116102055780630fc3b4c4146102ab5780631072cbea146102d45780631b91d0cc146102e7578063218751b214610304578063371450381461032b57600080fd5b8063012c6383146102375780630c340a241461024c5780630d52333c146102715780630ed57b3a14610298575b600080fd5b61024a610245366004614561565b610610565b005b610254610c42565b6040516001600160a01b0390911681526020015b60405180910390f35b6102547f000000000000000000000000000000000000000000000000000000000000000081565b61024a6102a636600461458f565b610c5f565b6102546102b93660046145c8565b6035602052600090815260409020546001600160a01b031681565b61024a6102e23660046145e5565b610c91565b6102f6670dd99bb65dd7000081565b604051908152602001610268565b6102547f000000000000000000000000000000000000000000000000000000000000000081565b61024a610339366004614561565b610d4c565b6102547f000000000000000000000000000000000000000000000000000000000000000081565b6102547f000000000000000000000000000000000000000000000000000000000000000081565b61024a61039a366004614561565b61133b565b61024a6103ad3660046145e5565b61136b565b61024a6113fc565b61024a6115a9565b6102f66103d03660046145c8565b61164f565b6102547f000000000000000000000000000000000000000000000000000000000000000081565b61024a61040a36600461465d565b611896565b6104367f000000000000000000000000000000000000000000000000000000000000000081565b6040516001600160801b039091168152602001610268565b603954610254906001600160a01b031681565b61025461046f366004614561565b611aaa565b6104367f000000000000000000000000000000000000000000000000000000000000000081565b61024a611ad4565b6102f6609d5481565b61024a6104ba366004614561565b6120df565b61024a6104cd3660046146a9565b6122aa565b6102547f000000000000000000000000000000000000000000000000000000000000000081565b6105396105073660046145c8565b7f00000000000000000000000000000000000000000000000000000000000000006001600160a01b0390811691161490565b6040519015158152602001610268565b61024a6123c1565b61024a61055f3660046145c8565b612423565b6105396124b0565b6102547f000000000000000000000000000000000000000000000000000000000000000081565b61024a6105a13660046145c8565b6124e1565b61024a6105b43660046146eb565b612585565b6102547f000000000000000000000000000000000000000000000000000000000000000081565b61024a612a6e565b61024a6105f6366004614561565b612bb1565b610603612ec7565b604051610268919061472c565b7f00000000000000000000000000000000000000000000000000000000000000006001600160a01b031663570d8e1d6040518163ffffffff1660e01b8152600401602060405180830381865afa15801561066e573d6000803e3d6000fd5b505050506040513d601f19601f820116820180604052508101906106929190614778565b6001600160a01b0316336001600160a01b0316146106cb5760405162461bcd60e51b81526004016106c290614795565b60405180910390fd5b600080516020614c46833981519152805460011981016106fd5760405162461bcd60e51b81526004016106c2906147cc565b6002825560007f00000000000000000000000000000000000000000000000000000000000000006001600160a01b03166314f059796040518163ffffffff1660e01b8152600401600060405180830381865afa158015610761573d6000803e3d6000fd5b505050506040513d6000823e601f3d908101601f19168201604052610789919081019061480a565b905060006107d8827f00000000000000000000000000000000000000000000000000000000000000006001600160801b0316815181106107cb576107cb6148d7565b6020026020010151612f29565b610816837f00000000000000000000000000000000000000000000000000000000000000006001600160801b0316815181106107cb576107cb6148d7565b6108209190614903565b9050600061084e867f0000000000000000000000000000000000000000000000000000000000000000612f97565b60405163a9059cbb60e01b81529091506001600160a01b037f0000000000000000000000000000000000000000000000000000000000000000169063a9059cbb906108bf907f000000000000000000000000000000000000000000000000000000000000000090859060040161492a565b6020604051808303816000875af11580156108de573d6000803e3d6000fd5b505050506040513d601f19601f820116820180604052508101906109029190614943565b61091e5760405162461bcd60e51b81526004016106c290614965565b6109266130fb565b7f00000000000000000000000000000000000000000000000000000000000000006001600160a01b0316600080516020614c868339815191527f00000000000000000000000000000000000000000000000000000000000000008360405161098f92919061492a565b60405180910390a25060007f00000000000000000000000000000000000000000000000000000000000000006001600160a01b03166314f059796040518163ffffffff1660e01b8152600401600060405180830381865afa1580156109f8573d6000803e3d6000fd5b505050506040513d6000823e601f3d908101601f19168201604052610a20919081019061480a565b90506000610a62827f00000000000000000000000000000000000000000000000000000000000000006001600160801b0316815181106107cb576107cb6148d7565b610aa0837f00000000000000000000000000000000000000000000000000000000000000006001600160801b0316815181106107cb576107cb6148d7565b610aaa9190614903565b905082600003610b07578015610b025760405162461bcd60e51b815260206004820152601c60248201527f506f736974696f6e2062616c616e636520697320776f7273656e65640000000060448201526064016106c2565b610c35565b6000831215610b9f576000811315610b585760405162461bcd60e51b81526020600482015260146024820152734f546f6b656e73206f76657273686f742070656760601b60448201526064016106c2565b808312610b025760405162461bcd60e51b81526020600482015260156024820152744f546f6b656e732062616c616e636520776f72736560581b60448201526064016106c2565b6000831315610c35576000811215610bef5760405162461bcd60e51b8152602060048201526013602482015272417373657473206f76657273686f742070656760681b60448201526064016106c2565b828112610c355760405162461bcd60e51b81526020600482015260146024820152734173736574732062616c616e636520776f72736560601b60448201526064016106c2565b5050505060018255505050565b6000610c5a600080516020614c668339815191525490565b905090565b610c676124b0565b610c835760405162461bcd60e51b81526004016106c29061499c565b610c8d828261325d565b5050565b610c996124b0565b610cb55760405162461bcd60e51b81526004016106c29061499c565b6001600160a01b037f0000000000000000000000000000000000000000000000000000000000000000811690831603610d305760405162461bcd60e51b815260206004820152601f60248201527f43616e6e6f74207472616e7366657220737570706f727465642061737365740060448201526064016106c2565b610c8d610d3b610c42565b6001600160a01b03841690836133bc565b7f00000000000000000000000000000000000000000000000000000000000000006001600160a01b031663570d8e1d6040518163ffffffff1660e01b8152600401602060405180830381865afa158015610daa573d6000803e3d6000fd5b505050506040513d601f19601f82011682018060405250810190610dce9190614778565b6001600160a01b0316336001600160a01b031614610dfe5760405162461bcd60e51b81526004016106c290614795565b600080516020614c4683398151915280546001198101610e305760405162461bcd60e51b81526004016106c2906147cc565b6002825560007f00000000000000000000000000000000000000000000000000000000000000006001600160a01b03166314f059796040518163ffffffff1660e01b8152600401600060405180830381865afa158015610e94573d6000803e3d6000fd5b505050506040513d6000823e601f3d908101601f19168201604052610ebc919081019061480a565b90506000610efe827f00000000000000000000000000000000000000000000000000000000000000006001600160801b0316815181106107cb576107cb6148d7565b610f3c837f00000000000000000000000000000000000000000000000000000000000000006001600160801b0316815181106107cb576107cb6148d7565b610f469190614903565b60405163ab80dafb60e01b8152600481018790529091507f00000000000000000000000000000000000000000000000000000000000000006001600160a01b03169063ab80dafb90602401600060405180830381600087803b158015610fab57600080fd5b505af1158015610fbf573d6000803e3d6000fd5b506000925060029150610fcf9050565b604051908082528060200260200182016040528015610ff8578160200160208202803683370190505b50905085817f00000000000000000000000000000000000000000000000000000000000000006001600160801b031681518110611037576110376148d7565b60200260200101818152505060006110d17f00000000000000000000000000000000000000000000000000000000000000006001600160a01b031663bb7b8b806040518163ffffffff1660e01b8152600401602060405180830381865afa1580156110a6573d6000803e3d6000fd5b505050506040513d601f19601f820116820180604052508101906110ca91906149d3565b8890613417565b905060006110f5609d54670de0b6b3a76400006110ee91906149ec565b8390613442565b905060007f00000000000000000000000000000000000000000000000000000000000000006001600160a01b031663b72df5de85846040518363ffffffff1660e01b8152600401611147929190614a3b565b6020604051808303816000875af1158015611166573d6000803e3d6000fd5b505050506040513d601f19601f8201168201806040525081019061118a91906149d3565b9050818110156111d25760405162461bcd60e51b815260206004820152601360248201527226b4b71026281030b6b7bab73a1032b93937b960691b60448201526064016106c2565b60405163b6b55f2560e01b8152600481018290527f00000000000000000000000000000000000000000000000000000000000000006001600160a01b03169063b6b55f2590602401600060405180830381600087803b15801561123457600080fd5b505af1158015611248573d6000803e3d6000fd5b505050506112546130fb565b7f00000000000000000000000000000000000000000000000000000000000000006001600160a01b03167f5548c837ab068cf56a2c2479df0882a4922fd203edb7517321831d95078c5f627f00000000000000000000000000000000000000000000000000000000000000008b6040516112cf92919061492a565b60405180910390a25050505060007f00000000000000000000000000000000000000000000000000000000000000006001600160a01b03166314f059796040518163ffffffff1660e01b8152600401600060405180830381865afa1580156109f8573d6000803e3d6000fd5b6113436124b0565b61135f5760405162461bcd60e51b81526004016106c29061499c565b6113688161345e565b50565b336001600160a01b037f000000000000000000000000000000000000000000000000000000000000000016146113b35760405162461bcd60e51b81526004016106c290614a5d565b600080516020614c46833981519152805460011981016113e55760405162461bcd60e51b81526004016106c2906147cc565b600282556113f384846134f0565b50600190555050565b6039546001600160a01b031633146114565760405162461bcd60e51b815260206004820152601b60248201527f43616c6c6572206973206e6f742074686520486172766573746572000000000060448201526064016106c2565b600080516020614c46833981519152805460011981016114885760405162461bcd60e51b81526004016106c2906147cc565b600282556040516335313c2160e11b81526001600160a01b037f0000000000000000000000000000000000000000000000000000000000000000811660048301527f00000000000000000000000000000000000000000000000000000000000000001690636a62784290602401600060405180830381600087803b15801561150f57600080fd5b505af1158015611523573d6000803e3d6000fd5b505050507f00000000000000000000000000000000000000000000000000000000000000006001600160a01b031663e6f1daf26040518163ffffffff1660e01b8152600401600060405180830381600087803b15801561158257600080fd5b505af1158015611596573d6000803e3d6000fd5b505050506115a2613b34565b5060019055565b7f44c4d30b2eaad5130ad70c3ba6972730566f3e6359ab83e800d905c61b1c51db546001600160a01b0316336001600160a01b0316146116445760405162461bcd60e51b815260206004820152603060248201527f4f6e6c79207468652070656e64696e6720476f7665726e6f722063616e20636f60448201526f6d706c6574652074686520636c61696d60801b60648201526084016106c2565b61164d33613c48565b565b60007f00000000000000000000000000000000000000000000000000000000000000006001600160a01b0316826001600160a01b0316146116c65760405162461bcd60e51b8152602060048201526011602482015270155b9cdd5c1c1bdc9d195908185cdcd95d607a1b60448201526064016106c2565b6040516370a0823160e01b81523060048201527f00000000000000000000000000000000000000000000000000000000000000006001600160a01b0316906370a0823190602401602060405180830381865afa15801561172a573d6000803e3d6000fd5b505050506040513d601f19601f8201168201806040525081019061174e91906149d3565b6040516370a0823160e01b81523060048201529091506000906001600160a01b037f000000000000000000000000000000000000000000000000000000000000000016906370a0823190602401602060405180830381865afa1580156117b8573d6000803e3d6000fd5b505050506040513d601f19601f820116820180604052508101906117dc91906149d3565b9050801561189057670de0b6b3a76400007f00000000000000000000000000000000000000000000000000000000000000006001600160a01b031663bb7b8b806040518163ffffffff1660e01b8152600401602060405180830381865afa15801561184b573d6000803e3d6000fd5b505050506040513d601f19601f8201168201806040525081019061186f91906149d3565b6118799083614a94565b6118839190614aab565b61188d9083614acd565b91505b50919050565b61189e6124b0565b6118ba5760405162461bcd60e51b81526004016106c29061499c565b600054610100900460ff16806118d3575060005460ff16155b6119365760405162461bcd60e51b815260206004820152602e60248201527f496e697469616c697a61626c653a20636f6e747261637420697320616c72656160448201526d191e481a5b9a5d1a585b1a5e995960921b60648201526084016106c2565b600054610100900460ff16158015611958576000805461ffff19166101011790555b604080516001808252818301909252600091602080830190803683370190505090507f0000000000000000000000000000000000000000000000000000000000000000816000815181106119ae576119ae6148d7565b6001600160a01b0392909216602092830291909101909101526040805160018082528183019092526000918160200160208202803683370190505090507f000000000000000000000000000000000000000000000000000000000000000081600081518110611a1f57611a1f6148d7565b60200260200101906001600160a01b031690816001600160a01b031681525050611a7f868680806020026020016040519081016040528093929190818152602001838360200280828437600092019190915250859250869150613ca79050565b611a87613d5a565b611a908461345e565b50508015611aa4576000805461ff00191690555b50505050565b603a8181548110611aba57600080fd5b6000918252602090912001546001600160a01b0316905081565b336001600160a01b037f0000000000000000000000000000000000000000000000000000000000000000161480611b235750611b0e610c42565b6001600160a01b0316336001600160a01b0316145b611b7b5760405162461bcd60e51b815260206004820152602360248201527f43616c6c6572206973206e6f7420746865205661756c74206f7220476f7665726044820152623737b960e91b60648201526084016106c2565b600080516020614c4683398151915280546001198101611bad5760405162461bcd60e51b81526004016106c2906147cc565b600282556040516370a0823160e01b81523060048201526000907f00000000000000000000000000000000000000000000000000000000000000006001600160a01b0316906370a0823190602401602060405180830381865afa158015611c18573d6000803e3d6000fd5b505050506040513d601f19601f82011682018060405250810190611c3c91906149d3565b905080600003611c4c57506115a2565b611c5581613f75565b604080516002808252606082018352600092602083019080368337019050506040516370a0823160e01b81523060048201529091506001600160a01b037f000000000000000000000000000000000000000000000000000000000000000081169163d40ddb8c917f000000000000000000000000000000000000000000000000000000000000000016906370a0823190602401602060405180830381865afa158015611d05573d6000803e3d6000fd5b505050506040513d601f19601f82011682018060405250810190611d2991906149d3565b836040518363ffffffff1660e01b8152600401611d47929190614ae0565b6000604051808303816000875af1158015611d66573d6000803e3d6000fd5b505050506040513d6000823e601f3d908101601f19168201604052611d8e919081019061480a565b506040516370a0823160e01b81523060048201526000907f00000000000000000000000000000000000000000000000000000000000000006001600160a01b0316906370a0823190602401602060405180830381865afa158015611df6573d6000803e3d6000fd5b505050506040513d601f19601f82011682018060405250810190611e1a91906149d3565b60405163310bf9f560e11b8152600481018290529091507f00000000000000000000000000000000000000000000000000000000000000006001600160a01b031690636217f3ea90602401600060405180830381600087803b158015611e7f57600080fd5b505af1158015611e93573d6000803e3d6000fd5b50506040516370a0823160e01b8152306004820152600092507f00000000000000000000000000000000000000000000000000000000000000006001600160a01b031691506370a0823190602401602060405180830381865afa158015611efe573d6000803e3d6000fd5b505050506040513d601f19601f82011682018060405250810190611f2291906149d3565b60405163a9059cbb60e01b81529091506001600160a01b037f0000000000000000000000000000000000000000000000000000000000000000169063a9059cbb90611f93907f000000000000000000000000000000000000000000000000000000000000000090859060040161492a565b6020604051808303816000875af1158015611fb2573d6000803e3d6000fd5b505050506040513d601f19601f82011682018060405250810190611fd69190614943565b611ff25760405162461bcd60e51b81526004016106c290614965565b7f00000000000000000000000000000000000000000000000000000000000000006001600160a01b0316600080516020614c868339815191527f00000000000000000000000000000000000000000000000000000000000000008360405161205b92919061492a565b60405180910390a27f00000000000000000000000000000000000000000000000000000000000000006001600160a01b0316600080516020614c868339815191527f0000000000000000000000000000000000000000000000000000000000000000846040516120cc92919061492a565b60405180910390a2505050505060019055565b6120e76124b0565b6121035760405162461bcd60e51b81526004016106c29061499c565b60365481106121445760405162461bcd60e51b815260206004820152600d60248201526c092dcecc2d8d2c840d2dcc8caf609b1b60448201526064016106c2565b600060368281548110612159576121596148d7565b60009182526020808320909101546001600160a01b03908116808452603590925260409092205460365491935090911690612196906001906149ec565b83101561221857603680546121ad906001906149ec565b815481106121bd576121bd6148d7565b600091825260209091200154603680546001600160a01b0390921691859081106121e9576121e96148d7565b9060005260206000200160006101000a8154816001600160a01b0302191690836001600160a01b031602179055505b603680548061222957612229614af9565b60008281526020808220600019908401810180546001600160a01b031990811690915593019093556001600160a01b038581168083526035855260409283902080549094169093559051908416815290917f16b7600acff27e39a8a96056b3d533045298de927507f5c1d97e4accde60488c910160405180910390a2505050565b6122b26124b0565b6122ce5760405162461bcd60e51b81526004016106c29061499c565b8060005b818110156123785760008484838181106122ee576122ee6148d7565b905060200201602081019061230391906145c8565b6001600160a01b0316036123705760405162461bcd60e51b815260206004820152602e60248201527f43616e206e6f742073657420616e20656d70747920616464726573732061732060448201526d30903932bbb0b932103a37b5b2b760911b60648201526084016106c2565b6001016122d2565b507f04c0b9649497d316554306e53678d5f5f5dbc3a06f97dec13ff4cfe98b986bbc603a84846040516123ad93929190614b0f565b60405180910390a1611aa4603a8484614498565b6123c96124b0565b6123e55760405162461bcd60e51b81526004016106c29061499c565b600080516020614c46833981519152805460011981016124175760405162461bcd60e51b81526004016106c2906147cc565b600282556115a2613d5a565b61242b6124b0565b6124475760405162461bcd60e51b81526004016106c29061499c565b603954604080516001600160a01b03928316815291831660208301527fe48386b84419f4d36e0f96c10cc3510b6fb1a33795620c5098b22472bbe90796910160405180910390a1603980546001600160a01b0319166001600160a01b0392909216919091179055565b60006124c8600080516020614c668339815191525490565b6001600160a01b0316336001600160a01b031614905090565b6124e96124b0565b6125055760405162461bcd60e51b81526004016106c29061499c565b61252d817f44c4d30b2eaad5130ad70c3ba6972730566f3e6359ab83e800d905c61b1c51db55565b806001600160a01b031661254d600080516020614c668339815191525490565b6001600160a01b03167fa39cc5eb22d0f34d8beaefee8a3f17cc229c1a1d1ef87a5ad47313487b1c4f0d60405160405180910390a350565b336001600160a01b037f000000000000000000000000000000000000000000000000000000000000000016146125cd5760405162461bcd60e51b81526004016106c290614a5d565b600080516020614c46833981519152805460011981016125ff5760405162461bcd60e51b81526004016106c2906147cc565b60028255600083116126535760405162461bcd60e51b815260206004820152601760248201527f4d75737420776974686472617720736f6d657468696e6700000000000000000060448201526064016106c2565b7f00000000000000000000000000000000000000000000000000000000000000006001600160a01b0316846001600160a01b0316146126cd5760405162461bcd60e51b8152602060048201526016602482015275086c2dc40dedcd8f240eed2e8d0c8e4c2ee40ae8aa8960531b60448201526064016106c2565b836001600160a01b0316600080516020614c868339815191527f00000000000000000000000000000000000000000000000000000000000000008560405161271692919061492a565b60405180910390a2600061272984613feb565b905061273481613f75565b60408051600280825260608201835260009260208301908036833701905050905084817f00000000000000000000000000000000000000000000000000000000000000006001600160801b031681518110612791576127916148d7565b602090810291909101015260405163350376e360e21b81526001600160a01b037f0000000000000000000000000000000000000000000000000000000000000000169063d40ddb8c906127ea9085908590600401614ae0565b6000604051808303816000875af1158015612809573d6000803e3d6000fd5b505050506040513d6000823e601f3d908101601f19168201604052612831919081019061480a565b506040516370a0823160e01b81523060048201526000907f00000000000000000000000000000000000000000000000000000000000000006001600160a01b0316906370a0823190602401602060405180830381865afa158015612899573d6000803e3d6000fd5b505050506040513d601f19601f820116820180604052508101906128bd91906149d3565b60405163310bf9f560e11b8152600481018290529091507f00000000000000000000000000000000000000000000000000000000000000006001600160a01b031690636217f3ea90602401600060405180830381600087803b15801561292257600080fd5b505af1158015612936573d6000803e3d6000fd5b505050507f00000000000000000000000000000000000000000000000000000000000000006001600160a01b0316600080516020614c868339815191527f0000000000000000000000000000000000000000000000000000000000000000836040516129a392919061492a565b60405180910390a260405163a9059cbb60e01b81526001600160a01b037f0000000000000000000000000000000000000000000000000000000000000000169063a9059cbb906129f9908b908a9060040161492a565b6020604051808303816000875af1158015612a18573d6000803e3d6000fd5b505050506040513d601f19601f82011682018060405250810190612a3c9190614943565b612a585760405162461bcd60e51b81526004016106c290614965565b612a606130fb565b505050600182555050505050565b336001600160a01b037f00000000000000000000000000000000000000000000000000000000000000001614612ab65760405162461bcd60e51b81526004016106c290614a5d565b600080516020614c4683398151915280546001198101612ae85760405162461bcd60e51b81526004016106c2906147cc565b600282556040516370a0823160e01b81523060048201526000907f00000000000000000000000000000000000000000000000000000000000000006001600160a01b0316906370a0823190602401602060405180830381865afa158015612b53573d6000803e3d6000fd5b505050506040513d601f19601f82011682018060405250810190612b7791906149d3565b90508015612ba957612ba97f0000000000000000000000000000000000000000000000000000000000000000826134f0565b505060019055565b7f00000000000000000000000000000000000000000000000000000000000000006001600160a01b031663570d8e1d6040518163ffffffff1660e01b8152600401602060405180830381865afa158015612c0f573d6000803e3d6000fd5b505050506040513d601f19601f82011682018060405250810190612c339190614778565b6001600160a01b0316336001600160a01b031614612c635760405162461bcd60e51b81526004016106c290614795565b600080516020614c4683398151915280546001198101612c955760405162461bcd60e51b81526004016106c2906147cc565b6002825560007f00000000000000000000000000000000000000000000000000000000000000006001600160a01b03166314f059796040518163ffffffff1660e01b8152600401600060405180830381865afa158015612cf9573d6000803e3d6000fd5b505050506040513d6000823e601f3d908101601f19168201604052612d21919081019061480a565b90506000612d63827f00000000000000000000000000000000000000000000000000000000000000006001600160801b0316815181106107cb576107cb6148d7565b612da1837f00000000000000000000000000000000000000000000000000000000000000006001600160801b0316815181106107cb576107cb6148d7565b612dab9190614903565b90506000612dd9867f0000000000000000000000000000000000000000000000000000000000000000612f97565b60405163310bf9f560e11b8152600481018290529091507f00000000000000000000000000000000000000000000000000000000000000006001600160a01b031690636217f3ea90602401600060405180830381600087803b158015612e3e57600080fd5b505af1158015612e52573d6000803e3d6000fd5b50505050612e5e6130fb565b7f00000000000000000000000000000000000000000000000000000000000000006001600160a01b0316600080516020614c868339815191527f00000000000000000000000000000000000000000000000000000000000000008360405161098f92919061492a565b6060603a805480602002602001604051908101604052809291908181526020018280548015612f1f57602002820191906000526020600020905b81546001600160a01b03168152600190910190602001808311612f01575b5050505050905090565b60006001600160ff1b03821115612f935760405162461bcd60e51b815260206004820152602860248201527f53616665436173743a2076616c756520646f65736e27742066697420696e2061604482015267371034b73a191a9b60c11b60648201526084016106c2565b5090565b6000612fa283613f75565b60006130307f00000000000000000000000000000000000000000000000000000000000000006001600160a01b031663bb7b8b806040518163ffffffff1660e01b8152600401602060405180830381865afa158015613005573d6000803e3d6000fd5b505050506040513d601f19601f8201168201806040525081019061302991906149d3565b8590613442565b9050600061304d609d54670de0b6b3a76400006110ee91906149ec565b60405163081579a560e01b815260048101879052600f86900b6024820152604481018290523060648201529091507f00000000000000000000000000000000000000000000000000000000000000006001600160a01b03169063081579a5906084016020604051808303816000875af11580156130ce573d6000803e3d6000fd5b505050506040513d601f19601f820116820180604052508101906130f291906149d3565b95945050505050565b60007f00000000000000000000000000000000000000000000000000000000000000006001600160a01b031663d4c3eea06040518163ffffffff1660e01b8152600401602060405180830381865afa15801561315b573d6000803e3d6000fd5b505050506040513d601f19601f8201168201806040525081019061317f91906149d3565b905060007f00000000000000000000000000000000000000000000000000000000000000006001600160a01b03166318160ddd6040518163ffffffff1660e01b8152600401602060405180830381865afa1580156131e1573d6000803e3d6000fd5b505050506040513d601f19601f8201168201806040525081019061320591906149d3565b9050670dd99bb65dd7000061321a8383613417565b1015610c8d5760405162461bcd60e51b8152602060048201526012602482015271141c9bdd1bd8dbdb081a5b9cdbdb1d995b9d60721b60448201526064016106c2565b6001600160a01b0382811660009081526035602052604090205416156132ba5760405162461bcd60e51b81526020600482015260126024820152711c151bdad95b88185b1c9958591e481cd95d60721b60448201526064016106c2565b6001600160a01b038216158015906132da57506001600160a01b03811615155b61331a5760405162461bcd60e51b8152602060048201526011602482015270496e76616c69642061646472657373657360781b60448201526064016106c2565b6001600160a01b03828116600081815260356020908152604080832080549587166001600160a01b031996871681179091556036805460018101825594527f4a11f94e20a93c79f6ec743a1954ec4fc2c08429ae2122118bf234b2185c81b890930180549095168417909455925190815290917fef6485b84315f9b1483beffa32aae9a0596890395e3d7521f1c5fbb51790e765910160405180910390a25050565b6134128363a9059cbb60e01b84846040516024016133db92919061492a565b60408051601f198184030181529190526020810180516001600160e01b03166001600160e01b031990931692909217909152614180565b505050565b60008061342c84670de0b6b3a7640000614252565b9050613438818461425e565b9150505b92915050565b60006134578383670de0b6b3a764000061426a565b9392505050565b66b1a2bc2ec500008111156134b55760405162461bcd60e51b815260206004820152601f60248201527f536c697070616765206d757374206265206c657373207468616e20313030250060448201526064016106c2565b609d8190556040518181527f9c922f6d0c990b250e9dd0a427a5c8da7f44b960f697fecb31cbbd8ba79ec8c29060200160405180910390a150565b600081116135395760405162461bcd60e51b81526020600482015260166024820152754d757374206465706f73697420736f6d657468696e6760501b60448201526064016106c2565b7f00000000000000000000000000000000000000000000000000000000000000006001600160a01b0316826001600160a01b0316146135b25760405162461bcd60e51b8152602060048201526015602482015274086c2dc40dedcd8f240c8cae0dee6d2e840ae8aa89605b1b60448201526064016106c2565b816001600160a01b03167f5548c837ab068cf56a2c2479df0882a4922fd203edb7517321831d95078c5f627f00000000000000000000000000000000000000000000000000000000000000008360405161360d92919061492a565b60405180910390a260007f00000000000000000000000000000000000000000000000000000000000000006001600160a01b03166314f059796040518163ffffffff1660e01b8152600401600060405180830381865afa158015613675573d6000803e3d6000fd5b505050506040513d6000823e601f3d908101601f1916820160405261369d919081019061480a565b9050600061374460006136e4847f00000000000000000000000000000000000000000000000000000000000000006001600160801b0316815181106107cb576107cb6148d7565b6136ed86612f29565b61372b867f00000000000000000000000000000000000000000000000000000000000000006001600160801b0316815181106107cb576107cb6148d7565b6137359190614baa565b61373f9190614903565b614283565b9050613750818461429a565b905061376681613761856002614a94565b6142aa565b60405163ab80dafb60e01b8152600481018290529091507f00000000000000000000000000000000000000000000000000000000000000006001600160a01b03169063ab80dafb90602401600060405180830381600087803b1580156137cb57600080fd5b505af11580156137df573d6000803e3d6000fd5b505050507f00000000000000000000000000000000000000000000000000000000000000006001600160a01b03167f5548c837ab068cf56a2c2479df0882a4922fd203edb7517321831d95078c5f627f00000000000000000000000000000000000000000000000000000000000000008360405161385e92919061492a565b60405180910390a260408051600280825260608201835260009260208301908036833701905050905083817f00000000000000000000000000000000000000000000000000000000000000006001600160801b0316815181106138c3576138c36148d7565b60200260200101818152505081817f00000000000000000000000000000000000000000000000000000000000000006001600160801b03168151811061390b5761390b6148d7565b60200260200101818152505060006139ae7f00000000000000000000000000000000000000000000000000000000000000006001600160a01b031663bb7b8b806040518163ffffffff1660e01b8152600401602060405180830381865afa15801561397a573d6000803e3d6000fd5b505050506040513d601f19601f8201168201806040525081019061399e91906149d3565b6139a88588614acd565b90613417565b905060006139cb609d54670de0b6b3a76400006110ee91906149ec565b905060007f00000000000000000000000000000000000000000000000000000000000000006001600160a01b031663b72df5de85846040518363ffffffff1660e01b8152600401613a1d929190614a3b565b6020604051808303816000875af1158015613a3c573d6000803e3d6000fd5b505050506040513d601f19601f82011682018060405250810190613a6091906149d3565b905081811015613aa85760405162461bcd60e51b815260206004820152601360248201527226b4b71026281030b6b7bab73a1032b93937b960691b60448201526064016106c2565b60405163b6b55f2560e01b8152600481018290527f00000000000000000000000000000000000000000000000000000000000000006001600160a01b03169063b6b55f2590602401600060405180830381600087803b158015613b0a57600080fd5b505af1158015613b1e573d6000803e3d6000fd5b50505050613b2a6130fb565b5050505050505050565b603a5460005b81811015610c8d576000603a8281548110613b5757613b576148d7565b60009182526020822001546040516370a0823160e01b81523060048201526001600160a01b03909116925082906370a0823190602401602060405180830381865afa158015613baa573d6000803e3d6000fd5b505050506040513d601f19601f82011682018060405250810190613bce91906149d3565b90508015613c3e57603954604080516001600160a01b039283168152918416602083015281018290527ff6c07a063ed4e63808eb8da7112d46dbcd38de2b40a73dbcc9353c5a94c723539060600160405180910390a1603954613c3e906001600160a01b038481169116836133bc565b5050600101613b3a565b6001600160a01b038116613c9e5760405162461bcd60e51b815260206004820152601a60248201527f4e657720476f7665726e6f72206973206164647265737328302900000000000060448201526064016106c2565b611368816142b9565b8251613cba90603a9060208601906144f7565b50815181518114613d045760405162461bcd60e51b8152602060048201526014602482015273496e76616c696420696e7075742061727261797360601b60448201526064016106c2565b60005b81811015613d5357613d4b848281518110613d2457613d246148d7565b6020026020010151848381518110613d3e57613d3e6148d7565b602002602001015161325d565b600101613d07565b5050505050565b60405163095ea7b360e01b81526001600160a01b037f0000000000000000000000000000000000000000000000000000000000000000169063095ea7b390613dca907f0000000000000000000000000000000000000000000000000000000000000000906000199060040161492a565b6020604051808303816000875af1158015613de9573d6000803e3d6000fd5b505050506040513d601f19601f82011682018060405250810190613e0d9190614943565b5060405163095ea7b360e01b81526001600160a01b037f0000000000000000000000000000000000000000000000000000000000000000169063095ea7b390613e7e907f0000000000000000000000000000000000000000000000000000000000000000906000199060040161492a565b6020604051808303816000875af1158015613e9d573d6000803e3d6000fd5b505050506040513d601f19601f82011682018060405250810190613ec19190614943565b5060405163095ea7b360e01b81526001600160a01b037f0000000000000000000000000000000000000000000000000000000000000000169063095ea7b390613f32907f0000000000000000000000000000000000000000000000000000000000000000906000199060040161492a565b6020604051808303816000875af1158015613f51573d6000803e3d6000fd5b505050506040513d601f19601f820116820180604052508101906113689190614943565b604051632e1a7d4d60e01b8152600481018290527f00000000000000000000000000000000000000000000000000000000000000006001600160a01b031690632e1a7d4d90602401600060405180830381600087803b158015613fd757600080fd5b505af1158015613d53573d6000803e3d6000fd5b604051634903b0d160e01b81526001600160801b037f000000000000000000000000000000000000000000000000000000000000000016600482015260009081906001600160a01b037f00000000000000000000000000000000000000000000000000000000000000001690634903b0d190602401602060405180830381865afa15801561407d573d6000803e3d6000fd5b505050506040513d601f19601f820116820180604052508101906140a191906149d3565b90506000817f00000000000000000000000000000000000000000000000000000000000000006001600160a01b03166318160ddd6040518163ffffffff1660e01b8152600401602060405180830381865afa158015614104573d6000803e3d6000fd5b505050506040513d601f19601f8201168201806040525081019061412891906149d3565b614141906ec097ce7bc90715b34b9f1000000000614a94565b61414b9190614aab565b905060008161415b866001614acd565b6141659190614a94565b90506130f26ec097ce7bc90715b34b9f100000000082614aab565b60006141d5826040518060400160405280602081526020017f5361666545524332303a206c6f772d6c6576656c2063616c6c206661696c6564815250856001600160a01b03166143209092919063ffffffff16565b80519091501561341257808060200190518101906141f39190614943565b6134125760405162461bcd60e51b815260206004820152602a60248201527f5361666545524332303a204552433230206f7065726174696f6e20646964206e6044820152691bdd081cdd58d8d9595960b21b60648201526084016106c2565b60006134578284614a94565b60006134578284614aab565b6000806142778585614252565b90506130f2818461425e565b6000818312156142935781613457565b5090919050565b6000818310156142935781613457565b60008183106142935781613457565b806001600160a01b03166142d9600080516020614c668339815191525490565b6001600160a01b03167fc7c0c772add429241571afb3805861fb3cfa2af374534088b76cdb4325a87e9a60405160405180910390a3600080516020614c6683398151915255565b606061432f8484600085614337565b949350505050565b6060824710156143985760405162461bcd60e51b815260206004820152602660248201527f416464726573733a20696e73756666696369656e742062616c616e636520666f6044820152651c8818d85b1b60d21b60648201526084016106c2565b843b6143e65760405162461bcd60e51b815260206004820152601d60248201527f416464726573733a2063616c6c20746f206e6f6e2d636f6e747261637400000060448201526064016106c2565b600080866001600160a01b031685876040516144029190614bf6565b60006040518083038185875af1925050503d806000811461443f576040519150601f19603f3d011682016040523d82523d6000602084013e614444565b606091505b509150915061445482828661445f565b979650505050505050565b6060831561446e575081613457565b82511561447e5782518084602001fd5b8160405162461bcd60e51b81526004016106c29190614c12565b8280548282559060005260206000209081019282156144eb579160200282015b828111156144eb5781546001600160a01b0319166001600160a01b038435161782556020909201916001909101906144b8565b50612f9392915061454c565b8280548282559060005260206000209081019282156144eb579160200282015b828111156144eb57825182546001600160a01b0319166001600160a01b03909116178255602090920191600190910190614517565b5b80821115612f93576000815560010161454d565b60006020828403121561457357600080fd5b5035919050565b6001600160a01b038116811461136857600080fd5b600080604083850312156145a257600080fd5b82356145ad8161457a565b915060208301356145bd8161457a565b809150509250929050565b6000602082840312156145da57600080fd5b81356134578161457a565b600080604083850312156145f857600080fd5b82356146038161457a565b946020939093013593505050565b60008083601f84011261462357600080fd5b50813567ffffffffffffffff81111561463b57600080fd5b6020830191508360208260051b850101111561465657600080fd5b9250929050565b60008060006040848603121561467257600080fd5b833567ffffffffffffffff81111561468957600080fd5b61469586828701614611565b909790965060209590950135949350505050565b600080602083850312156146bc57600080fd5b823567ffffffffffffffff8111156146d357600080fd5b6146df85828601614611565b90969095509350505050565b60008060006060848603121561470057600080fd5b833561470b8161457a565b9250602084013561471b8161457a565b929592945050506040919091013590565b602080825282518282018190526000918401906040840190835b8181101561476d5783516001600160a01b0316835260209384019390920191600101614746565b509095945050505050565b60006020828403121561478a57600080fd5b81516134578161457a565b6020808252601c908201527f43616c6c6572206973206e6f7420746865205374726174656769737400000000604082015260600190565b6020808252600e908201526d1499595b9d1c985b9d0818d85b1b60921b604082015260600190565b634e487b7160e01b600052604160045260246000fd5b60006020828403121561481c57600080fd5b815167ffffffffffffffff81111561483357600080fd5b8201601f8101841361484457600080fd5b805167ffffffffffffffff81111561485e5761485e6147f4565b8060051b604051601f19603f830116810181811067ffffffffffffffff8211171561488b5761488b6147f4565b6040529182526020818401810192908101878411156148a957600080fd5b6020850194505b838510156148cc578451808252602095860195909350016148b0565b509695505050505050565b634e487b7160e01b600052603260045260246000fd5b634e487b7160e01b600052601160045260246000fd5b8181036000831280158383131683831282161715614923576149236148ed565b5092915050565b6001600160a01b03929092168252602082015260400190565b60006020828403121561495557600080fd5b8151801515811461345757600080fd5b6020808252601f908201527f5472616e73666572206f662057455448206e6f74207375636365737366756c00604082015260600190565b6020808252601a908201527f43616c6c6572206973206e6f742074686520476f7665726e6f72000000000000604082015260600190565b6000602082840312156149e557600080fd5b5051919050565b8181038181111561343c5761343c6148ed565b600081518084526020840193506020830160005b82811015614a31578151865260209586019590910190600101614a13565b5093949350505050565b604081526000614a4e60408301856149ff565b90508260208301529392505050565b60208082526017908201527f43616c6c6572206973206e6f7420746865205661756c74000000000000000000604082015260600190565b808202811582820484141761343c5761343c6148ed565b600082614ac857634e487b7160e01b600052601260045260246000fd5b500490565b8082018082111561343c5761343c6148ed565b82815260406020820152600061432f60408301846149ff565b634e487b7160e01b600052603160045260246000fd5b6040808252845490820181905260008581526020812090916060840190835b81811015614b555783546001600160a01b0316835260019384019360209093019201614b2e565b50508381036020808601919091528582520190508460005b85811015614b9e578135614b808161457a565b6001600160a01b031683526020928301929190910190600101614b6d565b50909695505050505050565b8082018281126000831280158216821582161715614bca57614bca6148ed565b505092915050565b60005b83811015614bed578181015183820152602001614bd5565b50506000910152565b60008251614c08818460208701614bd2565b9190910192915050565b6020815260008251806020840152614c31816040850160208701614bd2565b601f01601f1916919091016040019291505056fe53bf423e48ed90e97d02ab0ebab13b2a235a6bfbe9c321847d5c175333ac45357bea13895fa79d2831e0a9e28edede30099005a50d652d8957cf8a607ee6ca4a2717ead6b9200dd235aad468c9809ea400fe33ac69b5bfaa6d3e90fc922b6398a264697066735822122055dd601a455a9c7ebfab8e587f73018b3f13c093c8790f7eca671f94c505785264736f6c634300081c00337bea13895fa79d2831e0a9e28edede30099005a50d652d8957cf8a607ee6ca4a",
  "libraries": {},
  "devdoc": {
    "kind": "dev",
    "methods": {
      "checkBalance(address)": {
        "params": {
          "_asset": "Address of the asset"
        },
        "returns": {
          "balance": "   Total value of the asset in the platform"
        }
      },
      "deposit(address,uint256)": {
        "params": {
          "_amount": "Amount of WETH to deposit.",
          "_weth": "Address of Wrapped ETH (WETH) contract."
        }
      },
      "getRewardTokenAddresses()": {
        "returns": {
          "_0": "address[] the reward token addresses."
        }
      },
      "initialize(address[],uint256)": {
        "params": {
          "_maxSlippage": "Maximum slippage allowed for adding/removing liquidity from the Curve pool.",
          "_rewardTokenAddresses": "Address of CRV"
        }
      },
      "mintAndAddOTokens(uint256)": {
        "params": {
          "_oTokens": "The amount of OTokens to be minted and added to the pool."
        }
      },
      "removeAndBurnOTokens(uint256)": {
        "params": {
          "_lpTokens": "The amount of Curve pool LP tokens to be burned for OTokens."
        }
      },
      "removeOnlyAssets(uint256)": {
        "details": "Curve pool LP tokens is used rather than WETH assets as Curve does not have a way to accurately calculate the amount of LP tokens for a required amount of ETH. Curve's `calc_token_amount` functioun does not include fees. A 3rd party libary can be used that takes into account the fees, but this is a gas intensive process. It's easier for the trusted strategist to caclulate the amount of Curve pool LP tokens required off-chain.",
        "params": {
          "_lpTokens": "The amount of Curve pool LP tokens to be burned for ETH."
        }
      },
      "removePToken(uint256)": {
        "params": {
          "_assetIndex": "Index of the asset to be removed"
        }
      },
      "setHarvesterAddress(address)": {
        "params": {
          "_harvesterAddress": "Address of the harvester contract."
        }
      },
      "setMaxSlippage(uint256)": {
        "params": {
          "_maxSlippage": "Maximum slippage allowed, 1e18 = 100%."
        }
      },
      "setPTokenAddress(address,address)": {
        "params": {
          "_asset": "Address for the asset",
          "_pToken": "Address for the corresponding platform token"
        }
      },
      "setRewardTokenAddresses(address[])": {
        "params": {
          "_rewardTokenAddresses": "Array of reward token addresses"
        }
      },
      "supportsAsset(address)": {
        "params": {
          "_asset": "Address of the asset"
        }
      },
      "transferGovernance(address)": {
        "params": {
          "_newGovernor": "Address of the new Governor"
        }
      },
      "transferToken(address,uint256)": {
        "params": {
          "_amount": "Amount of the asset to transfer",
          "_asset": "Address for the asset"
        }
      },
      "withdraw(address,address,uint256)": {
        "params": {
          "_amount": "Amount of WETH to withdraw.",
          "_recipient": "Address to receive withdrawn asset which is normally the Vault.",
          "_weth": "Address of the Wrapped ETH (WETH) contract."
        }
      }
    },
    "stateVariables": {
      "SOLVENCY_THRESHOLD": {
        "details": "a threshold under which the contract no longer allows for the protocol to manually rebalance.      Guarding against a strategist / guardian being taken over and with multiple transactions      draining the protocol funds."
      }
    },
    "version": 1
  },
  "userdoc": {
    "kind": "user",
    "methods": {
      "assetToPToken(address)": {
        "notice": "asset => pToken (Platform Specific Token Address)"
      },
      "checkBalance(address)": {
        "notice": "Get the total asset value held in the platform"
      },
      "claimGovernance()": {
        "notice": "Claim Governance of the contract to a new account (`newGovernor`). Can only be called by the new Governor."
      },
      "collectRewardTokens()": {
        "notice": "Collect accumulated CRV (and other) rewards and send to the Harvester."
      },
      "curvePool()": {
        "notice": "Address of the Curve StableSwap NG pool contract."
      },
      "deposit(address,uint256)": {
        "notice": "Deposit WETH into the Curve pool"
      },
      "depositAll()": {
        "notice": "Deposit the strategy's entire balance of WETH into the Curve pool"
      },
      "gauge()": {
        "notice": "Address of the Curve X-Chain Liquidity Gauge contract."
      },
      "gaugeFactory()": {
        "notice": "Address of the Child Liquidity Gauge Factory contract."
      },
      "getRewardTokenAddresses()": {
        "notice": "Get the reward token addresses."
      },
      "governor()": {
        "notice": "Returns the address of the current Governor."
      },
      "harvesterAddress()": {
        "notice": "Address of the Harvester contract allowed to collect reward tokens"
      },
      "initialize(address[],uint256)": {
        "notice": "Initializer for setting up strategy internal state. This overrides the InitializableAbstractStrategy initializer as Curve strategies don't fit well within that abstraction."
      },
      "isGovernor()": {
        "notice": "Returns true if the caller is the current Governor."
      },
      "lpToken()": {
        "notice": "Address of the LP (Liquidity Provider) token contract."
      },
      "maxSlippage()": {
        "notice": "Maximum slippage allowed for adding/removing liquidity from the Curve pool."
      },
      "mintAndAddOTokens(uint256)": {
        "notice": "Mint OTokens and one-sided add to the Curve pool. This is used when the Curve pool does not have enough OTokens and too many ETH. The OToken/Asset, eg OETH/ETH, price with increase. The amount of assets in the vault is unchanged. The total supply of OTokens is increased. The asset value of the strategy and vault is increased."
      },
      "oeth()": {
        "notice": "Address of the OETH token contract."
      },
      "platformAddress()": {
        "notice": "Address of the underlying platform"
      },
      "removeAndBurnOTokens(uint256)": {
        "notice": "One-sided remove of OTokens from the Curve pool which are then burned. This is used when the Curve pool has too many OTokens and not enough ETH. The amount of assets in the vault is unchanged. The total supply of OTokens is reduced. The asset value of the strategy and vault is reduced."
      },
      "removeOnlyAssets(uint256)": {
        "notice": "One-sided remove of ETH from the Curve pool, convert to WETH and transfer to the vault. This is used when the Curve pool does not have enough OTokens and too many ETH. The OToken/Asset, eg OETH/ETH, price with decrease. The amount of assets in the vault increases. The total supply of OTokens does not change. The asset value of the strategy reduces. The asset value of the vault should be close to the same."
      },
      "removePToken(uint256)": {
        "notice": "Remove a supported asset by passing its index.      This method can only be called by the system Governor"
      },
      "rewardTokenAddresses(uint256)": {
        "notice": "Address of the reward tokens. eg CRV, BAL, CVX, AURA"
      },
      "safeApproveAllTokens()": {
        "notice": "Approve the spending of all assets by their corresponding pool tokens,      if for some reason is it necessary."
      },
      "setHarvesterAddress(address)": {
        "notice": "Set the Harvester contract that can collect rewards."
      },
      "setMaxSlippage(uint256)": {
        "notice": "Sets the maximum slippage allowed for any swap/liquidity operation"
      },
      "setPTokenAddress(address,address)": {
        "notice": "Provide support for asset by passing its pToken address.      This method can only be called by the system Governor"
      },
      "setRewardTokenAddresses(address[])": {
        "notice": "Set the reward token addresses. Any old addresses will be overwritten."
      },
      "supportsAsset(address)": {
        "notice": "Returns bool indicating whether asset is supported by strategy"
      },
      "transferGovernance(address)": {
        "notice": "Transfers Governance of the contract to a new account (`newGovernor`). Can only be called by the current Governor. Must be claimed for this to complete"
      },
      "transferToken(address,uint256)": {
        "notice": "Transfer token to governor. Intended for recovering tokens stuck in      strategy contracts, i.e. mistaken sends."
      },
      "vaultAddress()": {
        "notice": "Address of the OToken vault"
      },
      "weth()": {
        "notice": "Address of the Wrapped ETH (WETH) contract."
      },
      "withdraw(address,address,uint256)": {
        "notice": "Withdraw ETH and OETH from the Curve pool, burn the OETH, convert the ETH to WETH and transfer to the recipient."
      },
      "withdrawAll()": {
        "notice": "Remove all ETH and OETH from the Curve pool, burn the OETH, convert the ETH to WETH and transfer to the Vault contract."
      }
    },
    "version": 1
  },
  "storageLayout": {
    "storage": [
      {
        "astId": 53792,
        "contract": "contracts/strategies/BaseCurveAMOStrategy.sol:BaseCurveAMOStrategy",
        "label": "initialized",
        "offset": 0,
        "slot": "0",
        "type": "t_bool"
      },
      {
        "astId": 53795,
        "contract": "contracts/strategies/BaseCurveAMOStrategy.sol:BaseCurveAMOStrategy",
        "label": "initializing",
        "offset": 1,
        "slot": "0",
        "type": "t_bool"
      },
      {
        "astId": 53835,
        "contract": "contracts/strategies/BaseCurveAMOStrategy.sol:BaseCurveAMOStrategy",
        "label": "______gap",
        "offset": 0,
        "slot": "1",
        "type": "t_array(t_uint256)50_storage"
      },
      {
        "astId": 53915,
        "contract": "contracts/strategies/BaseCurveAMOStrategy.sol:BaseCurveAMOStrategy",
        "label": "_deprecated_platformAddress",
        "offset": 0,
        "slot": "51",
        "type": "t_address"
      },
      {
        "astId": 53918,
        "contract": "contracts/strategies/BaseCurveAMOStrategy.sol:BaseCurveAMOStrategy",
        "label": "_deprecated_vaultAddress",
        "offset": 0,
        "slot": "52",
        "type": "t_address"
      },
      {
        "astId": 53923,
        "contract": "contracts/strategies/BaseCurveAMOStrategy.sol:BaseCurveAMOStrategy",
        "label": "assetToPToken",
        "offset": 0,
        "slot": "53",
        "type": "t_mapping(t_address,t_address)"
      },
      {
        "astId": 53927,
        "contract": "contracts/strategies/BaseCurveAMOStrategy.sol:BaseCurveAMOStrategy",
        "label": "assetsMapped",
        "offset": 0,
        "slot": "54",
        "type": "t_array(t_address)dyn_storage"
      },
      {
        "astId": 53929,
        "contract": "contracts/strategies/BaseCurveAMOStrategy.sol:BaseCurveAMOStrategy",
        "label": "_deprecated_rewardTokenAddress",
        "offset": 0,
        "slot": "55",
        "type": "t_address"
      },
      {
        "astId": 53931,
        "contract": "contracts/strategies/BaseCurveAMOStrategy.sol:BaseCurveAMOStrategy",
        "label": "_deprecated_rewardLiquidationThreshold",
        "offset": 0,
        "slot": "56",
        "type": "t_uint256"
      },
      {
        "astId": 53934,
        "contract": "contracts/strategies/BaseCurveAMOStrategy.sol:BaseCurveAMOStrategy",
        "label": "harvesterAddress",
        "offset": 0,
        "slot": "57",
        "type": "t_address"
      },
      {
        "astId": 53938,
        "contract": "contracts/strategies/BaseCurveAMOStrategy.sol:BaseCurveAMOStrategy",
        "label": "rewardTokenAddresses",
        "offset": 0,
        "slot": "58",
        "type": "t_array(t_address)dyn_storage"
      },
      {
        "astId": 53942,
        "contract": "contracts/strategies/BaseCurveAMOStrategy.sol:BaseCurveAMOStrategy",
        "label": "_reserved",
        "offset": 0,
        "slot": "59",
        "type": "t_array(t_int256)98_storage"
      },
      {
        "astId": 30287,
        "contract": "contracts/strategies/BaseCurveAMOStrategy.sol:BaseCurveAMOStrategy",
        "label": "maxSlippage",
        "offset": 0,
        "slot": "157",
        "type": "t_uint256"
      }
    ],
    "types": {
      "t_address": {
        "encoding": "inplace",
        "label": "address",
        "numberOfBytes": "20"
      },
      "t_array(t_address)dyn_storage": {
        "base": "t_address",
        "encoding": "dynamic_array",
        "label": "address[]",
        "numberOfBytes": "32"
      },
      "t_array(t_int256)98_storage": {
        "base": "t_int256",
        "encoding": "inplace",
        "label": "int256[98]",
        "numberOfBytes": "3136"
      },
      "t_array(t_uint256)50_storage": {
        "base": "t_uint256",
        "encoding": "inplace",
        "label": "uint256[50]",
        "numberOfBytes": "1600"
      },
      "t_bool": {
        "encoding": "inplace",
        "label": "bool",
        "numberOfBytes": "1"
      },
      "t_int256": {
        "encoding": "inplace",
        "label": "int256",
        "numberOfBytes": "32"
      },
      "t_mapping(t_address,t_address)": {
        "encoding": "mapping",
        "key": "t_address",
        "label": "mapping(address => address)",
        "numberOfBytes": "32",
        "value": "t_address"
      },
      "t_uint256": {
        "encoding": "inplace",
        "label": "uint256",
        "numberOfBytes": "32"
      }
    }
  }
}