{
  "address": "0xe3B3b4Fc77505EcfAACf6dD21619a8Cc12fcc501",
  "abi": [
    {
      "inputs": [
        {
          "internalType": "address",
          "name": "_safeContract",
          "type": "address"
        }
      ],
      "stateMutability": "nonpayable",
      "type": "constructor"
    },
    {
      "anonymous": false,
      "inputs": [
        {
          "indexed": true,
          "internalType": "bytes32",
          "name": "role",
          "type": "bytes32"
        },
        {
          "indexed": true,
          "internalType": "bytes32",
          "name": "previousAdminRole",
          "type": "bytes32"
        },
        {
          "indexed": true,
          "internalType": "bytes32",
          "name": "newAdminRole",
          "type": "bytes32"
        }
      ],
      "name": "RoleAdminChanged",
      "type": "event"
    },
    {
      "anonymous": false,
      "inputs": [
        {
          "indexed": true,
          "internalType": "bytes32",
          "name": "role",
          "type": "bytes32"
        },
        {
          "indexed": true,
          "internalType": "address",
          "name": "account",
          "type": "address"
        },
        {
          "indexed": true,
          "internalType": "address",
          "name": "sender",
          "type": "address"
        }
      ],
      "name": "RoleGranted",
      "type": "event"
    },
    {
      "anonymous": false,
      "inputs": [
        {
          "indexed": true,
          "internalType": "bytes32",
          "name": "role",
          "type": "bytes32"
        },
        {
          "indexed": true,
          "internalType": "address",
          "name": "account",
          "type": "address"
        },
        {
          "indexed": true,
          "internalType": "address",
          "name": "sender",
          "type": "address"
        }
      ],
      "name": "RoleRevoked",
      "type": "event"
    },
    {
      "inputs": [],
      "name": "CCIP_ETHEREUM_CHAIN_SELECTOR",
      "outputs": [
        {
          "internalType": "uint64",
          "name": "",
          "type": "uint64"
        }
      ],
      "stateMutability": "view",
      "type": "function"
    },
    {
      "inputs": [],
      "name": "CCIP_ROUTER",
      "outputs": [
        {
          "internalType": "contract IRouterClient",
          "name": "",
          "type": "address"
        }
      ],
      "stateMutability": "view",
      "type": "function"
    },
    {
      "inputs": [],
      "name": "DEFAULT_ADMIN_ROLE",
      "outputs": [
        {
          "internalType": "bytes32",
          "name": "",
          "type": "bytes32"
        }
      ],
      "stateMutability": "view",
      "type": "function"
    },
    {
      "inputs": [],
      "name": "OPERATOR_ROLE",
      "outputs": [
        {
          "internalType": "bytes32",
          "name": "",
          "type": "bytes32"
        }
      ],
      "stateMutability": "view",
      "type": "function"
    },
    {
      "inputs": [
        {
          "internalType": "uint256",
          "name": "wethAmount",
          "type": "uint256"
        }
      ],
      "name": "bridgeWETHToEthereum",
      "outputs": [],
      "stateMutability": "payable",
      "type": "function"
    },
    {
      "inputs": [
        {
          "internalType": "uint256",
          "name": "woethAmount",
          "type": "uint256"
        }
      ],
      "name": "bridgeWOETHToEthereum",
      "outputs": [],
      "stateMutability": "payable",
      "type": "function"
    },
    {
      "inputs": [],
      "name": "bridgedWOETH",
      "outputs": [
        {
          "internalType": "contract IERC4626",
          "name": "",
          "type": "address"
        }
      ],
      "stateMutability": "view",
      "type": "function"
    },
    {
      "inputs": [],
      "name": "bridgedWOETHStrategy",
      "outputs": [
        {
          "internalType": "contract BridgedWOETHStrategy",
          "name": "",
          "type": "address"
        }
      ],
      "stateMutability": "view",
      "type": "function"
    },
    {
      "inputs": [
        {
          "internalType": "uint256",
          "name": "requestId",
          "type": "uint256"
        }
      ],
      "name": "claimAndBridgeWETH",
      "outputs": [],
      "stateMutability": "payable",
      "type": "function"
    },
    {
      "inputs": [
        {
          "internalType": "uint256",
          "name": "requestId",
          "type": "uint256"
        }
      ],
      "name": "claimWithdrawal",
      "outputs": [
        {
          "internalType": "uint256",
          "name": "wethAmount",
          "type": "uint256"
        }
      ],
      "stateMutability": "nonpayable",
      "type": "function"
    },
    {
      "inputs": [
        {
          "internalType": "uint256",
          "name": "wethAmount",
          "type": "uint256"
        }
      ],
      "name": "depositWETHAndBridgeWOETH",
      "outputs": [
        {
          "internalType": "uint256",
          "name": "",
          "type": "uint256"
        }
      ],
      "stateMutability": "nonpayable",
      "type": "function"
    },
    {
      "inputs": [
        {
          "internalType": "uint256",
          "name": "wethAmount",
          "type": "uint256"
        }
      ],
      "name": "depositWETHAndRedeemWOETH",
      "outputs": [
        {
          "internalType": "uint256",
          "name": "",
          "type": "uint256"
        }
      ],
      "stateMutability": "nonpayable",
      "type": "function"
    },
    {
      "inputs": [
        {
          "internalType": "uint256",
          "name": "woethAmount",
          "type": "uint256"
        },
        {
          "internalType": "bool",
          "name": "requestWithdrawal",
          "type": "bool"
        }
      ],
      "name": "depositWOETH",
      "outputs": [
        {
          "internalType": "uint256",
          "name": "requestId",
          "type": "uint256"
        },
        {
          "internalType": "uint256",
          "name": "oethbAmount",
          "type": "uint256"
        }
      ],
      "stateMutability": "nonpayable",
      "type": "function"
    },
    {
      "inputs": [
        {
          "internalType": "bytes32",
          "name": "role",
          "type": "bytes32"
        }
      ],
      "name": "getRoleAdmin",
      "outputs": [
        {
          "internalType": "bytes32",
          "name": "",
          "type": "bytes32"
        }
      ],
      "stateMutability": "view",
      "type": "function"
    },
    {
      "inputs": [
        {
          "internalType": "bytes32",
          "name": "role",
          "type": "bytes32"
        },
        {
          "internalType": "uint256",
          "name": "index",
          "type": "uint256"
        }
      ],
      "name": "getRoleMember",
      "outputs": [
        {
          "internalType": "address",
          "name": "",
          "type": "address"
        }
      ],
      "stateMutability": "view",
      "type": "function"
    },
    {
      "inputs": [
        {
          "internalType": "bytes32",
          "name": "role",
          "type": "bytes32"
        }
      ],
      "name": "getRoleMemberCount",
      "outputs": [
        {
          "internalType": "uint256",
          "name": "",
          "type": "uint256"
        }
      ],
      "stateMutability": "view",
      "type": "function"
    },
    {
      "inputs": [
        {
          "internalType": "bytes32",
          "name": "role",
          "type": "bytes32"
        },
        {
          "internalType": "address",
          "name": "account",
          "type": "address"
        }
      ],
      "name": "grantRole",
      "outputs": [],
      "stateMutability": "nonpayable",
      "type": "function"
    },
    {
      "inputs": [
        {
          "internalType": "bytes32",
          "name": "role",
          "type": "bytes32"
        },
        {
          "internalType": "address",
          "name": "account",
          "type": "address"
        }
      ],
      "name": "hasRole",
      "outputs": [
        {
          "internalType": "bool",
          "name": "",
          "type": "bool"
        }
      ],
      "stateMutability": "view",
      "type": "function"
    },
    {
      "inputs": [],
      "name": "oethb",
      "outputs": [
        {
          "internalType": "contract IERC20",
          "name": "",
          "type": "address"
        }
      ],
      "stateMutability": "view",
      "type": "function"
    },
    {
      "inputs": [
        {
          "internalType": "bytes32",
          "name": "role",
          "type": "bytes32"
        },
        {
          "internalType": "address",
          "name": "account",
          "type": "address"
        }
      ],
      "name": "renounceRole",
      "outputs": [],
      "stateMutability": "nonpayable",
      "type": "function"
    },
    {
      "inputs": [
        {
          "internalType": "bytes32",
          "name": "role",
          "type": "bytes32"
        },
        {
          "internalType": "address",
          "name": "account",
          "type": "address"
        }
      ],
      "name": "revokeRole",
      "outputs": [],
      "stateMutability": "nonpayable",
      "type": "function"
    },
    {
      "inputs": [],
      "name": "safeContract",
      "outputs": [
        {
          "internalType": "contract ISafe",
          "name": "",
          "type": "address"
        }
      ],
      "stateMutability": "view",
      "type": "function"
    },
    {
      "inputs": [
        {
          "internalType": "bytes4",
          "name": "interfaceId",
          "type": "bytes4"
        }
      ],
      "name": "supportsInterface",
      "outputs": [
        {
          "internalType": "bool",
          "name": "",
          "type": "bool"
        }
      ],
      "stateMutability": "view",
      "type": "function"
    },
    {
      "inputs": [
        {
          "internalType": "address",
          "name": "token",
          "type": "address"
        },
        {
          "internalType": "uint256",
          "name": "amount",
          "type": "uint256"
        }
      ],
      "name": "transferTokens",
      "outputs": [],
      "stateMutability": "nonpayable",
      "type": "function"
    },
    {
      "inputs": [],
      "name": "vault",
      "outputs": [
        {
          "internalType": "contract IVault",
          "name": "",
          "type": "address"
        }
      ],
      "stateMutability": "view",
      "type": "function"
    },
    {
      "inputs": [],
      "name": "weth",
      "outputs": [
        {
          "internalType": "contract IWETH9",
          "name": "",
          "type": "address"
        }
      ],
      "stateMutability": "view",
      "type": "function"
    },
    {
      "stateMutability": "payable",
      "type": "receive"
    }
  ],
  "transactionHash": "0x56dc36554cf30dd7b24d49c34bc30a37649fb9ebc13d370a77b794b8cfe243ea",
  "args": [
    "0x4FF1b9D9ba8558F5EAfCec096318eA0d8b541971"
  ],
  "numDeployments": 2,
  "solcInputHash": "0c4ee6150afc8447763a099043812f56",
  "bytecode": "0x60a060405234801561001057600080fd5b50604051612ba1380380612ba183398101604081905261002f916101b8565b6001600160a01b0381166080819052819061004c90600090610085565b61007e7f97667070c54ef182b0f5858b034beac1b6f3089aa2d3188bb1e8929f4fa9b92960805161008560201b60201c565b50506101e8565b61008f82826100ac565b60008281526001602052604090206100a7908261014b565b505050565b6000828152602081815260408083206001600160a01b038516845290915290205460ff16610147576000828152602081815260408083206001600160a01b03851684529091529020805460ff191660011790556101063390565b6001600160a01b0316816001600160a01b0316837f2f8788117e7eff1d82e926ec794901d17c78024a50270940304540a733656f0d60405160405180910390a45b5050565b6000610160836001600160a01b038416610169565b90505b92915050565b60008181526001830160205260408120546101b057508154600181810184556000848152602080822090930184905584548482528286019093526040902091909155610163565b506000610163565b6000602082840312156101ca57600080fd5b81516001600160a01b03811681146101e157600080fd5b9392505050565b60805161291261028f600039600081816104dd01528181610843015281816108de015281816109b501528181610b9401528181610c6a01528181610dfb01528181610efb01528181610f87015281816110d901528181611311015281816113fd015281816114e701528181611639015281816117c40152818161190901528181611ada01528181611c2b01528181611d8901528181611e0a0152611f5c01526129126000f3fe6080604052600436106101855760003560e01c806391d14854116100d1578063d547741f1161008a578063f844443611610064578063f8444436146104ab578063f9081ba2146104cb578063fbfa77cf146104ff578063fe5f42ca1461052757600080fd5b8063d547741f14610456578063f0b8037814610476578063f5b541a61461048957600080fd5b806391d14854146103a6578063a217fddf146103c6578063aeaf191b146103db578063b20e8a8614610403578063bec3fa1714610416578063ca15c8731461043657600080fd5b806336568abe1161013e5780634dccc699116101185780634dccc699146103165780636b1ed0a41461034b5780636dea9b191461035e5780639010d07c1461038657600080fd5b806336568abe1461029b57806339c0b139146102bb5780633fc8cef3146102fb57600080fd5b806301ffc9a7146101915780631a3f60f0146101c657806321dce922146101fb578063248a9ca31461022957806326fc419d146102595780632f2ff15d1461027957600080fd5b3661018c57005b600080fd5b34801561019d57600080fd5b506101b16101ac3660046123fb565b61054f565b60405190151581526020015b60405180910390f35b3480156101d257600080fd5b506101e26745849994fc9c7b1581565b60405167ffffffffffffffff90911681526020016101bd565b34801561020757600080fd5b5061021b610216366004612425565b61057a565b6040519081526020016101bd565b34801561023557600080fd5b5061021b610244366004612425565b60009081526020819052604090206001015490565b34801561026557600080fd5b5061021b610274366004612425565b6105d7565b34801561028557600080fd5b50610299610294366004612455565b610616565b005b3480156102a757600080fd5b506102996102b6366004612455565b610641565b3480156102c757600080fd5b506102e37380c864704dd06c3693ed5179190786ee38acf83581565b6040516001600160a01b0390911681526020016101bd565b34801561030757600080fd5b506102e36006602160991b0181565b34801561032257600080fd5b5061033661033136600461248f565b6106bf565b604080519283526020830191909152016101bd565b610299610359366004612425565b61071a565b34801561036a57600080fd5b506102e373dbfefd2e8460a6ee4955a68582f85708baea60a381565b34801561039257600080fd5b506102e36103a13660046124bf565b61078d565b3480156103b257600080fd5b506101b16103c1366004612455565b6107ac565b3480156103d257600080fd5b5061021b600081565b3480156103e757600080fd5b506102e373d8724322f44e5c58d7a815f542036fb17dbbf83981565b610299610411366004612425565b6107d5565b34801561042257600080fd5b506102996104313660046124e1565b610838565b34801561044257600080fd5b5061021b610451366004612425565b610a35565b34801561046257600080fd5b50610299610471366004612455565b610a4c565b610299610484366004612425565b610a72565b34801561049557600080fd5b5061021b6000805160206128bd83398151915281565b3480156104b757600080fd5b5061021b6104c6366004612425565b610abc565b3480156104d757600080fd5b506102e37f000000000000000000000000000000000000000000000000000000000000000081565b34801561050b57600080fd5b506102e37398a0cbef61bd2d21435f433be4cd42b56b38cc9381565b34801561053357600080fd5b506102e373881e3a65b4d4a04dd529061dd0071cf975f58bcd81565b60006001600160e01b03198216635a05180f60e01b1480610574575061057482610afb565b92915050565b60006105946000805160206128bd833981519152336107ac565b6105b95760405162461bcd60e51b81526004016105b09061250b565b60405180910390fd5b60006105c483610b30565b90506105cf8161071a565b90505b919050565b60006105f16000805160206128bd833981519152336107ac565b61060d5760405162461bcd60e51b81526004016105b09061250b565b61057482610b30565b6000828152602081905260409020600101546106328133611172565b61063c83836111d6565b505050565b6001600160a01b03811633146106b15760405162461bcd60e51b815260206004820152602f60248201527f416363657373436f6e74726f6c3a2063616e206f6e6c792072656e6f756e636560448201526e103937b632b9903337b91039b2b63360891b60648201526084016105b0565b6106bb82826111f8565b5050565b6000806106da6000805160206128bd833981519152336107ac565b6106f65760405162461bcd60e51b81526004016105b09061250b565b6106ff8461121a565b905082156107135761071081611739565b91505b9250929050565b6107326000805160206128bd833981519152336107ac565b61074e5760405162461bcd60e51b81526004016105b09061250b565b61078a73881e3a65b4d4a04dd529061dd0071cf975f58bcd6745849994fc9c7b1573d8724322f44e5c58d7a815f542036fb17dbbf83984611905565b50565b60008281526001602052604081206107a59083611d5c565b9392505050565b6000918252602082815260408084206001600160a01b0393909316845291905290205460ff1690565b6107ed6000805160206128bd833981519152336107ac565b6108095760405162461bcd60e51b81526004016105b09061250b565b61078a73881e3a65b4d4a04dd529061dd0071cf975f58bcd6745849994fc9c7b156006602160991b0184611905565b336001600160a01b037f000000000000000000000000000000000000000000000000000000000000000016146108b05760405162461bcd60e51b815260206004820152601f60248201527f43616c6c6572206973206e6f7420746865207361666520636f6e74726163740060448201526064016105b0565b6001600160a01b03821661092757600081116108cc57476108ce565b805b6040519091506001600160a01b037f0000000000000000000000000000000000000000000000000000000000000000169082156108fc029083906000818181858888f1935050505015801561063c573d6000803e3d6000fd5b6000811161099c576040516370a0823160e01b81523060048201526001600160a01b038316906370a0823190602401602060405180830381865afa158015610973573d6000803e3d6000fd5b505050506040513d601f19601f820116820180604052508101906109979190612542565b61099e565b805b60405163a9059cbb60e01b81526001600160a01b037f000000000000000000000000000000000000000000000000000000000000000081166004830152602482018390529192509083169063a9059cbb906044016020604051808303816000875af1158015610a11573d6000803e3d6000fd5b505050506040513d601f19601f8201168201806040525081019061063c919061255b565b600081815260016020526040812061057490611d68565b600082815260208190526040902060010154610a688133611172565b61063c83836111f8565b610a8a6000805160206128bd833981519152336107ac565b610aa65760405162461bcd60e51b81526004016105b09061250b565b6000610ab182611d72565b90506106bb816107d5565b6000610ad66000805160206128bd833981519152336107ac565b610af25760405162461bcd60e51b81526004016105b09061250b565b61057482611d72565b60006001600160e01b03198216637965db0b60e01b148061057457506301ffc9a760e01b6001600160e01b0319831614610574565b604080517398a0cbef61bd2d21435f433be4cd42b56b38cc936024820152604480820184905282518083039091018152606490910182526020810180516001600160e01b031663095ea7b360e01b179052905163468721a760e01b815260009182917f00000000000000000000000000000000000000000000000000000000000000006001600160a01b03169163468721a791610bdd916006602160991b019186919082906004016125c8565b6020604051808303816000875af1158015610bfc573d6000803e3d6000fd5b505050506040513d601f19601f82011682018060405250810190610c20919061255b565b905080610c685760405162461bcd60e51b815260206004820152601660248201527508cc2d2d8cac840e8de40c2e0e0e4deecca40ae8aa8960531b60448201526064016105b0565b7f00000000000000000000000000000000000000000000000000000000000000006001600160a01b031663468721a77398a0cbef61bd2d21435f433be4cd42b56b38cc93600063a0712d6860e01b87604051602401610cc991815260200190565b60408051601f198184030181529181526020820180516001600160e01b03166001600160e01b03199485161790525160e086901b9092168252610d139392916000906004016125c8565b6020604051808303816000875af1158015610d32573d6000803e3d6000fd5b505050506040513d601f19601f82011682018060405250810190610d56919061255b565b905080610d9c5760405162461bcd60e51b81526020600482015260146024820152732330b4b632b2103a379036b4b73a1027a2aa243160611b60448201526064016105b0565b604080517380c864704dd06c3693ed5179190786ee38acf8356024820152604480820186905282518083039091018152606490910182526020810180516001600160e01b031663095ea7b360e01b179052905163468721a760e01b81527f00000000000000000000000000000000000000000000000000000000000000006001600160a01b03169163468721a791610e529173dbfefd2e8460a6ee4955a68582f85708baea60a3916000919082906004016125c8565b6020604051808303816000875af1158015610e71573d6000803e3d6000fd5b505050506040513d601f19601f82011682018060405250810190610e95919061255b565b905080610ee45760405162461bcd60e51b815260206004820152601760248201527f4661696c656420746f20617070726f7665204f4554486200000000000000000060448201526064016105b0565b6040516370a0823160e01b81526001600160a01b037f000000000000000000000000000000000000000000000000000000000000000016600482015260009073d8724322f44e5c58d7a815f542036fb17dbbf839906370a0823190602401602060405180830381865afa158015610f5f573d6000803e3d6000fd5b505050506040513d601f19601f82011682018060405250810190610f839190612542565b90507f00000000000000000000000000000000000000000000000000000000000000006001600160a01b031663468721a77380c864704dd06c3693ed5179190786ee38acf8356000632579fe8a60e01b88604051602401610fe691815260200190565b60408051601f198184030181529181526020820180516001600160e01b03166001600160e01b03199485161790525160e086901b90921682526110309392916000906004016125c8565b6020604051808303816000875af115801561104f573d6000803e3d6000fd5b505050506040513d601f19601f82011682018060405250810190611073919061255b565b9150816110c25760405162461bcd60e51b815260206004820181905260248201527f4661696c656420746f207769746864726177206272696467656420574f45544860448201526064016105b0565b6040516370a0823160e01b81526001600160a01b037f0000000000000000000000000000000000000000000000000000000000000000166004820152819073d8724322f44e5c58d7a815f542036fb17dbbf839906370a0823190602401602060405180830381865afa15801561113c573d6000803e3d6000fd5b505050506040513d601f19601f820116820180604052508101906111609190612542565b61116a9190612619565b949350505050565b61117c82826107ac565b6106bb57611194816001600160a01b03166014611fe0565b61119f836020611fe0565b6040516020016111b092919061262c565b60408051601f198184030181529082905262461bcd60e51b82526105b0916004016126a1565b6111e0828261217c565b600082815260016020526040902061063c9082612200565b6112028282612215565b600082815260016020526040902061063c908261227a565b60007380c864704dd06c3693ed5179190786ee38acf8356001600160a01b0316636c7138336040518163ffffffff1660e01b81526004016020604051808303816000875af1158015611270573d6000803e3d6000fd5b505050506040513d601f19601f820116820180604052508101906112949190612542565b507398a0cbef61bd2d21435f433be4cd42b56b38cc936001600160a01b031663af14052c6040518163ffffffff1660e01b8152600401600060405180830381600087803b1580156112e457600080fd5b505af11580156112f8573d6000803e3d6000fd5b50506040516370a0823160e01b81526001600160a01b037f000000000000000000000000000000000000000000000000000000000000000016600482015273dbfefd2e8460a6ee4955a68582f85708baea60a392506370a082319150602401602060405180830381865afa158015611374573d6000803e3d6000fd5b505050506040513d601f19601f820116820180604052508101906113989190612542565b604080517380c864704dd06c3693ed5179190786ee38acf8356024820152604480820186905282518083039091018152606490910182526020810180516001600160e01b031663095ea7b360e01b179052905163468721a760e01b81529192506000917f00000000000000000000000000000000000000000000000000000000000000006001600160a01b03169163468721a7916114539173d8724322f44e5c58d7a815f542036fb17dbbf8399186919082906004016125c8565b6020604051808303816000875af1158015611472573d6000803e3d6000fd5b505050506040513d601f19601f82011682018060405250810190611496919061255b565b9050806114e55760405162461bcd60e51b815260206004820152601760248201527f4661696c656420746f20617070726f766520774f45544800000000000000000060448201526064016105b0565b7f00000000000000000000000000000000000000000000000000000000000000006001600160a01b031663468721a77380c864704dd06c3693ed5179190786ee38acf835600063d6e772a460e01b8760405160240161154691815260200190565b60408051601f198184030181529181526020820180516001600160e01b03166001600160e01b03199485161790525160e086901b90921682526115909392916000906004016125c8565b6020604051808303816000875af11580156115af573d6000803e3d6000fd5b505050506040513d601f19601f820116820180604052508101906115d3919061255b565b9050806116225760405162461bcd60e51b815260206004820152601f60248201527f4661696c656420746f206465706f736974206272696467656420574f4554480060448201526064016105b0565b6040516370a0823160e01b81526001600160a01b037f0000000000000000000000000000000000000000000000000000000000000000166004820152829073dbfefd2e8460a6ee4955a68582f85708baea60a3906370a0823190602401602060405180830381865afa15801561169c573d6000803e3d6000fd5b505050506040513d601f19601f820116820180604052508101906116c09190612542565b6116ca9190612619565b91507398a0cbef61bd2d21435f433be4cd42b56b38cc936001600160a01b031663af14052c6040518163ffffffff1660e01b8152600401600060405180830381600087803b15801561171b57600080fd5b505af115801561172f573d6000803e3d6000fd5b5050505050919050565b60007398a0cbef61bd2d21435f433be4cd42b56b38cc936001600160a01b031663362bd1a36040518163ffffffff1660e01b8152600401608060405180830381865afa15801561178d573d6000803e3d6000fd5b505050506040513d601f19601f820116820180604052508101906117b191906126e1565b606001516001600160801b0316905060007f00000000000000000000000000000000000000000000000000000000000000006001600160a01b031663468721a77398a0cbef61bd2d21435f433be4cd42b56b38cc936000639ee679e860e01b8760405160240161182391815260200190565b60408051601f198184030181529181526020820180516001600160e01b03166001600160e01b03199485161790525160e086901b909216825261186d9392916000906004016125c8565b6020604051808303816000875af115801561188c573d6000803e3d6000fd5b505050506040513d601f19601f820116820180604052508101906118b0919061255b565b9050806118ff5760405162461bcd60e51b815260206004820152601c60248201527f4661696c656420746f2072657175657374207769746864726177616c0000000060448201526064016105b0565b50919050565b60007f00000000000000000000000000000000000000000000000000000000000000006001600160a01b031663468721a784600063095ea7b360e01b89876040516024016119689291906001600160a01b03929092168252602082015260400190565b60408051601f198184030181529181526020820180516001600160e01b03166001600160e01b03199485161790525160e086901b90921682526119b29392916000906004016125c8565b6020604051808303816000875af11580156119d1573d6000803e3d6000fd5b505050506040513d601f19601f820116820180604052508101906119f5919061255b565b905080611a445760405162461bcd60e51b815260206004820152601760248201527f4661696c656420746f20617070726f766520746f6b656e00000000000000000060448201526064016105b0565b604080516001808252818301909252600091816020015b6040805180820190915260008082526020820152815260200190600190039081611a5b57905050905060006040518060400160405280866001600160a01b031681526020018581525090508082600081518110611aba57611aba61276e565b60209081029190910101526040805160a081019091526001600160a01b037f00000000000000000000000000000000000000000000000000000000000000001660c08201526000908060e081016040516020818303038152906040528152602001604051602001611b3690602080825260009082015260400190565b604051602081830303815290604052815260200184815260200160006001600160a01b03168152602001611bb06040518060200160405280600081525060408051915160248084019190915281518084039091018152604490920190526020810180516001600160e01b03166397a657c960e01b17905290565b90526040516320487ded60e01b81529091506000906001600160a01b038a16906320487ded90611be6908b908690600401612784565b602060405180830381865afa158015611c03573d6000803e3d6000fd5b505050506040513d601f19601f82011682018060405250810190611c279190612542565b90507f00000000000000000000000000000000000000000000000000000000000000006001600160a01b031663468721a78a836396f4e9f960e01b8c87604051602401611c75929190612784565b60408051601f198184030181529181526020820180516001600160e01b03166001600160e01b03199485161790525160e086901b9092168252611cbf9392916000906004016125c8565b6020604051808303816000875af1158015611cde573d6000803e3d6000fd5b505050506040513d601f19601f82011682018060405250810190611d02919061255b565b945084611d515760405162461bcd60e51b815260206004820152601b60248201527f4661696c656420746f2073656e642043434950206d657373616765000000000060448201526064016105b0565b505050505050505050565b60006107a5838361228f565b6000610574825490565b6040516370a0823160e01b81526001600160a01b037f00000000000000000000000000000000000000000000000000000000000000001660048201526000906006602160991b01906370a0823190602401602060405180830381865afa158015611de0573d6000803e3d6000fd5b505050506040513d601f19601f82011682018060405250810190611e049190612542565b905060007f00000000000000000000000000000000000000000000000000000000000000006001600160a01b031663468721a77398a0cbef61bd2d21435f433be4cd42b56b38cc93600063f844443660e01b87604051602401611e6991815260200190565b60408051601f198184030181529181526020820180516001600160e01b03166001600160e01b03199485161790525160e086901b9092168252611eb39392916000906004016125c8565b6020604051808303816000875af1158015611ed2573d6000803e3d6000fd5b505050506040513d601f19601f82011682018060405250810190611ef6919061255b565b905080611f455760405162461bcd60e51b815260206004820152601a60248201527f4661696c656420746f20636c61696d207769746864726177616c00000000000060448201526064016105b0565b6040516370a0823160e01b81526001600160a01b037f000000000000000000000000000000000000000000000000000000000000000016600482015282906006602160991b01906370a0823190602401602060405180830381865afa158015611fb2573d6000803e3d6000fd5b505050506040513d601f19601f82011682018060405250810190611fd69190612542565b6107a59190612619565b60606000611fef836002612865565b611ffa90600261287c565b67ffffffffffffffff811115612012576120126126b4565b6040519080825280601f01601f19166020018201604052801561203c576020820181803683370190505b509050600360fc1b816000815181106120575761205761276e565b60200101906001600160f81b031916908160001a905350600f60fb1b816001815181106120865761208661276e565b60200101906001600160f81b031916908160001a90535060006120aa846002612865565b6120b590600161287c565b90505b600181111561212d576f181899199a1a9b1b9c1cb0b131b232b360811b85600f16601081106120e9576120e961276e565b1a60f81b8282815181106120ff576120ff61276e565b60200101906001600160f81b031916908160001a90535060049490941c936121268161288f565b90506120b8565b5083156107a55760405162461bcd60e51b815260206004820181905260248201527f537472696e67733a20686578206c656e67746820696e73756666696369656e7460448201526064016105b0565b61218682826107ac565b6106bb576000828152602081815260408083206001600160a01b03851684529091529020805460ff191660011790556121bc3390565b6001600160a01b0316816001600160a01b0316837f2f8788117e7eff1d82e926ec794901d17c78024a50270940304540a733656f0d60405160405180910390a45050565b60006107a5836001600160a01b0384166122b9565b61221f82826107ac565b156106bb576000828152602081815260408083206001600160a01b0385168085529252808320805460ff1916905551339285917ff6391f5c32d9c69d2a47ea670b442974b53935d1edc7fd64eb21e047a839171b9190a45050565b60006107a5836001600160a01b038416612308565b60008260000182815481106122a6576122a661276e565b9060005260206000200154905092915050565b600081815260018301602052604081205461230057508154600181810184556000848152602080822090930184905584548482528286019093526040902091909155610574565b506000610574565b600081815260018301602052604081205480156123f157600061232c600183612619565b855490915060009061234090600190612619565b90508181146123a55760008660000182815481106123605761236061276e565b90600052602060002001549050808760000184815481106123835761238361276e565b6000918252602080832090910192909255918252600188019052604090208390555b85548690806123b6576123b66128a6565b600190038181906000526020600020016000905590558560010160008681526020019081526020016000206000905560019350505050610574565b6000915050610574565b60006020828403121561240d57600080fd5b81356001600160e01b0319811681146107a557600080fd5b60006020828403121561243757600080fd5b5035919050565b80356001600160a01b03811681146105d257600080fd5b6000806040838503121561246857600080fd5b823591506124786020840161243e565b90509250929050565b801515811461078a57600080fd5b600080604083850312156124a257600080fd5b8235915060208301356124b481612481565b809150509250929050565b600080604083850312156124d257600080fd5b50508035926020909101359150565b600080604083850312156124f457600080fd5b6124fd8361243e565b946020939093013593505050565b60208082526019908201527f43616c6c6572206973206e6f7420616e206f70657261746f7200000000000000604082015260600190565b60006020828403121561255457600080fd5b5051919050565b60006020828403121561256d57600080fd5b81516107a581612481565b60005b8381101561259357818101518382015260200161257b565b50506000910152565b600081518084526125b4816020860160208601612578565b601f01601f19169290920160200192915050565b60018060a01b03851681528360208201526080604082015260006125ef608083018561259c565b905060ff8316606083015295945050505050565b634e487b7160e01b600052601160045260246000fd5b8181038181111561057457610574612603565b7f416363657373436f6e74726f6c3a206163636f756e7420000000000000000000815260008351612664816017850160208801612578565b7001034b99036b4b9b9b4b733903937b6329607d1b6017918401918201528351612695816028840160208801612578565b01602801949350505050565b6020815260006107a5602083018461259c565b634e487b7160e01b600052604160045260246000fd5b80516001600160801b03811681146105d257600080fd5b600060808284031280156126f457600080fd5b506040516080810167ffffffffffffffff8111828210171561272657634e487b7160e01b600052604160045260246000fd5b604052612732836126ca565b8152612740602084016126ca565b6020820152612751604084016126ca565b6040820152612762606084016126ca565b60608201529392505050565b634e487b7160e01b600052603260045260246000fd5b67ffffffffffffffff83168152604060208201526000825160a060408401526127b060e084018261259c565b90506020840151603f198483030160608501526127cd828261259c565b6040860151858203603f19016080870152805180835260209182019450600093509101905b8083101561282957835180516001600160a01b031683526020908101518184015290930192600192909201916040909101906127f2565b5060608601516001600160a01b031660a08601526080860151858203603f190160c0870152925061285a818461259c565b979650505050505050565b808202811582820484141761057457610574612603565b8082018082111561057457610574612603565b60008161289e5761289e612603565b506000190190565b634e487b7160e01b600052603160045260246000fdfe97667070c54ef182b0f5858b034beac1b6f3089aa2d3188bb1e8929f4fa9b929a26469706673582212208aa73427b396f4980e88541f71fab96186399e4afbfe37728f5a8d5b441deb0b64736f6c634300081c0033",
  "libraries": {},
  "devdoc": {
    "events": {
      "RoleAdminChanged(bytes32,bytes32,bytes32)": {
        "details": "Emitted when `newAdminRole` is set as ``role``'s admin role, replacing `previousAdminRole` `DEFAULT_ADMIN_ROLE` is the starting admin for all roles, despite {RoleAdminChanged} not being emitted signaling this. _Available since v3.1._"
      },
      "RoleGranted(bytes32,address,address)": {
        "details": "Emitted when `account` is granted `role`. `sender` is the account that originated the contract call, an admin role bearer except when using {AccessControl-_setupRole}."
      },
      "RoleRevoked(bytes32,address,address)": {
        "details": "Emitted when `account` is revoked `role`. `sender` is the account that originated the contract call:   - if using `revokeRole`, it is the admin role bearer   - if using `renounceRole`, it is the role bearer (i.e. `account`)"
      }
    },
    "kind": "dev",
    "methods": {
      "bridgeWETHToEthereum(uint256)": {
        "details": "Bridges WETH to Ethereum.",
        "params": {
          "wethAmount": "Amount of WETH to bridge."
        }
      },
      "bridgeWOETHToEthereum(uint256)": {
        "details": "Bridges wOETH to Ethereum.",
        "params": {
          "woethAmount": "Amount of wOETH to bridge."
        }
      },
      "claimAndBridgeWETH(uint256)": {
        "details": "Claims a previously requested withdrawal and bridges WETH to Ethereum.",
        "params": {
          "requestId": "The withdrawal request ID to claim."
        }
      },
      "claimWithdrawal(uint256)": {
        "details": "Claims a previously requested withdrawal.",
        "params": {
          "requestId": "The withdrawal request ID to claim."
        },
        "returns": {
          "wethAmount": "Amount of WETH received."
        }
      },
      "depositWETHAndRedeemWOETH(uint256)": {
        "details": "Deposits WETH into the Vault and redeems wOETH from the bridgedWOETH strategy.",
        "params": {
          "wethAmount": "Amount of WETH to deposit."
        },
        "returns": {
          "_0": "Amount of wOETH received."
        }
      },
      "depositWOETH(uint256,bool)": {
        "details": "Deposits wOETH into the bridgedWOETH strategy.",
        "params": {
          "requestWithdrawal": "Whether to request an async withdrawal of the        resulting OETHb from the Vault.",
          "woethAmount": "Amount of wOETH to deposit."
        },
        "returns": {
          "oethbAmount": "Amount of OETHb received or queued for withdrawal.",
          "requestId": "The withdrawal request ID (0 if not requested)."
        }
      },
      "getRoleAdmin(bytes32)": {
        "details": "Returns the admin role that controls `role`. See {grantRole} and {revokeRole}. To change a role's admin, use {_setRoleAdmin}."
      },
      "getRoleMember(bytes32,uint256)": {
        "details": "Returns one of the accounts that have `role`. `index` must be a value between 0 and {getRoleMemberCount}, non-inclusive. Role bearers are not sorted in any particular way, and their ordering may change at any point. WARNING: When using {getRoleMember} and {getRoleMemberCount}, make sure you perform all queries on the same block. See the following https://forum.openzeppelin.com/t/iterating-over-elements-on-enumerableset-in-openzeppelin-contracts/2296[forum post] for more information."
      },
      "getRoleMemberCount(bytes32)": {
        "details": "Returns the number of accounts that have `role`. Can be used together with {getRoleMember} to enumerate all bearers of a role."
      },
      "grantRole(bytes32,address)": {
        "details": "Grants `role` to `account`. If `account` had not been already granted `role`, emits a {RoleGranted} event. Requirements: - the caller must have ``role``'s admin role."
      },
      "hasRole(bytes32,address)": {
        "details": "Returns `true` if `account` has been granted `role`."
      },
      "renounceRole(bytes32,address)": {
        "details": "Revokes `role` from the calling account. Roles are often managed via {grantRole} and {revokeRole}: this function's purpose is to provide a mechanism for accounts to lose their privileges if they are compromised (such as when a trusted device is misplaced). If the calling account had been revoked `role`, emits a {RoleRevoked} event. Requirements: - the caller must be `account`."
      },
      "revokeRole(bytes32,address)": {
        "details": "Revokes `role` from `account`. If `account` had been granted `role`, emits a {RoleRevoked} event. Requirements: - the caller must have ``role``'s admin role."
      },
      "supportsInterface(bytes4)": {
        "details": "See {IERC165-supportsInterface}."
      },
      "transferTokens(address,uint256)": {
        "details": "Helps recovering any tokens accidentally sent to this module.",
        "params": {
          "amount": "Amount to transfer. 0 to transfer all balance.",
          "token": "Token to transfer. 0x0 to transfer Native token."
        }
      }
    },
    "version": 1
  },
  "userdoc": {
    "kind": "user",
    "methods": {},
    "version": 1
  },
  "storageLayout": {
    "storage": [
      {
        "astId": 132,
        "contract": "contracts/automation/BaseBridgeHelperModule.sol:BaseBridgeHelperModule",
        "label": "_roles",
        "offset": 0,
        "slot": "0",
        "type": "t_mapping(t_bytes32,t_struct(RoleData)127_storage)"
      },
      {
        "astId": 435,
        "contract": "contracts/automation/BaseBridgeHelperModule.sol:BaseBridgeHelperModule",
        "label": "_roleMembers",
        "offset": 0,
        "slot": "1",
        "type": "t_mapping(t_bytes32,t_struct(AddressSet)2541_storage)"
      }
    ],
    "types": {
      "t_address": {
        "encoding": "inplace",
        "label": "address",
        "numberOfBytes": "20"
      },
      "t_array(t_bytes32)dyn_storage": {
        "base": "t_bytes32",
        "encoding": "dynamic_array",
        "label": "bytes32[]",
        "numberOfBytes": "32"
      },
      "t_bool": {
        "encoding": "inplace",
        "label": "bool",
        "numberOfBytes": "1"
      },
      "t_bytes32": {
        "encoding": "inplace",
        "label": "bytes32",
        "numberOfBytes": "32"
      },
      "t_mapping(t_address,t_bool)": {
        "encoding": "mapping",
        "key": "t_address",
        "label": "mapping(address => bool)",
        "numberOfBytes": "32",
        "value": "t_bool"
      },
      "t_mapping(t_bytes32,t_struct(AddressSet)2541_storage)": {
        "encoding": "mapping",
        "key": "t_bytes32",
        "label": "mapping(bytes32 => struct EnumerableSet.AddressSet)",
        "numberOfBytes": "32",
        "value": "t_struct(AddressSet)2541_storage"
      },
      "t_mapping(t_bytes32,t_struct(RoleData)127_storage)": {
        "encoding": "mapping",
        "key": "t_bytes32",
        "label": "mapping(bytes32 => struct AccessControl.RoleData)",
        "numberOfBytes": "32",
        "value": "t_struct(RoleData)127_storage"
      },
      "t_mapping(t_bytes32,t_uint256)": {
        "encoding": "mapping",
        "key": "t_bytes32",
        "label": "mapping(bytes32 => uint256)",
        "numberOfBytes": "32",
        "value": "t_uint256"
      },
      "t_struct(AddressSet)2541_storage": {
        "encoding": "inplace",
        "label": "struct EnumerableSet.AddressSet",
        "members": [
          {
            "astId": 2540,
            "contract": "contracts/automation/BaseBridgeHelperModule.sol:BaseBridgeHelperModule",
            "label": "_inner",
            "offset": 0,
            "slot": "0",
            "type": "t_struct(Set)2240_storage"
          }
        ],
        "numberOfBytes": "64"
      },
      "t_struct(RoleData)127_storage": {
        "encoding": "inplace",
        "label": "struct AccessControl.RoleData",
        "members": [
          {
            "astId": 124,
            "contract": "contracts/automation/BaseBridgeHelperModule.sol:BaseBridgeHelperModule",
            "label": "members",
            "offset": 0,
            "slot": "0",
            "type": "t_mapping(t_address,t_bool)"
          },
          {
            "astId": 126,
            "contract": "contracts/automation/BaseBridgeHelperModule.sol:BaseBridgeHelperModule",
            "label": "adminRole",
            "offset": 0,
            "slot": "1",
            "type": "t_bytes32"
          }
        ],
        "numberOfBytes": "64"
      },
      "t_struct(Set)2240_storage": {
        "encoding": "inplace",
        "label": "struct EnumerableSet.Set",
        "members": [
          {
            "astId": 2235,
            "contract": "contracts/automation/BaseBridgeHelperModule.sol:BaseBridgeHelperModule",
            "label": "_values",
            "offset": 0,
            "slot": "0",
            "type": "t_array(t_bytes32)dyn_storage"
          },
          {
            "astId": 2239,
            "contract": "contracts/automation/BaseBridgeHelperModule.sol:BaseBridgeHelperModule",
            "label": "_indexes",
            "offset": 0,
            "slot": "1",
            "type": "t_mapping(t_bytes32,t_uint256)"
          }
        ],
        "numberOfBytes": "64"
      },
      "t_uint256": {
        "encoding": "inplace",
        "label": "uint256",
        "numberOfBytes": "32"
      }
    }
  }
}