{
  "address": "0x8aF48Aa50e4F7ed67e7d654FE51A4EDA3395123b",
  "abi": [
    {
      "inputs": [
        {
          "components": [
            {
              "internalType": "address",
              "name": "platformAddress",
              "type": "address"
            },
            {
              "internalType": "address",
              "name": "vaultAddress",
              "type": "address"
            }
          ],
          "internalType": "struct InitializableAbstractStrategy.BaseStrategyConfig",
          "name": "_stratConfig",
          "type": "tuple"
        },
        {
          "internalType": "address",
          "name": "_weth",
          "type": "address"
        },
        {
          "internalType": "address",
          "name": "_bridgedWOETH",
          "type": "address"
        },
        {
          "internalType": "address",
          "name": "_oethb",
          "type": "address"
        }
      ],
      "stateMutability": "nonpayable",
      "type": "constructor"
    },
    {
      "anonymous": false,
      "inputs": [
        {
          "indexed": true,
          "internalType": "address",
          "name": "_asset",
          "type": "address"
        },
        {
          "indexed": false,
          "internalType": "address",
          "name": "_pToken",
          "type": "address"
        },
        {
          "indexed": false,
          "internalType": "uint256",
          "name": "_amount",
          "type": "uint256"
        }
      ],
      "name": "Deposit",
      "type": "event"
    },
    {
      "anonymous": false,
      "inputs": [
        {
          "indexed": true,
          "internalType": "address",
          "name": "previousGovernor",
          "type": "address"
        },
        {
          "indexed": true,
          "internalType": "address",
          "name": "newGovernor",
          "type": "address"
        }
      ],
      "name": "GovernorshipTransferred",
      "type": "event"
    },
    {
      "anonymous": false,
      "inputs": [
        {
          "indexed": false,
          "internalType": "address",
          "name": "_oldHarvesterAddress",
          "type": "address"
        },
        {
          "indexed": false,
          "internalType": "address",
          "name": "_newHarvesterAddress",
          "type": "address"
        }
      ],
      "name": "HarvesterAddressesUpdated",
      "type": "event"
    },
    {
      "anonymous": false,
      "inputs": [
        {
          "indexed": false,
          "internalType": "uint128",
          "name": "oldValue",
          "type": "uint128"
        },
        {
          "indexed": false,
          "internalType": "uint128",
          "name": "newValue",
          "type": "uint128"
        }
      ],
      "name": "MaxPriceDiffBpsUpdated",
      "type": "event"
    },
    {
      "anonymous": false,
      "inputs": [
        {
          "indexed": true,
          "internalType": "address",
          "name": "_asset",
          "type": "address"
        },
        {
          "indexed": false,
          "internalType": "address",
          "name": "_pToken",
          "type": "address"
        }
      ],
      "name": "PTokenAdded",
      "type": "event"
    },
    {
      "anonymous": false,
      "inputs": [
        {
          "indexed": true,
          "internalType": "address",
          "name": "_asset",
          "type": "address"
        },
        {
          "indexed": false,
          "internalType": "address",
          "name": "_pToken",
          "type": "address"
        }
      ],
      "name": "PTokenRemoved",
      "type": "event"
    },
    {
      "anonymous": false,
      "inputs": [
        {
          "indexed": true,
          "internalType": "address",
          "name": "previousGovernor",
          "type": "address"
        },
        {
          "indexed": true,
          "internalType": "address",
          "name": "newGovernor",
          "type": "address"
        }
      ],
      "name": "PendingGovernorshipTransfer",
      "type": "event"
    },
    {
      "anonymous": false,
      "inputs": [
        {
          "indexed": false,
          "internalType": "address[]",
          "name": "_oldAddresses",
          "type": "address[]"
        },
        {
          "indexed": false,
          "internalType": "address[]",
          "name": "_newAddresses",
          "type": "address[]"
        }
      ],
      "name": "RewardTokenAddressesUpdated",
      "type": "event"
    },
    {
      "anonymous": false,
      "inputs": [
        {
          "indexed": false,
          "internalType": "address",
          "name": "recipient",
          "type": "address"
        },
        {
          "indexed": false,
          "internalType": "address",
          "name": "rewardToken",
          "type": "address"
        },
        {
          "indexed": false,
          "internalType": "uint256",
          "name": "amount",
          "type": "uint256"
        }
      ],
      "name": "RewardTokenCollected",
      "type": "event"
    },
    {
      "anonymous": false,
      "inputs": [
        {
          "indexed": false,
          "internalType": "uint128",
          "name": "oldValue",
          "type": "uint128"
        },
        {
          "indexed": false,
          "internalType": "uint128",
          "name": "newValue",
          "type": "uint128"
        }
      ],
      "name": "WOETHPriceUpdated",
      "type": "event"
    },
    {
      "anonymous": false,
      "inputs": [
        {
          "indexed": true,
          "internalType": "address",
          "name": "_asset",
          "type": "address"
        },
        {
          "indexed": false,
          "internalType": "address",
          "name": "_pToken",
          "type": "address"
        },
        {
          "indexed": false,
          "internalType": "uint256",
          "name": "_amount",
          "type": "uint256"
        }
      ],
      "name": "Withdrawal",
      "type": "event"
    },
    {
      "inputs": [],
      "name": "MAX_PRICE_STALENESS",
      "outputs": [
        {
          "internalType": "uint256",
          "name": "",
          "type": "uint256"
        }
      ],
      "stateMutability": "view",
      "type": "function"
    },
    {
      "inputs": [
        {
          "internalType": "address",
          "name": "",
          "type": "address"
        }
      ],
      "name": "assetToPToken",
      "outputs": [
        {
          "internalType": "address",
          "name": "",
          "type": "address"
        }
      ],
      "stateMutability": "view",
      "type": "function"
    },
    {
      "inputs": [],
      "name": "bridgedWOETH",
      "outputs": [
        {
          "internalType": "contract IERC20",
          "name": "",
          "type": "address"
        }
      ],
      "stateMutability": "view",
      "type": "function"
    },
    {
      "inputs": [
        {
          "internalType": "address",
          "name": "_asset",
          "type": "address"
        }
      ],
      "name": "checkBalance",
      "outputs": [
        {
          "internalType": "uint256",
          "name": "balance",
          "type": "uint256"
        }
      ],
      "stateMutability": "view",
      "type": "function"
    },
    {
      "inputs": [],
      "name": "claimGovernance",
      "outputs": [],
      "stateMutability": "nonpayable",
      "type": "function"
    },
    {
      "inputs": [],
      "name": "collectRewardTokens",
      "outputs": [],
      "stateMutability": "nonpayable",
      "type": "function"
    },
    {
      "inputs": [
        {
          "internalType": "address",
          "name": "",
          "type": "address"
        },
        {
          "internalType": "uint256",
          "name": "",
          "type": "uint256"
        }
      ],
      "name": "deposit",
      "outputs": [],
      "stateMutability": "nonpayable",
      "type": "function"
    },
    {
      "inputs": [],
      "name": "depositAll",
      "outputs": [],
      "stateMutability": "nonpayable",
      "type": "function"
    },
    {
      "inputs": [
        {
          "internalType": "uint256",
          "name": "woethAmount",
          "type": "uint256"
        }
      ],
      "name": "depositBridgedWOETH",
      "outputs": [],
      "stateMutability": "nonpayable",
      "type": "function"
    },
    {
      "inputs": [
        {
          "internalType": "uint256",
          "name": "woethAmount",
          "type": "uint256"
        }
      ],
      "name": "getBridgedWOETHValue",
      "outputs": [
        {
          "internalType": "uint256",
          "name": "",
          "type": "uint256"
        }
      ],
      "stateMutability": "view",
      "type": "function"
    },
    {
      "inputs": [],
      "name": "getRewardTokenAddresses",
      "outputs": [
        {
          "internalType": "address[]",
          "name": "",
          "type": "address[]"
        }
      ],
      "stateMutability": "view",
      "type": "function"
    },
    {
      "inputs": [],
      "name": "governor",
      "outputs": [
        {
          "internalType": "address",
          "name": "",
          "type": "address"
        }
      ],
      "stateMutability": "view",
      "type": "function"
    },
    {
      "inputs": [],
      "name": "harvesterAddress",
      "outputs": [
        {
          "internalType": "address",
          "name": "",
          "type": "address"
        }
      ],
      "stateMutability": "view",
      "type": "function"
    },
    {
      "inputs": [
        {
          "internalType": "uint128",
          "name": "_maxPriceDiffBps",
          "type": "uint128"
        }
      ],
      "name": "initialize",
      "outputs": [],
      "stateMutability": "nonpayable",
      "type": "function"
    },
    {
      "inputs": [],
      "name": "isGovernor",
      "outputs": [
        {
          "internalType": "bool",
          "name": "",
          "type": "bool"
        }
      ],
      "stateMutability": "view",
      "type": "function"
    },
    {
      "inputs": [],
      "name": "lastOraclePrice",
      "outputs": [
        {
          "internalType": "uint128",
          "name": "",
          "type": "uint128"
        }
      ],
      "stateMutability": "view",
      "type": "function"
    },
    {
      "inputs": [],
      "name": "maxPriceDiffBps",
      "outputs": [
        {
          "internalType": "uint128",
          "name": "",
          "type": "uint128"
        }
      ],
      "stateMutability": "view",
      "type": "function"
    },
    {
      "inputs": [],
      "name": "oethb",
      "outputs": [
        {
          "internalType": "contract IERC20",
          "name": "",
          "type": "address"
        }
      ],
      "stateMutability": "view",
      "type": "function"
    },
    {
      "inputs": [],
      "name": "platformAddress",
      "outputs": [
        {
          "internalType": "address",
          "name": "",
          "type": "address"
        }
      ],
      "stateMutability": "view",
      "type": "function"
    },
    {
      "inputs": [
        {
          "internalType": "uint256",
          "name": "",
          "type": "uint256"
        }
      ],
      "name": "removePToken",
      "outputs": [],
      "stateMutability": "nonpayable",
      "type": "function"
    },
    {
      "inputs": [
        {
          "internalType": "uint256",
          "name": "",
          "type": "uint256"
        }
      ],
      "name": "rewardTokenAddresses",
      "outputs": [
        {
          "internalType": "address",
          "name": "",
          "type": "address"
        }
      ],
      "stateMutability": "view",
      "type": "function"
    },
    {
      "inputs": [],
      "name": "safeApproveAllTokens",
      "outputs": [],
      "stateMutability": "nonpayable",
      "type": "function"
    },
    {
      "inputs": [
        {
          "internalType": "address",
          "name": "_harvesterAddress",
          "type": "address"
        }
      ],
      "name": "setHarvesterAddress",
      "outputs": [],
      "stateMutability": "nonpayable",
      "type": "function"
    },
    {
      "inputs": [
        {
          "internalType": "uint128",
          "name": "_maxPriceDiffBps",
          "type": "uint128"
        }
      ],
      "name": "setMaxPriceDiffBps",
      "outputs": [],
      "stateMutability": "nonpayable",
      "type": "function"
    },
    {
      "inputs": [
        {
          "internalType": "address",
          "name": "_asset",
          "type": "address"
        },
        {
          "internalType": "address",
          "name": "_pToken",
          "type": "address"
        }
      ],
      "name": "setPTokenAddress",
      "outputs": [],
      "stateMutability": "nonpayable",
      "type": "function"
    },
    {
      "inputs": [
        {
          "internalType": "address[]",
          "name": "_rewardTokenAddresses",
          "type": "address[]"
        }
      ],
      "name": "setRewardTokenAddresses",
      "outputs": [],
      "stateMutability": "nonpayable",
      "type": "function"
    },
    {
      "inputs": [
        {
          "internalType": "address",
          "name": "_asset",
          "type": "address"
        }
      ],
      "name": "supportsAsset",
      "outputs": [
        {
          "internalType": "bool",
          "name": "",
          "type": "bool"
        }
      ],
      "stateMutability": "view",
      "type": "function"
    },
    {
      "inputs": [
        {
          "internalType": "address",
          "name": "_newGovernor",
          "type": "address"
        }
      ],
      "name": "transferGovernance",
      "outputs": [],
      "stateMutability": "nonpayable",
      "type": "function"
    },
    {
      "inputs": [
        {
          "internalType": "address",
          "name": "_asset",
          "type": "address"
        },
        {
          "internalType": "uint256",
          "name": "_amount",
          "type": "uint256"
        }
      ],
      "name": "transferToken",
      "outputs": [],
      "stateMutability": "nonpayable",
      "type": "function"
    },
    {
      "inputs": [],
      "name": "updateWOETHOraclePrice",
      "outputs": [
        {
          "internalType": "uint256",
          "name": "",
          "type": "uint256"
        }
      ],
      "stateMutability": "nonpayable",
      "type": "function"
    },
    {
      "inputs": [],
      "name": "vaultAddress",
      "outputs": [
        {
          "internalType": "address",
          "name": "",
          "type": "address"
        }
      ],
      "stateMutability": "view",
      "type": "function"
    },
    {
      "inputs": [],
      "name": "weth",
      "outputs": [
        {
          "internalType": "contract IWETH9",
          "name": "",
          "type": "address"
        }
      ],
      "stateMutability": "view",
      "type": "function"
    },
    {
      "inputs": [
        {
          "internalType": "address",
          "name": "_recipient",
          "type": "address"
        },
        {
          "internalType": "address",
          "name": "_asset",
          "type": "address"
        },
        {
          "internalType": "uint256",
          "name": "_amount",
          "type": "uint256"
        }
      ],
      "name": "withdraw",
      "outputs": [],
      "stateMutability": "nonpayable",
      "type": "function"
    },
    {
      "inputs": [],
      "name": "withdrawAll",
      "outputs": [],
      "stateMutability": "nonpayable",
      "type": "function"
    },
    {
      "inputs": [
        {
          "internalType": "uint256",
          "name": "oethToBurn",
          "type": "uint256"
        }
      ],
      "name": "withdrawBridgedWOETH",
      "outputs": [],
      "stateMutability": "nonpayable",
      "type": "function"
    }
  ],
  "transactionHash": "0x70087cb3396c87639f814664e23f4040cb292f0c31578b3564ba51f3990c735f",
  "args": [
    [
      "0x0000000000000000000000000000000000000000",
      "0x98a0CbeF61bD2D21435f433bE4CD42B56B38CC93"
    ],
    "0x4200000000000000000000000000000000000006",
    "0xD8724322f44E5c58D7A815F542036fb17DbbF839",
    "0xDBFeFD2e8460a6Ee4955A68582F85708BAEA60A3"
  ],
  "numDeployments": 1,
  "solcInputHash": "634553db6523b06b1515e876dfeada8e",
  "bytecode": "0x6101206040523480156200001257600080fd5b5060405162002a9038038062002a908339810160408190526200003591620000f4565b836200004e3360008051602062002a7083398151915255565b60008051602062002a70833981519152546040516001600160a01b03909116906000907fc7c0c772add429241571afb3805861fb3cfa2af374534088b76cdb4325a87e9a908290a380516001600160601b0319606091821b8116608052602090920151811b821660a05293841b811660c05291831b821660e05290911b166101005250620001ab565b80516001600160a01b0381168114620000ef57600080fd5b919050565b60008060008084860360a08112156200010c57600080fd5b60408112156200011b57600080fd5b50604080519081016001600160401b03811182821017156200014d57634e487b7160e01b600052604160045260246000fd5b6040526200015b86620000d7565b81526200016b60208701620000d7565b602082015293506200018060408601620000d7565b92506200019060608601620000d7565b9150620001a060808601620000d7565b905092959194509250565b60805160601c60a05160601c60c05160601c60e05160601c6101005160601c6127d7620002996000396000818161039a01528181610967015261154501526000818161047f015281816105c10152818161082c015281816108c001528181610dd401528181611439015281816115ee0152611a2d0152600081816102e20152818161043a015281816105fe0152818161085801528181610d350152611465015260008181610309015281816106ab01528181610a0201528181610aac01528181610f14015281816112bf015281816114c70152818161168901526119870152600061050401526127d76000f3fe608060405234801561001057600080fd5b50600436106102115760003560e01c80637b2d9b2c11610125578063c2e1e3f4116100ad578063d6e772a41161007c578063d6e772a4146104d9578063d9caed12146104ec578063dbe55e56146104ff578063de5f626814610526578063f6ca71b01461052e57600080fd5b8063c2e1e3f4146104a1578063c7af3352146104b4578063d38bfff4146104bc578063d6913b32146104cf57600080fd5b8063951ba637116100f4578063951ba637146103fd57806396d538bb14610417578063aa388af61461042a578063ad1728cb1461024e578063aeaf191b1461047a57600080fd5b80637b2d9b2c146103bc5780637e50ac3f146103cf578063853828b6146103e25780639136616a146103ea57600080fd5b8063430bf08a116101a85780635d36b190116101775780635d36b190146103515780635f5152261461035957806367c7066c1461037a5780636c7138331461038d5780636dea9b191461039557600080fd5b8063430bf08a1461030457806347e7ef241461032b57806356db9ef11461033e5780635a063f631461024e57600080fd5b80632579fe8a116101e45780632579fe8a1461028c578063349f71731461029f5780633ad12229146102ca5780633fc8cef3146102dd57600080fd5b80630c340a24146102165780630ed57b3a1461023b5780630fc3b4c4146102505780631072cbea14610279575b600080fd5b61021e610543565b6040516001600160a01b0390911681526020015b60405180910390f35b61024e61024936600461229d565b610560565b005b61021e61025e366004612263565b6035602052600090815260409020546001600160a01b031681565b61024e610287366004612317565b61059b565b61024e61029a366004612403565b61069b565b609d546102b2906001600160801b031681565b6040516001600160801b039091168152602001610232565b61024e6102d83660046123da565b610a71565b61021e7f000000000000000000000000000000000000000000000000000000000000000081565b61021e7f000000000000000000000000000000000000000000000000000000000000000081565b61024e610339366004612317565b610aa1565b61024e61034c3660046123da565b610b84565b61024e610c8d565b61036c610367366004612263565b610d31565b604051908152602001610232565b60395461021e906001600160a01b031681565b61036c610e70565b61021e7f000000000000000000000000000000000000000000000000000000000000000081565b61021e6103ca366004612403565b610ebc565b61036c6103dd366004612403565b610ee6565b61024e610f09565b61024e6103f8366004612403565b610fe9565b609d546102b290600160801b90046001600160801b031681565b61024e610425366004612343565b611027565b61046a610438366004612263565b7f00000000000000000000000000000000000000000000000000000000000000006001600160a01b0390811691161490565b6040519015158152602001610232565b61021e7f000000000000000000000000000000000000000000000000000000000000000081565b61024e6104af366004612263565b61114d565b61046a6111da565b61024e6104ca366004612263565b61120b565b61036c6202a30081565b61024e6104e7366004612403565b6112af565b61024e6104fa3660046122d6565b61167e565b61021e7f000000000000000000000000000000000000000000000000000000000000000081565b61024e610aa1565b610536611764565b6040516102329190612451565b600061055b6000805160206127828339815191525490565b905090565b6105686111da565b61058d5760405162461bcd60e51b815260040161058490612569565b60405180910390fd5b61059782826117c6565b5050565b6105a36111da565b6105bf5760405162461bcd60e51b815260040161058490612569565b7f00000000000000000000000000000000000000000000000000000000000000006001600160a01b0316826001600160a01b03161415801561063357507f00000000000000000000000000000000000000000000000000000000000000006001600160a01b0316826001600160a01b031614155b61067f5760405162461bcd60e51b815260206004820152601f60248201527f43616e6e6f74207472616e7366657220737570706f72746564206173736574006044820152606401610584565b61059761068a610543565b6001600160a01b038416908361192b565b6106a36111da565b8061074f57507f00000000000000000000000000000000000000000000000000000000000000006001600160a01b031663570d8e1d6040518163ffffffff1660e01b815260040160206040518083038186803b15801561070257600080fd5b505afa158015610716573d6000803e3d6000fd5b505050506040513d601f19601f8201168201806040525081019061073a9190612280565b6001600160a01b0316336001600160a01b0316145b61076b5760405162461bcd60e51b8152600401610584906125a0565b6000805160206127628339815191528054600281141561079d5760405162461bcd60e51b8152600401610584906125e8565b6002825560006107ab611982565b90506000816107c286670de0b6b3a76400006126a4565b6107cc9190612661565b90506000811161081e5760405162461bcd60e51b815260206004820152601760248201527f496e76616c696420776974686472617720616d6f756e740000000000000000006044820152606401610584565b604080516001600160a01b037f000000000000000000000000000000000000000000000000000000000000000081168252602082018890527f000000000000000000000000000000000000000000000000000000000000000016917f2717ead6b9200dd235aad468c9809ea400fe33ac69b5bfaa6d3e90fc922b6398910160405180910390a260405163a9059cbb60e01b8152336004820152602481018290527f00000000000000000000000000000000000000000000000000000000000000006001600160a01b03169063a9059cbb90604401602060405180830381600087803b15801561090c57600080fd5b505af1158015610920573d6000803e3d6000fd5b505050506040513d601f19601f8201168201806040525081019061094491906123b8565b506040516323b872dd60e01b8152336004820152306024820152604481018690527f00000000000000000000000000000000000000000000000000000000000000006001600160a01b0316906323b872dd90606401602060405180830381600087803b1580156109b357600080fd5b505af11580156109c7573d6000803e3d6000fd5b505050506040513d601f19601f820116820180604052508101906109eb91906123b8565b5060405163310bf9f560e11b8152600481018690527f00000000000000000000000000000000000000000000000000000000000000006001600160a01b031690636217f3ea90602401600060405180830381600087803b158015610a4e57600080fd5b505af1158015610a62573d6000803e3d6000fd5b50505050505060018255505050565b610a796111da565b610a955760405162461bcd60e51b815260040161058490612569565b610a9e81611c94565b50565b336001600160a01b037f00000000000000000000000000000000000000000000000000000000000000001614610b135760405162461bcd60e51b815260206004820152601760248201527610d85b1b195c881a5cc81b9bdd081d1a194815985d5b1d604a1b6044820152606401610584565b60008051602061276283398151915280546002811415610b455760405162461bcd60e51b8152600401610584906125e8565b6002825560405162461bcd60e51b815260206004820152601060248201526f11195c1bdcda5d08191a5cd8589b195960821b6044820152606401610584565b610b8c6111da565b610ba85760405162461bcd60e51b815260040161058490612569565b600054610100900460ff1680610bc1575060005460ff16155b610c245760405162461bcd60e51b815260206004820152602e60248201527f496e697469616c697a61626c653a20636f6e747261637420697320616c72656160448201526d191e481a5b9a5d1a585b1a5e995960921b6064820152608401610584565b600054610100900460ff16158015610c46576000805461ffff19166101011790555b6040805160008082526020820181815282840191825260608301909352610c6d9290611d65565b610c7682611c94565b8015610597576000805461ff00191690555050565b565b7f44c4d30b2eaad5130ad70c3ba6972730566f3e6359ab83e800d905c61b1c51db546001600160a01b0316336001600160a01b031614610d285760405162461bcd60e51b815260206004820152603060248201527f4f6e6c79207468652070656e64696e6720476f7665726e6f722063616e20636f60448201526f6d706c6574652074686520636c61696d60801b6064820152608401610584565b610c8b33611e20565b60007f00000000000000000000000000000000000000000000000000000000000000006001600160a01b0316826001600160a01b031614610da85760405162461bcd60e51b8152602060048201526011602482015270155b9cdd5c1c1bdc9d195908185cdcd95d607a1b6044820152606401610584565b609d546040516370a0823160e01b8152306004820152670de0b6b3a7640000916001600160801b0316907f00000000000000000000000000000000000000000000000000000000000000006001600160a01b0316906370a082319060240160206040518083038186803b158015610e1e57600080fd5b505afa158015610e32573d6000803e3d6000fd5b505050506040513d601f19601f82011682018060405250810190610e56919061241c565b610e6091906126a4565b610e6a9190612661565b92915050565b6000805160206127628339815191528054600091906002811415610ea65760405162461bcd60e51b8152600401610584906125e8565b60028255610eb2611982565b9250506001905590565b603a8181548110610ecc57600080fd5b6000918252602090912001546001600160a01b0316905081565b609d54600090670de0b6b3a764000090610e60906001600160801b0316846126a4565b336001600160a01b037f0000000000000000000000000000000000000000000000000000000000000000161480610f585750610f43610543565b6001600160a01b0316336001600160a01b0316145b610fb05760405162461bcd60e51b815260206004820152602360248201527f43616c6c6572206973206e6f7420746865205661756c74206f7220476f7665726044820152623737b960e91b6064820152608401610584565b60008051602061276283398151915280546002811415610fe25760405162461bcd60e51b8152600401610584906125e8565b5060019055565b60405162461bcd60e51b8152602060048201526013602482015272139bc81c151bdad95b9cc8185c99481d5cd959606a1b6044820152606401610584565b61102f6111da565b61104b5760405162461bcd60e51b815260040161058490612569565b8060005b818110156110fe57600084848381811061106b5761106b612736565b90506020020160208101906110809190612263565b6001600160a01b031614156110ee5760405162461bcd60e51b815260206004820152602e60248201527f43616e206e6f742073657420616e20656d70747920616464726573732061732060448201526d30903932bbb0b932103a37b5b2b760911b6064820152608401610584565b6110f7816126ef565b905061104f565b507f04c0b9649497d316554306e53678d5f5f5dbc3a06f97dec13ff4cfe98b986bbc603a84846040516111339392919061249e565b60405180910390a1611147603a848461219a565b50505050565b6111556111da565b6111715760405162461bcd60e51b815260040161058490612569565b603954604080516001600160a01b03928316815291831660208301527fe48386b84419f4d36e0f96c10cc3510b6fb1a33795620c5098b22472bbe90796910160405180910390a1603980546001600160a01b0319166001600160a01b0392909216919091179055565b60006111f26000805160206127828339815191525490565b6001600160a01b0316336001600160a01b031614905090565b6112136111da565b61122f5760405162461bcd60e51b815260040161058490612569565b611257817f44c4d30b2eaad5130ad70c3ba6972730566f3e6359ab83e800d905c61b1c51db55565b806001600160a01b03166112776000805160206127828339815191525490565b6001600160a01b03167fa39cc5eb22d0f34d8beaefee8a3f17cc229c1a1d1ef87a5ad47313487b1c4f0d60405160405180910390a350565b6112b76111da565b8061136357507f00000000000000000000000000000000000000000000000000000000000000006001600160a01b031663570d8e1d6040518163ffffffff1660e01b815260040160206040518083038186803b15801561131657600080fd5b505afa15801561132a573d6000803e3d6000fd5b505050506040513d601f19601f8201168201806040525081019061134e9190612280565b6001600160a01b0316336001600160a01b0316145b61137f5760405162461bcd60e51b8152600401610584906125a0565b600080516020612762833981519152805460028114156113b15760405162461bcd60e51b8152600401610584906125e8565b6002825560006113bf611982565b90506000670de0b6b3a76400006113d683876126a4565b6113e09190612661565b90506000811161142b5760405162461bcd60e51b8152602060048201526016602482015275125b9d985b1a590819195c1bdcda5d08185b5bdd5b9d60521b6044820152606401610584565b604080516001600160a01b037f000000000000000000000000000000000000000000000000000000000000000081168252602082018490527f000000000000000000000000000000000000000000000000000000000000000016917f5548c837ab068cf56a2c2479df0882a4922fd203edb7517321831d95078c5f62910160405180910390a260405163ab80dafb60e01b8152600481018290527f00000000000000000000000000000000000000000000000000000000000000006001600160a01b03169063ab80dafb90602401600060405180830381600087803b15801561151357600080fd5b505af1158015611527573d6000803e3d6000fd5b505060405163a9059cbb60e01b8152336004820152602481018490527f00000000000000000000000000000000000000000000000000000000000000006001600160a01b0316925063a9059cbb9150604401602060405180830381600087803b15801561159357600080fd5b505af11580156115a7573d6000803e3d6000fd5b505050506040513d601f19601f820116820180604052508101906115cb91906123b8565b506040516323b872dd60e01b8152336004820152306024820152604481018690527f00000000000000000000000000000000000000000000000000000000000000006001600160a01b0316906323b872dd90606401602060405180830381600087803b15801561163a57600080fd5b505af115801561164e573d6000803e3d6000fd5b505050506040513d601f19601f8201168201806040525081019061167291906123b8565b50505060018255505050565b336001600160a01b037f000000000000000000000000000000000000000000000000000000000000000016146116f05760405162461bcd60e51b815260206004820152601760248201527610d85b1b195c881a5cc81b9bdd081d1a194815985d5b1d604a1b6044820152606401610584565b600080516020612762833981519152805460028114156117225760405162461bcd60e51b8152600401610584906125e8565b6002825560405162461bcd60e51b815260206004820152601360248201527215da5d1a191c985dd85b08191a5cd8589b1959606a1b6044820152606401610584565b6060603a8054806020026020016040519081016040528092919081815260200182805480156117bc57602002820191906000526020600020905b81546001600160a01b0316815260019091019060200180831161179e575b5050505050905090565b6001600160a01b0382811660009081526035602052604090205416156118235760405162461bcd60e51b81526020600482015260126024820152711c151bdad95b88185b1c9958591e481cd95d60721b6044820152606401610584565b6001600160a01b0382161580159061184357506001600160a01b03811615155b6118835760405162461bcd60e51b8152602060048201526011602482015270496e76616c69642061646472657373657360781b6044820152606401610584565b6001600160a01b03828116600081815260356020908152604080832080549587166001600160a01b031996871681179091556036805460018101825594527f4a11f94e20a93c79f6ec743a1954ec4fc2c08429ae2122118bf234b2185c81b890930180549095168417909455925190815290917fef6485b84315f9b1483beffa32aae9a0596890395e3d7521f1c5fbb51790e765910160405180910390a26105978282610fe9565b604080516001600160a01b038416602482015260448082018490528251808303909101815260649091019091526020810180516001600160e01b031663a9059cbb60e01b17905261197d908490611ee1565b505050565b6000807f00000000000000000000000000000000000000000000000000000000000000006001600160a01b031663b888879e6040518163ffffffff1660e01b815260040160206040518083038186803b1580156119de57600080fd5b505afa1580156119f2573d6000803e3d6000fd5b505050506040513d601f19601f82011682018060405250810190611a169190612280565b6040516315d5220f60e31b81526001600160a01b037f000000000000000000000000000000000000000000000000000000000000000081166004830152919091169063aea910789060240160206040518083038186803b158015611a7957600080fd5b505afa158015611a8d573d6000803e3d6000fd5b505050506040513d601f19601f82011682018060405250810190611ab1919061241c565b9050670de0b6b3a76400008111611b005760405162461bcd60e51b8152602060048201526013602482015272496e76616c696420774f4554482076616c756560681b6044820152606401610584565b6000611b0b82611fb3565b609d549091506001600160801b031615611c1f57609d546001600160801b039081169082161015611b755760405162461bcd60e51b8152602060048201526014602482015273139959d85d1a5d99481dd3d15512081e5a595b1960621b6044820152606401610584565b609d5460009061271090611b9990600160801b90046001600160801b031682612610565b609d54611baf91906001600160801b0316612675565b611bb9919061263b565b6001600160801b0316905080826001600160801b03161115611c1d5760405162461bcd60e51b815260206004820152601b60248201527f50726963652064696666206265796f6e64207468726573686f6c6400000000006044820152606401610584565b505b609d54604080516001600160801b03928316815291831660208301527f688768fc37ada60fd073f86fafc8d5aa7fe9d86750ddf224bc0366812c086fe8910160405180910390a1609d80546fffffffffffffffffffffffffffffffff19166001600160801b0392909216919091179055919050565b6000816001600160801b0316118015611cb85750612710816001600160801b031611155b611cf85760405162461bcd60e51b8152602060048201526011602482015270496e76616c6964206270732076616c756560781b6044820152606401610584565b609d54604080516001600160801b03600160801b9093048316815291831660208301527f5066a7b9bf5907d8b921adeaade475273e40a7302cab0e838ef9fa2094b06b7f910160405180910390a1609d80546001600160801b03928316600160801b029216919091179055565b8251611d7890603a9060208601906121f9565b50815181518114611dc25760405162461bcd60e51b8152602060048201526014602482015273496e76616c696420696e7075742061727261797360601b6044820152606401610584565b60005b81811015611e1957611e09848281518110611de257611de2612736565b6020026020010151848381518110611dfc57611dfc612736565b60200260200101516117c6565b611e12816126ef565b9050611dc5565b5050505050565b6001600160a01b038116611e765760405162461bcd60e51b815260206004820152601a60248201527f4e657720476f7665726e6f7220697320616464726573732830290000000000006044820152606401610584565b806001600160a01b0316611e966000805160206127828339815191525490565b6001600160a01b03167fc7c0c772add429241571afb3805861fb3cfa2af374534088b76cdb4325a87e9a60405160405180910390a3610a9e8160008051602061278283398151915255565b6000611f36826040518060400160405280602081526020017f5361666545524332303a206c6f772d6c6576656c2063616c6c206661696c6564815250856001600160a01b03166120209092919063ffffffff16565b80519091501561197d5780806020019051810190611f5491906123b8565b61197d5760405162461bcd60e51b815260206004820152602a60248201527f5361666545524332303a204552433230206f7065726174696f6e20646964206e6044820152691bdd081cdd58d8d9595960b21b6064820152608401610584565b60006001600160801b0382111561201c5760405162461bcd60e51b815260206004820152602760248201527f53616665436173743a2076616c756520646f65736e27742066697420696e20316044820152663238206269747360c81b6064820152608401610584565b5090565b606061202f8484600085612039565b90505b9392505050565b60608247101561209a5760405162461bcd60e51b815260206004820152602660248201527f416464726573733a20696e73756666696369656e742062616c616e636520666f6044820152651c8818d85b1b60d21b6064820152608401610584565b843b6120e85760405162461bcd60e51b815260206004820152601d60248201527f416464726573733a2063616c6c20746f206e6f6e2d636f6e74726163740000006044820152606401610584565b600080866001600160a01b031685876040516121049190612435565b60006040518083038185875af1925050503d8060008114612141576040519150601f19603f3d011682016040523d82523d6000602084013e612146565b606091505b5091509150612156828286612161565b979650505050505050565b60608315612170575081612032565b8251156121805782518084602001fd5b8160405162461bcd60e51b81526004016105849190612536565b8280548282559060005260206000209081019282156121ed579160200282015b828111156121ed5781546001600160a01b0319166001600160a01b038435161782556020909201916001909101906121ba565b5061201c92915061224e565b8280548282559060005260206000209081019282156121ed579160200282015b828111156121ed57825182546001600160a01b0319166001600160a01b03909116178255602090920191600190910190612219565b5b8082111561201c576000815560010161224f565b60006020828403121561227557600080fd5b81356120328161274c565b60006020828403121561229257600080fd5b81516120328161274c565b600080604083850312156122b057600080fd5b82356122bb8161274c565b915060208301356122cb8161274c565b809150509250929050565b6000806000606084860312156122eb57600080fd5b83356122f68161274c565b925060208401356123068161274c565b929592945050506040919091013590565b6000806040838503121561232a57600080fd5b82356123358161274c565b946020939093013593505050565b6000806020838503121561235657600080fd5b823567ffffffffffffffff8082111561236e57600080fd5b818501915085601f83011261238257600080fd5b81358181111561239157600080fd5b8660208260051b85010111156123a657600080fd5b60209290920196919550909350505050565b6000602082840312156123ca57600080fd5b8151801515811461203257600080fd5b6000602082840312156123ec57600080fd5b81356001600160801b038116811461203257600080fd5b60006020828403121561241557600080fd5b5035919050565b60006020828403121561242e57600080fd5b5051919050565b600082516124478184602087016126c3565b9190910192915050565b6020808252825182820181905260009190848201906040850190845b818110156124925783516001600160a01b03168352928401929184019160010161246d565b50909695505050505050565b6000604082016040835280865480835260608501915087600052602092508260002060005b828110156124e85781546001600160a01b0316845292840192600191820191016124c3565b505050838103828501528481528590820160005b8681101561252a57823561250f8161274c565b6001600160a01b0316825291830191908301906001016124fc565b50979650505050505050565b60208152600082518060208401526125558160408501602087016126c3565b601f01601f19169190910160400192915050565b6020808252601a908201527f43616c6c6572206973206e6f742074686520476f7665726e6f72000000000000604082015260600190565b60208082526028908201527f43616c6c6572206973206e6f74207468652053747261746567697374206f722060408201526723b7bb32b93737b960c11b606082015260800190565b6020808252600e908201526d1499595b9d1c985b9d0818d85b1b60921b604082015260600190565b60006001600160801b038083168185168083038211156126325761263261270a565b01949350505050565b60006001600160801b038084168061265557612655612720565b92169190910492915050565b60008261267057612670612720565b500490565b60006001600160801b038083168185168183048111821515161561269b5761269b61270a565b02949350505050565b60008160001904831182151516156126be576126be61270a565b500290565b60005b838110156126de5781810151838201526020016126c6565b838111156111475750506000910152565b60006000198214156127035761270361270a565b5060010190565b634e487b7160e01b600052601160045260246000fd5b634e487b7160e01b600052601260045260246000fd5b634e487b7160e01b600052603260045260246000fd5b6001600160a01b0381168114610a9e57600080fdfe53bf423e48ed90e97d02ab0ebab13b2a235a6bfbe9c321847d5c175333ac45357bea13895fa79d2831e0a9e28edede30099005a50d652d8957cf8a607ee6ca4aa26469706673582212208fd7617b0e5ccf9337d1aeb8f728721a5f4a15bed96f1180f84df7a5c3b0a95264736f6c634300080700337bea13895fa79d2831e0a9e28edede30099005a50d652d8957cf8a607ee6ca4a",
  "libraries": {},
  "devdoc": {
    "kind": "dev",
    "methods": {
      "checkBalance(address)": {
        "params": {
          "_asset": "Address of the asset"
        },
        "returns": {
          "balance": "   Total value of the asset in the platform"
        }
      },
      "depositBridgedWOETH(uint256)": {
        "details": "Takes in bridged wOETH and mints & returns      equivalent amount of OETHb.",
        "params": {
          "woethAmount": "Amount of bridged wOETH to transfer in"
        }
      },
      "getBridgedWOETHValue(uint256)": {
        "details": "Computes & returns the value of given wOETH in WETH",
        "params": {
          "woethAmount": "Amount of wOETH"
        },
        "returns": {
          "_0": "Value of wOETH in WETH (using the last stored oracle price)"
        }
      },
      "getRewardTokenAddresses()": {
        "returns": {
          "_0": "address[] the reward token addresses."
        }
      },
      "removePToken(uint256)": {
        "params": {
          "_assetIndex": "Index of the asset to be removed"
        }
      },
      "setHarvesterAddress(address)": {
        "params": {
          "_harvesterAddress": "Address of the harvester contract."
        }
      },
      "setMaxPriceDiffBps(uint128)": {
        "details": "Sets the max price diff bps for the wOETH value appreciation",
        "params": {
          "_maxPriceDiffBps": "Bps value, 10k == 100%"
        }
      },
      "setPTokenAddress(address,address)": {
        "params": {
          "_asset": "Address for the asset",
          "_pToken": "Address for the corresponding platform token"
        }
      },
      "setRewardTokenAddresses(address[])": {
        "params": {
          "_rewardTokenAddresses": "Array of reward token addresses"
        }
      },
      "supportsAsset(address)": {
        "params": {
          "_asset": "Address of the asset"
        },
        "returns": {
          "_0": "bool     Whether asset is supported"
        }
      },
      "transferGovernance(address)": {
        "params": {
          "_newGovernor": "Address of the new Governor"
        }
      },
      "transferToken(address,uint256)": {
        "params": {
          "_amount": "Amount of the asset to transfer",
          "_asset": "Address for the asset"
        }
      },
      "updateWOETHOraclePrice()": {
        "details": "Wrapper for _updateWOETHOraclePrice with nonReentrant flag",
        "returns": {
          "_0": "The latest price of wOETH from Oracle"
        }
      },
      "withdrawBridgedWOETH(uint256)": {
        "details": "Takes in OETHb and burns it and returns      equivalent amount of bridged wOETH.",
        "params": {
          "oethToBurn": "Amount of OETHb to burn"
        }
      }
    },
    "version": 1
  },
  "userdoc": {
    "kind": "user",
    "methods": {
      "assetToPToken(address)": {
        "notice": "asset => pToken (Platform Specific Token Address)"
      },
      "checkBalance(address)": {
        "notice": "Returns the amount of backing WETH the strategy holds"
      },
      "claimGovernance()": {
        "notice": "Claim Governance of the contract to a new account (`newGovernor`). Can only be called by the new Governor."
      },
      "collectRewardTokens()": {
        "notice": "Collect accumulated reward token and send to Vault."
      },
      "deposit(address,uint256)": {
        "notice": "deposit() function not used for this strategy"
      },
      "depositAll()": {
        "notice": "depositAll() function not used for this strategy"
      },
      "getRewardTokenAddresses()": {
        "notice": "Get the reward token addresses."
      },
      "governor()": {
        "notice": "Returns the address of the current Governor."
      },
      "harvesterAddress()": {
        "notice": "Address of the Harvester contract allowed to collect reward tokens"
      },
      "isGovernor()": {
        "notice": "Returns true if the caller is the current Governor."
      },
      "platformAddress()": {
        "notice": "Address of the underlying platform"
      },
      "removePToken(uint256)": {
        "notice": "Remove a supported asset by passing its index.      This method can only be called by the system Governor"
      },
      "rewardTokenAddresses(uint256)": {
        "notice": "Address of the reward tokens. eg CRV, BAL, CVX, AURA"
      },
      "setHarvesterAddress(address)": {
        "notice": "Set the Harvester contract that can collect rewards."
      },
      "setPTokenAddress(address,address)": {
        "notice": "Provide support for asset by passing its pToken address.      This method can only be called by the system Governor"
      },
      "setRewardTokenAddresses(address[])": {
        "notice": "Set the reward token addresses. Any old addresses will be overwritten."
      },
      "supportsAsset(address)": {
        "notice": "Check if an asset is supported."
      },
      "transferGovernance(address)": {
        "notice": "Transfers Governance of the contract to a new account (`newGovernor`). Can only be called by the current Governor. Must be claimed for this to complete"
      },
      "transferToken(address,uint256)": {
        "notice": "Transfer token to governor. Intended for recovering tokens stuck in      strategy contracts, i.e. mistaken sends."
      },
      "vaultAddress()": {
        "notice": "Address of the OToken vault"
      },
      "withdraw(address,address,uint256)": {
        "notice": "withdraw() function not used for this strategy"
      },
      "withdrawAll()": {
        "notice": "withdrawAll() function not used for this strategy"
      }
    },
    "version": 1
  },
  "storageLayout": {
    "storage": [
      {
        "astId": 26066,
        "contract": "contracts/strategies/BridgedWOETHStrategy.sol:BridgedWOETHStrategy",
        "label": "initialized",
        "offset": 0,
        "slot": "0",
        "type": "t_bool"
      },
      {
        "astId": 26069,
        "contract": "contracts/strategies/BridgedWOETHStrategy.sol:BridgedWOETHStrategy",
        "label": "initializing",
        "offset": 1,
        "slot": "0",
        "type": "t_bool"
      },
      {
        "astId": 26109,
        "contract": "contracts/strategies/BridgedWOETHStrategy.sol:BridgedWOETHStrategy",
        "label": "______gap",
        "offset": 0,
        "slot": "1",
        "type": "t_array(t_uint256)50_storage"
      },
      {
        "astId": 26189,
        "contract": "contracts/strategies/BridgedWOETHStrategy.sol:BridgedWOETHStrategy",
        "label": "_deprecated_platformAddress",
        "offset": 0,
        "slot": "51",
        "type": "t_address"
      },
      {
        "astId": 26192,
        "contract": "contracts/strategies/BridgedWOETHStrategy.sol:BridgedWOETHStrategy",
        "label": "_deprecated_vaultAddress",
        "offset": 0,
        "slot": "52",
        "type": "t_address"
      },
      {
        "astId": 26197,
        "contract": "contracts/strategies/BridgedWOETHStrategy.sol:BridgedWOETHStrategy",
        "label": "assetToPToken",
        "offset": 0,
        "slot": "53",
        "type": "t_mapping(t_address,t_address)"
      },
      {
        "astId": 26201,
        "contract": "contracts/strategies/BridgedWOETHStrategy.sol:BridgedWOETHStrategy",
        "label": "assetsMapped",
        "offset": 0,
        "slot": "54",
        "type": "t_array(t_address)dyn_storage"
      },
      {
        "astId": 26203,
        "contract": "contracts/strategies/BridgedWOETHStrategy.sol:BridgedWOETHStrategy",
        "label": "_deprecated_rewardTokenAddress",
        "offset": 0,
        "slot": "55",
        "type": "t_address"
      },
      {
        "astId": 26205,
        "contract": "contracts/strategies/BridgedWOETHStrategy.sol:BridgedWOETHStrategy",
        "label": "_deprecated_rewardLiquidationThreshold",
        "offset": 0,
        "slot": "56",
        "type": "t_uint256"
      },
      {
        "astId": 26208,
        "contract": "contracts/strategies/BridgedWOETHStrategy.sol:BridgedWOETHStrategy",
        "label": "harvesterAddress",
        "offset": 0,
        "slot": "57",
        "type": "t_address"
      },
      {
        "astId": 26212,
        "contract": "contracts/strategies/BridgedWOETHStrategy.sol:BridgedWOETHStrategy",
        "label": "rewardTokenAddresses",
        "offset": 0,
        "slot": "58",
        "type": "t_array(t_address)dyn_storage"
      },
      {
        "astId": 26216,
        "contract": "contracts/strategies/BridgedWOETHStrategy.sol:BridgedWOETHStrategy",
        "label": "_reserved",
        "offset": 0,
        "slot": "59",
        "type": "t_array(t_int256)98_storage"
      },
      {
        "astId": 11566,
        "contract": "contracts/strategies/BridgedWOETHStrategy.sol:BridgedWOETHStrategy",
        "label": "lastOraclePrice",
        "offset": 0,
        "slot": "157",
        "type": "t_uint128"
      },
      {
        "astId": 11568,
        "contract": "contracts/strategies/BridgedWOETHStrategy.sol:BridgedWOETHStrategy",
        "label": "maxPriceDiffBps",
        "offset": 16,
        "slot": "157",
        "type": "t_uint128"
      }
    ],
    "types": {
      "t_address": {
        "encoding": "inplace",
        "label": "address",
        "numberOfBytes": "20"
      },
      "t_array(t_address)dyn_storage": {
        "base": "t_address",
        "encoding": "dynamic_array",
        "label": "address[]",
        "numberOfBytes": "32"
      },
      "t_array(t_int256)98_storage": {
        "base": "t_int256",
        "encoding": "inplace",
        "label": "int256[98]",
        "numberOfBytes": "3136"
      },
      "t_array(t_uint256)50_storage": {
        "base": "t_uint256",
        "encoding": "inplace",
        "label": "uint256[50]",
        "numberOfBytes": "1600"
      },
      "t_bool": {
        "encoding": "inplace",
        "label": "bool",
        "numberOfBytes": "1"
      },
      "t_int256": {
        "encoding": "inplace",
        "label": "int256",
        "numberOfBytes": "32"
      },
      "t_mapping(t_address,t_address)": {
        "encoding": "mapping",
        "key": "t_address",
        "label": "mapping(address => address)",
        "numberOfBytes": "32",
        "value": "t_address"
      },
      "t_uint128": {
        "encoding": "inplace",
        "label": "uint128",
        "numberOfBytes": "16"
      },
      "t_uint256": {
        "encoding": "inplace",
        "label": "uint256",
        "numberOfBytes": "32"
      }
    }
  }
}