{
  "address": "0x81D877b0eB31544776c1D6563D9D6a0f49Bc8a30",
  "abi": [
    {
      "inputs": [
        {
          "components": [
            {
              "internalType": "address",
              "name": "platformAddress",
              "type": "address"
            },
            {
              "internalType": "address",
              "name": "vaultAddress",
              "type": "address"
            }
          ],
          "internalType": "struct InitializableAbstractStrategy.BaseStrategyConfig",
          "name": "_baseConfig",
          "type": "tuple"
        },
        {
          "components": [
            {
              "internalType": "address",
              "name": "cctpTokenMessenger",
              "type": "address"
            },
            {
              "internalType": "address",
              "name": "cctpMessageTransmitter",
              "type": "address"
            },
            {
              "internalType": "uint32",
              "name": "peerDomainID",
              "type": "uint32"
            },
            {
              "internalType": "address",
              "name": "peerStrategy",
              "type": "address"
            },
            {
              "internalType": "address",
              "name": "usdcToken",
              "type": "address"
            }
          ],
          "internalType": "struct AbstractCCTPIntegrator.CCTPIntegrationConfig",
          "name": "_cctpConfig",
          "type": "tuple"
        }
      ],
      "stateMutability": "nonpayable",
      "type": "constructor"
    },
    {
      "anonymous": false,
      "inputs": [
        {
          "indexed": false,
          "internalType": "uint16",
          "name": "feePremiumBps",
          "type": "uint16"
        }
      ],
      "name": "CCTPFeePremiumBpsSet",
      "type": "event"
    },
    {
      "anonymous": false,
      "inputs": [
        {
          "indexed": false,
          "internalType": "uint16",
          "name": "minFinalityThreshold",
          "type": "uint16"
        }
      ],
      "name": "CCTPMinFinalityThresholdSet",
      "type": "event"
    },
    {
      "anonymous": false,
      "inputs": [
        {
          "indexed": true,
          "internalType": "address",
          "name": "token",
          "type": "address"
        },
        {
          "indexed": false,
          "internalType": "uint256",
          "name": "amount",
          "type": "uint256"
        }
      ],
      "name": "ClaimedRewards",
      "type": "event"
    },
    {
      "anonymous": false,
      "inputs": [
        {
          "indexed": true,
          "internalType": "address",
          "name": "_asset",
          "type": "address"
        },
        {
          "indexed": false,
          "internalType": "address",
          "name": "_pToken",
          "type": "address"
        },
        {
          "indexed": false,
          "internalType": "uint256",
          "name": "_amount",
          "type": "uint256"
        }
      ],
      "name": "Deposit",
      "type": "event"
    },
    {
      "anonymous": false,
      "inputs": [
        {
          "indexed": false,
          "internalType": "string",
          "name": "reason",
          "type": "string"
        }
      ],
      "name": "DepositUnderlyingFailed",
      "type": "event"
    },
    {
      "anonymous": false,
      "inputs": [
        {
          "indexed": true,
          "internalType": "address",
          "name": "previousGovernor",
          "type": "address"
        },
        {
          "indexed": true,
          "internalType": "address",
          "name": "newGovernor",
          "type": "address"
        }
      ],
      "name": "GovernorshipTransferred",
      "type": "event"
    },
    {
      "anonymous": false,
      "inputs": [
        {
          "indexed": false,
          "internalType": "address",
          "name": "_oldHarvesterAddress",
          "type": "address"
        },
        {
          "indexed": false,
          "internalType": "address",
          "name": "_newHarvesterAddress",
          "type": "address"
        }
      ],
      "name": "HarvesterAddressesUpdated",
      "type": "event"
    },
    {
      "anonymous": false,
      "inputs": [
        {
          "indexed": false,
          "internalType": "uint32",
          "name": "destinationDomain",
          "type": "uint32"
        },
        {
          "indexed": false,
          "internalType": "address",
          "name": "peerStrategy",
          "type": "address"
        },
        {
          "indexed": false,
          "internalType": "uint32",
          "name": "minFinalityThreshold",
          "type": "uint32"
        },
        {
          "indexed": false,
          "internalType": "bytes",
          "name": "message",
          "type": "bytes"
        }
      ],
      "name": "MessageTransmitted",
      "type": "event"
    },
    {
      "anonymous": false,
      "inputs": [
        {
          "indexed": false,
          "internalType": "address",
          "name": "operator",
          "type": "address"
        }
      ],
      "name": "OperatorChanged",
      "type": "event"
    },
    {
      "anonymous": false,
      "inputs": [
        {
          "indexed": true,
          "internalType": "address",
          "name": "_asset",
          "type": "address"
        },
        {
          "indexed": false,
          "internalType": "address",
          "name": "_pToken",
          "type": "address"
        }
      ],
      "name": "PTokenAdded",
      "type": "event"
    },
    {
      "anonymous": false,
      "inputs": [
        {
          "indexed": true,
          "internalType": "address",
          "name": "_asset",
          "type": "address"
        },
        {
          "indexed": false,
          "internalType": "address",
          "name": "_pToken",
          "type": "address"
        }
      ],
      "name": "PTokenRemoved",
      "type": "event"
    },
    {
      "anonymous": false,
      "inputs": [
        {
          "indexed": true,
          "internalType": "address",
          "name": "previousGovernor",
          "type": "address"
        },
        {
          "indexed": true,
          "internalType": "address",
          "name": "newGovernor",
          "type": "address"
        }
      ],
      "name": "PendingGovernorshipTransfer",
      "type": "event"
    },
    {
      "anonymous": false,
      "inputs": [
        {
          "indexed": false,
          "internalType": "address[]",
          "name": "_oldAddresses",
          "type": "address[]"
        },
        {
          "indexed": false,
          "internalType": "address[]",
          "name": "_newAddresses",
          "type": "address[]"
        }
      ],
      "name": "RewardTokenAddressesUpdated",
      "type": "event"
    },
    {
      "anonymous": false,
      "inputs": [
        {
          "indexed": false,
          "internalType": "address",
          "name": "recipient",
          "type": "address"
        },
        {
          "indexed": false,
          "internalType": "address",
          "name": "rewardToken",
          "type": "address"
        },
        {
          "indexed": false,
          "internalType": "uint256",
          "name": "amount",
          "type": "uint256"
        }
      ],
      "name": "RewardTokenCollected",
      "type": "event"
    },
    {
      "anonymous": false,
      "inputs": [
        {
          "indexed": false,
          "internalType": "address",
          "name": "_address",
          "type": "address"
        }
      ],
      "name": "StrategistUpdated",
      "type": "event"
    },
    {
      "anonymous": false,
      "inputs": [
        {
          "indexed": false,
          "internalType": "uint32",
          "name": "destinationDomain",
          "type": "uint32"
        },
        {
          "indexed": false,
          "internalType": "address",
          "name": "peerStrategy",
          "type": "address"
        },
        {
          "indexed": false,
          "internalType": "address",
          "name": "tokenAddress",
          "type": "address"
        },
        {
          "indexed": false,
          "internalType": "uint256",
          "name": "tokenAmount",
          "type": "uint256"
        },
        {
          "indexed": false,
          "internalType": "uint256",
          "name": "maxFee",
          "type": "uint256"
        },
        {
          "indexed": false,
          "internalType": "uint32",
          "name": "minFinalityThreshold",
          "type": "uint32"
        },
        {
          "indexed": false,
          "internalType": "bytes",
          "name": "hookData",
          "type": "bytes"
        }
      ],
      "name": "TokensBridged",
      "type": "event"
    },
    {
      "anonymous": false,
      "inputs": [
        {
          "indexed": false,
          "internalType": "string",
          "name": "reason",
          "type": "string"
        }
      ],
      "name": "WithdrawUnderlyingFailed",
      "type": "event"
    },
    {
      "anonymous": false,
      "inputs": [
        {
          "indexed": true,
          "internalType": "address",
          "name": "_asset",
          "type": "address"
        },
        {
          "indexed": false,
          "internalType": "address",
          "name": "_pToken",
          "type": "address"
        },
        {
          "indexed": false,
          "internalType": "uint256",
          "name": "_amount",
          "type": "uint256"
        }
      ],
      "name": "Withdrawal",
      "type": "event"
    },
    {
      "anonymous": false,
      "inputs": [
        {
          "indexed": false,
          "internalType": "uint256",
          "name": "amountRequested",
          "type": "uint256"
        },
        {
          "indexed": false,
          "internalType": "uint256",
          "name": "amountAvailable",
          "type": "uint256"
        }
      ],
      "name": "WithdrawalFailed",
      "type": "event"
    },
    {
      "inputs": [],
      "name": "MAX_TRANSFER_AMOUNT",
      "outputs": [
        {
          "internalType": "uint256",
          "name": "",
          "type": "uint256"
        }
      ],
      "stateMutability": "view",
      "type": "function"
    },
    {
      "inputs": [
        {
          "internalType": "address",
          "name": "",
          "type": "address"
        }
      ],
      "name": "assetToPToken",
      "outputs": [
        {
          "internalType": "address",
          "name": "",
          "type": "address"
        }
      ],
      "stateMutability": "view",
      "type": "function"
    },
    {
      "inputs": [],
      "name": "assetToken",
      "outputs": [
        {
          "internalType": "contract IERC20",
          "name": "",
          "type": "address"
        }
      ],
      "stateMutability": "view",
      "type": "function"
    },
    {
      "inputs": [],
      "name": "cctpMessageTransmitter",
      "outputs": [
        {
          "internalType": "contract ICCTPMessageTransmitter",
          "name": "",
          "type": "address"
        }
      ],
      "stateMutability": "view",
      "type": "function"
    },
    {
      "inputs": [],
      "name": "cctpTokenMessenger",
      "outputs": [
        {
          "internalType": "contract ICCTPTokenMessenger",
          "name": "",
          "type": "address"
        }
      ],
      "stateMutability": "view",
      "type": "function"
    },
    {
      "inputs": [
        {
          "internalType": "address",
          "name": "_asset",
          "type": "address"
        }
      ],
      "name": "checkBalance",
      "outputs": [
        {
          "internalType": "uint256",
          "name": "",
          "type": "uint256"
        }
      ],
      "stateMutability": "view",
      "type": "function"
    },
    {
      "inputs": [],
      "name": "claimGovernance",
      "outputs": [],
      "stateMutability": "nonpayable",
      "type": "function"
    },
    {
      "inputs": [],
      "name": "collectRewardTokens",
      "outputs": [],
      "stateMutability": "nonpayable",
      "type": "function"
    },
    {
      "inputs": [
        {
          "internalType": "address",
          "name": "_asset",
          "type": "address"
        },
        {
          "internalType": "uint256",
          "name": "_amount",
          "type": "uint256"
        }
      ],
      "name": "deposit",
      "outputs": [],
      "stateMutability": "nonpayable",
      "type": "function"
    },
    {
      "inputs": [],
      "name": "depositAll",
      "outputs": [],
      "stateMutability": "nonpayable",
      "type": "function"
    },
    {
      "inputs": [],
      "name": "feePremiumBps",
      "outputs": [
        {
          "internalType": "uint16",
          "name": "",
          "type": "uint16"
        }
      ],
      "stateMutability": "view",
      "type": "function"
    },
    {
      "inputs": [],
      "name": "getRewardTokenAddresses",
      "outputs": [
        {
          "internalType": "address[]",
          "name": "",
          "type": "address[]"
        }
      ],
      "stateMutability": "view",
      "type": "function"
    },
    {
      "inputs": [],
      "name": "governor",
      "outputs": [
        {
          "internalType": "address",
          "name": "",
          "type": "address"
        }
      ],
      "stateMutability": "view",
      "type": "function"
    },
    {
      "inputs": [
        {
          "internalType": "uint32",
          "name": "sourceDomain",
          "type": "uint32"
        },
        {
          "internalType": "bytes32",
          "name": "sender",
          "type": "bytes32"
        },
        {
          "internalType": "uint32",
          "name": "finalityThresholdExecuted",
          "type": "uint32"
        },
        {
          "internalType": "bytes",
          "name": "messageBody",
          "type": "bytes"
        }
      ],
      "name": "handleReceiveFinalizedMessage",
      "outputs": [
        {
          "internalType": "bool",
          "name": "",
          "type": "bool"
        }
      ],
      "stateMutability": "nonpayable",
      "type": "function"
    },
    {
      "inputs": [
        {
          "internalType": "uint32",
          "name": "sourceDomain",
          "type": "uint32"
        },
        {
          "internalType": "bytes32",
          "name": "sender",
          "type": "bytes32"
        },
        {
          "internalType": "uint32",
          "name": "finalityThresholdExecuted",
          "type": "uint32"
        },
        {
          "internalType": "bytes",
          "name": "messageBody",
          "type": "bytes"
        }
      ],
      "name": "handleReceiveUnfinalizedMessage",
      "outputs": [
        {
          "internalType": "bool",
          "name": "",
          "type": "bool"
        }
      ],
      "stateMutability": "nonpayable",
      "type": "function"
    },
    {
      "inputs": [],
      "name": "harvesterAddress",
      "outputs": [
        {
          "internalType": "address",
          "name": "",
          "type": "address"
        }
      ],
      "stateMutability": "view",
      "type": "function"
    },
    {
      "inputs": [],
      "name": "initialize",
      "outputs": [],
      "stateMutability": "nonpayable",
      "type": "function"
    },
    {
      "inputs": [
        {
          "internalType": "address",
          "name": "_strategist",
          "type": "address"
        },
        {
          "internalType": "address",
          "name": "_operator",
          "type": "address"
        },
        {
          "internalType": "uint16",
          "name": "_minFinalityThreshold",
          "type": "uint16"
        },
        {
          "internalType": "uint16",
          "name": "_feePremiumBps",
          "type": "uint16"
        }
      ],
      "name": "initialize",
      "outputs": [],
      "stateMutability": "nonpayable",
      "type": "function"
    },
    {
      "inputs": [],
      "name": "isGovernor",
      "outputs": [
        {
          "internalType": "bool",
          "name": "",
          "type": "bool"
        }
      ],
      "stateMutability": "view",
      "type": "function"
    },
    {
      "inputs": [
        {
          "internalType": "uint64",
          "name": "nonce",
          "type": "uint64"
        }
      ],
      "name": "isNonceProcessed",
      "outputs": [
        {
          "internalType": "bool",
          "name": "",
          "type": "bool"
        }
      ],
      "stateMutability": "view",
      "type": "function"
    },
    {
      "inputs": [],
      "name": "isTransferPending",
      "outputs": [
        {
          "internalType": "bool",
          "name": "",
          "type": "bool"
        }
      ],
      "stateMutability": "view",
      "type": "function"
    },
    {
      "inputs": [],
      "name": "lastTransferNonce",
      "outputs": [
        {
          "internalType": "uint64",
          "name": "",
          "type": "uint64"
        }
      ],
      "stateMutability": "view",
      "type": "function"
    },
    {
      "inputs": [
        {
          "internalType": "address",
          "name": "token",
          "type": "address"
        },
        {
          "internalType": "uint256",
          "name": "amount",
          "type": "uint256"
        },
        {
          "internalType": "bytes32[]",
          "name": "proof",
          "type": "bytes32[]"
        }
      ],
      "name": "merkleClaim",
      "outputs": [],
      "stateMutability": "nonpayable",
      "type": "function"
    },
    {
      "inputs": [],
      "name": "merkleDistributor",
      "outputs": [
        {
          "internalType": "contract IDistributor",
          "name": "",
          "type": "address"
        }
      ],
      "stateMutability": "view",
      "type": "function"
    },
    {
      "inputs": [],
      "name": "minFinalityThreshold",
      "outputs": [
        {
          "internalType": "uint16",
          "name": "",
          "type": "uint16"
        }
      ],
      "stateMutability": "view",
      "type": "function"
    },
    {
      "inputs": [],
      "name": "operator",
      "outputs": [
        {
          "internalType": "address",
          "name": "",
          "type": "address"
        }
      ],
      "stateMutability": "view",
      "type": "function"
    },
    {
      "inputs": [],
      "name": "peerDomainID",
      "outputs": [
        {
          "internalType": "uint32",
          "name": "",
          "type": "uint32"
        }
      ],
      "stateMutability": "view",
      "type": "function"
    },
    {
      "inputs": [],
      "name": "peerStrategy",
      "outputs": [
        {
          "internalType": "address",
          "name": "",
          "type": "address"
        }
      ],
      "stateMutability": "view",
      "type": "function"
    },
    {
      "inputs": [],
      "name": "platformAddress",
      "outputs": [
        {
          "internalType": "address",
          "name": "",
          "type": "address"
        }
      ],
      "stateMutability": "view",
      "type": "function"
    },
    {
      "inputs": [
        {
          "internalType": "bytes",
          "name": "message",
          "type": "bytes"
        },
        {
          "internalType": "bytes",
          "name": "attestation",
          "type": "bytes"
        }
      ],
      "name": "relay",
      "outputs": [],
      "stateMutability": "nonpayable",
      "type": "function"
    },
    {
      "inputs": [
        {
          "internalType": "uint256",
          "name": "",
          "type": "uint256"
        }
      ],
      "name": "removePToken",
      "outputs": [],
      "stateMutability": "nonpayable",
      "type": "function"
    },
    {
      "inputs": [
        {
          "internalType": "uint256",
          "name": "",
          "type": "uint256"
        }
      ],
      "name": "rewardTokenAddresses",
      "outputs": [
        {
          "internalType": "address",
          "name": "",
          "type": "address"
        }
      ],
      "stateMutability": "view",
      "type": "function"
    },
    {
      "inputs": [],
      "name": "safeApproveAllTokens",
      "outputs": [],
      "stateMutability": "nonpayable",
      "type": "function"
    },
    {
      "inputs": [],
      "name": "sendBalanceUpdate",
      "outputs": [],
      "stateMutability": "nonpayable",
      "type": "function"
    },
    {
      "inputs": [
        {
          "internalType": "uint16",
          "name": "_feePremiumBps",
          "type": "uint16"
        }
      ],
      "name": "setFeePremiumBps",
      "outputs": [],
      "stateMutability": "nonpayable",
      "type": "function"
    },
    {
      "inputs": [
        {
          "internalType": "address",
          "name": "_harvesterAddress",
          "type": "address"
        }
      ],
      "name": "setHarvesterAddress",
      "outputs": [],
      "stateMutability": "nonpayable",
      "type": "function"
    },
    {
      "inputs": [
        {
          "internalType": "uint16",
          "name": "_minFinalityThreshold",
          "type": "uint16"
        }
      ],
      "name": "setMinFinalityThreshold",
      "outputs": [],
      "stateMutability": "nonpayable",
      "type": "function"
    },
    {
      "inputs": [
        {
          "internalType": "address",
          "name": "_operator",
          "type": "address"
        }
      ],
      "name": "setOperator",
      "outputs": [],
      "stateMutability": "nonpayable",
      "type": "function"
    },
    {
      "inputs": [
        {
          "internalType": "address",
          "name": "",
          "type": "address"
        },
        {
          "internalType": "address",
          "name": "",
          "type": "address"
        }
      ],
      "name": "setPTokenAddress",
      "outputs": [],
      "stateMutability": "nonpayable",
      "type": "function"
    },
    {
      "inputs": [
        {
          "internalType": "address[]",
          "name": "_rewardTokenAddresses",
          "type": "address[]"
        }
      ],
      "name": "setRewardTokenAddresses",
      "outputs": [],
      "stateMutability": "nonpayable",
      "type": "function"
    },
    {
      "inputs": [
        {
          "internalType": "address",
          "name": "_address",
          "type": "address"
        }
      ],
      "name": "setStrategistAddr",
      "outputs": [],
      "stateMutability": "nonpayable",
      "type": "function"
    },
    {
      "inputs": [],
      "name": "shareToken",
      "outputs": [
        {
          "internalType": "contract IERC20",
          "name": "",
          "type": "address"
        }
      ],
      "stateMutability": "view",
      "type": "function"
    },
    {
      "inputs": [],
      "name": "strategistAddr",
      "outputs": [
        {
          "internalType": "address",
          "name": "",
          "type": "address"
        }
      ],
      "stateMutability": "view",
      "type": "function"
    },
    {
      "inputs": [
        {
          "internalType": "address",
          "name": "_asset",
          "type": "address"
        }
      ],
      "name": "supportsAsset",
      "outputs": [
        {
          "internalType": "bool",
          "name": "",
          "type": "bool"
        }
      ],
      "stateMutability": "view",
      "type": "function"
    },
    {
      "inputs": [
        {
          "internalType": "address",
          "name": "_newGovernor",
          "type": "address"
        }
      ],
      "name": "transferGovernance",
      "outputs": [],
      "stateMutability": "nonpayable",
      "type": "function"
    },
    {
      "inputs": [
        {
          "internalType": "address",
          "name": "_asset",
          "type": "address"
        },
        {
          "internalType": "uint256",
          "name": "_amount",
          "type": "uint256"
        }
      ],
      "name": "transferToken",
      "outputs": [],
      "stateMutability": "nonpayable",
      "type": "function"
    },
    {
      "inputs": [],
      "name": "usdcToken",
      "outputs": [
        {
          "internalType": "address",
          "name": "",
          "type": "address"
        }
      ],
      "stateMutability": "view",
      "type": "function"
    },
    {
      "inputs": [],
      "name": "vaultAddress",
      "outputs": [
        {
          "internalType": "address",
          "name": "",
          "type": "address"
        }
      ],
      "stateMutability": "view",
      "type": "function"
    },
    {
      "inputs": [
        {
          "internalType": "address",
          "name": "_recipient",
          "type": "address"
        },
        {
          "internalType": "address",
          "name": "_asset",
          "type": "address"
        },
        {
          "internalType": "uint256",
          "name": "_amount",
          "type": "uint256"
        }
      ],
      "name": "withdraw",
      "outputs": [],
      "stateMutability": "nonpayable",
      "type": "function"
    },
    {
      "inputs": [],
      "name": "withdrawAll",
      "outputs": [],
      "stateMutability": "nonpayable",
      "type": "function"
    }
  ],
  "transactionHash": "0xfc3c20b7077d16a3039089f63b6c2e3206bf9228210305ff92050fec9b6f56a4",
  "args": [
    [
      "0xbeeF010f9cb27031ad51e3333f9aF9C6B1228183",
      "0x0000000000000000000000000000000000000000"
    ],
    [
      "0x28b5a0e9C621a5BadaA536219b3a228C8168cf5d",
      "0x81D40F21F12A8F0E3252Bccb954D722d4c464B64",
      0,
      "0x1743658b284a843b47f555343dBB628d46D0C254",
      "0x833589fcd6edb6e08f4c7c32d4f71b54bda02913"
    ]
  ],
  "numDeployments": 1,
  "solcInputHash": "01156982c07e502831037b4abf9e46b9",
  "bytecode": "0x6101a060405234801561001157600080fd5b506040516156a53803806156a583398101604081905261003091610607565b6080810151829081836001600160a01b0383166100945760405162461bcd60e51b815260206004820152601460248201527f496e76616c69642055534443206164647265737300000000000000000000000060448201526064015b60405180910390fd5b80516001600160a01b03166100e15760405162461bcd60e51b8152602060048201526013602482015272496e76616c6964204343545020636f6e66696760681b604482015260640161008b565b60208101516001600160a01b03166101315760405162461bcd60e51b8152602060048201526013602482015272496e76616c6964204343545020636f6e66696760681b604482015260640161008b565b60608101516001600160a01b031661018b5760405162461bcd60e51b815260206004820152601d60248201527f496e76616c696420706565722073747261746567792061646472657373000000604482015260640161008b565b60208101516001600160a01b0390811660809081528251821660a052604083015163ffffffff1660e05260608301518216610100528201805190911660c052516000906101d79061040a565b905060006101ee83608001516104ea60201b60201c565b9050816006146102405760405162461bcd60e51b815260206004820152601d60248201527f4261736520746f6b656e20646563696d616c73206d7573742062652036000000604482015260640161008b565b604051635553444360e01b6020820152602401604051602081830303815290604052805190602001208160405160200161027a91906106f6565b60405160208183030381529060405280519060200120146102dd5760405162461bcd60e51b815260206004820152601960248201527f546f6b656e2073796d626f6c206d757374206265205553444300000000000000604482015260640161008b565b505081516001600160a01b0390811661012052602090920151821661014052509151821661016052811661018081905260c051909116146103515760405162461bcd60e51b815260206004820152600e60248201526d0a8ded6cadc40dad2e6dac2e8c6d60931b604482015260640161008b565b81516001600160a01b03166103a85760405162461bcd60e51b815260206004820152601860248201527f496e76616c696420706c6174666f726d20616464726573730000000000000000604482015260640161008b565b60208201516001600160a01b0316156104035760405162461bcd60e51b815260206004820152601560248201527f496e76616c6964207661756c7420616464726573730000000000000000000000604482015260640161008b565b50506107c9565b600080826001600160a01b031663313ce5676040518163ffffffff1660e01b8152600401602060405180830381865afa15801561044b573d6000803e3d6000fd5b505050506040513d601f19601f8201168201806040525081019061046f9190610712565b60ff16905060048110158015610486575060128111155b6104e45760405162461bcd60e51b815260206004820152602960248201527f546f6b656e206d75737420686176652073756666696369656e7420646563696d604482015268616c20706c6163657360b81b606482015260840161008b565b92915050565b60606000826001600160a01b03166395d89b416040518163ffffffff1660e01b8152600401600060405180830381865afa15801561052c573d6000803e3d6000fd5b505050506040513d6000823e601f3d908101601f191682016040526105549190810190610735565b9392505050565b634e487b7160e01b600052604160045260246000fd5b604080519081016001600160401b03811182821017156105935761059361055b565b60405290565b60405160a081016001600160401b03811182821017156105935761059361055b565b604051601f8201601f191681016001600160401b03811182821017156105e3576105e361055b565b604052919050565b80516001600160a01b038116811461060257600080fd5b919050565b60008082840360e081121561061b57600080fd5b604081121561062957600080fd5b610631610571565b61063a856105eb565b8152610648602086016105eb565b6020820152925060a0603f198201121561066157600080fd5b5061066a610599565b610676604085016105eb565b8152610684606085016105eb565b6020820152608084015163ffffffff811681146106a057600080fd5b60408201526106b160a085016105eb565b60608201526106c260c085016105eb565b6080820152809150509250929050565b60005b838110156106ed5781810151838201526020016106d5565b50506000910152565b600082516107088184602087016106d2565b9190910192915050565b60006020828403121561072457600080fd5b815160ff8116811461055457600080fd5b60006020828403121561074757600080fd5b81516001600160401b0381111561075d57600080fd5b8201601f8101841361076e57600080fd5b80516001600160401b038111156107875761078761055b565b61079a601f8201601f19166020016105bb565b8181528560208385010111156107af57600080fd5b6107c08260208301602086016106d2565b95945050505050565b60805160a05160c05160e0516101005161012051610140516101605161018051614d0e61099760003960008181610356015281816106a001528181610894015281816118110152612f9c01526000818161057a015281816126ab0152612ef80152600061046d015260008181610763015281816114c7015281816118650152818161195f015281816120000152818161254701528181612d930152612f6c0152600081816105400152818161109d015281816121bb01528181612307015281816123bd01528181613bf10152613ccd0152600081816105ea01528181610eb501528181612147015281816122e50152818161239b01528181613bcf0152613cab0152600081816103a001528181610cd5015281816113d50152818161143c0152818161198601528181611e5301528181611fac015281816124dc01528181612d21015281816132df01528181613363015281816133a7015281816135f101528181613674015281816136b20152818161372f01528181613afb01528181613c160152613cef01526000818161066e01528181610f3701528181613b1d0152613b9f01526000818161062601528181610932015281816111410152818161161b01526122b70152614d0e6000f3fe608060405234801561001057600080fd5b50600436106102d65760003560e01c80636c9fa59e11610182578063ad1728cb116100e9578063d9caed12116100a2578063df4426781161007c578063df4426781461078d578063f4537f78146107a0578063f6ca71b0146107bb578063fc1b3113146107d057600080fd5b8063d9caed121461074b578063dbe55e561461075e578063de5f62681461078557600080fd5b8063ad1728cb146106d0578063b3ab15fb146106d8578063c2e1e3f4146106eb578063c7af3352146106fe578063d38bfff414610706578063d7dd614b1461071957600080fd5b80638949f6f31161013b5780638949f6f3146105e55780638c73eb04146106215780639136616a1461064857806396d538bb146106565780639748cf7c14610669578063aa388af61461069057600080fd5b80636c9fa59e14610575578063773540b31461059c5780637b2d9b2c146105af5780637c92f219146105c25780638129fc1c146105d5578063853828b6146105dd57600080fd5b806342c8c11c11610241578063570d8e1d116101fa5780635d36b190116101d45780635d36b190146105125780635f5152261461051a5780636369e49f1461053b57806367c7066c1461056257600080fd5b8063570d8e1d146104e35780635a063f63146104f75780635a236417146104ff57600080fd5b806342c8c11c14610455578063430bf08a1461046857806347e7ef241461048f5780635324df32146104a2578063564a5158146104b6578063570ca735146104c957600080fd5b806311eac8551161029357806311eac8551461039b57806316a0f250146103c25780631801c408146103e3578063237839f01461040e57806323c9ab3d146104215780633335ad7f1461044d57600080fd5b80630c340a24146102db5780630ed57b3a146103005780630fc3b4c4146103155780631072cbea1461033e5780631083f7611461035157806311cffb6714610378575b600080fd5b6102e36107dd565b6040516001600160a01b0390911681526020015b60405180910390f35b61031361030e36600461402d565b6107fa565b005b6102e3610323366004614066565b6067602052600090815260409020546001600160a01b031681565b61031361034c366004614083565b610866565b6102e37f000000000000000000000000000000000000000000000000000000000000000081565b61038b61038636600461417d565b610925565b60405190151581526020016102f7565b6102e37f000000000000000000000000000000000000000000000000000000000000000081565b6033546103d09061ffff1681565b60405161ffff90911681526020016102f7565b603354600160201b90046001600160401b031660009081526034602052604090205460ff161561038b565b61031361041c36600461422f565b610a0b565b61038b61042f36600461429f565b6001600160401b031660009081526034602052604090205460ff1690565b610313610c2a565b6103136104633660046142ce565b610d29565b6102e37f000000000000000000000000000000000000000000000000000000000000000081565b61031361049d366004614083565b610d59565b6033546103d09062010000900461ffff1681565b6103136104c43660046142e9565b610ddb565b6033546102e390600160601b90046001600160a01b031681565b610103546102e3906001600160a01b031681565b61031361125f565b61031361050d3660046142ce565b6112fe565b61031361132b565b61052d610528366004614066565b6113d1565b6040519081526020016102f7565b6102e37f000000000000000000000000000000000000000000000000000000000000000081565b606b546102e3906001600160a01b031681565b6102e37f000000000000000000000000000000000000000000000000000000000000000081565b6103136105aa366004614066565b6115b7565b6102e36105bd366004614350565b6115e4565b61038b6105d036600461417d565b61160e565b610313611746565b6103136118d9565b61060c7f000000000000000000000000000000000000000000000000000000000000000081565b60405163ffffffff90911681526020016102f7565b6102e37f000000000000000000000000000000000000000000000000000000000000000081565b61031361030e366004614350565b610313610664366004614369565b611a6f565b6102e37f000000000000000000000000000000000000000000000000000000000000000081565b61038b61069e366004614066565b7f00000000000000000000000000000000000000000000000000000000000000006001600160a01b0390811691161490565b610313611b8c565b6103136106e6366004614066565b611bb8565b6103136106f9366004614066565b611be5565b61038b611c72565b610313610714366004614066565b611ca3565b60335461073390600160201b90046001600160401b031681565b6040516001600160401b0390911681526020016102f7565b61031361075936600461439e565b611d47565b6102e37f000000000000000000000000000000000000000000000000000000000000000081565b610313611dcb565b61031361079b3660046143df565b611ecd565b6102e3733ef3d8ba38ebe18db133cec108f4d14ce00dd9ae81565b6107c3612079565b6040516102f7919061447c565b61052d6509184e72a00081565b60006107f5600080516020614cb98339815191525490565b905090565b610802611c72565b6108275760405162461bcd60e51b815260040161081e9061448f565b60405180910390fd5b60405162461bcd60e51b81526020600482015260146024820152733ab739bab83837b93a32b210333ab731ba34b7b760611b604482015260640161081e565b61086e611c72565b61088a5760405162461bcd60e51b815260040161081e9061448f565b6001600160a01b037f00000000000000000000000000000000000000000000000000000000000000008116908316036109055760405162461bcd60e51b815260206004820152601f60248201527f43616e6e6f74207472616e7366657220737570706f7274656420617373657400604482015260640161081e565b6109216109106107dd565b6001600160a01b03841690836120db565b5050565b6000336001600160a01b037f0000000000000000000000000000000000000000000000000000000000000000161461099f5760405162461bcd60e51b815260206004820152601e60248201527f43616c6c6572206973206e6f742043435450207472616e736d69747465720000604482015260640161081e565b6107d08363ffffffff1610156109f75760405162461bcd60e51b815260206004820152601a60248201527f46696e616c697479207468726573686f6c6420746f6f206c6f77000000000000604482015260640161081e565b610a02858584612143565b95945050505050565b604080516001808252818301909252600091602080830190803683370190505090503081600081518110610a4157610a416144c6565b6001600160a01b0392909216602092830291909101909101526040805160018082528183019092526000918160200160208202803683370190505090508581600081518110610a9257610a926144c6565b6001600160a01b0392909216602092830291909101909101526040805160018082528183019092526000918160200160208202803683370190505090508581600081518110610ae357610ae36144c6565b6020908102919091010152604080516001808252818301909252600091816020015b6060815260200190600190039081610b055790505090508585808060200260200160405190810160405280939291908181526020018383602002808284376000920182905250855186945090925015159050610b6357610b636144c6565b60209081029190910101526040516301c7ba5760e61b8152733ef3d8ba38ebe18db133cec108f4d14ce00dd9ae906371ee95c090610bab9087908790879087906004016144dc565b600060405180830381600087803b158015610bc557600080fd5b505af1158015610bd9573d6000803e3d6000fd5b50505050876001600160a01b03167f2d5429efdeca7741a8cd94067b18d988bc4e5f1d5b8272c37b7bfc31e9bfa32c88604051610c1891815260200190565b60405180910390a25050505050505050565b603354600160601b90046001600160a01b0316331480610c555750610103546001600160a01b031633145b80610c635750610c63611c72565b610cce5760405162461bcd60e51b815260206004820152603660248201527f43616c6c6572206973206e6f7420746865204f70657261746f722c20537472616044820152753a32b3b4b9ba1037b9103a34329023b7bb32b93737b960511b606482015260840161081e565b6000610cf97f00000000000000000000000000000000000000000000000000000000000000006113d1565b90506000610d1e603360049054906101000a90046001600160401b031683600061223c565b90506109218161229d565b610d31611c72565b610d4d5760405162461bcd60e51b815260040161081e9061448f565b610d56816123f6565b50565b610103546001600160a01b0316331480610d765750610d76611c72565b610d925760405162461bcd60e51b815260040161081e906145ca565b600080516020614c9983398151915280546001198101610dc45760405162461bcd60e51b815260040161081e90614612565b60028255610dd28484612491565b50600190555050565b603354600160601b90046001600160a01b03163314610e3c5760405162461bcd60e51b815260206004820152601a60248201527f43616c6c6572206973206e6f7420746865204f70657261746f72000000000000604482015260640161081e565b6000806000806000610e4d87612707565b94509450945094509450600163ffffffff168563ffffffff1614610eb35760405162461bcd60e51b815260206004820152601c60248201527f496e76616c69642043435450206d6573736167652076657273696f6e00000000604482015260640161081e565b7f000000000000000000000000000000000000000000000000000000000000000063ffffffff168463ffffffff1614610f265760405162461bcd60e51b81526020600482015260156024820152742ab735b737bbb71029b7bab931b2902237b6b0b4b760591b604482015260640161081e565b610f3181600061275d565b945060007f00000000000000000000000000000000000000000000000000000000000000006001600160a01b0316846001600160a01b03161490508015610fec578563ffffffff166001148015610f8a5750815160e411155b610fcd5760405162461bcd60e51b8152602060048201526014602482015273496e76616c6964206275726e206d65737361676560601b604482015260640161081e565b610fd8826064612785565b9350610fe5826024612785565b9250611043565b63ffffffff86166103f2146110435760405162461bcd60e51b815260206004820152601b60248201527f556e737570706f72746564206d6573736167652076657273696f6e0000000000604482015260640161081e565b306001600160a01b0384161461109b5760405162461bcd60e51b815260206004820152601c60248201527f556e657870656374656420726563697069656e74206164647265737300000000604482015260640161081e565b7f00000000000000000000000000000000000000000000000000000000000000006001600160a01b0316846001600160a01b0316146111275760405162461bcd60e51b815260206004820152602260248201527f496e636f72726563742073656e6465722f726563697069656e74206164647265604482015261737360f01b606482015260840161081e565b604051630afd9fa560e31b81526000906001600160a01b037f000000000000000000000000000000000000000000000000000000000000000016906357ecfd2890611178908c908c9060040161468a565b6020604051808303816000875af1158015611197573d6000803e3d6000fd5b505050506040513d601f19601f820116820180604052508101906111bb91906146af565b9050806112035760405162461bcd60e51b8152602060048201526016602482015275149958d95a5d99481b595cdcd859d94819985a5b195960521b604482015260640161081e565b811561125457825160009061121c90859060e49061279f565b9050600061122b8560446128f9565b9050600061123a8660a46128f9565b905061125061124982846146e7565b8285612913565b5050505b505050505050505050565b606b546001600160a01b031633146112b95760405162461bcd60e51b815260206004820152601b60248201527f43616c6c6572206973206e6f7420746865204861727665737465720000000000604482015260640161081e565b600080516020614c99833981519152805460011981016112eb5760405162461bcd60e51b815260040161081e90614612565b600282556112f7612978565b5060019055565b611306611c72565b6113225760405162461bcd60e51b815260040161081e9061448f565b610d5681612a8c565b7f44c4d30b2eaad5130ad70c3ba6972730566f3e6359ab83e800d905c61b1c51db546001600160a01b0316336001600160a01b0316146113c65760405162461bcd60e51b815260206004820152603060248201527f4f6e6c79207468652070656e64696e6720476f7665726e6f722063616e20636f60448201526f6d706c6574652074686520636c61696d60801b606482015260840161081e565b6113cf33612b29565b565b60007f00000000000000000000000000000000000000000000000000000000000000006001600160a01b0316826001600160a01b0316146114245760405162461bcd60e51b815260040161081e906146fa565b6040516370a0823160e01b81523060048201526000907f00000000000000000000000000000000000000000000000000000000000000006001600160a01b0316906370a0823190602401602060405180830381865afa15801561148b573d6000803e3d6000fd5b505050506040513d601f19601f820116820180604052508101906114af9190614731565b6040516370a0823160e01b81523060048201529091507f00000000000000000000000000000000000000000000000000000000000000009082906001600160a01b03831690634cdad5069082906370a0823190602401602060405180830381865afa158015611522573d6000803e3d6000fd5b505050506040513d601f19601f820116820180604052508101906115469190614731565b6040518263ffffffff1660e01b815260040161156491815260200190565b602060405180830381865afa158015611581573d6000803e3d6000fd5b505050506040513d601f19601f820116820180604052508101906115a59190614731565b6115af919061474a565b949350505050565b6115bf611c72565b6115db5760405162461bcd60e51b815260040161081e9061448f565b610d5681612b88565b606c81815481106115f457600080fd5b6000918252602090912001546001600160a01b0316905081565b6000336001600160a01b037f000000000000000000000000000000000000000000000000000000000000000016146116885760405162461bcd60e51b815260206004820152601e60248201527f43616c6c6572206973206e6f742043435450207472616e736d69747465720000604482015260640161081e565b60335461ffff166103e8146116ee5760405162461bcd60e51b815260206004820152602660248201527f556e66696e616c697a6564206d6573736167657320617265206e6f74207375706044820152651c1bdc9d195960d21b606482015260840161081e565b6103e88363ffffffff1610156109f75760405162461bcd60e51b815260206004820152601a60248201527f46696e616c697479207468726573686f6c6420746f6f206c6f77000000000000604482015260640161081e565b61174e611c72565b61176a5760405162461bcd60e51b815260040161081e9061448f565b600054610100900460ff1680611783575060005460ff16155b61179f5760405162461bcd60e51b815260040161081e9061475d565b600054610100900460ff161580156117c1576000805461ffff19166101011790555b6040805160008082526001602080840182815260608501865293949293928501908036833750506040805160018082528183019092529293506000929150602080830190803683370190505090507f000000000000000000000000000000000000000000000000000000000000000082600081518110611843576118436144c6565b60200260200101906001600160a01b031690816001600160a01b0316815250507f000000000000000000000000000000000000000000000000000000000000000081600081518110611897576118976144c6565b60200260200101906001600160a01b031690816001600160a01b0316815250506118c2838383612bd7565b5050508015610d56576000805461ff001916905550565b610103546001600160a01b03163314806118f657506118f6611c72565b6119125760405162461bcd60e51b815260040161081e906145ca565b600080516020614c99833981519152805460011981016119445760405162461bcd60e51b815260040161081e90614612565b600282556040516370a0823160e01b815230600482018190527f000000000000000000000000000000000000000000000000000000000000000091611a6791907f0000000000000000000000000000000000000000000000000000000000000000906001600160a01b03851690634cdad5069082906370a0823190602401602060405180830381865afa1580156119df573d6000803e3d6000fd5b505050506040513d601f19601f82011682018060405250810190611a039190614731565b6040518263ffffffff1660e01b8152600401611a2191815260200190565b602060405180830381865afa158015611a3e573d6000803e3d6000fd5b505050506040513d601f19601f82011682018060405250810190611a629190614731565b612c83565b505060019055565b611a77611c72565b611a935760405162461bcd60e51b815260040161081e9061448f565b8060005b81811015611b3d576000848483818110611ab357611ab36144c6565b9050602002016020810190611ac89190614066565b6001600160a01b031603611b355760405162461bcd60e51b815260206004820152602e60248201527f43616e206e6f742073657420616e20656d70747920616464726573732061732060448201526d30903932bbb0b932103a37b5b2b760911b606482015260840161081e565b600101611a97565b507f04c0b9649497d316554306e53678d5f5f5dbc3a06f97dec13ff4cfe98b986bbc606c8484604051611b72939291906147ab565b60405180910390a1611b86606c8484613f4b565b50505050565b611b94611c72565b611bb05760405162461bcd60e51b815260040161081e9061448f565b6113cf612f55565b611bc0611c72565b611bdc5760405162461bcd60e51b815260040161081e9061448f565b610d5681613009565b611bed611c72565b611c095760405162461bcd60e51b815260040161081e9061448f565b606b54604080516001600160a01b03928316815291831660208301527fe48386b84419f4d36e0f96c10cc3510b6fb1a33795620c5098b22472bbe90796910160405180910390a1606b80546001600160a01b0319166001600160a01b0392909216919091179055565b6000611c8a600080516020614cb98339815191525490565b6001600160a01b0316336001600160a01b031614905090565b611cab611c72565b611cc75760405162461bcd60e51b815260040161081e9061448f565b611cef817f44c4d30b2eaad5130ad70c3ba6972730566f3e6359ab83e800d905c61b1c51db55565b806001600160a01b0316611d0f600080516020614cb98339815191525490565b6001600160a01b03167fa39cc5eb22d0f34d8beaefee8a3f17cc229c1a1d1ef87a5ad47313487b1c4f0d60405160405180910390a350565b610103546001600160a01b0316331480611d645750611d64611c72565b611d805760405162461bcd60e51b815260040161081e906145ca565b600080516020614c9983398151915280546001198101611db25760405162461bcd60e51b815260040161081e90614612565b60028255611dc1858585612c83565b5060019055505050565b610103546001600160a01b0316331480611de85750611de8611c72565b611e045760405162461bcd60e51b815260040161081e906145ca565b600080516020614c9983398151915280546001198101611e365760405162461bcd60e51b815260040161081e90614612565b600282556040516370a0823160e01b81523060048201526112f7907f0000000000000000000000000000000000000000000000000000000000000000906001600160a01b038216906370a0823190602401602060405180830381865afa158015611ea4573d6000803e3d6000fd5b505050506040513d601f19601f82011682018060405250810190611ec89190614731565b612491565b611ed5611c72565b611ef15760405162461bcd60e51b815260040161081e9061448f565b600054610100900460ff1680611f0a575060005460ff16155b611f265760405162461bcd60e51b815260040161081e9061475d565b600054610100900460ff16158015611f48576000805461ffff19166101011790555b611f53848484613064565b611f5c85612b88565b6040805160008082526001602080840182815260608501865293949293928501908036833750506040805160018082528183019092529293506000929150602080830190803683370190505090507f000000000000000000000000000000000000000000000000000000000000000082600081518110611fde57611fde6144c6565b60200260200101906001600160a01b031690816001600160a01b0316815250507f000000000000000000000000000000000000000000000000000000000000000081600081518110612032576120326144c6565b60200260200101906001600160a01b031690816001600160a01b03168152505061205d838383612bd7565b5050508015612072576000805461ff00191690555b5050505050565b6060606c8054806020026020016040519081016040528092919081815260200182805480156120d157602002820191906000526020600020905b81546001600160a01b031681526001909101906020018083116120b3575b5050505050905090565b6040516001600160a01b03831660248201526044810182905261213e90849063a9059cbb60e01b906064015b60408051601f198184030181529190526020810180516001600160e01b03166001600160e01b0319909316929092179091526130b9565b505050565b60007f000000000000000000000000000000000000000000000000000000000000000063ffffffff168463ffffffff16146121b85760405162461bcd60e51b81526020600482015260156024820152742ab735b737bbb71029b7bab931b2902237b6b0b4b760591b604482015260640161081e565b827f00000000000000000000000000000000000000000000000000000000000000006001600160a01b03908116908216146122265760405162461bcd60e51b815260206004820152600e60248201526d2ab735b737bbb71029b2b73232b960911b604482015260640161081e565b61222f8361318b565b60019150505b9392505050565b604080516001600160401b03851660208201528082018490528215156060808301919091528251808303820181526080830190935291612285916103f29160039160a001614846565b60405160208183030381529060405290509392505050565b6033546040516314b157ab60e01b81526001600160a01b037f00000000000000000000000000000000000000000000000000000000000000008116926314b157ab9261233b927f0000000000000000000000000000000000000000000000000000000000000000927f000000000000000000000000000000000000000000000000000000000000000090911691829161ffff1690889060040161488b565b600060405180830381600087803b15801561235557600080fd5b505af1158015612369573d6000803e3d6000fd5b50506033546040517f90d92e80437532a834bc16642d235a7c34efc4d5690f3f6e69794c6d8c5c729093506123eb92507f0000000000000000000000000000000000000000000000000000000000000000917f00000000000000000000000000000000000000000000000000000000000000009161ffff9091169086906148c2565b60405180910390a150565b610bb88161ffff1611156124435760405162461bcd60e51b815260206004820152601460248201527308ccaca40e0e4cadad2eada40e8dede40d0d2ced60631b604482015260640161081e565b6033805463ffff000019166201000061ffff8416908102919091179091556040519081527f938c72cb9ba014c7d4d26f156021299f8926dee2aab1421b32a2408a8261cf60906020016123eb565b600081116124da5760405162461bcd60e51b81526020600482015260166024820152754d757374206465706f73697420736f6d657468696e6760501b604482015260640161081e565b7f00000000000000000000000000000000000000000000000000000000000000006001600160a01b0316826001600160a01b03161461252b5760405162461bcd60e51b815260040161081e906146fa565b604051636e553f6560e01b8152600481018290523060248201527f00000000000000000000000000000000000000000000000000000000000000006001600160a01b031690636e553f65906044016020604051808303816000875af19250505080156125b4575060408051601f3d908101601f191682019092526125b191810190614731565b60015b61269c576125c0614904565b806308c379a00361263857506125d4614920565b806125df575061263a565b7fcce3c000dc0fa4d3156e53ca2c0771b6dfa039640d4885f2df488a7f732540d48160405160200161261191906149a3565b60408051601f198184030181529082905261262b916149db565b60405180910390a1505050565b505b3d808015612664576040519150601f19603f3d011682016040523d82523d6000602084013e612669565b606091505b507fcce3c000dc0fa4d3156e53ca2c0771b6dfa039640d4885f2df488a7f732540d48160405160200161261191906149ee565b50604080516001600160a01b037f000000000000000000000000000000000000000000000000000000000000000081168252602082018490528416917f5548c837ab068cf56a2c2479df0882a4922fd203edb7517321831d95078c5f62910160405180910390a25050565b60008080806060612718868361275d565b945061272586600461275d565b935061273286602c612785565b925061273f86604c612785565b865190925061275290879060949061279f565b905091939590929450565b600061277c612777848461277260048261474a565b61279f565b6131ff565b90505b92915050565b600061277c61279a848461277260208261474a565b613235565b6060828210156127e75760405162461bcd60e51b8152602060048201526013602482015272496e76616c696420736c6963652072616e676560681b604482015260640161081e565b83518211156128385760405162461bcd60e51b815260206004820152601d60248201527f536c69636520656e6420657863656564732064617461206c656e677468000000604482015260640161081e565b600061284484846146e7565b90506000816001600160401b03811115612860576128606140c8565b6040519080825280601f01601f19166020018201604052801561288a576020820181803683370190505b50905060005b828110156128ef57866128a3828861474a565b815181106128b3576128b36144c6565b602001015160f81c60f81b8282815181106128d0576128d06144c6565b60200101906001600160f81b031916908160001a905350600101612890565b5095945050505050565b600061277c61290e848461277260208261474a565b61326c565b600061291e826132a3565b905063ffffffff811660011461296d5760405162461bcd60e51b8152602060048201526014602482015273496e76616c6964206d657373616765207479706560601b604482015260640161081e565b611b868484846132b0565b606c5460005b81811015610921576000606c828154811061299b5761299b6144c6565b60009182526020822001546040516370a0823160e01b81523060048201526001600160a01b03909116925082906370a0823190602401602060405180830381865afa1580156129ee573d6000803e3d6000fd5b505050506040513d601f19601f82011682018060405250810190612a129190614731565b90508015612a8257606b54604080516001600160a01b039283168152918416602083015281018290527ff6c07a063ed4e63808eb8da7112d46dbcd38de2b40a73dbcc9353c5a94c723539060600160405180910390a1606b54612a82906001600160a01b038481169116836120db565b505060010161297e565b8061ffff166103e81480612aa557508061ffff166107d0145b612ae55760405162461bcd60e51b8152602060048201526011602482015270125b9d985b1a59081d1a1c995cda1bdb19607a1b604482015260640161081e565b6033805461ffff191661ffff83169081179091556040519081527fe8fbd074d54232549e55ac463e02d202c16b1023e5d6aae276b3d8391b8c14bc906020016123eb565b6001600160a01b038116612b7f5760405162461bcd60e51b815260206004820152601a60248201527f4e657720476f7665726e6f722069732061646472657373283029000000000000604482015260640161081e565b610d56816133e5565b61010380546001600160a01b0319166001600160a01b0383169081179091556040519081527f869e0abd13cc3a975de7b93be3df1cb2255c802b1cead85963cc79d99f131bee906020016123eb565b8251612bea90606c906020860190613fae565b50815181518114612c345760405162461bcd60e51b8152602060048201526014602482015273496e76616c696420696e7075742061727261797360601b604482015260640161081e565b60005b8181101561207257612c7b848281518110612c5457612c546144c6565b6020026020010151848381518110612c6e57612c6e6144c6565b602002602001015161344c565b600101612c37565b60008111612cd35760405162461bcd60e51b815260206004820152601760248201527f4d75737420776974686472617720736f6d657468696e67000000000000000000604482015260640161081e565b6001600160a01b0383163014612d1f5760405162461bcd60e51b8152602060048201526011602482015270125b9d985b1a59081c9958da5c1a595b9d607a1b604482015260640161081e565b7f00000000000000000000000000000000000000000000000000000000000000006001600160a01b0316826001600160a01b031614612d705760405162461bcd60e51b815260040161081e906146fa565b604051632d182be560e21b815260048101829052306024820181905260448201527f00000000000000000000000000000000000000000000000000000000000000006001600160a01b03169063b460af94906064016020604051808303816000875af1925050508015612e00575060408051601f3d908101601f19168201909252612dfd91810190614731565b60015b612ee957612e0c614904565b806308c379a003612e855750612e20614920565b80612e2b5750612e87565b7f338db40d86fc8697e35f615235de184a040fdca34021e6bf367dabb0a408f83481604051602001612e5d9190614a4c565b60408051601f1981840301815290829052612e77916149db565b60405180910390a150505050565b505b3d808015612eb1576040519150601f19603f3d011682016040523d82523d6000602084013e612eb6565b606091505b507f338db40d86fc8697e35f615235de184a040fdca34021e6bf367dabb0a408f83481604051602001612e5d9190614a87565b50604080516001600160a01b037f000000000000000000000000000000000000000000000000000000000000000081168252602082018490528416917f2717ead6b9200dd235aad468c9809ea400fe33ac69b5bfaa6d3e90fc922b6398910160405180910390a2505050565b60405163095ea7b360e01b81526001600160a01b037f00000000000000000000000000000000000000000000000000000000000000008116600483015260001960248301527f0000000000000000000000000000000000000000000000000000000000000000169063095ea7b3906044016020604051808303816000875af1158015612fe5573d6000803e3d6000fd5b505050506040513d601f19601f82011682018060405250810190610d5691906146af565b603380546bffffffffffffffffffffffff16600160601b6001600160a01b038416908102919091179091556040519081527f4721129e0e676ed6a92909bb24e853ccdd63ad72280cc2e974e38e480e0e6e54906020016123eb565b61306d83613009565b61307682612a8c565b61307f816123f6565b5050600080525060346020527f2dc2afdad33a5feea586a9545052327b65d28efb10d11fa69e77da986a1031cd805460ff19166001179055565b600061310e826040518060400160405280602081526020017f5361666545524332303a206c6f772d6c6576656c2063616c6c206661696c6564815250856001600160a01b03166135b19092919063ffffffff16565b80519091501561213e578080602001905181019061312c91906146af565b61213e5760405162461bcd60e51b815260206004820152602a60248201527f5361666545524332303a204552433230206f7065726174696f6e20646964206e6044820152691bdd081cdd58d8d9595960b21b606482015260840161081e565b6000613196826132a3565b905060001963ffffffff821601156109215760011963ffffffff8216016131c057610921826135c0565b60405162461bcd60e51b8152602060048201526014602482015273556e6b6e6f776e206d657373616765207479706560601b604482015260640161081e565b600081516004146132225760405162461bcd60e51b815260040161081e90614ae8565b60e061322d83614b15565b901c92915050565b600081516020146132585760405162461bcd60e51b815260040161081e90614ae8565b8180602001905181019061277f9190614b3c565b6000815160201461328f5760405162461bcd60e51b815260040161081e90614ae8565b8180602001905181019061277f9190614731565b600061277f82600461275d565b60006132bb82613811565b5090506132c78161384a565b6040516370a0823160e01b81523060048201526000907f00000000000000000000000000000000000000000000000000000000000000006001600160a01b0316906370a0823190602401602060405180830381865afa15801561332e573d6000803e3d6000fd5b505050506040513d601f19601f820116820180604052508101906133529190614731565b9050620f42408110613388576133887f000000000000000000000000000000000000000000000000000000000000000082612491565b6033546000906133d290600160201b90046001600160401b03166133cb7f00000000000000000000000000000000000000000000000000000000000000006113d1565b600161223c565b90506133dd8161229d565b505050505050565b806001600160a01b0316613405600080516020614cb98339815191525490565b6001600160a01b03167fc7c0c772add429241571afb3805861fb3cfa2af374534088b76cdb4325a87e9a60405160405180910390a3600080516020614cb983398151915255565b6001600160a01b0382811660009081526067602052604090205416156134a95760405162461bcd60e51b81526020600482015260126024820152711c151bdad95b88185b1c9958591e481cd95d60721b604482015260640161081e565b6001600160a01b038216158015906134c957506001600160a01b03811615155b6135095760405162461bcd60e51b8152602060048201526011602482015270496e76616c69642061646472657373657360781b604482015260640161081e565b6001600160a01b03828116600081815260676020908152604080832080549587166001600160a01b031996871681179091556068805460018101825594527fa2153420d844928b4421650203c77babc8b33d7f2e7b450e2966db0c2209775390930180549095168417909455925190815290917fef6485b84315f9b1483beffa32aae9a0596890395e3d7521f1c5fbb51790e765910160405180910390a26109218282613962565b60606115af848460008561396a565b6000806135cc83613a92565b915091506135d98261384a565b6040516370a0823160e01b81523060048201526000907f00000000000000000000000000000000000000000000000000000000000000006001600160a01b0316906370a0823190602401602060405180830381865afa158015613640573d6000803e3d6000fd5b505050506040513d601f19601f820116820180604052508101906136649190614731565b9050818110156137285761369d307f0000000000000000000000000000000000000000000000000000000000000000611a6284866146e7565b6040516370a0823160e01b81523060048201527f00000000000000000000000000000000000000000000000000000000000000006001600160a01b0316906370a0823190602401602060405180830381865afa158015613701573d6000803e3d6000fd5b505050506040513d601f19601f820116820180604052508101906137259190614731565b90505b60006137537f00000000000000000000000000000000000000000000000000000000000000006113d1565b9050620f424083101580156137685750828210155b156137a35760335460009061379190600160201b90046001600160401b03166133cb86856146e7565b905061379d8482613aa0565b50612072565b6033546000906137c590600160201b90046001600160401b031683600161223c565b90506137d08161229d565b60408051858152602081018590527fff463b52b1f42eb360c2a871ee18d12dbc93807adffafa5b8fc6dea0051857a9910160405180910390a1505050505050565b60008061381f836001613d1f565b60008061382b85613dd8565b80602001905181019061383e9190614b59565b90969095509350505050565b6033546001600160401b03600160201b90910481169082168111156138a15760405162461bcd60e51b815260206004820152600d60248201526c4e6f6e636520746f6f206c6f7760981b604482015260640161081e565b6001600160401b03821660009081526034602052604090205460ff161561390a5760405162461bcd60e51b815260206004820152601760248201527f4e6f6e636520616c72656164792070726f636573736564000000000000000000604482015260640161081e565b6001600160401b038083166000818152603460205260409020805460ff191660011790559082161461092157603380546001600160401b038416600160201b026bffffffffffffffff00000000199091161790555050565b610921612f55565b6060824710156139cb5760405162461bcd60e51b815260206004820152602660248201527f416464726573733a20696e73756666696369656e742062616c616e636520666f6044820152651c8818d85b1b60d21b606482015260840161081e565b843b613a195760405162461bcd60e51b815260206004820152601d60248201527f416464726573733a2063616c6c20746f206e6f6e2d636f6e7472616374000000604482015260640161081e565b600080866001600160a01b03168587604051613a359190614b87565b60006040518083038185875af1925050503d8060008114613a72576040519150601f19603f3d011682016040523d82523d6000602084013e613a77565b606091505b5091509150613a87828286613df1565b979650505050505050565b60008061381f836002613d1f565b6509184e72a000821115613aee5760405162461bcd60e51b81526020600482015260156024820152740a8ded6cadc40c2dadeeadce840e8dede40d0d2ced605b1b604482015260640161081e565b613b426001600160a01b037f0000000000000000000000000000000000000000000000000000000000000000167f000000000000000000000000000000000000000000000000000000000000000084613e2a565b60335460009062010000900461ffff16613b5d576000613b82565b60335461271090613b789062010000900461ffff1685614ba3565b613b829190614bba565b60335460405163779b432d60e01b81529192506001600160a01b037f000000000000000000000000000000000000000000000000000000000000000081169263779b432d92613c4b9288927f0000000000000000000000000000000000000000000000000000000000000000927f0000000000000000000000000000000000000000000000000000000000000000909216917f00000000000000000000000000000000000000000000000000000000000000009183918a9161ffff909116908c90600401614bdc565b600060405180830381600087803b158015613c6557600080fd5b505af1158015613c79573d6000803e3d6000fd5b50506033546040517f149007d4a77eb98d041de59e6ca469bd27b351b74f16c4d0648978322a1b8a77935061262b92507f0000000000000000000000000000000000000000000000000000000000000000917f0000000000000000000000000000000000000000000000000000000000000000917f0000000000000000000000000000000000000000000000000000000000000000918991889161ffff16908a90614c3d565b6103f2613d2b83613f3f565b63ffffffff1614613d7e5760405162461bcd60e51b815260206004820152601e60248201527f496e76616c6964204f726967696e204d6573736167652056657273696f6e0000604482015260640161081e565b8063ffffffff16613d8e836132a3565b63ffffffff16146109215760405162461bcd60e51b8152602060048201526014602482015273496e76616c6964204d657373616765207479706560601b604482015260640161081e565b606061277f600883518461279f9092919063ffffffff16565b60608315613e00575081612235565b825115613e105782518084602001fd5b8160405162461bcd60e51b815260040161081e91906149db565b801580613ea45750604051636eb1769f60e11b81523060048201526001600160a01b03838116602483015284169063dd62ed3e90604401602060405180830381865afa158015613e7e573d6000803e3d6000fd5b505050506040513d601f19601f82011682018060405250810190613ea29190614731565b155b613f0f5760405162461bcd60e51b815260206004820152603660248201527f5361666545524332303a20617070726f76652066726f6d206e6f6e2d7a65726f60448201527520746f206e6f6e2d7a65726f20616c6c6f77616e636560501b606482015260840161081e565b6040516001600160a01b03831660248201526044810182905261213e90849063095ea7b360e01b90606401612107565b600061277f828261275d565b828054828255906000526020600020908101928215613f9e579160200282015b82811115613f9e5781546001600160a01b0319166001600160a01b03843516178255602090920191600190910190613f6b565b50613faa929150614003565b5090565b828054828255906000526020600020908101928215613f9e579160200282015b82811115613f9e57825182546001600160a01b0319166001600160a01b03909116178255602090920191600190910190613fce565b5b80821115613faa5760008155600101614004565b6001600160a01b0381168114610d5657600080fd5b6000806040838503121561404057600080fd5b823561404b81614018565b9150602083013561405b81614018565b809150509250929050565b60006020828403121561407857600080fd5b813561223581614018565b6000806040838503121561409657600080fd5b82356140a181614018565b946020939093013593505050565b803563ffffffff811681146140c357600080fd5b919050565b634e487b7160e01b600052604160045260246000fd5b601f8201601f191681016001600160401b0381118282101715614103576141036140c8565b6040525050565b600082601f83011261411b57600080fd5b81356001600160401b03811115614134576141346140c8565b60405161414b601f8301601f1916602001826140de565b81815284602083860101111561416057600080fd5b816020850160208301376000918101602001919091529392505050565b6000806000806080858703121561419357600080fd5b61419c856140af565b9350602085013592506141b1604086016140af565b915060608501356001600160401b038111156141cc57600080fd5b6141d88782880161410a565b91505092959194509250565b60008083601f8401126141f657600080fd5b5081356001600160401b0381111561420d57600080fd5b6020830191508360208260051b850101111561422857600080fd5b9250929050565b6000806000806060858703121561424557600080fd5b843561425081614018565b93506020850135925060408501356001600160401b0381111561427257600080fd5b61427e878288016141e4565b95989497509550505050565b6001600160401b0381168114610d5657600080fd5b6000602082840312156142b157600080fd5b81356122358161428a565b803561ffff811681146140c357600080fd5b6000602082840312156142e057600080fd5b61277c826142bc565b600080604083850312156142fc57600080fd5b82356001600160401b0381111561431257600080fd5b61431e8582860161410a565b92505060208301356001600160401b0381111561433a57600080fd5b6143468582860161410a565b9150509250929050565b60006020828403121561436257600080fd5b5035919050565b6000806020838503121561437c57600080fd5b82356001600160401b0381111561439257600080fd5b61383e858286016141e4565b6000806000606084860312156143b357600080fd5b83356143be81614018565b925060208401356143ce81614018565b929592945050506040919091013590565b600080600080608085870312156143f557600080fd5b843561440081614018565b9350602085013561441081614018565b925061441e604086016142bc565b915061442c606086016142bc565b905092959194509250565b600081518084526020840193506020830160005b828110156144725781516001600160a01b031686526020958601959091019060010161444b565b5093949350505050565b60208152600061277c6020830184614437565b6020808252601a908201527f43616c6c6572206973206e6f742074686520476f7665726e6f72000000000000604082015260600190565b634e487b7160e01b600052603260045260246000fd5b6080815260006144ef6080830187614437565b82810360208401526145018187614437565b83810360408501528551808252602080880193509091019060005b8181101561453a57835183526020938401939092019160010161451c565b50508381036060850152845180825260208083019350600582901b8301810190870160005b838110156145ba57848303601f190186528151805180855260209182019185019060005b818110156145a1578351835260209384019390920191600101614583565b505060209788019790945092909201915060010161455f565b50909a9950505050505050505050565b60208082526028908201527f43616c6c6572206973206e6f74207468652053747261746567697374206f722060408201526723b7bb32b93737b960c11b606082015260800190565b6020808252600e908201526d1499595b9d1c985b9d0818d85b1b60921b604082015260600190565b60005b8381101561465557818101518382015260200161463d565b50506000910152565b6000815180845261467681602086016020860161463a565b601f01601f19169290920160200192915050565b60408152600061469d604083018561465e565b8281036020840152610a02818561465e565b6000602082840312156146c157600080fd5b8151801515811461223557600080fd5b634e487b7160e01b600052601160045260246000fd5b8181038181111561277f5761277f6146d1565b60208082526018908201527f556e657870656374656420617373657420616464726573730000000000000000604082015260600190565b60006020828403121561474357600080fd5b5051919050565b8082018082111561277f5761277f6146d1565b6020808252602e908201527f496e697469616c697a61626c653a20636f6e747261637420697320616c72656160408201526d191e481a5b9a5d1a585b1a5e995960921b606082015260800190565b6040808252845490820181905260008581526020812090916060840190835b818110156147f15783546001600160a01b03168352600193840193602090930192016147ca565b50508381036020808601919091528582520190508460005b8581101561483a57813561481c81614018565b6001600160a01b031683526020928301929190910190600101614809565b50909695505050505050565b63ffffffff60e01b8460e01b16815263ffffffff60e01b8360e01b1660048201526000825161487c81600885016020870161463a565b91909101600801949350505050565b63ffffffff8616815284602082015283604082015263ffffffff8316606082015260a060808201526000613a8760a083018461465e565b63ffffffff85811682526001600160a01b0385166020830152831660408201526080606082018190526000906148fa9083018461465e565b9695505050505050565b600060033d111561491d5760046000803e5060005160e01c5b90565b600060443d101561492e5790565b6040513d600319016004823e80513d60248201116001600160401b038211171561495757505090565b80820180516001600160401b03811115614972575050505090565b3d840160031901828201602001111561498c575050505090565b61499b602082850101856140de565b509392505050565b6f02232b837b9b4ba103330b4b632b21d160851b8152600082516149ce81601085016020870161463a565b9190910160100192915050565b60208152600061277c602083018461465e565b7f4465706f736974206661696c65643a206c6f772d6c6576656c2063616c6c206681526f030b4b632b2103bb4ba34103230ba30960851b602082015260008251614a3f81603085016020870161463a565b9190910160300192915050565b7202bb4ba34323930bbb0b6103330b4b632b21d1606d1b815260008251614a7a81601385016020870161463a565b9190910160130192915050565b7f5769746864726177616c206661696c65643a206c6f772d6c6576656c2063616c815272036103330b4b632b2103bb4ba34103230ba309606d1b602082015260008251614adb81603385016020870161463a565b9190910160330192915050565b602080825260139082015272092dcecc2d8d2c840c8c2e8c240d8cadccee8d606b1b604082015260600190565b80516020808301519190811015614b36576000198160200360031b1b821691505b50919050565b600060208284031215614b4e57600080fd5b815161223581614018565b60008060408385031215614b6c57600080fd5b8251614b778161428a565b6020939093015192949293505050565b60008251614b9981846020870161463a565b9190910192915050565b808202811582820484141761277f5761277f6146d1565b600082614bd757634e487b7160e01b600052601260045260246000fd5b500490565b88815263ffffffff8816602082015286604082015260018060a01b03861660608201528460808201528360a082015263ffffffff831660c082015261010060e08201526000614c2f61010083018461465e565b9a9950505050505050505050565b63ffffffff88811682526001600160a01b038881166020840152871660408301526060820186905260808201859052831660a082015260e060c08201819052600090614c8b9083018461465e565b999850505050505050505056fe53bf423e48ed90e97d02ab0ebab13b2a235a6bfbe9c321847d5c175333ac45357bea13895fa79d2831e0a9e28edede30099005a50d652d8957cf8a607ee6ca4aa26469706673582212205a381bee9e3b6fff46fe7e613504b974f31ed0645a70266c0a6e32655997082064736f6c634300081c0033",
  "libraries": {},
  "devdoc": {
    "kind": "dev",
    "methods": {
      "checkBalance(address)": {
        "params": {
          "_asset": "Address of the asset"
        },
        "returns": {
          "_0": "balance    Total value of the asset in the platform and contract"
        }
      },
      "deposit(address,uint256)": {
        "details": "Deposit assets by converting them to shares",
        "params": {
          "_amount": "Amount of asset to deposit",
          "_asset": "Address of asset to deposit"
        }
      },
      "depositAll()": {
        "details": "Deposit the entire balance of assetToken to gain shareToken"
      },
      "getRewardTokenAddresses()": {
        "returns": {
          "_0": "address[] the reward token addresses."
        }
      },
      "handleReceiveFinalizedMessage(uint32,bytes32,uint32,bytes)": {
        "details": "Handles a finalized CCTP message",
        "params": {
          "finalityThresholdExecuted": "Fidelity threshold executed",
          "messageBody": "Message body",
          "sender": "Sender of the message",
          "sourceDomain": "Source domain of the message"
        }
      },
      "handleReceiveUnfinalizedMessage(uint32,bytes32,uint32,bytes)": {
        "details": "Handles an unfinalized but safe CCTP message",
        "params": {
          "finalityThresholdExecuted": "Fidelity threshold executed",
          "messageBody": "Message body",
          "sender": "Sender of the message",
          "sourceDomain": "Source domain of the message"
        }
      },
      "initialize(address,address,uint16,uint16)": {
        "details": "Initialize the strategy implementation",
        "params": {
          "_feePremiumBps": "Fee premium in basis points",
          "_minFinalityThreshold": "Minimum finality threshold",
          "_operator": "Address of the operator",
          "_strategist": "Address of the strategist"
        }
      },
      "isNonceProcessed(uint64)": {
        "details": "Checks if a given nonce is processed.      Nonce starts at 1, so 0 is disregarded.",
        "params": {
          "nonce": "Nonce to check"
        },
        "returns": {
          "_0": "True if the nonce is processed, false otherwise"
        }
      },
      "isTransferPending()": {
        "details": "Checks if the last known transfer is pending.      Nonce starts at 1, so 0 is disregarded.",
        "returns": {
          "_0": "True if a transfer is pending, false otherwise"
        }
      },
      "merkleClaim(address,uint256,bytes32[])": {
        "params": {
          "amount": "The amount of tokens to claim.",
          "proof": "The Merkle proof to validate the claim.",
          "token": "The address of the token to claim."
        }
      },
      "relay(bytes,bytes)": {
        "details": "Receives a message from the peer strategy on the other chain,      does some basic checks and relays it to the local MessageTransmitterV2.      If the message is a burn message, it will also handle the hook data      and call the _onTokenReceived function.",
        "params": {
          "attestation": "Attestation of the message",
          "message": "Payload of the message to send"
        }
      },
      "removePToken(uint256)": {
        "details": "If the ERC-4626 Tokenized Vault needed to be changed, a new contract would need to be deployed and the proxy updated."
      },
      "sendBalanceUpdate()": {
        "details": "Send balance update message to the peer strategy"
      },
      "setFeePremiumBps(uint16)": {
        "details": "Set the fee premium in basis points.      Cannot be higher than 30% (3000 basis points).",
        "params": {
          "_feePremiumBps": "Fee premium in basis points"
        }
      },
      "setHarvesterAddress(address)": {
        "params": {
          "_harvesterAddress": "Address of the harvester contract."
        }
      },
      "setMinFinalityThreshold(uint16)": {
        "details": "Set the minimum finality threshold at which      the message is considered to be finalized to relay.      Only accepts a value of 1000 (Safe, after 1 epoch) or      2000 (Finalized, after 2 epochs).",
        "params": {
          "_minFinalityThreshold": "Minimum finality threshold"
        }
      },
      "setOperator(address)": {
        "details": "Set the operator address",
        "params": {
          "_operator": "Operator address"
        }
      },
      "setPTokenAddress(address,address)": {
        "details": "If the ERC-4626 Tokenized Vault needed to be changed, a new contract would need to be deployed and the proxy updated."
      },
      "setRewardTokenAddresses(address[])": {
        "params": {
          "_rewardTokenAddresses": "Array of reward token addresses"
        }
      },
      "setStrategistAddr(address)": {
        "details": "Set address of Strategist",
        "params": {
          "_address": "Address of Strategist"
        }
      },
      "supportsAsset(address)": {
        "details": "Returns bool indicating whether asset is supported by strategy",
        "params": {
          "_asset": "Address of the asset"
        }
      },
      "transferGovernance(address)": {
        "params": {
          "_newGovernor": "Address of the new Governor"
        }
      },
      "transferToken(address,uint256)": {
        "params": {
          "_amount": "Amount of the asset to transfer",
          "_asset": "Address for the asset"
        }
      },
      "withdraw(address,address,uint256)": {
        "details": "Withdraw asset by burning shares",
        "params": {
          "_amount": "Amount of asset to withdraw",
          "_asset": "Address of asset to withdraw",
          "_recipient": "Address to receive withdrawn asset"
        }
      },
      "withdrawAll()": {
        "details": "Remove all assets from platform and send them to Vault contract."
      }
    },
    "version": 1
  },
  "userdoc": {
    "kind": "user",
    "methods": {
      "MAX_TRANSFER_AMOUNT()": {
        "notice": "Max transfer threshold imposed by the CCTP          Ref: https://developers.circle.com/cctp/evm-smart-contracts#depositforburn"
      },
      "assetToPToken(address)": {
        "notice": "asset => pToken (Platform Specific Token Address)"
      },
      "cctpMessageTransmitter()": {
        "notice": "CCTP message transmitter contract"
      },
      "cctpTokenMessenger()": {
        "notice": "CCTP token messenger contract"
      },
      "checkBalance(address)": {
        "notice": "Get the total asset value held in the platform and contract"
      },
      "claimGovernance()": {
        "notice": "Claim Governance of the contract to a new account (`newGovernor`). Can only be called by the new Governor."
      },
      "collectRewardTokens()": {
        "notice": "Collect accumulated reward token and send to Vault."
      },
      "feePremiumBps()": {
        "notice": "Fee premium in basis points"
      },
      "getRewardTokenAddresses()": {
        "notice": "Get the reward token addresses."
      },
      "governor()": {
        "notice": "Returns the address of the current Governor."
      },
      "harvesterAddress()": {
        "notice": "Address of the Harvester contract allowed to collect reward tokens"
      },
      "isGovernor()": {
        "notice": "Returns true if the caller is the current Governor."
      },
      "lastTransferNonce()": {
        "notice": "Nonce of the last known deposit or withdrawal"
      },
      "merkleClaim(address,uint256,bytes32[])": {
        "notice": "Claim tokens from the Merkle Distributor"
      },
      "merkleDistributor()": {
        "notice": "The address of the Merkle Distributor contract."
      },
      "minFinalityThreshold()": {
        "notice": "Minimum finality threshold         Can be 1000 (safe, after 1 epoch) or 2000 (finalized, after 2 epochs).         Ref: https://developers.circle.com/cctp/technical-guide#finality-thresholds"
      },
      "operator()": {
        "notice": "Operator address: Can relay CCTP messages"
      },
      "peerDomainID()": {
        "notice": "Domain ID of the chain from which messages are accepted"
      },
      "peerStrategy()": {
        "notice": "Strategy address on other chain"
      },
      "platformAddress()": {
        "notice": "Address of the underlying platform"
      },
      "removePToken(uint256)": {
        "notice": "is not supported for this strategy as the asset and ERC-4626 Tokenized Vault are set at deploy time."
      },
      "rewardTokenAddresses(uint256)": {
        "notice": "Address of the reward tokens. eg CRV, BAL, CVX, AURA"
      },
      "safeApproveAllTokens()": {
        "notice": "Governor approves the ERC-4626 Tokenized Vault to spend the asset."
      },
      "setHarvesterAddress(address)": {
        "notice": "Set the Harvester contract that can collect rewards."
      },
      "setPTokenAddress(address,address)": {
        "notice": "is not supported for this strategy as the asset and ERC-4626 Tokenized Vault are set at deploy time."
      },
      "setRewardTokenAddresses(address[])": {
        "notice": "Set the reward token addresses. Any old addresses will be overwritten."
      },
      "transferGovernance(address)": {
        "notice": "Transfers Governance of the contract to a new account (`newGovernor`). Can only be called by the current Governor. Must be claimed for this to complete"
      },
      "transferToken(address,uint256)": {
        "notice": "Transfer token to governor. Intended for recovering tokens stuck in      strategy contracts, i.e. mistaken sends."
      },
      "usdcToken()": {
        "notice": "USDC address on local chain"
      },
      "vaultAddress()": {
        "notice": "Address of the OToken vault"
      }
    },
    "version": 1
  },
  "storageLayout": {
    "storage": [
      {
        "astId": 10447,
        "contract": "contracts/strategies/crosschain/CrossChainRemoteStrategy.sol:CrossChainRemoteStrategy",
        "label": "initialized",
        "offset": 0,
        "slot": "0",
        "type": "t_bool"
      },
      {
        "astId": 10450,
        "contract": "contracts/strategies/crosschain/CrossChainRemoteStrategy.sol:CrossChainRemoteStrategy",
        "label": "initializing",
        "offset": 1,
        "slot": "0",
        "type": "t_bool"
      },
      {
        "astId": 10490,
        "contract": "contracts/strategies/crosschain/CrossChainRemoteStrategy.sol:CrossChainRemoteStrategy",
        "label": "______gap",
        "offset": 0,
        "slot": "1",
        "type": "t_array(t_uint256)50_storage"
      },
      {
        "astId": 5896,
        "contract": "contracts/strategies/crosschain/CrossChainRemoteStrategy.sol:CrossChainRemoteStrategy",
        "label": "minFinalityThreshold",
        "offset": 0,
        "slot": "51",
        "type": "t_uint16"
      },
      {
        "astId": 5899,
        "contract": "contracts/strategies/crosschain/CrossChainRemoteStrategy.sol:CrossChainRemoteStrategy",
        "label": "feePremiumBps",
        "offset": 2,
        "slot": "51",
        "type": "t_uint16"
      },
      {
        "astId": 5902,
        "contract": "contracts/strategies/crosschain/CrossChainRemoteStrategy.sol:CrossChainRemoteStrategy",
        "label": "lastTransferNonce",
        "offset": 4,
        "slot": "51",
        "type": "t_uint64"
      },
      {
        "astId": 5905,
        "contract": "contracts/strategies/crosschain/CrossChainRemoteStrategy.sol:CrossChainRemoteStrategy",
        "label": "operator",
        "offset": 12,
        "slot": "51",
        "type": "t_address"
      },
      {
        "astId": 5910,
        "contract": "contracts/strategies/crosschain/CrossChainRemoteStrategy.sol:CrossChainRemoteStrategy",
        "label": "nonceProcessed",
        "offset": 0,
        "slot": "52",
        "type": "t_mapping(t_uint64,t_bool)"
      },
      {
        "astId": 5914,
        "contract": "contracts/strategies/crosschain/CrossChainRemoteStrategy.sol:CrossChainRemoteStrategy",
        "label": "__gap",
        "offset": 0,
        "slot": "53",
        "type": "t_array(t_uint256)48_storage"
      },
      {
        "astId": 10570,
        "contract": "contracts/strategies/crosschain/CrossChainRemoteStrategy.sol:CrossChainRemoteStrategy",
        "label": "_deprecated_platformAddress",
        "offset": 0,
        "slot": "101",
        "type": "t_address"
      },
      {
        "astId": 10573,
        "contract": "contracts/strategies/crosschain/CrossChainRemoteStrategy.sol:CrossChainRemoteStrategy",
        "label": "_deprecated_vaultAddress",
        "offset": 0,
        "slot": "102",
        "type": "t_address"
      },
      {
        "astId": 10578,
        "contract": "contracts/strategies/crosschain/CrossChainRemoteStrategy.sol:CrossChainRemoteStrategy",
        "label": "assetToPToken",
        "offset": 0,
        "slot": "103",
        "type": "t_mapping(t_address,t_address)"
      },
      {
        "astId": 10582,
        "contract": "contracts/strategies/crosschain/CrossChainRemoteStrategy.sol:CrossChainRemoteStrategy",
        "label": "assetsMapped",
        "offset": 0,
        "slot": "104",
        "type": "t_array(t_address)dyn_storage"
      },
      {
        "astId": 10584,
        "contract": "contracts/strategies/crosschain/CrossChainRemoteStrategy.sol:CrossChainRemoteStrategy",
        "label": "_deprecated_rewardTokenAddress",
        "offset": 0,
        "slot": "105",
        "type": "t_address"
      },
      {
        "astId": 10586,
        "contract": "contracts/strategies/crosschain/CrossChainRemoteStrategy.sol:CrossChainRemoteStrategy",
        "label": "_deprecated_rewardLiquidationThreshold",
        "offset": 0,
        "slot": "106",
        "type": "t_uint256"
      },
      {
        "astId": 10589,
        "contract": "contracts/strategies/crosschain/CrossChainRemoteStrategy.sol:CrossChainRemoteStrategy",
        "label": "harvesterAddress",
        "offset": 0,
        "slot": "107",
        "type": "t_address"
      },
      {
        "astId": 10593,
        "contract": "contracts/strategies/crosschain/CrossChainRemoteStrategy.sol:CrossChainRemoteStrategy",
        "label": "rewardTokenAddresses",
        "offset": 0,
        "slot": "108",
        "type": "t_array(t_address)dyn_storage"
      },
      {
        "astId": 10597,
        "contract": "contracts/strategies/crosschain/CrossChainRemoteStrategy.sol:CrossChainRemoteStrategy",
        "label": "_reserved",
        "offset": 0,
        "slot": "109",
        "type": "t_array(t_int256)98_storage"
      },
      {
        "astId": 5212,
        "contract": "contracts/strategies/crosschain/CrossChainRemoteStrategy.sol:CrossChainRemoteStrategy",
        "label": "_deprecate_shareToken",
        "offset": 0,
        "slot": "207",
        "type": "t_address"
      },
      {
        "astId": 5215,
        "contract": "contracts/strategies/crosschain/CrossChainRemoteStrategy.sol:CrossChainRemoteStrategy",
        "label": "_deprecate_assetToken",
        "offset": 0,
        "slot": "208",
        "type": "t_address"
      },
      {
        "astId": 5225,
        "contract": "contracts/strategies/crosschain/CrossChainRemoteStrategy.sol:CrossChainRemoteStrategy",
        "label": "__gap",
        "offset": 0,
        "slot": "209",
        "type": "t_array(t_uint256)50_storage"
      },
      {
        "astId": 3029,
        "contract": "contracts/strategies/crosschain/CrossChainRemoteStrategy.sol:CrossChainRemoteStrategy",
        "label": "strategistAddr",
        "offset": 0,
        "slot": "259",
        "type": "t_address"
      },
      {
        "astId": 3033,
        "contract": "contracts/strategies/crosschain/CrossChainRemoteStrategy.sol:CrossChainRemoteStrategy",
        "label": "__gap",
        "offset": 0,
        "slot": "260",
        "type": "t_array(t_uint256)50_storage"
      }
    ],
    "types": {
      "t_address": {
        "encoding": "inplace",
        "label": "address",
        "numberOfBytes": "20"
      },
      "t_array(t_address)dyn_storage": {
        "base": "t_address",
        "encoding": "dynamic_array",
        "label": "address[]",
        "numberOfBytes": "32"
      },
      "t_array(t_int256)98_storage": {
        "base": "t_int256",
        "encoding": "inplace",
        "label": "int256[98]",
        "numberOfBytes": "3136"
      },
      "t_array(t_uint256)48_storage": {
        "base": "t_uint256",
        "encoding": "inplace",
        "label": "uint256[48]",
        "numberOfBytes": "1536"
      },
      "t_array(t_uint256)50_storage": {
        "base": "t_uint256",
        "encoding": "inplace",
        "label": "uint256[50]",
        "numberOfBytes": "1600"
      },
      "t_bool": {
        "encoding": "inplace",
        "label": "bool",
        "numberOfBytes": "1"
      },
      "t_int256": {
        "encoding": "inplace",
        "label": "int256",
        "numberOfBytes": "32"
      },
      "t_mapping(t_address,t_address)": {
        "encoding": "mapping",
        "key": "t_address",
        "label": "mapping(address => address)",
        "numberOfBytes": "32",
        "value": "t_address"
      },
      "t_mapping(t_uint64,t_bool)": {
        "encoding": "mapping",
        "key": "t_uint64",
        "label": "mapping(uint64 => bool)",
        "numberOfBytes": "32",
        "value": "t_bool"
      },
      "t_uint16": {
        "encoding": "inplace",
        "label": "uint16",
        "numberOfBytes": "2"
      },
      "t_uint256": {
        "encoding": "inplace",
        "label": "uint256",
        "numberOfBytes": "32"
      },
      "t_uint64": {
        "encoding": "inplace",
        "label": "uint64",
        "numberOfBytes": "8"
      }
    }
  }
}