{
  "address": "0xf6B23291bF4993832b92A05c67d5f43eF3287C6a",
  "abi": [
    {
      "inputs": [
        {
          "internalType": "address",
          "name": "_safeContract",
          "type": "address"
        },
        {
          "internalType": "address",
          "name": "_operator",
          "type": "address"
        },
        {
          "internalType": "address",
          "name": "_factory",
          "type": "address"
        }
      ],
      "stateMutability": "nonpayable",
      "type": "constructor"
    },
    {
      "anonymous": false,
      "inputs": [
        {
          "indexed": false,
          "internalType": "address",
          "name": "newFactory",
          "type": "address"
        }
      ],
      "name": "FactoryUpdated",
      "type": "event"
    },
    {
      "anonymous": false,
      "inputs": [
        {
          "indexed": true,
          "internalType": "bytes32",
          "name": "role",
          "type": "bytes32"
        },
        {
          "indexed": true,
          "internalType": "bytes32",
          "name": "previousAdminRole",
          "type": "bytes32"
        },
        {
          "indexed": true,
          "internalType": "bytes32",
          "name": "newAdminRole",
          "type": "bytes32"
        }
      ],
      "name": "RoleAdminChanged",
      "type": "event"
    },
    {
      "anonymous": false,
      "inputs": [
        {
          "indexed": true,
          "internalType": "bytes32",
          "name": "role",
          "type": "bytes32"
        },
        {
          "indexed": true,
          "internalType": "address",
          "name": "account",
          "type": "address"
        },
        {
          "indexed": true,
          "internalType": "address",
          "name": "sender",
          "type": "address"
        }
      ],
      "name": "RoleGranted",
      "type": "event"
    },
    {
      "anonymous": false,
      "inputs": [
        {
          "indexed": true,
          "internalType": "bytes32",
          "name": "role",
          "type": "bytes32"
        },
        {
          "indexed": true,
          "internalType": "address",
          "name": "account",
          "type": "address"
        },
        {
          "indexed": true,
          "internalType": "address",
          "name": "sender",
          "type": "address"
        }
      ],
      "name": "RoleRevoked",
      "type": "event"
    },
    {
      "inputs": [],
      "name": "DEFAULT_ADMIN_ROLE",
      "outputs": [
        {
          "internalType": "bytes32",
          "name": "",
          "type": "bytes32"
        }
      ],
      "stateMutability": "view",
      "type": "function"
    },
    {
      "inputs": [],
      "name": "OPERATOR_ROLE",
      "outputs": [
        {
          "internalType": "bytes32",
          "name": "",
          "type": "bytes32"
        }
      ],
      "stateMutability": "view",
      "type": "function"
    },
    {
      "inputs": [
        {
          "internalType": "address[]",
          "name": "_exclusionList",
          "type": "address[]"
        }
      ],
      "name": "bribeAll",
      "outputs": [],
      "stateMutability": "nonpayable",
      "type": "function"
    },
    {
      "inputs": [],
      "name": "factory",
      "outputs": [
        {
          "internalType": "address",
          "name": "",
          "type": "address"
        }
      ],
      "stateMutability": "view",
      "type": "function"
    },
    {
      "inputs": [
        {
          "internalType": "bytes32",
          "name": "role",
          "type": "bytes32"
        }
      ],
      "name": "getRoleAdmin",
      "outputs": [
        {
          "internalType": "bytes32",
          "name": "",
          "type": "bytes32"
        }
      ],
      "stateMutability": "view",
      "type": "function"
    },
    {
      "inputs": [
        {
          "internalType": "bytes32",
          "name": "role",
          "type": "bytes32"
        },
        {
          "internalType": "uint256",
          "name": "index",
          "type": "uint256"
        }
      ],
      "name": "getRoleMember",
      "outputs": [
        {
          "internalType": "address",
          "name": "",
          "type": "address"
        }
      ],
      "stateMutability": "view",
      "type": "function"
    },
    {
      "inputs": [
        {
          "internalType": "bytes32",
          "name": "role",
          "type": "bytes32"
        }
      ],
      "name": "getRoleMemberCount",
      "outputs": [
        {
          "internalType": "uint256",
          "name": "",
          "type": "uint256"
        }
      ],
      "stateMutability": "view",
      "type": "function"
    },
    {
      "inputs": [
        {
          "internalType": "bytes32",
          "name": "role",
          "type": "bytes32"
        },
        {
          "internalType": "address",
          "name": "account",
          "type": "address"
        }
      ],
      "name": "grantRole",
      "outputs": [],
      "stateMutability": "nonpayable",
      "type": "function"
    },
    {
      "inputs": [
        {
          "internalType": "bytes32",
          "name": "role",
          "type": "bytes32"
        },
        {
          "internalType": "address",
          "name": "account",
          "type": "address"
        }
      ],
      "name": "hasRole",
      "outputs": [
        {
          "internalType": "bool",
          "name": "",
          "type": "bool"
        }
      ],
      "stateMutability": "view",
      "type": "function"
    },
    {
      "inputs": [
        {
          "internalType": "bytes32",
          "name": "role",
          "type": "bytes32"
        },
        {
          "internalType": "address",
          "name": "account",
          "type": "address"
        }
      ],
      "name": "renounceRole",
      "outputs": [],
      "stateMutability": "nonpayable",
      "type": "function"
    },
    {
      "inputs": [
        {
          "internalType": "bytes32",
          "name": "role",
          "type": "bytes32"
        },
        {
          "internalType": "address",
          "name": "account",
          "type": "address"
        }
      ],
      "name": "revokeRole",
      "outputs": [],
      "stateMutability": "nonpayable",
      "type": "function"
    },
    {
      "inputs": [],
      "name": "safeContract",
      "outputs": [
        {
          "internalType": "contract ISafe",
          "name": "",
          "type": "address"
        }
      ],
      "stateMutability": "view",
      "type": "function"
    },
    {
      "inputs": [
        {
          "internalType": "address",
          "name": "_factory",
          "type": "address"
        }
      ],
      "name": "setFactory",
      "outputs": [],
      "stateMutability": "nonpayable",
      "type": "function"
    },
    {
      "inputs": [
        {
          "internalType": "bytes4",
          "name": "interfaceId",
          "type": "bytes4"
        }
      ],
      "name": "supportsInterface",
      "outputs": [
        {
          "internalType": "bool",
          "name": "",
          "type": "bool"
        }
      ],
      "stateMutability": "view",
      "type": "function"
    },
    {
      "inputs": [
        {
          "internalType": "address",
          "name": "token",
          "type": "address"
        },
        {
          "internalType": "uint256",
          "name": "amount",
          "type": "uint256"
        }
      ],
      "name": "transferTokens",
      "outputs": [],
      "stateMutability": "nonpayable",
      "type": "function"
    },
    {
      "stateMutability": "payable",
      "type": "receive"
    }
  ],
  "transactionHash": "0xe020344fd3df51249dfdcb6d6fc9eb34b69509dd139803a045a947f2b5cad2a3",
  "args": [
    "0x4FF1b9D9ba8558F5EAfCec096318eA0d8b541971",
    "0xc0D6fa24D135c006dE5B8b2955935466A03D920a",
    "0x9D7bdc2Ead55c6c460dFCBccC315dC4f6C6c1bF9"
  ],
  "numDeployments": 1,
  "solcInputHash": "0944422b31beebc4b1a0eb4f15574533",
  "bytecode": "0x60a060405234801561001057600080fd5b5060405161156738038061156783398101604081905261002f91610282565b6001600160a01b0383166080819052839061004c90600090610096565b61006c60008051602061154783398151915260805161009660201b60201c565b5061008560008051602061154783398151915283610096565b61008e816100bd565b5050506102c5565b6100a0828261015a565b60008281526001602052604090206100b890826101f9565b505050565b6001600160a01b0381166101065760405162461bcd60e51b815260206004820152600c60248201526b5a65726f206164647265737360a01b604482015260640160405180910390fd5b600280546001600160a01b0319166001600160a01b0383169081179091556040519081527f24cd1310c8883cbeaf5b805ab13586ce018b79c022827158ff3e8df14d3449369060200160405180910390a150565b6000828152602081815260408083206001600160a01b038516845290915290205460ff166101f5576000828152602081815260408083206001600160a01b03851684529091529020805460ff191660011790556101b43390565b6001600160a01b0316816001600160a01b0316837f2f8788117e7eff1d82e926ec794901d17c78024a50270940304540a733656f0d60405160405180910390a45b5050565b600061020e836001600160a01b038416610217565b90505b92915050565b600081815260018301602052604081205461025e57508154600181810184556000848152602080822090930184905584548482528286019093526040902091909155610211565b506000610211565b80516001600160a01b038116811461027d57600080fd5b919050565b60008060006060848603121561029757600080fd5b6102a084610266565b92506102ae60208501610266565b91506102bc60408501610266565b90509250925092565b6080516112446103036000396000818161032001528181610426015281816104f20152818161058d01528181610664015261078101526112446000f3fe6080604052600436106100ec5760003560e01c8063a217fddf1161008a578063d517786811610059578063d51778681461029a578063d547741f146102ba578063f5b541a6146102da578063f9081ba21461030e57600080fd5b8063a217fddf14610225578063bec3fa171461023a578063c45a01551461025a578063ca15c8731461027a57600080fd5b806336568abe116100c657806336568abe1461018d5780635bb47808146101ad5780639010d07c146101cd57806391d148541461020557600080fd5b806301ffc9a7146100f8578063248a9ca31461012d5780632f2ff15d1461016b57600080fd5b366100f357005b600080fd5b34801561010457600080fd5b50610118610113366004610e60565b610342565b60405190151581526020015b60405180910390f35b34801561013957600080fd5b5061015d610148366004610e8a565b60009081526020819052604090206001015490565b604051908152602001610124565b34801561017757600080fd5b5061018b610186366004610ebf565b61036d565b005b34801561019957600080fd5b5061018b6101a8366004610ebf565b610398565b3480156101b957600080fd5b5061018b6101c8366004610eeb565b61041b565b3480156101d957600080fd5b506101ed6101e8366004610f06565b61049f565b6040516001600160a01b039091168152602001610124565b34801561021157600080fd5b50610118610220366004610ebf565b6104be565b34801561023157600080fd5b5061015d600081565b34801561024657600080fd5b5061018b610255366004610f28565b6104e7565b34801561026657600080fd5b506002546101ed906001600160a01b031681565b34801561028657600080fd5b5061015d610295366004610e8a565b6106e4565b3480156102a657600080fd5b5061018b6102b5366004610f52565b6106fb565b3480156102c657600080fd5b5061018b6102d5366004610ebf565b610893565b3480156102e657600080fd5b5061015d7f97667070c54ef182b0f5858b034beac1b6f3089aa2d3188bb1e8929f4fa9b92981565b34801561031a57600080fd5b506101ed7f000000000000000000000000000000000000000000000000000000000000000081565b60006001600160e01b03198216635a05180f60e01b14806103675750610367826108b9565b92915050565b60008281526020819052604090206001015461038981336108ee565b6103938383610952565b505050565b6001600160a01b038116331461040d5760405162461bcd60e51b815260206004820152602f60248201527f416363657373436f6e74726f6c3a2063616e206f6e6c792072656e6f756e636560448201526e103937b632b9903337b91039b2b63360891b60648201526084015b60405180910390fd5b6104178282610974565b5050565b336001600160a01b037f000000000000000000000000000000000000000000000000000000000000000016146104935760405162461bcd60e51b815260206004820152601f60248201527f43616c6c6572206973206e6f7420746865207361666520636f6e7472616374006044820152606401610404565b61049c81610996565b50565b60008281526001602052604081206104b79083610a2f565b9392505050565b6000918252602082815260408084206001600160a01b0393909316845291905290205460ff1690565b336001600160a01b037f0000000000000000000000000000000000000000000000000000000000000000161461055f5760405162461bcd60e51b815260206004820152601f60248201527f43616c6c6572206973206e6f7420746865207361666520636f6e7472616374006044820152606401610404565b6001600160a01b0382166105d6576000811161057b574761057d565b805b6040519091506001600160a01b037f0000000000000000000000000000000000000000000000000000000000000000169082156108fc029083906000818181858888f19350505050158015610393573d6000803e3d6000fd5b6000811161064b576040516370a0823160e01b81523060048201526001600160a01b038316906370a0823190602401602060405180830381865afa158015610622573d6000803e3d6000fd5b505050506040513d601f19601f820116820180604052508101906106469190610fc9565b61064d565b805b60405163a9059cbb60e01b81526001600160a01b037f000000000000000000000000000000000000000000000000000000000000000081166004830152602482018390529192509083169063a9059cbb906044016020604051808303816000875af11580156106c0573d6000803e3d6000fd5b505050506040513d601f19601f820116820180604052508101906103939190610fe2565b600081815260016020526040812061036790610a3b565b6107257f97667070c54ef182b0f5858b034beac1b6f3089aa2d3188bb1e8929f4fa9b929336104be565b6107715760405162461bcd60e51b815260206004820152601960248201527f43616c6c6572206973206e6f7420616e206f70657261746f72000000000000006044820152606401610404565b6002546040516001600160a01b037f000000000000000000000000000000000000000000000000000000000000000081169263468721a792911690600090631aa2ef0d60e31b906107c89088908890602401611004565b60408051601f198184030181529181526020820180516001600160e01b03166001600160e01b03199485161790525160e086901b909216825261081293929160009060040161109f565b6020604051808303816000875af1158015610831573d6000803e3d6000fd5b505050506040513d601f19601f820116820180604052508101906108559190610fe2565b6104175760405162461bcd60e51b815260206004820152600f60248201526e189c9a5899505b1b0819985a5b1959608a1b6044820152606401610404565b6000828152602081905260409020600101546108af81336108ee565b6103938383610974565b60006001600160e01b03198216637965db0b60e01b148061036757506301ffc9a760e01b6001600160e01b0319831614610367565b6108f882826104be565b61041757610910816001600160a01b03166014610a45565b61091b836020610a45565b60405160200161092c9291906110da565b60408051601f198184030181529082905262461bcd60e51b82526104049160040161114f565b61095c8282610be1565b60008281526001602052604090206103939082610c65565b61097e8282610c7a565b60008281526001602052604090206103939082610cdf565b6001600160a01b0381166109db5760405162461bcd60e51b815260206004820152600c60248201526b5a65726f206164647265737360a01b6044820152606401610404565b600280546001600160a01b0319166001600160a01b0383169081179091556040519081527f24cd1310c8883cbeaf5b805ab13586ce018b79c022827158ff3e8df14d3449369060200160405180910390a150565b60006104b78383610cf4565b6000610367825490565b60606000610a54836002611178565b610a5f90600261118f565b67ffffffffffffffff811115610a7757610a776111a2565b6040519080825280601f01601f191660200182016040528015610aa1576020820181803683370190505b509050600360fc1b81600081518110610abc57610abc6111b8565b60200101906001600160f81b031916908160001a905350600f60fb1b81600181518110610aeb57610aeb6111b8565b60200101906001600160f81b031916908160001a9053506000610b0f846002611178565b610b1a90600161118f565b90505b6001811115610b92576f181899199a1a9b1b9c1cb0b131b232b360811b85600f1660108110610b4e57610b4e6111b8565b1a60f81b828281518110610b6457610b646111b8565b60200101906001600160f81b031916908160001a90535060049490941c93610b8b816111ce565b9050610b1d565b5083156104b75760405162461bcd60e51b815260206004820181905260248201527f537472696e67733a20686578206c656e67746820696e73756666696369656e746044820152606401610404565b610beb82826104be565b610417576000828152602081815260408083206001600160a01b03851684529091529020805460ff19166001179055610c213390565b6001600160a01b0316816001600160a01b0316837f2f8788117e7eff1d82e926ec794901d17c78024a50270940304540a733656f0d60405160405180910390a45050565b60006104b7836001600160a01b038416610d1e565b610c8482826104be565b15610417576000828152602081815260408083206001600160a01b0385168085529252808320805460ff1916905551339285917ff6391f5c32d9c69d2a47ea670b442974b53935d1edc7fd64eb21e047a839171b9190a45050565b60006104b7836001600160a01b038416610d6d565b6000826000018281548110610d0b57610d0b6111b8565b9060005260206000200154905092915050565b6000818152600183016020526040812054610d6557508154600181810184556000848152602080822090930184905584548482528286019093526040902091909155610367565b506000610367565b60008181526001830160205260408120548015610e56576000610d916001836111e5565b8554909150600090610da5906001906111e5565b9050818114610e0a576000866000018281548110610dc557610dc56111b8565b9060005260206000200154905080876000018481548110610de857610de86111b8565b6000918252602080832090910192909255918252600188019052604090208390555b8554869080610e1b57610e1b6111f8565b600190038181906000526020600020016000905590558560010160008681526020019081526020016000206000905560019350505050610367565b6000915050610367565b600060208284031215610e7257600080fd5b81356001600160e01b0319811681146104b757600080fd5b600060208284031215610e9c57600080fd5b5035919050565b80356001600160a01b0381168114610eba57600080fd5b919050565b60008060408385031215610ed257600080fd5b82359150610ee260208401610ea3565b90509250929050565b600060208284031215610efd57600080fd5b6104b782610ea3565b60008060408385031215610f1957600080fd5b50508035926020909101359150565b60008060408385031215610f3b57600080fd5b610f4483610ea3565b946020939093013593505050565b60008060208385031215610f6557600080fd5b823567ffffffffffffffff811115610f7c57600080fd5b8301601f81018513610f8d57600080fd5b803567ffffffffffffffff811115610fa457600080fd5b8560208260051b8401011115610fb957600080fd5b6020919091019590945092505050565b600060208284031215610fdb57600080fd5b5051919050565b600060208284031215610ff457600080fd5b815180151581146104b757600080fd5b6020808252810182905260008360408301825b85811015611045576001600160a01b0361103084610ea3565b16825260209283019290910190600101611017565b5095945050505050565b60005b8381101561106a578181015183820152602001611052565b50506000910152565b6000815180845261108b81602086016020860161104f565b601f01601f19169290920160200192915050565b60018060a01b03851681528360208201526080604082015260006110c66080830185611073565b905060ff8316606083015295945050505050565b7f416363657373436f6e74726f6c3a206163636f756e742000000000000000000081526000835161111281601785016020880161104f565b7001034b99036b4b9b9b4b733903937b6329607d1b601791840191820152835161114381602884016020880161104f565b01602801949350505050565b6020815260006104b76020830184611073565b634e487b7160e01b600052601160045260246000fd5b808202811582820484141761036757610367611162565b8082018082111561036757610367611162565b634e487b7160e01b600052604160045260246000fd5b634e487b7160e01b600052603260045260246000fd5b6000816111dd576111dd611162565b506000190190565b8181038181111561036757610367611162565b634e487b7160e01b600052603160045260246000fdfea26469706673582212203532ec847a11a1b94a994b1f7c8f667302a241eb7245f57bcc2bd3438dba3ccd64736f6c634300081c003397667070c54ef182b0f5858b034beac1b6f3089aa2d3188bb1e8929f4fa9b929",
  "libraries": {},
  "devdoc": {
    "author": "Origin Protocol",
    "events": {
      "RoleAdminChanged(bytes32,bytes32,bytes32)": {
        "details": "Emitted when `newAdminRole` is set as ``role``'s admin role, replacing `previousAdminRole` `DEFAULT_ADMIN_ROLE` is the starting admin for all roles, despite {RoleAdminChanged} not being emitted signaling this. _Available since v3.1._"
      },
      "RoleGranted(bytes32,address,address)": {
        "details": "Emitted when `account` is granted `role`. `sender` is the account that originated the contract call, an admin role bearer except when using {AccessControl-_setupRole}."
      },
      "RoleRevoked(bytes32,address,address)": {
        "details": "Emitted when `account` is revoked `role`. `sender` is the account that originated the contract call:   - if using `revokeRole`, it is the admin role bearer   - if using `renounceRole`, it is the role bearer (i.e. `account`)"
      }
    },
    "kind": "dev",
    "methods": {
      "bribeAll(address[])": {
        "params": {
          "_exclusionList": "List of pool booster addresses to exclude from bribing"
        }
      },
      "constructor": {
        "params": {
          "_factory": "Address of the PoolBoosterFactoryMerkl contract",
          "_operator": "Address authorized to call operator-restricted functions",
          "_safeContract": "Address of the Gnosis Safe this module is attached to"
        }
      },
      "getRoleAdmin(bytes32)": {
        "details": "Returns the admin role that controls `role`. See {grantRole} and {revokeRole}. To change a role's admin, use {_setRoleAdmin}."
      },
      "getRoleMember(bytes32,uint256)": {
        "details": "Returns one of the accounts that have `role`. `index` must be a value between 0 and {getRoleMemberCount}, non-inclusive. Role bearers are not sorted in any particular way, and their ordering may change at any point. WARNING: When using {getRoleMember} and {getRoleMemberCount}, make sure you perform all queries on the same block. See the following https://forum.openzeppelin.com/t/iterating-over-elements-on-enumerableset-in-openzeppelin-contracts/2296[forum post] for more information."
      },
      "getRoleMemberCount(bytes32)": {
        "details": "Returns the number of accounts that have `role`. Can be used together with {getRoleMember} to enumerate all bearers of a role."
      },
      "grantRole(bytes32,address)": {
        "details": "Grants `role` to `account`. If `account` had not been already granted `role`, emits a {RoleGranted} event. Requirements: - the caller must have ``role``'s admin role."
      },
      "hasRole(bytes32,address)": {
        "details": "Returns `true` if `account` has been granted `role`."
      },
      "renounceRole(bytes32,address)": {
        "details": "Revokes `role` from the calling account. Roles are often managed via {grantRole} and {revokeRole}: this function's purpose is to provide a mechanism for accounts to lose their privileges if they are compromised (such as when a trusted device is misplaced). If the calling account had been revoked `role`, emits a {RoleRevoked} event. Requirements: - the caller must be `account`."
      },
      "revokeRole(bytes32,address)": {
        "details": "Revokes `role` from `account`. If `account` had been granted `role`, emits a {RoleRevoked} event. Requirements: - the caller must have ``role``'s admin role."
      },
      "setFactory(address)": {
        "params": {
          "_factory": "New factory address"
        }
      },
      "supportsInterface(bytes4)": {
        "details": "See {IERC165-supportsInterface}."
      },
      "transferTokens(address,uint256)": {
        "details": "Helps recovering any tokens accidentally sent to this module.",
        "params": {
          "amount": "Amount to transfer. 0 to transfer all balance.",
          "token": "Token to transfer. 0x0 to transfer Native token."
        }
      }
    },
    "title": "MerklPoolBoosterBribesModule",
    "version": 1
  },
  "userdoc": {
    "events": {
      "FactoryUpdated(address)": {
        "notice": "--- Events"
      }
    },
    "kind": "user",
    "methods": {
      "bribeAll(address[])": {
        "notice": "Instructs the Safe to call `bribeAll` on the PoolBoosterFactoryMerkl contract"
      },
      "factory()": {
        "notice": "Address of the PoolBoosterFactoryMerkl contract"
      },
      "setFactory(address)": {
        "notice": "Update the PoolBoosterFactoryMerkl address"
      }
    },
    "notice": "Gnosis Safe module that automates Merkl bribe campaigns by calling         `bribeAll` on the PoolBoosterFactoryMerkl contract through the Safe.",
    "version": 1
  },
  "storageLayout": {
    "storage": [
      {
        "astId": 24,
        "contract": "contracts/automation/MerklPoolBoosterBribesModule.sol:MerklPoolBoosterBribesModule",
        "label": "_roles",
        "offset": 0,
        "slot": "0",
        "type": "t_mapping(t_bytes32,t_struct(RoleData)19_storage)"
      },
      {
        "astId": 327,
        "contract": "contracts/automation/MerklPoolBoosterBribesModule.sol:MerklPoolBoosterBribesModule",
        "label": "_roleMembers",
        "offset": 0,
        "slot": "1",
        "type": "t_mapping(t_bytes32,t_struct(AddressSet)1182_storage)"
      },
      {
        "astId": 1640,
        "contract": "contracts/automation/MerklPoolBoosterBribesModule.sol:MerklPoolBoosterBribesModule",
        "label": "factory",
        "offset": 0,
        "slot": "2",
        "type": "t_address"
      }
    ],
    "types": {
      "t_address": {
        "encoding": "inplace",
        "label": "address",
        "numberOfBytes": "20"
      },
      "t_array(t_bytes32)dyn_storage": {
        "base": "t_bytes32",
        "encoding": "dynamic_array",
        "label": "bytes32[]",
        "numberOfBytes": "32"
      },
      "t_bool": {
        "encoding": "inplace",
        "label": "bool",
        "numberOfBytes": "1"
      },
      "t_bytes32": {
        "encoding": "inplace",
        "label": "bytes32",
        "numberOfBytes": "32"
      },
      "t_mapping(t_address,t_bool)": {
        "encoding": "mapping",
        "key": "t_address",
        "label": "mapping(address => bool)",
        "numberOfBytes": "32",
        "value": "t_bool"
      },
      "t_mapping(t_bytes32,t_struct(AddressSet)1182_storage)": {
        "encoding": "mapping",
        "key": "t_bytes32",
        "label": "mapping(bytes32 => struct EnumerableSet.AddressSet)",
        "numberOfBytes": "32",
        "value": "t_struct(AddressSet)1182_storage"
      },
      "t_mapping(t_bytes32,t_struct(RoleData)19_storage)": {
        "encoding": "mapping",
        "key": "t_bytes32",
        "label": "mapping(bytes32 => struct AccessControl.RoleData)",
        "numberOfBytes": "32",
        "value": "t_struct(RoleData)19_storage"
      },
      "t_mapping(t_bytes32,t_uint256)": {
        "encoding": "mapping",
        "key": "t_bytes32",
        "label": "mapping(bytes32 => uint256)",
        "numberOfBytes": "32",
        "value": "t_uint256"
      },
      "t_struct(AddressSet)1182_storage": {
        "encoding": "inplace",
        "label": "struct EnumerableSet.AddressSet",
        "members": [
          {
            "astId": 1181,
            "contract": "contracts/automation/MerklPoolBoosterBribesModule.sol:MerklPoolBoosterBribesModule",
            "label": "_inner",
            "offset": 0,
            "slot": "0",
            "type": "t_struct(Set)881_storage"
          }
        ],
        "numberOfBytes": "64"
      },
      "t_struct(RoleData)19_storage": {
        "encoding": "inplace",
        "label": "struct AccessControl.RoleData",
        "members": [
          {
            "astId": 16,
            "contract": "contracts/automation/MerklPoolBoosterBribesModule.sol:MerklPoolBoosterBribesModule",
            "label": "members",
            "offset": 0,
            "slot": "0",
            "type": "t_mapping(t_address,t_bool)"
          },
          {
            "astId": 18,
            "contract": "contracts/automation/MerklPoolBoosterBribesModule.sol:MerklPoolBoosterBribesModule",
            "label": "adminRole",
            "offset": 0,
            "slot": "1",
            "type": "t_bytes32"
          }
        ],
        "numberOfBytes": "64"
      },
      "t_struct(Set)881_storage": {
        "encoding": "inplace",
        "label": "struct EnumerableSet.Set",
        "members": [
          {
            "astId": 876,
            "contract": "contracts/automation/MerklPoolBoosterBribesModule.sol:MerklPoolBoosterBribesModule",
            "label": "_values",
            "offset": 0,
            "slot": "0",
            "type": "t_array(t_bytes32)dyn_storage"
          },
          {
            "astId": 880,
            "contract": "contracts/automation/MerklPoolBoosterBribesModule.sol:MerklPoolBoosterBribesModule",
            "label": "_indexes",
            "offset": 0,
            "slot": "1",
            "type": "t_mapping(t_bytes32,t_uint256)"
          }
        ],
        "numberOfBytes": "64"
      },
      "t_uint256": {
        "encoding": "inplace",
        "label": "uint256",
        "numberOfBytes": "32"
      }
    }
  }
}