{
  "address": "0x8DAAF5095bb64ad423cfC994b1C3E5291960fF0D",
  "abi": [
    {
      "inputs": [
        {
          "components": [
            {
              "internalType": "address",
              "name": "platformAddress",
              "type": "address"
            },
            {
              "internalType": "address",
              "name": "vaultAddress",
              "type": "address"
            }
          ],
          "internalType": "struct InitializableAbstractStrategy.BaseStrategyConfig",
          "name": "_baseConfig",
          "type": "tuple"
        },
        {
          "internalType": "address",
          "name": "_gauge",
          "type": "address"
        }
      ],
      "stateMutability": "nonpayable",
      "type": "constructor"
    },
    {
      "anonymous": false,
      "inputs": [
        {
          "indexed": true,
          "internalType": "address",
          "name": "_asset",
          "type": "address"
        },
        {
          "indexed": false,
          "internalType": "address",
          "name": "_pToken",
          "type": "address"
        },
        {
          "indexed": false,
          "internalType": "uint256",
          "name": "_amount",
          "type": "uint256"
        }
      ],
      "name": "Deposit",
      "type": "event"
    },
    {
      "anonymous": false,
      "inputs": [
        {
          "indexed": true,
          "internalType": "address",
          "name": "previousGovernor",
          "type": "address"
        },
        {
          "indexed": true,
          "internalType": "address",
          "name": "newGovernor",
          "type": "address"
        }
      ],
      "name": "GovernorshipTransferred",
      "type": "event"
    },
    {
      "anonymous": false,
      "inputs": [
        {
          "indexed": false,
          "internalType": "address",
          "name": "_oldHarvesterAddress",
          "type": "address"
        },
        {
          "indexed": false,
          "internalType": "address",
          "name": "_newHarvesterAddress",
          "type": "address"
        }
      ],
      "name": "HarvesterAddressesUpdated",
      "type": "event"
    },
    {
      "anonymous": false,
      "inputs": [
        {
          "indexed": false,
          "internalType": "uint256",
          "name": "maxDepeg",
          "type": "uint256"
        }
      ],
      "name": "MaxDepegUpdated",
      "type": "event"
    },
    {
      "anonymous": false,
      "inputs": [
        {
          "indexed": true,
          "internalType": "address",
          "name": "_asset",
          "type": "address"
        },
        {
          "indexed": false,
          "internalType": "address",
          "name": "_pToken",
          "type": "address"
        }
      ],
      "name": "PTokenAdded",
      "type": "event"
    },
    {
      "anonymous": false,
      "inputs": [
        {
          "indexed": true,
          "internalType": "address",
          "name": "_asset",
          "type": "address"
        },
        {
          "indexed": false,
          "internalType": "address",
          "name": "_pToken",
          "type": "address"
        }
      ],
      "name": "PTokenRemoved",
      "type": "event"
    },
    {
      "anonymous": false,
      "inputs": [
        {
          "indexed": true,
          "internalType": "address",
          "name": "previousGovernor",
          "type": "address"
        },
        {
          "indexed": true,
          "internalType": "address",
          "name": "newGovernor",
          "type": "address"
        }
      ],
      "name": "PendingGovernorshipTransfer",
      "type": "event"
    },
    {
      "anonymous": false,
      "inputs": [
        {
          "indexed": false,
          "internalType": "address[]",
          "name": "_oldAddresses",
          "type": "address[]"
        },
        {
          "indexed": false,
          "internalType": "address[]",
          "name": "_newAddresses",
          "type": "address[]"
        }
      ],
      "name": "RewardTokenAddressesUpdated",
      "type": "event"
    },
    {
      "anonymous": false,
      "inputs": [
        {
          "indexed": false,
          "internalType": "address",
          "name": "recipient",
          "type": "address"
        },
        {
          "indexed": false,
          "internalType": "address",
          "name": "rewardToken",
          "type": "address"
        },
        {
          "indexed": false,
          "internalType": "uint256",
          "name": "amount",
          "type": "uint256"
        }
      ],
      "name": "RewardTokenCollected",
      "type": "event"
    },
    {
      "anonymous": false,
      "inputs": [
        {
          "indexed": false,
          "internalType": "uint256",
          "name": "assetSwapped",
          "type": "uint256"
        },
        {
          "indexed": false,
          "internalType": "uint256",
          "name": "lpTokens",
          "type": "uint256"
        },
        {
          "indexed": false,
          "internalType": "uint256",
          "name": "oTokenBurnt",
          "type": "uint256"
        }
      ],
      "name": "SwapAssetsToPool",
      "type": "event"
    },
    {
      "anonymous": false,
      "inputs": [
        {
          "indexed": false,
          "internalType": "uint256",
          "name": "oTokenMinted",
          "type": "uint256"
        },
        {
          "indexed": false,
          "internalType": "uint256",
          "name": "assetDepositAmount",
          "type": "uint256"
        },
        {
          "indexed": false,
          "internalType": "uint256",
          "name": "oTokenDepositAmount",
          "type": "uint256"
        },
        {
          "indexed": false,
          "internalType": "uint256",
          "name": "lpTokens",
          "type": "uint256"
        }
      ],
      "name": "SwapOTokensToPool",
      "type": "event"
    },
    {
      "anonymous": false,
      "inputs": [
        {
          "indexed": true,
          "internalType": "address",
          "name": "_asset",
          "type": "address"
        },
        {
          "indexed": false,
          "internalType": "address",
          "name": "_pToken",
          "type": "address"
        },
        {
          "indexed": false,
          "internalType": "uint256",
          "name": "_amount",
          "type": "uint256"
        }
      ],
      "name": "Withdrawal",
      "type": "event"
    },
    {
      "inputs": [],
      "name": "PRECISION",
      "outputs": [
        {
          "internalType": "uint256",
          "name": "",
          "type": "uint256"
        }
      ],
      "stateMutability": "view",
      "type": "function"
    },
    {
      "inputs": [],
      "name": "SOLVENCY_THRESHOLD",
      "outputs": [
        {
          "internalType": "uint256",
          "name": "",
          "type": "uint256"
        }
      ],
      "stateMutability": "view",
      "type": "function"
    },
    {
      "inputs": [],
      "name": "asset",
      "outputs": [
        {
          "internalType": "address",
          "name": "",
          "type": "address"
        }
      ],
      "stateMutability": "view",
      "type": "function"
    },
    {
      "inputs": [
        {
          "internalType": "address",
          "name": "",
          "type": "address"
        }
      ],
      "name": "assetToPToken",
      "outputs": [
        {
          "internalType": "address",
          "name": "",
          "type": "address"
        }
      ],
      "stateMutability": "view",
      "type": "function"
    },
    {
      "inputs": [
        {
          "internalType": "address",
          "name": "_asset",
          "type": "address"
        }
      ],
      "name": "checkBalance",
      "outputs": [
        {
          "internalType": "uint256",
          "name": "balance",
          "type": "uint256"
        }
      ],
      "stateMutability": "view",
      "type": "function"
    },
    {
      "inputs": [],
      "name": "claimGovernance",
      "outputs": [],
      "stateMutability": "nonpayable",
      "type": "function"
    },
    {
      "inputs": [],
      "name": "collectRewardTokens",
      "outputs": [],
      "stateMutability": "nonpayable",
      "type": "function"
    },
    {
      "inputs": [
        {
          "internalType": "address",
          "name": "_asset",
          "type": "address"
        },
        {
          "internalType": "uint256",
          "name": "_assetAmount",
          "type": "uint256"
        }
      ],
      "name": "deposit",
      "outputs": [],
      "stateMutability": "nonpayable",
      "type": "function"
    },
    {
      "inputs": [],
      "name": "depositAll",
      "outputs": [],
      "stateMutability": "nonpayable",
      "type": "function"
    },
    {
      "inputs": [],
      "name": "gauge",
      "outputs": [
        {
          "internalType": "address",
          "name": "",
          "type": "address"
        }
      ],
      "stateMutability": "view",
      "type": "function"
    },
    {
      "inputs": [],
      "name": "getRewardTokenAddresses",
      "outputs": [
        {
          "internalType": "address[]",
          "name": "",
          "type": "address[]"
        }
      ],
      "stateMutability": "view",
      "type": "function"
    },
    {
      "inputs": [],
      "name": "governor",
      "outputs": [
        {
          "internalType": "address",
          "name": "",
          "type": "address"
        }
      ],
      "stateMutability": "view",
      "type": "function"
    },
    {
      "inputs": [],
      "name": "harvesterAddress",
      "outputs": [
        {
          "internalType": "address",
          "name": "",
          "type": "address"
        }
      ],
      "stateMutability": "view",
      "type": "function"
    },
    {
      "inputs": [
        {
          "internalType": "address[]",
          "name": "_rewardTokenAddresses",
          "type": "address[]"
        },
        {
          "internalType": "uint256",
          "name": "_maxDepeg",
          "type": "uint256"
        }
      ],
      "name": "initialize",
      "outputs": [],
      "stateMutability": "nonpayable",
      "type": "function"
    },
    {
      "inputs": [],
      "name": "isGovernor",
      "outputs": [
        {
          "internalType": "bool",
          "name": "",
          "type": "bool"
        }
      ],
      "stateMutability": "view",
      "type": "function"
    },
    {
      "inputs": [],
      "name": "maxDepeg",
      "outputs": [
        {
          "internalType": "uint256",
          "name": "",
          "type": "uint256"
        }
      ],
      "stateMutability": "view",
      "type": "function"
    },
    {
      "inputs": [],
      "name": "oToken",
      "outputs": [
        {
          "internalType": "address",
          "name": "",
          "type": "address"
        }
      ],
      "stateMutability": "view",
      "type": "function"
    },
    {
      "inputs": [],
      "name": "oTokenPoolIndex",
      "outputs": [
        {
          "internalType": "uint256",
          "name": "",
          "type": "uint256"
        }
      ],
      "stateMutability": "view",
      "type": "function"
    },
    {
      "inputs": [],
      "name": "platformAddress",
      "outputs": [
        {
          "internalType": "address",
          "name": "",
          "type": "address"
        }
      ],
      "stateMutability": "view",
      "type": "function"
    },
    {
      "inputs": [],
      "name": "pool",
      "outputs": [
        {
          "internalType": "address",
          "name": "",
          "type": "address"
        }
      ],
      "stateMutability": "view",
      "type": "function"
    },
    {
      "inputs": [
        {
          "internalType": "uint256",
          "name": "_assetIndex",
          "type": "uint256"
        }
      ],
      "name": "removePToken",
      "outputs": [],
      "stateMutability": "nonpayable",
      "type": "function"
    },
    {
      "inputs": [
        {
          "internalType": "uint256",
          "name": "",
          "type": "uint256"
        }
      ],
      "name": "rewardTokenAddresses",
      "outputs": [
        {
          "internalType": "address",
          "name": "",
          "type": "address"
        }
      ],
      "stateMutability": "view",
      "type": "function"
    },
    {
      "inputs": [],
      "name": "safeApproveAllTokens",
      "outputs": [],
      "stateMutability": "nonpayable",
      "type": "function"
    },
    {
      "inputs": [
        {
          "internalType": "address",
          "name": "_harvesterAddress",
          "type": "address"
        }
      ],
      "name": "setHarvesterAddress",
      "outputs": [],
      "stateMutability": "nonpayable",
      "type": "function"
    },
    {
      "inputs": [
        {
          "internalType": "uint256",
          "name": "_maxDepeg",
          "type": "uint256"
        }
      ],
      "name": "setMaxDepeg",
      "outputs": [],
      "stateMutability": "nonpayable",
      "type": "function"
    },
    {
      "inputs": [
        {
          "internalType": "address",
          "name": "_asset",
          "type": "address"
        },
        {
          "internalType": "address",
          "name": "_pToken",
          "type": "address"
        }
      ],
      "name": "setPTokenAddress",
      "outputs": [],
      "stateMutability": "nonpayable",
      "type": "function"
    },
    {
      "inputs": [
        {
          "internalType": "address[]",
          "name": "_rewardTokenAddresses",
          "type": "address[]"
        }
      ],
      "name": "setRewardTokenAddresses",
      "outputs": [],
      "stateMutability": "nonpayable",
      "type": "function"
    },
    {
      "inputs": [
        {
          "internalType": "address",
          "name": "_asset",
          "type": "address"
        }
      ],
      "name": "supportsAsset",
      "outputs": [
        {
          "internalType": "bool",
          "name": "",
          "type": "bool"
        }
      ],
      "stateMutability": "view",
      "type": "function"
    },
    {
      "inputs": [
        {
          "internalType": "uint256",
          "name": "_assetAmount",
          "type": "uint256"
        }
      ],
      "name": "swapAssetsToPool",
      "outputs": [],
      "stateMutability": "nonpayable",
      "type": "function"
    },
    {
      "inputs": [
        {
          "internalType": "uint256",
          "name": "_oTokenAmount",
          "type": "uint256"
        }
      ],
      "name": "swapOTokensToPool",
      "outputs": [],
      "stateMutability": "nonpayable",
      "type": "function"
    },
    {
      "inputs": [
        {
          "internalType": "address",
          "name": "_newGovernor",
          "type": "address"
        }
      ],
      "name": "transferGovernance",
      "outputs": [],
      "stateMutability": "nonpayable",
      "type": "function"
    },
    {
      "inputs": [
        {
          "internalType": "address",
          "name": "_asset",
          "type": "address"
        },
        {
          "internalType": "uint256",
          "name": "_amount",
          "type": "uint256"
        }
      ],
      "name": "transferToken",
      "outputs": [],
      "stateMutability": "nonpayable",
      "type": "function"
    },
    {
      "inputs": [],
      "name": "vaultAddress",
      "outputs": [
        {
          "internalType": "address",
          "name": "",
          "type": "address"
        }
      ],
      "stateMutability": "view",
      "type": "function"
    },
    {
      "inputs": [
        {
          "internalType": "address",
          "name": "_recipient",
          "type": "address"
        },
        {
          "internalType": "address",
          "name": "_asset",
          "type": "address"
        },
        {
          "internalType": "uint256",
          "name": "_assetAmount",
          "type": "uint256"
        }
      ],
      "name": "withdraw",
      "outputs": [],
      "stateMutability": "nonpayable",
      "type": "function"
    },
    {
      "inputs": [],
      "name": "withdrawAll",
      "outputs": [],
      "stateMutability": "nonpayable",
      "type": "function"
    }
  ],
  "transactionHash": "0xcead092944736a3005e3d32175f6ca5ce219e1da6d83d2cbc55e9eaa491075a6",
  "args": [
    [
      "0xEB9ebc2dEF5aa715C0CED10749cbdC15Ac27f632",
      "0x98a0CbeF61bD2D21435f433bE4CD42B56B38CC93"
    ],
    "0x762aEFD13Ec33eb916f124E26336a148177eB093"
  ],
  "numDeployments": 1,
  "solcInputHash": "6142d6806db9b5eb75514be09d14ae1f",
  "bytecode": "0x61016060405234801561001157600080fd5b50604051615cd9380380615cd98339810160408190526100309161064e565b8181826001600160a01b03166351ed6a306040518163ffffffff1660e01b8152600401602060405180830381865afa158015610070573d6000803e3d6000fd5b505050506040513d601f19601f8201168201806040525081019061009491906106d7565b82516001600160a01b0390811660805260208085018051831660a0525160408051630d19556b60e11b815290516000949290921692631a32aad6926004808401938290030181865afa1580156100ee573d6000803e3d6000fd5b505050506040513d601f19601f8201168201806040525081019061011291906106d7565b9050600084602001516001600160a01b03166338d52e0f6040518163ffffffff1660e01b8152600401602060405180830381865afa158015610158573d6000803e3d6000fd5b505050506040513d601f19601f8201168201806040525081019061017c91906106d7565b9050806001600160a01b031663313ce5676040518163ffffffff1660e01b8152600401602060405180830381865afa1580156101bc573d6000803e3d6000fd5b505050506040513d601f19601f820116820180604052508101906101e091906106f9565b60ff1660121480156102565750816001600160a01b031663313ce5676040518163ffffffff1660e01b8152600401602060405180830381865afa15801561022b573d6000803e3d6000fd5b505050506040513d601f19601f8201168201806040525081019061024f91906106f9565b60ff166012145b6102a75760405162461bcd60e51b815260206004820152601860248201527f496e636f727265637420746f6b656e20646563696d616c73000000000000000060448201526064015b60405180910390fd5b84600001516001600160a01b03166309047bdd6040518163ffffffff1660e01b8152600401602060405180830381865afa1580156102e9573d6000803e3d6000fd5b505050506040513d601f19601f8201168201806040525081019061030d919061071c565b15156001146103505760405162461bcd60e51b815260206004820152600f60248201526e506f6f6c206e6f7420737461626c6560881b604482015260640161029e565b84516001600160a01b0384811691161461039e5760405162461bcd60e51b815260206004820152600f60248201526e496e636f727265637420676175676560881b604482015260640161029e565b816001600160a01b031685600001516001600160a01b0316630dfe16816040518163ffffffff1660e01b8152600401602060405180830381865afa1580156103ea573d6000803e3d6000fd5b505050506040513d601f19601f8201168201806040525081019061040e91906106d7565b6001600160a01b031614610423576001610426565b60005b60ff166101408190521561043a578061043c565b815b6001600160a01b031685600001516001600160a01b0316630dfe16816040518163ffffffff1660e01b8152600401602060405180830381865afa158015610487573d6000803e3d6000fd5b505050506040513d601f19601f820116820180604052508101906104ab91906106d7565b6001600160a01b0316148015610547575061014051156104cb57816104cd565b805b6001600160a01b031685600001516001600160a01b031663d21220a76040518163ffffffff1660e01b8152600401602060405180830381865afa158015610518573d6000803e3d6000fd5b505050506040513d601f19601f8201168201806040525081019061053c91906106d7565b6001600160a01b0316145b6105935760405162461bcd60e51b815260206004820152601560248201527f496e636f727265637420706f6f6c20746f6b656e730000000000000000000000604482015260640161029e565b6001600160a01b0380831660e05281811660c05285518116610100528416610120526105bf60006105cb565b5050505050505061073e565b6001600160a01b0381166105eb600080516020615cb98339815191525490565b6001600160a01b03167fc7c0c772add429241571afb3805861fb3cfa2af374534088b76cdb4325a87e9a60405160405180910390a3600080516020615cb983398151915255565b80516001600160a01b038116811461064957600080fd5b919050565b600080828403606081121561066257600080fd5b604081121561067057600080fd5b50604080519081016001600160401b03811182821017156106a157634e487b7160e01b600052604160045260246000fd5b6040526106ad84610632565b81526106bb60208501610632565b602082015291506106ce60408401610632565b90509250929050565b6000602082840312156106e957600080fd5b6106f282610632565b9392505050565b60006020828403121561070b57600080fd5b815160ff811681146106f257600080fd5b60006020828403121561072e57600080fd5b815180151581146106f257600080fd5b60805160a05160c05160e051610100516101205161014051615234610a856000396000818161033f01528181613ed001528181613f02015281816141d7015261421501526000818161043d01528181610d6201528181610f86015281816113c20152818161144801528181613a8c01528181613afd01528181613cd001528181613da7015261465f0152600081816102a8015281816107ce015281816108810152818161094001528181610b6b01528181610bdc0152818161110101528181611347015281816117090152818161177a01528181611ae201528181611e1d015281816124bc015281816128af01528181612920015281816129f601528181612aa901528181612b6801528181612d8c01528181612dfd015281816130010152818161329e0152818161387101528181613a5f01528181613b8501528181613c0001528181613c4501528181613e1001528181613e4901528181613fcd0152818161404b0152818161427201528181614334015281816145430152818161459701526145d10152600081816102cf0152818161085501528181610ba3015281816114fd0152818161174101528181611ba401528181611cf801528181611dec01528181612670015281816128e701528181612a7d01528181612dc40152818161312f0152818161316b0152818161326501528181613600015281816140ae015281816140ea01526145750152600081816103180152818161046f015281816105e40152818161091201528181610a8201528181610b3201528181610e8c01528181610ef0015281816111720152818161160401528181611687015281816116d001528181611d1901528181611d550152818161257201528181612776015281816128450152818161287601528181612b3a01528181612cc001528181612d530152818161310e01528181614072015281816141260152818161419e01526145210152600081816103660152818161074601528181610c370152818161126001528181611589015281816116a90152818161198701528181611c8e015281816121f901528181612434015281816125c3015281816126fc0152818161296e01528181612ea6015281816131f701528181613501015261357a0152600061050c01526152346000f3fe608060405234801561001057600080fd5b50600436106102115760003560e01c806367c7066c11610125578063ad1728cb116100ad578063d9caed121161007c578063d9caed12146104f4578063dbe55e5614610507578063de5f62681461052e578063f6ca71b014610536578063fd2816911461054b57600080fd5b8063ad1728cb146104be578063c2e1e3f4146104c6578063c7af3352146104d9578063d38bfff4146104e157600080fd5b8063936bfd2b116100f4578063936bfd2b1461041257806396d538bb14610425578063a6f19c8414610438578063aa388af61461045f578063aaf5eb68146104af57600080fd5b806367c7066c146103d15780637b2d9b2c146103e4578063853828b6146103f75780639136616a146103ff57600080fd5b8063332edd43116101a857806347e7ef241161017757806347e7ef24146103885780635a063f631461039b5780635d36b190146103a35780635f515226146103ab57806360b5bb3f146103be57600080fd5b8063332edd431461030057806338d52e0f146103135780633b70019a1461033a578063430bf08a1461036157600080fd5b806314180efa116101e457806314180efa1461028c57806316f0115b146102a35780631a32aad6146102ca5780631b91d0cc146102f157600080fd5b80630c340a24146102165780630ed57b3a1461023b5780630fc3b4c4146102505780631072cbea14610279575b600080fd5b61021e61055e565b6040516001600160a01b0390911681526020015b60405180910390f35b61024e610249366004614bc9565b61057b565b005b61021e61025e366004614c02565b6035602052600090815260409020546001600160a01b031681565b61024e610287366004614c1f565b6105b6565b610295609d5481565b604051908152602001610232565b61021e7f000000000000000000000000000000000000000000000000000000000000000081565b61021e7f000000000000000000000000000000000000000000000000000000000000000081565b610295670dd99bb65dd7000081565b61024e61030e366004614c4b565b610671565b61021e7f000000000000000000000000000000000000000000000000000000000000000081565b6102957f000000000000000000000000000000000000000000000000000000000000000081565b61021e7f000000000000000000000000000000000000000000000000000000000000000081565b61024e610396366004614c1f565b61073b565b61024e610c21565b61024e610de2565b6102956103b9366004614c02565b610e88565b61024e6103cc366004614cb0565b61101b565b60395461021e906001600160a01b031681565b61021e6103f2366004614c4b565b61122b565b61024e611255565b61024e61040d366004614c4b565b6117ba565b61024e610420366004614c4b565b611985565b61024e610433366004614cfc565b612070565b61021e7f000000000000000000000000000000000000000000000000000000000000000081565b61049f61046d366004614c02565b7f00000000000000000000000000000000000000000000000000000000000000006001600160a01b0390811691161490565b6040519015158152602001610232565b610295670de0b6b3a764000081565b61024e612187565b61024e6104d4366004614c02565b6121e9565b61049f612354565b61024e6104ef366004614c02565b612385565b61024e610502366004614d3e565b612429565b61021e7f000000000000000000000000000000000000000000000000000000000000000081565b61024e612963565b61053e612e42565b6040516102329190614d7f565b61024e610559366004614c4b565b612ea4565b60006105766000805160206151bf8339815191525490565b905090565b610583612354565b6105a85760405162461bcd60e51b815260040161059f90614dcb565b60405180910390fd5b6105b28282613322565b5050565b6105be612354565b6105da5760405162461bcd60e51b815260040161059f90614dcb565b6001600160a01b037f00000000000000000000000000000000000000000000000000000000000000008116908316036106555760405162461bcd60e51b815260206004820152601f60248201527f43616e6e6f74207472616e7366657220737570706f7274656420617373657400604482015260640161059f565b6105b261066061055e565b6001600160a01b0384169083613481565b610679612354565b6106955760405162461bcd60e51b815260040161059f90614dcb565b66038d7ea4c6800081101580156106b4575067016345785d8a00008111155b6107005760405162461bcd60e51b815260206004820152601760248201527f496e76616c6964206d61782064657065672072616e6765000000000000000000604482015260640161059f565b609d8190556040518181527f751b2076684396993691b15336f73e6013600139b240b956be4ec75978b6caf49060200160405180910390a150565b336001600160a01b037f000000000000000000000000000000000000000000000000000000000000000016146107835760405162461bcd60e51b815260040161059f90614e02565b60008051602061519f833981519152805460011981016107b55760405162461bcd60e51b815260040161059f90614e39565b6002825560405163bc25cf7760e01b81523060048201527f00000000000000000000000000000000000000000000000000000000000000006001600160a01b03169063bc25cf7790602401600060405180830381600087803b15801561081a57600080fd5b505af115801561082e573d6000803e3d6000fd5b50506040516378a051ad60e11b8152670de0b6b3a764000060048201526001600160a01b037f000000000000000000000000000000000000000000000000000000000000000081166024830152600093507f000000000000000000000000000000000000000000000000000000000000000016915063f140a35a90604401602060405180830381865afa1580156108c9573d6000803e3d6000fd5b505050506040513d601f19601f820116820180604052508101906108ed9190614e61565b6040516378a051ad60e11b8152670de0b6b3a764000060048201526001600160a01b037f0000000000000000000000000000000000000000000000000000000000000000811660248301529192506000917f0000000000000000000000000000000000000000000000000000000000000000169063f140a35a90604401602060405180830381865afa158015610987573d6000803e3d6000fd5b505050506040513d601f19601f820116820180604052508101906109ab9190614e61565b9050600081116109ef5760405162461bcd60e51b815260206004820152600f60248201526e506f6f6c20646567656e657261746560881b604482015260640161059f565b6000610a0a826ec097ce7bc90715b34b9f1000000000614ea6565b609d54909150670de0b6b3a764000090610a249082614ec8565b8410158015610a3f5750609d54610a3b9082614edb565b8211155b610a805760405162461bcd60e51b81526020600482015260126024820152717072696365206f7574206f662072616e676560701b604482015260640161059f565b7f00000000000000000000000000000000000000000000000000000000000000006001600160a01b0316886001600160a01b031614610ad15760405162461bcd60e51b815260040161059f90614eee565b60008711610b1a5760405162461bcd60e51b81526020600482015260166024820152754d757374206465706f73697420736f6d657468696e6760501b604482015260640161059f565b6000610b25886134dc565b509050610b30613576565b7f00000000000000000000000000000000000000000000000000000000000000006001600160a01b031660008051602061517f8339815191527f00000000000000000000000000000000000000000000000000000000000000008a604051610b99929190614f19565b60405180910390a27f00000000000000000000000000000000000000000000000000000000000000006001600160a01b031660008051602061517f8339815191527f000000000000000000000000000000000000000000000000000000000000000083604051610c0a929190614f19565b60405180910390a250505050506001825550505050565b6039546001600160a01b0316331480610ccc57507f00000000000000000000000000000000000000000000000000000000000000006001600160a01b031663570d8e1d6040518163ffffffff1660e01b8152600401602060405180830381865afa158015610c93573d6000803e3d6000fd5b505050506040513d601f19601f82011682018060405250810190610cb79190614f32565b6001600160a01b0316336001600160a01b0316145b610d2a5760405162461bcd60e51b815260206004820152602960248201527f43616c6c6572206973206e6f742074686520486172766573746572206f7220536044820152681d1c985d1959da5cdd60ba1b606482015260840161059f565b60008051602061519f83398151915280546001198101610d5c5760405162461bcd60e51b815260040161059f90614e39565b600282557f00000000000000000000000000000000000000000000000000000000000000006001600160a01b0316633d18b9126040518163ffffffff1660e01b8152600401600060405180830381600087803b158015610dbb57600080fd5b505af1158015610dcf573d6000803e3d6000fd5b50505050610ddb6136e4565b5060019055565b7f44c4d30b2eaad5130ad70c3ba6972730566f3e6359ab83e800d905c61b1c51db546001600160a01b0316336001600160a01b031614610e7d5760405162461bcd60e51b815260206004820152603060248201527f4f6e6c79207468652070656e64696e6720476f7665726e6f722063616e20636f60448201526f6d706c6574652074686520636c61696d60801b606482015260840161059f565b610e863361380a565b565b60007f00000000000000000000000000000000000000000000000000000000000000006001600160a01b0316826001600160a01b031614610edb5760405162461bcd60e51b815260040161059f90614eee565b6040516370a0823160e01b81523060048201527f00000000000000000000000000000000000000000000000000000000000000006001600160a01b0316906370a0823190602401602060405180830381865afa158015610f3f573d6000803e3d6000fd5b505050506040513d601f19601f82011682018060405250810190610f639190614e61565b6040516370a0823160e01b81523060048201529091506000906001600160a01b037f000000000000000000000000000000000000000000000000000000000000000016906370a0823190602401602060405180830381865afa158015610fcd573d6000803e3d6000fd5b505050506040513d601f19601f82011682018060405250810190610ff19190614e61565b9050806000036110015750919050565b61100a8161386c565b6110149083614edb565b9392505050565b611023612354565b61103f5760405162461bcd60e51b815260040161059f90614dcb565b600054610100900460ff1680611058575060005460ff16155b6110bb5760405162461bcd60e51b815260206004820152602e60248201527f496e697469616c697a61626c653a20636f6e747261637420697320616c72656160448201526d191e481a5b9a5d1a585b1a5e995960921b606482015260840161059f565b600054610100900460ff161580156110dd576000805461ffff19166101011790555b604080516001808252818301909252600091602080830190803683370190505090507f00000000000000000000000000000000000000000000000000000000000000008160008151811061113357611133614f4f565b6001600160a01b0392909216602092830291909101909101526040805160018082528183019092526000918160200160208202803683370190505090507f0000000000000000000000000000000000000000000000000000000000000000816000815181106111a4576111a4614f4f565b60200260200101906001600160a01b031690816001600160a01b0316815250506112048686808060200260200160405190810160405280939291908181526020018383602002808284376000920191909152508592508691506139959050565b609d849055611211613a48565b50508015611225576000805461ff00191690555b50505050565b603a818154811061123b57600080fd5b6000918252602090912001546001600160a01b0316905081565b336001600160a01b037f00000000000000000000000000000000000000000000000000000000000000001614806112a4575061128f61055e565b6001600160a01b0316336001600160a01b0316145b6112fc5760405162461bcd60e51b815260206004820152602360248201527f43616c6c6572206973206e6f7420746865205661756c74206f7220476f7665726044820152623737b960e91b606482015260840161059f565b60008051602061519f8339815191528054600119810161132e5760405162461bcd60e51b815260040161059f90614e39565b6002825560405163bc25cf7760e01b81523060048201527f00000000000000000000000000000000000000000000000000000000000000006001600160a01b03169063bc25cf7790602401600060405180830381600087803b15801561139357600080fd5b505af11580156113a7573d6000803e3d6000fd5b50506040516370a0823160e01b8152306004820152600092507f00000000000000000000000000000000000000000000000000000000000000006001600160a01b031691506370a0823190602401602060405180830381865afa158015611412573d6000803e3d6000fd5b505050506040513d601f19601f820116820180604052508101906114369190614e61565b9050806000036114465750610ddb565b7f00000000000000000000000000000000000000000000000000000000000000006001600160a01b031663caa6fea46040518163ffffffff1660e01b81526004016020604051808303816000875af11580156114a6573d6000803e3d6000fd5b505050506040513d601f19601f820116820180604052508101906114ca9190614f65565b156114dc576114d7613afb565b6114e5565b6114e581613cb9565b6040516370a0823160e01b81523060048201526000907f00000000000000000000000000000000000000000000000000000000000000006001600160a01b0316906370a0823190602401602060405180830381865afa15801561154c573d6000803e3d6000fd5b505050506040513d601f19601f820116820180604052508101906115709190614e61565b60405163310bf9f560e11b8152600481018290529091507f00000000000000000000000000000000000000000000000000000000000000006001600160a01b031690636217f3ea90602401600060405180830381600087803b1580156115d557600080fd5b505af11580156115e9573d6000803e3d6000fd5b50506040516370a0823160e01b8152306004820152600092507f00000000000000000000000000000000000000000000000000000000000000006001600160a01b031691506370a0823190602401602060405180830381865afa158015611654573d6000803e3d6000fd5b505050506040513d601f19601f820116820180604052508101906116789190614e61565b90506116ce6001600160a01b037f0000000000000000000000000000000000000000000000000000000000000000167f000000000000000000000000000000000000000000000000000000000000000083613481565b7f00000000000000000000000000000000000000000000000000000000000000006001600160a01b03166000805160206151df8339815191527f000000000000000000000000000000000000000000000000000000000000000083604051611737929190614f19565b60405180910390a27f00000000000000000000000000000000000000000000000000000000000000006001600160a01b03166000805160206151df8339815191527f0000000000000000000000000000000000000000000000000000000000000000846040516117a8929190614f19565b60405180910390a25050505060019055565b6117c2612354565b6117de5760405162461bcd60e51b815260040161059f90614dcb565b603654811061181f5760405162461bcd60e51b815260206004820152600d60248201526c092dcecc2d8d2c840d2dcc8caf609b1b604482015260640161059f565b60006036828154811061183457611834614f4f565b60009182526020808320909101546001600160a01b0390811680845260359092526040909220546036549193509091169061187190600190614ec8565b8310156118f3576036805461188890600190614ec8565b8154811061189857611898614f4f565b600091825260209091200154603680546001600160a01b0390921691859081106118c4576118c4614f4f565b9060005260206000200160006101000a8154816001600160a01b0302191690836001600160a01b031602179055505b603680548061190457611904614f87565b60008281526020808220600019908401810180546001600160a01b031990811690915593019093556001600160a01b038581168083526035855260409283902080549094169093559051908416815290917f16b7600acff27e39a8a96056b3d533045298de927507f5c1d97e4accde60488c910160405180910390a2505050565b7f00000000000000000000000000000000000000000000000000000000000000006001600160a01b031663570d8e1d6040518163ffffffff1660e01b8152600401602060405180830381865afa1580156119e3573d6000803e3d6000fd5b505050506040513d601f19601f82011682018060405250810190611a079190614f32565b6001600160a01b0316336001600160a01b031614611a675760405162461bcd60e51b815260206004820152601c60248201527f43616c6c6572206973206e6f7420746865205374726174656769737400000000604482015260640161059f565b60008051602061519f83398151915280546001198101611a995760405162461bcd60e51b815260040161059f90614e39565b60028255600080611aa8613e41565b915091506000611ab782613f36565b611ac084613f36565b611aca9190614f9d565b60405163bc25cf7760e01b81523060048201529091507f00000000000000000000000000000000000000000000000000000000000000006001600160a01b03169063bc25cf7790602401600060405180830381600087803b158015611b2e57600080fd5b505af1158015611b42573d6000803e3d6000fd5b5050505060008611611b8c5760405162461bcd60e51b81526020600482015260136024820152724d757374207377617020736f6d657468696e6760681b604482015260640161059f565b6040516370a0823160e01b81523060048201526000907f00000000000000000000000000000000000000000000000000000000000000006001600160a01b0316906370a0823190602401602060405180830381865afa158015611bf3573d6000803e3d6000fd5b505050506040513d601f19601f82011682018060405250810190611c179190614e61565b905080871015611c695760405162461bcd60e51b815260206004820152601b60248201527f546f6f206d756368204f546f6b656e20696e2073747261746567790000000000604482015260640161059f565b6000611c758289614ec8565b60405163ab80dafb60e01b8152600481018290529091507f00000000000000000000000000000000000000000000000000000000000000006001600160a01b03169063ab80dafb90602401600060405180830381600087803b158015611cda57600080fd5b505af1158015611cee573d6000803e3d6000fd5b50505050611d3d887f00000000000000000000000000000000000000000000000000000000000000007f0000000000000000000000000000000000000000000000000000000000000000613fa4565b6040516370a0823160e01b81523060048201526000907f00000000000000000000000000000000000000000000000000000000000000006001600160a01b0316906370a0823190602401602060405180830381865afa158015611da4573d6000803e3d6000fd5b505050506040513d601f19601f82011682018060405250810190611dc89190614e61565b9050600080611dd6836134dc565b91509150611de2613576565b6001600160a01b037f00000000000000000000000000000000000000000000000000000000000000001660008051602061517f8339815191527f0000000000000000000000000000000000000000000000000000000000000000611e468588614edb565b604051611e54929190614f19565b60405180910390a26040805185815260208101859052908101839052606081018290527f5dc2c48aff3a9501b325d0849716390264e71f015d9c2bff72574302ddf19a179060800160405180910390a15050505050600080611eb4613e41565b915091506000611ec382613f36565b611ecc84613f36565b611ed69190614f9d565b905083600003611f33578015611f2e5760405162461bcd60e51b815260206004820152601c60248201527f506f736974696f6e2062616c616e636520697320776f7273656e656400000000604482015260640161059f565b612061565b6000841215611fca576000811315611f835760405162461bcd60e51b8152602060048201526013602482015272417373657473206f76657273686f742070656760681b604482015260640161059f565b808412611f2e5760405162461bcd60e51b81526020600482015260156024820152744f546f6b656e732062616c616e636520776f72736560581b604482015260640161059f565b600084131561206157600081121561201b5760405162461bcd60e51b81526020600482015260146024820152734f546f6b656e73206f76657273686f742070656760601b604482015260640161059f565b8381126120615760405162461bcd60e51b81526020600482015260146024820152734173736574732062616c616e636520776f72736560601b604482015260640161059f565b50505050505060018255505050565b612078612354565b6120945760405162461bcd60e51b815260040161059f90614dcb565b8060005b8181101561213e5760008484838181106120b4576120b4614f4f565b90506020020160208101906120c99190614c02565b6001600160a01b0316036121365760405162461bcd60e51b815260206004820152602e60248201527f43616e206e6f742073657420616e20656d70747920616464726573732061732060448201526d30903932bbb0b932103a37b5b2b760911b606482015260840161059f565b600101612098565b507f04c0b9649497d316554306e53678d5f5f5dbc3a06f97dec13ff4cfe98b986bbc603a848460405161217393929190614fc4565b60405180910390a1611225603a8484614aeb565b61218f612354565b6121ab5760405162461bcd60e51b815260040161059f90614dcb565b60008051602061519f833981519152805460011981016121dd5760405162461bcd60e51b815260040161059f90614e39565b60028255610ddb613a48565b6121f1612354565b8061228e57507f00000000000000000000000000000000000000000000000000000000000000006001600160a01b031663570d8e1d6040518163ffffffff1660e01b8152600401602060405180830381865afa158015612255573d6000803e3d6000fd5b505050506040513d601f19601f820116820180604052508101906122799190614f32565b6001600160a01b0316336001600160a01b0316145b6122eb5760405162461bcd60e51b815260206004820152602860248201527f43616c6c6572206973206e6f74207468652053747261746567697374206f722060448201526723b7bb32b93737b960c11b606482015260840161059f565b603954604080516001600160a01b03928316815291831660208301527fe48386b84419f4d36e0f96c10cc3510b6fb1a33795620c5098b22472bbe90796910160405180910390a1603980546001600160a01b0319166001600160a01b0392909216919091179055565b600061236c6000805160206151bf8339815191525490565b6001600160a01b0316336001600160a01b031614905090565b61238d612354565b6123a95760405162461bcd60e51b815260040161059f90614dcb565b6123d1817f44c4d30b2eaad5130ad70c3ba6972730566f3e6359ab83e800d905c61b1c51db55565b806001600160a01b03166123f16000805160206151bf8339815191525490565b6001600160a01b03167fa39cc5eb22d0f34d8beaefee8a3f17cc229c1a1d1ef87a5ad47313487b1c4f0d60405160405180910390a350565b336001600160a01b037f000000000000000000000000000000000000000000000000000000000000000016146124715760405162461bcd60e51b815260040161059f90614e02565b60008051602061519f833981519152805460011981016124a35760405162461bcd60e51b815260040161059f90614e39565b6002825560405163bc25cf7760e01b81523060048201527f00000000000000000000000000000000000000000000000000000000000000006001600160a01b03169063bc25cf7790602401600060405180830381600087803b15801561250857600080fd5b505af115801561251c573d6000803e3d6000fd5b50505050600083116125705760405162461bcd60e51b815260206004820152601760248201527f4d75737420776974686472617720736f6d657468696e67000000000000000000604482015260640161059f565b7f00000000000000000000000000000000000000000000000000000000000000006001600160a01b0316846001600160a01b0316146125c15760405162461bcd60e51b815260040161059f90614eee565b7f00000000000000000000000000000000000000000000000000000000000000006001600160a01b0316856001600160a01b0316146126425760405162461bcd60e51b815260206004820152601e60248201527f4f6e6c7920776974686472617720746f207661756c7420616c6c6f7765640000604482015260640161059f565b600061264d846142e6565b905061265881613cb9565b6040516370a0823160e01b81523060048201526000907f00000000000000000000000000000000000000000000000000000000000000006001600160a01b0316906370a0823190602401602060405180830381865afa1580156126bf573d6000803e3d6000fd5b505050506040513d601f19601f820116820180604052508101906126e39190614e61565b60405163310bf9f560e11b8152600481018290529091507f00000000000000000000000000000000000000000000000000000000000000006001600160a01b031690636217f3ea90602401600060405180830381600087803b15801561274857600080fd5b505af115801561275c573d6000803e3d6000fd5b50506040516370a0823160e01b81523060048201528792507f00000000000000000000000000000000000000000000000000000000000000006001600160a01b031691506370a0823190602401602060405180830381865afa1580156127c6573d6000803e3d6000fd5b505050506040513d601f19601f820116820180604052508101906127ea9190614e61565b10156128385760405162461bcd60e51b815260206004820152601860248201527f4e6f7420656e6f7567682061737365742072656d6f7665640000000000000000604482015260640161059f565b61286c6001600160a01b037f0000000000000000000000000000000000000000000000000000000000000000168887613481565b612874613576565b7f00000000000000000000000000000000000000000000000000000000000000006001600160a01b03166000805160206151df8339815191527f0000000000000000000000000000000000000000000000000000000000000000876040516128dd929190614f19565b60405180910390a27f00000000000000000000000000000000000000000000000000000000000000006001600160a01b03166000805160206151df8339815191527f00000000000000000000000000000000000000000000000000000000000000008360405161294e929190614f19565b60405180910390a25050600182555050505050565b336001600160a01b037f000000000000000000000000000000000000000000000000000000000000000016146129ab5760405162461bcd60e51b815260040161059f90614e02565b60008051602061519f833981519152805460011981016129dd5760405162461bcd60e51b815260040161059f90614e39565b6002825560405163bc25cf7760e01b81523060048201527f00000000000000000000000000000000000000000000000000000000000000006001600160a01b03169063bc25cf7790602401600060405180830381600087803b158015612a4257600080fd5b505af1158015612a56573d6000803e3d6000fd5b50506040516378a051ad60e11b8152670de0b6b3a764000060048201526001600160a01b037f000000000000000000000000000000000000000000000000000000000000000081166024830152600093507f000000000000000000000000000000000000000000000000000000000000000016915063f140a35a90604401602060405180830381865afa158015612af1573d6000803e3d6000fd5b505050506040513d601f19601f82011682018060405250810190612b159190614e61565b6040516378a051ad60e11b8152670de0b6b3a764000060048201526001600160a01b037f0000000000000000000000000000000000000000000000000000000000000000811660248301529192506000917f0000000000000000000000000000000000000000000000000000000000000000169063f140a35a90604401602060405180830381865afa158015612baf573d6000803e3d6000fd5b505050506040513d601f19601f82011682018060405250810190612bd39190614e61565b905060008111612c175760405162461bcd60e51b815260206004820152600f60248201526e506f6f6c20646567656e657261746560881b604482015260640161059f565b6000612c32826ec097ce7bc90715b34b9f1000000000614ea6565b609d54909150670de0b6b3a764000090612c4c9082614ec8565b8410158015612c675750609d54612c639082614edb565b8211155b612ca85760405162461bcd60e51b81526020600482015260126024820152717072696365206f7574206f662072616e676560701b604482015260640161059f565b6040516370a0823160e01b81523060048201526000907f00000000000000000000000000000000000000000000000000000000000000006001600160a01b0316906370a0823190602401602060405180830381865afa158015612d0f573d6000803e3d6000fd5b505050506040513d601f19601f82011682018060405250810190612d339190614e61565b90508015612e35576000612d46826134dc565b509050612d51613576565b7f00000000000000000000000000000000000000000000000000000000000000006001600160a01b031660008051602061517f8339815191527f000000000000000000000000000000000000000000000000000000000000000084604051612dba929190614f19565b60405180910390a27f00000000000000000000000000000000000000000000000000000000000000006001600160a01b031660008051602061517f8339815191527f000000000000000000000000000000000000000000000000000000000000000083604051612e2b929190614f19565b60405180910390a2505b5050505050600182555050565b6060603a805480602002602001604051908101604052809291908181526020018280548015612e9a57602002820191906000526020600020905b81546001600160a01b03168152600190910190602001808311612e7c575b5050505050905090565b7f00000000000000000000000000000000000000000000000000000000000000006001600160a01b031663570d8e1d6040518163ffffffff1660e01b8152600401602060405180830381865afa158015612f02573d6000803e3d6000fd5b505050506040513d601f19601f82011682018060405250810190612f269190614f32565b6001600160a01b0316336001600160a01b031614612f865760405162461bcd60e51b815260206004820152601c60248201527f43616c6c6572206973206e6f7420746865205374726174656769737400000000604482015260640161059f565b60008051602061519f83398151915280546001198101612fb85760405162461bcd60e51b815260040161059f90614e39565b60028255600080612fc7613e41565b915091506000612fd682613f36565b612fdf84613f36565b612fe99190614f9d565b60405163bc25cf7760e01b81523060048201529091507f00000000000000000000000000000000000000000000000000000000000000006001600160a01b03169063bc25cf7790602401600060405180830381600087803b15801561304d57600080fd5b505af1158015613061573d6000803e3d6000fd5b50505050600086116130ab5760405162461bcd60e51b81526020600482015260136024820152724d757374207377617020736f6d657468696e6760681b604482015260640161059f565b60006130b6876142e6565b9050600081116130ff5760405162461bcd60e51b81526020600482015260146024820152732737902628103a37b5b2b739903a3790313ab93760611b604482015260640161059f565b61310881613cb9565b613153877f00000000000000000000000000000000000000000000000000000000000000007f0000000000000000000000000000000000000000000000000000000000000000613fa4565b6040516370a0823160e01b81523060048201526000907f00000000000000000000000000000000000000000000000000000000000000006001600160a01b0316906370a0823190602401602060405180830381865afa1580156131ba573d6000803e3d6000fd5b505050506040513d601f19601f820116820180604052508101906131de9190614e61565b60405163310bf9f560e11b8152600481018290529091507f00000000000000000000000000000000000000000000000000000000000000006001600160a01b031690636217f3ea90602401600060405180830381600087803b15801561324357600080fd5b505af1158015613257573d6000803e3d6000fd5b50505050613263613576565b7f00000000000000000000000000000000000000000000000000000000000000006001600160a01b03166000805160206151df8339815191527f0000000000000000000000000000000000000000000000000000000000000000836040516132cc929190614f19565b60405180910390a260408051898152602081018490529081018290527f03584ea52c244b3d91731a63525b7b17ce30252926bfca52eb9db9f3e644ccf99060600160405180910390a15050600080611eb4613e41565b6001600160a01b03828116600090815260356020526040902054161561337f5760405162461bcd60e51b81526020600482015260126024820152711c151bdad95b88185b1c9958591e481cd95d60721b604482015260640161059f565b6001600160a01b0382161580159061339f57506001600160a01b03811615155b6133df5760405162461bcd60e51b8152602060048201526011602482015270496e76616c69642061646472657373657360781b604482015260640161059f565b6001600160a01b03828116600081815260356020908152604080832080549587166001600160a01b031996871681179091556036805460018101825594527f4a11f94e20a93c79f6ec743a1954ec4fc2c08429ae2122118bf234b2185c81b890930180549095168417909455925190815290917fef6485b84315f9b1483beffa32aae9a0596890395e3d7521f1c5fbb51790e765910160405180910390a25050565b6134d78363a9059cbb60e01b84846040516024016134a0929190614f19565b60408051601f198184030181529190526020810180516001600160e01b03166001600160e01b0319909316929092179091526143d5565b505050565b6000806134e8836144a7565b60405163ab80dafb60e01b8152600481018290529092507f00000000000000000000000000000000000000000000000000000000000000006001600160a01b03169063ab80dafb90602401600060405180830381600087803b15801561354d57600080fd5b505af1158015613561573d6000803e3d6000fd5b5050505061356f8383614512565b9050915091565b60007f00000000000000000000000000000000000000000000000000000000000000006001600160a01b031663d4c3eea06040518163ffffffff1660e01b8152600401602060405180830381865afa1580156135d6573d6000803e3d6000fd5b505050506040513d601f19601f820116820180604052508101906135fa9190614e61565b905060007f00000000000000000000000000000000000000000000000000000000000000006001600160a01b03166318160ddd6040518163ffffffff1660e01b8152600401602060405180830381865afa15801561365c573d6000803e3d6000fd5b505050506040513d601f19601f820116820180604052508101906136809190614e61565b90506000811180156136a25750670dd99bb65dd700006136a083836146c9565b105b156105b25760405162461bcd60e51b8152602060048201526012602482015271141c9bdd1bd8dbdb081a5b9cdbdb1d995b9d60721b604482015260640161059f565b6039546001600160a01b03166136f657565b603a5460005b818110156105b2576000603a828154811061371957613719614f4f565b60009182526020822001546040516370a0823160e01b81523060048201526001600160a01b03909116925082906370a0823190602401602060405180830381865afa15801561376c573d6000803e3d6000fd5b505050506040513d601f19601f820116820180604052508101906137909190614e61565b9050801561380057603954604080516001600160a01b039283168152918416602083015281018290527ff6c07a063ed4e63808eb8da7112d46dbcd38de2b40a73dbcc9353c5a94c723539060600160405180910390a1603954613800906001600160a01b03848116911683613481565b50506001016136fc565b6001600160a01b0381166138605760405162461bcd60e51b815260206004820152601a60248201527f4e657720476f7665726e6f722069732061646472657373283029000000000000604482015260640161059f565b613869816146f4565b50565b6000807f00000000000000000000000000000000000000000000000000000000000000006001600160a01b03166318160ddd6040518163ffffffff1660e01b8152600401602060405180830381865afa1580156138cd573d6000803e3d6000fd5b505050506040513d601f19601f820116820180604052508101906138f19190614e61565b9050806000036139045750600092915050565b60008061390f613e41565b91509150600061391f838361475b565b90506000613949600261393a84670de0b6b3a764000061505f565b6139449190614ea6565b6147eb565b9050600061396261394483670de0b6b3a764000061505f565b9050600061397182600261505f565b90508661397e828b61505f565b6139889190614ea6565b9998505050505050505050565b82516139a890603a906020860190614b4a565b508151815181146139f25760405162461bcd60e51b8152602060048201526014602482015273496e76616c696420696e7075742061727261797360601b604482015260640161059f565b60005b81811015613a4157613a39848281518110613a1257613a12614f4f565b6020026020010151848381518110613a2c57613a2c614f4f565b6020026020010151613322565b6001016139f5565b5050505050565b60405163095ea7b360e01b81526001600160a01b037f0000000000000000000000000000000000000000000000000000000000000000169063095ea7b390613ab8907f00000000000000000000000000000000000000000000000000000000000000009060001990600401614f19565b6020604051808303816000875af1158015613ad7573d6000803e3d6000fd5b505050506040513d601f19601f820116820180604052508101906138699190614f65565b7f00000000000000000000000000000000000000000000000000000000000000006001600160a01b031663db2e21bc6040518163ffffffff1660e01b8152600401600060405180830381600087803b158015613b5657600080fd5b505af1158015613b6a573d6000803e3d6000fd5b50506040516370a0823160e01b8152306004820152600092507f00000000000000000000000000000000000000000000000000000000000000006001600160a01b031691506370a0823190602401602060405180830381865afa158015613bd5573d6000803e3d6000fd5b505050506040513d601f19601f82011682018060405250810190613bf99190614e61565b9050613c307f00000000000000000000000000000000000000000000000000000000000000006001600160a01b0381169083613481565b60405163226bf2d160e21b81523060048201527f00000000000000000000000000000000000000000000000000000000000000006001600160a01b0316906389afcb449060240160408051808303816000875af1158015613c95573d6000803e3d6000fd5b505050506040513d601f19601f820116820180604052508101906134d79190615076565b6040516370a0823160e01b815230600482015281907f00000000000000000000000000000000000000000000000000000000000000006001600160a01b0316906370a0823190602401602060405180830381865afa158015613d1f573d6000803e3d6000fd5b505050506040513d601f19601f82011682018060405250810190613d439190614e61565b1015613d915760405162461bcd60e51b815260206004820152601d60248201527f4e6f7420656e6f756768204c5020746f6b656e7320696e206761756765000000604482015260640161059f565b604051632e1a7d4d60e01b8152600481018290527f00000000000000000000000000000000000000000000000000000000000000006001600160a01b031690632e1a7d4d90602401600060405180830381600087803b158015613df357600080fd5b505af1158015613e07573d6000803e3d6000fd5b50613c309250507f00000000000000000000000000000000000000000000000000000000000000006001600160a01b038116915083613481565b6000806000807f00000000000000000000000000000000000000000000000000000000000000006001600160a01b0316630902f1ac6040518163ffffffff1660e01b8152600401606060405180830381865afa158015613ea5573d6000803e3d6000fd5b505050506040513d601f19601f82011682018060405250810190613ec9919061509a565b50915091507f0000000000000000000000000000000000000000000000000000000000000000600014613efc5781613efe565b805b93507f000000000000000000000000000000000000000000000000000000000000000015613f2c5780613f2e565b815b925050509091565b60006001600160ff1b03821115613fa05760405162461bcd60e51b815260206004820152602860248201527f53616665436173743a2076616c756520646f65736e27742066697420696e2061604482015267371034b73a191a9b60c11b606482015260840161059f565b5090565b6040516378a051ad60e11b8152600481018490526001600160a01b0383811660248301526000917f00000000000000000000000000000000000000000000000000000000000000009091169063f140a35a90604401602060405180830381865afa158015614016573d6000803e3d6000fd5b505050506040513d601f19601f8201168201806040525081019061403a9190614e61565b90506140706001600160a01b0384167f000000000000000000000000000000000000000000000000000000000000000086613481565b7f00000000000000000000000000000000000000000000000000000000000000006001600160a01b0316836001600160a01b03161480156140e257507f00000000000000000000000000000000000000000000000000000000000000006001600160a01b0316826001600160a01b0316145b8061415a57507f00000000000000000000000000000000000000000000000000000000000000006001600160a01b0316836001600160a01b031614801561415a57507f00000000000000000000000000000000000000000000000000000000000000006001600160a01b0316826001600160a01b0316145b6141995760405162461bcd60e51b815260206004820152601060248201526f0556e737570706f7274656420737761760841b604482015260640161059f565b6000807f00000000000000000000000000000000000000000000000000000000000000006001600160a01b0316856001600160a01b031603614213577f00000000000000000000000000000000000000000000000000000000000000006000036142085750819050600061424d565b50600090508161424d565b7f00000000000000000000000000000000000000000000000000000000000000006000036142465750600090508161424d565b5081905060005b6040805160008152602081019182905263022c0d9f60e01b9091526001600160a01b037f0000000000000000000000000000000000000000000000000000000000000000169063022c0d9f906142ac9085908590309060248101615118565b600060405180830381600087803b1580156142c657600080fd5b505af11580156142da573d6000803e3d6000fd5b50505050505050505050565b6000806142f1613e41565b509050600081116143315760405162461bcd60e51b815260206004820152600a602482015269115b5c1d1e481c1bdbdb60b21b604482015260640161059f565b807f00000000000000000000000000000000000000000000000000000000000000006001600160a01b03166318160ddd6040518163ffffffff1660e01b8152600401602060405180830381865afa158015614390573d6000803e3d6000fd5b505050506040513d601f19601f820116820180604052508101906143b49190614e61565b6143be908561505f565b6143c89190614ea6565b9150611014600183614edb565b600061442a826040518060400160405280602081526020017f5361666545524332303a206c6f772d6c6576656c2063616c6c206661696c6564815250856001600160a01b03166149639092919063ffffffff16565b8051909150156134d757808060200190518101906144489190614f65565b6134d75760405162461bcd60e51b815260206004820152602a60248201527f5361666545524332303a204552433230206f7065726174696f6e20646964206e6044820152691bdd081cdd58d8d9595960b21b606482015260840161059f565b60008060006144b4613e41565b91509150600082116144f55760405162461bcd60e51b815260206004820152600a602482015269115b5c1d1e481c1bdbdb60b21b604482015260640161059f565b81614500828661505f565b61450a9190614ea6565b949350505050565b60006145686001600160a01b037f0000000000000000000000000000000000000000000000000000000000000000167f000000000000000000000000000000000000000000000000000000000000000085613481565b6145bc6001600160a01b037f0000000000000000000000000000000000000000000000000000000000000000167f000000000000000000000000000000000000000000000000000000000000000084613481565b6040516335313c2160e11b81523060048201527f00000000000000000000000000000000000000000000000000000000000000006001600160a01b031690636a627842906024016020604051808303816000875af1158015614622573d6000803e3d6000fd5b505050506040513d601f19601f820116820180604052508101906146469190614e61565b60405163b6b55f2560e01b8152600481018290529091507f00000000000000000000000000000000000000000000000000000000000000006001600160a01b03169063b6b55f2590602401600060405180830381600087803b1580156146ab57600080fd5b505af11580156146bf573d6000803e3d6000fd5b5050505092915050565b6000806146de84670de0b6b3a7640000614972565b90506146ea818461497e565b9150505b92915050565b806001600160a01b03166147146000805160206151bf8339815191525490565b6001600160a01b03167fc7c0c772add429241571afb3805861fb3cfa2af374534088b76cdb4325a87e9a60405160405180910390a36000805160206151bf83398151915255565b600080670de0b6b3a7640000614771848661505f565b61477b9190614ea6565b90506000670de0b6b3a7640000614792858061505f565b61479c9190614ea6565b670de0b6b3a76400006147af878061505f565b6147b99190614ea6565b6147c39190614edb565b9050670de0b6b3a76400006147d8828461505f565b6147e29190614ea6565b95945050505050565b6000816000036147fd57506000919050565b50600181600160801b81106148175760409190911b9060801c5b6801000000000000000081106148325760209190911b9060401c5b64010000000081106148495760109190911b9060201c5b62010000811061485e5760089190911b9060101c5b61010081106148725760049190911b9060081c5b601081106148855760029190911b9060041c5b6004811061489557600182901b91505b60018284816148a6576148a6614e7a565b048301901c915060018284816148be576148be614e7a565b048301901c915060018284816148d6576148d6614e7a565b048301901c915060018284816148ee576148ee614e7a565b048301901c9150600182848161490657614906614e7a565b048301901c9150600182848161491e5761491e614e7a565b048301901c9150600182848161493657614936614e7a565b048301901c9150600082848161494e5761494e614e7a565b04905080831061495c578092505b5050919050565b606061450a848460008561498a565b6000611014828461505f565b60006110148284614ea6565b6060824710156149eb5760405162461bcd60e51b815260206004820152602660248201527f416464726573733a20696e73756666696369656e742062616c616e636520666f6044820152651c8818d85b1b60d21b606482015260840161059f565b843b614a395760405162461bcd60e51b815260206004820152601d60248201527f416464726573733a2063616c6c20746f206e6f6e2d636f6e7472616374000000604482015260640161059f565b600080866001600160a01b03168587604051614a55919061514f565b60006040518083038185875af1925050503d8060008114614a92576040519150601f19603f3d011682016040523d82523d6000602084013e614a97565b606091505b5091509150614aa7828286614ab2565b979650505050505050565b60608315614ac1575081611014565b825115614ad15782518084602001fd5b8160405162461bcd60e51b815260040161059f919061516b565b828054828255906000526020600020908101928215614b3e579160200282015b82811115614b3e5781546001600160a01b0319166001600160a01b03843516178255602090920191600190910190614b0b565b50613fa0929150614b9f565b828054828255906000526020600020908101928215614b3e579160200282015b82811115614b3e57825182546001600160a01b0319166001600160a01b03909116178255602090920191600190910190614b6a565b5b80821115613fa05760008155600101614ba0565b6001600160a01b038116811461386957600080fd5b60008060408385031215614bdc57600080fd5b8235614be781614bb4565b91506020830135614bf781614bb4565b809150509250929050565b600060208284031215614c1457600080fd5b813561101481614bb4565b60008060408385031215614c3257600080fd5b8235614c3d81614bb4565b946020939093013593505050565b600060208284031215614c5d57600080fd5b5035919050565b60008083601f840112614c7657600080fd5b50813567ffffffffffffffff811115614c8e57600080fd5b6020830191508360208260051b8501011115614ca957600080fd5b9250929050565b600080600060408486031215614cc557600080fd5b833567ffffffffffffffff811115614cdc57600080fd5b614ce886828701614c64565b909790965060209590950135949350505050565b60008060208385031215614d0f57600080fd5b823567ffffffffffffffff811115614d2657600080fd5b614d3285828601614c64565b90969095509350505050565b600080600060608486031215614d5357600080fd5b8335614d5e81614bb4565b92506020840135614d6e81614bb4565b929592945050506040919091013590565b602080825282518282018190526000918401906040840190835b81811015614dc05783516001600160a01b0316835260209384019390920191600101614d99565b509095945050505050565b6020808252601a908201527f43616c6c6572206973206e6f742074686520476f7665726e6f72000000000000604082015260600190565b60208082526017908201527f43616c6c6572206973206e6f7420746865205661756c74000000000000000000604082015260600190565b6020808252600e908201526d1499595b9d1c985b9d0818d85b1b60921b604082015260600190565b600060208284031215614e7357600080fd5b5051919050565b634e487b7160e01b600052601260045260246000fd5b634e487b7160e01b600052601160045260246000fd5b600082614ec357634e487b7160e01b600052601260045260246000fd5b500490565b818103818111156146ee576146ee614e90565b808201808211156146ee576146ee614e90565b602080825260119082015270155b9cdd5c1c1bdc9d195908185cdcd95d607a1b604082015260600190565b6001600160a01b03929092168252602082015260400190565b600060208284031215614f4457600080fd5b815161101481614bb4565b634e487b7160e01b600052603260045260246000fd5b600060208284031215614f7757600080fd5b8151801515811461101457600080fd5b634e487b7160e01b600052603160045260246000fd5b8181036000831280158383131683831282161715614fbd57614fbd614e90565b5092915050565b6040808252845490820181905260008581526020812090916060840190835b8181101561500a5783546001600160a01b0316835260019384019360209093019201614fe3565b50508381036020808601919091528582520190508460005b8581101561505357813561503581614bb4565b6001600160a01b031683526020928301929190910190600101615022565b50909695505050505050565b80820281158282048414176146ee576146ee614e90565b6000806040838503121561508957600080fd5b505080516020909101519092909150565b6000806000606084860312156150af57600080fd5b5050815160208301516040909301519094929350919050565b60005b838110156150e35781810151838201526020016150cb565b50506000910152565b600081518084526151048160208601602086016150c8565b601f01601f19169290920160200192915050565b84815283602082015260018060a01b038316604082015260806060820152600061514560808301846150ec565b9695505050505050565b600082516151618184602087016150c8565b9190910192915050565b60208152600061101460208301846150ec56fe5548c837ab068cf56a2c2479df0882a4922fd203edb7517321831d95078c5f6253bf423e48ed90e97d02ab0ebab13b2a235a6bfbe9c321847d5c175333ac45357bea13895fa79d2831e0a9e28edede30099005a50d652d8957cf8a607ee6ca4a2717ead6b9200dd235aad468c9809ea400fe33ac69b5bfaa6d3e90fc922b6398a26469706673582212209a2b4e3c46f7ab3233bee73e4d14fe34f3b732682ea68888b16c78d4c5fcab3464736f6c634300081c00337bea13895fa79d2831e0a9e28edede30099005a50d652d8957cf8a607ee6ca4a",
  "libraries": {},
  "devdoc": {
    "kind": "dev",
    "methods": {
      "checkBalance(address)": {
        "params": {
          "_asset": "Address of the asset token"
        },
        "returns": {
          "balance": "   Total value in asset."
        }
      },
      "constructor": {
        "params": {
          "_baseConfig": "The `platformAddress` is the address of the Hydrex superOETHb/WETH pool. The `vaultAddress` is the address of the OETHBase Vault.",
          "_gauge": "Address of the Hydrex gauge for the pool. Hydrex GaugeV2        (>= v2.5) renamed `TOKEN()` to `stakeToken()`, which is what we        resolve here and forward to the parent."
        }
      },
      "deposit(address,uint256)": {
        "details": "This tx must be wrapped by the VaultValueChecker. To minimize loses, the pool should be rebalanced before depositing. The pool's oToken/asset price must be within the maxDepeg range.",
        "params": {
          "_asset": "Address of asset token.",
          "_assetAmount": "Amount of asset tokens to deposit."
        }
      },
      "depositAll()": {
        "details": "This tx must be wrapped by the VaultValueChecker. To minimize loses, the pool should be rebalanced before depositing. The pool's oToken/asset price must be within the maxDepeg range."
      },
      "getRewardTokenAddresses()": {
        "returns": {
          "_0": "address[] the reward token addresses."
        }
      },
      "initialize(address[],uint256)": {
        "params": {
          "_maxDepeg": "The max amount the OToken/asset price can deviate from peg (1e18) before deposits are reverted.",
          "_rewardTokenAddresses": "Array containing SWPx token address"
        }
      },
      "removePToken(uint256)": {
        "params": {
          "_assetIndex": "Index of the asset to be removed"
        }
      },
      "setHarvesterAddress(address)": {
        "params": {
          "_harvesterAddress": "Address of the harvester contract."
        }
      },
      "setMaxDepeg(uint256)": {
        "params": {
          "_maxDepeg": "the OToken/asset price from peg (1e18) in 18 decimals. eg 0.01e18 or 1e16 is 1% which is 100 basis points."
        }
      },
      "setPTokenAddress(address,address)": {
        "params": {
          "_asset": "Address for the asset",
          "_pToken": "Address for the corresponding platform token"
        }
      },
      "setRewardTokenAddresses(address[])": {
        "params": {
          "_rewardTokenAddresses": "Array of reward token addresses"
        }
      },
      "supportsAsset(address)": {
        "params": {
          "_asset": "Address of the asset"
        }
      },
      "swapAssetsToPool(uint256)": {
        "params": {
          "_assetAmount": "Amount of asset tokens to swap into the pool."
        }
      },
      "swapOTokensToPool(uint256)": {
        "params": {
          "_oTokenAmount": "Amount of OToken to swap into the pool."
        }
      },
      "transferGovernance(address)": {
        "params": {
          "_newGovernor": "Address of the new Governor"
        }
      },
      "transferToken(address,uint256)": {
        "params": {
          "_amount": "Amount of the asset to transfer",
          "_asset": "Address for the asset"
        }
      },
      "withdraw(address,address,uint256)": {
        "params": {
          "_asset": "Address of the asset token.",
          "_assetAmount": "Amount of asset tokens to withdraw.",
          "_recipient": "Address of the Vault."
        }
      },
      "withdrawAll()": {
        "details": "There is no solvency check here as withdrawAll can be called to quickly secure assets to the Vault in emergencies."
      }
    },
    "version": 1
  },
  "userdoc": {
    "kind": "user",
    "methods": {
      "PRECISION()": {
        "notice": "Precision for the Algebra Stable AMM (sAMM) invariant k."
      },
      "SOLVENCY_THRESHOLD()": {
        "notice": "a threshold under which the contract no longer allows for the protocol to manually rebalance.      Guarding against a strategist / guardian being taken over and with multiple transactions      draining the protocol funds."
      },
      "asset()": {
        "notice": "Address of the asset (non OToken) token contract"
      },
      "assetToPToken(address)": {
        "notice": "asset => pToken (Platform Specific Token Address)"
      },
      "checkBalance(address)": {
        "notice": "Get the asset value of assets in the strategy and Algebra pool. The value of the assets in the pool is calculated assuming the pool is balanced. This way the value can not be manipulated by changing the pool's token balances."
      },
      "claimGovernance()": {
        "notice": "Claim Governance of the contract to a new account (`newGovernor`). Can only be called by the new Governor."
      },
      "collectRewardTokens()": {
        "notice": "Collect accumulated SWPx (and other) rewards and send to the Harvester."
      },
      "deposit(address,uint256)": {
        "notice": "Deposit an amount of asset into the Algebra pool. Mint OToken in proportion to the pool's asset and OToken reserves, transfer asset and OToken to the pool, mint the pool's LP token and deposit in the gauge."
      },
      "depositAll()": {
        "notice": "Deposit all the strategy's asset tokens into the Algebra pool. Mint OToken in proportion to the pool's asset and OToken reserves, transfer asset and OToken to the pool, mint the pool's LP token and deposit in the gauge."
      },
      "gauge()": {
        "notice": "Address of the Algebra Gauge contract."
      },
      "getRewardTokenAddresses()": {
        "notice": "Get the reward token addresses."
      },
      "governor()": {
        "notice": "Returns the address of the current Governor."
      },
      "harvesterAddress()": {
        "notice": "Address of the Harvester contract allowed to collect reward tokens"
      },
      "initialize(address[],uint256)": {
        "notice": "Initializer for setting up strategy internal state. This overrides the InitializableAbstractStrategy initializer as Algebra strategies don't fit well within that abstraction."
      },
      "isGovernor()": {
        "notice": "Returns true if the caller is the current Governor."
      },
      "maxDepeg()": {
        "notice": "The max amount the OToken/asset price can deviate from peg (1e18) before deposits are reverted scaled to 18 decimals. eg 0.01e18 or 1e16 is 1% which is 100 basis points. This is the amount below and above peg so a 50 basis point deviation (0.005e18) allows a price range from 0.995 to 1.005."
      },
      "oToken()": {
        "notice": "Address of the OToken token contract."
      },
      "oTokenPoolIndex()": {
        "notice": "Index of the OToken in the Algebra pool."
      },
      "platformAddress()": {
        "notice": "Address of the underlying platform"
      },
      "pool()": {
        "notice": "Address of the Algebra Stable pool contract."
      },
      "removePToken(uint256)": {
        "notice": "Remove a supported asset by passing its index.      This method can only be called by the system Governor"
      },
      "rewardTokenAddresses(uint256)": {
        "notice": "Address of the reward tokens. eg CRV, BAL, CVX, AURA"
      },
      "safeApproveAllTokens()": {
        "notice": "Approve the spending of all assets by their corresponding pool tokens,      if for some reason is it necessary."
      },
      "setHarvesterAddress(address)": {
        "notice": "Set the Harvester contract that can collect rewards."
      },
      "setMaxDepeg(uint256)": {
        "notice": "Set the maximum deviation from the OToken/asset peg (1e18) before deposits are reverted."
      },
      "setPTokenAddress(address,address)": {
        "notice": "Provide support for asset by passing its pToken address.      This method can only be called by the system Governor"
      },
      "setRewardTokenAddresses(address[])": {
        "notice": "Set the reward token addresses. Any old addresses will be overwritten."
      },
      "supportsAsset(address)": {
        "notice": "Returns bool indicating whether asset is supported by strategy"
      },
      "swapAssetsToPool(uint256)": {
        "notice": "Used when there is more OToken than asset in the pool. asset and OToken is removed from the pool, the received asset is swapped for OToken and the left over OToken in the strategy is burnt. The OToken/asset price is < 1.0 so OToken is being bought at a discount."
      },
      "swapOTokensToPool(uint256)": {
        "notice": "Used when there is more asset than OToken in the pool. OToken is minted and swapped for asset against the pool, more OToken is minted and added back into the pool with the swapped out asset. The OToken/asset price is > 1.0 so OToken is being sold at a premium."
      },
      "transferGovernance(address)": {
        "notice": "Transfers Governance of the contract to a new account (`newGovernor`). Can only be called by the current Governor. Must be claimed for this to complete"
      },
      "transferToken(address,uint256)": {
        "notice": "Transfer token to governor. Intended for recovering tokens stuck in      strategy contracts, i.e. mistaken sends."
      },
      "vaultAddress()": {
        "notice": "Address of the OToken vault"
      },
      "withdraw(address,address,uint256)": {
        "notice": "Withdraw asset and OToken from the Algebra pool, burn the OToken, and transfer the asset to the recipient."
      },
      "withdrawAll()": {
        "notice": "Withdraw all pool LP tokens from the gauge, remove all asset and OToken from the Algebra pool, burn all the OToken, and transfer all the asset to the Vault contract."
      }
    },
    "version": 1
  },
  "storageLayout": {
    "storage": [
      {
        "astId": 5998,
        "contract": "contracts/strategies/hydrex/OETHbHydrexAMOStrategy.sol:OETHbHydrexAMOStrategy",
        "label": "initialized",
        "offset": 0,
        "slot": "0",
        "type": "t_bool"
      },
      {
        "astId": 6001,
        "contract": "contracts/strategies/hydrex/OETHbHydrexAMOStrategy.sol:OETHbHydrexAMOStrategy",
        "label": "initializing",
        "offset": 1,
        "slot": "0",
        "type": "t_bool"
      },
      {
        "astId": 6041,
        "contract": "contracts/strategies/hydrex/OETHbHydrexAMOStrategy.sol:OETHbHydrexAMOStrategy",
        "label": "______gap",
        "offset": 0,
        "slot": "1",
        "type": "t_array(t_uint256)50_storage"
      },
      {
        "astId": 6121,
        "contract": "contracts/strategies/hydrex/OETHbHydrexAMOStrategy.sol:OETHbHydrexAMOStrategy",
        "label": "_deprecated_platformAddress",
        "offset": 0,
        "slot": "51",
        "type": "t_address"
      },
      {
        "astId": 6124,
        "contract": "contracts/strategies/hydrex/OETHbHydrexAMOStrategy.sol:OETHbHydrexAMOStrategy",
        "label": "_deprecated_vaultAddress",
        "offset": 0,
        "slot": "52",
        "type": "t_address"
      },
      {
        "astId": 6129,
        "contract": "contracts/strategies/hydrex/OETHbHydrexAMOStrategy.sol:OETHbHydrexAMOStrategy",
        "label": "assetToPToken",
        "offset": 0,
        "slot": "53",
        "type": "t_mapping(t_address,t_address)"
      },
      {
        "astId": 6133,
        "contract": "contracts/strategies/hydrex/OETHbHydrexAMOStrategy.sol:OETHbHydrexAMOStrategy",
        "label": "assetsMapped",
        "offset": 0,
        "slot": "54",
        "type": "t_array(t_address)dyn_storage"
      },
      {
        "astId": 6135,
        "contract": "contracts/strategies/hydrex/OETHbHydrexAMOStrategy.sol:OETHbHydrexAMOStrategy",
        "label": "_deprecated_rewardTokenAddress",
        "offset": 0,
        "slot": "55",
        "type": "t_address"
      },
      {
        "astId": 6137,
        "contract": "contracts/strategies/hydrex/OETHbHydrexAMOStrategy.sol:OETHbHydrexAMOStrategy",
        "label": "_deprecated_rewardLiquidationThreshold",
        "offset": 0,
        "slot": "56",
        "type": "t_uint256"
      },
      {
        "astId": 6140,
        "contract": "contracts/strategies/hydrex/OETHbHydrexAMOStrategy.sol:OETHbHydrexAMOStrategy",
        "label": "harvesterAddress",
        "offset": 0,
        "slot": "57",
        "type": "t_address"
      },
      {
        "astId": 6144,
        "contract": "contracts/strategies/hydrex/OETHbHydrexAMOStrategy.sol:OETHbHydrexAMOStrategy",
        "label": "rewardTokenAddresses",
        "offset": 0,
        "slot": "58",
        "type": "t_array(t_address)dyn_storage"
      },
      {
        "astId": 6148,
        "contract": "contracts/strategies/hydrex/OETHbHydrexAMOStrategy.sol:OETHbHydrexAMOStrategy",
        "label": "_reserved",
        "offset": 0,
        "slot": "59",
        "type": "t_array(t_int256)98_storage"
      },
      {
        "astId": 2603,
        "contract": "contracts/strategies/hydrex/OETHbHydrexAMOStrategy.sol:OETHbHydrexAMOStrategy",
        "label": "maxDepeg",
        "offset": 0,
        "slot": "157",
        "type": "t_uint256"
      }
    ],
    "types": {
      "t_address": {
        "encoding": "inplace",
        "label": "address",
        "numberOfBytes": "20"
      },
      "t_array(t_address)dyn_storage": {
        "base": "t_address",
        "encoding": "dynamic_array",
        "label": "address[]",
        "numberOfBytes": "32"
      },
      "t_array(t_int256)98_storage": {
        "base": "t_int256",
        "encoding": "inplace",
        "label": "int256[98]",
        "numberOfBytes": "3136"
      },
      "t_array(t_uint256)50_storage": {
        "base": "t_uint256",
        "encoding": "inplace",
        "label": "uint256[50]",
        "numberOfBytes": "1600"
      },
      "t_bool": {
        "encoding": "inplace",
        "label": "bool",
        "numberOfBytes": "1"
      },
      "t_int256": {
        "encoding": "inplace",
        "label": "int256",
        "numberOfBytes": "32"
      },
      "t_mapping(t_address,t_address)": {
        "encoding": "mapping",
        "key": "t_address",
        "label": "mapping(address => address)",
        "numberOfBytes": "32",
        "value": "t_address"
      },
      "t_uint256": {
        "encoding": "inplace",
        "label": "uint256",
        "numberOfBytes": "32"
      }
    }
  }
}