{
  "address": "0xE9f783E7D9fcEB90988FDf89bBb2BC3e7092FD66",
  "abi": [
    {
      "anonymous": false,
      "inputs": [
        {
          "indexed": false,
          "internalType": "uint256",
          "name": "_threshold",
          "type": "uint256"
        }
      ],
      "name": "AllocateThresholdUpdated",
      "type": "event"
    },
    {
      "anonymous": false,
      "inputs": [
        {
          "indexed": false,
          "internalType": "address",
          "name": "_asset",
          "type": "address"
        },
        {
          "indexed": false,
          "internalType": "address",
          "name": "_strategy",
          "type": "address"
        },
        {
          "indexed": false,
          "internalType": "uint256",
          "name": "_amount",
          "type": "uint256"
        }
      ],
      "name": "AssetAllocated",
      "type": "event"
    },
    {
      "anonymous": false,
      "inputs": [
        {
          "indexed": false,
          "internalType": "address",
          "name": "_asset",
          "type": "address"
        },
        {
          "indexed": false,
          "internalType": "address",
          "name": "_strategy",
          "type": "address"
        }
      ],
      "name": "AssetDefaultStrategyUpdated",
      "type": "event"
    },
    {
      "anonymous": false,
      "inputs": [
        {
          "indexed": false,
          "internalType": "address",
          "name": "_asset",
          "type": "address"
        }
      ],
      "name": "AssetRemoved",
      "type": "event"
    },
    {
      "anonymous": false,
      "inputs": [
        {
          "indexed": false,
          "internalType": "address",
          "name": "_asset",
          "type": "address"
        }
      ],
      "name": "AssetSupported",
      "type": "event"
    },
    {
      "anonymous": false,
      "inputs": [],
      "name": "CapitalPaused",
      "type": "event"
    },
    {
      "anonymous": false,
      "inputs": [],
      "name": "CapitalUnpaused",
      "type": "event"
    },
    {
      "anonymous": false,
      "inputs": [
        {
          "indexed": true,
          "internalType": "address",
          "name": "previousGovernor",
          "type": "address"
        },
        {
          "indexed": true,
          "internalType": "address",
          "name": "newGovernor",
          "type": "address"
        }
      ],
      "name": "GovernorshipTransferred",
      "type": "event"
    },
    {
      "anonymous": false,
      "inputs": [
        {
          "indexed": false,
          "internalType": "uint256",
          "name": "maxSupplyDiff",
          "type": "uint256"
        }
      ],
      "name": "MaxSupplyDiffChanged",
      "type": "event"
    },
    {
      "anonymous": false,
      "inputs": [
        {
          "indexed": false,
          "internalType": "address",
          "name": "_addr",
          "type": "address"
        },
        {
          "indexed": false,
          "internalType": "uint256",
          "name": "_value",
          "type": "uint256"
        }
      ],
      "name": "Mint",
      "type": "event"
    },
    {
      "anonymous": false,
      "inputs": [
        {
          "indexed": false,
          "internalType": "uint256",
          "name": "_threshold",
          "type": "uint256"
        }
      ],
      "name": "NetOusdMintForStrategyThresholdChanged",
      "type": "event"
    },
    {
      "anonymous": false,
      "inputs": [
        {
          "indexed": false,
          "internalType": "address",
          "name": "_ousdMetaStrategy",
          "type": "address"
        }
      ],
      "name": "OusdMetaStrategyUpdated",
      "type": "event"
    },
    {
      "anonymous": false,
      "inputs": [
        {
          "indexed": true,
          "internalType": "address",
          "name": "previousGovernor",
          "type": "address"
        },
        {
          "indexed": true,
          "internalType": "address",
          "name": "newGovernor",
          "type": "address"
        }
      ],
      "name": "PendingGovernorshipTransfer",
      "type": "event"
    },
    {
      "anonymous": false,
      "inputs": [
        {
          "indexed": false,
          "internalType": "address",
          "name": "_priceProvider",
          "type": "address"
        }
      ],
      "name": "PriceProviderUpdated",
      "type": "event"
    },
    {
      "anonymous": false,
      "inputs": [],
      "name": "RebasePaused",
      "type": "event"
    },
    {
      "anonymous": false,
      "inputs": [
        {
          "indexed": false,
          "internalType": "uint256",
          "name": "_threshold",
          "type": "uint256"
        }
      ],
      "name": "RebaseThresholdUpdated",
      "type": "event"
    },
    {
      "anonymous": false,
      "inputs": [],
      "name": "RebaseUnpaused",
      "type": "event"
    },
    {
      "anonymous": false,
      "inputs": [
        {
          "indexed": false,
          "internalType": "address",
          "name": "_addr",
          "type": "address"
        },
        {
          "indexed": false,
          "internalType": "uint256",
          "name": "_value",
          "type": "uint256"
        }
      ],
      "name": "Redeem",
      "type": "event"
    },
    {
      "anonymous": false,
      "inputs": [
        {
          "indexed": false,
          "internalType": "uint256",
          "name": "_redeemFeeBps",
          "type": "uint256"
        }
      ],
      "name": "RedeemFeeUpdated",
      "type": "event"
    },
    {
      "anonymous": false,
      "inputs": [
        {
          "indexed": false,
          "internalType": "address",
          "name": "_address",
          "type": "address"
        }
      ],
      "name": "StrategistUpdated",
      "type": "event"
    },
    {
      "anonymous": false,
      "inputs": [
        {
          "indexed": true,
          "internalType": "address",
          "name": "strategy",
          "type": "address"
        }
      ],
      "name": "StrategyAddedToMintWhitelist",
      "type": "event"
    },
    {
      "anonymous": false,
      "inputs": [
        {
          "indexed": false,
          "internalType": "address",
          "name": "_addr",
          "type": "address"
        }
      ],
      "name": "StrategyApproved",
      "type": "event"
    },
    {
      "anonymous": false,
      "inputs": [
        {
          "indexed": false,
          "internalType": "address",
          "name": "_addr",
          "type": "address"
        }
      ],
      "name": "StrategyRemoved",
      "type": "event"
    },
    {
      "anonymous": false,
      "inputs": [
        {
          "indexed": true,
          "internalType": "address",
          "name": "strategy",
          "type": "address"
        }
      ],
      "name": "StrategyRemovedFromMintWhitelist",
      "type": "event"
    },
    {
      "anonymous": false,
      "inputs": [
        {
          "indexed": false,
          "internalType": "uint256",
          "name": "_basis",
          "type": "uint256"
        }
      ],
      "name": "SwapAllowedUndervalueChanged",
      "type": "event"
    },
    {
      "anonymous": false,
      "inputs": [
        {
          "indexed": false,
          "internalType": "address",
          "name": "_asset",
          "type": "address"
        },
        {
          "indexed": false,
          "internalType": "uint256",
          "name": "_basis",
          "type": "uint256"
        }
      ],
      "name": "SwapSlippageChanged",
      "type": "event"
    },
    {
      "anonymous": false,
      "inputs": [
        {
          "indexed": true,
          "internalType": "address",
          "name": "_fromAsset",
          "type": "address"
        },
        {
          "indexed": true,
          "internalType": "address",
          "name": "_toAsset",
          "type": "address"
        },
        {
          "indexed": false,
          "internalType": "uint256",
          "name": "_fromAssetAmount",
          "type": "uint256"
        },
        {
          "indexed": false,
          "internalType": "uint256",
          "name": "_toAssetAmount",
          "type": "uint256"
        }
      ],
      "name": "Swapped",
      "type": "event"
    },
    {
      "anonymous": false,
      "inputs": [
        {
          "indexed": false,
          "internalType": "address",
          "name": "_address",
          "type": "address"
        }
      ],
      "name": "SwapperChanged",
      "type": "event"
    },
    {
      "anonymous": false,
      "inputs": [
        {
          "indexed": false,
          "internalType": "address",
          "name": "_address",
          "type": "address"
        }
      ],
      "name": "TrusteeAddressChanged",
      "type": "event"
    },
    {
      "anonymous": false,
      "inputs": [
        {
          "indexed": false,
          "internalType": "uint256",
          "name": "_basis",
          "type": "uint256"
        }
      ],
      "name": "TrusteeFeeBpsChanged",
      "type": "event"
    },
    {
      "anonymous": false,
      "inputs": [
        {
          "indexed": false,
          "internalType": "uint256",
          "name": "_vaultBuffer",
          "type": "uint256"
        }
      ],
      "name": "VaultBufferUpdated",
      "type": "event"
    },
    {
      "anonymous": false,
      "inputs": [
        {
          "indexed": false,
          "internalType": "address",
          "name": "_to",
          "type": "address"
        },
        {
          "indexed": false,
          "internalType": "uint256",
          "name": "_yield",
          "type": "uint256"
        },
        {
          "indexed": false,
          "internalType": "uint256",
          "name": "_fee",
          "type": "uint256"
        }
      ],
      "name": "YieldDistribution",
      "type": "event"
    },
    {
      "inputs": [],
      "name": "allowedSwapUndervalue",
      "outputs": [
        {
          "internalType": "uint256",
          "name": "value",
          "type": "uint256"
        }
      ],
      "stateMutability": "view",
      "type": "function"
    },
    {
      "inputs": [
        {
          "internalType": "address",
          "name": "_addr",
          "type": "address"
        }
      ],
      "name": "approveStrategy",
      "outputs": [],
      "stateMutability": "nonpayable",
      "type": "function"
    },
    {
      "inputs": [
        {
          "internalType": "address",
          "name": "",
          "type": "address"
        }
      ],
      "name": "assetDefaultStrategies",
      "outputs": [
        {
          "internalType": "address",
          "name": "",
          "type": "address"
        }
      ],
      "stateMutability": "view",
      "type": "function"
    },
    {
      "inputs": [],
      "name": "autoAllocateThreshold",
      "outputs": [
        {
          "internalType": "uint256",
          "name": "",
          "type": "uint256"
        }
      ],
      "stateMutability": "view",
      "type": "function"
    },
    {
      "inputs": [
        {
          "internalType": "address",
          "name": "_asset",
          "type": "address"
        }
      ],
      "name": "cacheDecimals",
      "outputs": [],
      "stateMutability": "nonpayable",
      "type": "function"
    },
    {
      "inputs": [],
      "name": "capitalPaused",
      "outputs": [
        {
          "internalType": "bool",
          "name": "",
          "type": "bool"
        }
      ],
      "stateMutability": "view",
      "type": "function"
    },
    {
      "inputs": [],
      "name": "claimGovernance",
      "outputs": [],
      "stateMutability": "nonpayable",
      "type": "function"
    },
    {
      "inputs": [
        {
          "internalType": "address",
          "name": "_strategyToAddress",
          "type": "address"
        },
        {
          "internalType": "address[]",
          "name": "_assets",
          "type": "address[]"
        },
        {
          "internalType": "uint256[]",
          "name": "_amounts",
          "type": "uint256[]"
        }
      ],
      "name": "depositToStrategy",
      "outputs": [],
      "stateMutability": "nonpayable",
      "type": "function"
    },
    {
      "inputs": [],
      "name": "governor",
      "outputs": [
        {
          "internalType": "address",
          "name": "",
          "type": "address"
        }
      ],
      "stateMutability": "view",
      "type": "function"
    },
    {
      "inputs": [
        {
          "internalType": "address",
          "name": "_priceProvider",
          "type": "address"
        },
        {
          "internalType": "address",
          "name": "_oToken",
          "type": "address"
        }
      ],
      "name": "initialize",
      "outputs": [],
      "stateMutability": "nonpayable",
      "type": "function"
    },
    {
      "inputs": [],
      "name": "isGovernor",
      "outputs": [
        {
          "internalType": "bool",
          "name": "",
          "type": "bool"
        }
      ],
      "stateMutability": "view",
      "type": "function"
    },
    {
      "inputs": [
        {
          "internalType": "address",
          "name": "",
          "type": "address"
        }
      ],
      "name": "isMintWhitelistedStrategy",
      "outputs": [
        {
          "internalType": "bool",
          "name": "",
          "type": "bool"
        }
      ],
      "stateMutability": "view",
      "type": "function"
    },
    {
      "inputs": [],
      "name": "maxSupplyDiff",
      "outputs": [
        {
          "internalType": "uint256",
          "name": "",
          "type": "uint256"
        }
      ],
      "stateMutability": "view",
      "type": "function"
    },
    {
      "inputs": [],
      "name": "netOusdMintForStrategyThreshold",
      "outputs": [
        {
          "internalType": "uint256",
          "name": "",
          "type": "uint256"
        }
      ],
      "stateMutability": "view",
      "type": "function"
    },
    {
      "inputs": [],
      "name": "netOusdMintedForStrategy",
      "outputs": [
        {
          "internalType": "int256",
          "name": "",
          "type": "int256"
        }
      ],
      "stateMutability": "view",
      "type": "function"
    },
    {
      "inputs": [],
      "name": "ousdMetaStrategy",
      "outputs": [
        {
          "internalType": "address",
          "name": "",
          "type": "address"
        }
      ],
      "stateMutability": "view",
      "type": "function"
    },
    {
      "inputs": [],
      "name": "pauseCapital",
      "outputs": [],
      "stateMutability": "nonpayable",
      "type": "function"
    },
    {
      "inputs": [],
      "name": "pauseRebase",
      "outputs": [],
      "stateMutability": "nonpayable",
      "type": "function"
    },
    {
      "inputs": [],
      "name": "priceProvider",
      "outputs": [
        {
          "internalType": "address",
          "name": "",
          "type": "address"
        }
      ],
      "stateMutability": "view",
      "type": "function"
    },
    {
      "inputs": [],
      "name": "rebasePaused",
      "outputs": [
        {
          "internalType": "bool",
          "name": "",
          "type": "bool"
        }
      ],
      "stateMutability": "view",
      "type": "function"
    },
    {
      "inputs": [],
      "name": "rebaseThreshold",
      "outputs": [
        {
          "internalType": "uint256",
          "name": "",
          "type": "uint256"
        }
      ],
      "stateMutability": "view",
      "type": "function"
    },
    {
      "inputs": [],
      "name": "redeemFeeBps",
      "outputs": [
        {
          "internalType": "uint256",
          "name": "",
          "type": "uint256"
        }
      ],
      "stateMutability": "view",
      "type": "function"
    },
    {
      "inputs": [
        {
          "internalType": "address",
          "name": "_asset",
          "type": "address"
        }
      ],
      "name": "removeAsset",
      "outputs": [],
      "stateMutability": "nonpayable",
      "type": "function"
    },
    {
      "inputs": [
        {
          "internalType": "address",
          "name": "_addr",
          "type": "address"
        }
      ],
      "name": "removeStrategy",
      "outputs": [],
      "stateMutability": "nonpayable",
      "type": "function"
    },
    {
      "inputs": [
        {
          "internalType": "address",
          "name": "newImpl",
          "type": "address"
        }
      ],
      "name": "setAdminImpl",
      "outputs": [],
      "stateMutability": "nonpayable",
      "type": "function"
    },
    {
      "inputs": [
        {
          "internalType": "address",
          "name": "_asset",
          "type": "address"
        },
        {
          "internalType": "address",
          "name": "_strategy",
          "type": "address"
        }
      ],
      "name": "setAssetDefaultStrategy",
      "outputs": [],
      "stateMutability": "nonpayable",
      "type": "function"
    },
    {
      "inputs": [
        {
          "internalType": "uint256",
          "name": "_threshold",
          "type": "uint256"
        }
      ],
      "name": "setAutoAllocateThreshold",
      "outputs": [],
      "stateMutability": "nonpayable",
      "type": "function"
    },
    {
      "inputs": [
        {
          "internalType": "uint256",
          "name": "_maxSupplyDiff",
          "type": "uint256"
        }
      ],
      "name": "setMaxSupplyDiff",
      "outputs": [],
      "stateMutability": "nonpayable",
      "type": "function"
    },
    {
      "inputs": [
        {
          "internalType": "uint256",
          "name": "_threshold",
          "type": "uint256"
        }
      ],
      "name": "setNetOusdMintForStrategyThreshold",
      "outputs": [],
      "stateMutability": "nonpayable",
      "type": "function"
    },
    {
      "inputs": [
        {
          "internalType": "address",
          "name": "_asset",
          "type": "address"
        },
        {
          "internalType": "uint16",
          "name": "_allowedOracleSlippageBps",
          "type": "uint16"
        }
      ],
      "name": "setOracleSlippage",
      "outputs": [],
      "stateMutability": "nonpayable",
      "type": "function"
    },
    {
      "inputs": [
        {
          "internalType": "address",
          "name": "_ousdMetaStrategy",
          "type": "address"
        }
      ],
      "name": "setOusdMetaStrategy",
      "outputs": [],
      "stateMutability": "nonpayable",
      "type": "function"
    },
    {
      "inputs": [
        {
          "internalType": "address",
          "name": "_priceProvider",
          "type": "address"
        }
      ],
      "name": "setPriceProvider",
      "outputs": [],
      "stateMutability": "nonpayable",
      "type": "function"
    },
    {
      "inputs": [
        {
          "internalType": "uint256",
          "name": "_threshold",
          "type": "uint256"
        }
      ],
      "name": "setRebaseThreshold",
      "outputs": [],
      "stateMutability": "nonpayable",
      "type": "function"
    },
    {
      "inputs": [
        {
          "internalType": "uint256",
          "name": "_redeemFeeBps",
          "type": "uint256"
        }
      ],
      "name": "setRedeemFeeBps",
      "outputs": [],
      "stateMutability": "nonpayable",
      "type": "function"
    },
    {
      "inputs": [
        {
          "internalType": "address",
          "name": "_address",
          "type": "address"
        }
      ],
      "name": "setStrategistAddr",
      "outputs": [],
      "stateMutability": "nonpayable",
      "type": "function"
    },
    {
      "inputs": [
        {
          "internalType": "uint16",
          "name": "_basis",
          "type": "uint16"
        }
      ],
      "name": "setSwapAllowedUndervalue",
      "outputs": [],
      "stateMutability": "nonpayable",
      "type": "function"
    },
    {
      "inputs": [
        {
          "internalType": "address",
          "name": "_swapperAddr",
          "type": "address"
        }
      ],
      "name": "setSwapper",
      "outputs": [],
      "stateMutability": "nonpayable",
      "type": "function"
    },
    {
      "inputs": [
        {
          "internalType": "address",
          "name": "_address",
          "type": "address"
        }
      ],
      "name": "setTrusteeAddress",
      "outputs": [],
      "stateMutability": "nonpayable",
      "type": "function"
    },
    {
      "inputs": [
        {
          "internalType": "uint256",
          "name": "_basis",
          "type": "uint256"
        }
      ],
      "name": "setTrusteeFeeBps",
      "outputs": [],
      "stateMutability": "nonpayable",
      "type": "function"
    },
    {
      "inputs": [
        {
          "internalType": "uint256",
          "name": "_vaultBuffer",
          "type": "uint256"
        }
      ],
      "name": "setVaultBuffer",
      "outputs": [],
      "stateMutability": "nonpayable",
      "type": "function"
    },
    {
      "inputs": [],
      "name": "strategistAddr",
      "outputs": [
        {
          "internalType": "address",
          "name": "",
          "type": "address"
        }
      ],
      "stateMutability": "view",
      "type": "function"
    },
    {
      "inputs": [
        {
          "internalType": "address",
          "name": "_asset",
          "type": "address"
        },
        {
          "internalType": "uint8",
          "name": "_unitConversion",
          "type": "uint8"
        }
      ],
      "name": "supportAsset",
      "outputs": [],
      "stateMutability": "nonpayable",
      "type": "function"
    },
    {
      "inputs": [
        {
          "internalType": "address",
          "name": "_fromAsset",
          "type": "address"
        },
        {
          "internalType": "address",
          "name": "_toAsset",
          "type": "address"
        },
        {
          "internalType": "uint256",
          "name": "_fromAssetAmount",
          "type": "uint256"
        },
        {
          "internalType": "uint256",
          "name": "_minToAssetAmount",
          "type": "uint256"
        },
        {
          "internalType": "bytes",
          "name": "_data",
          "type": "bytes"
        }
      ],
      "name": "swapCollateral",
      "outputs": [
        {
          "internalType": "uint256",
          "name": "toAssetAmount",
          "type": "uint256"
        }
      ],
      "stateMutability": "nonpayable",
      "type": "function"
    },
    {
      "inputs": [],
      "name": "swapper",
      "outputs": [
        {
          "internalType": "address",
          "name": "swapper_",
          "type": "address"
        }
      ],
      "stateMutability": "view",
      "type": "function"
    },
    {
      "inputs": [
        {
          "internalType": "address",
          "name": "_newGovernor",
          "type": "address"
        }
      ],
      "name": "transferGovernance",
      "outputs": [],
      "stateMutability": "nonpayable",
      "type": "function"
    },
    {
      "inputs": [
        {
          "internalType": "address",
          "name": "_asset",
          "type": "address"
        },
        {
          "internalType": "uint256",
          "name": "_amount",
          "type": "uint256"
        }
      ],
      "name": "transferToken",
      "outputs": [],
      "stateMutability": "nonpayable",
      "type": "function"
    },
    {
      "inputs": [],
      "name": "trusteeAddress",
      "outputs": [
        {
          "internalType": "address",
          "name": "",
          "type": "address"
        }
      ],
      "stateMutability": "view",
      "type": "function"
    },
    {
      "inputs": [],
      "name": "trusteeFeeBps",
      "outputs": [
        {
          "internalType": "uint256",
          "name": "",
          "type": "uint256"
        }
      ],
      "stateMutability": "view",
      "type": "function"
    },
    {
      "inputs": [],
      "name": "unpauseCapital",
      "outputs": [],
      "stateMutability": "nonpayable",
      "type": "function"
    },
    {
      "inputs": [],
      "name": "unpauseRebase",
      "outputs": [],
      "stateMutability": "nonpayable",
      "type": "function"
    },
    {
      "inputs": [],
      "name": "vaultBuffer",
      "outputs": [
        {
          "internalType": "uint256",
          "name": "",
          "type": "uint256"
        }
      ],
      "stateMutability": "view",
      "type": "function"
    },
    {
      "inputs": [],
      "name": "withdrawAllFromStrategies",
      "outputs": [],
      "stateMutability": "nonpayable",
      "type": "function"
    },
    {
      "inputs": [
        {
          "internalType": "address",
          "name": "_strategyAddr",
          "type": "address"
        }
      ],
      "name": "withdrawAllFromStrategy",
      "outputs": [],
      "stateMutability": "nonpayable",
      "type": "function"
    },
    {
      "inputs": [
        {
          "internalType": "address",
          "name": "_strategyFromAddress",
          "type": "address"
        },
        {
          "internalType": "address[]",
          "name": "_assets",
          "type": "address[]"
        },
        {
          "internalType": "uint256[]",
          "name": "_amounts",
          "type": "uint256[]"
        }
      ],
      "name": "withdrawFromStrategy",
      "outputs": [],
      "stateMutability": "nonpayable",
      "type": "function"
    }
  ],
  "transactionHash": "0x52f87313416df056d19263cb0fdf89ff832ca3882104388d794e24b8a60f460a",
  "args": [],
  "numDeployments": 1,
  "solcInputHash": "b945fb8cc2e5244491b93263adf4bfae",
  "bytecode": "0x6037805461ffff60a01b1916600160a81b179055603d80546001600160a01b0319908116909155603e805482169055603f80548216905560458054909116905560006046819055604781905560c0604052608081905260a052604880546001600160b01b03191690553480156200007557600080fd5b506200008e3360008051602062003dc783398151915255565b60008051602062003dc7833981519152546040516001600160a01b03909116906000907fc7c0c772add429241571afb3805861fb3cfa2af374534088b76cdb4325a87e9a908290a3613ce180620000e66000396000f3fe608060405234801561001057600080fd5b50600436106103425760003560e01c8063663e64ce116101b8578063b2c9336d11610104578063d38bfff4116100a2578063e6cc54321161007c578063e6cc5432146106b7578063e829cc16146106cb578063eb03654b146106de578063fc0cfeee146106f157600080fd5b8063d38bfff414610688578063d58e3b3a1461069b578063e45cc9f0146106ae57600080fd5b8063bc90106b116100de578063bc90106b1461065d578063c5f0084114610670578063c7af335214610678578063c99191121461068057600080fd5b8063b2c9336d14610624578063b888879e14610637578063b890ebf61461064a57600080fd5b80638e510b52116101715780639c82f2a41161014b5780639c82f2a4146105cc5780639fa1826e146105df578063a403e4d5146105e8578063ae69f3cb1461061157600080fd5b80638e510b52146105a85780638ec489a2146105b157806394828ffd146105c457600080fd5b8063663e64ce146105405780636c7561e814610553578063773540b3146105665780637a2202f3146105795780637b9a709614610582578063840c4c7a1461059557600080fd5b80633b8ae3971161029257806350ba711c11610230578063570d8e1d1161020a578063570d8e1d146104ff578063597c8910146105125780635d36b19014610525578063636e6c401461052d57600080fd5b806350ba711c146104cf57806352d38e5d146104e257806353ca9f24146104eb57600080fd5b8063485cc9551161026c578063485cc9551461048357806349c1d54d146104965780634a5e42b1146104a95780634bed3bc0146104bc57600080fd5b80633b8ae397146104355780633dbc911f146104485780634530820a1461045057600080fd5b806318ce56bd116102ff5780632b3297f9116102d95780632b3297f9146103eb5780632da845a8146103fc57806336b6d9441461040f578063372aa2241461042257600080fd5b806318ce56bd146103c65780631edfe3da146103d9578063207134b0146103e257600080fd5b806309f49bf51461034757806309f6442c146103515780630acbda751461036d5780630c340a24146103805780631072cbea146103a0578063175188e8146103b3575b600080fd5b61034f610704565b005b61035a60385481565b6040519081526020015b60405180910390f35b61034f61037b3660046138b0565b61077d565b61038861082f565b6040516001600160a01b039091168152602001610364565b61034f6103ae366004613812565b61084c565b61034f6103c1366004613673565b6108f9565b604554610388906001600160a01b031681565b61035a60395481565b61035a60435481565b6048546001600160a01b0316610388565b61034f61040a366004613673565b610bfa565b61034f61041d366004613673565b610c6c565b61034f610430366004613673565b610c9c565b61034f610443366004613673565b610d0e565b61034f610e4b565b61047361045e366004613673565b60496020526000908152604090205460ff1681565b6040519015158152602001610364565b61034f61049136600461368e565b610ec1565b604254610388906001600160a01b031681565b61034f6104b7366004613673565b6110c3565b604854600160a01b900461ffff1661035a565b61035a6104dd3660046136c1565b6113d0565b61035a603b5481565b60375461047390600160a01b900460ff1681565b603f54610388906001600160a01b031681565b61034f610520366004613673565b611bf0565b61034f611cec565b61034f61053b3660046138b0565b611d92565b61034f61054e3660046138b0565b611df0565b61034f61056136600461383c565b611e49565b61034f610574366004613673565b6120c7565b61035a60475481565b61034f6105903660046137e8565b612139565b61034f6105a3366004613767565b61226f565b61035a60415481565b61034f6105bf3660046138b0565b612308565b61034f6123bd565b61034f6105da366004613673565b61242d565b61035a603a5481565b6103886105f6366004613673565b6040602081905260009182529020546001600160a01b031681565b61034f61061f366004613767565b61249f565b61034f6106323660046138b0565b61252d565b603754610388906001600160a01b031681565b61034f6106583660046138b0565b612586565b61034f61066b36600461368e565b6125df565b61034f612821565b610473612897565b61034f6128c8565b61034f610696366004613673565b612992565b61034f6106a9366004613673565b612a36565b61035a60465481565b60375461047390600160a81b900460ff1681565b61034f6106d9366004613895565b612aa8565b61034f6106ec3660046138b0565b612b68565b61034f6106ff366004613673565b612c1d565b603f546001600160a01b03163314806107205750610720612897565b6107455760405162461bcd60e51b815260040161073c906139e1565b60405180910390fd5b6037805460ff60a01b191690556040517fbc044409505c95b6b851433df96e1beae715c909d8e7c1d6d7ab783300d4e3b990600090a1565b610785612897565b6107a15760405162461bcd60e51b815260040161073c906139aa565b6113888111156107f35760405162461bcd60e51b815260206004820152601760248201527f62617369732063616e6e6f742065786365656420353025000000000000000000604482015260640161073c565b60438190556040518181527f56287a45051933ea374811b3d5d165033047be5572cac676f7c28b8be4f746c7906020015b60405180910390a150565b6000610847600080516020613c8c8339815191525490565b905090565b610854612897565b6108705760405162461bcd60e51b815260040161073c906139aa565b6001600160a01b03821660009081526033602052604090205460ff16156108d95760405162461bcd60e51b815260206004820152601760248201527f4f6e6c7920756e737570706f7274656420617373657473000000000000000000604482015260640161073c565b6108f56108e461082f565b6001600160a01b0384169083612cbf565b5050565b610901612897565b61091d5760405162461bcd60e51b815260040161073c906139aa565b6001600160a01b03811660009081526035602052604090205460ff1661097d5760405162461bcd60e51b815260206004820152601560248201527414dd1c985d1959de481b9bdd08185c1c1c9bdd9959605a1b604482015260640161073c565b60345460005b81811015610a3557826001600160a01b031660406000603484815481106109ac576109ac613c66565b60009182526020808320909101546001600160a01b039081168452908301939093526040909101902054161415610a255760405162461bcd60e51b815260206004820181905260248201527f53747261746567792069732064656661756c7420666f7220616e206173736574604482015260640161073c565b610a2e81613c09565b9050610983565b506036548060005b82811015610a9557846001600160a01b031660368281548110610a6257610a62613c66565b6000918252602090912001546001600160a01b03161415610a8557809150610a95565b610a8e81613c09565b9050610a3d565b5081811015610bf4576036610aab600184613bc6565b81548110610abb57610abb613c66565b600091825260209091200154603680546001600160a01b039092169183908110610ae757610ae7613c66565b9060005260206000200160006101000a8154816001600160a01b0302191690836001600160a01b031602179055506036805480610b2657610b26613c50565b60008281526020808220830160001990810180546001600160a01b03191690559092019092556001600160a01b03861680835260359091526040808320805460ff19169055805163429c145b60e11b81529051879363853828b6926004808201939182900301818387803b158015610b9d57600080fd5b505af1158015610bb1573d6000803e3d6000fd5b50506040516001600160a01b03881681527f09a1db4b80c32706328728508c941a6b954f31eb5affd32f236c1fd405f8fea49250602001905060405180910390a1505b50505050565b610c02612897565b610c1e5760405162461bcd60e51b815260040161073c906139aa565b604280546001600160a01b0319166001600160a01b0383169081179091556040519081527f1e4af5ac389e8cde1bdaa6830881b6c987c62a45cfb3b33d27d805cde3b5775090602001610824565b610c74612897565b610c905760405162461bcd60e51b815260040161073c906139aa565b610c9981612d11565b50565b610ca4612897565b610cc05760405162461bcd60e51b815260040161073c906139aa565b603780546001600160a01b0319166001600160a01b0383169081179091556040519081527fb266add5f3044b17d27db796af992cecbe413921b4e8aaaee03c719e16b9806a90602001610824565b610d16612897565b610d325760405162461bcd60e51b815260040161073c906139aa565b6001600160a01b03811660009081526035602052604090205460ff1615610d9b5760405162461bcd60e51b815260206004820152601960248201527f537472617465677920616c726561647920617070726f76656400000000000000604482015260640161073c565b6040805180820182526001808252600060208084018281526001600160a01b038716808452603583528684209551865460ff19169015151786559051948401949094556036805493840181559091527f4a11f94e20a93c79f6ec743a1954ec4fc2c08429ae2122118bf234b2185c81b890910180546001600160a01b0319168317905591519081527f960dd94cbb79169f09a4e445d58b895df2d9bffa5b31055d0932d801724a20d19101610824565b603f546001600160a01b0316331480610e675750610e67612897565b610e835760405162461bcd60e51b815260040161073c906139e1565b6037805460ff60a81b1916600160a81b1790556040517f71f0e5b62f846a22e0b4d159e516e62fa9c2b8eb570be15f83e67d98a2ee51e090600090a1565b610ec9612897565b610ee55760405162461bcd60e51b815260040161073c906139aa565b600054610100900460ff1680610efe575060005460ff16155b610f615760405162461bcd60e51b815260206004820152602e60248201527f496e697469616c697a61626c653a20636f6e747261637420697320616c72656160448201526d191e481a5b9a5d1a585b1a5e995960921b606482015260840161073c565b600054610100900460ff16158015610f83576000805461ffff19166101011790555b6001600160a01b038316610fd95760405162461bcd60e51b815260206004820152601d60248201527f507269636550726f76696465722061646472657373206973207a65726f000000604482015260640161073c565b6001600160a01b0382166110285760405162461bcd60e51b81526020600482015260166024820152756f546f6b656e2061646472657373206973207a65726f60501b604482015260640161073c565b603c80546001600160a01b038481166001600160a01b031990921691909117909155603780546001600160b01b03191691851691909117600160a81b17905560006038819055603981905569054b40b1f852bda00000603a55683635c9adc5dea00000603b5560408051918252602082019081905290516110ab9160369161357f565b5080156110be576000805461ff00191690555b505050565b6110cb612897565b6110e75760405162461bcd60e51b815260040161073c906139aa565b6001600160a01b03811660009081526033602052604090205460ff166111455760405162461bcd60e51b8152602060048201526013602482015272105cdcd95d081b9bdd081cdd5c1c1bdc9d1959606a1b604482015260640161073c565b604051632fa8a91360e11b81526001600160a01b03821660048201526509184e72a000903090635f5152269060240160206040518083038186803b15801561118c57600080fd5b505afa1580156111a0573d6000803e3d6000fd5b505050506040513d601f19601f820116820180604052508101906111c491906138c9565b11156112125760405162461bcd60e51b815260206004820152601760248201527f5661756c74207374696c6c20686f6c6473206173736574000000000000000000604482015260640161073c565b6034548060005b8281101561127157836001600160a01b03166034828154811061123e5761123e613c66565b6000918252602090912001546001600160a01b0316141561126157809150611271565b61126a81613c09565b9050611219565b50603461127f600184613bc6565b8154811061128f5761128f613c66565b600091825260209091200154603480546001600160a01b0390921691839081106112bb576112bb613c66565b9060005260206000200160006101000a8154816001600160a01b0302191690836001600160a01b0316021790555060348054806112fa576112fa613c50565b60008281526020808220600019908401810180546001600160a01b031990811690915593019093556001600160a01b038616808252604080855280832080549094169093558251908152928301527fba58ce12801c949fa65f41c46ed108671c219baf945fa48d21026cea99ff252a910160405180910390a16001600160a01b038316600081815260336020908152604091829020805464ffffffffff1916905590519182527f37803e2125c48ee96c38ddf04e826daf335b0e1603579040fd275aba6d06b6fc910160405180910390a1505050565b7f53bf423e48ed90e97d02ab0ebab13b2a235a6bfbe9c321847d5c175333ac453580546000919060028114156114185760405162461bcd60e51b815260040161073c90613a29565b60028255603f546001600160a01b03163314806114385750611438612897565b6114545760405162461bcd60e51b815260040161073c906139e1565b6001600160a01b0389166000908152603360209081526040808320815160808101909252805460ff8082161515845292939192918401916101009091041660018111156114a3576114a3613c3a565b60018111156114b4576114b4613c3a565b8152905462010000810460ff908116602080850191909152630100000090920461ffff166040938401526001600160a01b038d166000908152603383528381208451608081019095528054808416151586529596509094909284019161010090910416600181111561152857611528613c3a565b600181111561153957611539613c3a565b8152905462010000810460ff1660208301526301000000900461ffff1660409091015282519091506115ad5760405162461bcd60e51b815260206004820152601b60248201527f46726f6d206173736574206973206e6f7420737570706f727465640000000000604482015260640161073c565b80516115fb5760405162461bcd60e51b815260206004820152601960248201527f546f206173736574206973206e6f7420737570706f7274656400000000000000604482015260640161073c565b6040805180820182526048546001600160a01b038082168352600160a01b90910461ffff16602083015291516370a0823160e01b81523060048201529091600091908d16906370a082319060240160206040518083038186803b15801561166157600080fd5b505afa158015611675573d6000803e3d6000fd5b505050506040513d601f19601f8201168201806040525081019061169991906138c9565b82519091506116b3906001600160a01b038f16908d612cbf565b81600001516001600160a01b0316632506c0188e8e60018f6116d59190613bc6565b8e8e8e6040518763ffffffff1660e01b81526004016116f99695949392919061391b565b602060405180830381600087803b15801561171357600080fd5b505af1158015611727573d6000803e3d6000fd5b505050506040513d601f19601f8201168201806040525081019061174b91906138c9565b506040516370a0823160e01b815230600482015281906001600160a01b038e16906370a082319060240160206040518083038186803b15801561178d57600080fd5b505afa1580156117a1573d6000803e3d6000fd5b505050506040513d601f19601f820116820180604052508101906117c591906138c9565b6117cf9190613bc6565b965050888610156118225760405162461bcd60e51b815260206004820152601960248201527f5374726174656769737420736c697070616765206c696d697400000000000000604482015260640161073c565b600082606001516127106118369190613a51565b6037546040516315d5220f60e31b81526001600160a01b038f8116600483015261ffff93909316929091169063aea910789060240160206040518083038186803b15801561188357600080fd5b505afa158015611897573d6000803e3d6000fd5b505050506040513d601f19601f820116820180604052508101906118bb91906138c9565b6118c59190613b84565b603760009054906101000a90046001600160a01b03166001600160a01b031663aea910788f6040518263ffffffff1660e01b815260040161191591906001600160a01b0391909116815260200190565b60206040518083038186803b15801561192d57600080fd5b505afa158015611941573d6000803e3d6000fd5b505050506040513d601f19601f8201168201806040525081019061196591906138c9565b606086015161197690612710613ba3565b6119849061ffff168e613b84565b61198e9190613b84565b6119989190613a77565b90506119b76012856040015160ff1683612e279092919063ffffffff16565b60408401516119cd90899060129060ff16612e27565b1015611a1b5760405162461bcd60e51b815260206004820152601e60248201527f4f7261636c6520736c697070616765206c696d69742065786365656465640000604482015260640161073c565b506127108160200151612710611a319190613ba3565b61ffff16603c60009054906101000a90046001600160a01b03166001600160a01b03166318160ddd6040518163ffffffff1660e01b815260040160206040518083038186803b158015611a8357600080fd5b505afa158015611a97573d6000803e3d6000fd5b505050506040513d601f19601f82011682018060405250810190611abb91906138c9565b611ac59190613b84565b611acf9190613a77565b306001600160a01b031663d4c3eea06040518163ffffffff1660e01b815260040160206040518083038186803b158015611b0857600080fd5b505afa158015611b1c573d6000803e3d6000fd5b505050506040513d601f19601f82011682018060405250810190611b4091906138c9565b1015611b875760405162461bcd60e51b8152602060048201526016602482015275416c6c6f7765642076616c7565203c20737570706c7960501b604482015260640161073c565b8a6001600160a01b03168c6001600160a01b03167fa078c4190abe07940190effc1846be0ccf03ad6007bc9e93f9697d0b460befbb8c89604051611bd5929190918252602082015260400190565b60405180910390a35050506001825550509695505050505050565b603f546001600160a01b0316331480611c0c5750611c0c612897565b611c285760405162461bcd60e51b815260040161073c906139e1565b6001600160a01b03811660009081526035602052604090205460ff16611c905760405162461bcd60e51b815260206004820152601960248201527f5374726174656779206973206e6f7420737570706f7274656400000000000000604482015260640161073c565b6000819050806001600160a01b031663853828b66040518163ffffffff1660e01b8152600401600060405180830381600087803b158015611cd057600080fd5b505af1158015611ce4573d6000803e3d6000fd5b505050505050565b7f44c4d30b2eaad5130ad70c3ba6972730566f3e6359ab83e800d905c61b1c51db546001600160a01b0316336001600160a01b031614611d875760405162461bcd60e51b815260206004820152603060248201527f4f6e6c79207468652070656e64696e6720476f7665726e6f722063616e20636f60448201526f6d706c6574652074686520636c61696d60801b606482015260840161073c565b611d9033612e8b565b565b611d9a612897565b611db65760405162461bcd60e51b815260040161073c906139aa565b600060465560478190556040518181527fc29d6fedbc6bdf267a08166c2b976fbd72aca5d6a769528616f8b9224c8f197f90602001610824565b611df8612897565b611e145760405162461bcd60e51b815260040161073c906139aa565b60418190556040518181527f95201f9c21f26877223b1ff4073936a6484c35495649e60e55730497aeb60d9390602001610824565b611e51612897565b611e6d5760405162461bcd60e51b815260040161073c906139aa565b6001600160a01b03821660009081526033602052604090205460ff1615611ed65760405162461bcd60e51b815260206004820152601760248201527f417373657420616c726561647920737570706f72746564000000000000000000604482015260640161073c565b60405180608001604052806001151581526020018260ff166001811115611eff57611eff613c3a565b6001811115611f1057611f10613c3a565b81526000602080830182905260409283018290526001600160a01b0386168252603381529190208251815490151560ff19821681178355928401519192839161ff001990911661ffff1990911617610100836001811115611f7357611f73613c3a565b02179055506040820151815460609093015161ffff1663010000000264ffff0000001960ff90921662010000029190911664ffffff00001990931692909217919091179055611fc182612d11565b603480546001810182556000919091527f46bddb1178e94d7f2892ff5f366840eb658911794f2c3a44c450aa2c505186c10180546001600160a01b0319166001600160a01b038481169182179092556037546040516315d5220f60e31b815260048101929092529091169063aea910789060240160206040518083038186803b15801561204d57600080fd5b505afa158015612061573d6000803e3d6000fd5b505050506040513d601f19601f8201168201806040525081019061208591906138c9565b506040516001600160a01b03831681527f4f1ac48525e50059cc1cc6e0e1940ece0dd653a4db4841538d6aef036be2fb7b906020015b60405180910390a15050565b6120cf612897565b6120eb5760405162461bcd60e51b815260040161073c906139aa565b603f80546001600160a01b0319166001600160a01b0383169081179091556040519081527f869e0abd13cc3a975de7b93be3df1cb2255c802b1cead85963cc79d99f131bee90602001610824565b612141612897565b61215d5760405162461bcd60e51b815260040161073c906139aa565b6001600160a01b03821660009081526033602052604090205460ff166121bb5760405162461bcd60e51b8152602060048201526013602482015272105cdcd95d081b9bdd081cdd5c1c1bdc9d1959606a1b604482015260640161073c565b6103e88161ffff16106122045760405162461bcd60e51b81526020600482015260116024820152700a6d8d2e0e0c2ceca40e8dede40d0d2ced607b1b604482015260640161073c565b6001600160a01b038216600081815260336020908152604091829020805464ffff0000001916630100000061ffff8716908102919091179091558251938452908301527f8d22e9d2cbe8bb65a3c4412bd8970743864512a1a0e004e8d00fb96277b78b9491016120bb565b603f546001600160a01b031633148061228b575061228b612897565b6122a75760405162461bcd60e51b815260040161073c906139e1565b7f53bf423e48ed90e97d02ab0ebab13b2a235a6bfbe9c321847d5c175333ac4535805460028114156122eb5760405162461bcd60e51b815260040161073c90613a29565b600282556122fc8787878787612f4c565b50600190555050505050565b603f546001600160a01b03163314806123245750612324612897565b6123405760405162461bcd60e51b815260040161073c906139e1565b670de0b6b3a76400008111156123885760405162461bcd60e51b815260206004820152600d60248201526c496e76616c69642076616c756560981b604482015260640161073c565b60398190556040518181527f41ecb23a0e7865b25f38c268b7c3012220d822929e9edff07326e89d5bb822b590602001610824565b603f546001600160a01b03163314806123d957506123d9612897565b6123f55760405162461bcd60e51b815260040161073c906139e1565b6037805460ff60a81b191690556040517f891ebab18da80ebeeea06b1b1cede098329c4c008906a98370c2ac7a80b571cb90600090a1565b612435612897565b6124515760405162461bcd60e51b815260040161073c906139aa565b604880546001600160a01b0319166001600160a01b0383169081179091556040519081527f7d7719313229e558c5a3893cad2eb86a86a049156d1d9ebd5c63a8eedefd1c0390602001610824565b603f546001600160a01b03163314806124bb57506124bb612897565b6124d75760405162461bcd60e51b815260040161073c906139e1565b7f53bf423e48ed90e97d02ab0ebab13b2a235a6bfbe9c321847d5c175333ac45358054600281141561251b5760405162461bcd60e51b815260040161073c90613a29565b600282556122fc30888888888861318a565b612535612897565b6125515760405162461bcd60e51b815260040161073c906139aa565b603a8190556040518181527f2ec5fb5a3d2703edc461252d92ccd2799c3c74f01d97212b20388207fa17ae4590602001610824565b61258e612897565b6125aa5760405162461bcd60e51b815260040161073c906139aa565b603b8190556040518181527f39367850377ac04920a9a670f2180e7a94d83b15ad302e59875ec58fd10bd37d90602001610824565b603f546001600160a01b03163314806125fb57506125fb612897565b6126175760405162461bcd60e51b815260040161073c906139e1565b604080516001600160a01b038085168252831660208201527fba58ce12801c949fa65f41c46ed108671c219baf945fa48d21026cea99ff252a910160405180910390a16001600160a01b038116156127f3576001600160a01b03811660009081526035602052604090205460ff166126c95760405162461bcd60e51b815260206004820152601560248201527414dd1c985d1959de481b9bdd08185c1c1c9bdd9959605a1b604482015260640161073c565b6001600160a01b038216600090815260336020526040902054819060ff1661272c5760405162461bcd60e51b8152602060048201526016602482015275105cdcd95d081a5cc81b9bdd081cdd5c1c1bdc9d195960521b604482015260640161073c565b60405163551c457b60e11b81526001600160a01b03848116600483015282169063aa388af69060240160206040518083038186803b15801561276d57600080fd5b505afa158015612781573d6000803e3d6000fd5b505050506040513d601f19601f820116820180604052508101906127a59190613873565b6127f15760405162461bcd60e51b815260206004820152601f60248201527f4173736574206e6f7420737570706f7274656420627920537472617465677900604482015260640161073c565b505b6001600160a01b03918216600090815260406020819052902080546001600160a01b03191691909216179055565b603f546001600160a01b031633148061283d575061283d612897565b6128595760405162461bcd60e51b815260040161073c906139e1565b6037805460ff60a01b1916600160a01b1790556040517f8cff26a5985614b3d30629cc4ab83824bf115aec971b718d8f2f99562032e97290600090a1565b60006128af600080516020613c8c8339815191525490565b6001600160a01b0316336001600160a01b031614905090565b603f546001600160a01b03163314806128e457506128e4612897565b6129005760405162461bcd60e51b815260040161073c906139e1565b60365460005b818110156108f5576036818154811061292157612921613c66565b60009182526020822001546040805163429c145b60e11b815290516001600160a01b039092169263853828b69260048084019382900301818387803b15801561296957600080fd5b505af115801561297d573d6000803e3d6000fd5b505050508061298b90613c09565b9050612906565b61299a612897565b6129b65760405162461bcd60e51b815260040161073c906139aa565b6129de817f44c4d30b2eaad5130ad70c3ba6972730566f3e6359ab83e800d905c61b1c51db55565b806001600160a01b03166129fe600080516020613c8c8339815191525490565b6001600160a01b03167fa39cc5eb22d0f34d8beaefee8a3f17cc229c1a1d1ef87a5ad47313487b1c4f0d60405160405180910390a350565b612a3e612897565b612a5a5760405162461bcd60e51b815260040161073c906139aa565b604580546001600160a01b0319166001600160a01b0383169081179091556040519081527fa12850fb726e0b2b7b3c9a9342031e1268a8148d0eb06b4bea8613204ffcd2b890602001610824565b612ab0612897565b612acc5760405162461bcd60e51b815260040161073c906139aa565b6127118161ffff1610612b185760405162461bcd60e51b8152602060048201526014602482015273496e76616c696420626173697320706f696e747360601b604482015260640161073c565b6048805461ffff60a01b1916600160a01b61ffff8416908102919091179091556040519081527ff12c00256bee2b6facb111a88a9b1cff86e79132939b44f1353212d6f746955790602001610824565b612b70612897565b612b8c5760405162461bcd60e51b815260040161073c906139aa565b6103e8811115612be85760405162461bcd60e51b815260206004820152602160248201527f52656465656d206665652073686f756c64206e6f74206265206f7665722031306044820152602560f81b606482015260840161073c565b60388190556040518181527fd6c7508d6658ccee36b7b7d7fd72e5cbaeefb40c64eff24e9ae7470e846304ee90602001610824565b612c25612897565b612c415760405162461bcd60e51b815260040161073c906139aa565b803b612c9b5760405162461bcd60e51b8152602060048201526024808201527f6e657720696d706c656d656e746174696f6e206973206e6f74206120636f6e746044820152631c9858dd60e21b606482015260840161073c565b7fa2bd3d3cf188a41358c8b401076eb59066b09dec5775650c0de4c55187d17bd955565b604080516001600160a01b038416602482015260448082018490528251808303909101815260649091019091526020810180516001600160e01b031663a9059cbb60e01b1790526110be908490613314565b6001600160a01b0381166000908152603360205260409020805462010000900460ff1615612d3d575050565b6000826001600160a01b031663313ce5676040518163ffffffff1660e01b815260040160206040518083038186803b158015612d7857600080fd5b505afa158015612d8c573d6000803e3d6000fd5b505050506040513d601f19601f82011682018060405250810190612db091906138e2565b905060068160ff1610158015612dca575060128160ff1611155b612e0d5760405162461bcd60e51b81526020600482015260146024820152732ab732bc3832b1ba32b210383932b1b4b9b4b7b760611b604482015260640161073c565b815460ff909116620100000262ff00001990911617905550565b600081831115612e5757612e50612e3e8385613bc6565b612e4990600a613adc565b85906133e6565b9350612e81565b81831015612e8157612e7e612e6c8484613bc6565b612e7790600a613adc565b85906133fb565b93505b50825b9392505050565b6001600160a01b038116612ee15760405162461bcd60e51b815260206004820152601a60248201527f4e657720476f7665726e6f722069732061646472657373283029000000000000604482015260640161073c565b806001600160a01b0316612f01600080516020613c8c8339815191525490565b6001600160a01b03167fc7c0c772add429241571afb3805861fb3cfa2af374534088b76cdb4325a87e9a60405160405180910390a3610c9981600080516020613c8c83398151915255565b6001600160a01b03851660009081526035602052604090205460ff16612faa5760405162461bcd60e51b8152602060048201526013602482015272496e76616c696420746f20537472617465677960681b604482015260640161073c565b828114612ff55760405162461bcd60e51b81526020600482015260196024820152780a0c2e4c2dacae8cae440d8cadccee8d040dad2e6dac2e8c6d603b1b604482015260640161073c565b8260005b8181101561312e57600086868381811061301557613015613c66565b905060200201602081019061302a9190613673565b60405163551c457b60e11b81526001600160a01b0380831660048301529192509089169063aa388af69060240160206040518083038186803b15801561306f57600080fd5b505afa158015613083573d6000803e3d6000fd5b505050506040513d601f19601f820116820180604052508101906130a79190613873565b6130e75760405162461bcd60e51b8152602060048201526011602482015270105cdcd95d081d5b9cdd5c1c1bdc9d1959607a1b604482015260640161073c565b61311d888686858181106130fd576130fd613c66565b90506020020135836001600160a01b0316612cbf9092919063ffffffff16565b5061312781613c09565b9050612ff9565b50856001600160a01b031663de5f62686040518163ffffffff1660e01b8152600401600060405180830381600087803b15801561316a57600080fd5b505af115801561317e573d6000803e3d6000fd5b50505050505050505050565b6001600160a01b03851660009081526035602052604090205460ff166131ea5760405162461bcd60e51b8152602060048201526015602482015274496e76616c69642066726f6d20537472617465677960581b604482015260640161073c565b8281146132355760405162461bcd60e51b81526020600482015260196024820152780a0c2e4c2dacae8cae440d8cadccee8d040dad2e6dac2e8c6d603b1b604482015260640161073c565b8260005b8181101561330a57866001600160a01b031663d9caed128988888581811061326357613263613c66565b90506020020160208101906132789190613673565b87878681811061328a5761328a613c66565b6040516001600160e01b031960e088901b1681526001600160a01b03958616600482015294909316602485015250602090910201356044820152606401600060405180830381600087803b1580156132e157600080fd5b505af11580156132f5573d6000803e3d6000fd5b505050508061330390613c09565b9050613239565b5050505050505050565b6000613369826040518060400160405280602081526020017f5361666545524332303a206c6f772d6c6576656c2063616c6c206661696c6564815250856001600160a01b03166134079092919063ffffffff16565b8051909150156110be57808060200190518101906133879190613873565b6110be5760405162461bcd60e51b815260206004820152602a60248201527f5361666545524332303a204552433230206f7065726174696f6e20646964206e6044820152691bdd081cdd58d8d9595960b21b606482015260840161073c565b60006133f28284613b84565b90505b92915050565b60006133f28284613a77565b6060613416848460008561341e565b949350505050565b60608247101561347f5760405162461bcd60e51b815260206004820152602660248201527f416464726573733a20696e73756666696369656e742062616c616e636520666f6044820152651c8818d85b1b60d21b606482015260840161073c565b843b6134cd5760405162461bcd60e51b815260206004820152601d60248201527f416464726573733a2063616c6c20746f206e6f6e2d636f6e7472616374000000604482015260640161073c565b600080866001600160a01b031685876040516134e991906138ff565b60006040518083038185875af1925050503d8060008114613526576040519150601f19603f3d011682016040523d82523d6000602084013e61352b565b606091505b509150915061353b828286613546565b979650505050505050565b60608315613555575081612e84565b8251156135655782518084602001fd5b8160405162461bcd60e51b815260040161073c9190613977565b8280548282559060005260206000209081019282156135d4579160200282015b828111156135d457825182546001600160a01b0319166001600160a01b0390911617825560209092019160019091019061359f565b506135e09291506135e4565b5090565b5b808211156135e057600081556001016135e5565b80356001600160a01b038116811461361057600080fd5b919050565b60008083601f84011261362757600080fd5b50813567ffffffffffffffff81111561363f57600080fd5b6020830191508360208260051b850101111561365a57600080fd5b9250929050565b803561ffff8116811461361057600080fd5b60006020828403121561368557600080fd5b6133f2826135f9565b600080604083850312156136a157600080fd5b6136aa836135f9565b91506136b8602084016135f9565b90509250929050565b60008060008060008060a087890312156136da57600080fd5b6136e3876135f9565b95506136f1602088016135f9565b94506040870135935060608701359250608087013567ffffffffffffffff8082111561371c57600080fd5b818901915089601f83011261373057600080fd5b81358181111561373f57600080fd5b8a602082850101111561375157600080fd5b6020830194508093505050509295509295509295565b60008060008060006060868803121561377f57600080fd5b613788866135f9565b9450602086013567ffffffffffffffff808211156137a557600080fd5b6137b189838a01613615565b909650945060408801359150808211156137ca57600080fd5b506137d788828901613615565b969995985093965092949392505050565b600080604083850312156137fb57600080fd5b613804836135f9565b91506136b860208401613661565b6000806040838503121561382557600080fd5b61382e836135f9565b946020939093013593505050565b6000806040838503121561384f57600080fd5b613858836135f9565b9150602083013561386881613c7c565b809150509250929050565b60006020828403121561388557600080fd5b81518015158114612e8457600080fd5b6000602082840312156138a757600080fd5b6133f282613661565b6000602082840312156138c257600080fd5b5035919050565b6000602082840312156138db57600080fd5b5051919050565b6000602082840312156138f457600080fd5b8151612e8481613c7c565b60008251613911818460208701613bdd565b9190910192915050565b6001600160a01b03878116825286166020820152604081018590526060810184905260a06080820181905281018290526000828460c0840137600060c0848401015260c0601f19601f8501168301019050979650505050505050565b6020815260008251806020840152613996816040850160208701613bdd565b601f01601f19169190910160400192915050565b6020808252601a908201527f43616c6c6572206973206e6f742074686520476f7665726e6f72000000000000604082015260600190565b60208082526028908201527f43616c6c6572206973206e6f74207468652053747261746567697374206f722060408201526723b7bb32b93737b960c11b606082015260800190565b6020808252600e908201526d1499595b9d1c985b9d0818d85b1b60921b604082015260600190565b600061ffff808316818516808303821115613a6e57613a6e613c24565b01949350505050565b600082613a9457634e487b7160e01b600052601260045260246000fd5b500490565b600181815b80851115613ad4578160001904821115613aba57613aba613c24565b80851615613ac757918102915b93841c9390800290613a9e565b509250929050565b60006133f28383600082613af2575060016133f5565b81613aff575060006133f5565b8160018114613b155760028114613b1f57613b3b565b60019150506133f5565b60ff841115613b3057613b30613c24565b50506001821b6133f5565b5060208310610133831016604e8410600b8410161715613b5e575081810a6133f5565b613b688383613a99565b8060001904821115613b7c57613b7c613c24565b029392505050565b6000816000190483118215151615613b9e57613b9e613c24565b500290565b600061ffff83811690831681811015613bbe57613bbe613c24565b039392505050565b600082821015613bd857613bd8613c24565b500390565b60005b83811015613bf8578181015183820152602001613be0565b83811115610bf45750506000910152565b6000600019821415613c1d57613c1d613c24565b5060010190565b634e487b7160e01b600052601160045260246000fd5b634e487b7160e01b600052602160045260246000fd5b634e487b7160e01b600052603160045260246000fd5b634e487b7160e01b600052603260045260246000fd5b60ff81168114610c9957600080fdfe7bea13895fa79d2831e0a9e28edede30099005a50d652d8957cf8a607ee6ca4aa2646970667358221220e5cbb57892bcf5355ec63cc5f1508dd6c93972d23ea63aeadd23c9f8cebc3e8064736f6c634300080700337bea13895fa79d2831e0a9e28edede30099005a50d652d8957cf8a607ee6ca4a",
  "libraries": {},
  "devdoc": {
    "author": "Origin Protocol Inc",
    "kind": "dev",
    "methods": {
      "allowedSwapUndervalue()": {
        "returns": {
          "value": "Percentage in basis points."
        }
      },
      "approveStrategy(address)": {
        "params": {
          "_addr": "Address of the strategy to add"
        }
      },
      "cacheDecimals(address)": {
        "params": {
          "_asset": "Address of asset token"
        }
      },
      "depositToStrategy(address,address[],uint256[])": {
        "params": {
          "_amounts": "Array of amounts of each corresponding asset to deposit.",
          "_assets": "Array of asset address that will be deposited into the strategy.",
          "_strategyToAddress": "Address of the Strategy to deposit assets into."
        }
      },
      "removeAsset(address)": {
        "params": {
          "_asset": "Address of asset"
        }
      },
      "removeStrategy(address)": {
        "params": {
          "_addr": "Address of the strategy to remove"
        }
      },
      "setAdminImpl(address)": {
        "params": {
          "newImpl": "address of the implementation"
        }
      },
      "setAssetDefaultStrategy(address,address)": {
        "params": {
          "_asset": "Address of the asset",
          "_strategy": "Address of the Strategy"
        }
      },
      "setAutoAllocateThreshold(uint256)": {
        "params": {
          "_threshold": "OToken amount with 18 fixed decimals."
        }
      },
      "setNetOusdMintForStrategyThreshold(uint256)": {
        "params": {
          "_threshold": "OToken amount with 18 fixed decimals."
        }
      },
      "setOracleSlippage(address,uint16)": {
        "params": {
          "_allowedOracleSlippageBps": "allowed slippage from Oracle in basis points. eg 20 = 0.2%. Max 10%.",
          "_asset": "Address of the asset token."
        }
      },
      "setOusdMetaStrategy(address)": {
        "params": {
          "_ousdMetaStrategy": "Address of OToken metapool strategy"
        }
      },
      "setPriceProvider(address)": {
        "params": {
          "_priceProvider": "Address of price provider"
        }
      },
      "setRebaseThreshold(uint256)": {
        "params": {
          "_threshold": "OToken amount with 18 fixed decimals."
        }
      },
      "setRedeemFeeBps(uint256)": {
        "params": {
          "_redeemFeeBps": "Basis point fee to be charged"
        }
      },
      "setStrategistAddr(address)": {
        "params": {
          "_address": "Address of Strategist"
        }
      },
      "setSwapAllowedUndervalue(uint16)": {
        "params": {
          "_basis": "Percentage in basis points. eg 100 == 1%"
        }
      },
      "setSwapper(address)": {
        "params": {
          "_swapperAddr": "Address of the Swapper contract that implements the ISwapper interface."
        }
      },
      "setVaultBuffer(uint256)": {
        "params": {
          "_vaultBuffer": "Percentage using 18 decimals. 100% = 1e18."
        }
      },
      "supportAsset(address,uint8)": {
        "params": {
          "_asset": "Address of asset"
        }
      },
      "swapCollateral(address,address,uint256,uint256,bytes)": {
        "params": {
          "_data": "implementation specific data. eg 1Inch swap data",
          "_fromAsset": "The token address of the asset being sold by the vault.",
          "_fromAssetAmount": "The amount of assets being sold by the vault.",
          "_minToAssetAmount": "The minimum amount of assets to be purchased.",
          "_toAsset": "The token address of the asset being purchased by the vault."
        },
        "returns": {
          "toAssetAmount": "The amount of toAssets that was received from the swap"
        }
      },
      "transferGovernance(address)": {
        "params": {
          "_newGovernor": "Address of the new Governor"
        }
      },
      "transferToken(address,uint256)": {
        "params": {
          "_amount": "Amount of the asset to transfer",
          "_asset": "Address for the asset"
        }
      },
      "withdrawAllFromStrategy(address)": {
        "params": {
          "_strategyAddr": "Strategy address."
        }
      },
      "withdrawFromStrategy(address,address[],uint256[])": {
        "params": {
          "_amounts": "Array of amounts of each corresponding asset to withdraw.",
          "_assets": "Array of asset address that will be withdrawn from the strategy.",
          "_strategyFromAddress": "Address of the Strategy to withdraw assets from."
        }
      }
    },
    "title": "OETH Vault Contract",
    "version": 1
  },
  "userdoc": {
    "kind": "user",
    "methods": {
      "allowedSwapUndervalue()": {
        "notice": "Max allowed percentage the vault total value can drop below the OToken total supply in basis points when executing a collateral swap. For example 100 == 1%"
      },
      "approveStrategy(address)": {
        "notice": "Add a strategy to the Vault."
      },
      "assetDefaultStrategies(address)": {
        "notice": "Mapping of asset address to the Strategy that they should automatically"
      },
      "autoAllocateThreshold()": {
        "notice": "OToken mints over this amount automatically allocate funds. 18 decimals."
      },
      "cacheDecimals(address)": {
        "notice": "Cache decimals on OracleRouter for a particular asset. This action      is required before that asset's price can be accessed."
      },
      "capitalPaused()": {
        "notice": "pause operations that change the OToken supply. eg mint, redeem, allocate, mint/burn for strategy"
      },
      "claimGovernance()": {
        "notice": "Claim Governance of the contract to a new account (`newGovernor`). Can only be called by the new Governor."
      },
      "depositToStrategy(address,address[],uint256[])": {
        "notice": "Deposit multiple assets from the vault into the strategy."
      },
      "governor()": {
        "notice": "Returns the address of the current Governor."
      },
      "isGovernor()": {
        "notice": "Returns true if the caller is the current Governor."
      },
      "maxSupplyDiff()": {
        "notice": "Max difference between total supply and total value of assets. 18 decimals."
      },
      "netOusdMintForStrategyThreshold()": {
        "notice": "How much net total OTokens are allowed to be minted by all strategies"
      },
      "netOusdMintedForStrategy()": {
        "notice": "How much OTokens are currently minted by the strategy"
      },
      "ousdMetaStrategy()": {
        "notice": "Metapool strategy that is allowed to mint/burn OTokens without changing collateral"
      },
      "pauseCapital()": {
        "notice": "Set the deposit paused flag to true to prevent capital movement."
      },
      "pauseRebase()": {
        "notice": "Set the deposit paused flag to true to prevent rebasing."
      },
      "priceProvider()": {
        "notice": "Address of the Oracle price provider contract"
      },
      "rebasePaused()": {
        "notice": "pause rebasing if true"
      },
      "rebaseThreshold()": {
        "notice": "OToken mints over this amount automatically rebase. 18 decimals."
      },
      "redeemFeeBps()": {
        "notice": "Redemption fee in basis points. eg 50 = 0.5%"
      },
      "removeAsset(address)": {
        "notice": "Remove a supported asset from the Vault"
      },
      "removeStrategy(address)": {
        "notice": "Remove a strategy from the Vault."
      },
      "setAdminImpl(address)": {
        "notice": "set the implementation for the admin, this needs to be in a base class else we cannot set it"
      },
      "setAssetDefaultStrategy(address,address)": {
        "notice": "Set the default Strategy for an asset, i.e. the one which the asset will be automatically allocated to and withdrawn from"
      },
      "setAutoAllocateThreshold(uint256)": {
        "notice": "Sets the minimum amount of OTokens in a mint to trigger an automatic allocation of funds afterwords."
      },
      "setMaxSupplyDiff(uint256)": {
        "notice": "Sets the maximum allowable difference between total supply and backing assets' value."
      },
      "setNetOusdMintForStrategyThreshold(uint256)": {
        "notice": "Set maximum amount of OTokens that can at any point be minted and deployed to strategy (used only by ConvexOUSDMetaStrategy for now)."
      },
      "setOracleSlippage(address,uint16)": {
        "notice": "Set the allowed slippage from the Oracle price for collateral asset swaps."
      },
      "setOusdMetaStrategy(address)": {
        "notice": "Set OToken Metapool strategy"
      },
      "setPriceProvider(address)": {
        "notice": "Set address of price provider."
      },
      "setRebaseThreshold(uint256)": {
        "notice": "Set a minimum amount of OTokens in a mint or redeem that triggers a rebase"
      },
      "setRedeemFeeBps(uint256)": {
        "notice": "Set a fee in basis points to be charged for a redeem."
      },
      "setStrategistAddr(address)": {
        "notice": "Set address of Strategist"
      },
      "setSwapAllowedUndervalue(uint16)": {
        "notice": "Set max allowed percentage the vault total value can drop below the OToken total supply in basis points when executing collateral swaps."
      },
      "setSwapper(address)": {
        "notice": "Set the contract the performs swaps of collateral assets."
      },
      "setTrusteeAddress(address)": {
        "notice": "Sets the trusteeAddress that can receive a portion of yield.      Setting to the zero address disables this feature."
      },
      "setTrusteeFeeBps(uint256)": {
        "notice": "Sets the TrusteeFeeBps to the percentage of yield that should be      received in basis points."
      },
      "setVaultBuffer(uint256)": {
        "notice": "Set a buffer of assets to keep in the Vault to handle most redemptions without needing to spend gas unwinding assets from a Strategy."
      },
      "strategistAddr()": {
        "notice": "Address of the Strategist"
      },
      "supportAsset(address,uint8)": {
        "notice": "Add a supported asset to the contract, i.e. one that can be         to mint OTokens."
      },
      "swapCollateral(address,address,uint256,uint256,bytes)": {
        "notice": "Strategist swaps collateral assets sitting in the vault."
      },
      "swapper()": {
        "notice": "Contract that swaps the vault's collateral assets"
      },
      "transferGovernance(address)": {
        "notice": "Transfers Governance of the contract to a new account (`newGovernor`). Can only be called by the current Governor. Must be claimed for this to complete"
      },
      "transferToken(address,uint256)": {
        "notice": "Transfer token to governor. Intended for recovering tokens stuck in      contract, i.e. mistaken sends."
      },
      "trusteeAddress()": {
        "notice": "Trustee contract that can collect a percentage of yield"
      },
      "trusteeFeeBps()": {
        "notice": "Amount of yield collected in basis points. eg 2000 = 20%"
      },
      "unpauseCapital()": {
        "notice": "Set the deposit paused flag to false to enable capital movement."
      },
      "unpauseRebase()": {
        "notice": "Set the deposit paused flag to true to allow rebasing."
      },
      "vaultBuffer()": {
        "notice": "Percentage of assets to keep in Vault to handle (most) withdrawals. 100% = 1e18."
      },
      "withdrawAllFromStrategies()": {
        "notice": "Withdraws all assets from all the strategies and sends assets to the Vault."
      },
      "withdrawAllFromStrategy(address)": {
        "notice": "Withdraws all assets from the strategy and sends assets to the Vault."
      },
      "withdrawFromStrategy(address,address[],uint256[])": {
        "notice": "Withdraw multiple assets from the strategy to the vault."
      }
    },
    "version": 1
  },
  "storageLayout": {
    "storage": [
      {
        "astId": 25880,
        "contract": "contracts/vault/OETHVault.sol:OETHVault",
        "label": "initialized",
        "offset": 0,
        "slot": "0",
        "type": "t_bool"
      },
      {
        "astId": 25883,
        "contract": "contracts/vault/OETHVault.sol:OETHVault",
        "label": "initializing",
        "offset": 1,
        "slot": "0",
        "type": "t_bool"
      },
      {
        "astId": 25923,
        "contract": "contracts/vault/OETHVault.sol:OETHVault",
        "label": "______gap",
        "offset": 0,
        "slot": "1",
        "type": "t_array(t_uint256)50_storage"
      },
      {
        "astId": 30855,
        "contract": "contracts/vault/OETHVault.sol:OETHVault",
        "label": "assets",
        "offset": 0,
        "slot": "51",
        "type": "t_mapping(t_address,t_struct(Asset)30849_storage)"
      },
      {
        "astId": 30859,
        "contract": "contracts/vault/OETHVault.sol:OETHVault",
        "label": "allAssets",
        "offset": 0,
        "slot": "52",
        "type": "t_array(t_address)dyn_storage"
      },
      {
        "astId": 30870,
        "contract": "contracts/vault/OETHVault.sol:OETHVault",
        "label": "strategies",
        "offset": 0,
        "slot": "53",
        "type": "t_mapping(t_address,t_struct(Strategy)30864_storage)"
      },
      {
        "astId": 30874,
        "contract": "contracts/vault/OETHVault.sol:OETHVault",
        "label": "allStrategies",
        "offset": 0,
        "slot": "54",
        "type": "t_array(t_address)dyn_storage"
      },
      {
        "astId": 30877,
        "contract": "contracts/vault/OETHVault.sol:OETHVault",
        "label": "priceProvider",
        "offset": 0,
        "slot": "55",
        "type": "t_address"
      },
      {
        "astId": 30881,
        "contract": "contracts/vault/OETHVault.sol:OETHVault",
        "label": "rebasePaused",
        "offset": 20,
        "slot": "55",
        "type": "t_bool"
      },
      {
        "astId": 30885,
        "contract": "contracts/vault/OETHVault.sol:OETHVault",
        "label": "capitalPaused",
        "offset": 21,
        "slot": "55",
        "type": "t_bool"
      },
      {
        "astId": 30888,
        "contract": "contracts/vault/OETHVault.sol:OETHVault",
        "label": "redeemFeeBps",
        "offset": 0,
        "slot": "56",
        "type": "t_uint256"
      },
      {
        "astId": 30891,
        "contract": "contracts/vault/OETHVault.sol:OETHVault",
        "label": "vaultBuffer",
        "offset": 0,
        "slot": "57",
        "type": "t_uint256"
      },
      {
        "astId": 30894,
        "contract": "contracts/vault/OETHVault.sol:OETHVault",
        "label": "autoAllocateThreshold",
        "offset": 0,
        "slot": "58",
        "type": "t_uint256"
      },
      {
        "astId": 30897,
        "contract": "contracts/vault/OETHVault.sol:OETHVault",
        "label": "rebaseThreshold",
        "offset": 0,
        "slot": "59",
        "type": "t_uint256"
      },
      {
        "astId": 30901,
        "contract": "contracts/vault/OETHVault.sol:OETHVault",
        "label": "oUSD",
        "offset": 0,
        "slot": "60",
        "type": "t_contract(OUSD)24937"
      },
      {
        "astId": 30910,
        "contract": "contracts/vault/OETHVault.sol:OETHVault",
        "label": "_deprecated_rebaseHooksAddr",
        "offset": 0,
        "slot": "61",
        "type": "t_address"
      },
      {
        "astId": 30916,
        "contract": "contracts/vault/OETHVault.sol:OETHVault",
        "label": "_deprecated_uniswapAddr",
        "offset": 0,
        "slot": "62",
        "type": "t_address"
      },
      {
        "astId": 30923,
        "contract": "contracts/vault/OETHVault.sol:OETHVault",
        "label": "strategistAddr",
        "offset": 0,
        "slot": "63",
        "type": "t_address"
      },
      {
        "astId": 30928,
        "contract": "contracts/vault/OETHVault.sol:OETHVault",
        "label": "assetDefaultStrategies",
        "offset": 0,
        "slot": "64",
        "type": "t_mapping(t_address,t_address)"
      },
      {
        "astId": 30931,
        "contract": "contracts/vault/OETHVault.sol:OETHVault",
        "label": "maxSupplyDiff",
        "offset": 0,
        "slot": "65",
        "type": "t_uint256"
      },
      {
        "astId": 30934,
        "contract": "contracts/vault/OETHVault.sol:OETHVault",
        "label": "trusteeAddress",
        "offset": 0,
        "slot": "66",
        "type": "t_address"
      },
      {
        "astId": 30937,
        "contract": "contracts/vault/OETHVault.sol:OETHVault",
        "label": "trusteeFeeBps",
        "offset": 0,
        "slot": "67",
        "type": "t_uint256"
      },
      {
        "astId": 30941,
        "contract": "contracts/vault/OETHVault.sol:OETHVault",
        "label": "_deprecated_swapTokens",
        "offset": 0,
        "slot": "68",
        "type": "t_array(t_address)dyn_storage"
      },
      {
        "astId": 30951,
        "contract": "contracts/vault/OETHVault.sol:OETHVault",
        "label": "ousdMetaStrategy",
        "offset": 0,
        "slot": "69",
        "type": "t_address"
      },
      {
        "astId": 30955,
        "contract": "contracts/vault/OETHVault.sol:OETHVault",
        "label": "netOusdMintedForStrategy",
        "offset": 0,
        "slot": "70",
        "type": "t_int256"
      },
      {
        "astId": 30959,
        "contract": "contracts/vault/OETHVault.sol:OETHVault",
        "label": "netOusdMintForStrategyThreshold",
        "offset": 0,
        "slot": "71",
        "type": "t_uint256"
      },
      {
        "astId": 30980,
        "contract": "contracts/vault/OETHVault.sol:OETHVault",
        "label": "swapConfig",
        "offset": 0,
        "slot": "72",
        "type": "t_struct(SwapConfig)30970_storage"
      },
      {
        "astId": 30984,
        "contract": "contracts/vault/OETHVault.sol:OETHVault",
        "label": "isMintWhitelistedStrategy",
        "offset": 0,
        "slot": "73",
        "type": "t_mapping(t_address,t_bool)"
      },
      {
        "astId": 30988,
        "contract": "contracts/vault/OETHVault.sol:OETHVault",
        "label": "__gap",
        "offset": 0,
        "slot": "74",
        "type": "t_array(t_uint256)49_storage"
      }
    ],
    "types": {
      "t_address": {
        "encoding": "inplace",
        "label": "address",
        "numberOfBytes": "20"
      },
      "t_array(t_address)dyn_storage": {
        "base": "t_address",
        "encoding": "dynamic_array",
        "label": "address[]",
        "numberOfBytes": "32"
      },
      "t_array(t_uint256)49_storage": {
        "base": "t_uint256",
        "encoding": "inplace",
        "label": "uint256[49]",
        "numberOfBytes": "1568"
      },
      "t_array(t_uint256)50_storage": {
        "base": "t_uint256",
        "encoding": "inplace",
        "label": "uint256[50]",
        "numberOfBytes": "1600"
      },
      "t_bool": {
        "encoding": "inplace",
        "label": "bool",
        "numberOfBytes": "1"
      },
      "t_contract(OUSD)24937": {
        "encoding": "inplace",
        "label": "contract OUSD",
        "numberOfBytes": "20"
      },
      "t_enum(UnitConversion)30839": {
        "encoding": "inplace",
        "label": "enum VaultStorage.UnitConversion",
        "numberOfBytes": "1"
      },
      "t_int256": {
        "encoding": "inplace",
        "label": "int256",
        "numberOfBytes": "32"
      },
      "t_mapping(t_address,t_address)": {
        "encoding": "mapping",
        "key": "t_address",
        "label": "mapping(address => address)",
        "numberOfBytes": "32",
        "value": "t_address"
      },
      "t_mapping(t_address,t_bool)": {
        "encoding": "mapping",
        "key": "t_address",
        "label": "mapping(address => bool)",
        "numberOfBytes": "32",
        "value": "t_bool"
      },
      "t_mapping(t_address,t_struct(Asset)30849_storage)": {
        "encoding": "mapping",
        "key": "t_address",
        "label": "mapping(address => struct VaultStorage.Asset)",
        "numberOfBytes": "32",
        "value": "t_struct(Asset)30849_storage"
      },
      "t_mapping(t_address,t_struct(Strategy)30864_storage)": {
        "encoding": "mapping",
        "key": "t_address",
        "label": "mapping(address => struct VaultStorage.Strategy)",
        "numberOfBytes": "32",
        "value": "t_struct(Strategy)30864_storage"
      },
      "t_struct(Asset)30849_storage": {
        "encoding": "inplace",
        "label": "struct VaultStorage.Asset",
        "members": [
          {
            "astId": 30841,
            "contract": "contracts/vault/OETHVault.sol:OETHVault",
            "label": "isSupported",
            "offset": 0,
            "slot": "0",
            "type": "t_bool"
          },
          {
            "astId": 30844,
            "contract": "contracts/vault/OETHVault.sol:OETHVault",
            "label": "unitConversion",
            "offset": 1,
            "slot": "0",
            "type": "t_enum(UnitConversion)30839"
          },
          {
            "astId": 30846,
            "contract": "contracts/vault/OETHVault.sol:OETHVault",
            "label": "decimals",
            "offset": 2,
            "slot": "0",
            "type": "t_uint8"
          },
          {
            "astId": 30848,
            "contract": "contracts/vault/OETHVault.sol:OETHVault",
            "label": "allowedOracleSlippageBps",
            "offset": 3,
            "slot": "0",
            "type": "t_uint16"
          }
        ],
        "numberOfBytes": "32"
      },
      "t_struct(Strategy)30864_storage": {
        "encoding": "inplace",
        "label": "struct VaultStorage.Strategy",
        "members": [
          {
            "astId": 30861,
            "contract": "contracts/vault/OETHVault.sol:OETHVault",
            "label": "isSupported",
            "offset": 0,
            "slot": "0",
            "type": "t_bool"
          },
          {
            "astId": 30863,
            "contract": "contracts/vault/OETHVault.sol:OETHVault",
            "label": "_deprecated",
            "offset": 0,
            "slot": "1",
            "type": "t_uint256"
          }
        ],
        "numberOfBytes": "64"
      },
      "t_struct(SwapConfig)30970_storage": {
        "encoding": "inplace",
        "label": "struct VaultStorage.SwapConfig",
        "members": [
          {
            "astId": 30967,
            "contract": "contracts/vault/OETHVault.sol:OETHVault",
            "label": "swapper",
            "offset": 0,
            "slot": "0",
            "type": "t_address"
          },
          {
            "astId": 30969,
            "contract": "contracts/vault/OETHVault.sol:OETHVault",
            "label": "allowedUndervalueBps",
            "offset": 20,
            "slot": "0",
            "type": "t_uint16"
          }
        ],
        "numberOfBytes": "32"
      },
      "t_uint16": {
        "encoding": "inplace",
        "label": "uint16",
        "numberOfBytes": "2"
      },
      "t_uint256": {
        "encoding": "inplace",
        "label": "uint256",
        "numberOfBytes": "32"
      },
      "t_uint8": {
        "encoding": "inplace",
        "label": "uint8",
        "numberOfBytes": "1"
      }
    }
  }
}