{
  "address": "0x8A42E623b04258A006E455ed2244e490d492f255",
  "abi": [
    {
      "inputs": [
        {
          "internalType": "address",
          "name": "_weth",
          "type": "address"
        }
      ],
      "stateMutability": "nonpayable",
      "type": "constructor"
    },
    {
      "anonymous": false,
      "inputs": [
        {
          "indexed": false,
          "internalType": "uint256",
          "name": "_threshold",
          "type": "uint256"
        }
      ],
      "name": "AllocateThresholdUpdated",
      "type": "event"
    },
    {
      "anonymous": false,
      "inputs": [
        {
          "indexed": false,
          "internalType": "address",
          "name": "_asset",
          "type": "address"
        },
        {
          "indexed": false,
          "internalType": "address",
          "name": "_strategy",
          "type": "address"
        },
        {
          "indexed": false,
          "internalType": "uint256",
          "name": "_amount",
          "type": "uint256"
        }
      ],
      "name": "AssetAllocated",
      "type": "event"
    },
    {
      "anonymous": false,
      "inputs": [
        {
          "indexed": false,
          "internalType": "address",
          "name": "_asset",
          "type": "address"
        },
        {
          "indexed": false,
          "internalType": "address",
          "name": "_strategy",
          "type": "address"
        }
      ],
      "name": "AssetDefaultStrategyUpdated",
      "type": "event"
    },
    {
      "anonymous": false,
      "inputs": [
        {
          "indexed": false,
          "internalType": "address",
          "name": "_asset",
          "type": "address"
        }
      ],
      "name": "AssetRemoved",
      "type": "event"
    },
    {
      "anonymous": false,
      "inputs": [
        {
          "indexed": false,
          "internalType": "address",
          "name": "_asset",
          "type": "address"
        }
      ],
      "name": "AssetSupported",
      "type": "event"
    },
    {
      "anonymous": false,
      "inputs": [],
      "name": "CapitalPaused",
      "type": "event"
    },
    {
      "anonymous": false,
      "inputs": [],
      "name": "CapitalUnpaused",
      "type": "event"
    },
    {
      "anonymous": false,
      "inputs": [
        {
          "indexed": true,
          "internalType": "address",
          "name": "previousGovernor",
          "type": "address"
        },
        {
          "indexed": true,
          "internalType": "address",
          "name": "newGovernor",
          "type": "address"
        }
      ],
      "name": "GovernorshipTransferred",
      "type": "event"
    },
    {
      "anonymous": false,
      "inputs": [
        {
          "indexed": false,
          "internalType": "uint256",
          "name": "maxSupplyDiff",
          "type": "uint256"
        }
      ],
      "name": "MaxSupplyDiffChanged",
      "type": "event"
    },
    {
      "anonymous": false,
      "inputs": [
        {
          "indexed": false,
          "internalType": "address",
          "name": "_addr",
          "type": "address"
        },
        {
          "indexed": false,
          "internalType": "uint256",
          "name": "_value",
          "type": "uint256"
        }
      ],
      "name": "Mint",
      "type": "event"
    },
    {
      "anonymous": false,
      "inputs": [
        {
          "indexed": false,
          "internalType": "uint256",
          "name": "_threshold",
          "type": "uint256"
        }
      ],
      "name": "NetOusdMintForStrategyThresholdChanged",
      "type": "event"
    },
    {
      "anonymous": false,
      "inputs": [
        {
          "indexed": false,
          "internalType": "address",
          "name": "_ousdMetaStrategy",
          "type": "address"
        }
      ],
      "name": "OusdMetaStrategyUpdated",
      "type": "event"
    },
    {
      "anonymous": false,
      "inputs": [
        {
          "indexed": true,
          "internalType": "address",
          "name": "previousGovernor",
          "type": "address"
        },
        {
          "indexed": true,
          "internalType": "address",
          "name": "newGovernor",
          "type": "address"
        }
      ],
      "name": "PendingGovernorshipTransfer",
      "type": "event"
    },
    {
      "anonymous": false,
      "inputs": [
        {
          "indexed": false,
          "internalType": "address",
          "name": "_priceProvider",
          "type": "address"
        }
      ],
      "name": "PriceProviderUpdated",
      "type": "event"
    },
    {
      "anonymous": false,
      "inputs": [],
      "name": "RebasePaused",
      "type": "event"
    },
    {
      "anonymous": false,
      "inputs": [
        {
          "indexed": false,
          "internalType": "uint256",
          "name": "_threshold",
          "type": "uint256"
        }
      ],
      "name": "RebaseThresholdUpdated",
      "type": "event"
    },
    {
      "anonymous": false,
      "inputs": [],
      "name": "RebaseUnpaused",
      "type": "event"
    },
    {
      "anonymous": false,
      "inputs": [
        {
          "indexed": false,
          "internalType": "address",
          "name": "_addr",
          "type": "address"
        },
        {
          "indexed": false,
          "internalType": "uint256",
          "name": "_value",
          "type": "uint256"
        }
      ],
      "name": "Redeem",
      "type": "event"
    },
    {
      "anonymous": false,
      "inputs": [
        {
          "indexed": false,
          "internalType": "uint256",
          "name": "_redeemFeeBps",
          "type": "uint256"
        }
      ],
      "name": "RedeemFeeUpdated",
      "type": "event"
    },
    {
      "anonymous": false,
      "inputs": [
        {
          "indexed": false,
          "internalType": "address",
          "name": "_address",
          "type": "address"
        }
      ],
      "name": "StrategistUpdated",
      "type": "event"
    },
    {
      "anonymous": false,
      "inputs": [
        {
          "indexed": true,
          "internalType": "address",
          "name": "strategy",
          "type": "address"
        }
      ],
      "name": "StrategyAddedToMintWhitelist",
      "type": "event"
    },
    {
      "anonymous": false,
      "inputs": [
        {
          "indexed": false,
          "internalType": "address",
          "name": "_addr",
          "type": "address"
        }
      ],
      "name": "StrategyApproved",
      "type": "event"
    },
    {
      "anonymous": false,
      "inputs": [
        {
          "indexed": false,
          "internalType": "address",
          "name": "_addr",
          "type": "address"
        }
      ],
      "name": "StrategyRemoved",
      "type": "event"
    },
    {
      "anonymous": false,
      "inputs": [
        {
          "indexed": true,
          "internalType": "address",
          "name": "strategy",
          "type": "address"
        }
      ],
      "name": "StrategyRemovedFromMintWhitelist",
      "type": "event"
    },
    {
      "anonymous": false,
      "inputs": [
        {
          "indexed": false,
          "internalType": "uint256",
          "name": "_basis",
          "type": "uint256"
        }
      ],
      "name": "SwapAllowedUndervalueChanged",
      "type": "event"
    },
    {
      "anonymous": false,
      "inputs": [
        {
          "indexed": false,
          "internalType": "address",
          "name": "_asset",
          "type": "address"
        },
        {
          "indexed": false,
          "internalType": "uint256",
          "name": "_basis",
          "type": "uint256"
        }
      ],
      "name": "SwapSlippageChanged",
      "type": "event"
    },
    {
      "anonymous": false,
      "inputs": [
        {
          "indexed": true,
          "internalType": "address",
          "name": "_fromAsset",
          "type": "address"
        },
        {
          "indexed": true,
          "internalType": "address",
          "name": "_toAsset",
          "type": "address"
        },
        {
          "indexed": false,
          "internalType": "uint256",
          "name": "_fromAssetAmount",
          "type": "uint256"
        },
        {
          "indexed": false,
          "internalType": "uint256",
          "name": "_toAssetAmount",
          "type": "uint256"
        }
      ],
      "name": "Swapped",
      "type": "event"
    },
    {
      "anonymous": false,
      "inputs": [
        {
          "indexed": false,
          "internalType": "address",
          "name": "_address",
          "type": "address"
        }
      ],
      "name": "SwapperChanged",
      "type": "event"
    },
    {
      "anonymous": false,
      "inputs": [
        {
          "indexed": false,
          "internalType": "address",
          "name": "_address",
          "type": "address"
        }
      ],
      "name": "TrusteeAddressChanged",
      "type": "event"
    },
    {
      "anonymous": false,
      "inputs": [
        {
          "indexed": false,
          "internalType": "uint256",
          "name": "_basis",
          "type": "uint256"
        }
      ],
      "name": "TrusteeFeeBpsChanged",
      "type": "event"
    },
    {
      "anonymous": false,
      "inputs": [
        {
          "indexed": false,
          "internalType": "uint256",
          "name": "_vaultBuffer",
          "type": "uint256"
        }
      ],
      "name": "VaultBufferUpdated",
      "type": "event"
    },
    {
      "anonymous": false,
      "inputs": [
        {
          "indexed": false,
          "internalType": "address",
          "name": "_to",
          "type": "address"
        },
        {
          "indexed": false,
          "internalType": "uint256",
          "name": "_yield",
          "type": "uint256"
        },
        {
          "indexed": false,
          "internalType": "uint256",
          "name": "_fee",
          "type": "uint256"
        }
      ],
      "name": "YieldDistribution",
      "type": "event"
    },
    {
      "stateMutability": "nonpayable",
      "type": "fallback"
    },
    {
      "inputs": [],
      "name": "allocate",
      "outputs": [],
      "stateMutability": "nonpayable",
      "type": "function"
    },
    {
      "inputs": [
        {
          "internalType": "address",
          "name": "",
          "type": "address"
        }
      ],
      "name": "assetDefaultStrategies",
      "outputs": [
        {
          "internalType": "address",
          "name": "",
          "type": "address"
        }
      ],
      "stateMutability": "view",
      "type": "function"
    },
    {
      "inputs": [],
      "name": "autoAllocateThreshold",
      "outputs": [
        {
          "internalType": "uint256",
          "name": "",
          "type": "uint256"
        }
      ],
      "stateMutability": "view",
      "type": "function"
    },
    {
      "inputs": [
        {
          "internalType": "uint256",
          "name": "amount",
          "type": "uint256"
        }
      ],
      "name": "burnForStrategy",
      "outputs": [],
      "stateMutability": "nonpayable",
      "type": "function"
    },
    {
      "inputs": [],
      "name": "cacheWETHAssetIndex",
      "outputs": [],
      "stateMutability": "nonpayable",
      "type": "function"
    },
    {
      "inputs": [
        {
          "internalType": "uint256",
          "name": "_amount",
          "type": "uint256"
        }
      ],
      "name": "calculateRedeemOutputs",
      "outputs": [
        {
          "internalType": "uint256[]",
          "name": "",
          "type": "uint256[]"
        }
      ],
      "stateMutability": "view",
      "type": "function"
    },
    {
      "inputs": [],
      "name": "capitalPaused",
      "outputs": [
        {
          "internalType": "bool",
          "name": "",
          "type": "bool"
        }
      ],
      "stateMutability": "view",
      "type": "function"
    },
    {
      "inputs": [
        {
          "internalType": "address",
          "name": "_asset",
          "type": "address"
        }
      ],
      "name": "checkBalance",
      "outputs": [
        {
          "internalType": "uint256",
          "name": "",
          "type": "uint256"
        }
      ],
      "stateMutability": "view",
      "type": "function"
    },
    {
      "inputs": [],
      "name": "claimGovernance",
      "outputs": [],
      "stateMutability": "nonpayable",
      "type": "function"
    },
    {
      "inputs": [],
      "name": "getAllAssets",
      "outputs": [
        {
          "internalType": "address[]",
          "name": "",
          "type": "address[]"
        }
      ],
      "stateMutability": "view",
      "type": "function"
    },
    {
      "inputs": [],
      "name": "getAllStrategies",
      "outputs": [
        {
          "internalType": "address[]",
          "name": "",
          "type": "address[]"
        }
      ],
      "stateMutability": "view",
      "type": "function"
    },
    {
      "inputs": [
        {
          "internalType": "address",
          "name": "_asset",
          "type": "address"
        }
      ],
      "name": "getAssetConfig",
      "outputs": [
        {
          "components": [
            {
              "internalType": "bool",
              "name": "isSupported",
              "type": "bool"
            },
            {
              "internalType": "enum VaultStorage.UnitConversion",
              "name": "unitConversion",
              "type": "uint8"
            },
            {
              "internalType": "uint8",
              "name": "decimals",
              "type": "uint8"
            },
            {
              "internalType": "uint16",
              "name": "allowedOracleSlippageBps",
              "type": "uint16"
            }
          ],
          "internalType": "struct VaultStorage.Asset",
          "name": "config",
          "type": "tuple"
        }
      ],
      "stateMutability": "view",
      "type": "function"
    },
    {
      "inputs": [],
      "name": "getAssetCount",
      "outputs": [
        {
          "internalType": "uint256",
          "name": "",
          "type": "uint256"
        }
      ],
      "stateMutability": "view",
      "type": "function"
    },
    {
      "inputs": [],
      "name": "getStrategyCount",
      "outputs": [
        {
          "internalType": "uint256",
          "name": "",
          "type": "uint256"
        }
      ],
      "stateMutability": "view",
      "type": "function"
    },
    {
      "inputs": [],
      "name": "governor",
      "outputs": [
        {
          "internalType": "address",
          "name": "",
          "type": "address"
        }
      ],
      "stateMutability": "view",
      "type": "function"
    },
    {
      "inputs": [
        {
          "internalType": "address",
          "name": "_priceProvider",
          "type": "address"
        },
        {
          "internalType": "address",
          "name": "_oToken",
          "type": "address"
        }
      ],
      "name": "initialize",
      "outputs": [],
      "stateMutability": "nonpayable",
      "type": "function"
    },
    {
      "inputs": [],
      "name": "isGovernor",
      "outputs": [
        {
          "internalType": "bool",
          "name": "",
          "type": "bool"
        }
      ],
      "stateMutability": "view",
      "type": "function"
    },
    {
      "inputs": [
        {
          "internalType": "address",
          "name": "",
          "type": "address"
        }
      ],
      "name": "isMintWhitelistedStrategy",
      "outputs": [
        {
          "internalType": "bool",
          "name": "",
          "type": "bool"
        }
      ],
      "stateMutability": "view",
      "type": "function"
    },
    {
      "inputs": [
        {
          "internalType": "address",
          "name": "_asset",
          "type": "address"
        }
      ],
      "name": "isSupportedAsset",
      "outputs": [
        {
          "internalType": "bool",
          "name": "",
          "type": "bool"
        }
      ],
      "stateMutability": "view",
      "type": "function"
    },
    {
      "inputs": [],
      "name": "maxSupplyDiff",
      "outputs": [
        {
          "internalType": "uint256",
          "name": "",
          "type": "uint256"
        }
      ],
      "stateMutability": "view",
      "type": "function"
    },
    {
      "inputs": [
        {
          "internalType": "address",
          "name": "_asset",
          "type": "address"
        },
        {
          "internalType": "uint256",
          "name": "_amount",
          "type": "uint256"
        },
        {
          "internalType": "uint256",
          "name": "_minimumOusdAmount",
          "type": "uint256"
        }
      ],
      "name": "mint",
      "outputs": [],
      "stateMutability": "nonpayable",
      "type": "function"
    },
    {
      "inputs": [
        {
          "internalType": "uint256",
          "name": "amount",
          "type": "uint256"
        }
      ],
      "name": "mintForStrategy",
      "outputs": [],
      "stateMutability": "nonpayable",
      "type": "function"
    },
    {
      "inputs": [],
      "name": "netOusdMintForStrategyThreshold",
      "outputs": [
        {
          "internalType": "uint256",
          "name": "",
          "type": "uint256"
        }
      ],
      "stateMutability": "view",
      "type": "function"
    },
    {
      "inputs": [],
      "name": "netOusdMintedForStrategy",
      "outputs": [
        {
          "internalType": "int256",
          "name": "",
          "type": "int256"
        }
      ],
      "stateMutability": "view",
      "type": "function"
    },
    {
      "inputs": [],
      "name": "ousdMetaStrategy",
      "outputs": [
        {
          "internalType": "address",
          "name": "",
          "type": "address"
        }
      ],
      "stateMutability": "view",
      "type": "function"
    },
    {
      "inputs": [],
      "name": "priceProvider",
      "outputs": [
        {
          "internalType": "address",
          "name": "",
          "type": "address"
        }
      ],
      "stateMutability": "view",
      "type": "function"
    },
    {
      "inputs": [
        {
          "internalType": "address",
          "name": "asset",
          "type": "address"
        }
      ],
      "name": "priceUnitMint",
      "outputs": [
        {
          "internalType": "uint256",
          "name": "price",
          "type": "uint256"
        }
      ],
      "stateMutability": "view",
      "type": "function"
    },
    {
      "inputs": [
        {
          "internalType": "address",
          "name": "asset",
          "type": "address"
        }
      ],
      "name": "priceUnitRedeem",
      "outputs": [
        {
          "internalType": "uint256",
          "name": "price",
          "type": "uint256"
        }
      ],
      "stateMutability": "view",
      "type": "function"
    },
    {
      "inputs": [],
      "name": "rebase",
      "outputs": [],
      "stateMutability": "nonpayable",
      "type": "function"
    },
    {
      "inputs": [],
      "name": "rebasePaused",
      "outputs": [
        {
          "internalType": "bool",
          "name": "",
          "type": "bool"
        }
      ],
      "stateMutability": "view",
      "type": "function"
    },
    {
      "inputs": [],
      "name": "rebaseThreshold",
      "outputs": [
        {
          "internalType": "uint256",
          "name": "",
          "type": "uint256"
        }
      ],
      "stateMutability": "view",
      "type": "function"
    },
    {
      "inputs": [
        {
          "internalType": "uint256",
          "name": "_amount",
          "type": "uint256"
        },
        {
          "internalType": "uint256",
          "name": "_minimumUnitAmount",
          "type": "uint256"
        }
      ],
      "name": "redeem",
      "outputs": [],
      "stateMutability": "nonpayable",
      "type": "function"
    },
    {
      "inputs": [
        {
          "internalType": "uint256",
          "name": "_minimumUnitAmount",
          "type": "uint256"
        }
      ],
      "name": "redeemAll",
      "outputs": [],
      "stateMutability": "nonpayable",
      "type": "function"
    },
    {
      "inputs": [],
      "name": "redeemFeeBps",
      "outputs": [
        {
          "internalType": "uint256",
          "name": "",
          "type": "uint256"
        }
      ],
      "stateMutability": "view",
      "type": "function"
    },
    {
      "inputs": [
        {
          "internalType": "address",
          "name": "newImpl",
          "type": "address"
        }
      ],
      "name": "setAdminImpl",
      "outputs": [],
      "stateMutability": "nonpayable",
      "type": "function"
    },
    {
      "inputs": [],
      "name": "strategistAddr",
      "outputs": [
        {
          "internalType": "address",
          "name": "",
          "type": "address"
        }
      ],
      "stateMutability": "view",
      "type": "function"
    },
    {
      "inputs": [],
      "name": "totalValue",
      "outputs": [
        {
          "internalType": "uint256",
          "name": "value",
          "type": "uint256"
        }
      ],
      "stateMutability": "view",
      "type": "function"
    },
    {
      "inputs": [
        {
          "internalType": "address",
          "name": "_newGovernor",
          "type": "address"
        }
      ],
      "name": "transferGovernance",
      "outputs": [],
      "stateMutability": "nonpayable",
      "type": "function"
    },
    {
      "inputs": [],
      "name": "trusteeAddress",
      "outputs": [
        {
          "internalType": "address",
          "name": "",
          "type": "address"
        }
      ],
      "stateMutability": "view",
      "type": "function"
    },
    {
      "inputs": [],
      "name": "trusteeFeeBps",
      "outputs": [
        {
          "internalType": "uint256",
          "name": "",
          "type": "uint256"
        }
      ],
      "stateMutability": "view",
      "type": "function"
    },
    {
      "inputs": [],
      "name": "vaultBuffer",
      "outputs": [
        {
          "internalType": "uint256",
          "name": "",
          "type": "uint256"
        }
      ],
      "stateMutability": "view",
      "type": "function"
    },
    {
      "inputs": [],
      "name": "weth",
      "outputs": [
        {
          "internalType": "address",
          "name": "",
          "type": "address"
        }
      ],
      "stateMutability": "view",
      "type": "function"
    },
    {
      "inputs": [],
      "name": "wethAssetIndex",
      "outputs": [
        {
          "internalType": "uint256",
          "name": "",
          "type": "uint256"
        }
      ],
      "stateMutability": "view",
      "type": "function"
    }
  ],
  "transactionHash": "0x9fc2c4fd1c6755fecd303623fa284c59b08732e1f9296a529e3e20d0209430dc",
  "args": [
    "0x4200000000000000000000000000000000000006"
  ],
  "numDeployments": 1,
  "solcInputHash": "b945fb8cc2e5244491b93263adf4bfae",
  "bytecode": "0x6037805461ffff60a01b1916600160a81b179055603d80546001600160a01b0319908116909155603e805482169055603f80548216905560458054909116905560006046819055604781905560e060405260a081905260c052604880546001600160b01b03191690553480156200007557600080fd5b506040516200358638038062003586833981016040819052620000989162000110565b80620000b1336000805160206200356683398151915255565b60008051602062003566833981519152546040516001600160a01b03909116906000907fc7c0c772add429241571afb3805861fb3cfa2af374534088b76cdb4325a87e9a908290a360601b6001600160601b0319166080525062000142565b6000602082840312156200012357600080fd5b81516001600160a01b03811681146200013b57600080fd5b9392505050565b60805160601c6133cd620001996000396000818161035a01528181610752015281816107c50152818161135301528181611d4301528181611f1d01528181611fb101528181611fe7015261203b01526133cd6000f3fe608060405234801561001057600080fd5b50600436106102695760003560e01c80636217f3ea11610151578063ab80dafb116100c3578063c7af335211610087578063c7af335214610573578063d38bfff41461057b578063d4c3eea01461058e578063e45cc9f014610596578063e6cc54321461059f578063fc0cfeee146105b357610269565b8063ab80dafb14610535578063abaa991614610548578063af14052c14610550578063b888879e14610558578063c3b288641461056b57610269565b80637cbc2373116101155780637cbc2373146104b35780638e510b52146104c65780639be918e6146104cf5780639fa1826e146104fb578063a0aead4d14610504578063a403e4d51461050c57610269565b80636217f3ea1461044457806367bd7ba3146104575780636ec3ab67146104775780637136a7a6146104975780637a2202f3146104aa57610269565b806344c54707116101ea57806353ca9f24116101ae57806353ca9f24146103e657806354c6d858146103fa578063570d8e1d146104035780635b60f9fc146104165780635d36b190146104295780635f5152261461043157610269565b806344c547071461037c5780634530820a14610384578063485cc955146103b757806349c1d54d146103ca57806352d38e5d146103dd57610269565b8063207134b011610231578063207134b01461031c5780632acada4d1461032557806331e19cfa1461033a5780633b8fe28d146103425780633fc8cef31461035557610269565b806309f6442c146102af5780630c340a24146102cb578063156e29f6146102eb57806318ce56bd146103005780631edfe3da14610313575b7fa2bd3d3cf188a41358c8b401076eb59066b09dec5775650c0de4c55187d17bd9366000803760008036600084545af43d6000803e8080156102aa573d6000f35b3d6000fd5b6102b860385481565b6040519081526020015b60405180910390f35b6102d36105c6565b6040516001600160a01b0390911681526020016102c2565b6102fe6102f9366004612eea565b6105e3565b005b6045546102d3906001600160a01b031681565b6102b860395481565b6102b860435481565b61032d610661565b6040516102c29190612fc8565b6036546102b8565b6102b8610350366004612e9c565b6106c3565b6102d37f000000000000000000000000000000000000000000000000000000000000000081565b6102fe61071e565b6103a7610392366004612e9c565b60496020526000908152604090205460ff1681565b60405190151581526020016102c2565b6102fe6103c5366004612eb7565b610867565b6042546102d3906001600160a01b031681565b6102b8603b5481565b6037546103a790600160a01b900460ff1681565b6102b8607b5481565b603f546102d3906001600160a01b031681565b6102b8610424366004612e9c565b610a69565b6102fe610a92565b6102b861043f366004612e9c565b610b38565b6102fe610452366004612f3f565b610b49565b61046a610465366004612f3f565b610d15565b6040516102c29190613015565b61048a610485366004612e9c565b610d20565b6040516102c29190613107565b6102fe6104a5366004612f3f565b610dc6565b6102b860475481565b6102fe6104c1366004612f71565b610eb1565b6102b860415481565b6103a76104dd366004612e9c565b6001600160a01b031660009081526033602052604090205460ff1690565b6102b8603a5481565b6034546102b8565b6102d361051a366004612e9c565b6040602081905260009182529020546001600160a01b031681565b6102fe610543366004612f3f565b610f24565b6102fe6110bb565b6102fe61112a565b6037546102d3906001600160a01b031681565b61032d611170565b6103a76111d0565b6102fe610589366004612e9c565b611201565b6102b86112a5565b6102b860465481565b6037546103a790600160a81b900460ff1681565b6102fe6105c1366004612e9c565b6112af565b60006105de6000805160206133788339815191525490565b905090565b603754600160a81b900460ff16156106165760405162461bcd60e51b815260040161060d906130b7565b60405180910390fd5b600080516020613358833981519152805460028114156106485760405162461bcd60e51b815260040161060d906130df565b60028255610657858585611351565b5060019055505050565b606060348054806020026020016040519081016040528092919081815260200182805480156106b957602002820191906000526020600020905b81546001600160a01b0316815260019091019060200180831161069b575b5050505050905090565b6000806106ec6106e66106d585611561565b670de0b6b3a76400009060126115cb565b8461162d565b9050670de0b6b3a764000081610703856001611789565b61070d9190613282565b6107179190613175565b9392505050565b6107266111d0565b6107425760405162461bcd60e51b815260040161060d90613080565b60345460005b818110156107c2577f00000000000000000000000000000000000000000000000000000000000000006001600160a01b03166034828154811061078d5761078d61332b565b6000918252602090912001546001600160a01b031614156107b257607b8190556107c2565b6107bb816132e4565b9050610748565b507f00000000000000000000000000000000000000000000000000000000000000006001600160a01b03166034607b54815481106108025761080261332b565b6000918252602090912001546001600160a01b0316146108645760405162461bcd60e51b815260206004820152601860248201527f496e76616c6964205745544820417373657420496e6465780000000000000000604482015260640161060d565b50565b61086f6111d0565b61088b5760405162461bcd60e51b815260040161060d90613080565b600054610100900460ff16806108a4575060005460ff16155b6109075760405162461bcd60e51b815260206004820152602e60248201527f496e697469616c697a61626c653a20636f6e747261637420697320616c72656160448201526d191e481a5b9a5d1a585b1a5e995960921b606482015260840161060d565b600054610100900460ff16158015610929576000805461ffff19166101011790555b6001600160a01b03831661097f5760405162461bcd60e51b815260206004820152601d60248201527f507269636550726f76696465722061646472657373206973207a65726f000000604482015260640161060d565b6001600160a01b0382166109ce5760405162461bcd60e51b81526020600482015260166024820152756f546f6b656e2061646472657373206973207a65726f60501b604482015260640161060d565b603c80546001600160a01b038481166001600160a01b031990921691909117909155603780546001600160b01b03191691851691909117600160a81b17905560006038819055603981905569054b40b1f852bda00000603a55683635c9adc5dea00000603b556040805191825260208201908190529051610a5191603691612e0b565b508015610a64576000805461ff00191690555b505050565b600080610a7b6106e66106d585611561565b9050670de0b6b3a764000081610703856000611789565b7f44c4d30b2eaad5130ad70c3ba6972730566f3e6359ab83e800d905c61b1c51db546001600160a01b0316336001600160a01b031614610b2d5760405162461bcd60e51b815260206004820152603060248201527f4f6e6c79207468652070656e64696e6720476f7665726e6f722063616e20636f60448201526f6d706c6574652074686520636c61696d60801b606482015260840161060d565b610b3633611a7b565b565b6000610b4382611b3c565b92915050565b603754600160a81b900460ff1615610b735760405162461bcd60e51b815260040161060d906130b7565b3360009081526035602052604090205460ff161515600114610bce5760405162461bcd60e51b8152602060048201526014602482015273556e737570706f7274656420737472617465677960601b604482015260640161060d565b3360009081526049602052604090205460ff161515600114610c2d5760405162461bcd60e51b81526020600482015260186024820152774e6f742077686974656c697374656420737472617465677960401b604482015260640161060d565b6001600160ff1b038110610c755760405162461bcd60e51b815260206004820152600f60248201526e082dadeeadce840e8dede40d0d2ced608b1b604482015260640161060d565b7f222838db2794d11532d940e8dec38ae307ed0b63cd97c233322e221f998767a63382604051610ca6929190612faf565b60405180910390a1603c54604051632770a7eb60e21b81526001600160a01b0390911690639dc29fac90610ce09033908590600401612faf565b600060405180830381600087803b158015610cfa57600080fd5b505af1158015610d0e573d6000803e3d6000fd5b5050505050565b6060610b4382611d0b565b604080516080808201835260008083526020808401829052838501829052606084018290526001600160a01b038616825260338152908490208451928301909452835460ff808216151584529394929391840191610100909104166001811115610d8c57610d8c613315565b6001811115610d9d57610d9d613315565b8152905462010000810460ff1660208301526301000000900461ffff1660409091015292915050565b603754600160a81b900460ff1615610df05760405162461bcd60e51b815260040161060d906130b7565b60008051602061335883398151915280546002811415610e225760405162461bcd60e51b815260040161060d906130df565b60028255603c546040516370a0823160e01b8152336004820152610ea9916001600160a01b0316906370a082319060240160206040518083038186803b158015610e6b57600080fd5b505afa158015610e7f573d6000803e3d6000fd5b505050506040513d601f19601f82011682018060405250810190610ea39190612f58565b84611e4c565b506001905550565b603754600160a81b900460ff1615610edb5760405162461bcd60e51b815260040161060d906130b7565b60008051602061335883398151915280546002811415610f0d5760405162461bcd60e51b815260040161060d906130df565b60028255610f1b8484611e4c565b50600190555050565b603754600160a81b900460ff1615610f4e5760405162461bcd60e51b815260040161060d906130b7565b3360009081526035602052604090205460ff161515600114610fa95760405162461bcd60e51b8152602060048201526014602482015273556e737570706f7274656420737472617465677960601b604482015260640161060d565b3360009081526049602052604090205460ff1615156001146110085760405162461bcd60e51b81526020600482015260186024820152774e6f742077686974656c697374656420737472617465677960401b604482015260640161060d565b6001600160ff1b0381106110505760405162461bcd60e51b815260206004820152600f60248201526e082dadeeadce840e8dede40d0d2ced608b1b604482015260640161060d565b7f0f6798a560793a54c3bcfe86a93cde1e73087d944c0ea20544137d41213968853382604051611081929190612faf565b60405180910390a1603c546040516340c10f1960e01b81526001600160a01b03909116906340c10f1990610ce09033908590600401612faf565b603754600160a81b900460ff16156110e55760405162461bcd60e51b815260040161060d906130b7565b600080516020613358833981519152805460028114156111175760405162461bcd60e51b815260040161060d906130df565b60028255611123612158565b5060019055565b6000805160206133588339815191528054600281141561115c5760405162461bcd60e51b815260040161060d906130df565b600282556111686123cc565b505060019055565b606060368054806020026020016040519081016040528092919081815260200182805480156106b9576020028201919060005260206000209081546001600160a01b0316815260019091019060200180831161069b575050505050905090565b60006111e86000805160206133788339815191525490565b6001600160a01b0316336001600160a01b031614905090565b6112096111d0565b6112255760405162461bcd60e51b815260040161060d90613080565b61124d817f44c4d30b2eaad5130ad70c3ba6972730566f3e6359ab83e800d905c61b1c51db55565b806001600160a01b031661126d6000805160206133788339815191525490565b6001600160a01b03167fa39cc5eb22d0f34d8beaefee8a3f17cc229c1a1d1ef87a5ad47313487b1c4f0d60405160405180910390a350565b60006105de612707565b6112b76111d0565b6112d35760405162461bcd60e51b815260040161060d90613080565b803b61132d5760405162461bcd60e51b8152602060048201526024808201527f6e657720696d706c656d656e746174696f6e206973206e6f74206120636f6e746044820152631c9858dd60e21b606482015260840161060d565b7fa2bd3d3cf188a41358c8b401076eb59066b09dec5775650c0de4c55187d17bd955565b7f00000000000000000000000000000000000000000000000000000000000000006001600160a01b0316836001600160a01b0316146113d25760405162461bcd60e51b815260206004820152601d60248201527f556e737570706f7274656420617373657420666f72206d696e74696e67000000604482015260640161060d565b600082116114225760405162461bcd60e51b815260206004820152601d60248201527f416d6f756e74206d7573742062652067726561746572207468616e2030000000604482015260640161060d565b808210156114725760405162461bcd60e51b815260206004820152601e60248201527f4d696e7420616d6f756e74206c6f776572207468616e206d696e696d756d0000604482015260640161060d565b7f0f6798a560793a54c3bcfe86a93cde1e73087d944c0ea20544137d412139688533836040516114a3929190612faf565b60405180910390a1603754600160a01b900460ff161580156114c75750603b548210155b156114d6576114d46123cc565b505b603c546040516340c10f1960e01b81526001600160a01b03909116906340c10f19906115089033908690600401612faf565b600060405180830381600087803b15801561152257600080fd5b505af1158015611536573d6000803e3d6000fd5b50611550925050506001600160a01b038416333085612723565b603a548210610a6457610a64612158565b6001600160a01b03811660009081526033602052604090205462010000900460ff16806115c65760405162461bcd60e51b8152602060048201526013602482015272111958da5b585b1cc81b9bdd0818d858da1959606a1b604482015260640161060d565b919050565b6000818311156115fb576115f46115e283856132a1565b6115ed90600a6131da565b859061278e565b9350611625565b818310156116255761162261161084846132a1565b61161b90600a6131da565b859061279a565b93505b509192915050565b6001600160a01b038116600090815260336020526040812054610100900460ff168181600181111561166157611661613315565b14156116855761167d601261167585611561565b8691906115cb565b915050610b43565b600181600181111561169957611699613315565b141561173a576000836001600160a01b031663e6aa216c6040518163ffffffff1660e01b815260040160206040518083038186803b1580156116da57600080fd5b505afa1580156116ee573d6000803e3d6000fd5b505050506040513d601f19601f820116820180604052508101906117129190612f58565b9050670de0b6b3a76400006117278287613282565b6117319190613175565b92505050610b43565b60405162461bcd60e51b815260206004820152601b60248201527f556e737570706f7274656420636f6e76657273696f6e20747970650000000000604482015260640161060d565b5092915050565b6001600160a01b038281166000818152603360205260408082205460375491516315d5220f60e31b81526004810194909452919361010090920460ff169291169063aea910789060240160206040518083038186803b1580156117eb57600080fd5b505afa1580156117ff573d6000803e3d6000fd5b505050506040513d601f19601f820116820180604052508101906118239190612f58565b9150600181600181111561183957611839613315565b14156118d9576000846001600160a01b031663e6aa216c6040518163ffffffff1660e01b815260040160206040518083038186803b15801561187a57600080fd5b505afa15801561188e573d6000803e3d6000fd5b505050506040513d601f19601f820116820180604052508101906118b29190612f58565b9050806118c784670de0b6b3a7640000613282565b6118d19190613175565b92505061193a565b60008160018111156118ed576118ed613315565b1461193a5760405162461bcd60e51b815260206004820152601b60248201527f556e737570706f7274656420636f6e76657273696f6e20747970650000000000604482015260640161060d565b67120a871cc00200008211156119925760405162461bcd60e51b815260206004820152601860248201527f5661756c743a2050726963652065786365656473206d61780000000000000000604482015260640161060d565b6709b6e64a8ec600008210156119e35760405162461bcd60e51b81526020600482015260166024820152752b30bab63a1d10283934b1b2903ab73232b91036b4b760511b604482015260640161060d565b8215611a5a57670de0b6b3a7640000821115611a0557670de0b6b3a764000091505b670dd99bb65dd70000821015611a555760405162461bcd60e51b815260206004820152601560248201527441737365742070726963652062656c6f772070656760581b604482015260640161060d565b611782565b670de0b6b3a76400008210156117825750670de0b6b3a76400009392505050565b6001600160a01b038116611ad15760405162461bcd60e51b815260206004820152601a60248201527f4e657720476f7665726e6f722069732061646472657373283029000000000000604482015260640161060d565b806001600160a01b0316611af16000805160206133788339815191525490565b6001600160a01b03167fc7c0c772add429241571afb3805861fb3cfa2af374534088b76cdb4325a87e9a60405160405180910390a36108648160008051602061337883398151915255565b6040516370a0823160e01b815230600482015260009082906001600160a01b038216906370a082319060240160206040518083038186803b158015611b8057600080fd5b505afa158015611b94573d6000803e3d6000fd5b505050506040513d601f19601f82011682018060405250810190611bb89190612f58565b60365490925060005b81811015611d0357600060368281548110611bde57611bde61332b565b60009182526020909120015460405163551c457b60e11b81526001600160a01b0388811660048301529091169150819063aa388af69060240160206040518083038186803b158015611c2f57600080fd5b505afa158015611c43573d6000803e3d6000fd5b505050506040513d601f19601f82011682018060405250810190611c679190612f1d565b15611cf257604051632fa8a91360e11b81526001600160a01b038781166004830152821690635f5152269060240160206040518083038186803b158015611cad57600080fd5b505afa158015611cc1573d6000803e3d6000fd5b505050506040513d601f19601f82011682018060405250810190611ce59190612f58565b611cef908661315d565b94505b50611cfc816132e4565b9050611bc1565b505050919050565b60385460609015611d3a57603854600090611d2a9084906127106127a6565b9050611d3681846132a1565b9250505b6000607b5490507f00000000000000000000000000000000000000000000000000000000000000006001600160a01b031660348281548110611d7e57611d7e61332b565b6000918252602090912001546001600160a01b031614611de05760405162461bcd60e51b815260206004820152601b60248201527f5745544820417373657420696e646578206e6f74206361636865640000000000604482015260640161060d565b60345467ffffffffffffffff811115611dfb57611dfb613341565b604051908082528060200260200182016040528015611e24578160200160208202803683370190505b50915082828281518110611e3a57611e3a61332b565b60200260200101818152505050919050565b7f222838db2794d11532d940e8dec38ae307ed0b63cd97c233322e221f998767a63383604051611e7d929190612faf565b60405180910390a181611e8e575050565b6000611e9983611d0b565b607b5481518110611eac57611eac61332b565b6020026020010151905081811015611f065760405162461bcd60e51b815260206004820181905260248201527f52656465656d20616d6f756e74206c6f776572207468616e206d696e696d756d604482015260640161060d565b6040516370a0823160e01b815230600482015281907f00000000000000000000000000000000000000000000000000000000000000006001600160a01b0316906370a082319060240160206040518083038186803b158015611f6757600080fd5b505afa158015611f7b573d6000803e3d6000fd5b505050506040513d601f19601f82011682018060405250810190611f9f9190612f58565b10611fdd57611fd86001600160a01b037f00000000000000000000000000000000000000000000000000000000000000001633836127c8565b6120eb565b6001600160a01b037f000000000000000000000000000000000000000000000000000000000000000081166000908152604060208190529020541680156120af57604051636ce5768960e11b81523360048201526001600160a01b037f0000000000000000000000000000000000000000000000000000000000000000811660248301526044820184905282919082169063d9caed1290606401600060405180830381600087803b15801561209157600080fd5b505af11580156120a5573d6000803e3d6000fd5b50505050506120e9565b60405162461bcd60e51b815260206004820152600f60248201526e2634b8bab4b234ba3c9032b93937b960891b604482015260640161060d565b505b603c54604051632770a7eb60e21b81526001600160a01b0390911690639dc29fac9061211d9033908790600401612faf565b600060405180830381600087803b15801561213757600080fd5b505af115801561214b573d6000803e3d6000fd5b50505050610a64836127e7565b600061216261294d565b90508061216c5750565b6000612176612a2f565b90506000612184828461315d565b90506000826121a9576039546121a290670de0b6b3a76400006132a1565b90506121ec565b83826039546121b89190613282565b6121c29190613175565b905080670de0b6b3a764000011156121e6576121a281670de0b6b3a76400006132a1565b50505050565b806121f75750505050565b60345460005b818110156123c45760006034828154811061221a5761221a61332b565b60009182526020822001546040516370a0823160e01b81523060048201526001600160a01b03909116925082906370a082319060240160206040518083038186803b15801561226857600080fd5b505afa15801561227c573d6000803e3d6000fd5b505050506040513d601f19601f820116820180604052508101906122a09190612f58565b9050806122ae5750506123b4565b60006122ba8287612a8b565b6001600160a01b038085166000908152604060208190529020549192501680158015906122e75750600082115b156123af57806123016001600160a01b03861682856127c8565b6040516311f9fbc960e21b81526001600160a01b038216906347e7ef249061232f9088908790600401612faf565b600060405180830381600087803b15801561234957600080fd5b505af115801561235d573d6000803e3d6000fd5b5050604080516001600160a01b03808a168252861660208201529081018690527f41b99659f6ba0803f444aff29e5bf6e26dd86a3219aff92119d69710a956ba8d9250606001905060405180910390a1505b505050505b6123bd816132e4565b90506121fd565b505050505050565b603754600090600160a01b900460ff161561241b5760405162461bcd60e51b815260206004820152600f60248201526e149958985cda5b99c81c185d5cd959608a1b604482015260640161060d565b603c54604080516318160ddd60e01b815290516000926001600160a01b0316916318160ddd916004808301926020929190829003018186803b15801561246057600080fd5b505afa158015612474573d6000803e3d6000fd5b505050506040513d601f19601f820116820180604052508101906124989190612f58565b905060006124a4612707565b9050816124b45791506127049050565b6042546001600160a01b031680158015906124ce57508282115b156126105760006124df84846132a1565b905060006124fc604354612710846127a69092919063ffffffff16565b90508082116125585760405162461bcd60e51b815260206004820152602260248201527f466565206d757374206e6f742062652067726561746572207468616e207969656044820152611b1960f21b606482015260840161060d565b80156125c357603c546040516340c10f1960e01b81526001600160a01b03909116906340c10f19906125909086908590600401612faf565b600060405180830381600087803b1580156125aa57600080fd5b505af11580156125be573d6000803e3d6000fd5b505050505b604080516001600160a01b0385168152602081018490529081018290527f09516ecf4a8a86e59780a9befc6dee948bc9e60a36e3be68d31ea817ee8d2c809060600160405180910390a150505b603c60009054906101000a90046001600160a01b03166001600160a01b03166318160ddd6040518163ffffffff1660e01b815260040160206040518083038186803b15801561265e57600080fd5b505afa158015612672573d6000803e3d6000fd5b505050506040513d601f19601f820116820180604052508101906126969190612f58565b9250828211156126ff57603c546040516339a7919f60e01b8152600481018490526001600160a01b03909116906339a7919f90602401600060405180830381600087803b1580156126e657600080fd5b505af11580156126fa573d6000803e3d6000fd5b505050505b509150505b90565b6000612711612a2f565b61271961294d565b6105de919061315d565b6040516001600160a01b03808516602483015283166044820152606481018290526121e69085906323b872dd60e01b906084015b60408051601f198184030181529190526020810180516001600160e01b03166001600160e01b031990931692909217909152612aa0565b60006107178284613282565b60006107178284613175565b6000806127b3858561278e565b90506127bf818461279a565b95945050505050565b610a648363a9059cbb60e01b8484604051602401612757929190612faf565b6000603b5482101580156128055750603754600160a01b900460ff16155b15612819576128126123cc565b9050612824565b612821612707565b90505b604154156129495760006128be82603c60009054906101000a90046001600160a01b03166001600160a01b03166318160ddd6040518163ffffffff1660e01b815260040160206040518083038186803b15801561288057600080fd5b505afa158015612894573d6000803e3d6000fd5b505050506040513d601f19601f820116820180604052508101906128b89190612f58565b90612b72565b9050604154670de0b6b3a764000082116128e9576128e482670de0b6b3a76400006132a1565b6128fb565b6128fb670de0b6b3a7640000836132a1565b1115610a645760405162461bcd60e51b815260206004820152601e60248201527f4261636b696e6720737570706c79206c6971756964697479206572726f720000604482015260640161060d565b5050565b603454600090815b81811015612a2a576000603482815481106129725761297261332b565b60009182526020822001546040516370a0823160e01b81523060048201526001600160a01b03909116925082906370a082319060240160206040518083038186803b1580156129c057600080fd5b505afa1580156129d4573d6000803e3d6000fd5b505050506040513d601f19601f820116820180604052508101906129f89190612f58565b90508015612a1757612a0a818361162d565b612a14908661315d565b94505b505080612a23906132e4565b9050612955565b505090565b603654600090815b81811015612a2a57612a6f60368281548110612a5557612a5561332b565b6000918252602090912001546001600160a01b0316612b9b565b612a79908461315d565b9250612a84816132e4565b9050612a37565b60006107178383670de0b6b3a76400006127a6565b6000612af5826040518060400160405280602081526020017f5361666545524332303a206c6f772d6c6576656c2063616c6c206661696c6564815250856001600160a01b0316612d009092919063ffffffff16565b805190915015610a645780806020019051810190612b139190612f1d565b610a645760405162461bcd60e51b815260206004820152602a60248201527f5361666545524332303a204552433230206f7065726174696f6e20646964206e6044820152691bdd081cdd58d8d9595960b21b606482015260840161060d565b600080612b8784670de0b6b3a764000061278e565b9050612b93818461279a565b949350505050565b6034546000908290825b81811015611d0357600060348281548110612bc257612bc261332b565b60009182526020909120015460405163551c457b60e11b81526001600160a01b039182166004820181905292509085169063aa388af69060240160206040518083038186803b158015612c1457600080fd5b505afa158015612c28573d6000803e3d6000fd5b505050506040513d601f19601f82011682018060405250810190612c4c9190612f1d565b15612cef57604051632fa8a91360e11b81526001600160a01b03828116600483015260009190861690635f5152269060240160206040518083038186803b158015612c9657600080fd5b505afa158015612caa573d6000803e3d6000fd5b505050506040513d601f19601f82011682018060405250810190612cce9190612f58565b90508015612ced57612ce0818361162d565b612cea908761315d565b95505b505b50612cf9816132e4565b9050612ba5565b6060612b93848460008585843b612d595760405162461bcd60e51b815260206004820152601d60248201527f416464726573733a2063616c6c20746f206e6f6e2d636f6e7472616374000000604482015260640161060d565b600080866001600160a01b03168587604051612d759190612f93565b60006040518083038185875af1925050503d8060008114612db2576040519150601f19603f3d011682016040523d82523d6000602084013e612db7565b606091505b5091509150612dc7828286612dd2565b979650505050505050565b60608315612de1575081610717565b825115612df15782518084602001fd5b8160405162461bcd60e51b815260040161060d919061304d565b828054828255906000526020600020908101928215612e60579160200282015b82811115612e6057825182546001600160a01b0319166001600160a01b03909116178255602090920191600190910190612e2b565b50612e6c929150612e70565b5090565b5b80821115612e6c5760008155600101612e71565b80356001600160a01b03811681146115c657600080fd5b600060208284031215612eae57600080fd5b61071782612e85565b60008060408385031215612eca57600080fd5b612ed383612e85565b9150612ee160208401612e85565b90509250929050565b600080600060608486031215612eff57600080fd5b612f0884612e85565b95602085013595506040909401359392505050565b600060208284031215612f2f57600080fd5b8151801515811461071757600080fd5b600060208284031215612f5157600080fd5b5035919050565b600060208284031215612f6a57600080fd5b5051919050565b60008060408385031215612f8457600080fd5b50508035926020909101359150565b60008251612fa58184602087016132b8565b9190910192915050565b6001600160a01b03929092168252602082015260400190565b6020808252825182820181905260009190848201906040850190845b818110156130095783516001600160a01b031683529284019291840191600101612fe4565b50909695505050505050565b6020808252825182820181905260009190848201906040850190845b8181101561300957835183529284019291840191600101613031565b602081526000825180602084015261306c8160408501602087016132b8565b601f01601f19169190910160400192915050565b6020808252601a908201527f43616c6c6572206973206e6f742074686520476f7665726e6f72000000000000604082015260600190565b6020808252600e908201526d10d85c1a5d185b081c185d5cd95960921b604082015260600190565b6020808252600e908201526d1499595b9d1c985b9d0818d85b1b60921b604082015260600190565b815115158152602082015160808201906002811061313557634e487b7160e01b600052602160045260246000fd5b8060208401525060ff604084015116604083015261ffff606084015116606083015292915050565b60008219821115613170576131706132ff565b500190565b60008261319257634e487b7160e01b600052601260045260246000fd5b500490565b600181815b808511156131d25781600019048211156131b8576131b86132ff565b808516156131c557918102915b93841c939080029061319c565b509250929050565b600061071783836000826131f057506001610b43565b816131fd57506000610b43565b8160018114613213576002811461321d57613239565b6001915050610b43565b60ff84111561322e5761322e6132ff565b50506001821b610b43565b5060208310610133831016604e8410600b841016171561325c575081810a610b43565b6132668383613197565b806000190482111561327a5761327a6132ff565b029392505050565b600081600019048311821515161561329c5761329c6132ff565b500290565b6000828210156132b3576132b36132ff565b500390565b60005b838110156132d35781810151838201526020016132bb565b838111156121e65750506000910152565b60006000198214156132f8576132f86132ff565b5060010190565b634e487b7160e01b600052601160045260246000fd5b634e487b7160e01b600052602160045260246000fd5b634e487b7160e01b600052603260045260246000fd5b634e487b7160e01b600052604160045260246000fdfe53bf423e48ed90e97d02ab0ebab13b2a235a6bfbe9c321847d5c175333ac45357bea13895fa79d2831e0a9e28edede30099005a50d652d8957cf8a607ee6ca4aa2646970667358221220d9d51a53aeeffb5a7dc4e8b31f398457ea5e0c69e6cb6273cf1af6acf717396064736f6c634300080700337bea13895fa79d2831e0a9e28edede30099005a50d652d8957cf8a607ee6ca4a",
  "libraries": {},
  "devdoc": {
    "author": "Origin Protocol Inc",
    "kind": "dev",
    "methods": {
      "cacheWETHAssetIndex()": {
        "details": "Caches WETH's index in `allAssets` variable.      Reduces gas usage by redeem by caching that."
      },
      "checkBalance(address)": {
        "params": {
          "_asset": "Address of asset"
        },
        "returns": {
          "_0": "uint256 Balance of asset in decimals of asset"
        }
      },
      "isSupportedAsset(address)": {
        "params": {
          "_asset": "address of the asset"
        },
        "returns": {
          "_0": "true if supported"
        }
      },
      "mint(address,uint256,uint256)": {
        "params": {
          "_amount": "Amount of the asset being deposited",
          "_asset": "Address of the asset being deposited",
          "_minimumOusdAmount": "Minimum OTokens to mint"
        }
      },
      "priceUnitMint(address)": {
        "params": {
          "asset": "address of the asset"
        },
        "returns": {
          "price": "uint256: unit (USD / ETH) price for 1 unit of the asset, in 18 decimal fixed"
        }
      },
      "priceUnitRedeem(address)": {
        "params": {
          "asset": "Address of the asset"
        },
        "returns": {
          "price": "uint256: unit (USD / ETH) price for 1 unit of the asset, in 18 decimal fixed"
        }
      },
      "redeem(uint256,uint256)": {
        "params": {
          "_amount": "Amount of OTokens to burn",
          "_minimumUnitAmount": "Minimum stablecoin units to receive in return"
        }
      },
      "redeemAll(uint256)": {
        "params": {
          "_minimumUnitAmount": "Minimum stablecoin units to receive in return"
        }
      },
      "setAdminImpl(address)": {
        "params": {
          "newImpl": "address of the implementation"
        }
      },
      "totalValue()": {
        "returns": {
          "value": "Total value in USD/ETH (1e18)"
        }
      },
      "transferGovernance(address)": {
        "params": {
          "_newGovernor": "Address of the new Governor"
        }
      }
    },
    "title": "OETH Base VaultCore Contract",
    "version": 1
  },
  "userdoc": {
    "kind": "user",
    "methods": {
      "allocate()": {
        "notice": "Allocate unallocated funds on Vault to strategies.*"
      },
      "assetDefaultStrategies(address)": {
        "notice": "Mapping of asset address to the Strategy that they should automatically"
      },
      "autoAllocateThreshold()": {
        "notice": "OToken mints over this amount automatically allocate funds. 18 decimals."
      },
      "calculateRedeemOutputs(uint256)": {
        "notice": "Calculate the outputs for a redeem function, i.e. the mix of coins that will be returned"
      },
      "capitalPaused()": {
        "notice": "pause operations that change the OToken supply. eg mint, redeem, allocate, mint/burn for strategy"
      },
      "checkBalance(address)": {
        "notice": "Get the balance of an asset held in Vault and all strategies."
      },
      "claimGovernance()": {
        "notice": "Claim Governance of the contract to a new account (`newGovernor`). Can only be called by the new Governor."
      },
      "getAllAssets()": {
        "notice": "Return all vault asset addresses in order"
      },
      "getAllStrategies()": {
        "notice": "Return the array of all strategies"
      },
      "getAssetConfig(address)": {
        "notice": "Gets the vault configuration of a supported asset."
      },
      "getAssetCount()": {
        "notice": "Return the number of assets supported by the Vault."
      },
      "getStrategyCount()": {
        "notice": "Return the number of strategies active on the Vault."
      },
      "governor()": {
        "notice": "Returns the address of the current Governor."
      },
      "isGovernor()": {
        "notice": "Returns true if the caller is the current Governor."
      },
      "isSupportedAsset(address)": {
        "notice": "Returns whether the vault supports the asset"
      },
      "maxSupplyDiff()": {
        "notice": "Max difference between total supply and total value of assets. 18 decimals."
      },
      "mint(address,uint256,uint256)": {
        "notice": "Deposit a supported asset and mint OTokens."
      },
      "netOusdMintForStrategyThreshold()": {
        "notice": "How much net total OTokens are allowed to be minted by all strategies"
      },
      "netOusdMintedForStrategy()": {
        "notice": "How much OTokens are currently minted by the strategy"
      },
      "ousdMetaStrategy()": {
        "notice": "Metapool strategy that is allowed to mint/burn OTokens without changing collateral"
      },
      "priceProvider()": {
        "notice": "Address of the Oracle price provider contract"
      },
      "priceUnitMint(address)": {
        "notice": "Returns the total price in 18 digit units for a given asset.      Never goes above 1, since that is how we price mints."
      },
      "priceUnitRedeem(address)": {
        "notice": "Returns the total price in 18 digit unit for a given asset.      Never goes below 1, since that is how we price redeems"
      },
      "rebase()": {
        "notice": "Calculate the total value of assets held by the Vault and all      strategies and update the supply of OTokens."
      },
      "rebasePaused()": {
        "notice": "pause rebasing if true"
      },
      "rebaseThreshold()": {
        "notice": "OToken mints over this amount automatically rebase. 18 decimals."
      },
      "redeem(uint256,uint256)": {
        "notice": "Withdraw a supported asset and burn OTokens."
      },
      "redeemAll(uint256)": {
        "notice": "Withdraw a supported asset and burn all OTokens."
      },
      "redeemFeeBps()": {
        "notice": "Redemption fee in basis points. eg 50 = 0.5%"
      },
      "setAdminImpl(address)": {
        "notice": "set the implementation for the admin, this needs to be in a base class else we cannot set it"
      },
      "strategistAddr()": {
        "notice": "Address of the Strategist"
      },
      "totalValue()": {
        "notice": "Determine the total value of assets held by the vault and its         strategies."
      },
      "transferGovernance(address)": {
        "notice": "Transfers Governance of the contract to a new account (`newGovernor`). Can only be called by the current Governor. Must be claimed for this to complete"
      },
      "trusteeAddress()": {
        "notice": "Trustee contract that can collect a percentage of yield"
      },
      "trusteeFeeBps()": {
        "notice": "Amount of yield collected in basis points. eg 2000 = 20%"
      },
      "vaultBuffer()": {
        "notice": "Percentage of assets to keep in Vault to handle (most) withdrawals. 100% = 1e18."
      }
    },
    "version": 1
  },
  "storageLayout": {
    "storage": [
      {
        "astId": 25880,
        "contract": "contracts/vault/OETHBaseVaultCore.sol:OETHBaseVaultCore",
        "label": "initialized",
        "offset": 0,
        "slot": "0",
        "type": "t_bool"
      },
      {
        "astId": 25883,
        "contract": "contracts/vault/OETHBaseVaultCore.sol:OETHBaseVaultCore",
        "label": "initializing",
        "offset": 1,
        "slot": "0",
        "type": "t_bool"
      },
      {
        "astId": 25923,
        "contract": "contracts/vault/OETHBaseVaultCore.sol:OETHBaseVaultCore",
        "label": "______gap",
        "offset": 0,
        "slot": "1",
        "type": "t_array(t_uint256)50_storage"
      },
      {
        "astId": 30855,
        "contract": "contracts/vault/OETHBaseVaultCore.sol:OETHBaseVaultCore",
        "label": "assets",
        "offset": 0,
        "slot": "51",
        "type": "t_mapping(t_address,t_struct(Asset)30849_storage)"
      },
      {
        "astId": 30859,
        "contract": "contracts/vault/OETHBaseVaultCore.sol:OETHBaseVaultCore",
        "label": "allAssets",
        "offset": 0,
        "slot": "52",
        "type": "t_array(t_address)dyn_storage"
      },
      {
        "astId": 30870,
        "contract": "contracts/vault/OETHBaseVaultCore.sol:OETHBaseVaultCore",
        "label": "strategies",
        "offset": 0,
        "slot": "53",
        "type": "t_mapping(t_address,t_struct(Strategy)30864_storage)"
      },
      {
        "astId": 30874,
        "contract": "contracts/vault/OETHBaseVaultCore.sol:OETHBaseVaultCore",
        "label": "allStrategies",
        "offset": 0,
        "slot": "54",
        "type": "t_array(t_address)dyn_storage"
      },
      {
        "astId": 30877,
        "contract": "contracts/vault/OETHBaseVaultCore.sol:OETHBaseVaultCore",
        "label": "priceProvider",
        "offset": 0,
        "slot": "55",
        "type": "t_address"
      },
      {
        "astId": 30881,
        "contract": "contracts/vault/OETHBaseVaultCore.sol:OETHBaseVaultCore",
        "label": "rebasePaused",
        "offset": 20,
        "slot": "55",
        "type": "t_bool"
      },
      {
        "astId": 30885,
        "contract": "contracts/vault/OETHBaseVaultCore.sol:OETHBaseVaultCore",
        "label": "capitalPaused",
        "offset": 21,
        "slot": "55",
        "type": "t_bool"
      },
      {
        "astId": 30888,
        "contract": "contracts/vault/OETHBaseVaultCore.sol:OETHBaseVaultCore",
        "label": "redeemFeeBps",
        "offset": 0,
        "slot": "56",
        "type": "t_uint256"
      },
      {
        "astId": 30891,
        "contract": "contracts/vault/OETHBaseVaultCore.sol:OETHBaseVaultCore",
        "label": "vaultBuffer",
        "offset": 0,
        "slot": "57",
        "type": "t_uint256"
      },
      {
        "astId": 30894,
        "contract": "contracts/vault/OETHBaseVaultCore.sol:OETHBaseVaultCore",
        "label": "autoAllocateThreshold",
        "offset": 0,
        "slot": "58",
        "type": "t_uint256"
      },
      {
        "astId": 30897,
        "contract": "contracts/vault/OETHBaseVaultCore.sol:OETHBaseVaultCore",
        "label": "rebaseThreshold",
        "offset": 0,
        "slot": "59",
        "type": "t_uint256"
      },
      {
        "astId": 30901,
        "contract": "contracts/vault/OETHBaseVaultCore.sol:OETHBaseVaultCore",
        "label": "oUSD",
        "offset": 0,
        "slot": "60",
        "type": "t_contract(OUSD)24937"
      },
      {
        "astId": 30910,
        "contract": "contracts/vault/OETHBaseVaultCore.sol:OETHBaseVaultCore",
        "label": "_deprecated_rebaseHooksAddr",
        "offset": 0,
        "slot": "61",
        "type": "t_address"
      },
      {
        "astId": 30916,
        "contract": "contracts/vault/OETHBaseVaultCore.sol:OETHBaseVaultCore",
        "label": "_deprecated_uniswapAddr",
        "offset": 0,
        "slot": "62",
        "type": "t_address"
      },
      {
        "astId": 30923,
        "contract": "contracts/vault/OETHBaseVaultCore.sol:OETHBaseVaultCore",
        "label": "strategistAddr",
        "offset": 0,
        "slot": "63",
        "type": "t_address"
      },
      {
        "astId": 30928,
        "contract": "contracts/vault/OETHBaseVaultCore.sol:OETHBaseVaultCore",
        "label": "assetDefaultStrategies",
        "offset": 0,
        "slot": "64",
        "type": "t_mapping(t_address,t_address)"
      },
      {
        "astId": 30931,
        "contract": "contracts/vault/OETHBaseVaultCore.sol:OETHBaseVaultCore",
        "label": "maxSupplyDiff",
        "offset": 0,
        "slot": "65",
        "type": "t_uint256"
      },
      {
        "astId": 30934,
        "contract": "contracts/vault/OETHBaseVaultCore.sol:OETHBaseVaultCore",
        "label": "trusteeAddress",
        "offset": 0,
        "slot": "66",
        "type": "t_address"
      },
      {
        "astId": 30937,
        "contract": "contracts/vault/OETHBaseVaultCore.sol:OETHBaseVaultCore",
        "label": "trusteeFeeBps",
        "offset": 0,
        "slot": "67",
        "type": "t_uint256"
      },
      {
        "astId": 30941,
        "contract": "contracts/vault/OETHBaseVaultCore.sol:OETHBaseVaultCore",
        "label": "_deprecated_swapTokens",
        "offset": 0,
        "slot": "68",
        "type": "t_array(t_address)dyn_storage"
      },
      {
        "astId": 30951,
        "contract": "contracts/vault/OETHBaseVaultCore.sol:OETHBaseVaultCore",
        "label": "ousdMetaStrategy",
        "offset": 0,
        "slot": "69",
        "type": "t_address"
      },
      {
        "astId": 30955,
        "contract": "contracts/vault/OETHBaseVaultCore.sol:OETHBaseVaultCore",
        "label": "netOusdMintedForStrategy",
        "offset": 0,
        "slot": "70",
        "type": "t_int256"
      },
      {
        "astId": 30959,
        "contract": "contracts/vault/OETHBaseVaultCore.sol:OETHBaseVaultCore",
        "label": "netOusdMintForStrategyThreshold",
        "offset": 0,
        "slot": "71",
        "type": "t_uint256"
      },
      {
        "astId": 30980,
        "contract": "contracts/vault/OETHBaseVaultCore.sol:OETHBaseVaultCore",
        "label": "swapConfig",
        "offset": 0,
        "slot": "72",
        "type": "t_struct(SwapConfig)30970_storage"
      },
      {
        "astId": 30984,
        "contract": "contracts/vault/OETHBaseVaultCore.sol:OETHBaseVaultCore",
        "label": "isMintWhitelistedStrategy",
        "offset": 0,
        "slot": "73",
        "type": "t_mapping(t_address,t_bool)"
      },
      {
        "astId": 30988,
        "contract": "contracts/vault/OETHBaseVaultCore.sol:OETHBaseVaultCore",
        "label": "__gap",
        "offset": 0,
        "slot": "74",
        "type": "t_array(t_uint256)49_storage"
      },
      {
        "astId": 27024,
        "contract": "contracts/vault/OETHBaseVaultCore.sol:OETHBaseVaultCore",
        "label": "wethAssetIndex",
        "offset": 0,
        "slot": "123",
        "type": "t_uint256"
      },
      {
        "astId": 27028,
        "contract": "contracts/vault/OETHBaseVaultCore.sol:OETHBaseVaultCore",
        "label": "__gap",
        "offset": 0,
        "slot": "124",
        "type": "t_array(t_uint256)50_storage"
      }
    ],
    "types": {
      "t_address": {
        "encoding": "inplace",
        "label": "address",
        "numberOfBytes": "20"
      },
      "t_array(t_address)dyn_storage": {
        "base": "t_address",
        "encoding": "dynamic_array",
        "label": "address[]",
        "numberOfBytes": "32"
      },
      "t_array(t_uint256)49_storage": {
        "base": "t_uint256",
        "encoding": "inplace",
        "label": "uint256[49]",
        "numberOfBytes": "1568"
      },
      "t_array(t_uint256)50_storage": {
        "base": "t_uint256",
        "encoding": "inplace",
        "label": "uint256[50]",
        "numberOfBytes": "1600"
      },
      "t_bool": {
        "encoding": "inplace",
        "label": "bool",
        "numberOfBytes": "1"
      },
      "t_contract(OUSD)24937": {
        "encoding": "inplace",
        "label": "contract OUSD",
        "numberOfBytes": "20"
      },
      "t_enum(UnitConversion)30839": {
        "encoding": "inplace",
        "label": "enum VaultStorage.UnitConversion",
        "numberOfBytes": "1"
      },
      "t_int256": {
        "encoding": "inplace",
        "label": "int256",
        "numberOfBytes": "32"
      },
      "t_mapping(t_address,t_address)": {
        "encoding": "mapping",
        "key": "t_address",
        "label": "mapping(address => address)",
        "numberOfBytes": "32",
        "value": "t_address"
      },
      "t_mapping(t_address,t_bool)": {
        "encoding": "mapping",
        "key": "t_address",
        "label": "mapping(address => bool)",
        "numberOfBytes": "32",
        "value": "t_bool"
      },
      "t_mapping(t_address,t_struct(Asset)30849_storage)": {
        "encoding": "mapping",
        "key": "t_address",
        "label": "mapping(address => struct VaultStorage.Asset)",
        "numberOfBytes": "32",
        "value": "t_struct(Asset)30849_storage"
      },
      "t_mapping(t_address,t_struct(Strategy)30864_storage)": {
        "encoding": "mapping",
        "key": "t_address",
        "label": "mapping(address => struct VaultStorage.Strategy)",
        "numberOfBytes": "32",
        "value": "t_struct(Strategy)30864_storage"
      },
      "t_struct(Asset)30849_storage": {
        "encoding": "inplace",
        "label": "struct VaultStorage.Asset",
        "members": [
          {
            "astId": 30841,
            "contract": "contracts/vault/OETHBaseVaultCore.sol:OETHBaseVaultCore",
            "label": "isSupported",
            "offset": 0,
            "slot": "0",
            "type": "t_bool"
          },
          {
            "astId": 30844,
            "contract": "contracts/vault/OETHBaseVaultCore.sol:OETHBaseVaultCore",
            "label": "unitConversion",
            "offset": 1,
            "slot": "0",
            "type": "t_enum(UnitConversion)30839"
          },
          {
            "astId": 30846,
            "contract": "contracts/vault/OETHBaseVaultCore.sol:OETHBaseVaultCore",
            "label": "decimals",
            "offset": 2,
            "slot": "0",
            "type": "t_uint8"
          },
          {
            "astId": 30848,
            "contract": "contracts/vault/OETHBaseVaultCore.sol:OETHBaseVaultCore",
            "label": "allowedOracleSlippageBps",
            "offset": 3,
            "slot": "0",
            "type": "t_uint16"
          }
        ],
        "numberOfBytes": "32"
      },
      "t_struct(Strategy)30864_storage": {
        "encoding": "inplace",
        "label": "struct VaultStorage.Strategy",
        "members": [
          {
            "astId": 30861,
            "contract": "contracts/vault/OETHBaseVaultCore.sol:OETHBaseVaultCore",
            "label": "isSupported",
            "offset": 0,
            "slot": "0",
            "type": "t_bool"
          },
          {
            "astId": 30863,
            "contract": "contracts/vault/OETHBaseVaultCore.sol:OETHBaseVaultCore",
            "label": "_deprecated",
            "offset": 0,
            "slot": "1",
            "type": "t_uint256"
          }
        ],
        "numberOfBytes": "64"
      },
      "t_struct(SwapConfig)30970_storage": {
        "encoding": "inplace",
        "label": "struct VaultStorage.SwapConfig",
        "members": [
          {
            "astId": 30967,
            "contract": "contracts/vault/OETHBaseVaultCore.sol:OETHBaseVaultCore",
            "label": "swapper",
            "offset": 0,
            "slot": "0",
            "type": "t_address"
          },
          {
            "astId": 30969,
            "contract": "contracts/vault/OETHBaseVaultCore.sol:OETHBaseVaultCore",
            "label": "allowedUndervalueBps",
            "offset": 20,
            "slot": "0",
            "type": "t_uint16"
          }
        ],
        "numberOfBytes": "32"
      },
      "t_uint16": {
        "encoding": "inplace",
        "label": "uint16",
        "numberOfBytes": "2"
      },
      "t_uint256": {
        "encoding": "inplace",
        "label": "uint256",
        "numberOfBytes": "32"
      },
      "t_uint8": {
        "encoding": "inplace",
        "label": "uint8",
        "numberOfBytes": "1"
      }
    }
  }
}