{
  "address": "0xA50fD560AF7433D00d231B397512F5df375ffaD8",
  "abi": [
    {
      "inputs": [
        {
          "internalType": "address",
          "name": "_vault",
          "type": "address"
        },
        {
          "internalType": "address",
          "name": "_amoStrategy",
          "type": "address"
        },
        {
          "internalType": "address",
          "name": "_aero",
          "type": "address"
        },
        {
          "internalType": "address",
          "name": "_weth",
          "type": "address"
        },
        {
          "internalType": "address",
          "name": "_swapRouter",
          "type": "address"
        }
      ],
      "stateMutability": "nonpayable",
      "type": "constructor"
    },
    {
      "anonymous": false,
      "inputs": [
        {
          "indexed": true,
          "internalType": "address",
          "name": "previousGovernor",
          "type": "address"
        },
        {
          "indexed": true,
          "internalType": "address",
          "name": "newGovernor",
          "type": "address"
        }
      ],
      "name": "GovernorshipTransferred",
      "type": "event"
    },
    {
      "anonymous": false,
      "inputs": [
        {
          "indexed": false,
          "internalType": "address",
          "name": "oldOperator",
          "type": "address"
        },
        {
          "indexed": false,
          "internalType": "address",
          "name": "newOperator",
          "type": "address"
        }
      ],
      "name": "OperatorChanged",
      "type": "event"
    },
    {
      "anonymous": false,
      "inputs": [
        {
          "indexed": true,
          "internalType": "address",
          "name": "previousGovernor",
          "type": "address"
        },
        {
          "indexed": true,
          "internalType": "address",
          "name": "newGovernor",
          "type": "address"
        }
      ],
      "name": "PendingGovernorshipTransfer",
      "type": "event"
    },
    {
      "anonymous": false,
      "inputs": [
        {
          "indexed": true,
          "internalType": "address",
          "name": "rewardToken",
          "type": "address"
        },
        {
          "indexed": true,
          "internalType": "address",
          "name": "swappedInto",
          "type": "address"
        },
        {
          "indexed": false,
          "internalType": "uint8",
          "name": "swapPlatform",
          "type": "uint8"
        },
        {
          "indexed": false,
          "internalType": "uint256",
          "name": "amountIn",
          "type": "uint256"
        },
        {
          "indexed": false,
          "internalType": "uint256",
          "name": "amountOut",
          "type": "uint256"
        }
      ],
      "name": "RewardTokenSwapped",
      "type": "event"
    },
    {
      "anonymous": false,
      "inputs": [
        {
          "indexed": false,
          "internalType": "address",
          "name": "recipient",
          "type": "address"
        },
        {
          "indexed": false,
          "internalType": "uint256",
          "name": "yield",
          "type": "uint256"
        },
        {
          "indexed": false,
          "internalType": "uint256",
          "name": "fee",
          "type": "uint256"
        }
      ],
      "name": "YieldSent",
      "type": "event"
    },
    {
      "inputs": [],
      "name": "aero",
      "outputs": [
        {
          "internalType": "contract IERC20",
          "name": "",
          "type": "address"
        }
      ],
      "stateMutability": "view",
      "type": "function"
    },
    {
      "inputs": [],
      "name": "amoStrategy",
      "outputs": [
        {
          "internalType": "contract IStrategy",
          "name": "",
          "type": "address"
        }
      ],
      "stateMutability": "view",
      "type": "function"
    },
    {
      "inputs": [],
      "name": "claimGovernance",
      "outputs": [],
      "stateMutability": "nonpayable",
      "type": "function"
    },
    {
      "inputs": [],
      "name": "governor",
      "outputs": [
        {
          "internalType": "address",
          "name": "",
          "type": "address"
        }
      ],
      "stateMutability": "view",
      "type": "function"
    },
    {
      "inputs": [],
      "name": "harvest",
      "outputs": [],
      "stateMutability": "nonpayable",
      "type": "function"
    },
    {
      "inputs": [
        {
          "internalType": "uint256",
          "name": "aeroToSwap",
          "type": "uint256"
        },
        {
          "internalType": "uint256",
          "name": "minWETHExpected",
          "type": "uint256"
        },
        {
          "internalType": "uint256",
          "name": "feeBps",
          "type": "uint256"
        },
        {
          "internalType": "bool",
          "name": "sendYieldToDripper",
          "type": "bool"
        }
      ],
      "name": "harvestAndSwap",
      "outputs": [],
      "stateMutability": "nonpayable",
      "type": "function"
    },
    {
      "inputs": [],
      "name": "isGovernor",
      "outputs": [
        {
          "internalType": "bool",
          "name": "",
          "type": "bool"
        }
      ],
      "stateMutability": "view",
      "type": "function"
    },
    {
      "inputs": [],
      "name": "operatorAddr",
      "outputs": [
        {
          "internalType": "address",
          "name": "",
          "type": "address"
        }
      ],
      "stateMutability": "view",
      "type": "function"
    },
    {
      "inputs": [
        {
          "internalType": "address",
          "name": "_operatorAddr",
          "type": "address"
        }
      ],
      "name": "setOperatorAddr",
      "outputs": [],
      "stateMutability": "nonpayable",
      "type": "function"
    },
    {
      "inputs": [],
      "name": "swapRouter",
      "outputs": [
        {
          "internalType": "contract ISwapRouter",
          "name": "",
          "type": "address"
        }
      ],
      "stateMutability": "view",
      "type": "function"
    },
    {
      "inputs": [
        {
          "internalType": "address",
          "name": "_newGovernor",
          "type": "address"
        }
      ],
      "name": "transferGovernance",
      "outputs": [],
      "stateMutability": "nonpayable",
      "type": "function"
    },
    {
      "inputs": [
        {
          "internalType": "address",
          "name": "_asset",
          "type": "address"
        },
        {
          "internalType": "uint256",
          "name": "_amount",
          "type": "uint256"
        }
      ],
      "name": "transferToken",
      "outputs": [],
      "stateMutability": "nonpayable",
      "type": "function"
    },
    {
      "inputs": [],
      "name": "vault",
      "outputs": [
        {
          "internalType": "contract IVault",
          "name": "",
          "type": "address"
        }
      ],
      "stateMutability": "view",
      "type": "function"
    },
    {
      "inputs": [],
      "name": "weth",
      "outputs": [
        {
          "internalType": "contract IERC20",
          "name": "",
          "type": "address"
        }
      ],
      "stateMutability": "view",
      "type": "function"
    }
  ],
  "transactionHash": "0xc4f144187fbf4387170098d2ee1cf51408927c1313767c58f20c931d35348b45",
  "args": [
    "0x98a0CbeF61bD2D21435f433bE4CD42B56B38CC93",
    "0xF611cC500eEE7E4e4763A05FE623E2363c86d2Af",
    "0x940181a94A35A4569E4529A3CDfB74e38FD98631",
    "0x4200000000000000000000000000000000000006",
    "0xBE6D8f0d05cC4be24d5167a3eF062215bE6D18a5"
  ],
  "numDeployments": 1,
  "solcInputHash": "2187cac0f2ea82bf39113c8aaf196a20",
  "bytecode": "0x6101206040523480156200001257600080fd5b5060405162001a8d38038062001a8d8339810160408190526200003591620000ea565b6200004d3360008051602062001a6d83398151915255565b60008051602062001a6d833981519152546040516001600160a01b03909116906000907fc7c0c772add429241571afb3805861fb3cfa2af374534088b76cdb4325a87e9a908290a36001600160601b0319606095861b811660805293851b841660a05291841b831660c052831b821660e05290911b16610100526200015a565b80516001600160a01b0381168114620000e557600080fd5b919050565b600080600080600060a086880312156200010357600080fd5b6200010e86620000cd565b94506200011e60208701620000cd565b93506200012e60408701620000cd565b92506200013e60608701620000cd565b91506200014e60808701620000cd565b90509295509295909350565b60805160601c60a05160601c60c05160601c60e05160601c6101005160601c61181e6200024f600039600081816101b2015281816110b9015261124401526000818161015501528181610c6401528181610d2401528181610d5e0152818161119f01526112e301526000818161012e0152818161056b0152818161060601528181610a8d01528181610b4601528181610b8d01528181610c25015281816110e80152818161117a0152611307015260008181610217015281816104e30152610a0501526000818161023e015281816102e0015281816103ff015281816106d5015281816107e701526108d8015261181e6000f3fe608060405234801561001057600080fd5b50600436106100ea5760003560e01c80639e4285521161008c578063d38bfff411610066578063d38bfff4146101ec578063f3f18c37146101ff578063f6aa085d14610212578063fbfa77cf1461023957600080fd5b80639e4285521461019a578063c31c9c07146101ad578063c7af3352146101d457600080fd5b80633fc8cef3116100c85780633fc8cef3146101505780634641257d146101775780635d36b1901461017f578063859e4b811461018757600080fd5b80630c340a24146100ef5780631072cbea1461011457806326837eda14610129575b600080fd5b6100f7610260565b6040516001600160a01b0390911681526020015b60405180910390f35b6101276101223660046115e2565b61027d565b005b6100f77f000000000000000000000000000000000000000000000000000000000000000081565b6100f77f000000000000000000000000000000000000000000000000000000000000000081565b6101276102ca565b61012761062f565b610127610195366004611644565b6106d3565b6101276101a83660046115a8565b610ddc565b6100f77f000000000000000000000000000000000000000000000000000000000000000081565b6101dc610e69565b604051901515815260200161010b565b6101276101fa3660046115a8565b610e9a565b6000546100f7906001600160a01b031681565b6100f77f000000000000000000000000000000000000000000000000000000000000000081565b6100f77f000000000000000000000000000000000000000000000000000000000000000081565b60006102786000805160206117c98339815191525490565b905090565b610285610e69565b6102aa5760405162461bcd60e51b81526004016102a1906116d4565b60405180910390fd5b6102c66102b5610260565b6001600160a01b0384169083610f3e565b5050565b6000546001600160a01b031633148061038457507f00000000000000000000000000000000000000000000000000000000000000006001600160a01b031663570d8e1d6040518163ffffffff1660e01b815260040160206040518083038186803b15801561033757600080fd5b505afa15801561034b573d6000803e3d6000fd5b505050506040513d601f19601f8201168201806040525081019061036f91906115c5565b6001600160a01b0316336001600160a01b0316145b806103925750610392610e69565b6103fb5760405162461bcd60e51b815260206004820152603460248201527f43616c6c6572206973206e6f7420746865204f70657261746f72206f722053746044820152733930ba32b3b4b9ba1037b91023b7bb32b93737b960611b60648201526084016102a1565b60007f00000000000000000000000000000000000000000000000000000000000000006001600160a01b031663570d8e1d6040518163ffffffff1660e01b815260040160206040518083038186803b15801561045657600080fd5b505afa15801561046a573d6000803e3d6000fd5b505050506040513d601f19601f8201168201806040525081019061048e91906115c5565b90506001600160a01b0381166104e15760405162461bcd60e51b815260206004820152601860248201527711dd585c991a585b881859191c995cdcc81b9bdd081cd95d60421b60448201526064016102a1565b7f00000000000000000000000000000000000000000000000000000000000000006001600160a01b0316635a063f636040518163ffffffff1660e01b8152600401600060405180830381600087803b15801561053c57600080fd5b505af1158015610550573d6000803e3d6000fd5b50506040516370a0823160e01b8152306004820152600092507f00000000000000000000000000000000000000000000000000000000000000006001600160a01b031691506370a082319060240160206040518083038186803b1580156105b657600080fd5b505afa1580156105ca573d6000803e3d6000fd5b505050506040513d601f19601f820116820180604052508101906105ee919061162b565b9050806105f9575050565b6102c66001600160a01b037f0000000000000000000000000000000000000000000000000000000000000000168383610f3e565b565b7f44c4d30b2eaad5130ad70c3ba6972730566f3e6359ab83e800d905c61b1c51db546001600160a01b0316336001600160a01b0316146106ca5760405162461bcd60e51b815260206004820152603060248201527f4f6e6c79207468652070656e64696e6720476f7665726e6f722063616e20636f60448201526f6d706c6574652074686520636c61696d60801b60648201526084016102a1565b61062d33610fa6565b7f00000000000000000000000000000000000000000000000000000000000000006001600160a01b031663570d8e1d6040518163ffffffff1660e01b815260040160206040518083038186803b15801561072c57600080fd5b505afa158015610740573d6000803e3d6000fd5b505050506040513d601f19601f8201168201806040525081019061076491906115c5565b6001600160a01b0316336001600160a01b031614806107865750610786610e69565b6107e35760405162461bcd60e51b815260206004820152602860248201527f43616c6c6572206973206e6f74207468652053747261746567697374206f722060448201526723b7bb32b93737b960c11b60648201526084016102a1565b60007f00000000000000000000000000000000000000000000000000000000000000006001600160a01b031663570d8e1d6040518163ffffffff1660e01b815260040160206040518083038186803b15801561083e57600080fd5b505afa158015610852573d6000803e3d6000fd5b505050506040513d601f19601f8201168201806040525081019061087691906115c5565b90506001600160a01b0381166108c95760405162461bcd60e51b815260206004820152601860248201527711dd585c991a585b881859191c995cdcc81b9bdd081cd95d60421b60448201526064016102a1565b6000826108d65781610967565b7f00000000000000000000000000000000000000000000000000000000000000006001600160a01b031663603ea03b6040518163ffffffff1660e01b815260040160206040518083038186803b15801561092f57600080fd5b505afa158015610943573d6000803e3d6000fd5b505050506040513d601f19601f8201168201806040525081019061096791906115c5565b90506001600160a01b0381166109bf5760405162461bcd60e51b815260206004820152601760248201527f5969656c6420726563697069656e74206e6f742073657400000000000000000060448201526064016102a1565b612710841115610a035760405162461bcd60e51b815260206004820152600f60248201526e496e76616c6964204665652042707360881b60448201526064016102a1565b7f00000000000000000000000000000000000000000000000000000000000000006001600160a01b0316635a063f636040518163ffffffff1660e01b8152600401600060405180830381600087803b158015610a5e57600080fd5b505af1158015610a72573d6000803e3d6000fd5b50506040516370a0823160e01b8152306004820152600092507f00000000000000000000000000000000000000000000000000000000000000006001600160a01b031691506370a082319060240160206040518083038186803b158015610ad857600080fd5b505afa158015610aec573d6000803e3d6000fd5b505050506040513d601f19601f82011682018060405250810190610b10919061162b565b905080610b1f57505050610dd6565b8615610c125786811015610b6e57610b6e8330610b3c848b61174c565b6001600160a01b037f00000000000000000000000000000000000000000000000000000000000000001692919061106a565b610b7887876110a2565b6040516370a0823160e01b81523060048201527f00000000000000000000000000000000000000000000000000000000000000006001600160a01b0316906370a082319060240160206040518083038186803b158015610bd757600080fd5b505afa158015610beb573d6000803e3d6000fd5b505050506040513d601f19601f82011682018060405250810190610c0f919061162b565b90505b8015610c4c57610c4c6001600160a01b037f0000000000000000000000000000000000000000000000000000000000000000168483610f3e565b6040516370a0823160e01b81523060048201526000907f00000000000000000000000000000000000000000000000000000000000000006001600160a01b0316906370a082319060240160206040518083038186803b158015610cae57600080fd5b505afa158015610cc2573d6000803e3d6000fd5b505050506040513d601f19601f82011682018060405250810190610ce6919061162b565b90506000612710610cf7888461172d565b610d01919061170b565b90506000610d0f828461174c565b90508015610d4b57610d4b6001600160a01b037f0000000000000000000000000000000000000000000000000000000000000000168683610f3e565b8115610d8557610d856001600160a01b037f0000000000000000000000000000000000000000000000000000000000000000168784610f3e565b604080516001600160a01b0387168152602081018390529081018390527f4c70885488a444f9f6af8660e35d1c356100677dff981e92b57e4be32d6619d19060600160405180910390a15050505050505b50505050565b610de4610e69565b610e005760405162461bcd60e51b81526004016102a1906116d4565b600054604080516001600160a01b03928316815291831660208301527fd58299b712891143e76310d5e664c4203c940a67db37cf856bdaa3c5c76a802c910160405180910390a1600080546001600160a01b0319166001600160a01b0392909216919091179055565b6000610e816000805160206117c98339815191525490565b6001600160a01b0316336001600160a01b031614905090565b610ea2610e69565b610ebe5760405162461bcd60e51b81526004016102a1906116d4565b610ee6817f44c4d30b2eaad5130ad70c3ba6972730566f3e6359ab83e800d905c61b1c51db55565b806001600160a01b0316610f066000805160206117c98339815191525490565b6001600160a01b03167fa39cc5eb22d0f34d8beaefee8a3f17cc229c1a1d1ef87a5ad47313487b1c4f0d60405160405180910390a350565b6040516001600160a01b038316602482015260448101829052610fa190849063a9059cbb60e01b906064015b60408051601f198184030181529190526020810180516001600160e01b03166001600160e01b03199093169290921790915261135c565b505050565b6001600160a01b038116610ffc5760405162461bcd60e51b815260206004820152601a60248201527f4e657720476f7665726e6f72206973206164647265737328302900000000000060448201526064016102a1565b806001600160a01b031661101c6000805160206117c98339815191525490565b6001600160a01b03167fc7c0c772add429241571afb3805861fb3cfa2af374534088b76cdb4325a87e9a60405160405180910390a3611067816000805160206117c983398151915255565b50565b6040516001600160a01b0380851660248301528316604482015260648101829052610dd69085906323b872dd60e01b90608401610f6a565b60405163095ea7b360e01b81526001600160a01b037f000000000000000000000000000000000000000000000000000000000000000081166004830152602482018490527f0000000000000000000000000000000000000000000000000000000000000000169063095ea7b390604401602060405180830381600087803b15801561112c57600080fd5b505af1158015611140573d6000803e3d6000fd5b505050506040513d601f19601f82011682018060405250810190611164919061160e565b5060408051610100810182526001600160a01b037f0000000000000000000000000000000000000000000000000000000000000000811682527f000000000000000000000000000000000000000000000000000000000000000081166020830190815260c88385019081523060608501908152426080860190815260a0860189815260c08701898152600060e0890181815299516350131c1f60e11b81529851881660048a0152955187166024890152935160020b60448801529151851660648701525160848601525160a48501525160c48401529251811660e48301527f0000000000000000000000000000000000000000000000000000000000000000169063a026383e9061010401602060405180830381600087803b15801561128957600080fd5b505af115801561129d573d6000803e3d6000fd5b505050506040513d601f19601f820116820180604052508101906112c1919061162b565b6040805160008152602081018690529081018290529091506001600160a01b037f00000000000000000000000000000000000000000000000000000000000000008116917f0000000000000000000000000000000000000000000000000000000000000000909116907fa861903141bc68b536d5048a576afcc645630e1b18a4296ef34cbd4d1407f7099060600160405180910390a3505050565b60006113b1826040518060400160405280602081526020017f5361666545524332303a206c6f772d6c6576656c2063616c6c206661696c6564815250856001600160a01b031661142e9092919063ffffffff16565b805190915015610fa157808060200190518101906113cf919061160e565b610fa15760405162461bcd60e51b815260206004820152602a60248201527f5361666545524332303a204552433230206f7065726174696f6e20646964206e6044820152691bdd081cdd58d8d9595960b21b60648201526084016102a1565b606061143d8484600085611447565b90505b9392505050565b6060824710156114a85760405162461bcd60e51b815260206004820152602660248201527f416464726573733a20696e73756666696369656e742062616c616e636520666f6044820152651c8818d85b1b60d21b60648201526084016102a1565b843b6114f65760405162461bcd60e51b815260206004820152601d60248201527f416464726573733a2063616c6c20746f206e6f6e2d636f6e747261637400000060448201526064016102a1565b600080866001600160a01b031685876040516115129190611685565b60006040518083038185875af1925050503d806000811461154f576040519150601f19603f3d011682016040523d82523d6000602084013e611554565b606091505b509150915061156482828661156f565b979650505050505050565b6060831561157e575081611440565b82511561158e5782518084602001fd5b8160405162461bcd60e51b81526004016102a191906116a1565b6000602082840312156115ba57600080fd5b8135611440816117a5565b6000602082840312156115d757600080fd5b8151611440816117a5565b600080604083850312156115f557600080fd5b8235611600816117a5565b946020939093013593505050565b60006020828403121561162057600080fd5b8151611440816117ba565b60006020828403121561163d57600080fd5b5051919050565b6000806000806080858703121561165a57600080fd5b843593506020850135925060408501359150606085013561167a816117ba565b939692955090935050565b60008251611697818460208701611763565b9190910192915050565b60208152600082518060208401526116c0816040850160208701611763565b601f01601f19169190910160400192915050565b6020808252601a908201527f43616c6c6572206973206e6f742074686520476f7665726e6f72000000000000604082015260600190565b60008261172857634e487b7160e01b600052601260045260246000fd5b500490565b60008160001904831182151516156117475761174761178f565b500290565b60008282101561175e5761175e61178f565b500390565b60005b8381101561177e578181015183820152602001611766565b83811115610dd65750506000910152565b634e487b7160e01b600052601160045260246000fd5b6001600160a01b038116811461106757600080fd5b801515811461106757600080fdfe7bea13895fa79d2831e0a9e28edede30099005a50d652d8957cf8a607ee6ca4aa2646970667358221220364632194e1b7104297b63eeb71e9a1a149a72ab5b95a44ebbcf7a27e51f00f164736f6c634300080700337bea13895fa79d2831e0a9e28edede30099005a50d652d8957cf8a607ee6ca4a",
  "libraries": {},
  "devdoc": {
    "kind": "dev",
    "methods": {
      "harvestAndSwap(uint256,uint256,uint256,bool)": {
        "params": {
          "aeroToSwap": "Amount of AERO to swap",
          "feeBps": "Performance fee bps (Sent to strategist)",
          "minWETHExpected": "Min. amount of WETH to expect",
          "sendYieldToDripper": "Sends yield to Dripper, if set to true.                           Otherwise, to the Guardian"
        }
      },
      "setOperatorAddr(address)": {
        "details": "Changes the operator address which can call `harvest`",
        "params": {
          "_operatorAddr": "New operator address"
        }
      },
      "transferGovernance(address)": {
        "params": {
          "_newGovernor": "Address of the new Governor"
        }
      },
      "transferToken(address,uint256)": {
        "params": {
          "_amount": "Amount of the asset to transfer",
          "_asset": "Address for the asset"
        }
      }
    },
    "version": 1
  },
  "userdoc": {
    "kind": "user",
    "methods": {
      "claimGovernance()": {
        "notice": "Claim Governance of the contract to a new account (`newGovernor`). Can only be called by the new Governor."
      },
      "governor()": {
        "notice": "Returns the address of the current Governor."
      },
      "harvest()": {
        "notice": "Collects AERO from AMO strategy and      sends it to the Strategist multisig.      Anyone can call it."
      },
      "harvestAndSwap(uint256,uint256,uint256,bool)": {
        "notice": "Harvests AERO from AMO strategy and then swaps some (or all)          of it into WETH to distribute yield and fee.         When `feeBps` is set to 10000 (100%), all WETH received is          sent to strategist."
      },
      "isGovernor()": {
        "notice": "Returns true if the caller is the current Governor."
      },
      "transferGovernance(address)": {
        "notice": "Transfers Governance of the contract to a new account (`newGovernor`). Can only be called by the current Governor. Must be claimed for this to complete"
      },
      "transferToken(address,uint256)": {
        "notice": "Transfer token to governor. Intended for recovering tokens stuck in      the contract, i.e. mistaken sends.      Also, allows to transfer any AERO left in the contract."
      }
    },
    "version": 1
  },
  "storageLayout": {
    "storage": [
      {
        "astId": 1164,
        "contract": "contracts/harvest/OETHBaseHarvester.sol:OETHBaseHarvester",
        "label": "operatorAddr",
        "offset": 0,
        "slot": "0",
        "type": "t_address"
      }
    ],
    "types": {
      "t_address": {
        "encoding": "inplace",
        "label": "address",
        "numberOfBytes": "20"
      }
    }
  }
}