{
  "address": "0x74c9097cb03bEe2C0fDB45Bb40E1E1438681D32D",
  "abi": [
    {
      "inputs": [
        {
          "internalType": "address",
          "name": "_wrappedNativeToken",
          "type": "address"
        }
      ],
      "stateMutability": "nonpayable",
      "type": "constructor"
    },
    {
      "anonymous": false,
      "inputs": [
        {
          "indexed": false,
          "internalType": "address",
          "name": "dripper",
          "type": "address"
        }
      ],
      "name": "DripperUpdated",
      "type": "event"
    },
    {
      "anonymous": false,
      "inputs": [
        {
          "indexed": true,
          "internalType": "address",
          "name": "previousGovernor",
          "type": "address"
        },
        {
          "indexed": true,
          "internalType": "address",
          "name": "newGovernor",
          "type": "address"
        }
      ],
      "name": "GovernorshipTransferred",
      "type": "event"
    },
    {
      "anonymous": false,
      "inputs": [
        {
          "indexed": true,
          "internalType": "address",
          "name": "strategy",
          "type": "address"
        },
        {
          "indexed": false,
          "internalType": "address",
          "name": "token",
          "type": "address"
        },
        {
          "indexed": false,
          "internalType": "uint256",
          "name": "amount",
          "type": "uint256"
        },
        {
          "indexed": true,
          "internalType": "address",
          "name": "receiver",
          "type": "address"
        }
      ],
      "name": "Harvested",
      "type": "event"
    },
    {
      "anonymous": false,
      "inputs": [
        {
          "indexed": true,
          "internalType": "address",
          "name": "previousGovernor",
          "type": "address"
        },
        {
          "indexed": true,
          "internalType": "address",
          "name": "newGovernor",
          "type": "address"
        }
      ],
      "name": "PendingGovernorshipTransfer",
      "type": "event"
    },
    {
      "anonymous": false,
      "inputs": [
        {
          "indexed": false,
          "internalType": "address",
          "name": "_address",
          "type": "address"
        }
      ],
      "name": "StrategistUpdated",
      "type": "event"
    },
    {
      "anonymous": false,
      "inputs": [
        {
          "indexed": false,
          "internalType": "address",
          "name": "strategy",
          "type": "address"
        },
        {
          "indexed": false,
          "internalType": "bool",
          "name": "status",
          "type": "bool"
        }
      ],
      "name": "SupportedStrategyUpdated",
      "type": "event"
    },
    {
      "inputs": [],
      "name": "claimGovernance",
      "outputs": [],
      "stateMutability": "nonpayable",
      "type": "function"
    },
    {
      "inputs": [],
      "name": "dripper",
      "outputs": [
        {
          "internalType": "address",
          "name": "",
          "type": "address"
        }
      ],
      "stateMutability": "view",
      "type": "function"
    },
    {
      "inputs": [],
      "name": "governor",
      "outputs": [
        {
          "internalType": "address",
          "name": "",
          "type": "address"
        }
      ],
      "stateMutability": "view",
      "type": "function"
    },
    {
      "inputs": [
        {
          "internalType": "address",
          "name": "_strategy",
          "type": "address"
        }
      ],
      "name": "harvestAndTransfer",
      "outputs": [],
      "stateMutability": "nonpayable",
      "type": "function"
    },
    {
      "inputs": [
        {
          "internalType": "address[]",
          "name": "_strategies",
          "type": "address[]"
        }
      ],
      "name": "harvestAndTransfer",
      "outputs": [],
      "stateMutability": "nonpayable",
      "type": "function"
    },
    {
      "inputs": [],
      "name": "initialize",
      "outputs": [],
      "stateMutability": "nonpayable",
      "type": "function"
    },
    {
      "inputs": [],
      "name": "isGovernor",
      "outputs": [
        {
          "internalType": "bool",
          "name": "",
          "type": "bool"
        }
      ],
      "stateMutability": "view",
      "type": "function"
    },
    {
      "inputs": [
        {
          "internalType": "address",
          "name": "_dripper",
          "type": "address"
        }
      ],
      "name": "setDripper",
      "outputs": [],
      "stateMutability": "nonpayable",
      "type": "function"
    },
    {
      "inputs": [
        {
          "internalType": "address",
          "name": "_address",
          "type": "address"
        }
      ],
      "name": "setStrategistAddr",
      "outputs": [],
      "stateMutability": "nonpayable",
      "type": "function"
    },
    {
      "inputs": [
        {
          "internalType": "address",
          "name": "_strategy",
          "type": "address"
        },
        {
          "internalType": "bool",
          "name": "_isSupported",
          "type": "bool"
        }
      ],
      "name": "setSupportedStrategy",
      "outputs": [],
      "stateMutability": "nonpayable",
      "type": "function"
    },
    {
      "inputs": [],
      "name": "strategistAddr",
      "outputs": [
        {
          "internalType": "address",
          "name": "",
          "type": "address"
        }
      ],
      "stateMutability": "view",
      "type": "function"
    },
    {
      "inputs": [
        {
          "internalType": "address",
          "name": "",
          "type": "address"
        }
      ],
      "name": "supportedStrategies",
      "outputs": [
        {
          "internalType": "bool",
          "name": "",
          "type": "bool"
        }
      ],
      "stateMutability": "view",
      "type": "function"
    },
    {
      "inputs": [
        {
          "internalType": "address",
          "name": "_newGovernor",
          "type": "address"
        }
      ],
      "name": "transferGovernance",
      "outputs": [],
      "stateMutability": "nonpayable",
      "type": "function"
    },
    {
      "inputs": [
        {
          "internalType": "address",
          "name": "_asset",
          "type": "address"
        },
        {
          "internalType": "uint256",
          "name": "_amount",
          "type": "uint256"
        }
      ],
      "name": "transferToken",
      "outputs": [],
      "stateMutability": "nonpayable",
      "type": "function"
    },
    {
      "inputs": [],
      "name": "wrappedNativeToken",
      "outputs": [
        {
          "internalType": "address",
          "name": "",
          "type": "address"
        }
      ],
      "stateMutability": "view",
      "type": "function"
    }
  ],
  "transactionHash": "0xcc7c0a10ddf54f10b68ae7bd13d3c93e1b8dc6cb49037432a6625993dd67f04c",
  "args": [
    "0x4200000000000000000000000000000000000006"
  ],
  "numDeployments": 2,
  "solcInputHash": "3e269793a4cde902a0e56587aecae15f",
  "bytecode": "0x60a060405234801561001057600080fd5b5060405161122f38038061122f83398101604081905261002f916100b5565b6001600160a01b03811660805280610047600061004e565b50506100e5565b6001600160a01b03811661006e60008051602061120f8339815191525490565b6001600160a01b03167fc7c0c772add429241571afb3805861fb3cfa2af374534088b76cdb4325a87e9a60405160405180910390a360008051602061120f83398151915255565b6000602082840312156100c757600080fd5b81516001600160a01b03811681146100de57600080fd5b9392505050565b60805161110f610100600039600061014c015261110f6000f3fe608060405234801561001057600080fd5b50600436106100f55760003560e01c8063603ea03b11610097578063b8a02d0411610066578063b8a02d04146101dd578063c7af3352146101f0578063d38bfff414610208578063ee3be5f51461021b57600080fd5b8063603ea03b1461019c57806365f6fa94146101af578063773540b3146101c25780638129fc1c146101d557600080fd5b806317fcb39b116100d357806317fcb39b146101475780632e9958ab1461016e578063570d8e1d146101815780635d36b1901461019457600080fd5b806308765741146100fa5780630c340a241461010f5780631072cbea14610134575b600080fd5b61010d610108366004610d7e565b61023e565b005b61011761024a565b6040516001600160a01b0390911681526020015b60405180910390f35b61010d610142366004610d9b565b610267565b6101177f000000000000000000000000000000000000000000000000000000000000000081565b61010d61017c366004610d7e565b6102c6565b603354610117906001600160a01b031681565b61010d6102f3565b606654610117906001600160a01b031681565b61010d6101bd366004610dd5565b610399565b61010d6101d0366004610d7e565b61047d565b61010d6104aa565b61010d6101eb366004610e0e565b610580565b6101f86105c7565b604051901515815260200161012b565b61010d610216366004610d7e565b6105f8565b6101f8610229366004610d7e565b60676020526000908152604090205460ff1681565b6102478161069c565b50565b60006102626000805160206110ba8339815191525490565b905090565b6033546001600160a01b031633148061028357506102836105c7565b6102a85760405162461bcd60e51b815260040161029f90610e85565b60405180910390fd5b6033546102c2906001600160a01b0384811691168361091a565b5050565b6102ce6105c7565b6102ea5760405162461bcd60e51b815260040161029f90610ecd565b6102478161096c565b7f44c4d30b2eaad5130ad70c3ba6972730566f3e6359ab83e800d905c61b1c51db546001600160a01b0316336001600160a01b03161461038e5760405162461bcd60e51b815260206004820152603060248201527f4f6e6c79207468652070656e64696e6720476f7665726e6f722063616e20636f60448201526f6d706c6574652074686520636c61696d60801b606482015260840161029f565b61039733610a09565b565b6033546001600160a01b03163314806103b557506103b56105c7565b6103d15760405162461bcd60e51b815260040161029f90610e85565b6001600160a01b03821661041a5760405162461bcd60e51b815260206004820152601060248201526f496e76616c696420737472617465677960801b604482015260640161029f565b6001600160a01b038216600081815260676020908152604091829020805460ff19168515159081179091558251938452908301527f3ca7a8b51f893d82f3035738ff1da9ae735b29cf93d0e61bb859313c379b3e76910160405180910390a15050565b6104856105c7565b6104a15760405162461bcd60e51b815260040161029f90610ecd565b61024781610a68565b6104b26105c7565b6104ce5760405162461bcd60e51b815260040161029f90610ecd565b600054610100900460ff16806104e7575060005460ff16155b61054a5760405162461bcd60e51b815260206004820152602e60248201527f496e697469616c697a61626c653a20636f6e747261637420697320616c72656160448201526d191e481a5b9a5d1a585b1a5e995960921b606482015260840161029f565b600054610100900460ff1615801561056c576000805461ffff19166101011790555b8015610247576000805461ff001916905550565b60005b818110156105c2576105ba8383838181106105a0576105a0610f04565b90506020020160208101906105b59190610d7e565b61069c565b600101610583565b505050565b60006105df6000805160206110ba8339815191525490565b6001600160a01b0316336001600160a01b031614905090565b6106006105c7565b61061c5760405162461bcd60e51b815260040161029f90610ecd565b610644817f44c4d30b2eaad5130ad70c3ba6972730566f3e6359ab83e800d905c61b1c51db55565b806001600160a01b03166106646000805160206110ba8339815191525490565b6001600160a01b03167fa39cc5eb22d0f34d8beaefee8a3f17cc229c1a1d1ef87a5ad47313487b1c4f0d60405160405180910390a350565b6001600160a01b03811660009081526067602052604090205460ff166106fd5760405162461bcd60e51b815260206004820152601660248201527514dd1c985d1959de481b9bdd081cdd5c1c1bdc9d195960521b604482015260640161029f565b6033546001600160a01b0316806107495760405162461bcd60e51b815260206004820152601060248201526f24b73b30b634b2103932b1b2b4bb32b960811b604482015260640161029f565b816001600160a01b0316635a063f636040518163ffffffff1660e01b8152600401600060405180830381600087803b15801561078457600080fd5b505af1158015610798573d6000803e3d6000fd5b505050506000826001600160a01b031663f6ca71b06040518163ffffffff1660e01b8152600401600060405180830381865afa1580156107dc573d6000803e3d6000fd5b505050506040513d6000823e601f3d908101601f191682016040526108049190810190610f40565b805190915060005b8181101561091357600083828151811061082857610828610f04565b60209081029190910101516040516370a0823160e01b81523060048201529091506000906001600160a01b038316906370a0823190602401602060405180830381865afa15801561087d573d6000803e3d6000fd5b505050506040513d601f19601f820116820180604052508101906108a19190611010565b90508015610909576108bd6001600160a01b038316878361091a565b604080516001600160a01b0384811682526020820184905280891692908a16917f64176c791992d34a042a9aad3aa4ace3970c8ce117529438b7d285a47dd40f07910160405180910390a35b505060010161080c565b5050505050565b604080516001600160a01b038416602482015260448082018490528251808303909101815260649091019091526020810180516001600160e01b031663a9059cbb60e01b1790526105c2908490610ab6565b6001600160a01b0381166109b45760405162461bcd60e51b815260206004820152600f60248201526e24b73b30b634b210323934b83832b960891b604482015260640161029f565b606680546001600160a01b0319166001600160a01b0383169081179091556040519081527f4cd8d6305ee3d38746117f069329b1a466ee9e483d5cbaebdbfd9d294278533f906020015b60405180910390a150565b6001600160a01b038116610a5f5760405162461bcd60e51b815260206004820152601a60248201527f4e657720476f7665726e6f722069732061646472657373283029000000000000604482015260640161029f565b61024781610b88565b603380546001600160a01b0319166001600160a01b0383169081179091556040519081527f869e0abd13cc3a975de7b93be3df1cb2255c802b1cead85963cc79d99f131bee906020016109fe565b6000610b0b826040518060400160405280602081526020017f5361666545524332303a206c6f772d6c6576656c2063616c6c206661696c6564815250856001600160a01b0316610bef9092919063ffffffff16565b8051909150156105c25780806020019051810190610b299190611029565b6105c25760405162461bcd60e51b815260206004820152602a60248201527f5361666545524332303a204552433230206f7065726174696f6e20646964206e6044820152691bdd081cdd58d8d9595960b21b606482015260840161029f565b806001600160a01b0316610ba86000805160206110ba8339815191525490565b6001600160a01b03167fc7c0c772add429241571afb3805861fb3cfa2af374534088b76cdb4325a87e9a60405160405180910390a36000805160206110ba83398151915255565b6060610bfe8484600085610c08565b90505b9392505050565b606082471015610c695760405162461bcd60e51b815260206004820152602660248201527f416464726573733a20696e73756666696369656e742062616c616e636520666f6044820152651c8818d85b1b60d21b606482015260840161029f565b843b610cb75760405162461bcd60e51b815260206004820152601d60248201527f416464726573733a2063616c6c20746f206e6f6e2d636f6e7472616374000000604482015260640161029f565b600080866001600160a01b03168587604051610cd3919061106a565b60006040518083038185875af1925050503d8060008114610d10576040519150601f19603f3d011682016040523d82523d6000602084013e610d15565b606091505b5091509150610d25828286610d30565b979650505050505050565b60608315610d3f575081610c01565b825115610d4f5782518084602001fd5b8160405162461bcd60e51b815260040161029f9190611086565b6001600160a01b038116811461024757600080fd5b600060208284031215610d9057600080fd5b8135610c0181610d69565b60008060408385031215610dae57600080fd5b8235610db981610d69565b946020939093013593505050565b801515811461024757600080fd5b60008060408385031215610de857600080fd5b8235610df381610d69565b91506020830135610e0381610dc7565b809150509250929050565b60008060208385031215610e2157600080fd5b823567ffffffffffffffff811115610e3857600080fd5b8301601f81018513610e4957600080fd5b803567ffffffffffffffff811115610e6057600080fd5b8560208260051b8401011115610e7557600080fd5b6020919091019590945092505050565b60208082526028908201527f43616c6c6572206973206e6f74207468652053747261746567697374206f722060408201526723b7bb32b93737b960c11b606082015260800190565b6020808252601a908201527f43616c6c6572206973206e6f742074686520476f7665726e6f72000000000000604082015260600190565b634e487b7160e01b600052603260045260246000fd5b634e487b7160e01b600052604160045260246000fd5b8051610f3b81610d69565b919050565b600060208284031215610f5257600080fd5b815167ffffffffffffffff811115610f6957600080fd5b8201601f81018413610f7a57600080fd5b805167ffffffffffffffff811115610f9457610f94610f1a565b8060051b604051601f19603f830116810181811067ffffffffffffffff82111715610fc157610fc1610f1a565b604052918252602081840181019290810187841115610fdf57600080fd5b6020850194505b8385101561100557610ff785610f30565b815260209485019401610fe6565b509695505050505050565b60006020828403121561102257600080fd5b5051919050565b60006020828403121561103b57600080fd5b8151610c0181610dc7565b60005b83811015611061578181015183820152602001611049565b50506000910152565b6000825161107c818460208701611046565b9190910192915050565b60208152600082518060208401526110a5816040850160208701611046565b601f01601f1916919091016040019291505056fe7bea13895fa79d2831e0a9e28edede30099005a50d652d8957cf8a607ee6ca4aa264697066735822122038fcb46a265ed78501e0079f0fa76af8b3e4fab6f2e31ee65b3a8fb1a6566f3564736f6c634300081c00337bea13895fa79d2831e0a9e28edede30099005a50d652d8957cf8a607ee6ca4a",
  "libraries": {},
  "devdoc": {
    "kind": "dev",
    "methods": {
      "harvestAndTransfer(address)": {
        "params": {
          "_strategy": "Address of the strategy to harvest"
        }
      },
      "harvestAndTransfer(address[])": {
        "params": {
          "_strategies": "Array of strategy addresses to harvest"
        }
      },
      "setDripper(address)": {
        "params": {
          "_dripper": "Address of the dripper"
        }
      },
      "setStrategistAddr(address)": {
        "details": "Set address of Strategist",
        "params": {
          "_address": "Address of Strategist"
        }
      },
      "setSupportedStrategy(address,bool)": {
        "params": {
          "_isSupported": "Boolean indicating if strategy is supported",
          "_strategy": "Address of the strategy"
        }
      },
      "transferGovernance(address)": {
        "params": {
          "_newGovernor": "Address of the new Governor"
        }
      },
      "transferToken(address,uint256)": {
        "params": {
          "_amount": "Amount of tokens to transfer",
          "_asset": "Address of the token"
        }
      }
    },
    "version": 1
  },
  "userdoc": {
    "events": {
      "Harvested(address,address,uint256,address)": {
        "notice": "--- EVENTS"
      }
    },
    "kind": "user",
    "methods": {
      "claimGovernance()": {
        "notice": "Claim Governance of the contract to a new account (`newGovernor`). Can only be called by the new Governor."
      },
      "dripper()": {
        "notice": "Dripper address"
      },
      "governor()": {
        "notice": "Returns the address of the current Governor."
      },
      "harvestAndTransfer(address)": {
        "notice": "Harvest rewards from a strategy and transfer to strategist or dripper"
      },
      "harvestAndTransfer(address[])": {
        "notice": "Harvest rewards from multiple strategies and transfer to strategist or dripper"
      },
      "initialize()": {
        "notice": "Initialize the contract"
      },
      "isGovernor()": {
        "notice": "Returns true if the caller is the current Governor."
      },
      "setDripper(address)": {
        "notice": "Set the dripper address"
      },
      "setSupportedStrategy(address,bool)": {
        "notice": "Set supported strategy"
      },
      "supportedStrategies(address)": {
        "notice": "Mapping of supported strategies"
      },
      "transferGovernance(address)": {
        "notice": "Transfers Governance of the contract to a new account (`newGovernor`). Can only be called by the current Governor. Must be claimed for this to complete"
      },
      "transferToken(address,uint256)": {
        "notice": "Transfer tokens to strategist"
      },
      "wrappedNativeToken()": {
        "notice": "wrapped native token address (WETH or wS)"
      }
    },
    "version": 1
  },
  "storageLayout": {
    "storage": [
      {
        "astId": 1405,
        "contract": "contracts/harvest/SuperOETHHarvester.sol:SuperOETHHarvester",
        "label": "initialized",
        "offset": 0,
        "slot": "0",
        "type": "t_bool"
      },
      {
        "astId": 1408,
        "contract": "contracts/harvest/SuperOETHHarvester.sol:SuperOETHHarvester",
        "label": "initializing",
        "offset": 1,
        "slot": "0",
        "type": "t_bool"
      },
      {
        "astId": 1448,
        "contract": "contracts/harvest/SuperOETHHarvester.sol:SuperOETHHarvester",
        "label": "______gap",
        "offset": 0,
        "slot": "1",
        "type": "t_array(t_uint256)50_storage"
      },
      {
        "astId": 808,
        "contract": "contracts/harvest/SuperOETHHarvester.sol:SuperOETHHarvester",
        "label": "strategistAddr",
        "offset": 0,
        "slot": "51",
        "type": "t_address"
      },
      {
        "astId": 812,
        "contract": "contracts/harvest/SuperOETHHarvester.sol:SuperOETHHarvester",
        "label": "__gap",
        "offset": 0,
        "slot": "52",
        "type": "t_array(t_uint256)50_storage"
      },
      {
        "astId": 884,
        "contract": "contracts/harvest/SuperOETHHarvester.sol:SuperOETHHarvester",
        "label": "dripper",
        "offset": 0,
        "slot": "102",
        "type": "t_address"
      },
      {
        "astId": 889,
        "contract": "contracts/harvest/SuperOETHHarvester.sol:SuperOETHHarvester",
        "label": "supportedStrategies",
        "offset": 0,
        "slot": "103",
        "type": "t_mapping(t_address,t_bool)"
      },
      {
        "astId": 894,
        "contract": "contracts/harvest/SuperOETHHarvester.sol:SuperOETHHarvester",
        "label": "___gap",
        "offset": 0,
        "slot": "104",
        "type": "t_array(t_uint256)48_storage"
      }
    ],
    "types": {
      "t_address": {
        "encoding": "inplace",
        "label": "address",
        "numberOfBytes": "20"
      },
      "t_array(t_uint256)48_storage": {
        "base": "t_uint256",
        "encoding": "inplace",
        "label": "uint256[48]",
        "numberOfBytes": "1536"
      },
      "t_array(t_uint256)50_storage": {
        "base": "t_uint256",
        "encoding": "inplace",
        "label": "uint256[50]",
        "numberOfBytes": "1600"
      },
      "t_bool": {
        "encoding": "inplace",
        "label": "bool",
        "numberOfBytes": "1"
      },
      "t_mapping(t_address,t_bool)": {
        "encoding": "mapping",
        "key": "t_address",
        "label": "mapping(address => bool)",
        "numberOfBytes": "32",
        "value": "t_bool"
      },
      "t_uint256": {
        "encoding": "inplace",
        "label": "uint256",
        "numberOfBytes": "32"
      }
    }
  }
}