{
  "address": "0x6D961A6e4398462fd299Fac6153B133b0f23E3f3",
  "abi": [
    {
      "inputs": [
        {
          "internalType": "contract ERC20",
          "name": "underlying_",
          "type": "address"
        }
      ],
      "stateMutability": "nonpayable",
      "type": "constructor"
    },
    {
      "anonymous": false,
      "inputs": [
        {
          "indexed": true,
          "internalType": "address",
          "name": "owner",
          "type": "address"
        },
        {
          "indexed": true,
          "internalType": "address",
          "name": "spender",
          "type": "address"
        },
        {
          "indexed": false,
          "internalType": "uint256",
          "name": "value",
          "type": "uint256"
        }
      ],
      "name": "Approval",
      "type": "event"
    },
    {
      "anonymous": false,
      "inputs": [
        {
          "indexed": true,
          "internalType": "address",
          "name": "caller",
          "type": "address"
        },
        {
          "indexed": true,
          "internalType": "address",
          "name": "owner",
          "type": "address"
        },
        {
          "indexed": false,
          "internalType": "uint256",
          "name": "assets",
          "type": "uint256"
        },
        {
          "indexed": false,
          "internalType": "uint256",
          "name": "shares",
          "type": "uint256"
        }
      ],
      "name": "Deposit",
      "type": "event"
    },
    {
      "anonymous": false,
      "inputs": [
        {
          "indexed": true,
          "internalType": "address",
          "name": "previousGovernor",
          "type": "address"
        },
        {
          "indexed": true,
          "internalType": "address",
          "name": "newGovernor",
          "type": "address"
        }
      ],
      "name": "GovernorshipTransferred",
      "type": "event"
    },
    {
      "anonymous": false,
      "inputs": [
        {
          "indexed": true,
          "internalType": "address",
          "name": "previousGovernor",
          "type": "address"
        },
        {
          "indexed": true,
          "internalType": "address",
          "name": "newGovernor",
          "type": "address"
        }
      ],
      "name": "PendingGovernorshipTransfer",
      "type": "event"
    },
    {
      "anonymous": false,
      "inputs": [
        {
          "indexed": true,
          "internalType": "address",
          "name": "from",
          "type": "address"
        },
        {
          "indexed": true,
          "internalType": "address",
          "name": "to",
          "type": "address"
        },
        {
          "indexed": false,
          "internalType": "uint256",
          "name": "value",
          "type": "uint256"
        }
      ],
      "name": "Transfer",
      "type": "event"
    },
    {
      "anonymous": false,
      "inputs": [
        {
          "indexed": true,
          "internalType": "address",
          "name": "caller",
          "type": "address"
        },
        {
          "indexed": true,
          "internalType": "address",
          "name": "receiver",
          "type": "address"
        },
        {
          "indexed": true,
          "internalType": "address",
          "name": "owner",
          "type": "address"
        },
        {
          "indexed": false,
          "internalType": "uint256",
          "name": "assets",
          "type": "uint256"
        },
        {
          "indexed": false,
          "internalType": "uint256",
          "name": "shares",
          "type": "uint256"
        }
      ],
      "name": "Withdraw",
      "type": "event"
    },
    {
      "inputs": [
        {
          "internalType": "address",
          "name": "owner",
          "type": "address"
        },
        {
          "internalType": "address",
          "name": "spender",
          "type": "address"
        }
      ],
      "name": "allowance",
      "outputs": [
        {
          "internalType": "uint256",
          "name": "",
          "type": "uint256"
        }
      ],
      "stateMutability": "view",
      "type": "function"
    },
    {
      "inputs": [
        {
          "internalType": "address",
          "name": "spender",
          "type": "address"
        },
        {
          "internalType": "uint256",
          "name": "amount",
          "type": "uint256"
        }
      ],
      "name": "approve",
      "outputs": [
        {
          "internalType": "bool",
          "name": "",
          "type": "bool"
        }
      ],
      "stateMutability": "nonpayable",
      "type": "function"
    },
    {
      "inputs": [],
      "name": "asset",
      "outputs": [
        {
          "internalType": "address",
          "name": "",
          "type": "address"
        }
      ],
      "stateMutability": "view",
      "type": "function"
    },
    {
      "inputs": [
        {
          "internalType": "address",
          "name": "account",
          "type": "address"
        }
      ],
      "name": "balanceOf",
      "outputs": [
        {
          "internalType": "uint256",
          "name": "",
          "type": "uint256"
        }
      ],
      "stateMutability": "view",
      "type": "function"
    },
    {
      "inputs": [],
      "name": "claimGovernance",
      "outputs": [],
      "stateMutability": "nonpayable",
      "type": "function"
    },
    {
      "inputs": [
        {
          "internalType": "uint256",
          "name": "shares",
          "type": "uint256"
        }
      ],
      "name": "convertToAssets",
      "outputs": [
        {
          "internalType": "uint256",
          "name": "assets",
          "type": "uint256"
        }
      ],
      "stateMutability": "view",
      "type": "function"
    },
    {
      "inputs": [
        {
          "internalType": "uint256",
          "name": "assets",
          "type": "uint256"
        }
      ],
      "name": "convertToShares",
      "outputs": [
        {
          "internalType": "uint256",
          "name": "shares",
          "type": "uint256"
        }
      ],
      "stateMutability": "view",
      "type": "function"
    },
    {
      "inputs": [],
      "name": "decimals",
      "outputs": [
        {
          "internalType": "uint8",
          "name": "",
          "type": "uint8"
        }
      ],
      "stateMutability": "view",
      "type": "function"
    },
    {
      "inputs": [
        {
          "internalType": "address",
          "name": "spender",
          "type": "address"
        },
        {
          "internalType": "uint256",
          "name": "subtractedValue",
          "type": "uint256"
        }
      ],
      "name": "decreaseAllowance",
      "outputs": [
        {
          "internalType": "bool",
          "name": "",
          "type": "bool"
        }
      ],
      "stateMutability": "nonpayable",
      "type": "function"
    },
    {
      "inputs": [
        {
          "internalType": "uint256",
          "name": "assets",
          "type": "uint256"
        },
        {
          "internalType": "address",
          "name": "receiver",
          "type": "address"
        }
      ],
      "name": "deposit",
      "outputs": [
        {
          "internalType": "uint256",
          "name": "",
          "type": "uint256"
        }
      ],
      "stateMutability": "nonpayable",
      "type": "function"
    },
    {
      "inputs": [],
      "name": "governor",
      "outputs": [
        {
          "internalType": "address",
          "name": "",
          "type": "address"
        }
      ],
      "stateMutability": "view",
      "type": "function"
    },
    {
      "inputs": [
        {
          "internalType": "address",
          "name": "spender",
          "type": "address"
        },
        {
          "internalType": "uint256",
          "name": "addedValue",
          "type": "uint256"
        }
      ],
      "name": "increaseAllowance",
      "outputs": [
        {
          "internalType": "bool",
          "name": "",
          "type": "bool"
        }
      ],
      "stateMutability": "nonpayable",
      "type": "function"
    },
    {
      "inputs": [],
      "name": "initialize",
      "outputs": [],
      "stateMutability": "nonpayable",
      "type": "function"
    },
    {
      "inputs": [],
      "name": "isGovernor",
      "outputs": [
        {
          "internalType": "bool",
          "name": "",
          "type": "bool"
        }
      ],
      "stateMutability": "view",
      "type": "function"
    },
    {
      "inputs": [
        {
          "internalType": "address",
          "name": "",
          "type": "address"
        }
      ],
      "name": "maxDeposit",
      "outputs": [
        {
          "internalType": "uint256",
          "name": "",
          "type": "uint256"
        }
      ],
      "stateMutability": "view",
      "type": "function"
    },
    {
      "inputs": [
        {
          "internalType": "address",
          "name": "",
          "type": "address"
        }
      ],
      "name": "maxMint",
      "outputs": [
        {
          "internalType": "uint256",
          "name": "",
          "type": "uint256"
        }
      ],
      "stateMutability": "view",
      "type": "function"
    },
    {
      "inputs": [
        {
          "internalType": "address",
          "name": "owner",
          "type": "address"
        }
      ],
      "name": "maxRedeem",
      "outputs": [
        {
          "internalType": "uint256",
          "name": "",
          "type": "uint256"
        }
      ],
      "stateMutability": "view",
      "type": "function"
    },
    {
      "inputs": [
        {
          "internalType": "address",
          "name": "owner",
          "type": "address"
        }
      ],
      "name": "maxWithdraw",
      "outputs": [
        {
          "internalType": "uint256",
          "name": "",
          "type": "uint256"
        }
      ],
      "stateMutability": "view",
      "type": "function"
    },
    {
      "inputs": [
        {
          "internalType": "uint256",
          "name": "shares",
          "type": "uint256"
        },
        {
          "internalType": "address",
          "name": "receiver",
          "type": "address"
        }
      ],
      "name": "mint",
      "outputs": [
        {
          "internalType": "uint256",
          "name": "",
          "type": "uint256"
        }
      ],
      "stateMutability": "nonpayable",
      "type": "function"
    },
    {
      "inputs": [],
      "name": "name",
      "outputs": [
        {
          "internalType": "string",
          "name": "",
          "type": "string"
        }
      ],
      "stateMutability": "view",
      "type": "function"
    },
    {
      "inputs": [
        {
          "internalType": "uint256",
          "name": "assets",
          "type": "uint256"
        }
      ],
      "name": "previewDeposit",
      "outputs": [
        {
          "internalType": "uint256",
          "name": "",
          "type": "uint256"
        }
      ],
      "stateMutability": "view",
      "type": "function"
    },
    {
      "inputs": [
        {
          "internalType": "uint256",
          "name": "shares",
          "type": "uint256"
        }
      ],
      "name": "previewMint",
      "outputs": [
        {
          "internalType": "uint256",
          "name": "",
          "type": "uint256"
        }
      ],
      "stateMutability": "view",
      "type": "function"
    },
    {
      "inputs": [
        {
          "internalType": "uint256",
          "name": "shares",
          "type": "uint256"
        }
      ],
      "name": "previewRedeem",
      "outputs": [
        {
          "internalType": "uint256",
          "name": "",
          "type": "uint256"
        }
      ],
      "stateMutability": "view",
      "type": "function"
    },
    {
      "inputs": [
        {
          "internalType": "uint256",
          "name": "assets",
          "type": "uint256"
        }
      ],
      "name": "previewWithdraw",
      "outputs": [
        {
          "internalType": "uint256",
          "name": "",
          "type": "uint256"
        }
      ],
      "stateMutability": "view",
      "type": "function"
    },
    {
      "inputs": [
        {
          "internalType": "uint256",
          "name": "shares",
          "type": "uint256"
        },
        {
          "internalType": "address",
          "name": "receiver",
          "type": "address"
        },
        {
          "internalType": "address",
          "name": "owner",
          "type": "address"
        }
      ],
      "name": "redeem",
      "outputs": [
        {
          "internalType": "uint256",
          "name": "",
          "type": "uint256"
        }
      ],
      "stateMutability": "nonpayable",
      "type": "function"
    },
    {
      "inputs": [],
      "name": "symbol",
      "outputs": [
        {
          "internalType": "string",
          "name": "",
          "type": "string"
        }
      ],
      "stateMutability": "view",
      "type": "function"
    },
    {
      "inputs": [],
      "name": "totalAssets",
      "outputs": [
        {
          "internalType": "uint256",
          "name": "",
          "type": "uint256"
        }
      ],
      "stateMutability": "view",
      "type": "function"
    },
    {
      "inputs": [],
      "name": "totalSupply",
      "outputs": [
        {
          "internalType": "uint256",
          "name": "",
          "type": "uint256"
        }
      ],
      "stateMutability": "view",
      "type": "function"
    },
    {
      "inputs": [
        {
          "internalType": "address",
          "name": "recipient",
          "type": "address"
        },
        {
          "internalType": "uint256",
          "name": "amount",
          "type": "uint256"
        }
      ],
      "name": "transfer",
      "outputs": [
        {
          "internalType": "bool",
          "name": "",
          "type": "bool"
        }
      ],
      "stateMutability": "nonpayable",
      "type": "function"
    },
    {
      "inputs": [
        {
          "internalType": "address",
          "name": "sender",
          "type": "address"
        },
        {
          "internalType": "address",
          "name": "recipient",
          "type": "address"
        },
        {
          "internalType": "uint256",
          "name": "amount",
          "type": "uint256"
        }
      ],
      "name": "transferFrom",
      "outputs": [
        {
          "internalType": "bool",
          "name": "",
          "type": "bool"
        }
      ],
      "stateMutability": "nonpayable",
      "type": "function"
    },
    {
      "inputs": [
        {
          "internalType": "address",
          "name": "_newGovernor",
          "type": "address"
        }
      ],
      "name": "transferGovernance",
      "outputs": [],
      "stateMutability": "nonpayable",
      "type": "function"
    },
    {
      "inputs": [
        {
          "internalType": "address",
          "name": "asset_",
          "type": "address"
        },
        {
          "internalType": "uint256",
          "name": "amount_",
          "type": "uint256"
        }
      ],
      "name": "transferToken",
      "outputs": [],
      "stateMutability": "nonpayable",
      "type": "function"
    },
    {
      "inputs": [
        {
          "internalType": "uint256",
          "name": "assets",
          "type": "uint256"
        },
        {
          "internalType": "address",
          "name": "receiver",
          "type": "address"
        },
        {
          "internalType": "address",
          "name": "owner",
          "type": "address"
        }
      ],
      "name": "withdraw",
      "outputs": [
        {
          "internalType": "uint256",
          "name": "",
          "type": "uint256"
        }
      ],
      "stateMutability": "nonpayable",
      "type": "function"
    }
  ],
  "transactionHash": "0x41ae0e0145c515551e419edef664c38c80a506222c2c58700892e4e087b78605",
  "args": [
    "0xDBFeFD2e8460a6Ee4955A68582F85708BAEA60A3"
  ],
  "numDeployments": 2,
  "solcInputHash": "ce506ab784cc51565e77c505a451257f",
  "bytecode": "0x60a06040523480156200001157600080fd5b50604051620020e3380380620020e38339810160408190526200003491620001d0565b60408051808201825260128152710aee4c2e0e0cac840a6eae0cae4409e8aa8960731b60208083019182528351808501909452600b84526a3bb9bab832b927a2aa243160a91b90840152815184939184918491849162000097916003916200012a565b508051620000ad9060049060208401906200012a565b50505060601b6001600160601b031916608052620000d833600080516020620020c383398151915255565b600080516020620020c3833981519152546040516001600160a01b03909116906000907fc7c0c772add429241571afb3805861fb3cfa2af374534088b76cdb4325a87e9a908290a3505050506200023f565b828054620001389062000202565b90600052602060002090601f0160209004810192826200015c5760008555620001a7565b82601f106200017757805160ff1916838001178555620001a7565b82800160010185558215620001a7579182015b82811115620001a75782518255916020019190600101906200018a565b50620001b5929150620001b9565b5090565b5b80821115620001b55760008155600101620001ba565b600060208284031215620001e357600080fd5b81516001600160a01b0381168114620001fb57600080fd5b9392505050565b600181811c908216806200021757607f821691505b602082108114156200023957634e487b7160e01b600052602260045260246000fd5b50919050565b60805160601c611e266200029d600039600081816102fc015281816104f8015281816105c30152818161070a0152818161094c01528181610a9f01528181610b3a01528181610d1201528181610e3c0152610eeb0152611e266000f3fe608060405234801561001057600080fd5b50600436106101fb5760003560e01c806370a082311161011a578063ba087652116100ad578063ce96cb771161007c578063ce96cb771461045b578063d38bfff41461046e578063d905777e14610481578063dd62ed3e14610494578063ef8b30f7146104cd57600080fd5b8063ba0876521461042d578063c63d75b614610333578063c6e6f59214610440578063c7af33521461045357600080fd5b8063a457c2d7116100e9578063a457c2d7146103e1578063a9059cbb146103f4578063b3d7f6b914610407578063b460af941461041a57600080fd5b806370a08231146103765780638129fc1c1461039f57806394bf804d146103a757806395d89b41146103ba57600080fd5b806323b872dd11610192578063402d267d11610161578063402d267d146103335780634cdad506146103485780635d36b1901461035b5780636e553f651461036357600080fd5b806323b872dd146102d8578063313ce567146102eb57806338d52e0f146102fa578063395093511461032057600080fd5b80630a28a477116101ce5780630a28a477146102885780630c340a241461029b5780631072cbea146102bb57806318160ddd146102d057600080fd5b806301e1d1141461020057806306fdde031461021b57806307a2d13a14610252578063095ea7b314610265575b600080fd5b6102086104e0565b6040519081526020015b60405180910390f35b6040805180820190915260128152710aee4c2e0e0cac840a6eae0cae4409e8aa8960731b60208201525b6040516102129190611bc6565b610208610260366004611af6565b61057f565b610278610273366004611aaa565b610678565b6040519015158152602001610212565b610208610296366004611af6565b61068f565b6102a36106c3565b6040516001600160a01b039091168152602001610212565b6102ce6102c9366004611aaa565b6106db565b005b600254610208565b6102786102e6366004611a6e565b6107a0565b60405160128152602001610212565b7f00000000000000000000000000000000000000000000000000000000000000006102a3565b61027861032e366004611aaa565b61084a565b610208610341366004611a20565b5060001990565b610208610356366004611af6565b610886565b6102ce610891565b610208610371366004611b28565b610937565b610208610384366004611a20565b6001600160a01b031660009081526020819052604090205490565b6102ce6109db565b6102086103b5366004611b28565b610b25565b60408051808201909152600b81526a3bb9bab832b927a2aa243160a91b6020820152610245565b6102786103ef366004611aaa565b610bb9565b610278610402366004611aaa565b610c52565b610208610415366004611af6565b610c5f565b610208610428366004611b4b565b610c77565b61020861043b366004611b4b565b610da1565b61020861044e366004611af6565b610eba565b610278610f8c565b610208610469366004611a20565b610fbd565b6102ce61047c366004611a20565b610fdf565b61020861048f366004611a20565b611083565b6102086104a2366004611a3b565b6001600160a01b03918216600090815260016020908152604080832093909416825291909152205490565b6102086104db366004611af6565b6110a1565b6040516370a0823160e01b81523060048201526000907f00000000000000000000000000000000000000000000000000000000000000006001600160a01b0316906370a082319060240160206040518083038186803b15801561054257600080fd5b505afa158015610556573d6000803e3d6000fd5b505050506040513d601f19601f8201168201806040525081019061057a9190611b0f565b905090565b60008061058b60025490565b905080156105b5578061059c6104e0565b6105a69085611d58565b6105b09190611c48565b610671565b6105c16012600a611cad565b7f00000000000000000000000000000000000000000000000000000000000000006001600160a01b031663313ce5676040518163ffffffff1660e01b815260040160206040518083038186803b15801561061a57600080fd5b505afa15801561062e573d6000803e3d6000fd5b505050506040513d601f19601f820116820180604052508101906106529190611b87565b61065d90600a611cad565b6106679085611d58565b6106719190611c48565b9392505050565b60006106853384846110ac565b5060015b92915050565b60008061069b83610eba565b9050826106a78261057f565b106106b35760006106b6565b60015b6106719060ff1682611c30565b600061057a600080516020611dd18339815191525490565b6106e3610f8c565b6107085760405162461bcd60e51b81526004016106ff90611bf9565b60405180910390fd5b7f00000000000000000000000000000000000000000000000000000000000000006001600160a01b0316826001600160a01b031614156107805760405162461bcd60e51b8152602060048201526013602482015272086c2dcdcdee840c6ded8d8cac6e8409e8aa89606b1b60448201526064016106ff565b61079c61078b6106c3565b6001600160a01b03841690836111d0565b5050565b60006107ad848484611238565b6001600160a01b0384166000908152600160209081526040808320338452909152902054828110156108325760405162461bcd60e51b815260206004820152602860248201527f45524332303a207472616e7366657220616d6f756e74206578636565647320616044820152676c6c6f77616e636560c01b60648201526084016106ff565b61083f85338584036110ac565b506001949350505050565b3360008181526001602090815260408083206001600160a01b03871684529091528120549091610685918590610881908690611c30565b6110ac565b60006106898261057f565b7f44c4d30b2eaad5130ad70c3ba6972730566f3e6359ab83e800d905c61b1c51db546001600160a01b0316336001600160a01b03161461092c5760405162461bcd60e51b815260206004820152603060248201527f4f6e6c79207468652070656e64696e6720476f7665726e6f722063616e20636f60448201526f6d706c6574652074686520636c61696d60801b60648201526084016106ff565b61093533611408565b565b6000336000610945856110a1565b90506109737f00000000000000000000000000000000000000000000000000000000000000008330886114c9565b61097d8482611501565b836001600160a01b0316826001600160a01b03167fdcbc1c05240f31ff3ad067ef1ee35ce4997762752e3a095284754544f4c709d787846040516109cb929190918252602082015260400190565b60405180910390a3949350505050565b6109e3610f8c565b6109ff5760405162461bcd60e51b81526004016106ff90611bf9565b600554610100900460ff1680610a18575060055460ff16155b610a7b5760405162461bcd60e51b815260206004820152602e60248201527f496e697469616c697a61626c653a20636f6e747261637420697320616c72656160448201526d191e481a5b9a5d1a585b1a5e995960921b60648201526084016106ff565b600554610100900460ff16158015610a9d576005805461ffff19166101011790555b7f00000000000000000000000000000000000000000000000000000000000000006001600160a01b031663f51b0fd46040518163ffffffff1660e01b8152600401600060405180830381600087803b158015610af857600080fd5b505af1158015610b0c573d6000803e3d6000fd5b505050508015610b22576005805461ff00191690555b50565b6000336000610b3385610c5f565b9050610b617f00000000000000000000000000000000000000000000000000000000000000008330846114c9565b610b6b8486611501565b836001600160a01b0316826001600160a01b03167fdcbc1c05240f31ff3ad067ef1ee35ce4997762752e3a095284754544f4c709d783886040516109cb929190918252602082015260400190565b3360009081526001602090815260408083206001600160a01b038616845290915281205482811015610c3b5760405162461bcd60e51b815260206004820152602560248201527f45524332303a2064656372656173656420616c6c6f77616e63652062656c6f77604482015264207a65726f60d81b60648201526084016106ff565b610c4833858584036110ac565b5060019392505050565b6000610685338484611238565b600080610c6b8361057f565b9050826106a782610eba565b6000610c8282610fbd565b841115610cd15760405162461bcd60e51b815260206004820152601f60248201527f455243343632363a207769746864726177206d6f7265207468656e206d61780060448201526064016106ff565b336000610cdd8661068f565b9050836001600160a01b0316826001600160a01b031614610d0357610d038483836115e0565b610d0d848261166c565b610d387f000000000000000000000000000000000000000000000000000000000000000086886111d0565b836001600160a01b0316856001600160a01b0316836001600160a01b03167ffbde797d201c681b91056529119e0b02407c7bb96a4a2c75c01fc9667232c8db8985604051610d90929190918252602082015260400190565b60405180910390a495945050505050565b6000610dac82611083565b841115610dfb5760405162461bcd60e51b815260206004820152601d60248201527f455243343632363a2072656465656d206d6f7265207468656e206d617800000060448201526064016106ff565b336000610e0786610886565b9050836001600160a01b0316826001600160a01b031614610e2d57610e2d8483886115e0565b610e37848761166c565b610e627f000000000000000000000000000000000000000000000000000000000000000086836111d0565b836001600160a01b0316856001600160a01b0316836001600160a01b03167ffbde797d201c681b91056529119e0b02407c7bb96a4a2c75c01fc9667232c8db848a604051610d90929190918252602082015260400190565b600080610ec660025490565b9050821580610ed3575080155b610ee957610edf6104e0565b6105a68285611d58565b7f00000000000000000000000000000000000000000000000000000000000000006001600160a01b031663313ce5676040518163ffffffff1660e01b815260040160206040518083038186803b158015610f4257600080fd5b505afa158015610f56573d6000803e3d6000fd5b505050506040513d601f19601f82011682018060405250810190610f7a9190611b87565b610f8590600a611cad565b6012610652565b6000610fa4600080516020611dd18339815191525490565b6001600160a01b0316336001600160a01b031614905090565b6001600160a01b0381166000908152602081905260408120546106899061057f565b610fe7610f8c565b6110035760405162461bcd60e51b81526004016106ff90611bf9565b61102b817f44c4d30b2eaad5130ad70c3ba6972730566f3e6359ab83e800d905c61b1c51db55565b806001600160a01b031661104b600080516020611dd18339815191525490565b6001600160a01b03167fa39cc5eb22d0f34d8beaefee8a3f17cc229c1a1d1ef87a5ad47313487b1c4f0d60405160405180910390a350565b6001600160a01b038116600090815260208190526040812054610689565b600061068982610eba565b6001600160a01b03831661110e5760405162461bcd60e51b8152602060048201526024808201527f45524332303a20617070726f76652066726f6d20746865207a65726f206164646044820152637265737360e01b60648201526084016106ff565b6001600160a01b03821661116f5760405162461bcd60e51b815260206004820152602260248201527f45524332303a20617070726f766520746f20746865207a65726f206164647265604482015261737360f01b60648201526084016106ff565b6001600160a01b0383811660008181526001602090815260408083209487168084529482529182902085905590518481527f8c5be1e5ebec7d5bd14f71427d1e84f3dd0314c0f7b2291e5b200ac8c7c3b925910160405180910390a3505050565b6040516001600160a01b03831660248201526044810182905261123390849063a9059cbb60e01b906064015b60408051601f198184030181529190526020810180516001600160e01b03166001600160e01b0319909316929092179091526117ba565b505050565b6001600160a01b03831661129c5760405162461bcd60e51b815260206004820152602560248201527f45524332303a207472616e736665722066726f6d20746865207a65726f206164604482015264647265737360d81b60648201526084016106ff565b6001600160a01b0382166112fe5760405162461bcd60e51b815260206004820152602360248201527f45524332303a207472616e7366657220746f20746865207a65726f206164647260448201526265737360e81b60648201526084016106ff565b6001600160a01b038316600090815260208190526040902054818110156113765760405162461bcd60e51b815260206004820152602660248201527f45524332303a207472616e7366657220616d6f756e7420657863656564732062604482015265616c616e636560d01b60648201526084016106ff565b6001600160a01b038085166000908152602081905260408082208585039055918516815290812080548492906113ad908490611c30565b92505081905550826001600160a01b0316846001600160a01b03167fddf252ad1be2c89b69c2b068fc378daa952ba7f163c4a11628f55a4df523b3ef846040516113f991815260200190565b60405180910390a35b50505050565b6001600160a01b03811661145e5760405162461bcd60e51b815260206004820152601a60248201527f4e657720476f7665726e6f72206973206164647265737328302900000000000060448201526064016106ff565b806001600160a01b031661147e600080516020611dd18339815191525490565b6001600160a01b03167fc7c0c772add429241571afb3805861fb3cfa2af374534088b76cdb4325a87e9a60405160405180910390a3610b2281600080516020611dd183398151915255565b6040516001600160a01b03808516602483015283166044820152606481018290526114029085906323b872dd60e01b906084016111fc565b6001600160a01b0382166115575760405162461bcd60e51b815260206004820152601f60248201527f45524332303a206d696e7420746f20746865207a65726f20616464726573730060448201526064016106ff565b80600260008282546115699190611c30565b90915550506001600160a01b03821660009081526020819052604081208054839290611596908490611c30565b90915550506040518181526001600160a01b038316906000907fddf252ad1be2c89b69c2b068fc378daa952ba7f163c4a11628f55a4df523b3ef9060200160405180910390a35050565b6001600160a01b038381166000908152600160209081526040808320938616835292905220546000198114611402578181101561165f5760405162461bcd60e51b815260206004820152601d60248201527f45524332303a20696e73756666696369656e7420616c6c6f77616e636500000060448201526064016106ff565b61140284848484036110ac565b6001600160a01b0382166116cc5760405162461bcd60e51b815260206004820152602160248201527f45524332303a206275726e2066726f6d20746865207a65726f206164647265736044820152607360f81b60648201526084016106ff565b6001600160a01b038216600090815260208190526040902054818110156117405760405162461bcd60e51b815260206004820152602260248201527f45524332303a206275726e20616d6f756e7420657863656564732062616c616e604482015261636560f01b60648201526084016106ff565b6001600160a01b038316600090815260208190526040812083830390556002805484929061176f908490611d77565b90915550506040518281526000906001600160a01b038516907fddf252ad1be2c89b69c2b068fc378daa952ba7f163c4a11628f55a4df523b3ef9060200160405180910390a3505050565b600061180f826040518060400160405280602081526020017f5361666545524332303a206c6f772d6c6576656c2063616c6c206661696c6564815250856001600160a01b031661188c9092919063ffffffff16565b805190915015611233578080602001905181019061182d9190611ad4565b6112335760405162461bcd60e51b815260206004820152602a60248201527f5361666545524332303a204552433230206f7065726174696f6e20646964206e6044820152691bdd081cdd58d8d9595960b21b60648201526084016106ff565b606061189b84846000856118a3565b949350505050565b6060824710156119045760405162461bcd60e51b815260206004820152602660248201527f416464726573733a20696e73756666696369656e742062616c616e636520666f6044820152651c8818d85b1b60d21b60648201526084016106ff565b843b6119525760405162461bcd60e51b815260206004820152601d60248201527f416464726573733a2063616c6c20746f206e6f6e2d636f6e747261637400000060448201526064016106ff565b600080866001600160a01b0316858760405161196e9190611baa565b60006040518083038185875af1925050503d80600081146119ab576040519150601f19603f3d011682016040523d82523d6000602084013e6119b0565b606091505b50915091506119c08282866119cb565b979650505050505050565b606083156119da575081610671565b8251156119ea5782518084602001fd5b8160405162461bcd60e51b81526004016106ff9190611bc6565b80356001600160a01b0381168114611a1b57600080fd5b919050565b600060208284031215611a3257600080fd5b61067182611a04565b60008060408385031215611a4e57600080fd5b611a5783611a04565b9150611a6560208401611a04565b90509250929050565b600080600060608486031215611a8357600080fd5b611a8c84611a04565b9250611a9a60208501611a04565b9150604084013590509250925092565b60008060408385031215611abd57600080fd5b611ac683611a04565b946020939093013593505050565b600060208284031215611ae657600080fd5b8151801515811461067157600080fd5b600060208284031215611b0857600080fd5b5035919050565b600060208284031215611b2157600080fd5b5051919050565b60008060408385031215611b3b57600080fd5b82359150611a6560208401611a04565b600080600060608486031215611b6057600080fd5b83359250611b7060208501611a04565b9150611b7e60408501611a04565b90509250925092565b600060208284031215611b9957600080fd5b815160ff8116811461067157600080fd5b60008251611bbc818460208701611d8e565b9190910192915050565b6020815260008251806020840152611be5816040850160208701611d8e565b601f01601f19169190910160400192915050565b6020808252601a908201527f43616c6c6572206973206e6f742074686520476f7665726e6f72000000000000604082015260600190565b60008219821115611c4357611c43611dba565b500190565b600082611c6557634e487b7160e01b600052601260045260246000fd5b500490565b600181815b80851115611ca5578160001904821115611c8b57611c8b611dba565b80851615611c9857918102915b93841c9390800290611c6f565b509250929050565b600061067160ff841683600082611cc657506001610689565b81611cd357506000610689565b8160018114611ce95760028114611cf357611d0f565b6001915050610689565b60ff841115611d0457611d04611dba565b50506001821b610689565b5060208310610133831016604e8410600b8410161715611d32575081810a610689565b611d3c8383611c6a565b8060001904821115611d5057611d50611dba565b029392505050565b6000816000190483118215151615611d7257611d72611dba565b500290565b600082821015611d8957611d89611dba565b500390565b60005b83811015611da9578181015183820152602001611d91565b838111156114025750506000910152565b634e487b7160e01b600052601160045260246000fdfe7bea13895fa79d2831e0a9e28edede30099005a50d652d8957cf8a607ee6ca4aa26469706673582212201ba879f33b2fb28f88b021c9a5ea79bbfbb6a5a8ba9b0fe246847e081b2f97da64736f6c634300080700337bea13895fa79d2831e0a9e28edede30099005a50d652d8957cf8a607ee6ca4a",
  "libraries": {},
  "devdoc": {
    "author": "Origin Protocol Inc",
    "kind": "dev",
    "methods": {
      "allowance(address,address)": {
        "details": "See {IERC20-allowance}."
      },
      "approve(address,uint256)": {
        "details": "See {IERC20-approve}. Requirements: - `spender` cannot be the zero address."
      },
      "asset()": {
        "details": "See {IERC4262-asset} "
      },
      "balanceOf(address)": {
        "details": "See {IERC20-balanceOf}."
      },
      "convertToAssets(uint256)": {
        "details": "See {IERC4262-convertToAssets} "
      },
      "convertToShares(uint256)": {
        "details": "See {IERC4262-convertToShares} Will revert if asserts > 0, totalSupply > 0 and totalAssets = 0. That corresponds to a case where any asset would represent an infinite amout of shares."
      },
      "decimals()": {
        "details": "Returns the number of decimals used to get its user representation. For example, if `decimals` equals `2`, a balance of `505` tokens should be displayed to a user as `5.05` (`505 / 10 ** 2`). Tokens usually opt for a value of 18, imitating the relationship between Ether and Wei. This is the value {ERC20} uses, unless this function is overridden; NOTE: This information is only used for _display_ purposes: it in no way affects any of the arithmetic of the contract, including {IERC20-balanceOf} and {IERC20-transfer}."
      },
      "decreaseAllowance(address,uint256)": {
        "details": "Atomically decreases the allowance granted to `spender` by the caller. This is an alternative to {approve} that can be used as a mitigation for problems described in {IERC20-approve}. Emits an {Approval} event indicating the updated allowance. Requirements: - `spender` cannot be the zero address. - `spender` must have allowance for the caller of at least `subtractedValue`."
      },
      "deposit(uint256,address)": {
        "details": "See {IERC4262-deposit} "
      },
      "increaseAllowance(address,uint256)": {
        "details": "Atomically increases the allowance granted to `spender` by the caller. This is an alternative to {approve} that can be used as a mitigation for problems described in {IERC20-approve}. Emits an {Approval} event indicating the updated allowance. Requirements: - `spender` cannot be the zero address."
      },
      "maxDeposit(address)": {
        "details": "See {IERC4262-maxDeposit} "
      },
      "maxMint(address)": {
        "details": "See {IERC4262-maxMint} "
      },
      "maxRedeem(address)": {
        "details": "See {IERC4262-maxRedeem} "
      },
      "maxWithdraw(address)": {
        "details": "See {IERC4262-maxWithdraw} "
      },
      "mint(uint256,address)": {
        "details": "See {IERC4262-mint} "
      },
      "name()": {
        "details": "Returns the name of the token."
      },
      "previewDeposit(uint256)": {
        "details": "See {IERC4262-previewDeposit} "
      },
      "previewMint(uint256)": {
        "details": "See {IERC4262-previewMint} "
      },
      "previewRedeem(uint256)": {
        "details": "See {IERC4262-previewRedeem} "
      },
      "previewWithdraw(uint256)": {
        "details": "See {IERC4262-previewWithdraw} "
      },
      "redeem(uint256,address,address)": {
        "details": "See {IERC4262-redeem} "
      },
      "symbol()": {
        "details": "Returns the symbol of the token, usually a shorter version of the name."
      },
      "totalAssets()": {
        "details": "See {IERC4262-totalAssets} "
      },
      "totalSupply()": {
        "details": "See {IERC20-totalSupply}."
      },
      "transfer(address,uint256)": {
        "details": "See {IERC20-transfer}. Requirements: - `recipient` cannot be the zero address. - the caller must have a balance of at least `amount`."
      },
      "transferFrom(address,address,uint256)": {
        "details": "See {IERC20-transferFrom}. Emits an {Approval} event indicating the updated allowance. This is not required by the EIP. See the note at the beginning of {ERC20}. Requirements: - `sender` and `recipient` cannot be the zero address. - `sender` must have a balance of at least `amount`. - the caller must have allowance for ``sender``'s tokens of at least `amount`."
      },
      "transferGovernance(address)": {
        "params": {
          "_newGovernor": "Address of the new Governor"
        }
      },
      "transferToken(address,uint256)": {
        "params": {
          "amount_": "Amount of the asset to transfer",
          "asset_": "Address for the asset"
        }
      },
      "withdraw(uint256,address,address)": {
        "details": "See {IERC4262-withdraw} "
      }
    },
    "title": "OETH Token Contract",
    "version": 1
  },
  "userdoc": {
    "kind": "user",
    "methods": {
      "claimGovernance()": {
        "notice": "Claim Governance of the contract to a new account (`newGovernor`). Can only be called by the new Governor."
      },
      "governor()": {
        "notice": "Returns the address of the current Governor."
      },
      "initialize()": {
        "notice": "Enable OETH rebasing for this contract"
      },
      "isGovernor()": {
        "notice": "Returns true if the caller is the current Governor."
      },
      "transferGovernance(address)": {
        "notice": "Transfers Governance of the contract to a new account (`newGovernor`). Can only be called by the current Governor. Must be claimed for this to complete"
      },
      "transferToken(address,uint256)": {
        "notice": "Transfer token to governor. Intended for recovering tokens stuck in      contract, i.e. mistaken sends. Cannot transfer OETH"
      }
    },
    "version": 1
  },
  "storageLayout": {
    "storage": [
      {
        "astId": 107,
        "contract": "contracts/token/WOETHBase.sol:WOETHBase",
        "label": "_balances",
        "offset": 0,
        "slot": "0",
        "type": "t_mapping(t_address,t_uint256)"
      },
      {
        "astId": 113,
        "contract": "contracts/token/WOETHBase.sol:WOETHBase",
        "label": "_allowances",
        "offset": 0,
        "slot": "1",
        "type": "t_mapping(t_address,t_mapping(t_address,t_uint256))"
      },
      {
        "astId": 115,
        "contract": "contracts/token/WOETHBase.sol:WOETHBase",
        "label": "_totalSupply",
        "offset": 0,
        "slot": "2",
        "type": "t_uint256"
      },
      {
        "astId": 117,
        "contract": "contracts/token/WOETHBase.sol:WOETHBase",
        "label": "_name",
        "offset": 0,
        "slot": "3",
        "type": "t_string_storage"
      },
      {
        "astId": 119,
        "contract": "contracts/token/WOETHBase.sol:WOETHBase",
        "label": "_symbol",
        "offset": 0,
        "slot": "4",
        "type": "t_string_storage"
      },
      {
        "astId": 25144,
        "contract": "contracts/token/WOETHBase.sol:WOETHBase",
        "label": "initialized",
        "offset": 0,
        "slot": "5",
        "type": "t_bool"
      },
      {
        "astId": 25147,
        "contract": "contracts/token/WOETHBase.sol:WOETHBase",
        "label": "initializing",
        "offset": 1,
        "slot": "5",
        "type": "t_bool"
      },
      {
        "astId": 25187,
        "contract": "contracts/token/WOETHBase.sol:WOETHBase",
        "label": "______gap",
        "offset": 0,
        "slot": "6",
        "type": "t_array(t_uint256)50_storage"
      }
    ],
    "types": {
      "t_address": {
        "encoding": "inplace",
        "label": "address",
        "numberOfBytes": "20"
      },
      "t_array(t_uint256)50_storage": {
        "base": "t_uint256",
        "encoding": "inplace",
        "label": "uint256[50]",
        "numberOfBytes": "1600"
      },
      "t_bool": {
        "encoding": "inplace",
        "label": "bool",
        "numberOfBytes": "1"
      },
      "t_mapping(t_address,t_mapping(t_address,t_uint256))": {
        "encoding": "mapping",
        "key": "t_address",
        "label": "mapping(address => mapping(address => uint256))",
        "numberOfBytes": "32",
        "value": "t_mapping(t_address,t_uint256)"
      },
      "t_mapping(t_address,t_uint256)": {
        "encoding": "mapping",
        "key": "t_address",
        "label": "mapping(address => uint256)",
        "numberOfBytes": "32",
        "value": "t_uint256"
      },
      "t_string_storage": {
        "encoding": "bytes",
        "label": "string",
        "numberOfBytes": "32"
      },
      "t_uint256": {
        "encoding": "inplace",
        "label": "uint256",
        "numberOfBytes": "32"
      }
    }
  }
}