{
  "address": "0xb1e25689D55734FD3ffFc939c4C3Eb52DFf8A794",
  "abi": [
    {
      "inputs": [
        {
          "internalType": "contract ERC20",
          "name": "underlying_",
          "type": "address"
        }
      ],
      "stateMutability": "nonpayable",
      "type": "constructor"
    },
    {
      "anonymous": false,
      "inputs": [
        {
          "indexed": true,
          "internalType": "address",
          "name": "owner",
          "type": "address"
        },
        {
          "indexed": true,
          "internalType": "address",
          "name": "spender",
          "type": "address"
        },
        {
          "indexed": false,
          "internalType": "uint256",
          "name": "value",
          "type": "uint256"
        }
      ],
      "name": "Approval",
      "type": "event"
    },
    {
      "anonymous": false,
      "inputs": [
        {
          "indexed": true,
          "internalType": "address",
          "name": "caller",
          "type": "address"
        },
        {
          "indexed": true,
          "internalType": "address",
          "name": "owner",
          "type": "address"
        },
        {
          "indexed": false,
          "internalType": "uint256",
          "name": "assets",
          "type": "uint256"
        },
        {
          "indexed": false,
          "internalType": "uint256",
          "name": "shares",
          "type": "uint256"
        }
      ],
      "name": "Deposit",
      "type": "event"
    },
    {
      "anonymous": false,
      "inputs": [
        {
          "indexed": true,
          "internalType": "address",
          "name": "previousGovernor",
          "type": "address"
        },
        {
          "indexed": true,
          "internalType": "address",
          "name": "newGovernor",
          "type": "address"
        }
      ],
      "name": "GovernorshipTransferred",
      "type": "event"
    },
    {
      "anonymous": false,
      "inputs": [
        {
          "indexed": true,
          "internalType": "address",
          "name": "previousGovernor",
          "type": "address"
        },
        {
          "indexed": true,
          "internalType": "address",
          "name": "newGovernor",
          "type": "address"
        }
      ],
      "name": "PendingGovernorshipTransfer",
      "type": "event"
    },
    {
      "anonymous": false,
      "inputs": [
        {
          "indexed": true,
          "internalType": "address",
          "name": "from",
          "type": "address"
        },
        {
          "indexed": true,
          "internalType": "address",
          "name": "to",
          "type": "address"
        },
        {
          "indexed": false,
          "internalType": "uint256",
          "name": "value",
          "type": "uint256"
        }
      ],
      "name": "Transfer",
      "type": "event"
    },
    {
      "anonymous": false,
      "inputs": [
        {
          "indexed": true,
          "internalType": "address",
          "name": "caller",
          "type": "address"
        },
        {
          "indexed": true,
          "internalType": "address",
          "name": "receiver",
          "type": "address"
        },
        {
          "indexed": true,
          "internalType": "address",
          "name": "owner",
          "type": "address"
        },
        {
          "indexed": false,
          "internalType": "uint256",
          "name": "assets",
          "type": "uint256"
        },
        {
          "indexed": false,
          "internalType": "uint256",
          "name": "shares",
          "type": "uint256"
        }
      ],
      "name": "Withdraw",
      "type": "event"
    },
    {
      "inputs": [],
      "name": "adjuster",
      "outputs": [
        {
          "internalType": "uint256",
          "name": "",
          "type": "uint256"
        }
      ],
      "stateMutability": "view",
      "type": "function"
    },
    {
      "inputs": [
        {
          "internalType": "address",
          "name": "owner",
          "type": "address"
        },
        {
          "internalType": "address",
          "name": "spender",
          "type": "address"
        }
      ],
      "name": "allowance",
      "outputs": [
        {
          "internalType": "uint256",
          "name": "",
          "type": "uint256"
        }
      ],
      "stateMutability": "view",
      "type": "function"
    },
    {
      "inputs": [
        {
          "internalType": "address",
          "name": "spender",
          "type": "address"
        },
        {
          "internalType": "uint256",
          "name": "amount",
          "type": "uint256"
        }
      ],
      "name": "approve",
      "outputs": [
        {
          "internalType": "bool",
          "name": "",
          "type": "bool"
        }
      ],
      "stateMutability": "nonpayable",
      "type": "function"
    },
    {
      "inputs": [],
      "name": "asset",
      "outputs": [
        {
          "internalType": "address",
          "name": "",
          "type": "address"
        }
      ],
      "stateMutability": "view",
      "type": "function"
    },
    {
      "inputs": [
        {
          "internalType": "address",
          "name": "account",
          "type": "address"
        }
      ],
      "name": "balanceOf",
      "outputs": [
        {
          "internalType": "uint256",
          "name": "",
          "type": "uint256"
        }
      ],
      "stateMutability": "view",
      "type": "function"
    },
    {
      "inputs": [],
      "name": "claimGovernance",
      "outputs": [],
      "stateMutability": "nonpayable",
      "type": "function"
    },
    {
      "inputs": [
        {
          "internalType": "uint256",
          "name": "shares",
          "type": "uint256"
        }
      ],
      "name": "convertToAssets",
      "outputs": [
        {
          "internalType": "uint256",
          "name": "assets",
          "type": "uint256"
        }
      ],
      "stateMutability": "view",
      "type": "function"
    },
    {
      "inputs": [
        {
          "internalType": "uint256",
          "name": "assets",
          "type": "uint256"
        }
      ],
      "name": "convertToShares",
      "outputs": [
        {
          "internalType": "uint256",
          "name": "shares",
          "type": "uint256"
        }
      ],
      "stateMutability": "view",
      "type": "function"
    },
    {
      "inputs": [],
      "name": "decimals",
      "outputs": [
        {
          "internalType": "uint8",
          "name": "",
          "type": "uint8"
        }
      ],
      "stateMutability": "view",
      "type": "function"
    },
    {
      "inputs": [
        {
          "internalType": "address",
          "name": "spender",
          "type": "address"
        },
        {
          "internalType": "uint256",
          "name": "subtractedValue",
          "type": "uint256"
        }
      ],
      "name": "decreaseAllowance",
      "outputs": [
        {
          "internalType": "bool",
          "name": "",
          "type": "bool"
        }
      ],
      "stateMutability": "nonpayable",
      "type": "function"
    },
    {
      "inputs": [
        {
          "internalType": "uint256",
          "name": "assets",
          "type": "uint256"
        },
        {
          "internalType": "address",
          "name": "receiver",
          "type": "address"
        }
      ],
      "name": "deposit",
      "outputs": [
        {
          "internalType": "uint256",
          "name": "",
          "type": "uint256"
        }
      ],
      "stateMutability": "nonpayable",
      "type": "function"
    },
    {
      "inputs": [],
      "name": "governor",
      "outputs": [
        {
          "internalType": "address",
          "name": "",
          "type": "address"
        }
      ],
      "stateMutability": "view",
      "type": "function"
    },
    {
      "inputs": [
        {
          "internalType": "address",
          "name": "spender",
          "type": "address"
        },
        {
          "internalType": "uint256",
          "name": "addedValue",
          "type": "uint256"
        }
      ],
      "name": "increaseAllowance",
      "outputs": [
        {
          "internalType": "bool",
          "name": "",
          "type": "bool"
        }
      ],
      "stateMutability": "nonpayable",
      "type": "function"
    },
    {
      "inputs": [],
      "name": "initialize",
      "outputs": [],
      "stateMutability": "nonpayable",
      "type": "function"
    },
    {
      "inputs": [],
      "name": "initialize2",
      "outputs": [],
      "stateMutability": "nonpayable",
      "type": "function"
    },
    {
      "inputs": [],
      "name": "isGovernor",
      "outputs": [
        {
          "internalType": "bool",
          "name": "",
          "type": "bool"
        }
      ],
      "stateMutability": "view",
      "type": "function"
    },
    {
      "inputs": [
        {
          "internalType": "address",
          "name": "",
          "type": "address"
        }
      ],
      "name": "maxDeposit",
      "outputs": [
        {
          "internalType": "uint256",
          "name": "",
          "type": "uint256"
        }
      ],
      "stateMutability": "view",
      "type": "function"
    },
    {
      "inputs": [
        {
          "internalType": "address",
          "name": "",
          "type": "address"
        }
      ],
      "name": "maxMint",
      "outputs": [
        {
          "internalType": "uint256",
          "name": "",
          "type": "uint256"
        }
      ],
      "stateMutability": "view",
      "type": "function"
    },
    {
      "inputs": [
        {
          "internalType": "address",
          "name": "owner",
          "type": "address"
        }
      ],
      "name": "maxRedeem",
      "outputs": [
        {
          "internalType": "uint256",
          "name": "",
          "type": "uint256"
        }
      ],
      "stateMutability": "view",
      "type": "function"
    },
    {
      "inputs": [
        {
          "internalType": "address",
          "name": "owner",
          "type": "address"
        }
      ],
      "name": "maxWithdraw",
      "outputs": [
        {
          "internalType": "uint256",
          "name": "",
          "type": "uint256"
        }
      ],
      "stateMutability": "view",
      "type": "function"
    },
    {
      "inputs": [
        {
          "internalType": "uint256",
          "name": "shares",
          "type": "uint256"
        },
        {
          "internalType": "address",
          "name": "receiver",
          "type": "address"
        }
      ],
      "name": "mint",
      "outputs": [
        {
          "internalType": "uint256",
          "name": "",
          "type": "uint256"
        }
      ],
      "stateMutability": "nonpayable",
      "type": "function"
    },
    {
      "inputs": [],
      "name": "name",
      "outputs": [
        {
          "internalType": "string",
          "name": "",
          "type": "string"
        }
      ],
      "stateMutability": "view",
      "type": "function"
    },
    {
      "inputs": [
        {
          "internalType": "uint256",
          "name": "assets",
          "type": "uint256"
        }
      ],
      "name": "previewDeposit",
      "outputs": [
        {
          "internalType": "uint256",
          "name": "",
          "type": "uint256"
        }
      ],
      "stateMutability": "view",
      "type": "function"
    },
    {
      "inputs": [
        {
          "internalType": "uint256",
          "name": "shares",
          "type": "uint256"
        }
      ],
      "name": "previewMint",
      "outputs": [
        {
          "internalType": "uint256",
          "name": "",
          "type": "uint256"
        }
      ],
      "stateMutability": "view",
      "type": "function"
    },
    {
      "inputs": [
        {
          "internalType": "uint256",
          "name": "shares",
          "type": "uint256"
        }
      ],
      "name": "previewRedeem",
      "outputs": [
        {
          "internalType": "uint256",
          "name": "",
          "type": "uint256"
        }
      ],
      "stateMutability": "view",
      "type": "function"
    },
    {
      "inputs": [
        {
          "internalType": "uint256",
          "name": "assets",
          "type": "uint256"
        }
      ],
      "name": "previewWithdraw",
      "outputs": [
        {
          "internalType": "uint256",
          "name": "",
          "type": "uint256"
        }
      ],
      "stateMutability": "view",
      "type": "function"
    },
    {
      "inputs": [
        {
          "internalType": "uint256",
          "name": "shares",
          "type": "uint256"
        },
        {
          "internalType": "address",
          "name": "receiver",
          "type": "address"
        },
        {
          "internalType": "address",
          "name": "owner",
          "type": "address"
        }
      ],
      "name": "redeem",
      "outputs": [
        {
          "internalType": "uint256",
          "name": "",
          "type": "uint256"
        }
      ],
      "stateMutability": "nonpayable",
      "type": "function"
    },
    {
      "inputs": [],
      "name": "symbol",
      "outputs": [
        {
          "internalType": "string",
          "name": "",
          "type": "string"
        }
      ],
      "stateMutability": "view",
      "type": "function"
    },
    {
      "inputs": [],
      "name": "totalAssets",
      "outputs": [
        {
          "internalType": "uint256",
          "name": "",
          "type": "uint256"
        }
      ],
      "stateMutability": "view",
      "type": "function"
    },
    {
      "inputs": [],
      "name": "totalSupply",
      "outputs": [
        {
          "internalType": "uint256",
          "name": "",
          "type": "uint256"
        }
      ],
      "stateMutability": "view",
      "type": "function"
    },
    {
      "inputs": [
        {
          "internalType": "address",
          "name": "recipient",
          "type": "address"
        },
        {
          "internalType": "uint256",
          "name": "amount",
          "type": "uint256"
        }
      ],
      "name": "transfer",
      "outputs": [
        {
          "internalType": "bool",
          "name": "",
          "type": "bool"
        }
      ],
      "stateMutability": "nonpayable",
      "type": "function"
    },
    {
      "inputs": [
        {
          "internalType": "address",
          "name": "sender",
          "type": "address"
        },
        {
          "internalType": "address",
          "name": "recipient",
          "type": "address"
        },
        {
          "internalType": "uint256",
          "name": "amount",
          "type": "uint256"
        }
      ],
      "name": "transferFrom",
      "outputs": [
        {
          "internalType": "bool",
          "name": "",
          "type": "bool"
        }
      ],
      "stateMutability": "nonpayable",
      "type": "function"
    },
    {
      "inputs": [
        {
          "internalType": "address",
          "name": "_newGovernor",
          "type": "address"
        }
      ],
      "name": "transferGovernance",
      "outputs": [],
      "stateMutability": "nonpayable",
      "type": "function"
    },
    {
      "inputs": [
        {
          "internalType": "address",
          "name": "asset_",
          "type": "address"
        },
        {
          "internalType": "uint256",
          "name": "amount_",
          "type": "uint256"
        }
      ],
      "name": "transferToken",
      "outputs": [],
      "stateMutability": "nonpayable",
      "type": "function"
    },
    {
      "inputs": [
        {
          "internalType": "uint256",
          "name": "assets",
          "type": "uint256"
        },
        {
          "internalType": "address",
          "name": "receiver",
          "type": "address"
        },
        {
          "internalType": "address",
          "name": "owner",
          "type": "address"
        }
      ],
      "name": "withdraw",
      "outputs": [
        {
          "internalType": "uint256",
          "name": "",
          "type": "uint256"
        }
      ],
      "stateMutability": "nonpayable",
      "type": "function"
    }
  ],
  "transactionHash": "0x568071c5716732cece034071d77d1c816350f3527346754bdd5e435c321e3c96",
  "args": [
    "0xDBFeFD2e8460a6Ee4955A68582F85708BAEA60A3"
  ],
  "numDeployments": 3,
  "solcInputHash": "dd7bd41d62c1f369fe4426dcaa3d5c29",
  "bytecode": "0x60a060405234801561001057600080fd5b50604051611f63380380611f6383398101604081905261002f91610084565b8080604051806020016040528060008152506040518060200160405280600081525081600390816100609190610153565b50600461006d8282610153565b5050506001600160a01b0316608052506102119050565b60006020828403121561009657600080fd5b81516001600160a01b03811681146100ad57600080fd5b9392505050565b634e487b7160e01b600052604160045260246000fd5b600181811c908216806100de57607f821691505b6020821081036100fe57634e487b7160e01b600052602260045260246000fd5b50919050565b601f82111561014e57806000526020600020601f840160051c8101602085101561012b5750805b601f840160051c820191505b8181101561014b5760008155600101610137565b50505b505050565b81516001600160401b0381111561016c5761016c6100b4565b6101808161017a84546100ca565b84610104565b6020601f8211600181146101b4576000831561019c5750848201515b600019600385901b1c1916600184901b17845561014b565b600084815260208120601f198516915b828110156101e457878501518255602094850194600190920191016101c4565b50848210156102025786840151600019600387901b60f8161c191681555b50505050600190811b01905550565b608051611cff61026460003960008181610312015281816105ef015281816108090152818161097801528181610acb01528181610b6e01528181610d4601528181610e7001526110290152611cff6000f3fe608060405234801561001057600080fd5b50600436106102115760003560e01c806370a0823111610125578063be989523116100ad578063ce96cb771161007c578063ce96cb7714610482578063d38bfff414610495578063d905777e146104a8578063dd62ed3e146104bb578063ef8b30f7146104f457600080fd5b8063be9895231461045e578063c63d75b614610349578063c6e6f59214610467578063c7af33521461047a57600080fd5b8063a457c2d7116100f4578063a457c2d7146103ff578063a9059cbb14610412578063b3d7f6b914610425578063b460af9414610438578063ba0876521461044b57600080fd5b806370a08231146103945780638129fc1c146103bd57806394bf804d146103c557806395d89b41146103d857600080fd5b806323b872dd116101a8578063402d267d11610177578063402d267d14610349578063472abf681461035e5780634cdad506146103665780635d36b190146103795780636e553f651461038157600080fd5b806323b872dd146102ee578063313ce5671461030157806338d52e0f14610310578063395093511461033657600080fd5b80630a28a477116101e45780630a28a4771461029e5780630c340a24146102b15780631072cbea146102d157806318160ddd146102e657600080fd5b806301e1d1141461021657806306fdde031461023157806307a2d13a14610268578063095ea7b31461027b575b600080fd5b61021e610507565b6040519081526020015b60405180910390f35b6040805180820190915260128152710aee4c2e0e0cac840a6eae0cae4409e8aa8960731b60208201525b6040516102289190611a2a565b61021e610276366004611a5d565b610530565b61028e610289366004611a92565b610557565b6040519015158152602001610228565b61021e6102ac366004611a5d565b61056d565b6102b96105a8565b6040516001600160a01b039091168152602001610228565b6102e46102df366004611a92565b6105c0565b005b60025461021e565b61028e6102fc366004611abc565b61068e565b60405160128152602001610228565b7f00000000000000000000000000000000000000000000000000000000000000006102b9565b61028e610344366004611a92565b610738565b61021e610357366004611af9565b5060001990565b6102e4610774565b61021e610374366004611a5d565b6108b4565b6102e46108bf565b61021e61038f366004611b14565b610963565b61021e6103a2366004611af9565b6001600160a01b031660009081526020819052604090205490565b6102e4610a07565b61021e6103d3366004611b14565b610b59565b60408051808201909152600b81526a3bb9bab832b927a2aa243160a91b602082015261025b565b61028e61040d366004611a92565b610bed565b61028e610420366004611a92565b610c86565b61021e610433366004611a5d565b610c93565b61021e610446366004611b40565b610cab565b61021e610459366004611b40565b610dd5565b61021e60385481565b61021e610475366004611a5d565b610eee565b61028e610f05565b61021e610490366004611af9565b610f36565b6102e46104a3366004611af9565b610f58565b61021e6104b6366004611af9565b610ffc565b61021e6104c9366004611b7c565b6001600160a01b03918216600090815260016020908152604080832093909416825291909152205490565b61021e610502366004611a5d565b61101a565b6000610511611025565b6038546002546105219190611bbc565b61052b9190611bd3565b905090565b600061053a611025565b6038546105479084611bbc565b6105519190611bd3565b92915050565b60006105643384846110a9565b50600192915050565b60008061057983610eee565b90508261058582610530565b10610591576000610594565b60015b6105a19060ff1682611bf5565b9392505050565b600061052b600080516020611caa8339815191525490565b6105c8610f05565b6105ed5760405162461bcd60e51b81526004016105e490611c08565b60405180910390fd5b7f00000000000000000000000000000000000000000000000000000000000000006001600160a01b0316826001600160a01b03160361066e5760405162461bcd60e51b815260206004820152601960248201527f43616e6e6f7420636f6c6c65637420636f72652061737365740000000000000060448201526064016105e4565b61068a6106796105a8565b6001600160a01b03841690836111cd565b5050565b600061069b848484611235565b6001600160a01b0384166000908152600160209081526040808320338452909152902054828110156107205760405162461bcd60e51b815260206004820152602860248201527f45524332303a207472616e7366657220616d6f756e74206578636565647320616044820152676c6c6f77616e636560c01b60648201526084016105e4565b61072d85338584036110a9565b506001949350505050565b3360008181526001602090815260408083206001600160a01b0387168452909152812054909161056491859061076f908690611bf5565b6110a9565b61077c610f05565b6107985760405162461bcd60e51b81526004016105e490611c08565b603854156107e85760405162461bcd60e51b815260206004820152601a60248201527f496e697469616c697a653220616c72656164792063616c6c656400000000000060448201526064016105e4565b600254600003610804576b033b2e3c9fd0803ce8000000603855565b6002547f00000000000000000000000000000000000000000000000000000000000000006040516370a0823160e01b81523060048201526001600160a01b0391909116906370a0823190602401602060405180830381865afa15801561086e573d6000803e3d6000fd5b505050506040513d601f19601f820116820180604052508101906108929190611c3f565b61089a611025565b6108a49190611bbc565b6108ae9190611bd3565b6038555b565b600061055182610530565b7f44c4d30b2eaad5130ad70c3ba6972730566f3e6359ab83e800d905c61b1c51db546001600160a01b0316336001600160a01b03161461095a5760405162461bcd60e51b815260206004820152603060248201527f4f6e6c79207468652070656e64696e6720476f7665726e6f722063616e20636f60448201526f6d706c6574652074686520636c61696d60801b60648201526084016105e4565b6108b233611405565b60003360006109718561101a565b905061099f7f0000000000000000000000000000000000000000000000000000000000000000833088611464565b6109a9848261149c565b836001600160a01b0316826001600160a01b03167fdcbc1c05240f31ff3ad067ef1ee35ce4997762752e3a095284754544f4c709d787846040516109f7929190918252602082015260400190565b60405180910390a3949350505050565b610a0f610f05565b610a2b5760405162461bcd60e51b81526004016105e490611c08565b600554610100900460ff1680610a44575060055460ff16155b610aa75760405162461bcd60e51b815260206004820152602e60248201527f496e697469616c697a61626c653a20636f6e747261637420697320616c72656160448201526d191e481a5b9a5d1a585b1a5e995960921b60648201526084016105e4565b600554610100900460ff16158015610ac9576005805461ffff19166101011790555b7f00000000000000000000000000000000000000000000000000000000000000006001600160a01b031663f51b0fd46040518163ffffffff1660e01b8152600401600060405180830381600087803b158015610b2457600080fd5b505af1158015610b38573d6000803e3d6000fd5b50505050610b44610774565b8015610b56576005805461ff00191690555b50565b6000336000610b6785610c93565b9050610b957f0000000000000000000000000000000000000000000000000000000000000000833084611464565b610b9f848661149c565b836001600160a01b0316826001600160a01b03167fdcbc1c05240f31ff3ad067ef1ee35ce4997762752e3a095284754544f4c709d783886040516109f7929190918252602082015260400190565b3360009081526001602090815260408083206001600160a01b038616845290915281205482811015610c6f5760405162461bcd60e51b815260206004820152602560248201527f45524332303a2064656372656173656420616c6c6f77616e63652062656c6f77604482015264207a65726f60d81b60648201526084016105e4565b610c7c33858584036110a9565b5060019392505050565b6000610564338484611235565b600080610c9f83610530565b90508261058582610eee565b6000610cb682610f36565b841115610d055760405162461bcd60e51b815260206004820152601f60248201527f455243343632363a207769746864726177206d6f7265207468656e206d61780060448201526064016105e4565b336000610d118661056d565b9050836001600160a01b0316826001600160a01b031614610d3757610d3784838361157b565b610d418482611607565b610d6c7f000000000000000000000000000000000000000000000000000000000000000086886111cd565b836001600160a01b0316856001600160a01b0316836001600160a01b03167ffbde797d201c681b91056529119e0b02407c7bb96a4a2c75c01fc9667232c8db8985604051610dc4929190918252602082015260400190565b60405180910390a495945050505050565b6000610de082610ffc565b841115610e2f5760405162461bcd60e51b815260206004820152601d60248201527f455243343632363a2072656465656d206d6f7265207468656e206d617800000060448201526064016105e4565b336000610e3b866108b4565b9050836001600160a01b0316826001600160a01b031614610e6157610e6184838861157b565b610e6b8487611607565b610e967f000000000000000000000000000000000000000000000000000000000000000086836111cd565b836001600160a01b0316856001600160a01b0316836001600160a01b03167ffbde797d201c681b91056529119e0b02407c7bb96a4a2c75c01fc9667232c8db848a604051610dc4929190918252602082015260400190565b6000603854610efb611025565b6105479084611bbc565b6000610f1d600080516020611caa8339815191525490565b6001600160a01b0316336001600160a01b031614905090565b6001600160a01b03811660009081526020819052604081205461055190610530565b610f60610f05565b610f7c5760405162461bcd60e51b81526004016105e490611c08565b610fa4817f44c4d30b2eaad5130ad70c3ba6972730566f3e6359ab83e800d905c61b1c51db55565b806001600160a01b0316610fc4600080516020611caa8339815191525490565b6001600160a01b03167fa39cc5eb22d0f34d8beaefee8a3f17cc229c1a1d1ef87a5ad47313487b1c4f0d60405160405180910390a350565b6001600160a01b038116600090815260208190526040812054610551565b600061055182610eee565b60007f00000000000000000000000000000000000000000000000000000000000000006001600160a01b0316637a46a9c56040518163ffffffff1660e01b8152600401602060405180830381865afa158015611085573d6000803e3d6000fd5b505050506040513d601f19601f8201168201806040525081019061052b9190611c3f565b6001600160a01b03831661110b5760405162461bcd60e51b8152602060048201526024808201527f45524332303a20617070726f76652066726f6d20746865207a65726f206164646044820152637265737360e01b60648201526084016105e4565b6001600160a01b03821661116c5760405162461bcd60e51b815260206004820152602260248201527f45524332303a20617070726f766520746f20746865207a65726f206164647265604482015261737360f01b60648201526084016105e4565b6001600160a01b0383811660008181526001602090815260408083209487168084529482529182902085905590518481527f8c5be1e5ebec7d5bd14f71427d1e84f3dd0314c0f7b2291e5b200ac8c7c3b925910160405180910390a3505050565b6040516001600160a01b03831660248201526044810182905261123090849063a9059cbb60e01b906064015b60408051601f198184030181529190526020810180516001600160e01b03166001600160e01b031990931692909217909152611755565b505050565b6001600160a01b0383166112995760405162461bcd60e51b815260206004820152602560248201527f45524332303a207472616e736665722066726f6d20746865207a65726f206164604482015264647265737360d81b60648201526084016105e4565b6001600160a01b0382166112fb5760405162461bcd60e51b815260206004820152602360248201527f45524332303a207472616e7366657220746f20746865207a65726f206164647260448201526265737360e81b60648201526084016105e4565b6001600160a01b038316600090815260208190526040902054818110156113735760405162461bcd60e51b815260206004820152602660248201527f45524332303a207472616e7366657220616d6f756e7420657863656564732062604482015265616c616e636560d01b60648201526084016105e4565b6001600160a01b038085166000908152602081905260408082208585039055918516815290812080548492906113aa908490611bf5565b92505081905550826001600160a01b0316846001600160a01b03167fddf252ad1be2c89b69c2b068fc378daa952ba7f163c4a11628f55a4df523b3ef846040516113f691815260200190565b60405180910390a35b50505050565b6001600160a01b03811661145b5760405162461bcd60e51b815260206004820152601a60248201527f4e657720476f7665726e6f72206973206164647265737328302900000000000060448201526064016105e4565b610b5681611827565b6040516001600160a01b03808516602483015283166044820152606481018290526113ff9085906323b872dd60e01b906084016111f9565b6001600160a01b0382166114f25760405162461bcd60e51b815260206004820152601f60248201527f45524332303a206d696e7420746f20746865207a65726f20616464726573730060448201526064016105e4565b80600260008282546115049190611bf5565b90915550506001600160a01b03821660009081526020819052604081208054839290611531908490611bf5565b90915550506040518181526001600160a01b038316906000907fddf252ad1be2c89b69c2b068fc378daa952ba7f163c4a11628f55a4df523b3ef9060200160405180910390a35050565b6001600160a01b0383811660009081526001602090815260408083209386168352929052205460001981146113ff57818110156115fa5760405162461bcd60e51b815260206004820152601d60248201527f45524332303a20696e73756666696369656e7420616c6c6f77616e636500000060448201526064016105e4565b6113ff84848484036110a9565b6001600160a01b0382166116675760405162461bcd60e51b815260206004820152602160248201527f45524332303a206275726e2066726f6d20746865207a65726f206164647265736044820152607360f81b60648201526084016105e4565b6001600160a01b038216600090815260208190526040902054818110156116db5760405162461bcd60e51b815260206004820152602260248201527f45524332303a206275726e20616d6f756e7420657863656564732062616c616e604482015261636560f01b60648201526084016105e4565b6001600160a01b038316600090815260208190526040812083830390556002805484929061170a908490611c58565b90915550506040518281526000906001600160a01b038516907fddf252ad1be2c89b69c2b068fc378daa952ba7f163c4a11628f55a4df523b3ef9060200160405180910390a3505050565b60006117aa826040518060400160405280602081526020017f5361666545524332303a206c6f772d6c6576656c2063616c6c206661696c6564815250856001600160a01b031661188e9092919063ffffffff16565b80519091501561123057808060200190518101906117c89190611c6b565b6112305760405162461bcd60e51b815260206004820152602a60248201527f5361666545524332303a204552433230206f7065726174696f6e20646964206e6044820152691bdd081cdd58d8d9595960b21b60648201526084016105e4565b806001600160a01b0316611847600080516020611caa8339815191525490565b6001600160a01b03167fc7c0c772add429241571afb3805861fb3cfa2af374534088b76cdb4325a87e9a60405160405180910390a3600080516020611caa83398151915255565b606061189d84846000856118a5565b949350505050565b6060824710156119065760405162461bcd60e51b815260206004820152602660248201527f416464726573733a20696e73756666696369656e742062616c616e636520666f6044820152651c8818d85b1b60d21b60648201526084016105e4565b843b6119545760405162461bcd60e51b815260206004820152601d60248201527f416464726573733a2063616c6c20746f206e6f6e2d636f6e747261637400000060448201526064016105e4565b600080866001600160a01b031685876040516119709190611c8d565b60006040518083038185875af1925050503d80600081146119ad576040519150601f19603f3d011682016040523d82523d6000602084013e6119b2565b606091505b50915091506119c28282866119cd565b979650505050505050565b606083156119dc5750816105a1565b8251156119ec5782518084602001fd5b8160405162461bcd60e51b81526004016105e49190611a2a565b60005b83811015611a21578181015183820152602001611a09565b50506000910152565b6020815260008251806020840152611a49816040850160208701611a06565b601f01601f19169190910160400192915050565b600060208284031215611a6f57600080fd5b5035919050565b80356001600160a01b0381168114611a8d57600080fd5b919050565b60008060408385031215611aa557600080fd5b611aae83611a76565b946020939093013593505050565b600080600060608486031215611ad157600080fd5b611ada84611a76565b9250611ae860208501611a76565b929592945050506040919091013590565b600060208284031215611b0b57600080fd5b6105a182611a76565b60008060408385031215611b2757600080fd5b82359150611b3760208401611a76565b90509250929050565b600080600060608486031215611b5557600080fd5b83359250611b6560208501611a76565b9150611b7360408501611a76565b90509250925092565b60008060408385031215611b8f57600080fd5b611b9883611a76565b9150611b3760208401611a76565b634e487b7160e01b600052601160045260246000fd5b808202811582820484141761055157610551611ba6565b600082611bf057634e487b7160e01b600052601260045260246000fd5b500490565b8082018082111561055157610551611ba6565b6020808252601a908201527f43616c6c6572206973206e6f742074686520476f7665726e6f72000000000000604082015260600190565b600060208284031215611c5157600080fd5b5051919050565b8181038181111561055157610551611ba6565b600060208284031215611c7d57600080fd5b815180151581146105a157600080fd5b60008251611c9f818460208701611a06565b919091019291505056fe7bea13895fa79d2831e0a9e28edede30099005a50d652d8957cf8a607ee6ca4aa2646970667358221220aaf2a7c902a9f100a06f343bb0f5107db8c2cb8c00977b36af33c6858d8659d564736f6c634300081c0033",
  "libraries": {},
  "devdoc": {
    "author": "Origin Protocol Inc",
    "events": {
      "Approval(address,address,uint256)": {
        "details": "Emitted when the allowance of a `spender` for an `owner` is set by a call to {approve}. `value` is the new allowance."
      },
      "Transfer(address,address,uint256)": {
        "details": "Emitted when `value` tokens are moved from one account (`from`) to another (`to`). Note that `value` may be zero."
      }
    },
    "kind": "dev",
    "methods": {
      "allowance(address,address)": {
        "details": "See {IERC20-allowance}."
      },
      "approve(address,uint256)": {
        "details": "See {IERC20-approve}. Requirements: - `spender` cannot be the zero address."
      },
      "asset()": {
        "details": "See {IERC4262-asset} "
      },
      "balanceOf(address)": {
        "details": "See {IERC20-balanceOf}."
      },
      "convertToAssets(uint256)": {
        "details": "See {IERC4262-convertToAssets} "
      },
      "convertToShares(uint256)": {
        "details": "See {IERC4262-convertToShares} Will revert if asserts > 0, totalSupply > 0 and totalAssets = 0. That corresponds to a case where any asset would represent an infinite amout of shares."
      },
      "decimals()": {
        "details": "Returns the number of decimals used to get its user representation. For example, if `decimals` equals `2`, a balance of `505` tokens should be displayed to a user as `5.05` (`505 / 10 ** 2`). Tokens usually opt for a value of 18, imitating the relationship between Ether and Wei. This is the value {ERC20} uses, unless this function is overridden; NOTE: This information is only used for _display_ purposes: it in no way affects any of the arithmetic of the contract, including {IERC20-balanceOf} and {IERC20-transfer}."
      },
      "decreaseAllowance(address,uint256)": {
        "details": "Atomically decreases the allowance granted to `spender` by the caller. This is an alternative to {approve} that can be used as a mitigation for problems described in {IERC20-approve}. Emits an {Approval} event indicating the updated allowance. Requirements: - `spender` cannot be the zero address. - `spender` must have allowance for the caller of at least `subtractedValue`."
      },
      "deposit(uint256,address)": {
        "details": "See {IERC4262-deposit} "
      },
      "increaseAllowance(address,uint256)": {
        "details": "Atomically increases the allowance granted to `spender` by the caller. This is an alternative to {approve} that can be used as a mitigation for problems described in {IERC20-approve}. Emits an {Approval} event indicating the updated allowance. Requirements: - `spender` cannot be the zero address."
      },
      "maxDeposit(address)": {
        "details": "See {IERC4262-maxDeposit} "
      },
      "maxMint(address)": {
        "details": "See {IERC4262-maxMint} "
      },
      "maxRedeem(address)": {
        "details": "See {IERC4262-maxRedeem} "
      },
      "maxWithdraw(address)": {
        "details": "See {IERC4262-maxWithdraw} "
      },
      "mint(uint256,address)": {
        "details": "See {IERC4262-mint} "
      },
      "previewDeposit(uint256)": {
        "details": "See {IERC4262-previewDeposit} "
      },
      "previewMint(uint256)": {
        "details": "See {IERC4262-previewMint} "
      },
      "previewRedeem(uint256)": {
        "details": "See {IERC4262-previewRedeem} "
      },
      "previewWithdraw(uint256)": {
        "details": "See {IERC4262-previewWithdraw} "
      },
      "redeem(uint256,address,address)": {
        "details": "See {IERC4262-redeem} "
      },
      "totalAssets()": {
        "details": "See {IERC4262-totalAssets} "
      },
      "totalSupply()": {
        "details": "See {IERC20-totalSupply}."
      },
      "transfer(address,uint256)": {
        "details": "See {IERC20-transfer}. Requirements: - `recipient` cannot be the zero address. - the caller must have a balance of at least `amount`."
      },
      "transferFrom(address,address,uint256)": {
        "details": "See {IERC20-transferFrom}. Emits an {Approval} event indicating the updated allowance. This is not required by the EIP. See the note at the beginning of {ERC20}. Requirements: - `sender` and `recipient` cannot be the zero address. - `sender` must have a balance of at least `amount`. - the caller must have allowance for ``sender``'s tokens of at least `amount`."
      },
      "transferGovernance(address)": {
        "params": {
          "_newGovernor": "Address of the new Governor"
        }
      },
      "transferToken(address,uint256)": {
        "params": {
          "amount_": "Amount of the asset to transfer",
          "asset_": "Address for the asset"
        }
      },
      "withdraw(uint256,address,address)": {
        "details": "See {IERC4262-withdraw} "
      }
    },
    "title": "OETH Token Contract",
    "version": 1
  },
  "userdoc": {
    "kind": "user",
    "methods": {
      "claimGovernance()": {
        "notice": "Claim Governance of the contract to a new account (`newGovernor`). Can only be called by the new Governor."
      },
      "governor()": {
        "notice": "Returns the address of the current Governor."
      },
      "initialize()": {
        "notice": "Enable OETH rebasing for this contract"
      },
      "initialize2()": {
        "notice": "secondary initializer that newly deployed contracts will execute as part         of primary initialize function and the existing contracts will have it called         as a governance operation."
      },
      "isGovernor()": {
        "notice": "Returns true if the caller is the current Governor."
      },
      "transferGovernance(address)": {
        "notice": "Transfers Governance of the contract to a new account (`newGovernor`). Can only be called by the current Governor. Must be claimed for this to complete"
      },
      "transferToken(address,uint256)": {
        "notice": "Transfer token to governor. Intended for recovering tokens stuck in      contract, i.e. mistaken sends. Cannot transfer OETH"
      }
    },
    "version": 1
  },
  "storageLayout": {
    "storage": [
      {
        "astId": 747,
        "contract": "contracts/token/WOETHBase.sol:WOETHBase",
        "label": "_balances",
        "offset": 0,
        "slot": "0",
        "type": "t_mapping(t_address,t_uint256)"
      },
      {
        "astId": 753,
        "contract": "contracts/token/WOETHBase.sol:WOETHBase",
        "label": "_allowances",
        "offset": 0,
        "slot": "1",
        "type": "t_mapping(t_address,t_mapping(t_address,t_uint256))"
      },
      {
        "astId": 755,
        "contract": "contracts/token/WOETHBase.sol:WOETHBase",
        "label": "_totalSupply",
        "offset": 0,
        "slot": "2",
        "type": "t_uint256"
      },
      {
        "astId": 757,
        "contract": "contracts/token/WOETHBase.sol:WOETHBase",
        "label": "_name",
        "offset": 0,
        "slot": "3",
        "type": "t_string_storage"
      },
      {
        "astId": 759,
        "contract": "contracts/token/WOETHBase.sol:WOETHBase",
        "label": "_symbol",
        "offset": 0,
        "slot": "4",
        "type": "t_string_storage"
      },
      {
        "astId": 54861,
        "contract": "contracts/token/WOETHBase.sol:WOETHBase",
        "label": "initialized",
        "offset": 0,
        "slot": "5",
        "type": "t_bool"
      },
      {
        "astId": 54864,
        "contract": "contracts/token/WOETHBase.sol:WOETHBase",
        "label": "initializing",
        "offset": 1,
        "slot": "5",
        "type": "t_bool"
      },
      {
        "astId": 54904,
        "contract": "contracts/token/WOETHBase.sol:WOETHBase",
        "label": "______gap",
        "offset": 0,
        "slot": "6",
        "type": "t_array(t_uint256)50_storage"
      },
      {
        "astId": 52630,
        "contract": "contracts/token/WOETHBase.sol:WOETHBase",
        "label": "adjuster",
        "offset": 0,
        "slot": "56",
        "type": "t_uint256"
      },
      {
        "astId": 52634,
        "contract": "contracts/token/WOETHBase.sol:WOETHBase",
        "label": "__gap",
        "offset": 0,
        "slot": "57",
        "type": "t_array(t_uint256)49_storage"
      }
    ],
    "types": {
      "t_address": {
        "encoding": "inplace",
        "label": "address",
        "numberOfBytes": "20"
      },
      "t_array(t_uint256)49_storage": {
        "base": "t_uint256",
        "encoding": "inplace",
        "label": "uint256[49]",
        "numberOfBytes": "1568"
      },
      "t_array(t_uint256)50_storage": {
        "base": "t_uint256",
        "encoding": "inplace",
        "label": "uint256[50]",
        "numberOfBytes": "1600"
      },
      "t_bool": {
        "encoding": "inplace",
        "label": "bool",
        "numberOfBytes": "1"
      },
      "t_mapping(t_address,t_mapping(t_address,t_uint256))": {
        "encoding": "mapping",
        "key": "t_address",
        "label": "mapping(address => mapping(address => uint256))",
        "numberOfBytes": "32",
        "value": "t_mapping(t_address,t_uint256)"
      },
      "t_mapping(t_address,t_uint256)": {
        "encoding": "mapping",
        "key": "t_address",
        "label": "mapping(address => uint256)",
        "numberOfBytes": "32",
        "value": "t_uint256"
      },
      "t_string_storage": {
        "encoding": "bytes",
        "label": "string",
        "numberOfBytes": "32"
      },
      "t_uint256": {
        "encoding": "inplace",
        "label": "uint256",
        "numberOfBytes": "32"
      }
    }
  }
}